{
	"verifysignature.sol": {
		"VerifySignature": {
			"abi": [
				{
					"inputs": [
						{
							"internalType": "bytes32",
							"name": "_messageHash",
							"type": "bytes32"
						}
					],
					"name": "getEthSignedMessageHash",
					"outputs": [
						{
							"internalType": "bytes32",
							"name": "",
							"type": "bytes32"
						}
					],
					"stateMutability": "pure",
					"type": "function"
				},
				{
					"inputs": [
						{
							"internalType": "address",
							"name": "_user",
							"type": "address"
						},
						{
							"internalType": "uint256",
							"name": "_amount",
							"type": "uint256"
						}
					],
					"name": "getMessageHash",
					"outputs": [
						{
							"internalType": "bytes32",
							"name": "",
							"type": "bytes32"
						}
					],
					"stateMutability": "view",
					"type": "function"
				},
				{
					"inputs": [
						{
							"internalType": "bytes32",
							"name": "_ethSignedMessageHash",
							"type": "bytes32"
						},
						{
							"internalType": "bytes",
							"name": "_signature",
							"type": "bytes"
						}
					],
					"name": "recoverSigner",
					"outputs": [
						{
							"internalType": "address",
							"name": "",
							"type": "address"
						}
					],
					"stateMutability": "pure",
					"type": "function"
				},
				{
					"inputs": [
						{
							"internalType": "bytes",
							"name": "sig",
							"type": "bytes"
						}
					],
					"name": "splitSignature",
					"outputs": [
						{
							"internalType": "bytes32",
							"name": "r",
							"type": "bytes32"
						},
						{
							"internalType": "bytes32",
							"name": "s",
							"type": "bytes32"
						},
						{
							"internalType": "uint8",
							"name": "v",
							"type": "uint8"
						}
					],
					"stateMutability": "pure",
					"type": "function"
				},
				{
					"inputs": [
						{
							"internalType": "address",
							"name": "_signer",
							"type": "address"
						},
						{
							"internalType": "address",
							"name": "_user",
							"type": "address"
						},
						{
							"internalType": "uint256",
							"name": "_amount",
							"type": "uint256"
						},
						{
							"internalType": "bytes",
							"name": "signature",
							"type": "bytes"
						}
					],
					"name": "verify",
					"outputs": [
						{
							"internalType": "bool",
							"name": "",
							"type": "bool"
						}
					],
					"stateMutability": "view",
					"type": "function"
				}
			],
			"devdoc": {
				"kind": "dev",
				"methods": {},
				"version": 1
			},
			"evm": {
				"assembly": "    /* \"verifysignature.sol\":61:2373  contract VerifySignature {... */\n  mstore(0x40, 0x80)\n  callvalue\n  dup1\n  iszero\n  tag_1\n  jumpi\n  0x00\n  dup1\n  revert\ntag_1:\n  pop\n  dataSize(sub_0)\n  dup1\n  dataOffset(sub_0)\n  0x00\n  codecopy\n  0x00\n  return\nstop\n\nsub_0: assembly {\n        /* \"verifysignature.sol\":61:2373  contract VerifySignature {... */\n      mstore(0x40, 0x80)\n      callvalue\n      dup1\n      iszero\n      tag_1\n      jumpi\n      0x00\n      dup1\n      revert\n    tag_1:\n      pop\n      jumpi(tag_2, lt(calldatasize, 0x04))\n      shr(0xe0, calldataload(0x00))\n      dup1\n      0x512c91df\n      eq\n      tag_3\n      jumpi\n      dup1\n      0x93e9f8fc\n      eq\n      tag_4\n      jumpi\n      dup1\n      0x97aba7f9\n      eq\n      tag_5\n      jumpi\n      dup1\n      0xa7bb5803\n      eq\n      tag_6\n      jumpi\n      dup1\n      0xfa540801\n      eq\n      tag_7\n      jumpi\n    tag_2:\n      0x00\n      dup1\n      revert\n        /* \"verifysignature.sol\":99:294  function getMessageHash(... */\n    tag_3:\n      tag_8\n      tag_9\n      calldatasize\n      0x04\n      tag_10\n      jump\t// in\n    tag_9:\n      tag_11\n      jump\t// in\n    tag_8:\n      mload(0x40)\n        /* \"#utility.yul\":597:622   */\n      swap1\n      dup2\n      mstore\n        /* \"#utility.yul\":585:587   */\n      0x20\n        /* \"#utility.yul\":570:588   */\n      add\n        /* \"verifysignature.sol\":99:294  function getMessageHash(... */\n    tag_12:\n      mload(0x40)\n      dup1\n      swap2\n      sub\n      swap1\n      return\n        /* \"verifysignature.sol\":804:1189  function verify(... */\n    tag_4:\n      tag_14\n      tag_15\n      calldatasize\n      0x04\n      tag_16\n      jump\t// in\n    tag_15:\n      tag_17\n      jump\t// in\n    tag_14:\n      mload(0x40)\n        /* \"#utility.yul\":2195:2209   */\n      swap1\n      iszero\n        /* \"#utility.yul\":2188:2210   */\n      iszero\n        /* \"#utility.yul\":2170:2211   */\n      dup2\n      mstore\n        /* \"#utility.yul\":2158:2160   */\n      0x20\n        /* \"#utility.yul\":2143:2161   */\n      add\n        /* \"verifysignature.sol\":804:1189  function verify(... */\n      tag_12\n        /* \"#utility.yul\":2030:2217   */\n      jump\n        /* \"verifysignature.sol\":1197:1471  function recoverSigner(... */\n    tag_5:\n      tag_20\n      tag_21\n      calldatasize\n      0x04\n      tag_22\n      jump\t// in\n    tag_21:\n      tag_23\n      jump\t// in\n    tag_20:\n      mload(0x40)\n      sub(shl(0xa0, 0x01), 0x01)\n        /* \"#utility.yul\":2779:2811   */\n      swap1\n      swap2\n      and\n        /* \"#utility.yul\":2761:2812   */\n      dup2\n      mstore\n        /* \"#utility.yul\":2749:2751   */\n      0x20\n        /* \"#utility.yul\":2734:2752   */\n      add\n        /* \"verifysignature.sol\":1197:1471  function recoverSigner(... */\n      tag_12\n        /* \"#utility.yul\":2615:2818   */\n      jump\n        /* \"verifysignature.sol\":1479:2370  function splitSignature(bytes memory sig)... */\n    tag_6:\n      tag_26\n      tag_27\n      calldatasize\n      0x04\n      tag_28\n      jump\t// in\n    tag_27:\n      tag_29\n      jump\t// in\n    tag_26:\n      0x40\n      dup1\n      mload\n        /* \"#utility.yul\":3346:3371   */\n      swap4\n      dup5\n      mstore\n        /* \"#utility.yul\":3402:3404   */\n      0x20\n        /* \"#utility.yul\":3387:3405   */\n      dup5\n      add\n        /* \"#utility.yul\":3380:3414   */\n      swap3\n      swap1\n      swap3\n      mstore\n        /* \"#utility.yul\":3462:3466   */\n      0xff\n        /* \"#utility.yul\":3450:3467   */\n      and\n        /* \"#utility.yul\":3430:3448   */\n      swap1\n      dup3\n      add\n        /* \"#utility.yul\":3423:3468   */\n      mstore\n        /* \"#utility.yul\":3334:3336   */\n      0x60\n        /* \"#utility.yul\":3319:3337   */\n      add\n        /* \"verifysignature.sol\":1479:2370  function splitSignature(bytes memory sig)... */\n      tag_12\n        /* \"#utility.yul\":3148:3474   */\n      jump\n        /* \"verifysignature.sol\":302:796  function getEthSignedMessageHash(bytes32 _messageHash)... */\n    tag_7:\n      tag_8\n      tag_33\n      calldatasize\n      0x04\n      tag_34\n      jump\t// in\n    tag_33:\n      tag_35\n      jump\t// in\n        /* \"verifysignature.sol\":99:294  function getMessageHash(... */\n    tag_11:\n        /* \"verifysignature.sol\":238:285  abi.encodePacked(_user, _amount, address(this)) */\n      mload(0x40)\n      not(0xffffffffffffffffffffffff)\n        /* \"#utility.yul\":3919:3921   */\n      0x60\n        /* \"#utility.yul\":3915:3930   */\n      dup5\n      dup2\n      shl\n        /* \"#utility.yul\":3911:3935   */\n      dup3\n      and\n        /* \"verifysignature.sol\":238:285  abi.encodePacked(_user, _amount, address(this)) */\n      0x20\n      dup5\n      add\n        /* \"#utility.yul\":3899:3936   */\n      mstore\n        /* \"#utility.yul\":3952:3964   */\n      0x34\n      dup4\n      add\n        /* \"#utility.yul\":3945:3973   */\n      dup5\n      swap1\n      mstore\n        /* \"verifysignature.sol\":279:283  this */\n      address\n        /* \"#utility.yul\":4007:4022   */\n      swap1\n      shl\n        /* \"#utility.yul\":4003:4027   */\n      and\n        /* \"#utility.yul\":3989:4001   */\n      0x54\n      dup3\n      add\n        /* \"#utility.yul\":3982:4028   */\n      mstore\n        /* \"verifysignature.sol\":201:208  bytes32 */\n      0x00\n      swap1\n        /* \"#utility.yul\":4044:4056   */\n      0x68\n      add\n        /* \"verifysignature.sol\":238:285  abi.encodePacked(_user, _amount, address(this)) */\n      mload(0x40)\n      0x20\n      dup2\n      dup4\n      sub\n      sub\n      dup2\n      mstore\n      swap1\n      0x40\n      mstore\n        /* \"verifysignature.sol\":228:286  keccak256(abi.encodePacked(_user, _amount, address(this))) */\n      dup1\n      mload\n      swap1\n      0x20\n      add\n      keccak256\n        /* \"verifysignature.sol\":221:286  return keccak256(abi.encodePacked(_user, _amount, address(this))) */\n      swap1\n      pop\n        /* \"verifysignature.sol\":99:294  function getMessageHash(... */\n      swap3\n      swap2\n      pop\n      pop\n      jump\t// out\n        /* \"verifysignature.sol\":804:1189  function verify(... */\n    tag_17:\n        /* \"verifysignature.sol\":957:961  bool */\n      0x00\n        /* \"verifysignature.sol\":974:993  bytes32 messageHash */\n      dup1\n        /* \"verifysignature.sol\":996:1026  getMessageHash(_user, _amount) */\n      tag_41\n        /* \"verifysignature.sol\":1011:1016  _user */\n      dup6\n        /* \"verifysignature.sol\":1018:1025  _amount */\n      dup6\n        /* \"verifysignature.sol\":996:1010  getMessageHash */\n      tag_11\n        /* \"verifysignature.sol\":996:1026  getMessageHash(_user, _amount) */\n      jump\t// in\n    tag_41:\n        /* \"verifysignature.sol\":974:1026  bytes32 messageHash = getMessageHash(_user, _amount) */\n      swap1\n      pop\n        /* \"verifysignature.sol\":1037:1065  bytes32 ethSignedMessageHash */\n      0x00\n        /* \"verifysignature.sol\":1068:1104  getEthSignedMessageHash(messageHash) */\n      tag_42\n        /* \"verifysignature.sol\":1092:1103  messageHash */\n      dup3\n        /* \"verifysignature.sol\":1068:1091  getEthSignedMessageHash */\n      tag_35\n        /* \"verifysignature.sol\":1068:1104  getEthSignedMessageHash(messageHash) */\n      jump\t// in\n    tag_42:\n        /* \"verifysignature.sol\":1037:1104  bytes32 ethSignedMessageHash = getEthSignedMessageHash(messageHash) */\n      swap1\n      pop\n        /* \"verifysignature.sol\":1174:1181  _signer */\n      dup7\n      sub(shl(0xa0, 0x01), 0x01)\n        /* \"verifysignature.sol\":1124:1181  recoverSigner(ethSignedMessageHash, signature) == _signer */\n      and\n        /* \"verifysignature.sol\":1124:1170  recoverSigner(ethSignedMessageHash, signature) */\n      tag_43\n        /* \"verifysignature.sol\":1138:1158  ethSignedMessageHash */\n      dup3\n        /* \"verifysignature.sol\":1160:1169  signature */\n      dup7\n        /* \"verifysignature.sol\":1124:1137  recoverSigner */\n      tag_23\n        /* \"verifysignature.sol\":1124:1170  recoverSigner(ethSignedMessageHash, signature) */\n      jump\t// in\n    tag_43:\n      sub(shl(0xa0, 0x01), 0x01)\n        /* \"verifysignature.sol\":1124:1181  recoverSigner(ethSignedMessageHash, signature) == _signer */\n      and\n      eq\n      swap8\n        /* \"verifysignature.sol\":804:1189  function verify(... */\n      swap7\n      pop\n      pop\n      pop\n      pop\n      pop\n      pop\n      pop\n      jump\t// out\n        /* \"verifysignature.sol\":1197:1471  function recoverSigner(... */\n    tag_23:\n        /* \"verifysignature.sol\":1322:1329  address */\n      0x00\n        /* \"verifysignature.sol\":1343:1352  bytes32 r */\n      dup1\n        /* \"verifysignature.sol\":1354:1363  bytes32 s */\n      0x00\n        /* \"verifysignature.sol\":1365:1372  uint8 v */\n      dup1\n        /* \"verifysignature.sol\":1376:1402  splitSignature(_signature) */\n      tag_45\n        /* \"verifysignature.sol\":1391:1401  _signature */\n      dup6\n        /* \"verifysignature.sol\":1376:1390  splitSignature */\n      tag_29\n        /* \"verifysignature.sol\":1376:1402  splitSignature(_signature) */\n      jump\t// in\n    tag_45:\n        /* \"verifysignature.sol\":1422:1463  ecrecover(_ethSignedMessageHash, v, r, s) */\n      0x40\n      dup1\n      mload\n      0x00\n      dup2\n      mstore\n      0x20\n      dup2\n      add\n      dup1\n      dup4\n      mstore\n        /* \"#utility.yul\":4294:4319   */\n      dup12\n      swap1\n      mstore\n        /* \"#utility.yul\":4367:4371   */\n      0xff\n        /* \"#utility.yul\":4355:4372   */\n      dup4\n      and\n        /* \"#utility.yul\":4335:4353   */\n      swap2\n      dup2\n      add\n        /* \"#utility.yul\":4328:4373   */\n      swap2\n      swap1\n      swap2\n      mstore\n        /* \"#utility.yul\":4389:4407   */\n      0x60\n      dup2\n      add\n        /* \"#utility.yul\":4382:4416   */\n      dup5\n      swap1\n      mstore\n        /* \"#utility.yul\":4432:4450   */\n      0x80\n      dup2\n      add\n        /* \"#utility.yul\":4425:4459   */\n      dup4\n      swap1\n      mstore\n        /* \"verifysignature.sol\":1342:1402  (bytes32 r, bytes32 s, uint8 v) = splitSignature(_signature) */\n      swap3\n      swap6\n      pop\n      swap1\n      swap4\n      pop\n      swap2\n      pop\n        /* \"verifysignature.sol\":1422:1463  ecrecover(_ethSignedMessageHash, v, r, s) */\n      0x01\n      swap1\n        /* \"#utility.yul\":4266:4285   */\n      0xa0\n      add\n        /* \"verifysignature.sol\":1422:1463  ecrecover(_ethSignedMessageHash, v, r, s) */\n      0x20\n      mload(0x40)\n      0x20\n      dup2\n      sub\n      swap1\n      dup1\n      dup5\n      sub\n      swap1\n      dup6\n      gas\n      staticcall\n      iszero\n      dup1\n      iszero\n      tag_49\n      jumpi\n      returndatasize\n      0x00\n      dup1\n      returndatacopy\n      revert(0x00, returndatasize)\n    tag_49:\n      pop\n      pop\n      mload(add(not(0x1f), mload(0x40)))\n      swap8\n        /* \"verifysignature.sol\":1197:1471  function recoverSigner(... */\n      swap7\n      pop\n      pop\n      pop\n      pop\n      pop\n      pop\n      pop\n      jump\t// out\n        /* \"verifysignature.sol\":1479:2370  function splitSignature(bytes memory sig)... */\n    tag_29:\n        /* \"verifysignature.sol\":1583:1592  bytes32 r */\n      0x00\n        /* \"verifysignature.sol\":1607:1616  bytes32 s */\n      dup1\n        /* \"verifysignature.sol\":1631:1638  uint8 v */\n      0x00\n        /* \"verifysignature.sol\":1674:1677  sig */\n      dup4\n        /* \"verifysignature.sol\":1674:1684  sig.length */\n      mload\n        /* \"verifysignature.sol\":1688:1690  65 */\n      0x41\n        /* \"verifysignature.sol\":1674:1690  sig.length == 65 */\n      eq\n        /* \"verifysignature.sol\":1666:1719  require(sig.length == 65, \"invalid signature length\") */\n      tag_51\n      jumpi\n      mload(0x40)\n      shl(0xe5, 0x461bcd)\n      dup2\n      mstore\n        /* \"#utility.yul\":4672:4674   */\n      0x20\n        /* \"verifysignature.sol\":1666:1719  require(sig.length == 65, \"invalid signature length\") */\n      0x04\n      dup3\n      add\n        /* \"#utility.yul\":4654:4675   */\n      mstore\n        /* \"#utility.yul\":4711:4713   */\n      0x18\n        /* \"#utility.yul\":4691:4709   */\n      0x24\n      dup3\n      add\n        /* \"#utility.yul\":4684:4714   */\n      mstore\n        /* \"#utility.yul\":4750:4776   */\n      0x696e76616c6964207369676e6174757265206c656e6774680000000000000000\n        /* \"#utility.yul\":4730:4748   */\n      0x44\n      dup3\n      add\n        /* \"#utility.yul\":4723:4777   */\n      mstore\n        /* \"#utility.yul\":4794:4812   */\n      0x64\n      add\n        /* \"verifysignature.sol\":1666:1719  require(sig.length == 65, \"invalid signature length\") */\n      mload(0x40)\n      dup1\n      swap2\n      sub\n      swap1\n      revert\n    tag_51:\n      pop\n      pop\n      pop\n        /* \"verifysignature.sol\":2128:2130  32 */\n      0x20\n        /* \"verifysignature.sol\":2119:2131  add(sig, 32) */\n      dup2\n      add\n        /* \"verifysignature.sol\":2113:2132  mload(add(sig, 32)) */\n      mload\n        /* \"verifysignature.sol\":2198:2200  64 */\n      0x40\n        /* \"verifysignature.sol\":2189:2201  add(sig, 64) */\n      dup3\n      add\n        /* \"verifysignature.sol\":2183:2202  mload(add(sig, 64)) */\n      mload\n        /* \"verifysignature.sol\":2305:2307  96 */\n      0x60\n        /* \"verifysignature.sol\":2296:2308  add(sig, 96) */\n      swap1\n      swap3\n      add\n        /* \"verifysignature.sol\":2290:2309  mload(add(sig, 96)) */\n      mload\n        /* \"verifysignature.sol\":2113:2132  mload(add(sig, 32)) */\n      swap1\n      swap3\n        /* \"verifysignature.sol\":2287:2288  0 */\n      0x00\n        /* \"verifysignature.sol\":2282:2310  byte(0, mload(add(sig, 96))) */\n      swap2\n      swap1\n      swap2\n      byte\n      swap1\n        /* \"verifysignature.sol\":1479:2370  function splitSignature(bytes memory sig)... */\n      jump\t// out\n        /* \"verifysignature.sol\":302:796  function getEthSignedMessageHash(bytes32 _messageHash)... */\n    tag_35:\n        /* \"verifysignature.sol\":646:773  abi.encodePacked(... */\n      mload(0x40)\n        /* \"#utility.yul\":5065:5131   */\n      0x19457468657265756d205369676e6564204d6573736167653a0a333200000000\n        /* \"verifysignature.sol\":646:773  abi.encodePacked(... */\n      0x20\n      dup3\n      add\n        /* \"#utility.yul\":5053:5132   */\n      mstore\n        /* \"#utility.yul\":5148:5160   */\n      0x3c\n      dup2\n      add\n        /* \"#utility.yul\":5141:5169   */\n      dup3\n      swap1\n      mstore\n        /* \"verifysignature.sol\":405:412  bytes32 */\n      0x00\n      swap1\n        /* \"#utility.yul\":5185:5197   */\n      0x5c\n      add\n        /* \"verifysignature.sol\":646:773  abi.encodePacked(... */\n      mload(0x40)\n      0x20\n      dup2\n      dup4\n      sub\n      sub\n      dup2\n      mstore\n      swap1\n      0x40\n      mstore\n        /* \"verifysignature.sol\":618:788  keccak256(... */\n      dup1\n      mload\n      swap1\n      0x20\n      add\n      keccak256\n        /* \"verifysignature.sol\":598:788  return... */\n      swap1\n      pop\n        /* \"verifysignature.sol\":302:796  function getEthSignedMessageHash(bytes32 _messageHash)... */\n      swap2\n      swap1\n      pop\n      jump\t// out\n        /* \"#utility.yul\":14:187   */\n    tag_57:\n        /* \"#utility.yul\":82:102   */\n      dup1\n      calldataload\n      sub(shl(0xa0, 0x01), 0x01)\n        /* \"#utility.yul\":131:162   */\n      dup2\n      and\n        /* \"#utility.yul\":121:163   */\n      dup2\n      eq\n        /* \"#utility.yul\":111:181   */\n      tag_62\n      jumpi\n        /* \"#utility.yul\":177:178   */\n      0x00\n        /* \"#utility.yul\":174:175   */\n      dup1\n        /* \"#utility.yul\":167:179   */\n      revert\n        /* \"#utility.yul\":111:181   */\n    tag_62:\n        /* \"#utility.yul\":14:187   */\n      swap2\n      swap1\n      pop\n      jump\t// out\n        /* \"#utility.yul\":192:446   */\n    tag_10:\n        /* \"#utility.yul\":260:266   */\n      0x00\n        /* \"#utility.yul\":268:274   */\n      dup1\n        /* \"#utility.yul\":321:323   */\n      0x40\n        /* \"#utility.yul\":309:318   */\n      dup4\n        /* \"#utility.yul\":300:307   */\n      dup6\n        /* \"#utility.yul\":296:319   */\n      sub\n        /* \"#utility.yul\":292:324   */\n      slt\n        /* \"#utility.yul\":289:341   */\n      iszero\n      tag_64\n      jumpi\n        /* \"#utility.yul\":337:338   */\n      0x00\n        /* \"#utility.yul\":334:335   */\n      dup1\n        /* \"#utility.yul\":327:339   */\n      revert\n        /* \"#utility.yul\":289:341   */\n    tag_64:\n        /* \"#utility.yul\":360:389   */\n      tag_65\n        /* \"#utility.yul\":379:388   */\n      dup4\n        /* \"#utility.yul\":360:389   */\n      tag_57\n      jump\t// in\n    tag_65:\n        /* \"#utility.yul\":350:389   */\n      swap5\n        /* \"#utility.yul\":436:438   */\n      0x20\n        /* \"#utility.yul\":421:439   */\n      swap4\n      swap1\n      swap4\n      add\n        /* \"#utility.yul\":408:440   */\n      calldataload\n      swap4\n      pop\n      pop\n      pop\n        /* \"#utility.yul\":192:446   */\n      jump\t// out\n        /* \"#utility.yul\":633:760   */\n    tag_58:\n        /* \"#utility.yul\":694:704   */\n      0x4e487b71\n        /* \"#utility.yul\":689:692   */\n      0xe0\n        /* \"#utility.yul\":685:705   */\n      shl\n        /* \"#utility.yul\":682:683   */\n      0x00\n        /* \"#utility.yul\":675:706   */\n      mstore\n        /* \"#utility.yul\":725:729   */\n      0x41\n        /* \"#utility.yul\":722:723   */\n      0x04\n        /* \"#utility.yul\":715:730   */\n      mstore\n        /* \"#utility.yul\":749:753   */\n      0x24\n        /* \"#utility.yul\":746:747   */\n      0x00\n        /* \"#utility.yul\":739:754   */\n      revert\n        /* \"#utility.yul\":765:1483   */\n    tag_59:\n        /* \"#utility.yul\":807:812   */\n      0x00\n        /* \"#utility.yul\":860:863   */\n      dup3\n        /* \"#utility.yul\":853:857   */\n      0x1f\n        /* \"#utility.yul\":845:851   */\n      dup4\n        /* \"#utility.yul\":841:858   */\n      add\n        /* \"#utility.yul\":837:864   */\n      slt\n        /* \"#utility.yul\":827:882   */\n      tag_69\n      jumpi\n        /* \"#utility.yul\":878:879   */\n      0x00\n        /* \"#utility.yul\":875:876   */\n      dup1\n        /* \"#utility.yul\":868:880   */\n      revert\n        /* \"#utility.yul\":827:882   */\n    tag_69:\n        /* \"#utility.yul\":914:920   */\n      dup2\n        /* \"#utility.yul\":901:921   */\n      calldataload\n        /* \"#utility.yul\":940:958   */\n      0xffffffffffffffff\n        /* \"#utility.yul\":977:979   */\n      dup1\n        /* \"#utility.yul\":973:975   */\n      dup3\n        /* \"#utility.yul\":970:980   */\n      gt\n        /* \"#utility.yul\":967:1003   */\n      iszero\n      tag_71\n      jumpi\n        /* \"#utility.yul\":983:1001   */\n      tag_71\n      tag_58\n      jump\t// in\n    tag_71:\n        /* \"#utility.yul\":1058:1060   */\n      0x40\n        /* \"#utility.yul\":1052:1061   */\n      mload\n        /* \"#utility.yul\":1026:1028   */\n      0x1f\n        /* \"#utility.yul\":1112:1125   */\n      dup4\n      add\n      not(0x1f)\n        /* \"#utility.yul\":1108:1130   */\n      swap1\n      dup2\n      and\n        /* \"#utility.yul\":1132:1134   */\n      0x3f\n        /* \"#utility.yul\":1104:1135   */\n      add\n        /* \"#utility.yul\":1100:1140   */\n      and\n        /* \"#utility.yul\":1088:1141   */\n      dup2\n      add\n      swap1\n        /* \"#utility.yul\":1156:1174   */\n      dup3\n      dup3\n      gt\n        /* \"#utility.yul\":1176:1198   */\n      dup2\n      dup4\n      lt\n        /* \"#utility.yul\":1153:1199   */\n      or\n        /* \"#utility.yul\":1150:1222   */\n      iszero\n      tag_73\n      jumpi\n        /* \"#utility.yul\":1202:1220   */\n      tag_73\n      tag_58\n      jump\t// in\n    tag_73:\n        /* \"#utility.yul\":1242:1252   */\n      dup2\n        /* \"#utility.yul\":1238:1240   */\n      0x40\n        /* \"#utility.yul\":1231:1253   */\n      mstore\n        /* \"#utility.yul\":1277:1279   */\n      dup4\n        /* \"#utility.yul\":1269:1275   */\n      dup2\n        /* \"#utility.yul\":1262:1280   */\n      mstore\n        /* \"#utility.yul\":1323:1326   */\n      dup7\n        /* \"#utility.yul\":1316:1320   */\n      0x20\n        /* \"#utility.yul\":1311:1313   */\n      dup6\n        /* \"#utility.yul\":1303:1309   */\n      dup9\n        /* \"#utility.yul\":1299:1314   */\n      add\n        /* \"#utility.yul\":1295:1321   */\n      add\n        /* \"#utility.yul\":1292:1327   */\n      gt\n        /* \"#utility.yul\":1289:1344   */\n      iszero\n      tag_74\n      jumpi\n        /* \"#utility.yul\":1340:1341   */\n      0x00\n        /* \"#utility.yul\":1337:1338   */\n      dup1\n        /* \"#utility.yul\":1330:1342   */\n      revert\n        /* \"#utility.yul\":1289:1344   */\n    tag_74:\n        /* \"#utility.yul\":1404:1406   */\n      dup4\n        /* \"#utility.yul\":1397:1401   */\n      0x20\n        /* \"#utility.yul\":1389:1395   */\n      dup8\n        /* \"#utility.yul\":1385:1402   */\n      add\n        /* \"#utility.yul\":1378:1382   */\n      0x20\n        /* \"#utility.yul\":1370:1376   */\n      dup4\n        /* \"#utility.yul\":1366:1383   */\n      add\n        /* \"#utility.yul\":1353:1407   */\n      calldatacopy\n        /* \"#utility.yul\":1451:1452   */\n      0x00\n        /* \"#utility.yul\":1444:1448   */\n      0x20\n        /* \"#utility.yul\":1439:1441   */\n      dup6\n        /* \"#utility.yul\":1431:1437   */\n      dup4\n        /* \"#utility.yul\":1427:1442   */\n      add\n        /* \"#utility.yul\":1423:1449   */\n      add\n        /* \"#utility.yul\":1416:1453   */\n      mstore\n        /* \"#utility.yul\":1471:1477   */\n      dup1\n        /* \"#utility.yul\":1462:1477   */\n      swap5\n      pop\n      pop\n      pop\n      pop\n      pop\n        /* \"#utility.yul\":765:1483   */\n      swap3\n      swap2\n      pop\n      pop\n      jump\t// out\n        /* \"#utility.yul\":1488:2025   */\n    tag_16:\n        /* \"#utility.yul\":1583:1589   */\n      0x00\n        /* \"#utility.yul\":1591:1597   */\n      dup1\n        /* \"#utility.yul\":1599:1605   */\n      0x00\n        /* \"#utility.yul\":1607:1613   */\n      dup1\n        /* \"#utility.yul\":1660:1663   */\n      0x80\n        /* \"#utility.yul\":1648:1657   */\n      dup6\n        /* \"#utility.yul\":1639:1646   */\n      dup8\n        /* \"#utility.yul\":1635:1658   */\n      sub\n        /* \"#utility.yul\":1631:1664   */\n      slt\n        /* \"#utility.yul\":1628:1681   */\n      iszero\n      tag_76\n      jumpi\n        /* \"#utility.yul\":1677:1678   */\n      0x00\n        /* \"#utility.yul\":1674:1675   */\n      dup1\n        /* \"#utility.yul\":1667:1679   */\n      revert\n        /* \"#utility.yul\":1628:1681   */\n    tag_76:\n        /* \"#utility.yul\":1700:1729   */\n      tag_77\n        /* \"#utility.yul\":1719:1728   */\n      dup6\n        /* \"#utility.yul\":1700:1729   */\n      tag_57\n      jump\t// in\n    tag_77:\n        /* \"#utility.yul\":1690:1729   */\n      swap4\n      pop\n        /* \"#utility.yul\":1748:1786   */\n      tag_78\n        /* \"#utility.yul\":1782:1784   */\n      0x20\n        /* \"#utility.yul\":1771:1780   */\n      dup7\n        /* \"#utility.yul\":1767:1785   */\n      add\n        /* \"#utility.yul\":1748:1786   */\n      tag_57\n      jump\t// in\n    tag_78:\n        /* \"#utility.yul\":1738:1786   */\n      swap3\n      pop\n        /* \"#utility.yul\":1833:1835   */\n      0x40\n        /* \"#utility.yul\":1822:1831   */\n      dup6\n        /* \"#utility.yul\":1818:1836   */\n      add\n        /* \"#utility.yul\":1805:1837   */\n      calldataload\n        /* \"#utility.yul\":1795:1837   */\n      swap2\n      pop\n        /* \"#utility.yul\":1888:1890   */\n      0x60\n        /* \"#utility.yul\":1877:1886   */\n      dup6\n        /* \"#utility.yul\":1873:1891   */\n      add\n        /* \"#utility.yul\":1860:1892   */\n      calldataload\n        /* \"#utility.yul\":1915:1933   */\n      0xffffffffffffffff\n        /* \"#utility.yul\":1907:1913   */\n      dup2\n        /* \"#utility.yul\":1904:1934   */\n      gt\n        /* \"#utility.yul\":1901:1951   */\n      iszero\n      tag_79\n      jumpi\n        /* \"#utility.yul\":1947:1948   */\n      0x00\n        /* \"#utility.yul\":1944:1945   */\n      dup1\n        /* \"#utility.yul\":1937:1949   */\n      revert\n        /* \"#utility.yul\":1901:1951   */\n    tag_79:\n        /* \"#utility.yul\":1970:2019   */\n      tag_80\n        /* \"#utility.yul\":2011:2018   */\n      dup8\n        /* \"#utility.yul\":2002:2008   */\n      dup3\n        /* \"#utility.yul\":1991:2000   */\n      dup9\n        /* \"#utility.yul\":1987:2009   */\n      add\n        /* \"#utility.yul\":1970:2019   */\n      tag_59\n      jump\t// in\n    tag_80:\n        /* \"#utility.yul\":1960:2019   */\n      swap2\n      pop\n      pop\n        /* \"#utility.yul\":1488:2025   */\n      swap3\n      swap6\n      swap2\n      swap5\n      pop\n      swap3\n      pop\n      jump\t// out\n        /* \"#utility.yul\":2222:2610   */\n    tag_22:\n        /* \"#utility.yul\":2299:2305   */\n      0x00\n        /* \"#utility.yul\":2307:2313   */\n      dup1\n        /* \"#utility.yul\":2360:2362   */\n      0x40\n        /* \"#utility.yul\":2348:2357   */\n      dup4\n        /* \"#utility.yul\":2339:2346   */\n      dup6\n        /* \"#utility.yul\":2335:2358   */\n      sub\n        /* \"#utility.yul\":2331:2363   */\n      slt\n        /* \"#utility.yul\":2328:2380   */\n      iszero\n      tag_83\n      jumpi\n        /* \"#utility.yul\":2376:2377   */\n      0x00\n        /* \"#utility.yul\":2373:2374   */\n      dup1\n        /* \"#utility.yul\":2366:2378   */\n      revert\n        /* \"#utility.yul\":2328:2380   */\n    tag_83:\n        /* \"#utility.yul\":2412:2421   */\n      dup3\n        /* \"#utility.yul\":2399:2422   */\n      calldataload\n        /* \"#utility.yul\":2389:2422   */\n      swap2\n      pop\n        /* \"#utility.yul\":2473:2475   */\n      0x20\n        /* \"#utility.yul\":2462:2471   */\n      dup4\n        /* \"#utility.yul\":2458:2476   */\n      add\n        /* \"#utility.yul\":2445:2477   */\n      calldataload\n        /* \"#utility.yul\":2500:2518   */\n      0xffffffffffffffff\n        /* \"#utility.yul\":2492:2498   */\n      dup2\n        /* \"#utility.yul\":2489:2519   */\n      gt\n        /* \"#utility.yul\":2486:2536   */\n      iszero\n      tag_84\n      jumpi\n        /* \"#utility.yul\":2532:2533   */\n      0x00\n        /* \"#utility.yul\":2529:2530   */\n      dup1\n        /* \"#utility.yul\":2522:2534   */\n      revert\n        /* \"#utility.yul\":2486:2536   */\n    tag_84:\n        /* \"#utility.yul\":2555:2604   */\n      tag_85\n        /* \"#utility.yul\":2596:2603   */\n      dup6\n        /* \"#utility.yul\":2587:2593   */\n      dup3\n        /* \"#utility.yul\":2576:2585   */\n      dup7\n        /* \"#utility.yul\":2572:2594   */\n      add\n        /* \"#utility.yul\":2555:2604   */\n      tag_59\n      jump\t// in\n    tag_85:\n        /* \"#utility.yul\":2545:2604   */\n      swap2\n      pop\n      pop\n        /* \"#utility.yul\":2222:2610   */\n      swap3\n      pop\n      swap3\n      swap1\n      pop\n      jump\t// out\n        /* \"#utility.yul\":2823:3143   */\n    tag_28:\n        /* \"#utility.yul\":2891:2897   */\n      0x00\n        /* \"#utility.yul\":2944:2946   */\n      0x20\n        /* \"#utility.yul\":2932:2941   */\n      dup3\n        /* \"#utility.yul\":2923:2930   */\n      dup5\n        /* \"#utility.yul\":2919:2942   */\n      sub\n        /* \"#utility.yul\":2915:2947   */\n      slt\n        /* \"#utility.yul\":2912:2964   */\n      iszero\n      tag_88\n      jumpi\n        /* \"#utility.yul\":2960:2961   */\n      0x00\n        /* \"#utility.yul\":2957:2958   */\n      dup1\n        /* \"#utility.yul\":2950:2962   */\n      revert\n        /* \"#utility.yul\":2912:2964   */\n    tag_88:\n        /* \"#utility.yul\":3000:3009   */\n      dup2\n        /* \"#utility.yul\":2987:3010   */\n      calldataload\n        /* \"#utility.yul\":3033:3051   */\n      0xffffffffffffffff\n        /* \"#utility.yul\":3025:3031   */\n      dup2\n        /* \"#utility.yul\":3022:3052   */\n      gt\n        /* \"#utility.yul\":3019:3069   */\n      iszero\n      tag_89\n      jumpi\n        /* \"#utility.yul\":3065:3066   */\n      0x00\n        /* \"#utility.yul\":3062:3063   */\n      dup1\n        /* \"#utility.yul\":3055:3067   */\n      revert\n        /* \"#utility.yul\":3019:3069   */\n    tag_89:\n        /* \"#utility.yul\":3088:3137   */\n      tag_90\n        /* \"#utility.yul\":3129:3136   */\n      dup5\n        /* \"#utility.yul\":3120:3126   */\n      dup3\n        /* \"#utility.yul\":3109:3118   */\n      dup6\n        /* \"#utility.yul\":3105:3127   */\n      add\n        /* \"#utility.yul\":3088:3137   */\n      tag_59\n      jump\t// in\n    tag_90:\n        /* \"#utility.yul\":3078:3137   */\n      swap5\n        /* \"#utility.yul\":2823:3143   */\n      swap4\n      pop\n      pop\n      pop\n      pop\n      jump\t// out\n        /* \"#utility.yul\":3479:3659   */\n    tag_34:\n        /* \"#utility.yul\":3538:3544   */\n      0x00\n        /* \"#utility.yul\":3591:3593   */\n      0x20\n        /* \"#utility.yul\":3579:3588   */\n      dup3\n        /* \"#utility.yul\":3570:3577   */\n      dup5\n        /* \"#utility.yul\":3566:3589   */\n      sub\n        /* \"#utility.yul\":3562:3594   */\n      slt\n        /* \"#utility.yul\":3559:3611   */\n      iszero\n      tag_93\n      jumpi\n        /* \"#utility.yul\":3607:3608   */\n      0x00\n        /* \"#utility.yul\":3604:3605   */\n      dup1\n        /* \"#utility.yul\":3597:3609   */\n      revert\n        /* \"#utility.yul\":3559:3611   */\n    tag_93:\n      pop\n        /* \"#utility.yul\":3630:3653   */\n      calldataload\n      swap2\n        /* \"#utility.yul\":3479:3659   */\n      swap1\n      pop\n      jump\t// out\n\n    auxdata: 0xa2646970667358221220713c71eda9b7a5df18d7bd38f2f49865f67af7c0bf67fbc7ec34c0dd972019db64736f6c634300080f0033\n}\n",
				"bytecode": {
					"linkReferences": {},
					"object": "608060405234801561001057600080fd5b50610518806100206000396000f3fe608060405234801561001057600080fd5b50600436106100575760003560e01c8063512c91df1461005c57806393e9f8fc1461008257806397aba7f9146100a5578063a7bb5803146100d0578063fa54080114610101575b600080fd5b61006f61006a366004610310565b610114565b6040519081526020015b60405180910390f35b6100956100903660046103dd565b610165565b6040519015158152602001610079565b6100b86100b3366004610445565b6101aa565b6040516001600160a01b039091168152602001610079565b6100e36100de36600461048c565b610229565b60408051938452602084019290925260ff1690820152606001610079565b61006f61010f3660046104c9565b6102a1565b6040516bffffffffffffffffffffffff19606084811b821660208401526034830184905230901b16605482015260009060680160405160208183030381529060405280519060200120905092915050565b6000806101728585610114565b9050600061017f826102a1565b9050866001600160a01b031661019582866101aa565b6001600160a01b031614979650505050505050565b6000806000806101b985610229565b6040805160008152602081018083528b905260ff8316918101919091526060810184905260808101839052929550909350915060019060a0016020604051602081039080840390855afa158015610214573d6000803e3d6000fd5b5050604051601f190151979650505050505050565b600080600083516041146102835760405162461bcd60e51b815260206004820152601860248201527f696e76616c6964207369676e6174757265206c656e6774680000000000000000604482015260640160405180910390fd5b50505060208101516040820151606090920151909260009190911a90565b6040517f19457468657265756d205369676e6564204d6573736167653a0a3332000000006020820152603c8101829052600090605c01604051602081830303815290604052805190602001209050919050565b80356001600160a01b038116811461030b57600080fd5b919050565b6000806040838503121561032357600080fd5b61032c836102f4565b946020939093013593505050565b634e487b7160e01b600052604160045260246000fd5b600082601f83011261036157600080fd5b813567ffffffffffffffff8082111561037c5761037c61033a565b604051601f8301601f19908116603f011681019082821181831017156103a4576103a461033a565b816040528381528660208588010111156103bd57600080fd5b836020870160208301376000602085830101528094505050505092915050565b600080600080608085870312156103f357600080fd5b6103fc856102f4565b935061040a602086016102f4565b925060408501359150606085013567ffffffffffffffff81111561042d57600080fd5b61043987828801610350565b91505092959194509250565b6000806040838503121561045857600080fd5b82359150602083013567ffffffffffffffff81111561047657600080fd5b61048285828601610350565b9150509250929050565b60006020828403121561049e57600080fd5b813567ffffffffffffffff8111156104b557600080fd5b6104c184828501610350565b949350505050565b6000602082840312156104db57600080fd5b503591905056fea2646970667358221220713c71eda9b7a5df18d7bd38f2f49865f67af7c0bf67fbc7ec34c0dd972019db64736f6c634300080f0033",
					"opcodes": "PUSH1 0x80 PUSH1 0x40 MSTORE CALLVALUE DUP1 ISZERO PUSH2 0x10 JUMPI PUSH1 0x0 DUP1 REVERT JUMPDEST POP PUSH2 0x518 DUP1 PUSH2 0x20 PUSH1 0x0 CODECOPY PUSH1 0x0 RETURN INVALID PUSH1 0x80 PUSH1 0x40 MSTORE CALLVALUE DUP1 ISZERO PUSH2 0x10 JUMPI PUSH1 0x0 DUP1 REVERT JUMPDEST POP PUSH1 0x4 CALLDATASIZE LT PUSH2 0x57 JUMPI PUSH1 0x0 CALLDATALOAD PUSH1 0xE0 SHR DUP1 PUSH4 0x512C91DF EQ PUSH2 0x5C JUMPI DUP1 PUSH4 0x93E9F8FC EQ PUSH2 0x82 JUMPI DUP1 PUSH4 0x97ABA7F9 EQ PUSH2 0xA5 JUMPI DUP1 PUSH4 0xA7BB5803 EQ PUSH2 0xD0 JUMPI DUP1 PUSH4 0xFA540801 EQ PUSH2 0x101 JUMPI JUMPDEST PUSH1 0x0 DUP1 REVERT JUMPDEST PUSH2 0x6F PUSH2 0x6A CALLDATASIZE PUSH1 0x4 PUSH2 0x310 JUMP JUMPDEST PUSH2 0x114 JUMP JUMPDEST PUSH1 0x40 MLOAD SWAP1 DUP2 MSTORE PUSH1 0x20 ADD JUMPDEST PUSH1 0x40 MLOAD DUP1 SWAP2 SUB SWAP1 RETURN JUMPDEST PUSH2 0x95 PUSH2 0x90 CALLDATASIZE PUSH1 0x4 PUSH2 0x3DD JUMP JUMPDEST PUSH2 0x165 JUMP JUMPDEST PUSH1 0x40 MLOAD SWAP1 ISZERO ISZERO DUP2 MSTORE PUSH1 0x20 ADD PUSH2 0x79 JUMP JUMPDEST PUSH2 0xB8 PUSH2 0xB3 CALLDATASIZE PUSH1 0x4 PUSH2 0x445 JUMP JUMPDEST PUSH2 0x1AA JUMP JUMPDEST PUSH1 0x40 MLOAD PUSH1 0x1 PUSH1 0x1 PUSH1 0xA0 SHL SUB SWAP1 SWAP2 AND DUP2 MSTORE PUSH1 0x20 ADD PUSH2 0x79 JUMP JUMPDEST PUSH2 0xE3 PUSH2 0xDE CALLDATASIZE PUSH1 0x4 PUSH2 0x48C JUMP JUMPDEST PUSH2 0x229 JUMP JUMPDEST PUSH1 0x40 DUP1 MLOAD SWAP4 DUP5 MSTORE PUSH1 0x20 DUP5 ADD SWAP3 SWAP1 SWAP3 MSTORE PUSH1 0xFF AND SWAP1 DUP3 ADD MSTORE PUSH1 0x60 ADD PUSH2 0x79 JUMP JUMPDEST PUSH2 0x6F PUSH2 0x10F CALLDATASIZE PUSH1 0x4 PUSH2 0x4C9 JUMP JUMPDEST PUSH2 0x2A1 JUMP JUMPDEST PUSH1 0x40 MLOAD PUSH12 0xFFFFFFFFFFFFFFFFFFFFFFFF NOT PUSH1 0x60 DUP5 DUP2 SHL DUP3 AND PUSH1 0x20 DUP5 ADD MSTORE PUSH1 0x34 DUP4 ADD DUP5 SWAP1 MSTORE ADDRESS SWAP1 SHL AND PUSH1 0x54 DUP3 ADD MSTORE PUSH1 0x0 SWAP1 PUSH1 0x68 ADD PUSH1 0x40 MLOAD PUSH1 0x20 DUP2 DUP4 SUB SUB DUP2 MSTORE SWAP1 PUSH1 0x40 MSTORE DUP1 MLOAD SWAP1 PUSH1 0x20 ADD KECCAK256 SWAP1 POP SWAP3 SWAP2 POP POP JUMP JUMPDEST PUSH1 0x0 DUP1 PUSH2 0x172 DUP6 DUP6 PUSH2 0x114 JUMP JUMPDEST SWAP1 POP PUSH1 0x0 PUSH2 0x17F DUP3 PUSH2 0x2A1 JUMP JUMPDEST SWAP1 POP DUP7 PUSH1 0x1 PUSH1 0x1 PUSH1 0xA0 SHL SUB AND PUSH2 0x195 DUP3 DUP7 PUSH2 0x1AA JUMP JUMPDEST PUSH1 0x1 PUSH1 0x1 PUSH1 0xA0 SHL SUB AND EQ SWAP8 SWAP7 POP POP POP POP POP POP POP JUMP JUMPDEST PUSH1 0x0 DUP1 PUSH1 0x0 DUP1 PUSH2 0x1B9 DUP6 PUSH2 0x229 JUMP JUMPDEST PUSH1 0x40 DUP1 MLOAD PUSH1 0x0 DUP2 MSTORE PUSH1 0x20 DUP2 ADD DUP1 DUP4 MSTORE DUP12 SWAP1 MSTORE PUSH1 0xFF DUP4 AND SWAP2 DUP2 ADD SWAP2 SWAP1 SWAP2 MSTORE PUSH1 0x60 DUP2 ADD DUP5 SWAP1 MSTORE PUSH1 0x80 DUP2 ADD DUP4 SWAP1 MSTORE SWAP3 SWAP6 POP SWAP1 SWAP4 POP SWAP2 POP PUSH1 0x1 SWAP1 PUSH1 0xA0 ADD PUSH1 0x20 PUSH1 0x40 MLOAD PUSH1 0x20 DUP2 SUB SWAP1 DUP1 DUP5 SUB SWAP1 DUP6 GAS STATICCALL ISZERO DUP1 ISZERO PUSH2 0x214 JUMPI RETURNDATASIZE PUSH1 0x0 DUP1 RETURNDATACOPY RETURNDATASIZE PUSH1 0x0 REVERT JUMPDEST POP POP PUSH1 0x40 MLOAD PUSH1 0x1F NOT ADD MLOAD SWAP8 SWAP7 POP POP POP POP POP POP POP JUMP JUMPDEST PUSH1 0x0 DUP1 PUSH1 0x0 DUP4 MLOAD PUSH1 0x41 EQ PUSH2 0x283 JUMPI PUSH1 0x40 MLOAD PUSH3 0x461BCD PUSH1 0xE5 SHL DUP2 MSTORE PUSH1 0x20 PUSH1 0x4 DUP3 ADD MSTORE PUSH1 0x18 PUSH1 0x24 DUP3 ADD MSTORE PUSH32 0x696E76616C6964207369676E6174757265206C656E6774680000000000000000 PUSH1 0x44 DUP3 ADD MSTORE PUSH1 0x64 ADD PUSH1 0x40 MLOAD DUP1 SWAP2 SUB SWAP1 REVERT JUMPDEST POP POP POP PUSH1 0x20 DUP2 ADD MLOAD PUSH1 0x40 DUP3 ADD MLOAD PUSH1 0x60 SWAP1 SWAP3 ADD MLOAD SWAP1 SWAP3 PUSH1 0x0 SWAP2 SWAP1 SWAP2 BYTE SWAP1 JUMP JUMPDEST PUSH1 0x40 MLOAD PUSH32 0x19457468657265756D205369676E6564204D6573736167653A0A333200000000 PUSH1 0x20 DUP3 ADD MSTORE PUSH1 0x3C DUP2 ADD DUP3 SWAP1 MSTORE PUSH1 0x0 SWAP1 PUSH1 0x5C ADD PUSH1 0x40 MLOAD PUSH1 0x20 DUP2 DUP4 SUB SUB DUP2 MSTORE SWAP1 PUSH1 0x40 MSTORE DUP1 MLOAD SWAP1 PUSH1 0x20 ADD KECCAK256 SWAP1 POP SWAP2 SWAP1 POP JUMP JUMPDEST DUP1 CALLDATALOAD PUSH1 0x1 PUSH1 0x1 PUSH1 0xA0 SHL SUB DUP2 AND DUP2 EQ PUSH2 0x30B JUMPI PUSH1 0x0 DUP1 REVERT JUMPDEST SWAP2 SWAP1 POP JUMP JUMPDEST PUSH1 0x0 DUP1 PUSH1 0x40 DUP4 DUP6 SUB SLT ISZERO PUSH2 0x323 JUMPI PUSH1 0x0 DUP1 REVERT JUMPDEST PUSH2 0x32C DUP4 PUSH2 0x2F4 JUMP JUMPDEST SWAP5 PUSH1 0x20 SWAP4 SWAP1 SWAP4 ADD CALLDATALOAD SWAP4 POP POP POP JUMP JUMPDEST PUSH4 0x4E487B71 PUSH1 0xE0 SHL PUSH1 0x0 MSTORE PUSH1 0x41 PUSH1 0x4 MSTORE PUSH1 0x24 PUSH1 0x0 REVERT JUMPDEST PUSH1 0x0 DUP3 PUSH1 0x1F DUP4 ADD SLT PUSH2 0x361 JUMPI PUSH1 0x0 DUP1 REVERT JUMPDEST DUP2 CALLDATALOAD PUSH8 0xFFFFFFFFFFFFFFFF DUP1 DUP3 GT ISZERO PUSH2 0x37C JUMPI PUSH2 0x37C PUSH2 0x33A JUMP JUMPDEST PUSH1 0x40 MLOAD PUSH1 0x1F DUP4 ADD PUSH1 0x1F NOT SWAP1 DUP2 AND PUSH1 0x3F ADD AND DUP2 ADD SWAP1 DUP3 DUP3 GT DUP2 DUP4 LT OR ISZERO PUSH2 0x3A4 JUMPI PUSH2 0x3A4 PUSH2 0x33A JUMP JUMPDEST DUP2 PUSH1 0x40 MSTORE DUP4 DUP2 MSTORE DUP7 PUSH1 0x20 DUP6 DUP9 ADD ADD GT ISZERO PUSH2 0x3BD JUMPI PUSH1 0x0 DUP1 REVERT JUMPDEST DUP4 PUSH1 0x20 DUP8 ADD PUSH1 0x20 DUP4 ADD CALLDATACOPY PUSH1 0x0 PUSH1 0x20 DUP6 DUP4 ADD ADD MSTORE DUP1 SWAP5 POP POP POP POP POP SWAP3 SWAP2 POP POP JUMP JUMPDEST PUSH1 0x0 DUP1 PUSH1 0x0 DUP1 PUSH1 0x80 DUP6 DUP8 SUB SLT ISZERO PUSH2 0x3F3 JUMPI PUSH1 0x0 DUP1 REVERT JUMPDEST PUSH2 0x3FC DUP6 PUSH2 0x2F4 JUMP JUMPDEST SWAP4 POP PUSH2 0x40A PUSH1 0x20 DUP7 ADD PUSH2 0x2F4 JUMP JUMPDEST SWAP3 POP PUSH1 0x40 DUP6 ADD CALLDATALOAD SWAP2 POP PUSH1 0x60 DUP6 ADD CALLDATALOAD PUSH8 0xFFFFFFFFFFFFFFFF DUP2 GT ISZERO PUSH2 0x42D JUMPI PUSH1 0x0 DUP1 REVERT JUMPDEST PUSH2 0x439 DUP8 DUP3 DUP9 ADD PUSH2 0x350 JUMP JUMPDEST SWAP2 POP POP SWAP3 SWAP6 SWAP2 SWAP5 POP SWAP3 POP JUMP JUMPDEST PUSH1 0x0 DUP1 PUSH1 0x40 DUP4 DUP6 SUB SLT ISZERO PUSH2 0x458 JUMPI PUSH1 0x0 DUP1 REVERT JUMPDEST DUP3 CALLDATALOAD SWAP2 POP PUSH1 0x20 DUP4 ADD CALLDATALOAD PUSH8 0xFFFFFFFFFFFFFFFF DUP2 GT ISZERO PUSH2 0x476 JUMPI PUSH1 0x0 DUP1 REVERT JUMPDEST PUSH2 0x482 DUP6 DUP3 DUP7 ADD PUSH2 0x350 JUMP JUMPDEST SWAP2 POP POP SWAP3 POP SWAP3 SWAP1 POP JUMP JUMPDEST PUSH1 0x0 PUSH1 0x20 DUP3 DUP5 SUB SLT ISZERO PUSH2 0x49E JUMPI PUSH1 0x0 DUP1 REVERT JUMPDEST DUP2 CALLDATALOAD PUSH8 0xFFFFFFFFFFFFFFFF DUP2 GT ISZERO PUSH2 0x4B5 JUMPI PUSH1 0x0 DUP1 REVERT JUMPDEST PUSH2 0x4C1 DUP5 DUP3 DUP6 ADD PUSH2 0x350 JUMP JUMPDEST SWAP5 SWAP4 POP POP POP POP JUMP JUMPDEST PUSH1 0x0 PUSH1 0x20 DUP3 DUP5 SUB SLT ISZERO PUSH2 0x4DB JUMPI PUSH1 0x0 DUP1 REVERT JUMPDEST POP CALLDATALOAD SWAP2 SWAP1 POP JUMP INVALID LOG2 PUSH5 0x6970667358 0x22 SLT KECCAK256 PUSH18 0x3C71EDA9B7A5DF18D7BD38F2F49865F67AF7 0xC0 0xBF PUSH8 0xFBC7EC34C0DD9720 NOT 0xDB PUSH5 0x736F6C6343 STOP ADDMOD 0xF STOP CALLER "
				},
				"gasEstimates": {
					"creation": {
						"codeDepositCost": "260800",
						"executionCost": "300",
						"totalCost": "261100"
					},
					"external": {
						"getEthSignedMessageHash(bytes32)": "499",
						"getMessageHash(address,uint256)": "568",
						"recoverSigner(bytes32,bytes)": "infinite",
						"splitSignature(bytes)": "infinite",
						"verify(address,address,uint256,bytes)": "infinite"
					}
				},
				"methodIdentifiers": {
					"getEthSignedMessageHash(bytes32)": "fa540801",
					"getMessageHash(address,uint256)": "512c91df",
					"recoverSigner(bytes32,bytes)": "97aba7f9",
					"splitSignature(bytes)": "a7bb5803",
					"verify(address,address,uint256,bytes)": "93e9f8fc"
				}
			},
			"storageLayout": {
				"storage": [],
				"types": null
			},
			"userdoc": {
				"kind": "user",
				"methods": {},
				"version": 1
			}
		}
	}
}