{
	"verifysignature.sol": {
		"VerifySignature": {
			"abi": [
				{
					"inputs": [
						{
							"internalType": "bytes32",
							"name": "_messageHash",
							"type": "bytes32"
						}
					],
					"name": "getEthSignedMessageHash",
					"outputs": [
						{
							"internalType": "bytes32",
							"name": "",
							"type": "bytes32"
						}
					],
					"stateMutability": "pure",
					"type": "function"
				},
				{
					"inputs": [
						{
							"internalType": "address",
							"name": "_user",
							"type": "address"
						},
						{
							"internalType": "uint256",
							"name": "_amount",
							"type": "uint256"
						},
						{
							"internalType": "string",
							"name": "_message",
							"type": "string"
						},
						{
							"internalType": "uint256",
							"name": "_nonce",
							"type": "uint256"
						}
					],
					"name": "getMessageHash",
					"outputs": [
						{
							"internalType": "bytes32",
							"name": "",
							"type": "bytes32"
						}
					],
					"stateMutability": "pure",
					"type": "function"
				},
				{
					"inputs": [
						{
							"internalType": "bytes32",
							"name": "_ethSignedMessageHash",
							"type": "bytes32"
						},
						{
							"internalType": "bytes",
							"name": "_signature",
							"type": "bytes"
						}
					],
					"name": "recoverSigner",
					"outputs": [
						{
							"internalType": "address",
							"name": "",
							"type": "address"
						}
					],
					"stateMutability": "pure",
					"type": "function"
				},
				{
					"inputs": [
						{
							"internalType": "bytes",
							"name": "sig",
							"type": "bytes"
						}
					],
					"name": "splitSignature",
					"outputs": [
						{
							"internalType": "bytes32",
							"name": "r",
							"type": "bytes32"
						},
						{
							"internalType": "bytes32",
							"name": "s",
							"type": "bytes32"
						},
						{
							"internalType": "uint8",
							"name": "v",
							"type": "uint8"
						}
					],
					"stateMutability": "pure",
					"type": "function"
				},
				{
					"inputs": [
						{
							"internalType": "address",
							"name": "_signer",
							"type": "address"
						},
						{
							"internalType": "address",
							"name": "_to",
							"type": "address"
						},
						{
							"internalType": "uint256",
							"name": "_amount",
							"type": "uint256"
						},
						{
							"internalType": "string",
							"name": "_message",
							"type": "string"
						},
						{
							"internalType": "uint256",
							"name": "_nonce",
							"type": "uint256"
						},
						{
							"internalType": "bytes",
							"name": "signature",
							"type": "bytes"
						}
					],
					"name": "verify",
					"outputs": [
						{
							"internalType": "bool",
							"name": "",
							"type": "bool"
						}
					],
					"stateMutability": "pure",
					"type": "function"
				}
			],
			"devdoc": {
				"kind": "dev",
				"methods": {},
				"version": 1
			},
			"evm": {
				"assembly": "    /* \"verifysignature.sol\":61:2506  contract VerifySignature {... */\n  mstore(0x40, 0x80)\n  callvalue\n  dup1\n  iszero\n  tag_1\n  jumpi\n  0x00\n  dup1\n  revert\ntag_1:\n  pop\n  dataSize(sub_0)\n  dup1\n  dataOffset(sub_0)\n  0x00\n  codecopy\n  0x00\n  return\nstop\n\nsub_0: assembly {\n        /* \"verifysignature.sol\":61:2506  contract VerifySignature {... */\n      mstore(0x40, 0x80)\n      callvalue\n      dup1\n      iszero\n      tag_1\n      jumpi\n      0x00\n      dup1\n      revert\n    tag_1:\n      pop\n      jumpi(tag_2, lt(calldatasize, 0x04))\n      shr(0xe0, calldataload(0x00))\n      dup1\n      0x97aba7f9\n      eq\n      tag_3\n      jumpi\n      dup1\n      0xa35f8a40\n      eq\n      tag_4\n      jumpi\n      dup1\n      0xa7bb5803\n      eq\n      tag_5\n      jumpi\n      dup1\n      0xabe5026a\n      eq\n      tag_6\n      jumpi\n      dup1\n      0xfa540801\n      eq\n      tag_7\n      jumpi\n    tag_2:\n      0x00\n      dup1\n      revert\n        /* \"verifysignature.sol\":1330:1604  function recoverSigner(... */\n    tag_3:\n      tag_8\n      tag_9\n      calldatasize\n      0x04\n      tag_10\n      jump\t// in\n    tag_9:\n      tag_11\n      jump\t// in\n    tag_8:\n      mload(0x40)\n      sub(shl(0xa0, 0x01), 0x01)\n        /* \"#utility.yul\":1426:1458   */\n      swap1\n      swap2\n      and\n        /* \"#utility.yul\":1408:1459   */\n      dup2\n      mstore\n        /* \"#utility.yul\":1396:1398   */\n      0x20\n        /* \"#utility.yul\":1381:1399   */\n      add\n        /* \"verifysignature.sol\":1330:1604  function recoverSigner(... */\n    tag_12:\n      mload(0x40)\n      dup1\n      swap2\n      sub\n      swap1\n      return\n        /* \"verifysignature.sol\":99:355  function getMessageHash(... */\n    tag_4:\n      tag_14\n      tag_15\n      calldatasize\n      0x04\n      tag_16\n      jump\t// in\n    tag_15:\n      tag_17\n      jump\t// in\n    tag_14:\n      mload(0x40)\n        /* \"#utility.yul\":2331:2356   */\n      swap1\n      dup2\n      mstore\n        /* \"#utility.yul\":2319:2321   */\n      0x20\n        /* \"#utility.yul\":2304:2322   */\n      add\n        /* \"verifysignature.sol\":99:355  function getMessageHash(... */\n      tag_12\n        /* \"#utility.yul\":2185:2362   */\n      jump\n        /* \"verifysignature.sol\":1612:2503  function splitSignature(bytes memory sig)... */\n    tag_5:\n      tag_20\n      tag_21\n      calldatasize\n      0x04\n      tag_22\n      jump\t// in\n    tag_21:\n      tag_23\n      jump\t// in\n    tag_20:\n      0x40\n      dup1\n      mload\n        /* \"#utility.yul\":2890:2915   */\n      swap4\n      dup5\n      mstore\n        /* \"#utility.yul\":2946:2948   */\n      0x20\n        /* \"#utility.yul\":2931:2949   */\n      dup5\n      add\n        /* \"#utility.yul\":2924:2958   */\n      swap3\n      swap1\n      swap3\n      mstore\n        /* \"#utility.yul\":3006:3010   */\n      0xff\n        /* \"#utility.yul\":2994:3011   */\n      and\n        /* \"#utility.yul\":2974:2992   */\n      swap1\n      dup3\n      add\n        /* \"#utility.yul\":2967:3012   */\n      mstore\n        /* \"#utility.yul\":2878:2880   */\n      0x60\n        /* \"#utility.yul\":2863:2881   */\n      add\n        /* \"verifysignature.sol\":1612:2503  function splitSignature(bytes memory sig)... */\n      tag_12\n        /* \"#utility.yul\":2692:3018   */\n      jump\n        /* \"verifysignature.sol\":865:1322  function verify(... */\n    tag_6:\n      tag_26\n      tag_27\n      calldatasize\n      0x04\n      tag_28\n      jump\t// in\n    tag_27:\n      tag_29\n      jump\t// in\n    tag_26:\n      mload(0x40)\n        /* \"#utility.yul\":4020:4034   */\n      swap1\n      iszero\n        /* \"#utility.yul\":4013:4035   */\n      iszero\n        /* \"#utility.yul\":3995:4036   */\n      dup2\n      mstore\n        /* \"#utility.yul\":3983:3985   */\n      0x20\n        /* \"#utility.yul\":3968:3986   */\n      add\n        /* \"verifysignature.sol\":865:1322  function verify(... */\n      tag_12\n        /* \"#utility.yul\":3855:4042   */\n      jump\n        /* \"verifysignature.sol\":363:857  function getEthSignedMessageHash(bytes32 _messageHash)... */\n    tag_7:\n      tag_14\n      tag_33\n      calldatasize\n      0x04\n      tag_34\n      jump\t// in\n    tag_33:\n      tag_35\n      jump\t// in\n        /* \"verifysignature.sol\":1330:1604  function recoverSigner(... */\n    tag_11:\n        /* \"verifysignature.sol\":1455:1462  address */\n      0x00\n        /* \"verifysignature.sol\":1476:1485  bytes32 r */\n      dup1\n        /* \"verifysignature.sol\":1487:1496  bytes32 s */\n      0x00\n        /* \"verifysignature.sol\":1498:1505  uint8 v */\n      dup1\n        /* \"verifysignature.sol\":1509:1535  splitSignature(_signature) */\n      tag_38\n        /* \"verifysignature.sol\":1524:1534  _signature */\n      dup6\n        /* \"verifysignature.sol\":1509:1523  splitSignature */\n      tag_23\n        /* \"verifysignature.sol\":1509:1535  splitSignature(_signature) */\n      jump\t// in\n    tag_38:\n        /* \"verifysignature.sol\":1555:1596  ecrecover(_ethSignedMessageHash, v, r, s) */\n      0x40\n      dup1\n      mload\n      0x00\n      dup2\n      mstore\n      0x20\n      dup2\n      add\n      dup1\n      dup4\n      mstore\n        /* \"#utility.yul\":4459:4484   */\n      dup12\n      swap1\n      mstore\n        /* \"#utility.yul\":4532:4536   */\n      0xff\n        /* \"#utility.yul\":4520:4537   */\n      dup4\n      and\n        /* \"#utility.yul\":4500:4518   */\n      swap2\n      dup2\n      add\n        /* \"#utility.yul\":4493:4538   */\n      swap2\n      swap1\n      swap2\n      mstore\n        /* \"#utility.yul\":4554:4572   */\n      0x60\n      dup2\n      add\n        /* \"#utility.yul\":4547:4581   */\n      dup5\n      swap1\n      mstore\n        /* \"#utility.yul\":4597:4615   */\n      0x80\n      dup2\n      add\n        /* \"#utility.yul\":4590:4624   */\n      dup4\n      swap1\n      mstore\n        /* \"verifysignature.sol\":1475:1535  (bytes32 r, bytes32 s, uint8 v) = splitSignature(_signature) */\n      swap3\n      swap6\n      pop\n      swap1\n      swap4\n      pop\n      swap2\n      pop\n        /* \"verifysignature.sol\":1555:1596  ecrecover(_ethSignedMessageHash, v, r, s) */\n      0x01\n      swap1\n        /* \"#utility.yul\":4431:4450   */\n      0xa0\n      add\n        /* \"verifysignature.sol\":1555:1596  ecrecover(_ethSignedMessageHash, v, r, s) */\n      0x20\n      mload(0x40)\n      0x20\n      dup2\n      sub\n      swap1\n      dup1\n      dup5\n      sub\n      swap1\n      dup6\n      gas\n      staticcall\n      iszero\n      dup1\n      iszero\n      tag_42\n      jumpi\n      returndatasize\n      0x00\n      dup1\n      returndatacopy\n      revert(0x00, returndatasize)\n    tag_42:\n      pop\n      pop\n      mload(add(not(0x1f), mload(0x40)))\n      swap8\n        /* \"verifysignature.sol\":1330:1604  function recoverSigner(... */\n      swap7\n      pop\n      pop\n      pop\n      pop\n      pop\n      pop\n      pop\n      jump\t// out\n        /* \"verifysignature.sol\":99:355  function getMessageHash(... */\n    tag_17:\n        /* \"verifysignature.sol\":259:266  bytes32 */\n      0x00\n        /* \"verifysignature.sol\":313:318  _user */\n      dup5\n        /* \"verifysignature.sol\":320:327  _amount */\n      dup5\n        /* \"verifysignature.sol\":329:337  _message */\n      dup5\n        /* \"verifysignature.sol\":339:345  _nonce */\n      dup5\n        /* \"verifysignature.sol\":296:346  abi.encodePacked(_user, _amount, _message, _nonce) */\n      add(0x20, mload(0x40))\n      tag_44\n      swap5\n      swap4\n      swap3\n      swap2\n      swap1\n      tag_45\n      jump\t// in\n    tag_44:\n      mload(0x40)\n      0x20\n      dup2\n      dup4\n      sub\n      sub\n      dup2\n      mstore\n      swap1\n      0x40\n      mstore\n        /* \"verifysignature.sol\":286:347  keccak256(abi.encodePacked(_user, _amount, _message, _nonce)) */\n      dup1\n      mload\n      swap1\n      0x20\n      add\n      keccak256\n        /* \"verifysignature.sol\":279:347  return keccak256(abi.encodePacked(_user, _amount, _message, _nonce)) */\n      swap1\n      pop\n        /* \"verifysignature.sol\":99:355  function getMessageHash(... */\n      swap5\n      swap4\n      pop\n      pop\n      pop\n      pop\n      jump\t// out\n        /* \"verifysignature.sol\":1612:2503  function splitSignature(bytes memory sig)... */\n    tag_23:\n        /* \"verifysignature.sol\":1716:1725  bytes32 r */\n      0x00\n        /* \"verifysignature.sol\":1740:1749  bytes32 s */\n      dup1\n        /* \"verifysignature.sol\":1764:1771  uint8 v */\n      0x00\n        /* \"verifysignature.sol\":1807:1810  sig */\n      dup4\n        /* \"verifysignature.sol\":1807:1817  sig.length */\n      mload\n        /* \"verifysignature.sol\":1821:1823  65 */\n      0x41\n        /* \"verifysignature.sol\":1807:1823  sig.length == 65 */\n      eq\n        /* \"verifysignature.sol\":1799:1852  require(sig.length == 65, \"invalid signature length\") */\n      tag_47\n      jumpi\n      mload(0x40)\n      shl(0xe5, 0x461bcd)\n      dup2\n      mstore\n        /* \"#utility.yul\":5578:5580   */\n      0x20\n        /* \"verifysignature.sol\":1799:1852  require(sig.length == 65, \"invalid signature length\") */\n      0x04\n      dup3\n      add\n        /* \"#utility.yul\":5560:5581   */\n      mstore\n        /* \"#utility.yul\":5617:5619   */\n      0x18\n        /* \"#utility.yul\":5597:5615   */\n      0x24\n      dup3\n      add\n        /* \"#utility.yul\":5590:5620   */\n      mstore\n        /* \"#utility.yul\":5656:5682   */\n      0x696e76616c6964207369676e6174757265206c656e6774680000000000000000\n        /* \"#utility.yul\":5636:5654   */\n      0x44\n      dup3\n      add\n        /* \"#utility.yul\":5629:5683   */\n      mstore\n        /* \"#utility.yul\":5700:5718   */\n      0x64\n      add\n        /* \"verifysignature.sol\":1799:1852  require(sig.length == 65, \"invalid signature length\") */\n      mload(0x40)\n      dup1\n      swap2\n      sub\n      swap1\n      revert\n    tag_47:\n      pop\n      pop\n      pop\n        /* \"verifysignature.sol\":2261:2263  32 */\n      0x20\n        /* \"verifysignature.sol\":2252:2264  add(sig, 32) */\n      dup2\n      add\n        /* \"verifysignature.sol\":2246:2265  mload(add(sig, 32)) */\n      mload\n        /* \"verifysignature.sol\":2331:2333  64 */\n      0x40\n        /* \"verifysignature.sol\":2322:2334  add(sig, 64) */\n      dup3\n      add\n        /* \"verifysignature.sol\":2316:2335  mload(add(sig, 64)) */\n      mload\n        /* \"verifysignature.sol\":2438:2440  96 */\n      0x60\n        /* \"verifysignature.sol\":2429:2441  add(sig, 96) */\n      swap1\n      swap3\n      add\n        /* \"verifysignature.sol\":2423:2442  mload(add(sig, 96)) */\n      mload\n        /* \"verifysignature.sol\":2246:2265  mload(add(sig, 32)) */\n      swap1\n      swap3\n        /* \"verifysignature.sol\":2420:2421  0 */\n      0x00\n        /* \"verifysignature.sol\":2415:2443  byte(0, mload(add(sig, 96))) */\n      swap2\n      swap1\n      swap2\n      byte\n      swap1\n        /* \"verifysignature.sol\":1612:2503  function splitSignature(bytes memory sig)... */\n      jump\t// out\n        /* \"verifysignature.sol\":865:1322  function verify(... */\n    tag_29:\n        /* \"verifysignature.sol\":1074:1078  bool */\n      0x00\n        /* \"verifysignature.sol\":1091:1110  bytes32 messageHash */\n      dup1\n        /* \"verifysignature.sol\":1113:1159  getMessageHash(_to, _amount, _message, _nonce) */\n      tag_51\n        /* \"verifysignature.sol\":1128:1131  _to */\n      dup8\n        /* \"verifysignature.sol\":1133:1140  _amount */\n      dup8\n        /* \"verifysignature.sol\":1142:1150  _message */\n      dup8\n        /* \"verifysignature.sol\":1152:1158  _nonce */\n      dup8\n        /* \"verifysignature.sol\":1113:1127  getMessageHash */\n      tag_17\n        /* \"verifysignature.sol\":1113:1159  getMessageHash(_to, _amount, _message, _nonce) */\n      jump\t// in\n    tag_51:\n        /* \"verifysignature.sol\":1091:1159  bytes32 messageHash = getMessageHash(_to, _amount, _message, _nonce) */\n      swap1\n      pop\n        /* \"verifysignature.sol\":1170:1198  bytes32 ethSignedMessageHash */\n      0x00\n        /* \"verifysignature.sol\":1201:1237  getEthSignedMessageHash(messageHash) */\n      tag_52\n        /* \"verifysignature.sol\":1225:1236  messageHash */\n      dup3\n        /* \"verifysignature.sol\":1201:1224  getEthSignedMessageHash */\n      tag_35\n        /* \"verifysignature.sol\":1201:1237  getEthSignedMessageHash(messageHash) */\n      jump\t// in\n    tag_52:\n        /* \"verifysignature.sol\":1170:1237  bytes32 ethSignedMessageHash = getEthSignedMessageHash(messageHash) */\n      swap1\n      pop\n        /* \"verifysignature.sol\":1307:1314  _signer */\n      dup9\n      sub(shl(0xa0, 0x01), 0x01)\n        /* \"verifysignature.sol\":1257:1314  recoverSigner(ethSignedMessageHash, signature) == _signer */\n      and\n        /* \"verifysignature.sol\":1257:1303  recoverSigner(ethSignedMessageHash, signature) */\n      tag_53\n        /* \"verifysignature.sol\":1271:1291  ethSignedMessageHash */\n      dup3\n        /* \"verifysignature.sol\":1293:1302  signature */\n      dup7\n        /* \"verifysignature.sol\":1257:1270  recoverSigner */\n      tag_11\n        /* \"verifysignature.sol\":1257:1303  recoverSigner(ethSignedMessageHash, signature) */\n      jump\t// in\n    tag_53:\n      sub(shl(0xa0, 0x01), 0x01)\n        /* \"verifysignature.sol\":1257:1314  recoverSigner(ethSignedMessageHash, signature) == _signer */\n      and\n      eq\n      swap10\n        /* \"verifysignature.sol\":865:1322  function verify(... */\n      swap9\n      pop\n      pop\n      pop\n      pop\n      pop\n      pop\n      pop\n      pop\n      pop\n      jump\t// out\n        /* \"verifysignature.sol\":363:857  function getEthSignedMessageHash(bytes32 _messageHash)... */\n    tag_35:\n        /* \"verifysignature.sol\":707:834  abi.encodePacked(... */\n      mload(0x40)\n        /* \"#utility.yul\":5971:6037   */\n      0x19457468657265756d205369676e6564204d6573736167653a0a333200000000\n        /* \"verifysignature.sol\":707:834  abi.encodePacked(... */\n      0x20\n      dup3\n      add\n        /* \"#utility.yul\":5959:6038   */\n      mstore\n        /* \"#utility.yul\":6054:6066   */\n      0x3c\n      dup2\n      add\n        /* \"#utility.yul\":6047:6075   */\n      dup3\n      swap1\n      mstore\n        /* \"verifysignature.sol\":466:473  bytes32 */\n      0x00\n      swap1\n        /* \"#utility.yul\":6091:6103   */\n      0x5c\n      add\n        /* \"verifysignature.sol\":707:834  abi.encodePacked(... */\n      mload(0x40)\n      0x20\n      dup2\n      dup4\n      sub\n      sub\n      dup2\n      mstore\n      swap1\n      0x40\n      mstore\n        /* \"verifysignature.sol\":679:849  keccak256(... */\n      dup1\n      mload\n      swap1\n      0x20\n      add\n      keccak256\n        /* \"verifysignature.sol\":659:849  return... */\n      swap1\n      pop\n        /* \"verifysignature.sol\":363:857  function getEthSignedMessageHash(bytes32 _messageHash)... */\n      swap2\n      swap1\n      pop\n      jump\t// out\n        /* \"#utility.yul\":14:141   */\n    tag_57:\n        /* \"#utility.yul\":75:85   */\n      0x4e487b71\n        /* \"#utility.yul\":70:73   */\n      0xe0\n        /* \"#utility.yul\":66:86   */\n      shl\n        /* \"#utility.yul\":63:64   */\n      0x00\n        /* \"#utility.yul\":56:87   */\n      mstore\n        /* \"#utility.yul\":106:110   */\n      0x41\n        /* \"#utility.yul\":103:104   */\n      0x04\n        /* \"#utility.yul\":96:111   */\n      mstore\n        /* \"#utility.yul\":130:134   */\n      0x24\n        /* \"#utility.yul\":127:128   */\n      0x00\n        /* \"#utility.yul\":120:135   */\n      revert\n        /* \"#utility.yul\":146:864   */\n    tag_58:\n        /* \"#utility.yul\":188:193   */\n      0x00\n        /* \"#utility.yul\":241:244   */\n      dup3\n        /* \"#utility.yul\":234:238   */\n      0x1f\n        /* \"#utility.yul\":226:232   */\n      dup4\n        /* \"#utility.yul\":222:239   */\n      add\n        /* \"#utility.yul\":218:245   */\n      slt\n        /* \"#utility.yul\":208:263   */\n      tag_63\n      jumpi\n        /* \"#utility.yul\":259:260   */\n      0x00\n        /* \"#utility.yul\":256:257   */\n      dup1\n        /* \"#utility.yul\":249:261   */\n      revert\n        /* \"#utility.yul\":208:263   */\n    tag_63:\n        /* \"#utility.yul\":295:301   */\n      dup2\n        /* \"#utility.yul\":282:302   */\n      calldataload\n        /* \"#utility.yul\":321:339   */\n      0xffffffffffffffff\n        /* \"#utility.yul\":358:360   */\n      dup1\n        /* \"#utility.yul\":354:356   */\n      dup3\n        /* \"#utility.yul\":351:361   */\n      gt\n        /* \"#utility.yul\":348:384   */\n      iszero\n      tag_65\n      jumpi\n        /* \"#utility.yul\":364:382   */\n      tag_65\n      tag_57\n      jump\t// in\n    tag_65:\n        /* \"#utility.yul\":439:441   */\n      0x40\n        /* \"#utility.yul\":433:442   */\n      mload\n        /* \"#utility.yul\":407:409   */\n      0x1f\n        /* \"#utility.yul\":493:506   */\n      dup4\n      add\n      not(0x1f)\n        /* \"#utility.yul\":489:511   */\n      swap1\n      dup2\n      and\n        /* \"#utility.yul\":513:515   */\n      0x3f\n        /* \"#utility.yul\":485:516   */\n      add\n        /* \"#utility.yul\":481:521   */\n      and\n        /* \"#utility.yul\":469:522   */\n      dup2\n      add\n      swap1\n        /* \"#utility.yul\":537:555   */\n      dup3\n      dup3\n      gt\n        /* \"#utility.yul\":557:579   */\n      dup2\n      dup4\n      lt\n        /* \"#utility.yul\":534:580   */\n      or\n        /* \"#utility.yul\":531:603   */\n      iszero\n      tag_67\n      jumpi\n        /* \"#utility.yul\":583:601   */\n      tag_67\n      tag_57\n      jump\t// in\n    tag_67:\n        /* \"#utility.yul\":623:633   */\n      dup2\n        /* \"#utility.yul\":619:621   */\n      0x40\n        /* \"#utility.yul\":612:634   */\n      mstore\n        /* \"#utility.yul\":658:660   */\n      dup4\n        /* \"#utility.yul\":650:656   */\n      dup2\n        /* \"#utility.yul\":643:661   */\n      mstore\n        /* \"#utility.yul\":704:707   */\n      dup7\n        /* \"#utility.yul\":697:701   */\n      0x20\n        /* \"#utility.yul\":692:694   */\n      dup6\n        /* \"#utility.yul\":684:690   */\n      dup9\n        /* \"#utility.yul\":680:695   */\n      add\n        /* \"#utility.yul\":676:702   */\n      add\n        /* \"#utility.yul\":673:708   */\n      gt\n        /* \"#utility.yul\":670:725   */\n      iszero\n      tag_68\n      jumpi\n        /* \"#utility.yul\":721:722   */\n      0x00\n        /* \"#utility.yul\":718:719   */\n      dup1\n        /* \"#utility.yul\":711:723   */\n      revert\n        /* \"#utility.yul\":670:725   */\n    tag_68:\n        /* \"#utility.yul\":785:787   */\n      dup4\n        /* \"#utility.yul\":778:782   */\n      0x20\n        /* \"#utility.yul\":770:776   */\n      dup8\n        /* \"#utility.yul\":766:783   */\n      add\n        /* \"#utility.yul\":759:763   */\n      0x20\n        /* \"#utility.yul\":751:757   */\n      dup4\n        /* \"#utility.yul\":747:764   */\n      add\n        /* \"#utility.yul\":734:788   */\n      calldatacopy\n        /* \"#utility.yul\":832:833   */\n      0x00\n        /* \"#utility.yul\":825:829   */\n      0x20\n        /* \"#utility.yul\":820:822   */\n      dup6\n        /* \"#utility.yul\":812:818   */\n      dup4\n        /* \"#utility.yul\":808:823   */\n      add\n        /* \"#utility.yul\":804:830   */\n      add\n        /* \"#utility.yul\":797:834   */\n      mstore\n        /* \"#utility.yul\":852:858   */\n      dup1\n        /* \"#utility.yul\":843:858   */\n      swap5\n      pop\n      pop\n      pop\n      pop\n      pop\n        /* \"#utility.yul\":146:864   */\n      swap3\n      swap2\n      pop\n      pop\n      jump\t// out\n        /* \"#utility.yul\":869:1257   */\n    tag_10:\n        /* \"#utility.yul\":946:952   */\n      0x00\n        /* \"#utility.yul\":954:960   */\n      dup1\n        /* \"#utility.yul\":1007:1009   */\n      0x40\n        /* \"#utility.yul\":995:1004   */\n      dup4\n        /* \"#utility.yul\":986:993   */\n      dup6\n        /* \"#utility.yul\":982:1005   */\n      sub\n        /* \"#utility.yul\":978:1010   */\n      slt\n        /* \"#utility.yul\":975:1027   */\n      iszero\n      tag_70\n      jumpi\n        /* \"#utility.yul\":1023:1024   */\n      0x00\n        /* \"#utility.yul\":1020:1021   */\n      dup1\n        /* \"#utility.yul\":1013:1025   */\n      revert\n        /* \"#utility.yul\":975:1027   */\n    tag_70:\n        /* \"#utility.yul\":1059:1068   */\n      dup3\n        /* \"#utility.yul\":1046:1069   */\n      calldataload\n        /* \"#utility.yul\":1036:1069   */\n      swap2\n      pop\n        /* \"#utility.yul\":1120:1122   */\n      0x20\n        /* \"#utility.yul\":1109:1118   */\n      dup4\n        /* \"#utility.yul\":1105:1123   */\n      add\n        /* \"#utility.yul\":1092:1124   */\n      calldataload\n        /* \"#utility.yul\":1147:1165   */\n      0xffffffffffffffff\n        /* \"#utility.yul\":1139:1145   */\n      dup2\n        /* \"#utility.yul\":1136:1166   */\n      gt\n        /* \"#utility.yul\":1133:1183   */\n      iszero\n      tag_71\n      jumpi\n        /* \"#utility.yul\":1179:1180   */\n      0x00\n        /* \"#utility.yul\":1176:1177   */\n      dup1\n        /* \"#utility.yul\":1169:1181   */\n      revert\n        /* \"#utility.yul\":1133:1183   */\n    tag_71:\n        /* \"#utility.yul\":1202:1251   */\n      tag_72\n        /* \"#utility.yul\":1243:1250   */\n      dup6\n        /* \"#utility.yul\":1234:1240   */\n      dup3\n        /* \"#utility.yul\":1223:1232   */\n      dup7\n        /* \"#utility.yul\":1219:1241   */\n      add\n        /* \"#utility.yul\":1202:1251   */\n      tag_58\n      jump\t// in\n    tag_72:\n        /* \"#utility.yul\":1192:1251   */\n      swap2\n      pop\n      pop\n        /* \"#utility.yul\":869:1257   */\n      swap3\n      pop\n      swap3\n      swap1\n      pop\n      jump\t// out\n        /* \"#utility.yul\":1470:1643   */\n    tag_59:\n        /* \"#utility.yul\":1538:1558   */\n      dup1\n      calldataload\n      sub(shl(0xa0, 0x01), 0x01)\n        /* \"#utility.yul\":1587:1618   */\n      dup2\n      and\n        /* \"#utility.yul\":1577:1619   */\n      dup2\n      eq\n        /* \"#utility.yul\":1567:1637   */\n      tag_75\n      jumpi\n        /* \"#utility.yul\":1633:1634   */\n      0x00\n        /* \"#utility.yul\":1630:1631   */\n      dup1\n        /* \"#utility.yul\":1623:1635   */\n      revert\n        /* \"#utility.yul\":1567:1637   */\n    tag_75:\n        /* \"#utility.yul\":1470:1643   */\n      swap2\n      swap1\n      pop\n      jump\t// out\n        /* \"#utility.yul\":1648:2180   */\n    tag_16:\n        /* \"#utility.yul\":1744:1750   */\n      0x00\n        /* \"#utility.yul\":1752:1758   */\n      dup1\n        /* \"#utility.yul\":1760:1766   */\n      0x00\n        /* \"#utility.yul\":1768:1774   */\n      dup1\n        /* \"#utility.yul\":1821:1824   */\n      0x80\n        /* \"#utility.yul\":1809:1818   */\n      dup6\n        /* \"#utility.yul\":1800:1807   */\n      dup8\n        /* \"#utility.yul\":1796:1819   */\n      sub\n        /* \"#utility.yul\":1792:1825   */\n      slt\n        /* \"#utility.yul\":1789:1842   */\n      iszero\n      tag_77\n      jumpi\n        /* \"#utility.yul\":1838:1839   */\n      0x00\n        /* \"#utility.yul\":1835:1836   */\n      dup1\n        /* \"#utility.yul\":1828:1840   */\n      revert\n        /* \"#utility.yul\":1789:1842   */\n    tag_77:\n        /* \"#utility.yul\":1861:1890   */\n      tag_78\n        /* \"#utility.yul\":1880:1889   */\n      dup6\n        /* \"#utility.yul\":1861:1890   */\n      tag_59\n      jump\t// in\n    tag_78:\n        /* \"#utility.yul\":1851:1890   */\n      swap4\n      pop\n        /* \"#utility.yul\":1937:1939   */\n      0x20\n        /* \"#utility.yul\":1926:1935   */\n      dup6\n        /* \"#utility.yul\":1922:1940   */\n      add\n        /* \"#utility.yul\":1909:1941   */\n      calldataload\n        /* \"#utility.yul\":1899:1941   */\n      swap3\n      pop\n        /* \"#utility.yul\":1992:1994   */\n      0x40\n        /* \"#utility.yul\":1981:1990   */\n      dup6\n        /* \"#utility.yul\":1977:1995   */\n      add\n        /* \"#utility.yul\":1964:1996   */\n      calldataload\n        /* \"#utility.yul\":2019:2037   */\n      0xffffffffffffffff\n        /* \"#utility.yul\":2011:2017   */\n      dup2\n        /* \"#utility.yul\":2008:2038   */\n      gt\n        /* \"#utility.yul\":2005:2055   */\n      iszero\n      tag_79\n      jumpi\n        /* \"#utility.yul\":2051:2052   */\n      0x00\n        /* \"#utility.yul\":2048:2049   */\n      dup1\n        /* \"#utility.yul\":2041:2053   */\n      revert\n        /* \"#utility.yul\":2005:2055   */\n    tag_79:\n        /* \"#utility.yul\":2074:2123   */\n      tag_80\n        /* \"#utility.yul\":2115:2122   */\n      dup8\n        /* \"#utility.yul\":2106:2112   */\n      dup3\n        /* \"#utility.yul\":2095:2104   */\n      dup9\n        /* \"#utility.yul\":2091:2113   */\n      add\n        /* \"#utility.yul\":2074:2123   */\n      tag_58\n      jump\t// in\n    tag_80:\n        /* \"#utility.yul\":1648:2180   */\n      swap5\n      swap8\n      swap4\n      swap7\n      pop\n        /* \"#utility.yul\":2064:2123   */\n      swap4\n      swap5\n        /* \"#utility.yul\":2170:2172   */\n      0x60\n        /* \"#utility.yul\":2155:2173   */\n      add\n        /* \"#utility.yul\":2142:2174   */\n      calldataload\n      swap4\n      pop\n      pop\n      pop\n        /* \"#utility.yul\":1648:2180   */\n      jump\t// out\n        /* \"#utility.yul\":2367:2687   */\n    tag_22:\n        /* \"#utility.yul\":2435:2441   */\n      0x00\n        /* \"#utility.yul\":2488:2490   */\n      0x20\n        /* \"#utility.yul\":2476:2485   */\n      dup3\n        /* \"#utility.yul\":2467:2474   */\n      dup5\n        /* \"#utility.yul\":2463:2486   */\n      sub\n        /* \"#utility.yul\":2459:2491   */\n      slt\n        /* \"#utility.yul\":2456:2508   */\n      iszero\n      tag_83\n      jumpi\n        /* \"#utility.yul\":2504:2505   */\n      0x00\n        /* \"#utility.yul\":2501:2502   */\n      dup1\n        /* \"#utility.yul\":2494:2506   */\n      revert\n        /* \"#utility.yul\":2456:2508   */\n    tag_83:\n        /* \"#utility.yul\":2544:2553   */\n      dup2\n        /* \"#utility.yul\":2531:2554   */\n      calldataload\n        /* \"#utility.yul\":2577:2595   */\n      0xffffffffffffffff\n        /* \"#utility.yul\":2569:2575   */\n      dup2\n        /* \"#utility.yul\":2566:2596   */\n      gt\n        /* \"#utility.yul\":2563:2613   */\n      iszero\n      tag_84\n      jumpi\n        /* \"#utility.yul\":2609:2610   */\n      0x00\n        /* \"#utility.yul\":2606:2607   */\n      dup1\n        /* \"#utility.yul\":2599:2611   */\n      revert\n        /* \"#utility.yul\":2563:2613   */\n    tag_84:\n        /* \"#utility.yul\":2632:2681   */\n      tag_85\n        /* \"#utility.yul\":2673:2680   */\n      dup5\n        /* \"#utility.yul\":2664:2670   */\n      dup3\n        /* \"#utility.yul\":2653:2662   */\n      dup6\n        /* \"#utility.yul\":2649:2671   */\n      add\n        /* \"#utility.yul\":2632:2681   */\n      tag_58\n      jump\t// in\n    tag_85:\n        /* \"#utility.yul\":2622:2681   */\n      swap5\n        /* \"#utility.yul\":2367:2687   */\n      swap4\n      pop\n      pop\n      pop\n      pop\n      jump\t// out\n        /* \"#utility.yul\":3023:3850   */\n    tag_28:\n        /* \"#utility.yul\":3146:3152   */\n      0x00\n        /* \"#utility.yul\":3154:3160   */\n      dup1\n        /* \"#utility.yul\":3162:3168   */\n      0x00\n        /* \"#utility.yul\":3170:3176   */\n      dup1\n        /* \"#utility.yul\":3178:3184   */\n      0x00\n        /* \"#utility.yul\":3186:3192   */\n      dup1\n        /* \"#utility.yul\":3239:3242   */\n      0xc0\n        /* \"#utility.yul\":3227:3236   */\n      dup8\n        /* \"#utility.yul\":3218:3225   */\n      dup10\n        /* \"#utility.yul\":3214:3237   */\n      sub\n        /* \"#utility.yul\":3210:3243   */\n      slt\n        /* \"#utility.yul\":3207:3260   */\n      iszero\n      tag_88\n      jumpi\n        /* \"#utility.yul\":3256:3257   */\n      0x00\n        /* \"#utility.yul\":3253:3254   */\n      dup1\n        /* \"#utility.yul\":3246:3258   */\n      revert\n        /* \"#utility.yul\":3207:3260   */\n    tag_88:\n        /* \"#utility.yul\":3279:3308   */\n      tag_89\n        /* \"#utility.yul\":3298:3307   */\n      dup8\n        /* \"#utility.yul\":3279:3308   */\n      tag_59\n      jump\t// in\n    tag_89:\n        /* \"#utility.yul\":3269:3308   */\n      swap6\n      pop\n        /* \"#utility.yul\":3327:3365   */\n      tag_90\n        /* \"#utility.yul\":3361:3363   */\n      0x20\n        /* \"#utility.yul\":3350:3359   */\n      dup9\n        /* \"#utility.yul\":3346:3364   */\n      add\n        /* \"#utility.yul\":3327:3365   */\n      tag_59\n      jump\t// in\n    tag_90:\n        /* \"#utility.yul\":3317:3365   */\n      swap5\n      pop\n        /* \"#utility.yul\":3412:3414   */\n      0x40\n        /* \"#utility.yul\":3401:3410   */\n      dup8\n        /* \"#utility.yul\":3397:3415   */\n      add\n        /* \"#utility.yul\":3384:3416   */\n      calldataload\n        /* \"#utility.yul\":3374:3416   */\n      swap4\n      pop\n        /* \"#utility.yul\":3467:3469   */\n      0x60\n        /* \"#utility.yul\":3456:3465   */\n      dup8\n        /* \"#utility.yul\":3452:3470   */\n      add\n        /* \"#utility.yul\":3439:3471   */\n      calldataload\n        /* \"#utility.yul\":3490:3508   */\n      0xffffffffffffffff\n        /* \"#utility.yul\":3531:3533   */\n      dup1\n        /* \"#utility.yul\":3523:3529   */\n      dup3\n        /* \"#utility.yul\":3520:3534   */\n      gt\n        /* \"#utility.yul\":3517:3551   */\n      iszero\n      tag_91\n      jumpi\n        /* \"#utility.yul\":3547:3548   */\n      0x00\n        /* \"#utility.yul\":3544:3545   */\n      dup1\n        /* \"#utility.yul\":3537:3549   */\n      revert\n        /* \"#utility.yul\":3517:3551   */\n    tag_91:\n        /* \"#utility.yul\":3570:3619   */\n      tag_92\n        /* \"#utility.yul\":3611:3618   */\n      dup11\n        /* \"#utility.yul\":3602:3608   */\n      dup4\n        /* \"#utility.yul\":3591:3600   */\n      dup12\n        /* \"#utility.yul\":3587:3609   */\n      add\n        /* \"#utility.yul\":3570:3619   */\n      tag_58\n      jump\t// in\n    tag_92:\n        /* \"#utility.yul\":3560:3619   */\n      swap5\n      pop\n        /* \"#utility.yul\":3666:3669   */\n      0x80\n        /* \"#utility.yul\":3655:3664   */\n      dup10\n        /* \"#utility.yul\":3651:3670   */\n      add\n        /* \"#utility.yul\":3638:3671   */\n      calldataload\n        /* \"#utility.yul\":3628:3671   */\n      swap4\n      pop\n        /* \"#utility.yul\":3724:3727   */\n      0xa0\n        /* \"#utility.yul\":3713:3722   */\n      dup10\n        /* \"#utility.yul\":3709:3728   */\n      add\n        /* \"#utility.yul\":3696:3729   */\n      calldataload\n        /* \"#utility.yul\":3680:3729   */\n      swap2\n      pop\n        /* \"#utility.yul\":3754:3756   */\n      dup1\n        /* \"#utility.yul\":3744:3752   */\n      dup3\n        /* \"#utility.yul\":3741:3757   */\n      gt\n        /* \"#utility.yul\":3738:3774   */\n      iszero\n      tag_93\n      jumpi\n        /* \"#utility.yul\":3770:3771   */\n      0x00\n        /* \"#utility.yul\":3767:3768   */\n      dup1\n        /* \"#utility.yul\":3760:3772   */\n      revert\n        /* \"#utility.yul\":3738:3774   */\n    tag_93:\n      pop\n        /* \"#utility.yul\":3793:3844   */\n      tag_94\n        /* \"#utility.yul\":3836:3843   */\n      dup10\n        /* \"#utility.yul\":3825:3833   */\n      dup3\n        /* \"#utility.yul\":3814:3823   */\n      dup11\n        /* \"#utility.yul\":3810:3834   */\n      add\n        /* \"#utility.yul\":3793:3844   */\n      tag_58\n      jump\t// in\n    tag_94:\n        /* \"#utility.yul\":3783:3844   */\n      swap2\n      pop\n      pop\n        /* \"#utility.yul\":3023:3850   */\n      swap3\n      swap6\n      pop\n      swap3\n      swap6\n      pop\n      swap3\n      swap6\n      jump\t// out\n        /* \"#utility.yul\":4047:4227   */\n    tag_34:\n        /* \"#utility.yul\":4106:4112   */\n      0x00\n        /* \"#utility.yul\":4159:4161   */\n      0x20\n        /* \"#utility.yul\":4147:4156   */\n      dup3\n        /* \"#utility.yul\":4138:4145   */\n      dup5\n        /* \"#utility.yul\":4134:4157   */\n      sub\n        /* \"#utility.yul\":4130:4162   */\n      slt\n        /* \"#utility.yul\":4127:4179   */\n      iszero\n      tag_97\n      jumpi\n        /* \"#utility.yul\":4175:4176   */\n      0x00\n        /* \"#utility.yul\":4172:4173   */\n      dup1\n        /* \"#utility.yul\":4165:4177   */\n      revert\n        /* \"#utility.yul\":4127:4179   */\n    tag_97:\n      pop\n        /* \"#utility.yul\":4198:4221   */\n      calldataload\n      swap2\n        /* \"#utility.yul\":4047:4227   */\n      swap1\n      pop\n      jump\t// out\n        /* \"#utility.yul\":4635:5371   */\n    tag_45:\n        /* \"#utility.yul\":4905:4931   */\n      0xffffffffffffffffffffffff\n        /* \"#utility.yul\":4901:4932   */\n      not\n        /* \"#utility.yul\":4892:4898   */\n      dup6\n        /* \"#utility.yul\":4888:4890   */\n      0x60\n        /* \"#utility.yul\":4884:4899   */\n      shl\n        /* \"#utility.yul\":4880:4933   */\n      and\n        /* \"#utility.yul\":4875:4878   */\n      dup2\n        /* \"#utility.yul\":4868:4934   */\n      mstore\n        /* \"#utility.yul\":4964:4970   */\n      dup4\n        /* \"#utility.yul\":4959:4961   */\n      0x14\n        /* \"#utility.yul\":4954:4957   */\n      dup3\n        /* \"#utility.yul\":4950:4962   */\n      add\n        /* \"#utility.yul\":4943:4971   */\n      mstore\n        /* \"#utility.yul\":4850:4853   */\n      0x00\n        /* \"#utility.yul\":5000:5006   */\n      dup4\n        /* \"#utility.yul\":4994:5007   */\n      mload\n        /* \"#utility.yul\":5025:5026   */\n      0x00\n        /* \"#utility.yul\":5035:5173   */\n    tag_100:\n        /* \"#utility.yul\":5049:5055   */\n      dup2\n        /* \"#utility.yul\":5046:5047   */\n      dup2\n        /* \"#utility.yul\":5043:5056   */\n      lt\n        /* \"#utility.yul\":5035:5173   */\n      iszero\n      tag_102\n      jumpi\n        /* \"#utility.yul\":5156:5160   */\n      0x20\n        /* \"#utility.yul\":5140:5154   */\n      dup2\n      dup8\n      add\n        /* \"#utility.yul\":5136:5161   */\n      dup2\n      add\n        /* \"#utility.yul\":5130:5162   */\n      mload\n        /* \"#utility.yul\":5125:5127   */\n      0x34\n        /* \"#utility.yul\":5112:5123   */\n      dup7\n      dup5\n      add\n        /* \"#utility.yul\":5108:5128   */\n      add\n        /* \"#utility.yul\":5101:5163   */\n      mstore\n        /* \"#utility.yul\":5064:5076   */\n      add\n        /* \"#utility.yul\":5035:5173   */\n      jump(tag_100)\n    tag_102:\n        /* \"#utility.yul\":5191:5197   */\n      dup2\n        /* \"#utility.yul\":5188:5189   */\n      dup2\n        /* \"#utility.yul\":5185:5198   */\n      gt\n        /* \"#utility.yul\":5182:5267   */\n      iszero\n      tag_103\n      jumpi\n        /* \"#utility.yul\":5255:5256   */\n      0x00\n        /* \"#utility.yul\":5250:5252   */\n      0x34\n        /* \"#utility.yul\":5241:5247   */\n      dup4\n        /* \"#utility.yul\":5236:5239   */\n      dup7\n        /* \"#utility.yul\":5232:5248   */\n      add\n        /* \"#utility.yul\":5228:5253   */\n      add\n        /* \"#utility.yul\":5221:5257   */\n      mstore\n        /* \"#utility.yul\":5182:5267   */\n    tag_103:\n      pop\n        /* \"#utility.yul\":5326:5328   */\n      0x34\n        /* \"#utility.yul\":5286:5302   */\n      swap3\n      add\n        /* \"#utility.yul\":5318:5329   */\n      swap2\n      dup3\n      add\n        /* \"#utility.yul\":5311:5338   */\n      swap3\n      swap1\n      swap3\n      mstore\n        /* \"#utility.yul\":5362:5364   */\n      0x54\n        /* \"#utility.yul\":5354:5365   */\n      add\n      swap5\n        /* \"#utility.yul\":4635:5371   */\n      swap4\n      pop\n      pop\n      pop\n      pop\n      jump\t// out\n\n    auxdata: 0xa26469706673582212207226f12f92d935527e109a54bd28b2118627b251e37c811444fca14fad3f746464736f6c634300080f0033\n}\n",
				"bytecode": {
					"linkReferences": {},
					"object": "608060405234801561001057600080fd5b506105d0806100206000396000f3fe608060405234801561001057600080fd5b50600436106100575760003560e01c806397aba7f91461005c578063a35f8a401461008c578063a7bb5803146100ad578063abe5026a146100de578063fa54080114610101575b600080fd5b61006f61006a366004610383565b610114565b6040516001600160a01b0390911681526020015b60405180910390f35b61009f61009a3660046103e6565b610193565b604051908152602001610083565b6100c06100bb366004610445565b6101cc565b60408051938452602084019290925260ff1690820152606001610083565b6100f16100ec366004610482565b610244565b6040519015158152602001610083565b61009f61010f366004610519565b61028d565b600080600080610123856101cc565b6040805160008152602081018083528b905260ff8316918101919091526060810184905260808101839052929550909350915060019060a0016020604051602081039080840390855afa15801561017e573d6000803e3d6000fd5b5050604051601f190151979650505050505050565b6000848484846040516020016101ac9493929190610532565b604051602081830303815290604052805190602001209050949350505050565b600080600083516041146102265760405162461bcd60e51b815260206004820152601860248201527f696e76616c6964207369676e6174757265206c656e6774680000000000000000604482015260640160405180910390fd5b50505060208101516040820151606090920151909260009190911a90565b60008061025387878787610193565b905060006102608261028d565b9050886001600160a01b03166102768286610114565b6001600160a01b0316149998505050505050505050565b6040517f19457468657265756d205369676e6564204d6573736167653a0a3332000000006020820152603c8101829052600090605c01604051602081830303815290604052805190602001209050919050565b634e487b7160e01b600052604160045260246000fd5b600082601f83011261030757600080fd5b813567ffffffffffffffff80821115610322576103226102e0565b604051601f8301601f19908116603f0116810190828211818310171561034a5761034a6102e0565b8160405283815286602085880101111561036357600080fd5b836020870160208301376000602085830101528094505050505092915050565b6000806040838503121561039657600080fd5b82359150602083013567ffffffffffffffff8111156103b457600080fd5b6103c0858286016102f6565b9150509250929050565b80356001600160a01b03811681146103e157600080fd5b919050565b600080600080608085870312156103fc57600080fd5b610405856103ca565b935060208501359250604085013567ffffffffffffffff81111561042857600080fd5b610434878288016102f6565b949793965093946060013593505050565b60006020828403121561045757600080fd5b813567ffffffffffffffff81111561046e57600080fd5b61047a848285016102f6565b949350505050565b60008060008060008060c0878903121561049b57600080fd5b6104a4876103ca565b95506104b2602088016103ca565b945060408701359350606087013567ffffffffffffffff808211156104d657600080fd5b6104e28a838b016102f6565b94506080890135935060a08901359150808211156104ff57600080fd5b5061050c89828a016102f6565b9150509295509295509295565b60006020828403121561052b57600080fd5b5035919050565b6bffffffffffffffffffffffff198560601b1681528360148201526000835160005b818110156105715760208187018101516034868401015201610554565b81811115610583576000603483860101525b50603492019182019290925260540194935050505056fea26469706673582212207226f12f92d935527e109a54bd28b2118627b251e37c811444fca14fad3f746464736f6c634300080f0033",
					"opcodes": "PUSH1 0x80 PUSH1 0x40 MSTORE CALLVALUE DUP1 ISZERO PUSH2 0x10 JUMPI PUSH1 0x0 DUP1 REVERT JUMPDEST POP PUSH2 0x5D0 DUP1 PUSH2 0x20 PUSH1 0x0 CODECOPY PUSH1 0x0 RETURN INVALID PUSH1 0x80 PUSH1 0x40 MSTORE CALLVALUE DUP1 ISZERO PUSH2 0x10 JUMPI PUSH1 0x0 DUP1 REVERT JUMPDEST POP PUSH1 0x4 CALLDATASIZE LT PUSH2 0x57 JUMPI PUSH1 0x0 CALLDATALOAD PUSH1 0xE0 SHR DUP1 PUSH4 0x97ABA7F9 EQ PUSH2 0x5C JUMPI DUP1 PUSH4 0xA35F8A40 EQ PUSH2 0x8C JUMPI DUP1 PUSH4 0xA7BB5803 EQ PUSH2 0xAD JUMPI DUP1 PUSH4 0xABE5026A EQ PUSH2 0xDE JUMPI DUP1 PUSH4 0xFA540801 EQ PUSH2 0x101 JUMPI JUMPDEST PUSH1 0x0 DUP1 REVERT JUMPDEST PUSH2 0x6F PUSH2 0x6A CALLDATASIZE PUSH1 0x4 PUSH2 0x383 JUMP JUMPDEST PUSH2 0x114 JUMP JUMPDEST PUSH1 0x40 MLOAD PUSH1 0x1 PUSH1 0x1 PUSH1 0xA0 SHL SUB SWAP1 SWAP2 AND DUP2 MSTORE PUSH1 0x20 ADD JUMPDEST PUSH1 0x40 MLOAD DUP1 SWAP2 SUB SWAP1 RETURN JUMPDEST PUSH2 0x9F PUSH2 0x9A CALLDATASIZE PUSH1 0x4 PUSH2 0x3E6 JUMP JUMPDEST PUSH2 0x193 JUMP JUMPDEST PUSH1 0x40 MLOAD SWAP1 DUP2 MSTORE PUSH1 0x20 ADD PUSH2 0x83 JUMP JUMPDEST PUSH2 0xC0 PUSH2 0xBB CALLDATASIZE PUSH1 0x4 PUSH2 0x445 JUMP JUMPDEST PUSH2 0x1CC JUMP JUMPDEST PUSH1 0x40 DUP1 MLOAD SWAP4 DUP5 MSTORE PUSH1 0x20 DUP5 ADD SWAP3 SWAP1 SWAP3 MSTORE PUSH1 0xFF AND SWAP1 DUP3 ADD MSTORE PUSH1 0x60 ADD PUSH2 0x83 JUMP JUMPDEST PUSH2 0xF1 PUSH2 0xEC CALLDATASIZE PUSH1 0x4 PUSH2 0x482 JUMP JUMPDEST PUSH2 0x244 JUMP JUMPDEST PUSH1 0x40 MLOAD SWAP1 ISZERO ISZERO DUP2 MSTORE PUSH1 0x20 ADD PUSH2 0x83 JUMP JUMPDEST PUSH2 0x9F PUSH2 0x10F CALLDATASIZE PUSH1 0x4 PUSH2 0x519 JUMP JUMPDEST PUSH2 0x28D JUMP JUMPDEST PUSH1 0x0 DUP1 PUSH1 0x0 DUP1 PUSH2 0x123 DUP6 PUSH2 0x1CC JUMP JUMPDEST PUSH1 0x40 DUP1 MLOAD PUSH1 0x0 DUP2 MSTORE PUSH1 0x20 DUP2 ADD DUP1 DUP4 MSTORE DUP12 SWAP1 MSTORE PUSH1 0xFF DUP4 AND SWAP2 DUP2 ADD SWAP2 SWAP1 SWAP2 MSTORE PUSH1 0x60 DUP2 ADD DUP5 SWAP1 MSTORE PUSH1 0x80 DUP2 ADD DUP4 SWAP1 MSTORE SWAP3 SWAP6 POP SWAP1 SWAP4 POP SWAP2 POP PUSH1 0x1 SWAP1 PUSH1 0xA0 ADD PUSH1 0x20 PUSH1 0x40 MLOAD PUSH1 0x20 DUP2 SUB SWAP1 DUP1 DUP5 SUB SWAP1 DUP6 GAS STATICCALL ISZERO DUP1 ISZERO PUSH2 0x17E JUMPI RETURNDATASIZE PUSH1 0x0 DUP1 RETURNDATACOPY RETURNDATASIZE PUSH1 0x0 REVERT JUMPDEST POP POP PUSH1 0x40 MLOAD PUSH1 0x1F NOT ADD MLOAD SWAP8 SWAP7 POP POP POP POP POP POP POP JUMP JUMPDEST PUSH1 0x0 DUP5 DUP5 DUP5 DUP5 PUSH1 0x40 MLOAD PUSH1 0x20 ADD PUSH2 0x1AC SWAP5 SWAP4 SWAP3 SWAP2 SWAP1 PUSH2 0x532 JUMP JUMPDEST PUSH1 0x40 MLOAD PUSH1 0x20 DUP2 DUP4 SUB SUB DUP2 MSTORE SWAP1 PUSH1 0x40 MSTORE DUP1 MLOAD SWAP1 PUSH1 0x20 ADD KECCAK256 SWAP1 POP SWAP5 SWAP4 POP POP POP POP JUMP JUMPDEST PUSH1 0x0 DUP1 PUSH1 0x0 DUP4 MLOAD PUSH1 0x41 EQ PUSH2 0x226 JUMPI PUSH1 0x40 MLOAD PUSH3 0x461BCD PUSH1 0xE5 SHL DUP2 MSTORE PUSH1 0x20 PUSH1 0x4 DUP3 ADD MSTORE PUSH1 0x18 PUSH1 0x24 DUP3 ADD MSTORE PUSH32 0x696E76616C6964207369676E6174757265206C656E6774680000000000000000 PUSH1 0x44 DUP3 ADD MSTORE PUSH1 0x64 ADD PUSH1 0x40 MLOAD DUP1 SWAP2 SUB SWAP1 REVERT JUMPDEST POP POP POP PUSH1 0x20 DUP2 ADD MLOAD PUSH1 0x40 DUP3 ADD MLOAD PUSH1 0x60 SWAP1 SWAP3 ADD MLOAD SWAP1 SWAP3 PUSH1 0x0 SWAP2 SWAP1 SWAP2 BYTE SWAP1 JUMP JUMPDEST PUSH1 0x0 DUP1 PUSH2 0x253 DUP8 DUP8 DUP8 DUP8 PUSH2 0x193 JUMP JUMPDEST SWAP1 POP PUSH1 0x0 PUSH2 0x260 DUP3 PUSH2 0x28D JUMP JUMPDEST SWAP1 POP DUP9 PUSH1 0x1 PUSH1 0x1 PUSH1 0xA0 SHL SUB AND PUSH2 0x276 DUP3 DUP7 PUSH2 0x114 JUMP JUMPDEST PUSH1 0x1 PUSH1 0x1 PUSH1 0xA0 SHL SUB AND EQ SWAP10 SWAP9 POP POP POP POP POP POP POP POP POP JUMP JUMPDEST PUSH1 0x40 MLOAD PUSH32 0x19457468657265756D205369676E6564204D6573736167653A0A333200000000 PUSH1 0x20 DUP3 ADD MSTORE PUSH1 0x3C DUP2 ADD DUP3 SWAP1 MSTORE PUSH1 0x0 SWAP1 PUSH1 0x5C ADD PUSH1 0x40 MLOAD PUSH1 0x20 DUP2 DUP4 SUB SUB DUP2 MSTORE SWAP1 PUSH1 0x40 MSTORE DUP1 MLOAD SWAP1 PUSH1 0x20 ADD KECCAK256 SWAP1 POP SWAP2 SWAP1 POP JUMP JUMPDEST PUSH4 0x4E487B71 PUSH1 0xE0 SHL PUSH1 0x0 MSTORE PUSH1 0x41 PUSH1 0x4 MSTORE PUSH1 0x24 PUSH1 0x0 REVERT JUMPDEST PUSH1 0x0 DUP3 PUSH1 0x1F DUP4 ADD SLT PUSH2 0x307 JUMPI PUSH1 0x0 DUP1 REVERT JUMPDEST DUP2 CALLDATALOAD PUSH8 0xFFFFFFFFFFFFFFFF DUP1 DUP3 GT ISZERO PUSH2 0x322 JUMPI PUSH2 0x322 PUSH2 0x2E0 JUMP JUMPDEST PUSH1 0x40 MLOAD PUSH1 0x1F DUP4 ADD PUSH1 0x1F NOT SWAP1 DUP2 AND PUSH1 0x3F ADD AND DUP2 ADD SWAP1 DUP3 DUP3 GT DUP2 DUP4 LT OR ISZERO PUSH2 0x34A JUMPI PUSH2 0x34A PUSH2 0x2E0 JUMP JUMPDEST DUP2 PUSH1 0x40 MSTORE DUP4 DUP2 MSTORE DUP7 PUSH1 0x20 DUP6 DUP9 ADD ADD GT ISZERO PUSH2 0x363 JUMPI PUSH1 0x0 DUP1 REVERT JUMPDEST DUP4 PUSH1 0x20 DUP8 ADD PUSH1 0x20 DUP4 ADD CALLDATACOPY PUSH1 0x0 PUSH1 0x20 DUP6 DUP4 ADD ADD MSTORE DUP1 SWAP5 POP POP POP POP POP SWAP3 SWAP2 POP POP JUMP JUMPDEST PUSH1 0x0 DUP1 PUSH1 0x40 DUP4 DUP6 SUB SLT ISZERO PUSH2 0x396 JUMPI PUSH1 0x0 DUP1 REVERT JUMPDEST DUP3 CALLDATALOAD SWAP2 POP PUSH1 0x20 DUP4 ADD CALLDATALOAD PUSH8 0xFFFFFFFFFFFFFFFF DUP2 GT ISZERO PUSH2 0x3B4 JUMPI PUSH1 0x0 DUP1 REVERT JUMPDEST PUSH2 0x3C0 DUP6 DUP3 DUP7 ADD PUSH2 0x2F6 JUMP JUMPDEST SWAP2 POP POP SWAP3 POP SWAP3 SWAP1 POP JUMP JUMPDEST DUP1 CALLDATALOAD PUSH1 0x1 PUSH1 0x1 PUSH1 0xA0 SHL SUB DUP2 AND DUP2 EQ PUSH2 0x3E1 JUMPI PUSH1 0x0 DUP1 REVERT JUMPDEST SWAP2 SWAP1 POP JUMP JUMPDEST PUSH1 0x0 DUP1 PUSH1 0x0 DUP1 PUSH1 0x80 DUP6 DUP8 SUB SLT ISZERO PUSH2 0x3FC JUMPI PUSH1 0x0 DUP1 REVERT JUMPDEST PUSH2 0x405 DUP6 PUSH2 0x3CA JUMP JUMPDEST SWAP4 POP PUSH1 0x20 DUP6 ADD CALLDATALOAD SWAP3 POP PUSH1 0x40 DUP6 ADD CALLDATALOAD PUSH8 0xFFFFFFFFFFFFFFFF DUP2 GT ISZERO PUSH2 0x428 JUMPI PUSH1 0x0 DUP1 REVERT JUMPDEST PUSH2 0x434 DUP8 DUP3 DUP9 ADD PUSH2 0x2F6 JUMP JUMPDEST SWAP5 SWAP8 SWAP4 SWAP7 POP SWAP4 SWAP5 PUSH1 0x60 ADD CALLDATALOAD SWAP4 POP POP POP JUMP JUMPDEST PUSH1 0x0 PUSH1 0x20 DUP3 DUP5 SUB SLT ISZERO PUSH2 0x457 JUMPI PUSH1 0x0 DUP1 REVERT JUMPDEST DUP2 CALLDATALOAD PUSH8 0xFFFFFFFFFFFFFFFF DUP2 GT ISZERO PUSH2 0x46E JUMPI PUSH1 0x0 DUP1 REVERT JUMPDEST PUSH2 0x47A DUP5 DUP3 DUP6 ADD PUSH2 0x2F6 JUMP JUMPDEST SWAP5 SWAP4 POP POP POP POP JUMP JUMPDEST PUSH1 0x0 DUP1 PUSH1 0x0 DUP1 PUSH1 0x0 DUP1 PUSH1 0xC0 DUP8 DUP10 SUB SLT ISZERO PUSH2 0x49B JUMPI PUSH1 0x0 DUP1 REVERT JUMPDEST PUSH2 0x4A4 DUP8 PUSH2 0x3CA JUMP JUMPDEST SWAP6 POP PUSH2 0x4B2 PUSH1 0x20 DUP9 ADD PUSH2 0x3CA JUMP JUMPDEST SWAP5 POP PUSH1 0x40 DUP8 ADD CALLDATALOAD SWAP4 POP PUSH1 0x60 DUP8 ADD CALLDATALOAD PUSH8 0xFFFFFFFFFFFFFFFF DUP1 DUP3 GT ISZERO PUSH2 0x4D6 JUMPI PUSH1 0x0 DUP1 REVERT JUMPDEST PUSH2 0x4E2 DUP11 DUP4 DUP12 ADD PUSH2 0x2F6 JUMP JUMPDEST SWAP5 POP PUSH1 0x80 DUP10 ADD CALLDATALOAD SWAP4 POP PUSH1 0xA0 DUP10 ADD CALLDATALOAD SWAP2 POP DUP1 DUP3 GT ISZERO PUSH2 0x4FF JUMPI PUSH1 0x0 DUP1 REVERT JUMPDEST POP PUSH2 0x50C DUP10 DUP3 DUP11 ADD PUSH2 0x2F6 JUMP JUMPDEST SWAP2 POP POP SWAP3 SWAP6 POP SWAP3 SWAP6 POP SWAP3 SWAP6 JUMP JUMPDEST PUSH1 0x0 PUSH1 0x20 DUP3 DUP5 SUB SLT ISZERO PUSH2 0x52B JUMPI PUSH1 0x0 DUP1 REVERT JUMPDEST POP CALLDATALOAD SWAP2 SWAP1 POP JUMP JUMPDEST PUSH12 0xFFFFFFFFFFFFFFFFFFFFFFFF NOT DUP6 PUSH1 0x60 SHL AND DUP2 MSTORE DUP4 PUSH1 0x14 DUP3 ADD MSTORE PUSH1 0x0 DUP4 MLOAD PUSH1 0x0 JUMPDEST DUP2 DUP2 LT ISZERO PUSH2 0x571 JUMPI PUSH1 0x20 DUP2 DUP8 ADD DUP2 ADD MLOAD PUSH1 0x34 DUP7 DUP5 ADD ADD MSTORE ADD PUSH2 0x554 JUMP JUMPDEST DUP2 DUP2 GT ISZERO PUSH2 0x583 JUMPI PUSH1 0x0 PUSH1 0x34 DUP4 DUP7 ADD ADD MSTORE JUMPDEST POP PUSH1 0x34 SWAP3 ADD SWAP2 DUP3 ADD SWAP3 SWAP1 SWAP3 MSTORE PUSH1 0x54 ADD SWAP5 SWAP4 POP POP POP POP JUMP INVALID LOG2 PUSH5 0x6970667358 0x22 SLT KECCAK256 PUSH19 0x26F12F92D935527E109A54BD28B2118627B251 0xE3 PUSH29 0x811444FCA14FAD3F746464736F6C634300080F00330000000000000000 "
				},
				"gasEstimates": {
					"creation": {
						"codeDepositCost": "297600",
						"executionCost": "337",
						"totalCost": "297937"
					},
					"external": {
						"getEthSignedMessageHash(bytes32)": "510",
						"getMessageHash(address,uint256,string,uint256)": "infinite",
						"recoverSigner(bytes32,bytes)": "infinite",
						"splitSignature(bytes)": "infinite",
						"verify(address,address,uint256,string,uint256,bytes)": "infinite"
					}
				},
				"methodIdentifiers": {
					"getEthSignedMessageHash(bytes32)": "fa540801",
					"getMessageHash(address,uint256,string,uint256)": "a35f8a40",
					"recoverSigner(bytes32,bytes)": "97aba7f9",
					"splitSignature(bytes)": "a7bb5803",
					"verify(address,address,uint256,string,uint256,bytes)": "abe5026a"
				}
			},
			"storageLayout": {
				"storage": [],
				"types": null
			},
			"userdoc": {
				"kind": "user",
				"methods": {},
				"version": 1
			}
		}
	}
}