{
	"MintNagaKid.sol": {
		"MintNagaKid": {
			"abi": [
				{
					"inputs": [
						{
							"internalType": "contract INagaKidNFT",
							"name": "_NagaKid",
							"type": "address"
						},
						{
							"internalType": "bytes32",
							"name": "_merkleRoot",
							"type": "bytes32"
						}
					],
					"stateMutability": "nonpayable",
					"type": "constructor"
				},
				{
					"anonymous": false,
					"inputs": [
						{
							"indexed": true,
							"internalType": "address",
							"name": "user",
							"type": "address"
						},
						{
							"indexed": false,
							"internalType": "uint256",
							"name": "timestamp",
							"type": "uint256"
						}
					],
					"name": "PublicMinted",
					"type": "event"
				},
				{
					"anonymous": false,
					"inputs": [
						{
							"indexed": true,
							"internalType": "bytes32",
							"name": "role",
							"type": "bytes32"
						},
						{
							"indexed": true,
							"internalType": "bytes32",
							"name": "previousAdminRole",
							"type": "bytes32"
						},
						{
							"indexed": true,
							"internalType": "bytes32",
							"name": "newAdminRole",
							"type": "bytes32"
						}
					],
					"name": "RoleAdminChanged",
					"type": "event"
				},
				{
					"anonymous": false,
					"inputs": [
						{
							"indexed": true,
							"internalType": "bytes32",
							"name": "role",
							"type": "bytes32"
						},
						{
							"indexed": true,
							"internalType": "address",
							"name": "account",
							"type": "address"
						},
						{
							"indexed": true,
							"internalType": "address",
							"name": "sender",
							"type": "address"
						}
					],
					"name": "RoleGranted",
					"type": "event"
				},
				{
					"anonymous": false,
					"inputs": [
						{
							"indexed": true,
							"internalType": "bytes32",
							"name": "role",
							"type": "bytes32"
						},
						{
							"indexed": true,
							"internalType": "address",
							"name": "account",
							"type": "address"
						},
						{
							"indexed": true,
							"internalType": "address",
							"name": "sender",
							"type": "address"
						}
					],
					"name": "RoleRevoked",
					"type": "event"
				},
				{
					"anonymous": false,
					"inputs": [
						{
							"indexed": false,
							"internalType": "bytes32",
							"name": "merkleRootBefore",
							"type": "bytes32"
						},
						{
							"indexed": false,
							"internalType": "bytes32",
							"name": "merkleRootAfter",
							"type": "bytes32"
						}
					],
					"name": "SetMerkleRoot",
					"type": "event"
				},
				{
					"anonymous": false,
					"inputs": [
						{
							"indexed": false,
							"internalType": "address",
							"name": "NagaKidBefore",
							"type": "address"
						},
						{
							"indexed": false,
							"internalType": "address",
							"name": "NagaKidAfter",
							"type": "address"
						}
					],
					"name": "SetNagaKidContract",
					"type": "event"
				},
				{
					"anonymous": false,
					"inputs": [
						{
							"indexed": false,
							"internalType": "bool",
							"name": "isOpen",
							"type": "bool"
						}
					],
					"name": "SetPublicMintOpen",
					"type": "event"
				},
				{
					"anonymous": false,
					"inputs": [
						{
							"indexed": false,
							"internalType": "address",
							"name": "signerBefore",
							"type": "address"
						},
						{
							"indexed": false,
							"internalType": "address",
							"name": "signerAfter",
							"type": "address"
						}
					],
					"name": "SetSigner",
					"type": "event"
				},
				{
					"anonymous": false,
					"inputs": [
						{
							"indexed": false,
							"internalType": "bool",
							"name": "isOpen",
							"type": "bool"
						}
					],
					"name": "SetWhitelistMintOpen",
					"type": "event"
				},
				{
					"anonymous": false,
					"inputs": [
						{
							"indexed": true,
							"internalType": "address",
							"name": "user",
							"type": "address"
						},
						{
							"indexed": false,
							"internalType": "uint256",
							"name": "amount",
							"type": "uint256"
						},
						{
							"indexed": false,
							"internalType": "uint256",
							"name": "timestamp",
							"type": "uint256"
						}
					],
					"name": "WhitelistMinted",
					"type": "event"
				},
				{
					"inputs": [],
					"name": "DEFAULT_ADMIN_ROLE",
					"outputs": [
						{
							"internalType": "bytes32",
							"name": "",
							"type": "bytes32"
						}
					],
					"stateMutability": "view",
					"type": "function"
				},
				{
					"inputs": [],
					"name": "NagaKidContract",
					"outputs": [
						{
							"internalType": "contract INagaKidNFT",
							"name": "",
							"type": "address"
						}
					],
					"stateMutability": "view",
					"type": "function"
				},
				{
					"inputs": [
						{
							"internalType": "bytes32",
							"name": "_messageHash",
							"type": "bytes32"
						}
					],
					"name": "getEthSignedMessageHash",
					"outputs": [
						{
							"internalType": "bytes32",
							"name": "",
							"type": "bytes32"
						}
					],
					"stateMutability": "pure",
					"type": "function"
				},
				{
					"inputs": [],
					"name": "getMaxSupply",
					"outputs": [
						{
							"internalType": "uint256",
							"name": "",
							"type": "uint256"
						}
					],
					"stateMutability": "view",
					"type": "function"
				},
				{
					"inputs": [
						{
							"internalType": "address",
							"name": "_user",
							"type": "address"
						}
					],
					"name": "getMessageHash",
					"outputs": [
						{
							"internalType": "bytes32",
							"name": "",
							"type": "bytes32"
						}
					],
					"stateMutability": "view",
					"type": "function"
				},
				{
					"inputs": [
						{
							"internalType": "bytes32",
							"name": "role",
							"type": "bytes32"
						}
					],
					"name": "getRoleAdmin",
					"outputs": [
						{
							"internalType": "bytes32",
							"name": "",
							"type": "bytes32"
						}
					],
					"stateMutability": "view",
					"type": "function"
				},
				{
					"inputs": [],
					"name": "getTotalSupply",
					"outputs": [
						{
							"internalType": "uint256",
							"name": "",
							"type": "uint256"
						}
					],
					"stateMutability": "view",
					"type": "function"
				},
				{
					"inputs": [
						{
							"internalType": "bytes32",
							"name": "role",
							"type": "bytes32"
						},
						{
							"internalType": "address",
							"name": "account",
							"type": "address"
						}
					],
					"name": "grantRole",
					"outputs": [],
					"stateMutability": "nonpayable",
					"type": "function"
				},
				{
					"inputs": [
						{
							"internalType": "bytes32",
							"name": "role",
							"type": "bytes32"
						},
						{
							"internalType": "address",
							"name": "account",
							"type": "address"
						}
					],
					"name": "hasRole",
					"outputs": [
						{
							"internalType": "bool",
							"name": "",
							"type": "bool"
						}
					],
					"stateMutability": "view",
					"type": "function"
				},
				{
					"inputs": [],
					"name": "isPause",
					"outputs": [
						{
							"internalType": "bool",
							"name": "",
							"type": "bool"
						}
					],
					"stateMutability": "view",
					"type": "function"
				},
				{
					"inputs": [],
					"name": "isPublicMintOpen",
					"outputs": [
						{
							"internalType": "bool",
							"name": "",
							"type": "bool"
						}
					],
					"stateMutability": "view",
					"type": "function"
				},
				{
					"inputs": [
						{
							"internalType": "address",
							"name": "_user",
							"type": "address"
						}
					],
					"name": "isPublicMinted",
					"outputs": [
						{
							"internalType": "bool",
							"name": "",
							"type": "bool"
						}
					],
					"stateMutability": "view",
					"type": "function"
				},
				{
					"inputs": [],
					"name": "isWhitelistMintOpen",
					"outputs": [
						{
							"internalType": "bool",
							"name": "",
							"type": "bool"
						}
					],
					"stateMutability": "view",
					"type": "function"
				},
				{
					"inputs": [
						{
							"internalType": "address",
							"name": "_user",
							"type": "address"
						}
					],
					"name": "isWhitelistMinted",
					"outputs": [
						{
							"internalType": "bool",
							"name": "",
							"type": "bool"
						}
					],
					"stateMutability": "view",
					"type": "function"
				},
				{
					"inputs": [
						{
							"internalType": "address",
							"name": "_user",
							"type": "address"
						}
					],
					"name": "isWhitelistMintedAmount",
					"outputs": [
						{
							"internalType": "uint256",
							"name": "",
							"type": "uint256"
						}
					],
					"stateMutability": "view",
					"type": "function"
				},
				{
					"inputs": [],
					"name": "merkleRoot",
					"outputs": [
						{
							"internalType": "bytes32",
							"name": "",
							"type": "bytes32"
						}
					],
					"stateMutability": "view",
					"type": "function"
				},
				{
					"inputs": [
						{
							"internalType": "bytes",
							"name": "_sig",
							"type": "bytes"
						}
					],
					"name": "publicMint",
					"outputs": [],
					"stateMutability": "payable",
					"type": "function"
				},
				{
					"inputs": [
						{
							"internalType": "bytes32",
							"name": "_ethSignedMessageHash",
							"type": "bytes32"
						},
						{
							"internalType": "bytes",
							"name": "_signature",
							"type": "bytes"
						}
					],
					"name": "recoverSigner",
					"outputs": [
						{
							"internalType": "address",
							"name": "",
							"type": "address"
						}
					],
					"stateMutability": "pure",
					"type": "function"
				},
				{
					"inputs": [
						{
							"internalType": "bytes32",
							"name": "role",
							"type": "bytes32"
						},
						{
							"internalType": "address",
							"name": "account",
							"type": "address"
						}
					],
					"name": "renounceRole",
					"outputs": [],
					"stateMutability": "nonpayable",
					"type": "function"
				},
				{
					"inputs": [
						{
							"internalType": "bytes32",
							"name": "role",
							"type": "bytes32"
						},
						{
							"internalType": "address",
							"name": "account",
							"type": "address"
						}
					],
					"name": "revokeRole",
					"outputs": [],
					"stateMutability": "nonpayable",
					"type": "function"
				},
				{
					"inputs": [
						{
							"internalType": "bytes32",
							"name": "_merkleRoot",
							"type": "bytes32"
						}
					],
					"name": "setMerkleRoot",
					"outputs": [],
					"stateMutability": "nonpayable",
					"type": "function"
				},
				{
					"inputs": [
						{
							"internalType": "contract INagaKidNFT",
							"name": "_NagaKid",
							"type": "address"
						}
					],
					"name": "setNagaKidContract",
					"outputs": [],
					"stateMutability": "nonpayable",
					"type": "function"
				},
				{
					"inputs": [
						{
							"internalType": "bool",
							"name": "_isOpen",
							"type": "bool"
						}
					],
					"name": "setPublicMintOpen",
					"outputs": [],
					"stateMutability": "nonpayable",
					"type": "function"
				},
				{
					"inputs": [
						{
							"internalType": "address",
							"name": "_signer",
							"type": "address"
						}
					],
					"name": "setSigner",
					"outputs": [],
					"stateMutability": "nonpayable",
					"type": "function"
				},
				{
					"inputs": [
						{
							"internalType": "bool",
							"name": "_isOpen",
							"type": "bool"
						}
					],
					"name": "setWhitelistMintOpen",
					"outputs": [],
					"stateMutability": "nonpayable",
					"type": "function"
				},
				{
					"inputs": [],
					"name": "signer",
					"outputs": [
						{
							"internalType": "address",
							"name": "",
							"type": "address"
						}
					],
					"stateMutability": "view",
					"type": "function"
				},
				{
					"inputs": [
						{
							"internalType": "bytes",
							"name": "sig",
							"type": "bytes"
						}
					],
					"name": "splitSignature",
					"outputs": [
						{
							"internalType": "bytes32",
							"name": "r",
							"type": "bytes32"
						},
						{
							"internalType": "bytes32",
							"name": "s",
							"type": "bytes32"
						},
						{
							"internalType": "uint8",
							"name": "v",
							"type": "uint8"
						}
					],
					"stateMutability": "pure",
					"type": "function"
				},
				{
					"inputs": [
						{
							"internalType": "bytes4",
							"name": "interfaceId",
							"type": "bytes4"
						}
					],
					"name": "supportsInterface",
					"outputs": [
						{
							"internalType": "bool",
							"name": "",
							"type": "bool"
						}
					],
					"stateMutability": "view",
					"type": "function"
				},
				{
					"inputs": [
						{
							"internalType": "address",
							"name": "_signer",
							"type": "address"
						},
						{
							"internalType": "address",
							"name": "_user",
							"type": "address"
						},
						{
							"internalType": "bytes",
							"name": "signature",
							"type": "bytes"
						}
					],
					"name": "verify",
					"outputs": [
						{
							"internalType": "bool",
							"name": "",
							"type": "bool"
						}
					],
					"stateMutability": "view",
					"type": "function"
				},
				{
					"inputs": [
						{
							"internalType": "bytes32[]",
							"name": "_proofMerkle",
							"type": "bytes32[]"
						},
						{
							"internalType": "uint256",
							"name": "_amount",
							"type": "uint256"
						}
					],
					"name": "whitelistMint",
					"outputs": [],
					"stateMutability": "payable",
					"type": "function"
				}
			],
			"devdoc": {
				"kind": "dev",
				"methods": {
					"getRoleAdmin(bytes32)": {
						"details": "Returns the admin role that controls `role`. See {grantRole} and {revokeRole}. To change a role's admin, use {_setRoleAdmin}."
					},
					"grantRole(bytes32,address)": {
						"details": "Grants `role` to `account`. If `account` had not been already granted `role`, emits a {RoleGranted} event. Requirements: - the caller must have ``role``'s admin role."
					},
					"hasRole(bytes32,address)": {
						"details": "Returns `true` if `account` has been granted `role`."
					},
					"renounceRole(bytes32,address)": {
						"details": "Revokes `role` from the calling account. Roles are often managed via {grantRole} and {revokeRole}: this function's purpose is to provide a mechanism for accounts to lose their privileges if they are compromised (such as when a trusted device is misplaced). If the calling account had been revoked `role`, emits a {RoleRevoked} event. Requirements: - the caller must be `account`."
					},
					"revokeRole(bytes32,address)": {
						"details": "Revokes `role` from `account`. If `account` had been granted `role`, emits a {RoleRevoked} event. Requirements: - the caller must have ``role``'s admin role."
					},
					"supportsInterface(bytes4)": {
						"details": "See {IERC165-supportsInterface}."
					}
				},
				"version": 1
			},
			"evm": {
				"assembly": "    /* \"MintNagaKid.sol\":276:4917  contract MintNagaKid is Whitelist, VerifySignature, AccessControl, ReentrancyGuard {... */\n  mstore(0x40, 0x80)\n    /* \"MintNagaKid.sol\":1128:1323  constructor(INagaKidNFT _NagaKid,bytes32 _merkleRoot) {... */\n  callvalue\n  dup1\n  iszero\n  tag_1\n  jumpi\n  0x00\n  dup1\n  revert\ntag_1:\n  pop\n  mload(0x40)\n  sub(codesize, bytecodeSize)\n  dup1\n  bytecodeSize\n  dup4\n  codecopy\n  dup2\n  add\n  0x40\n  dup2\n  swap1\n  mstore\n  tag_2\n  swap2\n  tag_3\n  jump\t// in\ntag_2:\n    /* \"@openzeppelin/contracts/security/ReentrancyGuard.sol\":1701:1702  1 */\n  0x01\n    /* \"@openzeppelin/contracts/security/ReentrancyGuard.sol\":1806:1813  _status */\n  0x02\n    /* \"@openzeppelin/contracts/security/ReentrancyGuard.sol\":1806:1828  _status = _NOT_ENTERED */\n  sstore\n    /* \"MintNagaKid.sol\":1195:1237  _grantRole(DEFAULT_ADMIN_ROLE, msg.sender) */\n  tag_8\n    /* \"@openzeppelin/contracts/access/AccessControl.sol\":2072:2076  0x00 */\n  0x00\n    /* \"MintNagaKid.sol\":1226:1236  msg.sender */\n  caller\n    /* \"MintNagaKid.sol\":1195:1205  _grantRole */\n  tag_9\n    /* \"MintNagaKid.sol\":1195:1237  _grantRole(DEFAULT_ADMIN_ROLE, msg.sender) */\n  jump\t// in\ntag_8:\n    /* \"MintNagaKid.sol\":1248:1276  setNagaKidContract(_NagaKid) */\n  tag_10\n    /* \"MintNagaKid.sol\":1267:1275  _NagaKid */\n  dup3\n    /* \"MintNagaKid.sol\":1248:1266  setNagaKidContract */\n  tag_11\n    /* \"MintNagaKid.sol\":1248:1276  setNagaKidContract(_NagaKid) */\n  jump\t// in\ntag_10:\n    /* \"MintNagaKid.sol\":1287:1313  setMerkleRoot(_merkleRoot) */\n  tag_12\n    /* \"MintNagaKid.sol\":1301:1312  _merkleRoot */\n  dup2\n    /* \"MintNagaKid.sol\":1287:1300  setMerkleRoot */\n  tag_13\n    /* \"MintNagaKid.sol\":1287:1313  setMerkleRoot(_merkleRoot) */\n  jump\t// in\ntag_12:\n    /* \"MintNagaKid.sol\":1128:1323  constructor(INagaKidNFT _NagaKid,bytes32 _merkleRoot) {... */\n  pop\n  pop\n    /* \"MintNagaKid.sol\":276:4917  contract MintNagaKid is Whitelist, VerifySignature, AccessControl, ReentrancyGuard {... */\n  jump(tag_78)\n    /* \"@openzeppelin/contracts/access/AccessControl.sol\":7244:7477  function _grantRole(bytes32 role, address account) internal virtual {... */\ntag_9:\n    /* \"@openzeppelin/contracts/access/AccessControl.sol\":2981:2985  bool */\n  0x00\n    /* \"@openzeppelin/contracts/access/AccessControl.sol\":3004:3016  _roles[role] */\n  dup3\n  dup2\n  mstore\n    /* \"@openzeppelin/contracts/access/AccessControl.sol\":3004:3010  _roles */\n  0x01\n    /* \"@openzeppelin/contracts/access/AccessControl.sol\":3004:3016  _roles[role] */\n  0x20\n  swap1\n  dup2\n  mstore\n  0x40\n  dup1\n  dup4\n  keccak256\n  sub(shl(0xa0, 0x01), 0x01)\n    /* \"@openzeppelin/contracts/access/AccessControl.sol\":3004:3033  _roles[role].members[account] */\n  dup6\n  and\n  dup5\n  mstore\n  swap1\n  swap2\n  mstore\n  swap1\n  keccak256\n  sload\n  0xff\n  and\n    /* \"@openzeppelin/contracts/access/AccessControl.sol\":7322:7471  if (!hasRole(role, account)) {... */\n  tag_18\n  jumpi\n    /* \"@openzeppelin/contracts/access/AccessControl.sol\":7365:7377  _roles[role] */\n  0x00\n  dup3\n  dup2\n  mstore\n    /* \"@openzeppelin/contracts/access/AccessControl.sol\":7397:7401  true */\n  0x01\n    /* \"@openzeppelin/contracts/access/AccessControl.sol\":7365:7377  _roles[role] */\n  0x20\n  dup2\n  dup2\n  mstore\n  0x40\n  dup1\n  dup5\n  keccak256\n  sub(shl(0xa0, 0x01), 0x01)\n    /* \"@openzeppelin/contracts/access/AccessControl.sol\":7365:7394  _roles[role].members[account] */\n  dup7\n  and\n  dup1\n  dup7\n  mstore\n  swap3\n  mstore\n  dup1\n  dup5\n  keccak256\n    /* \"@openzeppelin/contracts/access/AccessControl.sol\":7365:7401  _roles[role].members[account] = true */\n  dup1\n  sload\n  not(0xff)\n  and\n  swap1\n  swap4\n  or\n  swap1\n  swap3\n  sstore\n    /* \"@openzeppelin/contracts/access/AccessControl.sol\":7420:7460  RoleGranted(role, account, _msgSender()) */\n  swap1\n  mload\n    /* \"@openzeppelin/contracts/utils/Context.sol\":719:729  msg.sender */\n  caller\n  swap3\n    /* \"@openzeppelin/contracts/access/AccessControl.sol\":7365:7377  _roles[role] */\n  dup6\n  swap2\n    /* \"@openzeppelin/contracts/access/AccessControl.sol\":7420:7460  RoleGranted(role, account, _msgSender()) */\n  0x2f8788117e7eff1d82e926ec794901d17c78024a50270940304540a733656f0d\n  swap2\n    /* \"@openzeppelin/contracts/access/AccessControl.sol\":7365:7377  _roles[role] */\n  swap1\n    /* \"@openzeppelin/contracts/access/AccessControl.sol\":7420:7460  RoleGranted(role, account, _msgSender()) */\n  log4\n    /* \"@openzeppelin/contracts/access/AccessControl.sol\":7322:7471  if (!hasRole(role, account)) {... */\ntag_18:\n    /* \"@openzeppelin/contracts/access/AccessControl.sol\":7244:7477  function _grantRole(bytes32 role, address account) internal virtual {... */\n  pop\n  pop\n  jump\t// out\n    /* \"MintNagaKid.sol\":1437:1706  function setNagaKidContract(INagaKidNFT _NagaKid) public onlyRole(DEFAULT_ADMIN_ROLE) {... */\ntag_11:\n    /* \"@openzeppelin/contracts/access/AccessControl.sol\":2072:2076  0x00 */\n  0x00\n    /* \"@openzeppelin/contracts/access/AccessControl.sol\":2505:2521  _checkRole(role) */\n  tag_22\n    /* \"@openzeppelin/contracts/access/AccessControl.sol\":2072:2076  0x00 */\n  dup2\n    /* \"@openzeppelin/contracts/access/AccessControl.sol\":2505:2515  _checkRole */\n  tag_23\n    /* \"@openzeppelin/contracts/access/AccessControl.sol\":2505:2521  _checkRole(role) */\n  jump\t// in\ntag_22:\n    /* \"MintNagaKid.sol\":1566:1581  NagaKidContract */\n  0x03\n  dup1\n  sload\n  sub(shl(0xa0, 0x01), 0x01)\n    /* \"MintNagaKid.sol\":1603:1629  NagaKidContract = _NagaKid */\n  dup5\n  dup2\n  and\n  not(sub(shl(0xa0, 0x01), 0x01))\n  dup4\n  and\n  dup2\n  or\n  swap1\n  swap4\n  sstore\n    /* \"MintNagaKid.sol\":1647:1698  SetNagaKidContract(NagaKidBefore,address(_NagaKid)) */\n  0x40\n  dup1\n  mload\n    /* \"MintNagaKid.sol\":1566:1581  NagaKidContract */\n  swap2\n  swap1\n  swap3\n  and\n    /* \"#utility.yul\":601:635   */\n  dup1\n  dup3\n  mstore\n    /* \"#utility.yul\":666:668   */\n  0x20\n    /* \"#utility.yul\":651:669   */\n  dup3\n  add\n    /* \"#utility.yul\":644:687   */\n  swap4\n  swap1\n  swap4\n  mstore\n    /* \"MintNagaKid.sol\":1647:1698  SetNagaKidContract(NagaKidBefore,address(_NagaKid)) */\n  0x92ce13baec98d66394cf79a9f16b88c346e6bd6dd4df75ac1144e5dc7ff8e541\n  swap2\n    /* \"#utility.yul\":536:554   */\n  add\n    /* \"MintNagaKid.sol\":1647:1698  SetNagaKidContract(NagaKidBefore,address(_NagaKid)) */\ntag_25:\n  mload(0x40)\n  dup1\n  swap2\n  sub\n  swap1\n  log1\n    /* \"MintNagaKid.sol\":1523:1706  {... */\n  pop\n    /* \"MintNagaKid.sol\":1437:1706  function setNagaKidContract(INagaKidNFT _NagaKid) public onlyRole(DEFAULT_ADMIN_ROLE) {... */\n  pop\n  pop\n  jump\t// out\n    /* \"MintNagaKid.sol\":2284:2518  function setMerkleRoot(bytes32 _merkleRoot) public onlyRole(DEFAULT_ADMIN_ROLE) {... */\ntag_13:\n    /* \"@openzeppelin/contracts/access/AccessControl.sol\":2072:2076  0x00 */\n  0x00\n    /* \"@openzeppelin/contracts/access/AccessControl.sol\":2505:2521  _checkRole(role) */\n  tag_28\n    /* \"@openzeppelin/contracts/access/AccessControl.sol\":2072:2076  0x00 */\n  dup2\n    /* \"@openzeppelin/contracts/access/AccessControl.sol\":2505:2515  _checkRole */\n  tag_23\n    /* \"@openzeppelin/contracts/access/AccessControl.sol\":2505:2521  _checkRole(role) */\n  jump\t// in\ntag_28:\n    /* \"MintNagaKid.sol\":2375:2400  bytes32 _merkleRootBefore */\n  0x00\n    /* \"MintNagaKid.sol\":2403:2413  merkleRoot */\n  dup1\n  sload\n    /* \"MintNagaKid.sol\":2424:2448  merkleRoot = _merkleRoot */\n  swap1\n  dup4\n  swap1\n  sstore\n    /* \"MintNagaKid.sol\":2466:2510  SetMerkleRoot(_merkleRootBefore,_merkleRoot) */\n  0x40\n  dup1\n  mload\n    /* \"#utility.yul\":872:897   */\n  dup3\n  dup2\n  mstore\n    /* \"#utility.yul\":928:930   */\n  0x20\n    /* \"#utility.yul\":913:931   */\n  dup2\n  add\n    /* \"#utility.yul\":906:940   */\n  dup6\n  swap1\n  mstore\n    /* \"MintNagaKid.sol\":2466:2510  SetMerkleRoot(_merkleRootBefore,_merkleRoot) */\n  0x8c059dfa273e5360f0ad8d03524cfc0e8e91f05bf893452e7e92c8bf0feffb65\n  swap2\n    /* \"#utility.yul\":845:863   */\n  add\n    /* \"MintNagaKid.sol\":2466:2510  SetMerkleRoot(_merkleRootBefore,_merkleRoot) */\n  tag_25\n    /* \"#utility.yul\":698:946   */\n  jump\n    /* \"@openzeppelin/contracts/access/AccessControl.sol\":3334:3437  function _checkRole(bytes32 role) internal view virtual {... */\ntag_23:\n    /* \"@openzeppelin/contracts/access/AccessControl.sol\":3400:3430  _checkRole(role, _msgSender()) */\n  tag_35\n    /* \"@openzeppelin/contracts/access/AccessControl.sol\":3411:3415  role */\n  dup2\n    /* \"@openzeppelin/contracts/utils/Context.sol\":719:729  msg.sender */\n  caller\n    /* \"@openzeppelin/contracts/access/AccessControl.sol\":3400:3410  _checkRole */\n  tag_37\n    /* \"@openzeppelin/contracts/access/AccessControl.sol\":3400:3430  _checkRole(role, _msgSender()) */\n  jump\t// in\ntag_35:\n    /* \"@openzeppelin/contracts/access/AccessControl.sol\":3334:3437  function _checkRole(bytes32 role) internal view virtual {... */\n  pop\n  jump\t// out\n    /* \"@openzeppelin/contracts/access/AccessControl.sol\":3718:4210  function _checkRole(bytes32 role, address account) internal view virtual {... */\ntag_37:\n    /* \"@openzeppelin/contracts/access/AccessControl.sol\":2981:2985  bool */\n  0x00\n    /* \"@openzeppelin/contracts/access/AccessControl.sol\":3004:3016  _roles[role] */\n  dup3\n  dup2\n  mstore\n    /* \"@openzeppelin/contracts/access/AccessControl.sol\":3004:3010  _roles */\n  0x01\n    /* \"@openzeppelin/contracts/access/AccessControl.sol\":3004:3016  _roles[role] */\n  0x20\n  swap1\n  dup2\n  mstore\n  0x40\n  dup1\n  dup4\n  keccak256\n  sub(shl(0xa0, 0x01), 0x01)\n    /* \"@openzeppelin/contracts/access/AccessControl.sol\":3004:3033  _roles[role].members[account] */\n  dup6\n  and\n  dup5\n  mstore\n  swap1\n  swap2\n  mstore\n  swap1\n  keccak256\n  sload\n  0xff\n  and\n    /* \"@openzeppelin/contracts/access/AccessControl.sol\":3801:4204  if (!hasRole(role, account)) {... */\n  tag_18\n  jumpi\n    /* \"@openzeppelin/contracts/access/AccessControl.sol\":3989:4030  Strings.toHexString(uint160(account), 20) */\n  tag_41\n    /* \"@openzeppelin/contracts/access/AccessControl.sol\":4017:4024  account */\n  dup2\n  sub(shl(0xa0, 0x01), 0x01)\n    /* \"@openzeppelin/contracts/access/AccessControl.sol\":3989:4030  Strings.toHexString(uint160(account), 20) */\n  and\n    /* \"@openzeppelin/contracts/access/AccessControl.sol\":4027:4029  20 */\n  0x14\n    /* \"@openzeppelin/contracts/access/AccessControl.sol\":3989:4008  Strings.toHexString */\n  or(tag_0_185, shl(0x20, tag_42))\n    /* \"@openzeppelin/contracts/access/AccessControl.sol\":3989:4030  Strings.toHexString(uint160(account), 20) */\n  0x20\n  shr\n  jump\t// in\ntag_41:\n    /* \"@openzeppelin/contracts/access/AccessControl.sol\":4101:4139  Strings.toHexString(uint256(role), 32) */\n  tag_43\n    /* \"@openzeppelin/contracts/access/AccessControl.sol\":4129:4133  role */\n  dup4\n    /* \"@openzeppelin/contracts/access/AccessControl.sol\":4136:4138  32 */\n  0x20\n    /* \"@openzeppelin/contracts/access/AccessControl.sol\":4101:4120  Strings.toHexString */\n  tag_0_185\n  tag_42\n  dup3\n  shl\n  or\n    /* \"@openzeppelin/contracts/access/AccessControl.sol\":4101:4139  Strings.toHexString(uint256(role), 32) */\n  dup2\n  shr\n  jump\t// in\ntag_43:\n    /* \"@openzeppelin/contracts/access/AccessControl.sol\":3896:4161  abi.encodePacked(... */\n  add(0x20, mload(0x40))\n  tag_44\n  swap3\n  swap2\n  swap1\n  tag_45\n  jump\t// in\ntag_44:\n  0x40\n  dup1\n  mload\n  not(0x1f)\n  dup2\n  dup5\n  sub\n  add\n  dup2\n  mstore\n  swap1\n  dup3\n  swap1\n  mstore\n  shl(0xe5, 0x461bcd)\n    /* \"@openzeppelin/contracts/access/AccessControl.sol\":3844:4193  revert(... */\n  dup3\n  mstore\n  tag_46\n  swap2\n  0x04\n  add\n  tag_47\n  jump\t// in\ntag_46:\n  mload(0x40)\n  dup1\n  swap2\n  sub\n  swap1\n  revert\n    /* \"@openzeppelin/contracts/utils/Strings.sol\":1588:2029  function toHexString(uint256 value, uint256 length) internal pure returns (string memory) {... */\ntag_42:\n    /* \"@openzeppelin/contracts/utils/Strings.sol\":1663:1676  string memory */\n  0x60\n    /* \"@openzeppelin/contracts/utils/Strings.sol\":1688:1707  bytes memory buffer */\n  0x00\n    /* \"@openzeppelin/contracts/utils/Strings.sol\":1720:1730  2 * length */\n  tag_49\n    /* \"@openzeppelin/contracts/utils/Strings.sol\":1724:1730  length */\n  dup4\n    /* \"@openzeppelin/contracts/utils/Strings.sol\":1720:1721  2 */\n  0x02\n    /* \"@openzeppelin/contracts/utils/Strings.sol\":1720:1730  2 * length */\n  tag_50\n  jump\t// in\ntag_49:\n    /* \"@openzeppelin/contracts/utils/Strings.sol\":1720:1734  2 * length + 2 */\n  tag_51\n  swap1\n    /* \"@openzeppelin/contracts/utils/Strings.sol\":1733:1734  2 */\n  0x02\n    /* \"@openzeppelin/contracts/utils/Strings.sol\":1720:1734  2 * length + 2 */\n  tag_52\n  jump\t// in\ntag_51:\n  sub(shl(0x40, 0x01), 0x01)\n    /* \"@openzeppelin/contracts/utils/Strings.sol\":1710:1735  new bytes(2 * length + 2) */\n  dup2\n  gt\n  iszero\n  tag_54\n  jumpi\n  tag_54\n  tag_55\n  jump\t// in\ntag_54:\n  mload(0x40)\n  swap1\n  dup1\n  dup3\n  mstore\n  dup1\n  0x1f\n  add\n  not(0x1f)\n  and\n  0x20\n  add\n  dup3\n  add\n  0x40\n  mstore\n  dup1\n  iszero\n  tag_56\n  jumpi\n  0x20\n  dup3\n  add\n  dup2\n  dup1\n  calldatasize\n  dup4\n  calldatacopy\n  add\n  swap1\n  pop\ntag_56:\n  pop\n    /* \"@openzeppelin/contracts/utils/Strings.sol\":1688:1735  bytes memory buffer = new bytes(2 * length + 2) */\n  swap1\n  pop\n  shl(0xfc, 0x03)\n    /* \"@openzeppelin/contracts/utils/Strings.sol\":1745:1751  buffer */\n  dup2\n    /* \"@openzeppelin/contracts/utils/Strings.sol\":1752:1753  0 */\n  0x00\n    /* \"@openzeppelin/contracts/utils/Strings.sol\":1745:1754  buffer[0] */\n  dup2\n  mload\n  dup2\n  lt\n  tag_58\n  jumpi\n  tag_58\n  tag_59\n  jump\t// in\ntag_58:\n  0x20\n  add\n  add\n    /* \"@openzeppelin/contracts/utils/Strings.sol\":1745:1760  buffer[0] = \"0\" */\n  swap1\n  not(sub(shl(0xf8, 0x01), 0x01))\n  and\n  swap1\n  dup2\n  0x00\n  byte\n  swap1\n  mstore8\n  pop\n  shl(0xfb, 0x0f)\n    /* \"@openzeppelin/contracts/utils/Strings.sol\":1770:1776  buffer */\n  dup2\n    /* \"@openzeppelin/contracts/utils/Strings.sol\":1777:1778  1 */\n  0x01\n    /* \"@openzeppelin/contracts/utils/Strings.sol\":1770:1779  buffer[1] */\n  dup2\n  mload\n  dup2\n  lt\n  tag_61\n  jumpi\n  tag_61\n  tag_59\n  jump\t// in\ntag_61:\n  0x20\n  add\n  add\n    /* \"@openzeppelin/contracts/utils/Strings.sol\":1770:1785  buffer[1] = \"x\" */\n  swap1\n  not(sub(shl(0xf8, 0x01), 0x01))\n  and\n  swap1\n  dup2\n  0x00\n  byte\n  swap1\n  mstore8\n  pop\n    /* \"@openzeppelin/contracts/utils/Strings.sol\":1800:1809  uint256 i */\n  0x00\n    /* \"@openzeppelin/contracts/utils/Strings.sol\":1812:1822  2 * length */\n  tag_65\n    /* \"@openzeppelin/contracts/utils/Strings.sol\":1816:1822  length */\n  dup5\n    /* \"@openzeppelin/contracts/utils/Strings.sol\":1812:1813  2 */\n  0x02\n    /* \"@openzeppelin/contracts/utils/Strings.sol\":1812:1822  2 * length */\n  tag_50\n  jump\t// in\ntag_65:\n    /* \"@openzeppelin/contracts/utils/Strings.sol\":1812:1826  2 * length + 1 */\n  tag_66\n  swap1\n    /* \"@openzeppelin/contracts/utils/Strings.sol\":1825:1826  1 */\n  0x01\n    /* \"@openzeppelin/contracts/utils/Strings.sol\":1812:1826  2 * length + 1 */\n  tag_52\n  jump\t// in\ntag_66:\n    /* \"@openzeppelin/contracts/utils/Strings.sol\":1800:1826  uint256 i = 2 * length + 1 */\n  swap1\n  pop\n    /* \"@openzeppelin/contracts/utils/Strings.sol\":1795:1927  for (uint256 i = 2 * length + 1; i > 1; --i) {... */\ntag_62:\n    /* \"@openzeppelin/contracts/utils/Strings.sol\":1832:1833  1 */\n  0x01\n    /* \"@openzeppelin/contracts/utils/Strings.sol\":1828:1829  i */\n  dup2\n    /* \"@openzeppelin/contracts/utils/Strings.sol\":1828:1833  i > 1 */\n  gt\n    /* \"@openzeppelin/contracts/utils/Strings.sol\":1795:1927  for (uint256 i = 2 * length + 1; i > 1; --i) {... */\n  iszero\n  tag_63\n  jumpi\n  shl(0x81, 0x181899199a1a9b1b9c1cb0b131b232b3)\n    /* \"@openzeppelin/contracts/utils/Strings.sol\":1879:1884  value */\n  dup6\n    /* \"@openzeppelin/contracts/utils/Strings.sol\":1887:1890  0xf */\n  0x0f\n    /* \"@openzeppelin/contracts/utils/Strings.sol\":1879:1890  value & 0xf */\n  and\n    /* \"@openzeppelin/contracts/utils/Strings.sol\":1866:1891  _HEX_SYMBOLS[value & 0xf] */\n  0x10\n  dup2\n  lt\n  tag_68\n  jumpi\n  tag_68\n  tag_59\n  jump\t// in\ntag_68:\n  byte\n  0xf8\n  shl\n    /* \"@openzeppelin/contracts/utils/Strings.sol\":1854:1860  buffer */\n  dup3\n    /* \"@openzeppelin/contracts/utils/Strings.sol\":1861:1862  i */\n  dup3\n    /* \"@openzeppelin/contracts/utils/Strings.sol\":1854:1863  buffer[i] */\n  dup2\n  mload\n  dup2\n  lt\n  tag_70\n  jumpi\n  tag_70\n  tag_59\n  jump\t// in\ntag_70:\n  0x20\n  add\n  add\n    /* \"@openzeppelin/contracts/utils/Strings.sol\":1854:1891  buffer[i] = _HEX_SYMBOLS[value & 0xf] */\n  swap1\n  not(sub(shl(0xf8, 0x01), 0x01))\n  and\n  swap1\n  dup2\n  0x00\n  byte\n  swap1\n  mstore8\n  pop\n    /* \"@openzeppelin/contracts/utils/Strings.sol\":1915:1916  4 */\n  0x04\n    /* \"@openzeppelin/contracts/utils/Strings.sol\":1905:1916  value >>= 4 */\n  swap5\n  swap1\n  swap5\n  shr\n  swap4\n    /* \"@openzeppelin/contracts/utils/Strings.sol\":1835:1838  --i */\n  tag_71\n  dup2\n  tag_72\n  jump\t// in\ntag_71:\n  swap1\n  pop\n    /* \"@openzeppelin/contracts/utils/Strings.sol\":1795:1927  for (uint256 i = 2 * length + 1; i > 1; --i) {... */\n  jump(tag_62)\ntag_63:\n  pop\n    /* \"@openzeppelin/contracts/utils/Strings.sol\":1944:1954  value == 0 */\n  dup4\n  iszero\n    /* \"@openzeppelin/contracts/utils/Strings.sol\":1936:1991  require(value == 0, \"Strings: hex length insufficient\") */\n  tag_73\n  jumpi\n  mload(0x40)\n  shl(0xe5, 0x461bcd)\n  dup2\n  mstore\n    /* \"#utility.yul\":3438:3440   */\n  0x20\n    /* \"@openzeppelin/contracts/utils/Strings.sol\":1936:1991  require(value == 0, \"Strings: hex length insufficient\") */\n  0x04\n  dup3\n  add\n    /* \"#utility.yul\":3420:3441   */\n  dup2\n  swap1\n  mstore\n    /* \"#utility.yul\":3457:3475   */\n  0x24\n  dup3\n  add\n    /* \"#utility.yul\":3450:3480   */\n  mstore\n    /* \"#utility.yul\":3516:3550   */\n  0x537472696e67733a20686578206c656e67746820696e73756666696369656e74\n    /* \"#utility.yul\":3496:3514   */\n  0x44\n  dup3\n  add\n    /* \"#utility.yul\":3489:3551   */\n  mstore\n    /* \"#utility.yul\":3568:3586   */\n  0x64\n  add\n    /* \"@openzeppelin/contracts/utils/Strings.sol\":1936:1991  require(value == 0, \"Strings: hex length insufficient\") */\n  tag_46\n    /* \"#utility.yul\":3236:3592   */\n  jump\n    /* \"@openzeppelin/contracts/utils/Strings.sol\":1936:1991  require(value == 0, \"Strings: hex length insufficient\") */\ntag_73:\n    /* \"@openzeppelin/contracts/utils/Strings.sol\":2015:2021  buffer */\n  swap4\n    /* \"@openzeppelin/contracts/utils/Strings.sol\":1588:2029  function toHexString(uint256 value, uint256 length) internal pure returns (string memory) {... */\n  swap3\n  pop\n  pop\n  pop\n  jump\t// out\n    /* \"#utility.yul\":14:384   */\ntag_3:\n    /* \"#utility.yul\":112:118   */\n  0x00\n    /* \"#utility.yul\":120:126   */\n  dup1\n    /* \"#utility.yul\":173:175   */\n  0x40\n    /* \"#utility.yul\":161:170   */\n  dup4\n    /* \"#utility.yul\":152:159   */\n  dup6\n    /* \"#utility.yul\":148:171   */\n  sub\n    /* \"#utility.yul\":144:176   */\n  slt\n    /* \"#utility.yul\":141:193   */\n  iszero\n  tag_80\n  jumpi\n    /* \"#utility.yul\":189:190   */\n  0x00\n    /* \"#utility.yul\":186:187   */\n  dup1\n    /* \"#utility.yul\":179:191   */\n  revert\n    /* \"#utility.yul\":141:193   */\ntag_80:\n    /* \"#utility.yul\":215:231   */\n  dup3\n  mload\n  sub(shl(0xa0, 0x01), 0x01)\n    /* \"#utility.yul\":260:291   */\n  dup2\n  and\n    /* \"#utility.yul\":250:292   */\n  dup2\n  eq\n    /* \"#utility.yul\":240:310   */\n  tag_81\n  jumpi\n    /* \"#utility.yul\":306:307   */\n  0x00\n    /* \"#utility.yul\":303:304   */\n  dup1\n    /* \"#utility.yul\":296:308   */\n  revert\n    /* \"#utility.yul\":240:310   */\ntag_81:\n    /* \"#utility.yul\":374:376   */\n  0x20\n    /* \"#utility.yul\":359:377   */\n  swap4\n  swap1\n  swap4\n  add\n    /* \"#utility.yul\":353:378   */\n  mload\n    /* \"#utility.yul\":329:334   */\n  swap3\n  swap5\n    /* \"#utility.yul\":353:378   */\n  swap3\n  swap4\n  pop\n  pop\n  pop\n    /* \"#utility.yul\":14:384   */\n  jump\t// out\n    /* \"#utility.yul\":951:1209   */\ntag_76:\n    /* \"#utility.yul\":1023:1024   */\n  0x00\n    /* \"#utility.yul\":1033:1146   */\ntag_85:\n    /* \"#utility.yul\":1047:1053   */\n  dup4\n    /* \"#utility.yul\":1044:1045   */\n  dup2\n    /* \"#utility.yul\":1041:1054   */\n  lt\n    /* \"#utility.yul\":1033:1146   */\n  iszero\n  tag_87\n  jumpi\n    /* \"#utility.yul\":1123:1134   */\n  dup2\n  dup2\n  add\n    /* \"#utility.yul\":1117:1135   */\n  mload\n    /* \"#utility.yul\":1104:1115   */\n  dup4\n  dup3\n  add\n    /* \"#utility.yul\":1097:1136   */\n  mstore\n    /* \"#utility.yul\":1069:1071   */\n  0x20\n    /* \"#utility.yul\":1062:1072   */\n  add\n    /* \"#utility.yul\":1033:1146   */\n  jump(tag_85)\ntag_87:\n    /* \"#utility.yul\":1164:1170   */\n  dup4\n    /* \"#utility.yul\":1161:1162   */\n  dup2\n    /* \"#utility.yul\":1158:1171   */\n  gt\n    /* \"#utility.yul\":1155:1203   */\n  iszero\n  tag_88\n  jumpi\n    /* \"#utility.yul\":1199:1200   */\n  0x00\n    /* \"#utility.yul\":1190:1196   */\n  dup5\n    /* \"#utility.yul\":1185:1188   */\n  dup5\n    /* \"#utility.yul\":1181:1197   */\n  add\n    /* \"#utility.yul\":1174:1201   */\n  mstore\n    /* \"#utility.yul\":1155:1203   */\ntag_88:\n  pop\n    /* \"#utility.yul\":951:1209   */\n  pop\n  pop\n  pop\n  jump\t// out\n    /* \"#utility.yul\":1214:2000   */\ntag_45:\n    /* \"#utility.yul\":1625:1650   */\n  0x416363657373436f6e74726f6c3a206163636f756e7420000000000000000000\n    /* \"#utility.yul\":1620:1623   */\n  dup2\n    /* \"#utility.yul\":1613:1651   */\n  mstore\n    /* \"#utility.yul\":1595:1598   */\n  0x00\n    /* \"#utility.yul\":1680:1686   */\n  dup4\n    /* \"#utility.yul\":1674:1687   */\n  mload\n    /* \"#utility.yul\":1696:1758   */\n  tag_90\n    /* \"#utility.yul\":1751:1757   */\n  dup2\n    /* \"#utility.yul\":1746:1748   */\n  0x17\n    /* \"#utility.yul\":1741:1744   */\n  dup6\n    /* \"#utility.yul\":1737:1749   */\n  add\n    /* \"#utility.yul\":1730:1734   */\n  0x20\n    /* \"#utility.yul\":1722:1728   */\n  dup9\n    /* \"#utility.yul\":1718:1735   */\n  add\n    /* \"#utility.yul\":1696:1758   */\n  tag_76\n  jump\t// in\ntag_90:\n  shl(0x7d, 0x01034b99036b4b9b9b4b733903937b6329)\n    /* \"#utility.yul\":1817:1819   */\n  0x17\n    /* \"#utility.yul\":1777:1793   */\n  swap2\n  dup5\n  add\n    /* \"#utility.yul\":1809:1820   */\n  swap2\n  dup3\n  add\n    /* \"#utility.yul\":1802:1842   */\n  mstore\n    /* \"#utility.yul\":1867:1880   */\n  dup4\n  mload\n    /* \"#utility.yul\":1889:1952   */\n  tag_91\n    /* \"#utility.yul\":1867:1880   */\n  dup2\n    /* \"#utility.yul\":1938:1940   */\n  0x28\n    /* \"#utility.yul\":1930:1941   */\n  dup5\n  add\n    /* \"#utility.yul\":1923:1927   */\n  0x20\n    /* \"#utility.yul\":1911:1928   */\n  dup9\n  add\n    /* \"#utility.yul\":1889:1952   */\n  tag_76\n  jump\t// in\ntag_91:\n    /* \"#utility.yul\":1972:1989   */\n  add\n    /* \"#utility.yul\":1991:1993   */\n  0x28\n    /* \"#utility.yul\":1968:1994   */\n  add\n  swap5\n    /* \"#utility.yul\":1214:2000   */\n  swap4\n  pop\n  pop\n  pop\n  pop\n  jump\t// out\n    /* \"#utility.yul\":2005:2388   */\ntag_47:\n    /* \"#utility.yul\":2154:2156   */\n  0x20\n    /* \"#utility.yul\":2143:2152   */\n  dup2\n    /* \"#utility.yul\":2136:2157   */\n  mstore\n    /* \"#utility.yul\":2117:2121   */\n  0x00\n    /* \"#utility.yul\":2186:2192   */\n  dup3\n    /* \"#utility.yul\":2180:2193   */\n  mload\n    /* \"#utility.yul\":2229:2235   */\n  dup1\n    /* \"#utility.yul\":2224:2226   */\n  0x20\n    /* \"#utility.yul\":2213:2222   */\n  dup5\n    /* \"#utility.yul\":2209:2227   */\n  add\n    /* \"#utility.yul\":2202:2236   */\n  mstore\n    /* \"#utility.yul\":2245:2311   */\n  tag_93\n    /* \"#utility.yul\":2304:2310   */\n  dup2\n    /* \"#utility.yul\":2299:2301   */\n  0x40\n    /* \"#utility.yul\":2288:2297   */\n  dup6\n    /* \"#utility.yul\":2284:2302   */\n  add\n    /* \"#utility.yul\":2279:2281   */\n  0x20\n    /* \"#utility.yul\":2271:2277   */\n  dup8\n    /* \"#utility.yul\":2267:2282   */\n  add\n    /* \"#utility.yul\":2245:2311   */\n  tag_76\n  jump\t// in\ntag_93:\n    /* \"#utility.yul\":2372:2374   */\n  0x1f\n    /* \"#utility.yul\":2351:2366   */\n  add\n  not(0x1f)\n    /* \"#utility.yul\":2347:2376   */\n  and\n    /* \"#utility.yul\":2332:2377   */\n  swap2\n  swap1\n  swap2\n  add\n    /* \"#utility.yul\":2379:2381   */\n  0x40\n    /* \"#utility.yul\":2328:2382   */\n  add\n  swap3\n    /* \"#utility.yul\":2005:2388   */\n  swap2\n  pop\n  pop\n  jump\t// out\n    /* \"#utility.yul\":2393:2520   */\ntag_77:\n    /* \"#utility.yul\":2454:2464   */\n  0x4e487b71\n    /* \"#utility.yul\":2449:2452   */\n  0xe0\n    /* \"#utility.yul\":2445:2465   */\n  shl\n    /* \"#utility.yul\":2442:2443   */\n  0x00\n    /* \"#utility.yul\":2435:2466   */\n  mstore\n    /* \"#utility.yul\":2485:2489   */\n  0x11\n    /* \"#utility.yul\":2482:2483   */\n  0x04\n    /* \"#utility.yul\":2475:2490   */\n  mstore\n    /* \"#utility.yul\":2509:2513   */\n  0x24\n    /* \"#utility.yul\":2506:2507   */\n  0x00\n    /* \"#utility.yul\":2499:2514   */\n  revert\n    /* \"#utility.yul\":2525:2693   */\ntag_50:\n    /* \"#utility.yul\":2565:2572   */\n  0x00\n    /* \"#utility.yul\":2631:2632   */\n  dup2\n    /* \"#utility.yul\":2627:2628   */\n  0x00\n    /* \"#utility.yul\":2623:2629   */\n  not\n    /* \"#utility.yul\":2619:2633   */\n  div\n    /* \"#utility.yul\":2616:2617   */\n  dup4\n    /* \"#utility.yul\":2613:2634   */\n  gt\n    /* \"#utility.yul\":2608:2609   */\n  dup3\n    /* \"#utility.yul\":2601:2610   */\n  iszero\n    /* \"#utility.yul\":2594:2611   */\n  iszero\n    /* \"#utility.yul\":2590:2635   */\n  and\n    /* \"#utility.yul\":2587:2658   */\n  iszero\n  tag_97\n  jumpi\n    /* \"#utility.yul\":2638:2656   */\n  tag_97\n  tag_77\n  jump\t// in\ntag_97:\n  pop\n    /* \"#utility.yul\":2678:2687   */\n  mul\n  swap1\n    /* \"#utility.yul\":2525:2693   */\n  jump\t// out\n    /* \"#utility.yul\":2698:2826   */\ntag_52:\n    /* \"#utility.yul\":2738:2741   */\n  0x00\n    /* \"#utility.yul\":2769:2770   */\n  dup3\n    /* \"#utility.yul\":2765:2771   */\n  not\n    /* \"#utility.yul\":2762:2763   */\n  dup3\n    /* \"#utility.yul\":2759:2772   */\n  gt\n    /* \"#utility.yul\":2756:2795   */\n  iszero\n  tag_100\n  jumpi\n    /* \"#utility.yul\":2775:2793   */\n  tag_100\n  tag_77\n  jump\t// in\ntag_100:\n  pop\n    /* \"#utility.yul\":2811:2820   */\n  add\n  swap1\n    /* \"#utility.yul\":2698:2826   */\n  jump\t// out\n    /* \"#utility.yul\":2831:2958   */\ntag_55:\n    /* \"#utility.yul\":2892:2902   */\n  0x4e487b71\n    /* \"#utility.yul\":2887:2890   */\n  0xe0\n    /* \"#utility.yul\":2883:2903   */\n  shl\n    /* \"#utility.yul\":2880:2881   */\n  0x00\n    /* \"#utility.yul\":2873:2904   */\n  mstore\n    /* \"#utility.yul\":2923:2927   */\n  0x41\n    /* \"#utility.yul\":2920:2921   */\n  0x04\n    /* \"#utility.yul\":2913:2928   */\n  mstore\n    /* \"#utility.yul\":2947:2951   */\n  0x24\n    /* \"#utility.yul\":2944:2945   */\n  0x00\n    /* \"#utility.yul\":2937:2952   */\n  revert\n    /* \"#utility.yul\":2963:3090   */\ntag_59:\n    /* \"#utility.yul\":3024:3034   */\n  0x4e487b71\n    /* \"#utility.yul\":3019:3022   */\n  0xe0\n    /* \"#utility.yul\":3015:3035   */\n  shl\n    /* \"#utility.yul\":3012:3013   */\n  0x00\n    /* \"#utility.yul\":3005:3036   */\n  mstore\n    /* \"#utility.yul\":3055:3059   */\n  0x32\n    /* \"#utility.yul\":3052:3053   */\n  0x04\n    /* \"#utility.yul\":3045:3060   */\n  mstore\n    /* \"#utility.yul\":3079:3083   */\n  0x24\n    /* \"#utility.yul\":3076:3077   */\n  0x00\n    /* \"#utility.yul\":3069:3084   */\n  revert\n    /* \"#utility.yul\":3095:3231   */\ntag_72:\n    /* \"#utility.yul\":3134:3137   */\n  0x00\n    /* \"#utility.yul\":3162:3167   */\n  dup2\n    /* \"#utility.yul\":3152:3191   */\n  tag_105\n  jumpi\n    /* \"#utility.yul\":3171:3189   */\n  tag_105\n  tag_77\n  jump\t// in\ntag_105:\n  pop\n  not(0x00)\n    /* \"#utility.yul\":3207:3225   */\n  add\n  swap1\n    /* \"#utility.yul\":3095:3231   */\n  jump\t// out\n    /* \"#utility.yul\":3236:3592   */\ntag_78:\n    /* \"MintNagaKid.sol\":276:4917  contract MintNagaKid is Whitelist, VerifySignature, AccessControl, ReentrancyGuard {... */\n  dataSize(sub_0)\n  dup1\n  dataOffset(sub_0)\n  0x00\n  codecopy\n  0x00\n  return\nstop\n\nsub_0: assembly {\n        /* \"MintNagaKid.sol\":276:4917  contract MintNagaKid is Whitelist, VerifySignature, AccessControl, ReentrancyGuard {... */\n      mstore(0x40, 0x80)\n      jumpi(tag_1, lt(calldatasize, 0x04))\n      shr(0xe0, calldataload(0x00))\n      dup1\n      0x7cb64759\n      gt\n      tag_32\n      jumpi\n      dup1\n      0xa7bb5803\n      gt\n      tag_33\n      jumpi\n      dup1\n      0xf055c7a9\n      gt\n      tag_34\n      jumpi\n      dup1\n      0xf055c7a9\n      eq\n      tag_28\n      jumpi\n      dup1\n      0xfa540801\n      eq\n      tag_29\n      jumpi\n      dup1\n      0xfade63c9\n      eq\n      tag_30\n      jumpi\n      dup1\n      0xff0938a7\n      eq\n      tag_31\n      jumpi\n      0x00\n      dup1\n      revert\n    tag_34:\n      dup1\n      0xa7bb5803\n      eq\n      tag_24\n      jumpi\n      dup1\n      0xc4e41b22\n      eq\n      tag_25\n      jumpi\n      dup1\n      0xd547741f\n      eq\n      tag_26\n      jumpi\n      dup1\n      0xde6892c8\n      eq\n      tag_27\n      jumpi\n      0x00\n      dup1\n      revert\n    tag_33:\n      dup1\n      0x97aba7f9\n      gt\n      tag_35\n      jumpi\n      dup1\n      0x97aba7f9\n      eq\n      tag_20\n      jumpi\n      dup1\n      0x9e6c8855\n      eq\n      tag_21\n      jumpi\n      dup1\n      0xa217fddf\n      eq\n      tag_22\n      jumpi\n      dup1\n      0xa4435dfd\n      eq\n      tag_23\n      jumpi\n      0x00\n      dup1\n      revert\n    tag_35:\n      dup1\n      0x7cb64759\n      eq\n      tag_17\n      jumpi\n      dup1\n      0x8b7b80b7\n      eq\n      tag_18\n      jumpi\n      dup1\n      0x91d14854\n      eq\n      tag_19\n      jumpi\n      0x00\n      dup1\n      revert\n    tag_32:\n      dup1\n      0x2eb4a7ab\n      gt\n      tag_36\n      jumpi\n      dup1\n      0x4c0f38c2\n      gt\n      tag_37\n      jumpi\n      dup1\n      0x4c0f38c2\n      eq\n      tag_13\n      jumpi\n      dup1\n      0x5997bbee\n      eq\n      tag_14\n      jumpi\n      dup1\n      0x6387f804\n      eq\n      tag_15\n      jumpi\n      dup1\n      0x6c19e783\n      eq\n      tag_16\n      jumpi\n      0x00\n      dup1\n      revert\n    tag_37:\n      dup1\n      0x2eb4a7ab\n      eq\n      tag_9\n      jumpi\n      dup1\n      0x2f2ff15d\n      eq\n      tag_10\n      jumpi\n      dup1\n      0x36568abe\n      eq\n      tag_11\n      jumpi\n      dup1\n      0x42920a46\n      eq\n      tag_12\n      jumpi\n      0x00\n      dup1\n      revert\n    tag_36:\n      dup1\n      0x1f5ac1b2\n      gt\n      tag_38\n      jumpi\n      dup1\n      0x1f5ac1b2\n      eq\n      tag_5\n      jumpi\n      dup1\n      0x238ac933\n      eq\n      tag_6\n      jumpi\n      dup1\n      0x248a9ca3\n      eq\n      tag_7\n      jumpi\n      dup1\n      0x2904e6d9\n      eq\n      tag_8\n      jumpi\n      0x00\n      dup1\n      revert\n    tag_38:\n      dup1\n      0x01ffc9a7\n      eq\n      tag_2\n      jumpi\n      dup1\n      0x18f52c48\n      eq\n      tag_3\n      jumpi\n      dup1\n      0x1b0d2d3b\n      eq\n      tag_4\n      jumpi\n    tag_1:\n      0x00\n      dup1\n      revert\n        /* \"@openzeppelin/contracts/access/AccessControl.sol\":2606:2808  function supportsInterface(bytes4 interfaceId) public view virtual override returns (bool) {... */\n    tag_2:\n      callvalue\n      dup1\n      iszero\n      tag_39\n      jumpi\n      0x00\n      dup1\n      revert\n    tag_39:\n      pop\n      tag_40\n      tag_41\n      calldatasize\n      0x04\n      tag_42\n      jump\t// in\n    tag_41:\n      tag_43\n      jump\t// in\n    tag_40:\n      mload(0x40)\n        /* \"#utility.yul\":470:484   */\n      swap1\n      iszero\n        /* \"#utility.yul\":463:485   */\n      iszero\n        /* \"#utility.yul\":445:486   */\n      dup2\n      mstore\n        /* \"#utility.yul\":433:435   */\n      0x20\n        /* \"#utility.yul\":418:436   */\n      add\n        /* \"@openzeppelin/contracts/access/AccessControl.sol\":2606:2808  function supportsInterface(bytes4 interfaceId) public view virtual override returns (bool) {... */\n    tag_44:\n      mload(0x40)\n      dup1\n      swap2\n      sub\n      swap1\n      return\n        /* \"MintNagaKid.sol\":444:475  bool public isWhitelistMintOpen */\n    tag_3:\n      callvalue\n      dup1\n      iszero\n      tag_46\n      jumpi\n      0x00\n      dup1\n      revert\n    tag_46:\n      pop\n      sload(0x03)\n      tag_40\n      swap1\n      shl(0xa8, 0x01)\n      swap1\n      div\n      0xff\n      and\n      dup2\n      jump\n        /* \"MintNagaKid.sol\":4321:4455  function isWhitelistMintedAmount(address _user) public view returns(uint256) {... */\n    tag_4:\n      callvalue\n      dup1\n      iszero\n      tag_50\n      jumpi\n      0x00\n      dup1\n      revert\n    tag_50:\n      pop\n      tag_51\n      tag_52\n      calldatasize\n      0x04\n      tag_53\n      jump\t// in\n    tag_52:\n      sub(shl(0xa0, 0x01), 0x01)\n        /* \"MintNagaKid.sol\":4416:4447  _isWhitelistMintedAmount[_user] */\n      and\n        /* \"MintNagaKid.sol\":4389:4396  uint256 */\n      0x00\n        /* \"MintNagaKid.sol\":4416:4447  _isWhitelistMintedAmount[_user] */\n      swap1\n      dup2\n      mstore\n        /* \"MintNagaKid.sol\":4416:4440  _isWhitelistMintedAmount */\n      0x06\n        /* \"MintNagaKid.sol\":4416:4447  _isWhitelistMintedAmount[_user] */\n      0x20\n      mstore\n      0x40\n      swap1\n      keccak256\n      sload\n      swap1\n        /* \"MintNagaKid.sol\":4321:4455  function isWhitelistMintedAmount(address _user) public view returns(uint256) {... */\n      jump\n    tag_51:\n      mload(0x40)\n        /* \"#utility.yul\":1031:1056   */\n      swap1\n      dup2\n      mstore\n        /* \"#utility.yul\":1019:1021   */\n      0x20\n        /* \"#utility.yul\":1004:1022   */\n      add\n        /* \"MintNagaKid.sol\":4321:4455  function isWhitelistMintedAmount(address _user) public view returns(uint256) {... */\n      tag_44\n        /* \"#utility.yul\":885:1062   */\n      jump\n        /* \"VerifySignature.sol\":99:259  function getMessageHash(... */\n    tag_5:\n      callvalue\n      dup1\n      iszero\n      tag_57\n      jumpi\n      0x00\n      dup1\n      revert\n    tag_57:\n      pop\n      tag_51\n      tag_59\n      calldatasize\n      0x04\n      tag_53\n      jump\t// in\n    tag_59:\n      tag_60\n      jump\t// in\n        /* \"MintNagaKid.sol\":484:505  address public signer */\n    tag_6:\n      callvalue\n      dup1\n      iszero\n      tag_63\n      jumpi\n      0x00\n      dup1\n      revert\n    tag_63:\n      pop\n      sload(0x04)\n      tag_64\n      swap1\n      sub(shl(0xa0, 0x01), 0x01)\n      and\n      dup2\n      jump\n    tag_64:\n      mload(0x40)\n      sub(shl(0xa0, 0x01), 0x01)\n        /* \"#utility.yul\":1413:1445   */\n      swap1\n      swap2\n      and\n        /* \"#utility.yul\":1395:1446   */\n      dup2\n      mstore\n        /* \"#utility.yul\":1383:1385   */\n      0x20\n        /* \"#utility.yul\":1368:1386   */\n      add\n        /* \"MintNagaKid.sol\":484:505  address public signer */\n      tag_44\n        /* \"#utility.yul\":1249:1452   */\n      jump\n        /* \"@openzeppelin/contracts/access/AccessControl.sol\":4391:4520  function getRoleAdmin(bytes32 role) public view virtual override returns (bytes32) {... */\n    tag_7:\n      callvalue\n      dup1\n      iszero\n      tag_68\n      jumpi\n      0x00\n      dup1\n      revert\n    tag_68:\n      pop\n      tag_51\n      tag_70\n      calldatasize\n      0x04\n      tag_71\n      jump\t// in\n    tag_70:\n        /* \"@openzeppelin/contracts/access/AccessControl.sol\":4465:4472  bytes32 */\n      0x00\n        /* \"@openzeppelin/contracts/access/AccessControl.sol\":4491:4503  _roles[role] */\n      swap1\n      dup2\n      mstore\n        /* \"@openzeppelin/contracts/access/AccessControl.sol\":4491:4497  _roles */\n      0x01\n        /* \"@openzeppelin/contracts/access/AccessControl.sol\":4491:4503  _roles[role] */\n      0x20\n      dup2\n      swap1\n      mstore\n      0x40\n      swap1\n      swap2\n      keccak256\n        /* \"@openzeppelin/contracts/access/AccessControl.sol\":4491:4513  _roles[role].adminRole */\n      add\n      sload\n      swap1\n        /* \"@openzeppelin/contracts/access/AccessControl.sol\":4391:4520  function getRoleAdmin(bytes32 role) public view virtual override returns (bytes32) {... */\n      jump\n        /* \"MintNagaKid.sol\":2528:3403  function whitelistMint(bytes32[] calldata _proofMerkle,uint256 _amount) public payable nonReentrant Paused {... */\n    tag_8:\n      tag_74\n      tag_75\n      calldatasize\n      0x04\n      tag_76\n      jump\t// in\n    tag_75:\n      tag_77\n      jump\t// in\n    tag_74:\n      stop\n        /* \"Whitelist.sol\":161:186  bytes32 public merkleRoot */\n    tag_9:\n      callvalue\n      dup1\n      iszero\n      tag_78\n      jumpi\n      0x00\n      dup1\n      revert\n    tag_78:\n      pop\n      tag_51\n      sload(0x00)\n      dup2\n      jump\n        /* \"@openzeppelin/contracts/access/AccessControl.sol\":4770:4915  function grantRole(bytes32 role, address account) public virtual override onlyRole(getRoleAdmin(role)) {... */\n    tag_10:\n      callvalue\n      dup1\n      iszero\n      tag_82\n      jumpi\n      0x00\n      dup1\n      revert\n    tag_82:\n      pop\n      tag_74\n      tag_84\n      calldatasize\n      0x04\n      tag_85\n      jump\t// in\n    tag_84:\n      tag_86\n      jump\t// in\n        /* \"@openzeppelin/contracts/access/AccessControl.sol\":5787:6001  function renounceRole(bytes32 role, address account) public virtual override {... */\n    tag_11:\n      callvalue\n      dup1\n      iszero\n      tag_87\n      jumpi\n      0x00\n      dup1\n      revert\n    tag_87:\n      pop\n      tag_74\n      tag_89\n      calldatasize\n      0x04\n      tag_85\n      jump\t// in\n    tag_89:\n      tag_90\n      jump\t// in\n        /* \"VerifySignature.sol\":769:1119  function verify(... */\n    tag_12:\n      callvalue\n      dup1\n      iszero\n      tag_91\n      jumpi\n      0x00\n      dup1\n      revert\n    tag_91:\n      pop\n      tag_40\n      tag_93\n      calldatasize\n      0x04\n      tag_94\n      jump\t// in\n    tag_93:\n      tag_95\n      jump\t// in\n        /* \"MintNagaKid.sol\":4703:4810  function getMaxSupply() public view returns (uint256) {... */\n    tag_13:\n      callvalue\n      dup1\n      iszero\n      tag_97\n      jumpi\n      0x00\n      dup1\n      revert\n    tag_97:\n      pop\n      tag_51\n      tag_99\n      jump\t// in\n        /* \"MintNagaKid.sol\":4194:4313  function isWhitelistMinted(address _user) public view returns(bool) {... */\n    tag_14:\n      callvalue\n      dup1\n      iszero\n      tag_101\n      jumpi\n      0x00\n      dup1\n      revert\n    tag_101:\n      pop\n      tag_40\n      tag_103\n      calldatasize\n      0x04\n      tag_53\n      jump\t// in\n    tag_103:\n      sub(shl(0xa0, 0x01), 0x01)\n        /* \"MintNagaKid.sol\":4280:4305  _isWhitelistMinted[_user] */\n      and\n        /* \"MintNagaKid.sol\":4256:4260  bool */\n      0x00\n        /* \"MintNagaKid.sol\":4280:4305  _isWhitelistMinted[_user] */\n      swap1\n      dup2\n      mstore\n        /* \"MintNagaKid.sol\":4280:4298  _isWhitelistMinted */\n      0x05\n        /* \"MintNagaKid.sol\":4280:4305  _isWhitelistMinted[_user] */\n      0x20\n      mstore\n      0x40\n      swap1\n      keccak256\n      sload\n      0xff\n      and\n      swap1\n        /* \"MintNagaKid.sol\":4194:4313  function isWhitelistMinted(address _user) public view returns(bool) {... */\n      jump\n        /* \"MintNagaKid.sol\":2106:2272  function setPublicMintOpen(bool _isOpen) public onlyRole(DEFAULT_ADMIN_ROLE) {... */\n    tag_15:\n      callvalue\n      dup1\n      iszero\n      tag_106\n      jumpi\n      0x00\n      dup1\n      revert\n    tag_106:\n      pop\n      tag_74\n      tag_108\n      calldatasize\n      0x04\n      tag_109\n      jump\t// in\n    tag_108:\n      tag_110\n      jump\t// in\n        /* \"MintNagaKid.sol\":1718:1914  function setSigner(address _signer) public onlyRole(DEFAULT_ADMIN_ROLE) {... */\n    tag_16:\n      callvalue\n      dup1\n      iszero\n      tag_111\n      jumpi\n      0x00\n      dup1\n      revert\n    tag_111:\n      pop\n      tag_74\n      tag_113\n      calldatasize\n      0x04\n      tag_53\n      jump\t// in\n    tag_113:\n      tag_114\n      jump\t// in\n        /* \"MintNagaKid.sol\":2284:2518  function setMerkleRoot(bytes32 _merkleRoot) public onlyRole(DEFAULT_ADMIN_ROLE) {... */\n    tag_17:\n      callvalue\n      dup1\n      iszero\n      tag_115\n      jumpi\n      0x00\n      dup1\n      revert\n    tag_115:\n      pop\n      tag_74\n      tag_117\n      calldatasize\n      0x04\n      tag_71\n      jump\t// in\n    tag_117:\n      tag_118\n      jump\t// in\n        /* \"MintNagaKid.sol\":368:402  INagaKidNFT public NagaKidContract */\n    tag_18:\n      callvalue\n      dup1\n      iszero\n      tag_119\n      jumpi\n      0x00\n      dup1\n      revert\n    tag_119:\n      pop\n      sload(0x03)\n      tag_64\n      swap1\n      sub(shl(0xa0, 0x01), 0x01)\n      and\n      dup2\n      jump\n        /* \"@openzeppelin/contracts/access/AccessControl.sol\":2895:3040  function hasRole(bytes32 role, address account) public view virtual override returns (bool) {... */\n    tag_19:\n      callvalue\n      dup1\n      iszero\n      tag_124\n      jumpi\n      0x00\n      dup1\n      revert\n    tag_124:\n      pop\n      tag_40\n      tag_126\n      calldatasize\n      0x04\n      tag_85\n      jump\t// in\n    tag_126:\n      tag_127\n      jump\t// in\n        /* \"VerifySignature.sol\":1127:1401  function recoverSigner(... */\n    tag_20:\n      callvalue\n      dup1\n      iszero\n      tag_129\n      jumpi\n      0x00\n      dup1\n      revert\n    tag_129:\n      pop\n      tag_64\n      tag_131\n      calldatasize\n      0x04\n      tag_132\n      jump\t// in\n    tag_131:\n      tag_133\n      jump\t// in\n        /* \"MintNagaKid.sol\":1437:1706  function setNagaKidContract(INagaKidNFT _NagaKid) public onlyRole(DEFAULT_ADMIN_ROLE) {... */\n    tag_21:\n      callvalue\n      dup1\n      iszero\n      tag_135\n      jumpi\n      0x00\n      dup1\n      revert\n    tag_135:\n      pop\n      tag_74\n      tag_137\n      calldatasize\n      0x04\n      tag_53\n      jump\t// in\n    tag_137:\n      tag_139\n      jump\t// in\n        /* \"@openzeppelin/contracts/access/AccessControl.sol\":2027:2076  bytes32 public constant DEFAULT_ADMIN_ROLE = 0x00 */\n    tag_22:\n      callvalue\n      dup1\n      iszero\n      tag_140\n      jumpi\n      0x00\n      dup1\n      revert\n    tag_140:\n      pop\n      tag_51\n        /* \"@openzeppelin/contracts/access/AccessControl.sol\":2072:2076  0x00 */\n      0x00\n        /* \"@openzeppelin/contracts/access/AccessControl.sol\":2027:2076  bytes32 public constant DEFAULT_ADMIN_ROLE = 0x00 */\n      dup2\n      jump\n        /* \"MintNagaKid.sol\":409:437  bool public isPublicMintOpen */\n    tag_23:\n      callvalue\n      dup1\n      iszero\n      tag_144\n      jumpi\n      0x00\n      dup1\n      revert\n    tag_144:\n      pop\n      sload(0x03)\n      tag_40\n      swap1\n      shl(0xa0, 0x01)\n      swap1\n      div\n      0xff\n      and\n      dup2\n      jump\n        /* \"VerifySignature.sol\":1409:2300  function splitSignature(bytes memory sig)... */\n    tag_24:\n      callvalue\n      dup1\n      iszero\n      tag_148\n      jumpi\n      0x00\n      dup1\n      revert\n    tag_148:\n      pop\n      tag_149\n      tag_150\n      calldatasize\n      0x04\n      tag_151\n      jump\t// in\n    tag_150:\n      tag_152\n      jump\t// in\n    tag_149:\n      0x40\n      dup1\n      mload\n        /* \"#utility.yul\":5895:5920   */\n      swap4\n      dup5\n      mstore\n        /* \"#utility.yul\":5951:5953   */\n      0x20\n        /* \"#utility.yul\":5936:5954   */\n      dup5\n      add\n        /* \"#utility.yul\":5929:5963   */\n      swap3\n      swap1\n      swap3\n      mstore\n        /* \"#utility.yul\":6011:6015   */\n      0xff\n        /* \"#utility.yul\":5999:6016   */\n      and\n        /* \"#utility.yul\":5979:5997   */\n      swap1\n      dup3\n      add\n        /* \"#utility.yul\":5972:6017   */\n      mstore\n        /* \"#utility.yul\":5883:5885   */\n      0x60\n        /* \"#utility.yul\":5868:5886   */\n      add\n        /* \"VerifySignature.sol\":1409:2300  function splitSignature(bytes memory sig)... */\n      tag_44\n        /* \"#utility.yul\":5697:6023   */\n      jump\n        /* \"MintNagaKid.sol\":4584:4695  function getTotalSupply() public view returns (uint256) {... */\n    tag_25:\n      callvalue\n      dup1\n      iszero\n      tag_155\n      jumpi\n      0x00\n      dup1\n      revert\n    tag_155:\n      pop\n      tag_51\n      tag_157\n      jump\t// in\n        /* \"@openzeppelin/contracts/access/AccessControl.sol\":5149:5296  function revokeRole(bytes32 role, address account) public virtual override onlyRole(getRoleAdmin(role)) {... */\n    tag_26:\n      callvalue\n      dup1\n      iszero\n      tag_159\n      jumpi\n      0x00\n      dup1\n      revert\n    tag_159:\n      pop\n      tag_74\n      tag_161\n      calldatasize\n      0x04\n      tag_85\n      jump\t// in\n    tag_161:\n      tag_162\n      jump\t// in\n        /* \"MintNagaKid.sol\":3411:4186  function publicMint(bytes calldata _sig) public payable nonReentrant Paused {... */\n    tag_27:\n      tag_74\n      tag_164\n      calldatasize\n      0x04\n      tag_165\n      jump\t// in\n    tag_164:\n      tag_166\n      jump\t// in\n        /* \"MintNagaKid.sol\":4463:4576  function isPublicMinted(address _user) public view returns(bool) {... */\n    tag_28:\n      callvalue\n      dup1\n      iszero\n      tag_167\n      jumpi\n      0x00\n      dup1\n      revert\n    tag_167:\n      pop\n      tag_40\n      tag_169\n      calldatasize\n      0x04\n      tag_53\n      jump\t// in\n    tag_169:\n      sub(shl(0xa0, 0x01), 0x01)\n        /* \"MintNagaKid.sol\":4546:4568  _isPublicMinted[_user] */\n      and\n        /* \"MintNagaKid.sol\":4522:4526  bool */\n      0x00\n        /* \"MintNagaKid.sol\":4546:4568  _isPublicMinted[_user] */\n      swap1\n      dup2\n      mstore\n        /* \"MintNagaKid.sol\":4546:4561  _isPublicMinted */\n      0x07\n        /* \"MintNagaKid.sol\":4546:4568  _isPublicMinted[_user] */\n      0x20\n      mstore\n      0x40\n      swap1\n      keccak256\n      sload\n      0xff\n      and\n      swap1\n        /* \"MintNagaKid.sol\":4463:4576  function isPublicMinted(address _user) public view returns(bool) {... */\n      jump\n        /* \"VerifySignature.sol\":267:761  function getEthSignedMessageHash(bytes32 _messageHash)... */\n    tag_29:\n      callvalue\n      dup1\n      iszero\n      tag_172\n      jumpi\n      0x00\n      dup1\n      revert\n    tag_172:\n      pop\n      tag_51\n      tag_174\n      calldatasize\n      0x04\n      tag_71\n      jump\t// in\n    tag_174:\n      tag_175\n      jump\t// in\n        /* \"MintNagaKid.sol\":1923:2098  function setWhitelistMintOpen(bool _isOpen) public onlyRole(DEFAULT_ADMIN_ROLE) {... */\n    tag_30:\n      callvalue\n      dup1\n      iszero\n      tag_177\n      jumpi\n      0x00\n      dup1\n      revert\n    tag_177:\n      pop\n      tag_74\n      tag_179\n      calldatasize\n      0x04\n      tag_109\n      jump\t// in\n    tag_179:\n      tag_180\n      jump\t// in\n        /* \"MintNagaKid.sol\":4818:4914  function isPause() public view returns (bool) {... */\n    tag_31:\n      callvalue\n      dup1\n      iszero\n      tag_181\n      jumpi\n      0x00\n      dup1\n      revert\n    tag_181:\n      pop\n      tag_40\n      tag_183\n      jump\t// in\n        /* \"@openzeppelin/contracts/access/AccessControl.sol\":2606:2808  function supportsInterface(bytes4 interfaceId) public view virtual override returns (bool) {... */\n    tag_43:\n        /* \"@openzeppelin/contracts/access/AccessControl.sol\":2691:2695  bool */\n      0x00\n      not(sub(shl(0xe0, 0x01), 0x01))\n        /* \"@openzeppelin/contracts/access/AccessControl.sol\":2714:2761  interfaceId == type(IAccessControl).interfaceId */\n      dup3\n      and\n      shl(0xe0, 0x7965db0b)\n      eq\n      dup1\n        /* \"@openzeppelin/contracts/access/AccessControl.sol\":2714:2801  interfaceId == type(IAccessControl).interfaceId || super.supportsInterface(interfaceId) */\n      tag_188\n      jumpi\n      pop\n      shl(0xe0, 0x01ffc9a7)\n      not(sub(shl(0xe0, 0x01), 0x01))\n        /* \"@openzeppelin/contracts/utils/introspection/ERC165.sol\":937:977  interfaceId == type(IERC165).interfaceId */\n      dup4\n      and\n      eq\n        /* \"@openzeppelin/contracts/access/AccessControl.sol\":2765:2801  super.supportsInterface(interfaceId) */\n    tag_188:\n        /* \"@openzeppelin/contracts/access/AccessControl.sol\":2707:2801  return interfaceId == type(IAccessControl).interfaceId || super.supportsInterface(interfaceId) */\n      swap3\n        /* \"@openzeppelin/contracts/access/AccessControl.sol\":2606:2808  function supportsInterface(bytes4 interfaceId) public view virtual override returns (bool) {... */\n      swap2\n      pop\n      pop\n      jump\t// out\n        /* \"VerifySignature.sol\":99:259  function getMessageHash(... */\n    tag_60:\n        /* \"VerifySignature.sol\":212:250  abi.encodePacked(_user, address(this)) */\n      mload(0x40)\n      not(0xffffffffffffffffffffffff)\n        /* \"#utility.yul\":6851:6853   */\n      0x60\n        /* \"#utility.yul\":6847:6862   */\n      dup4\n      dup2\n      shl\n        /* \"#utility.yul\":6843:6867   */\n      dup3\n      and\n        /* \"VerifySignature.sol\":212:250  abi.encodePacked(_user, address(this)) */\n      0x20\n      dup5\n      add\n        /* \"#utility.yul\":6831:6868   */\n      mstore\n        /* \"VerifySignature.sol\":244:248  this */\n      address\n        /* \"#utility.yul\":6902:6917   */\n      swap1\n      shl\n        /* \"#utility.yul\":6898:6922   */\n      and\n        /* \"#utility.yul\":6884:6896   */\n      0x34\n      dup3\n      add\n        /* \"#utility.yul\":6877:6923   */\n      mstore\n        /* \"VerifySignature.sol\":175:182  bytes32 */\n      0x00\n      swap1\n        /* \"#utility.yul\":6939:6951   */\n      0x48\n      add\n        /* \"VerifySignature.sol\":212:250  abi.encodePacked(_user, address(this)) */\n    tag_192:\n      mload(0x40)\n      0x20\n      dup2\n      dup4\n      sub\n      sub\n      dup2\n      mstore\n      swap1\n      0x40\n      mstore\n        /* \"VerifySignature.sol\":202:251  keccak256(abi.encodePacked(_user, address(this))) */\n      dup1\n      mload\n      swap1\n      0x20\n      add\n      keccak256\n        /* \"VerifySignature.sol\":195:251  return keccak256(abi.encodePacked(_user, address(this))) */\n      swap1\n      pop\n        /* \"VerifySignature.sol\":99:259  function getMessageHash(... */\n      swap2\n      swap1\n      pop\n      jump\t// out\n        /* \"MintNagaKid.sol\":2528:3403  function whitelistMint(bytes32[] calldata _proofMerkle,uint256 _amount) public payable nonReentrant Paused {... */\n    tag_77:\n        /* \"@openzeppelin/contracts/security/ReentrancyGuard.sol\":1744:1745  2 */\n      0x02\n        /* \"@openzeppelin/contracts/security/ReentrancyGuard.sol\":2325:2332  _status */\n      dup1\n      sload\n        /* \"@openzeppelin/contracts/security/ReentrancyGuard.sol\":2325:2344  _status != _ENTERED */\n      sub\n        /* \"@openzeppelin/contracts/security/ReentrancyGuard.sol\":2317:2380  require(_status != _ENTERED, \"ReentrancyGuard: reentrant call\") */\n      tag_196\n      jumpi\n      mload(0x40)\n      shl(0xe5, 0x461bcd)\n      dup2\n      mstore\n        /* \"#utility.yul\":7164:7166   */\n      0x20\n        /* \"@openzeppelin/contracts/security/ReentrancyGuard.sol\":2317:2380  require(_status != _ENTERED, \"ReentrancyGuard: reentrant call\") */\n      0x04\n      dup3\n      add\n        /* \"#utility.yul\":7146:7167   */\n      mstore\n        /* \"#utility.yul\":7203:7205   */\n      0x1f\n        /* \"#utility.yul\":7183:7201   */\n      0x24\n      dup3\n      add\n        /* \"#utility.yul\":7176:7206   */\n      mstore\n        /* \"#utility.yul\":7242:7275   */\n      0x5265656e7472616e637947756172643a207265656e7472616e742063616c6c00\n        /* \"#utility.yul\":7222:7240   */\n      0x44\n      dup3\n      add\n        /* \"#utility.yul\":7215:7276   */\n      mstore\n        /* \"#utility.yul\":7293:7311   */\n      0x64\n      add\n        /* \"@openzeppelin/contracts/security/ReentrancyGuard.sol\":2317:2380  require(_status != _ENTERED, \"ReentrancyGuard: reentrant call\") */\n    tag_197:\n      mload(0x40)\n      dup1\n      swap2\n      sub\n      swap1\n      revert\n    tag_196:\n        /* \"@openzeppelin/contracts/security/ReentrancyGuard.sol\":1744:1745  2 */\n      0x02\n        /* \"@openzeppelin/contracts/security/ReentrancyGuard.sol\":2455:2473  _status = _ENTERED */\n      dup1\n      sstore\n        /* \"MintNagaKid.sol\":1368:1377  isPause() */\n      tag_200\n        /* \"MintNagaKid.sol\":1368:1375  isPause */\n      tag_183\n        /* \"MintNagaKid.sol\":1368:1377  isPause() */\n      jump\t// in\n    tag_200:\n        /* \"MintNagaKid.sol\":1368:1386  isPause() == false */\n      iszero\n        /* \"MintNagaKid.sol\":1360:1409  require(isPause() == false,\"NagaKid was Paused.\") */\n      tag_201\n      jumpi\n      mload(0x40)\n      shl(0xe5, 0x461bcd)\n      dup2\n      mstore\n        /* \"#utility.yul\":7524:7526   */\n      0x20\n        /* \"MintNagaKid.sol\":1360:1409  require(isPause() == false,\"NagaKid was Paused.\") */\n      0x04\n      dup3\n      add\n        /* \"#utility.yul\":7506:7527   */\n      mstore\n        /* \"#utility.yul\":7563:7565   */\n      0x13\n        /* \"#utility.yul\":7543:7561   */\n      0x24\n      dup3\n      add\n        /* \"#utility.yul\":7536:7566   */\n      mstore\n      shl(0x69, 0x2730b3b0a5b4b2103bb0b9902830bab9b2b217)\n        /* \"#utility.yul\":7582:7600   */\n      0x44\n      dup3\n      add\n        /* \"#utility.yul\":7575:7624   */\n      mstore\n        /* \"#utility.yul\":7641:7659   */\n      0x64\n      add\n        /* \"MintNagaKid.sol\":1360:1409  require(isPause() == false,\"NagaKid was Paused.\") */\n      tag_197\n        /* \"#utility.yul\":7322:7665   */\n      jump\n        /* \"MintNagaKid.sol\":1360:1409  require(isPause() == false,\"NagaKid was Paused.\") */\n    tag_201:\n        /* \"MintNagaKid.sol\":2654:2673  isWhitelistMintOpen */\n      sload(0x03)\n      shl(0xa8, 0x01)\n      swap1\n      div\n      0xff\n      and\n        /* \"MintNagaKid.sol\":2654:2681  isWhitelistMintOpen == true */\n      iszero\n      iszero\n        /* \"MintNagaKid.sol\":2677:2681  true */\n      0x01\n        /* \"MintNagaKid.sol\":2654:2681  isWhitelistMintOpen == true */\n      eq\n        /* \"MintNagaKid.sol\":2646:2713  require(isWhitelistMintOpen == true, \"Whitelist not open to mint.\") */\n      tag_205\n      jumpi\n      mload(0x40)\n      shl(0xe5, 0x461bcd)\n      dup2\n      mstore\n        /* \"#utility.yul\":7872:7874   */\n      0x20\n        /* \"MintNagaKid.sol\":2646:2713  require(isWhitelistMintOpen == true, \"Whitelist not open to mint.\") */\n      0x04\n      dup3\n      add\n        /* \"#utility.yul\":7854:7875   */\n      mstore\n        /* \"#utility.yul\":7911:7913   */\n      0x1b\n        /* \"#utility.yul\":7891:7909   */\n      0x24\n      dup3\n      add\n        /* \"#utility.yul\":7884:7914   */\n      mstore\n        /* \"#utility.yul\":7950:7979   */\n      0x57686974656c697374206e6f74206f70656e20746f206d696e742e0000000000\n        /* \"#utility.yul\":7930:7948   */\n      0x44\n      dup3\n      add\n        /* \"#utility.yul\":7923:7980   */\n      mstore\n        /* \"#utility.yul\":7997:8015   */\n      0x64\n      add\n        /* \"MintNagaKid.sol\":2646:2713  require(isWhitelistMintOpen == true, \"Whitelist not open to mint.\") */\n      tag_197\n        /* \"#utility.yul\":7670:8021   */\n      jump\n        /* \"MintNagaKid.sol\":2646:2713  require(isWhitelistMintOpen == true, \"Whitelist not open to mint.\") */\n    tag_205:\n        /* \"MintNagaKid.sol\":2761:2765  1111 */\n      0x0457\n        /* \"MintNagaKid.sol\":2751:2758  _amount */\n      dup2\n        /* \"MintNagaKid.sol\":2732:2748  getTotalSupply() */\n      tag_208\n        /* \"MintNagaKid.sol\":2732:2746  getTotalSupply */\n      tag_157\n        /* \"MintNagaKid.sol\":2732:2748  getTotalSupply() */\n      jump\t// in\n    tag_208:\n        /* \"MintNagaKid.sol\":2732:2758  getTotalSupply() + _amount */\n      tag_209\n      swap2\n      swap1\n      tag_210\n      jump\t// in\n    tag_209:\n        /* \"MintNagaKid.sol\":2732:2765  getTotalSupply() + _amount < 1111 */\n      lt\n        /* \"MintNagaKid.sol\":2724:2781  require(getTotalSupply() + _amount < 1111, \"Over supply\") */\n      tag_211\n      jumpi\n      mload(0x40)\n      shl(0xe5, 0x461bcd)\n      dup2\n      mstore\n        /* \"#utility.yul\":8493:8495   */\n      0x20\n        /* \"MintNagaKid.sol\":2724:2781  require(getTotalSupply() + _amount < 1111, \"Over supply\") */\n      0x04\n      dup3\n      add\n        /* \"#utility.yul\":8475:8496   */\n      mstore\n        /* \"#utility.yul\":8532:8534   */\n      0x0b\n        /* \"#utility.yul\":8512:8530   */\n      0x24\n      dup3\n      add\n        /* \"#utility.yul\":8505:8535   */\n      mstore\n      shl(0xa8, 0x4f76657220737570706c79)\n        /* \"#utility.yul\":8551:8569   */\n      0x44\n      dup3\n      add\n        /* \"#utility.yul\":8544:8585   */\n      mstore\n        /* \"#utility.yul\":8602:8620   */\n      0x64\n      add\n        /* \"MintNagaKid.sol\":2724:2781  require(getTotalSupply() + _amount < 1111, \"Over supply\") */\n      tag_197\n        /* \"#utility.yul\":8291:8626   */\n      jump\n        /* \"MintNagaKid.sol\":2724:2781  require(getTotalSupply() + _amount < 1111, \"Over supply\") */\n    tag_211:\n        /* \"MintNagaKid.sol\":2818:2828  msg.sender */\n      caller\n        /* \"MintNagaKid.sol\":4256:4260  bool */\n      0x00\n        /* \"MintNagaKid.sol\":4280:4305  _isWhitelistMinted[_user] */\n      swap1\n      dup2\n      mstore\n        /* \"MintNagaKid.sol\":4280:4298  _isWhitelistMinted */\n      0x05\n        /* \"MintNagaKid.sol\":4280:4305  _isWhitelistMinted[_user] */\n      0x20\n      mstore\n      0x40\n      swap1\n      keccak256\n      sload\n      0xff\n      and\n        /* \"MintNagaKid.sol\":2800:2837  isWhitelistMinted(msg.sender) != true */\n      iszero\n      iszero\n        /* \"MintNagaKid.sol\":2833:2837  true */\n      0x01\n        /* \"MintNagaKid.sol\":2800:2837  isWhitelistMinted(msg.sender) != true */\n      sub\n        /* \"MintNagaKid.sol\":2792:2865  require(isWhitelistMinted(msg.sender) != true, \"You are already minted.\") */\n      tag_215\n      jumpi\n      mload(0x40)\n      shl(0xe5, 0x461bcd)\n      dup2\n      mstore\n        /* \"#utility.yul\":8833:8835   */\n      0x20\n        /* \"MintNagaKid.sol\":2792:2865  require(isWhitelistMinted(msg.sender) != true, \"You are already minted.\") */\n      0x04\n      dup3\n      add\n        /* \"#utility.yul\":8815:8836   */\n      mstore\n        /* \"#utility.yul\":8872:8874   */\n      0x17\n        /* \"#utility.yul\":8852:8870   */\n      0x24\n      dup3\n      add\n        /* \"#utility.yul\":8845:8875   */\n      mstore\n      shl(0x49, 0x2cb7ba9030b9329030b63932b0b23c9036b4b73a32b217)\n        /* \"#utility.yul\":8891:8909   */\n      0x44\n      dup3\n      add\n        /* \"#utility.yul\":8884:8937   */\n      mstore\n        /* \"#utility.yul\":8954:8972   */\n      0x64\n      add\n        /* \"MintNagaKid.sol\":2792:2865  require(isWhitelistMinted(msg.sender) != true, \"You are already minted.\") */\n      tag_197\n        /* \"#utility.yul\":8631:8978   */\n      jump\n        /* \"MintNagaKid.sol\":2792:2865  require(isWhitelistMinted(msg.sender) != true, \"You are already minted.\") */\n    tag_215:\n        /* \"MintNagaKid.sol\":2884:2899  NagaKidContract */\n      sload(0x03)\n        /* \"MintNagaKid.sol\":2908:2937  NagaKidContract.MINTER_ROLE() */\n      0x40\n      dup1\n      mload\n      shl(0xe0, 0xd5391393)\n      dup2\n      mstore\n      swap1\n      mload\n      sub(shl(0xa0, 0x01), 0x01)\n        /* \"MintNagaKid.sol\":2884:2899  NagaKidContract */\n      swap1\n      swap3\n      and\n      swap2\n        /* \"MintNagaKid.sol\":2884:2907  NagaKidContract.hasRole */\n      0x91d14854\n      swap2\n        /* \"MintNagaKid.sol\":2884:2899  NagaKidContract */\n      dup4\n      swap2\n        /* \"MintNagaKid.sol\":2908:2935  NagaKidContract.MINTER_ROLE */\n      0xd5391393\n      swap2\n        /* \"MintNagaKid.sol\":2908:2937  NagaKidContract.MINTER_ROLE() */\n      0x04\n      dup1\n      dup3\n      add\n      swap3\n      0x20\n      swap3\n      swap1\n      swap2\n      swap1\n      dup3\n      swap1\n      sub\n      add\n      dup2\n        /* \"MintNagaKid.sol\":2884:2899  NagaKidContract */\n      dup7\n        /* \"MintNagaKid.sol\":2908:2937  NagaKidContract.MINTER_ROLE() */\n      gas\n      staticcall\n      iszero\n      dup1\n      iszero\n      tag_219\n      jumpi\n      returndatasize\n      0x00\n      dup1\n      returndatacopy\n      revert(0x00, returndatasize)\n    tag_219:\n      pop\n      pop\n      pop\n      pop\n      mload(0x40)\n      returndatasize\n      not(0x1f)\n      0x1f\n      dup3\n      add\n      and\n      dup3\n      add\n      dup1\n      0x40\n      mstore\n      pop\n      dup2\n      add\n      swap1\n      tag_220\n      swap2\n      swap1\n      tag_221\n      jump\t// in\n    tag_220:\n        /* \"MintNagaKid.sol\":2884:2952  NagaKidContract.hasRole(NagaKidContract.MINTER_ROLE(),address(this)) */\n      mload(0x40)\n      not(sub(shl(0xe0, 0x01), 0x01))\n      0xe0\n      dup5\n      swap1\n      shl\n      and\n      dup2\n      mstore\n      0x04\n      dup2\n      add\n        /* \"#utility.yul\":9346:9371   */\n      swap2\n      swap1\n      swap2\n      mstore\n        /* \"MintNagaKid.sol\":2946:2950  this */\n      address\n        /* \"#utility.yul\":9387:9405   */\n      0x24\n      dup3\n      add\n        /* \"#utility.yul\":9380:9440   */\n      mstore\n        /* \"#utility.yul\":9319:9337   */\n      0x44\n      add\n        /* \"MintNagaKid.sol\":2884:2952  NagaKidContract.hasRole(NagaKidContract.MINTER_ROLE(),address(this)) */\n      0x20\n      mload(0x40)\n      dup1\n      dup4\n      sub\n      dup2\n      dup7\n      gas\n      staticcall\n      iszero\n      dup1\n      iszero\n      tag_225\n      jumpi\n      returndatasize\n      0x00\n      dup1\n      returndatacopy\n      revert(0x00, returndatasize)\n    tag_225:\n      pop\n      pop\n      pop\n      pop\n      mload(0x40)\n      returndatasize\n      not(0x1f)\n      0x1f\n      dup3\n      add\n      and\n      dup3\n      add\n      dup1\n      0x40\n      mstore\n      pop\n      dup2\n      add\n      swap1\n      tag_226\n      swap2\n      swap1\n      tag_227\n      jump\t// in\n    tag_226:\n        /* \"MintNagaKid.sol\":2884:2960  NagaKidContract.hasRole(NagaKidContract.MINTER_ROLE(),address(this)) == true */\n      iszero\n      iszero\n        /* \"MintNagaKid.sol\":2956:2960  true */\n      0x01\n        /* \"MintNagaKid.sol\":2884:2960  NagaKidContract.hasRole(NagaKidContract.MINTER_ROLE(),address(this)) == true */\n      eq\n        /* \"MintNagaKid.sol\":2876:3006  require(NagaKidContract.hasRole(NagaKidContract.MINTER_ROLE(),address(this)) == true,\"This Contract not have permission to mint.\") */\n      tag_228\n      jumpi\n      mload(0x40)\n      shl(0xe5, 0x461bcd)\n      dup2\n      mstore\n      0x04\n      add\n      tag_197\n      swap1\n      tag_230\n      jump\t// in\n    tag_228:\n        /* \"MintNagaKid.sol\":3025:3069  isWhitelist(_proofMerkle,msg.sender,_amount) */\n      tag_231\n        /* \"MintNagaKid.sol\":3037:3049  _proofMerkle */\n      dup4\n      dup4\n        /* \"MintNagaKid.sol\":3050:3060  msg.sender */\n      caller\n        /* \"MintNagaKid.sol\":3061:3068  _amount */\n      dup5\n        /* \"MintNagaKid.sol\":3025:3036  isWhitelist */\n      tag_232\n        /* \"MintNagaKid.sol\":3025:3069  isWhitelist(_proofMerkle,msg.sender,_amount) */\n      jump\t// in\n    tag_231:\n        /* \"MintNagaKid.sol\":3017:3111  require(isWhitelist(_proofMerkle,msg.sender,_amount), \"Unauthorized WhitelistMint This User.\") */\n      tag_233\n      jumpi\n      mload(0x40)\n      shl(0xe5, 0x461bcd)\n      dup2\n      mstore\n        /* \"#utility.yul\":10314:10316   */\n      0x20\n        /* \"MintNagaKid.sol\":3017:3111  require(isWhitelist(_proofMerkle,msg.sender,_amount), \"Unauthorized WhitelistMint This User.\") */\n      0x04\n      dup3\n      add\n        /* \"#utility.yul\":10296:10317   */\n      mstore\n        /* \"#utility.yul\":10353:10355   */\n      0x25\n        /* \"#utility.yul\":10333:10351   */\n      0x24\n      dup3\n      add\n        /* \"#utility.yul\":10326:10356   */\n      mstore\n        /* \"#utility.yul\":10392:10426   */\n      0x556e617574686f72697a65642057686974656c6973744d696e74205468697320\n        /* \"#utility.yul\":10372:10390   */\n      0x44\n      dup3\n      add\n        /* \"#utility.yul\":10365:10427   */\n      mstore\n      shl(0xd9, 0x2ab9b2b917)\n        /* \"#utility.yul\":10443:10461   */\n      0x64\n      dup3\n      add\n        /* \"#utility.yul\":10436:10471   */\n      mstore\n        /* \"#utility.yul\":10488:10507   */\n      0x84\n      add\n        /* \"MintNagaKid.sol\":3017:3111  require(isWhitelist(_proofMerkle,msg.sender,_amount), \"Unauthorized WhitelistMint This User.\") */\n      tag_197\n        /* \"#utility.yul\":10112:10513   */\n      jump\n        /* \"MintNagaKid.sol\":3017:3111  require(isWhitelist(_proofMerkle,msg.sender,_amount), \"Unauthorized WhitelistMint This User.\") */\n    tag_233:\n        /* \"MintNagaKid.sol\":3143:3153  msg.sender */\n      caller\n        /* \"MintNagaKid.sol\":3124:3154  _isWhitelistMinted[msg.sender] */\n      0x00\n      swap1\n      dup2\n      mstore\n        /* \"MintNagaKid.sol\":3124:3142  _isWhitelistMinted */\n      0x05\n        /* \"MintNagaKid.sol\":3124:3154  _isWhitelistMinted[msg.sender] */\n      0x20\n      swap1\n      dup2\n      mstore\n      0x40\n      dup1\n      dup4\n      keccak256\n        /* \"MintNagaKid.sol\":3124:3161  _isWhitelistMinted[msg.sender] = true */\n      dup1\n      sload\n      not(0xff)\n      and\n        /* \"MintNagaKid.sol\":3157:3161  true */\n      0x01\n        /* \"MintNagaKid.sol\":3124:3161  _isWhitelistMinted[msg.sender] = true */\n      or\n      swap1\n      sstore\n        /* \"MintNagaKid.sol\":3172:3196  _isWhitelistMintedAmount */\n      0x06\n        /* \"MintNagaKid.sol\":3172:3208  _isWhitelistMintedAmount[msg.sender] */\n      swap1\n      swap2\n      mstore\n      dup2\n      keccak256\n        /* \"MintNagaKid.sol\":3172:3219  _isWhitelistMintedAmount[msg.sender] += _amount */\n      dup1\n      sload\n        /* \"MintNagaKid.sol\":3212:3219  _amount */\n      dup4\n      swap3\n        /* \"MintNagaKid.sol\":3124:3154  _isWhitelistMinted[msg.sender] */\n      swap1\n        /* \"MintNagaKid.sol\":3172:3219  _isWhitelistMintedAmount[msg.sender] += _amount */\n      tag_236\n      swap1\n        /* \"MintNagaKid.sol\":3212:3219  _amount */\n      dup5\n      swap1\n        /* \"MintNagaKid.sol\":3172:3219  _isWhitelistMintedAmount[msg.sender] += _amount */\n      tag_210\n      jump\t// in\n    tag_236:\n      swap1\n      swap2\n      sstore\n      pop\n        /* \"MintNagaKid.sol\":3236:3242  uint i */\n      0x00\n      swap1\n      pop\n        /* \"MintNagaKid.sol\":3232:3327  for(uint i = 0; i< _amount; i++){... */\n    tag_237:\n        /* \"MintNagaKid.sol\":3251:3258  _amount */\n      dup2\n        /* \"MintNagaKid.sol\":3248:3249  i */\n      dup2\n        /* \"MintNagaKid.sol\":3248:3258  i< _amount */\n      lt\n        /* \"MintNagaKid.sol\":3232:3327  for(uint i = 0; i< _amount; i++){... */\n      iszero\n      tag_238\n      jumpi\n        /* \"MintNagaKid.sol\":3279:3294  NagaKidContract */\n      sload(0x03)\n        /* \"MintNagaKid.sol\":3279:3315  NagaKidContract.safeMint(msg.sender) */\n      mload(0x40)\n      shl(0xe0, 0x40d097c3)\n      dup2\n      mstore\n        /* \"MintNagaKid.sol\":3304:3314  msg.sender */\n      caller\n        /* \"MintNagaKid.sol\":3279:3315  NagaKidContract.safeMint(msg.sender) */\n      0x04\n      dup3\n      add\n        /* \"#utility.yul\":1395:1446   */\n      mstore\n      sub(shl(0xa0, 0x01), 0x01)\n        /* \"MintNagaKid.sol\":3279:3294  NagaKidContract */\n      swap1\n      swap2\n      and\n      swap1\n        /* \"MintNagaKid.sol\":3279:3303  NagaKidContract.safeMint */\n      0x40d097c3\n      swap1\n        /* \"#utility.yul\":1368:1386   */\n      0x24\n      add\n        /* \"MintNagaKid.sol\":3279:3315  NagaKidContract.safeMint(msg.sender) */\n      0x00\n      mload(0x40)\n      dup1\n      dup4\n      sub\n      dup2\n      0x00\n      dup8\n      dup1\n      extcodesize\n      iszero\n      dup1\n      iszero\n      tag_241\n      jumpi\n      0x00\n      dup1\n      revert\n    tag_241:\n      pop\n      gas\n      call\n      iszero\n      dup1\n      iszero\n      tag_243\n      jumpi\n      returndatasize\n      0x00\n      dup1\n      returndatacopy\n      revert(0x00, returndatasize)\n    tag_243:\n      pop\n      pop\n      pop\n      pop\n        /* \"MintNagaKid.sol\":3260:3263  i++ */\n      dup1\n      dup1\n      tag_244\n      swap1\n      tag_245\n      jump\t// in\n    tag_244:\n      swap2\n      pop\n      pop\n        /* \"MintNagaKid.sol\":3232:3327  for(uint i = 0; i< _amount; i++){... */\n      jump(tag_237)\n    tag_238:\n      pop\n        /* \"MintNagaKid.sol\":3344:3395  WhitelistMinted(msg.sender,_amount,block.timestamp) */\n      0x40\n      dup1\n      mload\n        /* \"#utility.yul\":10832:10857   */\n      dup3\n      dup2\n      mstore\n        /* \"MintNagaKid.sol\":3379:3394  block.timestamp */\n      timestamp\n        /* \"#utility.yul\":10888:10890   */\n      0x20\n        /* \"#utility.yul\":10873:10891   */\n      dup3\n      add\n        /* \"#utility.yul\":10866:10900   */\n      mstore\n        /* \"MintNagaKid.sol\":3360:3370  msg.sender */\n      caller\n      swap2\n        /* \"MintNagaKid.sol\":3344:3395  WhitelistMinted(msg.sender,_amount,block.timestamp) */\n      0xb7df065473d5cf63ef5cf9190dbd326ea5e6fbfe4a0971f4920e430bbfd5a938\n      swap2\n        /* \"#utility.yul\":10805:10823   */\n      add\n        /* \"MintNagaKid.sol\":3344:3395  WhitelistMinted(msg.sender,_amount,block.timestamp) */\n      mload(0x40)\n      dup1\n      swap2\n      sub\n      swap1\n      log2\n      pop\n      pop\n        /* \"@openzeppelin/contracts/security/ReentrancyGuard.sol\":1701:1702  1 */\n      0x01\n        /* \"@openzeppelin/contracts/security/ReentrancyGuard.sol\":2628:2635  _status */\n      0x02\n        /* \"@openzeppelin/contracts/security/ReentrancyGuard.sol\":2628:2650  _status = _NOT_ENTERED */\n      sstore\n      pop\n        /* \"MintNagaKid.sol\":2528:3403  function whitelistMint(bytes32[] calldata _proofMerkle,uint256 _amount) public payable nonReentrant Paused {... */\n      jump\t// out\n        /* \"@openzeppelin/contracts/access/AccessControl.sol\":4770:4915  function grantRole(bytes32 role, address account) public virtual override onlyRole(getRoleAdmin(role)) {... */\n    tag_86:\n        /* \"@openzeppelin/contracts/access/AccessControl.sol\":4465:4472  bytes32 */\n      0x00\n        /* \"@openzeppelin/contracts/access/AccessControl.sol\":4491:4503  _roles[role] */\n      dup3\n      dup2\n      mstore\n        /* \"@openzeppelin/contracts/access/AccessControl.sol\":4491:4497  _roles */\n      0x01\n        /* \"@openzeppelin/contracts/access/AccessControl.sol\":4491:4503  _roles[role] */\n      0x20\n      dup2\n      swap1\n      mstore\n      0x40\n      swap1\n      swap2\n      keccak256\n        /* \"@openzeppelin/contracts/access/AccessControl.sol\":4491:4513  _roles[role].adminRole */\n      add\n      sload\n        /* \"@openzeppelin/contracts/access/AccessControl.sol\":2505:2521  _checkRole(role) */\n      tag_250\n        /* \"@openzeppelin/contracts/access/AccessControl.sol\":2516:2520  role */\n      dup2\n        /* \"@openzeppelin/contracts/access/AccessControl.sol\":2505:2515  _checkRole */\n      tag_251\n        /* \"@openzeppelin/contracts/access/AccessControl.sol\":2505:2521  _checkRole(role) */\n      jump\t// in\n    tag_250:\n        /* \"@openzeppelin/contracts/access/AccessControl.sol\":4883:4908  _grantRole(role, account) */\n      tag_253\n        /* \"@openzeppelin/contracts/access/AccessControl.sol\":4894:4898  role */\n      dup4\n        /* \"@openzeppelin/contracts/access/AccessControl.sol\":4900:4907  account */\n      dup4\n        /* \"@openzeppelin/contracts/access/AccessControl.sol\":4883:4893  _grantRole */\n      tag_254\n        /* \"@openzeppelin/contracts/access/AccessControl.sol\":4883:4908  _grantRole(role, account) */\n      jump\t// in\n    tag_253:\n        /* \"@openzeppelin/contracts/access/AccessControl.sol\":4770:4915  function grantRole(bytes32 role, address account) public virtual override onlyRole(getRoleAdmin(role)) {... */\n      pop\n      pop\n      pop\n      jump\t// out\n        /* \"@openzeppelin/contracts/access/AccessControl.sol\":5787:6001  function renounceRole(bytes32 role, address account) public virtual override {... */\n    tag_90:\n      sub(shl(0xa0, 0x01), 0x01)\n        /* \"@openzeppelin/contracts/access/AccessControl.sol\":5882:5905  account == _msgSender() */\n      dup2\n      and\n        /* \"@openzeppelin/contracts/utils/Context.sol\":719:729  msg.sender */\n      caller\n        /* \"@openzeppelin/contracts/access/AccessControl.sol\":5882:5905  account == _msgSender() */\n      eq\n        /* \"@openzeppelin/contracts/access/AccessControl.sol\":5874:5957  require(account == _msgSender(), \"AccessControl: can only renounce roles for self\") */\n      tag_258\n      jumpi\n      mload(0x40)\n      shl(0xe5, 0x461bcd)\n      dup2\n      mstore\n        /* \"#utility.yul\":11113:11115   */\n      0x20\n        /* \"@openzeppelin/contracts/access/AccessControl.sol\":5874:5957  require(account == _msgSender(), \"AccessControl: can only renounce roles for self\") */\n      0x04\n      dup3\n      add\n        /* \"#utility.yul\":11095:11116   */\n      mstore\n        /* \"#utility.yul\":11152:11154   */\n      0x2f\n        /* \"#utility.yul\":11132:11150   */\n      0x24\n      dup3\n      add\n        /* \"#utility.yul\":11125:11155   */\n      mstore\n        /* \"#utility.yul\":11191:11225   */\n      0x416363657373436f6e74726f6c3a2063616e206f6e6c792072656e6f756e6365\n        /* \"#utility.yul\":11171:11189   */\n      0x44\n      dup3\n      add\n        /* \"#utility.yul\":11164:11226   */\n      mstore\n      shl(0x89, 0x103937b632b9903337b91039b2b633)\n        /* \"#utility.yul\":11242:11260   */\n      0x64\n      dup3\n      add\n        /* \"#utility.yul\":11235:11280   */\n      mstore\n        /* \"#utility.yul\":11297:11316   */\n      0x84\n      add\n        /* \"@openzeppelin/contracts/access/AccessControl.sol\":5874:5957  require(account == _msgSender(), \"AccessControl: can only renounce roles for self\") */\n      tag_197\n        /* \"#utility.yul\":10911:11322   */\n      jump\n        /* \"@openzeppelin/contracts/access/AccessControl.sol\":5874:5957  require(account == _msgSender(), \"AccessControl: can only renounce roles for self\") */\n    tag_258:\n        /* \"@openzeppelin/contracts/access/AccessControl.sol\":5968:5994  _revokeRole(role, account) */\n      tag_261\n        /* \"@openzeppelin/contracts/access/AccessControl.sol\":5980:5984  role */\n      dup3\n        /* \"@openzeppelin/contracts/access/AccessControl.sol\":5986:5993  account */\n      dup3\n        /* \"@openzeppelin/contracts/access/AccessControl.sol\":5968:5979  _revokeRole */\n      tag_262\n        /* \"@openzeppelin/contracts/access/AccessControl.sol\":5968:5994  _revokeRole(role, account) */\n      jump\t// in\n    tag_261:\n        /* \"@openzeppelin/contracts/access/AccessControl.sol\":5787:6001  function renounceRole(bytes32 role, address account) public virtual override {... */\n      pop\n      pop\n      jump\t// out\n        /* \"VerifySignature.sol\":769:1119  function verify(... */\n    tag_95:\n        /* \"VerifySignature.sol\":896:900  bool */\n      0x00\n        /* \"VerifySignature.sol\":913:932  bytes32 messageHash */\n      dup1\n        /* \"VerifySignature.sol\":935:956  getMessageHash(_user) */\n      tag_264\n        /* \"VerifySignature.sol\":950:955  _user */\n      dup5\n        /* \"VerifySignature.sol\":935:949  getMessageHash */\n      tag_60\n        /* \"VerifySignature.sol\":935:956  getMessageHash(_user) */\n      jump\t// in\n    tag_264:\n        /* \"VerifySignature.sol\":913:956  bytes32 messageHash = getMessageHash(_user) */\n      swap1\n      pop\n        /* \"VerifySignature.sol\":967:995  bytes32 ethSignedMessageHash */\n      0x00\n        /* \"VerifySignature.sol\":998:1034  getEthSignedMessageHash(messageHash) */\n      tag_265\n        /* \"VerifySignature.sol\":1022:1033  messageHash */\n      dup3\n        /* \"VerifySignature.sol\":998:1021  getEthSignedMessageHash */\n      tag_175\n        /* \"VerifySignature.sol\":998:1034  getEthSignedMessageHash(messageHash) */\n      jump\t// in\n    tag_265:\n        /* \"VerifySignature.sol\":967:1034  bytes32 ethSignedMessageHash = getEthSignedMessageHash(messageHash) */\n      swap1\n      pop\n        /* \"VerifySignature.sol\":1104:1111  _signer */\n      dup6\n      sub(shl(0xa0, 0x01), 0x01)\n        /* \"VerifySignature.sol\":1054:1111  recoverSigner(ethSignedMessageHash, signature) == _signer */\n      and\n        /* \"VerifySignature.sol\":1054:1100  recoverSigner(ethSignedMessageHash, signature) */\n      tag_266\n        /* \"VerifySignature.sol\":1068:1088  ethSignedMessageHash */\n      dup3\n        /* \"VerifySignature.sol\":1090:1099  signature */\n      dup7\n        /* \"VerifySignature.sol\":1054:1067  recoverSigner */\n      tag_133\n        /* \"VerifySignature.sol\":1054:1100  recoverSigner(ethSignedMessageHash, signature) */\n      jump\t// in\n    tag_266:\n      sub(shl(0xa0, 0x01), 0x01)\n        /* \"VerifySignature.sol\":1054:1111  recoverSigner(ethSignedMessageHash, signature) == _signer */\n      and\n      eq\n      swap7\n        /* \"VerifySignature.sol\":769:1119  function verify(... */\n      swap6\n      pop\n      pop\n      pop\n      pop\n      pop\n      pop\n      jump\t// out\n        /* \"MintNagaKid.sol\":4703:4810  function getMaxSupply() public view returns (uint256) {... */\n    tag_99:\n        /* \"MintNagaKid.sol\":4775:4790  NagaKidContract */\n      sload(0x03)\n        /* \"MintNagaKid.sol\":4775:4802  NagaKidContract.maxSupply() */\n      0x40\n      dup1\n      mload\n      shl(0xe0, 0xd5abeb01)\n      dup2\n      mstore\n      swap1\n      mload\n        /* \"MintNagaKid.sol\":4748:4755  uint256 */\n      0x00\n      swap3\n      sub(shl(0xa0, 0x01), 0x01)\n        /* \"MintNagaKid.sol\":4775:4790  NagaKidContract */\n      and\n      swap2\n        /* \"MintNagaKid.sol\":4775:4800  NagaKidContract.maxSupply */\n      0xd5abeb01\n      swap2\n        /* \"MintNagaKid.sol\":4775:4802  NagaKidContract.maxSupply() */\n      0x04\n      dup1\n      dup4\n      add\n      swap3\n      0x20\n      swap3\n      swap2\n      swap1\n      dup3\n      swap1\n      sub\n      add\n      dup2\n        /* \"MintNagaKid.sol\":4775:4790  NagaKidContract */\n      dup7\n        /* \"MintNagaKid.sol\":4775:4802  NagaKidContract.maxSupply() */\n      gas\n      staticcall\n      iszero\n      dup1\n      iszero\n      tag_269\n      jumpi\n      returndatasize\n      0x00\n      dup1\n      returndatacopy\n      revert(0x00, returndatasize)\n    tag_269:\n      pop\n      pop\n      pop\n      pop\n      mload(0x40)\n      returndatasize\n      not(0x1f)\n      0x1f\n      dup3\n      add\n      and\n      dup3\n      add\n      dup1\n      0x40\n      mstore\n      pop\n      dup2\n      add\n      swap1\n      tag_270\n      swap2\n      swap1\n      tag_221\n      jump\t// in\n    tag_270:\n        /* \"MintNagaKid.sol\":4768:4802  return NagaKidContract.maxSupply() */\n      swap1\n      pop\n        /* \"MintNagaKid.sol\":4703:4810  function getMaxSupply() public view returns (uint256) {... */\n      swap1\n      jump\t// out\n        /* \"MintNagaKid.sol\":2106:2272  function setPublicMintOpen(bool _isOpen) public onlyRole(DEFAULT_ADMIN_ROLE) {... */\n    tag_110:\n        /* \"@openzeppelin/contracts/access/AccessControl.sol\":2072:2076  0x00 */\n      0x00\n        /* \"@openzeppelin/contracts/access/AccessControl.sol\":2505:2521  _checkRole(role) */\n      tag_274\n        /* \"@openzeppelin/contracts/access/AccessControl.sol\":2072:2076  0x00 */\n      dup2\n        /* \"@openzeppelin/contracts/access/AccessControl.sol\":2505:2515  _checkRole */\n      tag_251\n        /* \"@openzeppelin/contracts/access/AccessControl.sol\":2505:2521  _checkRole(role) */\n      jump\t// in\n    tag_274:\n        /* \"MintNagaKid.sol\":2194:2210  isPublicMintOpen */\n      0x03\n        /* \"MintNagaKid.sol\":2194:2220  isPublicMintOpen = _isOpen */\n      dup1\n      sload\n      dup4\n      iszero\n      iszero\n      shl(0xa0, 0x01)\n      mul\n      not(shl(0xa0, 0xff))\n      swap1\n      swap2\n      and\n      or\n      swap1\n      sstore\n        /* \"MintNagaKid.sol\":2238:2264  SetPublicMintOpen(_isOpen) */\n      mload(0x40)\n      0x7955b9c09440c823c45ec1ed87cd3f0860e31e9f5a8e65cff61bed27545bedd7\n      swap1\n      tag_276\n      swap1\n        /* \"MintNagaKid.sol\":2213:2220  _isOpen */\n      dup5\n        /* \"#utility.yul\":470:484   */\n      iszero\n        /* \"#utility.yul\":463:485   */\n      iszero\n        /* \"#utility.yul\":445:486   */\n      dup2\n      mstore\n        /* \"#utility.yul\":433:435   */\n      0x20\n        /* \"#utility.yul\":418:436   */\n      add\n      swap1\n        /* \"#utility.yul\":305:492   */\n      jump\n        /* \"MintNagaKid.sol\":2238:2264  SetPublicMintOpen(_isOpen) */\n    tag_276:\n      mload(0x40)\n      dup1\n      swap2\n      sub\n      swap1\n      log1\n        /* \"MintNagaKid.sol\":2106:2272  function setPublicMintOpen(bool _isOpen) public onlyRole(DEFAULT_ADMIN_ROLE) {... */\n      pop\n      pop\n      jump\t// out\n        /* \"MintNagaKid.sol\":1718:1914  function setSigner(address _signer) public onlyRole(DEFAULT_ADMIN_ROLE) {... */\n    tag_114:\n        /* \"@openzeppelin/contracts/access/AccessControl.sol\":2072:2076  0x00 */\n      0x00\n        /* \"@openzeppelin/contracts/access/AccessControl.sol\":2505:2521  _checkRole(role) */\n      tag_278\n        /* \"@openzeppelin/contracts/access/AccessControl.sol\":2072:2076  0x00 */\n      dup2\n        /* \"@openzeppelin/contracts/access/AccessControl.sol\":2505:2515  _checkRole */\n      tag_251\n        /* \"@openzeppelin/contracts/access/AccessControl.sol\":2505:2521  _checkRole(role) */\n      jump\t// in\n    tag_278:\n        /* \"MintNagaKid.sol\":1824:1830  signer */\n      0x04\n      dup1\n      sload\n      sub(shl(0xa0, 0x01), 0x01)\n        /* \"MintNagaKid.sol\":1841:1857  signer = _signer */\n      dup5\n      dup2\n      and\n      not(sub(shl(0xa0, 0x01), 0x01))\n      dup4\n      and\n      dup2\n      or\n      swap1\n      swap4\n      sstore\n        /* \"MintNagaKid.sol\":1875:1906  SetSigner(signerBefore,_signer) */\n      0x40\n      dup1\n      mload\n        /* \"MintNagaKid.sol\":1824:1830  signer */\n      swap2\n      swap1\n      swap3\n      and\n        /* \"#utility.yul\":11728:11762   */\n      dup1\n      dup3\n      mstore\n        /* \"#utility.yul\":11793:11795   */\n      0x20\n        /* \"#utility.yul\":11778:11796   */\n      dup3\n      add\n        /* \"#utility.yul\":11771:11814   */\n      swap4\n      swap1\n      swap4\n      mstore\n        /* \"MintNagaKid.sol\":1875:1906  SetSigner(signerBefore,_signer) */\n      0x3271c8694494a7cc76cd185c743e9ee6b515a043ea98c0db7f5ca112f694add4\n      swap2\n        /* \"#utility.yul\":11663:11681   */\n      add\n        /* \"MintNagaKid.sol\":1875:1906  SetSigner(signerBefore,_signer) */\n    tag_280:\n      mload(0x40)\n      dup1\n      swap2\n      sub\n      swap1\n      log1\n        /* \"MintNagaKid.sol\":1790:1914  {... */\n      pop\n        /* \"MintNagaKid.sol\":1718:1914  function setSigner(address _signer) public onlyRole(DEFAULT_ADMIN_ROLE) {... */\n      pop\n      pop\n      jump\t// out\n        /* \"MintNagaKid.sol\":2284:2518  function setMerkleRoot(bytes32 _merkleRoot) public onlyRole(DEFAULT_ADMIN_ROLE) {... */\n    tag_118:\n        /* \"@openzeppelin/contracts/access/AccessControl.sol\":2072:2076  0x00 */\n      0x00\n        /* \"@openzeppelin/contracts/access/AccessControl.sol\":2505:2521  _checkRole(role) */\n      tag_283\n        /* \"@openzeppelin/contracts/access/AccessControl.sol\":2072:2076  0x00 */\n      dup2\n        /* \"@openzeppelin/contracts/access/AccessControl.sol\":2505:2515  _checkRole */\n      tag_251\n        /* \"@openzeppelin/contracts/access/AccessControl.sol\":2505:2521  _checkRole(role) */\n      jump\t// in\n    tag_283:\n        /* \"MintNagaKid.sol\":2375:2400  bytes32 _merkleRootBefore */\n      0x00\n        /* \"MintNagaKid.sol\":2403:2413  merkleRoot */\n      dup1\n      sload\n        /* \"MintNagaKid.sol\":2424:2448  merkleRoot = _merkleRoot */\n      swap1\n      dup4\n      swap1\n      sstore\n        /* \"MintNagaKid.sol\":2466:2510  SetMerkleRoot(_merkleRootBefore,_merkleRoot) */\n      0x40\n      dup1\n      mload\n        /* \"#utility.yul\":10832:10857   */\n      dup3\n      dup2\n      mstore\n        /* \"#utility.yul\":10888:10890   */\n      0x20\n        /* \"#utility.yul\":10873:10891   */\n      dup2\n      add\n        /* \"#utility.yul\":10866:10900   */\n      dup6\n      swap1\n      mstore\n        /* \"MintNagaKid.sol\":2466:2510  SetMerkleRoot(_merkleRootBefore,_merkleRoot) */\n      0x8c059dfa273e5360f0ad8d03524cfc0e8e91f05bf893452e7e92c8bf0feffb65\n      swap2\n        /* \"#utility.yul\":10805:10823   */\n      add\n        /* \"MintNagaKid.sol\":2466:2510  SetMerkleRoot(_merkleRootBefore,_merkleRoot) */\n      tag_280\n        /* \"#utility.yul\":10658:10906   */\n      jump\n        /* \"@openzeppelin/contracts/access/AccessControl.sol\":2895:3040  function hasRole(bytes32 role, address account) public view virtual override returns (bool) {... */\n    tag_127:\n        /* \"@openzeppelin/contracts/access/AccessControl.sol\":2981:2985  bool */\n      0x00\n        /* \"@openzeppelin/contracts/access/AccessControl.sol\":3004:3016  _roles[role] */\n      swap2\n      dup3\n      mstore\n        /* \"@openzeppelin/contracts/access/AccessControl.sol\":3004:3010  _roles */\n      0x01\n        /* \"@openzeppelin/contracts/access/AccessControl.sol\":3004:3016  _roles[role] */\n      0x20\n      swap1\n      dup2\n      mstore\n      0x40\n      dup1\n      dup5\n      keccak256\n      sub(shl(0xa0, 0x01), 0x01)\n        /* \"@openzeppelin/contracts/access/AccessControl.sol\":3004:3033  _roles[role].members[account] */\n      swap4\n      swap1\n      swap4\n      and\n      dup5\n      mstore\n      swap2\n      swap1\n      mstore\n      swap1\n      keccak256\n      sload\n      0xff\n      and\n      swap1\n        /* \"@openzeppelin/contracts/access/AccessControl.sol\":2895:3040  function hasRole(bytes32 role, address account) public view virtual override returns (bool) {... */\n      jump\t// out\n        /* \"VerifySignature.sol\":1127:1401  function recoverSigner(... */\n    tag_133:\n        /* \"VerifySignature.sol\":1252:1259  address */\n      0x00\n        /* \"VerifySignature.sol\":1273:1282  bytes32 r */\n      dup1\n        /* \"VerifySignature.sol\":1284:1293  bytes32 s */\n      0x00\n        /* \"VerifySignature.sol\":1295:1302  uint8 v */\n      dup1\n        /* \"VerifySignature.sol\":1306:1332  splitSignature(_signature) */\n      tag_289\n        /* \"VerifySignature.sol\":1321:1331  _signature */\n      dup6\n        /* \"VerifySignature.sol\":1306:1320  splitSignature */\n      tag_152\n        /* \"VerifySignature.sol\":1306:1332  splitSignature(_signature) */\n      jump\t// in\n    tag_289:\n        /* \"VerifySignature.sol\":1352:1393  ecrecover(_ethSignedMessageHash, v, r, s) */\n      0x40\n      dup1\n      mload\n      0x00\n      dup2\n      mstore\n      0x20\n      dup2\n      add\n      dup1\n      dup4\n      mstore\n        /* \"#utility.yul\":12305:12330   */\n      dup12\n      swap1\n      mstore\n        /* \"#utility.yul\":12378:12382   */\n      0xff\n        /* \"#utility.yul\":12366:12383   */\n      dup4\n      and\n        /* \"#utility.yul\":12346:12364   */\n      swap2\n      dup2\n      add\n        /* \"#utility.yul\":12339:12384   */\n      swap2\n      swap1\n      swap2\n      mstore\n        /* \"#utility.yul\":12400:12418   */\n      0x60\n      dup2\n      add\n        /* \"#utility.yul\":12393:12427   */\n      dup5\n      swap1\n      mstore\n        /* \"#utility.yul\":12443:12461   */\n      0x80\n      dup2\n      add\n        /* \"#utility.yul\":12436:12470   */\n      dup4\n      swap1\n      mstore\n        /* \"VerifySignature.sol\":1272:1332  (bytes32 r, bytes32 s, uint8 v) = splitSignature(_signature) */\n      swap3\n      swap6\n      pop\n      swap1\n      swap4\n      pop\n      swap2\n      pop\n        /* \"VerifySignature.sol\":1352:1393  ecrecover(_ethSignedMessageHash, v, r, s) */\n      0x01\n      swap1\n        /* \"#utility.yul\":12277:12296   */\n      0xa0\n      add\n        /* \"VerifySignature.sol\":1352:1393  ecrecover(_ethSignedMessageHash, v, r, s) */\n      0x20\n      mload(0x40)\n      0x20\n      dup2\n      sub\n      swap1\n      dup1\n      dup5\n      sub\n      swap1\n      dup6\n      gas\n      staticcall\n      iszero\n      dup1\n      iszero\n      tag_293\n      jumpi\n      returndatasize\n      0x00\n      dup1\n      returndatacopy\n      revert(0x00, returndatasize)\n    tag_293:\n      pop\n      pop\n      mload(add(not(0x1f), mload(0x40)))\n      swap8\n        /* \"VerifySignature.sol\":1127:1401  function recoverSigner(... */\n      swap7\n      pop\n      pop\n      pop\n      pop\n      pop\n      pop\n      pop\n      jump\t// out\n        /* \"MintNagaKid.sol\":1437:1706  function setNagaKidContract(INagaKidNFT _NagaKid) public onlyRole(DEFAULT_ADMIN_ROLE) {... */\n    tag_139:\n        /* \"@openzeppelin/contracts/access/AccessControl.sol\":2072:2076  0x00 */\n      0x00\n        /* \"@openzeppelin/contracts/access/AccessControl.sol\":2505:2521  _checkRole(role) */\n      tag_295\n        /* \"@openzeppelin/contracts/access/AccessControl.sol\":2072:2076  0x00 */\n      dup2\n        /* \"@openzeppelin/contracts/access/AccessControl.sol\":2505:2515  _checkRole */\n      tag_251\n        /* \"@openzeppelin/contracts/access/AccessControl.sol\":2505:2521  _checkRole(role) */\n      jump\t// in\n    tag_295:\n        /* \"MintNagaKid.sol\":1566:1581  NagaKidContract */\n      0x03\n      dup1\n      sload\n      sub(shl(0xa0, 0x01), 0x01)\n        /* \"MintNagaKid.sol\":1603:1629  NagaKidContract = _NagaKid */\n      dup5\n      dup2\n      and\n      not(sub(shl(0xa0, 0x01), 0x01))\n      dup4\n      and\n      dup2\n      or\n      swap1\n      swap4\n      sstore\n        /* \"MintNagaKid.sol\":1647:1698  SetNagaKidContract(NagaKidBefore,address(_NagaKid)) */\n      0x40\n      dup1\n      mload\n        /* \"MintNagaKid.sol\":1566:1581  NagaKidContract */\n      swap2\n      swap1\n      swap3\n      and\n        /* \"#utility.yul\":11728:11762   */\n      dup1\n      dup3\n      mstore\n        /* \"#utility.yul\":11793:11795   */\n      0x20\n        /* \"#utility.yul\":11778:11796   */\n      dup3\n      add\n        /* \"#utility.yul\":11771:11814   */\n      swap4\n      swap1\n      swap4\n      mstore\n        /* \"MintNagaKid.sol\":1647:1698  SetNagaKidContract(NagaKidBefore,address(_NagaKid)) */\n      0x92ce13baec98d66394cf79a9f16b88c346e6bd6dd4df75ac1144e5dc7ff8e541\n      swap2\n        /* \"#utility.yul\":11663:11681   */\n      add\n        /* \"MintNagaKid.sol\":1647:1698  SetNagaKidContract(NagaKidBefore,address(_NagaKid)) */\n      tag_280\n        /* \"#utility.yul\":11516:11820   */\n      jump\n        /* \"VerifySignature.sol\":1409:2300  function splitSignature(bytes memory sig)... */\n    tag_152:\n        /* \"VerifySignature.sol\":1513:1522  bytes32 r */\n      0x00\n        /* \"VerifySignature.sol\":1537:1546  bytes32 s */\n      dup1\n        /* \"VerifySignature.sol\":1561:1568  uint8 v */\n      0x00\n        /* \"VerifySignature.sol\":1604:1607  sig */\n      dup4\n        /* \"VerifySignature.sol\":1604:1614  sig.length */\n      mload\n        /* \"VerifySignature.sol\":1618:1620  65 */\n      0x41\n        /* \"VerifySignature.sol\":1604:1620  sig.length == 65 */\n      eq\n        /* \"VerifySignature.sol\":1596:1649  require(sig.length == 65, \"invalid signature length\") */\n      tag_299\n      jumpi\n      mload(0x40)\n      shl(0xe5, 0x461bcd)\n      dup2\n      mstore\n        /* \"#utility.yul\":12683:12685   */\n      0x20\n        /* \"VerifySignature.sol\":1596:1649  require(sig.length == 65, \"invalid signature length\") */\n      0x04\n      dup3\n      add\n        /* \"#utility.yul\":12665:12686   */\n      mstore\n        /* \"#utility.yul\":12722:12724   */\n      0x18\n        /* \"#utility.yul\":12702:12720   */\n      0x24\n      dup3\n      add\n        /* \"#utility.yul\":12695:12725   */\n      mstore\n        /* \"#utility.yul\":12761:12787   */\n      0x696e76616c6964207369676e6174757265206c656e6774680000000000000000\n        /* \"#utility.yul\":12741:12759   */\n      0x44\n      dup3\n      add\n        /* \"#utility.yul\":12734:12788   */\n      mstore\n        /* \"#utility.yul\":12805:12823   */\n      0x64\n      add\n        /* \"VerifySignature.sol\":1596:1649  require(sig.length == 65, \"invalid signature length\") */\n      tag_197\n        /* \"#utility.yul\":12481:12829   */\n      jump\n        /* \"VerifySignature.sol\":1596:1649  require(sig.length == 65, \"invalid signature length\") */\n    tag_299:\n      pop\n      pop\n      pop\n        /* \"VerifySignature.sol\":2058:2060  32 */\n      0x20\n        /* \"VerifySignature.sol\":2049:2061  add(sig, 32) */\n      dup2\n      add\n        /* \"VerifySignature.sol\":2043:2062  mload(add(sig, 32)) */\n      mload\n        /* \"VerifySignature.sol\":2128:2130  64 */\n      0x40\n        /* \"VerifySignature.sol\":2119:2131  add(sig, 64) */\n      dup3\n      add\n        /* \"VerifySignature.sol\":2113:2132  mload(add(sig, 64)) */\n      mload\n        /* \"VerifySignature.sol\":2235:2237  96 */\n      0x60\n        /* \"VerifySignature.sol\":2226:2238  add(sig, 96) */\n      swap1\n      swap3\n      add\n        /* \"VerifySignature.sol\":2220:2239  mload(add(sig, 96)) */\n      mload\n        /* \"VerifySignature.sol\":2043:2062  mload(add(sig, 32)) */\n      swap1\n      swap3\n        /* \"VerifySignature.sol\":2217:2218  0 */\n      0x00\n        /* \"VerifySignature.sol\":2212:2240  byte(0, mload(add(sig, 96))) */\n      swap2\n      swap1\n      swap2\n      byte\n      swap1\n        /* \"VerifySignature.sol\":1409:2300  function splitSignature(bytes memory sig)... */\n      jump\t// out\n        /* \"MintNagaKid.sol\":4584:4695  function getTotalSupply() public view returns (uint256) {... */\n    tag_157:\n        /* \"MintNagaKid.sol\":4658:4673  NagaKidContract */\n      sload(0x03)\n        /* \"MintNagaKid.sol\":4658:4687  NagaKidContract.totalSupply() */\n      0x40\n      dup1\n      mload\n      shl(0xe0, 0x18160ddd)\n      dup2\n      mstore\n      swap1\n      mload\n        /* \"MintNagaKid.sol\":4631:4638  uint256 */\n      0x00\n      swap3\n      sub(shl(0xa0, 0x01), 0x01)\n        /* \"MintNagaKid.sol\":4658:4673  NagaKidContract */\n      and\n      swap2\n        /* \"MintNagaKid.sol\":4658:4685  NagaKidContract.totalSupply */\n      0x18160ddd\n      swap2\n        /* \"MintNagaKid.sol\":4658:4687  NagaKidContract.totalSupply() */\n      0x04\n      dup1\n      dup4\n      add\n      swap3\n      0x20\n      swap3\n      swap2\n      swap1\n      dup3\n      swap1\n      sub\n      add\n      dup2\n        /* \"MintNagaKid.sol\":4658:4673  NagaKidContract */\n      dup7\n        /* \"MintNagaKid.sol\":4658:4687  NagaKidContract.totalSupply() */\n      gas\n      staticcall\n      iszero\n      dup1\n      iszero\n      tag_269\n      jumpi\n      returndatasize\n      0x00\n      dup1\n      returndatacopy\n      revert(0x00, returndatasize)\n        /* \"@openzeppelin/contracts/access/AccessControl.sol\":5149:5296  function revokeRole(bytes32 role, address account) public virtual override onlyRole(getRoleAdmin(role)) {... */\n    tag_162:\n        /* \"@openzeppelin/contracts/access/AccessControl.sol\":4465:4472  bytes32 */\n      0x00\n        /* \"@openzeppelin/contracts/access/AccessControl.sol\":4491:4503  _roles[role] */\n      dup3\n      dup2\n      mstore\n        /* \"@openzeppelin/contracts/access/AccessControl.sol\":4491:4497  _roles */\n      0x01\n        /* \"@openzeppelin/contracts/access/AccessControl.sol\":4491:4503  _roles[role] */\n      0x20\n      dup2\n      swap1\n      mstore\n      0x40\n      swap1\n      swap2\n      keccak256\n        /* \"@openzeppelin/contracts/access/AccessControl.sol\":4491:4513  _roles[role].adminRole */\n      add\n      sload\n        /* \"@openzeppelin/contracts/access/AccessControl.sol\":2505:2521  _checkRole(role) */\n      tag_308\n        /* \"@openzeppelin/contracts/access/AccessControl.sol\":2516:2520  role */\n      dup2\n        /* \"@openzeppelin/contracts/access/AccessControl.sol\":2505:2515  _checkRole */\n      tag_251\n        /* \"@openzeppelin/contracts/access/AccessControl.sol\":2505:2521  _checkRole(role) */\n      jump\t// in\n    tag_308:\n        /* \"@openzeppelin/contracts/access/AccessControl.sol\":5263:5289  _revokeRole(role, account) */\n      tag_253\n        /* \"@openzeppelin/contracts/access/AccessControl.sol\":5275:5279  role */\n      dup4\n        /* \"@openzeppelin/contracts/access/AccessControl.sol\":5281:5288  account */\n      dup4\n        /* \"@openzeppelin/contracts/access/AccessControl.sol\":5263:5274  _revokeRole */\n      tag_262\n        /* \"@openzeppelin/contracts/access/AccessControl.sol\":5263:5289  _revokeRole(role, account) */\n      jump\t// in\n        /* \"MintNagaKid.sol\":3411:4186  function publicMint(bytes calldata _sig) public payable nonReentrant Paused {... */\n    tag_166:\n        /* \"@openzeppelin/contracts/security/ReentrancyGuard.sol\":1744:1745  2 */\n      0x02\n        /* \"@openzeppelin/contracts/security/ReentrancyGuard.sol\":2325:2332  _status */\n      dup1\n      sload\n        /* \"@openzeppelin/contracts/security/ReentrancyGuard.sol\":2325:2344  _status != _ENTERED */\n      sub\n        /* \"@openzeppelin/contracts/security/ReentrancyGuard.sol\":2317:2380  require(_status != _ENTERED, \"ReentrancyGuard: reentrant call\") */\n      tag_312\n      jumpi\n      mload(0x40)\n      shl(0xe5, 0x461bcd)\n      dup2\n      mstore\n        /* \"#utility.yul\":7164:7166   */\n      0x20\n        /* \"@openzeppelin/contracts/security/ReentrancyGuard.sol\":2317:2380  require(_status != _ENTERED, \"ReentrancyGuard: reentrant call\") */\n      0x04\n      dup3\n      add\n        /* \"#utility.yul\":7146:7167   */\n      mstore\n        /* \"#utility.yul\":7203:7205   */\n      0x1f\n        /* \"#utility.yul\":7183:7201   */\n      0x24\n      dup3\n      add\n        /* \"#utility.yul\":7176:7206   */\n      mstore\n        /* \"#utility.yul\":7242:7275   */\n      0x5265656e7472616e637947756172643a207265656e7472616e742063616c6c00\n        /* \"#utility.yul\":7222:7240   */\n      0x44\n      dup3\n      add\n        /* \"#utility.yul\":7215:7276   */\n      mstore\n        /* \"#utility.yul\":7293:7311   */\n      0x64\n      add\n        /* \"@openzeppelin/contracts/security/ReentrancyGuard.sol\":2317:2380  require(_status != _ENTERED, \"ReentrancyGuard: reentrant call\") */\n      tag_197\n        /* \"#utility.yul\":6962:7317   */\n      jump\n        /* \"@openzeppelin/contracts/security/ReentrancyGuard.sol\":2317:2380  require(_status != _ENTERED, \"ReentrancyGuard: reentrant call\") */\n    tag_312:\n        /* \"@openzeppelin/contracts/security/ReentrancyGuard.sol\":1744:1745  2 */\n      0x02\n        /* \"@openzeppelin/contracts/security/ReentrancyGuard.sol\":2455:2473  _status = _ENTERED */\n      dup1\n      sstore\n        /* \"MintNagaKid.sol\":1368:1377  isPause() */\n      tag_315\n        /* \"MintNagaKid.sol\":1368:1375  isPause */\n      tag_183\n        /* \"MintNagaKid.sol\":1368:1377  isPause() */\n      jump\t// in\n    tag_315:\n        /* \"MintNagaKid.sol\":1368:1386  isPause() == false */\n      iszero\n        /* \"MintNagaKid.sol\":1360:1409  require(isPause() == false,\"NagaKid was Paused.\") */\n      tag_316\n      jumpi\n      mload(0x40)\n      shl(0xe5, 0x461bcd)\n      dup2\n      mstore\n        /* \"#utility.yul\":7524:7526   */\n      0x20\n        /* \"MintNagaKid.sol\":1360:1409  require(isPause() == false,\"NagaKid was Paused.\") */\n      0x04\n      dup3\n      add\n        /* \"#utility.yul\":7506:7527   */\n      mstore\n        /* \"#utility.yul\":7563:7565   */\n      0x13\n        /* \"#utility.yul\":7543:7561   */\n      0x24\n      dup3\n      add\n        /* \"#utility.yul\":7536:7566   */\n      mstore\n      shl(0x69, 0x2730b3b0a5b4b2103bb0b9902830bab9b2b217)\n        /* \"#utility.yul\":7582:7600   */\n      0x44\n      dup3\n      add\n        /* \"#utility.yul\":7575:7624   */\n      mstore\n        /* \"#utility.yul\":7641:7659   */\n      0x64\n      add\n        /* \"MintNagaKid.sol\":1360:1409  require(isPause() == false,\"NagaKid was Paused.\") */\n      tag_197\n        /* \"#utility.yul\":7322:7665   */\n      jump\n        /* \"MintNagaKid.sol\":1360:1409  require(isPause() == false,\"NagaKid was Paused.\") */\n    tag_316:\n        /* \"MintNagaKid.sol\":3508:3524  isPublicMintOpen */\n      sload(0x03)\n      shl(0xa0, 0x01)\n      swap1\n      div\n      0xff\n      and\n        /* \"MintNagaKid.sol\":3508:3532  isPublicMintOpen == true */\n      iszero\n      iszero\n        /* \"MintNagaKid.sol\":3528:3532  true */\n      0x01\n        /* \"MintNagaKid.sol\":3508:3532  isPublicMintOpen == true */\n      eq\n        /* \"MintNagaKid.sol\":3500:3564  require(isPublicMintOpen == true, \"Whitelist not open to mint.\") */\n      tag_319\n      jumpi\n      mload(0x40)\n      shl(0xe5, 0x461bcd)\n      dup2\n      mstore\n        /* \"#utility.yul\":7872:7874   */\n      0x20\n        /* \"MintNagaKid.sol\":3500:3564  require(isPublicMintOpen == true, \"Whitelist not open to mint.\") */\n      0x04\n      dup3\n      add\n        /* \"#utility.yul\":7854:7875   */\n      mstore\n        /* \"#utility.yul\":7911:7913   */\n      0x1b\n        /* \"#utility.yul\":7891:7909   */\n      0x24\n      dup3\n      add\n        /* \"#utility.yul\":7884:7914   */\n      mstore\n        /* \"#utility.yul\":7950:7979   */\n      0x57686974656c697374206e6f74206f70656e20746f206d696e742e0000000000\n        /* \"#utility.yul\":7930:7948   */\n      0x44\n      dup3\n      add\n        /* \"#utility.yul\":7923:7980   */\n      mstore\n        /* \"#utility.yul\":7997:8015   */\n      0x64\n      add\n        /* \"MintNagaKid.sol\":3500:3564  require(isPublicMintOpen == true, \"Whitelist not open to mint.\") */\n      tag_197\n        /* \"#utility.yul\":7670:8021   */\n      jump\n        /* \"MintNagaKid.sol\":3500:3564  require(isPublicMintOpen == true, \"Whitelist not open to mint.\") */\n    tag_319:\n        /* \"MintNagaKid.sol\":3583:3592  tx.origin */\n      origin\n        /* \"MintNagaKid.sol\":3596:3606  msg.sender */\n      caller\n        /* \"MintNagaKid.sol\":3583:3606  tx.origin == msg.sender */\n      eq\n        /* \"MintNagaKid.sol\":3575:3638  require(tx.origin == msg.sender, \"haha Contract can't call me\") */\n      tag_321\n      jumpi\n      mload(0x40)\n      shl(0xe5, 0x461bcd)\n      dup2\n      mstore\n        /* \"#utility.yul\":13036:13038   */\n      0x20\n        /* \"MintNagaKid.sol\":3575:3638  require(tx.origin == msg.sender, \"haha Contract can't call me\") */\n      0x04\n      dup3\n      add\n        /* \"#utility.yul\":13018:13039   */\n      mstore\n        /* \"#utility.yul\":13075:13077   */\n      0x1b\n        /* \"#utility.yul\":13055:13073   */\n      0x24\n      dup3\n      add\n        /* \"#utility.yul\":13048:13078   */\n      mstore\n        /* \"#utility.yul\":13114:13143   */\n      0x6861686120436f6e74726163742063616e27742063616c6c206d650000000000\n        /* \"#utility.yul\":13094:13112   */\n      0x44\n      dup3\n      add\n        /* \"#utility.yul\":13087:13144   */\n      mstore\n        /* \"#utility.yul\":13161:13179   */\n      0x64\n      add\n        /* \"MintNagaKid.sol\":3575:3638  require(tx.origin == msg.sender, \"haha Contract can't call me\") */\n      tag_197\n        /* \"#utility.yul\":12834:13185   */\n      jump\n        /* \"MintNagaKid.sol\":3575:3638  require(tx.origin == msg.sender, \"haha Contract can't call me\") */\n    tag_321:\n        /* \"MintNagaKid.sol\":3672:3682  msg.sender */\n      caller\n        /* \"MintNagaKid.sol\":4522:4526  bool */\n      0x00\n        /* \"MintNagaKid.sol\":4546:4568  _isPublicMinted[_user] */\n      swap1\n      dup2\n      mstore\n        /* \"MintNagaKid.sol\":4546:4561  _isPublicMinted */\n      0x07\n        /* \"MintNagaKid.sol\":4546:4568  _isPublicMinted[_user] */\n      0x20\n      mstore\n      0x40\n      swap1\n      keccak256\n      sload\n      0xff\n      and\n        /* \"MintNagaKid.sol\":3657:3691  isPublicMinted(msg.sender) != true */\n      iszero\n      iszero\n        /* \"MintNagaKid.sol\":3687:3691  true */\n      0x01\n        /* \"MintNagaKid.sol\":3657:3691  isPublicMinted(msg.sender) != true */\n      sub\n        /* \"MintNagaKid.sol\":3649:3719  require(isPublicMinted(msg.sender) != true, \"You are already minted.\") */\n      tag_325\n      jumpi\n      mload(0x40)\n      shl(0xe5, 0x461bcd)\n      dup2\n      mstore\n        /* \"#utility.yul\":8833:8835   */\n      0x20\n        /* \"MintNagaKid.sol\":3649:3719  require(isPublicMinted(msg.sender) != true, \"You are already minted.\") */\n      0x04\n      dup3\n      add\n        /* \"#utility.yul\":8815:8836   */\n      mstore\n        /* \"#utility.yul\":8872:8874   */\n      0x17\n        /* \"#utility.yul\":8852:8870   */\n      0x24\n      dup3\n      add\n        /* \"#utility.yul\":8845:8875   */\n      mstore\n      shl(0x49, 0x2cb7ba9030b9329030b63932b0b23c9036b4b73a32b217)\n        /* \"#utility.yul\":8891:8909   */\n      0x44\n      dup3\n      add\n        /* \"#utility.yul\":8884:8937   */\n      mstore\n        /* \"#utility.yul\":8954:8972   */\n      0x64\n      add\n        /* \"MintNagaKid.sol\":3649:3719  require(isPublicMinted(msg.sender) != true, \"You are already minted.\") */\n      tag_197\n        /* \"#utility.yul\":8631:8978   */\n      jump\n        /* \"MintNagaKid.sol\":3649:3719  require(isPublicMinted(msg.sender) != true, \"You are already minted.\") */\n    tag_325:\n        /* \"MintNagaKid.sol\":3761:3765  1111 */\n      0x0457\n        /* \"MintNagaKid.sol\":3738:3754  getTotalSupply() */\n      tag_327\n        /* \"MintNagaKid.sol\":3738:3752  getTotalSupply */\n      tag_157\n        /* \"MintNagaKid.sol\":3738:3754  getTotalSupply() */\n      jump\t// in\n    tag_327:\n        /* \"MintNagaKid.sol\":3738:3758  getTotalSupply() + 1 */\n      tag_328\n      swap1\n        /* \"MintNagaKid.sol\":3757:3758  1 */\n      0x01\n        /* \"MintNagaKid.sol\":3738:3758  getTotalSupply() + 1 */\n      tag_210\n      jump\t// in\n    tag_328:\n        /* \"MintNagaKid.sol\":3738:3765  getTotalSupply() + 1 < 1111 */\n      lt\n        /* \"MintNagaKid.sol\":3730:3787  require(getTotalSupply() + 1 < 1111,\"Over Supply Amount\") */\n      tag_329\n      jumpi\n      mload(0x40)\n      shl(0xe5, 0x461bcd)\n      dup2\n      mstore\n        /* \"#utility.yul\":13392:13394   */\n      0x20\n        /* \"MintNagaKid.sol\":3730:3787  require(getTotalSupply() + 1 < 1111,\"Over Supply Amount\") */\n      0x04\n      dup3\n      add\n        /* \"#utility.yul\":13374:13395   */\n      mstore\n        /* \"#utility.yul\":13431:13433   */\n      0x12\n        /* \"#utility.yul\":13411:13429   */\n      0x24\n      dup3\n      add\n        /* \"#utility.yul\":13404:13434   */\n      mstore\n      shl(0x72, 0x13dd995c8814dd5c1c1b1e48105b5bdd5b9d)\n        /* \"#utility.yul\":13450:13468   */\n      0x44\n      dup3\n      add\n        /* \"#utility.yul\":13443:13491   */\n      mstore\n        /* \"#utility.yul\":13508:13526   */\n      0x64\n      add\n        /* \"MintNagaKid.sol\":3730:3787  require(getTotalSupply() + 1 < 1111,\"Over Supply Amount\") */\n      tag_197\n        /* \"#utility.yul\":13190:13532   */\n      jump\n        /* \"MintNagaKid.sol\":3730:3787  require(getTotalSupply() + 1 < 1111,\"Over Supply Amount\") */\n    tag_329:\n        /* \"MintNagaKid.sol\":3806:3821  NagaKidContract */\n      sload(0x03)\n        /* \"MintNagaKid.sol\":3830:3859  NagaKidContract.MINTER_ROLE() */\n      0x40\n      dup1\n      mload\n      shl(0xe0, 0xd5391393)\n      dup2\n      mstore\n      swap1\n      mload\n      sub(shl(0xa0, 0x01), 0x01)\n        /* \"MintNagaKid.sol\":3806:3821  NagaKidContract */\n      swap1\n      swap3\n      and\n      swap2\n        /* \"MintNagaKid.sol\":3806:3829  NagaKidContract.hasRole */\n      0x91d14854\n      swap2\n        /* \"MintNagaKid.sol\":3806:3821  NagaKidContract */\n      dup4\n      swap2\n        /* \"MintNagaKid.sol\":3830:3857  NagaKidContract.MINTER_ROLE */\n      0xd5391393\n      swap2\n        /* \"MintNagaKid.sol\":3830:3859  NagaKidContract.MINTER_ROLE() */\n      0x04\n      dup1\n      dup3\n      add\n      swap3\n      0x20\n      swap3\n      swap1\n      swap2\n      swap1\n      dup3\n      swap1\n      sub\n      add\n      dup2\n        /* \"MintNagaKid.sol\":3806:3821  NagaKidContract */\n      dup7\n        /* \"MintNagaKid.sol\":3830:3859  NagaKidContract.MINTER_ROLE() */\n      gas\n      staticcall\n      iszero\n      dup1\n      iszero\n      tag_333\n      jumpi\n      returndatasize\n      0x00\n      dup1\n      returndatacopy\n      revert(0x00, returndatasize)\n    tag_333:\n      pop\n      pop\n      pop\n      pop\n      mload(0x40)\n      returndatasize\n      not(0x1f)\n      0x1f\n      dup3\n      add\n      and\n      dup3\n      add\n      dup1\n      0x40\n      mstore\n      pop\n      dup2\n      add\n      swap1\n      tag_334\n      swap2\n      swap1\n      tag_221\n      jump\t// in\n    tag_334:\n        /* \"MintNagaKid.sol\":3806:3874  NagaKidContract.hasRole(NagaKidContract.MINTER_ROLE(),address(this)) */\n      mload(0x40)\n      not(sub(shl(0xe0, 0x01), 0x01))\n      0xe0\n      dup5\n      swap1\n      shl\n      and\n      dup2\n      mstore\n      0x04\n      dup2\n      add\n        /* \"#utility.yul\":9346:9371   */\n      swap2\n      swap1\n      swap2\n      mstore\n        /* \"MintNagaKid.sol\":3868:3872  this */\n      address\n        /* \"#utility.yul\":9387:9405   */\n      0x24\n      dup3\n      add\n        /* \"#utility.yul\":9380:9440   */\n      mstore\n        /* \"#utility.yul\":9319:9337   */\n      0x44\n      add\n        /* \"MintNagaKid.sol\":3806:3874  NagaKidContract.hasRole(NagaKidContract.MINTER_ROLE(),address(this)) */\n      0x20\n      mload(0x40)\n      dup1\n      dup4\n      sub\n      dup2\n      dup7\n      gas\n      staticcall\n      iszero\n      dup1\n      iszero\n      tag_337\n      jumpi\n      returndatasize\n      0x00\n      dup1\n      returndatacopy\n      revert(0x00, returndatasize)\n    tag_337:\n      pop\n      pop\n      pop\n      pop\n      mload(0x40)\n      returndatasize\n      not(0x1f)\n      0x1f\n      dup3\n      add\n      and\n      dup3\n      add\n      dup1\n      0x40\n      mstore\n      pop\n      dup2\n      add\n      swap1\n      tag_338\n      swap2\n      swap1\n      tag_227\n      jump\t// in\n    tag_338:\n        /* \"MintNagaKid.sol\":3806:3882  NagaKidContract.hasRole(NagaKidContract.MINTER_ROLE(),address(this)) == true */\n      iszero\n      iszero\n        /* \"MintNagaKid.sol\":3878:3882  true */\n      0x01\n        /* \"MintNagaKid.sol\":3806:3882  NagaKidContract.hasRole(NagaKidContract.MINTER_ROLE(),address(this)) == true */\n      eq\n        /* \"MintNagaKid.sol\":3798:3928  require(NagaKidContract.hasRole(NagaKidContract.MINTER_ROLE(),address(this)) == true,\"This Contract not have permission to mint.\") */\n      tag_339\n      jumpi\n      mload(0x40)\n      shl(0xe5, 0x461bcd)\n      dup2\n      mstore\n      0x04\n      add\n      tag_197\n      swap1\n      tag_230\n      jump\t// in\n    tag_339:\n        /* \"MintNagaKid.sol\":3954:3960  signer */\n      sload(0x04)\n        /* \"MintNagaKid.sol\":3947:3977  verify(signer,msg.sender,_sig) */\n      0x40\n      dup1\n      mload\n      0x20\n      0x1f\n      dup6\n      add\n      dup2\n      swap1\n      div\n      dup2\n      mul\n      dup3\n      add\n      dup2\n      add\n      swap1\n      swap3\n      mstore\n      dup4\n      dup2\n      mstore\n      tag_341\n      swap3\n      sub(shl(0xa0, 0x01), 0x01)\n        /* \"MintNagaKid.sol\":3954:3960  signer */\n      and\n      swap2\n        /* \"MintNagaKid.sol\":3961:3971  msg.sender */\n      caller\n      swap2\n        /* \"MintNagaKid.sol\":3947:3977  verify(signer,msg.sender,_sig) */\n      swap1\n        /* \"MintNagaKid.sol\":3972:3976  _sig */\n      dup7\n      swap1\n      dup7\n      swap1\n      dup2\n      swap1\n        /* \"MintNagaKid.sol\":3947:3977  verify(signer,msg.sender,_sig) */\n      dup5\n      add\n        /* \"MintNagaKid.sol\":3972:3976  _sig */\n      dup4\n      dup3\n      dup1\n      dup3\n        /* \"MintNagaKid.sol\":3947:3977  verify(signer,msg.sender,_sig) */\n      dup5\n      calldatacopy\n      0x00\n      swap3\n      add\n      swap2\n      swap1\n      swap2\n      mstore\n      pop\n        /* \"MintNagaKid.sol\":3947:3953  verify */\n      tag_95\n      swap3\n      pop\n      pop\n      pop\n        /* \"MintNagaKid.sol\":3947:3977  verify(signer,msg.sender,_sig) */\n      jump\t// in\n    tag_341:\n        /* \"MintNagaKid.sol\":3939:4016  require(verify(signer,msg.sender,_sig), \"Unauthorized PublicMint This User.\") */\n      tag_342\n      jumpi\n      mload(0x40)\n      shl(0xe5, 0x461bcd)\n      dup2\n      mstore\n        /* \"#utility.yul\":13739:13741   */\n      0x20\n        /* \"MintNagaKid.sol\":3939:4016  require(verify(signer,msg.sender,_sig), \"Unauthorized PublicMint This User.\") */\n      0x04\n      dup3\n      add\n        /* \"#utility.yul\":13721:13742   */\n      mstore\n        /* \"#utility.yul\":13778:13780   */\n      0x22\n        /* \"#utility.yul\":13758:13776   */\n      0x24\n      dup3\n      add\n        /* \"#utility.yul\":13751:13781   */\n      mstore\n        /* \"#utility.yul\":13817:13851   */\n      0x556e617574686f72697a6564205075626c69634d696e74205468697320557365\n        /* \"#utility.yul\":13797:13815   */\n      0x44\n      dup3\n      add\n        /* \"#utility.yul\":13790:13852   */\n      mstore\n      shl(0xf1, 0x3917)\n        /* \"#utility.yul\":13868:13886   */\n      0x64\n      dup3\n      add\n        /* \"#utility.yul\":13861:13893   */\n      mstore\n        /* \"#utility.yul\":13910:13929   */\n      0x84\n      add\n        /* \"MintNagaKid.sol\":3939:4016  require(verify(signer,msg.sender,_sig), \"Unauthorized PublicMint This User.\") */\n      tag_197\n        /* \"#utility.yul\":13537:13935   */\n      jump\n        /* \"MintNagaKid.sol\":3939:4016  require(verify(signer,msg.sender,_sig), \"Unauthorized PublicMint This User.\") */\n    tag_342:\n        /* \"MintNagaKid.sol\":4045:4055  msg.sender */\n      caller\n        /* \"MintNagaKid.sol\":4029:4056  _isPublicMinted[msg.sender] */\n      0x00\n      dup2\n      dup2\n      mstore\n        /* \"MintNagaKid.sol\":4029:4044  _isPublicMinted */\n      0x07\n        /* \"MintNagaKid.sol\":4029:4056  _isPublicMinted[msg.sender] */\n      0x20\n      mstore\n      0x40\n      swap1\n      dup2\n      swap1\n      keccak256\n        /* \"MintNagaKid.sol\":4029:4063  _isPublicMinted[msg.sender] = true */\n      dup1\n      sload\n      not(0xff)\n      and\n        /* \"MintNagaKid.sol\":4059:4063  true */\n      0x01\n        /* \"MintNagaKid.sol\":4029:4063  _isPublicMinted[msg.sender] = true */\n      or\n      swap1\n      sstore\n        /* \"MintNagaKid.sol\":4074:4089  NagaKidContract */\n      sload(0x03)\n        /* \"MintNagaKid.sol\":4074:4110  NagaKidContract.safeMint(msg.sender) */\n      swap1\n      mload\n      shl(0xe0, 0x40d097c3)\n      dup2\n      mstore\n      0x04\n      dup2\n      add\n        /* \"#utility.yul\":1395:1446   */\n      swap3\n      swap1\n      swap3\n      mstore\n      sub(shl(0xa0, 0x01), 0x01)\n        /* \"MintNagaKid.sol\":4074:4089  NagaKidContract */\n      and\n      swap1\n        /* \"MintNagaKid.sol\":4074:4098  NagaKidContract.safeMint */\n      0x40d097c3\n      swap1\n        /* \"#utility.yul\":1368:1386   */\n      0x24\n      add\n        /* \"MintNagaKid.sol\":4074:4110  NagaKidContract.safeMint(msg.sender) */\n      0x00\n      mload(0x40)\n      dup1\n      dup4\n      sub\n      dup2\n      0x00\n      dup8\n      dup1\n      extcodesize\n      iszero\n      dup1\n      iszero\n      tag_346\n      jumpi\n      0x00\n      dup1\n      revert\n    tag_346:\n      pop\n      gas\n      call\n      iszero\n      dup1\n      iszero\n      tag_348\n      jumpi\n      returndatasize\n      0x00\n      dup1\n      returndatacopy\n      revert(0x00, returndatasize)\n    tag_348:\n      pop\n      pop\n        /* \"MintNagaKid.sol\":4138:4178  PublicMinted(msg.sender,block.timestamp) */\n      mload(0x40)\n        /* \"MintNagaKid.sol\":4162:4177  block.timestamp */\n      timestamp\n        /* \"#utility.yul\":1031:1056   */\n      dup2\n      mstore\n        /* \"MintNagaKid.sol\":4151:4161  msg.sender */\n      caller\n      swap3\n      pop\n        /* \"MintNagaKid.sol\":4138:4178  PublicMinted(msg.sender,block.timestamp) */\n      0xab9980fb1d2916bce9017edd1be458e3f56d0899b3367cb3a8be97483fbe069b\n      swap2\n      pop\n        /* \"#utility.yul\":1019:1021   */\n      0x20\n        /* \"#utility.yul\":1004:1022   */\n      add\n        /* \"MintNagaKid.sol\":4138:4178  PublicMinted(msg.sender,block.timestamp) */\n      mload(0x40)\n      dup1\n      swap2\n      sub\n      swap1\n      log2\n      pop\n      pop\n        /* \"@openzeppelin/contracts/security/ReentrancyGuard.sol\":1701:1702  1 */\n      0x01\n        /* \"@openzeppelin/contracts/security/ReentrancyGuard.sol\":2628:2635  _status */\n      0x02\n        /* \"@openzeppelin/contracts/security/ReentrancyGuard.sol\":2628:2650  _status = _NOT_ENTERED */\n      sstore\n        /* \"MintNagaKid.sol\":3411:4186  function publicMint(bytes calldata _sig) public payable nonReentrant Paused {... */\n      jump\t// out\n        /* \"VerifySignature.sol\":267:761  function getEthSignedMessageHash(bytes32 _messageHash)... */\n    tag_175:\n        /* \"VerifySignature.sol\":611:738  abi.encodePacked(... */\n      mload(0x40)\n        /* \"#utility.yul\":14182:14248   */\n      0x19457468657265756d205369676e6564204d6573736167653a0a333200000000\n        /* \"VerifySignature.sol\":611:738  abi.encodePacked(... */\n      0x20\n      dup3\n      add\n        /* \"#utility.yul\":14170:14249   */\n      mstore\n        /* \"#utility.yul\":14265:14277   */\n      0x3c\n      dup2\n      add\n        /* \"#utility.yul\":14258:14286   */\n      dup3\n      swap1\n      mstore\n        /* \"VerifySignature.sol\":370:377  bytes32 */\n      0x00\n      swap1\n        /* \"#utility.yul\":14302:14314   */\n      0x5c\n      add\n        /* \"VerifySignature.sol\":611:738  abi.encodePacked(... */\n      tag_192\n        /* \"#utility.yul\":13940:14320   */\n      jump\n        /* \"MintNagaKid.sol\":1923:2098  function setWhitelistMintOpen(bool _isOpen) public onlyRole(DEFAULT_ADMIN_ROLE) {... */\n    tag_180:\n        /* \"@openzeppelin/contracts/access/AccessControl.sol\":2072:2076  0x00 */\n      0x00\n        /* \"@openzeppelin/contracts/access/AccessControl.sol\":2505:2521  _checkRole(role) */\n      tag_355\n        /* \"@openzeppelin/contracts/access/AccessControl.sol\":2072:2076  0x00 */\n      dup2\n        /* \"@openzeppelin/contracts/access/AccessControl.sol\":2505:2515  _checkRole */\n      tag_251\n        /* \"@openzeppelin/contracts/access/AccessControl.sol\":2505:2521  _checkRole(role) */\n      jump\t// in\n    tag_355:\n        /* \"MintNagaKid.sol\":2014:2033  isWhitelistMintOpen */\n      0x03\n        /* \"MintNagaKid.sol\":2014:2043  isWhitelistMintOpen = _isOpen */\n      dup1\n      sload\n      dup4\n      iszero\n      iszero\n      shl(0xa8, 0x01)\n      mul\n      not(shl(0xa8, 0xff))\n      swap1\n      swap2\n      and\n      or\n      swap1\n      sstore\n        /* \"MintNagaKid.sol\":2061:2090  SetWhitelistMintOpen(_isOpen) */\n      mload(0x40)\n      0x1e78b6fb38a6776b3b021a6298e924f52991aa2bb97dd89e0a8cd9765df86367\n      swap1\n      tag_276\n      swap1\n        /* \"MintNagaKid.sol\":2036:2043  _isOpen */\n      dup5\n        /* \"#utility.yul\":470:484   */\n      iszero\n        /* \"#utility.yul\":463:485   */\n      iszero\n        /* \"#utility.yul\":445:486   */\n      dup2\n      mstore\n        /* \"#utility.yul\":433:435   */\n      0x20\n        /* \"#utility.yul\":418:436   */\n      add\n      swap1\n        /* \"#utility.yul\":305:492   */\n      jump\n        /* \"MintNagaKid.sol\":4818:4914  function isPause() public view returns (bool) {... */\n    tag_183:\n        /* \"MintNagaKid.sol\":4882:4897  NagaKidContract */\n      sload(0x03)\n        /* \"MintNagaKid.sol\":4882:4906  NagaKidContract.paused() */\n      0x40\n      dup1\n      mload\n      shl(0xe0, 0x5c975abb)\n      dup2\n      mstore\n      swap1\n      mload\n        /* \"MintNagaKid.sol\":4858:4862  bool */\n      0x00\n      swap3\n      sub(shl(0xa0, 0x01), 0x01)\n        /* \"MintNagaKid.sol\":4882:4897  NagaKidContract */\n      and\n      swap2\n        /* \"MintNagaKid.sol\":4882:4904  NagaKidContract.paused */\n      0x5c975abb\n      swap2\n        /* \"MintNagaKid.sol\":4882:4906  NagaKidContract.paused() */\n      0x04\n      dup1\n      dup4\n      add\n      swap3\n      0x20\n      swap3\n      swap2\n      swap1\n      dup3\n      swap1\n      sub\n      add\n      dup2\n        /* \"MintNagaKid.sol\":4882:4897  NagaKidContract */\n      dup7\n        /* \"MintNagaKid.sol\":4882:4906  NagaKidContract.paused() */\n      gas\n      staticcall\n      iszero\n      dup1\n      iszero\n      tag_360\n      jumpi\n      returndatasize\n      0x00\n      dup1\n      returndatacopy\n      revert(0x00, returndatasize)\n    tag_360:\n      pop\n      pop\n      pop\n      pop\n      mload(0x40)\n      returndatasize\n      not(0x1f)\n      0x1f\n      dup3\n      add\n      and\n      dup3\n      add\n      dup1\n      0x40\n      mstore\n      pop\n      dup2\n      add\n      swap1\n      tag_270\n      swap2\n      swap1\n      tag_227\n      jump\t// in\n        /* \"@openzeppelin/contracts/utils/Strings.sol\":1588:2029  function toHexString(uint256 value, uint256 length) internal pure returns (string memory) {... */\n    tag_185:\n        /* \"@openzeppelin/contracts/utils/Strings.sol\":1663:1676  string memory */\n      0x60\n        /* \"@openzeppelin/contracts/utils/Strings.sol\":1688:1707  bytes memory buffer */\n      0x00\n        /* \"@openzeppelin/contracts/utils/Strings.sol\":1720:1730  2 * length */\n      tag_363\n        /* \"@openzeppelin/contracts/utils/Strings.sol\":1724:1730  length */\n      dup4\n        /* \"@openzeppelin/contracts/utils/Strings.sol\":1720:1721  2 */\n      0x02\n        /* \"@openzeppelin/contracts/utils/Strings.sol\":1720:1730  2 * length */\n      tag_364\n      jump\t// in\n    tag_363:\n        /* \"@openzeppelin/contracts/utils/Strings.sol\":1720:1734  2 * length + 2 */\n      tag_365\n      swap1\n        /* \"@openzeppelin/contracts/utils/Strings.sol\":1733:1734  2 */\n      0x02\n        /* \"@openzeppelin/contracts/utils/Strings.sol\":1720:1734  2 * length + 2 */\n      tag_210\n      jump\t// in\n    tag_365:\n        /* \"@openzeppelin/contracts/utils/Strings.sol\":1710:1735  new bytes(2 * length + 2) */\n      0xffffffffffffffff\n      dup2\n      gt\n      iszero\n      tag_367\n      jumpi\n      tag_367\n      tag_368\n      jump\t// in\n    tag_367:\n      mload(0x40)\n      swap1\n      dup1\n      dup3\n      mstore\n      dup1\n      0x1f\n      add\n      not(0x1f)\n      and\n      0x20\n      add\n      dup3\n      add\n      0x40\n      mstore\n      dup1\n      iszero\n      tag_369\n      jumpi\n      0x20\n      dup3\n      add\n      dup2\n      dup1\n      calldatasize\n      dup4\n      calldatacopy\n      add\n      swap1\n      pop\n    tag_369:\n      pop\n        /* \"@openzeppelin/contracts/utils/Strings.sol\":1688:1735  bytes memory buffer = new bytes(2 * length + 2) */\n      swap1\n      pop\n      shl(0xfc, 0x03)\n        /* \"@openzeppelin/contracts/utils/Strings.sol\":1745:1751  buffer */\n      dup2\n        /* \"@openzeppelin/contracts/utils/Strings.sol\":1752:1753  0 */\n      0x00\n        /* \"@openzeppelin/contracts/utils/Strings.sol\":1745:1754  buffer[0] */\n      dup2\n      mload\n      dup2\n      lt\n      tag_371\n      jumpi\n      tag_371\n      tag_372\n      jump\t// in\n    tag_371:\n      0x20\n      add\n      add\n        /* \"@openzeppelin/contracts/utils/Strings.sol\":1745:1760  buffer[0] = \"0\" */\n      swap1\n      not(sub(shl(0xf8, 0x01), 0x01))\n      and\n      swap1\n      dup2\n      0x00\n      byte\n      swap1\n      mstore8\n      pop\n      shl(0xfb, 0x0f)\n        /* \"@openzeppelin/contracts/utils/Strings.sol\":1770:1776  buffer */\n      dup2\n        /* \"@openzeppelin/contracts/utils/Strings.sol\":1777:1778  1 */\n      0x01\n        /* \"@openzeppelin/contracts/utils/Strings.sol\":1770:1779  buffer[1] */\n      dup2\n      mload\n      dup2\n      lt\n      tag_374\n      jumpi\n      tag_374\n      tag_372\n      jump\t// in\n    tag_374:\n      0x20\n      add\n      add\n        /* \"@openzeppelin/contracts/utils/Strings.sol\":1770:1785  buffer[1] = \"x\" */\n      swap1\n      not(sub(shl(0xf8, 0x01), 0x01))\n      and\n      swap1\n      dup2\n      0x00\n      byte\n      swap1\n      mstore8\n      pop\n        /* \"@openzeppelin/contracts/utils/Strings.sol\":1800:1809  uint256 i */\n      0x00\n        /* \"@openzeppelin/contracts/utils/Strings.sol\":1812:1822  2 * length */\n      tag_378\n        /* \"@openzeppelin/contracts/utils/Strings.sol\":1816:1822  length */\n      dup5\n        /* \"@openzeppelin/contracts/utils/Strings.sol\":1812:1813  2 */\n      0x02\n        /* \"@openzeppelin/contracts/utils/Strings.sol\":1812:1822  2 * length */\n      tag_364\n      jump\t// in\n    tag_378:\n        /* \"@openzeppelin/contracts/utils/Strings.sol\":1812:1826  2 * length + 1 */\n      tag_379\n      swap1\n        /* \"@openzeppelin/contracts/utils/Strings.sol\":1825:1826  1 */\n      0x01\n        /* \"@openzeppelin/contracts/utils/Strings.sol\":1812:1826  2 * length + 1 */\n      tag_210\n      jump\t// in\n    tag_379:\n        /* \"@openzeppelin/contracts/utils/Strings.sol\":1800:1826  uint256 i = 2 * length + 1 */\n      swap1\n      pop\n        /* \"@openzeppelin/contracts/utils/Strings.sol\":1795:1927  for (uint256 i = 2 * length + 1; i > 1; --i) {... */\n    tag_375:\n        /* \"@openzeppelin/contracts/utils/Strings.sol\":1832:1833  1 */\n      0x01\n        /* \"@openzeppelin/contracts/utils/Strings.sol\":1828:1829  i */\n      dup2\n        /* \"@openzeppelin/contracts/utils/Strings.sol\":1828:1833  i > 1 */\n      gt\n        /* \"@openzeppelin/contracts/utils/Strings.sol\":1795:1927  for (uint256 i = 2 * length + 1; i > 1; --i) {... */\n      iszero\n      tag_376\n      jumpi\n      shl(0x81, 0x181899199a1a9b1b9c1cb0b131b232b3)\n        /* \"@openzeppelin/contracts/utils/Strings.sol\":1879:1884  value */\n      dup6\n        /* \"@openzeppelin/contracts/utils/Strings.sol\":1887:1890  0xf */\n      0x0f\n        /* \"@openzeppelin/contracts/utils/Strings.sol\":1879:1890  value & 0xf */\n      and\n        /* \"@openzeppelin/contracts/utils/Strings.sol\":1866:1891  _HEX_SYMBOLS[value & 0xf] */\n      0x10\n      dup2\n      lt\n      tag_381\n      jumpi\n      tag_381\n      tag_372\n      jump\t// in\n    tag_381:\n      byte\n      0xf8\n      shl\n        /* \"@openzeppelin/contracts/utils/Strings.sol\":1854:1860  buffer */\n      dup3\n        /* \"@openzeppelin/contracts/utils/Strings.sol\":1861:1862  i */\n      dup3\n        /* \"@openzeppelin/contracts/utils/Strings.sol\":1854:1863  buffer[i] */\n      dup2\n      mload\n      dup2\n      lt\n      tag_383\n      jumpi\n      tag_383\n      tag_372\n      jump\t// in\n    tag_383:\n      0x20\n      add\n      add\n        /* \"@openzeppelin/contracts/utils/Strings.sol\":1854:1891  buffer[i] = _HEX_SYMBOLS[value & 0xf] */\n      swap1\n      not(sub(shl(0xf8, 0x01), 0x01))\n      and\n      swap1\n      dup2\n      0x00\n      byte\n      swap1\n      mstore8\n      pop\n        /* \"@openzeppelin/contracts/utils/Strings.sol\":1915:1916  4 */\n      0x04\n        /* \"@openzeppelin/contracts/utils/Strings.sol\":1905:1916  value >>= 4 */\n      swap5\n      swap1\n      swap5\n      shr\n      swap4\n        /* \"@openzeppelin/contracts/utils/Strings.sol\":1835:1838  --i */\n      tag_384\n      dup2\n      tag_385\n      jump\t// in\n    tag_384:\n      swap1\n      pop\n        /* \"@openzeppelin/contracts/utils/Strings.sol\":1795:1927  for (uint256 i = 2 * length + 1; i > 1; --i) {... */\n      jump(tag_375)\n    tag_376:\n      pop\n        /* \"@openzeppelin/contracts/utils/Strings.sol\":1944:1954  value == 0 */\n      dup4\n      iszero\n        /* \"@openzeppelin/contracts/utils/Strings.sol\":1936:1991  require(value == 0, \"Strings: hex length insufficient\") */\n      tag_386\n      jumpi\n      mload(0x40)\n      shl(0xe5, 0x461bcd)\n      dup2\n      mstore\n        /* \"#utility.yul\":14973:14975   */\n      0x20\n        /* \"@openzeppelin/contracts/utils/Strings.sol\":1936:1991  require(value == 0, \"Strings: hex length insufficient\") */\n      0x04\n      dup3\n      add\n        /* \"#utility.yul\":14955:14976   */\n      dup2\n      swap1\n      mstore\n        /* \"#utility.yul\":14992:15010   */\n      0x24\n      dup3\n      add\n        /* \"#utility.yul\":14985:15015   */\n      mstore\n        /* \"#utility.yul\":15051:15085   */\n      0x537472696e67733a20686578206c656e67746820696e73756666696369656e74\n        /* \"#utility.yul\":15031:15049   */\n      0x44\n      dup3\n      add\n        /* \"#utility.yul\":15024:15086   */\n      mstore\n        /* \"#utility.yul\":15103:15121   */\n      0x64\n      add\n        /* \"@openzeppelin/contracts/utils/Strings.sol\":1936:1991  require(value == 0, \"Strings: hex length insufficient\") */\n      tag_197\n        /* \"#utility.yul\":14771:15127   */\n      jump\n        /* \"@openzeppelin/contracts/utils/Strings.sol\":1936:1991  require(value == 0, \"Strings: hex length insufficient\") */\n    tag_386:\n        /* \"@openzeppelin/contracts/utils/Strings.sol\":2015:2021  buffer */\n      swap4\n        /* \"@openzeppelin/contracts/utils/Strings.sol\":1588:2029  function toHexString(uint256 value, uint256 length) internal pure returns (string memory) {... */\n      swap3\n      pop\n      pop\n      pop\n      jump\t// out\n        /* \"Whitelist.sol\":195:598  function isWhitelist(... */\n    tag_232:\n        /* \"Whitelist.sol\":332:336  bool */\n      0x00\n        /* \"Whitelist.sol\":353:363  merkleRoot */\n      dup1\n      sload\n        /* \"Whitelist.sol\":353:368  merkleRoot == 0 */\n      dup2\n      sub\n        /* \"Whitelist.sol\":349:409  if (merkleRoot == 0) {... */\n      tag_391\n      jumpi\n      pop\n        /* \"Whitelist.sol\":392:397  false */\n      0x00\n        /* \"Whitelist.sol\":385:397  return false */\n      jump(tag_390)\n        /* \"Whitelist.sol\":349:409  if (merkleRoot == 0) {... */\n    tag_391:\n        /* \"Whitelist.sol\":441:590  MerkleProof.verify(... */\n      tag_392\n        /* \"Whitelist.sol\":478:484  _proof */\n      dup6\n      dup6\n        /* \"Whitelist.sol\":441:590  MerkleProof.verify(... */\n      dup1\n      dup1\n      0x20\n      mul\n      0x20\n      add\n      mload(0x40)\n      swap1\n      dup2\n      add\n      0x40\n      mstore\n      dup1\n      swap4\n      swap3\n      swap2\n      swap1\n      dup2\n      dup2\n      mstore\n      0x20\n      add\n      dup4\n      dup4\n      0x20\n      mul\n      dup1\n      dup3\n      dup5\n      calldatacopy\n      0x00\n      swap3\n      add\n      dup3\n      swap1\n      mstore\n      pop\n        /* \"Whitelist.sol\":503:513  merkleRoot */\n      sload\n        /* \"Whitelist.sol\":542:574  abi.encodePacked(_user, _amount) */\n      mload(0x40)\n      not(0xffffffffffffffffffffffff)\n        /* \"#utility.yul\":15309:15311   */\n      0x60\n        /* \"#utility.yul\":15305:15320   */\n      dup12\n      swap1\n      shl\n        /* \"#utility.yul\":15301:15354   */\n      and\n        /* \"Whitelist.sol\":542:574  abi.encodePacked(_user, _amount) */\n      0x20\n      dup3\n      add\n        /* \"#utility.yul\":15289:15355   */\n      mstore\n        /* \"#utility.yul\":15371:15383   */\n      0x34\n      dup2\n      add\n        /* \"#utility.yul\":15364:15392   */\n      dup10\n      swap1\n      mstore\n        /* \"Whitelist.sol\":503:513  merkleRoot */\n      swap1\n      swap4\n      pop\n        /* \"#utility.yul\":15408:15420   */\n      0x54\n      add\n      swap2\n      pop\n        /* \"Whitelist.sol\":542:574  abi.encodePacked(_user, _amount) */\n      tag_393\n      swap1\n      pop\n        /* \"#utility.yul\":15132:15426   */\n      jump\n        /* \"Whitelist.sol\":542:574  abi.encodePacked(_user, _amount) */\n    tag_393:\n      mload(0x40)\n      0x20\n      dup2\n      dup4\n      sub\n      sub\n      dup2\n      mstore\n      swap1\n      0x40\n      mstore\n        /* \"Whitelist.sol\":532:575  keccak256(abi.encodePacked(_user, _amount)) */\n      dup1\n      mload\n      swap1\n      0x20\n      add\n      keccak256\n        /* \"Whitelist.sol\":441:459  MerkleProof.verify */\n      tag_395\n        /* \"Whitelist.sol\":441:590  MerkleProof.verify(... */\n      jump\t// in\n    tag_392:\n        /* \"Whitelist.sol\":421:590  return... */\n      swap1\n      pop\n        /* \"Whitelist.sol\":195:598  function isWhitelist(... */\n    tag_390:\n      swap5\n      swap4\n      pop\n      pop\n      pop\n      pop\n      jump\t// out\n        /* \"@openzeppelin/contracts/access/AccessControl.sol\":3334:3437  function _checkRole(bytes32 role) internal view virtual {... */\n    tag_251:\n        /* \"@openzeppelin/contracts/access/AccessControl.sol\":3400:3430  _checkRole(role, _msgSender()) */\n      tag_397\n        /* \"@openzeppelin/contracts/access/AccessControl.sol\":3411:3415  role */\n      dup2\n        /* \"@openzeppelin/contracts/utils/Context.sol\":719:729  msg.sender */\n      caller\n        /* \"@openzeppelin/contracts/access/AccessControl.sol\":3400:3410  _checkRole */\n      tag_399\n        /* \"@openzeppelin/contracts/access/AccessControl.sol\":3400:3430  _checkRole(role, _msgSender()) */\n      jump\t// in\n    tag_397:\n        /* \"@openzeppelin/contracts/access/AccessControl.sol\":3334:3437  function _checkRole(bytes32 role) internal view virtual {... */\n      pop\n      jump\t// out\n        /* \"@openzeppelin/contracts/access/AccessControl.sol\":7244:7477  function _grantRole(bytes32 role, address account) internal virtual {... */\n    tag_254:\n        /* \"@openzeppelin/contracts/access/AccessControl.sol\":7327:7349  hasRole(role, account) */\n      tag_401\n        /* \"@openzeppelin/contracts/access/AccessControl.sol\":7335:7339  role */\n      dup3\n        /* \"@openzeppelin/contracts/access/AccessControl.sol\":7341:7348  account */\n      dup3\n        /* \"@openzeppelin/contracts/access/AccessControl.sol\":7327:7334  hasRole */\n      tag_127\n        /* \"@openzeppelin/contracts/access/AccessControl.sol\":7327:7349  hasRole(role, account) */\n      jump\t// in\n    tag_401:\n        /* \"@openzeppelin/contracts/access/AccessControl.sol\":7322:7471  if (!hasRole(role, account)) {... */\n      tag_261\n      jumpi\n        /* \"@openzeppelin/contracts/access/AccessControl.sol\":7365:7377  _roles[role] */\n      0x00\n      dup3\n      dup2\n      mstore\n        /* \"@openzeppelin/contracts/access/AccessControl.sol\":7397:7401  true */\n      0x01\n        /* \"@openzeppelin/contracts/access/AccessControl.sol\":7365:7377  _roles[role] */\n      0x20\n      dup2\n      dup2\n      mstore\n      0x40\n      dup1\n      dup5\n      keccak256\n      sub(shl(0xa0, 0x01), 0x01)\n        /* \"@openzeppelin/contracts/access/AccessControl.sol\":7365:7394  _roles[role].members[account] */\n      dup7\n      and\n      dup1\n      dup7\n      mstore\n      swap3\n      mstore\n      dup1\n      dup5\n      keccak256\n        /* \"@openzeppelin/contracts/access/AccessControl.sol\":7365:7401  _roles[role].members[account] = true */\n      dup1\n      sload\n      not(0xff)\n      and\n      swap1\n      swap4\n      or\n      swap1\n      swap3\n      sstore\n        /* \"@openzeppelin/contracts/access/AccessControl.sol\":7420:7460  RoleGranted(role, account, _msgSender()) */\n      swap1\n      mload\n        /* \"@openzeppelin/contracts/utils/Context.sol\":719:729  msg.sender */\n      caller\n      swap3\n        /* \"@openzeppelin/contracts/access/AccessControl.sol\":7365:7377  _roles[role] */\n      dup6\n      swap2\n        /* \"@openzeppelin/contracts/access/AccessControl.sol\":7420:7460  RoleGranted(role, account, _msgSender()) */\n      0x2f8788117e7eff1d82e926ec794901d17c78024a50270940304540a733656f0d\n      swap2\n        /* \"@openzeppelin/contracts/access/AccessControl.sol\":7365:7377  _roles[role] */\n      swap1\n        /* \"@openzeppelin/contracts/access/AccessControl.sol\":7420:7460  RoleGranted(role, account, _msgSender()) */\n      log4\n        /* \"@openzeppelin/contracts/access/AccessControl.sol\":7244:7477  function _grantRole(bytes32 role, address account) internal virtual {... */\n      pop\n      pop\n      jump\t// out\n        /* \"@openzeppelin/contracts/access/AccessControl.sol\":7602:7836  function _revokeRole(bytes32 role, address account) internal virtual {... */\n    tag_262:\n        /* \"@openzeppelin/contracts/access/AccessControl.sol\":7685:7707  hasRole(role, account) */\n      tag_406\n        /* \"@openzeppelin/contracts/access/AccessControl.sol\":7693:7697  role */\n      dup3\n        /* \"@openzeppelin/contracts/access/AccessControl.sol\":7699:7706  account */\n      dup3\n        /* \"@openzeppelin/contracts/access/AccessControl.sol\":7685:7692  hasRole */\n      tag_127\n        /* \"@openzeppelin/contracts/access/AccessControl.sol\":7685:7707  hasRole(role, account) */\n      jump\t// in\n    tag_406:\n        /* \"@openzeppelin/contracts/access/AccessControl.sol\":7681:7830  if (hasRole(role, account)) {... */\n      iszero\n      tag_261\n      jumpi\n        /* \"@openzeppelin/contracts/access/AccessControl.sol\":7755:7760  false */\n      0x00\n        /* \"@openzeppelin/contracts/access/AccessControl.sol\":7723:7735  _roles[role] */\n      dup3\n      dup2\n      mstore\n        /* \"@openzeppelin/contracts/access/AccessControl.sol\":7723:7729  _roles */\n      0x01\n        /* \"@openzeppelin/contracts/access/AccessControl.sol\":7723:7735  _roles[role] */\n      0x20\n      swap1\n      dup2\n      mstore\n      0x40\n      dup1\n      dup4\n      keccak256\n      sub(shl(0xa0, 0x01), 0x01)\n        /* \"@openzeppelin/contracts/access/AccessControl.sol\":7723:7752  _roles[role].members[account] */\n      dup6\n      and\n      dup1\n      dup6\n      mstore\n      swap3\n      mstore\n      dup1\n      dup4\n      keccak256\n        /* \"@openzeppelin/contracts/access/AccessControl.sol\":7723:7760  _roles[role].members[account] = false */\n      dup1\n      sload\n      not(0xff)\n      and\n      swap1\n      sstore\n        /* \"@openzeppelin/contracts/access/AccessControl.sol\":7779:7819  RoleRevoked(role, account, _msgSender()) */\n      mload\n        /* \"@openzeppelin/contracts/utils/Context.sol\":719:729  msg.sender */\n      caller\n      swap3\n        /* \"@openzeppelin/contracts/access/AccessControl.sol\":7723:7735  _roles[role] */\n      dup6\n      swap2\n        /* \"@openzeppelin/contracts/access/AccessControl.sol\":7779:7819  RoleRevoked(role, account, _msgSender()) */\n      0xf6391f5c32d9c69d2a47ea670b442974b53935d1edc7fd64eb21e047a839171b\n      swap2\n        /* \"@openzeppelin/contracts/access/AccessControl.sol\":7755:7760  false */\n      swap1\n        /* \"@openzeppelin/contracts/access/AccessControl.sol\":7779:7819  RoleRevoked(role, account, _msgSender()) */\n      log4\n        /* \"@openzeppelin/contracts/access/AccessControl.sol\":7602:7836  function _revokeRole(bytes32 role, address account) internal virtual {... */\n      pop\n      pop\n      jump\t// out\n        /* \"@openzeppelin/contracts/utils/cryptography/MerkleProof.sol\":1154:1338  function verify(... */\n    tag_395:\n        /* \"@openzeppelin/contracts/utils/cryptography/MerkleProof.sol\":1275:1279  bool */\n      0x00\n        /* \"@openzeppelin/contracts/utils/cryptography/MerkleProof.sol\":1327:1331  root */\n      dup3\n        /* \"@openzeppelin/contracts/utils/cryptography/MerkleProof.sol\":1298:1323  processProof(proof, leaf) */\n      tag_410\n        /* \"@openzeppelin/contracts/utils/cryptography/MerkleProof.sol\":1311:1316  proof */\n      dup6\n        /* \"@openzeppelin/contracts/utils/cryptography/MerkleProof.sol\":1318:1322  leaf */\n      dup5\n        /* \"@openzeppelin/contracts/utils/cryptography/MerkleProof.sol\":1298:1310  processProof */\n      tag_411\n        /* \"@openzeppelin/contracts/utils/cryptography/MerkleProof.sol\":1298:1323  processProof(proof, leaf) */\n      jump\t// in\n    tag_410:\n        /* \"@openzeppelin/contracts/utils/cryptography/MerkleProof.sol\":1298:1331  processProof(proof, leaf) == root */\n      eq\n      swap5\n        /* \"@openzeppelin/contracts/utils/cryptography/MerkleProof.sol\":1154:1338  function verify(... */\n      swap4\n      pop\n      pop\n      pop\n      pop\n      jump\t// out\n        /* \"@openzeppelin/contracts/access/AccessControl.sol\":3718:4210  function _checkRole(bytes32 role, address account) internal view virtual {... */\n    tag_399:\n        /* \"@openzeppelin/contracts/access/AccessControl.sol\":3806:3828  hasRole(role, account) */\n      tag_413\n        /* \"@openzeppelin/contracts/access/AccessControl.sol\":3814:3818  role */\n      dup3\n        /* \"@openzeppelin/contracts/access/AccessControl.sol\":3820:3827  account */\n      dup3\n        /* \"@openzeppelin/contracts/access/AccessControl.sol\":3806:3813  hasRole */\n      tag_127\n        /* \"@openzeppelin/contracts/access/AccessControl.sol\":3806:3828  hasRole(role, account) */\n      jump\t// in\n    tag_413:\n        /* \"@openzeppelin/contracts/access/AccessControl.sol\":3801:4204  if (!hasRole(role, account)) {... */\n      tag_261\n      jumpi\n        /* \"@openzeppelin/contracts/access/AccessControl.sol\":3989:4030  Strings.toHexString(uint160(account), 20) */\n      tag_415\n        /* \"@openzeppelin/contracts/access/AccessControl.sol\":4017:4024  account */\n      dup2\n      sub(shl(0xa0, 0x01), 0x01)\n        /* \"@openzeppelin/contracts/access/AccessControl.sol\":3989:4030  Strings.toHexString(uint160(account), 20) */\n      and\n        /* \"@openzeppelin/contracts/access/AccessControl.sol\":4027:4029  20 */\n      0x14\n        /* \"@openzeppelin/contracts/access/AccessControl.sol\":3989:4008  Strings.toHexString */\n      tag_185\n        /* \"@openzeppelin/contracts/access/AccessControl.sol\":3989:4030  Strings.toHexString(uint160(account), 20) */\n      jump\t// in\n    tag_415:\n        /* \"@openzeppelin/contracts/access/AccessControl.sol\":4101:4139  Strings.toHexString(uint256(role), 32) */\n      tag_416\n        /* \"@openzeppelin/contracts/access/AccessControl.sol\":4129:4133  role */\n      dup4\n        /* \"@openzeppelin/contracts/access/AccessControl.sol\":4136:4138  32 */\n      0x20\n        /* \"@openzeppelin/contracts/access/AccessControl.sol\":4101:4120  Strings.toHexString */\n      tag_185\n        /* \"@openzeppelin/contracts/access/AccessControl.sol\":4101:4139  Strings.toHexString(uint256(role), 32) */\n      jump\t// in\n    tag_416:\n        /* \"@openzeppelin/contracts/access/AccessControl.sol\":3896:4161  abi.encodePacked(... */\n      add(0x20, mload(0x40))\n      tag_417\n      swap3\n      swap2\n      swap1\n      tag_418\n      jump\t// in\n    tag_417:\n      0x40\n      dup1\n      mload\n      not(0x1f)\n      dup2\n      dup5\n      sub\n      add\n      dup2\n      mstore\n      swap1\n      dup3\n      swap1\n      mstore\n      shl(0xe5, 0x461bcd)\n        /* \"@openzeppelin/contracts/access/AccessControl.sol\":3844:4193  revert(... */\n      dup3\n      mstore\n      tag_197\n      swap2\n      0x04\n      add\n      tag_420\n      jump\t// in\n        /* \"@openzeppelin/contracts/utils/cryptography/MerkleProof.sol\":1689:2351  function processProof(bytes32[] memory proof, bytes32 leaf) internal pure returns (bytes32) {... */\n    tag_411:\n        /* \"@openzeppelin/contracts/utils/cryptography/MerkleProof.sol\":1772:1779  bytes32 */\n      0x00\n        /* \"@openzeppelin/contracts/utils/cryptography/MerkleProof.sol\":1814:1818  leaf */\n      dup2\n        /* \"@openzeppelin/contracts/utils/cryptography/MerkleProof.sol\":1772:1779  bytes32 */\n      dup2\n        /* \"@openzeppelin/contracts/utils/cryptography/MerkleProof.sol\":1828:2316  for (uint256 i = 0; i < proof.length; i++) {... */\n    tag_422:\n        /* \"@openzeppelin/contracts/utils/cryptography/MerkleProof.sol\":1852:1857  proof */\n      dup5\n        /* \"@openzeppelin/contracts/utils/cryptography/MerkleProof.sol\":1852:1864  proof.length */\n      mload\n        /* \"@openzeppelin/contracts/utils/cryptography/MerkleProof.sol\":1848:1849  i */\n      dup2\n        /* \"@openzeppelin/contracts/utils/cryptography/MerkleProof.sol\":1848:1864  i < proof.length */\n      lt\n        /* \"@openzeppelin/contracts/utils/cryptography/MerkleProof.sol\":1828:2316  for (uint256 i = 0; i < proof.length; i++) {... */\n      iszero\n      tag_423\n      jumpi\n        /* \"@openzeppelin/contracts/utils/cryptography/MerkleProof.sol\":1885:1905  bytes32 proofElement */\n      0x00\n        /* \"@openzeppelin/contracts/utils/cryptography/MerkleProof.sol\":1908:1913  proof */\n      dup6\n        /* \"@openzeppelin/contracts/utils/cryptography/MerkleProof.sol\":1914:1915  i */\n      dup3\n        /* \"@openzeppelin/contracts/utils/cryptography/MerkleProof.sol\":1908:1916  proof[i] */\n      dup2\n      mload\n      dup2\n      lt\n      tag_426\n      jumpi\n      tag_426\n      tag_372\n      jump\t// in\n    tag_426:\n      0x20\n      mul\n      0x20\n      add\n      add\n      mload\n        /* \"@openzeppelin/contracts/utils/cryptography/MerkleProof.sol\":1885:1916  bytes32 proofElement = proof[i] */\n      swap1\n      pop\n        /* \"@openzeppelin/contracts/utils/cryptography/MerkleProof.sol\":1950:1962  proofElement */\n      dup1\n        /* \"@openzeppelin/contracts/utils/cryptography/MerkleProof.sol\":1934:1946  computedHash */\n      dup4\n        /* \"@openzeppelin/contracts/utils/cryptography/MerkleProof.sol\":1934:1962  computedHash <= proofElement */\n      gt\n        /* \"@openzeppelin/contracts/utils/cryptography/MerkleProof.sol\":1930:2306  if (computedHash <= proofElement) {... */\n      tag_427\n      jumpi\n        /* \"@openzeppelin/contracts/utils/cryptography/MerkleProof.sol\":2425:2438  bytes32 value */\n      0x00\n        /* \"@openzeppelin/contracts/utils/cryptography/MerkleProof.sol\":2473:2488  mstore(0x00, a) */\n      dup4\n      dup2\n      mstore\n        /* \"@openzeppelin/contracts/utils/cryptography/MerkleProof.sol\":2508:2512  0x20 */\n      0x20\n        /* \"@openzeppelin/contracts/utils/cryptography/MerkleProof.sol\":2501:2516  mstore(0x20, b) */\n      dup3\n      swap1\n      mstore\n        /* \"@openzeppelin/contracts/utils/cryptography/MerkleProof.sol\":2554:2558  0x40 */\n      0x40\n        /* \"@openzeppelin/contracts/utils/cryptography/MerkleProof.sol\":2538:2559  keccak256(0x00, 0x40) */\n      swap1\n      keccak256\n        /* \"@openzeppelin/contracts/utils/cryptography/MerkleProof.sol\":2060:2117  computedHash = _efficientHash(computedHash, proofElement) */\n      swap3\n      pop\n        /* \"@openzeppelin/contracts/utils/cryptography/MerkleProof.sol\":1930:2306  if (computedHash <= proofElement) {... */\n      jump(tag_430)\n    tag_427:\n        /* \"@openzeppelin/contracts/utils/cryptography/MerkleProof.sol\":2425:2438  bytes32 value */\n      0x00\n        /* \"@openzeppelin/contracts/utils/cryptography/MerkleProof.sol\":2473:2488  mstore(0x00, a) */\n      dup2\n      dup2\n      mstore\n        /* \"@openzeppelin/contracts/utils/cryptography/MerkleProof.sol\":2508:2512  0x20 */\n      0x20\n        /* \"@openzeppelin/contracts/utils/cryptography/MerkleProof.sol\":2501:2516  mstore(0x20, b) */\n      dup5\n      swap1\n      mstore\n        /* \"@openzeppelin/contracts/utils/cryptography/MerkleProof.sol\":2554:2558  0x40 */\n      0x40\n        /* \"@openzeppelin/contracts/utils/cryptography/MerkleProof.sol\":2538:2559  keccak256(0x00, 0x40) */\n      swap1\n      keccak256\n        /* \"@openzeppelin/contracts/utils/cryptography/MerkleProof.sol\":2234:2291  computedHash = _efficientHash(proofElement, computedHash) */\n      swap3\n      pop\n        /* \"@openzeppelin/contracts/utils/cryptography/MerkleProof.sol\":1930:2306  if (computedHash <= proofElement) {... */\n    tag_430:\n      pop\n        /* \"@openzeppelin/contracts/utils/cryptography/MerkleProof.sol\":1866:1869  i++ */\n      dup1\n      tag_432\n      dup2\n      tag_245\n      jump\t// in\n    tag_432:\n      swap2\n      pop\n      pop\n        /* \"@openzeppelin/contracts/utils/cryptography/MerkleProof.sol\":1828:2316  for (uint256 i = 0; i < proof.length; i++) {... */\n      jump(tag_422)\n    tag_423:\n      pop\n        /* \"@openzeppelin/contracts/utils/cryptography/MerkleProof.sol\":2332:2344  computedHash */\n      swap4\n        /* \"@openzeppelin/contracts/utils/cryptography/MerkleProof.sol\":1689:2351  function processProof(bytes32[] memory proof, bytes32 leaf) internal pure returns (bytes32) {... */\n      swap3\n      pop\n      pop\n      pop\n      jump\t// out\n        /* \"#utility.yul\":14:300   */\n    tag_42:\n        /* \"#utility.yul\":72:78   */\n      0x00\n        /* \"#utility.yul\":125:127   */\n      0x20\n        /* \"#utility.yul\":113:122   */\n      dup3\n        /* \"#utility.yul\":104:111   */\n      dup5\n        /* \"#utility.yul\":100:123   */\n      sub\n        /* \"#utility.yul\":96:128   */\n      slt\n        /* \"#utility.yul\":93:145   */\n      iszero\n      tag_441\n      jumpi\n        /* \"#utility.yul\":141:142   */\n      0x00\n        /* \"#utility.yul\":138:139   */\n      dup1\n        /* \"#utility.yul\":131:143   */\n      revert\n        /* \"#utility.yul\":93:145   */\n    tag_441:\n        /* \"#utility.yul\":167:190   */\n      dup2\n      calldataload\n      not(sub(shl(0xe0, 0x01), 0x01))\n        /* \"#utility.yul\":219:251   */\n      dup2\n      and\n        /* \"#utility.yul\":209:252   */\n      dup2\n      eq\n        /* \"#utility.yul\":199:270   */\n      tag_386\n      jumpi\n        /* \"#utility.yul\":266:267   */\n      0x00\n        /* \"#utility.yul\":263:264   */\n      dup1\n        /* \"#utility.yul\":256:268   */\n      revert\n        /* \"#utility.yul\":497:628   */\n    tag_434:\n      sub(shl(0xa0, 0x01), 0x01)\n        /* \"#utility.yul\":572:603   */\n      dup2\n      and\n        /* \"#utility.yul\":562:604   */\n      dup2\n      eq\n        /* \"#utility.yul\":552:622   */\n      tag_397\n      jumpi\n        /* \"#utility.yul\":618:619   */\n      0x00\n        /* \"#utility.yul\":615:616   */\n      dup1\n        /* \"#utility.yul\":608:620   */\n      revert\n        /* \"#utility.yul\":633:880   */\n    tag_53:\n        /* \"#utility.yul\":692:698   */\n      0x00\n        /* \"#utility.yul\":745:747   */\n      0x20\n        /* \"#utility.yul\":733:742   */\n      dup3\n        /* \"#utility.yul\":724:731   */\n      dup5\n        /* \"#utility.yul\":720:743   */\n      sub\n        /* \"#utility.yul\":716:748   */\n      slt\n        /* \"#utility.yul\":713:765   */\n      iszero\n      tag_447\n      jumpi\n        /* \"#utility.yul\":761:762   */\n      0x00\n        /* \"#utility.yul\":758:759   */\n      dup1\n        /* \"#utility.yul\":751:763   */\n      revert\n        /* \"#utility.yul\":713:765   */\n    tag_447:\n        /* \"#utility.yul\":800:809   */\n      dup2\n        /* \"#utility.yul\":787:810   */\n      calldataload\n        /* \"#utility.yul\":819:850   */\n      tag_386\n        /* \"#utility.yul\":844:849   */\n      dup2\n        /* \"#utility.yul\":819:850   */\n      tag_434\n      jump\t// in\n        /* \"#utility.yul\":1457:1637   */\n    tag_71:\n        /* \"#utility.yul\":1516:1522   */\n      0x00\n        /* \"#utility.yul\":1569:1571   */\n      0x20\n        /* \"#utility.yul\":1557:1566   */\n      dup3\n        /* \"#utility.yul\":1548:1555   */\n      dup5\n        /* \"#utility.yul\":1544:1567   */\n      sub\n        /* \"#utility.yul\":1540:1572   */\n      slt\n        /* \"#utility.yul\":1537:1589   */\n      iszero\n      tag_453\n      jumpi\n        /* \"#utility.yul\":1585:1586   */\n      0x00\n        /* \"#utility.yul\":1582:1583   */\n      dup1\n        /* \"#utility.yul\":1575:1587   */\n      revert\n        /* \"#utility.yul\":1537:1589   */\n    tag_453:\n      pop\n        /* \"#utility.yul\":1608:1631   */\n      calldataload\n      swap2\n        /* \"#utility.yul\":1457:1637   */\n      swap1\n      pop\n      jump\t// out\n        /* \"#utility.yul\":1642:2331   */\n    tag_76:\n        /* \"#utility.yul\":1737:1743   */\n      0x00\n        /* \"#utility.yul\":1745:1751   */\n      dup1\n        /* \"#utility.yul\":1753:1759   */\n      0x00\n        /* \"#utility.yul\":1806:1808   */\n      0x40\n        /* \"#utility.yul\":1794:1803   */\n      dup5\n        /* \"#utility.yul\":1785:1792   */\n      dup7\n        /* \"#utility.yul\":1781:1804   */\n      sub\n        /* \"#utility.yul\":1777:1809   */\n      slt\n        /* \"#utility.yul\":1774:1826   */\n      iszero\n      tag_455\n      jumpi\n        /* \"#utility.yul\":1822:1823   */\n      0x00\n        /* \"#utility.yul\":1819:1820   */\n      dup1\n        /* \"#utility.yul\":1812:1824   */\n      revert\n        /* \"#utility.yul\":1774:1826   */\n    tag_455:\n        /* \"#utility.yul\":1862:1871   */\n      dup4\n        /* \"#utility.yul\":1849:1872   */\n      calldataload\n        /* \"#utility.yul\":1891:1909   */\n      0xffffffffffffffff\n        /* \"#utility.yul\":1932:1934   */\n      dup1\n        /* \"#utility.yul\":1924:1930   */\n      dup3\n        /* \"#utility.yul\":1921:1935   */\n      gt\n        /* \"#utility.yul\":1918:1952   */\n      iszero\n      tag_456\n      jumpi\n        /* \"#utility.yul\":1948:1949   */\n      0x00\n        /* \"#utility.yul\":1945:1946   */\n      dup1\n        /* \"#utility.yul\":1938:1950   */\n      revert\n        /* \"#utility.yul\":1918:1952   */\n    tag_456:\n        /* \"#utility.yul\":1986:1992   */\n      dup2\n        /* \"#utility.yul\":1975:1984   */\n      dup7\n        /* \"#utility.yul\":1971:1993   */\n      add\n        /* \"#utility.yul\":1961:1993   */\n      swap2\n      pop\n        /* \"#utility.yul\":2031:2038   */\n      dup7\n        /* \"#utility.yul\":2024:2028   */\n      0x1f\n        /* \"#utility.yul\":2020:2022   */\n      dup4\n        /* \"#utility.yul\":2016:2029   */\n      add\n        /* \"#utility.yul\":2012:2039   */\n      slt\n        /* \"#utility.yul\":2002:2057   */\n      tag_457\n      jumpi\n        /* \"#utility.yul\":2053:2054   */\n      0x00\n        /* \"#utility.yul\":2050:2051   */\n      dup1\n        /* \"#utility.yul\":2043:2055   */\n      revert\n        /* \"#utility.yul\":2002:2057   */\n    tag_457:\n        /* \"#utility.yul\":2093:2095   */\n      dup2\n        /* \"#utility.yul\":2080:2096   */\n      calldataload\n        /* \"#utility.yul\":2119:2121   */\n      dup2\n        /* \"#utility.yul\":2111:2117   */\n      dup2\n        /* \"#utility.yul\":2108:2122   */\n      gt\n        /* \"#utility.yul\":2105:2139   */\n      iszero\n      tag_458\n      jumpi\n        /* \"#utility.yul\":2135:2136   */\n      0x00\n        /* \"#utility.yul\":2132:2133   */\n      dup1\n        /* \"#utility.yul\":2125:2137   */\n      revert\n        /* \"#utility.yul\":2105:2139   */\n    tag_458:\n        /* \"#utility.yul\":2190:2197   */\n      dup8\n        /* \"#utility.yul\":2183:2187   */\n      0x20\n        /* \"#utility.yul\":2173:2179   */\n      dup3\n        /* \"#utility.yul\":2170:2171   */\n      0x05\n        /* \"#utility.yul\":2166:2180   */\n      shl\n        /* \"#utility.yul\":2162:2164   */\n      dup6\n        /* \"#utility.yul\":2158:2181   */\n      add\n        /* \"#utility.yul\":2154:2188   */\n      add\n        /* \"#utility.yul\":2151:2198   */\n      gt\n        /* \"#utility.yul\":2148:2215   */\n      iszero\n      tag_459\n      jumpi\n        /* \"#utility.yul\":2211:2212   */\n      0x00\n        /* \"#utility.yul\":2208:2209   */\n      dup1\n        /* \"#utility.yul\":2201:2213   */\n      revert\n        /* \"#utility.yul\":2148:2215   */\n    tag_459:\n        /* \"#utility.yul\":2242:2246   */\n      0x20\n        /* \"#utility.yul\":2234:2247   */\n      swap3\n      dup4\n      add\n      swap9\n        /* \"#utility.yul\":2266:2272   */\n      swap1\n      swap8\n      pop\n        /* \"#utility.yul\":2304:2324   */\n      swap6\n      swap1\n      swap2\n      add\n        /* \"#utility.yul\":2291:2325   */\n      calldataload\n      swap5\n        /* \"#utility.yul\":1642:2331   */\n      swap4\n      pop\n      pop\n      pop\n      pop\n      jump\t// out\n        /* \"#utility.yul\":2336:2651   */\n    tag_85:\n        /* \"#utility.yul\":2404:2410   */\n      0x00\n        /* \"#utility.yul\":2412:2418   */\n      dup1\n        /* \"#utility.yul\":2465:2467   */\n      0x40\n        /* \"#utility.yul\":2453:2462   */\n      dup4\n        /* \"#utility.yul\":2444:2451   */\n      dup6\n        /* \"#utility.yul\":2440:2463   */\n      sub\n        /* \"#utility.yul\":2436:2468   */\n      slt\n        /* \"#utility.yul\":2433:2485   */\n      iszero\n      tag_461\n      jumpi\n        /* \"#utility.yul\":2481:2482   */\n      0x00\n        /* \"#utility.yul\":2478:2479   */\n      dup1\n        /* \"#utility.yul\":2471:2483   */\n      revert\n        /* \"#utility.yul\":2433:2485   */\n    tag_461:\n        /* \"#utility.yul\":2517:2526   */\n      dup3\n        /* \"#utility.yul\":2504:2527   */\n      calldataload\n        /* \"#utility.yul\":2494:2527   */\n      swap2\n      pop\n        /* \"#utility.yul\":2577:2579   */\n      0x20\n        /* \"#utility.yul\":2566:2575   */\n      dup4\n        /* \"#utility.yul\":2562:2580   */\n      add\n        /* \"#utility.yul\":2549:2581   */\n      calldataload\n        /* \"#utility.yul\":2590:2621   */\n      tag_462\n        /* \"#utility.yul\":2615:2620   */\n      dup2\n        /* \"#utility.yul\":2590:2621   */\n      tag_434\n      jump\t// in\n    tag_462:\n        /* \"#utility.yul\":2640:2645   */\n      dup1\n        /* \"#utility.yul\":2630:2645   */\n      swap2\n      pop\n      pop\n        /* \"#utility.yul\":2336:2651   */\n      swap3\n      pop\n      swap3\n      swap1\n      pop\n      jump\t// out\n        /* \"#utility.yul\":2656:2783   */\n    tag_368:\n        /* \"#utility.yul\":2717:2727   */\n      0x4e487b71\n        /* \"#utility.yul\":2712:2715   */\n      0xe0\n        /* \"#utility.yul\":2708:2728   */\n      shl\n        /* \"#utility.yul\":2705:2706   */\n      0x00\n        /* \"#utility.yul\":2698:2729   */\n      mstore\n        /* \"#utility.yul\":2748:2752   */\n      0x41\n        /* \"#utility.yul\":2745:2746   */\n      0x04\n        /* \"#utility.yul\":2738:2753   */\n      mstore\n        /* \"#utility.yul\":2772:2776   */\n      0x24\n        /* \"#utility.yul\":2769:2770   */\n      0x00\n        /* \"#utility.yul\":2762:2777   */\n      revert\n        /* \"#utility.yul\":2788:3506   */\n    tag_435:\n        /* \"#utility.yul\":2830:2835   */\n      0x00\n        /* \"#utility.yul\":2883:2886   */\n      dup3\n        /* \"#utility.yul\":2876:2880   */\n      0x1f\n        /* \"#utility.yul\":2868:2874   */\n      dup4\n        /* \"#utility.yul\":2864:2881   */\n      add\n        /* \"#utility.yul\":2860:2887   */\n      slt\n        /* \"#utility.yul\":2850:2905   */\n      tag_465\n      jumpi\n        /* \"#utility.yul\":2901:2902   */\n      0x00\n        /* \"#utility.yul\":2898:2899   */\n      dup1\n        /* \"#utility.yul\":2891:2903   */\n      revert\n        /* \"#utility.yul\":2850:2905   */\n    tag_465:\n        /* \"#utility.yul\":2937:2943   */\n      dup2\n        /* \"#utility.yul\":2924:2944   */\n      calldataload\n        /* \"#utility.yul\":2963:2981   */\n      0xffffffffffffffff\n        /* \"#utility.yul\":3000:3002   */\n      dup1\n        /* \"#utility.yul\":2996:2998   */\n      dup3\n        /* \"#utility.yul\":2993:3003   */\n      gt\n        /* \"#utility.yul\":2990:3026   */\n      iszero\n      tag_467\n      jumpi\n        /* \"#utility.yul\":3006:3024   */\n      tag_467\n      tag_368\n      jump\t// in\n    tag_467:\n        /* \"#utility.yul\":3081:3083   */\n      0x40\n        /* \"#utility.yul\":3075:3084   */\n      mload\n        /* \"#utility.yul\":3049:3051   */\n      0x1f\n        /* \"#utility.yul\":3135:3148   */\n      dup4\n      add\n      not(0x1f)\n        /* \"#utility.yul\":3131:3153   */\n      swap1\n      dup2\n      and\n        /* \"#utility.yul\":3155:3157   */\n      0x3f\n        /* \"#utility.yul\":3127:3158   */\n      add\n        /* \"#utility.yul\":3123:3163   */\n      and\n        /* \"#utility.yul\":3111:3164   */\n      dup2\n      add\n      swap1\n        /* \"#utility.yul\":3179:3197   */\n      dup3\n      dup3\n      gt\n        /* \"#utility.yul\":3199:3221   */\n      dup2\n      dup4\n      lt\n        /* \"#utility.yul\":3176:3222   */\n      or\n        /* \"#utility.yul\":3173:3245   */\n      iszero\n      tag_469\n      jumpi\n        /* \"#utility.yul\":3225:3243   */\n      tag_469\n      tag_368\n      jump\t// in\n    tag_469:\n        /* \"#utility.yul\":3265:3275   */\n      dup2\n        /* \"#utility.yul\":3261:3263   */\n      0x40\n        /* \"#utility.yul\":3254:3276   */\n      mstore\n        /* \"#utility.yul\":3300:3302   */\n      dup4\n        /* \"#utility.yul\":3292:3298   */\n      dup2\n        /* \"#utility.yul\":3285:3303   */\n      mstore\n        /* \"#utility.yul\":3346:3349   */\n      dup7\n        /* \"#utility.yul\":3339:3343   */\n      0x20\n        /* \"#utility.yul\":3334:3336   */\n      dup6\n        /* \"#utility.yul\":3326:3332   */\n      dup9\n        /* \"#utility.yul\":3322:3337   */\n      add\n        /* \"#utility.yul\":3318:3344   */\n      add\n        /* \"#utility.yul\":3315:3350   */\n      gt\n        /* \"#utility.yul\":3312:3367   */\n      iszero\n      tag_470\n      jumpi\n        /* \"#utility.yul\":3363:3364   */\n      0x00\n        /* \"#utility.yul\":3360:3361   */\n      dup1\n        /* \"#utility.yul\":3353:3365   */\n      revert\n        /* \"#utility.yul\":3312:3367   */\n    tag_470:\n        /* \"#utility.yul\":3427:3429   */\n      dup4\n        /* \"#utility.yul\":3420:3424   */\n      0x20\n        /* \"#utility.yul\":3412:3418   */\n      dup8\n        /* \"#utility.yul\":3408:3425   */\n      add\n        /* \"#utility.yul\":3401:3405   */\n      0x20\n        /* \"#utility.yul\":3393:3399   */\n      dup4\n        /* \"#utility.yul\":3389:3406   */\n      add\n        /* \"#utility.yul\":3376:3430   */\n      calldatacopy\n        /* \"#utility.yul\":3474:3475   */\n      0x00\n        /* \"#utility.yul\":3467:3471   */\n      0x20\n        /* \"#utility.yul\":3462:3464   */\n      dup6\n        /* \"#utility.yul\":3454:3460   */\n      dup4\n        /* \"#utility.yul\":3450:3465   */\n      add\n        /* \"#utility.yul\":3446:3472   */\n      add\n        /* \"#utility.yul\":3439:3476   */\n      mstore\n        /* \"#utility.yul\":3494:3500   */\n      dup1\n        /* \"#utility.yul\":3485:3500   */\n      swap5\n      pop\n      pop\n      pop\n      pop\n      pop\n        /* \"#utility.yul\":2788:3506   */\n      swap3\n      swap2\n      pop\n      pop\n      jump\t// out\n        /* \"#utility.yul\":3511:4107   */\n    tag_94:\n        /* \"#utility.yul\":3597:3603   */\n      0x00\n        /* \"#utility.yul\":3605:3611   */\n      dup1\n        /* \"#utility.yul\":3613:3619   */\n      0x00\n        /* \"#utility.yul\":3666:3668   */\n      0x60\n        /* \"#utility.yul\":3654:3663   */\n      dup5\n        /* \"#utility.yul\":3645:3652   */\n      dup7\n        /* \"#utility.yul\":3641:3664   */\n      sub\n        /* \"#utility.yul\":3637:3669   */\n      slt\n        /* \"#utility.yul\":3634:3686   */\n      iszero\n      tag_472\n      jumpi\n        /* \"#utility.yul\":3682:3683   */\n      0x00\n        /* \"#utility.yul\":3679:3680   */\n      dup1\n        /* \"#utility.yul\":3672:3684   */\n      revert\n        /* \"#utility.yul\":3634:3686   */\n    tag_472:\n        /* \"#utility.yul\":3721:3730   */\n      dup4\n        /* \"#utility.yul\":3708:3731   */\n      calldataload\n        /* \"#utility.yul\":3740:3771   */\n      tag_473\n        /* \"#utility.yul\":3765:3770   */\n      dup2\n        /* \"#utility.yul\":3740:3771   */\n      tag_434\n      jump\t// in\n    tag_473:\n        /* \"#utility.yul\":3790:3795   */\n      swap3\n      pop\n        /* \"#utility.yul\":3847:3849   */\n      0x20\n        /* \"#utility.yul\":3832:3850   */\n      dup5\n      add\n        /* \"#utility.yul\":3819:3851   */\n      calldataload\n        /* \"#utility.yul\":3860:3893   */\n      tag_474\n        /* \"#utility.yul\":3819:3851   */\n      dup2\n        /* \"#utility.yul\":3860:3893   */\n      tag_434\n      jump\t// in\n    tag_474:\n        /* \"#utility.yul\":3912:3919   */\n      swap2\n      pop\n        /* \"#utility.yul\":3970:3972   */\n      0x40\n        /* \"#utility.yul\":3955:3973   */\n      dup5\n      add\n        /* \"#utility.yul\":3942:3974   */\n      calldataload\n        /* \"#utility.yul\":3997:4015   */\n      0xffffffffffffffff\n        /* \"#utility.yul\":3986:4016   */\n      dup2\n      gt\n        /* \"#utility.yul\":3983:4033   */\n      iszero\n      tag_475\n      jumpi\n        /* \"#utility.yul\":4029:4030   */\n      0x00\n        /* \"#utility.yul\":4026:4027   */\n      dup1\n        /* \"#utility.yul\":4019:4031   */\n      revert\n        /* \"#utility.yul\":3983:4033   */\n    tag_475:\n        /* \"#utility.yul\":4052:4101   */\n      tag_476\n        /* \"#utility.yul\":4093:4100   */\n      dup7\n        /* \"#utility.yul\":4084:4090   */\n      dup3\n        /* \"#utility.yul\":4073:4082   */\n      dup8\n        /* \"#utility.yul\":4069:4091   */\n      add\n        /* \"#utility.yul\":4052:4101   */\n      tag_435\n      jump\t// in\n    tag_476:\n        /* \"#utility.yul\":4042:4101   */\n      swap2\n      pop\n      pop\n        /* \"#utility.yul\":3511:4107   */\n      swap3\n      pop\n      swap3\n      pop\n      swap3\n      jump\t// out\n        /* \"#utility.yul\":4112:4230   */\n    tag_436:\n        /* \"#utility.yul\":4198:4203   */\n      dup1\n        /* \"#utility.yul\":4191:4204   */\n      iszero\n        /* \"#utility.yul\":4184:4205   */\n      iszero\n        /* \"#utility.yul\":4177:4182   */\n      dup2\n        /* \"#utility.yul\":4174:4206   */\n      eq\n        /* \"#utility.yul\":4164:4224   */\n      tag_397\n      jumpi\n        /* \"#utility.yul\":4220:4221   */\n      0x00\n        /* \"#utility.yul\":4217:4218   */\n      dup1\n        /* \"#utility.yul\":4210:4222   */\n      revert\n        /* \"#utility.yul\":4235:4476   */\n    tag_109:\n        /* \"#utility.yul\":4291:4297   */\n      0x00\n        /* \"#utility.yul\":4344:4346   */\n      0x20\n        /* \"#utility.yul\":4332:4341   */\n      dup3\n        /* \"#utility.yul\":4323:4330   */\n      dup5\n        /* \"#utility.yul\":4319:4342   */\n      sub\n        /* \"#utility.yul\":4315:4347   */\n      slt\n        /* \"#utility.yul\":4312:4364   */\n      iszero\n      tag_480\n      jumpi\n        /* \"#utility.yul\":4360:4361   */\n      0x00\n        /* \"#utility.yul\":4357:4358   */\n      dup1\n        /* \"#utility.yul\":4350:4362   */\n      revert\n        /* \"#utility.yul\":4312:4364   */\n    tag_480:\n        /* \"#utility.yul\":4399:4408   */\n      dup2\n        /* \"#utility.yul\":4386:4409   */\n      calldataload\n        /* \"#utility.yul\":4418:4446   */\n      tag_386\n        /* \"#utility.yul\":4440:4445   */\n      dup2\n        /* \"#utility.yul\":4418:4446   */\n      tag_436\n      jump\t// in\n        /* \"#utility.yul\":4708:5096   */\n    tag_132:\n        /* \"#utility.yul\":4785:4791   */\n      0x00\n        /* \"#utility.yul\":4793:4799   */\n      dup1\n        /* \"#utility.yul\":4846:4848   */\n      0x40\n        /* \"#utility.yul\":4834:4843   */\n      dup4\n        /* \"#utility.yul\":4825:4832   */\n      dup6\n        /* \"#utility.yul\":4821:4844   */\n      sub\n        /* \"#utility.yul\":4817:4849   */\n      slt\n        /* \"#utility.yul\":4814:4866   */\n      iszero\n      tag_484\n      jumpi\n        /* \"#utility.yul\":4862:4863   */\n      0x00\n        /* \"#utility.yul\":4859:4860   */\n      dup1\n        /* \"#utility.yul\":4852:4864   */\n      revert\n        /* \"#utility.yul\":4814:4866   */\n    tag_484:\n        /* \"#utility.yul\":4898:4907   */\n      dup3\n        /* \"#utility.yul\":4885:4908   */\n      calldataload\n        /* \"#utility.yul\":4875:4908   */\n      swap2\n      pop\n        /* \"#utility.yul\":4959:4961   */\n      0x20\n        /* \"#utility.yul\":4948:4957   */\n      dup4\n        /* \"#utility.yul\":4944:4962   */\n      add\n        /* \"#utility.yul\":4931:4963   */\n      calldataload\n        /* \"#utility.yul\":4986:5004   */\n      0xffffffffffffffff\n        /* \"#utility.yul\":4978:4984   */\n      dup2\n        /* \"#utility.yul\":4975:5005   */\n      gt\n        /* \"#utility.yul\":4972:5022   */\n      iszero\n      tag_485\n      jumpi\n        /* \"#utility.yul\":5018:5019   */\n      0x00\n        /* \"#utility.yul\":5015:5016   */\n      dup1\n        /* \"#utility.yul\":5008:5020   */\n      revert\n        /* \"#utility.yul\":4972:5022   */\n    tag_485:\n        /* \"#utility.yul\":5041:5090   */\n      tag_486\n        /* \"#utility.yul\":5082:5089   */\n      dup6\n        /* \"#utility.yul\":5073:5079   */\n      dup3\n        /* \"#utility.yul\":5062:5071   */\n      dup7\n        /* \"#utility.yul\":5058:5080   */\n      add\n        /* \"#utility.yul\":5041:5090   */\n      tag_435\n      jump\t// in\n    tag_486:\n        /* \"#utility.yul\":5031:5090   */\n      swap2\n      pop\n      pop\n        /* \"#utility.yul\":4708:5096   */\n      swap3\n      pop\n      swap3\n      swap1\n      pop\n      jump\t// out\n        /* \"#utility.yul\":5372:5692   */\n    tag_151:\n        /* \"#utility.yul\":5440:5446   */\n      0x00\n        /* \"#utility.yul\":5493:5495   */\n      0x20\n        /* \"#utility.yul\":5481:5490   */\n      dup3\n        /* \"#utility.yul\":5472:5479   */\n      dup5\n        /* \"#utility.yul\":5468:5491   */\n      sub\n        /* \"#utility.yul\":5464:5496   */\n      slt\n        /* \"#utility.yul\":5461:5513   */\n      iszero\n      tag_491\n      jumpi\n        /* \"#utility.yul\":5509:5510   */\n      0x00\n        /* \"#utility.yul\":5506:5507   */\n      dup1\n        /* \"#utility.yul\":5499:5511   */\n      revert\n        /* \"#utility.yul\":5461:5513   */\n    tag_491:\n        /* \"#utility.yul\":5549:5558   */\n      dup2\n        /* \"#utility.yul\":5536:5559   */\n      calldataload\n        /* \"#utility.yul\":5582:5600   */\n      0xffffffffffffffff\n        /* \"#utility.yul\":5574:5580   */\n      dup2\n        /* \"#utility.yul\":5571:5601   */\n      gt\n        /* \"#utility.yul\":5568:5618   */\n      iszero\n      tag_492\n      jumpi\n        /* \"#utility.yul\":5614:5615   */\n      0x00\n        /* \"#utility.yul\":5611:5612   */\n      dup1\n        /* \"#utility.yul\":5604:5616   */\n      revert\n        /* \"#utility.yul\":5568:5618   */\n    tag_492:\n        /* \"#utility.yul\":5637:5686   */\n      tag_390\n        /* \"#utility.yul\":5678:5685   */\n      dup5\n        /* \"#utility.yul\":5669:5675   */\n      dup3\n        /* \"#utility.yul\":5658:5667   */\n      dup6\n        /* \"#utility.yul\":5654:5676   */\n      add\n        /* \"#utility.yul\":5637:5686   */\n      tag_435\n      jump\t// in\n        /* \"#utility.yul\":6028:6619   */\n    tag_165:\n        /* \"#utility.yul\":6098:6104   */\n      0x00\n        /* \"#utility.yul\":6106:6112   */\n      dup1\n        /* \"#utility.yul\":6159:6161   */\n      0x20\n        /* \"#utility.yul\":6147:6156   */\n      dup4\n        /* \"#utility.yul\":6138:6145   */\n      dup6\n        /* \"#utility.yul\":6134:6157   */\n      sub\n        /* \"#utility.yul\":6130:6162   */\n      slt\n        /* \"#utility.yul\":6127:6179   */\n      iszero\n      tag_496\n      jumpi\n        /* \"#utility.yul\":6175:6176   */\n      0x00\n        /* \"#utility.yul\":6172:6173   */\n      dup1\n        /* \"#utility.yul\":6165:6177   */\n      revert\n        /* \"#utility.yul\":6127:6179   */\n    tag_496:\n        /* \"#utility.yul\":6215:6224   */\n      dup3\n        /* \"#utility.yul\":6202:6225   */\n      calldataload\n        /* \"#utility.yul\":6244:6262   */\n      0xffffffffffffffff\n        /* \"#utility.yul\":6285:6287   */\n      dup1\n        /* \"#utility.yul\":6277:6283   */\n      dup3\n        /* \"#utility.yul\":6274:6288   */\n      gt\n        /* \"#utility.yul\":6271:6305   */\n      iszero\n      tag_497\n      jumpi\n        /* \"#utility.yul\":6301:6302   */\n      0x00\n        /* \"#utility.yul\":6298:6299   */\n      dup1\n        /* \"#utility.yul\":6291:6303   */\n      revert\n        /* \"#utility.yul\":6271:6305   */\n    tag_497:\n        /* \"#utility.yul\":6339:6345   */\n      dup2\n        /* \"#utility.yul\":6328:6337   */\n      dup6\n        /* \"#utility.yul\":6324:6346   */\n      add\n        /* \"#utility.yul\":6314:6346   */\n      swap2\n      pop\n        /* \"#utility.yul\":6384:6391   */\n      dup6\n        /* \"#utility.yul\":6377:6381   */\n      0x1f\n        /* \"#utility.yul\":6373:6375   */\n      dup4\n        /* \"#utility.yul\":6369:6382   */\n      add\n        /* \"#utility.yul\":6365:6392   */\n      slt\n        /* \"#utility.yul\":6355:6410   */\n      tag_498\n      jumpi\n        /* \"#utility.yul\":6406:6407   */\n      0x00\n        /* \"#utility.yul\":6403:6404   */\n      dup1\n        /* \"#utility.yul\":6396:6408   */\n      revert\n        /* \"#utility.yul\":6355:6410   */\n    tag_498:\n        /* \"#utility.yul\":6446:6448   */\n      dup2\n        /* \"#utility.yul\":6433:6449   */\n      calldataload\n        /* \"#utility.yul\":6472:6474   */\n      dup2\n        /* \"#utility.yul\":6464:6470   */\n      dup2\n        /* \"#utility.yul\":6461:6475   */\n      gt\n        /* \"#utility.yul\":6458:6492   */\n      iszero\n      tag_499\n      jumpi\n        /* \"#utility.yul\":6488:6489   */\n      0x00\n        /* \"#utility.yul\":6485:6486   */\n      dup1\n        /* \"#utility.yul\":6478:6490   */\n      revert\n        /* \"#utility.yul\":6458:6492   */\n    tag_499:\n        /* \"#utility.yul\":6533:6540   */\n      dup7\n        /* \"#utility.yul\":6528:6530   */\n      0x20\n        /* \"#utility.yul\":6519:6525   */\n      dup3\n        /* \"#utility.yul\":6515:6517   */\n      dup6\n        /* \"#utility.yul\":6511:6526   */\n      add\n        /* \"#utility.yul\":6507:6531   */\n      add\n        /* \"#utility.yul\":6504:6541   */\n      gt\n        /* \"#utility.yul\":6501:6558   */\n      iszero\n      tag_500\n      jumpi\n        /* \"#utility.yul\":6554:6555   */\n      0x00\n        /* \"#utility.yul\":6551:6552   */\n      dup1\n        /* \"#utility.yul\":6544:6556   */\n      revert\n        /* \"#utility.yul\":6501:6558   */\n    tag_500:\n        /* \"#utility.yul\":6585:6587   */\n      0x20\n        /* \"#utility.yul\":6577:6588   */\n      swap3\n      swap1\n      swap3\n      add\n      swap7\n        /* \"#utility.yul\":6607:6613   */\n      swap2\n      swap6\n      pop\n        /* \"#utility.yul\":6028:6619   */\n      swap1\n      swap4\n      pop\n      pop\n      pop\n      pop\n      jump\t// out\n        /* \"#utility.yul\":8026:8153   */\n    tag_437:\n        /* \"#utility.yul\":8087:8097   */\n      0x4e487b71\n        /* \"#utility.yul\":8082:8085   */\n      0xe0\n        /* \"#utility.yul\":8078:8098   */\n      shl\n        /* \"#utility.yul\":8075:8076   */\n      0x00\n        /* \"#utility.yul\":8068:8099   */\n      mstore\n        /* \"#utility.yul\":8118:8122   */\n      0x11\n        /* \"#utility.yul\":8115:8116   */\n      0x04\n        /* \"#utility.yul\":8108:8123   */\n      mstore\n        /* \"#utility.yul\":8142:8146   */\n      0x24\n        /* \"#utility.yul\":8139:8140   */\n      0x00\n        /* \"#utility.yul\":8132:8147   */\n      revert\n        /* \"#utility.yul\":8158:8286   */\n    tag_210:\n        /* \"#utility.yul\":8198:8201   */\n      0x00\n        /* \"#utility.yul\":8229:8230   */\n      dup3\n        /* \"#utility.yul\":8225:8231   */\n      not\n        /* \"#utility.yul\":8222:8223   */\n      dup3\n        /* \"#utility.yul\":8219:8232   */\n      gt\n        /* \"#utility.yul\":8216:8255   */\n      iszero\n      tag_508\n      jumpi\n        /* \"#utility.yul\":8235:8253   */\n      tag_508\n      tag_437\n      jump\t// in\n    tag_508:\n      pop\n        /* \"#utility.yul\":8271:8280   */\n      add\n      swap1\n        /* \"#utility.yul\":8158:8286   */\n      jump\t// out\n        /* \"#utility.yul\":8983:9167   */\n    tag_221:\n        /* \"#utility.yul\":9053:9059   */\n      0x00\n        /* \"#utility.yul\":9106:9108   */\n      0x20\n        /* \"#utility.yul\":9094:9103   */\n      dup3\n        /* \"#utility.yul\":9085:9092   */\n      dup5\n        /* \"#utility.yul\":9081:9104   */\n      sub\n        /* \"#utility.yul\":9077:9109   */\n      slt\n        /* \"#utility.yul\":9074:9126   */\n      iszero\n      tag_512\n      jumpi\n        /* \"#utility.yul\":9122:9123   */\n      0x00\n        /* \"#utility.yul\":9119:9120   */\n      dup1\n        /* \"#utility.yul\":9112:9124   */\n      revert\n        /* \"#utility.yul\":9074:9126   */\n    tag_512:\n      pop\n        /* \"#utility.yul\":9145:9161   */\n      mload\n      swap2\n        /* \"#utility.yul\":8983:9167   */\n      swap1\n      pop\n      jump\t// out\n        /* \"#utility.yul\":9451:9696   */\n    tag_227:\n        /* \"#utility.yul\":9518:9524   */\n      0x00\n        /* \"#utility.yul\":9571:9573   */\n      0x20\n        /* \"#utility.yul\":9559:9568   */\n      dup3\n        /* \"#utility.yul\":9550:9557   */\n      dup5\n        /* \"#utility.yul\":9546:9569   */\n      sub\n        /* \"#utility.yul\":9542:9574   */\n      slt\n        /* \"#utility.yul\":9539:9591   */\n      iszero\n      tag_515\n      jumpi\n        /* \"#utility.yul\":9587:9588   */\n      0x00\n        /* \"#utility.yul\":9584:9585   */\n      dup1\n        /* \"#utility.yul\":9577:9589   */\n      revert\n        /* \"#utility.yul\":9539:9591   */\n    tag_515:\n        /* \"#utility.yul\":9619:9628   */\n      dup2\n        /* \"#utility.yul\":9613:9629   */\n      mload\n        /* \"#utility.yul\":9638:9666   */\n      tag_386\n        /* \"#utility.yul\":9660:9665   */\n      dup2\n        /* \"#utility.yul\":9638:9666   */\n      tag_436\n      jump\t// in\n        /* \"#utility.yul\":9701:10107   */\n    tag_230:\n        /* \"#utility.yul\":9903:9905   */\n      0x20\n        /* \"#utility.yul\":9885:9906   */\n      dup1\n      dup3\n      mstore\n        /* \"#utility.yul\":9942:9944   */\n      0x2a\n        /* \"#utility.yul\":9922:9940   */\n      swap1\n      dup3\n      add\n        /* \"#utility.yul\":9915:9945   */\n      mstore\n        /* \"#utility.yul\":9981:10015   */\n      0x5468697320436f6e7472616374206e6f742068617665207065726d697373696f\n        /* \"#utility.yul\":9976:9978   */\n      0x40\n        /* \"#utility.yul\":9961:9979   */\n      dup3\n      add\n        /* \"#utility.yul\":9954:10016   */\n      mstore\n      shl(0xb1, 0x37103a379036b4b73a17)\n        /* \"#utility.yul\":10047:10049   */\n      0x60\n        /* \"#utility.yul\":10032:10050   */\n      dup3\n      add\n        /* \"#utility.yul\":10025:10065   */\n      mstore\n        /* \"#utility.yul\":10097:10100   */\n      0x80\n        /* \"#utility.yul\":10082:10101   */\n      add\n      swap1\n        /* \"#utility.yul\":9701:10107   */\n      jump\t// out\n        /* \"#utility.yul\":10518:10653   */\n    tag_245:\n        /* \"#utility.yul\":10557:10560   */\n      0x00\n        /* \"#utility.yul\":10578:10595   */\n      0x01\n      dup3\n      add\n        /* \"#utility.yul\":10575:10618   */\n      tag_521\n      jumpi\n        /* \"#utility.yul\":10598:10616   */\n      tag_521\n      tag_437\n      jump\t// in\n    tag_521:\n      pop\n        /* \"#utility.yul\":10645:10646   */\n      0x01\n        /* \"#utility.yul\":10634:10647   */\n      add\n      swap1\n        /* \"#utility.yul\":10518:10653   */\n      jump\t// out\n        /* \"#utility.yul\":14325:14493   */\n    tag_364:\n        /* \"#utility.yul\":14365:14372   */\n      0x00\n        /* \"#utility.yul\":14431:14432   */\n      dup2\n        /* \"#utility.yul\":14427:14428   */\n      0x00\n        /* \"#utility.yul\":14423:14429   */\n      not\n        /* \"#utility.yul\":14419:14433   */\n      div\n        /* \"#utility.yul\":14416:14417   */\n      dup4\n        /* \"#utility.yul\":14413:14434   */\n      gt\n        /* \"#utility.yul\":14408:14409   */\n      dup3\n        /* \"#utility.yul\":14401:14410   */\n      iszero\n        /* \"#utility.yul\":14394:14411   */\n      iszero\n        /* \"#utility.yul\":14390:14435   */\n      and\n        /* \"#utility.yul\":14387:14458   */\n      iszero\n      tag_536\n      jumpi\n        /* \"#utility.yul\":14438:14456   */\n      tag_536\n      tag_437\n      jump\t// in\n    tag_536:\n      pop\n        /* \"#utility.yul\":14478:14487   */\n      mul\n      swap1\n        /* \"#utility.yul\":14325:14493   */\n      jump\t// out\n        /* \"#utility.yul\":14498:14625   */\n    tag_372:\n        /* \"#utility.yul\":14559:14569   */\n      0x4e487b71\n        /* \"#utility.yul\":14554:14557   */\n      0xe0\n        /* \"#utility.yul\":14550:14570   */\n      shl\n        /* \"#utility.yul\":14547:14548   */\n      0x00\n        /* \"#utility.yul\":14540:14571   */\n      mstore\n        /* \"#utility.yul\":14590:14594   */\n      0x32\n        /* \"#utility.yul\":14587:14588   */\n      0x04\n        /* \"#utility.yul\":14580:14595   */\n      mstore\n        /* \"#utility.yul\":14614:14618   */\n      0x24\n        /* \"#utility.yul\":14611:14612   */\n      0x00\n        /* \"#utility.yul\":14604:14619   */\n      revert\n        /* \"#utility.yul\":14630:14766   */\n    tag_385:\n        /* \"#utility.yul\":14669:14672   */\n      0x00\n        /* \"#utility.yul\":14697:14702   */\n      dup2\n        /* \"#utility.yul\":14687:14726   */\n      tag_540\n      jumpi\n        /* \"#utility.yul\":14706:14724   */\n      tag_540\n      tag_437\n      jump\t// in\n    tag_540:\n      pop\n      not(0x00)\n        /* \"#utility.yul\":14742:14760   */\n      add\n      swap1\n        /* \"#utility.yul\":14630:14766   */\n      jump\t// out\n        /* \"#utility.yul\":15431:15689   */\n    tag_438:\n        /* \"#utility.yul\":15503:15504   */\n      0x00\n        /* \"#utility.yul\":15513:15626   */\n    tag_544:\n        /* \"#utility.yul\":15527:15533   */\n      dup4\n        /* \"#utility.yul\":15524:15525   */\n      dup2\n        /* \"#utility.yul\":15521:15534   */\n      lt\n        /* \"#utility.yul\":15513:15626   */\n      iszero\n      tag_546\n      jumpi\n        /* \"#utility.yul\":15603:15614   */\n      dup2\n      dup2\n      add\n        /* \"#utility.yul\":15597:15615   */\n      mload\n        /* \"#utility.yul\":15584:15595   */\n      dup4\n      dup3\n      add\n        /* \"#utility.yul\":15577:15616   */\n      mstore\n        /* \"#utility.yul\":15549:15551   */\n      0x20\n        /* \"#utility.yul\":15542:15552   */\n      add\n        /* \"#utility.yul\":15513:15626   */\n      jump(tag_544)\n    tag_546:\n        /* \"#utility.yul\":15644:15650   */\n      dup4\n        /* \"#utility.yul\":15641:15642   */\n      dup2\n        /* \"#utility.yul\":15638:15651   */\n      gt\n        /* \"#utility.yul\":15635:15683   */\n      iszero\n      tag_547\n      jumpi\n        /* \"#utility.yul\":15679:15680   */\n      0x00\n        /* \"#utility.yul\":15670:15676   */\n      dup5\n        /* \"#utility.yul\":15665:15668   */\n      dup5\n        /* \"#utility.yul\":15661:15677   */\n      add\n        /* \"#utility.yul\":15654:15681   */\n      mstore\n        /* \"#utility.yul\":15635:15683   */\n    tag_547:\n      pop\n        /* \"#utility.yul\":15431:15689   */\n      pop\n      pop\n      pop\n      jump\t// out\n        /* \"#utility.yul\":15694:16480   */\n    tag_418:\n        /* \"#utility.yul\":16105:16130   */\n      0x416363657373436f6e74726f6c3a206163636f756e7420000000000000000000\n        /* \"#utility.yul\":16100:16103   */\n      dup2\n        /* \"#utility.yul\":16093:16131   */\n      mstore\n        /* \"#utility.yul\":16075:16078   */\n      0x00\n        /* \"#utility.yul\":16160:16166   */\n      dup4\n        /* \"#utility.yul\":16154:16167   */\n      mload\n        /* \"#utility.yul\":16176:16238   */\n      tag_549\n        /* \"#utility.yul\":16231:16237   */\n      dup2\n        /* \"#utility.yul\":16226:16228   */\n      0x17\n        /* \"#utility.yul\":16221:16224   */\n      dup6\n        /* \"#utility.yul\":16217:16229   */\n      add\n        /* \"#utility.yul\":16210:16214   */\n      0x20\n        /* \"#utility.yul\":16202:16208   */\n      dup9\n        /* \"#utility.yul\":16198:16215   */\n      add\n        /* \"#utility.yul\":16176:16238   */\n      tag_438\n      jump\t// in\n    tag_549:\n      shl(0x7d, 0x01034b99036b4b9b9b4b733903937b6329)\n        /* \"#utility.yul\":16297:16299   */\n      0x17\n        /* \"#utility.yul\":16257:16273   */\n      swap2\n      dup5\n      add\n        /* \"#utility.yul\":16289:16300   */\n      swap2\n      dup3\n      add\n        /* \"#utility.yul\":16282:16322   */\n      mstore\n        /* \"#utility.yul\":16347:16360   */\n      dup4\n      mload\n        /* \"#utility.yul\":16369:16432   */\n      tag_550\n        /* \"#utility.yul\":16347:16360   */\n      dup2\n        /* \"#utility.yul\":16418:16420   */\n      0x28\n        /* \"#utility.yul\":16410:16421   */\n      dup5\n      add\n        /* \"#utility.yul\":16403:16407   */\n      0x20\n        /* \"#utility.yul\":16391:16408   */\n      dup9\n      add\n        /* \"#utility.yul\":16369:16432   */\n      tag_438\n      jump\t// in\n    tag_550:\n        /* \"#utility.yul\":16452:16469   */\n      add\n        /* \"#utility.yul\":16471:16473   */\n      0x28\n        /* \"#utility.yul\":16448:16474   */\n      add\n      swap5\n        /* \"#utility.yul\":15694:16480   */\n      swap4\n      pop\n      pop\n      pop\n      pop\n      jump\t// out\n        /* \"#utility.yul\":16485:16868   */\n    tag_420:\n        /* \"#utility.yul\":16634:16636   */\n      0x20\n        /* \"#utility.yul\":16623:16632   */\n      dup2\n        /* \"#utility.yul\":16616:16637   */\n      mstore\n        /* \"#utility.yul\":16597:16601   */\n      0x00\n        /* \"#utility.yul\":16666:16672   */\n      dup3\n        /* \"#utility.yul\":16660:16673   */\n      mload\n        /* \"#utility.yul\":16709:16715   */\n      dup1\n        /* \"#utility.yul\":16704:16706   */\n      0x20\n        /* \"#utility.yul\":16693:16702   */\n      dup5\n        /* \"#utility.yul\":16689:16707   */\n      add\n        /* \"#utility.yul\":16682:16716   */\n      mstore\n        /* \"#utility.yul\":16725:16791   */\n      tag_552\n        /* \"#utility.yul\":16784:16790   */\n      dup2\n        /* \"#utility.yul\":16779:16781   */\n      0x40\n        /* \"#utility.yul\":16768:16777   */\n      dup6\n        /* \"#utility.yul\":16764:16782   */\n      add\n        /* \"#utility.yul\":16759:16761   */\n      0x20\n        /* \"#utility.yul\":16751:16757   */\n      dup8\n        /* \"#utility.yul\":16747:16762   */\n      add\n        /* \"#utility.yul\":16725:16791   */\n      tag_438\n      jump\t// in\n    tag_552:\n        /* \"#utility.yul\":16852:16854   */\n      0x1f\n        /* \"#utility.yul\":16831:16846   */\n      add\n      not(0x1f)\n        /* \"#utility.yul\":16827:16856   */\n      and\n        /* \"#utility.yul\":16812:16857   */\n      swap2\n      swap1\n      swap2\n      add\n        /* \"#utility.yul\":16859:16861   */\n      0x40\n        /* \"#utility.yul\":16808:16862   */\n      add\n      swap3\n        /* \"#utility.yul\":16485:16868   */\n      swap2\n      pop\n      pop\n      jump\t// out\n\n    auxdata: 0xa26469706673582212209f92cda8f8369134a0f93cbf91a4ed4a9b33e267a1c0227f87ecb64be4cb6c0b64736f6c634300080f0033\n}\n",
				"bytecode": {
					"linkReferences": {},
					"object": "60806040523480156200001157600080fd5b50604051620023a0380380620023a083398101604081905262000034916200041e565b60016002556200004660003362000064565b6200005182620000ed565b6200005c816200015d565b5050620005d4565b60008281526001602090815260408083206001600160a01b038516845290915290205460ff16620000e95760008281526001602081815260408084206001600160a01b0386168086529252808420805460ff19169093179092559051339285917f2f8788117e7eff1d82e926ec794901d17c78024a50270940304540a733656f0d9190a45b5050565b6000620000fa81620001a9565b600380546001600160a01b038481166001600160a01b031983168117909355604080519190921680825260208201939093527f92ce13baec98d66394cf79a9f16b88c346e6bd6dd4df75ac1144e5dc7ff8e54191015b60405180910390a1505050565b60006200016a81620001a9565b600080549083905560408051828152602081018590527f8c059dfa273e5360f0ad8d03524cfc0e8e91f05bf893452e7e92c8bf0feffb65910162000150565b620001b58133620001b8565b50565b60008281526001602090815260408083206001600160a01b038516845290915290205460ff16620000e95762000204816001600160a01b031660146200025e60201b620014501760201c565b6200021a836020620014506200025e821b17811c565b6040516020016200022d9291906200048d565b60408051601f198184030181529082905262461bcd60e51b8252620002559160040162000506565b60405180910390fd5b606060006200026f83600262000551565b6200027c90600262000573565b6001600160401b038111156200029657620002966200058e565b6040519080825280601f01601f191660200182016040528015620002c1576020820181803683370190505b509050600360fc1b81600081518110620002df57620002df620005a4565b60200101906001600160f81b031916908160001a905350600f60fb1b81600181518110620003115762000311620005a4565b60200101906001600160f81b031916908160001a90535060006200033784600262000551565b6200034490600162000573565b90505b6001811115620003c6576f181899199a1a9b1b9c1cb0b131b232b360811b85600f16601081106200037c576200037c620005a4565b1a60f81b828281518110620003955762000395620005a4565b60200101906001600160f81b031916908160001a90535060049490941c93620003be81620005ba565b905062000347565b508315620004175760405162461bcd60e51b815260206004820181905260248201527f537472696e67733a20686578206c656e67746820696e73756666696369656e74604482015260640162000255565b9392505050565b600080604083850312156200043257600080fd5b82516001600160a01b03811681146200044a57600080fd5b6020939093015192949293505050565b60005b83811015620004775781810151838201526020016200045d565b8381111562000487576000848401525b50505050565b7f416363657373436f6e74726f6c3a206163636f756e7420000000000000000000815260008351620004c78160178501602088016200045a565b7001034b99036b4b9b9b4b733903937b6329607d1b6017918401918201528351620004fa8160288401602088016200045a565b01602801949350505050565b6020815260008251806020840152620005278160408501602087016200045a565b601f01601f19169190910160400192915050565b634e487b7160e01b600052601160045260246000fd5b60008160001904831182151516156200056e576200056e6200053b565b500290565b600082198211156200058957620005896200053b565b500190565b634e487b7160e01b600052604160045260246000fd5b634e487b7160e01b600052603260045260246000fd5b600081620005cc57620005cc6200053b565b506000190190565b611dbc80620005e46000396000f3fe6080604052600436106101cd5760003560e01c80637cb64759116100f7578063a7bb580311610095578063f055c7a911610064578063f055c7a91461056a578063fa540801146105a3578063fade63c9146105c3578063ff0938a7146105e357600080fd5b8063a7bb5803146104e4578063c4e41b2214610522578063d547741f14610537578063de6892c81461055757600080fd5b806397aba7f9116100d157806397aba7f91461046e5780639e6c88551461048e578063a217fddf146104ae578063a4435dfd146104c357600080fd5b80637cb647591461040e5780638b7b80b71461042e57806391d148541461044e57600080fd5b80632eb4a7ab1161016f5780634c0f38c21161013e5780634c0f38c2146103805780635997bbee146103955780636387f804146103ce5780636c19e783146103ee57600080fd5b80632eb4a7ab1461030a5780632f2ff15d1461032057806336568abe1461034057806342920a461461036057600080fd5b80631f5ac1b2116101ab5780631f5ac1b21461026c578063238ac9331461028c578063248a9ca3146102c45780632904e6d9146102f557600080fd5b806301ffc9a7146101d257806318f52c48146102075780631b0d2d3b14610228575b600080fd5b3480156101de57600080fd5b506101f26101ed36600461185d565b6105f8565b60405190151581526020015b60405180910390f35b34801561021357600080fd5b506003546101f290600160a81b900460ff1681565b34801561023457600080fd5b5061025e61024336600461189c565b6001600160a01b031660009081526006602052604090205490565b6040519081526020016101fe565b34801561027857600080fd5b5061025e61028736600461189c565b61062f565b34801561029857600080fd5b506004546102ac906001600160a01b031681565b6040516001600160a01b0390911681526020016101fe565b3480156102d057600080fd5b5061025e6102df3660046118b9565b6000908152600160208190526040909120015490565b6103086103033660046118d2565b610679565b005b34801561031657600080fd5b5061025e60005481565b34801561032c57600080fd5b5061030861033b36600461194d565b610a88565b34801561034c57600080fd5b5061030861035b36600461194d565b610ab3565b34801561036c57600080fd5b506101f261037b366004611a20565b610b31565b34801561038c57600080fd5b5061025e610b74565b3480156103a157600080fd5b506101f26103b036600461189c565b6001600160a01b031660009081526005602052604090205460ff1690565b3480156103da57600080fd5b506103086103e9366004611a90565b610be7565b3480156103fa57600080fd5b5061030861040936600461189c565b610c4b565b34801561041a57600080fd5b506103086104293660046118b9565b610cb9565b34801561043a57600080fd5b506003546102ac906001600160a01b031681565b34801561045a57600080fd5b506101f261046936600461194d565b610d02565b34801561047a57600080fd5b506102ac610489366004611aad565b610d2d565b34801561049a57600080fd5b506103086104a936600461189c565b610dac565b3480156104ba57600080fd5b5061025e600081565b3480156104cf57600080fd5b506003546101f290600160a01b900460ff1681565b3480156104f057600080fd5b506105046104ff366004611af4565b610e11565b60408051938452602084019290925260ff16908201526060016101fe565b34801561052e57600080fd5b5061025e610e85565b34801561054357600080fd5b5061030861055236600461194d565b610ecf565b610308610565366004611b29565b610ef5565b34801561057657600080fd5b506101f261058536600461189c565b6001600160a01b031660009081526007602052604090205460ff1690565b3480156105af57600080fd5b5061025e6105be3660046118b9565b61134f565b3480156105cf57600080fd5b506103086105de366004611a90565b61138a565b3480156105ef57600080fd5b506101f26113e2565b60006001600160e01b03198216637965db0b60e01b148061062957506301ffc9a760e01b6001600160e01b03198316145b92915050565b6040516bffffffffffffffffffffffff19606083811b8216602084015230901b1660348201526000906048015b604051602081830303815290604052805190602001209050919050565b60028054036106cf5760405162461bcd60e51b815260206004820152601f60248201527f5265656e7472616e637947756172643a207265656e7472616e742063616c6c0060448201526064015b60405180910390fd5b600280556106db6113e2565b1561071e5760405162461bcd60e51b81526020600482015260136024820152722730b3b0a5b4b2103bb0b9902830bab9b2b21760691b60448201526064016106c6565b600354600160a81b900460ff16151560011461077c5760405162461bcd60e51b815260206004820152601b60248201527f57686974656c697374206e6f74206f70656e20746f206d696e742e000000000060448201526064016106c6565b61045781610788610e85565b6107929190611bb1565b106107cd5760405162461bcd60e51b815260206004820152600b60248201526a4f76657220737570706c7960a81b60448201526064016106c6565b3360009081526005602052604090205460ff16151560010361082b5760405162461bcd60e51b81526020600482015260176024820152762cb7ba9030b9329030b63932b0b23c9036b4b73a32b21760491b60448201526064016106c6565b6003546040805163d539139360e01b815290516001600160a01b03909216916391d1485491839163d5391393916004808201926020929091908290030181865afa15801561087d573d6000803e3d6000fd5b505050506040513d601f19601f820116820180604052508101906108a19190611bc9565b6040516001600160e01b031960e084901b1681526004810191909152306024820152604401602060405180830381865afa1580156108e3573d6000803e3d6000fd5b505050506040513d601f19601f820116820180604052508101906109079190611be2565b15156001146109285760405162461bcd60e51b81526004016106c690611bff565b610934838333846115f3565b61098e5760405162461bcd60e51b815260206004820152602560248201527f556e617574686f72697a65642057686974656c6973744d696e742054686973206044820152642ab9b2b91760d91b60648201526084016106c6565b336000908152600560209081526040808320805460ff191660011790556006909152812080548392906109c2908490611bb1565b90915550600090505b81811015610a43576003546040516340d097c360e01b81523360048201526001600160a01b03909116906340d097c390602401600060405180830381600087803b158015610a1857600080fd5b505af1158015610a2c573d6000803e3d6000fd5b505050508080610a3b90611c49565b9150506109cb565b506040805182815242602082015233917fb7df065473d5cf63ef5cf9190dbd326ea5e6fbfe4a0971f4920e430bbfd5a938910160405180910390a25050600160025550565b60008281526001602081905260409091200154610aa481611690565b610aae838361169d565b505050565b6001600160a01b0381163314610b235760405162461bcd60e51b815260206004820152602f60248201527f416363657373436f6e74726f6c3a2063616e206f6e6c792072656e6f756e636560448201526e103937b632b9903337b91039b2b63360891b60648201526084016106c6565b610b2d8282611708565b5050565b600080610b3d8461062f565b90506000610b4a8261134f565b9050856001600160a01b0316610b608286610d2d565b6001600160a01b0316149695505050505050565b6003546040805163d5abeb0160e01b815290516000926001600160a01b03169163d5abeb019160048083019260209291908290030181865afa158015610bbe573d6000803e3d6000fd5b505050506040513d601f19601f82011682018060405250810190610be29190611bc9565b905090565b6000610bf281611690565b60038054831515600160a01b0260ff60a01b199091161790556040517f7955b9c09440c823c45ec1ed87cd3f0860e31e9f5a8e65cff61bed27545bedd790610c3f90841515815260200190565b60405180910390a15050565b6000610c5681611690565b600480546001600160a01b038481166001600160a01b031983168117909355604080519190921680825260208201939093527f3271c8694494a7cc76cd185c743e9ee6b515a043ea98c0db7f5ca112f694add491015b60405180910390a1505050565b6000610cc481611690565b600080549083905560408051828152602081018590527f8c059dfa273e5360f0ad8d03524cfc0e8e91f05bf893452e7e92c8bf0feffb659101610cac565b60009182526001602090815260408084206001600160a01b0393909316845291905290205460ff1690565b600080600080610d3c85610e11565b6040805160008152602081018083528b905260ff8316918101919091526060810184905260808101839052929550909350915060019060a0016020604051602081039080840390855afa158015610d97573d6000803e3d6000fd5b5050604051601f190151979650505050505050565b6000610db781611690565b600380546001600160a01b038481166001600160a01b031983168117909355604080519190921680825260208201939093527f92ce13baec98d66394cf79a9f16b88c346e6bd6dd4df75ac1144e5dc7ff8e5419101610cac565b60008060008351604114610e675760405162461bcd60e51b815260206004820152601860248201527f696e76616c6964207369676e6174757265206c656e677468000000000000000060448201526064016106c6565b50505060208101516040820151606090920151909260009190911a90565b600354604080516318160ddd60e01b815290516000926001600160a01b0316916318160ddd9160048083019260209291908290030181865afa158015610bbe573d6000803e3d6000fd5b60008281526001602081905260409091200154610eeb81611690565b610aae8383611708565b6002805403610f465760405162461bcd60e51b815260206004820152601f60248201527f5265656e7472616e637947756172643a207265656e7472616e742063616c6c0060448201526064016106c6565b60028055610f526113e2565b15610f955760405162461bcd60e51b81526020600482015260136024820152722730b3b0a5b4b2103bb0b9902830bab9b2b21760691b60448201526064016106c6565b600354600160a01b900460ff161515600114610ff35760405162461bcd60e51b815260206004820152601b60248201527f57686974656c697374206e6f74206f70656e20746f206d696e742e000000000060448201526064016106c6565b3233146110425760405162461bcd60e51b815260206004820152601b60248201527f6861686120436f6e74726163742063616e27742063616c6c206d65000000000060448201526064016106c6565b3360009081526007602052604090205460ff1615156001036110a05760405162461bcd60e51b81526020600482015260176024820152762cb7ba9030b9329030b63932b0b23c9036b4b73a32b21760491b60448201526064016106c6565b6104576110ab610e85565b6110b6906001611bb1565b106110f85760405162461bcd60e51b815260206004820152601260248201527113dd995c8814dd5c1c1b1e48105b5bdd5b9d60721b60448201526064016106c6565b6003546040805163d539139360e01b815290516001600160a01b03909216916391d1485491839163d5391393916004808201926020929091908290030181865afa15801561114a573d6000803e3d6000fd5b505050506040513d601f19601f8201168201806040525081019061116e9190611bc9565b6040516001600160e01b031960e084901b1681526004810191909152306024820152604401602060405180830381865afa1580156111b0573d6000803e3d6000fd5b505050506040513d601f19601f820116820180604052508101906111d49190611be2565b15156001146111f55760405162461bcd60e51b81526004016106c690611bff565b600454604080516020601f8501819004810282018101909252838152611242926001600160a01b0316913391908690869081908401838280828437600092019190915250610b3192505050565b6112995760405162461bcd60e51b815260206004820152602260248201527f556e617574686f72697a6564205075626c69634d696e74205468697320557365604482015261391760f11b60648201526084016106c6565b3360008181526007602052604090819020805460ff1916600117905560035490516340d097c360e01b815260048101929092526001600160a01b0316906340d097c390602401600060405180830381600087803b1580156112f957600080fd5b505af115801561130d573d6000803e3d6000fd5b50506040514281523392507fab9980fb1d2916bce9017edd1be458e3f56d0899b3367cb3a8be97483fbe069b915060200160405180910390a250506001600255565b6040517f19457468657265756d205369676e6564204d6573736167653a0a3332000000006020820152603c8101829052600090605c0161065c565b600061139581611690565b60038054831515600160a81b0260ff60a81b199091161790556040517f1e78b6fb38a6776b3b021a6298e924f52991aa2bb97dd89e0a8cd9765df8636790610c3f90841515815260200190565b60035460408051635c975abb60e01b815290516000926001600160a01b031691635c975abb9160048083019260209291908290030181865afa15801561142c573d6000803e3d6000fd5b505050506040513d601f19601f82011682018060405250810190610be29190611be2565b6060600061145f836002611c62565b61146a906002611bb1565b67ffffffffffffffff8111156114825761148261197d565b6040519080825280601f01601f1916602001820160405280156114ac576020820181803683370190505b509050600360fc1b816000815181106114c7576114c7611c81565b60200101906001600160f81b031916908160001a905350600f60fb1b816001815181106114f6576114f6611c81565b60200101906001600160f81b031916908160001a905350600061151a846002611c62565b611525906001611bb1565b90505b600181111561159d576f181899199a1a9b1b9c1cb0b131b232b360811b85600f166010811061155957611559611c81565b1a60f81b82828151811061156f5761156f611c81565b60200101906001600160f81b031916908160001a90535060049490941c9361159681611c97565b9050611528565b5083156115ec5760405162461bcd60e51b815260206004820181905260248201527f537472696e67733a20686578206c656e67746820696e73756666696369656e7460448201526064016106c6565b9392505050565b60008054810361160557506000611688565b6116858585808060200260200160405190810160405280939291908181526020018383602002808284376000920182905250546040516bffffffffffffffffffffffff1960608b901b16602082015260348101899052909350605401915061166a9050565b6040516020818303038152906040528051906020012061176f565b90505b949350505050565b61169a8133611785565b50565b6116a78282610d02565b610b2d5760008281526001602081815260408084206001600160a01b0386168086529252808420805460ff19169093179092559051339285917f2f8788117e7eff1d82e926ec794901d17c78024a50270940304540a733656f0d9190a45050565b6117128282610d02565b15610b2d5760008281526001602090815260408083206001600160a01b0385168085529252808320805460ff1916905551339285917ff6391f5c32d9c69d2a47ea670b442974b53935d1edc7fd64eb21e047a839171b9190a45050565b60008261177c85846117e9565b14949350505050565b61178f8282610d02565b610b2d576117a7816001600160a01b03166014611450565b6117b2836020611450565b6040516020016117c3929190611cde565b60408051601f198184030181529082905262461bcd60e51b82526106c691600401611d53565b600081815b845181101561185557600085828151811061180b5761180b611c81565b602002602001015190508083116118315760008381526020829052604090209250611842565b600081815260208490526040902092505b508061184d81611c49565b9150506117ee565b509392505050565b60006020828403121561186f57600080fd5b81356001600160e01b0319811681146115ec57600080fd5b6001600160a01b038116811461169a57600080fd5b6000602082840312156118ae57600080fd5b81356115ec81611887565b6000602082840312156118cb57600080fd5b5035919050565b6000806000604084860312156118e757600080fd5b833567ffffffffffffffff808211156118ff57600080fd5b818601915086601f83011261191357600080fd5b81358181111561192257600080fd5b8760208260051b850101111561193757600080fd5b6020928301989097509590910135949350505050565b6000806040838503121561196057600080fd5b82359150602083013561197281611887565b809150509250929050565b634e487b7160e01b600052604160045260246000fd5b600082601f8301126119a457600080fd5b813567ffffffffffffffff808211156119bf576119bf61197d565b604051601f8301601f19908116603f011681019082821181831017156119e7576119e761197d565b81604052838152866020858801011115611a0057600080fd5b836020870160208301376000602085830101528094505050505092915050565b600080600060608486031215611a3557600080fd5b8335611a4081611887565b92506020840135611a5081611887565b9150604084013567ffffffffffffffff811115611a6c57600080fd5b611a7886828701611993565b9150509250925092565b801515811461169a57600080fd5b600060208284031215611aa257600080fd5b81356115ec81611a82565b60008060408385031215611ac057600080fd5b82359150602083013567ffffffffffffffff811115611ade57600080fd5b611aea85828601611993565b9150509250929050565b600060208284031215611b0657600080fd5b813567ffffffffffffffff811115611b1d57600080fd5b61168884828501611993565b60008060208385031215611b3c57600080fd5b823567ffffffffffffffff80821115611b5457600080fd5b818501915085601f830112611b6857600080fd5b813581811115611b7757600080fd5b866020828501011115611b8957600080fd5b60209290920196919550909350505050565b634e487b7160e01b600052601160045260246000fd5b60008219821115611bc457611bc4611b9b565b500190565b600060208284031215611bdb57600080fd5b5051919050565b600060208284031215611bf457600080fd5b81516115ec81611a82565b6020808252602a908201527f5468697320436f6e7472616374206e6f742068617665207065726d697373696f60408201526937103a379036b4b73a1760b11b606082015260800190565b600060018201611c5b57611c5b611b9b565b5060010190565b6000816000190483118215151615611c7c57611c7c611b9b565b500290565b634e487b7160e01b600052603260045260246000fd5b600081611ca657611ca6611b9b565b506000190190565b60005b83811015611cc9578181015183820152602001611cb1565b83811115611cd8576000848401525b50505050565b7f416363657373436f6e74726f6c3a206163636f756e7420000000000000000000815260008351611d16816017850160208801611cae565b7001034b99036b4b9b9b4b733903937b6329607d1b6017918401918201528351611d47816028840160208801611cae565b01602801949350505050565b6020815260008251806020840152611d72816040850160208701611cae565b601f01601f1916919091016040019291505056fea26469706673582212209f92cda8f8369134a0f93cbf91a4ed4a9b33e267a1c0227f87ecb64be4cb6c0b64736f6c634300080f0033",
					"opcodes": "PUSH1 0x80 PUSH1 0x40 MSTORE CALLVALUE DUP1 ISZERO PUSH3 0x11 JUMPI PUSH1 0x0 DUP1 REVERT JUMPDEST POP PUSH1 0x40 MLOAD PUSH3 0x23A0 CODESIZE SUB DUP1 PUSH3 0x23A0 DUP4 CODECOPY DUP2 ADD PUSH1 0x40 DUP2 SWAP1 MSTORE PUSH3 0x34 SWAP2 PUSH3 0x41E JUMP JUMPDEST PUSH1 0x1 PUSH1 0x2 SSTORE PUSH3 0x46 PUSH1 0x0 CALLER PUSH3 0x64 JUMP JUMPDEST PUSH3 0x51 DUP3 PUSH3 0xED JUMP JUMPDEST PUSH3 0x5C DUP2 PUSH3 0x15D JUMP JUMPDEST POP POP PUSH3 0x5D4 JUMP JUMPDEST PUSH1 0x0 DUP3 DUP2 MSTORE PUSH1 0x1 PUSH1 0x20 SWAP1 DUP2 MSTORE PUSH1 0x40 DUP1 DUP4 KECCAK256 PUSH1 0x1 PUSH1 0x1 PUSH1 0xA0 SHL SUB DUP6 AND DUP5 MSTORE SWAP1 SWAP2 MSTORE SWAP1 KECCAK256 SLOAD PUSH1 0xFF AND PUSH3 0xE9 JUMPI PUSH1 0x0 DUP3 DUP2 MSTORE PUSH1 0x1 PUSH1 0x20 DUP2 DUP2 MSTORE PUSH1 0x40 DUP1 DUP5 KECCAK256 PUSH1 0x1 PUSH1 0x1 PUSH1 0xA0 SHL SUB DUP7 AND DUP1 DUP7 MSTORE SWAP3 MSTORE DUP1 DUP5 KECCAK256 DUP1 SLOAD PUSH1 0xFF NOT AND SWAP1 SWAP4 OR SWAP1 SWAP3 SSTORE SWAP1 MLOAD CALLER SWAP3 DUP6 SWAP2 PUSH32 0x2F8788117E7EFF1D82E926EC794901D17C78024A50270940304540A733656F0D SWAP2 SWAP1 LOG4 JUMPDEST POP POP JUMP JUMPDEST PUSH1 0x0 PUSH3 0xFA DUP2 PUSH3 0x1A9 JUMP JUMPDEST PUSH1 0x3 DUP1 SLOAD PUSH1 0x1 PUSH1 0x1 PUSH1 0xA0 SHL SUB DUP5 DUP2 AND PUSH1 0x1 PUSH1 0x1 PUSH1 0xA0 SHL SUB NOT DUP4 AND DUP2 OR SWAP1 SWAP4 SSTORE PUSH1 0x40 DUP1 MLOAD SWAP2 SWAP1 SWAP3 AND DUP1 DUP3 MSTORE PUSH1 0x20 DUP3 ADD SWAP4 SWAP1 SWAP4 MSTORE PUSH32 0x92CE13BAEC98D66394CF79A9F16B88C346E6BD6DD4DF75AC1144E5DC7FF8E541 SWAP2 ADD JUMPDEST PUSH1 0x40 MLOAD DUP1 SWAP2 SUB SWAP1 LOG1 POP POP POP JUMP JUMPDEST PUSH1 0x0 PUSH3 0x16A DUP2 PUSH3 0x1A9 JUMP JUMPDEST PUSH1 0x0 DUP1 SLOAD SWAP1 DUP4 SWAP1 SSTORE PUSH1 0x40 DUP1 MLOAD DUP3 DUP2 MSTORE PUSH1 0x20 DUP2 ADD DUP6 SWAP1 MSTORE PUSH32 0x8C059DFA273E5360F0AD8D03524CFC0E8E91F05BF893452E7E92C8BF0FEFFB65 SWAP2 ADD PUSH3 0x150 JUMP JUMPDEST PUSH3 0x1B5 DUP2 CALLER PUSH3 0x1B8 JUMP JUMPDEST POP JUMP JUMPDEST PUSH1 0x0 DUP3 DUP2 MSTORE PUSH1 0x1 PUSH1 0x20 SWAP1 DUP2 MSTORE PUSH1 0x40 DUP1 DUP4 KECCAK256 PUSH1 0x1 PUSH1 0x1 PUSH1 0xA0 SHL SUB DUP6 AND DUP5 MSTORE SWAP1 SWAP2 MSTORE SWAP1 KECCAK256 SLOAD PUSH1 0xFF AND PUSH3 0xE9 JUMPI PUSH3 0x204 DUP2 PUSH1 0x1 PUSH1 0x1 PUSH1 0xA0 SHL SUB AND PUSH1 0x14 PUSH3 0x25E PUSH1 0x20 SHL PUSH3 0x1450 OR PUSH1 0x20 SHR JUMP JUMPDEST PUSH3 0x21A DUP4 PUSH1 0x20 PUSH3 0x1450 PUSH3 0x25E DUP3 SHL OR DUP2 SHR JUMP JUMPDEST PUSH1 0x40 MLOAD PUSH1 0x20 ADD PUSH3 0x22D SWAP3 SWAP2 SWAP1 PUSH3 0x48D JUMP JUMPDEST PUSH1 0x40 DUP1 MLOAD PUSH1 0x1F NOT DUP2 DUP5 SUB ADD DUP2 MSTORE SWAP1 DUP3 SWAP1 MSTORE PUSH3 0x461BCD PUSH1 0xE5 SHL DUP3 MSTORE PUSH3 0x255 SWAP2 PUSH1 0x4 ADD PUSH3 0x506 JUMP JUMPDEST PUSH1 0x40 MLOAD DUP1 SWAP2 SUB SWAP1 REVERT JUMPDEST PUSH1 0x60 PUSH1 0x0 PUSH3 0x26F DUP4 PUSH1 0x2 PUSH3 0x551 JUMP JUMPDEST PUSH3 0x27C SWAP1 PUSH1 0x2 PUSH3 0x573 JUMP JUMPDEST PUSH1 0x1 PUSH1 0x1 PUSH1 0x40 SHL SUB DUP2 GT ISZERO PUSH3 0x296 JUMPI PUSH3 0x296 PUSH3 0x58E JUMP JUMPDEST PUSH1 0x40 MLOAD SWAP1 DUP1 DUP3 MSTORE DUP1 PUSH1 0x1F ADD PUSH1 0x1F NOT AND PUSH1 0x20 ADD DUP3 ADD PUSH1 0x40 MSTORE DUP1 ISZERO PUSH3 0x2C1 JUMPI PUSH1 0x20 DUP3 ADD DUP2 DUP1 CALLDATASIZE DUP4 CALLDATACOPY ADD SWAP1 POP JUMPDEST POP SWAP1 POP PUSH1 0x3 PUSH1 0xFC SHL DUP2 PUSH1 0x0 DUP2 MLOAD DUP2 LT PUSH3 0x2DF JUMPI PUSH3 0x2DF PUSH3 0x5A4 JUMP JUMPDEST PUSH1 0x20 ADD ADD SWAP1 PUSH1 0x1 PUSH1 0x1 PUSH1 0xF8 SHL SUB NOT AND SWAP1 DUP2 PUSH1 0x0 BYTE SWAP1 MSTORE8 POP PUSH1 0xF PUSH1 0xFB SHL DUP2 PUSH1 0x1 DUP2 MLOAD DUP2 LT PUSH3 0x311 JUMPI PUSH3 0x311 PUSH3 0x5A4 JUMP JUMPDEST PUSH1 0x20 ADD ADD SWAP1 PUSH1 0x1 PUSH1 0x1 PUSH1 0xF8 SHL SUB NOT AND SWAP1 DUP2 PUSH1 0x0 BYTE SWAP1 MSTORE8 POP PUSH1 0x0 PUSH3 0x337 DUP5 PUSH1 0x2 PUSH3 0x551 JUMP JUMPDEST PUSH3 0x344 SWAP1 PUSH1 0x1 PUSH3 0x573 JUMP JUMPDEST SWAP1 POP JUMPDEST PUSH1 0x1 DUP2 GT ISZERO PUSH3 0x3C6 JUMPI PUSH16 0x181899199A1A9B1B9C1CB0B131B232B3 PUSH1 0x81 SHL DUP6 PUSH1 0xF AND PUSH1 0x10 DUP2 LT PUSH3 0x37C JUMPI PUSH3 0x37C PUSH3 0x5A4 JUMP JUMPDEST BYTE PUSH1 0xF8 SHL DUP3 DUP3 DUP2 MLOAD DUP2 LT PUSH3 0x395 JUMPI PUSH3 0x395 PUSH3 0x5A4 JUMP JUMPDEST PUSH1 0x20 ADD ADD SWAP1 PUSH1 0x1 PUSH1 0x1 PUSH1 0xF8 SHL SUB NOT AND SWAP1 DUP2 PUSH1 0x0 BYTE SWAP1 MSTORE8 POP PUSH1 0x4 SWAP5 SWAP1 SWAP5 SHR SWAP4 PUSH3 0x3BE DUP2 PUSH3 0x5BA JUMP JUMPDEST SWAP1 POP PUSH3 0x347 JUMP JUMPDEST POP DUP4 ISZERO PUSH3 0x417 JUMPI PUSH1 0x40 MLOAD PUSH3 0x461BCD PUSH1 0xE5 SHL DUP2 MSTORE PUSH1 0x20 PUSH1 0x4 DUP3 ADD DUP2 SWAP1 MSTORE PUSH1 0x24 DUP3 ADD MSTORE PUSH32 0x537472696E67733A20686578206C656E67746820696E73756666696369656E74 PUSH1 0x44 DUP3 ADD MSTORE PUSH1 0x64 ADD PUSH3 0x255 JUMP JUMPDEST SWAP4 SWAP3 POP POP POP JUMP JUMPDEST PUSH1 0x0 DUP1 PUSH1 0x40 DUP4 DUP6 SUB SLT ISZERO PUSH3 0x432 JUMPI PUSH1 0x0 DUP1 REVERT JUMPDEST DUP3 MLOAD PUSH1 0x1 PUSH1 0x1 PUSH1 0xA0 SHL SUB DUP2 AND DUP2 EQ PUSH3 0x44A JUMPI PUSH1 0x0 DUP1 REVERT JUMPDEST PUSH1 0x20 SWAP4 SWAP1 SWAP4 ADD MLOAD SWAP3 SWAP5 SWAP3 SWAP4 POP POP POP JUMP JUMPDEST PUSH1 0x0 JUMPDEST DUP4 DUP2 LT ISZERO PUSH3 0x477 JUMPI DUP2 DUP2 ADD MLOAD DUP4 DUP3 ADD MSTORE PUSH1 0x20 ADD PUSH3 0x45D JUMP JUMPDEST DUP4 DUP2 GT ISZERO PUSH3 0x487 JUMPI PUSH1 0x0 DUP5 DUP5 ADD MSTORE JUMPDEST POP POP POP POP JUMP JUMPDEST PUSH32 0x416363657373436F6E74726F6C3A206163636F756E7420000000000000000000 DUP2 MSTORE PUSH1 0x0 DUP4 MLOAD PUSH3 0x4C7 DUP2 PUSH1 0x17 DUP6 ADD PUSH1 0x20 DUP9 ADD PUSH3 0x45A JUMP JUMPDEST PUSH17 0x1034B99036B4B9B9B4B733903937B6329 PUSH1 0x7D SHL PUSH1 0x17 SWAP2 DUP5 ADD SWAP2 DUP3 ADD MSTORE DUP4 MLOAD PUSH3 0x4FA DUP2 PUSH1 0x28 DUP5 ADD PUSH1 0x20 DUP9 ADD PUSH3 0x45A JUMP JUMPDEST ADD PUSH1 0x28 ADD SWAP5 SWAP4 POP POP POP POP JUMP JUMPDEST PUSH1 0x20 DUP2 MSTORE PUSH1 0x0 DUP3 MLOAD DUP1 PUSH1 0x20 DUP5 ADD MSTORE PUSH3 0x527 DUP2 PUSH1 0x40 DUP6 ADD PUSH1 0x20 DUP8 ADD PUSH3 0x45A JUMP JUMPDEST PUSH1 0x1F ADD PUSH1 0x1F NOT AND SWAP2 SWAP1 SWAP2 ADD PUSH1 0x40 ADD SWAP3 SWAP2 POP POP JUMP JUMPDEST PUSH4 0x4E487B71 PUSH1 0xE0 SHL PUSH1 0x0 MSTORE PUSH1 0x11 PUSH1 0x4 MSTORE PUSH1 0x24 PUSH1 0x0 REVERT JUMPDEST PUSH1 0x0 DUP2 PUSH1 0x0 NOT DIV DUP4 GT DUP3 ISZERO ISZERO AND ISZERO PUSH3 0x56E JUMPI PUSH3 0x56E PUSH3 0x53B JUMP JUMPDEST POP MUL SWAP1 JUMP JUMPDEST PUSH1 0x0 DUP3 NOT DUP3 GT ISZERO PUSH3 0x589 JUMPI PUSH3 0x589 PUSH3 0x53B JUMP JUMPDEST POP ADD SWAP1 JUMP JUMPDEST PUSH4 0x4E487B71 PUSH1 0xE0 SHL PUSH1 0x0 MSTORE PUSH1 0x41 PUSH1 0x4 MSTORE PUSH1 0x24 PUSH1 0x0 REVERT JUMPDEST PUSH4 0x4E487B71 PUSH1 0xE0 SHL PUSH1 0x0 MSTORE PUSH1 0x32 PUSH1 0x4 MSTORE PUSH1 0x24 PUSH1 0x0 REVERT JUMPDEST PUSH1 0x0 DUP2 PUSH3 0x5CC JUMPI PUSH3 0x5CC PUSH3 0x53B JUMP JUMPDEST POP PUSH1 0x0 NOT ADD SWAP1 JUMP JUMPDEST PUSH2 0x1DBC DUP1 PUSH3 0x5E4 PUSH1 0x0 CODECOPY PUSH1 0x0 RETURN INVALID PUSH1 0x80 PUSH1 0x40 MSTORE PUSH1 0x4 CALLDATASIZE LT PUSH2 0x1CD JUMPI PUSH1 0x0 CALLDATALOAD PUSH1 0xE0 SHR DUP1 PUSH4 0x7CB64759 GT PUSH2 0xF7 JUMPI DUP1 PUSH4 0xA7BB5803 GT PUSH2 0x95 JUMPI DUP1 PUSH4 0xF055C7A9 GT PUSH2 0x64 JUMPI DUP1 PUSH4 0xF055C7A9 EQ PUSH2 0x56A JUMPI DUP1 PUSH4 0xFA540801 EQ PUSH2 0x5A3 JUMPI DUP1 PUSH4 0xFADE63C9 EQ PUSH2 0x5C3 JUMPI DUP1 PUSH4 0xFF0938A7 EQ PUSH2 0x5E3 JUMPI PUSH1 0x0 DUP1 REVERT JUMPDEST DUP1 PUSH4 0xA7BB5803 EQ PUSH2 0x4E4 JUMPI DUP1 PUSH4 0xC4E41B22 EQ PUSH2 0x522 JUMPI DUP1 PUSH4 0xD547741F EQ PUSH2 0x537 JUMPI DUP1 PUSH4 0xDE6892C8 EQ PUSH2 0x557 JUMPI PUSH1 0x0 DUP1 REVERT JUMPDEST DUP1 PUSH4 0x97ABA7F9 GT PUSH2 0xD1 JUMPI DUP1 PUSH4 0x97ABA7F9 EQ PUSH2 0x46E JUMPI DUP1 PUSH4 0x9E6C8855 EQ PUSH2 0x48E JUMPI DUP1 PUSH4 0xA217FDDF EQ PUSH2 0x4AE JUMPI DUP1 PUSH4 0xA4435DFD EQ PUSH2 0x4C3 JUMPI PUSH1 0x0 DUP1 REVERT JUMPDEST DUP1 PUSH4 0x7CB64759 EQ PUSH2 0x40E JUMPI DUP1 PUSH4 0x8B7B80B7 EQ PUSH2 0x42E JUMPI DUP1 PUSH4 0x91D14854 EQ PUSH2 0x44E JUMPI PUSH1 0x0 DUP1 REVERT JUMPDEST DUP1 PUSH4 0x2EB4A7AB GT PUSH2 0x16F JUMPI DUP1 PUSH4 0x4C0F38C2 GT PUSH2 0x13E JUMPI DUP1 PUSH4 0x4C0F38C2 EQ PUSH2 0x380 JUMPI DUP1 PUSH4 0x5997BBEE EQ PUSH2 0x395 JUMPI DUP1 PUSH4 0x6387F804 EQ PUSH2 0x3CE JUMPI DUP1 PUSH4 0x6C19E783 EQ PUSH2 0x3EE JUMPI PUSH1 0x0 DUP1 REVERT JUMPDEST DUP1 PUSH4 0x2EB4A7AB EQ PUSH2 0x30A JUMPI DUP1 PUSH4 0x2F2FF15D EQ PUSH2 0x320 JUMPI DUP1 PUSH4 0x36568ABE EQ PUSH2 0x340 JUMPI DUP1 PUSH4 0x42920A46 EQ PUSH2 0x360 JUMPI PUSH1 0x0 DUP1 REVERT JUMPDEST DUP1 PUSH4 0x1F5AC1B2 GT PUSH2 0x1AB JUMPI DUP1 PUSH4 0x1F5AC1B2 EQ PUSH2 0x26C JUMPI DUP1 PUSH4 0x238AC933 EQ PUSH2 0x28C JUMPI DUP1 PUSH4 0x248A9CA3 EQ PUSH2 0x2C4 JUMPI DUP1 PUSH4 0x2904E6D9 EQ PUSH2 0x2F5 JUMPI PUSH1 0x0 DUP1 REVERT JUMPDEST DUP1 PUSH4 0x1FFC9A7 EQ PUSH2 0x1D2 JUMPI DUP1 PUSH4 0x18F52C48 EQ PUSH2 0x207 JUMPI DUP1 PUSH4 0x1B0D2D3B EQ PUSH2 0x228 JUMPI JUMPDEST PUSH1 0x0 DUP1 REVERT JUMPDEST CALLVALUE DUP1 ISZERO PUSH2 0x1DE JUMPI PUSH1 0x0 DUP1 REVERT JUMPDEST POP PUSH2 0x1F2 PUSH2 0x1ED CALLDATASIZE PUSH1 0x4 PUSH2 0x185D JUMP JUMPDEST PUSH2 0x5F8 JUMP JUMPDEST PUSH1 0x40 MLOAD SWAP1 ISZERO ISZERO DUP2 MSTORE PUSH1 0x20 ADD JUMPDEST PUSH1 0x40 MLOAD DUP1 SWAP2 SUB SWAP1 RETURN JUMPDEST CALLVALUE DUP1 ISZERO PUSH2 0x213 JUMPI PUSH1 0x0 DUP1 REVERT JUMPDEST POP PUSH1 0x3 SLOAD PUSH2 0x1F2 SWAP1 PUSH1 0x1 PUSH1 0xA8 SHL SWAP1 DIV PUSH1 0xFF AND DUP2 JUMP JUMPDEST CALLVALUE DUP1 ISZERO PUSH2 0x234 JUMPI PUSH1 0x0 DUP1 REVERT JUMPDEST POP PUSH2 0x25E PUSH2 0x243 CALLDATASIZE PUSH1 0x4 PUSH2 0x189C JUMP JUMPDEST PUSH1 0x1 PUSH1 0x1 PUSH1 0xA0 SHL SUB AND PUSH1 0x0 SWAP1 DUP2 MSTORE PUSH1 0x6 PUSH1 0x20 MSTORE PUSH1 0x40 SWAP1 KECCAK256 SLOAD SWAP1 JUMP JUMPDEST PUSH1 0x40 MLOAD SWAP1 DUP2 MSTORE PUSH1 0x20 ADD PUSH2 0x1FE JUMP JUMPDEST CALLVALUE DUP1 ISZERO PUSH2 0x278 JUMPI PUSH1 0x0 DUP1 REVERT JUMPDEST POP PUSH2 0x25E PUSH2 0x287 CALLDATASIZE PUSH1 0x4 PUSH2 0x189C JUMP JUMPDEST PUSH2 0x62F JUMP JUMPDEST CALLVALUE DUP1 ISZERO PUSH2 0x298 JUMPI PUSH1 0x0 DUP1 REVERT JUMPDEST POP PUSH1 0x4 SLOAD PUSH2 0x2AC SWAP1 PUSH1 0x1 PUSH1 0x1 PUSH1 0xA0 SHL SUB AND DUP2 JUMP JUMPDEST PUSH1 0x40 MLOAD PUSH1 0x1 PUSH1 0x1 PUSH1 0xA0 SHL SUB SWAP1 SWAP2 AND DUP2 MSTORE PUSH1 0x20 ADD PUSH2 0x1FE JUMP JUMPDEST CALLVALUE DUP1 ISZERO PUSH2 0x2D0 JUMPI PUSH1 0x0 DUP1 REVERT JUMPDEST POP PUSH2 0x25E PUSH2 0x2DF CALLDATASIZE PUSH1 0x4 PUSH2 0x18B9 JUMP JUMPDEST PUSH1 0x0 SWAP1 DUP2 MSTORE PUSH1 0x1 PUSH1 0x20 DUP2 SWAP1 MSTORE PUSH1 0x40 SWAP1 SWAP2 KECCAK256 ADD SLOAD SWAP1 JUMP JUMPDEST PUSH2 0x308 PUSH2 0x303 CALLDATASIZE PUSH1 0x4 PUSH2 0x18D2 JUMP JUMPDEST PUSH2 0x679 JUMP JUMPDEST STOP JUMPDEST CALLVALUE DUP1 ISZERO PUSH2 0x316 JUMPI PUSH1 0x0 DUP1 REVERT JUMPDEST POP PUSH2 0x25E PUSH1 0x0 SLOAD DUP2 JUMP JUMPDEST CALLVALUE DUP1 ISZERO PUSH2 0x32C JUMPI PUSH1 0x0 DUP1 REVERT JUMPDEST POP PUSH2 0x308 PUSH2 0x33B CALLDATASIZE PUSH1 0x4 PUSH2 0x194D JUMP JUMPDEST PUSH2 0xA88 JUMP JUMPDEST CALLVALUE DUP1 ISZERO PUSH2 0x34C JUMPI PUSH1 0x0 DUP1 REVERT JUMPDEST POP PUSH2 0x308 PUSH2 0x35B CALLDATASIZE PUSH1 0x4 PUSH2 0x194D JUMP JUMPDEST PUSH2 0xAB3 JUMP JUMPDEST CALLVALUE DUP1 ISZERO PUSH2 0x36C JUMPI PUSH1 0x0 DUP1 REVERT JUMPDEST POP PUSH2 0x1F2 PUSH2 0x37B CALLDATASIZE PUSH1 0x4 PUSH2 0x1A20 JUMP JUMPDEST PUSH2 0xB31 JUMP JUMPDEST CALLVALUE DUP1 ISZERO PUSH2 0x38C JUMPI PUSH1 0x0 DUP1 REVERT JUMPDEST POP PUSH2 0x25E PUSH2 0xB74 JUMP JUMPDEST CALLVALUE DUP1 ISZERO PUSH2 0x3A1 JUMPI PUSH1 0x0 DUP1 REVERT JUMPDEST POP PUSH2 0x1F2 PUSH2 0x3B0 CALLDATASIZE PUSH1 0x4 PUSH2 0x189C JUMP JUMPDEST PUSH1 0x1 PUSH1 0x1 PUSH1 0xA0 SHL SUB AND PUSH1 0x0 SWAP1 DUP2 MSTORE PUSH1 0x5 PUSH1 0x20 MSTORE PUSH1 0x40 SWAP1 KECCAK256 SLOAD PUSH1 0xFF AND SWAP1 JUMP JUMPDEST CALLVALUE DUP1 ISZERO PUSH2 0x3DA JUMPI PUSH1 0x0 DUP1 REVERT JUMPDEST POP PUSH2 0x308 PUSH2 0x3E9 CALLDATASIZE PUSH1 0x4 PUSH2 0x1A90 JUMP JUMPDEST PUSH2 0xBE7 JUMP JUMPDEST CALLVALUE DUP1 ISZERO PUSH2 0x3FA JUMPI PUSH1 0x0 DUP1 REVERT JUMPDEST POP PUSH2 0x308 PUSH2 0x409 CALLDATASIZE PUSH1 0x4 PUSH2 0x189C JUMP JUMPDEST PUSH2 0xC4B JUMP JUMPDEST CALLVALUE DUP1 ISZERO PUSH2 0x41A JUMPI PUSH1 0x0 DUP1 REVERT JUMPDEST POP PUSH2 0x308 PUSH2 0x429 CALLDATASIZE PUSH1 0x4 PUSH2 0x18B9 JUMP JUMPDEST PUSH2 0xCB9 JUMP JUMPDEST CALLVALUE DUP1 ISZERO PUSH2 0x43A JUMPI PUSH1 0x0 DUP1 REVERT JUMPDEST POP PUSH1 0x3 SLOAD PUSH2 0x2AC SWAP1 PUSH1 0x1 PUSH1 0x1 PUSH1 0xA0 SHL SUB AND DUP2 JUMP JUMPDEST CALLVALUE DUP1 ISZERO PUSH2 0x45A JUMPI PUSH1 0x0 DUP1 REVERT JUMPDEST POP PUSH2 0x1F2 PUSH2 0x469 CALLDATASIZE PUSH1 0x4 PUSH2 0x194D JUMP JUMPDEST PUSH2 0xD02 JUMP JUMPDEST CALLVALUE DUP1 ISZERO PUSH2 0x47A JUMPI PUSH1 0x0 DUP1 REVERT JUMPDEST POP PUSH2 0x2AC PUSH2 0x489 CALLDATASIZE PUSH1 0x4 PUSH2 0x1AAD JUMP JUMPDEST PUSH2 0xD2D JUMP JUMPDEST CALLVALUE DUP1 ISZERO PUSH2 0x49A JUMPI PUSH1 0x0 DUP1 REVERT JUMPDEST POP PUSH2 0x308 PUSH2 0x4A9 CALLDATASIZE PUSH1 0x4 PUSH2 0x189C JUMP JUMPDEST PUSH2 0xDAC JUMP JUMPDEST CALLVALUE DUP1 ISZERO PUSH2 0x4BA JUMPI PUSH1 0x0 DUP1 REVERT JUMPDEST POP PUSH2 0x25E PUSH1 0x0 DUP2 JUMP JUMPDEST CALLVALUE DUP1 ISZERO PUSH2 0x4CF JUMPI PUSH1 0x0 DUP1 REVERT JUMPDEST POP PUSH1 0x3 SLOAD PUSH2 0x1F2 SWAP1 PUSH1 0x1 PUSH1 0xA0 SHL SWAP1 DIV PUSH1 0xFF AND DUP2 JUMP JUMPDEST CALLVALUE DUP1 ISZERO PUSH2 0x4F0 JUMPI PUSH1 0x0 DUP1 REVERT JUMPDEST POP PUSH2 0x504 PUSH2 0x4FF CALLDATASIZE PUSH1 0x4 PUSH2 0x1AF4 JUMP JUMPDEST PUSH2 0xE11 JUMP JUMPDEST PUSH1 0x40 DUP1 MLOAD SWAP4 DUP5 MSTORE PUSH1 0x20 DUP5 ADD SWAP3 SWAP1 SWAP3 MSTORE PUSH1 0xFF AND SWAP1 DUP3 ADD MSTORE PUSH1 0x60 ADD PUSH2 0x1FE JUMP JUMPDEST CALLVALUE DUP1 ISZERO PUSH2 0x52E JUMPI PUSH1 0x0 DUP1 REVERT JUMPDEST POP PUSH2 0x25E PUSH2 0xE85 JUMP JUMPDEST CALLVALUE DUP1 ISZERO PUSH2 0x543 JUMPI PUSH1 0x0 DUP1 REVERT JUMPDEST POP PUSH2 0x308 PUSH2 0x552 CALLDATASIZE PUSH1 0x4 PUSH2 0x194D JUMP JUMPDEST PUSH2 0xECF JUMP JUMPDEST PUSH2 0x308 PUSH2 0x565 CALLDATASIZE PUSH1 0x4 PUSH2 0x1B29 JUMP JUMPDEST PUSH2 0xEF5 JUMP JUMPDEST CALLVALUE DUP1 ISZERO PUSH2 0x576 JUMPI PUSH1 0x0 DUP1 REVERT JUMPDEST POP PUSH2 0x1F2 PUSH2 0x585 CALLDATASIZE PUSH1 0x4 PUSH2 0x189C JUMP JUMPDEST PUSH1 0x1 PUSH1 0x1 PUSH1 0xA0 SHL SUB AND PUSH1 0x0 SWAP1 DUP2 MSTORE PUSH1 0x7 PUSH1 0x20 MSTORE PUSH1 0x40 SWAP1 KECCAK256 SLOAD PUSH1 0xFF AND SWAP1 JUMP JUMPDEST CALLVALUE DUP1 ISZERO PUSH2 0x5AF JUMPI PUSH1 0x0 DUP1 REVERT JUMPDEST POP PUSH2 0x25E PUSH2 0x5BE CALLDATASIZE PUSH1 0x4 PUSH2 0x18B9 JUMP JUMPDEST PUSH2 0x134F JUMP JUMPDEST CALLVALUE DUP1 ISZERO PUSH2 0x5CF JUMPI PUSH1 0x0 DUP1 REVERT JUMPDEST POP PUSH2 0x308 PUSH2 0x5DE CALLDATASIZE PUSH1 0x4 PUSH2 0x1A90 JUMP JUMPDEST PUSH2 0x138A JUMP JUMPDEST CALLVALUE DUP1 ISZERO PUSH2 0x5EF JUMPI PUSH1 0x0 DUP1 REVERT JUMPDEST POP PUSH2 0x1F2 PUSH2 0x13E2 JUMP JUMPDEST PUSH1 0x0 PUSH1 0x1 PUSH1 0x1 PUSH1 0xE0 SHL SUB NOT DUP3 AND PUSH4 0x7965DB0B PUSH1 0xE0 SHL EQ DUP1 PUSH2 0x629 JUMPI POP PUSH4 0x1FFC9A7 PUSH1 0xE0 SHL PUSH1 0x1 PUSH1 0x1 PUSH1 0xE0 SHL SUB NOT DUP4 AND EQ JUMPDEST SWAP3 SWAP2 POP POP JUMP JUMPDEST PUSH1 0x40 MLOAD PUSH12 0xFFFFFFFFFFFFFFFFFFFFFFFF NOT PUSH1 0x60 DUP4 DUP2 SHL DUP3 AND PUSH1 0x20 DUP5 ADD MSTORE ADDRESS SWAP1 SHL AND PUSH1 0x34 DUP3 ADD MSTORE PUSH1 0x0 SWAP1 PUSH1 0x48 ADD JUMPDEST PUSH1 0x40 MLOAD PUSH1 0x20 DUP2 DUP4 SUB SUB DUP2 MSTORE SWAP1 PUSH1 0x40 MSTORE DUP1 MLOAD SWAP1 PUSH1 0x20 ADD KECCAK256 SWAP1 POP SWAP2 SWAP1 POP JUMP JUMPDEST PUSH1 0x2 DUP1 SLOAD SUB PUSH2 0x6CF JUMPI PUSH1 0x40 MLOAD PUSH3 0x461BCD PUSH1 0xE5 SHL DUP2 MSTORE PUSH1 0x20 PUSH1 0x4 DUP3 ADD MSTORE PUSH1 0x1F PUSH1 0x24 DUP3 ADD MSTORE PUSH32 0x5265656E7472616E637947756172643A207265656E7472616E742063616C6C00 PUSH1 0x44 DUP3 ADD MSTORE PUSH1 0x64 ADD JUMPDEST PUSH1 0x40 MLOAD DUP1 SWAP2 SUB SWAP1 REVERT JUMPDEST PUSH1 0x2 DUP1 SSTORE PUSH2 0x6DB PUSH2 0x13E2 JUMP JUMPDEST ISZERO PUSH2 0x71E JUMPI PUSH1 0x40 MLOAD PUSH3 0x461BCD PUSH1 0xE5 SHL DUP2 MSTORE PUSH1 0x20 PUSH1 0x4 DUP3 ADD MSTORE PUSH1 0x13 PUSH1 0x24 DUP3 ADD MSTORE PUSH19 0x2730B3B0A5B4B2103BB0B9902830BAB9B2B217 PUSH1 0x69 SHL PUSH1 0x44 DUP3 ADD MSTORE PUSH1 0x64 ADD PUSH2 0x6C6 JUMP JUMPDEST PUSH1 0x3 SLOAD PUSH1 0x1 PUSH1 0xA8 SHL SWAP1 DIV PUSH1 0xFF AND ISZERO ISZERO PUSH1 0x1 EQ PUSH2 0x77C JUMPI PUSH1 0x40 MLOAD PUSH3 0x461BCD PUSH1 0xE5 SHL DUP2 MSTORE PUSH1 0x20 PUSH1 0x4 DUP3 ADD MSTORE PUSH1 0x1B PUSH1 0x24 DUP3 ADD MSTORE PUSH32 0x57686974656C697374206E6F74206F70656E20746F206D696E742E0000000000 PUSH1 0x44 DUP3 ADD MSTORE PUSH1 0x64 ADD PUSH2 0x6C6 JUMP JUMPDEST PUSH2 0x457 DUP2 PUSH2 0x788 PUSH2 0xE85 JUMP JUMPDEST PUSH2 0x792 SWAP2 SWAP1 PUSH2 0x1BB1 JUMP JUMPDEST LT PUSH2 0x7CD JUMPI PUSH1 0x40 MLOAD PUSH3 0x461BCD PUSH1 0xE5 SHL DUP2 MSTORE PUSH1 0x20 PUSH1 0x4 DUP3 ADD MSTORE PUSH1 0xB PUSH1 0x24 DUP3 ADD MSTORE PUSH11 0x4F76657220737570706C79 PUSH1 0xA8 SHL PUSH1 0x44 DUP3 ADD MSTORE PUSH1 0x64 ADD PUSH2 0x6C6 JUMP JUMPDEST CALLER PUSH1 0x0 SWAP1 DUP2 MSTORE PUSH1 0x5 PUSH1 0x20 MSTORE PUSH1 0x40 SWAP1 KECCAK256 SLOAD PUSH1 0xFF AND ISZERO ISZERO PUSH1 0x1 SUB PUSH2 0x82B JUMPI PUSH1 0x40 MLOAD PUSH3 0x461BCD PUSH1 0xE5 SHL DUP2 MSTORE PUSH1 0x20 PUSH1 0x4 DUP3 ADD MSTORE PUSH1 0x17 PUSH1 0x24 DUP3 ADD MSTORE PUSH23 0x2CB7BA9030B9329030B63932B0B23C9036B4B73A32B217 PUSH1 0x49 SHL PUSH1 0x44 DUP3 ADD MSTORE PUSH1 0x64 ADD PUSH2 0x6C6 JUMP JUMPDEST PUSH1 0x3 SLOAD PUSH1 0x40 DUP1 MLOAD PUSH4 0xD5391393 PUSH1 0xE0 SHL DUP2 MSTORE SWAP1 MLOAD PUSH1 0x1 PUSH1 0x1 PUSH1 0xA0 SHL SUB SWAP1 SWAP3 AND SWAP2 PUSH4 0x91D14854 SWAP2 DUP4 SWAP2 PUSH4 0xD5391393 SWAP2 PUSH1 0x4 DUP1 DUP3 ADD SWAP3 PUSH1 0x20 SWAP3 SWAP1 SWAP2 SWAP1 DUP3 SWAP1 SUB ADD DUP2 DUP7 GAS STATICCALL ISZERO DUP1 ISZERO PUSH2 0x87D JUMPI RETURNDATASIZE PUSH1 0x0 DUP1 RETURNDATACOPY RETURNDATASIZE PUSH1 0x0 REVERT JUMPDEST POP POP POP POP PUSH1 0x40 MLOAD RETURNDATASIZE PUSH1 0x1F NOT PUSH1 0x1F DUP3 ADD AND DUP3 ADD DUP1 PUSH1 0x40 MSTORE POP DUP2 ADD SWAP1 PUSH2 0x8A1 SWAP2 SWAP1 PUSH2 0x1BC9 JUMP JUMPDEST PUSH1 0x40 MLOAD PUSH1 0x1 PUSH1 0x1 PUSH1 0xE0 SHL SUB NOT PUSH1 0xE0 DUP5 SWAP1 SHL AND DUP2 MSTORE PUSH1 0x4 DUP2 ADD SWAP2 SWAP1 SWAP2 MSTORE ADDRESS PUSH1 0x24 DUP3 ADD MSTORE PUSH1 0x44 ADD PUSH1 0x20 PUSH1 0x40 MLOAD DUP1 DUP4 SUB DUP2 DUP7 GAS STATICCALL ISZERO DUP1 ISZERO PUSH2 0x8E3 JUMPI RETURNDATASIZE PUSH1 0x0 DUP1 RETURNDATACOPY RETURNDATASIZE PUSH1 0x0 REVERT JUMPDEST POP POP POP POP PUSH1 0x40 MLOAD RETURNDATASIZE PUSH1 0x1F NOT PUSH1 0x1F DUP3 ADD AND DUP3 ADD DUP1 PUSH1 0x40 MSTORE POP DUP2 ADD SWAP1 PUSH2 0x907 SWAP2 SWAP1 PUSH2 0x1BE2 JUMP JUMPDEST ISZERO ISZERO PUSH1 0x1 EQ PUSH2 0x928 JUMPI PUSH1 0x40 MLOAD PUSH3 0x461BCD PUSH1 0xE5 SHL DUP2 MSTORE PUSH1 0x4 ADD PUSH2 0x6C6 SWAP1 PUSH2 0x1BFF JUMP JUMPDEST PUSH2 0x934 DUP4 DUP4 CALLER DUP5 PUSH2 0x15F3 JUMP JUMPDEST PUSH2 0x98E JUMPI PUSH1 0x40 MLOAD PUSH3 0x461BCD PUSH1 0xE5 SHL DUP2 MSTORE PUSH1 0x20 PUSH1 0x4 DUP3 ADD MSTORE PUSH1 0x25 PUSH1 0x24 DUP3 ADD MSTORE PUSH32 0x556E617574686F72697A65642057686974656C6973744D696E74205468697320 PUSH1 0x44 DUP3 ADD MSTORE PUSH5 0x2AB9B2B917 PUSH1 0xD9 SHL PUSH1 0x64 DUP3 ADD MSTORE PUSH1 0x84 ADD PUSH2 0x6C6 JUMP JUMPDEST CALLER PUSH1 0x0 SWAP1 DUP2 MSTORE PUSH1 0x5 PUSH1 0x20 SWAP1 DUP2 MSTORE PUSH1 0x40 DUP1 DUP4 KECCAK256 DUP1 SLOAD PUSH1 0xFF NOT AND PUSH1 0x1 OR SWAP1 SSTORE PUSH1 0x6 SWAP1 SWAP2 MSTORE DUP2 KECCAK256 DUP1 SLOAD DUP4 SWAP3 SWAP1 PUSH2 0x9C2 SWAP1 DUP5 SWAP1 PUSH2 0x1BB1 JUMP JUMPDEST SWAP1 SWAP2 SSTORE POP PUSH1 0x0 SWAP1 POP JUMPDEST DUP2 DUP2 LT ISZERO PUSH2 0xA43 JUMPI PUSH1 0x3 SLOAD PUSH1 0x40 MLOAD PUSH4 0x40D097C3 PUSH1 0xE0 SHL DUP2 MSTORE CALLER PUSH1 0x4 DUP3 ADD MSTORE PUSH1 0x1 PUSH1 0x1 PUSH1 0xA0 SHL SUB SWAP1 SWAP2 AND SWAP1 PUSH4 0x40D097C3 SWAP1 PUSH1 0x24 ADD PUSH1 0x0 PUSH1 0x40 MLOAD DUP1 DUP4 SUB DUP2 PUSH1 0x0 DUP8 DUP1 EXTCODESIZE ISZERO DUP1 ISZERO PUSH2 0xA18 JUMPI PUSH1 0x0 DUP1 REVERT JUMPDEST POP GAS CALL ISZERO DUP1 ISZERO PUSH2 0xA2C JUMPI RETURNDATASIZE PUSH1 0x0 DUP1 RETURNDATACOPY RETURNDATASIZE PUSH1 0x0 REVERT JUMPDEST POP POP POP POP DUP1 DUP1 PUSH2 0xA3B SWAP1 PUSH2 0x1C49 JUMP JUMPDEST SWAP2 POP POP PUSH2 0x9CB JUMP JUMPDEST POP PUSH1 0x40 DUP1 MLOAD DUP3 DUP2 MSTORE TIMESTAMP PUSH1 0x20 DUP3 ADD MSTORE CALLER SWAP2 PUSH32 0xB7DF065473D5CF63EF5CF9190DBD326EA5E6FBFE4A0971F4920E430BBFD5A938 SWAP2 ADD PUSH1 0x40 MLOAD DUP1 SWAP2 SUB SWAP1 LOG2 POP POP PUSH1 0x1 PUSH1 0x2 SSTORE POP JUMP JUMPDEST PUSH1 0x0 DUP3 DUP2 MSTORE PUSH1 0x1 PUSH1 0x20 DUP2 SWAP1 MSTORE PUSH1 0x40 SWAP1 SWAP2 KECCAK256 ADD SLOAD PUSH2 0xAA4 DUP2 PUSH2 0x1690 JUMP JUMPDEST PUSH2 0xAAE DUP4 DUP4 PUSH2 0x169D JUMP JUMPDEST POP POP POP JUMP JUMPDEST PUSH1 0x1 PUSH1 0x1 PUSH1 0xA0 SHL SUB DUP2 AND CALLER EQ PUSH2 0xB23 JUMPI PUSH1 0x40 MLOAD PUSH3 0x461BCD PUSH1 0xE5 SHL DUP2 MSTORE PUSH1 0x20 PUSH1 0x4 DUP3 ADD MSTORE PUSH1 0x2F PUSH1 0x24 DUP3 ADD MSTORE PUSH32 0x416363657373436F6E74726F6C3A2063616E206F6E6C792072656E6F756E6365 PUSH1 0x44 DUP3 ADD MSTORE PUSH15 0x103937B632B9903337B91039B2B633 PUSH1 0x89 SHL PUSH1 0x64 DUP3 ADD MSTORE PUSH1 0x84 ADD PUSH2 0x6C6 JUMP JUMPDEST PUSH2 0xB2D DUP3 DUP3 PUSH2 0x1708 JUMP JUMPDEST POP POP JUMP JUMPDEST PUSH1 0x0 DUP1 PUSH2 0xB3D DUP5 PUSH2 0x62F JUMP JUMPDEST SWAP1 POP PUSH1 0x0 PUSH2 0xB4A DUP3 PUSH2 0x134F JUMP JUMPDEST SWAP1 POP DUP6 PUSH1 0x1 PUSH1 0x1 PUSH1 0xA0 SHL SUB AND PUSH2 0xB60 DUP3 DUP7 PUSH2 0xD2D JUMP JUMPDEST PUSH1 0x1 PUSH1 0x1 PUSH1 0xA0 SHL SUB AND EQ SWAP7 SWAP6 POP POP POP POP POP POP JUMP JUMPDEST PUSH1 0x3 SLOAD PUSH1 0x40 DUP1 MLOAD PUSH4 0xD5ABEB01 PUSH1 0xE0 SHL DUP2 MSTORE SWAP1 MLOAD PUSH1 0x0 SWAP3 PUSH1 0x1 PUSH1 0x1 PUSH1 0xA0 SHL SUB AND SWAP2 PUSH4 0xD5ABEB01 SWAP2 PUSH1 0x4 DUP1 DUP4 ADD SWAP3 PUSH1 0x20 SWAP3 SWAP2 SWAP1 DUP3 SWAP1 SUB ADD DUP2 DUP7 GAS STATICCALL ISZERO DUP1 ISZERO PUSH2 0xBBE JUMPI RETURNDATASIZE PUSH1 0x0 DUP1 RETURNDATACOPY RETURNDATASIZE PUSH1 0x0 REVERT JUMPDEST POP POP POP POP PUSH1 0x40 MLOAD RETURNDATASIZE PUSH1 0x1F NOT PUSH1 0x1F DUP3 ADD AND DUP3 ADD DUP1 PUSH1 0x40 MSTORE POP DUP2 ADD SWAP1 PUSH2 0xBE2 SWAP2 SWAP1 PUSH2 0x1BC9 JUMP JUMPDEST SWAP1 POP SWAP1 JUMP JUMPDEST PUSH1 0x0 PUSH2 0xBF2 DUP2 PUSH2 0x1690 JUMP JUMPDEST PUSH1 0x3 DUP1 SLOAD DUP4 ISZERO ISZERO PUSH1 0x1 PUSH1 0xA0 SHL MUL PUSH1 0xFF PUSH1 0xA0 SHL NOT SWAP1 SWAP2 AND OR SWAP1 SSTORE PUSH1 0x40 MLOAD PUSH32 0x7955B9C09440C823C45EC1ED87CD3F0860E31E9F5A8E65CFF61BED27545BEDD7 SWAP1 PUSH2 0xC3F SWAP1 DUP5 ISZERO ISZERO DUP2 MSTORE PUSH1 0x20 ADD SWAP1 JUMP JUMPDEST PUSH1 0x40 MLOAD DUP1 SWAP2 SUB SWAP1 LOG1 POP POP JUMP JUMPDEST PUSH1 0x0 PUSH2 0xC56 DUP2 PUSH2 0x1690 JUMP JUMPDEST PUSH1 0x4 DUP1 SLOAD PUSH1 0x1 PUSH1 0x1 PUSH1 0xA0 SHL SUB DUP5 DUP2 AND PUSH1 0x1 PUSH1 0x1 PUSH1 0xA0 SHL SUB NOT DUP4 AND DUP2 OR SWAP1 SWAP4 SSTORE PUSH1 0x40 DUP1 MLOAD SWAP2 SWAP1 SWAP3 AND DUP1 DUP3 MSTORE PUSH1 0x20 DUP3 ADD SWAP4 SWAP1 SWAP4 MSTORE PUSH32 0x3271C8694494A7CC76CD185C743E9EE6B515A043EA98C0DB7F5CA112F694ADD4 SWAP2 ADD JUMPDEST PUSH1 0x40 MLOAD DUP1 SWAP2 SUB SWAP1 LOG1 POP POP POP JUMP JUMPDEST PUSH1 0x0 PUSH2 0xCC4 DUP2 PUSH2 0x1690 JUMP JUMPDEST PUSH1 0x0 DUP1 SLOAD SWAP1 DUP4 SWAP1 SSTORE PUSH1 0x40 DUP1 MLOAD DUP3 DUP2 MSTORE PUSH1 0x20 DUP2 ADD DUP6 SWAP1 MSTORE PUSH32 0x8C059DFA273E5360F0AD8D03524CFC0E8E91F05BF893452E7E92C8BF0FEFFB65 SWAP2 ADD PUSH2 0xCAC JUMP JUMPDEST PUSH1 0x0 SWAP2 DUP3 MSTORE PUSH1 0x1 PUSH1 0x20 SWAP1 DUP2 MSTORE PUSH1 0x40 DUP1 DUP5 KECCAK256 PUSH1 0x1 PUSH1 0x1 PUSH1 0xA0 SHL SUB SWAP4 SWAP1 SWAP4 AND DUP5 MSTORE SWAP2 SWAP1 MSTORE SWAP1 KECCAK256 SLOAD PUSH1 0xFF AND SWAP1 JUMP JUMPDEST PUSH1 0x0 DUP1 PUSH1 0x0 DUP1 PUSH2 0xD3C DUP6 PUSH2 0xE11 JUMP JUMPDEST PUSH1 0x40 DUP1 MLOAD PUSH1 0x0 DUP2 MSTORE PUSH1 0x20 DUP2 ADD DUP1 DUP4 MSTORE DUP12 SWAP1 MSTORE PUSH1 0xFF DUP4 AND SWAP2 DUP2 ADD SWAP2 SWAP1 SWAP2 MSTORE PUSH1 0x60 DUP2 ADD DUP5 SWAP1 MSTORE PUSH1 0x80 DUP2 ADD DUP4 SWAP1 MSTORE SWAP3 SWAP6 POP SWAP1 SWAP4 POP SWAP2 POP PUSH1 0x1 SWAP1 PUSH1 0xA0 ADD PUSH1 0x20 PUSH1 0x40 MLOAD PUSH1 0x20 DUP2 SUB SWAP1 DUP1 DUP5 SUB SWAP1 DUP6 GAS STATICCALL ISZERO DUP1 ISZERO PUSH2 0xD97 JUMPI RETURNDATASIZE PUSH1 0x0 DUP1 RETURNDATACOPY RETURNDATASIZE PUSH1 0x0 REVERT JUMPDEST POP POP PUSH1 0x40 MLOAD PUSH1 0x1F NOT ADD MLOAD SWAP8 SWAP7 POP POP POP POP POP POP POP JUMP JUMPDEST PUSH1 0x0 PUSH2 0xDB7 DUP2 PUSH2 0x1690 JUMP JUMPDEST PUSH1 0x3 DUP1 SLOAD PUSH1 0x1 PUSH1 0x1 PUSH1 0xA0 SHL SUB DUP5 DUP2 AND PUSH1 0x1 PUSH1 0x1 PUSH1 0xA0 SHL SUB NOT DUP4 AND DUP2 OR SWAP1 SWAP4 SSTORE PUSH1 0x40 DUP1 MLOAD SWAP2 SWAP1 SWAP3 AND DUP1 DUP3 MSTORE PUSH1 0x20 DUP3 ADD SWAP4 SWAP1 SWAP4 MSTORE PUSH32 0x92CE13BAEC98D66394CF79A9F16B88C346E6BD6DD4DF75AC1144E5DC7FF8E541 SWAP2 ADD PUSH2 0xCAC JUMP JUMPDEST PUSH1 0x0 DUP1 PUSH1 0x0 DUP4 MLOAD PUSH1 0x41 EQ PUSH2 0xE67 JUMPI PUSH1 0x40 MLOAD PUSH3 0x461BCD PUSH1 0xE5 SHL DUP2 MSTORE PUSH1 0x20 PUSH1 0x4 DUP3 ADD MSTORE PUSH1 0x18 PUSH1 0x24 DUP3 ADD MSTORE PUSH32 0x696E76616C6964207369676E6174757265206C656E6774680000000000000000 PUSH1 0x44 DUP3 ADD MSTORE PUSH1 0x64 ADD PUSH2 0x6C6 JUMP JUMPDEST POP POP POP PUSH1 0x20 DUP2 ADD MLOAD PUSH1 0x40 DUP3 ADD MLOAD PUSH1 0x60 SWAP1 SWAP3 ADD MLOAD SWAP1 SWAP3 PUSH1 0x0 SWAP2 SWAP1 SWAP2 BYTE SWAP1 JUMP JUMPDEST PUSH1 0x3 SLOAD PUSH1 0x40 DUP1 MLOAD PUSH4 0x18160DDD PUSH1 0xE0 SHL DUP2 MSTORE SWAP1 MLOAD PUSH1 0x0 SWAP3 PUSH1 0x1 PUSH1 0x1 PUSH1 0xA0 SHL SUB AND SWAP2 PUSH4 0x18160DDD SWAP2 PUSH1 0x4 DUP1 DUP4 ADD SWAP3 PUSH1 0x20 SWAP3 SWAP2 SWAP1 DUP3 SWAP1 SUB ADD DUP2 DUP7 GAS STATICCALL ISZERO DUP1 ISZERO PUSH2 0xBBE JUMPI RETURNDATASIZE PUSH1 0x0 DUP1 RETURNDATACOPY RETURNDATASIZE PUSH1 0x0 REVERT JUMPDEST PUSH1 0x0 DUP3 DUP2 MSTORE PUSH1 0x1 PUSH1 0x20 DUP2 SWAP1 MSTORE PUSH1 0x40 SWAP1 SWAP2 KECCAK256 ADD SLOAD PUSH2 0xEEB DUP2 PUSH2 0x1690 JUMP JUMPDEST PUSH2 0xAAE DUP4 DUP4 PUSH2 0x1708 JUMP JUMPDEST PUSH1 0x2 DUP1 SLOAD SUB PUSH2 0xF46 JUMPI PUSH1 0x40 MLOAD PUSH3 0x461BCD PUSH1 0xE5 SHL DUP2 MSTORE PUSH1 0x20 PUSH1 0x4 DUP3 ADD MSTORE PUSH1 0x1F PUSH1 0x24 DUP3 ADD MSTORE PUSH32 0x5265656E7472616E637947756172643A207265656E7472616E742063616C6C00 PUSH1 0x44 DUP3 ADD MSTORE PUSH1 0x64 ADD PUSH2 0x6C6 JUMP JUMPDEST PUSH1 0x2 DUP1 SSTORE PUSH2 0xF52 PUSH2 0x13E2 JUMP JUMPDEST ISZERO PUSH2 0xF95 JUMPI PUSH1 0x40 MLOAD PUSH3 0x461BCD PUSH1 0xE5 SHL DUP2 MSTORE PUSH1 0x20 PUSH1 0x4 DUP3 ADD MSTORE PUSH1 0x13 PUSH1 0x24 DUP3 ADD MSTORE PUSH19 0x2730B3B0A5B4B2103BB0B9902830BAB9B2B217 PUSH1 0x69 SHL PUSH1 0x44 DUP3 ADD MSTORE PUSH1 0x64 ADD PUSH2 0x6C6 JUMP JUMPDEST PUSH1 0x3 SLOAD PUSH1 0x1 PUSH1 0xA0 SHL SWAP1 DIV PUSH1 0xFF AND ISZERO ISZERO PUSH1 0x1 EQ PUSH2 0xFF3 JUMPI PUSH1 0x40 MLOAD PUSH3 0x461BCD PUSH1 0xE5 SHL DUP2 MSTORE PUSH1 0x20 PUSH1 0x4 DUP3 ADD MSTORE PUSH1 0x1B PUSH1 0x24 DUP3 ADD MSTORE PUSH32 0x57686974656C697374206E6F74206F70656E20746F206D696E742E0000000000 PUSH1 0x44 DUP3 ADD MSTORE PUSH1 0x64 ADD PUSH2 0x6C6 JUMP JUMPDEST ORIGIN CALLER EQ PUSH2 0x1042 JUMPI PUSH1 0x40 MLOAD PUSH3 0x461BCD PUSH1 0xE5 SHL DUP2 MSTORE PUSH1 0x20 PUSH1 0x4 DUP3 ADD MSTORE PUSH1 0x1B PUSH1 0x24 DUP3 ADD MSTORE PUSH32 0x6861686120436F6E74726163742063616E27742063616C6C206D650000000000 PUSH1 0x44 DUP3 ADD MSTORE PUSH1 0x64 ADD PUSH2 0x6C6 JUMP JUMPDEST CALLER PUSH1 0x0 SWAP1 DUP2 MSTORE PUSH1 0x7 PUSH1 0x20 MSTORE PUSH1 0x40 SWAP1 KECCAK256 SLOAD PUSH1 0xFF AND ISZERO ISZERO PUSH1 0x1 SUB PUSH2 0x10A0 JUMPI PUSH1 0x40 MLOAD PUSH3 0x461BCD PUSH1 0xE5 SHL DUP2 MSTORE PUSH1 0x20 PUSH1 0x4 DUP3 ADD MSTORE PUSH1 0x17 PUSH1 0x24 DUP3 ADD MSTORE PUSH23 0x2CB7BA9030B9329030B63932B0B23C9036B4B73A32B217 PUSH1 0x49 SHL PUSH1 0x44 DUP3 ADD MSTORE PUSH1 0x64 ADD PUSH2 0x6C6 JUMP JUMPDEST PUSH2 0x457 PUSH2 0x10AB PUSH2 0xE85 JUMP JUMPDEST PUSH2 0x10B6 SWAP1 PUSH1 0x1 PUSH2 0x1BB1 JUMP JUMPDEST LT PUSH2 0x10F8 JUMPI PUSH1 0x40 MLOAD PUSH3 0x461BCD PUSH1 0xE5 SHL DUP2 MSTORE PUSH1 0x20 PUSH1 0x4 DUP3 ADD MSTORE PUSH1 0x12 PUSH1 0x24 DUP3 ADD MSTORE PUSH18 0x13DD995C8814DD5C1C1B1E48105B5BDD5B9D PUSH1 0x72 SHL PUSH1 0x44 DUP3 ADD MSTORE PUSH1 0x64 ADD PUSH2 0x6C6 JUMP JUMPDEST PUSH1 0x3 SLOAD PUSH1 0x40 DUP1 MLOAD PUSH4 0xD5391393 PUSH1 0xE0 SHL DUP2 MSTORE SWAP1 MLOAD PUSH1 0x1 PUSH1 0x1 PUSH1 0xA0 SHL SUB SWAP1 SWAP3 AND SWAP2 PUSH4 0x91D14854 SWAP2 DUP4 SWAP2 PUSH4 0xD5391393 SWAP2 PUSH1 0x4 DUP1 DUP3 ADD SWAP3 PUSH1 0x20 SWAP3 SWAP1 SWAP2 SWAP1 DUP3 SWAP1 SUB ADD DUP2 DUP7 GAS STATICCALL ISZERO DUP1 ISZERO PUSH2 0x114A JUMPI RETURNDATASIZE PUSH1 0x0 DUP1 RETURNDATACOPY RETURNDATASIZE PUSH1 0x0 REVERT JUMPDEST POP POP POP POP PUSH1 0x40 MLOAD RETURNDATASIZE PUSH1 0x1F NOT PUSH1 0x1F DUP3 ADD AND DUP3 ADD DUP1 PUSH1 0x40 MSTORE POP DUP2 ADD SWAP1 PUSH2 0x116E SWAP2 SWAP1 PUSH2 0x1BC9 JUMP JUMPDEST PUSH1 0x40 MLOAD PUSH1 0x1 PUSH1 0x1 PUSH1 0xE0 SHL SUB NOT PUSH1 0xE0 DUP5 SWAP1 SHL AND DUP2 MSTORE PUSH1 0x4 DUP2 ADD SWAP2 SWAP1 SWAP2 MSTORE ADDRESS PUSH1 0x24 DUP3 ADD MSTORE PUSH1 0x44 ADD PUSH1 0x20 PUSH1 0x40 MLOAD DUP1 DUP4 SUB DUP2 DUP7 GAS STATICCALL ISZERO DUP1 ISZERO PUSH2 0x11B0 JUMPI RETURNDATASIZE PUSH1 0x0 DUP1 RETURNDATACOPY RETURNDATASIZE PUSH1 0x0 REVERT JUMPDEST POP POP POP POP PUSH1 0x40 MLOAD RETURNDATASIZE PUSH1 0x1F NOT PUSH1 0x1F DUP3 ADD AND DUP3 ADD DUP1 PUSH1 0x40 MSTORE POP DUP2 ADD SWAP1 PUSH2 0x11D4 SWAP2 SWAP1 PUSH2 0x1BE2 JUMP JUMPDEST ISZERO ISZERO PUSH1 0x1 EQ PUSH2 0x11F5 JUMPI PUSH1 0x40 MLOAD PUSH3 0x461BCD PUSH1 0xE5 SHL DUP2 MSTORE PUSH1 0x4 ADD PUSH2 0x6C6 SWAP1 PUSH2 0x1BFF JUMP JUMPDEST PUSH1 0x4 SLOAD PUSH1 0x40 DUP1 MLOAD PUSH1 0x20 PUSH1 0x1F DUP6 ADD DUP2 SWAP1 DIV DUP2 MUL DUP3 ADD DUP2 ADD SWAP1 SWAP3 MSTORE DUP4 DUP2 MSTORE PUSH2 0x1242 SWAP3 PUSH1 0x1 PUSH1 0x1 PUSH1 0xA0 SHL SUB AND SWAP2 CALLER SWAP2 SWAP1 DUP7 SWAP1 DUP7 SWAP1 DUP2 SWAP1 DUP5 ADD DUP4 DUP3 DUP1 DUP3 DUP5 CALLDATACOPY PUSH1 0x0 SWAP3 ADD SWAP2 SWAP1 SWAP2 MSTORE POP PUSH2 0xB31 SWAP3 POP POP POP JUMP JUMPDEST PUSH2 0x1299 JUMPI PUSH1 0x40 MLOAD PUSH3 0x461BCD PUSH1 0xE5 SHL DUP2 MSTORE PUSH1 0x20 PUSH1 0x4 DUP3 ADD MSTORE PUSH1 0x22 PUSH1 0x24 DUP3 ADD MSTORE PUSH32 0x556E617574686F72697A6564205075626C69634D696E74205468697320557365 PUSH1 0x44 DUP3 ADD MSTORE PUSH2 0x3917 PUSH1 0xF1 SHL PUSH1 0x64 DUP3 ADD MSTORE PUSH1 0x84 ADD PUSH2 0x6C6 JUMP JUMPDEST CALLER PUSH1 0x0 DUP2 DUP2 MSTORE PUSH1 0x7 PUSH1 0x20 MSTORE PUSH1 0x40 SWAP1 DUP2 SWAP1 KECCAK256 DUP1 SLOAD PUSH1 0xFF NOT AND PUSH1 0x1 OR SWAP1 SSTORE PUSH1 0x3 SLOAD SWAP1 MLOAD PUSH4 0x40D097C3 PUSH1 0xE0 SHL DUP2 MSTORE PUSH1 0x4 DUP2 ADD SWAP3 SWAP1 SWAP3 MSTORE PUSH1 0x1 PUSH1 0x1 PUSH1 0xA0 SHL SUB AND SWAP1 PUSH4 0x40D097C3 SWAP1 PUSH1 0x24 ADD PUSH1 0x0 PUSH1 0x40 MLOAD DUP1 DUP4 SUB DUP2 PUSH1 0x0 DUP8 DUP1 EXTCODESIZE ISZERO DUP1 ISZERO PUSH2 0x12F9 JUMPI PUSH1 0x0 DUP1 REVERT JUMPDEST POP GAS CALL ISZERO DUP1 ISZERO PUSH2 0x130D JUMPI RETURNDATASIZE PUSH1 0x0 DUP1 RETURNDATACOPY RETURNDATASIZE PUSH1 0x0 REVERT JUMPDEST POP POP PUSH1 0x40 MLOAD TIMESTAMP DUP2 MSTORE CALLER SWAP3 POP PUSH32 0xAB9980FB1D2916BCE9017EDD1BE458E3F56D0899B3367CB3A8BE97483FBE069B SWAP2 POP PUSH1 0x20 ADD PUSH1 0x40 MLOAD DUP1 SWAP2 SUB SWAP1 LOG2 POP POP PUSH1 0x1 PUSH1 0x2 SSTORE JUMP JUMPDEST PUSH1 0x40 MLOAD PUSH32 0x19457468657265756D205369676E6564204D6573736167653A0A333200000000 PUSH1 0x20 DUP3 ADD MSTORE PUSH1 0x3C DUP2 ADD DUP3 SWAP1 MSTORE PUSH1 0x0 SWAP1 PUSH1 0x5C ADD PUSH2 0x65C JUMP JUMPDEST PUSH1 0x0 PUSH2 0x1395 DUP2 PUSH2 0x1690 JUMP JUMPDEST PUSH1 0x3 DUP1 SLOAD DUP4 ISZERO ISZERO PUSH1 0x1 PUSH1 0xA8 SHL MUL PUSH1 0xFF PUSH1 0xA8 SHL NOT SWAP1 SWAP2 AND OR SWAP1 SSTORE PUSH1 0x40 MLOAD PUSH32 0x1E78B6FB38A6776B3B021A6298E924F52991AA2BB97DD89E0A8CD9765DF86367 SWAP1 PUSH2 0xC3F SWAP1 DUP5 ISZERO ISZERO DUP2 MSTORE PUSH1 0x20 ADD SWAP1 JUMP JUMPDEST PUSH1 0x3 SLOAD PUSH1 0x40 DUP1 MLOAD PUSH4 0x5C975ABB PUSH1 0xE0 SHL DUP2 MSTORE SWAP1 MLOAD PUSH1 0x0 SWAP3 PUSH1 0x1 PUSH1 0x1 PUSH1 0xA0 SHL SUB AND SWAP2 PUSH4 0x5C975ABB SWAP2 PUSH1 0x4 DUP1 DUP4 ADD SWAP3 PUSH1 0x20 SWAP3 SWAP2 SWAP1 DUP3 SWAP1 SUB ADD DUP2 DUP7 GAS STATICCALL ISZERO DUP1 ISZERO PUSH2 0x142C JUMPI RETURNDATASIZE PUSH1 0x0 DUP1 RETURNDATACOPY RETURNDATASIZE PUSH1 0x0 REVERT JUMPDEST POP POP POP POP PUSH1 0x40 MLOAD RETURNDATASIZE PUSH1 0x1F NOT PUSH1 0x1F DUP3 ADD AND DUP3 ADD DUP1 PUSH1 0x40 MSTORE POP DUP2 ADD SWAP1 PUSH2 0xBE2 SWAP2 SWAP1 PUSH2 0x1BE2 JUMP JUMPDEST PUSH1 0x60 PUSH1 0x0 PUSH2 0x145F DUP4 PUSH1 0x2 PUSH2 0x1C62 JUMP JUMPDEST PUSH2 0x146A SWAP1 PUSH1 0x2 PUSH2 0x1BB1 JUMP JUMPDEST PUSH8 0xFFFFFFFFFFFFFFFF DUP2 GT ISZERO PUSH2 0x1482 JUMPI PUSH2 0x1482 PUSH2 0x197D JUMP JUMPDEST PUSH1 0x40 MLOAD SWAP1 DUP1 DUP3 MSTORE DUP1 PUSH1 0x1F ADD PUSH1 0x1F NOT AND PUSH1 0x20 ADD DUP3 ADD PUSH1 0x40 MSTORE DUP1 ISZERO PUSH2 0x14AC JUMPI PUSH1 0x20 DUP3 ADD DUP2 DUP1 CALLDATASIZE DUP4 CALLDATACOPY ADD SWAP1 POP JUMPDEST POP SWAP1 POP PUSH1 0x3 PUSH1 0xFC SHL DUP2 PUSH1 0x0 DUP2 MLOAD DUP2 LT PUSH2 0x14C7 JUMPI PUSH2 0x14C7 PUSH2 0x1C81 JUMP JUMPDEST PUSH1 0x20 ADD ADD SWAP1 PUSH1 0x1 PUSH1 0x1 PUSH1 0xF8 SHL SUB NOT AND SWAP1 DUP2 PUSH1 0x0 BYTE SWAP1 MSTORE8 POP PUSH1 0xF PUSH1 0xFB SHL DUP2 PUSH1 0x1 DUP2 MLOAD DUP2 LT PUSH2 0x14F6 JUMPI PUSH2 0x14F6 PUSH2 0x1C81 JUMP JUMPDEST PUSH1 0x20 ADD ADD SWAP1 PUSH1 0x1 PUSH1 0x1 PUSH1 0xF8 SHL SUB NOT AND SWAP1 DUP2 PUSH1 0x0 BYTE SWAP1 MSTORE8 POP PUSH1 0x0 PUSH2 0x151A DUP5 PUSH1 0x2 PUSH2 0x1C62 JUMP JUMPDEST PUSH2 0x1525 SWAP1 PUSH1 0x1 PUSH2 0x1BB1 JUMP JUMPDEST SWAP1 POP JUMPDEST PUSH1 0x1 DUP2 GT ISZERO PUSH2 0x159D JUMPI PUSH16 0x181899199A1A9B1B9C1CB0B131B232B3 PUSH1 0x81 SHL DUP6 PUSH1 0xF AND PUSH1 0x10 DUP2 LT PUSH2 0x1559 JUMPI PUSH2 0x1559 PUSH2 0x1C81 JUMP JUMPDEST BYTE PUSH1 0xF8 SHL DUP3 DUP3 DUP2 MLOAD DUP2 LT PUSH2 0x156F JUMPI PUSH2 0x156F PUSH2 0x1C81 JUMP JUMPDEST PUSH1 0x20 ADD ADD SWAP1 PUSH1 0x1 PUSH1 0x1 PUSH1 0xF8 SHL SUB NOT AND SWAP1 DUP2 PUSH1 0x0 BYTE SWAP1 MSTORE8 POP PUSH1 0x4 SWAP5 SWAP1 SWAP5 SHR SWAP4 PUSH2 0x1596 DUP2 PUSH2 0x1C97 JUMP JUMPDEST SWAP1 POP PUSH2 0x1528 JUMP JUMPDEST POP DUP4 ISZERO PUSH2 0x15EC JUMPI PUSH1 0x40 MLOAD PUSH3 0x461BCD PUSH1 0xE5 SHL DUP2 MSTORE PUSH1 0x20 PUSH1 0x4 DUP3 ADD DUP2 SWAP1 MSTORE PUSH1 0x24 DUP3 ADD MSTORE PUSH32 0x537472696E67733A20686578206C656E67746820696E73756666696369656E74 PUSH1 0x44 DUP3 ADD MSTORE PUSH1 0x64 ADD PUSH2 0x6C6 JUMP JUMPDEST SWAP4 SWAP3 POP POP POP JUMP JUMPDEST PUSH1 0x0 DUP1 SLOAD DUP2 SUB PUSH2 0x1605 JUMPI POP PUSH1 0x0 PUSH2 0x1688 JUMP JUMPDEST PUSH2 0x1685 DUP6 DUP6 DUP1 DUP1 PUSH1 0x20 MUL PUSH1 0x20 ADD PUSH1 0x40 MLOAD SWAP1 DUP2 ADD PUSH1 0x40 MSTORE DUP1 SWAP4 SWAP3 SWAP2 SWAP1 DUP2 DUP2 MSTORE PUSH1 0x20 ADD DUP4 DUP4 PUSH1 0x20 MUL DUP1 DUP3 DUP5 CALLDATACOPY PUSH1 0x0 SWAP3 ADD DUP3 SWAP1 MSTORE POP SLOAD PUSH1 0x40 MLOAD PUSH12 0xFFFFFFFFFFFFFFFFFFFFFFFF NOT PUSH1 0x60 DUP12 SWAP1 SHL AND PUSH1 0x20 DUP3 ADD MSTORE PUSH1 0x34 DUP2 ADD DUP10 SWAP1 MSTORE SWAP1 SWAP4 POP PUSH1 0x54 ADD SWAP2 POP PUSH2 0x166A SWAP1 POP JUMP JUMPDEST PUSH1 0x40 MLOAD PUSH1 0x20 DUP2 DUP4 SUB SUB DUP2 MSTORE SWAP1 PUSH1 0x40 MSTORE DUP1 MLOAD SWAP1 PUSH1 0x20 ADD KECCAK256 PUSH2 0x176F JUMP JUMPDEST SWAP1 POP JUMPDEST SWAP5 SWAP4 POP POP POP POP JUMP JUMPDEST PUSH2 0x169A DUP2 CALLER PUSH2 0x1785 JUMP JUMPDEST POP JUMP JUMPDEST PUSH2 0x16A7 DUP3 DUP3 PUSH2 0xD02 JUMP JUMPDEST PUSH2 0xB2D JUMPI PUSH1 0x0 DUP3 DUP2 MSTORE PUSH1 0x1 PUSH1 0x20 DUP2 DUP2 MSTORE PUSH1 0x40 DUP1 DUP5 KECCAK256 PUSH1 0x1 PUSH1 0x1 PUSH1 0xA0 SHL SUB DUP7 AND DUP1 DUP7 MSTORE SWAP3 MSTORE DUP1 DUP5 KECCAK256 DUP1 SLOAD PUSH1 0xFF NOT AND SWAP1 SWAP4 OR SWAP1 SWAP3 SSTORE SWAP1 MLOAD CALLER SWAP3 DUP6 SWAP2 PUSH32 0x2F8788117E7EFF1D82E926EC794901D17C78024A50270940304540A733656F0D SWAP2 SWAP1 LOG4 POP POP JUMP JUMPDEST PUSH2 0x1712 DUP3 DUP3 PUSH2 0xD02 JUMP JUMPDEST ISZERO PUSH2 0xB2D JUMPI PUSH1 0x0 DUP3 DUP2 MSTORE PUSH1 0x1 PUSH1 0x20 SWAP1 DUP2 MSTORE PUSH1 0x40 DUP1 DUP4 KECCAK256 PUSH1 0x1 PUSH1 0x1 PUSH1 0xA0 SHL SUB DUP6 AND DUP1 DUP6 MSTORE SWAP3 MSTORE DUP1 DUP4 KECCAK256 DUP1 SLOAD PUSH1 0xFF NOT AND SWAP1 SSTORE MLOAD CALLER SWAP3 DUP6 SWAP2 PUSH32 0xF6391F5C32D9C69D2A47EA670B442974B53935D1EDC7FD64EB21E047A839171B SWAP2 SWAP1 LOG4 POP POP JUMP JUMPDEST PUSH1 0x0 DUP3 PUSH2 0x177C DUP6 DUP5 PUSH2 0x17E9 JUMP JUMPDEST EQ SWAP5 SWAP4 POP POP POP POP JUMP JUMPDEST PUSH2 0x178F DUP3 DUP3 PUSH2 0xD02 JUMP JUMPDEST PUSH2 0xB2D JUMPI PUSH2 0x17A7 DUP2 PUSH1 0x1 PUSH1 0x1 PUSH1 0xA0 SHL SUB AND PUSH1 0x14 PUSH2 0x1450 JUMP JUMPDEST PUSH2 0x17B2 DUP4 PUSH1 0x20 PUSH2 0x1450 JUMP JUMPDEST PUSH1 0x40 MLOAD PUSH1 0x20 ADD PUSH2 0x17C3 SWAP3 SWAP2 SWAP1 PUSH2 0x1CDE JUMP JUMPDEST PUSH1 0x40 DUP1 MLOAD PUSH1 0x1F NOT DUP2 DUP5 SUB ADD DUP2 MSTORE SWAP1 DUP3 SWAP1 MSTORE PUSH3 0x461BCD PUSH1 0xE5 SHL DUP3 MSTORE PUSH2 0x6C6 SWAP2 PUSH1 0x4 ADD PUSH2 0x1D53 JUMP JUMPDEST PUSH1 0x0 DUP2 DUP2 JUMPDEST DUP5 MLOAD DUP2 LT ISZERO PUSH2 0x1855 JUMPI PUSH1 0x0 DUP6 DUP3 DUP2 MLOAD DUP2 LT PUSH2 0x180B JUMPI PUSH2 0x180B PUSH2 0x1C81 JUMP JUMPDEST PUSH1 0x20 MUL PUSH1 0x20 ADD ADD MLOAD SWAP1 POP DUP1 DUP4 GT PUSH2 0x1831 JUMPI PUSH1 0x0 DUP4 DUP2 MSTORE PUSH1 0x20 DUP3 SWAP1 MSTORE PUSH1 0x40 SWAP1 KECCAK256 SWAP3 POP PUSH2 0x1842 JUMP JUMPDEST PUSH1 0x0 DUP2 DUP2 MSTORE PUSH1 0x20 DUP5 SWAP1 MSTORE PUSH1 0x40 SWAP1 KECCAK256 SWAP3 POP JUMPDEST POP DUP1 PUSH2 0x184D DUP2 PUSH2 0x1C49 JUMP JUMPDEST SWAP2 POP POP PUSH2 0x17EE JUMP JUMPDEST POP SWAP4 SWAP3 POP POP POP JUMP JUMPDEST PUSH1 0x0 PUSH1 0x20 DUP3 DUP5 SUB SLT ISZERO PUSH2 0x186F JUMPI PUSH1 0x0 DUP1 REVERT JUMPDEST DUP2 CALLDATALOAD PUSH1 0x1 PUSH1 0x1 PUSH1 0xE0 SHL SUB NOT DUP2 AND DUP2 EQ PUSH2 0x15EC JUMPI PUSH1 0x0 DUP1 REVERT JUMPDEST PUSH1 0x1 PUSH1 0x1 PUSH1 0xA0 SHL SUB DUP2 AND DUP2 EQ PUSH2 0x169A JUMPI PUSH1 0x0 DUP1 REVERT JUMPDEST PUSH1 0x0 PUSH1 0x20 DUP3 DUP5 SUB SLT ISZERO PUSH2 0x18AE JUMPI PUSH1 0x0 DUP1 REVERT JUMPDEST DUP2 CALLDATALOAD PUSH2 0x15EC DUP2 PUSH2 0x1887 JUMP JUMPDEST PUSH1 0x0 PUSH1 0x20 DUP3 DUP5 SUB SLT ISZERO PUSH2 0x18CB JUMPI PUSH1 0x0 DUP1 REVERT JUMPDEST POP CALLDATALOAD SWAP2 SWAP1 POP JUMP JUMPDEST PUSH1 0x0 DUP1 PUSH1 0x0 PUSH1 0x40 DUP5 DUP7 SUB SLT ISZERO PUSH2 0x18E7 JUMPI PUSH1 0x0 DUP1 REVERT JUMPDEST DUP4 CALLDATALOAD PUSH8 0xFFFFFFFFFFFFFFFF DUP1 DUP3 GT ISZERO PUSH2 0x18FF JUMPI PUSH1 0x0 DUP1 REVERT JUMPDEST DUP2 DUP7 ADD SWAP2 POP DUP7 PUSH1 0x1F DUP4 ADD SLT PUSH2 0x1913 JUMPI PUSH1 0x0 DUP1 REVERT JUMPDEST DUP2 CALLDATALOAD DUP2 DUP2 GT ISZERO PUSH2 0x1922 JUMPI PUSH1 0x0 DUP1 REVERT JUMPDEST DUP8 PUSH1 0x20 DUP3 PUSH1 0x5 SHL DUP6 ADD ADD GT ISZERO PUSH2 0x1937 JUMPI PUSH1 0x0 DUP1 REVERT JUMPDEST PUSH1 0x20 SWAP3 DUP4 ADD SWAP9 SWAP1 SWAP8 POP SWAP6 SWAP1 SWAP2 ADD CALLDATALOAD SWAP5 SWAP4 POP POP POP POP JUMP JUMPDEST PUSH1 0x0 DUP1 PUSH1 0x40 DUP4 DUP6 SUB SLT ISZERO PUSH2 0x1960 JUMPI PUSH1 0x0 DUP1 REVERT JUMPDEST DUP3 CALLDATALOAD SWAP2 POP PUSH1 0x20 DUP4 ADD CALLDATALOAD PUSH2 0x1972 DUP2 PUSH2 0x1887 JUMP JUMPDEST DUP1 SWAP2 POP POP SWAP3 POP SWAP3 SWAP1 POP JUMP JUMPDEST PUSH4 0x4E487B71 PUSH1 0xE0 SHL PUSH1 0x0 MSTORE PUSH1 0x41 PUSH1 0x4 MSTORE PUSH1 0x24 PUSH1 0x0 REVERT JUMPDEST PUSH1 0x0 DUP3 PUSH1 0x1F DUP4 ADD SLT PUSH2 0x19A4 JUMPI PUSH1 0x0 DUP1 REVERT JUMPDEST DUP2 CALLDATALOAD PUSH8 0xFFFFFFFFFFFFFFFF DUP1 DUP3 GT ISZERO PUSH2 0x19BF JUMPI PUSH2 0x19BF PUSH2 0x197D JUMP JUMPDEST PUSH1 0x40 MLOAD PUSH1 0x1F DUP4 ADD PUSH1 0x1F NOT SWAP1 DUP2 AND PUSH1 0x3F ADD AND DUP2 ADD SWAP1 DUP3 DUP3 GT DUP2 DUP4 LT OR ISZERO PUSH2 0x19E7 JUMPI PUSH2 0x19E7 PUSH2 0x197D JUMP JUMPDEST DUP2 PUSH1 0x40 MSTORE DUP4 DUP2 MSTORE DUP7 PUSH1 0x20 DUP6 DUP9 ADD ADD GT ISZERO PUSH2 0x1A00 JUMPI PUSH1 0x0 DUP1 REVERT JUMPDEST DUP4 PUSH1 0x20 DUP8 ADD PUSH1 0x20 DUP4 ADD CALLDATACOPY PUSH1 0x0 PUSH1 0x20 DUP6 DUP4 ADD ADD MSTORE DUP1 SWAP5 POP POP POP POP POP SWAP3 SWAP2 POP POP JUMP JUMPDEST PUSH1 0x0 DUP1 PUSH1 0x0 PUSH1 0x60 DUP5 DUP7 SUB SLT ISZERO PUSH2 0x1A35 JUMPI PUSH1 0x0 DUP1 REVERT JUMPDEST DUP4 CALLDATALOAD PUSH2 0x1A40 DUP2 PUSH2 0x1887 JUMP JUMPDEST SWAP3 POP PUSH1 0x20 DUP5 ADD CALLDATALOAD PUSH2 0x1A50 DUP2 PUSH2 0x1887 JUMP JUMPDEST SWAP2 POP PUSH1 0x40 DUP5 ADD CALLDATALOAD PUSH8 0xFFFFFFFFFFFFFFFF DUP2 GT ISZERO PUSH2 0x1A6C JUMPI PUSH1 0x0 DUP1 REVERT JUMPDEST PUSH2 0x1A78 DUP7 DUP3 DUP8 ADD PUSH2 0x1993 JUMP JUMPDEST SWAP2 POP POP SWAP3 POP SWAP3 POP SWAP3 JUMP JUMPDEST DUP1 ISZERO ISZERO DUP2 EQ PUSH2 0x169A JUMPI PUSH1 0x0 DUP1 REVERT JUMPDEST PUSH1 0x0 PUSH1 0x20 DUP3 DUP5 SUB SLT ISZERO PUSH2 0x1AA2 JUMPI PUSH1 0x0 DUP1 REVERT JUMPDEST DUP2 CALLDATALOAD PUSH2 0x15EC DUP2 PUSH2 0x1A82 JUMP JUMPDEST PUSH1 0x0 DUP1 PUSH1 0x40 DUP4 DUP6 SUB SLT ISZERO PUSH2 0x1AC0 JUMPI PUSH1 0x0 DUP1 REVERT JUMPDEST DUP3 CALLDATALOAD SWAP2 POP PUSH1 0x20 DUP4 ADD CALLDATALOAD PUSH8 0xFFFFFFFFFFFFFFFF DUP2 GT ISZERO PUSH2 0x1ADE JUMPI PUSH1 0x0 DUP1 REVERT JUMPDEST PUSH2 0x1AEA DUP6 DUP3 DUP7 ADD PUSH2 0x1993 JUMP JUMPDEST SWAP2 POP POP SWAP3 POP SWAP3 SWAP1 POP JUMP JUMPDEST PUSH1 0x0 PUSH1 0x20 DUP3 DUP5 SUB SLT ISZERO PUSH2 0x1B06 JUMPI PUSH1 0x0 DUP1 REVERT JUMPDEST DUP2 CALLDATALOAD PUSH8 0xFFFFFFFFFFFFFFFF DUP2 GT ISZERO PUSH2 0x1B1D JUMPI PUSH1 0x0 DUP1 REVERT JUMPDEST PUSH2 0x1688 DUP5 DUP3 DUP6 ADD PUSH2 0x1993 JUMP JUMPDEST PUSH1 0x0 DUP1 PUSH1 0x20 DUP4 DUP6 SUB SLT ISZERO PUSH2 0x1B3C JUMPI PUSH1 0x0 DUP1 REVERT JUMPDEST DUP3 CALLDATALOAD PUSH8 0xFFFFFFFFFFFFFFFF DUP1 DUP3 GT ISZERO PUSH2 0x1B54 JUMPI PUSH1 0x0 DUP1 REVERT JUMPDEST DUP2 DUP6 ADD SWAP2 POP DUP6 PUSH1 0x1F DUP4 ADD SLT PUSH2 0x1B68 JUMPI PUSH1 0x0 DUP1 REVERT JUMPDEST DUP2 CALLDATALOAD DUP2 DUP2 GT ISZERO PUSH2 0x1B77 JUMPI PUSH1 0x0 DUP1 REVERT JUMPDEST DUP7 PUSH1 0x20 DUP3 DUP6 ADD ADD GT ISZERO PUSH2 0x1B89 JUMPI PUSH1 0x0 DUP1 REVERT JUMPDEST PUSH1 0x20 SWAP3 SWAP1 SWAP3 ADD SWAP7 SWAP2 SWAP6 POP SWAP1 SWAP4 POP POP POP POP JUMP JUMPDEST PUSH4 0x4E487B71 PUSH1 0xE0 SHL PUSH1 0x0 MSTORE PUSH1 0x11 PUSH1 0x4 MSTORE PUSH1 0x24 PUSH1 0x0 REVERT JUMPDEST PUSH1 0x0 DUP3 NOT DUP3 GT ISZERO PUSH2 0x1BC4 JUMPI PUSH2 0x1BC4 PUSH2 0x1B9B JUMP JUMPDEST POP ADD SWAP1 JUMP JUMPDEST PUSH1 0x0 PUSH1 0x20 DUP3 DUP5 SUB SLT ISZERO PUSH2 0x1BDB JUMPI PUSH1 0x0 DUP1 REVERT JUMPDEST POP MLOAD SWAP2 SWAP1 POP JUMP JUMPDEST PUSH1 0x0 PUSH1 0x20 DUP3 DUP5 SUB SLT ISZERO PUSH2 0x1BF4 JUMPI PUSH1 0x0 DUP1 REVERT JUMPDEST DUP2 MLOAD PUSH2 0x15EC DUP2 PUSH2 0x1A82 JUMP JUMPDEST PUSH1 0x20 DUP1 DUP3 MSTORE PUSH1 0x2A SWAP1 DUP3 ADD MSTORE PUSH32 0x5468697320436F6E7472616374206E6F742068617665207065726D697373696F PUSH1 0x40 DUP3 ADD MSTORE PUSH10 0x37103A379036B4B73A17 PUSH1 0xB1 SHL PUSH1 0x60 DUP3 ADD MSTORE PUSH1 0x80 ADD SWAP1 JUMP JUMPDEST PUSH1 0x0 PUSH1 0x1 DUP3 ADD PUSH2 0x1C5B JUMPI PUSH2 0x1C5B PUSH2 0x1B9B JUMP JUMPDEST POP PUSH1 0x1 ADD SWAP1 JUMP JUMPDEST PUSH1 0x0 DUP2 PUSH1 0x0 NOT DIV DUP4 GT DUP3 ISZERO ISZERO AND ISZERO PUSH2 0x1C7C JUMPI PUSH2 0x1C7C PUSH2 0x1B9B JUMP JUMPDEST POP MUL SWAP1 JUMP JUMPDEST PUSH4 0x4E487B71 PUSH1 0xE0 SHL PUSH1 0x0 MSTORE PUSH1 0x32 PUSH1 0x4 MSTORE PUSH1 0x24 PUSH1 0x0 REVERT JUMPDEST PUSH1 0x0 DUP2 PUSH2 0x1CA6 JUMPI PUSH2 0x1CA6 PUSH2 0x1B9B JUMP JUMPDEST POP PUSH1 0x0 NOT ADD SWAP1 JUMP JUMPDEST PUSH1 0x0 JUMPDEST DUP4 DUP2 LT ISZERO PUSH2 0x1CC9 JUMPI DUP2 DUP2 ADD MLOAD DUP4 DUP3 ADD MSTORE PUSH1 0x20 ADD PUSH2 0x1CB1 JUMP JUMPDEST DUP4 DUP2 GT ISZERO PUSH2 0x1CD8 JUMPI PUSH1 0x0 DUP5 DUP5 ADD MSTORE JUMPDEST POP POP POP POP JUMP JUMPDEST PUSH32 0x416363657373436F6E74726F6C3A206163636F756E7420000000000000000000 DUP2 MSTORE PUSH1 0x0 DUP4 MLOAD PUSH2 0x1D16 DUP2 PUSH1 0x17 DUP6 ADD PUSH1 0x20 DUP9 ADD PUSH2 0x1CAE JUMP JUMPDEST PUSH17 0x1034B99036B4B9B9B4B733903937B6329 PUSH1 0x7D SHL PUSH1 0x17 SWAP2 DUP5 ADD SWAP2 DUP3 ADD MSTORE DUP4 MLOAD PUSH2 0x1D47 DUP2 PUSH1 0x28 DUP5 ADD PUSH1 0x20 DUP9 ADD PUSH2 0x1CAE JUMP JUMPDEST ADD PUSH1 0x28 ADD SWAP5 SWAP4 POP POP POP POP JUMP JUMPDEST PUSH1 0x20 DUP2 MSTORE PUSH1 0x0 DUP3 MLOAD DUP1 PUSH1 0x20 DUP5 ADD MSTORE PUSH2 0x1D72 DUP2 PUSH1 0x40 DUP6 ADD PUSH1 0x20 DUP8 ADD PUSH2 0x1CAE JUMP JUMPDEST PUSH1 0x1F ADD PUSH1 0x1F NOT AND SWAP2 SWAP1 SWAP2 ADD PUSH1 0x40 ADD SWAP3 SWAP2 POP POP JUMP INVALID LOG2 PUSH5 0x6970667358 0x22 SLT KECCAK256 SWAP16 SWAP3 0xCD 0xA8 0xF8 CALLDATASIZE SWAP2 CALLVALUE LOG0 0xF9 EXTCODECOPY 0xBF SWAP2 LOG4 0xED 0x4A SWAP12 CALLER 0xE2 PUSH8 0xA1C0227F87ECB64B 0xE4 0xCB PUSH13 0xB64736F6C634300080F003300 "
				},
				"gasEstimates": {
					"creation": {
						"codeDepositCost": "1522400",
						"executionCost": "infinite",
						"totalCost": "infinite"
					},
					"external": {
						"DEFAULT_ADMIN_ROLE()": "284",
						"NagaKidContract()": "2405",
						"getEthSignedMessageHash(bytes32)": "522",
						"getMaxSupply()": "infinite",
						"getMessageHash(address)": "592",
						"getRoleAdmin(bytes32)": "2540",
						"getTotalSupply()": "infinite",
						"grantRole(bytes32,address)": "infinite",
						"hasRole(bytes32,address)": "2743",
						"isPause()": "infinite",
						"isPublicMintOpen()": "2427",
						"isPublicMinted(address)": "2576",
						"isWhitelistMintOpen()": "2385",
						"isWhitelistMinted(address)": "2599",
						"isWhitelistMintedAmount(address)": "2622",
						"merkleRoot()": "2341",
						"publicMint(bytes)": "infinite",
						"recoverSigner(bytes32,bytes)": "infinite",
						"renounceRole(bytes32,address)": "29090",
						"revokeRole(bytes32,address)": "infinite",
						"setMerkleRoot(bytes32)": "infinite",
						"setNagaKidContract(address)": "infinite",
						"setPublicMintOpen(bool)": "infinite",
						"setSigner(address)": "infinite",
						"setWhitelistMintOpen(bool)": "infinite",
						"signer()": "2405",
						"splitSignature(bytes)": "infinite",
						"supportsInterface(bytes4)": "473",
						"verify(address,address,bytes)": "infinite",
						"whitelistMint(bytes32[],uint256)": "infinite"
					}
				},
				"methodIdentifiers": {
					"DEFAULT_ADMIN_ROLE()": "a217fddf",
					"NagaKidContract()": "8b7b80b7",
					"getEthSignedMessageHash(bytes32)": "fa540801",
					"getMaxSupply()": "4c0f38c2",
					"getMessageHash(address)": "1f5ac1b2",
					"getRoleAdmin(bytes32)": "248a9ca3",
					"getTotalSupply()": "c4e41b22",
					"grantRole(bytes32,address)": "2f2ff15d",
					"hasRole(bytes32,address)": "91d14854",
					"isPause()": "ff0938a7",
					"isPublicMintOpen()": "a4435dfd",
					"isPublicMinted(address)": "f055c7a9",
					"isWhitelistMintOpen()": "18f52c48",
					"isWhitelistMinted(address)": "5997bbee",
					"isWhitelistMintedAmount(address)": "1b0d2d3b",
					"merkleRoot()": "2eb4a7ab",
					"publicMint(bytes)": "de6892c8",
					"recoverSigner(bytes32,bytes)": "97aba7f9",
					"renounceRole(bytes32,address)": "36568abe",
					"revokeRole(bytes32,address)": "d547741f",
					"setMerkleRoot(bytes32)": "7cb64759",
					"setNagaKidContract(address)": "9e6c8855",
					"setPublicMintOpen(bool)": "6387f804",
					"setSigner(address)": "6c19e783",
					"setWhitelistMintOpen(bool)": "fade63c9",
					"signer()": "238ac933",
					"splitSignature(bytes)": "a7bb5803",
					"supportsInterface(bytes4)": "01ffc9a7",
					"verify(address,address,bytes)": "42920a46",
					"whitelistMint(bytes32[],uint256)": "2904e6d9"
				}
			},
			"storageLayout": {
				"storage": [
					{
						"astId": 1565,
						"contract": "MintNagaKid.sol:MintNagaKid",
						"label": "merkleRoot",
						"offset": 0,
						"slot": "0",
						"type": "t_bytes32"
					},
					{
						"astId": 24,
						"contract": "MintNagaKid.sol:MintNagaKid",
						"label": "_roles",
						"offset": 0,
						"slot": "1",
						"type": "t_mapping(t_bytes32,t_struct(RoleData)19_storage)"
					},
					{
						"astId": 403,
						"contract": "MintNagaKid.sol:MintNagaKid",
						"label": "_status",
						"offset": 0,
						"slot": "2",
						"type": "t_uint256"
					},
					{
						"astId": 976,
						"contract": "MintNagaKid.sol:MintNagaKid",
						"label": "NagaKidContract",
						"offset": 0,
						"slot": "3",
						"type": "t_contract(INagaKidNFT)958"
					},
					{
						"astId": 978,
						"contract": "MintNagaKid.sol:MintNagaKid",
						"label": "isPublicMintOpen",
						"offset": 20,
						"slot": "3",
						"type": "t_bool"
					},
					{
						"astId": 980,
						"contract": "MintNagaKid.sol:MintNagaKid",
						"label": "isWhitelistMintOpen",
						"offset": 21,
						"slot": "3",
						"type": "t_bool"
					},
					{
						"astId": 982,
						"contract": "MintNagaKid.sol:MintNagaKid",
						"label": "signer",
						"offset": 0,
						"slot": "4",
						"type": "t_address"
					},
					{
						"astId": 986,
						"contract": "MintNagaKid.sol:MintNagaKid",
						"label": "_isWhitelistMinted",
						"offset": 0,
						"slot": "5",
						"type": "t_mapping(t_address,t_bool)"
					},
					{
						"astId": 990,
						"contract": "MintNagaKid.sol:MintNagaKid",
						"label": "_isWhitelistMintedAmount",
						"offset": 0,
						"slot": "6",
						"type": "t_mapping(t_address,t_uint256)"
					},
					{
						"astId": 994,
						"contract": "MintNagaKid.sol:MintNagaKid",
						"label": "_isPublicMinted",
						"offset": 0,
						"slot": "7",
						"type": "t_mapping(t_address,t_bool)"
					}
				],
				"types": {
					"t_address": {
						"encoding": "inplace",
						"label": "address",
						"numberOfBytes": "20"
					},
					"t_bool": {
						"encoding": "inplace",
						"label": "bool",
						"numberOfBytes": "1"
					},
					"t_bytes32": {
						"encoding": "inplace",
						"label": "bytes32",
						"numberOfBytes": "32"
					},
					"t_contract(INagaKidNFT)958": {
						"encoding": "inplace",
						"label": "contract INagaKidNFT",
						"numberOfBytes": "20"
					},
					"t_mapping(t_address,t_bool)": {
						"encoding": "mapping",
						"key": "t_address",
						"label": "mapping(address => bool)",
						"numberOfBytes": "32",
						"value": "t_bool"
					},
					"t_mapping(t_address,t_uint256)": {
						"encoding": "mapping",
						"key": "t_address",
						"label": "mapping(address => uint256)",
						"numberOfBytes": "32",
						"value": "t_uint256"
					},
					"t_mapping(t_bytes32,t_struct(RoleData)19_storage)": {
						"encoding": "mapping",
						"key": "t_bytes32",
						"label": "mapping(bytes32 => struct AccessControl.RoleData)",
						"numberOfBytes": "32",
						"value": "t_struct(RoleData)19_storage"
					},
					"t_struct(RoleData)19_storage": {
						"encoding": "inplace",
						"label": "struct AccessControl.RoleData",
						"members": [
							{
								"astId": 16,
								"contract": "MintNagaKid.sol:MintNagaKid",
								"label": "members",
								"offset": 0,
								"slot": "0",
								"type": "t_mapping(t_address,t_bool)"
							},
							{
								"astId": 18,
								"contract": "MintNagaKid.sol:MintNagaKid",
								"label": "adminRole",
								"offset": 0,
								"slot": "1",
								"type": "t_bytes32"
							}
						],
						"numberOfBytes": "64"
					},
					"t_uint256": {
						"encoding": "inplace",
						"label": "uint256",
						"numberOfBytes": "32"
					}
				}
			},
			"userdoc": {
				"kind": "user",
				"methods": {},
				"version": 1
			}
		}
	}
}