{
	"MintNagaKids.sol": {
		"MintNagaKids": {
			"abi": [
				{
					"inputs": [
						{
							"internalType": "contract INagaKidsNFT",
							"name": "_nagaKids",
							"type": "address"
						}
					],
					"stateMutability": "nonpayable",
					"type": "constructor"
				},
				{
					"anonymous": false,
					"inputs": [
						{
							"indexed": true,
							"internalType": "bytes32",
							"name": "role",
							"type": "bytes32"
						},
						{
							"indexed": true,
							"internalType": "bytes32",
							"name": "previousAdminRole",
							"type": "bytes32"
						},
						{
							"indexed": true,
							"internalType": "bytes32",
							"name": "newAdminRole",
							"type": "bytes32"
						}
					],
					"name": "RoleAdminChanged",
					"type": "event"
				},
				{
					"anonymous": false,
					"inputs": [
						{
							"indexed": true,
							"internalType": "bytes32",
							"name": "role",
							"type": "bytes32"
						},
						{
							"indexed": true,
							"internalType": "address",
							"name": "account",
							"type": "address"
						},
						{
							"indexed": true,
							"internalType": "address",
							"name": "sender",
							"type": "address"
						}
					],
					"name": "RoleGranted",
					"type": "event"
				},
				{
					"anonymous": false,
					"inputs": [
						{
							"indexed": true,
							"internalType": "bytes32",
							"name": "role",
							"type": "bytes32"
						},
						{
							"indexed": true,
							"internalType": "address",
							"name": "account",
							"type": "address"
						},
						{
							"indexed": true,
							"internalType": "address",
							"name": "sender",
							"type": "address"
						}
					],
					"name": "RoleRevoked",
					"type": "event"
				},
				{
					"inputs": [],
					"name": "DEFAULT_ADMIN_ROLE",
					"outputs": [
						{
							"internalType": "bytes32",
							"name": "",
							"type": "bytes32"
						}
					],
					"stateMutability": "view",
					"type": "function"
				},
				{
					"inputs": [
						{
							"internalType": "bool",
							"name": "_isOpen",
							"type": "bool"
						}
					],
					"name": "changeFreeMintOpen",
					"outputs": [],
					"stateMutability": "nonpayable",
					"type": "function"
				},
				{
					"inputs": [
						{
							"internalType": "contract INagaKidsNFT",
							"name": "_nagaKids",
							"type": "address"
						}
					],
					"name": "changeNagaKidsContract",
					"outputs": [],
					"stateMutability": "nonpayable",
					"type": "function"
				},
				{
					"inputs": [
						{
							"internalType": "bool",
							"name": "_isOpen",
							"type": "bool"
						}
					],
					"name": "changeWhitelistMintOpen",
					"outputs": [],
					"stateMutability": "nonpayable",
					"type": "function"
				},
				{
					"inputs": [],
					"name": "getMaxSupply",
					"outputs": [
						{
							"internalType": "uint256",
							"name": "",
							"type": "uint256"
						}
					],
					"stateMutability": "view",
					"type": "function"
				},
				{
					"inputs": [
						{
							"internalType": "bytes32",
							"name": "role",
							"type": "bytes32"
						}
					],
					"name": "getRoleAdmin",
					"outputs": [
						{
							"internalType": "bytes32",
							"name": "",
							"type": "bytes32"
						}
					],
					"stateMutability": "view",
					"type": "function"
				},
				{
					"inputs": [],
					"name": "getTotalSupply",
					"outputs": [
						{
							"internalType": "uint256",
							"name": "",
							"type": "uint256"
						}
					],
					"stateMutability": "view",
					"type": "function"
				},
				{
					"inputs": [
						{
							"internalType": "bytes32",
							"name": "role",
							"type": "bytes32"
						},
						{
							"internalType": "address",
							"name": "account",
							"type": "address"
						}
					],
					"name": "grantRole",
					"outputs": [],
					"stateMutability": "nonpayable",
					"type": "function"
				},
				{
					"inputs": [
						{
							"internalType": "bytes32",
							"name": "role",
							"type": "bytes32"
						},
						{
							"internalType": "address",
							"name": "account",
							"type": "address"
						}
					],
					"name": "hasRole",
					"outputs": [
						{
							"internalType": "bool",
							"name": "",
							"type": "bool"
						}
					],
					"stateMutability": "view",
					"type": "function"
				},
				{
					"inputs": [],
					"name": "isFreeMintOpen",
					"outputs": [
						{
							"internalType": "bool",
							"name": "",
							"type": "bool"
						}
					],
					"stateMutability": "view",
					"type": "function"
				},
				{
					"inputs": [],
					"name": "isPause",
					"outputs": [
						{
							"internalType": "bool",
							"name": "",
							"type": "bool"
						}
					],
					"stateMutability": "view",
					"type": "function"
				},
				{
					"inputs": [],
					"name": "isWhitelistOpen",
					"outputs": [
						{
							"internalType": "bool",
							"name": "",
							"type": "bool"
						}
					],
					"stateMutability": "view",
					"type": "function"
				},
				{
					"inputs": [],
					"name": "nagaKidsContract",
					"outputs": [
						{
							"internalType": "contract INagaKidsNFT",
							"name": "",
							"type": "address"
						}
					],
					"stateMutability": "view",
					"type": "function"
				},
				{
					"inputs": [
						{
							"internalType": "bytes32",
							"name": "role",
							"type": "bytes32"
						},
						{
							"internalType": "address",
							"name": "account",
							"type": "address"
						}
					],
					"name": "renounceRole",
					"outputs": [],
					"stateMutability": "nonpayable",
					"type": "function"
				},
				{
					"inputs": [
						{
							"internalType": "bytes32",
							"name": "role",
							"type": "bytes32"
						},
						{
							"internalType": "address",
							"name": "account",
							"type": "address"
						}
					],
					"name": "revokeRole",
					"outputs": [],
					"stateMutability": "nonpayable",
					"type": "function"
				},
				{
					"inputs": [
						{
							"internalType": "bytes4",
							"name": "interfaceId",
							"type": "bytes4"
						}
					],
					"name": "supportsInterface",
					"outputs": [
						{
							"internalType": "bool",
							"name": "",
							"type": "bool"
						}
					],
					"stateMutability": "view",
					"type": "function"
				},
				{
					"inputs": [
						{
							"internalType": "uint256",
							"name": "amount",
							"type": "uint256"
						}
					],
					"name": "whitelistMint",
					"outputs": [],
					"stateMutability": "payable",
					"type": "function"
				}
			],
			"devdoc": {
				"kind": "dev",
				"methods": {
					"getRoleAdmin(bytes32)": {
						"details": "Returns the admin role that controls `role`. See {grantRole} and {revokeRole}. To change a role's admin, use {_setRoleAdmin}."
					},
					"grantRole(bytes32,address)": {
						"details": "Grants `role` to `account`. If `account` had not been already granted `role`, emits a {RoleGranted} event. Requirements: - the caller must have ``role``'s admin role."
					},
					"hasRole(bytes32,address)": {
						"details": "Returns `true` if `account` has been granted `role`."
					},
					"renounceRole(bytes32,address)": {
						"details": "Revokes `role` from the calling account. Roles are often managed via {grantRole} and {revokeRole}: this function's purpose is to provide a mechanism for accounts to lose their privileges if they are compromised (such as when a trusted device is misplaced). If the calling account had been revoked `role`, emits a {RoleRevoked} event. Requirements: - the caller must be `account`."
					},
					"revokeRole(bytes32,address)": {
						"details": "Revokes `role` from `account`. If `account` had been granted `role`, emits a {RoleRevoked} event. Requirements: - the caller must have ``role``'s admin role."
					},
					"supportsInterface(bytes4)": {
						"details": "See {IERC165-supportsInterface}."
					}
				},
				"version": 1
			},
			"evm": {
				"assembly": "    /* \"MintNagaKids.sol\":244:1837  contract MintNagaKids is AccessControl, ReentrancyGuard {... */\n  mstore(0x40, 0x80)\n    /* \"MintNagaKids.sol\":421:562  constructor(INagaKidsNFT _nagaKids) {... */\n  callvalue\n  dup1\n  iszero\n  tag_1\n  jumpi\n  0x00\n  dup1\n  revert\ntag_1:\n  pop\n  mload(0x40)\n  sub(codesize, bytecodeSize)\n  dup1\n  bytecodeSize\n  dup4\n  codecopy\n  dup2\n  add\n  0x40\n  dup2\n  swap1\n  mstore\n  tag_2\n  swap2\n  tag_3\n  jump\t// in\ntag_2:\n    /* \"@openzeppelin/contracts/security/ReentrancyGuard.sol\":1701:1702  1 */\n  0x01\n    /* \"@openzeppelin/contracts/security/ReentrancyGuard.sol\":1806:1828  _status = _NOT_ENTERED */\n  dup1\n  sstore\n    /* \"MintNagaKids.sol\":468:510  _grantRole(DEFAULT_ADMIN_ROLE, msg.sender) */\n  tag_8\n    /* \"@openzeppelin/contracts/access/AccessControl.sol\":2072:2076  0x00 */\n  0x00\n    /* \"MintNagaKids.sol\":499:509  msg.sender */\n  caller\n    /* \"MintNagaKids.sol\":468:478  _grantRole */\n  tag_9\n    /* \"MintNagaKids.sol\":468:510  _grantRole(DEFAULT_ADMIN_ROLE, msg.sender) */\n  jump\t// in\ntag_8:\n    /* \"MintNagaKids.sol\":521:554  changeNagaKidsContract(_nagaKids) */\n  tag_10\n    /* \"MintNagaKids.sol\":544:553  _nagaKids */\n  dup2\n    /* \"MintNagaKids.sol\":521:543  changeNagaKidsContract */\n  tag_11\n    /* \"MintNagaKids.sol\":521:554  changeNagaKidsContract(_nagaKids) */\n  jump\t// in\ntag_10:\n    /* \"MintNagaKids.sol\":421:562  constructor(INagaKidsNFT _nagaKids) {... */\n  pop\n    /* \"MintNagaKids.sol\":244:1837  contract MintNagaKids is AccessControl, ReentrancyGuard {... */\n  jump(tag_69)\n    /* \"@openzeppelin/contracts/access/AccessControl.sol\":7244:7477  function _grantRole(bytes32 role, address account) internal virtual {... */\ntag_9:\n    /* \"@openzeppelin/contracts/access/AccessControl.sol\":2981:2985  bool */\n  0x00\n    /* \"@openzeppelin/contracts/access/AccessControl.sol\":3004:3016  _roles[role] */\n  dup3\n  dup2\n  mstore\n  0x20\n  dup2\n  dup2\n  mstore\n  0x40\n  dup1\n  dup4\n  keccak256\n  sub(shl(0xa0, 0x01), 0x01)\n    /* \"@openzeppelin/contracts/access/AccessControl.sol\":3004:3033  _roles[role].members[account] */\n  dup6\n  and\n  dup5\n  mstore\n  swap1\n  swap2\n  mstore\n  swap1\n  keccak256\n  sload\n  0xff\n  and\n    /* \"@openzeppelin/contracts/access/AccessControl.sol\":7322:7471  if (!hasRole(role, account)) {... */\n  tag_16\n  jumpi\n    /* \"@openzeppelin/contracts/access/AccessControl.sol\":7365:7371  _roles */\n  0x00\n    /* \"@openzeppelin/contracts/access/AccessControl.sol\":7365:7377  _roles[role] */\n  dup3\n  dup2\n  mstore\n  0x20\n  dup2\n  dup2\n  mstore\n  0x40\n  dup1\n  dup4\n  keccak256\n  sub(shl(0xa0, 0x01), 0x01)\n    /* \"@openzeppelin/contracts/access/AccessControl.sol\":7365:7394  _roles[role].members[account] */\n  dup6\n  and\n  dup5\n  mstore\n  swap1\n  swap2\n  mstore\n  swap1\n  keccak256\n    /* \"@openzeppelin/contracts/access/AccessControl.sol\":7365:7401  _roles[role].members[account] = true */\n  dup1\n  sload\n  not(0xff)\n  and\n    /* \"@openzeppelin/contracts/access/AccessControl.sol\":7397:7401  true */\n  0x01\n    /* \"@openzeppelin/contracts/access/AccessControl.sol\":7365:7401  _roles[role].members[account] = true */\n  or\n  swap1\n  sstore\n    /* \"@openzeppelin/contracts/access/AccessControl.sol\":7447:7459  _msgSender() */\n  tag_17\n    /* \"@openzeppelin/contracts/utils/Context.sol\":719:729  msg.sender */\n  caller\n  swap1\n    /* \"@openzeppelin/contracts/utils/Context.sol\":640:736  function _msgSender() internal view virtual returns (address) {... */\n  jump\n    /* \"@openzeppelin/contracts/access/AccessControl.sol\":7447:7459  _msgSender() */\ntag_17:\n  sub(shl(0xa0, 0x01), 0x01)\n    /* \"@openzeppelin/contracts/access/AccessControl.sol\":7420:7460  RoleGranted(role, account, _msgSender()) */\n  and\n    /* \"@openzeppelin/contracts/access/AccessControl.sol\":7438:7445  account */\n  dup2\n  sub(shl(0xa0, 0x01), 0x01)\n    /* \"@openzeppelin/contracts/access/AccessControl.sol\":7420:7460  RoleGranted(role, account, _msgSender()) */\n  and\n    /* \"@openzeppelin/contracts/access/AccessControl.sol\":7432:7436  role */\n  dup4\n    /* \"@openzeppelin/contracts/access/AccessControl.sol\":7420:7460  RoleGranted(role, account, _msgSender()) */\n  0x2f8788117e7eff1d82e926ec794901d17c78024a50270940304540a733656f0d\n  mload(0x40)\n  mload(0x40)\n  dup1\n  swap2\n  sub\n  swap1\n  log4\n    /* \"@openzeppelin/contracts/access/AccessControl.sol\":7322:7471  if (!hasRole(role, account)) {... */\ntag_16:\n    /* \"@openzeppelin/contracts/access/AccessControl.sol\":7244:7477  function _grantRole(bytes32 role, address account) internal virtual {... */\n  pop\n  pop\n  jump\t// out\n    /* \"MintNagaKids.sol\":677:816  function changeNagaKidsContract(INagaKidsNFT _nagaKids) public onlyRole(DEFAULT_ADMIN_ROLE) {... */\ntag_11:\n    /* \"@openzeppelin/contracts/access/AccessControl.sol\":2072:2076  0x00 */\n  0x00\n    /* \"@openzeppelin/contracts/access/AccessControl.sol\":2505:2521  _checkRole(role) */\n  tag_20\n    /* \"@openzeppelin/contracts/access/AccessControl.sol\":2072:2076  0x00 */\n  dup2\n    /* \"@openzeppelin/contracts/access/AccessControl.sol\":2505:2515  _checkRole */\n  tag_21\n    /* \"@openzeppelin/contracts/access/AccessControl.sol\":2505:2521  _checkRole(role) */\n  jump\t// in\ntag_20:\n  pop\n    /* \"MintNagaKids.sol\":780:796  nagaKidsContract */\n  0x02\n    /* \"MintNagaKids.sol\":780:808  nagaKidsContract = _nagaKids */\n  dup1\n  sload\n  not(sub(shl(0xa0, 0x01), 0x01))\n  and\n  sub(shl(0xa0, 0x01), 0x01)\n  swap3\n  swap1\n  swap3\n  and\n  swap2\n  swap1\n  swap2\n  or\n  swap1\n  sstore\n    /* \"MintNagaKids.sol\":677:816  function changeNagaKidsContract(INagaKidsNFT _nagaKids) public onlyRole(DEFAULT_ADMIN_ROLE) {... */\n  jump\t// out\n    /* \"@openzeppelin/contracts/access/AccessControl.sol\":3334:3437  function _checkRole(bytes32 role) internal view virtual {... */\ntag_21:\n    /* \"@openzeppelin/contracts/access/AccessControl.sol\":3400:3430  _checkRole(role, _msgSender()) */\n  tag_26\n    /* \"@openzeppelin/contracts/access/AccessControl.sol\":3411:3415  role */\n  dup2\n    /* \"@openzeppelin/contracts/utils/Context.sol\":719:729  msg.sender */\n  caller\n    /* \"@openzeppelin/contracts/access/AccessControl.sol\":3400:3410  _checkRole */\n  tag_28\n    /* \"@openzeppelin/contracts/access/AccessControl.sol\":3400:3430  _checkRole(role, _msgSender()) */\n  jump\t// in\ntag_26:\n    /* \"@openzeppelin/contracts/access/AccessControl.sol\":3334:3437  function _checkRole(bytes32 role) internal view virtual {... */\n  pop\n  jump\t// out\n    /* \"@openzeppelin/contracts/access/AccessControl.sol\":3718:4210  function _checkRole(bytes32 role, address account) internal view virtual {... */\ntag_28:\n    /* \"@openzeppelin/contracts/access/AccessControl.sol\":2981:2985  bool */\n  0x00\n    /* \"@openzeppelin/contracts/access/AccessControl.sol\":3004:3016  _roles[role] */\n  dup3\n  dup2\n  mstore\n  0x20\n  dup2\n  dup2\n  mstore\n  0x40\n  dup1\n  dup4\n  keccak256\n  sub(shl(0xa0, 0x01), 0x01)\n    /* \"@openzeppelin/contracts/access/AccessControl.sol\":3004:3033  _roles[role].members[account] */\n  dup6\n  and\n  dup5\n  mstore\n  swap1\n  swap2\n  mstore\n  swap1\n  keccak256\n  sload\n  0xff\n  and\n    /* \"@openzeppelin/contracts/access/AccessControl.sol\":3801:4204  if (!hasRole(role, account)) {... */\n  tag_16\n  jumpi\n    /* \"@openzeppelin/contracts/access/AccessControl.sol\":3989:4030  Strings.toHexString(uint160(account), 20) */\n  tag_32\n    /* \"@openzeppelin/contracts/access/AccessControl.sol\":4017:4024  account */\n  dup2\n  sub(shl(0xa0, 0x01), 0x01)\n    /* \"@openzeppelin/contracts/access/AccessControl.sol\":3989:4030  Strings.toHexString(uint160(account), 20) */\n  and\n    /* \"@openzeppelin/contracts/access/AccessControl.sol\":4027:4029  20 */\n  0x14\n    /* \"@openzeppelin/contracts/access/AccessControl.sol\":3989:4008  Strings.toHexString */\n  or(tag_0_102, shl(0x20, tag_33))\n    /* \"@openzeppelin/contracts/access/AccessControl.sol\":3989:4030  Strings.toHexString(uint160(account), 20) */\n  0x20\n  shr\n  jump\t// in\ntag_32:\n    /* \"@openzeppelin/contracts/access/AccessControl.sol\":4101:4139  Strings.toHexString(uint256(role), 32) */\n  tag_34\n    /* \"@openzeppelin/contracts/access/AccessControl.sol\":4129:4133  role */\n  dup4\n    /* \"@openzeppelin/contracts/access/AccessControl.sol\":4136:4138  32 */\n  0x20\n    /* \"@openzeppelin/contracts/access/AccessControl.sol\":4101:4120  Strings.toHexString */\n  tag_0_102\n  tag_33\n  dup3\n  shl\n  or\n    /* \"@openzeppelin/contracts/access/AccessControl.sol\":4101:4139  Strings.toHexString(uint256(role), 32) */\n  dup2\n  shr\n  jump\t// in\ntag_34:\n    /* \"@openzeppelin/contracts/access/AccessControl.sol\":3896:4161  abi.encodePacked(... */\n  add(0x20, mload(0x40))\n  tag_35\n  swap3\n  swap2\n  swap1\n  tag_36\n  jump\t// in\ntag_35:\n  0x40\n  dup1\n  mload\n  not(0x1f)\n  dup2\n  dup5\n  sub\n  add\n  dup2\n  mstore\n  swap1\n  dup3\n  swap1\n  mstore\n  shl(0xe5, 0x461bcd)\n    /* \"@openzeppelin/contracts/access/AccessControl.sol\":3844:4193  revert(... */\n  dup3\n  mstore\n  tag_37\n  swap2\n  0x04\n  add\n  tag_38\n  jump\t// in\ntag_37:\n  mload(0x40)\n  dup1\n  swap2\n  sub\n  swap1\n  revert\n    /* \"@openzeppelin/contracts/utils/Strings.sol\":1588:2029  function toHexString(uint256 value, uint256 length) internal pure returns (string memory) {... */\ntag_33:\n    /* \"@openzeppelin/contracts/utils/Strings.sol\":1663:1676  string memory */\n  0x60\n    /* \"@openzeppelin/contracts/utils/Strings.sol\":1688:1707  bytes memory buffer */\n  0x00\n    /* \"@openzeppelin/contracts/utils/Strings.sol\":1720:1730  2 * length */\n  tag_40\n    /* \"@openzeppelin/contracts/utils/Strings.sol\":1724:1730  length */\n  dup4\n    /* \"@openzeppelin/contracts/utils/Strings.sol\":1720:1721  2 */\n  0x02\n    /* \"@openzeppelin/contracts/utils/Strings.sol\":1720:1730  2 * length */\n  tag_41\n  jump\t// in\ntag_40:\n    /* \"@openzeppelin/contracts/utils/Strings.sol\":1720:1734  2 * length + 2 */\n  tag_42\n  swap1\n    /* \"@openzeppelin/contracts/utils/Strings.sol\":1733:1734  2 */\n  0x02\n    /* \"@openzeppelin/contracts/utils/Strings.sol\":1720:1734  2 * length + 2 */\n  tag_43\n  jump\t// in\ntag_42:\n  sub(shl(0x40, 0x01), 0x01)\n    /* \"@openzeppelin/contracts/utils/Strings.sol\":1710:1735  new bytes(2 * length + 2) */\n  dup2\n  gt\n  iszero\n  tag_45\n  jumpi\n  tag_45\n  tag_46\n  jump\t// in\ntag_45:\n  mload(0x40)\n  swap1\n  dup1\n  dup3\n  mstore\n  dup1\n  0x1f\n  add\n  not(0x1f)\n  and\n  0x20\n  add\n  dup3\n  add\n  0x40\n  mstore\n  dup1\n  iszero\n  tag_47\n  jumpi\n  0x20\n  dup3\n  add\n  dup2\n  dup1\n  calldatasize\n  dup4\n  calldatacopy\n  add\n  swap1\n  pop\ntag_47:\n  pop\n    /* \"@openzeppelin/contracts/utils/Strings.sol\":1688:1735  bytes memory buffer = new bytes(2 * length + 2) */\n  swap1\n  pop\n  shl(0xfc, 0x03)\n    /* \"@openzeppelin/contracts/utils/Strings.sol\":1745:1751  buffer */\n  dup2\n    /* \"@openzeppelin/contracts/utils/Strings.sol\":1752:1753  0 */\n  0x00\n    /* \"@openzeppelin/contracts/utils/Strings.sol\":1745:1754  buffer[0] */\n  dup2\n  mload\n  dup2\n  lt\n  tag_49\n  jumpi\n  tag_49\n  tag_50\n  jump\t// in\ntag_49:\n  0x20\n  add\n  add\n    /* \"@openzeppelin/contracts/utils/Strings.sol\":1745:1760  buffer[0] = \"0\" */\n  swap1\n  not(sub(shl(0xf8, 0x01), 0x01))\n  and\n  swap1\n  dup2\n  0x00\n  byte\n  swap1\n  mstore8\n  pop\n  shl(0xfb, 0x0f)\n    /* \"@openzeppelin/contracts/utils/Strings.sol\":1770:1776  buffer */\n  dup2\n    /* \"@openzeppelin/contracts/utils/Strings.sol\":1777:1778  1 */\n  0x01\n    /* \"@openzeppelin/contracts/utils/Strings.sol\":1770:1779  buffer[1] */\n  dup2\n  mload\n  dup2\n  lt\n  tag_52\n  jumpi\n  tag_52\n  tag_50\n  jump\t// in\ntag_52:\n  0x20\n  add\n  add\n    /* \"@openzeppelin/contracts/utils/Strings.sol\":1770:1785  buffer[1] = \"x\" */\n  swap1\n  not(sub(shl(0xf8, 0x01), 0x01))\n  and\n  swap1\n  dup2\n  0x00\n  byte\n  swap1\n  mstore8\n  pop\n    /* \"@openzeppelin/contracts/utils/Strings.sol\":1800:1809  uint256 i */\n  0x00\n    /* \"@openzeppelin/contracts/utils/Strings.sol\":1812:1822  2 * length */\n  tag_56\n    /* \"@openzeppelin/contracts/utils/Strings.sol\":1816:1822  length */\n  dup5\n    /* \"@openzeppelin/contracts/utils/Strings.sol\":1812:1813  2 */\n  0x02\n    /* \"@openzeppelin/contracts/utils/Strings.sol\":1812:1822  2 * length */\n  tag_41\n  jump\t// in\ntag_56:\n    /* \"@openzeppelin/contracts/utils/Strings.sol\":1812:1826  2 * length + 1 */\n  tag_57\n  swap1\n    /* \"@openzeppelin/contracts/utils/Strings.sol\":1825:1826  1 */\n  0x01\n    /* \"@openzeppelin/contracts/utils/Strings.sol\":1812:1826  2 * length + 1 */\n  tag_43\n  jump\t// in\ntag_57:\n    /* \"@openzeppelin/contracts/utils/Strings.sol\":1800:1826  uint256 i = 2 * length + 1 */\n  swap1\n  pop\n    /* \"@openzeppelin/contracts/utils/Strings.sol\":1795:1927  for (uint256 i = 2 * length + 1; i > 1; --i) {... */\ntag_53:\n    /* \"@openzeppelin/contracts/utils/Strings.sol\":1832:1833  1 */\n  0x01\n    /* \"@openzeppelin/contracts/utils/Strings.sol\":1828:1829  i */\n  dup2\n    /* \"@openzeppelin/contracts/utils/Strings.sol\":1828:1833  i > 1 */\n  gt\n    /* \"@openzeppelin/contracts/utils/Strings.sol\":1795:1927  for (uint256 i = 2 * length + 1; i > 1; --i) {... */\n  iszero\n  tag_54\n  jumpi\n  shl(0x81, 0x181899199a1a9b1b9c1cb0b131b232b3)\n    /* \"@openzeppelin/contracts/utils/Strings.sol\":1879:1884  value */\n  dup6\n    /* \"@openzeppelin/contracts/utils/Strings.sol\":1887:1890  0xf */\n  0x0f\n    /* \"@openzeppelin/contracts/utils/Strings.sol\":1879:1890  value & 0xf */\n  and\n    /* \"@openzeppelin/contracts/utils/Strings.sol\":1866:1891  _HEX_SYMBOLS[value & 0xf] */\n  0x10\n  dup2\n  lt\n  tag_59\n  jumpi\n  tag_59\n  tag_50\n  jump\t// in\ntag_59:\n  byte\n  0xf8\n  shl\n    /* \"@openzeppelin/contracts/utils/Strings.sol\":1854:1860  buffer */\n  dup3\n    /* \"@openzeppelin/contracts/utils/Strings.sol\":1861:1862  i */\n  dup3\n    /* \"@openzeppelin/contracts/utils/Strings.sol\":1854:1863  buffer[i] */\n  dup2\n  mload\n  dup2\n  lt\n  tag_61\n  jumpi\n  tag_61\n  tag_50\n  jump\t// in\ntag_61:\n  0x20\n  add\n  add\n    /* \"@openzeppelin/contracts/utils/Strings.sol\":1854:1891  buffer[i] = _HEX_SYMBOLS[value & 0xf] */\n  swap1\n  not(sub(shl(0xf8, 0x01), 0x01))\n  and\n  swap1\n  dup2\n  0x00\n  byte\n  swap1\n  mstore8\n  pop\n    /* \"@openzeppelin/contracts/utils/Strings.sol\":1915:1916  4 */\n  0x04\n    /* \"@openzeppelin/contracts/utils/Strings.sol\":1905:1916  value >>= 4 */\n  swap5\n  swap1\n  swap5\n  shr\n  swap4\n    /* \"@openzeppelin/contracts/utils/Strings.sol\":1835:1838  --i */\n  tag_62\n  dup2\n  tag_63\n  jump\t// in\ntag_62:\n  swap1\n  pop\n    /* \"@openzeppelin/contracts/utils/Strings.sol\":1795:1927  for (uint256 i = 2 * length + 1; i > 1; --i) {... */\n  jump(tag_53)\ntag_54:\n  pop\n    /* \"@openzeppelin/contracts/utils/Strings.sol\":1944:1954  value == 0 */\n  dup4\n  iszero\n    /* \"@openzeppelin/contracts/utils/Strings.sol\":1936:1991  require(value == 0, \"Strings: hex length insufficient\") */\n  tag_64\n  jumpi\n  mload(0x40)\n  shl(0xe5, 0x461bcd)\n  dup2\n  mstore\n    /* \"#utility.yul\":2816:2818   */\n  0x20\n    /* \"@openzeppelin/contracts/utils/Strings.sol\":1936:1991  require(value == 0, \"Strings: hex length insufficient\") */\n  0x04\n  dup3\n  add\n    /* \"#utility.yul\":2798:2819   */\n  dup2\n  swap1\n  mstore\n    /* \"#utility.yul\":2835:2853   */\n  0x24\n  dup3\n  add\n    /* \"#utility.yul\":2828:2858   */\n  mstore\n    /* \"#utility.yul\":2894:2928   */\n  0x537472696e67733a20686578206c656e67746820696e73756666696369656e74\n    /* \"#utility.yul\":2874:2892   */\n  0x44\n  dup3\n  add\n    /* \"#utility.yul\":2867:2929   */\n  mstore\n    /* \"#utility.yul\":2946:2964   */\n  0x64\n  add\n    /* \"@openzeppelin/contracts/utils/Strings.sol\":1936:1991  require(value == 0, \"Strings: hex length insufficient\") */\n  tag_37\n    /* \"#utility.yul\":2614:2970   */\n  jump\n    /* \"@openzeppelin/contracts/utils/Strings.sol\":1936:1991  require(value == 0, \"Strings: hex length insufficient\") */\ntag_64:\n    /* \"@openzeppelin/contracts/utils/Strings.sol\":2015:2021  buffer */\n  swap4\n    /* \"@openzeppelin/contracts/utils/Strings.sol\":1588:2029  function toHexString(uint256 value, uint256 length) internal pure returns (string memory) {... */\n  swap3\n  pop\n  pop\n  pop\n  jump\t// out\n    /* \"#utility.yul\":14:324   */\ntag_3:\n    /* \"#utility.yul\":104:110   */\n  0x00\n    /* \"#utility.yul\":157:159   */\n  0x20\n    /* \"#utility.yul\":145:154   */\n  dup3\n    /* \"#utility.yul\":136:143   */\n  dup5\n    /* \"#utility.yul\":132:155   */\n  sub\n    /* \"#utility.yul\":128:160   */\n  slt\n    /* \"#utility.yul\":125:177   */\n  iszero\n  tag_71\n  jumpi\n    /* \"#utility.yul\":173:174   */\n  0x00\n    /* \"#utility.yul\":170:171   */\n  dup1\n    /* \"#utility.yul\":163:175   */\n  revert\n    /* \"#utility.yul\":125:177   */\ntag_71:\n    /* \"#utility.yul\":199:215   */\n  dup2\n  mload\n  sub(shl(0xa0, 0x01), 0x01)\n    /* \"#utility.yul\":244:275   */\n  dup2\n  and\n    /* \"#utility.yul\":234:276   */\n  dup2\n  eq\n    /* \"#utility.yul\":224:294   */\n  tag_64\n  jumpi\n    /* \"#utility.yul\":290:291   */\n  0x00\n    /* \"#utility.yul\":287:288   */\n  dup1\n    /* \"#utility.yul\":280:292   */\n  revert\n    /* \"#utility.yul\":329:587   */\ntag_67:\n    /* \"#utility.yul\":401:402   */\n  0x00\n    /* \"#utility.yul\":411:524   */\ntag_74:\n    /* \"#utility.yul\":425:431   */\n  dup4\n    /* \"#utility.yul\":422:423   */\n  dup2\n    /* \"#utility.yul\":419:432   */\n  lt\n    /* \"#utility.yul\":411:524   */\n  iszero\n  tag_76\n  jumpi\n    /* \"#utility.yul\":501:512   */\n  dup2\n  dup2\n  add\n    /* \"#utility.yul\":495:513   */\n  mload\n    /* \"#utility.yul\":482:493   */\n  dup4\n  dup3\n  add\n    /* \"#utility.yul\":475:514   */\n  mstore\n    /* \"#utility.yul\":447:449   */\n  0x20\n    /* \"#utility.yul\":440:450   */\n  add\n    /* \"#utility.yul\":411:524   */\n  jump(tag_74)\ntag_76:\n    /* \"#utility.yul\":542:548   */\n  dup4\n    /* \"#utility.yul\":539:540   */\n  dup2\n    /* \"#utility.yul\":536:549   */\n  gt\n    /* \"#utility.yul\":533:581   */\n  iszero\n  tag_77\n  jumpi\n    /* \"#utility.yul\":577:578   */\n  0x00\n    /* \"#utility.yul\":568:574   */\n  dup5\n    /* \"#utility.yul\":563:566   */\n  dup5\n    /* \"#utility.yul\":559:575   */\n  add\n    /* \"#utility.yul\":552:579   */\n  mstore\n    /* \"#utility.yul\":533:581   */\ntag_77:\n  pop\n    /* \"#utility.yul\":329:587   */\n  pop\n  pop\n  pop\n  jump\t// out\n    /* \"#utility.yul\":592:1378   */\ntag_36:\n    /* \"#utility.yul\":1003:1028   */\n  0x416363657373436f6e74726f6c3a206163636f756e7420000000000000000000\n    /* \"#utility.yul\":998:1001   */\n  dup2\n    /* \"#utility.yul\":991:1029   */\n  mstore\n    /* \"#utility.yul\":973:976   */\n  0x00\n    /* \"#utility.yul\":1058:1064   */\n  dup4\n    /* \"#utility.yul\":1052:1065   */\n  mload\n    /* \"#utility.yul\":1074:1136   */\n  tag_79\n    /* \"#utility.yul\":1129:1135   */\n  dup2\n    /* \"#utility.yul\":1124:1126   */\n  0x17\n    /* \"#utility.yul\":1119:1122   */\n  dup6\n    /* \"#utility.yul\":1115:1127   */\n  add\n    /* \"#utility.yul\":1108:1112   */\n  0x20\n    /* \"#utility.yul\":1100:1106   */\n  dup9\n    /* \"#utility.yul\":1096:1113   */\n  add\n    /* \"#utility.yul\":1074:1136   */\n  tag_67\n  jump\t// in\ntag_79:\n  shl(0x7d, 0x01034b99036b4b9b9b4b733903937b6329)\n    /* \"#utility.yul\":1195:1197   */\n  0x17\n    /* \"#utility.yul\":1155:1171   */\n  swap2\n  dup5\n  add\n    /* \"#utility.yul\":1187:1198   */\n  swap2\n  dup3\n  add\n    /* \"#utility.yul\":1180:1220   */\n  mstore\n    /* \"#utility.yul\":1245:1258   */\n  dup4\n  mload\n    /* \"#utility.yul\":1267:1330   */\n  tag_80\n    /* \"#utility.yul\":1245:1258   */\n  dup2\n    /* \"#utility.yul\":1316:1318   */\n  0x28\n    /* \"#utility.yul\":1308:1319   */\n  dup5\n  add\n    /* \"#utility.yul\":1301:1305   */\n  0x20\n    /* \"#utility.yul\":1289:1306   */\n  dup9\n  add\n    /* \"#utility.yul\":1267:1330   */\n  tag_67\n  jump\t// in\ntag_80:\n    /* \"#utility.yul\":1350:1367   */\n  add\n    /* \"#utility.yul\":1369:1371   */\n  0x28\n    /* \"#utility.yul\":1346:1372   */\n  add\n  swap5\n    /* \"#utility.yul\":592:1378   */\n  swap4\n  pop\n  pop\n  pop\n  pop\n  jump\t// out\n    /* \"#utility.yul\":1383:1766   */\ntag_38:\n    /* \"#utility.yul\":1532:1534   */\n  0x20\n    /* \"#utility.yul\":1521:1530   */\n  dup2\n    /* \"#utility.yul\":1514:1535   */\n  mstore\n    /* \"#utility.yul\":1495:1499   */\n  0x00\n    /* \"#utility.yul\":1564:1570   */\n  dup3\n    /* \"#utility.yul\":1558:1571   */\n  mload\n    /* \"#utility.yul\":1607:1613   */\n  dup1\n    /* \"#utility.yul\":1602:1604   */\n  0x20\n    /* \"#utility.yul\":1591:1600   */\n  dup5\n    /* \"#utility.yul\":1587:1605   */\n  add\n    /* \"#utility.yul\":1580:1614   */\n  mstore\n    /* \"#utility.yul\":1623:1689   */\n  tag_82\n    /* \"#utility.yul\":1682:1688   */\n  dup2\n    /* \"#utility.yul\":1677:1679   */\n  0x40\n    /* \"#utility.yul\":1666:1675   */\n  dup6\n    /* \"#utility.yul\":1662:1680   */\n  add\n    /* \"#utility.yul\":1657:1659   */\n  0x20\n    /* \"#utility.yul\":1649:1655   */\n  dup8\n    /* \"#utility.yul\":1645:1660   */\n  add\n    /* \"#utility.yul\":1623:1689   */\n  tag_67\n  jump\t// in\ntag_82:\n    /* \"#utility.yul\":1750:1752   */\n  0x1f\n    /* \"#utility.yul\":1729:1744   */\n  add\n  not(0x1f)\n    /* \"#utility.yul\":1725:1754   */\n  and\n    /* \"#utility.yul\":1710:1755   */\n  swap2\n  swap1\n  swap2\n  add\n    /* \"#utility.yul\":1757:1759   */\n  0x40\n    /* \"#utility.yul\":1706:1760   */\n  add\n  swap3\n    /* \"#utility.yul\":1383:1766   */\n  swap2\n  pop\n  pop\n  jump\t// out\n    /* \"#utility.yul\":1771:1898   */\ntag_68:\n    /* \"#utility.yul\":1832:1842   */\n  0x4e487b71\n    /* \"#utility.yul\":1827:1830   */\n  0xe0\n    /* \"#utility.yul\":1823:1843   */\n  shl\n    /* \"#utility.yul\":1820:1821   */\n  0x00\n    /* \"#utility.yul\":1813:1844   */\n  mstore\n    /* \"#utility.yul\":1863:1867   */\n  0x11\n    /* \"#utility.yul\":1860:1861   */\n  0x04\n    /* \"#utility.yul\":1853:1868   */\n  mstore\n    /* \"#utility.yul\":1887:1891   */\n  0x24\n    /* \"#utility.yul\":1884:1885   */\n  0x00\n    /* \"#utility.yul\":1877:1892   */\n  revert\n    /* \"#utility.yul\":1903:2071   */\ntag_41:\n    /* \"#utility.yul\":1943:1950   */\n  0x00\n    /* \"#utility.yul\":2009:2010   */\n  dup2\n    /* \"#utility.yul\":2005:2006   */\n  0x00\n    /* \"#utility.yul\":2001:2007   */\n  not\n    /* \"#utility.yul\":1997:2011   */\n  div\n    /* \"#utility.yul\":1994:1995   */\n  dup4\n    /* \"#utility.yul\":1991:2012   */\n  gt\n    /* \"#utility.yul\":1986:1987   */\n  dup3\n    /* \"#utility.yul\":1979:1988   */\n  iszero\n    /* \"#utility.yul\":1972:1989   */\n  iszero\n    /* \"#utility.yul\":1968:2013   */\n  and\n    /* \"#utility.yul\":1965:2036   */\n  iszero\n  tag_86\n  jumpi\n    /* \"#utility.yul\":2016:2034   */\n  tag_86\n  tag_68\n  jump\t// in\ntag_86:\n  pop\n    /* \"#utility.yul\":2056:2065   */\n  mul\n  swap1\n    /* \"#utility.yul\":1903:2071   */\n  jump\t// out\n    /* \"#utility.yul\":2076:2204   */\ntag_43:\n    /* \"#utility.yul\":2116:2119   */\n  0x00\n    /* \"#utility.yul\":2147:2148   */\n  dup3\n    /* \"#utility.yul\":2143:2149   */\n  not\n    /* \"#utility.yul\":2140:2141   */\n  dup3\n    /* \"#utility.yul\":2137:2150   */\n  gt\n    /* \"#utility.yul\":2134:2173   */\n  iszero\n  tag_89\n  jumpi\n    /* \"#utility.yul\":2153:2171   */\n  tag_89\n  tag_68\n  jump\t// in\ntag_89:\n  pop\n    /* \"#utility.yul\":2189:2198   */\n  add\n  swap1\n    /* \"#utility.yul\":2076:2204   */\n  jump\t// out\n    /* \"#utility.yul\":2209:2336   */\ntag_46:\n    /* \"#utility.yul\":2270:2280   */\n  0x4e487b71\n    /* \"#utility.yul\":2265:2268   */\n  0xe0\n    /* \"#utility.yul\":2261:2281   */\n  shl\n    /* \"#utility.yul\":2258:2259   */\n  0x00\n    /* \"#utility.yul\":2251:2282   */\n  mstore\n    /* \"#utility.yul\":2301:2305   */\n  0x41\n    /* \"#utility.yul\":2298:2299   */\n  0x04\n    /* \"#utility.yul\":2291:2306   */\n  mstore\n    /* \"#utility.yul\":2325:2329   */\n  0x24\n    /* \"#utility.yul\":2322:2323   */\n  0x00\n    /* \"#utility.yul\":2315:2330   */\n  revert\n    /* \"#utility.yul\":2341:2468   */\ntag_50:\n    /* \"#utility.yul\":2402:2412   */\n  0x4e487b71\n    /* \"#utility.yul\":2397:2400   */\n  0xe0\n    /* \"#utility.yul\":2393:2413   */\n  shl\n    /* \"#utility.yul\":2390:2391   */\n  0x00\n    /* \"#utility.yul\":2383:2414   */\n  mstore\n    /* \"#utility.yul\":2433:2437   */\n  0x32\n    /* \"#utility.yul\":2430:2431   */\n  0x04\n    /* \"#utility.yul\":2423:2438   */\n  mstore\n    /* \"#utility.yul\":2457:2461   */\n  0x24\n    /* \"#utility.yul\":2454:2455   */\n  0x00\n    /* \"#utility.yul\":2447:2462   */\n  revert\n    /* \"#utility.yul\":2473:2609   */\ntag_63:\n    /* \"#utility.yul\":2512:2515   */\n  0x00\n    /* \"#utility.yul\":2540:2545   */\n  dup2\n    /* \"#utility.yul\":2530:2569   */\n  tag_94\n  jumpi\n    /* \"#utility.yul\":2549:2567   */\n  tag_94\n  tag_68\n  jump\t// in\ntag_94:\n  pop\n  not(0x00)\n    /* \"#utility.yul\":2585:2603   */\n  add\n  swap1\n    /* \"#utility.yul\":2473:2609   */\n  jump\t// out\n    /* \"#utility.yul\":2614:2970   */\ntag_69:\n    /* \"MintNagaKids.sol\":244:1837  contract MintNagaKids is AccessControl, ReentrancyGuard {... */\n  dataSize(sub_0)\n  dup1\n  dataOffset(sub_0)\n  0x00\n  codecopy\n  0x00\n  return\nstop\n\nsub_0: assembly {\n        /* \"MintNagaKids.sol\":244:1837  contract MintNagaKids is AccessControl, ReentrancyGuard {... */\n      mstore(0x40, 0x80)\n      jumpi(tag_1, lt(calldatasize, 0x04))\n      shr(0xe0, calldataload(0x00))\n      dup1\n      0x868ff4a2\n      gt\n      tag_19\n      jumpi\n      dup1\n      0xa6f5f014\n      gt\n      tag_20\n      jumpi\n      dup1\n      0xa6f5f014\n      eq\n      tag_14\n      jumpi\n      dup1\n      0xc4e41b22\n      eq\n      tag_15\n      jumpi\n      dup1\n      0xd547741f\n      eq\n      tag_16\n      jumpi\n      dup1\n      0xdd31a7ba\n      eq\n      tag_17\n      jumpi\n      dup1\n      0xff0938a7\n      eq\n      tag_18\n      jumpi\n      0x00\n      dup1\n      revert\n    tag_20:\n      dup1\n      0x868ff4a2\n      eq\n      tag_10\n      jumpi\n      dup1\n      0x91d14854\n      eq\n      tag_11\n      jumpi\n      dup1\n      0x94f4504d\n      eq\n      tag_12\n      jumpi\n      dup1\n      0xa217fddf\n      eq\n      tag_13\n      jumpi\n      0x00\n      dup1\n      revert\n    tag_19:\n      dup1\n      0x2f2ff15d\n      gt\n      tag_21\n      jumpi\n      dup1\n      0x2f2ff15d\n      eq\n      tag_6\n      jumpi\n      dup1\n      0x36568abe\n      eq\n      tag_7\n      jumpi\n      dup1\n      0x4c0f38c2\n      eq\n      tag_8\n      jumpi\n      dup1\n      0x61aec205\n      eq\n      tag_9\n      jumpi\n      0x00\n      dup1\n      revert\n    tag_21:\n      dup1\n      0x01ffc9a7\n      eq\n      tag_2\n      jumpi\n      dup1\n      0x248a9ca3\n      eq\n      tag_3\n      jumpi\n      dup1\n      0x27c25c20\n      eq\n      tag_4\n      jumpi\n      dup1\n      0x28438f68\n      eq\n      tag_5\n      jumpi\n    tag_1:\n      0x00\n      dup1\n      revert\n        /* \"@openzeppelin/contracts/access/AccessControl.sol\":2606:2808  function supportsInterface(bytes4 interfaceId) public view virtual override returns (bool) {... */\n    tag_2:\n      callvalue\n      dup1\n      iszero\n      tag_22\n      jumpi\n      0x00\n      dup1\n      revert\n    tag_22:\n      pop\n      tag_23\n      tag_24\n      calldatasize\n      0x04\n      tag_25\n      jump\t// in\n    tag_24:\n      tag_26\n      jump\t// in\n    tag_23:\n      mload(0x40)\n        /* \"#utility.yul\":470:484   */\n      swap1\n      iszero\n        /* \"#utility.yul\":463:485   */\n      iszero\n        /* \"#utility.yul\":445:486   */\n      dup2\n      mstore\n        /* \"#utility.yul\":433:435   */\n      0x20\n        /* \"#utility.yul\":418:436   */\n      add\n        /* \"@openzeppelin/contracts/access/AccessControl.sol\":2606:2808  function supportsInterface(bytes4 interfaceId) public view virtual override returns (bool) {... */\n    tag_27:\n      mload(0x40)\n      dup1\n      swap2\n      sub\n      swap1\n      return\n        /* \"@openzeppelin/contracts/access/AccessControl.sol\":4391:4520  function getRoleAdmin(bytes32 role) public view virtual override returns (bytes32) {... */\n    tag_3:\n      callvalue\n      dup1\n      iszero\n      tag_29\n      jumpi\n      0x00\n      dup1\n      revert\n    tag_29:\n      pop\n      tag_30\n      tag_31\n      calldatasize\n      0x04\n      tag_32\n      jump\t// in\n    tag_31:\n        /* \"@openzeppelin/contracts/access/AccessControl.sol\":4465:4472  bytes32 */\n      0x00\n        /* \"@openzeppelin/contracts/access/AccessControl.sol\":4491:4503  _roles[role] */\n      swap1\n      dup2\n      mstore\n      0x20\n      dup2\n      swap1\n      mstore\n      0x40\n      swap1\n      keccak256\n        /* \"@openzeppelin/contracts/access/AccessControl.sol\":4491:4513  _roles[role].adminRole */\n      0x01\n      add\n      sload\n      swap1\n        /* \"@openzeppelin/contracts/access/AccessControl.sol\":4391:4520  function getRoleAdmin(bytes32 role) public view virtual override returns (bytes32) {... */\n      jump\n    tag_30:\n      mload(0x40)\n        /* \"#utility.yul\":828:853   */\n      swap1\n      dup2\n      mstore\n        /* \"#utility.yul\":816:818   */\n      0x20\n        /* \"#utility.yul\":801:819   */\n      add\n        /* \"@openzeppelin/contracts/access/AccessControl.sol\":4391:4520  function getRoleAdmin(bytes32 role) public view virtual override returns (bytes32) {... */\n      tag_27\n        /* \"#utility.yul\":682:859   */\n      jump\n        /* \"MintNagaKids.sol\":309:345  INagaKidsNFT public nagaKidsContract */\n    tag_4:\n      callvalue\n      dup1\n      iszero\n      tag_36\n      jumpi\n      0x00\n      dup1\n      revert\n    tag_36:\n      pop\n      sload(0x02)\n      tag_37\n      swap1\n      sub(shl(0xa0, 0x01), 0x01)\n      and\n      dup2\n      jump\n    tag_37:\n      mload(0x40)\n      sub(shl(0xa0, 0x01), 0x01)\n        /* \"#utility.yul\":1048:1080   */\n      swap1\n      swap2\n      and\n        /* \"#utility.yul\":1030:1081   */\n      dup2\n      mstore\n        /* \"#utility.yul\":1018:1020   */\n      0x20\n        /* \"#utility.yul\":1003:1021   */\n      add\n        /* \"MintNagaKids.sol\":309:345  INagaKidsNFT public nagaKidsContract */\n      tag_27\n        /* \"#utility.yul\":864:1087   */\n      jump\n        /* \"MintNagaKids.sol\":959:1080  function changeFreeMintOpen(bool _isOpen) public onlyRole(DEFAULT_ADMIN_ROLE) {... */\n    tag_5:\n      callvalue\n      dup1\n      iszero\n      tag_41\n      jumpi\n      0x00\n      dup1\n      revert\n    tag_41:\n      pop\n      tag_42\n      tag_43\n      calldatasize\n      0x04\n      tag_44\n      jump\t// in\n    tag_43:\n      tag_45\n      jump\t// in\n    tag_42:\n      stop\n        /* \"@openzeppelin/contracts/access/AccessControl.sol\":4770:4915  function grantRole(bytes32 role, address account) public virtual override onlyRole(getRoleAdmin(role)) {... */\n    tag_6:\n      callvalue\n      dup1\n      iszero\n      tag_46\n      jumpi\n      0x00\n      dup1\n      revert\n    tag_46:\n      pop\n      tag_42\n      tag_48\n      calldatasize\n      0x04\n      tag_49\n      jump\t// in\n    tag_48:\n      tag_50\n      jump\t// in\n        /* \"@openzeppelin/contracts/access/AccessControl.sol\":5787:6001  function renounceRole(bytes32 role, address account) public virtual override {... */\n    tag_7:\n      callvalue\n      dup1\n      iszero\n      tag_51\n      jumpi\n      0x00\n      dup1\n      revert\n    tag_51:\n      pop\n      tag_42\n      tag_53\n      calldatasize\n      0x04\n      tag_49\n      jump\t// in\n    tag_53:\n      tag_54\n      jump\t// in\n        /* \"MintNagaKids.sol\":1621:1729  function getMaxSupply() public view returns (uint256) {... */\n    tag_8:\n      callvalue\n      dup1\n      iszero\n      tag_55\n      jumpi\n      0x00\n      dup1\n      revert\n    tag_55:\n      pop\n      tag_30\n      tag_57\n      jump\t// in\n        /* \"MintNagaKids.sol\":677:816  function changeNagaKidsContract(INagaKidsNFT _nagaKids) public onlyRole(DEFAULT_ADMIN_ROLE) {... */\n    tag_9:\n      callvalue\n      dup1\n      iszero\n      tag_60\n      jumpi\n      0x00\n      dup1\n      revert\n    tag_60:\n      pop\n      tag_42\n      tag_62\n      calldatasize\n      0x04\n      tag_63\n      jump\t// in\n    tag_62:\n      tag_64\n      jump\t// in\n        /* \"MintNagaKids.sol\":1088:1493  function whitelistMint(uint256 amount) public payable nonReentrant Paused {... */\n    tag_10:\n      tag_42\n      tag_66\n      calldatasize\n      0x04\n      tag_32\n      jump\t// in\n    tag_66:\n      tag_68\n      jump\t// in\n        /* \"@openzeppelin/contracts/access/AccessControl.sol\":2895:3040  function hasRole(bytes32 role, address account) public view virtual override returns (bool) {... */\n    tag_11:\n      callvalue\n      dup1\n      iszero\n      tag_69\n      jumpi\n      0x00\n      dup1\n      revert\n    tag_69:\n      pop\n      tag_23\n      tag_71\n      calldatasize\n      0x04\n      tag_49\n      jump\t// in\n    tag_71:\n      tag_72\n      jump\t// in\n        /* \"MintNagaKids.sol\":385:412  bool public isWhitelistOpen */\n    tag_12:\n      callvalue\n      dup1\n      iszero\n      tag_74\n      jumpi\n      0x00\n      dup1\n      revert\n    tag_74:\n      pop\n      sload(0x02)\n      tag_23\n      swap1\n      shl(0xa8, 0x01)\n      swap1\n      div\n      0xff\n      and\n      dup2\n      jump\n        /* \"@openzeppelin/contracts/access/AccessControl.sol\":2027:2076  bytes32 public constant DEFAULT_ADMIN_ROLE = 0x00 */\n    tag_13:\n      callvalue\n      dup1\n      iszero\n      tag_78\n      jumpi\n      0x00\n      dup1\n      revert\n    tag_78:\n      pop\n      tag_30\n        /* \"@openzeppelin/contracts/access/AccessControl.sol\":2072:2076  0x00 */\n      0x00\n        /* \"@openzeppelin/contracts/access/AccessControl.sol\":2027:2076  bytes32 public constant DEFAULT_ADMIN_ROLE = 0x00 */\n      dup2\n      jump\n        /* \"MintNagaKids.sol\":352:378  bool public isFreeMintOpen */\n    tag_14:\n      callvalue\n      dup1\n      iszero\n      tag_82\n      jumpi\n      0x00\n      dup1\n      revert\n    tag_82:\n      pop\n      sload(0x02)\n      tag_23\n      swap1\n      shl(0xa0, 0x01)\n      swap1\n      div\n      0xff\n      and\n      dup2\n      jump\n        /* \"MintNagaKids.sol\":1501:1613  function getTotalSupply() public view returns (uint256) {... */\n    tag_15:\n      callvalue\n      dup1\n      iszero\n      tag_86\n      jumpi\n      0x00\n      dup1\n      revert\n    tag_86:\n      pop\n      tag_30\n      tag_88\n      jump\t// in\n        /* \"@openzeppelin/contracts/access/AccessControl.sol\":5149:5296  function revokeRole(bytes32 role, address account) public virtual override onlyRole(getRoleAdmin(role)) {... */\n    tag_16:\n      callvalue\n      dup1\n      iszero\n      tag_90\n      jumpi\n      0x00\n      dup1\n      revert\n    tag_90:\n      pop\n      tag_42\n      tag_92\n      calldatasize\n      0x04\n      tag_49\n      jump\t// in\n    tag_92:\n      tag_93\n      jump\t// in\n        /* \"MintNagaKids.sol\":824:951  function changeWhitelistMintOpen(bool _isOpen) public onlyRole(DEFAULT_ADMIN_ROLE) {... */\n    tag_17:\n      callvalue\n      dup1\n      iszero\n      tag_94\n      jumpi\n      0x00\n      dup1\n      revert\n    tag_94:\n      pop\n      tag_42\n      tag_96\n      calldatasize\n      0x04\n      tag_44\n      jump\t// in\n    tag_96:\n      tag_97\n      jump\t// in\n        /* \"MintNagaKids.sol\":1737:1834  function isPause() public view returns (bool) {... */\n    tag_18:\n      callvalue\n      dup1\n      iszero\n      tag_98\n      jumpi\n      0x00\n      dup1\n      revert\n    tag_98:\n      pop\n      tag_23\n      tag_100\n      jump\t// in\n        /* \"@openzeppelin/contracts/access/AccessControl.sol\":2606:2808  function supportsInterface(bytes4 interfaceId) public view virtual override returns (bool) {... */\n    tag_26:\n        /* \"@openzeppelin/contracts/access/AccessControl.sol\":2691:2695  bool */\n      0x00\n      not(sub(shl(0xe0, 0x01), 0x01))\n        /* \"@openzeppelin/contracts/access/AccessControl.sol\":2714:2761  interfaceId == type(IAccessControl).interfaceId */\n      dup3\n      and\n      shl(0xe0, 0x7965db0b)\n      eq\n      dup1\n        /* \"@openzeppelin/contracts/access/AccessControl.sol\":2714:2801  interfaceId == type(IAccessControl).interfaceId || super.supportsInterface(interfaceId) */\n      tag_105\n      jumpi\n      pop\n      shl(0xe0, 0x01ffc9a7)\n      not(sub(shl(0xe0, 0x01), 0x01))\n        /* \"@openzeppelin/contracts/utils/introspection/ERC165.sol\":937:977  interfaceId == type(IERC165).interfaceId */\n      dup4\n      and\n      eq\n        /* \"@openzeppelin/contracts/access/AccessControl.sol\":2765:2801  super.supportsInterface(interfaceId) */\n    tag_105:\n        /* \"@openzeppelin/contracts/access/AccessControl.sol\":2707:2801  return interfaceId == type(IAccessControl).interfaceId || super.supportsInterface(interfaceId) */\n      swap3\n        /* \"@openzeppelin/contracts/access/AccessControl.sol\":2606:2808  function supportsInterface(bytes4 interfaceId) public view virtual override returns (bool) {... */\n      swap2\n      pop\n      pop\n      jump\t// out\n        /* \"MintNagaKids.sol\":959:1080  function changeFreeMintOpen(bool _isOpen) public onlyRole(DEFAULT_ADMIN_ROLE) {... */\n    tag_45:\n        /* \"@openzeppelin/contracts/access/AccessControl.sol\":2072:2076  0x00 */\n      0x00\n        /* \"@openzeppelin/contracts/access/AccessControl.sol\":2505:2521  _checkRole(role) */\n      tag_109\n        /* \"@openzeppelin/contracts/access/AccessControl.sol\":2072:2076  0x00 */\n      dup2\n        /* \"@openzeppelin/contracts/access/AccessControl.sol\":2505:2515  _checkRole */\n      tag_110\n        /* \"@openzeppelin/contracts/access/AccessControl.sol\":2505:2521  _checkRole(role) */\n      jump\t// in\n    tag_109:\n      pop\n        /* \"MintNagaKids.sol\":1048:1062  isFreeMintOpen */\n      0x02\n        /* \"MintNagaKids.sol\":1048:1072  isFreeMintOpen = _isOpen */\n      dup1\n      sload\n      swap2\n      iszero\n      iszero\n      shl(0xa0, 0x01)\n      mul\n      not(shl(0xa0, 0xff))\n      swap1\n      swap3\n      and\n      swap2\n      swap1\n      swap2\n      or\n      swap1\n      sstore\n        /* \"MintNagaKids.sol\":959:1080  function changeFreeMintOpen(bool _isOpen) public onlyRole(DEFAULT_ADMIN_ROLE) {... */\n      jump\t// out\n        /* \"@openzeppelin/contracts/access/AccessControl.sol\":4770:4915  function grantRole(bytes32 role, address account) public virtual override onlyRole(getRoleAdmin(role)) {... */\n    tag_50:\n        /* \"@openzeppelin/contracts/access/AccessControl.sol\":4465:4472  bytes32 */\n      0x00\n        /* \"@openzeppelin/contracts/access/AccessControl.sol\":4491:4503  _roles[role] */\n      dup3\n      dup2\n      mstore\n      0x20\n      dup2\n      swap1\n      mstore\n      0x40\n      swap1\n      keccak256\n        /* \"@openzeppelin/contracts/access/AccessControl.sol\":4491:4513  _roles[role].adminRole */\n      0x01\n      add\n      sload\n        /* \"@openzeppelin/contracts/access/AccessControl.sol\":2505:2521  _checkRole(role) */\n      tag_114\n        /* \"@openzeppelin/contracts/access/AccessControl.sol\":2516:2520  role */\n      dup2\n        /* \"@openzeppelin/contracts/access/AccessControl.sol\":2505:2515  _checkRole */\n      tag_110\n        /* \"@openzeppelin/contracts/access/AccessControl.sol\":2505:2521  _checkRole(role) */\n      jump\t// in\n    tag_114:\n        /* \"@openzeppelin/contracts/access/AccessControl.sol\":4883:4908  _grantRole(role, account) */\n      tag_116\n        /* \"@openzeppelin/contracts/access/AccessControl.sol\":4894:4898  role */\n      dup4\n        /* \"@openzeppelin/contracts/access/AccessControl.sol\":4900:4907  account */\n      dup4\n        /* \"@openzeppelin/contracts/access/AccessControl.sol\":4883:4893  _grantRole */\n      tag_117\n        /* \"@openzeppelin/contracts/access/AccessControl.sol\":4883:4908  _grantRole(role, account) */\n      jump\t// in\n    tag_116:\n        /* \"@openzeppelin/contracts/access/AccessControl.sol\":4770:4915  function grantRole(bytes32 role, address account) public virtual override onlyRole(getRoleAdmin(role)) {... */\n      pop\n      pop\n      pop\n      jump\t// out\n        /* \"@openzeppelin/contracts/access/AccessControl.sol\":5787:6001  function renounceRole(bytes32 role, address account) public virtual override {... */\n    tag_54:\n      sub(shl(0xa0, 0x01), 0x01)\n        /* \"@openzeppelin/contracts/access/AccessControl.sol\":5882:5905  account == _msgSender() */\n      dup2\n      and\n        /* \"@openzeppelin/contracts/utils/Context.sol\":719:729  msg.sender */\n      caller\n        /* \"@openzeppelin/contracts/access/AccessControl.sol\":5882:5905  account == _msgSender() */\n      eq\n        /* \"@openzeppelin/contracts/access/AccessControl.sol\":5874:5957  require(account == _msgSender(), \"AccessControl: can only renounce roles for self\") */\n      tag_121\n      jumpi\n      mload(0x40)\n      shl(0xe5, 0x461bcd)\n      dup2\n      mstore\n        /* \"#utility.yul\":2758:2760   */\n      0x20\n        /* \"@openzeppelin/contracts/access/AccessControl.sol\":5874:5957  require(account == _msgSender(), \"AccessControl: can only renounce roles for self\") */\n      0x04\n      dup3\n      add\n        /* \"#utility.yul\":2740:2761   */\n      mstore\n        /* \"#utility.yul\":2797:2799   */\n      0x2f\n        /* \"#utility.yul\":2777:2795   */\n      0x24\n      dup3\n      add\n        /* \"#utility.yul\":2770:2800   */\n      mstore\n        /* \"#utility.yul\":2836:2870   */\n      0x416363657373436f6e74726f6c3a2063616e206f6e6c792072656e6f756e6365\n        /* \"#utility.yul\":2816:2834   */\n      0x44\n      dup3\n      add\n        /* \"#utility.yul\":2809:2871   */\n      mstore\n      shl(0x89, 0x103937b632b9903337b91039b2b633)\n        /* \"#utility.yul\":2887:2905   */\n      0x64\n      dup3\n      add\n        /* \"#utility.yul\":2880:2925   */\n      mstore\n        /* \"#utility.yul\":2942:2961   */\n      0x84\n      add\n        /* \"@openzeppelin/contracts/access/AccessControl.sol\":5874:5957  require(account == _msgSender(), \"AccessControl: can only renounce roles for self\") */\n    tag_122:\n      mload(0x40)\n      dup1\n      swap2\n      sub\n      swap1\n      revert\n    tag_121:\n        /* \"@openzeppelin/contracts/access/AccessControl.sol\":5968:5994  _revokeRole(role, account) */\n      tag_124\n        /* \"@openzeppelin/contracts/access/AccessControl.sol\":5980:5984  role */\n      dup3\n        /* \"@openzeppelin/contracts/access/AccessControl.sol\":5986:5993  account */\n      dup3\n        /* \"@openzeppelin/contracts/access/AccessControl.sol\":5968:5979  _revokeRole */\n      tag_125\n        /* \"@openzeppelin/contracts/access/AccessControl.sol\":5968:5994  _revokeRole(role, account) */\n      jump\t// in\n    tag_124:\n        /* \"@openzeppelin/contracts/access/AccessControl.sol\":5787:6001  function renounceRole(bytes32 role, address account) public virtual override {... */\n      pop\n      pop\n      jump\t// out\n        /* \"MintNagaKids.sol\":1621:1729  function getMaxSupply() public view returns (uint256) {... */\n    tag_57:\n        /* \"MintNagaKids.sol\":1693:1709  nagaKidsContract */\n      sload(0x02)\n        /* \"MintNagaKids.sol\":1693:1721  nagaKidsContract.maxSupply() */\n      0x40\n      dup1\n      mload\n      shl(0xe0, 0xd5abeb01)\n      dup2\n      mstore\n      swap1\n      mload\n        /* \"MintNagaKids.sol\":1666:1673  uint256 */\n      0x00\n      swap3\n      sub(shl(0xa0, 0x01), 0x01)\n        /* \"MintNagaKids.sol\":1693:1709  nagaKidsContract */\n      and\n      swap2\n        /* \"MintNagaKids.sol\":1693:1719  nagaKidsContract.maxSupply */\n      0xd5abeb01\n      swap2\n        /* \"MintNagaKids.sol\":1693:1721  nagaKidsContract.maxSupply() */\n      0x04\n      dup1\n      dup4\n      add\n      swap3\n      0x20\n      swap3\n      swap2\n      swap1\n      dup3\n      swap1\n      sub\n      add\n      dup2\n        /* \"MintNagaKids.sol\":1693:1709  nagaKidsContract */\n      dup7\n        /* \"MintNagaKids.sol\":1693:1721  nagaKidsContract.maxSupply() */\n      gas\n      staticcall\n      iszero\n      dup1\n      iszero\n      tag_128\n      jumpi\n      returndatasize\n      0x00\n      dup1\n      returndatacopy\n      revert(0x00, returndatasize)\n    tag_128:\n      pop\n      pop\n      pop\n      pop\n      mload(0x40)\n      returndatasize\n      not(0x1f)\n      0x1f\n      dup3\n      add\n      and\n      dup3\n      add\n      dup1\n      0x40\n      mstore\n      pop\n      dup2\n      add\n      swap1\n      tag_129\n      swap2\n      swap1\n      tag_130\n      jump\t// in\n    tag_129:\n        /* \"MintNagaKids.sol\":1686:1721  return nagaKidsContract.maxSupply() */\n      swap1\n      pop\n        /* \"MintNagaKids.sol\":1621:1729  function getMaxSupply() public view returns (uint256) {... */\n      swap1\n      jump\t// out\n        /* \"MintNagaKids.sol\":677:816  function changeNagaKidsContract(INagaKidsNFT _nagaKids) public onlyRole(DEFAULT_ADMIN_ROLE) {... */\n    tag_64:\n        /* \"@openzeppelin/contracts/access/AccessControl.sol\":2072:2076  0x00 */\n      0x00\n        /* \"@openzeppelin/contracts/access/AccessControl.sol\":2505:2521  _checkRole(role) */\n      tag_132\n        /* \"@openzeppelin/contracts/access/AccessControl.sol\":2072:2076  0x00 */\n      dup2\n        /* \"@openzeppelin/contracts/access/AccessControl.sol\":2505:2515  _checkRole */\n      tag_110\n        /* \"@openzeppelin/contracts/access/AccessControl.sol\":2505:2521  _checkRole(role) */\n      jump\t// in\n    tag_132:\n      pop\n        /* \"MintNagaKids.sol\":780:796  nagaKidsContract */\n      0x02\n        /* \"MintNagaKids.sol\":780:808  nagaKidsContract = _nagaKids */\n      dup1\n      sload\n      not(sub(shl(0xa0, 0x01), 0x01))\n      and\n      sub(shl(0xa0, 0x01), 0x01)\n      swap3\n      swap1\n      swap3\n      and\n      swap2\n      swap1\n      swap2\n      or\n      swap1\n      sstore\n        /* \"MintNagaKids.sol\":677:816  function changeNagaKidsContract(INagaKidsNFT _nagaKids) public onlyRole(DEFAULT_ADMIN_ROLE) {... */\n      jump\t// out\n        /* \"MintNagaKids.sol\":1088:1493  function whitelistMint(uint256 amount) public payable nonReentrant Paused {... */\n    tag_68:\n        /* \"@openzeppelin/contracts/security/ReentrancyGuard.sol\":1744:1745  2 */\n      0x02\n        /* \"@openzeppelin/contracts/security/ReentrancyGuard.sol\":2325:2332  _status */\n      sload(0x01)\n        /* \"@openzeppelin/contracts/security/ReentrancyGuard.sol\":2325:2344  _status != _ENTERED */\n      sub\n        /* \"@openzeppelin/contracts/security/ReentrancyGuard.sol\":2317:2380  require(_status != _ENTERED, \"ReentrancyGuard: reentrant call\") */\n      tag_135\n      jumpi\n      mload(0x40)\n      shl(0xe5, 0x461bcd)\n      dup2\n      mstore\n        /* \"#utility.yul\":3363:3365   */\n      0x20\n        /* \"@openzeppelin/contracts/security/ReentrancyGuard.sol\":2317:2380  require(_status != _ENTERED, \"ReentrancyGuard: reentrant call\") */\n      0x04\n      dup3\n      add\n        /* \"#utility.yul\":3345:3366   */\n      mstore\n        /* \"#utility.yul\":3402:3404   */\n      0x1f\n        /* \"#utility.yul\":3382:3400   */\n      0x24\n      dup3\n      add\n        /* \"#utility.yul\":3375:3405   */\n      mstore\n        /* \"#utility.yul\":3441:3474   */\n      0x5265656e7472616e637947756172643a207265656e7472616e742063616c6c00\n        /* \"#utility.yul\":3421:3439   */\n      0x44\n      dup3\n      add\n        /* \"#utility.yul\":3414:3475   */\n      mstore\n        /* \"#utility.yul\":3492:3510   */\n      0x64\n      add\n        /* \"@openzeppelin/contracts/security/ReentrancyGuard.sol\":2317:2380  require(_status != _ENTERED, \"ReentrancyGuard: reentrant call\") */\n      tag_122\n        /* \"#utility.yul\":3161:3516   */\n      jump\n        /* \"@openzeppelin/contracts/security/ReentrancyGuard.sol\":2317:2380  require(_status != _ENTERED, \"ReentrancyGuard: reentrant call\") */\n    tag_135:\n        /* \"@openzeppelin/contracts/security/ReentrancyGuard.sol\":1744:1745  2 */\n      0x02\n        /* \"@openzeppelin/contracts/security/ReentrancyGuard.sol\":2455:2462  _status */\n      0x01\n        /* \"@openzeppelin/contracts/security/ReentrancyGuard.sol\":2455:2473  _status = _ENTERED */\n      sstore\n        /* \"MintNagaKids.sol\":607:616  isPause() */\n      tag_139\n        /* \"MintNagaKids.sol\":607:614  isPause */\n      tag_100\n        /* \"MintNagaKids.sol\":607:616  isPause() */\n      jump\t// in\n    tag_139:\n        /* \"MintNagaKids.sol\":607:625  isPause() == false */\n      iszero\n        /* \"MintNagaKids.sol\":599:649  require(isPause() == false,\"NagaKids was Paused.\") */\n      tag_140\n      jumpi\n      mload(0x40)\n      shl(0xe5, 0x461bcd)\n      dup2\n      mstore\n        /* \"#utility.yul\":3723:3725   */\n      0x20\n        /* \"MintNagaKids.sol\":599:649  require(isPause() == false,\"NagaKids was Paused.\") */\n      0x04\n      dup3\n      add\n        /* \"#utility.yul\":3705:3726   */\n      mstore\n        /* \"#utility.yul\":3762:3764   */\n      0x14\n        /* \"#utility.yul\":3742:3760   */\n      0x24\n      dup3\n      add\n        /* \"#utility.yul\":3735:3765   */\n      mstore\n      shl(0x61, 0x2730b3b0a5b4b239903bb0b9902830bab9b2b217)\n        /* \"#utility.yul\":3781:3799   */\n      0x44\n      dup3\n      add\n        /* \"#utility.yul\":3774:3824   */\n      mstore\n        /* \"#utility.yul\":3841:3859   */\n      0x64\n      add\n        /* \"MintNagaKids.sol\":599:649  require(isPause() == false,\"NagaKids was Paused.\") */\n      tag_122\n        /* \"#utility.yul\":3521:3865   */\n      jump\n        /* \"MintNagaKids.sol\":599:649  require(isPause() == false,\"NagaKids was Paused.\") */\n    tag_140:\n        /* \"MintNagaKids.sol\":1181:1196  isWhitelistOpen */\n      sload(0x02)\n      shl(0xa8, 0x01)\n      swap1\n      div\n      0xff\n      and\n        /* \"MintNagaKids.sol\":1181:1204  isWhitelistOpen == true */\n      iszero\n      iszero\n        /* \"MintNagaKids.sol\":1200:1204  true */\n      0x01\n        /* \"MintNagaKids.sol\":1181:1204  isWhitelistOpen == true */\n      eq\n        /* \"MintNagaKids.sol\":1173:1236  require(isWhitelistOpen == true, \"Whitelist not open to mint.\") */\n      tag_144\n      jumpi\n      mload(0x40)\n      shl(0xe5, 0x461bcd)\n      dup2\n      mstore\n        /* \"#utility.yul\":4072:4074   */\n      0x20\n        /* \"MintNagaKids.sol\":1173:1236  require(isWhitelistOpen == true, \"Whitelist not open to mint.\") */\n      0x04\n      dup3\n      add\n        /* \"#utility.yul\":4054:4075   */\n      mstore\n        /* \"#utility.yul\":4111:4113   */\n      0x1b\n        /* \"#utility.yul\":4091:4109   */\n      0x24\n      dup3\n      add\n        /* \"#utility.yul\":4084:4114   */\n      mstore\n        /* \"#utility.yul\":4150:4179   */\n      0x57686974656c697374206e6f74206f70656e20746f206d696e742e0000000000\n        /* \"#utility.yul\":4130:4148   */\n      0x44\n      dup3\n      add\n        /* \"#utility.yul\":4123:4180   */\n      mstore\n        /* \"#utility.yul\":4197:4215   */\n      0x64\n      add\n        /* \"MintNagaKids.sol\":1173:1236  require(isWhitelistOpen == true, \"Whitelist not open to mint.\") */\n      tag_122\n        /* \"#utility.yul\":3870:4221   */\n      jump\n        /* \"MintNagaKids.sol\":1173:1236  require(isWhitelistOpen == true, \"Whitelist not open to mint.\") */\n    tag_144:\n        /* \"MintNagaKids.sol\":1274:1278  1111 */\n      0x0457\n        /* \"MintNagaKids.sol\":1255:1271  getTotalSupply() */\n      tag_147\n        /* \"MintNagaKids.sol\":1255:1269  getTotalSupply */\n      tag_88\n        /* \"MintNagaKids.sol\":1255:1271  getTotalSupply() */\n      jump\t// in\n    tag_147:\n        /* \"MintNagaKids.sol\":1255:1278  getTotalSupply() < 1111 */\n      lt\n        /* \"MintNagaKids.sol\":1247:1294  require(getTotalSupply() < 1111, \"Over supply\") */\n      tag_148\n      jumpi\n      mload(0x40)\n      shl(0xe5, 0x461bcd)\n      dup2\n      mstore\n        /* \"#utility.yul\":4428:4430   */\n      0x20\n        /* \"MintNagaKids.sol\":1247:1294  require(getTotalSupply() < 1111, \"Over supply\") */\n      0x04\n      dup3\n      add\n        /* \"#utility.yul\":4410:4431   */\n      mstore\n        /* \"#utility.yul\":4467:4469   */\n      0x0b\n        /* \"#utility.yul\":4447:4465   */\n      0x24\n      dup3\n      add\n        /* \"#utility.yul\":4440:4470   */\n      mstore\n      shl(0xa8, 0x4f76657220737570706c79)\n        /* \"#utility.yul\":4486:4504   */\n      0x44\n      dup3\n      add\n        /* \"#utility.yul\":4479:4520   */\n      mstore\n        /* \"#utility.yul\":4537:4555   */\n      0x64\n      add\n        /* \"MintNagaKids.sol\":1247:1294  require(getTotalSupply() < 1111, \"Over supply\") */\n      tag_122\n        /* \"#utility.yul\":4226:4561   */\n      jump\n        /* \"MintNagaKids.sol\":1247:1294  require(getTotalSupply() < 1111, \"Over supply\") */\n    tag_148:\n        /* \"MintNagaKids.sol\":1313:1329  nagaKidsContract */\n      sload(0x02)\n        /* \"MintNagaKids.sol\":1338:1368  nagaKidsContract.MINTER_ROLE() */\n      0x40\n      dup1\n      mload\n      shl(0xe0, 0xd5391393)\n      dup2\n      mstore\n      swap1\n      mload\n      sub(shl(0xa0, 0x01), 0x01)\n        /* \"MintNagaKids.sol\":1313:1329  nagaKidsContract */\n      swap1\n      swap3\n      and\n      swap2\n        /* \"MintNagaKids.sol\":1313:1337  nagaKidsContract.hasRole */\n      0x91d14854\n      swap2\n        /* \"MintNagaKids.sol\":1313:1329  nagaKidsContract */\n      dup4\n      swap2\n        /* \"MintNagaKids.sol\":1338:1366  nagaKidsContract.MINTER_ROLE */\n      0xd5391393\n      swap2\n        /* \"MintNagaKids.sol\":1338:1368  nagaKidsContract.MINTER_ROLE() */\n      0x04\n      dup1\n      dup3\n      add\n      swap3\n      0x20\n      swap3\n      swap1\n      swap2\n      swap1\n      dup3\n      swap1\n      sub\n      add\n      dup2\n        /* \"MintNagaKids.sol\":1313:1329  nagaKidsContract */\n      dup7\n        /* \"MintNagaKids.sol\":1338:1368  nagaKidsContract.MINTER_ROLE() */\n      gas\n      staticcall\n      iszero\n      dup1\n      iszero\n      tag_152\n      jumpi\n      returndatasize\n      0x00\n      dup1\n      returndatacopy\n      revert(0x00, returndatasize)\n    tag_152:\n      pop\n      pop\n      pop\n      pop\n      mload(0x40)\n      returndatasize\n      not(0x1f)\n      0x1f\n      dup3\n      add\n      and\n      dup3\n      add\n      dup1\n      0x40\n      mstore\n      pop\n      dup2\n      add\n      swap1\n      tag_153\n      swap2\n      swap1\n      tag_130\n      jump\t// in\n    tag_153:\n        /* \"MintNagaKids.sol\":1313:1383  nagaKidsContract.hasRole(nagaKidsContract.MINTER_ROLE(),address(this)) */\n      mload(0x40)\n      not(sub(shl(0xe0, 0x01), 0x01))\n      0xe0\n      dup5\n      swap1\n      shl\n      and\n      dup2\n      mstore\n      0x04\n      dup2\n      add\n        /* \"#utility.yul\":4929:4954   */\n      swap2\n      swap1\n      swap2\n      mstore\n        /* \"MintNagaKids.sol\":1377:1381  this */\n      address\n        /* \"#utility.yul\":4970:4988   */\n      0x24\n      dup3\n      add\n        /* \"#utility.yul\":4963:5023   */\n      mstore\n        /* \"#utility.yul\":4902:4920   */\n      0x44\n      add\n        /* \"MintNagaKids.sol\":1313:1383  nagaKidsContract.hasRole(nagaKidsContract.MINTER_ROLE(),address(this)) */\n      0x20\n      mload(0x40)\n      dup1\n      dup4\n      sub\n      dup2\n      dup7\n      gas\n      staticcall\n      iszero\n      dup1\n      iszero\n      tag_158\n      jumpi\n      returndatasize\n      0x00\n      dup1\n      returndatacopy\n      revert(0x00, returndatasize)\n    tag_158:\n      pop\n      pop\n      pop\n      pop\n      mload(0x40)\n      returndatasize\n      not(0x1f)\n      0x1f\n      dup3\n      add\n      and\n      dup3\n      add\n      dup1\n      0x40\n      mstore\n      pop\n      dup2\n      add\n      swap1\n      tag_159\n      swap2\n      swap1\n      tag_160\n      jump\t// in\n    tag_159:\n        /* \"MintNagaKids.sol\":1313:1391  nagaKidsContract.hasRole(nagaKidsContract.MINTER_ROLE(),address(this)) == true */\n      iszero\n      iszero\n        /* \"MintNagaKids.sol\":1387:1391  true */\n      0x01\n        /* \"MintNagaKids.sol\":1313:1391  nagaKidsContract.hasRole(nagaKidsContract.MINTER_ROLE(),address(this)) == true */\n      eq\n        /* \"MintNagaKids.sol\":1305:1437  require(nagaKidsContract.hasRole(nagaKidsContract.MINTER_ROLE(),address(this)) == true,\"This Contract not have permission to mint.\") */\n      tag_161\n      jumpi\n      mload(0x40)\n      shl(0xe5, 0x461bcd)\n      dup2\n      mstore\n        /* \"#utility.yul\":5486:5488   */\n      0x20\n        /* \"MintNagaKids.sol\":1305:1437  require(nagaKidsContract.hasRole(nagaKidsContract.MINTER_ROLE(),address(this)) == true,\"This Contract not have permission to mint.\") */\n      0x04\n      dup3\n      add\n        /* \"#utility.yul\":5468:5489   */\n      mstore\n        /* \"#utility.yul\":5525:5527   */\n      0x2a\n        /* \"#utility.yul\":5505:5523   */\n      0x24\n      dup3\n      add\n        /* \"#utility.yul\":5498:5528   */\n      mstore\n        /* \"#utility.yul\":5564:5598   */\n      0x5468697320436f6e7472616374206e6f742068617665207065726d697373696f\n        /* \"#utility.yul\":5544:5562   */\n      0x44\n      dup3\n      add\n        /* \"#utility.yul\":5537:5599   */\n      mstore\n      shl(0xb1, 0x37103a379036b4b73a17)\n        /* \"#utility.yul\":5615:5633   */\n      0x64\n      dup3\n      add\n        /* \"#utility.yul\":5608:5648   */\n      mstore\n        /* \"#utility.yul\":5665:5684   */\n      0x84\n      add\n        /* \"MintNagaKids.sol\":1305:1437  require(nagaKidsContract.hasRole(nagaKidsContract.MINTER_ROLE(),address(this)) == true,\"This Contract not have permission to mint.\") */\n      tag_122\n        /* \"#utility.yul\":5284:5690   */\n      jump\n        /* \"MintNagaKids.sol\":1305:1437  require(nagaKidsContract.hasRole(nagaKidsContract.MINTER_ROLE(),address(this)) == true,\"This Contract not have permission to mint.\") */\n    tag_161:\n        /* \"MintNagaKids.sol\":1448:1464  nagaKidsContract */\n      sload(0x02)\n        /* \"MintNagaKids.sol\":1448:1485  nagaKidsContract.safeMint(msg.sender) */\n      mload(0x40)\n      shl(0xe0, 0x40d097c3)\n      dup2\n      mstore\n        /* \"MintNagaKids.sol\":1474:1484  msg.sender */\n      caller\n        /* \"MintNagaKids.sol\":1448:1485  nagaKidsContract.safeMint(msg.sender) */\n      0x04\n      dup3\n      add\n        /* \"#utility.yul\":1030:1081   */\n      mstore\n      sub(shl(0xa0, 0x01), 0x01)\n        /* \"MintNagaKids.sol\":1448:1464  nagaKidsContract */\n      swap1\n      swap2\n      and\n      swap1\n        /* \"MintNagaKids.sol\":1448:1473  nagaKidsContract.safeMint */\n      0x40d097c3\n      swap1\n        /* \"#utility.yul\":1003:1021   */\n      0x24\n      add\n        /* \"MintNagaKids.sol\":1448:1485  nagaKidsContract.safeMint(msg.sender) */\n      0x00\n      mload(0x40)\n      dup1\n      dup4\n      sub\n      dup2\n      0x00\n      dup8\n      dup1\n      extcodesize\n      iszero\n      dup1\n      iszero\n      tag_166\n      jumpi\n      0x00\n      dup1\n      revert\n    tag_166:\n      pop\n      gas\n      call\n      iszero\n      dup1\n      iszero\n      tag_168\n      jumpi\n      returndatasize\n      0x00\n      dup1\n      returndatacopy\n      revert(0x00, returndatasize)\n    tag_168:\n      pop\n      pop\n        /* \"@openzeppelin/contracts/security/ReentrancyGuard.sol\":1701:1702  1 */\n      0x01\n        /* \"@openzeppelin/contracts/security/ReentrancyGuard.sol\":2628:2650  _status = _NOT_ENTERED */\n      dup1\n      sstore\n      pop\n      pop\n      pop\n        /* \"MintNagaKids.sol\":1088:1493  function whitelistMint(uint256 amount) public payable nonReentrant Paused {... */\n      jump\t// out\n        /* \"@openzeppelin/contracts/access/AccessControl.sol\":2895:3040  function hasRole(bytes32 role, address account) public view virtual override returns (bool) {... */\n    tag_72:\n        /* \"@openzeppelin/contracts/access/AccessControl.sol\":2981:2985  bool */\n      0x00\n        /* \"@openzeppelin/contracts/access/AccessControl.sol\":3004:3016  _roles[role] */\n      swap2\n      dup3\n      mstore\n      0x20\n      dup3\n      dup2\n      mstore\n      0x40\n      dup1\n      dup5\n      keccak256\n      sub(shl(0xa0, 0x01), 0x01)\n        /* \"@openzeppelin/contracts/access/AccessControl.sol\":3004:3033  _roles[role].members[account] */\n      swap4\n      swap1\n      swap4\n      and\n      dup5\n      mstore\n      swap2\n      swap1\n      mstore\n      swap1\n      keccak256\n      sload\n      0xff\n      and\n      swap1\n        /* \"@openzeppelin/contracts/access/AccessControl.sol\":2895:3040  function hasRole(bytes32 role, address account) public view virtual override returns (bool) {... */\n      jump\t// out\n        /* \"MintNagaKids.sol\":1501:1613  function getTotalSupply() public view returns (uint256) {... */\n    tag_88:\n        /* \"MintNagaKids.sol\":1575:1591  nagaKidsContract */\n      sload(0x02)\n        /* \"MintNagaKids.sol\":1575:1605  nagaKidsContract.totalSupply() */\n      0x40\n      dup1\n      mload\n      shl(0xe0, 0x18160ddd)\n      dup2\n      mstore\n      swap1\n      mload\n        /* \"MintNagaKids.sol\":1548:1555  uint256 */\n      0x00\n      swap3\n      sub(shl(0xa0, 0x01), 0x01)\n        /* \"MintNagaKids.sol\":1575:1591  nagaKidsContract */\n      and\n      swap2\n        /* \"MintNagaKids.sol\":1575:1603  nagaKidsContract.totalSupply */\n      0x18160ddd\n      swap2\n        /* \"MintNagaKids.sol\":1575:1605  nagaKidsContract.totalSupply() */\n      0x04\n      dup1\n      dup4\n      add\n      swap3\n      0x20\n      swap3\n      swap2\n      swap1\n      dup3\n      swap1\n      sub\n      add\n      dup2\n        /* \"MintNagaKids.sol\":1575:1591  nagaKidsContract */\n      dup7\n        /* \"MintNagaKids.sol\":1575:1605  nagaKidsContract.totalSupply() */\n      gas\n      staticcall\n      iszero\n      dup1\n      iszero\n      tag_128\n      jumpi\n      returndatasize\n      0x00\n      dup1\n      returndatacopy\n      revert(0x00, returndatasize)\n        /* \"@openzeppelin/contracts/access/AccessControl.sol\":5149:5296  function revokeRole(bytes32 role, address account) public virtual override onlyRole(getRoleAdmin(role)) {... */\n    tag_93:\n        /* \"@openzeppelin/contracts/access/AccessControl.sol\":4465:4472  bytes32 */\n      0x00\n        /* \"@openzeppelin/contracts/access/AccessControl.sol\":4491:4503  _roles[role] */\n      dup3\n      dup2\n      mstore\n      0x20\n      dup2\n      swap1\n      mstore\n      0x40\n      swap1\n      keccak256\n        /* \"@openzeppelin/contracts/access/AccessControl.sol\":4491:4513  _roles[role].adminRole */\n      0x01\n      add\n      sload\n        /* \"@openzeppelin/contracts/access/AccessControl.sol\":2505:2521  _checkRole(role) */\n      tag_176\n        /* \"@openzeppelin/contracts/access/AccessControl.sol\":2516:2520  role */\n      dup2\n        /* \"@openzeppelin/contracts/access/AccessControl.sol\":2505:2515  _checkRole */\n      tag_110\n        /* \"@openzeppelin/contracts/access/AccessControl.sol\":2505:2521  _checkRole(role) */\n      jump\t// in\n    tag_176:\n        /* \"@openzeppelin/contracts/access/AccessControl.sol\":5263:5289  _revokeRole(role, account) */\n      tag_116\n        /* \"@openzeppelin/contracts/access/AccessControl.sol\":5275:5279  role */\n      dup4\n        /* \"@openzeppelin/contracts/access/AccessControl.sol\":5281:5288  account */\n      dup4\n        /* \"@openzeppelin/contracts/access/AccessControl.sol\":5263:5274  _revokeRole */\n      tag_125\n        /* \"@openzeppelin/contracts/access/AccessControl.sol\":5263:5289  _revokeRole(role, account) */\n      jump\t// in\n        /* \"MintNagaKids.sol\":824:951  function changeWhitelistMintOpen(bool _isOpen) public onlyRole(DEFAULT_ADMIN_ROLE) {... */\n    tag_97:\n        /* \"@openzeppelin/contracts/access/AccessControl.sol\":2072:2076  0x00 */\n      0x00\n        /* \"@openzeppelin/contracts/access/AccessControl.sol\":2505:2521  _checkRole(role) */\n      tag_180\n        /* \"@openzeppelin/contracts/access/AccessControl.sol\":2072:2076  0x00 */\n      dup2\n        /* \"@openzeppelin/contracts/access/AccessControl.sol\":2505:2515  _checkRole */\n      tag_110\n        /* \"@openzeppelin/contracts/access/AccessControl.sol\":2505:2521  _checkRole(role) */\n      jump\t// in\n    tag_180:\n      pop\n        /* \"MintNagaKids.sol\":918:933  isWhitelistOpen */\n      0x02\n        /* \"MintNagaKids.sol\":918:943  isWhitelistOpen = _isOpen */\n      dup1\n      sload\n      swap2\n      iszero\n      iszero\n      shl(0xa8, 0x01)\n      mul\n      not(shl(0xa8, 0xff))\n      swap1\n      swap3\n      and\n      swap2\n      swap1\n      swap2\n      or\n      swap1\n      sstore\n        /* \"MintNagaKids.sol\":824:951  function changeWhitelistMintOpen(bool _isOpen) public onlyRole(DEFAULT_ADMIN_ROLE) {... */\n      jump\t// out\n        /* \"MintNagaKids.sol\":1737:1834  function isPause() public view returns (bool) {... */\n    tag_100:\n        /* \"MintNagaKids.sol\":1801:1817  nagaKidsContract */\n      sload(0x02)\n        /* \"MintNagaKids.sol\":1801:1826  nagaKidsContract.paused() */\n      0x40\n      dup1\n      mload\n      shl(0xe0, 0x5c975abb)\n      dup2\n      mstore\n      swap1\n      mload\n        /* \"MintNagaKids.sol\":1777:1781  bool */\n      0x00\n      swap3\n      sub(shl(0xa0, 0x01), 0x01)\n        /* \"MintNagaKids.sol\":1801:1817  nagaKidsContract */\n      and\n      swap2\n        /* \"MintNagaKids.sol\":1801:1824  nagaKidsContract.paused */\n      0x5c975abb\n      swap2\n        /* \"MintNagaKids.sol\":1801:1826  nagaKidsContract.paused() */\n      0x04\n      dup1\n      dup4\n      add\n      swap3\n      0x20\n      swap3\n      swap2\n      swap1\n      dup3\n      swap1\n      sub\n      add\n      dup2\n        /* \"MintNagaKids.sol\":1801:1817  nagaKidsContract */\n      dup7\n        /* \"MintNagaKids.sol\":1801:1826  nagaKidsContract.paused() */\n      gas\n      staticcall\n      iszero\n      dup1\n      iszero\n      tag_184\n      jumpi\n      returndatasize\n      0x00\n      dup1\n      returndatacopy\n      revert(0x00, returndatasize)\n    tag_184:\n      pop\n      pop\n      pop\n      pop\n      mload(0x40)\n      returndatasize\n      not(0x1f)\n      0x1f\n      dup3\n      add\n      and\n      dup3\n      add\n      dup1\n      0x40\n      mstore\n      pop\n      dup2\n      add\n      swap1\n      tag_129\n      swap2\n      swap1\n      tag_160\n      jump\t// in\n        /* \"@openzeppelin/contracts/utils/Strings.sol\":1588:2029  function toHexString(uint256 value, uint256 length) internal pure returns (string memory) {... */\n    tag_102:\n        /* \"@openzeppelin/contracts/utils/Strings.sol\":1663:1676  string memory */\n      0x60\n        /* \"@openzeppelin/contracts/utils/Strings.sol\":1688:1707  bytes memory buffer */\n      0x00\n        /* \"@openzeppelin/contracts/utils/Strings.sol\":1720:1730  2 * length */\n      tag_187\n        /* \"@openzeppelin/contracts/utils/Strings.sol\":1724:1730  length */\n      dup4\n        /* \"@openzeppelin/contracts/utils/Strings.sol\":1720:1721  2 */\n      0x02\n        /* \"@openzeppelin/contracts/utils/Strings.sol\":1720:1730  2 * length */\n      tag_188\n      jump\t// in\n    tag_187:\n        /* \"@openzeppelin/contracts/utils/Strings.sol\":1720:1734  2 * length + 2 */\n      tag_189\n      swap1\n        /* \"@openzeppelin/contracts/utils/Strings.sol\":1733:1734  2 */\n      0x02\n        /* \"@openzeppelin/contracts/utils/Strings.sol\":1720:1734  2 * length + 2 */\n      tag_190\n      jump\t// in\n    tag_189:\n        /* \"@openzeppelin/contracts/utils/Strings.sol\":1710:1735  new bytes(2 * length + 2) */\n      0xffffffffffffffff\n      dup2\n      gt\n      iszero\n      tag_192\n      jumpi\n      tag_192\n      tag_193\n      jump\t// in\n    tag_192:\n      mload(0x40)\n      swap1\n      dup1\n      dup3\n      mstore\n      dup1\n      0x1f\n      add\n      not(0x1f)\n      and\n      0x20\n      add\n      dup3\n      add\n      0x40\n      mstore\n      dup1\n      iszero\n      tag_194\n      jumpi\n      0x20\n      dup3\n      add\n      dup2\n      dup1\n      calldatasize\n      dup4\n      calldatacopy\n      add\n      swap1\n      pop\n    tag_194:\n      pop\n        /* \"@openzeppelin/contracts/utils/Strings.sol\":1688:1735  bytes memory buffer = new bytes(2 * length + 2) */\n      swap1\n      pop\n      shl(0xfc, 0x03)\n        /* \"@openzeppelin/contracts/utils/Strings.sol\":1745:1751  buffer */\n      dup2\n        /* \"@openzeppelin/contracts/utils/Strings.sol\":1752:1753  0 */\n      0x00\n        /* \"@openzeppelin/contracts/utils/Strings.sol\":1745:1754  buffer[0] */\n      dup2\n      mload\n      dup2\n      lt\n      tag_196\n      jumpi\n      tag_196\n      tag_197\n      jump\t// in\n    tag_196:\n      0x20\n      add\n      add\n        /* \"@openzeppelin/contracts/utils/Strings.sol\":1745:1760  buffer[0] = \"0\" */\n      swap1\n      not(sub(shl(0xf8, 0x01), 0x01))\n      and\n      swap1\n      dup2\n      0x00\n      byte\n      swap1\n      mstore8\n      pop\n      shl(0xfb, 0x0f)\n        /* \"@openzeppelin/contracts/utils/Strings.sol\":1770:1776  buffer */\n      dup2\n        /* \"@openzeppelin/contracts/utils/Strings.sol\":1777:1778  1 */\n      0x01\n        /* \"@openzeppelin/contracts/utils/Strings.sol\":1770:1779  buffer[1] */\n      dup2\n      mload\n      dup2\n      lt\n      tag_199\n      jumpi\n      tag_199\n      tag_197\n      jump\t// in\n    tag_199:\n      0x20\n      add\n      add\n        /* \"@openzeppelin/contracts/utils/Strings.sol\":1770:1785  buffer[1] = \"x\" */\n      swap1\n      not(sub(shl(0xf8, 0x01), 0x01))\n      and\n      swap1\n      dup2\n      0x00\n      byte\n      swap1\n      mstore8\n      pop\n        /* \"@openzeppelin/contracts/utils/Strings.sol\":1800:1809  uint256 i */\n      0x00\n        /* \"@openzeppelin/contracts/utils/Strings.sol\":1812:1822  2 * length */\n      tag_203\n        /* \"@openzeppelin/contracts/utils/Strings.sol\":1816:1822  length */\n      dup5\n        /* \"@openzeppelin/contracts/utils/Strings.sol\":1812:1813  2 */\n      0x02\n        /* \"@openzeppelin/contracts/utils/Strings.sol\":1812:1822  2 * length */\n      tag_188\n      jump\t// in\n    tag_203:\n        /* \"@openzeppelin/contracts/utils/Strings.sol\":1812:1826  2 * length + 1 */\n      tag_204\n      swap1\n        /* \"@openzeppelin/contracts/utils/Strings.sol\":1825:1826  1 */\n      0x01\n        /* \"@openzeppelin/contracts/utils/Strings.sol\":1812:1826  2 * length + 1 */\n      tag_190\n      jump\t// in\n    tag_204:\n        /* \"@openzeppelin/contracts/utils/Strings.sol\":1800:1826  uint256 i = 2 * length + 1 */\n      swap1\n      pop\n        /* \"@openzeppelin/contracts/utils/Strings.sol\":1795:1927  for (uint256 i = 2 * length + 1; i > 1; --i) {... */\n    tag_200:\n        /* \"@openzeppelin/contracts/utils/Strings.sol\":1832:1833  1 */\n      0x01\n        /* \"@openzeppelin/contracts/utils/Strings.sol\":1828:1829  i */\n      dup2\n        /* \"@openzeppelin/contracts/utils/Strings.sol\":1828:1833  i > 1 */\n      gt\n        /* \"@openzeppelin/contracts/utils/Strings.sol\":1795:1927  for (uint256 i = 2 * length + 1; i > 1; --i) {... */\n      iszero\n      tag_201\n      jumpi\n      shl(0x81, 0x181899199a1a9b1b9c1cb0b131b232b3)\n        /* \"@openzeppelin/contracts/utils/Strings.sol\":1879:1884  value */\n      dup6\n        /* \"@openzeppelin/contracts/utils/Strings.sol\":1887:1890  0xf */\n      0x0f\n        /* \"@openzeppelin/contracts/utils/Strings.sol\":1879:1890  value & 0xf */\n      and\n        /* \"@openzeppelin/contracts/utils/Strings.sol\":1866:1891  _HEX_SYMBOLS[value & 0xf] */\n      0x10\n      dup2\n      lt\n      tag_206\n      jumpi\n      tag_206\n      tag_197\n      jump\t// in\n    tag_206:\n      byte\n      0xf8\n      shl\n        /* \"@openzeppelin/contracts/utils/Strings.sol\":1854:1860  buffer */\n      dup3\n        /* \"@openzeppelin/contracts/utils/Strings.sol\":1861:1862  i */\n      dup3\n        /* \"@openzeppelin/contracts/utils/Strings.sol\":1854:1863  buffer[i] */\n      dup2\n      mload\n      dup2\n      lt\n      tag_208\n      jumpi\n      tag_208\n      tag_197\n      jump\t// in\n    tag_208:\n      0x20\n      add\n      add\n        /* \"@openzeppelin/contracts/utils/Strings.sol\":1854:1891  buffer[i] = _HEX_SYMBOLS[value & 0xf] */\n      swap1\n      not(sub(shl(0xf8, 0x01), 0x01))\n      and\n      swap1\n      dup2\n      0x00\n      byte\n      swap1\n      mstore8\n      pop\n        /* \"@openzeppelin/contracts/utils/Strings.sol\":1915:1916  4 */\n      0x04\n        /* \"@openzeppelin/contracts/utils/Strings.sol\":1905:1916  value >>= 4 */\n      swap5\n      swap1\n      swap5\n      shr\n      swap4\n        /* \"@openzeppelin/contracts/utils/Strings.sol\":1835:1838  --i */\n      tag_209\n      dup2\n      tag_210\n      jump\t// in\n    tag_209:\n      swap1\n      pop\n        /* \"@openzeppelin/contracts/utils/Strings.sol\":1795:1927  for (uint256 i = 2 * length + 1; i > 1; --i) {... */\n      jump(tag_200)\n    tag_201:\n      pop\n        /* \"@openzeppelin/contracts/utils/Strings.sol\":1944:1954  value == 0 */\n      dup4\n      iszero\n        /* \"@openzeppelin/contracts/utils/Strings.sol\":1936:1991  require(value == 0, \"Strings: hex length insufficient\") */\n      tag_211\n      jumpi\n      mload(0x40)\n      shl(0xe5, 0x461bcd)\n      dup2\n      mstore\n        /* \"#utility.yul\":6948:6950   */\n      0x20\n        /* \"@openzeppelin/contracts/utils/Strings.sol\":1936:1991  require(value == 0, \"Strings: hex length insufficient\") */\n      0x04\n      dup3\n      add\n        /* \"#utility.yul\":6930:6951   */\n      dup2\n      swap1\n      mstore\n        /* \"#utility.yul\":6967:6985   */\n      0x24\n      dup3\n      add\n        /* \"#utility.yul\":6960:6990   */\n      mstore\n        /* \"#utility.yul\":7026:7060   */\n      0x537472696e67733a20686578206c656e67746820696e73756666696369656e74\n        /* \"#utility.yul\":7006:7024   */\n      0x44\n      dup3\n      add\n        /* \"#utility.yul\":6999:7061   */\n      mstore\n        /* \"#utility.yul\":7078:7096   */\n      0x64\n      add\n        /* \"@openzeppelin/contracts/utils/Strings.sol\":1936:1991  require(value == 0, \"Strings: hex length insufficient\") */\n      tag_122\n        /* \"#utility.yul\":6746:7102   */\n      jump\n        /* \"@openzeppelin/contracts/utils/Strings.sol\":1936:1991  require(value == 0, \"Strings: hex length insufficient\") */\n    tag_211:\n        /* \"@openzeppelin/contracts/utils/Strings.sol\":2015:2021  buffer */\n      swap4\n        /* \"@openzeppelin/contracts/utils/Strings.sol\":1588:2029  function toHexString(uint256 value, uint256 length) internal pure returns (string memory) {... */\n      swap3\n      pop\n      pop\n      pop\n      jump\t// out\n        /* \"@openzeppelin/contracts/access/AccessControl.sol\":3334:3437  function _checkRole(bytes32 role) internal view virtual {... */\n    tag_110:\n        /* \"@openzeppelin/contracts/access/AccessControl.sol\":3400:3430  _checkRole(role, _msgSender()) */\n      tag_216\n        /* \"@openzeppelin/contracts/access/AccessControl.sol\":3411:3415  role */\n      dup2\n        /* \"@openzeppelin/contracts/utils/Context.sol\":719:729  msg.sender */\n      caller\n        /* \"@openzeppelin/contracts/access/AccessControl.sol\":3400:3410  _checkRole */\n      tag_218\n        /* \"@openzeppelin/contracts/access/AccessControl.sol\":3400:3430  _checkRole(role, _msgSender()) */\n      jump\t// in\n    tag_216:\n        /* \"@openzeppelin/contracts/access/AccessControl.sol\":3334:3437  function _checkRole(bytes32 role) internal view virtual {... */\n      pop\n      jump\t// out\n        /* \"@openzeppelin/contracts/access/AccessControl.sol\":7244:7477  function _grantRole(bytes32 role, address account) internal virtual {... */\n    tag_117:\n        /* \"@openzeppelin/contracts/access/AccessControl.sol\":7327:7349  hasRole(role, account) */\n      tag_220\n        /* \"@openzeppelin/contracts/access/AccessControl.sol\":7335:7339  role */\n      dup3\n        /* \"@openzeppelin/contracts/access/AccessControl.sol\":7341:7348  account */\n      dup3\n        /* \"@openzeppelin/contracts/access/AccessControl.sol\":7327:7334  hasRole */\n      tag_72\n        /* \"@openzeppelin/contracts/access/AccessControl.sol\":7327:7349  hasRole(role, account) */\n      jump\t// in\n    tag_220:\n        /* \"@openzeppelin/contracts/access/AccessControl.sol\":7322:7471  if (!hasRole(role, account)) {... */\n      tag_124\n      jumpi\n        /* \"@openzeppelin/contracts/access/AccessControl.sol\":7365:7371  _roles */\n      0x00\n        /* \"@openzeppelin/contracts/access/AccessControl.sol\":7365:7377  _roles[role] */\n      dup3\n      dup2\n      mstore\n      0x20\n      dup2\n      dup2\n      mstore\n      0x40\n      dup1\n      dup4\n      keccak256\n      sub(shl(0xa0, 0x01), 0x01)\n        /* \"@openzeppelin/contracts/access/AccessControl.sol\":7365:7394  _roles[role].members[account] */\n      dup6\n      and\n      dup5\n      mstore\n      swap1\n      swap2\n      mstore\n      swap1\n      keccak256\n        /* \"@openzeppelin/contracts/access/AccessControl.sol\":7365:7401  _roles[role].members[account] = true */\n      dup1\n      sload\n      not(0xff)\n      and\n        /* \"@openzeppelin/contracts/access/AccessControl.sol\":7397:7401  true */\n      0x01\n        /* \"@openzeppelin/contracts/access/AccessControl.sol\":7365:7401  _roles[role].members[account] = true */\n      or\n      swap1\n      sstore\n        /* \"@openzeppelin/contracts/access/AccessControl.sol\":7447:7459  _msgSender() */\n      tag_222\n        /* \"@openzeppelin/contracts/utils/Context.sol\":719:729  msg.sender */\n      caller\n      swap1\n        /* \"@openzeppelin/contracts/utils/Context.sol\":640:736  function _msgSender() internal view virtual returns (address) {... */\n      jump\n        /* \"@openzeppelin/contracts/access/AccessControl.sol\":7447:7459  _msgSender() */\n    tag_222:\n      sub(shl(0xa0, 0x01), 0x01)\n        /* \"@openzeppelin/contracts/access/AccessControl.sol\":7420:7460  RoleGranted(role, account, _msgSender()) */\n      and\n        /* \"@openzeppelin/contracts/access/AccessControl.sol\":7438:7445  account */\n      dup2\n      sub(shl(0xa0, 0x01), 0x01)\n        /* \"@openzeppelin/contracts/access/AccessControl.sol\":7420:7460  RoleGranted(role, account, _msgSender()) */\n      and\n        /* \"@openzeppelin/contracts/access/AccessControl.sol\":7432:7436  role */\n      dup4\n        /* \"@openzeppelin/contracts/access/AccessControl.sol\":7420:7460  RoleGranted(role, account, _msgSender()) */\n      0x2f8788117e7eff1d82e926ec794901d17c78024a50270940304540a733656f0d\n      mload(0x40)\n      mload(0x40)\n      dup1\n      swap2\n      sub\n      swap1\n      log4\n        /* \"@openzeppelin/contracts/access/AccessControl.sol\":7244:7477  function _grantRole(bytes32 role, address account) internal virtual {... */\n      pop\n      pop\n      jump\t// out\n        /* \"@openzeppelin/contracts/access/AccessControl.sol\":7602:7836  function _revokeRole(bytes32 role, address account) internal virtual {... */\n    tag_125:\n        /* \"@openzeppelin/contracts/access/AccessControl.sol\":7685:7707  hasRole(role, account) */\n      tag_225\n        /* \"@openzeppelin/contracts/access/AccessControl.sol\":7693:7697  role */\n      dup3\n        /* \"@openzeppelin/contracts/access/AccessControl.sol\":7699:7706  account */\n      dup3\n        /* \"@openzeppelin/contracts/access/AccessControl.sol\":7685:7692  hasRole */\n      tag_72\n        /* \"@openzeppelin/contracts/access/AccessControl.sol\":7685:7707  hasRole(role, account) */\n      jump\t// in\n    tag_225:\n        /* \"@openzeppelin/contracts/access/AccessControl.sol\":7681:7830  if (hasRole(role, account)) {... */\n      iszero\n      tag_124\n      jumpi\n        /* \"@openzeppelin/contracts/access/AccessControl.sol\":7755:7760  false */\n      0x00\n        /* \"@openzeppelin/contracts/access/AccessControl.sol\":7723:7735  _roles[role] */\n      dup3\n      dup2\n      mstore\n      0x20\n      dup2\n      dup2\n      mstore\n      0x40\n      dup1\n      dup4\n      keccak256\n      sub(shl(0xa0, 0x01), 0x01)\n        /* \"@openzeppelin/contracts/access/AccessControl.sol\":7723:7752  _roles[role].members[account] */\n      dup6\n      and\n      dup1\n      dup6\n      mstore\n      swap3\n      mstore\n      dup1\n      dup4\n      keccak256\n        /* \"@openzeppelin/contracts/access/AccessControl.sol\":7723:7760  _roles[role].members[account] = false */\n      dup1\n      sload\n      not(0xff)\n      and\n      swap1\n      sstore\n        /* \"@openzeppelin/contracts/access/AccessControl.sol\":7779:7819  RoleRevoked(role, account, _msgSender()) */\n      mload\n        /* \"@openzeppelin/contracts/utils/Context.sol\":719:729  msg.sender */\n      caller\n      swap3\n        /* \"@openzeppelin/contracts/access/AccessControl.sol\":7723:7735  _roles[role] */\n      dup6\n      swap2\n        /* \"@openzeppelin/contracts/access/AccessControl.sol\":7779:7819  RoleRevoked(role, account, _msgSender()) */\n      0xf6391f5c32d9c69d2a47ea670b442974b53935d1edc7fd64eb21e047a839171b\n      swap2\n        /* \"@openzeppelin/contracts/access/AccessControl.sol\":7755:7760  false */\n      swap1\n        /* \"@openzeppelin/contracts/access/AccessControl.sol\":7779:7819  RoleRevoked(role, account, _msgSender()) */\n      log4\n        /* \"@openzeppelin/contracts/access/AccessControl.sol\":7602:7836  function _revokeRole(bytes32 role, address account) internal virtual {... */\n      pop\n      pop\n      jump\t// out\n        /* \"@openzeppelin/contracts/access/AccessControl.sol\":3718:4210  function _checkRole(bytes32 role, address account) internal view virtual {... */\n    tag_218:\n        /* \"@openzeppelin/contracts/access/AccessControl.sol\":3806:3828  hasRole(role, account) */\n      tag_229\n        /* \"@openzeppelin/contracts/access/AccessControl.sol\":3814:3818  role */\n      dup3\n        /* \"@openzeppelin/contracts/access/AccessControl.sol\":3820:3827  account */\n      dup3\n        /* \"@openzeppelin/contracts/access/AccessControl.sol\":3806:3813  hasRole */\n      tag_72\n        /* \"@openzeppelin/contracts/access/AccessControl.sol\":3806:3828  hasRole(role, account) */\n      jump\t// in\n    tag_229:\n        /* \"@openzeppelin/contracts/access/AccessControl.sol\":3801:4204  if (!hasRole(role, account)) {... */\n      tag_124\n      jumpi\n        /* \"@openzeppelin/contracts/access/AccessControl.sol\":3989:4030  Strings.toHexString(uint160(account), 20) */\n      tag_231\n        /* \"@openzeppelin/contracts/access/AccessControl.sol\":4017:4024  account */\n      dup2\n      sub(shl(0xa0, 0x01), 0x01)\n        /* \"@openzeppelin/contracts/access/AccessControl.sol\":3989:4030  Strings.toHexString(uint160(account), 20) */\n      and\n        /* \"@openzeppelin/contracts/access/AccessControl.sol\":4027:4029  20 */\n      0x14\n        /* \"@openzeppelin/contracts/access/AccessControl.sol\":3989:4008  Strings.toHexString */\n      tag_102\n        /* \"@openzeppelin/contracts/access/AccessControl.sol\":3989:4030  Strings.toHexString(uint160(account), 20) */\n      jump\t// in\n    tag_231:\n        /* \"@openzeppelin/contracts/access/AccessControl.sol\":4101:4139  Strings.toHexString(uint256(role), 32) */\n      tag_232\n        /* \"@openzeppelin/contracts/access/AccessControl.sol\":4129:4133  role */\n      dup4\n        /* \"@openzeppelin/contracts/access/AccessControl.sol\":4136:4138  32 */\n      0x20\n        /* \"@openzeppelin/contracts/access/AccessControl.sol\":4101:4120  Strings.toHexString */\n      tag_102\n        /* \"@openzeppelin/contracts/access/AccessControl.sol\":4101:4139  Strings.toHexString(uint256(role), 32) */\n      jump\t// in\n    tag_232:\n        /* \"@openzeppelin/contracts/access/AccessControl.sol\":3896:4161  abi.encodePacked(... */\n      add(0x20, mload(0x40))\n      tag_233\n      swap3\n      swap2\n      swap1\n      tag_234\n      jump\t// in\n    tag_233:\n      0x40\n      dup1\n      mload\n      not(0x1f)\n      dup2\n      dup5\n      sub\n      add\n      dup2\n      mstore\n      swap1\n      dup3\n      swap1\n      mstore\n      shl(0xe5, 0x461bcd)\n        /* \"@openzeppelin/contracts/access/AccessControl.sol\":3844:4193  revert(... */\n      dup3\n      mstore\n      tag_122\n      swap2\n      0x04\n      add\n      tag_236\n      jump\t// in\n        /* \"#utility.yul\":14:300   */\n    tag_25:\n        /* \"#utility.yul\":72:78   */\n      0x00\n        /* \"#utility.yul\":125:127   */\n      0x20\n        /* \"#utility.yul\":113:122   */\n      dup3\n        /* \"#utility.yul\":104:111   */\n      dup5\n        /* \"#utility.yul\":100:123   */\n      sub\n        /* \"#utility.yul\":96:128   */\n      slt\n        /* \"#utility.yul\":93:145   */\n      iszero\n      tag_243\n      jumpi\n        /* \"#utility.yul\":141:142   */\n      0x00\n        /* \"#utility.yul\":138:139   */\n      dup1\n        /* \"#utility.yul\":131:143   */\n      revert\n        /* \"#utility.yul\":93:145   */\n    tag_243:\n        /* \"#utility.yul\":167:190   */\n      dup2\n      calldataload\n      not(sub(shl(0xe0, 0x01), 0x01))\n        /* \"#utility.yul\":219:251   */\n      dup2\n      and\n        /* \"#utility.yul\":209:252   */\n      dup2\n      eq\n        /* \"#utility.yul\":199:270   */\n      tag_211\n      jumpi\n        /* \"#utility.yul\":266:267   */\n      0x00\n        /* \"#utility.yul\":263:264   */\n      dup1\n        /* \"#utility.yul\":256:268   */\n      revert\n        /* \"#utility.yul\":497:677   */\n    tag_32:\n        /* \"#utility.yul\":556:562   */\n      0x00\n        /* \"#utility.yul\":609:611   */\n      0x20\n        /* \"#utility.yul\":597:606   */\n      dup3\n        /* \"#utility.yul\":588:595   */\n      dup5\n        /* \"#utility.yul\":584:607   */\n      sub\n        /* \"#utility.yul\":580:612   */\n      slt\n        /* \"#utility.yul\":577:629   */\n      iszero\n      tag_247\n      jumpi\n        /* \"#utility.yul\":625:626   */\n      0x00\n        /* \"#utility.yul\":622:623   */\n      dup1\n        /* \"#utility.yul\":615:627   */\n      revert\n        /* \"#utility.yul\":577:629   */\n    tag_247:\n      pop\n        /* \"#utility.yul\":648:671   */\n      calldataload\n      swap2\n        /* \"#utility.yul\":497:677   */\n      swap1\n      pop\n      jump\t// out\n        /* \"#utility.yul\":1092:1210   */\n    tag_237:\n        /* \"#utility.yul\":1178:1183   */\n      dup1\n        /* \"#utility.yul\":1171:1184   */\n      iszero\n        /* \"#utility.yul\":1164:1185   */\n      iszero\n        /* \"#utility.yul\":1157:1162   */\n      dup2\n        /* \"#utility.yul\":1154:1186   */\n      eq\n        /* \"#utility.yul\":1144:1204   */\n      tag_216\n      jumpi\n        /* \"#utility.yul\":1200:1201   */\n      0x00\n        /* \"#utility.yul\":1197:1198   */\n      dup1\n        /* \"#utility.yul\":1190:1202   */\n      revert\n        /* \"#utility.yul\":1215:1456   */\n    tag_44:\n        /* \"#utility.yul\":1271:1277   */\n      0x00\n        /* \"#utility.yul\":1324:1326   */\n      0x20\n        /* \"#utility.yul\":1312:1321   */\n      dup3\n        /* \"#utility.yul\":1303:1310   */\n      dup5\n        /* \"#utility.yul\":1299:1322   */\n      sub\n        /* \"#utility.yul\":1295:1327   */\n      slt\n        /* \"#utility.yul\":1292:1344   */\n      iszero\n      tag_253\n      jumpi\n        /* \"#utility.yul\":1340:1341   */\n      0x00\n        /* \"#utility.yul\":1337:1338   */\n      dup1\n        /* \"#utility.yul\":1330:1342   */\n      revert\n        /* \"#utility.yul\":1292:1344   */\n    tag_253:\n        /* \"#utility.yul\":1379:1388   */\n      dup2\n        /* \"#utility.yul\":1366:1389   */\n      calldataload\n        /* \"#utility.yul\":1398:1426   */\n      tag_211\n        /* \"#utility.yul\":1420:1425   */\n      dup2\n        /* \"#utility.yul\":1398:1426   */\n      tag_237\n      jump\t// in\n        /* \"#utility.yul\":1461:1592   */\n    tag_238:\n      sub(shl(0xa0, 0x01), 0x01)\n        /* \"#utility.yul\":1536:1567   */\n      dup2\n      and\n        /* \"#utility.yul\":1526:1568   */\n      dup2\n      eq\n        /* \"#utility.yul\":1516:1586   */\n      tag_216\n      jumpi\n        /* \"#utility.yul\":1582:1583   */\n      0x00\n        /* \"#utility.yul\":1579:1580   */\n      dup1\n        /* \"#utility.yul\":1572:1584   */\n      revert\n        /* \"#utility.yul\":1597:1912   */\n    tag_49:\n        /* \"#utility.yul\":1665:1671   */\n      0x00\n        /* \"#utility.yul\":1673:1679   */\n      dup1\n        /* \"#utility.yul\":1726:1728   */\n      0x40\n        /* \"#utility.yul\":1714:1723   */\n      dup4\n        /* \"#utility.yul\":1705:1712   */\n      dup6\n        /* \"#utility.yul\":1701:1724   */\n      sub\n        /* \"#utility.yul\":1697:1729   */\n      slt\n        /* \"#utility.yul\":1694:1746   */\n      iszero\n      tag_258\n      jumpi\n        /* \"#utility.yul\":1742:1743   */\n      0x00\n        /* \"#utility.yul\":1739:1740   */\n      dup1\n        /* \"#utility.yul\":1732:1744   */\n      revert\n        /* \"#utility.yul\":1694:1746   */\n    tag_258:\n        /* \"#utility.yul\":1778:1787   */\n      dup3\n        /* \"#utility.yul\":1765:1788   */\n      calldataload\n        /* \"#utility.yul\":1755:1788   */\n      swap2\n      pop\n        /* \"#utility.yul\":1838:1840   */\n      0x20\n        /* \"#utility.yul\":1827:1836   */\n      dup4\n        /* \"#utility.yul\":1823:1841   */\n      add\n        /* \"#utility.yul\":1810:1842   */\n      calldataload\n        /* \"#utility.yul\":1851:1882   */\n      tag_259\n        /* \"#utility.yul\":1876:1881   */\n      dup2\n        /* \"#utility.yul\":1851:1882   */\n      tag_238\n      jump\t// in\n    tag_259:\n        /* \"#utility.yul\":1901:1906   */\n      dup1\n        /* \"#utility.yul\":1891:1906   */\n      swap2\n      pop\n      pop\n        /* \"#utility.yul\":1597:1912   */\n      swap3\n      pop\n      swap3\n      swap1\n      pop\n      jump\t// out\n        /* \"#utility.yul\":2099:2366   */\n    tag_63:\n        /* \"#utility.yul\":2178:2184   */\n      0x00\n        /* \"#utility.yul\":2231:2233   */\n      0x20\n        /* \"#utility.yul\":2219:2228   */\n      dup3\n        /* \"#utility.yul\":2210:2217   */\n      dup5\n        /* \"#utility.yul\":2206:2229   */\n      sub\n        /* \"#utility.yul\":2202:2234   */\n      slt\n        /* \"#utility.yul\":2199:2251   */\n      iszero\n      tag_262\n      jumpi\n        /* \"#utility.yul\":2247:2248   */\n      0x00\n        /* \"#utility.yul\":2244:2245   */\n      dup1\n        /* \"#utility.yul\":2237:2249   */\n      revert\n        /* \"#utility.yul\":2199:2251   */\n    tag_262:\n        /* \"#utility.yul\":2286:2295   */\n      dup2\n        /* \"#utility.yul\":2273:2296   */\n      calldataload\n        /* \"#utility.yul\":2305:2336   */\n      tag_211\n        /* \"#utility.yul\":2330:2335   */\n      dup2\n        /* \"#utility.yul\":2305:2336   */\n      tag_238\n      jump\t// in\n        /* \"#utility.yul\":2972:3156   */\n    tag_130:\n        /* \"#utility.yul\":3042:3048   */\n      0x00\n        /* \"#utility.yul\":3095:3097   */\n      0x20\n        /* \"#utility.yul\":3083:3092   */\n      dup3\n        /* \"#utility.yul\":3074:3081   */\n      dup5\n        /* \"#utility.yul\":3070:3093   */\n      sub\n        /* \"#utility.yul\":3066:3098   */\n      slt\n        /* \"#utility.yul\":3063:3115   */\n      iszero\n      tag_268\n      jumpi\n        /* \"#utility.yul\":3111:3112   */\n      0x00\n        /* \"#utility.yul\":3108:3109   */\n      dup1\n        /* \"#utility.yul\":3101:3113   */\n      revert\n        /* \"#utility.yul\":3063:3115   */\n    tag_268:\n      pop\n        /* \"#utility.yul\":3134:3150   */\n      mload\n      swap2\n        /* \"#utility.yul\":2972:3156   */\n      swap1\n      pop\n      jump\t// out\n        /* \"#utility.yul\":5034:5279   */\n    tag_160:\n        /* \"#utility.yul\":5101:5107   */\n      0x00\n        /* \"#utility.yul\":5154:5156   */\n      0x20\n        /* \"#utility.yul\":5142:5151   */\n      dup3\n        /* \"#utility.yul\":5133:5140   */\n      dup5\n        /* \"#utility.yul\":5129:5152   */\n      sub\n        /* \"#utility.yul\":5125:5157   */\n      slt\n        /* \"#utility.yul\":5122:5174   */\n      iszero\n      tag_277\n      jumpi\n        /* \"#utility.yul\":5170:5171   */\n      0x00\n        /* \"#utility.yul\":5167:5168   */\n      dup1\n        /* \"#utility.yul\":5160:5172   */\n      revert\n        /* \"#utility.yul\":5122:5174   */\n    tag_277:\n        /* \"#utility.yul\":5202:5211   */\n      dup2\n        /* \"#utility.yul\":5196:5212   */\n      mload\n        /* \"#utility.yul\":5221:5249   */\n      tag_211\n        /* \"#utility.yul\":5243:5248   */\n      dup2\n        /* \"#utility.yul\":5221:5249   */\n      tag_237\n      jump\t// in\n        /* \"#utility.yul\":5903:6030   */\n    tag_239:\n        /* \"#utility.yul\":5964:5974   */\n      0x4e487b71\n        /* \"#utility.yul\":5959:5962   */\n      0xe0\n        /* \"#utility.yul\":5955:5975   */\n      shl\n        /* \"#utility.yul\":5952:5953   */\n      0x00\n        /* \"#utility.yul\":5945:5976   */\n      mstore\n        /* \"#utility.yul\":5995:5999   */\n      0x11\n        /* \"#utility.yul\":5992:5993   */\n      0x04\n        /* \"#utility.yul\":5985:6000   */\n      mstore\n        /* \"#utility.yul\":6019:6023   */\n      0x24\n        /* \"#utility.yul\":6016:6017   */\n      0x00\n        /* \"#utility.yul\":6009:6024   */\n      revert\n        /* \"#utility.yul\":6035:6203   */\n    tag_188:\n        /* \"#utility.yul\":6075:6082   */\n      0x00\n        /* \"#utility.yul\":6141:6142   */\n      dup2\n        /* \"#utility.yul\":6137:6138   */\n      0x00\n        /* \"#utility.yul\":6133:6139   */\n      not\n        /* \"#utility.yul\":6129:6143   */\n      div\n        /* \"#utility.yul\":6126:6127   */\n      dup4\n        /* \"#utility.yul\":6123:6144   */\n      gt\n        /* \"#utility.yul\":6118:6119   */\n      dup3\n        /* \"#utility.yul\":6111:6120   */\n      iszero\n        /* \"#utility.yul\":6104:6121   */\n      iszero\n        /* \"#utility.yul\":6100:6145   */\n      and\n        /* \"#utility.yul\":6097:6168   */\n      iszero\n      tag_284\n      jumpi\n        /* \"#utility.yul\":6148:6166   */\n      tag_284\n      tag_239\n      jump\t// in\n    tag_284:\n      pop\n        /* \"#utility.yul\":6188:6197   */\n      mul\n      swap1\n        /* \"#utility.yul\":6035:6203   */\n      jump\t// out\n        /* \"#utility.yul\":6208:6336   */\n    tag_190:\n        /* \"#utility.yul\":6248:6251   */\n      0x00\n        /* \"#utility.yul\":6279:6280   */\n      dup3\n        /* \"#utility.yul\":6275:6281   */\n      not\n        /* \"#utility.yul\":6272:6273   */\n      dup3\n        /* \"#utility.yul\":6269:6282   */\n      gt\n        /* \"#utility.yul\":6266:6305   */\n      iszero\n      tag_287\n      jumpi\n        /* \"#utility.yul\":6285:6303   */\n      tag_287\n      tag_239\n      jump\t// in\n    tag_287:\n      pop\n        /* \"#utility.yul\":6321:6330   */\n      add\n      swap1\n        /* \"#utility.yul\":6208:6336   */\n      jump\t// out\n        /* \"#utility.yul\":6341:6468   */\n    tag_193:\n        /* \"#utility.yul\":6402:6412   */\n      0x4e487b71\n        /* \"#utility.yul\":6397:6400   */\n      0xe0\n        /* \"#utility.yul\":6393:6413   */\n      shl\n        /* \"#utility.yul\":6390:6391   */\n      0x00\n        /* \"#utility.yul\":6383:6414   */\n      mstore\n        /* \"#utility.yul\":6433:6437   */\n      0x41\n        /* \"#utility.yul\":6430:6431   */\n      0x04\n        /* \"#utility.yul\":6423:6438   */\n      mstore\n        /* \"#utility.yul\":6457:6461   */\n      0x24\n        /* \"#utility.yul\":6454:6455   */\n      0x00\n        /* \"#utility.yul\":6447:6462   */\n      revert\n        /* \"#utility.yul\":6473:6600   */\n    tag_197:\n        /* \"#utility.yul\":6534:6544   */\n      0x4e487b71\n        /* \"#utility.yul\":6529:6532   */\n      0xe0\n        /* \"#utility.yul\":6525:6545   */\n      shl\n        /* \"#utility.yul\":6522:6523   */\n      0x00\n        /* \"#utility.yul\":6515:6546   */\n      mstore\n        /* \"#utility.yul\":6565:6569   */\n      0x32\n        /* \"#utility.yul\":6562:6563   */\n      0x04\n        /* \"#utility.yul\":6555:6570   */\n      mstore\n        /* \"#utility.yul\":6589:6593   */\n      0x24\n        /* \"#utility.yul\":6586:6587   */\n      0x00\n        /* \"#utility.yul\":6579:6594   */\n      revert\n        /* \"#utility.yul\":6605:6741   */\n    tag_210:\n        /* \"#utility.yul\":6644:6647   */\n      0x00\n        /* \"#utility.yul\":6672:6677   */\n      dup2\n        /* \"#utility.yul\":6662:6701   */\n      tag_292\n      jumpi\n        /* \"#utility.yul\":6681:6699   */\n      tag_292\n      tag_239\n      jump\t// in\n    tag_292:\n      pop\n      not(0x00)\n        /* \"#utility.yul\":6717:6735   */\n      add\n      swap1\n        /* \"#utility.yul\":6605:6741   */\n      jump\t// out\n        /* \"#utility.yul\":7107:7365   */\n    tag_240:\n        /* \"#utility.yul\":7179:7180   */\n      0x00\n        /* \"#utility.yul\":7189:7302   */\n    tag_295:\n        /* \"#utility.yul\":7203:7209   */\n      dup4\n        /* \"#utility.yul\":7200:7201   */\n      dup2\n        /* \"#utility.yul\":7197:7210   */\n      lt\n        /* \"#utility.yul\":7189:7302   */\n      iszero\n      tag_297\n      jumpi\n        /* \"#utility.yul\":7279:7290   */\n      dup2\n      dup2\n      add\n        /* \"#utility.yul\":7273:7291   */\n      mload\n        /* \"#utility.yul\":7260:7271   */\n      dup4\n      dup3\n      add\n        /* \"#utility.yul\":7253:7292   */\n      mstore\n        /* \"#utility.yul\":7225:7227   */\n      0x20\n        /* \"#utility.yul\":7218:7228   */\n      add\n        /* \"#utility.yul\":7189:7302   */\n      jump(tag_295)\n    tag_297:\n        /* \"#utility.yul\":7320:7326   */\n      dup4\n        /* \"#utility.yul\":7317:7318   */\n      dup2\n        /* \"#utility.yul\":7314:7327   */\n      gt\n        /* \"#utility.yul\":7311:7359   */\n      iszero\n      tag_298\n      jumpi\n        /* \"#utility.yul\":7355:7356   */\n      0x00\n        /* \"#utility.yul\":7346:7352   */\n      dup5\n        /* \"#utility.yul\":7341:7344   */\n      dup5\n        /* \"#utility.yul\":7337:7353   */\n      add\n        /* \"#utility.yul\":7330:7357   */\n      mstore\n        /* \"#utility.yul\":7311:7359   */\n    tag_298:\n      pop\n        /* \"#utility.yul\":7107:7365   */\n      pop\n      pop\n      pop\n      jump\t// out\n        /* \"#utility.yul\":7370:8156   */\n    tag_234:\n        /* \"#utility.yul\":7781:7806   */\n      0x416363657373436f6e74726f6c3a206163636f756e7420000000000000000000\n        /* \"#utility.yul\":7776:7779   */\n      dup2\n        /* \"#utility.yul\":7769:7807   */\n      mstore\n        /* \"#utility.yul\":7751:7754   */\n      0x00\n        /* \"#utility.yul\":7836:7842   */\n      dup4\n        /* \"#utility.yul\":7830:7843   */\n      mload\n        /* \"#utility.yul\":7852:7914   */\n      tag_300\n        /* \"#utility.yul\":7907:7913   */\n      dup2\n        /* \"#utility.yul\":7902:7904   */\n      0x17\n        /* \"#utility.yul\":7897:7900   */\n      dup6\n        /* \"#utility.yul\":7893:7905   */\n      add\n        /* \"#utility.yul\":7886:7890   */\n      0x20\n        /* \"#utility.yul\":7878:7884   */\n      dup9\n        /* \"#utility.yul\":7874:7891   */\n      add\n        /* \"#utility.yul\":7852:7914   */\n      tag_240\n      jump\t// in\n    tag_300:\n      shl(0x7d, 0x01034b99036b4b9b9b4b733903937b6329)\n        /* \"#utility.yul\":7973:7975   */\n      0x17\n        /* \"#utility.yul\":7933:7949   */\n      swap2\n      dup5\n      add\n        /* \"#utility.yul\":7965:7976   */\n      swap2\n      dup3\n      add\n        /* \"#utility.yul\":7958:7998   */\n      mstore\n        /* \"#utility.yul\":8023:8036   */\n      dup4\n      mload\n        /* \"#utility.yul\":8045:8108   */\n      tag_301\n        /* \"#utility.yul\":8023:8036   */\n      dup2\n        /* \"#utility.yul\":8094:8096   */\n      0x28\n        /* \"#utility.yul\":8086:8097   */\n      dup5\n      add\n        /* \"#utility.yul\":8079:8083   */\n      0x20\n        /* \"#utility.yul\":8067:8084   */\n      dup9\n      add\n        /* \"#utility.yul\":8045:8108   */\n      tag_240\n      jump\t// in\n    tag_301:\n        /* \"#utility.yul\":8128:8145   */\n      add\n        /* \"#utility.yul\":8147:8149   */\n      0x28\n        /* \"#utility.yul\":8124:8150   */\n      add\n      swap5\n        /* \"#utility.yul\":7370:8156   */\n      swap4\n      pop\n      pop\n      pop\n      pop\n      jump\t// out\n        /* \"#utility.yul\":8161:8544   */\n    tag_236:\n        /* \"#utility.yul\":8310:8312   */\n      0x20\n        /* \"#utility.yul\":8299:8308   */\n      dup2\n        /* \"#utility.yul\":8292:8313   */\n      mstore\n        /* \"#utility.yul\":8273:8277   */\n      0x00\n        /* \"#utility.yul\":8342:8348   */\n      dup3\n        /* \"#utility.yul\":8336:8349   */\n      mload\n        /* \"#utility.yul\":8385:8391   */\n      dup1\n        /* \"#utility.yul\":8380:8382   */\n      0x20\n        /* \"#utility.yul\":8369:8378   */\n      dup5\n        /* \"#utility.yul\":8365:8383   */\n      add\n        /* \"#utility.yul\":8358:8392   */\n      mstore\n        /* \"#utility.yul\":8401:8467   */\n      tag_303\n        /* \"#utility.yul\":8460:8466   */\n      dup2\n        /* \"#utility.yul\":8455:8457   */\n      0x40\n        /* \"#utility.yul\":8444:8453   */\n      dup6\n        /* \"#utility.yul\":8440:8458   */\n      add\n        /* \"#utility.yul\":8435:8437   */\n      0x20\n        /* \"#utility.yul\":8427:8433   */\n      dup8\n        /* \"#utility.yul\":8423:8438   */\n      add\n        /* \"#utility.yul\":8401:8467   */\n      tag_240\n      jump\t// in\n    tag_303:\n        /* \"#utility.yul\":8528:8530   */\n      0x1f\n        /* \"#utility.yul\":8507:8522   */\n      add\n      not(0x1f)\n        /* \"#utility.yul\":8503:8532   */\n      and\n        /* \"#utility.yul\":8488:8533   */\n      swap2\n      swap1\n      swap2\n      add\n        /* \"#utility.yul\":8535:8537   */\n      0x40\n        /* \"#utility.yul\":8484:8538   */\n      add\n      swap3\n        /* \"#utility.yul\":8161:8544   */\n      swap2\n      pop\n      pop\n      jump\t// out\n\n    auxdata: 0xa2646970667358221220999637e1d7d47fb28a206ca98938af2c7ed346ae8594283d1c1bc08ccd1042d964736f6c634300080f0033\n}\n",
				"bytecode": {
					"linkReferences": {},
					"object": "60806040523480156200001157600080fd5b50604051620013f4380380620013f483398101604081905262000034916200039b565b600180556200004560003362000057565b6200005081620000f8565b5062000540565b6000828152602081815260408083206001600160a01b038516845290915290205460ff16620000f4576000828152602081815260408083206001600160a01b03851684529091529020805460ff19166001179055620000b33390565b6001600160a01b0316816001600160a01b0316837f2f8788117e7eff1d82e926ec794901d17c78024a50270940304540a733656f0d60405160405180910390a45b5050565b6000620001058162000128565b50600280546001600160a01b0319166001600160a01b0392909216919091179055565b62000134813362000137565b50565b6000828152602081815260408083206001600160a01b038516845290915290205460ff16620000f45762000181816001600160a01b03166014620001db60201b620009031760201c565b6200019783602062000903620001db821b17811c565b604051602001620001aa929190620003f9565b60408051601f198184030181529082905262461bcd60e51b8252620001d29160040162000472565b60405180910390fd5b60606000620001ec836002620004bd565b620001f9906002620004df565b6001600160401b03811115620002135762000213620004fa565b6040519080825280601f01601f1916602001820160405280156200023e576020820181803683370190505b509050600360fc1b816000815181106200025c576200025c62000510565b60200101906001600160f81b031916908160001a905350600f60fb1b816001815181106200028e576200028e62000510565b60200101906001600160f81b031916908160001a9053506000620002b4846002620004bd565b620002c1906001620004df565b90505b600181111562000343576f181899199a1a9b1b9c1cb0b131b232b360811b85600f1660108110620002f957620002f962000510565b1a60f81b82828151811062000312576200031262000510565b60200101906001600160f81b031916908160001a90535060049490941c936200033b8162000526565b9050620002c4565b508315620003945760405162461bcd60e51b815260206004820181905260248201527f537472696e67733a20686578206c656e67746820696e73756666696369656e746044820152606401620001d2565b9392505050565b600060208284031215620003ae57600080fd5b81516001600160a01b03811681146200039457600080fd5b60005b83811015620003e3578181015183820152602001620003c9565b83811115620003f3576000848401525b50505050565b7f416363657373436f6e74726f6c3a206163636f756e742000000000000000000081526000835162000433816017850160208801620003c6565b7001034b99036b4b9b9b4b733903937b6329607d1b601791840191820152835162000466816028840160208801620003c6565b01602801949350505050565b602081526000825180602084015262000493816040850160208701620003c6565b601f01601f19169190910160400192915050565b634e487b7160e01b600052601160045260246000fd5b6000816000190483118215151615620004da57620004da620004a7565b500290565b60008219821115620004f557620004f5620004a7565b500190565b634e487b7160e01b600052604160045260246000fd5b634e487b7160e01b600052603260045260246000fd5b600081620005385762000538620004a7565b506000190190565b610ea480620005506000396000f3fe6080604052600436106100fe5760003560e01c8063868ff4a211610095578063a6f5f01411610064578063a6f5f014146102ae578063c4e41b22146102cf578063d547741f146102e4578063dd31a7ba14610304578063ff0938a71461032457600080fd5b8063868ff4a21461024557806391d148541461025857806394f4504d14610278578063a217fddf1461029957600080fd5b80632f2ff15d116100d15780632f2ff15d146101d057806336568abe146101f05780634c0f38c21461021057806361aec2051461022557600080fd5b806301ffc9a714610103578063248a9ca31461013857806327c25c201461017657806328438f68146101ae575b600080fd5b34801561010f57600080fd5b5061012361011e366004610c00565b610339565b60405190151581526020015b60405180910390f35b34801561014457600080fd5b50610168610153366004610c2a565b60009081526020819052604090206001015490565b60405190815260200161012f565b34801561018257600080fd5b50600254610196906001600160a01b031681565b6040516001600160a01b03909116815260200161012f565b3480156101ba57600080fd5b506101ce6101c9366004610c51565b610370565b005b3480156101dc57600080fd5b506101ce6101eb366004610c83565b61039a565b3480156101fc57600080fd5b506101ce61020b366004610c83565b6103c4565b34801561021c57600080fd5b50610168610447565b34801561023157600080fd5b506101ce610240366004610cb3565b6104ba565b6101ce610253366004610c2a565b6104e8565b34801561026457600080fd5b50610123610273366004610c83565b6107d3565b34801561028457600080fd5b5060025461012390600160a81b900460ff1681565b3480156102a557600080fd5b50610168600081565b3480156102ba57600080fd5b5060025461012390600160a01b900460ff1681565b3480156102db57600080fd5b506101686107fc565b3480156102f057600080fd5b506101ce6102ff366004610c83565b610846565b34801561031057600080fd5b506101ce61031f366004610c51565b61086b565b34801561033057600080fd5b50610123610895565b60006001600160e01b03198216637965db0b60e01b148061036a57506301ffc9a760e01b6001600160e01b03198316145b92915050565b600061037b81610aa6565b5060028054911515600160a01b0260ff60a01b19909216919091179055565b6000828152602081905260409020600101546103b581610aa6565b6103bf8383610ab3565b505050565b6001600160a01b03811633146104395760405162461bcd60e51b815260206004820152602f60248201527f416363657373436f6e74726f6c3a2063616e206f6e6c792072656e6f756e636560448201526e103937b632b9903337b91039b2b63360891b60648201526084015b60405180910390fd5b6104438282610b37565b5050565b6002546040805163d5abeb0160e01b815290516000926001600160a01b03169163d5abeb019160048083019260209291908290030181865afa158015610491573d6000803e3d6000fd5b505050506040513d601f19601f820116820180604052508101906104b59190610cd0565b905090565b60006104c581610aa6565b50600280546001600160a01b0319166001600160a01b0392909216919091179055565b60026001540361053a5760405162461bcd60e51b815260206004820152601f60248201527f5265656e7472616e637947756172643a207265656e7472616e742063616c6c006044820152606401610430565b6002600155610547610895565b1561058b5760405162461bcd60e51b81526020600482015260146024820152732730b3b0a5b4b239903bb0b9902830bab9b2b21760611b6044820152606401610430565b600254600160a81b900460ff1615156001146105e95760405162461bcd60e51b815260206004820152601b60248201527f57686974656c697374206e6f74206f70656e20746f206d696e742e00000000006044820152606401610430565b6104576105f46107fc565b1061062f5760405162461bcd60e51b815260206004820152600b60248201526a4f76657220737570706c7960a81b6044820152606401610430565b6002546040805163d539139360e01b815290516001600160a01b03909216916391d1485491839163d5391393916004808201926020929091908290030181865afa158015610681573d6000803e3d6000fd5b505050506040513d601f19601f820116820180604052508101906106a59190610cd0565b6040516001600160e01b031960e084901b1681526004810191909152306024820152604401602060405180830381865afa1580156106e7573d6000803e3d6000fd5b505050506040513d601f19601f8201168201806040525081019061070b9190610ce9565b151560011461076f5760405162461bcd60e51b815260206004820152602a60248201527f5468697320436f6e7472616374206e6f742068617665207065726d697373696f60448201526937103a379036b4b73a1760b11b6064820152608401610430565b6002546040516340d097c360e01b81523360048201526001600160a01b03909116906340d097c390602401600060405180830381600087803b1580156107b457600080fd5b505af11580156107c8573d6000803e3d6000fd5b505060018055505050565b6000918252602082815260408084206001600160a01b0393909316845291905290205460ff1690565b600254604080516318160ddd60e01b815290516000926001600160a01b0316916318160ddd9160048083019260209291908290030181865afa158015610491573d6000803e3d6000fd5b60008281526020819052604090206001015461086181610aa6565b6103bf8383610b37565b600061087681610aa6565b5060028054911515600160a81b0260ff60a81b19909216919091179055565b60025460408051635c975abb60e01b815290516000926001600160a01b031691635c975abb9160048083019260209291908290030181865afa1580156108df573d6000803e3d6000fd5b505050506040513d601f19601f820116820180604052508101906104b59190610ce9565b60606000610912836002610d1c565b61091d906002610d3b565b67ffffffffffffffff81111561093557610935610d53565b6040519080825280601f01601f19166020018201604052801561095f576020820181803683370190505b509050600360fc1b8160008151811061097a5761097a610d69565b60200101906001600160f81b031916908160001a905350600f60fb1b816001815181106109a9576109a9610d69565b60200101906001600160f81b031916908160001a90535060006109cd846002610d1c565b6109d8906001610d3b565b90505b6001811115610a50576f181899199a1a9b1b9c1cb0b131b232b360811b85600f1660108110610a0c57610a0c610d69565b1a60f81b828281518110610a2257610a22610d69565b60200101906001600160f81b031916908160001a90535060049490941c93610a4981610d7f565b90506109db565b508315610a9f5760405162461bcd60e51b815260206004820181905260248201527f537472696e67733a20686578206c656e67746820696e73756666696369656e746044820152606401610430565b9392505050565b610ab08133610b9c565b50565b610abd82826107d3565b610443576000828152602081815260408083206001600160a01b03851684529091529020805460ff19166001179055610af33390565b6001600160a01b0316816001600160a01b0316837f2f8788117e7eff1d82e926ec794901d17c78024a50270940304540a733656f0d60405160405180910390a45050565b610b4182826107d3565b15610443576000828152602081815260408083206001600160a01b0385168085529252808320805460ff1916905551339285917ff6391f5c32d9c69d2a47ea670b442974b53935d1edc7fd64eb21e047a839171b9190a45050565b610ba682826107d3565b61044357610bbe816001600160a01b03166014610903565b610bc9836020610903565b604051602001610bda929190610dc6565b60408051601f198184030181529082905262461bcd60e51b825261043091600401610e3b565b600060208284031215610c1257600080fd5b81356001600160e01b031981168114610a9f57600080fd5b600060208284031215610c3c57600080fd5b5035919050565b8015158114610ab057600080fd5b600060208284031215610c6357600080fd5b8135610a9f81610c43565b6001600160a01b0381168114610ab057600080fd5b60008060408385031215610c9657600080fd5b823591506020830135610ca881610c6e565b809150509250929050565b600060208284031215610cc557600080fd5b8135610a9f81610c6e565b600060208284031215610ce257600080fd5b5051919050565b600060208284031215610cfb57600080fd5b8151610a9f81610c43565b634e487b7160e01b600052601160045260246000fd5b6000816000190483118215151615610d3657610d36610d06565b500290565b60008219821115610d4e57610d4e610d06565b500190565b634e487b7160e01b600052604160045260246000fd5b634e487b7160e01b600052603260045260246000fd5b600081610d8e57610d8e610d06565b506000190190565b60005b83811015610db1578181015183820152602001610d99565b83811115610dc0576000848401525b50505050565b7f416363657373436f6e74726f6c3a206163636f756e7420000000000000000000815260008351610dfe816017850160208801610d96565b7001034b99036b4b9b9b4b733903937b6329607d1b6017918401918201528351610e2f816028840160208801610d96565b01602801949350505050565b6020815260008251806020840152610e5a816040850160208701610d96565b601f01601f1916919091016040019291505056fea2646970667358221220999637e1d7d47fb28a206ca98938af2c7ed346ae8594283d1c1bc08ccd1042d964736f6c634300080f0033",
					"opcodes": "PUSH1 0x80 PUSH1 0x40 MSTORE CALLVALUE DUP1 ISZERO PUSH3 0x11 JUMPI PUSH1 0x0 DUP1 REVERT JUMPDEST POP PUSH1 0x40 MLOAD PUSH3 0x13F4 CODESIZE SUB DUP1 PUSH3 0x13F4 DUP4 CODECOPY DUP2 ADD PUSH1 0x40 DUP2 SWAP1 MSTORE PUSH3 0x34 SWAP2 PUSH3 0x39B JUMP JUMPDEST PUSH1 0x1 DUP1 SSTORE PUSH3 0x45 PUSH1 0x0 CALLER PUSH3 0x57 JUMP JUMPDEST PUSH3 0x50 DUP2 PUSH3 0xF8 JUMP JUMPDEST POP PUSH3 0x540 JUMP JUMPDEST PUSH1 0x0 DUP3 DUP2 MSTORE PUSH1 0x20 DUP2 DUP2 MSTORE PUSH1 0x40 DUP1 DUP4 KECCAK256 PUSH1 0x1 PUSH1 0x1 PUSH1 0xA0 SHL SUB DUP6 AND DUP5 MSTORE SWAP1 SWAP2 MSTORE SWAP1 KECCAK256 SLOAD PUSH1 0xFF AND PUSH3 0xF4 JUMPI PUSH1 0x0 DUP3 DUP2 MSTORE PUSH1 0x20 DUP2 DUP2 MSTORE PUSH1 0x40 DUP1 DUP4 KECCAK256 PUSH1 0x1 PUSH1 0x1 PUSH1 0xA0 SHL SUB DUP6 AND DUP5 MSTORE SWAP1 SWAP2 MSTORE SWAP1 KECCAK256 DUP1 SLOAD PUSH1 0xFF NOT AND PUSH1 0x1 OR SWAP1 SSTORE PUSH3 0xB3 CALLER SWAP1 JUMP JUMPDEST PUSH1 0x1 PUSH1 0x1 PUSH1 0xA0 SHL SUB AND DUP2 PUSH1 0x1 PUSH1 0x1 PUSH1 0xA0 SHL SUB AND DUP4 PUSH32 0x2F8788117E7EFF1D82E926EC794901D17C78024A50270940304540A733656F0D PUSH1 0x40 MLOAD PUSH1 0x40 MLOAD DUP1 SWAP2 SUB SWAP1 LOG4 JUMPDEST POP POP JUMP JUMPDEST PUSH1 0x0 PUSH3 0x105 DUP2 PUSH3 0x128 JUMP JUMPDEST POP PUSH1 0x2 DUP1 SLOAD PUSH1 0x1 PUSH1 0x1 PUSH1 0xA0 SHL SUB NOT AND PUSH1 0x1 PUSH1 0x1 PUSH1 0xA0 SHL SUB SWAP3 SWAP1 SWAP3 AND SWAP2 SWAP1 SWAP2 OR SWAP1 SSTORE JUMP JUMPDEST PUSH3 0x134 DUP2 CALLER PUSH3 0x137 JUMP JUMPDEST POP JUMP JUMPDEST PUSH1 0x0 DUP3 DUP2 MSTORE PUSH1 0x20 DUP2 DUP2 MSTORE PUSH1 0x40 DUP1 DUP4 KECCAK256 PUSH1 0x1 PUSH1 0x1 PUSH1 0xA0 SHL SUB DUP6 AND DUP5 MSTORE SWAP1 SWAP2 MSTORE SWAP1 KECCAK256 SLOAD PUSH1 0xFF AND PUSH3 0xF4 JUMPI PUSH3 0x181 DUP2 PUSH1 0x1 PUSH1 0x1 PUSH1 0xA0 SHL SUB AND PUSH1 0x14 PUSH3 0x1DB PUSH1 0x20 SHL PUSH3 0x903 OR PUSH1 0x20 SHR JUMP JUMPDEST PUSH3 0x197 DUP4 PUSH1 0x20 PUSH3 0x903 PUSH3 0x1DB DUP3 SHL OR DUP2 SHR JUMP JUMPDEST PUSH1 0x40 MLOAD PUSH1 0x20 ADD PUSH3 0x1AA SWAP3 SWAP2 SWAP1 PUSH3 0x3F9 JUMP JUMPDEST PUSH1 0x40 DUP1 MLOAD PUSH1 0x1F NOT DUP2 DUP5 SUB ADD DUP2 MSTORE SWAP1 DUP3 SWAP1 MSTORE PUSH3 0x461BCD PUSH1 0xE5 SHL DUP3 MSTORE PUSH3 0x1D2 SWAP2 PUSH1 0x4 ADD PUSH3 0x472 JUMP JUMPDEST PUSH1 0x40 MLOAD DUP1 SWAP2 SUB SWAP1 REVERT JUMPDEST PUSH1 0x60 PUSH1 0x0 PUSH3 0x1EC DUP4 PUSH1 0x2 PUSH3 0x4BD JUMP JUMPDEST PUSH3 0x1F9 SWAP1 PUSH1 0x2 PUSH3 0x4DF JUMP JUMPDEST PUSH1 0x1 PUSH1 0x1 PUSH1 0x40 SHL SUB DUP2 GT ISZERO PUSH3 0x213 JUMPI PUSH3 0x213 PUSH3 0x4FA JUMP JUMPDEST PUSH1 0x40 MLOAD SWAP1 DUP1 DUP3 MSTORE DUP1 PUSH1 0x1F ADD PUSH1 0x1F NOT AND PUSH1 0x20 ADD DUP3 ADD PUSH1 0x40 MSTORE DUP1 ISZERO PUSH3 0x23E JUMPI PUSH1 0x20 DUP3 ADD DUP2 DUP1 CALLDATASIZE DUP4 CALLDATACOPY ADD SWAP1 POP JUMPDEST POP SWAP1 POP PUSH1 0x3 PUSH1 0xFC SHL DUP2 PUSH1 0x0 DUP2 MLOAD DUP2 LT PUSH3 0x25C JUMPI PUSH3 0x25C PUSH3 0x510 JUMP JUMPDEST PUSH1 0x20 ADD ADD SWAP1 PUSH1 0x1 PUSH1 0x1 PUSH1 0xF8 SHL SUB NOT AND SWAP1 DUP2 PUSH1 0x0 BYTE SWAP1 MSTORE8 POP PUSH1 0xF PUSH1 0xFB SHL DUP2 PUSH1 0x1 DUP2 MLOAD DUP2 LT PUSH3 0x28E JUMPI PUSH3 0x28E PUSH3 0x510 JUMP JUMPDEST PUSH1 0x20 ADD ADD SWAP1 PUSH1 0x1 PUSH1 0x1 PUSH1 0xF8 SHL SUB NOT AND SWAP1 DUP2 PUSH1 0x0 BYTE SWAP1 MSTORE8 POP PUSH1 0x0 PUSH3 0x2B4 DUP5 PUSH1 0x2 PUSH3 0x4BD JUMP JUMPDEST PUSH3 0x2C1 SWAP1 PUSH1 0x1 PUSH3 0x4DF JUMP JUMPDEST SWAP1 POP JUMPDEST PUSH1 0x1 DUP2 GT ISZERO PUSH3 0x343 JUMPI PUSH16 0x181899199A1A9B1B9C1CB0B131B232B3 PUSH1 0x81 SHL DUP6 PUSH1 0xF AND PUSH1 0x10 DUP2 LT PUSH3 0x2F9 JUMPI PUSH3 0x2F9 PUSH3 0x510 JUMP JUMPDEST BYTE PUSH1 0xF8 SHL DUP3 DUP3 DUP2 MLOAD DUP2 LT PUSH3 0x312 JUMPI PUSH3 0x312 PUSH3 0x510 JUMP JUMPDEST PUSH1 0x20 ADD ADD SWAP1 PUSH1 0x1 PUSH1 0x1 PUSH1 0xF8 SHL SUB NOT AND SWAP1 DUP2 PUSH1 0x0 BYTE SWAP1 MSTORE8 POP PUSH1 0x4 SWAP5 SWAP1 SWAP5 SHR SWAP4 PUSH3 0x33B DUP2 PUSH3 0x526 JUMP JUMPDEST SWAP1 POP PUSH3 0x2C4 JUMP JUMPDEST POP DUP4 ISZERO PUSH3 0x394 JUMPI PUSH1 0x40 MLOAD PUSH3 0x461BCD PUSH1 0xE5 SHL DUP2 MSTORE PUSH1 0x20 PUSH1 0x4 DUP3 ADD DUP2 SWAP1 MSTORE PUSH1 0x24 DUP3 ADD MSTORE PUSH32 0x537472696E67733A20686578206C656E67746820696E73756666696369656E74 PUSH1 0x44 DUP3 ADD MSTORE PUSH1 0x64 ADD PUSH3 0x1D2 JUMP JUMPDEST SWAP4 SWAP3 POP POP POP JUMP JUMPDEST PUSH1 0x0 PUSH1 0x20 DUP3 DUP5 SUB SLT ISZERO PUSH3 0x3AE JUMPI PUSH1 0x0 DUP1 REVERT JUMPDEST DUP2 MLOAD PUSH1 0x1 PUSH1 0x1 PUSH1 0xA0 SHL SUB DUP2 AND DUP2 EQ PUSH3 0x394 JUMPI PUSH1 0x0 DUP1 REVERT JUMPDEST PUSH1 0x0 JUMPDEST DUP4 DUP2 LT ISZERO PUSH3 0x3E3 JUMPI DUP2 DUP2 ADD MLOAD DUP4 DUP3 ADD MSTORE PUSH1 0x20 ADD PUSH3 0x3C9 JUMP JUMPDEST DUP4 DUP2 GT ISZERO PUSH3 0x3F3 JUMPI PUSH1 0x0 DUP5 DUP5 ADD MSTORE JUMPDEST POP POP POP POP JUMP JUMPDEST PUSH32 0x416363657373436F6E74726F6C3A206163636F756E7420000000000000000000 DUP2 MSTORE PUSH1 0x0 DUP4 MLOAD PUSH3 0x433 DUP2 PUSH1 0x17 DUP6 ADD PUSH1 0x20 DUP9 ADD PUSH3 0x3C6 JUMP JUMPDEST PUSH17 0x1034B99036B4B9B9B4B733903937B6329 PUSH1 0x7D SHL PUSH1 0x17 SWAP2 DUP5 ADD SWAP2 DUP3 ADD MSTORE DUP4 MLOAD PUSH3 0x466 DUP2 PUSH1 0x28 DUP5 ADD PUSH1 0x20 DUP9 ADD PUSH3 0x3C6 JUMP JUMPDEST ADD PUSH1 0x28 ADD SWAP5 SWAP4 POP POP POP POP JUMP JUMPDEST PUSH1 0x20 DUP2 MSTORE PUSH1 0x0 DUP3 MLOAD DUP1 PUSH1 0x20 DUP5 ADD MSTORE PUSH3 0x493 DUP2 PUSH1 0x40 DUP6 ADD PUSH1 0x20 DUP8 ADD PUSH3 0x3C6 JUMP JUMPDEST PUSH1 0x1F ADD PUSH1 0x1F NOT AND SWAP2 SWAP1 SWAP2 ADD PUSH1 0x40 ADD SWAP3 SWAP2 POP POP JUMP JUMPDEST PUSH4 0x4E487B71 PUSH1 0xE0 SHL PUSH1 0x0 MSTORE PUSH1 0x11 PUSH1 0x4 MSTORE PUSH1 0x24 PUSH1 0x0 REVERT JUMPDEST PUSH1 0x0 DUP2 PUSH1 0x0 NOT DIV DUP4 GT DUP3 ISZERO ISZERO AND ISZERO PUSH3 0x4DA JUMPI PUSH3 0x4DA PUSH3 0x4A7 JUMP JUMPDEST POP MUL SWAP1 JUMP JUMPDEST PUSH1 0x0 DUP3 NOT DUP3 GT ISZERO PUSH3 0x4F5 JUMPI PUSH3 0x4F5 PUSH3 0x4A7 JUMP JUMPDEST POP ADD SWAP1 JUMP JUMPDEST PUSH4 0x4E487B71 PUSH1 0xE0 SHL PUSH1 0x0 MSTORE PUSH1 0x41 PUSH1 0x4 MSTORE PUSH1 0x24 PUSH1 0x0 REVERT JUMPDEST PUSH4 0x4E487B71 PUSH1 0xE0 SHL PUSH1 0x0 MSTORE PUSH1 0x32 PUSH1 0x4 MSTORE PUSH1 0x24 PUSH1 0x0 REVERT JUMPDEST PUSH1 0x0 DUP2 PUSH3 0x538 JUMPI PUSH3 0x538 PUSH3 0x4A7 JUMP JUMPDEST POP PUSH1 0x0 NOT ADD SWAP1 JUMP JUMPDEST PUSH2 0xEA4 DUP1 PUSH3 0x550 PUSH1 0x0 CODECOPY PUSH1 0x0 RETURN INVALID PUSH1 0x80 PUSH1 0x40 MSTORE PUSH1 0x4 CALLDATASIZE LT PUSH2 0xFE JUMPI PUSH1 0x0 CALLDATALOAD PUSH1 0xE0 SHR DUP1 PUSH4 0x868FF4A2 GT PUSH2 0x95 JUMPI DUP1 PUSH4 0xA6F5F014 GT PUSH2 0x64 JUMPI DUP1 PUSH4 0xA6F5F014 EQ PUSH2 0x2AE JUMPI DUP1 PUSH4 0xC4E41B22 EQ PUSH2 0x2CF JUMPI DUP1 PUSH4 0xD547741F EQ PUSH2 0x2E4 JUMPI DUP1 PUSH4 0xDD31A7BA EQ PUSH2 0x304 JUMPI DUP1 PUSH4 0xFF0938A7 EQ PUSH2 0x324 JUMPI PUSH1 0x0 DUP1 REVERT JUMPDEST DUP1 PUSH4 0x868FF4A2 EQ PUSH2 0x245 JUMPI DUP1 PUSH4 0x91D14854 EQ PUSH2 0x258 JUMPI DUP1 PUSH4 0x94F4504D EQ PUSH2 0x278 JUMPI DUP1 PUSH4 0xA217FDDF EQ PUSH2 0x299 JUMPI PUSH1 0x0 DUP1 REVERT JUMPDEST DUP1 PUSH4 0x2F2FF15D GT PUSH2 0xD1 JUMPI DUP1 PUSH4 0x2F2FF15D EQ PUSH2 0x1D0 JUMPI DUP1 PUSH4 0x36568ABE EQ PUSH2 0x1F0 JUMPI DUP1 PUSH4 0x4C0F38C2 EQ PUSH2 0x210 JUMPI DUP1 PUSH4 0x61AEC205 EQ PUSH2 0x225 JUMPI PUSH1 0x0 DUP1 REVERT JUMPDEST DUP1 PUSH4 0x1FFC9A7 EQ PUSH2 0x103 JUMPI DUP1 PUSH4 0x248A9CA3 EQ PUSH2 0x138 JUMPI DUP1 PUSH4 0x27C25C20 EQ PUSH2 0x176 JUMPI DUP1 PUSH4 0x28438F68 EQ PUSH2 0x1AE JUMPI JUMPDEST PUSH1 0x0 DUP1 REVERT JUMPDEST CALLVALUE DUP1 ISZERO PUSH2 0x10F JUMPI PUSH1 0x0 DUP1 REVERT JUMPDEST POP PUSH2 0x123 PUSH2 0x11E CALLDATASIZE PUSH1 0x4 PUSH2 0xC00 JUMP JUMPDEST PUSH2 0x339 JUMP JUMPDEST PUSH1 0x40 MLOAD SWAP1 ISZERO ISZERO DUP2 MSTORE PUSH1 0x20 ADD JUMPDEST PUSH1 0x40 MLOAD DUP1 SWAP2 SUB SWAP1 RETURN JUMPDEST CALLVALUE DUP1 ISZERO PUSH2 0x144 JUMPI PUSH1 0x0 DUP1 REVERT JUMPDEST POP PUSH2 0x168 PUSH2 0x153 CALLDATASIZE PUSH1 0x4 PUSH2 0xC2A JUMP JUMPDEST PUSH1 0x0 SWAP1 DUP2 MSTORE PUSH1 0x20 DUP2 SWAP1 MSTORE PUSH1 0x40 SWAP1 KECCAK256 PUSH1 0x1 ADD SLOAD SWAP1 JUMP JUMPDEST PUSH1 0x40 MLOAD SWAP1 DUP2 MSTORE PUSH1 0x20 ADD PUSH2 0x12F JUMP JUMPDEST CALLVALUE DUP1 ISZERO PUSH2 0x182 JUMPI PUSH1 0x0 DUP1 REVERT JUMPDEST POP PUSH1 0x2 SLOAD PUSH2 0x196 SWAP1 PUSH1 0x1 PUSH1 0x1 PUSH1 0xA0 SHL SUB AND DUP2 JUMP JUMPDEST PUSH1 0x40 MLOAD PUSH1 0x1 PUSH1 0x1 PUSH1 0xA0 SHL SUB SWAP1 SWAP2 AND DUP2 MSTORE PUSH1 0x20 ADD PUSH2 0x12F JUMP JUMPDEST CALLVALUE DUP1 ISZERO PUSH2 0x1BA JUMPI PUSH1 0x0 DUP1 REVERT JUMPDEST POP PUSH2 0x1CE PUSH2 0x1C9 CALLDATASIZE PUSH1 0x4 PUSH2 0xC51 JUMP JUMPDEST PUSH2 0x370 JUMP JUMPDEST STOP JUMPDEST CALLVALUE DUP1 ISZERO PUSH2 0x1DC JUMPI PUSH1 0x0 DUP1 REVERT JUMPDEST POP PUSH2 0x1CE PUSH2 0x1EB CALLDATASIZE PUSH1 0x4 PUSH2 0xC83 JUMP JUMPDEST PUSH2 0x39A JUMP JUMPDEST CALLVALUE DUP1 ISZERO PUSH2 0x1FC JUMPI PUSH1 0x0 DUP1 REVERT JUMPDEST POP PUSH2 0x1CE PUSH2 0x20B CALLDATASIZE PUSH1 0x4 PUSH2 0xC83 JUMP JUMPDEST PUSH2 0x3C4 JUMP JUMPDEST CALLVALUE DUP1 ISZERO PUSH2 0x21C JUMPI PUSH1 0x0 DUP1 REVERT JUMPDEST POP PUSH2 0x168 PUSH2 0x447 JUMP JUMPDEST CALLVALUE DUP1 ISZERO PUSH2 0x231 JUMPI PUSH1 0x0 DUP1 REVERT JUMPDEST POP PUSH2 0x1CE PUSH2 0x240 CALLDATASIZE PUSH1 0x4 PUSH2 0xCB3 JUMP JUMPDEST PUSH2 0x4BA JUMP JUMPDEST PUSH2 0x1CE PUSH2 0x253 CALLDATASIZE PUSH1 0x4 PUSH2 0xC2A JUMP JUMPDEST PUSH2 0x4E8 JUMP JUMPDEST CALLVALUE DUP1 ISZERO PUSH2 0x264 JUMPI PUSH1 0x0 DUP1 REVERT JUMPDEST POP PUSH2 0x123 PUSH2 0x273 CALLDATASIZE PUSH1 0x4 PUSH2 0xC83 JUMP JUMPDEST PUSH2 0x7D3 JUMP JUMPDEST CALLVALUE DUP1 ISZERO PUSH2 0x284 JUMPI PUSH1 0x0 DUP1 REVERT JUMPDEST POP PUSH1 0x2 SLOAD PUSH2 0x123 SWAP1 PUSH1 0x1 PUSH1 0xA8 SHL SWAP1 DIV PUSH1 0xFF AND DUP2 JUMP JUMPDEST CALLVALUE DUP1 ISZERO PUSH2 0x2A5 JUMPI PUSH1 0x0 DUP1 REVERT JUMPDEST POP PUSH2 0x168 PUSH1 0x0 DUP2 JUMP JUMPDEST CALLVALUE DUP1 ISZERO PUSH2 0x2BA JUMPI PUSH1 0x0 DUP1 REVERT JUMPDEST POP PUSH1 0x2 SLOAD PUSH2 0x123 SWAP1 PUSH1 0x1 PUSH1 0xA0 SHL SWAP1 DIV PUSH1 0xFF AND DUP2 JUMP JUMPDEST CALLVALUE DUP1 ISZERO PUSH2 0x2DB JUMPI PUSH1 0x0 DUP1 REVERT JUMPDEST POP PUSH2 0x168 PUSH2 0x7FC JUMP JUMPDEST CALLVALUE DUP1 ISZERO PUSH2 0x2F0 JUMPI PUSH1 0x0 DUP1 REVERT JUMPDEST POP PUSH2 0x1CE PUSH2 0x2FF CALLDATASIZE PUSH1 0x4 PUSH2 0xC83 JUMP JUMPDEST PUSH2 0x846 JUMP JUMPDEST CALLVALUE DUP1 ISZERO PUSH2 0x310 JUMPI PUSH1 0x0 DUP1 REVERT JUMPDEST POP PUSH2 0x1CE PUSH2 0x31F CALLDATASIZE PUSH1 0x4 PUSH2 0xC51 JUMP JUMPDEST PUSH2 0x86B JUMP JUMPDEST CALLVALUE DUP1 ISZERO PUSH2 0x330 JUMPI PUSH1 0x0 DUP1 REVERT JUMPDEST POP PUSH2 0x123 PUSH2 0x895 JUMP JUMPDEST PUSH1 0x0 PUSH1 0x1 PUSH1 0x1 PUSH1 0xE0 SHL SUB NOT DUP3 AND PUSH4 0x7965DB0B PUSH1 0xE0 SHL EQ DUP1 PUSH2 0x36A JUMPI POP PUSH4 0x1FFC9A7 PUSH1 0xE0 SHL PUSH1 0x1 PUSH1 0x1 PUSH1 0xE0 SHL SUB NOT DUP4 AND EQ JUMPDEST SWAP3 SWAP2 POP POP JUMP JUMPDEST PUSH1 0x0 PUSH2 0x37B DUP2 PUSH2 0xAA6 JUMP JUMPDEST POP PUSH1 0x2 DUP1 SLOAD SWAP2 ISZERO ISZERO PUSH1 0x1 PUSH1 0xA0 SHL MUL PUSH1 0xFF PUSH1 0xA0 SHL NOT SWAP1 SWAP3 AND SWAP2 SWAP1 SWAP2 OR SWAP1 SSTORE JUMP JUMPDEST PUSH1 0x0 DUP3 DUP2 MSTORE PUSH1 0x20 DUP2 SWAP1 MSTORE PUSH1 0x40 SWAP1 KECCAK256 PUSH1 0x1 ADD SLOAD PUSH2 0x3B5 DUP2 PUSH2 0xAA6 JUMP JUMPDEST PUSH2 0x3BF DUP4 DUP4 PUSH2 0xAB3 JUMP JUMPDEST POP POP POP JUMP JUMPDEST PUSH1 0x1 PUSH1 0x1 PUSH1 0xA0 SHL SUB DUP2 AND CALLER EQ PUSH2 0x439 JUMPI PUSH1 0x40 MLOAD PUSH3 0x461BCD PUSH1 0xE5 SHL DUP2 MSTORE PUSH1 0x20 PUSH1 0x4 DUP3 ADD MSTORE PUSH1 0x2F PUSH1 0x24 DUP3 ADD MSTORE PUSH32 0x416363657373436F6E74726F6C3A2063616E206F6E6C792072656E6F756E6365 PUSH1 0x44 DUP3 ADD MSTORE PUSH15 0x103937B632B9903337B91039B2B633 PUSH1 0x89 SHL PUSH1 0x64 DUP3 ADD MSTORE PUSH1 0x84 ADD JUMPDEST PUSH1 0x40 MLOAD DUP1 SWAP2 SUB SWAP1 REVERT JUMPDEST PUSH2 0x443 DUP3 DUP3 PUSH2 0xB37 JUMP JUMPDEST POP POP JUMP JUMPDEST PUSH1 0x2 SLOAD PUSH1 0x40 DUP1 MLOAD PUSH4 0xD5ABEB01 PUSH1 0xE0 SHL DUP2 MSTORE SWAP1 MLOAD PUSH1 0x0 SWAP3 PUSH1 0x1 PUSH1 0x1 PUSH1 0xA0 SHL SUB AND SWAP2 PUSH4 0xD5ABEB01 SWAP2 PUSH1 0x4 DUP1 DUP4 ADD SWAP3 PUSH1 0x20 SWAP3 SWAP2 SWAP1 DUP3 SWAP1 SUB ADD DUP2 DUP7 GAS STATICCALL ISZERO DUP1 ISZERO PUSH2 0x491 JUMPI RETURNDATASIZE PUSH1 0x0 DUP1 RETURNDATACOPY RETURNDATASIZE PUSH1 0x0 REVERT JUMPDEST POP POP POP POP PUSH1 0x40 MLOAD RETURNDATASIZE PUSH1 0x1F NOT PUSH1 0x1F DUP3 ADD AND DUP3 ADD DUP1 PUSH1 0x40 MSTORE POP DUP2 ADD SWAP1 PUSH2 0x4B5 SWAP2 SWAP1 PUSH2 0xCD0 JUMP JUMPDEST SWAP1 POP SWAP1 JUMP JUMPDEST PUSH1 0x0 PUSH2 0x4C5 DUP2 PUSH2 0xAA6 JUMP JUMPDEST POP PUSH1 0x2 DUP1 SLOAD PUSH1 0x1 PUSH1 0x1 PUSH1 0xA0 SHL SUB NOT AND PUSH1 0x1 PUSH1 0x1 PUSH1 0xA0 SHL SUB SWAP3 SWAP1 SWAP3 AND SWAP2 SWAP1 SWAP2 OR SWAP1 SSTORE JUMP JUMPDEST PUSH1 0x2 PUSH1 0x1 SLOAD SUB PUSH2 0x53A JUMPI PUSH1 0x40 MLOAD PUSH3 0x461BCD PUSH1 0xE5 SHL DUP2 MSTORE PUSH1 0x20 PUSH1 0x4 DUP3 ADD MSTORE PUSH1 0x1F PUSH1 0x24 DUP3 ADD MSTORE PUSH32 0x5265656E7472616E637947756172643A207265656E7472616E742063616C6C00 PUSH1 0x44 DUP3 ADD MSTORE PUSH1 0x64 ADD PUSH2 0x430 JUMP JUMPDEST PUSH1 0x2 PUSH1 0x1 SSTORE PUSH2 0x547 PUSH2 0x895 JUMP JUMPDEST ISZERO PUSH2 0x58B JUMPI PUSH1 0x40 MLOAD PUSH3 0x461BCD PUSH1 0xE5 SHL DUP2 MSTORE PUSH1 0x20 PUSH1 0x4 DUP3 ADD MSTORE PUSH1 0x14 PUSH1 0x24 DUP3 ADD MSTORE PUSH20 0x2730B3B0A5B4B239903BB0B9902830BAB9B2B217 PUSH1 0x61 SHL PUSH1 0x44 DUP3 ADD MSTORE PUSH1 0x64 ADD PUSH2 0x430 JUMP JUMPDEST PUSH1 0x2 SLOAD PUSH1 0x1 PUSH1 0xA8 SHL SWAP1 DIV PUSH1 0xFF AND ISZERO ISZERO PUSH1 0x1 EQ PUSH2 0x5E9 JUMPI PUSH1 0x40 MLOAD PUSH3 0x461BCD PUSH1 0xE5 SHL DUP2 MSTORE PUSH1 0x20 PUSH1 0x4 DUP3 ADD MSTORE PUSH1 0x1B PUSH1 0x24 DUP3 ADD MSTORE PUSH32 0x57686974656C697374206E6F74206F70656E20746F206D696E742E0000000000 PUSH1 0x44 DUP3 ADD MSTORE PUSH1 0x64 ADD PUSH2 0x430 JUMP JUMPDEST PUSH2 0x457 PUSH2 0x5F4 PUSH2 0x7FC JUMP JUMPDEST LT PUSH2 0x62F JUMPI PUSH1 0x40 MLOAD PUSH3 0x461BCD PUSH1 0xE5 SHL DUP2 MSTORE PUSH1 0x20 PUSH1 0x4 DUP3 ADD MSTORE PUSH1 0xB PUSH1 0x24 DUP3 ADD MSTORE PUSH11 0x4F76657220737570706C79 PUSH1 0xA8 SHL PUSH1 0x44 DUP3 ADD MSTORE PUSH1 0x64 ADD PUSH2 0x430 JUMP JUMPDEST PUSH1 0x2 SLOAD PUSH1 0x40 DUP1 MLOAD PUSH4 0xD5391393 PUSH1 0xE0 SHL DUP2 MSTORE SWAP1 MLOAD PUSH1 0x1 PUSH1 0x1 PUSH1 0xA0 SHL SUB SWAP1 SWAP3 AND SWAP2 PUSH4 0x91D14854 SWAP2 DUP4 SWAP2 PUSH4 0xD5391393 SWAP2 PUSH1 0x4 DUP1 DUP3 ADD SWAP3 PUSH1 0x20 SWAP3 SWAP1 SWAP2 SWAP1 DUP3 SWAP1 SUB ADD DUP2 DUP7 GAS STATICCALL ISZERO DUP1 ISZERO PUSH2 0x681 JUMPI RETURNDATASIZE PUSH1 0x0 DUP1 RETURNDATACOPY RETURNDATASIZE PUSH1 0x0 REVERT JUMPDEST POP POP POP POP PUSH1 0x40 MLOAD RETURNDATASIZE PUSH1 0x1F NOT PUSH1 0x1F DUP3 ADD AND DUP3 ADD DUP1 PUSH1 0x40 MSTORE POP DUP2 ADD SWAP1 PUSH2 0x6A5 SWAP2 SWAP1 PUSH2 0xCD0 JUMP JUMPDEST PUSH1 0x40 MLOAD PUSH1 0x1 PUSH1 0x1 PUSH1 0xE0 SHL SUB NOT PUSH1 0xE0 DUP5 SWAP1 SHL AND DUP2 MSTORE PUSH1 0x4 DUP2 ADD SWAP2 SWAP1 SWAP2 MSTORE ADDRESS PUSH1 0x24 DUP3 ADD MSTORE PUSH1 0x44 ADD PUSH1 0x20 PUSH1 0x40 MLOAD DUP1 DUP4 SUB DUP2 DUP7 GAS STATICCALL ISZERO DUP1 ISZERO PUSH2 0x6E7 JUMPI RETURNDATASIZE PUSH1 0x0 DUP1 RETURNDATACOPY RETURNDATASIZE PUSH1 0x0 REVERT JUMPDEST POP POP POP POP PUSH1 0x40 MLOAD RETURNDATASIZE PUSH1 0x1F NOT PUSH1 0x1F DUP3 ADD AND DUP3 ADD DUP1 PUSH1 0x40 MSTORE POP DUP2 ADD SWAP1 PUSH2 0x70B SWAP2 SWAP1 PUSH2 0xCE9 JUMP JUMPDEST ISZERO ISZERO PUSH1 0x1 EQ PUSH2 0x76F JUMPI PUSH1 0x40 MLOAD PUSH3 0x461BCD PUSH1 0xE5 SHL DUP2 MSTORE PUSH1 0x20 PUSH1 0x4 DUP3 ADD MSTORE PUSH1 0x2A PUSH1 0x24 DUP3 ADD MSTORE PUSH32 0x5468697320436F6E7472616374206E6F742068617665207065726D697373696F PUSH1 0x44 DUP3 ADD MSTORE PUSH10 0x37103A379036B4B73A17 PUSH1 0xB1 SHL PUSH1 0x64 DUP3 ADD MSTORE PUSH1 0x84 ADD PUSH2 0x430 JUMP JUMPDEST PUSH1 0x2 SLOAD PUSH1 0x40 MLOAD PUSH4 0x40D097C3 PUSH1 0xE0 SHL DUP2 MSTORE CALLER PUSH1 0x4 DUP3 ADD MSTORE PUSH1 0x1 PUSH1 0x1 PUSH1 0xA0 SHL SUB SWAP1 SWAP2 AND SWAP1 PUSH4 0x40D097C3 SWAP1 PUSH1 0x24 ADD PUSH1 0x0 PUSH1 0x40 MLOAD DUP1 DUP4 SUB DUP2 PUSH1 0x0 DUP8 DUP1 EXTCODESIZE ISZERO DUP1 ISZERO PUSH2 0x7B4 JUMPI PUSH1 0x0 DUP1 REVERT JUMPDEST POP GAS CALL ISZERO DUP1 ISZERO PUSH2 0x7C8 JUMPI RETURNDATASIZE PUSH1 0x0 DUP1 RETURNDATACOPY RETURNDATASIZE PUSH1 0x0 REVERT JUMPDEST POP POP PUSH1 0x1 DUP1 SSTORE POP POP POP JUMP JUMPDEST PUSH1 0x0 SWAP2 DUP3 MSTORE PUSH1 0x20 DUP3 DUP2 MSTORE PUSH1 0x40 DUP1 DUP5 KECCAK256 PUSH1 0x1 PUSH1 0x1 PUSH1 0xA0 SHL SUB SWAP4 SWAP1 SWAP4 AND DUP5 MSTORE SWAP2 SWAP1 MSTORE SWAP1 KECCAK256 SLOAD PUSH1 0xFF AND SWAP1 JUMP JUMPDEST PUSH1 0x2 SLOAD PUSH1 0x40 DUP1 MLOAD PUSH4 0x18160DDD PUSH1 0xE0 SHL DUP2 MSTORE SWAP1 MLOAD PUSH1 0x0 SWAP3 PUSH1 0x1 PUSH1 0x1 PUSH1 0xA0 SHL SUB AND SWAP2 PUSH4 0x18160DDD SWAP2 PUSH1 0x4 DUP1 DUP4 ADD SWAP3 PUSH1 0x20 SWAP3 SWAP2 SWAP1 DUP3 SWAP1 SUB ADD DUP2 DUP7 GAS STATICCALL ISZERO DUP1 ISZERO PUSH2 0x491 JUMPI RETURNDATASIZE PUSH1 0x0 DUP1 RETURNDATACOPY RETURNDATASIZE PUSH1 0x0 REVERT JUMPDEST PUSH1 0x0 DUP3 DUP2 MSTORE PUSH1 0x20 DUP2 SWAP1 MSTORE PUSH1 0x40 SWAP1 KECCAK256 PUSH1 0x1 ADD SLOAD PUSH2 0x861 DUP2 PUSH2 0xAA6 JUMP JUMPDEST PUSH2 0x3BF DUP4 DUP4 PUSH2 0xB37 JUMP JUMPDEST PUSH1 0x0 PUSH2 0x876 DUP2 PUSH2 0xAA6 JUMP JUMPDEST POP PUSH1 0x2 DUP1 SLOAD SWAP2 ISZERO ISZERO PUSH1 0x1 PUSH1 0xA8 SHL MUL PUSH1 0xFF PUSH1 0xA8 SHL NOT SWAP1 SWAP3 AND SWAP2 SWAP1 SWAP2 OR SWAP1 SSTORE JUMP JUMPDEST PUSH1 0x2 SLOAD PUSH1 0x40 DUP1 MLOAD PUSH4 0x5C975ABB PUSH1 0xE0 SHL DUP2 MSTORE SWAP1 MLOAD PUSH1 0x0 SWAP3 PUSH1 0x1 PUSH1 0x1 PUSH1 0xA0 SHL SUB AND SWAP2 PUSH4 0x5C975ABB SWAP2 PUSH1 0x4 DUP1 DUP4 ADD SWAP3 PUSH1 0x20 SWAP3 SWAP2 SWAP1 DUP3 SWAP1 SUB ADD DUP2 DUP7 GAS STATICCALL ISZERO DUP1 ISZERO PUSH2 0x8DF JUMPI RETURNDATASIZE PUSH1 0x0 DUP1 RETURNDATACOPY RETURNDATASIZE PUSH1 0x0 REVERT JUMPDEST POP POP POP POP PUSH1 0x40 MLOAD RETURNDATASIZE PUSH1 0x1F NOT PUSH1 0x1F DUP3 ADD AND DUP3 ADD DUP1 PUSH1 0x40 MSTORE POP DUP2 ADD SWAP1 PUSH2 0x4B5 SWAP2 SWAP1 PUSH2 0xCE9 JUMP JUMPDEST PUSH1 0x60 PUSH1 0x0 PUSH2 0x912 DUP4 PUSH1 0x2 PUSH2 0xD1C JUMP JUMPDEST PUSH2 0x91D SWAP1 PUSH1 0x2 PUSH2 0xD3B JUMP JUMPDEST PUSH8 0xFFFFFFFFFFFFFFFF DUP2 GT ISZERO PUSH2 0x935 JUMPI PUSH2 0x935 PUSH2 0xD53 JUMP JUMPDEST PUSH1 0x40 MLOAD SWAP1 DUP1 DUP3 MSTORE DUP1 PUSH1 0x1F ADD PUSH1 0x1F NOT AND PUSH1 0x20 ADD DUP3 ADD PUSH1 0x40 MSTORE DUP1 ISZERO PUSH2 0x95F JUMPI PUSH1 0x20 DUP3 ADD DUP2 DUP1 CALLDATASIZE DUP4 CALLDATACOPY ADD SWAP1 POP JUMPDEST POP SWAP1 POP PUSH1 0x3 PUSH1 0xFC SHL DUP2 PUSH1 0x0 DUP2 MLOAD DUP2 LT PUSH2 0x97A JUMPI PUSH2 0x97A PUSH2 0xD69 JUMP JUMPDEST PUSH1 0x20 ADD ADD SWAP1 PUSH1 0x1 PUSH1 0x1 PUSH1 0xF8 SHL SUB NOT AND SWAP1 DUP2 PUSH1 0x0 BYTE SWAP1 MSTORE8 POP PUSH1 0xF PUSH1 0xFB SHL DUP2 PUSH1 0x1 DUP2 MLOAD DUP2 LT PUSH2 0x9A9 JUMPI PUSH2 0x9A9 PUSH2 0xD69 JUMP JUMPDEST PUSH1 0x20 ADD ADD SWAP1 PUSH1 0x1 PUSH1 0x1 PUSH1 0xF8 SHL SUB NOT AND SWAP1 DUP2 PUSH1 0x0 BYTE SWAP1 MSTORE8 POP PUSH1 0x0 PUSH2 0x9CD DUP5 PUSH1 0x2 PUSH2 0xD1C JUMP JUMPDEST PUSH2 0x9D8 SWAP1 PUSH1 0x1 PUSH2 0xD3B JUMP JUMPDEST SWAP1 POP JUMPDEST PUSH1 0x1 DUP2 GT ISZERO PUSH2 0xA50 JUMPI PUSH16 0x181899199A1A9B1B9C1CB0B131B232B3 PUSH1 0x81 SHL DUP6 PUSH1 0xF AND PUSH1 0x10 DUP2 LT PUSH2 0xA0C JUMPI PUSH2 0xA0C PUSH2 0xD69 JUMP JUMPDEST BYTE PUSH1 0xF8 SHL DUP3 DUP3 DUP2 MLOAD DUP2 LT PUSH2 0xA22 JUMPI PUSH2 0xA22 PUSH2 0xD69 JUMP JUMPDEST PUSH1 0x20 ADD ADD SWAP1 PUSH1 0x1 PUSH1 0x1 PUSH1 0xF8 SHL SUB NOT AND SWAP1 DUP2 PUSH1 0x0 BYTE SWAP1 MSTORE8 POP PUSH1 0x4 SWAP5 SWAP1 SWAP5 SHR SWAP4 PUSH2 0xA49 DUP2 PUSH2 0xD7F JUMP JUMPDEST SWAP1 POP PUSH2 0x9DB JUMP JUMPDEST POP DUP4 ISZERO PUSH2 0xA9F JUMPI PUSH1 0x40 MLOAD PUSH3 0x461BCD PUSH1 0xE5 SHL DUP2 MSTORE PUSH1 0x20 PUSH1 0x4 DUP3 ADD DUP2 SWAP1 MSTORE PUSH1 0x24 DUP3 ADD MSTORE PUSH32 0x537472696E67733A20686578206C656E67746820696E73756666696369656E74 PUSH1 0x44 DUP3 ADD MSTORE PUSH1 0x64 ADD PUSH2 0x430 JUMP JUMPDEST SWAP4 SWAP3 POP POP POP JUMP JUMPDEST PUSH2 0xAB0 DUP2 CALLER PUSH2 0xB9C JUMP JUMPDEST POP JUMP JUMPDEST PUSH2 0xABD DUP3 DUP3 PUSH2 0x7D3 JUMP JUMPDEST PUSH2 0x443 JUMPI PUSH1 0x0 DUP3 DUP2 MSTORE PUSH1 0x20 DUP2 DUP2 MSTORE PUSH1 0x40 DUP1 DUP4 KECCAK256 PUSH1 0x1 PUSH1 0x1 PUSH1 0xA0 SHL SUB DUP6 AND DUP5 MSTORE SWAP1 SWAP2 MSTORE SWAP1 KECCAK256 DUP1 SLOAD PUSH1 0xFF NOT AND PUSH1 0x1 OR SWAP1 SSTORE PUSH2 0xAF3 CALLER SWAP1 JUMP JUMPDEST PUSH1 0x1 PUSH1 0x1 PUSH1 0xA0 SHL SUB AND DUP2 PUSH1 0x1 PUSH1 0x1 PUSH1 0xA0 SHL SUB AND DUP4 PUSH32 0x2F8788117E7EFF1D82E926EC794901D17C78024A50270940304540A733656F0D PUSH1 0x40 MLOAD PUSH1 0x40 MLOAD DUP1 SWAP2 SUB SWAP1 LOG4 POP POP JUMP JUMPDEST PUSH2 0xB41 DUP3 DUP3 PUSH2 0x7D3 JUMP JUMPDEST ISZERO PUSH2 0x443 JUMPI PUSH1 0x0 DUP3 DUP2 MSTORE PUSH1 0x20 DUP2 DUP2 MSTORE PUSH1 0x40 DUP1 DUP4 KECCAK256 PUSH1 0x1 PUSH1 0x1 PUSH1 0xA0 SHL SUB DUP6 AND DUP1 DUP6 MSTORE SWAP3 MSTORE DUP1 DUP4 KECCAK256 DUP1 SLOAD PUSH1 0xFF NOT AND SWAP1 SSTORE MLOAD CALLER SWAP3 DUP6 SWAP2 PUSH32 0xF6391F5C32D9C69D2A47EA670B442974B53935D1EDC7FD64EB21E047A839171B SWAP2 SWAP1 LOG4 POP POP JUMP JUMPDEST PUSH2 0xBA6 DUP3 DUP3 PUSH2 0x7D3 JUMP JUMPDEST PUSH2 0x443 JUMPI PUSH2 0xBBE DUP2 PUSH1 0x1 PUSH1 0x1 PUSH1 0xA0 SHL SUB AND PUSH1 0x14 PUSH2 0x903 JUMP JUMPDEST PUSH2 0xBC9 DUP4 PUSH1 0x20 PUSH2 0x903 JUMP JUMPDEST PUSH1 0x40 MLOAD PUSH1 0x20 ADD PUSH2 0xBDA SWAP3 SWAP2 SWAP1 PUSH2 0xDC6 JUMP JUMPDEST PUSH1 0x40 DUP1 MLOAD PUSH1 0x1F NOT DUP2 DUP5 SUB ADD DUP2 MSTORE SWAP1 DUP3 SWAP1 MSTORE PUSH3 0x461BCD PUSH1 0xE5 SHL DUP3 MSTORE PUSH2 0x430 SWAP2 PUSH1 0x4 ADD PUSH2 0xE3B JUMP JUMPDEST PUSH1 0x0 PUSH1 0x20 DUP3 DUP5 SUB SLT ISZERO PUSH2 0xC12 JUMPI PUSH1 0x0 DUP1 REVERT JUMPDEST DUP2 CALLDATALOAD PUSH1 0x1 PUSH1 0x1 PUSH1 0xE0 SHL SUB NOT DUP2 AND DUP2 EQ PUSH2 0xA9F JUMPI PUSH1 0x0 DUP1 REVERT JUMPDEST PUSH1 0x0 PUSH1 0x20 DUP3 DUP5 SUB SLT ISZERO PUSH2 0xC3C JUMPI PUSH1 0x0 DUP1 REVERT JUMPDEST POP CALLDATALOAD SWAP2 SWAP1 POP JUMP JUMPDEST DUP1 ISZERO ISZERO DUP2 EQ PUSH2 0xAB0 JUMPI PUSH1 0x0 DUP1 REVERT JUMPDEST PUSH1 0x0 PUSH1 0x20 DUP3 DUP5 SUB SLT ISZERO PUSH2 0xC63 JUMPI PUSH1 0x0 DUP1 REVERT JUMPDEST DUP2 CALLDATALOAD PUSH2 0xA9F DUP2 PUSH2 0xC43 JUMP JUMPDEST PUSH1 0x1 PUSH1 0x1 PUSH1 0xA0 SHL SUB DUP2 AND DUP2 EQ PUSH2 0xAB0 JUMPI PUSH1 0x0 DUP1 REVERT JUMPDEST PUSH1 0x0 DUP1 PUSH1 0x40 DUP4 DUP6 SUB SLT ISZERO PUSH2 0xC96 JUMPI PUSH1 0x0 DUP1 REVERT JUMPDEST DUP3 CALLDATALOAD SWAP2 POP PUSH1 0x20 DUP4 ADD CALLDATALOAD PUSH2 0xCA8 DUP2 PUSH2 0xC6E JUMP JUMPDEST DUP1 SWAP2 POP POP SWAP3 POP SWAP3 SWAP1 POP JUMP JUMPDEST PUSH1 0x0 PUSH1 0x20 DUP3 DUP5 SUB SLT ISZERO PUSH2 0xCC5 JUMPI PUSH1 0x0 DUP1 REVERT JUMPDEST DUP2 CALLDATALOAD PUSH2 0xA9F DUP2 PUSH2 0xC6E JUMP JUMPDEST PUSH1 0x0 PUSH1 0x20 DUP3 DUP5 SUB SLT ISZERO PUSH2 0xCE2 JUMPI PUSH1 0x0 DUP1 REVERT JUMPDEST POP MLOAD SWAP2 SWAP1 POP JUMP JUMPDEST PUSH1 0x0 PUSH1 0x20 DUP3 DUP5 SUB SLT ISZERO PUSH2 0xCFB JUMPI PUSH1 0x0 DUP1 REVERT JUMPDEST DUP2 MLOAD PUSH2 0xA9F DUP2 PUSH2 0xC43 JUMP JUMPDEST PUSH4 0x4E487B71 PUSH1 0xE0 SHL PUSH1 0x0 MSTORE PUSH1 0x11 PUSH1 0x4 MSTORE PUSH1 0x24 PUSH1 0x0 REVERT JUMPDEST PUSH1 0x0 DUP2 PUSH1 0x0 NOT DIV DUP4 GT DUP3 ISZERO ISZERO AND ISZERO PUSH2 0xD36 JUMPI PUSH2 0xD36 PUSH2 0xD06 JUMP JUMPDEST POP MUL SWAP1 JUMP JUMPDEST PUSH1 0x0 DUP3 NOT DUP3 GT ISZERO PUSH2 0xD4E JUMPI PUSH2 0xD4E PUSH2 0xD06 JUMP JUMPDEST POP ADD SWAP1 JUMP JUMPDEST PUSH4 0x4E487B71 PUSH1 0xE0 SHL PUSH1 0x0 MSTORE PUSH1 0x41 PUSH1 0x4 MSTORE PUSH1 0x24 PUSH1 0x0 REVERT JUMPDEST PUSH4 0x4E487B71 PUSH1 0xE0 SHL PUSH1 0x0 MSTORE PUSH1 0x32 PUSH1 0x4 MSTORE PUSH1 0x24 PUSH1 0x0 REVERT JUMPDEST PUSH1 0x0 DUP2 PUSH2 0xD8E JUMPI PUSH2 0xD8E PUSH2 0xD06 JUMP JUMPDEST POP PUSH1 0x0 NOT ADD SWAP1 JUMP JUMPDEST PUSH1 0x0 JUMPDEST DUP4 DUP2 LT ISZERO PUSH2 0xDB1 JUMPI DUP2 DUP2 ADD MLOAD DUP4 DUP3 ADD MSTORE PUSH1 0x20 ADD PUSH2 0xD99 JUMP JUMPDEST DUP4 DUP2 GT ISZERO PUSH2 0xDC0 JUMPI PUSH1 0x0 DUP5 DUP5 ADD MSTORE JUMPDEST POP POP POP POP JUMP JUMPDEST PUSH32 0x416363657373436F6E74726F6C3A206163636F756E7420000000000000000000 DUP2 MSTORE PUSH1 0x0 DUP4 MLOAD PUSH2 0xDFE DUP2 PUSH1 0x17 DUP6 ADD PUSH1 0x20 DUP9 ADD PUSH2 0xD96 JUMP JUMPDEST PUSH17 0x1034B99036B4B9B9B4B733903937B6329 PUSH1 0x7D SHL PUSH1 0x17 SWAP2 DUP5 ADD SWAP2 DUP3 ADD MSTORE DUP4 MLOAD PUSH2 0xE2F DUP2 PUSH1 0x28 DUP5 ADD PUSH1 0x20 DUP9 ADD PUSH2 0xD96 JUMP JUMPDEST ADD PUSH1 0x28 ADD SWAP5 SWAP4 POP POP POP POP JUMP JUMPDEST PUSH1 0x20 DUP2 MSTORE PUSH1 0x0 DUP3 MLOAD DUP1 PUSH1 0x20 DUP5 ADD MSTORE PUSH2 0xE5A DUP2 PUSH1 0x40 DUP6 ADD PUSH1 0x20 DUP8 ADD PUSH2 0xD96 JUMP JUMPDEST PUSH1 0x1F ADD PUSH1 0x1F NOT AND SWAP2 SWAP1 SWAP2 ADD PUSH1 0x40 ADD SWAP3 SWAP2 POP POP JUMP INVALID LOG2 PUSH5 0x6970667358 0x22 SLT KECCAK256 SWAP10 SWAP7 CALLDATACOPY 0xE1 0xD7 0xD4 PUSH32 0xB28A206CA98938AF2C7ED346AE8594283D1C1BC08CCD1042D964736F6C634300 ADDMOD 0xF STOP CALLER "
				},
				"gasEstimates": {
					"creation": {
						"codeDepositCost": "749600",
						"executionCost": "infinite",
						"totalCost": "infinite"
					},
					"external": {
						"DEFAULT_ADMIN_ROLE()": "284",
						"changeFreeMintOpen(bool)": "infinite",
						"changeNagaKidsContract(address)": "infinite",
						"changeWhitelistMintOpen(bool)": "infinite",
						"getMaxSupply()": "infinite",
						"getRoleAdmin(bytes32)": "2493",
						"getTotalSupply()": "infinite",
						"grantRole(bytes32,address)": "infinite",
						"hasRole(bytes32,address)": "2695",
						"isFreeMintOpen()": "2338",
						"isPause()": "infinite",
						"isWhitelistOpen()": "2383",
						"nagaKidsContract()": "2405",
						"renounceRole(bytes32,address)": "29039",
						"revokeRole(bytes32,address)": "infinite",
						"supportsInterface(bytes4)": "450",
						"whitelistMint(uint256)": "infinite"
					}
				},
				"methodIdentifiers": {
					"DEFAULT_ADMIN_ROLE()": "a217fddf",
					"changeFreeMintOpen(bool)": "28438f68",
					"changeNagaKidsContract(address)": "61aec205",
					"changeWhitelistMintOpen(bool)": "dd31a7ba",
					"getMaxSupply()": "4c0f38c2",
					"getRoleAdmin(bytes32)": "248a9ca3",
					"getTotalSupply()": "c4e41b22",
					"grantRole(bytes32,address)": "2f2ff15d",
					"hasRole(bytes32,address)": "91d14854",
					"isFreeMintOpen()": "a6f5f014",
					"isPause()": "ff0938a7",
					"isWhitelistOpen()": "94f4504d",
					"nagaKidsContract()": "27c25c20",
					"renounceRole(bytes32,address)": "36568abe",
					"revokeRole(bytes32,address)": "d547741f",
					"supportsInterface(bytes4)": "01ffc9a7",
					"whitelistMint(uint256)": "868ff4a2"
				}
			},
			"storageLayout": {
				"storage": [
					{
						"astId": 24,
						"contract": "MintNagaKids.sol:MintNagaKids",
						"label": "_roles",
						"offset": 0,
						"slot": "0",
						"type": "t_mapping(t_bytes32,t_struct(RoleData)19_storage)"
					},
					{
						"astId": 403,
						"contract": "MintNagaKids.sol:MintNagaKids",
						"label": "_status",
						"offset": 0,
						"slot": "1",
						"type": "t_uint256"
					},
					{
						"astId": 971,
						"contract": "MintNagaKids.sol:MintNagaKids",
						"label": "nagaKidsContract",
						"offset": 0,
						"slot": "2",
						"type": "t_contract(INagaKidsNFT)958"
					},
					{
						"astId": 973,
						"contract": "MintNagaKids.sol:MintNagaKids",
						"label": "isFreeMintOpen",
						"offset": 20,
						"slot": "2",
						"type": "t_bool"
					},
					{
						"astId": 975,
						"contract": "MintNagaKids.sol:MintNagaKids",
						"label": "isWhitelistOpen",
						"offset": 21,
						"slot": "2",
						"type": "t_bool"
					}
				],
				"types": {
					"t_address": {
						"encoding": "inplace",
						"label": "address",
						"numberOfBytes": "20"
					},
					"t_bool": {
						"encoding": "inplace",
						"label": "bool",
						"numberOfBytes": "1"
					},
					"t_bytes32": {
						"encoding": "inplace",
						"label": "bytes32",
						"numberOfBytes": "32"
					},
					"t_contract(INagaKidsNFT)958": {
						"encoding": "inplace",
						"label": "contract INagaKidsNFT",
						"numberOfBytes": "20"
					},
					"t_mapping(t_address,t_bool)": {
						"encoding": "mapping",
						"key": "t_address",
						"label": "mapping(address => bool)",
						"numberOfBytes": "32",
						"value": "t_bool"
					},
					"t_mapping(t_bytes32,t_struct(RoleData)19_storage)": {
						"encoding": "mapping",
						"key": "t_bytes32",
						"label": "mapping(bytes32 => struct AccessControl.RoleData)",
						"numberOfBytes": "32",
						"value": "t_struct(RoleData)19_storage"
					},
					"t_struct(RoleData)19_storage": {
						"encoding": "inplace",
						"label": "struct AccessControl.RoleData",
						"members": [
							{
								"astId": 16,
								"contract": "MintNagaKids.sol:MintNagaKids",
								"label": "members",
								"offset": 0,
								"slot": "0",
								"type": "t_mapping(t_address,t_bool)"
							},
							{
								"astId": 18,
								"contract": "MintNagaKids.sol:MintNagaKids",
								"label": "adminRole",
								"offset": 0,
								"slot": "1",
								"type": "t_bytes32"
							}
						],
						"numberOfBytes": "64"
					},
					"t_uint256": {
						"encoding": "inplace",
						"label": "uint256",
						"numberOfBytes": "32"
					}
				}
			},
			"userdoc": {
				"kind": "user",
				"methods": {},
				"version": 1
			}
		}
	}
}