{
	"MintNagaKids.sol": {
		"MintNagaKids": {
			"abi": [
				{
					"inputs": [
						{
							"internalType": "contract INagaKidsNFT",
							"name": "_nagaKids",
							"type": "address"
						}
					],
					"stateMutability": "nonpayable",
					"type": "constructor"
				},
				{
					"anonymous": false,
					"inputs": [
						{
							"indexed": true,
							"internalType": "bytes32",
							"name": "role",
							"type": "bytes32"
						},
						{
							"indexed": true,
							"internalType": "bytes32",
							"name": "previousAdminRole",
							"type": "bytes32"
						},
						{
							"indexed": true,
							"internalType": "bytes32",
							"name": "newAdminRole",
							"type": "bytes32"
						}
					],
					"name": "RoleAdminChanged",
					"type": "event"
				},
				{
					"anonymous": false,
					"inputs": [
						{
							"indexed": true,
							"internalType": "bytes32",
							"name": "role",
							"type": "bytes32"
						},
						{
							"indexed": true,
							"internalType": "address",
							"name": "account",
							"type": "address"
						},
						{
							"indexed": true,
							"internalType": "address",
							"name": "sender",
							"type": "address"
						}
					],
					"name": "RoleGranted",
					"type": "event"
				},
				{
					"anonymous": false,
					"inputs": [
						{
							"indexed": true,
							"internalType": "bytes32",
							"name": "role",
							"type": "bytes32"
						},
						{
							"indexed": true,
							"internalType": "address",
							"name": "account",
							"type": "address"
						},
						{
							"indexed": true,
							"internalType": "address",
							"name": "sender",
							"type": "address"
						}
					],
					"name": "RoleRevoked",
					"type": "event"
				},
				{
					"inputs": [],
					"name": "DEFAULT_ADMIN_ROLE",
					"outputs": [
						{
							"internalType": "bytes32",
							"name": "",
							"type": "bytes32"
						}
					],
					"stateMutability": "view",
					"type": "function"
				},
				{
					"inputs": [
						{
							"internalType": "bool",
							"name": "_isOpen",
							"type": "bool"
						}
					],
					"name": "changeFreeMintOpen",
					"outputs": [],
					"stateMutability": "nonpayable",
					"type": "function"
				},
				{
					"inputs": [
						{
							"internalType": "contract INagaKidsNFT",
							"name": "_nagaKids",
							"type": "address"
						}
					],
					"name": "changeNagaKidsContract",
					"outputs": [],
					"stateMutability": "nonpayable",
					"type": "function"
				},
				{
					"inputs": [
						{
							"internalType": "bool",
							"name": "_isOpen",
							"type": "bool"
						}
					],
					"name": "changeWhitelistMintOpen",
					"outputs": [],
					"stateMutability": "nonpayable",
					"type": "function"
				},
				{
					"inputs": [],
					"name": "getMaxSupply",
					"outputs": [
						{
							"internalType": "uint256",
							"name": "",
							"type": "uint256"
						}
					],
					"stateMutability": "view",
					"type": "function"
				},
				{
					"inputs": [
						{
							"internalType": "bytes32",
							"name": "role",
							"type": "bytes32"
						}
					],
					"name": "getRoleAdmin",
					"outputs": [
						{
							"internalType": "bytes32",
							"name": "",
							"type": "bytes32"
						}
					],
					"stateMutability": "view",
					"type": "function"
				},
				{
					"inputs": [],
					"name": "getTotalSupply",
					"outputs": [
						{
							"internalType": "uint256",
							"name": "",
							"type": "uint256"
						}
					],
					"stateMutability": "view",
					"type": "function"
				},
				{
					"inputs": [
						{
							"internalType": "bytes32",
							"name": "role",
							"type": "bytes32"
						},
						{
							"internalType": "address",
							"name": "account",
							"type": "address"
						}
					],
					"name": "grantRole",
					"outputs": [],
					"stateMutability": "nonpayable",
					"type": "function"
				},
				{
					"inputs": [
						{
							"internalType": "bytes32",
							"name": "role",
							"type": "bytes32"
						},
						{
							"internalType": "address",
							"name": "account",
							"type": "address"
						}
					],
					"name": "hasRole",
					"outputs": [
						{
							"internalType": "bool",
							"name": "",
							"type": "bool"
						}
					],
					"stateMutability": "view",
					"type": "function"
				},
				{
					"inputs": [],
					"name": "isFreeMintOpen",
					"outputs": [
						{
							"internalType": "bool",
							"name": "",
							"type": "bool"
						}
					],
					"stateMutability": "view",
					"type": "function"
				},
				{
					"inputs": [],
					"name": "isPause",
					"outputs": [
						{
							"internalType": "bool",
							"name": "",
							"type": "bool"
						}
					],
					"stateMutability": "view",
					"type": "function"
				},
				{
					"inputs": [],
					"name": "isWhitelistOpen",
					"outputs": [
						{
							"internalType": "bool",
							"name": "",
							"type": "bool"
						}
					],
					"stateMutability": "view",
					"type": "function"
				},
				{
					"inputs": [],
					"name": "nagaKidsContract",
					"outputs": [
						{
							"internalType": "contract INagaKidsNFT",
							"name": "",
							"type": "address"
						}
					],
					"stateMutability": "view",
					"type": "function"
				},
				{
					"inputs": [
						{
							"internalType": "bytes32",
							"name": "role",
							"type": "bytes32"
						},
						{
							"internalType": "address",
							"name": "account",
							"type": "address"
						}
					],
					"name": "renounceRole",
					"outputs": [],
					"stateMutability": "nonpayable",
					"type": "function"
				},
				{
					"inputs": [
						{
							"internalType": "bytes32",
							"name": "role",
							"type": "bytes32"
						},
						{
							"internalType": "address",
							"name": "account",
							"type": "address"
						}
					],
					"name": "revokeRole",
					"outputs": [],
					"stateMutability": "nonpayable",
					"type": "function"
				},
				{
					"inputs": [
						{
							"internalType": "bytes4",
							"name": "interfaceId",
							"type": "bytes4"
						}
					],
					"name": "supportsInterface",
					"outputs": [
						{
							"internalType": "bool",
							"name": "",
							"type": "bool"
						}
					],
					"stateMutability": "view",
					"type": "function"
				},
				{
					"inputs": [],
					"name": "whitelistMint",
					"outputs": [],
					"stateMutability": "payable",
					"type": "function"
				}
			],
			"devdoc": {
				"kind": "dev",
				"methods": {
					"getRoleAdmin(bytes32)": {
						"details": "Returns the admin role that controls `role`. See {grantRole} and {revokeRole}. To change a role's admin, use {_setRoleAdmin}."
					},
					"grantRole(bytes32,address)": {
						"details": "Grants `role` to `account`. If `account` had not been already granted `role`, emits a {RoleGranted} event. Requirements: - the caller must have ``role``'s admin role."
					},
					"hasRole(bytes32,address)": {
						"details": "Returns `true` if `account` has been granted `role`."
					},
					"renounceRole(bytes32,address)": {
						"details": "Revokes `role` from the calling account. Roles are often managed via {grantRole} and {revokeRole}: this function's purpose is to provide a mechanism for accounts to lose their privileges if they are compromised (such as when a trusted device is misplaced). If the calling account had been revoked `role`, emits a {RoleRevoked} event. Requirements: - the caller must be `account`."
					},
					"revokeRole(bytes32,address)": {
						"details": "Revokes `role` from `account`. If `account` had been granted `role`, emits a {RoleRevoked} event. Requirements: - the caller must have ``role``'s admin role."
					},
					"supportsInterface(bytes4)": {
						"details": "See {IERC165-supportsInterface}."
					}
				},
				"version": 1
			},
			"evm": {
				"assembly": "    /* \"MintNagaKids.sol\":217:1674  contract MintNagaKids is AccessControl, ReentrancyGuard {... */\n  mstore(0x40, 0x80)\n    /* \"MintNagaKids.sol\":394:535  constructor(INagaKidsNFT _nagaKids) {... */\n  callvalue\n  dup1\n  iszero\n  tag_1\n  jumpi\n  0x00\n  dup1\n  revert\ntag_1:\n  pop\n  mload(0x40)\n  sub(codesize, bytecodeSize)\n  dup1\n  bytecodeSize\n  dup4\n  codecopy\n  dup2\n  add\n  0x40\n  dup2\n  swap1\n  mstore\n  tag_2\n  swap2\n  tag_3\n  jump\t// in\ntag_2:\n    /* \"@openzeppelin/contracts/security/ReentrancyGuard.sol\":1701:1702  1 */\n  0x01\n    /* \"@openzeppelin/contracts/security/ReentrancyGuard.sol\":1806:1828  _status = _NOT_ENTERED */\n  dup1\n  sstore\n    /* \"MintNagaKids.sol\":441:483  _grantRole(DEFAULT_ADMIN_ROLE, msg.sender) */\n  tag_8\n    /* \"@openzeppelin/contracts/access/AccessControl.sol\":2072:2076  0x00 */\n  0x00\n    /* \"MintNagaKids.sol\":472:482  msg.sender */\n  caller\n    /* \"MintNagaKids.sol\":441:451  _grantRole */\n  tag_9\n    /* \"MintNagaKids.sol\":441:483  _grantRole(DEFAULT_ADMIN_ROLE, msg.sender) */\n  jump\t// in\ntag_8:\n    /* \"MintNagaKids.sol\":494:527  changeNagaKidsContract(_nagaKids) */\n  tag_10\n    /* \"MintNagaKids.sol\":517:526  _nagaKids */\n  dup2\n    /* \"MintNagaKids.sol\":494:516  changeNagaKidsContract */\n  tag_11\n    /* \"MintNagaKids.sol\":494:527  changeNagaKidsContract(_nagaKids) */\n  jump\t// in\ntag_10:\n    /* \"MintNagaKids.sol\":394:535  constructor(INagaKidsNFT _nagaKids) {... */\n  pop\n    /* \"MintNagaKids.sol\":217:1674  contract MintNagaKids is AccessControl, ReentrancyGuard {... */\n  jump(tag_69)\n    /* \"@openzeppelin/contracts/access/AccessControl.sol\":7244:7477  function _grantRole(bytes32 role, address account) internal virtual {... */\ntag_9:\n    /* \"@openzeppelin/contracts/access/AccessControl.sol\":2981:2985  bool */\n  0x00\n    /* \"@openzeppelin/contracts/access/AccessControl.sol\":3004:3016  _roles[role] */\n  dup3\n  dup2\n  mstore\n  0x20\n  dup2\n  dup2\n  mstore\n  0x40\n  dup1\n  dup4\n  keccak256\n  sub(shl(0xa0, 0x01), 0x01)\n    /* \"@openzeppelin/contracts/access/AccessControl.sol\":3004:3033  _roles[role].members[account] */\n  dup6\n  and\n  dup5\n  mstore\n  swap1\n  swap2\n  mstore\n  swap1\n  keccak256\n  sload\n  0xff\n  and\n    /* \"@openzeppelin/contracts/access/AccessControl.sol\":7322:7471  if (!hasRole(role, account)) {... */\n  tag_16\n  jumpi\n    /* \"@openzeppelin/contracts/access/AccessControl.sol\":7365:7371  _roles */\n  0x00\n    /* \"@openzeppelin/contracts/access/AccessControl.sol\":7365:7377  _roles[role] */\n  dup3\n  dup2\n  mstore\n  0x20\n  dup2\n  dup2\n  mstore\n  0x40\n  dup1\n  dup4\n  keccak256\n  sub(shl(0xa0, 0x01), 0x01)\n    /* \"@openzeppelin/contracts/access/AccessControl.sol\":7365:7394  _roles[role].members[account] */\n  dup6\n  and\n  dup5\n  mstore\n  swap1\n  swap2\n  mstore\n  swap1\n  keccak256\n    /* \"@openzeppelin/contracts/access/AccessControl.sol\":7365:7401  _roles[role].members[account] = true */\n  dup1\n  sload\n  not(0xff)\n  and\n    /* \"@openzeppelin/contracts/access/AccessControl.sol\":7397:7401  true */\n  0x01\n    /* \"@openzeppelin/contracts/access/AccessControl.sol\":7365:7401  _roles[role].members[account] = true */\n  or\n  swap1\n  sstore\n    /* \"@openzeppelin/contracts/access/AccessControl.sol\":7447:7459  _msgSender() */\n  tag_17\n    /* \"@openzeppelin/contracts/utils/Context.sol\":719:729  msg.sender */\n  caller\n  swap1\n    /* \"@openzeppelin/contracts/utils/Context.sol\":640:736  function _msgSender() internal view virtual returns (address) {... */\n  jump\n    /* \"@openzeppelin/contracts/access/AccessControl.sol\":7447:7459  _msgSender() */\ntag_17:\n  sub(shl(0xa0, 0x01), 0x01)\n    /* \"@openzeppelin/contracts/access/AccessControl.sol\":7420:7460  RoleGranted(role, account, _msgSender()) */\n  and\n    /* \"@openzeppelin/contracts/access/AccessControl.sol\":7438:7445  account */\n  dup2\n  sub(shl(0xa0, 0x01), 0x01)\n    /* \"@openzeppelin/contracts/access/AccessControl.sol\":7420:7460  RoleGranted(role, account, _msgSender()) */\n  and\n    /* \"@openzeppelin/contracts/access/AccessControl.sol\":7432:7436  role */\n  dup4\n    /* \"@openzeppelin/contracts/access/AccessControl.sol\":7420:7460  RoleGranted(role, account, _msgSender()) */\n  0x2f8788117e7eff1d82e926ec794901d17c78024a50270940304540a733656f0d\n  mload(0x40)\n  mload(0x40)\n  dup1\n  swap2\n  sub\n  swap1\n  log4\n    /* \"@openzeppelin/contracts/access/AccessControl.sol\":7322:7471  if (!hasRole(role, account)) {... */\ntag_16:\n    /* \"@openzeppelin/contracts/access/AccessControl.sol\":7244:7477  function _grantRole(bytes32 role, address account) internal virtual {... */\n  pop\n  pop\n  jump\t// out\n    /* \"MintNagaKids.sol\":650:812  function changeNagaKidsContract(INagaKidsNFT _nagaKids)... */\ntag_11:\n    /* \"@openzeppelin/contracts/access/AccessControl.sol\":2072:2076  0x00 */\n  0x00\n    /* \"@openzeppelin/contracts/access/AccessControl.sol\":2505:2521  _checkRole(role) */\n  tag_20\n    /* \"@openzeppelin/contracts/access/AccessControl.sol\":2072:2076  0x00 */\n  dup2\n    /* \"@openzeppelin/contracts/access/AccessControl.sol\":2505:2515  _checkRole */\n  tag_21\n    /* \"@openzeppelin/contracts/access/AccessControl.sol\":2505:2521  _checkRole(role) */\n  jump\t// in\ntag_20:\n  pop\n    /* \"MintNagaKids.sol\":776:792  nagaKidsContract */\n  0x02\n    /* \"MintNagaKids.sol\":776:804  nagaKidsContract = _nagaKids */\n  dup1\n  sload\n  not(sub(shl(0xa0, 0x01), 0x01))\n  and\n  sub(shl(0xa0, 0x01), 0x01)\n  swap3\n  swap1\n  swap3\n  and\n  swap2\n  swap1\n  swap2\n  or\n  swap1\n  sstore\n    /* \"MintNagaKids.sol\":650:812  function changeNagaKidsContract(INagaKidsNFT _nagaKids)... */\n  jump\t// out\n    /* \"@openzeppelin/contracts/access/AccessControl.sol\":3334:3437  function _checkRole(bytes32 role) internal view virtual {... */\ntag_21:\n    /* \"@openzeppelin/contracts/access/AccessControl.sol\":3400:3430  _checkRole(role, _msgSender()) */\n  tag_26\n    /* \"@openzeppelin/contracts/access/AccessControl.sol\":3411:3415  role */\n  dup2\n    /* \"@openzeppelin/contracts/utils/Context.sol\":719:729  msg.sender */\n  caller\n    /* \"@openzeppelin/contracts/access/AccessControl.sol\":3400:3410  _checkRole */\n  tag_28\n    /* \"@openzeppelin/contracts/access/AccessControl.sol\":3400:3430  _checkRole(role, _msgSender()) */\n  jump\t// in\ntag_26:\n    /* \"@openzeppelin/contracts/access/AccessControl.sol\":3334:3437  function _checkRole(bytes32 role) internal view virtual {... */\n  pop\n  jump\t// out\n    /* \"@openzeppelin/contracts/access/AccessControl.sol\":3718:4210  function _checkRole(bytes32 role, address account) internal view virtual {... */\ntag_28:\n    /* \"@openzeppelin/contracts/access/AccessControl.sol\":2981:2985  bool */\n  0x00\n    /* \"@openzeppelin/contracts/access/AccessControl.sol\":3004:3016  _roles[role] */\n  dup3\n  dup2\n  mstore\n  0x20\n  dup2\n  dup2\n  mstore\n  0x40\n  dup1\n  dup4\n  keccak256\n  sub(shl(0xa0, 0x01), 0x01)\n    /* \"@openzeppelin/contracts/access/AccessControl.sol\":3004:3033  _roles[role].members[account] */\n  dup6\n  and\n  dup5\n  mstore\n  swap1\n  swap2\n  mstore\n  swap1\n  keccak256\n  sload\n  0xff\n  and\n    /* \"@openzeppelin/contracts/access/AccessControl.sol\":3801:4204  if (!hasRole(role, account)) {... */\n  tag_16\n  jumpi\n    /* \"@openzeppelin/contracts/access/AccessControl.sol\":3989:4030  Strings.toHexString(uint160(account), 20) */\n  tag_32\n    /* \"@openzeppelin/contracts/access/AccessControl.sol\":4017:4024  account */\n  dup2\n  sub(shl(0xa0, 0x01), 0x01)\n    /* \"@openzeppelin/contracts/access/AccessControl.sol\":3989:4030  Strings.toHexString(uint160(account), 20) */\n  and\n    /* \"@openzeppelin/contracts/access/AccessControl.sol\":4027:4029  20 */\n  0x14\n    /* \"@openzeppelin/contracts/access/AccessControl.sol\":3989:4008  Strings.toHexString */\n  or(tag_0_100, shl(0x20, tag_33))\n    /* \"@openzeppelin/contracts/access/AccessControl.sol\":3989:4030  Strings.toHexString(uint160(account), 20) */\n  0x20\n  shr\n  jump\t// in\ntag_32:\n    /* \"@openzeppelin/contracts/access/AccessControl.sol\":4101:4139  Strings.toHexString(uint256(role), 32) */\n  tag_34\n    /* \"@openzeppelin/contracts/access/AccessControl.sol\":4129:4133  role */\n  dup4\n    /* \"@openzeppelin/contracts/access/AccessControl.sol\":4136:4138  32 */\n  0x20\n    /* \"@openzeppelin/contracts/access/AccessControl.sol\":4101:4120  Strings.toHexString */\n  tag_0_100\n  tag_33\n  dup3\n  shl\n  or\n    /* \"@openzeppelin/contracts/access/AccessControl.sol\":4101:4139  Strings.toHexString(uint256(role), 32) */\n  dup2\n  shr\n  jump\t// in\ntag_34:\n    /* \"@openzeppelin/contracts/access/AccessControl.sol\":3896:4161  abi.encodePacked(... */\n  add(0x20, mload(0x40))\n  tag_35\n  swap3\n  swap2\n  swap1\n  tag_36\n  jump\t// in\ntag_35:\n  0x40\n  dup1\n  mload\n  not(0x1f)\n  dup2\n  dup5\n  sub\n  add\n  dup2\n  mstore\n  swap1\n  dup3\n  swap1\n  mstore\n  shl(0xe5, 0x461bcd)\n    /* \"@openzeppelin/contracts/access/AccessControl.sol\":3844:4193  revert(... */\n  dup3\n  mstore\n  tag_37\n  swap2\n  0x04\n  add\n  tag_38\n  jump\t// in\ntag_37:\n  mload(0x40)\n  dup1\n  swap2\n  sub\n  swap1\n  revert\n    /* \"@openzeppelin/contracts/utils/Strings.sol\":1588:2029  function toHexString(uint256 value, uint256 length) internal pure returns (string memory) {... */\ntag_33:\n    /* \"@openzeppelin/contracts/utils/Strings.sol\":1663:1676  string memory */\n  0x60\n    /* \"@openzeppelin/contracts/utils/Strings.sol\":1688:1707  bytes memory buffer */\n  0x00\n    /* \"@openzeppelin/contracts/utils/Strings.sol\":1720:1730  2 * length */\n  tag_40\n    /* \"@openzeppelin/contracts/utils/Strings.sol\":1724:1730  length */\n  dup4\n    /* \"@openzeppelin/contracts/utils/Strings.sol\":1720:1721  2 */\n  0x02\n    /* \"@openzeppelin/contracts/utils/Strings.sol\":1720:1730  2 * length */\n  tag_41\n  jump\t// in\ntag_40:\n    /* \"@openzeppelin/contracts/utils/Strings.sol\":1720:1734  2 * length + 2 */\n  tag_42\n  swap1\n    /* \"@openzeppelin/contracts/utils/Strings.sol\":1733:1734  2 */\n  0x02\n    /* \"@openzeppelin/contracts/utils/Strings.sol\":1720:1734  2 * length + 2 */\n  tag_43\n  jump\t// in\ntag_42:\n  sub(shl(0x40, 0x01), 0x01)\n    /* \"@openzeppelin/contracts/utils/Strings.sol\":1710:1735  new bytes(2 * length + 2) */\n  dup2\n  gt\n  iszero\n  tag_45\n  jumpi\n  tag_45\n  tag_46\n  jump\t// in\ntag_45:\n  mload(0x40)\n  swap1\n  dup1\n  dup3\n  mstore\n  dup1\n  0x1f\n  add\n  not(0x1f)\n  and\n  0x20\n  add\n  dup3\n  add\n  0x40\n  mstore\n  dup1\n  iszero\n  tag_47\n  jumpi\n  0x20\n  dup3\n  add\n  dup2\n  dup1\n  calldatasize\n  dup4\n  calldatacopy\n  add\n  swap1\n  pop\ntag_47:\n  pop\n    /* \"@openzeppelin/contracts/utils/Strings.sol\":1688:1735  bytes memory buffer = new bytes(2 * length + 2) */\n  swap1\n  pop\n  shl(0xfc, 0x03)\n    /* \"@openzeppelin/contracts/utils/Strings.sol\":1745:1751  buffer */\n  dup2\n    /* \"@openzeppelin/contracts/utils/Strings.sol\":1752:1753  0 */\n  0x00\n    /* \"@openzeppelin/contracts/utils/Strings.sol\":1745:1754  buffer[0] */\n  dup2\n  mload\n  dup2\n  lt\n  tag_49\n  jumpi\n  tag_49\n  tag_50\n  jump\t// in\ntag_49:\n  0x20\n  add\n  add\n    /* \"@openzeppelin/contracts/utils/Strings.sol\":1745:1760  buffer[0] = \"0\" */\n  swap1\n  not(sub(shl(0xf8, 0x01), 0x01))\n  and\n  swap1\n  dup2\n  0x00\n  byte\n  swap1\n  mstore8\n  pop\n  shl(0xfb, 0x0f)\n    /* \"@openzeppelin/contracts/utils/Strings.sol\":1770:1776  buffer */\n  dup2\n    /* \"@openzeppelin/contracts/utils/Strings.sol\":1777:1778  1 */\n  0x01\n    /* \"@openzeppelin/contracts/utils/Strings.sol\":1770:1779  buffer[1] */\n  dup2\n  mload\n  dup2\n  lt\n  tag_52\n  jumpi\n  tag_52\n  tag_50\n  jump\t// in\ntag_52:\n  0x20\n  add\n  add\n    /* \"@openzeppelin/contracts/utils/Strings.sol\":1770:1785  buffer[1] = \"x\" */\n  swap1\n  not(sub(shl(0xf8, 0x01), 0x01))\n  and\n  swap1\n  dup2\n  0x00\n  byte\n  swap1\n  mstore8\n  pop\n    /* \"@openzeppelin/contracts/utils/Strings.sol\":1800:1809  uint256 i */\n  0x00\n    /* \"@openzeppelin/contracts/utils/Strings.sol\":1812:1822  2 * length */\n  tag_56\n    /* \"@openzeppelin/contracts/utils/Strings.sol\":1816:1822  length */\n  dup5\n    /* \"@openzeppelin/contracts/utils/Strings.sol\":1812:1813  2 */\n  0x02\n    /* \"@openzeppelin/contracts/utils/Strings.sol\":1812:1822  2 * length */\n  tag_41\n  jump\t// in\ntag_56:\n    /* \"@openzeppelin/contracts/utils/Strings.sol\":1812:1826  2 * length + 1 */\n  tag_57\n  swap1\n    /* \"@openzeppelin/contracts/utils/Strings.sol\":1825:1826  1 */\n  0x01\n    /* \"@openzeppelin/contracts/utils/Strings.sol\":1812:1826  2 * length + 1 */\n  tag_43\n  jump\t// in\ntag_57:\n    /* \"@openzeppelin/contracts/utils/Strings.sol\":1800:1826  uint256 i = 2 * length + 1 */\n  swap1\n  pop\n    /* \"@openzeppelin/contracts/utils/Strings.sol\":1795:1927  for (uint256 i = 2 * length + 1; i > 1; --i) {... */\ntag_53:\n    /* \"@openzeppelin/contracts/utils/Strings.sol\":1832:1833  1 */\n  0x01\n    /* \"@openzeppelin/contracts/utils/Strings.sol\":1828:1829  i */\n  dup2\n    /* \"@openzeppelin/contracts/utils/Strings.sol\":1828:1833  i > 1 */\n  gt\n    /* \"@openzeppelin/contracts/utils/Strings.sol\":1795:1927  for (uint256 i = 2 * length + 1; i > 1; --i) {... */\n  iszero\n  tag_54\n  jumpi\n  shl(0x81, 0x181899199a1a9b1b9c1cb0b131b232b3)\n    /* \"@openzeppelin/contracts/utils/Strings.sol\":1879:1884  value */\n  dup6\n    /* \"@openzeppelin/contracts/utils/Strings.sol\":1887:1890  0xf */\n  0x0f\n    /* \"@openzeppelin/contracts/utils/Strings.sol\":1879:1890  value & 0xf */\n  and\n    /* \"@openzeppelin/contracts/utils/Strings.sol\":1866:1891  _HEX_SYMBOLS[value & 0xf] */\n  0x10\n  dup2\n  lt\n  tag_59\n  jumpi\n  tag_59\n  tag_50\n  jump\t// in\ntag_59:\n  byte\n  0xf8\n  shl\n    /* \"@openzeppelin/contracts/utils/Strings.sol\":1854:1860  buffer */\n  dup3\n    /* \"@openzeppelin/contracts/utils/Strings.sol\":1861:1862  i */\n  dup3\n    /* \"@openzeppelin/contracts/utils/Strings.sol\":1854:1863  buffer[i] */\n  dup2\n  mload\n  dup2\n  lt\n  tag_61\n  jumpi\n  tag_61\n  tag_50\n  jump\t// in\ntag_61:\n  0x20\n  add\n  add\n    /* \"@openzeppelin/contracts/utils/Strings.sol\":1854:1891  buffer[i] = _HEX_SYMBOLS[value & 0xf] */\n  swap1\n  not(sub(shl(0xf8, 0x01), 0x01))\n  and\n  swap1\n  dup2\n  0x00\n  byte\n  swap1\n  mstore8\n  pop\n    /* \"@openzeppelin/contracts/utils/Strings.sol\":1915:1916  4 */\n  0x04\n    /* \"@openzeppelin/contracts/utils/Strings.sol\":1905:1916  value >>= 4 */\n  swap5\n  swap1\n  swap5\n  shr\n  swap4\n    /* \"@openzeppelin/contracts/utils/Strings.sol\":1835:1838  --i */\n  tag_62\n  dup2\n  tag_63\n  jump\t// in\ntag_62:\n  swap1\n  pop\n    /* \"@openzeppelin/contracts/utils/Strings.sol\":1795:1927  for (uint256 i = 2 * length + 1; i > 1; --i) {... */\n  jump(tag_53)\ntag_54:\n  pop\n    /* \"@openzeppelin/contracts/utils/Strings.sol\":1944:1954  value == 0 */\n  dup4\n  iszero\n    /* \"@openzeppelin/contracts/utils/Strings.sol\":1936:1991  require(value == 0, \"Strings: hex length insufficient\") */\n  tag_64\n  jumpi\n  mload(0x40)\n  shl(0xe5, 0x461bcd)\n  dup2\n  mstore\n    /* \"#utility.yul\":2816:2818   */\n  0x20\n    /* \"@openzeppelin/contracts/utils/Strings.sol\":1936:1991  require(value == 0, \"Strings: hex length insufficient\") */\n  0x04\n  dup3\n  add\n    /* \"#utility.yul\":2798:2819   */\n  dup2\n  swap1\n  mstore\n    /* \"#utility.yul\":2835:2853   */\n  0x24\n  dup3\n  add\n    /* \"#utility.yul\":2828:2858   */\n  mstore\n    /* \"#utility.yul\":2894:2928   */\n  0x537472696e67733a20686578206c656e67746820696e73756666696369656e74\n    /* \"#utility.yul\":2874:2892   */\n  0x44\n  dup3\n  add\n    /* \"#utility.yul\":2867:2929   */\n  mstore\n    /* \"#utility.yul\":2946:2964   */\n  0x64\n  add\n    /* \"@openzeppelin/contracts/utils/Strings.sol\":1936:1991  require(value == 0, \"Strings: hex length insufficient\") */\n  tag_37\n    /* \"#utility.yul\":2614:2970   */\n  jump\n    /* \"@openzeppelin/contracts/utils/Strings.sol\":1936:1991  require(value == 0, \"Strings: hex length insufficient\") */\ntag_64:\n    /* \"@openzeppelin/contracts/utils/Strings.sol\":2015:2021  buffer */\n  swap4\n    /* \"@openzeppelin/contracts/utils/Strings.sol\":1588:2029  function toHexString(uint256 value, uint256 length) internal pure returns (string memory) {... */\n  swap3\n  pop\n  pop\n  pop\n  jump\t// out\n    /* \"#utility.yul\":14:324   */\ntag_3:\n    /* \"#utility.yul\":104:110   */\n  0x00\n    /* \"#utility.yul\":157:159   */\n  0x20\n    /* \"#utility.yul\":145:154   */\n  dup3\n    /* \"#utility.yul\":136:143   */\n  dup5\n    /* \"#utility.yul\":132:155   */\n  sub\n    /* \"#utility.yul\":128:160   */\n  slt\n    /* \"#utility.yul\":125:177   */\n  iszero\n  tag_71\n  jumpi\n    /* \"#utility.yul\":173:174   */\n  0x00\n    /* \"#utility.yul\":170:171   */\n  dup1\n    /* \"#utility.yul\":163:175   */\n  revert\n    /* \"#utility.yul\":125:177   */\ntag_71:\n    /* \"#utility.yul\":199:215   */\n  dup2\n  mload\n  sub(shl(0xa0, 0x01), 0x01)\n    /* \"#utility.yul\":244:275   */\n  dup2\n  and\n    /* \"#utility.yul\":234:276   */\n  dup2\n  eq\n    /* \"#utility.yul\":224:294   */\n  tag_64\n  jumpi\n    /* \"#utility.yul\":290:291   */\n  0x00\n    /* \"#utility.yul\":287:288   */\n  dup1\n    /* \"#utility.yul\":280:292   */\n  revert\n    /* \"#utility.yul\":329:587   */\ntag_67:\n    /* \"#utility.yul\":401:402   */\n  0x00\n    /* \"#utility.yul\":411:524   */\ntag_74:\n    /* \"#utility.yul\":425:431   */\n  dup4\n    /* \"#utility.yul\":422:423   */\n  dup2\n    /* \"#utility.yul\":419:432   */\n  lt\n    /* \"#utility.yul\":411:524   */\n  iszero\n  tag_76\n  jumpi\n    /* \"#utility.yul\":501:512   */\n  dup2\n  dup2\n  add\n    /* \"#utility.yul\":495:513   */\n  mload\n    /* \"#utility.yul\":482:493   */\n  dup4\n  dup3\n  add\n    /* \"#utility.yul\":475:514   */\n  mstore\n    /* \"#utility.yul\":447:449   */\n  0x20\n    /* \"#utility.yul\":440:450   */\n  add\n    /* \"#utility.yul\":411:524   */\n  jump(tag_74)\ntag_76:\n    /* \"#utility.yul\":542:548   */\n  dup4\n    /* \"#utility.yul\":539:540   */\n  dup2\n    /* \"#utility.yul\":536:549   */\n  gt\n    /* \"#utility.yul\":533:581   */\n  iszero\n  tag_77\n  jumpi\n    /* \"#utility.yul\":577:578   */\n  0x00\n    /* \"#utility.yul\":568:574   */\n  dup5\n    /* \"#utility.yul\":563:566   */\n  dup5\n    /* \"#utility.yul\":559:575   */\n  add\n    /* \"#utility.yul\":552:579   */\n  mstore\n    /* \"#utility.yul\":533:581   */\ntag_77:\n  pop\n    /* \"#utility.yul\":329:587   */\n  pop\n  pop\n  pop\n  jump\t// out\n    /* \"#utility.yul\":592:1378   */\ntag_36:\n    /* \"#utility.yul\":1003:1028   */\n  0x416363657373436f6e74726f6c3a206163636f756e7420000000000000000000\n    /* \"#utility.yul\":998:1001   */\n  dup2\n    /* \"#utility.yul\":991:1029   */\n  mstore\n    /* \"#utility.yul\":973:976   */\n  0x00\n    /* \"#utility.yul\":1058:1064   */\n  dup4\n    /* \"#utility.yul\":1052:1065   */\n  mload\n    /* \"#utility.yul\":1074:1136   */\n  tag_79\n    /* \"#utility.yul\":1129:1135   */\n  dup2\n    /* \"#utility.yul\":1124:1126   */\n  0x17\n    /* \"#utility.yul\":1119:1122   */\n  dup6\n    /* \"#utility.yul\":1115:1127   */\n  add\n    /* \"#utility.yul\":1108:1112   */\n  0x20\n    /* \"#utility.yul\":1100:1106   */\n  dup9\n    /* \"#utility.yul\":1096:1113   */\n  add\n    /* \"#utility.yul\":1074:1136   */\n  tag_67\n  jump\t// in\ntag_79:\n  shl(0x7d, 0x01034b99036b4b9b9b4b733903937b6329)\n    /* \"#utility.yul\":1195:1197   */\n  0x17\n    /* \"#utility.yul\":1155:1171   */\n  swap2\n  dup5\n  add\n    /* \"#utility.yul\":1187:1198   */\n  swap2\n  dup3\n  add\n    /* \"#utility.yul\":1180:1220   */\n  mstore\n    /* \"#utility.yul\":1245:1258   */\n  dup4\n  mload\n    /* \"#utility.yul\":1267:1330   */\n  tag_80\n    /* \"#utility.yul\":1245:1258   */\n  dup2\n    /* \"#utility.yul\":1316:1318   */\n  0x28\n    /* \"#utility.yul\":1308:1319   */\n  dup5\n  add\n    /* \"#utility.yul\":1301:1305   */\n  0x20\n    /* \"#utility.yul\":1289:1306   */\n  dup9\n  add\n    /* \"#utility.yul\":1267:1330   */\n  tag_67\n  jump\t// in\ntag_80:\n    /* \"#utility.yul\":1350:1367   */\n  add\n    /* \"#utility.yul\":1369:1371   */\n  0x28\n    /* \"#utility.yul\":1346:1372   */\n  add\n  swap5\n    /* \"#utility.yul\":592:1378   */\n  swap4\n  pop\n  pop\n  pop\n  pop\n  jump\t// out\n    /* \"#utility.yul\":1383:1766   */\ntag_38:\n    /* \"#utility.yul\":1532:1534   */\n  0x20\n    /* \"#utility.yul\":1521:1530   */\n  dup2\n    /* \"#utility.yul\":1514:1535   */\n  mstore\n    /* \"#utility.yul\":1495:1499   */\n  0x00\n    /* \"#utility.yul\":1564:1570   */\n  dup3\n    /* \"#utility.yul\":1558:1571   */\n  mload\n    /* \"#utility.yul\":1607:1613   */\n  dup1\n    /* \"#utility.yul\":1602:1604   */\n  0x20\n    /* \"#utility.yul\":1591:1600   */\n  dup5\n    /* \"#utility.yul\":1587:1605   */\n  add\n    /* \"#utility.yul\":1580:1614   */\n  mstore\n    /* \"#utility.yul\":1623:1689   */\n  tag_82\n    /* \"#utility.yul\":1682:1688   */\n  dup2\n    /* \"#utility.yul\":1677:1679   */\n  0x40\n    /* \"#utility.yul\":1666:1675   */\n  dup6\n    /* \"#utility.yul\":1662:1680   */\n  add\n    /* \"#utility.yul\":1657:1659   */\n  0x20\n    /* \"#utility.yul\":1649:1655   */\n  dup8\n    /* \"#utility.yul\":1645:1660   */\n  add\n    /* \"#utility.yul\":1623:1689   */\n  tag_67\n  jump\t// in\ntag_82:\n    /* \"#utility.yul\":1750:1752   */\n  0x1f\n    /* \"#utility.yul\":1729:1744   */\n  add\n  not(0x1f)\n    /* \"#utility.yul\":1725:1754   */\n  and\n    /* \"#utility.yul\":1710:1755   */\n  swap2\n  swap1\n  swap2\n  add\n    /* \"#utility.yul\":1757:1759   */\n  0x40\n    /* \"#utility.yul\":1706:1760   */\n  add\n  swap3\n    /* \"#utility.yul\":1383:1766   */\n  swap2\n  pop\n  pop\n  jump\t// out\n    /* \"#utility.yul\":1771:1898   */\ntag_68:\n    /* \"#utility.yul\":1832:1842   */\n  0x4e487b71\n    /* \"#utility.yul\":1827:1830   */\n  0xe0\n    /* \"#utility.yul\":1823:1843   */\n  shl\n    /* \"#utility.yul\":1820:1821   */\n  0x00\n    /* \"#utility.yul\":1813:1844   */\n  mstore\n    /* \"#utility.yul\":1863:1867   */\n  0x11\n    /* \"#utility.yul\":1860:1861   */\n  0x04\n    /* \"#utility.yul\":1853:1868   */\n  mstore\n    /* \"#utility.yul\":1887:1891   */\n  0x24\n    /* \"#utility.yul\":1884:1885   */\n  0x00\n    /* \"#utility.yul\":1877:1892   */\n  revert\n    /* \"#utility.yul\":1903:2071   */\ntag_41:\n    /* \"#utility.yul\":1943:1950   */\n  0x00\n    /* \"#utility.yul\":2009:2010   */\n  dup2\n    /* \"#utility.yul\":2005:2006   */\n  0x00\n    /* \"#utility.yul\":2001:2007   */\n  not\n    /* \"#utility.yul\":1997:2011   */\n  div\n    /* \"#utility.yul\":1994:1995   */\n  dup4\n    /* \"#utility.yul\":1991:2012   */\n  gt\n    /* \"#utility.yul\":1986:1987   */\n  dup3\n    /* \"#utility.yul\":1979:1988   */\n  iszero\n    /* \"#utility.yul\":1972:1989   */\n  iszero\n    /* \"#utility.yul\":1968:2013   */\n  and\n    /* \"#utility.yul\":1965:2036   */\n  iszero\n  tag_86\n  jumpi\n    /* \"#utility.yul\":2016:2034   */\n  tag_86\n  tag_68\n  jump\t// in\ntag_86:\n  pop\n    /* \"#utility.yul\":2056:2065   */\n  mul\n  swap1\n    /* \"#utility.yul\":1903:2071   */\n  jump\t// out\n    /* \"#utility.yul\":2076:2204   */\ntag_43:\n    /* \"#utility.yul\":2116:2119   */\n  0x00\n    /* \"#utility.yul\":2147:2148   */\n  dup3\n    /* \"#utility.yul\":2143:2149   */\n  not\n    /* \"#utility.yul\":2140:2141   */\n  dup3\n    /* \"#utility.yul\":2137:2150   */\n  gt\n    /* \"#utility.yul\":2134:2173   */\n  iszero\n  tag_89\n  jumpi\n    /* \"#utility.yul\":2153:2171   */\n  tag_89\n  tag_68\n  jump\t// in\ntag_89:\n  pop\n    /* \"#utility.yul\":2189:2198   */\n  add\n  swap1\n    /* \"#utility.yul\":2076:2204   */\n  jump\t// out\n    /* \"#utility.yul\":2209:2336   */\ntag_46:\n    /* \"#utility.yul\":2270:2280   */\n  0x4e487b71\n    /* \"#utility.yul\":2265:2268   */\n  0xe0\n    /* \"#utility.yul\":2261:2281   */\n  shl\n    /* \"#utility.yul\":2258:2259   */\n  0x00\n    /* \"#utility.yul\":2251:2282   */\n  mstore\n    /* \"#utility.yul\":2301:2305   */\n  0x41\n    /* \"#utility.yul\":2298:2299   */\n  0x04\n    /* \"#utility.yul\":2291:2306   */\n  mstore\n    /* \"#utility.yul\":2325:2329   */\n  0x24\n    /* \"#utility.yul\":2322:2323   */\n  0x00\n    /* \"#utility.yul\":2315:2330   */\n  revert\n    /* \"#utility.yul\":2341:2468   */\ntag_50:\n    /* \"#utility.yul\":2402:2412   */\n  0x4e487b71\n    /* \"#utility.yul\":2397:2400   */\n  0xe0\n    /* \"#utility.yul\":2393:2413   */\n  shl\n    /* \"#utility.yul\":2390:2391   */\n  0x00\n    /* \"#utility.yul\":2383:2414   */\n  mstore\n    /* \"#utility.yul\":2433:2437   */\n  0x32\n    /* \"#utility.yul\":2430:2431   */\n  0x04\n    /* \"#utility.yul\":2423:2438   */\n  mstore\n    /* \"#utility.yul\":2457:2461   */\n  0x24\n    /* \"#utility.yul\":2454:2455   */\n  0x00\n    /* \"#utility.yul\":2447:2462   */\n  revert\n    /* \"#utility.yul\":2473:2609   */\ntag_63:\n    /* \"#utility.yul\":2512:2515   */\n  0x00\n    /* \"#utility.yul\":2540:2545   */\n  dup2\n    /* \"#utility.yul\":2530:2569   */\n  tag_94\n  jumpi\n    /* \"#utility.yul\":2549:2567   */\n  tag_94\n  tag_68\n  jump\t// in\ntag_94:\n  pop\n  not(0x00)\n    /* \"#utility.yul\":2585:2603   */\n  add\n  swap1\n    /* \"#utility.yul\":2473:2609   */\n  jump\t// out\n    /* \"#utility.yul\":2614:2970   */\ntag_69:\n    /* \"MintNagaKids.sol\":217:1674  contract MintNagaKids is AccessControl, ReentrancyGuard {... */\n  dataSize(sub_0)\n  dup1\n  dataOffset(sub_0)\n  0x00\n  codecopy\n  0x00\n  return\nstop\n\nsub_0: assembly {\n        /* \"MintNagaKids.sol\":217:1674  contract MintNagaKids is AccessControl, ReentrancyGuard {... */\n      mstore(0x40, 0x80)\n      jumpi(tag_1, lt(calldatasize, 0x04))\n      shr(0xe0, calldataload(0x00))\n      dup1\n      0x804f43cd\n      gt\n      tag_19\n      jumpi\n      dup1\n      0xa6f5f014\n      gt\n      tag_20\n      jumpi\n      dup1\n      0xa6f5f014\n      eq\n      tag_14\n      jumpi\n      dup1\n      0xc4e41b22\n      eq\n      tag_15\n      jumpi\n      dup1\n      0xd547741f\n      eq\n      tag_16\n      jumpi\n      dup1\n      0xdd31a7ba\n      eq\n      tag_17\n      jumpi\n      dup1\n      0xff0938a7\n      eq\n      tag_18\n      jumpi\n      0x00\n      dup1\n      revert\n    tag_20:\n      dup1\n      0x804f43cd\n      eq\n      tag_10\n      jumpi\n      dup1\n      0x91d14854\n      eq\n      tag_11\n      jumpi\n      dup1\n      0x94f4504d\n      eq\n      tag_12\n      jumpi\n      dup1\n      0xa217fddf\n      eq\n      tag_13\n      jumpi\n      0x00\n      dup1\n      revert\n    tag_19:\n      dup1\n      0x2f2ff15d\n      gt\n      tag_21\n      jumpi\n      dup1\n      0x2f2ff15d\n      eq\n      tag_6\n      jumpi\n      dup1\n      0x36568abe\n      eq\n      tag_7\n      jumpi\n      dup1\n      0x4c0f38c2\n      eq\n      tag_8\n      jumpi\n      dup1\n      0x61aec205\n      eq\n      tag_9\n      jumpi\n      0x00\n      dup1\n      revert\n    tag_21:\n      dup1\n      0x01ffc9a7\n      eq\n      tag_2\n      jumpi\n      dup1\n      0x248a9ca3\n      eq\n      tag_3\n      jumpi\n      dup1\n      0x27c25c20\n      eq\n      tag_4\n      jumpi\n      dup1\n      0x28438f68\n      eq\n      tag_5\n      jumpi\n    tag_1:\n      0x00\n      dup1\n      revert\n        /* \"@openzeppelin/contracts/access/AccessControl.sol\":2606:2808  function supportsInterface(bytes4 interfaceId) public view virtual override returns (bool) {... */\n    tag_2:\n      callvalue\n      dup1\n      iszero\n      tag_22\n      jumpi\n      0x00\n      dup1\n      revert\n    tag_22:\n      pop\n      tag_23\n      tag_24\n      calldatasize\n      0x04\n      tag_25\n      jump\t// in\n    tag_24:\n      tag_26\n      jump\t// in\n    tag_23:\n      mload(0x40)\n        /* \"#utility.yul\":470:484   */\n      swap1\n      iszero\n        /* \"#utility.yul\":463:485   */\n      iszero\n        /* \"#utility.yul\":445:486   */\n      dup2\n      mstore\n        /* \"#utility.yul\":433:435   */\n      0x20\n        /* \"#utility.yul\":418:436   */\n      add\n        /* \"@openzeppelin/contracts/access/AccessControl.sol\":2606:2808  function supportsInterface(bytes4 interfaceId) public view virtual override returns (bool) {... */\n    tag_27:\n      mload(0x40)\n      dup1\n      swap2\n      sub\n      swap1\n      return\n        /* \"@openzeppelin/contracts/access/AccessControl.sol\":4391:4520  function getRoleAdmin(bytes32 role) public view virtual override returns (bytes32) {... */\n    tag_3:\n      callvalue\n      dup1\n      iszero\n      tag_29\n      jumpi\n      0x00\n      dup1\n      revert\n    tag_29:\n      pop\n      tag_30\n      tag_31\n      calldatasize\n      0x04\n      tag_32\n      jump\t// in\n    tag_31:\n        /* \"@openzeppelin/contracts/access/AccessControl.sol\":4465:4472  bytes32 */\n      0x00\n        /* \"@openzeppelin/contracts/access/AccessControl.sol\":4491:4503  _roles[role] */\n      swap1\n      dup2\n      mstore\n      0x20\n      dup2\n      swap1\n      mstore\n      0x40\n      swap1\n      keccak256\n        /* \"@openzeppelin/contracts/access/AccessControl.sol\":4491:4513  _roles[role].adminRole */\n      0x01\n      add\n      sload\n      swap1\n        /* \"@openzeppelin/contracts/access/AccessControl.sol\":4391:4520  function getRoleAdmin(bytes32 role) public view virtual override returns (bytes32) {... */\n      jump\n    tag_30:\n      mload(0x40)\n        /* \"#utility.yul\":828:853   */\n      swap1\n      dup2\n      mstore\n        /* \"#utility.yul\":816:818   */\n      0x20\n        /* \"#utility.yul\":801:819   */\n      add\n        /* \"@openzeppelin/contracts/access/AccessControl.sol\":4391:4520  function getRoleAdmin(bytes32 role) public view virtual override returns (bytes32) {... */\n      tag_27\n        /* \"#utility.yul\":682:859   */\n      jump\n        /* \"MintNagaKids.sol\":282:318  INagaKidsNFT public nagaKidsContract */\n    tag_4:\n      callvalue\n      dup1\n      iszero\n      tag_36\n      jumpi\n      0x00\n      dup1\n      revert\n    tag_36:\n      pop\n      sload(0x02)\n      tag_37\n      swap1\n      sub(shl(0xa0, 0x01), 0x01)\n      and\n      dup2\n      jump\n    tag_37:\n      mload(0x40)\n      sub(shl(0xa0, 0x01), 0x01)\n        /* \"#utility.yul\":1048:1080   */\n      swap1\n      swap2\n      and\n        /* \"#utility.yul\":1030:1081   */\n      dup2\n      mstore\n        /* \"#utility.yul\":1018:1020   */\n      0x20\n        /* \"#utility.yul\":1003:1021   */\n      add\n        /* \"MintNagaKids.sol\":282:318  INagaKidsNFT public nagaKidsContract */\n      tag_27\n        /* \"#utility.yul\":864:1087   */\n      jump\n        /* \"MintNagaKids.sol\":978:1122  function changeFreeMintOpen(bool _isOpen)... */\n    tag_5:\n      callvalue\n      dup1\n      iszero\n      tag_41\n      jumpi\n      0x00\n      dup1\n      revert\n    tag_41:\n      pop\n      tag_42\n      tag_43\n      calldatasize\n      0x04\n      tag_44\n      jump\t// in\n    tag_43:\n      tag_45\n      jump\t// in\n    tag_42:\n      stop\n        /* \"@openzeppelin/contracts/access/AccessControl.sol\":4770:4915  function grantRole(bytes32 role, address account) public virtual override onlyRole(getRoleAdmin(role)) {... */\n    tag_6:\n      callvalue\n      dup1\n      iszero\n      tag_46\n      jumpi\n      0x00\n      dup1\n      revert\n    tag_46:\n      pop\n      tag_42\n      tag_48\n      calldatasize\n      0x04\n      tag_49\n      jump\t// in\n    tag_48:\n      tag_50\n      jump\t// in\n        /* \"@openzeppelin/contracts/access/AccessControl.sol\":5787:6001  function renounceRole(bytes32 role, address account) public virtual override {... */\n    tag_7:\n      callvalue\n      dup1\n      iszero\n      tag_51\n      jumpi\n      0x00\n      dup1\n      revert\n    tag_51:\n      pop\n      tag_42\n      tag_53\n      calldatasize\n      0x04\n      tag_49\n      jump\t// in\n    tag_53:\n      tag_54\n      jump\t// in\n        /* \"MintNagaKids.sol\":1458:1566  function getMaxSupply() public view returns (uint256) {... */\n    tag_8:\n      callvalue\n      dup1\n      iszero\n      tag_55\n      jumpi\n      0x00\n      dup1\n      revert\n    tag_55:\n      pop\n      tag_30\n      tag_57\n      jump\t// in\n        /* \"MintNagaKids.sol\":650:812  function changeNagaKidsContract(INagaKidsNFT _nagaKids)... */\n    tag_9:\n      callvalue\n      dup1\n      iszero\n      tag_60\n      jumpi\n      0x00\n      dup1\n      revert\n    tag_60:\n      pop\n      tag_42\n      tag_62\n      calldatasize\n      0x04\n      tag_63\n      jump\t// in\n    tag_62:\n      tag_64\n      jump\t// in\n        /* \"MintNagaKids.sol\":1130:1330  function whitelistMint() public payable nonReentrant Paused {... */\n    tag_10:\n      tag_42\n      tag_66\n      jump\t// in\n        /* \"@openzeppelin/contracts/access/AccessControl.sol\":2895:3040  function hasRole(bytes32 role, address account) public view virtual override returns (bool) {... */\n    tag_11:\n      callvalue\n      dup1\n      iszero\n      tag_67\n      jumpi\n      0x00\n      dup1\n      revert\n    tag_67:\n      pop\n      tag_23\n      tag_69\n      calldatasize\n      0x04\n      tag_49\n      jump\t// in\n    tag_69:\n      tag_70\n      jump\t// in\n        /* \"MintNagaKids.sol\":358:385  bool public isWhitelistOpen */\n    tag_12:\n      callvalue\n      dup1\n      iszero\n      tag_72\n      jumpi\n      0x00\n      dup1\n      revert\n    tag_72:\n      pop\n      sload(0x02)\n      tag_23\n      swap1\n      shl(0xa8, 0x01)\n      swap1\n      div\n      0xff\n      and\n      dup2\n      jump\n        /* \"@openzeppelin/contracts/access/AccessControl.sol\":2027:2076  bytes32 public constant DEFAULT_ADMIN_ROLE = 0x00 */\n    tag_13:\n      callvalue\n      dup1\n      iszero\n      tag_76\n      jumpi\n      0x00\n      dup1\n      revert\n    tag_76:\n      pop\n      tag_30\n        /* \"@openzeppelin/contracts/access/AccessControl.sol\":2072:2076  0x00 */\n      0x00\n        /* \"@openzeppelin/contracts/access/AccessControl.sol\":2027:2076  bytes32 public constant DEFAULT_ADMIN_ROLE = 0x00 */\n      dup2\n      jump\n        /* \"MintNagaKids.sol\":325:351  bool public isFreeMintOpen */\n    tag_14:\n      callvalue\n      dup1\n      iszero\n      tag_80\n      jumpi\n      0x00\n      dup1\n      revert\n    tag_80:\n      pop\n      sload(0x02)\n      tag_23\n      swap1\n      shl(0xa0, 0x01)\n      swap1\n      div\n      0xff\n      and\n      dup2\n      jump\n        /* \"MintNagaKids.sol\":1338:1450  function getTotalSupply() public view returns (uint256) {... */\n    tag_15:\n      callvalue\n      dup1\n      iszero\n      tag_84\n      jumpi\n      0x00\n      dup1\n      revert\n    tag_84:\n      pop\n      tag_30\n      tag_86\n      jump\t// in\n        /* \"@openzeppelin/contracts/access/AccessControl.sol\":5149:5296  function revokeRole(bytes32 role, address account) public virtual override onlyRole(getRoleAdmin(role)) {... */\n    tag_16:\n      callvalue\n      dup1\n      iszero\n      tag_88\n      jumpi\n      0x00\n      dup1\n      revert\n    tag_88:\n      pop\n      tag_42\n      tag_90\n      calldatasize\n      0x04\n      tag_49\n      jump\t// in\n    tag_90:\n      tag_91\n      jump\t// in\n        /* \"MintNagaKids.sol\":820:970  function changeWhitelistMintOpen(bool _isOpen)... */\n    tag_17:\n      callvalue\n      dup1\n      iszero\n      tag_92\n      jumpi\n      0x00\n      dup1\n      revert\n    tag_92:\n      pop\n      tag_42\n      tag_94\n      calldatasize\n      0x04\n      tag_44\n      jump\t// in\n    tag_94:\n      tag_95\n      jump\t// in\n        /* \"MintNagaKids.sol\":1574:1671  function isPause() public view returns (bool) {... */\n    tag_18:\n      callvalue\n      dup1\n      iszero\n      tag_96\n      jumpi\n      0x00\n      dup1\n      revert\n    tag_96:\n      pop\n      tag_23\n      tag_98\n      jump\t// in\n        /* \"@openzeppelin/contracts/access/AccessControl.sol\":2606:2808  function supportsInterface(bytes4 interfaceId) public view virtual override returns (bool) {... */\n    tag_26:\n        /* \"@openzeppelin/contracts/access/AccessControl.sol\":2691:2695  bool */\n      0x00\n      not(sub(shl(0xe0, 0x01), 0x01))\n        /* \"@openzeppelin/contracts/access/AccessControl.sol\":2714:2761  interfaceId == type(IAccessControl).interfaceId */\n      dup3\n      and\n      shl(0xe0, 0x7965db0b)\n      eq\n      dup1\n        /* \"@openzeppelin/contracts/access/AccessControl.sol\":2714:2801  interfaceId == type(IAccessControl).interfaceId || super.supportsInterface(interfaceId) */\n      tag_103\n      jumpi\n      pop\n      shl(0xe0, 0x01ffc9a7)\n      not(sub(shl(0xe0, 0x01), 0x01))\n        /* \"@openzeppelin/contracts/utils/introspection/ERC165.sol\":937:977  interfaceId == type(IERC165).interfaceId */\n      dup4\n      and\n      eq\n        /* \"@openzeppelin/contracts/access/AccessControl.sol\":2765:2801  super.supportsInterface(interfaceId) */\n    tag_103:\n        /* \"@openzeppelin/contracts/access/AccessControl.sol\":2707:2801  return interfaceId == type(IAccessControl).interfaceId || super.supportsInterface(interfaceId) */\n      swap3\n        /* \"@openzeppelin/contracts/access/AccessControl.sol\":2606:2808  function supportsInterface(bytes4 interfaceId) public view virtual override returns (bool) {... */\n      swap2\n      pop\n      pop\n      jump\t// out\n        /* \"MintNagaKids.sol\":978:1122  function changeFreeMintOpen(bool _isOpen)... */\n    tag_45:\n        /* \"@openzeppelin/contracts/access/AccessControl.sol\":2072:2076  0x00 */\n      0x00\n        /* \"@openzeppelin/contracts/access/AccessControl.sol\":2505:2521  _checkRole(role) */\n      tag_107\n        /* \"@openzeppelin/contracts/access/AccessControl.sol\":2072:2076  0x00 */\n      dup2\n        /* \"@openzeppelin/contracts/access/AccessControl.sol\":2505:2515  _checkRole */\n      tag_108\n        /* \"@openzeppelin/contracts/access/AccessControl.sol\":2505:2521  _checkRole(role) */\n      jump\t// in\n    tag_107:\n      pop\n        /* \"MintNagaKids.sol\":1090:1104  isFreeMintOpen */\n      0x02\n        /* \"MintNagaKids.sol\":1090:1114  isFreeMintOpen = _isOpen */\n      dup1\n      sload\n      swap2\n      iszero\n      iszero\n      shl(0xa0, 0x01)\n      mul\n      not(shl(0xa0, 0xff))\n      swap1\n      swap3\n      and\n      swap2\n      swap1\n      swap2\n      or\n      swap1\n      sstore\n        /* \"MintNagaKids.sol\":978:1122  function changeFreeMintOpen(bool _isOpen)... */\n      jump\t// out\n        /* \"@openzeppelin/contracts/access/AccessControl.sol\":4770:4915  function grantRole(bytes32 role, address account) public virtual override onlyRole(getRoleAdmin(role)) {... */\n    tag_50:\n        /* \"@openzeppelin/contracts/access/AccessControl.sol\":4465:4472  bytes32 */\n      0x00\n        /* \"@openzeppelin/contracts/access/AccessControl.sol\":4491:4503  _roles[role] */\n      dup3\n      dup2\n      mstore\n      0x20\n      dup2\n      swap1\n      mstore\n      0x40\n      swap1\n      keccak256\n        /* \"@openzeppelin/contracts/access/AccessControl.sol\":4491:4513  _roles[role].adminRole */\n      0x01\n      add\n      sload\n        /* \"@openzeppelin/contracts/access/AccessControl.sol\":2505:2521  _checkRole(role) */\n      tag_112\n        /* \"@openzeppelin/contracts/access/AccessControl.sol\":2516:2520  role */\n      dup2\n        /* \"@openzeppelin/contracts/access/AccessControl.sol\":2505:2515  _checkRole */\n      tag_108\n        /* \"@openzeppelin/contracts/access/AccessControl.sol\":2505:2521  _checkRole(role) */\n      jump\t// in\n    tag_112:\n        /* \"@openzeppelin/contracts/access/AccessControl.sol\":4883:4908  _grantRole(role, account) */\n      tag_114\n        /* \"@openzeppelin/contracts/access/AccessControl.sol\":4894:4898  role */\n      dup4\n        /* \"@openzeppelin/contracts/access/AccessControl.sol\":4900:4907  account */\n      dup4\n        /* \"@openzeppelin/contracts/access/AccessControl.sol\":4883:4893  _grantRole */\n      tag_115\n        /* \"@openzeppelin/contracts/access/AccessControl.sol\":4883:4908  _grantRole(role, account) */\n      jump\t// in\n    tag_114:\n        /* \"@openzeppelin/contracts/access/AccessControl.sol\":4770:4915  function grantRole(bytes32 role, address account) public virtual override onlyRole(getRoleAdmin(role)) {... */\n      pop\n      pop\n      pop\n      jump\t// out\n        /* \"@openzeppelin/contracts/access/AccessControl.sol\":5787:6001  function renounceRole(bytes32 role, address account) public virtual override {... */\n    tag_54:\n      sub(shl(0xa0, 0x01), 0x01)\n        /* \"@openzeppelin/contracts/access/AccessControl.sol\":5882:5905  account == _msgSender() */\n      dup2\n      and\n        /* \"@openzeppelin/contracts/utils/Context.sol\":719:729  msg.sender */\n      caller\n        /* \"@openzeppelin/contracts/access/AccessControl.sol\":5882:5905  account == _msgSender() */\n      eq\n        /* \"@openzeppelin/contracts/access/AccessControl.sol\":5874:5957  require(account == _msgSender(), \"AccessControl: can only renounce roles for self\") */\n      tag_119\n      jumpi\n      mload(0x40)\n      shl(0xe5, 0x461bcd)\n      dup2\n      mstore\n        /* \"#utility.yul\":2573:2575   */\n      0x20\n        /* \"@openzeppelin/contracts/access/AccessControl.sol\":5874:5957  require(account == _msgSender(), \"AccessControl: can only renounce roles for self\") */\n      0x04\n      dup3\n      add\n        /* \"#utility.yul\":2555:2576   */\n      mstore\n        /* \"#utility.yul\":2612:2614   */\n      0x2f\n        /* \"#utility.yul\":2592:2610   */\n      0x24\n      dup3\n      add\n        /* \"#utility.yul\":2585:2615   */\n      mstore\n        /* \"#utility.yul\":2651:2685   */\n      0x416363657373436f6e74726f6c3a2063616e206f6e6c792072656e6f756e6365\n        /* \"#utility.yul\":2631:2649   */\n      0x44\n      dup3\n      add\n        /* \"#utility.yul\":2624:2686   */\n      mstore\n      shl(0x89, 0x103937b632b9903337b91039b2b633)\n        /* \"#utility.yul\":2702:2720   */\n      0x64\n      dup3\n      add\n        /* \"#utility.yul\":2695:2740   */\n      mstore\n        /* \"#utility.yul\":2757:2776   */\n      0x84\n      add\n        /* \"@openzeppelin/contracts/access/AccessControl.sol\":5874:5957  require(account == _msgSender(), \"AccessControl: can only renounce roles for self\") */\n    tag_120:\n      mload(0x40)\n      dup1\n      swap2\n      sub\n      swap1\n      revert\n    tag_119:\n        /* \"@openzeppelin/contracts/access/AccessControl.sol\":5968:5994  _revokeRole(role, account) */\n      tag_122\n        /* \"@openzeppelin/contracts/access/AccessControl.sol\":5980:5984  role */\n      dup3\n        /* \"@openzeppelin/contracts/access/AccessControl.sol\":5986:5993  account */\n      dup3\n        /* \"@openzeppelin/contracts/access/AccessControl.sol\":5968:5979  _revokeRole */\n      tag_123\n        /* \"@openzeppelin/contracts/access/AccessControl.sol\":5968:5994  _revokeRole(role, account) */\n      jump\t// in\n    tag_122:\n        /* \"@openzeppelin/contracts/access/AccessControl.sol\":5787:6001  function renounceRole(bytes32 role, address account) public virtual override {... */\n      pop\n      pop\n      jump\t// out\n        /* \"MintNagaKids.sol\":1458:1566  function getMaxSupply() public view returns (uint256) {... */\n    tag_57:\n        /* \"MintNagaKids.sol\":1530:1546  nagaKidsContract */\n      sload(0x02)\n        /* \"MintNagaKids.sol\":1530:1558  nagaKidsContract.maxSupply() */\n      0x40\n      dup1\n      mload\n      shl(0xe0, 0xd5abeb01)\n      dup2\n      mstore\n      swap1\n      mload\n        /* \"MintNagaKids.sol\":1503:1510  uint256 */\n      0x00\n      swap3\n      sub(shl(0xa0, 0x01), 0x01)\n        /* \"MintNagaKids.sol\":1530:1546  nagaKidsContract */\n      and\n      swap2\n        /* \"MintNagaKids.sol\":1530:1556  nagaKidsContract.maxSupply */\n      0xd5abeb01\n      swap2\n        /* \"MintNagaKids.sol\":1530:1558  nagaKidsContract.maxSupply() */\n      0x04\n      dup1\n      dup4\n      add\n      swap3\n      0x20\n      swap3\n      swap2\n      swap1\n      dup3\n      swap1\n      sub\n      add\n      dup2\n        /* \"MintNagaKids.sol\":1530:1546  nagaKidsContract */\n      dup7\n        /* \"MintNagaKids.sol\":1530:1558  nagaKidsContract.maxSupply() */\n      gas\n      staticcall\n      iszero\n      dup1\n      iszero\n      tag_126\n      jumpi\n      returndatasize\n      0x00\n      dup1\n      returndatacopy\n      revert(0x00, returndatasize)\n    tag_126:\n      pop\n      pop\n      pop\n      pop\n      mload(0x40)\n      returndatasize\n      not(0x1f)\n      0x1f\n      dup3\n      add\n      and\n      dup3\n      add\n      dup1\n      0x40\n      mstore\n      pop\n      dup2\n      add\n      swap1\n      tag_127\n      swap2\n      swap1\n      tag_128\n      jump\t// in\n    tag_127:\n        /* \"MintNagaKids.sol\":1523:1558  return nagaKidsContract.maxSupply() */\n      swap1\n      pop\n        /* \"MintNagaKids.sol\":1458:1566  function getMaxSupply() public view returns (uint256) {... */\n      swap1\n      jump\t// out\n        /* \"MintNagaKids.sol\":650:812  function changeNagaKidsContract(INagaKidsNFT _nagaKids)... */\n    tag_64:\n        /* \"@openzeppelin/contracts/access/AccessControl.sol\":2072:2076  0x00 */\n      0x00\n        /* \"@openzeppelin/contracts/access/AccessControl.sol\":2505:2521  _checkRole(role) */\n      tag_130\n        /* \"@openzeppelin/contracts/access/AccessControl.sol\":2072:2076  0x00 */\n      dup2\n        /* \"@openzeppelin/contracts/access/AccessControl.sol\":2505:2515  _checkRole */\n      tag_108\n        /* \"@openzeppelin/contracts/access/AccessControl.sol\":2505:2521  _checkRole(role) */\n      jump\t// in\n    tag_130:\n      pop\n        /* \"MintNagaKids.sol\":776:792  nagaKidsContract */\n      0x02\n        /* \"MintNagaKids.sol\":776:804  nagaKidsContract = _nagaKids */\n      dup1\n      sload\n      not(sub(shl(0xa0, 0x01), 0x01))\n      and\n      sub(shl(0xa0, 0x01), 0x01)\n      swap3\n      swap1\n      swap3\n      and\n      swap2\n      swap1\n      swap2\n      or\n      swap1\n      sstore\n        /* \"MintNagaKids.sol\":650:812  function changeNagaKidsContract(INagaKidsNFT _nagaKids)... */\n      jump\t// out\n        /* \"MintNagaKids.sol\":1130:1330  function whitelistMint() public payable nonReentrant Paused {... */\n    tag_66:\n        /* \"@openzeppelin/contracts/security/ReentrancyGuard.sol\":1744:1745  2 */\n      0x02\n        /* \"@openzeppelin/contracts/security/ReentrancyGuard.sol\":2325:2332  _status */\n      sload(0x01)\n        /* \"@openzeppelin/contracts/security/ReentrancyGuard.sol\":2325:2344  _status != _ENTERED */\n      sub\n        /* \"@openzeppelin/contracts/security/ReentrancyGuard.sol\":2317:2380  require(_status != _ENTERED, \"ReentrancyGuard: reentrant call\") */\n      tag_133\n      jumpi\n      mload(0x40)\n      shl(0xe5, 0x461bcd)\n      dup2\n      mstore\n        /* \"#utility.yul\":3178:3180   */\n      0x20\n        /* \"@openzeppelin/contracts/security/ReentrancyGuard.sol\":2317:2380  require(_status != _ENTERED, \"ReentrancyGuard: reentrant call\") */\n      0x04\n      dup3\n      add\n        /* \"#utility.yul\":3160:3181   */\n      mstore\n        /* \"#utility.yul\":3217:3219   */\n      0x1f\n        /* \"#utility.yul\":3197:3215   */\n      0x24\n      dup3\n      add\n        /* \"#utility.yul\":3190:3220   */\n      mstore\n        /* \"#utility.yul\":3256:3289   */\n      0x5265656e7472616e637947756172643a207265656e7472616e742063616c6c00\n        /* \"#utility.yul\":3236:3254   */\n      0x44\n      dup3\n      add\n        /* \"#utility.yul\":3229:3290   */\n      mstore\n        /* \"#utility.yul\":3307:3325   */\n      0x64\n      add\n        /* \"@openzeppelin/contracts/security/ReentrancyGuard.sol\":2317:2380  require(_status != _ENTERED, \"ReentrancyGuard: reentrant call\") */\n      tag_120\n        /* \"#utility.yul\":2976:3331   */\n      jump\n        /* \"@openzeppelin/contracts/security/ReentrancyGuard.sol\":2317:2380  require(_status != _ENTERED, \"ReentrancyGuard: reentrant call\") */\n    tag_133:\n        /* \"@openzeppelin/contracts/security/ReentrancyGuard.sol\":1744:1745  2 */\n      0x02\n        /* \"@openzeppelin/contracts/security/ReentrancyGuard.sol\":2455:2462  _status */\n      0x01\n        /* \"@openzeppelin/contracts/security/ReentrancyGuard.sol\":2455:2473  _status = _ENTERED */\n      sstore\n        /* \"MintNagaKids.sol\":580:589  isPause() */\n      tag_137\n        /* \"MintNagaKids.sol\":580:587  isPause */\n      tag_98\n        /* \"MintNagaKids.sol\":580:589  isPause() */\n      jump\t// in\n    tag_137:\n        /* \"MintNagaKids.sol\":580:598  isPause() == false */\n      iszero\n        /* \"MintNagaKids.sol\":572:622  require(isPause() == false,\"NagaKids was Paused.\") */\n      tag_138\n      jumpi\n      mload(0x40)\n      shl(0xe5, 0x461bcd)\n      dup2\n      mstore\n        /* \"#utility.yul\":3538:3540   */\n      0x20\n        /* \"MintNagaKids.sol\":572:622  require(isPause() == false,\"NagaKids was Paused.\") */\n      0x04\n      dup3\n      add\n        /* \"#utility.yul\":3520:3541   */\n      mstore\n        /* \"#utility.yul\":3577:3579   */\n      0x14\n        /* \"#utility.yul\":3557:3575   */\n      0x24\n      dup3\n      add\n        /* \"#utility.yul\":3550:3580   */\n      mstore\n      shl(0x61, 0x2730b3b0a5b4b239903bb0b9902830bab9b2b217)\n        /* \"#utility.yul\":3596:3614   */\n      0x44\n      dup3\n      add\n        /* \"#utility.yul\":3589:3639   */\n      mstore\n        /* \"#utility.yul\":3656:3674   */\n      0x64\n      add\n        /* \"MintNagaKids.sol\":572:622  require(isPause() == false,\"NagaKids was Paused.\") */\n      tag_120\n        /* \"#utility.yul\":3336:3680   */\n      jump\n        /* \"MintNagaKids.sol\":572:622  require(isPause() == false,\"NagaKids was Paused.\") */\n    tag_138:\n        /* \"MintNagaKids.sol\":1209:1224  isWhitelistOpen */\n      sload(0x02)\n      shl(0xa8, 0x01)\n      swap1\n      div\n      0xff\n      and\n        /* \"MintNagaKids.sol\":1209:1232  isWhitelistOpen == true */\n      iszero\n      iszero\n        /* \"MintNagaKids.sol\":1228:1232  true */\n      0x01\n        /* \"MintNagaKids.sol\":1209:1232  isWhitelistOpen == true */\n      eq\n        /* \"MintNagaKids.sol\":1201:1264  require(isWhitelistOpen == true, \"Whitelist not open to mint.\") */\n      tag_142\n      jumpi\n      mload(0x40)\n      shl(0xe5, 0x461bcd)\n      dup2\n      mstore\n        /* \"#utility.yul\":3887:3889   */\n      0x20\n        /* \"MintNagaKids.sol\":1201:1264  require(isWhitelistOpen == true, \"Whitelist not open to mint.\") */\n      0x04\n      dup3\n      add\n        /* \"#utility.yul\":3869:3890   */\n      mstore\n        /* \"#utility.yul\":3926:3928   */\n      0x1b\n        /* \"#utility.yul\":3906:3924   */\n      0x24\n      dup3\n      add\n        /* \"#utility.yul\":3899:3929   */\n      mstore\n        /* \"#utility.yul\":3965:3994   */\n      0x57686974656c697374206e6f74206f70656e20746f206d696e742e0000000000\n        /* \"#utility.yul\":3945:3963   */\n      0x44\n      dup3\n      add\n        /* \"#utility.yul\":3938:3995   */\n      mstore\n        /* \"#utility.yul\":4012:4030   */\n      0x64\n      add\n        /* \"MintNagaKids.sol\":1201:1264  require(isWhitelistOpen == true, \"Whitelist not open to mint.\") */\n      tag_120\n        /* \"#utility.yul\":3685:4036   */\n      jump\n        /* \"MintNagaKids.sol\":1201:1264  require(isWhitelistOpen == true, \"Whitelist not open to mint.\") */\n    tag_142:\n        /* \"MintNagaKids.sol\":1302:1306  1111 */\n      0x0457\n        /* \"MintNagaKids.sol\":1283:1299  getTotalSupply() */\n      tag_145\n        /* \"MintNagaKids.sol\":1283:1297  getTotalSupply */\n      tag_86\n        /* \"MintNagaKids.sol\":1283:1299  getTotalSupply() */\n      jump\t// in\n    tag_145:\n        /* \"MintNagaKids.sol\":1283:1306  getTotalSupply() < 1111 */\n      lt\n        /* \"MintNagaKids.sol\":1275:1322  require(getTotalSupply() < 1111, \"Over supply\") */\n      tag_146\n      jumpi\n      mload(0x40)\n      shl(0xe5, 0x461bcd)\n      dup2\n      mstore\n        /* \"#utility.yul\":4243:4245   */\n      0x20\n        /* \"MintNagaKids.sol\":1275:1322  require(getTotalSupply() < 1111, \"Over supply\") */\n      0x04\n      dup3\n      add\n        /* \"#utility.yul\":4225:4246   */\n      mstore\n        /* \"#utility.yul\":4282:4284   */\n      0x0b\n        /* \"#utility.yul\":4262:4280   */\n      0x24\n      dup3\n      add\n        /* \"#utility.yul\":4255:4285   */\n      mstore\n      shl(0xa8, 0x4f76657220737570706c79)\n        /* \"#utility.yul\":4301:4319   */\n      0x44\n      dup3\n      add\n        /* \"#utility.yul\":4294:4335   */\n      mstore\n        /* \"#utility.yul\":4352:4370   */\n      0x64\n      add\n        /* \"MintNagaKids.sol\":1275:1322  require(getTotalSupply() < 1111, \"Over supply\") */\n      tag_120\n        /* \"#utility.yul\":4041:4376   */\n      jump\n        /* \"MintNagaKids.sol\":1275:1322  require(getTotalSupply() < 1111, \"Over supply\") */\n    tag_146:\n        /* \"@openzeppelin/contracts/security/ReentrancyGuard.sol\":1701:1702  1 */\n      0x01\n        /* \"@openzeppelin/contracts/security/ReentrancyGuard.sol\":2628:2650  _status = _NOT_ENTERED */\n      dup1\n      sstore\n        /* \"MintNagaKids.sol\":1130:1330  function whitelistMint() public payable nonReentrant Paused {... */\n      jump\t// out\n        /* \"@openzeppelin/contracts/access/AccessControl.sol\":2895:3040  function hasRole(bytes32 role, address account) public view virtual override returns (bool) {... */\n    tag_70:\n        /* \"@openzeppelin/contracts/access/AccessControl.sol\":2981:2985  bool */\n      0x00\n        /* \"@openzeppelin/contracts/access/AccessControl.sol\":3004:3016  _roles[role] */\n      swap2\n      dup3\n      mstore\n      0x20\n      dup3\n      dup2\n      mstore\n      0x40\n      dup1\n      dup5\n      keccak256\n      sub(shl(0xa0, 0x01), 0x01)\n        /* \"@openzeppelin/contracts/access/AccessControl.sol\":3004:3033  _roles[role].members[account] */\n      swap4\n      swap1\n      swap4\n      and\n      dup5\n      mstore\n      swap2\n      swap1\n      mstore\n      swap1\n      keccak256\n      sload\n      0xff\n      and\n      swap1\n        /* \"@openzeppelin/contracts/access/AccessControl.sol\":2895:3040  function hasRole(bytes32 role, address account) public view virtual override returns (bool) {... */\n      jump\t// out\n        /* \"MintNagaKids.sol\":1338:1450  function getTotalSupply() public view returns (uint256) {... */\n    tag_86:\n        /* \"MintNagaKids.sol\":1412:1428  nagaKidsContract */\n      sload(0x02)\n        /* \"MintNagaKids.sol\":1412:1442  nagaKidsContract.totalSupply() */\n      0x40\n      dup1\n      mload\n      shl(0xe0, 0x18160ddd)\n      dup2\n      mstore\n      swap1\n      mload\n        /* \"MintNagaKids.sol\":1385:1392  uint256 */\n      0x00\n      swap3\n      sub(shl(0xa0, 0x01), 0x01)\n        /* \"MintNagaKids.sol\":1412:1428  nagaKidsContract */\n      and\n      swap2\n        /* \"MintNagaKids.sol\":1412:1440  nagaKidsContract.totalSupply */\n      0x18160ddd\n      swap2\n        /* \"MintNagaKids.sol\":1412:1442  nagaKidsContract.totalSupply() */\n      0x04\n      dup1\n      dup4\n      add\n      swap3\n      0x20\n      swap3\n      swap2\n      swap1\n      dup3\n      swap1\n      sub\n      add\n      dup2\n        /* \"MintNagaKids.sol\":1412:1428  nagaKidsContract */\n      dup7\n        /* \"MintNagaKids.sol\":1412:1442  nagaKidsContract.totalSupply() */\n      gas\n      staticcall\n      iszero\n      dup1\n      iszero\n      tag_126\n      jumpi\n      returndatasize\n      0x00\n      dup1\n      returndatacopy\n      revert(0x00, returndatasize)\n        /* \"@openzeppelin/contracts/access/AccessControl.sol\":5149:5296  function revokeRole(bytes32 role, address account) public virtual override onlyRole(getRoleAdmin(role)) {... */\n    tag_91:\n        /* \"@openzeppelin/contracts/access/AccessControl.sol\":4465:4472  bytes32 */\n      0x00\n        /* \"@openzeppelin/contracts/access/AccessControl.sol\":4491:4503  _roles[role] */\n      dup3\n      dup2\n      mstore\n      0x20\n      dup2\n      swap1\n      mstore\n      0x40\n      swap1\n      keccak256\n        /* \"@openzeppelin/contracts/access/AccessControl.sol\":4491:4513  _roles[role].adminRole */\n      0x01\n      add\n      sload\n        /* \"@openzeppelin/contracts/access/AccessControl.sol\":2505:2521  _checkRole(role) */\n      tag_156\n        /* \"@openzeppelin/contracts/access/AccessControl.sol\":2516:2520  role */\n      dup2\n        /* \"@openzeppelin/contracts/access/AccessControl.sol\":2505:2515  _checkRole */\n      tag_108\n        /* \"@openzeppelin/contracts/access/AccessControl.sol\":2505:2521  _checkRole(role) */\n      jump\t// in\n    tag_156:\n        /* \"@openzeppelin/contracts/access/AccessControl.sol\":5263:5289  _revokeRole(role, account) */\n      tag_114\n        /* \"@openzeppelin/contracts/access/AccessControl.sol\":5275:5279  role */\n      dup4\n        /* \"@openzeppelin/contracts/access/AccessControl.sol\":5281:5288  account */\n      dup4\n        /* \"@openzeppelin/contracts/access/AccessControl.sol\":5263:5274  _revokeRole */\n      tag_123\n        /* \"@openzeppelin/contracts/access/AccessControl.sol\":5263:5289  _revokeRole(role, account) */\n      jump\t// in\n        /* \"MintNagaKids.sol\":820:970  function changeWhitelistMintOpen(bool _isOpen)... */\n    tag_95:\n        /* \"@openzeppelin/contracts/access/AccessControl.sol\":2072:2076  0x00 */\n      0x00\n        /* \"@openzeppelin/contracts/access/AccessControl.sol\":2505:2521  _checkRole(role) */\n      tag_160\n        /* \"@openzeppelin/contracts/access/AccessControl.sol\":2072:2076  0x00 */\n      dup2\n        /* \"@openzeppelin/contracts/access/AccessControl.sol\":2505:2515  _checkRole */\n      tag_108\n        /* \"@openzeppelin/contracts/access/AccessControl.sol\":2505:2521  _checkRole(role) */\n      jump\t// in\n    tag_160:\n      pop\n        /* \"MintNagaKids.sol\":937:952  isWhitelistOpen */\n      0x02\n        /* \"MintNagaKids.sol\":937:962  isWhitelistOpen = _isOpen */\n      dup1\n      sload\n      swap2\n      iszero\n      iszero\n      shl(0xa8, 0x01)\n      mul\n      not(shl(0xa8, 0xff))\n      swap1\n      swap3\n      and\n      swap2\n      swap1\n      swap2\n      or\n      swap1\n      sstore\n        /* \"MintNagaKids.sol\":820:970  function changeWhitelistMintOpen(bool _isOpen)... */\n      jump\t// out\n        /* \"MintNagaKids.sol\":1574:1671  function isPause() public view returns (bool) {... */\n    tag_98:\n        /* \"MintNagaKids.sol\":1638:1654  nagaKidsContract */\n      sload(0x02)\n        /* \"MintNagaKids.sol\":1638:1663  nagaKidsContract.paused() */\n      0x40\n      dup1\n      mload\n      shl(0xe0, 0x5c975abb)\n      dup2\n      mstore\n      swap1\n      mload\n        /* \"MintNagaKids.sol\":1614:1618  bool */\n      0x00\n      swap3\n      sub(shl(0xa0, 0x01), 0x01)\n        /* \"MintNagaKids.sol\":1638:1654  nagaKidsContract */\n      and\n      swap2\n        /* \"MintNagaKids.sol\":1638:1661  nagaKidsContract.paused */\n      0x5c975abb\n      swap2\n        /* \"MintNagaKids.sol\":1638:1663  nagaKidsContract.paused() */\n      0x04\n      dup1\n      dup4\n      add\n      swap3\n      0x20\n      swap3\n      swap2\n      swap1\n      dup3\n      swap1\n      sub\n      add\n      dup2\n        /* \"MintNagaKids.sol\":1638:1654  nagaKidsContract */\n      dup7\n        /* \"MintNagaKids.sol\":1638:1663  nagaKidsContract.paused() */\n      gas\n      staticcall\n      iszero\n      dup1\n      iszero\n      tag_164\n      jumpi\n      returndatasize\n      0x00\n      dup1\n      returndatacopy\n      revert(0x00, returndatasize)\n    tag_164:\n      pop\n      pop\n      pop\n      pop\n      mload(0x40)\n      returndatasize\n      not(0x1f)\n      0x1f\n      dup3\n      add\n      and\n      dup3\n      add\n      dup1\n      0x40\n      mstore\n      pop\n      dup2\n      add\n      swap1\n      tag_127\n      swap2\n      swap1\n      tag_166\n      jump\t// in\n        /* \"@openzeppelin/contracts/utils/Strings.sol\":1588:2029  function toHexString(uint256 value, uint256 length) internal pure returns (string memory) {... */\n    tag_100:\n        /* \"@openzeppelin/contracts/utils/Strings.sol\":1663:1676  string memory */\n      0x60\n        /* \"@openzeppelin/contracts/utils/Strings.sol\":1688:1707  bytes memory buffer */\n      0x00\n        /* \"@openzeppelin/contracts/utils/Strings.sol\":1720:1730  2 * length */\n      tag_168\n        /* \"@openzeppelin/contracts/utils/Strings.sol\":1724:1730  length */\n      dup4\n        /* \"@openzeppelin/contracts/utils/Strings.sol\":1720:1721  2 */\n      0x02\n        /* \"@openzeppelin/contracts/utils/Strings.sol\":1720:1730  2 * length */\n      tag_169\n      jump\t// in\n    tag_168:\n        /* \"@openzeppelin/contracts/utils/Strings.sol\":1720:1734  2 * length + 2 */\n      tag_170\n      swap1\n        /* \"@openzeppelin/contracts/utils/Strings.sol\":1733:1734  2 */\n      0x02\n        /* \"@openzeppelin/contracts/utils/Strings.sol\":1720:1734  2 * length + 2 */\n      tag_171\n      jump\t// in\n    tag_170:\n        /* \"@openzeppelin/contracts/utils/Strings.sol\":1710:1735  new bytes(2 * length + 2) */\n      0xffffffffffffffff\n      dup2\n      gt\n      iszero\n      tag_173\n      jumpi\n      tag_173\n      tag_174\n      jump\t// in\n    tag_173:\n      mload(0x40)\n      swap1\n      dup1\n      dup3\n      mstore\n      dup1\n      0x1f\n      add\n      not(0x1f)\n      and\n      0x20\n      add\n      dup3\n      add\n      0x40\n      mstore\n      dup1\n      iszero\n      tag_175\n      jumpi\n      0x20\n      dup3\n      add\n      dup2\n      dup1\n      calldatasize\n      dup4\n      calldatacopy\n      add\n      swap1\n      pop\n    tag_175:\n      pop\n        /* \"@openzeppelin/contracts/utils/Strings.sol\":1688:1735  bytes memory buffer = new bytes(2 * length + 2) */\n      swap1\n      pop\n      shl(0xfc, 0x03)\n        /* \"@openzeppelin/contracts/utils/Strings.sol\":1745:1751  buffer */\n      dup2\n        /* \"@openzeppelin/contracts/utils/Strings.sol\":1752:1753  0 */\n      0x00\n        /* \"@openzeppelin/contracts/utils/Strings.sol\":1745:1754  buffer[0] */\n      dup2\n      mload\n      dup2\n      lt\n      tag_177\n      jumpi\n      tag_177\n      tag_178\n      jump\t// in\n    tag_177:\n      0x20\n      add\n      add\n        /* \"@openzeppelin/contracts/utils/Strings.sol\":1745:1760  buffer[0] = \"0\" */\n      swap1\n      not(sub(shl(0xf8, 0x01), 0x01))\n      and\n      swap1\n      dup2\n      0x00\n      byte\n      swap1\n      mstore8\n      pop\n      shl(0xfb, 0x0f)\n        /* \"@openzeppelin/contracts/utils/Strings.sol\":1770:1776  buffer */\n      dup2\n        /* \"@openzeppelin/contracts/utils/Strings.sol\":1777:1778  1 */\n      0x01\n        /* \"@openzeppelin/contracts/utils/Strings.sol\":1770:1779  buffer[1] */\n      dup2\n      mload\n      dup2\n      lt\n      tag_180\n      jumpi\n      tag_180\n      tag_178\n      jump\t// in\n    tag_180:\n      0x20\n      add\n      add\n        /* \"@openzeppelin/contracts/utils/Strings.sol\":1770:1785  buffer[1] = \"x\" */\n      swap1\n      not(sub(shl(0xf8, 0x01), 0x01))\n      and\n      swap1\n      dup2\n      0x00\n      byte\n      swap1\n      mstore8\n      pop\n        /* \"@openzeppelin/contracts/utils/Strings.sol\":1800:1809  uint256 i */\n      0x00\n        /* \"@openzeppelin/contracts/utils/Strings.sol\":1812:1822  2 * length */\n      tag_184\n        /* \"@openzeppelin/contracts/utils/Strings.sol\":1816:1822  length */\n      dup5\n        /* \"@openzeppelin/contracts/utils/Strings.sol\":1812:1813  2 */\n      0x02\n        /* \"@openzeppelin/contracts/utils/Strings.sol\":1812:1822  2 * length */\n      tag_169\n      jump\t// in\n    tag_184:\n        /* \"@openzeppelin/contracts/utils/Strings.sol\":1812:1826  2 * length + 1 */\n      tag_185\n      swap1\n        /* \"@openzeppelin/contracts/utils/Strings.sol\":1825:1826  1 */\n      0x01\n        /* \"@openzeppelin/contracts/utils/Strings.sol\":1812:1826  2 * length + 1 */\n      tag_171\n      jump\t// in\n    tag_185:\n        /* \"@openzeppelin/contracts/utils/Strings.sol\":1800:1826  uint256 i = 2 * length + 1 */\n      swap1\n      pop\n        /* \"@openzeppelin/contracts/utils/Strings.sol\":1795:1927  for (uint256 i = 2 * length + 1; i > 1; --i) {... */\n    tag_181:\n        /* \"@openzeppelin/contracts/utils/Strings.sol\":1832:1833  1 */\n      0x01\n        /* \"@openzeppelin/contracts/utils/Strings.sol\":1828:1829  i */\n      dup2\n        /* \"@openzeppelin/contracts/utils/Strings.sol\":1828:1833  i > 1 */\n      gt\n        /* \"@openzeppelin/contracts/utils/Strings.sol\":1795:1927  for (uint256 i = 2 * length + 1; i > 1; --i) {... */\n      iszero\n      tag_182\n      jumpi\n      shl(0x81, 0x181899199a1a9b1b9c1cb0b131b232b3)\n        /* \"@openzeppelin/contracts/utils/Strings.sol\":1879:1884  value */\n      dup6\n        /* \"@openzeppelin/contracts/utils/Strings.sol\":1887:1890  0xf */\n      0x0f\n        /* \"@openzeppelin/contracts/utils/Strings.sol\":1879:1890  value & 0xf */\n      and\n        /* \"@openzeppelin/contracts/utils/Strings.sol\":1866:1891  _HEX_SYMBOLS[value & 0xf] */\n      0x10\n      dup2\n      lt\n      tag_187\n      jumpi\n      tag_187\n      tag_178\n      jump\t// in\n    tag_187:\n      byte\n      0xf8\n      shl\n        /* \"@openzeppelin/contracts/utils/Strings.sol\":1854:1860  buffer */\n      dup3\n        /* \"@openzeppelin/contracts/utils/Strings.sol\":1861:1862  i */\n      dup3\n        /* \"@openzeppelin/contracts/utils/Strings.sol\":1854:1863  buffer[i] */\n      dup2\n      mload\n      dup2\n      lt\n      tag_189\n      jumpi\n      tag_189\n      tag_178\n      jump\t// in\n    tag_189:\n      0x20\n      add\n      add\n        /* \"@openzeppelin/contracts/utils/Strings.sol\":1854:1891  buffer[i] = _HEX_SYMBOLS[value & 0xf] */\n      swap1\n      not(sub(shl(0xf8, 0x01), 0x01))\n      and\n      swap1\n      dup2\n      0x00\n      byte\n      swap1\n      mstore8\n      pop\n        /* \"@openzeppelin/contracts/utils/Strings.sol\":1915:1916  4 */\n      0x04\n        /* \"@openzeppelin/contracts/utils/Strings.sol\":1905:1916  value >>= 4 */\n      swap5\n      swap1\n      swap5\n      shr\n      swap4\n        /* \"@openzeppelin/contracts/utils/Strings.sol\":1835:1838  --i */\n      tag_190\n      dup2\n      tag_191\n      jump\t// in\n    tag_190:\n      swap1\n      pop\n        /* \"@openzeppelin/contracts/utils/Strings.sol\":1795:1927  for (uint256 i = 2 * length + 1; i > 1; --i) {... */\n      jump(tag_181)\n    tag_182:\n      pop\n        /* \"@openzeppelin/contracts/utils/Strings.sol\":1944:1954  value == 0 */\n      dup4\n      iszero\n        /* \"@openzeppelin/contracts/utils/Strings.sol\":1936:1991  require(value == 0, \"Strings: hex length insufficient\") */\n      tag_192\n      jumpi\n      mload(0x40)\n      shl(0xe5, 0x461bcd)\n      dup2\n      mstore\n        /* \"#utility.yul\":5676:5678   */\n      0x20\n        /* \"@openzeppelin/contracts/utils/Strings.sol\":1936:1991  require(value == 0, \"Strings: hex length insufficient\") */\n      0x04\n      dup3\n      add\n        /* \"#utility.yul\":5658:5679   */\n      dup2\n      swap1\n      mstore\n        /* \"#utility.yul\":5695:5713   */\n      0x24\n      dup3\n      add\n        /* \"#utility.yul\":5688:5718   */\n      mstore\n        /* \"#utility.yul\":5754:5788   */\n      0x537472696e67733a20686578206c656e67746820696e73756666696369656e74\n        /* \"#utility.yul\":5734:5752   */\n      0x44\n      dup3\n      add\n        /* \"#utility.yul\":5727:5789   */\n      mstore\n        /* \"#utility.yul\":5806:5824   */\n      0x64\n      add\n        /* \"@openzeppelin/contracts/utils/Strings.sol\":1936:1991  require(value == 0, \"Strings: hex length insufficient\") */\n      tag_120\n        /* \"#utility.yul\":5474:5830   */\n      jump\n        /* \"@openzeppelin/contracts/utils/Strings.sol\":1936:1991  require(value == 0, \"Strings: hex length insufficient\") */\n    tag_192:\n        /* \"@openzeppelin/contracts/utils/Strings.sol\":2015:2021  buffer */\n      swap4\n        /* \"@openzeppelin/contracts/utils/Strings.sol\":1588:2029  function toHexString(uint256 value, uint256 length) internal pure returns (string memory) {... */\n      swap3\n      pop\n      pop\n      pop\n      jump\t// out\n        /* \"@openzeppelin/contracts/access/AccessControl.sol\":3334:3437  function _checkRole(bytes32 role) internal view virtual {... */\n    tag_108:\n        /* \"@openzeppelin/contracts/access/AccessControl.sol\":3400:3430  _checkRole(role, _msgSender()) */\n      tag_197\n        /* \"@openzeppelin/contracts/access/AccessControl.sol\":3411:3415  role */\n      dup2\n        /* \"@openzeppelin/contracts/utils/Context.sol\":719:729  msg.sender */\n      caller\n        /* \"@openzeppelin/contracts/access/AccessControl.sol\":3400:3410  _checkRole */\n      tag_199\n        /* \"@openzeppelin/contracts/access/AccessControl.sol\":3400:3430  _checkRole(role, _msgSender()) */\n      jump\t// in\n    tag_197:\n        /* \"@openzeppelin/contracts/access/AccessControl.sol\":3334:3437  function _checkRole(bytes32 role) internal view virtual {... */\n      pop\n      jump\t// out\n        /* \"@openzeppelin/contracts/access/AccessControl.sol\":7244:7477  function _grantRole(bytes32 role, address account) internal virtual {... */\n    tag_115:\n        /* \"@openzeppelin/contracts/access/AccessControl.sol\":7327:7349  hasRole(role, account) */\n      tag_201\n        /* \"@openzeppelin/contracts/access/AccessControl.sol\":7335:7339  role */\n      dup3\n        /* \"@openzeppelin/contracts/access/AccessControl.sol\":7341:7348  account */\n      dup3\n        /* \"@openzeppelin/contracts/access/AccessControl.sol\":7327:7334  hasRole */\n      tag_70\n        /* \"@openzeppelin/contracts/access/AccessControl.sol\":7327:7349  hasRole(role, account) */\n      jump\t// in\n    tag_201:\n        /* \"@openzeppelin/contracts/access/AccessControl.sol\":7322:7471  if (!hasRole(role, account)) {... */\n      tag_122\n      jumpi\n        /* \"@openzeppelin/contracts/access/AccessControl.sol\":7365:7371  _roles */\n      0x00\n        /* \"@openzeppelin/contracts/access/AccessControl.sol\":7365:7377  _roles[role] */\n      dup3\n      dup2\n      mstore\n      0x20\n      dup2\n      dup2\n      mstore\n      0x40\n      dup1\n      dup4\n      keccak256\n      sub(shl(0xa0, 0x01), 0x01)\n        /* \"@openzeppelin/contracts/access/AccessControl.sol\":7365:7394  _roles[role].members[account] */\n      dup6\n      and\n      dup5\n      mstore\n      swap1\n      swap2\n      mstore\n      swap1\n      keccak256\n        /* \"@openzeppelin/contracts/access/AccessControl.sol\":7365:7401  _roles[role].members[account] = true */\n      dup1\n      sload\n      not(0xff)\n      and\n        /* \"@openzeppelin/contracts/access/AccessControl.sol\":7397:7401  true */\n      0x01\n        /* \"@openzeppelin/contracts/access/AccessControl.sol\":7365:7401  _roles[role].members[account] = true */\n      or\n      swap1\n      sstore\n        /* \"@openzeppelin/contracts/access/AccessControl.sol\":7447:7459  _msgSender() */\n      tag_203\n        /* \"@openzeppelin/contracts/utils/Context.sol\":719:729  msg.sender */\n      caller\n      swap1\n        /* \"@openzeppelin/contracts/utils/Context.sol\":640:736  function _msgSender() internal view virtual returns (address) {... */\n      jump\n        /* \"@openzeppelin/contracts/access/AccessControl.sol\":7447:7459  _msgSender() */\n    tag_203:\n      sub(shl(0xa0, 0x01), 0x01)\n        /* \"@openzeppelin/contracts/access/AccessControl.sol\":7420:7460  RoleGranted(role, account, _msgSender()) */\n      and\n        /* \"@openzeppelin/contracts/access/AccessControl.sol\":7438:7445  account */\n      dup2\n      sub(shl(0xa0, 0x01), 0x01)\n        /* \"@openzeppelin/contracts/access/AccessControl.sol\":7420:7460  RoleGranted(role, account, _msgSender()) */\n      and\n        /* \"@openzeppelin/contracts/access/AccessControl.sol\":7432:7436  role */\n      dup4\n        /* \"@openzeppelin/contracts/access/AccessControl.sol\":7420:7460  RoleGranted(role, account, _msgSender()) */\n      0x2f8788117e7eff1d82e926ec794901d17c78024a50270940304540a733656f0d\n      mload(0x40)\n      mload(0x40)\n      dup1\n      swap2\n      sub\n      swap1\n      log4\n        /* \"@openzeppelin/contracts/access/AccessControl.sol\":7244:7477  function _grantRole(bytes32 role, address account) internal virtual {... */\n      pop\n      pop\n      jump\t// out\n        /* \"@openzeppelin/contracts/access/AccessControl.sol\":7602:7836  function _revokeRole(bytes32 role, address account) internal virtual {... */\n    tag_123:\n        /* \"@openzeppelin/contracts/access/AccessControl.sol\":7685:7707  hasRole(role, account) */\n      tag_206\n        /* \"@openzeppelin/contracts/access/AccessControl.sol\":7693:7697  role */\n      dup3\n        /* \"@openzeppelin/contracts/access/AccessControl.sol\":7699:7706  account */\n      dup3\n        /* \"@openzeppelin/contracts/access/AccessControl.sol\":7685:7692  hasRole */\n      tag_70\n        /* \"@openzeppelin/contracts/access/AccessControl.sol\":7685:7707  hasRole(role, account) */\n      jump\t// in\n    tag_206:\n        /* \"@openzeppelin/contracts/access/AccessControl.sol\":7681:7830  if (hasRole(role, account)) {... */\n      iszero\n      tag_122\n      jumpi\n        /* \"@openzeppelin/contracts/access/AccessControl.sol\":7755:7760  false */\n      0x00\n        /* \"@openzeppelin/contracts/access/AccessControl.sol\":7723:7735  _roles[role] */\n      dup3\n      dup2\n      mstore\n      0x20\n      dup2\n      dup2\n      mstore\n      0x40\n      dup1\n      dup4\n      keccak256\n      sub(shl(0xa0, 0x01), 0x01)\n        /* \"@openzeppelin/contracts/access/AccessControl.sol\":7723:7752  _roles[role].members[account] */\n      dup6\n      and\n      dup1\n      dup6\n      mstore\n      swap3\n      mstore\n      dup1\n      dup4\n      keccak256\n        /* \"@openzeppelin/contracts/access/AccessControl.sol\":7723:7760  _roles[role].members[account] = false */\n      dup1\n      sload\n      not(0xff)\n      and\n      swap1\n      sstore\n        /* \"@openzeppelin/contracts/access/AccessControl.sol\":7779:7819  RoleRevoked(role, account, _msgSender()) */\n      mload\n        /* \"@openzeppelin/contracts/utils/Context.sol\":719:729  msg.sender */\n      caller\n      swap3\n        /* \"@openzeppelin/contracts/access/AccessControl.sol\":7723:7735  _roles[role] */\n      dup6\n      swap2\n        /* \"@openzeppelin/contracts/access/AccessControl.sol\":7779:7819  RoleRevoked(role, account, _msgSender()) */\n      0xf6391f5c32d9c69d2a47ea670b442974b53935d1edc7fd64eb21e047a839171b\n      swap2\n        /* \"@openzeppelin/contracts/access/AccessControl.sol\":7755:7760  false */\n      swap1\n        /* \"@openzeppelin/contracts/access/AccessControl.sol\":7779:7819  RoleRevoked(role, account, _msgSender()) */\n      log4\n        /* \"@openzeppelin/contracts/access/AccessControl.sol\":7602:7836  function _revokeRole(bytes32 role, address account) internal virtual {... */\n      pop\n      pop\n      jump\t// out\n        /* \"@openzeppelin/contracts/access/AccessControl.sol\":3718:4210  function _checkRole(bytes32 role, address account) internal view virtual {... */\n    tag_199:\n        /* \"@openzeppelin/contracts/access/AccessControl.sol\":3806:3828  hasRole(role, account) */\n      tag_210\n        /* \"@openzeppelin/contracts/access/AccessControl.sol\":3814:3818  role */\n      dup3\n        /* \"@openzeppelin/contracts/access/AccessControl.sol\":3820:3827  account */\n      dup3\n        /* \"@openzeppelin/contracts/access/AccessControl.sol\":3806:3813  hasRole */\n      tag_70\n        /* \"@openzeppelin/contracts/access/AccessControl.sol\":3806:3828  hasRole(role, account) */\n      jump\t// in\n    tag_210:\n        /* \"@openzeppelin/contracts/access/AccessControl.sol\":3801:4204  if (!hasRole(role, account)) {... */\n      tag_122\n      jumpi\n        /* \"@openzeppelin/contracts/access/AccessControl.sol\":3989:4030  Strings.toHexString(uint160(account), 20) */\n      tag_212\n        /* \"@openzeppelin/contracts/access/AccessControl.sol\":4017:4024  account */\n      dup2\n      sub(shl(0xa0, 0x01), 0x01)\n        /* \"@openzeppelin/contracts/access/AccessControl.sol\":3989:4030  Strings.toHexString(uint160(account), 20) */\n      and\n        /* \"@openzeppelin/contracts/access/AccessControl.sol\":4027:4029  20 */\n      0x14\n        /* \"@openzeppelin/contracts/access/AccessControl.sol\":3989:4008  Strings.toHexString */\n      tag_100\n        /* \"@openzeppelin/contracts/access/AccessControl.sol\":3989:4030  Strings.toHexString(uint160(account), 20) */\n      jump\t// in\n    tag_212:\n        /* \"@openzeppelin/contracts/access/AccessControl.sol\":4101:4139  Strings.toHexString(uint256(role), 32) */\n      tag_213\n        /* \"@openzeppelin/contracts/access/AccessControl.sol\":4129:4133  role */\n      dup4\n        /* \"@openzeppelin/contracts/access/AccessControl.sol\":4136:4138  32 */\n      0x20\n        /* \"@openzeppelin/contracts/access/AccessControl.sol\":4101:4120  Strings.toHexString */\n      tag_100\n        /* \"@openzeppelin/contracts/access/AccessControl.sol\":4101:4139  Strings.toHexString(uint256(role), 32) */\n      jump\t// in\n    tag_213:\n        /* \"@openzeppelin/contracts/access/AccessControl.sol\":3896:4161  abi.encodePacked(... */\n      add(0x20, mload(0x40))\n      tag_214\n      swap3\n      swap2\n      swap1\n      tag_215\n      jump\t// in\n    tag_214:\n      0x40\n      dup1\n      mload\n      not(0x1f)\n      dup2\n      dup5\n      sub\n      add\n      dup2\n      mstore\n      swap1\n      dup3\n      swap1\n      mstore\n      shl(0xe5, 0x461bcd)\n        /* \"@openzeppelin/contracts/access/AccessControl.sol\":3844:4193  revert(... */\n      dup3\n      mstore\n      tag_120\n      swap2\n      0x04\n      add\n      tag_217\n      jump\t// in\n        /* \"#utility.yul\":14:300   */\n    tag_25:\n        /* \"#utility.yul\":72:78   */\n      0x00\n        /* \"#utility.yul\":125:127   */\n      0x20\n        /* \"#utility.yul\":113:122   */\n      dup3\n        /* \"#utility.yul\":104:111   */\n      dup5\n        /* \"#utility.yul\":100:123   */\n      sub\n        /* \"#utility.yul\":96:128   */\n      slt\n        /* \"#utility.yul\":93:145   */\n      iszero\n      tag_224\n      jumpi\n        /* \"#utility.yul\":141:142   */\n      0x00\n        /* \"#utility.yul\":138:139   */\n      dup1\n        /* \"#utility.yul\":131:143   */\n      revert\n        /* \"#utility.yul\":93:145   */\n    tag_224:\n        /* \"#utility.yul\":167:190   */\n      dup2\n      calldataload\n      not(sub(shl(0xe0, 0x01), 0x01))\n        /* \"#utility.yul\":219:251   */\n      dup2\n      and\n        /* \"#utility.yul\":209:252   */\n      dup2\n      eq\n        /* \"#utility.yul\":199:270   */\n      tag_192\n      jumpi\n        /* \"#utility.yul\":266:267   */\n      0x00\n        /* \"#utility.yul\":263:264   */\n      dup1\n        /* \"#utility.yul\":256:268   */\n      revert\n        /* \"#utility.yul\":497:677   */\n    tag_32:\n        /* \"#utility.yul\":556:562   */\n      0x00\n        /* \"#utility.yul\":609:611   */\n      0x20\n        /* \"#utility.yul\":597:606   */\n      dup3\n        /* \"#utility.yul\":588:595   */\n      dup5\n        /* \"#utility.yul\":584:607   */\n      sub\n        /* \"#utility.yul\":580:612   */\n      slt\n        /* \"#utility.yul\":577:629   */\n      iszero\n      tag_228\n      jumpi\n        /* \"#utility.yul\":625:626   */\n      0x00\n        /* \"#utility.yul\":622:623   */\n      dup1\n        /* \"#utility.yul\":615:627   */\n      revert\n        /* \"#utility.yul\":577:629   */\n    tag_228:\n      pop\n        /* \"#utility.yul\":648:671   */\n      calldataload\n      swap2\n        /* \"#utility.yul\":497:677   */\n      swap1\n      pop\n      jump\t// out\n        /* \"#utility.yul\":1092:1210   */\n    tag_218:\n        /* \"#utility.yul\":1178:1183   */\n      dup1\n        /* \"#utility.yul\":1171:1184   */\n      iszero\n        /* \"#utility.yul\":1164:1185   */\n      iszero\n        /* \"#utility.yul\":1157:1162   */\n      dup2\n        /* \"#utility.yul\":1154:1186   */\n      eq\n        /* \"#utility.yul\":1144:1204   */\n      tag_197\n      jumpi\n        /* \"#utility.yul\":1200:1201   */\n      0x00\n        /* \"#utility.yul\":1197:1198   */\n      dup1\n        /* \"#utility.yul\":1190:1202   */\n      revert\n        /* \"#utility.yul\":1215:1456   */\n    tag_44:\n        /* \"#utility.yul\":1271:1277   */\n      0x00\n        /* \"#utility.yul\":1324:1326   */\n      0x20\n        /* \"#utility.yul\":1312:1321   */\n      dup3\n        /* \"#utility.yul\":1303:1310   */\n      dup5\n        /* \"#utility.yul\":1299:1322   */\n      sub\n        /* \"#utility.yul\":1295:1327   */\n      slt\n        /* \"#utility.yul\":1292:1344   */\n      iszero\n      tag_234\n      jumpi\n        /* \"#utility.yul\":1340:1341   */\n      0x00\n        /* \"#utility.yul\":1337:1338   */\n      dup1\n        /* \"#utility.yul\":1330:1342   */\n      revert\n        /* \"#utility.yul\":1292:1344   */\n    tag_234:\n        /* \"#utility.yul\":1379:1388   */\n      dup2\n        /* \"#utility.yul\":1366:1389   */\n      calldataload\n        /* \"#utility.yul\":1398:1426   */\n      tag_192\n        /* \"#utility.yul\":1420:1425   */\n      dup2\n        /* \"#utility.yul\":1398:1426   */\n      tag_218\n      jump\t// in\n        /* \"#utility.yul\":1461:1592   */\n    tag_219:\n      sub(shl(0xa0, 0x01), 0x01)\n        /* \"#utility.yul\":1536:1567   */\n      dup2\n      and\n        /* \"#utility.yul\":1526:1568   */\n      dup2\n      eq\n        /* \"#utility.yul\":1516:1586   */\n      tag_197\n      jumpi\n        /* \"#utility.yul\":1582:1583   */\n      0x00\n        /* \"#utility.yul\":1579:1580   */\n      dup1\n        /* \"#utility.yul\":1572:1584   */\n      revert\n        /* \"#utility.yul\":1597:1912   */\n    tag_49:\n        /* \"#utility.yul\":1665:1671   */\n      0x00\n        /* \"#utility.yul\":1673:1679   */\n      dup1\n        /* \"#utility.yul\":1726:1728   */\n      0x40\n        /* \"#utility.yul\":1714:1723   */\n      dup4\n        /* \"#utility.yul\":1705:1712   */\n      dup6\n        /* \"#utility.yul\":1701:1724   */\n      sub\n        /* \"#utility.yul\":1697:1729   */\n      slt\n        /* \"#utility.yul\":1694:1746   */\n      iszero\n      tag_239\n      jumpi\n        /* \"#utility.yul\":1742:1743   */\n      0x00\n        /* \"#utility.yul\":1739:1740   */\n      dup1\n        /* \"#utility.yul\":1732:1744   */\n      revert\n        /* \"#utility.yul\":1694:1746   */\n    tag_239:\n        /* \"#utility.yul\":1778:1787   */\n      dup3\n        /* \"#utility.yul\":1765:1788   */\n      calldataload\n        /* \"#utility.yul\":1755:1788   */\n      swap2\n      pop\n        /* \"#utility.yul\":1838:1840   */\n      0x20\n        /* \"#utility.yul\":1827:1836   */\n      dup4\n        /* \"#utility.yul\":1823:1841   */\n      add\n        /* \"#utility.yul\":1810:1842   */\n      calldataload\n        /* \"#utility.yul\":1851:1882   */\n      tag_240\n        /* \"#utility.yul\":1876:1881   */\n      dup2\n        /* \"#utility.yul\":1851:1882   */\n      tag_219\n      jump\t// in\n    tag_240:\n        /* \"#utility.yul\":1901:1906   */\n      dup1\n        /* \"#utility.yul\":1891:1906   */\n      swap2\n      pop\n      pop\n        /* \"#utility.yul\":1597:1912   */\n      swap3\n      pop\n      swap3\n      swap1\n      pop\n      jump\t// out\n        /* \"#utility.yul\":2099:2366   */\n    tag_63:\n        /* \"#utility.yul\":2178:2184   */\n      0x00\n        /* \"#utility.yul\":2231:2233   */\n      0x20\n        /* \"#utility.yul\":2219:2228   */\n      dup3\n        /* \"#utility.yul\":2210:2217   */\n      dup5\n        /* \"#utility.yul\":2206:2229   */\n      sub\n        /* \"#utility.yul\":2202:2234   */\n      slt\n        /* \"#utility.yul\":2199:2251   */\n      iszero\n      tag_243\n      jumpi\n        /* \"#utility.yul\":2247:2248   */\n      0x00\n        /* \"#utility.yul\":2244:2245   */\n      dup1\n        /* \"#utility.yul\":2237:2249   */\n      revert\n        /* \"#utility.yul\":2199:2251   */\n    tag_243:\n        /* \"#utility.yul\":2286:2295   */\n      dup2\n        /* \"#utility.yul\":2273:2296   */\n      calldataload\n        /* \"#utility.yul\":2305:2336   */\n      tag_192\n        /* \"#utility.yul\":2330:2335   */\n      dup2\n        /* \"#utility.yul\":2305:2336   */\n      tag_219\n      jump\t// in\n        /* \"#utility.yul\":2787:2971   */\n    tag_128:\n        /* \"#utility.yul\":2857:2863   */\n      0x00\n        /* \"#utility.yul\":2910:2912   */\n      0x20\n        /* \"#utility.yul\":2898:2907   */\n      dup3\n        /* \"#utility.yul\":2889:2896   */\n      dup5\n        /* \"#utility.yul\":2885:2908   */\n      sub\n        /* \"#utility.yul\":2881:2913   */\n      slt\n        /* \"#utility.yul\":2878:2930   */\n      iszero\n      tag_247\n      jumpi\n        /* \"#utility.yul\":2926:2927   */\n      0x00\n        /* \"#utility.yul\":2923:2924   */\n      dup1\n        /* \"#utility.yul\":2916:2928   */\n      revert\n        /* \"#utility.yul\":2878:2930   */\n    tag_247:\n      pop\n        /* \"#utility.yul\":2949:2965   */\n      mload\n      swap2\n        /* \"#utility.yul\":2787:2971   */\n      swap1\n      pop\n      jump\t// out\n        /* \"#utility.yul\":4381:4626   */\n    tag_166:\n        /* \"#utility.yul\":4448:4454   */\n      0x00\n        /* \"#utility.yul\":4501:4503   */\n      0x20\n        /* \"#utility.yul\":4489:4498   */\n      dup3\n        /* \"#utility.yul\":4480:4487   */\n      dup5\n        /* \"#utility.yul\":4476:4499   */\n      sub\n        /* \"#utility.yul\":4472:4504   */\n      slt\n        /* \"#utility.yul\":4469:4521   */\n      iszero\n      tag_253\n      jumpi\n        /* \"#utility.yul\":4517:4518   */\n      0x00\n        /* \"#utility.yul\":4514:4515   */\n      dup1\n        /* \"#utility.yul\":4507:4519   */\n      revert\n        /* \"#utility.yul\":4469:4521   */\n    tag_253:\n        /* \"#utility.yul\":4549:4558   */\n      dup2\n        /* \"#utility.yul\":4543:4559   */\n      mload\n        /* \"#utility.yul\":4568:4596   */\n      tag_192\n        /* \"#utility.yul\":4590:4595   */\n      dup2\n        /* \"#utility.yul\":4568:4596   */\n      tag_218\n      jump\t// in\n        /* \"#utility.yul\":4631:4758   */\n    tag_220:\n        /* \"#utility.yul\":4692:4702   */\n      0x4e487b71\n        /* \"#utility.yul\":4687:4690   */\n      0xe0\n        /* \"#utility.yul\":4683:4703   */\n      shl\n        /* \"#utility.yul\":4680:4681   */\n      0x00\n        /* \"#utility.yul\":4673:4704   */\n      mstore\n        /* \"#utility.yul\":4723:4727   */\n      0x11\n        /* \"#utility.yul\":4720:4721   */\n      0x04\n        /* \"#utility.yul\":4713:4728   */\n      mstore\n        /* \"#utility.yul\":4747:4751   */\n      0x24\n        /* \"#utility.yul\":4744:4745   */\n      0x00\n        /* \"#utility.yul\":4737:4752   */\n      revert\n        /* \"#utility.yul\":4763:4931   */\n    tag_169:\n        /* \"#utility.yul\":4803:4810   */\n      0x00\n        /* \"#utility.yul\":4869:4870   */\n      dup2\n        /* \"#utility.yul\":4865:4866   */\n      0x00\n        /* \"#utility.yul\":4861:4867   */\n      not\n        /* \"#utility.yul\":4857:4871   */\n      div\n        /* \"#utility.yul\":4854:4855   */\n      dup4\n        /* \"#utility.yul\":4851:4872   */\n      gt\n        /* \"#utility.yul\":4846:4847   */\n      dup3\n        /* \"#utility.yul\":4839:4848   */\n      iszero\n        /* \"#utility.yul\":4832:4849   */\n      iszero\n        /* \"#utility.yul\":4828:4873   */\n      and\n        /* \"#utility.yul\":4825:4896   */\n      iszero\n      tag_258\n      jumpi\n        /* \"#utility.yul\":4876:4894   */\n      tag_258\n      tag_220\n      jump\t// in\n    tag_258:\n      pop\n        /* \"#utility.yul\":4916:4925   */\n      mul\n      swap1\n        /* \"#utility.yul\":4763:4931   */\n      jump\t// out\n        /* \"#utility.yul\":4936:5064   */\n    tag_171:\n        /* \"#utility.yul\":4976:4979   */\n      0x00\n        /* \"#utility.yul\":5007:5008   */\n      dup3\n        /* \"#utility.yul\":5003:5009   */\n      not\n        /* \"#utility.yul\":5000:5001   */\n      dup3\n        /* \"#utility.yul\":4997:5010   */\n      gt\n        /* \"#utility.yul\":4994:5033   */\n      iszero\n      tag_261\n      jumpi\n        /* \"#utility.yul\":5013:5031   */\n      tag_261\n      tag_220\n      jump\t// in\n    tag_261:\n      pop\n        /* \"#utility.yul\":5049:5058   */\n      add\n      swap1\n        /* \"#utility.yul\":4936:5064   */\n      jump\t// out\n        /* \"#utility.yul\":5069:5196   */\n    tag_174:\n        /* \"#utility.yul\":5130:5140   */\n      0x4e487b71\n        /* \"#utility.yul\":5125:5128   */\n      0xe0\n        /* \"#utility.yul\":5121:5141   */\n      shl\n        /* \"#utility.yul\":5118:5119   */\n      0x00\n        /* \"#utility.yul\":5111:5142   */\n      mstore\n        /* \"#utility.yul\":5161:5165   */\n      0x41\n        /* \"#utility.yul\":5158:5159   */\n      0x04\n        /* \"#utility.yul\":5151:5166   */\n      mstore\n        /* \"#utility.yul\":5185:5189   */\n      0x24\n        /* \"#utility.yul\":5182:5183   */\n      0x00\n        /* \"#utility.yul\":5175:5190   */\n      revert\n        /* \"#utility.yul\":5201:5328   */\n    tag_178:\n        /* \"#utility.yul\":5262:5272   */\n      0x4e487b71\n        /* \"#utility.yul\":5257:5260   */\n      0xe0\n        /* \"#utility.yul\":5253:5273   */\n      shl\n        /* \"#utility.yul\":5250:5251   */\n      0x00\n        /* \"#utility.yul\":5243:5274   */\n      mstore\n        /* \"#utility.yul\":5293:5297   */\n      0x32\n        /* \"#utility.yul\":5290:5291   */\n      0x04\n        /* \"#utility.yul\":5283:5298   */\n      mstore\n        /* \"#utility.yul\":5317:5321   */\n      0x24\n        /* \"#utility.yul\":5314:5315   */\n      0x00\n        /* \"#utility.yul\":5307:5322   */\n      revert\n        /* \"#utility.yul\":5333:5469   */\n    tag_191:\n        /* \"#utility.yul\":5372:5375   */\n      0x00\n        /* \"#utility.yul\":5400:5405   */\n      dup2\n        /* \"#utility.yul\":5390:5429   */\n      tag_266\n      jumpi\n        /* \"#utility.yul\":5409:5427   */\n      tag_266\n      tag_220\n      jump\t// in\n    tag_266:\n      pop\n      not(0x00)\n        /* \"#utility.yul\":5445:5463   */\n      add\n      swap1\n        /* \"#utility.yul\":5333:5469   */\n      jump\t// out\n        /* \"#utility.yul\":5835:6093   */\n    tag_221:\n        /* \"#utility.yul\":5907:5908   */\n      0x00\n        /* \"#utility.yul\":5917:6030   */\n    tag_269:\n        /* \"#utility.yul\":5931:5937   */\n      dup4\n        /* \"#utility.yul\":5928:5929   */\n      dup2\n        /* \"#utility.yul\":5925:5938   */\n      lt\n        /* \"#utility.yul\":5917:6030   */\n      iszero\n      tag_271\n      jumpi\n        /* \"#utility.yul\":6007:6018   */\n      dup2\n      dup2\n      add\n        /* \"#utility.yul\":6001:6019   */\n      mload\n        /* \"#utility.yul\":5988:5999   */\n      dup4\n      dup3\n      add\n        /* \"#utility.yul\":5981:6020   */\n      mstore\n        /* \"#utility.yul\":5953:5955   */\n      0x20\n        /* \"#utility.yul\":5946:5956   */\n      add\n        /* \"#utility.yul\":5917:6030   */\n      jump(tag_269)\n    tag_271:\n        /* \"#utility.yul\":6048:6054   */\n      dup4\n        /* \"#utility.yul\":6045:6046   */\n      dup2\n        /* \"#utility.yul\":6042:6055   */\n      gt\n        /* \"#utility.yul\":6039:6087   */\n      iszero\n      tag_272\n      jumpi\n        /* \"#utility.yul\":6083:6084   */\n      0x00\n        /* \"#utility.yul\":6074:6080   */\n      dup5\n        /* \"#utility.yul\":6069:6072   */\n      dup5\n        /* \"#utility.yul\":6065:6081   */\n      add\n        /* \"#utility.yul\":6058:6085   */\n      mstore\n        /* \"#utility.yul\":6039:6087   */\n    tag_272:\n      pop\n        /* \"#utility.yul\":5835:6093   */\n      pop\n      pop\n      pop\n      jump\t// out\n        /* \"#utility.yul\":6098:6884   */\n    tag_215:\n        /* \"#utility.yul\":6509:6534   */\n      0x416363657373436f6e74726f6c3a206163636f756e7420000000000000000000\n        /* \"#utility.yul\":6504:6507   */\n      dup2\n        /* \"#utility.yul\":6497:6535   */\n      mstore\n        /* \"#utility.yul\":6479:6482   */\n      0x00\n        /* \"#utility.yul\":6564:6570   */\n      dup4\n        /* \"#utility.yul\":6558:6571   */\n      mload\n        /* \"#utility.yul\":6580:6642   */\n      tag_274\n        /* \"#utility.yul\":6635:6641   */\n      dup2\n        /* \"#utility.yul\":6630:6632   */\n      0x17\n        /* \"#utility.yul\":6625:6628   */\n      dup6\n        /* \"#utility.yul\":6621:6633   */\n      add\n        /* \"#utility.yul\":6614:6618   */\n      0x20\n        /* \"#utility.yul\":6606:6612   */\n      dup9\n        /* \"#utility.yul\":6602:6619   */\n      add\n        /* \"#utility.yul\":6580:6642   */\n      tag_221\n      jump\t// in\n    tag_274:\n      shl(0x7d, 0x01034b99036b4b9b9b4b733903937b6329)\n        /* \"#utility.yul\":6701:6703   */\n      0x17\n        /* \"#utility.yul\":6661:6677   */\n      swap2\n      dup5\n      add\n        /* \"#utility.yul\":6693:6704   */\n      swap2\n      dup3\n      add\n        /* \"#utility.yul\":6686:6726   */\n      mstore\n        /* \"#utility.yul\":6751:6764   */\n      dup4\n      mload\n        /* \"#utility.yul\":6773:6836   */\n      tag_275\n        /* \"#utility.yul\":6751:6764   */\n      dup2\n        /* \"#utility.yul\":6822:6824   */\n      0x28\n        /* \"#utility.yul\":6814:6825   */\n      dup5\n      add\n        /* \"#utility.yul\":6807:6811   */\n      0x20\n        /* \"#utility.yul\":6795:6812   */\n      dup9\n      add\n        /* \"#utility.yul\":6773:6836   */\n      tag_221\n      jump\t// in\n    tag_275:\n        /* \"#utility.yul\":6856:6873   */\n      add\n        /* \"#utility.yul\":6875:6877   */\n      0x28\n        /* \"#utility.yul\":6852:6878   */\n      add\n      swap5\n        /* \"#utility.yul\":6098:6884   */\n      swap4\n      pop\n      pop\n      pop\n      pop\n      jump\t// out\n        /* \"#utility.yul\":6889:7272   */\n    tag_217:\n        /* \"#utility.yul\":7038:7040   */\n      0x20\n        /* \"#utility.yul\":7027:7036   */\n      dup2\n        /* \"#utility.yul\":7020:7041   */\n      mstore\n        /* \"#utility.yul\":7001:7005   */\n      0x00\n        /* \"#utility.yul\":7070:7076   */\n      dup3\n        /* \"#utility.yul\":7064:7077   */\n      mload\n        /* \"#utility.yul\":7113:7119   */\n      dup1\n        /* \"#utility.yul\":7108:7110   */\n      0x20\n        /* \"#utility.yul\":7097:7106   */\n      dup5\n        /* \"#utility.yul\":7093:7111   */\n      add\n        /* \"#utility.yul\":7086:7120   */\n      mstore\n        /* \"#utility.yul\":7129:7195   */\n      tag_277\n        /* \"#utility.yul\":7188:7194   */\n      dup2\n        /* \"#utility.yul\":7183:7185   */\n      0x40\n        /* \"#utility.yul\":7172:7181   */\n      dup6\n        /* \"#utility.yul\":7168:7186   */\n      add\n        /* \"#utility.yul\":7163:7165   */\n      0x20\n        /* \"#utility.yul\":7155:7161   */\n      dup8\n        /* \"#utility.yul\":7151:7166   */\n      add\n        /* \"#utility.yul\":7129:7195   */\n      tag_221\n      jump\t// in\n    tag_277:\n        /* \"#utility.yul\":7256:7258   */\n      0x1f\n        /* \"#utility.yul\":7235:7250   */\n      add\n      not(0x1f)\n        /* \"#utility.yul\":7231:7260   */\n      and\n        /* \"#utility.yul\":7216:7261   */\n      swap2\n      swap1\n      swap2\n      add\n        /* \"#utility.yul\":7263:7265   */\n      0x40\n        /* \"#utility.yul\":7212:7266   */\n      add\n      swap3\n        /* \"#utility.yul\":6889:7272   */\n      swap2\n      pop\n      pop\n      jump\t// out\n\n    auxdata: 0xa2646970667358221220f13239a472c46fdb087897b83938cd82db0a5602a5c523532cd231c40ab151ee64736f6c634300080f0033\n}\n",
				"bytecode": {
					"linkReferences": {},
					"object": "60806040523480156200001157600080fd5b506040516200124b3803806200124b83398101604081905262000034916200039b565b600180556200004560003362000057565b6200005081620000f8565b5062000540565b6000828152602081815260408083206001600160a01b038516845290915290205460ff16620000f4576000828152602081815260408083206001600160a01b03851684529091529020805460ff19166001179055620000b33390565b6001600160a01b0316816001600160a01b0316837f2f8788117e7eff1d82e926ec794901d17c78024a50270940304540a733656f0d60405160405180910390a45b5050565b6000620001058162000128565b50600280546001600160a01b0319166001600160a01b0392909216919091179055565b62000134813362000137565b50565b6000828152602081815260408083206001600160a01b038516845290915290205460ff16620000f45762000181816001600160a01b03166014620001db60201b6200075a1760201c565b620001978360206200075a620001db821b17811c565b604051602001620001aa929190620003f9565b60408051601f198184030181529082905262461bcd60e51b8252620001d29160040162000472565b60405180910390fd5b60606000620001ec836002620004bd565b620001f9906002620004df565b6001600160401b03811115620002135762000213620004fa565b6040519080825280601f01601f1916602001820160405280156200023e576020820181803683370190505b509050600360fc1b816000815181106200025c576200025c62000510565b60200101906001600160f81b031916908160001a905350600f60fb1b816001815181106200028e576200028e62000510565b60200101906001600160f81b031916908160001a9053506000620002b4846002620004bd565b620002c1906001620004df565b90505b600181111562000343576f181899199a1a9b1b9c1cb0b131b232b360811b85600f1660108110620002f957620002f962000510565b1a60f81b82828151811062000312576200031262000510565b60200101906001600160f81b031916908160001a90535060049490941c936200033b8162000526565b9050620002c4565b508315620003945760405162461bcd60e51b815260206004820181905260248201527f537472696e67733a20686578206c656e67746820696e73756666696369656e746044820152606401620001d2565b9392505050565b600060208284031215620003ae57600080fd5b81516001600160a01b03811681146200039457600080fd5b60005b83811015620003e3578181015183820152602001620003c9565b83811115620003f3576000848401525b50505050565b7f416363657373436f6e74726f6c3a206163636f756e742000000000000000000081526000835162000433816017850160208801620003c6565b7001034b99036b4b9b9b4b733903937b6329607d1b601791840191820152835162000466816028840160208801620003c6565b01602801949350505050565b602081526000825180602084015262000493816040850160208701620003c6565b601f01601f19169190910160400192915050565b634e487b7160e01b600052601160045260246000fd5b6000816000190483118215151615620004da57620004da620004a7565b500290565b60008219821115620004f557620004f5620004a7565b500190565b634e487b7160e01b600052604160045260246000fd5b634e487b7160e01b600052603260045260246000fd5b600081620005385762000538620004a7565b506000190190565b610cfb80620005506000396000f3fe6080604052600436106100fe5760003560e01c8063804f43cd11610095578063a6f5f01411610064578063a6f5f014146102a3578063c4e41b22146102c4578063d547741f146102d9578063dd31a7ba146102f9578063ff0938a71461031957600080fd5b8063804f43cd1461024557806391d148541461024d57806394f4504d1461026d578063a217fddf1461028e57600080fd5b80632f2ff15d116100d15780632f2ff15d146101d057806336568abe146101f05780634c0f38c21461021057806361aec2051461022557600080fd5b806301ffc9a714610103578063248a9ca31461013857806327c25c201461017657806328438f68146101ae575b600080fd5b34801561010f57600080fd5b5061012361011e366004610a57565b61032e565b60405190151581526020015b60405180910390f35b34801561014457600080fd5b50610168610153366004610a81565b60009081526020819052604090206001015490565b60405190815260200161012f565b34801561018257600080fd5b50600254610196906001600160a01b031681565b6040516001600160a01b03909116815260200161012f565b3480156101ba57600080fd5b506101ce6101c9366004610aa8565b610365565b005b3480156101dc57600080fd5b506101ce6101eb366004610ada565b61038f565b3480156101fc57600080fd5b506101ce61020b366004610ada565b6103b9565b34801561021c57600080fd5b5061016861043c565b34801561023157600080fd5b506101ce610240366004610b0a565b6104af565b6101ce6104dd565b34801561025957600080fd5b50610123610268366004610ada565b61062a565b34801561027957600080fd5b5060025461012390600160a81b900460ff1681565b34801561029a57600080fd5b50610168600081565b3480156102af57600080fd5b5060025461012390600160a01b900460ff1681565b3480156102d057600080fd5b50610168610653565b3480156102e557600080fd5b506101ce6102f4366004610ada565b61069d565b34801561030557600080fd5b506101ce610314366004610aa8565b6106c2565b34801561032557600080fd5b506101236106ec565b60006001600160e01b03198216637965db0b60e01b148061035f57506301ffc9a760e01b6001600160e01b03198316145b92915050565b6000610370816108fd565b5060028054911515600160a01b0260ff60a01b19909216919091179055565b6000828152602081905260409020600101546103aa816108fd565b6103b4838361090a565b505050565b6001600160a01b038116331461042e5760405162461bcd60e51b815260206004820152602f60248201527f416363657373436f6e74726f6c3a2063616e206f6e6c792072656e6f756e636560448201526e103937b632b9903337b91039b2b63360891b60648201526084015b60405180910390fd5b610438828261098e565b5050565b6002546040805163d5abeb0160e01b815290516000926001600160a01b03169163d5abeb019160048083019260209291908290030181865afa158015610486573d6000803e3d6000fd5b505050506040513d601f19601f820116820180604052508101906104aa9190610b27565b905090565b60006104ba816108fd565b50600280546001600160a01b0319166001600160a01b0392909216919091179055565b60026001540361052f5760405162461bcd60e51b815260206004820152601f60248201527f5265656e7472616e637947756172643a207265656e7472616e742063616c6c006044820152606401610425565b600260015561053c6106ec565b156105805760405162461bcd60e51b81526020600482015260146024820152732730b3b0a5b4b239903bb0b9902830bab9b2b21760611b6044820152606401610425565b600254600160a81b900460ff1615156001146105de5760405162461bcd60e51b815260206004820152601b60248201527f57686974656c697374206e6f74206f70656e20746f206d696e742e00000000006044820152606401610425565b6104576105e9610653565b106106245760405162461bcd60e51b815260206004820152600b60248201526a4f76657220737570706c7960a81b6044820152606401610425565b60018055565b6000918252602082815260408084206001600160a01b0393909316845291905290205460ff1690565b600254604080516318160ddd60e01b815290516000926001600160a01b0316916318160ddd9160048083019260209291908290030181865afa158015610486573d6000803e3d6000fd5b6000828152602081905260409020600101546106b8816108fd565b6103b4838361098e565b60006106cd816108fd565b5060028054911515600160a81b0260ff60a81b19909216919091179055565b60025460408051635c975abb60e01b815290516000926001600160a01b031691635c975abb9160048083019260209291908290030181865afa158015610736573d6000803e3d6000fd5b505050506040513d601f19601f820116820180604052508101906104aa9190610b40565b60606000610769836002610b73565b610774906002610b92565b67ffffffffffffffff81111561078c5761078c610baa565b6040519080825280601f01601f1916602001820160405280156107b6576020820181803683370190505b509050600360fc1b816000815181106107d1576107d1610bc0565b60200101906001600160f81b031916908160001a905350600f60fb1b8160018151811061080057610800610bc0565b60200101906001600160f81b031916908160001a9053506000610824846002610b73565b61082f906001610b92565b90505b60018111156108a7576f181899199a1a9b1b9c1cb0b131b232b360811b85600f166010811061086357610863610bc0565b1a60f81b82828151811061087957610879610bc0565b60200101906001600160f81b031916908160001a90535060049490941c936108a081610bd6565b9050610832565b5083156108f65760405162461bcd60e51b815260206004820181905260248201527f537472696e67733a20686578206c656e67746820696e73756666696369656e746044820152606401610425565b9392505050565b61090781336109f3565b50565b610914828261062a565b610438576000828152602081815260408083206001600160a01b03851684529091529020805460ff1916600117905561094a3390565b6001600160a01b0316816001600160a01b0316837f2f8788117e7eff1d82e926ec794901d17c78024a50270940304540a733656f0d60405160405180910390a45050565b610998828261062a565b15610438576000828152602081815260408083206001600160a01b0385168085529252808320805460ff1916905551339285917ff6391f5c32d9c69d2a47ea670b442974b53935d1edc7fd64eb21e047a839171b9190a45050565b6109fd828261062a565b61043857610a15816001600160a01b0316601461075a565b610a2083602061075a565b604051602001610a31929190610c1d565b60408051601f198184030181529082905262461bcd60e51b825261042591600401610c92565b600060208284031215610a6957600080fd5b81356001600160e01b0319811681146108f657600080fd5b600060208284031215610a9357600080fd5b5035919050565b801515811461090757600080fd5b600060208284031215610aba57600080fd5b81356108f681610a9a565b6001600160a01b038116811461090757600080fd5b60008060408385031215610aed57600080fd5b823591506020830135610aff81610ac5565b809150509250929050565b600060208284031215610b1c57600080fd5b81356108f681610ac5565b600060208284031215610b3957600080fd5b5051919050565b600060208284031215610b5257600080fd5b81516108f681610a9a565b634e487b7160e01b600052601160045260246000fd5b6000816000190483118215151615610b8d57610b8d610b5d565b500290565b60008219821115610ba557610ba5610b5d565b500190565b634e487b7160e01b600052604160045260246000fd5b634e487b7160e01b600052603260045260246000fd5b600081610be557610be5610b5d565b506000190190565b60005b83811015610c08578181015183820152602001610bf0565b83811115610c17576000848401525b50505050565b7f416363657373436f6e74726f6c3a206163636f756e7420000000000000000000815260008351610c55816017850160208801610bed565b7001034b99036b4b9b9b4b733903937b6329607d1b6017918401918201528351610c86816028840160208801610bed565b01602801949350505050565b6020815260008251806020840152610cb1816040850160208701610bed565b601f01601f1916919091016040019291505056fea2646970667358221220f13239a472c46fdb087897b83938cd82db0a5602a5c523532cd231c40ab151ee64736f6c634300080f0033",
					"opcodes": "PUSH1 0x80 PUSH1 0x40 MSTORE CALLVALUE DUP1 ISZERO PUSH3 0x11 JUMPI PUSH1 0x0 DUP1 REVERT JUMPDEST POP PUSH1 0x40 MLOAD PUSH3 0x124B CODESIZE SUB DUP1 PUSH3 0x124B DUP4 CODECOPY DUP2 ADD PUSH1 0x40 DUP2 SWAP1 MSTORE PUSH3 0x34 SWAP2 PUSH3 0x39B JUMP JUMPDEST PUSH1 0x1 DUP1 SSTORE PUSH3 0x45 PUSH1 0x0 CALLER PUSH3 0x57 JUMP JUMPDEST PUSH3 0x50 DUP2 PUSH3 0xF8 JUMP JUMPDEST POP PUSH3 0x540 JUMP JUMPDEST PUSH1 0x0 DUP3 DUP2 MSTORE PUSH1 0x20 DUP2 DUP2 MSTORE PUSH1 0x40 DUP1 DUP4 KECCAK256 PUSH1 0x1 PUSH1 0x1 PUSH1 0xA0 SHL SUB DUP6 AND DUP5 MSTORE SWAP1 SWAP2 MSTORE SWAP1 KECCAK256 SLOAD PUSH1 0xFF AND PUSH3 0xF4 JUMPI PUSH1 0x0 DUP3 DUP2 MSTORE PUSH1 0x20 DUP2 DUP2 MSTORE PUSH1 0x40 DUP1 DUP4 KECCAK256 PUSH1 0x1 PUSH1 0x1 PUSH1 0xA0 SHL SUB DUP6 AND DUP5 MSTORE SWAP1 SWAP2 MSTORE SWAP1 KECCAK256 DUP1 SLOAD PUSH1 0xFF NOT AND PUSH1 0x1 OR SWAP1 SSTORE PUSH3 0xB3 CALLER SWAP1 JUMP JUMPDEST PUSH1 0x1 PUSH1 0x1 PUSH1 0xA0 SHL SUB AND DUP2 PUSH1 0x1 PUSH1 0x1 PUSH1 0xA0 SHL SUB AND DUP4 PUSH32 0x2F8788117E7EFF1D82E926EC794901D17C78024A50270940304540A733656F0D PUSH1 0x40 MLOAD PUSH1 0x40 MLOAD DUP1 SWAP2 SUB SWAP1 LOG4 JUMPDEST POP POP JUMP JUMPDEST PUSH1 0x0 PUSH3 0x105 DUP2 PUSH3 0x128 JUMP JUMPDEST POP PUSH1 0x2 DUP1 SLOAD PUSH1 0x1 PUSH1 0x1 PUSH1 0xA0 SHL SUB NOT AND PUSH1 0x1 PUSH1 0x1 PUSH1 0xA0 SHL SUB SWAP3 SWAP1 SWAP3 AND SWAP2 SWAP1 SWAP2 OR SWAP1 SSTORE JUMP JUMPDEST PUSH3 0x134 DUP2 CALLER PUSH3 0x137 JUMP JUMPDEST POP JUMP JUMPDEST PUSH1 0x0 DUP3 DUP2 MSTORE PUSH1 0x20 DUP2 DUP2 MSTORE PUSH1 0x40 DUP1 DUP4 KECCAK256 PUSH1 0x1 PUSH1 0x1 PUSH1 0xA0 SHL SUB DUP6 AND DUP5 MSTORE SWAP1 SWAP2 MSTORE SWAP1 KECCAK256 SLOAD PUSH1 0xFF AND PUSH3 0xF4 JUMPI PUSH3 0x181 DUP2 PUSH1 0x1 PUSH1 0x1 PUSH1 0xA0 SHL SUB AND PUSH1 0x14 PUSH3 0x1DB PUSH1 0x20 SHL PUSH3 0x75A OR PUSH1 0x20 SHR JUMP JUMPDEST PUSH3 0x197 DUP4 PUSH1 0x20 PUSH3 0x75A PUSH3 0x1DB DUP3 SHL OR DUP2 SHR JUMP JUMPDEST PUSH1 0x40 MLOAD PUSH1 0x20 ADD PUSH3 0x1AA SWAP3 SWAP2 SWAP1 PUSH3 0x3F9 JUMP JUMPDEST PUSH1 0x40 DUP1 MLOAD PUSH1 0x1F NOT DUP2 DUP5 SUB ADD DUP2 MSTORE SWAP1 DUP3 SWAP1 MSTORE PUSH3 0x461BCD PUSH1 0xE5 SHL DUP3 MSTORE PUSH3 0x1D2 SWAP2 PUSH1 0x4 ADD PUSH3 0x472 JUMP JUMPDEST PUSH1 0x40 MLOAD DUP1 SWAP2 SUB SWAP1 REVERT JUMPDEST PUSH1 0x60 PUSH1 0x0 PUSH3 0x1EC DUP4 PUSH1 0x2 PUSH3 0x4BD JUMP JUMPDEST PUSH3 0x1F9 SWAP1 PUSH1 0x2 PUSH3 0x4DF JUMP JUMPDEST PUSH1 0x1 PUSH1 0x1 PUSH1 0x40 SHL SUB DUP2 GT ISZERO PUSH3 0x213 JUMPI PUSH3 0x213 PUSH3 0x4FA JUMP JUMPDEST PUSH1 0x40 MLOAD SWAP1 DUP1 DUP3 MSTORE DUP1 PUSH1 0x1F ADD PUSH1 0x1F NOT AND PUSH1 0x20 ADD DUP3 ADD PUSH1 0x40 MSTORE DUP1 ISZERO PUSH3 0x23E JUMPI PUSH1 0x20 DUP3 ADD DUP2 DUP1 CALLDATASIZE DUP4 CALLDATACOPY ADD SWAP1 POP JUMPDEST POP SWAP1 POP PUSH1 0x3 PUSH1 0xFC SHL DUP2 PUSH1 0x0 DUP2 MLOAD DUP2 LT PUSH3 0x25C JUMPI PUSH3 0x25C PUSH3 0x510 JUMP JUMPDEST PUSH1 0x20 ADD ADD SWAP1 PUSH1 0x1 PUSH1 0x1 PUSH1 0xF8 SHL SUB NOT AND SWAP1 DUP2 PUSH1 0x0 BYTE SWAP1 MSTORE8 POP PUSH1 0xF PUSH1 0xFB SHL DUP2 PUSH1 0x1 DUP2 MLOAD DUP2 LT PUSH3 0x28E JUMPI PUSH3 0x28E PUSH3 0x510 JUMP JUMPDEST PUSH1 0x20 ADD ADD SWAP1 PUSH1 0x1 PUSH1 0x1 PUSH1 0xF8 SHL SUB NOT AND SWAP1 DUP2 PUSH1 0x0 BYTE SWAP1 MSTORE8 POP PUSH1 0x0 PUSH3 0x2B4 DUP5 PUSH1 0x2 PUSH3 0x4BD JUMP JUMPDEST PUSH3 0x2C1 SWAP1 PUSH1 0x1 PUSH3 0x4DF JUMP JUMPDEST SWAP1 POP JUMPDEST PUSH1 0x1 DUP2 GT ISZERO PUSH3 0x343 JUMPI PUSH16 0x181899199A1A9B1B9C1CB0B131B232B3 PUSH1 0x81 SHL DUP6 PUSH1 0xF AND PUSH1 0x10 DUP2 LT PUSH3 0x2F9 JUMPI PUSH3 0x2F9 PUSH3 0x510 JUMP JUMPDEST BYTE PUSH1 0xF8 SHL DUP3 DUP3 DUP2 MLOAD DUP2 LT PUSH3 0x312 JUMPI PUSH3 0x312 PUSH3 0x510 JUMP JUMPDEST PUSH1 0x20 ADD ADD SWAP1 PUSH1 0x1 PUSH1 0x1 PUSH1 0xF8 SHL SUB NOT AND SWAP1 DUP2 PUSH1 0x0 BYTE SWAP1 MSTORE8 POP PUSH1 0x4 SWAP5 SWAP1 SWAP5 SHR SWAP4 PUSH3 0x33B DUP2 PUSH3 0x526 JUMP JUMPDEST SWAP1 POP PUSH3 0x2C4 JUMP JUMPDEST POP DUP4 ISZERO PUSH3 0x394 JUMPI PUSH1 0x40 MLOAD PUSH3 0x461BCD PUSH1 0xE5 SHL DUP2 MSTORE PUSH1 0x20 PUSH1 0x4 DUP3 ADD DUP2 SWAP1 MSTORE PUSH1 0x24 DUP3 ADD MSTORE PUSH32 0x537472696E67733A20686578206C656E67746820696E73756666696369656E74 PUSH1 0x44 DUP3 ADD MSTORE PUSH1 0x64 ADD PUSH3 0x1D2 JUMP JUMPDEST SWAP4 SWAP3 POP POP POP JUMP JUMPDEST PUSH1 0x0 PUSH1 0x20 DUP3 DUP5 SUB SLT ISZERO PUSH3 0x3AE JUMPI PUSH1 0x0 DUP1 REVERT JUMPDEST DUP2 MLOAD PUSH1 0x1 PUSH1 0x1 PUSH1 0xA0 SHL SUB DUP2 AND DUP2 EQ PUSH3 0x394 JUMPI PUSH1 0x0 DUP1 REVERT JUMPDEST PUSH1 0x0 JUMPDEST DUP4 DUP2 LT ISZERO PUSH3 0x3E3 JUMPI DUP2 DUP2 ADD MLOAD DUP4 DUP3 ADD MSTORE PUSH1 0x20 ADD PUSH3 0x3C9 JUMP JUMPDEST DUP4 DUP2 GT ISZERO PUSH3 0x3F3 JUMPI PUSH1 0x0 DUP5 DUP5 ADD MSTORE JUMPDEST POP POP POP POP JUMP JUMPDEST PUSH32 0x416363657373436F6E74726F6C3A206163636F756E7420000000000000000000 DUP2 MSTORE PUSH1 0x0 DUP4 MLOAD PUSH3 0x433 DUP2 PUSH1 0x17 DUP6 ADD PUSH1 0x20 DUP9 ADD PUSH3 0x3C6 JUMP JUMPDEST PUSH17 0x1034B99036B4B9B9B4B733903937B6329 PUSH1 0x7D SHL PUSH1 0x17 SWAP2 DUP5 ADD SWAP2 DUP3 ADD MSTORE DUP4 MLOAD PUSH3 0x466 DUP2 PUSH1 0x28 DUP5 ADD PUSH1 0x20 DUP9 ADD PUSH3 0x3C6 JUMP JUMPDEST ADD PUSH1 0x28 ADD SWAP5 SWAP4 POP POP POP POP JUMP JUMPDEST PUSH1 0x20 DUP2 MSTORE PUSH1 0x0 DUP3 MLOAD DUP1 PUSH1 0x20 DUP5 ADD MSTORE PUSH3 0x493 DUP2 PUSH1 0x40 DUP6 ADD PUSH1 0x20 DUP8 ADD PUSH3 0x3C6 JUMP JUMPDEST PUSH1 0x1F ADD PUSH1 0x1F NOT AND SWAP2 SWAP1 SWAP2 ADD PUSH1 0x40 ADD SWAP3 SWAP2 POP POP JUMP JUMPDEST PUSH4 0x4E487B71 PUSH1 0xE0 SHL PUSH1 0x0 MSTORE PUSH1 0x11 PUSH1 0x4 MSTORE PUSH1 0x24 PUSH1 0x0 REVERT JUMPDEST PUSH1 0x0 DUP2 PUSH1 0x0 NOT DIV DUP4 GT DUP3 ISZERO ISZERO AND ISZERO PUSH3 0x4DA JUMPI PUSH3 0x4DA PUSH3 0x4A7 JUMP JUMPDEST POP MUL SWAP1 JUMP JUMPDEST PUSH1 0x0 DUP3 NOT DUP3 GT ISZERO PUSH3 0x4F5 JUMPI PUSH3 0x4F5 PUSH3 0x4A7 JUMP JUMPDEST POP ADD SWAP1 JUMP JUMPDEST PUSH4 0x4E487B71 PUSH1 0xE0 SHL PUSH1 0x0 MSTORE PUSH1 0x41 PUSH1 0x4 MSTORE PUSH1 0x24 PUSH1 0x0 REVERT JUMPDEST PUSH4 0x4E487B71 PUSH1 0xE0 SHL PUSH1 0x0 MSTORE PUSH1 0x32 PUSH1 0x4 MSTORE PUSH1 0x24 PUSH1 0x0 REVERT JUMPDEST PUSH1 0x0 DUP2 PUSH3 0x538 JUMPI PUSH3 0x538 PUSH3 0x4A7 JUMP JUMPDEST POP PUSH1 0x0 NOT ADD SWAP1 JUMP JUMPDEST PUSH2 0xCFB DUP1 PUSH3 0x550 PUSH1 0x0 CODECOPY PUSH1 0x0 RETURN INVALID PUSH1 0x80 PUSH1 0x40 MSTORE PUSH1 0x4 CALLDATASIZE LT PUSH2 0xFE JUMPI PUSH1 0x0 CALLDATALOAD PUSH1 0xE0 SHR DUP1 PUSH4 0x804F43CD GT PUSH2 0x95 JUMPI DUP1 PUSH4 0xA6F5F014 GT PUSH2 0x64 JUMPI DUP1 PUSH4 0xA6F5F014 EQ PUSH2 0x2A3 JUMPI DUP1 PUSH4 0xC4E41B22 EQ PUSH2 0x2C4 JUMPI DUP1 PUSH4 0xD547741F EQ PUSH2 0x2D9 JUMPI DUP1 PUSH4 0xDD31A7BA EQ PUSH2 0x2F9 JUMPI DUP1 PUSH4 0xFF0938A7 EQ PUSH2 0x319 JUMPI PUSH1 0x0 DUP1 REVERT JUMPDEST DUP1 PUSH4 0x804F43CD EQ PUSH2 0x245 JUMPI DUP1 PUSH4 0x91D14854 EQ PUSH2 0x24D JUMPI DUP1 PUSH4 0x94F4504D EQ PUSH2 0x26D JUMPI DUP1 PUSH4 0xA217FDDF EQ PUSH2 0x28E JUMPI PUSH1 0x0 DUP1 REVERT JUMPDEST DUP1 PUSH4 0x2F2FF15D GT PUSH2 0xD1 JUMPI DUP1 PUSH4 0x2F2FF15D EQ PUSH2 0x1D0 JUMPI DUP1 PUSH4 0x36568ABE EQ PUSH2 0x1F0 JUMPI DUP1 PUSH4 0x4C0F38C2 EQ PUSH2 0x210 JUMPI DUP1 PUSH4 0x61AEC205 EQ PUSH2 0x225 JUMPI PUSH1 0x0 DUP1 REVERT JUMPDEST DUP1 PUSH4 0x1FFC9A7 EQ PUSH2 0x103 JUMPI DUP1 PUSH4 0x248A9CA3 EQ PUSH2 0x138 JUMPI DUP1 PUSH4 0x27C25C20 EQ PUSH2 0x176 JUMPI DUP1 PUSH4 0x28438F68 EQ PUSH2 0x1AE JUMPI JUMPDEST PUSH1 0x0 DUP1 REVERT JUMPDEST CALLVALUE DUP1 ISZERO PUSH2 0x10F JUMPI PUSH1 0x0 DUP1 REVERT JUMPDEST POP PUSH2 0x123 PUSH2 0x11E CALLDATASIZE PUSH1 0x4 PUSH2 0xA57 JUMP JUMPDEST PUSH2 0x32E JUMP JUMPDEST PUSH1 0x40 MLOAD SWAP1 ISZERO ISZERO DUP2 MSTORE PUSH1 0x20 ADD JUMPDEST PUSH1 0x40 MLOAD DUP1 SWAP2 SUB SWAP1 RETURN JUMPDEST CALLVALUE DUP1 ISZERO PUSH2 0x144 JUMPI PUSH1 0x0 DUP1 REVERT JUMPDEST POP PUSH2 0x168 PUSH2 0x153 CALLDATASIZE PUSH1 0x4 PUSH2 0xA81 JUMP JUMPDEST PUSH1 0x0 SWAP1 DUP2 MSTORE PUSH1 0x20 DUP2 SWAP1 MSTORE PUSH1 0x40 SWAP1 KECCAK256 PUSH1 0x1 ADD SLOAD SWAP1 JUMP JUMPDEST PUSH1 0x40 MLOAD SWAP1 DUP2 MSTORE PUSH1 0x20 ADD PUSH2 0x12F JUMP JUMPDEST CALLVALUE DUP1 ISZERO PUSH2 0x182 JUMPI PUSH1 0x0 DUP1 REVERT JUMPDEST POP PUSH1 0x2 SLOAD PUSH2 0x196 SWAP1 PUSH1 0x1 PUSH1 0x1 PUSH1 0xA0 SHL SUB AND DUP2 JUMP JUMPDEST PUSH1 0x40 MLOAD PUSH1 0x1 PUSH1 0x1 PUSH1 0xA0 SHL SUB SWAP1 SWAP2 AND DUP2 MSTORE PUSH1 0x20 ADD PUSH2 0x12F JUMP JUMPDEST CALLVALUE DUP1 ISZERO PUSH2 0x1BA JUMPI PUSH1 0x0 DUP1 REVERT JUMPDEST POP PUSH2 0x1CE PUSH2 0x1C9 CALLDATASIZE PUSH1 0x4 PUSH2 0xAA8 JUMP JUMPDEST PUSH2 0x365 JUMP JUMPDEST STOP JUMPDEST CALLVALUE DUP1 ISZERO PUSH2 0x1DC JUMPI PUSH1 0x0 DUP1 REVERT JUMPDEST POP PUSH2 0x1CE PUSH2 0x1EB CALLDATASIZE PUSH1 0x4 PUSH2 0xADA JUMP JUMPDEST PUSH2 0x38F JUMP JUMPDEST CALLVALUE DUP1 ISZERO PUSH2 0x1FC JUMPI PUSH1 0x0 DUP1 REVERT JUMPDEST POP PUSH2 0x1CE PUSH2 0x20B CALLDATASIZE PUSH1 0x4 PUSH2 0xADA JUMP JUMPDEST PUSH2 0x3B9 JUMP JUMPDEST CALLVALUE DUP1 ISZERO PUSH2 0x21C JUMPI PUSH1 0x0 DUP1 REVERT JUMPDEST POP PUSH2 0x168 PUSH2 0x43C JUMP JUMPDEST CALLVALUE DUP1 ISZERO PUSH2 0x231 JUMPI PUSH1 0x0 DUP1 REVERT JUMPDEST POP PUSH2 0x1CE PUSH2 0x240 CALLDATASIZE PUSH1 0x4 PUSH2 0xB0A JUMP JUMPDEST PUSH2 0x4AF JUMP JUMPDEST PUSH2 0x1CE PUSH2 0x4DD JUMP JUMPDEST CALLVALUE DUP1 ISZERO PUSH2 0x259 JUMPI PUSH1 0x0 DUP1 REVERT JUMPDEST POP PUSH2 0x123 PUSH2 0x268 CALLDATASIZE PUSH1 0x4 PUSH2 0xADA JUMP JUMPDEST PUSH2 0x62A JUMP JUMPDEST CALLVALUE DUP1 ISZERO PUSH2 0x279 JUMPI PUSH1 0x0 DUP1 REVERT JUMPDEST POP PUSH1 0x2 SLOAD PUSH2 0x123 SWAP1 PUSH1 0x1 PUSH1 0xA8 SHL SWAP1 DIV PUSH1 0xFF AND DUP2 JUMP JUMPDEST CALLVALUE DUP1 ISZERO PUSH2 0x29A JUMPI PUSH1 0x0 DUP1 REVERT JUMPDEST POP PUSH2 0x168 PUSH1 0x0 DUP2 JUMP JUMPDEST CALLVALUE DUP1 ISZERO PUSH2 0x2AF JUMPI PUSH1 0x0 DUP1 REVERT JUMPDEST POP PUSH1 0x2 SLOAD PUSH2 0x123 SWAP1 PUSH1 0x1 PUSH1 0xA0 SHL SWAP1 DIV PUSH1 0xFF AND DUP2 JUMP JUMPDEST CALLVALUE DUP1 ISZERO PUSH2 0x2D0 JUMPI PUSH1 0x0 DUP1 REVERT JUMPDEST POP PUSH2 0x168 PUSH2 0x653 JUMP JUMPDEST CALLVALUE DUP1 ISZERO PUSH2 0x2E5 JUMPI PUSH1 0x0 DUP1 REVERT JUMPDEST POP PUSH2 0x1CE PUSH2 0x2F4 CALLDATASIZE PUSH1 0x4 PUSH2 0xADA JUMP JUMPDEST PUSH2 0x69D JUMP JUMPDEST CALLVALUE DUP1 ISZERO PUSH2 0x305 JUMPI PUSH1 0x0 DUP1 REVERT JUMPDEST POP PUSH2 0x1CE PUSH2 0x314 CALLDATASIZE PUSH1 0x4 PUSH2 0xAA8 JUMP JUMPDEST PUSH2 0x6C2 JUMP JUMPDEST CALLVALUE DUP1 ISZERO PUSH2 0x325 JUMPI PUSH1 0x0 DUP1 REVERT JUMPDEST POP PUSH2 0x123 PUSH2 0x6EC JUMP JUMPDEST PUSH1 0x0 PUSH1 0x1 PUSH1 0x1 PUSH1 0xE0 SHL SUB NOT DUP3 AND PUSH4 0x7965DB0B PUSH1 0xE0 SHL EQ DUP1 PUSH2 0x35F JUMPI POP PUSH4 0x1FFC9A7 PUSH1 0xE0 SHL PUSH1 0x1 PUSH1 0x1 PUSH1 0xE0 SHL SUB NOT DUP4 AND EQ JUMPDEST SWAP3 SWAP2 POP POP JUMP JUMPDEST PUSH1 0x0 PUSH2 0x370 DUP2 PUSH2 0x8FD JUMP JUMPDEST POP PUSH1 0x2 DUP1 SLOAD SWAP2 ISZERO ISZERO PUSH1 0x1 PUSH1 0xA0 SHL MUL PUSH1 0xFF PUSH1 0xA0 SHL NOT SWAP1 SWAP3 AND SWAP2 SWAP1 SWAP2 OR SWAP1 SSTORE JUMP JUMPDEST PUSH1 0x0 DUP3 DUP2 MSTORE PUSH1 0x20 DUP2 SWAP1 MSTORE PUSH1 0x40 SWAP1 KECCAK256 PUSH1 0x1 ADD SLOAD PUSH2 0x3AA DUP2 PUSH2 0x8FD JUMP JUMPDEST PUSH2 0x3B4 DUP4 DUP4 PUSH2 0x90A JUMP JUMPDEST POP POP POP JUMP JUMPDEST PUSH1 0x1 PUSH1 0x1 PUSH1 0xA0 SHL SUB DUP2 AND CALLER EQ PUSH2 0x42E JUMPI PUSH1 0x40 MLOAD PUSH3 0x461BCD PUSH1 0xE5 SHL DUP2 MSTORE PUSH1 0x20 PUSH1 0x4 DUP3 ADD MSTORE PUSH1 0x2F PUSH1 0x24 DUP3 ADD MSTORE PUSH32 0x416363657373436F6E74726F6C3A2063616E206F6E6C792072656E6F756E6365 PUSH1 0x44 DUP3 ADD MSTORE PUSH15 0x103937B632B9903337B91039B2B633 PUSH1 0x89 SHL PUSH1 0x64 DUP3 ADD MSTORE PUSH1 0x84 ADD JUMPDEST PUSH1 0x40 MLOAD DUP1 SWAP2 SUB SWAP1 REVERT JUMPDEST PUSH2 0x438 DUP3 DUP3 PUSH2 0x98E JUMP JUMPDEST POP POP JUMP JUMPDEST PUSH1 0x2 SLOAD PUSH1 0x40 DUP1 MLOAD PUSH4 0xD5ABEB01 PUSH1 0xE0 SHL DUP2 MSTORE SWAP1 MLOAD PUSH1 0x0 SWAP3 PUSH1 0x1 PUSH1 0x1 PUSH1 0xA0 SHL SUB AND SWAP2 PUSH4 0xD5ABEB01 SWAP2 PUSH1 0x4 DUP1 DUP4 ADD SWAP3 PUSH1 0x20 SWAP3 SWAP2 SWAP1 DUP3 SWAP1 SUB ADD DUP2 DUP7 GAS STATICCALL ISZERO DUP1 ISZERO PUSH2 0x486 JUMPI RETURNDATASIZE PUSH1 0x0 DUP1 RETURNDATACOPY RETURNDATASIZE PUSH1 0x0 REVERT JUMPDEST POP POP POP POP PUSH1 0x40 MLOAD RETURNDATASIZE PUSH1 0x1F NOT PUSH1 0x1F DUP3 ADD AND DUP3 ADD DUP1 PUSH1 0x40 MSTORE POP DUP2 ADD SWAP1 PUSH2 0x4AA SWAP2 SWAP1 PUSH2 0xB27 JUMP JUMPDEST SWAP1 POP SWAP1 JUMP JUMPDEST PUSH1 0x0 PUSH2 0x4BA DUP2 PUSH2 0x8FD JUMP JUMPDEST POP PUSH1 0x2 DUP1 SLOAD PUSH1 0x1 PUSH1 0x1 PUSH1 0xA0 SHL SUB NOT AND PUSH1 0x1 PUSH1 0x1 PUSH1 0xA0 SHL SUB SWAP3 SWAP1 SWAP3 AND SWAP2 SWAP1 SWAP2 OR SWAP1 SSTORE JUMP JUMPDEST PUSH1 0x2 PUSH1 0x1 SLOAD SUB PUSH2 0x52F JUMPI PUSH1 0x40 MLOAD PUSH3 0x461BCD PUSH1 0xE5 SHL DUP2 MSTORE PUSH1 0x20 PUSH1 0x4 DUP3 ADD MSTORE PUSH1 0x1F PUSH1 0x24 DUP3 ADD MSTORE PUSH32 0x5265656E7472616E637947756172643A207265656E7472616E742063616C6C00 PUSH1 0x44 DUP3 ADD MSTORE PUSH1 0x64 ADD PUSH2 0x425 JUMP JUMPDEST PUSH1 0x2 PUSH1 0x1 SSTORE PUSH2 0x53C PUSH2 0x6EC JUMP JUMPDEST ISZERO PUSH2 0x580 JUMPI PUSH1 0x40 MLOAD PUSH3 0x461BCD PUSH1 0xE5 SHL DUP2 MSTORE PUSH1 0x20 PUSH1 0x4 DUP3 ADD MSTORE PUSH1 0x14 PUSH1 0x24 DUP3 ADD MSTORE PUSH20 0x2730B3B0A5B4B239903BB0B9902830BAB9B2B217 PUSH1 0x61 SHL PUSH1 0x44 DUP3 ADD MSTORE PUSH1 0x64 ADD PUSH2 0x425 JUMP JUMPDEST PUSH1 0x2 SLOAD PUSH1 0x1 PUSH1 0xA8 SHL SWAP1 DIV PUSH1 0xFF AND ISZERO ISZERO PUSH1 0x1 EQ PUSH2 0x5DE JUMPI PUSH1 0x40 MLOAD PUSH3 0x461BCD PUSH1 0xE5 SHL DUP2 MSTORE PUSH1 0x20 PUSH1 0x4 DUP3 ADD MSTORE PUSH1 0x1B PUSH1 0x24 DUP3 ADD MSTORE PUSH32 0x57686974656C697374206E6F74206F70656E20746F206D696E742E0000000000 PUSH1 0x44 DUP3 ADD MSTORE PUSH1 0x64 ADD PUSH2 0x425 JUMP JUMPDEST PUSH2 0x457 PUSH2 0x5E9 PUSH2 0x653 JUMP JUMPDEST LT PUSH2 0x624 JUMPI PUSH1 0x40 MLOAD PUSH3 0x461BCD PUSH1 0xE5 SHL DUP2 MSTORE PUSH1 0x20 PUSH1 0x4 DUP3 ADD MSTORE PUSH1 0xB PUSH1 0x24 DUP3 ADD MSTORE PUSH11 0x4F76657220737570706C79 PUSH1 0xA8 SHL PUSH1 0x44 DUP3 ADD MSTORE PUSH1 0x64 ADD PUSH2 0x425 JUMP JUMPDEST PUSH1 0x1 DUP1 SSTORE JUMP JUMPDEST PUSH1 0x0 SWAP2 DUP3 MSTORE PUSH1 0x20 DUP3 DUP2 MSTORE PUSH1 0x40 DUP1 DUP5 KECCAK256 PUSH1 0x1 PUSH1 0x1 PUSH1 0xA0 SHL SUB SWAP4 SWAP1 SWAP4 AND DUP5 MSTORE SWAP2 SWAP1 MSTORE SWAP1 KECCAK256 SLOAD PUSH1 0xFF AND SWAP1 JUMP JUMPDEST PUSH1 0x2 SLOAD PUSH1 0x40 DUP1 MLOAD PUSH4 0x18160DDD PUSH1 0xE0 SHL DUP2 MSTORE SWAP1 MLOAD PUSH1 0x0 SWAP3 PUSH1 0x1 PUSH1 0x1 PUSH1 0xA0 SHL SUB AND SWAP2 PUSH4 0x18160DDD SWAP2 PUSH1 0x4 DUP1 DUP4 ADD SWAP3 PUSH1 0x20 SWAP3 SWAP2 SWAP1 DUP3 SWAP1 SUB ADD DUP2 DUP7 GAS STATICCALL ISZERO DUP1 ISZERO PUSH2 0x486 JUMPI RETURNDATASIZE PUSH1 0x0 DUP1 RETURNDATACOPY RETURNDATASIZE PUSH1 0x0 REVERT JUMPDEST PUSH1 0x0 DUP3 DUP2 MSTORE PUSH1 0x20 DUP2 SWAP1 MSTORE PUSH1 0x40 SWAP1 KECCAK256 PUSH1 0x1 ADD SLOAD PUSH2 0x6B8 DUP2 PUSH2 0x8FD JUMP JUMPDEST PUSH2 0x3B4 DUP4 DUP4 PUSH2 0x98E JUMP JUMPDEST PUSH1 0x0 PUSH2 0x6CD DUP2 PUSH2 0x8FD JUMP JUMPDEST POP PUSH1 0x2 DUP1 SLOAD SWAP2 ISZERO ISZERO PUSH1 0x1 PUSH1 0xA8 SHL MUL PUSH1 0xFF PUSH1 0xA8 SHL NOT SWAP1 SWAP3 AND SWAP2 SWAP1 SWAP2 OR SWAP1 SSTORE JUMP JUMPDEST PUSH1 0x2 SLOAD PUSH1 0x40 DUP1 MLOAD PUSH4 0x5C975ABB PUSH1 0xE0 SHL DUP2 MSTORE SWAP1 MLOAD PUSH1 0x0 SWAP3 PUSH1 0x1 PUSH1 0x1 PUSH1 0xA0 SHL SUB AND SWAP2 PUSH4 0x5C975ABB SWAP2 PUSH1 0x4 DUP1 DUP4 ADD SWAP3 PUSH1 0x20 SWAP3 SWAP2 SWAP1 DUP3 SWAP1 SUB ADD DUP2 DUP7 GAS STATICCALL ISZERO DUP1 ISZERO PUSH2 0x736 JUMPI RETURNDATASIZE PUSH1 0x0 DUP1 RETURNDATACOPY RETURNDATASIZE PUSH1 0x0 REVERT JUMPDEST POP POP POP POP PUSH1 0x40 MLOAD RETURNDATASIZE PUSH1 0x1F NOT PUSH1 0x1F DUP3 ADD AND DUP3 ADD DUP1 PUSH1 0x40 MSTORE POP DUP2 ADD SWAP1 PUSH2 0x4AA SWAP2 SWAP1 PUSH2 0xB40 JUMP JUMPDEST PUSH1 0x60 PUSH1 0x0 PUSH2 0x769 DUP4 PUSH1 0x2 PUSH2 0xB73 JUMP JUMPDEST PUSH2 0x774 SWAP1 PUSH1 0x2 PUSH2 0xB92 JUMP JUMPDEST PUSH8 0xFFFFFFFFFFFFFFFF DUP2 GT ISZERO PUSH2 0x78C JUMPI PUSH2 0x78C PUSH2 0xBAA JUMP JUMPDEST PUSH1 0x40 MLOAD SWAP1 DUP1 DUP3 MSTORE DUP1 PUSH1 0x1F ADD PUSH1 0x1F NOT AND PUSH1 0x20 ADD DUP3 ADD PUSH1 0x40 MSTORE DUP1 ISZERO PUSH2 0x7B6 JUMPI PUSH1 0x20 DUP3 ADD DUP2 DUP1 CALLDATASIZE DUP4 CALLDATACOPY ADD SWAP1 POP JUMPDEST POP SWAP1 POP PUSH1 0x3 PUSH1 0xFC SHL DUP2 PUSH1 0x0 DUP2 MLOAD DUP2 LT PUSH2 0x7D1 JUMPI PUSH2 0x7D1 PUSH2 0xBC0 JUMP JUMPDEST PUSH1 0x20 ADD ADD SWAP1 PUSH1 0x1 PUSH1 0x1 PUSH1 0xF8 SHL SUB NOT AND SWAP1 DUP2 PUSH1 0x0 BYTE SWAP1 MSTORE8 POP PUSH1 0xF PUSH1 0xFB SHL DUP2 PUSH1 0x1 DUP2 MLOAD DUP2 LT PUSH2 0x800 JUMPI PUSH2 0x800 PUSH2 0xBC0 JUMP JUMPDEST PUSH1 0x20 ADD ADD SWAP1 PUSH1 0x1 PUSH1 0x1 PUSH1 0xF8 SHL SUB NOT AND SWAP1 DUP2 PUSH1 0x0 BYTE SWAP1 MSTORE8 POP PUSH1 0x0 PUSH2 0x824 DUP5 PUSH1 0x2 PUSH2 0xB73 JUMP JUMPDEST PUSH2 0x82F SWAP1 PUSH1 0x1 PUSH2 0xB92 JUMP JUMPDEST SWAP1 POP JUMPDEST PUSH1 0x1 DUP2 GT ISZERO PUSH2 0x8A7 JUMPI PUSH16 0x181899199A1A9B1B9C1CB0B131B232B3 PUSH1 0x81 SHL DUP6 PUSH1 0xF AND PUSH1 0x10 DUP2 LT PUSH2 0x863 JUMPI PUSH2 0x863 PUSH2 0xBC0 JUMP JUMPDEST BYTE PUSH1 0xF8 SHL DUP3 DUP3 DUP2 MLOAD DUP2 LT PUSH2 0x879 JUMPI PUSH2 0x879 PUSH2 0xBC0 JUMP JUMPDEST PUSH1 0x20 ADD ADD SWAP1 PUSH1 0x1 PUSH1 0x1 PUSH1 0xF8 SHL SUB NOT AND SWAP1 DUP2 PUSH1 0x0 BYTE SWAP1 MSTORE8 POP PUSH1 0x4 SWAP5 SWAP1 SWAP5 SHR SWAP4 PUSH2 0x8A0 DUP2 PUSH2 0xBD6 JUMP JUMPDEST SWAP1 POP PUSH2 0x832 JUMP JUMPDEST POP DUP4 ISZERO PUSH2 0x8F6 JUMPI PUSH1 0x40 MLOAD PUSH3 0x461BCD PUSH1 0xE5 SHL DUP2 MSTORE PUSH1 0x20 PUSH1 0x4 DUP3 ADD DUP2 SWAP1 MSTORE PUSH1 0x24 DUP3 ADD MSTORE PUSH32 0x537472696E67733A20686578206C656E67746820696E73756666696369656E74 PUSH1 0x44 DUP3 ADD MSTORE PUSH1 0x64 ADD PUSH2 0x425 JUMP JUMPDEST SWAP4 SWAP3 POP POP POP JUMP JUMPDEST PUSH2 0x907 DUP2 CALLER PUSH2 0x9F3 JUMP JUMPDEST POP JUMP JUMPDEST PUSH2 0x914 DUP3 DUP3 PUSH2 0x62A JUMP JUMPDEST PUSH2 0x438 JUMPI PUSH1 0x0 DUP3 DUP2 MSTORE PUSH1 0x20 DUP2 DUP2 MSTORE PUSH1 0x40 DUP1 DUP4 KECCAK256 PUSH1 0x1 PUSH1 0x1 PUSH1 0xA0 SHL SUB DUP6 AND DUP5 MSTORE SWAP1 SWAP2 MSTORE SWAP1 KECCAK256 DUP1 SLOAD PUSH1 0xFF NOT AND PUSH1 0x1 OR SWAP1 SSTORE PUSH2 0x94A CALLER SWAP1 JUMP JUMPDEST PUSH1 0x1 PUSH1 0x1 PUSH1 0xA0 SHL SUB AND DUP2 PUSH1 0x1 PUSH1 0x1 PUSH1 0xA0 SHL SUB AND DUP4 PUSH32 0x2F8788117E7EFF1D82E926EC794901D17C78024A50270940304540A733656F0D PUSH1 0x40 MLOAD PUSH1 0x40 MLOAD DUP1 SWAP2 SUB SWAP1 LOG4 POP POP JUMP JUMPDEST PUSH2 0x998 DUP3 DUP3 PUSH2 0x62A JUMP JUMPDEST ISZERO PUSH2 0x438 JUMPI PUSH1 0x0 DUP3 DUP2 MSTORE PUSH1 0x20 DUP2 DUP2 MSTORE PUSH1 0x40 DUP1 DUP4 KECCAK256 PUSH1 0x1 PUSH1 0x1 PUSH1 0xA0 SHL SUB DUP6 AND DUP1 DUP6 MSTORE SWAP3 MSTORE DUP1 DUP4 KECCAK256 DUP1 SLOAD PUSH1 0xFF NOT AND SWAP1 SSTORE MLOAD CALLER SWAP3 DUP6 SWAP2 PUSH32 0xF6391F5C32D9C69D2A47EA670B442974B53935D1EDC7FD64EB21E047A839171B SWAP2 SWAP1 LOG4 POP POP JUMP JUMPDEST PUSH2 0x9FD DUP3 DUP3 PUSH2 0x62A JUMP JUMPDEST PUSH2 0x438 JUMPI PUSH2 0xA15 DUP2 PUSH1 0x1 PUSH1 0x1 PUSH1 0xA0 SHL SUB AND PUSH1 0x14 PUSH2 0x75A JUMP JUMPDEST PUSH2 0xA20 DUP4 PUSH1 0x20 PUSH2 0x75A JUMP JUMPDEST PUSH1 0x40 MLOAD PUSH1 0x20 ADD PUSH2 0xA31 SWAP3 SWAP2 SWAP1 PUSH2 0xC1D JUMP JUMPDEST PUSH1 0x40 DUP1 MLOAD PUSH1 0x1F NOT DUP2 DUP5 SUB ADD DUP2 MSTORE SWAP1 DUP3 SWAP1 MSTORE PUSH3 0x461BCD PUSH1 0xE5 SHL DUP3 MSTORE PUSH2 0x425 SWAP2 PUSH1 0x4 ADD PUSH2 0xC92 JUMP JUMPDEST PUSH1 0x0 PUSH1 0x20 DUP3 DUP5 SUB SLT ISZERO PUSH2 0xA69 JUMPI PUSH1 0x0 DUP1 REVERT JUMPDEST DUP2 CALLDATALOAD PUSH1 0x1 PUSH1 0x1 PUSH1 0xE0 SHL SUB NOT DUP2 AND DUP2 EQ PUSH2 0x8F6 JUMPI PUSH1 0x0 DUP1 REVERT JUMPDEST PUSH1 0x0 PUSH1 0x20 DUP3 DUP5 SUB SLT ISZERO PUSH2 0xA93 JUMPI PUSH1 0x0 DUP1 REVERT JUMPDEST POP CALLDATALOAD SWAP2 SWAP1 POP JUMP JUMPDEST DUP1 ISZERO ISZERO DUP2 EQ PUSH2 0x907 JUMPI PUSH1 0x0 DUP1 REVERT JUMPDEST PUSH1 0x0 PUSH1 0x20 DUP3 DUP5 SUB SLT ISZERO PUSH2 0xABA JUMPI PUSH1 0x0 DUP1 REVERT JUMPDEST DUP2 CALLDATALOAD PUSH2 0x8F6 DUP2 PUSH2 0xA9A JUMP JUMPDEST PUSH1 0x1 PUSH1 0x1 PUSH1 0xA0 SHL SUB DUP2 AND DUP2 EQ PUSH2 0x907 JUMPI PUSH1 0x0 DUP1 REVERT JUMPDEST PUSH1 0x0 DUP1 PUSH1 0x40 DUP4 DUP6 SUB SLT ISZERO PUSH2 0xAED JUMPI PUSH1 0x0 DUP1 REVERT JUMPDEST DUP3 CALLDATALOAD SWAP2 POP PUSH1 0x20 DUP4 ADD CALLDATALOAD PUSH2 0xAFF DUP2 PUSH2 0xAC5 JUMP JUMPDEST DUP1 SWAP2 POP POP SWAP3 POP SWAP3 SWAP1 POP JUMP JUMPDEST PUSH1 0x0 PUSH1 0x20 DUP3 DUP5 SUB SLT ISZERO PUSH2 0xB1C JUMPI PUSH1 0x0 DUP1 REVERT JUMPDEST DUP2 CALLDATALOAD PUSH2 0x8F6 DUP2 PUSH2 0xAC5 JUMP JUMPDEST PUSH1 0x0 PUSH1 0x20 DUP3 DUP5 SUB SLT ISZERO PUSH2 0xB39 JUMPI PUSH1 0x0 DUP1 REVERT JUMPDEST POP MLOAD SWAP2 SWAP1 POP JUMP JUMPDEST PUSH1 0x0 PUSH1 0x20 DUP3 DUP5 SUB SLT ISZERO PUSH2 0xB52 JUMPI PUSH1 0x0 DUP1 REVERT JUMPDEST DUP2 MLOAD PUSH2 0x8F6 DUP2 PUSH2 0xA9A JUMP JUMPDEST PUSH4 0x4E487B71 PUSH1 0xE0 SHL PUSH1 0x0 MSTORE PUSH1 0x11 PUSH1 0x4 MSTORE PUSH1 0x24 PUSH1 0x0 REVERT JUMPDEST PUSH1 0x0 DUP2 PUSH1 0x0 NOT DIV DUP4 GT DUP3 ISZERO ISZERO AND ISZERO PUSH2 0xB8D JUMPI PUSH2 0xB8D PUSH2 0xB5D JUMP JUMPDEST POP MUL SWAP1 JUMP JUMPDEST PUSH1 0x0 DUP3 NOT DUP3 GT ISZERO PUSH2 0xBA5 JUMPI PUSH2 0xBA5 PUSH2 0xB5D JUMP JUMPDEST POP ADD SWAP1 JUMP JUMPDEST PUSH4 0x4E487B71 PUSH1 0xE0 SHL PUSH1 0x0 MSTORE PUSH1 0x41 PUSH1 0x4 MSTORE PUSH1 0x24 PUSH1 0x0 REVERT JUMPDEST PUSH4 0x4E487B71 PUSH1 0xE0 SHL PUSH1 0x0 MSTORE PUSH1 0x32 PUSH1 0x4 MSTORE PUSH1 0x24 PUSH1 0x0 REVERT JUMPDEST PUSH1 0x0 DUP2 PUSH2 0xBE5 JUMPI PUSH2 0xBE5 PUSH2 0xB5D JUMP JUMPDEST POP PUSH1 0x0 NOT ADD SWAP1 JUMP JUMPDEST PUSH1 0x0 JUMPDEST DUP4 DUP2 LT ISZERO PUSH2 0xC08 JUMPI DUP2 DUP2 ADD MLOAD DUP4 DUP3 ADD MSTORE PUSH1 0x20 ADD PUSH2 0xBF0 JUMP JUMPDEST DUP4 DUP2 GT ISZERO PUSH2 0xC17 JUMPI PUSH1 0x0 DUP5 DUP5 ADD MSTORE JUMPDEST POP POP POP POP JUMP JUMPDEST PUSH32 0x416363657373436F6E74726F6C3A206163636F756E7420000000000000000000 DUP2 MSTORE PUSH1 0x0 DUP4 MLOAD PUSH2 0xC55 DUP2 PUSH1 0x17 DUP6 ADD PUSH1 0x20 DUP9 ADD PUSH2 0xBED JUMP JUMPDEST PUSH17 0x1034B99036B4B9B9B4B733903937B6329 PUSH1 0x7D SHL PUSH1 0x17 SWAP2 DUP5 ADD SWAP2 DUP3 ADD MSTORE DUP4 MLOAD PUSH2 0xC86 DUP2 PUSH1 0x28 DUP5 ADD PUSH1 0x20 DUP9 ADD PUSH2 0xBED JUMP JUMPDEST ADD PUSH1 0x28 ADD SWAP5 SWAP4 POP POP POP POP JUMP JUMPDEST PUSH1 0x20 DUP2 MSTORE PUSH1 0x0 DUP3 MLOAD DUP1 PUSH1 0x20 DUP5 ADD MSTORE PUSH2 0xCB1 DUP2 PUSH1 0x40 DUP6 ADD PUSH1 0x20 DUP8 ADD PUSH2 0xBED JUMP JUMPDEST PUSH1 0x1F ADD PUSH1 0x1F NOT AND SWAP2 SWAP1 SWAP2 ADD PUSH1 0x40 ADD SWAP3 SWAP2 POP POP JUMP INVALID LOG2 PUSH5 0x6970667358 0x22 SLT KECCAK256 CALL ORIGIN CODECOPY LOG4 PUSH19 0xC46FDB087897B83938CD82DB0A5602A5C52353 0x2C 0xD2 BALANCE 0xC4 EXP 0xB1 MLOAD 0xEE PUSH5 0x736F6C6343 STOP ADDMOD 0xF STOP CALLER "
				},
				"gasEstimates": {
					"creation": {
						"codeDepositCost": "664600",
						"executionCost": "infinite",
						"totalCost": "infinite"
					},
					"external": {
						"DEFAULT_ADMIN_ROLE()": "284",
						"changeFreeMintOpen(bool)": "infinite",
						"changeNagaKidsContract(address)": "infinite",
						"changeWhitelistMintOpen(bool)": "infinite",
						"getMaxSupply()": "infinite",
						"getRoleAdmin(bytes32)": "2493",
						"getTotalSupply()": "infinite",
						"grantRole(bytes32,address)": "infinite",
						"hasRole(bytes32,address)": "2695",
						"isFreeMintOpen()": "2338",
						"isPause()": "infinite",
						"isWhitelistOpen()": "2383",
						"nagaKidsContract()": "2405",
						"renounceRole(bytes32,address)": "29039",
						"revokeRole(bytes32,address)": "infinite",
						"supportsInterface(bytes4)": "450",
						"whitelistMint()": "infinite"
					}
				},
				"methodIdentifiers": {
					"DEFAULT_ADMIN_ROLE()": "a217fddf",
					"changeFreeMintOpen(bool)": "28438f68",
					"changeNagaKidsContract(address)": "61aec205",
					"changeWhitelistMintOpen(bool)": "dd31a7ba",
					"getMaxSupply()": "4c0f38c2",
					"getRoleAdmin(bytes32)": "248a9ca3",
					"getTotalSupply()": "c4e41b22",
					"grantRole(bytes32,address)": "2f2ff15d",
					"hasRole(bytes32,address)": "91d14854",
					"isFreeMintOpen()": "a6f5f014",
					"isPause()": "ff0938a7",
					"isWhitelistOpen()": "94f4504d",
					"nagaKidsContract()": "27c25c20",
					"renounceRole(bytes32,address)": "36568abe",
					"revokeRole(bytes32,address)": "d547741f",
					"supportsInterface(bytes4)": "01ffc9a7",
					"whitelistMint()": "804f43cd"
				}
			},
			"storageLayout": {
				"storage": [
					{
						"astId": 24,
						"contract": "MintNagaKids.sol:MintNagaKids",
						"label": "_roles",
						"offset": 0,
						"slot": "0",
						"type": "t_mapping(t_bytes32,t_struct(RoleData)19_storage)"
					},
					{
						"astId": 403,
						"contract": "MintNagaKids.sol:MintNagaKids",
						"label": "_status",
						"offset": 0,
						"slot": "1",
						"type": "t_uint256"
					},
					{
						"astId": 864,
						"contract": "MintNagaKids.sol:MintNagaKids",
						"label": "nagaKidsContract",
						"offset": 0,
						"slot": "2",
						"type": "t_contract(INagaKidsNFT)852"
					},
					{
						"astId": 866,
						"contract": "MintNagaKids.sol:MintNagaKids",
						"label": "isFreeMintOpen",
						"offset": 20,
						"slot": "2",
						"type": "t_bool"
					},
					{
						"astId": 868,
						"contract": "MintNagaKids.sol:MintNagaKids",
						"label": "isWhitelistOpen",
						"offset": 21,
						"slot": "2",
						"type": "t_bool"
					}
				],
				"types": {
					"t_address": {
						"encoding": "inplace",
						"label": "address",
						"numberOfBytes": "20"
					},
					"t_bool": {
						"encoding": "inplace",
						"label": "bool",
						"numberOfBytes": "1"
					},
					"t_bytes32": {
						"encoding": "inplace",
						"label": "bytes32",
						"numberOfBytes": "32"
					},
					"t_contract(INagaKidsNFT)852": {
						"encoding": "inplace",
						"label": "contract INagaKidsNFT",
						"numberOfBytes": "20"
					},
					"t_mapping(t_address,t_bool)": {
						"encoding": "mapping",
						"key": "t_address",
						"label": "mapping(address => bool)",
						"numberOfBytes": "32",
						"value": "t_bool"
					},
					"t_mapping(t_bytes32,t_struct(RoleData)19_storage)": {
						"encoding": "mapping",
						"key": "t_bytes32",
						"label": "mapping(bytes32 => struct AccessControl.RoleData)",
						"numberOfBytes": "32",
						"value": "t_struct(RoleData)19_storage"
					},
					"t_struct(RoleData)19_storage": {
						"encoding": "inplace",
						"label": "struct AccessControl.RoleData",
						"members": [
							{
								"astId": 16,
								"contract": "MintNagaKids.sol:MintNagaKids",
								"label": "members",
								"offset": 0,
								"slot": "0",
								"type": "t_mapping(t_address,t_bool)"
							},
							{
								"astId": 18,
								"contract": "MintNagaKids.sol:MintNagaKids",
								"label": "adminRole",
								"offset": 0,
								"slot": "1",
								"type": "t_bytes32"
							}
						],
						"numberOfBytes": "64"
					},
					"t_uint256": {
						"encoding": "inplace",
						"label": "uint256",
						"numberOfBytes": "32"
					}
				}
			},
			"userdoc": {
				"kind": "user",
				"methods": {},
				"version": 1
			}
		}
	}
}