{
	"MintNagaKids.sol": {
		"MintNagaKids": {
			"abi": [
				{
					"inputs": [
						{
							"internalType": "contract INagaKidsNFT",
							"name": "_nagaKids",
							"type": "address"
						}
					],
					"stateMutability": "nonpayable",
					"type": "constructor"
				},
				{
					"anonymous": false,
					"inputs": [
						{
							"indexed": true,
							"internalType": "bytes32",
							"name": "role",
							"type": "bytes32"
						},
						{
							"indexed": true,
							"internalType": "bytes32",
							"name": "previousAdminRole",
							"type": "bytes32"
						},
						{
							"indexed": true,
							"internalType": "bytes32",
							"name": "newAdminRole",
							"type": "bytes32"
						}
					],
					"name": "RoleAdminChanged",
					"type": "event"
				},
				{
					"anonymous": false,
					"inputs": [
						{
							"indexed": true,
							"internalType": "bytes32",
							"name": "role",
							"type": "bytes32"
						},
						{
							"indexed": true,
							"internalType": "address",
							"name": "account",
							"type": "address"
						},
						{
							"indexed": true,
							"internalType": "address",
							"name": "sender",
							"type": "address"
						}
					],
					"name": "RoleGranted",
					"type": "event"
				},
				{
					"anonymous": false,
					"inputs": [
						{
							"indexed": true,
							"internalType": "bytes32",
							"name": "role",
							"type": "bytes32"
						},
						{
							"indexed": true,
							"internalType": "address",
							"name": "account",
							"type": "address"
						},
						{
							"indexed": true,
							"internalType": "address",
							"name": "sender",
							"type": "address"
						}
					],
					"name": "RoleRevoked",
					"type": "event"
				},
				{
					"inputs": [],
					"name": "DEFAULT_ADMIN_ROLE",
					"outputs": [
						{
							"internalType": "bytes32",
							"name": "",
							"type": "bytes32"
						}
					],
					"stateMutability": "view",
					"type": "function"
				},
				{
					"inputs": [
						{
							"internalType": "bool",
							"name": "_isOpen",
							"type": "bool"
						}
					],
					"name": "changeFreeMintOpen",
					"outputs": [],
					"stateMutability": "nonpayable",
					"type": "function"
				},
				{
					"inputs": [
						{
							"internalType": "contract INagaKidsNFT",
							"name": "_nagaKids",
							"type": "address"
						}
					],
					"name": "changeNagaKidsContract",
					"outputs": [],
					"stateMutability": "nonpayable",
					"type": "function"
				},
				{
					"inputs": [
						{
							"internalType": "bool",
							"name": "_isOpen",
							"type": "bool"
						}
					],
					"name": "changeWhitelistMintOpen",
					"outputs": [],
					"stateMutability": "nonpayable",
					"type": "function"
				},
				{
					"inputs": [],
					"name": "getMaxSupply",
					"outputs": [
						{
							"internalType": "uint256",
							"name": "",
							"type": "uint256"
						}
					],
					"stateMutability": "view",
					"type": "function"
				},
				{
					"inputs": [
						{
							"internalType": "bytes32",
							"name": "role",
							"type": "bytes32"
						}
					],
					"name": "getRoleAdmin",
					"outputs": [
						{
							"internalType": "bytes32",
							"name": "",
							"type": "bytes32"
						}
					],
					"stateMutability": "view",
					"type": "function"
				},
				{
					"inputs": [],
					"name": "getTotalSupply",
					"outputs": [
						{
							"internalType": "uint256",
							"name": "",
							"type": "uint256"
						}
					],
					"stateMutability": "view",
					"type": "function"
				},
				{
					"inputs": [
						{
							"internalType": "bytes32",
							"name": "role",
							"type": "bytes32"
						},
						{
							"internalType": "address",
							"name": "account",
							"type": "address"
						}
					],
					"name": "grantRole",
					"outputs": [],
					"stateMutability": "nonpayable",
					"type": "function"
				},
				{
					"inputs": [
						{
							"internalType": "bytes32",
							"name": "role",
							"type": "bytes32"
						},
						{
							"internalType": "address",
							"name": "account",
							"type": "address"
						}
					],
					"name": "hasRole",
					"outputs": [
						{
							"internalType": "bool",
							"name": "",
							"type": "bool"
						}
					],
					"stateMutability": "view",
					"type": "function"
				},
				{
					"inputs": [],
					"name": "isFreeMintOpen",
					"outputs": [
						{
							"internalType": "bool",
							"name": "",
							"type": "bool"
						}
					],
					"stateMutability": "view",
					"type": "function"
				},
				{
					"inputs": [],
					"name": "isWhitelistOpen",
					"outputs": [
						{
							"internalType": "bool",
							"name": "",
							"type": "bool"
						}
					],
					"stateMutability": "view",
					"type": "function"
				},
				{
					"inputs": [],
					"name": "nagaKidsContract",
					"outputs": [
						{
							"internalType": "contract INagaKidsNFT",
							"name": "",
							"type": "address"
						}
					],
					"stateMutability": "view",
					"type": "function"
				},
				{
					"inputs": [
						{
							"internalType": "bytes32",
							"name": "role",
							"type": "bytes32"
						},
						{
							"internalType": "address",
							"name": "account",
							"type": "address"
						}
					],
					"name": "renounceRole",
					"outputs": [],
					"stateMutability": "nonpayable",
					"type": "function"
				},
				{
					"inputs": [
						{
							"internalType": "bytes32",
							"name": "role",
							"type": "bytes32"
						},
						{
							"internalType": "address",
							"name": "account",
							"type": "address"
						}
					],
					"name": "revokeRole",
					"outputs": [],
					"stateMutability": "nonpayable",
					"type": "function"
				},
				{
					"inputs": [
						{
							"internalType": "bytes4",
							"name": "interfaceId",
							"type": "bytes4"
						}
					],
					"name": "supportsInterface",
					"outputs": [
						{
							"internalType": "bool",
							"name": "",
							"type": "bool"
						}
					],
					"stateMutability": "view",
					"type": "function"
				},
				{
					"inputs": [],
					"name": "whitelistMint",
					"outputs": [],
					"stateMutability": "payable",
					"type": "function"
				}
			],
			"devdoc": {
				"kind": "dev",
				"methods": {
					"getRoleAdmin(bytes32)": {
						"details": "Returns the admin role that controls `role`. See {grantRole} and {revokeRole}. To change a role's admin, use {_setRoleAdmin}."
					},
					"grantRole(bytes32,address)": {
						"details": "Grants `role` to `account`. If `account` had not been already granted `role`, emits a {RoleGranted} event. Requirements: - the caller must have ``role``'s admin role."
					},
					"hasRole(bytes32,address)": {
						"details": "Returns `true` if `account` has been granted `role`."
					},
					"renounceRole(bytes32,address)": {
						"details": "Revokes `role` from the calling account. Roles are often managed via {grantRole} and {revokeRole}: this function's purpose is to provide a mechanism for accounts to lose their privileges if they are compromised (such as when a trusted device is misplaced). If the calling account had been revoked `role`, emits a {RoleRevoked} event. Requirements: - the caller must be `account`."
					},
					"revokeRole(bytes32,address)": {
						"details": "Revokes `role` from `account`. If `account` had been granted `role`, emits a {RoleRevoked} event. Requirements: - the caller must have ``role``'s admin role."
					},
					"supportsInterface(bytes4)": {
						"details": "See {IERC165-supportsInterface}."
					}
				},
				"version": 1
			},
			"evm": {
				"assembly": "    /* \"MintNagaKids.sol\":217:1457  contract MintNagaKids is AccessControl, ReentrancyGuard {... */\n  mstore(0x40, 0x80)\n    /* \"MintNagaKids.sol\":396:537  constructor(INagaKidsNFT _nagaKids) {... */\n  callvalue\n  dup1\n  iszero\n  tag_1\n  jumpi\n  0x00\n  dup1\n  revert\ntag_1:\n  pop\n  mload(0x40)\n  sub(codesize, bytecodeSize)\n  dup1\n  bytecodeSize\n  dup4\n  codecopy\n  dup2\n  add\n  0x40\n  dup2\n  swap1\n  mstore\n  tag_2\n  swap2\n  tag_3\n  jump\t// in\ntag_2:\n    /* \"@openzeppelin/contracts/security/ReentrancyGuard.sol\":1701:1702  1 */\n  0x01\n    /* \"@openzeppelin/contracts/security/ReentrancyGuard.sol\":1806:1828  _status = _NOT_ENTERED */\n  dup1\n  sstore\n    /* \"MintNagaKids.sol\":443:485  _grantRole(DEFAULT_ADMIN_ROLE, msg.sender) */\n  tag_8\n    /* \"@openzeppelin/contracts/access/AccessControl.sol\":2072:2076  0x00 */\n  0x00\n    /* \"MintNagaKids.sol\":474:484  msg.sender */\n  caller\n    /* \"MintNagaKids.sol\":443:453  _grantRole */\n  tag_9\n    /* \"MintNagaKids.sol\":443:485  _grantRole(DEFAULT_ADMIN_ROLE, msg.sender) */\n  jump\t// in\ntag_8:\n    /* \"MintNagaKids.sol\":496:529  changeNagaKidsContract(_nagaKids) */\n  tag_10\n    /* \"MintNagaKids.sol\":519:528  _nagaKids */\n  dup2\n    /* \"MintNagaKids.sol\":496:518  changeNagaKidsContract */\n  tag_11\n    /* \"MintNagaKids.sol\":496:529  changeNagaKidsContract(_nagaKids) */\n  jump\t// in\ntag_10:\n    /* \"MintNagaKids.sol\":396:537  constructor(INagaKidsNFT _nagaKids) {... */\n  pop\n    /* \"MintNagaKids.sol\":217:1457  contract MintNagaKids is AccessControl, ReentrancyGuard {... */\n  jump(tag_69)\n    /* \"@openzeppelin/contracts/access/AccessControl.sol\":7244:7477  function _grantRole(bytes32 role, address account) internal virtual {... */\ntag_9:\n    /* \"@openzeppelin/contracts/access/AccessControl.sol\":2981:2985  bool */\n  0x00\n    /* \"@openzeppelin/contracts/access/AccessControl.sol\":3004:3016  _roles[role] */\n  dup3\n  dup2\n  mstore\n  0x20\n  dup2\n  dup2\n  mstore\n  0x40\n  dup1\n  dup4\n  keccak256\n  sub(shl(0xa0, 0x01), 0x01)\n    /* \"@openzeppelin/contracts/access/AccessControl.sol\":3004:3033  _roles[role].members[account] */\n  dup6\n  and\n  dup5\n  mstore\n  swap1\n  swap2\n  mstore\n  swap1\n  keccak256\n  sload\n  0xff\n  and\n    /* \"@openzeppelin/contracts/access/AccessControl.sol\":7322:7471  if (!hasRole(role, account)) {... */\n  tag_16\n  jumpi\n    /* \"@openzeppelin/contracts/access/AccessControl.sol\":7365:7371  _roles */\n  0x00\n    /* \"@openzeppelin/contracts/access/AccessControl.sol\":7365:7377  _roles[role] */\n  dup3\n  dup2\n  mstore\n  0x20\n  dup2\n  dup2\n  mstore\n  0x40\n  dup1\n  dup4\n  keccak256\n  sub(shl(0xa0, 0x01), 0x01)\n    /* \"@openzeppelin/contracts/access/AccessControl.sol\":7365:7394  _roles[role].members[account] */\n  dup6\n  and\n  dup5\n  mstore\n  swap1\n  swap2\n  mstore\n  swap1\n  keccak256\n    /* \"@openzeppelin/contracts/access/AccessControl.sol\":7365:7401  _roles[role].members[account] = true */\n  dup1\n  sload\n  not(0xff)\n  and\n    /* \"@openzeppelin/contracts/access/AccessControl.sol\":7397:7401  true */\n  0x01\n    /* \"@openzeppelin/contracts/access/AccessControl.sol\":7365:7401  _roles[role].members[account] = true */\n  or\n  swap1\n  sstore\n    /* \"@openzeppelin/contracts/access/AccessControl.sol\":7447:7459  _msgSender() */\n  tag_17\n    /* \"@openzeppelin/contracts/utils/Context.sol\":719:729  msg.sender */\n  caller\n  swap1\n    /* \"@openzeppelin/contracts/utils/Context.sol\":640:736  function _msgSender() internal view virtual returns (address) {... */\n  jump\n    /* \"@openzeppelin/contracts/access/AccessControl.sol\":7447:7459  _msgSender() */\ntag_17:\n  sub(shl(0xa0, 0x01), 0x01)\n    /* \"@openzeppelin/contracts/access/AccessControl.sol\":7420:7460  RoleGranted(role, account, _msgSender()) */\n  and\n    /* \"@openzeppelin/contracts/access/AccessControl.sol\":7438:7445  account */\n  dup2\n  sub(shl(0xa0, 0x01), 0x01)\n    /* \"@openzeppelin/contracts/access/AccessControl.sol\":7420:7460  RoleGranted(role, account, _msgSender()) */\n  and\n    /* \"@openzeppelin/contracts/access/AccessControl.sol\":7432:7436  role */\n  dup4\n    /* \"@openzeppelin/contracts/access/AccessControl.sol\":7420:7460  RoleGranted(role, account, _msgSender()) */\n  0x2f8788117e7eff1d82e926ec794901d17c78024a50270940304540a733656f0d\n  mload(0x40)\n  mload(0x40)\n  dup1\n  swap2\n  sub\n  swap1\n  log4\n    /* \"@openzeppelin/contracts/access/AccessControl.sol\":7322:7471  if (!hasRole(role, account)) {... */\ntag_16:\n    /* \"@openzeppelin/contracts/access/AccessControl.sol\":7244:7477  function _grantRole(bytes32 role, address account) internal virtual {... */\n  pop\n  pop\n  jump\t// out\n    /* \"MintNagaKids.sol\":545:707  function changeNagaKidsContract(INagaKidsNFT _nagaKids)... */\ntag_11:\n    /* \"@openzeppelin/contracts/access/AccessControl.sol\":2072:2076  0x00 */\n  0x00\n    /* \"@openzeppelin/contracts/access/AccessControl.sol\":2505:2521  _checkRole(role) */\n  tag_20\n    /* \"@openzeppelin/contracts/access/AccessControl.sol\":2072:2076  0x00 */\n  dup2\n    /* \"@openzeppelin/contracts/access/AccessControl.sol\":2505:2515  _checkRole */\n  tag_21\n    /* \"@openzeppelin/contracts/access/AccessControl.sol\":2505:2521  _checkRole(role) */\n  jump\t// in\ntag_20:\n  pop\n    /* \"MintNagaKids.sol\":671:687  nagaKidsContract */\n  0x02\n    /* \"MintNagaKids.sol\":671:699  nagaKidsContract = _nagaKids */\n  dup1\n  sload\n  not(sub(shl(0xa0, 0x01), 0x01))\n  and\n  sub(shl(0xa0, 0x01), 0x01)\n  swap3\n  swap1\n  swap3\n  and\n  swap2\n  swap1\n  swap2\n  or\n  swap1\n  sstore\n    /* \"MintNagaKids.sol\":545:707  function changeNagaKidsContract(INagaKidsNFT _nagaKids)... */\n  jump\t// out\n    /* \"@openzeppelin/contracts/access/AccessControl.sol\":3334:3437  function _checkRole(bytes32 role) internal view virtual {... */\ntag_21:\n    /* \"@openzeppelin/contracts/access/AccessControl.sol\":3400:3430  _checkRole(role, _msgSender()) */\n  tag_26\n    /* \"@openzeppelin/contracts/access/AccessControl.sol\":3411:3415  role */\n  dup2\n    /* \"@openzeppelin/contracts/utils/Context.sol\":719:729  msg.sender */\n  caller\n    /* \"@openzeppelin/contracts/access/AccessControl.sol\":3400:3410  _checkRole */\n  tag_28\n    /* \"@openzeppelin/contracts/access/AccessControl.sol\":3400:3430  _checkRole(role, _msgSender()) */\n  jump\t// in\ntag_26:\n    /* \"@openzeppelin/contracts/access/AccessControl.sol\":3334:3437  function _checkRole(bytes32 role) internal view virtual {... */\n  pop\n  jump\t// out\n    /* \"@openzeppelin/contracts/access/AccessControl.sol\":3718:4210  function _checkRole(bytes32 role, address account) internal view virtual {... */\ntag_28:\n    /* \"@openzeppelin/contracts/access/AccessControl.sol\":2981:2985  bool */\n  0x00\n    /* \"@openzeppelin/contracts/access/AccessControl.sol\":3004:3016  _roles[role] */\n  dup3\n  dup2\n  mstore\n  0x20\n  dup2\n  dup2\n  mstore\n  0x40\n  dup1\n  dup4\n  keccak256\n  sub(shl(0xa0, 0x01), 0x01)\n    /* \"@openzeppelin/contracts/access/AccessControl.sol\":3004:3033  _roles[role].members[account] */\n  dup6\n  and\n  dup5\n  mstore\n  swap1\n  swap2\n  mstore\n  swap1\n  keccak256\n  sload\n  0xff\n  and\n    /* \"@openzeppelin/contracts/access/AccessControl.sol\":3801:4204  if (!hasRole(role, account)) {... */\n  tag_16\n  jumpi\n    /* \"@openzeppelin/contracts/access/AccessControl.sol\":3989:4030  Strings.toHexString(uint160(account), 20) */\n  tag_32\n    /* \"@openzeppelin/contracts/access/AccessControl.sol\":4017:4024  account */\n  dup2\n  sub(shl(0xa0, 0x01), 0x01)\n    /* \"@openzeppelin/contracts/access/AccessControl.sol\":3989:4030  Strings.toHexString(uint160(account), 20) */\n  and\n    /* \"@openzeppelin/contracts/access/AccessControl.sol\":4027:4029  20 */\n  0x14\n    /* \"@openzeppelin/contracts/access/AccessControl.sol\":3989:4008  Strings.toHexString */\n  or(tag_0_95, shl(0x20, tag_33))\n    /* \"@openzeppelin/contracts/access/AccessControl.sol\":3989:4030  Strings.toHexString(uint160(account), 20) */\n  0x20\n  shr\n  jump\t// in\ntag_32:\n    /* \"@openzeppelin/contracts/access/AccessControl.sol\":4101:4139  Strings.toHexString(uint256(role), 32) */\n  tag_34\n    /* \"@openzeppelin/contracts/access/AccessControl.sol\":4129:4133  role */\n  dup4\n    /* \"@openzeppelin/contracts/access/AccessControl.sol\":4136:4138  32 */\n  0x20\n    /* \"@openzeppelin/contracts/access/AccessControl.sol\":4101:4120  Strings.toHexString */\n  tag_0_95\n  tag_33\n  dup3\n  shl\n  or\n    /* \"@openzeppelin/contracts/access/AccessControl.sol\":4101:4139  Strings.toHexString(uint256(role), 32) */\n  dup2\n  shr\n  jump\t// in\ntag_34:\n    /* \"@openzeppelin/contracts/access/AccessControl.sol\":3896:4161  abi.encodePacked(... */\n  add(0x20, mload(0x40))\n  tag_35\n  swap3\n  swap2\n  swap1\n  tag_36\n  jump\t// in\ntag_35:\n  0x40\n  dup1\n  mload\n  not(0x1f)\n  dup2\n  dup5\n  sub\n  add\n  dup2\n  mstore\n  swap1\n  dup3\n  swap1\n  mstore\n  shl(0xe5, 0x461bcd)\n    /* \"@openzeppelin/contracts/access/AccessControl.sol\":3844:4193  revert(... */\n  dup3\n  mstore\n  tag_37\n  swap2\n  0x04\n  add\n  tag_38\n  jump\t// in\ntag_37:\n  mload(0x40)\n  dup1\n  swap2\n  sub\n  swap1\n  revert\n    /* \"@openzeppelin/contracts/utils/Strings.sol\":1588:2029  function toHexString(uint256 value, uint256 length) internal pure returns (string memory) {... */\ntag_33:\n    /* \"@openzeppelin/contracts/utils/Strings.sol\":1663:1676  string memory */\n  0x60\n    /* \"@openzeppelin/contracts/utils/Strings.sol\":1688:1707  bytes memory buffer */\n  0x00\n    /* \"@openzeppelin/contracts/utils/Strings.sol\":1720:1730  2 * length */\n  tag_40\n    /* \"@openzeppelin/contracts/utils/Strings.sol\":1724:1730  length */\n  dup4\n    /* \"@openzeppelin/contracts/utils/Strings.sol\":1720:1721  2 */\n  0x02\n    /* \"@openzeppelin/contracts/utils/Strings.sol\":1720:1730  2 * length */\n  tag_41\n  jump\t// in\ntag_40:\n    /* \"@openzeppelin/contracts/utils/Strings.sol\":1720:1734  2 * length + 2 */\n  tag_42\n  swap1\n    /* \"@openzeppelin/contracts/utils/Strings.sol\":1733:1734  2 */\n  0x02\n    /* \"@openzeppelin/contracts/utils/Strings.sol\":1720:1734  2 * length + 2 */\n  tag_43\n  jump\t// in\ntag_42:\n  sub(shl(0x40, 0x01), 0x01)\n    /* \"@openzeppelin/contracts/utils/Strings.sol\":1710:1735  new bytes(2 * length + 2) */\n  dup2\n  gt\n  iszero\n  tag_45\n  jumpi\n  tag_45\n  tag_46\n  jump\t// in\ntag_45:\n  mload(0x40)\n  swap1\n  dup1\n  dup3\n  mstore\n  dup1\n  0x1f\n  add\n  not(0x1f)\n  and\n  0x20\n  add\n  dup3\n  add\n  0x40\n  mstore\n  dup1\n  iszero\n  tag_47\n  jumpi\n  0x20\n  dup3\n  add\n  dup2\n  dup1\n  calldatasize\n  dup4\n  calldatacopy\n  add\n  swap1\n  pop\ntag_47:\n  pop\n    /* \"@openzeppelin/contracts/utils/Strings.sol\":1688:1735  bytes memory buffer = new bytes(2 * length + 2) */\n  swap1\n  pop\n  shl(0xfc, 0x03)\n    /* \"@openzeppelin/contracts/utils/Strings.sol\":1745:1751  buffer */\n  dup2\n    /* \"@openzeppelin/contracts/utils/Strings.sol\":1752:1753  0 */\n  0x00\n    /* \"@openzeppelin/contracts/utils/Strings.sol\":1745:1754  buffer[0] */\n  dup2\n  mload\n  dup2\n  lt\n  tag_49\n  jumpi\n  tag_49\n  tag_50\n  jump\t// in\ntag_49:\n  0x20\n  add\n  add\n    /* \"@openzeppelin/contracts/utils/Strings.sol\":1745:1760  buffer[0] = \"0\" */\n  swap1\n  not(sub(shl(0xf8, 0x01), 0x01))\n  and\n  swap1\n  dup2\n  0x00\n  byte\n  swap1\n  mstore8\n  pop\n  shl(0xfb, 0x0f)\n    /* \"@openzeppelin/contracts/utils/Strings.sol\":1770:1776  buffer */\n  dup2\n    /* \"@openzeppelin/contracts/utils/Strings.sol\":1777:1778  1 */\n  0x01\n    /* \"@openzeppelin/contracts/utils/Strings.sol\":1770:1779  buffer[1] */\n  dup2\n  mload\n  dup2\n  lt\n  tag_52\n  jumpi\n  tag_52\n  tag_50\n  jump\t// in\ntag_52:\n  0x20\n  add\n  add\n    /* \"@openzeppelin/contracts/utils/Strings.sol\":1770:1785  buffer[1] = \"x\" */\n  swap1\n  not(sub(shl(0xf8, 0x01), 0x01))\n  and\n  swap1\n  dup2\n  0x00\n  byte\n  swap1\n  mstore8\n  pop\n    /* \"@openzeppelin/contracts/utils/Strings.sol\":1800:1809  uint256 i */\n  0x00\n    /* \"@openzeppelin/contracts/utils/Strings.sol\":1812:1822  2 * length */\n  tag_56\n    /* \"@openzeppelin/contracts/utils/Strings.sol\":1816:1822  length */\n  dup5\n    /* \"@openzeppelin/contracts/utils/Strings.sol\":1812:1813  2 */\n  0x02\n    /* \"@openzeppelin/contracts/utils/Strings.sol\":1812:1822  2 * length */\n  tag_41\n  jump\t// in\ntag_56:\n    /* \"@openzeppelin/contracts/utils/Strings.sol\":1812:1826  2 * length + 1 */\n  tag_57\n  swap1\n    /* \"@openzeppelin/contracts/utils/Strings.sol\":1825:1826  1 */\n  0x01\n    /* \"@openzeppelin/contracts/utils/Strings.sol\":1812:1826  2 * length + 1 */\n  tag_43\n  jump\t// in\ntag_57:\n    /* \"@openzeppelin/contracts/utils/Strings.sol\":1800:1826  uint256 i = 2 * length + 1 */\n  swap1\n  pop\n    /* \"@openzeppelin/contracts/utils/Strings.sol\":1795:1927  for (uint256 i = 2 * length + 1; i > 1; --i) {... */\ntag_53:\n    /* \"@openzeppelin/contracts/utils/Strings.sol\":1832:1833  1 */\n  0x01\n    /* \"@openzeppelin/contracts/utils/Strings.sol\":1828:1829  i */\n  dup2\n    /* \"@openzeppelin/contracts/utils/Strings.sol\":1828:1833  i > 1 */\n  gt\n    /* \"@openzeppelin/contracts/utils/Strings.sol\":1795:1927  for (uint256 i = 2 * length + 1; i > 1; --i) {... */\n  iszero\n  tag_54\n  jumpi\n  shl(0x81, 0x181899199a1a9b1b9c1cb0b131b232b3)\n    /* \"@openzeppelin/contracts/utils/Strings.sol\":1879:1884  value */\n  dup6\n    /* \"@openzeppelin/contracts/utils/Strings.sol\":1887:1890  0xf */\n  0x0f\n    /* \"@openzeppelin/contracts/utils/Strings.sol\":1879:1890  value & 0xf */\n  and\n    /* \"@openzeppelin/contracts/utils/Strings.sol\":1866:1891  _HEX_SYMBOLS[value & 0xf] */\n  0x10\n  dup2\n  lt\n  tag_59\n  jumpi\n  tag_59\n  tag_50\n  jump\t// in\ntag_59:\n  byte\n  0xf8\n  shl\n    /* \"@openzeppelin/contracts/utils/Strings.sol\":1854:1860  buffer */\n  dup3\n    /* \"@openzeppelin/contracts/utils/Strings.sol\":1861:1862  i */\n  dup3\n    /* \"@openzeppelin/contracts/utils/Strings.sol\":1854:1863  buffer[i] */\n  dup2\n  mload\n  dup2\n  lt\n  tag_61\n  jumpi\n  tag_61\n  tag_50\n  jump\t// in\ntag_61:\n  0x20\n  add\n  add\n    /* \"@openzeppelin/contracts/utils/Strings.sol\":1854:1891  buffer[i] = _HEX_SYMBOLS[value & 0xf] */\n  swap1\n  not(sub(shl(0xf8, 0x01), 0x01))\n  and\n  swap1\n  dup2\n  0x00\n  byte\n  swap1\n  mstore8\n  pop\n    /* \"@openzeppelin/contracts/utils/Strings.sol\":1915:1916  4 */\n  0x04\n    /* \"@openzeppelin/contracts/utils/Strings.sol\":1905:1916  value >>= 4 */\n  swap5\n  swap1\n  swap5\n  shr\n  swap4\n    /* \"@openzeppelin/contracts/utils/Strings.sol\":1835:1838  --i */\n  tag_62\n  dup2\n  tag_63\n  jump\t// in\ntag_62:\n  swap1\n  pop\n    /* \"@openzeppelin/contracts/utils/Strings.sol\":1795:1927  for (uint256 i = 2 * length + 1; i > 1; --i) {... */\n  jump(tag_53)\ntag_54:\n  pop\n    /* \"@openzeppelin/contracts/utils/Strings.sol\":1944:1954  value == 0 */\n  dup4\n  iszero\n    /* \"@openzeppelin/contracts/utils/Strings.sol\":1936:1991  require(value == 0, \"Strings: hex length insufficient\") */\n  tag_64\n  jumpi\n  mload(0x40)\n  shl(0xe5, 0x461bcd)\n  dup2\n  mstore\n    /* \"#utility.yul\":2816:2818   */\n  0x20\n    /* \"@openzeppelin/contracts/utils/Strings.sol\":1936:1991  require(value == 0, \"Strings: hex length insufficient\") */\n  0x04\n  dup3\n  add\n    /* \"#utility.yul\":2798:2819   */\n  dup2\n  swap1\n  mstore\n    /* \"#utility.yul\":2835:2853   */\n  0x24\n  dup3\n  add\n    /* \"#utility.yul\":2828:2858   */\n  mstore\n    /* \"#utility.yul\":2894:2928   */\n  0x537472696e67733a20686578206c656e67746820696e73756666696369656e74\n    /* \"#utility.yul\":2874:2892   */\n  0x44\n  dup3\n  add\n    /* \"#utility.yul\":2867:2929   */\n  mstore\n    /* \"#utility.yul\":2946:2964   */\n  0x64\n  add\n    /* \"@openzeppelin/contracts/utils/Strings.sol\":1936:1991  require(value == 0, \"Strings: hex length insufficient\") */\n  tag_37\n    /* \"#utility.yul\":2614:2970   */\n  jump\n    /* \"@openzeppelin/contracts/utils/Strings.sol\":1936:1991  require(value == 0, \"Strings: hex length insufficient\") */\ntag_64:\n    /* \"@openzeppelin/contracts/utils/Strings.sol\":2015:2021  buffer */\n  swap4\n    /* \"@openzeppelin/contracts/utils/Strings.sol\":1588:2029  function toHexString(uint256 value, uint256 length) internal pure returns (string memory) {... */\n  swap3\n  pop\n  pop\n  pop\n  jump\t// out\n    /* \"#utility.yul\":14:324   */\ntag_3:\n    /* \"#utility.yul\":104:110   */\n  0x00\n    /* \"#utility.yul\":157:159   */\n  0x20\n    /* \"#utility.yul\":145:154   */\n  dup3\n    /* \"#utility.yul\":136:143   */\n  dup5\n    /* \"#utility.yul\":132:155   */\n  sub\n    /* \"#utility.yul\":128:160   */\n  slt\n    /* \"#utility.yul\":125:177   */\n  iszero\n  tag_71\n  jumpi\n    /* \"#utility.yul\":173:174   */\n  0x00\n    /* \"#utility.yul\":170:171   */\n  dup1\n    /* \"#utility.yul\":163:175   */\n  revert\n    /* \"#utility.yul\":125:177   */\ntag_71:\n    /* \"#utility.yul\":199:215   */\n  dup2\n  mload\n  sub(shl(0xa0, 0x01), 0x01)\n    /* \"#utility.yul\":244:275   */\n  dup2\n  and\n    /* \"#utility.yul\":234:276   */\n  dup2\n  eq\n    /* \"#utility.yul\":224:294   */\n  tag_64\n  jumpi\n    /* \"#utility.yul\":290:291   */\n  0x00\n    /* \"#utility.yul\":287:288   */\n  dup1\n    /* \"#utility.yul\":280:292   */\n  revert\n    /* \"#utility.yul\":329:587   */\ntag_67:\n    /* \"#utility.yul\":401:402   */\n  0x00\n    /* \"#utility.yul\":411:524   */\ntag_74:\n    /* \"#utility.yul\":425:431   */\n  dup4\n    /* \"#utility.yul\":422:423   */\n  dup2\n    /* \"#utility.yul\":419:432   */\n  lt\n    /* \"#utility.yul\":411:524   */\n  iszero\n  tag_76\n  jumpi\n    /* \"#utility.yul\":501:512   */\n  dup2\n  dup2\n  add\n    /* \"#utility.yul\":495:513   */\n  mload\n    /* \"#utility.yul\":482:493   */\n  dup4\n  dup3\n  add\n    /* \"#utility.yul\":475:514   */\n  mstore\n    /* \"#utility.yul\":447:449   */\n  0x20\n    /* \"#utility.yul\":440:450   */\n  add\n    /* \"#utility.yul\":411:524   */\n  jump(tag_74)\ntag_76:\n    /* \"#utility.yul\":542:548   */\n  dup4\n    /* \"#utility.yul\":539:540   */\n  dup2\n    /* \"#utility.yul\":536:549   */\n  gt\n    /* \"#utility.yul\":533:581   */\n  iszero\n  tag_77\n  jumpi\n    /* \"#utility.yul\":577:578   */\n  0x00\n    /* \"#utility.yul\":568:574   */\n  dup5\n    /* \"#utility.yul\":563:566   */\n  dup5\n    /* \"#utility.yul\":559:575   */\n  add\n    /* \"#utility.yul\":552:579   */\n  mstore\n    /* \"#utility.yul\":533:581   */\ntag_77:\n  pop\n    /* \"#utility.yul\":329:587   */\n  pop\n  pop\n  pop\n  jump\t// out\n    /* \"#utility.yul\":592:1378   */\ntag_36:\n    /* \"#utility.yul\":1003:1028   */\n  0x416363657373436f6e74726f6c3a206163636f756e7420000000000000000000\n    /* \"#utility.yul\":998:1001   */\n  dup2\n    /* \"#utility.yul\":991:1029   */\n  mstore\n    /* \"#utility.yul\":973:976   */\n  0x00\n    /* \"#utility.yul\":1058:1064   */\n  dup4\n    /* \"#utility.yul\":1052:1065   */\n  mload\n    /* \"#utility.yul\":1074:1136   */\n  tag_79\n    /* \"#utility.yul\":1129:1135   */\n  dup2\n    /* \"#utility.yul\":1124:1126   */\n  0x17\n    /* \"#utility.yul\":1119:1122   */\n  dup6\n    /* \"#utility.yul\":1115:1127   */\n  add\n    /* \"#utility.yul\":1108:1112   */\n  0x20\n    /* \"#utility.yul\":1100:1106   */\n  dup9\n    /* \"#utility.yul\":1096:1113   */\n  add\n    /* \"#utility.yul\":1074:1136   */\n  tag_67\n  jump\t// in\ntag_79:\n  shl(0x7d, 0x01034b99036b4b9b9b4b733903937b6329)\n    /* \"#utility.yul\":1195:1197   */\n  0x17\n    /* \"#utility.yul\":1155:1171   */\n  swap2\n  dup5\n  add\n    /* \"#utility.yul\":1187:1198   */\n  swap2\n  dup3\n  add\n    /* \"#utility.yul\":1180:1220   */\n  mstore\n    /* \"#utility.yul\":1245:1258   */\n  dup4\n  mload\n    /* \"#utility.yul\":1267:1330   */\n  tag_80\n    /* \"#utility.yul\":1245:1258   */\n  dup2\n    /* \"#utility.yul\":1316:1318   */\n  0x28\n    /* \"#utility.yul\":1308:1319   */\n  dup5\n  add\n    /* \"#utility.yul\":1301:1305   */\n  0x20\n    /* \"#utility.yul\":1289:1306   */\n  dup9\n  add\n    /* \"#utility.yul\":1267:1330   */\n  tag_67\n  jump\t// in\ntag_80:\n    /* \"#utility.yul\":1350:1367   */\n  add\n    /* \"#utility.yul\":1369:1371   */\n  0x28\n    /* \"#utility.yul\":1346:1372   */\n  add\n  swap5\n    /* \"#utility.yul\":592:1378   */\n  swap4\n  pop\n  pop\n  pop\n  pop\n  jump\t// out\n    /* \"#utility.yul\":1383:1766   */\ntag_38:\n    /* \"#utility.yul\":1532:1534   */\n  0x20\n    /* \"#utility.yul\":1521:1530   */\n  dup2\n    /* \"#utility.yul\":1514:1535   */\n  mstore\n    /* \"#utility.yul\":1495:1499   */\n  0x00\n    /* \"#utility.yul\":1564:1570   */\n  dup3\n    /* \"#utility.yul\":1558:1571   */\n  mload\n    /* \"#utility.yul\":1607:1613   */\n  dup1\n    /* \"#utility.yul\":1602:1604   */\n  0x20\n    /* \"#utility.yul\":1591:1600   */\n  dup5\n    /* \"#utility.yul\":1587:1605   */\n  add\n    /* \"#utility.yul\":1580:1614   */\n  mstore\n    /* \"#utility.yul\":1623:1689   */\n  tag_82\n    /* \"#utility.yul\":1682:1688   */\n  dup2\n    /* \"#utility.yul\":1677:1679   */\n  0x40\n    /* \"#utility.yul\":1666:1675   */\n  dup6\n    /* \"#utility.yul\":1662:1680   */\n  add\n    /* \"#utility.yul\":1657:1659   */\n  0x20\n    /* \"#utility.yul\":1649:1655   */\n  dup8\n    /* \"#utility.yul\":1645:1660   */\n  add\n    /* \"#utility.yul\":1623:1689   */\n  tag_67\n  jump\t// in\ntag_82:\n    /* \"#utility.yul\":1750:1752   */\n  0x1f\n    /* \"#utility.yul\":1729:1744   */\n  add\n  not(0x1f)\n    /* \"#utility.yul\":1725:1754   */\n  and\n    /* \"#utility.yul\":1710:1755   */\n  swap2\n  swap1\n  swap2\n  add\n    /* \"#utility.yul\":1757:1759   */\n  0x40\n    /* \"#utility.yul\":1706:1760   */\n  add\n  swap3\n    /* \"#utility.yul\":1383:1766   */\n  swap2\n  pop\n  pop\n  jump\t// out\n    /* \"#utility.yul\":1771:1898   */\ntag_68:\n    /* \"#utility.yul\":1832:1842   */\n  0x4e487b71\n    /* \"#utility.yul\":1827:1830   */\n  0xe0\n    /* \"#utility.yul\":1823:1843   */\n  shl\n    /* \"#utility.yul\":1820:1821   */\n  0x00\n    /* \"#utility.yul\":1813:1844   */\n  mstore\n    /* \"#utility.yul\":1863:1867   */\n  0x11\n    /* \"#utility.yul\":1860:1861   */\n  0x04\n    /* \"#utility.yul\":1853:1868   */\n  mstore\n    /* \"#utility.yul\":1887:1891   */\n  0x24\n    /* \"#utility.yul\":1884:1885   */\n  0x00\n    /* \"#utility.yul\":1877:1892   */\n  revert\n    /* \"#utility.yul\":1903:2071   */\ntag_41:\n    /* \"#utility.yul\":1943:1950   */\n  0x00\n    /* \"#utility.yul\":2009:2010   */\n  dup2\n    /* \"#utility.yul\":2005:2006   */\n  0x00\n    /* \"#utility.yul\":2001:2007   */\n  not\n    /* \"#utility.yul\":1997:2011   */\n  div\n    /* \"#utility.yul\":1994:1995   */\n  dup4\n    /* \"#utility.yul\":1991:2012   */\n  gt\n    /* \"#utility.yul\":1986:1987   */\n  dup3\n    /* \"#utility.yul\":1979:1988   */\n  iszero\n    /* \"#utility.yul\":1972:1989   */\n  iszero\n    /* \"#utility.yul\":1968:2013   */\n  and\n    /* \"#utility.yul\":1965:2036   */\n  iszero\n  tag_86\n  jumpi\n    /* \"#utility.yul\":2016:2034   */\n  tag_86\n  tag_68\n  jump\t// in\ntag_86:\n  pop\n    /* \"#utility.yul\":2056:2065   */\n  mul\n  swap1\n    /* \"#utility.yul\":1903:2071   */\n  jump\t// out\n    /* \"#utility.yul\":2076:2204   */\ntag_43:\n    /* \"#utility.yul\":2116:2119   */\n  0x00\n    /* \"#utility.yul\":2147:2148   */\n  dup3\n    /* \"#utility.yul\":2143:2149   */\n  not\n    /* \"#utility.yul\":2140:2141   */\n  dup3\n    /* \"#utility.yul\":2137:2150   */\n  gt\n    /* \"#utility.yul\":2134:2173   */\n  iszero\n  tag_89\n  jumpi\n    /* \"#utility.yul\":2153:2171   */\n  tag_89\n  tag_68\n  jump\t// in\ntag_89:\n  pop\n    /* \"#utility.yul\":2189:2198   */\n  add\n  swap1\n    /* \"#utility.yul\":2076:2204   */\n  jump\t// out\n    /* \"#utility.yul\":2209:2336   */\ntag_46:\n    /* \"#utility.yul\":2270:2280   */\n  0x4e487b71\n    /* \"#utility.yul\":2265:2268   */\n  0xe0\n    /* \"#utility.yul\":2261:2281   */\n  shl\n    /* \"#utility.yul\":2258:2259   */\n  0x00\n    /* \"#utility.yul\":2251:2282   */\n  mstore\n    /* \"#utility.yul\":2301:2305   */\n  0x41\n    /* \"#utility.yul\":2298:2299   */\n  0x04\n    /* \"#utility.yul\":2291:2306   */\n  mstore\n    /* \"#utility.yul\":2325:2329   */\n  0x24\n    /* \"#utility.yul\":2322:2323   */\n  0x00\n    /* \"#utility.yul\":2315:2330   */\n  revert\n    /* \"#utility.yul\":2341:2468   */\ntag_50:\n    /* \"#utility.yul\":2402:2412   */\n  0x4e487b71\n    /* \"#utility.yul\":2397:2400   */\n  0xe0\n    /* \"#utility.yul\":2393:2413   */\n  shl\n    /* \"#utility.yul\":2390:2391   */\n  0x00\n    /* \"#utility.yul\":2383:2414   */\n  mstore\n    /* \"#utility.yul\":2433:2437   */\n  0x32\n    /* \"#utility.yul\":2430:2431   */\n  0x04\n    /* \"#utility.yul\":2423:2438   */\n  mstore\n    /* \"#utility.yul\":2457:2461   */\n  0x24\n    /* \"#utility.yul\":2454:2455   */\n  0x00\n    /* \"#utility.yul\":2447:2462   */\n  revert\n    /* \"#utility.yul\":2473:2609   */\ntag_63:\n    /* \"#utility.yul\":2512:2515   */\n  0x00\n    /* \"#utility.yul\":2540:2545   */\n  dup2\n    /* \"#utility.yul\":2530:2569   */\n  tag_94\n  jumpi\n    /* \"#utility.yul\":2549:2567   */\n  tag_94\n  tag_68\n  jump\t// in\ntag_94:\n  pop\n  not(0x00)\n    /* \"#utility.yul\":2585:2603   */\n  add\n  swap1\n    /* \"#utility.yul\":2473:2609   */\n  jump\t// out\n    /* \"#utility.yul\":2614:2970   */\ntag_69:\n    /* \"MintNagaKids.sol\":217:1457  contract MintNagaKids is AccessControl, ReentrancyGuard {... */\n  dataSize(sub_0)\n  dup1\n  dataOffset(sub_0)\n  0x00\n  codecopy\n  0x00\n  return\nstop\n\nsub_0: assembly {\n        /* \"MintNagaKids.sol\":217:1457  contract MintNagaKids is AccessControl, ReentrancyGuard {... */\n      mstore(0x40, 0x80)\n      jumpi(tag_1, lt(calldatasize, 0x04))\n      shr(0xe0, calldataload(0x00))\n      dup1\n      0x804f43cd\n      gt\n      tag_18\n      jumpi\n      dup1\n      0xa6f5f014\n      gt\n      tag_19\n      jumpi\n      dup1\n      0xa6f5f014\n      eq\n      tag_14\n      jumpi\n      dup1\n      0xc4e41b22\n      eq\n      tag_15\n      jumpi\n      dup1\n      0xd547741f\n      eq\n      tag_16\n      jumpi\n      dup1\n      0xdd31a7ba\n      eq\n      tag_17\n      jumpi\n      0x00\n      dup1\n      revert\n    tag_19:\n      dup1\n      0x804f43cd\n      eq\n      tag_10\n      jumpi\n      dup1\n      0x91d14854\n      eq\n      tag_11\n      jumpi\n      dup1\n      0x94f4504d\n      eq\n      tag_12\n      jumpi\n      dup1\n      0xa217fddf\n      eq\n      tag_13\n      jumpi\n      0x00\n      dup1\n      revert\n    tag_18:\n      dup1\n      0x2f2ff15d\n      gt\n      tag_20\n      jumpi\n      dup1\n      0x2f2ff15d\n      eq\n      tag_6\n      jumpi\n      dup1\n      0x36568abe\n      eq\n      tag_7\n      jumpi\n      dup1\n      0x4c0f38c2\n      eq\n      tag_8\n      jumpi\n      dup1\n      0x61aec205\n      eq\n      tag_9\n      jumpi\n      0x00\n      dup1\n      revert\n    tag_20:\n      dup1\n      0x01ffc9a7\n      eq\n      tag_2\n      jumpi\n      dup1\n      0x248a9ca3\n      eq\n      tag_3\n      jumpi\n      dup1\n      0x27c25c20\n      eq\n      tag_4\n      jumpi\n      dup1\n      0x28438f68\n      eq\n      tag_5\n      jumpi\n    tag_1:\n      0x00\n      dup1\n      revert\n        /* \"@openzeppelin/contracts/access/AccessControl.sol\":2606:2808  function supportsInterface(bytes4 interfaceId) public view virtual override returns (bool) {... */\n    tag_2:\n      callvalue\n      dup1\n      iszero\n      tag_21\n      jumpi\n      0x00\n      dup1\n      revert\n    tag_21:\n      pop\n      tag_22\n      tag_23\n      calldatasize\n      0x04\n      tag_24\n      jump\t// in\n    tag_23:\n      tag_25\n      jump\t// in\n    tag_22:\n      mload(0x40)\n        /* \"#utility.yul\":470:484   */\n      swap1\n      iszero\n        /* \"#utility.yul\":463:485   */\n      iszero\n        /* \"#utility.yul\":445:486   */\n      dup2\n      mstore\n        /* \"#utility.yul\":433:435   */\n      0x20\n        /* \"#utility.yul\":418:436   */\n      add\n        /* \"@openzeppelin/contracts/access/AccessControl.sol\":2606:2808  function supportsInterface(bytes4 interfaceId) public view virtual override returns (bool) {... */\n    tag_26:\n      mload(0x40)\n      dup1\n      swap2\n      sub\n      swap1\n      return\n        /* \"@openzeppelin/contracts/access/AccessControl.sol\":4391:4520  function getRoleAdmin(bytes32 role) public view virtual override returns (bytes32) {... */\n    tag_3:\n      callvalue\n      dup1\n      iszero\n      tag_28\n      jumpi\n      0x00\n      dup1\n      revert\n    tag_28:\n      pop\n      tag_29\n      tag_30\n      calldatasize\n      0x04\n      tag_31\n      jump\t// in\n    tag_30:\n        /* \"@openzeppelin/contracts/access/AccessControl.sol\":4465:4472  bytes32 */\n      0x00\n        /* \"@openzeppelin/contracts/access/AccessControl.sol\":4491:4503  _roles[role] */\n      swap1\n      dup2\n      mstore\n      0x20\n      dup2\n      swap1\n      mstore\n      0x40\n      swap1\n      keccak256\n        /* \"@openzeppelin/contracts/access/AccessControl.sol\":4491:4513  _roles[role].adminRole */\n      0x01\n      add\n      sload\n      swap1\n        /* \"@openzeppelin/contracts/access/AccessControl.sol\":4391:4520  function getRoleAdmin(bytes32 role) public view virtual override returns (bytes32) {... */\n      jump\n    tag_29:\n      mload(0x40)\n        /* \"#utility.yul\":828:853   */\n      swap1\n      dup2\n      mstore\n        /* \"#utility.yul\":816:818   */\n      0x20\n        /* \"#utility.yul\":801:819   */\n      add\n        /* \"@openzeppelin/contracts/access/AccessControl.sol\":4391:4520  function getRoleAdmin(bytes32 role) public view virtual override returns (bytes32) {... */\n      tag_26\n        /* \"#utility.yul\":682:859   */\n      jump\n        /* \"MintNagaKids.sol\":282:318  INagaKidsNFT public nagaKidsContract */\n    tag_4:\n      callvalue\n      dup1\n      iszero\n      tag_35\n      jumpi\n      0x00\n      dup1\n      revert\n    tag_35:\n      pop\n      sload(0x02)\n      tag_36\n      swap1\n      sub(shl(0xa0, 0x01), 0x01)\n      and\n      dup2\n      jump\n    tag_36:\n      mload(0x40)\n      sub(shl(0xa0, 0x01), 0x01)\n        /* \"#utility.yul\":1048:1080   */\n      swap1\n      swap2\n      and\n        /* \"#utility.yul\":1030:1081   */\n      dup2\n      mstore\n        /* \"#utility.yul\":1018:1020   */\n      0x20\n        /* \"#utility.yul\":1003:1021   */\n      add\n        /* \"MintNagaKids.sol\":282:318  INagaKidsNFT public nagaKidsContract */\n      tag_26\n        /* \"#utility.yul\":864:1087   */\n      jump\n        /* \"MintNagaKids.sol\":873:1017  function changeFreeMintOpen(bool _isOpen)... */\n    tag_5:\n      callvalue\n      dup1\n      iszero\n      tag_40\n      jumpi\n      0x00\n      dup1\n      revert\n    tag_40:\n      pop\n      tag_41\n      tag_42\n      calldatasize\n      0x04\n      tag_43\n      jump\t// in\n    tag_42:\n      tag_44\n      jump\t// in\n    tag_41:\n      stop\n        /* \"@openzeppelin/contracts/access/AccessControl.sol\":4770:4915  function grantRole(bytes32 role, address account) public virtual override onlyRole(getRoleAdmin(role)) {... */\n    tag_6:\n      callvalue\n      dup1\n      iszero\n      tag_45\n      jumpi\n      0x00\n      dup1\n      revert\n    tag_45:\n      pop\n      tag_41\n      tag_47\n      calldatasize\n      0x04\n      tag_48\n      jump\t// in\n    tag_47:\n      tag_49\n      jump\t// in\n        /* \"@openzeppelin/contracts/access/AccessControl.sol\":5787:6001  function renounceRole(bytes32 role, address account) public virtual override {... */\n    tag_7:\n      callvalue\n      dup1\n      iszero\n      tag_50\n      jumpi\n      0x00\n      dup1\n      revert\n    tag_50:\n      pop\n      tag_41\n      tag_52\n      calldatasize\n      0x04\n      tag_48\n      jump\t// in\n    tag_52:\n      tag_53\n      jump\t// in\n        /* \"MintNagaKids.sol\":1346:1454  function getMaxSupply() public view returns (uint256) {... */\n    tag_8:\n      callvalue\n      dup1\n      iszero\n      tag_54\n      jumpi\n      0x00\n      dup1\n      revert\n    tag_54:\n      pop\n      tag_29\n      tag_56\n      jump\t// in\n        /* \"MintNagaKids.sol\":545:707  function changeNagaKidsContract(INagaKidsNFT _nagaKids)... */\n    tag_9:\n      callvalue\n      dup1\n      iszero\n      tag_59\n      jumpi\n      0x00\n      dup1\n      revert\n    tag_59:\n      pop\n      tag_41\n      tag_61\n      calldatasize\n      0x04\n      tag_62\n      jump\t// in\n    tag_61:\n      tag_63\n      jump\t// in\n        /* \"MintNagaKids.sol\":1025:1218  function whitelistMint() public payable nonReentrant {... */\n    tag_10:\n      tag_41\n      tag_65\n      jump\t// in\n        /* \"@openzeppelin/contracts/access/AccessControl.sol\":2895:3040  function hasRole(bytes32 role, address account) public view virtual override returns (bool) {... */\n    tag_11:\n      callvalue\n      dup1\n      iszero\n      tag_66\n      jumpi\n      0x00\n      dup1\n      revert\n    tag_66:\n      pop\n      tag_22\n      tag_68\n      calldatasize\n      0x04\n      tag_48\n      jump\t// in\n    tag_68:\n      tag_69\n      jump\t// in\n        /* \"MintNagaKids.sol\":358:385  bool public isWhitelistOpen */\n    tag_12:\n      callvalue\n      dup1\n      iszero\n      tag_71\n      jumpi\n      0x00\n      dup1\n      revert\n    tag_71:\n      pop\n      sload(0x02)\n      tag_22\n      swap1\n      shl(0xa8, 0x01)\n      swap1\n      div\n      0xff\n      and\n      dup2\n      jump\n        /* \"@openzeppelin/contracts/access/AccessControl.sol\":2027:2076  bytes32 public constant DEFAULT_ADMIN_ROLE = 0x00 */\n    tag_13:\n      callvalue\n      dup1\n      iszero\n      tag_75\n      jumpi\n      0x00\n      dup1\n      revert\n    tag_75:\n      pop\n      tag_29\n        /* \"@openzeppelin/contracts/access/AccessControl.sol\":2072:2076  0x00 */\n      0x00\n        /* \"@openzeppelin/contracts/access/AccessControl.sol\":2027:2076  bytes32 public constant DEFAULT_ADMIN_ROLE = 0x00 */\n      dup2\n      jump\n        /* \"MintNagaKids.sol\":325:351  bool public isFreeMintOpen */\n    tag_14:\n      callvalue\n      dup1\n      iszero\n      tag_79\n      jumpi\n      0x00\n      dup1\n      revert\n    tag_79:\n      pop\n      sload(0x02)\n      tag_22\n      swap1\n      shl(0xa0, 0x01)\n      swap1\n      div\n      0xff\n      and\n      dup2\n      jump\n        /* \"MintNagaKids.sol\":1226:1338  function getTotalSupply() public view returns (uint256) {... */\n    tag_15:\n      callvalue\n      dup1\n      iszero\n      tag_83\n      jumpi\n      0x00\n      dup1\n      revert\n    tag_83:\n      pop\n      tag_29\n      tag_85\n      jump\t// in\n        /* \"@openzeppelin/contracts/access/AccessControl.sol\":5149:5296  function revokeRole(bytes32 role, address account) public virtual override onlyRole(getRoleAdmin(role)) {... */\n    tag_16:\n      callvalue\n      dup1\n      iszero\n      tag_87\n      jumpi\n      0x00\n      dup1\n      revert\n    tag_87:\n      pop\n      tag_41\n      tag_89\n      calldatasize\n      0x04\n      tag_48\n      jump\t// in\n    tag_89:\n      tag_90\n      jump\t// in\n        /* \"MintNagaKids.sol\":715:865  function changeWhitelistMintOpen(bool _isOpen)... */\n    tag_17:\n      callvalue\n      dup1\n      iszero\n      tag_91\n      jumpi\n      0x00\n      dup1\n      revert\n    tag_91:\n      pop\n      tag_41\n      tag_93\n      calldatasize\n      0x04\n      tag_43\n      jump\t// in\n    tag_93:\n      tag_94\n      jump\t// in\n        /* \"@openzeppelin/contracts/access/AccessControl.sol\":2606:2808  function supportsInterface(bytes4 interfaceId) public view virtual override returns (bool) {... */\n    tag_25:\n        /* \"@openzeppelin/contracts/access/AccessControl.sol\":2691:2695  bool */\n      0x00\n      not(sub(shl(0xe0, 0x01), 0x01))\n        /* \"@openzeppelin/contracts/access/AccessControl.sol\":2714:2761  interfaceId == type(IAccessControl).interfaceId */\n      dup3\n      and\n      shl(0xe0, 0x7965db0b)\n      eq\n      dup1\n        /* \"@openzeppelin/contracts/access/AccessControl.sol\":2714:2801  interfaceId == type(IAccessControl).interfaceId || super.supportsInterface(interfaceId) */\n      tag_98\n      jumpi\n      pop\n      shl(0xe0, 0x01ffc9a7)\n      not(sub(shl(0xe0, 0x01), 0x01))\n        /* \"@openzeppelin/contracts/utils/introspection/ERC165.sol\":937:977  interfaceId == type(IERC165).interfaceId */\n      dup4\n      and\n      eq\n        /* \"@openzeppelin/contracts/access/AccessControl.sol\":2765:2801  super.supportsInterface(interfaceId) */\n    tag_98:\n        /* \"@openzeppelin/contracts/access/AccessControl.sol\":2707:2801  return interfaceId == type(IAccessControl).interfaceId || super.supportsInterface(interfaceId) */\n      swap3\n        /* \"@openzeppelin/contracts/access/AccessControl.sol\":2606:2808  function supportsInterface(bytes4 interfaceId) public view virtual override returns (bool) {... */\n      swap2\n      pop\n      pop\n      jump\t// out\n        /* \"MintNagaKids.sol\":873:1017  function changeFreeMintOpen(bool _isOpen)... */\n    tag_44:\n        /* \"@openzeppelin/contracts/access/AccessControl.sol\":2072:2076  0x00 */\n      0x00\n        /* \"@openzeppelin/contracts/access/AccessControl.sol\":2505:2521  _checkRole(role) */\n      tag_102\n        /* \"@openzeppelin/contracts/access/AccessControl.sol\":2072:2076  0x00 */\n      dup2\n        /* \"@openzeppelin/contracts/access/AccessControl.sol\":2505:2515  _checkRole */\n      tag_103\n        /* \"@openzeppelin/contracts/access/AccessControl.sol\":2505:2521  _checkRole(role) */\n      jump\t// in\n    tag_102:\n      pop\n        /* \"MintNagaKids.sol\":985:999  isFreeMintOpen */\n      0x02\n        /* \"MintNagaKids.sol\":985:1009  isFreeMintOpen = _isOpen */\n      dup1\n      sload\n      swap2\n      iszero\n      iszero\n      shl(0xa0, 0x01)\n      mul\n      not(shl(0xa0, 0xff))\n      swap1\n      swap3\n      and\n      swap2\n      swap1\n      swap2\n      or\n      swap1\n      sstore\n        /* \"MintNagaKids.sol\":873:1017  function changeFreeMintOpen(bool _isOpen)... */\n      jump\t// out\n        /* \"@openzeppelin/contracts/access/AccessControl.sol\":4770:4915  function grantRole(bytes32 role, address account) public virtual override onlyRole(getRoleAdmin(role)) {... */\n    tag_49:\n        /* \"@openzeppelin/contracts/access/AccessControl.sol\":4465:4472  bytes32 */\n      0x00\n        /* \"@openzeppelin/contracts/access/AccessControl.sol\":4491:4503  _roles[role] */\n      dup3\n      dup2\n      mstore\n      0x20\n      dup2\n      swap1\n      mstore\n      0x40\n      swap1\n      keccak256\n        /* \"@openzeppelin/contracts/access/AccessControl.sol\":4491:4513  _roles[role].adminRole */\n      0x01\n      add\n      sload\n        /* \"@openzeppelin/contracts/access/AccessControl.sol\":2505:2521  _checkRole(role) */\n      tag_107\n        /* \"@openzeppelin/contracts/access/AccessControl.sol\":2516:2520  role */\n      dup2\n        /* \"@openzeppelin/contracts/access/AccessControl.sol\":2505:2515  _checkRole */\n      tag_103\n        /* \"@openzeppelin/contracts/access/AccessControl.sol\":2505:2521  _checkRole(role) */\n      jump\t// in\n    tag_107:\n        /* \"@openzeppelin/contracts/access/AccessControl.sol\":4883:4908  _grantRole(role, account) */\n      tag_109\n        /* \"@openzeppelin/contracts/access/AccessControl.sol\":4894:4898  role */\n      dup4\n        /* \"@openzeppelin/contracts/access/AccessControl.sol\":4900:4907  account */\n      dup4\n        /* \"@openzeppelin/contracts/access/AccessControl.sol\":4883:4893  _grantRole */\n      tag_110\n        /* \"@openzeppelin/contracts/access/AccessControl.sol\":4883:4908  _grantRole(role, account) */\n      jump\t// in\n    tag_109:\n        /* \"@openzeppelin/contracts/access/AccessControl.sol\":4770:4915  function grantRole(bytes32 role, address account) public virtual override onlyRole(getRoleAdmin(role)) {... */\n      pop\n      pop\n      pop\n      jump\t// out\n        /* \"@openzeppelin/contracts/access/AccessControl.sol\":5787:6001  function renounceRole(bytes32 role, address account) public virtual override {... */\n    tag_53:\n      sub(shl(0xa0, 0x01), 0x01)\n        /* \"@openzeppelin/contracts/access/AccessControl.sol\":5882:5905  account == _msgSender() */\n      dup2\n      and\n        /* \"@openzeppelin/contracts/utils/Context.sol\":719:729  msg.sender */\n      caller\n        /* \"@openzeppelin/contracts/access/AccessControl.sol\":5882:5905  account == _msgSender() */\n      eq\n        /* \"@openzeppelin/contracts/access/AccessControl.sol\":5874:5957  require(account == _msgSender(), \"AccessControl: can only renounce roles for self\") */\n      tag_114\n      jumpi\n      mload(0x40)\n      shl(0xe5, 0x461bcd)\n      dup2\n      mstore\n        /* \"#utility.yul\":2482:2484   */\n      0x20\n        /* \"@openzeppelin/contracts/access/AccessControl.sol\":5874:5957  require(account == _msgSender(), \"AccessControl: can only renounce roles for self\") */\n      0x04\n      dup3\n      add\n        /* \"#utility.yul\":2464:2485   */\n      mstore\n        /* \"#utility.yul\":2521:2523   */\n      0x2f\n        /* \"#utility.yul\":2501:2519   */\n      0x24\n      dup3\n      add\n        /* \"#utility.yul\":2494:2524   */\n      mstore\n        /* \"#utility.yul\":2560:2594   */\n      0x416363657373436f6e74726f6c3a2063616e206f6e6c792072656e6f756e6365\n        /* \"#utility.yul\":2540:2558   */\n      0x44\n      dup3\n      add\n        /* \"#utility.yul\":2533:2595   */\n      mstore\n      shl(0x89, 0x103937b632b9903337b91039b2b633)\n        /* \"#utility.yul\":2611:2629   */\n      0x64\n      dup3\n      add\n        /* \"#utility.yul\":2604:2649   */\n      mstore\n        /* \"#utility.yul\":2666:2685   */\n      0x84\n      add\n        /* \"@openzeppelin/contracts/access/AccessControl.sol\":5874:5957  require(account == _msgSender(), \"AccessControl: can only renounce roles for self\") */\n    tag_115:\n      mload(0x40)\n      dup1\n      swap2\n      sub\n      swap1\n      revert\n    tag_114:\n        /* \"@openzeppelin/contracts/access/AccessControl.sol\":5968:5994  _revokeRole(role, account) */\n      tag_117\n        /* \"@openzeppelin/contracts/access/AccessControl.sol\":5980:5984  role */\n      dup3\n        /* \"@openzeppelin/contracts/access/AccessControl.sol\":5986:5993  account */\n      dup3\n        /* \"@openzeppelin/contracts/access/AccessControl.sol\":5968:5979  _revokeRole */\n      tag_118\n        /* \"@openzeppelin/contracts/access/AccessControl.sol\":5968:5994  _revokeRole(role, account) */\n      jump\t// in\n    tag_117:\n        /* \"@openzeppelin/contracts/access/AccessControl.sol\":5787:6001  function renounceRole(bytes32 role, address account) public virtual override {... */\n      pop\n      pop\n      jump\t// out\n        /* \"MintNagaKids.sol\":1346:1454  function getMaxSupply() public view returns (uint256) {... */\n    tag_56:\n        /* \"MintNagaKids.sol\":1418:1434  nagaKidsContract */\n      sload(0x02)\n        /* \"MintNagaKids.sol\":1418:1446  nagaKidsContract.maxSupply() */\n      0x40\n      dup1\n      mload\n      shl(0xe0, 0xd5abeb01)\n      dup2\n      mstore\n      swap1\n      mload\n        /* \"MintNagaKids.sol\":1391:1398  uint256 */\n      0x00\n      swap3\n      sub(shl(0xa0, 0x01), 0x01)\n        /* \"MintNagaKids.sol\":1418:1434  nagaKidsContract */\n      and\n      swap2\n        /* \"MintNagaKids.sol\":1418:1444  nagaKidsContract.maxSupply */\n      0xd5abeb01\n      swap2\n        /* \"MintNagaKids.sol\":1418:1446  nagaKidsContract.maxSupply() */\n      0x04\n      dup1\n      dup4\n      add\n      swap3\n      0x20\n      swap3\n      swap2\n      swap1\n      dup3\n      swap1\n      sub\n      add\n      dup2\n        /* \"MintNagaKids.sol\":1418:1434  nagaKidsContract */\n      dup7\n        /* \"MintNagaKids.sol\":1418:1446  nagaKidsContract.maxSupply() */\n      gas\n      staticcall\n      iszero\n      dup1\n      iszero\n      tag_121\n      jumpi\n      returndatasize\n      0x00\n      dup1\n      returndatacopy\n      revert(0x00, returndatasize)\n    tag_121:\n      pop\n      pop\n      pop\n      pop\n      mload(0x40)\n      returndatasize\n      not(0x1f)\n      0x1f\n      dup3\n      add\n      and\n      dup3\n      add\n      dup1\n      0x40\n      mstore\n      pop\n      dup2\n      add\n      swap1\n      tag_122\n      swap2\n      swap1\n      tag_123\n      jump\t// in\n    tag_122:\n        /* \"MintNagaKids.sol\":1411:1446  return nagaKidsContract.maxSupply() */\n      swap1\n      pop\n        /* \"MintNagaKids.sol\":1346:1454  function getMaxSupply() public view returns (uint256) {... */\n      swap1\n      jump\t// out\n        /* \"MintNagaKids.sol\":545:707  function changeNagaKidsContract(INagaKidsNFT _nagaKids)... */\n    tag_63:\n        /* \"@openzeppelin/contracts/access/AccessControl.sol\":2072:2076  0x00 */\n      0x00\n        /* \"@openzeppelin/contracts/access/AccessControl.sol\":2505:2521  _checkRole(role) */\n      tag_125\n        /* \"@openzeppelin/contracts/access/AccessControl.sol\":2072:2076  0x00 */\n      dup2\n        /* \"@openzeppelin/contracts/access/AccessControl.sol\":2505:2515  _checkRole */\n      tag_103\n        /* \"@openzeppelin/contracts/access/AccessControl.sol\":2505:2521  _checkRole(role) */\n      jump\t// in\n    tag_125:\n      pop\n        /* \"MintNagaKids.sol\":671:687  nagaKidsContract */\n      0x02\n        /* \"MintNagaKids.sol\":671:699  nagaKidsContract = _nagaKids */\n      dup1\n      sload\n      not(sub(shl(0xa0, 0x01), 0x01))\n      and\n      sub(shl(0xa0, 0x01), 0x01)\n      swap3\n      swap1\n      swap3\n      and\n      swap2\n      swap1\n      swap2\n      or\n      swap1\n      sstore\n        /* \"MintNagaKids.sol\":545:707  function changeNagaKidsContract(INagaKidsNFT _nagaKids)... */\n      jump\t// out\n        /* \"MintNagaKids.sol\":1025:1218  function whitelistMint() public payable nonReentrant {... */\n    tag_65:\n        /* \"@openzeppelin/contracts/security/ReentrancyGuard.sol\":1744:1745  2 */\n      0x02\n        /* \"@openzeppelin/contracts/security/ReentrancyGuard.sol\":2325:2332  _status */\n      sload(0x01)\n        /* \"@openzeppelin/contracts/security/ReentrancyGuard.sol\":2325:2344  _status != _ENTERED */\n      sub\n        /* \"@openzeppelin/contracts/security/ReentrancyGuard.sol\":2317:2380  require(_status != _ENTERED, \"ReentrancyGuard: reentrant call\") */\n      tag_128\n      jumpi\n      mload(0x40)\n      shl(0xe5, 0x461bcd)\n      dup2\n      mstore\n        /* \"#utility.yul\":3087:3089   */\n      0x20\n        /* \"@openzeppelin/contracts/security/ReentrancyGuard.sol\":2317:2380  require(_status != _ENTERED, \"ReentrancyGuard: reentrant call\") */\n      0x04\n      dup3\n      add\n        /* \"#utility.yul\":3069:3090   */\n      mstore\n        /* \"#utility.yul\":3126:3128   */\n      0x1f\n        /* \"#utility.yul\":3106:3124   */\n      0x24\n      dup3\n      add\n        /* \"#utility.yul\":3099:3129   */\n      mstore\n        /* \"#utility.yul\":3165:3198   */\n      0x5265656e7472616e637947756172643a207265656e7472616e742063616c6c00\n        /* \"#utility.yul\":3145:3163   */\n      0x44\n      dup3\n      add\n        /* \"#utility.yul\":3138:3199   */\n      mstore\n        /* \"#utility.yul\":3216:3234   */\n      0x64\n      add\n        /* \"@openzeppelin/contracts/security/ReentrancyGuard.sol\":2317:2380  require(_status != _ENTERED, \"ReentrancyGuard: reentrant call\") */\n      tag_115\n        /* \"#utility.yul\":2885:3240   */\n      jump\n        /* \"@openzeppelin/contracts/security/ReentrancyGuard.sol\":2317:2380  require(_status != _ENTERED, \"ReentrancyGuard: reentrant call\") */\n    tag_128:\n        /* \"@openzeppelin/contracts/security/ReentrancyGuard.sol\":1744:1745  2 */\n      0x02\n        /* \"@openzeppelin/contracts/security/ReentrancyGuard.sol\":2455:2462  _status */\n      0x01\n        /* \"@openzeppelin/contracts/security/ReentrancyGuard.sol\":2455:2473  _status = _ENTERED */\n      dup2\n      dup2\n      sstore\n        /* \"MintNagaKids.sol\":1097:1112  isWhitelistOpen */\n      swap1\n      sload\n      shl(0xa8, 0x01)\n      swap1\n      div\n      0xff\n      and\n        /* \"MintNagaKids.sol\":1097:1120  isWhitelistOpen == true */\n      iszero\n      iszero\n      eq\n        /* \"MintNagaKids.sol\":1089:1152  require(isWhitelistOpen == true, \"Whitelist not open to mint.\") */\n      tag_132\n      jumpi\n      mload(0x40)\n      shl(0xe5, 0x461bcd)\n      dup2\n      mstore\n        /* \"#utility.yul\":3447:3449   */\n      0x20\n        /* \"MintNagaKids.sol\":1089:1152  require(isWhitelistOpen == true, \"Whitelist not open to mint.\") */\n      0x04\n      dup3\n      add\n        /* \"#utility.yul\":3429:3450   */\n      mstore\n        /* \"#utility.yul\":3486:3488   */\n      0x1b\n        /* \"#utility.yul\":3466:3484   */\n      0x24\n      dup3\n      add\n        /* \"#utility.yul\":3459:3489   */\n      mstore\n        /* \"#utility.yul\":3525:3554   */\n      0x57686974656c697374206e6f74206f70656e20746f206d696e742e0000000000\n        /* \"#utility.yul\":3505:3523   */\n      0x44\n      dup3\n      add\n        /* \"#utility.yul\":3498:3555   */\n      mstore\n        /* \"#utility.yul\":3572:3590   */\n      0x64\n      add\n        /* \"MintNagaKids.sol\":1089:1152  require(isWhitelistOpen == true, \"Whitelist not open to mint.\") */\n      tag_115\n        /* \"#utility.yul\":3245:3596   */\n      jump\n        /* \"MintNagaKids.sol\":1089:1152  require(isWhitelistOpen == true, \"Whitelist not open to mint.\") */\n    tag_132:\n        /* \"MintNagaKids.sol\":1190:1194  1111 */\n      0x0457\n        /* \"MintNagaKids.sol\":1171:1187  getTotalSupply() */\n      tag_135\n        /* \"MintNagaKids.sol\":1171:1185  getTotalSupply */\n      tag_85\n        /* \"MintNagaKids.sol\":1171:1187  getTotalSupply() */\n      jump\t// in\n    tag_135:\n        /* \"MintNagaKids.sol\":1171:1194  getTotalSupply() < 1111 */\n      lt\n        /* \"MintNagaKids.sol\":1163:1210  require(getTotalSupply() < 1111, \"Over supply\") */\n      tag_136\n      jumpi\n      mload(0x40)\n      shl(0xe5, 0x461bcd)\n      dup2\n      mstore\n        /* \"#utility.yul\":3803:3805   */\n      0x20\n        /* \"MintNagaKids.sol\":1163:1210  require(getTotalSupply() < 1111, \"Over supply\") */\n      0x04\n      dup3\n      add\n        /* \"#utility.yul\":3785:3806   */\n      mstore\n        /* \"#utility.yul\":3842:3844   */\n      0x0b\n        /* \"#utility.yul\":3822:3840   */\n      0x24\n      dup3\n      add\n        /* \"#utility.yul\":3815:3845   */\n      mstore\n      shl(0xa8, 0x4f76657220737570706c79)\n        /* \"#utility.yul\":3861:3879   */\n      0x44\n      dup3\n      add\n        /* \"#utility.yul\":3854:3895   */\n      mstore\n        /* \"#utility.yul\":3912:3930   */\n      0x64\n      add\n        /* \"MintNagaKids.sol\":1163:1210  require(getTotalSupply() < 1111, \"Over supply\") */\n      tag_115\n        /* \"#utility.yul\":3601:3936   */\n      jump\n        /* \"MintNagaKids.sol\":1163:1210  require(getTotalSupply() < 1111, \"Over supply\") */\n    tag_136:\n        /* \"@openzeppelin/contracts/security/ReentrancyGuard.sol\":1701:1702  1 */\n      0x01\n        /* \"@openzeppelin/contracts/security/ReentrancyGuard.sol\":2628:2650  _status = _NOT_ENTERED */\n      dup1\n      sstore\n        /* \"MintNagaKids.sol\":1025:1218  function whitelistMint() public payable nonReentrant {... */\n      jump\t// out\n        /* \"@openzeppelin/contracts/access/AccessControl.sol\":2895:3040  function hasRole(bytes32 role, address account) public view virtual override returns (bool) {... */\n    tag_69:\n        /* \"@openzeppelin/contracts/access/AccessControl.sol\":2981:2985  bool */\n      0x00\n        /* \"@openzeppelin/contracts/access/AccessControl.sol\":3004:3016  _roles[role] */\n      swap2\n      dup3\n      mstore\n      0x20\n      dup3\n      dup2\n      mstore\n      0x40\n      dup1\n      dup5\n      keccak256\n      sub(shl(0xa0, 0x01), 0x01)\n        /* \"@openzeppelin/contracts/access/AccessControl.sol\":3004:3033  _roles[role].members[account] */\n      swap4\n      swap1\n      swap4\n      and\n      dup5\n      mstore\n      swap2\n      swap1\n      mstore\n      swap1\n      keccak256\n      sload\n      0xff\n      and\n      swap1\n        /* \"@openzeppelin/contracts/access/AccessControl.sol\":2895:3040  function hasRole(bytes32 role, address account) public view virtual override returns (bool) {... */\n      jump\t// out\n        /* \"MintNagaKids.sol\":1226:1338  function getTotalSupply() public view returns (uint256) {... */\n    tag_85:\n        /* \"MintNagaKids.sol\":1300:1316  nagaKidsContract */\n      sload(0x02)\n        /* \"MintNagaKids.sol\":1300:1330  nagaKidsContract.totalSupply() */\n      0x40\n      dup1\n      mload\n      shl(0xe0, 0x18160ddd)\n      dup2\n      mstore\n      swap1\n      mload\n        /* \"MintNagaKids.sol\":1273:1280  uint256 */\n      0x00\n      swap3\n      sub(shl(0xa0, 0x01), 0x01)\n        /* \"MintNagaKids.sol\":1300:1316  nagaKidsContract */\n      and\n      swap2\n        /* \"MintNagaKids.sol\":1300:1328  nagaKidsContract.totalSupply */\n      0x18160ddd\n      swap2\n        /* \"MintNagaKids.sol\":1300:1330  nagaKidsContract.totalSupply() */\n      0x04\n      dup1\n      dup4\n      add\n      swap3\n      0x20\n      swap3\n      swap2\n      swap1\n      dup3\n      swap1\n      sub\n      add\n      dup2\n        /* \"MintNagaKids.sol\":1300:1316  nagaKidsContract */\n      dup7\n        /* \"MintNagaKids.sol\":1300:1330  nagaKidsContract.totalSupply() */\n      gas\n      staticcall\n      iszero\n      dup1\n      iszero\n      tag_121\n      jumpi\n      returndatasize\n      0x00\n      dup1\n      returndatacopy\n      revert(0x00, returndatasize)\n        /* \"@openzeppelin/contracts/access/AccessControl.sol\":5149:5296  function revokeRole(bytes32 role, address account) public virtual override onlyRole(getRoleAdmin(role)) {... */\n    tag_90:\n        /* \"@openzeppelin/contracts/access/AccessControl.sol\":4465:4472  bytes32 */\n      0x00\n        /* \"@openzeppelin/contracts/access/AccessControl.sol\":4491:4503  _roles[role] */\n      dup3\n      dup2\n      mstore\n      0x20\n      dup2\n      swap1\n      mstore\n      0x40\n      swap1\n      keccak256\n        /* \"@openzeppelin/contracts/access/AccessControl.sol\":4491:4513  _roles[role].adminRole */\n      0x01\n      add\n      sload\n        /* \"@openzeppelin/contracts/access/AccessControl.sol\":2505:2521  _checkRole(role) */\n      tag_146\n        /* \"@openzeppelin/contracts/access/AccessControl.sol\":2516:2520  role */\n      dup2\n        /* \"@openzeppelin/contracts/access/AccessControl.sol\":2505:2515  _checkRole */\n      tag_103\n        /* \"@openzeppelin/contracts/access/AccessControl.sol\":2505:2521  _checkRole(role) */\n      jump\t// in\n    tag_146:\n        /* \"@openzeppelin/contracts/access/AccessControl.sol\":5263:5289  _revokeRole(role, account) */\n      tag_109\n        /* \"@openzeppelin/contracts/access/AccessControl.sol\":5275:5279  role */\n      dup4\n        /* \"@openzeppelin/contracts/access/AccessControl.sol\":5281:5288  account */\n      dup4\n        /* \"@openzeppelin/contracts/access/AccessControl.sol\":5263:5274  _revokeRole */\n      tag_118\n        /* \"@openzeppelin/contracts/access/AccessControl.sol\":5263:5289  _revokeRole(role, account) */\n      jump\t// in\n        /* \"MintNagaKids.sol\":715:865  function changeWhitelistMintOpen(bool _isOpen)... */\n    tag_94:\n        /* \"@openzeppelin/contracts/access/AccessControl.sol\":2072:2076  0x00 */\n      0x00\n        /* \"@openzeppelin/contracts/access/AccessControl.sol\":2505:2521  _checkRole(role) */\n      tag_150\n        /* \"@openzeppelin/contracts/access/AccessControl.sol\":2072:2076  0x00 */\n      dup2\n        /* \"@openzeppelin/contracts/access/AccessControl.sol\":2505:2515  _checkRole */\n      tag_103\n        /* \"@openzeppelin/contracts/access/AccessControl.sol\":2505:2521  _checkRole(role) */\n      jump\t// in\n    tag_150:\n      pop\n        /* \"MintNagaKids.sol\":832:847  isWhitelistOpen */\n      0x02\n        /* \"MintNagaKids.sol\":832:857  isWhitelistOpen = _isOpen */\n      dup1\n      sload\n      swap2\n      iszero\n      iszero\n      shl(0xa8, 0x01)\n      mul\n      not(shl(0xa8, 0xff))\n      swap1\n      swap3\n      and\n      swap2\n      swap1\n      swap2\n      or\n      swap1\n      sstore\n        /* \"MintNagaKids.sol\":715:865  function changeWhitelistMintOpen(bool _isOpen)... */\n      jump\t// out\n        /* \"@openzeppelin/contracts/utils/Strings.sol\":1588:2029  function toHexString(uint256 value, uint256 length) internal pure returns (string memory) {... */\n    tag_95:\n        /* \"@openzeppelin/contracts/utils/Strings.sol\":1663:1676  string memory */\n      0x60\n        /* \"@openzeppelin/contracts/utils/Strings.sol\":1688:1707  bytes memory buffer */\n      0x00\n        /* \"@openzeppelin/contracts/utils/Strings.sol\":1720:1730  2 * length */\n      tag_153\n        /* \"@openzeppelin/contracts/utils/Strings.sol\":1724:1730  length */\n      dup4\n        /* \"@openzeppelin/contracts/utils/Strings.sol\":1720:1721  2 */\n      0x02\n        /* \"@openzeppelin/contracts/utils/Strings.sol\":1720:1730  2 * length */\n      tag_154\n      jump\t// in\n    tag_153:\n        /* \"@openzeppelin/contracts/utils/Strings.sol\":1720:1734  2 * length + 2 */\n      tag_155\n      swap1\n        /* \"@openzeppelin/contracts/utils/Strings.sol\":1733:1734  2 */\n      0x02\n        /* \"@openzeppelin/contracts/utils/Strings.sol\":1720:1734  2 * length + 2 */\n      tag_156\n      jump\t// in\n    tag_155:\n        /* \"@openzeppelin/contracts/utils/Strings.sol\":1710:1735  new bytes(2 * length + 2) */\n      0xffffffffffffffff\n      dup2\n      gt\n      iszero\n      tag_158\n      jumpi\n      tag_158\n      tag_159\n      jump\t// in\n    tag_158:\n      mload(0x40)\n      swap1\n      dup1\n      dup3\n      mstore\n      dup1\n      0x1f\n      add\n      not(0x1f)\n      and\n      0x20\n      add\n      dup3\n      add\n      0x40\n      mstore\n      dup1\n      iszero\n      tag_160\n      jumpi\n      0x20\n      dup3\n      add\n      dup2\n      dup1\n      calldatasize\n      dup4\n      calldatacopy\n      add\n      swap1\n      pop\n    tag_160:\n      pop\n        /* \"@openzeppelin/contracts/utils/Strings.sol\":1688:1735  bytes memory buffer = new bytes(2 * length + 2) */\n      swap1\n      pop\n      shl(0xfc, 0x03)\n        /* \"@openzeppelin/contracts/utils/Strings.sol\":1745:1751  buffer */\n      dup2\n        /* \"@openzeppelin/contracts/utils/Strings.sol\":1752:1753  0 */\n      0x00\n        /* \"@openzeppelin/contracts/utils/Strings.sol\":1745:1754  buffer[0] */\n      dup2\n      mload\n      dup2\n      lt\n      tag_162\n      jumpi\n      tag_162\n      tag_163\n      jump\t// in\n    tag_162:\n      0x20\n      add\n      add\n        /* \"@openzeppelin/contracts/utils/Strings.sol\":1745:1760  buffer[0] = \"0\" */\n      swap1\n      not(sub(shl(0xf8, 0x01), 0x01))\n      and\n      swap1\n      dup2\n      0x00\n      byte\n      swap1\n      mstore8\n      pop\n      shl(0xfb, 0x0f)\n        /* \"@openzeppelin/contracts/utils/Strings.sol\":1770:1776  buffer */\n      dup2\n        /* \"@openzeppelin/contracts/utils/Strings.sol\":1777:1778  1 */\n      0x01\n        /* \"@openzeppelin/contracts/utils/Strings.sol\":1770:1779  buffer[1] */\n      dup2\n      mload\n      dup2\n      lt\n      tag_165\n      jumpi\n      tag_165\n      tag_163\n      jump\t// in\n    tag_165:\n      0x20\n      add\n      add\n        /* \"@openzeppelin/contracts/utils/Strings.sol\":1770:1785  buffer[1] = \"x\" */\n      swap1\n      not(sub(shl(0xf8, 0x01), 0x01))\n      and\n      swap1\n      dup2\n      0x00\n      byte\n      swap1\n      mstore8\n      pop\n        /* \"@openzeppelin/contracts/utils/Strings.sol\":1800:1809  uint256 i */\n      0x00\n        /* \"@openzeppelin/contracts/utils/Strings.sol\":1812:1822  2 * length */\n      tag_169\n        /* \"@openzeppelin/contracts/utils/Strings.sol\":1816:1822  length */\n      dup5\n        /* \"@openzeppelin/contracts/utils/Strings.sol\":1812:1813  2 */\n      0x02\n        /* \"@openzeppelin/contracts/utils/Strings.sol\":1812:1822  2 * length */\n      tag_154\n      jump\t// in\n    tag_169:\n        /* \"@openzeppelin/contracts/utils/Strings.sol\":1812:1826  2 * length + 1 */\n      tag_170\n      swap1\n        /* \"@openzeppelin/contracts/utils/Strings.sol\":1825:1826  1 */\n      0x01\n        /* \"@openzeppelin/contracts/utils/Strings.sol\":1812:1826  2 * length + 1 */\n      tag_156\n      jump\t// in\n    tag_170:\n        /* \"@openzeppelin/contracts/utils/Strings.sol\":1800:1826  uint256 i = 2 * length + 1 */\n      swap1\n      pop\n        /* \"@openzeppelin/contracts/utils/Strings.sol\":1795:1927  for (uint256 i = 2 * length + 1; i > 1; --i) {... */\n    tag_166:\n        /* \"@openzeppelin/contracts/utils/Strings.sol\":1832:1833  1 */\n      0x01\n        /* \"@openzeppelin/contracts/utils/Strings.sol\":1828:1829  i */\n      dup2\n        /* \"@openzeppelin/contracts/utils/Strings.sol\":1828:1833  i > 1 */\n      gt\n        /* \"@openzeppelin/contracts/utils/Strings.sol\":1795:1927  for (uint256 i = 2 * length + 1; i > 1; --i) {... */\n      iszero\n      tag_167\n      jumpi\n      shl(0x81, 0x181899199a1a9b1b9c1cb0b131b232b3)\n        /* \"@openzeppelin/contracts/utils/Strings.sol\":1879:1884  value */\n      dup6\n        /* \"@openzeppelin/contracts/utils/Strings.sol\":1887:1890  0xf */\n      0x0f\n        /* \"@openzeppelin/contracts/utils/Strings.sol\":1879:1890  value & 0xf */\n      and\n        /* \"@openzeppelin/contracts/utils/Strings.sol\":1866:1891  _HEX_SYMBOLS[value & 0xf] */\n      0x10\n      dup2\n      lt\n      tag_172\n      jumpi\n      tag_172\n      tag_163\n      jump\t// in\n    tag_172:\n      byte\n      0xf8\n      shl\n        /* \"@openzeppelin/contracts/utils/Strings.sol\":1854:1860  buffer */\n      dup3\n        /* \"@openzeppelin/contracts/utils/Strings.sol\":1861:1862  i */\n      dup3\n        /* \"@openzeppelin/contracts/utils/Strings.sol\":1854:1863  buffer[i] */\n      dup2\n      mload\n      dup2\n      lt\n      tag_174\n      jumpi\n      tag_174\n      tag_163\n      jump\t// in\n    tag_174:\n      0x20\n      add\n      add\n        /* \"@openzeppelin/contracts/utils/Strings.sol\":1854:1891  buffer[i] = _HEX_SYMBOLS[value & 0xf] */\n      swap1\n      not(sub(shl(0xf8, 0x01), 0x01))\n      and\n      swap1\n      dup2\n      0x00\n      byte\n      swap1\n      mstore8\n      pop\n        /* \"@openzeppelin/contracts/utils/Strings.sol\":1915:1916  4 */\n      0x04\n        /* \"@openzeppelin/contracts/utils/Strings.sol\":1905:1916  value >>= 4 */\n      swap5\n      swap1\n      swap5\n      shr\n      swap4\n        /* \"@openzeppelin/contracts/utils/Strings.sol\":1835:1838  --i */\n      tag_175\n      dup2\n      tag_176\n      jump\t// in\n    tag_175:\n      swap1\n      pop\n        /* \"@openzeppelin/contracts/utils/Strings.sol\":1795:1927  for (uint256 i = 2 * length + 1; i > 1; --i) {... */\n      jump(tag_166)\n    tag_167:\n      pop\n        /* \"@openzeppelin/contracts/utils/Strings.sol\":1944:1954  value == 0 */\n      dup4\n      iszero\n        /* \"@openzeppelin/contracts/utils/Strings.sol\":1936:1991  require(value == 0, \"Strings: hex length insufficient\") */\n      tag_177\n      jumpi\n      mload(0x40)\n      shl(0xe5, 0x461bcd)\n      dup2\n      mstore\n        /* \"#utility.yul\":4986:4988   */\n      0x20\n        /* \"@openzeppelin/contracts/utils/Strings.sol\":1936:1991  require(value == 0, \"Strings: hex length insufficient\") */\n      0x04\n      dup3\n      add\n        /* \"#utility.yul\":4968:4989   */\n      dup2\n      swap1\n      mstore\n        /* \"#utility.yul\":5005:5023   */\n      0x24\n      dup3\n      add\n        /* \"#utility.yul\":4998:5028   */\n      mstore\n        /* \"#utility.yul\":5064:5098   */\n      0x537472696e67733a20686578206c656e67746820696e73756666696369656e74\n        /* \"#utility.yul\":5044:5062   */\n      0x44\n      dup3\n      add\n        /* \"#utility.yul\":5037:5099   */\n      mstore\n        /* \"#utility.yul\":5116:5134   */\n      0x64\n      add\n        /* \"@openzeppelin/contracts/utils/Strings.sol\":1936:1991  require(value == 0, \"Strings: hex length insufficient\") */\n      tag_115\n        /* \"#utility.yul\":4784:5140   */\n      jump\n        /* \"@openzeppelin/contracts/utils/Strings.sol\":1936:1991  require(value == 0, \"Strings: hex length insufficient\") */\n    tag_177:\n        /* \"@openzeppelin/contracts/utils/Strings.sol\":2015:2021  buffer */\n      swap4\n        /* \"@openzeppelin/contracts/utils/Strings.sol\":1588:2029  function toHexString(uint256 value, uint256 length) internal pure returns (string memory) {... */\n      swap3\n      pop\n      pop\n      pop\n      jump\t// out\n        /* \"@openzeppelin/contracts/access/AccessControl.sol\":3334:3437  function _checkRole(bytes32 role) internal view virtual {... */\n    tag_103:\n        /* \"@openzeppelin/contracts/access/AccessControl.sol\":3400:3430  _checkRole(role, _msgSender()) */\n      tag_182\n        /* \"@openzeppelin/contracts/access/AccessControl.sol\":3411:3415  role */\n      dup2\n        /* \"@openzeppelin/contracts/utils/Context.sol\":719:729  msg.sender */\n      caller\n        /* \"@openzeppelin/contracts/access/AccessControl.sol\":3400:3410  _checkRole */\n      tag_184\n        /* \"@openzeppelin/contracts/access/AccessControl.sol\":3400:3430  _checkRole(role, _msgSender()) */\n      jump\t// in\n    tag_182:\n        /* \"@openzeppelin/contracts/access/AccessControl.sol\":3334:3437  function _checkRole(bytes32 role) internal view virtual {... */\n      pop\n      jump\t// out\n        /* \"@openzeppelin/contracts/access/AccessControl.sol\":7244:7477  function _grantRole(bytes32 role, address account) internal virtual {... */\n    tag_110:\n        /* \"@openzeppelin/contracts/access/AccessControl.sol\":7327:7349  hasRole(role, account) */\n      tag_186\n        /* \"@openzeppelin/contracts/access/AccessControl.sol\":7335:7339  role */\n      dup3\n        /* \"@openzeppelin/contracts/access/AccessControl.sol\":7341:7348  account */\n      dup3\n        /* \"@openzeppelin/contracts/access/AccessControl.sol\":7327:7334  hasRole */\n      tag_69\n        /* \"@openzeppelin/contracts/access/AccessControl.sol\":7327:7349  hasRole(role, account) */\n      jump\t// in\n    tag_186:\n        /* \"@openzeppelin/contracts/access/AccessControl.sol\":7322:7471  if (!hasRole(role, account)) {... */\n      tag_117\n      jumpi\n        /* \"@openzeppelin/contracts/access/AccessControl.sol\":7365:7371  _roles */\n      0x00\n        /* \"@openzeppelin/contracts/access/AccessControl.sol\":7365:7377  _roles[role] */\n      dup3\n      dup2\n      mstore\n      0x20\n      dup2\n      dup2\n      mstore\n      0x40\n      dup1\n      dup4\n      keccak256\n      sub(shl(0xa0, 0x01), 0x01)\n        /* \"@openzeppelin/contracts/access/AccessControl.sol\":7365:7394  _roles[role].members[account] */\n      dup6\n      and\n      dup5\n      mstore\n      swap1\n      swap2\n      mstore\n      swap1\n      keccak256\n        /* \"@openzeppelin/contracts/access/AccessControl.sol\":7365:7401  _roles[role].members[account] = true */\n      dup1\n      sload\n      not(0xff)\n      and\n        /* \"@openzeppelin/contracts/access/AccessControl.sol\":7397:7401  true */\n      0x01\n        /* \"@openzeppelin/contracts/access/AccessControl.sol\":7365:7401  _roles[role].members[account] = true */\n      or\n      swap1\n      sstore\n        /* \"@openzeppelin/contracts/access/AccessControl.sol\":7447:7459  _msgSender() */\n      tag_188\n        /* \"@openzeppelin/contracts/utils/Context.sol\":719:729  msg.sender */\n      caller\n      swap1\n        /* \"@openzeppelin/contracts/utils/Context.sol\":640:736  function _msgSender() internal view virtual returns (address) {... */\n      jump\n        /* \"@openzeppelin/contracts/access/AccessControl.sol\":7447:7459  _msgSender() */\n    tag_188:\n      sub(shl(0xa0, 0x01), 0x01)\n        /* \"@openzeppelin/contracts/access/AccessControl.sol\":7420:7460  RoleGranted(role, account, _msgSender()) */\n      and\n        /* \"@openzeppelin/contracts/access/AccessControl.sol\":7438:7445  account */\n      dup2\n      sub(shl(0xa0, 0x01), 0x01)\n        /* \"@openzeppelin/contracts/access/AccessControl.sol\":7420:7460  RoleGranted(role, account, _msgSender()) */\n      and\n        /* \"@openzeppelin/contracts/access/AccessControl.sol\":7432:7436  role */\n      dup4\n        /* \"@openzeppelin/contracts/access/AccessControl.sol\":7420:7460  RoleGranted(role, account, _msgSender()) */\n      0x2f8788117e7eff1d82e926ec794901d17c78024a50270940304540a733656f0d\n      mload(0x40)\n      mload(0x40)\n      dup1\n      swap2\n      sub\n      swap1\n      log4\n        /* \"@openzeppelin/contracts/access/AccessControl.sol\":7244:7477  function _grantRole(bytes32 role, address account) internal virtual {... */\n      pop\n      pop\n      jump\t// out\n        /* \"@openzeppelin/contracts/access/AccessControl.sol\":7602:7836  function _revokeRole(bytes32 role, address account) internal virtual {... */\n    tag_118:\n        /* \"@openzeppelin/contracts/access/AccessControl.sol\":7685:7707  hasRole(role, account) */\n      tag_191\n        /* \"@openzeppelin/contracts/access/AccessControl.sol\":7693:7697  role */\n      dup3\n        /* \"@openzeppelin/contracts/access/AccessControl.sol\":7699:7706  account */\n      dup3\n        /* \"@openzeppelin/contracts/access/AccessControl.sol\":7685:7692  hasRole */\n      tag_69\n        /* \"@openzeppelin/contracts/access/AccessControl.sol\":7685:7707  hasRole(role, account) */\n      jump\t// in\n    tag_191:\n        /* \"@openzeppelin/contracts/access/AccessControl.sol\":7681:7830  if (hasRole(role, account)) {... */\n      iszero\n      tag_117\n      jumpi\n        /* \"@openzeppelin/contracts/access/AccessControl.sol\":7755:7760  false */\n      0x00\n        /* \"@openzeppelin/contracts/access/AccessControl.sol\":7723:7735  _roles[role] */\n      dup3\n      dup2\n      mstore\n      0x20\n      dup2\n      dup2\n      mstore\n      0x40\n      dup1\n      dup4\n      keccak256\n      sub(shl(0xa0, 0x01), 0x01)\n        /* \"@openzeppelin/contracts/access/AccessControl.sol\":7723:7752  _roles[role].members[account] */\n      dup6\n      and\n      dup1\n      dup6\n      mstore\n      swap3\n      mstore\n      dup1\n      dup4\n      keccak256\n        /* \"@openzeppelin/contracts/access/AccessControl.sol\":7723:7760  _roles[role].members[account] = false */\n      dup1\n      sload\n      not(0xff)\n      and\n      swap1\n      sstore\n        /* \"@openzeppelin/contracts/access/AccessControl.sol\":7779:7819  RoleRevoked(role, account, _msgSender()) */\n      mload\n        /* \"@openzeppelin/contracts/utils/Context.sol\":719:729  msg.sender */\n      caller\n      swap3\n        /* \"@openzeppelin/contracts/access/AccessControl.sol\":7723:7735  _roles[role] */\n      dup6\n      swap2\n        /* \"@openzeppelin/contracts/access/AccessControl.sol\":7779:7819  RoleRevoked(role, account, _msgSender()) */\n      0xf6391f5c32d9c69d2a47ea670b442974b53935d1edc7fd64eb21e047a839171b\n      swap2\n        /* \"@openzeppelin/contracts/access/AccessControl.sol\":7755:7760  false */\n      swap1\n        /* \"@openzeppelin/contracts/access/AccessControl.sol\":7779:7819  RoleRevoked(role, account, _msgSender()) */\n      log4\n        /* \"@openzeppelin/contracts/access/AccessControl.sol\":7602:7836  function _revokeRole(bytes32 role, address account) internal virtual {... */\n      pop\n      pop\n      jump\t// out\n        /* \"@openzeppelin/contracts/access/AccessControl.sol\":3718:4210  function _checkRole(bytes32 role, address account) internal view virtual {... */\n    tag_184:\n        /* \"@openzeppelin/contracts/access/AccessControl.sol\":3806:3828  hasRole(role, account) */\n      tag_195\n        /* \"@openzeppelin/contracts/access/AccessControl.sol\":3814:3818  role */\n      dup3\n        /* \"@openzeppelin/contracts/access/AccessControl.sol\":3820:3827  account */\n      dup3\n        /* \"@openzeppelin/contracts/access/AccessControl.sol\":3806:3813  hasRole */\n      tag_69\n        /* \"@openzeppelin/contracts/access/AccessControl.sol\":3806:3828  hasRole(role, account) */\n      jump\t// in\n    tag_195:\n        /* \"@openzeppelin/contracts/access/AccessControl.sol\":3801:4204  if (!hasRole(role, account)) {... */\n      tag_117\n      jumpi\n        /* \"@openzeppelin/contracts/access/AccessControl.sol\":3989:4030  Strings.toHexString(uint160(account), 20) */\n      tag_197\n        /* \"@openzeppelin/contracts/access/AccessControl.sol\":4017:4024  account */\n      dup2\n      sub(shl(0xa0, 0x01), 0x01)\n        /* \"@openzeppelin/contracts/access/AccessControl.sol\":3989:4030  Strings.toHexString(uint160(account), 20) */\n      and\n        /* \"@openzeppelin/contracts/access/AccessControl.sol\":4027:4029  20 */\n      0x14\n        /* \"@openzeppelin/contracts/access/AccessControl.sol\":3989:4008  Strings.toHexString */\n      tag_95\n        /* \"@openzeppelin/contracts/access/AccessControl.sol\":3989:4030  Strings.toHexString(uint160(account), 20) */\n      jump\t// in\n    tag_197:\n        /* \"@openzeppelin/contracts/access/AccessControl.sol\":4101:4139  Strings.toHexString(uint256(role), 32) */\n      tag_198\n        /* \"@openzeppelin/contracts/access/AccessControl.sol\":4129:4133  role */\n      dup4\n        /* \"@openzeppelin/contracts/access/AccessControl.sol\":4136:4138  32 */\n      0x20\n        /* \"@openzeppelin/contracts/access/AccessControl.sol\":4101:4120  Strings.toHexString */\n      tag_95\n        /* \"@openzeppelin/contracts/access/AccessControl.sol\":4101:4139  Strings.toHexString(uint256(role), 32) */\n      jump\t// in\n    tag_198:\n        /* \"@openzeppelin/contracts/access/AccessControl.sol\":3896:4161  abi.encodePacked(... */\n      add(0x20, mload(0x40))\n      tag_199\n      swap3\n      swap2\n      swap1\n      tag_200\n      jump\t// in\n    tag_199:\n      0x40\n      dup1\n      mload\n      not(0x1f)\n      dup2\n      dup5\n      sub\n      add\n      dup2\n      mstore\n      swap1\n      dup3\n      swap1\n      mstore\n      shl(0xe5, 0x461bcd)\n        /* \"@openzeppelin/contracts/access/AccessControl.sol\":3844:4193  revert(... */\n      dup3\n      mstore\n      tag_115\n      swap2\n      0x04\n      add\n      tag_202\n      jump\t// in\n        /* \"#utility.yul\":14:300   */\n    tag_24:\n        /* \"#utility.yul\":72:78   */\n      0x00\n        /* \"#utility.yul\":125:127   */\n      0x20\n        /* \"#utility.yul\":113:122   */\n      dup3\n        /* \"#utility.yul\":104:111   */\n      dup5\n        /* \"#utility.yul\":100:123   */\n      sub\n        /* \"#utility.yul\":96:128   */\n      slt\n        /* \"#utility.yul\":93:145   */\n      iszero\n      tag_208\n      jumpi\n        /* \"#utility.yul\":141:142   */\n      0x00\n        /* \"#utility.yul\":138:139   */\n      dup1\n        /* \"#utility.yul\":131:143   */\n      revert\n        /* \"#utility.yul\":93:145   */\n    tag_208:\n        /* \"#utility.yul\":167:190   */\n      dup2\n      calldataload\n      not(sub(shl(0xe0, 0x01), 0x01))\n        /* \"#utility.yul\":219:251   */\n      dup2\n      and\n        /* \"#utility.yul\":209:252   */\n      dup2\n      eq\n        /* \"#utility.yul\":199:270   */\n      tag_177\n      jumpi\n        /* \"#utility.yul\":266:267   */\n      0x00\n        /* \"#utility.yul\":263:264   */\n      dup1\n        /* \"#utility.yul\":256:268   */\n      revert\n        /* \"#utility.yul\":497:677   */\n    tag_31:\n        /* \"#utility.yul\":556:562   */\n      0x00\n        /* \"#utility.yul\":609:611   */\n      0x20\n        /* \"#utility.yul\":597:606   */\n      dup3\n        /* \"#utility.yul\":588:595   */\n      dup5\n        /* \"#utility.yul\":584:607   */\n      sub\n        /* \"#utility.yul\":580:612   */\n      slt\n        /* \"#utility.yul\":577:629   */\n      iszero\n      tag_212\n      jumpi\n        /* \"#utility.yul\":625:626   */\n      0x00\n        /* \"#utility.yul\":622:623   */\n      dup1\n        /* \"#utility.yul\":615:627   */\n      revert\n        /* \"#utility.yul\":577:629   */\n    tag_212:\n      pop\n        /* \"#utility.yul\":648:671   */\n      calldataload\n      swap2\n        /* \"#utility.yul\":497:677   */\n      swap1\n      pop\n      jump\t// out\n        /* \"#utility.yul\":1092:1365   */\n    tag_43:\n        /* \"#utility.yul\":1148:1154   */\n      0x00\n        /* \"#utility.yul\":1201:1203   */\n      0x20\n        /* \"#utility.yul\":1189:1198   */\n      dup3\n        /* \"#utility.yul\":1180:1187   */\n      dup5\n        /* \"#utility.yul\":1176:1199   */\n      sub\n        /* \"#utility.yul\":1172:1204   */\n      slt\n        /* \"#utility.yul\":1169:1221   */\n      iszero\n      tag_216\n      jumpi\n        /* \"#utility.yul\":1217:1218   */\n      0x00\n        /* \"#utility.yul\":1214:1215   */\n      dup1\n        /* \"#utility.yul\":1207:1219   */\n      revert\n        /* \"#utility.yul\":1169:1221   */\n    tag_216:\n        /* \"#utility.yul\":1256:1265   */\n      dup2\n        /* \"#utility.yul\":1243:1266   */\n      calldataload\n        /* \"#utility.yul\":1309:1314   */\n      dup1\n        /* \"#utility.yul\":1302:1315   */\n      iszero\n        /* \"#utility.yul\":1295:1316   */\n      iszero\n        /* \"#utility.yul\":1288:1293   */\n      dup2\n        /* \"#utility.yul\":1285:1317   */\n      eq\n        /* \"#utility.yul\":1275:1335   */\n      tag_177\n      jumpi\n        /* \"#utility.yul\":1331:1332   */\n      0x00\n        /* \"#utility.yul\":1328:1329   */\n      dup1\n        /* \"#utility.yul\":1321:1333   */\n      revert\n        /* \"#utility.yul\":1370:1501   */\n    tag_203:\n      sub(shl(0xa0, 0x01), 0x01)\n        /* \"#utility.yul\":1445:1476   */\n      dup2\n      and\n        /* \"#utility.yul\":1435:1477   */\n      dup2\n      eq\n        /* \"#utility.yul\":1425:1495   */\n      tag_182\n      jumpi\n        /* \"#utility.yul\":1491:1492   */\n      0x00\n        /* \"#utility.yul\":1488:1489   */\n      dup1\n        /* \"#utility.yul\":1481:1493   */\n      revert\n        /* \"#utility.yul\":1506:1821   */\n    tag_48:\n        /* \"#utility.yul\":1574:1580   */\n      0x00\n        /* \"#utility.yul\":1582:1588   */\n      dup1\n        /* \"#utility.yul\":1635:1637   */\n      0x40\n        /* \"#utility.yul\":1623:1632   */\n      dup4\n        /* \"#utility.yul\":1614:1621   */\n      dup6\n        /* \"#utility.yul\":1610:1633   */\n      sub\n        /* \"#utility.yul\":1606:1638   */\n      slt\n        /* \"#utility.yul\":1603:1655   */\n      iszero\n      tag_221\n      jumpi\n        /* \"#utility.yul\":1651:1652   */\n      0x00\n        /* \"#utility.yul\":1648:1649   */\n      dup1\n        /* \"#utility.yul\":1641:1653   */\n      revert\n        /* \"#utility.yul\":1603:1655   */\n    tag_221:\n        /* \"#utility.yul\":1687:1696   */\n      dup3\n        /* \"#utility.yul\":1674:1697   */\n      calldataload\n        /* \"#utility.yul\":1664:1697   */\n      swap2\n      pop\n        /* \"#utility.yul\":1747:1749   */\n      0x20\n        /* \"#utility.yul\":1736:1745   */\n      dup4\n        /* \"#utility.yul\":1732:1750   */\n      add\n        /* \"#utility.yul\":1719:1751   */\n      calldataload\n        /* \"#utility.yul\":1760:1791   */\n      tag_222\n        /* \"#utility.yul\":1785:1790   */\n      dup2\n        /* \"#utility.yul\":1760:1791   */\n      tag_203\n      jump\t// in\n    tag_222:\n        /* \"#utility.yul\":1810:1815   */\n      dup1\n        /* \"#utility.yul\":1800:1815   */\n      swap2\n      pop\n      pop\n        /* \"#utility.yul\":1506:1821   */\n      swap3\n      pop\n      swap3\n      swap1\n      pop\n      jump\t// out\n        /* \"#utility.yul\":2008:2275   */\n    tag_62:\n        /* \"#utility.yul\":2087:2093   */\n      0x00\n        /* \"#utility.yul\":2140:2142   */\n      0x20\n        /* \"#utility.yul\":2128:2137   */\n      dup3\n        /* \"#utility.yul\":2119:2126   */\n      dup5\n        /* \"#utility.yul\":2115:2138   */\n      sub\n        /* \"#utility.yul\":2111:2143   */\n      slt\n        /* \"#utility.yul\":2108:2160   */\n      iszero\n      tag_225\n      jumpi\n        /* \"#utility.yul\":2156:2157   */\n      0x00\n        /* \"#utility.yul\":2153:2154   */\n      dup1\n        /* \"#utility.yul\":2146:2158   */\n      revert\n        /* \"#utility.yul\":2108:2160   */\n    tag_225:\n        /* \"#utility.yul\":2195:2204   */\n      dup2\n        /* \"#utility.yul\":2182:2205   */\n      calldataload\n        /* \"#utility.yul\":2214:2245   */\n      tag_177\n        /* \"#utility.yul\":2239:2244   */\n      dup2\n        /* \"#utility.yul\":2214:2245   */\n      tag_203\n      jump\t// in\n        /* \"#utility.yul\":2696:2880   */\n    tag_123:\n        /* \"#utility.yul\":2766:2772   */\n      0x00\n        /* \"#utility.yul\":2819:2821   */\n      0x20\n        /* \"#utility.yul\":2807:2816   */\n      dup3\n        /* \"#utility.yul\":2798:2805   */\n      dup5\n        /* \"#utility.yul\":2794:2817   */\n      sub\n        /* \"#utility.yul\":2790:2822   */\n      slt\n        /* \"#utility.yul\":2787:2839   */\n      iszero\n      tag_229\n      jumpi\n        /* \"#utility.yul\":2835:2836   */\n      0x00\n        /* \"#utility.yul\":2832:2833   */\n      dup1\n        /* \"#utility.yul\":2825:2837   */\n      revert\n        /* \"#utility.yul\":2787:2839   */\n    tag_229:\n      pop\n        /* \"#utility.yul\":2858:2874   */\n      mload\n      swap2\n        /* \"#utility.yul\":2696:2880   */\n      swap1\n      pop\n      jump\t// out\n        /* \"#utility.yul\":3941:4068   */\n    tag_204:\n        /* \"#utility.yul\":4002:4012   */\n      0x4e487b71\n        /* \"#utility.yul\":3997:4000   */\n      0xe0\n        /* \"#utility.yul\":3993:4013   */\n      shl\n        /* \"#utility.yul\":3990:3991   */\n      0x00\n        /* \"#utility.yul\":3983:4014   */\n      mstore\n        /* \"#utility.yul\":4033:4037   */\n      0x11\n        /* \"#utility.yul\":4030:4031   */\n      0x04\n        /* \"#utility.yul\":4023:4038   */\n      mstore\n        /* \"#utility.yul\":4057:4061   */\n      0x24\n        /* \"#utility.yul\":4054:4055   */\n      0x00\n        /* \"#utility.yul\":4047:4062   */\n      revert\n        /* \"#utility.yul\":4073:4241   */\n    tag_154:\n        /* \"#utility.yul\":4113:4120   */\n      0x00\n        /* \"#utility.yul\":4179:4180   */\n      dup2\n        /* \"#utility.yul\":4175:4176   */\n      0x00\n        /* \"#utility.yul\":4171:4177   */\n      not\n        /* \"#utility.yul\":4167:4181   */\n      div\n        /* \"#utility.yul\":4164:4165   */\n      dup4\n        /* \"#utility.yul\":4161:4182   */\n      gt\n        /* \"#utility.yul\":4156:4157   */\n      dup3\n        /* \"#utility.yul\":4149:4158   */\n      iszero\n        /* \"#utility.yul\":4142:4159   */\n      iszero\n        /* \"#utility.yul\":4138:4183   */\n      and\n        /* \"#utility.yul\":4135:4206   */\n      iszero\n      tag_236\n      jumpi\n        /* \"#utility.yul\":4186:4204   */\n      tag_236\n      tag_204\n      jump\t// in\n    tag_236:\n      pop\n        /* \"#utility.yul\":4226:4235   */\n      mul\n      swap1\n        /* \"#utility.yul\":4073:4241   */\n      jump\t// out\n        /* \"#utility.yul\":4246:4374   */\n    tag_156:\n        /* \"#utility.yul\":4286:4289   */\n      0x00\n        /* \"#utility.yul\":4317:4318   */\n      dup3\n        /* \"#utility.yul\":4313:4319   */\n      not\n        /* \"#utility.yul\":4310:4311   */\n      dup3\n        /* \"#utility.yul\":4307:4320   */\n      gt\n        /* \"#utility.yul\":4304:4343   */\n      iszero\n      tag_239\n      jumpi\n        /* \"#utility.yul\":4323:4341   */\n      tag_239\n      tag_204\n      jump\t// in\n    tag_239:\n      pop\n        /* \"#utility.yul\":4359:4368   */\n      add\n      swap1\n        /* \"#utility.yul\":4246:4374   */\n      jump\t// out\n        /* \"#utility.yul\":4379:4506   */\n    tag_159:\n        /* \"#utility.yul\":4440:4450   */\n      0x4e487b71\n        /* \"#utility.yul\":4435:4438   */\n      0xe0\n        /* \"#utility.yul\":4431:4451   */\n      shl\n        /* \"#utility.yul\":4428:4429   */\n      0x00\n        /* \"#utility.yul\":4421:4452   */\n      mstore\n        /* \"#utility.yul\":4471:4475   */\n      0x41\n        /* \"#utility.yul\":4468:4469   */\n      0x04\n        /* \"#utility.yul\":4461:4476   */\n      mstore\n        /* \"#utility.yul\":4495:4499   */\n      0x24\n        /* \"#utility.yul\":4492:4493   */\n      0x00\n        /* \"#utility.yul\":4485:4500   */\n      revert\n        /* \"#utility.yul\":4511:4638   */\n    tag_163:\n        /* \"#utility.yul\":4572:4582   */\n      0x4e487b71\n        /* \"#utility.yul\":4567:4570   */\n      0xe0\n        /* \"#utility.yul\":4563:4583   */\n      shl\n        /* \"#utility.yul\":4560:4561   */\n      0x00\n        /* \"#utility.yul\":4553:4584   */\n      mstore\n        /* \"#utility.yul\":4603:4607   */\n      0x32\n        /* \"#utility.yul\":4600:4601   */\n      0x04\n        /* \"#utility.yul\":4593:4608   */\n      mstore\n        /* \"#utility.yul\":4627:4631   */\n      0x24\n        /* \"#utility.yul\":4624:4625   */\n      0x00\n        /* \"#utility.yul\":4617:4632   */\n      revert\n        /* \"#utility.yul\":4643:4779   */\n    tag_176:\n        /* \"#utility.yul\":4682:4685   */\n      0x00\n        /* \"#utility.yul\":4710:4715   */\n      dup2\n        /* \"#utility.yul\":4700:4739   */\n      tag_244\n      jumpi\n        /* \"#utility.yul\":4719:4737   */\n      tag_244\n      tag_204\n      jump\t// in\n    tag_244:\n      pop\n      not(0x00)\n        /* \"#utility.yul\":4755:4773   */\n      add\n      swap1\n        /* \"#utility.yul\":4643:4779   */\n      jump\t// out\n        /* \"#utility.yul\":5145:5403   */\n    tag_205:\n        /* \"#utility.yul\":5217:5218   */\n      0x00\n        /* \"#utility.yul\":5227:5340   */\n    tag_247:\n        /* \"#utility.yul\":5241:5247   */\n      dup4\n        /* \"#utility.yul\":5238:5239   */\n      dup2\n        /* \"#utility.yul\":5235:5248   */\n      lt\n        /* \"#utility.yul\":5227:5340   */\n      iszero\n      tag_249\n      jumpi\n        /* \"#utility.yul\":5317:5328   */\n      dup2\n      dup2\n      add\n        /* \"#utility.yul\":5311:5329   */\n      mload\n        /* \"#utility.yul\":5298:5309   */\n      dup4\n      dup3\n      add\n        /* \"#utility.yul\":5291:5330   */\n      mstore\n        /* \"#utility.yul\":5263:5265   */\n      0x20\n        /* \"#utility.yul\":5256:5266   */\n      add\n        /* \"#utility.yul\":5227:5340   */\n      jump(tag_247)\n    tag_249:\n        /* \"#utility.yul\":5358:5364   */\n      dup4\n        /* \"#utility.yul\":5355:5356   */\n      dup2\n        /* \"#utility.yul\":5352:5365   */\n      gt\n        /* \"#utility.yul\":5349:5397   */\n      iszero\n      tag_250\n      jumpi\n        /* \"#utility.yul\":5393:5394   */\n      0x00\n        /* \"#utility.yul\":5384:5390   */\n      dup5\n        /* \"#utility.yul\":5379:5382   */\n      dup5\n        /* \"#utility.yul\":5375:5391   */\n      add\n        /* \"#utility.yul\":5368:5395   */\n      mstore\n        /* \"#utility.yul\":5349:5397   */\n    tag_250:\n      pop\n        /* \"#utility.yul\":5145:5403   */\n      pop\n      pop\n      pop\n      jump\t// out\n        /* \"#utility.yul\":5408:6194   */\n    tag_200:\n        /* \"#utility.yul\":5819:5844   */\n      0x416363657373436f6e74726f6c3a206163636f756e7420000000000000000000\n        /* \"#utility.yul\":5814:5817   */\n      dup2\n        /* \"#utility.yul\":5807:5845   */\n      mstore\n        /* \"#utility.yul\":5789:5792   */\n      0x00\n        /* \"#utility.yul\":5874:5880   */\n      dup4\n        /* \"#utility.yul\":5868:5881   */\n      mload\n        /* \"#utility.yul\":5890:5952   */\n      tag_252\n        /* \"#utility.yul\":5945:5951   */\n      dup2\n        /* \"#utility.yul\":5940:5942   */\n      0x17\n        /* \"#utility.yul\":5935:5938   */\n      dup6\n        /* \"#utility.yul\":5931:5943   */\n      add\n        /* \"#utility.yul\":5924:5928   */\n      0x20\n        /* \"#utility.yul\":5916:5922   */\n      dup9\n        /* \"#utility.yul\":5912:5929   */\n      add\n        /* \"#utility.yul\":5890:5952   */\n      tag_205\n      jump\t// in\n    tag_252:\n      shl(0x7d, 0x01034b99036b4b9b9b4b733903937b6329)\n        /* \"#utility.yul\":6011:6013   */\n      0x17\n        /* \"#utility.yul\":5971:5987   */\n      swap2\n      dup5\n      add\n        /* \"#utility.yul\":6003:6014   */\n      swap2\n      dup3\n      add\n        /* \"#utility.yul\":5996:6036   */\n      mstore\n        /* \"#utility.yul\":6061:6074   */\n      dup4\n      mload\n        /* \"#utility.yul\":6083:6146   */\n      tag_253\n        /* \"#utility.yul\":6061:6074   */\n      dup2\n        /* \"#utility.yul\":6132:6134   */\n      0x28\n        /* \"#utility.yul\":6124:6135   */\n      dup5\n      add\n        /* \"#utility.yul\":6117:6121   */\n      0x20\n        /* \"#utility.yul\":6105:6122   */\n      dup9\n      add\n        /* \"#utility.yul\":6083:6146   */\n      tag_205\n      jump\t// in\n    tag_253:\n        /* \"#utility.yul\":6166:6183   */\n      add\n        /* \"#utility.yul\":6185:6187   */\n      0x28\n        /* \"#utility.yul\":6162:6188   */\n      add\n      swap5\n        /* \"#utility.yul\":5408:6194   */\n      swap4\n      pop\n      pop\n      pop\n      pop\n      jump\t// out\n        /* \"#utility.yul\":6199:6582   */\n    tag_202:\n        /* \"#utility.yul\":6348:6350   */\n      0x20\n        /* \"#utility.yul\":6337:6346   */\n      dup2\n        /* \"#utility.yul\":6330:6351   */\n      mstore\n        /* \"#utility.yul\":6311:6315   */\n      0x00\n        /* \"#utility.yul\":6380:6386   */\n      dup3\n        /* \"#utility.yul\":6374:6387   */\n      mload\n        /* \"#utility.yul\":6423:6429   */\n      dup1\n        /* \"#utility.yul\":6418:6420   */\n      0x20\n        /* \"#utility.yul\":6407:6416   */\n      dup5\n        /* \"#utility.yul\":6403:6421   */\n      add\n        /* \"#utility.yul\":6396:6430   */\n      mstore\n        /* \"#utility.yul\":6439:6505   */\n      tag_255\n        /* \"#utility.yul\":6498:6504   */\n      dup2\n        /* \"#utility.yul\":6493:6495   */\n      0x40\n        /* \"#utility.yul\":6482:6491   */\n      dup6\n        /* \"#utility.yul\":6478:6496   */\n      add\n        /* \"#utility.yul\":6473:6475   */\n      0x20\n        /* \"#utility.yul\":6465:6471   */\n      dup8\n        /* \"#utility.yul\":6461:6476   */\n      add\n        /* \"#utility.yul\":6439:6505   */\n      tag_205\n      jump\t// in\n    tag_255:\n        /* \"#utility.yul\":6566:6568   */\n      0x1f\n        /* \"#utility.yul\":6545:6560   */\n      add\n      not(0x1f)\n        /* \"#utility.yul\":6541:6570   */\n      and\n        /* \"#utility.yul\":6526:6571   */\n      swap2\n      swap1\n      swap2\n      add\n        /* \"#utility.yul\":6573:6575   */\n      0x40\n        /* \"#utility.yul\":6522:6576   */\n      add\n      swap3\n        /* \"#utility.yul\":6199:6582   */\n      swap2\n      pop\n      pop\n      jump\t// out\n\n    auxdata: 0xa2646970667358221220072acef25b1dc6af990fef559d0f0405f245ddd46ccba0eba538778cd7fcb8f864736f6c634300080f0033\n}\n",
				"bytecode": {
					"linkReferences": {},
					"object": "60806040523480156200001157600080fd5b506040516200114a3803806200114a83398101604081905262000034916200039b565b600180556200004560003362000057565b6200005081620000f8565b5062000540565b6000828152602081815260408083206001600160a01b038516845290915290205460ff16620000f4576000828152602081815260408083206001600160a01b03851684529091529020805460ff19166001179055620000b33390565b6001600160a01b0316816001600160a01b0316837f2f8788117e7eff1d82e926ec794901d17c78024a50270940304540a733656f0d60405160405180910390a45b5050565b6000620001058162000128565b50600280546001600160a01b0319166001600160a01b0392909216919091179055565b62000134813362000137565b50565b6000828152602081815260408083206001600160a01b038516845290915290205460ff16620000f45762000181816001600160a01b03166014620001db60201b6200067f1760201c565b620001978360206200067f620001db821b17811c565b604051602001620001aa929190620003f9565b60408051601f198184030181529082905262461bcd60e51b8252620001d29160040162000472565b60405180910390fd5b60606000620001ec836002620004bd565b620001f9906002620004df565b6001600160401b03811115620002135762000213620004fa565b6040519080825280601f01601f1916602001820160405280156200023e576020820181803683370190505b509050600360fc1b816000815181106200025c576200025c62000510565b60200101906001600160f81b031916908160001a905350600f60fb1b816001815181106200028e576200028e62000510565b60200101906001600160f81b031916908160001a9053506000620002b4846002620004bd565b620002c1906001620004df565b90505b600181111562000343576f181899199a1a9b1b9c1cb0b131b232b360811b85600f1660108110620002f957620002f962000510565b1a60f81b82828151811062000312576200031262000510565b60200101906001600160f81b031916908160001a90535060049490941c936200033b8162000526565b9050620002c4565b508315620003945760405162461bcd60e51b815260206004820181905260248201527f537472696e67733a20686578206c656e67746820696e73756666696369656e746044820152606401620001d2565b9392505050565b600060208284031215620003ae57600080fd5b81516001600160a01b03811681146200039457600080fd5b60005b83811015620003e3578181015183820152602001620003c9565b83811115620003f3576000848401525b50505050565b7f416363657373436f6e74726f6c3a206163636f756e742000000000000000000081526000835162000433816017850160208801620003c6565b7001034b99036b4b9b9b4b733903937b6329607d1b601791840191820152835162000466816028840160208801620003c6565b01602801949350505050565b602081526000825180602084015262000493816040850160208701620003c6565b601f01601f19169190910160400192915050565b634e487b7160e01b600052601160045260246000fd5b6000816000190483118215151615620004da57620004da620004a7565b500290565b60008219821115620004f557620004f5620004a7565b500190565b634e487b7160e01b600052604160045260246000fd5b634e487b7160e01b600052603260045260246000fd5b600081620005385762000538620004a7565b506000190190565b610bfa80620005506000396000f3fe6080604052600436106100f35760003560e01c8063804f43cd1161008a578063a6f5f01411610059578063a6f5f01414610298578063c4e41b22146102b9578063d547741f146102ce578063dd31a7ba146102ee57600080fd5b8063804f43cd1461023a57806391d148541461024257806394f4504d14610262578063a217fddf1461028357600080fd5b80632f2ff15d116100c65780632f2ff15d146101c557806336568abe146101e55780634c0f38c21461020557806361aec2051461021a57600080fd5b806301ffc9a7146100f8578063248a9ca31461012d57806327c25c201461016b57806328438f68146101a3575b600080fd5b34801561010457600080fd5b5061011861011336600461097c565b61030e565b60405190151581526020015b60405180910390f35b34801561013957600080fd5b5061015d6101483660046109a6565b60009081526020819052604090206001015490565b604051908152602001610124565b34801561017757600080fd5b5060025461018b906001600160a01b031681565b6040516001600160a01b039091168152602001610124565b3480156101af57600080fd5b506101c36101be3660046109bf565b610345565b005b3480156101d157600080fd5b506101c36101e03660046109f6565b61036f565b3480156101f157600080fd5b506101c36102003660046109f6565b610399565b34801561021157600080fd5b5061015d61041c565b34801561022657600080fd5b506101c3610235366004610a26565b61048f565b6101c36104bd565b34801561024e57600080fd5b5061011861025d3660046109f6565b6105bd565b34801561026e57600080fd5b5060025461011890600160a81b900460ff1681565b34801561028f57600080fd5b5061015d600081565b3480156102a457600080fd5b5060025461011890600160a01b900460ff1681565b3480156102c557600080fd5b5061015d6105e6565b3480156102da57600080fd5b506101c36102e93660046109f6565b610630565b3480156102fa57600080fd5b506101c36103093660046109bf565b610655565b60006001600160e01b03198216637965db0b60e01b148061033f57506301ffc9a760e01b6001600160e01b03198316145b92915050565b600061035081610822565b5060028054911515600160a01b0260ff60a01b19909216919091179055565b60008281526020819052604090206001015461038a81610822565b610394838361082f565b505050565b6001600160a01b038116331461040e5760405162461bcd60e51b815260206004820152602f60248201527f416363657373436f6e74726f6c3a2063616e206f6e6c792072656e6f756e636560448201526e103937b632b9903337b91039b2b63360891b60648201526084015b60405180910390fd5b61041882826108b3565b5050565b6002546040805163d5abeb0160e01b815290516000926001600160a01b03169163d5abeb019160048083019260209291908290030181865afa158015610466573d6000803e3d6000fd5b505050506040513d601f19601f8201168201806040525081019061048a9190610a43565b905090565b600061049a81610822565b50600280546001600160a01b0319166001600160a01b0392909216919091179055565b60026001540361050f5760405162461bcd60e51b815260206004820152601f60248201527f5265656e7472616e637947756172643a207265656e7472616e742063616c6c006044820152606401610405565b600260018181559054600160a81b900460ff161515146105715760405162461bcd60e51b815260206004820152601b60248201527f57686974656c697374206e6f74206f70656e20746f206d696e742e00000000006044820152606401610405565b61045761057c6105e6565b106105b75760405162461bcd60e51b815260206004820152600b60248201526a4f76657220737570706c7960a81b6044820152606401610405565b60018055565b6000918252602082815260408084206001600160a01b0393909316845291905290205460ff1690565b600254604080516318160ddd60e01b815290516000926001600160a01b0316916318160ddd9160048083019260209291908290030181865afa158015610466573d6000803e3d6000fd5b60008281526020819052604090206001015461064b81610822565b61039483836108b3565b600061066081610822565b5060028054911515600160a81b0260ff60a81b19909216919091179055565b6060600061068e836002610a72565b610699906002610a91565b67ffffffffffffffff8111156106b1576106b1610aa9565b6040519080825280601f01601f1916602001820160405280156106db576020820181803683370190505b509050600360fc1b816000815181106106f6576106f6610abf565b60200101906001600160f81b031916908160001a905350600f60fb1b8160018151811061072557610725610abf565b60200101906001600160f81b031916908160001a9053506000610749846002610a72565b610754906001610a91565b90505b60018111156107cc576f181899199a1a9b1b9c1cb0b131b232b360811b85600f166010811061078857610788610abf565b1a60f81b82828151811061079e5761079e610abf565b60200101906001600160f81b031916908160001a90535060049490941c936107c581610ad5565b9050610757565b50831561081b5760405162461bcd60e51b815260206004820181905260248201527f537472696e67733a20686578206c656e67746820696e73756666696369656e746044820152606401610405565b9392505050565b61082c8133610918565b50565b61083982826105bd565b610418576000828152602081815260408083206001600160a01b03851684529091529020805460ff1916600117905561086f3390565b6001600160a01b0316816001600160a01b0316837f2f8788117e7eff1d82e926ec794901d17c78024a50270940304540a733656f0d60405160405180910390a45050565b6108bd82826105bd565b15610418576000828152602081815260408083206001600160a01b0385168085529252808320805460ff1916905551339285917ff6391f5c32d9c69d2a47ea670b442974b53935d1edc7fd64eb21e047a839171b9190a45050565b61092282826105bd565b6104185761093a816001600160a01b0316601461067f565b61094583602061067f565b604051602001610956929190610b1c565b60408051601f198184030181529082905262461bcd60e51b825261040591600401610b91565b60006020828403121561098e57600080fd5b81356001600160e01b03198116811461081b57600080fd5b6000602082840312156109b857600080fd5b5035919050565b6000602082840312156109d157600080fd5b8135801515811461081b57600080fd5b6001600160a01b038116811461082c57600080fd5b60008060408385031215610a0957600080fd5b823591506020830135610a1b816109e1565b809150509250929050565b600060208284031215610a3857600080fd5b813561081b816109e1565b600060208284031215610a5557600080fd5b5051919050565b634e487b7160e01b600052601160045260246000fd5b6000816000190483118215151615610a8c57610a8c610a5c565b500290565b60008219821115610aa457610aa4610a5c565b500190565b634e487b7160e01b600052604160045260246000fd5b634e487b7160e01b600052603260045260246000fd5b600081610ae457610ae4610a5c565b506000190190565b60005b83811015610b07578181015183820152602001610aef565b83811115610b16576000848401525b50505050565b7f416363657373436f6e74726f6c3a206163636f756e7420000000000000000000815260008351610b54816017850160208801610aec565b7001034b99036b4b9b9b4b733903937b6329607d1b6017918401918201528351610b85816028840160208801610aec565b01602801949350505050565b6020815260008251806020840152610bb0816040850160208701610aec565b601f01601f1916919091016040019291505056fea2646970667358221220072acef25b1dc6af990fef559d0f0405f245ddd46ccba0eba538778cd7fcb8f864736f6c634300080f0033",
					"opcodes": "PUSH1 0x80 PUSH1 0x40 MSTORE CALLVALUE DUP1 ISZERO PUSH3 0x11 JUMPI PUSH1 0x0 DUP1 REVERT JUMPDEST POP PUSH1 0x40 MLOAD PUSH3 0x114A CODESIZE SUB DUP1 PUSH3 0x114A DUP4 CODECOPY DUP2 ADD PUSH1 0x40 DUP2 SWAP1 MSTORE PUSH3 0x34 SWAP2 PUSH3 0x39B JUMP JUMPDEST PUSH1 0x1 DUP1 SSTORE PUSH3 0x45 PUSH1 0x0 CALLER PUSH3 0x57 JUMP JUMPDEST PUSH3 0x50 DUP2 PUSH3 0xF8 JUMP JUMPDEST POP PUSH3 0x540 JUMP JUMPDEST PUSH1 0x0 DUP3 DUP2 MSTORE PUSH1 0x20 DUP2 DUP2 MSTORE PUSH1 0x40 DUP1 DUP4 KECCAK256 PUSH1 0x1 PUSH1 0x1 PUSH1 0xA0 SHL SUB DUP6 AND DUP5 MSTORE SWAP1 SWAP2 MSTORE SWAP1 KECCAK256 SLOAD PUSH1 0xFF AND PUSH3 0xF4 JUMPI PUSH1 0x0 DUP3 DUP2 MSTORE PUSH1 0x20 DUP2 DUP2 MSTORE PUSH1 0x40 DUP1 DUP4 KECCAK256 PUSH1 0x1 PUSH1 0x1 PUSH1 0xA0 SHL SUB DUP6 AND DUP5 MSTORE SWAP1 SWAP2 MSTORE SWAP1 KECCAK256 DUP1 SLOAD PUSH1 0xFF NOT AND PUSH1 0x1 OR SWAP1 SSTORE PUSH3 0xB3 CALLER SWAP1 JUMP JUMPDEST PUSH1 0x1 PUSH1 0x1 PUSH1 0xA0 SHL SUB AND DUP2 PUSH1 0x1 PUSH1 0x1 PUSH1 0xA0 SHL SUB AND DUP4 PUSH32 0x2F8788117E7EFF1D82E926EC794901D17C78024A50270940304540A733656F0D PUSH1 0x40 MLOAD PUSH1 0x40 MLOAD DUP1 SWAP2 SUB SWAP1 LOG4 JUMPDEST POP POP JUMP JUMPDEST PUSH1 0x0 PUSH3 0x105 DUP2 PUSH3 0x128 JUMP JUMPDEST POP PUSH1 0x2 DUP1 SLOAD PUSH1 0x1 PUSH1 0x1 PUSH1 0xA0 SHL SUB NOT AND PUSH1 0x1 PUSH1 0x1 PUSH1 0xA0 SHL SUB SWAP3 SWAP1 SWAP3 AND SWAP2 SWAP1 SWAP2 OR SWAP1 SSTORE JUMP JUMPDEST PUSH3 0x134 DUP2 CALLER PUSH3 0x137 JUMP JUMPDEST POP JUMP JUMPDEST PUSH1 0x0 DUP3 DUP2 MSTORE PUSH1 0x20 DUP2 DUP2 MSTORE PUSH1 0x40 DUP1 DUP4 KECCAK256 PUSH1 0x1 PUSH1 0x1 PUSH1 0xA0 SHL SUB DUP6 AND DUP5 MSTORE SWAP1 SWAP2 MSTORE SWAP1 KECCAK256 SLOAD PUSH1 0xFF AND PUSH3 0xF4 JUMPI PUSH3 0x181 DUP2 PUSH1 0x1 PUSH1 0x1 PUSH1 0xA0 SHL SUB AND PUSH1 0x14 PUSH3 0x1DB PUSH1 0x20 SHL PUSH3 0x67F OR PUSH1 0x20 SHR JUMP JUMPDEST PUSH3 0x197 DUP4 PUSH1 0x20 PUSH3 0x67F PUSH3 0x1DB DUP3 SHL OR DUP2 SHR JUMP JUMPDEST PUSH1 0x40 MLOAD PUSH1 0x20 ADD PUSH3 0x1AA SWAP3 SWAP2 SWAP1 PUSH3 0x3F9 JUMP JUMPDEST PUSH1 0x40 DUP1 MLOAD PUSH1 0x1F NOT DUP2 DUP5 SUB ADD DUP2 MSTORE SWAP1 DUP3 SWAP1 MSTORE PUSH3 0x461BCD PUSH1 0xE5 SHL DUP3 MSTORE PUSH3 0x1D2 SWAP2 PUSH1 0x4 ADD PUSH3 0x472 JUMP JUMPDEST PUSH1 0x40 MLOAD DUP1 SWAP2 SUB SWAP1 REVERT JUMPDEST PUSH1 0x60 PUSH1 0x0 PUSH3 0x1EC DUP4 PUSH1 0x2 PUSH3 0x4BD JUMP JUMPDEST PUSH3 0x1F9 SWAP1 PUSH1 0x2 PUSH3 0x4DF JUMP JUMPDEST PUSH1 0x1 PUSH1 0x1 PUSH1 0x40 SHL SUB DUP2 GT ISZERO PUSH3 0x213 JUMPI PUSH3 0x213 PUSH3 0x4FA JUMP JUMPDEST PUSH1 0x40 MLOAD SWAP1 DUP1 DUP3 MSTORE DUP1 PUSH1 0x1F ADD PUSH1 0x1F NOT AND PUSH1 0x20 ADD DUP3 ADD PUSH1 0x40 MSTORE DUP1 ISZERO PUSH3 0x23E JUMPI PUSH1 0x20 DUP3 ADD DUP2 DUP1 CALLDATASIZE DUP4 CALLDATACOPY ADD SWAP1 POP JUMPDEST POP SWAP1 POP PUSH1 0x3 PUSH1 0xFC SHL DUP2 PUSH1 0x0 DUP2 MLOAD DUP2 LT PUSH3 0x25C JUMPI PUSH3 0x25C PUSH3 0x510 JUMP JUMPDEST PUSH1 0x20 ADD ADD SWAP1 PUSH1 0x1 PUSH1 0x1 PUSH1 0xF8 SHL SUB NOT AND SWAP1 DUP2 PUSH1 0x0 BYTE SWAP1 MSTORE8 POP PUSH1 0xF PUSH1 0xFB SHL DUP2 PUSH1 0x1 DUP2 MLOAD DUP2 LT PUSH3 0x28E JUMPI PUSH3 0x28E PUSH3 0x510 JUMP JUMPDEST PUSH1 0x20 ADD ADD SWAP1 PUSH1 0x1 PUSH1 0x1 PUSH1 0xF8 SHL SUB NOT AND SWAP1 DUP2 PUSH1 0x0 BYTE SWAP1 MSTORE8 POP PUSH1 0x0 PUSH3 0x2B4 DUP5 PUSH1 0x2 PUSH3 0x4BD JUMP JUMPDEST PUSH3 0x2C1 SWAP1 PUSH1 0x1 PUSH3 0x4DF JUMP JUMPDEST SWAP1 POP JUMPDEST PUSH1 0x1 DUP2 GT ISZERO PUSH3 0x343 JUMPI PUSH16 0x181899199A1A9B1B9C1CB0B131B232B3 PUSH1 0x81 SHL DUP6 PUSH1 0xF AND PUSH1 0x10 DUP2 LT PUSH3 0x2F9 JUMPI PUSH3 0x2F9 PUSH3 0x510 JUMP JUMPDEST BYTE PUSH1 0xF8 SHL DUP3 DUP3 DUP2 MLOAD DUP2 LT PUSH3 0x312 JUMPI PUSH3 0x312 PUSH3 0x510 JUMP JUMPDEST PUSH1 0x20 ADD ADD SWAP1 PUSH1 0x1 PUSH1 0x1 PUSH1 0xF8 SHL SUB NOT AND SWAP1 DUP2 PUSH1 0x0 BYTE SWAP1 MSTORE8 POP PUSH1 0x4 SWAP5 SWAP1 SWAP5 SHR SWAP4 PUSH3 0x33B DUP2 PUSH3 0x526 JUMP JUMPDEST SWAP1 POP PUSH3 0x2C4 JUMP JUMPDEST POP DUP4 ISZERO PUSH3 0x394 JUMPI PUSH1 0x40 MLOAD PUSH3 0x461BCD PUSH1 0xE5 SHL DUP2 MSTORE PUSH1 0x20 PUSH1 0x4 DUP3 ADD DUP2 SWAP1 MSTORE PUSH1 0x24 DUP3 ADD MSTORE PUSH32 0x537472696E67733A20686578206C656E67746820696E73756666696369656E74 PUSH1 0x44 DUP3 ADD MSTORE PUSH1 0x64 ADD PUSH3 0x1D2 JUMP JUMPDEST SWAP4 SWAP3 POP POP POP JUMP JUMPDEST PUSH1 0x0 PUSH1 0x20 DUP3 DUP5 SUB SLT ISZERO PUSH3 0x3AE JUMPI PUSH1 0x0 DUP1 REVERT JUMPDEST DUP2 MLOAD PUSH1 0x1 PUSH1 0x1 PUSH1 0xA0 SHL SUB DUP2 AND DUP2 EQ PUSH3 0x394 JUMPI PUSH1 0x0 DUP1 REVERT JUMPDEST PUSH1 0x0 JUMPDEST DUP4 DUP2 LT ISZERO PUSH3 0x3E3 JUMPI DUP2 DUP2 ADD MLOAD DUP4 DUP3 ADD MSTORE PUSH1 0x20 ADD PUSH3 0x3C9 JUMP JUMPDEST DUP4 DUP2 GT ISZERO PUSH3 0x3F3 JUMPI PUSH1 0x0 DUP5 DUP5 ADD MSTORE JUMPDEST POP POP POP POP JUMP JUMPDEST PUSH32 0x416363657373436F6E74726F6C3A206163636F756E7420000000000000000000 DUP2 MSTORE PUSH1 0x0 DUP4 MLOAD PUSH3 0x433 DUP2 PUSH1 0x17 DUP6 ADD PUSH1 0x20 DUP9 ADD PUSH3 0x3C6 JUMP JUMPDEST PUSH17 0x1034B99036B4B9B9B4B733903937B6329 PUSH1 0x7D SHL PUSH1 0x17 SWAP2 DUP5 ADD SWAP2 DUP3 ADD MSTORE DUP4 MLOAD PUSH3 0x466 DUP2 PUSH1 0x28 DUP5 ADD PUSH1 0x20 DUP9 ADD PUSH3 0x3C6 JUMP JUMPDEST ADD PUSH1 0x28 ADD SWAP5 SWAP4 POP POP POP POP JUMP JUMPDEST PUSH1 0x20 DUP2 MSTORE PUSH1 0x0 DUP3 MLOAD DUP1 PUSH1 0x20 DUP5 ADD MSTORE PUSH3 0x493 DUP2 PUSH1 0x40 DUP6 ADD PUSH1 0x20 DUP8 ADD PUSH3 0x3C6 JUMP JUMPDEST PUSH1 0x1F ADD PUSH1 0x1F NOT AND SWAP2 SWAP1 SWAP2 ADD PUSH1 0x40 ADD SWAP3 SWAP2 POP POP JUMP JUMPDEST PUSH4 0x4E487B71 PUSH1 0xE0 SHL PUSH1 0x0 MSTORE PUSH1 0x11 PUSH1 0x4 MSTORE PUSH1 0x24 PUSH1 0x0 REVERT JUMPDEST PUSH1 0x0 DUP2 PUSH1 0x0 NOT DIV DUP4 GT DUP3 ISZERO ISZERO AND ISZERO PUSH3 0x4DA JUMPI PUSH3 0x4DA PUSH3 0x4A7 JUMP JUMPDEST POP MUL SWAP1 JUMP JUMPDEST PUSH1 0x0 DUP3 NOT DUP3 GT ISZERO PUSH3 0x4F5 JUMPI PUSH3 0x4F5 PUSH3 0x4A7 JUMP JUMPDEST POP ADD SWAP1 JUMP JUMPDEST PUSH4 0x4E487B71 PUSH1 0xE0 SHL PUSH1 0x0 MSTORE PUSH1 0x41 PUSH1 0x4 MSTORE PUSH1 0x24 PUSH1 0x0 REVERT JUMPDEST PUSH4 0x4E487B71 PUSH1 0xE0 SHL PUSH1 0x0 MSTORE PUSH1 0x32 PUSH1 0x4 MSTORE PUSH1 0x24 PUSH1 0x0 REVERT JUMPDEST PUSH1 0x0 DUP2 PUSH3 0x538 JUMPI PUSH3 0x538 PUSH3 0x4A7 JUMP JUMPDEST POP PUSH1 0x0 NOT ADD SWAP1 JUMP JUMPDEST PUSH2 0xBFA DUP1 PUSH3 0x550 PUSH1 0x0 CODECOPY PUSH1 0x0 RETURN INVALID PUSH1 0x80 PUSH1 0x40 MSTORE PUSH1 0x4 CALLDATASIZE LT PUSH2 0xF3 JUMPI PUSH1 0x0 CALLDATALOAD PUSH1 0xE0 SHR DUP1 PUSH4 0x804F43CD GT PUSH2 0x8A JUMPI DUP1 PUSH4 0xA6F5F014 GT PUSH2 0x59 JUMPI DUP1 PUSH4 0xA6F5F014 EQ PUSH2 0x298 JUMPI DUP1 PUSH4 0xC4E41B22 EQ PUSH2 0x2B9 JUMPI DUP1 PUSH4 0xD547741F EQ PUSH2 0x2CE JUMPI DUP1 PUSH4 0xDD31A7BA EQ PUSH2 0x2EE JUMPI PUSH1 0x0 DUP1 REVERT JUMPDEST DUP1 PUSH4 0x804F43CD EQ PUSH2 0x23A JUMPI DUP1 PUSH4 0x91D14854 EQ PUSH2 0x242 JUMPI DUP1 PUSH4 0x94F4504D EQ PUSH2 0x262 JUMPI DUP1 PUSH4 0xA217FDDF EQ PUSH2 0x283 JUMPI PUSH1 0x0 DUP1 REVERT JUMPDEST DUP1 PUSH4 0x2F2FF15D GT PUSH2 0xC6 JUMPI DUP1 PUSH4 0x2F2FF15D EQ PUSH2 0x1C5 JUMPI DUP1 PUSH4 0x36568ABE EQ PUSH2 0x1E5 JUMPI DUP1 PUSH4 0x4C0F38C2 EQ PUSH2 0x205 JUMPI DUP1 PUSH4 0x61AEC205 EQ PUSH2 0x21A JUMPI PUSH1 0x0 DUP1 REVERT JUMPDEST DUP1 PUSH4 0x1FFC9A7 EQ PUSH2 0xF8 JUMPI DUP1 PUSH4 0x248A9CA3 EQ PUSH2 0x12D JUMPI DUP1 PUSH4 0x27C25C20 EQ PUSH2 0x16B JUMPI DUP1 PUSH4 0x28438F68 EQ PUSH2 0x1A3 JUMPI JUMPDEST PUSH1 0x0 DUP1 REVERT JUMPDEST CALLVALUE DUP1 ISZERO PUSH2 0x104 JUMPI PUSH1 0x0 DUP1 REVERT JUMPDEST POP PUSH2 0x118 PUSH2 0x113 CALLDATASIZE PUSH1 0x4 PUSH2 0x97C JUMP JUMPDEST PUSH2 0x30E JUMP JUMPDEST PUSH1 0x40 MLOAD SWAP1 ISZERO ISZERO DUP2 MSTORE PUSH1 0x20 ADD JUMPDEST PUSH1 0x40 MLOAD DUP1 SWAP2 SUB SWAP1 RETURN JUMPDEST CALLVALUE DUP1 ISZERO PUSH2 0x139 JUMPI PUSH1 0x0 DUP1 REVERT JUMPDEST POP PUSH2 0x15D PUSH2 0x148 CALLDATASIZE PUSH1 0x4 PUSH2 0x9A6 JUMP JUMPDEST PUSH1 0x0 SWAP1 DUP2 MSTORE PUSH1 0x20 DUP2 SWAP1 MSTORE PUSH1 0x40 SWAP1 KECCAK256 PUSH1 0x1 ADD SLOAD SWAP1 JUMP JUMPDEST PUSH1 0x40 MLOAD SWAP1 DUP2 MSTORE PUSH1 0x20 ADD PUSH2 0x124 JUMP JUMPDEST CALLVALUE DUP1 ISZERO PUSH2 0x177 JUMPI PUSH1 0x0 DUP1 REVERT JUMPDEST POP PUSH1 0x2 SLOAD PUSH2 0x18B SWAP1 PUSH1 0x1 PUSH1 0x1 PUSH1 0xA0 SHL SUB AND DUP2 JUMP JUMPDEST PUSH1 0x40 MLOAD PUSH1 0x1 PUSH1 0x1 PUSH1 0xA0 SHL SUB SWAP1 SWAP2 AND DUP2 MSTORE PUSH1 0x20 ADD PUSH2 0x124 JUMP JUMPDEST CALLVALUE DUP1 ISZERO PUSH2 0x1AF JUMPI PUSH1 0x0 DUP1 REVERT JUMPDEST POP PUSH2 0x1C3 PUSH2 0x1BE CALLDATASIZE PUSH1 0x4 PUSH2 0x9BF JUMP JUMPDEST PUSH2 0x345 JUMP JUMPDEST STOP JUMPDEST CALLVALUE DUP1 ISZERO PUSH2 0x1D1 JUMPI PUSH1 0x0 DUP1 REVERT JUMPDEST POP PUSH2 0x1C3 PUSH2 0x1E0 CALLDATASIZE PUSH1 0x4 PUSH2 0x9F6 JUMP JUMPDEST PUSH2 0x36F JUMP JUMPDEST CALLVALUE DUP1 ISZERO PUSH2 0x1F1 JUMPI PUSH1 0x0 DUP1 REVERT JUMPDEST POP PUSH2 0x1C3 PUSH2 0x200 CALLDATASIZE PUSH1 0x4 PUSH2 0x9F6 JUMP JUMPDEST PUSH2 0x399 JUMP JUMPDEST CALLVALUE DUP1 ISZERO PUSH2 0x211 JUMPI PUSH1 0x0 DUP1 REVERT JUMPDEST POP PUSH2 0x15D PUSH2 0x41C JUMP JUMPDEST CALLVALUE DUP1 ISZERO PUSH2 0x226 JUMPI PUSH1 0x0 DUP1 REVERT JUMPDEST POP PUSH2 0x1C3 PUSH2 0x235 CALLDATASIZE PUSH1 0x4 PUSH2 0xA26 JUMP JUMPDEST PUSH2 0x48F JUMP JUMPDEST PUSH2 0x1C3 PUSH2 0x4BD JUMP JUMPDEST CALLVALUE DUP1 ISZERO PUSH2 0x24E JUMPI PUSH1 0x0 DUP1 REVERT JUMPDEST POP PUSH2 0x118 PUSH2 0x25D CALLDATASIZE PUSH1 0x4 PUSH2 0x9F6 JUMP JUMPDEST PUSH2 0x5BD JUMP JUMPDEST CALLVALUE DUP1 ISZERO PUSH2 0x26E JUMPI PUSH1 0x0 DUP1 REVERT JUMPDEST POP PUSH1 0x2 SLOAD PUSH2 0x118 SWAP1 PUSH1 0x1 PUSH1 0xA8 SHL SWAP1 DIV PUSH1 0xFF AND DUP2 JUMP JUMPDEST CALLVALUE DUP1 ISZERO PUSH2 0x28F JUMPI PUSH1 0x0 DUP1 REVERT JUMPDEST POP PUSH2 0x15D PUSH1 0x0 DUP2 JUMP JUMPDEST CALLVALUE DUP1 ISZERO PUSH2 0x2A4 JUMPI PUSH1 0x0 DUP1 REVERT JUMPDEST POP PUSH1 0x2 SLOAD PUSH2 0x118 SWAP1 PUSH1 0x1 PUSH1 0xA0 SHL SWAP1 DIV PUSH1 0xFF AND DUP2 JUMP JUMPDEST CALLVALUE DUP1 ISZERO PUSH2 0x2C5 JUMPI PUSH1 0x0 DUP1 REVERT JUMPDEST POP PUSH2 0x15D PUSH2 0x5E6 JUMP JUMPDEST CALLVALUE DUP1 ISZERO PUSH2 0x2DA JUMPI PUSH1 0x0 DUP1 REVERT JUMPDEST POP PUSH2 0x1C3 PUSH2 0x2E9 CALLDATASIZE PUSH1 0x4 PUSH2 0x9F6 JUMP JUMPDEST PUSH2 0x630 JUMP JUMPDEST CALLVALUE DUP1 ISZERO PUSH2 0x2FA JUMPI PUSH1 0x0 DUP1 REVERT JUMPDEST POP PUSH2 0x1C3 PUSH2 0x309 CALLDATASIZE PUSH1 0x4 PUSH2 0x9BF JUMP JUMPDEST PUSH2 0x655 JUMP JUMPDEST PUSH1 0x0 PUSH1 0x1 PUSH1 0x1 PUSH1 0xE0 SHL SUB NOT DUP3 AND PUSH4 0x7965DB0B PUSH1 0xE0 SHL EQ DUP1 PUSH2 0x33F JUMPI POP PUSH4 0x1FFC9A7 PUSH1 0xE0 SHL PUSH1 0x1 PUSH1 0x1 PUSH1 0xE0 SHL SUB NOT DUP4 AND EQ JUMPDEST SWAP3 SWAP2 POP POP JUMP JUMPDEST PUSH1 0x0 PUSH2 0x350 DUP2 PUSH2 0x822 JUMP JUMPDEST POP PUSH1 0x2 DUP1 SLOAD SWAP2 ISZERO ISZERO PUSH1 0x1 PUSH1 0xA0 SHL MUL PUSH1 0xFF PUSH1 0xA0 SHL NOT SWAP1 SWAP3 AND SWAP2 SWAP1 SWAP2 OR SWAP1 SSTORE JUMP JUMPDEST PUSH1 0x0 DUP3 DUP2 MSTORE PUSH1 0x20 DUP2 SWAP1 MSTORE PUSH1 0x40 SWAP1 KECCAK256 PUSH1 0x1 ADD SLOAD PUSH2 0x38A DUP2 PUSH2 0x822 JUMP JUMPDEST PUSH2 0x394 DUP4 DUP4 PUSH2 0x82F JUMP JUMPDEST POP POP POP JUMP JUMPDEST PUSH1 0x1 PUSH1 0x1 PUSH1 0xA0 SHL SUB DUP2 AND CALLER EQ PUSH2 0x40E JUMPI PUSH1 0x40 MLOAD PUSH3 0x461BCD PUSH1 0xE5 SHL DUP2 MSTORE PUSH1 0x20 PUSH1 0x4 DUP3 ADD MSTORE PUSH1 0x2F PUSH1 0x24 DUP3 ADD MSTORE PUSH32 0x416363657373436F6E74726F6C3A2063616E206F6E6C792072656E6F756E6365 PUSH1 0x44 DUP3 ADD MSTORE PUSH15 0x103937B632B9903337B91039B2B633 PUSH1 0x89 SHL PUSH1 0x64 DUP3 ADD MSTORE PUSH1 0x84 ADD JUMPDEST PUSH1 0x40 MLOAD DUP1 SWAP2 SUB SWAP1 REVERT JUMPDEST PUSH2 0x418 DUP3 DUP3 PUSH2 0x8B3 JUMP JUMPDEST POP POP JUMP JUMPDEST PUSH1 0x2 SLOAD PUSH1 0x40 DUP1 MLOAD PUSH4 0xD5ABEB01 PUSH1 0xE0 SHL DUP2 MSTORE SWAP1 MLOAD PUSH1 0x0 SWAP3 PUSH1 0x1 PUSH1 0x1 PUSH1 0xA0 SHL SUB AND SWAP2 PUSH4 0xD5ABEB01 SWAP2 PUSH1 0x4 DUP1 DUP4 ADD SWAP3 PUSH1 0x20 SWAP3 SWAP2 SWAP1 DUP3 SWAP1 SUB ADD DUP2 DUP7 GAS STATICCALL ISZERO DUP1 ISZERO PUSH2 0x466 JUMPI RETURNDATASIZE PUSH1 0x0 DUP1 RETURNDATACOPY RETURNDATASIZE PUSH1 0x0 REVERT JUMPDEST POP POP POP POP PUSH1 0x40 MLOAD RETURNDATASIZE PUSH1 0x1F NOT PUSH1 0x1F DUP3 ADD AND DUP3 ADD DUP1 PUSH1 0x40 MSTORE POP DUP2 ADD SWAP1 PUSH2 0x48A SWAP2 SWAP1 PUSH2 0xA43 JUMP JUMPDEST SWAP1 POP SWAP1 JUMP JUMPDEST PUSH1 0x0 PUSH2 0x49A DUP2 PUSH2 0x822 JUMP JUMPDEST POP PUSH1 0x2 DUP1 SLOAD PUSH1 0x1 PUSH1 0x1 PUSH1 0xA0 SHL SUB NOT AND PUSH1 0x1 PUSH1 0x1 PUSH1 0xA0 SHL SUB SWAP3 SWAP1 SWAP3 AND SWAP2 SWAP1 SWAP2 OR SWAP1 SSTORE JUMP JUMPDEST PUSH1 0x2 PUSH1 0x1 SLOAD SUB PUSH2 0x50F JUMPI PUSH1 0x40 MLOAD PUSH3 0x461BCD PUSH1 0xE5 SHL DUP2 MSTORE PUSH1 0x20 PUSH1 0x4 DUP3 ADD MSTORE PUSH1 0x1F PUSH1 0x24 DUP3 ADD MSTORE PUSH32 0x5265656E7472616E637947756172643A207265656E7472616E742063616C6C00 PUSH1 0x44 DUP3 ADD MSTORE PUSH1 0x64 ADD PUSH2 0x405 JUMP JUMPDEST PUSH1 0x2 PUSH1 0x1 DUP2 DUP2 SSTORE SWAP1 SLOAD PUSH1 0x1 PUSH1 0xA8 SHL SWAP1 DIV PUSH1 0xFF AND ISZERO ISZERO EQ PUSH2 0x571 JUMPI PUSH1 0x40 MLOAD PUSH3 0x461BCD PUSH1 0xE5 SHL DUP2 MSTORE PUSH1 0x20 PUSH1 0x4 DUP3 ADD MSTORE PUSH1 0x1B PUSH1 0x24 DUP3 ADD MSTORE PUSH32 0x57686974656C697374206E6F74206F70656E20746F206D696E742E0000000000 PUSH1 0x44 DUP3 ADD MSTORE PUSH1 0x64 ADD PUSH2 0x405 JUMP JUMPDEST PUSH2 0x457 PUSH2 0x57C PUSH2 0x5E6 JUMP JUMPDEST LT PUSH2 0x5B7 JUMPI PUSH1 0x40 MLOAD PUSH3 0x461BCD PUSH1 0xE5 SHL DUP2 MSTORE PUSH1 0x20 PUSH1 0x4 DUP3 ADD MSTORE PUSH1 0xB PUSH1 0x24 DUP3 ADD MSTORE PUSH11 0x4F76657220737570706C79 PUSH1 0xA8 SHL PUSH1 0x44 DUP3 ADD MSTORE PUSH1 0x64 ADD PUSH2 0x405 JUMP JUMPDEST PUSH1 0x1 DUP1 SSTORE JUMP JUMPDEST PUSH1 0x0 SWAP2 DUP3 MSTORE PUSH1 0x20 DUP3 DUP2 MSTORE PUSH1 0x40 DUP1 DUP5 KECCAK256 PUSH1 0x1 PUSH1 0x1 PUSH1 0xA0 SHL SUB SWAP4 SWAP1 SWAP4 AND DUP5 MSTORE SWAP2 SWAP1 MSTORE SWAP1 KECCAK256 SLOAD PUSH1 0xFF AND SWAP1 JUMP JUMPDEST PUSH1 0x2 SLOAD PUSH1 0x40 DUP1 MLOAD PUSH4 0x18160DDD PUSH1 0xE0 SHL DUP2 MSTORE SWAP1 MLOAD PUSH1 0x0 SWAP3 PUSH1 0x1 PUSH1 0x1 PUSH1 0xA0 SHL SUB AND SWAP2 PUSH4 0x18160DDD SWAP2 PUSH1 0x4 DUP1 DUP4 ADD SWAP3 PUSH1 0x20 SWAP3 SWAP2 SWAP1 DUP3 SWAP1 SUB ADD DUP2 DUP7 GAS STATICCALL ISZERO DUP1 ISZERO PUSH2 0x466 JUMPI RETURNDATASIZE PUSH1 0x0 DUP1 RETURNDATACOPY RETURNDATASIZE PUSH1 0x0 REVERT JUMPDEST PUSH1 0x0 DUP3 DUP2 MSTORE PUSH1 0x20 DUP2 SWAP1 MSTORE PUSH1 0x40 SWAP1 KECCAK256 PUSH1 0x1 ADD SLOAD PUSH2 0x64B DUP2 PUSH2 0x822 JUMP JUMPDEST PUSH2 0x394 DUP4 DUP4 PUSH2 0x8B3 JUMP JUMPDEST PUSH1 0x0 PUSH2 0x660 DUP2 PUSH2 0x822 JUMP JUMPDEST POP PUSH1 0x2 DUP1 SLOAD SWAP2 ISZERO ISZERO PUSH1 0x1 PUSH1 0xA8 SHL MUL PUSH1 0xFF PUSH1 0xA8 SHL NOT SWAP1 SWAP3 AND SWAP2 SWAP1 SWAP2 OR SWAP1 SSTORE JUMP JUMPDEST PUSH1 0x60 PUSH1 0x0 PUSH2 0x68E DUP4 PUSH1 0x2 PUSH2 0xA72 JUMP JUMPDEST PUSH2 0x699 SWAP1 PUSH1 0x2 PUSH2 0xA91 JUMP JUMPDEST PUSH8 0xFFFFFFFFFFFFFFFF DUP2 GT ISZERO PUSH2 0x6B1 JUMPI PUSH2 0x6B1 PUSH2 0xAA9 JUMP JUMPDEST PUSH1 0x40 MLOAD SWAP1 DUP1 DUP3 MSTORE DUP1 PUSH1 0x1F ADD PUSH1 0x1F NOT AND PUSH1 0x20 ADD DUP3 ADD PUSH1 0x40 MSTORE DUP1 ISZERO PUSH2 0x6DB JUMPI PUSH1 0x20 DUP3 ADD DUP2 DUP1 CALLDATASIZE DUP4 CALLDATACOPY ADD SWAP1 POP JUMPDEST POP SWAP1 POP PUSH1 0x3 PUSH1 0xFC SHL DUP2 PUSH1 0x0 DUP2 MLOAD DUP2 LT PUSH2 0x6F6 JUMPI PUSH2 0x6F6 PUSH2 0xABF JUMP JUMPDEST PUSH1 0x20 ADD ADD SWAP1 PUSH1 0x1 PUSH1 0x1 PUSH1 0xF8 SHL SUB NOT AND SWAP1 DUP2 PUSH1 0x0 BYTE SWAP1 MSTORE8 POP PUSH1 0xF PUSH1 0xFB SHL DUP2 PUSH1 0x1 DUP2 MLOAD DUP2 LT PUSH2 0x725 JUMPI PUSH2 0x725 PUSH2 0xABF JUMP JUMPDEST PUSH1 0x20 ADD ADD SWAP1 PUSH1 0x1 PUSH1 0x1 PUSH1 0xF8 SHL SUB NOT AND SWAP1 DUP2 PUSH1 0x0 BYTE SWAP1 MSTORE8 POP PUSH1 0x0 PUSH2 0x749 DUP5 PUSH1 0x2 PUSH2 0xA72 JUMP JUMPDEST PUSH2 0x754 SWAP1 PUSH1 0x1 PUSH2 0xA91 JUMP JUMPDEST SWAP1 POP JUMPDEST PUSH1 0x1 DUP2 GT ISZERO PUSH2 0x7CC JUMPI PUSH16 0x181899199A1A9B1B9C1CB0B131B232B3 PUSH1 0x81 SHL DUP6 PUSH1 0xF AND PUSH1 0x10 DUP2 LT PUSH2 0x788 JUMPI PUSH2 0x788 PUSH2 0xABF JUMP JUMPDEST BYTE PUSH1 0xF8 SHL DUP3 DUP3 DUP2 MLOAD DUP2 LT PUSH2 0x79E JUMPI PUSH2 0x79E PUSH2 0xABF JUMP JUMPDEST PUSH1 0x20 ADD ADD SWAP1 PUSH1 0x1 PUSH1 0x1 PUSH1 0xF8 SHL SUB NOT AND SWAP1 DUP2 PUSH1 0x0 BYTE SWAP1 MSTORE8 POP PUSH1 0x4 SWAP5 SWAP1 SWAP5 SHR SWAP4 PUSH2 0x7C5 DUP2 PUSH2 0xAD5 JUMP JUMPDEST SWAP1 POP PUSH2 0x757 JUMP JUMPDEST POP DUP4 ISZERO PUSH2 0x81B JUMPI PUSH1 0x40 MLOAD PUSH3 0x461BCD PUSH1 0xE5 SHL DUP2 MSTORE PUSH1 0x20 PUSH1 0x4 DUP3 ADD DUP2 SWAP1 MSTORE PUSH1 0x24 DUP3 ADD MSTORE PUSH32 0x537472696E67733A20686578206C656E67746820696E73756666696369656E74 PUSH1 0x44 DUP3 ADD MSTORE PUSH1 0x64 ADD PUSH2 0x405 JUMP JUMPDEST SWAP4 SWAP3 POP POP POP JUMP JUMPDEST PUSH2 0x82C DUP2 CALLER PUSH2 0x918 JUMP JUMPDEST POP JUMP JUMPDEST PUSH2 0x839 DUP3 DUP3 PUSH2 0x5BD JUMP JUMPDEST PUSH2 0x418 JUMPI PUSH1 0x0 DUP3 DUP2 MSTORE PUSH1 0x20 DUP2 DUP2 MSTORE PUSH1 0x40 DUP1 DUP4 KECCAK256 PUSH1 0x1 PUSH1 0x1 PUSH1 0xA0 SHL SUB DUP6 AND DUP5 MSTORE SWAP1 SWAP2 MSTORE SWAP1 KECCAK256 DUP1 SLOAD PUSH1 0xFF NOT AND PUSH1 0x1 OR SWAP1 SSTORE PUSH2 0x86F CALLER SWAP1 JUMP JUMPDEST PUSH1 0x1 PUSH1 0x1 PUSH1 0xA0 SHL SUB AND DUP2 PUSH1 0x1 PUSH1 0x1 PUSH1 0xA0 SHL SUB AND DUP4 PUSH32 0x2F8788117E7EFF1D82E926EC794901D17C78024A50270940304540A733656F0D PUSH1 0x40 MLOAD PUSH1 0x40 MLOAD DUP1 SWAP2 SUB SWAP1 LOG4 POP POP JUMP JUMPDEST PUSH2 0x8BD DUP3 DUP3 PUSH2 0x5BD JUMP JUMPDEST ISZERO PUSH2 0x418 JUMPI PUSH1 0x0 DUP3 DUP2 MSTORE PUSH1 0x20 DUP2 DUP2 MSTORE PUSH1 0x40 DUP1 DUP4 KECCAK256 PUSH1 0x1 PUSH1 0x1 PUSH1 0xA0 SHL SUB DUP6 AND DUP1 DUP6 MSTORE SWAP3 MSTORE DUP1 DUP4 KECCAK256 DUP1 SLOAD PUSH1 0xFF NOT AND SWAP1 SSTORE MLOAD CALLER SWAP3 DUP6 SWAP2 PUSH32 0xF6391F5C32D9C69D2A47EA670B442974B53935D1EDC7FD64EB21E047A839171B SWAP2 SWAP1 LOG4 POP POP JUMP JUMPDEST PUSH2 0x922 DUP3 DUP3 PUSH2 0x5BD JUMP JUMPDEST PUSH2 0x418 JUMPI PUSH2 0x93A DUP2 PUSH1 0x1 PUSH1 0x1 PUSH1 0xA0 SHL SUB AND PUSH1 0x14 PUSH2 0x67F JUMP JUMPDEST PUSH2 0x945 DUP4 PUSH1 0x20 PUSH2 0x67F JUMP JUMPDEST PUSH1 0x40 MLOAD PUSH1 0x20 ADD PUSH2 0x956 SWAP3 SWAP2 SWAP1 PUSH2 0xB1C JUMP JUMPDEST PUSH1 0x40 DUP1 MLOAD PUSH1 0x1F NOT DUP2 DUP5 SUB ADD DUP2 MSTORE SWAP1 DUP3 SWAP1 MSTORE PUSH3 0x461BCD PUSH1 0xE5 SHL DUP3 MSTORE PUSH2 0x405 SWAP2 PUSH1 0x4 ADD PUSH2 0xB91 JUMP JUMPDEST PUSH1 0x0 PUSH1 0x20 DUP3 DUP5 SUB SLT ISZERO PUSH2 0x98E JUMPI PUSH1 0x0 DUP1 REVERT JUMPDEST DUP2 CALLDATALOAD PUSH1 0x1 PUSH1 0x1 PUSH1 0xE0 SHL SUB NOT DUP2 AND DUP2 EQ PUSH2 0x81B JUMPI PUSH1 0x0 DUP1 REVERT JUMPDEST PUSH1 0x0 PUSH1 0x20 DUP3 DUP5 SUB SLT ISZERO PUSH2 0x9B8 JUMPI PUSH1 0x0 DUP1 REVERT JUMPDEST POP CALLDATALOAD SWAP2 SWAP1 POP JUMP JUMPDEST PUSH1 0x0 PUSH1 0x20 DUP3 DUP5 SUB SLT ISZERO PUSH2 0x9D1 JUMPI PUSH1 0x0 DUP1 REVERT JUMPDEST DUP2 CALLDATALOAD DUP1 ISZERO ISZERO DUP2 EQ PUSH2 0x81B JUMPI PUSH1 0x0 DUP1 REVERT JUMPDEST PUSH1 0x1 PUSH1 0x1 PUSH1 0xA0 SHL SUB DUP2 AND DUP2 EQ PUSH2 0x82C JUMPI PUSH1 0x0 DUP1 REVERT JUMPDEST PUSH1 0x0 DUP1 PUSH1 0x40 DUP4 DUP6 SUB SLT ISZERO PUSH2 0xA09 JUMPI PUSH1 0x0 DUP1 REVERT JUMPDEST DUP3 CALLDATALOAD SWAP2 POP PUSH1 0x20 DUP4 ADD CALLDATALOAD PUSH2 0xA1B DUP2 PUSH2 0x9E1 JUMP JUMPDEST DUP1 SWAP2 POP POP SWAP3 POP SWAP3 SWAP1 POP JUMP JUMPDEST PUSH1 0x0 PUSH1 0x20 DUP3 DUP5 SUB SLT ISZERO PUSH2 0xA38 JUMPI PUSH1 0x0 DUP1 REVERT JUMPDEST DUP2 CALLDATALOAD PUSH2 0x81B DUP2 PUSH2 0x9E1 JUMP JUMPDEST PUSH1 0x0 PUSH1 0x20 DUP3 DUP5 SUB SLT ISZERO PUSH2 0xA55 JUMPI PUSH1 0x0 DUP1 REVERT JUMPDEST POP MLOAD SWAP2 SWAP1 POP JUMP JUMPDEST PUSH4 0x4E487B71 PUSH1 0xE0 SHL PUSH1 0x0 MSTORE PUSH1 0x11 PUSH1 0x4 MSTORE PUSH1 0x24 PUSH1 0x0 REVERT JUMPDEST PUSH1 0x0 DUP2 PUSH1 0x0 NOT DIV DUP4 GT DUP3 ISZERO ISZERO AND ISZERO PUSH2 0xA8C JUMPI PUSH2 0xA8C PUSH2 0xA5C JUMP JUMPDEST POP MUL SWAP1 JUMP JUMPDEST PUSH1 0x0 DUP3 NOT DUP3 GT ISZERO PUSH2 0xAA4 JUMPI PUSH2 0xAA4 PUSH2 0xA5C JUMP JUMPDEST POP ADD SWAP1 JUMP JUMPDEST PUSH4 0x4E487B71 PUSH1 0xE0 SHL PUSH1 0x0 MSTORE PUSH1 0x41 PUSH1 0x4 MSTORE PUSH1 0x24 PUSH1 0x0 REVERT JUMPDEST PUSH4 0x4E487B71 PUSH1 0xE0 SHL PUSH1 0x0 MSTORE PUSH1 0x32 PUSH1 0x4 MSTORE PUSH1 0x24 PUSH1 0x0 REVERT JUMPDEST PUSH1 0x0 DUP2 PUSH2 0xAE4 JUMPI PUSH2 0xAE4 PUSH2 0xA5C JUMP JUMPDEST POP PUSH1 0x0 NOT ADD SWAP1 JUMP JUMPDEST PUSH1 0x0 JUMPDEST DUP4 DUP2 LT ISZERO PUSH2 0xB07 JUMPI DUP2 DUP2 ADD MLOAD DUP4 DUP3 ADD MSTORE PUSH1 0x20 ADD PUSH2 0xAEF JUMP JUMPDEST DUP4 DUP2 GT ISZERO PUSH2 0xB16 JUMPI PUSH1 0x0 DUP5 DUP5 ADD MSTORE JUMPDEST POP POP POP POP JUMP JUMPDEST PUSH32 0x416363657373436F6E74726F6C3A206163636F756E7420000000000000000000 DUP2 MSTORE PUSH1 0x0 DUP4 MLOAD PUSH2 0xB54 DUP2 PUSH1 0x17 DUP6 ADD PUSH1 0x20 DUP9 ADD PUSH2 0xAEC JUMP JUMPDEST PUSH17 0x1034B99036B4B9B9B4B733903937B6329 PUSH1 0x7D SHL PUSH1 0x17 SWAP2 DUP5 ADD SWAP2 DUP3 ADD MSTORE DUP4 MLOAD PUSH2 0xB85 DUP2 PUSH1 0x28 DUP5 ADD PUSH1 0x20 DUP9 ADD PUSH2 0xAEC JUMP JUMPDEST ADD PUSH1 0x28 ADD SWAP5 SWAP4 POP POP POP POP JUMP JUMPDEST PUSH1 0x20 DUP2 MSTORE PUSH1 0x0 DUP3 MLOAD DUP1 PUSH1 0x20 DUP5 ADD MSTORE PUSH2 0xBB0 DUP2 PUSH1 0x40 DUP6 ADD PUSH1 0x20 DUP8 ADD PUSH2 0xAEC JUMP JUMPDEST PUSH1 0x1F ADD PUSH1 0x1F NOT AND SWAP2 SWAP1 SWAP2 ADD PUSH1 0x40 ADD SWAP3 SWAP2 POP POP JUMP INVALID LOG2 PUSH5 0x6970667358 0x22 SLT KECCAK256 SMOD 0x2A 0xCE CALLCODE JUMPDEST SAR 0xC6 0xAF SWAP10 0xF 0xEF SSTORE SWAP14 0xF DIV SDIV CALLCODE GASLIMIT 0xDD 0xD4 PUSH13 0xCBA0EBA538778CD7FCB8F86473 PUSH16 0x6C634300080F00330000000000000000 "
				},
				"gasEstimates": {
					"creation": {
						"codeDepositCost": "613200",
						"executionCost": "infinite",
						"totalCost": "infinite"
					},
					"external": {
						"DEFAULT_ADMIN_ROLE()": "284",
						"changeFreeMintOpen(bool)": "infinite",
						"changeNagaKidsContract(address)": "infinite",
						"changeWhitelistMintOpen(bool)": "infinite",
						"getMaxSupply()": "infinite",
						"getRoleAdmin(bytes32)": "2493",
						"getTotalSupply()": "infinite",
						"grantRole(bytes32,address)": "infinite",
						"hasRole(bytes32,address)": "2695",
						"isFreeMintOpen()": "2338",
						"isWhitelistOpen()": "2383",
						"nagaKidsContract()": "2405",
						"renounceRole(bytes32,address)": "29039",
						"revokeRole(bytes32,address)": "infinite",
						"supportsInterface(bytes4)": "450",
						"whitelistMint()": "infinite"
					}
				},
				"methodIdentifiers": {
					"DEFAULT_ADMIN_ROLE()": "a217fddf",
					"changeFreeMintOpen(bool)": "28438f68",
					"changeNagaKidsContract(address)": "61aec205",
					"changeWhitelistMintOpen(bool)": "dd31a7ba",
					"getMaxSupply()": "4c0f38c2",
					"getRoleAdmin(bytes32)": "248a9ca3",
					"getTotalSupply()": "c4e41b22",
					"grantRole(bytes32,address)": "2f2ff15d",
					"hasRole(bytes32,address)": "91d14854",
					"isFreeMintOpen()": "a6f5f014",
					"isWhitelistOpen()": "94f4504d",
					"nagaKidsContract()": "27c25c20",
					"renounceRole(bytes32,address)": "36568abe",
					"revokeRole(bytes32,address)": "d547741f",
					"supportsInterface(bytes4)": "01ffc9a7",
					"whitelistMint()": "804f43cd"
				}
			},
			"storageLayout": {
				"storage": [
					{
						"astId": 24,
						"contract": "MintNagaKids.sol:MintNagaKids",
						"label": "_roles",
						"offset": 0,
						"slot": "0",
						"type": "t_mapping(t_bytes32,t_struct(RoleData)19_storage)"
					},
					{
						"astId": 403,
						"contract": "MintNagaKids.sol:MintNagaKids",
						"label": "_status",
						"offset": 0,
						"slot": "1",
						"type": "t_uint256"
					},
					{
						"astId": 864,
						"contract": "MintNagaKids.sol:MintNagaKids",
						"label": "nagaKidsContract",
						"offset": 0,
						"slot": "2",
						"type": "t_contract(INagaKidsNFT)852"
					},
					{
						"astId": 866,
						"contract": "MintNagaKids.sol:MintNagaKids",
						"label": "isFreeMintOpen",
						"offset": 20,
						"slot": "2",
						"type": "t_bool"
					},
					{
						"astId": 868,
						"contract": "MintNagaKids.sol:MintNagaKids",
						"label": "isWhitelistOpen",
						"offset": 21,
						"slot": "2",
						"type": "t_bool"
					}
				],
				"types": {
					"t_address": {
						"encoding": "inplace",
						"label": "address",
						"numberOfBytes": "20"
					},
					"t_bool": {
						"encoding": "inplace",
						"label": "bool",
						"numberOfBytes": "1"
					},
					"t_bytes32": {
						"encoding": "inplace",
						"label": "bytes32",
						"numberOfBytes": "32"
					},
					"t_contract(INagaKidsNFT)852": {
						"encoding": "inplace",
						"label": "contract INagaKidsNFT",
						"numberOfBytes": "20"
					},
					"t_mapping(t_address,t_bool)": {
						"encoding": "mapping",
						"key": "t_address",
						"label": "mapping(address => bool)",
						"numberOfBytes": "32",
						"value": "t_bool"
					},
					"t_mapping(t_bytes32,t_struct(RoleData)19_storage)": {
						"encoding": "mapping",
						"key": "t_bytes32",
						"label": "mapping(bytes32 => struct AccessControl.RoleData)",
						"numberOfBytes": "32",
						"value": "t_struct(RoleData)19_storage"
					},
					"t_struct(RoleData)19_storage": {
						"encoding": "inplace",
						"label": "struct AccessControl.RoleData",
						"members": [
							{
								"astId": 16,
								"contract": "MintNagaKids.sol:MintNagaKids",
								"label": "members",
								"offset": 0,
								"slot": "0",
								"type": "t_mapping(t_address,t_bool)"
							},
							{
								"astId": 18,
								"contract": "MintNagaKids.sol:MintNagaKids",
								"label": "adminRole",
								"offset": 0,
								"slot": "1",
								"type": "t_bytes32"
							}
						],
						"numberOfBytes": "64"
					},
					"t_uint256": {
						"encoding": "inplace",
						"label": "uint256",
						"numberOfBytes": "32"
					}
				}
			},
			"userdoc": {
				"kind": "user",
				"methods": {},
				"version": 1
			}
		}
	}
}