{
	"Whitelist.sol": {
		"Whitelist": {
			"abi": [
				{
					"inputs": [
						{
							"internalType": "address",
							"name": "_user",
							"type": "address"
						},
						{
							"internalType": "uint256",
							"name": "_amount",
							"type": "uint256"
						}
					],
					"name": "getHashWhitelist",
					"outputs": [
						{
							"internalType": "bytes32",
							"name": "",
							"type": "bytes32"
						}
					],
					"stateMutability": "pure",
					"type": "function"
				},
				{
					"inputs": [
						{
							"internalType": "bytes32[]",
							"name": "_proof",
							"type": "bytes32[]"
						},
						{
							"internalType": "address",
							"name": "_address",
							"type": "address"
						},
						{
							"internalType": "uint256",
							"name": "_amount",
							"type": "uint256"
						}
					],
					"name": "isWhitelist",
					"outputs": [
						{
							"internalType": "bool",
							"name": "",
							"type": "bool"
						}
					],
					"stateMutability": "view",
					"type": "function"
				},
				{
					"inputs": [],
					"name": "merkleRoot",
					"outputs": [
						{
							"internalType": "bytes32",
							"name": "",
							"type": "bytes32"
						}
					],
					"stateMutability": "view",
					"type": "function"
				}
			],
			"devdoc": {
				"kind": "dev",
				"methods": {},
				"version": 1
			},
			"evm": {
				"assembly": "    /* \"Whitelist.sol\":133:774  contract Whitelist {... */\n  mstore(0x40, 0x80)\n  callvalue\n  dup1\n  iszero\n  tag_1\n  jumpi\n  0x00\n  dup1\n  revert\ntag_1:\n  pop\n  dataSize(sub_0)\n  dup1\n  dataOffset(sub_0)\n  0x00\n  codecopy\n  0x00\n  return\nstop\n\nsub_0: assembly {\n        /* \"Whitelist.sol\":133:774  contract Whitelist {... */\n      mstore(0x40, 0x80)\n      callvalue\n      dup1\n      iszero\n      tag_1\n      jumpi\n      0x00\n      dup1\n      revert\n    tag_1:\n      pop\n      jumpi(tag_2, lt(calldatasize, 0x04))\n      shr(0xe0, calldataload(0x00))\n      dup1\n      0x2eb4a7ab\n      eq\n      tag_3\n      jumpi\n      dup1\n      0xa9f39dbc\n      eq\n      tag_4\n      jumpi\n      dup1\n      0xfeb2386e\n      eq\n      tag_5\n      jumpi\n    tag_2:\n      0x00\n      dup1\n      revert\n        /* \"Whitelist.sol\":161:186  bytes32 public merkleRoot */\n    tag_3:\n      tag_6\n      sload(0x00)\n      dup2\n      jump\n    tag_6:\n      mload(0x40)\n        /* \"#utility.yul\":160:185   */\n      swap1\n      dup2\n      mstore\n        /* \"#utility.yul\":148:150   */\n      0x20\n        /* \"#utility.yul\":133:151   */\n      add\n        /* \"Whitelist.sol\":161:186  bytes32 public merkleRoot */\n    tag_8:\n      mload(0x40)\n      dup1\n      swap2\n      sub\n      swap1\n      return\n        /* \"Whitelist.sol\":612:769  function getHashWhitelist(address _user,uint256 _amount) external pure returns(bytes32) {... */\n    tag_4:\n      tag_6\n      tag_11\n      calldatasize\n      0x04\n      tag_12\n      jump\t// in\n    tag_11:\n        /* \"Whitelist.sol\":728:760  abi.encodePacked(_user, _amount) */\n      mload(0x40)\n      not(0xffffffffffffffffffffffff)\n        /* \"#utility.yul\":1770:1772   */\n      0x60\n        /* \"#utility.yul\":1766:1781   */\n      dup5\n      swap1\n      shl\n        /* \"#utility.yul\":1762:1815   */\n      and\n        /* \"Whitelist.sol\":728:760  abi.encodePacked(_user, _amount) */\n      0x20\n      dup3\n      add\n        /* \"#utility.yul\":1750:1816   */\n      mstore\n        /* \"#utility.yul\":1832:1844   */\n      0x34\n      dup2\n      add\n        /* \"#utility.yul\":1825:1853   */\n      dup3\n      swap1\n      mstore\n        /* \"Whitelist.sol\":691:698  bytes32 */\n      0x00\n      swap1\n        /* \"#utility.yul\":1869:1881   */\n      0x54\n      add\n        /* \"Whitelist.sol\":728:760  abi.encodePacked(_user, _amount) */\n      mload(0x40)\n      0x20\n      dup2\n      dup4\n      sub\n      sub\n      dup2\n      mstore\n      swap1\n      0x40\n      mstore\n        /* \"Whitelist.sol\":718:761  keccak256(abi.encodePacked(_user, _amount)) */\n      dup1\n      mload\n      swap1\n      0x20\n      add\n      keccak256\n        /* \"Whitelist.sol\":711:761  return keccak256(abi.encodePacked(_user, _amount)) */\n      swap1\n      pop\n        /* \"Whitelist.sol\":612:769  function getHashWhitelist(address _user,uint256 _amount) external pure returns(bytes32) {... */\n      swap3\n      swap2\n      pop\n      pop\n      jump\n        /* \"Whitelist.sol\":195:604  function isWhitelist(... */\n    tag_5:\n      tag_15\n      tag_16\n      calldatasize\n      0x04\n      tag_17\n      jump\t// in\n    tag_16:\n      tag_18\n      jump\t// in\n    tag_15:\n      mload(0x40)\n        /* \"#utility.yul\":1566:1580   */\n      swap1\n      iszero\n        /* \"#utility.yul\":1559:1581   */\n      iszero\n        /* \"#utility.yul\":1541:1582   */\n      dup2\n      mstore\n        /* \"#utility.yul\":1529:1531   */\n      0x20\n        /* \"#utility.yul\":1514:1532   */\n      add\n        /* \"Whitelist.sol\":195:604  function isWhitelist(... */\n      tag_8\n        /* \"#utility.yul\":1401:1588   */\n      jump\n        /* \"Whitelist.sol\":195:604  function isWhitelist(... */\n    tag_18:\n        /* \"Whitelist.sol\":335:339  bool */\n      0x00\n        /* \"Whitelist.sol\":356:366  merkleRoot */\n      dup1\n      sload\n        /* \"Whitelist.sol\":356:371  merkleRoot == 0 */\n      dup2\n      sub\n        /* \"Whitelist.sol\":352:412  if (merkleRoot == 0) {... */\n      tag_25\n      jumpi\n      pop\n        /* \"Whitelist.sol\":395:400  false */\n      0x00\n        /* \"Whitelist.sol\":388:400  return false */\n      jump(tag_24)\n        /* \"Whitelist.sol\":352:412  if (merkleRoot == 0) {... */\n    tag_25:\n        /* \"Whitelist.sol\":444:596  MerkleProof.verify(... */\n      tag_26\n        /* \"Whitelist.sol\":481:487  _proof */\n      dup6\n      dup6\n        /* \"Whitelist.sol\":444:596  MerkleProof.verify(... */\n      dup1\n      dup1\n      0x20\n      mul\n      0x20\n      add\n      mload(0x40)\n      swap1\n      dup2\n      add\n      0x40\n      mstore\n      dup1\n      swap4\n      swap3\n      swap2\n      swap1\n      dup2\n      dup2\n      mstore\n      0x20\n      add\n      dup4\n      dup4\n      0x20\n      mul\n      dup1\n      dup3\n      dup5\n      calldatacopy\n      0x00\n      swap3\n      add\n      dup3\n      swap1\n      mstore\n      pop\n        /* \"Whitelist.sol\":506:516  merkleRoot */\n      sload\n        /* \"Whitelist.sol\":545:580  abi.encodePacked(_address, _amount) */\n      mload(0x40)\n      not(0xffffffffffffffffffffffff)\n        /* \"#utility.yul\":1770:1772   */\n      0x60\n        /* \"#utility.yul\":1766:1781   */\n      dup12\n      swap1\n      shl\n        /* \"#utility.yul\":1762:1815   */\n      and\n        /* \"Whitelist.sol\":545:580  abi.encodePacked(_address, _amount) */\n      0x20\n      dup3\n      add\n        /* \"#utility.yul\":1750:1816   */\n      mstore\n        /* \"#utility.yul\":1832:1844   */\n      0x34\n      dup2\n      add\n        /* \"#utility.yul\":1825:1853   */\n      dup10\n      swap1\n      mstore\n        /* \"Whitelist.sol\":506:516  merkleRoot */\n      swap1\n      swap4\n      pop\n        /* \"#utility.yul\":1869:1881   */\n      0x54\n      add\n      swap2\n      pop\n        /* \"Whitelist.sol\":545:580  abi.encodePacked(_address, _amount) */\n      tag_27\n      swap1\n      pop\n        /* \"#utility.yul\":1593:1887   */\n      jump\n        /* \"Whitelist.sol\":545:580  abi.encodePacked(_address, _amount) */\n    tag_27:\n      mload(0x40)\n      0x20\n      dup2\n      dup4\n      sub\n      sub\n      dup2\n      mstore\n      swap1\n      0x40\n      mstore\n        /* \"Whitelist.sol\":535:581  keccak256(abi.encodePacked(_address, _amount)) */\n      dup1\n      mload\n      swap1\n      0x20\n      add\n      keccak256\n        /* \"Whitelist.sol\":444:462  MerkleProof.verify */\n      tag_28\n        /* \"Whitelist.sol\":444:596  MerkleProof.verify(... */\n      jump\t// in\n    tag_26:\n        /* \"Whitelist.sol\":424:596  return... */\n      swap1\n      pop\n        /* \"Whitelist.sol\":195:604  function isWhitelist(... */\n    tag_24:\n      swap5\n      swap4\n      pop\n      pop\n      pop\n      pop\n      jump\t// out\n        /* \"@openzeppelin/contracts/utils/cryptography/MerkleProof.sol\":1154:1338  function verify(... */\n    tag_28:\n        /* \"@openzeppelin/contracts/utils/cryptography/MerkleProof.sol\":1275:1279  bool */\n      0x00\n        /* \"@openzeppelin/contracts/utils/cryptography/MerkleProof.sol\":1327:1331  root */\n      dup3\n        /* \"@openzeppelin/contracts/utils/cryptography/MerkleProof.sol\":1298:1323  processProof(proof, leaf) */\n      tag_30\n        /* \"@openzeppelin/contracts/utils/cryptography/MerkleProof.sol\":1311:1316  proof */\n      dup6\n        /* \"@openzeppelin/contracts/utils/cryptography/MerkleProof.sol\":1318:1322  leaf */\n      dup5\n        /* \"@openzeppelin/contracts/utils/cryptography/MerkleProof.sol\":1298:1310  processProof */\n      tag_31\n        /* \"@openzeppelin/contracts/utils/cryptography/MerkleProof.sol\":1298:1323  processProof(proof, leaf) */\n      jump\t// in\n    tag_30:\n        /* \"@openzeppelin/contracts/utils/cryptography/MerkleProof.sol\":1298:1331  processProof(proof, leaf) == root */\n      eq\n      swap5\n        /* \"@openzeppelin/contracts/utils/cryptography/MerkleProof.sol\":1154:1338  function verify(... */\n      swap4\n      pop\n      pop\n      pop\n      pop\n      jump\t// out\n        /* \"@openzeppelin/contracts/utils/cryptography/MerkleProof.sol\":1689:2351  function processProof(bytes32[] memory proof, bytes32 leaf) internal pure returns (bytes32) {... */\n    tag_31:\n        /* \"@openzeppelin/contracts/utils/cryptography/MerkleProof.sol\":1772:1779  bytes32 */\n      0x00\n        /* \"@openzeppelin/contracts/utils/cryptography/MerkleProof.sol\":1814:1818  leaf */\n      dup2\n        /* \"@openzeppelin/contracts/utils/cryptography/MerkleProof.sol\":1772:1779  bytes32 */\n      dup2\n        /* \"@openzeppelin/contracts/utils/cryptography/MerkleProof.sol\":1828:2316  for (uint256 i = 0; i < proof.length; i++) {... */\n    tag_33:\n        /* \"@openzeppelin/contracts/utils/cryptography/MerkleProof.sol\":1852:1857  proof */\n      dup5\n        /* \"@openzeppelin/contracts/utils/cryptography/MerkleProof.sol\":1852:1864  proof.length */\n      mload\n        /* \"@openzeppelin/contracts/utils/cryptography/MerkleProof.sol\":1848:1849  i */\n      dup2\n        /* \"@openzeppelin/contracts/utils/cryptography/MerkleProof.sol\":1848:1864  i < proof.length */\n      lt\n        /* \"@openzeppelin/contracts/utils/cryptography/MerkleProof.sol\":1828:2316  for (uint256 i = 0; i < proof.length; i++) {... */\n      iszero\n      tag_34\n      jumpi\n        /* \"@openzeppelin/contracts/utils/cryptography/MerkleProof.sol\":1885:1905  bytes32 proofElement */\n      0x00\n        /* \"@openzeppelin/contracts/utils/cryptography/MerkleProof.sol\":1908:1913  proof */\n      dup6\n        /* \"@openzeppelin/contracts/utils/cryptography/MerkleProof.sol\":1914:1915  i */\n      dup3\n        /* \"@openzeppelin/contracts/utils/cryptography/MerkleProof.sol\":1908:1916  proof[i] */\n      dup2\n      mload\n      dup2\n      lt\n      tag_37\n      jumpi\n      tag_37\n      tag_38\n      jump\t// in\n    tag_37:\n      0x20\n      mul\n      0x20\n      add\n      add\n      mload\n        /* \"@openzeppelin/contracts/utils/cryptography/MerkleProof.sol\":1885:1916  bytes32 proofElement = proof[i] */\n      swap1\n      pop\n        /* \"@openzeppelin/contracts/utils/cryptography/MerkleProof.sol\":1950:1962  proofElement */\n      dup1\n        /* \"@openzeppelin/contracts/utils/cryptography/MerkleProof.sol\":1934:1946  computedHash */\n      dup4\n        /* \"@openzeppelin/contracts/utils/cryptography/MerkleProof.sol\":1934:1962  computedHash <= proofElement */\n      gt\n        /* \"@openzeppelin/contracts/utils/cryptography/MerkleProof.sol\":1930:2306  if (computedHash <= proofElement) {... */\n      tag_39\n      jumpi\n        /* \"@openzeppelin/contracts/utils/cryptography/MerkleProof.sol\":2425:2438  bytes32 value */\n      0x00\n        /* \"@openzeppelin/contracts/utils/cryptography/MerkleProof.sol\":2473:2488  mstore(0x00, a) */\n      dup4\n      dup2\n      mstore\n        /* \"@openzeppelin/contracts/utils/cryptography/MerkleProof.sol\":2508:2512  0x20 */\n      0x20\n        /* \"@openzeppelin/contracts/utils/cryptography/MerkleProof.sol\":2501:2516  mstore(0x20, b) */\n      dup3\n      swap1\n      mstore\n        /* \"@openzeppelin/contracts/utils/cryptography/MerkleProof.sol\":2554:2558  0x40 */\n      0x40\n        /* \"@openzeppelin/contracts/utils/cryptography/MerkleProof.sol\":2538:2559  keccak256(0x00, 0x40) */\n      swap1\n      keccak256\n        /* \"@openzeppelin/contracts/utils/cryptography/MerkleProof.sol\":2060:2117  computedHash = _efficientHash(computedHash, proofElement) */\n      swap3\n      pop\n        /* \"@openzeppelin/contracts/utils/cryptography/MerkleProof.sol\":1930:2306  if (computedHash <= proofElement) {... */\n      jump(tag_42)\n    tag_39:\n        /* \"@openzeppelin/contracts/utils/cryptography/MerkleProof.sol\":2425:2438  bytes32 value */\n      0x00\n        /* \"@openzeppelin/contracts/utils/cryptography/MerkleProof.sol\":2473:2488  mstore(0x00, a) */\n      dup2\n      dup2\n      mstore\n        /* \"@openzeppelin/contracts/utils/cryptography/MerkleProof.sol\":2508:2512  0x20 */\n      0x20\n        /* \"@openzeppelin/contracts/utils/cryptography/MerkleProof.sol\":2501:2516  mstore(0x20, b) */\n      dup5\n      swap1\n      mstore\n        /* \"@openzeppelin/contracts/utils/cryptography/MerkleProof.sol\":2554:2558  0x40 */\n      0x40\n        /* \"@openzeppelin/contracts/utils/cryptography/MerkleProof.sol\":2538:2559  keccak256(0x00, 0x40) */\n      swap1\n      keccak256\n        /* \"@openzeppelin/contracts/utils/cryptography/MerkleProof.sol\":2234:2291  computedHash = _efficientHash(proofElement, computedHash) */\n      swap3\n      pop\n        /* \"@openzeppelin/contracts/utils/cryptography/MerkleProof.sol\":1930:2306  if (computedHash <= proofElement) {... */\n    tag_42:\n      pop\n        /* \"@openzeppelin/contracts/utils/cryptography/MerkleProof.sol\":1866:1869  i++ */\n      dup1\n      tag_44\n      dup2\n      tag_45\n      jump\t// in\n    tag_44:\n      swap2\n      pop\n      pop\n        /* \"@openzeppelin/contracts/utils/cryptography/MerkleProof.sol\":1828:2316  for (uint256 i = 0; i < proof.length; i++) {... */\n      jump(tag_33)\n    tag_34:\n      pop\n        /* \"@openzeppelin/contracts/utils/cryptography/MerkleProof.sol\":2332:2344  computedHash */\n      swap4\n        /* \"@openzeppelin/contracts/utils/cryptography/MerkleProof.sol\":1689:2351  function processProof(bytes32[] memory proof, bytes32 leaf) internal pure returns (bytes32) {... */\n      swap3\n      pop\n      pop\n      pop\n      jump\t// out\n        /* \"#utility.yul\":196:369   */\n    tag_47:\n        /* \"#utility.yul\":264:284   */\n      dup1\n      calldataload\n      sub(shl(0xa0, 0x01), 0x01)\n        /* \"#utility.yul\":313:344   */\n      dup2\n      and\n        /* \"#utility.yul\":303:345   */\n      dup2\n      eq\n        /* \"#utility.yul\":293:363   */\n      tag_51\n      jumpi\n        /* \"#utility.yul\":359:360   */\n      0x00\n        /* \"#utility.yul\":356:357   */\n      dup1\n        /* \"#utility.yul\":349:361   */\n      revert\n        /* \"#utility.yul\":293:363   */\n    tag_51:\n        /* \"#utility.yul\":196:369   */\n      swap2\n      swap1\n      pop\n      jump\t// out\n        /* \"#utility.yul\":374:628   */\n    tag_12:\n        /* \"#utility.yul\":442:448   */\n      0x00\n        /* \"#utility.yul\":450:456   */\n      dup1\n        /* \"#utility.yul\":503:505   */\n      0x40\n        /* \"#utility.yul\":491:500   */\n      dup4\n        /* \"#utility.yul\":482:489   */\n      dup6\n        /* \"#utility.yul\":478:501   */\n      sub\n        /* \"#utility.yul\":474:506   */\n      slt\n        /* \"#utility.yul\":471:523   */\n      iszero\n      tag_53\n      jumpi\n        /* \"#utility.yul\":519:520   */\n      0x00\n        /* \"#utility.yul\":516:517   */\n      dup1\n        /* \"#utility.yul\":509:521   */\n      revert\n        /* \"#utility.yul\":471:523   */\n    tag_53:\n        /* \"#utility.yul\":542:571   */\n      tag_54\n        /* \"#utility.yul\":561:570   */\n      dup4\n        /* \"#utility.yul\":542:571   */\n      tag_47\n      jump\t// in\n    tag_54:\n        /* \"#utility.yul\":532:571   */\n      swap5\n        /* \"#utility.yul\":618:620   */\n      0x20\n        /* \"#utility.yul\":603:621   */\n      swap4\n      swap1\n      swap4\n      add\n        /* \"#utility.yul\":590:622   */\n      calldataload\n      swap4\n      pop\n      pop\n      pop\n        /* \"#utility.yul\":374:628   */\n      jump\t// out\n        /* \"#utility.yul\":633:1396   */\n    tag_17:\n        /* \"#utility.yul\":737:743   */\n      0x00\n        /* \"#utility.yul\":745:751   */\n      dup1\n        /* \"#utility.yul\":753:759   */\n      0x00\n        /* \"#utility.yul\":761:767   */\n      dup1\n        /* \"#utility.yul\":814:816   */\n      0x60\n        /* \"#utility.yul\":802:811   */\n      dup6\n        /* \"#utility.yul\":793:800   */\n      dup8\n        /* \"#utility.yul\":789:812   */\n      sub\n        /* \"#utility.yul\":785:817   */\n      slt\n        /* \"#utility.yul\":782:834   */\n      iszero\n      tag_56\n      jumpi\n        /* \"#utility.yul\":830:831   */\n      0x00\n        /* \"#utility.yul\":827:828   */\n      dup1\n        /* \"#utility.yul\":820:832   */\n      revert\n        /* \"#utility.yul\":782:834   */\n    tag_56:\n        /* \"#utility.yul\":870:879   */\n      dup5\n        /* \"#utility.yul\":857:880   */\n      calldataload\n        /* \"#utility.yul\":899:917   */\n      0xffffffffffffffff\n        /* \"#utility.yul\":940:942   */\n      dup1\n        /* \"#utility.yul\":932:938   */\n      dup3\n        /* \"#utility.yul\":929:943   */\n      gt\n        /* \"#utility.yul\":926:960   */\n      iszero\n      tag_57\n      jumpi\n        /* \"#utility.yul\":956:957   */\n      0x00\n        /* \"#utility.yul\":953:954   */\n      dup1\n        /* \"#utility.yul\":946:958   */\n      revert\n        /* \"#utility.yul\":926:960   */\n    tag_57:\n        /* \"#utility.yul\":994:1000   */\n      dup2\n        /* \"#utility.yul\":983:992   */\n      dup8\n        /* \"#utility.yul\":979:1001   */\n      add\n        /* \"#utility.yul\":969:1001   */\n      swap2\n      pop\n        /* \"#utility.yul\":1039:1046   */\n      dup8\n        /* \"#utility.yul\":1032:1036   */\n      0x1f\n        /* \"#utility.yul\":1028:1030   */\n      dup4\n        /* \"#utility.yul\":1024:1037   */\n      add\n        /* \"#utility.yul\":1020:1047   */\n      slt\n        /* \"#utility.yul\":1010:1065   */\n      tag_58\n      jumpi\n        /* \"#utility.yul\":1061:1062   */\n      0x00\n        /* \"#utility.yul\":1058:1059   */\n      dup1\n        /* \"#utility.yul\":1051:1063   */\n      revert\n        /* \"#utility.yul\":1010:1065   */\n    tag_58:\n        /* \"#utility.yul\":1101:1103   */\n      dup2\n        /* \"#utility.yul\":1088:1104   */\n      calldataload\n        /* \"#utility.yul\":1127:1129   */\n      dup2\n        /* \"#utility.yul\":1119:1125   */\n      dup2\n        /* \"#utility.yul\":1116:1130   */\n      gt\n        /* \"#utility.yul\":1113:1147   */\n      iszero\n      tag_59\n      jumpi\n        /* \"#utility.yul\":1143:1144   */\n      0x00\n        /* \"#utility.yul\":1140:1141   */\n      dup1\n        /* \"#utility.yul\":1133:1145   */\n      revert\n        /* \"#utility.yul\":1113:1147   */\n    tag_59:\n        /* \"#utility.yul\":1198:1205   */\n      dup9\n        /* \"#utility.yul\":1191:1195   */\n      0x20\n        /* \"#utility.yul\":1181:1187   */\n      dup3\n        /* \"#utility.yul\":1178:1179   */\n      0x05\n        /* \"#utility.yul\":1174:1188   */\n      shl\n        /* \"#utility.yul\":1170:1172   */\n      dup6\n        /* \"#utility.yul\":1166:1189   */\n      add\n        /* \"#utility.yul\":1162:1196   */\n      add\n        /* \"#utility.yul\":1159:1206   */\n      gt\n        /* \"#utility.yul\":1156:1223   */\n      iszero\n      tag_60\n      jumpi\n        /* \"#utility.yul\":1219:1220   */\n      0x00\n        /* \"#utility.yul\":1216:1217   */\n      dup1\n        /* \"#utility.yul\":1209:1221   */\n      revert\n        /* \"#utility.yul\":1156:1223   */\n    tag_60:\n        /* \"#utility.yul\":1250:1254   */\n      0x20\n        /* \"#utility.yul\":1242:1255   */\n      swap3\n      dup4\n      add\n      swap7\n      pop\n        /* \"#utility.yul\":1274:1280   */\n      swap5\n      pop\n        /* \"#utility.yul\":1299:1339   */\n      tag_61\n      swap2\n        /* \"#utility.yul\":1318:1338   */\n      dup8\n      add\n      swap1\n      pop\n        /* \"#utility.yul\":1299:1339   */\n      tag_47\n      jump\t// in\n    tag_61:\n        /* \"#utility.yul\":633:1396   */\n      swap4\n      swap7\n      swap3\n      swap6\n      pop\n        /* \"#utility.yul\":1289:1339   */\n      swap3\n      swap4\n        /* \"#utility.yul\":1386:1388   */\n      0x40\n        /* \"#utility.yul\":1371:1389   */\n      add\n        /* \"#utility.yul\":1358:1390   */\n      calldataload\n      swap3\n      pop\n      pop\n        /* \"#utility.yul\":633:1396   */\n      jump\t// out\n        /* \"#utility.yul\":1892:2019   */\n    tag_38:\n        /* \"#utility.yul\":1953:1963   */\n      0x4e487b71\n        /* \"#utility.yul\":1948:1951   */\n      0xe0\n        /* \"#utility.yul\":1944:1964   */\n      shl\n        /* \"#utility.yul\":1941:1942   */\n      0x00\n        /* \"#utility.yul\":1934:1965   */\n      mstore\n        /* \"#utility.yul\":1984:1988   */\n      0x32\n        /* \"#utility.yul\":1981:1982   */\n      0x04\n        /* \"#utility.yul\":1974:1989   */\n      mstore\n        /* \"#utility.yul\":2008:2012   */\n      0x24\n        /* \"#utility.yul\":2005:2006   */\n      0x00\n        /* \"#utility.yul\":1998:2013   */\n      revert\n        /* \"#utility.yul\":2024:2256   */\n    tag_45:\n        /* \"#utility.yul\":2063:2066   */\n      0x00\n        /* \"#utility.yul\":2084:2101   */\n      0x01\n      dup3\n      add\n        /* \"#utility.yul\":2081:2221   */\n      tag_66\n      jumpi\n        /* \"#utility.yul\":2143:2153   */\n      0x4e487b71\n        /* \"#utility.yul\":2138:2141   */\n      0xe0\n        /* \"#utility.yul\":2134:2154   */\n      shl\n        /* \"#utility.yul\":2131:2132   */\n      0x00\n        /* \"#utility.yul\":2124:2155   */\n      mstore\n        /* \"#utility.yul\":2178:2182   */\n      0x11\n        /* \"#utility.yul\":2175:2176   */\n      0x04\n        /* \"#utility.yul\":2168:2183   */\n      mstore\n        /* \"#utility.yul\":2206:2210   */\n      0x24\n        /* \"#utility.yul\":2203:2204   */\n      0x00\n        /* \"#utility.yul\":2196:2211   */\n      revert\n        /* \"#utility.yul\":2081:2221   */\n    tag_66:\n      pop\n        /* \"#utility.yul\":2248:2249   */\n      0x01\n        /* \"#utility.yul\":2237:2250   */\n      add\n      swap1\n        /* \"#utility.yul\":2024:2256   */\n      jump\t// out\n\n    auxdata: 0xa2646970667358221220361f66daa8cf8e54c199c2b91527cbd8c634b5dd3dfb37720678fb57d795d5ba64736f6c634300080f0033\n}\n",
				"bytecode": {
					"linkReferences": {},
					"object": "608060405234801561001057600080fd5b50610346806100206000396000f3fe608060405234801561001057600080fd5b50600436106100415760003560e01c80632eb4a7ab14610046578063a9f39dbc14610062578063feb2386e146100b7575b600080fd5b61004f60005481565b6040519081526020015b60405180910390f35b61004f61007036600461021d565b6040516bffffffffffffffffffffffff19606084901b1660208201526034810182905260009060540160405160208183030381529060405280519060200120905092915050565b6100ca6100c5366004610247565b6100da565b6040519015158152602001610059565b6000805481036100ec5750600061016f565b61016c8585808060200260200160405190810160405280939291908181526020018383602002808284376000920182905250546040516bffffffffffffffffffffffff1960608b901b1660208201526034810189905290935060540191506101519050565b60405160208183030381529060405280519060200120610177565b90505b949350505050565b600082610184858461018d565b14949350505050565b600081815b84518110156101f95760008582815181106101af576101af6102d3565b602002602001015190508083116101d557600083815260208290526040902092506101e6565b600081815260208490526040902092505b50806101f1816102e9565b915050610192565b509392505050565b80356001600160a01b038116811461021857600080fd5b919050565b6000806040838503121561023057600080fd5b61023983610201565b946020939093013593505050565b6000806000806060858703121561025d57600080fd5b843567ffffffffffffffff8082111561027557600080fd5b818701915087601f83011261028957600080fd5b81358181111561029857600080fd5b8860208260051b85010111156102ad57600080fd5b6020928301965094506102c39187019050610201565b9396929550929360400135925050565b634e487b7160e01b600052603260045260246000fd5b60006001820161030957634e487b7160e01b600052601160045260246000fd5b506001019056fea2646970667358221220361f66daa8cf8e54c199c2b91527cbd8c634b5dd3dfb37720678fb57d795d5ba64736f6c634300080f0033",
					"opcodes": "PUSH1 0x80 PUSH1 0x40 MSTORE CALLVALUE DUP1 ISZERO PUSH2 0x10 JUMPI PUSH1 0x0 DUP1 REVERT JUMPDEST POP PUSH2 0x346 DUP1 PUSH2 0x20 PUSH1 0x0 CODECOPY PUSH1 0x0 RETURN INVALID PUSH1 0x80 PUSH1 0x40 MSTORE CALLVALUE DUP1 ISZERO PUSH2 0x10 JUMPI PUSH1 0x0 DUP1 REVERT JUMPDEST POP PUSH1 0x4 CALLDATASIZE LT PUSH2 0x41 JUMPI PUSH1 0x0 CALLDATALOAD PUSH1 0xE0 SHR DUP1 PUSH4 0x2EB4A7AB EQ PUSH2 0x46 JUMPI DUP1 PUSH4 0xA9F39DBC EQ PUSH2 0x62 JUMPI DUP1 PUSH4 0xFEB2386E EQ PUSH2 0xB7 JUMPI JUMPDEST PUSH1 0x0 DUP1 REVERT JUMPDEST PUSH2 0x4F PUSH1 0x0 SLOAD DUP2 JUMP JUMPDEST PUSH1 0x40 MLOAD SWAP1 DUP2 MSTORE PUSH1 0x20 ADD JUMPDEST PUSH1 0x40 MLOAD DUP1 SWAP2 SUB SWAP1 RETURN JUMPDEST PUSH2 0x4F PUSH2 0x70 CALLDATASIZE PUSH1 0x4 PUSH2 0x21D JUMP JUMPDEST PUSH1 0x40 MLOAD PUSH12 0xFFFFFFFFFFFFFFFFFFFFFFFF NOT PUSH1 0x60 DUP5 SWAP1 SHL AND PUSH1 0x20 DUP3 ADD MSTORE PUSH1 0x34 DUP2 ADD DUP3 SWAP1 MSTORE PUSH1 0x0 SWAP1 PUSH1 0x54 ADD PUSH1 0x40 MLOAD PUSH1 0x20 DUP2 DUP4 SUB SUB DUP2 MSTORE SWAP1 PUSH1 0x40 MSTORE DUP1 MLOAD SWAP1 PUSH1 0x20 ADD KECCAK256 SWAP1 POP SWAP3 SWAP2 POP POP JUMP JUMPDEST PUSH2 0xCA PUSH2 0xC5 CALLDATASIZE PUSH1 0x4 PUSH2 0x247 JUMP JUMPDEST PUSH2 0xDA JUMP JUMPDEST PUSH1 0x40 MLOAD SWAP1 ISZERO ISZERO DUP2 MSTORE PUSH1 0x20 ADD PUSH2 0x59 JUMP JUMPDEST PUSH1 0x0 DUP1 SLOAD DUP2 SUB PUSH2 0xEC JUMPI POP PUSH1 0x0 PUSH2 0x16F JUMP JUMPDEST PUSH2 0x16C DUP6 DUP6 DUP1 DUP1 PUSH1 0x20 MUL PUSH1 0x20 ADD PUSH1 0x40 MLOAD SWAP1 DUP2 ADD PUSH1 0x40 MSTORE DUP1 SWAP4 SWAP3 SWAP2 SWAP1 DUP2 DUP2 MSTORE PUSH1 0x20 ADD DUP4 DUP4 PUSH1 0x20 MUL DUP1 DUP3 DUP5 CALLDATACOPY PUSH1 0x0 SWAP3 ADD DUP3 SWAP1 MSTORE POP SLOAD PUSH1 0x40 MLOAD PUSH12 0xFFFFFFFFFFFFFFFFFFFFFFFF NOT PUSH1 0x60 DUP12 SWAP1 SHL AND PUSH1 0x20 DUP3 ADD MSTORE PUSH1 0x34 DUP2 ADD DUP10 SWAP1 MSTORE SWAP1 SWAP4 POP PUSH1 0x54 ADD SWAP2 POP PUSH2 0x151 SWAP1 POP JUMP JUMPDEST PUSH1 0x40 MLOAD PUSH1 0x20 DUP2 DUP4 SUB SUB DUP2 MSTORE SWAP1 PUSH1 0x40 MSTORE DUP1 MLOAD SWAP1 PUSH1 0x20 ADD KECCAK256 PUSH2 0x177 JUMP JUMPDEST SWAP1 POP JUMPDEST SWAP5 SWAP4 POP POP POP POP JUMP JUMPDEST PUSH1 0x0 DUP3 PUSH2 0x184 DUP6 DUP5 PUSH2 0x18D JUMP JUMPDEST EQ SWAP5 SWAP4 POP POP POP POP JUMP JUMPDEST PUSH1 0x0 DUP2 DUP2 JUMPDEST DUP5 MLOAD DUP2 LT ISZERO PUSH2 0x1F9 JUMPI PUSH1 0x0 DUP6 DUP3 DUP2 MLOAD DUP2 LT PUSH2 0x1AF JUMPI PUSH2 0x1AF PUSH2 0x2D3 JUMP JUMPDEST PUSH1 0x20 MUL PUSH1 0x20 ADD ADD MLOAD SWAP1 POP DUP1 DUP4 GT PUSH2 0x1D5 JUMPI PUSH1 0x0 DUP4 DUP2 MSTORE PUSH1 0x20 DUP3 SWAP1 MSTORE PUSH1 0x40 SWAP1 KECCAK256 SWAP3 POP PUSH2 0x1E6 JUMP JUMPDEST PUSH1 0x0 DUP2 DUP2 MSTORE PUSH1 0x20 DUP5 SWAP1 MSTORE PUSH1 0x40 SWAP1 KECCAK256 SWAP3 POP JUMPDEST POP DUP1 PUSH2 0x1F1 DUP2 PUSH2 0x2E9 JUMP JUMPDEST SWAP2 POP POP PUSH2 0x192 JUMP JUMPDEST POP SWAP4 SWAP3 POP POP POP JUMP JUMPDEST DUP1 CALLDATALOAD PUSH1 0x1 PUSH1 0x1 PUSH1 0xA0 SHL SUB DUP2 AND DUP2 EQ PUSH2 0x218 JUMPI PUSH1 0x0 DUP1 REVERT JUMPDEST SWAP2 SWAP1 POP JUMP JUMPDEST PUSH1 0x0 DUP1 PUSH1 0x40 DUP4 DUP6 SUB SLT ISZERO PUSH2 0x230 JUMPI PUSH1 0x0 DUP1 REVERT JUMPDEST PUSH2 0x239 DUP4 PUSH2 0x201 JUMP JUMPDEST SWAP5 PUSH1 0x20 SWAP4 SWAP1 SWAP4 ADD CALLDATALOAD SWAP4 POP POP POP JUMP JUMPDEST PUSH1 0x0 DUP1 PUSH1 0x0 DUP1 PUSH1 0x60 DUP6 DUP8 SUB SLT ISZERO PUSH2 0x25D JUMPI PUSH1 0x0 DUP1 REVERT JUMPDEST DUP5 CALLDATALOAD PUSH8 0xFFFFFFFFFFFFFFFF DUP1 DUP3 GT ISZERO PUSH2 0x275 JUMPI PUSH1 0x0 DUP1 REVERT JUMPDEST DUP2 DUP8 ADD SWAP2 POP DUP8 PUSH1 0x1F DUP4 ADD SLT PUSH2 0x289 JUMPI PUSH1 0x0 DUP1 REVERT JUMPDEST DUP2 CALLDATALOAD DUP2 DUP2 GT ISZERO PUSH2 0x298 JUMPI PUSH1 0x0 DUP1 REVERT JUMPDEST DUP9 PUSH1 0x20 DUP3 PUSH1 0x5 SHL DUP6 ADD ADD GT ISZERO PUSH2 0x2AD JUMPI PUSH1 0x0 DUP1 REVERT JUMPDEST PUSH1 0x20 SWAP3 DUP4 ADD SWAP7 POP SWAP5 POP PUSH2 0x2C3 SWAP2 DUP8 ADD SWAP1 POP PUSH2 0x201 JUMP JUMPDEST SWAP4 SWAP7 SWAP3 SWAP6 POP SWAP3 SWAP4 PUSH1 0x40 ADD CALLDATALOAD SWAP3 POP POP JUMP JUMPDEST PUSH4 0x4E487B71 PUSH1 0xE0 SHL PUSH1 0x0 MSTORE PUSH1 0x32 PUSH1 0x4 MSTORE PUSH1 0x24 PUSH1 0x0 REVERT JUMPDEST PUSH1 0x0 PUSH1 0x1 DUP3 ADD PUSH2 0x309 JUMPI PUSH4 0x4E487B71 PUSH1 0xE0 SHL PUSH1 0x0 MSTORE PUSH1 0x11 PUSH1 0x4 MSTORE PUSH1 0x24 PUSH1 0x0 REVERT JUMPDEST POP PUSH1 0x1 ADD SWAP1 JUMP INVALID LOG2 PUSH5 0x6970667358 0x22 SLT KECCAK256 CALLDATASIZE 0x1F PUSH7 0xDAA8CF8E54C199 0xC2 0xB9 ISZERO 0x27 0xCB 0xD8 0xC6 CALLVALUE 0xB5 0xDD RETURNDATASIZE 0xFB CALLDATACOPY PUSH19 0x678FB57D795D5BA64736F6C634300080F0033 "
				},
				"gasEstimates": {
					"creation": {
						"codeDepositCost": "167600",
						"executionCost": "214",
						"totalCost": "167814"
					},
					"external": {
						"getHashWhitelist(address,uint256)": "543",
						"isWhitelist(bytes32[],address,uint256)": "infinite",
						"merkleRoot()": "2262"
					}
				},
				"methodIdentifiers": {
					"getHashWhitelist(address,uint256)": "a9f39dbc",
					"isWhitelist(bytes32[],address,uint256)": "feb2386e",
					"merkleRoot()": "2eb4a7ab"
				}
			},
			"storageLayout": {
				"storage": [
					{
						"astId": 97,
						"contract": "Whitelist.sol:Whitelist",
						"label": "merkleRoot",
						"offset": 0,
						"slot": "0",
						"type": "t_bytes32"
					}
				],
				"types": {
					"t_bytes32": {
						"encoding": "inplace",
						"label": "bytes32",
						"numberOfBytes": "32"
					}
				}
			},
			"userdoc": {
				"kind": "user",
				"methods": {},
				"version": 1
			}
		}
	}
}