{
	"MintNagaKids.sol": {
		"MintNagaKids": {
			"abi": [
				{
					"inputs": [
						{
							"internalType": "contract INagaKidsNFT",
							"name": "_nagaKids",
							"type": "address"
						},
						{
							"internalType": "bytes32",
							"name": "_merkleRoot",
							"type": "bytes32"
						}
					],
					"stateMutability": "nonpayable",
					"type": "constructor"
				},
				{
					"anonymous": false,
					"inputs": [
						{
							"indexed": true,
							"internalType": "address",
							"name": "user",
							"type": "address"
						},
						{
							"indexed": false,
							"internalType": "uint256",
							"name": "timestamp",
							"type": "uint256"
						}
					],
					"name": "PublicMinted",
					"type": "event"
				},
				{
					"anonymous": false,
					"inputs": [
						{
							"indexed": true,
							"internalType": "bytes32",
							"name": "role",
							"type": "bytes32"
						},
						{
							"indexed": true,
							"internalType": "bytes32",
							"name": "previousAdminRole",
							"type": "bytes32"
						},
						{
							"indexed": true,
							"internalType": "bytes32",
							"name": "newAdminRole",
							"type": "bytes32"
						}
					],
					"name": "RoleAdminChanged",
					"type": "event"
				},
				{
					"anonymous": false,
					"inputs": [
						{
							"indexed": true,
							"internalType": "bytes32",
							"name": "role",
							"type": "bytes32"
						},
						{
							"indexed": true,
							"internalType": "address",
							"name": "account",
							"type": "address"
						},
						{
							"indexed": true,
							"internalType": "address",
							"name": "sender",
							"type": "address"
						}
					],
					"name": "RoleGranted",
					"type": "event"
				},
				{
					"anonymous": false,
					"inputs": [
						{
							"indexed": true,
							"internalType": "bytes32",
							"name": "role",
							"type": "bytes32"
						},
						{
							"indexed": true,
							"internalType": "address",
							"name": "account",
							"type": "address"
						},
						{
							"indexed": true,
							"internalType": "address",
							"name": "sender",
							"type": "address"
						}
					],
					"name": "RoleRevoked",
					"type": "event"
				},
				{
					"anonymous": false,
					"inputs": [
						{
							"indexed": true,
							"internalType": "address",
							"name": "user",
							"type": "address"
						},
						{
							"indexed": false,
							"internalType": "uint256",
							"name": "amount",
							"type": "uint256"
						},
						{
							"indexed": false,
							"internalType": "uint256",
							"name": "timestamp",
							"type": "uint256"
						}
					],
					"name": "WhitelistMinted",
					"type": "event"
				},
				{
					"inputs": [],
					"name": "DEFAULT_ADMIN_ROLE",
					"outputs": [
						{
							"internalType": "bytes32",
							"name": "",
							"type": "bytes32"
						}
					],
					"stateMutability": "view",
					"type": "function"
				},
				{
					"inputs": [
						{
							"internalType": "bytes32",
							"name": "_messageHash",
							"type": "bytes32"
						}
					],
					"name": "getEthSignedMessageHash",
					"outputs": [
						{
							"internalType": "bytes32",
							"name": "",
							"type": "bytes32"
						}
					],
					"stateMutability": "pure",
					"type": "function"
				},
				{
					"inputs": [],
					"name": "getMaxSupply",
					"outputs": [
						{
							"internalType": "uint256",
							"name": "",
							"type": "uint256"
						}
					],
					"stateMutability": "view",
					"type": "function"
				},
				{
					"inputs": [
						{
							"internalType": "address",
							"name": "_user",
							"type": "address"
						}
					],
					"name": "getMessageHash",
					"outputs": [
						{
							"internalType": "bytes32",
							"name": "",
							"type": "bytes32"
						}
					],
					"stateMutability": "view",
					"type": "function"
				},
				{
					"inputs": [
						{
							"internalType": "bytes32",
							"name": "role",
							"type": "bytes32"
						}
					],
					"name": "getRoleAdmin",
					"outputs": [
						{
							"internalType": "bytes32",
							"name": "",
							"type": "bytes32"
						}
					],
					"stateMutability": "view",
					"type": "function"
				},
				{
					"inputs": [],
					"name": "getTotalSupply",
					"outputs": [
						{
							"internalType": "uint256",
							"name": "",
							"type": "uint256"
						}
					],
					"stateMutability": "view",
					"type": "function"
				},
				{
					"inputs": [
						{
							"internalType": "bytes32",
							"name": "role",
							"type": "bytes32"
						},
						{
							"internalType": "address",
							"name": "account",
							"type": "address"
						}
					],
					"name": "grantRole",
					"outputs": [],
					"stateMutability": "nonpayable",
					"type": "function"
				},
				{
					"inputs": [
						{
							"internalType": "bytes32",
							"name": "role",
							"type": "bytes32"
						},
						{
							"internalType": "address",
							"name": "account",
							"type": "address"
						}
					],
					"name": "hasRole",
					"outputs": [
						{
							"internalType": "bool",
							"name": "",
							"type": "bool"
						}
					],
					"stateMutability": "view",
					"type": "function"
				},
				{
					"inputs": [],
					"name": "isPause",
					"outputs": [
						{
							"internalType": "bool",
							"name": "",
							"type": "bool"
						}
					],
					"stateMutability": "view",
					"type": "function"
				},
				{
					"inputs": [
						{
							"internalType": "address",
							"name": "_user",
							"type": "address"
						}
					],
					"name": "isPublicMinted",
					"outputs": [
						{
							"internalType": "bool",
							"name": "",
							"type": "bool"
						}
					],
					"stateMutability": "view",
					"type": "function"
				},
				{
					"inputs": [],
					"name": "isPublicOpen",
					"outputs": [
						{
							"internalType": "bool",
							"name": "",
							"type": "bool"
						}
					],
					"stateMutability": "view",
					"type": "function"
				},
				{
					"inputs": [
						{
							"internalType": "address",
							"name": "_user",
							"type": "address"
						}
					],
					"name": "isWhitelistMinted",
					"outputs": [
						{
							"internalType": "bool",
							"name": "",
							"type": "bool"
						}
					],
					"stateMutability": "view",
					"type": "function"
				},
				{
					"inputs": [
						{
							"internalType": "address",
							"name": "_user",
							"type": "address"
						}
					],
					"name": "isWhitelistMintedAmount",
					"outputs": [
						{
							"internalType": "uint256",
							"name": "",
							"type": "uint256"
						}
					],
					"stateMutability": "view",
					"type": "function"
				},
				{
					"inputs": [],
					"name": "isWhitelistOpen",
					"outputs": [
						{
							"internalType": "bool",
							"name": "",
							"type": "bool"
						}
					],
					"stateMutability": "view",
					"type": "function"
				},
				{
					"inputs": [],
					"name": "merkleRoot",
					"outputs": [
						{
							"internalType": "bytes32",
							"name": "",
							"type": "bytes32"
						}
					],
					"stateMutability": "view",
					"type": "function"
				},
				{
					"inputs": [],
					"name": "nagaKidsContract",
					"outputs": [
						{
							"internalType": "contract INagaKidsNFT",
							"name": "",
							"type": "address"
						}
					],
					"stateMutability": "view",
					"type": "function"
				},
				{
					"inputs": [
						{
							"internalType": "bytes",
							"name": "_sig",
							"type": "bytes"
						}
					],
					"name": "publicMint",
					"outputs": [],
					"stateMutability": "payable",
					"type": "function"
				},
				{
					"inputs": [
						{
							"internalType": "bytes32",
							"name": "_ethSignedMessageHash",
							"type": "bytes32"
						},
						{
							"internalType": "bytes",
							"name": "_signature",
							"type": "bytes"
						}
					],
					"name": "recoverSigner",
					"outputs": [
						{
							"internalType": "address",
							"name": "",
							"type": "address"
						}
					],
					"stateMutability": "pure",
					"type": "function"
				},
				{
					"inputs": [
						{
							"internalType": "bytes32",
							"name": "role",
							"type": "bytes32"
						},
						{
							"internalType": "address",
							"name": "account",
							"type": "address"
						}
					],
					"name": "renounceRole",
					"outputs": [],
					"stateMutability": "nonpayable",
					"type": "function"
				},
				{
					"inputs": [
						{
							"internalType": "bytes32",
							"name": "role",
							"type": "bytes32"
						},
						{
							"internalType": "address",
							"name": "account",
							"type": "address"
						}
					],
					"name": "revokeRole",
					"outputs": [],
					"stateMutability": "nonpayable",
					"type": "function"
				},
				{
					"inputs": [
						{
							"internalType": "bytes32",
							"name": "_merkleRoot",
							"type": "bytes32"
						}
					],
					"name": "setMerkleRoot",
					"outputs": [],
					"stateMutability": "nonpayable",
					"type": "function"
				},
				{
					"inputs": [
						{
							"internalType": "contract INagaKidsNFT",
							"name": "_nagaKids",
							"type": "address"
						}
					],
					"name": "setNagaKidsContract",
					"outputs": [],
					"stateMutability": "nonpayable",
					"type": "function"
				},
				{
					"inputs": [
						{
							"internalType": "bool",
							"name": "_isOpen",
							"type": "bool"
						}
					],
					"name": "setPublicOpen",
					"outputs": [],
					"stateMutability": "nonpayable",
					"type": "function"
				},
				{
					"inputs": [
						{
							"internalType": "address",
							"name": "_signer",
							"type": "address"
						}
					],
					"name": "setSigner",
					"outputs": [],
					"stateMutability": "nonpayable",
					"type": "function"
				},
				{
					"inputs": [
						{
							"internalType": "bool",
							"name": "_isOpen",
							"type": "bool"
						}
					],
					"name": "setWhitelistMintOpen",
					"outputs": [],
					"stateMutability": "nonpayable",
					"type": "function"
				},
				{
					"inputs": [],
					"name": "signer",
					"outputs": [
						{
							"internalType": "address",
							"name": "",
							"type": "address"
						}
					],
					"stateMutability": "view",
					"type": "function"
				},
				{
					"inputs": [
						{
							"internalType": "bytes",
							"name": "sig",
							"type": "bytes"
						}
					],
					"name": "splitSignature",
					"outputs": [
						{
							"internalType": "bytes32",
							"name": "r",
							"type": "bytes32"
						},
						{
							"internalType": "bytes32",
							"name": "s",
							"type": "bytes32"
						},
						{
							"internalType": "uint8",
							"name": "v",
							"type": "uint8"
						}
					],
					"stateMutability": "pure",
					"type": "function"
				},
				{
					"inputs": [
						{
							"internalType": "bytes4",
							"name": "interfaceId",
							"type": "bytes4"
						}
					],
					"name": "supportsInterface",
					"outputs": [
						{
							"internalType": "bool",
							"name": "",
							"type": "bool"
						}
					],
					"stateMutability": "view",
					"type": "function"
				},
				{
					"inputs": [
						{
							"internalType": "address",
							"name": "_signer",
							"type": "address"
						},
						{
							"internalType": "address",
							"name": "_user",
							"type": "address"
						},
						{
							"internalType": "bytes",
							"name": "signature",
							"type": "bytes"
						}
					],
					"name": "verify",
					"outputs": [
						{
							"internalType": "bool",
							"name": "",
							"type": "bool"
						}
					],
					"stateMutability": "view",
					"type": "function"
				},
				{
					"inputs": [
						{
							"internalType": "bytes32[]",
							"name": "_proofMerkle",
							"type": "bytes32[]"
						},
						{
							"internalType": "uint256",
							"name": "_amount",
							"type": "uint256"
						}
					],
					"name": "whitelistMint",
					"outputs": [],
					"stateMutability": "payable",
					"type": "function"
				}
			],
			"devdoc": {
				"kind": "dev",
				"methods": {
					"getRoleAdmin(bytes32)": {
						"details": "Returns the admin role that controls `role`. See {grantRole} and {revokeRole}. To change a role's admin, use {_setRoleAdmin}."
					},
					"grantRole(bytes32,address)": {
						"details": "Grants `role` to `account`. If `account` had not been already granted `role`, emits a {RoleGranted} event. Requirements: - the caller must have ``role``'s admin role."
					},
					"hasRole(bytes32,address)": {
						"details": "Returns `true` if `account` has been granted `role`."
					},
					"renounceRole(bytes32,address)": {
						"details": "Revokes `role` from the calling account. Roles are often managed via {grantRole} and {revokeRole}: this function's purpose is to provide a mechanism for accounts to lose their privileges if they are compromised (such as when a trusted device is misplaced). If the calling account had been revoked `role`, emits a {RoleRevoked} event. Requirements: - the caller must be `account`."
					},
					"revokeRole(bytes32,address)": {
						"details": "Revokes `role` from `account`. If `account` had been granted `role`, emits a {RoleRevoked} event. Requirements: - the caller must have ``role``'s admin role."
					},
					"supportsInterface(bytes4)": {
						"details": "See {IERC165-supportsInterface}."
					}
				},
				"version": 1
			},
			"evm": {
				"assembly": "    /* \"MintNagaKids.sol\":277:4177  contract MintNagaKids is Whitelist, VerifySignature, AccessControl, ReentrancyGuard {... */\n  mstore(0x40, 0x80)\n    /* \"MintNagaKids.sol\":818:1017  constructor(INagaKidsNFT _nagaKids,bytes32 _merkleRoot) {... */\n  callvalue\n  dup1\n  iszero\n  tag_1\n  jumpi\n  0x00\n  dup1\n  revert\ntag_1:\n  pop\n  mload(0x40)\n  sub(codesize, bytecodeSize)\n  dup1\n  bytecodeSize\n  dup4\n  codecopy\n  dup2\n  add\n  0x40\n  dup2\n  swap1\n  mstore\n  tag_2\n  swap2\n  tag_3\n  jump\t// in\ntag_2:\n    /* \"@openzeppelin/contracts/security/ReentrancyGuard.sol\":1701:1702  1 */\n  0x01\n    /* \"@openzeppelin/contracts/security/ReentrancyGuard.sol\":1806:1813  _status */\n  0x02\n    /* \"@openzeppelin/contracts/security/ReentrancyGuard.sol\":1806:1828  _status = _NOT_ENTERED */\n  sstore\n    /* \"MintNagaKids.sol\":887:929  _grantRole(DEFAULT_ADMIN_ROLE, msg.sender) */\n  tag_8\n    /* \"@openzeppelin/contracts/access/AccessControl.sol\":2072:2076  0x00 */\n  0x00\n    /* \"MintNagaKids.sol\":918:928  msg.sender */\n  caller\n    /* \"MintNagaKids.sol\":887:897  _grantRole */\n  tag_9\n    /* \"MintNagaKids.sol\":887:929  _grantRole(DEFAULT_ADMIN_ROLE, msg.sender) */\n  jump\t// in\ntag_8:\n    /* \"MintNagaKids.sol\":940:970  setNagaKidsContract(_nagaKids) */\n  tag_10\n    /* \"MintNagaKids.sol\":960:969  _nagaKids */\n  dup3\n    /* \"MintNagaKids.sol\":940:959  setNagaKidsContract */\n  tag_11\n    /* \"MintNagaKids.sol\":940:970  setNagaKidsContract(_nagaKids) */\n  jump\t// in\ntag_10:\n    /* \"MintNagaKids.sol\":981:1007  setMerkleRoot(_merkleRoot) */\n  tag_12\n    /* \"MintNagaKids.sol\":995:1006  _merkleRoot */\n  dup2\n    /* \"MintNagaKids.sol\":981:994  setMerkleRoot */\n  tag_13\n    /* \"MintNagaKids.sol\":981:1007  setMerkleRoot(_merkleRoot) */\n  jump\t// in\ntag_12:\n    /* \"MintNagaKids.sol\":818:1017  constructor(INagaKidsNFT _nagaKids,bytes32 _merkleRoot) {... */\n  pop\n  pop\n    /* \"MintNagaKids.sol\":277:4177  contract MintNagaKids is Whitelist, VerifySignature, AccessControl, ReentrancyGuard {... */\n  jump(tag_74)\n    /* \"@openzeppelin/contracts/access/AccessControl.sol\":7244:7477  function _grantRole(bytes32 role, address account) internal virtual {... */\ntag_9:\n    /* \"@openzeppelin/contracts/access/AccessControl.sol\":2981:2985  bool */\n  0x00\n    /* \"@openzeppelin/contracts/access/AccessControl.sol\":3004:3016  _roles[role] */\n  dup3\n  dup2\n  mstore\n    /* \"@openzeppelin/contracts/access/AccessControl.sol\":3004:3010  _roles */\n  0x01\n    /* \"@openzeppelin/contracts/access/AccessControl.sol\":3004:3016  _roles[role] */\n  0x20\n  swap1\n  dup2\n  mstore\n  0x40\n  dup1\n  dup4\n  keccak256\n  sub(shl(0xa0, 0x01), 0x01)\n    /* \"@openzeppelin/contracts/access/AccessControl.sol\":3004:3033  _roles[role].members[account] */\n  dup6\n  and\n  dup5\n  mstore\n  swap1\n  swap2\n  mstore\n  swap1\n  keccak256\n  sload\n  0xff\n  and\n    /* \"@openzeppelin/contracts/access/AccessControl.sol\":7322:7471  if (!hasRole(role, account)) {... */\n  tag_18\n  jumpi\n    /* \"@openzeppelin/contracts/access/AccessControl.sol\":7365:7377  _roles[role] */\n  0x00\n  dup3\n  dup2\n  mstore\n    /* \"@openzeppelin/contracts/access/AccessControl.sol\":7397:7401  true */\n  0x01\n    /* \"@openzeppelin/contracts/access/AccessControl.sol\":7365:7377  _roles[role] */\n  0x20\n  dup2\n  dup2\n  mstore\n  0x40\n  dup1\n  dup5\n  keccak256\n  sub(shl(0xa0, 0x01), 0x01)\n    /* \"@openzeppelin/contracts/access/AccessControl.sol\":7365:7394  _roles[role].members[account] */\n  dup7\n  and\n  dup1\n  dup7\n  mstore\n  swap3\n  mstore\n  dup1\n  dup5\n  keccak256\n    /* \"@openzeppelin/contracts/access/AccessControl.sol\":7365:7401  _roles[role].members[account] = true */\n  dup1\n  sload\n  not(0xff)\n  and\n  swap1\n  swap4\n  or\n  swap1\n  swap3\n  sstore\n    /* \"@openzeppelin/contracts/access/AccessControl.sol\":7420:7460  RoleGranted(role, account, _msgSender()) */\n  swap1\n  mload\n    /* \"@openzeppelin/contracts/utils/Context.sol\":719:729  msg.sender */\n  caller\n  swap3\n    /* \"@openzeppelin/contracts/access/AccessControl.sol\":7365:7377  _roles[role] */\n  dup6\n  swap2\n    /* \"@openzeppelin/contracts/access/AccessControl.sol\":7420:7460  RoleGranted(role, account, _msgSender()) */\n  0x2f8788117e7eff1d82e926ec794901d17c78024a50270940304540a733656f0d\n  swap2\n    /* \"@openzeppelin/contracts/access/AccessControl.sol\":7365:7377  _roles[role] */\n  swap1\n    /* \"@openzeppelin/contracts/access/AccessControl.sol\":7420:7460  RoleGranted(role, account, _msgSender()) */\n  log4\n    /* \"@openzeppelin/contracts/access/AccessControl.sol\":7322:7471  if (!hasRole(role, account)) {... */\ntag_18:\n    /* \"@openzeppelin/contracts/access/AccessControl.sol\":7244:7477  function _grantRole(bytes32 role, address account) internal virtual {... */\n  pop\n  pop\n  jump\t// out\n    /* \"MintNagaKids.sol\":1132:1268  function setNagaKidsContract(INagaKidsNFT _nagaKids) public onlyRole(DEFAULT_ADMIN_ROLE) {... */\ntag_11:\n    /* \"@openzeppelin/contracts/access/AccessControl.sol\":2072:2076  0x00 */\n  0x00\n    /* \"@openzeppelin/contracts/access/AccessControl.sol\":2505:2521  _checkRole(role) */\n  tag_22\n    /* \"@openzeppelin/contracts/access/AccessControl.sol\":2072:2076  0x00 */\n  dup2\n    /* \"@openzeppelin/contracts/access/AccessControl.sol\":2505:2515  _checkRole */\n  tag_23\n    /* \"@openzeppelin/contracts/access/AccessControl.sol\":2505:2521  _checkRole(role) */\n  jump\t// in\ntag_22:\n  pop\n    /* \"MintNagaKids.sol\":1232:1248  nagaKidsContract */\n  0x03\n    /* \"MintNagaKids.sol\":1232:1260  nagaKidsContract = _nagaKids */\n  dup1\n  sload\n  not(sub(shl(0xa0, 0x01), 0x01))\n  and\n  sub(shl(0xa0, 0x01), 0x01)\n  swap3\n  swap1\n  swap3\n  and\n  swap2\n  swap1\n  swap2\n  or\n  swap1\n  sstore\n    /* \"MintNagaKids.sol\":1132:1268  function setNagaKidsContract(INagaKidsNFT _nagaKids) public onlyRole(DEFAULT_ADMIN_ROLE) {... */\n  jump\t// out\n    /* \"MintNagaKids.sol\":1654:1777  function setMerkleRoot(bytes32 _merkleRoot) public onlyRole(DEFAULT_ADMIN_ROLE) {... */\ntag_13:\n    /* \"@openzeppelin/contracts/access/AccessControl.sol\":2072:2076  0x00 */\n  0x00\n    /* \"@openzeppelin/contracts/access/AccessControl.sol\":2505:2521  _checkRole(role) */\n  tag_26\n    /* \"@openzeppelin/contracts/access/AccessControl.sol\":2072:2076  0x00 */\n  dup2\n    /* \"@openzeppelin/contracts/access/AccessControl.sol\":2505:2515  _checkRole */\n  tag_23\n    /* \"@openzeppelin/contracts/access/AccessControl.sol\":2505:2521  _checkRole(role) */\n  jump\t// in\ntag_26:\n  pop\n    /* \"MintNagaKids.sol\":1745:1755  merkleRoot */\n  0x00\n    /* \"MintNagaKids.sol\":1745:1769  merkleRoot = _merkleRoot */\n  sstore\n    /* \"MintNagaKids.sol\":1654:1777  function setMerkleRoot(bytes32 _merkleRoot) public onlyRole(DEFAULT_ADMIN_ROLE) {... */\n  jump\t// out\n    /* \"@openzeppelin/contracts/access/AccessControl.sol\":3334:3437  function _checkRole(bytes32 role) internal view virtual {... */\ntag_23:\n    /* \"@openzeppelin/contracts/access/AccessControl.sol\":3400:3430  _checkRole(role, _msgSender()) */\n  tag_31\n    /* \"@openzeppelin/contracts/access/AccessControl.sol\":3411:3415  role */\n  dup2\n    /* \"@openzeppelin/contracts/utils/Context.sol\":719:729  msg.sender */\n  caller\n    /* \"@openzeppelin/contracts/access/AccessControl.sol\":3400:3410  _checkRole */\n  tag_33\n    /* \"@openzeppelin/contracts/access/AccessControl.sol\":3400:3430  _checkRole(role, _msgSender()) */\n  jump\t// in\ntag_31:\n    /* \"@openzeppelin/contracts/access/AccessControl.sol\":3334:3437  function _checkRole(bytes32 role) internal view virtual {... */\n  pop\n  jump\t// out\n    /* \"@openzeppelin/contracts/access/AccessControl.sol\":3718:4210  function _checkRole(bytes32 role, address account) internal view virtual {... */\ntag_33:\n    /* \"@openzeppelin/contracts/access/AccessControl.sol\":2981:2985  bool */\n  0x00\n    /* \"@openzeppelin/contracts/access/AccessControl.sol\":3004:3016  _roles[role] */\n  dup3\n  dup2\n  mstore\n    /* \"@openzeppelin/contracts/access/AccessControl.sol\":3004:3010  _roles */\n  0x01\n    /* \"@openzeppelin/contracts/access/AccessControl.sol\":3004:3016  _roles[role] */\n  0x20\n  swap1\n  dup2\n  mstore\n  0x40\n  dup1\n  dup4\n  keccak256\n  sub(shl(0xa0, 0x01), 0x01)\n    /* \"@openzeppelin/contracts/access/AccessControl.sol\":3004:3033  _roles[role].members[account] */\n  dup6\n  and\n  dup5\n  mstore\n  swap1\n  swap2\n  mstore\n  swap1\n  keccak256\n  sload\n  0xff\n  and\n    /* \"@openzeppelin/contracts/access/AccessControl.sol\":3801:4204  if (!hasRole(role, account)) {... */\n  tag_18\n  jumpi\n    /* \"@openzeppelin/contracts/access/AccessControl.sol\":3989:4030  Strings.toHexString(uint160(account), 20) */\n  tag_37\n    /* \"@openzeppelin/contracts/access/AccessControl.sol\":4017:4024  account */\n  dup2\n  sub(shl(0xa0, 0x01), 0x01)\n    /* \"@openzeppelin/contracts/access/AccessControl.sol\":3989:4030  Strings.toHexString(uint160(account), 20) */\n  and\n    /* \"@openzeppelin/contracts/access/AccessControl.sol\":4027:4029  20 */\n  0x14\n    /* \"@openzeppelin/contracts/access/AccessControl.sol\":3989:4008  Strings.toHexString */\n  or(tag_0_185, shl(0x20, tag_38))\n    /* \"@openzeppelin/contracts/access/AccessControl.sol\":3989:4030  Strings.toHexString(uint160(account), 20) */\n  0x20\n  shr\n  jump\t// in\ntag_37:\n    /* \"@openzeppelin/contracts/access/AccessControl.sol\":4101:4139  Strings.toHexString(uint256(role), 32) */\n  tag_39\n    /* \"@openzeppelin/contracts/access/AccessControl.sol\":4129:4133  role */\n  dup4\n    /* \"@openzeppelin/contracts/access/AccessControl.sol\":4136:4138  32 */\n  0x20\n    /* \"@openzeppelin/contracts/access/AccessControl.sol\":4101:4120  Strings.toHexString */\n  tag_0_185\n  tag_38\n  dup3\n  shl\n  or\n    /* \"@openzeppelin/contracts/access/AccessControl.sol\":4101:4139  Strings.toHexString(uint256(role), 32) */\n  dup2\n  shr\n  jump\t// in\ntag_39:\n    /* \"@openzeppelin/contracts/access/AccessControl.sol\":3896:4161  abi.encodePacked(... */\n  add(0x20, mload(0x40))\n  tag_40\n  swap3\n  swap2\n  swap1\n  tag_41\n  jump\t// in\ntag_40:\n  0x40\n  dup1\n  mload\n  not(0x1f)\n  dup2\n  dup5\n  sub\n  add\n  dup2\n  mstore\n  swap1\n  dup3\n  swap1\n  mstore\n  shl(0xe5, 0x461bcd)\n    /* \"@openzeppelin/contracts/access/AccessControl.sol\":3844:4193  revert(... */\n  dup3\n  mstore\n  tag_42\n  swap2\n  0x04\n  add\n  tag_43\n  jump\t// in\ntag_42:\n  mload(0x40)\n  dup1\n  swap2\n  sub\n  swap1\n  revert\n    /* \"@openzeppelin/contracts/utils/Strings.sol\":1588:2029  function toHexString(uint256 value, uint256 length) internal pure returns (string memory) {... */\ntag_38:\n    /* \"@openzeppelin/contracts/utils/Strings.sol\":1663:1676  string memory */\n  0x60\n    /* \"@openzeppelin/contracts/utils/Strings.sol\":1688:1707  bytes memory buffer */\n  0x00\n    /* \"@openzeppelin/contracts/utils/Strings.sol\":1720:1730  2 * length */\n  tag_45\n    /* \"@openzeppelin/contracts/utils/Strings.sol\":1724:1730  length */\n  dup4\n    /* \"@openzeppelin/contracts/utils/Strings.sol\":1720:1721  2 */\n  0x02\n    /* \"@openzeppelin/contracts/utils/Strings.sol\":1720:1730  2 * length */\n  tag_46\n  jump\t// in\ntag_45:\n    /* \"@openzeppelin/contracts/utils/Strings.sol\":1720:1734  2 * length + 2 */\n  tag_47\n  swap1\n    /* \"@openzeppelin/contracts/utils/Strings.sol\":1733:1734  2 */\n  0x02\n    /* \"@openzeppelin/contracts/utils/Strings.sol\":1720:1734  2 * length + 2 */\n  tag_48\n  jump\t// in\ntag_47:\n  sub(shl(0x40, 0x01), 0x01)\n    /* \"@openzeppelin/contracts/utils/Strings.sol\":1710:1735  new bytes(2 * length + 2) */\n  dup2\n  gt\n  iszero\n  tag_50\n  jumpi\n  tag_50\n  tag_51\n  jump\t// in\ntag_50:\n  mload(0x40)\n  swap1\n  dup1\n  dup3\n  mstore\n  dup1\n  0x1f\n  add\n  not(0x1f)\n  and\n  0x20\n  add\n  dup3\n  add\n  0x40\n  mstore\n  dup1\n  iszero\n  tag_52\n  jumpi\n  0x20\n  dup3\n  add\n  dup2\n  dup1\n  calldatasize\n  dup4\n  calldatacopy\n  add\n  swap1\n  pop\ntag_52:\n  pop\n    /* \"@openzeppelin/contracts/utils/Strings.sol\":1688:1735  bytes memory buffer = new bytes(2 * length + 2) */\n  swap1\n  pop\n  shl(0xfc, 0x03)\n    /* \"@openzeppelin/contracts/utils/Strings.sol\":1745:1751  buffer */\n  dup2\n    /* \"@openzeppelin/contracts/utils/Strings.sol\":1752:1753  0 */\n  0x00\n    /* \"@openzeppelin/contracts/utils/Strings.sol\":1745:1754  buffer[0] */\n  dup2\n  mload\n  dup2\n  lt\n  tag_54\n  jumpi\n  tag_54\n  tag_55\n  jump\t// in\ntag_54:\n  0x20\n  add\n  add\n    /* \"@openzeppelin/contracts/utils/Strings.sol\":1745:1760  buffer[0] = \"0\" */\n  swap1\n  not(sub(shl(0xf8, 0x01), 0x01))\n  and\n  swap1\n  dup2\n  0x00\n  byte\n  swap1\n  mstore8\n  pop\n  shl(0xfb, 0x0f)\n    /* \"@openzeppelin/contracts/utils/Strings.sol\":1770:1776  buffer */\n  dup2\n    /* \"@openzeppelin/contracts/utils/Strings.sol\":1777:1778  1 */\n  0x01\n    /* \"@openzeppelin/contracts/utils/Strings.sol\":1770:1779  buffer[1] */\n  dup2\n  mload\n  dup2\n  lt\n  tag_57\n  jumpi\n  tag_57\n  tag_55\n  jump\t// in\ntag_57:\n  0x20\n  add\n  add\n    /* \"@openzeppelin/contracts/utils/Strings.sol\":1770:1785  buffer[1] = \"x\" */\n  swap1\n  not(sub(shl(0xf8, 0x01), 0x01))\n  and\n  swap1\n  dup2\n  0x00\n  byte\n  swap1\n  mstore8\n  pop\n    /* \"@openzeppelin/contracts/utils/Strings.sol\":1800:1809  uint256 i */\n  0x00\n    /* \"@openzeppelin/contracts/utils/Strings.sol\":1812:1822  2 * length */\n  tag_61\n    /* \"@openzeppelin/contracts/utils/Strings.sol\":1816:1822  length */\n  dup5\n    /* \"@openzeppelin/contracts/utils/Strings.sol\":1812:1813  2 */\n  0x02\n    /* \"@openzeppelin/contracts/utils/Strings.sol\":1812:1822  2 * length */\n  tag_46\n  jump\t// in\ntag_61:\n    /* \"@openzeppelin/contracts/utils/Strings.sol\":1812:1826  2 * length + 1 */\n  tag_62\n  swap1\n    /* \"@openzeppelin/contracts/utils/Strings.sol\":1825:1826  1 */\n  0x01\n    /* \"@openzeppelin/contracts/utils/Strings.sol\":1812:1826  2 * length + 1 */\n  tag_48\n  jump\t// in\ntag_62:\n    /* \"@openzeppelin/contracts/utils/Strings.sol\":1800:1826  uint256 i = 2 * length + 1 */\n  swap1\n  pop\n    /* \"@openzeppelin/contracts/utils/Strings.sol\":1795:1927  for (uint256 i = 2 * length + 1; i > 1; --i) {... */\ntag_58:\n    /* \"@openzeppelin/contracts/utils/Strings.sol\":1832:1833  1 */\n  0x01\n    /* \"@openzeppelin/contracts/utils/Strings.sol\":1828:1829  i */\n  dup2\n    /* \"@openzeppelin/contracts/utils/Strings.sol\":1828:1833  i > 1 */\n  gt\n    /* \"@openzeppelin/contracts/utils/Strings.sol\":1795:1927  for (uint256 i = 2 * length + 1; i > 1; --i) {... */\n  iszero\n  tag_59\n  jumpi\n  shl(0x81, 0x181899199a1a9b1b9c1cb0b131b232b3)\n    /* \"@openzeppelin/contracts/utils/Strings.sol\":1879:1884  value */\n  dup6\n    /* \"@openzeppelin/contracts/utils/Strings.sol\":1887:1890  0xf */\n  0x0f\n    /* \"@openzeppelin/contracts/utils/Strings.sol\":1879:1890  value & 0xf */\n  and\n    /* \"@openzeppelin/contracts/utils/Strings.sol\":1866:1891  _HEX_SYMBOLS[value & 0xf] */\n  0x10\n  dup2\n  lt\n  tag_64\n  jumpi\n  tag_64\n  tag_55\n  jump\t// in\ntag_64:\n  byte\n  0xf8\n  shl\n    /* \"@openzeppelin/contracts/utils/Strings.sol\":1854:1860  buffer */\n  dup3\n    /* \"@openzeppelin/contracts/utils/Strings.sol\":1861:1862  i */\n  dup3\n    /* \"@openzeppelin/contracts/utils/Strings.sol\":1854:1863  buffer[i] */\n  dup2\n  mload\n  dup2\n  lt\n  tag_66\n  jumpi\n  tag_66\n  tag_55\n  jump\t// in\ntag_66:\n  0x20\n  add\n  add\n    /* \"@openzeppelin/contracts/utils/Strings.sol\":1854:1891  buffer[i] = _HEX_SYMBOLS[value & 0xf] */\n  swap1\n  not(sub(shl(0xf8, 0x01), 0x01))\n  and\n  swap1\n  dup2\n  0x00\n  byte\n  swap1\n  mstore8\n  pop\n    /* \"@openzeppelin/contracts/utils/Strings.sol\":1915:1916  4 */\n  0x04\n    /* \"@openzeppelin/contracts/utils/Strings.sol\":1905:1916  value >>= 4 */\n  swap5\n  swap1\n  swap5\n  shr\n  swap4\n    /* \"@openzeppelin/contracts/utils/Strings.sol\":1835:1838  --i */\n  tag_67\n  dup2\n  tag_68\n  jump\t// in\ntag_67:\n  swap1\n  pop\n    /* \"@openzeppelin/contracts/utils/Strings.sol\":1795:1927  for (uint256 i = 2 * length + 1; i > 1; --i) {... */\n  jump(tag_58)\ntag_59:\n  pop\n    /* \"@openzeppelin/contracts/utils/Strings.sol\":1944:1954  value == 0 */\n  dup4\n  iszero\n    /* \"@openzeppelin/contracts/utils/Strings.sol\":1936:1991  require(value == 0, \"Strings: hex length insufficient\") */\n  tag_69\n  jumpi\n  mload(0x40)\n  shl(0xe5, 0x461bcd)\n  dup2\n  mstore\n    /* \"#utility.yul\":2877:2879   */\n  0x20\n    /* \"@openzeppelin/contracts/utils/Strings.sol\":1936:1991  require(value == 0, \"Strings: hex length insufficient\") */\n  0x04\n  dup3\n  add\n    /* \"#utility.yul\":2859:2880   */\n  dup2\n  swap1\n  mstore\n    /* \"#utility.yul\":2896:2914   */\n  0x24\n  dup3\n  add\n    /* \"#utility.yul\":2889:2919   */\n  mstore\n    /* \"#utility.yul\":2955:2989   */\n  0x537472696e67733a20686578206c656e67746820696e73756666696369656e74\n    /* \"#utility.yul\":2935:2953   */\n  0x44\n  dup3\n  add\n    /* \"#utility.yul\":2928:2990   */\n  mstore\n    /* \"#utility.yul\":3007:3025   */\n  0x64\n  add\n    /* \"@openzeppelin/contracts/utils/Strings.sol\":1936:1991  require(value == 0, \"Strings: hex length insufficient\") */\n  tag_42\n    /* \"#utility.yul\":2675:3031   */\n  jump\n    /* \"@openzeppelin/contracts/utils/Strings.sol\":1936:1991  require(value == 0, \"Strings: hex length insufficient\") */\ntag_69:\n    /* \"@openzeppelin/contracts/utils/Strings.sol\":2015:2021  buffer */\n  swap4\n    /* \"@openzeppelin/contracts/utils/Strings.sol\":1588:2029  function toHexString(uint256 value, uint256 length) internal pure returns (string memory) {... */\n  swap3\n  pop\n  pop\n  pop\n  jump\t// out\n    /* \"#utility.yul\":14:385   */\ntag_3:\n    /* \"#utility.yul\":113:119   */\n  0x00\n    /* \"#utility.yul\":121:127   */\n  dup1\n    /* \"#utility.yul\":174:176   */\n  0x40\n    /* \"#utility.yul\":162:171   */\n  dup4\n    /* \"#utility.yul\":153:160   */\n  dup6\n    /* \"#utility.yul\":149:172   */\n  sub\n    /* \"#utility.yul\":145:177   */\n  slt\n    /* \"#utility.yul\":142:194   */\n  iszero\n  tag_76\n  jumpi\n    /* \"#utility.yul\":190:191   */\n  0x00\n    /* \"#utility.yul\":187:188   */\n  dup1\n    /* \"#utility.yul\":180:192   */\n  revert\n    /* \"#utility.yul\":142:194   */\ntag_76:\n    /* \"#utility.yul\":216:232   */\n  dup3\n  mload\n  sub(shl(0xa0, 0x01), 0x01)\n    /* \"#utility.yul\":261:292   */\n  dup2\n  and\n    /* \"#utility.yul\":251:293   */\n  dup2\n  eq\n    /* \"#utility.yul\":241:311   */\n  tag_77\n  jumpi\n    /* \"#utility.yul\":307:308   */\n  0x00\n    /* \"#utility.yul\":304:305   */\n  dup1\n    /* \"#utility.yul\":297:309   */\n  revert\n    /* \"#utility.yul\":241:311   */\ntag_77:\n    /* \"#utility.yul\":375:377   */\n  0x20\n    /* \"#utility.yul\":360:378   */\n  swap4\n  swap1\n  swap4\n  add\n    /* \"#utility.yul\":354:379   */\n  mload\n    /* \"#utility.yul\":330:335   */\n  swap3\n  swap5\n    /* \"#utility.yul\":354:379   */\n  swap3\n  swap4\n  pop\n  pop\n  pop\n    /* \"#utility.yul\":14:385   */\n  jump\t// out\n    /* \"#utility.yul\":390:648   */\ntag_72:\n    /* \"#utility.yul\":462:463   */\n  0x00\n    /* \"#utility.yul\":472:585   */\ntag_79:\n    /* \"#utility.yul\":486:492   */\n  dup4\n    /* \"#utility.yul\":483:484   */\n  dup2\n    /* \"#utility.yul\":480:493   */\n  lt\n    /* \"#utility.yul\":472:585   */\n  iszero\n  tag_81\n  jumpi\n    /* \"#utility.yul\":562:573   */\n  dup2\n  dup2\n  add\n    /* \"#utility.yul\":556:574   */\n  mload\n    /* \"#utility.yul\":543:554   */\n  dup4\n  dup3\n  add\n    /* \"#utility.yul\":536:575   */\n  mstore\n    /* \"#utility.yul\":508:510   */\n  0x20\n    /* \"#utility.yul\":501:511   */\n  add\n    /* \"#utility.yul\":472:585   */\n  jump(tag_79)\ntag_81:\n    /* \"#utility.yul\":603:609   */\n  dup4\n    /* \"#utility.yul\":600:601   */\n  dup2\n    /* \"#utility.yul\":597:610   */\n  gt\n    /* \"#utility.yul\":594:642   */\n  iszero\n  tag_82\n  jumpi\n    /* \"#utility.yul\":638:639   */\n  0x00\n    /* \"#utility.yul\":629:635   */\n  dup5\n    /* \"#utility.yul\":624:627   */\n  dup5\n    /* \"#utility.yul\":620:636   */\n  add\n    /* \"#utility.yul\":613:640   */\n  mstore\n    /* \"#utility.yul\":594:642   */\ntag_82:\n  pop\n    /* \"#utility.yul\":390:648   */\n  pop\n  pop\n  pop\n  jump\t// out\n    /* \"#utility.yul\":653:1439   */\ntag_41:\n    /* \"#utility.yul\":1064:1089   */\n  0x416363657373436f6e74726f6c3a206163636f756e7420000000000000000000\n    /* \"#utility.yul\":1059:1062   */\n  dup2\n    /* \"#utility.yul\":1052:1090   */\n  mstore\n    /* \"#utility.yul\":1034:1037   */\n  0x00\n    /* \"#utility.yul\":1119:1125   */\n  dup4\n    /* \"#utility.yul\":1113:1126   */\n  mload\n    /* \"#utility.yul\":1135:1197   */\n  tag_84\n    /* \"#utility.yul\":1190:1196   */\n  dup2\n    /* \"#utility.yul\":1185:1187   */\n  0x17\n    /* \"#utility.yul\":1180:1183   */\n  dup6\n    /* \"#utility.yul\":1176:1188   */\n  add\n    /* \"#utility.yul\":1169:1173   */\n  0x20\n    /* \"#utility.yul\":1161:1167   */\n  dup9\n    /* \"#utility.yul\":1157:1174   */\n  add\n    /* \"#utility.yul\":1135:1197   */\n  tag_72\n  jump\t// in\ntag_84:\n  shl(0x7d, 0x01034b99036b4b9b9b4b733903937b6329)\n    /* \"#utility.yul\":1256:1258   */\n  0x17\n    /* \"#utility.yul\":1216:1232   */\n  swap2\n  dup5\n  add\n    /* \"#utility.yul\":1248:1259   */\n  swap2\n  dup3\n  add\n    /* \"#utility.yul\":1241:1281   */\n  mstore\n    /* \"#utility.yul\":1306:1319   */\n  dup4\n  mload\n    /* \"#utility.yul\":1328:1391   */\n  tag_85\n    /* \"#utility.yul\":1306:1319   */\n  dup2\n    /* \"#utility.yul\":1377:1379   */\n  0x28\n    /* \"#utility.yul\":1369:1380   */\n  dup5\n  add\n    /* \"#utility.yul\":1362:1366   */\n  0x20\n    /* \"#utility.yul\":1350:1367   */\n  dup9\n  add\n    /* \"#utility.yul\":1328:1391   */\n  tag_72\n  jump\t// in\ntag_85:\n    /* \"#utility.yul\":1411:1428   */\n  add\n    /* \"#utility.yul\":1430:1432   */\n  0x28\n    /* \"#utility.yul\":1407:1433   */\n  add\n  swap5\n    /* \"#utility.yul\":653:1439   */\n  swap4\n  pop\n  pop\n  pop\n  pop\n  jump\t// out\n    /* \"#utility.yul\":1444:1827   */\ntag_43:\n    /* \"#utility.yul\":1593:1595   */\n  0x20\n    /* \"#utility.yul\":1582:1591   */\n  dup2\n    /* \"#utility.yul\":1575:1596   */\n  mstore\n    /* \"#utility.yul\":1556:1560   */\n  0x00\n    /* \"#utility.yul\":1625:1631   */\n  dup3\n    /* \"#utility.yul\":1619:1632   */\n  mload\n    /* \"#utility.yul\":1668:1674   */\n  dup1\n    /* \"#utility.yul\":1663:1665   */\n  0x20\n    /* \"#utility.yul\":1652:1661   */\n  dup5\n    /* \"#utility.yul\":1648:1666   */\n  add\n    /* \"#utility.yul\":1641:1675   */\n  mstore\n    /* \"#utility.yul\":1684:1750   */\n  tag_87\n    /* \"#utility.yul\":1743:1749   */\n  dup2\n    /* \"#utility.yul\":1738:1740   */\n  0x40\n    /* \"#utility.yul\":1727:1736   */\n  dup6\n    /* \"#utility.yul\":1723:1741   */\n  add\n    /* \"#utility.yul\":1718:1720   */\n  0x20\n    /* \"#utility.yul\":1710:1716   */\n  dup8\n    /* \"#utility.yul\":1706:1721   */\n  add\n    /* \"#utility.yul\":1684:1750   */\n  tag_72\n  jump\t// in\ntag_87:\n    /* \"#utility.yul\":1811:1813   */\n  0x1f\n    /* \"#utility.yul\":1790:1805   */\n  add\n  not(0x1f)\n    /* \"#utility.yul\":1786:1815   */\n  and\n    /* \"#utility.yul\":1771:1816   */\n  swap2\n  swap1\n  swap2\n  add\n    /* \"#utility.yul\":1818:1820   */\n  0x40\n    /* \"#utility.yul\":1767:1821   */\n  add\n  swap3\n    /* \"#utility.yul\":1444:1827   */\n  swap2\n  pop\n  pop\n  jump\t// out\n    /* \"#utility.yul\":1832:1959   */\ntag_73:\n    /* \"#utility.yul\":1893:1903   */\n  0x4e487b71\n    /* \"#utility.yul\":1888:1891   */\n  0xe0\n    /* \"#utility.yul\":1884:1904   */\n  shl\n    /* \"#utility.yul\":1881:1882   */\n  0x00\n    /* \"#utility.yul\":1874:1905   */\n  mstore\n    /* \"#utility.yul\":1924:1928   */\n  0x11\n    /* \"#utility.yul\":1921:1922   */\n  0x04\n    /* \"#utility.yul\":1914:1929   */\n  mstore\n    /* \"#utility.yul\":1948:1952   */\n  0x24\n    /* \"#utility.yul\":1945:1946   */\n  0x00\n    /* \"#utility.yul\":1938:1953   */\n  revert\n    /* \"#utility.yul\":1964:2132   */\ntag_46:\n    /* \"#utility.yul\":2004:2011   */\n  0x00\n    /* \"#utility.yul\":2070:2071   */\n  dup2\n    /* \"#utility.yul\":2066:2067   */\n  0x00\n    /* \"#utility.yul\":2062:2068   */\n  not\n    /* \"#utility.yul\":2058:2072   */\n  div\n    /* \"#utility.yul\":2055:2056   */\n  dup4\n    /* \"#utility.yul\":2052:2073   */\n  gt\n    /* \"#utility.yul\":2047:2048   */\n  dup3\n    /* \"#utility.yul\":2040:2049   */\n  iszero\n    /* \"#utility.yul\":2033:2050   */\n  iszero\n    /* \"#utility.yul\":2029:2074   */\n  and\n    /* \"#utility.yul\":2026:2097   */\n  iszero\n  tag_91\n  jumpi\n    /* \"#utility.yul\":2077:2095   */\n  tag_91\n  tag_73\n  jump\t// in\ntag_91:\n  pop\n    /* \"#utility.yul\":2117:2126   */\n  mul\n  swap1\n    /* \"#utility.yul\":1964:2132   */\n  jump\t// out\n    /* \"#utility.yul\":2137:2265   */\ntag_48:\n    /* \"#utility.yul\":2177:2180   */\n  0x00\n    /* \"#utility.yul\":2208:2209   */\n  dup3\n    /* \"#utility.yul\":2204:2210   */\n  not\n    /* \"#utility.yul\":2201:2202   */\n  dup3\n    /* \"#utility.yul\":2198:2211   */\n  gt\n    /* \"#utility.yul\":2195:2234   */\n  iszero\n  tag_94\n  jumpi\n    /* \"#utility.yul\":2214:2232   */\n  tag_94\n  tag_73\n  jump\t// in\ntag_94:\n  pop\n    /* \"#utility.yul\":2250:2259   */\n  add\n  swap1\n    /* \"#utility.yul\":2137:2265   */\n  jump\t// out\n    /* \"#utility.yul\":2270:2397   */\ntag_51:\n    /* \"#utility.yul\":2331:2341   */\n  0x4e487b71\n    /* \"#utility.yul\":2326:2329   */\n  0xe0\n    /* \"#utility.yul\":2322:2342   */\n  shl\n    /* \"#utility.yul\":2319:2320   */\n  0x00\n    /* \"#utility.yul\":2312:2343   */\n  mstore\n    /* \"#utility.yul\":2362:2366   */\n  0x41\n    /* \"#utility.yul\":2359:2360   */\n  0x04\n    /* \"#utility.yul\":2352:2367   */\n  mstore\n    /* \"#utility.yul\":2386:2390   */\n  0x24\n    /* \"#utility.yul\":2383:2384   */\n  0x00\n    /* \"#utility.yul\":2376:2391   */\n  revert\n    /* \"#utility.yul\":2402:2529   */\ntag_55:\n    /* \"#utility.yul\":2463:2473   */\n  0x4e487b71\n    /* \"#utility.yul\":2458:2461   */\n  0xe0\n    /* \"#utility.yul\":2454:2474   */\n  shl\n    /* \"#utility.yul\":2451:2452   */\n  0x00\n    /* \"#utility.yul\":2444:2475   */\n  mstore\n    /* \"#utility.yul\":2494:2498   */\n  0x32\n    /* \"#utility.yul\":2491:2492   */\n  0x04\n    /* \"#utility.yul\":2484:2499   */\n  mstore\n    /* \"#utility.yul\":2518:2522   */\n  0x24\n    /* \"#utility.yul\":2515:2516   */\n  0x00\n    /* \"#utility.yul\":2508:2523   */\n  revert\n    /* \"#utility.yul\":2534:2670   */\ntag_68:\n    /* \"#utility.yul\":2573:2576   */\n  0x00\n    /* \"#utility.yul\":2601:2606   */\n  dup2\n    /* \"#utility.yul\":2591:2630   */\n  tag_99\n  jumpi\n    /* \"#utility.yul\":2610:2628   */\n  tag_99\n  tag_73\n  jump\t// in\ntag_99:\n  pop\n  not(0x00)\n    /* \"#utility.yul\":2646:2664   */\n  add\n  swap1\n    /* \"#utility.yul\":2534:2670   */\n  jump\t// out\n    /* \"#utility.yul\":2675:3031   */\ntag_74:\n    /* \"MintNagaKids.sol\":277:4177  contract MintNagaKids is Whitelist, VerifySignature, AccessControl, ReentrancyGuard {... */\n  dataSize(sub_0)\n  dup1\n  dataOffset(sub_0)\n  0x00\n  codecopy\n  0x00\n  return\nstop\n\nsub_0: assembly {\n        /* \"MintNagaKids.sol\":277:4177  contract MintNagaKids is Whitelist, VerifySignature, AccessControl, ReentrancyGuard {... */\n      mstore(0x40, 0x80)\n      jumpi(tag_1, lt(calldatasize, 0x04))\n      shr(0xe0, calldataload(0x00))\n      dup1\n      0x6c19e783\n      gt\n      tag_32\n      jumpi\n      dup1\n      0xa7bb5803\n      gt\n      tag_33\n      jumpi\n      dup1\n      0xf055c7a9\n      gt\n      tag_34\n      jumpi\n      dup1\n      0xf055c7a9\n      eq\n      tag_28\n      jumpi\n      dup1\n      0xfa540801\n      eq\n      tag_29\n      jumpi\n      dup1\n      0xfade63c9\n      eq\n      tag_30\n      jumpi\n      dup1\n      0xff0938a7\n      eq\n      tag_31\n      jumpi\n      0x00\n      dup1\n      revert\n    tag_34:\n      dup1\n      0xa7bb5803\n      eq\n      tag_24\n      jumpi\n      dup1\n      0xc4e41b22\n      eq\n      tag_25\n      jumpi\n      dup1\n      0xd547741f\n      eq\n      tag_26\n      jumpi\n      dup1\n      0xde6892c8\n      eq\n      tag_27\n      jumpi\n      0x00\n      dup1\n      revert\n    tag_33:\n      dup1\n      0x91d14854\n      gt\n      tag_35\n      jumpi\n      dup1\n      0x91d14854\n      eq\n      tag_20\n      jumpi\n      dup1\n      0x94f4504d\n      eq\n      tag_21\n      jumpi\n      dup1\n      0x97aba7f9\n      eq\n      tag_22\n      jumpi\n      dup1\n      0xa217fddf\n      eq\n      tag_23\n      jumpi\n      0x00\n      dup1\n      revert\n    tag_35:\n      dup1\n      0x6c19e783\n      eq\n      tag_17\n      jumpi\n      dup1\n      0x7cb64759\n      eq\n      tag_18\n      jumpi\n      dup1\n      0x80506494\n      eq\n      tag_19\n      jumpi\n      0x00\n      dup1\n      revert\n    tag_32:\n      dup1\n      0x2904e6d9\n      gt\n      tag_36\n      jumpi\n      dup1\n      0x36568abe\n      gt\n      tag_37\n      jumpi\n      dup1\n      0x36568abe\n      eq\n      tag_13\n      jumpi\n      dup1\n      0x42920a46\n      eq\n      tag_14\n      jumpi\n      dup1\n      0x4c0f38c2\n      eq\n      tag_15\n      jumpi\n      dup1\n      0x5997bbee\n      eq\n      tag_16\n      jumpi\n      0x00\n      dup1\n      revert\n    tag_37:\n      dup1\n      0x2904e6d9\n      eq\n      tag_9\n      jumpi\n      dup1\n      0x2c8a1926\n      eq\n      tag_10\n      jumpi\n      dup1\n      0x2eb4a7ab\n      eq\n      tag_11\n      jumpi\n      dup1\n      0x2f2ff15d\n      eq\n      tag_12\n      jumpi\n      0x00\n      dup1\n      revert\n    tag_36:\n      dup1\n      0x1f5ac1b2\n      gt\n      tag_38\n      jumpi\n      dup1\n      0x1f5ac1b2\n      eq\n      tag_5\n      jumpi\n      dup1\n      0x238ac933\n      eq\n      tag_6\n      jumpi\n      dup1\n      0x248a9ca3\n      eq\n      tag_7\n      jumpi\n      dup1\n      0x27c25c20\n      eq\n      tag_8\n      jumpi\n      0x00\n      dup1\n      revert\n    tag_38:\n      dup1\n      0x01ffc9a7\n      eq\n      tag_2\n      jumpi\n      dup1\n      0x11c67efc\n      eq\n      tag_3\n      jumpi\n      dup1\n      0x1b0d2d3b\n      eq\n      tag_4\n      jumpi\n    tag_1:\n      0x00\n      dup1\n      revert\n        /* \"@openzeppelin/contracts/access/AccessControl.sol\":2606:2808  function supportsInterface(bytes4 interfaceId) public view virtual override returns (bool) {... */\n    tag_2:\n      callvalue\n      dup1\n      iszero\n      tag_39\n      jumpi\n      0x00\n      dup1\n      revert\n    tag_39:\n      pop\n      tag_40\n      tag_41\n      calldatasize\n      0x04\n      tag_42\n      jump\t// in\n    tag_41:\n      tag_43\n      jump\t// in\n    tag_40:\n      mload(0x40)\n        /* \"#utility.yul\":470:484   */\n      swap1\n      iszero\n        /* \"#utility.yul\":463:485   */\n      iszero\n        /* \"#utility.yul\":445:486   */\n      dup2\n      mstore\n        /* \"#utility.yul\":433:435   */\n      0x20\n        /* \"#utility.yul\":418:436   */\n      add\n        /* \"@openzeppelin/contracts/access/AccessControl.sol\":2606:2808  function supportsInterface(bytes4 interfaceId) public view virtual override returns (bool) {... */\n    tag_44:\n      mload(0x40)\n      dup1\n      swap2\n      sub\n      swap1\n      return\n        /* \"MintNagaKids.sol\":413:437  bool public isPublicOpen */\n    tag_3:\n      callvalue\n      dup1\n      iszero\n      tag_46\n      jumpi\n      0x00\n      dup1\n      revert\n    tag_46:\n      pop\n      sload(0x03)\n      tag_40\n      swap1\n      shl(0xa0, 0x01)\n      swap1\n      div\n      0xff\n      and\n      dup2\n      jump\n        /* \"MintNagaKids.sol\":3578:3712  function isWhitelistMintedAmount(address _user) public view returns(uint256) {... */\n    tag_4:\n      callvalue\n      dup1\n      iszero\n      tag_50\n      jumpi\n      0x00\n      dup1\n      revert\n    tag_50:\n      pop\n      tag_51\n      tag_52\n      calldatasize\n      0x04\n      tag_53\n      jump\t// in\n    tag_52:\n      sub(shl(0xa0, 0x01), 0x01)\n        /* \"MintNagaKids.sol\":3673:3704  _isWhitelistMintedAmount[_user] */\n      and\n        /* \"MintNagaKids.sol\":3646:3653  uint256 */\n      0x00\n        /* \"MintNagaKids.sol\":3673:3704  _isWhitelistMintedAmount[_user] */\n      swap1\n      dup2\n      mstore\n        /* \"MintNagaKids.sol\":3673:3697  _isWhitelistMintedAmount */\n      0x06\n        /* \"MintNagaKids.sol\":3673:3704  _isWhitelistMintedAmount[_user] */\n      0x20\n      mstore\n      0x40\n      swap1\n      keccak256\n      sload\n      swap1\n        /* \"MintNagaKids.sol\":3578:3712  function isWhitelistMintedAmount(address _user) public view returns(uint256) {... */\n      jump\n    tag_51:\n      mload(0x40)\n        /* \"#utility.yul\":1031:1056   */\n      swap1\n      dup2\n      mstore\n        /* \"#utility.yul\":1019:1021   */\n      0x20\n        /* \"#utility.yul\":1004:1022   */\n      add\n        /* \"MintNagaKids.sol\":3578:3712  function isWhitelistMintedAmount(address _user) public view returns(uint256) {... */\n      tag_44\n        /* \"#utility.yul\":885:1062   */\n      jump\n        /* \"VerifySignature.sol\":99:259  function getMessageHash(... */\n    tag_5:\n      callvalue\n      dup1\n      iszero\n      tag_57\n      jumpi\n      0x00\n      dup1\n      revert\n    tag_57:\n      pop\n      tag_51\n      tag_59\n      calldatasize\n      0x04\n      tag_53\n      jump\t// in\n    tag_59:\n      tag_60\n      jump\t// in\n        /* \"MintNagaKids.sol\":480:501  address public signer */\n    tag_6:\n      callvalue\n      dup1\n      iszero\n      tag_63\n      jumpi\n      0x00\n      dup1\n      revert\n    tag_63:\n      pop\n      sload(0x04)\n      tag_64\n      swap1\n      sub(shl(0xa0, 0x01), 0x01)\n      and\n      dup2\n      jump\n    tag_64:\n      mload(0x40)\n      sub(shl(0xa0, 0x01), 0x01)\n        /* \"#utility.yul\":1413:1445   */\n      swap1\n      swap2\n      and\n        /* \"#utility.yul\":1395:1446   */\n      dup2\n      mstore\n        /* \"#utility.yul\":1383:1385   */\n      0x20\n        /* \"#utility.yul\":1368:1386   */\n      add\n        /* \"MintNagaKids.sol\":480:501  address public signer */\n      tag_44\n        /* \"#utility.yul\":1249:1452   */\n      jump\n        /* \"@openzeppelin/contracts/access/AccessControl.sol\":4391:4520  function getRoleAdmin(bytes32 role) public view virtual override returns (bytes32) {... */\n    tag_7:\n      callvalue\n      dup1\n      iszero\n      tag_68\n      jumpi\n      0x00\n      dup1\n      revert\n    tag_68:\n      pop\n      tag_51\n      tag_70\n      calldatasize\n      0x04\n      tag_71\n      jump\t// in\n    tag_70:\n        /* \"@openzeppelin/contracts/access/AccessControl.sol\":4465:4472  bytes32 */\n      0x00\n        /* \"@openzeppelin/contracts/access/AccessControl.sol\":4491:4503  _roles[role] */\n      swap1\n      dup2\n      mstore\n        /* \"@openzeppelin/contracts/access/AccessControl.sol\":4491:4497  _roles */\n      0x01\n        /* \"@openzeppelin/contracts/access/AccessControl.sol\":4491:4503  _roles[role] */\n      0x20\n      dup2\n      swap1\n      mstore\n      0x40\n      swap1\n      swap2\n      keccak256\n        /* \"@openzeppelin/contracts/access/AccessControl.sol\":4491:4513  _roles[role].adminRole */\n      add\n      sload\n      swap1\n        /* \"@openzeppelin/contracts/access/AccessControl.sol\":4391:4520  function getRoleAdmin(bytes32 role) public view virtual override returns (bytes32) {... */\n      jump\n        /* \"MintNagaKids.sol\":370:406  INagaKidsNFT public nagaKidsContract */\n    tag_8:\n      callvalue\n      dup1\n      iszero\n      tag_74\n      jumpi\n      0x00\n      dup1\n      revert\n    tag_74:\n      pop\n      sload(0x03)\n      tag_64\n      swap1\n      sub(shl(0xa0, 0x01), 0x01)\n      and\n      dup2\n      jump\n        /* \"MintNagaKids.sol\":1787:2661  function whitelistMint(bytes32[] calldata _proofMerkle,uint256 _amount) public payable nonReentrant Paused {... */\n    tag_9:\n      tag_79\n      tag_80\n      calldatasize\n      0x04\n      tag_81\n      jump\t// in\n    tag_80:\n      tag_82\n      jump\t// in\n    tag_79:\n      stop\n        /* \"MintNagaKids.sol\":1132:1268  function setNagaKidsContract(INagaKidsNFT _nagaKids) public onlyRole(DEFAULT_ADMIN_ROLE) {... */\n    tag_10:\n      callvalue\n      dup1\n      iszero\n      tag_83\n      jumpi\n      0x00\n      dup1\n      revert\n    tag_83:\n      pop\n      tag_79\n      tag_85\n      calldatasize\n      0x04\n      tag_53\n      jump\t// in\n    tag_85:\n      tag_87\n      jump\t// in\n        /* \"Whitelist.sol\":161:186  bytes32 public merkleRoot */\n    tag_11:\n      callvalue\n      dup1\n      iszero\n      tag_88\n      jumpi\n      0x00\n      dup1\n      revert\n    tag_88:\n      pop\n      tag_51\n      sload(0x00)\n      dup2\n      jump\n        /* \"@openzeppelin/contracts/access/AccessControl.sol\":4770:4915  function grantRole(bytes32 role, address account) public virtual override onlyRole(getRoleAdmin(role)) {... */\n    tag_12:\n      callvalue\n      dup1\n      iszero\n      tag_92\n      jumpi\n      0x00\n      dup1\n      revert\n    tag_92:\n      pop\n      tag_79\n      tag_94\n      calldatasize\n      0x04\n      tag_95\n      jump\t// in\n    tag_94:\n      tag_96\n      jump\t// in\n        /* \"@openzeppelin/contracts/access/AccessControl.sol\":5787:6001  function renounceRole(bytes32 role, address account) public virtual override {... */\n    tag_13:\n      callvalue\n      dup1\n      iszero\n      tag_97\n      jumpi\n      0x00\n      dup1\n      revert\n    tag_97:\n      pop\n      tag_79\n      tag_99\n      calldatasize\n      0x04\n      tag_95\n      jump\t// in\n    tag_99:\n      tag_100\n      jump\t// in\n        /* \"VerifySignature.sol\":769:1119  function verify(... */\n    tag_14:\n      callvalue\n      dup1\n      iszero\n      tag_101\n      jumpi\n      0x00\n      dup1\n      revert\n    tag_101:\n      pop\n      tag_40\n      tag_103\n      calldatasize\n      0x04\n      tag_104\n      jump\t// in\n    tag_103:\n      tag_105\n      jump\t// in\n        /* \"MintNagaKids.sol\":3961:4069  function getMaxSupply() public view returns (uint256) {... */\n    tag_15:\n      callvalue\n      dup1\n      iszero\n      tag_107\n      jumpi\n      0x00\n      dup1\n      revert\n    tag_107:\n      pop\n      tag_51\n      tag_109\n      jump\t// in\n        /* \"MintNagaKids.sol\":3451:3570  function isWhitelistMinted(address _user) public view returns(bool) {... */\n    tag_16:\n      callvalue\n      dup1\n      iszero\n      tag_111\n      jumpi\n      0x00\n      dup1\n      revert\n    tag_111:\n      pop\n      tag_40\n      tag_113\n      calldatasize\n      0x04\n      tag_53\n      jump\t// in\n    tag_113:\n      sub(shl(0xa0, 0x01), 0x01)\n        /* \"MintNagaKids.sol\":3537:3562  _isWhitelistMinted[_user] */\n      and\n        /* \"MintNagaKids.sol\":3513:3517  bool */\n      0x00\n        /* \"MintNagaKids.sol\":3537:3562  _isWhitelistMinted[_user] */\n      swap1\n      dup2\n      mstore\n        /* \"MintNagaKids.sol\":3537:3555  _isWhitelistMinted */\n      0x05\n        /* \"MintNagaKids.sol\":3537:3562  _isWhitelistMinted[_user] */\n      0x20\n      mstore\n      0x40\n      swap1\n      keccak256\n      sload\n      0xff\n      and\n      swap1\n        /* \"MintNagaKids.sol\":3451:3570  function isWhitelistMinted(address _user) public view returns(bool) {... */\n      jump\n        /* \"MintNagaKids.sol\":1280:1387  function setSigner(address _signer) public onlyRole(DEFAULT_ADMIN_ROLE) {... */\n    tag_17:\n      callvalue\n      dup1\n      iszero\n      tag_116\n      jumpi\n      0x00\n      dup1\n      revert\n    tag_116:\n      pop\n      tag_79\n      tag_118\n      calldatasize\n      0x04\n      tag_53\n      jump\t// in\n    tag_118:\n      tag_119\n      jump\t// in\n        /* \"MintNagaKids.sol\":1654:1777  function setMerkleRoot(bytes32 _merkleRoot) public onlyRole(DEFAULT_ADMIN_ROLE) {... */\n    tag_18:\n      callvalue\n      dup1\n      iszero\n      tag_120\n      jumpi\n      0x00\n      dup1\n      revert\n    tag_120:\n      pop\n      tag_79\n      tag_122\n      calldatasize\n      0x04\n      tag_71\n      jump\t// in\n    tag_122:\n      tag_123\n      jump\t// in\n        /* \"MintNagaKids.sol\":1528:1642  function setPublicOpen(bool _isOpen) public onlyRole(DEFAULT_ADMIN_ROLE) {... */\n    tag_19:\n      callvalue\n      dup1\n      iszero\n      tag_124\n      jumpi\n      0x00\n      dup1\n      revert\n    tag_124:\n      pop\n      tag_79\n      tag_126\n      calldatasize\n      0x04\n      tag_127\n      jump\t// in\n    tag_126:\n      tag_128\n      jump\t// in\n        /* \"@openzeppelin/contracts/access/AccessControl.sol\":2895:3040  function hasRole(bytes32 role, address account) public view virtual override returns (bool) {... */\n    tag_20:\n      callvalue\n      dup1\n      iszero\n      tag_129\n      jumpi\n      0x00\n      dup1\n      revert\n    tag_129:\n      pop\n      tag_40\n      tag_131\n      calldatasize\n      0x04\n      tag_95\n      jump\t// in\n    tag_131:\n      tag_132\n      jump\t// in\n        /* \"MintNagaKids.sol\":444:471  bool public isWhitelistOpen */\n    tag_21:\n      callvalue\n      dup1\n      iszero\n      tag_134\n      jumpi\n      0x00\n      dup1\n      revert\n    tag_134:\n      pop\n      sload(0x03)\n      tag_40\n      swap1\n      shl(0xa8, 0x01)\n      swap1\n      div\n      0xff\n      and\n      dup2\n      jump\n        /* \"VerifySignature.sol\":1127:1401  function recoverSigner(... */\n    tag_22:\n      callvalue\n      dup1\n      iszero\n      tag_138\n      jumpi\n      0x00\n      dup1\n      revert\n    tag_138:\n      pop\n      tag_64\n      tag_140\n      calldatasize\n      0x04\n      tag_141\n      jump\t// in\n    tag_140:\n      tag_142\n      jump\t// in\n        /* \"@openzeppelin/contracts/access/AccessControl.sol\":2027:2076  bytes32 public constant DEFAULT_ADMIN_ROLE = 0x00 */\n    tag_23:\n      callvalue\n      dup1\n      iszero\n      tag_144\n      jumpi\n      0x00\n      dup1\n      revert\n    tag_144:\n      pop\n      tag_51\n        /* \"@openzeppelin/contracts/access/AccessControl.sol\":2072:2076  0x00 */\n      0x00\n        /* \"@openzeppelin/contracts/access/AccessControl.sol\":2027:2076  bytes32 public constant DEFAULT_ADMIN_ROLE = 0x00 */\n      dup2\n      jump\n        /* \"VerifySignature.sol\":1409:2300  function splitSignature(bytes memory sig)... */\n    tag_24:\n      callvalue\n      dup1\n      iszero\n      tag_148\n      jumpi\n      0x00\n      dup1\n      revert\n    tag_148:\n      pop\n      tag_149\n      tag_150\n      calldatasize\n      0x04\n      tag_151\n      jump\t// in\n    tag_150:\n      tag_152\n      jump\t// in\n    tag_149:\n      0x40\n      dup1\n      mload\n        /* \"#utility.yul\":5897:5922   */\n      swap4\n      dup5\n      mstore\n        /* \"#utility.yul\":5953:5955   */\n      0x20\n        /* \"#utility.yul\":5938:5956   */\n      dup5\n      add\n        /* \"#utility.yul\":5931:5965   */\n      swap3\n      swap1\n      swap3\n      mstore\n        /* \"#utility.yul\":6013:6017   */\n      0xff\n        /* \"#utility.yul\":6001:6018   */\n      and\n        /* \"#utility.yul\":5981:5999   */\n      swap1\n      dup3\n      add\n        /* \"#utility.yul\":5974:6019   */\n      mstore\n        /* \"#utility.yul\":5885:5887   */\n      0x60\n        /* \"#utility.yul\":5870:5888   */\n      add\n        /* \"VerifySignature.sol\":1409:2300  function splitSignature(bytes memory sig)... */\n      tag_44\n        /* \"#utility.yul\":5699:6025   */\n      jump\n        /* \"MintNagaKids.sol\":3841:3953  function getTotalSupply() public view returns (uint256) {... */\n    tag_25:\n      callvalue\n      dup1\n      iszero\n      tag_155\n      jumpi\n      0x00\n      dup1\n      revert\n    tag_155:\n      pop\n      tag_51\n      tag_157\n      jump\t// in\n        /* \"@openzeppelin/contracts/access/AccessControl.sol\":5149:5296  function revokeRole(bytes32 role, address account) public virtual override onlyRole(getRoleAdmin(role)) {... */\n    tag_26:\n      callvalue\n      dup1\n      iszero\n      tag_159\n      jumpi\n      0x00\n      dup1\n      revert\n    tag_159:\n      pop\n      tag_79\n      tag_161\n      calldatasize\n      0x04\n      tag_95\n      jump\t// in\n    tag_161:\n      tag_162\n      jump\t// in\n        /* \"MintNagaKids.sol\":2669:3443  function publicMint(bytes calldata _sig) public payable nonReentrant Paused {... */\n    tag_27:\n      tag_79\n      tag_164\n      calldatasize\n      0x04\n      tag_165\n      jump\t// in\n    tag_164:\n      tag_166\n      jump\t// in\n        /* \"MintNagaKids.sol\":3720:3833  function isPublicMinted(address _user) public view returns(bool) {... */\n    tag_28:\n      callvalue\n      dup1\n      iszero\n      tag_167\n      jumpi\n      0x00\n      dup1\n      revert\n    tag_167:\n      pop\n      tag_40\n      tag_169\n      calldatasize\n      0x04\n      tag_53\n      jump\t// in\n    tag_169:\n      sub(shl(0xa0, 0x01), 0x01)\n        /* \"MintNagaKids.sol\":3803:3825  _isPublicMinted[_user] */\n      and\n        /* \"MintNagaKids.sol\":3779:3783  bool */\n      0x00\n        /* \"MintNagaKids.sol\":3803:3825  _isPublicMinted[_user] */\n      swap1\n      dup2\n      mstore\n        /* \"MintNagaKids.sol\":3803:3818  _isPublicMinted */\n      0x07\n        /* \"MintNagaKids.sol\":3803:3825  _isPublicMinted[_user] */\n      0x20\n      mstore\n      0x40\n      swap1\n      keccak256\n      sload\n      0xff\n      and\n      swap1\n        /* \"MintNagaKids.sol\":3720:3833  function isPublicMinted(address _user) public view returns(bool) {... */\n      jump\n        /* \"VerifySignature.sol\":267:761  function getEthSignedMessageHash(bytes32 _messageHash)... */\n    tag_29:\n      callvalue\n      dup1\n      iszero\n      tag_172\n      jumpi\n      0x00\n      dup1\n      revert\n    tag_172:\n      pop\n      tag_51\n      tag_174\n      calldatasize\n      0x04\n      tag_71\n      jump\t// in\n    tag_174:\n      tag_175\n      jump\t// in\n        /* \"MintNagaKids.sol\":1396:1520  function setWhitelistMintOpen(bool _isOpen) public onlyRole(DEFAULT_ADMIN_ROLE) {... */\n    tag_30:\n      callvalue\n      dup1\n      iszero\n      tag_177\n      jumpi\n      0x00\n      dup1\n      revert\n    tag_177:\n      pop\n      tag_79\n      tag_179\n      calldatasize\n      0x04\n      tag_127\n      jump\t// in\n    tag_179:\n      tag_180\n      jump\t// in\n        /* \"MintNagaKids.sol\":4077:4174  function isPause() public view returns (bool) {... */\n    tag_31:\n      callvalue\n      dup1\n      iszero\n      tag_181\n      jumpi\n      0x00\n      dup1\n      revert\n    tag_181:\n      pop\n      tag_40\n      tag_183\n      jump\t// in\n        /* \"@openzeppelin/contracts/access/AccessControl.sol\":2606:2808  function supportsInterface(bytes4 interfaceId) public view virtual override returns (bool) {... */\n    tag_43:\n        /* \"@openzeppelin/contracts/access/AccessControl.sol\":2691:2695  bool */\n      0x00\n      not(sub(shl(0xe0, 0x01), 0x01))\n        /* \"@openzeppelin/contracts/access/AccessControl.sol\":2714:2761  interfaceId == type(IAccessControl).interfaceId */\n      dup3\n      and\n      shl(0xe0, 0x7965db0b)\n      eq\n      dup1\n        /* \"@openzeppelin/contracts/access/AccessControl.sol\":2714:2801  interfaceId == type(IAccessControl).interfaceId || super.supportsInterface(interfaceId) */\n      tag_188\n      jumpi\n      pop\n      shl(0xe0, 0x01ffc9a7)\n      not(sub(shl(0xe0, 0x01), 0x01))\n        /* \"@openzeppelin/contracts/utils/introspection/ERC165.sol\":937:977  interfaceId == type(IERC165).interfaceId */\n      dup4\n      and\n      eq\n        /* \"@openzeppelin/contracts/access/AccessControl.sol\":2765:2801  super.supportsInterface(interfaceId) */\n    tag_188:\n        /* \"@openzeppelin/contracts/access/AccessControl.sol\":2707:2801  return interfaceId == type(IAccessControl).interfaceId || super.supportsInterface(interfaceId) */\n      swap3\n        /* \"@openzeppelin/contracts/access/AccessControl.sol\":2606:2808  function supportsInterface(bytes4 interfaceId) public view virtual override returns (bool) {... */\n      swap2\n      pop\n      pop\n      jump\t// out\n        /* \"VerifySignature.sol\":99:259  function getMessageHash(... */\n    tag_60:\n        /* \"VerifySignature.sol\":212:250  abi.encodePacked(_user, address(this)) */\n      mload(0x40)\n      not(0xffffffffffffffffffffffff)\n        /* \"#utility.yul\":6853:6855   */\n      0x60\n        /* \"#utility.yul\":6849:6864   */\n      dup4\n      dup2\n      shl\n        /* \"#utility.yul\":6845:6869   */\n      dup3\n      and\n        /* \"VerifySignature.sol\":212:250  abi.encodePacked(_user, address(this)) */\n      0x20\n      dup5\n      add\n        /* \"#utility.yul\":6833:6870   */\n      mstore\n        /* \"VerifySignature.sol\":244:248  this */\n      address\n        /* \"#utility.yul\":6904:6919   */\n      swap1\n      shl\n        /* \"#utility.yul\":6900:6924   */\n      and\n        /* \"#utility.yul\":6886:6898   */\n      0x34\n      dup3\n      add\n        /* \"#utility.yul\":6879:6925   */\n      mstore\n        /* \"VerifySignature.sol\":175:182  bytes32 */\n      0x00\n      swap1\n        /* \"#utility.yul\":6941:6953   */\n      0x48\n      add\n        /* \"VerifySignature.sol\":212:250  abi.encodePacked(_user, address(this)) */\n    tag_192:\n      mload(0x40)\n      0x20\n      dup2\n      dup4\n      sub\n      sub\n      dup2\n      mstore\n      swap1\n      0x40\n      mstore\n        /* \"VerifySignature.sol\":202:251  keccak256(abi.encodePacked(_user, address(this))) */\n      dup1\n      mload\n      swap1\n      0x20\n      add\n      keccak256\n        /* \"VerifySignature.sol\":195:251  return keccak256(abi.encodePacked(_user, address(this))) */\n      swap1\n      pop\n        /* \"VerifySignature.sol\":99:259  function getMessageHash(... */\n      swap2\n      swap1\n      pop\n      jump\t// out\n        /* \"MintNagaKids.sol\":1787:2661  function whitelistMint(bytes32[] calldata _proofMerkle,uint256 _amount) public payable nonReentrant Paused {... */\n    tag_82:\n        /* \"@openzeppelin/contracts/security/ReentrancyGuard.sol\":1744:1745  2 */\n      0x02\n        /* \"@openzeppelin/contracts/security/ReentrancyGuard.sol\":2325:2332  _status */\n      dup1\n      sload\n        /* \"@openzeppelin/contracts/security/ReentrancyGuard.sol\":2325:2344  _status != _ENTERED */\n      sub\n        /* \"@openzeppelin/contracts/security/ReentrancyGuard.sol\":2317:2380  require(_status != _ENTERED, \"ReentrancyGuard: reentrant call\") */\n      tag_196\n      jumpi\n      mload(0x40)\n      shl(0xe5, 0x461bcd)\n      dup2\n      mstore\n        /* \"#utility.yul\":7166:7168   */\n      0x20\n        /* \"@openzeppelin/contracts/security/ReentrancyGuard.sol\":2317:2380  require(_status != _ENTERED, \"ReentrancyGuard: reentrant call\") */\n      0x04\n      dup3\n      add\n        /* \"#utility.yul\":7148:7169   */\n      mstore\n        /* \"#utility.yul\":7205:7207   */\n      0x1f\n        /* \"#utility.yul\":7185:7203   */\n      0x24\n      dup3\n      add\n        /* \"#utility.yul\":7178:7208   */\n      mstore\n        /* \"#utility.yul\":7244:7277   */\n      0x5265656e7472616e637947756172643a207265656e7472616e742063616c6c00\n        /* \"#utility.yul\":7224:7242   */\n      0x44\n      dup3\n      add\n        /* \"#utility.yul\":7217:7278   */\n      mstore\n        /* \"#utility.yul\":7295:7313   */\n      0x64\n      add\n        /* \"@openzeppelin/contracts/security/ReentrancyGuard.sol\":2317:2380  require(_status != _ENTERED, \"ReentrancyGuard: reentrant call\") */\n    tag_197:\n      mload(0x40)\n      dup1\n      swap2\n      sub\n      swap1\n      revert\n    tag_196:\n        /* \"@openzeppelin/contracts/security/ReentrancyGuard.sol\":1744:1745  2 */\n      0x02\n        /* \"@openzeppelin/contracts/security/ReentrancyGuard.sol\":2455:2473  _status = _ENTERED */\n      dup1\n      sstore\n        /* \"MintNagaKids.sol\":1062:1071  isPause() */\n      tag_200\n        /* \"MintNagaKids.sol\":1062:1069  isPause */\n      tag_183\n        /* \"MintNagaKids.sol\":1062:1071  isPause() */\n      jump\t// in\n    tag_200:\n        /* \"MintNagaKids.sol\":1062:1080  isPause() == false */\n      iszero\n        /* \"MintNagaKids.sol\":1054:1104  require(isPause() == false,\"NagaKids was Paused.\") */\n      tag_201\n      jumpi\n      mload(0x40)\n      shl(0xe5, 0x461bcd)\n      dup2\n      mstore\n        /* \"#utility.yul\":7526:7528   */\n      0x20\n        /* \"MintNagaKids.sol\":1054:1104  require(isPause() == false,\"NagaKids was Paused.\") */\n      0x04\n      dup3\n      add\n        /* \"#utility.yul\":7508:7529   */\n      mstore\n        /* \"#utility.yul\":7565:7567   */\n      0x14\n        /* \"#utility.yul\":7545:7563   */\n      0x24\n      dup3\n      add\n        /* \"#utility.yul\":7538:7568   */\n      mstore\n      shl(0x61, 0x2730b3b0a5b4b239903bb0b9902830bab9b2b217)\n        /* \"#utility.yul\":7584:7602   */\n      0x44\n      dup3\n      add\n        /* \"#utility.yul\":7577:7627   */\n      mstore\n        /* \"#utility.yul\":7644:7662   */\n      0x64\n      add\n        /* \"MintNagaKids.sol\":1054:1104  require(isPause() == false,\"NagaKids was Paused.\") */\n      tag_197\n        /* \"#utility.yul\":7324:7668   */\n      jump\n        /* \"MintNagaKids.sol\":1054:1104  require(isPause() == false,\"NagaKids was Paused.\") */\n    tag_201:\n        /* \"MintNagaKids.sol\":1913:1928  isWhitelistOpen */\n      sload(0x03)\n      shl(0xa8, 0x01)\n      swap1\n      div\n      0xff\n      and\n        /* \"MintNagaKids.sol\":1913:1936  isWhitelistOpen == true */\n      iszero\n      iszero\n        /* \"MintNagaKids.sol\":1932:1936  true */\n      0x01\n        /* \"MintNagaKids.sol\":1913:1936  isWhitelistOpen == true */\n      eq\n        /* \"MintNagaKids.sol\":1905:1968  require(isWhitelistOpen == true, \"Whitelist not open to mint.\") */\n      tag_205\n      jumpi\n      mload(0x40)\n      shl(0xe5, 0x461bcd)\n      dup2\n      mstore\n        /* \"#utility.yul\":7875:7877   */\n      0x20\n        /* \"MintNagaKids.sol\":1905:1968  require(isWhitelistOpen == true, \"Whitelist not open to mint.\") */\n      0x04\n      dup3\n      add\n        /* \"#utility.yul\":7857:7878   */\n      mstore\n        /* \"#utility.yul\":7914:7916   */\n      0x1b\n        /* \"#utility.yul\":7894:7912   */\n      0x24\n      dup3\n      add\n        /* \"#utility.yul\":7887:7917   */\n      mstore\n        /* \"#utility.yul\":7953:7982   */\n      0x57686974656c697374206e6f74206f70656e20746f206d696e742e0000000000\n        /* \"#utility.yul\":7933:7951   */\n      0x44\n      dup3\n      add\n        /* \"#utility.yul\":7926:7983   */\n      mstore\n        /* \"#utility.yul\":8000:8018   */\n      0x64\n      add\n        /* \"MintNagaKids.sol\":1905:1968  require(isWhitelistOpen == true, \"Whitelist not open to mint.\") */\n      tag_197\n        /* \"#utility.yul\":7673:8024   */\n      jump\n        /* \"MintNagaKids.sol\":1905:1968  require(isWhitelistOpen == true, \"Whitelist not open to mint.\") */\n    tag_205:\n        /* \"MintNagaKids.sol\":2016:2020  1111 */\n      0x0457\n        /* \"MintNagaKids.sol\":2006:2013  _amount */\n      dup2\n        /* \"MintNagaKids.sol\":1987:2003  getTotalSupply() */\n      tag_208\n        /* \"MintNagaKids.sol\":1987:2001  getTotalSupply */\n      tag_157\n        /* \"MintNagaKids.sol\":1987:2003  getTotalSupply() */\n      jump\t// in\n    tag_208:\n        /* \"MintNagaKids.sol\":1987:2013  getTotalSupply() + _amount */\n      tag_209\n      swap2\n      swap1\n      tag_210\n      jump\t// in\n    tag_209:\n        /* \"MintNagaKids.sol\":1987:2020  getTotalSupply() + _amount < 1111 */\n      lt\n        /* \"MintNagaKids.sol\":1979:2036  require(getTotalSupply() + _amount < 1111, \"Over supply\") */\n      tag_211\n      jumpi\n      mload(0x40)\n      shl(0xe5, 0x461bcd)\n      dup2\n      mstore\n        /* \"#utility.yul\":8496:8498   */\n      0x20\n        /* \"MintNagaKids.sol\":1979:2036  require(getTotalSupply() + _amount < 1111, \"Over supply\") */\n      0x04\n      dup3\n      add\n        /* \"#utility.yul\":8478:8499   */\n      mstore\n        /* \"#utility.yul\":8535:8537   */\n      0x0b\n        /* \"#utility.yul\":8515:8533   */\n      0x24\n      dup3\n      add\n        /* \"#utility.yul\":8508:8538   */\n      mstore\n      shl(0xa8, 0x4f76657220737570706c79)\n        /* \"#utility.yul\":8554:8572   */\n      0x44\n      dup3\n      add\n        /* \"#utility.yul\":8547:8588   */\n      mstore\n        /* \"#utility.yul\":8605:8623   */\n      0x64\n      add\n        /* \"MintNagaKids.sol\":1979:2036  require(getTotalSupply() + _amount < 1111, \"Over supply\") */\n      tag_197\n        /* \"#utility.yul\":8294:8629   */\n      jump\n        /* \"MintNagaKids.sol\":1979:2036  require(getTotalSupply() + _amount < 1111, \"Over supply\") */\n    tag_211:\n        /* \"MintNagaKids.sol\":2073:2083  msg.sender */\n      caller\n        /* \"MintNagaKids.sol\":3513:3517  bool */\n      0x00\n        /* \"MintNagaKids.sol\":3537:3562  _isWhitelistMinted[_user] */\n      swap1\n      dup2\n      mstore\n        /* \"MintNagaKids.sol\":3537:3555  _isWhitelistMinted */\n      0x05\n        /* \"MintNagaKids.sol\":3537:3562  _isWhitelistMinted[_user] */\n      0x20\n      mstore\n      0x40\n      swap1\n      keccak256\n      sload\n      0xff\n      and\n        /* \"MintNagaKids.sol\":2055:2092  isWhitelistMinted(msg.sender) != true */\n      iszero\n      iszero\n        /* \"MintNagaKids.sol\":2088:2092  true */\n      0x01\n        /* \"MintNagaKids.sol\":2055:2092  isWhitelistMinted(msg.sender) != true */\n      sub\n        /* \"MintNagaKids.sol\":2047:2120  require(isWhitelistMinted(msg.sender) != true, \"You are already minted.\") */\n      tag_215\n      jumpi\n      mload(0x40)\n      shl(0xe5, 0x461bcd)\n      dup2\n      mstore\n        /* \"#utility.yul\":8836:8838   */\n      0x20\n        /* \"MintNagaKids.sol\":2047:2120  require(isWhitelistMinted(msg.sender) != true, \"You are already minted.\") */\n      0x04\n      dup3\n      add\n        /* \"#utility.yul\":8818:8839   */\n      mstore\n        /* \"#utility.yul\":8875:8877   */\n      0x17\n        /* \"#utility.yul\":8855:8873   */\n      0x24\n      dup3\n      add\n        /* \"#utility.yul\":8848:8878   */\n      mstore\n      shl(0x49, 0x2cb7ba9030b9329030b63932b0b23c9036b4b73a32b217)\n        /* \"#utility.yul\":8894:8912   */\n      0x44\n      dup3\n      add\n        /* \"#utility.yul\":8887:8940   */\n      mstore\n        /* \"#utility.yul\":8957:8975   */\n      0x64\n      add\n        /* \"MintNagaKids.sol\":2047:2120  require(isWhitelistMinted(msg.sender) != true, \"You are already minted.\") */\n      tag_197\n        /* \"#utility.yul\":8634:8981   */\n      jump\n        /* \"MintNagaKids.sol\":2047:2120  require(isWhitelistMinted(msg.sender) != true, \"You are already minted.\") */\n    tag_215:\n        /* \"MintNagaKids.sol\":2139:2155  nagaKidsContract */\n      sload(0x03)\n        /* \"MintNagaKids.sol\":2164:2194  nagaKidsContract.MINTER_ROLE() */\n      0x40\n      dup1\n      mload\n      shl(0xe0, 0xd5391393)\n      dup2\n      mstore\n      swap1\n      mload\n      sub(shl(0xa0, 0x01), 0x01)\n        /* \"MintNagaKids.sol\":2139:2155  nagaKidsContract */\n      swap1\n      swap3\n      and\n      swap2\n        /* \"MintNagaKids.sol\":2139:2163  nagaKidsContract.hasRole */\n      0x91d14854\n      swap2\n        /* \"MintNagaKids.sol\":2139:2155  nagaKidsContract */\n      dup4\n      swap2\n        /* \"MintNagaKids.sol\":2164:2192  nagaKidsContract.MINTER_ROLE */\n      0xd5391393\n      swap2\n        /* \"MintNagaKids.sol\":2164:2194  nagaKidsContract.MINTER_ROLE() */\n      0x04\n      dup1\n      dup3\n      add\n      swap3\n      0x20\n      swap3\n      swap1\n      swap2\n      swap1\n      dup3\n      swap1\n      sub\n      add\n      dup2\n        /* \"MintNagaKids.sol\":2139:2155  nagaKidsContract */\n      dup7\n        /* \"MintNagaKids.sol\":2164:2194  nagaKidsContract.MINTER_ROLE() */\n      gas\n      staticcall\n      iszero\n      dup1\n      iszero\n      tag_219\n      jumpi\n      returndatasize\n      0x00\n      dup1\n      returndatacopy\n      revert(0x00, returndatasize)\n    tag_219:\n      pop\n      pop\n      pop\n      pop\n      mload(0x40)\n      returndatasize\n      not(0x1f)\n      0x1f\n      dup3\n      add\n      and\n      dup3\n      add\n      dup1\n      0x40\n      mstore\n      pop\n      dup2\n      add\n      swap1\n      tag_220\n      swap2\n      swap1\n      tag_221\n      jump\t// in\n    tag_220:\n        /* \"MintNagaKids.sol\":2139:2209  nagaKidsContract.hasRole(nagaKidsContract.MINTER_ROLE(),address(this)) */\n      mload(0x40)\n      not(sub(shl(0xe0, 0x01), 0x01))\n      0xe0\n      dup5\n      swap1\n      shl\n      and\n      dup2\n      mstore\n      0x04\n      dup2\n      add\n        /* \"#utility.yul\":9349:9374   */\n      swap2\n      swap1\n      swap2\n      mstore\n        /* \"MintNagaKids.sol\":2203:2207  this */\n      address\n        /* \"#utility.yul\":9390:9408   */\n      0x24\n      dup3\n      add\n        /* \"#utility.yul\":9383:9443   */\n      mstore\n        /* \"#utility.yul\":9322:9340   */\n      0x44\n      add\n        /* \"MintNagaKids.sol\":2139:2209  nagaKidsContract.hasRole(nagaKidsContract.MINTER_ROLE(),address(this)) */\n      0x20\n      mload(0x40)\n      dup1\n      dup4\n      sub\n      dup2\n      dup7\n      gas\n      staticcall\n      iszero\n      dup1\n      iszero\n      tag_225\n      jumpi\n      returndatasize\n      0x00\n      dup1\n      returndatacopy\n      revert(0x00, returndatasize)\n    tag_225:\n      pop\n      pop\n      pop\n      pop\n      mload(0x40)\n      returndatasize\n      not(0x1f)\n      0x1f\n      dup3\n      add\n      and\n      dup3\n      add\n      dup1\n      0x40\n      mstore\n      pop\n      dup2\n      add\n      swap1\n      tag_226\n      swap2\n      swap1\n      tag_227\n      jump\t// in\n    tag_226:\n        /* \"MintNagaKids.sol\":2139:2217  nagaKidsContract.hasRole(nagaKidsContract.MINTER_ROLE(),address(this)) == true */\n      iszero\n      iszero\n        /* \"MintNagaKids.sol\":2213:2217  true */\n      0x01\n        /* \"MintNagaKids.sol\":2139:2217  nagaKidsContract.hasRole(nagaKidsContract.MINTER_ROLE(),address(this)) == true */\n      eq\n        /* \"MintNagaKids.sol\":2131:2263  require(nagaKidsContract.hasRole(nagaKidsContract.MINTER_ROLE(),address(this)) == true,\"This Contract not have permission to mint.\") */\n      tag_228\n      jumpi\n      mload(0x40)\n      shl(0xe5, 0x461bcd)\n      dup2\n      mstore\n      0x04\n      add\n      tag_197\n      swap1\n      tag_230\n      jump\t// in\n    tag_228:\n        /* \"MintNagaKids.sol\":2282:2326  isWhitelist(_proofMerkle,msg.sender,_amount) */\n      tag_231\n        /* \"MintNagaKids.sol\":2294:2306  _proofMerkle */\n      dup4\n      dup4\n        /* \"MintNagaKids.sol\":2307:2317  msg.sender */\n      caller\n        /* \"MintNagaKids.sol\":2318:2325  _amount */\n      dup5\n        /* \"MintNagaKids.sol\":2282:2293  isWhitelist */\n      tag_232\n        /* \"MintNagaKids.sol\":2282:2326  isWhitelist(_proofMerkle,msg.sender,_amount) */\n      jump\t// in\n    tag_231:\n        /* \"MintNagaKids.sol\":2274:2368  require(isWhitelist(_proofMerkle,msg.sender,_amount), \"Unauthorized WhitelistMint This User.\") */\n      tag_233\n      jumpi\n      mload(0x40)\n      shl(0xe5, 0x461bcd)\n      dup2\n      mstore\n        /* \"#utility.yul\":10317:10319   */\n      0x20\n        /* \"MintNagaKids.sol\":2274:2368  require(isWhitelist(_proofMerkle,msg.sender,_amount), \"Unauthorized WhitelistMint This User.\") */\n      0x04\n      dup3\n      add\n        /* \"#utility.yul\":10299:10320   */\n      mstore\n        /* \"#utility.yul\":10356:10358   */\n      0x25\n        /* \"#utility.yul\":10336:10354   */\n      0x24\n      dup3\n      add\n        /* \"#utility.yul\":10329:10359   */\n      mstore\n        /* \"#utility.yul\":10395:10429   */\n      0x556e617574686f72697a65642057686974656c6973744d696e74205468697320\n        /* \"#utility.yul\":10375:10393   */\n      0x44\n      dup3\n      add\n        /* \"#utility.yul\":10368:10430   */\n      mstore\n      shl(0xd9, 0x2ab9b2b917)\n        /* \"#utility.yul\":10446:10464   */\n      0x64\n      dup3\n      add\n        /* \"#utility.yul\":10439:10474   */\n      mstore\n        /* \"#utility.yul\":10491:10510   */\n      0x84\n      add\n        /* \"MintNagaKids.sol\":2274:2368  require(isWhitelist(_proofMerkle,msg.sender,_amount), \"Unauthorized WhitelistMint This User.\") */\n      tag_197\n        /* \"#utility.yul\":10115:10516   */\n      jump\n        /* \"MintNagaKids.sol\":2274:2368  require(isWhitelist(_proofMerkle,msg.sender,_amount), \"Unauthorized WhitelistMint This User.\") */\n    tag_233:\n        /* \"MintNagaKids.sol\":2400:2410  msg.sender */\n      caller\n        /* \"MintNagaKids.sol\":2381:2411  _isWhitelistMinted[msg.sender] */\n      0x00\n      swap1\n      dup2\n      mstore\n        /* \"MintNagaKids.sol\":2381:2399  _isWhitelistMinted */\n      0x05\n        /* \"MintNagaKids.sol\":2381:2411  _isWhitelistMinted[msg.sender] */\n      0x20\n      swap1\n      dup2\n      mstore\n      0x40\n      dup1\n      dup4\n      keccak256\n        /* \"MintNagaKids.sol\":2381:2418  _isWhitelistMinted[msg.sender] = true */\n      dup1\n      sload\n      not(0xff)\n      and\n        /* \"MintNagaKids.sol\":2414:2418  true */\n      0x01\n        /* \"MintNagaKids.sol\":2381:2418  _isWhitelistMinted[msg.sender] = true */\n      or\n      swap1\n      sstore\n        /* \"MintNagaKids.sol\":2429:2453  _isWhitelistMintedAmount */\n      0x06\n        /* \"MintNagaKids.sol\":2429:2465  _isWhitelistMintedAmount[msg.sender] */\n      swap1\n      swap2\n      mstore\n      dup2\n      keccak256\n        /* \"MintNagaKids.sol\":2429:2476  _isWhitelistMintedAmount[msg.sender] += _amount */\n      dup1\n      sload\n        /* \"MintNagaKids.sol\":2469:2476  _amount */\n      dup4\n      swap3\n        /* \"MintNagaKids.sol\":2381:2411  _isWhitelistMinted[msg.sender] */\n      swap1\n        /* \"MintNagaKids.sol\":2429:2476  _isWhitelistMintedAmount[msg.sender] += _amount */\n      tag_236\n      swap1\n        /* \"MintNagaKids.sol\":2469:2476  _amount */\n      dup5\n      swap1\n        /* \"MintNagaKids.sol\":2429:2476  _isWhitelistMintedAmount[msg.sender] += _amount */\n      tag_210\n      jump\t// in\n    tag_236:\n      swap1\n      swap2\n      sstore\n      pop\n        /* \"MintNagaKids.sol\":2493:2499  uint i */\n      0x00\n      swap1\n      pop\n        /* \"MintNagaKids.sol\":2489:2585  for(uint i = 0; i< _amount; i++){... */\n    tag_237:\n        /* \"MintNagaKids.sol\":2508:2515  _amount */\n      dup2\n        /* \"MintNagaKids.sol\":2505:2506  i */\n      dup2\n        /* \"MintNagaKids.sol\":2505:2515  i< _amount */\n      lt\n        /* \"MintNagaKids.sol\":2489:2585  for(uint i = 0; i< _amount; i++){... */\n      iszero\n      tag_238\n      jumpi\n        /* \"MintNagaKids.sol\":2536:2552  nagaKidsContract */\n      sload(0x03)\n        /* \"MintNagaKids.sol\":2536:2573  nagaKidsContract.safeMint(msg.sender) */\n      mload(0x40)\n      shl(0xe0, 0x40d097c3)\n      dup2\n      mstore\n        /* \"MintNagaKids.sol\":2562:2572  msg.sender */\n      caller\n        /* \"MintNagaKids.sol\":2536:2573  nagaKidsContract.safeMint(msg.sender) */\n      0x04\n      dup3\n      add\n        /* \"#utility.yul\":1395:1446   */\n      mstore\n      sub(shl(0xa0, 0x01), 0x01)\n        /* \"MintNagaKids.sol\":2536:2552  nagaKidsContract */\n      swap1\n      swap2\n      and\n      swap1\n        /* \"MintNagaKids.sol\":2536:2561  nagaKidsContract.safeMint */\n      0x40d097c3\n      swap1\n        /* \"#utility.yul\":1368:1386   */\n      0x24\n      add\n        /* \"MintNagaKids.sol\":2536:2573  nagaKidsContract.safeMint(msg.sender) */\n      0x00\n      mload(0x40)\n      dup1\n      dup4\n      sub\n      dup2\n      0x00\n      dup8\n      dup1\n      extcodesize\n      iszero\n      dup1\n      iszero\n      tag_241\n      jumpi\n      0x00\n      dup1\n      revert\n    tag_241:\n      pop\n      gas\n      call\n      iszero\n      dup1\n      iszero\n      tag_243\n      jumpi\n      returndatasize\n      0x00\n      dup1\n      returndatacopy\n      revert(0x00, returndatasize)\n    tag_243:\n      pop\n      pop\n      pop\n      pop\n        /* \"MintNagaKids.sol\":2517:2520  i++ */\n      dup1\n      dup1\n      tag_244\n      swap1\n      tag_245\n      jump\t// in\n    tag_244:\n      swap2\n      pop\n      pop\n        /* \"MintNagaKids.sol\":2489:2585  for(uint i = 0; i< _amount; i++){... */\n      jump(tag_237)\n    tag_238:\n      pop\n        /* \"MintNagaKids.sol\":2602:2653  WhitelistMinted(msg.sender,_amount,block.timestamp) */\n      0x40\n      dup1\n      mload\n        /* \"#utility.yul\":10835:10860   */\n      dup3\n      dup2\n      mstore\n        /* \"MintNagaKids.sol\":2637:2652  block.timestamp */\n      timestamp\n        /* \"#utility.yul\":10891:10893   */\n      0x20\n        /* \"#utility.yul\":10876:10894   */\n      dup3\n      add\n        /* \"#utility.yul\":10869:10903   */\n      mstore\n        /* \"MintNagaKids.sol\":2618:2628  msg.sender */\n      caller\n      swap2\n        /* \"MintNagaKids.sol\":2602:2653  WhitelistMinted(msg.sender,_amount,block.timestamp) */\n      0xb7df065473d5cf63ef5cf9190dbd326ea5e6fbfe4a0971f4920e430bbfd5a938\n      swap2\n        /* \"#utility.yul\":10808:10826   */\n      add\n        /* \"MintNagaKids.sol\":2602:2653  WhitelistMinted(msg.sender,_amount,block.timestamp) */\n      mload(0x40)\n      dup1\n      swap2\n      sub\n      swap1\n      log2\n      pop\n      pop\n        /* \"@openzeppelin/contracts/security/ReentrancyGuard.sol\":1701:1702  1 */\n      0x01\n        /* \"@openzeppelin/contracts/security/ReentrancyGuard.sol\":2628:2635  _status */\n      0x02\n        /* \"@openzeppelin/contracts/security/ReentrancyGuard.sol\":2628:2650  _status = _NOT_ENTERED */\n      sstore\n      pop\n        /* \"MintNagaKids.sol\":1787:2661  function whitelistMint(bytes32[] calldata _proofMerkle,uint256 _amount) public payable nonReentrant Paused {... */\n      jump\t// out\n        /* \"MintNagaKids.sol\":1132:1268  function setNagaKidsContract(INagaKidsNFT _nagaKids) public onlyRole(DEFAULT_ADMIN_ROLE) {... */\n    tag_87:\n        /* \"@openzeppelin/contracts/access/AccessControl.sol\":2072:2076  0x00 */\n      0x00\n        /* \"@openzeppelin/contracts/access/AccessControl.sol\":2505:2521  _checkRole(role) */\n      tag_249\n        /* \"@openzeppelin/contracts/access/AccessControl.sol\":2072:2076  0x00 */\n      dup2\n        /* \"@openzeppelin/contracts/access/AccessControl.sol\":2505:2515  _checkRole */\n      tag_250\n        /* \"@openzeppelin/contracts/access/AccessControl.sol\":2505:2521  _checkRole(role) */\n      jump\t// in\n    tag_249:\n      pop\n        /* \"MintNagaKids.sol\":1232:1248  nagaKidsContract */\n      0x03\n        /* \"MintNagaKids.sol\":1232:1260  nagaKidsContract = _nagaKids */\n      dup1\n      sload\n      not(sub(shl(0xa0, 0x01), 0x01))\n      and\n      sub(shl(0xa0, 0x01), 0x01)\n      swap3\n      swap1\n      swap3\n      and\n      swap2\n      swap1\n      swap2\n      or\n      swap1\n      sstore\n        /* \"MintNagaKids.sol\":1132:1268  function setNagaKidsContract(INagaKidsNFT _nagaKids) public onlyRole(DEFAULT_ADMIN_ROLE) {... */\n      jump\t// out\n        /* \"@openzeppelin/contracts/access/AccessControl.sol\":4770:4915  function grantRole(bytes32 role, address account) public virtual override onlyRole(getRoleAdmin(role)) {... */\n    tag_96:\n        /* \"@openzeppelin/contracts/access/AccessControl.sol\":4465:4472  bytes32 */\n      0x00\n        /* \"@openzeppelin/contracts/access/AccessControl.sol\":4491:4503  _roles[role] */\n      dup3\n      dup2\n      mstore\n        /* \"@openzeppelin/contracts/access/AccessControl.sol\":4491:4497  _roles */\n      0x01\n        /* \"@openzeppelin/contracts/access/AccessControl.sol\":4491:4503  _roles[role] */\n      0x20\n      dup2\n      swap1\n      mstore\n      0x40\n      swap1\n      swap2\n      keccak256\n        /* \"@openzeppelin/contracts/access/AccessControl.sol\":4491:4513  _roles[role].adminRole */\n      add\n      sload\n        /* \"@openzeppelin/contracts/access/AccessControl.sol\":2505:2521  _checkRole(role) */\n      tag_254\n        /* \"@openzeppelin/contracts/access/AccessControl.sol\":2516:2520  role */\n      dup2\n        /* \"@openzeppelin/contracts/access/AccessControl.sol\":2505:2515  _checkRole */\n      tag_250\n        /* \"@openzeppelin/contracts/access/AccessControl.sol\":2505:2521  _checkRole(role) */\n      jump\t// in\n    tag_254:\n        /* \"@openzeppelin/contracts/access/AccessControl.sol\":4883:4908  _grantRole(role, account) */\n      tag_256\n        /* \"@openzeppelin/contracts/access/AccessControl.sol\":4894:4898  role */\n      dup4\n        /* \"@openzeppelin/contracts/access/AccessControl.sol\":4900:4907  account */\n      dup4\n        /* \"@openzeppelin/contracts/access/AccessControl.sol\":4883:4893  _grantRole */\n      tag_257\n        /* \"@openzeppelin/contracts/access/AccessControl.sol\":4883:4908  _grantRole(role, account) */\n      jump\t// in\n    tag_256:\n        /* \"@openzeppelin/contracts/access/AccessControl.sol\":4770:4915  function grantRole(bytes32 role, address account) public virtual override onlyRole(getRoleAdmin(role)) {... */\n      pop\n      pop\n      pop\n      jump\t// out\n        /* \"@openzeppelin/contracts/access/AccessControl.sol\":5787:6001  function renounceRole(bytes32 role, address account) public virtual override {... */\n    tag_100:\n      sub(shl(0xa0, 0x01), 0x01)\n        /* \"@openzeppelin/contracts/access/AccessControl.sol\":5882:5905  account == _msgSender() */\n      dup2\n      and\n        /* \"@openzeppelin/contracts/utils/Context.sol\":719:729  msg.sender */\n      caller\n        /* \"@openzeppelin/contracts/access/AccessControl.sol\":5882:5905  account == _msgSender() */\n      eq\n        /* \"@openzeppelin/contracts/access/AccessControl.sol\":5874:5957  require(account == _msgSender(), \"AccessControl: can only renounce roles for self\") */\n      tag_261\n      jumpi\n      mload(0x40)\n      shl(0xe5, 0x461bcd)\n      dup2\n      mstore\n        /* \"#utility.yul\":11116:11118   */\n      0x20\n        /* \"@openzeppelin/contracts/access/AccessControl.sol\":5874:5957  require(account == _msgSender(), \"AccessControl: can only renounce roles for self\") */\n      0x04\n      dup3\n      add\n        /* \"#utility.yul\":11098:11119   */\n      mstore\n        /* \"#utility.yul\":11155:11157   */\n      0x2f\n        /* \"#utility.yul\":11135:11153   */\n      0x24\n      dup3\n      add\n        /* \"#utility.yul\":11128:11158   */\n      mstore\n        /* \"#utility.yul\":11194:11228   */\n      0x416363657373436f6e74726f6c3a2063616e206f6e6c792072656e6f756e6365\n        /* \"#utility.yul\":11174:11192   */\n      0x44\n      dup3\n      add\n        /* \"#utility.yul\":11167:11229   */\n      mstore\n      shl(0x89, 0x103937b632b9903337b91039b2b633)\n        /* \"#utility.yul\":11245:11263   */\n      0x64\n      dup3\n      add\n        /* \"#utility.yul\":11238:11283   */\n      mstore\n        /* \"#utility.yul\":11300:11319   */\n      0x84\n      add\n        /* \"@openzeppelin/contracts/access/AccessControl.sol\":5874:5957  require(account == _msgSender(), \"AccessControl: can only renounce roles for self\") */\n      tag_197\n        /* \"#utility.yul\":10914:11325   */\n      jump\n        /* \"@openzeppelin/contracts/access/AccessControl.sol\":5874:5957  require(account == _msgSender(), \"AccessControl: can only renounce roles for self\") */\n    tag_261:\n        /* \"@openzeppelin/contracts/access/AccessControl.sol\":5968:5994  _revokeRole(role, account) */\n      tag_264\n        /* \"@openzeppelin/contracts/access/AccessControl.sol\":5980:5984  role */\n      dup3\n        /* \"@openzeppelin/contracts/access/AccessControl.sol\":5986:5993  account */\n      dup3\n        /* \"@openzeppelin/contracts/access/AccessControl.sol\":5968:5979  _revokeRole */\n      tag_265\n        /* \"@openzeppelin/contracts/access/AccessControl.sol\":5968:5994  _revokeRole(role, account) */\n      jump\t// in\n    tag_264:\n        /* \"@openzeppelin/contracts/access/AccessControl.sol\":5787:6001  function renounceRole(bytes32 role, address account) public virtual override {... */\n      pop\n      pop\n      jump\t// out\n        /* \"VerifySignature.sol\":769:1119  function verify(... */\n    tag_105:\n        /* \"VerifySignature.sol\":896:900  bool */\n      0x00\n        /* \"VerifySignature.sol\":913:932  bytes32 messageHash */\n      dup1\n        /* \"VerifySignature.sol\":935:956  getMessageHash(_user) */\n      tag_267\n        /* \"VerifySignature.sol\":950:955  _user */\n      dup5\n        /* \"VerifySignature.sol\":935:949  getMessageHash */\n      tag_60\n        /* \"VerifySignature.sol\":935:956  getMessageHash(_user) */\n      jump\t// in\n    tag_267:\n        /* \"VerifySignature.sol\":913:956  bytes32 messageHash = getMessageHash(_user) */\n      swap1\n      pop\n        /* \"VerifySignature.sol\":967:995  bytes32 ethSignedMessageHash */\n      0x00\n        /* \"VerifySignature.sol\":998:1034  getEthSignedMessageHash(messageHash) */\n      tag_268\n        /* \"VerifySignature.sol\":1022:1033  messageHash */\n      dup3\n        /* \"VerifySignature.sol\":998:1021  getEthSignedMessageHash */\n      tag_175\n        /* \"VerifySignature.sol\":998:1034  getEthSignedMessageHash(messageHash) */\n      jump\t// in\n    tag_268:\n        /* \"VerifySignature.sol\":967:1034  bytes32 ethSignedMessageHash = getEthSignedMessageHash(messageHash) */\n      swap1\n      pop\n        /* \"VerifySignature.sol\":1104:1111  _signer */\n      dup6\n      sub(shl(0xa0, 0x01), 0x01)\n        /* \"VerifySignature.sol\":1054:1111  recoverSigner(ethSignedMessageHash, signature) == _signer */\n      and\n        /* \"VerifySignature.sol\":1054:1100  recoverSigner(ethSignedMessageHash, signature) */\n      tag_269\n        /* \"VerifySignature.sol\":1068:1088  ethSignedMessageHash */\n      dup3\n        /* \"VerifySignature.sol\":1090:1099  signature */\n      dup7\n        /* \"VerifySignature.sol\":1054:1067  recoverSigner */\n      tag_142\n        /* \"VerifySignature.sol\":1054:1100  recoverSigner(ethSignedMessageHash, signature) */\n      jump\t// in\n    tag_269:\n      sub(shl(0xa0, 0x01), 0x01)\n        /* \"VerifySignature.sol\":1054:1111  recoverSigner(ethSignedMessageHash, signature) == _signer */\n      and\n      eq\n      swap7\n        /* \"VerifySignature.sol\":769:1119  function verify(... */\n      swap6\n      pop\n      pop\n      pop\n      pop\n      pop\n      pop\n      jump\t// out\n        /* \"MintNagaKids.sol\":3961:4069  function getMaxSupply() public view returns (uint256) {... */\n    tag_109:\n        /* \"MintNagaKids.sol\":4033:4049  nagaKidsContract */\n      sload(0x03)\n        /* \"MintNagaKids.sol\":4033:4061  nagaKidsContract.maxSupply() */\n      0x40\n      dup1\n      mload\n      shl(0xe0, 0xd5abeb01)\n      dup2\n      mstore\n      swap1\n      mload\n        /* \"MintNagaKids.sol\":4006:4013  uint256 */\n      0x00\n      swap3\n      sub(shl(0xa0, 0x01), 0x01)\n        /* \"MintNagaKids.sol\":4033:4049  nagaKidsContract */\n      and\n      swap2\n        /* \"MintNagaKids.sol\":4033:4059  nagaKidsContract.maxSupply */\n      0xd5abeb01\n      swap2\n        /* \"MintNagaKids.sol\":4033:4061  nagaKidsContract.maxSupply() */\n      0x04\n      dup1\n      dup4\n      add\n      swap3\n      0x20\n      swap3\n      swap2\n      swap1\n      dup3\n      swap1\n      sub\n      add\n      dup2\n        /* \"MintNagaKids.sol\":4033:4049  nagaKidsContract */\n      dup7\n        /* \"MintNagaKids.sol\":4033:4061  nagaKidsContract.maxSupply() */\n      gas\n      staticcall\n      iszero\n      dup1\n      iszero\n      tag_272\n      jumpi\n      returndatasize\n      0x00\n      dup1\n      returndatacopy\n      revert(0x00, returndatasize)\n    tag_272:\n      pop\n      pop\n      pop\n      pop\n      mload(0x40)\n      returndatasize\n      not(0x1f)\n      0x1f\n      dup3\n      add\n      and\n      dup3\n      add\n      dup1\n      0x40\n      mstore\n      pop\n      dup2\n      add\n      swap1\n      tag_273\n      swap2\n      swap1\n      tag_221\n      jump\t// in\n    tag_273:\n        /* \"MintNagaKids.sol\":4026:4061  return nagaKidsContract.maxSupply() */\n      swap1\n      pop\n        /* \"MintNagaKids.sol\":3961:4069  function getMaxSupply() public view returns (uint256) {... */\n      swap1\n      jump\t// out\n        /* \"MintNagaKids.sol\":1280:1387  function setSigner(address _signer) public onlyRole(DEFAULT_ADMIN_ROLE) {... */\n    tag_119:\n        /* \"@openzeppelin/contracts/access/AccessControl.sol\":2072:2076  0x00 */\n      0x00\n        /* \"@openzeppelin/contracts/access/AccessControl.sol\":2505:2521  _checkRole(role) */\n      tag_277\n        /* \"@openzeppelin/contracts/access/AccessControl.sol\":2072:2076  0x00 */\n      dup2\n        /* \"@openzeppelin/contracts/access/AccessControl.sol\":2505:2515  _checkRole */\n      tag_250\n        /* \"@openzeppelin/contracts/access/AccessControl.sol\":2505:2521  _checkRole(role) */\n      jump\t// in\n    tag_277:\n      pop\n        /* \"MintNagaKids.sol\":1363:1369  signer */\n      0x04\n        /* \"MintNagaKids.sol\":1363:1379  signer = _signer */\n      dup1\n      sload\n      not(sub(shl(0xa0, 0x01), 0x01))\n      and\n      sub(shl(0xa0, 0x01), 0x01)\n      swap3\n      swap1\n      swap3\n      and\n      swap2\n      swap1\n      swap2\n      or\n      swap1\n      sstore\n        /* \"MintNagaKids.sol\":1280:1387  function setSigner(address _signer) public onlyRole(DEFAULT_ADMIN_ROLE) {... */\n      jump\t// out\n        /* \"MintNagaKids.sol\":1654:1777  function setMerkleRoot(bytes32 _merkleRoot) public onlyRole(DEFAULT_ADMIN_ROLE) {... */\n    tag_123:\n        /* \"@openzeppelin/contracts/access/AccessControl.sol\":2072:2076  0x00 */\n      0x00\n        /* \"@openzeppelin/contracts/access/AccessControl.sol\":2505:2521  _checkRole(role) */\n      tag_280\n        /* \"@openzeppelin/contracts/access/AccessControl.sol\":2072:2076  0x00 */\n      dup2\n        /* \"@openzeppelin/contracts/access/AccessControl.sol\":2505:2515  _checkRole */\n      tag_250\n        /* \"@openzeppelin/contracts/access/AccessControl.sol\":2505:2521  _checkRole(role) */\n      jump\t// in\n    tag_280:\n      pop\n        /* \"MintNagaKids.sol\":1745:1755  merkleRoot */\n      0x00\n        /* \"MintNagaKids.sol\":1745:1769  merkleRoot = _merkleRoot */\n      sstore\n        /* \"MintNagaKids.sol\":1654:1777  function setMerkleRoot(bytes32 _merkleRoot) public onlyRole(DEFAULT_ADMIN_ROLE) {... */\n      jump\t// out\n        /* \"MintNagaKids.sol\":1528:1642  function setPublicOpen(bool _isOpen) public onlyRole(DEFAULT_ADMIN_ROLE) {... */\n    tag_128:\n        /* \"@openzeppelin/contracts/access/AccessControl.sol\":2072:2076  0x00 */\n      0x00\n        /* \"@openzeppelin/contracts/access/AccessControl.sol\":2505:2521  _checkRole(role) */\n      tag_283\n        /* \"@openzeppelin/contracts/access/AccessControl.sol\":2072:2076  0x00 */\n      dup2\n        /* \"@openzeppelin/contracts/access/AccessControl.sol\":2505:2515  _checkRole */\n      tag_250\n        /* \"@openzeppelin/contracts/access/AccessControl.sol\":2505:2521  _checkRole(role) */\n      jump\t// in\n    tag_283:\n      pop\n        /* \"MintNagaKids.sol\":1612:1624  isPublicOpen */\n      0x03\n        /* \"MintNagaKids.sol\":1612:1634  isPublicOpen = _isOpen */\n      dup1\n      sload\n      swap2\n      iszero\n      iszero\n      shl(0xa0, 0x01)\n      mul\n      not(shl(0xa0, 0xff))\n      swap1\n      swap3\n      and\n      swap2\n      swap1\n      swap2\n      or\n      swap1\n      sstore\n        /* \"MintNagaKids.sol\":1528:1642  function setPublicOpen(bool _isOpen) public onlyRole(DEFAULT_ADMIN_ROLE) {... */\n      jump\t// out\n        /* \"@openzeppelin/contracts/access/AccessControl.sol\":2895:3040  function hasRole(bytes32 role, address account) public view virtual override returns (bool) {... */\n    tag_132:\n        /* \"@openzeppelin/contracts/access/AccessControl.sol\":2981:2985  bool */\n      0x00\n        /* \"@openzeppelin/contracts/access/AccessControl.sol\":3004:3016  _roles[role] */\n      swap2\n      dup3\n      mstore\n        /* \"@openzeppelin/contracts/access/AccessControl.sol\":3004:3010  _roles */\n      0x01\n        /* \"@openzeppelin/contracts/access/AccessControl.sol\":3004:3016  _roles[role] */\n      0x20\n      swap1\n      dup2\n      mstore\n      0x40\n      dup1\n      dup5\n      keccak256\n      sub(shl(0xa0, 0x01), 0x01)\n        /* \"@openzeppelin/contracts/access/AccessControl.sol\":3004:3033  _roles[role].members[account] */\n      swap4\n      swap1\n      swap4\n      and\n      dup5\n      mstore\n      swap2\n      swap1\n      mstore\n      swap1\n      keccak256\n      sload\n      0xff\n      and\n      swap1\n        /* \"@openzeppelin/contracts/access/AccessControl.sol\":2895:3040  function hasRole(bytes32 role, address account) public view virtual override returns (bool) {... */\n      jump\t// out\n        /* \"VerifySignature.sol\":1127:1401  function recoverSigner(... */\n    tag_142:\n        /* \"VerifySignature.sol\":1252:1259  address */\n      0x00\n        /* \"VerifySignature.sol\":1273:1282  bytes32 r */\n      dup1\n        /* \"VerifySignature.sol\":1284:1293  bytes32 s */\n      0x00\n        /* \"VerifySignature.sol\":1295:1302  uint8 v */\n      dup1\n        /* \"VerifySignature.sol\":1306:1332  splitSignature(_signature) */\n      tag_287\n        /* \"VerifySignature.sol\":1321:1331  _signature */\n      dup6\n        /* \"VerifySignature.sol\":1306:1320  splitSignature */\n      tag_152\n        /* \"VerifySignature.sol\":1306:1332  splitSignature(_signature) */\n      jump\t// in\n    tag_287:\n        /* \"VerifySignature.sol\":1352:1393  ecrecover(_ethSignedMessageHash, v, r, s) */\n      0x40\n      dup1\n      mload\n      0x00\n      dup2\n      mstore\n      0x20\n      dup2\n      add\n      dup1\n      dup4\n      mstore\n        /* \"#utility.yul\":11746:11771   */\n      dup12\n      swap1\n      mstore\n        /* \"#utility.yul\":11819:11823   */\n      0xff\n        /* \"#utility.yul\":11807:11824   */\n      dup4\n      and\n        /* \"#utility.yul\":11787:11805   */\n      swap2\n      dup2\n      add\n        /* \"#utility.yul\":11780:11825   */\n      swap2\n      swap1\n      swap2\n      mstore\n        /* \"#utility.yul\":11841:11859   */\n      0x60\n      dup2\n      add\n        /* \"#utility.yul\":11834:11868   */\n      dup5\n      swap1\n      mstore\n        /* \"#utility.yul\":11884:11902   */\n      0x80\n      dup2\n      add\n        /* \"#utility.yul\":11877:11911   */\n      dup4\n      swap1\n      mstore\n        /* \"VerifySignature.sol\":1272:1332  (bytes32 r, bytes32 s, uint8 v) = splitSignature(_signature) */\n      swap3\n      swap6\n      pop\n      swap1\n      swap4\n      pop\n      swap2\n      pop\n        /* \"VerifySignature.sol\":1352:1393  ecrecover(_ethSignedMessageHash, v, r, s) */\n      0x01\n      swap1\n        /* \"#utility.yul\":11718:11737   */\n      0xa0\n      add\n        /* \"VerifySignature.sol\":1352:1393  ecrecover(_ethSignedMessageHash, v, r, s) */\n      0x20\n      mload(0x40)\n      0x20\n      dup2\n      sub\n      swap1\n      dup1\n      dup5\n      sub\n      swap1\n      dup6\n      gas\n      staticcall\n      iszero\n      dup1\n      iszero\n      tag_291\n      jumpi\n      returndatasize\n      0x00\n      dup1\n      returndatacopy\n      revert(0x00, returndatasize)\n    tag_291:\n      pop\n      pop\n      mload(add(not(0x1f), mload(0x40)))\n      swap8\n        /* \"VerifySignature.sol\":1127:1401  function recoverSigner(... */\n      swap7\n      pop\n      pop\n      pop\n      pop\n      pop\n      pop\n      pop\n      jump\t// out\n        /* \"VerifySignature.sol\":1409:2300  function splitSignature(bytes memory sig)... */\n    tag_152:\n        /* \"VerifySignature.sol\":1513:1522  bytes32 r */\n      0x00\n        /* \"VerifySignature.sol\":1537:1546  bytes32 s */\n      dup1\n        /* \"VerifySignature.sol\":1561:1568  uint8 v */\n      0x00\n        /* \"VerifySignature.sol\":1604:1607  sig */\n      dup4\n        /* \"VerifySignature.sol\":1604:1614  sig.length */\n      mload\n        /* \"VerifySignature.sol\":1618:1620  65 */\n      0x41\n        /* \"VerifySignature.sol\":1604:1620  sig.length == 65 */\n      eq\n        /* \"VerifySignature.sol\":1596:1649  require(sig.length == 65, \"invalid signature length\") */\n      tag_293\n      jumpi\n      mload(0x40)\n      shl(0xe5, 0x461bcd)\n      dup2\n      mstore\n        /* \"#utility.yul\":12124:12126   */\n      0x20\n        /* \"VerifySignature.sol\":1596:1649  require(sig.length == 65, \"invalid signature length\") */\n      0x04\n      dup3\n      add\n        /* \"#utility.yul\":12106:12127   */\n      mstore\n        /* \"#utility.yul\":12163:12165   */\n      0x18\n        /* \"#utility.yul\":12143:12161   */\n      0x24\n      dup3\n      add\n        /* \"#utility.yul\":12136:12166   */\n      mstore\n        /* \"#utility.yul\":12202:12228   */\n      0x696e76616c6964207369676e6174757265206c656e6774680000000000000000\n        /* \"#utility.yul\":12182:12200   */\n      0x44\n      dup3\n      add\n        /* \"#utility.yul\":12175:12229   */\n      mstore\n        /* \"#utility.yul\":12246:12264   */\n      0x64\n      add\n        /* \"VerifySignature.sol\":1596:1649  require(sig.length == 65, \"invalid signature length\") */\n      tag_197\n        /* \"#utility.yul\":11922:12270   */\n      jump\n        /* \"VerifySignature.sol\":1596:1649  require(sig.length == 65, \"invalid signature length\") */\n    tag_293:\n      pop\n      pop\n      pop\n        /* \"VerifySignature.sol\":2058:2060  32 */\n      0x20\n        /* \"VerifySignature.sol\":2049:2061  add(sig, 32) */\n      dup2\n      add\n        /* \"VerifySignature.sol\":2043:2062  mload(add(sig, 32)) */\n      mload\n        /* \"VerifySignature.sol\":2128:2130  64 */\n      0x40\n        /* \"VerifySignature.sol\":2119:2131  add(sig, 64) */\n      dup3\n      add\n        /* \"VerifySignature.sol\":2113:2132  mload(add(sig, 64)) */\n      mload\n        /* \"VerifySignature.sol\":2235:2237  96 */\n      0x60\n        /* \"VerifySignature.sol\":2226:2238  add(sig, 96) */\n      swap1\n      swap3\n      add\n        /* \"VerifySignature.sol\":2220:2239  mload(add(sig, 96)) */\n      mload\n        /* \"VerifySignature.sol\":2043:2062  mload(add(sig, 32)) */\n      swap1\n      swap3\n        /* \"VerifySignature.sol\":2217:2218  0 */\n      0x00\n        /* \"VerifySignature.sol\":2212:2240  byte(0, mload(add(sig, 96))) */\n      swap2\n      swap1\n      swap2\n      byte\n      swap1\n        /* \"VerifySignature.sol\":1409:2300  function splitSignature(bytes memory sig)... */\n      jump\t// out\n        /* \"MintNagaKids.sol\":3841:3953  function getTotalSupply() public view returns (uint256) {... */\n    tag_157:\n        /* \"MintNagaKids.sol\":3915:3931  nagaKidsContract */\n      sload(0x03)\n        /* \"MintNagaKids.sol\":3915:3945  nagaKidsContract.totalSupply() */\n      0x40\n      dup1\n      mload\n      shl(0xe0, 0x18160ddd)\n      dup2\n      mstore\n      swap1\n      mload\n        /* \"MintNagaKids.sol\":3888:3895  uint256 */\n      0x00\n      swap3\n      sub(shl(0xa0, 0x01), 0x01)\n        /* \"MintNagaKids.sol\":3915:3931  nagaKidsContract */\n      and\n      swap2\n        /* \"MintNagaKids.sol\":3915:3943  nagaKidsContract.totalSupply */\n      0x18160ddd\n      swap2\n        /* \"MintNagaKids.sol\":3915:3945  nagaKidsContract.totalSupply() */\n      0x04\n      dup1\n      dup4\n      add\n      swap3\n      0x20\n      swap3\n      swap2\n      swap1\n      dup3\n      swap1\n      sub\n      add\n      dup2\n        /* \"MintNagaKids.sol\":3915:3931  nagaKidsContract */\n      dup7\n        /* \"MintNagaKids.sol\":3915:3945  nagaKidsContract.totalSupply() */\n      gas\n      staticcall\n      iszero\n      dup1\n      iszero\n      tag_272\n      jumpi\n      returndatasize\n      0x00\n      dup1\n      returndatacopy\n      revert(0x00, returndatasize)\n        /* \"@openzeppelin/contracts/access/AccessControl.sol\":5149:5296  function revokeRole(bytes32 role, address account) public virtual override onlyRole(getRoleAdmin(role)) {... */\n    tag_162:\n        /* \"@openzeppelin/contracts/access/AccessControl.sol\":4465:4472  bytes32 */\n      0x00\n        /* \"@openzeppelin/contracts/access/AccessControl.sol\":4491:4503  _roles[role] */\n      dup3\n      dup2\n      mstore\n        /* \"@openzeppelin/contracts/access/AccessControl.sol\":4491:4497  _roles */\n      0x01\n        /* \"@openzeppelin/contracts/access/AccessControl.sol\":4491:4503  _roles[role] */\n      0x20\n      dup2\n      swap1\n      mstore\n      0x40\n      swap1\n      swap2\n      keccak256\n        /* \"@openzeppelin/contracts/access/AccessControl.sol\":4491:4513  _roles[role].adminRole */\n      add\n      sload\n        /* \"@openzeppelin/contracts/access/AccessControl.sol\":2505:2521  _checkRole(role) */\n      tag_302\n        /* \"@openzeppelin/contracts/access/AccessControl.sol\":2516:2520  role */\n      dup2\n        /* \"@openzeppelin/contracts/access/AccessControl.sol\":2505:2515  _checkRole */\n      tag_250\n        /* \"@openzeppelin/contracts/access/AccessControl.sol\":2505:2521  _checkRole(role) */\n      jump\t// in\n    tag_302:\n        /* \"@openzeppelin/contracts/access/AccessControl.sol\":5263:5289  _revokeRole(role, account) */\n      tag_256\n        /* \"@openzeppelin/contracts/access/AccessControl.sol\":5275:5279  role */\n      dup4\n        /* \"@openzeppelin/contracts/access/AccessControl.sol\":5281:5288  account */\n      dup4\n        /* \"@openzeppelin/contracts/access/AccessControl.sol\":5263:5274  _revokeRole */\n      tag_265\n        /* \"@openzeppelin/contracts/access/AccessControl.sol\":5263:5289  _revokeRole(role, account) */\n      jump\t// in\n        /* \"MintNagaKids.sol\":2669:3443  function publicMint(bytes calldata _sig) public payable nonReentrant Paused {... */\n    tag_166:\n        /* \"@openzeppelin/contracts/security/ReentrancyGuard.sol\":1744:1745  2 */\n      0x02\n        /* \"@openzeppelin/contracts/security/ReentrancyGuard.sol\":2325:2332  _status */\n      dup1\n      sload\n        /* \"@openzeppelin/contracts/security/ReentrancyGuard.sol\":2325:2344  _status != _ENTERED */\n      sub\n        /* \"@openzeppelin/contracts/security/ReentrancyGuard.sol\":2317:2380  require(_status != _ENTERED, \"ReentrancyGuard: reentrant call\") */\n      tag_306\n      jumpi\n      mload(0x40)\n      shl(0xe5, 0x461bcd)\n      dup2\n      mstore\n        /* \"#utility.yul\":7166:7168   */\n      0x20\n        /* \"@openzeppelin/contracts/security/ReentrancyGuard.sol\":2317:2380  require(_status != _ENTERED, \"ReentrancyGuard: reentrant call\") */\n      0x04\n      dup3\n      add\n        /* \"#utility.yul\":7148:7169   */\n      mstore\n        /* \"#utility.yul\":7205:7207   */\n      0x1f\n        /* \"#utility.yul\":7185:7203   */\n      0x24\n      dup3\n      add\n        /* \"#utility.yul\":7178:7208   */\n      mstore\n        /* \"#utility.yul\":7244:7277   */\n      0x5265656e7472616e637947756172643a207265656e7472616e742063616c6c00\n        /* \"#utility.yul\":7224:7242   */\n      0x44\n      dup3\n      add\n        /* \"#utility.yul\":7217:7278   */\n      mstore\n        /* \"#utility.yul\":7295:7313   */\n      0x64\n      add\n        /* \"@openzeppelin/contracts/security/ReentrancyGuard.sol\":2317:2380  require(_status != _ENTERED, \"ReentrancyGuard: reentrant call\") */\n      tag_197\n        /* \"#utility.yul\":6964:7319   */\n      jump\n        /* \"@openzeppelin/contracts/security/ReentrancyGuard.sol\":2317:2380  require(_status != _ENTERED, \"ReentrancyGuard: reentrant call\") */\n    tag_306:\n        /* \"@openzeppelin/contracts/security/ReentrancyGuard.sol\":1744:1745  2 */\n      0x02\n        /* \"@openzeppelin/contracts/security/ReentrancyGuard.sol\":2455:2473  _status = _ENTERED */\n      dup1\n      sstore\n        /* \"MintNagaKids.sol\":1062:1071  isPause() */\n      tag_309\n        /* \"MintNagaKids.sol\":1062:1069  isPause */\n      tag_183\n        /* \"MintNagaKids.sol\":1062:1071  isPause() */\n      jump\t// in\n    tag_309:\n        /* \"MintNagaKids.sol\":1062:1080  isPause() == false */\n      iszero\n        /* \"MintNagaKids.sol\":1054:1104  require(isPause() == false,\"NagaKids was Paused.\") */\n      tag_310\n      jumpi\n      mload(0x40)\n      shl(0xe5, 0x461bcd)\n      dup2\n      mstore\n        /* \"#utility.yul\":7526:7528   */\n      0x20\n        /* \"MintNagaKids.sol\":1054:1104  require(isPause() == false,\"NagaKids was Paused.\") */\n      0x04\n      dup3\n      add\n        /* \"#utility.yul\":7508:7529   */\n      mstore\n        /* \"#utility.yul\":7565:7567   */\n      0x14\n        /* \"#utility.yul\":7545:7563   */\n      0x24\n      dup3\n      add\n        /* \"#utility.yul\":7538:7568   */\n      mstore\n      shl(0x61, 0x2730b3b0a5b4b239903bb0b9902830bab9b2b217)\n        /* \"#utility.yul\":7584:7602   */\n      0x44\n      dup3\n      add\n        /* \"#utility.yul\":7577:7627   */\n      mstore\n        /* \"#utility.yul\":7644:7662   */\n      0x64\n      add\n        /* \"MintNagaKids.sol\":1054:1104  require(isPause() == false,\"NagaKids was Paused.\") */\n      tag_197\n        /* \"#utility.yul\":7324:7668   */\n      jump\n        /* \"MintNagaKids.sol\":1054:1104  require(isPause() == false,\"NagaKids was Paused.\") */\n    tag_310:\n        /* \"MintNagaKids.sol\":2766:2778  isPublicOpen */\n      sload(0x03)\n      shl(0xa0, 0x01)\n      swap1\n      div\n      0xff\n      and\n        /* \"MintNagaKids.sol\":2766:2786  isPublicOpen == true */\n      iszero\n      iszero\n        /* \"MintNagaKids.sol\":2782:2786  true */\n      0x01\n        /* \"MintNagaKids.sol\":2766:2786  isPublicOpen == true */\n      eq\n        /* \"MintNagaKids.sol\":2758:2818  require(isPublicOpen == true, \"Whitelist not open to mint.\") */\n      tag_313\n      jumpi\n      mload(0x40)\n      shl(0xe5, 0x461bcd)\n      dup2\n      mstore\n        /* \"#utility.yul\":7875:7877   */\n      0x20\n        /* \"MintNagaKids.sol\":2758:2818  require(isPublicOpen == true, \"Whitelist not open to mint.\") */\n      0x04\n      dup3\n      add\n        /* \"#utility.yul\":7857:7878   */\n      mstore\n        /* \"#utility.yul\":7914:7916   */\n      0x1b\n        /* \"#utility.yul\":7894:7912   */\n      0x24\n      dup3\n      add\n        /* \"#utility.yul\":7887:7917   */\n      mstore\n        /* \"#utility.yul\":7953:7982   */\n      0x57686974656c697374206e6f74206f70656e20746f206d696e742e0000000000\n        /* \"#utility.yul\":7933:7951   */\n      0x44\n      dup3\n      add\n        /* \"#utility.yul\":7926:7983   */\n      mstore\n        /* \"#utility.yul\":8000:8018   */\n      0x64\n      add\n        /* \"MintNagaKids.sol\":2758:2818  require(isPublicOpen == true, \"Whitelist not open to mint.\") */\n      tag_197\n        /* \"#utility.yul\":7673:8024   */\n      jump\n        /* \"MintNagaKids.sol\":2758:2818  require(isPublicOpen == true, \"Whitelist not open to mint.\") */\n    tag_313:\n        /* \"MintNagaKids.sol\":2837:2846  tx.origin */\n      origin\n        /* \"MintNagaKids.sol\":2850:2860  msg.sender */\n      caller\n        /* \"MintNagaKids.sol\":2837:2860  tx.origin == msg.sender */\n      eq\n        /* \"MintNagaKids.sol\":2829:2892  require(tx.origin == msg.sender, \"haha Contract can't call me\") */\n      tag_315\n      jumpi\n      mload(0x40)\n      shl(0xe5, 0x461bcd)\n      dup2\n      mstore\n        /* \"#utility.yul\":12477:12479   */\n      0x20\n        /* \"MintNagaKids.sol\":2829:2892  require(tx.origin == msg.sender, \"haha Contract can't call me\") */\n      0x04\n      dup3\n      add\n        /* \"#utility.yul\":12459:12480   */\n      mstore\n        /* \"#utility.yul\":12516:12518   */\n      0x1b\n        /* \"#utility.yul\":12496:12514   */\n      0x24\n      dup3\n      add\n        /* \"#utility.yul\":12489:12519   */\n      mstore\n        /* \"#utility.yul\":12555:12584   */\n      0x6861686120436f6e74726163742063616e27742063616c6c206d650000000000\n        /* \"#utility.yul\":12535:12553   */\n      0x44\n      dup3\n      add\n        /* \"#utility.yul\":12528:12585   */\n      mstore\n        /* \"#utility.yul\":12602:12620   */\n      0x64\n      add\n        /* \"MintNagaKids.sol\":2829:2892  require(tx.origin == msg.sender, \"haha Contract can't call me\") */\n      tag_197\n        /* \"#utility.yul\":12275:12626   */\n      jump\n        /* \"MintNagaKids.sol\":2829:2892  require(tx.origin == msg.sender, \"haha Contract can't call me\") */\n    tag_315:\n        /* \"MintNagaKids.sol\":2926:2936  msg.sender */\n      caller\n        /* \"MintNagaKids.sol\":3779:3783  bool */\n      0x00\n        /* \"MintNagaKids.sol\":3803:3825  _isPublicMinted[_user] */\n      swap1\n      dup2\n      mstore\n        /* \"MintNagaKids.sol\":3803:3818  _isPublicMinted */\n      0x07\n        /* \"MintNagaKids.sol\":3803:3825  _isPublicMinted[_user] */\n      0x20\n      mstore\n      0x40\n      swap1\n      keccak256\n      sload\n      0xff\n      and\n        /* \"MintNagaKids.sol\":2911:2945  isPublicMinted(msg.sender) != true */\n      iszero\n      iszero\n        /* \"MintNagaKids.sol\":2941:2945  true */\n      0x01\n        /* \"MintNagaKids.sol\":2911:2945  isPublicMinted(msg.sender) != true */\n      sub\n        /* \"MintNagaKids.sol\":2903:2973  require(isPublicMinted(msg.sender) != true, \"You are already minted.\") */\n      tag_319\n      jumpi\n      mload(0x40)\n      shl(0xe5, 0x461bcd)\n      dup2\n      mstore\n        /* \"#utility.yul\":8836:8838   */\n      0x20\n        /* \"MintNagaKids.sol\":2903:2973  require(isPublicMinted(msg.sender) != true, \"You are already minted.\") */\n      0x04\n      dup3\n      add\n        /* \"#utility.yul\":8818:8839   */\n      mstore\n        /* \"#utility.yul\":8875:8877   */\n      0x17\n        /* \"#utility.yul\":8855:8873   */\n      0x24\n      dup3\n      add\n        /* \"#utility.yul\":8848:8878   */\n      mstore\n      shl(0x49, 0x2cb7ba9030b9329030b63932b0b23c9036b4b73a32b217)\n        /* \"#utility.yul\":8894:8912   */\n      0x44\n      dup3\n      add\n        /* \"#utility.yul\":8887:8940   */\n      mstore\n        /* \"#utility.yul\":8957:8975   */\n      0x64\n      add\n        /* \"MintNagaKids.sol\":2903:2973  require(isPublicMinted(msg.sender) != true, \"You are already minted.\") */\n      tag_197\n        /* \"#utility.yul\":8634:8981   */\n      jump\n        /* \"MintNagaKids.sol\":2903:2973  require(isPublicMinted(msg.sender) != true, \"You are already minted.\") */\n    tag_319:\n        /* \"MintNagaKids.sol\":3015:3019  1111 */\n      0x0457\n        /* \"MintNagaKids.sol\":2992:3008  getTotalSupply() */\n      tag_321\n        /* \"MintNagaKids.sol\":2992:3006  getTotalSupply */\n      tag_157\n        /* \"MintNagaKids.sol\":2992:3008  getTotalSupply() */\n      jump\t// in\n    tag_321:\n        /* \"MintNagaKids.sol\":2992:3012  getTotalSupply() + 1 */\n      tag_322\n      swap1\n        /* \"MintNagaKids.sol\":3011:3012  1 */\n      0x01\n        /* \"MintNagaKids.sol\":2992:3012  getTotalSupply() + 1 */\n      tag_210\n      jump\t// in\n    tag_322:\n        /* \"MintNagaKids.sol\":2992:3019  getTotalSupply() + 1 < 1111 */\n      lt\n        /* \"MintNagaKids.sol\":2984:3041  require(getTotalSupply() + 1 < 1111,\"Over Supply Amount\") */\n      tag_323\n      jumpi\n      mload(0x40)\n      shl(0xe5, 0x461bcd)\n      dup2\n      mstore\n        /* \"#utility.yul\":12833:12835   */\n      0x20\n        /* \"MintNagaKids.sol\":2984:3041  require(getTotalSupply() + 1 < 1111,\"Over Supply Amount\") */\n      0x04\n      dup3\n      add\n        /* \"#utility.yul\":12815:12836   */\n      mstore\n        /* \"#utility.yul\":12872:12874   */\n      0x12\n        /* \"#utility.yul\":12852:12870   */\n      0x24\n      dup3\n      add\n        /* \"#utility.yul\":12845:12875   */\n      mstore\n      shl(0x72, 0x13dd995c8814dd5c1c1b1e48105b5bdd5b9d)\n        /* \"#utility.yul\":12891:12909   */\n      0x44\n      dup3\n      add\n        /* \"#utility.yul\":12884:12932   */\n      mstore\n        /* \"#utility.yul\":12949:12967   */\n      0x64\n      add\n        /* \"MintNagaKids.sol\":2984:3041  require(getTotalSupply() + 1 < 1111,\"Over Supply Amount\") */\n      tag_197\n        /* \"#utility.yul\":12631:12973   */\n      jump\n        /* \"MintNagaKids.sol\":2984:3041  require(getTotalSupply() + 1 < 1111,\"Over Supply Amount\") */\n    tag_323:\n        /* \"MintNagaKids.sol\":3060:3076  nagaKidsContract */\n      sload(0x03)\n        /* \"MintNagaKids.sol\":3085:3115  nagaKidsContract.MINTER_ROLE() */\n      0x40\n      dup1\n      mload\n      shl(0xe0, 0xd5391393)\n      dup2\n      mstore\n      swap1\n      mload\n      sub(shl(0xa0, 0x01), 0x01)\n        /* \"MintNagaKids.sol\":3060:3076  nagaKidsContract */\n      swap1\n      swap3\n      and\n      swap2\n        /* \"MintNagaKids.sol\":3060:3084  nagaKidsContract.hasRole */\n      0x91d14854\n      swap2\n        /* \"MintNagaKids.sol\":3060:3076  nagaKidsContract */\n      dup4\n      swap2\n        /* \"MintNagaKids.sol\":3085:3113  nagaKidsContract.MINTER_ROLE */\n      0xd5391393\n      swap2\n        /* \"MintNagaKids.sol\":3085:3115  nagaKidsContract.MINTER_ROLE() */\n      0x04\n      dup1\n      dup3\n      add\n      swap3\n      0x20\n      swap3\n      swap1\n      swap2\n      swap1\n      dup3\n      swap1\n      sub\n      add\n      dup2\n        /* \"MintNagaKids.sol\":3060:3076  nagaKidsContract */\n      dup7\n        /* \"MintNagaKids.sol\":3085:3115  nagaKidsContract.MINTER_ROLE() */\n      gas\n      staticcall\n      iszero\n      dup1\n      iszero\n      tag_327\n      jumpi\n      returndatasize\n      0x00\n      dup1\n      returndatacopy\n      revert(0x00, returndatasize)\n    tag_327:\n      pop\n      pop\n      pop\n      pop\n      mload(0x40)\n      returndatasize\n      not(0x1f)\n      0x1f\n      dup3\n      add\n      and\n      dup3\n      add\n      dup1\n      0x40\n      mstore\n      pop\n      dup2\n      add\n      swap1\n      tag_328\n      swap2\n      swap1\n      tag_221\n      jump\t// in\n    tag_328:\n        /* \"MintNagaKids.sol\":3060:3130  nagaKidsContract.hasRole(nagaKidsContract.MINTER_ROLE(),address(this)) */\n      mload(0x40)\n      not(sub(shl(0xe0, 0x01), 0x01))\n      0xe0\n      dup5\n      swap1\n      shl\n      and\n      dup2\n      mstore\n      0x04\n      dup2\n      add\n        /* \"#utility.yul\":9349:9374   */\n      swap2\n      swap1\n      swap2\n      mstore\n        /* \"MintNagaKids.sol\":3124:3128  this */\n      address\n        /* \"#utility.yul\":9390:9408   */\n      0x24\n      dup3\n      add\n        /* \"#utility.yul\":9383:9443   */\n      mstore\n        /* \"#utility.yul\":9322:9340   */\n      0x44\n      add\n        /* \"MintNagaKids.sol\":3060:3130  nagaKidsContract.hasRole(nagaKidsContract.MINTER_ROLE(),address(this)) */\n      0x20\n      mload(0x40)\n      dup1\n      dup4\n      sub\n      dup2\n      dup7\n      gas\n      staticcall\n      iszero\n      dup1\n      iszero\n      tag_331\n      jumpi\n      returndatasize\n      0x00\n      dup1\n      returndatacopy\n      revert(0x00, returndatasize)\n    tag_331:\n      pop\n      pop\n      pop\n      pop\n      mload(0x40)\n      returndatasize\n      not(0x1f)\n      0x1f\n      dup3\n      add\n      and\n      dup3\n      add\n      dup1\n      0x40\n      mstore\n      pop\n      dup2\n      add\n      swap1\n      tag_332\n      swap2\n      swap1\n      tag_227\n      jump\t// in\n    tag_332:\n        /* \"MintNagaKids.sol\":3060:3138  nagaKidsContract.hasRole(nagaKidsContract.MINTER_ROLE(),address(this)) == true */\n      iszero\n      iszero\n        /* \"MintNagaKids.sol\":3134:3138  true */\n      0x01\n        /* \"MintNagaKids.sol\":3060:3138  nagaKidsContract.hasRole(nagaKidsContract.MINTER_ROLE(),address(this)) == true */\n      eq\n        /* \"MintNagaKids.sol\":3052:3184  require(nagaKidsContract.hasRole(nagaKidsContract.MINTER_ROLE(),address(this)) == true,\"This Contract not have permission to mint.\") */\n      tag_333\n      jumpi\n      mload(0x40)\n      shl(0xe5, 0x461bcd)\n      dup2\n      mstore\n      0x04\n      add\n      tag_197\n      swap1\n      tag_230\n      jump\t// in\n    tag_333:\n        /* \"MintNagaKids.sol\":3210:3216  signer */\n      sload(0x04)\n        /* \"MintNagaKids.sol\":3203:3233  verify(signer,msg.sender,_sig) */\n      0x40\n      dup1\n      mload\n      0x20\n      0x1f\n      dup6\n      add\n      dup2\n      swap1\n      div\n      dup2\n      mul\n      dup3\n      add\n      dup2\n      add\n      swap1\n      swap3\n      mstore\n      dup4\n      dup2\n      mstore\n      tag_335\n      swap3\n      sub(shl(0xa0, 0x01), 0x01)\n        /* \"MintNagaKids.sol\":3210:3216  signer */\n      and\n      swap2\n        /* \"MintNagaKids.sol\":3217:3227  msg.sender */\n      caller\n      swap2\n        /* \"MintNagaKids.sol\":3203:3233  verify(signer,msg.sender,_sig) */\n      swap1\n        /* \"MintNagaKids.sol\":3228:3232  _sig */\n      dup7\n      swap1\n      dup7\n      swap1\n      dup2\n      swap1\n        /* \"MintNagaKids.sol\":3203:3233  verify(signer,msg.sender,_sig) */\n      dup5\n      add\n        /* \"MintNagaKids.sol\":3228:3232  _sig */\n      dup4\n      dup3\n      dup1\n      dup3\n        /* \"MintNagaKids.sol\":3203:3233  verify(signer,msg.sender,_sig) */\n      dup5\n      calldatacopy\n      0x00\n      swap3\n      add\n      swap2\n      swap1\n      swap2\n      mstore\n      pop\n        /* \"MintNagaKids.sol\":3203:3209  verify */\n      tag_105\n      swap3\n      pop\n      pop\n      pop\n        /* \"MintNagaKids.sol\":3203:3233  verify(signer,msg.sender,_sig) */\n      jump\t// in\n    tag_335:\n        /* \"MintNagaKids.sol\":3195:3272  require(verify(signer,msg.sender,_sig), \"Unauthorized PublicMint This User.\") */\n      tag_336\n      jumpi\n      mload(0x40)\n      shl(0xe5, 0x461bcd)\n      dup2\n      mstore\n        /* \"#utility.yul\":13180:13182   */\n      0x20\n        /* \"MintNagaKids.sol\":3195:3272  require(verify(signer,msg.sender,_sig), \"Unauthorized PublicMint This User.\") */\n      0x04\n      dup3\n      add\n        /* \"#utility.yul\":13162:13183   */\n      mstore\n        /* \"#utility.yul\":13219:13221   */\n      0x22\n        /* \"#utility.yul\":13199:13217   */\n      0x24\n      dup3\n      add\n        /* \"#utility.yul\":13192:13222   */\n      mstore\n        /* \"#utility.yul\":13258:13292   */\n      0x556e617574686f72697a6564205075626c69634d696e74205468697320557365\n        /* \"#utility.yul\":13238:13256   */\n      0x44\n      dup3\n      add\n        /* \"#utility.yul\":13231:13293   */\n      mstore\n      shl(0xf1, 0x3917)\n        /* \"#utility.yul\":13309:13327   */\n      0x64\n      dup3\n      add\n        /* \"#utility.yul\":13302:13334   */\n      mstore\n        /* \"#utility.yul\":13351:13370   */\n      0x84\n      add\n        /* \"MintNagaKids.sol\":3195:3272  require(verify(signer,msg.sender,_sig), \"Unauthorized PublicMint This User.\") */\n      tag_197\n        /* \"#utility.yul\":12978:13376   */\n      jump\n        /* \"MintNagaKids.sol\":3195:3272  require(verify(signer,msg.sender,_sig), \"Unauthorized PublicMint This User.\") */\n    tag_336:\n        /* \"MintNagaKids.sol\":3301:3311  msg.sender */\n      caller\n        /* \"MintNagaKids.sol\":3285:3312  _isPublicMinted[msg.sender] */\n      0x00\n      dup2\n      dup2\n      mstore\n        /* \"MintNagaKids.sol\":3285:3300  _isPublicMinted */\n      0x07\n        /* \"MintNagaKids.sol\":3285:3312  _isPublicMinted[msg.sender] */\n      0x20\n      mstore\n      0x40\n      swap1\n      dup2\n      swap1\n      keccak256\n        /* \"MintNagaKids.sol\":3285:3319  _isPublicMinted[msg.sender] = true */\n      dup1\n      sload\n      not(0xff)\n      and\n        /* \"MintNagaKids.sol\":3315:3319  true */\n      0x01\n        /* \"MintNagaKids.sol\":3285:3319  _isPublicMinted[msg.sender] = true */\n      or\n      swap1\n      sstore\n        /* \"MintNagaKids.sol\":3330:3346  nagaKidsContract */\n      sload(0x03)\n        /* \"MintNagaKids.sol\":3330:3367  nagaKidsContract.safeMint(msg.sender) */\n      swap1\n      mload\n      shl(0xe0, 0x40d097c3)\n      dup2\n      mstore\n      0x04\n      dup2\n      add\n        /* \"#utility.yul\":1395:1446   */\n      swap3\n      swap1\n      swap3\n      mstore\n      sub(shl(0xa0, 0x01), 0x01)\n        /* \"MintNagaKids.sol\":3330:3346  nagaKidsContract */\n      and\n      swap1\n        /* \"MintNagaKids.sol\":3330:3355  nagaKidsContract.safeMint */\n      0x40d097c3\n      swap1\n        /* \"#utility.yul\":1368:1386   */\n      0x24\n      add\n        /* \"MintNagaKids.sol\":3330:3367  nagaKidsContract.safeMint(msg.sender) */\n      0x00\n      mload(0x40)\n      dup1\n      dup4\n      sub\n      dup2\n      0x00\n      dup8\n      dup1\n      extcodesize\n      iszero\n      dup1\n      iszero\n      tag_340\n      jumpi\n      0x00\n      dup1\n      revert\n    tag_340:\n      pop\n      gas\n      call\n      iszero\n      dup1\n      iszero\n      tag_342\n      jumpi\n      returndatasize\n      0x00\n      dup1\n      returndatacopy\n      revert(0x00, returndatasize)\n    tag_342:\n      pop\n      pop\n        /* \"MintNagaKids.sol\":3395:3435  PublicMinted(msg.sender,block.timestamp) */\n      mload(0x40)\n        /* \"MintNagaKids.sol\":3419:3434  block.timestamp */\n      timestamp\n        /* \"#utility.yul\":1031:1056   */\n      dup2\n      mstore\n        /* \"MintNagaKids.sol\":3408:3418  msg.sender */\n      caller\n      swap3\n      pop\n        /* \"MintNagaKids.sol\":3395:3435  PublicMinted(msg.sender,block.timestamp) */\n      0xab9980fb1d2916bce9017edd1be458e3f56d0899b3367cb3a8be97483fbe069b\n      swap2\n      pop\n        /* \"#utility.yul\":1019:1021   */\n      0x20\n        /* \"#utility.yul\":1004:1022   */\n      add\n        /* \"MintNagaKids.sol\":3395:3435  PublicMinted(msg.sender,block.timestamp) */\n      mload(0x40)\n      dup1\n      swap2\n      sub\n      swap1\n      log2\n      pop\n      pop\n        /* \"@openzeppelin/contracts/security/ReentrancyGuard.sol\":1701:1702  1 */\n      0x01\n        /* \"@openzeppelin/contracts/security/ReentrancyGuard.sol\":2628:2635  _status */\n      0x02\n        /* \"@openzeppelin/contracts/security/ReentrancyGuard.sol\":2628:2650  _status = _NOT_ENTERED */\n      sstore\n        /* \"MintNagaKids.sol\":2669:3443  function publicMint(bytes calldata _sig) public payable nonReentrant Paused {... */\n      jump\t// out\n        /* \"VerifySignature.sol\":267:761  function getEthSignedMessageHash(bytes32 _messageHash)... */\n    tag_175:\n        /* \"VerifySignature.sol\":611:738  abi.encodePacked(... */\n      mload(0x40)\n        /* \"#utility.yul\":13623:13689   */\n      0x19457468657265756d205369676e6564204d6573736167653a0a333200000000\n        /* \"VerifySignature.sol\":611:738  abi.encodePacked(... */\n      0x20\n      dup3\n      add\n        /* \"#utility.yul\":13611:13690   */\n      mstore\n        /* \"#utility.yul\":13706:13718   */\n      0x3c\n      dup2\n      add\n        /* \"#utility.yul\":13699:13727   */\n      dup3\n      swap1\n      mstore\n        /* \"VerifySignature.sol\":370:377  bytes32 */\n      0x00\n      swap1\n        /* \"#utility.yul\":13743:13755   */\n      0x5c\n      add\n        /* \"VerifySignature.sol\":611:738  abi.encodePacked(... */\n      tag_192\n        /* \"#utility.yul\":13381:13761   */\n      jump\n        /* \"MintNagaKids.sol\":1396:1520  function setWhitelistMintOpen(bool _isOpen) public onlyRole(DEFAULT_ADMIN_ROLE) {... */\n    tag_180:\n        /* \"@openzeppelin/contracts/access/AccessControl.sol\":2072:2076  0x00 */\n      0x00\n        /* \"@openzeppelin/contracts/access/AccessControl.sol\":2505:2521  _checkRole(role) */\n      tag_349\n        /* \"@openzeppelin/contracts/access/AccessControl.sol\":2072:2076  0x00 */\n      dup2\n        /* \"@openzeppelin/contracts/access/AccessControl.sol\":2505:2515  _checkRole */\n      tag_250\n        /* \"@openzeppelin/contracts/access/AccessControl.sol\":2505:2521  _checkRole(role) */\n      jump\t// in\n    tag_349:\n      pop\n        /* \"MintNagaKids.sol\":1487:1502  isWhitelistOpen */\n      0x03\n        /* \"MintNagaKids.sol\":1487:1512  isWhitelistOpen = _isOpen */\n      dup1\n      sload\n      swap2\n      iszero\n      iszero\n      shl(0xa8, 0x01)\n      mul\n      not(shl(0xa8, 0xff))\n      swap1\n      swap3\n      and\n      swap2\n      swap1\n      swap2\n      or\n      swap1\n      sstore\n        /* \"MintNagaKids.sol\":1396:1520  function setWhitelistMintOpen(bool _isOpen) public onlyRole(DEFAULT_ADMIN_ROLE) {... */\n      jump\t// out\n        /* \"MintNagaKids.sol\":4077:4174  function isPause() public view returns (bool) {... */\n    tag_183:\n        /* \"MintNagaKids.sol\":4141:4157  nagaKidsContract */\n      sload(0x03)\n        /* \"MintNagaKids.sol\":4141:4166  nagaKidsContract.paused() */\n      0x40\n      dup1\n      mload\n      shl(0xe0, 0x5c975abb)\n      dup2\n      mstore\n      swap1\n      mload\n        /* \"MintNagaKids.sol\":4117:4121  bool */\n      0x00\n      swap3\n      sub(shl(0xa0, 0x01), 0x01)\n        /* \"MintNagaKids.sol\":4141:4157  nagaKidsContract */\n      and\n      swap2\n        /* \"MintNagaKids.sol\":4141:4164  nagaKidsContract.paused */\n      0x5c975abb\n      swap2\n        /* \"MintNagaKids.sol\":4141:4166  nagaKidsContract.paused() */\n      0x04\n      dup1\n      dup4\n      add\n      swap3\n      0x20\n      swap3\n      swap2\n      swap1\n      dup3\n      swap1\n      sub\n      add\n      dup2\n        /* \"MintNagaKids.sol\":4141:4157  nagaKidsContract */\n      dup7\n        /* \"MintNagaKids.sol\":4141:4166  nagaKidsContract.paused() */\n      gas\n      staticcall\n      iszero\n      dup1\n      iszero\n      tag_353\n      jumpi\n      returndatasize\n      0x00\n      dup1\n      returndatacopy\n      revert(0x00, returndatasize)\n    tag_353:\n      pop\n      pop\n      pop\n      pop\n      mload(0x40)\n      returndatasize\n      not(0x1f)\n      0x1f\n      dup3\n      add\n      and\n      dup3\n      add\n      dup1\n      0x40\n      mstore\n      pop\n      dup2\n      add\n      swap1\n      tag_273\n      swap2\n      swap1\n      tag_227\n      jump\t// in\n        /* \"@openzeppelin/contracts/utils/Strings.sol\":1588:2029  function toHexString(uint256 value, uint256 length) internal pure returns (string memory) {... */\n    tag_185:\n        /* \"@openzeppelin/contracts/utils/Strings.sol\":1663:1676  string memory */\n      0x60\n        /* \"@openzeppelin/contracts/utils/Strings.sol\":1688:1707  bytes memory buffer */\n      0x00\n        /* \"@openzeppelin/contracts/utils/Strings.sol\":1720:1730  2 * length */\n      tag_356\n        /* \"@openzeppelin/contracts/utils/Strings.sol\":1724:1730  length */\n      dup4\n        /* \"@openzeppelin/contracts/utils/Strings.sol\":1720:1721  2 */\n      0x02\n        /* \"@openzeppelin/contracts/utils/Strings.sol\":1720:1730  2 * length */\n      tag_357\n      jump\t// in\n    tag_356:\n        /* \"@openzeppelin/contracts/utils/Strings.sol\":1720:1734  2 * length + 2 */\n      tag_358\n      swap1\n        /* \"@openzeppelin/contracts/utils/Strings.sol\":1733:1734  2 */\n      0x02\n        /* \"@openzeppelin/contracts/utils/Strings.sol\":1720:1734  2 * length + 2 */\n      tag_210\n      jump\t// in\n    tag_358:\n        /* \"@openzeppelin/contracts/utils/Strings.sol\":1710:1735  new bytes(2 * length + 2) */\n      0xffffffffffffffff\n      dup2\n      gt\n      iszero\n      tag_360\n      jumpi\n      tag_360\n      tag_361\n      jump\t// in\n    tag_360:\n      mload(0x40)\n      swap1\n      dup1\n      dup3\n      mstore\n      dup1\n      0x1f\n      add\n      not(0x1f)\n      and\n      0x20\n      add\n      dup3\n      add\n      0x40\n      mstore\n      dup1\n      iszero\n      tag_362\n      jumpi\n      0x20\n      dup3\n      add\n      dup2\n      dup1\n      calldatasize\n      dup4\n      calldatacopy\n      add\n      swap1\n      pop\n    tag_362:\n      pop\n        /* \"@openzeppelin/contracts/utils/Strings.sol\":1688:1735  bytes memory buffer = new bytes(2 * length + 2) */\n      swap1\n      pop\n      shl(0xfc, 0x03)\n        /* \"@openzeppelin/contracts/utils/Strings.sol\":1745:1751  buffer */\n      dup2\n        /* \"@openzeppelin/contracts/utils/Strings.sol\":1752:1753  0 */\n      0x00\n        /* \"@openzeppelin/contracts/utils/Strings.sol\":1745:1754  buffer[0] */\n      dup2\n      mload\n      dup2\n      lt\n      tag_364\n      jumpi\n      tag_364\n      tag_365\n      jump\t// in\n    tag_364:\n      0x20\n      add\n      add\n        /* \"@openzeppelin/contracts/utils/Strings.sol\":1745:1760  buffer[0] = \"0\" */\n      swap1\n      not(sub(shl(0xf8, 0x01), 0x01))\n      and\n      swap1\n      dup2\n      0x00\n      byte\n      swap1\n      mstore8\n      pop\n      shl(0xfb, 0x0f)\n        /* \"@openzeppelin/contracts/utils/Strings.sol\":1770:1776  buffer */\n      dup2\n        /* \"@openzeppelin/contracts/utils/Strings.sol\":1777:1778  1 */\n      0x01\n        /* \"@openzeppelin/contracts/utils/Strings.sol\":1770:1779  buffer[1] */\n      dup2\n      mload\n      dup2\n      lt\n      tag_367\n      jumpi\n      tag_367\n      tag_365\n      jump\t// in\n    tag_367:\n      0x20\n      add\n      add\n        /* \"@openzeppelin/contracts/utils/Strings.sol\":1770:1785  buffer[1] = \"x\" */\n      swap1\n      not(sub(shl(0xf8, 0x01), 0x01))\n      and\n      swap1\n      dup2\n      0x00\n      byte\n      swap1\n      mstore8\n      pop\n        /* \"@openzeppelin/contracts/utils/Strings.sol\":1800:1809  uint256 i */\n      0x00\n        /* \"@openzeppelin/contracts/utils/Strings.sol\":1812:1822  2 * length */\n      tag_371\n        /* \"@openzeppelin/contracts/utils/Strings.sol\":1816:1822  length */\n      dup5\n        /* \"@openzeppelin/contracts/utils/Strings.sol\":1812:1813  2 */\n      0x02\n        /* \"@openzeppelin/contracts/utils/Strings.sol\":1812:1822  2 * length */\n      tag_357\n      jump\t// in\n    tag_371:\n        /* \"@openzeppelin/contracts/utils/Strings.sol\":1812:1826  2 * length + 1 */\n      tag_372\n      swap1\n        /* \"@openzeppelin/contracts/utils/Strings.sol\":1825:1826  1 */\n      0x01\n        /* \"@openzeppelin/contracts/utils/Strings.sol\":1812:1826  2 * length + 1 */\n      tag_210\n      jump\t// in\n    tag_372:\n        /* \"@openzeppelin/contracts/utils/Strings.sol\":1800:1826  uint256 i = 2 * length + 1 */\n      swap1\n      pop\n        /* \"@openzeppelin/contracts/utils/Strings.sol\":1795:1927  for (uint256 i = 2 * length + 1; i > 1; --i) {... */\n    tag_368:\n        /* \"@openzeppelin/contracts/utils/Strings.sol\":1832:1833  1 */\n      0x01\n        /* \"@openzeppelin/contracts/utils/Strings.sol\":1828:1829  i */\n      dup2\n        /* \"@openzeppelin/contracts/utils/Strings.sol\":1828:1833  i > 1 */\n      gt\n        /* \"@openzeppelin/contracts/utils/Strings.sol\":1795:1927  for (uint256 i = 2 * length + 1; i > 1; --i) {... */\n      iszero\n      tag_369\n      jumpi\n      shl(0x81, 0x181899199a1a9b1b9c1cb0b131b232b3)\n        /* \"@openzeppelin/contracts/utils/Strings.sol\":1879:1884  value */\n      dup6\n        /* \"@openzeppelin/contracts/utils/Strings.sol\":1887:1890  0xf */\n      0x0f\n        /* \"@openzeppelin/contracts/utils/Strings.sol\":1879:1890  value & 0xf */\n      and\n        /* \"@openzeppelin/contracts/utils/Strings.sol\":1866:1891  _HEX_SYMBOLS[value & 0xf] */\n      0x10\n      dup2\n      lt\n      tag_374\n      jumpi\n      tag_374\n      tag_365\n      jump\t// in\n    tag_374:\n      byte\n      0xf8\n      shl\n        /* \"@openzeppelin/contracts/utils/Strings.sol\":1854:1860  buffer */\n      dup3\n        /* \"@openzeppelin/contracts/utils/Strings.sol\":1861:1862  i */\n      dup3\n        /* \"@openzeppelin/contracts/utils/Strings.sol\":1854:1863  buffer[i] */\n      dup2\n      mload\n      dup2\n      lt\n      tag_376\n      jumpi\n      tag_376\n      tag_365\n      jump\t// in\n    tag_376:\n      0x20\n      add\n      add\n        /* \"@openzeppelin/contracts/utils/Strings.sol\":1854:1891  buffer[i] = _HEX_SYMBOLS[value & 0xf] */\n      swap1\n      not(sub(shl(0xf8, 0x01), 0x01))\n      and\n      swap1\n      dup2\n      0x00\n      byte\n      swap1\n      mstore8\n      pop\n        /* \"@openzeppelin/contracts/utils/Strings.sol\":1915:1916  4 */\n      0x04\n        /* \"@openzeppelin/contracts/utils/Strings.sol\":1905:1916  value >>= 4 */\n      swap5\n      swap1\n      swap5\n      shr\n      swap4\n        /* \"@openzeppelin/contracts/utils/Strings.sol\":1835:1838  --i */\n      tag_377\n      dup2\n      tag_378\n      jump\t// in\n    tag_377:\n      swap1\n      pop\n        /* \"@openzeppelin/contracts/utils/Strings.sol\":1795:1927  for (uint256 i = 2 * length + 1; i > 1; --i) {... */\n      jump(tag_368)\n    tag_369:\n      pop\n        /* \"@openzeppelin/contracts/utils/Strings.sol\":1944:1954  value == 0 */\n      dup4\n      iszero\n        /* \"@openzeppelin/contracts/utils/Strings.sol\":1936:1991  require(value == 0, \"Strings: hex length insufficient\") */\n      tag_379\n      jumpi\n      mload(0x40)\n      shl(0xe5, 0x461bcd)\n      dup2\n      mstore\n        /* \"#utility.yul\":14414:14416   */\n      0x20\n        /* \"@openzeppelin/contracts/utils/Strings.sol\":1936:1991  require(value == 0, \"Strings: hex length insufficient\") */\n      0x04\n      dup3\n      add\n        /* \"#utility.yul\":14396:14417   */\n      dup2\n      swap1\n      mstore\n        /* \"#utility.yul\":14433:14451   */\n      0x24\n      dup3\n      add\n        /* \"#utility.yul\":14426:14456   */\n      mstore\n        /* \"#utility.yul\":14492:14526   */\n      0x537472696e67733a20686578206c656e67746820696e73756666696369656e74\n        /* \"#utility.yul\":14472:14490   */\n      0x44\n      dup3\n      add\n        /* \"#utility.yul\":14465:14527   */\n      mstore\n        /* \"#utility.yul\":14544:14562   */\n      0x64\n      add\n        /* \"@openzeppelin/contracts/utils/Strings.sol\":1936:1991  require(value == 0, \"Strings: hex length insufficient\") */\n      tag_197\n        /* \"#utility.yul\":14212:14568   */\n      jump\n        /* \"@openzeppelin/contracts/utils/Strings.sol\":1936:1991  require(value == 0, \"Strings: hex length insufficient\") */\n    tag_379:\n        /* \"@openzeppelin/contracts/utils/Strings.sol\":2015:2021  buffer */\n      swap4\n        /* \"@openzeppelin/contracts/utils/Strings.sol\":1588:2029  function toHexString(uint256 value, uint256 length) internal pure returns (string memory) {... */\n      swap3\n      pop\n      pop\n      pop\n      jump\t// out\n        /* \"Whitelist.sol\":195:598  function isWhitelist(... */\n    tag_232:\n        /* \"Whitelist.sol\":332:336  bool */\n      0x00\n        /* \"Whitelist.sol\":353:363  merkleRoot */\n      dup1\n      sload\n        /* \"Whitelist.sol\":353:368  merkleRoot == 0 */\n      dup2\n      sub\n        /* \"Whitelist.sol\":349:409  if (merkleRoot == 0) {... */\n      tag_384\n      jumpi\n      pop\n        /* \"Whitelist.sol\":392:397  false */\n      0x00\n        /* \"Whitelist.sol\":385:397  return false */\n      jump(tag_383)\n        /* \"Whitelist.sol\":349:409  if (merkleRoot == 0) {... */\n    tag_384:\n        /* \"Whitelist.sol\":441:590  MerkleProof.verify(... */\n      tag_385\n        /* \"Whitelist.sol\":478:484  _proof */\n      dup6\n      dup6\n        /* \"Whitelist.sol\":441:590  MerkleProof.verify(... */\n      dup1\n      dup1\n      0x20\n      mul\n      0x20\n      add\n      mload(0x40)\n      swap1\n      dup2\n      add\n      0x40\n      mstore\n      dup1\n      swap4\n      swap3\n      swap2\n      swap1\n      dup2\n      dup2\n      mstore\n      0x20\n      add\n      dup4\n      dup4\n      0x20\n      mul\n      dup1\n      dup3\n      dup5\n      calldatacopy\n      0x00\n      swap3\n      add\n      dup3\n      swap1\n      mstore\n      pop\n        /* \"Whitelist.sol\":503:513  merkleRoot */\n      sload\n        /* \"Whitelist.sol\":542:574  abi.encodePacked(_user, _amount) */\n      mload(0x40)\n      not(0xffffffffffffffffffffffff)\n        /* \"#utility.yul\":14750:14752   */\n      0x60\n        /* \"#utility.yul\":14746:14761   */\n      dup12\n      swap1\n      shl\n        /* \"#utility.yul\":14742:14795   */\n      and\n        /* \"Whitelist.sol\":542:574  abi.encodePacked(_user, _amount) */\n      0x20\n      dup3\n      add\n        /* \"#utility.yul\":14730:14796   */\n      mstore\n        /* \"#utility.yul\":14812:14824   */\n      0x34\n      dup2\n      add\n        /* \"#utility.yul\":14805:14833   */\n      dup10\n      swap1\n      mstore\n        /* \"Whitelist.sol\":503:513  merkleRoot */\n      swap1\n      swap4\n      pop\n        /* \"#utility.yul\":14849:14861   */\n      0x54\n      add\n      swap2\n      pop\n        /* \"Whitelist.sol\":542:574  abi.encodePacked(_user, _amount) */\n      tag_386\n      swap1\n      pop\n        /* \"#utility.yul\":14573:14867   */\n      jump\n        /* \"Whitelist.sol\":542:574  abi.encodePacked(_user, _amount) */\n    tag_386:\n      mload(0x40)\n      0x20\n      dup2\n      dup4\n      sub\n      sub\n      dup2\n      mstore\n      swap1\n      0x40\n      mstore\n        /* \"Whitelist.sol\":532:575  keccak256(abi.encodePacked(_user, _amount)) */\n      dup1\n      mload\n      swap1\n      0x20\n      add\n      keccak256\n        /* \"Whitelist.sol\":441:459  MerkleProof.verify */\n      tag_388\n        /* \"Whitelist.sol\":441:590  MerkleProof.verify(... */\n      jump\t// in\n    tag_385:\n        /* \"Whitelist.sol\":421:590  return... */\n      swap1\n      pop\n        /* \"Whitelist.sol\":195:598  function isWhitelist(... */\n    tag_383:\n      swap5\n      swap4\n      pop\n      pop\n      pop\n      pop\n      jump\t// out\n        /* \"@openzeppelin/contracts/access/AccessControl.sol\":3334:3437  function _checkRole(bytes32 role) internal view virtual {... */\n    tag_250:\n        /* \"@openzeppelin/contracts/access/AccessControl.sol\":3400:3430  _checkRole(role, _msgSender()) */\n      tag_390\n        /* \"@openzeppelin/contracts/access/AccessControl.sol\":3411:3415  role */\n      dup2\n        /* \"@openzeppelin/contracts/utils/Context.sol\":719:729  msg.sender */\n      caller\n        /* \"@openzeppelin/contracts/access/AccessControl.sol\":3400:3410  _checkRole */\n      tag_392\n        /* \"@openzeppelin/contracts/access/AccessControl.sol\":3400:3430  _checkRole(role, _msgSender()) */\n      jump\t// in\n    tag_390:\n        /* \"@openzeppelin/contracts/access/AccessControl.sol\":3334:3437  function _checkRole(bytes32 role) internal view virtual {... */\n      pop\n      jump\t// out\n        /* \"@openzeppelin/contracts/access/AccessControl.sol\":7244:7477  function _grantRole(bytes32 role, address account) internal virtual {... */\n    tag_257:\n        /* \"@openzeppelin/contracts/access/AccessControl.sol\":7327:7349  hasRole(role, account) */\n      tag_394\n        /* \"@openzeppelin/contracts/access/AccessControl.sol\":7335:7339  role */\n      dup3\n        /* \"@openzeppelin/contracts/access/AccessControl.sol\":7341:7348  account */\n      dup3\n        /* \"@openzeppelin/contracts/access/AccessControl.sol\":7327:7334  hasRole */\n      tag_132\n        /* \"@openzeppelin/contracts/access/AccessControl.sol\":7327:7349  hasRole(role, account) */\n      jump\t// in\n    tag_394:\n        /* \"@openzeppelin/contracts/access/AccessControl.sol\":7322:7471  if (!hasRole(role, account)) {... */\n      tag_264\n      jumpi\n        /* \"@openzeppelin/contracts/access/AccessControl.sol\":7365:7377  _roles[role] */\n      0x00\n      dup3\n      dup2\n      mstore\n        /* \"@openzeppelin/contracts/access/AccessControl.sol\":7397:7401  true */\n      0x01\n        /* \"@openzeppelin/contracts/access/AccessControl.sol\":7365:7377  _roles[role] */\n      0x20\n      dup2\n      dup2\n      mstore\n      0x40\n      dup1\n      dup5\n      keccak256\n      sub(shl(0xa0, 0x01), 0x01)\n        /* \"@openzeppelin/contracts/access/AccessControl.sol\":7365:7394  _roles[role].members[account] */\n      dup7\n      and\n      dup1\n      dup7\n      mstore\n      swap3\n      mstore\n      dup1\n      dup5\n      keccak256\n        /* \"@openzeppelin/contracts/access/AccessControl.sol\":7365:7401  _roles[role].members[account] = true */\n      dup1\n      sload\n      not(0xff)\n      and\n      swap1\n      swap4\n      or\n      swap1\n      swap3\n      sstore\n        /* \"@openzeppelin/contracts/access/AccessControl.sol\":7420:7460  RoleGranted(role, account, _msgSender()) */\n      swap1\n      mload\n        /* \"@openzeppelin/contracts/utils/Context.sol\":719:729  msg.sender */\n      caller\n      swap3\n        /* \"@openzeppelin/contracts/access/AccessControl.sol\":7365:7377  _roles[role] */\n      dup6\n      swap2\n        /* \"@openzeppelin/contracts/access/AccessControl.sol\":7420:7460  RoleGranted(role, account, _msgSender()) */\n      0x2f8788117e7eff1d82e926ec794901d17c78024a50270940304540a733656f0d\n      swap2\n        /* \"@openzeppelin/contracts/access/AccessControl.sol\":7365:7377  _roles[role] */\n      swap1\n        /* \"@openzeppelin/contracts/access/AccessControl.sol\":7420:7460  RoleGranted(role, account, _msgSender()) */\n      log4\n        /* \"@openzeppelin/contracts/access/AccessControl.sol\":7244:7477  function _grantRole(bytes32 role, address account) internal virtual {... */\n      pop\n      pop\n      jump\t// out\n        /* \"@openzeppelin/contracts/access/AccessControl.sol\":7602:7836  function _revokeRole(bytes32 role, address account) internal virtual {... */\n    tag_265:\n        /* \"@openzeppelin/contracts/access/AccessControl.sol\":7685:7707  hasRole(role, account) */\n      tag_399\n        /* \"@openzeppelin/contracts/access/AccessControl.sol\":7693:7697  role */\n      dup3\n        /* \"@openzeppelin/contracts/access/AccessControl.sol\":7699:7706  account */\n      dup3\n        /* \"@openzeppelin/contracts/access/AccessControl.sol\":7685:7692  hasRole */\n      tag_132\n        /* \"@openzeppelin/contracts/access/AccessControl.sol\":7685:7707  hasRole(role, account) */\n      jump\t// in\n    tag_399:\n        /* \"@openzeppelin/contracts/access/AccessControl.sol\":7681:7830  if (hasRole(role, account)) {... */\n      iszero\n      tag_264\n      jumpi\n        /* \"@openzeppelin/contracts/access/AccessControl.sol\":7755:7760  false */\n      0x00\n        /* \"@openzeppelin/contracts/access/AccessControl.sol\":7723:7735  _roles[role] */\n      dup3\n      dup2\n      mstore\n        /* \"@openzeppelin/contracts/access/AccessControl.sol\":7723:7729  _roles */\n      0x01\n        /* \"@openzeppelin/contracts/access/AccessControl.sol\":7723:7735  _roles[role] */\n      0x20\n      swap1\n      dup2\n      mstore\n      0x40\n      dup1\n      dup4\n      keccak256\n      sub(shl(0xa0, 0x01), 0x01)\n        /* \"@openzeppelin/contracts/access/AccessControl.sol\":7723:7752  _roles[role].members[account] */\n      dup6\n      and\n      dup1\n      dup6\n      mstore\n      swap3\n      mstore\n      dup1\n      dup4\n      keccak256\n        /* \"@openzeppelin/contracts/access/AccessControl.sol\":7723:7760  _roles[role].members[account] = false */\n      dup1\n      sload\n      not(0xff)\n      and\n      swap1\n      sstore\n        /* \"@openzeppelin/contracts/access/AccessControl.sol\":7779:7819  RoleRevoked(role, account, _msgSender()) */\n      mload\n        /* \"@openzeppelin/contracts/utils/Context.sol\":719:729  msg.sender */\n      caller\n      swap3\n        /* \"@openzeppelin/contracts/access/AccessControl.sol\":7723:7735  _roles[role] */\n      dup6\n      swap2\n        /* \"@openzeppelin/contracts/access/AccessControl.sol\":7779:7819  RoleRevoked(role, account, _msgSender()) */\n      0xf6391f5c32d9c69d2a47ea670b442974b53935d1edc7fd64eb21e047a839171b\n      swap2\n        /* \"@openzeppelin/contracts/access/AccessControl.sol\":7755:7760  false */\n      swap1\n        /* \"@openzeppelin/contracts/access/AccessControl.sol\":7779:7819  RoleRevoked(role, account, _msgSender()) */\n      log4\n        /* \"@openzeppelin/contracts/access/AccessControl.sol\":7602:7836  function _revokeRole(bytes32 role, address account) internal virtual {... */\n      pop\n      pop\n      jump\t// out\n        /* \"@openzeppelin/contracts/utils/cryptography/MerkleProof.sol\":1154:1338  function verify(... */\n    tag_388:\n        /* \"@openzeppelin/contracts/utils/cryptography/MerkleProof.sol\":1275:1279  bool */\n      0x00\n        /* \"@openzeppelin/contracts/utils/cryptography/MerkleProof.sol\":1327:1331  root */\n      dup3\n        /* \"@openzeppelin/contracts/utils/cryptography/MerkleProof.sol\":1298:1323  processProof(proof, leaf) */\n      tag_403\n        /* \"@openzeppelin/contracts/utils/cryptography/MerkleProof.sol\":1311:1316  proof */\n      dup6\n        /* \"@openzeppelin/contracts/utils/cryptography/MerkleProof.sol\":1318:1322  leaf */\n      dup5\n        /* \"@openzeppelin/contracts/utils/cryptography/MerkleProof.sol\":1298:1310  processProof */\n      tag_404\n        /* \"@openzeppelin/contracts/utils/cryptography/MerkleProof.sol\":1298:1323  processProof(proof, leaf) */\n      jump\t// in\n    tag_403:\n        /* \"@openzeppelin/contracts/utils/cryptography/MerkleProof.sol\":1298:1331  processProof(proof, leaf) == root */\n      eq\n      swap5\n        /* \"@openzeppelin/contracts/utils/cryptography/MerkleProof.sol\":1154:1338  function verify(... */\n      swap4\n      pop\n      pop\n      pop\n      pop\n      jump\t// out\n        /* \"@openzeppelin/contracts/access/AccessControl.sol\":3718:4210  function _checkRole(bytes32 role, address account) internal view virtual {... */\n    tag_392:\n        /* \"@openzeppelin/contracts/access/AccessControl.sol\":3806:3828  hasRole(role, account) */\n      tag_406\n        /* \"@openzeppelin/contracts/access/AccessControl.sol\":3814:3818  role */\n      dup3\n        /* \"@openzeppelin/contracts/access/AccessControl.sol\":3820:3827  account */\n      dup3\n        /* \"@openzeppelin/contracts/access/AccessControl.sol\":3806:3813  hasRole */\n      tag_132\n        /* \"@openzeppelin/contracts/access/AccessControl.sol\":3806:3828  hasRole(role, account) */\n      jump\t// in\n    tag_406:\n        /* \"@openzeppelin/contracts/access/AccessControl.sol\":3801:4204  if (!hasRole(role, account)) {... */\n      tag_264\n      jumpi\n        /* \"@openzeppelin/contracts/access/AccessControl.sol\":3989:4030  Strings.toHexString(uint160(account), 20) */\n      tag_408\n        /* \"@openzeppelin/contracts/access/AccessControl.sol\":4017:4024  account */\n      dup2\n      sub(shl(0xa0, 0x01), 0x01)\n        /* \"@openzeppelin/contracts/access/AccessControl.sol\":3989:4030  Strings.toHexString(uint160(account), 20) */\n      and\n        /* \"@openzeppelin/contracts/access/AccessControl.sol\":4027:4029  20 */\n      0x14\n        /* \"@openzeppelin/contracts/access/AccessControl.sol\":3989:4008  Strings.toHexString */\n      tag_185\n        /* \"@openzeppelin/contracts/access/AccessControl.sol\":3989:4030  Strings.toHexString(uint160(account), 20) */\n      jump\t// in\n    tag_408:\n        /* \"@openzeppelin/contracts/access/AccessControl.sol\":4101:4139  Strings.toHexString(uint256(role), 32) */\n      tag_409\n        /* \"@openzeppelin/contracts/access/AccessControl.sol\":4129:4133  role */\n      dup4\n        /* \"@openzeppelin/contracts/access/AccessControl.sol\":4136:4138  32 */\n      0x20\n        /* \"@openzeppelin/contracts/access/AccessControl.sol\":4101:4120  Strings.toHexString */\n      tag_185\n        /* \"@openzeppelin/contracts/access/AccessControl.sol\":4101:4139  Strings.toHexString(uint256(role), 32) */\n      jump\t// in\n    tag_409:\n        /* \"@openzeppelin/contracts/access/AccessControl.sol\":3896:4161  abi.encodePacked(... */\n      add(0x20, mload(0x40))\n      tag_410\n      swap3\n      swap2\n      swap1\n      tag_411\n      jump\t// in\n    tag_410:\n      0x40\n      dup1\n      mload\n      not(0x1f)\n      dup2\n      dup5\n      sub\n      add\n      dup2\n      mstore\n      swap1\n      dup3\n      swap1\n      mstore\n      shl(0xe5, 0x461bcd)\n        /* \"@openzeppelin/contracts/access/AccessControl.sol\":3844:4193  revert(... */\n      dup3\n      mstore\n      tag_197\n      swap2\n      0x04\n      add\n      tag_413\n      jump\t// in\n        /* \"@openzeppelin/contracts/utils/cryptography/MerkleProof.sol\":1689:2351  function processProof(bytes32[] memory proof, bytes32 leaf) internal pure returns (bytes32) {... */\n    tag_404:\n        /* \"@openzeppelin/contracts/utils/cryptography/MerkleProof.sol\":1772:1779  bytes32 */\n      0x00\n        /* \"@openzeppelin/contracts/utils/cryptography/MerkleProof.sol\":1814:1818  leaf */\n      dup2\n        /* \"@openzeppelin/contracts/utils/cryptography/MerkleProof.sol\":1772:1779  bytes32 */\n      dup2\n        /* \"@openzeppelin/contracts/utils/cryptography/MerkleProof.sol\":1828:2316  for (uint256 i = 0; i < proof.length; i++) {... */\n    tag_415:\n        /* \"@openzeppelin/contracts/utils/cryptography/MerkleProof.sol\":1852:1857  proof */\n      dup5\n        /* \"@openzeppelin/contracts/utils/cryptography/MerkleProof.sol\":1852:1864  proof.length */\n      mload\n        /* \"@openzeppelin/contracts/utils/cryptography/MerkleProof.sol\":1848:1849  i */\n      dup2\n        /* \"@openzeppelin/contracts/utils/cryptography/MerkleProof.sol\":1848:1864  i < proof.length */\n      lt\n        /* \"@openzeppelin/contracts/utils/cryptography/MerkleProof.sol\":1828:2316  for (uint256 i = 0; i < proof.length; i++) {... */\n      iszero\n      tag_416\n      jumpi\n        /* \"@openzeppelin/contracts/utils/cryptography/MerkleProof.sol\":1885:1905  bytes32 proofElement */\n      0x00\n        /* \"@openzeppelin/contracts/utils/cryptography/MerkleProof.sol\":1908:1913  proof */\n      dup6\n        /* \"@openzeppelin/contracts/utils/cryptography/MerkleProof.sol\":1914:1915  i */\n      dup3\n        /* \"@openzeppelin/contracts/utils/cryptography/MerkleProof.sol\":1908:1916  proof[i] */\n      dup2\n      mload\n      dup2\n      lt\n      tag_419\n      jumpi\n      tag_419\n      tag_365\n      jump\t// in\n    tag_419:\n      0x20\n      mul\n      0x20\n      add\n      add\n      mload\n        /* \"@openzeppelin/contracts/utils/cryptography/MerkleProof.sol\":1885:1916  bytes32 proofElement = proof[i] */\n      swap1\n      pop\n        /* \"@openzeppelin/contracts/utils/cryptography/MerkleProof.sol\":1950:1962  proofElement */\n      dup1\n        /* \"@openzeppelin/contracts/utils/cryptography/MerkleProof.sol\":1934:1946  computedHash */\n      dup4\n        /* \"@openzeppelin/contracts/utils/cryptography/MerkleProof.sol\":1934:1962  computedHash <= proofElement */\n      gt\n        /* \"@openzeppelin/contracts/utils/cryptography/MerkleProof.sol\":1930:2306  if (computedHash <= proofElement) {... */\n      tag_420\n      jumpi\n        /* \"@openzeppelin/contracts/utils/cryptography/MerkleProof.sol\":2425:2438  bytes32 value */\n      0x00\n        /* \"@openzeppelin/contracts/utils/cryptography/MerkleProof.sol\":2473:2488  mstore(0x00, a) */\n      dup4\n      dup2\n      mstore\n        /* \"@openzeppelin/contracts/utils/cryptography/MerkleProof.sol\":2508:2512  0x20 */\n      0x20\n        /* \"@openzeppelin/contracts/utils/cryptography/MerkleProof.sol\":2501:2516  mstore(0x20, b) */\n      dup3\n      swap1\n      mstore\n        /* \"@openzeppelin/contracts/utils/cryptography/MerkleProof.sol\":2554:2558  0x40 */\n      0x40\n        /* \"@openzeppelin/contracts/utils/cryptography/MerkleProof.sol\":2538:2559  keccak256(0x00, 0x40) */\n      swap1\n      keccak256\n        /* \"@openzeppelin/contracts/utils/cryptography/MerkleProof.sol\":2060:2117  computedHash = _efficientHash(computedHash, proofElement) */\n      swap3\n      pop\n        /* \"@openzeppelin/contracts/utils/cryptography/MerkleProof.sol\":1930:2306  if (computedHash <= proofElement) {... */\n      jump(tag_423)\n    tag_420:\n        /* \"@openzeppelin/contracts/utils/cryptography/MerkleProof.sol\":2425:2438  bytes32 value */\n      0x00\n        /* \"@openzeppelin/contracts/utils/cryptography/MerkleProof.sol\":2473:2488  mstore(0x00, a) */\n      dup2\n      dup2\n      mstore\n        /* \"@openzeppelin/contracts/utils/cryptography/MerkleProof.sol\":2508:2512  0x20 */\n      0x20\n        /* \"@openzeppelin/contracts/utils/cryptography/MerkleProof.sol\":2501:2516  mstore(0x20, b) */\n      dup5\n      swap1\n      mstore\n        /* \"@openzeppelin/contracts/utils/cryptography/MerkleProof.sol\":2554:2558  0x40 */\n      0x40\n        /* \"@openzeppelin/contracts/utils/cryptography/MerkleProof.sol\":2538:2559  keccak256(0x00, 0x40) */\n      swap1\n      keccak256\n        /* \"@openzeppelin/contracts/utils/cryptography/MerkleProof.sol\":2234:2291  computedHash = _efficientHash(proofElement, computedHash) */\n      swap3\n      pop\n        /* \"@openzeppelin/contracts/utils/cryptography/MerkleProof.sol\":1930:2306  if (computedHash <= proofElement) {... */\n    tag_423:\n      pop\n        /* \"@openzeppelin/contracts/utils/cryptography/MerkleProof.sol\":1866:1869  i++ */\n      dup1\n      tag_425\n      dup2\n      tag_245\n      jump\t// in\n    tag_425:\n      swap2\n      pop\n      pop\n        /* \"@openzeppelin/contracts/utils/cryptography/MerkleProof.sol\":1828:2316  for (uint256 i = 0; i < proof.length; i++) {... */\n      jump(tag_415)\n    tag_416:\n      pop\n        /* \"@openzeppelin/contracts/utils/cryptography/MerkleProof.sol\":2332:2344  computedHash */\n      swap4\n        /* \"@openzeppelin/contracts/utils/cryptography/MerkleProof.sol\":1689:2351  function processProof(bytes32[] memory proof, bytes32 leaf) internal pure returns (bytes32) {... */\n      swap3\n      pop\n      pop\n      pop\n      jump\t// out\n        /* \"#utility.yul\":14:300   */\n    tag_42:\n        /* \"#utility.yul\":72:78   */\n      0x00\n        /* \"#utility.yul\":125:127   */\n      0x20\n        /* \"#utility.yul\":113:122   */\n      dup3\n        /* \"#utility.yul\":104:111   */\n      dup5\n        /* \"#utility.yul\":100:123   */\n      sub\n        /* \"#utility.yul\":96:128   */\n      slt\n        /* \"#utility.yul\":93:145   */\n      iszero\n      tag_434\n      jumpi\n        /* \"#utility.yul\":141:142   */\n      0x00\n        /* \"#utility.yul\":138:139   */\n      dup1\n        /* \"#utility.yul\":131:143   */\n      revert\n        /* \"#utility.yul\":93:145   */\n    tag_434:\n        /* \"#utility.yul\":167:190   */\n      dup2\n      calldataload\n      not(sub(shl(0xe0, 0x01), 0x01))\n        /* \"#utility.yul\":219:251   */\n      dup2\n      and\n        /* \"#utility.yul\":209:252   */\n      dup2\n      eq\n        /* \"#utility.yul\":199:270   */\n      tag_379\n      jumpi\n        /* \"#utility.yul\":266:267   */\n      0x00\n        /* \"#utility.yul\":263:264   */\n      dup1\n        /* \"#utility.yul\":256:268   */\n      revert\n        /* \"#utility.yul\":497:628   */\n    tag_427:\n      sub(shl(0xa0, 0x01), 0x01)\n        /* \"#utility.yul\":572:603   */\n      dup2\n      and\n        /* \"#utility.yul\":562:604   */\n      dup2\n      eq\n        /* \"#utility.yul\":552:622   */\n      tag_390\n      jumpi\n        /* \"#utility.yul\":618:619   */\n      0x00\n        /* \"#utility.yul\":615:616   */\n      dup1\n        /* \"#utility.yul\":608:620   */\n      revert\n        /* \"#utility.yul\":633:880   */\n    tag_53:\n        /* \"#utility.yul\":692:698   */\n      0x00\n        /* \"#utility.yul\":745:747   */\n      0x20\n        /* \"#utility.yul\":733:742   */\n      dup3\n        /* \"#utility.yul\":724:731   */\n      dup5\n        /* \"#utility.yul\":720:743   */\n      sub\n        /* \"#utility.yul\":716:748   */\n      slt\n        /* \"#utility.yul\":713:765   */\n      iszero\n      tag_440\n      jumpi\n        /* \"#utility.yul\":761:762   */\n      0x00\n        /* \"#utility.yul\":758:759   */\n      dup1\n        /* \"#utility.yul\":751:763   */\n      revert\n        /* \"#utility.yul\":713:765   */\n    tag_440:\n        /* \"#utility.yul\":800:809   */\n      dup2\n        /* \"#utility.yul\":787:810   */\n      calldataload\n        /* \"#utility.yul\":819:850   */\n      tag_379\n        /* \"#utility.yul\":844:849   */\n      dup2\n        /* \"#utility.yul\":819:850   */\n      tag_427\n      jump\t// in\n        /* \"#utility.yul\":1457:1637   */\n    tag_71:\n        /* \"#utility.yul\":1516:1522   */\n      0x00\n        /* \"#utility.yul\":1569:1571   */\n      0x20\n        /* \"#utility.yul\":1557:1566   */\n      dup3\n        /* \"#utility.yul\":1548:1555   */\n      dup5\n        /* \"#utility.yul\":1544:1567   */\n      sub\n        /* \"#utility.yul\":1540:1572   */\n      slt\n        /* \"#utility.yul\":1537:1589   */\n      iszero\n      tag_446\n      jumpi\n        /* \"#utility.yul\":1585:1586   */\n      0x00\n        /* \"#utility.yul\":1582:1583   */\n      dup1\n        /* \"#utility.yul\":1575:1587   */\n      revert\n        /* \"#utility.yul\":1537:1589   */\n    tag_446:\n      pop\n        /* \"#utility.yul\":1608:1631   */\n      calldataload\n      swap2\n        /* \"#utility.yul\":1457:1637   */\n      swap1\n      pop\n      jump\t// out\n        /* \"#utility.yul\":1870:2559   */\n    tag_81:\n        /* \"#utility.yul\":1965:1971   */\n      0x00\n        /* \"#utility.yul\":1973:1979   */\n      dup1\n        /* \"#utility.yul\":1981:1987   */\n      0x00\n        /* \"#utility.yul\":2034:2036   */\n      0x40\n        /* \"#utility.yul\":2022:2031   */\n      dup5\n        /* \"#utility.yul\":2013:2020   */\n      dup7\n        /* \"#utility.yul\":2009:2032   */\n      sub\n        /* \"#utility.yul\":2005:2037   */\n      slt\n        /* \"#utility.yul\":2002:2054   */\n      iszero\n      tag_449\n      jumpi\n        /* \"#utility.yul\":2050:2051   */\n      0x00\n        /* \"#utility.yul\":2047:2048   */\n      dup1\n        /* \"#utility.yul\":2040:2052   */\n      revert\n        /* \"#utility.yul\":2002:2054   */\n    tag_449:\n        /* \"#utility.yul\":2090:2099   */\n      dup4\n        /* \"#utility.yul\":2077:2100   */\n      calldataload\n        /* \"#utility.yul\":2119:2137   */\n      0xffffffffffffffff\n        /* \"#utility.yul\":2160:2162   */\n      dup1\n        /* \"#utility.yul\":2152:2158   */\n      dup3\n        /* \"#utility.yul\":2149:2163   */\n      gt\n        /* \"#utility.yul\":2146:2180   */\n      iszero\n      tag_450\n      jumpi\n        /* \"#utility.yul\":2176:2177   */\n      0x00\n        /* \"#utility.yul\":2173:2174   */\n      dup1\n        /* \"#utility.yul\":2166:2178   */\n      revert\n        /* \"#utility.yul\":2146:2180   */\n    tag_450:\n        /* \"#utility.yul\":2214:2220   */\n      dup2\n        /* \"#utility.yul\":2203:2212   */\n      dup7\n        /* \"#utility.yul\":2199:2221   */\n      add\n        /* \"#utility.yul\":2189:2221   */\n      swap2\n      pop\n        /* \"#utility.yul\":2259:2266   */\n      dup7\n        /* \"#utility.yul\":2252:2256   */\n      0x1f\n        /* \"#utility.yul\":2248:2250   */\n      dup4\n        /* \"#utility.yul\":2244:2257   */\n      add\n        /* \"#utility.yul\":2240:2267   */\n      slt\n        /* \"#utility.yul\":2230:2285   */\n      tag_451\n      jumpi\n        /* \"#utility.yul\":2281:2282   */\n      0x00\n        /* \"#utility.yul\":2278:2279   */\n      dup1\n        /* \"#utility.yul\":2271:2283   */\n      revert\n        /* \"#utility.yul\":2230:2285   */\n    tag_451:\n        /* \"#utility.yul\":2321:2323   */\n      dup2\n        /* \"#utility.yul\":2308:2324   */\n      calldataload\n        /* \"#utility.yul\":2347:2349   */\n      dup2\n        /* \"#utility.yul\":2339:2345   */\n      dup2\n        /* \"#utility.yul\":2336:2350   */\n      gt\n        /* \"#utility.yul\":2333:2367   */\n      iszero\n      tag_452\n      jumpi\n        /* \"#utility.yul\":2363:2364   */\n      0x00\n        /* \"#utility.yul\":2360:2361   */\n      dup1\n        /* \"#utility.yul\":2353:2365   */\n      revert\n        /* \"#utility.yul\":2333:2367   */\n    tag_452:\n        /* \"#utility.yul\":2418:2425   */\n      dup8\n        /* \"#utility.yul\":2411:2415   */\n      0x20\n        /* \"#utility.yul\":2401:2407   */\n      dup3\n        /* \"#utility.yul\":2398:2399   */\n      0x05\n        /* \"#utility.yul\":2394:2408   */\n      shl\n        /* \"#utility.yul\":2390:2392   */\n      dup6\n        /* \"#utility.yul\":2386:2409   */\n      add\n        /* \"#utility.yul\":2382:2416   */\n      add\n        /* \"#utility.yul\":2379:2426   */\n      gt\n        /* \"#utility.yul\":2376:2443   */\n      iszero\n      tag_453\n      jumpi\n        /* \"#utility.yul\":2439:2440   */\n      0x00\n        /* \"#utility.yul\":2436:2437   */\n      dup1\n        /* \"#utility.yul\":2429:2441   */\n      revert\n        /* \"#utility.yul\":2376:2443   */\n    tag_453:\n        /* \"#utility.yul\":2470:2474   */\n      0x20\n        /* \"#utility.yul\":2462:2475   */\n      swap3\n      dup4\n      add\n      swap9\n        /* \"#utility.yul\":2494:2500   */\n      swap1\n      swap8\n      pop\n        /* \"#utility.yul\":2532:2552   */\n      swap6\n      swap1\n      swap2\n      add\n        /* \"#utility.yul\":2519:2553   */\n      calldataload\n      swap5\n        /* \"#utility.yul\":1870:2559   */\n      swap4\n      pop\n      pop\n      pop\n      pop\n      jump\t// out\n        /* \"#utility.yul\":2836:3151   */\n    tag_95:\n        /* \"#utility.yul\":2904:2910   */\n      0x00\n        /* \"#utility.yul\":2912:2918   */\n      dup1\n        /* \"#utility.yul\":2965:2967   */\n      0x40\n        /* \"#utility.yul\":2953:2962   */\n      dup4\n        /* \"#utility.yul\":2944:2951   */\n      dup6\n        /* \"#utility.yul\":2940:2963   */\n      sub\n        /* \"#utility.yul\":2936:2968   */\n      slt\n        /* \"#utility.yul\":2933:2985   */\n      iszero\n      tag_458\n      jumpi\n        /* \"#utility.yul\":2981:2982   */\n      0x00\n        /* \"#utility.yul\":2978:2979   */\n      dup1\n        /* \"#utility.yul\":2971:2983   */\n      revert\n        /* \"#utility.yul\":2933:2985   */\n    tag_458:\n        /* \"#utility.yul\":3017:3026   */\n      dup3\n        /* \"#utility.yul\":3004:3027   */\n      calldataload\n        /* \"#utility.yul\":2994:3027   */\n      swap2\n      pop\n        /* \"#utility.yul\":3077:3079   */\n      0x20\n        /* \"#utility.yul\":3066:3075   */\n      dup4\n        /* \"#utility.yul\":3062:3080   */\n      add\n        /* \"#utility.yul\":3049:3081   */\n      calldataload\n        /* \"#utility.yul\":3090:3121   */\n      tag_459\n        /* \"#utility.yul\":3115:3120   */\n      dup2\n        /* \"#utility.yul\":3090:3121   */\n      tag_427\n      jump\t// in\n    tag_459:\n        /* \"#utility.yul\":3140:3145   */\n      dup1\n        /* \"#utility.yul\":3130:3145   */\n      swap2\n      pop\n      pop\n        /* \"#utility.yul\":2836:3151   */\n      swap3\n      pop\n      swap3\n      swap1\n      pop\n      jump\t// out\n        /* \"#utility.yul\":3156:3283   */\n    tag_361:\n        /* \"#utility.yul\":3217:3227   */\n      0x4e487b71\n        /* \"#utility.yul\":3212:3215   */\n      0xe0\n        /* \"#utility.yul\":3208:3228   */\n      shl\n        /* \"#utility.yul\":3205:3206   */\n      0x00\n        /* \"#utility.yul\":3198:3229   */\n      mstore\n        /* \"#utility.yul\":3248:3252   */\n      0x41\n        /* \"#utility.yul\":3245:3246   */\n      0x04\n        /* \"#utility.yul\":3238:3253   */\n      mstore\n        /* \"#utility.yul\":3272:3276   */\n      0x24\n        /* \"#utility.yul\":3269:3270   */\n      0x00\n        /* \"#utility.yul\":3262:3277   */\n      revert\n        /* \"#utility.yul\":3288:4006   */\n    tag_428:\n        /* \"#utility.yul\":3330:3335   */\n      0x00\n        /* \"#utility.yul\":3383:3386   */\n      dup3\n        /* \"#utility.yul\":3376:3380   */\n      0x1f\n        /* \"#utility.yul\":3368:3374   */\n      dup4\n        /* \"#utility.yul\":3364:3381   */\n      add\n        /* \"#utility.yul\":3360:3387   */\n      slt\n        /* \"#utility.yul\":3350:3405   */\n      tag_462\n      jumpi\n        /* \"#utility.yul\":3401:3402   */\n      0x00\n        /* \"#utility.yul\":3398:3399   */\n      dup1\n        /* \"#utility.yul\":3391:3403   */\n      revert\n        /* \"#utility.yul\":3350:3405   */\n    tag_462:\n        /* \"#utility.yul\":3437:3443   */\n      dup2\n        /* \"#utility.yul\":3424:3444   */\n      calldataload\n        /* \"#utility.yul\":3463:3481   */\n      0xffffffffffffffff\n        /* \"#utility.yul\":3500:3502   */\n      dup1\n        /* \"#utility.yul\":3496:3498   */\n      dup3\n        /* \"#utility.yul\":3493:3503   */\n      gt\n        /* \"#utility.yul\":3490:3526   */\n      iszero\n      tag_464\n      jumpi\n        /* \"#utility.yul\":3506:3524   */\n      tag_464\n      tag_361\n      jump\t// in\n    tag_464:\n        /* \"#utility.yul\":3581:3583   */\n      0x40\n        /* \"#utility.yul\":3575:3584   */\n      mload\n        /* \"#utility.yul\":3549:3551   */\n      0x1f\n        /* \"#utility.yul\":3635:3648   */\n      dup4\n      add\n      not(0x1f)\n        /* \"#utility.yul\":3631:3653   */\n      swap1\n      dup2\n      and\n        /* \"#utility.yul\":3655:3657   */\n      0x3f\n        /* \"#utility.yul\":3627:3658   */\n      add\n        /* \"#utility.yul\":3623:3663   */\n      and\n        /* \"#utility.yul\":3611:3664   */\n      dup2\n      add\n      swap1\n        /* \"#utility.yul\":3679:3697   */\n      dup3\n      dup3\n      gt\n        /* \"#utility.yul\":3699:3721   */\n      dup2\n      dup4\n      lt\n        /* \"#utility.yul\":3676:3722   */\n      or\n        /* \"#utility.yul\":3673:3745   */\n      iszero\n      tag_466\n      jumpi\n        /* \"#utility.yul\":3725:3743   */\n      tag_466\n      tag_361\n      jump\t// in\n    tag_466:\n        /* \"#utility.yul\":3765:3775   */\n      dup2\n        /* \"#utility.yul\":3761:3763   */\n      0x40\n        /* \"#utility.yul\":3754:3776   */\n      mstore\n        /* \"#utility.yul\":3800:3802   */\n      dup4\n        /* \"#utility.yul\":3792:3798   */\n      dup2\n        /* \"#utility.yul\":3785:3803   */\n      mstore\n        /* \"#utility.yul\":3846:3849   */\n      dup7\n        /* \"#utility.yul\":3839:3843   */\n      0x20\n        /* \"#utility.yul\":3834:3836   */\n      dup6\n        /* \"#utility.yul\":3826:3832   */\n      dup9\n        /* \"#utility.yul\":3822:3837   */\n      add\n        /* \"#utility.yul\":3818:3844   */\n      add\n        /* \"#utility.yul\":3815:3850   */\n      gt\n        /* \"#utility.yul\":3812:3867   */\n      iszero\n      tag_467\n      jumpi\n        /* \"#utility.yul\":3863:3864   */\n      0x00\n        /* \"#utility.yul\":3860:3861   */\n      dup1\n        /* \"#utility.yul\":3853:3865   */\n      revert\n        /* \"#utility.yul\":3812:3867   */\n    tag_467:\n        /* \"#utility.yul\":3927:3929   */\n      dup4\n        /* \"#utility.yul\":3920:3924   */\n      0x20\n        /* \"#utility.yul\":3912:3918   */\n      dup8\n        /* \"#utility.yul\":3908:3925   */\n      add\n        /* \"#utility.yul\":3901:3905   */\n      0x20\n        /* \"#utility.yul\":3893:3899   */\n      dup4\n        /* \"#utility.yul\":3889:3906   */\n      add\n        /* \"#utility.yul\":3876:3930   */\n      calldatacopy\n        /* \"#utility.yul\":3974:3975   */\n      0x00\n        /* \"#utility.yul\":3967:3971   */\n      0x20\n        /* \"#utility.yul\":3962:3964   */\n      dup6\n        /* \"#utility.yul\":3954:3960   */\n      dup4\n        /* \"#utility.yul\":3950:3965   */\n      add\n        /* \"#utility.yul\":3946:3972   */\n      add\n        /* \"#utility.yul\":3939:3976   */\n      mstore\n        /* \"#utility.yul\":3994:4000   */\n      dup1\n        /* \"#utility.yul\":3985:4000   */\n      swap5\n      pop\n      pop\n      pop\n      pop\n      pop\n        /* \"#utility.yul\":3288:4006   */\n      swap3\n      swap2\n      pop\n      pop\n      jump\t// out\n        /* \"#utility.yul\":4011:4607   */\n    tag_104:\n        /* \"#utility.yul\":4097:4103   */\n      0x00\n        /* \"#utility.yul\":4105:4111   */\n      dup1\n        /* \"#utility.yul\":4113:4119   */\n      0x00\n        /* \"#utility.yul\":4166:4168   */\n      0x60\n        /* \"#utility.yul\":4154:4163   */\n      dup5\n        /* \"#utility.yul\":4145:4152   */\n      dup7\n        /* \"#utility.yul\":4141:4164   */\n      sub\n        /* \"#utility.yul\":4137:4169   */\n      slt\n        /* \"#utility.yul\":4134:4186   */\n      iszero\n      tag_469\n      jumpi\n        /* \"#utility.yul\":4182:4183   */\n      0x00\n        /* \"#utility.yul\":4179:4180   */\n      dup1\n        /* \"#utility.yul\":4172:4184   */\n      revert\n        /* \"#utility.yul\":4134:4186   */\n    tag_469:\n        /* \"#utility.yul\":4221:4230   */\n      dup4\n        /* \"#utility.yul\":4208:4231   */\n      calldataload\n        /* \"#utility.yul\":4240:4271   */\n      tag_470\n        /* \"#utility.yul\":4265:4270   */\n      dup2\n        /* \"#utility.yul\":4240:4271   */\n      tag_427\n      jump\t// in\n    tag_470:\n        /* \"#utility.yul\":4290:4295   */\n      swap3\n      pop\n        /* \"#utility.yul\":4347:4349   */\n      0x20\n        /* \"#utility.yul\":4332:4350   */\n      dup5\n      add\n        /* \"#utility.yul\":4319:4351   */\n      calldataload\n        /* \"#utility.yul\":4360:4393   */\n      tag_471\n        /* \"#utility.yul\":4319:4351   */\n      dup2\n        /* \"#utility.yul\":4360:4393   */\n      tag_427\n      jump\t// in\n    tag_471:\n        /* \"#utility.yul\":4412:4419   */\n      swap2\n      pop\n        /* \"#utility.yul\":4470:4472   */\n      0x40\n        /* \"#utility.yul\":4455:4473   */\n      dup5\n      add\n        /* \"#utility.yul\":4442:4474   */\n      calldataload\n        /* \"#utility.yul\":4497:4515   */\n      0xffffffffffffffff\n        /* \"#utility.yul\":4486:4516   */\n      dup2\n      gt\n        /* \"#utility.yul\":4483:4533   */\n      iszero\n      tag_472\n      jumpi\n        /* \"#utility.yul\":4529:4530   */\n      0x00\n        /* \"#utility.yul\":4526:4527   */\n      dup1\n        /* \"#utility.yul\":4519:4531   */\n      revert\n        /* \"#utility.yul\":4483:4533   */\n    tag_472:\n        /* \"#utility.yul\":4552:4601   */\n      tag_473\n        /* \"#utility.yul\":4593:4600   */\n      dup7\n        /* \"#utility.yul\":4584:4590   */\n      dup3\n        /* \"#utility.yul\":4573:4582   */\n      dup8\n        /* \"#utility.yul\":4569:4591   */\n      add\n        /* \"#utility.yul\":4552:4601   */\n      tag_428\n      jump\t// in\n    tag_473:\n        /* \"#utility.yul\":4542:4601   */\n      swap2\n      pop\n      pop\n        /* \"#utility.yul\":4011:4607   */\n      swap3\n      pop\n      swap3\n      pop\n      swap3\n      jump\t// out\n        /* \"#utility.yul\":4612:4730   */\n    tag_429:\n        /* \"#utility.yul\":4698:4703   */\n      dup1\n        /* \"#utility.yul\":4691:4704   */\n      iszero\n        /* \"#utility.yul\":4684:4705   */\n      iszero\n        /* \"#utility.yul\":4677:4682   */\n      dup2\n        /* \"#utility.yul\":4674:4706   */\n      eq\n        /* \"#utility.yul\":4664:4724   */\n      tag_390\n      jumpi\n        /* \"#utility.yul\":4720:4721   */\n      0x00\n        /* \"#utility.yul\":4717:4718   */\n      dup1\n        /* \"#utility.yul\":4710:4722   */\n      revert\n        /* \"#utility.yul\":4735:4976   */\n    tag_127:\n        /* \"#utility.yul\":4791:4797   */\n      0x00\n        /* \"#utility.yul\":4844:4846   */\n      0x20\n        /* \"#utility.yul\":4832:4841   */\n      dup3\n        /* \"#utility.yul\":4823:4830   */\n      dup5\n        /* \"#utility.yul\":4819:4842   */\n      sub\n        /* \"#utility.yul\":4815:4847   */\n      slt\n        /* \"#utility.yul\":4812:4864   */\n      iszero\n      tag_477\n      jumpi\n        /* \"#utility.yul\":4860:4861   */\n      0x00\n        /* \"#utility.yul\":4857:4858   */\n      dup1\n        /* \"#utility.yul\":4850:4862   */\n      revert\n        /* \"#utility.yul\":4812:4864   */\n    tag_477:\n        /* \"#utility.yul\":4899:4908   */\n      dup2\n        /* \"#utility.yul\":4886:4909   */\n      calldataload\n        /* \"#utility.yul\":4918:4946   */\n      tag_379\n        /* \"#utility.yul\":4940:4945   */\n      dup2\n        /* \"#utility.yul\":4918:4946   */\n      tag_429\n      jump\t// in\n        /* \"#utility.yul\":4981:5369   */\n    tag_141:\n        /* \"#utility.yul\":5058:5064   */\n      0x00\n        /* \"#utility.yul\":5066:5072   */\n      dup1\n        /* \"#utility.yul\":5119:5121   */\n      0x40\n        /* \"#utility.yul\":5107:5116   */\n      dup4\n        /* \"#utility.yul\":5098:5105   */\n      dup6\n        /* \"#utility.yul\":5094:5117   */\n      sub\n        /* \"#utility.yul\":5090:5122   */\n      slt\n        /* \"#utility.yul\":5087:5139   */\n      iszero\n      tag_480\n      jumpi\n        /* \"#utility.yul\":5135:5136   */\n      0x00\n        /* \"#utility.yul\":5132:5133   */\n      dup1\n        /* \"#utility.yul\":5125:5137   */\n      revert\n        /* \"#utility.yul\":5087:5139   */\n    tag_480:\n        /* \"#utility.yul\":5171:5180   */\n      dup3\n        /* \"#utility.yul\":5158:5181   */\n      calldataload\n        /* \"#utility.yul\":5148:5181   */\n      swap2\n      pop\n        /* \"#utility.yul\":5232:5234   */\n      0x20\n        /* \"#utility.yul\":5221:5230   */\n      dup4\n        /* \"#utility.yul\":5217:5235   */\n      add\n        /* \"#utility.yul\":5204:5236   */\n      calldataload\n        /* \"#utility.yul\":5259:5277   */\n      0xffffffffffffffff\n        /* \"#utility.yul\":5251:5257   */\n      dup2\n        /* \"#utility.yul\":5248:5278   */\n      gt\n        /* \"#utility.yul\":5245:5295   */\n      iszero\n      tag_481\n      jumpi\n        /* \"#utility.yul\":5291:5292   */\n      0x00\n        /* \"#utility.yul\":5288:5289   */\n      dup1\n        /* \"#utility.yul\":5281:5293   */\n      revert\n        /* \"#utility.yul\":5245:5295   */\n    tag_481:\n        /* \"#utility.yul\":5314:5363   */\n      tag_482\n        /* \"#utility.yul\":5355:5362   */\n      dup6\n        /* \"#utility.yul\":5346:5352   */\n      dup3\n        /* \"#utility.yul\":5335:5344   */\n      dup7\n        /* \"#utility.yul\":5331:5353   */\n      add\n        /* \"#utility.yul\":5314:5363   */\n      tag_428\n      jump\t// in\n    tag_482:\n        /* \"#utility.yul\":5304:5363   */\n      swap2\n      pop\n      pop\n        /* \"#utility.yul\":4981:5369   */\n      swap3\n      pop\n      swap3\n      swap1\n      pop\n      jump\t// out\n        /* \"#utility.yul\":5374:5694   */\n    tag_151:\n        /* \"#utility.yul\":5442:5448   */\n      0x00\n        /* \"#utility.yul\":5495:5497   */\n      0x20\n        /* \"#utility.yul\":5483:5492   */\n      dup3\n        /* \"#utility.yul\":5474:5481   */\n      dup5\n        /* \"#utility.yul\":5470:5493   */\n      sub\n        /* \"#utility.yul\":5466:5498   */\n      slt\n        /* \"#utility.yul\":5463:5515   */\n      iszero\n      tag_484\n      jumpi\n        /* \"#utility.yul\":5511:5512   */\n      0x00\n        /* \"#utility.yul\":5508:5509   */\n      dup1\n        /* \"#utility.yul\":5501:5513   */\n      revert\n        /* \"#utility.yul\":5463:5515   */\n    tag_484:\n        /* \"#utility.yul\":5551:5560   */\n      dup2\n        /* \"#utility.yul\":5538:5561   */\n      calldataload\n        /* \"#utility.yul\":5584:5602   */\n      0xffffffffffffffff\n        /* \"#utility.yul\":5576:5582   */\n      dup2\n        /* \"#utility.yul\":5573:5603   */\n      gt\n        /* \"#utility.yul\":5570:5620   */\n      iszero\n      tag_485\n      jumpi\n        /* \"#utility.yul\":5616:5617   */\n      0x00\n        /* \"#utility.yul\":5613:5614   */\n      dup1\n        /* \"#utility.yul\":5606:5618   */\n      revert\n        /* \"#utility.yul\":5570:5620   */\n    tag_485:\n        /* \"#utility.yul\":5639:5688   */\n      tag_383\n        /* \"#utility.yul\":5680:5687   */\n      dup5\n        /* \"#utility.yul\":5671:5677   */\n      dup3\n        /* \"#utility.yul\":5660:5669   */\n      dup6\n        /* \"#utility.yul\":5656:5678   */\n      add\n        /* \"#utility.yul\":5639:5688   */\n      tag_428\n      jump\t// in\n        /* \"#utility.yul\":6030:6621   */\n    tag_165:\n        /* \"#utility.yul\":6100:6106   */\n      0x00\n        /* \"#utility.yul\":6108:6114   */\n      dup1\n        /* \"#utility.yul\":6161:6163   */\n      0x20\n        /* \"#utility.yul\":6149:6158   */\n      dup4\n        /* \"#utility.yul\":6140:6147   */\n      dup6\n        /* \"#utility.yul\":6136:6159   */\n      sub\n        /* \"#utility.yul\":6132:6164   */\n      slt\n        /* \"#utility.yul\":6129:6181   */\n      iszero\n      tag_489\n      jumpi\n        /* \"#utility.yul\":6177:6178   */\n      0x00\n        /* \"#utility.yul\":6174:6175   */\n      dup1\n        /* \"#utility.yul\":6167:6179   */\n      revert\n        /* \"#utility.yul\":6129:6181   */\n    tag_489:\n        /* \"#utility.yul\":6217:6226   */\n      dup3\n        /* \"#utility.yul\":6204:6227   */\n      calldataload\n        /* \"#utility.yul\":6246:6264   */\n      0xffffffffffffffff\n        /* \"#utility.yul\":6287:6289   */\n      dup1\n        /* \"#utility.yul\":6279:6285   */\n      dup3\n        /* \"#utility.yul\":6276:6290   */\n      gt\n        /* \"#utility.yul\":6273:6307   */\n      iszero\n      tag_490\n      jumpi\n        /* \"#utility.yul\":6303:6304   */\n      0x00\n        /* \"#utility.yul\":6300:6301   */\n      dup1\n        /* \"#utility.yul\":6293:6305   */\n      revert\n        /* \"#utility.yul\":6273:6307   */\n    tag_490:\n        /* \"#utility.yul\":6341:6347   */\n      dup2\n        /* \"#utility.yul\":6330:6339   */\n      dup6\n        /* \"#utility.yul\":6326:6348   */\n      add\n        /* \"#utility.yul\":6316:6348   */\n      swap2\n      pop\n        /* \"#utility.yul\":6386:6393   */\n      dup6\n        /* \"#utility.yul\":6379:6383   */\n      0x1f\n        /* \"#utility.yul\":6375:6377   */\n      dup4\n        /* \"#utility.yul\":6371:6384   */\n      add\n        /* \"#utility.yul\":6367:6394   */\n      slt\n        /* \"#utility.yul\":6357:6412   */\n      tag_491\n      jumpi\n        /* \"#utility.yul\":6408:6409   */\n      0x00\n        /* \"#utility.yul\":6405:6406   */\n      dup1\n        /* \"#utility.yul\":6398:6410   */\n      revert\n        /* \"#utility.yul\":6357:6412   */\n    tag_491:\n        /* \"#utility.yul\":6448:6450   */\n      dup2\n        /* \"#utility.yul\":6435:6451   */\n      calldataload\n        /* \"#utility.yul\":6474:6476   */\n      dup2\n        /* \"#utility.yul\":6466:6472   */\n      dup2\n        /* \"#utility.yul\":6463:6477   */\n      gt\n        /* \"#utility.yul\":6460:6494   */\n      iszero\n      tag_492\n      jumpi\n        /* \"#utility.yul\":6490:6491   */\n      0x00\n        /* \"#utility.yul\":6487:6488   */\n      dup1\n        /* \"#utility.yul\":6480:6492   */\n      revert\n        /* \"#utility.yul\":6460:6494   */\n    tag_492:\n        /* \"#utility.yul\":6535:6542   */\n      dup7\n        /* \"#utility.yul\":6530:6532   */\n      0x20\n        /* \"#utility.yul\":6521:6527   */\n      dup3\n        /* \"#utility.yul\":6517:6519   */\n      dup6\n        /* \"#utility.yul\":6513:6528   */\n      add\n        /* \"#utility.yul\":6509:6533   */\n      add\n        /* \"#utility.yul\":6506:6543   */\n      gt\n        /* \"#utility.yul\":6503:6560   */\n      iszero\n      tag_493\n      jumpi\n        /* \"#utility.yul\":6556:6557   */\n      0x00\n        /* \"#utility.yul\":6553:6554   */\n      dup1\n        /* \"#utility.yul\":6546:6558   */\n      revert\n        /* \"#utility.yul\":6503:6560   */\n    tag_493:\n        /* \"#utility.yul\":6587:6589   */\n      0x20\n        /* \"#utility.yul\":6579:6590   */\n      swap3\n      swap1\n      swap3\n      add\n      swap7\n        /* \"#utility.yul\":6609:6615   */\n      swap2\n      swap6\n      pop\n        /* \"#utility.yul\":6030:6621   */\n      swap1\n      swap4\n      pop\n      pop\n      pop\n      pop\n      jump\t// out\n        /* \"#utility.yul\":8029:8156   */\n    tag_430:\n        /* \"#utility.yul\":8090:8100   */\n      0x4e487b71\n        /* \"#utility.yul\":8085:8088   */\n      0xe0\n        /* \"#utility.yul\":8081:8101   */\n      shl\n        /* \"#utility.yul\":8078:8079   */\n      0x00\n        /* \"#utility.yul\":8071:8102   */\n      mstore\n        /* \"#utility.yul\":8121:8125   */\n      0x11\n        /* \"#utility.yul\":8118:8119   */\n      0x04\n        /* \"#utility.yul\":8111:8126   */\n      mstore\n        /* \"#utility.yul\":8145:8149   */\n      0x24\n        /* \"#utility.yul\":8142:8143   */\n      0x00\n        /* \"#utility.yul\":8135:8150   */\n      revert\n        /* \"#utility.yul\":8161:8289   */\n    tag_210:\n        /* \"#utility.yul\":8201:8204   */\n      0x00\n        /* \"#utility.yul\":8232:8233   */\n      dup3\n        /* \"#utility.yul\":8228:8234   */\n      not\n        /* \"#utility.yul\":8225:8226   */\n      dup3\n        /* \"#utility.yul\":8222:8235   */\n      gt\n        /* \"#utility.yul\":8219:8258   */\n      iszero\n      tag_501\n      jumpi\n        /* \"#utility.yul\":8238:8256   */\n      tag_501\n      tag_430\n      jump\t// in\n    tag_501:\n      pop\n        /* \"#utility.yul\":8274:8283   */\n      add\n      swap1\n        /* \"#utility.yul\":8161:8289   */\n      jump\t// out\n        /* \"#utility.yul\":8986:9170   */\n    tag_221:\n        /* \"#utility.yul\":9056:9062   */\n      0x00\n        /* \"#utility.yul\":9109:9111   */\n      0x20\n        /* \"#utility.yul\":9097:9106   */\n      dup3\n        /* \"#utility.yul\":9088:9095   */\n      dup5\n        /* \"#utility.yul\":9084:9107   */\n      sub\n        /* \"#utility.yul\":9080:9112   */\n      slt\n        /* \"#utility.yul\":9077:9129   */\n      iszero\n      tag_505\n      jumpi\n        /* \"#utility.yul\":9125:9126   */\n      0x00\n        /* \"#utility.yul\":9122:9123   */\n      dup1\n        /* \"#utility.yul\":9115:9127   */\n      revert\n        /* \"#utility.yul\":9077:9129   */\n    tag_505:\n      pop\n        /* \"#utility.yul\":9148:9164   */\n      mload\n      swap2\n        /* \"#utility.yul\":8986:9170   */\n      swap1\n      pop\n      jump\t// out\n        /* \"#utility.yul\":9454:9699   */\n    tag_227:\n        /* \"#utility.yul\":9521:9527   */\n      0x00\n        /* \"#utility.yul\":9574:9576   */\n      0x20\n        /* \"#utility.yul\":9562:9571   */\n      dup3\n        /* \"#utility.yul\":9553:9560   */\n      dup5\n        /* \"#utility.yul\":9549:9572   */\n      sub\n        /* \"#utility.yul\":9545:9577   */\n      slt\n        /* \"#utility.yul\":9542:9594   */\n      iszero\n      tag_508\n      jumpi\n        /* \"#utility.yul\":9590:9591   */\n      0x00\n        /* \"#utility.yul\":9587:9588   */\n      dup1\n        /* \"#utility.yul\":9580:9592   */\n      revert\n        /* \"#utility.yul\":9542:9594   */\n    tag_508:\n        /* \"#utility.yul\":9622:9631   */\n      dup2\n        /* \"#utility.yul\":9616:9632   */\n      mload\n        /* \"#utility.yul\":9641:9669   */\n      tag_379\n        /* \"#utility.yul\":9663:9668   */\n      dup2\n        /* \"#utility.yul\":9641:9669   */\n      tag_429\n      jump\t// in\n        /* \"#utility.yul\":9704:10110   */\n    tag_230:\n        /* \"#utility.yul\":9906:9908   */\n      0x20\n        /* \"#utility.yul\":9888:9909   */\n      dup1\n      dup3\n      mstore\n        /* \"#utility.yul\":9945:9947   */\n      0x2a\n        /* \"#utility.yul\":9925:9943   */\n      swap1\n      dup3\n      add\n        /* \"#utility.yul\":9918:9948   */\n      mstore\n        /* \"#utility.yul\":9984:10018   */\n      0x5468697320436f6e7472616374206e6f742068617665207065726d697373696f\n        /* \"#utility.yul\":9979:9981   */\n      0x40\n        /* \"#utility.yul\":9964:9982   */\n      dup3\n      add\n        /* \"#utility.yul\":9957:10019   */\n      mstore\n      shl(0xb1, 0x37103a379036b4b73a17)\n        /* \"#utility.yul\":10050:10052   */\n      0x60\n        /* \"#utility.yul\":10035:10053   */\n      dup3\n      add\n        /* \"#utility.yul\":10028:10068   */\n      mstore\n        /* \"#utility.yul\":10100:10103   */\n      0x80\n        /* \"#utility.yul\":10085:10104   */\n      add\n      swap1\n        /* \"#utility.yul\":9704:10110   */\n      jump\t// out\n        /* \"#utility.yul\":10521:10656   */\n    tag_245:\n        /* \"#utility.yul\":10560:10563   */\n      0x00\n        /* \"#utility.yul\":10581:10598   */\n      0x01\n      dup3\n      add\n        /* \"#utility.yul\":10578:10621   */\n      tag_514\n      jumpi\n        /* \"#utility.yul\":10601:10619   */\n      tag_514\n      tag_430\n      jump\t// in\n    tag_514:\n      pop\n        /* \"#utility.yul\":10648:10649   */\n      0x01\n        /* \"#utility.yul\":10637:10650   */\n      add\n      swap1\n        /* \"#utility.yul\":10521:10656   */\n      jump\t// out\n        /* \"#utility.yul\":13766:13934   */\n    tag_357:\n        /* \"#utility.yul\":13806:13813   */\n      0x00\n        /* \"#utility.yul\":13872:13873   */\n      dup2\n        /* \"#utility.yul\":13868:13869   */\n      0x00\n        /* \"#utility.yul\":13864:13870   */\n      not\n        /* \"#utility.yul\":13860:13874   */\n      div\n        /* \"#utility.yul\":13857:13858   */\n      dup4\n        /* \"#utility.yul\":13854:13875   */\n      gt\n        /* \"#utility.yul\":13849:13850   */\n      dup3\n        /* \"#utility.yul\":13842:13851   */\n      iszero\n        /* \"#utility.yul\":13835:13852   */\n      iszero\n        /* \"#utility.yul\":13831:13876   */\n      and\n        /* \"#utility.yul\":13828:13899   */\n      iszero\n      tag_527\n      jumpi\n        /* \"#utility.yul\":13879:13897   */\n      tag_527\n      tag_430\n      jump\t// in\n    tag_527:\n      pop\n        /* \"#utility.yul\":13919:13928   */\n      mul\n      swap1\n        /* \"#utility.yul\":13766:13934   */\n      jump\t// out\n        /* \"#utility.yul\":13939:14066   */\n    tag_365:\n        /* \"#utility.yul\":14000:14010   */\n      0x4e487b71\n        /* \"#utility.yul\":13995:13998   */\n      0xe0\n        /* \"#utility.yul\":13991:14011   */\n      shl\n        /* \"#utility.yul\":13988:13989   */\n      0x00\n        /* \"#utility.yul\":13981:14012   */\n      mstore\n        /* \"#utility.yul\":14031:14035   */\n      0x32\n        /* \"#utility.yul\":14028:14029   */\n      0x04\n        /* \"#utility.yul\":14021:14036   */\n      mstore\n        /* \"#utility.yul\":14055:14059   */\n      0x24\n        /* \"#utility.yul\":14052:14053   */\n      0x00\n        /* \"#utility.yul\":14045:14060   */\n      revert\n        /* \"#utility.yul\":14071:14207   */\n    tag_378:\n        /* \"#utility.yul\":14110:14113   */\n      0x00\n        /* \"#utility.yul\":14138:14143   */\n      dup2\n        /* \"#utility.yul\":14128:14167   */\n      tag_531\n      jumpi\n        /* \"#utility.yul\":14147:14165   */\n      tag_531\n      tag_430\n      jump\t// in\n    tag_531:\n      pop\n      not(0x00)\n        /* \"#utility.yul\":14183:14201   */\n      add\n      swap1\n        /* \"#utility.yul\":14071:14207   */\n      jump\t// out\n        /* \"#utility.yul\":14872:15130   */\n    tag_431:\n        /* \"#utility.yul\":14944:14945   */\n      0x00\n        /* \"#utility.yul\":14954:15067   */\n    tag_535:\n        /* \"#utility.yul\":14968:14974   */\n      dup4\n        /* \"#utility.yul\":14965:14966   */\n      dup2\n        /* \"#utility.yul\":14962:14975   */\n      lt\n        /* \"#utility.yul\":14954:15067   */\n      iszero\n      tag_537\n      jumpi\n        /* \"#utility.yul\":15044:15055   */\n      dup2\n      dup2\n      add\n        /* \"#utility.yul\":15038:15056   */\n      mload\n        /* \"#utility.yul\":15025:15036   */\n      dup4\n      dup3\n      add\n        /* \"#utility.yul\":15018:15057   */\n      mstore\n        /* \"#utility.yul\":14990:14992   */\n      0x20\n        /* \"#utility.yul\":14983:14993   */\n      add\n        /* \"#utility.yul\":14954:15067   */\n      jump(tag_535)\n    tag_537:\n        /* \"#utility.yul\":15085:15091   */\n      dup4\n        /* \"#utility.yul\":15082:15083   */\n      dup2\n        /* \"#utility.yul\":15079:15092   */\n      gt\n        /* \"#utility.yul\":15076:15124   */\n      iszero\n      tag_538\n      jumpi\n        /* \"#utility.yul\":15120:15121   */\n      0x00\n        /* \"#utility.yul\":15111:15117   */\n      dup5\n        /* \"#utility.yul\":15106:15109   */\n      dup5\n        /* \"#utility.yul\":15102:15118   */\n      add\n        /* \"#utility.yul\":15095:15122   */\n      mstore\n        /* \"#utility.yul\":15076:15124   */\n    tag_538:\n      pop\n        /* \"#utility.yul\":14872:15130   */\n      pop\n      pop\n      pop\n      jump\t// out\n        /* \"#utility.yul\":15135:15921   */\n    tag_411:\n        /* \"#utility.yul\":15546:15571   */\n      0x416363657373436f6e74726f6c3a206163636f756e7420000000000000000000\n        /* \"#utility.yul\":15541:15544   */\n      dup2\n        /* \"#utility.yul\":15534:15572   */\n      mstore\n        /* \"#utility.yul\":15516:15519   */\n      0x00\n        /* \"#utility.yul\":15601:15607   */\n      dup4\n        /* \"#utility.yul\":15595:15608   */\n      mload\n        /* \"#utility.yul\":15617:15679   */\n      tag_540\n        /* \"#utility.yul\":15672:15678   */\n      dup2\n        /* \"#utility.yul\":15667:15669   */\n      0x17\n        /* \"#utility.yul\":15662:15665   */\n      dup6\n        /* \"#utility.yul\":15658:15670   */\n      add\n        /* \"#utility.yul\":15651:15655   */\n      0x20\n        /* \"#utility.yul\":15643:15649   */\n      dup9\n        /* \"#utility.yul\":15639:15656   */\n      add\n        /* \"#utility.yul\":15617:15679   */\n      tag_431\n      jump\t// in\n    tag_540:\n      shl(0x7d, 0x01034b99036b4b9b9b4b733903937b6329)\n        /* \"#utility.yul\":15738:15740   */\n      0x17\n        /* \"#utility.yul\":15698:15714   */\n      swap2\n      dup5\n      add\n        /* \"#utility.yul\":15730:15741   */\n      swap2\n      dup3\n      add\n        /* \"#utility.yul\":15723:15763   */\n      mstore\n        /* \"#utility.yul\":15788:15801   */\n      dup4\n      mload\n        /* \"#utility.yul\":15810:15873   */\n      tag_541\n        /* \"#utility.yul\":15788:15801   */\n      dup2\n        /* \"#utility.yul\":15859:15861   */\n      0x28\n        /* \"#utility.yul\":15851:15862   */\n      dup5\n      add\n        /* \"#utility.yul\":15844:15848   */\n      0x20\n        /* \"#utility.yul\":15832:15849   */\n      dup9\n      add\n        /* \"#utility.yul\":15810:15873   */\n      tag_431\n      jump\t// in\n    tag_541:\n        /* \"#utility.yul\":15893:15910   */\n      add\n        /* \"#utility.yul\":15912:15914   */\n      0x28\n        /* \"#utility.yul\":15889:15915   */\n      add\n      swap5\n        /* \"#utility.yul\":15135:15921   */\n      swap4\n      pop\n      pop\n      pop\n      pop\n      jump\t// out\n        /* \"#utility.yul\":15926:16309   */\n    tag_413:\n        /* \"#utility.yul\":16075:16077   */\n      0x20\n        /* \"#utility.yul\":16064:16073   */\n      dup2\n        /* \"#utility.yul\":16057:16078   */\n      mstore\n        /* \"#utility.yul\":16038:16042   */\n      0x00\n        /* \"#utility.yul\":16107:16113   */\n      dup3\n        /* \"#utility.yul\":16101:16114   */\n      mload\n        /* \"#utility.yul\":16150:16156   */\n      dup1\n        /* \"#utility.yul\":16145:16147   */\n      0x20\n        /* \"#utility.yul\":16134:16143   */\n      dup5\n        /* \"#utility.yul\":16130:16148   */\n      add\n        /* \"#utility.yul\":16123:16157   */\n      mstore\n        /* \"#utility.yul\":16166:16232   */\n      tag_543\n        /* \"#utility.yul\":16225:16231   */\n      dup2\n        /* \"#utility.yul\":16220:16222   */\n      0x40\n        /* \"#utility.yul\":16209:16218   */\n      dup6\n        /* \"#utility.yul\":16205:16223   */\n      add\n        /* \"#utility.yul\":16200:16202   */\n      0x20\n        /* \"#utility.yul\":16192:16198   */\n      dup8\n        /* \"#utility.yul\":16188:16203   */\n      add\n        /* \"#utility.yul\":16166:16232   */\n      tag_431\n      jump\t// in\n    tag_543:\n        /* \"#utility.yul\":16293:16295   */\n      0x1f\n        /* \"#utility.yul\":16272:16287   */\n      add\n      not(0x1f)\n        /* \"#utility.yul\":16268:16297   */\n      and\n        /* \"#utility.yul\":16253:16298   */\n      swap2\n      swap1\n      swap2\n      add\n        /* \"#utility.yul\":16300:16302   */\n      0x40\n        /* \"#utility.yul\":16249:16303   */\n      add\n      swap3\n        /* \"#utility.yul\":15926:16309   */\n      swap2\n      pop\n      pop\n      jump\t// out\n\n    auxdata: 0xa2646970667358221220f89fae7d77ba9ce5ab030d50c1817c4d0c75e2b945ab9c9c60cf1df1cc17250d64736f6c634300080f0033\n}\n",
				"bytecode": {
					"linkReferences": {},
					"object": "60806040523480156200001157600080fd5b5060405162002212380380620022128339810160408190526200003491620003a5565b60016002556200004660003362000064565b6200005182620000ed565b6200005c816200011d565b50506200055b565b60008281526001602090815260408083206001600160a01b038516845290915290205460ff16620000e95760008281526001602081815260408084206001600160a01b0386168086529252808420805460ff19169093179092559051339285917f2f8788117e7eff1d82e926ec794901d17c78024a50270940304540a733656f0d9190a45b5050565b6000620000fa8162000130565b50600380546001600160a01b0319166001600160a01b0392909216919091179055565b60006200012a8162000130565b50600055565b6200013c81336200013f565b50565b60008281526001602090815260408083206001600160a01b038516845290915290205460ff16620000e9576200018b816001600160a01b03166014620001e560201b6200133b1760201c565b620001a18360206200133b620001e5821b17811c565b604051602001620001b492919062000414565b60408051601f198184030181529082905262461bcd60e51b8252620001dc916004016200048d565b60405180910390fd5b60606000620001f6836002620004d8565b62000203906002620004fa565b6001600160401b038111156200021d576200021d62000515565b6040519080825280601f01601f19166020018201604052801562000248576020820181803683370190505b509050600360fc1b816000815181106200026657620002666200052b565b60200101906001600160f81b031916908160001a905350600f60fb1b816001815181106200029857620002986200052b565b60200101906001600160f81b031916908160001a9053506000620002be846002620004d8565b620002cb906001620004fa565b90505b60018111156200034d576f181899199a1a9b1b9c1cb0b131b232b360811b85600f16601081106200030357620003036200052b565b1a60f81b8282815181106200031c576200031c6200052b565b60200101906001600160f81b031916908160001a90535060049490941c93620003458162000541565b9050620002ce565b5083156200039e5760405162461bcd60e51b815260206004820181905260248201527f537472696e67733a20686578206c656e67746820696e73756666696369656e746044820152606401620001dc565b9392505050565b60008060408385031215620003b957600080fd5b82516001600160a01b0381168114620003d157600080fd5b6020939093015192949293505050565b60005b83811015620003fe578181015183820152602001620003e4565b838111156200040e576000848401525b50505050565b7f416363657373436f6e74726f6c3a206163636f756e74200000000000000000008152600083516200044e816017850160208801620003e1565b7001034b99036b4b9b9b4b733903937b6329607d1b601791840191820152835162000481816028840160208801620003e1565b01602801949350505050565b6020815260008251806020840152620004ae816040850160208701620003e1565b601f01601f19169190910160400192915050565b634e487b7160e01b600052601160045260246000fd5b6000816000190483118215151615620004f557620004f5620004c2565b500290565b60008219821115620005105762000510620004c2565b500190565b634e487b7160e01b600052604160045260246000fd5b634e487b7160e01b600052603260045260246000fd5b600081620005535762000553620004c2565b506000190190565b611ca7806200056b6000396000f3fe6080604052600436106101cd5760003560e01c80636c19e783116100f7578063a7bb580311610095578063f055c7a911610064578063f055c7a91461056a578063fa540801146105a3578063fade63c9146105c3578063ff0938a7146105e357600080fd5b8063a7bb5803146104e4578063c4e41b2214610522578063d547741f14610537578063de6892c81461055757600080fd5b806391d14854116100d157806391d148541461046e57806394f4504d1461048e57806397aba7f9146104af578063a217fddf146104cf57600080fd5b80636c19e7831461040e5780637cb647591461042e578063805064941461044e57600080fd5b80632904e6d91161016f57806336568abe1161013e57806336568abe1461038057806342920a46146103a05780634c0f38c2146103c05780635997bbee146103d557600080fd5b80632904e6d9146103155780632c8a19261461032a5780632eb4a7ab1461034a5780632f2ff15d1461036057600080fd5b80631f5ac1b2116101ab5780631f5ac1b21461026c578063238ac9331461028c578063248a9ca3146102c457806327c25c20146102f557600080fd5b806301ffc9a7146101d257806311c67efc146102075780631b0d2d3b14610228575b600080fd5b3480156101de57600080fd5b506101f26101ed366004611748565b6105f8565b60405190151581526020015b60405180910390f35b34801561021357600080fd5b506003546101f290600160a01b900460ff1681565b34801561023457600080fd5b5061025e610243366004611787565b6001600160a01b031660009081526006602052604090205490565b6040519081526020016101fe565b34801561027857600080fd5b5061025e610287366004611787565b61062f565b34801561029857600080fd5b506004546102ac906001600160a01b031681565b6040516001600160a01b0390911681526020016101fe565b3480156102d057600080fd5b5061025e6102df3660046117a4565b6000908152600160208190526040909120015490565b34801561030157600080fd5b506003546102ac906001600160a01b031681565b6103286103233660046117bd565b610679565b005b34801561033657600080fd5b50610328610345366004611787565b610a89565b34801561035657600080fd5b5061025e60005481565b34801561036c57600080fd5b5061032861037b366004611838565b610ab7565b34801561038c57600080fd5b5061032861039b366004611838565b610ae2565b3480156103ac57600080fd5b506101f26103bb36600461190b565b610b60565b3480156103cc57600080fd5b5061025e610ba3565b3480156103e157600080fd5b506101f26103f0366004611787565b6001600160a01b031660009081526005602052604090205460ff1690565b34801561041a57600080fd5b50610328610429366004611787565b610c16565b34801561043a57600080fd5b506103286104493660046117a4565b610c44565b34801561045a57600080fd5b5061032861046936600461197b565b610c55565b34801561047a57600080fd5b506101f2610489366004611838565b610c7f565b34801561049a57600080fd5b506003546101f290600160a81b900460ff1681565b3480156104bb57600080fd5b506102ac6104ca366004611998565b610caa565b3480156104db57600080fd5b5061025e600081565b3480156104f057600080fd5b506105046104ff3660046119df565b610d29565b60408051938452602084019290925260ff16908201526060016101fe565b34801561052e57600080fd5b5061025e610d9d565b34801561054357600080fd5b50610328610552366004611838565b610de7565b610328610565366004611a14565b610e0d565b34801561057657600080fd5b506101f2610585366004611787565b6001600160a01b031660009081526007602052604090205460ff1690565b3480156105af57600080fd5b5061025e6105be3660046117a4565b611268565b3480156105cf57600080fd5b506103286105de36600461197b565b6112a3565b3480156105ef57600080fd5b506101f26112cd565b60006001600160e01b03198216637965db0b60e01b148061062957506301ffc9a760e01b6001600160e01b03198316145b92915050565b6040516bffffffffffffffffffffffff19606083811b8216602084015230901b1660348201526000906048015b604051602081830303815290604052805190602001209050919050565b60028054036106cf5760405162461bcd60e51b815260206004820152601f60248201527f5265656e7472616e637947756172643a207265656e7472616e742063616c6c0060448201526064015b60405180910390fd5b600280556106db6112cd565b1561071f5760405162461bcd60e51b81526020600482015260146024820152732730b3b0a5b4b239903bb0b9902830bab9b2b21760611b60448201526064016106c6565b600354600160a81b900460ff16151560011461077d5760405162461bcd60e51b815260206004820152601b60248201527f57686974656c697374206e6f74206f70656e20746f206d696e742e000000000060448201526064016106c6565b61045781610789610d9d565b6107939190611a9c565b106107ce5760405162461bcd60e51b815260206004820152600b60248201526a4f76657220737570706c7960a81b60448201526064016106c6565b3360009081526005602052604090205460ff16151560010361082c5760405162461bcd60e51b81526020600482015260176024820152762cb7ba9030b9329030b63932b0b23c9036b4b73a32b21760491b60448201526064016106c6565b6003546040805163d539139360e01b815290516001600160a01b03909216916391d1485491839163d5391393916004808201926020929091908290030181865afa15801561087e573d6000803e3d6000fd5b505050506040513d601f19601f820116820180604052508101906108a29190611ab4565b6040516001600160e01b031960e084901b1681526004810191909152306024820152604401602060405180830381865afa1580156108e4573d6000803e3d6000fd5b505050506040513d601f19601f820116820180604052508101906109089190611acd565b15156001146109295760405162461bcd60e51b81526004016106c690611aea565b610935838333846114de565b61098f5760405162461bcd60e51b815260206004820152602560248201527f556e617574686f72697a65642057686974656c6973744d696e742054686973206044820152642ab9b2b91760d91b60648201526084016106c6565b336000908152600560209081526040808320805460ff191660011790556006909152812080548392906109c3908490611a9c565b90915550600090505b81811015610a44576003546040516340d097c360e01b81523360048201526001600160a01b03909116906340d097c390602401600060405180830381600087803b158015610a1957600080fd5b505af1158015610a2d573d6000803e3d6000fd5b505050508080610a3c90611b34565b9150506109cc565b506040805182815242602082015233917fb7df065473d5cf63ef5cf9190dbd326ea5e6fbfe4a0971f4920e430bbfd5a938910160405180910390a25050600160025550565b6000610a948161157b565b50600380546001600160a01b0319166001600160a01b0392909216919091179055565b60008281526001602081905260409091200154610ad38161157b565b610add8383611588565b505050565b6001600160a01b0381163314610b525760405162461bcd60e51b815260206004820152602f60248201527f416363657373436f6e74726f6c3a2063616e206f6e6c792072656e6f756e636560448201526e103937b632b9903337b91039b2b63360891b60648201526084016106c6565b610b5c82826115f3565b5050565b600080610b6c8461062f565b90506000610b7982611268565b9050856001600160a01b0316610b8f8286610caa565b6001600160a01b0316149695505050505050565b6003546040805163d5abeb0160e01b815290516000926001600160a01b03169163d5abeb019160048083019260209291908290030181865afa158015610bed573d6000803e3d6000fd5b505050506040513d601f19601f82011682018060405250810190610c119190611ab4565b905090565b6000610c218161157b565b50600480546001600160a01b0319166001600160a01b0392909216919091179055565b6000610c4f8161157b565b50600055565b6000610c608161157b565b5060038054911515600160a01b0260ff60a01b19909216919091179055565b60009182526001602090815260408084206001600160a01b0393909316845291905290205460ff1690565b600080600080610cb985610d29565b6040805160008152602081018083528b905260ff8316918101919091526060810184905260808101839052929550909350915060019060a0016020604051602081039080840390855afa158015610d14573d6000803e3d6000fd5b5050604051601f190151979650505050505050565b60008060008351604114610d7f5760405162461bcd60e51b815260206004820152601860248201527f696e76616c6964207369676e6174757265206c656e677468000000000000000060448201526064016106c6565b50505060208101516040820151606090920151909260009190911a90565b600354604080516318160ddd60e01b815290516000926001600160a01b0316916318160ddd9160048083019260209291908290030181865afa158015610bed573d6000803e3d6000fd5b60008281526001602081905260409091200154610e038161157b565b610add83836115f3565b6002805403610e5e5760405162461bcd60e51b815260206004820152601f60248201527f5265656e7472616e637947756172643a207265656e7472616e742063616c6c0060448201526064016106c6565b60028055610e6a6112cd565b15610eae5760405162461bcd60e51b81526020600482015260146024820152732730b3b0a5b4b239903bb0b9902830bab9b2b21760611b60448201526064016106c6565b600354600160a01b900460ff161515600114610f0c5760405162461bcd60e51b815260206004820152601b60248201527f57686974656c697374206e6f74206f70656e20746f206d696e742e000000000060448201526064016106c6565b323314610f5b5760405162461bcd60e51b815260206004820152601b60248201527f6861686120436f6e74726163742063616e27742063616c6c206d65000000000060448201526064016106c6565b3360009081526007602052604090205460ff161515600103610fb95760405162461bcd60e51b81526020600482015260176024820152762cb7ba9030b9329030b63932b0b23c9036b4b73a32b21760491b60448201526064016106c6565b610457610fc4610d9d565b610fcf906001611a9c565b106110115760405162461bcd60e51b815260206004820152601260248201527113dd995c8814dd5c1c1b1e48105b5bdd5b9d60721b60448201526064016106c6565b6003546040805163d539139360e01b815290516001600160a01b03909216916391d1485491839163d5391393916004808201926020929091908290030181865afa158015611063573d6000803e3d6000fd5b505050506040513d601f19601f820116820180604052508101906110879190611ab4565b6040516001600160e01b031960e084901b1681526004810191909152306024820152604401602060405180830381865afa1580156110c9573d6000803e3d6000fd5b505050506040513d601f19601f820116820180604052508101906110ed9190611acd565b151560011461110e5760405162461bcd60e51b81526004016106c690611aea565b600454604080516020601f850181900481028201810190925283815261115b926001600160a01b0316913391908690869081908401838280828437600092019190915250610b6092505050565b6111b25760405162461bcd60e51b815260206004820152602260248201527f556e617574686f72697a6564205075626c69634d696e74205468697320557365604482015261391760f11b60648201526084016106c6565b3360008181526007602052604090819020805460ff1916600117905560035490516340d097c360e01b815260048101929092526001600160a01b0316906340d097c390602401600060405180830381600087803b15801561121257600080fd5b505af1158015611226573d6000803e3d6000fd5b50506040514281523392507fab9980fb1d2916bce9017edd1be458e3f56d0899b3367cb3a8be97483fbe069b915060200160405180910390a250506001600255565b6040517f19457468657265756d205369676e6564204d6573736167653a0a3332000000006020820152603c8101829052600090605c0161065c565b60006112ae8161157b565b5060038054911515600160a81b0260ff60a81b19909216919091179055565b60035460408051635c975abb60e01b815290516000926001600160a01b031691635c975abb9160048083019260209291908290030181865afa158015611317573d6000803e3d6000fd5b505050506040513d601f19601f82011682018060405250810190610c119190611acd565b6060600061134a836002611b4d565b611355906002611a9c565b67ffffffffffffffff81111561136d5761136d611868565b6040519080825280601f01601f191660200182016040528015611397576020820181803683370190505b509050600360fc1b816000815181106113b2576113b2611b6c565b60200101906001600160f81b031916908160001a905350600f60fb1b816001815181106113e1576113e1611b6c565b60200101906001600160f81b031916908160001a9053506000611405846002611b4d565b611410906001611a9c565b90505b6001811115611488576f181899199a1a9b1b9c1cb0b131b232b360811b85600f166010811061144457611444611b6c565b1a60f81b82828151811061145a5761145a611b6c565b60200101906001600160f81b031916908160001a90535060049490941c9361148181611b82565b9050611413565b5083156114d75760405162461bcd60e51b815260206004820181905260248201527f537472696e67733a20686578206c656e67746820696e73756666696369656e7460448201526064016106c6565b9392505050565b6000805481036114f057506000611573565b6115708585808060200260200160405190810160405280939291908181526020018383602002808284376000920182905250546040516bffffffffffffffffffffffff1960608b901b1660208201526034810189905290935060540191506115559050565b6040516020818303038152906040528051906020012061165a565b90505b949350505050565b6115858133611670565b50565b6115928282610c7f565b610b5c5760008281526001602081815260408084206001600160a01b0386168086529252808420805460ff19169093179092559051339285917f2f8788117e7eff1d82e926ec794901d17c78024a50270940304540a733656f0d9190a45050565b6115fd8282610c7f565b15610b5c5760008281526001602090815260408083206001600160a01b0385168085529252808320805460ff1916905551339285917ff6391f5c32d9c69d2a47ea670b442974b53935d1edc7fd64eb21e047a839171b9190a45050565b60008261166785846116d4565b14949350505050565b61167a8282610c7f565b610b5c57611692816001600160a01b0316601461133b565b61169d83602061133b565b6040516020016116ae929190611bc9565b60408051601f198184030181529082905262461bcd60e51b82526106c691600401611c3e565b600081815b84518110156117405760008582815181106116f6576116f6611b6c565b6020026020010151905080831161171c576000838152602082905260409020925061172d565b600081815260208490526040902092505b508061173881611b34565b9150506116d9565b509392505050565b60006020828403121561175a57600080fd5b81356001600160e01b0319811681146114d757600080fd5b6001600160a01b038116811461158557600080fd5b60006020828403121561179957600080fd5b81356114d781611772565b6000602082840312156117b657600080fd5b5035919050565b6000806000604084860312156117d257600080fd5b833567ffffffffffffffff808211156117ea57600080fd5b818601915086601f8301126117fe57600080fd5b81358181111561180d57600080fd5b8760208260051b850101111561182257600080fd5b6020928301989097509590910135949350505050565b6000806040838503121561184b57600080fd5b82359150602083013561185d81611772565b809150509250929050565b634e487b7160e01b600052604160045260246000fd5b600082601f83011261188f57600080fd5b813567ffffffffffffffff808211156118aa576118aa611868565b604051601f8301601f19908116603f011681019082821181831017156118d2576118d2611868565b816040528381528660208588010111156118eb57600080fd5b836020870160208301376000602085830101528094505050505092915050565b60008060006060848603121561192057600080fd5b833561192b81611772565b9250602084013561193b81611772565b9150604084013567ffffffffffffffff81111561195757600080fd5b6119638682870161187e565b9150509250925092565b801515811461158557600080fd5b60006020828403121561198d57600080fd5b81356114d78161196d565b600080604083850312156119ab57600080fd5b82359150602083013567ffffffffffffffff8111156119c957600080fd5b6119d58582860161187e565b9150509250929050565b6000602082840312156119f157600080fd5b813567ffffffffffffffff811115611a0857600080fd5b6115738482850161187e565b60008060208385031215611a2757600080fd5b823567ffffffffffffffff80821115611a3f57600080fd5b818501915085601f830112611a5357600080fd5b813581811115611a6257600080fd5b866020828501011115611a7457600080fd5b60209290920196919550909350505050565b634e487b7160e01b600052601160045260246000fd5b60008219821115611aaf57611aaf611a86565b500190565b600060208284031215611ac657600080fd5b5051919050565b600060208284031215611adf57600080fd5b81516114d78161196d565b6020808252602a908201527f5468697320436f6e7472616374206e6f742068617665207065726d697373696f60408201526937103a379036b4b73a1760b11b606082015260800190565b600060018201611b4657611b46611a86565b5060010190565b6000816000190483118215151615611b6757611b67611a86565b500290565b634e487b7160e01b600052603260045260246000fd5b600081611b9157611b91611a86565b506000190190565b60005b83811015611bb4578181015183820152602001611b9c565b83811115611bc3576000848401525b50505050565b7f416363657373436f6e74726f6c3a206163636f756e7420000000000000000000815260008351611c01816017850160208801611b99565b7001034b99036b4b9b9b4b733903937b6329607d1b6017918401918201528351611c32816028840160208801611b99565b01602801949350505050565b6020815260008251806020840152611c5d816040850160208701611b99565b601f01601f1916919091016040019291505056fea2646970667358221220f89fae7d77ba9ce5ab030d50c1817c4d0c75e2b945ab9c9c60cf1df1cc17250d64736f6c634300080f0033",
					"opcodes": "PUSH1 0x80 PUSH1 0x40 MSTORE CALLVALUE DUP1 ISZERO PUSH3 0x11 JUMPI PUSH1 0x0 DUP1 REVERT JUMPDEST POP PUSH1 0x40 MLOAD PUSH3 0x2212 CODESIZE SUB DUP1 PUSH3 0x2212 DUP4 CODECOPY DUP2 ADD PUSH1 0x40 DUP2 SWAP1 MSTORE PUSH3 0x34 SWAP2 PUSH3 0x3A5 JUMP JUMPDEST PUSH1 0x1 PUSH1 0x2 SSTORE PUSH3 0x46 PUSH1 0x0 CALLER PUSH3 0x64 JUMP JUMPDEST PUSH3 0x51 DUP3 PUSH3 0xED JUMP JUMPDEST PUSH3 0x5C DUP2 PUSH3 0x11D JUMP JUMPDEST POP POP PUSH3 0x55B JUMP JUMPDEST PUSH1 0x0 DUP3 DUP2 MSTORE PUSH1 0x1 PUSH1 0x20 SWAP1 DUP2 MSTORE PUSH1 0x40 DUP1 DUP4 KECCAK256 PUSH1 0x1 PUSH1 0x1 PUSH1 0xA0 SHL SUB DUP6 AND DUP5 MSTORE SWAP1 SWAP2 MSTORE SWAP1 KECCAK256 SLOAD PUSH1 0xFF AND PUSH3 0xE9 JUMPI PUSH1 0x0 DUP3 DUP2 MSTORE PUSH1 0x1 PUSH1 0x20 DUP2 DUP2 MSTORE PUSH1 0x40 DUP1 DUP5 KECCAK256 PUSH1 0x1 PUSH1 0x1 PUSH1 0xA0 SHL SUB DUP7 AND DUP1 DUP7 MSTORE SWAP3 MSTORE DUP1 DUP5 KECCAK256 DUP1 SLOAD PUSH1 0xFF NOT AND SWAP1 SWAP4 OR SWAP1 SWAP3 SSTORE SWAP1 MLOAD CALLER SWAP3 DUP6 SWAP2 PUSH32 0x2F8788117E7EFF1D82E926EC794901D17C78024A50270940304540A733656F0D SWAP2 SWAP1 LOG4 JUMPDEST POP POP JUMP JUMPDEST PUSH1 0x0 PUSH3 0xFA DUP2 PUSH3 0x130 JUMP JUMPDEST POP PUSH1 0x3 DUP1 SLOAD PUSH1 0x1 PUSH1 0x1 PUSH1 0xA0 SHL SUB NOT AND PUSH1 0x1 PUSH1 0x1 PUSH1 0xA0 SHL SUB SWAP3 SWAP1 SWAP3 AND SWAP2 SWAP1 SWAP2 OR SWAP1 SSTORE JUMP JUMPDEST PUSH1 0x0 PUSH3 0x12A DUP2 PUSH3 0x130 JUMP JUMPDEST POP PUSH1 0x0 SSTORE JUMP JUMPDEST PUSH3 0x13C DUP2 CALLER PUSH3 0x13F JUMP JUMPDEST POP JUMP JUMPDEST PUSH1 0x0 DUP3 DUP2 MSTORE PUSH1 0x1 PUSH1 0x20 SWAP1 DUP2 MSTORE PUSH1 0x40 DUP1 DUP4 KECCAK256 PUSH1 0x1 PUSH1 0x1 PUSH1 0xA0 SHL SUB DUP6 AND DUP5 MSTORE SWAP1 SWAP2 MSTORE SWAP1 KECCAK256 SLOAD PUSH1 0xFF AND PUSH3 0xE9 JUMPI PUSH3 0x18B DUP2 PUSH1 0x1 PUSH1 0x1 PUSH1 0xA0 SHL SUB AND PUSH1 0x14 PUSH3 0x1E5 PUSH1 0x20 SHL PUSH3 0x133B OR PUSH1 0x20 SHR JUMP JUMPDEST PUSH3 0x1A1 DUP4 PUSH1 0x20 PUSH3 0x133B PUSH3 0x1E5 DUP3 SHL OR DUP2 SHR JUMP JUMPDEST PUSH1 0x40 MLOAD PUSH1 0x20 ADD PUSH3 0x1B4 SWAP3 SWAP2 SWAP1 PUSH3 0x414 JUMP JUMPDEST PUSH1 0x40 DUP1 MLOAD PUSH1 0x1F NOT DUP2 DUP5 SUB ADD DUP2 MSTORE SWAP1 DUP3 SWAP1 MSTORE PUSH3 0x461BCD PUSH1 0xE5 SHL DUP3 MSTORE PUSH3 0x1DC SWAP2 PUSH1 0x4 ADD PUSH3 0x48D JUMP JUMPDEST PUSH1 0x40 MLOAD DUP1 SWAP2 SUB SWAP1 REVERT JUMPDEST PUSH1 0x60 PUSH1 0x0 PUSH3 0x1F6 DUP4 PUSH1 0x2 PUSH3 0x4D8 JUMP JUMPDEST PUSH3 0x203 SWAP1 PUSH1 0x2 PUSH3 0x4FA JUMP JUMPDEST PUSH1 0x1 PUSH1 0x1 PUSH1 0x40 SHL SUB DUP2 GT ISZERO PUSH3 0x21D JUMPI PUSH3 0x21D PUSH3 0x515 JUMP JUMPDEST PUSH1 0x40 MLOAD SWAP1 DUP1 DUP3 MSTORE DUP1 PUSH1 0x1F ADD PUSH1 0x1F NOT AND PUSH1 0x20 ADD DUP3 ADD PUSH1 0x40 MSTORE DUP1 ISZERO PUSH3 0x248 JUMPI PUSH1 0x20 DUP3 ADD DUP2 DUP1 CALLDATASIZE DUP4 CALLDATACOPY ADD SWAP1 POP JUMPDEST POP SWAP1 POP PUSH1 0x3 PUSH1 0xFC SHL DUP2 PUSH1 0x0 DUP2 MLOAD DUP2 LT PUSH3 0x266 JUMPI PUSH3 0x266 PUSH3 0x52B JUMP JUMPDEST PUSH1 0x20 ADD ADD SWAP1 PUSH1 0x1 PUSH1 0x1 PUSH1 0xF8 SHL SUB NOT AND SWAP1 DUP2 PUSH1 0x0 BYTE SWAP1 MSTORE8 POP PUSH1 0xF PUSH1 0xFB SHL DUP2 PUSH1 0x1 DUP2 MLOAD DUP2 LT PUSH3 0x298 JUMPI PUSH3 0x298 PUSH3 0x52B JUMP JUMPDEST PUSH1 0x20 ADD ADD SWAP1 PUSH1 0x1 PUSH1 0x1 PUSH1 0xF8 SHL SUB NOT AND SWAP1 DUP2 PUSH1 0x0 BYTE SWAP1 MSTORE8 POP PUSH1 0x0 PUSH3 0x2BE DUP5 PUSH1 0x2 PUSH3 0x4D8 JUMP JUMPDEST PUSH3 0x2CB SWAP1 PUSH1 0x1 PUSH3 0x4FA JUMP JUMPDEST SWAP1 POP JUMPDEST PUSH1 0x1 DUP2 GT ISZERO PUSH3 0x34D JUMPI PUSH16 0x181899199A1A9B1B9C1CB0B131B232B3 PUSH1 0x81 SHL DUP6 PUSH1 0xF AND PUSH1 0x10 DUP2 LT PUSH3 0x303 JUMPI PUSH3 0x303 PUSH3 0x52B JUMP JUMPDEST BYTE PUSH1 0xF8 SHL DUP3 DUP3 DUP2 MLOAD DUP2 LT PUSH3 0x31C JUMPI PUSH3 0x31C PUSH3 0x52B JUMP JUMPDEST PUSH1 0x20 ADD ADD SWAP1 PUSH1 0x1 PUSH1 0x1 PUSH1 0xF8 SHL SUB NOT AND SWAP1 DUP2 PUSH1 0x0 BYTE SWAP1 MSTORE8 POP PUSH1 0x4 SWAP5 SWAP1 SWAP5 SHR SWAP4 PUSH3 0x345 DUP2 PUSH3 0x541 JUMP JUMPDEST SWAP1 POP PUSH3 0x2CE JUMP JUMPDEST POP DUP4 ISZERO PUSH3 0x39E JUMPI PUSH1 0x40 MLOAD PUSH3 0x461BCD PUSH1 0xE5 SHL DUP2 MSTORE PUSH1 0x20 PUSH1 0x4 DUP3 ADD DUP2 SWAP1 MSTORE PUSH1 0x24 DUP3 ADD MSTORE PUSH32 0x537472696E67733A20686578206C656E67746820696E73756666696369656E74 PUSH1 0x44 DUP3 ADD MSTORE PUSH1 0x64 ADD PUSH3 0x1DC JUMP JUMPDEST SWAP4 SWAP3 POP POP POP JUMP JUMPDEST PUSH1 0x0 DUP1 PUSH1 0x40 DUP4 DUP6 SUB SLT ISZERO PUSH3 0x3B9 JUMPI PUSH1 0x0 DUP1 REVERT JUMPDEST DUP3 MLOAD PUSH1 0x1 PUSH1 0x1 PUSH1 0xA0 SHL SUB DUP2 AND DUP2 EQ PUSH3 0x3D1 JUMPI PUSH1 0x0 DUP1 REVERT JUMPDEST PUSH1 0x20 SWAP4 SWAP1 SWAP4 ADD MLOAD SWAP3 SWAP5 SWAP3 SWAP4 POP POP POP JUMP JUMPDEST PUSH1 0x0 JUMPDEST DUP4 DUP2 LT ISZERO PUSH3 0x3FE JUMPI DUP2 DUP2 ADD MLOAD DUP4 DUP3 ADD MSTORE PUSH1 0x20 ADD PUSH3 0x3E4 JUMP JUMPDEST DUP4 DUP2 GT ISZERO PUSH3 0x40E JUMPI PUSH1 0x0 DUP5 DUP5 ADD MSTORE JUMPDEST POP POP POP POP JUMP JUMPDEST PUSH32 0x416363657373436F6E74726F6C3A206163636F756E7420000000000000000000 DUP2 MSTORE PUSH1 0x0 DUP4 MLOAD PUSH3 0x44E DUP2 PUSH1 0x17 DUP6 ADD PUSH1 0x20 DUP9 ADD PUSH3 0x3E1 JUMP JUMPDEST PUSH17 0x1034B99036B4B9B9B4B733903937B6329 PUSH1 0x7D SHL PUSH1 0x17 SWAP2 DUP5 ADD SWAP2 DUP3 ADD MSTORE DUP4 MLOAD PUSH3 0x481 DUP2 PUSH1 0x28 DUP5 ADD PUSH1 0x20 DUP9 ADD PUSH3 0x3E1 JUMP JUMPDEST ADD PUSH1 0x28 ADD SWAP5 SWAP4 POP POP POP POP JUMP JUMPDEST PUSH1 0x20 DUP2 MSTORE PUSH1 0x0 DUP3 MLOAD DUP1 PUSH1 0x20 DUP5 ADD MSTORE PUSH3 0x4AE DUP2 PUSH1 0x40 DUP6 ADD PUSH1 0x20 DUP8 ADD PUSH3 0x3E1 JUMP JUMPDEST PUSH1 0x1F ADD PUSH1 0x1F NOT AND SWAP2 SWAP1 SWAP2 ADD PUSH1 0x40 ADD SWAP3 SWAP2 POP POP JUMP JUMPDEST PUSH4 0x4E487B71 PUSH1 0xE0 SHL PUSH1 0x0 MSTORE PUSH1 0x11 PUSH1 0x4 MSTORE PUSH1 0x24 PUSH1 0x0 REVERT JUMPDEST PUSH1 0x0 DUP2 PUSH1 0x0 NOT DIV DUP4 GT DUP3 ISZERO ISZERO AND ISZERO PUSH3 0x4F5 JUMPI PUSH3 0x4F5 PUSH3 0x4C2 JUMP JUMPDEST POP MUL SWAP1 JUMP JUMPDEST PUSH1 0x0 DUP3 NOT DUP3 GT ISZERO PUSH3 0x510 JUMPI PUSH3 0x510 PUSH3 0x4C2 JUMP JUMPDEST POP ADD SWAP1 JUMP JUMPDEST PUSH4 0x4E487B71 PUSH1 0xE0 SHL PUSH1 0x0 MSTORE PUSH1 0x41 PUSH1 0x4 MSTORE PUSH1 0x24 PUSH1 0x0 REVERT JUMPDEST PUSH4 0x4E487B71 PUSH1 0xE0 SHL PUSH1 0x0 MSTORE PUSH1 0x32 PUSH1 0x4 MSTORE PUSH1 0x24 PUSH1 0x0 REVERT JUMPDEST PUSH1 0x0 DUP2 PUSH3 0x553 JUMPI PUSH3 0x553 PUSH3 0x4C2 JUMP JUMPDEST POP PUSH1 0x0 NOT ADD SWAP1 JUMP JUMPDEST PUSH2 0x1CA7 DUP1 PUSH3 0x56B PUSH1 0x0 CODECOPY PUSH1 0x0 RETURN INVALID PUSH1 0x80 PUSH1 0x40 MSTORE PUSH1 0x4 CALLDATASIZE LT PUSH2 0x1CD JUMPI PUSH1 0x0 CALLDATALOAD PUSH1 0xE0 SHR DUP1 PUSH4 0x6C19E783 GT PUSH2 0xF7 JUMPI DUP1 PUSH4 0xA7BB5803 GT PUSH2 0x95 JUMPI DUP1 PUSH4 0xF055C7A9 GT PUSH2 0x64 JUMPI DUP1 PUSH4 0xF055C7A9 EQ PUSH2 0x56A JUMPI DUP1 PUSH4 0xFA540801 EQ PUSH2 0x5A3 JUMPI DUP1 PUSH4 0xFADE63C9 EQ PUSH2 0x5C3 JUMPI DUP1 PUSH4 0xFF0938A7 EQ PUSH2 0x5E3 JUMPI PUSH1 0x0 DUP1 REVERT JUMPDEST DUP1 PUSH4 0xA7BB5803 EQ PUSH2 0x4E4 JUMPI DUP1 PUSH4 0xC4E41B22 EQ PUSH2 0x522 JUMPI DUP1 PUSH4 0xD547741F EQ PUSH2 0x537 JUMPI DUP1 PUSH4 0xDE6892C8 EQ PUSH2 0x557 JUMPI PUSH1 0x0 DUP1 REVERT JUMPDEST DUP1 PUSH4 0x91D14854 GT PUSH2 0xD1 JUMPI DUP1 PUSH4 0x91D14854 EQ PUSH2 0x46E JUMPI DUP1 PUSH4 0x94F4504D EQ PUSH2 0x48E JUMPI DUP1 PUSH4 0x97ABA7F9 EQ PUSH2 0x4AF JUMPI DUP1 PUSH4 0xA217FDDF EQ PUSH2 0x4CF JUMPI PUSH1 0x0 DUP1 REVERT JUMPDEST DUP1 PUSH4 0x6C19E783 EQ PUSH2 0x40E JUMPI DUP1 PUSH4 0x7CB64759 EQ PUSH2 0x42E JUMPI DUP1 PUSH4 0x80506494 EQ PUSH2 0x44E JUMPI PUSH1 0x0 DUP1 REVERT JUMPDEST DUP1 PUSH4 0x2904E6D9 GT PUSH2 0x16F JUMPI DUP1 PUSH4 0x36568ABE GT PUSH2 0x13E JUMPI DUP1 PUSH4 0x36568ABE EQ PUSH2 0x380 JUMPI DUP1 PUSH4 0x42920A46 EQ PUSH2 0x3A0 JUMPI DUP1 PUSH4 0x4C0F38C2 EQ PUSH2 0x3C0 JUMPI DUP1 PUSH4 0x5997BBEE EQ PUSH2 0x3D5 JUMPI PUSH1 0x0 DUP1 REVERT JUMPDEST DUP1 PUSH4 0x2904E6D9 EQ PUSH2 0x315 JUMPI DUP1 PUSH4 0x2C8A1926 EQ PUSH2 0x32A JUMPI DUP1 PUSH4 0x2EB4A7AB EQ PUSH2 0x34A JUMPI DUP1 PUSH4 0x2F2FF15D EQ PUSH2 0x360 JUMPI PUSH1 0x0 DUP1 REVERT JUMPDEST DUP1 PUSH4 0x1F5AC1B2 GT PUSH2 0x1AB JUMPI DUP1 PUSH4 0x1F5AC1B2 EQ PUSH2 0x26C JUMPI DUP1 PUSH4 0x238AC933 EQ PUSH2 0x28C JUMPI DUP1 PUSH4 0x248A9CA3 EQ PUSH2 0x2C4 JUMPI DUP1 PUSH4 0x27C25C20 EQ PUSH2 0x2F5 JUMPI PUSH1 0x0 DUP1 REVERT JUMPDEST DUP1 PUSH4 0x1FFC9A7 EQ PUSH2 0x1D2 JUMPI DUP1 PUSH4 0x11C67EFC EQ PUSH2 0x207 JUMPI DUP1 PUSH4 0x1B0D2D3B EQ PUSH2 0x228 JUMPI JUMPDEST PUSH1 0x0 DUP1 REVERT JUMPDEST CALLVALUE DUP1 ISZERO PUSH2 0x1DE JUMPI PUSH1 0x0 DUP1 REVERT JUMPDEST POP PUSH2 0x1F2 PUSH2 0x1ED CALLDATASIZE PUSH1 0x4 PUSH2 0x1748 JUMP JUMPDEST PUSH2 0x5F8 JUMP JUMPDEST PUSH1 0x40 MLOAD SWAP1 ISZERO ISZERO DUP2 MSTORE PUSH1 0x20 ADD JUMPDEST PUSH1 0x40 MLOAD DUP1 SWAP2 SUB SWAP1 RETURN JUMPDEST CALLVALUE DUP1 ISZERO PUSH2 0x213 JUMPI PUSH1 0x0 DUP1 REVERT JUMPDEST POP PUSH1 0x3 SLOAD PUSH2 0x1F2 SWAP1 PUSH1 0x1 PUSH1 0xA0 SHL SWAP1 DIV PUSH1 0xFF AND DUP2 JUMP JUMPDEST CALLVALUE DUP1 ISZERO PUSH2 0x234 JUMPI PUSH1 0x0 DUP1 REVERT JUMPDEST POP PUSH2 0x25E PUSH2 0x243 CALLDATASIZE PUSH1 0x4 PUSH2 0x1787 JUMP JUMPDEST PUSH1 0x1 PUSH1 0x1 PUSH1 0xA0 SHL SUB AND PUSH1 0x0 SWAP1 DUP2 MSTORE PUSH1 0x6 PUSH1 0x20 MSTORE PUSH1 0x40 SWAP1 KECCAK256 SLOAD SWAP1 JUMP JUMPDEST PUSH1 0x40 MLOAD SWAP1 DUP2 MSTORE PUSH1 0x20 ADD PUSH2 0x1FE JUMP JUMPDEST CALLVALUE DUP1 ISZERO PUSH2 0x278 JUMPI PUSH1 0x0 DUP1 REVERT JUMPDEST POP PUSH2 0x25E PUSH2 0x287 CALLDATASIZE PUSH1 0x4 PUSH2 0x1787 JUMP JUMPDEST PUSH2 0x62F JUMP JUMPDEST CALLVALUE DUP1 ISZERO PUSH2 0x298 JUMPI PUSH1 0x0 DUP1 REVERT JUMPDEST POP PUSH1 0x4 SLOAD PUSH2 0x2AC SWAP1 PUSH1 0x1 PUSH1 0x1 PUSH1 0xA0 SHL SUB AND DUP2 JUMP JUMPDEST PUSH1 0x40 MLOAD PUSH1 0x1 PUSH1 0x1 PUSH1 0xA0 SHL SUB SWAP1 SWAP2 AND DUP2 MSTORE PUSH1 0x20 ADD PUSH2 0x1FE JUMP JUMPDEST CALLVALUE DUP1 ISZERO PUSH2 0x2D0 JUMPI PUSH1 0x0 DUP1 REVERT JUMPDEST POP PUSH2 0x25E PUSH2 0x2DF CALLDATASIZE PUSH1 0x4 PUSH2 0x17A4 JUMP JUMPDEST PUSH1 0x0 SWAP1 DUP2 MSTORE PUSH1 0x1 PUSH1 0x20 DUP2 SWAP1 MSTORE PUSH1 0x40 SWAP1 SWAP2 KECCAK256 ADD SLOAD SWAP1 JUMP JUMPDEST CALLVALUE DUP1 ISZERO PUSH2 0x301 JUMPI PUSH1 0x0 DUP1 REVERT JUMPDEST POP PUSH1 0x3 SLOAD PUSH2 0x2AC SWAP1 PUSH1 0x1 PUSH1 0x1 PUSH1 0xA0 SHL SUB AND DUP2 JUMP JUMPDEST PUSH2 0x328 PUSH2 0x323 CALLDATASIZE PUSH1 0x4 PUSH2 0x17BD JUMP JUMPDEST PUSH2 0x679 JUMP JUMPDEST STOP JUMPDEST CALLVALUE DUP1 ISZERO PUSH2 0x336 JUMPI PUSH1 0x0 DUP1 REVERT JUMPDEST POP PUSH2 0x328 PUSH2 0x345 CALLDATASIZE PUSH1 0x4 PUSH2 0x1787 JUMP JUMPDEST PUSH2 0xA89 JUMP JUMPDEST CALLVALUE DUP1 ISZERO PUSH2 0x356 JUMPI PUSH1 0x0 DUP1 REVERT JUMPDEST POP PUSH2 0x25E PUSH1 0x0 SLOAD DUP2 JUMP JUMPDEST CALLVALUE DUP1 ISZERO PUSH2 0x36C JUMPI PUSH1 0x0 DUP1 REVERT JUMPDEST POP PUSH2 0x328 PUSH2 0x37B CALLDATASIZE PUSH1 0x4 PUSH2 0x1838 JUMP JUMPDEST PUSH2 0xAB7 JUMP JUMPDEST CALLVALUE DUP1 ISZERO PUSH2 0x38C JUMPI PUSH1 0x0 DUP1 REVERT JUMPDEST POP PUSH2 0x328 PUSH2 0x39B CALLDATASIZE PUSH1 0x4 PUSH2 0x1838 JUMP JUMPDEST PUSH2 0xAE2 JUMP JUMPDEST CALLVALUE DUP1 ISZERO PUSH2 0x3AC JUMPI PUSH1 0x0 DUP1 REVERT JUMPDEST POP PUSH2 0x1F2 PUSH2 0x3BB CALLDATASIZE PUSH1 0x4 PUSH2 0x190B JUMP JUMPDEST PUSH2 0xB60 JUMP JUMPDEST CALLVALUE DUP1 ISZERO PUSH2 0x3CC JUMPI PUSH1 0x0 DUP1 REVERT JUMPDEST POP PUSH2 0x25E PUSH2 0xBA3 JUMP JUMPDEST CALLVALUE DUP1 ISZERO PUSH2 0x3E1 JUMPI PUSH1 0x0 DUP1 REVERT JUMPDEST POP PUSH2 0x1F2 PUSH2 0x3F0 CALLDATASIZE PUSH1 0x4 PUSH2 0x1787 JUMP JUMPDEST PUSH1 0x1 PUSH1 0x1 PUSH1 0xA0 SHL SUB AND PUSH1 0x0 SWAP1 DUP2 MSTORE PUSH1 0x5 PUSH1 0x20 MSTORE PUSH1 0x40 SWAP1 KECCAK256 SLOAD PUSH1 0xFF AND SWAP1 JUMP JUMPDEST CALLVALUE DUP1 ISZERO PUSH2 0x41A JUMPI PUSH1 0x0 DUP1 REVERT JUMPDEST POP PUSH2 0x328 PUSH2 0x429 CALLDATASIZE PUSH1 0x4 PUSH2 0x1787 JUMP JUMPDEST PUSH2 0xC16 JUMP JUMPDEST CALLVALUE DUP1 ISZERO PUSH2 0x43A JUMPI PUSH1 0x0 DUP1 REVERT JUMPDEST POP PUSH2 0x328 PUSH2 0x449 CALLDATASIZE PUSH1 0x4 PUSH2 0x17A4 JUMP JUMPDEST PUSH2 0xC44 JUMP JUMPDEST CALLVALUE DUP1 ISZERO PUSH2 0x45A JUMPI PUSH1 0x0 DUP1 REVERT JUMPDEST POP PUSH2 0x328 PUSH2 0x469 CALLDATASIZE PUSH1 0x4 PUSH2 0x197B JUMP JUMPDEST PUSH2 0xC55 JUMP JUMPDEST CALLVALUE DUP1 ISZERO PUSH2 0x47A JUMPI PUSH1 0x0 DUP1 REVERT JUMPDEST POP PUSH2 0x1F2 PUSH2 0x489 CALLDATASIZE PUSH1 0x4 PUSH2 0x1838 JUMP JUMPDEST PUSH2 0xC7F JUMP JUMPDEST CALLVALUE DUP1 ISZERO PUSH2 0x49A JUMPI PUSH1 0x0 DUP1 REVERT JUMPDEST POP PUSH1 0x3 SLOAD PUSH2 0x1F2 SWAP1 PUSH1 0x1 PUSH1 0xA8 SHL SWAP1 DIV PUSH1 0xFF AND DUP2 JUMP JUMPDEST CALLVALUE DUP1 ISZERO PUSH2 0x4BB JUMPI PUSH1 0x0 DUP1 REVERT JUMPDEST POP PUSH2 0x2AC PUSH2 0x4CA CALLDATASIZE PUSH1 0x4 PUSH2 0x1998 JUMP JUMPDEST PUSH2 0xCAA JUMP JUMPDEST CALLVALUE DUP1 ISZERO PUSH2 0x4DB JUMPI PUSH1 0x0 DUP1 REVERT JUMPDEST POP PUSH2 0x25E PUSH1 0x0 DUP2 JUMP JUMPDEST CALLVALUE DUP1 ISZERO PUSH2 0x4F0 JUMPI PUSH1 0x0 DUP1 REVERT JUMPDEST POP PUSH2 0x504 PUSH2 0x4FF CALLDATASIZE PUSH1 0x4 PUSH2 0x19DF JUMP JUMPDEST PUSH2 0xD29 JUMP JUMPDEST PUSH1 0x40 DUP1 MLOAD SWAP4 DUP5 MSTORE PUSH1 0x20 DUP5 ADD SWAP3 SWAP1 SWAP3 MSTORE PUSH1 0xFF AND SWAP1 DUP3 ADD MSTORE PUSH1 0x60 ADD PUSH2 0x1FE JUMP JUMPDEST CALLVALUE DUP1 ISZERO PUSH2 0x52E JUMPI PUSH1 0x0 DUP1 REVERT JUMPDEST POP PUSH2 0x25E PUSH2 0xD9D JUMP JUMPDEST CALLVALUE DUP1 ISZERO PUSH2 0x543 JUMPI PUSH1 0x0 DUP1 REVERT JUMPDEST POP PUSH2 0x328 PUSH2 0x552 CALLDATASIZE PUSH1 0x4 PUSH2 0x1838 JUMP JUMPDEST PUSH2 0xDE7 JUMP JUMPDEST PUSH2 0x328 PUSH2 0x565 CALLDATASIZE PUSH1 0x4 PUSH2 0x1A14 JUMP JUMPDEST PUSH2 0xE0D JUMP JUMPDEST CALLVALUE DUP1 ISZERO PUSH2 0x576 JUMPI PUSH1 0x0 DUP1 REVERT JUMPDEST POP PUSH2 0x1F2 PUSH2 0x585 CALLDATASIZE PUSH1 0x4 PUSH2 0x1787 JUMP JUMPDEST PUSH1 0x1 PUSH1 0x1 PUSH1 0xA0 SHL SUB AND PUSH1 0x0 SWAP1 DUP2 MSTORE PUSH1 0x7 PUSH1 0x20 MSTORE PUSH1 0x40 SWAP1 KECCAK256 SLOAD PUSH1 0xFF AND SWAP1 JUMP JUMPDEST CALLVALUE DUP1 ISZERO PUSH2 0x5AF JUMPI PUSH1 0x0 DUP1 REVERT JUMPDEST POP PUSH2 0x25E PUSH2 0x5BE CALLDATASIZE PUSH1 0x4 PUSH2 0x17A4 JUMP JUMPDEST PUSH2 0x1268 JUMP JUMPDEST CALLVALUE DUP1 ISZERO PUSH2 0x5CF JUMPI PUSH1 0x0 DUP1 REVERT JUMPDEST POP PUSH2 0x328 PUSH2 0x5DE CALLDATASIZE PUSH1 0x4 PUSH2 0x197B JUMP JUMPDEST PUSH2 0x12A3 JUMP JUMPDEST CALLVALUE DUP1 ISZERO PUSH2 0x5EF JUMPI PUSH1 0x0 DUP1 REVERT JUMPDEST POP PUSH2 0x1F2 PUSH2 0x12CD JUMP JUMPDEST PUSH1 0x0 PUSH1 0x1 PUSH1 0x1 PUSH1 0xE0 SHL SUB NOT DUP3 AND PUSH4 0x7965DB0B PUSH1 0xE0 SHL EQ DUP1 PUSH2 0x629 JUMPI POP PUSH4 0x1FFC9A7 PUSH1 0xE0 SHL PUSH1 0x1 PUSH1 0x1 PUSH1 0xE0 SHL SUB NOT DUP4 AND EQ JUMPDEST SWAP3 SWAP2 POP POP JUMP JUMPDEST PUSH1 0x40 MLOAD PUSH12 0xFFFFFFFFFFFFFFFFFFFFFFFF NOT PUSH1 0x60 DUP4 DUP2 SHL DUP3 AND PUSH1 0x20 DUP5 ADD MSTORE ADDRESS SWAP1 SHL AND PUSH1 0x34 DUP3 ADD MSTORE PUSH1 0x0 SWAP1 PUSH1 0x48 ADD JUMPDEST PUSH1 0x40 MLOAD PUSH1 0x20 DUP2 DUP4 SUB SUB DUP2 MSTORE SWAP1 PUSH1 0x40 MSTORE DUP1 MLOAD SWAP1 PUSH1 0x20 ADD KECCAK256 SWAP1 POP SWAP2 SWAP1 POP JUMP JUMPDEST PUSH1 0x2 DUP1 SLOAD SUB PUSH2 0x6CF JUMPI PUSH1 0x40 MLOAD PUSH3 0x461BCD PUSH1 0xE5 SHL DUP2 MSTORE PUSH1 0x20 PUSH1 0x4 DUP3 ADD MSTORE PUSH1 0x1F PUSH1 0x24 DUP3 ADD MSTORE PUSH32 0x5265656E7472616E637947756172643A207265656E7472616E742063616C6C00 PUSH1 0x44 DUP3 ADD MSTORE PUSH1 0x64 ADD JUMPDEST PUSH1 0x40 MLOAD DUP1 SWAP2 SUB SWAP1 REVERT JUMPDEST PUSH1 0x2 DUP1 SSTORE PUSH2 0x6DB PUSH2 0x12CD JUMP JUMPDEST ISZERO PUSH2 0x71F JUMPI PUSH1 0x40 MLOAD PUSH3 0x461BCD PUSH1 0xE5 SHL DUP2 MSTORE PUSH1 0x20 PUSH1 0x4 DUP3 ADD MSTORE PUSH1 0x14 PUSH1 0x24 DUP3 ADD MSTORE PUSH20 0x2730B3B0A5B4B239903BB0B9902830BAB9B2B217 PUSH1 0x61 SHL PUSH1 0x44 DUP3 ADD MSTORE PUSH1 0x64 ADD PUSH2 0x6C6 JUMP JUMPDEST PUSH1 0x3 SLOAD PUSH1 0x1 PUSH1 0xA8 SHL SWAP1 DIV PUSH1 0xFF AND ISZERO ISZERO PUSH1 0x1 EQ PUSH2 0x77D JUMPI PUSH1 0x40 MLOAD PUSH3 0x461BCD PUSH1 0xE5 SHL DUP2 MSTORE PUSH1 0x20 PUSH1 0x4 DUP3 ADD MSTORE PUSH1 0x1B PUSH1 0x24 DUP3 ADD MSTORE PUSH32 0x57686974656C697374206E6F74206F70656E20746F206D696E742E0000000000 PUSH1 0x44 DUP3 ADD MSTORE PUSH1 0x64 ADD PUSH2 0x6C6 JUMP JUMPDEST PUSH2 0x457 DUP2 PUSH2 0x789 PUSH2 0xD9D JUMP JUMPDEST PUSH2 0x793 SWAP2 SWAP1 PUSH2 0x1A9C JUMP JUMPDEST LT PUSH2 0x7CE JUMPI PUSH1 0x40 MLOAD PUSH3 0x461BCD PUSH1 0xE5 SHL DUP2 MSTORE PUSH1 0x20 PUSH1 0x4 DUP3 ADD MSTORE PUSH1 0xB PUSH1 0x24 DUP3 ADD MSTORE PUSH11 0x4F76657220737570706C79 PUSH1 0xA8 SHL PUSH1 0x44 DUP3 ADD MSTORE PUSH1 0x64 ADD PUSH2 0x6C6 JUMP JUMPDEST CALLER PUSH1 0x0 SWAP1 DUP2 MSTORE PUSH1 0x5 PUSH1 0x20 MSTORE PUSH1 0x40 SWAP1 KECCAK256 SLOAD PUSH1 0xFF AND ISZERO ISZERO PUSH1 0x1 SUB PUSH2 0x82C JUMPI PUSH1 0x40 MLOAD PUSH3 0x461BCD PUSH1 0xE5 SHL DUP2 MSTORE PUSH1 0x20 PUSH1 0x4 DUP3 ADD MSTORE PUSH1 0x17 PUSH1 0x24 DUP3 ADD MSTORE PUSH23 0x2CB7BA9030B9329030B63932B0B23C9036B4B73A32B217 PUSH1 0x49 SHL PUSH1 0x44 DUP3 ADD MSTORE PUSH1 0x64 ADD PUSH2 0x6C6 JUMP JUMPDEST PUSH1 0x3 SLOAD PUSH1 0x40 DUP1 MLOAD PUSH4 0xD5391393 PUSH1 0xE0 SHL DUP2 MSTORE SWAP1 MLOAD PUSH1 0x1 PUSH1 0x1 PUSH1 0xA0 SHL SUB SWAP1 SWAP3 AND SWAP2 PUSH4 0x91D14854 SWAP2 DUP4 SWAP2 PUSH4 0xD5391393 SWAP2 PUSH1 0x4 DUP1 DUP3 ADD SWAP3 PUSH1 0x20 SWAP3 SWAP1 SWAP2 SWAP1 DUP3 SWAP1 SUB ADD DUP2 DUP7 GAS STATICCALL ISZERO DUP1 ISZERO PUSH2 0x87E JUMPI RETURNDATASIZE PUSH1 0x0 DUP1 RETURNDATACOPY RETURNDATASIZE PUSH1 0x0 REVERT JUMPDEST POP POP POP POP PUSH1 0x40 MLOAD RETURNDATASIZE PUSH1 0x1F NOT PUSH1 0x1F DUP3 ADD AND DUP3 ADD DUP1 PUSH1 0x40 MSTORE POP DUP2 ADD SWAP1 PUSH2 0x8A2 SWAP2 SWAP1 PUSH2 0x1AB4 JUMP JUMPDEST PUSH1 0x40 MLOAD PUSH1 0x1 PUSH1 0x1 PUSH1 0xE0 SHL SUB NOT PUSH1 0xE0 DUP5 SWAP1 SHL AND DUP2 MSTORE PUSH1 0x4 DUP2 ADD SWAP2 SWAP1 SWAP2 MSTORE ADDRESS PUSH1 0x24 DUP3 ADD MSTORE PUSH1 0x44 ADD PUSH1 0x20 PUSH1 0x40 MLOAD DUP1 DUP4 SUB DUP2 DUP7 GAS STATICCALL ISZERO DUP1 ISZERO PUSH2 0x8E4 JUMPI RETURNDATASIZE PUSH1 0x0 DUP1 RETURNDATACOPY RETURNDATASIZE PUSH1 0x0 REVERT JUMPDEST POP POP POP POP PUSH1 0x40 MLOAD RETURNDATASIZE PUSH1 0x1F NOT PUSH1 0x1F DUP3 ADD AND DUP3 ADD DUP1 PUSH1 0x40 MSTORE POP DUP2 ADD SWAP1 PUSH2 0x908 SWAP2 SWAP1 PUSH2 0x1ACD JUMP JUMPDEST ISZERO ISZERO PUSH1 0x1 EQ PUSH2 0x929 JUMPI PUSH1 0x40 MLOAD PUSH3 0x461BCD PUSH1 0xE5 SHL DUP2 MSTORE PUSH1 0x4 ADD PUSH2 0x6C6 SWAP1 PUSH2 0x1AEA JUMP JUMPDEST PUSH2 0x935 DUP4 DUP4 CALLER DUP5 PUSH2 0x14DE JUMP JUMPDEST PUSH2 0x98F JUMPI PUSH1 0x40 MLOAD PUSH3 0x461BCD PUSH1 0xE5 SHL DUP2 MSTORE PUSH1 0x20 PUSH1 0x4 DUP3 ADD MSTORE PUSH1 0x25 PUSH1 0x24 DUP3 ADD MSTORE PUSH32 0x556E617574686F72697A65642057686974656C6973744D696E74205468697320 PUSH1 0x44 DUP3 ADD MSTORE PUSH5 0x2AB9B2B917 PUSH1 0xD9 SHL PUSH1 0x64 DUP3 ADD MSTORE PUSH1 0x84 ADD PUSH2 0x6C6 JUMP JUMPDEST CALLER PUSH1 0x0 SWAP1 DUP2 MSTORE PUSH1 0x5 PUSH1 0x20 SWAP1 DUP2 MSTORE PUSH1 0x40 DUP1 DUP4 KECCAK256 DUP1 SLOAD PUSH1 0xFF NOT AND PUSH1 0x1 OR SWAP1 SSTORE PUSH1 0x6 SWAP1 SWAP2 MSTORE DUP2 KECCAK256 DUP1 SLOAD DUP4 SWAP3 SWAP1 PUSH2 0x9C3 SWAP1 DUP5 SWAP1 PUSH2 0x1A9C JUMP JUMPDEST SWAP1 SWAP2 SSTORE POP PUSH1 0x0 SWAP1 POP JUMPDEST DUP2 DUP2 LT ISZERO PUSH2 0xA44 JUMPI PUSH1 0x3 SLOAD PUSH1 0x40 MLOAD PUSH4 0x40D097C3 PUSH1 0xE0 SHL DUP2 MSTORE CALLER PUSH1 0x4 DUP3 ADD MSTORE PUSH1 0x1 PUSH1 0x1 PUSH1 0xA0 SHL SUB SWAP1 SWAP2 AND SWAP1 PUSH4 0x40D097C3 SWAP1 PUSH1 0x24 ADD PUSH1 0x0 PUSH1 0x40 MLOAD DUP1 DUP4 SUB DUP2 PUSH1 0x0 DUP8 DUP1 EXTCODESIZE ISZERO DUP1 ISZERO PUSH2 0xA19 JUMPI PUSH1 0x0 DUP1 REVERT JUMPDEST POP GAS CALL ISZERO DUP1 ISZERO PUSH2 0xA2D JUMPI RETURNDATASIZE PUSH1 0x0 DUP1 RETURNDATACOPY RETURNDATASIZE PUSH1 0x0 REVERT JUMPDEST POP POP POP POP DUP1 DUP1 PUSH2 0xA3C SWAP1 PUSH2 0x1B34 JUMP JUMPDEST SWAP2 POP POP PUSH2 0x9CC JUMP JUMPDEST POP PUSH1 0x40 DUP1 MLOAD DUP3 DUP2 MSTORE TIMESTAMP PUSH1 0x20 DUP3 ADD MSTORE CALLER SWAP2 PUSH32 0xB7DF065473D5CF63EF5CF9190DBD326EA5E6FBFE4A0971F4920E430BBFD5A938 SWAP2 ADD PUSH1 0x40 MLOAD DUP1 SWAP2 SUB SWAP1 LOG2 POP POP PUSH1 0x1 PUSH1 0x2 SSTORE POP JUMP JUMPDEST PUSH1 0x0 PUSH2 0xA94 DUP2 PUSH2 0x157B JUMP JUMPDEST POP PUSH1 0x3 DUP1 SLOAD PUSH1 0x1 PUSH1 0x1 PUSH1 0xA0 SHL SUB NOT AND PUSH1 0x1 PUSH1 0x1 PUSH1 0xA0 SHL SUB SWAP3 SWAP1 SWAP3 AND SWAP2 SWAP1 SWAP2 OR SWAP1 SSTORE JUMP JUMPDEST PUSH1 0x0 DUP3 DUP2 MSTORE PUSH1 0x1 PUSH1 0x20 DUP2 SWAP1 MSTORE PUSH1 0x40 SWAP1 SWAP2 KECCAK256 ADD SLOAD PUSH2 0xAD3 DUP2 PUSH2 0x157B JUMP JUMPDEST PUSH2 0xADD DUP4 DUP4 PUSH2 0x1588 JUMP JUMPDEST POP POP POP JUMP JUMPDEST PUSH1 0x1 PUSH1 0x1 PUSH1 0xA0 SHL SUB DUP2 AND CALLER EQ PUSH2 0xB52 JUMPI PUSH1 0x40 MLOAD PUSH3 0x461BCD PUSH1 0xE5 SHL DUP2 MSTORE PUSH1 0x20 PUSH1 0x4 DUP3 ADD MSTORE PUSH1 0x2F PUSH1 0x24 DUP3 ADD MSTORE PUSH32 0x416363657373436F6E74726F6C3A2063616E206F6E6C792072656E6F756E6365 PUSH1 0x44 DUP3 ADD MSTORE PUSH15 0x103937B632B9903337B91039B2B633 PUSH1 0x89 SHL PUSH1 0x64 DUP3 ADD MSTORE PUSH1 0x84 ADD PUSH2 0x6C6 JUMP JUMPDEST PUSH2 0xB5C DUP3 DUP3 PUSH2 0x15F3 JUMP JUMPDEST POP POP JUMP JUMPDEST PUSH1 0x0 DUP1 PUSH2 0xB6C DUP5 PUSH2 0x62F JUMP JUMPDEST SWAP1 POP PUSH1 0x0 PUSH2 0xB79 DUP3 PUSH2 0x1268 JUMP JUMPDEST SWAP1 POP DUP6 PUSH1 0x1 PUSH1 0x1 PUSH1 0xA0 SHL SUB AND PUSH2 0xB8F DUP3 DUP7 PUSH2 0xCAA JUMP JUMPDEST PUSH1 0x1 PUSH1 0x1 PUSH1 0xA0 SHL SUB AND EQ SWAP7 SWAP6 POP POP POP POP POP POP JUMP JUMPDEST PUSH1 0x3 SLOAD PUSH1 0x40 DUP1 MLOAD PUSH4 0xD5ABEB01 PUSH1 0xE0 SHL DUP2 MSTORE SWAP1 MLOAD PUSH1 0x0 SWAP3 PUSH1 0x1 PUSH1 0x1 PUSH1 0xA0 SHL SUB AND SWAP2 PUSH4 0xD5ABEB01 SWAP2 PUSH1 0x4 DUP1 DUP4 ADD SWAP3 PUSH1 0x20 SWAP3 SWAP2 SWAP1 DUP3 SWAP1 SUB ADD DUP2 DUP7 GAS STATICCALL ISZERO DUP1 ISZERO PUSH2 0xBED JUMPI RETURNDATASIZE PUSH1 0x0 DUP1 RETURNDATACOPY RETURNDATASIZE PUSH1 0x0 REVERT JUMPDEST POP POP POP POP PUSH1 0x40 MLOAD RETURNDATASIZE PUSH1 0x1F NOT PUSH1 0x1F DUP3 ADD AND DUP3 ADD DUP1 PUSH1 0x40 MSTORE POP DUP2 ADD SWAP1 PUSH2 0xC11 SWAP2 SWAP1 PUSH2 0x1AB4 JUMP JUMPDEST SWAP1 POP SWAP1 JUMP JUMPDEST PUSH1 0x0 PUSH2 0xC21 DUP2 PUSH2 0x157B JUMP JUMPDEST POP PUSH1 0x4 DUP1 SLOAD PUSH1 0x1 PUSH1 0x1 PUSH1 0xA0 SHL SUB NOT AND PUSH1 0x1 PUSH1 0x1 PUSH1 0xA0 SHL SUB SWAP3 SWAP1 SWAP3 AND SWAP2 SWAP1 SWAP2 OR SWAP1 SSTORE JUMP JUMPDEST PUSH1 0x0 PUSH2 0xC4F DUP2 PUSH2 0x157B JUMP JUMPDEST POP PUSH1 0x0 SSTORE JUMP JUMPDEST PUSH1 0x0 PUSH2 0xC60 DUP2 PUSH2 0x157B JUMP JUMPDEST POP PUSH1 0x3 DUP1 SLOAD SWAP2 ISZERO ISZERO PUSH1 0x1 PUSH1 0xA0 SHL MUL PUSH1 0xFF PUSH1 0xA0 SHL NOT SWAP1 SWAP3 AND SWAP2 SWAP1 SWAP2 OR SWAP1 SSTORE JUMP JUMPDEST PUSH1 0x0 SWAP2 DUP3 MSTORE PUSH1 0x1 PUSH1 0x20 SWAP1 DUP2 MSTORE PUSH1 0x40 DUP1 DUP5 KECCAK256 PUSH1 0x1 PUSH1 0x1 PUSH1 0xA0 SHL SUB SWAP4 SWAP1 SWAP4 AND DUP5 MSTORE SWAP2 SWAP1 MSTORE SWAP1 KECCAK256 SLOAD PUSH1 0xFF AND SWAP1 JUMP JUMPDEST PUSH1 0x0 DUP1 PUSH1 0x0 DUP1 PUSH2 0xCB9 DUP6 PUSH2 0xD29 JUMP JUMPDEST PUSH1 0x40 DUP1 MLOAD PUSH1 0x0 DUP2 MSTORE PUSH1 0x20 DUP2 ADD DUP1 DUP4 MSTORE DUP12 SWAP1 MSTORE PUSH1 0xFF DUP4 AND SWAP2 DUP2 ADD SWAP2 SWAP1 SWAP2 MSTORE PUSH1 0x60 DUP2 ADD DUP5 SWAP1 MSTORE PUSH1 0x80 DUP2 ADD DUP4 SWAP1 MSTORE SWAP3 SWAP6 POP SWAP1 SWAP4 POP SWAP2 POP PUSH1 0x1 SWAP1 PUSH1 0xA0 ADD PUSH1 0x20 PUSH1 0x40 MLOAD PUSH1 0x20 DUP2 SUB SWAP1 DUP1 DUP5 SUB SWAP1 DUP6 GAS STATICCALL ISZERO DUP1 ISZERO PUSH2 0xD14 JUMPI RETURNDATASIZE PUSH1 0x0 DUP1 RETURNDATACOPY RETURNDATASIZE PUSH1 0x0 REVERT JUMPDEST POP POP PUSH1 0x40 MLOAD PUSH1 0x1F NOT ADD MLOAD SWAP8 SWAP7 POP POP POP POP POP POP POP JUMP JUMPDEST PUSH1 0x0 DUP1 PUSH1 0x0 DUP4 MLOAD PUSH1 0x41 EQ PUSH2 0xD7F JUMPI PUSH1 0x40 MLOAD PUSH3 0x461BCD PUSH1 0xE5 SHL DUP2 MSTORE PUSH1 0x20 PUSH1 0x4 DUP3 ADD MSTORE PUSH1 0x18 PUSH1 0x24 DUP3 ADD MSTORE PUSH32 0x696E76616C6964207369676E6174757265206C656E6774680000000000000000 PUSH1 0x44 DUP3 ADD MSTORE PUSH1 0x64 ADD PUSH2 0x6C6 JUMP JUMPDEST POP POP POP PUSH1 0x20 DUP2 ADD MLOAD PUSH1 0x40 DUP3 ADD MLOAD PUSH1 0x60 SWAP1 SWAP3 ADD MLOAD SWAP1 SWAP3 PUSH1 0x0 SWAP2 SWAP1 SWAP2 BYTE SWAP1 JUMP JUMPDEST PUSH1 0x3 SLOAD PUSH1 0x40 DUP1 MLOAD PUSH4 0x18160DDD PUSH1 0xE0 SHL DUP2 MSTORE SWAP1 MLOAD PUSH1 0x0 SWAP3 PUSH1 0x1 PUSH1 0x1 PUSH1 0xA0 SHL SUB AND SWAP2 PUSH4 0x18160DDD SWAP2 PUSH1 0x4 DUP1 DUP4 ADD SWAP3 PUSH1 0x20 SWAP3 SWAP2 SWAP1 DUP3 SWAP1 SUB ADD DUP2 DUP7 GAS STATICCALL ISZERO DUP1 ISZERO PUSH2 0xBED JUMPI RETURNDATASIZE PUSH1 0x0 DUP1 RETURNDATACOPY RETURNDATASIZE PUSH1 0x0 REVERT JUMPDEST PUSH1 0x0 DUP3 DUP2 MSTORE PUSH1 0x1 PUSH1 0x20 DUP2 SWAP1 MSTORE PUSH1 0x40 SWAP1 SWAP2 KECCAK256 ADD SLOAD PUSH2 0xE03 DUP2 PUSH2 0x157B JUMP JUMPDEST PUSH2 0xADD DUP4 DUP4 PUSH2 0x15F3 JUMP JUMPDEST PUSH1 0x2 DUP1 SLOAD SUB PUSH2 0xE5E JUMPI PUSH1 0x40 MLOAD PUSH3 0x461BCD PUSH1 0xE5 SHL DUP2 MSTORE PUSH1 0x20 PUSH1 0x4 DUP3 ADD MSTORE PUSH1 0x1F PUSH1 0x24 DUP3 ADD MSTORE PUSH32 0x5265656E7472616E637947756172643A207265656E7472616E742063616C6C00 PUSH1 0x44 DUP3 ADD MSTORE PUSH1 0x64 ADD PUSH2 0x6C6 JUMP JUMPDEST PUSH1 0x2 DUP1 SSTORE PUSH2 0xE6A PUSH2 0x12CD JUMP JUMPDEST ISZERO PUSH2 0xEAE JUMPI PUSH1 0x40 MLOAD PUSH3 0x461BCD PUSH1 0xE5 SHL DUP2 MSTORE PUSH1 0x20 PUSH1 0x4 DUP3 ADD MSTORE PUSH1 0x14 PUSH1 0x24 DUP3 ADD MSTORE PUSH20 0x2730B3B0A5B4B239903BB0B9902830BAB9B2B217 PUSH1 0x61 SHL PUSH1 0x44 DUP3 ADD MSTORE PUSH1 0x64 ADD PUSH2 0x6C6 JUMP JUMPDEST PUSH1 0x3 SLOAD PUSH1 0x1 PUSH1 0xA0 SHL SWAP1 DIV PUSH1 0xFF AND ISZERO ISZERO PUSH1 0x1 EQ PUSH2 0xF0C JUMPI PUSH1 0x40 MLOAD PUSH3 0x461BCD PUSH1 0xE5 SHL DUP2 MSTORE PUSH1 0x20 PUSH1 0x4 DUP3 ADD MSTORE PUSH1 0x1B PUSH1 0x24 DUP3 ADD MSTORE PUSH32 0x57686974656C697374206E6F74206F70656E20746F206D696E742E0000000000 PUSH1 0x44 DUP3 ADD MSTORE PUSH1 0x64 ADD PUSH2 0x6C6 JUMP JUMPDEST ORIGIN CALLER EQ PUSH2 0xF5B JUMPI PUSH1 0x40 MLOAD PUSH3 0x461BCD PUSH1 0xE5 SHL DUP2 MSTORE PUSH1 0x20 PUSH1 0x4 DUP3 ADD MSTORE PUSH1 0x1B PUSH1 0x24 DUP3 ADD MSTORE PUSH32 0x6861686120436F6E74726163742063616E27742063616C6C206D650000000000 PUSH1 0x44 DUP3 ADD MSTORE PUSH1 0x64 ADD PUSH2 0x6C6 JUMP JUMPDEST CALLER PUSH1 0x0 SWAP1 DUP2 MSTORE PUSH1 0x7 PUSH1 0x20 MSTORE PUSH1 0x40 SWAP1 KECCAK256 SLOAD PUSH1 0xFF AND ISZERO ISZERO PUSH1 0x1 SUB PUSH2 0xFB9 JUMPI PUSH1 0x40 MLOAD PUSH3 0x461BCD PUSH1 0xE5 SHL DUP2 MSTORE PUSH1 0x20 PUSH1 0x4 DUP3 ADD MSTORE PUSH1 0x17 PUSH1 0x24 DUP3 ADD MSTORE PUSH23 0x2CB7BA9030B9329030B63932B0B23C9036B4B73A32B217 PUSH1 0x49 SHL PUSH1 0x44 DUP3 ADD MSTORE PUSH1 0x64 ADD PUSH2 0x6C6 JUMP JUMPDEST PUSH2 0x457 PUSH2 0xFC4 PUSH2 0xD9D JUMP JUMPDEST PUSH2 0xFCF SWAP1 PUSH1 0x1 PUSH2 0x1A9C JUMP JUMPDEST LT PUSH2 0x1011 JUMPI PUSH1 0x40 MLOAD PUSH3 0x461BCD PUSH1 0xE5 SHL DUP2 MSTORE PUSH1 0x20 PUSH1 0x4 DUP3 ADD MSTORE PUSH1 0x12 PUSH1 0x24 DUP3 ADD MSTORE PUSH18 0x13DD995C8814DD5C1C1B1E48105B5BDD5B9D PUSH1 0x72 SHL PUSH1 0x44 DUP3 ADD MSTORE PUSH1 0x64 ADD PUSH2 0x6C6 JUMP JUMPDEST PUSH1 0x3 SLOAD PUSH1 0x40 DUP1 MLOAD PUSH4 0xD5391393 PUSH1 0xE0 SHL DUP2 MSTORE SWAP1 MLOAD PUSH1 0x1 PUSH1 0x1 PUSH1 0xA0 SHL SUB SWAP1 SWAP3 AND SWAP2 PUSH4 0x91D14854 SWAP2 DUP4 SWAP2 PUSH4 0xD5391393 SWAP2 PUSH1 0x4 DUP1 DUP3 ADD SWAP3 PUSH1 0x20 SWAP3 SWAP1 SWAP2 SWAP1 DUP3 SWAP1 SUB ADD DUP2 DUP7 GAS STATICCALL ISZERO DUP1 ISZERO PUSH2 0x1063 JUMPI RETURNDATASIZE PUSH1 0x0 DUP1 RETURNDATACOPY RETURNDATASIZE PUSH1 0x0 REVERT JUMPDEST POP POP POP POP PUSH1 0x40 MLOAD RETURNDATASIZE PUSH1 0x1F NOT PUSH1 0x1F DUP3 ADD AND DUP3 ADD DUP1 PUSH1 0x40 MSTORE POP DUP2 ADD SWAP1 PUSH2 0x1087 SWAP2 SWAP1 PUSH2 0x1AB4 JUMP JUMPDEST PUSH1 0x40 MLOAD PUSH1 0x1 PUSH1 0x1 PUSH1 0xE0 SHL SUB NOT PUSH1 0xE0 DUP5 SWAP1 SHL AND DUP2 MSTORE PUSH1 0x4 DUP2 ADD SWAP2 SWAP1 SWAP2 MSTORE ADDRESS PUSH1 0x24 DUP3 ADD MSTORE PUSH1 0x44 ADD PUSH1 0x20 PUSH1 0x40 MLOAD DUP1 DUP4 SUB DUP2 DUP7 GAS STATICCALL ISZERO DUP1 ISZERO PUSH2 0x10C9 JUMPI RETURNDATASIZE PUSH1 0x0 DUP1 RETURNDATACOPY RETURNDATASIZE PUSH1 0x0 REVERT JUMPDEST POP POP POP POP PUSH1 0x40 MLOAD RETURNDATASIZE PUSH1 0x1F NOT PUSH1 0x1F DUP3 ADD AND DUP3 ADD DUP1 PUSH1 0x40 MSTORE POP DUP2 ADD SWAP1 PUSH2 0x10ED SWAP2 SWAP1 PUSH2 0x1ACD JUMP JUMPDEST ISZERO ISZERO PUSH1 0x1 EQ PUSH2 0x110E JUMPI PUSH1 0x40 MLOAD PUSH3 0x461BCD PUSH1 0xE5 SHL DUP2 MSTORE PUSH1 0x4 ADD PUSH2 0x6C6 SWAP1 PUSH2 0x1AEA JUMP JUMPDEST PUSH1 0x4 SLOAD PUSH1 0x40 DUP1 MLOAD PUSH1 0x20 PUSH1 0x1F DUP6 ADD DUP2 SWAP1 DIV DUP2 MUL DUP3 ADD DUP2 ADD SWAP1 SWAP3 MSTORE DUP4 DUP2 MSTORE PUSH2 0x115B SWAP3 PUSH1 0x1 PUSH1 0x1 PUSH1 0xA0 SHL SUB AND SWAP2 CALLER SWAP2 SWAP1 DUP7 SWAP1 DUP7 SWAP1 DUP2 SWAP1 DUP5 ADD DUP4 DUP3 DUP1 DUP3 DUP5 CALLDATACOPY PUSH1 0x0 SWAP3 ADD SWAP2 SWAP1 SWAP2 MSTORE POP PUSH2 0xB60 SWAP3 POP POP POP JUMP JUMPDEST PUSH2 0x11B2 JUMPI PUSH1 0x40 MLOAD PUSH3 0x461BCD PUSH1 0xE5 SHL DUP2 MSTORE PUSH1 0x20 PUSH1 0x4 DUP3 ADD MSTORE PUSH1 0x22 PUSH1 0x24 DUP3 ADD MSTORE PUSH32 0x556E617574686F72697A6564205075626C69634D696E74205468697320557365 PUSH1 0x44 DUP3 ADD MSTORE PUSH2 0x3917 PUSH1 0xF1 SHL PUSH1 0x64 DUP3 ADD MSTORE PUSH1 0x84 ADD PUSH2 0x6C6 JUMP JUMPDEST CALLER PUSH1 0x0 DUP2 DUP2 MSTORE PUSH1 0x7 PUSH1 0x20 MSTORE PUSH1 0x40 SWAP1 DUP2 SWAP1 KECCAK256 DUP1 SLOAD PUSH1 0xFF NOT AND PUSH1 0x1 OR SWAP1 SSTORE PUSH1 0x3 SLOAD SWAP1 MLOAD PUSH4 0x40D097C3 PUSH1 0xE0 SHL DUP2 MSTORE PUSH1 0x4 DUP2 ADD SWAP3 SWAP1 SWAP3 MSTORE PUSH1 0x1 PUSH1 0x1 PUSH1 0xA0 SHL SUB AND SWAP1 PUSH4 0x40D097C3 SWAP1 PUSH1 0x24 ADD PUSH1 0x0 PUSH1 0x40 MLOAD DUP1 DUP4 SUB DUP2 PUSH1 0x0 DUP8 DUP1 EXTCODESIZE ISZERO DUP1 ISZERO PUSH2 0x1212 JUMPI PUSH1 0x0 DUP1 REVERT JUMPDEST POP GAS CALL ISZERO DUP1 ISZERO PUSH2 0x1226 JUMPI RETURNDATASIZE PUSH1 0x0 DUP1 RETURNDATACOPY RETURNDATASIZE PUSH1 0x0 REVERT JUMPDEST POP POP PUSH1 0x40 MLOAD TIMESTAMP DUP2 MSTORE CALLER SWAP3 POP PUSH32 0xAB9980FB1D2916BCE9017EDD1BE458E3F56D0899B3367CB3A8BE97483FBE069B SWAP2 POP PUSH1 0x20 ADD PUSH1 0x40 MLOAD DUP1 SWAP2 SUB SWAP1 LOG2 POP POP PUSH1 0x1 PUSH1 0x2 SSTORE JUMP JUMPDEST PUSH1 0x40 MLOAD PUSH32 0x19457468657265756D205369676E6564204D6573736167653A0A333200000000 PUSH1 0x20 DUP3 ADD MSTORE PUSH1 0x3C DUP2 ADD DUP3 SWAP1 MSTORE PUSH1 0x0 SWAP1 PUSH1 0x5C ADD PUSH2 0x65C JUMP JUMPDEST PUSH1 0x0 PUSH2 0x12AE DUP2 PUSH2 0x157B JUMP JUMPDEST POP PUSH1 0x3 DUP1 SLOAD SWAP2 ISZERO ISZERO PUSH1 0x1 PUSH1 0xA8 SHL MUL PUSH1 0xFF PUSH1 0xA8 SHL NOT SWAP1 SWAP3 AND SWAP2 SWAP1 SWAP2 OR SWAP1 SSTORE JUMP JUMPDEST PUSH1 0x3 SLOAD PUSH1 0x40 DUP1 MLOAD PUSH4 0x5C975ABB PUSH1 0xE0 SHL DUP2 MSTORE SWAP1 MLOAD PUSH1 0x0 SWAP3 PUSH1 0x1 PUSH1 0x1 PUSH1 0xA0 SHL SUB AND SWAP2 PUSH4 0x5C975ABB SWAP2 PUSH1 0x4 DUP1 DUP4 ADD SWAP3 PUSH1 0x20 SWAP3 SWAP2 SWAP1 DUP3 SWAP1 SUB ADD DUP2 DUP7 GAS STATICCALL ISZERO DUP1 ISZERO PUSH2 0x1317 JUMPI RETURNDATASIZE PUSH1 0x0 DUP1 RETURNDATACOPY RETURNDATASIZE PUSH1 0x0 REVERT JUMPDEST POP POP POP POP PUSH1 0x40 MLOAD RETURNDATASIZE PUSH1 0x1F NOT PUSH1 0x1F DUP3 ADD AND DUP3 ADD DUP1 PUSH1 0x40 MSTORE POP DUP2 ADD SWAP1 PUSH2 0xC11 SWAP2 SWAP1 PUSH2 0x1ACD JUMP JUMPDEST PUSH1 0x60 PUSH1 0x0 PUSH2 0x134A DUP4 PUSH1 0x2 PUSH2 0x1B4D JUMP JUMPDEST PUSH2 0x1355 SWAP1 PUSH1 0x2 PUSH2 0x1A9C JUMP JUMPDEST PUSH8 0xFFFFFFFFFFFFFFFF DUP2 GT ISZERO PUSH2 0x136D JUMPI PUSH2 0x136D PUSH2 0x1868 JUMP JUMPDEST PUSH1 0x40 MLOAD SWAP1 DUP1 DUP3 MSTORE DUP1 PUSH1 0x1F ADD PUSH1 0x1F NOT AND PUSH1 0x20 ADD DUP3 ADD PUSH1 0x40 MSTORE DUP1 ISZERO PUSH2 0x1397 JUMPI PUSH1 0x20 DUP3 ADD DUP2 DUP1 CALLDATASIZE DUP4 CALLDATACOPY ADD SWAP1 POP JUMPDEST POP SWAP1 POP PUSH1 0x3 PUSH1 0xFC SHL DUP2 PUSH1 0x0 DUP2 MLOAD DUP2 LT PUSH2 0x13B2 JUMPI PUSH2 0x13B2 PUSH2 0x1B6C JUMP JUMPDEST PUSH1 0x20 ADD ADD SWAP1 PUSH1 0x1 PUSH1 0x1 PUSH1 0xF8 SHL SUB NOT AND SWAP1 DUP2 PUSH1 0x0 BYTE SWAP1 MSTORE8 POP PUSH1 0xF PUSH1 0xFB SHL DUP2 PUSH1 0x1 DUP2 MLOAD DUP2 LT PUSH2 0x13E1 JUMPI PUSH2 0x13E1 PUSH2 0x1B6C JUMP JUMPDEST PUSH1 0x20 ADD ADD SWAP1 PUSH1 0x1 PUSH1 0x1 PUSH1 0xF8 SHL SUB NOT AND SWAP1 DUP2 PUSH1 0x0 BYTE SWAP1 MSTORE8 POP PUSH1 0x0 PUSH2 0x1405 DUP5 PUSH1 0x2 PUSH2 0x1B4D JUMP JUMPDEST PUSH2 0x1410 SWAP1 PUSH1 0x1 PUSH2 0x1A9C JUMP JUMPDEST SWAP1 POP JUMPDEST PUSH1 0x1 DUP2 GT ISZERO PUSH2 0x1488 JUMPI PUSH16 0x181899199A1A9B1B9C1CB0B131B232B3 PUSH1 0x81 SHL DUP6 PUSH1 0xF AND PUSH1 0x10 DUP2 LT PUSH2 0x1444 JUMPI PUSH2 0x1444 PUSH2 0x1B6C JUMP JUMPDEST BYTE PUSH1 0xF8 SHL DUP3 DUP3 DUP2 MLOAD DUP2 LT PUSH2 0x145A JUMPI PUSH2 0x145A PUSH2 0x1B6C JUMP JUMPDEST PUSH1 0x20 ADD ADD SWAP1 PUSH1 0x1 PUSH1 0x1 PUSH1 0xF8 SHL SUB NOT AND SWAP1 DUP2 PUSH1 0x0 BYTE SWAP1 MSTORE8 POP PUSH1 0x4 SWAP5 SWAP1 SWAP5 SHR SWAP4 PUSH2 0x1481 DUP2 PUSH2 0x1B82 JUMP JUMPDEST SWAP1 POP PUSH2 0x1413 JUMP JUMPDEST POP DUP4 ISZERO PUSH2 0x14D7 JUMPI PUSH1 0x40 MLOAD PUSH3 0x461BCD PUSH1 0xE5 SHL DUP2 MSTORE PUSH1 0x20 PUSH1 0x4 DUP3 ADD DUP2 SWAP1 MSTORE PUSH1 0x24 DUP3 ADD MSTORE PUSH32 0x537472696E67733A20686578206C656E67746820696E73756666696369656E74 PUSH1 0x44 DUP3 ADD MSTORE PUSH1 0x64 ADD PUSH2 0x6C6 JUMP JUMPDEST SWAP4 SWAP3 POP POP POP JUMP JUMPDEST PUSH1 0x0 DUP1 SLOAD DUP2 SUB PUSH2 0x14F0 JUMPI POP PUSH1 0x0 PUSH2 0x1573 JUMP JUMPDEST PUSH2 0x1570 DUP6 DUP6 DUP1 DUP1 PUSH1 0x20 MUL PUSH1 0x20 ADD PUSH1 0x40 MLOAD SWAP1 DUP2 ADD PUSH1 0x40 MSTORE DUP1 SWAP4 SWAP3 SWAP2 SWAP1 DUP2 DUP2 MSTORE PUSH1 0x20 ADD DUP4 DUP4 PUSH1 0x20 MUL DUP1 DUP3 DUP5 CALLDATACOPY PUSH1 0x0 SWAP3 ADD DUP3 SWAP1 MSTORE POP SLOAD PUSH1 0x40 MLOAD PUSH12 0xFFFFFFFFFFFFFFFFFFFFFFFF NOT PUSH1 0x60 DUP12 SWAP1 SHL AND PUSH1 0x20 DUP3 ADD MSTORE PUSH1 0x34 DUP2 ADD DUP10 SWAP1 MSTORE SWAP1 SWAP4 POP PUSH1 0x54 ADD SWAP2 POP PUSH2 0x1555 SWAP1 POP JUMP JUMPDEST PUSH1 0x40 MLOAD PUSH1 0x20 DUP2 DUP4 SUB SUB DUP2 MSTORE SWAP1 PUSH1 0x40 MSTORE DUP1 MLOAD SWAP1 PUSH1 0x20 ADD KECCAK256 PUSH2 0x165A JUMP JUMPDEST SWAP1 POP JUMPDEST SWAP5 SWAP4 POP POP POP POP JUMP JUMPDEST PUSH2 0x1585 DUP2 CALLER PUSH2 0x1670 JUMP JUMPDEST POP JUMP JUMPDEST PUSH2 0x1592 DUP3 DUP3 PUSH2 0xC7F JUMP JUMPDEST PUSH2 0xB5C JUMPI PUSH1 0x0 DUP3 DUP2 MSTORE PUSH1 0x1 PUSH1 0x20 DUP2 DUP2 MSTORE PUSH1 0x40 DUP1 DUP5 KECCAK256 PUSH1 0x1 PUSH1 0x1 PUSH1 0xA0 SHL SUB DUP7 AND DUP1 DUP7 MSTORE SWAP3 MSTORE DUP1 DUP5 KECCAK256 DUP1 SLOAD PUSH1 0xFF NOT AND SWAP1 SWAP4 OR SWAP1 SWAP3 SSTORE SWAP1 MLOAD CALLER SWAP3 DUP6 SWAP2 PUSH32 0x2F8788117E7EFF1D82E926EC794901D17C78024A50270940304540A733656F0D SWAP2 SWAP1 LOG4 POP POP JUMP JUMPDEST PUSH2 0x15FD DUP3 DUP3 PUSH2 0xC7F JUMP JUMPDEST ISZERO PUSH2 0xB5C JUMPI PUSH1 0x0 DUP3 DUP2 MSTORE PUSH1 0x1 PUSH1 0x20 SWAP1 DUP2 MSTORE PUSH1 0x40 DUP1 DUP4 KECCAK256 PUSH1 0x1 PUSH1 0x1 PUSH1 0xA0 SHL SUB DUP6 AND DUP1 DUP6 MSTORE SWAP3 MSTORE DUP1 DUP4 KECCAK256 DUP1 SLOAD PUSH1 0xFF NOT AND SWAP1 SSTORE MLOAD CALLER SWAP3 DUP6 SWAP2 PUSH32 0xF6391F5C32D9C69D2A47EA670B442974B53935D1EDC7FD64EB21E047A839171B SWAP2 SWAP1 LOG4 POP POP JUMP JUMPDEST PUSH1 0x0 DUP3 PUSH2 0x1667 DUP6 DUP5 PUSH2 0x16D4 JUMP JUMPDEST EQ SWAP5 SWAP4 POP POP POP POP JUMP JUMPDEST PUSH2 0x167A DUP3 DUP3 PUSH2 0xC7F JUMP JUMPDEST PUSH2 0xB5C JUMPI PUSH2 0x1692 DUP2 PUSH1 0x1 PUSH1 0x1 PUSH1 0xA0 SHL SUB AND PUSH1 0x14 PUSH2 0x133B JUMP JUMPDEST PUSH2 0x169D DUP4 PUSH1 0x20 PUSH2 0x133B JUMP JUMPDEST PUSH1 0x40 MLOAD PUSH1 0x20 ADD PUSH2 0x16AE SWAP3 SWAP2 SWAP1 PUSH2 0x1BC9 JUMP JUMPDEST PUSH1 0x40 DUP1 MLOAD PUSH1 0x1F NOT DUP2 DUP5 SUB ADD DUP2 MSTORE SWAP1 DUP3 SWAP1 MSTORE PUSH3 0x461BCD PUSH1 0xE5 SHL DUP3 MSTORE PUSH2 0x6C6 SWAP2 PUSH1 0x4 ADD PUSH2 0x1C3E JUMP JUMPDEST PUSH1 0x0 DUP2 DUP2 JUMPDEST DUP5 MLOAD DUP2 LT ISZERO PUSH2 0x1740 JUMPI PUSH1 0x0 DUP6 DUP3 DUP2 MLOAD DUP2 LT PUSH2 0x16F6 JUMPI PUSH2 0x16F6 PUSH2 0x1B6C JUMP JUMPDEST PUSH1 0x20 MUL PUSH1 0x20 ADD ADD MLOAD SWAP1 POP DUP1 DUP4 GT PUSH2 0x171C JUMPI PUSH1 0x0 DUP4 DUP2 MSTORE PUSH1 0x20 DUP3 SWAP1 MSTORE PUSH1 0x40 SWAP1 KECCAK256 SWAP3 POP PUSH2 0x172D JUMP JUMPDEST PUSH1 0x0 DUP2 DUP2 MSTORE PUSH1 0x20 DUP5 SWAP1 MSTORE PUSH1 0x40 SWAP1 KECCAK256 SWAP3 POP JUMPDEST POP DUP1 PUSH2 0x1738 DUP2 PUSH2 0x1B34 JUMP JUMPDEST SWAP2 POP POP PUSH2 0x16D9 JUMP JUMPDEST POP SWAP4 SWAP3 POP POP POP JUMP JUMPDEST PUSH1 0x0 PUSH1 0x20 DUP3 DUP5 SUB SLT ISZERO PUSH2 0x175A JUMPI PUSH1 0x0 DUP1 REVERT JUMPDEST DUP2 CALLDATALOAD PUSH1 0x1 PUSH1 0x1 PUSH1 0xE0 SHL SUB NOT DUP2 AND DUP2 EQ PUSH2 0x14D7 JUMPI PUSH1 0x0 DUP1 REVERT JUMPDEST PUSH1 0x1 PUSH1 0x1 PUSH1 0xA0 SHL SUB DUP2 AND DUP2 EQ PUSH2 0x1585 JUMPI PUSH1 0x0 DUP1 REVERT JUMPDEST PUSH1 0x0 PUSH1 0x20 DUP3 DUP5 SUB SLT ISZERO PUSH2 0x1799 JUMPI PUSH1 0x0 DUP1 REVERT JUMPDEST DUP2 CALLDATALOAD PUSH2 0x14D7 DUP2 PUSH2 0x1772 JUMP JUMPDEST PUSH1 0x0 PUSH1 0x20 DUP3 DUP5 SUB SLT ISZERO PUSH2 0x17B6 JUMPI PUSH1 0x0 DUP1 REVERT JUMPDEST POP CALLDATALOAD SWAP2 SWAP1 POP JUMP JUMPDEST PUSH1 0x0 DUP1 PUSH1 0x0 PUSH1 0x40 DUP5 DUP7 SUB SLT ISZERO PUSH2 0x17D2 JUMPI PUSH1 0x0 DUP1 REVERT JUMPDEST DUP4 CALLDATALOAD PUSH8 0xFFFFFFFFFFFFFFFF DUP1 DUP3 GT ISZERO PUSH2 0x17EA JUMPI PUSH1 0x0 DUP1 REVERT JUMPDEST DUP2 DUP7 ADD SWAP2 POP DUP7 PUSH1 0x1F DUP4 ADD SLT PUSH2 0x17FE JUMPI PUSH1 0x0 DUP1 REVERT JUMPDEST DUP2 CALLDATALOAD DUP2 DUP2 GT ISZERO PUSH2 0x180D JUMPI PUSH1 0x0 DUP1 REVERT JUMPDEST DUP8 PUSH1 0x20 DUP3 PUSH1 0x5 SHL DUP6 ADD ADD GT ISZERO PUSH2 0x1822 JUMPI PUSH1 0x0 DUP1 REVERT JUMPDEST PUSH1 0x20 SWAP3 DUP4 ADD SWAP9 SWAP1 SWAP8 POP SWAP6 SWAP1 SWAP2 ADD CALLDATALOAD SWAP5 SWAP4 POP POP POP POP JUMP JUMPDEST PUSH1 0x0 DUP1 PUSH1 0x40 DUP4 DUP6 SUB SLT ISZERO PUSH2 0x184B JUMPI PUSH1 0x0 DUP1 REVERT JUMPDEST DUP3 CALLDATALOAD SWAP2 POP PUSH1 0x20 DUP4 ADD CALLDATALOAD PUSH2 0x185D DUP2 PUSH2 0x1772 JUMP JUMPDEST DUP1 SWAP2 POP POP SWAP3 POP SWAP3 SWAP1 POP JUMP JUMPDEST PUSH4 0x4E487B71 PUSH1 0xE0 SHL PUSH1 0x0 MSTORE PUSH1 0x41 PUSH1 0x4 MSTORE PUSH1 0x24 PUSH1 0x0 REVERT JUMPDEST PUSH1 0x0 DUP3 PUSH1 0x1F DUP4 ADD SLT PUSH2 0x188F JUMPI PUSH1 0x0 DUP1 REVERT JUMPDEST DUP2 CALLDATALOAD PUSH8 0xFFFFFFFFFFFFFFFF DUP1 DUP3 GT ISZERO PUSH2 0x18AA JUMPI PUSH2 0x18AA PUSH2 0x1868 JUMP JUMPDEST PUSH1 0x40 MLOAD PUSH1 0x1F DUP4 ADD PUSH1 0x1F NOT SWAP1 DUP2 AND PUSH1 0x3F ADD AND DUP2 ADD SWAP1 DUP3 DUP3 GT DUP2 DUP4 LT OR ISZERO PUSH2 0x18D2 JUMPI PUSH2 0x18D2 PUSH2 0x1868 JUMP JUMPDEST DUP2 PUSH1 0x40 MSTORE DUP4 DUP2 MSTORE DUP7 PUSH1 0x20 DUP6 DUP9 ADD ADD GT ISZERO PUSH2 0x18EB JUMPI PUSH1 0x0 DUP1 REVERT JUMPDEST DUP4 PUSH1 0x20 DUP8 ADD PUSH1 0x20 DUP4 ADD CALLDATACOPY PUSH1 0x0 PUSH1 0x20 DUP6 DUP4 ADD ADD MSTORE DUP1 SWAP5 POP POP POP POP POP SWAP3 SWAP2 POP POP JUMP JUMPDEST PUSH1 0x0 DUP1 PUSH1 0x0 PUSH1 0x60 DUP5 DUP7 SUB SLT ISZERO PUSH2 0x1920 JUMPI PUSH1 0x0 DUP1 REVERT JUMPDEST DUP4 CALLDATALOAD PUSH2 0x192B DUP2 PUSH2 0x1772 JUMP JUMPDEST SWAP3 POP PUSH1 0x20 DUP5 ADD CALLDATALOAD PUSH2 0x193B DUP2 PUSH2 0x1772 JUMP JUMPDEST SWAP2 POP PUSH1 0x40 DUP5 ADD CALLDATALOAD PUSH8 0xFFFFFFFFFFFFFFFF DUP2 GT ISZERO PUSH2 0x1957 JUMPI PUSH1 0x0 DUP1 REVERT JUMPDEST PUSH2 0x1963 DUP7 DUP3 DUP8 ADD PUSH2 0x187E JUMP JUMPDEST SWAP2 POP POP SWAP3 POP SWAP3 POP SWAP3 JUMP JUMPDEST DUP1 ISZERO ISZERO DUP2 EQ PUSH2 0x1585 JUMPI PUSH1 0x0 DUP1 REVERT JUMPDEST PUSH1 0x0 PUSH1 0x20 DUP3 DUP5 SUB SLT ISZERO PUSH2 0x198D JUMPI PUSH1 0x0 DUP1 REVERT JUMPDEST DUP2 CALLDATALOAD PUSH2 0x14D7 DUP2 PUSH2 0x196D JUMP JUMPDEST PUSH1 0x0 DUP1 PUSH1 0x40 DUP4 DUP6 SUB SLT ISZERO PUSH2 0x19AB JUMPI PUSH1 0x0 DUP1 REVERT JUMPDEST DUP3 CALLDATALOAD SWAP2 POP PUSH1 0x20 DUP4 ADD CALLDATALOAD PUSH8 0xFFFFFFFFFFFFFFFF DUP2 GT ISZERO PUSH2 0x19C9 JUMPI PUSH1 0x0 DUP1 REVERT JUMPDEST PUSH2 0x19D5 DUP6 DUP3 DUP7 ADD PUSH2 0x187E JUMP JUMPDEST SWAP2 POP POP SWAP3 POP SWAP3 SWAP1 POP JUMP JUMPDEST PUSH1 0x0 PUSH1 0x20 DUP3 DUP5 SUB SLT ISZERO PUSH2 0x19F1 JUMPI PUSH1 0x0 DUP1 REVERT JUMPDEST DUP2 CALLDATALOAD PUSH8 0xFFFFFFFFFFFFFFFF DUP2 GT ISZERO PUSH2 0x1A08 JUMPI PUSH1 0x0 DUP1 REVERT JUMPDEST PUSH2 0x1573 DUP5 DUP3 DUP6 ADD PUSH2 0x187E JUMP JUMPDEST PUSH1 0x0 DUP1 PUSH1 0x20 DUP4 DUP6 SUB SLT ISZERO PUSH2 0x1A27 JUMPI PUSH1 0x0 DUP1 REVERT JUMPDEST DUP3 CALLDATALOAD PUSH8 0xFFFFFFFFFFFFFFFF DUP1 DUP3 GT ISZERO PUSH2 0x1A3F JUMPI PUSH1 0x0 DUP1 REVERT JUMPDEST DUP2 DUP6 ADD SWAP2 POP DUP6 PUSH1 0x1F DUP4 ADD SLT PUSH2 0x1A53 JUMPI PUSH1 0x0 DUP1 REVERT JUMPDEST DUP2 CALLDATALOAD DUP2 DUP2 GT ISZERO PUSH2 0x1A62 JUMPI PUSH1 0x0 DUP1 REVERT JUMPDEST DUP7 PUSH1 0x20 DUP3 DUP6 ADD ADD GT ISZERO PUSH2 0x1A74 JUMPI PUSH1 0x0 DUP1 REVERT JUMPDEST PUSH1 0x20 SWAP3 SWAP1 SWAP3 ADD SWAP7 SWAP2 SWAP6 POP SWAP1 SWAP4 POP POP POP POP JUMP JUMPDEST PUSH4 0x4E487B71 PUSH1 0xE0 SHL PUSH1 0x0 MSTORE PUSH1 0x11 PUSH1 0x4 MSTORE PUSH1 0x24 PUSH1 0x0 REVERT JUMPDEST PUSH1 0x0 DUP3 NOT DUP3 GT ISZERO PUSH2 0x1AAF JUMPI PUSH2 0x1AAF PUSH2 0x1A86 JUMP JUMPDEST POP ADD SWAP1 JUMP JUMPDEST PUSH1 0x0 PUSH1 0x20 DUP3 DUP5 SUB SLT ISZERO PUSH2 0x1AC6 JUMPI PUSH1 0x0 DUP1 REVERT JUMPDEST POP MLOAD SWAP2 SWAP1 POP JUMP JUMPDEST PUSH1 0x0 PUSH1 0x20 DUP3 DUP5 SUB SLT ISZERO PUSH2 0x1ADF JUMPI PUSH1 0x0 DUP1 REVERT JUMPDEST DUP2 MLOAD PUSH2 0x14D7 DUP2 PUSH2 0x196D JUMP JUMPDEST PUSH1 0x20 DUP1 DUP3 MSTORE PUSH1 0x2A SWAP1 DUP3 ADD MSTORE PUSH32 0x5468697320436F6E7472616374206E6F742068617665207065726D697373696F PUSH1 0x40 DUP3 ADD MSTORE PUSH10 0x37103A379036B4B73A17 PUSH1 0xB1 SHL PUSH1 0x60 DUP3 ADD MSTORE PUSH1 0x80 ADD SWAP1 JUMP JUMPDEST PUSH1 0x0 PUSH1 0x1 DUP3 ADD PUSH2 0x1B46 JUMPI PUSH2 0x1B46 PUSH2 0x1A86 JUMP JUMPDEST POP PUSH1 0x1 ADD SWAP1 JUMP JUMPDEST PUSH1 0x0 DUP2 PUSH1 0x0 NOT DIV DUP4 GT DUP3 ISZERO ISZERO AND ISZERO PUSH2 0x1B67 JUMPI PUSH2 0x1B67 PUSH2 0x1A86 JUMP JUMPDEST POP MUL SWAP1 JUMP JUMPDEST PUSH4 0x4E487B71 PUSH1 0xE0 SHL PUSH1 0x0 MSTORE PUSH1 0x32 PUSH1 0x4 MSTORE PUSH1 0x24 PUSH1 0x0 REVERT JUMPDEST PUSH1 0x0 DUP2 PUSH2 0x1B91 JUMPI PUSH2 0x1B91 PUSH2 0x1A86 JUMP JUMPDEST POP PUSH1 0x0 NOT ADD SWAP1 JUMP JUMPDEST PUSH1 0x0 JUMPDEST DUP4 DUP2 LT ISZERO PUSH2 0x1BB4 JUMPI DUP2 DUP2 ADD MLOAD DUP4 DUP3 ADD MSTORE PUSH1 0x20 ADD PUSH2 0x1B9C JUMP JUMPDEST DUP4 DUP2 GT ISZERO PUSH2 0x1BC3 JUMPI PUSH1 0x0 DUP5 DUP5 ADD MSTORE JUMPDEST POP POP POP POP JUMP JUMPDEST PUSH32 0x416363657373436F6E74726F6C3A206163636F756E7420000000000000000000 DUP2 MSTORE PUSH1 0x0 DUP4 MLOAD PUSH2 0x1C01 DUP2 PUSH1 0x17 DUP6 ADD PUSH1 0x20 DUP9 ADD PUSH2 0x1B99 JUMP JUMPDEST PUSH17 0x1034B99036B4B9B9B4B733903937B6329 PUSH1 0x7D SHL PUSH1 0x17 SWAP2 DUP5 ADD SWAP2 DUP3 ADD MSTORE DUP4 MLOAD PUSH2 0x1C32 DUP2 PUSH1 0x28 DUP5 ADD PUSH1 0x20 DUP9 ADD PUSH2 0x1B99 JUMP JUMPDEST ADD PUSH1 0x28 ADD SWAP5 SWAP4 POP POP POP POP JUMP JUMPDEST PUSH1 0x20 DUP2 MSTORE PUSH1 0x0 DUP3 MLOAD DUP1 PUSH1 0x20 DUP5 ADD MSTORE PUSH2 0x1C5D DUP2 PUSH1 0x40 DUP6 ADD PUSH1 0x20 DUP8 ADD PUSH2 0x1B99 JUMP JUMPDEST PUSH1 0x1F ADD PUSH1 0x1F NOT AND SWAP2 SWAP1 SWAP2 ADD PUSH1 0x40 ADD SWAP3 SWAP2 POP POP JUMP INVALID LOG2 PUSH5 0x6970667358 0x22 SLT KECCAK256 0xF8 SWAP16 0xAE PUSH30 0x77BA9CE5AB030D50C1817C4D0C75E2B945AB9C9C60CF1DF1CC17250D6473 PUSH16 0x6C634300080F00330000000000000000 "
				},
				"gasEstimates": {
					"creation": {
						"codeDepositCost": "1467000",
						"executionCost": "infinite",
						"totalCost": "infinite"
					},
					"external": {
						"DEFAULT_ADMIN_ROLE()": "306",
						"getEthSignedMessageHash(bytes32)": "522",
						"getMaxSupply()": "infinite",
						"getMessageHash(address)": "592",
						"getRoleAdmin(bytes32)": "2540",
						"getTotalSupply()": "infinite",
						"grantRole(bytes32,address)": "infinite",
						"hasRole(bytes32,address)": "2698",
						"isPause()": "infinite",
						"isPublicMinted(address)": "2576",
						"isPublicOpen()": "2385",
						"isWhitelistMinted(address)": "2643",
						"isWhitelistMintedAmount(address)": "2622",
						"isWhitelistOpen()": "2383",
						"merkleRoot()": "2385",
						"nagaKidsContract()": "2449",
						"publicMint(bytes)": "infinite",
						"recoverSigner(bytes32,bytes)": "infinite",
						"renounceRole(bytes32,address)": "29045",
						"revokeRole(bytes32,address)": "infinite",
						"setMerkleRoot(bytes32)": "infinite",
						"setNagaKidsContract(address)": "infinite",
						"setPublicOpen(bool)": "infinite",
						"setSigner(address)": "infinite",
						"setWhitelistMintOpen(bool)": "infinite",
						"signer()": "2405",
						"splitSignature(bytes)": "infinite",
						"supportsInterface(bytes4)": "473",
						"verify(address,address,bytes)": "infinite",
						"whitelistMint(bytes32[],uint256)": "infinite"
					}
				},
				"methodIdentifiers": {
					"DEFAULT_ADMIN_ROLE()": "a217fddf",
					"getEthSignedMessageHash(bytes32)": "fa540801",
					"getMaxSupply()": "4c0f38c2",
					"getMessageHash(address)": "1f5ac1b2",
					"getRoleAdmin(bytes32)": "248a9ca3",
					"getTotalSupply()": "c4e41b22",
					"grantRole(bytes32,address)": "2f2ff15d",
					"hasRole(bytes32,address)": "91d14854",
					"isPause()": "ff0938a7",
					"isPublicMinted(address)": "f055c7a9",
					"isPublicOpen()": "11c67efc",
					"isWhitelistMinted(address)": "5997bbee",
					"isWhitelistMintedAmount(address)": "1b0d2d3b",
					"isWhitelistOpen()": "94f4504d",
					"merkleRoot()": "2eb4a7ab",
					"nagaKidsContract()": "27c25c20",
					"publicMint(bytes)": "de6892c8",
					"recoverSigner(bytes32,bytes)": "97aba7f9",
					"renounceRole(bytes32,address)": "36568abe",
					"revokeRole(bytes32,address)": "d547741f",
					"setMerkleRoot(bytes32)": "7cb64759",
					"setNagaKidsContract(address)": "2c8a1926",
					"setPublicOpen(bool)": "80506494",
					"setSigner(address)": "6c19e783",
					"setWhitelistMintOpen(bool)": "fade63c9",
					"signer()": "238ac933",
					"splitSignature(bytes)": "a7bb5803",
					"supportsInterface(bytes4)": "01ffc9a7",
					"verify(address,address,bytes)": "42920a46",
					"whitelistMint(bytes32[],uint256)": "2904e6d9"
				}
			},
			"storageLayout": {
				"storage": [
					{
						"astId": 1498,
						"contract": "MintNagaKids.sol:MintNagaKids",
						"label": "merkleRoot",
						"offset": 0,
						"slot": "0",
						"type": "t_bytes32"
					},
					{
						"astId": 24,
						"contract": "MintNagaKids.sol:MintNagaKids",
						"label": "_roles",
						"offset": 0,
						"slot": "1",
						"type": "t_mapping(t_bytes32,t_struct(RoleData)19_storage)"
					},
					{
						"astId": 403,
						"contract": "MintNagaKids.sol:MintNagaKids",
						"label": "_status",
						"offset": 0,
						"slot": "2",
						"type": "t_uint256"
					},
					{
						"astId": 976,
						"contract": "MintNagaKids.sol:MintNagaKids",
						"label": "nagaKidsContract",
						"offset": 0,
						"slot": "3",
						"type": "t_contract(INagaKidsNFT)958"
					},
					{
						"astId": 978,
						"contract": "MintNagaKids.sol:MintNagaKids",
						"label": "isPublicOpen",
						"offset": 20,
						"slot": "3",
						"type": "t_bool"
					},
					{
						"astId": 980,
						"contract": "MintNagaKids.sol:MintNagaKids",
						"label": "isWhitelistOpen",
						"offset": 21,
						"slot": "3",
						"type": "t_bool"
					},
					{
						"astId": 982,
						"contract": "MintNagaKids.sol:MintNagaKids",
						"label": "signer",
						"offset": 0,
						"slot": "4",
						"type": "t_address"
					},
					{
						"astId": 986,
						"contract": "MintNagaKids.sol:MintNagaKids",
						"label": "_isWhitelistMinted",
						"offset": 0,
						"slot": "5",
						"type": "t_mapping(t_address,t_bool)"
					},
					{
						"astId": 990,
						"contract": "MintNagaKids.sol:MintNagaKids",
						"label": "_isWhitelistMintedAmount",
						"offset": 0,
						"slot": "6",
						"type": "t_mapping(t_address,t_uint256)"
					},
					{
						"astId": 994,
						"contract": "MintNagaKids.sol:MintNagaKids",
						"label": "_isPublicMinted",
						"offset": 0,
						"slot": "7",
						"type": "t_mapping(t_address,t_bool)"
					}
				],
				"types": {
					"t_address": {
						"encoding": "inplace",
						"label": "address",
						"numberOfBytes": "20"
					},
					"t_bool": {
						"encoding": "inplace",
						"label": "bool",
						"numberOfBytes": "1"
					},
					"t_bytes32": {
						"encoding": "inplace",
						"label": "bytes32",
						"numberOfBytes": "32"
					},
					"t_contract(INagaKidsNFT)958": {
						"encoding": "inplace",
						"label": "contract INagaKidsNFT",
						"numberOfBytes": "20"
					},
					"t_mapping(t_address,t_bool)": {
						"encoding": "mapping",
						"key": "t_address",
						"label": "mapping(address => bool)",
						"numberOfBytes": "32",
						"value": "t_bool"
					},
					"t_mapping(t_address,t_uint256)": {
						"encoding": "mapping",
						"key": "t_address",
						"label": "mapping(address => uint256)",
						"numberOfBytes": "32",
						"value": "t_uint256"
					},
					"t_mapping(t_bytes32,t_struct(RoleData)19_storage)": {
						"encoding": "mapping",
						"key": "t_bytes32",
						"label": "mapping(bytes32 => struct AccessControl.RoleData)",
						"numberOfBytes": "32",
						"value": "t_struct(RoleData)19_storage"
					},
					"t_struct(RoleData)19_storage": {
						"encoding": "inplace",
						"label": "struct AccessControl.RoleData",
						"members": [
							{
								"astId": 16,
								"contract": "MintNagaKids.sol:MintNagaKids",
								"label": "members",
								"offset": 0,
								"slot": "0",
								"type": "t_mapping(t_address,t_bool)"
							},
							{
								"astId": 18,
								"contract": "MintNagaKids.sol:MintNagaKids",
								"label": "adminRole",
								"offset": 0,
								"slot": "1",
								"type": "t_bytes32"
							}
						],
						"numberOfBytes": "64"
					},
					"t_uint256": {
						"encoding": "inplace",
						"label": "uint256",
						"numberOfBytes": "32"
					}
				}
			},
			"userdoc": {
				"kind": "user",
				"methods": {},
				"version": 1
			}
		}
	}
}