{
	"MintNagaKids.sol": {
		"MintNagaKids": {
			"abi": [
				{
					"inputs": [
						{
							"internalType": "contract IERC721Enumerable",
							"name": "_nagaKids",
							"type": "address"
						}
					],
					"stateMutability": "nonpayable",
					"type": "constructor"
				},
				{
					"anonymous": false,
					"inputs": [
						{
							"indexed": true,
							"internalType": "bytes32",
							"name": "role",
							"type": "bytes32"
						},
						{
							"indexed": true,
							"internalType": "bytes32",
							"name": "previousAdminRole",
							"type": "bytes32"
						},
						{
							"indexed": true,
							"internalType": "bytes32",
							"name": "newAdminRole",
							"type": "bytes32"
						}
					],
					"name": "RoleAdminChanged",
					"type": "event"
				},
				{
					"anonymous": false,
					"inputs": [
						{
							"indexed": true,
							"internalType": "bytes32",
							"name": "role",
							"type": "bytes32"
						},
						{
							"indexed": true,
							"internalType": "address",
							"name": "account",
							"type": "address"
						},
						{
							"indexed": true,
							"internalType": "address",
							"name": "sender",
							"type": "address"
						}
					],
					"name": "RoleGranted",
					"type": "event"
				},
				{
					"anonymous": false,
					"inputs": [
						{
							"indexed": true,
							"internalType": "bytes32",
							"name": "role",
							"type": "bytes32"
						},
						{
							"indexed": true,
							"internalType": "address",
							"name": "account",
							"type": "address"
						},
						{
							"indexed": true,
							"internalType": "address",
							"name": "sender",
							"type": "address"
						}
					],
					"name": "RoleRevoked",
					"type": "event"
				},
				{
					"inputs": [],
					"name": "DEFAULT_ADMIN_ROLE",
					"outputs": [
						{
							"internalType": "bytes32",
							"name": "",
							"type": "bytes32"
						}
					],
					"stateMutability": "view",
					"type": "function"
				},
				{
					"inputs": [
						{
							"internalType": "bool",
							"name": "_isOpen",
							"type": "bool"
						}
					],
					"name": "changeFreeMintOpen",
					"outputs": [],
					"stateMutability": "nonpayable",
					"type": "function"
				},
				{
					"inputs": [
						{
							"internalType": "contract IERC721Enumerable",
							"name": "_nagaKids",
							"type": "address"
						}
					],
					"name": "changeNagaKidsContract",
					"outputs": [],
					"stateMutability": "nonpayable",
					"type": "function"
				},
				{
					"inputs": [
						{
							"internalType": "bool",
							"name": "_isOpen",
							"type": "bool"
						}
					],
					"name": "changeWhitelistMintOpen",
					"outputs": [],
					"stateMutability": "nonpayable",
					"type": "function"
				},
				{
					"inputs": [
						{
							"internalType": "bytes32",
							"name": "role",
							"type": "bytes32"
						}
					],
					"name": "getRoleAdmin",
					"outputs": [
						{
							"internalType": "bytes32",
							"name": "",
							"type": "bytes32"
						}
					],
					"stateMutability": "view",
					"type": "function"
				},
				{
					"inputs": [],
					"name": "getTotalSupply",
					"outputs": [
						{
							"internalType": "uint256",
							"name": "",
							"type": "uint256"
						}
					],
					"stateMutability": "view",
					"type": "function"
				},
				{
					"inputs": [
						{
							"internalType": "bytes32",
							"name": "role",
							"type": "bytes32"
						},
						{
							"internalType": "address",
							"name": "account",
							"type": "address"
						}
					],
					"name": "grantRole",
					"outputs": [],
					"stateMutability": "nonpayable",
					"type": "function"
				},
				{
					"inputs": [
						{
							"internalType": "bytes32",
							"name": "role",
							"type": "bytes32"
						},
						{
							"internalType": "address",
							"name": "account",
							"type": "address"
						}
					],
					"name": "hasRole",
					"outputs": [
						{
							"internalType": "bool",
							"name": "",
							"type": "bool"
						}
					],
					"stateMutability": "view",
					"type": "function"
				},
				{
					"inputs": [],
					"name": "isFreeMintOpen",
					"outputs": [
						{
							"internalType": "bool",
							"name": "",
							"type": "bool"
						}
					],
					"stateMutability": "view",
					"type": "function"
				},
				{
					"inputs": [],
					"name": "isWhitelistOpen",
					"outputs": [
						{
							"internalType": "bool",
							"name": "",
							"type": "bool"
						}
					],
					"stateMutability": "view",
					"type": "function"
				},
				{
					"inputs": [],
					"name": "nagaKidsContract",
					"outputs": [
						{
							"internalType": "contract IERC721Enumerable",
							"name": "",
							"type": "address"
						}
					],
					"stateMutability": "view",
					"type": "function"
				},
				{
					"inputs": [
						{
							"internalType": "bytes32",
							"name": "role",
							"type": "bytes32"
						},
						{
							"internalType": "address",
							"name": "account",
							"type": "address"
						}
					],
					"name": "renounceRole",
					"outputs": [],
					"stateMutability": "nonpayable",
					"type": "function"
				},
				{
					"inputs": [
						{
							"internalType": "bytes32",
							"name": "role",
							"type": "bytes32"
						},
						{
							"internalType": "address",
							"name": "account",
							"type": "address"
						}
					],
					"name": "revokeRole",
					"outputs": [],
					"stateMutability": "nonpayable",
					"type": "function"
				},
				{
					"inputs": [
						{
							"internalType": "bytes4",
							"name": "interfaceId",
							"type": "bytes4"
						}
					],
					"name": "supportsInterface",
					"outputs": [
						{
							"internalType": "bool",
							"name": "",
							"type": "bool"
						}
					],
					"stateMutability": "view",
					"type": "function"
				},
				{
					"inputs": [],
					"name": "whitelistMint",
					"outputs": [],
					"stateMutability": "payable",
					"type": "function"
				}
			],
			"devdoc": {
				"kind": "dev",
				"methods": {
					"getRoleAdmin(bytes32)": {
						"details": "Returns the admin role that controls `role`. See {grantRole} and {revokeRole}. To change a role's admin, use {_setRoleAdmin}."
					},
					"grantRole(bytes32,address)": {
						"details": "Grants `role` to `account`. If `account` had not been already granted `role`, emits a {RoleGranted} event. Requirements: - the caller must have ``role``'s admin role."
					},
					"hasRole(bytes32,address)": {
						"details": "Returns `true` if `account` has been granted `role`."
					},
					"renounceRole(bytes32,address)": {
						"details": "Revokes `role` from the calling account. Roles are often managed via {grantRole} and {revokeRole}: this function's purpose is to provide a mechanism for accounts to lose their privileges if they are compromised (such as when a trusted device is misplaced). If the calling account had been revoked `role`, emits a {RoleRevoked} event. Requirements: - the caller must be `account`."
					},
					"revokeRole(bytes32,address)": {
						"details": "Revokes `role` from `account`. If `account` had been granted `role`, emits a {RoleRevoked} event. Requirements: - the caller must have ``role``'s admin role."
					},
					"supportsInterface(bytes4)": {
						"details": "See {IERC165-supportsInterface}."
					}
				},
				"version": 1
			},
			"evm": {
				"assembly": "    /* \"MintNagaKids.sol\":268:1528  contract MintNagaKids is AccessControl, ReentrancyGuard {... */\n  mstore(0x40, 0x80)\n    /* \"MintNagaKids.sol\":448:594  constructor(IERC721Enumerable _nagaKids) {... */\n  callvalue\n  dup1\n  iszero\n  tag_1\n  jumpi\n  0x00\n  dup1\n  revert\ntag_1:\n  pop\n  mload(0x40)\n  sub(codesize, bytecodeSize)\n  dup1\n  bytecodeSize\n  dup4\n  codecopy\n  dup2\n  dup2\n  add\n  0x40\n  mstore\n  dup2\n  add\n  swap1\n  tag_2\n  swap2\n  swap1\n  tag_3\n  jump\t// in\ntag_2:\n    /* \"@openzeppelin/contracts/security/ReentrancyGuard.sol\":1701:1702  1 */\n  0x01\n    /* \"@openzeppelin/contracts/security/ReentrancyGuard.sol\":1806:1813  _status */\n  dup1\n    /* \"@openzeppelin/contracts/security/ReentrancyGuard.sol\":1806:1828  _status = _NOT_ENTERED */\n  dup2\n  swap1\n  sstore\n  pop\n    /* \"MintNagaKids.sol\":500:542  _grantRole(DEFAULT_ADMIN_ROLE, msg.sender) */\n  tag_8\n    /* \"@openzeppelin/contracts/access/AccessControl.sol\":2072:2076  0x00 */\n  0x00\n    /* \"MintNagaKids.sol\":511:529  DEFAULT_ADMIN_ROLE */\n  dup1\n  shl\n    /* \"MintNagaKids.sol\":531:541  msg.sender */\n  caller\n    /* \"MintNagaKids.sol\":500:510  _grantRole */\n  shl(0x20, tag_9)\n    /* \"MintNagaKids.sol\":500:542  _grantRole(DEFAULT_ADMIN_ROLE, msg.sender) */\n  0x20\n  shr\n  jump\t// in\ntag_8:\n    /* \"MintNagaKids.sol\":553:586  changeNagaKidsContract(_nagaKids) */\n  tag_10\n    /* \"MintNagaKids.sol\":576:585  _nagaKids */\n  dup2\n    /* \"MintNagaKids.sol\":553:575  changeNagaKidsContract */\n  shl(0x20, tag_11)\n    /* \"MintNagaKids.sol\":553:586  changeNagaKidsContract(_nagaKids) */\n  0x20\n  shr\n  jump\t// in\ntag_10:\n    /* \"MintNagaKids.sol\":448:594  constructor(IERC721Enumerable _nagaKids) {... */\n  pop\n    /* \"MintNagaKids.sol\":268:1528  contract MintNagaKids is AccessControl, ReentrancyGuard {... */\n  jump(tag_12)\n    /* \"@openzeppelin/contracts/access/AccessControl.sol\":7244:7477  function _grantRole(bytes32 role, address account) internal virtual {... */\ntag_9:\n    /* \"@openzeppelin/contracts/access/AccessControl.sol\":7327:7349  hasRole(role, account) */\n  tag_14\n    /* \"@openzeppelin/contracts/access/AccessControl.sol\":7335:7339  role */\n  dup3\n    /* \"@openzeppelin/contracts/access/AccessControl.sol\":7341:7348  account */\n  dup3\n    /* \"@openzeppelin/contracts/access/AccessControl.sol\":7327:7334  hasRole */\n  shl(0x20, tag_15)\n    /* \"@openzeppelin/contracts/access/AccessControl.sol\":7327:7349  hasRole(role, account) */\n  0x20\n  shr\n  jump\t// in\ntag_14:\n    /* \"@openzeppelin/contracts/access/AccessControl.sol\":7322:7471  if (!hasRole(role, account)) {... */\n  tag_16\n  jumpi\n    /* \"@openzeppelin/contracts/access/AccessControl.sol\":7397:7401  true */\n  0x01\n    /* \"@openzeppelin/contracts/access/AccessControl.sol\":7365:7371  _roles */\n  0x00\n    /* \"@openzeppelin/contracts/access/AccessControl.sol\":7365:7377  _roles[role] */\n  dup1\n    /* \"@openzeppelin/contracts/access/AccessControl.sol\":7372:7376  role */\n  dup5\n    /* \"@openzeppelin/contracts/access/AccessControl.sol\":7365:7377  _roles[role] */\n  dup2\n  mstore\n  0x20\n  add\n  swap1\n  dup2\n  mstore\n  0x20\n  add\n  0x00\n  keccak256\n    /* \"@openzeppelin/contracts/access/AccessControl.sol\":7365:7385  _roles[role].members */\n  0x00\n  add\n    /* \"@openzeppelin/contracts/access/AccessControl.sol\":7365:7394  _roles[role].members[account] */\n  0x00\n    /* \"@openzeppelin/contracts/access/AccessControl.sol\":7386:7393  account */\n  dup4\n    /* \"@openzeppelin/contracts/access/AccessControl.sol\":7365:7394  _roles[role].members[account] */\n  0xffffffffffffffffffffffffffffffffffffffff\n  and\n  0xffffffffffffffffffffffffffffffffffffffff\n  and\n  dup2\n  mstore\n  0x20\n  add\n  swap1\n  dup2\n  mstore\n  0x20\n  add\n  0x00\n  keccak256\n  0x00\n    /* \"@openzeppelin/contracts/access/AccessControl.sol\":7365:7401  _roles[role].members[account] = true */\n  0x0100\n  exp\n  dup2\n  sload\n  dup2\n  0xff\n  mul\n  not\n  and\n  swap1\n  dup4\n  iszero\n  iszero\n  mul\n  or\n  swap1\n  sstore\n  pop\n    /* \"@openzeppelin/contracts/access/AccessControl.sol\":7447:7459  _msgSender() */\n  tag_17\n    /* \"@openzeppelin/contracts/access/AccessControl.sol\":7447:7457  _msgSender */\n  shl(0x20, tag_18)\n    /* \"@openzeppelin/contracts/access/AccessControl.sol\":7447:7459  _msgSender() */\n  0x20\n  shr\n  jump\t// in\ntag_17:\n    /* \"@openzeppelin/contracts/access/AccessControl.sol\":7420:7460  RoleGranted(role, account, _msgSender()) */\n  0xffffffffffffffffffffffffffffffffffffffff\n  and\n    /* \"@openzeppelin/contracts/access/AccessControl.sol\":7438:7445  account */\n  dup2\n    /* \"@openzeppelin/contracts/access/AccessControl.sol\":7420:7460  RoleGranted(role, account, _msgSender()) */\n  0xffffffffffffffffffffffffffffffffffffffff\n  and\n    /* \"@openzeppelin/contracts/access/AccessControl.sol\":7432:7436  role */\n  dup4\n    /* \"@openzeppelin/contracts/access/AccessControl.sol\":7420:7460  RoleGranted(role, account, _msgSender()) */\n  0x2f8788117e7eff1d82e926ec794901d17c78024a50270940304540a733656f0d\n  mload(0x40)\n  mload(0x40)\n  dup1\n  swap2\n  sub\n  swap1\n  log4\n    /* \"@openzeppelin/contracts/access/AccessControl.sol\":7322:7471  if (!hasRole(role, account)) {... */\ntag_16:\n    /* \"@openzeppelin/contracts/access/AccessControl.sol\":7244:7477  function _grantRole(bytes32 role, address account) internal virtual {... */\n  pop\n  pop\n  jump\t// out\n    /* \"MintNagaKids.sol\":602:769  function changeNagaKidsContract(IERC721Enumerable _nagaKids)... */\ntag_11:\n    /* \"@openzeppelin/contracts/access/AccessControl.sol\":2072:2076  0x00 */\n  0x00\n    /* \"MintNagaKids.sol\":697:715  DEFAULT_ADMIN_ROLE */\n  dup1\n  shl\n    /* \"@openzeppelin/contracts/access/AccessControl.sol\":2505:2521  _checkRole(role) */\n  tag_20\n    /* \"@openzeppelin/contracts/access/AccessControl.sol\":2516:2520  role */\n  dup2\n    /* \"@openzeppelin/contracts/access/AccessControl.sol\":2505:2515  _checkRole */\n  shl(0x20, tag_21)\n    /* \"@openzeppelin/contracts/access/AccessControl.sol\":2505:2521  _checkRole(role) */\n  0x20\n  shr\n  jump\t// in\ntag_20:\n    /* \"MintNagaKids.sol\":752:761  _nagaKids */\n  dup2\n    /* \"MintNagaKids.sol\":733:749  nagaKidsContract */\n  0x02\n  0x00\n    /* \"MintNagaKids.sol\":733:761  nagaKidsContract = _nagaKids */\n  0x0100\n  exp\n  dup2\n  sload\n  dup2\n  0xffffffffffffffffffffffffffffffffffffffff\n  mul\n  not\n  and\n  swap1\n  dup4\n  0xffffffffffffffffffffffffffffffffffffffff\n  and\n  mul\n  or\n  swap1\n  sstore\n  pop\n    /* \"MintNagaKids.sol\":602:769  function changeNagaKidsContract(IERC721Enumerable _nagaKids)... */\n  pop\n  pop\n  jump\t// out\n    /* \"@openzeppelin/contracts/access/AccessControl.sol\":2895:3040  function hasRole(bytes32 role, address account) public view virtual override returns (bool) {... */\ntag_15:\n    /* \"@openzeppelin/contracts/access/AccessControl.sol\":2981:2985  bool */\n  0x00\n    /* \"@openzeppelin/contracts/access/AccessControl.sol\":3004:3010  _roles */\n  dup1\n    /* \"@openzeppelin/contracts/access/AccessControl.sol\":3004:3016  _roles[role] */\n  0x00\n    /* \"@openzeppelin/contracts/access/AccessControl.sol\":3011:3015  role */\n  dup5\n    /* \"@openzeppelin/contracts/access/AccessControl.sol\":3004:3016  _roles[role] */\n  dup2\n  mstore\n  0x20\n  add\n  swap1\n  dup2\n  mstore\n  0x20\n  add\n  0x00\n  keccak256\n    /* \"@openzeppelin/contracts/access/AccessControl.sol\":3004:3024  _roles[role].members */\n  0x00\n  add\n    /* \"@openzeppelin/contracts/access/AccessControl.sol\":3004:3033  _roles[role].members[account] */\n  0x00\n    /* \"@openzeppelin/contracts/access/AccessControl.sol\":3025:3032  account */\n  dup4\n    /* \"@openzeppelin/contracts/access/AccessControl.sol\":3004:3033  _roles[role].members[account] */\n  0xffffffffffffffffffffffffffffffffffffffff\n  and\n  0xffffffffffffffffffffffffffffffffffffffff\n  and\n  dup2\n  mstore\n  0x20\n  add\n  swap1\n  dup2\n  mstore\n  0x20\n  add\n  0x00\n  keccak256\n  0x00\n  swap1\n  sload\n  swap1\n  0x0100\n  exp\n  swap1\n  div\n  0xff\n  and\n    /* \"@openzeppelin/contracts/access/AccessControl.sol\":2997:3033  return _roles[role].members[account] */\n  swap1\n  pop\n    /* \"@openzeppelin/contracts/access/AccessControl.sol\":2895:3040  function hasRole(bytes32 role, address account) public view virtual override returns (bool) {... */\n  swap3\n  swap2\n  pop\n  pop\n  jump\t// out\n    /* \"@openzeppelin/contracts/utils/Context.sol\":640:736  function _msgSender() internal view virtual returns (address) {... */\ntag_18:\n    /* \"@openzeppelin/contracts/utils/Context.sol\":693:700  address */\n  0x00\n    /* \"@openzeppelin/contracts/utils/Context.sol\":719:729  msg.sender */\n  caller\n    /* \"@openzeppelin/contracts/utils/Context.sol\":712:729  return msg.sender */\n  swap1\n  pop\n    /* \"@openzeppelin/contracts/utils/Context.sol\":640:736  function _msgSender() internal view virtual returns (address) {... */\n  swap1\n  jump\t// out\n    /* \"@openzeppelin/contracts/access/AccessControl.sol\":3334:3437  function _checkRole(bytes32 role) internal view virtual {... */\ntag_21:\n    /* \"@openzeppelin/contracts/access/AccessControl.sol\":3400:3430  _checkRole(role, _msgSender()) */\n  tag_26\n    /* \"@openzeppelin/contracts/access/AccessControl.sol\":3411:3415  role */\n  dup2\n    /* \"@openzeppelin/contracts/access/AccessControl.sol\":3417:3429  _msgSender() */\n  tag_27\n    /* \"@openzeppelin/contracts/access/AccessControl.sol\":3417:3427  _msgSender */\n  shl(0x20, tag_18)\n    /* \"@openzeppelin/contracts/access/AccessControl.sol\":3417:3429  _msgSender() */\n  0x20\n  shr\n  jump\t// in\ntag_27:\n    /* \"@openzeppelin/contracts/access/AccessControl.sol\":3400:3410  _checkRole */\n  shl(0x20, tag_28)\n    /* \"@openzeppelin/contracts/access/AccessControl.sol\":3400:3430  _checkRole(role, _msgSender()) */\n  0x20\n  shr\n  jump\t// in\ntag_26:\n    /* \"@openzeppelin/contracts/access/AccessControl.sol\":3334:3437  function _checkRole(bytes32 role) internal view virtual {... */\n  pop\n  jump\t// out\n    /* \"@openzeppelin/contracts/access/AccessControl.sol\":3718:4210  function _checkRole(bytes32 role, address account) internal view virtual {... */\ntag_28:\n    /* \"@openzeppelin/contracts/access/AccessControl.sol\":3806:3828  hasRole(role, account) */\n  tag_30\n    /* \"@openzeppelin/contracts/access/AccessControl.sol\":3814:3818  role */\n  dup3\n    /* \"@openzeppelin/contracts/access/AccessControl.sol\":3820:3827  account */\n  dup3\n    /* \"@openzeppelin/contracts/access/AccessControl.sol\":3806:3813  hasRole */\n  shl(0x20, tag_15)\n    /* \"@openzeppelin/contracts/access/AccessControl.sol\":3806:3828  hasRole(role, account) */\n  0x20\n  shr\n  jump\t// in\ntag_30:\n    /* \"@openzeppelin/contracts/access/AccessControl.sol\":3801:4204  if (!hasRole(role, account)) {... */\n  tag_31\n  jumpi\n    /* \"@openzeppelin/contracts/access/AccessControl.sol\":3989:4030  Strings.toHexString(uint160(account), 20) */\n  tag_32\n    /* \"@openzeppelin/contracts/access/AccessControl.sol\":4017:4024  account */\n  dup2\n    /* \"@openzeppelin/contracts/access/AccessControl.sol\":3989:4030  Strings.toHexString(uint160(account), 20) */\n  0xffffffffffffffffffffffffffffffffffffffff\n  and\n    /* \"@openzeppelin/contracts/access/AccessControl.sol\":4027:4029  20 */\n  0x14\n    /* \"@openzeppelin/contracts/access/AccessControl.sol\":3989:4008  Strings.toHexString */\n  or(tag_0_90, shl(0x20, tag_33))\n    /* \"@openzeppelin/contracts/access/AccessControl.sol\":3989:4030  Strings.toHexString(uint160(account), 20) */\n  0x20\n  shr\n  jump\t// in\ntag_32:\n    /* \"@openzeppelin/contracts/access/AccessControl.sol\":4101:4139  Strings.toHexString(uint256(role), 32) */\n  tag_34\n    /* \"@openzeppelin/contracts/access/AccessControl.sol\":4129:4133  role */\n  dup4\n    /* \"@openzeppelin/contracts/access/AccessControl.sol\":4121:4134  uint256(role) */\n  0x00\n  shr\n    /* \"@openzeppelin/contracts/access/AccessControl.sol\":4136:4138  32 */\n  0x20\n    /* \"@openzeppelin/contracts/access/AccessControl.sol\":4101:4120  Strings.toHexString */\n  or(tag_0_90, shl(0x20, tag_33))\n    /* \"@openzeppelin/contracts/access/AccessControl.sol\":4101:4139  Strings.toHexString(uint256(role), 32) */\n  0x20\n  shr\n  jump\t// in\ntag_34:\n    /* \"@openzeppelin/contracts/access/AccessControl.sol\":3896:4161  abi.encodePacked(... */\n  add(0x20, mload(0x40))\n  tag_35\n  swap3\n  swap2\n  swap1\n  tag_36\n  jump\t// in\ntag_35:\n  mload(0x40)\n  0x20\n  dup2\n  dup4\n  sub\n  sub\n  dup2\n  mstore\n  swap1\n  0x40\n  mstore\n    /* \"@openzeppelin/contracts/access/AccessControl.sol\":3844:4193  revert(... */\n  mload(0x40)\n  0x08c379a000000000000000000000000000000000000000000000000000000000\n  dup2\n  mstore\n  0x04\n  add\n  tag_37\n  swap2\n  swap1\n  tag_38\n  jump\t// in\ntag_37:\n  mload(0x40)\n  dup1\n  swap2\n  sub\n  swap1\n  revert\n    /* \"@openzeppelin/contracts/access/AccessControl.sol\":3801:4204  if (!hasRole(role, account)) {... */\ntag_31:\n    /* \"@openzeppelin/contracts/access/AccessControl.sol\":3718:4210  function _checkRole(bytes32 role, address account) internal view virtual {... */\n  pop\n  pop\n  jump\t// out\n    /* \"@openzeppelin/contracts/utils/Strings.sol\":1588:2029  function toHexString(uint256 value, uint256 length) internal pure returns (string memory) {... */\ntag_33:\n    /* \"@openzeppelin/contracts/utils/Strings.sol\":1663:1676  string memory */\n  0x60\n    /* \"@openzeppelin/contracts/utils/Strings.sol\":1688:1707  bytes memory buffer */\n  0x00\n    /* \"@openzeppelin/contracts/utils/Strings.sol\":1733:1734  2 */\n  0x02\n    /* \"@openzeppelin/contracts/utils/Strings.sol\":1724:1730  length */\n  dup4\n    /* \"@openzeppelin/contracts/utils/Strings.sol\":1720:1721  2 */\n  0x02\n    /* \"@openzeppelin/contracts/utils/Strings.sol\":1720:1730  2 * length */\n  tag_40\n  swap2\n  swap1\n  tag_41\n  jump\t// in\ntag_40:\n    /* \"@openzeppelin/contracts/utils/Strings.sol\":1720:1734  2 * length + 2 */\n  tag_42\n  swap2\n  swap1\n  tag_43\n  jump\t// in\ntag_42:\n    /* \"@openzeppelin/contracts/utils/Strings.sol\":1710:1735  new bytes(2 * length + 2) */\n  0xffffffffffffffff\n  dup2\n  gt\n  iszero\n  tag_44\n  jumpi\n  tag_45\n  tag_46\n  jump\t// in\ntag_45:\ntag_44:\n  mload(0x40)\n  swap1\n  dup1\n  dup3\n  mstore\n  dup1\n  0x1f\n  add\n  not(0x1f)\n  and\n  0x20\n  add\n  dup3\n  add\n  0x40\n  mstore\n  dup1\n  iszero\n  tag_47\n  jumpi\n  dup2\n  0x20\n  add\n  0x01\n  dup3\n  mul\n  dup1\n  calldatasize\n  dup4\n  calldatacopy\n  dup1\n  dup3\n  add\n  swap2\n  pop\n  pop\n  swap1\n  pop\ntag_47:\n  pop\n    /* \"@openzeppelin/contracts/utils/Strings.sol\":1688:1735  bytes memory buffer = new bytes(2 * length + 2) */\n  swap1\n  pop\n    /* \"@openzeppelin/contracts/utils/Strings.sol\":1745:1760  buffer[0] = \"0\" */\n  0x3000000000000000000000000000000000000000000000000000000000000000\n    /* \"@openzeppelin/contracts/utils/Strings.sol\":1745:1751  buffer */\n  dup2\n    /* \"@openzeppelin/contracts/utils/Strings.sol\":1752:1753  0 */\n  0x00\n    /* \"@openzeppelin/contracts/utils/Strings.sol\":1745:1754  buffer[0] */\n  dup2\n  mload\n  dup2\n  lt\n  tag_48\n  jumpi\n  tag_49\n  tag_50\n  jump\t// in\ntag_49:\ntag_48:\n  0x20\n  add\n  add\n    /* \"@openzeppelin/contracts/utils/Strings.sol\":1745:1760  buffer[0] = \"0\" */\n  swap1\n  not(0xffffffffffffffffffffffffffffffffffffffffffffffffffffffffffffff)\n  and\n  swap1\n  dup2\n  0x00\n  byte\n  swap1\n  mstore8\n  pop\n    /* \"@openzeppelin/contracts/utils/Strings.sol\":1770:1785  buffer[1] = \"x\" */\n  0x7800000000000000000000000000000000000000000000000000000000000000\n    /* \"@openzeppelin/contracts/utils/Strings.sol\":1770:1776  buffer */\n  dup2\n    /* \"@openzeppelin/contracts/utils/Strings.sol\":1777:1778  1 */\n  0x01\n    /* \"@openzeppelin/contracts/utils/Strings.sol\":1770:1779  buffer[1] */\n  dup2\n  mload\n  dup2\n  lt\n  tag_51\n  jumpi\n  tag_52\n  tag_50\n  jump\t// in\ntag_52:\ntag_51:\n  0x20\n  add\n  add\n    /* \"@openzeppelin/contracts/utils/Strings.sol\":1770:1785  buffer[1] = \"x\" */\n  swap1\n  not(0xffffffffffffffffffffffffffffffffffffffffffffffffffffffffffffff)\n  and\n  swap1\n  dup2\n  0x00\n  byte\n  swap1\n  mstore8\n  pop\n    /* \"@openzeppelin/contracts/utils/Strings.sol\":1800:1809  uint256 i */\n  0x00\n    /* \"@openzeppelin/contracts/utils/Strings.sol\":1825:1826  1 */\n  0x01\n    /* \"@openzeppelin/contracts/utils/Strings.sol\":1816:1822  length */\n  dup5\n    /* \"@openzeppelin/contracts/utils/Strings.sol\":1812:1813  2 */\n  0x02\n    /* \"@openzeppelin/contracts/utils/Strings.sol\":1812:1822  2 * length */\n  tag_56\n  swap2\n  swap1\n  tag_41\n  jump\t// in\ntag_56:\n    /* \"@openzeppelin/contracts/utils/Strings.sol\":1812:1826  2 * length + 1 */\n  tag_57\n  swap2\n  swap1\n  tag_43\n  jump\t// in\ntag_57:\n    /* \"@openzeppelin/contracts/utils/Strings.sol\":1800:1826  uint256 i = 2 * length + 1 */\n  swap1\n  pop\n    /* \"@openzeppelin/contracts/utils/Strings.sol\":1795:1927  for (uint256 i = 2 * length + 1; i > 1; --i) {... */\ntag_53:\n    /* \"@openzeppelin/contracts/utils/Strings.sol\":1832:1833  1 */\n  0x01\n    /* \"@openzeppelin/contracts/utils/Strings.sol\":1828:1829  i */\n  dup2\n    /* \"@openzeppelin/contracts/utils/Strings.sol\":1828:1833  i > 1 */\n  gt\n    /* \"@openzeppelin/contracts/utils/Strings.sol\":1795:1927  for (uint256 i = 2 * length + 1; i > 1; --i) {... */\n  iszero\n  tag_54\n  jumpi\n    /* \"@openzeppelin/contracts/utils/Strings.sol\":1866:1878  _HEX_SYMBOLS */\n  0x3031323334353637383961626364656600000000000000000000000000000000\n    /* \"@openzeppelin/contracts/utils/Strings.sol\":1887:1890  0xf */\n  0x0f\n    /* \"@openzeppelin/contracts/utils/Strings.sol\":1879:1884  value */\n  dup7\n    /* \"@openzeppelin/contracts/utils/Strings.sol\":1879:1890  value & 0xf */\n  and\n    /* \"@openzeppelin/contracts/utils/Strings.sol\":1866:1891  _HEX_SYMBOLS[value & 0xf] */\n  0x10\n  dup2\n  lt\n  tag_58\n  jumpi\n  tag_59\n  tag_50\n  jump\t// in\ntag_59:\ntag_58:\n  byte\n  0xf8\n  shl\n    /* \"@openzeppelin/contracts/utils/Strings.sol\":1854:1860  buffer */\n  dup3\n    /* \"@openzeppelin/contracts/utils/Strings.sol\":1861:1862  i */\n  dup3\n    /* \"@openzeppelin/contracts/utils/Strings.sol\":1854:1863  buffer[i] */\n  dup2\n  mload\n  dup2\n  lt\n  tag_60\n  jumpi\n  tag_61\n  tag_50\n  jump\t// in\ntag_61:\ntag_60:\n  0x20\n  add\n  add\n    /* \"@openzeppelin/contracts/utils/Strings.sol\":1854:1891  buffer[i] = _HEX_SYMBOLS[value & 0xf] */\n  swap1\n  not(0xffffffffffffffffffffffffffffffffffffffffffffffffffffffffffffff)\n  and\n  swap1\n  dup2\n  0x00\n  byte\n  swap1\n  mstore8\n  pop\n    /* \"@openzeppelin/contracts/utils/Strings.sol\":1915:1916  4 */\n  0x04\n    /* \"@openzeppelin/contracts/utils/Strings.sol\":1905:1916  value >>= 4 */\n  dup6\n  swap1\n  shr\n  swap5\n  pop\n    /* \"@openzeppelin/contracts/utils/Strings.sol\":1835:1838  --i */\n  dup1\n  tag_62\n  swap1\n  tag_63\n  jump\t// in\ntag_62:\n  swap1\n  pop\n    /* \"@openzeppelin/contracts/utils/Strings.sol\":1795:1927  for (uint256 i = 2 * length + 1; i > 1; --i) {... */\n  jump(tag_53)\ntag_54:\n  pop\n    /* \"@openzeppelin/contracts/utils/Strings.sol\":1953:1954  0 */\n  0x00\n    /* \"@openzeppelin/contracts/utils/Strings.sol\":1944:1949  value */\n  dup5\n    /* \"@openzeppelin/contracts/utils/Strings.sol\":1944:1954  value == 0 */\n  eq\n    /* \"@openzeppelin/contracts/utils/Strings.sol\":1936:1991  require(value == 0, \"Strings: hex length insufficient\") */\n  tag_64\n  jumpi\n  mload(0x40)\n  0x08c379a000000000000000000000000000000000000000000000000000000000\n  dup2\n  mstore\n  0x04\n  add\n  tag_65\n  swap1\n  tag_66\n  jump\t// in\ntag_65:\n  mload(0x40)\n  dup1\n  swap2\n  sub\n  swap1\n  revert\ntag_64:\n    /* \"@openzeppelin/contracts/utils/Strings.sol\":2015:2021  buffer */\n  dup1\n    /* \"@openzeppelin/contracts/utils/Strings.sol\":2001:2022  return string(buffer) */\n  swap2\n  pop\n  pop\n    /* \"@openzeppelin/contracts/utils/Strings.sol\":1588:2029  function toHexString(uint256 value, uint256 length) internal pure returns (string memory) {... */\n  swap3\n  swap2\n  pop\n  pop\n  jump\t// out\n    /* \"#utility.yul\":88:205   */\ntag_68:\n    /* \"#utility.yul\":197:198   */\n  0x00\n    /* \"#utility.yul\":194:195   */\n  dup1\n    /* \"#utility.yul\":187:199   */\n  revert\n    /* \"#utility.yul\":334:460   */\ntag_70:\n    /* \"#utility.yul\":371:378   */\n  0x00\n    /* \"#utility.yul\":411:453   */\n  0xffffffffffffffffffffffffffffffffffffffff\n    /* \"#utility.yul\":404:409   */\n  dup3\n    /* \"#utility.yul\":400:454   */\n  and\n    /* \"#utility.yul\":389:454   */\n  swap1\n  pop\n    /* \"#utility.yul\":334:460   */\n  swap2\n  swap1\n  pop\n  jump\t// out\n    /* \"#utility.yul\":466:562   */\ntag_71:\n    /* \"#utility.yul\":503:510   */\n  0x00\n    /* \"#utility.yul\":532:556   */\n  tag_96\n    /* \"#utility.yul\":550:555   */\n  dup3\n    /* \"#utility.yul\":532:556   */\n  tag_70\n  jump\t// in\ntag_96:\n    /* \"#utility.yul\":521:556   */\n  swap1\n  pop\n    /* \"#utility.yul\":466:562   */\n  swap2\n  swap1\n  pop\n  jump\t// out\n    /* \"#utility.yul\":568:689   */\ntag_72:\n    /* \"#utility.yul\":630:637   */\n  0x00\n    /* \"#utility.yul\":659:683   */\n  tag_98\n    /* \"#utility.yul\":677:682   */\n  dup3\n    /* \"#utility.yul\":659:683   */\n  tag_71\n  jump\t// in\ntag_98:\n    /* \"#utility.yul\":648:683   */\n  swap1\n  pop\n    /* \"#utility.yul\":568:689   */\n  swap2\n  swap1\n  pop\n  jump\t// out\n    /* \"#utility.yul\":695:867   */\ntag_73:\n    /* \"#utility.yul\":793:842   */\n  tag_100\n    /* \"#utility.yul\":836:841   */\n  dup2\n    /* \"#utility.yul\":793:842   */\n  tag_72\n  jump\t// in\ntag_100:\n    /* \"#utility.yul\":786:791   */\n  dup2\n    /* \"#utility.yul\":783:843   */\n  eq\n    /* \"#utility.yul\":773:861   */\n  tag_101\n  jumpi\n    /* \"#utility.yul\":857:858   */\n  0x00\n    /* \"#utility.yul\":854:855   */\n  dup1\n    /* \"#utility.yul\":847:859   */\n  revert\n    /* \"#utility.yul\":773:861   */\ntag_101:\n    /* \"#utility.yul\":695:867   */\n  pop\n  jump\t// out\n    /* \"#utility.yul\":873:1066   */\ntag_74:\n    /* \"#utility.yul\":955:960   */\n  0x00\n    /* \"#utility.yul\":986:992   */\n  dup2\n    /* \"#utility.yul\":980:993   */\n  mload\n    /* \"#utility.yul\":971:993   */\n  swap1\n  pop\n    /* \"#utility.yul\":1002:1060   */\n  tag_103\n    /* \"#utility.yul\":1054:1059   */\n  dup2\n    /* \"#utility.yul\":1002:1060   */\n  tag_73\n  jump\t// in\ntag_103:\n    /* \"#utility.yul\":873:1066   */\n  swap3\n  swap2\n  pop\n  pop\n  jump\t// out\n    /* \"#utility.yul\":1072:1473   */\ntag_3:\n    /* \"#utility.yul\":1167:1173   */\n  0x00\n    /* \"#utility.yul\":1216:1218   */\n  0x20\n    /* \"#utility.yul\":1204:1213   */\n  dup3\n    /* \"#utility.yul\":1195:1202   */\n  dup5\n    /* \"#utility.yul\":1191:1214   */\n  sub\n    /* \"#utility.yul\":1187:1219   */\n  slt\n    /* \"#utility.yul\":1184:1303   */\n  iszero\n  tag_105\n  jumpi\n    /* \"#utility.yul\":1222:1301   */\n  tag_106\n  tag_68\n  jump\t// in\ntag_106:\n    /* \"#utility.yul\":1184:1303   */\ntag_105:\n    /* \"#utility.yul\":1342:1343   */\n  0x00\n    /* \"#utility.yul\":1367:1456   */\n  tag_107\n    /* \"#utility.yul\":1448:1455   */\n  dup5\n    /* \"#utility.yul\":1439:1445   */\n  dup3\n    /* \"#utility.yul\":1428:1437   */\n  dup6\n    /* \"#utility.yul\":1424:1446   */\n  add\n    /* \"#utility.yul\":1367:1456   */\n  tag_74\n  jump\t// in\ntag_107:\n    /* \"#utility.yul\":1357:1456   */\n  swap2\n  pop\n    /* \"#utility.yul\":1313:1466   */\n  pop\n    /* \"#utility.yul\":1072:1473   */\n  swap3\n  swap2\n  pop\n  pop\n  jump\t// out\n    /* \"#utility.yul\":1479:1627   */\ntag_75:\n    /* \"#utility.yul\":1581:1592   */\n  0x00\n    /* \"#utility.yul\":1618:1621   */\n  dup2\n    /* \"#utility.yul\":1603:1621   */\n  swap1\n  pop\n    /* \"#utility.yul\":1479:1627   */\n  swap3\n  swap2\n  pop\n  pop\n  jump\t// out\n    /* \"#utility.yul\":1633:1806   */\ntag_76:\n    /* \"#utility.yul\":1773:1798   */\n  0x416363657373436f6e74726f6c3a206163636f756e7420000000000000000000\n    /* \"#utility.yul\":1769:1770   */\n  0x00\n    /* \"#utility.yul\":1761:1767   */\n  dup3\n    /* \"#utility.yul\":1757:1771   */\n  add\n    /* \"#utility.yul\":1750:1799   */\n  mstore\n    /* \"#utility.yul\":1633:1806   */\n  pop\n  jump\t// out\n    /* \"#utility.yul\":1812:2214   */\ntag_77:\n    /* \"#utility.yul\":1972:1975   */\n  0x00\n    /* \"#utility.yul\":1993:2078   */\n  tag_111\n    /* \"#utility.yul\":2075:2077   */\n  0x17\n    /* \"#utility.yul\":2070:2073   */\n  dup4\n    /* \"#utility.yul\":1993:2078   */\n  tag_75\n  jump\t// in\ntag_111:\n    /* \"#utility.yul\":1986:2078   */\n  swap2\n  pop\n    /* \"#utility.yul\":2087:2180   */\n  tag_112\n    /* \"#utility.yul\":2176:2179   */\n  dup3\n    /* \"#utility.yul\":2087:2180   */\n  tag_76\n  jump\t// in\ntag_112:\n    /* \"#utility.yul\":2205:2207   */\n  0x17\n    /* \"#utility.yul\":2200:2203   */\n  dup3\n    /* \"#utility.yul\":2196:2208   */\n  add\n    /* \"#utility.yul\":2189:2208   */\n  swap1\n  pop\n    /* \"#utility.yul\":1812:2214   */\n  swap2\n  swap1\n  pop\n  jump\t// out\n    /* \"#utility.yul\":2220:2319   */\ntag_78:\n    /* \"#utility.yul\":2272:2278   */\n  0x00\n    /* \"#utility.yul\":2306:2311   */\n  dup2\n    /* \"#utility.yul\":2300:2312   */\n  mload\n    /* \"#utility.yul\":2290:2312   */\n  swap1\n  pop\n    /* \"#utility.yul\":2220:2319   */\n  swap2\n  swap1\n  pop\n  jump\t// out\n    /* \"#utility.yul\":2325:2632   */\ntag_79:\n    /* \"#utility.yul\":2393:2394   */\n  0x00\n    /* \"#utility.yul\":2403:2516   */\ntag_115:\n    /* \"#utility.yul\":2417:2423   */\n  dup4\n    /* \"#utility.yul\":2414:2415   */\n  dup2\n    /* \"#utility.yul\":2411:2424   */\n  lt\n    /* \"#utility.yul\":2403:2516   */\n  iszero\n  tag_117\n  jumpi\n    /* \"#utility.yul\":2502:2503   */\n  dup1\n    /* \"#utility.yul\":2497:2500   */\n  dup3\n    /* \"#utility.yul\":2493:2504   */\n  add\n    /* \"#utility.yul\":2487:2505   */\n  mload\n    /* \"#utility.yul\":2483:2484   */\n  dup2\n    /* \"#utility.yul\":2478:2481   */\n  dup5\n    /* \"#utility.yul\":2474:2485   */\n  add\n    /* \"#utility.yul\":2467:2506   */\n  mstore\n    /* \"#utility.yul\":2439:2441   */\n  0x20\n    /* \"#utility.yul\":2436:2437   */\n  dup2\n    /* \"#utility.yul\":2432:2442   */\n  add\n    /* \"#utility.yul\":2427:2442   */\n  swap1\n  pop\n    /* \"#utility.yul\":2403:2516   */\n  jump(tag_115)\ntag_117:\n    /* \"#utility.yul\":2534:2540   */\n  dup4\n    /* \"#utility.yul\":2531:2532   */\n  dup2\n    /* \"#utility.yul\":2528:2541   */\n  gt\n    /* \"#utility.yul\":2525:2626   */\n  iszero\n  tag_118\n  jumpi\n    /* \"#utility.yul\":2614:2615   */\n  0x00\n    /* \"#utility.yul\":2605:2611   */\n  dup5\n    /* \"#utility.yul\":2600:2603   */\n  dup5\n    /* \"#utility.yul\":2596:2612   */\n  add\n    /* \"#utility.yul\":2589:2616   */\n  mstore\n    /* \"#utility.yul\":2525:2626   */\ntag_118:\n    /* \"#utility.yul\":2374:2632   */\n  pop\n    /* \"#utility.yul\":2325:2632   */\n  pop\n  pop\n  pop\n  jump\t// out\n    /* \"#utility.yul\":2638:3015   */\ntag_80:\n    /* \"#utility.yul\":2744:2747   */\n  0x00\n    /* \"#utility.yul\":2772:2811   */\n  tag_120\n    /* \"#utility.yul\":2805:2810   */\n  dup3\n    /* \"#utility.yul\":2772:2811   */\n  tag_78\n  jump\t// in\ntag_120:\n    /* \"#utility.yul\":2827:2916   */\n  tag_121\n    /* \"#utility.yul\":2909:2915   */\n  dup2\n    /* \"#utility.yul\":2904:2907   */\n  dup6\n    /* \"#utility.yul\":2827:2916   */\n  tag_75\n  jump\t// in\ntag_121:\n    /* \"#utility.yul\":2820:2916   */\n  swap4\n  pop\n    /* \"#utility.yul\":2925:2977   */\n  tag_122\n    /* \"#utility.yul\":2970:2976   */\n  dup2\n    /* \"#utility.yul\":2965:2968   */\n  dup6\n    /* \"#utility.yul\":2958:2962   */\n  0x20\n    /* \"#utility.yul\":2951:2956   */\n  dup7\n    /* \"#utility.yul\":2947:2963   */\n  add\n    /* \"#utility.yul\":2925:2977   */\n  tag_79\n  jump\t// in\ntag_122:\n    /* \"#utility.yul\":3002:3008   */\n  dup1\n    /* \"#utility.yul\":2997:3000   */\n  dup5\n    /* \"#utility.yul\":2993:3009   */\n  add\n    /* \"#utility.yul\":2986:3009   */\n  swap2\n  pop\n    /* \"#utility.yul\":2748:3015   */\n  pop\n    /* \"#utility.yul\":2638:3015   */\n  swap3\n  swap2\n  pop\n  pop\n  jump\t// out\n    /* \"#utility.yul\":3021:3188   */\ntag_81:\n    /* \"#utility.yul\":3161:3180   */\n  0x206973206d697373696e6720726f6c6520000000000000000000000000000000\n    /* \"#utility.yul\":3157:3158   */\n  0x00\n    /* \"#utility.yul\":3149:3155   */\n  dup3\n    /* \"#utility.yul\":3145:3159   */\n  add\n    /* \"#utility.yul\":3138:3181   */\n  mstore\n    /* \"#utility.yul\":3021:3188   */\n  pop\n  jump\t// out\n    /* \"#utility.yul\":3194:3596   */\ntag_82:\n    /* \"#utility.yul\":3354:3357   */\n  0x00\n    /* \"#utility.yul\":3375:3460   */\n  tag_125\n    /* \"#utility.yul\":3457:3459   */\n  0x11\n    /* \"#utility.yul\":3452:3455   */\n  dup4\n    /* \"#utility.yul\":3375:3460   */\n  tag_75\n  jump\t// in\ntag_125:\n    /* \"#utility.yul\":3368:3460   */\n  swap2\n  pop\n    /* \"#utility.yul\":3469:3562   */\n  tag_126\n    /* \"#utility.yul\":3558:3561   */\n  dup3\n    /* \"#utility.yul\":3469:3562   */\n  tag_81\n  jump\t// in\ntag_126:\n    /* \"#utility.yul\":3587:3589   */\n  0x11\n    /* \"#utility.yul\":3582:3585   */\n  dup3\n    /* \"#utility.yul\":3578:3590   */\n  add\n    /* \"#utility.yul\":3571:3590   */\n  swap1\n  pop\n    /* \"#utility.yul\":3194:3596   */\n  swap2\n  swap1\n  pop\n  jump\t// out\n    /* \"#utility.yul\":3602:4569   */\ntag_36:\n    /* \"#utility.yul\":3984:3987   */\n  0x00\n    /* \"#utility.yul\":4006:4154   */\n  tag_128\n    /* \"#utility.yul\":4150:4153   */\n  dup3\n    /* \"#utility.yul\":4006:4154   */\n  tag_77\n  jump\t// in\ntag_128:\n    /* \"#utility.yul\":3999:4154   */\n  swap2\n  pop\n    /* \"#utility.yul\":4171:4266   */\n  tag_129\n    /* \"#utility.yul\":4262:4265   */\n  dup3\n    /* \"#utility.yul\":4253:4259   */\n  dup6\n    /* \"#utility.yul\":4171:4266   */\n  tag_80\n  jump\t// in\ntag_129:\n    /* \"#utility.yul\":4164:4266   */\n  swap2\n  pop\n    /* \"#utility.yul\":4283:4431   */\n  tag_130\n    /* \"#utility.yul\":4427:4430   */\n  dup3\n    /* \"#utility.yul\":4283:4431   */\n  tag_82\n  jump\t// in\ntag_130:\n    /* \"#utility.yul\":4276:4431   */\n  swap2\n  pop\n    /* \"#utility.yul\":4448:4543   */\n  tag_131\n    /* \"#utility.yul\":4539:4542   */\n  dup3\n    /* \"#utility.yul\":4530:4536   */\n  dup5\n    /* \"#utility.yul\":4448:4543   */\n  tag_80\n  jump\t// in\ntag_131:\n    /* \"#utility.yul\":4441:4543   */\n  swap2\n  pop\n    /* \"#utility.yul\":4560:4563   */\n  dup2\n    /* \"#utility.yul\":4553:4563   */\n  swap1\n  pop\n    /* \"#utility.yul\":3602:4569   */\n  swap4\n  swap3\n  pop\n  pop\n  pop\n  jump\t// out\n    /* \"#utility.yul\":4575:4744   */\ntag_83:\n    /* \"#utility.yul\":4659:4670   */\n  0x00\n    /* \"#utility.yul\":4693:4699   */\n  dup3\n    /* \"#utility.yul\":4688:4691   */\n  dup3\n    /* \"#utility.yul\":4681:4700   */\n  mstore\n    /* \"#utility.yul\":4733:4737   */\n  0x20\n    /* \"#utility.yul\":4728:4731   */\n  dup3\n    /* \"#utility.yul\":4724:4738   */\n  add\n    /* \"#utility.yul\":4709:4738   */\n  swap1\n  pop\n    /* \"#utility.yul\":4575:4744   */\n  swap3\n  swap2\n  pop\n  pop\n  jump\t// out\n    /* \"#utility.yul\":4750:4852   */\ntag_84:\n    /* \"#utility.yul\":4791:4797   */\n  0x00\n    /* \"#utility.yul\":4842:4844   */\n  0x1f\n    /* \"#utility.yul\":4838:4845   */\n  not\n    /* \"#utility.yul\":4833:4835   */\n  0x1f\n    /* \"#utility.yul\":4826:4831   */\n  dup4\n    /* \"#utility.yul\":4822:4836   */\n  add\n    /* \"#utility.yul\":4818:4846   */\n  and\n    /* \"#utility.yul\":4808:4846   */\n  swap1\n  pop\n    /* \"#utility.yul\":4750:4852   */\n  swap2\n  swap1\n  pop\n  jump\t// out\n    /* \"#utility.yul\":4858:5222   */\ntag_85:\n    /* \"#utility.yul\":4946:4949   */\n  0x00\n    /* \"#utility.yul\":4974:5013   */\n  tag_135\n    /* \"#utility.yul\":5007:5012   */\n  dup3\n    /* \"#utility.yul\":4974:5013   */\n  tag_78\n  jump\t// in\ntag_135:\n    /* \"#utility.yul\":5029:5100   */\n  tag_136\n    /* \"#utility.yul\":5093:5099   */\n  dup2\n    /* \"#utility.yul\":5088:5091   */\n  dup6\n    /* \"#utility.yul\":5029:5100   */\n  tag_83\n  jump\t// in\ntag_136:\n    /* \"#utility.yul\":5022:5100   */\n  swap4\n  pop\n    /* \"#utility.yul\":5109:5161   */\n  tag_137\n    /* \"#utility.yul\":5154:5160   */\n  dup2\n    /* \"#utility.yul\":5149:5152   */\n  dup6\n    /* \"#utility.yul\":5142:5146   */\n  0x20\n    /* \"#utility.yul\":5135:5140   */\n  dup7\n    /* \"#utility.yul\":5131:5147   */\n  add\n    /* \"#utility.yul\":5109:5161   */\n  tag_79\n  jump\t// in\ntag_137:\n    /* \"#utility.yul\":5186:5215   */\n  tag_138\n    /* \"#utility.yul\":5208:5214   */\n  dup2\n    /* \"#utility.yul\":5186:5215   */\n  tag_84\n  jump\t// in\ntag_138:\n    /* \"#utility.yul\":5181:5184   */\n  dup5\n    /* \"#utility.yul\":5177:5216   */\n  add\n    /* \"#utility.yul\":5170:5216   */\n  swap2\n  pop\n    /* \"#utility.yul\":4950:5222   */\n  pop\n    /* \"#utility.yul\":4858:5222   */\n  swap3\n  swap2\n  pop\n  pop\n  jump\t// out\n    /* \"#utility.yul\":5228:5541   */\ntag_38:\n    /* \"#utility.yul\":5341:5345   */\n  0x00\n    /* \"#utility.yul\":5379:5381   */\n  0x20\n    /* \"#utility.yul\":5368:5377   */\n  dup3\n    /* \"#utility.yul\":5364:5382   */\n  add\n    /* \"#utility.yul\":5356:5382   */\n  swap1\n  pop\n    /* \"#utility.yul\":5428:5437   */\n  dup2\n    /* \"#utility.yul\":5422:5426   */\n  dup2\n    /* \"#utility.yul\":5418:5438   */\n  sub\n    /* \"#utility.yul\":5414:5415   */\n  0x00\n    /* \"#utility.yul\":5403:5412   */\n  dup4\n    /* \"#utility.yul\":5399:5416   */\n  add\n    /* \"#utility.yul\":5392:5439   */\n  mstore\n    /* \"#utility.yul\":5456:5534   */\n  tag_140\n    /* \"#utility.yul\":5529:5533   */\n  dup2\n    /* \"#utility.yul\":5520:5526   */\n  dup5\n    /* \"#utility.yul\":5456:5534   */\n  tag_85\n  jump\t// in\ntag_140:\n    /* \"#utility.yul\":5448:5534   */\n  swap1\n  pop\n    /* \"#utility.yul\":5228:5541   */\n  swap3\n  swap2\n  pop\n  pop\n  jump\t// out\n    /* \"#utility.yul\":5547:5624   */\ntag_86:\n    /* \"#utility.yul\":5584:5591   */\n  0x00\n    /* \"#utility.yul\":5613:5618   */\n  dup2\n    /* \"#utility.yul\":5602:5618   */\n  swap1\n  pop\n    /* \"#utility.yul\":5547:5624   */\n  swap2\n  swap1\n  pop\n  jump\t// out\n    /* \"#utility.yul\":5630:5810   */\ntag_87:\n    /* \"#utility.yul\":5678:5755   */\n  0x4e487b7100000000000000000000000000000000000000000000000000000000\n    /* \"#utility.yul\":5675:5676   */\n  0x00\n    /* \"#utility.yul\":5668:5756   */\n  mstore\n    /* \"#utility.yul\":5775:5779   */\n  0x11\n    /* \"#utility.yul\":5772:5773   */\n  0x04\n    /* \"#utility.yul\":5765:5780   */\n  mstore\n    /* \"#utility.yul\":5799:5803   */\n  0x24\n    /* \"#utility.yul\":5796:5797   */\n  0x00\n    /* \"#utility.yul\":5789:5804   */\n  revert\n    /* \"#utility.yul\":5816:6164   */\ntag_41:\n    /* \"#utility.yul\":5856:5863   */\n  0x00\n    /* \"#utility.yul\":5879:5899   */\n  tag_144\n    /* \"#utility.yul\":5897:5898   */\n  dup3\n    /* \"#utility.yul\":5879:5899   */\n  tag_86\n  jump\t// in\ntag_144:\n    /* \"#utility.yul\":5874:5899   */\n  swap2\n  pop\n    /* \"#utility.yul\":5913:5933   */\n  tag_145\n    /* \"#utility.yul\":5931:5932   */\n  dup4\n    /* \"#utility.yul\":5913:5933   */\n  tag_86\n  jump\t// in\ntag_145:\n    /* \"#utility.yul\":5908:5933   */\n  swap3\n  pop\n    /* \"#utility.yul\":6101:6102   */\n  dup2\n    /* \"#utility.yul\":6033:6099   */\n  0xffffffffffffffffffffffffffffffffffffffffffffffffffffffffffffffff\n    /* \"#utility.yul\":6029:6103   */\n  div\n    /* \"#utility.yul\":6026:6027   */\n  dup4\n    /* \"#utility.yul\":6023:6104   */\n  gt\n    /* \"#utility.yul\":6018:6019   */\n  dup3\n    /* \"#utility.yul\":6011:6020   */\n  iszero\n    /* \"#utility.yul\":6004:6021   */\n  iszero\n    /* \"#utility.yul\":6000:6105   */\n  and\n    /* \"#utility.yul\":5997:6128   */\n  iszero\n  tag_146\n  jumpi\n    /* \"#utility.yul\":6108:6126   */\n  tag_147\n  tag_87\n  jump\t// in\ntag_147:\n    /* \"#utility.yul\":5997:6128   */\ntag_146:\n    /* \"#utility.yul\":6156:6157   */\n  dup3\n    /* \"#utility.yul\":6153:6154   */\n  dup3\n    /* \"#utility.yul\":6149:6158   */\n  mul\n    /* \"#utility.yul\":6138:6158   */\n  swap1\n  pop\n    /* \"#utility.yul\":5816:6164   */\n  swap3\n  swap2\n  pop\n  pop\n  jump\t// out\n    /* \"#utility.yul\":6170:6475   */\ntag_43:\n    /* \"#utility.yul\":6210:6213   */\n  0x00\n    /* \"#utility.yul\":6229:6249   */\n  tag_149\n    /* \"#utility.yul\":6247:6248   */\n  dup3\n    /* \"#utility.yul\":6229:6249   */\n  tag_86\n  jump\t// in\ntag_149:\n    /* \"#utility.yul\":6224:6249   */\n  swap2\n  pop\n    /* \"#utility.yul\":6263:6283   */\n  tag_150\n    /* \"#utility.yul\":6281:6282   */\n  dup4\n    /* \"#utility.yul\":6263:6283   */\n  tag_86\n  jump\t// in\ntag_150:\n    /* \"#utility.yul\":6258:6283   */\n  swap3\n  pop\n    /* \"#utility.yul\":6417:6418   */\n  dup3\n    /* \"#utility.yul\":6349:6415   */\n  0xffffffffffffffffffffffffffffffffffffffffffffffffffffffffffffffff\n    /* \"#utility.yul\":6345:6419   */\n  sub\n    /* \"#utility.yul\":6342:6343   */\n  dup3\n    /* \"#utility.yul\":6339:6420   */\n  gt\n    /* \"#utility.yul\":6336:6443   */\n  iszero\n  tag_151\n  jumpi\n    /* \"#utility.yul\":6423:6441   */\n  tag_152\n  tag_87\n  jump\t// in\ntag_152:\n    /* \"#utility.yul\":6336:6443   */\ntag_151:\n    /* \"#utility.yul\":6467:6468   */\n  dup3\n    /* \"#utility.yul\":6464:6465   */\n  dup3\n    /* \"#utility.yul\":6460:6469   */\n  add\n    /* \"#utility.yul\":6453:6469   */\n  swap1\n  pop\n    /* \"#utility.yul\":6170:6475   */\n  swap3\n  swap2\n  pop\n  pop\n  jump\t// out\n    /* \"#utility.yul\":6481:6661   */\ntag_46:\n    /* \"#utility.yul\":6529:6606   */\n  0x4e487b7100000000000000000000000000000000000000000000000000000000\n    /* \"#utility.yul\":6526:6527   */\n  0x00\n    /* \"#utility.yul\":6519:6607   */\n  mstore\n    /* \"#utility.yul\":6626:6630   */\n  0x41\n    /* \"#utility.yul\":6623:6624   */\n  0x04\n    /* \"#utility.yul\":6616:6631   */\n  mstore\n    /* \"#utility.yul\":6650:6654   */\n  0x24\n    /* \"#utility.yul\":6647:6648   */\n  0x00\n    /* \"#utility.yul\":6640:6655   */\n  revert\n    /* \"#utility.yul\":6667:6847   */\ntag_50:\n    /* \"#utility.yul\":6715:6792   */\n  0x4e487b7100000000000000000000000000000000000000000000000000000000\n    /* \"#utility.yul\":6712:6713   */\n  0x00\n    /* \"#utility.yul\":6705:6793   */\n  mstore\n    /* \"#utility.yul\":6812:6816   */\n  0x32\n    /* \"#utility.yul\":6809:6810   */\n  0x04\n    /* \"#utility.yul\":6802:6817   */\n  mstore\n    /* \"#utility.yul\":6836:6840   */\n  0x24\n    /* \"#utility.yul\":6833:6834   */\n  0x00\n    /* \"#utility.yul\":6826:6841   */\n  revert\n    /* \"#utility.yul\":6853:7024   */\ntag_63:\n    /* \"#utility.yul\":6892:6895   */\n  0x00\n    /* \"#utility.yul\":6915:6939   */\n  tag_156\n    /* \"#utility.yul\":6933:6938   */\n  dup3\n    /* \"#utility.yul\":6915:6939   */\n  tag_86\n  jump\t// in\ntag_156:\n    /* \"#utility.yul\":6906:6939   */\n  swap2\n  pop\n    /* \"#utility.yul\":6961:6965   */\n  0x00\n    /* \"#utility.yul\":6954:6959   */\n  dup3\n    /* \"#utility.yul\":6951:6966   */\n  sub\n    /* \"#utility.yul\":6948:6989   */\n  tag_157\n  jumpi\n    /* \"#utility.yul\":6969:6987   */\n  tag_158\n  tag_87\n  jump\t// in\ntag_158:\n    /* \"#utility.yul\":6948:6989   */\ntag_157:\n    /* \"#utility.yul\":7016:7017   */\n  0x01\n    /* \"#utility.yul\":7009:7014   */\n  dup3\n    /* \"#utility.yul\":7005:7018   */\n  sub\n    /* \"#utility.yul\":6998:7018   */\n  swap1\n  pop\n    /* \"#utility.yul\":6853:7024   */\n  swap2\n  swap1\n  pop\n  jump\t// out\n    /* \"#utility.yul\":7030:7212   */\ntag_88:\n    /* \"#utility.yul\":7170:7204   */\n  0x537472696e67733a20686578206c656e67746820696e73756666696369656e74\n    /* \"#utility.yul\":7166:7167   */\n  0x00\n    /* \"#utility.yul\":7158:7164   */\n  dup3\n    /* \"#utility.yul\":7154:7168   */\n  add\n    /* \"#utility.yul\":7147:7205   */\n  mstore\n    /* \"#utility.yul\":7030:7212   */\n  pop\n  jump\t// out\n    /* \"#utility.yul\":7218:7584   */\ntag_89:\n    /* \"#utility.yul\":7360:7363   */\n  0x00\n    /* \"#utility.yul\":7381:7448   */\n  tag_161\n    /* \"#utility.yul\":7445:7447   */\n  0x20\n    /* \"#utility.yul\":7440:7443   */\n  dup4\n    /* \"#utility.yul\":7381:7448   */\n  tag_83\n  jump\t// in\ntag_161:\n    /* \"#utility.yul\":7374:7448   */\n  swap2\n  pop\n    /* \"#utility.yul\":7457:7550   */\n  tag_162\n    /* \"#utility.yul\":7546:7549   */\n  dup3\n    /* \"#utility.yul\":7457:7550   */\n  tag_88\n  jump\t// in\ntag_162:\n    /* \"#utility.yul\":7575:7577   */\n  0x20\n    /* \"#utility.yul\":7570:7573   */\n  dup3\n    /* \"#utility.yul\":7566:7578   */\n  add\n    /* \"#utility.yul\":7559:7578   */\n  swap1\n  pop\n    /* \"#utility.yul\":7218:7584   */\n  swap2\n  swap1\n  pop\n  jump\t// out\n    /* \"#utility.yul\":7590:8009   */\ntag_66:\n    /* \"#utility.yul\":7756:7760   */\n  0x00\n    /* \"#utility.yul\":7794:7796   */\n  0x20\n    /* \"#utility.yul\":7783:7792   */\n  dup3\n    /* \"#utility.yul\":7779:7797   */\n  add\n    /* \"#utility.yul\":7771:7797   */\n  swap1\n  pop\n    /* \"#utility.yul\":7843:7852   */\n  dup2\n    /* \"#utility.yul\":7837:7841   */\n  dup2\n    /* \"#utility.yul\":7833:7853   */\n  sub\n    /* \"#utility.yul\":7829:7830   */\n  0x00\n    /* \"#utility.yul\":7818:7827   */\n  dup4\n    /* \"#utility.yul\":7814:7831   */\n  add\n    /* \"#utility.yul\":7807:7854   */\n  mstore\n    /* \"#utility.yul\":7871:8002   */\n  tag_164\n    /* \"#utility.yul\":7997:8001   */\n  dup2\n    /* \"#utility.yul\":7871:8002   */\n  tag_89\n  jump\t// in\ntag_164:\n    /* \"#utility.yul\":7863:8002   */\n  swap1\n  pop\n    /* \"#utility.yul\":7590:8009   */\n  swap2\n  swap1\n  pop\n  jump\t// out\n    /* \"MintNagaKids.sol\":268:1528  contract MintNagaKids is AccessControl, ReentrancyGuard {... */\ntag_12:\n  dataSize(sub_0)\n  dup1\n  dataOffset(sub_0)\n  0x00\n  codecopy\n  0x00\n  return\nstop\n\nsub_0: assembly {\n        /* \"MintNagaKids.sol\":268:1528  contract MintNagaKids is AccessControl, ReentrancyGuard {... */\n      mstore(0x40, 0x80)\n      jumpi(tag_1, lt(calldatasize, 0x04))\n      shr(0xe0, calldataload(0x00))\n      dup1\n      0x804f43cd\n      gt\n      tag_17\n      jumpi\n      dup1\n      0xa6f5f014\n      gt\n      tag_18\n      jumpi\n      dup1\n      0xa6f5f014\n      eq\n      tag_13\n      jumpi\n      dup1\n      0xc4e41b22\n      eq\n      tag_14\n      jumpi\n      dup1\n      0xd547741f\n      eq\n      tag_15\n      jumpi\n      dup1\n      0xdd31a7ba\n      eq\n      tag_16\n      jumpi\n      jump(tag_1)\n    tag_18:\n      dup1\n      0x804f43cd\n      eq\n      tag_9\n      jumpi\n      dup1\n      0x91d14854\n      eq\n      tag_10\n      jumpi\n      dup1\n      0x94f4504d\n      eq\n      tag_11\n      jumpi\n      dup1\n      0xa217fddf\n      eq\n      tag_12\n      jumpi\n      jump(tag_1)\n    tag_17:\n      dup1\n      0x28438f68\n      gt\n      tag_19\n      jumpi\n      dup1\n      0x28438f68\n      eq\n      tag_5\n      jumpi\n      dup1\n      0x2f2ff15d\n      eq\n      tag_6\n      jumpi\n      dup1\n      0x36568abe\n      eq\n      tag_7\n      jumpi\n      dup1\n      0x61aec205\n      eq\n      tag_8\n      jumpi\n      jump(tag_1)\n    tag_19:\n      dup1\n      0x01ffc9a7\n      eq\n      tag_2\n      jumpi\n      dup1\n      0x248a9ca3\n      eq\n      tag_3\n      jumpi\n      dup1\n      0x27c25c20\n      eq\n      tag_4\n      jumpi\n    tag_1:\n      0x00\n      dup1\n      revert\n        /* \"@openzeppelin/contracts/access/AccessControl.sol\":2606:2808  function supportsInterface(bytes4 interfaceId) public view virtual override returns (bool) {... */\n    tag_2:\n      callvalue\n      dup1\n      iszero\n      tag_20\n      jumpi\n      0x00\n      dup1\n      revert\n    tag_20:\n      pop\n      tag_21\n      0x04\n      dup1\n      calldatasize\n      sub\n      dup2\n      add\n      swap1\n      tag_22\n      swap2\n      swap1\n      tag_23\n      jump\t// in\n    tag_22:\n      tag_24\n      jump\t// in\n    tag_21:\n      mload(0x40)\n      tag_25\n      swap2\n      swap1\n      tag_26\n      jump\t// in\n    tag_25:\n      mload(0x40)\n      dup1\n      swap2\n      sub\n      swap1\n      return\n        /* \"@openzeppelin/contracts/access/AccessControl.sol\":4391:4520  function getRoleAdmin(bytes32 role) public view virtual override returns (bytes32) {... */\n    tag_3:\n      callvalue\n      dup1\n      iszero\n      tag_27\n      jumpi\n      0x00\n      dup1\n      revert\n    tag_27:\n      pop\n      tag_28\n      0x04\n      dup1\n      calldatasize\n      sub\n      dup2\n      add\n      swap1\n      tag_29\n      swap2\n      swap1\n      tag_30\n      jump\t// in\n    tag_29:\n      tag_31\n      jump\t// in\n    tag_28:\n      mload(0x40)\n      tag_32\n      swap2\n      swap1\n      tag_33\n      jump\t// in\n    tag_32:\n      mload(0x40)\n      dup1\n      swap2\n      sub\n      swap1\n      return\n        /* \"MintNagaKids.sol\":331:372  IERC721Enumerable public nagaKidsContract */\n    tag_4:\n      callvalue\n      dup1\n      iszero\n      tag_34\n      jumpi\n      0x00\n      dup1\n      revert\n    tag_34:\n      pop\n      tag_35\n      tag_36\n      jump\t// in\n    tag_35:\n      mload(0x40)\n      tag_37\n      swap2\n      swap1\n      tag_38\n      jump\t// in\n    tag_37:\n      mload(0x40)\n      dup1\n      swap2\n      sub\n      swap1\n      return\n        /* \"MintNagaKids.sol\":935:1079  function changeFreeMintOpen(bool _isOpen)... */\n    tag_5:\n      callvalue\n      dup1\n      iszero\n      tag_39\n      jumpi\n      0x00\n      dup1\n      revert\n    tag_39:\n      pop\n      tag_40\n      0x04\n      dup1\n      calldatasize\n      sub\n      dup2\n      add\n      swap1\n      tag_41\n      swap2\n      swap1\n      tag_42\n      jump\t// in\n    tag_41:\n      tag_43\n      jump\t// in\n    tag_40:\n      stop\n        /* \"@openzeppelin/contracts/access/AccessControl.sol\":4770:4915  function grantRole(bytes32 role, address account) public virtual override onlyRole(getRoleAdmin(role)) {... */\n    tag_6:\n      callvalue\n      dup1\n      iszero\n      tag_44\n      jumpi\n      0x00\n      dup1\n      revert\n    tag_44:\n      pop\n      tag_45\n      0x04\n      dup1\n      calldatasize\n      sub\n      dup2\n      add\n      swap1\n      tag_46\n      swap2\n      swap1\n      tag_47\n      jump\t// in\n    tag_46:\n      tag_48\n      jump\t// in\n    tag_45:\n      stop\n        /* \"@openzeppelin/contracts/access/AccessControl.sol\":5787:6001  function renounceRole(bytes32 role, address account) public virtual override {... */\n    tag_7:\n      callvalue\n      dup1\n      iszero\n      tag_49\n      jumpi\n      0x00\n      dup1\n      revert\n    tag_49:\n      pop\n      tag_50\n      0x04\n      dup1\n      calldatasize\n      sub\n      dup2\n      add\n      swap1\n      tag_51\n      swap2\n      swap1\n      tag_47\n      jump\t// in\n    tag_51:\n      tag_52\n      jump\t// in\n    tag_50:\n      stop\n        /* \"MintNagaKids.sol\":602:769  function changeNagaKidsContract(IERC721Enumerable _nagaKids)... */\n    tag_8:\n      callvalue\n      dup1\n      iszero\n      tag_53\n      jumpi\n      0x00\n      dup1\n      revert\n    tag_53:\n      pop\n      tag_54\n      0x04\n      dup1\n      calldatasize\n      sub\n      dup2\n      add\n      swap1\n      tag_55\n      swap2\n      swap1\n      tag_56\n      jump\t// in\n    tag_55:\n      tag_57\n      jump\t// in\n    tag_54:\n      stop\n        /* \"MintNagaKids.sol\":1087:1280  function whitelistMint() public payable nonReentrant {... */\n    tag_9:\n      tag_58\n      tag_59\n      jump\t// in\n    tag_58:\n      stop\n        /* \"@openzeppelin/contracts/access/AccessControl.sol\":2895:3040  function hasRole(bytes32 role, address account) public view virtual override returns (bool) {... */\n    tag_10:\n      callvalue\n      dup1\n      iszero\n      tag_60\n      jumpi\n      0x00\n      dup1\n      revert\n    tag_60:\n      pop\n      tag_61\n      0x04\n      dup1\n      calldatasize\n      sub\n      dup2\n      add\n      swap1\n      tag_62\n      swap2\n      swap1\n      tag_47\n      jump\t// in\n    tag_62:\n      tag_63\n      jump\t// in\n    tag_61:\n      mload(0x40)\n      tag_64\n      swap2\n      swap1\n      tag_26\n      jump\t// in\n    tag_64:\n      mload(0x40)\n      dup1\n      swap2\n      sub\n      swap1\n      return\n        /* \"MintNagaKids.sol\":412:439  bool public isWhitelistOpen */\n    tag_11:\n      callvalue\n      dup1\n      iszero\n      tag_65\n      jumpi\n      0x00\n      dup1\n      revert\n    tag_65:\n      pop\n      tag_66\n      tag_67\n      jump\t// in\n    tag_66:\n      mload(0x40)\n      tag_68\n      swap2\n      swap1\n      tag_26\n      jump\t// in\n    tag_68:\n      mload(0x40)\n      dup1\n      swap2\n      sub\n      swap1\n      return\n        /* \"@openzeppelin/contracts/access/AccessControl.sol\":2027:2076  bytes32 public constant DEFAULT_ADMIN_ROLE = 0x00 */\n    tag_12:\n      callvalue\n      dup1\n      iszero\n      tag_69\n      jumpi\n      0x00\n      dup1\n      revert\n    tag_69:\n      pop\n      tag_70\n      tag_71\n      jump\t// in\n    tag_70:\n      mload(0x40)\n      tag_72\n      swap2\n      swap1\n      tag_33\n      jump\t// in\n    tag_72:\n      mload(0x40)\n      dup1\n      swap2\n      sub\n      swap1\n      return\n        /* \"MintNagaKids.sol\":379:405  bool public isFreeMintOpen */\n    tag_13:\n      callvalue\n      dup1\n      iszero\n      tag_73\n      jumpi\n      0x00\n      dup1\n      revert\n    tag_73:\n      pop\n      tag_74\n      tag_75\n      jump\t// in\n    tag_74:\n      mload(0x40)\n      tag_76\n      swap2\n      swap1\n      tag_26\n      jump\t// in\n    tag_76:\n      mload(0x40)\n      dup1\n      swap2\n      sub\n      swap1\n      return\n        /* \"MintNagaKids.sol\":1288:1400  function getTotalSupply() public view returns (uint256) {... */\n    tag_14:\n      callvalue\n      dup1\n      iszero\n      tag_77\n      jumpi\n      0x00\n      dup1\n      revert\n    tag_77:\n      pop\n      tag_78\n      tag_79\n      jump\t// in\n    tag_78:\n      mload(0x40)\n      tag_80\n      swap2\n      swap1\n      tag_81\n      jump\t// in\n    tag_80:\n      mload(0x40)\n      dup1\n      swap2\n      sub\n      swap1\n      return\n        /* \"@openzeppelin/contracts/access/AccessControl.sol\":5149:5296  function revokeRole(bytes32 role, address account) public virtual override onlyRole(getRoleAdmin(role)) {... */\n    tag_15:\n      callvalue\n      dup1\n      iszero\n      tag_82\n      jumpi\n      0x00\n      dup1\n      revert\n    tag_82:\n      pop\n      tag_83\n      0x04\n      dup1\n      calldatasize\n      sub\n      dup2\n      add\n      swap1\n      tag_84\n      swap2\n      swap1\n      tag_47\n      jump\t// in\n    tag_84:\n      tag_85\n      jump\t// in\n    tag_83:\n      stop\n        /* \"MintNagaKids.sol\":777:927  function changeWhitelistMintOpen(bool _isOpen)... */\n    tag_16:\n      callvalue\n      dup1\n      iszero\n      tag_86\n      jumpi\n      0x00\n      dup1\n      revert\n    tag_86:\n      pop\n      tag_87\n      0x04\n      dup1\n      calldatasize\n      sub\n      dup2\n      add\n      swap1\n      tag_88\n      swap2\n      swap1\n      tag_42\n      jump\t// in\n    tag_88:\n      tag_89\n      jump\t// in\n    tag_87:\n      stop\n        /* \"@openzeppelin/contracts/access/AccessControl.sol\":2606:2808  function supportsInterface(bytes4 interfaceId) public view virtual override returns (bool) {... */\n    tag_24:\n        /* \"@openzeppelin/contracts/access/AccessControl.sol\":2691:2695  bool */\n      0x00\n        /* \"@openzeppelin/contracts/access/AccessControl.sol\":2729:2761  type(IAccessControl).interfaceId */\n      0x7965db0b00000000000000000000000000000000000000000000000000000000\n        /* \"@openzeppelin/contracts/access/AccessControl.sol\":2714:2761  interfaceId == type(IAccessControl).interfaceId */\n      not(0xffffffffffffffffffffffffffffffffffffffffffffffffffffffff)\n      and\n        /* \"@openzeppelin/contracts/access/AccessControl.sol\":2714:2725  interfaceId */\n      dup3\n        /* \"@openzeppelin/contracts/access/AccessControl.sol\":2714:2761  interfaceId == type(IAccessControl).interfaceId */\n      not(0xffffffffffffffffffffffffffffffffffffffffffffffffffffffff)\n      and\n      eq\n        /* \"@openzeppelin/contracts/access/AccessControl.sol\":2714:2801  interfaceId == type(IAccessControl).interfaceId || super.supportsInterface(interfaceId) */\n      dup1\n      tag_92\n      jumpi\n      pop\n        /* \"@openzeppelin/contracts/access/AccessControl.sol\":2765:2801  super.supportsInterface(interfaceId) */\n      tag_93\n        /* \"@openzeppelin/contracts/access/AccessControl.sol\":2789:2800  interfaceId */\n      dup3\n        /* \"@openzeppelin/contracts/access/AccessControl.sol\":2765:2788  super.supportsInterface */\n      tag_94\n        /* \"@openzeppelin/contracts/access/AccessControl.sol\":2765:2801  super.supportsInterface(interfaceId) */\n      jump\t// in\n    tag_93:\n        /* \"@openzeppelin/contracts/access/AccessControl.sol\":2714:2801  interfaceId == type(IAccessControl).interfaceId || super.supportsInterface(interfaceId) */\n    tag_92:\n        /* \"@openzeppelin/contracts/access/AccessControl.sol\":2707:2801  return interfaceId == type(IAccessControl).interfaceId || super.supportsInterface(interfaceId) */\n      swap1\n      pop\n        /* \"@openzeppelin/contracts/access/AccessControl.sol\":2606:2808  function supportsInterface(bytes4 interfaceId) public view virtual override returns (bool) {... */\n      swap2\n      swap1\n      pop\n      jump\t// out\n        /* \"@openzeppelin/contracts/access/AccessControl.sol\":4391:4520  function getRoleAdmin(bytes32 role) public view virtual override returns (bytes32) {... */\n    tag_31:\n        /* \"@openzeppelin/contracts/access/AccessControl.sol\":4465:4472  bytes32 */\n      0x00\n        /* \"@openzeppelin/contracts/access/AccessControl.sol\":4491:4497  _roles */\n      dup1\n        /* \"@openzeppelin/contracts/access/AccessControl.sol\":4491:4503  _roles[role] */\n      0x00\n        /* \"@openzeppelin/contracts/access/AccessControl.sol\":4498:4502  role */\n      dup4\n        /* \"@openzeppelin/contracts/access/AccessControl.sol\":4491:4503  _roles[role] */\n      dup2\n      mstore\n      0x20\n      add\n      swap1\n      dup2\n      mstore\n      0x20\n      add\n      0x00\n      keccak256\n        /* \"@openzeppelin/contracts/access/AccessControl.sol\":4491:4513  _roles[role].adminRole */\n      0x01\n      add\n      sload\n        /* \"@openzeppelin/contracts/access/AccessControl.sol\":4484:4513  return _roles[role].adminRole */\n      swap1\n      pop\n        /* \"@openzeppelin/contracts/access/AccessControl.sol\":4391:4520  function getRoleAdmin(bytes32 role) public view virtual override returns (bytes32) {... */\n      swap2\n      swap1\n      pop\n      jump\t// out\n        /* \"MintNagaKids.sol\":331:372  IERC721Enumerable public nagaKidsContract */\n    tag_36:\n      0x02\n      0x00\n      swap1\n      sload\n      swap1\n      0x0100\n      exp\n      swap1\n      div\n      0xffffffffffffffffffffffffffffffffffffffff\n      and\n      dup2\n      jump\t// out\n        /* \"MintNagaKids.sol\":935:1079  function changeFreeMintOpen(bool _isOpen)... */\n    tag_43:\n        /* \"@openzeppelin/contracts/access/AccessControl.sol\":2072:2076  0x00 */\n      0x00\n        /* \"MintNagaKids.sol\":1011:1029  DEFAULT_ADMIN_ROLE */\n      dup1\n      shl\n        /* \"@openzeppelin/contracts/access/AccessControl.sol\":2505:2521  _checkRole(role) */\n      tag_97\n        /* \"@openzeppelin/contracts/access/AccessControl.sol\":2516:2520  role */\n      dup2\n        /* \"@openzeppelin/contracts/access/AccessControl.sol\":2505:2515  _checkRole */\n      tag_98\n        /* \"@openzeppelin/contracts/access/AccessControl.sol\":2505:2521  _checkRole(role) */\n      jump\t// in\n    tag_97:\n        /* \"MintNagaKids.sol\":1064:1071  _isOpen */\n      dup2\n        /* \"MintNagaKids.sol\":1047:1061  isFreeMintOpen */\n      0x02\n      0x14\n        /* \"MintNagaKids.sol\":1047:1071  isFreeMintOpen = _isOpen */\n      0x0100\n      exp\n      dup2\n      sload\n      dup2\n      0xff\n      mul\n      not\n      and\n      swap1\n      dup4\n      iszero\n      iszero\n      mul\n      or\n      swap1\n      sstore\n      pop\n        /* \"MintNagaKids.sol\":935:1079  function changeFreeMintOpen(bool _isOpen)... */\n      pop\n      pop\n      jump\t// out\n        /* \"@openzeppelin/contracts/access/AccessControl.sol\":4770:4915  function grantRole(bytes32 role, address account) public virtual override onlyRole(getRoleAdmin(role)) {... */\n    tag_48:\n        /* \"@openzeppelin/contracts/access/AccessControl.sol\":4853:4871  getRoleAdmin(role) */\n      tag_100\n        /* \"@openzeppelin/contracts/access/AccessControl.sol\":4866:4870  role */\n      dup3\n        /* \"@openzeppelin/contracts/access/AccessControl.sol\":4853:4865  getRoleAdmin */\n      tag_31\n        /* \"@openzeppelin/contracts/access/AccessControl.sol\":4853:4871  getRoleAdmin(role) */\n      jump\t// in\n    tag_100:\n        /* \"@openzeppelin/contracts/access/AccessControl.sol\":2505:2521  _checkRole(role) */\n      tag_102\n        /* \"@openzeppelin/contracts/access/AccessControl.sol\":2516:2520  role */\n      dup2\n        /* \"@openzeppelin/contracts/access/AccessControl.sol\":2505:2515  _checkRole */\n      tag_98\n        /* \"@openzeppelin/contracts/access/AccessControl.sol\":2505:2521  _checkRole(role) */\n      jump\t// in\n    tag_102:\n        /* \"@openzeppelin/contracts/access/AccessControl.sol\":4883:4908  _grantRole(role, account) */\n      tag_104\n        /* \"@openzeppelin/contracts/access/AccessControl.sol\":4894:4898  role */\n      dup4\n        /* \"@openzeppelin/contracts/access/AccessControl.sol\":4900:4907  account */\n      dup4\n        /* \"@openzeppelin/contracts/access/AccessControl.sol\":4883:4893  _grantRole */\n      tag_105\n        /* \"@openzeppelin/contracts/access/AccessControl.sol\":4883:4908  _grantRole(role, account) */\n      jump\t// in\n    tag_104:\n        /* \"@openzeppelin/contracts/access/AccessControl.sol\":4770:4915  function grantRole(bytes32 role, address account) public virtual override onlyRole(getRoleAdmin(role)) {... */\n      pop\n      pop\n      pop\n      jump\t// out\n        /* \"@openzeppelin/contracts/access/AccessControl.sol\":5787:6001  function renounceRole(bytes32 role, address account) public virtual override {... */\n    tag_52:\n        /* \"@openzeppelin/contracts/access/AccessControl.sol\":5893:5905  _msgSender() */\n      tag_107\n        /* \"@openzeppelin/contracts/access/AccessControl.sol\":5893:5903  _msgSender */\n      tag_108\n        /* \"@openzeppelin/contracts/access/AccessControl.sol\":5893:5905  _msgSender() */\n      jump\t// in\n    tag_107:\n        /* \"@openzeppelin/contracts/access/AccessControl.sol\":5882:5905  account == _msgSender() */\n      0xffffffffffffffffffffffffffffffffffffffff\n      and\n        /* \"@openzeppelin/contracts/access/AccessControl.sol\":5882:5889  account */\n      dup2\n        /* \"@openzeppelin/contracts/access/AccessControl.sol\":5882:5905  account == _msgSender() */\n      0xffffffffffffffffffffffffffffffffffffffff\n      and\n      eq\n        /* \"@openzeppelin/contracts/access/AccessControl.sol\":5874:5957  require(account == _msgSender(), \"AccessControl: can only renounce roles for self\") */\n      tag_109\n      jumpi\n      mload(0x40)\n      0x08c379a000000000000000000000000000000000000000000000000000000000\n      dup2\n      mstore\n      0x04\n      add\n      tag_110\n      swap1\n      tag_111\n      jump\t// in\n    tag_110:\n      mload(0x40)\n      dup1\n      swap2\n      sub\n      swap1\n      revert\n    tag_109:\n        /* \"@openzeppelin/contracts/access/AccessControl.sol\":5968:5994  _revokeRole(role, account) */\n      tag_112\n        /* \"@openzeppelin/contracts/access/AccessControl.sol\":5980:5984  role */\n      dup3\n        /* \"@openzeppelin/contracts/access/AccessControl.sol\":5986:5993  account */\n      dup3\n        /* \"@openzeppelin/contracts/access/AccessControl.sol\":5968:5979  _revokeRole */\n      tag_113\n        /* \"@openzeppelin/contracts/access/AccessControl.sol\":5968:5994  _revokeRole(role, account) */\n      jump\t// in\n    tag_112:\n        /* \"@openzeppelin/contracts/access/AccessControl.sol\":5787:6001  function renounceRole(bytes32 role, address account) public virtual override {... */\n      pop\n      pop\n      jump\t// out\n        /* \"MintNagaKids.sol\":602:769  function changeNagaKidsContract(IERC721Enumerable _nagaKids)... */\n    tag_57:\n        /* \"@openzeppelin/contracts/access/AccessControl.sol\":2072:2076  0x00 */\n      0x00\n        /* \"MintNagaKids.sol\":697:715  DEFAULT_ADMIN_ROLE */\n      dup1\n      shl\n        /* \"@openzeppelin/contracts/access/AccessControl.sol\":2505:2521  _checkRole(role) */\n      tag_115\n        /* \"@openzeppelin/contracts/access/AccessControl.sol\":2516:2520  role */\n      dup2\n        /* \"@openzeppelin/contracts/access/AccessControl.sol\":2505:2515  _checkRole */\n      tag_98\n        /* \"@openzeppelin/contracts/access/AccessControl.sol\":2505:2521  _checkRole(role) */\n      jump\t// in\n    tag_115:\n        /* \"MintNagaKids.sol\":752:761  _nagaKids */\n      dup2\n        /* \"MintNagaKids.sol\":733:749  nagaKidsContract */\n      0x02\n      0x00\n        /* \"MintNagaKids.sol\":733:761  nagaKidsContract = _nagaKids */\n      0x0100\n      exp\n      dup2\n      sload\n      dup2\n      0xffffffffffffffffffffffffffffffffffffffff\n      mul\n      not\n      and\n      swap1\n      dup4\n      0xffffffffffffffffffffffffffffffffffffffff\n      and\n      mul\n      or\n      swap1\n      sstore\n      pop\n        /* \"MintNagaKids.sol\":602:769  function changeNagaKidsContract(IERC721Enumerable _nagaKids)... */\n      pop\n      pop\n      jump\t// out\n        /* \"MintNagaKids.sol\":1087:1280  function whitelistMint() public payable nonReentrant {... */\n    tag_59:\n        /* \"@openzeppelin/contracts/security/ReentrancyGuard.sol\":1744:1745  2 */\n      0x02\n        /* \"@openzeppelin/contracts/security/ReentrancyGuard.sol\":2325:2332  _status */\n      sload(0x01)\n        /* \"@openzeppelin/contracts/security/ReentrancyGuard.sol\":2325:2344  _status != _ENTERED */\n      sub\n        /* \"@openzeppelin/contracts/security/ReentrancyGuard.sol\":2317:2380  require(_status != _ENTERED, \"ReentrancyGuard: reentrant call\") */\n      tag_118\n      jumpi\n      mload(0x40)\n      0x08c379a000000000000000000000000000000000000000000000000000000000\n      dup2\n      mstore\n      0x04\n      add\n      tag_119\n      swap1\n      tag_120\n      jump\t// in\n    tag_119:\n      mload(0x40)\n      dup1\n      swap2\n      sub\n      swap1\n      revert\n    tag_118:\n        /* \"@openzeppelin/contracts/security/ReentrancyGuard.sol\":1744:1745  2 */\n      0x02\n        /* \"@openzeppelin/contracts/security/ReentrancyGuard.sol\":2455:2462  _status */\n      0x01\n        /* \"@openzeppelin/contracts/security/ReentrancyGuard.sol\":2455:2473  _status = _ENTERED */\n      dup2\n      swap1\n      sstore\n      pop\n        /* \"MintNagaKids.sol\":1178:1182  true */\n      0x01\n        /* \"MintNagaKids.sol\":1159:1182  isWhitelistOpen == true */\n      iszero\n      iszero\n        /* \"MintNagaKids.sol\":1159:1174  isWhitelistOpen */\n      0x02\n      0x15\n      swap1\n      sload\n      swap1\n      0x0100\n      exp\n      swap1\n      div\n      0xff\n      and\n        /* \"MintNagaKids.sol\":1159:1182  isWhitelistOpen == true */\n      iszero\n      iszero\n      eq\n        /* \"MintNagaKids.sol\":1151:1214  require(isWhitelistOpen == true, \"Whitelist not open to mint.\") */\n      tag_122\n      jumpi\n      mload(0x40)\n      0x08c379a000000000000000000000000000000000000000000000000000000000\n      dup2\n      mstore\n      0x04\n      add\n      tag_123\n      swap1\n      tag_124\n      jump\t// in\n    tag_123:\n      mload(0x40)\n      dup1\n      swap2\n      sub\n      swap1\n      revert\n    tag_122:\n        /* \"MintNagaKids.sol\":1252:1256  1111 */\n      0x0457\n        /* \"MintNagaKids.sol\":1233:1249  getTotalSupply() */\n      tag_125\n        /* \"MintNagaKids.sol\":1233:1247  getTotalSupply */\n      tag_79\n        /* \"MintNagaKids.sol\":1233:1249  getTotalSupply() */\n      jump\t// in\n    tag_125:\n        /* \"MintNagaKids.sol\":1233:1256  getTotalSupply() < 1111 */\n      lt\n        /* \"MintNagaKids.sol\":1225:1272  require(getTotalSupply() < 1111, \"Over supply\") */\n      tag_126\n      jumpi\n      mload(0x40)\n      0x08c379a000000000000000000000000000000000000000000000000000000000\n      dup2\n      mstore\n      0x04\n      add\n      tag_127\n      swap1\n      tag_128\n      jump\t// in\n    tag_127:\n      mload(0x40)\n      dup1\n      swap2\n      sub\n      swap1\n      revert\n    tag_126:\n        /* \"@openzeppelin/contracts/security/ReentrancyGuard.sol\":1701:1702  1 */\n      0x01\n        /* \"@openzeppelin/contracts/security/ReentrancyGuard.sol\":2628:2635  _status */\n      dup1\n        /* \"@openzeppelin/contracts/security/ReentrancyGuard.sol\":2628:2650  _status = _NOT_ENTERED */\n      dup2\n      swap1\n      sstore\n      pop\n        /* \"MintNagaKids.sol\":1087:1280  function whitelistMint() public payable nonReentrant {... */\n      jump\t// out\n        /* \"@openzeppelin/contracts/access/AccessControl.sol\":2895:3040  function hasRole(bytes32 role, address account) public view virtual override returns (bool) {... */\n    tag_63:\n        /* \"@openzeppelin/contracts/access/AccessControl.sol\":2981:2985  bool */\n      0x00\n        /* \"@openzeppelin/contracts/access/AccessControl.sol\":3004:3010  _roles */\n      dup1\n        /* \"@openzeppelin/contracts/access/AccessControl.sol\":3004:3016  _roles[role] */\n      0x00\n        /* \"@openzeppelin/contracts/access/AccessControl.sol\":3011:3015  role */\n      dup5\n        /* \"@openzeppelin/contracts/access/AccessControl.sol\":3004:3016  _roles[role] */\n      dup2\n      mstore\n      0x20\n      add\n      swap1\n      dup2\n      mstore\n      0x20\n      add\n      0x00\n      keccak256\n        /* \"@openzeppelin/contracts/access/AccessControl.sol\":3004:3024  _roles[role].members */\n      0x00\n      add\n        /* \"@openzeppelin/contracts/access/AccessControl.sol\":3004:3033  _roles[role].members[account] */\n      0x00\n        /* \"@openzeppelin/contracts/access/AccessControl.sol\":3025:3032  account */\n      dup4\n        /* \"@openzeppelin/contracts/access/AccessControl.sol\":3004:3033  _roles[role].members[account] */\n      0xffffffffffffffffffffffffffffffffffffffff\n      and\n      0xffffffffffffffffffffffffffffffffffffffff\n      and\n      dup2\n      mstore\n      0x20\n      add\n      swap1\n      dup2\n      mstore\n      0x20\n      add\n      0x00\n      keccak256\n      0x00\n      swap1\n      sload\n      swap1\n      0x0100\n      exp\n      swap1\n      div\n      0xff\n      and\n        /* \"@openzeppelin/contracts/access/AccessControl.sol\":2997:3033  return _roles[role].members[account] */\n      swap1\n      pop\n        /* \"@openzeppelin/contracts/access/AccessControl.sol\":2895:3040  function hasRole(bytes32 role, address account) public view virtual override returns (bool) {... */\n      swap3\n      swap2\n      pop\n      pop\n      jump\t// out\n        /* \"MintNagaKids.sol\":412:439  bool public isWhitelistOpen */\n    tag_67:\n      0x02\n      0x15\n      swap1\n      sload\n      swap1\n      0x0100\n      exp\n      swap1\n      div\n      0xff\n      and\n      dup2\n      jump\t// out\n        /* \"@openzeppelin/contracts/access/AccessControl.sol\":2027:2076  bytes32 public constant DEFAULT_ADMIN_ROLE = 0x00 */\n    tag_71:\n        /* \"@openzeppelin/contracts/access/AccessControl.sol\":2072:2076  0x00 */\n      0x00\n        /* \"@openzeppelin/contracts/access/AccessControl.sol\":2027:2076  bytes32 public constant DEFAULT_ADMIN_ROLE = 0x00 */\n      dup1\n      shl\n      dup2\n      jump\t// out\n        /* \"MintNagaKids.sol\":379:405  bool public isFreeMintOpen */\n    tag_75:\n      0x02\n      0x14\n      swap1\n      sload\n      swap1\n      0x0100\n      exp\n      swap1\n      div\n      0xff\n      and\n      dup2\n      jump\t// out\n        /* \"MintNagaKids.sol\":1288:1400  function getTotalSupply() public view returns (uint256) {... */\n    tag_79:\n        /* \"MintNagaKids.sol\":1335:1342  uint256 */\n      0x00\n        /* \"MintNagaKids.sol\":1362:1378  nagaKidsContract */\n      0x02\n      0x00\n      swap1\n      sload\n      swap1\n      0x0100\n      exp\n      swap1\n      div\n      0xffffffffffffffffffffffffffffffffffffffff\n      and\n        /* \"MintNagaKids.sol\":1362:1390  nagaKidsContract.totalSupply */\n      0xffffffffffffffffffffffffffffffffffffffff\n      and\n      0x18160ddd\n        /* \"MintNagaKids.sol\":1362:1392  nagaKidsContract.totalSupply() */\n      mload(0x40)\n      dup2\n      0xffffffff\n      and\n      0xe0\n      shl\n      dup2\n      mstore\n      0x04\n      add\n      0x20\n      mload(0x40)\n      dup1\n      dup4\n      sub\n      dup2\n      dup7\n      gas\n      staticcall\n      iszero\n      dup1\n      iszero\n      tag_132\n      jumpi\n      returndatasize\n      0x00\n      dup1\n      returndatacopy\n      revert(0x00, returndatasize)\n    tag_132:\n      pop\n      pop\n      pop\n      pop\n      mload(0x40)\n      returndatasize\n      not(0x1f)\n      0x1f\n      dup3\n      add\n      and\n      dup3\n      add\n      dup1\n      0x40\n      mstore\n      pop\n      dup2\n      add\n      swap1\n      tag_133\n      swap2\n      swap1\n      tag_134\n      jump\t// in\n    tag_133:\n        /* \"MintNagaKids.sol\":1355:1392  return nagaKidsContract.totalSupply() */\n      swap1\n      pop\n        /* \"MintNagaKids.sol\":1288:1400  function getTotalSupply() public view returns (uint256) {... */\n      swap1\n      jump\t// out\n        /* \"@openzeppelin/contracts/access/AccessControl.sol\":5149:5296  function revokeRole(bytes32 role, address account) public virtual override onlyRole(getRoleAdmin(role)) {... */\n    tag_85:\n        /* \"@openzeppelin/contracts/access/AccessControl.sol\":5233:5251  getRoleAdmin(role) */\n      tag_135\n        /* \"@openzeppelin/contracts/access/AccessControl.sol\":5246:5250  role */\n      dup3\n        /* \"@openzeppelin/contracts/access/AccessControl.sol\":5233:5245  getRoleAdmin */\n      tag_31\n        /* \"@openzeppelin/contracts/access/AccessControl.sol\":5233:5251  getRoleAdmin(role) */\n      jump\t// in\n    tag_135:\n        /* \"@openzeppelin/contracts/access/AccessControl.sol\":2505:2521  _checkRole(role) */\n      tag_137\n        /* \"@openzeppelin/contracts/access/AccessControl.sol\":2516:2520  role */\n      dup2\n        /* \"@openzeppelin/contracts/access/AccessControl.sol\":2505:2515  _checkRole */\n      tag_98\n        /* \"@openzeppelin/contracts/access/AccessControl.sol\":2505:2521  _checkRole(role) */\n      jump\t// in\n    tag_137:\n        /* \"@openzeppelin/contracts/access/AccessControl.sol\":5263:5289  _revokeRole(role, account) */\n      tag_139\n        /* \"@openzeppelin/contracts/access/AccessControl.sol\":5275:5279  role */\n      dup4\n        /* \"@openzeppelin/contracts/access/AccessControl.sol\":5281:5288  account */\n      dup4\n        /* \"@openzeppelin/contracts/access/AccessControl.sol\":5263:5274  _revokeRole */\n      tag_113\n        /* \"@openzeppelin/contracts/access/AccessControl.sol\":5263:5289  _revokeRole(role, account) */\n      jump\t// in\n    tag_139:\n        /* \"@openzeppelin/contracts/access/AccessControl.sol\":5149:5296  function revokeRole(bytes32 role, address account) public virtual override onlyRole(getRoleAdmin(role)) {... */\n      pop\n      pop\n      pop\n      jump\t// out\n        /* \"MintNagaKids.sol\":777:927  function changeWhitelistMintOpen(bool _isOpen)... */\n    tag_89:\n        /* \"@openzeppelin/contracts/access/AccessControl.sol\":2072:2076  0x00 */\n      0x00\n        /* \"MintNagaKids.sol\":858:876  DEFAULT_ADMIN_ROLE */\n      dup1\n      shl\n        /* \"@openzeppelin/contracts/access/AccessControl.sol\":2505:2521  _checkRole(role) */\n      tag_141\n        /* \"@openzeppelin/contracts/access/AccessControl.sol\":2516:2520  role */\n      dup2\n        /* \"@openzeppelin/contracts/access/AccessControl.sol\":2505:2515  _checkRole */\n      tag_98\n        /* \"@openzeppelin/contracts/access/AccessControl.sol\":2505:2521  _checkRole(role) */\n      jump\t// in\n    tag_141:\n        /* \"MintNagaKids.sol\":912:919  _isOpen */\n      dup2\n        /* \"MintNagaKids.sol\":894:909  isWhitelistOpen */\n      0x02\n      0x15\n        /* \"MintNagaKids.sol\":894:919  isWhitelistOpen = _isOpen */\n      0x0100\n      exp\n      dup2\n      sload\n      dup2\n      0xff\n      mul\n      not\n      and\n      swap1\n      dup4\n      iszero\n      iszero\n      mul\n      or\n      swap1\n      sstore\n      pop\n        /* \"MintNagaKids.sol\":777:927  function changeWhitelistMintOpen(bool _isOpen)... */\n      pop\n      pop\n      jump\t// out\n        /* \"@openzeppelin/contracts/utils/Strings.sol\":1588:2029  function toHexString(uint256 value, uint256 length) internal pure returns (string memory) {... */\n    tag_90:\n        /* \"@openzeppelin/contracts/utils/Strings.sol\":1663:1676  string memory */\n      0x60\n        /* \"@openzeppelin/contracts/utils/Strings.sol\":1688:1707  bytes memory buffer */\n      0x00\n        /* \"@openzeppelin/contracts/utils/Strings.sol\":1733:1734  2 */\n      0x02\n        /* \"@openzeppelin/contracts/utils/Strings.sol\":1724:1730  length */\n      dup4\n        /* \"@openzeppelin/contracts/utils/Strings.sol\":1720:1721  2 */\n      0x02\n        /* \"@openzeppelin/contracts/utils/Strings.sol\":1720:1730  2 * length */\n      tag_144\n      swap2\n      swap1\n      tag_145\n      jump\t// in\n    tag_144:\n        /* \"@openzeppelin/contracts/utils/Strings.sol\":1720:1734  2 * length + 2 */\n      tag_146\n      swap2\n      swap1\n      tag_147\n      jump\t// in\n    tag_146:\n        /* \"@openzeppelin/contracts/utils/Strings.sol\":1710:1735  new bytes(2 * length + 2) */\n      0xffffffffffffffff\n      dup2\n      gt\n      iszero\n      tag_148\n      jumpi\n      tag_149\n      tag_150\n      jump\t// in\n    tag_149:\n    tag_148:\n      mload(0x40)\n      swap1\n      dup1\n      dup3\n      mstore\n      dup1\n      0x1f\n      add\n      not(0x1f)\n      and\n      0x20\n      add\n      dup3\n      add\n      0x40\n      mstore\n      dup1\n      iszero\n      tag_151\n      jumpi\n      dup2\n      0x20\n      add\n      0x01\n      dup3\n      mul\n      dup1\n      calldatasize\n      dup4\n      calldatacopy\n      dup1\n      dup3\n      add\n      swap2\n      pop\n      pop\n      swap1\n      pop\n    tag_151:\n      pop\n        /* \"@openzeppelin/contracts/utils/Strings.sol\":1688:1735  bytes memory buffer = new bytes(2 * length + 2) */\n      swap1\n      pop\n        /* \"@openzeppelin/contracts/utils/Strings.sol\":1745:1760  buffer[0] = \"0\" */\n      0x3000000000000000000000000000000000000000000000000000000000000000\n        /* \"@openzeppelin/contracts/utils/Strings.sol\":1745:1751  buffer */\n      dup2\n        /* \"@openzeppelin/contracts/utils/Strings.sol\":1752:1753  0 */\n      0x00\n        /* \"@openzeppelin/contracts/utils/Strings.sol\":1745:1754  buffer[0] */\n      dup2\n      mload\n      dup2\n      lt\n      tag_152\n      jumpi\n      tag_153\n      tag_154\n      jump\t// in\n    tag_153:\n    tag_152:\n      0x20\n      add\n      add\n        /* \"@openzeppelin/contracts/utils/Strings.sol\":1745:1760  buffer[0] = \"0\" */\n      swap1\n      not(0xffffffffffffffffffffffffffffffffffffffffffffffffffffffffffffff)\n      and\n      swap1\n      dup2\n      0x00\n      byte\n      swap1\n      mstore8\n      pop\n        /* \"@openzeppelin/contracts/utils/Strings.sol\":1770:1785  buffer[1] = \"x\" */\n      0x7800000000000000000000000000000000000000000000000000000000000000\n        /* \"@openzeppelin/contracts/utils/Strings.sol\":1770:1776  buffer */\n      dup2\n        /* \"@openzeppelin/contracts/utils/Strings.sol\":1777:1778  1 */\n      0x01\n        /* \"@openzeppelin/contracts/utils/Strings.sol\":1770:1779  buffer[1] */\n      dup2\n      mload\n      dup2\n      lt\n      tag_155\n      jumpi\n      tag_156\n      tag_154\n      jump\t// in\n    tag_156:\n    tag_155:\n      0x20\n      add\n      add\n        /* \"@openzeppelin/contracts/utils/Strings.sol\":1770:1785  buffer[1] = \"x\" */\n      swap1\n      not(0xffffffffffffffffffffffffffffffffffffffffffffffffffffffffffffff)\n      and\n      swap1\n      dup2\n      0x00\n      byte\n      swap1\n      mstore8\n      pop\n        /* \"@openzeppelin/contracts/utils/Strings.sol\":1800:1809  uint256 i */\n      0x00\n        /* \"@openzeppelin/contracts/utils/Strings.sol\":1825:1826  1 */\n      0x01\n        /* \"@openzeppelin/contracts/utils/Strings.sol\":1816:1822  length */\n      dup5\n        /* \"@openzeppelin/contracts/utils/Strings.sol\":1812:1813  2 */\n      0x02\n        /* \"@openzeppelin/contracts/utils/Strings.sol\":1812:1822  2 * length */\n      tag_160\n      swap2\n      swap1\n      tag_145\n      jump\t// in\n    tag_160:\n        /* \"@openzeppelin/contracts/utils/Strings.sol\":1812:1826  2 * length + 1 */\n      tag_161\n      swap2\n      swap1\n      tag_147\n      jump\t// in\n    tag_161:\n        /* \"@openzeppelin/contracts/utils/Strings.sol\":1800:1826  uint256 i = 2 * length + 1 */\n      swap1\n      pop\n        /* \"@openzeppelin/contracts/utils/Strings.sol\":1795:1927  for (uint256 i = 2 * length + 1; i > 1; --i) {... */\n    tag_157:\n        /* \"@openzeppelin/contracts/utils/Strings.sol\":1832:1833  1 */\n      0x01\n        /* \"@openzeppelin/contracts/utils/Strings.sol\":1828:1829  i */\n      dup2\n        /* \"@openzeppelin/contracts/utils/Strings.sol\":1828:1833  i > 1 */\n      gt\n        /* \"@openzeppelin/contracts/utils/Strings.sol\":1795:1927  for (uint256 i = 2 * length + 1; i > 1; --i) {... */\n      iszero\n      tag_158\n      jumpi\n        /* \"@openzeppelin/contracts/utils/Strings.sol\":1866:1878  _HEX_SYMBOLS */\n      0x3031323334353637383961626364656600000000000000000000000000000000\n        /* \"@openzeppelin/contracts/utils/Strings.sol\":1887:1890  0xf */\n      0x0f\n        /* \"@openzeppelin/contracts/utils/Strings.sol\":1879:1884  value */\n      dup7\n        /* \"@openzeppelin/contracts/utils/Strings.sol\":1879:1890  value & 0xf */\n      and\n        /* \"@openzeppelin/contracts/utils/Strings.sol\":1866:1891  _HEX_SYMBOLS[value & 0xf] */\n      0x10\n      dup2\n      lt\n      tag_162\n      jumpi\n      tag_163\n      tag_154\n      jump\t// in\n    tag_163:\n    tag_162:\n      byte\n      0xf8\n      shl\n        /* \"@openzeppelin/contracts/utils/Strings.sol\":1854:1860  buffer */\n      dup3\n        /* \"@openzeppelin/contracts/utils/Strings.sol\":1861:1862  i */\n      dup3\n        /* \"@openzeppelin/contracts/utils/Strings.sol\":1854:1863  buffer[i] */\n      dup2\n      mload\n      dup2\n      lt\n      tag_164\n      jumpi\n      tag_165\n      tag_154\n      jump\t// in\n    tag_165:\n    tag_164:\n      0x20\n      add\n      add\n        /* \"@openzeppelin/contracts/utils/Strings.sol\":1854:1891  buffer[i] = _HEX_SYMBOLS[value & 0xf] */\n      swap1\n      not(0xffffffffffffffffffffffffffffffffffffffffffffffffffffffffffffff)\n      and\n      swap1\n      dup2\n      0x00\n      byte\n      swap1\n      mstore8\n      pop\n        /* \"@openzeppelin/contracts/utils/Strings.sol\":1915:1916  4 */\n      0x04\n        /* \"@openzeppelin/contracts/utils/Strings.sol\":1905:1916  value >>= 4 */\n      dup6\n      swap1\n      shr\n      swap5\n      pop\n        /* \"@openzeppelin/contracts/utils/Strings.sol\":1835:1838  --i */\n      dup1\n      tag_166\n      swap1\n      tag_167\n      jump\t// in\n    tag_166:\n      swap1\n      pop\n        /* \"@openzeppelin/contracts/utils/Strings.sol\":1795:1927  for (uint256 i = 2 * length + 1; i > 1; --i) {... */\n      jump(tag_157)\n    tag_158:\n      pop\n        /* \"@openzeppelin/contracts/utils/Strings.sol\":1953:1954  0 */\n      0x00\n        /* \"@openzeppelin/contracts/utils/Strings.sol\":1944:1949  value */\n      dup5\n        /* \"@openzeppelin/contracts/utils/Strings.sol\":1944:1954  value == 0 */\n      eq\n        /* \"@openzeppelin/contracts/utils/Strings.sol\":1936:1991  require(value == 0, \"Strings: hex length insufficient\") */\n      tag_168\n      jumpi\n      mload(0x40)\n      0x08c379a000000000000000000000000000000000000000000000000000000000\n      dup2\n      mstore\n      0x04\n      add\n      tag_169\n      swap1\n      tag_170\n      jump\t// in\n    tag_169:\n      mload(0x40)\n      dup1\n      swap2\n      sub\n      swap1\n      revert\n    tag_168:\n        /* \"@openzeppelin/contracts/utils/Strings.sol\":2015:2021  buffer */\n      dup1\n        /* \"@openzeppelin/contracts/utils/Strings.sol\":2001:2022  return string(buffer) */\n      swap2\n      pop\n      pop\n        /* \"@openzeppelin/contracts/utils/Strings.sol\":1588:2029  function toHexString(uint256 value, uint256 length) internal pure returns (string memory) {... */\n      swap3\n      swap2\n      pop\n      pop\n      jump\t// out\n        /* \"@openzeppelin/contracts/utils/introspection/ERC165.sol\":829:984  function supportsInterface(bytes4 interfaceId) public view virtual override returns (bool) {... */\n    tag_94:\n        /* \"@openzeppelin/contracts/utils/introspection/ERC165.sol\":914:918  bool */\n      0x00\n        /* \"@openzeppelin/contracts/utils/introspection/ERC165.sol\":952:977  type(IERC165).interfaceId */\n      0x01ffc9a700000000000000000000000000000000000000000000000000000000\n        /* \"@openzeppelin/contracts/utils/introspection/ERC165.sol\":937:977  interfaceId == type(IERC165).interfaceId */\n      not(0xffffffffffffffffffffffffffffffffffffffffffffffffffffffff)\n      and\n        /* \"@openzeppelin/contracts/utils/introspection/ERC165.sol\":937:948  interfaceId */\n      dup3\n        /* \"@openzeppelin/contracts/utils/introspection/ERC165.sol\":937:977  interfaceId == type(IERC165).interfaceId */\n      not(0xffffffffffffffffffffffffffffffffffffffffffffffffffffffff)\n      and\n      eq\n        /* \"@openzeppelin/contracts/utils/introspection/ERC165.sol\":930:977  return interfaceId == type(IERC165).interfaceId */\n      swap1\n      pop\n        /* \"@openzeppelin/contracts/utils/introspection/ERC165.sol\":829:984  function supportsInterface(bytes4 interfaceId) public view virtual override returns (bool) {... */\n      swap2\n      swap1\n      pop\n      jump\t// out\n        /* \"@openzeppelin/contracts/access/AccessControl.sol\":3334:3437  function _checkRole(bytes32 role) internal view virtual {... */\n    tag_98:\n        /* \"@openzeppelin/contracts/access/AccessControl.sol\":3400:3430  _checkRole(role, _msgSender()) */\n      tag_173\n        /* \"@openzeppelin/contracts/access/AccessControl.sol\":3411:3415  role */\n      dup2\n        /* \"@openzeppelin/contracts/access/AccessControl.sol\":3417:3429  _msgSender() */\n      tag_174\n        /* \"@openzeppelin/contracts/access/AccessControl.sol\":3417:3427  _msgSender */\n      tag_108\n        /* \"@openzeppelin/contracts/access/AccessControl.sol\":3417:3429  _msgSender() */\n      jump\t// in\n    tag_174:\n        /* \"@openzeppelin/contracts/access/AccessControl.sol\":3400:3410  _checkRole */\n      tag_175\n        /* \"@openzeppelin/contracts/access/AccessControl.sol\":3400:3430  _checkRole(role, _msgSender()) */\n      jump\t// in\n    tag_173:\n        /* \"@openzeppelin/contracts/access/AccessControl.sol\":3334:3437  function _checkRole(bytes32 role) internal view virtual {... */\n      pop\n      jump\t// out\n        /* \"@openzeppelin/contracts/access/AccessControl.sol\":7244:7477  function _grantRole(bytes32 role, address account) internal virtual {... */\n    tag_105:\n        /* \"@openzeppelin/contracts/access/AccessControl.sol\":7327:7349  hasRole(role, account) */\n      tag_177\n        /* \"@openzeppelin/contracts/access/AccessControl.sol\":7335:7339  role */\n      dup3\n        /* \"@openzeppelin/contracts/access/AccessControl.sol\":7341:7348  account */\n      dup3\n        /* \"@openzeppelin/contracts/access/AccessControl.sol\":7327:7334  hasRole */\n      tag_63\n        /* \"@openzeppelin/contracts/access/AccessControl.sol\":7327:7349  hasRole(role, account) */\n      jump\t// in\n    tag_177:\n        /* \"@openzeppelin/contracts/access/AccessControl.sol\":7322:7471  if (!hasRole(role, account)) {... */\n      tag_178\n      jumpi\n        /* \"@openzeppelin/contracts/access/AccessControl.sol\":7397:7401  true */\n      0x01\n        /* \"@openzeppelin/contracts/access/AccessControl.sol\":7365:7371  _roles */\n      0x00\n        /* \"@openzeppelin/contracts/access/AccessControl.sol\":7365:7377  _roles[role] */\n      dup1\n        /* \"@openzeppelin/contracts/access/AccessControl.sol\":7372:7376  role */\n      dup5\n        /* \"@openzeppelin/contracts/access/AccessControl.sol\":7365:7377  _roles[role] */\n      dup2\n      mstore\n      0x20\n      add\n      swap1\n      dup2\n      mstore\n      0x20\n      add\n      0x00\n      keccak256\n        /* \"@openzeppelin/contracts/access/AccessControl.sol\":7365:7385  _roles[role].members */\n      0x00\n      add\n        /* \"@openzeppelin/contracts/access/AccessControl.sol\":7365:7394  _roles[role].members[account] */\n      0x00\n        /* \"@openzeppelin/contracts/access/AccessControl.sol\":7386:7393  account */\n      dup4\n        /* \"@openzeppelin/contracts/access/AccessControl.sol\":7365:7394  _roles[role].members[account] */\n      0xffffffffffffffffffffffffffffffffffffffff\n      and\n      0xffffffffffffffffffffffffffffffffffffffff\n      and\n      dup2\n      mstore\n      0x20\n      add\n      swap1\n      dup2\n      mstore\n      0x20\n      add\n      0x00\n      keccak256\n      0x00\n        /* \"@openzeppelin/contracts/access/AccessControl.sol\":7365:7401  _roles[role].members[account] = true */\n      0x0100\n      exp\n      dup2\n      sload\n      dup2\n      0xff\n      mul\n      not\n      and\n      swap1\n      dup4\n      iszero\n      iszero\n      mul\n      or\n      swap1\n      sstore\n      pop\n        /* \"@openzeppelin/contracts/access/AccessControl.sol\":7447:7459  _msgSender() */\n      tag_179\n        /* \"@openzeppelin/contracts/access/AccessControl.sol\":7447:7457  _msgSender */\n      tag_108\n        /* \"@openzeppelin/contracts/access/AccessControl.sol\":7447:7459  _msgSender() */\n      jump\t// in\n    tag_179:\n        /* \"@openzeppelin/contracts/access/AccessControl.sol\":7420:7460  RoleGranted(role, account, _msgSender()) */\n      0xffffffffffffffffffffffffffffffffffffffff\n      and\n        /* \"@openzeppelin/contracts/access/AccessControl.sol\":7438:7445  account */\n      dup2\n        /* \"@openzeppelin/contracts/access/AccessControl.sol\":7420:7460  RoleGranted(role, account, _msgSender()) */\n      0xffffffffffffffffffffffffffffffffffffffff\n      and\n        /* \"@openzeppelin/contracts/access/AccessControl.sol\":7432:7436  role */\n      dup4\n        /* \"@openzeppelin/contracts/access/AccessControl.sol\":7420:7460  RoleGranted(role, account, _msgSender()) */\n      0x2f8788117e7eff1d82e926ec794901d17c78024a50270940304540a733656f0d\n      mload(0x40)\n      mload(0x40)\n      dup1\n      swap2\n      sub\n      swap1\n      log4\n        /* \"@openzeppelin/contracts/access/AccessControl.sol\":7322:7471  if (!hasRole(role, account)) {... */\n    tag_178:\n        /* \"@openzeppelin/contracts/access/AccessControl.sol\":7244:7477  function _grantRole(bytes32 role, address account) internal virtual {... */\n      pop\n      pop\n      jump\t// out\n        /* \"@openzeppelin/contracts/utils/Context.sol\":640:736  function _msgSender() internal view virtual returns (address) {... */\n    tag_108:\n        /* \"@openzeppelin/contracts/utils/Context.sol\":693:700  address */\n      0x00\n        /* \"@openzeppelin/contracts/utils/Context.sol\":719:729  msg.sender */\n      caller\n        /* \"@openzeppelin/contracts/utils/Context.sol\":712:729  return msg.sender */\n      swap1\n      pop\n        /* \"@openzeppelin/contracts/utils/Context.sol\":640:736  function _msgSender() internal view virtual returns (address) {... */\n      swap1\n      jump\t// out\n        /* \"@openzeppelin/contracts/access/AccessControl.sol\":7602:7836  function _revokeRole(bytes32 role, address account) internal virtual {... */\n    tag_113:\n        /* \"@openzeppelin/contracts/access/AccessControl.sol\":7685:7707  hasRole(role, account) */\n      tag_182\n        /* \"@openzeppelin/contracts/access/AccessControl.sol\":7693:7697  role */\n      dup3\n        /* \"@openzeppelin/contracts/access/AccessControl.sol\":7699:7706  account */\n      dup3\n        /* \"@openzeppelin/contracts/access/AccessControl.sol\":7685:7692  hasRole */\n      tag_63\n        /* \"@openzeppelin/contracts/access/AccessControl.sol\":7685:7707  hasRole(role, account) */\n      jump\t// in\n    tag_182:\n        /* \"@openzeppelin/contracts/access/AccessControl.sol\":7681:7830  if (hasRole(role, account)) {... */\n      iszero\n      tag_183\n      jumpi\n        /* \"@openzeppelin/contracts/access/AccessControl.sol\":7755:7760  false */\n      0x00\n        /* \"@openzeppelin/contracts/access/AccessControl.sol\":7723:7729  _roles */\n      dup1\n        /* \"@openzeppelin/contracts/access/AccessControl.sol\":7723:7735  _roles[role] */\n      0x00\n        /* \"@openzeppelin/contracts/access/AccessControl.sol\":7730:7734  role */\n      dup5\n        /* \"@openzeppelin/contracts/access/AccessControl.sol\":7723:7735  _roles[role] */\n      dup2\n      mstore\n      0x20\n      add\n      swap1\n      dup2\n      mstore\n      0x20\n      add\n      0x00\n      keccak256\n        /* \"@openzeppelin/contracts/access/AccessControl.sol\":7723:7743  _roles[role].members */\n      0x00\n      add\n        /* \"@openzeppelin/contracts/access/AccessControl.sol\":7723:7752  _roles[role].members[account] */\n      0x00\n        /* \"@openzeppelin/contracts/access/AccessControl.sol\":7744:7751  account */\n      dup4\n        /* \"@openzeppelin/contracts/access/AccessControl.sol\":7723:7752  _roles[role].members[account] */\n      0xffffffffffffffffffffffffffffffffffffffff\n      and\n      0xffffffffffffffffffffffffffffffffffffffff\n      and\n      dup2\n      mstore\n      0x20\n      add\n      swap1\n      dup2\n      mstore\n      0x20\n      add\n      0x00\n      keccak256\n      0x00\n        /* \"@openzeppelin/contracts/access/AccessControl.sol\":7723:7760  _roles[role].members[account] = false */\n      0x0100\n      exp\n      dup2\n      sload\n      dup2\n      0xff\n      mul\n      not\n      and\n      swap1\n      dup4\n      iszero\n      iszero\n      mul\n      or\n      swap1\n      sstore\n      pop\n        /* \"@openzeppelin/contracts/access/AccessControl.sol\":7806:7818  _msgSender() */\n      tag_184\n        /* \"@openzeppelin/contracts/access/AccessControl.sol\":7806:7816  _msgSender */\n      tag_108\n        /* \"@openzeppelin/contracts/access/AccessControl.sol\":7806:7818  _msgSender() */\n      jump\t// in\n    tag_184:\n        /* \"@openzeppelin/contracts/access/AccessControl.sol\":7779:7819  RoleRevoked(role, account, _msgSender()) */\n      0xffffffffffffffffffffffffffffffffffffffff\n      and\n        /* \"@openzeppelin/contracts/access/AccessControl.sol\":7797:7804  account */\n      dup2\n        /* \"@openzeppelin/contracts/access/AccessControl.sol\":7779:7819  RoleRevoked(role, account, _msgSender()) */\n      0xffffffffffffffffffffffffffffffffffffffff\n      and\n        /* \"@openzeppelin/contracts/access/AccessControl.sol\":7791:7795  role */\n      dup4\n        /* \"@openzeppelin/contracts/access/AccessControl.sol\":7779:7819  RoleRevoked(role, account, _msgSender()) */\n      0xf6391f5c32d9c69d2a47ea670b442974b53935d1edc7fd64eb21e047a839171b\n      mload(0x40)\n      mload(0x40)\n      dup1\n      swap2\n      sub\n      swap1\n      log4\n        /* \"@openzeppelin/contracts/access/AccessControl.sol\":7681:7830  if (hasRole(role, account)) {... */\n    tag_183:\n        /* \"@openzeppelin/contracts/access/AccessControl.sol\":7602:7836  function _revokeRole(bytes32 role, address account) internal virtual {... */\n      pop\n      pop\n      jump\t// out\n        /* \"@openzeppelin/contracts/access/AccessControl.sol\":3718:4210  function _checkRole(bytes32 role, address account) internal view virtual {... */\n    tag_175:\n        /* \"@openzeppelin/contracts/access/AccessControl.sol\":3806:3828  hasRole(role, account) */\n      tag_186\n        /* \"@openzeppelin/contracts/access/AccessControl.sol\":3814:3818  role */\n      dup3\n        /* \"@openzeppelin/contracts/access/AccessControl.sol\":3820:3827  account */\n      dup3\n        /* \"@openzeppelin/contracts/access/AccessControl.sol\":3806:3813  hasRole */\n      tag_63\n        /* \"@openzeppelin/contracts/access/AccessControl.sol\":3806:3828  hasRole(role, account) */\n      jump\t// in\n    tag_186:\n        /* \"@openzeppelin/contracts/access/AccessControl.sol\":3801:4204  if (!hasRole(role, account)) {... */\n      tag_187\n      jumpi\n        /* \"@openzeppelin/contracts/access/AccessControl.sol\":3989:4030  Strings.toHexString(uint160(account), 20) */\n      tag_188\n        /* \"@openzeppelin/contracts/access/AccessControl.sol\":4017:4024  account */\n      dup2\n        /* \"@openzeppelin/contracts/access/AccessControl.sol\":3989:4030  Strings.toHexString(uint160(account), 20) */\n      0xffffffffffffffffffffffffffffffffffffffff\n      and\n        /* \"@openzeppelin/contracts/access/AccessControl.sol\":4027:4029  20 */\n      0x14\n        /* \"@openzeppelin/contracts/access/AccessControl.sol\":3989:4008  Strings.toHexString */\n      tag_90\n        /* \"@openzeppelin/contracts/access/AccessControl.sol\":3989:4030  Strings.toHexString(uint160(account), 20) */\n      jump\t// in\n    tag_188:\n        /* \"@openzeppelin/contracts/access/AccessControl.sol\":4101:4139  Strings.toHexString(uint256(role), 32) */\n      tag_189\n        /* \"@openzeppelin/contracts/access/AccessControl.sol\":4129:4133  role */\n      dup4\n        /* \"@openzeppelin/contracts/access/AccessControl.sol\":4121:4134  uint256(role) */\n      0x00\n      shr\n        /* \"@openzeppelin/contracts/access/AccessControl.sol\":4136:4138  32 */\n      0x20\n        /* \"@openzeppelin/contracts/access/AccessControl.sol\":4101:4120  Strings.toHexString */\n      tag_90\n        /* \"@openzeppelin/contracts/access/AccessControl.sol\":4101:4139  Strings.toHexString(uint256(role), 32) */\n      jump\t// in\n    tag_189:\n        /* \"@openzeppelin/contracts/access/AccessControl.sol\":3896:4161  abi.encodePacked(... */\n      add(0x20, mload(0x40))\n      tag_190\n      swap3\n      swap2\n      swap1\n      tag_191\n      jump\t// in\n    tag_190:\n      mload(0x40)\n      0x20\n      dup2\n      dup4\n      sub\n      sub\n      dup2\n      mstore\n      swap1\n      0x40\n      mstore\n        /* \"@openzeppelin/contracts/access/AccessControl.sol\":3844:4193  revert(... */\n      mload(0x40)\n      0x08c379a000000000000000000000000000000000000000000000000000000000\n      dup2\n      mstore\n      0x04\n      add\n      tag_192\n      swap2\n      swap1\n      tag_193\n      jump\t// in\n    tag_192:\n      mload(0x40)\n      dup1\n      swap2\n      sub\n      swap1\n      revert\n        /* \"@openzeppelin/contracts/access/AccessControl.sol\":3801:4204  if (!hasRole(role, account)) {... */\n    tag_187:\n        /* \"@openzeppelin/contracts/access/AccessControl.sol\":3718:4210  function _checkRole(bytes32 role, address account) internal view virtual {... */\n      pop\n      pop\n      jump\t// out\n        /* \"#utility.yul\":88:205   */\n    tag_195:\n        /* \"#utility.yul\":197:198   */\n      0x00\n        /* \"#utility.yul\":194:195   */\n      dup1\n        /* \"#utility.yul\":187:199   */\n      revert\n        /* \"#utility.yul\":334:483   */\n    tag_197:\n        /* \"#utility.yul\":370:377   */\n      0x00\n        /* \"#utility.yul\":410:476   */\n      0xffffffff00000000000000000000000000000000000000000000000000000000\n        /* \"#utility.yul\":403:408   */\n      dup3\n        /* \"#utility.yul\":399:477   */\n      and\n        /* \"#utility.yul\":388:477   */\n      swap1\n      pop\n        /* \"#utility.yul\":334:483   */\n      swap2\n      swap1\n      pop\n      jump\t// out\n        /* \"#utility.yul\":489:609   */\n    tag_198:\n        /* \"#utility.yul\":561:584   */\n      tag_252\n        /* \"#utility.yul\":578:583   */\n      dup2\n        /* \"#utility.yul\":561:584   */\n      tag_197\n      jump\t// in\n    tag_252:\n        /* \"#utility.yul\":554:559   */\n      dup2\n        /* \"#utility.yul\":551:585   */\n      eq\n        /* \"#utility.yul\":541:603   */\n      tag_253\n      jumpi\n        /* \"#utility.yul\":599:600   */\n      0x00\n        /* \"#utility.yul\":596:597   */\n      dup1\n        /* \"#utility.yul\":589:601   */\n      revert\n        /* \"#utility.yul\":541:603   */\n    tag_253:\n        /* \"#utility.yul\":489:609   */\n      pop\n      jump\t// out\n        /* \"#utility.yul\":615:752   */\n    tag_199:\n        /* \"#utility.yul\":660:665   */\n      0x00\n        /* \"#utility.yul\":698:704   */\n      dup2\n        /* \"#utility.yul\":685:705   */\n      calldataload\n        /* \"#utility.yul\":676:705   */\n      swap1\n      pop\n        /* \"#utility.yul\":714:746   */\n      tag_255\n        /* \"#utility.yul\":740:745   */\n      dup2\n        /* \"#utility.yul\":714:746   */\n      tag_198\n      jump\t// in\n    tag_255:\n        /* \"#utility.yul\":615:752   */\n      swap3\n      swap2\n      pop\n      pop\n      jump\t// out\n        /* \"#utility.yul\":758:1085   */\n    tag_23:\n        /* \"#utility.yul\":816:822   */\n      0x00\n        /* \"#utility.yul\":865:867   */\n      0x20\n        /* \"#utility.yul\":853:862   */\n      dup3\n        /* \"#utility.yul\":844:851   */\n      dup5\n        /* \"#utility.yul\":840:863   */\n      sub\n        /* \"#utility.yul\":836:868   */\n      slt\n        /* \"#utility.yul\":833:952   */\n      iszero\n      tag_257\n      jumpi\n        /* \"#utility.yul\":871:950   */\n      tag_258\n      tag_195\n      jump\t// in\n    tag_258:\n        /* \"#utility.yul\":833:952   */\n    tag_257:\n        /* \"#utility.yul\":991:992   */\n      0x00\n        /* \"#utility.yul\":1016:1068   */\n      tag_259\n        /* \"#utility.yul\":1060:1067   */\n      dup5\n        /* \"#utility.yul\":1051:1057   */\n      dup3\n        /* \"#utility.yul\":1040:1049   */\n      dup6\n        /* \"#utility.yul\":1036:1058   */\n      add\n        /* \"#utility.yul\":1016:1068   */\n      tag_199\n      jump\t// in\n    tag_259:\n        /* \"#utility.yul\":1006:1068   */\n      swap2\n      pop\n        /* \"#utility.yul\":962:1078   */\n      pop\n        /* \"#utility.yul\":758:1085   */\n      swap3\n      swap2\n      pop\n      pop\n      jump\t// out\n        /* \"#utility.yul\":1091:1181   */\n    tag_200:\n        /* \"#utility.yul\":1125:1132   */\n      0x00\n        /* \"#utility.yul\":1168:1173   */\n      dup2\n        /* \"#utility.yul\":1161:1174   */\n      iszero\n        /* \"#utility.yul\":1154:1175   */\n      iszero\n        /* \"#utility.yul\":1143:1175   */\n      swap1\n      pop\n        /* \"#utility.yul\":1091:1181   */\n      swap2\n      swap1\n      pop\n      jump\t// out\n        /* \"#utility.yul\":1187:1296   */\n    tag_201:\n        /* \"#utility.yul\":1268:1289   */\n      tag_262\n        /* \"#utility.yul\":1283:1288   */\n      dup2\n        /* \"#utility.yul\":1268:1289   */\n      tag_200\n      jump\t// in\n    tag_262:\n        /* \"#utility.yul\":1263:1266   */\n      dup3\n        /* \"#utility.yul\":1256:1290   */\n      mstore\n        /* \"#utility.yul\":1187:1296   */\n      pop\n      pop\n      jump\t// out\n        /* \"#utility.yul\":1302:1512   */\n    tag_26:\n        /* \"#utility.yul\":1389:1393   */\n      0x00\n        /* \"#utility.yul\":1427:1429   */\n      0x20\n        /* \"#utility.yul\":1416:1425   */\n      dup3\n        /* \"#utility.yul\":1412:1430   */\n      add\n        /* \"#utility.yul\":1404:1430   */\n      swap1\n      pop\n        /* \"#utility.yul\":1440:1505   */\n      tag_264\n        /* \"#utility.yul\":1502:1503   */\n      0x00\n        /* \"#utility.yul\":1491:1500   */\n      dup4\n        /* \"#utility.yul\":1487:1504   */\n      add\n        /* \"#utility.yul\":1478:1484   */\n      dup5\n        /* \"#utility.yul\":1440:1505   */\n      tag_201\n      jump\t// in\n    tag_264:\n        /* \"#utility.yul\":1302:1512   */\n      swap3\n      swap2\n      pop\n      pop\n      jump\t// out\n        /* \"#utility.yul\":1518:1595   */\n    tag_202:\n        /* \"#utility.yul\":1555:1562   */\n      0x00\n        /* \"#utility.yul\":1584:1589   */\n      dup2\n        /* \"#utility.yul\":1573:1589   */\n      swap1\n      pop\n        /* \"#utility.yul\":1518:1595   */\n      swap2\n      swap1\n      pop\n      jump\t// out\n        /* \"#utility.yul\":1601:1723   */\n    tag_203:\n        /* \"#utility.yul\":1674:1698   */\n      tag_267\n        /* \"#utility.yul\":1692:1697   */\n      dup2\n        /* \"#utility.yul\":1674:1698   */\n      tag_202\n      jump\t// in\n    tag_267:\n        /* \"#utility.yul\":1667:1672   */\n      dup2\n        /* \"#utility.yul\":1664:1699   */\n      eq\n        /* \"#utility.yul\":1654:1717   */\n      tag_268\n      jumpi\n        /* \"#utility.yul\":1713:1714   */\n      0x00\n        /* \"#utility.yul\":1710:1711   */\n      dup1\n        /* \"#utility.yul\":1703:1715   */\n      revert\n        /* \"#utility.yul\":1654:1717   */\n    tag_268:\n        /* \"#utility.yul\":1601:1723   */\n      pop\n      jump\t// out\n        /* \"#utility.yul\":1729:1868   */\n    tag_204:\n        /* \"#utility.yul\":1775:1780   */\n      0x00\n        /* \"#utility.yul\":1813:1819   */\n      dup2\n        /* \"#utility.yul\":1800:1820   */\n      calldataload\n        /* \"#utility.yul\":1791:1820   */\n      swap1\n      pop\n        /* \"#utility.yul\":1829:1862   */\n      tag_270\n        /* \"#utility.yul\":1856:1861   */\n      dup2\n        /* \"#utility.yul\":1829:1862   */\n      tag_203\n      jump\t// in\n    tag_270:\n        /* \"#utility.yul\":1729:1868   */\n      swap3\n      swap2\n      pop\n      pop\n      jump\t// out\n        /* \"#utility.yul\":1874:2203   */\n    tag_30:\n        /* \"#utility.yul\":1933:1939   */\n      0x00\n        /* \"#utility.yul\":1982:1984   */\n      0x20\n        /* \"#utility.yul\":1970:1979   */\n      dup3\n        /* \"#utility.yul\":1961:1968   */\n      dup5\n        /* \"#utility.yul\":1957:1980   */\n      sub\n        /* \"#utility.yul\":1953:1985   */\n      slt\n        /* \"#utility.yul\":1950:2069   */\n      iszero\n      tag_272\n      jumpi\n        /* \"#utility.yul\":1988:2067   */\n      tag_273\n      tag_195\n      jump\t// in\n    tag_273:\n        /* \"#utility.yul\":1950:2069   */\n    tag_272:\n        /* \"#utility.yul\":2108:2109   */\n      0x00\n        /* \"#utility.yul\":2133:2186   */\n      tag_274\n        /* \"#utility.yul\":2178:2185   */\n      dup5\n        /* \"#utility.yul\":2169:2175   */\n      dup3\n        /* \"#utility.yul\":2158:2167   */\n      dup6\n        /* \"#utility.yul\":2154:2176   */\n      add\n        /* \"#utility.yul\":2133:2186   */\n      tag_204\n      jump\t// in\n    tag_274:\n        /* \"#utility.yul\":2123:2186   */\n      swap2\n      pop\n        /* \"#utility.yul\":2079:2196   */\n      pop\n        /* \"#utility.yul\":1874:2203   */\n      swap3\n      swap2\n      pop\n      pop\n      jump\t// out\n        /* \"#utility.yul\":2209:2327   */\n    tag_205:\n        /* \"#utility.yul\":2296:2320   */\n      tag_276\n        /* \"#utility.yul\":2314:2319   */\n      dup2\n        /* \"#utility.yul\":2296:2320   */\n      tag_202\n      jump\t// in\n    tag_276:\n        /* \"#utility.yul\":2291:2294   */\n      dup3\n        /* \"#utility.yul\":2284:2321   */\n      mstore\n        /* \"#utility.yul\":2209:2327   */\n      pop\n      pop\n      jump\t// out\n        /* \"#utility.yul\":2333:2555   */\n    tag_33:\n        /* \"#utility.yul\":2426:2430   */\n      0x00\n        /* \"#utility.yul\":2464:2466   */\n      0x20\n        /* \"#utility.yul\":2453:2462   */\n      dup3\n        /* \"#utility.yul\":2449:2467   */\n      add\n        /* \"#utility.yul\":2441:2467   */\n      swap1\n      pop\n        /* \"#utility.yul\":2477:2548   */\n      tag_278\n        /* \"#utility.yul\":2545:2546   */\n      0x00\n        /* \"#utility.yul\":2534:2543   */\n      dup4\n        /* \"#utility.yul\":2530:2547   */\n      add\n        /* \"#utility.yul\":2521:2527   */\n      dup5\n        /* \"#utility.yul\":2477:2548   */\n      tag_205\n      jump\t// in\n    tag_278:\n        /* \"#utility.yul\":2333:2555   */\n      swap3\n      swap2\n      pop\n      pop\n      jump\t// out\n        /* \"#utility.yul\":2561:2687   */\n    tag_206:\n        /* \"#utility.yul\":2598:2605   */\n      0x00\n        /* \"#utility.yul\":2638:2680   */\n      0xffffffffffffffffffffffffffffffffffffffff\n        /* \"#utility.yul\":2631:2636   */\n      dup3\n        /* \"#utility.yul\":2627:2681   */\n      and\n        /* \"#utility.yul\":2616:2681   */\n      swap1\n      pop\n        /* \"#utility.yul\":2561:2687   */\n      swap2\n      swap1\n      pop\n      jump\t// out\n        /* \"#utility.yul\":2693:2753   */\n    tag_207:\n        /* \"#utility.yul\":2721:2724   */\n      0x00\n        /* \"#utility.yul\":2742:2747   */\n      dup2\n        /* \"#utility.yul\":2735:2747   */\n      swap1\n      pop\n        /* \"#utility.yul\":2693:2753   */\n      swap2\n      swap1\n      pop\n      jump\t// out\n        /* \"#utility.yul\":2759:2901   */\n    tag_208:\n        /* \"#utility.yul\":2809:2818   */\n      0x00\n        /* \"#utility.yul\":2842:2895   */\n      tag_282\n        /* \"#utility.yul\":2860:2894   */\n      tag_283\n        /* \"#utility.yul\":2869:2893   */\n      tag_284\n        /* \"#utility.yul\":2887:2892   */\n      dup5\n        /* \"#utility.yul\":2869:2893   */\n      tag_206\n      jump\t// in\n    tag_284:\n        /* \"#utility.yul\":2860:2894   */\n      tag_207\n      jump\t// in\n    tag_283:\n        /* \"#utility.yul\":2842:2895   */\n      tag_206\n      jump\t// in\n    tag_282:\n        /* \"#utility.yul\":2829:2895   */\n      swap1\n      pop\n        /* \"#utility.yul\":2759:2901   */\n      swap2\n      swap1\n      pop\n      jump\t// out\n        /* \"#utility.yul\":2907:3033   */\n    tag_209:\n        /* \"#utility.yul\":2957:2966   */\n      0x00\n        /* \"#utility.yul\":2990:3027   */\n      tag_286\n        /* \"#utility.yul\":3021:3026   */\n      dup3\n        /* \"#utility.yul\":2990:3027   */\n      tag_208\n      jump\t// in\n    tag_286:\n        /* \"#utility.yul\":2977:3027   */\n      swap1\n      pop\n        /* \"#utility.yul\":2907:3033   */\n      swap2\n      swap1\n      pop\n      jump\t// out\n        /* \"#utility.yul\":3039:3190   */\n    tag_210:\n        /* \"#utility.yul\":3114:3123   */\n      0x00\n        /* \"#utility.yul\":3147:3184   */\n      tag_288\n        /* \"#utility.yul\":3178:3183   */\n      dup3\n        /* \"#utility.yul\":3147:3184   */\n      tag_209\n      jump\t// in\n    tag_288:\n        /* \"#utility.yul\":3134:3184   */\n      swap1\n      pop\n        /* \"#utility.yul\":3039:3190   */\n      swap2\n      swap1\n      pop\n      jump\t// out\n        /* \"#utility.yul\":3196:3377   */\n    tag_211:\n        /* \"#utility.yul\":3308:3370   */\n      tag_290\n        /* \"#utility.yul\":3364:3369   */\n      dup2\n        /* \"#utility.yul\":3308:3370   */\n      tag_210\n      jump\t// in\n    tag_290:\n        /* \"#utility.yul\":3303:3306   */\n      dup3\n        /* \"#utility.yul\":3296:3371   */\n      mstore\n        /* \"#utility.yul\":3196:3377   */\n      pop\n      pop\n      jump\t// out\n        /* \"#utility.yul\":3383:3655   */\n    tag_38:\n        /* \"#utility.yul\":3501:3505   */\n      0x00\n        /* \"#utility.yul\":3539:3541   */\n      0x20\n        /* \"#utility.yul\":3528:3537   */\n      dup3\n        /* \"#utility.yul\":3524:3542   */\n      add\n        /* \"#utility.yul\":3516:3542   */\n      swap1\n      pop\n        /* \"#utility.yul\":3552:3648   */\n      tag_292\n        /* \"#utility.yul\":3645:3646   */\n      0x00\n        /* \"#utility.yul\":3634:3643   */\n      dup4\n        /* \"#utility.yul\":3630:3647   */\n      add\n        /* \"#utility.yul\":3621:3627   */\n      dup5\n        /* \"#utility.yul\":3552:3648   */\n      tag_211\n      jump\t// in\n    tag_292:\n        /* \"#utility.yul\":3383:3655   */\n      swap3\n      swap2\n      pop\n      pop\n      jump\t// out\n        /* \"#utility.yul\":3661:3777   */\n    tag_212:\n        /* \"#utility.yul\":3731:3752   */\n      tag_294\n        /* \"#utility.yul\":3746:3751   */\n      dup2\n        /* \"#utility.yul\":3731:3752   */\n      tag_200\n      jump\t// in\n    tag_294:\n        /* \"#utility.yul\":3724:3729   */\n      dup2\n        /* \"#utility.yul\":3721:3753   */\n      eq\n        /* \"#utility.yul\":3711:3771   */\n      tag_295\n      jumpi\n        /* \"#utility.yul\":3767:3768   */\n      0x00\n        /* \"#utility.yul\":3764:3765   */\n      dup1\n        /* \"#utility.yul\":3757:3769   */\n      revert\n        /* \"#utility.yul\":3711:3771   */\n    tag_295:\n        /* \"#utility.yul\":3661:3777   */\n      pop\n      jump\t// out\n        /* \"#utility.yul\":3783:3916   */\n    tag_213:\n        /* \"#utility.yul\":3826:3831   */\n      0x00\n        /* \"#utility.yul\":3864:3870   */\n      dup2\n        /* \"#utility.yul\":3851:3871   */\n      calldataload\n        /* \"#utility.yul\":3842:3871   */\n      swap1\n      pop\n        /* \"#utility.yul\":3880:3910   */\n      tag_297\n        /* \"#utility.yul\":3904:3909   */\n      dup2\n        /* \"#utility.yul\":3880:3910   */\n      tag_212\n      jump\t// in\n    tag_297:\n        /* \"#utility.yul\":3783:3916   */\n      swap3\n      swap2\n      pop\n      pop\n      jump\t// out\n        /* \"#utility.yul\":3922:4245   */\n    tag_42:\n        /* \"#utility.yul\":3978:3984   */\n      0x00\n        /* \"#utility.yul\":4027:4029   */\n      0x20\n        /* \"#utility.yul\":4015:4024   */\n      dup3\n        /* \"#utility.yul\":4006:4013   */\n      dup5\n        /* \"#utility.yul\":4002:4025   */\n      sub\n        /* \"#utility.yul\":3998:4030   */\n      slt\n        /* \"#utility.yul\":3995:4114   */\n      iszero\n      tag_299\n      jumpi\n        /* \"#utility.yul\":4033:4112   */\n      tag_300\n      tag_195\n      jump\t// in\n    tag_300:\n        /* \"#utility.yul\":3995:4114   */\n    tag_299:\n        /* \"#utility.yul\":4153:4154   */\n      0x00\n        /* \"#utility.yul\":4178:4228   */\n      tag_301\n        /* \"#utility.yul\":4220:4227   */\n      dup5\n        /* \"#utility.yul\":4211:4217   */\n      dup3\n        /* \"#utility.yul\":4200:4209   */\n      dup6\n        /* \"#utility.yul\":4196:4218   */\n      add\n        /* \"#utility.yul\":4178:4228   */\n      tag_213\n      jump\t// in\n    tag_301:\n        /* \"#utility.yul\":4168:4228   */\n      swap2\n      pop\n        /* \"#utility.yul\":4124:4238   */\n      pop\n        /* \"#utility.yul\":3922:4245   */\n      swap3\n      swap2\n      pop\n      pop\n      jump\t// out\n        /* \"#utility.yul\":4251:4347   */\n    tag_214:\n        /* \"#utility.yul\":4288:4295   */\n      0x00\n        /* \"#utility.yul\":4317:4341   */\n      tag_303\n        /* \"#utility.yul\":4335:4340   */\n      dup3\n        /* \"#utility.yul\":4317:4341   */\n      tag_206\n      jump\t// in\n    tag_303:\n        /* \"#utility.yul\":4306:4341   */\n      swap1\n      pop\n        /* \"#utility.yul\":4251:4347   */\n      swap2\n      swap1\n      pop\n      jump\t// out\n        /* \"#utility.yul\":4353:4475   */\n    tag_215:\n        /* \"#utility.yul\":4426:4450   */\n      tag_305\n        /* \"#utility.yul\":4444:4449   */\n      dup2\n        /* \"#utility.yul\":4426:4450   */\n      tag_214\n      jump\t// in\n    tag_305:\n        /* \"#utility.yul\":4419:4424   */\n      dup2\n        /* \"#utility.yul\":4416:4451   */\n      eq\n        /* \"#utility.yul\":4406:4469   */\n      tag_306\n      jumpi\n        /* \"#utility.yul\":4465:4466   */\n      0x00\n        /* \"#utility.yul\":4462:4463   */\n      dup1\n        /* \"#utility.yul\":4455:4467   */\n      revert\n        /* \"#utility.yul\":4406:4469   */\n    tag_306:\n        /* \"#utility.yul\":4353:4475   */\n      pop\n      jump\t// out\n        /* \"#utility.yul\":4481:4620   */\n    tag_216:\n        /* \"#utility.yul\":4527:4532   */\n      0x00\n        /* \"#utility.yul\":4565:4571   */\n      dup2\n        /* \"#utility.yul\":4552:4572   */\n      calldataload\n        /* \"#utility.yul\":4543:4572   */\n      swap1\n      pop\n        /* \"#utility.yul\":4581:4614   */\n      tag_308\n        /* \"#utility.yul\":4608:4613   */\n      dup2\n        /* \"#utility.yul\":4581:4614   */\n      tag_215\n      jump\t// in\n    tag_308:\n        /* \"#utility.yul\":4481:4620   */\n      swap3\n      swap2\n      pop\n      pop\n      jump\t// out\n        /* \"#utility.yul\":4626:5100   */\n    tag_47:\n        /* \"#utility.yul\":4694:4700   */\n      0x00\n        /* \"#utility.yul\":4702:4708   */\n      dup1\n        /* \"#utility.yul\":4751:4753   */\n      0x40\n        /* \"#utility.yul\":4739:4748   */\n      dup4\n        /* \"#utility.yul\":4730:4737   */\n      dup6\n        /* \"#utility.yul\":4726:4749   */\n      sub\n        /* \"#utility.yul\":4722:4754   */\n      slt\n        /* \"#utility.yul\":4719:4838   */\n      iszero\n      tag_310\n      jumpi\n        /* \"#utility.yul\":4757:4836   */\n      tag_311\n      tag_195\n      jump\t// in\n    tag_311:\n        /* \"#utility.yul\":4719:4838   */\n    tag_310:\n        /* \"#utility.yul\":4877:4878   */\n      0x00\n        /* \"#utility.yul\":4902:4955   */\n      tag_312\n        /* \"#utility.yul\":4947:4954   */\n      dup6\n        /* \"#utility.yul\":4938:4944   */\n      dup3\n        /* \"#utility.yul\":4927:4936   */\n      dup7\n        /* \"#utility.yul\":4923:4945   */\n      add\n        /* \"#utility.yul\":4902:4955   */\n      tag_204\n      jump\t// in\n    tag_312:\n        /* \"#utility.yul\":4892:4955   */\n      swap3\n      pop\n        /* \"#utility.yul\":4848:4965   */\n      pop\n        /* \"#utility.yul\":5004:5006   */\n      0x20\n        /* \"#utility.yul\":5030:5083   */\n      tag_313\n        /* \"#utility.yul\":5075:5082   */\n      dup6\n        /* \"#utility.yul\":5066:5072   */\n      dup3\n        /* \"#utility.yul\":5055:5064   */\n      dup7\n        /* \"#utility.yul\":5051:5073   */\n      add\n        /* \"#utility.yul\":5030:5083   */\n      tag_216\n      jump\t// in\n    tag_313:\n        /* \"#utility.yul\":5020:5083   */\n      swap2\n      pop\n        /* \"#utility.yul\":4975:5093   */\n      pop\n        /* \"#utility.yul\":4626:5100   */\n      swap3\n      pop\n      swap3\n      swap1\n      pop\n      jump\t// out\n        /* \"#utility.yul\":5106:5227   */\n    tag_217:\n        /* \"#utility.yul\":5168:5175   */\n      0x00\n        /* \"#utility.yul\":5197:5221   */\n      tag_315\n        /* \"#utility.yul\":5215:5220   */\n      dup3\n        /* \"#utility.yul\":5197:5221   */\n      tag_214\n      jump\t// in\n    tag_315:\n        /* \"#utility.yul\":5186:5221   */\n      swap1\n      pop\n        /* \"#utility.yul\":5106:5227   */\n      swap2\n      swap1\n      pop\n      jump\t// out\n        /* \"#utility.yul\":5233:5405   */\n    tag_218:\n        /* \"#utility.yul\":5331:5380   */\n      tag_317\n        /* \"#utility.yul\":5374:5379   */\n      dup2\n        /* \"#utility.yul\":5331:5380   */\n      tag_217\n      jump\t// in\n    tag_317:\n        /* \"#utility.yul\":5324:5329   */\n      dup2\n        /* \"#utility.yul\":5321:5381   */\n      eq\n        /* \"#utility.yul\":5311:5399   */\n      tag_318\n      jumpi\n        /* \"#utility.yul\":5395:5396   */\n      0x00\n        /* \"#utility.yul\":5392:5393   */\n      dup1\n        /* \"#utility.yul\":5385:5397   */\n      revert\n        /* \"#utility.yul\":5311:5399   */\n    tag_318:\n        /* \"#utility.yul\":5233:5405   */\n      pop\n      jump\t// out\n        /* \"#utility.yul\":5411:5600   */\n    tag_219:\n        /* \"#utility.yul\":5482:5487   */\n      0x00\n        /* \"#utility.yul\":5520:5526   */\n      dup2\n        /* \"#utility.yul\":5507:5527   */\n      calldataload\n        /* \"#utility.yul\":5498:5527   */\n      swap1\n      pop\n        /* \"#utility.yul\":5536:5594   */\n      tag_320\n        /* \"#utility.yul\":5588:5593   */\n      dup2\n        /* \"#utility.yul\":5536:5594   */\n      tag_218\n      jump\t// in\n    tag_320:\n        /* \"#utility.yul\":5411:5600   */\n      swap3\n      swap2\n      pop\n      pop\n      jump\t// out\n        /* \"#utility.yul\":5606:5985   */\n    tag_56:\n        /* \"#utility.yul\":5690:5696   */\n      0x00\n        /* \"#utility.yul\":5739:5741   */\n      0x20\n        /* \"#utility.yul\":5727:5736   */\n      dup3\n        /* \"#utility.yul\":5718:5725   */\n      dup5\n        /* \"#utility.yul\":5714:5737   */\n      sub\n        /* \"#utility.yul\":5710:5742   */\n      slt\n        /* \"#utility.yul\":5707:5826   */\n      iszero\n      tag_322\n      jumpi\n        /* \"#utility.yul\":5745:5824   */\n      tag_323\n      tag_195\n      jump\t// in\n    tag_323:\n        /* \"#utility.yul\":5707:5826   */\n    tag_322:\n        /* \"#utility.yul\":5865:5866   */\n      0x00\n        /* \"#utility.yul\":5890:5968   */\n      tag_324\n        /* \"#utility.yul\":5960:5967   */\n      dup5\n        /* \"#utility.yul\":5951:5957   */\n      dup3\n        /* \"#utility.yul\":5940:5949   */\n      dup6\n        /* \"#utility.yul\":5936:5958   */\n      add\n        /* \"#utility.yul\":5890:5968   */\n      tag_219\n      jump\t// in\n    tag_324:\n        /* \"#utility.yul\":5880:5968   */\n      swap2\n      pop\n        /* \"#utility.yul\":5836:5978   */\n      pop\n        /* \"#utility.yul\":5606:5985   */\n      swap3\n      swap2\n      pop\n      pop\n      jump\t// out\n        /* \"#utility.yul\":5991:6068   */\n    tag_220:\n        /* \"#utility.yul\":6028:6035   */\n      0x00\n        /* \"#utility.yul\":6057:6062   */\n      dup2\n        /* \"#utility.yul\":6046:6062   */\n      swap1\n      pop\n        /* \"#utility.yul\":5991:6068   */\n      swap2\n      swap1\n      pop\n      jump\t// out\n        /* \"#utility.yul\":6074:6192   */\n    tag_221:\n        /* \"#utility.yul\":6161:6185   */\n      tag_327\n        /* \"#utility.yul\":6179:6184   */\n      dup2\n        /* \"#utility.yul\":6161:6185   */\n      tag_220\n      jump\t// in\n    tag_327:\n        /* \"#utility.yul\":6156:6159   */\n      dup3\n        /* \"#utility.yul\":6149:6186   */\n      mstore\n        /* \"#utility.yul\":6074:6192   */\n      pop\n      pop\n      jump\t// out\n        /* \"#utility.yul\":6198:6420   */\n    tag_81:\n        /* \"#utility.yul\":6291:6295   */\n      0x00\n        /* \"#utility.yul\":6329:6331   */\n      0x20\n        /* \"#utility.yul\":6318:6327   */\n      dup3\n        /* \"#utility.yul\":6314:6332   */\n      add\n        /* \"#utility.yul\":6306:6332   */\n      swap1\n      pop\n        /* \"#utility.yul\":6342:6413   */\n      tag_329\n        /* \"#utility.yul\":6410:6411   */\n      0x00\n        /* \"#utility.yul\":6399:6408   */\n      dup4\n        /* \"#utility.yul\":6395:6412   */\n      add\n        /* \"#utility.yul\":6386:6392   */\n      dup5\n        /* \"#utility.yul\":6342:6413   */\n      tag_221\n      jump\t// in\n    tag_329:\n        /* \"#utility.yul\":6198:6420   */\n      swap3\n      swap2\n      pop\n      pop\n      jump\t// out\n        /* \"#utility.yul\":6426:6595   */\n    tag_222:\n        /* \"#utility.yul\":6510:6521   */\n      0x00\n        /* \"#utility.yul\":6544:6550   */\n      dup3\n        /* \"#utility.yul\":6539:6542   */\n      dup3\n        /* \"#utility.yul\":6532:6551   */\n      mstore\n        /* \"#utility.yul\":6584:6588   */\n      0x20\n        /* \"#utility.yul\":6579:6582   */\n      dup3\n        /* \"#utility.yul\":6575:6589   */\n      add\n        /* \"#utility.yul\":6560:6589   */\n      swap1\n      pop\n        /* \"#utility.yul\":6426:6595   */\n      swap3\n      swap2\n      pop\n      pop\n      jump\t// out\n        /* \"#utility.yul\":6601:6835   */\n    tag_223:\n        /* \"#utility.yul\":6741:6775   */\n      0x416363657373436f6e74726f6c3a2063616e206f6e6c792072656e6f756e6365\n        /* \"#utility.yul\":6737:6738   */\n      0x00\n        /* \"#utility.yul\":6729:6735   */\n      dup3\n        /* \"#utility.yul\":6725:6739   */\n      add\n        /* \"#utility.yul\":6718:6776   */\n      mstore\n        /* \"#utility.yul\":6810:6827   */\n      0x20726f6c657320666f722073656c660000000000000000000000000000000000\n        /* \"#utility.yul\":6805:6807   */\n      0x20\n        /* \"#utility.yul\":6797:6803   */\n      dup3\n        /* \"#utility.yul\":6793:6808   */\n      add\n        /* \"#utility.yul\":6786:6828   */\n      mstore\n        /* \"#utility.yul\":6601:6835   */\n      pop\n      jump\t// out\n        /* \"#utility.yul\":6841:7207   */\n    tag_224:\n        /* \"#utility.yul\":6983:6986   */\n      0x00\n        /* \"#utility.yul\":7004:7071   */\n      tag_333\n        /* \"#utility.yul\":7068:7070   */\n      0x2f\n        /* \"#utility.yul\":7063:7066   */\n      dup4\n        /* \"#utility.yul\":7004:7071   */\n      tag_222\n      jump\t// in\n    tag_333:\n        /* \"#utility.yul\":6997:7071   */\n      swap2\n      pop\n        /* \"#utility.yul\":7080:7173   */\n      tag_334\n        /* \"#utility.yul\":7169:7172   */\n      dup3\n        /* \"#utility.yul\":7080:7173   */\n      tag_223\n      jump\t// in\n    tag_334:\n        /* \"#utility.yul\":7198:7200   */\n      0x40\n        /* \"#utility.yul\":7193:7196   */\n      dup3\n        /* \"#utility.yul\":7189:7201   */\n      add\n        /* \"#utility.yul\":7182:7201   */\n      swap1\n      pop\n        /* \"#utility.yul\":6841:7207   */\n      swap2\n      swap1\n      pop\n      jump\t// out\n        /* \"#utility.yul\":7213:7632   */\n    tag_111:\n        /* \"#utility.yul\":7379:7383   */\n      0x00\n        /* \"#utility.yul\":7417:7419   */\n      0x20\n        /* \"#utility.yul\":7406:7415   */\n      dup3\n        /* \"#utility.yul\":7402:7420   */\n      add\n        /* \"#utility.yul\":7394:7420   */\n      swap1\n      pop\n        /* \"#utility.yul\":7466:7475   */\n      dup2\n        /* \"#utility.yul\":7460:7464   */\n      dup2\n        /* \"#utility.yul\":7456:7476   */\n      sub\n        /* \"#utility.yul\":7452:7453   */\n      0x00\n        /* \"#utility.yul\":7441:7450   */\n      dup4\n        /* \"#utility.yul\":7437:7454   */\n      add\n        /* \"#utility.yul\":7430:7477   */\n      mstore\n        /* \"#utility.yul\":7494:7625   */\n      tag_336\n        /* \"#utility.yul\":7620:7624   */\n      dup2\n        /* \"#utility.yul\":7494:7625   */\n      tag_224\n      jump\t// in\n    tag_336:\n        /* \"#utility.yul\":7486:7625   */\n      swap1\n      pop\n        /* \"#utility.yul\":7213:7632   */\n      swap2\n      swap1\n      pop\n      jump\t// out\n        /* \"#utility.yul\":7638:7819   */\n    tag_225:\n        /* \"#utility.yul\":7778:7811   */\n      0x5265656e7472616e637947756172643a207265656e7472616e742063616c6c00\n        /* \"#utility.yul\":7774:7775   */\n      0x00\n        /* \"#utility.yul\":7766:7772   */\n      dup3\n        /* \"#utility.yul\":7762:7776   */\n      add\n        /* \"#utility.yul\":7755:7812   */\n      mstore\n        /* \"#utility.yul\":7638:7819   */\n      pop\n      jump\t// out\n        /* \"#utility.yul\":7825:8191   */\n    tag_226:\n        /* \"#utility.yul\":7967:7970   */\n      0x00\n        /* \"#utility.yul\":7988:8055   */\n      tag_339\n        /* \"#utility.yul\":8052:8054   */\n      0x1f\n        /* \"#utility.yul\":8047:8050   */\n      dup4\n        /* \"#utility.yul\":7988:8055   */\n      tag_222\n      jump\t// in\n    tag_339:\n        /* \"#utility.yul\":7981:8055   */\n      swap2\n      pop\n        /* \"#utility.yul\":8064:8157   */\n      tag_340\n        /* \"#utility.yul\":8153:8156   */\n      dup3\n        /* \"#utility.yul\":8064:8157   */\n      tag_225\n      jump\t// in\n    tag_340:\n        /* \"#utility.yul\":8182:8184   */\n      0x20\n        /* \"#utility.yul\":8177:8180   */\n      dup3\n        /* \"#utility.yul\":8173:8185   */\n      add\n        /* \"#utility.yul\":8166:8185   */\n      swap1\n      pop\n        /* \"#utility.yul\":7825:8191   */\n      swap2\n      swap1\n      pop\n      jump\t// out\n        /* \"#utility.yul\":8197:8616   */\n    tag_120:\n        /* \"#utility.yul\":8363:8367   */\n      0x00\n        /* \"#utility.yul\":8401:8403   */\n      0x20\n        /* \"#utility.yul\":8390:8399   */\n      dup3\n        /* \"#utility.yul\":8386:8404   */\n      add\n        /* \"#utility.yul\":8378:8404   */\n      swap1\n      pop\n        /* \"#utility.yul\":8450:8459   */\n      dup2\n        /* \"#utility.yul\":8444:8448   */\n      dup2\n        /* \"#utility.yul\":8440:8460   */\n      sub\n        /* \"#utility.yul\":8436:8437   */\n      0x00\n        /* \"#utility.yul\":8425:8434   */\n      dup4\n        /* \"#utility.yul\":8421:8438   */\n      add\n        /* \"#utility.yul\":8414:8461   */\n      mstore\n        /* \"#utility.yul\":8478:8609   */\n      tag_342\n        /* \"#utility.yul\":8604:8608   */\n      dup2\n        /* \"#utility.yul\":8478:8609   */\n      tag_226\n      jump\t// in\n    tag_342:\n        /* \"#utility.yul\":8470:8609   */\n      swap1\n      pop\n        /* \"#utility.yul\":8197:8616   */\n      swap2\n      swap1\n      pop\n      jump\t// out\n        /* \"#utility.yul\":8622:8799   */\n    tag_227:\n        /* \"#utility.yul\":8762:8791   */\n      0x57686974656c697374206e6f74206f70656e20746f206d696e742e0000000000\n        /* \"#utility.yul\":8758:8759   */\n      0x00\n        /* \"#utility.yul\":8750:8756   */\n      dup3\n        /* \"#utility.yul\":8746:8760   */\n      add\n        /* \"#utility.yul\":8739:8792   */\n      mstore\n        /* \"#utility.yul\":8622:8799   */\n      pop\n      jump\t// out\n        /* \"#utility.yul\":8805:9171   */\n    tag_228:\n        /* \"#utility.yul\":8947:8950   */\n      0x00\n        /* \"#utility.yul\":8968:9035   */\n      tag_345\n        /* \"#utility.yul\":9032:9034   */\n      0x1b\n        /* \"#utility.yul\":9027:9030   */\n      dup4\n        /* \"#utility.yul\":8968:9035   */\n      tag_222\n      jump\t// in\n    tag_345:\n        /* \"#utility.yul\":8961:9035   */\n      swap2\n      pop\n        /* \"#utility.yul\":9044:9137   */\n      tag_346\n        /* \"#utility.yul\":9133:9136   */\n      dup3\n        /* \"#utility.yul\":9044:9137   */\n      tag_227\n      jump\t// in\n    tag_346:\n        /* \"#utility.yul\":9162:9164   */\n      0x20\n        /* \"#utility.yul\":9157:9160   */\n      dup3\n        /* \"#utility.yul\":9153:9165   */\n      add\n        /* \"#utility.yul\":9146:9165   */\n      swap1\n      pop\n        /* \"#utility.yul\":8805:9171   */\n      swap2\n      swap1\n      pop\n      jump\t// out\n        /* \"#utility.yul\":9177:9596   */\n    tag_124:\n        /* \"#utility.yul\":9343:9347   */\n      0x00\n        /* \"#utility.yul\":9381:9383   */\n      0x20\n        /* \"#utility.yul\":9370:9379   */\n      dup3\n        /* \"#utility.yul\":9366:9384   */\n      add\n        /* \"#utility.yul\":9358:9384   */\n      swap1\n      pop\n        /* \"#utility.yul\":9430:9439   */\n      dup2\n        /* \"#utility.yul\":9424:9428   */\n      dup2\n        /* \"#utility.yul\":9420:9440   */\n      sub\n        /* \"#utility.yul\":9416:9417   */\n      0x00\n        /* \"#utility.yul\":9405:9414   */\n      dup4\n        /* \"#utility.yul\":9401:9418   */\n      add\n        /* \"#utility.yul\":9394:9441   */\n      mstore\n        /* \"#utility.yul\":9458:9589   */\n      tag_348\n        /* \"#utility.yul\":9584:9588   */\n      dup2\n        /* \"#utility.yul\":9458:9589   */\n      tag_228\n      jump\t// in\n    tag_348:\n        /* \"#utility.yul\":9450:9589   */\n      swap1\n      pop\n        /* \"#utility.yul\":9177:9596   */\n      swap2\n      swap1\n      pop\n      jump\t// out\n        /* \"#utility.yul\":9602:9763   */\n    tag_229:\n        /* \"#utility.yul\":9742:9755   */\n      0x4f76657220737570706c79000000000000000000000000000000000000000000\n        /* \"#utility.yul\":9738:9739   */\n      0x00\n        /* \"#utility.yul\":9730:9736   */\n      dup3\n        /* \"#utility.yul\":9726:9740   */\n      add\n        /* \"#utility.yul\":9719:9756   */\n      mstore\n        /* \"#utility.yul\":9602:9763   */\n      pop\n      jump\t// out\n        /* \"#utility.yul\":9769:10135   */\n    tag_230:\n        /* \"#utility.yul\":9911:9914   */\n      0x00\n        /* \"#utility.yul\":9932:9999   */\n      tag_351\n        /* \"#utility.yul\":9996:9998   */\n      0x0b\n        /* \"#utility.yul\":9991:9994   */\n      dup4\n        /* \"#utility.yul\":9932:9999   */\n      tag_222\n      jump\t// in\n    tag_351:\n        /* \"#utility.yul\":9925:9999   */\n      swap2\n      pop\n        /* \"#utility.yul\":10008:10101   */\n      tag_352\n        /* \"#utility.yul\":10097:10100   */\n      dup3\n        /* \"#utility.yul\":10008:10101   */\n      tag_229\n      jump\t// in\n    tag_352:\n        /* \"#utility.yul\":10126:10128   */\n      0x20\n        /* \"#utility.yul\":10121:10124   */\n      dup3\n        /* \"#utility.yul\":10117:10129   */\n      add\n        /* \"#utility.yul\":10110:10129   */\n      swap1\n      pop\n        /* \"#utility.yul\":9769:10135   */\n      swap2\n      swap1\n      pop\n      jump\t// out\n        /* \"#utility.yul\":10141:10560   */\n    tag_128:\n        /* \"#utility.yul\":10307:10311   */\n      0x00\n        /* \"#utility.yul\":10345:10347   */\n      0x20\n        /* \"#utility.yul\":10334:10343   */\n      dup3\n        /* \"#utility.yul\":10330:10348   */\n      add\n        /* \"#utility.yul\":10322:10348   */\n      swap1\n      pop\n        /* \"#utility.yul\":10394:10403   */\n      dup2\n        /* \"#utility.yul\":10388:10392   */\n      dup2\n        /* \"#utility.yul\":10384:10404   */\n      sub\n        /* \"#utility.yul\":10380:10381   */\n      0x00\n        /* \"#utility.yul\":10369:10378   */\n      dup4\n        /* \"#utility.yul\":10365:10382   */\n      add\n        /* \"#utility.yul\":10358:10405   */\n      mstore\n        /* \"#utility.yul\":10422:10553   */\n      tag_354\n        /* \"#utility.yul\":10548:10552   */\n      dup2\n        /* \"#utility.yul\":10422:10553   */\n      tag_230\n      jump\t// in\n    tag_354:\n        /* \"#utility.yul\":10414:10553   */\n      swap1\n      pop\n        /* \"#utility.yul\":10141:10560   */\n      swap2\n      swap1\n      pop\n      jump\t// out\n        /* \"#utility.yul\":10566:10688   */\n    tag_231:\n        /* \"#utility.yul\":10639:10663   */\n      tag_356\n        /* \"#utility.yul\":10657:10662   */\n      dup2\n        /* \"#utility.yul\":10639:10663   */\n      tag_220\n      jump\t// in\n    tag_356:\n        /* \"#utility.yul\":10632:10637   */\n      dup2\n        /* \"#utility.yul\":10629:10664   */\n      eq\n        /* \"#utility.yul\":10619:10682   */\n      tag_357\n      jumpi\n        /* \"#utility.yul\":10678:10679   */\n      0x00\n        /* \"#utility.yul\":10675:10676   */\n      dup1\n        /* \"#utility.yul\":10668:10680   */\n      revert\n        /* \"#utility.yul\":10619:10682   */\n    tag_357:\n        /* \"#utility.yul\":10566:10688   */\n      pop\n      jump\t// out\n        /* \"#utility.yul\":10694:10837   */\n    tag_232:\n        /* \"#utility.yul\":10751:10756   */\n      0x00\n        /* \"#utility.yul\":10782:10788   */\n      dup2\n        /* \"#utility.yul\":10776:10789   */\n      mload\n        /* \"#utility.yul\":10767:10789   */\n      swap1\n      pop\n        /* \"#utility.yul\":10798:10831   */\n      tag_359\n        /* \"#utility.yul\":10825:10830   */\n      dup2\n        /* \"#utility.yul\":10798:10831   */\n      tag_231\n      jump\t// in\n    tag_359:\n        /* \"#utility.yul\":10694:10837   */\n      swap3\n      swap2\n      pop\n      pop\n      jump\t// out\n        /* \"#utility.yul\":10843:11194   */\n    tag_134:\n        /* \"#utility.yul\":10913:10919   */\n      0x00\n        /* \"#utility.yul\":10962:10964   */\n      0x20\n        /* \"#utility.yul\":10950:10959   */\n      dup3\n        /* \"#utility.yul\":10941:10948   */\n      dup5\n        /* \"#utility.yul\":10937:10960   */\n      sub\n        /* \"#utility.yul\":10933:10965   */\n      slt\n        /* \"#utility.yul\":10930:11049   */\n      iszero\n      tag_361\n      jumpi\n        /* \"#utility.yul\":10968:11047   */\n      tag_362\n      tag_195\n      jump\t// in\n    tag_362:\n        /* \"#utility.yul\":10930:11049   */\n    tag_361:\n        /* \"#utility.yul\":11088:11089   */\n      0x00\n        /* \"#utility.yul\":11113:11177   */\n      tag_363\n        /* \"#utility.yul\":11169:11176   */\n      dup5\n        /* \"#utility.yul\":11160:11166   */\n      dup3\n        /* \"#utility.yul\":11149:11158   */\n      dup6\n        /* \"#utility.yul\":11145:11167   */\n      add\n        /* \"#utility.yul\":11113:11177   */\n      tag_232\n      jump\t// in\n    tag_363:\n        /* \"#utility.yul\":11103:11177   */\n      swap2\n      pop\n        /* \"#utility.yul\":11059:11187   */\n      pop\n        /* \"#utility.yul\":10843:11194   */\n      swap3\n      swap2\n      pop\n      pop\n      jump\t// out\n        /* \"#utility.yul\":11200:11380   */\n    tag_233:\n        /* \"#utility.yul\":11248:11325   */\n      0x4e487b7100000000000000000000000000000000000000000000000000000000\n        /* \"#utility.yul\":11245:11246   */\n      0x00\n        /* \"#utility.yul\":11238:11326   */\n      mstore\n        /* \"#utility.yul\":11345:11349   */\n      0x11\n        /* \"#utility.yul\":11342:11343   */\n      0x04\n        /* \"#utility.yul\":11335:11350   */\n      mstore\n        /* \"#utility.yul\":11369:11373   */\n      0x24\n        /* \"#utility.yul\":11366:11367   */\n      0x00\n        /* \"#utility.yul\":11359:11374   */\n      revert\n        /* \"#utility.yul\":11386:11734   */\n    tag_145:\n        /* \"#utility.yul\":11426:11433   */\n      0x00\n        /* \"#utility.yul\":11449:11469   */\n      tag_366\n        /* \"#utility.yul\":11467:11468   */\n      dup3\n        /* \"#utility.yul\":11449:11469   */\n      tag_220\n      jump\t// in\n    tag_366:\n        /* \"#utility.yul\":11444:11469   */\n      swap2\n      pop\n        /* \"#utility.yul\":11483:11503   */\n      tag_367\n        /* \"#utility.yul\":11501:11502   */\n      dup4\n        /* \"#utility.yul\":11483:11503   */\n      tag_220\n      jump\t// in\n    tag_367:\n        /* \"#utility.yul\":11478:11503   */\n      swap3\n      pop\n        /* \"#utility.yul\":11671:11672   */\n      dup2\n        /* \"#utility.yul\":11603:11669   */\n      0xffffffffffffffffffffffffffffffffffffffffffffffffffffffffffffffff\n        /* \"#utility.yul\":11599:11673   */\n      div\n        /* \"#utility.yul\":11596:11597   */\n      dup4\n        /* \"#utility.yul\":11593:11674   */\n      gt\n        /* \"#utility.yul\":11588:11589   */\n      dup3\n        /* \"#utility.yul\":11581:11590   */\n      iszero\n        /* \"#utility.yul\":11574:11591   */\n      iszero\n        /* \"#utility.yul\":11570:11675   */\n      and\n        /* \"#utility.yul\":11567:11698   */\n      iszero\n      tag_368\n      jumpi\n        /* \"#utility.yul\":11678:11696   */\n      tag_369\n      tag_233\n      jump\t// in\n    tag_369:\n        /* \"#utility.yul\":11567:11698   */\n    tag_368:\n        /* \"#utility.yul\":11726:11727   */\n      dup3\n        /* \"#utility.yul\":11723:11724   */\n      dup3\n        /* \"#utility.yul\":11719:11728   */\n      mul\n        /* \"#utility.yul\":11708:11728   */\n      swap1\n      pop\n        /* \"#utility.yul\":11386:11734   */\n      swap3\n      swap2\n      pop\n      pop\n      jump\t// out\n        /* \"#utility.yul\":11740:12045   */\n    tag_147:\n        /* \"#utility.yul\":11780:11783   */\n      0x00\n        /* \"#utility.yul\":11799:11819   */\n      tag_371\n        /* \"#utility.yul\":11817:11818   */\n      dup3\n        /* \"#utility.yul\":11799:11819   */\n      tag_220\n      jump\t// in\n    tag_371:\n        /* \"#utility.yul\":11794:11819   */\n      swap2\n      pop\n        /* \"#utility.yul\":11833:11853   */\n      tag_372\n        /* \"#utility.yul\":11851:11852   */\n      dup4\n        /* \"#utility.yul\":11833:11853   */\n      tag_220\n      jump\t// in\n    tag_372:\n        /* \"#utility.yul\":11828:11853   */\n      swap3\n      pop\n        /* \"#utility.yul\":11987:11988   */\n      dup3\n        /* \"#utility.yul\":11919:11985   */\n      0xffffffffffffffffffffffffffffffffffffffffffffffffffffffffffffffff\n        /* \"#utility.yul\":11915:11989   */\n      sub\n        /* \"#utility.yul\":11912:11913   */\n      dup3\n        /* \"#utility.yul\":11909:11990   */\n      gt\n        /* \"#utility.yul\":11906:12013   */\n      iszero\n      tag_373\n      jumpi\n        /* \"#utility.yul\":11993:12011   */\n      tag_374\n      tag_233\n      jump\t// in\n    tag_374:\n        /* \"#utility.yul\":11906:12013   */\n    tag_373:\n        /* \"#utility.yul\":12037:12038   */\n      dup3\n        /* \"#utility.yul\":12034:12035   */\n      dup3\n        /* \"#utility.yul\":12030:12039   */\n      add\n        /* \"#utility.yul\":12023:12039   */\n      swap1\n      pop\n        /* \"#utility.yul\":11740:12045   */\n      swap3\n      swap2\n      pop\n      pop\n      jump\t// out\n        /* \"#utility.yul\":12051:12231   */\n    tag_150:\n        /* \"#utility.yul\":12099:12176   */\n      0x4e487b7100000000000000000000000000000000000000000000000000000000\n        /* \"#utility.yul\":12096:12097   */\n      0x00\n        /* \"#utility.yul\":12089:12177   */\n      mstore\n        /* \"#utility.yul\":12196:12200   */\n      0x41\n        /* \"#utility.yul\":12193:12194   */\n      0x04\n        /* \"#utility.yul\":12186:12201   */\n      mstore\n        /* \"#utility.yul\":12220:12224   */\n      0x24\n        /* \"#utility.yul\":12217:12218   */\n      0x00\n        /* \"#utility.yul\":12210:12225   */\n      revert\n        /* \"#utility.yul\":12237:12417   */\n    tag_154:\n        /* \"#utility.yul\":12285:12362   */\n      0x4e487b7100000000000000000000000000000000000000000000000000000000\n        /* \"#utility.yul\":12282:12283   */\n      0x00\n        /* \"#utility.yul\":12275:12363   */\n      mstore\n        /* \"#utility.yul\":12382:12386   */\n      0x32\n        /* \"#utility.yul\":12379:12380   */\n      0x04\n        /* \"#utility.yul\":12372:12387   */\n      mstore\n        /* \"#utility.yul\":12406:12410   */\n      0x24\n        /* \"#utility.yul\":12403:12404   */\n      0x00\n        /* \"#utility.yul\":12396:12411   */\n      revert\n        /* \"#utility.yul\":12423:12594   */\n    tag_167:\n        /* \"#utility.yul\":12462:12465   */\n      0x00\n        /* \"#utility.yul\":12485:12509   */\n      tag_378\n        /* \"#utility.yul\":12503:12508   */\n      dup3\n        /* \"#utility.yul\":12485:12509   */\n      tag_220\n      jump\t// in\n    tag_378:\n        /* \"#utility.yul\":12476:12509   */\n      swap2\n      pop\n        /* \"#utility.yul\":12531:12535   */\n      0x00\n        /* \"#utility.yul\":12524:12529   */\n      dup3\n        /* \"#utility.yul\":12521:12536   */\n      sub\n        /* \"#utility.yul\":12518:12559   */\n      tag_379\n      jumpi\n        /* \"#utility.yul\":12539:12557   */\n      tag_380\n      tag_233\n      jump\t// in\n    tag_380:\n        /* \"#utility.yul\":12518:12559   */\n    tag_379:\n        /* \"#utility.yul\":12586:12587   */\n      0x01\n        /* \"#utility.yul\":12579:12584   */\n      dup3\n        /* \"#utility.yul\":12575:12588   */\n      sub\n        /* \"#utility.yul\":12568:12588   */\n      swap1\n      pop\n        /* \"#utility.yul\":12423:12594   */\n      swap2\n      swap1\n      pop\n      jump\t// out\n        /* \"#utility.yul\":12600:12782   */\n    tag_234:\n        /* \"#utility.yul\":12740:12774   */\n      0x537472696e67733a20686578206c656e67746820696e73756666696369656e74\n        /* \"#utility.yul\":12736:12737   */\n      0x00\n        /* \"#utility.yul\":12728:12734   */\n      dup3\n        /* \"#utility.yul\":12724:12738   */\n      add\n        /* \"#utility.yul\":12717:12775   */\n      mstore\n        /* \"#utility.yul\":12600:12782   */\n      pop\n      jump\t// out\n        /* \"#utility.yul\":12788:13154   */\n    tag_235:\n        /* \"#utility.yul\":12930:12933   */\n      0x00\n        /* \"#utility.yul\":12951:13018   */\n      tag_383\n        /* \"#utility.yul\":13015:13017   */\n      0x20\n        /* \"#utility.yul\":13010:13013   */\n      dup4\n        /* \"#utility.yul\":12951:13018   */\n      tag_222\n      jump\t// in\n    tag_383:\n        /* \"#utility.yul\":12944:13018   */\n      swap2\n      pop\n        /* \"#utility.yul\":13027:13120   */\n      tag_384\n        /* \"#utility.yul\":13116:13119   */\n      dup3\n        /* \"#utility.yul\":13027:13120   */\n      tag_234\n      jump\t// in\n    tag_384:\n        /* \"#utility.yul\":13145:13147   */\n      0x20\n        /* \"#utility.yul\":13140:13143   */\n      dup3\n        /* \"#utility.yul\":13136:13148   */\n      add\n        /* \"#utility.yul\":13129:13148   */\n      swap1\n      pop\n        /* \"#utility.yul\":12788:13154   */\n      swap2\n      swap1\n      pop\n      jump\t// out\n        /* \"#utility.yul\":13160:13579   */\n    tag_170:\n        /* \"#utility.yul\":13326:13330   */\n      0x00\n        /* \"#utility.yul\":13364:13366   */\n      0x20\n        /* \"#utility.yul\":13353:13362   */\n      dup3\n        /* \"#utility.yul\":13349:13367   */\n      add\n        /* \"#utility.yul\":13341:13367   */\n      swap1\n      pop\n        /* \"#utility.yul\":13413:13422   */\n      dup2\n        /* \"#utility.yul\":13407:13411   */\n      dup2\n        /* \"#utility.yul\":13403:13423   */\n      sub\n        /* \"#utility.yul\":13399:13400   */\n      0x00\n        /* \"#utility.yul\":13388:13397   */\n      dup4\n        /* \"#utility.yul\":13384:13401   */\n      add\n        /* \"#utility.yul\":13377:13424   */\n      mstore\n        /* \"#utility.yul\":13441:13572   */\n      tag_386\n        /* \"#utility.yul\":13567:13571   */\n      dup2\n        /* \"#utility.yul\":13441:13572   */\n      tag_235\n      jump\t// in\n    tag_386:\n        /* \"#utility.yul\":13433:13572   */\n      swap1\n      pop\n        /* \"#utility.yul\":13160:13579   */\n      swap2\n      swap1\n      pop\n      jump\t// out\n        /* \"#utility.yul\":13585:13733   */\n    tag_236:\n        /* \"#utility.yul\":13687:13698   */\n      0x00\n        /* \"#utility.yul\":13724:13727   */\n      dup2\n        /* \"#utility.yul\":13709:13727   */\n      swap1\n      pop\n        /* \"#utility.yul\":13585:13733   */\n      swap3\n      swap2\n      pop\n      pop\n      jump\t// out\n        /* \"#utility.yul\":13739:13912   */\n    tag_237:\n        /* \"#utility.yul\":13879:13904   */\n      0x416363657373436f6e74726f6c3a206163636f756e7420000000000000000000\n        /* \"#utility.yul\":13875:13876   */\n      0x00\n        /* \"#utility.yul\":13867:13873   */\n      dup3\n        /* \"#utility.yul\":13863:13877   */\n      add\n        /* \"#utility.yul\":13856:13905   */\n      mstore\n        /* \"#utility.yul\":13739:13912   */\n      pop\n      jump\t// out\n        /* \"#utility.yul\":13918:14320   */\n    tag_238:\n        /* \"#utility.yul\":14078:14081   */\n      0x00\n        /* \"#utility.yul\":14099:14184   */\n      tag_390\n        /* \"#utility.yul\":14181:14183   */\n      0x17\n        /* \"#utility.yul\":14176:14179   */\n      dup4\n        /* \"#utility.yul\":14099:14184   */\n      tag_236\n      jump\t// in\n    tag_390:\n        /* \"#utility.yul\":14092:14184   */\n      swap2\n      pop\n        /* \"#utility.yul\":14193:14286   */\n      tag_391\n        /* \"#utility.yul\":14282:14285   */\n      dup3\n        /* \"#utility.yul\":14193:14286   */\n      tag_237\n      jump\t// in\n    tag_391:\n        /* \"#utility.yul\":14311:14313   */\n      0x17\n        /* \"#utility.yul\":14306:14309   */\n      dup3\n        /* \"#utility.yul\":14302:14314   */\n      add\n        /* \"#utility.yul\":14295:14314   */\n      swap1\n      pop\n        /* \"#utility.yul\":13918:14320   */\n      swap2\n      swap1\n      pop\n      jump\t// out\n        /* \"#utility.yul\":14326:14425   */\n    tag_239:\n        /* \"#utility.yul\":14378:14384   */\n      0x00\n        /* \"#utility.yul\":14412:14417   */\n      dup2\n        /* \"#utility.yul\":14406:14418   */\n      mload\n        /* \"#utility.yul\":14396:14418   */\n      swap1\n      pop\n        /* \"#utility.yul\":14326:14425   */\n      swap2\n      swap1\n      pop\n      jump\t// out\n        /* \"#utility.yul\":14431:14738   */\n    tag_240:\n        /* \"#utility.yul\":14499:14500   */\n      0x00\n        /* \"#utility.yul\":14509:14622   */\n    tag_394:\n        /* \"#utility.yul\":14523:14529   */\n      dup4\n        /* \"#utility.yul\":14520:14521   */\n      dup2\n        /* \"#utility.yul\":14517:14530   */\n      lt\n        /* \"#utility.yul\":14509:14622   */\n      iszero\n      tag_396\n      jumpi\n        /* \"#utility.yul\":14608:14609   */\n      dup1\n        /* \"#utility.yul\":14603:14606   */\n      dup3\n        /* \"#utility.yul\":14599:14610   */\n      add\n        /* \"#utility.yul\":14593:14611   */\n      mload\n        /* \"#utility.yul\":14589:14590   */\n      dup2\n        /* \"#utility.yul\":14584:14587   */\n      dup5\n        /* \"#utility.yul\":14580:14591   */\n      add\n        /* \"#utility.yul\":14573:14612   */\n      mstore\n        /* \"#utility.yul\":14545:14547   */\n      0x20\n        /* \"#utility.yul\":14542:14543   */\n      dup2\n        /* \"#utility.yul\":14538:14548   */\n      add\n        /* \"#utility.yul\":14533:14548   */\n      swap1\n      pop\n        /* \"#utility.yul\":14509:14622   */\n      jump(tag_394)\n    tag_396:\n        /* \"#utility.yul\":14640:14646   */\n      dup4\n        /* \"#utility.yul\":14637:14638   */\n      dup2\n        /* \"#utility.yul\":14634:14647   */\n      gt\n        /* \"#utility.yul\":14631:14732   */\n      iszero\n      tag_397\n      jumpi\n        /* \"#utility.yul\":14720:14721   */\n      0x00\n        /* \"#utility.yul\":14711:14717   */\n      dup5\n        /* \"#utility.yul\":14706:14709   */\n      dup5\n        /* \"#utility.yul\":14702:14718   */\n      add\n        /* \"#utility.yul\":14695:14722   */\n      mstore\n        /* \"#utility.yul\":14631:14732   */\n    tag_397:\n        /* \"#utility.yul\":14480:14738   */\n      pop\n        /* \"#utility.yul\":14431:14738   */\n      pop\n      pop\n      pop\n      jump\t// out\n        /* \"#utility.yul\":14744:15121   */\n    tag_241:\n        /* \"#utility.yul\":14850:14853   */\n      0x00\n        /* \"#utility.yul\":14878:14917   */\n      tag_399\n        /* \"#utility.yul\":14911:14916   */\n      dup3\n        /* \"#utility.yul\":14878:14917   */\n      tag_239\n      jump\t// in\n    tag_399:\n        /* \"#utility.yul\":14933:15022   */\n      tag_400\n        /* \"#utility.yul\":15015:15021   */\n      dup2\n        /* \"#utility.yul\":15010:15013   */\n      dup6\n        /* \"#utility.yul\":14933:15022   */\n      tag_236\n      jump\t// in\n    tag_400:\n        /* \"#utility.yul\":14926:15022   */\n      swap4\n      pop\n        /* \"#utility.yul\":15031:15083   */\n      tag_401\n        /* \"#utility.yul\":15076:15082   */\n      dup2\n        /* \"#utility.yul\":15071:15074   */\n      dup6\n        /* \"#utility.yul\":15064:15068   */\n      0x20\n        /* \"#utility.yul\":15057:15062   */\n      dup7\n        /* \"#utility.yul\":15053:15069   */\n      add\n        /* \"#utility.yul\":15031:15083   */\n      tag_240\n      jump\t// in\n    tag_401:\n        /* \"#utility.yul\":15108:15114   */\n      dup1\n        /* \"#utility.yul\":15103:15106   */\n      dup5\n        /* \"#utility.yul\":15099:15115   */\n      add\n        /* \"#utility.yul\":15092:15115   */\n      swap2\n      pop\n        /* \"#utility.yul\":14854:15121   */\n      pop\n        /* \"#utility.yul\":14744:15121   */\n      swap3\n      swap2\n      pop\n      pop\n      jump\t// out\n        /* \"#utility.yul\":15127:15294   */\n    tag_242:\n        /* \"#utility.yul\":15267:15286   */\n      0x206973206d697373696e6720726f6c6520000000000000000000000000000000\n        /* \"#utility.yul\":15263:15264   */\n      0x00\n        /* \"#utility.yul\":15255:15261   */\n      dup3\n        /* \"#utility.yul\":15251:15265   */\n      add\n        /* \"#utility.yul\":15244:15287   */\n      mstore\n        /* \"#utility.yul\":15127:15294   */\n      pop\n      jump\t// out\n        /* \"#utility.yul\":15300:15702   */\n    tag_243:\n        /* \"#utility.yul\":15460:15463   */\n      0x00\n        /* \"#utility.yul\":15481:15566   */\n      tag_404\n        /* \"#utility.yul\":15563:15565   */\n      0x11\n        /* \"#utility.yul\":15558:15561   */\n      dup4\n        /* \"#utility.yul\":15481:15566   */\n      tag_236\n      jump\t// in\n    tag_404:\n        /* \"#utility.yul\":15474:15566   */\n      swap2\n      pop\n        /* \"#utility.yul\":15575:15668   */\n      tag_405\n        /* \"#utility.yul\":15664:15667   */\n      dup3\n        /* \"#utility.yul\":15575:15668   */\n      tag_242\n      jump\t// in\n    tag_405:\n        /* \"#utility.yul\":15693:15695   */\n      0x11\n        /* \"#utility.yul\":15688:15691   */\n      dup3\n        /* \"#utility.yul\":15684:15696   */\n      add\n        /* \"#utility.yul\":15677:15696   */\n      swap1\n      pop\n        /* \"#utility.yul\":15300:15702   */\n      swap2\n      swap1\n      pop\n      jump\t// out\n        /* \"#utility.yul\":15708:16675   */\n    tag_191:\n        /* \"#utility.yul\":16090:16093   */\n      0x00\n        /* \"#utility.yul\":16112:16260   */\n      tag_407\n        /* \"#utility.yul\":16256:16259   */\n      dup3\n        /* \"#utility.yul\":16112:16260   */\n      tag_238\n      jump\t// in\n    tag_407:\n        /* \"#utility.yul\":16105:16260   */\n      swap2\n      pop\n        /* \"#utility.yul\":16277:16372   */\n      tag_408\n        /* \"#utility.yul\":16368:16371   */\n      dup3\n        /* \"#utility.yul\":16359:16365   */\n      dup6\n        /* \"#utility.yul\":16277:16372   */\n      tag_241\n      jump\t// in\n    tag_408:\n        /* \"#utility.yul\":16270:16372   */\n      swap2\n      pop\n        /* \"#utility.yul\":16389:16537   */\n      tag_409\n        /* \"#utility.yul\":16533:16536   */\n      dup3\n        /* \"#utility.yul\":16389:16537   */\n      tag_243\n      jump\t// in\n    tag_409:\n        /* \"#utility.yul\":16382:16537   */\n      swap2\n      pop\n        /* \"#utility.yul\":16554:16649   */\n      tag_410\n        /* \"#utility.yul\":16645:16648   */\n      dup3\n        /* \"#utility.yul\":16636:16642   */\n      dup5\n        /* \"#utility.yul\":16554:16649   */\n      tag_241\n      jump\t// in\n    tag_410:\n        /* \"#utility.yul\":16547:16649   */\n      swap2\n      pop\n        /* \"#utility.yul\":16666:16669   */\n      dup2\n        /* \"#utility.yul\":16659:16669   */\n      swap1\n      pop\n        /* \"#utility.yul\":15708:16675   */\n      swap4\n      swap3\n      pop\n      pop\n      pop\n      jump\t// out\n        /* \"#utility.yul\":16681:16783   */\n    tag_244:\n        /* \"#utility.yul\":16722:16728   */\n      0x00\n        /* \"#utility.yul\":16773:16775   */\n      0x1f\n        /* \"#utility.yul\":16769:16776   */\n      not\n        /* \"#utility.yul\":16764:16766   */\n      0x1f\n        /* \"#utility.yul\":16757:16762   */\n      dup4\n        /* \"#utility.yul\":16753:16767   */\n      add\n        /* \"#utility.yul\":16749:16777   */\n      and\n        /* \"#utility.yul\":16739:16777   */\n      swap1\n      pop\n        /* \"#utility.yul\":16681:16783   */\n      swap2\n      swap1\n      pop\n      jump\t// out\n        /* \"#utility.yul\":16789:17153   */\n    tag_245:\n        /* \"#utility.yul\":16877:16880   */\n      0x00\n        /* \"#utility.yul\":16905:16944   */\n      tag_413\n        /* \"#utility.yul\":16938:16943   */\n      dup3\n        /* \"#utility.yul\":16905:16944   */\n      tag_239\n      jump\t// in\n    tag_413:\n        /* \"#utility.yul\":16960:17031   */\n      tag_414\n        /* \"#utility.yul\":17024:17030   */\n      dup2\n        /* \"#utility.yul\":17019:17022   */\n      dup6\n        /* \"#utility.yul\":16960:17031   */\n      tag_222\n      jump\t// in\n    tag_414:\n        /* \"#utility.yul\":16953:17031   */\n      swap4\n      pop\n        /* \"#utility.yul\":17040:17092   */\n      tag_415\n        /* \"#utility.yul\":17085:17091   */\n      dup2\n        /* \"#utility.yul\":17080:17083   */\n      dup6\n        /* \"#utility.yul\":17073:17077   */\n      0x20\n        /* \"#utility.yul\":17066:17071   */\n      dup7\n        /* \"#utility.yul\":17062:17078   */\n      add\n        /* \"#utility.yul\":17040:17092   */\n      tag_240\n      jump\t// in\n    tag_415:\n        /* \"#utility.yul\":17117:17146   */\n      tag_416\n        /* \"#utility.yul\":17139:17145   */\n      dup2\n        /* \"#utility.yul\":17117:17146   */\n      tag_244\n      jump\t// in\n    tag_416:\n        /* \"#utility.yul\":17112:17115   */\n      dup5\n        /* \"#utility.yul\":17108:17147   */\n      add\n        /* \"#utility.yul\":17101:17147   */\n      swap2\n      pop\n        /* \"#utility.yul\":16881:17153   */\n      pop\n        /* \"#utility.yul\":16789:17153   */\n      swap3\n      swap2\n      pop\n      pop\n      jump\t// out\n        /* \"#utility.yul\":17159:17472   */\n    tag_193:\n        /* \"#utility.yul\":17272:17276   */\n      0x00\n        /* \"#utility.yul\":17310:17312   */\n      0x20\n        /* \"#utility.yul\":17299:17308   */\n      dup3\n        /* \"#utility.yul\":17295:17313   */\n      add\n        /* \"#utility.yul\":17287:17313   */\n      swap1\n      pop\n        /* \"#utility.yul\":17359:17368   */\n      dup2\n        /* \"#utility.yul\":17353:17357   */\n      dup2\n        /* \"#utility.yul\":17349:17369   */\n      sub\n        /* \"#utility.yul\":17345:17346   */\n      0x00\n        /* \"#utility.yul\":17334:17343   */\n      dup4\n        /* \"#utility.yul\":17330:17347   */\n      add\n        /* \"#utility.yul\":17323:17370   */\n      mstore\n        /* \"#utility.yul\":17387:17465   */\n      tag_418\n        /* \"#utility.yul\":17460:17464   */\n      dup2\n        /* \"#utility.yul\":17451:17457   */\n      dup5\n        /* \"#utility.yul\":17387:17465   */\n      tag_245\n      jump\t// in\n    tag_418:\n        /* \"#utility.yul\":17379:17465   */\n      swap1\n      pop\n        /* \"#utility.yul\":17159:17472   */\n      swap3\n      swap2\n      pop\n      pop\n      jump\t// out\n\n    auxdata: 0xa2646970667358221220d93279679cc0f2bf631239dfc59daf598485938f92520b424e9709b8ca5f5b3964736f6c634300080f0033\n}\n",
				"bytecode": {
					"linkReferences": {},
					"object": "60806040523480156200001157600080fd5b5060405162002056380380620020568339818101604052810190620000379190620005e9565b60018081905550620000536000801b336200006b60201b60201c565b62000064816200015c60201b60201c565b50620009fc565b6200007d8282620001b660201b60201c565b6200015857600160008084815260200190815260200160002060000160008373ffffffffffffffffffffffffffffffffffffffff1673ffffffffffffffffffffffffffffffffffffffff16815260200190815260200160002060006101000a81548160ff021916908315150217905550620000fd6200022060201b60201c565b73ffffffffffffffffffffffffffffffffffffffff168173ffffffffffffffffffffffffffffffffffffffff16837f2f8788117e7eff1d82e926ec794901d17c78024a50270940304540a733656f0d60405160405180910390a45b5050565b6000801b62000171816200022860201b60201c565b81600260006101000a81548173ffffffffffffffffffffffffffffffffffffffff021916908373ffffffffffffffffffffffffffffffffffffffff1602179055505050565b600080600084815260200190815260200160002060000160008373ffffffffffffffffffffffffffffffffffffffff1673ffffffffffffffffffffffffffffffffffffffff16815260200190815260200160002060009054906101000a900460ff16905092915050565b600033905090565b62000249816200023d6200022060201b60201c565b6200024c60201b60201c565b50565b6200025e8282620001b660201b60201c565b6200030c57620002918173ffffffffffffffffffffffffffffffffffffffff1660146200031060201b620007cd1760201c565b620002ac8360001c60206200031060201b620007cd1760201c565b604051602001620002bf9291906200073e565b6040516020818303038152906040526040517f08c379a0000000000000000000000000000000000000000000000000000000008152600401620003039190620007e3565b60405180910390fd5b5050565b60606000600283600262000325919062000840565b620003319190620008a1565b67ffffffffffffffff8111156200034d576200034c620008fe565b5b6040519080825280601f01601f191660200182016040528015620003805781602001600182028036833780820191505090505b5090507f300000000000000000000000000000000000000000000000000000000000000081600081518110620003bb57620003ba6200092d565b5b60200101907effffffffffffffffffffffffffffffffffffffffffffffffffffffffffffff1916908160001a9053507f7800000000000000000000000000000000000000000000000000000000000000816001815181106200042257620004216200092d565b5b60200101907effffffffffffffffffffffffffffffffffffffffffffffffffffffffffffff1916908160001a9053506000600184600262000464919062000840565b620004709190620008a1565b90505b60018111156200051a577f3031323334353637383961626364656600000000000000000000000000000000600f861660108110620004b657620004b56200092d565b5b1a60f81b828281518110620004d057620004cf6200092d565b5b60200101907effffffffffffffffffffffffffffffffffffffffffffffffffffffffffffff1916908160001a905350600485901c94508062000512906200095c565b905062000473565b506000841462000561576040517f08c379a00000000000000000000000000000000000000000000000000000000081526004016200055890620009da565b60405180910390fd5b8091505092915050565b600080fd5b600073ffffffffffffffffffffffffffffffffffffffff82169050919050565b60006200059d8262000570565b9050919050565b6000620005b18262000590565b9050919050565b620005c381620005a4565b8114620005cf57600080fd5b50565b600081519050620005e381620005b8565b92915050565b6000602082840312156200060257620006016200056b565b5b60006200061284828501620005d2565b91505092915050565b600081905092915050565b7f416363657373436f6e74726f6c3a206163636f756e7420000000000000000000600082015250565b60006200065e6017836200061b565b91506200066b8262000626565b601782019050919050565b600081519050919050565b60005b83811015620006a157808201518184015260208101905062000684565b83811115620006b1576000848401525b50505050565b6000620006c48262000676565b620006d081856200061b565b9350620006e281856020860162000681565b80840191505092915050565b7f206973206d697373696e6720726f6c6520000000000000000000000000000000600082015250565b6000620007266011836200061b565b91506200073382620006ee565b601182019050919050565b60006200074b826200064f565b9150620007598285620006b7565b9150620007668262000717565b9150620007748284620006b7565b91508190509392505050565b600082825260208201905092915050565b6000601f19601f8301169050919050565b6000620007af8262000676565b620007bb818562000780565b9350620007cd81856020860162000681565b620007d88162000791565b840191505092915050565b60006020820190508181036000830152620007ff8184620007a2565b905092915050565b6000819050919050565b7f4e487b7100000000000000000000000000000000000000000000000000000000600052601160045260246000fd5b60006200084d8262000807565b91506200085a8362000807565b9250817fffffffffffffffffffffffffffffffffffffffffffffffffffffffffffffffff048311821515161562000896576200089562000811565b5b828202905092915050565b6000620008ae8262000807565b9150620008bb8362000807565b9250827fffffffffffffffffffffffffffffffffffffffffffffffffffffffffffffffff03821115620008f357620008f262000811565b5b828201905092915050565b7f4e487b7100000000000000000000000000000000000000000000000000000000600052604160045260246000fd5b7f4e487b7100000000000000000000000000000000000000000000000000000000600052603260045260246000fd5b6000620009698262000807565b9150600082036200097f576200097e62000811565b5b600182039050919050565b7f537472696e67733a20686578206c656e67746820696e73756666696369656e74600082015250565b6000620009c260208362000780565b9150620009cf826200098a565b602082019050919050565b60006020820190508181036000830152620009f581620009b3565b9050919050565b61164a8062000a0c6000396000f3fe6080604052600436106100e85760003560e01c8063804f43cd1161008a578063a6f5f01411610059578063a6f5f014146102d3578063c4e41b22146102fe578063d547741f14610329578063dd31a7ba14610352576100e8565b8063804f43cd1461023657806391d148541461024057806394f4504d1461027d578063a217fddf146102a8576100e8565b806328438f68116100c657806328438f68146101925780632f2ff15d146101bb57806336568abe146101e457806361aec2051461020d576100e8565b806301ffc9a7146100ed578063248a9ca31461012a57806327c25c2014610167575b600080fd5b3480156100f957600080fd5b50610114600480360381019061010f9190610d4a565b61037b565b6040516101219190610d92565b60405180910390f35b34801561013657600080fd5b50610151600480360381019061014c9190610de3565b6103f5565b60405161015e9190610e1f565b60405180910390f35b34801561017357600080fd5b5061017c610414565b6040516101899190610eb9565b60405180910390f35b34801561019e57600080fd5b506101b960048036038101906101b49190610f00565b61043a565b005b3480156101c757600080fd5b506101e260048036038101906101dd9190610f6b565b610465565b005b3480156101f057600080fd5b5061020b60048036038101906102069190610f6b565b610486565b005b34801561021957600080fd5b50610234600480360381019061022f9190610fe9565b610509565b005b61023e61055b565b005b34801561024c57600080fd5b5061026760048036038101906102629190610f6b565b610652565b6040516102749190610d92565b60405180910390f35b34801561028957600080fd5b506102926106bc565b60405161029f9190610d92565b60405180910390f35b3480156102b457600080fd5b506102bd6106cf565b6040516102ca9190610e1f565b60405180910390f35b3480156102df57600080fd5b506102e86106d6565b6040516102f59190610d92565b60405180910390f35b34801561030a57600080fd5b506103136106e9565b604051610320919061102f565b60405180910390f35b34801561033557600080fd5b50610350600480360381019061034b9190610f6b565b610781565b005b34801561035e57600080fd5b5061037960048036038101906103749190610f00565b6107a2565b005b60007f7965db0b000000000000000000000000000000000000000000000000000000007bffffffffffffffffffffffffffffffffffffffffffffffffffffffff1916827bffffffffffffffffffffffffffffffffffffffffffffffffffffffff191614806103ee57506103ed82610a09565b5b9050919050565b6000806000838152602001908152602001600020600101549050919050565b600260009054906101000a900473ffffffffffffffffffffffffffffffffffffffff1681565b6000801b61044781610a73565b81600260146101000a81548160ff0219169083151502179055505050565b61046e826103f5565b61047781610a73565b6104818383610a87565b505050565b61048e610b67565b73ffffffffffffffffffffffffffffffffffffffff168173ffffffffffffffffffffffffffffffffffffffff16146104fb576040517f08c379a00000000000000000000000000000000000000000000000000000000081526004016104f2906110cd565b60405180910390fd5b6105058282610b6f565b5050565b6000801b61051681610a73565b81600260006101000a81548173ffffffffffffffffffffffffffffffffffffffff021916908373ffffffffffffffffffffffffffffffffffffffff1602179055505050565b6002600154036105a0576040517f08c379a000000000000000000000000000000000000000000000000000000000815260040161059790611139565b60405180910390fd5b600260018190555060011515600260159054906101000a900460ff161515146105fe576040517f08c379a00000000000000000000000000000000000000000000000000000000081526004016105f5906111a5565b60405180910390fd5b6104576106096106e9565b10610649576040517f08c379a000000000000000000000000000000000000000000000000000000000815260040161064090611211565b60405180910390fd5b60018081905550565b600080600084815260200190815260200160002060000160008373ffffffffffffffffffffffffffffffffffffffff1673ffffffffffffffffffffffffffffffffffffffff16815260200190815260200160002060009054906101000a900460ff16905092915050565b600260159054906101000a900460ff1681565b6000801b81565b600260149054906101000a900460ff1681565b6000600260009054906101000a900473ffffffffffffffffffffffffffffffffffffffff1673ffffffffffffffffffffffffffffffffffffffff166318160ddd6040518163ffffffff1660e01b8152600401602060405180830381865afa158015610758573d6000803e3d6000fd5b505050506040513d601f19601f8201168201806040525081019061077c919061125d565b905090565b61078a826103f5565b61079381610a73565b61079d8383610b6f565b505050565b6000801b6107af81610a73565b81600260156101000a81548160ff0219169083151502179055505050565b6060600060028360026107e091906112b9565b6107ea9190611313565b67ffffffffffffffff81111561080357610802611369565b5b6040519080825280601f01601f1916602001820160405280156108355781602001600182028036833780820191505090505b5090507f30000000000000000000000000000000000000000000000000000000000000008160008151811061086d5761086c611398565b5b60200101907effffffffffffffffffffffffffffffffffffffffffffffffffffffffffffff1916908160001a9053507f7800000000000000000000000000000000000000000000000000000000000000816001815181106108d1576108d0611398565b5b60200101907effffffffffffffffffffffffffffffffffffffffffffffffffffffffffffff1916908160001a9053506000600184600261091191906112b9565b61091b9190611313565b90505b60018111156109bb577f3031323334353637383961626364656600000000000000000000000000000000600f86166010811061095d5761095c611398565b5b1a60f81b82828151811061097457610973611398565b5b60200101907effffffffffffffffffffffffffffffffffffffffffffffffffffffffffffff1916908160001a905350600485901c9450806109b4906113c7565b905061091e565b50600084146109ff576040517f08c379a00000000000000000000000000000000000000000000000000000000081526004016109f69061143c565b60405180910390fd5b8091505092915050565b60007f01ffc9a7000000000000000000000000000000000000000000000000000000007bffffffffffffffffffffffffffffffffffffffffffffffffffffffff1916827bffffffffffffffffffffffffffffffffffffffffffffffffffffffff1916149050919050565b610a8481610a7f610b67565b610c50565b50565b610a918282610652565b610b6357600160008084815260200190815260200160002060000160008373ffffffffffffffffffffffffffffffffffffffff1673ffffffffffffffffffffffffffffffffffffffff16815260200190815260200160002060006101000a81548160ff021916908315150217905550610b08610b67565b73ffffffffffffffffffffffffffffffffffffffff168173ffffffffffffffffffffffffffffffffffffffff16837f2f8788117e7eff1d82e926ec794901d17c78024a50270940304540a733656f0d60405160405180910390a45b5050565b600033905090565b610b798282610652565b15610c4c57600080600084815260200190815260200160002060000160008373ffffffffffffffffffffffffffffffffffffffff1673ffffffffffffffffffffffffffffffffffffffff16815260200190815260200160002060006101000a81548160ff021916908315150217905550610bf1610b67565b73ffffffffffffffffffffffffffffffffffffffff168173ffffffffffffffffffffffffffffffffffffffff16837ff6391f5c32d9c69d2a47ea670b442974b53935d1edc7fd64eb21e047a839171b60405160405180910390a45b5050565b610c5a8282610652565b610ce957610c7f8173ffffffffffffffffffffffffffffffffffffffff1660146107cd565b610c8d8360001c60206107cd565b604051602001610c9e92919061156e565b6040516020818303038152906040526040517f08c379a0000000000000000000000000000000000000000000000000000000008152600401610ce091906115f2565b60405180910390fd5b5050565b600080fd5b60007fffffffff0000000000000000000000000000000000000000000000000000000082169050919050565b610d2781610cf2565b8114610d3257600080fd5b50565b600081359050610d4481610d1e565b92915050565b600060208284031215610d6057610d5f610ced565b5b6000610d6e84828501610d35565b91505092915050565b60008115159050919050565b610d8c81610d77565b82525050565b6000602082019050610da76000830184610d83565b92915050565b6000819050919050565b610dc081610dad565b8114610dcb57600080fd5b50565b600081359050610ddd81610db7565b92915050565b600060208284031215610df957610df8610ced565b5b6000610e0784828501610dce565b91505092915050565b610e1981610dad565b82525050565b6000602082019050610e346000830184610e10565b92915050565b600073ffffffffffffffffffffffffffffffffffffffff82169050919050565b6000819050919050565b6000610e7f610e7a610e7584610e3a565b610e5a565b610e3a565b9050919050565b6000610e9182610e64565b9050919050565b6000610ea382610e86565b9050919050565b610eb381610e98565b82525050565b6000602082019050610ece6000830184610eaa565b92915050565b610edd81610d77565b8114610ee857600080fd5b50565b600081359050610efa81610ed4565b92915050565b600060208284031215610f1657610f15610ced565b5b6000610f2484828501610eeb565b91505092915050565b6000610f3882610e3a565b9050919050565b610f4881610f2d565b8114610f5357600080fd5b50565b600081359050610f6581610f3f565b92915050565b60008060408385031215610f8257610f81610ced565b5b6000610f9085828601610dce565b9250506020610fa185828601610f56565b9150509250929050565b6000610fb682610f2d565b9050919050565b610fc681610fab565b8114610fd157600080fd5b50565b600081359050610fe381610fbd565b92915050565b600060208284031215610fff57610ffe610ced565b5b600061100d84828501610fd4565b91505092915050565b6000819050919050565b61102981611016565b82525050565b60006020820190506110446000830184611020565b92915050565b600082825260208201905092915050565b7f416363657373436f6e74726f6c3a2063616e206f6e6c792072656e6f756e636560008201527f20726f6c657320666f722073656c660000000000000000000000000000000000602082015250565b60006110b7602f8361104a565b91506110c28261105b565b604082019050919050565b600060208201905081810360008301526110e6816110aa565b9050919050565b7f5265656e7472616e637947756172643a207265656e7472616e742063616c6c00600082015250565b6000611123601f8361104a565b915061112e826110ed565b602082019050919050565b6000602082019050818103600083015261115281611116565b9050919050565b7f57686974656c697374206e6f74206f70656e20746f206d696e742e0000000000600082015250565b600061118f601b8361104a565b915061119a82611159565b602082019050919050565b600060208201905081810360008301526111be81611182565b9050919050565b7f4f76657220737570706c79000000000000000000000000000000000000000000600082015250565b60006111fb600b8361104a565b9150611206826111c5565b602082019050919050565b6000602082019050818103600083015261122a816111ee565b9050919050565b61123a81611016565b811461124557600080fd5b50565b60008151905061125781611231565b92915050565b60006020828403121561127357611272610ced565b5b600061128184828501611248565b91505092915050565b7f4e487b7100000000000000000000000000000000000000000000000000000000600052601160045260246000fd5b60006112c482611016565b91506112cf83611016565b9250817fffffffffffffffffffffffffffffffffffffffffffffffffffffffffffffffff04831182151516156113085761130761128a565b5b828202905092915050565b600061131e82611016565b915061132983611016565b9250827fffffffffffffffffffffffffffffffffffffffffffffffffffffffffffffffff0382111561135e5761135d61128a565b5b828201905092915050565b7f4e487b7100000000000000000000000000000000000000000000000000000000600052604160045260246000fd5b7f4e487b7100000000000000000000000000000000000000000000000000000000600052603260045260246000fd5b60006113d282611016565b9150600082036113e5576113e461128a565b5b600182039050919050565b7f537472696e67733a20686578206c656e67746820696e73756666696369656e74600082015250565b600061142660208361104a565b9150611431826113f0565b602082019050919050565b6000602082019050818103600083015261145581611419565b9050919050565b600081905092915050565b7f416363657373436f6e74726f6c3a206163636f756e7420000000000000000000600082015250565b600061149d60178361145c565b91506114a882611467565b601782019050919050565b600081519050919050565b60005b838110156114dc5780820151818401526020810190506114c1565b838111156114eb576000848401525b50505050565b60006114fc826114b3565b611506818561145c565b93506115168185602086016114be565b80840191505092915050565b7f206973206d697373696e6720726f6c6520000000000000000000000000000000600082015250565b600061155860118361145c565b915061156382611522565b601182019050919050565b600061157982611490565b915061158582856114f1565b91506115908261154b565b915061159c82846114f1565b91508190509392505050565b6000601f19601f8301169050919050565b60006115c4826114b3565b6115ce818561104a565b93506115de8185602086016114be565b6115e7816115a8565b840191505092915050565b6000602082019050818103600083015261160c81846115b9565b90509291505056fea2646970667358221220d93279679cc0f2bf631239dfc59daf598485938f92520b424e9709b8ca5f5b3964736f6c634300080f0033",
					"opcodes": "PUSH1 0x80 PUSH1 0x40 MSTORE CALLVALUE DUP1 ISZERO PUSH3 0x11 JUMPI PUSH1 0x0 DUP1 REVERT JUMPDEST POP PUSH1 0x40 MLOAD PUSH3 0x2056 CODESIZE SUB DUP1 PUSH3 0x2056 DUP4 CODECOPY DUP2 DUP2 ADD PUSH1 0x40 MSTORE DUP2 ADD SWAP1 PUSH3 0x37 SWAP2 SWAP1 PUSH3 0x5E9 JUMP JUMPDEST PUSH1 0x1 DUP1 DUP2 SWAP1 SSTORE POP PUSH3 0x53 PUSH1 0x0 DUP1 SHL CALLER PUSH3 0x6B PUSH1 0x20 SHL PUSH1 0x20 SHR JUMP JUMPDEST PUSH3 0x64 DUP2 PUSH3 0x15C PUSH1 0x20 SHL PUSH1 0x20 SHR JUMP JUMPDEST POP PUSH3 0x9FC JUMP JUMPDEST PUSH3 0x7D DUP3 DUP3 PUSH3 0x1B6 PUSH1 0x20 SHL PUSH1 0x20 SHR JUMP JUMPDEST PUSH3 0x158 JUMPI PUSH1 0x1 PUSH1 0x0 DUP1 DUP5 DUP2 MSTORE PUSH1 0x20 ADD SWAP1 DUP2 MSTORE PUSH1 0x20 ADD PUSH1 0x0 KECCAK256 PUSH1 0x0 ADD PUSH1 0x0 DUP4 PUSH20 0xFFFFFFFFFFFFFFFFFFFFFFFFFFFFFFFFFFFFFFFF AND PUSH20 0xFFFFFFFFFFFFFFFFFFFFFFFFFFFFFFFFFFFFFFFF AND DUP2 MSTORE PUSH1 0x20 ADD SWAP1 DUP2 MSTORE PUSH1 0x20 ADD PUSH1 0x0 KECCAK256 PUSH1 0x0 PUSH2 0x100 EXP DUP2 SLOAD DUP2 PUSH1 0xFF MUL NOT AND SWAP1 DUP4 ISZERO ISZERO MUL OR SWAP1 SSTORE POP PUSH3 0xFD PUSH3 0x220 PUSH1 0x20 SHL PUSH1 0x20 SHR JUMP JUMPDEST PUSH20 0xFFFFFFFFFFFFFFFFFFFFFFFFFFFFFFFFFFFFFFFF AND DUP2 PUSH20 0xFFFFFFFFFFFFFFFFFFFFFFFFFFFFFFFFFFFFFFFF AND DUP4 PUSH32 0x2F8788117E7EFF1D82E926EC794901D17C78024A50270940304540A733656F0D PUSH1 0x40 MLOAD PUSH1 0x40 MLOAD DUP1 SWAP2 SUB SWAP1 LOG4 JUMPDEST POP POP JUMP JUMPDEST PUSH1 0x0 DUP1 SHL PUSH3 0x171 DUP2 PUSH3 0x228 PUSH1 0x20 SHL PUSH1 0x20 SHR JUMP JUMPDEST DUP2 PUSH1 0x2 PUSH1 0x0 PUSH2 0x100 EXP DUP2 SLOAD DUP2 PUSH20 0xFFFFFFFFFFFFFFFFFFFFFFFFFFFFFFFFFFFFFFFF MUL NOT AND SWAP1 DUP4 PUSH20 0xFFFFFFFFFFFFFFFFFFFFFFFFFFFFFFFFFFFFFFFF AND MUL OR SWAP1 SSTORE POP POP POP JUMP JUMPDEST PUSH1 0x0 DUP1 PUSH1 0x0 DUP5 DUP2 MSTORE PUSH1 0x20 ADD SWAP1 DUP2 MSTORE PUSH1 0x20 ADD PUSH1 0x0 KECCAK256 PUSH1 0x0 ADD PUSH1 0x0 DUP4 PUSH20 0xFFFFFFFFFFFFFFFFFFFFFFFFFFFFFFFFFFFFFFFF AND PUSH20 0xFFFFFFFFFFFFFFFFFFFFFFFFFFFFFFFFFFFFFFFF AND DUP2 MSTORE PUSH1 0x20 ADD SWAP1 DUP2 MSTORE PUSH1 0x20 ADD PUSH1 0x0 KECCAK256 PUSH1 0x0 SWAP1 SLOAD SWAP1 PUSH2 0x100 EXP SWAP1 DIV PUSH1 0xFF AND SWAP1 POP SWAP3 SWAP2 POP POP JUMP JUMPDEST PUSH1 0x0 CALLER SWAP1 POP SWAP1 JUMP JUMPDEST PUSH3 0x249 DUP2 PUSH3 0x23D PUSH3 0x220 PUSH1 0x20 SHL PUSH1 0x20 SHR JUMP JUMPDEST PUSH3 0x24C PUSH1 0x20 SHL PUSH1 0x20 SHR JUMP JUMPDEST POP JUMP JUMPDEST PUSH3 0x25E DUP3 DUP3 PUSH3 0x1B6 PUSH1 0x20 SHL PUSH1 0x20 SHR JUMP JUMPDEST PUSH3 0x30C JUMPI PUSH3 0x291 DUP2 PUSH20 0xFFFFFFFFFFFFFFFFFFFFFFFFFFFFFFFFFFFFFFFF AND PUSH1 0x14 PUSH3 0x310 PUSH1 0x20 SHL PUSH3 0x7CD OR PUSH1 0x20 SHR JUMP JUMPDEST PUSH3 0x2AC DUP4 PUSH1 0x0 SHR PUSH1 0x20 PUSH3 0x310 PUSH1 0x20 SHL PUSH3 0x7CD OR PUSH1 0x20 SHR JUMP JUMPDEST PUSH1 0x40 MLOAD PUSH1 0x20 ADD PUSH3 0x2BF SWAP3 SWAP2 SWAP1 PUSH3 0x73E JUMP JUMPDEST PUSH1 0x40 MLOAD PUSH1 0x20 DUP2 DUP4 SUB SUB DUP2 MSTORE SWAP1 PUSH1 0x40 MSTORE PUSH1 0x40 MLOAD PUSH32 0x8C379A000000000000000000000000000000000000000000000000000000000 DUP2 MSTORE PUSH1 0x4 ADD PUSH3 0x303 SWAP2 SWAP1 PUSH3 0x7E3 JUMP JUMPDEST PUSH1 0x40 MLOAD DUP1 SWAP2 SUB SWAP1 REVERT JUMPDEST POP POP JUMP JUMPDEST PUSH1 0x60 PUSH1 0x0 PUSH1 0x2 DUP4 PUSH1 0x2 PUSH3 0x325 SWAP2 SWAP1 PUSH3 0x840 JUMP JUMPDEST PUSH3 0x331 SWAP2 SWAP1 PUSH3 0x8A1 JUMP JUMPDEST PUSH8 0xFFFFFFFFFFFFFFFF DUP2 GT ISZERO PUSH3 0x34D JUMPI PUSH3 0x34C PUSH3 0x8FE JUMP JUMPDEST JUMPDEST PUSH1 0x40 MLOAD SWAP1 DUP1 DUP3 MSTORE DUP1 PUSH1 0x1F ADD PUSH1 0x1F NOT AND PUSH1 0x20 ADD DUP3 ADD PUSH1 0x40 MSTORE DUP1 ISZERO PUSH3 0x380 JUMPI DUP2 PUSH1 0x20 ADD PUSH1 0x1 DUP3 MUL DUP1 CALLDATASIZE DUP4 CALLDATACOPY DUP1 DUP3 ADD SWAP2 POP POP SWAP1 POP JUMPDEST POP SWAP1 POP PUSH32 0x3000000000000000000000000000000000000000000000000000000000000000 DUP2 PUSH1 0x0 DUP2 MLOAD DUP2 LT PUSH3 0x3BB JUMPI PUSH3 0x3BA PUSH3 0x92D JUMP JUMPDEST JUMPDEST PUSH1 0x20 ADD ADD SWAP1 PUSH31 0xFFFFFFFFFFFFFFFFFFFFFFFFFFFFFFFFFFFFFFFFFFFFFFFFFFFFFFFFFFFFFF NOT AND SWAP1 DUP2 PUSH1 0x0 BYTE SWAP1 MSTORE8 POP PUSH32 0x7800000000000000000000000000000000000000000000000000000000000000 DUP2 PUSH1 0x1 DUP2 MLOAD DUP2 LT PUSH3 0x422 JUMPI PUSH3 0x421 PUSH3 0x92D JUMP JUMPDEST JUMPDEST PUSH1 0x20 ADD ADD SWAP1 PUSH31 0xFFFFFFFFFFFFFFFFFFFFFFFFFFFFFFFFFFFFFFFFFFFFFFFFFFFFFFFFFFFFFF NOT AND SWAP1 DUP2 PUSH1 0x0 BYTE SWAP1 MSTORE8 POP PUSH1 0x0 PUSH1 0x1 DUP5 PUSH1 0x2 PUSH3 0x464 SWAP2 SWAP1 PUSH3 0x840 JUMP JUMPDEST PUSH3 0x470 SWAP2 SWAP1 PUSH3 0x8A1 JUMP JUMPDEST SWAP1 POP JUMPDEST PUSH1 0x1 DUP2 GT ISZERO PUSH3 0x51A JUMPI PUSH32 0x3031323334353637383961626364656600000000000000000000000000000000 PUSH1 0xF DUP7 AND PUSH1 0x10 DUP2 LT PUSH3 0x4B6 JUMPI PUSH3 0x4B5 PUSH3 0x92D JUMP JUMPDEST JUMPDEST BYTE PUSH1 0xF8 SHL DUP3 DUP3 DUP2 MLOAD DUP2 LT PUSH3 0x4D0 JUMPI PUSH3 0x4CF PUSH3 0x92D JUMP JUMPDEST JUMPDEST PUSH1 0x20 ADD ADD SWAP1 PUSH31 0xFFFFFFFFFFFFFFFFFFFFFFFFFFFFFFFFFFFFFFFFFFFFFFFFFFFFFFFFFFFFFF NOT AND SWAP1 DUP2 PUSH1 0x0 BYTE SWAP1 MSTORE8 POP PUSH1 0x4 DUP6 SWAP1 SHR SWAP5 POP DUP1 PUSH3 0x512 SWAP1 PUSH3 0x95C JUMP JUMPDEST SWAP1 POP PUSH3 0x473 JUMP JUMPDEST POP PUSH1 0x0 DUP5 EQ PUSH3 0x561 JUMPI PUSH1 0x40 MLOAD PUSH32 0x8C379A000000000000000000000000000000000000000000000000000000000 DUP2 MSTORE PUSH1 0x4 ADD PUSH3 0x558 SWAP1 PUSH3 0x9DA JUMP JUMPDEST PUSH1 0x40 MLOAD DUP1 SWAP2 SUB SWAP1 REVERT JUMPDEST DUP1 SWAP2 POP POP SWAP3 SWAP2 POP POP JUMP JUMPDEST PUSH1 0x0 DUP1 REVERT JUMPDEST PUSH1 0x0 PUSH20 0xFFFFFFFFFFFFFFFFFFFFFFFFFFFFFFFFFFFFFFFF DUP3 AND SWAP1 POP SWAP2 SWAP1 POP JUMP JUMPDEST PUSH1 0x0 PUSH3 0x59D DUP3 PUSH3 0x570 JUMP JUMPDEST SWAP1 POP SWAP2 SWAP1 POP JUMP JUMPDEST PUSH1 0x0 PUSH3 0x5B1 DUP3 PUSH3 0x590 JUMP JUMPDEST SWAP1 POP SWAP2 SWAP1 POP JUMP JUMPDEST PUSH3 0x5C3 DUP2 PUSH3 0x5A4 JUMP JUMPDEST DUP2 EQ PUSH3 0x5CF JUMPI PUSH1 0x0 DUP1 REVERT JUMPDEST POP JUMP JUMPDEST PUSH1 0x0 DUP2 MLOAD SWAP1 POP PUSH3 0x5E3 DUP2 PUSH3 0x5B8 JUMP JUMPDEST SWAP3 SWAP2 POP POP JUMP JUMPDEST PUSH1 0x0 PUSH1 0x20 DUP3 DUP5 SUB SLT ISZERO PUSH3 0x602 JUMPI PUSH3 0x601 PUSH3 0x56B JUMP JUMPDEST JUMPDEST PUSH1 0x0 PUSH3 0x612 DUP5 DUP3 DUP6 ADD PUSH3 0x5D2 JUMP JUMPDEST SWAP2 POP POP SWAP3 SWAP2 POP POP JUMP JUMPDEST PUSH1 0x0 DUP2 SWAP1 POP SWAP3 SWAP2 POP POP JUMP JUMPDEST PUSH32 0x416363657373436F6E74726F6C3A206163636F756E7420000000000000000000 PUSH1 0x0 DUP3 ADD MSTORE POP JUMP JUMPDEST PUSH1 0x0 PUSH3 0x65E PUSH1 0x17 DUP4 PUSH3 0x61B JUMP JUMPDEST SWAP2 POP PUSH3 0x66B DUP3 PUSH3 0x626 JUMP JUMPDEST PUSH1 0x17 DUP3 ADD SWAP1 POP SWAP2 SWAP1 POP JUMP JUMPDEST PUSH1 0x0 DUP2 MLOAD SWAP1 POP SWAP2 SWAP1 POP JUMP JUMPDEST PUSH1 0x0 JUMPDEST DUP4 DUP2 LT ISZERO PUSH3 0x6A1 JUMPI DUP1 DUP3 ADD MLOAD DUP2 DUP5 ADD MSTORE PUSH1 0x20 DUP2 ADD SWAP1 POP PUSH3 0x684 JUMP JUMPDEST DUP4 DUP2 GT ISZERO PUSH3 0x6B1 JUMPI PUSH1 0x0 DUP5 DUP5 ADD MSTORE JUMPDEST POP POP POP POP JUMP JUMPDEST PUSH1 0x0 PUSH3 0x6C4 DUP3 PUSH3 0x676 JUMP JUMPDEST PUSH3 0x6D0 DUP2 DUP6 PUSH3 0x61B JUMP JUMPDEST SWAP4 POP PUSH3 0x6E2 DUP2 DUP6 PUSH1 0x20 DUP7 ADD PUSH3 0x681 JUMP JUMPDEST DUP1 DUP5 ADD SWAP2 POP POP SWAP3 SWAP2 POP POP JUMP JUMPDEST PUSH32 0x206973206D697373696E6720726F6C6520000000000000000000000000000000 PUSH1 0x0 DUP3 ADD MSTORE POP JUMP JUMPDEST PUSH1 0x0 PUSH3 0x726 PUSH1 0x11 DUP4 PUSH3 0x61B JUMP JUMPDEST SWAP2 POP PUSH3 0x733 DUP3 PUSH3 0x6EE JUMP JUMPDEST PUSH1 0x11 DUP3 ADD SWAP1 POP SWAP2 SWAP1 POP JUMP JUMPDEST PUSH1 0x0 PUSH3 0x74B DUP3 PUSH3 0x64F JUMP JUMPDEST SWAP2 POP PUSH3 0x759 DUP3 DUP6 PUSH3 0x6B7 JUMP JUMPDEST SWAP2 POP PUSH3 0x766 DUP3 PUSH3 0x717 JUMP JUMPDEST SWAP2 POP PUSH3 0x774 DUP3 DUP5 PUSH3 0x6B7 JUMP JUMPDEST SWAP2 POP DUP2 SWAP1 POP SWAP4 SWAP3 POP POP POP JUMP JUMPDEST PUSH1 0x0 DUP3 DUP3 MSTORE PUSH1 0x20 DUP3 ADD SWAP1 POP SWAP3 SWAP2 POP POP JUMP JUMPDEST PUSH1 0x0 PUSH1 0x1F NOT PUSH1 0x1F DUP4 ADD AND SWAP1 POP SWAP2 SWAP1 POP JUMP JUMPDEST PUSH1 0x0 PUSH3 0x7AF DUP3 PUSH3 0x676 JUMP JUMPDEST PUSH3 0x7BB DUP2 DUP6 PUSH3 0x780 JUMP JUMPDEST SWAP4 POP PUSH3 0x7CD DUP2 DUP6 PUSH1 0x20 DUP7 ADD PUSH3 0x681 JUMP JUMPDEST PUSH3 0x7D8 DUP2 PUSH3 0x791 JUMP JUMPDEST DUP5 ADD SWAP2 POP POP SWAP3 SWAP2 POP POP JUMP JUMPDEST PUSH1 0x0 PUSH1 0x20 DUP3 ADD SWAP1 POP DUP2 DUP2 SUB PUSH1 0x0 DUP4 ADD MSTORE PUSH3 0x7FF DUP2 DUP5 PUSH3 0x7A2 JUMP JUMPDEST SWAP1 POP SWAP3 SWAP2 POP POP JUMP JUMPDEST PUSH1 0x0 DUP2 SWAP1 POP SWAP2 SWAP1 POP JUMP JUMPDEST PUSH32 0x4E487B7100000000000000000000000000000000000000000000000000000000 PUSH1 0x0 MSTORE PUSH1 0x11 PUSH1 0x4 MSTORE PUSH1 0x24 PUSH1 0x0 REVERT JUMPDEST PUSH1 0x0 PUSH3 0x84D DUP3 PUSH3 0x807 JUMP JUMPDEST SWAP2 POP PUSH3 0x85A DUP4 PUSH3 0x807 JUMP JUMPDEST SWAP3 POP DUP2 PUSH32 0xFFFFFFFFFFFFFFFFFFFFFFFFFFFFFFFFFFFFFFFFFFFFFFFFFFFFFFFFFFFFFFFF DIV DUP4 GT DUP3 ISZERO ISZERO AND ISZERO PUSH3 0x896 JUMPI PUSH3 0x895 PUSH3 0x811 JUMP JUMPDEST JUMPDEST DUP3 DUP3 MUL SWAP1 POP SWAP3 SWAP2 POP POP JUMP JUMPDEST PUSH1 0x0 PUSH3 0x8AE DUP3 PUSH3 0x807 JUMP JUMPDEST SWAP2 POP PUSH3 0x8BB DUP4 PUSH3 0x807 JUMP JUMPDEST SWAP3 POP DUP3 PUSH32 0xFFFFFFFFFFFFFFFFFFFFFFFFFFFFFFFFFFFFFFFFFFFFFFFFFFFFFFFFFFFFFFFF SUB DUP3 GT ISZERO PUSH3 0x8F3 JUMPI PUSH3 0x8F2 PUSH3 0x811 JUMP JUMPDEST JUMPDEST DUP3 DUP3 ADD SWAP1 POP SWAP3 SWAP2 POP POP JUMP JUMPDEST PUSH32 0x4E487B7100000000000000000000000000000000000000000000000000000000 PUSH1 0x0 MSTORE PUSH1 0x41 PUSH1 0x4 MSTORE PUSH1 0x24 PUSH1 0x0 REVERT JUMPDEST PUSH32 0x4E487B7100000000000000000000000000000000000000000000000000000000 PUSH1 0x0 MSTORE PUSH1 0x32 PUSH1 0x4 MSTORE PUSH1 0x24 PUSH1 0x0 REVERT JUMPDEST PUSH1 0x0 PUSH3 0x969 DUP3 PUSH3 0x807 JUMP JUMPDEST SWAP2 POP PUSH1 0x0 DUP3 SUB PUSH3 0x97F JUMPI PUSH3 0x97E PUSH3 0x811 JUMP JUMPDEST JUMPDEST PUSH1 0x1 DUP3 SUB SWAP1 POP SWAP2 SWAP1 POP JUMP JUMPDEST PUSH32 0x537472696E67733A20686578206C656E67746820696E73756666696369656E74 PUSH1 0x0 DUP3 ADD MSTORE POP JUMP JUMPDEST PUSH1 0x0 PUSH3 0x9C2 PUSH1 0x20 DUP4 PUSH3 0x780 JUMP JUMPDEST SWAP2 POP PUSH3 0x9CF DUP3 PUSH3 0x98A JUMP JUMPDEST PUSH1 0x20 DUP3 ADD SWAP1 POP SWAP2 SWAP1 POP JUMP JUMPDEST PUSH1 0x0 PUSH1 0x20 DUP3 ADD SWAP1 POP DUP2 DUP2 SUB PUSH1 0x0 DUP4 ADD MSTORE PUSH3 0x9F5 DUP2 PUSH3 0x9B3 JUMP JUMPDEST SWAP1 POP SWAP2 SWAP1 POP JUMP JUMPDEST PUSH2 0x164A DUP1 PUSH3 0xA0C PUSH1 0x0 CODECOPY PUSH1 0x0 RETURN INVALID PUSH1 0x80 PUSH1 0x40 MSTORE PUSH1 0x4 CALLDATASIZE LT PUSH2 0xE8 JUMPI PUSH1 0x0 CALLDATALOAD PUSH1 0xE0 SHR DUP1 PUSH4 0x804F43CD GT PUSH2 0x8A JUMPI DUP1 PUSH4 0xA6F5F014 GT PUSH2 0x59 JUMPI DUP1 PUSH4 0xA6F5F014 EQ PUSH2 0x2D3 JUMPI DUP1 PUSH4 0xC4E41B22 EQ PUSH2 0x2FE JUMPI DUP1 PUSH4 0xD547741F EQ PUSH2 0x329 JUMPI DUP1 PUSH4 0xDD31A7BA EQ PUSH2 0x352 JUMPI PUSH2 0xE8 JUMP JUMPDEST DUP1 PUSH4 0x804F43CD EQ PUSH2 0x236 JUMPI DUP1 PUSH4 0x91D14854 EQ PUSH2 0x240 JUMPI DUP1 PUSH4 0x94F4504D EQ PUSH2 0x27D JUMPI DUP1 PUSH4 0xA217FDDF EQ PUSH2 0x2A8 JUMPI PUSH2 0xE8 JUMP JUMPDEST DUP1 PUSH4 0x28438F68 GT PUSH2 0xC6 JUMPI DUP1 PUSH4 0x28438F68 EQ PUSH2 0x192 JUMPI DUP1 PUSH4 0x2F2FF15D EQ PUSH2 0x1BB JUMPI DUP1 PUSH4 0x36568ABE EQ PUSH2 0x1E4 JUMPI DUP1 PUSH4 0x61AEC205 EQ PUSH2 0x20D JUMPI PUSH2 0xE8 JUMP JUMPDEST DUP1 PUSH4 0x1FFC9A7 EQ PUSH2 0xED JUMPI DUP1 PUSH4 0x248A9CA3 EQ PUSH2 0x12A JUMPI DUP1 PUSH4 0x27C25C20 EQ PUSH2 0x167 JUMPI JUMPDEST PUSH1 0x0 DUP1 REVERT JUMPDEST CALLVALUE DUP1 ISZERO PUSH2 0xF9 JUMPI PUSH1 0x0 DUP1 REVERT JUMPDEST POP PUSH2 0x114 PUSH1 0x4 DUP1 CALLDATASIZE SUB DUP2 ADD SWAP1 PUSH2 0x10F SWAP2 SWAP1 PUSH2 0xD4A JUMP JUMPDEST PUSH2 0x37B JUMP JUMPDEST PUSH1 0x40 MLOAD PUSH2 0x121 SWAP2 SWAP1 PUSH2 0xD92 JUMP JUMPDEST PUSH1 0x40 MLOAD DUP1 SWAP2 SUB SWAP1 RETURN JUMPDEST CALLVALUE DUP1 ISZERO PUSH2 0x136 JUMPI PUSH1 0x0 DUP1 REVERT JUMPDEST POP PUSH2 0x151 PUSH1 0x4 DUP1 CALLDATASIZE SUB DUP2 ADD SWAP1 PUSH2 0x14C SWAP2 SWAP1 PUSH2 0xDE3 JUMP JUMPDEST PUSH2 0x3F5 JUMP JUMPDEST PUSH1 0x40 MLOAD PUSH2 0x15E SWAP2 SWAP1 PUSH2 0xE1F JUMP JUMPDEST PUSH1 0x40 MLOAD DUP1 SWAP2 SUB SWAP1 RETURN JUMPDEST CALLVALUE DUP1 ISZERO PUSH2 0x173 JUMPI PUSH1 0x0 DUP1 REVERT JUMPDEST POP PUSH2 0x17C PUSH2 0x414 JUMP JUMPDEST PUSH1 0x40 MLOAD PUSH2 0x189 SWAP2 SWAP1 PUSH2 0xEB9 JUMP JUMPDEST PUSH1 0x40 MLOAD DUP1 SWAP2 SUB SWAP1 RETURN JUMPDEST CALLVALUE DUP1 ISZERO PUSH2 0x19E JUMPI PUSH1 0x0 DUP1 REVERT JUMPDEST POP PUSH2 0x1B9 PUSH1 0x4 DUP1 CALLDATASIZE SUB DUP2 ADD SWAP1 PUSH2 0x1B4 SWAP2 SWAP1 PUSH2 0xF00 JUMP JUMPDEST PUSH2 0x43A JUMP JUMPDEST STOP JUMPDEST CALLVALUE DUP1 ISZERO PUSH2 0x1C7 JUMPI PUSH1 0x0 DUP1 REVERT JUMPDEST POP PUSH2 0x1E2 PUSH1 0x4 DUP1 CALLDATASIZE SUB DUP2 ADD SWAP1 PUSH2 0x1DD SWAP2 SWAP1 PUSH2 0xF6B JUMP JUMPDEST PUSH2 0x465 JUMP JUMPDEST STOP JUMPDEST CALLVALUE DUP1 ISZERO PUSH2 0x1F0 JUMPI PUSH1 0x0 DUP1 REVERT JUMPDEST POP PUSH2 0x20B PUSH1 0x4 DUP1 CALLDATASIZE SUB DUP2 ADD SWAP1 PUSH2 0x206 SWAP2 SWAP1 PUSH2 0xF6B JUMP JUMPDEST PUSH2 0x486 JUMP JUMPDEST STOP JUMPDEST CALLVALUE DUP1 ISZERO PUSH2 0x219 JUMPI PUSH1 0x0 DUP1 REVERT JUMPDEST POP PUSH2 0x234 PUSH1 0x4 DUP1 CALLDATASIZE SUB DUP2 ADD SWAP1 PUSH2 0x22F SWAP2 SWAP1 PUSH2 0xFE9 JUMP JUMPDEST PUSH2 0x509 JUMP JUMPDEST STOP JUMPDEST PUSH2 0x23E PUSH2 0x55B JUMP JUMPDEST STOP JUMPDEST CALLVALUE DUP1 ISZERO PUSH2 0x24C JUMPI PUSH1 0x0 DUP1 REVERT JUMPDEST POP PUSH2 0x267 PUSH1 0x4 DUP1 CALLDATASIZE SUB DUP2 ADD SWAP1 PUSH2 0x262 SWAP2 SWAP1 PUSH2 0xF6B JUMP JUMPDEST PUSH2 0x652 JUMP JUMPDEST PUSH1 0x40 MLOAD PUSH2 0x274 SWAP2 SWAP1 PUSH2 0xD92 JUMP JUMPDEST PUSH1 0x40 MLOAD DUP1 SWAP2 SUB SWAP1 RETURN JUMPDEST CALLVALUE DUP1 ISZERO PUSH2 0x289 JUMPI PUSH1 0x0 DUP1 REVERT JUMPDEST POP PUSH2 0x292 PUSH2 0x6BC JUMP JUMPDEST PUSH1 0x40 MLOAD PUSH2 0x29F SWAP2 SWAP1 PUSH2 0xD92 JUMP JUMPDEST PUSH1 0x40 MLOAD DUP1 SWAP2 SUB SWAP1 RETURN JUMPDEST CALLVALUE DUP1 ISZERO PUSH2 0x2B4 JUMPI PUSH1 0x0 DUP1 REVERT JUMPDEST POP PUSH2 0x2BD PUSH2 0x6CF JUMP JUMPDEST PUSH1 0x40 MLOAD PUSH2 0x2CA SWAP2 SWAP1 PUSH2 0xE1F JUMP JUMPDEST PUSH1 0x40 MLOAD DUP1 SWAP2 SUB SWAP1 RETURN JUMPDEST CALLVALUE DUP1 ISZERO PUSH2 0x2DF JUMPI PUSH1 0x0 DUP1 REVERT JUMPDEST POP PUSH2 0x2E8 PUSH2 0x6D6 JUMP JUMPDEST PUSH1 0x40 MLOAD PUSH2 0x2F5 SWAP2 SWAP1 PUSH2 0xD92 JUMP JUMPDEST PUSH1 0x40 MLOAD DUP1 SWAP2 SUB SWAP1 RETURN JUMPDEST CALLVALUE DUP1 ISZERO PUSH2 0x30A JUMPI PUSH1 0x0 DUP1 REVERT JUMPDEST POP PUSH2 0x313 PUSH2 0x6E9 JUMP JUMPDEST PUSH1 0x40 MLOAD PUSH2 0x320 SWAP2 SWAP1 PUSH2 0x102F JUMP JUMPDEST PUSH1 0x40 MLOAD DUP1 SWAP2 SUB SWAP1 RETURN JUMPDEST CALLVALUE DUP1 ISZERO PUSH2 0x335 JUMPI PUSH1 0x0 DUP1 REVERT JUMPDEST POP PUSH2 0x350 PUSH1 0x4 DUP1 CALLDATASIZE SUB DUP2 ADD SWAP1 PUSH2 0x34B SWAP2 SWAP1 PUSH2 0xF6B JUMP JUMPDEST PUSH2 0x781 JUMP JUMPDEST STOP JUMPDEST CALLVALUE DUP1 ISZERO PUSH2 0x35E JUMPI PUSH1 0x0 DUP1 REVERT JUMPDEST POP PUSH2 0x379 PUSH1 0x4 DUP1 CALLDATASIZE SUB DUP2 ADD SWAP1 PUSH2 0x374 SWAP2 SWAP1 PUSH2 0xF00 JUMP JUMPDEST PUSH2 0x7A2 JUMP JUMPDEST STOP JUMPDEST PUSH1 0x0 PUSH32 0x7965DB0B00000000000000000000000000000000000000000000000000000000 PUSH28 0xFFFFFFFFFFFFFFFFFFFFFFFFFFFFFFFFFFFFFFFFFFFFFFFFFFFFFFFF NOT AND DUP3 PUSH28 0xFFFFFFFFFFFFFFFFFFFFFFFFFFFFFFFFFFFFFFFFFFFFFFFFFFFFFFFF NOT AND EQ DUP1 PUSH2 0x3EE JUMPI POP PUSH2 0x3ED DUP3 PUSH2 0xA09 JUMP JUMPDEST JUMPDEST SWAP1 POP SWAP2 SWAP1 POP JUMP JUMPDEST PUSH1 0x0 DUP1 PUSH1 0x0 DUP4 DUP2 MSTORE PUSH1 0x20 ADD SWAP1 DUP2 MSTORE PUSH1 0x20 ADD PUSH1 0x0 KECCAK256 PUSH1 0x1 ADD SLOAD SWAP1 POP SWAP2 SWAP1 POP JUMP JUMPDEST PUSH1 0x2 PUSH1 0x0 SWAP1 SLOAD SWAP1 PUSH2 0x100 EXP SWAP1 DIV PUSH20 0xFFFFFFFFFFFFFFFFFFFFFFFFFFFFFFFFFFFFFFFF AND DUP2 JUMP JUMPDEST PUSH1 0x0 DUP1 SHL PUSH2 0x447 DUP2 PUSH2 0xA73 JUMP JUMPDEST DUP2 PUSH1 0x2 PUSH1 0x14 PUSH2 0x100 EXP DUP2 SLOAD DUP2 PUSH1 0xFF MUL NOT AND SWAP1 DUP4 ISZERO ISZERO MUL OR SWAP1 SSTORE POP POP POP JUMP JUMPDEST PUSH2 0x46E DUP3 PUSH2 0x3F5 JUMP JUMPDEST PUSH2 0x477 DUP2 PUSH2 0xA73 JUMP JUMPDEST PUSH2 0x481 DUP4 DUP4 PUSH2 0xA87 JUMP JUMPDEST POP POP POP JUMP JUMPDEST PUSH2 0x48E PUSH2 0xB67 JUMP JUMPDEST PUSH20 0xFFFFFFFFFFFFFFFFFFFFFFFFFFFFFFFFFFFFFFFF AND DUP2 PUSH20 0xFFFFFFFFFFFFFFFFFFFFFFFFFFFFFFFFFFFFFFFF AND EQ PUSH2 0x4FB JUMPI PUSH1 0x40 MLOAD PUSH32 0x8C379A000000000000000000000000000000000000000000000000000000000 DUP2 MSTORE PUSH1 0x4 ADD PUSH2 0x4F2 SWAP1 PUSH2 0x10CD JUMP JUMPDEST PUSH1 0x40 MLOAD DUP1 SWAP2 SUB SWAP1 REVERT JUMPDEST PUSH2 0x505 DUP3 DUP3 PUSH2 0xB6F JUMP JUMPDEST POP POP JUMP JUMPDEST PUSH1 0x0 DUP1 SHL PUSH2 0x516 DUP2 PUSH2 0xA73 JUMP JUMPDEST DUP2 PUSH1 0x2 PUSH1 0x0 PUSH2 0x100 EXP DUP2 SLOAD DUP2 PUSH20 0xFFFFFFFFFFFFFFFFFFFFFFFFFFFFFFFFFFFFFFFF MUL NOT AND SWAP1 DUP4 PUSH20 0xFFFFFFFFFFFFFFFFFFFFFFFFFFFFFFFFFFFFFFFF AND MUL OR SWAP1 SSTORE POP POP POP JUMP JUMPDEST PUSH1 0x2 PUSH1 0x1 SLOAD SUB PUSH2 0x5A0 JUMPI PUSH1 0x40 MLOAD PUSH32 0x8C379A000000000000000000000000000000000000000000000000000000000 DUP2 MSTORE PUSH1 0x4 ADD PUSH2 0x597 SWAP1 PUSH2 0x1139 JUMP JUMPDEST PUSH1 0x40 MLOAD DUP1 SWAP2 SUB SWAP1 REVERT JUMPDEST PUSH1 0x2 PUSH1 0x1 DUP2 SWAP1 SSTORE POP PUSH1 0x1 ISZERO ISZERO PUSH1 0x2 PUSH1 0x15 SWAP1 SLOAD SWAP1 PUSH2 0x100 EXP SWAP1 DIV PUSH1 0xFF AND ISZERO ISZERO EQ PUSH2 0x5FE JUMPI PUSH1 0x40 MLOAD PUSH32 0x8C379A000000000000000000000000000000000000000000000000000000000 DUP2 MSTORE PUSH1 0x4 ADD PUSH2 0x5F5 SWAP1 PUSH2 0x11A5 JUMP JUMPDEST PUSH1 0x40 MLOAD DUP1 SWAP2 SUB SWAP1 REVERT JUMPDEST PUSH2 0x457 PUSH2 0x609 PUSH2 0x6E9 JUMP JUMPDEST LT PUSH2 0x649 JUMPI PUSH1 0x40 MLOAD PUSH32 0x8C379A000000000000000000000000000000000000000000000000000000000 DUP2 MSTORE PUSH1 0x4 ADD PUSH2 0x640 SWAP1 PUSH2 0x1211 JUMP JUMPDEST PUSH1 0x40 MLOAD DUP1 SWAP2 SUB SWAP1 REVERT JUMPDEST PUSH1 0x1 DUP1 DUP2 SWAP1 SSTORE POP JUMP JUMPDEST PUSH1 0x0 DUP1 PUSH1 0x0 DUP5 DUP2 MSTORE PUSH1 0x20 ADD SWAP1 DUP2 MSTORE PUSH1 0x20 ADD PUSH1 0x0 KECCAK256 PUSH1 0x0 ADD PUSH1 0x0 DUP4 PUSH20 0xFFFFFFFFFFFFFFFFFFFFFFFFFFFFFFFFFFFFFFFF AND PUSH20 0xFFFFFFFFFFFFFFFFFFFFFFFFFFFFFFFFFFFFFFFF AND DUP2 MSTORE PUSH1 0x20 ADD SWAP1 DUP2 MSTORE PUSH1 0x20 ADD PUSH1 0x0 KECCAK256 PUSH1 0x0 SWAP1 SLOAD SWAP1 PUSH2 0x100 EXP SWAP1 DIV PUSH1 0xFF AND SWAP1 POP SWAP3 SWAP2 POP POP JUMP JUMPDEST PUSH1 0x2 PUSH1 0x15 SWAP1 SLOAD SWAP1 PUSH2 0x100 EXP SWAP1 DIV PUSH1 0xFF AND DUP2 JUMP JUMPDEST PUSH1 0x0 DUP1 SHL DUP2 JUMP JUMPDEST PUSH1 0x2 PUSH1 0x14 SWAP1 SLOAD SWAP1 PUSH2 0x100 EXP SWAP1 DIV PUSH1 0xFF AND DUP2 JUMP JUMPDEST PUSH1 0x0 PUSH1 0x2 PUSH1 0x0 SWAP1 SLOAD SWAP1 PUSH2 0x100 EXP SWAP1 DIV PUSH20 0xFFFFFFFFFFFFFFFFFFFFFFFFFFFFFFFFFFFFFFFF AND PUSH20 0xFFFFFFFFFFFFFFFFFFFFFFFFFFFFFFFFFFFFFFFF AND PUSH4 0x18160DDD PUSH1 0x40 MLOAD DUP2 PUSH4 0xFFFFFFFF AND PUSH1 0xE0 SHL DUP2 MSTORE PUSH1 0x4 ADD PUSH1 0x20 PUSH1 0x40 MLOAD DUP1 DUP4 SUB DUP2 DUP7 GAS STATICCALL ISZERO DUP1 ISZERO PUSH2 0x758 JUMPI RETURNDATASIZE PUSH1 0x0 DUP1 RETURNDATACOPY RETURNDATASIZE PUSH1 0x0 REVERT JUMPDEST POP POP POP POP PUSH1 0x40 MLOAD RETURNDATASIZE PUSH1 0x1F NOT PUSH1 0x1F DUP3 ADD AND DUP3 ADD DUP1 PUSH1 0x40 MSTORE POP DUP2 ADD SWAP1 PUSH2 0x77C SWAP2 SWAP1 PUSH2 0x125D JUMP JUMPDEST SWAP1 POP SWAP1 JUMP JUMPDEST PUSH2 0x78A DUP3 PUSH2 0x3F5 JUMP JUMPDEST PUSH2 0x793 DUP2 PUSH2 0xA73 JUMP JUMPDEST PUSH2 0x79D DUP4 DUP4 PUSH2 0xB6F JUMP JUMPDEST POP POP POP JUMP JUMPDEST PUSH1 0x0 DUP1 SHL PUSH2 0x7AF DUP2 PUSH2 0xA73 JUMP JUMPDEST DUP2 PUSH1 0x2 PUSH1 0x15 PUSH2 0x100 EXP DUP2 SLOAD DUP2 PUSH1 0xFF MUL NOT AND SWAP1 DUP4 ISZERO ISZERO MUL OR SWAP1 SSTORE POP POP POP JUMP JUMPDEST PUSH1 0x60 PUSH1 0x0 PUSH1 0x2 DUP4 PUSH1 0x2 PUSH2 0x7E0 SWAP2 SWAP1 PUSH2 0x12B9 JUMP JUMPDEST PUSH2 0x7EA SWAP2 SWAP1 PUSH2 0x1313 JUMP JUMPDEST PUSH8 0xFFFFFFFFFFFFFFFF DUP2 GT ISZERO PUSH2 0x803 JUMPI PUSH2 0x802 PUSH2 0x1369 JUMP JUMPDEST JUMPDEST PUSH1 0x40 MLOAD SWAP1 DUP1 DUP3 MSTORE DUP1 PUSH1 0x1F ADD PUSH1 0x1F NOT AND PUSH1 0x20 ADD DUP3 ADD PUSH1 0x40 MSTORE DUP1 ISZERO PUSH2 0x835 JUMPI DUP2 PUSH1 0x20 ADD PUSH1 0x1 DUP3 MUL DUP1 CALLDATASIZE DUP4 CALLDATACOPY DUP1 DUP3 ADD SWAP2 POP POP SWAP1 POP JUMPDEST POP SWAP1 POP PUSH32 0x3000000000000000000000000000000000000000000000000000000000000000 DUP2 PUSH1 0x0 DUP2 MLOAD DUP2 LT PUSH2 0x86D JUMPI PUSH2 0x86C PUSH2 0x1398 JUMP JUMPDEST JUMPDEST PUSH1 0x20 ADD ADD SWAP1 PUSH31 0xFFFFFFFFFFFFFFFFFFFFFFFFFFFFFFFFFFFFFFFFFFFFFFFFFFFFFFFFFFFFFF NOT AND SWAP1 DUP2 PUSH1 0x0 BYTE SWAP1 MSTORE8 POP PUSH32 0x7800000000000000000000000000000000000000000000000000000000000000 DUP2 PUSH1 0x1 DUP2 MLOAD DUP2 LT PUSH2 0x8D1 JUMPI PUSH2 0x8D0 PUSH2 0x1398 JUMP JUMPDEST JUMPDEST PUSH1 0x20 ADD ADD SWAP1 PUSH31 0xFFFFFFFFFFFFFFFFFFFFFFFFFFFFFFFFFFFFFFFFFFFFFFFFFFFFFFFFFFFFFF NOT AND SWAP1 DUP2 PUSH1 0x0 BYTE SWAP1 MSTORE8 POP PUSH1 0x0 PUSH1 0x1 DUP5 PUSH1 0x2 PUSH2 0x911 SWAP2 SWAP1 PUSH2 0x12B9 JUMP JUMPDEST PUSH2 0x91B SWAP2 SWAP1 PUSH2 0x1313 JUMP JUMPDEST SWAP1 POP JUMPDEST PUSH1 0x1 DUP2 GT ISZERO PUSH2 0x9BB JUMPI PUSH32 0x3031323334353637383961626364656600000000000000000000000000000000 PUSH1 0xF DUP7 AND PUSH1 0x10 DUP2 LT PUSH2 0x95D JUMPI PUSH2 0x95C PUSH2 0x1398 JUMP JUMPDEST JUMPDEST BYTE PUSH1 0xF8 SHL DUP3 DUP3 DUP2 MLOAD DUP2 LT PUSH2 0x974 JUMPI PUSH2 0x973 PUSH2 0x1398 JUMP JUMPDEST JUMPDEST PUSH1 0x20 ADD ADD SWAP1 PUSH31 0xFFFFFFFFFFFFFFFFFFFFFFFFFFFFFFFFFFFFFFFFFFFFFFFFFFFFFFFFFFFFFF NOT AND SWAP1 DUP2 PUSH1 0x0 BYTE SWAP1 MSTORE8 POP PUSH1 0x4 DUP6 SWAP1 SHR SWAP5 POP DUP1 PUSH2 0x9B4 SWAP1 PUSH2 0x13C7 JUMP JUMPDEST SWAP1 POP PUSH2 0x91E JUMP JUMPDEST POP PUSH1 0x0 DUP5 EQ PUSH2 0x9FF JUMPI PUSH1 0x40 MLOAD PUSH32 0x8C379A000000000000000000000000000000000000000000000000000000000 DUP2 MSTORE PUSH1 0x4 ADD PUSH2 0x9F6 SWAP1 PUSH2 0x143C JUMP JUMPDEST PUSH1 0x40 MLOAD DUP1 SWAP2 SUB SWAP1 REVERT JUMPDEST DUP1 SWAP2 POP POP SWAP3 SWAP2 POP POP JUMP JUMPDEST PUSH1 0x0 PUSH32 0x1FFC9A700000000000000000000000000000000000000000000000000000000 PUSH28 0xFFFFFFFFFFFFFFFFFFFFFFFFFFFFFFFFFFFFFFFFFFFFFFFFFFFFFFFF NOT AND DUP3 PUSH28 0xFFFFFFFFFFFFFFFFFFFFFFFFFFFFFFFFFFFFFFFFFFFFFFFFFFFFFFFF NOT AND EQ SWAP1 POP SWAP2 SWAP1 POP JUMP JUMPDEST PUSH2 0xA84 DUP2 PUSH2 0xA7F PUSH2 0xB67 JUMP JUMPDEST PUSH2 0xC50 JUMP JUMPDEST POP JUMP JUMPDEST PUSH2 0xA91 DUP3 DUP3 PUSH2 0x652 JUMP JUMPDEST PUSH2 0xB63 JUMPI PUSH1 0x1 PUSH1 0x0 DUP1 DUP5 DUP2 MSTORE PUSH1 0x20 ADD SWAP1 DUP2 MSTORE PUSH1 0x20 ADD PUSH1 0x0 KECCAK256 PUSH1 0x0 ADD PUSH1 0x0 DUP4 PUSH20 0xFFFFFFFFFFFFFFFFFFFFFFFFFFFFFFFFFFFFFFFF AND PUSH20 0xFFFFFFFFFFFFFFFFFFFFFFFFFFFFFFFFFFFFFFFF AND DUP2 MSTORE PUSH1 0x20 ADD SWAP1 DUP2 MSTORE PUSH1 0x20 ADD PUSH1 0x0 KECCAK256 PUSH1 0x0 PUSH2 0x100 EXP DUP2 SLOAD DUP2 PUSH1 0xFF MUL NOT AND SWAP1 DUP4 ISZERO ISZERO MUL OR SWAP1 SSTORE POP PUSH2 0xB08 PUSH2 0xB67 JUMP JUMPDEST PUSH20 0xFFFFFFFFFFFFFFFFFFFFFFFFFFFFFFFFFFFFFFFF AND DUP2 PUSH20 0xFFFFFFFFFFFFFFFFFFFFFFFFFFFFFFFFFFFFFFFF AND DUP4 PUSH32 0x2F8788117E7EFF1D82E926EC794901D17C78024A50270940304540A733656F0D PUSH1 0x40 MLOAD PUSH1 0x40 MLOAD DUP1 SWAP2 SUB SWAP1 LOG4 JUMPDEST POP POP JUMP JUMPDEST PUSH1 0x0 CALLER SWAP1 POP SWAP1 JUMP JUMPDEST PUSH2 0xB79 DUP3 DUP3 PUSH2 0x652 JUMP JUMPDEST ISZERO PUSH2 0xC4C JUMPI PUSH1 0x0 DUP1 PUSH1 0x0 DUP5 DUP2 MSTORE PUSH1 0x20 ADD SWAP1 DUP2 MSTORE PUSH1 0x20 ADD PUSH1 0x0 KECCAK256 PUSH1 0x0 ADD PUSH1 0x0 DUP4 PUSH20 0xFFFFFFFFFFFFFFFFFFFFFFFFFFFFFFFFFFFFFFFF AND PUSH20 0xFFFFFFFFFFFFFFFFFFFFFFFFFFFFFFFFFFFFFFFF AND DUP2 MSTORE PUSH1 0x20 ADD SWAP1 DUP2 MSTORE PUSH1 0x20 ADD PUSH1 0x0 KECCAK256 PUSH1 0x0 PUSH2 0x100 EXP DUP2 SLOAD DUP2 PUSH1 0xFF MUL NOT AND SWAP1 DUP4 ISZERO ISZERO MUL OR SWAP1 SSTORE POP PUSH2 0xBF1 PUSH2 0xB67 JUMP JUMPDEST PUSH20 0xFFFFFFFFFFFFFFFFFFFFFFFFFFFFFFFFFFFFFFFF AND DUP2 PUSH20 0xFFFFFFFFFFFFFFFFFFFFFFFFFFFFFFFFFFFFFFFF AND DUP4 PUSH32 0xF6391F5C32D9C69D2A47EA670B442974B53935D1EDC7FD64EB21E047A839171B PUSH1 0x40 MLOAD PUSH1 0x40 MLOAD DUP1 SWAP2 SUB SWAP1 LOG4 JUMPDEST POP POP JUMP JUMPDEST PUSH2 0xC5A DUP3 DUP3 PUSH2 0x652 JUMP JUMPDEST PUSH2 0xCE9 JUMPI PUSH2 0xC7F DUP2 PUSH20 0xFFFFFFFFFFFFFFFFFFFFFFFFFFFFFFFFFFFFFFFF AND PUSH1 0x14 PUSH2 0x7CD JUMP JUMPDEST PUSH2 0xC8D DUP4 PUSH1 0x0 SHR PUSH1 0x20 PUSH2 0x7CD JUMP JUMPDEST PUSH1 0x40 MLOAD PUSH1 0x20 ADD PUSH2 0xC9E SWAP3 SWAP2 SWAP1 PUSH2 0x156E JUMP JUMPDEST PUSH1 0x40 MLOAD PUSH1 0x20 DUP2 DUP4 SUB SUB DUP2 MSTORE SWAP1 PUSH1 0x40 MSTORE PUSH1 0x40 MLOAD PUSH32 0x8C379A000000000000000000000000000000000000000000000000000000000 DUP2 MSTORE PUSH1 0x4 ADD PUSH2 0xCE0 SWAP2 SWAP1 PUSH2 0x15F2 JUMP JUMPDEST PUSH1 0x40 MLOAD DUP1 SWAP2 SUB SWAP1 REVERT JUMPDEST POP POP JUMP JUMPDEST PUSH1 0x0 DUP1 REVERT JUMPDEST PUSH1 0x0 PUSH32 0xFFFFFFFF00000000000000000000000000000000000000000000000000000000 DUP3 AND SWAP1 POP SWAP2 SWAP1 POP JUMP JUMPDEST PUSH2 0xD27 DUP2 PUSH2 0xCF2 JUMP JUMPDEST DUP2 EQ PUSH2 0xD32 JUMPI PUSH1 0x0 DUP1 REVERT JUMPDEST POP JUMP JUMPDEST PUSH1 0x0 DUP2 CALLDATALOAD SWAP1 POP PUSH2 0xD44 DUP2 PUSH2 0xD1E JUMP JUMPDEST SWAP3 SWAP2 POP POP JUMP JUMPDEST PUSH1 0x0 PUSH1 0x20 DUP3 DUP5 SUB SLT ISZERO PUSH2 0xD60 JUMPI PUSH2 0xD5F PUSH2 0xCED JUMP JUMPDEST JUMPDEST PUSH1 0x0 PUSH2 0xD6E DUP5 DUP3 DUP6 ADD PUSH2 0xD35 JUMP JUMPDEST SWAP2 POP POP SWAP3 SWAP2 POP POP JUMP JUMPDEST PUSH1 0x0 DUP2 ISZERO ISZERO SWAP1 POP SWAP2 SWAP1 POP JUMP JUMPDEST PUSH2 0xD8C DUP2 PUSH2 0xD77 JUMP JUMPDEST DUP3 MSTORE POP POP JUMP JUMPDEST PUSH1 0x0 PUSH1 0x20 DUP3 ADD SWAP1 POP PUSH2 0xDA7 PUSH1 0x0 DUP4 ADD DUP5 PUSH2 0xD83 JUMP JUMPDEST SWAP3 SWAP2 POP POP JUMP JUMPDEST PUSH1 0x0 DUP2 SWAP1 POP SWAP2 SWAP1 POP JUMP JUMPDEST PUSH2 0xDC0 DUP2 PUSH2 0xDAD JUMP JUMPDEST DUP2 EQ PUSH2 0xDCB JUMPI PUSH1 0x0 DUP1 REVERT JUMPDEST POP JUMP JUMPDEST PUSH1 0x0 DUP2 CALLDATALOAD SWAP1 POP PUSH2 0xDDD DUP2 PUSH2 0xDB7 JUMP JUMPDEST SWAP3 SWAP2 POP POP JUMP JUMPDEST PUSH1 0x0 PUSH1 0x20 DUP3 DUP5 SUB SLT ISZERO PUSH2 0xDF9 JUMPI PUSH2 0xDF8 PUSH2 0xCED JUMP JUMPDEST JUMPDEST PUSH1 0x0 PUSH2 0xE07 DUP5 DUP3 DUP6 ADD PUSH2 0xDCE JUMP JUMPDEST SWAP2 POP POP SWAP3 SWAP2 POP POP JUMP JUMPDEST PUSH2 0xE19 DUP2 PUSH2 0xDAD JUMP JUMPDEST DUP3 MSTORE POP POP JUMP JUMPDEST PUSH1 0x0 PUSH1 0x20 DUP3 ADD SWAP1 POP PUSH2 0xE34 PUSH1 0x0 DUP4 ADD DUP5 PUSH2 0xE10 JUMP JUMPDEST SWAP3 SWAP2 POP POP JUMP JUMPDEST PUSH1 0x0 PUSH20 0xFFFFFFFFFFFFFFFFFFFFFFFFFFFFFFFFFFFFFFFF DUP3 AND SWAP1 POP SWAP2 SWAP1 POP JUMP JUMPDEST PUSH1 0x0 DUP2 SWAP1 POP SWAP2 SWAP1 POP JUMP JUMPDEST PUSH1 0x0 PUSH2 0xE7F PUSH2 0xE7A PUSH2 0xE75 DUP5 PUSH2 0xE3A JUMP JUMPDEST PUSH2 0xE5A JUMP JUMPDEST PUSH2 0xE3A JUMP JUMPDEST SWAP1 POP SWAP2 SWAP1 POP JUMP JUMPDEST PUSH1 0x0 PUSH2 0xE91 DUP3 PUSH2 0xE64 JUMP JUMPDEST SWAP1 POP SWAP2 SWAP1 POP JUMP JUMPDEST PUSH1 0x0 PUSH2 0xEA3 DUP3 PUSH2 0xE86 JUMP JUMPDEST SWAP1 POP SWAP2 SWAP1 POP JUMP JUMPDEST PUSH2 0xEB3 DUP2 PUSH2 0xE98 JUMP JUMPDEST DUP3 MSTORE POP POP JUMP JUMPDEST PUSH1 0x0 PUSH1 0x20 DUP3 ADD SWAP1 POP PUSH2 0xECE PUSH1 0x0 DUP4 ADD DUP5 PUSH2 0xEAA JUMP JUMPDEST SWAP3 SWAP2 POP POP JUMP JUMPDEST PUSH2 0xEDD DUP2 PUSH2 0xD77 JUMP JUMPDEST DUP2 EQ PUSH2 0xEE8 JUMPI PUSH1 0x0 DUP1 REVERT JUMPDEST POP JUMP JUMPDEST PUSH1 0x0 DUP2 CALLDATALOAD SWAP1 POP PUSH2 0xEFA DUP2 PUSH2 0xED4 JUMP JUMPDEST SWAP3 SWAP2 POP POP JUMP JUMPDEST PUSH1 0x0 PUSH1 0x20 DUP3 DUP5 SUB SLT ISZERO PUSH2 0xF16 JUMPI PUSH2 0xF15 PUSH2 0xCED JUMP JUMPDEST JUMPDEST PUSH1 0x0 PUSH2 0xF24 DUP5 DUP3 DUP6 ADD PUSH2 0xEEB JUMP JUMPDEST SWAP2 POP POP SWAP3 SWAP2 POP POP JUMP JUMPDEST PUSH1 0x0 PUSH2 0xF38 DUP3 PUSH2 0xE3A JUMP JUMPDEST SWAP1 POP SWAP2 SWAP1 POP JUMP JUMPDEST PUSH2 0xF48 DUP2 PUSH2 0xF2D JUMP JUMPDEST DUP2 EQ PUSH2 0xF53 JUMPI PUSH1 0x0 DUP1 REVERT JUMPDEST POP JUMP JUMPDEST PUSH1 0x0 DUP2 CALLDATALOAD SWAP1 POP PUSH2 0xF65 DUP2 PUSH2 0xF3F JUMP JUMPDEST SWAP3 SWAP2 POP POP JUMP JUMPDEST PUSH1 0x0 DUP1 PUSH1 0x40 DUP4 DUP6 SUB SLT ISZERO PUSH2 0xF82 JUMPI PUSH2 0xF81 PUSH2 0xCED JUMP JUMPDEST JUMPDEST PUSH1 0x0 PUSH2 0xF90 DUP6 DUP3 DUP7 ADD PUSH2 0xDCE JUMP JUMPDEST SWAP3 POP POP PUSH1 0x20 PUSH2 0xFA1 DUP6 DUP3 DUP7 ADD PUSH2 0xF56 JUMP JUMPDEST SWAP2 POP POP SWAP3 POP SWAP3 SWAP1 POP JUMP JUMPDEST PUSH1 0x0 PUSH2 0xFB6 DUP3 PUSH2 0xF2D JUMP JUMPDEST SWAP1 POP SWAP2 SWAP1 POP JUMP JUMPDEST PUSH2 0xFC6 DUP2 PUSH2 0xFAB JUMP JUMPDEST DUP2 EQ PUSH2 0xFD1 JUMPI PUSH1 0x0 DUP1 REVERT JUMPDEST POP JUMP JUMPDEST PUSH1 0x0 DUP2 CALLDATALOAD SWAP1 POP PUSH2 0xFE3 DUP2 PUSH2 0xFBD JUMP JUMPDEST SWAP3 SWAP2 POP POP JUMP JUMPDEST PUSH1 0x0 PUSH1 0x20 DUP3 DUP5 SUB SLT ISZERO PUSH2 0xFFF JUMPI PUSH2 0xFFE PUSH2 0xCED JUMP JUMPDEST JUMPDEST PUSH1 0x0 PUSH2 0x100D DUP5 DUP3 DUP6 ADD PUSH2 0xFD4 JUMP JUMPDEST SWAP2 POP POP SWAP3 SWAP2 POP POP JUMP JUMPDEST PUSH1 0x0 DUP2 SWAP1 POP SWAP2 SWAP1 POP JUMP JUMPDEST PUSH2 0x1029 DUP2 PUSH2 0x1016 JUMP JUMPDEST DUP3 MSTORE POP POP JUMP JUMPDEST PUSH1 0x0 PUSH1 0x20 DUP3 ADD SWAP1 POP PUSH2 0x1044 PUSH1 0x0 DUP4 ADD DUP5 PUSH2 0x1020 JUMP JUMPDEST SWAP3 SWAP2 POP POP JUMP JUMPDEST PUSH1 0x0 DUP3 DUP3 MSTORE PUSH1 0x20 DUP3 ADD SWAP1 POP SWAP3 SWAP2 POP POP JUMP JUMPDEST PUSH32 0x416363657373436F6E74726F6C3A2063616E206F6E6C792072656E6F756E6365 PUSH1 0x0 DUP3 ADD MSTORE PUSH32 0x20726F6C657320666F722073656C660000000000000000000000000000000000 PUSH1 0x20 DUP3 ADD MSTORE POP JUMP JUMPDEST PUSH1 0x0 PUSH2 0x10B7 PUSH1 0x2F DUP4 PUSH2 0x104A JUMP JUMPDEST SWAP2 POP PUSH2 0x10C2 DUP3 PUSH2 0x105B JUMP JUMPDEST PUSH1 0x40 DUP3 ADD SWAP1 POP SWAP2 SWAP1 POP JUMP JUMPDEST PUSH1 0x0 PUSH1 0x20 DUP3 ADD SWAP1 POP DUP2 DUP2 SUB PUSH1 0x0 DUP4 ADD MSTORE PUSH2 0x10E6 DUP2 PUSH2 0x10AA JUMP JUMPDEST SWAP1 POP SWAP2 SWAP1 POP JUMP JUMPDEST PUSH32 0x5265656E7472616E637947756172643A207265656E7472616E742063616C6C00 PUSH1 0x0 DUP3 ADD MSTORE POP JUMP JUMPDEST PUSH1 0x0 PUSH2 0x1123 PUSH1 0x1F DUP4 PUSH2 0x104A JUMP JUMPDEST SWAP2 POP PUSH2 0x112E DUP3 PUSH2 0x10ED JUMP JUMPDEST PUSH1 0x20 DUP3 ADD SWAP1 POP SWAP2 SWAP1 POP JUMP JUMPDEST PUSH1 0x0 PUSH1 0x20 DUP3 ADD SWAP1 POP DUP2 DUP2 SUB PUSH1 0x0 DUP4 ADD MSTORE PUSH2 0x1152 DUP2 PUSH2 0x1116 JUMP JUMPDEST SWAP1 POP SWAP2 SWAP1 POP JUMP JUMPDEST PUSH32 0x57686974656C697374206E6F74206F70656E20746F206D696E742E0000000000 PUSH1 0x0 DUP3 ADD MSTORE POP JUMP JUMPDEST PUSH1 0x0 PUSH2 0x118F PUSH1 0x1B DUP4 PUSH2 0x104A JUMP JUMPDEST SWAP2 POP PUSH2 0x119A DUP3 PUSH2 0x1159 JUMP JUMPDEST PUSH1 0x20 DUP3 ADD SWAP1 POP SWAP2 SWAP1 POP JUMP JUMPDEST PUSH1 0x0 PUSH1 0x20 DUP3 ADD SWAP1 POP DUP2 DUP2 SUB PUSH1 0x0 DUP4 ADD MSTORE PUSH2 0x11BE DUP2 PUSH2 0x1182 JUMP JUMPDEST SWAP1 POP SWAP2 SWAP1 POP JUMP JUMPDEST PUSH32 0x4F76657220737570706C79000000000000000000000000000000000000000000 PUSH1 0x0 DUP3 ADD MSTORE POP JUMP JUMPDEST PUSH1 0x0 PUSH2 0x11FB PUSH1 0xB DUP4 PUSH2 0x104A JUMP JUMPDEST SWAP2 POP PUSH2 0x1206 DUP3 PUSH2 0x11C5 JUMP JUMPDEST PUSH1 0x20 DUP3 ADD SWAP1 POP SWAP2 SWAP1 POP JUMP JUMPDEST PUSH1 0x0 PUSH1 0x20 DUP3 ADD SWAP1 POP DUP2 DUP2 SUB PUSH1 0x0 DUP4 ADD MSTORE PUSH2 0x122A DUP2 PUSH2 0x11EE JUMP JUMPDEST SWAP1 POP SWAP2 SWAP1 POP JUMP JUMPDEST PUSH2 0x123A DUP2 PUSH2 0x1016 JUMP JUMPDEST DUP2 EQ PUSH2 0x1245 JUMPI PUSH1 0x0 DUP1 REVERT JUMPDEST POP JUMP JUMPDEST PUSH1 0x0 DUP2 MLOAD SWAP1 POP PUSH2 0x1257 DUP2 PUSH2 0x1231 JUMP JUMPDEST SWAP3 SWAP2 POP POP JUMP JUMPDEST PUSH1 0x0 PUSH1 0x20 DUP3 DUP5 SUB SLT ISZERO PUSH2 0x1273 JUMPI PUSH2 0x1272 PUSH2 0xCED JUMP JUMPDEST JUMPDEST PUSH1 0x0 PUSH2 0x1281 DUP5 DUP3 DUP6 ADD PUSH2 0x1248 JUMP JUMPDEST SWAP2 POP POP SWAP3 SWAP2 POP POP JUMP JUMPDEST PUSH32 0x4E487B7100000000000000000000000000000000000000000000000000000000 PUSH1 0x0 MSTORE PUSH1 0x11 PUSH1 0x4 MSTORE PUSH1 0x24 PUSH1 0x0 REVERT JUMPDEST PUSH1 0x0 PUSH2 0x12C4 DUP3 PUSH2 0x1016 JUMP JUMPDEST SWAP2 POP PUSH2 0x12CF DUP4 PUSH2 0x1016 JUMP JUMPDEST SWAP3 POP DUP2 PUSH32 0xFFFFFFFFFFFFFFFFFFFFFFFFFFFFFFFFFFFFFFFFFFFFFFFFFFFFFFFFFFFFFFFF DIV DUP4 GT DUP3 ISZERO ISZERO AND ISZERO PUSH2 0x1308 JUMPI PUSH2 0x1307 PUSH2 0x128A JUMP JUMPDEST JUMPDEST DUP3 DUP3 MUL SWAP1 POP SWAP3 SWAP2 POP POP JUMP JUMPDEST PUSH1 0x0 PUSH2 0x131E DUP3 PUSH2 0x1016 JUMP JUMPDEST SWAP2 POP PUSH2 0x1329 DUP4 PUSH2 0x1016 JUMP JUMPDEST SWAP3 POP DUP3 PUSH32 0xFFFFFFFFFFFFFFFFFFFFFFFFFFFFFFFFFFFFFFFFFFFFFFFFFFFFFFFFFFFFFFFF SUB DUP3 GT ISZERO PUSH2 0x135E JUMPI PUSH2 0x135D PUSH2 0x128A JUMP JUMPDEST JUMPDEST DUP3 DUP3 ADD SWAP1 POP SWAP3 SWAP2 POP POP JUMP JUMPDEST PUSH32 0x4E487B7100000000000000000000000000000000000000000000000000000000 PUSH1 0x0 MSTORE PUSH1 0x41 PUSH1 0x4 MSTORE PUSH1 0x24 PUSH1 0x0 REVERT JUMPDEST PUSH32 0x4E487B7100000000000000000000000000000000000000000000000000000000 PUSH1 0x0 MSTORE PUSH1 0x32 PUSH1 0x4 MSTORE PUSH1 0x24 PUSH1 0x0 REVERT JUMPDEST PUSH1 0x0 PUSH2 0x13D2 DUP3 PUSH2 0x1016 JUMP JUMPDEST SWAP2 POP PUSH1 0x0 DUP3 SUB PUSH2 0x13E5 JUMPI PUSH2 0x13E4 PUSH2 0x128A JUMP JUMPDEST JUMPDEST PUSH1 0x1 DUP3 SUB SWAP1 POP SWAP2 SWAP1 POP JUMP JUMPDEST PUSH32 0x537472696E67733A20686578206C656E67746820696E73756666696369656E74 PUSH1 0x0 DUP3 ADD MSTORE POP JUMP JUMPDEST PUSH1 0x0 PUSH2 0x1426 PUSH1 0x20 DUP4 PUSH2 0x104A JUMP JUMPDEST SWAP2 POP PUSH2 0x1431 DUP3 PUSH2 0x13F0 JUMP JUMPDEST PUSH1 0x20 DUP3 ADD SWAP1 POP SWAP2 SWAP1 POP JUMP JUMPDEST PUSH1 0x0 PUSH1 0x20 DUP3 ADD SWAP1 POP DUP2 DUP2 SUB PUSH1 0x0 DUP4 ADD MSTORE PUSH2 0x1455 DUP2 PUSH2 0x1419 JUMP JUMPDEST SWAP1 POP SWAP2 SWAP1 POP JUMP JUMPDEST PUSH1 0x0 DUP2 SWAP1 POP SWAP3 SWAP2 POP POP JUMP JUMPDEST PUSH32 0x416363657373436F6E74726F6C3A206163636F756E7420000000000000000000 PUSH1 0x0 DUP3 ADD MSTORE POP JUMP JUMPDEST PUSH1 0x0 PUSH2 0x149D PUSH1 0x17 DUP4 PUSH2 0x145C JUMP JUMPDEST SWAP2 POP PUSH2 0x14A8 DUP3 PUSH2 0x1467 JUMP JUMPDEST PUSH1 0x17 DUP3 ADD SWAP1 POP SWAP2 SWAP1 POP JUMP JUMPDEST PUSH1 0x0 DUP2 MLOAD SWAP1 POP SWAP2 SWAP1 POP JUMP JUMPDEST PUSH1 0x0 JUMPDEST DUP4 DUP2 LT ISZERO PUSH2 0x14DC JUMPI DUP1 DUP3 ADD MLOAD DUP2 DUP5 ADD MSTORE PUSH1 0x20 DUP2 ADD SWAP1 POP PUSH2 0x14C1 JUMP JUMPDEST DUP4 DUP2 GT ISZERO PUSH2 0x14EB JUMPI PUSH1 0x0 DUP5 DUP5 ADD MSTORE JUMPDEST POP POP POP POP JUMP JUMPDEST PUSH1 0x0 PUSH2 0x14FC DUP3 PUSH2 0x14B3 JUMP JUMPDEST PUSH2 0x1506 DUP2 DUP6 PUSH2 0x145C JUMP JUMPDEST SWAP4 POP PUSH2 0x1516 DUP2 DUP6 PUSH1 0x20 DUP7 ADD PUSH2 0x14BE JUMP JUMPDEST DUP1 DUP5 ADD SWAP2 POP POP SWAP3 SWAP2 POP POP JUMP JUMPDEST PUSH32 0x206973206D697373696E6720726F6C6520000000000000000000000000000000 PUSH1 0x0 DUP3 ADD MSTORE POP JUMP JUMPDEST PUSH1 0x0 PUSH2 0x1558 PUSH1 0x11 DUP4 PUSH2 0x145C JUMP JUMPDEST SWAP2 POP PUSH2 0x1563 DUP3 PUSH2 0x1522 JUMP JUMPDEST PUSH1 0x11 DUP3 ADD SWAP1 POP SWAP2 SWAP1 POP JUMP JUMPDEST PUSH1 0x0 PUSH2 0x1579 DUP3 PUSH2 0x1490 JUMP JUMPDEST SWAP2 POP PUSH2 0x1585 DUP3 DUP6 PUSH2 0x14F1 JUMP JUMPDEST SWAP2 POP PUSH2 0x1590 DUP3 PUSH2 0x154B JUMP JUMPDEST SWAP2 POP PUSH2 0x159C DUP3 DUP5 PUSH2 0x14F1 JUMP JUMPDEST SWAP2 POP DUP2 SWAP1 POP SWAP4 SWAP3 POP POP POP JUMP JUMPDEST PUSH1 0x0 PUSH1 0x1F NOT PUSH1 0x1F DUP4 ADD AND SWAP1 POP SWAP2 SWAP1 POP JUMP JUMPDEST PUSH1 0x0 PUSH2 0x15C4 DUP3 PUSH2 0x14B3 JUMP JUMPDEST PUSH2 0x15CE DUP2 DUP6 PUSH2 0x104A JUMP JUMPDEST SWAP4 POP PUSH2 0x15DE DUP2 DUP6 PUSH1 0x20 DUP7 ADD PUSH2 0x14BE JUMP JUMPDEST PUSH2 0x15E7 DUP2 PUSH2 0x15A8 JUMP JUMPDEST DUP5 ADD SWAP2 POP POP SWAP3 SWAP2 POP POP JUMP JUMPDEST PUSH1 0x0 PUSH1 0x20 DUP3 ADD SWAP1 POP DUP2 DUP2 SUB PUSH1 0x0 DUP4 ADD MSTORE PUSH2 0x160C DUP2 DUP5 PUSH2 0x15B9 JUMP JUMPDEST SWAP1 POP SWAP3 SWAP2 POP POP JUMP INVALID LOG2 PUSH5 0x6970667358 0x22 SLT KECCAK256 0xD9 ORIGIN PUSH26 0x679CC0F2BF631239DFC59DAF598485938F92520B424E9709B8CA 0x5F JUMPDEST CODECOPY PUSH5 0x736F6C6343 STOP ADDMOD 0xF STOP CALLER "
				},
				"gasEstimates": {
					"creation": {
						"codeDepositCost": "1141200",
						"executionCost": "infinite",
						"totalCost": "infinite"
					},
					"external": {
						"DEFAULT_ADMIN_ROLE()": "424",
						"changeFreeMintOpen(bool)": "infinite",
						"changeNagaKidsContract(address)": "infinite",
						"changeWhitelistMintOpen(bool)": "infinite",
						"getRoleAdmin(bytes32)": "infinite",
						"getTotalSupply()": "infinite",
						"grantRole(bytes32,address)": "infinite",
						"hasRole(bytes32,address)": "3185",
						"isFreeMintOpen()": "2543",
						"isWhitelistOpen()": "2588",
						"nagaKidsContract()": "infinite",
						"renounceRole(bytes32,address)": "infinite",
						"revokeRole(bytes32,address)": "infinite",
						"supportsInterface(bytes4)": "751",
						"whitelistMint()": "infinite"
					}
				},
				"methodIdentifiers": {
					"DEFAULT_ADMIN_ROLE()": "a217fddf",
					"changeFreeMintOpen(bool)": "28438f68",
					"changeNagaKidsContract(address)": "61aec205",
					"changeWhitelistMintOpen(bool)": "dd31a7ba",
					"getRoleAdmin(bytes32)": "248a9ca3",
					"getTotalSupply()": "c4e41b22",
					"grantRole(bytes32,address)": "2f2ff15d",
					"hasRole(bytes32,address)": "91d14854",
					"isFreeMintOpen()": "a6f5f014",
					"isWhitelistOpen()": "94f4504d",
					"nagaKidsContract()": "27c25c20",
					"renounceRole(bytes32,address)": "36568abe",
					"revokeRole(bytes32,address)": "d547741f",
					"supportsInterface(bytes4)": "01ffc9a7",
					"whitelistMint()": "804f43cd"
				}
			},
			"storageLayout": {
				"storage": [
					{
						"astId": 24,
						"contract": "MintNagaKids.sol:MintNagaKids",
						"label": "_roles",
						"offset": 0,
						"slot": "0",
						"type": "t_mapping(t_bytes32,t_struct(RoleData)19_storage)"
					},
					{
						"astId": 403,
						"contract": "MintNagaKids.sol:MintNagaKids",
						"label": "_status",
						"offset": 0,
						"slot": "1",
						"type": "t_uint256"
					},
					{
						"astId": 852,
						"contract": "MintNagaKids.sol:MintNagaKids",
						"label": "nagaKidsContract",
						"offset": 0,
						"slot": "2",
						"type": "t_contract(IERC721Enumerable)579"
					},
					{
						"astId": 854,
						"contract": "MintNagaKids.sol:MintNagaKids",
						"label": "isFreeMintOpen",
						"offset": 20,
						"slot": "2",
						"type": "t_bool"
					},
					{
						"astId": 856,
						"contract": "MintNagaKids.sol:MintNagaKids",
						"label": "isWhitelistOpen",
						"offset": 21,
						"slot": "2",
						"type": "t_bool"
					}
				],
				"types": {
					"t_address": {
						"encoding": "inplace",
						"label": "address",
						"numberOfBytes": "20"
					},
					"t_bool": {
						"encoding": "inplace",
						"label": "bool",
						"numberOfBytes": "1"
					},
					"t_bytes32": {
						"encoding": "inplace",
						"label": "bytes32",
						"numberOfBytes": "32"
					},
					"t_contract(IERC721Enumerable)579": {
						"encoding": "inplace",
						"label": "contract IERC721Enumerable",
						"numberOfBytes": "20"
					},
					"t_mapping(t_address,t_bool)": {
						"encoding": "mapping",
						"key": "t_address",
						"label": "mapping(address => bool)",
						"numberOfBytes": "32",
						"value": "t_bool"
					},
					"t_mapping(t_bytes32,t_struct(RoleData)19_storage)": {
						"encoding": "mapping",
						"key": "t_bytes32",
						"label": "mapping(bytes32 => struct AccessControl.RoleData)",
						"numberOfBytes": "32",
						"value": "t_struct(RoleData)19_storage"
					},
					"t_struct(RoleData)19_storage": {
						"encoding": "inplace",
						"label": "struct AccessControl.RoleData",
						"members": [
							{
								"astId": 16,
								"contract": "MintNagaKids.sol:MintNagaKids",
								"label": "members",
								"offset": 0,
								"slot": "0",
								"type": "t_mapping(t_address,t_bool)"
							},
							{
								"astId": 18,
								"contract": "MintNagaKids.sol:MintNagaKids",
								"label": "adminRole",
								"offset": 0,
								"slot": "1",
								"type": "t_bytes32"
							}
						],
						"numberOfBytes": "64"
					},
					"t_uint256": {
						"encoding": "inplace",
						"label": "uint256",
						"numberOfBytes": "32"
					}
				}
			},
			"userdoc": {
				"kind": "user",
				"methods": {},
				"version": 1
			}
		}
	}
}