{
	"MintNagaKids.sol": {
		"MintNagaKids": {
			"abi": [
				{
					"inputs": [
						{
							"internalType": "contract INagaKidsNFT",
							"name": "_nagaKids",
							"type": "address"
						}
					],
					"stateMutability": "nonpayable",
					"type": "constructor"
				},
				{
					"anonymous": false,
					"inputs": [
						{
							"indexed": true,
							"internalType": "bytes32",
							"name": "role",
							"type": "bytes32"
						},
						{
							"indexed": true,
							"internalType": "bytes32",
							"name": "previousAdminRole",
							"type": "bytes32"
						},
						{
							"indexed": true,
							"internalType": "bytes32",
							"name": "newAdminRole",
							"type": "bytes32"
						}
					],
					"name": "RoleAdminChanged",
					"type": "event"
				},
				{
					"anonymous": false,
					"inputs": [
						{
							"indexed": true,
							"internalType": "bytes32",
							"name": "role",
							"type": "bytes32"
						},
						{
							"indexed": true,
							"internalType": "address",
							"name": "account",
							"type": "address"
						},
						{
							"indexed": true,
							"internalType": "address",
							"name": "sender",
							"type": "address"
						}
					],
					"name": "RoleGranted",
					"type": "event"
				},
				{
					"anonymous": false,
					"inputs": [
						{
							"indexed": true,
							"internalType": "bytes32",
							"name": "role",
							"type": "bytes32"
						},
						{
							"indexed": true,
							"internalType": "address",
							"name": "account",
							"type": "address"
						},
						{
							"indexed": true,
							"internalType": "address",
							"name": "sender",
							"type": "address"
						}
					],
					"name": "RoleRevoked",
					"type": "event"
				},
				{
					"inputs": [],
					"name": "DEFAULT_ADMIN_ROLE",
					"outputs": [
						{
							"internalType": "bytes32",
							"name": "",
							"type": "bytes32"
						}
					],
					"stateMutability": "view",
					"type": "function"
				},
				{
					"inputs": [
						{
							"internalType": "bool",
							"name": "_isOpen",
							"type": "bool"
						}
					],
					"name": "changeFreeMintOpen",
					"outputs": [],
					"stateMutability": "nonpayable",
					"type": "function"
				},
				{
					"inputs": [
						{
							"internalType": "contract INagaKidsNFT",
							"name": "_nagaKids",
							"type": "address"
						}
					],
					"name": "changeNagaKidsContract",
					"outputs": [],
					"stateMutability": "nonpayable",
					"type": "function"
				},
				{
					"inputs": [
						{
							"internalType": "bool",
							"name": "_isOpen",
							"type": "bool"
						}
					],
					"name": "changeWhitelistMintOpen",
					"outputs": [],
					"stateMutability": "nonpayable",
					"type": "function"
				},
				{
					"inputs": [],
					"name": "getMaxSupply",
					"outputs": [
						{
							"internalType": "uint256",
							"name": "",
							"type": "uint256"
						}
					],
					"stateMutability": "view",
					"type": "function"
				},
				{
					"inputs": [
						{
							"internalType": "bytes32",
							"name": "role",
							"type": "bytes32"
						}
					],
					"name": "getRoleAdmin",
					"outputs": [
						{
							"internalType": "bytes32",
							"name": "",
							"type": "bytes32"
						}
					],
					"stateMutability": "view",
					"type": "function"
				},
				{
					"inputs": [],
					"name": "getTotalSupply",
					"outputs": [
						{
							"internalType": "uint256",
							"name": "",
							"type": "uint256"
						}
					],
					"stateMutability": "view",
					"type": "function"
				},
				{
					"inputs": [
						{
							"internalType": "bytes32",
							"name": "role",
							"type": "bytes32"
						},
						{
							"internalType": "address",
							"name": "account",
							"type": "address"
						}
					],
					"name": "grantRole",
					"outputs": [],
					"stateMutability": "nonpayable",
					"type": "function"
				},
				{
					"inputs": [
						{
							"internalType": "bytes32",
							"name": "role",
							"type": "bytes32"
						},
						{
							"internalType": "address",
							"name": "account",
							"type": "address"
						}
					],
					"name": "hasRole",
					"outputs": [
						{
							"internalType": "bool",
							"name": "",
							"type": "bool"
						}
					],
					"stateMutability": "view",
					"type": "function"
				},
				{
					"inputs": [],
					"name": "isFreeMintOpen",
					"outputs": [
						{
							"internalType": "bool",
							"name": "",
							"type": "bool"
						}
					],
					"stateMutability": "view",
					"type": "function"
				},
				{
					"inputs": [],
					"name": "isPause",
					"outputs": [
						{
							"internalType": "bool",
							"name": "",
							"type": "bool"
						}
					],
					"stateMutability": "view",
					"type": "function"
				},
				{
					"inputs": [
						{
							"internalType": "bytes32[]",
							"name": "_proof",
							"type": "bytes32[]"
						},
						{
							"internalType": "address",
							"name": "_address",
							"type": "address"
						},
						{
							"internalType": "uint256",
							"name": "_amount",
							"type": "uint256"
						}
					],
					"name": "isWhitelist",
					"outputs": [
						{
							"internalType": "bool",
							"name": "",
							"type": "bool"
						}
					],
					"stateMutability": "view",
					"type": "function"
				},
				{
					"inputs": [],
					"name": "isWhitelistOpen",
					"outputs": [
						{
							"internalType": "bool",
							"name": "",
							"type": "bool"
						}
					],
					"stateMutability": "view",
					"type": "function"
				},
				{
					"inputs": [],
					"name": "merkleRoot",
					"outputs": [
						{
							"internalType": "bytes32",
							"name": "",
							"type": "bytes32"
						}
					],
					"stateMutability": "view",
					"type": "function"
				},
				{
					"inputs": [],
					"name": "nagaKidsContract",
					"outputs": [
						{
							"internalType": "contract INagaKidsNFT",
							"name": "",
							"type": "address"
						}
					],
					"stateMutability": "view",
					"type": "function"
				},
				{
					"inputs": [
						{
							"internalType": "bytes32",
							"name": "role",
							"type": "bytes32"
						},
						{
							"internalType": "address",
							"name": "account",
							"type": "address"
						}
					],
					"name": "renounceRole",
					"outputs": [],
					"stateMutability": "nonpayable",
					"type": "function"
				},
				{
					"inputs": [
						{
							"internalType": "bytes32",
							"name": "role",
							"type": "bytes32"
						},
						{
							"internalType": "address",
							"name": "account",
							"type": "address"
						}
					],
					"name": "revokeRole",
					"outputs": [],
					"stateMutability": "nonpayable",
					"type": "function"
				},
				{
					"inputs": [
						{
							"internalType": "bytes32",
							"name": "_merkleRoot",
							"type": "bytes32"
						}
					],
					"name": "setMerkleRoot",
					"outputs": [],
					"stateMutability": "nonpayable",
					"type": "function"
				},
				{
					"inputs": [
						{
							"internalType": "bytes4",
							"name": "interfaceId",
							"type": "bytes4"
						}
					],
					"name": "supportsInterface",
					"outputs": [
						{
							"internalType": "bool",
							"name": "",
							"type": "bool"
						}
					],
					"stateMutability": "view",
					"type": "function"
				},
				{
					"inputs": [
						{
							"internalType": "bytes32[]",
							"name": "_proofMerkle",
							"type": "bytes32[]"
						},
						{
							"internalType": "uint256",
							"name": "amount",
							"type": "uint256"
						}
					],
					"name": "whitelistMint",
					"outputs": [],
					"stateMutability": "payable",
					"type": "function"
				}
			],
			"devdoc": {
				"kind": "dev",
				"methods": {
					"getRoleAdmin(bytes32)": {
						"details": "Returns the admin role that controls `role`. See {grantRole} and {revokeRole}. To change a role's admin, use {_setRoleAdmin}."
					},
					"grantRole(bytes32,address)": {
						"details": "Grants `role` to `account`. If `account` had not been already granted `role`, emits a {RoleGranted} event. Requirements: - the caller must have ``role``'s admin role."
					},
					"hasRole(bytes32,address)": {
						"details": "Returns `true` if `account` has been granted `role`."
					},
					"renounceRole(bytes32,address)": {
						"details": "Revokes `role` from the calling account. Roles are often managed via {grantRole} and {revokeRole}: this function's purpose is to provide a mechanism for accounts to lose their privileges if they are compromised (such as when a trusted device is misplaced). If the calling account had been revoked `role`, emits a {RoleRevoked} event. Requirements: - the caller must be `account`."
					},
					"revokeRole(bytes32,address)": {
						"details": "Revokes `role` from `account`. If `account` had been granted `role`, emits a {RoleRevoked} event. Requirements: - the caller must have ``role``'s admin role."
					},
					"supportsInterface(bytes4)": {
						"details": "See {IERC165-supportsInterface}."
					}
				},
				"version": 1
			},
			"evm": {
				"assembly": "    /* \"MintNagaKids.sol\":244:2013  contract MintNagaKids is Whitelist, AccessControl, ReentrancyGuard {... */\n  mstore(0x40, 0x80)\n    /* \"MintNagaKids.sol\":432:573  constructor(INagaKidsNFT _nagaKids) {... */\n  callvalue\n  dup1\n  iszero\n  tag_1\n  jumpi\n  0x00\n  dup1\n  revert\ntag_1:\n  pop\n  mload(0x40)\n  sub(codesize, bytecodeSize)\n  dup1\n  bytecodeSize\n  dup4\n  codecopy\n  dup2\n  add\n  0x40\n  dup2\n  swap1\n  mstore\n  tag_2\n  swap2\n  tag_3\n  jump\t// in\ntag_2:\n    /* \"@openzeppelin/contracts/security/ReentrancyGuard.sol\":1701:1702  1 */\n  0x01\n    /* \"@openzeppelin/contracts/security/ReentrancyGuard.sol\":1806:1813  _status */\n  0x02\n    /* \"@openzeppelin/contracts/security/ReentrancyGuard.sol\":1806:1828  _status = _NOT_ENTERED */\n  sstore\n    /* \"MintNagaKids.sol\":479:521  _grantRole(DEFAULT_ADMIN_ROLE, msg.sender) */\n  tag_8\n    /* \"@openzeppelin/contracts/access/AccessControl.sol\":2072:2076  0x00 */\n  0x00\n    /* \"MintNagaKids.sol\":510:520  msg.sender */\n  caller\n    /* \"MintNagaKids.sol\":479:489  _grantRole */\n  tag_9\n    /* \"MintNagaKids.sol\":479:521  _grantRole(DEFAULT_ADMIN_ROLE, msg.sender) */\n  jump\t// in\ntag_8:\n    /* \"MintNagaKids.sol\":532:565  changeNagaKidsContract(_nagaKids) */\n  tag_10\n    /* \"MintNagaKids.sol\":555:564  _nagaKids */\n  dup2\n    /* \"MintNagaKids.sol\":532:554  changeNagaKidsContract */\n  tag_11\n    /* \"MintNagaKids.sol\":532:565  changeNagaKidsContract(_nagaKids) */\n  jump\t// in\ntag_10:\n    /* \"MintNagaKids.sol\":432:573  constructor(INagaKidsNFT _nagaKids) {... */\n  pop\n    /* \"MintNagaKids.sol\":244:2013  contract MintNagaKids is Whitelist, AccessControl, ReentrancyGuard {... */\n  jump(tag_69)\n    /* \"@openzeppelin/contracts/access/AccessControl.sol\":7244:7477  function _grantRole(bytes32 role, address account) internal virtual {... */\ntag_9:\n    /* \"@openzeppelin/contracts/access/AccessControl.sol\":2981:2985  bool */\n  0x00\n    /* \"@openzeppelin/contracts/access/AccessControl.sol\":3004:3016  _roles[role] */\n  dup3\n  dup2\n  mstore\n    /* \"@openzeppelin/contracts/access/AccessControl.sol\":3004:3010  _roles */\n  0x01\n    /* \"@openzeppelin/contracts/access/AccessControl.sol\":3004:3016  _roles[role] */\n  0x20\n  swap1\n  dup2\n  mstore\n  0x40\n  dup1\n  dup4\n  keccak256\n  sub(shl(0xa0, 0x01), 0x01)\n    /* \"@openzeppelin/contracts/access/AccessControl.sol\":3004:3033  _roles[role].members[account] */\n  dup6\n  and\n  dup5\n  mstore\n  swap1\n  swap2\n  mstore\n  swap1\n  keccak256\n  sload\n  0xff\n  and\n    /* \"@openzeppelin/contracts/access/AccessControl.sol\":7322:7471  if (!hasRole(role, account)) {... */\n  tag_16\n  jumpi\n    /* \"@openzeppelin/contracts/access/AccessControl.sol\":7365:7377  _roles[role] */\n  0x00\n  dup3\n  dup2\n  mstore\n    /* \"@openzeppelin/contracts/access/AccessControl.sol\":7397:7401  true */\n  0x01\n    /* \"@openzeppelin/contracts/access/AccessControl.sol\":7365:7377  _roles[role] */\n  0x20\n  dup2\n  dup2\n  mstore\n  0x40\n  dup1\n  dup5\n  keccak256\n  sub(shl(0xa0, 0x01), 0x01)\n    /* \"@openzeppelin/contracts/access/AccessControl.sol\":7365:7394  _roles[role].members[account] */\n  dup7\n  and\n  dup1\n  dup7\n  mstore\n  swap3\n  mstore\n  dup1\n  dup5\n  keccak256\n    /* \"@openzeppelin/contracts/access/AccessControl.sol\":7365:7401  _roles[role].members[account] = true */\n  dup1\n  sload\n  not(0xff)\n  and\n  swap1\n  swap4\n  or\n  swap1\n  swap3\n  sstore\n    /* \"@openzeppelin/contracts/access/AccessControl.sol\":7420:7460  RoleGranted(role, account, _msgSender()) */\n  swap1\n  mload\n    /* \"@openzeppelin/contracts/utils/Context.sol\":719:729  msg.sender */\n  caller\n  swap3\n    /* \"@openzeppelin/contracts/access/AccessControl.sol\":7365:7377  _roles[role] */\n  dup6\n  swap2\n    /* \"@openzeppelin/contracts/access/AccessControl.sol\":7420:7460  RoleGranted(role, account, _msgSender()) */\n  0x2f8788117e7eff1d82e926ec794901d17c78024a50270940304540a733656f0d\n  swap2\n    /* \"@openzeppelin/contracts/access/AccessControl.sol\":7365:7377  _roles[role] */\n  swap1\n    /* \"@openzeppelin/contracts/access/AccessControl.sol\":7420:7460  RoleGranted(role, account, _msgSender()) */\n  log4\n    /* \"@openzeppelin/contracts/access/AccessControl.sol\":7322:7471  if (!hasRole(role, account)) {... */\ntag_16:\n    /* \"@openzeppelin/contracts/access/AccessControl.sol\":7244:7477  function _grantRole(bytes32 role, address account) internal virtual {... */\n  pop\n  pop\n  jump\t// out\n    /* \"MintNagaKids.sol\":688:827  function changeNagaKidsContract(INagaKidsNFT _nagaKids) public onlyRole(DEFAULT_ADMIN_ROLE) {... */\ntag_11:\n    /* \"@openzeppelin/contracts/access/AccessControl.sol\":2072:2076  0x00 */\n  0x00\n    /* \"@openzeppelin/contracts/access/AccessControl.sol\":2505:2521  _checkRole(role) */\n  tag_20\n    /* \"@openzeppelin/contracts/access/AccessControl.sol\":2072:2076  0x00 */\n  dup2\n    /* \"@openzeppelin/contracts/access/AccessControl.sol\":2505:2515  _checkRole */\n  tag_21\n    /* \"@openzeppelin/contracts/access/AccessControl.sol\":2505:2521  _checkRole(role) */\n  jump\t// in\ntag_20:\n  pop\n    /* \"MintNagaKids.sol\":791:807  nagaKidsContract */\n  0x03\n    /* \"MintNagaKids.sol\":791:819  nagaKidsContract = _nagaKids */\n  dup1\n  sload\n  not(sub(shl(0xa0, 0x01), 0x01))\n  and\n  sub(shl(0xa0, 0x01), 0x01)\n  swap3\n  swap1\n  swap3\n  and\n  swap2\n  swap1\n  swap2\n  or\n  swap1\n  sstore\n    /* \"MintNagaKids.sol\":688:827  function changeNagaKidsContract(INagaKidsNFT _nagaKids) public onlyRole(DEFAULT_ADMIN_ROLE) {... */\n  jump\t// out\n    /* \"@openzeppelin/contracts/access/AccessControl.sol\":3334:3437  function _checkRole(bytes32 role) internal view virtual {... */\ntag_21:\n    /* \"@openzeppelin/contracts/access/AccessControl.sol\":3400:3430  _checkRole(role, _msgSender()) */\n  tag_26\n    /* \"@openzeppelin/contracts/access/AccessControl.sol\":3411:3415  role */\n  dup2\n    /* \"@openzeppelin/contracts/utils/Context.sol\":719:729  msg.sender */\n  caller\n    /* \"@openzeppelin/contracts/access/AccessControl.sol\":3400:3410  _checkRole */\n  tag_28\n    /* \"@openzeppelin/contracts/access/AccessControl.sol\":3400:3430  _checkRole(role, _msgSender()) */\n  jump\t// in\ntag_26:\n    /* \"@openzeppelin/contracts/access/AccessControl.sol\":3334:3437  function _checkRole(bytes32 role) internal view virtual {... */\n  pop\n  jump\t// out\n    /* \"@openzeppelin/contracts/access/AccessControl.sol\":3718:4210  function _checkRole(bytes32 role, address account) internal view virtual {... */\ntag_28:\n    /* \"@openzeppelin/contracts/access/AccessControl.sol\":2981:2985  bool */\n  0x00\n    /* \"@openzeppelin/contracts/access/AccessControl.sol\":3004:3016  _roles[role] */\n  dup3\n  dup2\n  mstore\n    /* \"@openzeppelin/contracts/access/AccessControl.sol\":3004:3010  _roles */\n  0x01\n    /* \"@openzeppelin/contracts/access/AccessControl.sol\":3004:3016  _roles[role] */\n  0x20\n  swap1\n  dup2\n  mstore\n  0x40\n  dup1\n  dup4\n  keccak256\n  sub(shl(0xa0, 0x01), 0x01)\n    /* \"@openzeppelin/contracts/access/AccessControl.sol\":3004:3033  _roles[role].members[account] */\n  dup6\n  and\n  dup5\n  mstore\n  swap1\n  swap2\n  mstore\n  swap1\n  keccak256\n  sload\n  0xff\n  and\n    /* \"@openzeppelin/contracts/access/AccessControl.sol\":3801:4204  if (!hasRole(role, account)) {... */\n  tag_16\n  jumpi\n    /* \"@openzeppelin/contracts/access/AccessControl.sol\":3989:4030  Strings.toHexString(uint160(account), 20) */\n  tag_32\n    /* \"@openzeppelin/contracts/access/AccessControl.sol\":4017:4024  account */\n  dup2\n  sub(shl(0xa0, 0x01), 0x01)\n    /* \"@openzeppelin/contracts/access/AccessControl.sol\":3989:4030  Strings.toHexString(uint160(account), 20) */\n  and\n    /* \"@openzeppelin/contracts/access/AccessControl.sol\":4027:4029  20 */\n  0x14\n    /* \"@openzeppelin/contracts/access/AccessControl.sol\":3989:4008  Strings.toHexString */\n  or(tag_0_119, shl(0x20, tag_33))\n    /* \"@openzeppelin/contracts/access/AccessControl.sol\":3989:4030  Strings.toHexString(uint160(account), 20) */\n  0x20\n  shr\n  jump\t// in\ntag_32:\n    /* \"@openzeppelin/contracts/access/AccessControl.sol\":4101:4139  Strings.toHexString(uint256(role), 32) */\n  tag_34\n    /* \"@openzeppelin/contracts/access/AccessControl.sol\":4129:4133  role */\n  dup4\n    /* \"@openzeppelin/contracts/access/AccessControl.sol\":4136:4138  32 */\n  0x20\n    /* \"@openzeppelin/contracts/access/AccessControl.sol\":4101:4120  Strings.toHexString */\n  tag_0_119\n  tag_33\n  dup3\n  shl\n  or\n    /* \"@openzeppelin/contracts/access/AccessControl.sol\":4101:4139  Strings.toHexString(uint256(role), 32) */\n  dup2\n  shr\n  jump\t// in\ntag_34:\n    /* \"@openzeppelin/contracts/access/AccessControl.sol\":3896:4161  abi.encodePacked(... */\n  add(0x20, mload(0x40))\n  tag_35\n  swap3\n  swap2\n  swap1\n  tag_36\n  jump\t// in\ntag_35:\n  0x40\n  dup1\n  mload\n  not(0x1f)\n  dup2\n  dup5\n  sub\n  add\n  dup2\n  mstore\n  swap1\n  dup3\n  swap1\n  mstore\n  shl(0xe5, 0x461bcd)\n    /* \"@openzeppelin/contracts/access/AccessControl.sol\":3844:4193  revert(... */\n  dup3\n  mstore\n  tag_37\n  swap2\n  0x04\n  add\n  tag_38\n  jump\t// in\ntag_37:\n  mload(0x40)\n  dup1\n  swap2\n  sub\n  swap1\n  revert\n    /* \"@openzeppelin/contracts/utils/Strings.sol\":1588:2029  function toHexString(uint256 value, uint256 length) internal pure returns (string memory) {... */\ntag_33:\n    /* \"@openzeppelin/contracts/utils/Strings.sol\":1663:1676  string memory */\n  0x60\n    /* \"@openzeppelin/contracts/utils/Strings.sol\":1688:1707  bytes memory buffer */\n  0x00\n    /* \"@openzeppelin/contracts/utils/Strings.sol\":1720:1730  2 * length */\n  tag_40\n    /* \"@openzeppelin/contracts/utils/Strings.sol\":1724:1730  length */\n  dup4\n    /* \"@openzeppelin/contracts/utils/Strings.sol\":1720:1721  2 */\n  0x02\n    /* \"@openzeppelin/contracts/utils/Strings.sol\":1720:1730  2 * length */\n  tag_41\n  jump\t// in\ntag_40:\n    /* \"@openzeppelin/contracts/utils/Strings.sol\":1720:1734  2 * length + 2 */\n  tag_42\n  swap1\n    /* \"@openzeppelin/contracts/utils/Strings.sol\":1733:1734  2 */\n  0x02\n    /* \"@openzeppelin/contracts/utils/Strings.sol\":1720:1734  2 * length + 2 */\n  tag_43\n  jump\t// in\ntag_42:\n  sub(shl(0x40, 0x01), 0x01)\n    /* \"@openzeppelin/contracts/utils/Strings.sol\":1710:1735  new bytes(2 * length + 2) */\n  dup2\n  gt\n  iszero\n  tag_45\n  jumpi\n  tag_45\n  tag_46\n  jump\t// in\ntag_45:\n  mload(0x40)\n  swap1\n  dup1\n  dup3\n  mstore\n  dup1\n  0x1f\n  add\n  not(0x1f)\n  and\n  0x20\n  add\n  dup3\n  add\n  0x40\n  mstore\n  dup1\n  iszero\n  tag_47\n  jumpi\n  0x20\n  dup3\n  add\n  dup2\n  dup1\n  calldatasize\n  dup4\n  calldatacopy\n  add\n  swap1\n  pop\ntag_47:\n  pop\n    /* \"@openzeppelin/contracts/utils/Strings.sol\":1688:1735  bytes memory buffer = new bytes(2 * length + 2) */\n  swap1\n  pop\n  shl(0xfc, 0x03)\n    /* \"@openzeppelin/contracts/utils/Strings.sol\":1745:1751  buffer */\n  dup2\n    /* \"@openzeppelin/contracts/utils/Strings.sol\":1752:1753  0 */\n  0x00\n    /* \"@openzeppelin/contracts/utils/Strings.sol\":1745:1754  buffer[0] */\n  dup2\n  mload\n  dup2\n  lt\n  tag_49\n  jumpi\n  tag_49\n  tag_50\n  jump\t// in\ntag_49:\n  0x20\n  add\n  add\n    /* \"@openzeppelin/contracts/utils/Strings.sol\":1745:1760  buffer[0] = \"0\" */\n  swap1\n  not(sub(shl(0xf8, 0x01), 0x01))\n  and\n  swap1\n  dup2\n  0x00\n  byte\n  swap1\n  mstore8\n  pop\n  shl(0xfb, 0x0f)\n    /* \"@openzeppelin/contracts/utils/Strings.sol\":1770:1776  buffer */\n  dup2\n    /* \"@openzeppelin/contracts/utils/Strings.sol\":1777:1778  1 */\n  0x01\n    /* \"@openzeppelin/contracts/utils/Strings.sol\":1770:1779  buffer[1] */\n  dup2\n  mload\n  dup2\n  lt\n  tag_52\n  jumpi\n  tag_52\n  tag_50\n  jump\t// in\ntag_52:\n  0x20\n  add\n  add\n    /* \"@openzeppelin/contracts/utils/Strings.sol\":1770:1785  buffer[1] = \"x\" */\n  swap1\n  not(sub(shl(0xf8, 0x01), 0x01))\n  and\n  swap1\n  dup2\n  0x00\n  byte\n  swap1\n  mstore8\n  pop\n    /* \"@openzeppelin/contracts/utils/Strings.sol\":1800:1809  uint256 i */\n  0x00\n    /* \"@openzeppelin/contracts/utils/Strings.sol\":1812:1822  2 * length */\n  tag_56\n    /* \"@openzeppelin/contracts/utils/Strings.sol\":1816:1822  length */\n  dup5\n    /* \"@openzeppelin/contracts/utils/Strings.sol\":1812:1813  2 */\n  0x02\n    /* \"@openzeppelin/contracts/utils/Strings.sol\":1812:1822  2 * length */\n  tag_41\n  jump\t// in\ntag_56:\n    /* \"@openzeppelin/contracts/utils/Strings.sol\":1812:1826  2 * length + 1 */\n  tag_57\n  swap1\n    /* \"@openzeppelin/contracts/utils/Strings.sol\":1825:1826  1 */\n  0x01\n    /* \"@openzeppelin/contracts/utils/Strings.sol\":1812:1826  2 * length + 1 */\n  tag_43\n  jump\t// in\ntag_57:\n    /* \"@openzeppelin/contracts/utils/Strings.sol\":1800:1826  uint256 i = 2 * length + 1 */\n  swap1\n  pop\n    /* \"@openzeppelin/contracts/utils/Strings.sol\":1795:1927  for (uint256 i = 2 * length + 1; i > 1; --i) {... */\ntag_53:\n    /* \"@openzeppelin/contracts/utils/Strings.sol\":1832:1833  1 */\n  0x01\n    /* \"@openzeppelin/contracts/utils/Strings.sol\":1828:1829  i */\n  dup2\n    /* \"@openzeppelin/contracts/utils/Strings.sol\":1828:1833  i > 1 */\n  gt\n    /* \"@openzeppelin/contracts/utils/Strings.sol\":1795:1927  for (uint256 i = 2 * length + 1; i > 1; --i) {... */\n  iszero\n  tag_54\n  jumpi\n  shl(0x81, 0x181899199a1a9b1b9c1cb0b131b232b3)\n    /* \"@openzeppelin/contracts/utils/Strings.sol\":1879:1884  value */\n  dup6\n    /* \"@openzeppelin/contracts/utils/Strings.sol\":1887:1890  0xf */\n  0x0f\n    /* \"@openzeppelin/contracts/utils/Strings.sol\":1879:1890  value & 0xf */\n  and\n    /* \"@openzeppelin/contracts/utils/Strings.sol\":1866:1891  _HEX_SYMBOLS[value & 0xf] */\n  0x10\n  dup2\n  lt\n  tag_59\n  jumpi\n  tag_59\n  tag_50\n  jump\t// in\ntag_59:\n  byte\n  0xf8\n  shl\n    /* \"@openzeppelin/contracts/utils/Strings.sol\":1854:1860  buffer */\n  dup3\n    /* \"@openzeppelin/contracts/utils/Strings.sol\":1861:1862  i */\n  dup3\n    /* \"@openzeppelin/contracts/utils/Strings.sol\":1854:1863  buffer[i] */\n  dup2\n  mload\n  dup2\n  lt\n  tag_61\n  jumpi\n  tag_61\n  tag_50\n  jump\t// in\ntag_61:\n  0x20\n  add\n  add\n    /* \"@openzeppelin/contracts/utils/Strings.sol\":1854:1891  buffer[i] = _HEX_SYMBOLS[value & 0xf] */\n  swap1\n  not(sub(shl(0xf8, 0x01), 0x01))\n  and\n  swap1\n  dup2\n  0x00\n  byte\n  swap1\n  mstore8\n  pop\n    /* \"@openzeppelin/contracts/utils/Strings.sol\":1915:1916  4 */\n  0x04\n    /* \"@openzeppelin/contracts/utils/Strings.sol\":1905:1916  value >>= 4 */\n  swap5\n  swap1\n  swap5\n  shr\n  swap4\n    /* \"@openzeppelin/contracts/utils/Strings.sol\":1835:1838  --i */\n  tag_62\n  dup2\n  tag_63\n  jump\t// in\ntag_62:\n  swap1\n  pop\n    /* \"@openzeppelin/contracts/utils/Strings.sol\":1795:1927  for (uint256 i = 2 * length + 1; i > 1; --i) {... */\n  jump(tag_53)\ntag_54:\n  pop\n    /* \"@openzeppelin/contracts/utils/Strings.sol\":1944:1954  value == 0 */\n  dup4\n  iszero\n    /* \"@openzeppelin/contracts/utils/Strings.sol\":1936:1991  require(value == 0, \"Strings: hex length insufficient\") */\n  tag_64\n  jumpi\n  mload(0x40)\n  shl(0xe5, 0x461bcd)\n  dup2\n  mstore\n    /* \"#utility.yul\":2816:2818   */\n  0x20\n    /* \"@openzeppelin/contracts/utils/Strings.sol\":1936:1991  require(value == 0, \"Strings: hex length insufficient\") */\n  0x04\n  dup3\n  add\n    /* \"#utility.yul\":2798:2819   */\n  dup2\n  swap1\n  mstore\n    /* \"#utility.yul\":2835:2853   */\n  0x24\n  dup3\n  add\n    /* \"#utility.yul\":2828:2858   */\n  mstore\n    /* \"#utility.yul\":2894:2928   */\n  0x537472696e67733a20686578206c656e67746820696e73756666696369656e74\n    /* \"#utility.yul\":2874:2892   */\n  0x44\n  dup3\n  add\n    /* \"#utility.yul\":2867:2929   */\n  mstore\n    /* \"#utility.yul\":2946:2964   */\n  0x64\n  add\n    /* \"@openzeppelin/contracts/utils/Strings.sol\":1936:1991  require(value == 0, \"Strings: hex length insufficient\") */\n  tag_37\n    /* \"#utility.yul\":2614:2970   */\n  jump\n    /* \"@openzeppelin/contracts/utils/Strings.sol\":1936:1991  require(value == 0, \"Strings: hex length insufficient\") */\ntag_64:\n    /* \"@openzeppelin/contracts/utils/Strings.sol\":2015:2021  buffer */\n  swap4\n    /* \"@openzeppelin/contracts/utils/Strings.sol\":1588:2029  function toHexString(uint256 value, uint256 length) internal pure returns (string memory) {... */\n  swap3\n  pop\n  pop\n  pop\n  jump\t// out\n    /* \"#utility.yul\":14:324   */\ntag_3:\n    /* \"#utility.yul\":104:110   */\n  0x00\n    /* \"#utility.yul\":157:159   */\n  0x20\n    /* \"#utility.yul\":145:154   */\n  dup3\n    /* \"#utility.yul\":136:143   */\n  dup5\n    /* \"#utility.yul\":132:155   */\n  sub\n    /* \"#utility.yul\":128:160   */\n  slt\n    /* \"#utility.yul\":125:177   */\n  iszero\n  tag_71\n  jumpi\n    /* \"#utility.yul\":173:174   */\n  0x00\n    /* \"#utility.yul\":170:171   */\n  dup1\n    /* \"#utility.yul\":163:175   */\n  revert\n    /* \"#utility.yul\":125:177   */\ntag_71:\n    /* \"#utility.yul\":199:215   */\n  dup2\n  mload\n  sub(shl(0xa0, 0x01), 0x01)\n    /* \"#utility.yul\":244:275   */\n  dup2\n  and\n    /* \"#utility.yul\":234:276   */\n  dup2\n  eq\n    /* \"#utility.yul\":224:294   */\n  tag_64\n  jumpi\n    /* \"#utility.yul\":290:291   */\n  0x00\n    /* \"#utility.yul\":287:288   */\n  dup1\n    /* \"#utility.yul\":280:292   */\n  revert\n    /* \"#utility.yul\":329:587   */\ntag_67:\n    /* \"#utility.yul\":401:402   */\n  0x00\n    /* \"#utility.yul\":411:524   */\ntag_74:\n    /* \"#utility.yul\":425:431   */\n  dup4\n    /* \"#utility.yul\":422:423   */\n  dup2\n    /* \"#utility.yul\":419:432   */\n  lt\n    /* \"#utility.yul\":411:524   */\n  iszero\n  tag_76\n  jumpi\n    /* \"#utility.yul\":501:512   */\n  dup2\n  dup2\n  add\n    /* \"#utility.yul\":495:513   */\n  mload\n    /* \"#utility.yul\":482:493   */\n  dup4\n  dup3\n  add\n    /* \"#utility.yul\":475:514   */\n  mstore\n    /* \"#utility.yul\":447:449   */\n  0x20\n    /* \"#utility.yul\":440:450   */\n  add\n    /* \"#utility.yul\":411:524   */\n  jump(tag_74)\ntag_76:\n    /* \"#utility.yul\":542:548   */\n  dup4\n    /* \"#utility.yul\":539:540   */\n  dup2\n    /* \"#utility.yul\":536:549   */\n  gt\n    /* \"#utility.yul\":533:581   */\n  iszero\n  tag_77\n  jumpi\n    /* \"#utility.yul\":577:578   */\n  0x00\n    /* \"#utility.yul\":568:574   */\n  dup5\n    /* \"#utility.yul\":563:566   */\n  dup5\n    /* \"#utility.yul\":559:575   */\n  add\n    /* \"#utility.yul\":552:579   */\n  mstore\n    /* \"#utility.yul\":533:581   */\ntag_77:\n  pop\n    /* \"#utility.yul\":329:587   */\n  pop\n  pop\n  pop\n  jump\t// out\n    /* \"#utility.yul\":592:1378   */\ntag_36:\n    /* \"#utility.yul\":1003:1028   */\n  0x416363657373436f6e74726f6c3a206163636f756e7420000000000000000000\n    /* \"#utility.yul\":998:1001   */\n  dup2\n    /* \"#utility.yul\":991:1029   */\n  mstore\n    /* \"#utility.yul\":973:976   */\n  0x00\n    /* \"#utility.yul\":1058:1064   */\n  dup4\n    /* \"#utility.yul\":1052:1065   */\n  mload\n    /* \"#utility.yul\":1074:1136   */\n  tag_79\n    /* \"#utility.yul\":1129:1135   */\n  dup2\n    /* \"#utility.yul\":1124:1126   */\n  0x17\n    /* \"#utility.yul\":1119:1122   */\n  dup6\n    /* \"#utility.yul\":1115:1127   */\n  add\n    /* \"#utility.yul\":1108:1112   */\n  0x20\n    /* \"#utility.yul\":1100:1106   */\n  dup9\n    /* \"#utility.yul\":1096:1113   */\n  add\n    /* \"#utility.yul\":1074:1136   */\n  tag_67\n  jump\t// in\ntag_79:\n  shl(0x7d, 0x01034b99036b4b9b9b4b733903937b6329)\n    /* \"#utility.yul\":1195:1197   */\n  0x17\n    /* \"#utility.yul\":1155:1171   */\n  swap2\n  dup5\n  add\n    /* \"#utility.yul\":1187:1198   */\n  swap2\n  dup3\n  add\n    /* \"#utility.yul\":1180:1220   */\n  mstore\n    /* \"#utility.yul\":1245:1258   */\n  dup4\n  mload\n    /* \"#utility.yul\":1267:1330   */\n  tag_80\n    /* \"#utility.yul\":1245:1258   */\n  dup2\n    /* \"#utility.yul\":1316:1318   */\n  0x28\n    /* \"#utility.yul\":1308:1319   */\n  dup5\n  add\n    /* \"#utility.yul\":1301:1305   */\n  0x20\n    /* \"#utility.yul\":1289:1306   */\n  dup9\n  add\n    /* \"#utility.yul\":1267:1330   */\n  tag_67\n  jump\t// in\ntag_80:\n    /* \"#utility.yul\":1350:1367   */\n  add\n    /* \"#utility.yul\":1369:1371   */\n  0x28\n    /* \"#utility.yul\":1346:1372   */\n  add\n  swap5\n    /* \"#utility.yul\":592:1378   */\n  swap4\n  pop\n  pop\n  pop\n  pop\n  jump\t// out\n    /* \"#utility.yul\":1383:1766   */\ntag_38:\n    /* \"#utility.yul\":1532:1534   */\n  0x20\n    /* \"#utility.yul\":1521:1530   */\n  dup2\n    /* \"#utility.yul\":1514:1535   */\n  mstore\n    /* \"#utility.yul\":1495:1499   */\n  0x00\n    /* \"#utility.yul\":1564:1570   */\n  dup3\n    /* \"#utility.yul\":1558:1571   */\n  mload\n    /* \"#utility.yul\":1607:1613   */\n  dup1\n    /* \"#utility.yul\":1602:1604   */\n  0x20\n    /* \"#utility.yul\":1591:1600   */\n  dup5\n    /* \"#utility.yul\":1587:1605   */\n  add\n    /* \"#utility.yul\":1580:1614   */\n  mstore\n    /* \"#utility.yul\":1623:1689   */\n  tag_82\n    /* \"#utility.yul\":1682:1688   */\n  dup2\n    /* \"#utility.yul\":1677:1679   */\n  0x40\n    /* \"#utility.yul\":1666:1675   */\n  dup6\n    /* \"#utility.yul\":1662:1680   */\n  add\n    /* \"#utility.yul\":1657:1659   */\n  0x20\n    /* \"#utility.yul\":1649:1655   */\n  dup8\n    /* \"#utility.yul\":1645:1660   */\n  add\n    /* \"#utility.yul\":1623:1689   */\n  tag_67\n  jump\t// in\ntag_82:\n    /* \"#utility.yul\":1750:1752   */\n  0x1f\n    /* \"#utility.yul\":1729:1744   */\n  add\n  not(0x1f)\n    /* \"#utility.yul\":1725:1754   */\n  and\n    /* \"#utility.yul\":1710:1755   */\n  swap2\n  swap1\n  swap2\n  add\n    /* \"#utility.yul\":1757:1759   */\n  0x40\n    /* \"#utility.yul\":1706:1760   */\n  add\n  swap3\n    /* \"#utility.yul\":1383:1766   */\n  swap2\n  pop\n  pop\n  jump\t// out\n    /* \"#utility.yul\":1771:1898   */\ntag_68:\n    /* \"#utility.yul\":1832:1842   */\n  0x4e487b71\n    /* \"#utility.yul\":1827:1830   */\n  0xe0\n    /* \"#utility.yul\":1823:1843   */\n  shl\n    /* \"#utility.yul\":1820:1821   */\n  0x00\n    /* \"#utility.yul\":1813:1844   */\n  mstore\n    /* \"#utility.yul\":1863:1867   */\n  0x11\n    /* \"#utility.yul\":1860:1861   */\n  0x04\n    /* \"#utility.yul\":1853:1868   */\n  mstore\n    /* \"#utility.yul\":1887:1891   */\n  0x24\n    /* \"#utility.yul\":1884:1885   */\n  0x00\n    /* \"#utility.yul\":1877:1892   */\n  revert\n    /* \"#utility.yul\":1903:2071   */\ntag_41:\n    /* \"#utility.yul\":1943:1950   */\n  0x00\n    /* \"#utility.yul\":2009:2010   */\n  dup2\n    /* \"#utility.yul\":2005:2006   */\n  0x00\n    /* \"#utility.yul\":2001:2007   */\n  not\n    /* \"#utility.yul\":1997:2011   */\n  div\n    /* \"#utility.yul\":1994:1995   */\n  dup4\n    /* \"#utility.yul\":1991:2012   */\n  gt\n    /* \"#utility.yul\":1986:1987   */\n  dup3\n    /* \"#utility.yul\":1979:1988   */\n  iszero\n    /* \"#utility.yul\":1972:1989   */\n  iszero\n    /* \"#utility.yul\":1968:2013   */\n  and\n    /* \"#utility.yul\":1965:2036   */\n  iszero\n  tag_86\n  jumpi\n    /* \"#utility.yul\":2016:2034   */\n  tag_86\n  tag_68\n  jump\t// in\ntag_86:\n  pop\n    /* \"#utility.yul\":2056:2065   */\n  mul\n  swap1\n    /* \"#utility.yul\":1903:2071   */\n  jump\t// out\n    /* \"#utility.yul\":2076:2204   */\ntag_43:\n    /* \"#utility.yul\":2116:2119   */\n  0x00\n    /* \"#utility.yul\":2147:2148   */\n  dup3\n    /* \"#utility.yul\":2143:2149   */\n  not\n    /* \"#utility.yul\":2140:2141   */\n  dup3\n    /* \"#utility.yul\":2137:2150   */\n  gt\n    /* \"#utility.yul\":2134:2173   */\n  iszero\n  tag_89\n  jumpi\n    /* \"#utility.yul\":2153:2171   */\n  tag_89\n  tag_68\n  jump\t// in\ntag_89:\n  pop\n    /* \"#utility.yul\":2189:2198   */\n  add\n  swap1\n    /* \"#utility.yul\":2076:2204   */\n  jump\t// out\n    /* \"#utility.yul\":2209:2336   */\ntag_46:\n    /* \"#utility.yul\":2270:2280   */\n  0x4e487b71\n    /* \"#utility.yul\":2265:2268   */\n  0xe0\n    /* \"#utility.yul\":2261:2281   */\n  shl\n    /* \"#utility.yul\":2258:2259   */\n  0x00\n    /* \"#utility.yul\":2251:2282   */\n  mstore\n    /* \"#utility.yul\":2301:2305   */\n  0x41\n    /* \"#utility.yul\":2298:2299   */\n  0x04\n    /* \"#utility.yul\":2291:2306   */\n  mstore\n    /* \"#utility.yul\":2325:2329   */\n  0x24\n    /* \"#utility.yul\":2322:2323   */\n  0x00\n    /* \"#utility.yul\":2315:2330   */\n  revert\n    /* \"#utility.yul\":2341:2468   */\ntag_50:\n    /* \"#utility.yul\":2402:2412   */\n  0x4e487b71\n    /* \"#utility.yul\":2397:2400   */\n  0xe0\n    /* \"#utility.yul\":2393:2413   */\n  shl\n    /* \"#utility.yul\":2390:2391   */\n  0x00\n    /* \"#utility.yul\":2383:2414   */\n  mstore\n    /* \"#utility.yul\":2433:2437   */\n  0x32\n    /* \"#utility.yul\":2430:2431   */\n  0x04\n    /* \"#utility.yul\":2423:2438   */\n  mstore\n    /* \"#utility.yul\":2457:2461   */\n  0x24\n    /* \"#utility.yul\":2454:2455   */\n  0x00\n    /* \"#utility.yul\":2447:2462   */\n  revert\n    /* \"#utility.yul\":2473:2609   */\ntag_63:\n    /* \"#utility.yul\":2512:2515   */\n  0x00\n    /* \"#utility.yul\":2540:2545   */\n  dup2\n    /* \"#utility.yul\":2530:2569   */\n  tag_94\n  jumpi\n    /* \"#utility.yul\":2549:2567   */\n  tag_94\n  tag_68\n  jump\t// in\ntag_94:\n  pop\n  not(0x00)\n    /* \"#utility.yul\":2585:2603   */\n  add\n  swap1\n    /* \"#utility.yul\":2473:2609   */\n  jump\t// out\n    /* \"#utility.yul\":2614:2970   */\ntag_69:\n    /* \"MintNagaKids.sol\":244:2013  contract MintNagaKids is Whitelist, AccessControl, ReentrancyGuard {... */\n  dataSize(sub_0)\n  dup1\n  dataOffset(sub_0)\n  0x00\n  codecopy\n  0x00\n  return\nstop\n\nsub_0: assembly {\n        /* \"MintNagaKids.sol\":244:2013  contract MintNagaKids is Whitelist, AccessControl, ReentrancyGuard {... */\n      mstore(0x40, 0x80)\n      jumpi(tag_1, lt(calldatasize, 0x04))\n      shr(0xe0, calldataload(0x00))\n      dup1\n      0x7cb64759\n      gt\n      tag_22\n      jumpi\n      dup1\n      0xc4e41b22\n      gt\n      tag_23\n      jumpi\n      dup1\n      0xc4e41b22\n      eq\n      tag_17\n      jumpi\n      dup1\n      0xd547741f\n      eq\n      tag_18\n      jumpi\n      dup1\n      0xdd31a7ba\n      eq\n      tag_19\n      jumpi\n      dup1\n      0xfeb2386e\n      eq\n      tag_20\n      jumpi\n      dup1\n      0xff0938a7\n      eq\n      tag_21\n      jumpi\n      0x00\n      dup1\n      revert\n    tag_23:\n      dup1\n      0x7cb64759\n      eq\n      tag_12\n      jumpi\n      dup1\n      0x91d14854\n      eq\n      tag_13\n      jumpi\n      dup1\n      0x94f4504d\n      eq\n      tag_14\n      jumpi\n      dup1\n      0xa217fddf\n      eq\n      tag_15\n      jumpi\n      dup1\n      0xa6f5f014\n      eq\n      tag_16\n      jumpi\n      0x00\n      dup1\n      revert\n    tag_22:\n      dup1\n      0x2eb4a7ab\n      gt\n      tag_24\n      jumpi\n      dup1\n      0x2eb4a7ab\n      eq\n      tag_7\n      jumpi\n      dup1\n      0x2f2ff15d\n      eq\n      tag_8\n      jumpi\n      dup1\n      0x36568abe\n      eq\n      tag_9\n      jumpi\n      dup1\n      0x4c0f38c2\n      eq\n      tag_10\n      jumpi\n      dup1\n      0x61aec205\n      eq\n      tag_11\n      jumpi\n      0x00\n      dup1\n      revert\n    tag_24:\n      dup1\n      0x01ffc9a7\n      eq\n      tag_2\n      jumpi\n      dup1\n      0x248a9ca3\n      eq\n      tag_3\n      jumpi\n      dup1\n      0x27c25c20\n      eq\n      tag_4\n      jumpi\n      dup1\n      0x28438f68\n      eq\n      tag_5\n      jumpi\n      dup1\n      0x2904e6d9\n      eq\n      tag_6\n      jumpi\n    tag_1:\n      0x00\n      dup1\n      revert\n        /* \"@openzeppelin/contracts/access/AccessControl.sol\":2606:2808  function supportsInterface(bytes4 interfaceId) public view virtual override returns (bool) {... */\n    tag_2:\n      callvalue\n      dup1\n      iszero\n      tag_25\n      jumpi\n      0x00\n      dup1\n      revert\n    tag_25:\n      pop\n      tag_26\n      tag_27\n      calldatasize\n      0x04\n      tag_28\n      jump\t// in\n    tag_27:\n      tag_29\n      jump\t// in\n    tag_26:\n      mload(0x40)\n        /* \"#utility.yul\":470:484   */\n      swap1\n      iszero\n        /* \"#utility.yul\":463:485   */\n      iszero\n        /* \"#utility.yul\":445:486   */\n      dup2\n      mstore\n        /* \"#utility.yul\":433:435   */\n      0x20\n        /* \"#utility.yul\":418:436   */\n      add\n        /* \"@openzeppelin/contracts/access/AccessControl.sol\":2606:2808  function supportsInterface(bytes4 interfaceId) public view virtual override returns (bool) {... */\n    tag_30:\n      mload(0x40)\n      dup1\n      swap2\n      sub\n      swap1\n      return\n        /* \"@openzeppelin/contracts/access/AccessControl.sol\":4391:4520  function getRoleAdmin(bytes32 role) public view virtual override returns (bytes32) {... */\n    tag_3:\n      callvalue\n      dup1\n      iszero\n      tag_32\n      jumpi\n      0x00\n      dup1\n      revert\n    tag_32:\n      pop\n      tag_33\n      tag_34\n      calldatasize\n      0x04\n      tag_35\n      jump\t// in\n    tag_34:\n        /* \"@openzeppelin/contracts/access/AccessControl.sol\":4465:4472  bytes32 */\n      0x00\n        /* \"@openzeppelin/contracts/access/AccessControl.sol\":4491:4503  _roles[role] */\n      swap1\n      dup2\n      mstore\n        /* \"@openzeppelin/contracts/access/AccessControl.sol\":4491:4497  _roles */\n      0x01\n        /* \"@openzeppelin/contracts/access/AccessControl.sol\":4491:4503  _roles[role] */\n      0x20\n      dup2\n      swap1\n      mstore\n      0x40\n      swap1\n      swap2\n      keccak256\n        /* \"@openzeppelin/contracts/access/AccessControl.sol\":4491:4513  _roles[role].adminRole */\n      add\n      sload\n      swap1\n        /* \"@openzeppelin/contracts/access/AccessControl.sol\":4391:4520  function getRoleAdmin(bytes32 role) public view virtual override returns (bytes32) {... */\n      jump\n    tag_33:\n      mload(0x40)\n        /* \"#utility.yul\":828:853   */\n      swap1\n      dup2\n      mstore\n        /* \"#utility.yul\":816:818   */\n      0x20\n        /* \"#utility.yul\":801:819   */\n      add\n        /* \"@openzeppelin/contracts/access/AccessControl.sol\":4391:4520  function getRoleAdmin(bytes32 role) public view virtual override returns (bytes32) {... */\n      tag_30\n        /* \"#utility.yul\":682:859   */\n      jump\n        /* \"MintNagaKids.sol\":320:356  INagaKidsNFT public nagaKidsContract */\n    tag_4:\n      callvalue\n      dup1\n      iszero\n      tag_39\n      jumpi\n      0x00\n      dup1\n      revert\n    tag_39:\n      pop\n      sload(0x03)\n      tag_40\n      swap1\n      sub(shl(0xa0, 0x01), 0x01)\n      and\n      dup2\n      jump\n    tag_40:\n      mload(0x40)\n      sub(shl(0xa0, 0x01), 0x01)\n        /* \"#utility.yul\":1048:1080   */\n      swap1\n      swap2\n      and\n        /* \"#utility.yul\":1030:1081   */\n      dup2\n      mstore\n        /* \"#utility.yul\":1018:1020   */\n      0x20\n        /* \"#utility.yul\":1003:1021   */\n      add\n        /* \"MintNagaKids.sol\":320:356  INagaKidsNFT public nagaKidsContract */\n      tag_30\n        /* \"#utility.yul\":864:1087   */\n      jump\n        /* \"MintNagaKids.sol\":970:1091  function changeFreeMintOpen(bool _isOpen) public onlyRole(DEFAULT_ADMIN_ROLE) {... */\n    tag_5:\n      callvalue\n      dup1\n      iszero\n      tag_44\n      jumpi\n      0x00\n      dup1\n      revert\n    tag_44:\n      pop\n      tag_45\n      tag_46\n      calldatasize\n      0x04\n      tag_47\n      jump\t// in\n    tag_46:\n      tag_48\n      jump\t// in\n    tag_45:\n      stop\n        /* \"MintNagaKids.sol\":1234:1669  function whitelistMint(bytes32[] memory _proofMerkle,uint256 amount) public payable nonReentrant Paused {... */\n    tag_6:\n      tag_45\n      tag_50\n      calldatasize\n      0x04\n      tag_51\n      jump\t// in\n    tag_50:\n      tag_52\n      jump\t// in\n        /* \"Whitelist.sol\":161:186  bytes32 public merkleRoot */\n    tag_7:\n      callvalue\n      dup1\n      iszero\n      tag_53\n      jumpi\n      0x00\n      dup1\n      revert\n    tag_53:\n      pop\n      tag_33\n      sload(0x00)\n      dup2\n      jump\n        /* \"@openzeppelin/contracts/access/AccessControl.sol\":4770:4915  function grantRole(bytes32 role, address account) public virtual override onlyRole(getRoleAdmin(role)) {... */\n    tag_8:\n      callvalue\n      dup1\n      iszero\n      tag_57\n      jumpi\n      0x00\n      dup1\n      revert\n    tag_57:\n      pop\n      tag_45\n      tag_59\n      calldatasize\n      0x04\n      tag_60\n      jump\t// in\n    tag_59:\n      tag_61\n      jump\t// in\n        /* \"@openzeppelin/contracts/access/AccessControl.sol\":5787:6001  function renounceRole(bytes32 role, address account) public virtual override {... */\n    tag_9:\n      callvalue\n      dup1\n      iszero\n      tag_62\n      jumpi\n      0x00\n      dup1\n      revert\n    tag_62:\n      pop\n      tag_45\n      tag_64\n      calldatasize\n      0x04\n      tag_60\n      jump\t// in\n    tag_64:\n      tag_65\n      jump\t// in\n        /* \"MintNagaKids.sol\":1797:1905  function getMaxSupply() public view returns (uint256) {... */\n    tag_10:\n      callvalue\n      dup1\n      iszero\n      tag_66\n      jumpi\n      0x00\n      dup1\n      revert\n    tag_66:\n      pop\n      tag_33\n      tag_68\n      jump\t// in\n        /* \"MintNagaKids.sol\":688:827  function changeNagaKidsContract(INagaKidsNFT _nagaKids) public onlyRole(DEFAULT_ADMIN_ROLE) {... */\n    tag_11:\n      callvalue\n      dup1\n      iszero\n      tag_71\n      jumpi\n      0x00\n      dup1\n      revert\n    tag_71:\n      pop\n      tag_45\n      tag_73\n      calldatasize\n      0x04\n      tag_74\n      jump\t// in\n    tag_73:\n      tag_75\n      jump\t// in\n        /* \"MintNagaKids.sol\":1103:1226  function setMerkleRoot(bytes32 _merkleRoot) public onlyRole(DEFAULT_ADMIN_ROLE) {... */\n    tag_12:\n      callvalue\n      dup1\n      iszero\n      tag_76\n      jumpi\n      0x00\n      dup1\n      revert\n    tag_76:\n      pop\n      tag_45\n      tag_78\n      calldatasize\n      0x04\n      tag_35\n      jump\t// in\n    tag_78:\n      tag_79\n      jump\t// in\n        /* \"@openzeppelin/contracts/access/AccessControl.sol\":2895:3040  function hasRole(bytes32 role, address account) public view virtual override returns (bool) {... */\n    tag_13:\n      callvalue\n      dup1\n      iszero\n      tag_80\n      jumpi\n      0x00\n      dup1\n      revert\n    tag_80:\n      pop\n      tag_26\n      tag_82\n      calldatasize\n      0x04\n      tag_60\n      jump\t// in\n    tag_82:\n      tag_83\n      jump\t// in\n        /* \"MintNagaKids.sol\":396:423  bool public isWhitelistOpen */\n    tag_14:\n      callvalue\n      dup1\n      iszero\n      tag_85\n      jumpi\n      0x00\n      dup1\n      revert\n    tag_85:\n      pop\n      sload(0x03)\n      tag_26\n      swap1\n      shl(0xa8, 0x01)\n      swap1\n      div\n      0xff\n      and\n      dup2\n      jump\n        /* \"@openzeppelin/contracts/access/AccessControl.sol\":2027:2076  bytes32 public constant DEFAULT_ADMIN_ROLE = 0x00 */\n    tag_15:\n      callvalue\n      dup1\n      iszero\n      tag_89\n      jumpi\n      0x00\n      dup1\n      revert\n    tag_89:\n      pop\n      tag_33\n        /* \"@openzeppelin/contracts/access/AccessControl.sol\":2072:2076  0x00 */\n      0x00\n        /* \"@openzeppelin/contracts/access/AccessControl.sol\":2027:2076  bytes32 public constant DEFAULT_ADMIN_ROLE = 0x00 */\n      dup2\n      jump\n        /* \"MintNagaKids.sol\":363:389  bool public isFreeMintOpen */\n    tag_16:\n      callvalue\n      dup1\n      iszero\n      tag_93\n      jumpi\n      0x00\n      dup1\n      revert\n    tag_93:\n      pop\n      sload(0x03)\n      tag_26\n      swap1\n      shl(0xa0, 0x01)\n      swap1\n      div\n      0xff\n      and\n      dup2\n      jump\n        /* \"MintNagaKids.sol\":1677:1789  function getTotalSupply() public view returns (uint256) {... */\n    tag_17:\n      callvalue\n      dup1\n      iszero\n      tag_97\n      jumpi\n      0x00\n      dup1\n      revert\n    tag_97:\n      pop\n      tag_33\n      tag_99\n      jump\t// in\n        /* \"@openzeppelin/contracts/access/AccessControl.sol\":5149:5296  function revokeRole(bytes32 role, address account) public virtual override onlyRole(getRoleAdmin(role)) {... */\n    tag_18:\n      callvalue\n      dup1\n      iszero\n      tag_101\n      jumpi\n      0x00\n      dup1\n      revert\n    tag_101:\n      pop\n      tag_45\n      tag_103\n      calldatasize\n      0x04\n      tag_60\n      jump\t// in\n    tag_103:\n      tag_104\n      jump\t// in\n        /* \"MintNagaKids.sol\":835:962  function changeWhitelistMintOpen(bool _isOpen) public onlyRole(DEFAULT_ADMIN_ROLE) {... */\n    tag_19:\n      callvalue\n      dup1\n      iszero\n      tag_105\n      jumpi\n      0x00\n      dup1\n      revert\n    tag_105:\n      pop\n      tag_45\n      tag_107\n      calldatasize\n      0x04\n      tag_47\n      jump\t// in\n    tag_107:\n      tag_108\n      jump\t// in\n        /* \"Whitelist.sol\":195:604  function isWhitelist(... */\n    tag_20:\n      callvalue\n      dup1\n      iszero\n      tag_109\n      jumpi\n      0x00\n      dup1\n      revert\n    tag_109:\n      pop\n      tag_26\n      tag_111\n      calldatasize\n      0x04\n      tag_112\n      jump\t// in\n    tag_111:\n      tag_113\n      jump\t// in\n        /* \"MintNagaKids.sol\":1913:2010  function isPause() public view returns (bool) {... */\n    tag_21:\n      callvalue\n      dup1\n      iszero\n      tag_115\n      jumpi\n      0x00\n      dup1\n      revert\n    tag_115:\n      pop\n      tag_26\n      tag_117\n      jump\t// in\n        /* \"@openzeppelin/contracts/access/AccessControl.sol\":2606:2808  function supportsInterface(bytes4 interfaceId) public view virtual override returns (bool) {... */\n    tag_29:\n        /* \"@openzeppelin/contracts/access/AccessControl.sol\":2691:2695  bool */\n      0x00\n      not(sub(shl(0xe0, 0x01), 0x01))\n        /* \"@openzeppelin/contracts/access/AccessControl.sol\":2714:2761  interfaceId == type(IAccessControl).interfaceId */\n      dup3\n      and\n      shl(0xe0, 0x7965db0b)\n      eq\n      dup1\n        /* \"@openzeppelin/contracts/access/AccessControl.sol\":2714:2801  interfaceId == type(IAccessControl).interfaceId || super.supportsInterface(interfaceId) */\n      tag_122\n      jumpi\n      pop\n      shl(0xe0, 0x01ffc9a7)\n      not(sub(shl(0xe0, 0x01), 0x01))\n        /* \"@openzeppelin/contracts/utils/introspection/ERC165.sol\":937:977  interfaceId == type(IERC165).interfaceId */\n      dup4\n      and\n      eq\n        /* \"@openzeppelin/contracts/access/AccessControl.sol\":2765:2801  super.supportsInterface(interfaceId) */\n    tag_122:\n        /* \"@openzeppelin/contracts/access/AccessControl.sol\":2707:2801  return interfaceId == type(IAccessControl).interfaceId || super.supportsInterface(interfaceId) */\n      swap3\n        /* \"@openzeppelin/contracts/access/AccessControl.sol\":2606:2808  function supportsInterface(bytes4 interfaceId) public view virtual override returns (bool) {... */\n      swap2\n      pop\n      pop\n      jump\t// out\n        /* \"MintNagaKids.sol\":970:1091  function changeFreeMintOpen(bool _isOpen) public onlyRole(DEFAULT_ADMIN_ROLE) {... */\n    tag_48:\n        /* \"@openzeppelin/contracts/access/AccessControl.sol\":2072:2076  0x00 */\n      0x00\n        /* \"@openzeppelin/contracts/access/AccessControl.sol\":2505:2521  _checkRole(role) */\n      tag_126\n        /* \"@openzeppelin/contracts/access/AccessControl.sol\":2072:2076  0x00 */\n      dup2\n        /* \"@openzeppelin/contracts/access/AccessControl.sol\":2505:2515  _checkRole */\n      tag_127\n        /* \"@openzeppelin/contracts/access/AccessControl.sol\":2505:2521  _checkRole(role) */\n      jump\t// in\n    tag_126:\n      pop\n        /* \"MintNagaKids.sol\":1059:1073  isFreeMintOpen */\n      0x03\n        /* \"MintNagaKids.sol\":1059:1083  isFreeMintOpen = _isOpen */\n      dup1\n      sload\n      swap2\n      iszero\n      iszero\n      shl(0xa0, 0x01)\n      mul\n      not(shl(0xa0, 0xff))\n      swap1\n      swap3\n      and\n      swap2\n      swap1\n      swap2\n      or\n      swap1\n      sstore\n        /* \"MintNagaKids.sol\":970:1091  function changeFreeMintOpen(bool _isOpen) public onlyRole(DEFAULT_ADMIN_ROLE) {... */\n      jump\t// out\n        /* \"MintNagaKids.sol\":1234:1669  function whitelistMint(bytes32[] memory _proofMerkle,uint256 amount) public payable nonReentrant Paused {... */\n    tag_52:\n        /* \"@openzeppelin/contracts/security/ReentrancyGuard.sol\":1744:1745  2 */\n      0x02\n        /* \"@openzeppelin/contracts/security/ReentrancyGuard.sol\":2325:2332  _status */\n      dup1\n      sload\n        /* \"@openzeppelin/contracts/security/ReentrancyGuard.sol\":2325:2344  _status != _ENTERED */\n      sub\n        /* \"@openzeppelin/contracts/security/ReentrancyGuard.sol\":2317:2380  require(_status != _ENTERED, \"ReentrancyGuard: reentrant call\") */\n      tag_130\n      jumpi\n      mload(0x40)\n      shl(0xe5, 0x461bcd)\n      dup2\n      mstore\n        /* \"#utility.yul\":4724:4726   */\n      0x20\n        /* \"@openzeppelin/contracts/security/ReentrancyGuard.sol\":2317:2380  require(_status != _ENTERED, \"ReentrancyGuard: reentrant call\") */\n      0x04\n      dup3\n      add\n        /* \"#utility.yul\":4706:4727   */\n      mstore\n        /* \"#utility.yul\":4763:4765   */\n      0x1f\n        /* \"#utility.yul\":4743:4761   */\n      0x24\n      dup3\n      add\n        /* \"#utility.yul\":4736:4766   */\n      mstore\n        /* \"#utility.yul\":4802:4835   */\n      0x5265656e7472616e637947756172643a207265656e7472616e742063616c6c00\n        /* \"#utility.yul\":4782:4800   */\n      0x44\n      dup3\n      add\n        /* \"#utility.yul\":4775:4836   */\n      mstore\n        /* \"#utility.yul\":4853:4871   */\n      0x64\n      add\n        /* \"@openzeppelin/contracts/security/ReentrancyGuard.sol\":2317:2380  require(_status != _ENTERED, \"ReentrancyGuard: reentrant call\") */\n    tag_131:\n      mload(0x40)\n      dup1\n      swap2\n      sub\n      swap1\n      revert\n    tag_130:\n        /* \"@openzeppelin/contracts/security/ReentrancyGuard.sol\":1744:1745  2 */\n      0x02\n        /* \"@openzeppelin/contracts/security/ReentrancyGuard.sol\":2455:2473  _status = _ENTERED */\n      dup1\n      sstore\n        /* \"MintNagaKids.sol\":618:627  isPause() */\n      tag_134\n        /* \"MintNagaKids.sol\":618:625  isPause */\n      tag_117\n        /* \"MintNagaKids.sol\":618:627  isPause() */\n      jump\t// in\n    tag_134:\n        /* \"MintNagaKids.sol\":618:636  isPause() == false */\n      iszero\n        /* \"MintNagaKids.sol\":610:660  require(isPause() == false,\"NagaKids was Paused.\") */\n      tag_135\n      jumpi\n      mload(0x40)\n      shl(0xe5, 0x461bcd)\n      dup2\n      mstore\n        /* \"#utility.yul\":5084:5086   */\n      0x20\n        /* \"MintNagaKids.sol\":610:660  require(isPause() == false,\"NagaKids was Paused.\") */\n      0x04\n      dup3\n      add\n        /* \"#utility.yul\":5066:5087   */\n      mstore\n        /* \"#utility.yul\":5123:5125   */\n      0x14\n        /* \"#utility.yul\":5103:5121   */\n      0x24\n      dup3\n      add\n        /* \"#utility.yul\":5096:5126   */\n      mstore\n      shl(0x61, 0x2730b3b0a5b4b239903bb0b9902830bab9b2b217)\n        /* \"#utility.yul\":5142:5160   */\n      0x44\n      dup3\n      add\n        /* \"#utility.yul\":5135:5185   */\n      mstore\n        /* \"#utility.yul\":5202:5220   */\n      0x64\n      add\n        /* \"MintNagaKids.sol\":610:660  require(isPause() == false,\"NagaKids was Paused.\") */\n      tag_131\n        /* \"#utility.yul\":4882:5226   */\n      jump\n        /* \"MintNagaKids.sol\":610:660  require(isPause() == false,\"NagaKids was Paused.\") */\n    tag_135:\n        /* \"MintNagaKids.sol\":1357:1372  isWhitelistOpen */\n      sload(0x03)\n      shl(0xa8, 0x01)\n      swap1\n      div\n      0xff\n      and\n        /* \"MintNagaKids.sol\":1357:1380  isWhitelistOpen == true */\n      iszero\n      iszero\n        /* \"MintNagaKids.sol\":1376:1380  true */\n      0x01\n        /* \"MintNagaKids.sol\":1357:1380  isWhitelistOpen == true */\n      eq\n        /* \"MintNagaKids.sol\":1349:1412  require(isWhitelistOpen == true, \"Whitelist not open to mint.\") */\n      tag_139\n      jumpi\n      mload(0x40)\n      shl(0xe5, 0x461bcd)\n      dup2\n      mstore\n        /* \"#utility.yul\":5433:5435   */\n      0x20\n        /* \"MintNagaKids.sol\":1349:1412  require(isWhitelistOpen == true, \"Whitelist not open to mint.\") */\n      0x04\n      dup3\n      add\n        /* \"#utility.yul\":5415:5436   */\n      mstore\n        /* \"#utility.yul\":5472:5474   */\n      0x1b\n        /* \"#utility.yul\":5452:5470   */\n      0x24\n      dup3\n      add\n        /* \"#utility.yul\":5445:5475   */\n      mstore\n        /* \"#utility.yul\":5511:5540   */\n      0x57686974656c697374206e6f74206f70656e20746f206d696e742e0000000000\n        /* \"#utility.yul\":5491:5509   */\n      0x44\n      dup3\n      add\n        /* \"#utility.yul\":5484:5541   */\n      mstore\n        /* \"#utility.yul\":5558:5576   */\n      0x64\n      add\n        /* \"MintNagaKids.sol\":1349:1412  require(isWhitelistOpen == true, \"Whitelist not open to mint.\") */\n      tag_131\n        /* \"#utility.yul\":5231:5582   */\n      jump\n        /* \"MintNagaKids.sol\":1349:1412  require(isWhitelistOpen == true, \"Whitelist not open to mint.\") */\n    tag_139:\n        /* \"MintNagaKids.sol\":1450:1454  1111 */\n      0x0457\n        /* \"MintNagaKids.sol\":1431:1447  getTotalSupply() */\n      tag_142\n        /* \"MintNagaKids.sol\":1431:1445  getTotalSupply */\n      tag_99\n        /* \"MintNagaKids.sol\":1431:1447  getTotalSupply() */\n      jump\t// in\n    tag_142:\n        /* \"MintNagaKids.sol\":1431:1454  getTotalSupply() < 1111 */\n      lt\n        /* \"MintNagaKids.sol\":1423:1470  require(getTotalSupply() < 1111, \"Over supply\") */\n      tag_143\n      jumpi\n      mload(0x40)\n      shl(0xe5, 0x461bcd)\n      dup2\n      mstore\n        /* \"#utility.yul\":5789:5791   */\n      0x20\n        /* \"MintNagaKids.sol\":1423:1470  require(getTotalSupply() < 1111, \"Over supply\") */\n      0x04\n      dup3\n      add\n        /* \"#utility.yul\":5771:5792   */\n      mstore\n        /* \"#utility.yul\":5828:5830   */\n      0x0b\n        /* \"#utility.yul\":5808:5826   */\n      0x24\n      dup3\n      add\n        /* \"#utility.yul\":5801:5831   */\n      mstore\n      shl(0xa8, 0x4f76657220737570706c79)\n        /* \"#utility.yul\":5847:5865   */\n      0x44\n      dup3\n      add\n        /* \"#utility.yul\":5840:5881   */\n      mstore\n        /* \"#utility.yul\":5898:5916   */\n      0x64\n      add\n        /* \"MintNagaKids.sol\":1423:1470  require(getTotalSupply() < 1111, \"Over supply\") */\n      tag_131\n        /* \"#utility.yul\":5587:5922   */\n      jump\n        /* \"MintNagaKids.sol\":1423:1470  require(getTotalSupply() < 1111, \"Over supply\") */\n    tag_143:\n        /* \"MintNagaKids.sol\":1489:1505  nagaKidsContract */\n      sload(0x03)\n        /* \"MintNagaKids.sol\":1514:1544  nagaKidsContract.MINTER_ROLE() */\n      0x40\n      dup1\n      mload\n      shl(0xe0, 0xd5391393)\n      dup2\n      mstore\n      swap1\n      mload\n      sub(shl(0xa0, 0x01), 0x01)\n        /* \"MintNagaKids.sol\":1489:1505  nagaKidsContract */\n      swap1\n      swap3\n      and\n      swap2\n        /* \"MintNagaKids.sol\":1489:1513  nagaKidsContract.hasRole */\n      0x91d14854\n      swap2\n        /* \"MintNagaKids.sol\":1489:1505  nagaKidsContract */\n      dup4\n      swap2\n        /* \"MintNagaKids.sol\":1514:1542  nagaKidsContract.MINTER_ROLE */\n      0xd5391393\n      swap2\n        /* \"MintNagaKids.sol\":1514:1544  nagaKidsContract.MINTER_ROLE() */\n      0x04\n      dup1\n      dup3\n      add\n      swap3\n      0x20\n      swap3\n      swap1\n      swap2\n      swap1\n      dup3\n      swap1\n      sub\n      add\n      dup2\n        /* \"MintNagaKids.sol\":1489:1505  nagaKidsContract */\n      dup7\n        /* \"MintNagaKids.sol\":1514:1544  nagaKidsContract.MINTER_ROLE() */\n      gas\n      staticcall\n      iszero\n      dup1\n      iszero\n      tag_147\n      jumpi\n      returndatasize\n      0x00\n      dup1\n      returndatacopy\n      revert(0x00, returndatasize)\n    tag_147:\n      pop\n      pop\n      pop\n      pop\n      mload(0x40)\n      returndatasize\n      not(0x1f)\n      0x1f\n      dup3\n      add\n      and\n      dup3\n      add\n      dup1\n      0x40\n      mstore\n      pop\n      dup2\n      add\n      swap1\n      tag_148\n      swap2\n      swap1\n      tag_149\n      jump\t// in\n    tag_148:\n        /* \"MintNagaKids.sol\":1489:1559  nagaKidsContract.hasRole(nagaKidsContract.MINTER_ROLE(),address(this)) */\n      mload(0x40)\n      not(sub(shl(0xe0, 0x01), 0x01))\n      0xe0\n      dup5\n      swap1\n      shl\n      and\n      dup2\n      mstore\n      0x04\n      dup2\n      add\n        /* \"#utility.yul\":6290:6315   */\n      swap2\n      swap1\n      swap2\n      mstore\n        /* \"MintNagaKids.sol\":1553:1557  this */\n      address\n        /* \"#utility.yul\":6331:6349   */\n      0x24\n      dup3\n      add\n        /* \"#utility.yul\":6324:6384   */\n      mstore\n        /* \"#utility.yul\":6263:6281   */\n      0x44\n      add\n        /* \"MintNagaKids.sol\":1489:1559  nagaKidsContract.hasRole(nagaKidsContract.MINTER_ROLE(),address(this)) */\n      0x20\n      mload(0x40)\n      dup1\n      dup4\n      sub\n      dup2\n      dup7\n      gas\n      staticcall\n      iszero\n      dup1\n      iszero\n      tag_153\n      jumpi\n      returndatasize\n      0x00\n      dup1\n      returndatacopy\n      revert(0x00, returndatasize)\n    tag_153:\n      pop\n      pop\n      pop\n      pop\n      mload(0x40)\n      returndatasize\n      not(0x1f)\n      0x1f\n      dup3\n      add\n      and\n      dup3\n      add\n      dup1\n      0x40\n      mstore\n      pop\n      dup2\n      add\n      swap1\n      tag_154\n      swap2\n      swap1\n      tag_155\n      jump\t// in\n    tag_154:\n        /* \"MintNagaKids.sol\":1489:1567  nagaKidsContract.hasRole(nagaKidsContract.MINTER_ROLE(),address(this)) == true */\n      iszero\n      iszero\n        /* \"MintNagaKids.sol\":1563:1567  true */\n      0x01\n        /* \"MintNagaKids.sol\":1489:1567  nagaKidsContract.hasRole(nagaKidsContract.MINTER_ROLE(),address(this)) == true */\n      eq\n        /* \"MintNagaKids.sol\":1481:1613  require(nagaKidsContract.hasRole(nagaKidsContract.MINTER_ROLE(),address(this)) == true,\"This Contract not have permission to mint.\") */\n      tag_156\n      jumpi\n      mload(0x40)\n      shl(0xe5, 0x461bcd)\n      dup2\n      mstore\n        /* \"#utility.yul\":6847:6849   */\n      0x20\n        /* \"MintNagaKids.sol\":1481:1613  require(nagaKidsContract.hasRole(nagaKidsContract.MINTER_ROLE(),address(this)) == true,\"This Contract not have permission to mint.\") */\n      0x04\n      dup3\n      add\n        /* \"#utility.yul\":6829:6850   */\n      mstore\n        /* \"#utility.yul\":6886:6888   */\n      0x2a\n        /* \"#utility.yul\":6866:6884   */\n      0x24\n      dup3\n      add\n        /* \"#utility.yul\":6859:6889   */\n      mstore\n        /* \"#utility.yul\":6925:6959   */\n      0x5468697320436f6e7472616374206e6f742068617665207065726d697373696f\n        /* \"#utility.yul\":6905:6923   */\n      0x44\n      dup3\n      add\n        /* \"#utility.yul\":6898:6960   */\n      mstore\n      shl(0xb1, 0x37103a379036b4b73a17)\n        /* \"#utility.yul\":6976:6994   */\n      0x64\n      dup3\n      add\n        /* \"#utility.yul\":6969:7009   */\n      mstore\n        /* \"#utility.yul\":7026:7045   */\n      0x84\n      add\n        /* \"MintNagaKids.sol\":1481:1613  require(nagaKidsContract.hasRole(nagaKidsContract.MINTER_ROLE(),address(this)) == true,\"This Contract not have permission to mint.\") */\n      tag_131\n        /* \"#utility.yul\":6645:7051   */\n      jump\n        /* \"MintNagaKids.sol\":1481:1613  require(nagaKidsContract.hasRole(nagaKidsContract.MINTER_ROLE(),address(this)) == true,\"This Contract not have permission to mint.\") */\n    tag_156:\n        /* \"MintNagaKids.sol\":1624:1640  nagaKidsContract */\n      sload(0x03)\n        /* \"MintNagaKids.sol\":1624:1661  nagaKidsContract.safeMint(msg.sender) */\n      mload(0x40)\n      shl(0xe0, 0x40d097c3)\n      dup2\n      mstore\n        /* \"MintNagaKids.sol\":1650:1660  msg.sender */\n      caller\n        /* \"MintNagaKids.sol\":1624:1661  nagaKidsContract.safeMint(msg.sender) */\n      0x04\n      dup3\n      add\n        /* \"#utility.yul\":1030:1081   */\n      mstore\n      sub(shl(0xa0, 0x01), 0x01)\n        /* \"MintNagaKids.sol\":1624:1640  nagaKidsContract */\n      swap1\n      swap2\n      and\n      swap1\n        /* \"MintNagaKids.sol\":1624:1649  nagaKidsContract.safeMint */\n      0x40d097c3\n      swap1\n        /* \"#utility.yul\":1003:1021   */\n      0x24\n      add\n        /* \"MintNagaKids.sol\":1624:1661  nagaKidsContract.safeMint(msg.sender) */\n      0x00\n      mload(0x40)\n      dup1\n      dup4\n      sub\n      dup2\n      0x00\n      dup8\n      dup1\n      extcodesize\n      iszero\n      dup1\n      iszero\n      tag_161\n      jumpi\n      0x00\n      dup1\n      revert\n    tag_161:\n      pop\n      gas\n      call\n      iszero\n      dup1\n      iszero\n      tag_163\n      jumpi\n      returndatasize\n      0x00\n      dup1\n      returndatacopy\n      revert(0x00, returndatasize)\n    tag_163:\n      pop\n      pop\n        /* \"@openzeppelin/contracts/security/ReentrancyGuard.sol\":1701:1702  1 */\n      0x01\n        /* \"@openzeppelin/contracts/security/ReentrancyGuard.sol\":2628:2635  _status */\n      0x02\n        /* \"@openzeppelin/contracts/security/ReentrancyGuard.sol\":2628:2650  _status = _NOT_ENTERED */\n      sstore\n      pop\n      pop\n      pop\n      pop\n        /* \"MintNagaKids.sol\":1234:1669  function whitelistMint(bytes32[] memory _proofMerkle,uint256 amount) public payable nonReentrant Paused {... */\n      jump\t// out\n        /* \"@openzeppelin/contracts/access/AccessControl.sol\":4770:4915  function grantRole(bytes32 role, address account) public virtual override onlyRole(getRoleAdmin(role)) {... */\n    tag_61:\n        /* \"@openzeppelin/contracts/access/AccessControl.sol\":4465:4472  bytes32 */\n      0x00\n        /* \"@openzeppelin/contracts/access/AccessControl.sol\":4491:4503  _roles[role] */\n      dup3\n      dup2\n      mstore\n        /* \"@openzeppelin/contracts/access/AccessControl.sol\":4491:4497  _roles */\n      0x01\n        /* \"@openzeppelin/contracts/access/AccessControl.sol\":4491:4503  _roles[role] */\n      0x20\n      dup2\n      swap1\n      mstore\n      0x40\n      swap1\n      swap2\n      keccak256\n        /* \"@openzeppelin/contracts/access/AccessControl.sol\":4491:4513  _roles[role].adminRole */\n      add\n      sload\n        /* \"@openzeppelin/contracts/access/AccessControl.sol\":2505:2521  _checkRole(role) */\n      tag_166\n        /* \"@openzeppelin/contracts/access/AccessControl.sol\":2516:2520  role */\n      dup2\n        /* \"@openzeppelin/contracts/access/AccessControl.sol\":2505:2515  _checkRole */\n      tag_127\n        /* \"@openzeppelin/contracts/access/AccessControl.sol\":2505:2521  _checkRole(role) */\n      jump\t// in\n    tag_166:\n        /* \"@openzeppelin/contracts/access/AccessControl.sol\":4883:4908  _grantRole(role, account) */\n      tag_168\n        /* \"@openzeppelin/contracts/access/AccessControl.sol\":4894:4898  role */\n      dup4\n        /* \"@openzeppelin/contracts/access/AccessControl.sol\":4900:4907  account */\n      dup4\n        /* \"@openzeppelin/contracts/access/AccessControl.sol\":4883:4893  _grantRole */\n      tag_169\n        /* \"@openzeppelin/contracts/access/AccessControl.sol\":4883:4908  _grantRole(role, account) */\n      jump\t// in\n    tag_168:\n        /* \"@openzeppelin/contracts/access/AccessControl.sol\":4770:4915  function grantRole(bytes32 role, address account) public virtual override onlyRole(getRoleAdmin(role)) {... */\n      pop\n      pop\n      pop\n      jump\t// out\n        /* \"@openzeppelin/contracts/access/AccessControl.sol\":5787:6001  function renounceRole(bytes32 role, address account) public virtual override {... */\n    tag_65:\n      sub(shl(0xa0, 0x01), 0x01)\n        /* \"@openzeppelin/contracts/access/AccessControl.sol\":5882:5905  account == _msgSender() */\n      dup2\n      and\n        /* \"@openzeppelin/contracts/utils/Context.sol\":719:729  msg.sender */\n      caller\n        /* \"@openzeppelin/contracts/access/AccessControl.sol\":5882:5905  account == _msgSender() */\n      eq\n        /* \"@openzeppelin/contracts/access/AccessControl.sol\":5874:5957  require(account == _msgSender(), \"AccessControl: can only renounce roles for self\") */\n      tag_173\n      jumpi\n      mload(0x40)\n      shl(0xe5, 0x461bcd)\n      dup2\n      mstore\n        /* \"#utility.yul\":7466:7468   */\n      0x20\n        /* \"@openzeppelin/contracts/access/AccessControl.sol\":5874:5957  require(account == _msgSender(), \"AccessControl: can only renounce roles for self\") */\n      0x04\n      dup3\n      add\n        /* \"#utility.yul\":7448:7469   */\n      mstore\n        /* \"#utility.yul\":7505:7507   */\n      0x2f\n        /* \"#utility.yul\":7485:7503   */\n      0x24\n      dup3\n      add\n        /* \"#utility.yul\":7478:7508   */\n      mstore\n        /* \"#utility.yul\":7544:7578   */\n      0x416363657373436f6e74726f6c3a2063616e206f6e6c792072656e6f756e6365\n        /* \"#utility.yul\":7524:7542   */\n      0x44\n      dup3\n      add\n        /* \"#utility.yul\":7517:7579   */\n      mstore\n      shl(0x89, 0x103937b632b9903337b91039b2b633)\n        /* \"#utility.yul\":7595:7613   */\n      0x64\n      dup3\n      add\n        /* \"#utility.yul\":7588:7633   */\n      mstore\n        /* \"#utility.yul\":7650:7669   */\n      0x84\n      add\n        /* \"@openzeppelin/contracts/access/AccessControl.sol\":5874:5957  require(account == _msgSender(), \"AccessControl: can only renounce roles for self\") */\n      tag_131\n        /* \"#utility.yul\":7264:7675   */\n      jump\n        /* \"@openzeppelin/contracts/access/AccessControl.sol\":5874:5957  require(account == _msgSender(), \"AccessControl: can only renounce roles for self\") */\n    tag_173:\n        /* \"@openzeppelin/contracts/access/AccessControl.sol\":5968:5994  _revokeRole(role, account) */\n      tag_176\n        /* \"@openzeppelin/contracts/access/AccessControl.sol\":5980:5984  role */\n      dup3\n        /* \"@openzeppelin/contracts/access/AccessControl.sol\":5986:5993  account */\n      dup3\n        /* \"@openzeppelin/contracts/access/AccessControl.sol\":5968:5979  _revokeRole */\n      tag_177\n        /* \"@openzeppelin/contracts/access/AccessControl.sol\":5968:5994  _revokeRole(role, account) */\n      jump\t// in\n    tag_176:\n        /* \"@openzeppelin/contracts/access/AccessControl.sol\":5787:6001  function renounceRole(bytes32 role, address account) public virtual override {... */\n      pop\n      pop\n      jump\t// out\n        /* \"MintNagaKids.sol\":1797:1905  function getMaxSupply() public view returns (uint256) {... */\n    tag_68:\n        /* \"MintNagaKids.sol\":1869:1885  nagaKidsContract */\n      sload(0x03)\n        /* \"MintNagaKids.sol\":1869:1897  nagaKidsContract.maxSupply() */\n      0x40\n      dup1\n      mload\n      shl(0xe0, 0xd5abeb01)\n      dup2\n      mstore\n      swap1\n      mload\n        /* \"MintNagaKids.sol\":1842:1849  uint256 */\n      0x00\n      swap3\n      sub(shl(0xa0, 0x01), 0x01)\n        /* \"MintNagaKids.sol\":1869:1885  nagaKidsContract */\n      and\n      swap2\n        /* \"MintNagaKids.sol\":1869:1895  nagaKidsContract.maxSupply */\n      0xd5abeb01\n      swap2\n        /* \"MintNagaKids.sol\":1869:1897  nagaKidsContract.maxSupply() */\n      0x04\n      dup1\n      dup4\n      add\n      swap3\n      0x20\n      swap3\n      swap2\n      swap1\n      dup3\n      swap1\n      sub\n      add\n      dup2\n        /* \"MintNagaKids.sol\":1869:1885  nagaKidsContract */\n      dup7\n        /* \"MintNagaKids.sol\":1869:1897  nagaKidsContract.maxSupply() */\n      gas\n      staticcall\n      iszero\n      dup1\n      iszero\n      tag_180\n      jumpi\n      returndatasize\n      0x00\n      dup1\n      returndatacopy\n      revert(0x00, returndatasize)\n    tag_180:\n      pop\n      pop\n      pop\n      pop\n      mload(0x40)\n      returndatasize\n      not(0x1f)\n      0x1f\n      dup3\n      add\n      and\n      dup3\n      add\n      dup1\n      0x40\n      mstore\n      pop\n      dup2\n      add\n      swap1\n      tag_181\n      swap2\n      swap1\n      tag_149\n      jump\t// in\n    tag_181:\n        /* \"MintNagaKids.sol\":1862:1897  return nagaKidsContract.maxSupply() */\n      swap1\n      pop\n        /* \"MintNagaKids.sol\":1797:1905  function getMaxSupply() public view returns (uint256) {... */\n      swap1\n      jump\t// out\n        /* \"MintNagaKids.sol\":688:827  function changeNagaKidsContract(INagaKidsNFT _nagaKids) public onlyRole(DEFAULT_ADMIN_ROLE) {... */\n    tag_75:\n        /* \"@openzeppelin/contracts/access/AccessControl.sol\":2072:2076  0x00 */\n      0x00\n        /* \"@openzeppelin/contracts/access/AccessControl.sol\":2505:2521  _checkRole(role) */\n      tag_184\n        /* \"@openzeppelin/contracts/access/AccessControl.sol\":2072:2076  0x00 */\n      dup2\n        /* \"@openzeppelin/contracts/access/AccessControl.sol\":2505:2515  _checkRole */\n      tag_127\n        /* \"@openzeppelin/contracts/access/AccessControl.sol\":2505:2521  _checkRole(role) */\n      jump\t// in\n    tag_184:\n      pop\n        /* \"MintNagaKids.sol\":791:807  nagaKidsContract */\n      0x03\n        /* \"MintNagaKids.sol\":791:819  nagaKidsContract = _nagaKids */\n      dup1\n      sload\n      not(sub(shl(0xa0, 0x01), 0x01))\n      and\n      sub(shl(0xa0, 0x01), 0x01)\n      swap3\n      swap1\n      swap3\n      and\n      swap2\n      swap1\n      swap2\n      or\n      swap1\n      sstore\n        /* \"MintNagaKids.sol\":688:827  function changeNagaKidsContract(INagaKidsNFT _nagaKids) public onlyRole(DEFAULT_ADMIN_ROLE) {... */\n      jump\t// out\n        /* \"MintNagaKids.sol\":1103:1226  function setMerkleRoot(bytes32 _merkleRoot) public onlyRole(DEFAULT_ADMIN_ROLE) {... */\n    tag_79:\n        /* \"@openzeppelin/contracts/access/AccessControl.sol\":2072:2076  0x00 */\n      0x00\n        /* \"@openzeppelin/contracts/access/AccessControl.sol\":2505:2521  _checkRole(role) */\n      tag_187\n        /* \"@openzeppelin/contracts/access/AccessControl.sol\":2072:2076  0x00 */\n      dup2\n        /* \"@openzeppelin/contracts/access/AccessControl.sol\":2505:2515  _checkRole */\n      tag_127\n        /* \"@openzeppelin/contracts/access/AccessControl.sol\":2505:2521  _checkRole(role) */\n      jump\t// in\n    tag_187:\n      pop\n        /* \"MintNagaKids.sol\":1194:1204  merkleRoot */\n      0x00\n        /* \"MintNagaKids.sol\":1194:1218  merkleRoot = _merkleRoot */\n      sstore\n        /* \"MintNagaKids.sol\":1103:1226  function setMerkleRoot(bytes32 _merkleRoot) public onlyRole(DEFAULT_ADMIN_ROLE) {... */\n      jump\t// out\n        /* \"@openzeppelin/contracts/access/AccessControl.sol\":2895:3040  function hasRole(bytes32 role, address account) public view virtual override returns (bool) {... */\n    tag_83:\n        /* \"@openzeppelin/contracts/access/AccessControl.sol\":2981:2985  bool */\n      0x00\n        /* \"@openzeppelin/contracts/access/AccessControl.sol\":3004:3016  _roles[role] */\n      swap2\n      dup3\n      mstore\n        /* \"@openzeppelin/contracts/access/AccessControl.sol\":3004:3010  _roles */\n      0x01\n        /* \"@openzeppelin/contracts/access/AccessControl.sol\":3004:3016  _roles[role] */\n      0x20\n      swap1\n      dup2\n      mstore\n      0x40\n      dup1\n      dup5\n      keccak256\n      sub(shl(0xa0, 0x01), 0x01)\n        /* \"@openzeppelin/contracts/access/AccessControl.sol\":3004:3033  _roles[role].members[account] */\n      swap4\n      swap1\n      swap4\n      and\n      dup5\n      mstore\n      swap2\n      swap1\n      mstore\n      swap1\n      keccak256\n      sload\n      0xff\n      and\n      swap1\n        /* \"@openzeppelin/contracts/access/AccessControl.sol\":2895:3040  function hasRole(bytes32 role, address account) public view virtual override returns (bool) {... */\n      jump\t// out\n        /* \"MintNagaKids.sol\":1677:1789  function getTotalSupply() public view returns (uint256) {... */\n    tag_99:\n        /* \"MintNagaKids.sol\":1751:1767  nagaKidsContract */\n      sload(0x03)\n        /* \"MintNagaKids.sol\":1751:1781  nagaKidsContract.totalSupply() */\n      0x40\n      dup1\n      mload\n      shl(0xe0, 0x18160ddd)\n      dup2\n      mstore\n      swap1\n      mload\n        /* \"MintNagaKids.sol\":1724:1731  uint256 */\n      0x00\n      swap3\n      sub(shl(0xa0, 0x01), 0x01)\n        /* \"MintNagaKids.sol\":1751:1767  nagaKidsContract */\n      and\n      swap2\n        /* \"MintNagaKids.sol\":1751:1779  nagaKidsContract.totalSupply */\n      0x18160ddd\n      swap2\n        /* \"MintNagaKids.sol\":1751:1781  nagaKidsContract.totalSupply() */\n      0x04\n      dup1\n      dup4\n      add\n      swap3\n      0x20\n      swap3\n      swap2\n      swap1\n      dup3\n      swap1\n      sub\n      add\n      dup2\n        /* \"MintNagaKids.sol\":1751:1767  nagaKidsContract */\n      dup7\n        /* \"MintNagaKids.sol\":1751:1781  nagaKidsContract.totalSupply() */\n      gas\n      staticcall\n      iszero\n      dup1\n      iszero\n      tag_180\n      jumpi\n      returndatasize\n      0x00\n      dup1\n      returndatacopy\n      revert(0x00, returndatasize)\n        /* \"@openzeppelin/contracts/access/AccessControl.sol\":5149:5296  function revokeRole(bytes32 role, address account) public virtual override onlyRole(getRoleAdmin(role)) {... */\n    tag_104:\n        /* \"@openzeppelin/contracts/access/AccessControl.sol\":4465:4472  bytes32 */\n      0x00\n        /* \"@openzeppelin/contracts/access/AccessControl.sol\":4491:4503  _roles[role] */\n      dup3\n      dup2\n      mstore\n        /* \"@openzeppelin/contracts/access/AccessControl.sol\":4491:4497  _roles */\n      0x01\n        /* \"@openzeppelin/contracts/access/AccessControl.sol\":4491:4503  _roles[role] */\n      0x20\n      dup2\n      swap1\n      mstore\n      0x40\n      swap1\n      swap2\n      keccak256\n        /* \"@openzeppelin/contracts/access/AccessControl.sol\":4491:4513  _roles[role].adminRole */\n      add\n      sload\n        /* \"@openzeppelin/contracts/access/AccessControl.sol\":2505:2521  _checkRole(role) */\n      tag_196\n        /* \"@openzeppelin/contracts/access/AccessControl.sol\":2516:2520  role */\n      dup2\n        /* \"@openzeppelin/contracts/access/AccessControl.sol\":2505:2515  _checkRole */\n      tag_127\n        /* \"@openzeppelin/contracts/access/AccessControl.sol\":2505:2521  _checkRole(role) */\n      jump\t// in\n    tag_196:\n        /* \"@openzeppelin/contracts/access/AccessControl.sol\":5263:5289  _revokeRole(role, account) */\n      tag_168\n        /* \"@openzeppelin/contracts/access/AccessControl.sol\":5275:5279  role */\n      dup4\n        /* \"@openzeppelin/contracts/access/AccessControl.sol\":5281:5288  account */\n      dup4\n        /* \"@openzeppelin/contracts/access/AccessControl.sol\":5263:5274  _revokeRole */\n      tag_177\n        /* \"@openzeppelin/contracts/access/AccessControl.sol\":5263:5289  _revokeRole(role, account) */\n      jump\t// in\n        /* \"MintNagaKids.sol\":835:962  function changeWhitelistMintOpen(bool _isOpen) public onlyRole(DEFAULT_ADMIN_ROLE) {... */\n    tag_108:\n        /* \"@openzeppelin/contracts/access/AccessControl.sol\":2072:2076  0x00 */\n      0x00\n        /* \"@openzeppelin/contracts/access/AccessControl.sol\":2505:2521  _checkRole(role) */\n      tag_200\n        /* \"@openzeppelin/contracts/access/AccessControl.sol\":2072:2076  0x00 */\n      dup2\n        /* \"@openzeppelin/contracts/access/AccessControl.sol\":2505:2515  _checkRole */\n      tag_127\n        /* \"@openzeppelin/contracts/access/AccessControl.sol\":2505:2521  _checkRole(role) */\n      jump\t// in\n    tag_200:\n      pop\n        /* \"MintNagaKids.sol\":929:944  isWhitelistOpen */\n      0x03\n        /* \"MintNagaKids.sol\":929:954  isWhitelistOpen = _isOpen */\n      dup1\n      sload\n      swap2\n      iszero\n      iszero\n      shl(0xa8, 0x01)\n      mul\n      not(shl(0xa8, 0xff))\n      swap1\n      swap3\n      and\n      swap2\n      swap1\n      swap2\n      or\n      swap1\n      sstore\n        /* \"MintNagaKids.sol\":835:962  function changeWhitelistMintOpen(bool _isOpen) public onlyRole(DEFAULT_ADMIN_ROLE) {... */\n      jump\t// out\n        /* \"Whitelist.sol\":195:604  function isWhitelist(... */\n    tag_113:\n        /* \"Whitelist.sol\":335:339  bool */\n      0x00\n        /* \"Whitelist.sol\":356:366  merkleRoot */\n      dup1\n      sload\n        /* \"Whitelist.sol\":356:371  merkleRoot == 0 */\n      dup2\n      sub\n        /* \"Whitelist.sol\":352:412  if (merkleRoot == 0) {... */\n      tag_203\n      jumpi\n      pop\n        /* \"Whitelist.sol\":395:400  false */\n      0x00\n        /* \"Whitelist.sol\":388:400  return false */\n      jump(tag_202)\n        /* \"Whitelist.sol\":352:412  if (merkleRoot == 0) {... */\n    tag_203:\n        /* \"Whitelist.sol\":444:596  MerkleProof.verify(... */\n      tag_204\n        /* \"Whitelist.sol\":481:487  _proof */\n      dup6\n      dup6\n        /* \"Whitelist.sol\":444:596  MerkleProof.verify(... */\n      dup1\n      dup1\n      0x20\n      mul\n      0x20\n      add\n      mload(0x40)\n      swap1\n      dup2\n      add\n      0x40\n      mstore\n      dup1\n      swap4\n      swap3\n      swap2\n      swap1\n      dup2\n      dup2\n      mstore\n      0x20\n      add\n      dup4\n      dup4\n      0x20\n      mul\n      dup1\n      dup3\n      dup5\n      calldatacopy\n      0x00\n      swap3\n      add\n      dup3\n      swap1\n      mstore\n      pop\n        /* \"Whitelist.sol\":506:516  merkleRoot */\n      sload\n        /* \"Whitelist.sol\":545:580  abi.encodePacked(_address, _amount) */\n      mload(0x40)\n      not(0xffffffffffffffffffffffff)\n        /* \"#utility.yul\":8046:8048   */\n      0x60\n        /* \"#utility.yul\":8042:8057   */\n      dup12\n      swap1\n      shl\n        /* \"#utility.yul\":8038:8091   */\n      and\n        /* \"Whitelist.sol\":545:580  abi.encodePacked(_address, _amount) */\n      0x20\n      dup3\n      add\n        /* \"#utility.yul\":8026:8092   */\n      mstore\n        /* \"#utility.yul\":8108:8120   */\n      0x34\n      dup2\n      add\n        /* \"#utility.yul\":8101:8129   */\n      dup10\n      swap1\n      mstore\n        /* \"Whitelist.sol\":506:516  merkleRoot */\n      swap1\n      swap4\n      pop\n        /* \"#utility.yul\":8145:8157   */\n      0x54\n      add\n      swap2\n      pop\n        /* \"Whitelist.sol\":545:580  abi.encodePacked(_address, _amount) */\n      tag_205\n      swap1\n      pop\n        /* \"#utility.yul\":7869:8163   */\n      jump\n        /* \"Whitelist.sol\":545:580  abi.encodePacked(_address, _amount) */\n    tag_205:\n      mload(0x40)\n      0x20\n      dup2\n      dup4\n      sub\n      sub\n      dup2\n      mstore\n      swap1\n      0x40\n      mstore\n        /* \"Whitelist.sol\":535:581  keccak256(abi.encodePacked(_address, _amount)) */\n      dup1\n      mload\n      swap1\n      0x20\n      add\n      keccak256\n        /* \"Whitelist.sol\":444:462  MerkleProof.verify */\n      tag_207\n        /* \"Whitelist.sol\":444:596  MerkleProof.verify(... */\n      jump\t// in\n    tag_204:\n        /* \"Whitelist.sol\":424:596  return... */\n      swap1\n      pop\n        /* \"Whitelist.sol\":195:604  function isWhitelist(... */\n    tag_202:\n      swap5\n      swap4\n      pop\n      pop\n      pop\n      pop\n      jump\t// out\n        /* \"MintNagaKids.sol\":1913:2010  function isPause() public view returns (bool) {... */\n    tag_117:\n        /* \"MintNagaKids.sol\":1977:1993  nagaKidsContract */\n      sload(0x03)\n        /* \"MintNagaKids.sol\":1977:2002  nagaKidsContract.paused() */\n      0x40\n      dup1\n      mload\n      shl(0xe0, 0x5c975abb)\n      dup2\n      mstore\n      swap1\n      mload\n        /* \"MintNagaKids.sol\":1953:1957  bool */\n      0x00\n      swap3\n      sub(shl(0xa0, 0x01), 0x01)\n        /* \"MintNagaKids.sol\":1977:1993  nagaKidsContract */\n      and\n      swap2\n        /* \"MintNagaKids.sol\":1977:2000  nagaKidsContract.paused */\n      0x5c975abb\n      swap2\n        /* \"MintNagaKids.sol\":1977:2002  nagaKidsContract.paused() */\n      0x04\n      dup1\n      dup4\n      add\n      swap3\n      0x20\n      swap3\n      swap2\n      swap1\n      dup3\n      swap1\n      sub\n      add\n      dup2\n        /* \"MintNagaKids.sol\":1977:1993  nagaKidsContract */\n      dup7\n        /* \"MintNagaKids.sol\":1977:2002  nagaKidsContract.paused() */\n      gas\n      staticcall\n      iszero\n      dup1\n      iszero\n      tag_210\n      jumpi\n      returndatasize\n      0x00\n      dup1\n      returndatacopy\n      revert(0x00, returndatasize)\n    tag_210:\n      pop\n      pop\n      pop\n      pop\n      mload(0x40)\n      returndatasize\n      not(0x1f)\n      0x1f\n      dup3\n      add\n      and\n      dup3\n      add\n      dup1\n      0x40\n      mstore\n      pop\n      dup2\n      add\n      swap1\n      tag_181\n      swap2\n      swap1\n      tag_155\n      jump\t// in\n        /* \"@openzeppelin/contracts/utils/Strings.sol\":1588:2029  function toHexString(uint256 value, uint256 length) internal pure returns (string memory) {... */\n    tag_119:\n        /* \"@openzeppelin/contracts/utils/Strings.sol\":1663:1676  string memory */\n      0x60\n        /* \"@openzeppelin/contracts/utils/Strings.sol\":1688:1707  bytes memory buffer */\n      0x00\n        /* \"@openzeppelin/contracts/utils/Strings.sol\":1720:1730  2 * length */\n      tag_213\n        /* \"@openzeppelin/contracts/utils/Strings.sol\":1724:1730  length */\n      dup4\n        /* \"@openzeppelin/contracts/utils/Strings.sol\":1720:1721  2 */\n      0x02\n        /* \"@openzeppelin/contracts/utils/Strings.sol\":1720:1730  2 * length */\n      tag_214\n      jump\t// in\n    tag_213:\n        /* \"@openzeppelin/contracts/utils/Strings.sol\":1720:1734  2 * length + 2 */\n      tag_215\n      swap1\n        /* \"@openzeppelin/contracts/utils/Strings.sol\":1733:1734  2 */\n      0x02\n        /* \"@openzeppelin/contracts/utils/Strings.sol\":1720:1734  2 * length + 2 */\n      tag_216\n      jump\t// in\n    tag_215:\n        /* \"@openzeppelin/contracts/utils/Strings.sol\":1710:1735  new bytes(2 * length + 2) */\n      0xffffffffffffffff\n      dup2\n      gt\n      iszero\n      tag_218\n      jumpi\n      tag_218\n      tag_219\n      jump\t// in\n    tag_218:\n      mload(0x40)\n      swap1\n      dup1\n      dup3\n      mstore\n      dup1\n      0x1f\n      add\n      not(0x1f)\n      and\n      0x20\n      add\n      dup3\n      add\n      0x40\n      mstore\n      dup1\n      iszero\n      tag_220\n      jumpi\n      0x20\n      dup3\n      add\n      dup2\n      dup1\n      calldatasize\n      dup4\n      calldatacopy\n      add\n      swap1\n      pop\n    tag_220:\n      pop\n        /* \"@openzeppelin/contracts/utils/Strings.sol\":1688:1735  bytes memory buffer = new bytes(2 * length + 2) */\n      swap1\n      pop\n      shl(0xfc, 0x03)\n        /* \"@openzeppelin/contracts/utils/Strings.sol\":1745:1751  buffer */\n      dup2\n        /* \"@openzeppelin/contracts/utils/Strings.sol\":1752:1753  0 */\n      0x00\n        /* \"@openzeppelin/contracts/utils/Strings.sol\":1745:1754  buffer[0] */\n      dup2\n      mload\n      dup2\n      lt\n      tag_222\n      jumpi\n      tag_222\n      tag_223\n      jump\t// in\n    tag_222:\n      0x20\n      add\n      add\n        /* \"@openzeppelin/contracts/utils/Strings.sol\":1745:1760  buffer[0] = \"0\" */\n      swap1\n      not(sub(shl(0xf8, 0x01), 0x01))\n      and\n      swap1\n      dup2\n      0x00\n      byte\n      swap1\n      mstore8\n      pop\n      shl(0xfb, 0x0f)\n        /* \"@openzeppelin/contracts/utils/Strings.sol\":1770:1776  buffer */\n      dup2\n        /* \"@openzeppelin/contracts/utils/Strings.sol\":1777:1778  1 */\n      0x01\n        /* \"@openzeppelin/contracts/utils/Strings.sol\":1770:1779  buffer[1] */\n      dup2\n      mload\n      dup2\n      lt\n      tag_225\n      jumpi\n      tag_225\n      tag_223\n      jump\t// in\n    tag_225:\n      0x20\n      add\n      add\n        /* \"@openzeppelin/contracts/utils/Strings.sol\":1770:1785  buffer[1] = \"x\" */\n      swap1\n      not(sub(shl(0xf8, 0x01), 0x01))\n      and\n      swap1\n      dup2\n      0x00\n      byte\n      swap1\n      mstore8\n      pop\n        /* \"@openzeppelin/contracts/utils/Strings.sol\":1800:1809  uint256 i */\n      0x00\n        /* \"@openzeppelin/contracts/utils/Strings.sol\":1812:1822  2 * length */\n      tag_229\n        /* \"@openzeppelin/contracts/utils/Strings.sol\":1816:1822  length */\n      dup5\n        /* \"@openzeppelin/contracts/utils/Strings.sol\":1812:1813  2 */\n      0x02\n        /* \"@openzeppelin/contracts/utils/Strings.sol\":1812:1822  2 * length */\n      tag_214\n      jump\t// in\n    tag_229:\n        /* \"@openzeppelin/contracts/utils/Strings.sol\":1812:1826  2 * length + 1 */\n      tag_230\n      swap1\n        /* \"@openzeppelin/contracts/utils/Strings.sol\":1825:1826  1 */\n      0x01\n        /* \"@openzeppelin/contracts/utils/Strings.sol\":1812:1826  2 * length + 1 */\n      tag_216\n      jump\t// in\n    tag_230:\n        /* \"@openzeppelin/contracts/utils/Strings.sol\":1800:1826  uint256 i = 2 * length + 1 */\n      swap1\n      pop\n        /* \"@openzeppelin/contracts/utils/Strings.sol\":1795:1927  for (uint256 i = 2 * length + 1; i > 1; --i) {... */\n    tag_226:\n        /* \"@openzeppelin/contracts/utils/Strings.sol\":1832:1833  1 */\n      0x01\n        /* \"@openzeppelin/contracts/utils/Strings.sol\":1828:1829  i */\n      dup2\n        /* \"@openzeppelin/contracts/utils/Strings.sol\":1828:1833  i > 1 */\n      gt\n        /* \"@openzeppelin/contracts/utils/Strings.sol\":1795:1927  for (uint256 i = 2 * length + 1; i > 1; --i) {... */\n      iszero\n      tag_227\n      jumpi\n      shl(0x81, 0x181899199a1a9b1b9c1cb0b131b232b3)\n        /* \"@openzeppelin/contracts/utils/Strings.sol\":1879:1884  value */\n      dup6\n        /* \"@openzeppelin/contracts/utils/Strings.sol\":1887:1890  0xf */\n      0x0f\n        /* \"@openzeppelin/contracts/utils/Strings.sol\":1879:1890  value & 0xf */\n      and\n        /* \"@openzeppelin/contracts/utils/Strings.sol\":1866:1891  _HEX_SYMBOLS[value & 0xf] */\n      0x10\n      dup2\n      lt\n      tag_232\n      jumpi\n      tag_232\n      tag_223\n      jump\t// in\n    tag_232:\n      byte\n      0xf8\n      shl\n        /* \"@openzeppelin/contracts/utils/Strings.sol\":1854:1860  buffer */\n      dup3\n        /* \"@openzeppelin/contracts/utils/Strings.sol\":1861:1862  i */\n      dup3\n        /* \"@openzeppelin/contracts/utils/Strings.sol\":1854:1863  buffer[i] */\n      dup2\n      mload\n      dup2\n      lt\n      tag_234\n      jumpi\n      tag_234\n      tag_223\n      jump\t// in\n    tag_234:\n      0x20\n      add\n      add\n        /* \"@openzeppelin/contracts/utils/Strings.sol\":1854:1891  buffer[i] = _HEX_SYMBOLS[value & 0xf] */\n      swap1\n      not(sub(shl(0xf8, 0x01), 0x01))\n      and\n      swap1\n      dup2\n      0x00\n      byte\n      swap1\n      mstore8\n      pop\n        /* \"@openzeppelin/contracts/utils/Strings.sol\":1915:1916  4 */\n      0x04\n        /* \"@openzeppelin/contracts/utils/Strings.sol\":1905:1916  value >>= 4 */\n      swap5\n      swap1\n      swap5\n      shr\n      swap4\n        /* \"@openzeppelin/contracts/utils/Strings.sol\":1835:1838  --i */\n      tag_235\n      dup2\n      tag_236\n      jump\t// in\n    tag_235:\n      swap1\n      pop\n        /* \"@openzeppelin/contracts/utils/Strings.sol\":1795:1927  for (uint256 i = 2 * length + 1; i > 1; --i) {... */\n      jump(tag_226)\n    tag_227:\n      pop\n        /* \"@openzeppelin/contracts/utils/Strings.sol\":1944:1954  value == 0 */\n      dup4\n      iszero\n        /* \"@openzeppelin/contracts/utils/Strings.sol\":1936:1991  require(value == 0, \"Strings: hex length insufficient\") */\n      tag_237\n      jumpi\n      mload(0x40)\n      shl(0xe5, 0x461bcd)\n      dup2\n      mstore\n        /* \"#utility.yul\":9081:9083   */\n      0x20\n        /* \"@openzeppelin/contracts/utils/Strings.sol\":1936:1991  require(value == 0, \"Strings: hex length insufficient\") */\n      0x04\n      dup3\n      add\n        /* \"#utility.yul\":9063:9084   */\n      dup2\n      swap1\n      mstore\n        /* \"#utility.yul\":9100:9118   */\n      0x24\n      dup3\n      add\n        /* \"#utility.yul\":9093:9123   */\n      mstore\n        /* \"#utility.yul\":9159:9193   */\n      0x537472696e67733a20686578206c656e67746820696e73756666696369656e74\n        /* \"#utility.yul\":9139:9157   */\n      0x44\n      dup3\n      add\n        /* \"#utility.yul\":9132:9194   */\n      mstore\n        /* \"#utility.yul\":9211:9229   */\n      0x64\n      add\n        /* \"@openzeppelin/contracts/utils/Strings.sol\":1936:1991  require(value == 0, \"Strings: hex length insufficient\") */\n      tag_131\n        /* \"#utility.yul\":8879:9235   */\n      jump\n        /* \"@openzeppelin/contracts/utils/Strings.sol\":1936:1991  require(value == 0, \"Strings: hex length insufficient\") */\n    tag_237:\n        /* \"@openzeppelin/contracts/utils/Strings.sol\":2015:2021  buffer */\n      swap4\n        /* \"@openzeppelin/contracts/utils/Strings.sol\":1588:2029  function toHexString(uint256 value, uint256 length) internal pure returns (string memory) {... */\n      swap3\n      pop\n      pop\n      pop\n      jump\t// out\n        /* \"@openzeppelin/contracts/access/AccessControl.sol\":3334:3437  function _checkRole(bytes32 role) internal view virtual {... */\n    tag_127:\n        /* \"@openzeppelin/contracts/access/AccessControl.sol\":3400:3430  _checkRole(role, _msgSender()) */\n      tag_242\n        /* \"@openzeppelin/contracts/access/AccessControl.sol\":3411:3415  role */\n      dup2\n        /* \"@openzeppelin/contracts/utils/Context.sol\":719:729  msg.sender */\n      caller\n        /* \"@openzeppelin/contracts/access/AccessControl.sol\":3400:3410  _checkRole */\n      tag_244\n        /* \"@openzeppelin/contracts/access/AccessControl.sol\":3400:3430  _checkRole(role, _msgSender()) */\n      jump\t// in\n    tag_242:\n        /* \"@openzeppelin/contracts/access/AccessControl.sol\":3334:3437  function _checkRole(bytes32 role) internal view virtual {... */\n      pop\n      jump\t// out\n        /* \"@openzeppelin/contracts/access/AccessControl.sol\":7244:7477  function _grantRole(bytes32 role, address account) internal virtual {... */\n    tag_169:\n        /* \"@openzeppelin/contracts/access/AccessControl.sol\":7327:7349  hasRole(role, account) */\n      tag_246\n        /* \"@openzeppelin/contracts/access/AccessControl.sol\":7335:7339  role */\n      dup3\n        /* \"@openzeppelin/contracts/access/AccessControl.sol\":7341:7348  account */\n      dup3\n        /* \"@openzeppelin/contracts/access/AccessControl.sol\":7327:7334  hasRole */\n      tag_83\n        /* \"@openzeppelin/contracts/access/AccessControl.sol\":7327:7349  hasRole(role, account) */\n      jump\t// in\n    tag_246:\n        /* \"@openzeppelin/contracts/access/AccessControl.sol\":7322:7471  if (!hasRole(role, account)) {... */\n      tag_176\n      jumpi\n        /* \"@openzeppelin/contracts/access/AccessControl.sol\":7365:7377  _roles[role] */\n      0x00\n      dup3\n      dup2\n      mstore\n        /* \"@openzeppelin/contracts/access/AccessControl.sol\":7397:7401  true */\n      0x01\n        /* \"@openzeppelin/contracts/access/AccessControl.sol\":7365:7377  _roles[role] */\n      0x20\n      dup2\n      dup2\n      mstore\n      0x40\n      dup1\n      dup5\n      keccak256\n      sub(shl(0xa0, 0x01), 0x01)\n        /* \"@openzeppelin/contracts/access/AccessControl.sol\":7365:7394  _roles[role].members[account] */\n      dup7\n      and\n      dup1\n      dup7\n      mstore\n      swap3\n      mstore\n      dup1\n      dup5\n      keccak256\n        /* \"@openzeppelin/contracts/access/AccessControl.sol\":7365:7401  _roles[role].members[account] = true */\n      dup1\n      sload\n      not(0xff)\n      and\n      swap1\n      swap4\n      or\n      swap1\n      swap3\n      sstore\n        /* \"@openzeppelin/contracts/access/AccessControl.sol\":7420:7460  RoleGranted(role, account, _msgSender()) */\n      swap1\n      mload\n        /* \"@openzeppelin/contracts/utils/Context.sol\":719:729  msg.sender */\n      caller\n      swap3\n        /* \"@openzeppelin/contracts/access/AccessControl.sol\":7365:7377  _roles[role] */\n      dup6\n      swap2\n        /* \"@openzeppelin/contracts/access/AccessControl.sol\":7420:7460  RoleGranted(role, account, _msgSender()) */\n      0x2f8788117e7eff1d82e926ec794901d17c78024a50270940304540a733656f0d\n      swap2\n        /* \"@openzeppelin/contracts/access/AccessControl.sol\":7365:7377  _roles[role] */\n      swap1\n        /* \"@openzeppelin/contracts/access/AccessControl.sol\":7420:7460  RoleGranted(role, account, _msgSender()) */\n      log4\n        /* \"@openzeppelin/contracts/access/AccessControl.sol\":7244:7477  function _grantRole(bytes32 role, address account) internal virtual {... */\n      pop\n      pop\n      jump\t// out\n        /* \"@openzeppelin/contracts/access/AccessControl.sol\":7602:7836  function _revokeRole(bytes32 role, address account) internal virtual {... */\n    tag_177:\n        /* \"@openzeppelin/contracts/access/AccessControl.sol\":7685:7707  hasRole(role, account) */\n      tag_251\n        /* \"@openzeppelin/contracts/access/AccessControl.sol\":7693:7697  role */\n      dup3\n        /* \"@openzeppelin/contracts/access/AccessControl.sol\":7699:7706  account */\n      dup3\n        /* \"@openzeppelin/contracts/access/AccessControl.sol\":7685:7692  hasRole */\n      tag_83\n        /* \"@openzeppelin/contracts/access/AccessControl.sol\":7685:7707  hasRole(role, account) */\n      jump\t// in\n    tag_251:\n        /* \"@openzeppelin/contracts/access/AccessControl.sol\":7681:7830  if (hasRole(role, account)) {... */\n      iszero\n      tag_176\n      jumpi\n        /* \"@openzeppelin/contracts/access/AccessControl.sol\":7755:7760  false */\n      0x00\n        /* \"@openzeppelin/contracts/access/AccessControl.sol\":7723:7735  _roles[role] */\n      dup3\n      dup2\n      mstore\n        /* \"@openzeppelin/contracts/access/AccessControl.sol\":7723:7729  _roles */\n      0x01\n        /* \"@openzeppelin/contracts/access/AccessControl.sol\":7723:7735  _roles[role] */\n      0x20\n      swap1\n      dup2\n      mstore\n      0x40\n      dup1\n      dup4\n      keccak256\n      sub(shl(0xa0, 0x01), 0x01)\n        /* \"@openzeppelin/contracts/access/AccessControl.sol\":7723:7752  _roles[role].members[account] */\n      dup6\n      and\n      dup1\n      dup6\n      mstore\n      swap3\n      mstore\n      dup1\n      dup4\n      keccak256\n        /* \"@openzeppelin/contracts/access/AccessControl.sol\":7723:7760  _roles[role].members[account] = false */\n      dup1\n      sload\n      not(0xff)\n      and\n      swap1\n      sstore\n        /* \"@openzeppelin/contracts/access/AccessControl.sol\":7779:7819  RoleRevoked(role, account, _msgSender()) */\n      mload\n        /* \"@openzeppelin/contracts/utils/Context.sol\":719:729  msg.sender */\n      caller\n      swap3\n        /* \"@openzeppelin/contracts/access/AccessControl.sol\":7723:7735  _roles[role] */\n      dup6\n      swap2\n        /* \"@openzeppelin/contracts/access/AccessControl.sol\":7779:7819  RoleRevoked(role, account, _msgSender()) */\n      0xf6391f5c32d9c69d2a47ea670b442974b53935d1edc7fd64eb21e047a839171b\n      swap2\n        /* \"@openzeppelin/contracts/access/AccessControl.sol\":7755:7760  false */\n      swap1\n        /* \"@openzeppelin/contracts/access/AccessControl.sol\":7779:7819  RoleRevoked(role, account, _msgSender()) */\n      log4\n        /* \"@openzeppelin/contracts/access/AccessControl.sol\":7602:7836  function _revokeRole(bytes32 role, address account) internal virtual {... */\n      pop\n      pop\n      jump\t// out\n        /* \"@openzeppelin/contracts/utils/cryptography/MerkleProof.sol\":1154:1338  function verify(... */\n    tag_207:\n        /* \"@openzeppelin/contracts/utils/cryptography/MerkleProof.sol\":1275:1279  bool */\n      0x00\n        /* \"@openzeppelin/contracts/utils/cryptography/MerkleProof.sol\":1327:1331  root */\n      dup3\n        /* \"@openzeppelin/contracts/utils/cryptography/MerkleProof.sol\":1298:1323  processProof(proof, leaf) */\n      tag_255\n        /* \"@openzeppelin/contracts/utils/cryptography/MerkleProof.sol\":1311:1316  proof */\n      dup6\n        /* \"@openzeppelin/contracts/utils/cryptography/MerkleProof.sol\":1318:1322  leaf */\n      dup5\n        /* \"@openzeppelin/contracts/utils/cryptography/MerkleProof.sol\":1298:1310  processProof */\n      tag_256\n        /* \"@openzeppelin/contracts/utils/cryptography/MerkleProof.sol\":1298:1323  processProof(proof, leaf) */\n      jump\t// in\n    tag_255:\n        /* \"@openzeppelin/contracts/utils/cryptography/MerkleProof.sol\":1298:1331  processProof(proof, leaf) == root */\n      eq\n      swap5\n        /* \"@openzeppelin/contracts/utils/cryptography/MerkleProof.sol\":1154:1338  function verify(... */\n      swap4\n      pop\n      pop\n      pop\n      pop\n      jump\t// out\n        /* \"@openzeppelin/contracts/access/AccessControl.sol\":3718:4210  function _checkRole(bytes32 role, address account) internal view virtual {... */\n    tag_244:\n        /* \"@openzeppelin/contracts/access/AccessControl.sol\":3806:3828  hasRole(role, account) */\n      tag_258\n        /* \"@openzeppelin/contracts/access/AccessControl.sol\":3814:3818  role */\n      dup3\n        /* \"@openzeppelin/contracts/access/AccessControl.sol\":3820:3827  account */\n      dup3\n        /* \"@openzeppelin/contracts/access/AccessControl.sol\":3806:3813  hasRole */\n      tag_83\n        /* \"@openzeppelin/contracts/access/AccessControl.sol\":3806:3828  hasRole(role, account) */\n      jump\t// in\n    tag_258:\n        /* \"@openzeppelin/contracts/access/AccessControl.sol\":3801:4204  if (!hasRole(role, account)) {... */\n      tag_176\n      jumpi\n        /* \"@openzeppelin/contracts/access/AccessControl.sol\":3989:4030  Strings.toHexString(uint160(account), 20) */\n      tag_260\n        /* \"@openzeppelin/contracts/access/AccessControl.sol\":4017:4024  account */\n      dup2\n      sub(shl(0xa0, 0x01), 0x01)\n        /* \"@openzeppelin/contracts/access/AccessControl.sol\":3989:4030  Strings.toHexString(uint160(account), 20) */\n      and\n        /* \"@openzeppelin/contracts/access/AccessControl.sol\":4027:4029  20 */\n      0x14\n        /* \"@openzeppelin/contracts/access/AccessControl.sol\":3989:4008  Strings.toHexString */\n      tag_119\n        /* \"@openzeppelin/contracts/access/AccessControl.sol\":3989:4030  Strings.toHexString(uint160(account), 20) */\n      jump\t// in\n    tag_260:\n        /* \"@openzeppelin/contracts/access/AccessControl.sol\":4101:4139  Strings.toHexString(uint256(role), 32) */\n      tag_261\n        /* \"@openzeppelin/contracts/access/AccessControl.sol\":4129:4133  role */\n      dup4\n        /* \"@openzeppelin/contracts/access/AccessControl.sol\":4136:4138  32 */\n      0x20\n        /* \"@openzeppelin/contracts/access/AccessControl.sol\":4101:4120  Strings.toHexString */\n      tag_119\n        /* \"@openzeppelin/contracts/access/AccessControl.sol\":4101:4139  Strings.toHexString(uint256(role), 32) */\n      jump\t// in\n    tag_261:\n        /* \"@openzeppelin/contracts/access/AccessControl.sol\":3896:4161  abi.encodePacked(... */\n      add(0x20, mload(0x40))\n      tag_262\n      swap3\n      swap2\n      swap1\n      tag_263\n      jump\t// in\n    tag_262:\n      0x40\n      dup1\n      mload\n      not(0x1f)\n      dup2\n      dup5\n      sub\n      add\n      dup2\n      mstore\n      swap1\n      dup3\n      swap1\n      mstore\n      shl(0xe5, 0x461bcd)\n        /* \"@openzeppelin/contracts/access/AccessControl.sol\":3844:4193  revert(... */\n      dup3\n      mstore\n      tag_131\n      swap2\n      0x04\n      add\n      tag_265\n      jump\t// in\n        /* \"@openzeppelin/contracts/utils/cryptography/MerkleProof.sol\":1689:2351  function processProof(bytes32[] memory proof, bytes32 leaf) internal pure returns (bytes32) {... */\n    tag_256:\n        /* \"@openzeppelin/contracts/utils/cryptography/MerkleProof.sol\":1772:1779  bytes32 */\n      0x00\n        /* \"@openzeppelin/contracts/utils/cryptography/MerkleProof.sol\":1814:1818  leaf */\n      dup2\n        /* \"@openzeppelin/contracts/utils/cryptography/MerkleProof.sol\":1772:1779  bytes32 */\n      dup2\n        /* \"@openzeppelin/contracts/utils/cryptography/MerkleProof.sol\":1828:2316  for (uint256 i = 0; i < proof.length; i++) {... */\n    tag_267:\n        /* \"@openzeppelin/contracts/utils/cryptography/MerkleProof.sol\":1852:1857  proof */\n      dup5\n        /* \"@openzeppelin/contracts/utils/cryptography/MerkleProof.sol\":1852:1864  proof.length */\n      mload\n        /* \"@openzeppelin/contracts/utils/cryptography/MerkleProof.sol\":1848:1849  i */\n      dup2\n        /* \"@openzeppelin/contracts/utils/cryptography/MerkleProof.sol\":1848:1864  i < proof.length */\n      lt\n        /* \"@openzeppelin/contracts/utils/cryptography/MerkleProof.sol\":1828:2316  for (uint256 i = 0; i < proof.length; i++) {... */\n      iszero\n      tag_268\n      jumpi\n        /* \"@openzeppelin/contracts/utils/cryptography/MerkleProof.sol\":1885:1905  bytes32 proofElement */\n      0x00\n        /* \"@openzeppelin/contracts/utils/cryptography/MerkleProof.sol\":1908:1913  proof */\n      dup6\n        /* \"@openzeppelin/contracts/utils/cryptography/MerkleProof.sol\":1914:1915  i */\n      dup3\n        /* \"@openzeppelin/contracts/utils/cryptography/MerkleProof.sol\":1908:1916  proof[i] */\n      dup2\n      mload\n      dup2\n      lt\n      tag_271\n      jumpi\n      tag_271\n      tag_223\n      jump\t// in\n    tag_271:\n      0x20\n      mul\n      0x20\n      add\n      add\n      mload\n        /* \"@openzeppelin/contracts/utils/cryptography/MerkleProof.sol\":1885:1916  bytes32 proofElement = proof[i] */\n      swap1\n      pop\n        /* \"@openzeppelin/contracts/utils/cryptography/MerkleProof.sol\":1950:1962  proofElement */\n      dup1\n        /* \"@openzeppelin/contracts/utils/cryptography/MerkleProof.sol\":1934:1946  computedHash */\n      dup4\n        /* \"@openzeppelin/contracts/utils/cryptography/MerkleProof.sol\":1934:1962  computedHash <= proofElement */\n      gt\n        /* \"@openzeppelin/contracts/utils/cryptography/MerkleProof.sol\":1930:2306  if (computedHash <= proofElement) {... */\n      tag_272\n      jumpi\n        /* \"@openzeppelin/contracts/utils/cryptography/MerkleProof.sol\":2425:2438  bytes32 value */\n      0x00\n        /* \"@openzeppelin/contracts/utils/cryptography/MerkleProof.sol\":2473:2488  mstore(0x00, a) */\n      dup4\n      dup2\n      mstore\n        /* \"@openzeppelin/contracts/utils/cryptography/MerkleProof.sol\":2508:2512  0x20 */\n      0x20\n        /* \"@openzeppelin/contracts/utils/cryptography/MerkleProof.sol\":2501:2516  mstore(0x20, b) */\n      dup3\n      swap1\n      mstore\n        /* \"@openzeppelin/contracts/utils/cryptography/MerkleProof.sol\":2554:2558  0x40 */\n      0x40\n        /* \"@openzeppelin/contracts/utils/cryptography/MerkleProof.sol\":2538:2559  keccak256(0x00, 0x40) */\n      swap1\n      keccak256\n        /* \"@openzeppelin/contracts/utils/cryptography/MerkleProof.sol\":2060:2117  computedHash = _efficientHash(computedHash, proofElement) */\n      swap3\n      pop\n        /* \"@openzeppelin/contracts/utils/cryptography/MerkleProof.sol\":1930:2306  if (computedHash <= proofElement) {... */\n      jump(tag_275)\n    tag_272:\n        /* \"@openzeppelin/contracts/utils/cryptography/MerkleProof.sol\":2425:2438  bytes32 value */\n      0x00\n        /* \"@openzeppelin/contracts/utils/cryptography/MerkleProof.sol\":2473:2488  mstore(0x00, a) */\n      dup2\n      dup2\n      mstore\n        /* \"@openzeppelin/contracts/utils/cryptography/MerkleProof.sol\":2508:2512  0x20 */\n      0x20\n        /* \"@openzeppelin/contracts/utils/cryptography/MerkleProof.sol\":2501:2516  mstore(0x20, b) */\n      dup5\n      swap1\n      mstore\n        /* \"@openzeppelin/contracts/utils/cryptography/MerkleProof.sol\":2554:2558  0x40 */\n      0x40\n        /* \"@openzeppelin/contracts/utils/cryptography/MerkleProof.sol\":2538:2559  keccak256(0x00, 0x40) */\n      swap1\n      keccak256\n        /* \"@openzeppelin/contracts/utils/cryptography/MerkleProof.sol\":2234:2291  computedHash = _efficientHash(proofElement, computedHash) */\n      swap3\n      pop\n        /* \"@openzeppelin/contracts/utils/cryptography/MerkleProof.sol\":1930:2306  if (computedHash <= proofElement) {... */\n    tag_275:\n      pop\n        /* \"@openzeppelin/contracts/utils/cryptography/MerkleProof.sol\":1866:1869  i++ */\n      dup1\n      tag_277\n      dup2\n      tag_278\n      jump\t// in\n    tag_277:\n      swap2\n      pop\n      pop\n        /* \"@openzeppelin/contracts/utils/cryptography/MerkleProof.sol\":1828:2316  for (uint256 i = 0; i < proof.length; i++) {... */\n      jump(tag_267)\n    tag_268:\n      pop\n        /* \"@openzeppelin/contracts/utils/cryptography/MerkleProof.sol\":2332:2344  computedHash */\n      swap4\n        /* \"@openzeppelin/contracts/utils/cryptography/MerkleProof.sol\":1689:2351  function processProof(bytes32[] memory proof, bytes32 leaf) internal pure returns (bytes32) {... */\n      swap3\n      pop\n      pop\n      pop\n      jump\t// out\n        /* \"#utility.yul\":14:300   */\n    tag_28:\n        /* \"#utility.yul\":72:78   */\n      0x00\n        /* \"#utility.yul\":125:127   */\n      0x20\n        /* \"#utility.yul\":113:122   */\n      dup3\n        /* \"#utility.yul\":104:111   */\n      dup5\n        /* \"#utility.yul\":100:123   */\n      sub\n        /* \"#utility.yul\":96:128   */\n      slt\n        /* \"#utility.yul\":93:145   */\n      iszero\n      tag_286\n      jumpi\n        /* \"#utility.yul\":141:142   */\n      0x00\n        /* \"#utility.yul\":138:139   */\n      dup1\n        /* \"#utility.yul\":131:143   */\n      revert\n        /* \"#utility.yul\":93:145   */\n    tag_286:\n        /* \"#utility.yul\":167:190   */\n      dup2\n      calldataload\n      not(sub(shl(0xe0, 0x01), 0x01))\n        /* \"#utility.yul\":219:251   */\n      dup2\n      and\n        /* \"#utility.yul\":209:252   */\n      dup2\n      eq\n        /* \"#utility.yul\":199:270   */\n      tag_237\n      jumpi\n        /* \"#utility.yul\":266:267   */\n      0x00\n        /* \"#utility.yul\":263:264   */\n      dup1\n        /* \"#utility.yul\":256:268   */\n      revert\n        /* \"#utility.yul\":497:677   */\n    tag_35:\n        /* \"#utility.yul\":556:562   */\n      0x00\n        /* \"#utility.yul\":609:611   */\n      0x20\n        /* \"#utility.yul\":597:606   */\n      dup3\n        /* \"#utility.yul\":588:595   */\n      dup5\n        /* \"#utility.yul\":584:607   */\n      sub\n        /* \"#utility.yul\":580:612   */\n      slt\n        /* \"#utility.yul\":577:629   */\n      iszero\n      tag_290\n      jumpi\n        /* \"#utility.yul\":625:626   */\n      0x00\n        /* \"#utility.yul\":622:623   */\n      dup1\n        /* \"#utility.yul\":615:627   */\n      revert\n        /* \"#utility.yul\":577:629   */\n    tag_290:\n      pop\n        /* \"#utility.yul\":648:671   */\n      calldataload\n      swap2\n        /* \"#utility.yul\":497:677   */\n      swap1\n      pop\n      jump\t// out\n        /* \"#utility.yul\":1092:1210   */\n    tag_280:\n        /* \"#utility.yul\":1178:1183   */\n      dup1\n        /* \"#utility.yul\":1171:1184   */\n      iszero\n        /* \"#utility.yul\":1164:1185   */\n      iszero\n        /* \"#utility.yul\":1157:1162   */\n      dup2\n        /* \"#utility.yul\":1154:1186   */\n      eq\n        /* \"#utility.yul\":1144:1204   */\n      tag_242\n      jumpi\n        /* \"#utility.yul\":1200:1201   */\n      0x00\n        /* \"#utility.yul\":1197:1198   */\n      dup1\n        /* \"#utility.yul\":1190:1202   */\n      revert\n        /* \"#utility.yul\":1215:1456   */\n    tag_47:\n        /* \"#utility.yul\":1271:1277   */\n      0x00\n        /* \"#utility.yul\":1324:1326   */\n      0x20\n        /* \"#utility.yul\":1312:1321   */\n      dup3\n        /* \"#utility.yul\":1303:1310   */\n      dup5\n        /* \"#utility.yul\":1299:1322   */\n      sub\n        /* \"#utility.yul\":1295:1327   */\n      slt\n        /* \"#utility.yul\":1292:1344   */\n      iszero\n      tag_296\n      jumpi\n        /* \"#utility.yul\":1340:1341   */\n      0x00\n        /* \"#utility.yul\":1337:1338   */\n      dup1\n        /* \"#utility.yul\":1330:1342   */\n      revert\n        /* \"#utility.yul\":1292:1344   */\n    tag_296:\n        /* \"#utility.yul\":1379:1388   */\n      dup2\n        /* \"#utility.yul\":1366:1389   */\n      calldataload\n        /* \"#utility.yul\":1398:1426   */\n      tag_237\n        /* \"#utility.yul\":1420:1425   */\n      dup2\n        /* \"#utility.yul\":1398:1426   */\n      tag_280\n      jump\t// in\n        /* \"#utility.yul\":1461:1588   */\n    tag_219:\n        /* \"#utility.yul\":1522:1532   */\n      0x4e487b71\n        /* \"#utility.yul\":1517:1520   */\n      0xe0\n        /* \"#utility.yul\":1513:1533   */\n      shl\n        /* \"#utility.yul\":1510:1511   */\n      0x00\n        /* \"#utility.yul\":1503:1534   */\n      mstore\n        /* \"#utility.yul\":1553:1557   */\n      0x41\n        /* \"#utility.yul\":1550:1551   */\n      0x04\n        /* \"#utility.yul\":1543:1558   */\n      mstore\n        /* \"#utility.yul\":1577:1581   */\n      0x24\n        /* \"#utility.yul\":1574:1575   */\n      0x00\n        /* \"#utility.yul\":1567:1582   */\n      revert\n        /* \"#utility.yul\":1593:2778   */\n    tag_51:\n        /* \"#utility.yul\":1686:1692   */\n      0x00\n        /* \"#utility.yul\":1694:1700   */\n      dup1\n        /* \"#utility.yul\":1747:1749   */\n      0x40\n        /* \"#utility.yul\":1735:1744   */\n      dup4\n        /* \"#utility.yul\":1726:1733   */\n      dup6\n        /* \"#utility.yul\":1722:1745   */\n      sub\n        /* \"#utility.yul\":1718:1750   */\n      slt\n        /* \"#utility.yul\":1715:1767   */\n      iszero\n      tag_300\n      jumpi\n        /* \"#utility.yul\":1763:1764   */\n      0x00\n        /* \"#utility.yul\":1760:1761   */\n      dup1\n        /* \"#utility.yul\":1753:1765   */\n      revert\n        /* \"#utility.yul\":1715:1767   */\n    tag_300:\n        /* \"#utility.yul\":1803:1812   */\n      dup3\n        /* \"#utility.yul\":1790:1813   */\n      calldataload\n        /* \"#utility.yul\":1832:1850   */\n      0xffffffffffffffff\n        /* \"#utility.yul\":1873:1875   */\n      dup1\n        /* \"#utility.yul\":1865:1871   */\n      dup3\n        /* \"#utility.yul\":1862:1876   */\n      gt\n        /* \"#utility.yul\":1859:1893   */\n      iszero\n      tag_301\n      jumpi\n        /* \"#utility.yul\":1889:1890   */\n      0x00\n        /* \"#utility.yul\":1886:1887   */\n      dup1\n        /* \"#utility.yul\":1879:1891   */\n      revert\n        /* \"#utility.yul\":1859:1893   */\n    tag_301:\n        /* \"#utility.yul\":1927:1933   */\n      dup2\n        /* \"#utility.yul\":1916:1925   */\n      dup6\n        /* \"#utility.yul\":1912:1934   */\n      add\n        /* \"#utility.yul\":1902:1934   */\n      swap2\n      pop\n        /* \"#utility.yul\":1972:1979   */\n      dup6\n        /* \"#utility.yul\":1965:1969   */\n      0x1f\n        /* \"#utility.yul\":1961:1963   */\n      dup4\n        /* \"#utility.yul\":1957:1970   */\n      add\n        /* \"#utility.yul\":1953:1980   */\n      slt\n        /* \"#utility.yul\":1943:1998   */\n      tag_302\n      jumpi\n        /* \"#utility.yul\":1994:1995   */\n      0x00\n        /* \"#utility.yul\":1991:1992   */\n      dup1\n        /* \"#utility.yul\":1984:1996   */\n      revert\n        /* \"#utility.yul\":1943:1998   */\n    tag_302:\n        /* \"#utility.yul\":2030:2032   */\n      dup2\n        /* \"#utility.yul\":2017:2033   */\n      calldataload\n        /* \"#utility.yul\":2052:2056   */\n      0x20\n        /* \"#utility.yul\":2075:2077   */\n      dup3\n        /* \"#utility.yul\":2071:2073   */\n      dup3\n        /* \"#utility.yul\":2068:2078   */\n      gt\n        /* \"#utility.yul\":2065:2101   */\n      iszero\n      tag_304\n      jumpi\n        /* \"#utility.yul\":2081:2099   */\n      tag_304\n      tag_219\n      jump\t// in\n    tag_304:\n        /* \"#utility.yul\":2127:2129   */\n      dup2\n        /* \"#utility.yul\":2124:2125   */\n      0x05\n        /* \"#utility.yul\":2120:2130   */\n      shl\n        /* \"#utility.yul\":2159:2161   */\n      0x40\n        /* \"#utility.yul\":2153:2162   */\n      mload\n        /* \"#utility.yul\":2222:2224   */\n      0x1f\n        /* \"#utility.yul\":2218:2225   */\n      not\n        /* \"#utility.yul\":2213:2215   */\n      0x3f\n        /* \"#utility.yul\":2209:2211   */\n      dup4\n        /* \"#utility.yul\":2205:2216   */\n      add\n        /* \"#utility.yul\":2201:2226   */\n      and\n        /* \"#utility.yul\":2193:2199   */\n      dup2\n        /* \"#utility.yul\":2189:2227   */\n      add\n        /* \"#utility.yul\":2277:2283   */\n      dup2\n        /* \"#utility.yul\":2265:2275   */\n      dup2\n        /* \"#utility.yul\":2262:2284   */\n      lt\n        /* \"#utility.yul\":2257:2259   */\n      dup7\n        /* \"#utility.yul\":2245:2255   */\n      dup3\n        /* \"#utility.yul\":2242:2260   */\n      gt\n        /* \"#utility.yul\":2239:2285   */\n      or\n        /* \"#utility.yul\":2236:2308   */\n      iszero\n      tag_306\n      jumpi\n        /* \"#utility.yul\":2288:2306   */\n      tag_306\n      tag_219\n      jump\t// in\n    tag_306:\n        /* \"#utility.yul\":2324:2326   */\n      0x40\n        /* \"#utility.yul\":2317:2339   */\n      mstore\n        /* \"#utility.yul\":2374:2392   */\n      swap3\n      dup4\n      mstore\n        /* \"#utility.yul\":2408:2423   */\n      dup2\n      dup4\n      add\n      swap4\n      pop\n        /* \"#utility.yul\":2450:2461   */\n      dup5\n      dup2\n      add\n        /* \"#utility.yul\":2446:2466   */\n      dup3\n      add\n      swap3\n        /* \"#utility.yul\":2478:2497   */\n      dup10\n      dup5\n      gt\n        /* \"#utility.yul\":2475:2514   */\n      iszero\n      tag_307\n      jumpi\n        /* \"#utility.yul\":2510:2511   */\n      0x00\n        /* \"#utility.yul\":2507:2508   */\n      dup1\n        /* \"#utility.yul\":2500:2512   */\n      revert\n        /* \"#utility.yul\":2475:2514   */\n    tag_307:\n        /* \"#utility.yul\":2534:2545   */\n      swap5\n      dup3\n      add\n      swap5\n        /* \"#utility.yul\":2554:2696   */\n    tag_308:\n        /* \"#utility.yul\":2570:2576   */\n      dup4\n        /* \"#utility.yul\":2565:2568   */\n      dup7\n        /* \"#utility.yul\":2562:2577   */\n      lt\n        /* \"#utility.yul\":2554:2696   */\n      iszero\n      tag_310\n      jumpi\n        /* \"#utility.yul\":2636:2653   */\n      dup6\n      calldataload\n        /* \"#utility.yul\":2624:2654   */\n      dup6\n      mstore\n        /* \"#utility.yul\":2587:2599   */\n      swap5\n      dup3\n      add\n      swap5\n        /* \"#utility.yul\":2674:2686   */\n      swap4\n      dup3\n      add\n      swap4\n        /* \"#utility.yul\":2554:2696   */\n      jump(tag_308)\n    tag_310:\n        /* \"#utility.yul\":2715:2721   */\n      swap10\n        /* \"#utility.yul\":2753:2771   */\n      swap8\n      swap1\n      swap2\n      add\n        /* \"#utility.yul\":2740:2772   */\n      calldataload\n      swap8\n      pop\n      pop\n      pop\n      pop\n      pop\n      pop\n      pop\n        /* \"#utility.yul\":1593:2778   */\n      jump\t// out\n        /* \"#utility.yul\":2783:2914   */\n    tag_281:\n      sub(shl(0xa0, 0x01), 0x01)\n        /* \"#utility.yul\":2858:2889   */\n      dup2\n      and\n        /* \"#utility.yul\":2848:2890   */\n      dup2\n      eq\n        /* \"#utility.yul\":2838:2908   */\n      tag_242\n      jumpi\n        /* \"#utility.yul\":2904:2905   */\n      0x00\n        /* \"#utility.yul\":2901:2902   */\n      dup1\n        /* \"#utility.yul\":2894:2906   */\n      revert\n        /* \"#utility.yul\":2919:3234   */\n    tag_60:\n        /* \"#utility.yul\":2987:2993   */\n      0x00\n        /* \"#utility.yul\":2995:3001   */\n      dup1\n        /* \"#utility.yul\":3048:3050   */\n      0x40\n        /* \"#utility.yul\":3036:3045   */\n      dup4\n        /* \"#utility.yul\":3027:3034   */\n      dup6\n        /* \"#utility.yul\":3023:3046   */\n      sub\n        /* \"#utility.yul\":3019:3051   */\n      slt\n        /* \"#utility.yul\":3016:3068   */\n      iszero\n      tag_314\n      jumpi\n        /* \"#utility.yul\":3064:3065   */\n      0x00\n        /* \"#utility.yul\":3061:3062   */\n      dup1\n        /* \"#utility.yul\":3054:3066   */\n      revert\n        /* \"#utility.yul\":3016:3068   */\n    tag_314:\n        /* \"#utility.yul\":3100:3109   */\n      dup3\n        /* \"#utility.yul\":3087:3110   */\n      calldataload\n        /* \"#utility.yul\":3077:3110   */\n      swap2\n      pop\n        /* \"#utility.yul\":3160:3162   */\n      0x20\n        /* \"#utility.yul\":3149:3158   */\n      dup4\n        /* \"#utility.yul\":3145:3163   */\n      add\n        /* \"#utility.yul\":3132:3164   */\n      calldataload\n        /* \"#utility.yul\":3173:3204   */\n      tag_315\n        /* \"#utility.yul\":3198:3203   */\n      dup2\n        /* \"#utility.yul\":3173:3204   */\n      tag_281\n      jump\t// in\n    tag_315:\n        /* \"#utility.yul\":3223:3228   */\n      dup1\n        /* \"#utility.yul\":3213:3228   */\n      swap2\n      pop\n      pop\n        /* \"#utility.yul\":2919:3234   */\n      swap3\n      pop\n      swap3\n      swap1\n      pop\n      jump\t// out\n        /* \"#utility.yul\":3421:3688   */\n    tag_74:\n        /* \"#utility.yul\":3500:3506   */\n      0x00\n        /* \"#utility.yul\":3553:3555   */\n      0x20\n        /* \"#utility.yul\":3541:3550   */\n      dup3\n        /* \"#utility.yul\":3532:3539   */\n      dup5\n        /* \"#utility.yul\":3528:3551   */\n      sub\n        /* \"#utility.yul\":3524:3556   */\n      slt\n        /* \"#utility.yul\":3521:3573   */\n      iszero\n      tag_318\n      jumpi\n        /* \"#utility.yul\":3569:3570   */\n      0x00\n        /* \"#utility.yul\":3566:3567   */\n      dup1\n        /* \"#utility.yul\":3559:3571   */\n      revert\n        /* \"#utility.yul\":3521:3573   */\n    tag_318:\n        /* \"#utility.yul\":3608:3617   */\n      dup2\n        /* \"#utility.yul\":3595:3618   */\n      calldataload\n        /* \"#utility.yul\":3627:3658   */\n      tag_237\n        /* \"#utility.yul\":3652:3657   */\n      dup2\n        /* \"#utility.yul\":3627:3658   */\n      tag_281\n      jump\t// in\n        /* \"#utility.yul\":3693:4517   */\n    tag_112:\n        /* \"#utility.yul\":3797:3803   */\n      0x00\n        /* \"#utility.yul\":3805:3811   */\n      dup1\n        /* \"#utility.yul\":3813:3819   */\n      0x00\n        /* \"#utility.yul\":3821:3827   */\n      dup1\n        /* \"#utility.yul\":3874:3876   */\n      0x60\n        /* \"#utility.yul\":3862:3871   */\n      dup6\n        /* \"#utility.yul\":3853:3860   */\n      dup8\n        /* \"#utility.yul\":3849:3872   */\n      sub\n        /* \"#utility.yul\":3845:3877   */\n      slt\n        /* \"#utility.yul\":3842:3894   */\n      iszero\n      tag_321\n      jumpi\n        /* \"#utility.yul\":3890:3891   */\n      0x00\n        /* \"#utility.yul\":3887:3888   */\n      dup1\n        /* \"#utility.yul\":3880:3892   */\n      revert\n        /* \"#utility.yul\":3842:3894   */\n    tag_321:\n        /* \"#utility.yul\":3930:3939   */\n      dup5\n        /* \"#utility.yul\":3917:3940   */\n      calldataload\n        /* \"#utility.yul\":3959:3977   */\n      0xffffffffffffffff\n        /* \"#utility.yul\":4000:4002   */\n      dup1\n        /* \"#utility.yul\":3992:3998   */\n      dup3\n        /* \"#utility.yul\":3989:4003   */\n      gt\n        /* \"#utility.yul\":3986:4020   */\n      iszero\n      tag_322\n      jumpi\n        /* \"#utility.yul\":4016:4017   */\n      0x00\n        /* \"#utility.yul\":4013:4014   */\n      dup1\n        /* \"#utility.yul\":4006:4018   */\n      revert\n        /* \"#utility.yul\":3986:4020   */\n    tag_322:\n        /* \"#utility.yul\":4054:4060   */\n      dup2\n        /* \"#utility.yul\":4043:4052   */\n      dup8\n        /* \"#utility.yul\":4039:4061   */\n      add\n        /* \"#utility.yul\":4029:4061   */\n      swap2\n      pop\n        /* \"#utility.yul\":4099:4106   */\n      dup8\n        /* \"#utility.yul\":4092:4096   */\n      0x1f\n        /* \"#utility.yul\":4088:4090   */\n      dup4\n        /* \"#utility.yul\":4084:4097   */\n      add\n        /* \"#utility.yul\":4080:4107   */\n      slt\n        /* \"#utility.yul\":4070:4125   */\n      tag_323\n      jumpi\n        /* \"#utility.yul\":4121:4122   */\n      0x00\n        /* \"#utility.yul\":4118:4119   */\n      dup1\n        /* \"#utility.yul\":4111:4123   */\n      revert\n        /* \"#utility.yul\":4070:4125   */\n    tag_323:\n        /* \"#utility.yul\":4161:4163   */\n      dup2\n        /* \"#utility.yul\":4148:4164   */\n      calldataload\n        /* \"#utility.yul\":4187:4189   */\n      dup2\n        /* \"#utility.yul\":4179:4185   */\n      dup2\n        /* \"#utility.yul\":4176:4190   */\n      gt\n        /* \"#utility.yul\":4173:4207   */\n      iszero\n      tag_324\n      jumpi\n        /* \"#utility.yul\":4203:4204   */\n      0x00\n        /* \"#utility.yul\":4200:4201   */\n      dup1\n        /* \"#utility.yul\":4193:4205   */\n      revert\n        /* \"#utility.yul\":4173:4207   */\n    tag_324:\n        /* \"#utility.yul\":4258:4265   */\n      dup9\n        /* \"#utility.yul\":4251:4255   */\n      0x20\n        /* \"#utility.yul\":4241:4247   */\n      dup3\n        /* \"#utility.yul\":4238:4239   */\n      0x05\n        /* \"#utility.yul\":4234:4248   */\n      shl\n        /* \"#utility.yul\":4230:4232   */\n      dup6\n        /* \"#utility.yul\":4226:4249   */\n      add\n        /* \"#utility.yul\":4222:4256   */\n      add\n        /* \"#utility.yul\":4219:4266   */\n      gt\n        /* \"#utility.yul\":4216:4283   */\n      iszero\n      tag_325\n      jumpi\n        /* \"#utility.yul\":4279:4280   */\n      0x00\n        /* \"#utility.yul\":4276:4277   */\n      dup1\n        /* \"#utility.yul\":4269:4281   */\n      revert\n        /* \"#utility.yul\":4216:4283   */\n    tag_325:\n        /* \"#utility.yul\":4310:4314   */\n      0x20\n        /* \"#utility.yul\":4302:4315   */\n      swap3\n      dup4\n      add\n      swap7\n      pop\n        /* \"#utility.yul\":4334:4340   */\n      swap5\n      pop\n      pop\n        /* \"#utility.yul\":4375:4395   */\n      dup6\n      add\n        /* \"#utility.yul\":4362:4396   */\n      calldataload\n        /* \"#utility.yul\":4405:4436   */\n      tag_326\n        /* \"#utility.yul\":4362:4396   */\n      dup2\n        /* \"#utility.yul\":4405:4436   */\n      tag_281\n      jump\t// in\n    tag_326:\n        /* \"#utility.yul\":3693:4517   */\n      swap4\n      swap7\n      swap3\n      swap6\n      pop\n        /* \"#utility.yul\":4455:4460   */\n      swap3\n      swap4\n        /* \"#utility.yul\":4507:4509   */\n      0x40\n        /* \"#utility.yul\":4492:4510   */\n      add\n        /* \"#utility.yul\":4479:4511   */\n      calldataload\n      swap3\n      pop\n      pop\n        /* \"#utility.yul\":3693:4517   */\n      jump\t// out\n        /* \"#utility.yul\":5927:6111   */\n    tag_149:\n        /* \"#utility.yul\":5997:6003   */\n      0x00\n        /* \"#utility.yul\":6050:6052   */\n      0x20\n        /* \"#utility.yul\":6038:6047   */\n      dup3\n        /* \"#utility.yul\":6029:6036   */\n      dup5\n        /* \"#utility.yul\":6025:6048   */\n      sub\n        /* \"#utility.yul\":6021:6053   */\n      slt\n        /* \"#utility.yul\":6018:6070   */\n      iszero\n      tag_332\n      jumpi\n        /* \"#utility.yul\":6066:6067   */\n      0x00\n        /* \"#utility.yul\":6063:6064   */\n      dup1\n        /* \"#utility.yul\":6056:6068   */\n      revert\n        /* \"#utility.yul\":6018:6070   */\n    tag_332:\n      pop\n        /* \"#utility.yul\":6089:6105   */\n      mload\n      swap2\n        /* \"#utility.yul\":5927:6111   */\n      swap1\n      pop\n      jump\t// out\n        /* \"#utility.yul\":6395:6640   */\n    tag_155:\n        /* \"#utility.yul\":6462:6468   */\n      0x00\n        /* \"#utility.yul\":6515:6517   */\n      0x20\n        /* \"#utility.yul\":6503:6512   */\n      dup3\n        /* \"#utility.yul\":6494:6501   */\n      dup5\n        /* \"#utility.yul\":6490:6513   */\n      sub\n        /* \"#utility.yul\":6486:6518   */\n      slt\n        /* \"#utility.yul\":6483:6535   */\n      iszero\n      tag_335\n      jumpi\n        /* \"#utility.yul\":6531:6532   */\n      0x00\n        /* \"#utility.yul\":6528:6529   */\n      dup1\n        /* \"#utility.yul\":6521:6533   */\n      revert\n        /* \"#utility.yul\":6483:6535   */\n    tag_335:\n        /* \"#utility.yul\":6563:6572   */\n      dup2\n        /* \"#utility.yul\":6557:6573   */\n      mload\n        /* \"#utility.yul\":6582:6610   */\n      tag_237\n        /* \"#utility.yul\":6604:6609   */\n      dup2\n        /* \"#utility.yul\":6582:6610   */\n      tag_280\n      jump\t// in\n        /* \"#utility.yul\":8168:8295   */\n    tag_282:\n        /* \"#utility.yul\":8229:8239   */\n      0x4e487b71\n        /* \"#utility.yul\":8224:8227   */\n      0xe0\n        /* \"#utility.yul\":8220:8240   */\n      shl\n        /* \"#utility.yul\":8217:8218   */\n      0x00\n        /* \"#utility.yul\":8210:8241   */\n      mstore\n        /* \"#utility.yul\":8260:8264   */\n      0x11\n        /* \"#utility.yul\":8257:8258   */\n      0x04\n        /* \"#utility.yul\":8250:8265   */\n      mstore\n        /* \"#utility.yul\":8284:8288   */\n      0x24\n        /* \"#utility.yul\":8281:8282   */\n      0x00\n        /* \"#utility.yul\":8274:8289   */\n      revert\n        /* \"#utility.yul\":8300:8468   */\n    tag_214:\n        /* \"#utility.yul\":8340:8347   */\n      0x00\n        /* \"#utility.yul\":8406:8407   */\n      dup2\n        /* \"#utility.yul\":8402:8403   */\n      0x00\n        /* \"#utility.yul\":8398:8404   */\n      not\n        /* \"#utility.yul\":8394:8408   */\n      div\n        /* \"#utility.yul\":8391:8392   */\n      dup4\n        /* \"#utility.yul\":8388:8409   */\n      gt\n        /* \"#utility.yul\":8383:8384   */\n      dup3\n        /* \"#utility.yul\":8376:8385   */\n      iszero\n        /* \"#utility.yul\":8369:8386   */\n      iszero\n        /* \"#utility.yul\":8365:8410   */\n      and\n        /* \"#utility.yul\":8362:8433   */\n      iszero\n      tag_346\n      jumpi\n        /* \"#utility.yul\":8413:8431   */\n      tag_346\n      tag_282\n      jump\t// in\n    tag_346:\n      pop\n        /* \"#utility.yul\":8453:8462   */\n      mul\n      swap1\n        /* \"#utility.yul\":8300:8468   */\n      jump\t// out\n        /* \"#utility.yul\":8473:8601   */\n    tag_216:\n        /* \"#utility.yul\":8513:8516   */\n      0x00\n        /* \"#utility.yul\":8544:8545   */\n      dup3\n        /* \"#utility.yul\":8540:8546   */\n      not\n        /* \"#utility.yul\":8537:8538   */\n      dup3\n        /* \"#utility.yul\":8534:8547   */\n      gt\n        /* \"#utility.yul\":8531:8570   */\n      iszero\n      tag_349\n      jumpi\n        /* \"#utility.yul\":8550:8568   */\n      tag_349\n      tag_282\n      jump\t// in\n    tag_349:\n      pop\n        /* \"#utility.yul\":8586:8595   */\n      add\n      swap1\n        /* \"#utility.yul\":8473:8601   */\n      jump\t// out\n        /* \"#utility.yul\":8606:8733   */\n    tag_223:\n        /* \"#utility.yul\":8667:8677   */\n      0x4e487b71\n        /* \"#utility.yul\":8662:8665   */\n      0xe0\n        /* \"#utility.yul\":8658:8678   */\n      shl\n        /* \"#utility.yul\":8655:8656   */\n      0x00\n        /* \"#utility.yul\":8648:8679   */\n      mstore\n        /* \"#utility.yul\":8698:8702   */\n      0x32\n        /* \"#utility.yul\":8695:8696   */\n      0x04\n        /* \"#utility.yul\":8688:8703   */\n      mstore\n        /* \"#utility.yul\":8722:8726   */\n      0x24\n        /* \"#utility.yul\":8719:8720   */\n      0x00\n        /* \"#utility.yul\":8712:8727   */\n      revert\n        /* \"#utility.yul\":8738:8874   */\n    tag_236:\n        /* \"#utility.yul\":8777:8780   */\n      0x00\n        /* \"#utility.yul\":8805:8810   */\n      dup2\n        /* \"#utility.yul\":8795:8834   */\n      tag_353\n      jumpi\n        /* \"#utility.yul\":8814:8832   */\n      tag_353\n      tag_282\n      jump\t// in\n    tag_353:\n      pop\n      not(0x00)\n        /* \"#utility.yul\":8850:8868   */\n      add\n      swap1\n        /* \"#utility.yul\":8738:8874   */\n      jump\t// out\n        /* \"#utility.yul\":9240:9498   */\n    tag_283:\n        /* \"#utility.yul\":9312:9313   */\n      0x00\n        /* \"#utility.yul\":9322:9435   */\n    tag_356:\n        /* \"#utility.yul\":9336:9342   */\n      dup4\n        /* \"#utility.yul\":9333:9334   */\n      dup2\n        /* \"#utility.yul\":9330:9343   */\n      lt\n        /* \"#utility.yul\":9322:9435   */\n      iszero\n      tag_358\n      jumpi\n        /* \"#utility.yul\":9412:9423   */\n      dup2\n      dup2\n      add\n        /* \"#utility.yul\":9406:9424   */\n      mload\n        /* \"#utility.yul\":9393:9404   */\n      dup4\n      dup3\n      add\n        /* \"#utility.yul\":9386:9425   */\n      mstore\n        /* \"#utility.yul\":9358:9360   */\n      0x20\n        /* \"#utility.yul\":9351:9361   */\n      add\n        /* \"#utility.yul\":9322:9435   */\n      jump(tag_356)\n    tag_358:\n        /* \"#utility.yul\":9453:9459   */\n      dup4\n        /* \"#utility.yul\":9450:9451   */\n      dup2\n        /* \"#utility.yul\":9447:9460   */\n      gt\n        /* \"#utility.yul\":9444:9492   */\n      iszero\n      tag_359\n      jumpi\n        /* \"#utility.yul\":9488:9489   */\n      0x00\n        /* \"#utility.yul\":9479:9485   */\n      dup5\n        /* \"#utility.yul\":9474:9477   */\n      dup5\n        /* \"#utility.yul\":9470:9486   */\n      add\n        /* \"#utility.yul\":9463:9490   */\n      mstore\n        /* \"#utility.yul\":9444:9492   */\n    tag_359:\n      pop\n        /* \"#utility.yul\":9240:9498   */\n      pop\n      pop\n      pop\n      jump\t// out\n        /* \"#utility.yul\":9503:10289   */\n    tag_263:\n        /* \"#utility.yul\":9914:9939   */\n      0x416363657373436f6e74726f6c3a206163636f756e7420000000000000000000\n        /* \"#utility.yul\":9909:9912   */\n      dup2\n        /* \"#utility.yul\":9902:9940   */\n      mstore\n        /* \"#utility.yul\":9884:9887   */\n      0x00\n        /* \"#utility.yul\":9969:9975   */\n      dup4\n        /* \"#utility.yul\":9963:9976   */\n      mload\n        /* \"#utility.yul\":9985:10047   */\n      tag_361\n        /* \"#utility.yul\":10040:10046   */\n      dup2\n        /* \"#utility.yul\":10035:10037   */\n      0x17\n        /* \"#utility.yul\":10030:10033   */\n      dup6\n        /* \"#utility.yul\":10026:10038   */\n      add\n        /* \"#utility.yul\":10019:10023   */\n      0x20\n        /* \"#utility.yul\":10011:10017   */\n      dup9\n        /* \"#utility.yul\":10007:10024   */\n      add\n        /* \"#utility.yul\":9985:10047   */\n      tag_283\n      jump\t// in\n    tag_361:\n      shl(0x7d, 0x01034b99036b4b9b9b4b733903937b6329)\n        /* \"#utility.yul\":10106:10108   */\n      0x17\n        /* \"#utility.yul\":10066:10082   */\n      swap2\n      dup5\n      add\n        /* \"#utility.yul\":10098:10109   */\n      swap2\n      dup3\n      add\n        /* \"#utility.yul\":10091:10131   */\n      mstore\n        /* \"#utility.yul\":10156:10169   */\n      dup4\n      mload\n        /* \"#utility.yul\":10178:10241   */\n      tag_362\n        /* \"#utility.yul\":10156:10169   */\n      dup2\n        /* \"#utility.yul\":10227:10229   */\n      0x28\n        /* \"#utility.yul\":10219:10230   */\n      dup5\n      add\n        /* \"#utility.yul\":10212:10216   */\n      0x20\n        /* \"#utility.yul\":10200:10217   */\n      dup9\n      add\n        /* \"#utility.yul\":10178:10241   */\n      tag_283\n      jump\t// in\n    tag_362:\n        /* \"#utility.yul\":10261:10278   */\n      add\n        /* \"#utility.yul\":10280:10282   */\n      0x28\n        /* \"#utility.yul\":10257:10283   */\n      add\n      swap5\n        /* \"#utility.yul\":9503:10289   */\n      swap4\n      pop\n      pop\n      pop\n      pop\n      jump\t// out\n        /* \"#utility.yul\":10294:10677   */\n    tag_265:\n        /* \"#utility.yul\":10443:10445   */\n      0x20\n        /* \"#utility.yul\":10432:10441   */\n      dup2\n        /* \"#utility.yul\":10425:10446   */\n      mstore\n        /* \"#utility.yul\":10406:10410   */\n      0x00\n        /* \"#utility.yul\":10475:10481   */\n      dup3\n        /* \"#utility.yul\":10469:10482   */\n      mload\n        /* \"#utility.yul\":10518:10524   */\n      dup1\n        /* \"#utility.yul\":10513:10515   */\n      0x20\n        /* \"#utility.yul\":10502:10511   */\n      dup5\n        /* \"#utility.yul\":10498:10516   */\n      add\n        /* \"#utility.yul\":10491:10525   */\n      mstore\n        /* \"#utility.yul\":10534:10600   */\n      tag_364\n        /* \"#utility.yul\":10593:10599   */\n      dup2\n        /* \"#utility.yul\":10588:10590   */\n      0x40\n        /* \"#utility.yul\":10577:10586   */\n      dup6\n        /* \"#utility.yul\":10573:10591   */\n      add\n        /* \"#utility.yul\":10568:10570   */\n      0x20\n        /* \"#utility.yul\":10560:10566   */\n      dup8\n        /* \"#utility.yul\":10556:10571   */\n      add\n        /* \"#utility.yul\":10534:10600   */\n      tag_283\n      jump\t// in\n    tag_364:\n        /* \"#utility.yul\":10661:10663   */\n      0x1f\n        /* \"#utility.yul\":10640:10655   */\n      add\n      not(0x1f)\n        /* \"#utility.yul\":10636:10665   */\n      and\n        /* \"#utility.yul\":10621:10666   */\n      swap2\n      swap1\n      swap2\n      add\n        /* \"#utility.yul\":10668:10670   */\n      0x40\n        /* \"#utility.yul\":10617:10671   */\n      add\n      swap3\n        /* \"#utility.yul\":10294:10677   */\n      swap2\n      pop\n      pop\n      jump\t// out\n        /* \"#utility.yul\":10682:10817   */\n    tag_278:\n        /* \"#utility.yul\":10721:10724   */\n      0x00\n        /* \"#utility.yul\":10742:10759   */\n      0x01\n      dup3\n      add\n        /* \"#utility.yul\":10739:10782   */\n      tag_367\n      jumpi\n        /* \"#utility.yul\":10762:10780   */\n      tag_367\n      tag_282\n      jump\t// in\n    tag_367:\n      pop\n        /* \"#utility.yul\":10809:10810   */\n      0x01\n        /* \"#utility.yul\":10798:10811   */\n      add\n      swap1\n        /* \"#utility.yul\":10682:10817   */\n      jump\t// out\n\n    auxdata: 0xa26469706673582212203628f947021ea27a7b819f881fa5108c1bda5376501f3de8ed72184e4b25cfb264736f6c634300080f0033\n}\n",
				"bytecode": {
					"linkReferences": {},
					"object": "60806040523480156200001157600080fd5b50604051620016e5380380620016e5833981016040819052620000349162000386565b60016002556200004660003362000058565b6200005181620000e1565b506200052b565b60008281526001602090815260408083206001600160a01b038516845290915290205460ff16620000dd5760008281526001602081815260408084206001600160a01b0386168086529252808420805460ff19169093179092559051339285917f2f8788117e7eff1d82e926ec794901d17c78024a50270940304540a733656f0d9190a45b5050565b6000620000ee8162000111565b50600380546001600160a01b0319166001600160a01b0392909216919091179055565b6200011d813362000120565b50565b60008281526001602090815260408083206001600160a01b038516845290915290205460ff16620000dd576200016c816001600160a01b03166014620001c660201b62000a2d1760201c565b6200018283602062000a2d620001c6821b17811c565b60405160200162000195929190620003e4565b60408051601f198184030181529082905262461bcd60e51b8252620001bd916004016200045d565b60405180910390fd5b60606000620001d7836002620004a8565b620001e4906002620004ca565b6001600160401b03811115620001fe57620001fe620004e5565b6040519080825280601f01601f19166020018201604052801562000229576020820181803683370190505b509050600360fc1b81600081518110620002475762000247620004fb565b60200101906001600160f81b031916908160001a905350600f60fb1b81600181518110620002795762000279620004fb565b60200101906001600160f81b031916908160001a90535060006200029f846002620004a8565b620002ac906001620004ca565b90505b60018111156200032e576f181899199a1a9b1b9c1cb0b131b232b360811b85600f1660108110620002e457620002e4620004fb565b1a60f81b828281518110620002fd57620002fd620004fb565b60200101906001600160f81b031916908160001a90535060049490941c93620003268162000511565b9050620002af565b5083156200037f5760405162461bcd60e51b815260206004820181905260248201527f537472696e67733a20686578206c656e67746820696e73756666696369656e746044820152606401620001bd565b9392505050565b6000602082840312156200039957600080fd5b81516001600160a01b03811681146200037f57600080fd5b60005b83811015620003ce578181015183820152602001620003b4565b83811115620003de576000848401525b50505050565b7f416363657373436f6e74726f6c3a206163636f756e74200000000000000000008152600083516200041e816017850160208801620003b1565b7001034b99036b4b9b9b4b733903937b6329607d1b601791840191820152835162000451816028840160208801620003b1565b01602801949350505050565b60208152600082518060208401526200047e816040850160208701620003b1565b601f01601f19169190910160400192915050565b634e487b7160e01b600052601160045260246000fd5b6000816000190483118215151615620004c557620004c562000492565b500290565b60008219821115620004e057620004e062000492565b500190565b634e487b7160e01b600052604160045260246000fd5b634e487b7160e01b600052603260045260246000fd5b60008162000523576200052362000492565b506000190190565b6111aa806200053b6000396000f3fe60806040526004361061011f5760003560e01c80637cb64759116100a0578063c4e41b2211610064578063c4e41b2214610327578063d547741f1461033c578063dd31a7ba1461035c578063feb2386e1461037c578063ff0938a71461039c57600080fd5b80637cb647591461029057806391d14854146102b057806394f4504d146102d0578063a217fddf146102f1578063a6f5f0141461030657600080fd5b80632eb4a7ab116100e75780632eb4a7ab146102055780632f2ff15d1461021b57806336568abe1461023b5780634c0f38c21461025b57806361aec2051461027057600080fd5b806301ffc9a714610124578063248a9ca31461015957806327c25c201461019857806328438f68146101d05780632904e6d9146101f2575b600080fd5b34801561013057600080fd5b5061014461013f366004610d9d565b6103b1565b60405190151581526020015b60405180910390f35b34801561016557600080fd5b5061018a610174366004610dc7565b6000908152600160208190526040909120015490565b604051908152602001610150565b3480156101a457600080fd5b506003546101b8906001600160a01b031681565b6040516001600160a01b039091168152602001610150565b3480156101dc57600080fd5b506101f06101eb366004610dee565b6103e8565b005b6101f0610200366004610e21565b610412565b34801561021157600080fd5b5061018a60005481565b34801561022757600080fd5b506101f0610236366004610efa565b610702565b34801561024757600080fd5b506101f0610256366004610efa565b61072d565b34801561026757600080fd5b5061018a6107ab565b34801561027c57600080fd5b506101f061028b366004610f2a565b61081e565b34801561029c57600080fd5b506101f06102ab366004610dc7565b61084c565b3480156102bc57600080fd5b506101446102cb366004610efa565b61085d565b3480156102dc57600080fd5b5060035461014490600160a81b900460ff1681565b3480156102fd57600080fd5b5061018a600081565b34801561031257600080fd5b5060035461014490600160a01b900460ff1681565b34801561033357600080fd5b5061018a610888565b34801561034857600080fd5b506101f0610357366004610efa565b6108d2565b34801561036857600080fd5b506101f0610377366004610dee565b6108f8565b34801561038857600080fd5b50610144610397366004610f47565b610922565b3480156103a857600080fd5b506101446109bf565b60006001600160e01b03198216637965db0b60e01b14806103e257506301ffc9a760e01b6001600160e01b03198316145b92915050565b60006103f381610bd0565b5060038054911515600160a01b0260ff60a01b19909216919091179055565b60028054036104685760405162461bcd60e51b815260206004820152601f60248201527f5265656e7472616e637947756172643a207265656e7472616e742063616c6c0060448201526064015b60405180910390fd5b600280556104746109bf565b156104b85760405162461bcd60e51b81526020600482015260146024820152732730b3b0a5b4b239903bb0b9902830bab9b2b21760611b604482015260640161045f565b600354600160a81b900460ff1615156001146105165760405162461bcd60e51b815260206004820152601b60248201527f57686974656c697374206e6f74206f70656e20746f206d696e742e0000000000604482015260640161045f565b610457610521610888565b1061055c5760405162461bcd60e51b815260206004820152600b60248201526a4f76657220737570706c7960a81b604482015260640161045f565b6003546040805163d539139360e01b815290516001600160a01b03909216916391d1485491839163d5391393916004808201926020929091908290030181865afa1580156105ae573d6000803e3d6000fd5b505050506040513d601f19601f820116820180604052508101906105d29190610fd3565b6040516001600160e01b031960e084901b1681526004810191909152306024820152604401602060405180830381865afa158015610614573d6000803e3d6000fd5b505050506040513d601f19601f820116820180604052508101906106389190610fec565b151560011461069c5760405162461bcd60e51b815260206004820152602a60248201527f5468697320436f6e7472616374206e6f742068617665207065726d697373696f60448201526937103a379036b4b73a1760b11b606482015260840161045f565b6003546040516340d097c360e01b81523360048201526001600160a01b03909116906340d097c390602401600060405180830381600087803b1580156106e157600080fd5b505af11580156106f5573d6000803e3d6000fd5b5050600160025550505050565b6000828152600160208190526040909120015461071e81610bd0565b6107288383610bdd565b505050565b6001600160a01b038116331461079d5760405162461bcd60e51b815260206004820152602f60248201527f416363657373436f6e74726f6c3a2063616e206f6e6c792072656e6f756e636560448201526e103937b632b9903337b91039b2b63360891b606482015260840161045f565b6107a78282610c48565b5050565b6003546040805163d5abeb0160e01b815290516000926001600160a01b03169163d5abeb019160048083019260209291908290030181865afa1580156107f5573d6000803e3d6000fd5b505050506040513d601f19601f820116820180604052508101906108199190610fd3565b905090565b600061082981610bd0565b50600380546001600160a01b0319166001600160a01b0392909216919091179055565b600061085781610bd0565b50600055565b60009182526001602090815260408084206001600160a01b0393909316845291905290205460ff1690565b600354604080516318160ddd60e01b815290516000926001600160a01b0316916318160ddd9160048083019260209291908290030181865afa1580156107f5573d6000803e3d6000fd5b600082815260016020819052604090912001546108ee81610bd0565b6107288383610c48565b600061090381610bd0565b5060038054911515600160a81b0260ff60a81b19909216919091179055565b600080548103610934575060006109b7565b6109b48585808060200260200160405190810160405280939291908181526020018383602002808284376000920182905250546040516bffffffffffffffffffffffff1960608b901b1660208201526034810189905290935060540191506109999050565b60405160208183030381529060405280519060200120610caf565b90505b949350505050565b60035460408051635c975abb60e01b815290516000926001600160a01b031691635c975abb9160048083019260209291908290030181865afa158015610a09573d6000803e3d6000fd5b505050506040513d601f19601f820116820180604052508101906108199190610fec565b60606000610a3c83600261101f565b610a4790600261103e565b67ffffffffffffffff811115610a5f57610a5f610e0b565b6040519080825280601f01601f191660200182016040528015610a89576020820181803683370190505b509050600360fc1b81600081518110610aa457610aa4611056565b60200101906001600160f81b031916908160001a905350600f60fb1b81600181518110610ad357610ad3611056565b60200101906001600160f81b031916908160001a9053506000610af784600261101f565b610b0290600161103e565b90505b6001811115610b7a576f181899199a1a9b1b9c1cb0b131b232b360811b85600f1660108110610b3657610b36611056565b1a60f81b828281518110610b4c57610b4c611056565b60200101906001600160f81b031916908160001a90535060049490941c93610b738161106c565b9050610b05565b508315610bc95760405162461bcd60e51b815260206004820181905260248201527f537472696e67733a20686578206c656e67746820696e73756666696369656e74604482015260640161045f565b9392505050565b610bda8133610cc5565b50565b610be7828261085d565b6107a75760008281526001602081815260408084206001600160a01b0386168086529252808420805460ff19169093179092559051339285917f2f8788117e7eff1d82e926ec794901d17c78024a50270940304540a733656f0d9190a45050565b610c52828261085d565b156107a75760008281526001602090815260408083206001600160a01b0385168085529252808320805460ff1916905551339285917ff6391f5c32d9c69d2a47ea670b442974b53935d1edc7fd64eb21e047a839171b9190a45050565b600082610cbc8584610d29565b14949350505050565b610ccf828261085d565b6107a757610ce7816001600160a01b03166014610a2d565b610cf2836020610a2d565b604051602001610d039291906110b3565b60408051601f198184030181529082905262461bcd60e51b825261045f91600401611128565b600081815b8451811015610d95576000858281518110610d4b57610d4b611056565b60200260200101519050808311610d715760008381526020829052604090209250610d82565b600081815260208490526040902092505b5080610d8d8161115b565b915050610d2e565b509392505050565b600060208284031215610daf57600080fd5b81356001600160e01b031981168114610bc957600080fd5b600060208284031215610dd957600080fd5b5035919050565b8015158114610bda57600080fd5b600060208284031215610e0057600080fd5b8135610bc981610de0565b634e487b7160e01b600052604160045260246000fd5b60008060408385031215610e3457600080fd5b823567ffffffffffffffff80821115610e4c57600080fd5b818501915085601f830112610e6057600080fd5b8135602082821115610e7457610e74610e0b565b8160051b604051601f19603f83011681018181108682111715610e9957610e99610e0b565b604052928352818301935084810182019289841115610eb757600080fd5b948201945b83861015610ed557853585529482019493820193610ebc565b9997909101359750505050505050565b6001600160a01b0381168114610bda57600080fd5b60008060408385031215610f0d57600080fd5b823591506020830135610f1f81610ee5565b809150509250929050565b600060208284031215610f3c57600080fd5b8135610bc981610ee5565b60008060008060608587031215610f5d57600080fd5b843567ffffffffffffffff80821115610f7557600080fd5b818701915087601f830112610f8957600080fd5b813581811115610f9857600080fd5b8860208260051b8501011115610fad57600080fd5b60209283019650945050850135610fc381610ee5565b9396929550929360400135925050565b600060208284031215610fe557600080fd5b5051919050565b600060208284031215610ffe57600080fd5b8151610bc981610de0565b634e487b7160e01b600052601160045260246000fd5b600081600019048311821515161561103957611039611009565b500290565b6000821982111561105157611051611009565b500190565b634e487b7160e01b600052603260045260246000fd5b60008161107b5761107b611009565b506000190190565b60005b8381101561109e578181015183820152602001611086565b838111156110ad576000848401525b50505050565b7f416363657373436f6e74726f6c3a206163636f756e74200000000000000000008152600083516110eb816017850160208801611083565b7001034b99036b4b9b9b4b733903937b6329607d1b601791840191820152835161111c816028840160208801611083565b01602801949350505050565b6020815260008251806020840152611147816040850160208701611083565b601f01601f19169190910160400192915050565b60006001820161116d5761116d611009565b506001019056fea26469706673582212203628f947021ea27a7b819f881fa5108c1bda5376501f3de8ed72184e4b25cfb264736f6c634300080f0033",
					"opcodes": "PUSH1 0x80 PUSH1 0x40 MSTORE CALLVALUE DUP1 ISZERO PUSH3 0x11 JUMPI PUSH1 0x0 DUP1 REVERT JUMPDEST POP PUSH1 0x40 MLOAD PUSH3 0x16E5 CODESIZE SUB DUP1 PUSH3 0x16E5 DUP4 CODECOPY DUP2 ADD PUSH1 0x40 DUP2 SWAP1 MSTORE PUSH3 0x34 SWAP2 PUSH3 0x386 JUMP JUMPDEST PUSH1 0x1 PUSH1 0x2 SSTORE PUSH3 0x46 PUSH1 0x0 CALLER PUSH3 0x58 JUMP JUMPDEST PUSH3 0x51 DUP2 PUSH3 0xE1 JUMP JUMPDEST POP PUSH3 0x52B JUMP JUMPDEST PUSH1 0x0 DUP3 DUP2 MSTORE PUSH1 0x1 PUSH1 0x20 SWAP1 DUP2 MSTORE PUSH1 0x40 DUP1 DUP4 KECCAK256 PUSH1 0x1 PUSH1 0x1 PUSH1 0xA0 SHL SUB DUP6 AND DUP5 MSTORE SWAP1 SWAP2 MSTORE SWAP1 KECCAK256 SLOAD PUSH1 0xFF AND PUSH3 0xDD JUMPI PUSH1 0x0 DUP3 DUP2 MSTORE PUSH1 0x1 PUSH1 0x20 DUP2 DUP2 MSTORE PUSH1 0x40 DUP1 DUP5 KECCAK256 PUSH1 0x1 PUSH1 0x1 PUSH1 0xA0 SHL SUB DUP7 AND DUP1 DUP7 MSTORE SWAP3 MSTORE DUP1 DUP5 KECCAK256 DUP1 SLOAD PUSH1 0xFF NOT AND SWAP1 SWAP4 OR SWAP1 SWAP3 SSTORE SWAP1 MLOAD CALLER SWAP3 DUP6 SWAP2 PUSH32 0x2F8788117E7EFF1D82E926EC794901D17C78024A50270940304540A733656F0D SWAP2 SWAP1 LOG4 JUMPDEST POP POP JUMP JUMPDEST PUSH1 0x0 PUSH3 0xEE DUP2 PUSH3 0x111 JUMP JUMPDEST POP PUSH1 0x3 DUP1 SLOAD PUSH1 0x1 PUSH1 0x1 PUSH1 0xA0 SHL SUB NOT AND PUSH1 0x1 PUSH1 0x1 PUSH1 0xA0 SHL SUB SWAP3 SWAP1 SWAP3 AND SWAP2 SWAP1 SWAP2 OR SWAP1 SSTORE JUMP JUMPDEST PUSH3 0x11D DUP2 CALLER PUSH3 0x120 JUMP JUMPDEST POP JUMP JUMPDEST PUSH1 0x0 DUP3 DUP2 MSTORE PUSH1 0x1 PUSH1 0x20 SWAP1 DUP2 MSTORE PUSH1 0x40 DUP1 DUP4 KECCAK256 PUSH1 0x1 PUSH1 0x1 PUSH1 0xA0 SHL SUB DUP6 AND DUP5 MSTORE SWAP1 SWAP2 MSTORE SWAP1 KECCAK256 SLOAD PUSH1 0xFF AND PUSH3 0xDD JUMPI PUSH3 0x16C DUP2 PUSH1 0x1 PUSH1 0x1 PUSH1 0xA0 SHL SUB AND PUSH1 0x14 PUSH3 0x1C6 PUSH1 0x20 SHL PUSH3 0xA2D OR PUSH1 0x20 SHR JUMP JUMPDEST PUSH3 0x182 DUP4 PUSH1 0x20 PUSH3 0xA2D PUSH3 0x1C6 DUP3 SHL OR DUP2 SHR JUMP JUMPDEST PUSH1 0x40 MLOAD PUSH1 0x20 ADD PUSH3 0x195 SWAP3 SWAP2 SWAP1 PUSH3 0x3E4 JUMP JUMPDEST PUSH1 0x40 DUP1 MLOAD PUSH1 0x1F NOT DUP2 DUP5 SUB ADD DUP2 MSTORE SWAP1 DUP3 SWAP1 MSTORE PUSH3 0x461BCD PUSH1 0xE5 SHL DUP3 MSTORE PUSH3 0x1BD SWAP2 PUSH1 0x4 ADD PUSH3 0x45D JUMP JUMPDEST PUSH1 0x40 MLOAD DUP1 SWAP2 SUB SWAP1 REVERT JUMPDEST PUSH1 0x60 PUSH1 0x0 PUSH3 0x1D7 DUP4 PUSH1 0x2 PUSH3 0x4A8 JUMP JUMPDEST PUSH3 0x1E4 SWAP1 PUSH1 0x2 PUSH3 0x4CA JUMP JUMPDEST PUSH1 0x1 PUSH1 0x1 PUSH1 0x40 SHL SUB DUP2 GT ISZERO PUSH3 0x1FE JUMPI PUSH3 0x1FE PUSH3 0x4E5 JUMP JUMPDEST PUSH1 0x40 MLOAD SWAP1 DUP1 DUP3 MSTORE DUP1 PUSH1 0x1F ADD PUSH1 0x1F NOT AND PUSH1 0x20 ADD DUP3 ADD PUSH1 0x40 MSTORE DUP1 ISZERO PUSH3 0x229 JUMPI PUSH1 0x20 DUP3 ADD DUP2 DUP1 CALLDATASIZE DUP4 CALLDATACOPY ADD SWAP1 POP JUMPDEST POP SWAP1 POP PUSH1 0x3 PUSH1 0xFC SHL DUP2 PUSH1 0x0 DUP2 MLOAD DUP2 LT PUSH3 0x247 JUMPI PUSH3 0x247 PUSH3 0x4FB JUMP JUMPDEST PUSH1 0x20 ADD ADD SWAP1 PUSH1 0x1 PUSH1 0x1 PUSH1 0xF8 SHL SUB NOT AND SWAP1 DUP2 PUSH1 0x0 BYTE SWAP1 MSTORE8 POP PUSH1 0xF PUSH1 0xFB SHL DUP2 PUSH1 0x1 DUP2 MLOAD DUP2 LT PUSH3 0x279 JUMPI PUSH3 0x279 PUSH3 0x4FB JUMP JUMPDEST PUSH1 0x20 ADD ADD SWAP1 PUSH1 0x1 PUSH1 0x1 PUSH1 0xF8 SHL SUB NOT AND SWAP1 DUP2 PUSH1 0x0 BYTE SWAP1 MSTORE8 POP PUSH1 0x0 PUSH3 0x29F DUP5 PUSH1 0x2 PUSH3 0x4A8 JUMP JUMPDEST PUSH3 0x2AC SWAP1 PUSH1 0x1 PUSH3 0x4CA JUMP JUMPDEST SWAP1 POP JUMPDEST PUSH1 0x1 DUP2 GT ISZERO PUSH3 0x32E JUMPI PUSH16 0x181899199A1A9B1B9C1CB0B131B232B3 PUSH1 0x81 SHL DUP6 PUSH1 0xF AND PUSH1 0x10 DUP2 LT PUSH3 0x2E4 JUMPI PUSH3 0x2E4 PUSH3 0x4FB JUMP JUMPDEST BYTE PUSH1 0xF8 SHL DUP3 DUP3 DUP2 MLOAD DUP2 LT PUSH3 0x2FD JUMPI PUSH3 0x2FD PUSH3 0x4FB JUMP JUMPDEST PUSH1 0x20 ADD ADD SWAP1 PUSH1 0x1 PUSH1 0x1 PUSH1 0xF8 SHL SUB NOT AND SWAP1 DUP2 PUSH1 0x0 BYTE SWAP1 MSTORE8 POP PUSH1 0x4 SWAP5 SWAP1 SWAP5 SHR SWAP4 PUSH3 0x326 DUP2 PUSH3 0x511 JUMP JUMPDEST SWAP1 POP PUSH3 0x2AF JUMP JUMPDEST POP DUP4 ISZERO PUSH3 0x37F JUMPI PUSH1 0x40 MLOAD PUSH3 0x461BCD PUSH1 0xE5 SHL DUP2 MSTORE PUSH1 0x20 PUSH1 0x4 DUP3 ADD DUP2 SWAP1 MSTORE PUSH1 0x24 DUP3 ADD MSTORE PUSH32 0x537472696E67733A20686578206C656E67746820696E73756666696369656E74 PUSH1 0x44 DUP3 ADD MSTORE PUSH1 0x64 ADD PUSH3 0x1BD JUMP JUMPDEST SWAP4 SWAP3 POP POP POP JUMP JUMPDEST PUSH1 0x0 PUSH1 0x20 DUP3 DUP5 SUB SLT ISZERO PUSH3 0x399 JUMPI PUSH1 0x0 DUP1 REVERT JUMPDEST DUP2 MLOAD PUSH1 0x1 PUSH1 0x1 PUSH1 0xA0 SHL SUB DUP2 AND DUP2 EQ PUSH3 0x37F JUMPI PUSH1 0x0 DUP1 REVERT JUMPDEST PUSH1 0x0 JUMPDEST DUP4 DUP2 LT ISZERO PUSH3 0x3CE JUMPI DUP2 DUP2 ADD MLOAD DUP4 DUP3 ADD MSTORE PUSH1 0x20 ADD PUSH3 0x3B4 JUMP JUMPDEST DUP4 DUP2 GT ISZERO PUSH3 0x3DE JUMPI PUSH1 0x0 DUP5 DUP5 ADD MSTORE JUMPDEST POP POP POP POP JUMP JUMPDEST PUSH32 0x416363657373436F6E74726F6C3A206163636F756E7420000000000000000000 DUP2 MSTORE PUSH1 0x0 DUP4 MLOAD PUSH3 0x41E DUP2 PUSH1 0x17 DUP6 ADD PUSH1 0x20 DUP9 ADD PUSH3 0x3B1 JUMP JUMPDEST PUSH17 0x1034B99036B4B9B9B4B733903937B6329 PUSH1 0x7D SHL PUSH1 0x17 SWAP2 DUP5 ADD SWAP2 DUP3 ADD MSTORE DUP4 MLOAD PUSH3 0x451 DUP2 PUSH1 0x28 DUP5 ADD PUSH1 0x20 DUP9 ADD PUSH3 0x3B1 JUMP JUMPDEST ADD PUSH1 0x28 ADD SWAP5 SWAP4 POP POP POP POP JUMP JUMPDEST PUSH1 0x20 DUP2 MSTORE PUSH1 0x0 DUP3 MLOAD DUP1 PUSH1 0x20 DUP5 ADD MSTORE PUSH3 0x47E DUP2 PUSH1 0x40 DUP6 ADD PUSH1 0x20 DUP8 ADD PUSH3 0x3B1 JUMP JUMPDEST PUSH1 0x1F ADD PUSH1 0x1F NOT AND SWAP2 SWAP1 SWAP2 ADD PUSH1 0x40 ADD SWAP3 SWAP2 POP POP JUMP JUMPDEST PUSH4 0x4E487B71 PUSH1 0xE0 SHL PUSH1 0x0 MSTORE PUSH1 0x11 PUSH1 0x4 MSTORE PUSH1 0x24 PUSH1 0x0 REVERT JUMPDEST PUSH1 0x0 DUP2 PUSH1 0x0 NOT DIV DUP4 GT DUP3 ISZERO ISZERO AND ISZERO PUSH3 0x4C5 JUMPI PUSH3 0x4C5 PUSH3 0x492 JUMP JUMPDEST POP MUL SWAP1 JUMP JUMPDEST PUSH1 0x0 DUP3 NOT DUP3 GT ISZERO PUSH3 0x4E0 JUMPI PUSH3 0x4E0 PUSH3 0x492 JUMP JUMPDEST POP ADD SWAP1 JUMP JUMPDEST PUSH4 0x4E487B71 PUSH1 0xE0 SHL PUSH1 0x0 MSTORE PUSH1 0x41 PUSH1 0x4 MSTORE PUSH1 0x24 PUSH1 0x0 REVERT JUMPDEST PUSH4 0x4E487B71 PUSH1 0xE0 SHL PUSH1 0x0 MSTORE PUSH1 0x32 PUSH1 0x4 MSTORE PUSH1 0x24 PUSH1 0x0 REVERT JUMPDEST PUSH1 0x0 DUP2 PUSH3 0x523 JUMPI PUSH3 0x523 PUSH3 0x492 JUMP JUMPDEST POP PUSH1 0x0 NOT ADD SWAP1 JUMP JUMPDEST PUSH2 0x11AA DUP1 PUSH3 0x53B PUSH1 0x0 CODECOPY PUSH1 0x0 RETURN INVALID PUSH1 0x80 PUSH1 0x40 MSTORE PUSH1 0x4 CALLDATASIZE LT PUSH2 0x11F JUMPI PUSH1 0x0 CALLDATALOAD PUSH1 0xE0 SHR DUP1 PUSH4 0x7CB64759 GT PUSH2 0xA0 JUMPI DUP1 PUSH4 0xC4E41B22 GT PUSH2 0x64 JUMPI DUP1 PUSH4 0xC4E41B22 EQ PUSH2 0x327 JUMPI DUP1 PUSH4 0xD547741F EQ PUSH2 0x33C JUMPI DUP1 PUSH4 0xDD31A7BA EQ PUSH2 0x35C JUMPI DUP1 PUSH4 0xFEB2386E EQ PUSH2 0x37C JUMPI DUP1 PUSH4 0xFF0938A7 EQ PUSH2 0x39C JUMPI PUSH1 0x0 DUP1 REVERT JUMPDEST DUP1 PUSH4 0x7CB64759 EQ PUSH2 0x290 JUMPI DUP1 PUSH4 0x91D14854 EQ PUSH2 0x2B0 JUMPI DUP1 PUSH4 0x94F4504D EQ PUSH2 0x2D0 JUMPI DUP1 PUSH4 0xA217FDDF EQ PUSH2 0x2F1 JUMPI DUP1 PUSH4 0xA6F5F014 EQ PUSH2 0x306 JUMPI PUSH1 0x0 DUP1 REVERT JUMPDEST DUP1 PUSH4 0x2EB4A7AB GT PUSH2 0xE7 JUMPI DUP1 PUSH4 0x2EB4A7AB EQ PUSH2 0x205 JUMPI DUP1 PUSH4 0x2F2FF15D EQ PUSH2 0x21B JUMPI DUP1 PUSH4 0x36568ABE EQ PUSH2 0x23B JUMPI DUP1 PUSH4 0x4C0F38C2 EQ PUSH2 0x25B JUMPI DUP1 PUSH4 0x61AEC205 EQ PUSH2 0x270 JUMPI PUSH1 0x0 DUP1 REVERT JUMPDEST DUP1 PUSH4 0x1FFC9A7 EQ PUSH2 0x124 JUMPI DUP1 PUSH4 0x248A9CA3 EQ PUSH2 0x159 JUMPI DUP1 PUSH4 0x27C25C20 EQ PUSH2 0x198 JUMPI DUP1 PUSH4 0x28438F68 EQ PUSH2 0x1D0 JUMPI DUP1 PUSH4 0x2904E6D9 EQ PUSH2 0x1F2 JUMPI JUMPDEST PUSH1 0x0 DUP1 REVERT JUMPDEST CALLVALUE DUP1 ISZERO PUSH2 0x130 JUMPI PUSH1 0x0 DUP1 REVERT JUMPDEST POP PUSH2 0x144 PUSH2 0x13F CALLDATASIZE PUSH1 0x4 PUSH2 0xD9D JUMP JUMPDEST PUSH2 0x3B1 JUMP JUMPDEST PUSH1 0x40 MLOAD SWAP1 ISZERO ISZERO DUP2 MSTORE PUSH1 0x20 ADD JUMPDEST PUSH1 0x40 MLOAD DUP1 SWAP2 SUB SWAP1 RETURN JUMPDEST CALLVALUE DUP1 ISZERO PUSH2 0x165 JUMPI PUSH1 0x0 DUP1 REVERT JUMPDEST POP PUSH2 0x18A PUSH2 0x174 CALLDATASIZE PUSH1 0x4 PUSH2 0xDC7 JUMP JUMPDEST PUSH1 0x0 SWAP1 DUP2 MSTORE PUSH1 0x1 PUSH1 0x20 DUP2 SWAP1 MSTORE PUSH1 0x40 SWAP1 SWAP2 KECCAK256 ADD SLOAD SWAP1 JUMP JUMPDEST PUSH1 0x40 MLOAD SWAP1 DUP2 MSTORE PUSH1 0x20 ADD PUSH2 0x150 JUMP JUMPDEST CALLVALUE DUP1 ISZERO PUSH2 0x1A4 JUMPI PUSH1 0x0 DUP1 REVERT JUMPDEST POP PUSH1 0x3 SLOAD PUSH2 0x1B8 SWAP1 PUSH1 0x1 PUSH1 0x1 PUSH1 0xA0 SHL SUB AND DUP2 JUMP JUMPDEST PUSH1 0x40 MLOAD PUSH1 0x1 PUSH1 0x1 PUSH1 0xA0 SHL SUB SWAP1 SWAP2 AND DUP2 MSTORE PUSH1 0x20 ADD PUSH2 0x150 JUMP JUMPDEST CALLVALUE DUP1 ISZERO PUSH2 0x1DC JUMPI PUSH1 0x0 DUP1 REVERT JUMPDEST POP PUSH2 0x1F0 PUSH2 0x1EB CALLDATASIZE PUSH1 0x4 PUSH2 0xDEE JUMP JUMPDEST PUSH2 0x3E8 JUMP JUMPDEST STOP JUMPDEST PUSH2 0x1F0 PUSH2 0x200 CALLDATASIZE PUSH1 0x4 PUSH2 0xE21 JUMP JUMPDEST PUSH2 0x412 JUMP JUMPDEST CALLVALUE DUP1 ISZERO PUSH2 0x211 JUMPI PUSH1 0x0 DUP1 REVERT JUMPDEST POP PUSH2 0x18A PUSH1 0x0 SLOAD DUP2 JUMP JUMPDEST CALLVALUE DUP1 ISZERO PUSH2 0x227 JUMPI PUSH1 0x0 DUP1 REVERT JUMPDEST POP PUSH2 0x1F0 PUSH2 0x236 CALLDATASIZE PUSH1 0x4 PUSH2 0xEFA JUMP JUMPDEST PUSH2 0x702 JUMP JUMPDEST CALLVALUE DUP1 ISZERO PUSH2 0x247 JUMPI PUSH1 0x0 DUP1 REVERT JUMPDEST POP PUSH2 0x1F0 PUSH2 0x256 CALLDATASIZE PUSH1 0x4 PUSH2 0xEFA JUMP JUMPDEST PUSH2 0x72D JUMP JUMPDEST CALLVALUE DUP1 ISZERO PUSH2 0x267 JUMPI PUSH1 0x0 DUP1 REVERT JUMPDEST POP PUSH2 0x18A PUSH2 0x7AB JUMP JUMPDEST CALLVALUE DUP1 ISZERO PUSH2 0x27C JUMPI PUSH1 0x0 DUP1 REVERT JUMPDEST POP PUSH2 0x1F0 PUSH2 0x28B CALLDATASIZE PUSH1 0x4 PUSH2 0xF2A JUMP JUMPDEST PUSH2 0x81E JUMP JUMPDEST CALLVALUE DUP1 ISZERO PUSH2 0x29C JUMPI PUSH1 0x0 DUP1 REVERT JUMPDEST POP PUSH2 0x1F0 PUSH2 0x2AB CALLDATASIZE PUSH1 0x4 PUSH2 0xDC7 JUMP JUMPDEST PUSH2 0x84C JUMP JUMPDEST CALLVALUE DUP1 ISZERO PUSH2 0x2BC JUMPI PUSH1 0x0 DUP1 REVERT JUMPDEST POP PUSH2 0x144 PUSH2 0x2CB CALLDATASIZE PUSH1 0x4 PUSH2 0xEFA JUMP JUMPDEST PUSH2 0x85D JUMP JUMPDEST CALLVALUE DUP1 ISZERO PUSH2 0x2DC JUMPI PUSH1 0x0 DUP1 REVERT JUMPDEST POP PUSH1 0x3 SLOAD PUSH2 0x144 SWAP1 PUSH1 0x1 PUSH1 0xA8 SHL SWAP1 DIV PUSH1 0xFF AND DUP2 JUMP JUMPDEST CALLVALUE DUP1 ISZERO PUSH2 0x2FD JUMPI PUSH1 0x0 DUP1 REVERT JUMPDEST POP PUSH2 0x18A PUSH1 0x0 DUP2 JUMP JUMPDEST CALLVALUE DUP1 ISZERO PUSH2 0x312 JUMPI PUSH1 0x0 DUP1 REVERT JUMPDEST POP PUSH1 0x3 SLOAD PUSH2 0x144 SWAP1 PUSH1 0x1 PUSH1 0xA0 SHL SWAP1 DIV PUSH1 0xFF AND DUP2 JUMP JUMPDEST CALLVALUE DUP1 ISZERO PUSH2 0x333 JUMPI PUSH1 0x0 DUP1 REVERT JUMPDEST POP PUSH2 0x18A PUSH2 0x888 JUMP JUMPDEST CALLVALUE DUP1 ISZERO PUSH2 0x348 JUMPI PUSH1 0x0 DUP1 REVERT JUMPDEST POP PUSH2 0x1F0 PUSH2 0x357 CALLDATASIZE PUSH1 0x4 PUSH2 0xEFA JUMP JUMPDEST PUSH2 0x8D2 JUMP JUMPDEST CALLVALUE DUP1 ISZERO PUSH2 0x368 JUMPI PUSH1 0x0 DUP1 REVERT JUMPDEST POP PUSH2 0x1F0 PUSH2 0x377 CALLDATASIZE PUSH1 0x4 PUSH2 0xDEE JUMP JUMPDEST PUSH2 0x8F8 JUMP JUMPDEST CALLVALUE DUP1 ISZERO PUSH2 0x388 JUMPI PUSH1 0x0 DUP1 REVERT JUMPDEST POP PUSH2 0x144 PUSH2 0x397 CALLDATASIZE PUSH1 0x4 PUSH2 0xF47 JUMP JUMPDEST PUSH2 0x922 JUMP JUMPDEST CALLVALUE DUP1 ISZERO PUSH2 0x3A8 JUMPI PUSH1 0x0 DUP1 REVERT JUMPDEST POP PUSH2 0x144 PUSH2 0x9BF JUMP JUMPDEST PUSH1 0x0 PUSH1 0x1 PUSH1 0x1 PUSH1 0xE0 SHL SUB NOT DUP3 AND PUSH4 0x7965DB0B PUSH1 0xE0 SHL EQ DUP1 PUSH2 0x3E2 JUMPI POP PUSH4 0x1FFC9A7 PUSH1 0xE0 SHL PUSH1 0x1 PUSH1 0x1 PUSH1 0xE0 SHL SUB NOT DUP4 AND EQ JUMPDEST SWAP3 SWAP2 POP POP JUMP JUMPDEST PUSH1 0x0 PUSH2 0x3F3 DUP2 PUSH2 0xBD0 JUMP JUMPDEST POP PUSH1 0x3 DUP1 SLOAD SWAP2 ISZERO ISZERO PUSH1 0x1 PUSH1 0xA0 SHL MUL PUSH1 0xFF PUSH1 0xA0 SHL NOT SWAP1 SWAP3 AND SWAP2 SWAP1 SWAP2 OR SWAP1 SSTORE JUMP JUMPDEST PUSH1 0x2 DUP1 SLOAD SUB PUSH2 0x468 JUMPI PUSH1 0x40 MLOAD PUSH3 0x461BCD PUSH1 0xE5 SHL DUP2 MSTORE PUSH1 0x20 PUSH1 0x4 DUP3 ADD MSTORE PUSH1 0x1F PUSH1 0x24 DUP3 ADD MSTORE PUSH32 0x5265656E7472616E637947756172643A207265656E7472616E742063616C6C00 PUSH1 0x44 DUP3 ADD MSTORE PUSH1 0x64 ADD JUMPDEST PUSH1 0x40 MLOAD DUP1 SWAP2 SUB SWAP1 REVERT JUMPDEST PUSH1 0x2 DUP1 SSTORE PUSH2 0x474 PUSH2 0x9BF JUMP JUMPDEST ISZERO PUSH2 0x4B8 JUMPI PUSH1 0x40 MLOAD PUSH3 0x461BCD PUSH1 0xE5 SHL DUP2 MSTORE PUSH1 0x20 PUSH1 0x4 DUP3 ADD MSTORE PUSH1 0x14 PUSH1 0x24 DUP3 ADD MSTORE PUSH20 0x2730B3B0A5B4B239903BB0B9902830BAB9B2B217 PUSH1 0x61 SHL PUSH1 0x44 DUP3 ADD MSTORE PUSH1 0x64 ADD PUSH2 0x45F JUMP JUMPDEST PUSH1 0x3 SLOAD PUSH1 0x1 PUSH1 0xA8 SHL SWAP1 DIV PUSH1 0xFF AND ISZERO ISZERO PUSH1 0x1 EQ PUSH2 0x516 JUMPI PUSH1 0x40 MLOAD PUSH3 0x461BCD PUSH1 0xE5 SHL DUP2 MSTORE PUSH1 0x20 PUSH1 0x4 DUP3 ADD MSTORE PUSH1 0x1B PUSH1 0x24 DUP3 ADD MSTORE PUSH32 0x57686974656C697374206E6F74206F70656E20746F206D696E742E0000000000 PUSH1 0x44 DUP3 ADD MSTORE PUSH1 0x64 ADD PUSH2 0x45F JUMP JUMPDEST PUSH2 0x457 PUSH2 0x521 PUSH2 0x888 JUMP JUMPDEST LT PUSH2 0x55C JUMPI PUSH1 0x40 MLOAD PUSH3 0x461BCD PUSH1 0xE5 SHL DUP2 MSTORE PUSH1 0x20 PUSH1 0x4 DUP3 ADD MSTORE PUSH1 0xB PUSH1 0x24 DUP3 ADD MSTORE PUSH11 0x4F76657220737570706C79 PUSH1 0xA8 SHL PUSH1 0x44 DUP3 ADD MSTORE PUSH1 0x64 ADD PUSH2 0x45F JUMP JUMPDEST PUSH1 0x3 SLOAD PUSH1 0x40 DUP1 MLOAD PUSH4 0xD5391393 PUSH1 0xE0 SHL DUP2 MSTORE SWAP1 MLOAD PUSH1 0x1 PUSH1 0x1 PUSH1 0xA0 SHL SUB SWAP1 SWAP3 AND SWAP2 PUSH4 0x91D14854 SWAP2 DUP4 SWAP2 PUSH4 0xD5391393 SWAP2 PUSH1 0x4 DUP1 DUP3 ADD SWAP3 PUSH1 0x20 SWAP3 SWAP1 SWAP2 SWAP1 DUP3 SWAP1 SUB ADD DUP2 DUP7 GAS STATICCALL ISZERO DUP1 ISZERO PUSH2 0x5AE JUMPI RETURNDATASIZE PUSH1 0x0 DUP1 RETURNDATACOPY RETURNDATASIZE PUSH1 0x0 REVERT JUMPDEST POP POP POP POP PUSH1 0x40 MLOAD RETURNDATASIZE PUSH1 0x1F NOT PUSH1 0x1F DUP3 ADD AND DUP3 ADD DUP1 PUSH1 0x40 MSTORE POP DUP2 ADD SWAP1 PUSH2 0x5D2 SWAP2 SWAP1 PUSH2 0xFD3 JUMP JUMPDEST PUSH1 0x40 MLOAD PUSH1 0x1 PUSH1 0x1 PUSH1 0xE0 SHL SUB NOT PUSH1 0xE0 DUP5 SWAP1 SHL AND DUP2 MSTORE PUSH1 0x4 DUP2 ADD SWAP2 SWAP1 SWAP2 MSTORE ADDRESS PUSH1 0x24 DUP3 ADD MSTORE PUSH1 0x44 ADD PUSH1 0x20 PUSH1 0x40 MLOAD DUP1 DUP4 SUB DUP2 DUP7 GAS STATICCALL ISZERO DUP1 ISZERO PUSH2 0x614 JUMPI RETURNDATASIZE PUSH1 0x0 DUP1 RETURNDATACOPY RETURNDATASIZE PUSH1 0x0 REVERT JUMPDEST POP POP POP POP PUSH1 0x40 MLOAD RETURNDATASIZE PUSH1 0x1F NOT PUSH1 0x1F DUP3 ADD AND DUP3 ADD DUP1 PUSH1 0x40 MSTORE POP DUP2 ADD SWAP1 PUSH2 0x638 SWAP2 SWAP1 PUSH2 0xFEC JUMP JUMPDEST ISZERO ISZERO PUSH1 0x1 EQ PUSH2 0x69C JUMPI PUSH1 0x40 MLOAD PUSH3 0x461BCD PUSH1 0xE5 SHL DUP2 MSTORE PUSH1 0x20 PUSH1 0x4 DUP3 ADD MSTORE PUSH1 0x2A PUSH1 0x24 DUP3 ADD MSTORE PUSH32 0x5468697320436F6E7472616374206E6F742068617665207065726D697373696F PUSH1 0x44 DUP3 ADD MSTORE PUSH10 0x37103A379036B4B73A17 PUSH1 0xB1 SHL PUSH1 0x64 DUP3 ADD MSTORE PUSH1 0x84 ADD PUSH2 0x45F JUMP JUMPDEST PUSH1 0x3 SLOAD PUSH1 0x40 MLOAD PUSH4 0x40D097C3 PUSH1 0xE0 SHL DUP2 MSTORE CALLER PUSH1 0x4 DUP3 ADD MSTORE PUSH1 0x1 PUSH1 0x1 PUSH1 0xA0 SHL SUB SWAP1 SWAP2 AND SWAP1 PUSH4 0x40D097C3 SWAP1 PUSH1 0x24 ADD PUSH1 0x0 PUSH1 0x40 MLOAD DUP1 DUP4 SUB DUP2 PUSH1 0x0 DUP8 DUP1 EXTCODESIZE ISZERO DUP1 ISZERO PUSH2 0x6E1 JUMPI PUSH1 0x0 DUP1 REVERT JUMPDEST POP GAS CALL ISZERO DUP1 ISZERO PUSH2 0x6F5 JUMPI RETURNDATASIZE PUSH1 0x0 DUP1 RETURNDATACOPY RETURNDATASIZE PUSH1 0x0 REVERT JUMPDEST POP POP PUSH1 0x1 PUSH1 0x2 SSTORE POP POP POP POP JUMP JUMPDEST PUSH1 0x0 DUP3 DUP2 MSTORE PUSH1 0x1 PUSH1 0x20 DUP2 SWAP1 MSTORE PUSH1 0x40 SWAP1 SWAP2 KECCAK256 ADD SLOAD PUSH2 0x71E DUP2 PUSH2 0xBD0 JUMP JUMPDEST PUSH2 0x728 DUP4 DUP4 PUSH2 0xBDD JUMP JUMPDEST POP POP POP JUMP JUMPDEST PUSH1 0x1 PUSH1 0x1 PUSH1 0xA0 SHL SUB DUP2 AND CALLER EQ PUSH2 0x79D JUMPI PUSH1 0x40 MLOAD PUSH3 0x461BCD PUSH1 0xE5 SHL DUP2 MSTORE PUSH1 0x20 PUSH1 0x4 DUP3 ADD MSTORE PUSH1 0x2F PUSH1 0x24 DUP3 ADD MSTORE PUSH32 0x416363657373436F6E74726F6C3A2063616E206F6E6C792072656E6F756E6365 PUSH1 0x44 DUP3 ADD MSTORE PUSH15 0x103937B632B9903337B91039B2B633 PUSH1 0x89 SHL PUSH1 0x64 DUP3 ADD MSTORE PUSH1 0x84 ADD PUSH2 0x45F JUMP JUMPDEST PUSH2 0x7A7 DUP3 DUP3 PUSH2 0xC48 JUMP JUMPDEST POP POP JUMP JUMPDEST PUSH1 0x3 SLOAD PUSH1 0x40 DUP1 MLOAD PUSH4 0xD5ABEB01 PUSH1 0xE0 SHL DUP2 MSTORE SWAP1 MLOAD PUSH1 0x0 SWAP3 PUSH1 0x1 PUSH1 0x1 PUSH1 0xA0 SHL SUB AND SWAP2 PUSH4 0xD5ABEB01 SWAP2 PUSH1 0x4 DUP1 DUP4 ADD SWAP3 PUSH1 0x20 SWAP3 SWAP2 SWAP1 DUP3 SWAP1 SUB ADD DUP2 DUP7 GAS STATICCALL ISZERO DUP1 ISZERO PUSH2 0x7F5 JUMPI RETURNDATASIZE PUSH1 0x0 DUP1 RETURNDATACOPY RETURNDATASIZE PUSH1 0x0 REVERT JUMPDEST POP POP POP POP PUSH1 0x40 MLOAD RETURNDATASIZE PUSH1 0x1F NOT PUSH1 0x1F DUP3 ADD AND DUP3 ADD DUP1 PUSH1 0x40 MSTORE POP DUP2 ADD SWAP1 PUSH2 0x819 SWAP2 SWAP1 PUSH2 0xFD3 JUMP JUMPDEST SWAP1 POP SWAP1 JUMP JUMPDEST PUSH1 0x0 PUSH2 0x829 DUP2 PUSH2 0xBD0 JUMP JUMPDEST POP PUSH1 0x3 DUP1 SLOAD PUSH1 0x1 PUSH1 0x1 PUSH1 0xA0 SHL SUB NOT AND PUSH1 0x1 PUSH1 0x1 PUSH1 0xA0 SHL SUB SWAP3 SWAP1 SWAP3 AND SWAP2 SWAP1 SWAP2 OR SWAP1 SSTORE JUMP JUMPDEST PUSH1 0x0 PUSH2 0x857 DUP2 PUSH2 0xBD0 JUMP JUMPDEST POP PUSH1 0x0 SSTORE JUMP JUMPDEST PUSH1 0x0 SWAP2 DUP3 MSTORE PUSH1 0x1 PUSH1 0x20 SWAP1 DUP2 MSTORE PUSH1 0x40 DUP1 DUP5 KECCAK256 PUSH1 0x1 PUSH1 0x1 PUSH1 0xA0 SHL SUB SWAP4 SWAP1 SWAP4 AND DUP5 MSTORE SWAP2 SWAP1 MSTORE SWAP1 KECCAK256 SLOAD PUSH1 0xFF AND SWAP1 JUMP JUMPDEST PUSH1 0x3 SLOAD PUSH1 0x40 DUP1 MLOAD PUSH4 0x18160DDD PUSH1 0xE0 SHL DUP2 MSTORE SWAP1 MLOAD PUSH1 0x0 SWAP3 PUSH1 0x1 PUSH1 0x1 PUSH1 0xA0 SHL SUB AND SWAP2 PUSH4 0x18160DDD SWAP2 PUSH1 0x4 DUP1 DUP4 ADD SWAP3 PUSH1 0x20 SWAP3 SWAP2 SWAP1 DUP3 SWAP1 SUB ADD DUP2 DUP7 GAS STATICCALL ISZERO DUP1 ISZERO PUSH2 0x7F5 JUMPI RETURNDATASIZE PUSH1 0x0 DUP1 RETURNDATACOPY RETURNDATASIZE PUSH1 0x0 REVERT JUMPDEST PUSH1 0x0 DUP3 DUP2 MSTORE PUSH1 0x1 PUSH1 0x20 DUP2 SWAP1 MSTORE PUSH1 0x40 SWAP1 SWAP2 KECCAK256 ADD SLOAD PUSH2 0x8EE DUP2 PUSH2 0xBD0 JUMP JUMPDEST PUSH2 0x728 DUP4 DUP4 PUSH2 0xC48 JUMP JUMPDEST PUSH1 0x0 PUSH2 0x903 DUP2 PUSH2 0xBD0 JUMP JUMPDEST POP PUSH1 0x3 DUP1 SLOAD SWAP2 ISZERO ISZERO PUSH1 0x1 PUSH1 0xA8 SHL MUL PUSH1 0xFF PUSH1 0xA8 SHL NOT SWAP1 SWAP3 AND SWAP2 SWAP1 SWAP2 OR SWAP1 SSTORE JUMP JUMPDEST PUSH1 0x0 DUP1 SLOAD DUP2 SUB PUSH2 0x934 JUMPI POP PUSH1 0x0 PUSH2 0x9B7 JUMP JUMPDEST PUSH2 0x9B4 DUP6 DUP6 DUP1 DUP1 PUSH1 0x20 MUL PUSH1 0x20 ADD PUSH1 0x40 MLOAD SWAP1 DUP2 ADD PUSH1 0x40 MSTORE DUP1 SWAP4 SWAP3 SWAP2 SWAP1 DUP2 DUP2 MSTORE PUSH1 0x20 ADD DUP4 DUP4 PUSH1 0x20 MUL DUP1 DUP3 DUP5 CALLDATACOPY PUSH1 0x0 SWAP3 ADD DUP3 SWAP1 MSTORE POP SLOAD PUSH1 0x40 MLOAD PUSH12 0xFFFFFFFFFFFFFFFFFFFFFFFF NOT PUSH1 0x60 DUP12 SWAP1 SHL AND PUSH1 0x20 DUP3 ADD MSTORE PUSH1 0x34 DUP2 ADD DUP10 SWAP1 MSTORE SWAP1 SWAP4 POP PUSH1 0x54 ADD SWAP2 POP PUSH2 0x999 SWAP1 POP JUMP JUMPDEST PUSH1 0x40 MLOAD PUSH1 0x20 DUP2 DUP4 SUB SUB DUP2 MSTORE SWAP1 PUSH1 0x40 MSTORE DUP1 MLOAD SWAP1 PUSH1 0x20 ADD KECCAK256 PUSH2 0xCAF JUMP JUMPDEST SWAP1 POP JUMPDEST SWAP5 SWAP4 POP POP POP POP JUMP JUMPDEST PUSH1 0x3 SLOAD PUSH1 0x40 DUP1 MLOAD PUSH4 0x5C975ABB PUSH1 0xE0 SHL DUP2 MSTORE SWAP1 MLOAD PUSH1 0x0 SWAP3 PUSH1 0x1 PUSH1 0x1 PUSH1 0xA0 SHL SUB AND SWAP2 PUSH4 0x5C975ABB SWAP2 PUSH1 0x4 DUP1 DUP4 ADD SWAP3 PUSH1 0x20 SWAP3 SWAP2 SWAP1 DUP3 SWAP1 SUB ADD DUP2 DUP7 GAS STATICCALL ISZERO DUP1 ISZERO PUSH2 0xA09 JUMPI RETURNDATASIZE PUSH1 0x0 DUP1 RETURNDATACOPY RETURNDATASIZE PUSH1 0x0 REVERT JUMPDEST POP POP POP POP PUSH1 0x40 MLOAD RETURNDATASIZE PUSH1 0x1F NOT PUSH1 0x1F DUP3 ADD AND DUP3 ADD DUP1 PUSH1 0x40 MSTORE POP DUP2 ADD SWAP1 PUSH2 0x819 SWAP2 SWAP1 PUSH2 0xFEC JUMP JUMPDEST PUSH1 0x60 PUSH1 0x0 PUSH2 0xA3C DUP4 PUSH1 0x2 PUSH2 0x101F JUMP JUMPDEST PUSH2 0xA47 SWAP1 PUSH1 0x2 PUSH2 0x103E JUMP JUMPDEST PUSH8 0xFFFFFFFFFFFFFFFF DUP2 GT ISZERO PUSH2 0xA5F JUMPI PUSH2 0xA5F PUSH2 0xE0B JUMP JUMPDEST PUSH1 0x40 MLOAD SWAP1 DUP1 DUP3 MSTORE DUP1 PUSH1 0x1F ADD PUSH1 0x1F NOT AND PUSH1 0x20 ADD DUP3 ADD PUSH1 0x40 MSTORE DUP1 ISZERO PUSH2 0xA89 JUMPI PUSH1 0x20 DUP3 ADD DUP2 DUP1 CALLDATASIZE DUP4 CALLDATACOPY ADD SWAP1 POP JUMPDEST POP SWAP1 POP PUSH1 0x3 PUSH1 0xFC SHL DUP2 PUSH1 0x0 DUP2 MLOAD DUP2 LT PUSH2 0xAA4 JUMPI PUSH2 0xAA4 PUSH2 0x1056 JUMP JUMPDEST PUSH1 0x20 ADD ADD SWAP1 PUSH1 0x1 PUSH1 0x1 PUSH1 0xF8 SHL SUB NOT AND SWAP1 DUP2 PUSH1 0x0 BYTE SWAP1 MSTORE8 POP PUSH1 0xF PUSH1 0xFB SHL DUP2 PUSH1 0x1 DUP2 MLOAD DUP2 LT PUSH2 0xAD3 JUMPI PUSH2 0xAD3 PUSH2 0x1056 JUMP JUMPDEST PUSH1 0x20 ADD ADD SWAP1 PUSH1 0x1 PUSH1 0x1 PUSH1 0xF8 SHL SUB NOT AND SWAP1 DUP2 PUSH1 0x0 BYTE SWAP1 MSTORE8 POP PUSH1 0x0 PUSH2 0xAF7 DUP5 PUSH1 0x2 PUSH2 0x101F JUMP JUMPDEST PUSH2 0xB02 SWAP1 PUSH1 0x1 PUSH2 0x103E JUMP JUMPDEST SWAP1 POP JUMPDEST PUSH1 0x1 DUP2 GT ISZERO PUSH2 0xB7A JUMPI PUSH16 0x181899199A1A9B1B9C1CB0B131B232B3 PUSH1 0x81 SHL DUP6 PUSH1 0xF AND PUSH1 0x10 DUP2 LT PUSH2 0xB36 JUMPI PUSH2 0xB36 PUSH2 0x1056 JUMP JUMPDEST BYTE PUSH1 0xF8 SHL DUP3 DUP3 DUP2 MLOAD DUP2 LT PUSH2 0xB4C JUMPI PUSH2 0xB4C PUSH2 0x1056 JUMP JUMPDEST PUSH1 0x20 ADD ADD SWAP1 PUSH1 0x1 PUSH1 0x1 PUSH1 0xF8 SHL SUB NOT AND SWAP1 DUP2 PUSH1 0x0 BYTE SWAP1 MSTORE8 POP PUSH1 0x4 SWAP5 SWAP1 SWAP5 SHR SWAP4 PUSH2 0xB73 DUP2 PUSH2 0x106C JUMP JUMPDEST SWAP1 POP PUSH2 0xB05 JUMP JUMPDEST POP DUP4 ISZERO PUSH2 0xBC9 JUMPI PUSH1 0x40 MLOAD PUSH3 0x461BCD PUSH1 0xE5 SHL DUP2 MSTORE PUSH1 0x20 PUSH1 0x4 DUP3 ADD DUP2 SWAP1 MSTORE PUSH1 0x24 DUP3 ADD MSTORE PUSH32 0x537472696E67733A20686578206C656E67746820696E73756666696369656E74 PUSH1 0x44 DUP3 ADD MSTORE PUSH1 0x64 ADD PUSH2 0x45F JUMP JUMPDEST SWAP4 SWAP3 POP POP POP JUMP JUMPDEST PUSH2 0xBDA DUP2 CALLER PUSH2 0xCC5 JUMP JUMPDEST POP JUMP JUMPDEST PUSH2 0xBE7 DUP3 DUP3 PUSH2 0x85D JUMP JUMPDEST PUSH2 0x7A7 JUMPI PUSH1 0x0 DUP3 DUP2 MSTORE PUSH1 0x1 PUSH1 0x20 DUP2 DUP2 MSTORE PUSH1 0x40 DUP1 DUP5 KECCAK256 PUSH1 0x1 PUSH1 0x1 PUSH1 0xA0 SHL SUB DUP7 AND DUP1 DUP7 MSTORE SWAP3 MSTORE DUP1 DUP5 KECCAK256 DUP1 SLOAD PUSH1 0xFF NOT AND SWAP1 SWAP4 OR SWAP1 SWAP3 SSTORE SWAP1 MLOAD CALLER SWAP3 DUP6 SWAP2 PUSH32 0x2F8788117E7EFF1D82E926EC794901D17C78024A50270940304540A733656F0D SWAP2 SWAP1 LOG4 POP POP JUMP JUMPDEST PUSH2 0xC52 DUP3 DUP3 PUSH2 0x85D JUMP JUMPDEST ISZERO PUSH2 0x7A7 JUMPI PUSH1 0x0 DUP3 DUP2 MSTORE PUSH1 0x1 PUSH1 0x20 SWAP1 DUP2 MSTORE PUSH1 0x40 DUP1 DUP4 KECCAK256 PUSH1 0x1 PUSH1 0x1 PUSH1 0xA0 SHL SUB DUP6 AND DUP1 DUP6 MSTORE SWAP3 MSTORE DUP1 DUP4 KECCAK256 DUP1 SLOAD PUSH1 0xFF NOT AND SWAP1 SSTORE MLOAD CALLER SWAP3 DUP6 SWAP2 PUSH32 0xF6391F5C32D9C69D2A47EA670B442974B53935D1EDC7FD64EB21E047A839171B SWAP2 SWAP1 LOG4 POP POP JUMP JUMPDEST PUSH1 0x0 DUP3 PUSH2 0xCBC DUP6 DUP5 PUSH2 0xD29 JUMP JUMPDEST EQ SWAP5 SWAP4 POP POP POP POP JUMP JUMPDEST PUSH2 0xCCF DUP3 DUP3 PUSH2 0x85D JUMP JUMPDEST PUSH2 0x7A7 JUMPI PUSH2 0xCE7 DUP2 PUSH1 0x1 PUSH1 0x1 PUSH1 0xA0 SHL SUB AND PUSH1 0x14 PUSH2 0xA2D JUMP JUMPDEST PUSH2 0xCF2 DUP4 PUSH1 0x20 PUSH2 0xA2D JUMP JUMPDEST PUSH1 0x40 MLOAD PUSH1 0x20 ADD PUSH2 0xD03 SWAP3 SWAP2 SWAP1 PUSH2 0x10B3 JUMP JUMPDEST PUSH1 0x40 DUP1 MLOAD PUSH1 0x1F NOT DUP2 DUP5 SUB ADD DUP2 MSTORE SWAP1 DUP3 SWAP1 MSTORE PUSH3 0x461BCD PUSH1 0xE5 SHL DUP3 MSTORE PUSH2 0x45F SWAP2 PUSH1 0x4 ADD PUSH2 0x1128 JUMP JUMPDEST PUSH1 0x0 DUP2 DUP2 JUMPDEST DUP5 MLOAD DUP2 LT ISZERO PUSH2 0xD95 JUMPI PUSH1 0x0 DUP6 DUP3 DUP2 MLOAD DUP2 LT PUSH2 0xD4B JUMPI PUSH2 0xD4B PUSH2 0x1056 JUMP JUMPDEST PUSH1 0x20 MUL PUSH1 0x20 ADD ADD MLOAD SWAP1 POP DUP1 DUP4 GT PUSH2 0xD71 JUMPI PUSH1 0x0 DUP4 DUP2 MSTORE PUSH1 0x20 DUP3 SWAP1 MSTORE PUSH1 0x40 SWAP1 KECCAK256 SWAP3 POP PUSH2 0xD82 JUMP JUMPDEST PUSH1 0x0 DUP2 DUP2 MSTORE PUSH1 0x20 DUP5 SWAP1 MSTORE PUSH1 0x40 SWAP1 KECCAK256 SWAP3 POP JUMPDEST POP DUP1 PUSH2 0xD8D DUP2 PUSH2 0x115B JUMP JUMPDEST SWAP2 POP POP PUSH2 0xD2E JUMP JUMPDEST POP SWAP4 SWAP3 POP POP POP JUMP JUMPDEST PUSH1 0x0 PUSH1 0x20 DUP3 DUP5 SUB SLT ISZERO PUSH2 0xDAF JUMPI PUSH1 0x0 DUP1 REVERT JUMPDEST DUP2 CALLDATALOAD PUSH1 0x1 PUSH1 0x1 PUSH1 0xE0 SHL SUB NOT DUP2 AND DUP2 EQ PUSH2 0xBC9 JUMPI PUSH1 0x0 DUP1 REVERT JUMPDEST PUSH1 0x0 PUSH1 0x20 DUP3 DUP5 SUB SLT ISZERO PUSH2 0xDD9 JUMPI PUSH1 0x0 DUP1 REVERT JUMPDEST POP CALLDATALOAD SWAP2 SWAP1 POP JUMP JUMPDEST DUP1 ISZERO ISZERO DUP2 EQ PUSH2 0xBDA JUMPI PUSH1 0x0 DUP1 REVERT JUMPDEST PUSH1 0x0 PUSH1 0x20 DUP3 DUP5 SUB SLT ISZERO PUSH2 0xE00 JUMPI PUSH1 0x0 DUP1 REVERT JUMPDEST DUP2 CALLDATALOAD PUSH2 0xBC9 DUP2 PUSH2 0xDE0 JUMP JUMPDEST PUSH4 0x4E487B71 PUSH1 0xE0 SHL PUSH1 0x0 MSTORE PUSH1 0x41 PUSH1 0x4 MSTORE PUSH1 0x24 PUSH1 0x0 REVERT JUMPDEST PUSH1 0x0 DUP1 PUSH1 0x40 DUP4 DUP6 SUB SLT ISZERO PUSH2 0xE34 JUMPI PUSH1 0x0 DUP1 REVERT JUMPDEST DUP3 CALLDATALOAD PUSH8 0xFFFFFFFFFFFFFFFF DUP1 DUP3 GT ISZERO PUSH2 0xE4C JUMPI PUSH1 0x0 DUP1 REVERT JUMPDEST DUP2 DUP6 ADD SWAP2 POP DUP6 PUSH1 0x1F DUP4 ADD SLT PUSH2 0xE60 JUMPI PUSH1 0x0 DUP1 REVERT JUMPDEST DUP2 CALLDATALOAD PUSH1 0x20 DUP3 DUP3 GT ISZERO PUSH2 0xE74 JUMPI PUSH2 0xE74 PUSH2 0xE0B JUMP JUMPDEST DUP2 PUSH1 0x5 SHL PUSH1 0x40 MLOAD PUSH1 0x1F NOT PUSH1 0x3F DUP4 ADD AND DUP2 ADD DUP2 DUP2 LT DUP7 DUP3 GT OR ISZERO PUSH2 0xE99 JUMPI PUSH2 0xE99 PUSH2 0xE0B JUMP JUMPDEST PUSH1 0x40 MSTORE SWAP3 DUP4 MSTORE DUP2 DUP4 ADD SWAP4 POP DUP5 DUP2 ADD DUP3 ADD SWAP3 DUP10 DUP5 GT ISZERO PUSH2 0xEB7 JUMPI PUSH1 0x0 DUP1 REVERT JUMPDEST SWAP5 DUP3 ADD SWAP5 JUMPDEST DUP4 DUP7 LT ISZERO PUSH2 0xED5 JUMPI DUP6 CALLDATALOAD DUP6 MSTORE SWAP5 DUP3 ADD SWAP5 SWAP4 DUP3 ADD SWAP4 PUSH2 0xEBC JUMP JUMPDEST SWAP10 SWAP8 SWAP1 SWAP2 ADD CALLDATALOAD SWAP8 POP POP POP POP POP POP POP JUMP JUMPDEST PUSH1 0x1 PUSH1 0x1 PUSH1 0xA0 SHL SUB DUP2 AND DUP2 EQ PUSH2 0xBDA JUMPI PUSH1 0x0 DUP1 REVERT JUMPDEST PUSH1 0x0 DUP1 PUSH1 0x40 DUP4 DUP6 SUB SLT ISZERO PUSH2 0xF0D JUMPI PUSH1 0x0 DUP1 REVERT JUMPDEST DUP3 CALLDATALOAD SWAP2 POP PUSH1 0x20 DUP4 ADD CALLDATALOAD PUSH2 0xF1F DUP2 PUSH2 0xEE5 JUMP JUMPDEST DUP1 SWAP2 POP POP SWAP3 POP SWAP3 SWAP1 POP JUMP JUMPDEST PUSH1 0x0 PUSH1 0x20 DUP3 DUP5 SUB SLT ISZERO PUSH2 0xF3C JUMPI PUSH1 0x0 DUP1 REVERT JUMPDEST DUP2 CALLDATALOAD PUSH2 0xBC9 DUP2 PUSH2 0xEE5 JUMP JUMPDEST PUSH1 0x0 DUP1 PUSH1 0x0 DUP1 PUSH1 0x60 DUP6 DUP8 SUB SLT ISZERO PUSH2 0xF5D JUMPI PUSH1 0x0 DUP1 REVERT JUMPDEST DUP5 CALLDATALOAD PUSH8 0xFFFFFFFFFFFFFFFF DUP1 DUP3 GT ISZERO PUSH2 0xF75 JUMPI PUSH1 0x0 DUP1 REVERT JUMPDEST DUP2 DUP8 ADD SWAP2 POP DUP8 PUSH1 0x1F DUP4 ADD SLT PUSH2 0xF89 JUMPI PUSH1 0x0 DUP1 REVERT JUMPDEST DUP2 CALLDATALOAD DUP2 DUP2 GT ISZERO PUSH2 0xF98 JUMPI PUSH1 0x0 DUP1 REVERT JUMPDEST DUP9 PUSH1 0x20 DUP3 PUSH1 0x5 SHL DUP6 ADD ADD GT ISZERO PUSH2 0xFAD JUMPI PUSH1 0x0 DUP1 REVERT JUMPDEST PUSH1 0x20 SWAP3 DUP4 ADD SWAP7 POP SWAP5 POP POP DUP6 ADD CALLDATALOAD PUSH2 0xFC3 DUP2 PUSH2 0xEE5 JUMP JUMPDEST SWAP4 SWAP7 SWAP3 SWAP6 POP SWAP3 SWAP4 PUSH1 0x40 ADD CALLDATALOAD SWAP3 POP POP JUMP JUMPDEST PUSH1 0x0 PUSH1 0x20 DUP3 DUP5 SUB SLT ISZERO PUSH2 0xFE5 JUMPI PUSH1 0x0 DUP1 REVERT JUMPDEST POP MLOAD SWAP2 SWAP1 POP JUMP JUMPDEST PUSH1 0x0 PUSH1 0x20 DUP3 DUP5 SUB SLT ISZERO PUSH2 0xFFE JUMPI PUSH1 0x0 DUP1 REVERT JUMPDEST DUP2 MLOAD PUSH2 0xBC9 DUP2 PUSH2 0xDE0 JUMP JUMPDEST PUSH4 0x4E487B71 PUSH1 0xE0 SHL PUSH1 0x0 MSTORE PUSH1 0x11 PUSH1 0x4 MSTORE PUSH1 0x24 PUSH1 0x0 REVERT JUMPDEST PUSH1 0x0 DUP2 PUSH1 0x0 NOT DIV DUP4 GT DUP3 ISZERO ISZERO AND ISZERO PUSH2 0x1039 JUMPI PUSH2 0x1039 PUSH2 0x1009 JUMP JUMPDEST POP MUL SWAP1 JUMP JUMPDEST PUSH1 0x0 DUP3 NOT DUP3 GT ISZERO PUSH2 0x1051 JUMPI PUSH2 0x1051 PUSH2 0x1009 JUMP JUMPDEST POP ADD SWAP1 JUMP JUMPDEST PUSH4 0x4E487B71 PUSH1 0xE0 SHL PUSH1 0x0 MSTORE PUSH1 0x32 PUSH1 0x4 MSTORE PUSH1 0x24 PUSH1 0x0 REVERT JUMPDEST PUSH1 0x0 DUP2 PUSH2 0x107B JUMPI PUSH2 0x107B PUSH2 0x1009 JUMP JUMPDEST POP PUSH1 0x0 NOT ADD SWAP1 JUMP JUMPDEST PUSH1 0x0 JUMPDEST DUP4 DUP2 LT ISZERO PUSH2 0x109E JUMPI DUP2 DUP2 ADD MLOAD DUP4 DUP3 ADD MSTORE PUSH1 0x20 ADD PUSH2 0x1086 JUMP JUMPDEST DUP4 DUP2 GT ISZERO PUSH2 0x10AD JUMPI PUSH1 0x0 DUP5 DUP5 ADD MSTORE JUMPDEST POP POP POP POP JUMP JUMPDEST PUSH32 0x416363657373436F6E74726F6C3A206163636F756E7420000000000000000000 DUP2 MSTORE PUSH1 0x0 DUP4 MLOAD PUSH2 0x10EB DUP2 PUSH1 0x17 DUP6 ADD PUSH1 0x20 DUP9 ADD PUSH2 0x1083 JUMP JUMPDEST PUSH17 0x1034B99036B4B9B9B4B733903937B6329 PUSH1 0x7D SHL PUSH1 0x17 SWAP2 DUP5 ADD SWAP2 DUP3 ADD MSTORE DUP4 MLOAD PUSH2 0x111C DUP2 PUSH1 0x28 DUP5 ADD PUSH1 0x20 DUP9 ADD PUSH2 0x1083 JUMP JUMPDEST ADD PUSH1 0x28 ADD SWAP5 SWAP4 POP POP POP POP JUMP JUMPDEST PUSH1 0x20 DUP2 MSTORE PUSH1 0x0 DUP3 MLOAD DUP1 PUSH1 0x20 DUP5 ADD MSTORE PUSH2 0x1147 DUP2 PUSH1 0x40 DUP6 ADD PUSH1 0x20 DUP8 ADD PUSH2 0x1083 JUMP JUMPDEST PUSH1 0x1F ADD PUSH1 0x1F NOT AND SWAP2 SWAP1 SWAP2 ADD PUSH1 0x40 ADD SWAP3 SWAP2 POP POP JUMP JUMPDEST PUSH1 0x0 PUSH1 0x1 DUP3 ADD PUSH2 0x116D JUMPI PUSH2 0x116D PUSH2 0x1009 JUMP JUMPDEST POP PUSH1 0x1 ADD SWAP1 JUMP INVALID LOG2 PUSH5 0x6970667358 0x22 SLT KECCAK256 CALLDATASIZE 0x28 0xF9 SELFBALANCE MUL 0x1E LOG2 PUSH27 0x7B819F881FA5108C1BDA5376501F3DE8ED72184E4B25CFB264736F PUSH13 0x634300080F0033000000000000 "
				},
				"gasEstimates": {
					"creation": {
						"codeDepositCost": "904400",
						"executionCost": "infinite",
						"totalCost": "infinite"
					},
					"external": {
						"DEFAULT_ADMIN_ROLE()": "284",
						"changeFreeMintOpen(bool)": "infinite",
						"changeNagaKidsContract(address)": "infinite",
						"changeWhitelistMintOpen(bool)": "infinite",
						"getMaxSupply()": "infinite",
						"getRoleAdmin(bytes32)": "2496",
						"getTotalSupply()": "infinite",
						"grantRole(bytes32,address)": "infinite",
						"hasRole(bytes32,address)": "2698",
						"isFreeMintOpen()": "2427",
						"isPause()": "infinite",
						"isWhitelist(bytes32[],address,uint256)": "infinite",
						"isWhitelistOpen()": "2383",
						"merkleRoot()": "2318",
						"nagaKidsContract()": "2405",
						"renounceRole(bytes32,address)": "29067",
						"revokeRole(bytes32,address)": "infinite",
						"setMerkleRoot(bytes32)": "infinite",
						"supportsInterface(bytes4)": "450",
						"whitelistMint(bytes32[],uint256)": "infinite"
					}
				},
				"methodIdentifiers": {
					"DEFAULT_ADMIN_ROLE()": "a217fddf",
					"changeFreeMintOpen(bool)": "28438f68",
					"changeNagaKidsContract(address)": "61aec205",
					"changeWhitelistMintOpen(bool)": "dd31a7ba",
					"getMaxSupply()": "4c0f38c2",
					"getRoleAdmin(bytes32)": "248a9ca3",
					"getTotalSupply()": "c4e41b22",
					"grantRole(bytes32,address)": "2f2ff15d",
					"hasRole(bytes32,address)": "91d14854",
					"isFreeMintOpen()": "a6f5f014",
					"isPause()": "ff0938a7",
					"isWhitelist(bytes32[],address,uint256)": "feb2386e",
					"isWhitelistOpen()": "94f4504d",
					"merkleRoot()": "2eb4a7ab",
					"nagaKidsContract()": "27c25c20",
					"renounceRole(bytes32,address)": "36568abe",
					"revokeRole(bytes32,address)": "d547741f",
					"setMerkleRoot(bytes32)": "7cb64759",
					"supportsInterface(bytes4)": "01ffc9a7",
					"whitelistMint(bytes32[],uint256)": "2904e6d9"
				}
			},
			"storageLayout": {
				"storage": [
					{
						"astId": 1146,
						"contract": "MintNagaKids.sol:MintNagaKids",
						"label": "merkleRoot",
						"offset": 0,
						"slot": "0",
						"type": "t_bytes32"
					},
					{
						"astId": 24,
						"contract": "MintNagaKids.sol:MintNagaKids",
						"label": "_roles",
						"offset": 0,
						"slot": "1",
						"type": "t_mapping(t_bytes32,t_struct(RoleData)19_storage)"
					},
					{
						"astId": 403,
						"contract": "MintNagaKids.sol:MintNagaKids",
						"label": "_status",
						"offset": 0,
						"slot": "2",
						"type": "t_uint256"
					},
					{
						"astId": 973,
						"contract": "MintNagaKids.sol:MintNagaKids",
						"label": "nagaKidsContract",
						"offset": 0,
						"slot": "3",
						"type": "t_contract(INagaKidsNFT)958"
					},
					{
						"astId": 975,
						"contract": "MintNagaKids.sol:MintNagaKids",
						"label": "isFreeMintOpen",
						"offset": 20,
						"slot": "3",
						"type": "t_bool"
					},
					{
						"astId": 977,
						"contract": "MintNagaKids.sol:MintNagaKids",
						"label": "isWhitelistOpen",
						"offset": 21,
						"slot": "3",
						"type": "t_bool"
					}
				],
				"types": {
					"t_address": {
						"encoding": "inplace",
						"label": "address",
						"numberOfBytes": "20"
					},
					"t_bool": {
						"encoding": "inplace",
						"label": "bool",
						"numberOfBytes": "1"
					},
					"t_bytes32": {
						"encoding": "inplace",
						"label": "bytes32",
						"numberOfBytes": "32"
					},
					"t_contract(INagaKidsNFT)958": {
						"encoding": "inplace",
						"label": "contract INagaKidsNFT",
						"numberOfBytes": "20"
					},
					"t_mapping(t_address,t_bool)": {
						"encoding": "mapping",
						"key": "t_address",
						"label": "mapping(address => bool)",
						"numberOfBytes": "32",
						"value": "t_bool"
					},
					"t_mapping(t_bytes32,t_struct(RoleData)19_storage)": {
						"encoding": "mapping",
						"key": "t_bytes32",
						"label": "mapping(bytes32 => struct AccessControl.RoleData)",
						"numberOfBytes": "32",
						"value": "t_struct(RoleData)19_storage"
					},
					"t_struct(RoleData)19_storage": {
						"encoding": "inplace",
						"label": "struct AccessControl.RoleData",
						"members": [
							{
								"astId": 16,
								"contract": "MintNagaKids.sol:MintNagaKids",
								"label": "members",
								"offset": 0,
								"slot": "0",
								"type": "t_mapping(t_address,t_bool)"
							},
							{
								"astId": 18,
								"contract": "MintNagaKids.sol:MintNagaKids",
								"label": "adminRole",
								"offset": 0,
								"slot": "1",
								"type": "t_bytes32"
							}
						],
						"numberOfBytes": "64"
					},
					"t_uint256": {
						"encoding": "inplace",
						"label": "uint256",
						"numberOfBytes": "32"
					}
				}
			},
			"userdoc": {
				"kind": "user",
				"methods": {},
				"version": 1
			}
		}
	}
}