{
	"MintNagaKids.sol": {
		"MintNagaKids": {
			"abi": [
				{
					"inputs": [
						{
							"internalType": "contract INagaKidsNFT",
							"name": "_nagaKids",
							"type": "address"
						},
						{
							"internalType": "bytes32",
							"name": "_merkleRoot",
							"type": "bytes32"
						}
					],
					"stateMutability": "nonpayable",
					"type": "constructor"
				},
				{
					"anonymous": false,
					"inputs": [
						{
							"indexed": true,
							"internalType": "bytes32",
							"name": "role",
							"type": "bytes32"
						},
						{
							"indexed": true,
							"internalType": "bytes32",
							"name": "previousAdminRole",
							"type": "bytes32"
						},
						{
							"indexed": true,
							"internalType": "bytes32",
							"name": "newAdminRole",
							"type": "bytes32"
						}
					],
					"name": "RoleAdminChanged",
					"type": "event"
				},
				{
					"anonymous": false,
					"inputs": [
						{
							"indexed": true,
							"internalType": "bytes32",
							"name": "role",
							"type": "bytes32"
						},
						{
							"indexed": true,
							"internalType": "address",
							"name": "account",
							"type": "address"
						},
						{
							"indexed": true,
							"internalType": "address",
							"name": "sender",
							"type": "address"
						}
					],
					"name": "RoleGranted",
					"type": "event"
				},
				{
					"anonymous": false,
					"inputs": [
						{
							"indexed": true,
							"internalType": "bytes32",
							"name": "role",
							"type": "bytes32"
						},
						{
							"indexed": true,
							"internalType": "address",
							"name": "account",
							"type": "address"
						},
						{
							"indexed": true,
							"internalType": "address",
							"name": "sender",
							"type": "address"
						}
					],
					"name": "RoleRevoked",
					"type": "event"
				},
				{
					"anonymous": false,
					"inputs": [
						{
							"indexed": false,
							"internalType": "address",
							"name": "user",
							"type": "address"
						},
						{
							"indexed": false,
							"internalType": "uint256",
							"name": "amount",
							"type": "uint256"
						}
					],
					"name": "WhitelistMinted",
					"type": "event"
				},
				{
					"inputs": [],
					"name": "DEFAULT_ADMIN_ROLE",
					"outputs": [
						{
							"internalType": "bytes32",
							"name": "",
							"type": "bytes32"
						}
					],
					"stateMutability": "view",
					"type": "function"
				},
				{
					"inputs": [
						{
							"internalType": "contract INagaKidsNFT",
							"name": "_nagaKids",
							"type": "address"
						}
					],
					"name": "changeNagaKidsContract",
					"outputs": [],
					"stateMutability": "nonpayable",
					"type": "function"
				},
				{
					"inputs": [
						{
							"internalType": "bool",
							"name": "_isOpen",
							"type": "bool"
						}
					],
					"name": "changePublicOpen",
					"outputs": [],
					"stateMutability": "nonpayable",
					"type": "function"
				},
				{
					"inputs": [
						{
							"internalType": "bool",
							"name": "_isOpen",
							"type": "bool"
						}
					],
					"name": "changeWhitelistMintOpen",
					"outputs": [],
					"stateMutability": "nonpayable",
					"type": "function"
				},
				{
					"inputs": [],
					"name": "getMaxSupply",
					"outputs": [
						{
							"internalType": "uint256",
							"name": "",
							"type": "uint256"
						}
					],
					"stateMutability": "view",
					"type": "function"
				},
				{
					"inputs": [
						{
							"internalType": "bytes32",
							"name": "role",
							"type": "bytes32"
						}
					],
					"name": "getRoleAdmin",
					"outputs": [
						{
							"internalType": "bytes32",
							"name": "",
							"type": "bytes32"
						}
					],
					"stateMutability": "view",
					"type": "function"
				},
				{
					"inputs": [],
					"name": "getTotalSupply",
					"outputs": [
						{
							"internalType": "uint256",
							"name": "",
							"type": "uint256"
						}
					],
					"stateMutability": "view",
					"type": "function"
				},
				{
					"inputs": [
						{
							"internalType": "bytes32",
							"name": "role",
							"type": "bytes32"
						},
						{
							"internalType": "address",
							"name": "account",
							"type": "address"
						}
					],
					"name": "grantRole",
					"outputs": [],
					"stateMutability": "nonpayable",
					"type": "function"
				},
				{
					"inputs": [
						{
							"internalType": "bytes32",
							"name": "role",
							"type": "bytes32"
						},
						{
							"internalType": "address",
							"name": "account",
							"type": "address"
						}
					],
					"name": "hasRole",
					"outputs": [
						{
							"internalType": "bool",
							"name": "",
							"type": "bool"
						}
					],
					"stateMutability": "view",
					"type": "function"
				},
				{
					"inputs": [],
					"name": "isPause",
					"outputs": [
						{
							"internalType": "bool",
							"name": "",
							"type": "bool"
						}
					],
					"stateMutability": "view",
					"type": "function"
				},
				{
					"inputs": [],
					"name": "isPublicOpen",
					"outputs": [
						{
							"internalType": "bool",
							"name": "",
							"type": "bool"
						}
					],
					"stateMutability": "view",
					"type": "function"
				},
				{
					"inputs": [
						{
							"internalType": "address",
							"name": "_user",
							"type": "address"
						}
					],
					"name": "isWhitelistMinted",
					"outputs": [
						{
							"internalType": "bool",
							"name": "",
							"type": "bool"
						}
					],
					"stateMutability": "view",
					"type": "function"
				},
				{
					"inputs": [
						{
							"internalType": "address",
							"name": "_user",
							"type": "address"
						}
					],
					"name": "isWhitelistMintedAmount",
					"outputs": [
						{
							"internalType": "uint256",
							"name": "",
							"type": "uint256"
						}
					],
					"stateMutability": "view",
					"type": "function"
				},
				{
					"inputs": [],
					"name": "isWhitelistOpen",
					"outputs": [
						{
							"internalType": "bool",
							"name": "",
							"type": "bool"
						}
					],
					"stateMutability": "view",
					"type": "function"
				},
				{
					"inputs": [],
					"name": "merkleRoot",
					"outputs": [
						{
							"internalType": "bytes32",
							"name": "",
							"type": "bytes32"
						}
					],
					"stateMutability": "view",
					"type": "function"
				},
				{
					"inputs": [],
					"name": "nagaKidsContract",
					"outputs": [
						{
							"internalType": "contract INagaKidsNFT",
							"name": "",
							"type": "address"
						}
					],
					"stateMutability": "view",
					"type": "function"
				},
				{
					"inputs": [
						{
							"internalType": "bytes32",
							"name": "role",
							"type": "bytes32"
						},
						{
							"internalType": "address",
							"name": "account",
							"type": "address"
						}
					],
					"name": "renounceRole",
					"outputs": [],
					"stateMutability": "nonpayable",
					"type": "function"
				},
				{
					"inputs": [
						{
							"internalType": "bytes32",
							"name": "role",
							"type": "bytes32"
						},
						{
							"internalType": "address",
							"name": "account",
							"type": "address"
						}
					],
					"name": "revokeRole",
					"outputs": [],
					"stateMutability": "nonpayable",
					"type": "function"
				},
				{
					"inputs": [
						{
							"internalType": "bytes32",
							"name": "_merkleRoot",
							"type": "bytes32"
						}
					],
					"name": "setMerkleRoot",
					"outputs": [],
					"stateMutability": "nonpayable",
					"type": "function"
				},
				{
					"inputs": [
						{
							"internalType": "bytes4",
							"name": "interfaceId",
							"type": "bytes4"
						}
					],
					"name": "supportsInterface",
					"outputs": [
						{
							"internalType": "bool",
							"name": "",
							"type": "bool"
						}
					],
					"stateMutability": "view",
					"type": "function"
				},
				{
					"inputs": [
						{
							"internalType": "bytes32[]",
							"name": "_proofMerkle",
							"type": "bytes32[]"
						},
						{
							"internalType": "uint256",
							"name": "_amount",
							"type": "uint256"
						}
					],
					"name": "whitelistMint",
					"outputs": [],
					"stateMutability": "payable",
					"type": "function"
				}
			],
			"devdoc": {
				"kind": "dev",
				"methods": {
					"getRoleAdmin(bytes32)": {
						"details": "Returns the admin role that controls `role`. See {grantRole} and {revokeRole}. To change a role's admin, use {_setRoleAdmin}."
					},
					"grantRole(bytes32,address)": {
						"details": "Grants `role` to `account`. If `account` had not been already granted `role`, emits a {RoleGranted} event. Requirements: - the caller must have ``role``'s admin role."
					},
					"hasRole(bytes32,address)": {
						"details": "Returns `true` if `account` has been granted `role`."
					},
					"renounceRole(bytes32,address)": {
						"details": "Revokes `role` from the calling account. Roles are often managed via {grantRole} and {revokeRole}: this function's purpose is to provide a mechanism for accounts to lose their privileges if they are compromised (such as when a trusted device is misplaced). If the calling account had been revoked `role`, emits a {RoleRevoked} event. Requirements: - the caller must be `account`."
					},
					"revokeRole(bytes32,address)": {
						"details": "Revokes `role` from `account`. If `account` had been granted `role`, emits a {RoleRevoked} event. Requirements: - the caller must have ``role``'s admin role."
					},
					"supportsInterface(bytes4)": {
						"details": "See {IERC165-supportsInterface}."
					}
				},
				"version": 1
			},
			"evm": {
				"assembly": "    /* \"MintNagaKids.sol\":244:3033  contract MintNagaKids is Whitelist, AccessControl, ReentrancyGuard {... */\n  mstore(0x40, 0x80)\n    /* \"MintNagaKids.sol\":703:905  constructor(INagaKidsNFT _nagaKids,bytes32 _merkleRoot) {... */\n  callvalue\n  dup1\n  iszero\n  tag_1\n  jumpi\n  0x00\n  dup1\n  revert\ntag_1:\n  pop\n  mload(0x40)\n  sub(codesize, bytecodeSize)\n  dup1\n  bytecodeSize\n  dup4\n  codecopy\n  dup2\n  add\n  0x40\n  dup2\n  swap1\n  mstore\n  tag_2\n  swap2\n  tag_3\n  jump\t// in\ntag_2:\n    /* \"@openzeppelin/contracts/security/ReentrancyGuard.sol\":1701:1702  1 */\n  0x01\n    /* \"@openzeppelin/contracts/security/ReentrancyGuard.sol\":1806:1813  _status */\n  0x02\n    /* \"@openzeppelin/contracts/security/ReentrancyGuard.sol\":1806:1828  _status = _NOT_ENTERED */\n  sstore\n    /* \"MintNagaKids.sol\":772:814  _grantRole(DEFAULT_ADMIN_ROLE, msg.sender) */\n  tag_8\n    /* \"@openzeppelin/contracts/access/AccessControl.sol\":2072:2076  0x00 */\n  0x00\n    /* \"MintNagaKids.sol\":803:813  msg.sender */\n  caller\n    /* \"MintNagaKids.sol\":772:782  _grantRole */\n  tag_9\n    /* \"MintNagaKids.sol\":772:814  _grantRole(DEFAULT_ADMIN_ROLE, msg.sender) */\n  jump\t// in\ntag_8:\n    /* \"MintNagaKids.sol\":825:858  changeNagaKidsContract(_nagaKids) */\n  tag_10\n    /* \"MintNagaKids.sol\":848:857  _nagaKids */\n  dup3\n    /* \"MintNagaKids.sol\":825:847  changeNagaKidsContract */\n  tag_11\n    /* \"MintNagaKids.sol\":825:858  changeNagaKidsContract(_nagaKids) */\n  jump\t// in\ntag_10:\n    /* \"MintNagaKids.sol\":869:895  setMerkleRoot(_merkleRoot) */\n  tag_12\n    /* \"MintNagaKids.sol\":883:894  _merkleRoot */\n  dup2\n    /* \"MintNagaKids.sol\":869:882  setMerkleRoot */\n  tag_13\n    /* \"MintNagaKids.sol\":869:895  setMerkleRoot(_merkleRoot) */\n  jump\t// in\ntag_12:\n    /* \"MintNagaKids.sol\":703:905  constructor(INagaKidsNFT _nagaKids,bytes32 _merkleRoot) {... */\n  pop\n  pop\n    /* \"MintNagaKids.sol\":244:3033  contract MintNagaKids is Whitelist, AccessControl, ReentrancyGuard {... */\n  jump(tag_74)\n    /* \"@openzeppelin/contracts/access/AccessControl.sol\":7244:7477  function _grantRole(bytes32 role, address account) internal virtual {... */\ntag_9:\n    /* \"@openzeppelin/contracts/access/AccessControl.sol\":2981:2985  bool */\n  0x00\n    /* \"@openzeppelin/contracts/access/AccessControl.sol\":3004:3016  _roles[role] */\n  dup3\n  dup2\n  mstore\n    /* \"@openzeppelin/contracts/access/AccessControl.sol\":3004:3010  _roles */\n  0x01\n    /* \"@openzeppelin/contracts/access/AccessControl.sol\":3004:3016  _roles[role] */\n  0x20\n  swap1\n  dup2\n  mstore\n  0x40\n  dup1\n  dup4\n  keccak256\n  sub(shl(0xa0, 0x01), 0x01)\n    /* \"@openzeppelin/contracts/access/AccessControl.sol\":3004:3033  _roles[role].members[account] */\n  dup6\n  and\n  dup5\n  mstore\n  swap1\n  swap2\n  mstore\n  swap1\n  keccak256\n  sload\n  0xff\n  and\n    /* \"@openzeppelin/contracts/access/AccessControl.sol\":7322:7471  if (!hasRole(role, account)) {... */\n  tag_18\n  jumpi\n    /* \"@openzeppelin/contracts/access/AccessControl.sol\":7365:7377  _roles[role] */\n  0x00\n  dup3\n  dup2\n  mstore\n    /* \"@openzeppelin/contracts/access/AccessControl.sol\":7397:7401  true */\n  0x01\n    /* \"@openzeppelin/contracts/access/AccessControl.sol\":7365:7377  _roles[role] */\n  0x20\n  dup2\n  dup2\n  mstore\n  0x40\n  dup1\n  dup5\n  keccak256\n  sub(shl(0xa0, 0x01), 0x01)\n    /* \"@openzeppelin/contracts/access/AccessControl.sol\":7365:7394  _roles[role].members[account] */\n  dup7\n  and\n  dup1\n  dup7\n  mstore\n  swap3\n  mstore\n  dup1\n  dup5\n  keccak256\n    /* \"@openzeppelin/contracts/access/AccessControl.sol\":7365:7401  _roles[role].members[account] = true */\n  dup1\n  sload\n  not(0xff)\n  and\n  swap1\n  swap4\n  or\n  swap1\n  swap3\n  sstore\n    /* \"@openzeppelin/contracts/access/AccessControl.sol\":7420:7460  RoleGranted(role, account, _msgSender()) */\n  swap1\n  mload\n    /* \"@openzeppelin/contracts/utils/Context.sol\":719:729  msg.sender */\n  caller\n  swap3\n    /* \"@openzeppelin/contracts/access/AccessControl.sol\":7365:7377  _roles[role] */\n  dup6\n  swap2\n    /* \"@openzeppelin/contracts/access/AccessControl.sol\":7420:7460  RoleGranted(role, account, _msgSender()) */\n  0x2f8788117e7eff1d82e926ec794901d17c78024a50270940304540a733656f0d\n  swap2\n    /* \"@openzeppelin/contracts/access/AccessControl.sol\":7365:7377  _roles[role] */\n  swap1\n    /* \"@openzeppelin/contracts/access/AccessControl.sol\":7420:7460  RoleGranted(role, account, _msgSender()) */\n  log4\n    /* \"@openzeppelin/contracts/access/AccessControl.sol\":7322:7471  if (!hasRole(role, account)) {... */\ntag_18:\n    /* \"@openzeppelin/contracts/access/AccessControl.sol\":7244:7477  function _grantRole(bytes32 role, address account) internal virtual {... */\n  pop\n  pop\n  jump\t// out\n    /* \"MintNagaKids.sol\":1020:1159  function changeNagaKidsContract(INagaKidsNFT _nagaKids) public onlyRole(DEFAULT_ADMIN_ROLE) {... */\ntag_11:\n    /* \"@openzeppelin/contracts/access/AccessControl.sol\":2072:2076  0x00 */\n  0x00\n    /* \"@openzeppelin/contracts/access/AccessControl.sol\":2505:2521  _checkRole(role) */\n  tag_22\n    /* \"@openzeppelin/contracts/access/AccessControl.sol\":2072:2076  0x00 */\n  dup2\n    /* \"@openzeppelin/contracts/access/AccessControl.sol\":2505:2515  _checkRole */\n  tag_23\n    /* \"@openzeppelin/contracts/access/AccessControl.sol\":2505:2521  _checkRole(role) */\n  jump\t// in\ntag_22:\n  pop\n    /* \"MintNagaKids.sol\":1123:1139  nagaKidsContract */\n  0x03\n    /* \"MintNagaKids.sol\":1123:1151  nagaKidsContract = _nagaKids */\n  dup1\n  sload\n  not(sub(shl(0xa0, 0x01), 0x01))\n  and\n  sub(shl(0xa0, 0x01), 0x01)\n  swap3\n  swap1\n  swap3\n  and\n  swap2\n  swap1\n  swap2\n  or\n  swap1\n  sstore\n    /* \"MintNagaKids.sol\":1020:1159  function changeNagaKidsContract(INagaKidsNFT _nagaKids) public onlyRole(DEFAULT_ADMIN_ROLE) {... */\n  jump\t// out\n    /* \"MintNagaKids.sol\":1431:1554  function setMerkleRoot(bytes32 _merkleRoot) public onlyRole(DEFAULT_ADMIN_ROLE) {... */\ntag_13:\n    /* \"@openzeppelin/contracts/access/AccessControl.sol\":2072:2076  0x00 */\n  0x00\n    /* \"@openzeppelin/contracts/access/AccessControl.sol\":2505:2521  _checkRole(role) */\n  tag_26\n    /* \"@openzeppelin/contracts/access/AccessControl.sol\":2072:2076  0x00 */\n  dup2\n    /* \"@openzeppelin/contracts/access/AccessControl.sol\":2505:2515  _checkRole */\n  tag_23\n    /* \"@openzeppelin/contracts/access/AccessControl.sol\":2505:2521  _checkRole(role) */\n  jump\t// in\ntag_26:\n  pop\n    /* \"MintNagaKids.sol\":1522:1532  merkleRoot */\n  0x00\n    /* \"MintNagaKids.sol\":1522:1546  merkleRoot = _merkleRoot */\n  sstore\n    /* \"MintNagaKids.sol\":1431:1554  function setMerkleRoot(bytes32 _merkleRoot) public onlyRole(DEFAULT_ADMIN_ROLE) {... */\n  jump\t// out\n    /* \"@openzeppelin/contracts/access/AccessControl.sol\":3334:3437  function _checkRole(bytes32 role) internal view virtual {... */\ntag_23:\n    /* \"@openzeppelin/contracts/access/AccessControl.sol\":3400:3430  _checkRole(role, _msgSender()) */\n  tag_31\n    /* \"@openzeppelin/contracts/access/AccessControl.sol\":3411:3415  role */\n  dup2\n    /* \"@openzeppelin/contracts/utils/Context.sol\":719:729  msg.sender */\n  caller\n    /* \"@openzeppelin/contracts/access/AccessControl.sol\":3400:3410  _checkRole */\n  tag_33\n    /* \"@openzeppelin/contracts/access/AccessControl.sol\":3400:3430  _checkRole(role, _msgSender()) */\n  jump\t// in\ntag_31:\n    /* \"@openzeppelin/contracts/access/AccessControl.sol\":3334:3437  function _checkRole(bytes32 role) internal view virtual {... */\n  pop\n  jump\t// out\n    /* \"@openzeppelin/contracts/access/AccessControl.sol\":3718:4210  function _checkRole(bytes32 role, address account) internal view virtual {... */\ntag_33:\n    /* \"@openzeppelin/contracts/access/AccessControl.sol\":2981:2985  bool */\n  0x00\n    /* \"@openzeppelin/contracts/access/AccessControl.sol\":3004:3016  _roles[role] */\n  dup3\n  dup2\n  mstore\n    /* \"@openzeppelin/contracts/access/AccessControl.sol\":3004:3010  _roles */\n  0x01\n    /* \"@openzeppelin/contracts/access/AccessControl.sol\":3004:3016  _roles[role] */\n  0x20\n  swap1\n  dup2\n  mstore\n  0x40\n  dup1\n  dup4\n  keccak256\n  sub(shl(0xa0, 0x01), 0x01)\n    /* \"@openzeppelin/contracts/access/AccessControl.sol\":3004:3033  _roles[role].members[account] */\n  dup6\n  and\n  dup5\n  mstore\n  swap1\n  swap2\n  mstore\n  swap1\n  keccak256\n  sload\n  0xff\n  and\n    /* \"@openzeppelin/contracts/access/AccessControl.sol\":3801:4204  if (!hasRole(role, account)) {... */\n  tag_18\n  jumpi\n    /* \"@openzeppelin/contracts/access/AccessControl.sol\":3989:4030  Strings.toHexString(uint160(account), 20) */\n  tag_37\n    /* \"@openzeppelin/contracts/access/AccessControl.sol\":4017:4024  account */\n  dup2\n  sub(shl(0xa0, 0x01), 0x01)\n    /* \"@openzeppelin/contracts/access/AccessControl.sol\":3989:4030  Strings.toHexString(uint160(account), 20) */\n  and\n    /* \"@openzeppelin/contracts/access/AccessControl.sol\":4027:4029  20 */\n  0x14\n    /* \"@openzeppelin/contracts/access/AccessControl.sol\":3989:4008  Strings.toHexString */\n  or(tag_0_125, shl(0x20, tag_38))\n    /* \"@openzeppelin/contracts/access/AccessControl.sol\":3989:4030  Strings.toHexString(uint160(account), 20) */\n  0x20\n  shr\n  jump\t// in\ntag_37:\n    /* \"@openzeppelin/contracts/access/AccessControl.sol\":4101:4139  Strings.toHexString(uint256(role), 32) */\n  tag_39\n    /* \"@openzeppelin/contracts/access/AccessControl.sol\":4129:4133  role */\n  dup4\n    /* \"@openzeppelin/contracts/access/AccessControl.sol\":4136:4138  32 */\n  0x20\n    /* \"@openzeppelin/contracts/access/AccessControl.sol\":4101:4120  Strings.toHexString */\n  tag_0_125\n  tag_38\n  dup3\n  shl\n  or\n    /* \"@openzeppelin/contracts/access/AccessControl.sol\":4101:4139  Strings.toHexString(uint256(role), 32) */\n  dup2\n  shr\n  jump\t// in\ntag_39:\n    /* \"@openzeppelin/contracts/access/AccessControl.sol\":3896:4161  abi.encodePacked(... */\n  add(0x20, mload(0x40))\n  tag_40\n  swap3\n  swap2\n  swap1\n  tag_41\n  jump\t// in\ntag_40:\n  0x40\n  dup1\n  mload\n  not(0x1f)\n  dup2\n  dup5\n  sub\n  add\n  dup2\n  mstore\n  swap1\n  dup3\n  swap1\n  mstore\n  shl(0xe5, 0x461bcd)\n    /* \"@openzeppelin/contracts/access/AccessControl.sol\":3844:4193  revert(... */\n  dup3\n  mstore\n  tag_42\n  swap2\n  0x04\n  add\n  tag_43\n  jump\t// in\ntag_42:\n  mload(0x40)\n  dup1\n  swap2\n  sub\n  swap1\n  revert\n    /* \"@openzeppelin/contracts/utils/Strings.sol\":1588:2029  function toHexString(uint256 value, uint256 length) internal pure returns (string memory) {... */\ntag_38:\n    /* \"@openzeppelin/contracts/utils/Strings.sol\":1663:1676  string memory */\n  0x60\n    /* \"@openzeppelin/contracts/utils/Strings.sol\":1688:1707  bytes memory buffer */\n  0x00\n    /* \"@openzeppelin/contracts/utils/Strings.sol\":1720:1730  2 * length */\n  tag_45\n    /* \"@openzeppelin/contracts/utils/Strings.sol\":1724:1730  length */\n  dup4\n    /* \"@openzeppelin/contracts/utils/Strings.sol\":1720:1721  2 */\n  0x02\n    /* \"@openzeppelin/contracts/utils/Strings.sol\":1720:1730  2 * length */\n  tag_46\n  jump\t// in\ntag_45:\n    /* \"@openzeppelin/contracts/utils/Strings.sol\":1720:1734  2 * length + 2 */\n  tag_47\n  swap1\n    /* \"@openzeppelin/contracts/utils/Strings.sol\":1733:1734  2 */\n  0x02\n    /* \"@openzeppelin/contracts/utils/Strings.sol\":1720:1734  2 * length + 2 */\n  tag_48\n  jump\t// in\ntag_47:\n  sub(shl(0x40, 0x01), 0x01)\n    /* \"@openzeppelin/contracts/utils/Strings.sol\":1710:1735  new bytes(2 * length + 2) */\n  dup2\n  gt\n  iszero\n  tag_50\n  jumpi\n  tag_50\n  tag_51\n  jump\t// in\ntag_50:\n  mload(0x40)\n  swap1\n  dup1\n  dup3\n  mstore\n  dup1\n  0x1f\n  add\n  not(0x1f)\n  and\n  0x20\n  add\n  dup3\n  add\n  0x40\n  mstore\n  dup1\n  iszero\n  tag_52\n  jumpi\n  0x20\n  dup3\n  add\n  dup2\n  dup1\n  calldatasize\n  dup4\n  calldatacopy\n  add\n  swap1\n  pop\ntag_52:\n  pop\n    /* \"@openzeppelin/contracts/utils/Strings.sol\":1688:1735  bytes memory buffer = new bytes(2 * length + 2) */\n  swap1\n  pop\n  shl(0xfc, 0x03)\n    /* \"@openzeppelin/contracts/utils/Strings.sol\":1745:1751  buffer */\n  dup2\n    /* \"@openzeppelin/contracts/utils/Strings.sol\":1752:1753  0 */\n  0x00\n    /* \"@openzeppelin/contracts/utils/Strings.sol\":1745:1754  buffer[0] */\n  dup2\n  mload\n  dup2\n  lt\n  tag_54\n  jumpi\n  tag_54\n  tag_55\n  jump\t// in\ntag_54:\n  0x20\n  add\n  add\n    /* \"@openzeppelin/contracts/utils/Strings.sol\":1745:1760  buffer[0] = \"0\" */\n  swap1\n  not(sub(shl(0xf8, 0x01), 0x01))\n  and\n  swap1\n  dup2\n  0x00\n  byte\n  swap1\n  mstore8\n  pop\n  shl(0xfb, 0x0f)\n    /* \"@openzeppelin/contracts/utils/Strings.sol\":1770:1776  buffer */\n  dup2\n    /* \"@openzeppelin/contracts/utils/Strings.sol\":1777:1778  1 */\n  0x01\n    /* \"@openzeppelin/contracts/utils/Strings.sol\":1770:1779  buffer[1] */\n  dup2\n  mload\n  dup2\n  lt\n  tag_57\n  jumpi\n  tag_57\n  tag_55\n  jump\t// in\ntag_57:\n  0x20\n  add\n  add\n    /* \"@openzeppelin/contracts/utils/Strings.sol\":1770:1785  buffer[1] = \"x\" */\n  swap1\n  not(sub(shl(0xf8, 0x01), 0x01))\n  and\n  swap1\n  dup2\n  0x00\n  byte\n  swap1\n  mstore8\n  pop\n    /* \"@openzeppelin/contracts/utils/Strings.sol\":1800:1809  uint256 i */\n  0x00\n    /* \"@openzeppelin/contracts/utils/Strings.sol\":1812:1822  2 * length */\n  tag_61\n    /* \"@openzeppelin/contracts/utils/Strings.sol\":1816:1822  length */\n  dup5\n    /* \"@openzeppelin/contracts/utils/Strings.sol\":1812:1813  2 */\n  0x02\n    /* \"@openzeppelin/contracts/utils/Strings.sol\":1812:1822  2 * length */\n  tag_46\n  jump\t// in\ntag_61:\n    /* \"@openzeppelin/contracts/utils/Strings.sol\":1812:1826  2 * length + 1 */\n  tag_62\n  swap1\n    /* \"@openzeppelin/contracts/utils/Strings.sol\":1825:1826  1 */\n  0x01\n    /* \"@openzeppelin/contracts/utils/Strings.sol\":1812:1826  2 * length + 1 */\n  tag_48\n  jump\t// in\ntag_62:\n    /* \"@openzeppelin/contracts/utils/Strings.sol\":1800:1826  uint256 i = 2 * length + 1 */\n  swap1\n  pop\n    /* \"@openzeppelin/contracts/utils/Strings.sol\":1795:1927  for (uint256 i = 2 * length + 1; i > 1; --i) {... */\ntag_58:\n    /* \"@openzeppelin/contracts/utils/Strings.sol\":1832:1833  1 */\n  0x01\n    /* \"@openzeppelin/contracts/utils/Strings.sol\":1828:1829  i */\n  dup2\n    /* \"@openzeppelin/contracts/utils/Strings.sol\":1828:1833  i > 1 */\n  gt\n    /* \"@openzeppelin/contracts/utils/Strings.sol\":1795:1927  for (uint256 i = 2 * length + 1; i > 1; --i) {... */\n  iszero\n  tag_59\n  jumpi\n  shl(0x81, 0x181899199a1a9b1b9c1cb0b131b232b3)\n    /* \"@openzeppelin/contracts/utils/Strings.sol\":1879:1884  value */\n  dup6\n    /* \"@openzeppelin/contracts/utils/Strings.sol\":1887:1890  0xf */\n  0x0f\n    /* \"@openzeppelin/contracts/utils/Strings.sol\":1879:1890  value & 0xf */\n  and\n    /* \"@openzeppelin/contracts/utils/Strings.sol\":1866:1891  _HEX_SYMBOLS[value & 0xf] */\n  0x10\n  dup2\n  lt\n  tag_64\n  jumpi\n  tag_64\n  tag_55\n  jump\t// in\ntag_64:\n  byte\n  0xf8\n  shl\n    /* \"@openzeppelin/contracts/utils/Strings.sol\":1854:1860  buffer */\n  dup3\n    /* \"@openzeppelin/contracts/utils/Strings.sol\":1861:1862  i */\n  dup3\n    /* \"@openzeppelin/contracts/utils/Strings.sol\":1854:1863  buffer[i] */\n  dup2\n  mload\n  dup2\n  lt\n  tag_66\n  jumpi\n  tag_66\n  tag_55\n  jump\t// in\ntag_66:\n  0x20\n  add\n  add\n    /* \"@openzeppelin/contracts/utils/Strings.sol\":1854:1891  buffer[i] = _HEX_SYMBOLS[value & 0xf] */\n  swap1\n  not(sub(shl(0xf8, 0x01), 0x01))\n  and\n  swap1\n  dup2\n  0x00\n  byte\n  swap1\n  mstore8\n  pop\n    /* \"@openzeppelin/contracts/utils/Strings.sol\":1915:1916  4 */\n  0x04\n    /* \"@openzeppelin/contracts/utils/Strings.sol\":1905:1916  value >>= 4 */\n  swap5\n  swap1\n  swap5\n  shr\n  swap4\n    /* \"@openzeppelin/contracts/utils/Strings.sol\":1835:1838  --i */\n  tag_67\n  dup2\n  tag_68\n  jump\t// in\ntag_67:\n  swap1\n  pop\n    /* \"@openzeppelin/contracts/utils/Strings.sol\":1795:1927  for (uint256 i = 2 * length + 1; i > 1; --i) {... */\n  jump(tag_58)\ntag_59:\n  pop\n    /* \"@openzeppelin/contracts/utils/Strings.sol\":1944:1954  value == 0 */\n  dup4\n  iszero\n    /* \"@openzeppelin/contracts/utils/Strings.sol\":1936:1991  require(value == 0, \"Strings: hex length insufficient\") */\n  tag_69\n  jumpi\n  mload(0x40)\n  shl(0xe5, 0x461bcd)\n  dup2\n  mstore\n    /* \"#utility.yul\":2877:2879   */\n  0x20\n    /* \"@openzeppelin/contracts/utils/Strings.sol\":1936:1991  require(value == 0, \"Strings: hex length insufficient\") */\n  0x04\n  dup3\n  add\n    /* \"#utility.yul\":2859:2880   */\n  dup2\n  swap1\n  mstore\n    /* \"#utility.yul\":2896:2914   */\n  0x24\n  dup3\n  add\n    /* \"#utility.yul\":2889:2919   */\n  mstore\n    /* \"#utility.yul\":2955:2989   */\n  0x537472696e67733a20686578206c656e67746820696e73756666696369656e74\n    /* \"#utility.yul\":2935:2953   */\n  0x44\n  dup3\n  add\n    /* \"#utility.yul\":2928:2990   */\n  mstore\n    /* \"#utility.yul\":3007:3025   */\n  0x64\n  add\n    /* \"@openzeppelin/contracts/utils/Strings.sol\":1936:1991  require(value == 0, \"Strings: hex length insufficient\") */\n  tag_42\n    /* \"#utility.yul\":2675:3031   */\n  jump\n    /* \"@openzeppelin/contracts/utils/Strings.sol\":1936:1991  require(value == 0, \"Strings: hex length insufficient\") */\ntag_69:\n    /* \"@openzeppelin/contracts/utils/Strings.sol\":2015:2021  buffer */\n  swap4\n    /* \"@openzeppelin/contracts/utils/Strings.sol\":1588:2029  function toHexString(uint256 value, uint256 length) internal pure returns (string memory) {... */\n  swap3\n  pop\n  pop\n  pop\n  jump\t// out\n    /* \"#utility.yul\":14:385   */\ntag_3:\n    /* \"#utility.yul\":113:119   */\n  0x00\n    /* \"#utility.yul\":121:127   */\n  dup1\n    /* \"#utility.yul\":174:176   */\n  0x40\n    /* \"#utility.yul\":162:171   */\n  dup4\n    /* \"#utility.yul\":153:160   */\n  dup6\n    /* \"#utility.yul\":149:172   */\n  sub\n    /* \"#utility.yul\":145:177   */\n  slt\n    /* \"#utility.yul\":142:194   */\n  iszero\n  tag_76\n  jumpi\n    /* \"#utility.yul\":190:191   */\n  0x00\n    /* \"#utility.yul\":187:188   */\n  dup1\n    /* \"#utility.yul\":180:192   */\n  revert\n    /* \"#utility.yul\":142:194   */\ntag_76:\n    /* \"#utility.yul\":216:232   */\n  dup3\n  mload\n  sub(shl(0xa0, 0x01), 0x01)\n    /* \"#utility.yul\":261:292   */\n  dup2\n  and\n    /* \"#utility.yul\":251:293   */\n  dup2\n  eq\n    /* \"#utility.yul\":241:311   */\n  tag_77\n  jumpi\n    /* \"#utility.yul\":307:308   */\n  0x00\n    /* \"#utility.yul\":304:305   */\n  dup1\n    /* \"#utility.yul\":297:309   */\n  revert\n    /* \"#utility.yul\":241:311   */\ntag_77:\n    /* \"#utility.yul\":375:377   */\n  0x20\n    /* \"#utility.yul\":360:378   */\n  swap4\n  swap1\n  swap4\n  add\n    /* \"#utility.yul\":354:379   */\n  mload\n    /* \"#utility.yul\":330:335   */\n  swap3\n  swap5\n    /* \"#utility.yul\":354:379   */\n  swap3\n  swap4\n  pop\n  pop\n  pop\n    /* \"#utility.yul\":14:385   */\n  jump\t// out\n    /* \"#utility.yul\":390:648   */\ntag_72:\n    /* \"#utility.yul\":462:463   */\n  0x00\n    /* \"#utility.yul\":472:585   */\ntag_79:\n    /* \"#utility.yul\":486:492   */\n  dup4\n    /* \"#utility.yul\":483:484   */\n  dup2\n    /* \"#utility.yul\":480:493   */\n  lt\n    /* \"#utility.yul\":472:585   */\n  iszero\n  tag_81\n  jumpi\n    /* \"#utility.yul\":562:573   */\n  dup2\n  dup2\n  add\n    /* \"#utility.yul\":556:574   */\n  mload\n    /* \"#utility.yul\":543:554   */\n  dup4\n  dup3\n  add\n    /* \"#utility.yul\":536:575   */\n  mstore\n    /* \"#utility.yul\":508:510   */\n  0x20\n    /* \"#utility.yul\":501:511   */\n  add\n    /* \"#utility.yul\":472:585   */\n  jump(tag_79)\ntag_81:\n    /* \"#utility.yul\":603:609   */\n  dup4\n    /* \"#utility.yul\":600:601   */\n  dup2\n    /* \"#utility.yul\":597:610   */\n  gt\n    /* \"#utility.yul\":594:642   */\n  iszero\n  tag_82\n  jumpi\n    /* \"#utility.yul\":638:639   */\n  0x00\n    /* \"#utility.yul\":629:635   */\n  dup5\n    /* \"#utility.yul\":624:627   */\n  dup5\n    /* \"#utility.yul\":620:636   */\n  add\n    /* \"#utility.yul\":613:640   */\n  mstore\n    /* \"#utility.yul\":594:642   */\ntag_82:\n  pop\n    /* \"#utility.yul\":390:648   */\n  pop\n  pop\n  pop\n  jump\t// out\n    /* \"#utility.yul\":653:1439   */\ntag_41:\n    /* \"#utility.yul\":1064:1089   */\n  0x416363657373436f6e74726f6c3a206163636f756e7420000000000000000000\n    /* \"#utility.yul\":1059:1062   */\n  dup2\n    /* \"#utility.yul\":1052:1090   */\n  mstore\n    /* \"#utility.yul\":1034:1037   */\n  0x00\n    /* \"#utility.yul\":1119:1125   */\n  dup4\n    /* \"#utility.yul\":1113:1126   */\n  mload\n    /* \"#utility.yul\":1135:1197   */\n  tag_84\n    /* \"#utility.yul\":1190:1196   */\n  dup2\n    /* \"#utility.yul\":1185:1187   */\n  0x17\n    /* \"#utility.yul\":1180:1183   */\n  dup6\n    /* \"#utility.yul\":1176:1188   */\n  add\n    /* \"#utility.yul\":1169:1173   */\n  0x20\n    /* \"#utility.yul\":1161:1167   */\n  dup9\n    /* \"#utility.yul\":1157:1174   */\n  add\n    /* \"#utility.yul\":1135:1197   */\n  tag_72\n  jump\t// in\ntag_84:\n  shl(0x7d, 0x01034b99036b4b9b9b4b733903937b6329)\n    /* \"#utility.yul\":1256:1258   */\n  0x17\n    /* \"#utility.yul\":1216:1232   */\n  swap2\n  dup5\n  add\n    /* \"#utility.yul\":1248:1259   */\n  swap2\n  dup3\n  add\n    /* \"#utility.yul\":1241:1281   */\n  mstore\n    /* \"#utility.yul\":1306:1319   */\n  dup4\n  mload\n    /* \"#utility.yul\":1328:1391   */\n  tag_85\n    /* \"#utility.yul\":1306:1319   */\n  dup2\n    /* \"#utility.yul\":1377:1379   */\n  0x28\n    /* \"#utility.yul\":1369:1380   */\n  dup5\n  add\n    /* \"#utility.yul\":1362:1366   */\n  0x20\n    /* \"#utility.yul\":1350:1367   */\n  dup9\n  add\n    /* \"#utility.yul\":1328:1391   */\n  tag_72\n  jump\t// in\ntag_85:\n    /* \"#utility.yul\":1411:1428   */\n  add\n    /* \"#utility.yul\":1430:1432   */\n  0x28\n    /* \"#utility.yul\":1407:1433   */\n  add\n  swap5\n    /* \"#utility.yul\":653:1439   */\n  swap4\n  pop\n  pop\n  pop\n  pop\n  jump\t// out\n    /* \"#utility.yul\":1444:1827   */\ntag_43:\n    /* \"#utility.yul\":1593:1595   */\n  0x20\n    /* \"#utility.yul\":1582:1591   */\n  dup2\n    /* \"#utility.yul\":1575:1596   */\n  mstore\n    /* \"#utility.yul\":1556:1560   */\n  0x00\n    /* \"#utility.yul\":1625:1631   */\n  dup3\n    /* \"#utility.yul\":1619:1632   */\n  mload\n    /* \"#utility.yul\":1668:1674   */\n  dup1\n    /* \"#utility.yul\":1663:1665   */\n  0x20\n    /* \"#utility.yul\":1652:1661   */\n  dup5\n    /* \"#utility.yul\":1648:1666   */\n  add\n    /* \"#utility.yul\":1641:1675   */\n  mstore\n    /* \"#utility.yul\":1684:1750   */\n  tag_87\n    /* \"#utility.yul\":1743:1749   */\n  dup2\n    /* \"#utility.yul\":1738:1740   */\n  0x40\n    /* \"#utility.yul\":1727:1736   */\n  dup6\n    /* \"#utility.yul\":1723:1741   */\n  add\n    /* \"#utility.yul\":1718:1720   */\n  0x20\n    /* \"#utility.yul\":1710:1716   */\n  dup8\n    /* \"#utility.yul\":1706:1721   */\n  add\n    /* \"#utility.yul\":1684:1750   */\n  tag_72\n  jump\t// in\ntag_87:\n    /* \"#utility.yul\":1811:1813   */\n  0x1f\n    /* \"#utility.yul\":1790:1805   */\n  add\n  not(0x1f)\n    /* \"#utility.yul\":1786:1815   */\n  and\n    /* \"#utility.yul\":1771:1816   */\n  swap2\n  swap1\n  swap2\n  add\n    /* \"#utility.yul\":1818:1820   */\n  0x40\n    /* \"#utility.yul\":1767:1821   */\n  add\n  swap3\n    /* \"#utility.yul\":1444:1827   */\n  swap2\n  pop\n  pop\n  jump\t// out\n    /* \"#utility.yul\":1832:1959   */\ntag_73:\n    /* \"#utility.yul\":1893:1903   */\n  0x4e487b71\n    /* \"#utility.yul\":1888:1891   */\n  0xe0\n    /* \"#utility.yul\":1884:1904   */\n  shl\n    /* \"#utility.yul\":1881:1882   */\n  0x00\n    /* \"#utility.yul\":1874:1905   */\n  mstore\n    /* \"#utility.yul\":1924:1928   */\n  0x11\n    /* \"#utility.yul\":1921:1922   */\n  0x04\n    /* \"#utility.yul\":1914:1929   */\n  mstore\n    /* \"#utility.yul\":1948:1952   */\n  0x24\n    /* \"#utility.yul\":1945:1946   */\n  0x00\n    /* \"#utility.yul\":1938:1953   */\n  revert\n    /* \"#utility.yul\":1964:2132   */\ntag_46:\n    /* \"#utility.yul\":2004:2011   */\n  0x00\n    /* \"#utility.yul\":2070:2071   */\n  dup2\n    /* \"#utility.yul\":2066:2067   */\n  0x00\n    /* \"#utility.yul\":2062:2068   */\n  not\n    /* \"#utility.yul\":2058:2072   */\n  div\n    /* \"#utility.yul\":2055:2056   */\n  dup4\n    /* \"#utility.yul\":2052:2073   */\n  gt\n    /* \"#utility.yul\":2047:2048   */\n  dup3\n    /* \"#utility.yul\":2040:2049   */\n  iszero\n    /* \"#utility.yul\":2033:2050   */\n  iszero\n    /* \"#utility.yul\":2029:2074   */\n  and\n    /* \"#utility.yul\":2026:2097   */\n  iszero\n  tag_91\n  jumpi\n    /* \"#utility.yul\":2077:2095   */\n  tag_91\n  tag_73\n  jump\t// in\ntag_91:\n  pop\n    /* \"#utility.yul\":2117:2126   */\n  mul\n  swap1\n    /* \"#utility.yul\":1964:2132   */\n  jump\t// out\n    /* \"#utility.yul\":2137:2265   */\ntag_48:\n    /* \"#utility.yul\":2177:2180   */\n  0x00\n    /* \"#utility.yul\":2208:2209   */\n  dup3\n    /* \"#utility.yul\":2204:2210   */\n  not\n    /* \"#utility.yul\":2201:2202   */\n  dup3\n    /* \"#utility.yul\":2198:2211   */\n  gt\n    /* \"#utility.yul\":2195:2234   */\n  iszero\n  tag_94\n  jumpi\n    /* \"#utility.yul\":2214:2232   */\n  tag_94\n  tag_73\n  jump\t// in\ntag_94:\n  pop\n    /* \"#utility.yul\":2250:2259   */\n  add\n  swap1\n    /* \"#utility.yul\":2137:2265   */\n  jump\t// out\n    /* \"#utility.yul\":2270:2397   */\ntag_51:\n    /* \"#utility.yul\":2331:2341   */\n  0x4e487b71\n    /* \"#utility.yul\":2326:2329   */\n  0xe0\n    /* \"#utility.yul\":2322:2342   */\n  shl\n    /* \"#utility.yul\":2319:2320   */\n  0x00\n    /* \"#utility.yul\":2312:2343   */\n  mstore\n    /* \"#utility.yul\":2362:2366   */\n  0x41\n    /* \"#utility.yul\":2359:2360   */\n  0x04\n    /* \"#utility.yul\":2352:2367   */\n  mstore\n    /* \"#utility.yul\":2386:2390   */\n  0x24\n    /* \"#utility.yul\":2383:2384   */\n  0x00\n    /* \"#utility.yul\":2376:2391   */\n  revert\n    /* \"#utility.yul\":2402:2529   */\ntag_55:\n    /* \"#utility.yul\":2463:2473   */\n  0x4e487b71\n    /* \"#utility.yul\":2458:2461   */\n  0xe0\n    /* \"#utility.yul\":2454:2474   */\n  shl\n    /* \"#utility.yul\":2451:2452   */\n  0x00\n    /* \"#utility.yul\":2444:2475   */\n  mstore\n    /* \"#utility.yul\":2494:2498   */\n  0x32\n    /* \"#utility.yul\":2491:2492   */\n  0x04\n    /* \"#utility.yul\":2484:2499   */\n  mstore\n    /* \"#utility.yul\":2518:2522   */\n  0x24\n    /* \"#utility.yul\":2515:2516   */\n  0x00\n    /* \"#utility.yul\":2508:2523   */\n  revert\n    /* \"#utility.yul\":2534:2670   */\ntag_68:\n    /* \"#utility.yul\":2573:2576   */\n  0x00\n    /* \"#utility.yul\":2601:2606   */\n  dup2\n    /* \"#utility.yul\":2591:2630   */\n  tag_99\n  jumpi\n    /* \"#utility.yul\":2610:2628   */\n  tag_99\n  tag_73\n  jump\t// in\ntag_99:\n  pop\n  not(0x00)\n    /* \"#utility.yul\":2646:2664   */\n  add\n  swap1\n    /* \"#utility.yul\":2534:2670   */\n  jump\t// out\n    /* \"#utility.yul\":2675:3031   */\ntag_74:\n    /* \"MintNagaKids.sol\":244:3033  contract MintNagaKids is Whitelist, AccessControl, ReentrancyGuard {... */\n  dataSize(sub_0)\n  dup1\n  dataOffset(sub_0)\n  0x00\n  codecopy\n  0x00\n  return\nstop\n\nsub_0: assembly {\n        /* \"MintNagaKids.sol\":244:3033  contract MintNagaKids is Whitelist, AccessControl, ReentrancyGuard {... */\n      mstore(0x40, 0x80)\n      jumpi(tag_1, lt(calldatasize, 0x04))\n      shr(0xe0, calldataload(0x00))\n      dup1\n      0x5997bbee\n      gt\n      tag_23\n      jumpi\n      dup1\n      0x94f4504d\n      gt\n      tag_24\n      jumpi\n      dup1\n      0x94f4504d\n      eq\n      tag_17\n      jumpi\n      dup1\n      0xa217fddf\n      eq\n      tag_18\n      jumpi\n      dup1\n      0xc4e41b22\n      eq\n      tag_19\n      jumpi\n      dup1\n      0xd547741f\n      eq\n      tag_20\n      jumpi\n      dup1\n      0xdd31a7ba\n      eq\n      tag_21\n      jumpi\n      dup1\n      0xff0938a7\n      eq\n      tag_22\n      jumpi\n      0x00\n      dup1\n      revert\n    tag_24:\n      dup1\n      0x5997bbee\n      eq\n      tag_12\n      jumpi\n      dup1\n      0x61aec205\n      eq\n      tag_13\n      jumpi\n      dup1\n      0x7cb64759\n      eq\n      tag_14\n      jumpi\n      dup1\n      0x91d14854\n      eq\n      tag_15\n      jumpi\n      dup1\n      0x91e5b0a2\n      eq\n      tag_16\n      jumpi\n      0x00\n      dup1\n      revert\n    tag_23:\n      dup1\n      0x2904e6d9\n      gt\n      tag_25\n      jumpi\n      dup1\n      0x2904e6d9\n      eq\n      tag_7\n      jumpi\n      dup1\n      0x2eb4a7ab\n      eq\n      tag_8\n      jumpi\n      dup1\n      0x2f2ff15d\n      eq\n      tag_9\n      jumpi\n      dup1\n      0x36568abe\n      eq\n      tag_10\n      jumpi\n      dup1\n      0x4c0f38c2\n      eq\n      tag_11\n      jumpi\n      0x00\n      dup1\n      revert\n    tag_25:\n      dup1\n      0x01ffc9a7\n      eq\n      tag_2\n      jumpi\n      dup1\n      0x11c67efc\n      eq\n      tag_3\n      jumpi\n      dup1\n      0x1b0d2d3b\n      eq\n      tag_4\n      jumpi\n      dup1\n      0x248a9ca3\n      eq\n      tag_5\n      jumpi\n      dup1\n      0x27c25c20\n      eq\n      tag_6\n      jumpi\n    tag_1:\n      0x00\n      dup1\n      revert\n        /* \"@openzeppelin/contracts/access/AccessControl.sol\":2606:2808  function supportsInterface(bytes4 interfaceId) public view virtual override returns (bool) {... */\n    tag_2:\n      callvalue\n      dup1\n      iszero\n      tag_26\n      jumpi\n      0x00\n      dup1\n      revert\n    tag_26:\n      pop\n      tag_27\n      tag_28\n      calldatasize\n      0x04\n      tag_29\n      jump\t// in\n    tag_28:\n      tag_30\n      jump\t// in\n    tag_27:\n      mload(0x40)\n        /* \"#utility.yul\":470:484   */\n      swap1\n      iszero\n        /* \"#utility.yul\":463:485   */\n      iszero\n        /* \"#utility.yul\":445:486   */\n      dup2\n      mstore\n        /* \"#utility.yul\":433:435   */\n      0x20\n        /* \"#utility.yul\":418:436   */\n      add\n        /* \"@openzeppelin/contracts/access/AccessControl.sol\":2606:2808  function supportsInterface(bytes4 interfaceId) public view virtual override returns (bool) {... */\n    tag_31:\n      mload(0x40)\n      dup1\n      swap2\n      sub\n      swap1\n      return\n        /* \"MintNagaKids.sol\":363:387  bool public isPublicOpen */\n    tag_3:\n      callvalue\n      dup1\n      iszero\n      tag_33\n      jumpi\n      0x00\n      dup1\n      revert\n    tag_33:\n      pop\n      sload(0x03)\n      tag_27\n      swap1\n      shl(0xa0, 0x01)\n      swap1\n      div\n      0xff\n      and\n      dup2\n      jump\n        /* \"MintNagaKids.sol\":2555:2689  function isWhitelistMintedAmount(address _user) public view returns(uint256) {... */\n    tag_4:\n      callvalue\n      dup1\n      iszero\n      tag_37\n      jumpi\n      0x00\n      dup1\n      revert\n    tag_37:\n      pop\n      tag_38\n      tag_39\n      calldatasize\n      0x04\n      tag_40\n      jump\t// in\n    tag_39:\n      sub(shl(0xa0, 0x01), 0x01)\n        /* \"MintNagaKids.sol\":2650:2681  _isWhitelistMintedAmount[_user] */\n      and\n        /* \"MintNagaKids.sol\":2623:2630  uint256 */\n      0x00\n        /* \"MintNagaKids.sol\":2650:2681  _isWhitelistMintedAmount[_user] */\n      swap1\n      dup2\n      mstore\n        /* \"MintNagaKids.sol\":2650:2674  _isWhitelistMintedAmount */\n      0x05\n        /* \"MintNagaKids.sol\":2650:2681  _isWhitelistMintedAmount[_user] */\n      0x20\n      mstore\n      0x40\n      swap1\n      keccak256\n      sload\n      swap1\n        /* \"MintNagaKids.sol\":2555:2689  function isWhitelistMintedAmount(address _user) public view returns(uint256) {... */\n      jump\n    tag_38:\n      mload(0x40)\n        /* \"#utility.yul\":1031:1056   */\n      swap1\n      dup2\n      mstore\n        /* \"#utility.yul\":1019:1021   */\n      0x20\n        /* \"#utility.yul\":1004:1022   */\n      add\n        /* \"MintNagaKids.sol\":2555:2689  function isWhitelistMintedAmount(address _user) public view returns(uint256) {... */\n      tag_31\n        /* \"#utility.yul\":885:1062   */\n      jump\n        /* \"@openzeppelin/contracts/access/AccessControl.sol\":4391:4520  function getRoleAdmin(bytes32 role) public view virtual override returns (bytes32) {... */\n    tag_5:\n      callvalue\n      dup1\n      iszero\n      tag_44\n      jumpi\n      0x00\n      dup1\n      revert\n    tag_44:\n      pop\n      tag_38\n      tag_46\n      calldatasize\n      0x04\n      tag_47\n      jump\t// in\n    tag_46:\n        /* \"@openzeppelin/contracts/access/AccessControl.sol\":4465:4472  bytes32 */\n      0x00\n        /* \"@openzeppelin/contracts/access/AccessControl.sol\":4491:4503  _roles[role] */\n      swap1\n      dup2\n      mstore\n        /* \"@openzeppelin/contracts/access/AccessControl.sol\":4491:4497  _roles */\n      0x01\n        /* \"@openzeppelin/contracts/access/AccessControl.sol\":4491:4503  _roles[role] */\n      0x20\n      dup2\n      swap1\n      mstore\n      0x40\n      swap1\n      swap2\n      keccak256\n        /* \"@openzeppelin/contracts/access/AccessControl.sol\":4491:4513  _roles[role].adminRole */\n      add\n      sload\n      swap1\n        /* \"@openzeppelin/contracts/access/AccessControl.sol\":4391:4520  function getRoleAdmin(bytes32 role) public view virtual override returns (bytes32) {... */\n      jump\n        /* \"MintNagaKids.sol\":320:356  INagaKidsNFT public nagaKidsContract */\n    tag_6:\n      callvalue\n      dup1\n      iszero\n      tag_51\n      jumpi\n      0x00\n      dup1\n      revert\n    tag_51:\n      pop\n      sload(0x03)\n      tag_52\n      swap1\n      sub(shl(0xa0, 0x01), 0x01)\n      and\n      dup2\n      jump\n    tag_52:\n      mload(0x40)\n      sub(shl(0xa0, 0x01), 0x01)\n        /* \"#utility.yul\":1618:1650   */\n      swap1\n      swap2\n      and\n        /* \"#utility.yul\":1600:1651   */\n      dup2\n      mstore\n        /* \"#utility.yul\":1588:1590   */\n      0x20\n        /* \"#utility.yul\":1573:1591   */\n      add\n        /* \"MintNagaKids.sol\":320:356  INagaKidsNFT public nagaKidsContract */\n      tag_31\n        /* \"#utility.yul\":1434:1657   */\n      jump\n        /* \"MintNagaKids.sol\":1562:2420  function whitelistMint(bytes32[] calldata _proofMerkle,uint256 _amount) public payable nonReentrant Paused {... */\n    tag_7:\n      tag_56\n      tag_57\n      calldatasize\n      0x04\n      tag_58\n      jump\t// in\n    tag_57:\n      tag_59\n      jump\t// in\n    tag_56:\n      stop\n        /* \"Whitelist.sol\":161:186  bytes32 public merkleRoot */\n    tag_8:\n      callvalue\n      dup1\n      iszero\n      tag_60\n      jumpi\n      0x00\n      dup1\n      revert\n    tag_60:\n      pop\n      tag_38\n      sload(0x00)\n      dup2\n      jump\n        /* \"@openzeppelin/contracts/access/AccessControl.sol\":4770:4915  function grantRole(bytes32 role, address account) public virtual override onlyRole(getRoleAdmin(role)) {... */\n    tag_9:\n      callvalue\n      dup1\n      iszero\n      tag_64\n      jumpi\n      0x00\n      dup1\n      revert\n    tag_64:\n      pop\n      tag_56\n      tag_66\n      calldatasize\n      0x04\n      tag_67\n      jump\t// in\n    tag_66:\n      tag_68\n      jump\t// in\n        /* \"@openzeppelin/contracts/access/AccessControl.sol\":5787:6001  function renounceRole(bytes32 role, address account) public virtual override {... */\n    tag_10:\n      callvalue\n      dup1\n      iszero\n      tag_69\n      jumpi\n      0x00\n      dup1\n      revert\n    tag_69:\n      pop\n      tag_56\n      tag_71\n      calldatasize\n      0x04\n      tag_67\n      jump\t// in\n    tag_71:\n      tag_72\n      jump\t// in\n        /* \"MintNagaKids.sol\":2817:2925  function getMaxSupply() public view returns (uint256) {... */\n    tag_11:\n      callvalue\n      dup1\n      iszero\n      tag_73\n      jumpi\n      0x00\n      dup1\n      revert\n    tag_73:\n      pop\n      tag_38\n      tag_75\n      jump\t// in\n        /* \"MintNagaKids.sol\":2428:2547  function isWhitelistMinted(address _user) public view returns(bool) {... */\n    tag_12:\n      callvalue\n      dup1\n      iszero\n      tag_77\n      jumpi\n      0x00\n      dup1\n      revert\n    tag_77:\n      pop\n      tag_27\n      tag_79\n      calldatasize\n      0x04\n      tag_40\n      jump\t// in\n    tag_79:\n      sub(shl(0xa0, 0x01), 0x01)\n        /* \"MintNagaKids.sol\":2514:2539  _isWhitelistMinted[_user] */\n      and\n        /* \"MintNagaKids.sol\":2490:2494  bool */\n      0x00\n        /* \"MintNagaKids.sol\":2514:2539  _isWhitelistMinted[_user] */\n      swap1\n      dup2\n      mstore\n        /* \"MintNagaKids.sol\":2514:2532  _isWhitelistMinted */\n      0x04\n        /* \"MintNagaKids.sol\":2514:2539  _isWhitelistMinted[_user] */\n      0x20\n      mstore\n      0x40\n      swap1\n      keccak256\n      sload\n      0xff\n      and\n      swap1\n        /* \"MintNagaKids.sol\":2428:2547  function isWhitelistMinted(address _user) public view returns(bool) {... */\n      jump\n        /* \"MintNagaKids.sol\":1020:1159  function changeNagaKidsContract(INagaKidsNFT _nagaKids) public onlyRole(DEFAULT_ADMIN_ROLE) {... */\n    tag_13:\n      callvalue\n      dup1\n      iszero\n      tag_82\n      jumpi\n      0x00\n      dup1\n      revert\n    tag_82:\n      pop\n      tag_56\n      tag_84\n      calldatasize\n      0x04\n      tag_40\n      jump\t// in\n    tag_84:\n      tag_86\n      jump\t// in\n        /* \"MintNagaKids.sol\":1431:1554  function setMerkleRoot(bytes32 _merkleRoot) public onlyRole(DEFAULT_ADMIN_ROLE) {... */\n    tag_14:\n      callvalue\n      dup1\n      iszero\n      tag_87\n      jumpi\n      0x00\n      dup1\n      revert\n    tag_87:\n      pop\n      tag_56\n      tag_89\n      calldatasize\n      0x04\n      tag_47\n      jump\t// in\n    tag_89:\n      tag_90\n      jump\t// in\n        /* \"@openzeppelin/contracts/access/AccessControl.sol\":2895:3040  function hasRole(bytes32 role, address account) public view virtual override returns (bool) {... */\n    tag_15:\n      callvalue\n      dup1\n      iszero\n      tag_91\n      jumpi\n      0x00\n      dup1\n      revert\n    tag_91:\n      pop\n      tag_27\n      tag_93\n      calldatasize\n      0x04\n      tag_67\n      jump\t// in\n    tag_93:\n      tag_94\n      jump\t// in\n        /* \"MintNagaKids.sol\":1302:1419  function changePublicOpen(bool _isOpen) public onlyRole(DEFAULT_ADMIN_ROLE) {... */\n    tag_16:\n      callvalue\n      dup1\n      iszero\n      tag_96\n      jumpi\n      0x00\n      dup1\n      revert\n    tag_96:\n      pop\n      tag_56\n      tag_98\n      calldatasize\n      0x04\n      tag_99\n      jump\t// in\n    tag_98:\n      tag_100\n      jump\t// in\n        /* \"MintNagaKids.sol\":394:421  bool public isWhitelistOpen */\n    tag_17:\n      callvalue\n      dup1\n      iszero\n      tag_101\n      jumpi\n      0x00\n      dup1\n      revert\n    tag_101:\n      pop\n      sload(0x03)\n      tag_27\n      swap1\n      shl(0xa8, 0x01)\n      swap1\n      div\n      0xff\n      and\n      dup2\n      jump\n        /* \"@openzeppelin/contracts/access/AccessControl.sol\":2027:2076  bytes32 public constant DEFAULT_ADMIN_ROLE = 0x00 */\n    tag_18:\n      callvalue\n      dup1\n      iszero\n      tag_105\n      jumpi\n      0x00\n      dup1\n      revert\n    tag_105:\n      pop\n      tag_38\n        /* \"@openzeppelin/contracts/access/AccessControl.sol\":2072:2076  0x00 */\n      0x00\n        /* \"@openzeppelin/contracts/access/AccessControl.sol\":2027:2076  bytes32 public constant DEFAULT_ADMIN_ROLE = 0x00 */\n      dup2\n      jump\n        /* \"MintNagaKids.sol\":2697:2809  function getTotalSupply() public view returns (uint256) {... */\n    tag_19:\n      callvalue\n      dup1\n      iszero\n      tag_109\n      jumpi\n      0x00\n      dup1\n      revert\n    tag_109:\n      pop\n      tag_38\n      tag_111\n      jump\t// in\n        /* \"@openzeppelin/contracts/access/AccessControl.sol\":5149:5296  function revokeRole(bytes32 role, address account) public virtual override onlyRole(getRoleAdmin(role)) {... */\n    tag_20:\n      callvalue\n      dup1\n      iszero\n      tag_113\n      jumpi\n      0x00\n      dup1\n      revert\n    tag_113:\n      pop\n      tag_56\n      tag_115\n      calldatasize\n      0x04\n      tag_67\n      jump\t// in\n    tag_115:\n      tag_116\n      jump\t// in\n        /* \"MintNagaKids.sol\":1167:1294  function changeWhitelistMintOpen(bool _isOpen) public onlyRole(DEFAULT_ADMIN_ROLE) {... */\n    tag_21:\n      callvalue\n      dup1\n      iszero\n      tag_117\n      jumpi\n      0x00\n      dup1\n      revert\n    tag_117:\n      pop\n      tag_56\n      tag_119\n      calldatasize\n      0x04\n      tag_99\n      jump\t// in\n    tag_119:\n      tag_120\n      jump\t// in\n        /* \"MintNagaKids.sol\":2933:3030  function isPause() public view returns (bool) {... */\n    tag_22:\n      callvalue\n      dup1\n      iszero\n      tag_121\n      jumpi\n      0x00\n      dup1\n      revert\n    tag_121:\n      pop\n      tag_27\n      tag_123\n      jump\t// in\n        /* \"@openzeppelin/contracts/access/AccessControl.sol\":2606:2808  function supportsInterface(bytes4 interfaceId) public view virtual override returns (bool) {... */\n    tag_30:\n        /* \"@openzeppelin/contracts/access/AccessControl.sol\":2691:2695  bool */\n      0x00\n      not(sub(shl(0xe0, 0x01), 0x01))\n        /* \"@openzeppelin/contracts/access/AccessControl.sol\":2714:2761  interfaceId == type(IAccessControl).interfaceId */\n      dup3\n      and\n      shl(0xe0, 0x7965db0b)\n      eq\n      dup1\n        /* \"@openzeppelin/contracts/access/AccessControl.sol\":2714:2801  interfaceId == type(IAccessControl).interfaceId || super.supportsInterface(interfaceId) */\n      tag_128\n      jumpi\n      pop\n      shl(0xe0, 0x01ffc9a7)\n      not(sub(shl(0xe0, 0x01), 0x01))\n        /* \"@openzeppelin/contracts/utils/introspection/ERC165.sol\":937:977  interfaceId == type(IERC165).interfaceId */\n      dup4\n      and\n      eq\n        /* \"@openzeppelin/contracts/access/AccessControl.sol\":2765:2801  super.supportsInterface(interfaceId) */\n    tag_128:\n        /* \"@openzeppelin/contracts/access/AccessControl.sol\":2707:2801  return interfaceId == type(IAccessControl).interfaceId || super.supportsInterface(interfaceId) */\n      swap3\n        /* \"@openzeppelin/contracts/access/AccessControl.sol\":2606:2808  function supportsInterface(bytes4 interfaceId) public view virtual override returns (bool) {... */\n      swap2\n      pop\n      pop\n      jump\t// out\n        /* \"MintNagaKids.sol\":1562:2420  function whitelistMint(bytes32[] calldata _proofMerkle,uint256 _amount) public payable nonReentrant Paused {... */\n    tag_59:\n        /* \"@openzeppelin/contracts/security/ReentrancyGuard.sol\":1744:1745  2 */\n      0x02\n        /* \"@openzeppelin/contracts/security/ReentrancyGuard.sol\":2325:2332  _status */\n      dup1\n      sload\n        /* \"@openzeppelin/contracts/security/ReentrancyGuard.sol\":2325:2344  _status != _ENTERED */\n      sub\n        /* \"@openzeppelin/contracts/security/ReentrancyGuard.sol\":2317:2380  require(_status != _ENTERED, \"ReentrancyGuard: reentrant call\") */\n      tag_133\n      jumpi\n      mload(0x40)\n      shl(0xe5, 0x461bcd)\n      dup2\n      mstore\n        /* \"#utility.yul\":3519:3521   */\n      0x20\n        /* \"@openzeppelin/contracts/security/ReentrancyGuard.sol\":2317:2380  require(_status != _ENTERED, \"ReentrancyGuard: reentrant call\") */\n      0x04\n      dup3\n      add\n        /* \"#utility.yul\":3501:3522   */\n      mstore\n        /* \"#utility.yul\":3558:3560   */\n      0x1f\n        /* \"#utility.yul\":3538:3556   */\n      0x24\n      dup3\n      add\n        /* \"#utility.yul\":3531:3561   */\n      mstore\n        /* \"#utility.yul\":3597:3630   */\n      0x5265656e7472616e637947756172643a207265656e7472616e742063616c6c00\n        /* \"#utility.yul\":3577:3595   */\n      0x44\n      dup3\n      add\n        /* \"#utility.yul\":3570:3631   */\n      mstore\n        /* \"#utility.yul\":3648:3666   */\n      0x64\n      add\n        /* \"@openzeppelin/contracts/security/ReentrancyGuard.sol\":2317:2380  require(_status != _ENTERED, \"ReentrancyGuard: reentrant call\") */\n    tag_134:\n      mload(0x40)\n      dup1\n      swap2\n      sub\n      swap1\n      revert\n    tag_133:\n        /* \"@openzeppelin/contracts/security/ReentrancyGuard.sol\":1744:1745  2 */\n      0x02\n        /* \"@openzeppelin/contracts/security/ReentrancyGuard.sol\":2455:2473  _status = _ENTERED */\n      dup1\n      sstore\n        /* \"MintNagaKids.sol\":950:959  isPause() */\n      tag_137\n        /* \"MintNagaKids.sol\":950:957  isPause */\n      tag_123\n        /* \"MintNagaKids.sol\":950:959  isPause() */\n      jump\t// in\n    tag_137:\n        /* \"MintNagaKids.sol\":950:968  isPause() == false */\n      iszero\n        /* \"MintNagaKids.sol\":942:992  require(isPause() == false,\"NagaKids was Paused.\") */\n      tag_138\n      jumpi\n      mload(0x40)\n      shl(0xe5, 0x461bcd)\n      dup2\n      mstore\n        /* \"#utility.yul\":3879:3881   */\n      0x20\n        /* \"MintNagaKids.sol\":942:992  require(isPause() == false,\"NagaKids was Paused.\") */\n      0x04\n      dup3\n      add\n        /* \"#utility.yul\":3861:3882   */\n      mstore\n        /* \"#utility.yul\":3918:3920   */\n      0x14\n        /* \"#utility.yul\":3898:3916   */\n      0x24\n      dup3\n      add\n        /* \"#utility.yul\":3891:3921   */\n      mstore\n      shl(0x61, 0x2730b3b0a5b4b239903bb0b9902830bab9b2b217)\n        /* \"#utility.yul\":3937:3955   */\n      0x44\n      dup3\n      add\n        /* \"#utility.yul\":3930:3980   */\n      mstore\n        /* \"#utility.yul\":3997:4015   */\n      0x64\n      add\n        /* \"MintNagaKids.sol\":942:992  require(isPause() == false,\"NagaKids was Paused.\") */\n      tag_134\n        /* \"#utility.yul\":3677:4021   */\n      jump\n        /* \"MintNagaKids.sol\":942:992  require(isPause() == false,\"NagaKids was Paused.\") */\n    tag_138:\n        /* \"MintNagaKids.sol\":1688:1703  isWhitelistOpen */\n      sload(0x03)\n      shl(0xa8, 0x01)\n      swap1\n      div\n      0xff\n      and\n        /* \"MintNagaKids.sol\":1688:1711  isWhitelistOpen == true */\n      iszero\n      iszero\n        /* \"MintNagaKids.sol\":1707:1711  true */\n      0x01\n        /* \"MintNagaKids.sol\":1688:1711  isWhitelistOpen == true */\n      eq\n        /* \"MintNagaKids.sol\":1680:1743  require(isWhitelistOpen == true, \"Whitelist not open to mint.\") */\n      tag_142\n      jumpi\n      mload(0x40)\n      shl(0xe5, 0x461bcd)\n      dup2\n      mstore\n        /* \"#utility.yul\":4228:4230   */\n      0x20\n        /* \"MintNagaKids.sol\":1680:1743  require(isWhitelistOpen == true, \"Whitelist not open to mint.\") */\n      0x04\n      dup3\n      add\n        /* \"#utility.yul\":4210:4231   */\n      mstore\n        /* \"#utility.yul\":4267:4269   */\n      0x1b\n        /* \"#utility.yul\":4247:4265   */\n      0x24\n      dup3\n      add\n        /* \"#utility.yul\":4240:4270   */\n      mstore\n        /* \"#utility.yul\":4306:4335   */\n      0x57686974656c697374206e6f74206f70656e20746f206d696e742e0000000000\n        /* \"#utility.yul\":4286:4304   */\n      0x44\n      dup3\n      add\n        /* \"#utility.yul\":4279:4336   */\n      mstore\n        /* \"#utility.yul\":4353:4371   */\n      0x64\n      add\n        /* \"MintNagaKids.sol\":1680:1743  require(isWhitelistOpen == true, \"Whitelist not open to mint.\") */\n      tag_134\n        /* \"#utility.yul\":4026:4377   */\n      jump\n        /* \"MintNagaKids.sol\":1680:1743  require(isWhitelistOpen == true, \"Whitelist not open to mint.\") */\n    tag_142:\n        /* \"MintNagaKids.sol\":1780:1790  msg.sender */\n      caller\n        /* \"MintNagaKids.sol\":2490:2494  bool */\n      0x00\n        /* \"MintNagaKids.sol\":2514:2539  _isWhitelistMinted[_user] */\n      swap1\n      dup2\n      mstore\n        /* \"MintNagaKids.sol\":2514:2532  _isWhitelistMinted */\n      0x04\n        /* \"MintNagaKids.sol\":2514:2539  _isWhitelistMinted[_user] */\n      0x20\n      mstore\n      0x40\n      swap1\n      keccak256\n      sload\n      0xff\n      and\n        /* \"MintNagaKids.sol\":1762:1799  isWhitelistMinted(msg.sender) != true */\n      iszero\n      iszero\n        /* \"MintNagaKids.sol\":1795:1799  true */\n      0x01\n        /* \"MintNagaKids.sol\":1762:1799  isWhitelistMinted(msg.sender) != true */\n      sub\n        /* \"MintNagaKids.sol\":1754:1827  require(isWhitelistMinted(msg.sender) != true, \"You are already minted.\") */\n      tag_146\n      jumpi\n      mload(0x40)\n      shl(0xe5, 0x461bcd)\n      dup2\n      mstore\n        /* \"#utility.yul\":4584:4586   */\n      0x20\n        /* \"MintNagaKids.sol\":1754:1827  require(isWhitelistMinted(msg.sender) != true, \"You are already minted.\") */\n      0x04\n      dup3\n      add\n        /* \"#utility.yul\":4566:4587   */\n      mstore\n        /* \"#utility.yul\":4623:4625   */\n      0x17\n        /* \"#utility.yul\":4603:4621   */\n      0x24\n      dup3\n      add\n        /* \"#utility.yul\":4596:4626   */\n      mstore\n        /* \"#utility.yul\":4662:4687   */\n      0x596f752061726520616c7265616479206d696e7465642e000000000000000000\n        /* \"#utility.yul\":4642:4660   */\n      0x44\n      dup3\n      add\n        /* \"#utility.yul\":4635:4688   */\n      mstore\n        /* \"#utility.yul\":4705:4723   */\n      0x64\n      add\n        /* \"MintNagaKids.sol\":1754:1827  require(isWhitelistMinted(msg.sender) != true, \"You are already minted.\") */\n      tag_134\n        /* \"#utility.yul\":4382:4729   */\n      jump\n        /* \"MintNagaKids.sol\":1754:1827  require(isWhitelistMinted(msg.sender) != true, \"You are already minted.\") */\n    tag_146:\n        /* \"MintNagaKids.sol\":1865:1869  1111 */\n      0x0457\n        /* \"MintNagaKids.sol\":1846:1862  getTotalSupply() */\n      tag_149\n        /* \"MintNagaKids.sol\":1846:1860  getTotalSupply */\n      tag_111\n        /* \"MintNagaKids.sol\":1846:1862  getTotalSupply() */\n      jump\t// in\n    tag_149:\n        /* \"MintNagaKids.sol\":1846:1869  getTotalSupply() < 1111 */\n      lt\n        /* \"MintNagaKids.sol\":1838:1885  require(getTotalSupply() < 1111, \"Over supply\") */\n      tag_150\n      jumpi\n      mload(0x40)\n      shl(0xe5, 0x461bcd)\n      dup2\n      mstore\n        /* \"#utility.yul\":4936:4938   */\n      0x20\n        /* \"MintNagaKids.sol\":1838:1885  require(getTotalSupply() < 1111, \"Over supply\") */\n      0x04\n      dup3\n      add\n        /* \"#utility.yul\":4918:4939   */\n      mstore\n        /* \"#utility.yul\":4975:4977   */\n      0x0b\n        /* \"#utility.yul\":4955:4973   */\n      0x24\n      dup3\n      add\n        /* \"#utility.yul\":4948:4978   */\n      mstore\n      shl(0xa8, 0x4f76657220737570706c79)\n        /* \"#utility.yul\":4994:5012   */\n      0x44\n      dup3\n      add\n        /* \"#utility.yul\":4987:5028   */\n      mstore\n        /* \"#utility.yul\":5045:5063   */\n      0x64\n      add\n        /* \"MintNagaKids.sol\":1838:1885  require(getTotalSupply() < 1111, \"Over supply\") */\n      tag_134\n        /* \"#utility.yul\":4734:5069   */\n      jump\n        /* \"MintNagaKids.sol\":1838:1885  require(getTotalSupply() < 1111, \"Over supply\") */\n    tag_150:\n        /* \"MintNagaKids.sol\":1933:1937  1111 */\n      0x0457\n        /* \"MintNagaKids.sol\":1923:1930  _amount */\n      dup2\n        /* \"MintNagaKids.sol\":1904:1920  getTotalSupply() */\n      tag_153\n        /* \"MintNagaKids.sol\":1904:1918  getTotalSupply */\n      tag_111\n        /* \"MintNagaKids.sol\":1904:1920  getTotalSupply() */\n      jump\t// in\n    tag_153:\n        /* \"MintNagaKids.sol\":1904:1930  getTotalSupply() + _amount */\n      tag_154\n      swap2\n      swap1\n      tag_155\n      jump\t// in\n    tag_154:\n        /* \"MintNagaKids.sol\":1904:1937  getTotalSupply() + _amount < 1111 */\n      lt\n        /* \"MintNagaKids.sol\":1896:1959  require(getTotalSupply() + _amount < 1111,\"Over Supply Amount\") */\n      tag_156\n      jumpi\n      mload(0x40)\n      shl(0xe5, 0x461bcd)\n      dup2\n      mstore\n        /* \"#utility.yul\":5541:5543   */\n      0x20\n        /* \"MintNagaKids.sol\":1896:1959  require(getTotalSupply() + _amount < 1111,\"Over Supply Amount\") */\n      0x04\n      dup3\n      add\n        /* \"#utility.yul\":5523:5544   */\n      mstore\n        /* \"#utility.yul\":5580:5582   */\n      0x12\n        /* \"#utility.yul\":5560:5578   */\n      0x24\n      dup3\n      add\n        /* \"#utility.yul\":5553:5583   */\n      mstore\n      shl(0x72, 0x13dd995c8814dd5c1c1b1e48105b5bdd5b9d)\n        /* \"#utility.yul\":5599:5617   */\n      0x44\n      dup3\n      add\n        /* \"#utility.yul\":5592:5640   */\n      mstore\n        /* \"#utility.yul\":5657:5675   */\n      0x64\n      add\n        /* \"MintNagaKids.sol\":1896:1959  require(getTotalSupply() + _amount < 1111,\"Over Supply Amount\") */\n      tag_134\n        /* \"#utility.yul\":5339:5681   */\n      jump\n        /* \"MintNagaKids.sol\":1896:1959  require(getTotalSupply() + _amount < 1111,\"Over Supply Amount\") */\n    tag_156:\n        /* \"MintNagaKids.sol\":1978:1994  nagaKidsContract */\n      sload(0x03)\n        /* \"MintNagaKids.sol\":2003:2033  nagaKidsContract.MINTER_ROLE() */\n      0x40\n      dup1\n      mload\n      shl(0xe0, 0xd5391393)\n      dup2\n      mstore\n      swap1\n      mload\n      sub(shl(0xa0, 0x01), 0x01)\n        /* \"MintNagaKids.sol\":1978:1994  nagaKidsContract */\n      swap1\n      swap3\n      and\n      swap2\n        /* \"MintNagaKids.sol\":1978:2002  nagaKidsContract.hasRole */\n      0x91d14854\n      swap2\n        /* \"MintNagaKids.sol\":1978:1994  nagaKidsContract */\n      dup4\n      swap2\n        /* \"MintNagaKids.sol\":2003:2031  nagaKidsContract.MINTER_ROLE */\n      0xd5391393\n      swap2\n        /* \"MintNagaKids.sol\":2003:2033  nagaKidsContract.MINTER_ROLE() */\n      0x04\n      dup1\n      dup3\n      add\n      swap3\n      0x20\n      swap3\n      swap1\n      swap2\n      swap1\n      dup3\n      swap1\n      sub\n      add\n      dup2\n        /* \"MintNagaKids.sol\":1978:1994  nagaKidsContract */\n      dup7\n        /* \"MintNagaKids.sol\":2003:2033  nagaKidsContract.MINTER_ROLE() */\n      gas\n      staticcall\n      iszero\n      dup1\n      iszero\n      tag_160\n      jumpi\n      returndatasize\n      0x00\n      dup1\n      returndatacopy\n      revert(0x00, returndatasize)\n    tag_160:\n      pop\n      pop\n      pop\n      pop\n      mload(0x40)\n      returndatasize\n      not(0x1f)\n      0x1f\n      dup3\n      add\n      and\n      dup3\n      add\n      dup1\n      0x40\n      mstore\n      pop\n      dup2\n      add\n      swap1\n      tag_161\n      swap2\n      swap1\n      tag_162\n      jump\t// in\n    tag_161:\n        /* \"MintNagaKids.sol\":1978:2048  nagaKidsContract.hasRole(nagaKidsContract.MINTER_ROLE(),address(this)) */\n      mload(0x40)\n      not(sub(shl(0xe0, 0x01), 0x01))\n      0xe0\n      dup5\n      swap1\n      shl\n      and\n      dup2\n      mstore\n      0x04\n      dup2\n      add\n        /* \"#utility.yul\":6049:6074   */\n      swap2\n      swap1\n      swap2\n      mstore\n        /* \"MintNagaKids.sol\":2042:2046  this */\n      address\n        /* \"#utility.yul\":6090:6108   */\n      0x24\n      dup3\n      add\n        /* \"#utility.yul\":6083:6143   */\n      mstore\n        /* \"#utility.yul\":6022:6040   */\n      0x44\n      add\n        /* \"MintNagaKids.sol\":1978:2048  nagaKidsContract.hasRole(nagaKidsContract.MINTER_ROLE(),address(this)) */\n      0x20\n      mload(0x40)\n      dup1\n      dup4\n      sub\n      dup2\n      dup7\n      gas\n      staticcall\n      iszero\n      dup1\n      iszero\n      tag_166\n      jumpi\n      returndatasize\n      0x00\n      dup1\n      returndatacopy\n      revert(0x00, returndatasize)\n    tag_166:\n      pop\n      pop\n      pop\n      pop\n      mload(0x40)\n      returndatasize\n      not(0x1f)\n      0x1f\n      dup3\n      add\n      and\n      dup3\n      add\n      dup1\n      0x40\n      mstore\n      pop\n      dup2\n      add\n      swap1\n      tag_167\n      swap2\n      swap1\n      tag_168\n      jump\t// in\n    tag_167:\n        /* \"MintNagaKids.sol\":1978:2056  nagaKidsContract.hasRole(nagaKidsContract.MINTER_ROLE(),address(this)) == true */\n      iszero\n      iszero\n        /* \"MintNagaKids.sol\":2052:2056  true */\n      0x01\n        /* \"MintNagaKids.sol\":1978:2056  nagaKidsContract.hasRole(nagaKidsContract.MINTER_ROLE(),address(this)) == true */\n      eq\n        /* \"MintNagaKids.sol\":1970:2102  require(nagaKidsContract.hasRole(nagaKidsContract.MINTER_ROLE(),address(this)) == true,\"This Contract not have permission to mint.\") */\n      tag_169\n      jumpi\n      mload(0x40)\n      shl(0xe5, 0x461bcd)\n      dup2\n      mstore\n        /* \"#utility.yul\":6606:6608   */\n      0x20\n        /* \"MintNagaKids.sol\":1970:2102  require(nagaKidsContract.hasRole(nagaKidsContract.MINTER_ROLE(),address(this)) == true,\"This Contract not have permission to mint.\") */\n      0x04\n      dup3\n      add\n        /* \"#utility.yul\":6588:6609   */\n      mstore\n        /* \"#utility.yul\":6645:6647   */\n      0x2a\n        /* \"#utility.yul\":6625:6643   */\n      0x24\n      dup3\n      add\n        /* \"#utility.yul\":6618:6648   */\n      mstore\n        /* \"#utility.yul\":6684:6718   */\n      0x5468697320436f6e7472616374206e6f742068617665207065726d697373696f\n        /* \"#utility.yul\":6664:6682   */\n      0x44\n      dup3\n      add\n        /* \"#utility.yul\":6657:6719   */\n      mstore\n      shl(0xb1, 0x37103a379036b4b73a17)\n        /* \"#utility.yul\":6735:6753   */\n      0x64\n      dup3\n      add\n        /* \"#utility.yul\":6728:6768   */\n      mstore\n        /* \"#utility.yul\":6785:6804   */\n      0x84\n      add\n        /* \"MintNagaKids.sol\":1970:2102  require(nagaKidsContract.hasRole(nagaKidsContract.MINTER_ROLE(),address(this)) == true,\"This Contract not have permission to mint.\") */\n      tag_134\n        /* \"#utility.yul\":6404:6810   */\n      jump\n        /* \"MintNagaKids.sol\":1970:2102  require(nagaKidsContract.hasRole(nagaKidsContract.MINTER_ROLE(),address(this)) == true,\"This Contract not have permission to mint.\") */\n    tag_169:\n        /* \"MintNagaKids.sol\":2121:2165  isWhitelist(_proofMerkle,msg.sender,_amount) */\n      tag_172\n        /* \"MintNagaKids.sol\":2133:2145  _proofMerkle */\n      dup4\n      dup4\n        /* \"MintNagaKids.sol\":2146:2156  msg.sender */\n      caller\n        /* \"MintNagaKids.sol\":2157:2164  _amount */\n      dup5\n        /* \"MintNagaKids.sol\":2121:2132  isWhitelist */\n      tag_173\n        /* \"MintNagaKids.sol\":2121:2165  isWhitelist(_proofMerkle,msg.sender,_amount) */\n      jump\t// in\n    tag_172:\n        /* \"MintNagaKids.sol\":2113:2203  require(isWhitelist(_proofMerkle,msg.sender,_amount), \"Unauthorized Whitelist This User.\") */\n      tag_174\n      jumpi\n      mload(0x40)\n      shl(0xe5, 0x461bcd)\n      dup2\n      mstore\n        /* \"#utility.yul\":7017:7019   */\n      0x20\n        /* \"MintNagaKids.sol\":2113:2203  require(isWhitelist(_proofMerkle,msg.sender,_amount), \"Unauthorized Whitelist This User.\") */\n      0x04\n      dup3\n      add\n        /* \"#utility.yul\":6999:7020   */\n      mstore\n        /* \"#utility.yul\":7056:7058   */\n      0x21\n        /* \"#utility.yul\":7036:7054   */\n      0x24\n      dup3\n      add\n        /* \"#utility.yul\":7029:7059   */\n      mstore\n        /* \"#utility.yul\":7095:7129   */\n      0x556e617574686f72697a65642057686974656c69737420546869732055736572\n        /* \"#utility.yul\":7075:7093   */\n      0x44\n      dup3\n      add\n        /* \"#utility.yul\":7068:7130   */\n      mstore\n      shl(0xf9, 0x17)\n        /* \"#utility.yul\":7146:7164   */\n      0x64\n      dup3\n      add\n        /* \"#utility.yul\":7139:7170   */\n      mstore\n        /* \"#utility.yul\":7187:7206   */\n      0x84\n      add\n        /* \"MintNagaKids.sol\":2113:2203  require(isWhitelist(_proofMerkle,msg.sender,_amount), \"Unauthorized Whitelist This User.\") */\n      tag_134\n        /* \"#utility.yul\":6815:7212   */\n      jump\n        /* \"MintNagaKids.sol\":2113:2203  require(isWhitelist(_proofMerkle,msg.sender,_amount), \"Unauthorized Whitelist This User.\") */\n    tag_174:\n        /* \"MintNagaKids.sol\":2235:2245  msg.sender */\n      caller\n        /* \"MintNagaKids.sol\":2216:2246  _isWhitelistMinted[msg.sender] */\n      0x00\n      swap1\n      dup2\n      mstore\n        /* \"MintNagaKids.sol\":2216:2234  _isWhitelistMinted */\n      0x04\n        /* \"MintNagaKids.sol\":2216:2246  _isWhitelistMinted[msg.sender] */\n      0x20\n      swap1\n      dup2\n      mstore\n      0x40\n      dup1\n      dup4\n      keccak256\n        /* \"MintNagaKids.sol\":2216:2253  _isWhitelistMinted[msg.sender] = true */\n      dup1\n      sload\n      not(0xff)\n      and\n        /* \"MintNagaKids.sol\":2249:2253  true */\n      0x01\n        /* \"MintNagaKids.sol\":2216:2253  _isWhitelistMinted[msg.sender] = true */\n      or\n      swap1\n      sstore\n        /* \"MintNagaKids.sol\":2264:2288  _isWhitelistMintedAmount */\n      0x05\n        /* \"MintNagaKids.sol\":2264:2300  _isWhitelistMintedAmount[msg.sender] */\n      swap1\n      swap2\n      mstore\n      dup2\n      keccak256\n        /* \"MintNagaKids.sol\":2264:2311  _isWhitelistMintedAmount[msg.sender] += _amount */\n      dup1\n      sload\n        /* \"MintNagaKids.sol\":2304:2311  _amount */\n      dup4\n      swap3\n        /* \"MintNagaKids.sol\":2216:2246  _isWhitelistMinted[msg.sender] */\n      swap1\n        /* \"MintNagaKids.sol\":2264:2311  _isWhitelistMintedAmount[msg.sender] += _amount */\n      tag_177\n      swap1\n        /* \"MintNagaKids.sol\":2304:2311  _amount */\n      dup5\n      swap1\n        /* \"MintNagaKids.sol\":2264:2311  _isWhitelistMintedAmount[msg.sender] += _amount */\n      tag_155\n      jump\t// in\n    tag_177:\n      swap1\n      swap2\n      sstore\n      pop\n      pop\n        /* \"MintNagaKids.sol\":2322:2338  nagaKidsContract */\n      sload(0x03)\n        /* \"MintNagaKids.sol\":2322:2359  nagaKidsContract.safeMint(msg.sender) */\n      mload(0x40)\n      shl(0xe0, 0x40d097c3)\n      dup2\n      mstore\n        /* \"MintNagaKids.sol\":2348:2358  msg.sender */\n      caller\n        /* \"MintNagaKids.sol\":2322:2359  nagaKidsContract.safeMint(msg.sender) */\n      0x04\n      dup3\n      add\n        /* \"#utility.yul\":1600:1651   */\n      mstore\n      sub(shl(0xa0, 0x01), 0x01)\n        /* \"MintNagaKids.sol\":2322:2338  nagaKidsContract */\n      swap1\n      swap2\n      and\n      swap1\n        /* \"MintNagaKids.sol\":2322:2347  nagaKidsContract.safeMint */\n      0x40d097c3\n      swap1\n        /* \"#utility.yul\":1573:1591   */\n      0x24\n      add\n        /* \"MintNagaKids.sol\":2322:2359  nagaKidsContract.safeMint(msg.sender) */\n      0x00\n      mload(0x40)\n      dup1\n      dup4\n      sub\n      dup2\n      0x00\n      dup8\n      dup1\n      extcodesize\n      iszero\n      dup1\n      iszero\n      tag_180\n      jumpi\n      0x00\n      dup1\n      revert\n    tag_180:\n      pop\n      gas\n      call\n      iszero\n      dup1\n      iszero\n      tag_182\n      jumpi\n      returndatasize\n      0x00\n      dup1\n      returndatacopy\n      revert(0x00, returndatasize)\n    tag_182:\n      pop\n      pop\n        /* \"MintNagaKids.sol\":2377:2412  WhitelistMinted(msg.sender,_amount) */\n      0x40\n      dup1\n      mload\n        /* \"MintNagaKids.sol\":2393:2403  msg.sender */\n      caller\n        /* \"#utility.yul\":7599:7650   */\n      dup2\n      mstore\n        /* \"#utility.yul\":7681:7683   */\n      0x20\n        /* \"#utility.yul\":7666:7684   */\n      dup2\n      add\n        /* \"#utility.yul\":7659:7693   */\n      dup6\n      swap1\n      mstore\n        /* \"MintNagaKids.sol\":2377:2412  WhitelistMinted(msg.sender,_amount) */\n      0xce77e469b386be007f957632f6f65216f2e74c5daa303aff682e8296f628d010\n      swap4\n      pop\n        /* \"#utility.yul\":7572:7590   */\n      add\n      swap1\n      pop\n        /* \"MintNagaKids.sol\":2377:2412  WhitelistMinted(msg.sender,_amount) */\n      mload(0x40)\n      dup1\n      swap2\n      sub\n      swap1\n      log1\n      pop\n      pop\n        /* \"@openzeppelin/contracts/security/ReentrancyGuard.sol\":1701:1702  1 */\n      0x01\n        /* \"@openzeppelin/contracts/security/ReentrancyGuard.sol\":2628:2635  _status */\n      0x02\n        /* \"@openzeppelin/contracts/security/ReentrancyGuard.sol\":2628:2650  _status = _NOT_ENTERED */\n      sstore\n      pop\n        /* \"MintNagaKids.sol\":1562:2420  function whitelistMint(bytes32[] calldata _proofMerkle,uint256 _amount) public payable nonReentrant Paused {... */\n      jump\t// out\n        /* \"@openzeppelin/contracts/access/AccessControl.sol\":4770:4915  function grantRole(bytes32 role, address account) public virtual override onlyRole(getRoleAdmin(role)) {... */\n    tag_68:\n        /* \"@openzeppelin/contracts/access/AccessControl.sol\":4465:4472  bytes32 */\n      0x00\n        /* \"@openzeppelin/contracts/access/AccessControl.sol\":4491:4503  _roles[role] */\n      dup3\n      dup2\n      mstore\n        /* \"@openzeppelin/contracts/access/AccessControl.sol\":4491:4497  _roles */\n      0x01\n        /* \"@openzeppelin/contracts/access/AccessControl.sol\":4491:4503  _roles[role] */\n      0x20\n      dup2\n      swap1\n      mstore\n      0x40\n      swap1\n      swap2\n      keccak256\n        /* \"@openzeppelin/contracts/access/AccessControl.sol\":4491:4513  _roles[role].adminRole */\n      add\n      sload\n        /* \"@openzeppelin/contracts/access/AccessControl.sol\":2505:2521  _checkRole(role) */\n      tag_187\n        /* \"@openzeppelin/contracts/access/AccessControl.sol\":2516:2520  role */\n      dup2\n        /* \"@openzeppelin/contracts/access/AccessControl.sol\":2505:2515  _checkRole */\n      tag_188\n        /* \"@openzeppelin/contracts/access/AccessControl.sol\":2505:2521  _checkRole(role) */\n      jump\t// in\n    tag_187:\n        /* \"@openzeppelin/contracts/access/AccessControl.sol\":4883:4908  _grantRole(role, account) */\n      tag_190\n        /* \"@openzeppelin/contracts/access/AccessControl.sol\":4894:4898  role */\n      dup4\n        /* \"@openzeppelin/contracts/access/AccessControl.sol\":4900:4907  account */\n      dup4\n        /* \"@openzeppelin/contracts/access/AccessControl.sol\":4883:4893  _grantRole */\n      tag_191\n        /* \"@openzeppelin/contracts/access/AccessControl.sol\":4883:4908  _grantRole(role, account) */\n      jump\t// in\n    tag_190:\n        /* \"@openzeppelin/contracts/access/AccessControl.sol\":4770:4915  function grantRole(bytes32 role, address account) public virtual override onlyRole(getRoleAdmin(role)) {... */\n      pop\n      pop\n      pop\n      jump\t// out\n        /* \"@openzeppelin/contracts/access/AccessControl.sol\":5787:6001  function renounceRole(bytes32 role, address account) public virtual override {... */\n    tag_72:\n      sub(shl(0xa0, 0x01), 0x01)\n        /* \"@openzeppelin/contracts/access/AccessControl.sol\":5882:5905  account == _msgSender() */\n      dup2\n      and\n        /* \"@openzeppelin/contracts/utils/Context.sol\":719:729  msg.sender */\n      caller\n        /* \"@openzeppelin/contracts/access/AccessControl.sol\":5882:5905  account == _msgSender() */\n      eq\n        /* \"@openzeppelin/contracts/access/AccessControl.sol\":5874:5957  require(account == _msgSender(), \"AccessControl: can only renounce roles for self\") */\n      tag_195\n      jumpi\n      mload(0x40)\n      shl(0xe5, 0x461bcd)\n      dup2\n      mstore\n        /* \"#utility.yul\":7906:7908   */\n      0x20\n        /* \"@openzeppelin/contracts/access/AccessControl.sol\":5874:5957  require(account == _msgSender(), \"AccessControl: can only renounce roles for self\") */\n      0x04\n      dup3\n      add\n        /* \"#utility.yul\":7888:7909   */\n      mstore\n        /* \"#utility.yul\":7945:7947   */\n      0x2f\n        /* \"#utility.yul\":7925:7943   */\n      0x24\n      dup3\n      add\n        /* \"#utility.yul\":7918:7948   */\n      mstore\n        /* \"#utility.yul\":7984:8018   */\n      0x416363657373436f6e74726f6c3a2063616e206f6e6c792072656e6f756e6365\n        /* \"#utility.yul\":7964:7982   */\n      0x44\n      dup3\n      add\n        /* \"#utility.yul\":7957:8019   */\n      mstore\n      shl(0x89, 0x103937b632b9903337b91039b2b633)\n        /* \"#utility.yul\":8035:8053   */\n      0x64\n      dup3\n      add\n        /* \"#utility.yul\":8028:8073   */\n      mstore\n        /* \"#utility.yul\":8090:8109   */\n      0x84\n      add\n        /* \"@openzeppelin/contracts/access/AccessControl.sol\":5874:5957  require(account == _msgSender(), \"AccessControl: can only renounce roles for self\") */\n      tag_134\n        /* \"#utility.yul\":7704:8115   */\n      jump\n        /* \"@openzeppelin/contracts/access/AccessControl.sol\":5874:5957  require(account == _msgSender(), \"AccessControl: can only renounce roles for self\") */\n    tag_195:\n        /* \"@openzeppelin/contracts/access/AccessControl.sol\":5968:5994  _revokeRole(role, account) */\n      tag_198\n        /* \"@openzeppelin/contracts/access/AccessControl.sol\":5980:5984  role */\n      dup3\n        /* \"@openzeppelin/contracts/access/AccessControl.sol\":5986:5993  account */\n      dup3\n        /* \"@openzeppelin/contracts/access/AccessControl.sol\":5968:5979  _revokeRole */\n      tag_199\n        /* \"@openzeppelin/contracts/access/AccessControl.sol\":5968:5994  _revokeRole(role, account) */\n      jump\t// in\n    tag_198:\n        /* \"@openzeppelin/contracts/access/AccessControl.sol\":5787:6001  function renounceRole(bytes32 role, address account) public virtual override {... */\n      pop\n      pop\n      jump\t// out\n        /* \"MintNagaKids.sol\":2817:2925  function getMaxSupply() public view returns (uint256) {... */\n    tag_75:\n        /* \"MintNagaKids.sol\":2889:2905  nagaKidsContract */\n      sload(0x03)\n        /* \"MintNagaKids.sol\":2889:2917  nagaKidsContract.maxSupply() */\n      0x40\n      dup1\n      mload\n      shl(0xe0, 0xd5abeb01)\n      dup2\n      mstore\n      swap1\n      mload\n        /* \"MintNagaKids.sol\":2862:2869  uint256 */\n      0x00\n      swap3\n      sub(shl(0xa0, 0x01), 0x01)\n        /* \"MintNagaKids.sol\":2889:2905  nagaKidsContract */\n      and\n      swap2\n        /* \"MintNagaKids.sol\":2889:2915  nagaKidsContract.maxSupply */\n      0xd5abeb01\n      swap2\n        /* \"MintNagaKids.sol\":2889:2917  nagaKidsContract.maxSupply() */\n      0x04\n      dup1\n      dup4\n      add\n      swap3\n      0x20\n      swap3\n      swap2\n      swap1\n      dup3\n      swap1\n      sub\n      add\n      dup2\n        /* \"MintNagaKids.sol\":2889:2905  nagaKidsContract */\n      dup7\n        /* \"MintNagaKids.sol\":2889:2917  nagaKidsContract.maxSupply() */\n      gas\n      staticcall\n      iszero\n      dup1\n      iszero\n      tag_202\n      jumpi\n      returndatasize\n      0x00\n      dup1\n      returndatacopy\n      revert(0x00, returndatasize)\n    tag_202:\n      pop\n      pop\n      pop\n      pop\n      mload(0x40)\n      returndatasize\n      not(0x1f)\n      0x1f\n      dup3\n      add\n      and\n      dup3\n      add\n      dup1\n      0x40\n      mstore\n      pop\n      dup2\n      add\n      swap1\n      tag_203\n      swap2\n      swap1\n      tag_162\n      jump\t// in\n    tag_203:\n        /* \"MintNagaKids.sol\":2882:2917  return nagaKidsContract.maxSupply() */\n      swap1\n      pop\n        /* \"MintNagaKids.sol\":2817:2925  function getMaxSupply() public view returns (uint256) {... */\n      swap1\n      jump\t// out\n        /* \"MintNagaKids.sol\":1020:1159  function changeNagaKidsContract(INagaKidsNFT _nagaKids) public onlyRole(DEFAULT_ADMIN_ROLE) {... */\n    tag_86:\n        /* \"@openzeppelin/contracts/access/AccessControl.sol\":2072:2076  0x00 */\n      0x00\n        /* \"@openzeppelin/contracts/access/AccessControl.sol\":2505:2521  _checkRole(role) */\n      tag_207\n        /* \"@openzeppelin/contracts/access/AccessControl.sol\":2072:2076  0x00 */\n      dup2\n        /* \"@openzeppelin/contracts/access/AccessControl.sol\":2505:2515  _checkRole */\n      tag_188\n        /* \"@openzeppelin/contracts/access/AccessControl.sol\":2505:2521  _checkRole(role) */\n      jump\t// in\n    tag_207:\n      pop\n        /* \"MintNagaKids.sol\":1123:1139  nagaKidsContract */\n      0x03\n        /* \"MintNagaKids.sol\":1123:1151  nagaKidsContract = _nagaKids */\n      dup1\n      sload\n      not(sub(shl(0xa0, 0x01), 0x01))\n      and\n      sub(shl(0xa0, 0x01), 0x01)\n      swap3\n      swap1\n      swap3\n      and\n      swap2\n      swap1\n      swap2\n      or\n      swap1\n      sstore\n        /* \"MintNagaKids.sol\":1020:1159  function changeNagaKidsContract(INagaKidsNFT _nagaKids) public onlyRole(DEFAULT_ADMIN_ROLE) {... */\n      jump\t// out\n        /* \"MintNagaKids.sol\":1431:1554  function setMerkleRoot(bytes32 _merkleRoot) public onlyRole(DEFAULT_ADMIN_ROLE) {... */\n    tag_90:\n        /* \"@openzeppelin/contracts/access/AccessControl.sol\":2072:2076  0x00 */\n      0x00\n        /* \"@openzeppelin/contracts/access/AccessControl.sol\":2505:2521  _checkRole(role) */\n      tag_210\n        /* \"@openzeppelin/contracts/access/AccessControl.sol\":2072:2076  0x00 */\n      dup2\n        /* \"@openzeppelin/contracts/access/AccessControl.sol\":2505:2515  _checkRole */\n      tag_188\n        /* \"@openzeppelin/contracts/access/AccessControl.sol\":2505:2521  _checkRole(role) */\n      jump\t// in\n    tag_210:\n      pop\n        /* \"MintNagaKids.sol\":1522:1532  merkleRoot */\n      0x00\n        /* \"MintNagaKids.sol\":1522:1546  merkleRoot = _merkleRoot */\n      sstore\n        /* \"MintNagaKids.sol\":1431:1554  function setMerkleRoot(bytes32 _merkleRoot) public onlyRole(DEFAULT_ADMIN_ROLE) {... */\n      jump\t// out\n        /* \"@openzeppelin/contracts/access/AccessControl.sol\":2895:3040  function hasRole(bytes32 role, address account) public view virtual override returns (bool) {... */\n    tag_94:\n        /* \"@openzeppelin/contracts/access/AccessControl.sol\":2981:2985  bool */\n      0x00\n        /* \"@openzeppelin/contracts/access/AccessControl.sol\":3004:3016  _roles[role] */\n      swap2\n      dup3\n      mstore\n        /* \"@openzeppelin/contracts/access/AccessControl.sol\":3004:3010  _roles */\n      0x01\n        /* \"@openzeppelin/contracts/access/AccessControl.sol\":3004:3016  _roles[role] */\n      0x20\n      swap1\n      dup2\n      mstore\n      0x40\n      dup1\n      dup5\n      keccak256\n      sub(shl(0xa0, 0x01), 0x01)\n        /* \"@openzeppelin/contracts/access/AccessControl.sol\":3004:3033  _roles[role].members[account] */\n      swap4\n      swap1\n      swap4\n      and\n      dup5\n      mstore\n      swap2\n      swap1\n      mstore\n      swap1\n      keccak256\n      sload\n      0xff\n      and\n      swap1\n        /* \"@openzeppelin/contracts/access/AccessControl.sol\":2895:3040  function hasRole(bytes32 role, address account) public view virtual override returns (bool) {... */\n      jump\t// out\n        /* \"MintNagaKids.sol\":1302:1419  function changePublicOpen(bool _isOpen) public onlyRole(DEFAULT_ADMIN_ROLE) {... */\n    tag_100:\n        /* \"@openzeppelin/contracts/access/AccessControl.sol\":2072:2076  0x00 */\n      0x00\n        /* \"@openzeppelin/contracts/access/AccessControl.sol\":2505:2521  _checkRole(role) */\n      tag_214\n        /* \"@openzeppelin/contracts/access/AccessControl.sol\":2072:2076  0x00 */\n      dup2\n        /* \"@openzeppelin/contracts/access/AccessControl.sol\":2505:2515  _checkRole */\n      tag_188\n        /* \"@openzeppelin/contracts/access/AccessControl.sol\":2505:2521  _checkRole(role) */\n      jump\t// in\n    tag_214:\n      pop\n        /* \"MintNagaKids.sol\":1389:1401  isPublicOpen */\n      0x03\n        /* \"MintNagaKids.sol\":1389:1411  isPublicOpen = _isOpen */\n      dup1\n      sload\n      swap2\n      iszero\n      iszero\n      shl(0xa0, 0x01)\n      mul\n      not(shl(0xa0, 0xff))\n      swap1\n      swap3\n      and\n      swap2\n      swap1\n      swap2\n      or\n      swap1\n      sstore\n        /* \"MintNagaKids.sol\":1302:1419  function changePublicOpen(bool _isOpen) public onlyRole(DEFAULT_ADMIN_ROLE) {... */\n      jump\t// out\n        /* \"MintNagaKids.sol\":2697:2809  function getTotalSupply() public view returns (uint256) {... */\n    tag_111:\n        /* \"MintNagaKids.sol\":2771:2787  nagaKidsContract */\n      sload(0x03)\n        /* \"MintNagaKids.sol\":2771:2801  nagaKidsContract.totalSupply() */\n      0x40\n      dup1\n      mload\n      shl(0xe0, 0x18160ddd)\n      dup2\n      mstore\n      swap1\n      mload\n        /* \"MintNagaKids.sol\":2744:2751  uint256 */\n      0x00\n      swap3\n      sub(shl(0xa0, 0x01), 0x01)\n        /* \"MintNagaKids.sol\":2771:2787  nagaKidsContract */\n      and\n      swap2\n        /* \"MintNagaKids.sol\":2771:2799  nagaKidsContract.totalSupply */\n      0x18160ddd\n      swap2\n        /* \"MintNagaKids.sol\":2771:2801  nagaKidsContract.totalSupply() */\n      0x04\n      dup1\n      dup4\n      add\n      swap3\n      0x20\n      swap3\n      swap2\n      swap1\n      dup3\n      swap1\n      sub\n      add\n      dup2\n        /* \"MintNagaKids.sol\":2771:2787  nagaKidsContract */\n      dup7\n        /* \"MintNagaKids.sol\":2771:2801  nagaKidsContract.totalSupply() */\n      gas\n      staticcall\n      iszero\n      dup1\n      iszero\n      tag_202\n      jumpi\n      returndatasize\n      0x00\n      dup1\n      returndatacopy\n      revert(0x00, returndatasize)\n        /* \"@openzeppelin/contracts/access/AccessControl.sol\":5149:5296  function revokeRole(bytes32 role, address account) public virtual override onlyRole(getRoleAdmin(role)) {... */\n    tag_116:\n        /* \"@openzeppelin/contracts/access/AccessControl.sol\":4465:4472  bytes32 */\n      0x00\n        /* \"@openzeppelin/contracts/access/AccessControl.sol\":4491:4503  _roles[role] */\n      dup3\n      dup2\n      mstore\n        /* \"@openzeppelin/contracts/access/AccessControl.sol\":4491:4497  _roles */\n      0x01\n        /* \"@openzeppelin/contracts/access/AccessControl.sol\":4491:4503  _roles[role] */\n      0x20\n      dup2\n      swap1\n      mstore\n      0x40\n      swap1\n      swap2\n      keccak256\n        /* \"@openzeppelin/contracts/access/AccessControl.sol\":4491:4513  _roles[role].adminRole */\n      add\n      sload\n        /* \"@openzeppelin/contracts/access/AccessControl.sol\":2505:2521  _checkRole(role) */\n      tag_222\n        /* \"@openzeppelin/contracts/access/AccessControl.sol\":2516:2520  role */\n      dup2\n        /* \"@openzeppelin/contracts/access/AccessControl.sol\":2505:2515  _checkRole */\n      tag_188\n        /* \"@openzeppelin/contracts/access/AccessControl.sol\":2505:2521  _checkRole(role) */\n      jump\t// in\n    tag_222:\n        /* \"@openzeppelin/contracts/access/AccessControl.sol\":5263:5289  _revokeRole(role, account) */\n      tag_190\n        /* \"@openzeppelin/contracts/access/AccessControl.sol\":5275:5279  role */\n      dup4\n        /* \"@openzeppelin/contracts/access/AccessControl.sol\":5281:5288  account */\n      dup4\n        /* \"@openzeppelin/contracts/access/AccessControl.sol\":5263:5274  _revokeRole */\n      tag_199\n        /* \"@openzeppelin/contracts/access/AccessControl.sol\":5263:5289  _revokeRole(role, account) */\n      jump\t// in\n        /* \"MintNagaKids.sol\":1167:1294  function changeWhitelistMintOpen(bool _isOpen) public onlyRole(DEFAULT_ADMIN_ROLE) {... */\n    tag_120:\n        /* \"@openzeppelin/contracts/access/AccessControl.sol\":2072:2076  0x00 */\n      0x00\n        /* \"@openzeppelin/contracts/access/AccessControl.sol\":2505:2521  _checkRole(role) */\n      tag_226\n        /* \"@openzeppelin/contracts/access/AccessControl.sol\":2072:2076  0x00 */\n      dup2\n        /* \"@openzeppelin/contracts/access/AccessControl.sol\":2505:2515  _checkRole */\n      tag_188\n        /* \"@openzeppelin/contracts/access/AccessControl.sol\":2505:2521  _checkRole(role) */\n      jump\t// in\n    tag_226:\n      pop\n        /* \"MintNagaKids.sol\":1261:1276  isWhitelistOpen */\n      0x03\n        /* \"MintNagaKids.sol\":1261:1286  isWhitelistOpen = _isOpen */\n      dup1\n      sload\n      swap2\n      iszero\n      iszero\n      shl(0xa8, 0x01)\n      mul\n      not(shl(0xa8, 0xff))\n      swap1\n      swap3\n      and\n      swap2\n      swap1\n      swap2\n      or\n      swap1\n      sstore\n        /* \"MintNagaKids.sol\":1167:1294  function changeWhitelistMintOpen(bool _isOpen) public onlyRole(DEFAULT_ADMIN_ROLE) {... */\n      jump\t// out\n        /* \"MintNagaKids.sol\":2933:3030  function isPause() public view returns (bool) {... */\n    tag_123:\n        /* \"MintNagaKids.sol\":2997:3013  nagaKidsContract */\n      sload(0x03)\n        /* \"MintNagaKids.sol\":2997:3022  nagaKidsContract.paused() */\n      0x40\n      dup1\n      mload\n      shl(0xe0, 0x5c975abb)\n      dup2\n      mstore\n      swap1\n      mload\n        /* \"MintNagaKids.sol\":2973:2977  bool */\n      0x00\n      swap3\n      sub(shl(0xa0, 0x01), 0x01)\n        /* \"MintNagaKids.sol\":2997:3013  nagaKidsContract */\n      and\n      swap2\n        /* \"MintNagaKids.sol\":2997:3020  nagaKidsContract.paused */\n      0x5c975abb\n      swap2\n        /* \"MintNagaKids.sol\":2997:3022  nagaKidsContract.paused() */\n      0x04\n      dup1\n      dup4\n      add\n      swap3\n      0x20\n      swap3\n      swap2\n      swap1\n      dup3\n      swap1\n      sub\n      add\n      dup2\n        /* \"MintNagaKids.sol\":2997:3013  nagaKidsContract */\n      dup7\n        /* \"MintNagaKids.sol\":2997:3022  nagaKidsContract.paused() */\n      gas\n      staticcall\n      iszero\n      dup1\n      iszero\n      tag_230\n      jumpi\n      returndatasize\n      0x00\n      dup1\n      returndatacopy\n      revert(0x00, returndatasize)\n    tag_230:\n      pop\n      pop\n      pop\n      pop\n      mload(0x40)\n      returndatasize\n      not(0x1f)\n      0x1f\n      dup3\n      add\n      and\n      dup3\n      add\n      dup1\n      0x40\n      mstore\n      pop\n      dup2\n      add\n      swap1\n      tag_203\n      swap2\n      swap1\n      tag_168\n      jump\t// in\n        /* \"@openzeppelin/contracts/utils/Strings.sol\":1588:2029  function toHexString(uint256 value, uint256 length) internal pure returns (string memory) {... */\n    tag_125:\n        /* \"@openzeppelin/contracts/utils/Strings.sol\":1663:1676  string memory */\n      0x60\n        /* \"@openzeppelin/contracts/utils/Strings.sol\":1688:1707  bytes memory buffer */\n      0x00\n        /* \"@openzeppelin/contracts/utils/Strings.sol\":1720:1730  2 * length */\n      tag_233\n        /* \"@openzeppelin/contracts/utils/Strings.sol\":1724:1730  length */\n      dup4\n        /* \"@openzeppelin/contracts/utils/Strings.sol\":1720:1721  2 */\n      0x02\n        /* \"@openzeppelin/contracts/utils/Strings.sol\":1720:1730  2 * length */\n      tag_234\n      jump\t// in\n    tag_233:\n        /* \"@openzeppelin/contracts/utils/Strings.sol\":1720:1734  2 * length + 2 */\n      tag_235\n      swap1\n        /* \"@openzeppelin/contracts/utils/Strings.sol\":1733:1734  2 */\n      0x02\n        /* \"@openzeppelin/contracts/utils/Strings.sol\":1720:1734  2 * length + 2 */\n      tag_155\n      jump\t// in\n    tag_235:\n        /* \"@openzeppelin/contracts/utils/Strings.sol\":1710:1735  new bytes(2 * length + 2) */\n      0xffffffffffffffff\n      dup2\n      gt\n      iszero\n      tag_237\n      jumpi\n      tag_237\n      tag_238\n      jump\t// in\n    tag_237:\n      mload(0x40)\n      swap1\n      dup1\n      dup3\n      mstore\n      dup1\n      0x1f\n      add\n      not(0x1f)\n      and\n      0x20\n      add\n      dup3\n      add\n      0x40\n      mstore\n      dup1\n      iszero\n      tag_239\n      jumpi\n      0x20\n      dup3\n      add\n      dup2\n      dup1\n      calldatasize\n      dup4\n      calldatacopy\n      add\n      swap1\n      pop\n    tag_239:\n      pop\n        /* \"@openzeppelin/contracts/utils/Strings.sol\":1688:1735  bytes memory buffer = new bytes(2 * length + 2) */\n      swap1\n      pop\n      shl(0xfc, 0x03)\n        /* \"@openzeppelin/contracts/utils/Strings.sol\":1745:1751  buffer */\n      dup2\n        /* \"@openzeppelin/contracts/utils/Strings.sol\":1752:1753  0 */\n      0x00\n        /* \"@openzeppelin/contracts/utils/Strings.sol\":1745:1754  buffer[0] */\n      dup2\n      mload\n      dup2\n      lt\n      tag_241\n      jumpi\n      tag_241\n      tag_242\n      jump\t// in\n    tag_241:\n      0x20\n      add\n      add\n        /* \"@openzeppelin/contracts/utils/Strings.sol\":1745:1760  buffer[0] = \"0\" */\n      swap1\n      not(sub(shl(0xf8, 0x01), 0x01))\n      and\n      swap1\n      dup2\n      0x00\n      byte\n      swap1\n      mstore8\n      pop\n      shl(0xfb, 0x0f)\n        /* \"@openzeppelin/contracts/utils/Strings.sol\":1770:1776  buffer */\n      dup2\n        /* \"@openzeppelin/contracts/utils/Strings.sol\":1777:1778  1 */\n      0x01\n        /* \"@openzeppelin/contracts/utils/Strings.sol\":1770:1779  buffer[1] */\n      dup2\n      mload\n      dup2\n      lt\n      tag_244\n      jumpi\n      tag_244\n      tag_242\n      jump\t// in\n    tag_244:\n      0x20\n      add\n      add\n        /* \"@openzeppelin/contracts/utils/Strings.sol\":1770:1785  buffer[1] = \"x\" */\n      swap1\n      not(sub(shl(0xf8, 0x01), 0x01))\n      and\n      swap1\n      dup2\n      0x00\n      byte\n      swap1\n      mstore8\n      pop\n        /* \"@openzeppelin/contracts/utils/Strings.sol\":1800:1809  uint256 i */\n      0x00\n        /* \"@openzeppelin/contracts/utils/Strings.sol\":1812:1822  2 * length */\n      tag_248\n        /* \"@openzeppelin/contracts/utils/Strings.sol\":1816:1822  length */\n      dup5\n        /* \"@openzeppelin/contracts/utils/Strings.sol\":1812:1813  2 */\n      0x02\n        /* \"@openzeppelin/contracts/utils/Strings.sol\":1812:1822  2 * length */\n      tag_234\n      jump\t// in\n    tag_248:\n        /* \"@openzeppelin/contracts/utils/Strings.sol\":1812:1826  2 * length + 1 */\n      tag_249\n      swap1\n        /* \"@openzeppelin/contracts/utils/Strings.sol\":1825:1826  1 */\n      0x01\n        /* \"@openzeppelin/contracts/utils/Strings.sol\":1812:1826  2 * length + 1 */\n      tag_155\n      jump\t// in\n    tag_249:\n        /* \"@openzeppelin/contracts/utils/Strings.sol\":1800:1826  uint256 i = 2 * length + 1 */\n      swap1\n      pop\n        /* \"@openzeppelin/contracts/utils/Strings.sol\":1795:1927  for (uint256 i = 2 * length + 1; i > 1; --i) {... */\n    tag_245:\n        /* \"@openzeppelin/contracts/utils/Strings.sol\":1832:1833  1 */\n      0x01\n        /* \"@openzeppelin/contracts/utils/Strings.sol\":1828:1829  i */\n      dup2\n        /* \"@openzeppelin/contracts/utils/Strings.sol\":1828:1833  i > 1 */\n      gt\n        /* \"@openzeppelin/contracts/utils/Strings.sol\":1795:1927  for (uint256 i = 2 * length + 1; i > 1; --i) {... */\n      iszero\n      tag_246\n      jumpi\n      shl(0x81, 0x181899199a1a9b1b9c1cb0b131b232b3)\n        /* \"@openzeppelin/contracts/utils/Strings.sol\":1879:1884  value */\n      dup6\n        /* \"@openzeppelin/contracts/utils/Strings.sol\":1887:1890  0xf */\n      0x0f\n        /* \"@openzeppelin/contracts/utils/Strings.sol\":1879:1890  value & 0xf */\n      and\n        /* \"@openzeppelin/contracts/utils/Strings.sol\":1866:1891  _HEX_SYMBOLS[value & 0xf] */\n      0x10\n      dup2\n      lt\n      tag_251\n      jumpi\n      tag_251\n      tag_242\n      jump\t// in\n    tag_251:\n      byte\n      0xf8\n      shl\n        /* \"@openzeppelin/contracts/utils/Strings.sol\":1854:1860  buffer */\n      dup3\n        /* \"@openzeppelin/contracts/utils/Strings.sol\":1861:1862  i */\n      dup3\n        /* \"@openzeppelin/contracts/utils/Strings.sol\":1854:1863  buffer[i] */\n      dup2\n      mload\n      dup2\n      lt\n      tag_253\n      jumpi\n      tag_253\n      tag_242\n      jump\t// in\n    tag_253:\n      0x20\n      add\n      add\n        /* \"@openzeppelin/contracts/utils/Strings.sol\":1854:1891  buffer[i] = _HEX_SYMBOLS[value & 0xf] */\n      swap1\n      not(sub(shl(0xf8, 0x01), 0x01))\n      and\n      swap1\n      dup2\n      0x00\n      byte\n      swap1\n      mstore8\n      pop\n        /* \"@openzeppelin/contracts/utils/Strings.sol\":1915:1916  4 */\n      0x04\n        /* \"@openzeppelin/contracts/utils/Strings.sol\":1905:1916  value >>= 4 */\n      swap5\n      swap1\n      swap5\n      shr\n      swap4\n        /* \"@openzeppelin/contracts/utils/Strings.sol\":1835:1838  --i */\n      tag_254\n      dup2\n      tag_255\n      jump\t// in\n    tag_254:\n      swap1\n      pop\n        /* \"@openzeppelin/contracts/utils/Strings.sol\":1795:1927  for (uint256 i = 2 * length + 1; i > 1; --i) {... */\n      jump(tag_245)\n    tag_246:\n      pop\n        /* \"@openzeppelin/contracts/utils/Strings.sol\":1944:1954  value == 0 */\n      dup4\n      iszero\n        /* \"@openzeppelin/contracts/utils/Strings.sol\":1936:1991  require(value == 0, \"Strings: hex length insufficient\") */\n      tag_256\n      jumpi\n      mload(0x40)\n      shl(0xe5, 0x461bcd)\n      dup2\n      mstore\n        /* \"#utility.yul\":9089:9091   */\n      0x20\n        /* \"@openzeppelin/contracts/utils/Strings.sol\":1936:1991  require(value == 0, \"Strings: hex length insufficient\") */\n      0x04\n      dup3\n      add\n        /* \"#utility.yul\":9071:9092   */\n      dup2\n      swap1\n      mstore\n        /* \"#utility.yul\":9108:9126   */\n      0x24\n      dup3\n      add\n        /* \"#utility.yul\":9101:9131   */\n      mstore\n        /* \"#utility.yul\":9167:9201   */\n      0x537472696e67733a20686578206c656e67746820696e73756666696369656e74\n        /* \"#utility.yul\":9147:9165   */\n      0x44\n      dup3\n      add\n        /* \"#utility.yul\":9140:9202   */\n      mstore\n        /* \"#utility.yul\":9219:9237   */\n      0x64\n      add\n        /* \"@openzeppelin/contracts/utils/Strings.sol\":1936:1991  require(value == 0, \"Strings: hex length insufficient\") */\n      tag_134\n        /* \"#utility.yul\":8887:9243   */\n      jump\n        /* \"@openzeppelin/contracts/utils/Strings.sol\":1936:1991  require(value == 0, \"Strings: hex length insufficient\") */\n    tag_256:\n        /* \"@openzeppelin/contracts/utils/Strings.sol\":2015:2021  buffer */\n      swap4\n        /* \"@openzeppelin/contracts/utils/Strings.sol\":1588:2029  function toHexString(uint256 value, uint256 length) internal pure returns (string memory) {... */\n      swap3\n      pop\n      pop\n      pop\n      jump\t// out\n        /* \"Whitelist.sol\":195:598  function isWhitelist(... */\n    tag_173:\n        /* \"Whitelist.sol\":332:336  bool */\n      0x00\n        /* \"Whitelist.sol\":353:363  merkleRoot */\n      dup1\n      sload\n        /* \"Whitelist.sol\":353:368  merkleRoot == 0 */\n      dup2\n      sub\n        /* \"Whitelist.sol\":349:409  if (merkleRoot == 0) {... */\n      tag_261\n      jumpi\n      pop\n        /* \"Whitelist.sol\":392:397  false */\n      0x00\n        /* \"Whitelist.sol\":385:397  return false */\n      jump(tag_260)\n        /* \"Whitelist.sol\":349:409  if (merkleRoot == 0) {... */\n    tag_261:\n        /* \"Whitelist.sol\":441:590  MerkleProof.verify(... */\n      tag_262\n        /* \"Whitelist.sol\":478:484  _proof */\n      dup6\n      dup6\n        /* \"Whitelist.sol\":441:590  MerkleProof.verify(... */\n      dup1\n      dup1\n      0x20\n      mul\n      0x20\n      add\n      mload(0x40)\n      swap1\n      dup2\n      add\n      0x40\n      mstore\n      dup1\n      swap4\n      swap3\n      swap2\n      swap1\n      dup2\n      dup2\n      mstore\n      0x20\n      add\n      dup4\n      dup4\n      0x20\n      mul\n      dup1\n      dup3\n      dup5\n      calldatacopy\n      0x00\n      swap3\n      add\n      dup3\n      swap1\n      mstore\n      pop\n        /* \"Whitelist.sol\":503:513  merkleRoot */\n      sload\n        /* \"Whitelist.sol\":542:574  abi.encodePacked(_user, _amount) */\n      mload(0x40)\n      not(0xffffffffffffffffffffffff)\n        /* \"#utility.yul\":9425:9427   */\n      0x60\n        /* \"#utility.yul\":9421:9436   */\n      dup12\n      swap1\n      shl\n        /* \"#utility.yul\":9417:9470   */\n      and\n        /* \"Whitelist.sol\":542:574  abi.encodePacked(_user, _amount) */\n      0x20\n      dup3\n      add\n        /* \"#utility.yul\":9405:9471   */\n      mstore\n        /* \"#utility.yul\":9487:9499   */\n      0x34\n      dup2\n      add\n        /* \"#utility.yul\":9480:9508   */\n      dup10\n      swap1\n      mstore\n        /* \"Whitelist.sol\":503:513  merkleRoot */\n      swap1\n      swap4\n      pop\n        /* \"#utility.yul\":9524:9536   */\n      0x54\n      add\n      swap2\n      pop\n        /* \"Whitelist.sol\":542:574  abi.encodePacked(_user, _amount) */\n      tag_263\n      swap1\n      pop\n        /* \"#utility.yul\":9248:9542   */\n      jump\n        /* \"Whitelist.sol\":542:574  abi.encodePacked(_user, _amount) */\n    tag_263:\n      mload(0x40)\n      0x20\n      dup2\n      dup4\n      sub\n      sub\n      dup2\n      mstore\n      swap1\n      0x40\n      mstore\n        /* \"Whitelist.sol\":532:575  keccak256(abi.encodePacked(_user, _amount)) */\n      dup1\n      mload\n      swap1\n      0x20\n      add\n      keccak256\n        /* \"Whitelist.sol\":441:459  MerkleProof.verify */\n      tag_265\n        /* \"Whitelist.sol\":441:590  MerkleProof.verify(... */\n      jump\t// in\n    tag_262:\n        /* \"Whitelist.sol\":421:590  return... */\n      swap1\n      pop\n        /* \"Whitelist.sol\":195:598  function isWhitelist(... */\n    tag_260:\n      swap5\n      swap4\n      pop\n      pop\n      pop\n      pop\n      jump\t// out\n        /* \"@openzeppelin/contracts/access/AccessControl.sol\":3334:3437  function _checkRole(bytes32 role) internal view virtual {... */\n    tag_188:\n        /* \"@openzeppelin/contracts/access/AccessControl.sol\":3400:3430  _checkRole(role, _msgSender()) */\n      tag_267\n        /* \"@openzeppelin/contracts/access/AccessControl.sol\":3411:3415  role */\n      dup2\n        /* \"@openzeppelin/contracts/utils/Context.sol\":719:729  msg.sender */\n      caller\n        /* \"@openzeppelin/contracts/access/AccessControl.sol\":3400:3410  _checkRole */\n      tag_269\n        /* \"@openzeppelin/contracts/access/AccessControl.sol\":3400:3430  _checkRole(role, _msgSender()) */\n      jump\t// in\n    tag_267:\n        /* \"@openzeppelin/contracts/access/AccessControl.sol\":3334:3437  function _checkRole(bytes32 role) internal view virtual {... */\n      pop\n      jump\t// out\n        /* \"@openzeppelin/contracts/access/AccessControl.sol\":7244:7477  function _grantRole(bytes32 role, address account) internal virtual {... */\n    tag_191:\n        /* \"@openzeppelin/contracts/access/AccessControl.sol\":7327:7349  hasRole(role, account) */\n      tag_271\n        /* \"@openzeppelin/contracts/access/AccessControl.sol\":7335:7339  role */\n      dup3\n        /* \"@openzeppelin/contracts/access/AccessControl.sol\":7341:7348  account */\n      dup3\n        /* \"@openzeppelin/contracts/access/AccessControl.sol\":7327:7334  hasRole */\n      tag_94\n        /* \"@openzeppelin/contracts/access/AccessControl.sol\":7327:7349  hasRole(role, account) */\n      jump\t// in\n    tag_271:\n        /* \"@openzeppelin/contracts/access/AccessControl.sol\":7322:7471  if (!hasRole(role, account)) {... */\n      tag_198\n      jumpi\n        /* \"@openzeppelin/contracts/access/AccessControl.sol\":7365:7377  _roles[role] */\n      0x00\n      dup3\n      dup2\n      mstore\n        /* \"@openzeppelin/contracts/access/AccessControl.sol\":7397:7401  true */\n      0x01\n        /* \"@openzeppelin/contracts/access/AccessControl.sol\":7365:7377  _roles[role] */\n      0x20\n      dup2\n      dup2\n      mstore\n      0x40\n      dup1\n      dup5\n      keccak256\n      sub(shl(0xa0, 0x01), 0x01)\n        /* \"@openzeppelin/contracts/access/AccessControl.sol\":7365:7394  _roles[role].members[account] */\n      dup7\n      and\n      dup1\n      dup7\n      mstore\n      swap3\n      mstore\n      dup1\n      dup5\n      keccak256\n        /* \"@openzeppelin/contracts/access/AccessControl.sol\":7365:7401  _roles[role].members[account] = true */\n      dup1\n      sload\n      not(0xff)\n      and\n      swap1\n      swap4\n      or\n      swap1\n      swap3\n      sstore\n        /* \"@openzeppelin/contracts/access/AccessControl.sol\":7420:7460  RoleGranted(role, account, _msgSender()) */\n      swap1\n      mload\n        /* \"@openzeppelin/contracts/utils/Context.sol\":719:729  msg.sender */\n      caller\n      swap3\n        /* \"@openzeppelin/contracts/access/AccessControl.sol\":7365:7377  _roles[role] */\n      dup6\n      swap2\n        /* \"@openzeppelin/contracts/access/AccessControl.sol\":7420:7460  RoleGranted(role, account, _msgSender()) */\n      0x2f8788117e7eff1d82e926ec794901d17c78024a50270940304540a733656f0d\n      swap2\n        /* \"@openzeppelin/contracts/access/AccessControl.sol\":7365:7377  _roles[role] */\n      swap1\n        /* \"@openzeppelin/contracts/access/AccessControl.sol\":7420:7460  RoleGranted(role, account, _msgSender()) */\n      log4\n        /* \"@openzeppelin/contracts/access/AccessControl.sol\":7244:7477  function _grantRole(bytes32 role, address account) internal virtual {... */\n      pop\n      pop\n      jump\t// out\n        /* \"@openzeppelin/contracts/access/AccessControl.sol\":7602:7836  function _revokeRole(bytes32 role, address account) internal virtual {... */\n    tag_199:\n        /* \"@openzeppelin/contracts/access/AccessControl.sol\":7685:7707  hasRole(role, account) */\n      tag_276\n        /* \"@openzeppelin/contracts/access/AccessControl.sol\":7693:7697  role */\n      dup3\n        /* \"@openzeppelin/contracts/access/AccessControl.sol\":7699:7706  account */\n      dup3\n        /* \"@openzeppelin/contracts/access/AccessControl.sol\":7685:7692  hasRole */\n      tag_94\n        /* \"@openzeppelin/contracts/access/AccessControl.sol\":7685:7707  hasRole(role, account) */\n      jump\t// in\n    tag_276:\n        /* \"@openzeppelin/contracts/access/AccessControl.sol\":7681:7830  if (hasRole(role, account)) {... */\n      iszero\n      tag_198\n      jumpi\n        /* \"@openzeppelin/contracts/access/AccessControl.sol\":7755:7760  false */\n      0x00\n        /* \"@openzeppelin/contracts/access/AccessControl.sol\":7723:7735  _roles[role] */\n      dup3\n      dup2\n      mstore\n        /* \"@openzeppelin/contracts/access/AccessControl.sol\":7723:7729  _roles */\n      0x01\n        /* \"@openzeppelin/contracts/access/AccessControl.sol\":7723:7735  _roles[role] */\n      0x20\n      swap1\n      dup2\n      mstore\n      0x40\n      dup1\n      dup4\n      keccak256\n      sub(shl(0xa0, 0x01), 0x01)\n        /* \"@openzeppelin/contracts/access/AccessControl.sol\":7723:7752  _roles[role].members[account] */\n      dup6\n      and\n      dup1\n      dup6\n      mstore\n      swap3\n      mstore\n      dup1\n      dup4\n      keccak256\n        /* \"@openzeppelin/contracts/access/AccessControl.sol\":7723:7760  _roles[role].members[account] = false */\n      dup1\n      sload\n      not(0xff)\n      and\n      swap1\n      sstore\n        /* \"@openzeppelin/contracts/access/AccessControl.sol\":7779:7819  RoleRevoked(role, account, _msgSender()) */\n      mload\n        /* \"@openzeppelin/contracts/utils/Context.sol\":719:729  msg.sender */\n      caller\n      swap3\n        /* \"@openzeppelin/contracts/access/AccessControl.sol\":7723:7735  _roles[role] */\n      dup6\n      swap2\n        /* \"@openzeppelin/contracts/access/AccessControl.sol\":7779:7819  RoleRevoked(role, account, _msgSender()) */\n      0xf6391f5c32d9c69d2a47ea670b442974b53935d1edc7fd64eb21e047a839171b\n      swap2\n        /* \"@openzeppelin/contracts/access/AccessControl.sol\":7755:7760  false */\n      swap1\n        /* \"@openzeppelin/contracts/access/AccessControl.sol\":7779:7819  RoleRevoked(role, account, _msgSender()) */\n      log4\n        /* \"@openzeppelin/contracts/access/AccessControl.sol\":7602:7836  function _revokeRole(bytes32 role, address account) internal virtual {... */\n      pop\n      pop\n      jump\t// out\n        /* \"@openzeppelin/contracts/utils/cryptography/MerkleProof.sol\":1154:1338  function verify(... */\n    tag_265:\n        /* \"@openzeppelin/contracts/utils/cryptography/MerkleProof.sol\":1275:1279  bool */\n      0x00\n        /* \"@openzeppelin/contracts/utils/cryptography/MerkleProof.sol\":1327:1331  root */\n      dup3\n        /* \"@openzeppelin/contracts/utils/cryptography/MerkleProof.sol\":1298:1323  processProof(proof, leaf) */\n      tag_280\n        /* \"@openzeppelin/contracts/utils/cryptography/MerkleProof.sol\":1311:1316  proof */\n      dup6\n        /* \"@openzeppelin/contracts/utils/cryptography/MerkleProof.sol\":1318:1322  leaf */\n      dup5\n        /* \"@openzeppelin/contracts/utils/cryptography/MerkleProof.sol\":1298:1310  processProof */\n      tag_281\n        /* \"@openzeppelin/contracts/utils/cryptography/MerkleProof.sol\":1298:1323  processProof(proof, leaf) */\n      jump\t// in\n    tag_280:\n        /* \"@openzeppelin/contracts/utils/cryptography/MerkleProof.sol\":1298:1331  processProof(proof, leaf) == root */\n      eq\n      swap5\n        /* \"@openzeppelin/contracts/utils/cryptography/MerkleProof.sol\":1154:1338  function verify(... */\n      swap4\n      pop\n      pop\n      pop\n      pop\n      jump\t// out\n        /* \"@openzeppelin/contracts/access/AccessControl.sol\":3718:4210  function _checkRole(bytes32 role, address account) internal view virtual {... */\n    tag_269:\n        /* \"@openzeppelin/contracts/access/AccessControl.sol\":3806:3828  hasRole(role, account) */\n      tag_283\n        /* \"@openzeppelin/contracts/access/AccessControl.sol\":3814:3818  role */\n      dup3\n        /* \"@openzeppelin/contracts/access/AccessControl.sol\":3820:3827  account */\n      dup3\n        /* \"@openzeppelin/contracts/access/AccessControl.sol\":3806:3813  hasRole */\n      tag_94\n        /* \"@openzeppelin/contracts/access/AccessControl.sol\":3806:3828  hasRole(role, account) */\n      jump\t// in\n    tag_283:\n        /* \"@openzeppelin/contracts/access/AccessControl.sol\":3801:4204  if (!hasRole(role, account)) {... */\n      tag_198\n      jumpi\n        /* \"@openzeppelin/contracts/access/AccessControl.sol\":3989:4030  Strings.toHexString(uint160(account), 20) */\n      tag_285\n        /* \"@openzeppelin/contracts/access/AccessControl.sol\":4017:4024  account */\n      dup2\n      sub(shl(0xa0, 0x01), 0x01)\n        /* \"@openzeppelin/contracts/access/AccessControl.sol\":3989:4030  Strings.toHexString(uint160(account), 20) */\n      and\n        /* \"@openzeppelin/contracts/access/AccessControl.sol\":4027:4029  20 */\n      0x14\n        /* \"@openzeppelin/contracts/access/AccessControl.sol\":3989:4008  Strings.toHexString */\n      tag_125\n        /* \"@openzeppelin/contracts/access/AccessControl.sol\":3989:4030  Strings.toHexString(uint160(account), 20) */\n      jump\t// in\n    tag_285:\n        /* \"@openzeppelin/contracts/access/AccessControl.sol\":4101:4139  Strings.toHexString(uint256(role), 32) */\n      tag_286\n        /* \"@openzeppelin/contracts/access/AccessControl.sol\":4129:4133  role */\n      dup4\n        /* \"@openzeppelin/contracts/access/AccessControl.sol\":4136:4138  32 */\n      0x20\n        /* \"@openzeppelin/contracts/access/AccessControl.sol\":4101:4120  Strings.toHexString */\n      tag_125\n        /* \"@openzeppelin/contracts/access/AccessControl.sol\":4101:4139  Strings.toHexString(uint256(role), 32) */\n      jump\t// in\n    tag_286:\n        /* \"@openzeppelin/contracts/access/AccessControl.sol\":3896:4161  abi.encodePacked(... */\n      add(0x20, mload(0x40))\n      tag_287\n      swap3\n      swap2\n      swap1\n      tag_288\n      jump\t// in\n    tag_287:\n      0x40\n      dup1\n      mload\n      not(0x1f)\n      dup2\n      dup5\n      sub\n      add\n      dup2\n      mstore\n      swap1\n      dup3\n      swap1\n      mstore\n      shl(0xe5, 0x461bcd)\n        /* \"@openzeppelin/contracts/access/AccessControl.sol\":3844:4193  revert(... */\n      dup3\n      mstore\n      tag_134\n      swap2\n      0x04\n      add\n      tag_290\n      jump\t// in\n        /* \"@openzeppelin/contracts/utils/cryptography/MerkleProof.sol\":1689:2351  function processProof(bytes32[] memory proof, bytes32 leaf) internal pure returns (bytes32) {... */\n    tag_281:\n        /* \"@openzeppelin/contracts/utils/cryptography/MerkleProof.sol\":1772:1779  bytes32 */\n      0x00\n        /* \"@openzeppelin/contracts/utils/cryptography/MerkleProof.sol\":1814:1818  leaf */\n      dup2\n        /* \"@openzeppelin/contracts/utils/cryptography/MerkleProof.sol\":1772:1779  bytes32 */\n      dup2\n        /* \"@openzeppelin/contracts/utils/cryptography/MerkleProof.sol\":1828:2316  for (uint256 i = 0; i < proof.length; i++) {... */\n    tag_292:\n        /* \"@openzeppelin/contracts/utils/cryptography/MerkleProof.sol\":1852:1857  proof */\n      dup5\n        /* \"@openzeppelin/contracts/utils/cryptography/MerkleProof.sol\":1852:1864  proof.length */\n      mload\n        /* \"@openzeppelin/contracts/utils/cryptography/MerkleProof.sol\":1848:1849  i */\n      dup2\n        /* \"@openzeppelin/contracts/utils/cryptography/MerkleProof.sol\":1848:1864  i < proof.length */\n      lt\n        /* \"@openzeppelin/contracts/utils/cryptography/MerkleProof.sol\":1828:2316  for (uint256 i = 0; i < proof.length; i++) {... */\n      iszero\n      tag_293\n      jumpi\n        /* \"@openzeppelin/contracts/utils/cryptography/MerkleProof.sol\":1885:1905  bytes32 proofElement */\n      0x00\n        /* \"@openzeppelin/contracts/utils/cryptography/MerkleProof.sol\":1908:1913  proof */\n      dup6\n        /* \"@openzeppelin/contracts/utils/cryptography/MerkleProof.sol\":1914:1915  i */\n      dup3\n        /* \"@openzeppelin/contracts/utils/cryptography/MerkleProof.sol\":1908:1916  proof[i] */\n      dup2\n      mload\n      dup2\n      lt\n      tag_296\n      jumpi\n      tag_296\n      tag_242\n      jump\t// in\n    tag_296:\n      0x20\n      mul\n      0x20\n      add\n      add\n      mload\n        /* \"@openzeppelin/contracts/utils/cryptography/MerkleProof.sol\":1885:1916  bytes32 proofElement = proof[i] */\n      swap1\n      pop\n        /* \"@openzeppelin/contracts/utils/cryptography/MerkleProof.sol\":1950:1962  proofElement */\n      dup1\n        /* \"@openzeppelin/contracts/utils/cryptography/MerkleProof.sol\":1934:1946  computedHash */\n      dup4\n        /* \"@openzeppelin/contracts/utils/cryptography/MerkleProof.sol\":1934:1962  computedHash <= proofElement */\n      gt\n        /* \"@openzeppelin/contracts/utils/cryptography/MerkleProof.sol\":1930:2306  if (computedHash <= proofElement) {... */\n      tag_297\n      jumpi\n        /* \"@openzeppelin/contracts/utils/cryptography/MerkleProof.sol\":2425:2438  bytes32 value */\n      0x00\n        /* \"@openzeppelin/contracts/utils/cryptography/MerkleProof.sol\":2473:2488  mstore(0x00, a) */\n      dup4\n      dup2\n      mstore\n        /* \"@openzeppelin/contracts/utils/cryptography/MerkleProof.sol\":2508:2512  0x20 */\n      0x20\n        /* \"@openzeppelin/contracts/utils/cryptography/MerkleProof.sol\":2501:2516  mstore(0x20, b) */\n      dup3\n      swap1\n      mstore\n        /* \"@openzeppelin/contracts/utils/cryptography/MerkleProof.sol\":2554:2558  0x40 */\n      0x40\n        /* \"@openzeppelin/contracts/utils/cryptography/MerkleProof.sol\":2538:2559  keccak256(0x00, 0x40) */\n      swap1\n      keccak256\n        /* \"@openzeppelin/contracts/utils/cryptography/MerkleProof.sol\":2060:2117  computedHash = _efficientHash(computedHash, proofElement) */\n      swap3\n      pop\n        /* \"@openzeppelin/contracts/utils/cryptography/MerkleProof.sol\":1930:2306  if (computedHash <= proofElement) {... */\n      jump(tag_300)\n    tag_297:\n        /* \"@openzeppelin/contracts/utils/cryptography/MerkleProof.sol\":2425:2438  bytes32 value */\n      0x00\n        /* \"@openzeppelin/contracts/utils/cryptography/MerkleProof.sol\":2473:2488  mstore(0x00, a) */\n      dup2\n      dup2\n      mstore\n        /* \"@openzeppelin/contracts/utils/cryptography/MerkleProof.sol\":2508:2512  0x20 */\n      0x20\n        /* \"@openzeppelin/contracts/utils/cryptography/MerkleProof.sol\":2501:2516  mstore(0x20, b) */\n      dup5\n      swap1\n      mstore\n        /* \"@openzeppelin/contracts/utils/cryptography/MerkleProof.sol\":2554:2558  0x40 */\n      0x40\n        /* \"@openzeppelin/contracts/utils/cryptography/MerkleProof.sol\":2538:2559  keccak256(0x00, 0x40) */\n      swap1\n      keccak256\n        /* \"@openzeppelin/contracts/utils/cryptography/MerkleProof.sol\":2234:2291  computedHash = _efficientHash(proofElement, computedHash) */\n      swap3\n      pop\n        /* \"@openzeppelin/contracts/utils/cryptography/MerkleProof.sol\":1930:2306  if (computedHash <= proofElement) {... */\n    tag_300:\n      pop\n        /* \"@openzeppelin/contracts/utils/cryptography/MerkleProof.sol\":1866:1869  i++ */\n      dup1\n      tag_302\n      dup2\n      tag_303\n      jump\t// in\n    tag_302:\n      swap2\n      pop\n      pop\n        /* \"@openzeppelin/contracts/utils/cryptography/MerkleProof.sol\":1828:2316  for (uint256 i = 0; i < proof.length; i++) {... */\n      jump(tag_292)\n    tag_293:\n      pop\n        /* \"@openzeppelin/contracts/utils/cryptography/MerkleProof.sol\":2332:2344  computedHash */\n      swap4\n        /* \"@openzeppelin/contracts/utils/cryptography/MerkleProof.sol\":1689:2351  function processProof(bytes32[] memory proof, bytes32 leaf) internal pure returns (bytes32) {... */\n      swap3\n      pop\n      pop\n      pop\n      jump\t// out\n        /* \"#utility.yul\":14:300   */\n    tag_29:\n        /* \"#utility.yul\":72:78   */\n      0x00\n        /* \"#utility.yul\":125:127   */\n      0x20\n        /* \"#utility.yul\":113:122   */\n      dup3\n        /* \"#utility.yul\":104:111   */\n      dup5\n        /* \"#utility.yul\":100:123   */\n      sub\n        /* \"#utility.yul\":96:128   */\n      slt\n        /* \"#utility.yul\":93:145   */\n      iszero\n      tag_311\n      jumpi\n        /* \"#utility.yul\":141:142   */\n      0x00\n        /* \"#utility.yul\":138:139   */\n      dup1\n        /* \"#utility.yul\":131:143   */\n      revert\n        /* \"#utility.yul\":93:145   */\n    tag_311:\n        /* \"#utility.yul\":167:190   */\n      dup2\n      calldataload\n      not(sub(shl(0xe0, 0x01), 0x01))\n        /* \"#utility.yul\":219:251   */\n      dup2\n      and\n        /* \"#utility.yul\":209:252   */\n      dup2\n      eq\n        /* \"#utility.yul\":199:270   */\n      tag_256\n      jumpi\n        /* \"#utility.yul\":266:267   */\n      0x00\n        /* \"#utility.yul\":263:264   */\n      dup1\n        /* \"#utility.yul\":256:268   */\n      revert\n        /* \"#utility.yul\":497:628   */\n    tag_305:\n      sub(shl(0xa0, 0x01), 0x01)\n        /* \"#utility.yul\":572:603   */\n      dup2\n      and\n        /* \"#utility.yul\":562:604   */\n      dup2\n      eq\n        /* \"#utility.yul\":552:622   */\n      tag_267\n      jumpi\n        /* \"#utility.yul\":618:619   */\n      0x00\n        /* \"#utility.yul\":615:616   */\n      dup1\n        /* \"#utility.yul\":608:620   */\n      revert\n        /* \"#utility.yul\":633:880   */\n    tag_40:\n        /* \"#utility.yul\":692:698   */\n      0x00\n        /* \"#utility.yul\":745:747   */\n      0x20\n        /* \"#utility.yul\":733:742   */\n      dup3\n        /* \"#utility.yul\":724:731   */\n      dup5\n        /* \"#utility.yul\":720:743   */\n      sub\n        /* \"#utility.yul\":716:748   */\n      slt\n        /* \"#utility.yul\":713:765   */\n      iszero\n      tag_317\n      jumpi\n        /* \"#utility.yul\":761:762   */\n      0x00\n        /* \"#utility.yul\":758:759   */\n      dup1\n        /* \"#utility.yul\":751:763   */\n      revert\n        /* \"#utility.yul\":713:765   */\n    tag_317:\n        /* \"#utility.yul\":800:809   */\n      dup2\n        /* \"#utility.yul\":787:810   */\n      calldataload\n        /* \"#utility.yul\":819:850   */\n      tag_256\n        /* \"#utility.yul\":844:849   */\n      dup2\n        /* \"#utility.yul\":819:850   */\n      tag_305\n      jump\t// in\n        /* \"#utility.yul\":1067:1247   */\n    tag_47:\n        /* \"#utility.yul\":1126:1132   */\n      0x00\n        /* \"#utility.yul\":1179:1181   */\n      0x20\n        /* \"#utility.yul\":1167:1176   */\n      dup3\n        /* \"#utility.yul\":1158:1165   */\n      dup5\n        /* \"#utility.yul\":1154:1177   */\n      sub\n        /* \"#utility.yul\":1150:1182   */\n      slt\n        /* \"#utility.yul\":1147:1199   */\n      iszero\n      tag_321\n      jumpi\n        /* \"#utility.yul\":1195:1196   */\n      0x00\n        /* \"#utility.yul\":1192:1193   */\n      dup1\n        /* \"#utility.yul\":1185:1197   */\n      revert\n        /* \"#utility.yul\":1147:1199   */\n    tag_321:\n      pop\n        /* \"#utility.yul\":1218:1241   */\n      calldataload\n      swap2\n        /* \"#utility.yul\":1067:1247   */\n      swap1\n      pop\n      jump\t// out\n        /* \"#utility.yul\":1662:2351   */\n    tag_58:\n        /* \"#utility.yul\":1757:1763   */\n      0x00\n        /* \"#utility.yul\":1765:1771   */\n      dup1\n        /* \"#utility.yul\":1773:1779   */\n      0x00\n        /* \"#utility.yul\":1826:1828   */\n      0x40\n        /* \"#utility.yul\":1814:1823   */\n      dup5\n        /* \"#utility.yul\":1805:1812   */\n      dup7\n        /* \"#utility.yul\":1801:1824   */\n      sub\n        /* \"#utility.yul\":1797:1829   */\n      slt\n        /* \"#utility.yul\":1794:1846   */\n      iszero\n      tag_325\n      jumpi\n        /* \"#utility.yul\":1842:1843   */\n      0x00\n        /* \"#utility.yul\":1839:1840   */\n      dup1\n        /* \"#utility.yul\":1832:1844   */\n      revert\n        /* \"#utility.yul\":1794:1846   */\n    tag_325:\n        /* \"#utility.yul\":1882:1891   */\n      dup4\n        /* \"#utility.yul\":1869:1892   */\n      calldataload\n        /* \"#utility.yul\":1911:1929   */\n      0xffffffffffffffff\n        /* \"#utility.yul\":1952:1954   */\n      dup1\n        /* \"#utility.yul\":1944:1950   */\n      dup3\n        /* \"#utility.yul\":1941:1955   */\n      gt\n        /* \"#utility.yul\":1938:1972   */\n      iszero\n      tag_326\n      jumpi\n        /* \"#utility.yul\":1968:1969   */\n      0x00\n        /* \"#utility.yul\":1965:1966   */\n      dup1\n        /* \"#utility.yul\":1958:1970   */\n      revert\n        /* \"#utility.yul\":1938:1972   */\n    tag_326:\n        /* \"#utility.yul\":2006:2012   */\n      dup2\n        /* \"#utility.yul\":1995:2004   */\n      dup7\n        /* \"#utility.yul\":1991:2013   */\n      add\n        /* \"#utility.yul\":1981:2013   */\n      swap2\n      pop\n        /* \"#utility.yul\":2051:2058   */\n      dup7\n        /* \"#utility.yul\":2044:2048   */\n      0x1f\n        /* \"#utility.yul\":2040:2042   */\n      dup4\n        /* \"#utility.yul\":2036:2049   */\n      add\n        /* \"#utility.yul\":2032:2059   */\n      slt\n        /* \"#utility.yul\":2022:2077   */\n      tag_327\n      jumpi\n        /* \"#utility.yul\":2073:2074   */\n      0x00\n        /* \"#utility.yul\":2070:2071   */\n      dup1\n        /* \"#utility.yul\":2063:2075   */\n      revert\n        /* \"#utility.yul\":2022:2077   */\n    tag_327:\n        /* \"#utility.yul\":2113:2115   */\n      dup2\n        /* \"#utility.yul\":2100:2116   */\n      calldataload\n        /* \"#utility.yul\":2139:2141   */\n      dup2\n        /* \"#utility.yul\":2131:2137   */\n      dup2\n        /* \"#utility.yul\":2128:2142   */\n      gt\n        /* \"#utility.yul\":2125:2159   */\n      iszero\n      tag_328\n      jumpi\n        /* \"#utility.yul\":2155:2156   */\n      0x00\n        /* \"#utility.yul\":2152:2153   */\n      dup1\n        /* \"#utility.yul\":2145:2157   */\n      revert\n        /* \"#utility.yul\":2125:2159   */\n    tag_328:\n        /* \"#utility.yul\":2210:2217   */\n      dup8\n        /* \"#utility.yul\":2203:2207   */\n      0x20\n        /* \"#utility.yul\":2193:2199   */\n      dup3\n        /* \"#utility.yul\":2190:2191   */\n      0x05\n        /* \"#utility.yul\":2186:2200   */\n      shl\n        /* \"#utility.yul\":2182:2184   */\n      dup6\n        /* \"#utility.yul\":2178:2201   */\n      add\n        /* \"#utility.yul\":2174:2208   */\n      add\n        /* \"#utility.yul\":2171:2218   */\n      gt\n        /* \"#utility.yul\":2168:2235   */\n      iszero\n      tag_329\n      jumpi\n        /* \"#utility.yul\":2231:2232   */\n      0x00\n        /* \"#utility.yul\":2228:2229   */\n      dup1\n        /* \"#utility.yul\":2221:2233   */\n      revert\n        /* \"#utility.yul\":2168:2235   */\n    tag_329:\n        /* \"#utility.yul\":2262:2266   */\n      0x20\n        /* \"#utility.yul\":2254:2267   */\n      swap3\n      dup4\n      add\n      swap9\n        /* \"#utility.yul\":2286:2292   */\n      swap1\n      swap8\n      pop\n        /* \"#utility.yul\":2324:2344   */\n      swap6\n      swap1\n      swap2\n      add\n        /* \"#utility.yul\":2311:2345   */\n      calldataload\n      swap5\n        /* \"#utility.yul\":1662:2351   */\n      swap4\n      pop\n      pop\n      pop\n      pop\n      jump\t// out\n        /* \"#utility.yul\":2356:2671   */\n    tag_67:\n        /* \"#utility.yul\":2424:2430   */\n      0x00\n        /* \"#utility.yul\":2432:2438   */\n      dup1\n        /* \"#utility.yul\":2485:2487   */\n      0x40\n        /* \"#utility.yul\":2473:2482   */\n      dup4\n        /* \"#utility.yul\":2464:2471   */\n      dup6\n        /* \"#utility.yul\":2460:2483   */\n      sub\n        /* \"#utility.yul\":2456:2488   */\n      slt\n        /* \"#utility.yul\":2453:2505   */\n      iszero\n      tag_331\n      jumpi\n        /* \"#utility.yul\":2501:2502   */\n      0x00\n        /* \"#utility.yul\":2498:2499   */\n      dup1\n        /* \"#utility.yul\":2491:2503   */\n      revert\n        /* \"#utility.yul\":2453:2505   */\n    tag_331:\n        /* \"#utility.yul\":2537:2546   */\n      dup3\n        /* \"#utility.yul\":2524:2547   */\n      calldataload\n        /* \"#utility.yul\":2514:2547   */\n      swap2\n      pop\n        /* \"#utility.yul\":2597:2599   */\n      0x20\n        /* \"#utility.yul\":2586:2595   */\n      dup4\n        /* \"#utility.yul\":2582:2600   */\n      add\n        /* \"#utility.yul\":2569:2601   */\n      calldataload\n        /* \"#utility.yul\":2610:2641   */\n      tag_332\n        /* \"#utility.yul\":2635:2640   */\n      dup2\n        /* \"#utility.yul\":2610:2641   */\n      tag_305\n      jump\t// in\n    tag_332:\n        /* \"#utility.yul\":2660:2665   */\n      dup1\n        /* \"#utility.yul\":2650:2665   */\n      swap2\n      pop\n      pop\n        /* \"#utility.yul\":2356:2671   */\n      swap3\n      pop\n      swap3\n      swap1\n      pop\n      jump\t// out\n        /* \"#utility.yul\":2948:3066   */\n    tag_306:\n        /* \"#utility.yul\":3034:3039   */\n      dup1\n        /* \"#utility.yul\":3027:3040   */\n      iszero\n        /* \"#utility.yul\":3020:3041   */\n      iszero\n        /* \"#utility.yul\":3013:3018   */\n      dup2\n        /* \"#utility.yul\":3010:3042   */\n      eq\n        /* \"#utility.yul\":3000:3060   */\n      tag_267\n      jumpi\n        /* \"#utility.yul\":3056:3057   */\n      0x00\n        /* \"#utility.yul\":3053:3054   */\n      dup1\n        /* \"#utility.yul\":3046:3058   */\n      revert\n        /* \"#utility.yul\":3071:3312   */\n    tag_99:\n        /* \"#utility.yul\":3127:3133   */\n      0x00\n        /* \"#utility.yul\":3180:3182   */\n      0x20\n        /* \"#utility.yul\":3168:3177   */\n      dup3\n        /* \"#utility.yul\":3159:3166   */\n      dup5\n        /* \"#utility.yul\":3155:3178   */\n      sub\n        /* \"#utility.yul\":3151:3183   */\n      slt\n        /* \"#utility.yul\":3148:3200   */\n      iszero\n      tag_339\n      jumpi\n        /* \"#utility.yul\":3196:3197   */\n      0x00\n        /* \"#utility.yul\":3193:3194   */\n      dup1\n        /* \"#utility.yul\":3186:3198   */\n      revert\n        /* \"#utility.yul\":3148:3200   */\n    tag_339:\n        /* \"#utility.yul\":3235:3244   */\n      dup2\n        /* \"#utility.yul\":3222:3245   */\n      calldataload\n        /* \"#utility.yul\":3254:3282   */\n      tag_256\n        /* \"#utility.yul\":3276:3281   */\n      dup2\n        /* \"#utility.yul\":3254:3282   */\n      tag_306\n      jump\t// in\n        /* \"#utility.yul\":5074:5201   */\n    tag_307:\n        /* \"#utility.yul\":5135:5145   */\n      0x4e487b71\n        /* \"#utility.yul\":5130:5133   */\n      0xe0\n        /* \"#utility.yul\":5126:5146   */\n      shl\n        /* \"#utility.yul\":5123:5124   */\n      0x00\n        /* \"#utility.yul\":5116:5147   */\n      mstore\n        /* \"#utility.yul\":5166:5170   */\n      0x11\n        /* \"#utility.yul\":5163:5164   */\n      0x04\n        /* \"#utility.yul\":5156:5171   */\n      mstore\n        /* \"#utility.yul\":5190:5194   */\n      0x24\n        /* \"#utility.yul\":5187:5188   */\n      0x00\n        /* \"#utility.yul\":5180:5195   */\n      revert\n        /* \"#utility.yul\":5206:5334   */\n    tag_155:\n        /* \"#utility.yul\":5246:5249   */\n      0x00\n        /* \"#utility.yul\":5277:5278   */\n      dup3\n        /* \"#utility.yul\":5273:5279   */\n      not\n        /* \"#utility.yul\":5270:5271   */\n      dup3\n        /* \"#utility.yul\":5267:5280   */\n      gt\n        /* \"#utility.yul\":5264:5303   */\n      iszero\n      tag_349\n      jumpi\n        /* \"#utility.yul\":5283:5301   */\n      tag_349\n      tag_307\n      jump\t// in\n    tag_349:\n      pop\n        /* \"#utility.yul\":5319:5328   */\n      add\n      swap1\n        /* \"#utility.yul\":5206:5334   */\n      jump\t// out\n        /* \"#utility.yul\":5686:5870   */\n    tag_162:\n        /* \"#utility.yul\":5756:5762   */\n      0x00\n        /* \"#utility.yul\":5809:5811   */\n      0x20\n        /* \"#utility.yul\":5797:5806   */\n      dup3\n        /* \"#utility.yul\":5788:5795   */\n      dup5\n        /* \"#utility.yul\":5784:5807   */\n      sub\n        /* \"#utility.yul\":5780:5812   */\n      slt\n        /* \"#utility.yul\":5777:5829   */\n      iszero\n      tag_352\n      jumpi\n        /* \"#utility.yul\":5825:5826   */\n      0x00\n        /* \"#utility.yul\":5822:5823   */\n      dup1\n        /* \"#utility.yul\":5815:5827   */\n      revert\n        /* \"#utility.yul\":5777:5829   */\n    tag_352:\n      pop\n        /* \"#utility.yul\":5848:5864   */\n      mload\n      swap2\n        /* \"#utility.yul\":5686:5870   */\n      swap1\n      pop\n      jump\t// out\n        /* \"#utility.yul\":6154:6399   */\n    tag_168:\n        /* \"#utility.yul\":6221:6227   */\n      0x00\n        /* \"#utility.yul\":6274:6276   */\n      0x20\n        /* \"#utility.yul\":6262:6271   */\n      dup3\n        /* \"#utility.yul\":6253:6260   */\n      dup5\n        /* \"#utility.yul\":6249:6272   */\n      sub\n        /* \"#utility.yul\":6245:6277   */\n      slt\n        /* \"#utility.yul\":6242:6294   */\n      iszero\n      tag_355\n      jumpi\n        /* \"#utility.yul\":6290:6291   */\n      0x00\n        /* \"#utility.yul\":6287:6288   */\n      dup1\n        /* \"#utility.yul\":6280:6292   */\n      revert\n        /* \"#utility.yul\":6242:6294   */\n    tag_355:\n        /* \"#utility.yul\":6322:6331   */\n      dup2\n        /* \"#utility.yul\":6316:6332   */\n      mload\n        /* \"#utility.yul\":6341:6369   */\n      tag_256\n        /* \"#utility.yul\":6363:6368   */\n      dup2\n        /* \"#utility.yul\":6341:6369   */\n      tag_306\n      jump\t// in\n        /* \"#utility.yul\":8309:8477   */\n    tag_234:\n        /* \"#utility.yul\":8349:8356   */\n      0x00\n        /* \"#utility.yul\":8415:8416   */\n      dup2\n        /* \"#utility.yul\":8411:8412   */\n      0x00\n        /* \"#utility.yul\":8407:8413   */\n      not\n        /* \"#utility.yul\":8403:8417   */\n      div\n        /* \"#utility.yul\":8400:8401   */\n      dup4\n        /* \"#utility.yul\":8397:8418   */\n      gt\n        /* \"#utility.yul\":8392:8393   */\n      dup3\n        /* \"#utility.yul\":8385:8394   */\n      iszero\n        /* \"#utility.yul\":8378:8395   */\n      iszero\n        /* \"#utility.yul\":8374:8419   */\n      and\n        /* \"#utility.yul\":8371:8442   */\n      iszero\n      tag_366\n      jumpi\n        /* \"#utility.yul\":8422:8440   */\n      tag_366\n      tag_307\n      jump\t// in\n    tag_366:\n      pop\n        /* \"#utility.yul\":8462:8471   */\n      mul\n      swap1\n        /* \"#utility.yul\":8309:8477   */\n      jump\t// out\n        /* \"#utility.yul\":8482:8609   */\n    tag_238:\n        /* \"#utility.yul\":8543:8553   */\n      0x4e487b71\n        /* \"#utility.yul\":8538:8541   */\n      0xe0\n        /* \"#utility.yul\":8534:8554   */\n      shl\n        /* \"#utility.yul\":8531:8532   */\n      0x00\n        /* \"#utility.yul\":8524:8555   */\n      mstore\n        /* \"#utility.yul\":8574:8578   */\n      0x41\n        /* \"#utility.yul\":8571:8572   */\n      0x04\n        /* \"#utility.yul\":8564:8579   */\n      mstore\n        /* \"#utility.yul\":8598:8602   */\n      0x24\n        /* \"#utility.yul\":8595:8596   */\n      0x00\n        /* \"#utility.yul\":8588:8603   */\n      revert\n        /* \"#utility.yul\":8614:8741   */\n    tag_242:\n        /* \"#utility.yul\":8675:8685   */\n      0x4e487b71\n        /* \"#utility.yul\":8670:8673   */\n      0xe0\n        /* \"#utility.yul\":8666:8686   */\n      shl\n        /* \"#utility.yul\":8663:8664   */\n      0x00\n        /* \"#utility.yul\":8656:8687   */\n      mstore\n        /* \"#utility.yul\":8706:8710   */\n      0x32\n        /* \"#utility.yul\":8703:8704   */\n      0x04\n        /* \"#utility.yul\":8696:8711   */\n      mstore\n        /* \"#utility.yul\":8730:8734   */\n      0x24\n        /* \"#utility.yul\":8727:8728   */\n      0x00\n        /* \"#utility.yul\":8720:8735   */\n      revert\n        /* \"#utility.yul\":8746:8882   */\n    tag_255:\n        /* \"#utility.yul\":8785:8788   */\n      0x00\n        /* \"#utility.yul\":8813:8818   */\n      dup2\n        /* \"#utility.yul\":8803:8842   */\n      tag_371\n      jumpi\n        /* \"#utility.yul\":8822:8840   */\n      tag_371\n      tag_307\n      jump\t// in\n    tag_371:\n      pop\n      not(0x00)\n        /* \"#utility.yul\":8858:8876   */\n      add\n      swap1\n        /* \"#utility.yul\":8746:8882   */\n      jump\t// out\n        /* \"#utility.yul\":9547:9805   */\n    tag_308:\n        /* \"#utility.yul\":9619:9620   */\n      0x00\n        /* \"#utility.yul\":9629:9742   */\n    tag_375:\n        /* \"#utility.yul\":9643:9649   */\n      dup4\n        /* \"#utility.yul\":9640:9641   */\n      dup2\n        /* \"#utility.yul\":9637:9650   */\n      lt\n        /* \"#utility.yul\":9629:9742   */\n      iszero\n      tag_377\n      jumpi\n        /* \"#utility.yul\":9719:9730   */\n      dup2\n      dup2\n      add\n        /* \"#utility.yul\":9713:9731   */\n      mload\n        /* \"#utility.yul\":9700:9711   */\n      dup4\n      dup3\n      add\n        /* \"#utility.yul\":9693:9732   */\n      mstore\n        /* \"#utility.yul\":9665:9667   */\n      0x20\n        /* \"#utility.yul\":9658:9668   */\n      add\n        /* \"#utility.yul\":9629:9742   */\n      jump(tag_375)\n    tag_377:\n        /* \"#utility.yul\":9760:9766   */\n      dup4\n        /* \"#utility.yul\":9757:9758   */\n      dup2\n        /* \"#utility.yul\":9754:9767   */\n      gt\n        /* \"#utility.yul\":9751:9799   */\n      iszero\n      tag_378\n      jumpi\n        /* \"#utility.yul\":9795:9796   */\n      0x00\n        /* \"#utility.yul\":9786:9792   */\n      dup5\n        /* \"#utility.yul\":9781:9784   */\n      dup5\n        /* \"#utility.yul\":9777:9793   */\n      add\n        /* \"#utility.yul\":9770:9797   */\n      mstore\n        /* \"#utility.yul\":9751:9799   */\n    tag_378:\n      pop\n        /* \"#utility.yul\":9547:9805   */\n      pop\n      pop\n      pop\n      jump\t// out\n        /* \"#utility.yul\":9810:10596   */\n    tag_288:\n        /* \"#utility.yul\":10221:10246   */\n      0x416363657373436f6e74726f6c3a206163636f756e7420000000000000000000\n        /* \"#utility.yul\":10216:10219   */\n      dup2\n        /* \"#utility.yul\":10209:10247   */\n      mstore\n        /* \"#utility.yul\":10191:10194   */\n      0x00\n        /* \"#utility.yul\":10276:10282   */\n      dup4\n        /* \"#utility.yul\":10270:10283   */\n      mload\n        /* \"#utility.yul\":10292:10354   */\n      tag_380\n        /* \"#utility.yul\":10347:10353   */\n      dup2\n        /* \"#utility.yul\":10342:10344   */\n      0x17\n        /* \"#utility.yul\":10337:10340   */\n      dup6\n        /* \"#utility.yul\":10333:10345   */\n      add\n        /* \"#utility.yul\":10326:10330   */\n      0x20\n        /* \"#utility.yul\":10318:10324   */\n      dup9\n        /* \"#utility.yul\":10314:10331   */\n      add\n        /* \"#utility.yul\":10292:10354   */\n      tag_308\n      jump\t// in\n    tag_380:\n      shl(0x7d, 0x01034b99036b4b9b9b4b733903937b6329)\n        /* \"#utility.yul\":10413:10415   */\n      0x17\n        /* \"#utility.yul\":10373:10389   */\n      swap2\n      dup5\n      add\n        /* \"#utility.yul\":10405:10416   */\n      swap2\n      dup3\n      add\n        /* \"#utility.yul\":10398:10438   */\n      mstore\n        /* \"#utility.yul\":10463:10476   */\n      dup4\n      mload\n        /* \"#utility.yul\":10485:10548   */\n      tag_381\n        /* \"#utility.yul\":10463:10476   */\n      dup2\n        /* \"#utility.yul\":10534:10536   */\n      0x28\n        /* \"#utility.yul\":10526:10537   */\n      dup5\n      add\n        /* \"#utility.yul\":10519:10523   */\n      0x20\n        /* \"#utility.yul\":10507:10524   */\n      dup9\n      add\n        /* \"#utility.yul\":10485:10548   */\n      tag_308\n      jump\t// in\n    tag_381:\n        /* \"#utility.yul\":10568:10585   */\n      add\n        /* \"#utility.yul\":10587:10589   */\n      0x28\n        /* \"#utility.yul\":10564:10590   */\n      add\n      swap5\n        /* \"#utility.yul\":9810:10596   */\n      swap4\n      pop\n      pop\n      pop\n      pop\n      jump\t// out\n        /* \"#utility.yul\":10601:10984   */\n    tag_290:\n        /* \"#utility.yul\":10750:10752   */\n      0x20\n        /* \"#utility.yul\":10739:10748   */\n      dup2\n        /* \"#utility.yul\":10732:10753   */\n      mstore\n        /* \"#utility.yul\":10713:10717   */\n      0x00\n        /* \"#utility.yul\":10782:10788   */\n      dup3\n        /* \"#utility.yul\":10776:10789   */\n      mload\n        /* \"#utility.yul\":10825:10831   */\n      dup1\n        /* \"#utility.yul\":10820:10822   */\n      0x20\n        /* \"#utility.yul\":10809:10818   */\n      dup5\n        /* \"#utility.yul\":10805:10823   */\n      add\n        /* \"#utility.yul\":10798:10832   */\n      mstore\n        /* \"#utility.yul\":10841:10907   */\n      tag_383\n        /* \"#utility.yul\":10900:10906   */\n      dup2\n        /* \"#utility.yul\":10895:10897   */\n      0x40\n        /* \"#utility.yul\":10884:10893   */\n      dup6\n        /* \"#utility.yul\":10880:10898   */\n      add\n        /* \"#utility.yul\":10875:10877   */\n      0x20\n        /* \"#utility.yul\":10867:10873   */\n      dup8\n        /* \"#utility.yul\":10863:10878   */\n      add\n        /* \"#utility.yul\":10841:10907   */\n      tag_308\n      jump\t// in\n    tag_383:\n        /* \"#utility.yul\":10968:10970   */\n      0x1f\n        /* \"#utility.yul\":10947:10962   */\n      add\n      not(0x1f)\n        /* \"#utility.yul\":10943:10972   */\n      and\n        /* \"#utility.yul\":10928:10973   */\n      swap2\n      swap1\n      swap2\n      add\n        /* \"#utility.yul\":10975:10977   */\n      0x40\n        /* \"#utility.yul\":10924:10978   */\n      add\n      swap3\n        /* \"#utility.yul\":10601:10984   */\n      swap2\n      pop\n      pop\n      jump\t// out\n        /* \"#utility.yul\":10989:11124   */\n    tag_303:\n        /* \"#utility.yul\":11028:11031   */\n      0x00\n        /* \"#utility.yul\":11049:11066   */\n      0x01\n      dup3\n      add\n        /* \"#utility.yul\":11046:11089   */\n      tag_386\n      jumpi\n        /* \"#utility.yul\":11069:11087   */\n      tag_386\n      tag_307\n      jump\t// in\n    tag_386:\n      pop\n        /* \"#utility.yul\":11116:11117   */\n      0x01\n        /* \"#utility.yul\":11105:11118   */\n      add\n      swap1\n        /* \"#utility.yul\":10989:11124   */\n      jump\t// out\n\n    auxdata: 0xa26469706673582212200fe430c67be06c6d03b23ed205bf00fdb3863f58f9d917bd5aeaa7fc645bc4b064736f6c634300080f0033\n}\n",
				"bytecode": {
					"linkReferences": {},
					"object": "60806040523480156200001157600080fd5b506040516200182c3803806200182c8339810160408190526200003491620003a5565b60016002556200004660003362000064565b6200005182620000ed565b6200005c816200011d565b50506200055b565b60008281526001602090815260408083206001600160a01b038516845290915290205460ff16620000e95760008281526001602081815260408084206001600160a01b0386168086529252808420805460ff19169093179092559051339285917f2f8788117e7eff1d82e926ec794901d17c78024a50270940304540a733656f0d9190a45b5050565b6000620000fa8162000130565b50600380546001600160a01b0319166001600160a01b0392909216919091179055565b60006200012a8162000130565b50600055565b6200013c81336200013f565b50565b60008281526001602090815260408083206001600160a01b038516845290915290205460ff16620000e9576200018b816001600160a01b03166014620001e560201b62000b7c1760201c565b620001a183602062000b7c620001e5821b17811c565b604051602001620001b492919062000414565b60408051601f198184030181529082905262461bcd60e51b8252620001dc916004016200048d565b60405180910390fd5b60606000620001f6836002620004d8565b62000203906002620004fa565b6001600160401b038111156200021d576200021d62000515565b6040519080825280601f01601f19166020018201604052801562000248576020820181803683370190505b509050600360fc1b816000815181106200026657620002666200052b565b60200101906001600160f81b031916908160001a905350600f60fb1b816001815181106200029857620002986200052b565b60200101906001600160f81b031916908160001a9053506000620002be846002620004d8565b620002cb906001620004fa565b90505b60018111156200034d576f181899199a1a9b1b9c1cb0b131b232b360811b85600f16601081106200030357620003036200052b565b1a60f81b8282815181106200031c576200031c6200052b565b60200101906001600160f81b031916908160001a90535060049490941c93620003458162000541565b9050620002ce565b5083156200039e5760405162461bcd60e51b815260206004820181905260248201527f537472696e67733a20686578206c656e67746820696e73756666696369656e746044820152606401620001dc565b9392505050565b60008060408385031215620003b957600080fd5b82516001600160a01b0381168114620003d157600080fd5b6020939093015192949293505050565b60005b83811015620003fe578181015183820152602001620003e4565b838111156200040e576000848401525b50505050565b7f416363657373436f6e74726f6c3a206163636f756e74200000000000000000008152600083516200044e816017850160208801620003e1565b7001034b99036b4b9b9b4b733903937b6329607d1b601791840191820152835162000481816028840160208801620003e1565b01602801949350505050565b6020815260008251806020840152620004ae816040850160208701620003e1565b601f01601f19169190910160400192915050565b634e487b7160e01b600052601160045260246000fd5b6000816000190483118215151615620004f557620004f5620004c2565b500290565b60008219821115620005105762000510620004c2565b500190565b634e487b7160e01b600052604160045260246000fd5b634e487b7160e01b600052603260045260246000fd5b600081620005535762000553620004c2565b506000190190565b6112c1806200056b6000396000f3fe60806040526004361061012a5760003560e01c80635997bbee116100ab57806394f4504d1161006f57806394f4504d1461036b578063a217fddf1461038c578063c4e41b22146103a1578063d547741f146103b6578063dd31a7ba146103d6578063ff0938a7146103f657600080fd5b80635997bbee146102b257806361aec205146102eb5780637cb647591461030b57806391d148541461032b57806391e5b0a21461034b57600080fd5b80632904e6d9116100f25780632904e6d9146102325780632eb4a7ab146102475780632f2ff15d1461025d57806336568abe1461027d5780634c0f38c21461029d57600080fd5b806301ffc9a71461012f57806311c67efc146101645780631b0d2d3b14610185578063248a9ca3146101c957806327c25c20146101fa575b600080fd5b34801561013b57600080fd5b5061014f61014a366004610f89565b61040b565b60405190151581526020015b60405180910390f35b34801561017057600080fd5b5060035461014f90600160a01b900460ff1681565b34801561019157600080fd5b506101bb6101a0366004610fc8565b6001600160a01b031660009081526005602052604090205490565b60405190815260200161015b565b3480156101d557600080fd5b506101bb6101e4366004610fe5565b6000908152600160208190526040909120015490565b34801561020657600080fd5b5060035461021a906001600160a01b031681565b6040516001600160a01b03909116815260200161015b565b610245610240366004610ffe565b610442565b005b34801561025357600080fd5b506101bb60005481565b34801561026957600080fd5b50610245610278366004611079565b6108c4565b34801561028957600080fd5b50610245610298366004611079565b6108ef565b3480156102a957600080fd5b506101bb61096d565b3480156102be57600080fd5b5061014f6102cd366004610fc8565b6001600160a01b031660009081526004602052604090205460ff1690565b3480156102f757600080fd5b50610245610306366004610fc8565b6109e0565b34801561031757600080fd5b50610245610326366004610fe5565b610a0e565b34801561033757600080fd5b5061014f610346366004611079565b610a1f565b34801561035757600080fd5b506102456103663660046110b7565b610a4a565b34801561037757600080fd5b5060035461014f90600160a81b900460ff1681565b34801561039857600080fd5b506101bb600081565b3480156103ad57600080fd5b506101bb610a74565b3480156103c257600080fd5b506102456103d1366004611079565b610abe565b3480156103e257600080fd5b506102456103f13660046110b7565b610ae4565b34801561040257600080fd5b5061014f610b0e565b60006001600160e01b03198216637965db0b60e01b148061043c57506301ffc9a760e01b6001600160e01b03198316145b92915050565b60028054036104985760405162461bcd60e51b815260206004820152601f60248201527f5265656e7472616e637947756172643a207265656e7472616e742063616c6c0060448201526064015b60405180910390fd5b600280556104a4610b0e565b156104e85760405162461bcd60e51b81526020600482015260146024820152732730b3b0a5b4b239903bb0b9902830bab9b2b21760611b604482015260640161048f565b600354600160a81b900460ff1615156001146105465760405162461bcd60e51b815260206004820152601b60248201527f57686974656c697374206e6f74206f70656e20746f206d696e742e0000000000604482015260640161048f565b3360009081526004602052604090205460ff1615156001036105aa5760405162461bcd60e51b815260206004820152601760248201527f596f752061726520616c7265616479206d696e7465642e000000000000000000604482015260640161048f565b6104576105b5610a74565b106105f05760405162461bcd60e51b815260206004820152600b60248201526a4f76657220737570706c7960a81b604482015260640161048f565b610457816105fc610a74565b61060691906110ea565b106106485760405162461bcd60e51b815260206004820152601260248201527113dd995c8814dd5c1c1b1e48105b5bdd5b9d60721b604482015260640161048f565b6003546040805163d539139360e01b815290516001600160a01b03909216916391d1485491839163d5391393916004808201926020929091908290030181865afa15801561069a573d6000803e3d6000fd5b505050506040513d601f19601f820116820180604052508101906106be9190611102565b6040516001600160e01b031960e084901b1681526004810191909152306024820152604401602060405180830381865afa158015610700573d6000803e3d6000fd5b505050506040513d601f19601f82011682018060405250810190610724919061111b565b15156001146107885760405162461bcd60e51b815260206004820152602a60248201527f5468697320436f6e7472616374206e6f742068617665207065726d697373696f60448201526937103a379036b4b73a1760b11b606482015260840161048f565b61079483833384610d1f565b6107ea5760405162461bcd60e51b815260206004820152602160248201527f556e617574686f72697a65642057686974656c697374205468697320557365726044820152601760f91b606482015260840161048f565b336000908152600460209081526040808320805460ff1916600117905560059091528120805483929061081e9084906110ea565b90915550506003546040516340d097c360e01b81523360048201526001600160a01b03909116906340d097c390602401600060405180830381600087803b15801561086857600080fd5b505af115801561087c573d6000803e3d6000fd5b505060408051338152602081018590527fce77e469b386be007f957632f6f65216f2e74c5daa303aff682e8296f628d010935001905060405180910390a15050600160025550565b600082815260016020819052604090912001546108e081610dbc565b6108ea8383610dc9565b505050565b6001600160a01b038116331461095f5760405162461bcd60e51b815260206004820152602f60248201527f416363657373436f6e74726f6c3a2063616e206f6e6c792072656e6f756e636560448201526e103937b632b9903337b91039b2b63360891b606482015260840161048f565b6109698282610e34565b5050565b6003546040805163d5abeb0160e01b815290516000926001600160a01b03169163d5abeb019160048083019260209291908290030181865afa1580156109b7573d6000803e3d6000fd5b505050506040513d601f19601f820116820180604052508101906109db9190611102565b905090565b60006109eb81610dbc565b50600380546001600160a01b0319166001600160a01b0392909216919091179055565b6000610a1981610dbc565b50600055565b60009182526001602090815260408084206001600160a01b0393909316845291905290205460ff1690565b6000610a5581610dbc565b5060038054911515600160a01b0260ff60a01b19909216919091179055565b600354604080516318160ddd60e01b815290516000926001600160a01b0316916318160ddd9160048083019260209291908290030181865afa1580156109b7573d6000803e3d6000fd5b60008281526001602081905260409091200154610ada81610dbc565b6108ea8383610e34565b6000610aef81610dbc565b5060038054911515600160a81b0260ff60a81b19909216919091179055565b60035460408051635c975abb60e01b815290516000926001600160a01b031691635c975abb9160048083019260209291908290030181865afa158015610b58573d6000803e3d6000fd5b505050506040513d601f19601f820116820180604052508101906109db919061111b565b60606000610b8b836002611138565b610b969060026110ea565b67ffffffffffffffff811115610bae57610bae611157565b6040519080825280601f01601f191660200182016040528015610bd8576020820181803683370190505b509050600360fc1b81600081518110610bf357610bf361116d565b60200101906001600160f81b031916908160001a905350600f60fb1b81600181518110610c2257610c2261116d565b60200101906001600160f81b031916908160001a9053506000610c46846002611138565b610c519060016110ea565b90505b6001811115610cc9576f181899199a1a9b1b9c1cb0b131b232b360811b85600f1660108110610c8557610c8561116d565b1a60f81b828281518110610c9b57610c9b61116d565b60200101906001600160f81b031916908160001a90535060049490941c93610cc281611183565b9050610c54565b508315610d185760405162461bcd60e51b815260206004820181905260248201527f537472696e67733a20686578206c656e67746820696e73756666696369656e74604482015260640161048f565b9392505050565b600080548103610d3157506000610db4565b610db18585808060200260200160405190810160405280939291908181526020018383602002808284376000920182905250546040516bffffffffffffffffffffffff1960608b901b166020820152603481018990529093506054019150610d969050565b60405160208183030381529060405280519060200120610e9b565b90505b949350505050565b610dc68133610eb1565b50565b610dd38282610a1f565b6109695760008281526001602081815260408084206001600160a01b0386168086529252808420805460ff19169093179092559051339285917f2f8788117e7eff1d82e926ec794901d17c78024a50270940304540a733656f0d9190a45050565b610e3e8282610a1f565b156109695760008281526001602090815260408083206001600160a01b0385168085529252808320805460ff1916905551339285917ff6391f5c32d9c69d2a47ea670b442974b53935d1edc7fd64eb21e047a839171b9190a45050565b600082610ea88584610f15565b14949350505050565b610ebb8282610a1f565b61096957610ed3816001600160a01b03166014610b7c565b610ede836020610b7c565b604051602001610eef9291906111ca565b60408051601f198184030181529082905262461bcd60e51b825261048f9160040161123f565b600081815b8451811015610f81576000858281518110610f3757610f3761116d565b60200260200101519050808311610f5d5760008381526020829052604090209250610f6e565b600081815260208490526040902092505b5080610f7981611272565b915050610f1a565b509392505050565b600060208284031215610f9b57600080fd5b81356001600160e01b031981168114610d1857600080fd5b6001600160a01b0381168114610dc657600080fd5b600060208284031215610fda57600080fd5b8135610d1881610fb3565b600060208284031215610ff757600080fd5b5035919050565b60008060006040848603121561101357600080fd5b833567ffffffffffffffff8082111561102b57600080fd5b818601915086601f83011261103f57600080fd5b81358181111561104e57600080fd5b8760208260051b850101111561106357600080fd5b6020928301989097509590910135949350505050565b6000806040838503121561108c57600080fd5b82359150602083013561109e81610fb3565b809150509250929050565b8015158114610dc657600080fd5b6000602082840312156110c957600080fd5b8135610d18816110a9565b634e487b7160e01b600052601160045260246000fd5b600082198211156110fd576110fd6110d4565b500190565b60006020828403121561111457600080fd5b5051919050565b60006020828403121561112d57600080fd5b8151610d18816110a9565b6000816000190483118215151615611152576111526110d4565b500290565b634e487b7160e01b600052604160045260246000fd5b634e487b7160e01b600052603260045260246000fd5b600081611192576111926110d4565b506000190190565b60005b838110156111b557818101518382015260200161119d565b838111156111c4576000848401525b50505050565b7f416363657373436f6e74726f6c3a206163636f756e742000000000000000000081526000835161120281601785016020880161119a565b7001034b99036b4b9b9b4b733903937b6329607d1b601791840191820152835161123381602884016020880161119a565b01602801949350505050565b602081526000825180602084015261125e81604085016020870161119a565b601f01601f19169190910160400192915050565b600060018201611284576112846110d4565b506001019056fea26469706673582212200fe430c67be06c6d03b23ed205bf00fdb3863f58f9d917bd5aeaa7fc645bc4b064736f6c634300080f0033",
					"opcodes": "PUSH1 0x80 PUSH1 0x40 MSTORE CALLVALUE DUP1 ISZERO PUSH3 0x11 JUMPI PUSH1 0x0 DUP1 REVERT JUMPDEST POP PUSH1 0x40 MLOAD PUSH3 0x182C CODESIZE SUB DUP1 PUSH3 0x182C DUP4 CODECOPY DUP2 ADD PUSH1 0x40 DUP2 SWAP1 MSTORE PUSH3 0x34 SWAP2 PUSH3 0x3A5 JUMP JUMPDEST PUSH1 0x1 PUSH1 0x2 SSTORE PUSH3 0x46 PUSH1 0x0 CALLER PUSH3 0x64 JUMP JUMPDEST PUSH3 0x51 DUP3 PUSH3 0xED JUMP JUMPDEST PUSH3 0x5C DUP2 PUSH3 0x11D JUMP JUMPDEST POP POP PUSH3 0x55B JUMP JUMPDEST PUSH1 0x0 DUP3 DUP2 MSTORE PUSH1 0x1 PUSH1 0x20 SWAP1 DUP2 MSTORE PUSH1 0x40 DUP1 DUP4 KECCAK256 PUSH1 0x1 PUSH1 0x1 PUSH1 0xA0 SHL SUB DUP6 AND DUP5 MSTORE SWAP1 SWAP2 MSTORE SWAP1 KECCAK256 SLOAD PUSH1 0xFF AND PUSH3 0xE9 JUMPI PUSH1 0x0 DUP3 DUP2 MSTORE PUSH1 0x1 PUSH1 0x20 DUP2 DUP2 MSTORE PUSH1 0x40 DUP1 DUP5 KECCAK256 PUSH1 0x1 PUSH1 0x1 PUSH1 0xA0 SHL SUB DUP7 AND DUP1 DUP7 MSTORE SWAP3 MSTORE DUP1 DUP5 KECCAK256 DUP1 SLOAD PUSH1 0xFF NOT AND SWAP1 SWAP4 OR SWAP1 SWAP3 SSTORE SWAP1 MLOAD CALLER SWAP3 DUP6 SWAP2 PUSH32 0x2F8788117E7EFF1D82E926EC794901D17C78024A50270940304540A733656F0D SWAP2 SWAP1 LOG4 JUMPDEST POP POP JUMP JUMPDEST PUSH1 0x0 PUSH3 0xFA DUP2 PUSH3 0x130 JUMP JUMPDEST POP PUSH1 0x3 DUP1 SLOAD PUSH1 0x1 PUSH1 0x1 PUSH1 0xA0 SHL SUB NOT AND PUSH1 0x1 PUSH1 0x1 PUSH1 0xA0 SHL SUB SWAP3 SWAP1 SWAP3 AND SWAP2 SWAP1 SWAP2 OR SWAP1 SSTORE JUMP JUMPDEST PUSH1 0x0 PUSH3 0x12A DUP2 PUSH3 0x130 JUMP JUMPDEST POP PUSH1 0x0 SSTORE JUMP JUMPDEST PUSH3 0x13C DUP2 CALLER PUSH3 0x13F JUMP JUMPDEST POP JUMP JUMPDEST PUSH1 0x0 DUP3 DUP2 MSTORE PUSH1 0x1 PUSH1 0x20 SWAP1 DUP2 MSTORE PUSH1 0x40 DUP1 DUP4 KECCAK256 PUSH1 0x1 PUSH1 0x1 PUSH1 0xA0 SHL SUB DUP6 AND DUP5 MSTORE SWAP1 SWAP2 MSTORE SWAP1 KECCAK256 SLOAD PUSH1 0xFF AND PUSH3 0xE9 JUMPI PUSH3 0x18B DUP2 PUSH1 0x1 PUSH1 0x1 PUSH1 0xA0 SHL SUB AND PUSH1 0x14 PUSH3 0x1E5 PUSH1 0x20 SHL PUSH3 0xB7C OR PUSH1 0x20 SHR JUMP JUMPDEST PUSH3 0x1A1 DUP4 PUSH1 0x20 PUSH3 0xB7C PUSH3 0x1E5 DUP3 SHL OR DUP2 SHR JUMP JUMPDEST PUSH1 0x40 MLOAD PUSH1 0x20 ADD PUSH3 0x1B4 SWAP3 SWAP2 SWAP1 PUSH3 0x414 JUMP JUMPDEST PUSH1 0x40 DUP1 MLOAD PUSH1 0x1F NOT DUP2 DUP5 SUB ADD DUP2 MSTORE SWAP1 DUP3 SWAP1 MSTORE PUSH3 0x461BCD PUSH1 0xE5 SHL DUP3 MSTORE PUSH3 0x1DC SWAP2 PUSH1 0x4 ADD PUSH3 0x48D JUMP JUMPDEST PUSH1 0x40 MLOAD DUP1 SWAP2 SUB SWAP1 REVERT JUMPDEST PUSH1 0x60 PUSH1 0x0 PUSH3 0x1F6 DUP4 PUSH1 0x2 PUSH3 0x4D8 JUMP JUMPDEST PUSH3 0x203 SWAP1 PUSH1 0x2 PUSH3 0x4FA JUMP JUMPDEST PUSH1 0x1 PUSH1 0x1 PUSH1 0x40 SHL SUB DUP2 GT ISZERO PUSH3 0x21D JUMPI PUSH3 0x21D PUSH3 0x515 JUMP JUMPDEST PUSH1 0x40 MLOAD SWAP1 DUP1 DUP3 MSTORE DUP1 PUSH1 0x1F ADD PUSH1 0x1F NOT AND PUSH1 0x20 ADD DUP3 ADD PUSH1 0x40 MSTORE DUP1 ISZERO PUSH3 0x248 JUMPI PUSH1 0x20 DUP3 ADD DUP2 DUP1 CALLDATASIZE DUP4 CALLDATACOPY ADD SWAP1 POP JUMPDEST POP SWAP1 POP PUSH1 0x3 PUSH1 0xFC SHL DUP2 PUSH1 0x0 DUP2 MLOAD DUP2 LT PUSH3 0x266 JUMPI PUSH3 0x266 PUSH3 0x52B JUMP JUMPDEST PUSH1 0x20 ADD ADD SWAP1 PUSH1 0x1 PUSH1 0x1 PUSH1 0xF8 SHL SUB NOT AND SWAP1 DUP2 PUSH1 0x0 BYTE SWAP1 MSTORE8 POP PUSH1 0xF PUSH1 0xFB SHL DUP2 PUSH1 0x1 DUP2 MLOAD DUP2 LT PUSH3 0x298 JUMPI PUSH3 0x298 PUSH3 0x52B JUMP JUMPDEST PUSH1 0x20 ADD ADD SWAP1 PUSH1 0x1 PUSH1 0x1 PUSH1 0xF8 SHL SUB NOT AND SWAP1 DUP2 PUSH1 0x0 BYTE SWAP1 MSTORE8 POP PUSH1 0x0 PUSH3 0x2BE DUP5 PUSH1 0x2 PUSH3 0x4D8 JUMP JUMPDEST PUSH3 0x2CB SWAP1 PUSH1 0x1 PUSH3 0x4FA JUMP JUMPDEST SWAP1 POP JUMPDEST PUSH1 0x1 DUP2 GT ISZERO PUSH3 0x34D JUMPI PUSH16 0x181899199A1A9B1B9C1CB0B131B232B3 PUSH1 0x81 SHL DUP6 PUSH1 0xF AND PUSH1 0x10 DUP2 LT PUSH3 0x303 JUMPI PUSH3 0x303 PUSH3 0x52B JUMP JUMPDEST BYTE PUSH1 0xF8 SHL DUP3 DUP3 DUP2 MLOAD DUP2 LT PUSH3 0x31C JUMPI PUSH3 0x31C PUSH3 0x52B JUMP JUMPDEST PUSH1 0x20 ADD ADD SWAP1 PUSH1 0x1 PUSH1 0x1 PUSH1 0xF8 SHL SUB NOT AND SWAP1 DUP2 PUSH1 0x0 BYTE SWAP1 MSTORE8 POP PUSH1 0x4 SWAP5 SWAP1 SWAP5 SHR SWAP4 PUSH3 0x345 DUP2 PUSH3 0x541 JUMP JUMPDEST SWAP1 POP PUSH3 0x2CE JUMP JUMPDEST POP DUP4 ISZERO PUSH3 0x39E JUMPI PUSH1 0x40 MLOAD PUSH3 0x461BCD PUSH1 0xE5 SHL DUP2 MSTORE PUSH1 0x20 PUSH1 0x4 DUP3 ADD DUP2 SWAP1 MSTORE PUSH1 0x24 DUP3 ADD MSTORE PUSH32 0x537472696E67733A20686578206C656E67746820696E73756666696369656E74 PUSH1 0x44 DUP3 ADD MSTORE PUSH1 0x64 ADD PUSH3 0x1DC JUMP JUMPDEST SWAP4 SWAP3 POP POP POP JUMP JUMPDEST PUSH1 0x0 DUP1 PUSH1 0x40 DUP4 DUP6 SUB SLT ISZERO PUSH3 0x3B9 JUMPI PUSH1 0x0 DUP1 REVERT JUMPDEST DUP3 MLOAD PUSH1 0x1 PUSH1 0x1 PUSH1 0xA0 SHL SUB DUP2 AND DUP2 EQ PUSH3 0x3D1 JUMPI PUSH1 0x0 DUP1 REVERT JUMPDEST PUSH1 0x20 SWAP4 SWAP1 SWAP4 ADD MLOAD SWAP3 SWAP5 SWAP3 SWAP4 POP POP POP JUMP JUMPDEST PUSH1 0x0 JUMPDEST DUP4 DUP2 LT ISZERO PUSH3 0x3FE JUMPI DUP2 DUP2 ADD MLOAD DUP4 DUP3 ADD MSTORE PUSH1 0x20 ADD PUSH3 0x3E4 JUMP JUMPDEST DUP4 DUP2 GT ISZERO PUSH3 0x40E JUMPI PUSH1 0x0 DUP5 DUP5 ADD MSTORE JUMPDEST POP POP POP POP JUMP JUMPDEST PUSH32 0x416363657373436F6E74726F6C3A206163636F756E7420000000000000000000 DUP2 MSTORE PUSH1 0x0 DUP4 MLOAD PUSH3 0x44E DUP2 PUSH1 0x17 DUP6 ADD PUSH1 0x20 DUP9 ADD PUSH3 0x3E1 JUMP JUMPDEST PUSH17 0x1034B99036B4B9B9B4B733903937B6329 PUSH1 0x7D SHL PUSH1 0x17 SWAP2 DUP5 ADD SWAP2 DUP3 ADD MSTORE DUP4 MLOAD PUSH3 0x481 DUP2 PUSH1 0x28 DUP5 ADD PUSH1 0x20 DUP9 ADD PUSH3 0x3E1 JUMP JUMPDEST ADD PUSH1 0x28 ADD SWAP5 SWAP4 POP POP POP POP JUMP JUMPDEST PUSH1 0x20 DUP2 MSTORE PUSH1 0x0 DUP3 MLOAD DUP1 PUSH1 0x20 DUP5 ADD MSTORE PUSH3 0x4AE DUP2 PUSH1 0x40 DUP6 ADD PUSH1 0x20 DUP8 ADD PUSH3 0x3E1 JUMP JUMPDEST PUSH1 0x1F ADD PUSH1 0x1F NOT AND SWAP2 SWAP1 SWAP2 ADD PUSH1 0x40 ADD SWAP3 SWAP2 POP POP JUMP JUMPDEST PUSH4 0x4E487B71 PUSH1 0xE0 SHL PUSH1 0x0 MSTORE PUSH1 0x11 PUSH1 0x4 MSTORE PUSH1 0x24 PUSH1 0x0 REVERT JUMPDEST PUSH1 0x0 DUP2 PUSH1 0x0 NOT DIV DUP4 GT DUP3 ISZERO ISZERO AND ISZERO PUSH3 0x4F5 JUMPI PUSH3 0x4F5 PUSH3 0x4C2 JUMP JUMPDEST POP MUL SWAP1 JUMP JUMPDEST PUSH1 0x0 DUP3 NOT DUP3 GT ISZERO PUSH3 0x510 JUMPI PUSH3 0x510 PUSH3 0x4C2 JUMP JUMPDEST POP ADD SWAP1 JUMP JUMPDEST PUSH4 0x4E487B71 PUSH1 0xE0 SHL PUSH1 0x0 MSTORE PUSH1 0x41 PUSH1 0x4 MSTORE PUSH1 0x24 PUSH1 0x0 REVERT JUMPDEST PUSH4 0x4E487B71 PUSH1 0xE0 SHL PUSH1 0x0 MSTORE PUSH1 0x32 PUSH1 0x4 MSTORE PUSH1 0x24 PUSH1 0x0 REVERT JUMPDEST PUSH1 0x0 DUP2 PUSH3 0x553 JUMPI PUSH3 0x553 PUSH3 0x4C2 JUMP JUMPDEST POP PUSH1 0x0 NOT ADD SWAP1 JUMP JUMPDEST PUSH2 0x12C1 DUP1 PUSH3 0x56B PUSH1 0x0 CODECOPY PUSH1 0x0 RETURN INVALID PUSH1 0x80 PUSH1 0x40 MSTORE PUSH1 0x4 CALLDATASIZE LT PUSH2 0x12A JUMPI PUSH1 0x0 CALLDATALOAD PUSH1 0xE0 SHR DUP1 PUSH4 0x5997BBEE GT PUSH2 0xAB JUMPI DUP1 PUSH4 0x94F4504D GT PUSH2 0x6F JUMPI DUP1 PUSH4 0x94F4504D EQ PUSH2 0x36B JUMPI DUP1 PUSH4 0xA217FDDF EQ PUSH2 0x38C JUMPI DUP1 PUSH4 0xC4E41B22 EQ PUSH2 0x3A1 JUMPI DUP1 PUSH4 0xD547741F EQ PUSH2 0x3B6 JUMPI DUP1 PUSH4 0xDD31A7BA EQ PUSH2 0x3D6 JUMPI DUP1 PUSH4 0xFF0938A7 EQ PUSH2 0x3F6 JUMPI PUSH1 0x0 DUP1 REVERT JUMPDEST DUP1 PUSH4 0x5997BBEE EQ PUSH2 0x2B2 JUMPI DUP1 PUSH4 0x61AEC205 EQ PUSH2 0x2EB JUMPI DUP1 PUSH4 0x7CB64759 EQ PUSH2 0x30B JUMPI DUP1 PUSH4 0x91D14854 EQ PUSH2 0x32B JUMPI DUP1 PUSH4 0x91E5B0A2 EQ PUSH2 0x34B JUMPI PUSH1 0x0 DUP1 REVERT JUMPDEST DUP1 PUSH4 0x2904E6D9 GT PUSH2 0xF2 JUMPI DUP1 PUSH4 0x2904E6D9 EQ PUSH2 0x232 JUMPI DUP1 PUSH4 0x2EB4A7AB EQ PUSH2 0x247 JUMPI DUP1 PUSH4 0x2F2FF15D EQ PUSH2 0x25D JUMPI DUP1 PUSH4 0x36568ABE EQ PUSH2 0x27D JUMPI DUP1 PUSH4 0x4C0F38C2 EQ PUSH2 0x29D JUMPI PUSH1 0x0 DUP1 REVERT JUMPDEST DUP1 PUSH4 0x1FFC9A7 EQ PUSH2 0x12F JUMPI DUP1 PUSH4 0x11C67EFC EQ PUSH2 0x164 JUMPI DUP1 PUSH4 0x1B0D2D3B EQ PUSH2 0x185 JUMPI DUP1 PUSH4 0x248A9CA3 EQ PUSH2 0x1C9 JUMPI DUP1 PUSH4 0x27C25C20 EQ PUSH2 0x1FA JUMPI JUMPDEST PUSH1 0x0 DUP1 REVERT JUMPDEST CALLVALUE DUP1 ISZERO PUSH2 0x13B JUMPI PUSH1 0x0 DUP1 REVERT JUMPDEST POP PUSH2 0x14F PUSH2 0x14A CALLDATASIZE PUSH1 0x4 PUSH2 0xF89 JUMP JUMPDEST PUSH2 0x40B JUMP JUMPDEST PUSH1 0x40 MLOAD SWAP1 ISZERO ISZERO DUP2 MSTORE PUSH1 0x20 ADD JUMPDEST PUSH1 0x40 MLOAD DUP1 SWAP2 SUB SWAP1 RETURN JUMPDEST CALLVALUE DUP1 ISZERO PUSH2 0x170 JUMPI PUSH1 0x0 DUP1 REVERT JUMPDEST POP PUSH1 0x3 SLOAD PUSH2 0x14F SWAP1 PUSH1 0x1 PUSH1 0xA0 SHL SWAP1 DIV PUSH1 0xFF AND DUP2 JUMP JUMPDEST CALLVALUE DUP1 ISZERO PUSH2 0x191 JUMPI PUSH1 0x0 DUP1 REVERT JUMPDEST POP PUSH2 0x1BB PUSH2 0x1A0 CALLDATASIZE PUSH1 0x4 PUSH2 0xFC8 JUMP JUMPDEST PUSH1 0x1 PUSH1 0x1 PUSH1 0xA0 SHL SUB AND PUSH1 0x0 SWAP1 DUP2 MSTORE PUSH1 0x5 PUSH1 0x20 MSTORE PUSH1 0x40 SWAP1 KECCAK256 SLOAD SWAP1 JUMP JUMPDEST PUSH1 0x40 MLOAD SWAP1 DUP2 MSTORE PUSH1 0x20 ADD PUSH2 0x15B JUMP JUMPDEST CALLVALUE DUP1 ISZERO PUSH2 0x1D5 JUMPI PUSH1 0x0 DUP1 REVERT JUMPDEST POP PUSH2 0x1BB PUSH2 0x1E4 CALLDATASIZE PUSH1 0x4 PUSH2 0xFE5 JUMP JUMPDEST PUSH1 0x0 SWAP1 DUP2 MSTORE PUSH1 0x1 PUSH1 0x20 DUP2 SWAP1 MSTORE PUSH1 0x40 SWAP1 SWAP2 KECCAK256 ADD SLOAD SWAP1 JUMP JUMPDEST CALLVALUE DUP1 ISZERO PUSH2 0x206 JUMPI PUSH1 0x0 DUP1 REVERT JUMPDEST POP PUSH1 0x3 SLOAD PUSH2 0x21A SWAP1 PUSH1 0x1 PUSH1 0x1 PUSH1 0xA0 SHL SUB AND DUP2 JUMP JUMPDEST PUSH1 0x40 MLOAD PUSH1 0x1 PUSH1 0x1 PUSH1 0xA0 SHL SUB SWAP1 SWAP2 AND DUP2 MSTORE PUSH1 0x20 ADD PUSH2 0x15B JUMP JUMPDEST PUSH2 0x245 PUSH2 0x240 CALLDATASIZE PUSH1 0x4 PUSH2 0xFFE JUMP JUMPDEST PUSH2 0x442 JUMP JUMPDEST STOP JUMPDEST CALLVALUE DUP1 ISZERO PUSH2 0x253 JUMPI PUSH1 0x0 DUP1 REVERT JUMPDEST POP PUSH2 0x1BB PUSH1 0x0 SLOAD DUP2 JUMP JUMPDEST CALLVALUE DUP1 ISZERO PUSH2 0x269 JUMPI PUSH1 0x0 DUP1 REVERT JUMPDEST POP PUSH2 0x245 PUSH2 0x278 CALLDATASIZE PUSH1 0x4 PUSH2 0x1079 JUMP JUMPDEST PUSH2 0x8C4 JUMP JUMPDEST CALLVALUE DUP1 ISZERO PUSH2 0x289 JUMPI PUSH1 0x0 DUP1 REVERT JUMPDEST POP PUSH2 0x245 PUSH2 0x298 CALLDATASIZE PUSH1 0x4 PUSH2 0x1079 JUMP JUMPDEST PUSH2 0x8EF JUMP JUMPDEST CALLVALUE DUP1 ISZERO PUSH2 0x2A9 JUMPI PUSH1 0x0 DUP1 REVERT JUMPDEST POP PUSH2 0x1BB PUSH2 0x96D JUMP JUMPDEST CALLVALUE DUP1 ISZERO PUSH2 0x2BE JUMPI PUSH1 0x0 DUP1 REVERT JUMPDEST POP PUSH2 0x14F PUSH2 0x2CD CALLDATASIZE PUSH1 0x4 PUSH2 0xFC8 JUMP JUMPDEST PUSH1 0x1 PUSH1 0x1 PUSH1 0xA0 SHL SUB AND PUSH1 0x0 SWAP1 DUP2 MSTORE PUSH1 0x4 PUSH1 0x20 MSTORE PUSH1 0x40 SWAP1 KECCAK256 SLOAD PUSH1 0xFF AND SWAP1 JUMP JUMPDEST CALLVALUE DUP1 ISZERO PUSH2 0x2F7 JUMPI PUSH1 0x0 DUP1 REVERT JUMPDEST POP PUSH2 0x245 PUSH2 0x306 CALLDATASIZE PUSH1 0x4 PUSH2 0xFC8 JUMP JUMPDEST PUSH2 0x9E0 JUMP JUMPDEST CALLVALUE DUP1 ISZERO PUSH2 0x317 JUMPI PUSH1 0x0 DUP1 REVERT JUMPDEST POP PUSH2 0x245 PUSH2 0x326 CALLDATASIZE PUSH1 0x4 PUSH2 0xFE5 JUMP JUMPDEST PUSH2 0xA0E JUMP JUMPDEST CALLVALUE DUP1 ISZERO PUSH2 0x337 JUMPI PUSH1 0x0 DUP1 REVERT JUMPDEST POP PUSH2 0x14F PUSH2 0x346 CALLDATASIZE PUSH1 0x4 PUSH2 0x1079 JUMP JUMPDEST PUSH2 0xA1F JUMP JUMPDEST CALLVALUE DUP1 ISZERO PUSH2 0x357 JUMPI PUSH1 0x0 DUP1 REVERT JUMPDEST POP PUSH2 0x245 PUSH2 0x366 CALLDATASIZE PUSH1 0x4 PUSH2 0x10B7 JUMP JUMPDEST PUSH2 0xA4A JUMP JUMPDEST CALLVALUE DUP1 ISZERO PUSH2 0x377 JUMPI PUSH1 0x0 DUP1 REVERT JUMPDEST POP PUSH1 0x3 SLOAD PUSH2 0x14F SWAP1 PUSH1 0x1 PUSH1 0xA8 SHL SWAP1 DIV PUSH1 0xFF AND DUP2 JUMP JUMPDEST CALLVALUE DUP1 ISZERO PUSH2 0x398 JUMPI PUSH1 0x0 DUP1 REVERT JUMPDEST POP PUSH2 0x1BB PUSH1 0x0 DUP2 JUMP JUMPDEST CALLVALUE DUP1 ISZERO PUSH2 0x3AD JUMPI PUSH1 0x0 DUP1 REVERT JUMPDEST POP PUSH2 0x1BB PUSH2 0xA74 JUMP JUMPDEST CALLVALUE DUP1 ISZERO PUSH2 0x3C2 JUMPI PUSH1 0x0 DUP1 REVERT JUMPDEST POP PUSH2 0x245 PUSH2 0x3D1 CALLDATASIZE PUSH1 0x4 PUSH2 0x1079 JUMP JUMPDEST PUSH2 0xABE JUMP JUMPDEST CALLVALUE DUP1 ISZERO PUSH2 0x3E2 JUMPI PUSH1 0x0 DUP1 REVERT JUMPDEST POP PUSH2 0x245 PUSH2 0x3F1 CALLDATASIZE PUSH1 0x4 PUSH2 0x10B7 JUMP JUMPDEST PUSH2 0xAE4 JUMP JUMPDEST CALLVALUE DUP1 ISZERO PUSH2 0x402 JUMPI PUSH1 0x0 DUP1 REVERT JUMPDEST POP PUSH2 0x14F PUSH2 0xB0E JUMP JUMPDEST PUSH1 0x0 PUSH1 0x1 PUSH1 0x1 PUSH1 0xE0 SHL SUB NOT DUP3 AND PUSH4 0x7965DB0B PUSH1 0xE0 SHL EQ DUP1 PUSH2 0x43C JUMPI POP PUSH4 0x1FFC9A7 PUSH1 0xE0 SHL PUSH1 0x1 PUSH1 0x1 PUSH1 0xE0 SHL SUB NOT DUP4 AND EQ JUMPDEST SWAP3 SWAP2 POP POP JUMP JUMPDEST PUSH1 0x2 DUP1 SLOAD SUB PUSH2 0x498 JUMPI PUSH1 0x40 MLOAD PUSH3 0x461BCD PUSH1 0xE5 SHL DUP2 MSTORE PUSH1 0x20 PUSH1 0x4 DUP3 ADD MSTORE PUSH1 0x1F PUSH1 0x24 DUP3 ADD MSTORE PUSH32 0x5265656E7472616E637947756172643A207265656E7472616E742063616C6C00 PUSH1 0x44 DUP3 ADD MSTORE PUSH1 0x64 ADD JUMPDEST PUSH1 0x40 MLOAD DUP1 SWAP2 SUB SWAP1 REVERT JUMPDEST PUSH1 0x2 DUP1 SSTORE PUSH2 0x4A4 PUSH2 0xB0E JUMP JUMPDEST ISZERO PUSH2 0x4E8 JUMPI PUSH1 0x40 MLOAD PUSH3 0x461BCD PUSH1 0xE5 SHL DUP2 MSTORE PUSH1 0x20 PUSH1 0x4 DUP3 ADD MSTORE PUSH1 0x14 PUSH1 0x24 DUP3 ADD MSTORE PUSH20 0x2730B3B0A5B4B239903BB0B9902830BAB9B2B217 PUSH1 0x61 SHL PUSH1 0x44 DUP3 ADD MSTORE PUSH1 0x64 ADD PUSH2 0x48F JUMP JUMPDEST PUSH1 0x3 SLOAD PUSH1 0x1 PUSH1 0xA8 SHL SWAP1 DIV PUSH1 0xFF AND ISZERO ISZERO PUSH1 0x1 EQ PUSH2 0x546 JUMPI PUSH1 0x40 MLOAD PUSH3 0x461BCD PUSH1 0xE5 SHL DUP2 MSTORE PUSH1 0x20 PUSH1 0x4 DUP3 ADD MSTORE PUSH1 0x1B PUSH1 0x24 DUP3 ADD MSTORE PUSH32 0x57686974656C697374206E6F74206F70656E20746F206D696E742E0000000000 PUSH1 0x44 DUP3 ADD MSTORE PUSH1 0x64 ADD PUSH2 0x48F JUMP JUMPDEST CALLER PUSH1 0x0 SWAP1 DUP2 MSTORE PUSH1 0x4 PUSH1 0x20 MSTORE PUSH1 0x40 SWAP1 KECCAK256 SLOAD PUSH1 0xFF AND ISZERO ISZERO PUSH1 0x1 SUB PUSH2 0x5AA JUMPI PUSH1 0x40 MLOAD PUSH3 0x461BCD PUSH1 0xE5 SHL DUP2 MSTORE PUSH1 0x20 PUSH1 0x4 DUP3 ADD MSTORE PUSH1 0x17 PUSH1 0x24 DUP3 ADD MSTORE PUSH32 0x596F752061726520616C7265616479206D696E7465642E000000000000000000 PUSH1 0x44 DUP3 ADD MSTORE PUSH1 0x64 ADD PUSH2 0x48F JUMP JUMPDEST PUSH2 0x457 PUSH2 0x5B5 PUSH2 0xA74 JUMP JUMPDEST LT PUSH2 0x5F0 JUMPI PUSH1 0x40 MLOAD PUSH3 0x461BCD PUSH1 0xE5 SHL DUP2 MSTORE PUSH1 0x20 PUSH1 0x4 DUP3 ADD MSTORE PUSH1 0xB PUSH1 0x24 DUP3 ADD MSTORE PUSH11 0x4F76657220737570706C79 PUSH1 0xA8 SHL PUSH1 0x44 DUP3 ADD MSTORE PUSH1 0x64 ADD PUSH2 0x48F JUMP JUMPDEST PUSH2 0x457 DUP2 PUSH2 0x5FC PUSH2 0xA74 JUMP JUMPDEST PUSH2 0x606 SWAP2 SWAP1 PUSH2 0x10EA JUMP JUMPDEST LT PUSH2 0x648 JUMPI PUSH1 0x40 MLOAD PUSH3 0x461BCD PUSH1 0xE5 SHL DUP2 MSTORE PUSH1 0x20 PUSH1 0x4 DUP3 ADD MSTORE PUSH1 0x12 PUSH1 0x24 DUP3 ADD MSTORE PUSH18 0x13DD995C8814DD5C1C1B1E48105B5BDD5B9D PUSH1 0x72 SHL PUSH1 0x44 DUP3 ADD MSTORE PUSH1 0x64 ADD PUSH2 0x48F JUMP JUMPDEST PUSH1 0x3 SLOAD PUSH1 0x40 DUP1 MLOAD PUSH4 0xD5391393 PUSH1 0xE0 SHL DUP2 MSTORE SWAP1 MLOAD PUSH1 0x1 PUSH1 0x1 PUSH1 0xA0 SHL SUB SWAP1 SWAP3 AND SWAP2 PUSH4 0x91D14854 SWAP2 DUP4 SWAP2 PUSH4 0xD5391393 SWAP2 PUSH1 0x4 DUP1 DUP3 ADD SWAP3 PUSH1 0x20 SWAP3 SWAP1 SWAP2 SWAP1 DUP3 SWAP1 SUB ADD DUP2 DUP7 GAS STATICCALL ISZERO DUP1 ISZERO PUSH2 0x69A JUMPI RETURNDATASIZE PUSH1 0x0 DUP1 RETURNDATACOPY RETURNDATASIZE PUSH1 0x0 REVERT JUMPDEST POP POP POP POP PUSH1 0x40 MLOAD RETURNDATASIZE PUSH1 0x1F NOT PUSH1 0x1F DUP3 ADD AND DUP3 ADD DUP1 PUSH1 0x40 MSTORE POP DUP2 ADD SWAP1 PUSH2 0x6BE SWAP2 SWAP1 PUSH2 0x1102 JUMP JUMPDEST PUSH1 0x40 MLOAD PUSH1 0x1 PUSH1 0x1 PUSH1 0xE0 SHL SUB NOT PUSH1 0xE0 DUP5 SWAP1 SHL AND DUP2 MSTORE PUSH1 0x4 DUP2 ADD SWAP2 SWAP1 SWAP2 MSTORE ADDRESS PUSH1 0x24 DUP3 ADD MSTORE PUSH1 0x44 ADD PUSH1 0x20 PUSH1 0x40 MLOAD DUP1 DUP4 SUB DUP2 DUP7 GAS STATICCALL ISZERO DUP1 ISZERO PUSH2 0x700 JUMPI RETURNDATASIZE PUSH1 0x0 DUP1 RETURNDATACOPY RETURNDATASIZE PUSH1 0x0 REVERT JUMPDEST POP POP POP POP PUSH1 0x40 MLOAD RETURNDATASIZE PUSH1 0x1F NOT PUSH1 0x1F DUP3 ADD AND DUP3 ADD DUP1 PUSH1 0x40 MSTORE POP DUP2 ADD SWAP1 PUSH2 0x724 SWAP2 SWAP1 PUSH2 0x111B JUMP JUMPDEST ISZERO ISZERO PUSH1 0x1 EQ PUSH2 0x788 JUMPI PUSH1 0x40 MLOAD PUSH3 0x461BCD PUSH1 0xE5 SHL DUP2 MSTORE PUSH1 0x20 PUSH1 0x4 DUP3 ADD MSTORE PUSH1 0x2A PUSH1 0x24 DUP3 ADD MSTORE PUSH32 0x5468697320436F6E7472616374206E6F742068617665207065726D697373696F PUSH1 0x44 DUP3 ADD MSTORE PUSH10 0x37103A379036B4B73A17 PUSH1 0xB1 SHL PUSH1 0x64 DUP3 ADD MSTORE PUSH1 0x84 ADD PUSH2 0x48F JUMP JUMPDEST PUSH2 0x794 DUP4 DUP4 CALLER DUP5 PUSH2 0xD1F JUMP JUMPDEST PUSH2 0x7EA JUMPI PUSH1 0x40 MLOAD PUSH3 0x461BCD PUSH1 0xE5 SHL DUP2 MSTORE PUSH1 0x20 PUSH1 0x4 DUP3 ADD MSTORE PUSH1 0x21 PUSH1 0x24 DUP3 ADD MSTORE PUSH32 0x556E617574686F72697A65642057686974656C69737420546869732055736572 PUSH1 0x44 DUP3 ADD MSTORE PUSH1 0x17 PUSH1 0xF9 SHL PUSH1 0x64 DUP3 ADD MSTORE PUSH1 0x84 ADD PUSH2 0x48F JUMP JUMPDEST CALLER PUSH1 0x0 SWAP1 DUP2 MSTORE PUSH1 0x4 PUSH1 0x20 SWAP1 DUP2 MSTORE PUSH1 0x40 DUP1 DUP4 KECCAK256 DUP1 SLOAD PUSH1 0xFF NOT AND PUSH1 0x1 OR SWAP1 SSTORE PUSH1 0x5 SWAP1 SWAP2 MSTORE DUP2 KECCAK256 DUP1 SLOAD DUP4 SWAP3 SWAP1 PUSH2 0x81E SWAP1 DUP5 SWAP1 PUSH2 0x10EA JUMP JUMPDEST SWAP1 SWAP2 SSTORE POP POP PUSH1 0x3 SLOAD PUSH1 0x40 MLOAD PUSH4 0x40D097C3 PUSH1 0xE0 SHL DUP2 MSTORE CALLER PUSH1 0x4 DUP3 ADD MSTORE PUSH1 0x1 PUSH1 0x1 PUSH1 0xA0 SHL SUB SWAP1 SWAP2 AND SWAP1 PUSH4 0x40D097C3 SWAP1 PUSH1 0x24 ADD PUSH1 0x0 PUSH1 0x40 MLOAD DUP1 DUP4 SUB DUP2 PUSH1 0x0 DUP8 DUP1 EXTCODESIZE ISZERO DUP1 ISZERO PUSH2 0x868 JUMPI PUSH1 0x0 DUP1 REVERT JUMPDEST POP GAS CALL ISZERO DUP1 ISZERO PUSH2 0x87C JUMPI RETURNDATASIZE PUSH1 0x0 DUP1 RETURNDATACOPY RETURNDATASIZE PUSH1 0x0 REVERT JUMPDEST POP POP PUSH1 0x40 DUP1 MLOAD CALLER DUP2 MSTORE PUSH1 0x20 DUP2 ADD DUP6 SWAP1 MSTORE PUSH32 0xCE77E469B386BE007F957632F6F65216F2E74C5DAA303AFF682E8296F628D010 SWAP4 POP ADD SWAP1 POP PUSH1 0x40 MLOAD DUP1 SWAP2 SUB SWAP1 LOG1 POP POP PUSH1 0x1 PUSH1 0x2 SSTORE POP JUMP JUMPDEST PUSH1 0x0 DUP3 DUP2 MSTORE PUSH1 0x1 PUSH1 0x20 DUP2 SWAP1 MSTORE PUSH1 0x40 SWAP1 SWAP2 KECCAK256 ADD SLOAD PUSH2 0x8E0 DUP2 PUSH2 0xDBC JUMP JUMPDEST PUSH2 0x8EA DUP4 DUP4 PUSH2 0xDC9 JUMP JUMPDEST POP POP POP JUMP JUMPDEST PUSH1 0x1 PUSH1 0x1 PUSH1 0xA0 SHL SUB DUP2 AND CALLER EQ PUSH2 0x95F JUMPI PUSH1 0x40 MLOAD PUSH3 0x461BCD PUSH1 0xE5 SHL DUP2 MSTORE PUSH1 0x20 PUSH1 0x4 DUP3 ADD MSTORE PUSH1 0x2F PUSH1 0x24 DUP3 ADD MSTORE PUSH32 0x416363657373436F6E74726F6C3A2063616E206F6E6C792072656E6F756E6365 PUSH1 0x44 DUP3 ADD MSTORE PUSH15 0x103937B632B9903337B91039B2B633 PUSH1 0x89 SHL PUSH1 0x64 DUP3 ADD MSTORE PUSH1 0x84 ADD PUSH2 0x48F JUMP JUMPDEST PUSH2 0x969 DUP3 DUP3 PUSH2 0xE34 JUMP JUMPDEST POP POP JUMP JUMPDEST PUSH1 0x3 SLOAD PUSH1 0x40 DUP1 MLOAD PUSH4 0xD5ABEB01 PUSH1 0xE0 SHL DUP2 MSTORE SWAP1 MLOAD PUSH1 0x0 SWAP3 PUSH1 0x1 PUSH1 0x1 PUSH1 0xA0 SHL SUB AND SWAP2 PUSH4 0xD5ABEB01 SWAP2 PUSH1 0x4 DUP1 DUP4 ADD SWAP3 PUSH1 0x20 SWAP3 SWAP2 SWAP1 DUP3 SWAP1 SUB ADD DUP2 DUP7 GAS STATICCALL ISZERO DUP1 ISZERO PUSH2 0x9B7 JUMPI RETURNDATASIZE PUSH1 0x0 DUP1 RETURNDATACOPY RETURNDATASIZE PUSH1 0x0 REVERT JUMPDEST POP POP POP POP PUSH1 0x40 MLOAD RETURNDATASIZE PUSH1 0x1F NOT PUSH1 0x1F DUP3 ADD AND DUP3 ADD DUP1 PUSH1 0x40 MSTORE POP DUP2 ADD SWAP1 PUSH2 0x9DB SWAP2 SWAP1 PUSH2 0x1102 JUMP JUMPDEST SWAP1 POP SWAP1 JUMP JUMPDEST PUSH1 0x0 PUSH2 0x9EB DUP2 PUSH2 0xDBC JUMP JUMPDEST POP PUSH1 0x3 DUP1 SLOAD PUSH1 0x1 PUSH1 0x1 PUSH1 0xA0 SHL SUB NOT AND PUSH1 0x1 PUSH1 0x1 PUSH1 0xA0 SHL SUB SWAP3 SWAP1 SWAP3 AND SWAP2 SWAP1 SWAP2 OR SWAP1 SSTORE JUMP JUMPDEST PUSH1 0x0 PUSH2 0xA19 DUP2 PUSH2 0xDBC JUMP JUMPDEST POP PUSH1 0x0 SSTORE JUMP JUMPDEST PUSH1 0x0 SWAP2 DUP3 MSTORE PUSH1 0x1 PUSH1 0x20 SWAP1 DUP2 MSTORE PUSH1 0x40 DUP1 DUP5 KECCAK256 PUSH1 0x1 PUSH1 0x1 PUSH1 0xA0 SHL SUB SWAP4 SWAP1 SWAP4 AND DUP5 MSTORE SWAP2 SWAP1 MSTORE SWAP1 KECCAK256 SLOAD PUSH1 0xFF AND SWAP1 JUMP JUMPDEST PUSH1 0x0 PUSH2 0xA55 DUP2 PUSH2 0xDBC JUMP JUMPDEST POP PUSH1 0x3 DUP1 SLOAD SWAP2 ISZERO ISZERO PUSH1 0x1 PUSH1 0xA0 SHL MUL PUSH1 0xFF PUSH1 0xA0 SHL NOT SWAP1 SWAP3 AND SWAP2 SWAP1 SWAP2 OR SWAP1 SSTORE JUMP JUMPDEST PUSH1 0x3 SLOAD PUSH1 0x40 DUP1 MLOAD PUSH4 0x18160DDD PUSH1 0xE0 SHL DUP2 MSTORE SWAP1 MLOAD PUSH1 0x0 SWAP3 PUSH1 0x1 PUSH1 0x1 PUSH1 0xA0 SHL SUB AND SWAP2 PUSH4 0x18160DDD SWAP2 PUSH1 0x4 DUP1 DUP4 ADD SWAP3 PUSH1 0x20 SWAP3 SWAP2 SWAP1 DUP3 SWAP1 SUB ADD DUP2 DUP7 GAS STATICCALL ISZERO DUP1 ISZERO PUSH2 0x9B7 JUMPI RETURNDATASIZE PUSH1 0x0 DUP1 RETURNDATACOPY RETURNDATASIZE PUSH1 0x0 REVERT JUMPDEST PUSH1 0x0 DUP3 DUP2 MSTORE PUSH1 0x1 PUSH1 0x20 DUP2 SWAP1 MSTORE PUSH1 0x40 SWAP1 SWAP2 KECCAK256 ADD SLOAD PUSH2 0xADA DUP2 PUSH2 0xDBC JUMP JUMPDEST PUSH2 0x8EA DUP4 DUP4 PUSH2 0xE34 JUMP JUMPDEST PUSH1 0x0 PUSH2 0xAEF DUP2 PUSH2 0xDBC JUMP JUMPDEST POP PUSH1 0x3 DUP1 SLOAD SWAP2 ISZERO ISZERO PUSH1 0x1 PUSH1 0xA8 SHL MUL PUSH1 0xFF PUSH1 0xA8 SHL NOT SWAP1 SWAP3 AND SWAP2 SWAP1 SWAP2 OR SWAP1 SSTORE JUMP JUMPDEST PUSH1 0x3 SLOAD PUSH1 0x40 DUP1 MLOAD PUSH4 0x5C975ABB PUSH1 0xE0 SHL DUP2 MSTORE SWAP1 MLOAD PUSH1 0x0 SWAP3 PUSH1 0x1 PUSH1 0x1 PUSH1 0xA0 SHL SUB AND SWAP2 PUSH4 0x5C975ABB SWAP2 PUSH1 0x4 DUP1 DUP4 ADD SWAP3 PUSH1 0x20 SWAP3 SWAP2 SWAP1 DUP3 SWAP1 SUB ADD DUP2 DUP7 GAS STATICCALL ISZERO DUP1 ISZERO PUSH2 0xB58 JUMPI RETURNDATASIZE PUSH1 0x0 DUP1 RETURNDATACOPY RETURNDATASIZE PUSH1 0x0 REVERT JUMPDEST POP POP POP POP PUSH1 0x40 MLOAD RETURNDATASIZE PUSH1 0x1F NOT PUSH1 0x1F DUP3 ADD AND DUP3 ADD DUP1 PUSH1 0x40 MSTORE POP DUP2 ADD SWAP1 PUSH2 0x9DB SWAP2 SWAP1 PUSH2 0x111B JUMP JUMPDEST PUSH1 0x60 PUSH1 0x0 PUSH2 0xB8B DUP4 PUSH1 0x2 PUSH2 0x1138 JUMP JUMPDEST PUSH2 0xB96 SWAP1 PUSH1 0x2 PUSH2 0x10EA JUMP JUMPDEST PUSH8 0xFFFFFFFFFFFFFFFF DUP2 GT ISZERO PUSH2 0xBAE JUMPI PUSH2 0xBAE PUSH2 0x1157 JUMP JUMPDEST PUSH1 0x40 MLOAD SWAP1 DUP1 DUP3 MSTORE DUP1 PUSH1 0x1F ADD PUSH1 0x1F NOT AND PUSH1 0x20 ADD DUP3 ADD PUSH1 0x40 MSTORE DUP1 ISZERO PUSH2 0xBD8 JUMPI PUSH1 0x20 DUP3 ADD DUP2 DUP1 CALLDATASIZE DUP4 CALLDATACOPY ADD SWAP1 POP JUMPDEST POP SWAP1 POP PUSH1 0x3 PUSH1 0xFC SHL DUP2 PUSH1 0x0 DUP2 MLOAD DUP2 LT PUSH2 0xBF3 JUMPI PUSH2 0xBF3 PUSH2 0x116D JUMP JUMPDEST PUSH1 0x20 ADD ADD SWAP1 PUSH1 0x1 PUSH1 0x1 PUSH1 0xF8 SHL SUB NOT AND SWAP1 DUP2 PUSH1 0x0 BYTE SWAP1 MSTORE8 POP PUSH1 0xF PUSH1 0xFB SHL DUP2 PUSH1 0x1 DUP2 MLOAD DUP2 LT PUSH2 0xC22 JUMPI PUSH2 0xC22 PUSH2 0x116D JUMP JUMPDEST PUSH1 0x20 ADD ADD SWAP1 PUSH1 0x1 PUSH1 0x1 PUSH1 0xF8 SHL SUB NOT AND SWAP1 DUP2 PUSH1 0x0 BYTE SWAP1 MSTORE8 POP PUSH1 0x0 PUSH2 0xC46 DUP5 PUSH1 0x2 PUSH2 0x1138 JUMP JUMPDEST PUSH2 0xC51 SWAP1 PUSH1 0x1 PUSH2 0x10EA JUMP JUMPDEST SWAP1 POP JUMPDEST PUSH1 0x1 DUP2 GT ISZERO PUSH2 0xCC9 JUMPI PUSH16 0x181899199A1A9B1B9C1CB0B131B232B3 PUSH1 0x81 SHL DUP6 PUSH1 0xF AND PUSH1 0x10 DUP2 LT PUSH2 0xC85 JUMPI PUSH2 0xC85 PUSH2 0x116D JUMP JUMPDEST BYTE PUSH1 0xF8 SHL DUP3 DUP3 DUP2 MLOAD DUP2 LT PUSH2 0xC9B JUMPI PUSH2 0xC9B PUSH2 0x116D JUMP JUMPDEST PUSH1 0x20 ADD ADD SWAP1 PUSH1 0x1 PUSH1 0x1 PUSH1 0xF8 SHL SUB NOT AND SWAP1 DUP2 PUSH1 0x0 BYTE SWAP1 MSTORE8 POP PUSH1 0x4 SWAP5 SWAP1 SWAP5 SHR SWAP4 PUSH2 0xCC2 DUP2 PUSH2 0x1183 JUMP JUMPDEST SWAP1 POP PUSH2 0xC54 JUMP JUMPDEST POP DUP4 ISZERO PUSH2 0xD18 JUMPI PUSH1 0x40 MLOAD PUSH3 0x461BCD PUSH1 0xE5 SHL DUP2 MSTORE PUSH1 0x20 PUSH1 0x4 DUP3 ADD DUP2 SWAP1 MSTORE PUSH1 0x24 DUP3 ADD MSTORE PUSH32 0x537472696E67733A20686578206C656E67746820696E73756666696369656E74 PUSH1 0x44 DUP3 ADD MSTORE PUSH1 0x64 ADD PUSH2 0x48F JUMP JUMPDEST SWAP4 SWAP3 POP POP POP JUMP JUMPDEST PUSH1 0x0 DUP1 SLOAD DUP2 SUB PUSH2 0xD31 JUMPI POP PUSH1 0x0 PUSH2 0xDB4 JUMP JUMPDEST PUSH2 0xDB1 DUP6 DUP6 DUP1 DUP1 PUSH1 0x20 MUL PUSH1 0x20 ADD PUSH1 0x40 MLOAD SWAP1 DUP2 ADD PUSH1 0x40 MSTORE DUP1 SWAP4 SWAP3 SWAP2 SWAP1 DUP2 DUP2 MSTORE PUSH1 0x20 ADD DUP4 DUP4 PUSH1 0x20 MUL DUP1 DUP3 DUP5 CALLDATACOPY PUSH1 0x0 SWAP3 ADD DUP3 SWAP1 MSTORE POP SLOAD PUSH1 0x40 MLOAD PUSH12 0xFFFFFFFFFFFFFFFFFFFFFFFF NOT PUSH1 0x60 DUP12 SWAP1 SHL AND PUSH1 0x20 DUP3 ADD MSTORE PUSH1 0x34 DUP2 ADD DUP10 SWAP1 MSTORE SWAP1 SWAP4 POP PUSH1 0x54 ADD SWAP2 POP PUSH2 0xD96 SWAP1 POP JUMP JUMPDEST PUSH1 0x40 MLOAD PUSH1 0x20 DUP2 DUP4 SUB SUB DUP2 MSTORE SWAP1 PUSH1 0x40 MSTORE DUP1 MLOAD SWAP1 PUSH1 0x20 ADD KECCAK256 PUSH2 0xE9B JUMP JUMPDEST SWAP1 POP JUMPDEST SWAP5 SWAP4 POP POP POP POP JUMP JUMPDEST PUSH2 0xDC6 DUP2 CALLER PUSH2 0xEB1 JUMP JUMPDEST POP JUMP JUMPDEST PUSH2 0xDD3 DUP3 DUP3 PUSH2 0xA1F JUMP JUMPDEST PUSH2 0x969 JUMPI PUSH1 0x0 DUP3 DUP2 MSTORE PUSH1 0x1 PUSH1 0x20 DUP2 DUP2 MSTORE PUSH1 0x40 DUP1 DUP5 KECCAK256 PUSH1 0x1 PUSH1 0x1 PUSH1 0xA0 SHL SUB DUP7 AND DUP1 DUP7 MSTORE SWAP3 MSTORE DUP1 DUP5 KECCAK256 DUP1 SLOAD PUSH1 0xFF NOT AND SWAP1 SWAP4 OR SWAP1 SWAP3 SSTORE SWAP1 MLOAD CALLER SWAP3 DUP6 SWAP2 PUSH32 0x2F8788117E7EFF1D82E926EC794901D17C78024A50270940304540A733656F0D SWAP2 SWAP1 LOG4 POP POP JUMP JUMPDEST PUSH2 0xE3E DUP3 DUP3 PUSH2 0xA1F JUMP JUMPDEST ISZERO PUSH2 0x969 JUMPI PUSH1 0x0 DUP3 DUP2 MSTORE PUSH1 0x1 PUSH1 0x20 SWAP1 DUP2 MSTORE PUSH1 0x40 DUP1 DUP4 KECCAK256 PUSH1 0x1 PUSH1 0x1 PUSH1 0xA0 SHL SUB DUP6 AND DUP1 DUP6 MSTORE SWAP3 MSTORE DUP1 DUP4 KECCAK256 DUP1 SLOAD PUSH1 0xFF NOT AND SWAP1 SSTORE MLOAD CALLER SWAP3 DUP6 SWAP2 PUSH32 0xF6391F5C32D9C69D2A47EA670B442974B53935D1EDC7FD64EB21E047A839171B SWAP2 SWAP1 LOG4 POP POP JUMP JUMPDEST PUSH1 0x0 DUP3 PUSH2 0xEA8 DUP6 DUP5 PUSH2 0xF15 JUMP JUMPDEST EQ SWAP5 SWAP4 POP POP POP POP JUMP JUMPDEST PUSH2 0xEBB DUP3 DUP3 PUSH2 0xA1F JUMP JUMPDEST PUSH2 0x969 JUMPI PUSH2 0xED3 DUP2 PUSH1 0x1 PUSH1 0x1 PUSH1 0xA0 SHL SUB AND PUSH1 0x14 PUSH2 0xB7C JUMP JUMPDEST PUSH2 0xEDE DUP4 PUSH1 0x20 PUSH2 0xB7C JUMP JUMPDEST PUSH1 0x40 MLOAD PUSH1 0x20 ADD PUSH2 0xEEF SWAP3 SWAP2 SWAP1 PUSH2 0x11CA JUMP JUMPDEST PUSH1 0x40 DUP1 MLOAD PUSH1 0x1F NOT DUP2 DUP5 SUB ADD DUP2 MSTORE SWAP1 DUP3 SWAP1 MSTORE PUSH3 0x461BCD PUSH1 0xE5 SHL DUP3 MSTORE PUSH2 0x48F SWAP2 PUSH1 0x4 ADD PUSH2 0x123F JUMP JUMPDEST PUSH1 0x0 DUP2 DUP2 JUMPDEST DUP5 MLOAD DUP2 LT ISZERO PUSH2 0xF81 JUMPI PUSH1 0x0 DUP6 DUP3 DUP2 MLOAD DUP2 LT PUSH2 0xF37 JUMPI PUSH2 0xF37 PUSH2 0x116D JUMP JUMPDEST PUSH1 0x20 MUL PUSH1 0x20 ADD ADD MLOAD SWAP1 POP DUP1 DUP4 GT PUSH2 0xF5D JUMPI PUSH1 0x0 DUP4 DUP2 MSTORE PUSH1 0x20 DUP3 SWAP1 MSTORE PUSH1 0x40 SWAP1 KECCAK256 SWAP3 POP PUSH2 0xF6E JUMP JUMPDEST PUSH1 0x0 DUP2 DUP2 MSTORE PUSH1 0x20 DUP5 SWAP1 MSTORE PUSH1 0x40 SWAP1 KECCAK256 SWAP3 POP JUMPDEST POP DUP1 PUSH2 0xF79 DUP2 PUSH2 0x1272 JUMP JUMPDEST SWAP2 POP POP PUSH2 0xF1A JUMP JUMPDEST POP SWAP4 SWAP3 POP POP POP JUMP JUMPDEST PUSH1 0x0 PUSH1 0x20 DUP3 DUP5 SUB SLT ISZERO PUSH2 0xF9B JUMPI PUSH1 0x0 DUP1 REVERT JUMPDEST DUP2 CALLDATALOAD PUSH1 0x1 PUSH1 0x1 PUSH1 0xE0 SHL SUB NOT DUP2 AND DUP2 EQ PUSH2 0xD18 JUMPI PUSH1 0x0 DUP1 REVERT JUMPDEST PUSH1 0x1 PUSH1 0x1 PUSH1 0xA0 SHL SUB DUP2 AND DUP2 EQ PUSH2 0xDC6 JUMPI PUSH1 0x0 DUP1 REVERT JUMPDEST PUSH1 0x0 PUSH1 0x20 DUP3 DUP5 SUB SLT ISZERO PUSH2 0xFDA JUMPI PUSH1 0x0 DUP1 REVERT JUMPDEST DUP2 CALLDATALOAD PUSH2 0xD18 DUP2 PUSH2 0xFB3 JUMP JUMPDEST PUSH1 0x0 PUSH1 0x20 DUP3 DUP5 SUB SLT ISZERO PUSH2 0xFF7 JUMPI PUSH1 0x0 DUP1 REVERT JUMPDEST POP CALLDATALOAD SWAP2 SWAP1 POP JUMP JUMPDEST PUSH1 0x0 DUP1 PUSH1 0x0 PUSH1 0x40 DUP5 DUP7 SUB SLT ISZERO PUSH2 0x1013 JUMPI PUSH1 0x0 DUP1 REVERT JUMPDEST DUP4 CALLDATALOAD PUSH8 0xFFFFFFFFFFFFFFFF DUP1 DUP3 GT ISZERO PUSH2 0x102B JUMPI PUSH1 0x0 DUP1 REVERT JUMPDEST DUP2 DUP7 ADD SWAP2 POP DUP7 PUSH1 0x1F DUP4 ADD SLT PUSH2 0x103F JUMPI PUSH1 0x0 DUP1 REVERT JUMPDEST DUP2 CALLDATALOAD DUP2 DUP2 GT ISZERO PUSH2 0x104E JUMPI PUSH1 0x0 DUP1 REVERT JUMPDEST DUP8 PUSH1 0x20 DUP3 PUSH1 0x5 SHL DUP6 ADD ADD GT ISZERO PUSH2 0x1063 JUMPI PUSH1 0x0 DUP1 REVERT JUMPDEST PUSH1 0x20 SWAP3 DUP4 ADD SWAP9 SWAP1 SWAP8 POP SWAP6 SWAP1 SWAP2 ADD CALLDATALOAD SWAP5 SWAP4 POP POP POP POP JUMP JUMPDEST PUSH1 0x0 DUP1 PUSH1 0x40 DUP4 DUP6 SUB SLT ISZERO PUSH2 0x108C JUMPI PUSH1 0x0 DUP1 REVERT JUMPDEST DUP3 CALLDATALOAD SWAP2 POP PUSH1 0x20 DUP4 ADD CALLDATALOAD PUSH2 0x109E DUP2 PUSH2 0xFB3 JUMP JUMPDEST DUP1 SWAP2 POP POP SWAP3 POP SWAP3 SWAP1 POP JUMP JUMPDEST DUP1 ISZERO ISZERO DUP2 EQ PUSH2 0xDC6 JUMPI PUSH1 0x0 DUP1 REVERT JUMPDEST PUSH1 0x0 PUSH1 0x20 DUP3 DUP5 SUB SLT ISZERO PUSH2 0x10C9 JUMPI PUSH1 0x0 DUP1 REVERT JUMPDEST DUP2 CALLDATALOAD PUSH2 0xD18 DUP2 PUSH2 0x10A9 JUMP JUMPDEST PUSH4 0x4E487B71 PUSH1 0xE0 SHL PUSH1 0x0 MSTORE PUSH1 0x11 PUSH1 0x4 MSTORE PUSH1 0x24 PUSH1 0x0 REVERT JUMPDEST PUSH1 0x0 DUP3 NOT DUP3 GT ISZERO PUSH2 0x10FD JUMPI PUSH2 0x10FD PUSH2 0x10D4 JUMP JUMPDEST POP ADD SWAP1 JUMP JUMPDEST PUSH1 0x0 PUSH1 0x20 DUP3 DUP5 SUB SLT ISZERO PUSH2 0x1114 JUMPI PUSH1 0x0 DUP1 REVERT JUMPDEST POP MLOAD SWAP2 SWAP1 POP JUMP JUMPDEST PUSH1 0x0 PUSH1 0x20 DUP3 DUP5 SUB SLT ISZERO PUSH2 0x112D JUMPI PUSH1 0x0 DUP1 REVERT JUMPDEST DUP2 MLOAD PUSH2 0xD18 DUP2 PUSH2 0x10A9 JUMP JUMPDEST PUSH1 0x0 DUP2 PUSH1 0x0 NOT DIV DUP4 GT DUP3 ISZERO ISZERO AND ISZERO PUSH2 0x1152 JUMPI PUSH2 0x1152 PUSH2 0x10D4 JUMP JUMPDEST POP MUL SWAP1 JUMP JUMPDEST PUSH4 0x4E487B71 PUSH1 0xE0 SHL PUSH1 0x0 MSTORE PUSH1 0x41 PUSH1 0x4 MSTORE PUSH1 0x24 PUSH1 0x0 REVERT JUMPDEST PUSH4 0x4E487B71 PUSH1 0xE0 SHL PUSH1 0x0 MSTORE PUSH1 0x32 PUSH1 0x4 MSTORE PUSH1 0x24 PUSH1 0x0 REVERT JUMPDEST PUSH1 0x0 DUP2 PUSH2 0x1192 JUMPI PUSH2 0x1192 PUSH2 0x10D4 JUMP JUMPDEST POP PUSH1 0x0 NOT ADD SWAP1 JUMP JUMPDEST PUSH1 0x0 JUMPDEST DUP4 DUP2 LT ISZERO PUSH2 0x11B5 JUMPI DUP2 DUP2 ADD MLOAD DUP4 DUP3 ADD MSTORE PUSH1 0x20 ADD PUSH2 0x119D JUMP JUMPDEST DUP4 DUP2 GT ISZERO PUSH2 0x11C4 JUMPI PUSH1 0x0 DUP5 DUP5 ADD MSTORE JUMPDEST POP POP POP POP JUMP JUMPDEST PUSH32 0x416363657373436F6E74726F6C3A206163636F756E7420000000000000000000 DUP2 MSTORE PUSH1 0x0 DUP4 MLOAD PUSH2 0x1202 DUP2 PUSH1 0x17 DUP6 ADD PUSH1 0x20 DUP9 ADD PUSH2 0x119A JUMP JUMPDEST PUSH17 0x1034B99036B4B9B9B4B733903937B6329 PUSH1 0x7D SHL PUSH1 0x17 SWAP2 DUP5 ADD SWAP2 DUP3 ADD MSTORE DUP4 MLOAD PUSH2 0x1233 DUP2 PUSH1 0x28 DUP5 ADD PUSH1 0x20 DUP9 ADD PUSH2 0x119A JUMP JUMPDEST ADD PUSH1 0x28 ADD SWAP5 SWAP4 POP POP POP POP JUMP JUMPDEST PUSH1 0x20 DUP2 MSTORE PUSH1 0x0 DUP3 MLOAD DUP1 PUSH1 0x20 DUP5 ADD MSTORE PUSH2 0x125E DUP2 PUSH1 0x40 DUP6 ADD PUSH1 0x20 DUP8 ADD PUSH2 0x119A JUMP JUMPDEST PUSH1 0x1F ADD PUSH1 0x1F NOT AND SWAP2 SWAP1 SWAP2 ADD PUSH1 0x40 ADD SWAP3 SWAP2 POP POP JUMP JUMPDEST PUSH1 0x0 PUSH1 0x1 DUP3 ADD PUSH2 0x1284 JUMPI PUSH2 0x1284 PUSH2 0x10D4 JUMP JUMPDEST POP PUSH1 0x1 ADD SWAP1 JUMP INVALID LOG2 PUSH5 0x6970667358 0x22 SLT KECCAK256 0xF 0xE4 ADDRESS 0xC6 PUSH28 0xE06C6D03B23ED205BF00FDB3863F58F9D917BD5AEAA7FC645BC4B064 PUSH20 0x6F6C634300080F00330000000000000000000000 "
				},
				"gasEstimates": {
					"creation": {
						"codeDepositCost": "960200",
						"executionCost": "infinite",
						"totalCost": "infinite"
					},
					"external": {
						"DEFAULT_ADMIN_ROLE()": "239",
						"changeNagaKidsContract(address)": "infinite",
						"changePublicOpen(bool)": "infinite",
						"changeWhitelistMintOpen(bool)": "infinite",
						"getMaxSupply()": "infinite",
						"getRoleAdmin(bytes32)": "2540",
						"getTotalSupply()": "infinite",
						"grantRole(bytes32,address)": "infinite",
						"hasRole(bytes32,address)": "2742",
						"isPause()": "infinite",
						"isPublicOpen()": "2362",
						"isWhitelistMinted(address)": "2555",
						"isWhitelistMintedAmount(address)": "2599",
						"isWhitelistOpen()": "2338",
						"merkleRoot()": "2340",
						"nagaKidsContract()": "2449",
						"renounceRole(bytes32,address)": "29089",
						"revokeRole(bytes32,address)": "infinite",
						"setMerkleRoot(bytes32)": "infinite",
						"supportsInterface(bytes4)": "450",
						"whitelistMint(bytes32[],uint256)": "infinite"
					}
				},
				"methodIdentifiers": {
					"DEFAULT_ADMIN_ROLE()": "a217fddf",
					"changeNagaKidsContract(address)": "61aec205",
					"changePublicOpen(bool)": "91e5b0a2",
					"changeWhitelistMintOpen(bool)": "dd31a7ba",
					"getMaxSupply()": "4c0f38c2",
					"getRoleAdmin(bytes32)": "248a9ca3",
					"getTotalSupply()": "c4e41b22",
					"grantRole(bytes32,address)": "2f2ff15d",
					"hasRole(bytes32,address)": "91d14854",
					"isPause()": "ff0938a7",
					"isPublicOpen()": "11c67efc",
					"isWhitelistMinted(address)": "5997bbee",
					"isWhitelistMintedAmount(address)": "1b0d2d3b",
					"isWhitelistOpen()": "94f4504d",
					"merkleRoot()": "2eb4a7ab",
					"nagaKidsContract()": "27c25c20",
					"renounceRole(bytes32,address)": "36568abe",
					"revokeRole(bytes32,address)": "d547741f",
					"setMerkleRoot(bytes32)": "7cb64759",
					"supportsInterface(bytes4)": "01ffc9a7",
					"whitelistMint(bytes32[],uint256)": "2904e6d9"
				}
			},
			"storageLayout": {
				"storage": [
					{
						"astId": 1248,
						"contract": "MintNagaKids.sol:MintNagaKids",
						"label": "merkleRoot",
						"offset": 0,
						"slot": "0",
						"type": "t_bytes32"
					},
					{
						"astId": 24,
						"contract": "MintNagaKids.sol:MintNagaKids",
						"label": "_roles",
						"offset": 0,
						"slot": "1",
						"type": "t_mapping(t_bytes32,t_struct(RoleData)19_storage)"
					},
					{
						"astId": 403,
						"contract": "MintNagaKids.sol:MintNagaKids",
						"label": "_status",
						"offset": 0,
						"slot": "2",
						"type": "t_uint256"
					},
					{
						"astId": 973,
						"contract": "MintNagaKids.sol:MintNagaKids",
						"label": "nagaKidsContract",
						"offset": 0,
						"slot": "3",
						"type": "t_contract(INagaKidsNFT)958"
					},
					{
						"astId": 975,
						"contract": "MintNagaKids.sol:MintNagaKids",
						"label": "isPublicOpen",
						"offset": 20,
						"slot": "3",
						"type": "t_bool"
					},
					{
						"astId": 977,
						"contract": "MintNagaKids.sol:MintNagaKids",
						"label": "isWhitelistOpen",
						"offset": 21,
						"slot": "3",
						"type": "t_bool"
					},
					{
						"astId": 981,
						"contract": "MintNagaKids.sol:MintNagaKids",
						"label": "_isWhitelistMinted",
						"offset": 0,
						"slot": "4",
						"type": "t_mapping(t_address,t_bool)"
					},
					{
						"astId": 985,
						"contract": "MintNagaKids.sol:MintNagaKids",
						"label": "_isWhitelistMintedAmount",
						"offset": 0,
						"slot": "5",
						"type": "t_mapping(t_address,t_uint256)"
					},
					{
						"astId": 989,
						"contract": "MintNagaKids.sol:MintNagaKids",
						"label": "_isPublicMinted",
						"offset": 0,
						"slot": "6",
						"type": "t_mapping(t_address,t_bool)"
					},
					{
						"astId": 993,
						"contract": "MintNagaKids.sol:MintNagaKids",
						"label": "_isPublicMintedAmount",
						"offset": 0,
						"slot": "7",
						"type": "t_mapping(t_address,t_uint256)"
					}
				],
				"types": {
					"t_address": {
						"encoding": "inplace",
						"label": "address",
						"numberOfBytes": "20"
					},
					"t_bool": {
						"encoding": "inplace",
						"label": "bool",
						"numberOfBytes": "1"
					},
					"t_bytes32": {
						"encoding": "inplace",
						"label": "bytes32",
						"numberOfBytes": "32"
					},
					"t_contract(INagaKidsNFT)958": {
						"encoding": "inplace",
						"label": "contract INagaKidsNFT",
						"numberOfBytes": "20"
					},
					"t_mapping(t_address,t_bool)": {
						"encoding": "mapping",
						"key": "t_address",
						"label": "mapping(address => bool)",
						"numberOfBytes": "32",
						"value": "t_bool"
					},
					"t_mapping(t_address,t_uint256)": {
						"encoding": "mapping",
						"key": "t_address",
						"label": "mapping(address => uint256)",
						"numberOfBytes": "32",
						"value": "t_uint256"
					},
					"t_mapping(t_bytes32,t_struct(RoleData)19_storage)": {
						"encoding": "mapping",
						"key": "t_bytes32",
						"label": "mapping(bytes32 => struct AccessControl.RoleData)",
						"numberOfBytes": "32",
						"value": "t_struct(RoleData)19_storage"
					},
					"t_struct(RoleData)19_storage": {
						"encoding": "inplace",
						"label": "struct AccessControl.RoleData",
						"members": [
							{
								"astId": 16,
								"contract": "MintNagaKids.sol:MintNagaKids",
								"label": "members",
								"offset": 0,
								"slot": "0",
								"type": "t_mapping(t_address,t_bool)"
							},
							{
								"astId": 18,
								"contract": "MintNagaKids.sol:MintNagaKids",
								"label": "adminRole",
								"offset": 0,
								"slot": "1",
								"type": "t_bytes32"
							}
						],
						"numberOfBytes": "64"
					},
					"t_uint256": {
						"encoding": "inplace",
						"label": "uint256",
						"numberOfBytes": "32"
					}
				}
			},
			"userdoc": {
				"kind": "user",
				"methods": {},
				"version": 1
			}
		}
	}
}