{
	"MintNagaKids.sol": {
		"MintNagaKids": {
			"abi": [
				{
					"inputs": [
						{
							"internalType": "contract INagaKidsNFT",
							"name": "_nagaKids",
							"type": "address"
						},
						{
							"internalType": "bytes32",
							"name": "_merkleRoot",
							"type": "bytes32"
						}
					],
					"stateMutability": "nonpayable",
					"type": "constructor"
				},
				{
					"anonymous": false,
					"inputs": [
						{
							"indexed": true,
							"internalType": "bytes32",
							"name": "role",
							"type": "bytes32"
						},
						{
							"indexed": true,
							"internalType": "bytes32",
							"name": "previousAdminRole",
							"type": "bytes32"
						},
						{
							"indexed": true,
							"internalType": "bytes32",
							"name": "newAdminRole",
							"type": "bytes32"
						}
					],
					"name": "RoleAdminChanged",
					"type": "event"
				},
				{
					"anonymous": false,
					"inputs": [
						{
							"indexed": true,
							"internalType": "bytes32",
							"name": "role",
							"type": "bytes32"
						},
						{
							"indexed": true,
							"internalType": "address",
							"name": "account",
							"type": "address"
						},
						{
							"indexed": true,
							"internalType": "address",
							"name": "sender",
							"type": "address"
						}
					],
					"name": "RoleGranted",
					"type": "event"
				},
				{
					"anonymous": false,
					"inputs": [
						{
							"indexed": true,
							"internalType": "bytes32",
							"name": "role",
							"type": "bytes32"
						},
						{
							"indexed": true,
							"internalType": "address",
							"name": "account",
							"type": "address"
						},
						{
							"indexed": true,
							"internalType": "address",
							"name": "sender",
							"type": "address"
						}
					],
					"name": "RoleRevoked",
					"type": "event"
				},
				{
					"inputs": [],
					"name": "DEFAULT_ADMIN_ROLE",
					"outputs": [
						{
							"internalType": "bytes32",
							"name": "",
							"type": "bytes32"
						}
					],
					"stateMutability": "view",
					"type": "function"
				},
				{
					"inputs": [
						{
							"internalType": "bool",
							"name": "_isOpen",
							"type": "bool"
						}
					],
					"name": "changeFreeMintOpen",
					"outputs": [],
					"stateMutability": "nonpayable",
					"type": "function"
				},
				{
					"inputs": [
						{
							"internalType": "contract INagaKidsNFT",
							"name": "_nagaKids",
							"type": "address"
						}
					],
					"name": "changeNagaKidsContract",
					"outputs": [],
					"stateMutability": "nonpayable",
					"type": "function"
				},
				{
					"inputs": [
						{
							"internalType": "bool",
							"name": "_isOpen",
							"type": "bool"
						}
					],
					"name": "changeWhitelistMintOpen",
					"outputs": [],
					"stateMutability": "nonpayable",
					"type": "function"
				},
				{
					"inputs": [],
					"name": "getMaxSupply",
					"outputs": [
						{
							"internalType": "uint256",
							"name": "",
							"type": "uint256"
						}
					],
					"stateMutability": "view",
					"type": "function"
				},
				{
					"inputs": [
						{
							"internalType": "bytes32",
							"name": "role",
							"type": "bytes32"
						}
					],
					"name": "getRoleAdmin",
					"outputs": [
						{
							"internalType": "bytes32",
							"name": "",
							"type": "bytes32"
						}
					],
					"stateMutability": "view",
					"type": "function"
				},
				{
					"inputs": [],
					"name": "getTotalSupply",
					"outputs": [
						{
							"internalType": "uint256",
							"name": "",
							"type": "uint256"
						}
					],
					"stateMutability": "view",
					"type": "function"
				},
				{
					"inputs": [
						{
							"internalType": "bytes32",
							"name": "role",
							"type": "bytes32"
						},
						{
							"internalType": "address",
							"name": "account",
							"type": "address"
						}
					],
					"name": "grantRole",
					"outputs": [],
					"stateMutability": "nonpayable",
					"type": "function"
				},
				{
					"inputs": [
						{
							"internalType": "bytes32",
							"name": "role",
							"type": "bytes32"
						},
						{
							"internalType": "address",
							"name": "account",
							"type": "address"
						}
					],
					"name": "hasRole",
					"outputs": [
						{
							"internalType": "bool",
							"name": "",
							"type": "bool"
						}
					],
					"stateMutability": "view",
					"type": "function"
				},
				{
					"inputs": [],
					"name": "isFreeMintOpen",
					"outputs": [
						{
							"internalType": "bool",
							"name": "",
							"type": "bool"
						}
					],
					"stateMutability": "view",
					"type": "function"
				},
				{
					"inputs": [],
					"name": "isPause",
					"outputs": [
						{
							"internalType": "bool",
							"name": "",
							"type": "bool"
						}
					],
					"stateMutability": "view",
					"type": "function"
				},
				{
					"inputs": [],
					"name": "isWhitelistOpen",
					"outputs": [
						{
							"internalType": "bool",
							"name": "",
							"type": "bool"
						}
					],
					"stateMutability": "view",
					"type": "function"
				},
				{
					"inputs": [],
					"name": "merkleRoot",
					"outputs": [
						{
							"internalType": "bytes32",
							"name": "",
							"type": "bytes32"
						}
					],
					"stateMutability": "view",
					"type": "function"
				},
				{
					"inputs": [],
					"name": "nagaKidsContract",
					"outputs": [
						{
							"internalType": "contract INagaKidsNFT",
							"name": "",
							"type": "address"
						}
					],
					"stateMutability": "view",
					"type": "function"
				},
				{
					"inputs": [
						{
							"internalType": "bytes32",
							"name": "role",
							"type": "bytes32"
						},
						{
							"internalType": "address",
							"name": "account",
							"type": "address"
						}
					],
					"name": "renounceRole",
					"outputs": [],
					"stateMutability": "nonpayable",
					"type": "function"
				},
				{
					"inputs": [
						{
							"internalType": "bytes32",
							"name": "role",
							"type": "bytes32"
						},
						{
							"internalType": "address",
							"name": "account",
							"type": "address"
						}
					],
					"name": "revokeRole",
					"outputs": [],
					"stateMutability": "nonpayable",
					"type": "function"
				},
				{
					"inputs": [
						{
							"internalType": "bytes32",
							"name": "_merkleRoot",
							"type": "bytes32"
						}
					],
					"name": "setMerkleRoot",
					"outputs": [],
					"stateMutability": "nonpayable",
					"type": "function"
				},
				{
					"inputs": [
						{
							"internalType": "bytes4",
							"name": "interfaceId",
							"type": "bytes4"
						}
					],
					"name": "supportsInterface",
					"outputs": [
						{
							"internalType": "bool",
							"name": "",
							"type": "bool"
						}
					],
					"stateMutability": "view",
					"type": "function"
				},
				{
					"inputs": [
						{
							"internalType": "bytes32[]",
							"name": "_proofMerkle",
							"type": "bytes32[]"
						},
						{
							"internalType": "uint256",
							"name": "_amount",
							"type": "uint256"
						}
					],
					"name": "whitelistMint",
					"outputs": [],
					"stateMutability": "payable",
					"type": "function"
				}
			],
			"devdoc": {
				"kind": "dev",
				"methods": {
					"getRoleAdmin(bytes32)": {
						"details": "Returns the admin role that controls `role`. See {grantRole} and {revokeRole}. To change a role's admin, use {_setRoleAdmin}."
					},
					"grantRole(bytes32,address)": {
						"details": "Grants `role` to `account`. If `account` had not been already granted `role`, emits a {RoleGranted} event. Requirements: - the caller must have ``role``'s admin role."
					},
					"hasRole(bytes32,address)": {
						"details": "Returns `true` if `account` has been granted `role`."
					},
					"renounceRole(bytes32,address)": {
						"details": "Revokes `role` from the calling account. Roles are often managed via {grantRole} and {revokeRole}: this function's purpose is to provide a mechanism for accounts to lose their privileges if they are compromised (such as when a trusted device is misplaced). If the calling account had been revoked `role`, emits a {RoleRevoked} event. Requirements: - the caller must be `account`."
					},
					"revokeRole(bytes32,address)": {
						"details": "Revokes `role` from `account`. If `account` had been granted `role`, emits a {RoleRevoked} event. Requirements: - the caller must have ``role``'s admin role."
					},
					"supportsInterface(bytes4)": {
						"details": "See {IERC165-supportsInterface}."
					}
				},
				"version": 1
			},
			"evm": {
				"assembly": "    /* \"MintNagaKids.sol\":244:2178  contract MintNagaKids is Whitelist, AccessControl, ReentrancyGuard {... */\n  mstore(0x40, 0x80)\n    /* \"MintNagaKids.sol\":432:634  constructor(INagaKidsNFT _nagaKids,bytes32 _merkleRoot) {... */\n  callvalue\n  dup1\n  iszero\n  tag_1\n  jumpi\n  0x00\n  dup1\n  revert\ntag_1:\n  pop\n  mload(0x40)\n  sub(codesize, bytecodeSize)\n  dup1\n  bytecodeSize\n  dup4\n  codecopy\n  dup2\n  add\n  0x40\n  dup2\n  swap1\n  mstore\n  tag_2\n  swap2\n  tag_3\n  jump\t// in\ntag_2:\n    /* \"@openzeppelin/contracts/security/ReentrancyGuard.sol\":1701:1702  1 */\n  0x01\n    /* \"@openzeppelin/contracts/security/ReentrancyGuard.sol\":1806:1813  _status */\n  0x02\n    /* \"@openzeppelin/contracts/security/ReentrancyGuard.sol\":1806:1828  _status = _NOT_ENTERED */\n  sstore\n    /* \"MintNagaKids.sol\":501:543  _grantRole(DEFAULT_ADMIN_ROLE, msg.sender) */\n  tag_8\n    /* \"@openzeppelin/contracts/access/AccessControl.sol\":2072:2076  0x00 */\n  0x00\n    /* \"MintNagaKids.sol\":532:542  msg.sender */\n  caller\n    /* \"MintNagaKids.sol\":501:511  _grantRole */\n  tag_9\n    /* \"MintNagaKids.sol\":501:543  _grantRole(DEFAULT_ADMIN_ROLE, msg.sender) */\n  jump\t// in\ntag_8:\n    /* \"MintNagaKids.sol\":554:587  changeNagaKidsContract(_nagaKids) */\n  tag_10\n    /* \"MintNagaKids.sol\":577:586  _nagaKids */\n  dup3\n    /* \"MintNagaKids.sol\":554:576  changeNagaKidsContract */\n  tag_11\n    /* \"MintNagaKids.sol\":554:587  changeNagaKidsContract(_nagaKids) */\n  jump\t// in\ntag_10:\n    /* \"MintNagaKids.sol\":598:624  setMerkleRoot(_merkleRoot) */\n  tag_12\n    /* \"MintNagaKids.sol\":612:623  _merkleRoot */\n  dup2\n    /* \"MintNagaKids.sol\":598:611  setMerkleRoot */\n  tag_13\n    /* \"MintNagaKids.sol\":598:624  setMerkleRoot(_merkleRoot) */\n  jump\t// in\ntag_12:\n    /* \"MintNagaKids.sol\":432:634  constructor(INagaKidsNFT _nagaKids,bytes32 _merkleRoot) {... */\n  pop\n  pop\n    /* \"MintNagaKids.sol\":244:2178  contract MintNagaKids is Whitelist, AccessControl, ReentrancyGuard {... */\n  jump(tag_74)\n    /* \"@openzeppelin/contracts/access/AccessControl.sol\":7244:7477  function _grantRole(bytes32 role, address account) internal virtual {... */\ntag_9:\n    /* \"@openzeppelin/contracts/access/AccessControl.sol\":2981:2985  bool */\n  0x00\n    /* \"@openzeppelin/contracts/access/AccessControl.sol\":3004:3016  _roles[role] */\n  dup3\n  dup2\n  mstore\n    /* \"@openzeppelin/contracts/access/AccessControl.sol\":3004:3010  _roles */\n  0x01\n    /* \"@openzeppelin/contracts/access/AccessControl.sol\":3004:3016  _roles[role] */\n  0x20\n  swap1\n  dup2\n  mstore\n  0x40\n  dup1\n  dup4\n  keccak256\n  sub(shl(0xa0, 0x01), 0x01)\n    /* \"@openzeppelin/contracts/access/AccessControl.sol\":3004:3033  _roles[role].members[account] */\n  dup6\n  and\n  dup5\n  mstore\n  swap1\n  swap2\n  mstore\n  swap1\n  keccak256\n  sload\n  0xff\n  and\n    /* \"@openzeppelin/contracts/access/AccessControl.sol\":7322:7471  if (!hasRole(role, account)) {... */\n  tag_18\n  jumpi\n    /* \"@openzeppelin/contracts/access/AccessControl.sol\":7365:7377  _roles[role] */\n  0x00\n  dup3\n  dup2\n  mstore\n    /* \"@openzeppelin/contracts/access/AccessControl.sol\":7397:7401  true */\n  0x01\n    /* \"@openzeppelin/contracts/access/AccessControl.sol\":7365:7377  _roles[role] */\n  0x20\n  dup2\n  dup2\n  mstore\n  0x40\n  dup1\n  dup5\n  keccak256\n  sub(shl(0xa0, 0x01), 0x01)\n    /* \"@openzeppelin/contracts/access/AccessControl.sol\":7365:7394  _roles[role].members[account] */\n  dup7\n  and\n  dup1\n  dup7\n  mstore\n  swap3\n  mstore\n  dup1\n  dup5\n  keccak256\n    /* \"@openzeppelin/contracts/access/AccessControl.sol\":7365:7401  _roles[role].members[account] = true */\n  dup1\n  sload\n  not(0xff)\n  and\n  swap1\n  swap4\n  or\n  swap1\n  swap3\n  sstore\n    /* \"@openzeppelin/contracts/access/AccessControl.sol\":7420:7460  RoleGranted(role, account, _msgSender()) */\n  swap1\n  mload\n    /* \"@openzeppelin/contracts/utils/Context.sol\":719:729  msg.sender */\n  caller\n  swap3\n    /* \"@openzeppelin/contracts/access/AccessControl.sol\":7365:7377  _roles[role] */\n  dup6\n  swap2\n    /* \"@openzeppelin/contracts/access/AccessControl.sol\":7420:7460  RoleGranted(role, account, _msgSender()) */\n  0x2f8788117e7eff1d82e926ec794901d17c78024a50270940304540a733656f0d\n  swap2\n    /* \"@openzeppelin/contracts/access/AccessControl.sol\":7365:7377  _roles[role] */\n  swap1\n    /* \"@openzeppelin/contracts/access/AccessControl.sol\":7420:7460  RoleGranted(role, account, _msgSender()) */\n  log4\n    /* \"@openzeppelin/contracts/access/AccessControl.sol\":7322:7471  if (!hasRole(role, account)) {... */\ntag_18:\n    /* \"@openzeppelin/contracts/access/AccessControl.sol\":7244:7477  function _grantRole(bytes32 role, address account) internal virtual {... */\n  pop\n  pop\n  jump\t// out\n    /* \"MintNagaKids.sol\":749:888  function changeNagaKidsContract(INagaKidsNFT _nagaKids) public onlyRole(DEFAULT_ADMIN_ROLE) {... */\ntag_11:\n    /* \"@openzeppelin/contracts/access/AccessControl.sol\":2072:2076  0x00 */\n  0x00\n    /* \"@openzeppelin/contracts/access/AccessControl.sol\":2505:2521  _checkRole(role) */\n  tag_22\n    /* \"@openzeppelin/contracts/access/AccessControl.sol\":2072:2076  0x00 */\n  dup2\n    /* \"@openzeppelin/contracts/access/AccessControl.sol\":2505:2515  _checkRole */\n  tag_23\n    /* \"@openzeppelin/contracts/access/AccessControl.sol\":2505:2521  _checkRole(role) */\n  jump\t// in\ntag_22:\n  pop\n    /* \"MintNagaKids.sol\":852:868  nagaKidsContract */\n  0x03\n    /* \"MintNagaKids.sol\":852:880  nagaKidsContract = _nagaKids */\n  dup1\n  sload\n  not(sub(shl(0xa0, 0x01), 0x01))\n  and\n  sub(shl(0xa0, 0x01), 0x01)\n  swap3\n  swap1\n  swap3\n  and\n  swap2\n  swap1\n  swap2\n  or\n  swap1\n  sstore\n    /* \"MintNagaKids.sol\":749:888  function changeNagaKidsContract(INagaKidsNFT _nagaKids) public onlyRole(DEFAULT_ADMIN_ROLE) {... */\n  jump\t// out\n    /* \"MintNagaKids.sol\":1164:1287  function setMerkleRoot(bytes32 _merkleRoot) public onlyRole(DEFAULT_ADMIN_ROLE) {... */\ntag_13:\n    /* \"@openzeppelin/contracts/access/AccessControl.sol\":2072:2076  0x00 */\n  0x00\n    /* \"@openzeppelin/contracts/access/AccessControl.sol\":2505:2521  _checkRole(role) */\n  tag_26\n    /* \"@openzeppelin/contracts/access/AccessControl.sol\":2072:2076  0x00 */\n  dup2\n    /* \"@openzeppelin/contracts/access/AccessControl.sol\":2505:2515  _checkRole */\n  tag_23\n    /* \"@openzeppelin/contracts/access/AccessControl.sol\":2505:2521  _checkRole(role) */\n  jump\t// in\ntag_26:\n  pop\n    /* \"MintNagaKids.sol\":1255:1265  merkleRoot */\n  0x00\n    /* \"MintNagaKids.sol\":1255:1279  merkleRoot = _merkleRoot */\n  sstore\n    /* \"MintNagaKids.sol\":1164:1287  function setMerkleRoot(bytes32 _merkleRoot) public onlyRole(DEFAULT_ADMIN_ROLE) {... */\n  jump\t// out\n    /* \"@openzeppelin/contracts/access/AccessControl.sol\":3334:3437  function _checkRole(bytes32 role) internal view virtual {... */\ntag_23:\n    /* \"@openzeppelin/contracts/access/AccessControl.sol\":3400:3430  _checkRole(role, _msgSender()) */\n  tag_31\n    /* \"@openzeppelin/contracts/access/AccessControl.sol\":3411:3415  role */\n  dup2\n    /* \"@openzeppelin/contracts/utils/Context.sol\":719:729  msg.sender */\n  caller\n    /* \"@openzeppelin/contracts/access/AccessControl.sol\":3400:3410  _checkRole */\n  tag_33\n    /* \"@openzeppelin/contracts/access/AccessControl.sol\":3400:3430  _checkRole(role, _msgSender()) */\n  jump\t// in\ntag_31:\n    /* \"@openzeppelin/contracts/access/AccessControl.sol\":3334:3437  function _checkRole(bytes32 role) internal view virtual {... */\n  pop\n  jump\t// out\n    /* \"@openzeppelin/contracts/access/AccessControl.sol\":3718:4210  function _checkRole(bytes32 role, address account) internal view virtual {... */\ntag_33:\n    /* \"@openzeppelin/contracts/access/AccessControl.sol\":2981:2985  bool */\n  0x00\n    /* \"@openzeppelin/contracts/access/AccessControl.sol\":3004:3016  _roles[role] */\n  dup3\n  dup2\n  mstore\n    /* \"@openzeppelin/contracts/access/AccessControl.sol\":3004:3010  _roles */\n  0x01\n    /* \"@openzeppelin/contracts/access/AccessControl.sol\":3004:3016  _roles[role] */\n  0x20\n  swap1\n  dup2\n  mstore\n  0x40\n  dup1\n  dup4\n  keccak256\n  sub(shl(0xa0, 0x01), 0x01)\n    /* \"@openzeppelin/contracts/access/AccessControl.sol\":3004:3033  _roles[role].members[account] */\n  dup6\n  and\n  dup5\n  mstore\n  swap1\n  swap2\n  mstore\n  swap1\n  keccak256\n  sload\n  0xff\n  and\n    /* \"@openzeppelin/contracts/access/AccessControl.sol\":3801:4204  if (!hasRole(role, account)) {... */\n  tag_18\n  jumpi\n    /* \"@openzeppelin/contracts/access/AccessControl.sol\":3989:4030  Strings.toHexString(uint160(account), 20) */\n  tag_37\n    /* \"@openzeppelin/contracts/access/AccessControl.sol\":4017:4024  account */\n  dup2\n  sub(shl(0xa0, 0x01), 0x01)\n    /* \"@openzeppelin/contracts/access/AccessControl.sol\":3989:4030  Strings.toHexString(uint160(account), 20) */\n  and\n    /* \"@openzeppelin/contracts/access/AccessControl.sol\":4027:4029  20 */\n  0x14\n    /* \"@openzeppelin/contracts/access/AccessControl.sol\":3989:4008  Strings.toHexString */\n  or(tag_0_112, shl(0x20, tag_38))\n    /* \"@openzeppelin/contracts/access/AccessControl.sol\":3989:4030  Strings.toHexString(uint160(account), 20) */\n  0x20\n  shr\n  jump\t// in\ntag_37:\n    /* \"@openzeppelin/contracts/access/AccessControl.sol\":4101:4139  Strings.toHexString(uint256(role), 32) */\n  tag_39\n    /* \"@openzeppelin/contracts/access/AccessControl.sol\":4129:4133  role */\n  dup4\n    /* \"@openzeppelin/contracts/access/AccessControl.sol\":4136:4138  32 */\n  0x20\n    /* \"@openzeppelin/contracts/access/AccessControl.sol\":4101:4120  Strings.toHexString */\n  tag_0_112\n  tag_38\n  dup3\n  shl\n  or\n    /* \"@openzeppelin/contracts/access/AccessControl.sol\":4101:4139  Strings.toHexString(uint256(role), 32) */\n  dup2\n  shr\n  jump\t// in\ntag_39:\n    /* \"@openzeppelin/contracts/access/AccessControl.sol\":3896:4161  abi.encodePacked(... */\n  add(0x20, mload(0x40))\n  tag_40\n  swap3\n  swap2\n  swap1\n  tag_41\n  jump\t// in\ntag_40:\n  0x40\n  dup1\n  mload\n  not(0x1f)\n  dup2\n  dup5\n  sub\n  add\n  dup2\n  mstore\n  swap1\n  dup3\n  swap1\n  mstore\n  shl(0xe5, 0x461bcd)\n    /* \"@openzeppelin/contracts/access/AccessControl.sol\":3844:4193  revert(... */\n  dup3\n  mstore\n  tag_42\n  swap2\n  0x04\n  add\n  tag_43\n  jump\t// in\ntag_42:\n  mload(0x40)\n  dup1\n  swap2\n  sub\n  swap1\n  revert\n    /* \"@openzeppelin/contracts/utils/Strings.sol\":1588:2029  function toHexString(uint256 value, uint256 length) internal pure returns (string memory) {... */\ntag_38:\n    /* \"@openzeppelin/contracts/utils/Strings.sol\":1663:1676  string memory */\n  0x60\n    /* \"@openzeppelin/contracts/utils/Strings.sol\":1688:1707  bytes memory buffer */\n  0x00\n    /* \"@openzeppelin/contracts/utils/Strings.sol\":1720:1730  2 * length */\n  tag_45\n    /* \"@openzeppelin/contracts/utils/Strings.sol\":1724:1730  length */\n  dup4\n    /* \"@openzeppelin/contracts/utils/Strings.sol\":1720:1721  2 */\n  0x02\n    /* \"@openzeppelin/contracts/utils/Strings.sol\":1720:1730  2 * length */\n  tag_46\n  jump\t// in\ntag_45:\n    /* \"@openzeppelin/contracts/utils/Strings.sol\":1720:1734  2 * length + 2 */\n  tag_47\n  swap1\n    /* \"@openzeppelin/contracts/utils/Strings.sol\":1733:1734  2 */\n  0x02\n    /* \"@openzeppelin/contracts/utils/Strings.sol\":1720:1734  2 * length + 2 */\n  tag_48\n  jump\t// in\ntag_47:\n  sub(shl(0x40, 0x01), 0x01)\n    /* \"@openzeppelin/contracts/utils/Strings.sol\":1710:1735  new bytes(2 * length + 2) */\n  dup2\n  gt\n  iszero\n  tag_50\n  jumpi\n  tag_50\n  tag_51\n  jump\t// in\ntag_50:\n  mload(0x40)\n  swap1\n  dup1\n  dup3\n  mstore\n  dup1\n  0x1f\n  add\n  not(0x1f)\n  and\n  0x20\n  add\n  dup3\n  add\n  0x40\n  mstore\n  dup1\n  iszero\n  tag_52\n  jumpi\n  0x20\n  dup3\n  add\n  dup2\n  dup1\n  calldatasize\n  dup4\n  calldatacopy\n  add\n  swap1\n  pop\ntag_52:\n  pop\n    /* \"@openzeppelin/contracts/utils/Strings.sol\":1688:1735  bytes memory buffer = new bytes(2 * length + 2) */\n  swap1\n  pop\n  shl(0xfc, 0x03)\n    /* \"@openzeppelin/contracts/utils/Strings.sol\":1745:1751  buffer */\n  dup2\n    /* \"@openzeppelin/contracts/utils/Strings.sol\":1752:1753  0 */\n  0x00\n    /* \"@openzeppelin/contracts/utils/Strings.sol\":1745:1754  buffer[0] */\n  dup2\n  mload\n  dup2\n  lt\n  tag_54\n  jumpi\n  tag_54\n  tag_55\n  jump\t// in\ntag_54:\n  0x20\n  add\n  add\n    /* \"@openzeppelin/contracts/utils/Strings.sol\":1745:1760  buffer[0] = \"0\" */\n  swap1\n  not(sub(shl(0xf8, 0x01), 0x01))\n  and\n  swap1\n  dup2\n  0x00\n  byte\n  swap1\n  mstore8\n  pop\n  shl(0xfb, 0x0f)\n    /* \"@openzeppelin/contracts/utils/Strings.sol\":1770:1776  buffer */\n  dup2\n    /* \"@openzeppelin/contracts/utils/Strings.sol\":1777:1778  1 */\n  0x01\n    /* \"@openzeppelin/contracts/utils/Strings.sol\":1770:1779  buffer[1] */\n  dup2\n  mload\n  dup2\n  lt\n  tag_57\n  jumpi\n  tag_57\n  tag_55\n  jump\t// in\ntag_57:\n  0x20\n  add\n  add\n    /* \"@openzeppelin/contracts/utils/Strings.sol\":1770:1785  buffer[1] = \"x\" */\n  swap1\n  not(sub(shl(0xf8, 0x01), 0x01))\n  and\n  swap1\n  dup2\n  0x00\n  byte\n  swap1\n  mstore8\n  pop\n    /* \"@openzeppelin/contracts/utils/Strings.sol\":1800:1809  uint256 i */\n  0x00\n    /* \"@openzeppelin/contracts/utils/Strings.sol\":1812:1822  2 * length */\n  tag_61\n    /* \"@openzeppelin/contracts/utils/Strings.sol\":1816:1822  length */\n  dup5\n    /* \"@openzeppelin/contracts/utils/Strings.sol\":1812:1813  2 */\n  0x02\n    /* \"@openzeppelin/contracts/utils/Strings.sol\":1812:1822  2 * length */\n  tag_46\n  jump\t// in\ntag_61:\n    /* \"@openzeppelin/contracts/utils/Strings.sol\":1812:1826  2 * length + 1 */\n  tag_62\n  swap1\n    /* \"@openzeppelin/contracts/utils/Strings.sol\":1825:1826  1 */\n  0x01\n    /* \"@openzeppelin/contracts/utils/Strings.sol\":1812:1826  2 * length + 1 */\n  tag_48\n  jump\t// in\ntag_62:\n    /* \"@openzeppelin/contracts/utils/Strings.sol\":1800:1826  uint256 i = 2 * length + 1 */\n  swap1\n  pop\n    /* \"@openzeppelin/contracts/utils/Strings.sol\":1795:1927  for (uint256 i = 2 * length + 1; i > 1; --i) {... */\ntag_58:\n    /* \"@openzeppelin/contracts/utils/Strings.sol\":1832:1833  1 */\n  0x01\n    /* \"@openzeppelin/contracts/utils/Strings.sol\":1828:1829  i */\n  dup2\n    /* \"@openzeppelin/contracts/utils/Strings.sol\":1828:1833  i > 1 */\n  gt\n    /* \"@openzeppelin/contracts/utils/Strings.sol\":1795:1927  for (uint256 i = 2 * length + 1; i > 1; --i) {... */\n  iszero\n  tag_59\n  jumpi\n  shl(0x81, 0x181899199a1a9b1b9c1cb0b131b232b3)\n    /* \"@openzeppelin/contracts/utils/Strings.sol\":1879:1884  value */\n  dup6\n    /* \"@openzeppelin/contracts/utils/Strings.sol\":1887:1890  0xf */\n  0x0f\n    /* \"@openzeppelin/contracts/utils/Strings.sol\":1879:1890  value & 0xf */\n  and\n    /* \"@openzeppelin/contracts/utils/Strings.sol\":1866:1891  _HEX_SYMBOLS[value & 0xf] */\n  0x10\n  dup2\n  lt\n  tag_64\n  jumpi\n  tag_64\n  tag_55\n  jump\t// in\ntag_64:\n  byte\n  0xf8\n  shl\n    /* \"@openzeppelin/contracts/utils/Strings.sol\":1854:1860  buffer */\n  dup3\n    /* \"@openzeppelin/contracts/utils/Strings.sol\":1861:1862  i */\n  dup3\n    /* \"@openzeppelin/contracts/utils/Strings.sol\":1854:1863  buffer[i] */\n  dup2\n  mload\n  dup2\n  lt\n  tag_66\n  jumpi\n  tag_66\n  tag_55\n  jump\t// in\ntag_66:\n  0x20\n  add\n  add\n    /* \"@openzeppelin/contracts/utils/Strings.sol\":1854:1891  buffer[i] = _HEX_SYMBOLS[value & 0xf] */\n  swap1\n  not(sub(shl(0xf8, 0x01), 0x01))\n  and\n  swap1\n  dup2\n  0x00\n  byte\n  swap1\n  mstore8\n  pop\n    /* \"@openzeppelin/contracts/utils/Strings.sol\":1915:1916  4 */\n  0x04\n    /* \"@openzeppelin/contracts/utils/Strings.sol\":1905:1916  value >>= 4 */\n  swap5\n  swap1\n  swap5\n  shr\n  swap4\n    /* \"@openzeppelin/contracts/utils/Strings.sol\":1835:1838  --i */\n  tag_67\n  dup2\n  tag_68\n  jump\t// in\ntag_67:\n  swap1\n  pop\n    /* \"@openzeppelin/contracts/utils/Strings.sol\":1795:1927  for (uint256 i = 2 * length + 1; i > 1; --i) {... */\n  jump(tag_58)\ntag_59:\n  pop\n    /* \"@openzeppelin/contracts/utils/Strings.sol\":1944:1954  value == 0 */\n  dup4\n  iszero\n    /* \"@openzeppelin/contracts/utils/Strings.sol\":1936:1991  require(value == 0, \"Strings: hex length insufficient\") */\n  tag_69\n  jumpi\n  mload(0x40)\n  shl(0xe5, 0x461bcd)\n  dup2\n  mstore\n    /* \"#utility.yul\":2877:2879   */\n  0x20\n    /* \"@openzeppelin/contracts/utils/Strings.sol\":1936:1991  require(value == 0, \"Strings: hex length insufficient\") */\n  0x04\n  dup3\n  add\n    /* \"#utility.yul\":2859:2880   */\n  dup2\n  swap1\n  mstore\n    /* \"#utility.yul\":2896:2914   */\n  0x24\n  dup3\n  add\n    /* \"#utility.yul\":2889:2919   */\n  mstore\n    /* \"#utility.yul\":2955:2989   */\n  0x537472696e67733a20686578206c656e67746820696e73756666696369656e74\n    /* \"#utility.yul\":2935:2953   */\n  0x44\n  dup3\n  add\n    /* \"#utility.yul\":2928:2990   */\n  mstore\n    /* \"#utility.yul\":3007:3025   */\n  0x64\n  add\n    /* \"@openzeppelin/contracts/utils/Strings.sol\":1936:1991  require(value == 0, \"Strings: hex length insufficient\") */\n  tag_42\n    /* \"#utility.yul\":2675:3031   */\n  jump\n    /* \"@openzeppelin/contracts/utils/Strings.sol\":1936:1991  require(value == 0, \"Strings: hex length insufficient\") */\ntag_69:\n    /* \"@openzeppelin/contracts/utils/Strings.sol\":2015:2021  buffer */\n  swap4\n    /* \"@openzeppelin/contracts/utils/Strings.sol\":1588:2029  function toHexString(uint256 value, uint256 length) internal pure returns (string memory) {... */\n  swap3\n  pop\n  pop\n  pop\n  jump\t// out\n    /* \"#utility.yul\":14:385   */\ntag_3:\n    /* \"#utility.yul\":113:119   */\n  0x00\n    /* \"#utility.yul\":121:127   */\n  dup1\n    /* \"#utility.yul\":174:176   */\n  0x40\n    /* \"#utility.yul\":162:171   */\n  dup4\n    /* \"#utility.yul\":153:160   */\n  dup6\n    /* \"#utility.yul\":149:172   */\n  sub\n    /* \"#utility.yul\":145:177   */\n  slt\n    /* \"#utility.yul\":142:194   */\n  iszero\n  tag_76\n  jumpi\n    /* \"#utility.yul\":190:191   */\n  0x00\n    /* \"#utility.yul\":187:188   */\n  dup1\n    /* \"#utility.yul\":180:192   */\n  revert\n    /* \"#utility.yul\":142:194   */\ntag_76:\n    /* \"#utility.yul\":216:232   */\n  dup3\n  mload\n  sub(shl(0xa0, 0x01), 0x01)\n    /* \"#utility.yul\":261:292   */\n  dup2\n  and\n    /* \"#utility.yul\":251:293   */\n  dup2\n  eq\n    /* \"#utility.yul\":241:311   */\n  tag_77\n  jumpi\n    /* \"#utility.yul\":307:308   */\n  0x00\n    /* \"#utility.yul\":304:305   */\n  dup1\n    /* \"#utility.yul\":297:309   */\n  revert\n    /* \"#utility.yul\":241:311   */\ntag_77:\n    /* \"#utility.yul\":375:377   */\n  0x20\n    /* \"#utility.yul\":360:378   */\n  swap4\n  swap1\n  swap4\n  add\n    /* \"#utility.yul\":354:379   */\n  mload\n    /* \"#utility.yul\":330:335   */\n  swap3\n  swap5\n    /* \"#utility.yul\":354:379   */\n  swap3\n  swap4\n  pop\n  pop\n  pop\n    /* \"#utility.yul\":14:385   */\n  jump\t// out\n    /* \"#utility.yul\":390:648   */\ntag_72:\n    /* \"#utility.yul\":462:463   */\n  0x00\n    /* \"#utility.yul\":472:585   */\ntag_79:\n    /* \"#utility.yul\":486:492   */\n  dup4\n    /* \"#utility.yul\":483:484   */\n  dup2\n    /* \"#utility.yul\":480:493   */\n  lt\n    /* \"#utility.yul\":472:585   */\n  iszero\n  tag_81\n  jumpi\n    /* \"#utility.yul\":562:573   */\n  dup2\n  dup2\n  add\n    /* \"#utility.yul\":556:574   */\n  mload\n    /* \"#utility.yul\":543:554   */\n  dup4\n  dup3\n  add\n    /* \"#utility.yul\":536:575   */\n  mstore\n    /* \"#utility.yul\":508:510   */\n  0x20\n    /* \"#utility.yul\":501:511   */\n  add\n    /* \"#utility.yul\":472:585   */\n  jump(tag_79)\ntag_81:\n    /* \"#utility.yul\":603:609   */\n  dup4\n    /* \"#utility.yul\":600:601   */\n  dup2\n    /* \"#utility.yul\":597:610   */\n  gt\n    /* \"#utility.yul\":594:642   */\n  iszero\n  tag_82\n  jumpi\n    /* \"#utility.yul\":638:639   */\n  0x00\n    /* \"#utility.yul\":629:635   */\n  dup5\n    /* \"#utility.yul\":624:627   */\n  dup5\n    /* \"#utility.yul\":620:636   */\n  add\n    /* \"#utility.yul\":613:640   */\n  mstore\n    /* \"#utility.yul\":594:642   */\ntag_82:\n  pop\n    /* \"#utility.yul\":390:648   */\n  pop\n  pop\n  pop\n  jump\t// out\n    /* \"#utility.yul\":653:1439   */\ntag_41:\n    /* \"#utility.yul\":1064:1089   */\n  0x416363657373436f6e74726f6c3a206163636f756e7420000000000000000000\n    /* \"#utility.yul\":1059:1062   */\n  dup2\n    /* \"#utility.yul\":1052:1090   */\n  mstore\n    /* \"#utility.yul\":1034:1037   */\n  0x00\n    /* \"#utility.yul\":1119:1125   */\n  dup4\n    /* \"#utility.yul\":1113:1126   */\n  mload\n    /* \"#utility.yul\":1135:1197   */\n  tag_84\n    /* \"#utility.yul\":1190:1196   */\n  dup2\n    /* \"#utility.yul\":1185:1187   */\n  0x17\n    /* \"#utility.yul\":1180:1183   */\n  dup6\n    /* \"#utility.yul\":1176:1188   */\n  add\n    /* \"#utility.yul\":1169:1173   */\n  0x20\n    /* \"#utility.yul\":1161:1167   */\n  dup9\n    /* \"#utility.yul\":1157:1174   */\n  add\n    /* \"#utility.yul\":1135:1197   */\n  tag_72\n  jump\t// in\ntag_84:\n  shl(0x7d, 0x01034b99036b4b9b9b4b733903937b6329)\n    /* \"#utility.yul\":1256:1258   */\n  0x17\n    /* \"#utility.yul\":1216:1232   */\n  swap2\n  dup5\n  add\n    /* \"#utility.yul\":1248:1259   */\n  swap2\n  dup3\n  add\n    /* \"#utility.yul\":1241:1281   */\n  mstore\n    /* \"#utility.yul\":1306:1319   */\n  dup4\n  mload\n    /* \"#utility.yul\":1328:1391   */\n  tag_85\n    /* \"#utility.yul\":1306:1319   */\n  dup2\n    /* \"#utility.yul\":1377:1379   */\n  0x28\n    /* \"#utility.yul\":1369:1380   */\n  dup5\n  add\n    /* \"#utility.yul\":1362:1366   */\n  0x20\n    /* \"#utility.yul\":1350:1367   */\n  dup9\n  add\n    /* \"#utility.yul\":1328:1391   */\n  tag_72\n  jump\t// in\ntag_85:\n    /* \"#utility.yul\":1411:1428   */\n  add\n    /* \"#utility.yul\":1430:1432   */\n  0x28\n    /* \"#utility.yul\":1407:1433   */\n  add\n  swap5\n    /* \"#utility.yul\":653:1439   */\n  swap4\n  pop\n  pop\n  pop\n  pop\n  jump\t// out\n    /* \"#utility.yul\":1444:1827   */\ntag_43:\n    /* \"#utility.yul\":1593:1595   */\n  0x20\n    /* \"#utility.yul\":1582:1591   */\n  dup2\n    /* \"#utility.yul\":1575:1596   */\n  mstore\n    /* \"#utility.yul\":1556:1560   */\n  0x00\n    /* \"#utility.yul\":1625:1631   */\n  dup3\n    /* \"#utility.yul\":1619:1632   */\n  mload\n    /* \"#utility.yul\":1668:1674   */\n  dup1\n    /* \"#utility.yul\":1663:1665   */\n  0x20\n    /* \"#utility.yul\":1652:1661   */\n  dup5\n    /* \"#utility.yul\":1648:1666   */\n  add\n    /* \"#utility.yul\":1641:1675   */\n  mstore\n    /* \"#utility.yul\":1684:1750   */\n  tag_87\n    /* \"#utility.yul\":1743:1749   */\n  dup2\n    /* \"#utility.yul\":1738:1740   */\n  0x40\n    /* \"#utility.yul\":1727:1736   */\n  dup6\n    /* \"#utility.yul\":1723:1741   */\n  add\n    /* \"#utility.yul\":1718:1720   */\n  0x20\n    /* \"#utility.yul\":1710:1716   */\n  dup8\n    /* \"#utility.yul\":1706:1721   */\n  add\n    /* \"#utility.yul\":1684:1750   */\n  tag_72\n  jump\t// in\ntag_87:\n    /* \"#utility.yul\":1811:1813   */\n  0x1f\n    /* \"#utility.yul\":1790:1805   */\n  add\n  not(0x1f)\n    /* \"#utility.yul\":1786:1815   */\n  and\n    /* \"#utility.yul\":1771:1816   */\n  swap2\n  swap1\n  swap2\n  add\n    /* \"#utility.yul\":1818:1820   */\n  0x40\n    /* \"#utility.yul\":1767:1821   */\n  add\n  swap3\n    /* \"#utility.yul\":1444:1827   */\n  swap2\n  pop\n  pop\n  jump\t// out\n    /* \"#utility.yul\":1832:1959   */\ntag_73:\n    /* \"#utility.yul\":1893:1903   */\n  0x4e487b71\n    /* \"#utility.yul\":1888:1891   */\n  0xe0\n    /* \"#utility.yul\":1884:1904   */\n  shl\n    /* \"#utility.yul\":1881:1882   */\n  0x00\n    /* \"#utility.yul\":1874:1905   */\n  mstore\n    /* \"#utility.yul\":1924:1928   */\n  0x11\n    /* \"#utility.yul\":1921:1922   */\n  0x04\n    /* \"#utility.yul\":1914:1929   */\n  mstore\n    /* \"#utility.yul\":1948:1952   */\n  0x24\n    /* \"#utility.yul\":1945:1946   */\n  0x00\n    /* \"#utility.yul\":1938:1953   */\n  revert\n    /* \"#utility.yul\":1964:2132   */\ntag_46:\n    /* \"#utility.yul\":2004:2011   */\n  0x00\n    /* \"#utility.yul\":2070:2071   */\n  dup2\n    /* \"#utility.yul\":2066:2067   */\n  0x00\n    /* \"#utility.yul\":2062:2068   */\n  not\n    /* \"#utility.yul\":2058:2072   */\n  div\n    /* \"#utility.yul\":2055:2056   */\n  dup4\n    /* \"#utility.yul\":2052:2073   */\n  gt\n    /* \"#utility.yul\":2047:2048   */\n  dup3\n    /* \"#utility.yul\":2040:2049   */\n  iszero\n    /* \"#utility.yul\":2033:2050   */\n  iszero\n    /* \"#utility.yul\":2029:2074   */\n  and\n    /* \"#utility.yul\":2026:2097   */\n  iszero\n  tag_91\n  jumpi\n    /* \"#utility.yul\":2077:2095   */\n  tag_91\n  tag_73\n  jump\t// in\ntag_91:\n  pop\n    /* \"#utility.yul\":2117:2126   */\n  mul\n  swap1\n    /* \"#utility.yul\":1964:2132   */\n  jump\t// out\n    /* \"#utility.yul\":2137:2265   */\ntag_48:\n    /* \"#utility.yul\":2177:2180   */\n  0x00\n    /* \"#utility.yul\":2208:2209   */\n  dup3\n    /* \"#utility.yul\":2204:2210   */\n  not\n    /* \"#utility.yul\":2201:2202   */\n  dup3\n    /* \"#utility.yul\":2198:2211   */\n  gt\n    /* \"#utility.yul\":2195:2234   */\n  iszero\n  tag_94\n  jumpi\n    /* \"#utility.yul\":2214:2232   */\n  tag_94\n  tag_73\n  jump\t// in\ntag_94:\n  pop\n    /* \"#utility.yul\":2250:2259   */\n  add\n  swap1\n    /* \"#utility.yul\":2137:2265   */\n  jump\t// out\n    /* \"#utility.yul\":2270:2397   */\ntag_51:\n    /* \"#utility.yul\":2331:2341   */\n  0x4e487b71\n    /* \"#utility.yul\":2326:2329   */\n  0xe0\n    /* \"#utility.yul\":2322:2342   */\n  shl\n    /* \"#utility.yul\":2319:2320   */\n  0x00\n    /* \"#utility.yul\":2312:2343   */\n  mstore\n    /* \"#utility.yul\":2362:2366   */\n  0x41\n    /* \"#utility.yul\":2359:2360   */\n  0x04\n    /* \"#utility.yul\":2352:2367   */\n  mstore\n    /* \"#utility.yul\":2386:2390   */\n  0x24\n    /* \"#utility.yul\":2383:2384   */\n  0x00\n    /* \"#utility.yul\":2376:2391   */\n  revert\n    /* \"#utility.yul\":2402:2529   */\ntag_55:\n    /* \"#utility.yul\":2463:2473   */\n  0x4e487b71\n    /* \"#utility.yul\":2458:2461   */\n  0xe0\n    /* \"#utility.yul\":2454:2474   */\n  shl\n    /* \"#utility.yul\":2451:2452   */\n  0x00\n    /* \"#utility.yul\":2444:2475   */\n  mstore\n    /* \"#utility.yul\":2494:2498   */\n  0x32\n    /* \"#utility.yul\":2491:2492   */\n  0x04\n    /* \"#utility.yul\":2484:2499   */\n  mstore\n    /* \"#utility.yul\":2518:2522   */\n  0x24\n    /* \"#utility.yul\":2515:2516   */\n  0x00\n    /* \"#utility.yul\":2508:2523   */\n  revert\n    /* \"#utility.yul\":2534:2670   */\ntag_68:\n    /* \"#utility.yul\":2573:2576   */\n  0x00\n    /* \"#utility.yul\":2601:2606   */\n  dup2\n    /* \"#utility.yul\":2591:2630   */\n  tag_99\n  jumpi\n    /* \"#utility.yul\":2610:2628   */\n  tag_99\n  tag_73\n  jump\t// in\ntag_99:\n  pop\n  not(0x00)\n    /* \"#utility.yul\":2646:2664   */\n  add\n  swap1\n    /* \"#utility.yul\":2534:2670   */\n  jump\t// out\n    /* \"#utility.yul\":2675:3031   */\ntag_74:\n    /* \"MintNagaKids.sol\":244:2178  contract MintNagaKids is Whitelist, AccessControl, ReentrancyGuard {... */\n  dataSize(sub_0)\n  dup1\n  dataOffset(sub_0)\n  0x00\n  codecopy\n  0x00\n  return\nstop\n\nsub_0: assembly {\n        /* \"MintNagaKids.sol\":244:2178  contract MintNagaKids is Whitelist, AccessControl, ReentrancyGuard {... */\n      mstore(0x40, 0x80)\n      jumpi(tag_1, lt(calldatasize, 0x04))\n      shr(0xe0, calldataload(0x00))\n      dup1\n      0x61aec205\n      gt\n      tag_21\n      jumpi\n      dup1\n      0xa6f5f014\n      gt\n      tag_22\n      jumpi\n      dup1\n      0xa6f5f014\n      eq\n      tag_16\n      jumpi\n      dup1\n      0xc4e41b22\n      eq\n      tag_17\n      jumpi\n      dup1\n      0xd547741f\n      eq\n      tag_18\n      jumpi\n      dup1\n      0xdd31a7ba\n      eq\n      tag_19\n      jumpi\n      dup1\n      0xff0938a7\n      eq\n      tag_20\n      jumpi\n      0x00\n      dup1\n      revert\n    tag_22:\n      dup1\n      0x61aec205\n      eq\n      tag_11\n      jumpi\n      dup1\n      0x7cb64759\n      eq\n      tag_12\n      jumpi\n      dup1\n      0x91d14854\n      eq\n      tag_13\n      jumpi\n      dup1\n      0x94f4504d\n      eq\n      tag_14\n      jumpi\n      dup1\n      0xa217fddf\n      eq\n      tag_15\n      jumpi\n      0x00\n      dup1\n      revert\n    tag_21:\n      dup1\n      0x2904e6d9\n      gt\n      tag_23\n      jumpi\n      dup1\n      0x2904e6d9\n      eq\n      tag_6\n      jumpi\n      dup1\n      0x2eb4a7ab\n      eq\n      tag_7\n      jumpi\n      dup1\n      0x2f2ff15d\n      eq\n      tag_8\n      jumpi\n      dup1\n      0x36568abe\n      eq\n      tag_9\n      jumpi\n      dup1\n      0x4c0f38c2\n      eq\n      tag_10\n      jumpi\n      0x00\n      dup1\n      revert\n    tag_23:\n      dup1\n      0x01ffc9a7\n      eq\n      tag_2\n      jumpi\n      dup1\n      0x248a9ca3\n      eq\n      tag_3\n      jumpi\n      dup1\n      0x27c25c20\n      eq\n      tag_4\n      jumpi\n      dup1\n      0x28438f68\n      eq\n      tag_5\n      jumpi\n    tag_1:\n      0x00\n      dup1\n      revert\n        /* \"@openzeppelin/contracts/access/AccessControl.sol\":2606:2808  function supportsInterface(bytes4 interfaceId) public view virtual override returns (bool) {... */\n    tag_2:\n      callvalue\n      dup1\n      iszero\n      tag_24\n      jumpi\n      0x00\n      dup1\n      revert\n    tag_24:\n      pop\n      tag_25\n      tag_26\n      calldatasize\n      0x04\n      tag_27\n      jump\t// in\n    tag_26:\n      tag_28\n      jump\t// in\n    tag_25:\n      mload(0x40)\n        /* \"#utility.yul\":470:484   */\n      swap1\n      iszero\n        /* \"#utility.yul\":463:485   */\n      iszero\n        /* \"#utility.yul\":445:486   */\n      dup2\n      mstore\n        /* \"#utility.yul\":433:435   */\n      0x20\n        /* \"#utility.yul\":418:436   */\n      add\n        /* \"@openzeppelin/contracts/access/AccessControl.sol\":2606:2808  function supportsInterface(bytes4 interfaceId) public view virtual override returns (bool) {... */\n    tag_29:\n      mload(0x40)\n      dup1\n      swap2\n      sub\n      swap1\n      return\n        /* \"@openzeppelin/contracts/access/AccessControl.sol\":4391:4520  function getRoleAdmin(bytes32 role) public view virtual override returns (bytes32) {... */\n    tag_3:\n      callvalue\n      dup1\n      iszero\n      tag_31\n      jumpi\n      0x00\n      dup1\n      revert\n    tag_31:\n      pop\n      tag_32\n      tag_33\n      calldatasize\n      0x04\n      tag_34\n      jump\t// in\n    tag_33:\n        /* \"@openzeppelin/contracts/access/AccessControl.sol\":4465:4472  bytes32 */\n      0x00\n        /* \"@openzeppelin/contracts/access/AccessControl.sol\":4491:4503  _roles[role] */\n      swap1\n      dup2\n      mstore\n        /* \"@openzeppelin/contracts/access/AccessControl.sol\":4491:4497  _roles */\n      0x01\n        /* \"@openzeppelin/contracts/access/AccessControl.sol\":4491:4503  _roles[role] */\n      0x20\n      dup2\n      swap1\n      mstore\n      0x40\n      swap1\n      swap2\n      keccak256\n        /* \"@openzeppelin/contracts/access/AccessControl.sol\":4491:4513  _roles[role].adminRole */\n      add\n      sload\n      swap1\n        /* \"@openzeppelin/contracts/access/AccessControl.sol\":4391:4520  function getRoleAdmin(bytes32 role) public view virtual override returns (bytes32) {... */\n      jump\n    tag_32:\n      mload(0x40)\n        /* \"#utility.yul\":828:853   */\n      swap1\n      dup2\n      mstore\n        /* \"#utility.yul\":816:818   */\n      0x20\n        /* \"#utility.yul\":801:819   */\n      add\n        /* \"@openzeppelin/contracts/access/AccessControl.sol\":4391:4520  function getRoleAdmin(bytes32 role) public view virtual override returns (bytes32) {... */\n      tag_29\n        /* \"#utility.yul\":682:859   */\n      jump\n        /* \"MintNagaKids.sol\":320:356  INagaKidsNFT public nagaKidsContract */\n    tag_4:\n      callvalue\n      dup1\n      iszero\n      tag_38\n      jumpi\n      0x00\n      dup1\n      revert\n    tag_38:\n      pop\n      sload(0x03)\n      tag_39\n      swap1\n      sub(shl(0xa0, 0x01), 0x01)\n      and\n      dup2\n      jump\n    tag_39:\n      mload(0x40)\n      sub(shl(0xa0, 0x01), 0x01)\n        /* \"#utility.yul\":1048:1080   */\n      swap1\n      swap2\n      and\n        /* \"#utility.yul\":1030:1081   */\n      dup2\n      mstore\n        /* \"#utility.yul\":1018:1020   */\n      0x20\n        /* \"#utility.yul\":1003:1021   */\n      add\n        /* \"MintNagaKids.sol\":320:356  INagaKidsNFT public nagaKidsContract */\n      tag_29\n        /* \"#utility.yul\":864:1087   */\n      jump\n        /* \"MintNagaKids.sol\":1031:1152  function changeFreeMintOpen(bool _isOpen) public onlyRole(DEFAULT_ADMIN_ROLE) {... */\n    tag_5:\n      callvalue\n      dup1\n      iszero\n      tag_43\n      jumpi\n      0x00\n      dup1\n      revert\n    tag_43:\n      pop\n      tag_44\n      tag_45\n      calldatasize\n      0x04\n      tag_46\n      jump\t// in\n    tag_45:\n      tag_47\n      jump\t// in\n    tag_44:\n      stop\n        /* \"MintNagaKids.sol\":1295:1834  function whitelistMint(bytes32[] calldata _proofMerkle,uint256 _amount) public payable nonReentrant Paused {... */\n    tag_6:\n      tag_44\n      tag_49\n      calldatasize\n      0x04\n      tag_50\n      jump\t// in\n    tag_49:\n      tag_51\n      jump\t// in\n        /* \"Whitelist.sol\":161:186  bytes32 public merkleRoot */\n    tag_7:\n      callvalue\n      dup1\n      iszero\n      tag_52\n      jumpi\n      0x00\n      dup1\n      revert\n    tag_52:\n      pop\n      tag_32\n      sload(0x00)\n      dup2\n      jump\n        /* \"@openzeppelin/contracts/access/AccessControl.sol\":4770:4915  function grantRole(bytes32 role, address account) public virtual override onlyRole(getRoleAdmin(role)) {... */\n    tag_8:\n      callvalue\n      dup1\n      iszero\n      tag_56\n      jumpi\n      0x00\n      dup1\n      revert\n    tag_56:\n      pop\n      tag_44\n      tag_58\n      calldatasize\n      0x04\n      tag_59\n      jump\t// in\n    tag_58:\n      tag_60\n      jump\t// in\n        /* \"@openzeppelin/contracts/access/AccessControl.sol\":5787:6001  function renounceRole(bytes32 role, address account) public virtual override {... */\n    tag_9:\n      callvalue\n      dup1\n      iszero\n      tag_61\n      jumpi\n      0x00\n      dup1\n      revert\n    tag_61:\n      pop\n      tag_44\n      tag_63\n      calldatasize\n      0x04\n      tag_59\n      jump\t// in\n    tag_63:\n      tag_64\n      jump\t// in\n        /* \"MintNagaKids.sol\":1962:2070  function getMaxSupply() public view returns (uint256) {... */\n    tag_10:\n      callvalue\n      dup1\n      iszero\n      tag_65\n      jumpi\n      0x00\n      dup1\n      revert\n    tag_65:\n      pop\n      tag_32\n      tag_67\n      jump\t// in\n        /* \"MintNagaKids.sol\":749:888  function changeNagaKidsContract(INagaKidsNFT _nagaKids) public onlyRole(DEFAULT_ADMIN_ROLE) {... */\n    tag_11:\n      callvalue\n      dup1\n      iszero\n      tag_70\n      jumpi\n      0x00\n      dup1\n      revert\n    tag_70:\n      pop\n      tag_44\n      tag_72\n      calldatasize\n      0x04\n      tag_73\n      jump\t// in\n    tag_72:\n      tag_74\n      jump\t// in\n        /* \"MintNagaKids.sol\":1164:1287  function setMerkleRoot(bytes32 _merkleRoot) public onlyRole(DEFAULT_ADMIN_ROLE) {... */\n    tag_12:\n      callvalue\n      dup1\n      iszero\n      tag_75\n      jumpi\n      0x00\n      dup1\n      revert\n    tag_75:\n      pop\n      tag_44\n      tag_77\n      calldatasize\n      0x04\n      tag_34\n      jump\t// in\n    tag_77:\n      tag_78\n      jump\t// in\n        /* \"@openzeppelin/contracts/access/AccessControl.sol\":2895:3040  function hasRole(bytes32 role, address account) public view virtual override returns (bool) {... */\n    tag_13:\n      callvalue\n      dup1\n      iszero\n      tag_79\n      jumpi\n      0x00\n      dup1\n      revert\n    tag_79:\n      pop\n      tag_25\n      tag_81\n      calldatasize\n      0x04\n      tag_59\n      jump\t// in\n    tag_81:\n      tag_82\n      jump\t// in\n        /* \"MintNagaKids.sol\":396:423  bool public isWhitelistOpen */\n    tag_14:\n      callvalue\n      dup1\n      iszero\n      tag_84\n      jumpi\n      0x00\n      dup1\n      revert\n    tag_84:\n      pop\n      sload(0x03)\n      tag_25\n      swap1\n      shl(0xa8, 0x01)\n      swap1\n      div\n      0xff\n      and\n      dup2\n      jump\n        /* \"@openzeppelin/contracts/access/AccessControl.sol\":2027:2076  bytes32 public constant DEFAULT_ADMIN_ROLE = 0x00 */\n    tag_15:\n      callvalue\n      dup1\n      iszero\n      tag_88\n      jumpi\n      0x00\n      dup1\n      revert\n    tag_88:\n      pop\n      tag_32\n        /* \"@openzeppelin/contracts/access/AccessControl.sol\":2072:2076  0x00 */\n      0x00\n        /* \"@openzeppelin/contracts/access/AccessControl.sol\":2027:2076  bytes32 public constant DEFAULT_ADMIN_ROLE = 0x00 */\n      dup2\n      jump\n        /* \"MintNagaKids.sol\":363:389  bool public isFreeMintOpen */\n    tag_16:\n      callvalue\n      dup1\n      iszero\n      tag_92\n      jumpi\n      0x00\n      dup1\n      revert\n    tag_92:\n      pop\n      sload(0x03)\n      tag_25\n      swap1\n      shl(0xa0, 0x01)\n      swap1\n      div\n      0xff\n      and\n      dup2\n      jump\n        /* \"MintNagaKids.sol\":1842:1954  function getTotalSupply() public view returns (uint256) {... */\n    tag_17:\n      callvalue\n      dup1\n      iszero\n      tag_96\n      jumpi\n      0x00\n      dup1\n      revert\n    tag_96:\n      pop\n      tag_32\n      tag_98\n      jump\t// in\n        /* \"@openzeppelin/contracts/access/AccessControl.sol\":5149:5296  function revokeRole(bytes32 role, address account) public virtual override onlyRole(getRoleAdmin(role)) {... */\n    tag_18:\n      callvalue\n      dup1\n      iszero\n      tag_100\n      jumpi\n      0x00\n      dup1\n      revert\n    tag_100:\n      pop\n      tag_44\n      tag_102\n      calldatasize\n      0x04\n      tag_59\n      jump\t// in\n    tag_102:\n      tag_103\n      jump\t// in\n        /* \"MintNagaKids.sol\":896:1023  function changeWhitelistMintOpen(bool _isOpen) public onlyRole(DEFAULT_ADMIN_ROLE) {... */\n    tag_19:\n      callvalue\n      dup1\n      iszero\n      tag_104\n      jumpi\n      0x00\n      dup1\n      revert\n    tag_104:\n      pop\n      tag_44\n      tag_106\n      calldatasize\n      0x04\n      tag_46\n      jump\t// in\n    tag_106:\n      tag_107\n      jump\t// in\n        /* \"MintNagaKids.sol\":2078:2175  function isPause() public view returns (bool) {... */\n    tag_20:\n      callvalue\n      dup1\n      iszero\n      tag_108\n      jumpi\n      0x00\n      dup1\n      revert\n    tag_108:\n      pop\n      tag_25\n      tag_110\n      jump\t// in\n        /* \"@openzeppelin/contracts/access/AccessControl.sol\":2606:2808  function supportsInterface(bytes4 interfaceId) public view virtual override returns (bool) {... */\n    tag_28:\n        /* \"@openzeppelin/contracts/access/AccessControl.sol\":2691:2695  bool */\n      0x00\n      not(sub(shl(0xe0, 0x01), 0x01))\n        /* \"@openzeppelin/contracts/access/AccessControl.sol\":2714:2761  interfaceId == type(IAccessControl).interfaceId */\n      dup3\n      and\n      shl(0xe0, 0x7965db0b)\n      eq\n      dup1\n        /* \"@openzeppelin/contracts/access/AccessControl.sol\":2714:2801  interfaceId == type(IAccessControl).interfaceId || super.supportsInterface(interfaceId) */\n      tag_115\n      jumpi\n      pop\n      shl(0xe0, 0x01ffc9a7)\n      not(sub(shl(0xe0, 0x01), 0x01))\n        /* \"@openzeppelin/contracts/utils/introspection/ERC165.sol\":937:977  interfaceId == type(IERC165).interfaceId */\n      dup4\n      and\n      eq\n        /* \"@openzeppelin/contracts/access/AccessControl.sol\":2765:2801  super.supportsInterface(interfaceId) */\n    tag_115:\n        /* \"@openzeppelin/contracts/access/AccessControl.sol\":2707:2801  return interfaceId == type(IAccessControl).interfaceId || super.supportsInterface(interfaceId) */\n      swap3\n        /* \"@openzeppelin/contracts/access/AccessControl.sol\":2606:2808  function supportsInterface(bytes4 interfaceId) public view virtual override returns (bool) {... */\n      swap2\n      pop\n      pop\n      jump\t// out\n        /* \"MintNagaKids.sol\":1031:1152  function changeFreeMintOpen(bool _isOpen) public onlyRole(DEFAULT_ADMIN_ROLE) {... */\n    tag_47:\n        /* \"@openzeppelin/contracts/access/AccessControl.sol\":2072:2076  0x00 */\n      0x00\n        /* \"@openzeppelin/contracts/access/AccessControl.sol\":2505:2521  _checkRole(role) */\n      tag_119\n        /* \"@openzeppelin/contracts/access/AccessControl.sol\":2072:2076  0x00 */\n      dup2\n        /* \"@openzeppelin/contracts/access/AccessControl.sol\":2505:2515  _checkRole */\n      tag_120\n        /* \"@openzeppelin/contracts/access/AccessControl.sol\":2505:2521  _checkRole(role) */\n      jump\t// in\n    tag_119:\n      pop\n        /* \"MintNagaKids.sol\":1120:1134  isFreeMintOpen */\n      0x03\n        /* \"MintNagaKids.sol\":1120:1144  isFreeMintOpen = _isOpen */\n      dup1\n      sload\n      swap2\n      iszero\n      iszero\n      shl(0xa0, 0x01)\n      mul\n      not(shl(0xa0, 0xff))\n      swap1\n      swap3\n      and\n      swap2\n      swap1\n      swap2\n      or\n      swap1\n      sstore\n        /* \"MintNagaKids.sol\":1031:1152  function changeFreeMintOpen(bool _isOpen) public onlyRole(DEFAULT_ADMIN_ROLE) {... */\n      jump\t// out\n        /* \"MintNagaKids.sol\":1295:1834  function whitelistMint(bytes32[] calldata _proofMerkle,uint256 _amount) public payable nonReentrant Paused {... */\n    tag_51:\n        /* \"@openzeppelin/contracts/security/ReentrancyGuard.sol\":1744:1745  2 */\n      0x02\n        /* \"@openzeppelin/contracts/security/ReentrancyGuard.sol\":2325:2332  _status */\n      dup1\n      sload\n        /* \"@openzeppelin/contracts/security/ReentrancyGuard.sol\":2325:2344  _status != _ENTERED */\n      sub\n        /* \"@openzeppelin/contracts/security/ReentrancyGuard.sol\":2317:2380  require(_status != _ENTERED, \"ReentrancyGuard: reentrant call\") */\n      tag_123\n      jumpi\n      mload(0x40)\n      shl(0xe5, 0x461bcd)\n      dup2\n      mstore\n        /* \"#utility.yul\":3267:3269   */\n      0x20\n        /* \"@openzeppelin/contracts/security/ReentrancyGuard.sol\":2317:2380  require(_status != _ENTERED, \"ReentrancyGuard: reentrant call\") */\n      0x04\n      dup3\n      add\n        /* \"#utility.yul\":3249:3270   */\n      mstore\n        /* \"#utility.yul\":3306:3308   */\n      0x1f\n        /* \"#utility.yul\":3286:3304   */\n      0x24\n      dup3\n      add\n        /* \"#utility.yul\":3279:3309   */\n      mstore\n        /* \"#utility.yul\":3345:3378   */\n      0x5265656e7472616e637947756172643a207265656e7472616e742063616c6c00\n        /* \"#utility.yul\":3325:3343   */\n      0x44\n      dup3\n      add\n        /* \"#utility.yul\":3318:3379   */\n      mstore\n        /* \"#utility.yul\":3396:3414   */\n      0x64\n      add\n        /* \"@openzeppelin/contracts/security/ReentrancyGuard.sol\":2317:2380  require(_status != _ENTERED, \"ReentrancyGuard: reentrant call\") */\n    tag_124:\n      mload(0x40)\n      dup1\n      swap2\n      sub\n      swap1\n      revert\n    tag_123:\n        /* \"@openzeppelin/contracts/security/ReentrancyGuard.sol\":1744:1745  2 */\n      0x02\n        /* \"@openzeppelin/contracts/security/ReentrancyGuard.sol\":2455:2473  _status = _ENTERED */\n      dup1\n      sstore\n        /* \"MintNagaKids.sol\":679:688  isPause() */\n      tag_127\n        /* \"MintNagaKids.sol\":679:686  isPause */\n      tag_110\n        /* \"MintNagaKids.sol\":679:688  isPause() */\n      jump\t// in\n    tag_127:\n        /* \"MintNagaKids.sol\":679:697  isPause() == false */\n      iszero\n        /* \"MintNagaKids.sol\":671:721  require(isPause() == false,\"NagaKids was Paused.\") */\n      tag_128\n      jumpi\n      mload(0x40)\n      shl(0xe5, 0x461bcd)\n      dup2\n      mstore\n        /* \"#utility.yul\":3627:3629   */\n      0x20\n        /* \"MintNagaKids.sol\":671:721  require(isPause() == false,\"NagaKids was Paused.\") */\n      0x04\n      dup3\n      add\n        /* \"#utility.yul\":3609:3630   */\n      mstore\n        /* \"#utility.yul\":3666:3668   */\n      0x14\n        /* \"#utility.yul\":3646:3664   */\n      0x24\n      dup3\n      add\n        /* \"#utility.yul\":3639:3669   */\n      mstore\n      shl(0x61, 0x2730b3b0a5b4b239903bb0b9902830bab9b2b217)\n        /* \"#utility.yul\":3685:3703   */\n      0x44\n      dup3\n      add\n        /* \"#utility.yul\":3678:3728   */\n      mstore\n        /* \"#utility.yul\":3745:3763   */\n      0x64\n      add\n        /* \"MintNagaKids.sol\":671:721  require(isPause() == false,\"NagaKids was Paused.\") */\n      tag_124\n        /* \"#utility.yul\":3425:3769   */\n      jump\n        /* \"MintNagaKids.sol\":671:721  require(isPause() == false,\"NagaKids was Paused.\") */\n    tag_128:\n        /* \"MintNagaKids.sol\":1421:1436  isWhitelistOpen */\n      sload(0x03)\n      shl(0xa8, 0x01)\n      swap1\n      div\n      0xff\n      and\n        /* \"MintNagaKids.sol\":1421:1444  isWhitelistOpen == true */\n      iszero\n      iszero\n        /* \"MintNagaKids.sol\":1440:1444  true */\n      0x01\n        /* \"MintNagaKids.sol\":1421:1444  isWhitelistOpen == true */\n      eq\n        /* \"MintNagaKids.sol\":1413:1476  require(isWhitelistOpen == true, \"Whitelist not open to mint.\") */\n      tag_132\n      jumpi\n      mload(0x40)\n      shl(0xe5, 0x461bcd)\n      dup2\n      mstore\n        /* \"#utility.yul\":3976:3978   */\n      0x20\n        /* \"MintNagaKids.sol\":1413:1476  require(isWhitelistOpen == true, \"Whitelist not open to mint.\") */\n      0x04\n      dup3\n      add\n        /* \"#utility.yul\":3958:3979   */\n      mstore\n        /* \"#utility.yul\":4015:4017   */\n      0x1b\n        /* \"#utility.yul\":3995:4013   */\n      0x24\n      dup3\n      add\n        /* \"#utility.yul\":3988:4018   */\n      mstore\n        /* \"#utility.yul\":4054:4083   */\n      0x57686974656c697374206e6f74206f70656e20746f206d696e742e0000000000\n        /* \"#utility.yul\":4034:4052   */\n      0x44\n      dup3\n      add\n        /* \"#utility.yul\":4027:4084   */\n      mstore\n        /* \"#utility.yul\":4101:4119   */\n      0x64\n      add\n        /* \"MintNagaKids.sol\":1413:1476  require(isWhitelistOpen == true, \"Whitelist not open to mint.\") */\n      tag_124\n        /* \"#utility.yul\":3774:4125   */\n      jump\n        /* \"MintNagaKids.sol\":1413:1476  require(isWhitelistOpen == true, \"Whitelist not open to mint.\") */\n    tag_132:\n        /* \"MintNagaKids.sol\":1514:1518  1111 */\n      0x0457\n        /* \"MintNagaKids.sol\":1495:1511  getTotalSupply() */\n      tag_135\n        /* \"MintNagaKids.sol\":1495:1509  getTotalSupply */\n      tag_98\n        /* \"MintNagaKids.sol\":1495:1511  getTotalSupply() */\n      jump\t// in\n    tag_135:\n        /* \"MintNagaKids.sol\":1495:1518  getTotalSupply() < 1111 */\n      lt\n        /* \"MintNagaKids.sol\":1487:1534  require(getTotalSupply() < 1111, \"Over supply\") */\n      tag_136\n      jumpi\n      mload(0x40)\n      shl(0xe5, 0x461bcd)\n      dup2\n      mstore\n        /* \"#utility.yul\":4332:4334   */\n      0x20\n        /* \"MintNagaKids.sol\":1487:1534  require(getTotalSupply() < 1111, \"Over supply\") */\n      0x04\n      dup3\n      add\n        /* \"#utility.yul\":4314:4335   */\n      mstore\n        /* \"#utility.yul\":4371:4373   */\n      0x0b\n        /* \"#utility.yul\":4351:4369   */\n      0x24\n      dup3\n      add\n        /* \"#utility.yul\":4344:4374   */\n      mstore\n      shl(0xa8, 0x4f76657220737570706c79)\n        /* \"#utility.yul\":4390:4408   */\n      0x44\n      dup3\n      add\n        /* \"#utility.yul\":4383:4424   */\n      mstore\n        /* \"#utility.yul\":4441:4459   */\n      0x64\n      add\n        /* \"MintNagaKids.sol\":1487:1534  require(getTotalSupply() < 1111, \"Over supply\") */\n      tag_124\n        /* \"#utility.yul\":4130:4465   */\n      jump\n        /* \"MintNagaKids.sol\":1487:1534  require(getTotalSupply() < 1111, \"Over supply\") */\n    tag_136:\n        /* \"MintNagaKids.sol\":1553:1569  nagaKidsContract */\n      sload(0x03)\n        /* \"MintNagaKids.sol\":1578:1608  nagaKidsContract.MINTER_ROLE() */\n      0x40\n      dup1\n      mload\n      shl(0xe0, 0xd5391393)\n      dup2\n      mstore\n      swap1\n      mload\n      sub(shl(0xa0, 0x01), 0x01)\n        /* \"MintNagaKids.sol\":1553:1569  nagaKidsContract */\n      swap1\n      swap3\n      and\n      swap2\n        /* \"MintNagaKids.sol\":1553:1577  nagaKidsContract.hasRole */\n      0x91d14854\n      swap2\n        /* \"MintNagaKids.sol\":1553:1569  nagaKidsContract */\n      dup4\n      swap2\n        /* \"MintNagaKids.sol\":1578:1606  nagaKidsContract.MINTER_ROLE */\n      0xd5391393\n      swap2\n        /* \"MintNagaKids.sol\":1578:1608  nagaKidsContract.MINTER_ROLE() */\n      0x04\n      dup1\n      dup3\n      add\n      swap3\n      0x20\n      swap3\n      swap1\n      swap2\n      swap1\n      dup3\n      swap1\n      sub\n      add\n      dup2\n        /* \"MintNagaKids.sol\":1553:1569  nagaKidsContract */\n      dup7\n        /* \"MintNagaKids.sol\":1578:1608  nagaKidsContract.MINTER_ROLE() */\n      gas\n      staticcall\n      iszero\n      dup1\n      iszero\n      tag_140\n      jumpi\n      returndatasize\n      0x00\n      dup1\n      returndatacopy\n      revert(0x00, returndatasize)\n    tag_140:\n      pop\n      pop\n      pop\n      pop\n      mload(0x40)\n      returndatasize\n      not(0x1f)\n      0x1f\n      dup3\n      add\n      and\n      dup3\n      add\n      dup1\n      0x40\n      mstore\n      pop\n      dup2\n      add\n      swap1\n      tag_141\n      swap2\n      swap1\n      tag_142\n      jump\t// in\n    tag_141:\n        /* \"MintNagaKids.sol\":1553:1623  nagaKidsContract.hasRole(nagaKidsContract.MINTER_ROLE(),address(this)) */\n      mload(0x40)\n      not(sub(shl(0xe0, 0x01), 0x01))\n      0xe0\n      dup5\n      swap1\n      shl\n      and\n      dup2\n      mstore\n      0x04\n      dup2\n      add\n        /* \"#utility.yul\":4833:4858   */\n      swap2\n      swap1\n      swap2\n      mstore\n        /* \"MintNagaKids.sol\":1617:1621  this */\n      address\n        /* \"#utility.yul\":4874:4892   */\n      0x24\n      dup3\n      add\n        /* \"#utility.yul\":4867:4927   */\n      mstore\n        /* \"#utility.yul\":4806:4824   */\n      0x44\n      add\n        /* \"MintNagaKids.sol\":1553:1623  nagaKidsContract.hasRole(nagaKidsContract.MINTER_ROLE(),address(this)) */\n      0x20\n      mload(0x40)\n      dup1\n      dup4\n      sub\n      dup2\n      dup7\n      gas\n      staticcall\n      iszero\n      dup1\n      iszero\n      tag_146\n      jumpi\n      returndatasize\n      0x00\n      dup1\n      returndatacopy\n      revert(0x00, returndatasize)\n    tag_146:\n      pop\n      pop\n      pop\n      pop\n      mload(0x40)\n      returndatasize\n      not(0x1f)\n      0x1f\n      dup3\n      add\n      and\n      dup3\n      add\n      dup1\n      0x40\n      mstore\n      pop\n      dup2\n      add\n      swap1\n      tag_147\n      swap2\n      swap1\n      tag_148\n      jump\t// in\n    tag_147:\n        /* \"MintNagaKids.sol\":1553:1631  nagaKidsContract.hasRole(nagaKidsContract.MINTER_ROLE(),address(this)) == true */\n      iszero\n      iszero\n        /* \"MintNagaKids.sol\":1627:1631  true */\n      0x01\n        /* \"MintNagaKids.sol\":1553:1631  nagaKidsContract.hasRole(nagaKidsContract.MINTER_ROLE(),address(this)) == true */\n      eq\n        /* \"MintNagaKids.sol\":1545:1677  require(nagaKidsContract.hasRole(nagaKidsContract.MINTER_ROLE(),address(this)) == true,\"This Contract not have permission to mint.\") */\n      tag_149\n      jumpi\n      mload(0x40)\n      shl(0xe5, 0x461bcd)\n      dup2\n      mstore\n        /* \"#utility.yul\":5390:5392   */\n      0x20\n        /* \"MintNagaKids.sol\":1545:1677  require(nagaKidsContract.hasRole(nagaKidsContract.MINTER_ROLE(),address(this)) == true,\"This Contract not have permission to mint.\") */\n      0x04\n      dup3\n      add\n        /* \"#utility.yul\":5372:5393   */\n      mstore\n        /* \"#utility.yul\":5429:5431   */\n      0x2a\n        /* \"#utility.yul\":5409:5427   */\n      0x24\n      dup3\n      add\n        /* \"#utility.yul\":5402:5432   */\n      mstore\n        /* \"#utility.yul\":5468:5502   */\n      0x5468697320436f6e7472616374206e6f742068617665207065726d697373696f\n        /* \"#utility.yul\":5448:5466   */\n      0x44\n      dup3\n      add\n        /* \"#utility.yul\":5441:5503   */\n      mstore\n      shl(0xb1, 0x37103a379036b4b73a17)\n        /* \"#utility.yul\":5519:5537   */\n      0x64\n      dup3\n      add\n        /* \"#utility.yul\":5512:5552   */\n      mstore\n        /* \"#utility.yul\":5569:5588   */\n      0x84\n      add\n        /* \"MintNagaKids.sol\":1545:1677  require(nagaKidsContract.hasRole(nagaKidsContract.MINTER_ROLE(),address(this)) == true,\"This Contract not have permission to mint.\") */\n      tag_124\n        /* \"#utility.yul\":5188:5594   */\n      jump\n        /* \"MintNagaKids.sol\":1545:1677  require(nagaKidsContract.hasRole(nagaKidsContract.MINTER_ROLE(),address(this)) == true,\"This Contract not have permission to mint.\") */\n    tag_149:\n        /* \"MintNagaKids.sol\":1696:1740  isWhitelist(_proofMerkle,msg.sender,_amount) */\n      tag_152\n        /* \"MintNagaKids.sol\":1708:1720  _proofMerkle */\n      dup4\n      dup4\n        /* \"MintNagaKids.sol\":1721:1731  msg.sender */\n      caller\n        /* \"MintNagaKids.sol\":1732:1739  _amount */\n      dup5\n        /* \"MintNagaKids.sol\":1696:1707  isWhitelist */\n      tag_153\n        /* \"MintNagaKids.sol\":1696:1740  isWhitelist(_proofMerkle,msg.sender,_amount) */\n      jump\t// in\n    tag_152:\n        /* \"MintNagaKids.sol\":1688:1778  require(isWhitelist(_proofMerkle,msg.sender,_amount), \"Unauthorized Whitelist This User.\") */\n      tag_154\n      jumpi\n      mload(0x40)\n      shl(0xe5, 0x461bcd)\n      dup2\n      mstore\n        /* \"#utility.yul\":5801:5803   */\n      0x20\n        /* \"MintNagaKids.sol\":1688:1778  require(isWhitelist(_proofMerkle,msg.sender,_amount), \"Unauthorized Whitelist This User.\") */\n      0x04\n      dup3\n      add\n        /* \"#utility.yul\":5783:5804   */\n      mstore\n        /* \"#utility.yul\":5840:5842   */\n      0x21\n        /* \"#utility.yul\":5820:5838   */\n      0x24\n      dup3\n      add\n        /* \"#utility.yul\":5813:5843   */\n      mstore\n        /* \"#utility.yul\":5879:5913   */\n      0x556e617574686f72697a65642057686974656c69737420546869732055736572\n        /* \"#utility.yul\":5859:5877   */\n      0x44\n      dup3\n      add\n        /* \"#utility.yul\":5852:5914   */\n      mstore\n      shl(0xf9, 0x17)\n        /* \"#utility.yul\":5930:5948   */\n      0x64\n      dup3\n      add\n        /* \"#utility.yul\":5923:5954   */\n      mstore\n        /* \"#utility.yul\":5971:5990   */\n      0x84\n      add\n        /* \"MintNagaKids.sol\":1688:1778  require(isWhitelist(_proofMerkle,msg.sender,_amount), \"Unauthorized Whitelist This User.\") */\n      tag_124\n        /* \"#utility.yul\":5599:5996   */\n      jump\n        /* \"MintNagaKids.sol\":1688:1778  require(isWhitelist(_proofMerkle,msg.sender,_amount), \"Unauthorized Whitelist This User.\") */\n    tag_154:\n        /* \"MintNagaKids.sol\":1789:1805  nagaKidsContract */\n      sload(0x03)\n        /* \"MintNagaKids.sol\":1789:1826  nagaKidsContract.safeMint(msg.sender) */\n      mload(0x40)\n      shl(0xe0, 0x40d097c3)\n      dup2\n      mstore\n        /* \"MintNagaKids.sol\":1815:1825  msg.sender */\n      caller\n        /* \"MintNagaKids.sol\":1789:1826  nagaKidsContract.safeMint(msg.sender) */\n      0x04\n      dup3\n      add\n        /* \"#utility.yul\":1030:1081   */\n      mstore\n      sub(shl(0xa0, 0x01), 0x01)\n        /* \"MintNagaKids.sol\":1789:1805  nagaKidsContract */\n      swap1\n      swap2\n      and\n      swap1\n        /* \"MintNagaKids.sol\":1789:1814  nagaKidsContract.safeMint */\n      0x40d097c3\n      swap1\n        /* \"#utility.yul\":1003:1021   */\n      0x24\n      add\n        /* \"MintNagaKids.sol\":1789:1826  nagaKidsContract.safeMint(msg.sender) */\n      0x00\n      mload(0x40)\n      dup1\n      dup4\n      sub\n      dup2\n      0x00\n      dup8\n      dup1\n      extcodesize\n      iszero\n      dup1\n      iszero\n      tag_159\n      jumpi\n      0x00\n      dup1\n      revert\n    tag_159:\n      pop\n      gas\n      call\n      iszero\n      dup1\n      iszero\n      tag_161\n      jumpi\n      returndatasize\n      0x00\n      dup1\n      returndatacopy\n      revert(0x00, returndatasize)\n    tag_161:\n      pop\n      pop\n        /* \"@openzeppelin/contracts/security/ReentrancyGuard.sol\":1701:1702  1 */\n      0x01\n        /* \"@openzeppelin/contracts/security/ReentrancyGuard.sol\":2628:2635  _status */\n      0x02\n        /* \"@openzeppelin/contracts/security/ReentrancyGuard.sol\":2628:2650  _status = _NOT_ENTERED */\n      sstore\n      pop\n      pop\n      pop\n      pop\n      pop\n        /* \"MintNagaKids.sol\":1295:1834  function whitelistMint(bytes32[] calldata _proofMerkle,uint256 _amount) public payable nonReentrant Paused {... */\n      jump\t// out\n        /* \"@openzeppelin/contracts/access/AccessControl.sol\":4770:4915  function grantRole(bytes32 role, address account) public virtual override onlyRole(getRoleAdmin(role)) {... */\n    tag_60:\n        /* \"@openzeppelin/contracts/access/AccessControl.sol\":4465:4472  bytes32 */\n      0x00\n        /* \"@openzeppelin/contracts/access/AccessControl.sol\":4491:4503  _roles[role] */\n      dup3\n      dup2\n      mstore\n        /* \"@openzeppelin/contracts/access/AccessControl.sol\":4491:4497  _roles */\n      0x01\n        /* \"@openzeppelin/contracts/access/AccessControl.sol\":4491:4503  _roles[role] */\n      0x20\n      dup2\n      swap1\n      mstore\n      0x40\n      swap1\n      swap2\n      keccak256\n        /* \"@openzeppelin/contracts/access/AccessControl.sol\":4491:4513  _roles[role].adminRole */\n      add\n      sload\n        /* \"@openzeppelin/contracts/access/AccessControl.sol\":2505:2521  _checkRole(role) */\n      tag_164\n        /* \"@openzeppelin/contracts/access/AccessControl.sol\":2516:2520  role */\n      dup2\n        /* \"@openzeppelin/contracts/access/AccessControl.sol\":2505:2515  _checkRole */\n      tag_120\n        /* \"@openzeppelin/contracts/access/AccessControl.sol\":2505:2521  _checkRole(role) */\n      jump\t// in\n    tag_164:\n        /* \"@openzeppelin/contracts/access/AccessControl.sol\":4883:4908  _grantRole(role, account) */\n      tag_166\n        /* \"@openzeppelin/contracts/access/AccessControl.sol\":4894:4898  role */\n      dup4\n        /* \"@openzeppelin/contracts/access/AccessControl.sol\":4900:4907  account */\n      dup4\n        /* \"@openzeppelin/contracts/access/AccessControl.sol\":4883:4893  _grantRole */\n      tag_167\n        /* \"@openzeppelin/contracts/access/AccessControl.sol\":4883:4908  _grantRole(role, account) */\n      jump\t// in\n    tag_166:\n        /* \"@openzeppelin/contracts/access/AccessControl.sol\":4770:4915  function grantRole(bytes32 role, address account) public virtual override onlyRole(getRoleAdmin(role)) {... */\n      pop\n      pop\n      pop\n      jump\t// out\n        /* \"@openzeppelin/contracts/access/AccessControl.sol\":5787:6001  function renounceRole(bytes32 role, address account) public virtual override {... */\n    tag_64:\n      sub(shl(0xa0, 0x01), 0x01)\n        /* \"@openzeppelin/contracts/access/AccessControl.sol\":5882:5905  account == _msgSender() */\n      dup2\n      and\n        /* \"@openzeppelin/contracts/utils/Context.sol\":719:729  msg.sender */\n      caller\n        /* \"@openzeppelin/contracts/access/AccessControl.sol\":5882:5905  account == _msgSender() */\n      eq\n        /* \"@openzeppelin/contracts/access/AccessControl.sol\":5874:5957  require(account == _msgSender(), \"AccessControl: can only renounce roles for self\") */\n      tag_171\n      jumpi\n      mload(0x40)\n      shl(0xe5, 0x461bcd)\n      dup2\n      mstore\n        /* \"#utility.yul\":6411:6413   */\n      0x20\n        /* \"@openzeppelin/contracts/access/AccessControl.sol\":5874:5957  require(account == _msgSender(), \"AccessControl: can only renounce roles for self\") */\n      0x04\n      dup3\n      add\n        /* \"#utility.yul\":6393:6414   */\n      mstore\n        /* \"#utility.yul\":6450:6452   */\n      0x2f\n        /* \"#utility.yul\":6430:6448   */\n      0x24\n      dup3\n      add\n        /* \"#utility.yul\":6423:6453   */\n      mstore\n        /* \"#utility.yul\":6489:6523   */\n      0x416363657373436f6e74726f6c3a2063616e206f6e6c792072656e6f756e6365\n        /* \"#utility.yul\":6469:6487   */\n      0x44\n      dup3\n      add\n        /* \"#utility.yul\":6462:6524   */\n      mstore\n      shl(0x89, 0x103937b632b9903337b91039b2b633)\n        /* \"#utility.yul\":6540:6558   */\n      0x64\n      dup3\n      add\n        /* \"#utility.yul\":6533:6578   */\n      mstore\n        /* \"#utility.yul\":6595:6614   */\n      0x84\n      add\n        /* \"@openzeppelin/contracts/access/AccessControl.sol\":5874:5957  require(account == _msgSender(), \"AccessControl: can only renounce roles for self\") */\n      tag_124\n        /* \"#utility.yul\":6209:6620   */\n      jump\n        /* \"@openzeppelin/contracts/access/AccessControl.sol\":5874:5957  require(account == _msgSender(), \"AccessControl: can only renounce roles for self\") */\n    tag_171:\n        /* \"@openzeppelin/contracts/access/AccessControl.sol\":5968:5994  _revokeRole(role, account) */\n      tag_174\n        /* \"@openzeppelin/contracts/access/AccessControl.sol\":5980:5984  role */\n      dup3\n        /* \"@openzeppelin/contracts/access/AccessControl.sol\":5986:5993  account */\n      dup3\n        /* \"@openzeppelin/contracts/access/AccessControl.sol\":5968:5979  _revokeRole */\n      tag_175\n        /* \"@openzeppelin/contracts/access/AccessControl.sol\":5968:5994  _revokeRole(role, account) */\n      jump\t// in\n    tag_174:\n        /* \"@openzeppelin/contracts/access/AccessControl.sol\":5787:6001  function renounceRole(bytes32 role, address account) public virtual override {... */\n      pop\n      pop\n      jump\t// out\n        /* \"MintNagaKids.sol\":1962:2070  function getMaxSupply() public view returns (uint256) {... */\n    tag_67:\n        /* \"MintNagaKids.sol\":2034:2050  nagaKidsContract */\n      sload(0x03)\n        /* \"MintNagaKids.sol\":2034:2062  nagaKidsContract.maxSupply() */\n      0x40\n      dup1\n      mload\n      shl(0xe0, 0xd5abeb01)\n      dup2\n      mstore\n      swap1\n      mload\n        /* \"MintNagaKids.sol\":2007:2014  uint256 */\n      0x00\n      swap3\n      sub(shl(0xa0, 0x01), 0x01)\n        /* \"MintNagaKids.sol\":2034:2050  nagaKidsContract */\n      and\n      swap2\n        /* \"MintNagaKids.sol\":2034:2060  nagaKidsContract.maxSupply */\n      0xd5abeb01\n      swap2\n        /* \"MintNagaKids.sol\":2034:2062  nagaKidsContract.maxSupply() */\n      0x04\n      dup1\n      dup4\n      add\n      swap3\n      0x20\n      swap3\n      swap2\n      swap1\n      dup3\n      swap1\n      sub\n      add\n      dup2\n        /* \"MintNagaKids.sol\":2034:2050  nagaKidsContract */\n      dup7\n        /* \"MintNagaKids.sol\":2034:2062  nagaKidsContract.maxSupply() */\n      gas\n      staticcall\n      iszero\n      dup1\n      iszero\n      tag_178\n      jumpi\n      returndatasize\n      0x00\n      dup1\n      returndatacopy\n      revert(0x00, returndatasize)\n    tag_178:\n      pop\n      pop\n      pop\n      pop\n      mload(0x40)\n      returndatasize\n      not(0x1f)\n      0x1f\n      dup3\n      add\n      and\n      dup3\n      add\n      dup1\n      0x40\n      mstore\n      pop\n      dup2\n      add\n      swap1\n      tag_179\n      swap2\n      swap1\n      tag_142\n      jump\t// in\n    tag_179:\n        /* \"MintNagaKids.sol\":2027:2062  return nagaKidsContract.maxSupply() */\n      swap1\n      pop\n        /* \"MintNagaKids.sol\":1962:2070  function getMaxSupply() public view returns (uint256) {... */\n      swap1\n      jump\t// out\n        /* \"MintNagaKids.sol\":749:888  function changeNagaKidsContract(INagaKidsNFT _nagaKids) public onlyRole(DEFAULT_ADMIN_ROLE) {... */\n    tag_74:\n        /* \"@openzeppelin/contracts/access/AccessControl.sol\":2072:2076  0x00 */\n      0x00\n        /* \"@openzeppelin/contracts/access/AccessControl.sol\":2505:2521  _checkRole(role) */\n      tag_182\n        /* \"@openzeppelin/contracts/access/AccessControl.sol\":2072:2076  0x00 */\n      dup2\n        /* \"@openzeppelin/contracts/access/AccessControl.sol\":2505:2515  _checkRole */\n      tag_120\n        /* \"@openzeppelin/contracts/access/AccessControl.sol\":2505:2521  _checkRole(role) */\n      jump\t// in\n    tag_182:\n      pop\n        /* \"MintNagaKids.sol\":852:868  nagaKidsContract */\n      0x03\n        /* \"MintNagaKids.sol\":852:880  nagaKidsContract = _nagaKids */\n      dup1\n      sload\n      not(sub(shl(0xa0, 0x01), 0x01))\n      and\n      sub(shl(0xa0, 0x01), 0x01)\n      swap3\n      swap1\n      swap3\n      and\n      swap2\n      swap1\n      swap2\n      or\n      swap1\n      sstore\n        /* \"MintNagaKids.sol\":749:888  function changeNagaKidsContract(INagaKidsNFT _nagaKids) public onlyRole(DEFAULT_ADMIN_ROLE) {... */\n      jump\t// out\n        /* \"MintNagaKids.sol\":1164:1287  function setMerkleRoot(bytes32 _merkleRoot) public onlyRole(DEFAULT_ADMIN_ROLE) {... */\n    tag_78:\n        /* \"@openzeppelin/contracts/access/AccessControl.sol\":2072:2076  0x00 */\n      0x00\n        /* \"@openzeppelin/contracts/access/AccessControl.sol\":2505:2521  _checkRole(role) */\n      tag_185\n        /* \"@openzeppelin/contracts/access/AccessControl.sol\":2072:2076  0x00 */\n      dup2\n        /* \"@openzeppelin/contracts/access/AccessControl.sol\":2505:2515  _checkRole */\n      tag_120\n        /* \"@openzeppelin/contracts/access/AccessControl.sol\":2505:2521  _checkRole(role) */\n      jump\t// in\n    tag_185:\n      pop\n        /* \"MintNagaKids.sol\":1255:1265  merkleRoot */\n      0x00\n        /* \"MintNagaKids.sol\":1255:1279  merkleRoot = _merkleRoot */\n      sstore\n        /* \"MintNagaKids.sol\":1164:1287  function setMerkleRoot(bytes32 _merkleRoot) public onlyRole(DEFAULT_ADMIN_ROLE) {... */\n      jump\t// out\n        /* \"@openzeppelin/contracts/access/AccessControl.sol\":2895:3040  function hasRole(bytes32 role, address account) public view virtual override returns (bool) {... */\n    tag_82:\n        /* \"@openzeppelin/contracts/access/AccessControl.sol\":2981:2985  bool */\n      0x00\n        /* \"@openzeppelin/contracts/access/AccessControl.sol\":3004:3016  _roles[role] */\n      swap2\n      dup3\n      mstore\n        /* \"@openzeppelin/contracts/access/AccessControl.sol\":3004:3010  _roles */\n      0x01\n        /* \"@openzeppelin/contracts/access/AccessControl.sol\":3004:3016  _roles[role] */\n      0x20\n      swap1\n      dup2\n      mstore\n      0x40\n      dup1\n      dup5\n      keccak256\n      sub(shl(0xa0, 0x01), 0x01)\n        /* \"@openzeppelin/contracts/access/AccessControl.sol\":3004:3033  _roles[role].members[account] */\n      swap4\n      swap1\n      swap4\n      and\n      dup5\n      mstore\n      swap2\n      swap1\n      mstore\n      swap1\n      keccak256\n      sload\n      0xff\n      and\n      swap1\n        /* \"@openzeppelin/contracts/access/AccessControl.sol\":2895:3040  function hasRole(bytes32 role, address account) public view virtual override returns (bool) {... */\n      jump\t// out\n        /* \"MintNagaKids.sol\":1842:1954  function getTotalSupply() public view returns (uint256) {... */\n    tag_98:\n        /* \"MintNagaKids.sol\":1916:1932  nagaKidsContract */\n      sload(0x03)\n        /* \"MintNagaKids.sol\":1916:1946  nagaKidsContract.totalSupply() */\n      0x40\n      dup1\n      mload\n      shl(0xe0, 0x18160ddd)\n      dup2\n      mstore\n      swap1\n      mload\n        /* \"MintNagaKids.sol\":1889:1896  uint256 */\n      0x00\n      swap3\n      sub(shl(0xa0, 0x01), 0x01)\n        /* \"MintNagaKids.sol\":1916:1932  nagaKidsContract */\n      and\n      swap2\n        /* \"MintNagaKids.sol\":1916:1944  nagaKidsContract.totalSupply */\n      0x18160ddd\n      swap2\n        /* \"MintNagaKids.sol\":1916:1946  nagaKidsContract.totalSupply() */\n      0x04\n      dup1\n      dup4\n      add\n      swap3\n      0x20\n      swap3\n      swap2\n      swap1\n      dup3\n      swap1\n      sub\n      add\n      dup2\n        /* \"MintNagaKids.sol\":1916:1932  nagaKidsContract */\n      dup7\n        /* \"MintNagaKids.sol\":1916:1946  nagaKidsContract.totalSupply() */\n      gas\n      staticcall\n      iszero\n      dup1\n      iszero\n      tag_178\n      jumpi\n      returndatasize\n      0x00\n      dup1\n      returndatacopy\n      revert(0x00, returndatasize)\n        /* \"@openzeppelin/contracts/access/AccessControl.sol\":5149:5296  function revokeRole(bytes32 role, address account) public virtual override onlyRole(getRoleAdmin(role)) {... */\n    tag_103:\n        /* \"@openzeppelin/contracts/access/AccessControl.sol\":4465:4472  bytes32 */\n      0x00\n        /* \"@openzeppelin/contracts/access/AccessControl.sol\":4491:4503  _roles[role] */\n      dup3\n      dup2\n      mstore\n        /* \"@openzeppelin/contracts/access/AccessControl.sol\":4491:4497  _roles */\n      0x01\n        /* \"@openzeppelin/contracts/access/AccessControl.sol\":4491:4503  _roles[role] */\n      0x20\n      dup2\n      swap1\n      mstore\n      0x40\n      swap1\n      swap2\n      keccak256\n        /* \"@openzeppelin/contracts/access/AccessControl.sol\":4491:4513  _roles[role].adminRole */\n      add\n      sload\n        /* \"@openzeppelin/contracts/access/AccessControl.sol\":2505:2521  _checkRole(role) */\n      tag_194\n        /* \"@openzeppelin/contracts/access/AccessControl.sol\":2516:2520  role */\n      dup2\n        /* \"@openzeppelin/contracts/access/AccessControl.sol\":2505:2515  _checkRole */\n      tag_120\n        /* \"@openzeppelin/contracts/access/AccessControl.sol\":2505:2521  _checkRole(role) */\n      jump\t// in\n    tag_194:\n        /* \"@openzeppelin/contracts/access/AccessControl.sol\":5263:5289  _revokeRole(role, account) */\n      tag_166\n        /* \"@openzeppelin/contracts/access/AccessControl.sol\":5275:5279  role */\n      dup4\n        /* \"@openzeppelin/contracts/access/AccessControl.sol\":5281:5288  account */\n      dup4\n        /* \"@openzeppelin/contracts/access/AccessControl.sol\":5263:5274  _revokeRole */\n      tag_175\n        /* \"@openzeppelin/contracts/access/AccessControl.sol\":5263:5289  _revokeRole(role, account) */\n      jump\t// in\n        /* \"MintNagaKids.sol\":896:1023  function changeWhitelistMintOpen(bool _isOpen) public onlyRole(DEFAULT_ADMIN_ROLE) {... */\n    tag_107:\n        /* \"@openzeppelin/contracts/access/AccessControl.sol\":2072:2076  0x00 */\n      0x00\n        /* \"@openzeppelin/contracts/access/AccessControl.sol\":2505:2521  _checkRole(role) */\n      tag_198\n        /* \"@openzeppelin/contracts/access/AccessControl.sol\":2072:2076  0x00 */\n      dup2\n        /* \"@openzeppelin/contracts/access/AccessControl.sol\":2505:2515  _checkRole */\n      tag_120\n        /* \"@openzeppelin/contracts/access/AccessControl.sol\":2505:2521  _checkRole(role) */\n      jump\t// in\n    tag_198:\n      pop\n        /* \"MintNagaKids.sol\":990:1005  isWhitelistOpen */\n      0x03\n        /* \"MintNagaKids.sol\":990:1015  isWhitelistOpen = _isOpen */\n      dup1\n      sload\n      swap2\n      iszero\n      iszero\n      shl(0xa8, 0x01)\n      mul\n      not(shl(0xa8, 0xff))\n      swap1\n      swap3\n      and\n      swap2\n      swap1\n      swap2\n      or\n      swap1\n      sstore\n        /* \"MintNagaKids.sol\":896:1023  function changeWhitelistMintOpen(bool _isOpen) public onlyRole(DEFAULT_ADMIN_ROLE) {... */\n      jump\t// out\n        /* \"MintNagaKids.sol\":2078:2175  function isPause() public view returns (bool) {... */\n    tag_110:\n        /* \"MintNagaKids.sol\":2142:2158  nagaKidsContract */\n      sload(0x03)\n        /* \"MintNagaKids.sol\":2142:2167  nagaKidsContract.paused() */\n      0x40\n      dup1\n      mload\n      shl(0xe0, 0x5c975abb)\n      dup2\n      mstore\n      swap1\n      mload\n        /* \"MintNagaKids.sol\":2118:2122  bool */\n      0x00\n      swap3\n      sub(shl(0xa0, 0x01), 0x01)\n        /* \"MintNagaKids.sol\":2142:2158  nagaKidsContract */\n      and\n      swap2\n        /* \"MintNagaKids.sol\":2142:2165  nagaKidsContract.paused */\n      0x5c975abb\n      swap2\n        /* \"MintNagaKids.sol\":2142:2167  nagaKidsContract.paused() */\n      0x04\n      dup1\n      dup4\n      add\n      swap3\n      0x20\n      swap3\n      swap2\n      swap1\n      dup3\n      swap1\n      sub\n      add\n      dup2\n        /* \"MintNagaKids.sol\":2142:2158  nagaKidsContract */\n      dup7\n        /* \"MintNagaKids.sol\":2142:2167  nagaKidsContract.paused() */\n      gas\n      staticcall\n      iszero\n      dup1\n      iszero\n      tag_202\n      jumpi\n      returndatasize\n      0x00\n      dup1\n      returndatacopy\n      revert(0x00, returndatasize)\n    tag_202:\n      pop\n      pop\n      pop\n      pop\n      mload(0x40)\n      returndatasize\n      not(0x1f)\n      0x1f\n      dup3\n      add\n      and\n      dup3\n      add\n      dup1\n      0x40\n      mstore\n      pop\n      dup2\n      add\n      swap1\n      tag_179\n      swap2\n      swap1\n      tag_148\n      jump\t// in\n        /* \"@openzeppelin/contracts/utils/Strings.sol\":1588:2029  function toHexString(uint256 value, uint256 length) internal pure returns (string memory) {... */\n    tag_112:\n        /* \"@openzeppelin/contracts/utils/Strings.sol\":1663:1676  string memory */\n      0x60\n        /* \"@openzeppelin/contracts/utils/Strings.sol\":1688:1707  bytes memory buffer */\n      0x00\n        /* \"@openzeppelin/contracts/utils/Strings.sol\":1720:1730  2 * length */\n      tag_205\n        /* \"@openzeppelin/contracts/utils/Strings.sol\":1724:1730  length */\n      dup4\n        /* \"@openzeppelin/contracts/utils/Strings.sol\":1720:1721  2 */\n      0x02\n        /* \"@openzeppelin/contracts/utils/Strings.sol\":1720:1730  2 * length */\n      tag_206\n      jump\t// in\n    tag_205:\n        /* \"@openzeppelin/contracts/utils/Strings.sol\":1720:1734  2 * length + 2 */\n      tag_207\n      swap1\n        /* \"@openzeppelin/contracts/utils/Strings.sol\":1733:1734  2 */\n      0x02\n        /* \"@openzeppelin/contracts/utils/Strings.sol\":1720:1734  2 * length + 2 */\n      tag_208\n      jump\t// in\n    tag_207:\n        /* \"@openzeppelin/contracts/utils/Strings.sol\":1710:1735  new bytes(2 * length + 2) */\n      0xffffffffffffffff\n      dup2\n      gt\n      iszero\n      tag_210\n      jumpi\n      tag_210\n      tag_211\n      jump\t// in\n    tag_210:\n      mload(0x40)\n      swap1\n      dup1\n      dup3\n      mstore\n      dup1\n      0x1f\n      add\n      not(0x1f)\n      and\n      0x20\n      add\n      dup3\n      add\n      0x40\n      mstore\n      dup1\n      iszero\n      tag_212\n      jumpi\n      0x20\n      dup3\n      add\n      dup2\n      dup1\n      calldatasize\n      dup4\n      calldatacopy\n      add\n      swap1\n      pop\n    tag_212:\n      pop\n        /* \"@openzeppelin/contracts/utils/Strings.sol\":1688:1735  bytes memory buffer = new bytes(2 * length + 2) */\n      swap1\n      pop\n      shl(0xfc, 0x03)\n        /* \"@openzeppelin/contracts/utils/Strings.sol\":1745:1751  buffer */\n      dup2\n        /* \"@openzeppelin/contracts/utils/Strings.sol\":1752:1753  0 */\n      0x00\n        /* \"@openzeppelin/contracts/utils/Strings.sol\":1745:1754  buffer[0] */\n      dup2\n      mload\n      dup2\n      lt\n      tag_214\n      jumpi\n      tag_214\n      tag_215\n      jump\t// in\n    tag_214:\n      0x20\n      add\n      add\n        /* \"@openzeppelin/contracts/utils/Strings.sol\":1745:1760  buffer[0] = \"0\" */\n      swap1\n      not(sub(shl(0xf8, 0x01), 0x01))\n      and\n      swap1\n      dup2\n      0x00\n      byte\n      swap1\n      mstore8\n      pop\n      shl(0xfb, 0x0f)\n        /* \"@openzeppelin/contracts/utils/Strings.sol\":1770:1776  buffer */\n      dup2\n        /* \"@openzeppelin/contracts/utils/Strings.sol\":1777:1778  1 */\n      0x01\n        /* \"@openzeppelin/contracts/utils/Strings.sol\":1770:1779  buffer[1] */\n      dup2\n      mload\n      dup2\n      lt\n      tag_217\n      jumpi\n      tag_217\n      tag_215\n      jump\t// in\n    tag_217:\n      0x20\n      add\n      add\n        /* \"@openzeppelin/contracts/utils/Strings.sol\":1770:1785  buffer[1] = \"x\" */\n      swap1\n      not(sub(shl(0xf8, 0x01), 0x01))\n      and\n      swap1\n      dup2\n      0x00\n      byte\n      swap1\n      mstore8\n      pop\n        /* \"@openzeppelin/contracts/utils/Strings.sol\":1800:1809  uint256 i */\n      0x00\n        /* \"@openzeppelin/contracts/utils/Strings.sol\":1812:1822  2 * length */\n      tag_221\n        /* \"@openzeppelin/contracts/utils/Strings.sol\":1816:1822  length */\n      dup5\n        /* \"@openzeppelin/contracts/utils/Strings.sol\":1812:1813  2 */\n      0x02\n        /* \"@openzeppelin/contracts/utils/Strings.sol\":1812:1822  2 * length */\n      tag_206\n      jump\t// in\n    tag_221:\n        /* \"@openzeppelin/contracts/utils/Strings.sol\":1812:1826  2 * length + 1 */\n      tag_222\n      swap1\n        /* \"@openzeppelin/contracts/utils/Strings.sol\":1825:1826  1 */\n      0x01\n        /* \"@openzeppelin/contracts/utils/Strings.sol\":1812:1826  2 * length + 1 */\n      tag_208\n      jump\t// in\n    tag_222:\n        /* \"@openzeppelin/contracts/utils/Strings.sol\":1800:1826  uint256 i = 2 * length + 1 */\n      swap1\n      pop\n        /* \"@openzeppelin/contracts/utils/Strings.sol\":1795:1927  for (uint256 i = 2 * length + 1; i > 1; --i) {... */\n    tag_218:\n        /* \"@openzeppelin/contracts/utils/Strings.sol\":1832:1833  1 */\n      0x01\n        /* \"@openzeppelin/contracts/utils/Strings.sol\":1828:1829  i */\n      dup2\n        /* \"@openzeppelin/contracts/utils/Strings.sol\":1828:1833  i > 1 */\n      gt\n        /* \"@openzeppelin/contracts/utils/Strings.sol\":1795:1927  for (uint256 i = 2 * length + 1; i > 1; --i) {... */\n      iszero\n      tag_219\n      jumpi\n      shl(0x81, 0x181899199a1a9b1b9c1cb0b131b232b3)\n        /* \"@openzeppelin/contracts/utils/Strings.sol\":1879:1884  value */\n      dup6\n        /* \"@openzeppelin/contracts/utils/Strings.sol\":1887:1890  0xf */\n      0x0f\n        /* \"@openzeppelin/contracts/utils/Strings.sol\":1879:1890  value & 0xf */\n      and\n        /* \"@openzeppelin/contracts/utils/Strings.sol\":1866:1891  _HEX_SYMBOLS[value & 0xf] */\n      0x10\n      dup2\n      lt\n      tag_224\n      jumpi\n      tag_224\n      tag_215\n      jump\t// in\n    tag_224:\n      byte\n      0xf8\n      shl\n        /* \"@openzeppelin/contracts/utils/Strings.sol\":1854:1860  buffer */\n      dup3\n        /* \"@openzeppelin/contracts/utils/Strings.sol\":1861:1862  i */\n      dup3\n        /* \"@openzeppelin/contracts/utils/Strings.sol\":1854:1863  buffer[i] */\n      dup2\n      mload\n      dup2\n      lt\n      tag_226\n      jumpi\n      tag_226\n      tag_215\n      jump\t// in\n    tag_226:\n      0x20\n      add\n      add\n        /* \"@openzeppelin/contracts/utils/Strings.sol\":1854:1891  buffer[i] = _HEX_SYMBOLS[value & 0xf] */\n      swap1\n      not(sub(shl(0xf8, 0x01), 0x01))\n      and\n      swap1\n      dup2\n      0x00\n      byte\n      swap1\n      mstore8\n      pop\n        /* \"@openzeppelin/contracts/utils/Strings.sol\":1915:1916  4 */\n      0x04\n        /* \"@openzeppelin/contracts/utils/Strings.sol\":1905:1916  value >>= 4 */\n      swap5\n      swap1\n      swap5\n      shr\n      swap4\n        /* \"@openzeppelin/contracts/utils/Strings.sol\":1835:1838  --i */\n      tag_227\n      dup2\n      tag_228\n      jump\t// in\n    tag_227:\n      swap1\n      pop\n        /* \"@openzeppelin/contracts/utils/Strings.sol\":1795:1927  for (uint256 i = 2 * length + 1; i > 1; --i) {... */\n      jump(tag_218)\n    tag_219:\n      pop\n        /* \"@openzeppelin/contracts/utils/Strings.sol\":1944:1954  value == 0 */\n      dup4\n      iszero\n        /* \"@openzeppelin/contracts/utils/Strings.sol\":1936:1991  require(value == 0, \"Strings: hex length insufficient\") */\n      tag_229\n      jumpi\n      mload(0x40)\n      shl(0xe5, 0x461bcd)\n      dup2\n      mstore\n        /* \"#utility.yul\":7859:7861   */\n      0x20\n        /* \"@openzeppelin/contracts/utils/Strings.sol\":1936:1991  require(value == 0, \"Strings: hex length insufficient\") */\n      0x04\n      dup3\n      add\n        /* \"#utility.yul\":7841:7862   */\n      dup2\n      swap1\n      mstore\n        /* \"#utility.yul\":7878:7896   */\n      0x24\n      dup3\n      add\n        /* \"#utility.yul\":7871:7901   */\n      mstore\n        /* \"#utility.yul\":7937:7971   */\n      0x537472696e67733a20686578206c656e67746820696e73756666696369656e74\n        /* \"#utility.yul\":7917:7935   */\n      0x44\n      dup3\n      add\n        /* \"#utility.yul\":7910:7972   */\n      mstore\n        /* \"#utility.yul\":7989:8007   */\n      0x64\n      add\n        /* \"@openzeppelin/contracts/utils/Strings.sol\":1936:1991  require(value == 0, \"Strings: hex length insufficient\") */\n      tag_124\n        /* \"#utility.yul\":7657:8013   */\n      jump\n        /* \"@openzeppelin/contracts/utils/Strings.sol\":1936:1991  require(value == 0, \"Strings: hex length insufficient\") */\n    tag_229:\n        /* \"@openzeppelin/contracts/utils/Strings.sol\":2015:2021  buffer */\n      swap4\n        /* \"@openzeppelin/contracts/utils/Strings.sol\":1588:2029  function toHexString(uint256 value, uint256 length) internal pure returns (string memory) {... */\n      swap3\n      pop\n      pop\n      pop\n      jump\t// out\n        /* \"@openzeppelin/contracts/access/AccessControl.sol\":3334:3437  function _checkRole(bytes32 role) internal view virtual {... */\n    tag_120:\n        /* \"@openzeppelin/contracts/access/AccessControl.sol\":3400:3430  _checkRole(role, _msgSender()) */\n      tag_234\n        /* \"@openzeppelin/contracts/access/AccessControl.sol\":3411:3415  role */\n      dup2\n        /* \"@openzeppelin/contracts/utils/Context.sol\":719:729  msg.sender */\n      caller\n        /* \"@openzeppelin/contracts/access/AccessControl.sol\":3400:3410  _checkRole */\n      tag_236\n        /* \"@openzeppelin/contracts/access/AccessControl.sol\":3400:3430  _checkRole(role, _msgSender()) */\n      jump\t// in\n    tag_234:\n        /* \"@openzeppelin/contracts/access/AccessControl.sol\":3334:3437  function _checkRole(bytes32 role) internal view virtual {... */\n      pop\n      jump\t// out\n        /* \"Whitelist.sol\":195:598  function isWhitelist(... */\n    tag_153:\n        /* \"Whitelist.sol\":332:336  bool */\n      0x00\n        /* \"Whitelist.sol\":353:363  merkleRoot */\n      dup1\n      sload\n        /* \"Whitelist.sol\":353:368  merkleRoot == 0 */\n      dup2\n      sub\n        /* \"Whitelist.sol\":349:409  if (merkleRoot == 0) {... */\n      tag_238\n      jumpi\n      pop\n        /* \"Whitelist.sol\":392:397  false */\n      0x00\n        /* \"Whitelist.sol\":385:397  return false */\n      jump(tag_237)\n        /* \"Whitelist.sol\":349:409  if (merkleRoot == 0) {... */\n    tag_238:\n        /* \"Whitelist.sol\":441:590  MerkleProof.verify(... */\n      tag_239\n        /* \"Whitelist.sol\":478:484  _proof */\n      dup6\n      dup6\n        /* \"Whitelist.sol\":441:590  MerkleProof.verify(... */\n      dup1\n      dup1\n      0x20\n      mul\n      0x20\n      add\n      mload(0x40)\n      swap1\n      dup2\n      add\n      0x40\n      mstore\n      dup1\n      swap4\n      swap3\n      swap2\n      swap1\n      dup2\n      dup2\n      mstore\n      0x20\n      add\n      dup4\n      dup4\n      0x20\n      mul\n      dup1\n      dup3\n      dup5\n      calldatacopy\n      0x00\n      swap3\n      add\n      dup3\n      swap1\n      mstore\n      pop\n        /* \"Whitelist.sol\":503:513  merkleRoot */\n      sload\n        /* \"Whitelist.sol\":542:574  abi.encodePacked(_user, _amount) */\n      mload(0x40)\n      not(0xffffffffffffffffffffffff)\n        /* \"#utility.yul\":8195:8197   */\n      0x60\n        /* \"#utility.yul\":8191:8206   */\n      dup12\n      swap1\n      shl\n        /* \"#utility.yul\":8187:8240   */\n      and\n        /* \"Whitelist.sol\":542:574  abi.encodePacked(_user, _amount) */\n      0x20\n      dup3\n      add\n        /* \"#utility.yul\":8175:8241   */\n      mstore\n        /* \"#utility.yul\":8257:8269   */\n      0x34\n      dup2\n      add\n        /* \"#utility.yul\":8250:8278   */\n      dup10\n      swap1\n      mstore\n        /* \"Whitelist.sol\":503:513  merkleRoot */\n      swap1\n      swap4\n      pop\n        /* \"#utility.yul\":8294:8306   */\n      0x54\n      add\n      swap2\n      pop\n        /* \"Whitelist.sol\":542:574  abi.encodePacked(_user, _amount) */\n      tag_240\n      swap1\n      pop\n        /* \"#utility.yul\":8018:8312   */\n      jump\n        /* \"Whitelist.sol\":542:574  abi.encodePacked(_user, _amount) */\n    tag_240:\n      mload(0x40)\n      0x20\n      dup2\n      dup4\n      sub\n      sub\n      dup2\n      mstore\n      swap1\n      0x40\n      mstore\n        /* \"Whitelist.sol\":532:575  keccak256(abi.encodePacked(_user, _amount)) */\n      dup1\n      mload\n      swap1\n      0x20\n      add\n      keccak256\n        /* \"Whitelist.sol\":441:459  MerkleProof.verify */\n      tag_242\n        /* \"Whitelist.sol\":441:590  MerkleProof.verify(... */\n      jump\t// in\n    tag_239:\n        /* \"Whitelist.sol\":421:590  return... */\n      swap1\n      pop\n        /* \"Whitelist.sol\":195:598  function isWhitelist(... */\n    tag_237:\n      swap5\n      swap4\n      pop\n      pop\n      pop\n      pop\n      jump\t// out\n        /* \"@openzeppelin/contracts/access/AccessControl.sol\":7244:7477  function _grantRole(bytes32 role, address account) internal virtual {... */\n    tag_167:\n        /* \"@openzeppelin/contracts/access/AccessControl.sol\":7327:7349  hasRole(role, account) */\n      tag_244\n        /* \"@openzeppelin/contracts/access/AccessControl.sol\":7335:7339  role */\n      dup3\n        /* \"@openzeppelin/contracts/access/AccessControl.sol\":7341:7348  account */\n      dup3\n        /* \"@openzeppelin/contracts/access/AccessControl.sol\":7327:7334  hasRole */\n      tag_82\n        /* \"@openzeppelin/contracts/access/AccessControl.sol\":7327:7349  hasRole(role, account) */\n      jump\t// in\n    tag_244:\n        /* \"@openzeppelin/contracts/access/AccessControl.sol\":7322:7471  if (!hasRole(role, account)) {... */\n      tag_174\n      jumpi\n        /* \"@openzeppelin/contracts/access/AccessControl.sol\":7365:7377  _roles[role] */\n      0x00\n      dup3\n      dup2\n      mstore\n        /* \"@openzeppelin/contracts/access/AccessControl.sol\":7397:7401  true */\n      0x01\n        /* \"@openzeppelin/contracts/access/AccessControl.sol\":7365:7377  _roles[role] */\n      0x20\n      dup2\n      dup2\n      mstore\n      0x40\n      dup1\n      dup5\n      keccak256\n      sub(shl(0xa0, 0x01), 0x01)\n        /* \"@openzeppelin/contracts/access/AccessControl.sol\":7365:7394  _roles[role].members[account] */\n      dup7\n      and\n      dup1\n      dup7\n      mstore\n      swap3\n      mstore\n      dup1\n      dup5\n      keccak256\n        /* \"@openzeppelin/contracts/access/AccessControl.sol\":7365:7401  _roles[role].members[account] = true */\n      dup1\n      sload\n      not(0xff)\n      and\n      swap1\n      swap4\n      or\n      swap1\n      swap3\n      sstore\n        /* \"@openzeppelin/contracts/access/AccessControl.sol\":7420:7460  RoleGranted(role, account, _msgSender()) */\n      swap1\n      mload\n        /* \"@openzeppelin/contracts/utils/Context.sol\":719:729  msg.sender */\n      caller\n      swap3\n        /* \"@openzeppelin/contracts/access/AccessControl.sol\":7365:7377  _roles[role] */\n      dup6\n      swap2\n        /* \"@openzeppelin/contracts/access/AccessControl.sol\":7420:7460  RoleGranted(role, account, _msgSender()) */\n      0x2f8788117e7eff1d82e926ec794901d17c78024a50270940304540a733656f0d\n      swap2\n        /* \"@openzeppelin/contracts/access/AccessControl.sol\":7365:7377  _roles[role] */\n      swap1\n        /* \"@openzeppelin/contracts/access/AccessControl.sol\":7420:7460  RoleGranted(role, account, _msgSender()) */\n      log4\n        /* \"@openzeppelin/contracts/access/AccessControl.sol\":7244:7477  function _grantRole(bytes32 role, address account) internal virtual {... */\n      pop\n      pop\n      jump\t// out\n        /* \"@openzeppelin/contracts/access/AccessControl.sol\":7602:7836  function _revokeRole(bytes32 role, address account) internal virtual {... */\n    tag_175:\n        /* \"@openzeppelin/contracts/access/AccessControl.sol\":7685:7707  hasRole(role, account) */\n      tag_249\n        /* \"@openzeppelin/contracts/access/AccessControl.sol\":7693:7697  role */\n      dup3\n        /* \"@openzeppelin/contracts/access/AccessControl.sol\":7699:7706  account */\n      dup3\n        /* \"@openzeppelin/contracts/access/AccessControl.sol\":7685:7692  hasRole */\n      tag_82\n        /* \"@openzeppelin/contracts/access/AccessControl.sol\":7685:7707  hasRole(role, account) */\n      jump\t// in\n    tag_249:\n        /* \"@openzeppelin/contracts/access/AccessControl.sol\":7681:7830  if (hasRole(role, account)) {... */\n      iszero\n      tag_174\n      jumpi\n        /* \"@openzeppelin/contracts/access/AccessControl.sol\":7755:7760  false */\n      0x00\n        /* \"@openzeppelin/contracts/access/AccessControl.sol\":7723:7735  _roles[role] */\n      dup3\n      dup2\n      mstore\n        /* \"@openzeppelin/contracts/access/AccessControl.sol\":7723:7729  _roles */\n      0x01\n        /* \"@openzeppelin/contracts/access/AccessControl.sol\":7723:7735  _roles[role] */\n      0x20\n      swap1\n      dup2\n      mstore\n      0x40\n      dup1\n      dup4\n      keccak256\n      sub(shl(0xa0, 0x01), 0x01)\n        /* \"@openzeppelin/contracts/access/AccessControl.sol\":7723:7752  _roles[role].members[account] */\n      dup6\n      and\n      dup1\n      dup6\n      mstore\n      swap3\n      mstore\n      dup1\n      dup4\n      keccak256\n        /* \"@openzeppelin/contracts/access/AccessControl.sol\":7723:7760  _roles[role].members[account] = false */\n      dup1\n      sload\n      not(0xff)\n      and\n      swap1\n      sstore\n        /* \"@openzeppelin/contracts/access/AccessControl.sol\":7779:7819  RoleRevoked(role, account, _msgSender()) */\n      mload\n        /* \"@openzeppelin/contracts/utils/Context.sol\":719:729  msg.sender */\n      caller\n      swap3\n        /* \"@openzeppelin/contracts/access/AccessControl.sol\":7723:7735  _roles[role] */\n      dup6\n      swap2\n        /* \"@openzeppelin/contracts/access/AccessControl.sol\":7779:7819  RoleRevoked(role, account, _msgSender()) */\n      0xf6391f5c32d9c69d2a47ea670b442974b53935d1edc7fd64eb21e047a839171b\n      swap2\n        /* \"@openzeppelin/contracts/access/AccessControl.sol\":7755:7760  false */\n      swap1\n        /* \"@openzeppelin/contracts/access/AccessControl.sol\":7779:7819  RoleRevoked(role, account, _msgSender()) */\n      log4\n        /* \"@openzeppelin/contracts/access/AccessControl.sol\":7602:7836  function _revokeRole(bytes32 role, address account) internal virtual {... */\n      pop\n      pop\n      jump\t// out\n        /* \"@openzeppelin/contracts/access/AccessControl.sol\":3718:4210  function _checkRole(bytes32 role, address account) internal view virtual {... */\n    tag_236:\n        /* \"@openzeppelin/contracts/access/AccessControl.sol\":3806:3828  hasRole(role, account) */\n      tag_253\n        /* \"@openzeppelin/contracts/access/AccessControl.sol\":3814:3818  role */\n      dup3\n        /* \"@openzeppelin/contracts/access/AccessControl.sol\":3820:3827  account */\n      dup3\n        /* \"@openzeppelin/contracts/access/AccessControl.sol\":3806:3813  hasRole */\n      tag_82\n        /* \"@openzeppelin/contracts/access/AccessControl.sol\":3806:3828  hasRole(role, account) */\n      jump\t// in\n    tag_253:\n        /* \"@openzeppelin/contracts/access/AccessControl.sol\":3801:4204  if (!hasRole(role, account)) {... */\n      tag_174\n      jumpi\n        /* \"@openzeppelin/contracts/access/AccessControl.sol\":3989:4030  Strings.toHexString(uint160(account), 20) */\n      tag_255\n        /* \"@openzeppelin/contracts/access/AccessControl.sol\":4017:4024  account */\n      dup2\n      sub(shl(0xa0, 0x01), 0x01)\n        /* \"@openzeppelin/contracts/access/AccessControl.sol\":3989:4030  Strings.toHexString(uint160(account), 20) */\n      and\n        /* \"@openzeppelin/contracts/access/AccessControl.sol\":4027:4029  20 */\n      0x14\n        /* \"@openzeppelin/contracts/access/AccessControl.sol\":3989:4008  Strings.toHexString */\n      tag_112\n        /* \"@openzeppelin/contracts/access/AccessControl.sol\":3989:4030  Strings.toHexString(uint160(account), 20) */\n      jump\t// in\n    tag_255:\n        /* \"@openzeppelin/contracts/access/AccessControl.sol\":4101:4139  Strings.toHexString(uint256(role), 32) */\n      tag_256\n        /* \"@openzeppelin/contracts/access/AccessControl.sol\":4129:4133  role */\n      dup4\n        /* \"@openzeppelin/contracts/access/AccessControl.sol\":4136:4138  32 */\n      0x20\n        /* \"@openzeppelin/contracts/access/AccessControl.sol\":4101:4120  Strings.toHexString */\n      tag_112\n        /* \"@openzeppelin/contracts/access/AccessControl.sol\":4101:4139  Strings.toHexString(uint256(role), 32) */\n      jump\t// in\n    tag_256:\n        /* \"@openzeppelin/contracts/access/AccessControl.sol\":3896:4161  abi.encodePacked(... */\n      add(0x20, mload(0x40))\n      tag_257\n      swap3\n      swap2\n      swap1\n      tag_258\n      jump\t// in\n    tag_257:\n      0x40\n      dup1\n      mload\n      not(0x1f)\n      dup2\n      dup5\n      sub\n      add\n      dup2\n      mstore\n      swap1\n      dup3\n      swap1\n      mstore\n      shl(0xe5, 0x461bcd)\n        /* \"@openzeppelin/contracts/access/AccessControl.sol\":3844:4193  revert(... */\n      dup3\n      mstore\n      tag_124\n      swap2\n      0x04\n      add\n      tag_260\n      jump\t// in\n        /* \"@openzeppelin/contracts/utils/cryptography/MerkleProof.sol\":1154:1338  function verify(... */\n    tag_242:\n        /* \"@openzeppelin/contracts/utils/cryptography/MerkleProof.sol\":1275:1279  bool */\n      0x00\n        /* \"@openzeppelin/contracts/utils/cryptography/MerkleProof.sol\":1327:1331  root */\n      dup3\n        /* \"@openzeppelin/contracts/utils/cryptography/MerkleProof.sol\":1298:1323  processProof(proof, leaf) */\n      tag_262\n        /* \"@openzeppelin/contracts/utils/cryptography/MerkleProof.sol\":1311:1316  proof */\n      dup6\n        /* \"@openzeppelin/contracts/utils/cryptography/MerkleProof.sol\":1318:1322  leaf */\n      dup5\n        /* \"@openzeppelin/contracts/utils/cryptography/MerkleProof.sol\":1298:1310  processProof */\n      tag_263\n        /* \"@openzeppelin/contracts/utils/cryptography/MerkleProof.sol\":1298:1323  processProof(proof, leaf) */\n      jump\t// in\n    tag_262:\n        /* \"@openzeppelin/contracts/utils/cryptography/MerkleProof.sol\":1298:1331  processProof(proof, leaf) == root */\n      eq\n      swap5\n        /* \"@openzeppelin/contracts/utils/cryptography/MerkleProof.sol\":1154:1338  function verify(... */\n      swap4\n      pop\n      pop\n      pop\n      pop\n      jump\t// out\n        /* \"@openzeppelin/contracts/utils/cryptography/MerkleProof.sol\":1689:2351  function processProof(bytes32[] memory proof, bytes32 leaf) internal pure returns (bytes32) {... */\n    tag_263:\n        /* \"@openzeppelin/contracts/utils/cryptography/MerkleProof.sol\":1772:1779  bytes32 */\n      0x00\n        /* \"@openzeppelin/contracts/utils/cryptography/MerkleProof.sol\":1814:1818  leaf */\n      dup2\n        /* \"@openzeppelin/contracts/utils/cryptography/MerkleProof.sol\":1772:1779  bytes32 */\n      dup2\n        /* \"@openzeppelin/contracts/utils/cryptography/MerkleProof.sol\":1828:2316  for (uint256 i = 0; i < proof.length; i++) {... */\n    tag_265:\n        /* \"@openzeppelin/contracts/utils/cryptography/MerkleProof.sol\":1852:1857  proof */\n      dup5\n        /* \"@openzeppelin/contracts/utils/cryptography/MerkleProof.sol\":1852:1864  proof.length */\n      mload\n        /* \"@openzeppelin/contracts/utils/cryptography/MerkleProof.sol\":1848:1849  i */\n      dup2\n        /* \"@openzeppelin/contracts/utils/cryptography/MerkleProof.sol\":1848:1864  i < proof.length */\n      lt\n        /* \"@openzeppelin/contracts/utils/cryptography/MerkleProof.sol\":1828:2316  for (uint256 i = 0; i < proof.length; i++) {... */\n      iszero\n      tag_266\n      jumpi\n        /* \"@openzeppelin/contracts/utils/cryptography/MerkleProof.sol\":1885:1905  bytes32 proofElement */\n      0x00\n        /* \"@openzeppelin/contracts/utils/cryptography/MerkleProof.sol\":1908:1913  proof */\n      dup6\n        /* \"@openzeppelin/contracts/utils/cryptography/MerkleProof.sol\":1914:1915  i */\n      dup3\n        /* \"@openzeppelin/contracts/utils/cryptography/MerkleProof.sol\":1908:1916  proof[i] */\n      dup2\n      mload\n      dup2\n      lt\n      tag_269\n      jumpi\n      tag_269\n      tag_215\n      jump\t// in\n    tag_269:\n      0x20\n      mul\n      0x20\n      add\n      add\n      mload\n        /* \"@openzeppelin/contracts/utils/cryptography/MerkleProof.sol\":1885:1916  bytes32 proofElement = proof[i] */\n      swap1\n      pop\n        /* \"@openzeppelin/contracts/utils/cryptography/MerkleProof.sol\":1950:1962  proofElement */\n      dup1\n        /* \"@openzeppelin/contracts/utils/cryptography/MerkleProof.sol\":1934:1946  computedHash */\n      dup4\n        /* \"@openzeppelin/contracts/utils/cryptography/MerkleProof.sol\":1934:1962  computedHash <= proofElement */\n      gt\n        /* \"@openzeppelin/contracts/utils/cryptography/MerkleProof.sol\":1930:2306  if (computedHash <= proofElement) {... */\n      tag_270\n      jumpi\n        /* \"@openzeppelin/contracts/utils/cryptography/MerkleProof.sol\":2425:2438  bytes32 value */\n      0x00\n        /* \"@openzeppelin/contracts/utils/cryptography/MerkleProof.sol\":2473:2488  mstore(0x00, a) */\n      dup4\n      dup2\n      mstore\n        /* \"@openzeppelin/contracts/utils/cryptography/MerkleProof.sol\":2508:2512  0x20 */\n      0x20\n        /* \"@openzeppelin/contracts/utils/cryptography/MerkleProof.sol\":2501:2516  mstore(0x20, b) */\n      dup3\n      swap1\n      mstore\n        /* \"@openzeppelin/contracts/utils/cryptography/MerkleProof.sol\":2554:2558  0x40 */\n      0x40\n        /* \"@openzeppelin/contracts/utils/cryptography/MerkleProof.sol\":2538:2559  keccak256(0x00, 0x40) */\n      swap1\n      keccak256\n        /* \"@openzeppelin/contracts/utils/cryptography/MerkleProof.sol\":2060:2117  computedHash = _efficientHash(computedHash, proofElement) */\n      swap3\n      pop\n        /* \"@openzeppelin/contracts/utils/cryptography/MerkleProof.sol\":1930:2306  if (computedHash <= proofElement) {... */\n      jump(tag_273)\n    tag_270:\n        /* \"@openzeppelin/contracts/utils/cryptography/MerkleProof.sol\":2425:2438  bytes32 value */\n      0x00\n        /* \"@openzeppelin/contracts/utils/cryptography/MerkleProof.sol\":2473:2488  mstore(0x00, a) */\n      dup2\n      dup2\n      mstore\n        /* \"@openzeppelin/contracts/utils/cryptography/MerkleProof.sol\":2508:2512  0x20 */\n      0x20\n        /* \"@openzeppelin/contracts/utils/cryptography/MerkleProof.sol\":2501:2516  mstore(0x20, b) */\n      dup5\n      swap1\n      mstore\n        /* \"@openzeppelin/contracts/utils/cryptography/MerkleProof.sol\":2554:2558  0x40 */\n      0x40\n        /* \"@openzeppelin/contracts/utils/cryptography/MerkleProof.sol\":2538:2559  keccak256(0x00, 0x40) */\n      swap1\n      keccak256\n        /* \"@openzeppelin/contracts/utils/cryptography/MerkleProof.sol\":2234:2291  computedHash = _efficientHash(proofElement, computedHash) */\n      swap3\n      pop\n        /* \"@openzeppelin/contracts/utils/cryptography/MerkleProof.sol\":1930:2306  if (computedHash <= proofElement) {... */\n    tag_273:\n      pop\n        /* \"@openzeppelin/contracts/utils/cryptography/MerkleProof.sol\":1866:1869  i++ */\n      dup1\n      tag_275\n      dup2\n      tag_276\n      jump\t// in\n    tag_275:\n      swap2\n      pop\n      pop\n        /* \"@openzeppelin/contracts/utils/cryptography/MerkleProof.sol\":1828:2316  for (uint256 i = 0; i < proof.length; i++) {... */\n      jump(tag_265)\n    tag_266:\n      pop\n        /* \"@openzeppelin/contracts/utils/cryptography/MerkleProof.sol\":2332:2344  computedHash */\n      swap4\n        /* \"@openzeppelin/contracts/utils/cryptography/MerkleProof.sol\":1689:2351  function processProof(bytes32[] memory proof, bytes32 leaf) internal pure returns (bytes32) {... */\n      swap3\n      pop\n      pop\n      pop\n      jump\t// out\n        /* \"#utility.yul\":14:300   */\n    tag_27:\n        /* \"#utility.yul\":72:78   */\n      0x00\n        /* \"#utility.yul\":125:127   */\n      0x20\n        /* \"#utility.yul\":113:122   */\n      dup3\n        /* \"#utility.yul\":104:111   */\n      dup5\n        /* \"#utility.yul\":100:123   */\n      sub\n        /* \"#utility.yul\":96:128   */\n      slt\n        /* \"#utility.yul\":93:145   */\n      iszero\n      tag_284\n      jumpi\n        /* \"#utility.yul\":141:142   */\n      0x00\n        /* \"#utility.yul\":138:139   */\n      dup1\n        /* \"#utility.yul\":131:143   */\n      revert\n        /* \"#utility.yul\":93:145   */\n    tag_284:\n        /* \"#utility.yul\":167:190   */\n      dup2\n      calldataload\n      not(sub(shl(0xe0, 0x01), 0x01))\n        /* \"#utility.yul\":219:251   */\n      dup2\n      and\n        /* \"#utility.yul\":209:252   */\n      dup2\n      eq\n        /* \"#utility.yul\":199:270   */\n      tag_229\n      jumpi\n        /* \"#utility.yul\":266:267   */\n      0x00\n        /* \"#utility.yul\":263:264   */\n      dup1\n        /* \"#utility.yul\":256:268   */\n      revert\n        /* \"#utility.yul\":497:677   */\n    tag_34:\n        /* \"#utility.yul\":556:562   */\n      0x00\n        /* \"#utility.yul\":609:611   */\n      0x20\n        /* \"#utility.yul\":597:606   */\n      dup3\n        /* \"#utility.yul\":588:595   */\n      dup5\n        /* \"#utility.yul\":584:607   */\n      sub\n        /* \"#utility.yul\":580:612   */\n      slt\n        /* \"#utility.yul\":577:629   */\n      iszero\n      tag_288\n      jumpi\n        /* \"#utility.yul\":625:626   */\n      0x00\n        /* \"#utility.yul\":622:623   */\n      dup1\n        /* \"#utility.yul\":615:627   */\n      revert\n        /* \"#utility.yul\":577:629   */\n    tag_288:\n      pop\n        /* \"#utility.yul\":648:671   */\n      calldataload\n      swap2\n        /* \"#utility.yul\":497:677   */\n      swap1\n      pop\n      jump\t// out\n        /* \"#utility.yul\":1092:1210   */\n    tag_278:\n        /* \"#utility.yul\":1178:1183   */\n      dup1\n        /* \"#utility.yul\":1171:1184   */\n      iszero\n        /* \"#utility.yul\":1164:1185   */\n      iszero\n        /* \"#utility.yul\":1157:1162   */\n      dup2\n        /* \"#utility.yul\":1154:1186   */\n      eq\n        /* \"#utility.yul\":1144:1204   */\n      tag_234\n      jumpi\n        /* \"#utility.yul\":1200:1201   */\n      0x00\n        /* \"#utility.yul\":1197:1198   */\n      dup1\n        /* \"#utility.yul\":1190:1202   */\n      revert\n        /* \"#utility.yul\":1215:1456   */\n    tag_46:\n        /* \"#utility.yul\":1271:1277   */\n      0x00\n        /* \"#utility.yul\":1324:1326   */\n      0x20\n        /* \"#utility.yul\":1312:1321   */\n      dup3\n        /* \"#utility.yul\":1303:1310   */\n      dup5\n        /* \"#utility.yul\":1299:1322   */\n      sub\n        /* \"#utility.yul\":1295:1327   */\n      slt\n        /* \"#utility.yul\":1292:1344   */\n      iszero\n      tag_294\n      jumpi\n        /* \"#utility.yul\":1340:1341   */\n      0x00\n        /* \"#utility.yul\":1337:1338   */\n      dup1\n        /* \"#utility.yul\":1330:1342   */\n      revert\n        /* \"#utility.yul\":1292:1344   */\n    tag_294:\n        /* \"#utility.yul\":1379:1388   */\n      dup2\n        /* \"#utility.yul\":1366:1389   */\n      calldataload\n        /* \"#utility.yul\":1398:1426   */\n      tag_229\n        /* \"#utility.yul\":1420:1425   */\n      dup2\n        /* \"#utility.yul\":1398:1426   */\n      tag_278\n      jump\t// in\n        /* \"#utility.yul\":1461:2150   */\n    tag_50:\n        /* \"#utility.yul\":1556:1562   */\n      0x00\n        /* \"#utility.yul\":1564:1570   */\n      dup1\n        /* \"#utility.yul\":1572:1578   */\n      0x00\n        /* \"#utility.yul\":1625:1627   */\n      0x40\n        /* \"#utility.yul\":1613:1622   */\n      dup5\n        /* \"#utility.yul\":1604:1611   */\n      dup7\n        /* \"#utility.yul\":1600:1623   */\n      sub\n        /* \"#utility.yul\":1596:1628   */\n      slt\n        /* \"#utility.yul\":1593:1645   */\n      iszero\n      tag_297\n      jumpi\n        /* \"#utility.yul\":1641:1642   */\n      0x00\n        /* \"#utility.yul\":1638:1639   */\n      dup1\n        /* \"#utility.yul\":1631:1643   */\n      revert\n        /* \"#utility.yul\":1593:1645   */\n    tag_297:\n        /* \"#utility.yul\":1681:1690   */\n      dup4\n        /* \"#utility.yul\":1668:1691   */\n      calldataload\n        /* \"#utility.yul\":1710:1728   */\n      0xffffffffffffffff\n        /* \"#utility.yul\":1751:1753   */\n      dup1\n        /* \"#utility.yul\":1743:1749   */\n      dup3\n        /* \"#utility.yul\":1740:1754   */\n      gt\n        /* \"#utility.yul\":1737:1771   */\n      iszero\n      tag_298\n      jumpi\n        /* \"#utility.yul\":1767:1768   */\n      0x00\n        /* \"#utility.yul\":1764:1765   */\n      dup1\n        /* \"#utility.yul\":1757:1769   */\n      revert\n        /* \"#utility.yul\":1737:1771   */\n    tag_298:\n        /* \"#utility.yul\":1805:1811   */\n      dup2\n        /* \"#utility.yul\":1794:1803   */\n      dup7\n        /* \"#utility.yul\":1790:1812   */\n      add\n        /* \"#utility.yul\":1780:1812   */\n      swap2\n      pop\n        /* \"#utility.yul\":1850:1857   */\n      dup7\n        /* \"#utility.yul\":1843:1847   */\n      0x1f\n        /* \"#utility.yul\":1839:1841   */\n      dup4\n        /* \"#utility.yul\":1835:1848   */\n      add\n        /* \"#utility.yul\":1831:1858   */\n      slt\n        /* \"#utility.yul\":1821:1876   */\n      tag_299\n      jumpi\n        /* \"#utility.yul\":1872:1873   */\n      0x00\n        /* \"#utility.yul\":1869:1870   */\n      dup1\n        /* \"#utility.yul\":1862:1874   */\n      revert\n        /* \"#utility.yul\":1821:1876   */\n    tag_299:\n        /* \"#utility.yul\":1912:1914   */\n      dup2\n        /* \"#utility.yul\":1899:1915   */\n      calldataload\n        /* \"#utility.yul\":1938:1940   */\n      dup2\n        /* \"#utility.yul\":1930:1936   */\n      dup2\n        /* \"#utility.yul\":1927:1941   */\n      gt\n        /* \"#utility.yul\":1924:1958   */\n      iszero\n      tag_300\n      jumpi\n        /* \"#utility.yul\":1954:1955   */\n      0x00\n        /* \"#utility.yul\":1951:1952   */\n      dup1\n        /* \"#utility.yul\":1944:1956   */\n      revert\n        /* \"#utility.yul\":1924:1958   */\n    tag_300:\n        /* \"#utility.yul\":2009:2016   */\n      dup8\n        /* \"#utility.yul\":2002:2006   */\n      0x20\n        /* \"#utility.yul\":1992:1998   */\n      dup3\n        /* \"#utility.yul\":1989:1990   */\n      0x05\n        /* \"#utility.yul\":1985:1999   */\n      shl\n        /* \"#utility.yul\":1981:1983   */\n      dup6\n        /* \"#utility.yul\":1977:2000   */\n      add\n        /* \"#utility.yul\":1973:2007   */\n      add\n        /* \"#utility.yul\":1970:2017   */\n      gt\n        /* \"#utility.yul\":1967:2034   */\n      iszero\n      tag_301\n      jumpi\n        /* \"#utility.yul\":2030:2031   */\n      0x00\n        /* \"#utility.yul\":2027:2028   */\n      dup1\n        /* \"#utility.yul\":2020:2032   */\n      revert\n        /* \"#utility.yul\":1967:2034   */\n    tag_301:\n        /* \"#utility.yul\":2061:2065   */\n      0x20\n        /* \"#utility.yul\":2053:2066   */\n      swap3\n      dup4\n      add\n      swap9\n        /* \"#utility.yul\":2085:2091   */\n      swap1\n      swap8\n      pop\n        /* \"#utility.yul\":2123:2143   */\n      swap6\n      swap1\n      swap2\n      add\n        /* \"#utility.yul\":2110:2144   */\n      calldataload\n      swap5\n        /* \"#utility.yul\":1461:2150   */\n      swap4\n      pop\n      pop\n      pop\n      pop\n      jump\t// out\n        /* \"#utility.yul\":2155:2286   */\n    tag_279:\n      sub(shl(0xa0, 0x01), 0x01)\n        /* \"#utility.yul\":2230:2261   */\n      dup2\n      and\n        /* \"#utility.yul\":2220:2262   */\n      dup2\n      eq\n        /* \"#utility.yul\":2210:2280   */\n      tag_234\n      jumpi\n        /* \"#utility.yul\":2276:2277   */\n      0x00\n        /* \"#utility.yul\":2273:2274   */\n      dup1\n        /* \"#utility.yul\":2266:2278   */\n      revert\n        /* \"#utility.yul\":2291:2606   */\n    tag_59:\n        /* \"#utility.yul\":2359:2365   */\n      0x00\n        /* \"#utility.yul\":2367:2373   */\n      dup1\n        /* \"#utility.yul\":2420:2422   */\n      0x40\n        /* \"#utility.yul\":2408:2417   */\n      dup4\n        /* \"#utility.yul\":2399:2406   */\n      dup6\n        /* \"#utility.yul\":2395:2418   */\n      sub\n        /* \"#utility.yul\":2391:2423   */\n      slt\n        /* \"#utility.yul\":2388:2440   */\n      iszero\n      tag_305\n      jumpi\n        /* \"#utility.yul\":2436:2437   */\n      0x00\n        /* \"#utility.yul\":2433:2434   */\n      dup1\n        /* \"#utility.yul\":2426:2438   */\n      revert\n        /* \"#utility.yul\":2388:2440   */\n    tag_305:\n        /* \"#utility.yul\":2472:2481   */\n      dup3\n        /* \"#utility.yul\":2459:2482   */\n      calldataload\n        /* \"#utility.yul\":2449:2482   */\n      swap2\n      pop\n        /* \"#utility.yul\":2532:2534   */\n      0x20\n        /* \"#utility.yul\":2521:2530   */\n      dup4\n        /* \"#utility.yul\":2517:2535   */\n      add\n        /* \"#utility.yul\":2504:2536   */\n      calldataload\n        /* \"#utility.yul\":2545:2576   */\n      tag_306\n        /* \"#utility.yul\":2570:2575   */\n      dup2\n        /* \"#utility.yul\":2545:2576   */\n      tag_279\n      jump\t// in\n    tag_306:\n        /* \"#utility.yul\":2595:2600   */\n      dup1\n        /* \"#utility.yul\":2585:2600   */\n      swap2\n      pop\n      pop\n        /* \"#utility.yul\":2291:2606   */\n      swap3\n      pop\n      swap3\n      swap1\n      pop\n      jump\t// out\n        /* \"#utility.yul\":2793:3060   */\n    tag_73:\n        /* \"#utility.yul\":2872:2878   */\n      0x00\n        /* \"#utility.yul\":2925:2927   */\n      0x20\n        /* \"#utility.yul\":2913:2922   */\n      dup3\n        /* \"#utility.yul\":2904:2911   */\n      dup5\n        /* \"#utility.yul\":2900:2923   */\n      sub\n        /* \"#utility.yul\":2896:2928   */\n      slt\n        /* \"#utility.yul\":2893:2945   */\n      iszero\n      tag_309\n      jumpi\n        /* \"#utility.yul\":2941:2942   */\n      0x00\n        /* \"#utility.yul\":2938:2939   */\n      dup1\n        /* \"#utility.yul\":2931:2943   */\n      revert\n        /* \"#utility.yul\":2893:2945   */\n    tag_309:\n        /* \"#utility.yul\":2980:2989   */\n      dup2\n        /* \"#utility.yul\":2967:2990   */\n      calldataload\n        /* \"#utility.yul\":2999:3030   */\n      tag_229\n        /* \"#utility.yul\":3024:3029   */\n      dup2\n        /* \"#utility.yul\":2999:3030   */\n      tag_279\n      jump\t// in\n        /* \"#utility.yul\":4470:4654   */\n    tag_142:\n        /* \"#utility.yul\":4540:4546   */\n      0x00\n        /* \"#utility.yul\":4593:4595   */\n      0x20\n        /* \"#utility.yul\":4581:4590   */\n      dup3\n        /* \"#utility.yul\":4572:4579   */\n      dup5\n        /* \"#utility.yul\":4568:4591   */\n      sub\n        /* \"#utility.yul\":4564:4596   */\n      slt\n        /* \"#utility.yul\":4561:4613   */\n      iszero\n      tag_316\n      jumpi\n        /* \"#utility.yul\":4609:4610   */\n      0x00\n        /* \"#utility.yul\":4606:4607   */\n      dup1\n        /* \"#utility.yul\":4599:4611   */\n      revert\n        /* \"#utility.yul\":4561:4613   */\n    tag_316:\n      pop\n        /* \"#utility.yul\":4632:4648   */\n      mload\n      swap2\n        /* \"#utility.yul\":4470:4654   */\n      swap1\n      pop\n      jump\t// out\n        /* \"#utility.yul\":4938:5183   */\n    tag_148:\n        /* \"#utility.yul\":5005:5011   */\n      0x00\n        /* \"#utility.yul\":5058:5060   */\n      0x20\n        /* \"#utility.yul\":5046:5055   */\n      dup3\n        /* \"#utility.yul\":5037:5044   */\n      dup5\n        /* \"#utility.yul\":5033:5056   */\n      sub\n        /* \"#utility.yul\":5029:5061   */\n      slt\n        /* \"#utility.yul\":5026:5078   */\n      iszero\n      tag_319\n      jumpi\n        /* \"#utility.yul\":5074:5075   */\n      0x00\n        /* \"#utility.yul\":5071:5072   */\n      dup1\n        /* \"#utility.yul\":5064:5076   */\n      revert\n        /* \"#utility.yul\":5026:5078   */\n    tag_319:\n        /* \"#utility.yul\":5106:5115   */\n      dup2\n        /* \"#utility.yul\":5100:5116   */\n      mload\n        /* \"#utility.yul\":5125:5153   */\n      tag_229\n        /* \"#utility.yul\":5147:5152   */\n      dup2\n        /* \"#utility.yul\":5125:5153   */\n      tag_278\n      jump\t// in\n        /* \"#utility.yul\":6814:6941   */\n    tag_280:\n        /* \"#utility.yul\":6875:6885   */\n      0x4e487b71\n        /* \"#utility.yul\":6870:6873   */\n      0xe0\n        /* \"#utility.yul\":6866:6886   */\n      shl\n        /* \"#utility.yul\":6863:6864   */\n      0x00\n        /* \"#utility.yul\":6856:6887   */\n      mstore\n        /* \"#utility.yul\":6906:6910   */\n      0x11\n        /* \"#utility.yul\":6903:6904   */\n      0x04\n        /* \"#utility.yul\":6896:6911   */\n      mstore\n        /* \"#utility.yul\":6930:6934   */\n      0x24\n        /* \"#utility.yul\":6927:6928   */\n      0x00\n        /* \"#utility.yul\":6920:6935   */\n      revert\n        /* \"#utility.yul\":6946:7114   */\n    tag_206:\n        /* \"#utility.yul\":6986:6993   */\n      0x00\n        /* \"#utility.yul\":7052:7053   */\n      dup2\n        /* \"#utility.yul\":7048:7049   */\n      0x00\n        /* \"#utility.yul\":7044:7050   */\n      not\n        /* \"#utility.yul\":7040:7054   */\n      div\n        /* \"#utility.yul\":7037:7038   */\n      dup4\n        /* \"#utility.yul\":7034:7055   */\n      gt\n        /* \"#utility.yul\":7029:7030   */\n      dup3\n        /* \"#utility.yul\":7022:7031   */\n      iszero\n        /* \"#utility.yul\":7015:7032   */\n      iszero\n        /* \"#utility.yul\":7011:7056   */\n      and\n        /* \"#utility.yul\":7008:7079   */\n      iszero\n      tag_330\n      jumpi\n        /* \"#utility.yul\":7059:7077   */\n      tag_330\n      tag_280\n      jump\t// in\n    tag_330:\n      pop\n        /* \"#utility.yul\":7099:7108   */\n      mul\n      swap1\n        /* \"#utility.yul\":6946:7114   */\n      jump\t// out\n        /* \"#utility.yul\":7119:7247   */\n    tag_208:\n        /* \"#utility.yul\":7159:7162   */\n      0x00\n        /* \"#utility.yul\":7190:7191   */\n      dup3\n        /* \"#utility.yul\":7186:7192   */\n      not\n        /* \"#utility.yul\":7183:7184   */\n      dup3\n        /* \"#utility.yul\":7180:7193   */\n      gt\n        /* \"#utility.yul\":7177:7216   */\n      iszero\n      tag_333\n      jumpi\n        /* \"#utility.yul\":7196:7214   */\n      tag_333\n      tag_280\n      jump\t// in\n    tag_333:\n      pop\n        /* \"#utility.yul\":7232:7241   */\n      add\n      swap1\n        /* \"#utility.yul\":7119:7247   */\n      jump\t// out\n        /* \"#utility.yul\":7252:7379   */\n    tag_211:\n        /* \"#utility.yul\":7313:7323   */\n      0x4e487b71\n        /* \"#utility.yul\":7308:7311   */\n      0xe0\n        /* \"#utility.yul\":7304:7324   */\n      shl\n        /* \"#utility.yul\":7301:7302   */\n      0x00\n        /* \"#utility.yul\":7294:7325   */\n      mstore\n        /* \"#utility.yul\":7344:7348   */\n      0x41\n        /* \"#utility.yul\":7341:7342   */\n      0x04\n        /* \"#utility.yul\":7334:7349   */\n      mstore\n        /* \"#utility.yul\":7368:7372   */\n      0x24\n        /* \"#utility.yul\":7365:7366   */\n      0x00\n        /* \"#utility.yul\":7358:7373   */\n      revert\n        /* \"#utility.yul\":7384:7511   */\n    tag_215:\n        /* \"#utility.yul\":7445:7455   */\n      0x4e487b71\n        /* \"#utility.yul\":7440:7443   */\n      0xe0\n        /* \"#utility.yul\":7436:7456   */\n      shl\n        /* \"#utility.yul\":7433:7434   */\n      0x00\n        /* \"#utility.yul\":7426:7457   */\n      mstore\n        /* \"#utility.yul\":7476:7480   */\n      0x32\n        /* \"#utility.yul\":7473:7474   */\n      0x04\n        /* \"#utility.yul\":7466:7481   */\n      mstore\n        /* \"#utility.yul\":7500:7504   */\n      0x24\n        /* \"#utility.yul\":7497:7498   */\n      0x00\n        /* \"#utility.yul\":7490:7505   */\n      revert\n        /* \"#utility.yul\":7516:7652   */\n    tag_228:\n        /* \"#utility.yul\":7555:7558   */\n      0x00\n        /* \"#utility.yul\":7583:7588   */\n      dup2\n        /* \"#utility.yul\":7573:7612   */\n      tag_338\n      jumpi\n        /* \"#utility.yul\":7592:7610   */\n      tag_338\n      tag_280\n      jump\t// in\n    tag_338:\n      pop\n      not(0x00)\n        /* \"#utility.yul\":7628:7646   */\n      add\n      swap1\n        /* \"#utility.yul\":7516:7652   */\n      jump\t// out\n        /* \"#utility.yul\":8317:8575   */\n    tag_281:\n        /* \"#utility.yul\":8389:8390   */\n      0x00\n        /* \"#utility.yul\":8399:8512   */\n    tag_342:\n        /* \"#utility.yul\":8413:8419   */\n      dup4\n        /* \"#utility.yul\":8410:8411   */\n      dup2\n        /* \"#utility.yul\":8407:8420   */\n      lt\n        /* \"#utility.yul\":8399:8512   */\n      iszero\n      tag_344\n      jumpi\n        /* \"#utility.yul\":8489:8500   */\n      dup2\n      dup2\n      add\n        /* \"#utility.yul\":8483:8501   */\n      mload\n        /* \"#utility.yul\":8470:8481   */\n      dup4\n      dup3\n      add\n        /* \"#utility.yul\":8463:8502   */\n      mstore\n        /* \"#utility.yul\":8435:8437   */\n      0x20\n        /* \"#utility.yul\":8428:8438   */\n      add\n        /* \"#utility.yul\":8399:8512   */\n      jump(tag_342)\n    tag_344:\n        /* \"#utility.yul\":8530:8536   */\n      dup4\n        /* \"#utility.yul\":8527:8528   */\n      dup2\n        /* \"#utility.yul\":8524:8537   */\n      gt\n        /* \"#utility.yul\":8521:8569   */\n      iszero\n      tag_345\n      jumpi\n        /* \"#utility.yul\":8565:8566   */\n      0x00\n        /* \"#utility.yul\":8556:8562   */\n      dup5\n        /* \"#utility.yul\":8551:8554   */\n      dup5\n        /* \"#utility.yul\":8547:8563   */\n      add\n        /* \"#utility.yul\":8540:8567   */\n      mstore\n        /* \"#utility.yul\":8521:8569   */\n    tag_345:\n      pop\n        /* \"#utility.yul\":8317:8575   */\n      pop\n      pop\n      pop\n      jump\t// out\n        /* \"#utility.yul\":8580:9366   */\n    tag_258:\n        /* \"#utility.yul\":8991:9016   */\n      0x416363657373436f6e74726f6c3a206163636f756e7420000000000000000000\n        /* \"#utility.yul\":8986:8989   */\n      dup2\n        /* \"#utility.yul\":8979:9017   */\n      mstore\n        /* \"#utility.yul\":8961:8964   */\n      0x00\n        /* \"#utility.yul\":9046:9052   */\n      dup4\n        /* \"#utility.yul\":9040:9053   */\n      mload\n        /* \"#utility.yul\":9062:9124   */\n      tag_347\n        /* \"#utility.yul\":9117:9123   */\n      dup2\n        /* \"#utility.yul\":9112:9114   */\n      0x17\n        /* \"#utility.yul\":9107:9110   */\n      dup6\n        /* \"#utility.yul\":9103:9115   */\n      add\n        /* \"#utility.yul\":9096:9100   */\n      0x20\n        /* \"#utility.yul\":9088:9094   */\n      dup9\n        /* \"#utility.yul\":9084:9101   */\n      add\n        /* \"#utility.yul\":9062:9124   */\n      tag_281\n      jump\t// in\n    tag_347:\n      shl(0x7d, 0x01034b99036b4b9b9b4b733903937b6329)\n        /* \"#utility.yul\":9183:9185   */\n      0x17\n        /* \"#utility.yul\":9143:9159   */\n      swap2\n      dup5\n      add\n        /* \"#utility.yul\":9175:9186   */\n      swap2\n      dup3\n      add\n        /* \"#utility.yul\":9168:9208   */\n      mstore\n        /* \"#utility.yul\":9233:9246   */\n      dup4\n      mload\n        /* \"#utility.yul\":9255:9318   */\n      tag_348\n        /* \"#utility.yul\":9233:9246   */\n      dup2\n        /* \"#utility.yul\":9304:9306   */\n      0x28\n        /* \"#utility.yul\":9296:9307   */\n      dup5\n      add\n        /* \"#utility.yul\":9289:9293   */\n      0x20\n        /* \"#utility.yul\":9277:9294   */\n      dup9\n      add\n        /* \"#utility.yul\":9255:9318   */\n      tag_281\n      jump\t// in\n    tag_348:\n        /* \"#utility.yul\":9338:9355   */\n      add\n        /* \"#utility.yul\":9357:9359   */\n      0x28\n        /* \"#utility.yul\":9334:9360   */\n      add\n      swap5\n        /* \"#utility.yul\":8580:9366   */\n      swap4\n      pop\n      pop\n      pop\n      pop\n      jump\t// out\n        /* \"#utility.yul\":9371:9754   */\n    tag_260:\n        /* \"#utility.yul\":9520:9522   */\n      0x20\n        /* \"#utility.yul\":9509:9518   */\n      dup2\n        /* \"#utility.yul\":9502:9523   */\n      mstore\n        /* \"#utility.yul\":9483:9487   */\n      0x00\n        /* \"#utility.yul\":9552:9558   */\n      dup3\n        /* \"#utility.yul\":9546:9559   */\n      mload\n        /* \"#utility.yul\":9595:9601   */\n      dup1\n        /* \"#utility.yul\":9590:9592   */\n      0x20\n        /* \"#utility.yul\":9579:9588   */\n      dup5\n        /* \"#utility.yul\":9575:9593   */\n      add\n        /* \"#utility.yul\":9568:9602   */\n      mstore\n        /* \"#utility.yul\":9611:9677   */\n      tag_350\n        /* \"#utility.yul\":9670:9676   */\n      dup2\n        /* \"#utility.yul\":9665:9667   */\n      0x40\n        /* \"#utility.yul\":9654:9663   */\n      dup6\n        /* \"#utility.yul\":9650:9668   */\n      add\n        /* \"#utility.yul\":9645:9647   */\n      0x20\n        /* \"#utility.yul\":9637:9643   */\n      dup8\n        /* \"#utility.yul\":9633:9648   */\n      add\n        /* \"#utility.yul\":9611:9677   */\n      tag_281\n      jump\t// in\n    tag_350:\n        /* \"#utility.yul\":9738:9740   */\n      0x1f\n        /* \"#utility.yul\":9717:9732   */\n      add\n      not(0x1f)\n        /* \"#utility.yul\":9713:9742   */\n      and\n        /* \"#utility.yul\":9698:9743   */\n      swap2\n      swap1\n      swap2\n      add\n        /* \"#utility.yul\":9745:9747   */\n      0x40\n        /* \"#utility.yul\":9694:9748   */\n      add\n      swap3\n        /* \"#utility.yul\":9371:9754   */\n      swap2\n      pop\n      pop\n      jump\t// out\n        /* \"#utility.yul\":9759:9894   */\n    tag_276:\n        /* \"#utility.yul\":9798:9801   */\n      0x00\n        /* \"#utility.yul\":9819:9836   */\n      0x01\n      dup3\n      add\n        /* \"#utility.yul\":9816:9859   */\n      tag_353\n      jumpi\n        /* \"#utility.yul\":9839:9857   */\n      tag_353\n      tag_280\n      jump\t// in\n    tag_353:\n      pop\n        /* \"#utility.yul\":9886:9887   */\n      0x01\n        /* \"#utility.yul\":9875:9888   */\n      add\n      swap1\n        /* \"#utility.yul\":9759:9894   */\n      jump\t// out\n\n    auxdata: 0xa2646970667358221220d3f11a80565222b131f69f9a4eeb280a85afd613c01b56c63c545784280dc7f864736f6c634300080f0033\n}\n",
				"bytecode": {
					"linkReferences": {},
					"object": "60806040523480156200001157600080fd5b5060405162001678380380620016788339810160408190526200003491620003a5565b60016002556200004660003362000064565b6200005182620000ed565b6200005c816200011d565b50506200055b565b60008281526001602090815260408083206001600160a01b038516845290915290205460ff16620000e95760008281526001602081815260408084206001600160a01b0386168086529252808420805460ff19169093179092559051339285917f2f8788117e7eff1d82e926ec794901d17c78024a50270940304540a733656f0d9190a45b5050565b6000620000fa8162000130565b50600380546001600160a01b0319166001600160a01b0392909216919091179055565b60006200012a8162000130565b50600055565b6200013c81336200013f565b50565b60008281526001602090815260408083206001600160a01b038516845290915290205460ff16620000e9576200018b816001600160a01b03166014620001e560201b620009c81760201c565b620001a1836020620009c8620001e5821b17811c565b604051602001620001b492919062000414565b60408051601f198184030181529082905262461bcd60e51b8252620001dc916004016200048d565b60405180910390fd5b60606000620001f6836002620004d8565b62000203906002620004fa565b6001600160401b038111156200021d576200021d62000515565b6040519080825280601f01601f19166020018201604052801562000248576020820181803683370190505b509050600360fc1b816000815181106200026657620002666200052b565b60200101906001600160f81b031916908160001a905350600f60fb1b816001815181106200029857620002986200052b565b60200101906001600160f81b031916908160001a9053506000620002be846002620004d8565b620002cb906001620004fa565b90505b60018111156200034d576f181899199a1a9b1b9c1cb0b131b232b360811b85600f16601081106200030357620003036200052b565b1a60f81b8282815181106200031c576200031c6200052b565b60200101906001600160f81b031916908160001a90535060049490941c93620003458162000541565b9050620002ce565b5083156200039e5760405162461bcd60e51b815260206004820181905260248201527f537472696e67733a20686578206c656e67746820696e73756666696369656e746044820152606401620001dc565b9392505050565b60008060408385031215620003b957600080fd5b82516001600160a01b0381168114620003d157600080fd5b6020939093015192949293505050565b60005b83811015620003fe578181015183820152602001620003e4565b838111156200040e576000848401525b50505050565b7f416363657373436f6e74726f6c3a206163636f756e74200000000000000000008152600083516200044e816017850160208801620003e1565b7001034b99036b4b9b9b4b733903937b6329607d1b601791840191820152835162000481816028840160208801620003e1565b01602801949350505050565b6020815260008251806020840152620004ae816040850160208701620003e1565b601f01601f19169190910160400192915050565b634e487b7160e01b600052601160045260246000fd5b6000816000190483118215151615620004f557620004f5620004c2565b500290565b60008219821115620005105762000510620004c2565b500190565b634e487b7160e01b600052604160045260246000fd5b634e487b7160e01b600052603260045260246000fd5b600081620005535762000553620004c2565b506000190190565b61110d806200056b6000396000f3fe6080604052600436106101145760003560e01c806361aec205116100a0578063a6f5f01411610064578063a6f5f014146102fb578063c4e41b221461031c578063d547741f14610331578063dd31a7ba14610351578063ff0938a71461037157600080fd5b806361aec205146102655780637cb647591461028557806391d14854146102a557806394f4504d146102c5578063a217fddf146102e657600080fd5b80632904e6d9116100e75780632904e6d9146101e75780632eb4a7ab146101fa5780632f2ff15d1461021057806336568abe146102305780634c0f38c21461025057600080fd5b806301ffc9a714610119578063248a9ca31461014e57806327c25c201461018d57806328438f68146101c5575b600080fd5b34801561012557600080fd5b50610139610134366004610dd5565b610386565b60405190151581526020015b60405180910390f35b34801561015a57600080fd5b5061017f610169366004610dff565b6000908152600160208190526040909120015490565b604051908152602001610145565b34801561019957600080fd5b506003546101ad906001600160a01b031681565b6040516001600160a01b039091168152602001610145565b3480156101d157600080fd5b506101e56101e0366004610e26565b6103bd565b005b6101e56101f5366004610e43565b6103e7565b34801561020657600080fd5b5061017f60005481565b34801561021c57600080fd5b506101e561022b366004610ed3565b61073a565b34801561023c57600080fd5b506101e561024b366004610ed3565b610765565b34801561025c57600080fd5b5061017f6107e3565b34801561027157600080fd5b506101e5610280366004610f03565b610856565b34801561029157600080fd5b506101e56102a0366004610dff565b610884565b3480156102b157600080fd5b506101396102c0366004610ed3565b610895565b3480156102d157600080fd5b5060035461013990600160a81b900460ff1681565b3480156102f257600080fd5b5061017f600081565b34801561030757600080fd5b5060035461013990600160a01b900460ff1681565b34801561032857600080fd5b5061017f6108c0565b34801561033d57600080fd5b506101e561034c366004610ed3565b61090a565b34801561035d57600080fd5b506101e561036c366004610e26565b610930565b34801561037d57600080fd5b5061013961095a565b60006001600160e01b03198216637965db0b60e01b14806103b757506301ffc9a760e01b6001600160e01b03198316145b92915050565b60006103c881610b6b565b5060038054911515600160a01b0260ff60a01b19909216919091179055565b600280540361043d5760405162461bcd60e51b815260206004820152601f60248201527f5265656e7472616e637947756172643a207265656e7472616e742063616c6c0060448201526064015b60405180910390fd5b6002805561044961095a565b1561048d5760405162461bcd60e51b81526020600482015260146024820152732730b3b0a5b4b239903bb0b9902830bab9b2b21760611b6044820152606401610434565b600354600160a81b900460ff1615156001146104eb5760405162461bcd60e51b815260206004820152601b60248201527f57686974656c697374206e6f74206f70656e20746f206d696e742e00000000006044820152606401610434565b6104576104f66108c0565b106105315760405162461bcd60e51b815260206004820152600b60248201526a4f76657220737570706c7960a81b6044820152606401610434565b6003546040805163d539139360e01b815290516001600160a01b03909216916391d1485491839163d5391393916004808201926020929091908290030181865afa158015610583573d6000803e3d6000fd5b505050506040513d601f19601f820116820180604052508101906105a79190610f20565b6040516001600160e01b031960e084901b1681526004810191909152306024820152604401602060405180830381865afa1580156105e9573d6000803e3d6000fd5b505050506040513d601f19601f8201168201806040525081019061060d9190610f39565b15156001146106715760405162461bcd60e51b815260206004820152602a60248201527f5468697320436f6e7472616374206e6f742068617665207065726d697373696f60448201526937103a379036b4b73a1760b11b6064820152608401610434565b61067d83833384610b78565b6106d35760405162461bcd60e51b815260206004820152602160248201527f556e617574686f72697a65642057686974656c697374205468697320557365726044820152601760f91b6064820152608401610434565b6003546040516340d097c360e01b81523360048201526001600160a01b03909116906340d097c390602401600060405180830381600087803b15801561071857600080fd5b505af115801561072c573d6000803e3d6000fd5b505060016002555050505050565b6000828152600160208190526040909120015461075681610b6b565b6107608383610c15565b505050565b6001600160a01b03811633146107d55760405162461bcd60e51b815260206004820152602f60248201527f416363657373436f6e74726f6c3a2063616e206f6e6c792072656e6f756e636560448201526e103937b632b9903337b91039b2b63360891b6064820152608401610434565b6107df8282610c80565b5050565b6003546040805163d5abeb0160e01b815290516000926001600160a01b03169163d5abeb019160048083019260209291908290030181865afa15801561082d573d6000803e3d6000fd5b505050506040513d601f19601f820116820180604052508101906108519190610f20565b905090565b600061086181610b6b565b50600380546001600160a01b0319166001600160a01b0392909216919091179055565b600061088f81610b6b565b50600055565b60009182526001602090815260408084206001600160a01b0393909316845291905290205460ff1690565b600354604080516318160ddd60e01b815290516000926001600160a01b0316916318160ddd9160048083019260209291908290030181865afa15801561082d573d6000803e3d6000fd5b6000828152600160208190526040909120015461092681610b6b565b6107608383610c80565b600061093b81610b6b565b5060038054911515600160a81b0260ff60a81b19909216919091179055565b60035460408051635c975abb60e01b815290516000926001600160a01b031691635c975abb9160048083019260209291908290030181865afa1580156109a4573d6000803e3d6000fd5b505050506040513d601f19601f820116820180604052508101906108519190610f39565b606060006109d7836002610f6c565b6109e2906002610f8b565b67ffffffffffffffff8111156109fa576109fa610fa3565b6040519080825280601f01601f191660200182016040528015610a24576020820181803683370190505b509050600360fc1b81600081518110610a3f57610a3f610fb9565b60200101906001600160f81b031916908160001a905350600f60fb1b81600181518110610a6e57610a6e610fb9565b60200101906001600160f81b031916908160001a9053506000610a92846002610f6c565b610a9d906001610f8b565b90505b6001811115610b15576f181899199a1a9b1b9c1cb0b131b232b360811b85600f1660108110610ad157610ad1610fb9565b1a60f81b828281518110610ae757610ae7610fb9565b60200101906001600160f81b031916908160001a90535060049490941c93610b0e81610fcf565b9050610aa0565b508315610b645760405162461bcd60e51b815260206004820181905260248201527f537472696e67733a20686578206c656e67746820696e73756666696369656e746044820152606401610434565b9392505050565b610b758133610ce7565b50565b600080548103610b8a57506000610c0d565b610c0a8585808060200260200160405190810160405280939291908181526020018383602002808284376000920182905250546040516bffffffffffffffffffffffff1960608b901b166020820152603481018990529093506054019150610bef9050565b60405160208183030381529060405280519060200120610d4b565b90505b949350505050565b610c1f8282610895565b6107df5760008281526001602081815260408084206001600160a01b0386168086529252808420805460ff19169093179092559051339285917f2f8788117e7eff1d82e926ec794901d17c78024a50270940304540a733656f0d9190a45050565b610c8a8282610895565b156107df5760008281526001602090815260408083206001600160a01b0385168085529252808320805460ff1916905551339285917ff6391f5c32d9c69d2a47ea670b442974b53935d1edc7fd64eb21e047a839171b9190a45050565b610cf18282610895565b6107df57610d09816001600160a01b031660146109c8565b610d148360206109c8565b604051602001610d25929190611016565b60408051601f198184030181529082905262461bcd60e51b82526104349160040161108b565b600082610d588584610d61565b14949350505050565b600081815b8451811015610dcd576000858281518110610d8357610d83610fb9565b60200260200101519050808311610da95760008381526020829052604090209250610dba565b600081815260208490526040902092505b5080610dc5816110be565b915050610d66565b509392505050565b600060208284031215610de757600080fd5b81356001600160e01b031981168114610b6457600080fd5b600060208284031215610e1157600080fd5b5035919050565b8015158114610b7557600080fd5b600060208284031215610e3857600080fd5b8135610b6481610e18565b600080600060408486031215610e5857600080fd5b833567ffffffffffffffff80821115610e7057600080fd5b818601915086601f830112610e8457600080fd5b813581811115610e9357600080fd5b8760208260051b8501011115610ea857600080fd5b6020928301989097509590910135949350505050565b6001600160a01b0381168114610b7557600080fd5b60008060408385031215610ee657600080fd5b823591506020830135610ef881610ebe565b809150509250929050565b600060208284031215610f1557600080fd5b8135610b6481610ebe565b600060208284031215610f3257600080fd5b5051919050565b600060208284031215610f4b57600080fd5b8151610b6481610e18565b634e487b7160e01b600052601160045260246000fd5b6000816000190483118215151615610f8657610f86610f56565b500290565b60008219821115610f9e57610f9e610f56565b500190565b634e487b7160e01b600052604160045260246000fd5b634e487b7160e01b600052603260045260246000fd5b600081610fde57610fde610f56565b506000190190565b60005b83811015611001578181015183820152602001610fe9565b83811115611010576000848401525b50505050565b7f416363657373436f6e74726f6c3a206163636f756e742000000000000000000081526000835161104e816017850160208801610fe6565b7001034b99036b4b9b9b4b733903937b6329607d1b601791840191820152835161107f816028840160208801610fe6565b01602801949350505050565b60208152600082518060208401526110aa816040850160208701610fe6565b601f01601f19169190910160400192915050565b6000600182016110d0576110d0610f56565b506001019056fea2646970667358221220d3f11a80565222b131f69f9a4eeb280a85afd613c01b56c63c545784280dc7f864736f6c634300080f0033",
					"opcodes": "PUSH1 0x80 PUSH1 0x40 MSTORE CALLVALUE DUP1 ISZERO PUSH3 0x11 JUMPI PUSH1 0x0 DUP1 REVERT JUMPDEST POP PUSH1 0x40 MLOAD PUSH3 0x1678 CODESIZE SUB DUP1 PUSH3 0x1678 DUP4 CODECOPY DUP2 ADD PUSH1 0x40 DUP2 SWAP1 MSTORE PUSH3 0x34 SWAP2 PUSH3 0x3A5 JUMP JUMPDEST PUSH1 0x1 PUSH1 0x2 SSTORE PUSH3 0x46 PUSH1 0x0 CALLER PUSH3 0x64 JUMP JUMPDEST PUSH3 0x51 DUP3 PUSH3 0xED JUMP JUMPDEST PUSH3 0x5C DUP2 PUSH3 0x11D JUMP JUMPDEST POP POP PUSH3 0x55B JUMP JUMPDEST PUSH1 0x0 DUP3 DUP2 MSTORE PUSH1 0x1 PUSH1 0x20 SWAP1 DUP2 MSTORE PUSH1 0x40 DUP1 DUP4 KECCAK256 PUSH1 0x1 PUSH1 0x1 PUSH1 0xA0 SHL SUB DUP6 AND DUP5 MSTORE SWAP1 SWAP2 MSTORE SWAP1 KECCAK256 SLOAD PUSH1 0xFF AND PUSH3 0xE9 JUMPI PUSH1 0x0 DUP3 DUP2 MSTORE PUSH1 0x1 PUSH1 0x20 DUP2 DUP2 MSTORE PUSH1 0x40 DUP1 DUP5 KECCAK256 PUSH1 0x1 PUSH1 0x1 PUSH1 0xA0 SHL SUB DUP7 AND DUP1 DUP7 MSTORE SWAP3 MSTORE DUP1 DUP5 KECCAK256 DUP1 SLOAD PUSH1 0xFF NOT AND SWAP1 SWAP4 OR SWAP1 SWAP3 SSTORE SWAP1 MLOAD CALLER SWAP3 DUP6 SWAP2 PUSH32 0x2F8788117E7EFF1D82E926EC794901D17C78024A50270940304540A733656F0D SWAP2 SWAP1 LOG4 JUMPDEST POP POP JUMP JUMPDEST PUSH1 0x0 PUSH3 0xFA DUP2 PUSH3 0x130 JUMP JUMPDEST POP PUSH1 0x3 DUP1 SLOAD PUSH1 0x1 PUSH1 0x1 PUSH1 0xA0 SHL SUB NOT AND PUSH1 0x1 PUSH1 0x1 PUSH1 0xA0 SHL SUB SWAP3 SWAP1 SWAP3 AND SWAP2 SWAP1 SWAP2 OR SWAP1 SSTORE JUMP JUMPDEST PUSH1 0x0 PUSH3 0x12A DUP2 PUSH3 0x130 JUMP JUMPDEST POP PUSH1 0x0 SSTORE JUMP JUMPDEST PUSH3 0x13C DUP2 CALLER PUSH3 0x13F JUMP JUMPDEST POP JUMP JUMPDEST PUSH1 0x0 DUP3 DUP2 MSTORE PUSH1 0x1 PUSH1 0x20 SWAP1 DUP2 MSTORE PUSH1 0x40 DUP1 DUP4 KECCAK256 PUSH1 0x1 PUSH1 0x1 PUSH1 0xA0 SHL SUB DUP6 AND DUP5 MSTORE SWAP1 SWAP2 MSTORE SWAP1 KECCAK256 SLOAD PUSH1 0xFF AND PUSH3 0xE9 JUMPI PUSH3 0x18B DUP2 PUSH1 0x1 PUSH1 0x1 PUSH1 0xA0 SHL SUB AND PUSH1 0x14 PUSH3 0x1E5 PUSH1 0x20 SHL PUSH3 0x9C8 OR PUSH1 0x20 SHR JUMP JUMPDEST PUSH3 0x1A1 DUP4 PUSH1 0x20 PUSH3 0x9C8 PUSH3 0x1E5 DUP3 SHL OR DUP2 SHR JUMP JUMPDEST PUSH1 0x40 MLOAD PUSH1 0x20 ADD PUSH3 0x1B4 SWAP3 SWAP2 SWAP1 PUSH3 0x414 JUMP JUMPDEST PUSH1 0x40 DUP1 MLOAD PUSH1 0x1F NOT DUP2 DUP5 SUB ADD DUP2 MSTORE SWAP1 DUP3 SWAP1 MSTORE PUSH3 0x461BCD PUSH1 0xE5 SHL DUP3 MSTORE PUSH3 0x1DC SWAP2 PUSH1 0x4 ADD PUSH3 0x48D JUMP JUMPDEST PUSH1 0x40 MLOAD DUP1 SWAP2 SUB SWAP1 REVERT JUMPDEST PUSH1 0x60 PUSH1 0x0 PUSH3 0x1F6 DUP4 PUSH1 0x2 PUSH3 0x4D8 JUMP JUMPDEST PUSH3 0x203 SWAP1 PUSH1 0x2 PUSH3 0x4FA JUMP JUMPDEST PUSH1 0x1 PUSH1 0x1 PUSH1 0x40 SHL SUB DUP2 GT ISZERO PUSH3 0x21D JUMPI PUSH3 0x21D PUSH3 0x515 JUMP JUMPDEST PUSH1 0x40 MLOAD SWAP1 DUP1 DUP3 MSTORE DUP1 PUSH1 0x1F ADD PUSH1 0x1F NOT AND PUSH1 0x20 ADD DUP3 ADD PUSH1 0x40 MSTORE DUP1 ISZERO PUSH3 0x248 JUMPI PUSH1 0x20 DUP3 ADD DUP2 DUP1 CALLDATASIZE DUP4 CALLDATACOPY ADD SWAP1 POP JUMPDEST POP SWAP1 POP PUSH1 0x3 PUSH1 0xFC SHL DUP2 PUSH1 0x0 DUP2 MLOAD DUP2 LT PUSH3 0x266 JUMPI PUSH3 0x266 PUSH3 0x52B JUMP JUMPDEST PUSH1 0x20 ADD ADD SWAP1 PUSH1 0x1 PUSH1 0x1 PUSH1 0xF8 SHL SUB NOT AND SWAP1 DUP2 PUSH1 0x0 BYTE SWAP1 MSTORE8 POP PUSH1 0xF PUSH1 0xFB SHL DUP2 PUSH1 0x1 DUP2 MLOAD DUP2 LT PUSH3 0x298 JUMPI PUSH3 0x298 PUSH3 0x52B JUMP JUMPDEST PUSH1 0x20 ADD ADD SWAP1 PUSH1 0x1 PUSH1 0x1 PUSH1 0xF8 SHL SUB NOT AND SWAP1 DUP2 PUSH1 0x0 BYTE SWAP1 MSTORE8 POP PUSH1 0x0 PUSH3 0x2BE DUP5 PUSH1 0x2 PUSH3 0x4D8 JUMP JUMPDEST PUSH3 0x2CB SWAP1 PUSH1 0x1 PUSH3 0x4FA JUMP JUMPDEST SWAP1 POP JUMPDEST PUSH1 0x1 DUP2 GT ISZERO PUSH3 0x34D JUMPI PUSH16 0x181899199A1A9B1B9C1CB0B131B232B3 PUSH1 0x81 SHL DUP6 PUSH1 0xF AND PUSH1 0x10 DUP2 LT PUSH3 0x303 JUMPI PUSH3 0x303 PUSH3 0x52B JUMP JUMPDEST BYTE PUSH1 0xF8 SHL DUP3 DUP3 DUP2 MLOAD DUP2 LT PUSH3 0x31C JUMPI PUSH3 0x31C PUSH3 0x52B JUMP JUMPDEST PUSH1 0x20 ADD ADD SWAP1 PUSH1 0x1 PUSH1 0x1 PUSH1 0xF8 SHL SUB NOT AND SWAP1 DUP2 PUSH1 0x0 BYTE SWAP1 MSTORE8 POP PUSH1 0x4 SWAP5 SWAP1 SWAP5 SHR SWAP4 PUSH3 0x345 DUP2 PUSH3 0x541 JUMP JUMPDEST SWAP1 POP PUSH3 0x2CE JUMP JUMPDEST POP DUP4 ISZERO PUSH3 0x39E JUMPI PUSH1 0x40 MLOAD PUSH3 0x461BCD PUSH1 0xE5 SHL DUP2 MSTORE PUSH1 0x20 PUSH1 0x4 DUP3 ADD DUP2 SWAP1 MSTORE PUSH1 0x24 DUP3 ADD MSTORE PUSH32 0x537472696E67733A20686578206C656E67746820696E73756666696369656E74 PUSH1 0x44 DUP3 ADD MSTORE PUSH1 0x64 ADD PUSH3 0x1DC JUMP JUMPDEST SWAP4 SWAP3 POP POP POP JUMP JUMPDEST PUSH1 0x0 DUP1 PUSH1 0x40 DUP4 DUP6 SUB SLT ISZERO PUSH3 0x3B9 JUMPI PUSH1 0x0 DUP1 REVERT JUMPDEST DUP3 MLOAD PUSH1 0x1 PUSH1 0x1 PUSH1 0xA0 SHL SUB DUP2 AND DUP2 EQ PUSH3 0x3D1 JUMPI PUSH1 0x0 DUP1 REVERT JUMPDEST PUSH1 0x20 SWAP4 SWAP1 SWAP4 ADD MLOAD SWAP3 SWAP5 SWAP3 SWAP4 POP POP POP JUMP JUMPDEST PUSH1 0x0 JUMPDEST DUP4 DUP2 LT ISZERO PUSH3 0x3FE JUMPI DUP2 DUP2 ADD MLOAD DUP4 DUP3 ADD MSTORE PUSH1 0x20 ADD PUSH3 0x3E4 JUMP JUMPDEST DUP4 DUP2 GT ISZERO PUSH3 0x40E JUMPI PUSH1 0x0 DUP5 DUP5 ADD MSTORE JUMPDEST POP POP POP POP JUMP JUMPDEST PUSH32 0x416363657373436F6E74726F6C3A206163636F756E7420000000000000000000 DUP2 MSTORE PUSH1 0x0 DUP4 MLOAD PUSH3 0x44E DUP2 PUSH1 0x17 DUP6 ADD PUSH1 0x20 DUP9 ADD PUSH3 0x3E1 JUMP JUMPDEST PUSH17 0x1034B99036B4B9B9B4B733903937B6329 PUSH1 0x7D SHL PUSH1 0x17 SWAP2 DUP5 ADD SWAP2 DUP3 ADD MSTORE DUP4 MLOAD PUSH3 0x481 DUP2 PUSH1 0x28 DUP5 ADD PUSH1 0x20 DUP9 ADD PUSH3 0x3E1 JUMP JUMPDEST ADD PUSH1 0x28 ADD SWAP5 SWAP4 POP POP POP POP JUMP JUMPDEST PUSH1 0x20 DUP2 MSTORE PUSH1 0x0 DUP3 MLOAD DUP1 PUSH1 0x20 DUP5 ADD MSTORE PUSH3 0x4AE DUP2 PUSH1 0x40 DUP6 ADD PUSH1 0x20 DUP8 ADD PUSH3 0x3E1 JUMP JUMPDEST PUSH1 0x1F ADD PUSH1 0x1F NOT AND SWAP2 SWAP1 SWAP2 ADD PUSH1 0x40 ADD SWAP3 SWAP2 POP POP JUMP JUMPDEST PUSH4 0x4E487B71 PUSH1 0xE0 SHL PUSH1 0x0 MSTORE PUSH1 0x11 PUSH1 0x4 MSTORE PUSH1 0x24 PUSH1 0x0 REVERT JUMPDEST PUSH1 0x0 DUP2 PUSH1 0x0 NOT DIV DUP4 GT DUP3 ISZERO ISZERO AND ISZERO PUSH3 0x4F5 JUMPI PUSH3 0x4F5 PUSH3 0x4C2 JUMP JUMPDEST POP MUL SWAP1 JUMP JUMPDEST PUSH1 0x0 DUP3 NOT DUP3 GT ISZERO PUSH3 0x510 JUMPI PUSH3 0x510 PUSH3 0x4C2 JUMP JUMPDEST POP ADD SWAP1 JUMP JUMPDEST PUSH4 0x4E487B71 PUSH1 0xE0 SHL PUSH1 0x0 MSTORE PUSH1 0x41 PUSH1 0x4 MSTORE PUSH1 0x24 PUSH1 0x0 REVERT JUMPDEST PUSH4 0x4E487B71 PUSH1 0xE0 SHL PUSH1 0x0 MSTORE PUSH1 0x32 PUSH1 0x4 MSTORE PUSH1 0x24 PUSH1 0x0 REVERT JUMPDEST PUSH1 0x0 DUP2 PUSH3 0x553 JUMPI PUSH3 0x553 PUSH3 0x4C2 JUMP JUMPDEST POP PUSH1 0x0 NOT ADD SWAP1 JUMP JUMPDEST PUSH2 0x110D DUP1 PUSH3 0x56B PUSH1 0x0 CODECOPY PUSH1 0x0 RETURN INVALID PUSH1 0x80 PUSH1 0x40 MSTORE PUSH1 0x4 CALLDATASIZE LT PUSH2 0x114 JUMPI PUSH1 0x0 CALLDATALOAD PUSH1 0xE0 SHR DUP1 PUSH4 0x61AEC205 GT PUSH2 0xA0 JUMPI DUP1 PUSH4 0xA6F5F014 GT PUSH2 0x64 JUMPI DUP1 PUSH4 0xA6F5F014 EQ PUSH2 0x2FB JUMPI DUP1 PUSH4 0xC4E41B22 EQ PUSH2 0x31C JUMPI DUP1 PUSH4 0xD547741F EQ PUSH2 0x331 JUMPI DUP1 PUSH4 0xDD31A7BA EQ PUSH2 0x351 JUMPI DUP1 PUSH4 0xFF0938A7 EQ PUSH2 0x371 JUMPI PUSH1 0x0 DUP1 REVERT JUMPDEST DUP1 PUSH4 0x61AEC205 EQ PUSH2 0x265 JUMPI DUP1 PUSH4 0x7CB64759 EQ PUSH2 0x285 JUMPI DUP1 PUSH4 0x91D14854 EQ PUSH2 0x2A5 JUMPI DUP1 PUSH4 0x94F4504D EQ PUSH2 0x2C5 JUMPI DUP1 PUSH4 0xA217FDDF EQ PUSH2 0x2E6 JUMPI PUSH1 0x0 DUP1 REVERT JUMPDEST DUP1 PUSH4 0x2904E6D9 GT PUSH2 0xE7 JUMPI DUP1 PUSH4 0x2904E6D9 EQ PUSH2 0x1E7 JUMPI DUP1 PUSH4 0x2EB4A7AB EQ PUSH2 0x1FA JUMPI DUP1 PUSH4 0x2F2FF15D EQ PUSH2 0x210 JUMPI DUP1 PUSH4 0x36568ABE EQ PUSH2 0x230 JUMPI DUP1 PUSH4 0x4C0F38C2 EQ PUSH2 0x250 JUMPI PUSH1 0x0 DUP1 REVERT JUMPDEST DUP1 PUSH4 0x1FFC9A7 EQ PUSH2 0x119 JUMPI DUP1 PUSH4 0x248A9CA3 EQ PUSH2 0x14E JUMPI DUP1 PUSH4 0x27C25C20 EQ PUSH2 0x18D JUMPI DUP1 PUSH4 0x28438F68 EQ PUSH2 0x1C5 JUMPI JUMPDEST PUSH1 0x0 DUP1 REVERT JUMPDEST CALLVALUE DUP1 ISZERO PUSH2 0x125 JUMPI PUSH1 0x0 DUP1 REVERT JUMPDEST POP PUSH2 0x139 PUSH2 0x134 CALLDATASIZE PUSH1 0x4 PUSH2 0xDD5 JUMP JUMPDEST PUSH2 0x386 JUMP JUMPDEST PUSH1 0x40 MLOAD SWAP1 ISZERO ISZERO DUP2 MSTORE PUSH1 0x20 ADD JUMPDEST PUSH1 0x40 MLOAD DUP1 SWAP2 SUB SWAP1 RETURN JUMPDEST CALLVALUE DUP1 ISZERO PUSH2 0x15A JUMPI PUSH1 0x0 DUP1 REVERT JUMPDEST POP PUSH2 0x17F PUSH2 0x169 CALLDATASIZE PUSH1 0x4 PUSH2 0xDFF JUMP JUMPDEST PUSH1 0x0 SWAP1 DUP2 MSTORE PUSH1 0x1 PUSH1 0x20 DUP2 SWAP1 MSTORE PUSH1 0x40 SWAP1 SWAP2 KECCAK256 ADD SLOAD SWAP1 JUMP JUMPDEST PUSH1 0x40 MLOAD SWAP1 DUP2 MSTORE PUSH1 0x20 ADD PUSH2 0x145 JUMP JUMPDEST CALLVALUE DUP1 ISZERO PUSH2 0x199 JUMPI PUSH1 0x0 DUP1 REVERT JUMPDEST POP PUSH1 0x3 SLOAD PUSH2 0x1AD SWAP1 PUSH1 0x1 PUSH1 0x1 PUSH1 0xA0 SHL SUB AND DUP2 JUMP JUMPDEST PUSH1 0x40 MLOAD PUSH1 0x1 PUSH1 0x1 PUSH1 0xA0 SHL SUB SWAP1 SWAP2 AND DUP2 MSTORE PUSH1 0x20 ADD PUSH2 0x145 JUMP JUMPDEST CALLVALUE DUP1 ISZERO PUSH2 0x1D1 JUMPI PUSH1 0x0 DUP1 REVERT JUMPDEST POP PUSH2 0x1E5 PUSH2 0x1E0 CALLDATASIZE PUSH1 0x4 PUSH2 0xE26 JUMP JUMPDEST PUSH2 0x3BD JUMP JUMPDEST STOP JUMPDEST PUSH2 0x1E5 PUSH2 0x1F5 CALLDATASIZE PUSH1 0x4 PUSH2 0xE43 JUMP JUMPDEST PUSH2 0x3E7 JUMP JUMPDEST CALLVALUE DUP1 ISZERO PUSH2 0x206 JUMPI PUSH1 0x0 DUP1 REVERT JUMPDEST POP PUSH2 0x17F PUSH1 0x0 SLOAD DUP2 JUMP JUMPDEST CALLVALUE DUP1 ISZERO PUSH2 0x21C JUMPI PUSH1 0x0 DUP1 REVERT JUMPDEST POP PUSH2 0x1E5 PUSH2 0x22B CALLDATASIZE PUSH1 0x4 PUSH2 0xED3 JUMP JUMPDEST PUSH2 0x73A JUMP JUMPDEST CALLVALUE DUP1 ISZERO PUSH2 0x23C JUMPI PUSH1 0x0 DUP1 REVERT JUMPDEST POP PUSH2 0x1E5 PUSH2 0x24B CALLDATASIZE PUSH1 0x4 PUSH2 0xED3 JUMP JUMPDEST PUSH2 0x765 JUMP JUMPDEST CALLVALUE DUP1 ISZERO PUSH2 0x25C JUMPI PUSH1 0x0 DUP1 REVERT JUMPDEST POP PUSH2 0x17F PUSH2 0x7E3 JUMP JUMPDEST CALLVALUE DUP1 ISZERO PUSH2 0x271 JUMPI PUSH1 0x0 DUP1 REVERT JUMPDEST POP PUSH2 0x1E5 PUSH2 0x280 CALLDATASIZE PUSH1 0x4 PUSH2 0xF03 JUMP JUMPDEST PUSH2 0x856 JUMP JUMPDEST CALLVALUE DUP1 ISZERO PUSH2 0x291 JUMPI PUSH1 0x0 DUP1 REVERT JUMPDEST POP PUSH2 0x1E5 PUSH2 0x2A0 CALLDATASIZE PUSH1 0x4 PUSH2 0xDFF JUMP JUMPDEST PUSH2 0x884 JUMP JUMPDEST CALLVALUE DUP1 ISZERO PUSH2 0x2B1 JUMPI PUSH1 0x0 DUP1 REVERT JUMPDEST POP PUSH2 0x139 PUSH2 0x2C0 CALLDATASIZE PUSH1 0x4 PUSH2 0xED3 JUMP JUMPDEST PUSH2 0x895 JUMP JUMPDEST CALLVALUE DUP1 ISZERO PUSH2 0x2D1 JUMPI PUSH1 0x0 DUP1 REVERT JUMPDEST POP PUSH1 0x3 SLOAD PUSH2 0x139 SWAP1 PUSH1 0x1 PUSH1 0xA8 SHL SWAP1 DIV PUSH1 0xFF AND DUP2 JUMP JUMPDEST CALLVALUE DUP1 ISZERO PUSH2 0x2F2 JUMPI PUSH1 0x0 DUP1 REVERT JUMPDEST POP PUSH2 0x17F PUSH1 0x0 DUP2 JUMP JUMPDEST CALLVALUE DUP1 ISZERO PUSH2 0x307 JUMPI PUSH1 0x0 DUP1 REVERT JUMPDEST POP PUSH1 0x3 SLOAD PUSH2 0x139 SWAP1 PUSH1 0x1 PUSH1 0xA0 SHL SWAP1 DIV PUSH1 0xFF AND DUP2 JUMP JUMPDEST CALLVALUE DUP1 ISZERO PUSH2 0x328 JUMPI PUSH1 0x0 DUP1 REVERT JUMPDEST POP PUSH2 0x17F PUSH2 0x8C0 JUMP JUMPDEST CALLVALUE DUP1 ISZERO PUSH2 0x33D JUMPI PUSH1 0x0 DUP1 REVERT JUMPDEST POP PUSH2 0x1E5 PUSH2 0x34C CALLDATASIZE PUSH1 0x4 PUSH2 0xED3 JUMP JUMPDEST PUSH2 0x90A JUMP JUMPDEST CALLVALUE DUP1 ISZERO PUSH2 0x35D JUMPI PUSH1 0x0 DUP1 REVERT JUMPDEST POP PUSH2 0x1E5 PUSH2 0x36C CALLDATASIZE PUSH1 0x4 PUSH2 0xE26 JUMP JUMPDEST PUSH2 0x930 JUMP JUMPDEST CALLVALUE DUP1 ISZERO PUSH2 0x37D JUMPI PUSH1 0x0 DUP1 REVERT JUMPDEST POP PUSH2 0x139 PUSH2 0x95A JUMP JUMPDEST PUSH1 0x0 PUSH1 0x1 PUSH1 0x1 PUSH1 0xE0 SHL SUB NOT DUP3 AND PUSH4 0x7965DB0B PUSH1 0xE0 SHL EQ DUP1 PUSH2 0x3B7 JUMPI POP PUSH4 0x1FFC9A7 PUSH1 0xE0 SHL PUSH1 0x1 PUSH1 0x1 PUSH1 0xE0 SHL SUB NOT DUP4 AND EQ JUMPDEST SWAP3 SWAP2 POP POP JUMP JUMPDEST PUSH1 0x0 PUSH2 0x3C8 DUP2 PUSH2 0xB6B JUMP JUMPDEST POP PUSH1 0x3 DUP1 SLOAD SWAP2 ISZERO ISZERO PUSH1 0x1 PUSH1 0xA0 SHL MUL PUSH1 0xFF PUSH1 0xA0 SHL NOT SWAP1 SWAP3 AND SWAP2 SWAP1 SWAP2 OR SWAP1 SSTORE JUMP JUMPDEST PUSH1 0x2 DUP1 SLOAD SUB PUSH2 0x43D JUMPI PUSH1 0x40 MLOAD PUSH3 0x461BCD PUSH1 0xE5 SHL DUP2 MSTORE PUSH1 0x20 PUSH1 0x4 DUP3 ADD MSTORE PUSH1 0x1F PUSH1 0x24 DUP3 ADD MSTORE PUSH32 0x5265656E7472616E637947756172643A207265656E7472616E742063616C6C00 PUSH1 0x44 DUP3 ADD MSTORE PUSH1 0x64 ADD JUMPDEST PUSH1 0x40 MLOAD DUP1 SWAP2 SUB SWAP1 REVERT JUMPDEST PUSH1 0x2 DUP1 SSTORE PUSH2 0x449 PUSH2 0x95A JUMP JUMPDEST ISZERO PUSH2 0x48D JUMPI PUSH1 0x40 MLOAD PUSH3 0x461BCD PUSH1 0xE5 SHL DUP2 MSTORE PUSH1 0x20 PUSH1 0x4 DUP3 ADD MSTORE PUSH1 0x14 PUSH1 0x24 DUP3 ADD MSTORE PUSH20 0x2730B3B0A5B4B239903BB0B9902830BAB9B2B217 PUSH1 0x61 SHL PUSH1 0x44 DUP3 ADD MSTORE PUSH1 0x64 ADD PUSH2 0x434 JUMP JUMPDEST PUSH1 0x3 SLOAD PUSH1 0x1 PUSH1 0xA8 SHL SWAP1 DIV PUSH1 0xFF AND ISZERO ISZERO PUSH1 0x1 EQ PUSH2 0x4EB JUMPI PUSH1 0x40 MLOAD PUSH3 0x461BCD PUSH1 0xE5 SHL DUP2 MSTORE PUSH1 0x20 PUSH1 0x4 DUP3 ADD MSTORE PUSH1 0x1B PUSH1 0x24 DUP3 ADD MSTORE PUSH32 0x57686974656C697374206E6F74206F70656E20746F206D696E742E0000000000 PUSH1 0x44 DUP3 ADD MSTORE PUSH1 0x64 ADD PUSH2 0x434 JUMP JUMPDEST PUSH2 0x457 PUSH2 0x4F6 PUSH2 0x8C0 JUMP JUMPDEST LT PUSH2 0x531 JUMPI PUSH1 0x40 MLOAD PUSH3 0x461BCD PUSH1 0xE5 SHL DUP2 MSTORE PUSH1 0x20 PUSH1 0x4 DUP3 ADD MSTORE PUSH1 0xB PUSH1 0x24 DUP3 ADD MSTORE PUSH11 0x4F76657220737570706C79 PUSH1 0xA8 SHL PUSH1 0x44 DUP3 ADD MSTORE PUSH1 0x64 ADD PUSH2 0x434 JUMP JUMPDEST PUSH1 0x3 SLOAD PUSH1 0x40 DUP1 MLOAD PUSH4 0xD5391393 PUSH1 0xE0 SHL DUP2 MSTORE SWAP1 MLOAD PUSH1 0x1 PUSH1 0x1 PUSH1 0xA0 SHL SUB SWAP1 SWAP3 AND SWAP2 PUSH4 0x91D14854 SWAP2 DUP4 SWAP2 PUSH4 0xD5391393 SWAP2 PUSH1 0x4 DUP1 DUP3 ADD SWAP3 PUSH1 0x20 SWAP3 SWAP1 SWAP2 SWAP1 DUP3 SWAP1 SUB ADD DUP2 DUP7 GAS STATICCALL ISZERO DUP1 ISZERO PUSH2 0x583 JUMPI RETURNDATASIZE PUSH1 0x0 DUP1 RETURNDATACOPY RETURNDATASIZE PUSH1 0x0 REVERT JUMPDEST POP POP POP POP PUSH1 0x40 MLOAD RETURNDATASIZE PUSH1 0x1F NOT PUSH1 0x1F DUP3 ADD AND DUP3 ADD DUP1 PUSH1 0x40 MSTORE POP DUP2 ADD SWAP1 PUSH2 0x5A7 SWAP2 SWAP1 PUSH2 0xF20 JUMP JUMPDEST PUSH1 0x40 MLOAD PUSH1 0x1 PUSH1 0x1 PUSH1 0xE0 SHL SUB NOT PUSH1 0xE0 DUP5 SWAP1 SHL AND DUP2 MSTORE PUSH1 0x4 DUP2 ADD SWAP2 SWAP1 SWAP2 MSTORE ADDRESS PUSH1 0x24 DUP3 ADD MSTORE PUSH1 0x44 ADD PUSH1 0x20 PUSH1 0x40 MLOAD DUP1 DUP4 SUB DUP2 DUP7 GAS STATICCALL ISZERO DUP1 ISZERO PUSH2 0x5E9 JUMPI RETURNDATASIZE PUSH1 0x0 DUP1 RETURNDATACOPY RETURNDATASIZE PUSH1 0x0 REVERT JUMPDEST POP POP POP POP PUSH1 0x40 MLOAD RETURNDATASIZE PUSH1 0x1F NOT PUSH1 0x1F DUP3 ADD AND DUP3 ADD DUP1 PUSH1 0x40 MSTORE POP DUP2 ADD SWAP1 PUSH2 0x60D SWAP2 SWAP1 PUSH2 0xF39 JUMP JUMPDEST ISZERO ISZERO PUSH1 0x1 EQ PUSH2 0x671 JUMPI PUSH1 0x40 MLOAD PUSH3 0x461BCD PUSH1 0xE5 SHL DUP2 MSTORE PUSH1 0x20 PUSH1 0x4 DUP3 ADD MSTORE PUSH1 0x2A PUSH1 0x24 DUP3 ADD MSTORE PUSH32 0x5468697320436F6E7472616374206E6F742068617665207065726D697373696F PUSH1 0x44 DUP3 ADD MSTORE PUSH10 0x37103A379036B4B73A17 PUSH1 0xB1 SHL PUSH1 0x64 DUP3 ADD MSTORE PUSH1 0x84 ADD PUSH2 0x434 JUMP JUMPDEST PUSH2 0x67D DUP4 DUP4 CALLER DUP5 PUSH2 0xB78 JUMP JUMPDEST PUSH2 0x6D3 JUMPI PUSH1 0x40 MLOAD PUSH3 0x461BCD PUSH1 0xE5 SHL DUP2 MSTORE PUSH1 0x20 PUSH1 0x4 DUP3 ADD MSTORE PUSH1 0x21 PUSH1 0x24 DUP3 ADD MSTORE PUSH32 0x556E617574686F72697A65642057686974656C69737420546869732055736572 PUSH1 0x44 DUP3 ADD MSTORE PUSH1 0x17 PUSH1 0xF9 SHL PUSH1 0x64 DUP3 ADD MSTORE PUSH1 0x84 ADD PUSH2 0x434 JUMP JUMPDEST PUSH1 0x3 SLOAD PUSH1 0x40 MLOAD PUSH4 0x40D097C3 PUSH1 0xE0 SHL DUP2 MSTORE CALLER PUSH1 0x4 DUP3 ADD MSTORE PUSH1 0x1 PUSH1 0x1 PUSH1 0xA0 SHL SUB SWAP1 SWAP2 AND SWAP1 PUSH4 0x40D097C3 SWAP1 PUSH1 0x24 ADD PUSH1 0x0 PUSH1 0x40 MLOAD DUP1 DUP4 SUB DUP2 PUSH1 0x0 DUP8 DUP1 EXTCODESIZE ISZERO DUP1 ISZERO PUSH2 0x718 JUMPI PUSH1 0x0 DUP1 REVERT JUMPDEST POP GAS CALL ISZERO DUP1 ISZERO PUSH2 0x72C JUMPI RETURNDATASIZE PUSH1 0x0 DUP1 RETURNDATACOPY RETURNDATASIZE PUSH1 0x0 REVERT JUMPDEST POP POP PUSH1 0x1 PUSH1 0x2 SSTORE POP POP POP POP POP JUMP JUMPDEST PUSH1 0x0 DUP3 DUP2 MSTORE PUSH1 0x1 PUSH1 0x20 DUP2 SWAP1 MSTORE PUSH1 0x40 SWAP1 SWAP2 KECCAK256 ADD SLOAD PUSH2 0x756 DUP2 PUSH2 0xB6B JUMP JUMPDEST PUSH2 0x760 DUP4 DUP4 PUSH2 0xC15 JUMP JUMPDEST POP POP POP JUMP JUMPDEST PUSH1 0x1 PUSH1 0x1 PUSH1 0xA0 SHL SUB DUP2 AND CALLER EQ PUSH2 0x7D5 JUMPI PUSH1 0x40 MLOAD PUSH3 0x461BCD PUSH1 0xE5 SHL DUP2 MSTORE PUSH1 0x20 PUSH1 0x4 DUP3 ADD MSTORE PUSH1 0x2F PUSH1 0x24 DUP3 ADD MSTORE PUSH32 0x416363657373436F6E74726F6C3A2063616E206F6E6C792072656E6F756E6365 PUSH1 0x44 DUP3 ADD MSTORE PUSH15 0x103937B632B9903337B91039B2B633 PUSH1 0x89 SHL PUSH1 0x64 DUP3 ADD MSTORE PUSH1 0x84 ADD PUSH2 0x434 JUMP JUMPDEST PUSH2 0x7DF DUP3 DUP3 PUSH2 0xC80 JUMP JUMPDEST POP POP JUMP JUMPDEST PUSH1 0x3 SLOAD PUSH1 0x40 DUP1 MLOAD PUSH4 0xD5ABEB01 PUSH1 0xE0 SHL DUP2 MSTORE SWAP1 MLOAD PUSH1 0x0 SWAP3 PUSH1 0x1 PUSH1 0x1 PUSH1 0xA0 SHL SUB AND SWAP2 PUSH4 0xD5ABEB01 SWAP2 PUSH1 0x4 DUP1 DUP4 ADD SWAP3 PUSH1 0x20 SWAP3 SWAP2 SWAP1 DUP3 SWAP1 SUB ADD DUP2 DUP7 GAS STATICCALL ISZERO DUP1 ISZERO PUSH2 0x82D JUMPI RETURNDATASIZE PUSH1 0x0 DUP1 RETURNDATACOPY RETURNDATASIZE PUSH1 0x0 REVERT JUMPDEST POP POP POP POP PUSH1 0x40 MLOAD RETURNDATASIZE PUSH1 0x1F NOT PUSH1 0x1F DUP3 ADD AND DUP3 ADD DUP1 PUSH1 0x40 MSTORE POP DUP2 ADD SWAP1 PUSH2 0x851 SWAP2 SWAP1 PUSH2 0xF20 JUMP JUMPDEST SWAP1 POP SWAP1 JUMP JUMPDEST PUSH1 0x0 PUSH2 0x861 DUP2 PUSH2 0xB6B JUMP JUMPDEST POP PUSH1 0x3 DUP1 SLOAD PUSH1 0x1 PUSH1 0x1 PUSH1 0xA0 SHL SUB NOT AND PUSH1 0x1 PUSH1 0x1 PUSH1 0xA0 SHL SUB SWAP3 SWAP1 SWAP3 AND SWAP2 SWAP1 SWAP2 OR SWAP1 SSTORE JUMP JUMPDEST PUSH1 0x0 PUSH2 0x88F DUP2 PUSH2 0xB6B JUMP JUMPDEST POP PUSH1 0x0 SSTORE JUMP JUMPDEST PUSH1 0x0 SWAP2 DUP3 MSTORE PUSH1 0x1 PUSH1 0x20 SWAP1 DUP2 MSTORE PUSH1 0x40 DUP1 DUP5 KECCAK256 PUSH1 0x1 PUSH1 0x1 PUSH1 0xA0 SHL SUB SWAP4 SWAP1 SWAP4 AND DUP5 MSTORE SWAP2 SWAP1 MSTORE SWAP1 KECCAK256 SLOAD PUSH1 0xFF AND SWAP1 JUMP JUMPDEST PUSH1 0x3 SLOAD PUSH1 0x40 DUP1 MLOAD PUSH4 0x18160DDD PUSH1 0xE0 SHL DUP2 MSTORE SWAP1 MLOAD PUSH1 0x0 SWAP3 PUSH1 0x1 PUSH1 0x1 PUSH1 0xA0 SHL SUB AND SWAP2 PUSH4 0x18160DDD SWAP2 PUSH1 0x4 DUP1 DUP4 ADD SWAP3 PUSH1 0x20 SWAP3 SWAP2 SWAP1 DUP3 SWAP1 SUB ADD DUP2 DUP7 GAS STATICCALL ISZERO DUP1 ISZERO PUSH2 0x82D JUMPI RETURNDATASIZE PUSH1 0x0 DUP1 RETURNDATACOPY RETURNDATASIZE PUSH1 0x0 REVERT JUMPDEST PUSH1 0x0 DUP3 DUP2 MSTORE PUSH1 0x1 PUSH1 0x20 DUP2 SWAP1 MSTORE PUSH1 0x40 SWAP1 SWAP2 KECCAK256 ADD SLOAD PUSH2 0x926 DUP2 PUSH2 0xB6B JUMP JUMPDEST PUSH2 0x760 DUP4 DUP4 PUSH2 0xC80 JUMP JUMPDEST PUSH1 0x0 PUSH2 0x93B DUP2 PUSH2 0xB6B JUMP JUMPDEST POP PUSH1 0x3 DUP1 SLOAD SWAP2 ISZERO ISZERO PUSH1 0x1 PUSH1 0xA8 SHL MUL PUSH1 0xFF PUSH1 0xA8 SHL NOT SWAP1 SWAP3 AND SWAP2 SWAP1 SWAP2 OR SWAP1 SSTORE JUMP JUMPDEST PUSH1 0x3 SLOAD PUSH1 0x40 DUP1 MLOAD PUSH4 0x5C975ABB PUSH1 0xE0 SHL DUP2 MSTORE SWAP1 MLOAD PUSH1 0x0 SWAP3 PUSH1 0x1 PUSH1 0x1 PUSH1 0xA0 SHL SUB AND SWAP2 PUSH4 0x5C975ABB SWAP2 PUSH1 0x4 DUP1 DUP4 ADD SWAP3 PUSH1 0x20 SWAP3 SWAP2 SWAP1 DUP3 SWAP1 SUB ADD DUP2 DUP7 GAS STATICCALL ISZERO DUP1 ISZERO PUSH2 0x9A4 JUMPI RETURNDATASIZE PUSH1 0x0 DUP1 RETURNDATACOPY RETURNDATASIZE PUSH1 0x0 REVERT JUMPDEST POP POP POP POP PUSH1 0x40 MLOAD RETURNDATASIZE PUSH1 0x1F NOT PUSH1 0x1F DUP3 ADD AND DUP3 ADD DUP1 PUSH1 0x40 MSTORE POP DUP2 ADD SWAP1 PUSH2 0x851 SWAP2 SWAP1 PUSH2 0xF39 JUMP JUMPDEST PUSH1 0x60 PUSH1 0x0 PUSH2 0x9D7 DUP4 PUSH1 0x2 PUSH2 0xF6C JUMP JUMPDEST PUSH2 0x9E2 SWAP1 PUSH1 0x2 PUSH2 0xF8B JUMP JUMPDEST PUSH8 0xFFFFFFFFFFFFFFFF DUP2 GT ISZERO PUSH2 0x9FA JUMPI PUSH2 0x9FA PUSH2 0xFA3 JUMP JUMPDEST PUSH1 0x40 MLOAD SWAP1 DUP1 DUP3 MSTORE DUP1 PUSH1 0x1F ADD PUSH1 0x1F NOT AND PUSH1 0x20 ADD DUP3 ADD PUSH1 0x40 MSTORE DUP1 ISZERO PUSH2 0xA24 JUMPI PUSH1 0x20 DUP3 ADD DUP2 DUP1 CALLDATASIZE DUP4 CALLDATACOPY ADD SWAP1 POP JUMPDEST POP SWAP1 POP PUSH1 0x3 PUSH1 0xFC SHL DUP2 PUSH1 0x0 DUP2 MLOAD DUP2 LT PUSH2 0xA3F JUMPI PUSH2 0xA3F PUSH2 0xFB9 JUMP JUMPDEST PUSH1 0x20 ADD ADD SWAP1 PUSH1 0x1 PUSH1 0x1 PUSH1 0xF8 SHL SUB NOT AND SWAP1 DUP2 PUSH1 0x0 BYTE SWAP1 MSTORE8 POP PUSH1 0xF PUSH1 0xFB SHL DUP2 PUSH1 0x1 DUP2 MLOAD DUP2 LT PUSH2 0xA6E JUMPI PUSH2 0xA6E PUSH2 0xFB9 JUMP JUMPDEST PUSH1 0x20 ADD ADD SWAP1 PUSH1 0x1 PUSH1 0x1 PUSH1 0xF8 SHL SUB NOT AND SWAP1 DUP2 PUSH1 0x0 BYTE SWAP1 MSTORE8 POP PUSH1 0x0 PUSH2 0xA92 DUP5 PUSH1 0x2 PUSH2 0xF6C JUMP JUMPDEST PUSH2 0xA9D SWAP1 PUSH1 0x1 PUSH2 0xF8B JUMP JUMPDEST SWAP1 POP JUMPDEST PUSH1 0x1 DUP2 GT ISZERO PUSH2 0xB15 JUMPI PUSH16 0x181899199A1A9B1B9C1CB0B131B232B3 PUSH1 0x81 SHL DUP6 PUSH1 0xF AND PUSH1 0x10 DUP2 LT PUSH2 0xAD1 JUMPI PUSH2 0xAD1 PUSH2 0xFB9 JUMP JUMPDEST BYTE PUSH1 0xF8 SHL DUP3 DUP3 DUP2 MLOAD DUP2 LT PUSH2 0xAE7 JUMPI PUSH2 0xAE7 PUSH2 0xFB9 JUMP JUMPDEST PUSH1 0x20 ADD ADD SWAP1 PUSH1 0x1 PUSH1 0x1 PUSH1 0xF8 SHL SUB NOT AND SWAP1 DUP2 PUSH1 0x0 BYTE SWAP1 MSTORE8 POP PUSH1 0x4 SWAP5 SWAP1 SWAP5 SHR SWAP4 PUSH2 0xB0E DUP2 PUSH2 0xFCF JUMP JUMPDEST SWAP1 POP PUSH2 0xAA0 JUMP JUMPDEST POP DUP4 ISZERO PUSH2 0xB64 JUMPI PUSH1 0x40 MLOAD PUSH3 0x461BCD PUSH1 0xE5 SHL DUP2 MSTORE PUSH1 0x20 PUSH1 0x4 DUP3 ADD DUP2 SWAP1 MSTORE PUSH1 0x24 DUP3 ADD MSTORE PUSH32 0x537472696E67733A20686578206C656E67746820696E73756666696369656E74 PUSH1 0x44 DUP3 ADD MSTORE PUSH1 0x64 ADD PUSH2 0x434 JUMP JUMPDEST SWAP4 SWAP3 POP POP POP JUMP JUMPDEST PUSH2 0xB75 DUP2 CALLER PUSH2 0xCE7 JUMP JUMPDEST POP JUMP JUMPDEST PUSH1 0x0 DUP1 SLOAD DUP2 SUB PUSH2 0xB8A JUMPI POP PUSH1 0x0 PUSH2 0xC0D JUMP JUMPDEST PUSH2 0xC0A DUP6 DUP6 DUP1 DUP1 PUSH1 0x20 MUL PUSH1 0x20 ADD PUSH1 0x40 MLOAD SWAP1 DUP2 ADD PUSH1 0x40 MSTORE DUP1 SWAP4 SWAP3 SWAP2 SWAP1 DUP2 DUP2 MSTORE PUSH1 0x20 ADD DUP4 DUP4 PUSH1 0x20 MUL DUP1 DUP3 DUP5 CALLDATACOPY PUSH1 0x0 SWAP3 ADD DUP3 SWAP1 MSTORE POP SLOAD PUSH1 0x40 MLOAD PUSH12 0xFFFFFFFFFFFFFFFFFFFFFFFF NOT PUSH1 0x60 DUP12 SWAP1 SHL AND PUSH1 0x20 DUP3 ADD MSTORE PUSH1 0x34 DUP2 ADD DUP10 SWAP1 MSTORE SWAP1 SWAP4 POP PUSH1 0x54 ADD SWAP2 POP PUSH2 0xBEF SWAP1 POP JUMP JUMPDEST PUSH1 0x40 MLOAD PUSH1 0x20 DUP2 DUP4 SUB SUB DUP2 MSTORE SWAP1 PUSH1 0x40 MSTORE DUP1 MLOAD SWAP1 PUSH1 0x20 ADD KECCAK256 PUSH2 0xD4B JUMP JUMPDEST SWAP1 POP JUMPDEST SWAP5 SWAP4 POP POP POP POP JUMP JUMPDEST PUSH2 0xC1F DUP3 DUP3 PUSH2 0x895 JUMP JUMPDEST PUSH2 0x7DF JUMPI PUSH1 0x0 DUP3 DUP2 MSTORE PUSH1 0x1 PUSH1 0x20 DUP2 DUP2 MSTORE PUSH1 0x40 DUP1 DUP5 KECCAK256 PUSH1 0x1 PUSH1 0x1 PUSH1 0xA0 SHL SUB DUP7 AND DUP1 DUP7 MSTORE SWAP3 MSTORE DUP1 DUP5 KECCAK256 DUP1 SLOAD PUSH1 0xFF NOT AND SWAP1 SWAP4 OR SWAP1 SWAP3 SSTORE SWAP1 MLOAD CALLER SWAP3 DUP6 SWAP2 PUSH32 0x2F8788117E7EFF1D82E926EC794901D17C78024A50270940304540A733656F0D SWAP2 SWAP1 LOG4 POP POP JUMP JUMPDEST PUSH2 0xC8A DUP3 DUP3 PUSH2 0x895 JUMP JUMPDEST ISZERO PUSH2 0x7DF JUMPI PUSH1 0x0 DUP3 DUP2 MSTORE PUSH1 0x1 PUSH1 0x20 SWAP1 DUP2 MSTORE PUSH1 0x40 DUP1 DUP4 KECCAK256 PUSH1 0x1 PUSH1 0x1 PUSH1 0xA0 SHL SUB DUP6 AND DUP1 DUP6 MSTORE SWAP3 MSTORE DUP1 DUP4 KECCAK256 DUP1 SLOAD PUSH1 0xFF NOT AND SWAP1 SSTORE MLOAD CALLER SWAP3 DUP6 SWAP2 PUSH32 0xF6391F5C32D9C69D2A47EA670B442974B53935D1EDC7FD64EB21E047A839171B SWAP2 SWAP1 LOG4 POP POP JUMP JUMPDEST PUSH2 0xCF1 DUP3 DUP3 PUSH2 0x895 JUMP JUMPDEST PUSH2 0x7DF JUMPI PUSH2 0xD09 DUP2 PUSH1 0x1 PUSH1 0x1 PUSH1 0xA0 SHL SUB AND PUSH1 0x14 PUSH2 0x9C8 JUMP JUMPDEST PUSH2 0xD14 DUP4 PUSH1 0x20 PUSH2 0x9C8 JUMP JUMPDEST PUSH1 0x40 MLOAD PUSH1 0x20 ADD PUSH2 0xD25 SWAP3 SWAP2 SWAP1 PUSH2 0x1016 JUMP JUMPDEST PUSH1 0x40 DUP1 MLOAD PUSH1 0x1F NOT DUP2 DUP5 SUB ADD DUP2 MSTORE SWAP1 DUP3 SWAP1 MSTORE PUSH3 0x461BCD PUSH1 0xE5 SHL DUP3 MSTORE PUSH2 0x434 SWAP2 PUSH1 0x4 ADD PUSH2 0x108B JUMP JUMPDEST PUSH1 0x0 DUP3 PUSH2 0xD58 DUP6 DUP5 PUSH2 0xD61 JUMP JUMPDEST EQ SWAP5 SWAP4 POP POP POP POP JUMP JUMPDEST PUSH1 0x0 DUP2 DUP2 JUMPDEST DUP5 MLOAD DUP2 LT ISZERO PUSH2 0xDCD JUMPI PUSH1 0x0 DUP6 DUP3 DUP2 MLOAD DUP2 LT PUSH2 0xD83 JUMPI PUSH2 0xD83 PUSH2 0xFB9 JUMP JUMPDEST PUSH1 0x20 MUL PUSH1 0x20 ADD ADD MLOAD SWAP1 POP DUP1 DUP4 GT PUSH2 0xDA9 JUMPI PUSH1 0x0 DUP4 DUP2 MSTORE PUSH1 0x20 DUP3 SWAP1 MSTORE PUSH1 0x40 SWAP1 KECCAK256 SWAP3 POP PUSH2 0xDBA JUMP JUMPDEST PUSH1 0x0 DUP2 DUP2 MSTORE PUSH1 0x20 DUP5 SWAP1 MSTORE PUSH1 0x40 SWAP1 KECCAK256 SWAP3 POP JUMPDEST POP DUP1 PUSH2 0xDC5 DUP2 PUSH2 0x10BE JUMP JUMPDEST SWAP2 POP POP PUSH2 0xD66 JUMP JUMPDEST POP SWAP4 SWAP3 POP POP POP JUMP JUMPDEST PUSH1 0x0 PUSH1 0x20 DUP3 DUP5 SUB SLT ISZERO PUSH2 0xDE7 JUMPI PUSH1 0x0 DUP1 REVERT JUMPDEST DUP2 CALLDATALOAD PUSH1 0x1 PUSH1 0x1 PUSH1 0xE0 SHL SUB NOT DUP2 AND DUP2 EQ PUSH2 0xB64 JUMPI PUSH1 0x0 DUP1 REVERT JUMPDEST PUSH1 0x0 PUSH1 0x20 DUP3 DUP5 SUB SLT ISZERO PUSH2 0xE11 JUMPI PUSH1 0x0 DUP1 REVERT JUMPDEST POP CALLDATALOAD SWAP2 SWAP1 POP JUMP JUMPDEST DUP1 ISZERO ISZERO DUP2 EQ PUSH2 0xB75 JUMPI PUSH1 0x0 DUP1 REVERT JUMPDEST PUSH1 0x0 PUSH1 0x20 DUP3 DUP5 SUB SLT ISZERO PUSH2 0xE38 JUMPI PUSH1 0x0 DUP1 REVERT JUMPDEST DUP2 CALLDATALOAD PUSH2 0xB64 DUP2 PUSH2 0xE18 JUMP JUMPDEST PUSH1 0x0 DUP1 PUSH1 0x0 PUSH1 0x40 DUP5 DUP7 SUB SLT ISZERO PUSH2 0xE58 JUMPI PUSH1 0x0 DUP1 REVERT JUMPDEST DUP4 CALLDATALOAD PUSH8 0xFFFFFFFFFFFFFFFF DUP1 DUP3 GT ISZERO PUSH2 0xE70 JUMPI PUSH1 0x0 DUP1 REVERT JUMPDEST DUP2 DUP7 ADD SWAP2 POP DUP7 PUSH1 0x1F DUP4 ADD SLT PUSH2 0xE84 JUMPI PUSH1 0x0 DUP1 REVERT JUMPDEST DUP2 CALLDATALOAD DUP2 DUP2 GT ISZERO PUSH2 0xE93 JUMPI PUSH1 0x0 DUP1 REVERT JUMPDEST DUP8 PUSH1 0x20 DUP3 PUSH1 0x5 SHL DUP6 ADD ADD GT ISZERO PUSH2 0xEA8 JUMPI PUSH1 0x0 DUP1 REVERT JUMPDEST PUSH1 0x20 SWAP3 DUP4 ADD SWAP9 SWAP1 SWAP8 POP SWAP6 SWAP1 SWAP2 ADD CALLDATALOAD SWAP5 SWAP4 POP POP POP POP JUMP JUMPDEST PUSH1 0x1 PUSH1 0x1 PUSH1 0xA0 SHL SUB DUP2 AND DUP2 EQ PUSH2 0xB75 JUMPI PUSH1 0x0 DUP1 REVERT JUMPDEST PUSH1 0x0 DUP1 PUSH1 0x40 DUP4 DUP6 SUB SLT ISZERO PUSH2 0xEE6 JUMPI PUSH1 0x0 DUP1 REVERT JUMPDEST DUP3 CALLDATALOAD SWAP2 POP PUSH1 0x20 DUP4 ADD CALLDATALOAD PUSH2 0xEF8 DUP2 PUSH2 0xEBE JUMP JUMPDEST DUP1 SWAP2 POP POP SWAP3 POP SWAP3 SWAP1 POP JUMP JUMPDEST PUSH1 0x0 PUSH1 0x20 DUP3 DUP5 SUB SLT ISZERO PUSH2 0xF15 JUMPI PUSH1 0x0 DUP1 REVERT JUMPDEST DUP2 CALLDATALOAD PUSH2 0xB64 DUP2 PUSH2 0xEBE JUMP JUMPDEST PUSH1 0x0 PUSH1 0x20 DUP3 DUP5 SUB SLT ISZERO PUSH2 0xF32 JUMPI PUSH1 0x0 DUP1 REVERT JUMPDEST POP MLOAD SWAP2 SWAP1 POP JUMP JUMPDEST PUSH1 0x0 PUSH1 0x20 DUP3 DUP5 SUB SLT ISZERO PUSH2 0xF4B JUMPI PUSH1 0x0 DUP1 REVERT JUMPDEST DUP2 MLOAD PUSH2 0xB64 DUP2 PUSH2 0xE18 JUMP JUMPDEST PUSH4 0x4E487B71 PUSH1 0xE0 SHL PUSH1 0x0 MSTORE PUSH1 0x11 PUSH1 0x4 MSTORE PUSH1 0x24 PUSH1 0x0 REVERT JUMPDEST PUSH1 0x0 DUP2 PUSH1 0x0 NOT DIV DUP4 GT DUP3 ISZERO ISZERO AND ISZERO PUSH2 0xF86 JUMPI PUSH2 0xF86 PUSH2 0xF56 JUMP JUMPDEST POP MUL SWAP1 JUMP JUMPDEST PUSH1 0x0 DUP3 NOT DUP3 GT ISZERO PUSH2 0xF9E JUMPI PUSH2 0xF9E PUSH2 0xF56 JUMP JUMPDEST POP ADD SWAP1 JUMP JUMPDEST PUSH4 0x4E487B71 PUSH1 0xE0 SHL PUSH1 0x0 MSTORE PUSH1 0x41 PUSH1 0x4 MSTORE PUSH1 0x24 PUSH1 0x0 REVERT JUMPDEST PUSH4 0x4E487B71 PUSH1 0xE0 SHL PUSH1 0x0 MSTORE PUSH1 0x32 PUSH1 0x4 MSTORE PUSH1 0x24 PUSH1 0x0 REVERT JUMPDEST PUSH1 0x0 DUP2 PUSH2 0xFDE JUMPI PUSH2 0xFDE PUSH2 0xF56 JUMP JUMPDEST POP PUSH1 0x0 NOT ADD SWAP1 JUMP JUMPDEST PUSH1 0x0 JUMPDEST DUP4 DUP2 LT ISZERO PUSH2 0x1001 JUMPI DUP2 DUP2 ADD MLOAD DUP4 DUP3 ADD MSTORE PUSH1 0x20 ADD PUSH2 0xFE9 JUMP JUMPDEST DUP4 DUP2 GT ISZERO PUSH2 0x1010 JUMPI PUSH1 0x0 DUP5 DUP5 ADD MSTORE JUMPDEST POP POP POP POP JUMP JUMPDEST PUSH32 0x416363657373436F6E74726F6C3A206163636F756E7420000000000000000000 DUP2 MSTORE PUSH1 0x0 DUP4 MLOAD PUSH2 0x104E DUP2 PUSH1 0x17 DUP6 ADD PUSH1 0x20 DUP9 ADD PUSH2 0xFE6 JUMP JUMPDEST PUSH17 0x1034B99036B4B9B9B4B733903937B6329 PUSH1 0x7D SHL PUSH1 0x17 SWAP2 DUP5 ADD SWAP2 DUP3 ADD MSTORE DUP4 MLOAD PUSH2 0x107F DUP2 PUSH1 0x28 DUP5 ADD PUSH1 0x20 DUP9 ADD PUSH2 0xFE6 JUMP JUMPDEST ADD PUSH1 0x28 ADD SWAP5 SWAP4 POP POP POP POP JUMP JUMPDEST PUSH1 0x20 DUP2 MSTORE PUSH1 0x0 DUP3 MLOAD DUP1 PUSH1 0x20 DUP5 ADD MSTORE PUSH2 0x10AA DUP2 PUSH1 0x40 DUP6 ADD PUSH1 0x20 DUP8 ADD PUSH2 0xFE6 JUMP JUMPDEST PUSH1 0x1F ADD PUSH1 0x1F NOT AND SWAP2 SWAP1 SWAP2 ADD PUSH1 0x40 ADD SWAP3 SWAP2 POP POP JUMP JUMPDEST PUSH1 0x0 PUSH1 0x1 DUP3 ADD PUSH2 0x10D0 JUMPI PUSH2 0x10D0 PUSH2 0xF56 JUMP JUMPDEST POP PUSH1 0x1 ADD SWAP1 JUMP INVALID LOG2 PUSH5 0x6970667358 0x22 SLT KECCAK256 0xD3 CALL BYTE DUP1 JUMP MSTORE 0x22 0xB1 BALANCE 0xF6 SWAP16 SWAP11 0x4E 0xEB 0x28 EXP DUP6 0xAF 0xD6 SGT 0xC0 SHL JUMP 0xC6 EXTCODECOPY SLOAD JUMPI DUP5 0x28 0xD 0xC7 0xF8 PUSH5 0x736F6C6343 STOP ADDMOD 0xF STOP CALLER "
				},
				"gasEstimates": {
					"creation": {
						"codeDepositCost": "873000",
						"executionCost": "infinite",
						"totalCost": "infinite"
					},
					"external": {
						"DEFAULT_ADMIN_ROLE()": "306",
						"changeFreeMintOpen(bool)": "infinite",
						"changeNagaKidsContract(address)": "infinite",
						"changeWhitelistMintOpen(bool)": "infinite",
						"getMaxSupply()": "infinite",
						"getRoleAdmin(bytes32)": "2496",
						"getTotalSupply()": "infinite",
						"grantRole(bytes32,address)": "infinite",
						"hasRole(bytes32,address)": "2720",
						"isFreeMintOpen()": "2338",
						"isPause()": "infinite",
						"isWhitelistOpen()": "2405",
						"merkleRoot()": "2340",
						"nagaKidsContract()": "2405",
						"renounceRole(bytes32,address)": "29089",
						"revokeRole(bytes32,address)": "infinite",
						"setMerkleRoot(bytes32)": "infinite",
						"supportsInterface(bytes4)": "450",
						"whitelistMint(bytes32[],uint256)": "infinite"
					}
				},
				"methodIdentifiers": {
					"DEFAULT_ADMIN_ROLE()": "a217fddf",
					"changeFreeMintOpen(bool)": "28438f68",
					"changeNagaKidsContract(address)": "61aec205",
					"changeWhitelistMintOpen(bool)": "dd31a7ba",
					"getMaxSupply()": "4c0f38c2",
					"getRoleAdmin(bytes32)": "248a9ca3",
					"getTotalSupply()": "c4e41b22",
					"grantRole(bytes32,address)": "2f2ff15d",
					"hasRole(bytes32,address)": "91d14854",
					"isFreeMintOpen()": "a6f5f014",
					"isPause()": "ff0938a7",
					"isWhitelistOpen()": "94f4504d",
					"merkleRoot()": "2eb4a7ab",
					"nagaKidsContract()": "27c25c20",
					"renounceRole(bytes32,address)": "36568abe",
					"revokeRole(bytes32,address)": "d547741f",
					"setMerkleRoot(bytes32)": "7cb64759",
					"supportsInterface(bytes4)": "01ffc9a7",
					"whitelistMint(bytes32[],uint256)": "2904e6d9"
				}
			},
			"storageLayout": {
				"storage": [
					{
						"astId": 1162,
						"contract": "MintNagaKids.sol:MintNagaKids",
						"label": "merkleRoot",
						"offset": 0,
						"slot": "0",
						"type": "t_bytes32"
					},
					{
						"astId": 24,
						"contract": "MintNagaKids.sol:MintNagaKids",
						"label": "_roles",
						"offset": 0,
						"slot": "1",
						"type": "t_mapping(t_bytes32,t_struct(RoleData)19_storage)"
					},
					{
						"astId": 403,
						"contract": "MintNagaKids.sol:MintNagaKids",
						"label": "_status",
						"offset": 0,
						"slot": "2",
						"type": "t_uint256"
					},
					{
						"astId": 973,
						"contract": "MintNagaKids.sol:MintNagaKids",
						"label": "nagaKidsContract",
						"offset": 0,
						"slot": "3",
						"type": "t_contract(INagaKidsNFT)958"
					},
					{
						"astId": 975,
						"contract": "MintNagaKids.sol:MintNagaKids",
						"label": "isFreeMintOpen",
						"offset": 20,
						"slot": "3",
						"type": "t_bool"
					},
					{
						"astId": 977,
						"contract": "MintNagaKids.sol:MintNagaKids",
						"label": "isWhitelistOpen",
						"offset": 21,
						"slot": "3",
						"type": "t_bool"
					}
				],
				"types": {
					"t_address": {
						"encoding": "inplace",
						"label": "address",
						"numberOfBytes": "20"
					},
					"t_bool": {
						"encoding": "inplace",
						"label": "bool",
						"numberOfBytes": "1"
					},
					"t_bytes32": {
						"encoding": "inplace",
						"label": "bytes32",
						"numberOfBytes": "32"
					},
					"t_contract(INagaKidsNFT)958": {
						"encoding": "inplace",
						"label": "contract INagaKidsNFT",
						"numberOfBytes": "20"
					},
					"t_mapping(t_address,t_bool)": {
						"encoding": "mapping",
						"key": "t_address",
						"label": "mapping(address => bool)",
						"numberOfBytes": "32",
						"value": "t_bool"
					},
					"t_mapping(t_bytes32,t_struct(RoleData)19_storage)": {
						"encoding": "mapping",
						"key": "t_bytes32",
						"label": "mapping(bytes32 => struct AccessControl.RoleData)",
						"numberOfBytes": "32",
						"value": "t_struct(RoleData)19_storage"
					},
					"t_struct(RoleData)19_storage": {
						"encoding": "inplace",
						"label": "struct AccessControl.RoleData",
						"members": [
							{
								"astId": 16,
								"contract": "MintNagaKids.sol:MintNagaKids",
								"label": "members",
								"offset": 0,
								"slot": "0",
								"type": "t_mapping(t_address,t_bool)"
							},
							{
								"astId": 18,
								"contract": "MintNagaKids.sol:MintNagaKids",
								"label": "adminRole",
								"offset": 0,
								"slot": "1",
								"type": "t_bytes32"
							}
						],
						"numberOfBytes": "64"
					},
					"t_uint256": {
						"encoding": "inplace",
						"label": "uint256",
						"numberOfBytes": "32"
					}
				}
			},
			"userdoc": {
				"kind": "user",
				"methods": {},
				"version": 1
			}
		}
	}
}