{
	"ERC721A/MintNagaKids.sol": {
		"MintNagaKids": {
			"abi": [
				{
					"inputs": [
						{
							"internalType": "contract INagaKid",
							"name": "_nagaKidContract",
							"type": "address"
						},
						{
							"internalType": "address",
							"name": "_signer",
							"type": "address"
						},
						{
							"internalType": "bytes32",
							"name": "_merkleRoot",
							"type": "bytes32"
						}
					],
					"stateMutability": "nonpayable",
					"type": "constructor"
				},
				{
					"anonymous": false,
					"inputs": [
						{
							"indexed": false,
							"internalType": "bytes32",
							"name": "merkleRootBefore",
							"type": "bytes32"
						},
						{
							"indexed": false,
							"internalType": "bytes32",
							"name": "merkleRootAfter",
							"type": "bytes32"
						}
					],
					"name": "MerkleRootChanged",
					"type": "event"
				},
				{
					"anonymous": false,
					"inputs": [
						{
							"indexed": false,
							"internalType": "address",
							"name": "nagaKidBefore",
							"type": "address"
						},
						{
							"indexed": false,
							"internalType": "address",
							"name": "nagaKidAfter",
							"type": "address"
						}
					],
					"name": "NagaKidContractChanged",
					"type": "event"
				},
				{
					"anonymous": false,
					"inputs": [
						{
							"indexed": true,
							"internalType": "address",
							"name": "previousOwner",
							"type": "address"
						},
						{
							"indexed": true,
							"internalType": "address",
							"name": "newOwner",
							"type": "address"
						}
					],
					"name": "OwnershipTransferred",
					"type": "event"
				},
				{
					"anonymous": false,
					"inputs": [
						{
							"indexed": true,
							"internalType": "address",
							"name": "user",
							"type": "address"
						},
						{
							"indexed": false,
							"internalType": "uint256",
							"name": "amount",
							"type": "uint256"
						},
						{
							"indexed": false,
							"internalType": "uint256",
							"name": "timestamp",
							"type": "uint256"
						}
					],
					"name": "PrivateMinted",
					"type": "event"
				},
				{
					"anonymous": false,
					"inputs": [
						{
							"indexed": true,
							"internalType": "address",
							"name": "user",
							"type": "address"
						},
						{
							"indexed": false,
							"internalType": "uint256",
							"name": "amount",
							"type": "uint256"
						},
						{
							"indexed": false,
							"internalType": "uint256",
							"name": "timestamp",
							"type": "uint256"
						}
					],
					"name": "PublicMinted",
					"type": "event"
				},
				{
					"anonymous": false,
					"inputs": [
						{
							"indexed": false,
							"internalType": "bytes32",
							"name": "roundBefore",
							"type": "bytes32"
						},
						{
							"indexed": false,
							"internalType": "bytes32",
							"name": "roundAfter",
							"type": "bytes32"
						}
					],
					"name": "RoundChanged",
					"type": "event"
				},
				{
					"anonymous": false,
					"inputs": [
						{
							"indexed": false,
							"internalType": "address",
							"name": "signerBefore",
							"type": "address"
						},
						{
							"indexed": false,
							"internalType": "address",
							"name": "signerAfter",
							"type": "address"
						}
					],
					"name": "SignerChanged",
					"type": "event"
				},
				{
					"anonymous": false,
					"inputs": [
						{
							"indexed": false,
							"internalType": "address",
							"name": "to",
							"type": "address"
						},
						{
							"indexed": false,
							"internalType": "uint256",
							"name": "balanceOFContract",
							"type": "uint256"
						},
						{
							"indexed": false,
							"internalType": "uint256",
							"name": "timestamp",
							"type": "uint256"
						}
					],
					"name": "Withdraw",
					"type": "event"
				},
				{
					"anonymous": false,
					"inputs": [
						{
							"indexed": false,
							"internalType": "address",
							"name": "to",
							"type": "address"
						},
						{
							"indexed": false,
							"internalType": "address",
							"name": "currency",
							"type": "address"
						},
						{
							"indexed": false,
							"internalType": "uint256",
							"name": "balanceOfContract",
							"type": "uint256"
						},
						{
							"indexed": false,
							"internalType": "uint256",
							"name": "timestamp",
							"type": "uint256"
						}
					],
					"name": "WithdrawCurrency",
					"type": "event"
				},
				{
					"anonymous": false,
					"inputs": [
						{
							"indexed": false,
							"internalType": "address",
							"name": "to",
							"type": "address"
						},
						{
							"indexed": false,
							"internalType": "address",
							"name": "NFT",
							"type": "address"
						},
						{
							"indexed": false,
							"internalType": "uint256",
							"name": "tokenId",
							"type": "uint256"
						},
						{
							"indexed": false,
							"internalType": "uint256",
							"name": "timestamp",
							"type": "uint256"
						}
					],
					"name": "WithdrawNFT",
					"type": "event"
				},
				{
					"inputs": [],
					"name": "DEFAULT",
					"outputs": [
						{
							"internalType": "bytes32",
							"name": "",
							"type": "bytes32"
						}
					],
					"stateMutability": "view",
					"type": "function"
				},
				{
					"inputs": [],
					"name": "NAGA_HOLDER_MINT_ROUND",
					"outputs": [
						{
							"internalType": "bytes32",
							"name": "",
							"type": "bytes32"
						}
					],
					"stateMutability": "view",
					"type": "function"
				},
				{
					"inputs": [],
					"name": "WHITELIST_MINT_ROUND",
					"outputs": [
						{
							"internalType": "bytes32",
							"name": "",
							"type": "bytes32"
						}
					],
					"stateMutability": "view",
					"type": "function"
				},
				{
					"inputs": [],
					"name": "WITHDRAW_ROLE",
					"outputs": [
						{
							"internalType": "bytes32",
							"name": "",
							"type": "bytes32"
						}
					],
					"stateMutability": "view",
					"type": "function"
				},
				{
					"inputs": [
						{
							"internalType": "bytes32[]",
							"name": "_proof",
							"type": "bytes32[]"
						},
						{
							"internalType": "uint256",
							"name": "_amount",
							"type": "uint256"
						},
						{
							"internalType": "bytes32",
							"name": "_round",
							"type": "bytes32"
						}
					],
					"name": "allowlistMint",
					"outputs": [],
					"stateMutability": "payable",
					"type": "function"
				},
				{
					"inputs": [],
					"name": "currentMintRound",
					"outputs": [
						{
							"internalType": "bytes32",
							"name": "",
							"type": "bytes32"
						}
					],
					"stateMutability": "view",
					"type": "function"
				},
				{
					"inputs": [
						{
							"internalType": "bytes32",
							"name": "_messageHash",
							"type": "bytes32"
						}
					],
					"name": "getEthSignedMessageHash",
					"outputs": [
						{
							"internalType": "bytes32",
							"name": "",
							"type": "bytes32"
						}
					],
					"stateMutability": "pure",
					"type": "function"
				},
				{
					"inputs": [],
					"name": "getMaxSupply",
					"outputs": [
						{
							"internalType": "uint256",
							"name": "",
							"type": "uint256"
						}
					],
					"stateMutability": "view",
					"type": "function"
				},
				{
					"inputs": [
						{
							"internalType": "address",
							"name": "_user",
							"type": "address"
						}
					],
					"name": "getMessageHash",
					"outputs": [
						{
							"internalType": "bytes32",
							"name": "",
							"type": "bytes32"
						}
					],
					"stateMutability": "view",
					"type": "function"
				},
				{
					"inputs": [],
					"name": "getTotalSupply",
					"outputs": [
						{
							"internalType": "uint256",
							"name": "",
							"type": "uint256"
						}
					],
					"stateMutability": "view",
					"type": "function"
				},
				{
					"inputs": [],
					"name": "isPrivateMintOpen",
					"outputs": [
						{
							"internalType": "bool",
							"name": "",
							"type": "bool"
						}
					],
					"stateMutability": "view",
					"type": "function"
				},
				{
					"inputs": [],
					"name": "isPublicMintOpen",
					"outputs": [
						{
							"internalType": "bool",
							"name": "",
							"type": "bool"
						}
					],
					"stateMutability": "view",
					"type": "function"
				},
				{
					"inputs": [
						{
							"internalType": "address",
							"name": "_user",
							"type": "address"
						},
						{
							"internalType": "bytes32",
							"name": "_round",
							"type": "bytes32"
						}
					],
					"name": "isUserMinted",
					"outputs": [
						{
							"internalType": "bool",
							"name": "",
							"type": "bool"
						}
					],
					"stateMutability": "view",
					"type": "function"
				},
				{
					"inputs": [],
					"name": "merkleRoot",
					"outputs": [
						{
							"internalType": "bytes32",
							"name": "",
							"type": "bytes32"
						}
					],
					"stateMutability": "view",
					"type": "function"
				},
				{
					"inputs": [],
					"name": "nagaKidContract",
					"outputs": [
						{
							"internalType": "contract INagaKid",
							"name": "",
							"type": "address"
						}
					],
					"stateMutability": "view",
					"type": "function"
				},
				{
					"inputs": [],
					"name": "owner",
					"outputs": [
						{
							"internalType": "address",
							"name": "",
							"type": "address"
						}
					],
					"stateMutability": "view",
					"type": "function"
				},
				{
					"inputs": [
						{
							"internalType": "bytes",
							"name": "_sig",
							"type": "bytes"
						}
					],
					"name": "publicMint",
					"outputs": [],
					"stateMutability": "payable",
					"type": "function"
				},
				{
					"inputs": [
						{
							"internalType": "bytes32",
							"name": "_ethSignedMessageHash",
							"type": "bytes32"
						},
						{
							"internalType": "bytes",
							"name": "_signature",
							"type": "bytes"
						}
					],
					"name": "recoverSigner",
					"outputs": [
						{
							"internalType": "address",
							"name": "",
							"type": "address"
						}
					],
					"stateMutability": "pure",
					"type": "function"
				},
				{
					"inputs": [],
					"name": "renounceOwnership",
					"outputs": [],
					"stateMutability": "nonpayable",
					"type": "function"
				},
				{
					"inputs": [
						{
							"internalType": "bytes32",
							"name": "_merkleRoot",
							"type": "bytes32"
						}
					],
					"name": "setMerkleRoot",
					"outputs": [],
					"stateMutability": "nonpayable",
					"type": "function"
				},
				{
					"inputs": [
						{
							"internalType": "contract INagaKid",
							"name": "_nagaKid",
							"type": "address"
						}
					],
					"name": "setNagaKidContract",
					"outputs": [],
					"stateMutability": "nonpayable",
					"type": "function"
				},
				{
					"inputs": [
						{
							"internalType": "bytes32",
							"name": "_round",
							"type": "bytes32"
						}
					],
					"name": "setRound",
					"outputs": [],
					"stateMutability": "nonpayable",
					"type": "function"
				},
				{
					"inputs": [
						{
							"internalType": "address",
							"name": "_signer",
							"type": "address"
						}
					],
					"name": "setSigner",
					"outputs": [],
					"stateMutability": "nonpayable",
					"type": "function"
				},
				{
					"inputs": [],
					"name": "signer",
					"outputs": [
						{
							"internalType": "address",
							"name": "",
							"type": "address"
						}
					],
					"stateMutability": "view",
					"type": "function"
				},
				{
					"inputs": [
						{
							"internalType": "bytes",
							"name": "sig",
							"type": "bytes"
						}
					],
					"name": "splitSignature",
					"outputs": [
						{
							"internalType": "bytes32",
							"name": "r",
							"type": "bytes32"
						},
						{
							"internalType": "bytes32",
							"name": "s",
							"type": "bytes32"
						},
						{
							"internalType": "uint8",
							"name": "v",
							"type": "uint8"
						}
					],
					"stateMutability": "pure",
					"type": "function"
				},
				{
					"inputs": [
						{
							"internalType": "address",
							"name": "newOwner",
							"type": "address"
						}
					],
					"name": "transferOwnership",
					"outputs": [],
					"stateMutability": "nonpayable",
					"type": "function"
				},
				{
					"inputs": [
						{
							"internalType": "address",
							"name": "_user",
							"type": "address"
						},
						{
							"internalType": "bytes32",
							"name": "_round",
							"type": "bytes32"
						}
					],
					"name": "userMintedAmount",
					"outputs": [
						{
							"internalType": "uint256",
							"name": "",
							"type": "uint256"
						}
					],
					"stateMutability": "view",
					"type": "function"
				},
				{
					"inputs": [
						{
							"internalType": "address",
							"name": "_signer",
							"type": "address"
						},
						{
							"internalType": "address",
							"name": "_user",
							"type": "address"
						},
						{
							"internalType": "bytes",
							"name": "signature",
							"type": "bytes"
						}
					],
					"name": "verify",
					"outputs": [
						{
							"internalType": "bool",
							"name": "",
							"type": "bool"
						}
					],
					"stateMutability": "view",
					"type": "function"
				},
				{
					"inputs": [
						{
							"internalType": "address",
							"name": "_to",
							"type": "address"
						}
					],
					"name": "withdraw",
					"outputs": [],
					"stateMutability": "nonpayable",
					"type": "function"
				},
				{
					"inputs": [
						{
							"internalType": "address",
							"name": "_to",
							"type": "address"
						},
						{
							"internalType": "address",
							"name": "_currency",
							"type": "address"
						}
					],
					"name": "withdrawCurrency",
					"outputs": [],
					"stateMutability": "nonpayable",
					"type": "function"
				},
				{
					"inputs": [
						{
							"internalType": "address",
							"name": "_to",
							"type": "address"
						},
						{
							"internalType": "address",
							"name": "_NFT",
							"type": "address"
						},
						{
							"internalType": "uint256",
							"name": "_tokenId",
							"type": "uint256"
						}
					],
					"name": "withdrawNFT",
					"outputs": [],
					"stateMutability": "nonpayable",
					"type": "function"
				}
			],
			"devdoc": {
				"kind": "dev",
				"methods": {
					"owner()": {
						"details": "Returns the address of the current owner."
					},
					"renounceOwnership()": {
						"details": "Leaves the contract without owner. It will not be possible to call `onlyOwner` functions anymore. Can only be called by the current owner. NOTE: Renouncing ownership will leave the contract without an owner, thereby removing any functionality that is only available to the owner."
					},
					"transferOwnership(address)": {
						"details": "Transfers ownership of the contract to a new account (`newOwner`). Can only be called by the current owner."
					}
				},
				"version": 1
			},
			"evm": {
				"assembly": "    /* \"ERC721A/MintNagaKids.sol\":428:6644  contract MintNagaKids is Ownable, ReentrancyGuard, VerifySignature {... */\n  mstore(0x40, 0x80)\n    /* \"ERC721A/MintNagaKids.sol\":1124:1160  bool public isPublicMintOpen = false */\n  0x05\n  dup1\n  sload\n  not(0xffff)\n    /* \"ERC721A/MintNagaKids.sol\":1167:1204  bool public isPrivateMintOpen = false */\n  and\n  swap1\n  sstore\n    /* \"ERC721A/MintNagaKids.sol\":2142:2351  constructor(INagaKid _nagaKidContract,address _signer, bytes32 _merkleRoot) {... */\n  callvalue\n  dup1\n  iszero\n  tag_1\n  jumpi\n  0x00\n  dup1\n  revert\ntag_1:\n  pop\n  mload(0x40)\n  sub(codesize, bytecodeSize)\n  dup1\n  bytecodeSize\n  dup4\n  codecopy\n  dup2\n  add\n  0x40\n  dup2\n  swap1\n  mstore\n  tag_2\n  swap2\n  tag_3\n  jump\t// in\ntag_2:\n    /* \"@openzeppelin/contracts/access/Ownable.sol\":921:953  _transferOwnership(_msgSender()) */\n  tag_8\n    /* \"@openzeppelin/contracts/utils/Context.sol\":719:729  msg.sender */\n  caller\n    /* \"@openzeppelin/contracts/access/Ownable.sol\":921:939  _transferOwnership */\n  tag_11\n    /* \"@openzeppelin/contracts/access/Ownable.sol\":921:953  _transferOwnership(_msgSender()) */\n  jump\t// in\ntag_8:\n    /* \"@openzeppelin/contracts/security/ReentrancyGuard.sol\":1701:1702  1 */\n  0x01\n    /* \"@openzeppelin/contracts/security/ReentrancyGuard.sol\":1806:1828  _status = _NOT_ENTERED */\n  dup1\n  sstore\n    /* \"ERC721A/MintNagaKids.sol\":2239:2275  setNagaKidContract(_nagaKidContract) */\n  tag_14\n    /* \"ERC721A/MintNagaKids.sol\":2258:2274  _nagaKidContract */\n  dup4\n    /* \"ERC721A/MintNagaKids.sol\":2239:2257  setNagaKidContract */\n  tag_15\n    /* \"ERC721A/MintNagaKids.sol\":2239:2275  setNagaKidContract(_nagaKidContract) */\n  jump\t// in\ntag_14:\n    /* \"ERC721A/MintNagaKids.sol\":2286:2312  setMerkleRoot(_merkleRoot) */\n  tag_16\n    /* \"ERC721A/MintNagaKids.sol\":2300:2311  _merkleRoot */\n  dup2\n    /* \"ERC721A/MintNagaKids.sol\":2286:2299  setMerkleRoot */\n  tag_17\n    /* \"ERC721A/MintNagaKids.sol\":2286:2312  setMerkleRoot(_merkleRoot) */\n  jump\t// in\ntag_16:\n    /* \"ERC721A/MintNagaKids.sol\":2323:2341  setSigner(_signer) */\n  tag_18\n    /* \"ERC721A/MintNagaKids.sol\":2333:2340  _signer */\n  dup3\n    /* \"ERC721A/MintNagaKids.sol\":2323:2332  setSigner */\n  tag_19\n    /* \"ERC721A/MintNagaKids.sol\":2323:2341  setSigner(_signer) */\n  jump\t// in\ntag_18:\n    /* \"ERC721A/MintNagaKids.sol\":2142:2351  constructor(INagaKid _nagaKidContract,address _signer, bytes32 _merkleRoot) {... */\n  pop\n  pop\n  pop\n    /* \"ERC721A/MintNagaKids.sol\":428:6644  contract MintNagaKids is Ownable, ReentrancyGuard, VerifySignature {... */\n  jump(tag_50)\n    /* \"@openzeppelin/contracts/access/Ownable.sol\":2270:2457  function _transferOwnership(address newOwner) internal virtual {... */\ntag_11:\n    /* \"@openzeppelin/contracts/access/Ownable.sol\":2343:2359  address oldOwner */\n  0x00\n    /* \"@openzeppelin/contracts/access/Ownable.sol\":2362:2368  _owner */\n  dup1\n  sload\n  sub(shl(0xa0, 0x01), 0x01)\n    /* \"@openzeppelin/contracts/access/Ownable.sol\":2378:2395  _owner = newOwner */\n  dup4\n  dup2\n  and\n  not(sub(shl(0xa0, 0x01), 0x01))\n  dup4\n  and\n  dup2\n  or\n  dup5\n  sstore\n    /* \"@openzeppelin/contracts/access/Ownable.sol\":2410:2450  OwnershipTransferred(oldOwner, newOwner) */\n  mload(0x40)\n    /* \"@openzeppelin/contracts/access/Ownable.sol\":2362:2368  _owner */\n  swap2\n  swap1\n  swap3\n  and\n  swap3\n  dup4\n  swap2\n    /* \"@openzeppelin/contracts/access/Ownable.sol\":2410:2450  OwnershipTransferred(oldOwner, newOwner) */\n  0x8be0079c531659141344cd1fd0a4f28419497f9722a3daafe3b4186f6b6457e0\n  swap2\n    /* \"@openzeppelin/contracts/access/Ownable.sol\":2343:2359  address oldOwner */\n  swap1\n    /* \"@openzeppelin/contracts/access/Ownable.sol\":2410:2450  OwnershipTransferred(oldOwner, newOwner) */\n  log3\n    /* \"@openzeppelin/contracts/access/Ownable.sol\":2333:2457  {... */\n  pop\n    /* \"@openzeppelin/contracts/access/Ownable.sol\":2270:2457  function _transferOwnership(address newOwner) internal virtual {... */\n  pop\n  jump\t// out\n    /* \"ERC721A/MintNagaKids.sol\":2359:2647  function setNagaKidContract(INagaKid _nagaKid) public onlyOwner {... */\ntag_15:\n    /* \"@openzeppelin/contracts/access/Ownable.sol\":1082:1089  address */\n  0x00\n    /* \"@openzeppelin/contracts/access/Ownable.sol\":1108:1114  _owner */\n  sload\n  sub(shl(0xa0, 0x01), 0x01)\n  and\n    /* \"@openzeppelin/contracts/utils/Context.sol\":719:729  msg.sender */\n  caller\n    /* \"@openzeppelin/contracts/access/Ownable.sol\":1248:1271  owner() == _msgSender() */\n  eq\n    /* \"@openzeppelin/contracts/access/Ownable.sol\":1240:1308  require(owner() == _msgSender(), \"Ownable: caller is not the owner\") */\n  tag_27\n  jumpi\n  mload(0x40)\n  shl(0xe5, 0x461bcd)\n  dup2\n  mstore\n    /* \"#utility.yul\":849:851   */\n  0x20\n    /* \"@openzeppelin/contracts/access/Ownable.sol\":1240:1308  require(owner() == _msgSender(), \"Ownable: caller is not the owner\") */\n  0x04\n  dup3\n  add\n    /* \"#utility.yul\":831:852   */\n  dup2\n  swap1\n  mstore\n    /* \"#utility.yul\":868:886   */\n  0x24\n  dup3\n  add\n    /* \"#utility.yul\":861:891   */\n  mstore\n  0x00\n  dup1\n  mload\n  0x20\n  data_9924ebdf1add33d25d4ef888e16131f0a5687b0580a36c21b5c301a6c462effe\n  dup4\n  codecopy\n  dup2\n  mload\n  swap2\n  mstore\n    /* \"#utility.yul\":907:925   */\n  0x44\n  dup3\n  add\n    /* \"#utility.yul\":900:962   */\n  mstore\n    /* \"#utility.yul\":979:997   */\n  0x64\n  add\n    /* \"@openzeppelin/contracts/access/Ownable.sol\":1240:1308  require(owner() == _msgSender(), \"Ownable: caller is not the owner\") */\ntag_28:\n  mload(0x40)\n  dup1\n  swap2\n  sub\n  swap1\n  revert\ntag_27:\n    /* \"ERC721A/MintNagaKids.sol\":2466:2481  nagaKidContract */\n  0x02\n  dup1\n  sload\n  sub(shl(0xa0, 0x01), 0x01)\n    /* \"ERC721A/MintNagaKids.sol\":2493:2519  nagaKidContract = _nagaKid */\n  dup4\n  dup2\n  and\n  not(sub(shl(0xa0, 0x01), 0x01))\n  dup4\n  and\n  dup2\n  or\n  swap1\n  swap4\n  sstore\n    /* \"ERC721A/MintNagaKids.sol\":2588:2639  NagaKidContractChanged(nagaKidBefore, nagaKidAfter) */\n  0x40\n  dup1\n  mload\n    /* \"ERC721A/MintNagaKids.sol\":2466:2481  nagaKidContract */\n  swap2\n  swap1\n  swap3\n  and\n    /* \"#utility.yul\":1220:1254   */\n  dup1\n  dup3\n  mstore\n    /* \"#utility.yul\":1285:1287   */\n  0x20\n    /* \"#utility.yul\":1270:1288   */\n  dup3\n  add\n    /* \"#utility.yul\":1263:1306   */\n  swap4\n  swap1\n  swap4\n  mstore\n    /* \"ERC721A/MintNagaKids.sol\":2493:2519  nagaKidContract = _nagaKid */\n  dup4\n  swap2\n    /* \"ERC721A/MintNagaKids.sol\":2588:2639  NagaKidContractChanged(nagaKidBefore, nagaKidAfter) */\n  0xabdf056c85a221fcb31d0366c4475b6b2c613df2eeea951a9fcb3e1a8595d973\n  swap2\n    /* \"#utility.yul\":1155:1173   */\n  add\n    /* \"ERC721A/MintNagaKids.sol\":2588:2639  NagaKidContractChanged(nagaKidBefore, nagaKidAfter) */\n  mload(0x40)\n  dup1\n  swap2\n  sub\n  swap1\n  log1\n    /* \"ERC721A/MintNagaKids.sol\":2423:2647  {... */\n  pop\n  pop\n    /* \"ERC721A/MintNagaKids.sol\":2359:2647  function setNagaKidContract(INagaKid _nagaKid) public onlyOwner {... */\n  pop\n  jump\t// out\n    /* \"ERC721A/MintNagaKids.sol\":3052:3272  function setMerkleRoot(bytes32 _merkleRoot) public onlyOwner {... */\ntag_17:\n    /* \"@openzeppelin/contracts/access/Ownable.sol\":1082:1089  address */\n  0x00\n    /* \"@openzeppelin/contracts/access/Ownable.sol\":1108:1114  _owner */\n  sload\n  sub(shl(0xa0, 0x01), 0x01)\n  and\n    /* \"@openzeppelin/contracts/utils/Context.sol\":719:729  msg.sender */\n  caller\n    /* \"@openzeppelin/contracts/access/Ownable.sol\":1248:1271  owner() == _msgSender() */\n  eq\n    /* \"@openzeppelin/contracts/access/Ownable.sol\":1240:1308  require(owner() == _msgSender(), \"Ownable: caller is not the owner\") */\n  tag_36\n  jumpi\n  mload(0x40)\n  shl(0xe5, 0x461bcd)\n  dup2\n  mstore\n    /* \"#utility.yul\":849:851   */\n  0x20\n    /* \"@openzeppelin/contracts/access/Ownable.sol\":1240:1308  require(owner() == _msgSender(), \"Ownable: caller is not the owner\") */\n  0x04\n  dup3\n  add\n    /* \"#utility.yul\":831:852   */\n  dup2\n  swap1\n  mstore\n    /* \"#utility.yul\":868:886   */\n  0x24\n  dup3\n  add\n    /* \"#utility.yul\":861:891   */\n  mstore\n  0x00\n  dup1\n  mload\n  0x20\n  data_9924ebdf1add33d25d4ef888e16131f0a5687b0580a36c21b5c301a6c462effe\n  dup4\n  codecopy\n  dup2\n  mload\n  swap2\n  mstore\n    /* \"#utility.yul\":907:925   */\n  0x44\n  dup3\n  add\n    /* \"#utility.yul\":900:962   */\n  mstore\n    /* \"#utility.yul\":979:997   */\n  0x64\n  add\n    /* \"@openzeppelin/contracts/access/Ownable.sol\":1240:1308  require(owner() == _msgSender(), \"Ownable: caller is not the owner\") */\n  tag_28\n    /* \"#utility.yul\":647:1003   */\n  jump\n    /* \"@openzeppelin/contracts/access/Ownable.sol\":1240:1308  require(owner() == _msgSender(), \"Ownable: caller is not the owner\") */\ntag_36:\n    /* \"ERC721A/MintNagaKids.sol\":3152:3162  merkleRoot */\n  0x04\n  dup1\n  sload\n    /* \"ERC721A/MintNagaKids.sol\":3173:3197  merkleRoot = _merkleRoot */\n  swap1\n  dup3\n  swap1\n  sstore\n    /* \"ERC721A/MintNagaKids.sol\":3215:3264  MerkleRootChanged(_merkleRootBefore, _merkleRoot) */\n  0x40\n  dup1\n  mload\n    /* \"#utility.yul\":1491:1516   */\n  dup3\n  dup2\n  mstore\n    /* \"#utility.yul\":1547:1549   */\n  0x20\n    /* \"#utility.yul\":1532:1550   */\n  dup2\n  add\n    /* \"#utility.yul\":1525:1559   */\n  dup5\n  swap1\n  mstore\n    /* \"ERC721A/MintNagaKids.sol\":3215:3264  MerkleRootChanged(_merkleRootBefore, _merkleRoot) */\n  0x123d88ba82600dfc3f219f8885c691b0ff020caa535666874b3f5174973757fe\n  swap2\n    /* \"#utility.yul\":1464:1482   */\n  add\n    /* \"ERC721A/MintNagaKids.sol\":3215:3264  MerkleRootChanged(_merkleRootBefore, _merkleRoot) */\ntag_39:\n  mload(0x40)\n  dup1\n  swap2\n  sub\n  swap1\n  log1\n    /* \"ERC721A/MintNagaKids.sol\":3113:3272  {... */\n  pop\n    /* \"ERC721A/MintNagaKids.sol\":3052:3272  function setMerkleRoot(bytes32 _merkleRoot) public onlyOwner {... */\n  pop\n  jump\t// out\n    /* \"ERC721A/MintNagaKids.sol\":2860:3044  function setSigner(address _signer) public onlyOwner {... */\ntag_19:\n    /* \"@openzeppelin/contracts/access/Ownable.sol\":1082:1089  address */\n  0x00\n    /* \"@openzeppelin/contracts/access/Ownable.sol\":1108:1114  _owner */\n  sload\n  sub(shl(0xa0, 0x01), 0x01)\n  and\n    /* \"@openzeppelin/contracts/utils/Context.sol\":719:729  msg.sender */\n  caller\n    /* \"@openzeppelin/contracts/access/Ownable.sol\":1248:1271  owner() == _msgSender() */\n  eq\n    /* \"@openzeppelin/contracts/access/Ownable.sol\":1240:1308  require(owner() == _msgSender(), \"Ownable: caller is not the owner\") */\n  tag_44\n  jumpi\n  mload(0x40)\n  shl(0xe5, 0x461bcd)\n  dup2\n  mstore\n    /* \"#utility.yul\":849:851   */\n  0x20\n    /* \"@openzeppelin/contracts/access/Ownable.sol\":1240:1308  require(owner() == _msgSender(), \"Ownable: caller is not the owner\") */\n  0x04\n  dup3\n  add\n    /* \"#utility.yul\":831:852   */\n  dup2\n  swap1\n  mstore\n    /* \"#utility.yul\":868:886   */\n  0x24\n  dup3\n  add\n    /* \"#utility.yul\":861:891   */\n  mstore\n  0x00\n  dup1\n  mload\n  0x20\n  data_9924ebdf1add33d25d4ef888e16131f0a5687b0580a36c21b5c301a6c462effe\n  dup4\n  codecopy\n  dup2\n  mload\n  swap2\n  mstore\n    /* \"#utility.yul\":907:925   */\n  0x44\n  dup3\n  add\n    /* \"#utility.yul\":900:962   */\n  mstore\n    /* \"#utility.yul\":979:997   */\n  0x64\n  add\n    /* \"@openzeppelin/contracts/access/Ownable.sol\":1240:1308  require(owner() == _msgSender(), \"Ownable: caller is not the owner\") */\n  tag_28\n    /* \"#utility.yul\":647:1003   */\n  jump\n    /* \"@openzeppelin/contracts/access/Ownable.sol\":1240:1308  require(owner() == _msgSender(), \"Ownable: caller is not the owner\") */\ntag_44:\n    /* \"ERC721A/MintNagaKids.sol\":2948:2954  signer */\n  0x05\n  dup1\n  sload\n  sub(shl(0xa0, 0x01), 0x01)\n    /* \"ERC721A/MintNagaKids.sol\":2965:2981  signer = _signer */\n  dup4\n  dup2\n  and\n    /* \"ERC721A/MintNagaKids.sol\":2948:2954  signer */\n  0x010000\n    /* \"ERC721A/MintNagaKids.sol\":2965:2981  signer = _signer */\n  dup2\n  dup2\n  mul\n  not(sub(shl(0xb0, 0x01), 0x010000))\n  dup6\n  and\n  or\n  swap1\n  swap5\n  sstore\n    /* \"ERC721A/MintNagaKids.sol\":2999:3036  SignerChanged(_signerBefore, _signer) */\n  0x40\n  dup1\n  mload\n    /* \"ERC721A/MintNagaKids.sol\":2948:2954  signer */\n  swap5\n  swap1\n  swap4\n  div\n  swap1\n  swap2\n  and\n    /* \"#utility.yul\":1220:1254   */\n  dup1\n  dup5\n  mstore\n    /* \"#utility.yul\":1285:1287   */\n  0x20\n    /* \"#utility.yul\":1270:1288   */\n  dup5\n  add\n    /* \"#utility.yul\":1263:1306   */\n  swap2\n  swap1\n  swap2\n  mstore\n    /* \"ERC721A/MintNagaKids.sol\":2948:2954  signer */\n  swap2\n    /* \"ERC721A/MintNagaKids.sol\":2999:3036  SignerChanged(_signerBefore, _signer) */\n  0xeeb293e1f8f3a9db91ade748726387ed1352ca78f5430c5f06fe3d1e1ad50579\n  swap2\n    /* \"#utility.yul\":1155:1173   */\n  add\n    /* \"ERC721A/MintNagaKids.sol\":2999:3036  SignerChanged(_signerBefore, _signer) */\n  tag_39\n    /* \"#utility.yul\":1008:1312   */\n  jump\n    /* \"#utility.yul\":14:155   */\ntag_49:\n  sub(shl(0xa0, 0x01), 0x01)\n    /* \"#utility.yul\":99:130   */\n  dup2\n  and\n    /* \"#utility.yul\":89:131   */\n  dup2\n  eq\n    /* \"#utility.yul\":79:149   */\n  tag_52\n  jumpi\n    /* \"#utility.yul\":145:146   */\n  0x00\n    /* \"#utility.yul\":142:143   */\n  dup1\n    /* \"#utility.yul\":135:147   */\n  revert\n    /* \"#utility.yul\":79:149   */\ntag_52:\n    /* \"#utility.yul\":14:155   */\n  pop\n  jump\t// out\n    /* \"#utility.yul\":160:642   */\ntag_3:\n    /* \"#utility.yul\":264:270   */\n  0x00\n    /* \"#utility.yul\":272:278   */\n  dup1\n    /* \"#utility.yul\":280:286   */\n  0x00\n    /* \"#utility.yul\":333:335   */\n  0x60\n    /* \"#utility.yul\":321:330   */\n  dup5\n    /* \"#utility.yul\":312:319   */\n  dup7\n    /* \"#utility.yul\":308:331   */\n  sub\n    /* \"#utility.yul\":304:336   */\n  slt\n    /* \"#utility.yul\":301:353   */\n  iszero\n  tag_54\n  jumpi\n    /* \"#utility.yul\":349:350   */\n  0x00\n    /* \"#utility.yul\":346:347   */\n  dup1\n    /* \"#utility.yul\":339:351   */\n  revert\n    /* \"#utility.yul\":301:353   */\ntag_54:\n    /* \"#utility.yul\":381:390   */\n  dup4\n    /* \"#utility.yul\":375:391   */\n  mload\n    /* \"#utility.yul\":400:441   */\n  tag_55\n    /* \"#utility.yul\":435:440   */\n  dup2\n    /* \"#utility.yul\":400:441   */\n  tag_49\n  jump\t// in\ntag_55:\n    /* \"#utility.yul\":510:512   */\n  0x20\n    /* \"#utility.yul\":495:513   */\n  dup6\n  add\n    /* \"#utility.yul\":489:514   */\n  mload\n    /* \"#utility.yul\":460:465   */\n  swap1\n  swap4\n  pop\n    /* \"#utility.yul\":523:566   */\n  tag_56\n    /* \"#utility.yul\":489:514   */\n  dup2\n    /* \"#utility.yul\":523:566   */\n  tag_49\n  jump\t// in\ntag_56:\n    /* \"#utility.yul\":585:592   */\n  dup1\n    /* \"#utility.yul\":575:592   */\n  swap3\n  pop\n  pop\n    /* \"#utility.yul\":632:634   */\n  0x40\n    /* \"#utility.yul\":621:630   */\n  dup5\n    /* \"#utility.yul\":617:635   */\n  add\n    /* \"#utility.yul\":611:636   */\n  mload\n    /* \"#utility.yul\":601:636   */\n  swap1\n  pop\n    /* \"#utility.yul\":160:642   */\n  swap3\n  pop\n  swap3\n  pop\n  swap3\n  jump\t// out\n    /* \"#utility.yul\":1317:1565   */\ntag_50:\n    /* \"ERC721A/MintNagaKids.sol\":428:6644  contract MintNagaKids is Ownable, ReentrancyGuard, VerifySignature {... */\n  dataSize(sub_0)\n  dup1\n  dataOffset(sub_0)\n  0x00\n  codecopy\n  0x00\n  return\nstop\ndata_9924ebdf1add33d25d4ef888e16131f0a5687b0580a36c21b5c301a6c462effe 4f776e61626c653a2063616c6c6572206973206e6f7420746865206f776e6572\n\nsub_0: assembly {\n        /* \"ERC721A/MintNagaKids.sol\":428:6644  contract MintNagaKids is Ownable, ReentrancyGuard, VerifySignature {... */\n      mstore(0x40, 0x80)\n      jumpi(tag_1, lt(calldatasize, 0x04))\n      shr(0xe0, calldataload(0x00))\n      dup1\n      0x9e6c8855\n      gt\n      tag_33\n      jumpi\n      dup1\n      0xe02023a1\n      gt\n      tag_34\n      jumpi\n      dup1\n      0xf6b48e55\n      gt\n      tag_35\n      jumpi\n      dup1\n      0xf6b48e55\n      eq\n      tag_29\n      jumpi\n      dup1\n      0xfa540801\n      eq\n      tag_30\n      jumpi\n      dup1\n      0xff05fe4a\n      eq\n      tag_31\n      jumpi\n      dup1\n      0xffdc6129\n      eq\n      tag_32\n      jumpi\n      0x00\n      dup1\n      revert\n    tag_35:\n      dup1\n      0xe02023a1\n      eq\n      tag_25\n      jumpi\n      dup1\n      0xef5fe79f\n      eq\n      tag_26\n      jumpi\n      dup1\n      0xf2fde38b\n      eq\n      tag_27\n      jumpi\n      dup1\n      0xf500cdfc\n      eq\n      tag_28\n      jumpi\n      0x00\n      dup1\n      revert\n    tag_34:\n      dup1\n      0xbff863ec\n      gt\n      tag_36\n      jumpi\n      dup1\n      0xbff863ec\n      eq\n      tag_21\n      jumpi\n      dup1\n      0xc4e41b22\n      eq\n      tag_22\n      jumpi\n      dup1\n      0xde6892c8\n      eq\n      tag_23\n      jumpi\n      dup1\n      0xdf4e5881\n      eq\n      tag_24\n      jumpi\n      0x00\n      dup1\n      revert\n    tag_36:\n      dup1\n      0x9e6c8855\n      eq\n      tag_17\n      jumpi\n      dup1\n      0xa4435dfd\n      eq\n      tag_18\n      jumpi\n      dup1\n      0xa7bb5803\n      eq\n      tag_19\n      jumpi\n      dup1\n      0xb5abafa1\n      eq\n      tag_20\n      jumpi\n      0x00\n      dup1\n      revert\n    tag_33:\n      dup1\n      0x51cff8d9\n      gt\n      tag_37\n      jumpi\n      dup1\n      0x8407ecc4\n      gt\n      tag_38\n      jumpi\n      dup1\n      0x8407ecc4\n      eq\n      tag_13\n      jumpi\n      dup1\n      0x8907f3fa\n      eq\n      tag_14\n      jumpi\n      dup1\n      0x8da5cb5b\n      eq\n      tag_15\n      jumpi\n      dup1\n      0x97aba7f9\n      eq\n      tag_16\n      jumpi\n      0x00\n      dup1\n      revert\n    tag_38:\n      dup1\n      0x51cff8d9\n      eq\n      tag_9\n      jumpi\n      dup1\n      0x6c19e783\n      eq\n      tag_10\n      jumpi\n      dup1\n      0x715018a6\n      eq\n      tag_11\n      jumpi\n      dup1\n      0x7cb64759\n      eq\n      tag_12\n      jumpi\n      0x00\n      dup1\n      revert\n    tag_37:\n      dup1\n      0x24c37a85\n      gt\n      tag_39\n      jumpi\n      dup1\n      0x24c37a85\n      eq\n      tag_5\n      jumpi\n      dup1\n      0x2eb4a7ab\n      eq\n      tag_6\n      jumpi\n      dup1\n      0x42920a46\n      eq\n      tag_7\n      jumpi\n      dup1\n      0x4c0f38c2\n      eq\n      tag_8\n      jumpi\n      0x00\n      dup1\n      revert\n    tag_39:\n      dup1\n      0x0a25dea9\n      eq\n      tag_2\n      jumpi\n      dup1\n      0x1f5ac1b2\n      eq\n      tag_3\n      jumpi\n      dup1\n      0x238ac933\n      eq\n      tag_4\n      jumpi\n    tag_1:\n      0x00\n      dup1\n      revert\n        /* \"ERC721A/MintNagaKids.sol\":826:926  bytes32 public constant DEFAULT = 0x0000000000000000000000000000000000000000000000000000000000000000 */\n    tag_2:\n      callvalue\n      dup1\n      iszero\n      tag_40\n      jumpi\n      0x00\n      dup1\n      revert\n    tag_40:\n      pop\n      tag_41\n        /* \"ERC721A/MintNagaKids.sol\":860:926  0x0000000000000000000000000000000000000000000000000000000000000000 */\n      0x00\n        /* \"ERC721A/MintNagaKids.sol\":826:926  bytes32 public constant DEFAULT = 0x0000000000000000000000000000000000000000000000000000000000000000 */\n      dup2\n      jump\n    tag_41:\n      mload(0x40)\n        /* \"#utility.yul\":160:185   */\n      swap1\n      dup2\n      mstore\n        /* \"#utility.yul\":148:150   */\n      0x20\n        /* \"#utility.yul\":133:151   */\n      add\n        /* \"ERC721A/MintNagaKids.sol\":826:926  bytes32 public constant DEFAULT = 0x0000000000000000000000000000000000000000000000000000000000000000 */\n    tag_43:\n      mload(0x40)\n      dup1\n      swap2\n      sub\n      swap1\n      return\n        /* \"ERC721A/VerifySignature.sol\":99:259  function getMessageHash(... */\n    tag_3:\n      callvalue\n      dup1\n      iszero\n      tag_45\n      jumpi\n      0x00\n      dup1\n      revert\n    tag_45:\n      pop\n      tag_41\n      tag_47\n      calldatasize\n      0x04\n      tag_48\n      jump\t// in\n    tag_47:\n      tag_49\n      jump\t// in\n        /* \"ERC721A/MintNagaKids.sol\":1213:1234  address public signer */\n    tag_4:\n      callvalue\n      dup1\n      iszero\n      tag_51\n      jumpi\n      0x00\n      dup1\n      revert\n    tag_51:\n      pop\n      sload(0x05)\n      tag_52\n      swap1\n      0x010000\n      swap1\n      div\n      sub(shl(0xa0, 0x01), 0x01)\n      and\n      dup2\n      jump\n    tag_52:\n      mload(0x40)\n      sub(shl(0xa0, 0x01), 0x01)\n        /* \"#utility.yul\":748:780   */\n      swap1\n      swap2\n      and\n        /* \"#utility.yul\":730:781   */\n      dup2\n      mstore\n        /* \"#utility.yul\":718:720   */\n      0x20\n        /* \"#utility.yul\":703:721   */\n      add\n        /* \"ERC721A/MintNagaKids.sol\":1213:1234  address public signer */\n      tag_43\n        /* \"#utility.yul\":584:787   */\n      jump\n        /* \"ERC721A/MintNagaKids.sol\":661:745  bytes32 public constant NAGA_HOLDER_MINT_ROUND = keccak256(\"NAGA_HOLDER_MINT_ROUND\") */\n    tag_5:\n      callvalue\n      dup1\n      iszero\n      tag_56\n      jumpi\n      0x00\n      dup1\n      revert\n    tag_56:\n      pop\n      tag_41\n        /* \"ERC721A/MintNagaKids.sol\":710:745  keccak256(\"NAGA_HOLDER_MINT_ROUND\") */\n      0xb3c595e55271590809f54e2f4fc3a582754f45b104dd3c41666e2ad310493db3\n        /* \"ERC721A/MintNagaKids.sol\":661:745  bytes32 public constant NAGA_HOLDER_MINT_ROUND = keccak256(\"NAGA_HOLDER_MINT_ROUND\") */\n      dup2\n      jump\n        /* \"ERC721A/MintNagaKids.sol\":1090:1115  bytes32 public merkleRoot */\n    tag_6:\n      callvalue\n      dup1\n      iszero\n      tag_60\n      jumpi\n      0x00\n      dup1\n      revert\n    tag_60:\n      pop\n      tag_41\n      sload(0x04)\n      dup2\n      jump\n        /* \"ERC721A/VerifySignature.sol\":769:1119  function verify(... */\n    tag_7:\n      callvalue\n      dup1\n      iszero\n      tag_64\n      jumpi\n      0x00\n      dup1\n      revert\n    tag_64:\n      pop\n      tag_65\n      tag_66\n      calldatasize\n      0x04\n      tag_67\n      jump\t// in\n    tag_66:\n      tag_68\n      jump\t// in\n    tag_65:\n      mload(0x40)\n        /* \"#utility.yul\":2413:2427   */\n      swap1\n      iszero\n        /* \"#utility.yul\":2406:2428   */\n      iszero\n        /* \"#utility.yul\":2388:2429   */\n      dup2\n      mstore\n        /* \"#utility.yul\":2376:2378   */\n      0x20\n        /* \"#utility.yul\":2361:2379   */\n      add\n        /* \"ERC721A/VerifySignature.sol\":769:1119  function verify(... */\n      tag_43\n        /* \"#utility.yul\":2248:2435   */\n      jump\n        /* \"ERC721A/MintNagaKids.sol\":6532:6639  function getMaxSupply() public view returns (uint256) {... */\n    tag_8:\n      callvalue\n      dup1\n      iszero\n      tag_71\n      jumpi\n      0x00\n      dup1\n      revert\n    tag_71:\n      pop\n      tag_41\n      tag_73\n      jump\t// in\n        /* \"ERC721A/MintNagaKids.sol\":5040:5378  function withdraw(address _to) public onlyOwner {... */\n    tag_9:\n      callvalue\n      dup1\n      iszero\n      tag_76\n      jumpi\n      0x00\n      dup1\n      revert\n    tag_76:\n      pop\n      tag_77\n      tag_78\n      calldatasize\n      0x04\n      tag_48\n      jump\t// in\n    tag_78:\n      tag_79\n      jump\t// in\n    tag_77:\n      stop\n        /* \"ERC721A/MintNagaKids.sol\":2860:3044  function setSigner(address _signer) public onlyOwner {... */\n    tag_10:\n      callvalue\n      dup1\n      iszero\n      tag_80\n      jumpi\n      0x00\n      dup1\n      revert\n    tag_80:\n      pop\n      tag_77\n      tag_82\n      calldatasize\n      0x04\n      tag_48\n      jump\t// in\n    tag_82:\n      tag_83\n      jump\t// in\n        /* \"@openzeppelin/contracts/access/Ownable.sol\":1668:1769  function renounceOwnership() public virtual onlyOwner {... */\n    tag_11:\n      callvalue\n      dup1\n      iszero\n      tag_84\n      jumpi\n      0x00\n      dup1\n      revert\n    tag_84:\n      pop\n      tag_77\n      tag_86\n      jump\t// in\n        /* \"ERC721A/MintNagaKids.sol\":3052:3272  function setMerkleRoot(bytes32 _merkleRoot) public onlyOwner {... */\n    tag_12:\n      callvalue\n      dup1\n      iszero\n      tag_87\n      jumpi\n      0x00\n      dup1\n      revert\n    tag_87:\n      pop\n      tag_77\n      tag_89\n      calldatasize\n      0x04\n      tag_90\n      jump\t// in\n    tag_89:\n      tag_91\n      jump\t// in\n        /* \"ERC721A/MintNagaKids.sol\":5386:5763  function withdrawCurrency(address _to,address _currency) public onlyOwner {... */\n    tag_13:\n      callvalue\n      dup1\n      iszero\n      tag_92\n      jumpi\n      0x00\n      dup1\n      revert\n    tag_92:\n      pop\n      tag_77\n      tag_94\n      calldatasize\n      0x04\n      tag_95\n      jump\t// in\n    tag_94:\n      tag_96\n      jump\t// in\n        /* \"ERC721A/MintNagaKids.sol\":1167:1204  bool public isPrivateMintOpen = false */\n    tag_14:\n      callvalue\n      dup1\n      iszero\n      tag_97\n      jumpi\n      0x00\n      dup1\n      revert\n    tag_97:\n      pop\n      sload(0x05)\n      tag_65\n      swap1\n      0x0100\n      swap1\n      div\n      0xff\n      and\n      dup2\n      jump\n        /* \"@openzeppelin/contracts/access/Ownable.sol\":1036:1121  function owner() public view virtual returns (address) {... */\n    tag_15:\n      callvalue\n      dup1\n      iszero\n      tag_101\n      jumpi\n      0x00\n      dup1\n      revert\n    tag_101:\n      pop\n        /* \"@openzeppelin/contracts/access/Ownable.sol\":1082:1089  address */\n      0x00\n        /* \"@openzeppelin/contracts/access/Ownable.sol\":1108:1114  _owner */\n      sload\n      sub(shl(0xa0, 0x01), 0x01)\n      and\n        /* \"@openzeppelin/contracts/access/Ownable.sol\":1036:1121  function owner() public view virtual returns (address) {... */\n      jump(tag_52)\n        /* \"ERC721A/VerifySignature.sol\":1127:1401  function recoverSigner(... */\n    tag_16:\n      callvalue\n      dup1\n      iszero\n      tag_105\n      jumpi\n      0x00\n      dup1\n      revert\n    tag_105:\n      pop\n      tag_52\n      tag_107\n      calldatasize\n      0x04\n      tag_108\n      jump\t// in\n    tag_107:\n      tag_109\n      jump\t// in\n        /* \"ERC721A/MintNagaKids.sol\":2359:2647  function setNagaKidContract(INagaKid _nagaKid) public onlyOwner {... */\n    tag_17:\n      callvalue\n      dup1\n      iszero\n      tag_111\n      jumpi\n      0x00\n      dup1\n      revert\n    tag_111:\n      pop\n      tag_77\n      tag_113\n      calldatasize\n      0x04\n      tag_48\n      jump\t// in\n    tag_113:\n      tag_115\n      jump\t// in\n        /* \"ERC721A/MintNagaKids.sol\":1124:1160  bool public isPublicMintOpen = false */\n    tag_18:\n      callvalue\n      dup1\n      iszero\n      tag_116\n      jumpi\n      0x00\n      dup1\n      revert\n    tag_116:\n      pop\n      sload(0x05)\n      tag_65\n      swap1\n      0xff\n      and\n      dup2\n      jump\n        /* \"ERC721A/VerifySignature.sol\":1409:2300  function splitSignature(bytes memory sig)... */\n    tag_19:\n      callvalue\n      dup1\n      iszero\n      tag_120\n      jumpi\n      0x00\n      dup1\n      revert\n    tag_120:\n      pop\n      tag_121\n      tag_122\n      calldatasize\n      0x04\n      tag_123\n      jump\t// in\n    tag_122:\n      tag_124\n      jump\t// in\n    tag_121:\n      0x40\n      dup1\n      mload\n        /* \"#utility.yul\":4384:4409   */\n      swap4\n      dup5\n      mstore\n        /* \"#utility.yul\":4440:4442   */\n      0x20\n        /* \"#utility.yul\":4425:4443   */\n      dup5\n      add\n        /* \"#utility.yul\":4418:4452   */\n      swap3\n      swap1\n      swap3\n      mstore\n        /* \"#utility.yul\":4500:4504   */\n      0xff\n        /* \"#utility.yul\":4488:4505   */\n      and\n        /* \"#utility.yul\":4468:4486   */\n      swap1\n      dup3\n      add\n        /* \"#utility.yul\":4461:4506   */\n      mstore\n        /* \"#utility.yul\":4372:4374   */\n      0x60\n        /* \"#utility.yul\":4357:4375   */\n      add\n        /* \"ERC721A/VerifySignature.sol\":1409:2300  function splitSignature(bytes memory sig)... */\n      tag_43\n        /* \"#utility.yul\":4186:4512   */\n      jump\n        /* \"ERC721A/MintNagaKids.sol\":6262:6405  function userMintedAmount(address _user,bytes32 _round) public view returns(uint256) {... */\n    tag_20:\n      callvalue\n      dup1\n      iszero\n      tag_127\n      jumpi\n      0x00\n      dup1\n      revert\n    tag_127:\n      pop\n      tag_41\n      tag_129\n      calldatasize\n      0x04\n      tag_130\n      jump\t// in\n    tag_129:\n      sub(shl(0xa0, 0x01), 0x01)\n        /* \"ERC721A/MintNagaKids.sol\":6365:6389  _userMintedAmount[_user] */\n      swap2\n      swap1\n      swap2\n      and\n        /* \"ERC721A/MintNagaKids.sol\":6338:6345  uint256 */\n      0x00\n        /* \"ERC721A/MintNagaKids.sol\":6365:6389  _userMintedAmount[_user] */\n      swap1\n      dup2\n      mstore\n        /* \"ERC721A/MintNagaKids.sol\":6365:6382  _userMintedAmount */\n      0x07\n        /* \"ERC721A/MintNagaKids.sol\":6365:6389  _userMintedAmount[_user] */\n      0x20\n      swap1\n      dup2\n      mstore\n      0x40\n      dup1\n      dup4\n      keccak256\n        /* \"ERC721A/MintNagaKids.sol\":6365:6397  _userMintedAmount[_user][_round] */\n      swap4\n      dup4\n      mstore\n      swap3\n      swap1\n      mstore\n      keccak256\n      sload\n      swap1\n        /* \"ERC721A/MintNagaKids.sol\":6262:6405  function userMintedAmount(address _user,bytes32 _round) public view returns(uint256) {... */\n      jump\n        /* \"ERC721A/MintNagaKids.sol\":5771:6114  function withdrawNFT(address _to,address _NFT,uint256 _tokenId) public onlyOwner {... */\n    tag_21:\n      callvalue\n      dup1\n      iszero\n      tag_133\n      jumpi\n      0x00\n      dup1\n      revert\n    tag_133:\n      pop\n      tag_77\n      tag_135\n      calldatasize\n      0x04\n      tag_136\n      jump\t// in\n    tag_135:\n      tag_137\n      jump\t// in\n        /* \"ERC721A/MintNagaKids.sol\":6413:6524  function getTotalSupply() public view returns (uint256) {... */\n    tag_22:\n      callvalue\n      dup1\n      iszero\n      tag_138\n      jumpi\n      0x00\n      dup1\n      revert\n    tag_138:\n      pop\n      tag_41\n      tag_140\n      jump\t// in\n        /* \"ERC721A/MintNagaKids.sol\":4210:5032  function publicMint(bytes calldata _sig) public payable nonReentrant {... */\n    tag_23:\n      tag_77\n      tag_143\n      calldatasize\n      0x04\n      tag_144\n      jump\t// in\n    tag_143:\n      tag_145\n      jump\t// in\n        /* \"ERC721A/MintNagaKids.sol\":1014:1045  INagaKid public nagaKidContract */\n    tag_24:\n      callvalue\n      dup1\n      iszero\n      tag_146\n      jumpi\n      0x00\n      dup1\n      revert\n    tag_146:\n      pop\n      sload(0x02)\n      tag_52\n      swap1\n      sub(shl(0xa0, 0x01), 0x01)\n      and\n      dup2\n      jump\n        /* \"ERC721A/MintNagaKids.sol\":939:1005  bytes32 public constant WITHDRAW_ROLE = keccak256(\"WITHDRAW_ROLE\") */\n    tag_25:\n      callvalue\n      dup1\n      iszero\n      tag_151\n      jumpi\n      0x00\n      dup1\n      revert\n    tag_151:\n      pop\n      tag_41\n        /* \"ERC721A/MintNagaKids.sol\":979:1005  keccak256(\"WITHDRAW_ROLE\") */\n      0x5d8e12c39142ff96d79d04d15d1ba1269e4fe57bb9d26f43523628b34ba108ec\n        /* \"ERC721A/MintNagaKids.sol\":939:1005  bytes32 public constant WITHDRAW_ROLE = keccak256(\"WITHDRAW_ROLE\") */\n      dup2\n      jump\n        /* \"ERC721A/MintNagaKids.sol\":1052:1083  bytes32 public currentMintRound */\n    tag_26:\n      callvalue\n      dup1\n      iszero\n      tag_155\n      jumpi\n      0x00\n      dup1\n      revert\n    tag_155:\n      pop\n      tag_41\n      sload(0x03)\n      dup2\n      jump\n        /* \"@openzeppelin/contracts/access/Ownable.sol\":1918:2116  function transferOwnership(address newOwner) public virtual onlyOwner {... */\n    tag_27:\n      callvalue\n      dup1\n      iszero\n      tag_159\n      jumpi\n      0x00\n      dup1\n      revert\n    tag_159:\n      pop\n      tag_77\n      tag_161\n      calldatasize\n      0x04\n      tag_48\n      jump\t// in\n    tag_161:\n      tag_162\n      jump\t// in\n        /* \"ERC721A/MintNagaKids.sol\":504:584  bytes32 public constant WHITELIST_MINT_ROUND = keccak256(\"WHITELIST_MINT_ROUND\") */\n    tag_28:\n      callvalue\n      dup1\n      iszero\n      tag_163\n      jumpi\n      0x00\n      dup1\n      revert\n    tag_163:\n      pop\n      tag_41\n        /* \"ERC721A/MintNagaKids.sol\":551:584  keccak256(\"WHITELIST_MINT_ROUND\") */\n      0x68e7d51fdb912cb107dda2e59b053d87fcca666dd0ef5339cd3474ccb5276bba\n        /* \"ERC721A/MintNagaKids.sol\":504:584  bytes32 public constant WHITELIST_MINT_ROUND = keccak256(\"WHITELIST_MINT_ROUND\") */\n      dup2\n      jump\n        /* \"ERC721A/MintNagaKids.sol\":3280:4202  function allowlistMint(bytes32[] calldata _proof, uint256 _amount, bytes32 _round) public payable nonReentrant {... */\n    tag_29:\n      tag_77\n      tag_168\n      calldatasize\n      0x04\n      tag_169\n      jump\t// in\n    tag_168:\n      tag_170\n      jump\t// in\n        /* \"ERC721A/VerifySignature.sol\":267:761  function getEthSignedMessageHash(bytes32 _messageHash)... */\n    tag_30:\n      callvalue\n      dup1\n      iszero\n      tag_171\n      jumpi\n      0x00\n      dup1\n      revert\n    tag_171:\n      pop\n      tag_41\n      tag_173\n      calldatasize\n      0x04\n      tag_90\n      jump\t// in\n    tag_173:\n      tag_174\n      jump\t// in\n        /* \"ERC721A/MintNagaKids.sol\":2655:2852  function setRound(bytes32 _round) public onlyOwner {... */\n    tag_31:\n      callvalue\n      dup1\n      iszero\n      tag_176\n      jumpi\n      0x00\n      dup1\n      revert\n    tag_176:\n      pop\n      tag_77\n      tag_178\n      calldatasize\n      0x04\n      tag_90\n      jump\t// in\n    tag_178:\n      tag_179\n      jump\t// in\n        /* \"ERC721A/MintNagaKids.sol\":6122:6254  function isUserMinted(address _user,bytes32 _round) public view returns(bool) {... */\n    tag_32:\n      callvalue\n      dup1\n      iszero\n      tag_180\n      jumpi\n      0x00\n      dup1\n      revert\n    tag_180:\n      pop\n      tag_65\n      tag_182\n      calldatasize\n      0x04\n      tag_130\n      jump\t// in\n    tag_182:\n      sub(shl(0xa0, 0x01), 0x01)\n        /* \"ERC721A/MintNagaKids.sol\":6218:6238  _isUserMinted[_user] */\n      swap2\n      swap1\n      swap2\n      and\n        /* \"ERC721A/MintNagaKids.sol\":6194:6198  bool */\n      0x00\n        /* \"ERC721A/MintNagaKids.sol\":6218:6238  _isUserMinted[_user] */\n      swap1\n      dup2\n      mstore\n        /* \"ERC721A/MintNagaKids.sol\":6218:6231  _isUserMinted */\n      0x06\n        /* \"ERC721A/MintNagaKids.sol\":6218:6238  _isUserMinted[_user] */\n      0x20\n      swap1\n      dup2\n      mstore\n      0x40\n      dup1\n      dup4\n      keccak256\n        /* \"ERC721A/MintNagaKids.sol\":6218:6246  _isUserMinted[_user][_round] */\n      swap4\n      dup4\n      mstore\n      swap3\n      swap1\n      mstore\n      keccak256\n      sload\n      0xff\n      and\n      swap1\n        /* \"ERC721A/MintNagaKids.sol\":6122:6254  function isUserMinted(address _user,bytes32 _round) public view returns(bool) {... */\n      jump\n        /* \"ERC721A/VerifySignature.sol\":99:259  function getMessageHash(... */\n    tag_49:\n        /* \"ERC721A/VerifySignature.sol\":212:250  abi.encodePacked(_user, address(this)) */\n      mload(0x40)\n      not(0xffffffffffffffffffffffff)\n        /* \"#utility.yul\":7107:7109   */\n      0x60\n        /* \"#utility.yul\":7103:7118   */\n      dup4\n      dup2\n      shl\n        /* \"#utility.yul\":7099:7123   */\n      dup3\n      and\n        /* \"ERC721A/VerifySignature.sol\":212:250  abi.encodePacked(_user, address(this)) */\n      0x20\n      dup5\n      add\n        /* \"#utility.yul\":7087:7124   */\n      mstore\n        /* \"ERC721A/VerifySignature.sol\":244:248  this */\n      address\n        /* \"#utility.yul\":7158:7173   */\n      swap1\n      shl\n        /* \"#utility.yul\":7154:7178   */\n      and\n        /* \"#utility.yul\":7140:7152   */\n      0x34\n      dup3\n      add\n        /* \"#utility.yul\":7133:7179   */\n      mstore\n        /* \"ERC721A/VerifySignature.sol\":175:182  bytes32 */\n      0x00\n      swap1\n        /* \"#utility.yul\":7195:7207   */\n      0x48\n      add\n        /* \"ERC721A/VerifySignature.sol\":212:250  abi.encodePacked(_user, address(this)) */\n    tag_186:\n      mload(0x40)\n      0x20\n      dup2\n      dup4\n      sub\n      sub\n      dup2\n      mstore\n      swap1\n      0x40\n      mstore\n        /* \"ERC721A/VerifySignature.sol\":202:251  keccak256(abi.encodePacked(_user, address(this))) */\n      dup1\n      mload\n      swap1\n      0x20\n      add\n      keccak256\n        /* \"ERC721A/VerifySignature.sol\":195:251  return keccak256(abi.encodePacked(_user, address(this))) */\n      swap1\n      pop\n        /* \"ERC721A/VerifySignature.sol\":99:259  function getMessageHash(... */\n      swap2\n      swap1\n      pop\n      jump\t// out\n        /* \"ERC721A/VerifySignature.sol\":769:1119  function verify(... */\n    tag_68:\n        /* \"ERC721A/VerifySignature.sol\":896:900  bool */\n      0x00\n        /* \"ERC721A/VerifySignature.sol\":913:932  bytes32 messageHash */\n      dup1\n        /* \"ERC721A/VerifySignature.sol\":935:956  getMessageHash(_user) */\n      tag_189\n        /* \"ERC721A/VerifySignature.sol\":950:955  _user */\n      dup5\n        /* \"ERC721A/VerifySignature.sol\":935:949  getMessageHash */\n      tag_49\n        /* \"ERC721A/VerifySignature.sol\":935:956  getMessageHash(_user) */\n      jump\t// in\n    tag_189:\n        /* \"ERC721A/VerifySignature.sol\":913:956  bytes32 messageHash = getMessageHash(_user) */\n      swap1\n      pop\n        /* \"ERC721A/VerifySignature.sol\":967:995  bytes32 ethSignedMessageHash */\n      0x00\n        /* \"ERC721A/VerifySignature.sol\":998:1034  getEthSignedMessageHash(messageHash) */\n      tag_190\n        /* \"ERC721A/VerifySignature.sol\":1022:1033  messageHash */\n      dup3\n        /* \"ERC721A/VerifySignature.sol\":998:1021  getEthSignedMessageHash */\n      tag_174\n        /* \"ERC721A/VerifySignature.sol\":998:1034  getEthSignedMessageHash(messageHash) */\n      jump\t// in\n    tag_190:\n        /* \"ERC721A/VerifySignature.sol\":967:1034  bytes32 ethSignedMessageHash = getEthSignedMessageHash(messageHash) */\n      swap1\n      pop\n        /* \"ERC721A/VerifySignature.sol\":1104:1111  _signer */\n      dup6\n      sub(shl(0xa0, 0x01), 0x01)\n        /* \"ERC721A/VerifySignature.sol\":1054:1111  recoverSigner(ethSignedMessageHash, signature) == _signer */\n      and\n        /* \"ERC721A/VerifySignature.sol\":1054:1100  recoverSigner(ethSignedMessageHash, signature) */\n      tag_191\n        /* \"ERC721A/VerifySignature.sol\":1068:1088  ethSignedMessageHash */\n      dup3\n        /* \"ERC721A/VerifySignature.sol\":1090:1099  signature */\n      dup7\n        /* \"ERC721A/VerifySignature.sol\":1054:1067  recoverSigner */\n      tag_109\n        /* \"ERC721A/VerifySignature.sol\":1054:1100  recoverSigner(ethSignedMessageHash, signature) */\n      jump\t// in\n    tag_191:\n      sub(shl(0xa0, 0x01), 0x01)\n        /* \"ERC721A/VerifySignature.sol\":1054:1111  recoverSigner(ethSignedMessageHash, signature) == _signer */\n      and\n      eq\n      swap7\n        /* \"ERC721A/VerifySignature.sol\":769:1119  function verify(... */\n      swap6\n      pop\n      pop\n      pop\n      pop\n      pop\n      pop\n      jump\t// out\n        /* \"ERC721A/MintNagaKids.sol\":6532:6639  function getMaxSupply() public view returns (uint256) {... */\n    tag_73:\n        /* \"ERC721A/MintNagaKids.sol\":6604:6619  nagaKidContract */\n      sload(0x02)\n        /* \"ERC721A/MintNagaKids.sol\":6604:6631  nagaKidContract.maxSupply() */\n      0x40\n      dup1\n      mload\n      shl(0xe0, 0xd5abeb01)\n      dup2\n      mstore\n      swap1\n      mload\n        /* \"ERC721A/MintNagaKids.sol\":6577:6584  uint256 */\n      0x00\n      swap3\n      sub(shl(0xa0, 0x01), 0x01)\n        /* \"ERC721A/MintNagaKids.sol\":6604:6619  nagaKidContract */\n      and\n      swap2\n        /* \"ERC721A/MintNagaKids.sol\":6604:6629  nagaKidContract.maxSupply */\n      0xd5abeb01\n      swap2\n        /* \"ERC721A/MintNagaKids.sol\":6604:6631  nagaKidContract.maxSupply() */\n      0x04\n      dup1\n      dup4\n      add\n      swap3\n      0x20\n      swap3\n      swap2\n      swap1\n      dup3\n      swap1\n      sub\n      add\n      dup2\n        /* \"ERC721A/MintNagaKids.sol\":6604:6619  nagaKidContract */\n      dup7\n        /* \"ERC721A/MintNagaKids.sol\":6604:6631  nagaKidContract.maxSupply() */\n      gas\n      staticcall\n      iszero\n      dup1\n      iszero\n      tag_194\n      jumpi\n      returndatasize\n      0x00\n      dup1\n      returndatacopy\n      revert(0x00, returndatasize)\n    tag_194:\n      pop\n      pop\n      pop\n      pop\n      mload(0x40)\n      returndatasize\n      not(0x1f)\n      0x1f\n      dup3\n      add\n      and\n      dup3\n      add\n      dup1\n      0x40\n      mstore\n      pop\n      dup2\n      add\n      swap1\n      tag_195\n      swap2\n      swap1\n      tag_196\n      jump\t// in\n    tag_195:\n        /* \"ERC721A/MintNagaKids.sol\":6597:6631  return nagaKidContract.maxSupply() */\n      swap1\n      pop\n        /* \"ERC721A/MintNagaKids.sol\":6532:6639  function getMaxSupply() public view returns (uint256) {... */\n      swap1\n      jump\t// out\n        /* \"ERC721A/MintNagaKids.sol\":5040:5378  function withdraw(address _to) public onlyOwner {... */\n    tag_79:\n        /* \"@openzeppelin/contracts/access/Ownable.sol\":1082:1089  address */\n      0x00\n        /* \"@openzeppelin/contracts/access/Ownable.sol\":1108:1114  _owner */\n      sload\n      sub(shl(0xa0, 0x01), 0x01)\n      and\n        /* \"@openzeppelin/contracts/utils/Context.sol\":719:729  msg.sender */\n      caller\n        /* \"@openzeppelin/contracts/access/Ownable.sol\":1248:1271  owner() == _msgSender() */\n      eq\n        /* \"@openzeppelin/contracts/access/Ownable.sol\":1240:1308  require(owner() == _msgSender(), \"Ownable: caller is not the owner\") */\n      tag_201\n      jumpi\n      mload(0x40)\n      shl(0xe5, 0x461bcd)\n      dup2\n      mstore\n      0x04\n      add\n      tag_202\n      swap1\n      tag_203\n      jump\t// in\n    tag_202:\n      mload(0x40)\n      dup1\n      swap2\n      sub\n      swap1\n      revert\n    tag_201:\n        /* \"ERC721A/MintNagaKids.sol\":5124:5145  address(this).balance */\n      selfbalance\n        /* \"ERC721A/MintNagaKids.sol\":5164:5185  balanceOFContract > 0 */\n      dup1\n        /* \"ERC721A/MintNagaKids.sol\":5156:5210  require(balanceOFContract > 0, \"Insufficient Balance\") */\n      tag_205\n      jumpi\n      mload(0x40)\n      shl(0xe5, 0x461bcd)\n      dup2\n      mstore\n        /* \"#utility.yul\":7970:7972   */\n      0x20\n        /* \"ERC721A/MintNagaKids.sol\":5156:5210  require(balanceOFContract > 0, \"Insufficient Balance\") */\n      0x04\n      dup3\n      add\n        /* \"#utility.yul\":7952:7973   */\n      mstore\n        /* \"#utility.yul\":8009:8011   */\n      0x14\n        /* \"#utility.yul\":7989:8007   */\n      0x24\n      dup3\n      add\n        /* \"#utility.yul\":7982:8012   */\n      mstore\n      shl(0x60, 0x496e73756666696369656e742042616c616e6365)\n        /* \"#utility.yul\":8028:8046   */\n      0x44\n      dup3\n      add\n        /* \"#utility.yul\":8021:8071   */\n      mstore\n        /* \"#utility.yul\":8088:8106   */\n      0x64\n      add\n        /* \"ERC721A/MintNagaKids.sol\":5156:5210  require(balanceOFContract > 0, \"Insufficient Balance\") */\n      tag_202\n        /* \"#utility.yul\":7768:8112   */\n      jump\n        /* \"ERC721A/MintNagaKids.sol\":5156:5210  require(balanceOFContract > 0, \"Insufficient Balance\") */\n    tag_205:\n        /* \"ERC721A/MintNagaKids.sol\":5222:5233  bool status */\n      0x00\n        /* \"ERC721A/MintNagaKids.sol\":5238:5241  _to */\n      dup3\n      sub(shl(0xa0, 0x01), 0x01)\n        /* \"ERC721A/MintNagaKids.sol\":5238:5246  _to.call */\n      and\n        /* \"ERC721A/MintNagaKids.sol\":5254:5271  balanceOFContract */\n      dup3\n        /* \"ERC721A/MintNagaKids.sol\":5238:5277  _to.call{value: balanceOFContract }(\"\") */\n      mload(0x40)\n      0x00\n      mload(0x40)\n      dup1\n      dup4\n      sub\n      dup2\n      dup6\n      dup8\n      gas\n      call\n      swap3\n      pop\n      pop\n      pop\n      returndatasize\n      dup1\n      0x00\n      dup2\n      eq\n      tag_212\n      jumpi\n      mload(0x40)\n      swap2\n      pop\n      and(add(returndatasize, 0x3f), not(0x1f))\n      dup3\n      add\n      0x40\n      mstore\n      returndatasize\n      dup3\n      mstore\n      returndatasize\n      0x00\n      0x20\n      dup5\n      add\n      returndatacopy\n      jump(tag_211)\n    tag_212:\n      0x60\n      swap2\n      pop\n    tag_211:\n      pop\n        /* \"ERC721A/MintNagaKids.sol\":5221:5277  (bool status,) = _to.call{value: balanceOFContract }(\"\") */\n      pop\n      swap1\n      pop\n        /* \"ERC721A/MintNagaKids.sol\":5296:5302  status */\n      dup1\n        /* \"ERC721A/MintNagaKids.sol\":5288:5303  require(status) */\n      tag_213\n      jumpi\n      0x00\n      dup1\n      revert\n    tag_213:\n        /* \"ERC721A/MintNagaKids.sol\":5321:5370  Withdraw(_to, balanceOFContract ,block.timestamp) */\n      0x40\n      dup1\n      mload\n      sub(shl(0xa0, 0x01), 0x01)\n        /* \"#utility.yul\":8547:8579   */\n      dup6\n      and\n        /* \"#utility.yul\":8529:8580   */\n      dup2\n      mstore\n        /* \"#utility.yul\":8611:8613   */\n      0x20\n        /* \"#utility.yul\":8596:8614   */\n      dup2\n      add\n        /* \"#utility.yul\":8589:8623   */\n      dup5\n      swap1\n      mstore\n        /* \"ERC721A/MintNagaKids.sol\":5354:5369  block.timestamp */\n      timestamp\n        /* \"#utility.yul\":8639:8657   */\n      swap2\n      dup2\n      add\n        /* \"#utility.yul\":8632:8666   */\n      swap2\n      swap1\n      swap2\n      mstore\n        /* \"ERC721A/MintNagaKids.sol\":5321:5370  Withdraw(_to, balanceOFContract ,block.timestamp) */\n      0xf279e6a1f5e320cca91135676d9cb6e44ca8a08c0b88342bcdb1144f6511b568\n      swap1\n        /* \"#utility.yul\":8517:8519   */\n      0x60\n        /* \"#utility.yul\":8502:8520   */\n      add\n        /* \"ERC721A/MintNagaKids.sol\":5321:5370  Withdraw(_to, balanceOFContract ,block.timestamp) */\n    tag_214:\n      mload(0x40)\n      dup1\n      swap2\n      sub\n      swap1\n      log1\n        /* \"ERC721A/MintNagaKids.sol\":5088:5378  {... */\n      pop\n      pop\n        /* \"ERC721A/MintNagaKids.sol\":5040:5378  function withdraw(address _to) public onlyOwner {... */\n      pop\n      jump\t// out\n        /* \"ERC721A/MintNagaKids.sol\":2860:3044  function setSigner(address _signer) public onlyOwner {... */\n    tag_83:\n        /* \"@openzeppelin/contracts/access/Ownable.sol\":1082:1089  address */\n      0x00\n        /* \"@openzeppelin/contracts/access/Ownable.sol\":1108:1114  _owner */\n      sload\n      sub(shl(0xa0, 0x01), 0x01)\n      and\n        /* \"@openzeppelin/contracts/utils/Context.sol\":719:729  msg.sender */\n      caller\n        /* \"@openzeppelin/contracts/access/Ownable.sol\":1248:1271  owner() == _msgSender() */\n      eq\n        /* \"@openzeppelin/contracts/access/Ownable.sol\":1240:1308  require(owner() == _msgSender(), \"Ownable: caller is not the owner\") */\n      tag_219\n      jumpi\n      mload(0x40)\n      shl(0xe5, 0x461bcd)\n      dup2\n      mstore\n      0x04\n      add\n      tag_202\n      swap1\n      tag_203\n      jump\t// in\n    tag_219:\n        /* \"ERC721A/MintNagaKids.sol\":2948:2954  signer */\n      0x05\n      dup1\n      sload\n      sub(shl(0xa0, 0x01), 0x01)\n        /* \"ERC721A/MintNagaKids.sol\":2965:2981  signer = _signer */\n      dup4\n      dup2\n      and\n        /* \"ERC721A/MintNagaKids.sol\":2948:2954  signer */\n      0x010000\n        /* \"ERC721A/MintNagaKids.sol\":2965:2981  signer = _signer */\n      dup2\n      dup2\n      mul\n      not(sub(shl(0xb0, 0x01), 0x010000))\n      dup6\n      and\n      or\n      swap1\n      swap5\n      sstore\n        /* \"ERC721A/MintNagaKids.sol\":2999:3036  SignerChanged(_signerBefore, _signer) */\n      0x40\n      dup1\n      mload\n        /* \"ERC721A/MintNagaKids.sol\":2948:2954  signer */\n      swap5\n      swap1\n      swap4\n      div\n      swap1\n      swap2\n      and\n        /* \"#utility.yul\":8889:8923   */\n      dup1\n      dup5\n      mstore\n        /* \"#utility.yul\":8954:8956   */\n      0x20\n        /* \"#utility.yul\":8939:8957   */\n      dup5\n      add\n        /* \"#utility.yul\":8932:8975   */\n      swap2\n      swap1\n      swap2\n      mstore\n        /* \"ERC721A/MintNagaKids.sol\":2948:2954  signer */\n      swap2\n        /* \"ERC721A/MintNagaKids.sol\":2999:3036  SignerChanged(_signerBefore, _signer) */\n      0xeeb293e1f8f3a9db91ade748726387ed1352ca78f5430c5f06fe3d1e1ad50579\n      swap2\n        /* \"#utility.yul\":8824:8842   */\n      add\n        /* \"ERC721A/MintNagaKids.sol\":2999:3036  SignerChanged(_signerBefore, _signer) */\n    tag_222:\n      mload(0x40)\n      dup1\n      swap2\n      sub\n      swap1\n      log1\n        /* \"ERC721A/MintNagaKids.sol\":2913:3044  {... */\n      pop\n        /* \"ERC721A/MintNagaKids.sol\":2860:3044  function setSigner(address _signer) public onlyOwner {... */\n      pop\n      jump\t// out\n        /* \"@openzeppelin/contracts/access/Ownable.sol\":1668:1769  function renounceOwnership() public virtual onlyOwner {... */\n    tag_86:\n        /* \"@openzeppelin/contracts/access/Ownable.sol\":1082:1089  address */\n      0x00\n        /* \"@openzeppelin/contracts/access/Ownable.sol\":1108:1114  _owner */\n      sload\n      sub(shl(0xa0, 0x01), 0x01)\n      and\n        /* \"@openzeppelin/contracts/utils/Context.sol\":719:729  msg.sender */\n      caller\n        /* \"@openzeppelin/contracts/access/Ownable.sol\":1248:1271  owner() == _msgSender() */\n      eq\n        /* \"@openzeppelin/contracts/access/Ownable.sol\":1240:1308  require(owner() == _msgSender(), \"Ownable: caller is not the owner\") */\n      tag_227\n      jumpi\n      mload(0x40)\n      shl(0xe5, 0x461bcd)\n      dup2\n      mstore\n      0x04\n      add\n      tag_202\n      swap1\n      tag_203\n      jump\t// in\n    tag_227:\n        /* \"@openzeppelin/contracts/access/Ownable.sol\":1732:1762  _transferOwnership(address(0)) */\n      tag_230\n        /* \"@openzeppelin/contracts/access/Ownable.sol\":1759:1760  0 */\n      0x00\n        /* \"@openzeppelin/contracts/access/Ownable.sol\":1732:1750  _transferOwnership */\n      tag_231\n        /* \"@openzeppelin/contracts/access/Ownable.sol\":1732:1762  _transferOwnership(address(0)) */\n      jump\t// in\n    tag_230:\n        /* \"@openzeppelin/contracts/access/Ownable.sol\":1668:1769  function renounceOwnership() public virtual onlyOwner {... */\n      jump\t// out\n        /* \"ERC721A/MintNagaKids.sol\":3052:3272  function setMerkleRoot(bytes32 _merkleRoot) public onlyOwner {... */\n    tag_91:\n        /* \"@openzeppelin/contracts/access/Ownable.sol\":1082:1089  address */\n      0x00\n        /* \"@openzeppelin/contracts/access/Ownable.sol\":1108:1114  _owner */\n      sload\n      sub(shl(0xa0, 0x01), 0x01)\n      and\n        /* \"@openzeppelin/contracts/utils/Context.sol\":719:729  msg.sender */\n      caller\n        /* \"@openzeppelin/contracts/access/Ownable.sol\":1248:1271  owner() == _msgSender() */\n      eq\n        /* \"@openzeppelin/contracts/access/Ownable.sol\":1240:1308  require(owner() == _msgSender(), \"Ownable: caller is not the owner\") */\n      tag_235\n      jumpi\n      mload(0x40)\n      shl(0xe5, 0x461bcd)\n      dup2\n      mstore\n      0x04\n      add\n      tag_202\n      swap1\n      tag_203\n      jump\t// in\n    tag_235:\n        /* \"ERC721A/MintNagaKids.sol\":3152:3162  merkleRoot */\n      0x04\n      dup1\n      sload\n        /* \"ERC721A/MintNagaKids.sol\":3173:3197  merkleRoot = _merkleRoot */\n      swap1\n      dup3\n      swap1\n      sstore\n        /* \"ERC721A/MintNagaKids.sol\":3215:3264  MerkleRootChanged(_merkleRootBefore, _merkleRoot) */\n      0x40\n      dup1\n      mload\n        /* \"#utility.yul\":9160:9185   */\n      dup3\n      dup2\n      mstore\n        /* \"#utility.yul\":9216:9218   */\n      0x20\n        /* \"#utility.yul\":9201:9219   */\n      dup2\n      add\n        /* \"#utility.yul\":9194:9228   */\n      dup5\n      swap1\n      mstore\n        /* \"ERC721A/MintNagaKids.sol\":3215:3264  MerkleRootChanged(_merkleRootBefore, _merkleRoot) */\n      0x123d88ba82600dfc3f219f8885c691b0ff020caa535666874b3f5174973757fe\n      swap2\n        /* \"#utility.yul\":9133:9151   */\n      add\n        /* \"ERC721A/MintNagaKids.sol\":3215:3264  MerkleRootChanged(_merkleRootBefore, _merkleRoot) */\n      tag_222\n        /* \"#utility.yul\":8986:9234   */\n      jump\n        /* \"ERC721A/MintNagaKids.sol\":5386:5763  function withdrawCurrency(address _to,address _currency) public onlyOwner {... */\n    tag_96:\n        /* \"@openzeppelin/contracts/access/Ownable.sol\":1082:1089  address */\n      0x00\n        /* \"@openzeppelin/contracts/access/Ownable.sol\":1108:1114  _owner */\n      sload\n      sub(shl(0xa0, 0x01), 0x01)\n      and\n        /* \"@openzeppelin/contracts/utils/Context.sol\":719:729  msg.sender */\n      caller\n        /* \"@openzeppelin/contracts/access/Ownable.sol\":1248:1271  owner() == _msgSender() */\n      eq\n        /* \"@openzeppelin/contracts/access/Ownable.sol\":1240:1308  require(owner() == _msgSender(), \"Ownable: caller is not the owner\") */\n      tag_243\n      jumpi\n      mload(0x40)\n      shl(0xe5, 0x461bcd)\n      dup2\n      mstore\n      0x04\n      add\n      tag_202\n      swap1\n      tag_203\n      jump\t// in\n    tag_243:\n        /* \"ERC721A/MintNagaKids.sol\":5496:5538  IERC20(_currency).balanceOf(address(this)) */\n      mload(0x40)\n      shl(0xe0, 0x70a08231)\n      dup2\n      mstore\n        /* \"ERC721A/MintNagaKids.sol\":5532:5536  this */\n      address\n        /* \"ERC721A/MintNagaKids.sol\":5496:5538  IERC20(_currency).balanceOf(address(this)) */\n      0x04\n      dup3\n      add\n        /* \"#utility.yul\":730:781   */\n      mstore\n        /* \"ERC721A/MintNagaKids.sol\":5471:5493  uint balanceOfContract */\n      0x00\n      swap1\n      sub(shl(0xa0, 0x01), 0x01)\n        /* \"ERC721A/MintNagaKids.sol\":5496:5523  IERC20(_currency).balanceOf */\n      dup4\n      and\n      swap1\n      0x70a08231\n      swap1\n        /* \"#utility.yul\":703:721   */\n      0x24\n      add\n        /* \"ERC721A/MintNagaKids.sol\":5496:5538  IERC20(_currency).balanceOf(address(this)) */\n      0x20\n      mload(0x40)\n      dup1\n      dup4\n      sub\n      dup2\n      dup7\n      gas\n      staticcall\n      iszero\n      dup1\n      iszero\n      tag_248\n      jumpi\n      returndatasize\n      0x00\n      dup1\n      returndatacopy\n      revert(0x00, returndatasize)\n    tag_248:\n      pop\n      pop\n      pop\n      pop\n      mload(0x40)\n      returndatasize\n      not(0x1f)\n      0x1f\n      dup3\n      add\n      and\n      dup3\n      add\n      dup1\n      0x40\n      mstore\n      pop\n      dup2\n      add\n      swap1\n      tag_249\n      swap2\n      swap1\n      tag_196\n      jump\t// in\n    tag_249:\n        /* \"ERC721A/MintNagaKids.sol\":5471:5538  uint balanceOfContract = IERC20(_currency).balanceOf(address(this)) */\n      swap1\n      pop\n        /* \"ERC721A/MintNagaKids.sol\":5577:5578  0 */\n      0x00\n        /* \"ERC721A/MintNagaKids.sol\":5557:5574  balanceOfContract */\n      dup2\n        /* \"ERC721A/MintNagaKids.sol\":5557:5578  balanceOfContract > 0 */\n      gt\n        /* \"ERC721A/MintNagaKids.sol\":5549:5603  require(balanceOfContract > 0, \"Insufficient Balance\") */\n      tag_250\n      jumpi\n      mload(0x40)\n      shl(0xe5, 0x461bcd)\n      dup2\n      mstore\n        /* \"#utility.yul\":7970:7972   */\n      0x20\n        /* \"ERC721A/MintNagaKids.sol\":5549:5603  require(balanceOfContract > 0, \"Insufficient Balance\") */\n      0x04\n      dup3\n      add\n        /* \"#utility.yul\":7952:7973   */\n      mstore\n        /* \"#utility.yul\":8009:8011   */\n      0x14\n        /* \"#utility.yul\":7989:8007   */\n      0x24\n      dup3\n      add\n        /* \"#utility.yul\":7982:8012   */\n      mstore\n      shl(0x60, 0x496e73756666696369656e742042616c616e6365)\n        /* \"#utility.yul\":8028:8046   */\n      0x44\n      dup3\n      add\n        /* \"#utility.yul\":8021:8071   */\n      mstore\n        /* \"#utility.yul\":8088:8106   */\n      0x64\n      add\n        /* \"ERC721A/MintNagaKids.sol\":5549:5603  require(balanceOfContract > 0, \"Insufficient Balance\") */\n      tag_202\n        /* \"#utility.yul\":7768:8112   */\n      jump\n        /* \"ERC721A/MintNagaKids.sol\":5549:5603  require(balanceOfContract > 0, \"Insufficient Balance\") */\n    tag_250:\n        /* \"ERC721A/MintNagaKids.sol\":5614:5664  IERC20(_currency).transfer(_to, balanceOfContract) */\n      mload(0x40)\n      shl(0xe0, 0xa9059cbb)\n      dup2\n      mstore\n      sub(shl(0xa0, 0x01), 0x01)\n        /* \"#utility.yul\":9431:9463   */\n      dup5\n      dup2\n      and\n        /* \"ERC721A/MintNagaKids.sol\":5614:5664  IERC20(_currency).transfer(_to, balanceOfContract) */\n      0x04\n      dup4\n      add\n        /* \"#utility.yul\":9413:9464   */\n      mstore\n        /* \"#utility.yul\":9480:9498   */\n      0x24\n      dup3\n      add\n        /* \"#utility.yul\":9473:9507   */\n      dup4\n      swap1\n      mstore\n        /* \"ERC721A/MintNagaKids.sol\":5614:5640  IERC20(_currency).transfer */\n      dup4\n      and\n      swap1\n      0xa9059cbb\n      swap1\n        /* \"#utility.yul\":9386:9404   */\n      0x44\n      add\n        /* \"ERC721A/MintNagaKids.sol\":5614:5664  IERC20(_currency).transfer(_to, balanceOfContract) */\n      0x20\n      mload(0x40)\n      dup1\n      dup4\n      sub\n      dup2\n      0x00\n      dup8\n      gas\n      call\n      iszero\n      dup1\n      iszero\n      tag_255\n      jumpi\n      returndatasize\n      0x00\n      dup1\n      returndatacopy\n      revert(0x00, returndatasize)\n    tag_255:\n      pop\n      pop\n      pop\n      pop\n      mload(0x40)\n      returndatasize\n      not(0x1f)\n      0x1f\n      dup3\n      add\n      and\n      dup3\n      add\n      dup1\n      0x40\n      mstore\n      pop\n      dup2\n      add\n      swap1\n      tag_256\n      swap2\n      swap1\n      tag_257\n      jump\t// in\n    tag_256:\n      pop\n        /* \"ERC721A/MintNagaKids.sol\":5690:5755  WithdrawCurrency(_to,_currency,balanceOfContract,block.timestamp) */\n      0x40\n      dup1\n      mload\n      sub(shl(0xa0, 0x01), 0x01)\n        /* \"#utility.yul\":10087:10102   */\n      dup1\n      dup7\n      and\n        /* \"#utility.yul\":10069:10103   */\n      dup3\n      mstore\n        /* \"#utility.yul\":10139:10154   */\n      dup5\n      and\n        /* \"#utility.yul\":10134:10136   */\n      0x20\n        /* \"#utility.yul\":10119:10137   */\n      dup3\n      add\n        /* \"#utility.yul\":10112:10155   */\n      mstore\n        /* \"#utility.yul\":10171:10189   */\n      swap1\n      dup2\n      add\n        /* \"#utility.yul\":10164:10198   */\n      dup3\n      swap1\n      mstore\n        /* \"ERC721A/MintNagaKids.sol\":5739:5754  block.timestamp */\n      timestamp\n        /* \"#utility.yul\":10229:10231   */\n      0x60\n        /* \"#utility.yul\":10214:10232   */\n      dup3\n      add\n        /* \"#utility.yul\":10207:10241   */\n      mstore\n        /* \"ERC721A/MintNagaKids.sol\":5690:5755  WithdrawCurrency(_to,_currency,balanceOfContract,block.timestamp) */\n      0xb818a975f91276df8ba59329becbc23c793df0d503c19ac296c3c372a1fa0461\n      swap1\n        /* \"#utility.yul\":10018:10021   */\n      0x80\n        /* \"#utility.yul\":10003:10022   */\n      add\n        /* \"ERC721A/MintNagaKids.sol\":5690:5755  WithdrawCurrency(_to,_currency,balanceOfContract,block.timestamp) */\n      tag_214\n        /* \"#utility.yul\":9800:10247   */\n      jump\n        /* \"ERC721A/VerifySignature.sol\":1127:1401  function recoverSigner(... */\n    tag_109:\n        /* \"ERC721A/VerifySignature.sol\":1252:1259  address */\n      0x00\n        /* \"ERC721A/VerifySignature.sol\":1273:1282  bytes32 r */\n      dup1\n        /* \"ERC721A/VerifySignature.sol\":1284:1293  bytes32 s */\n      0x00\n        /* \"ERC721A/VerifySignature.sol\":1295:1302  uint8 v */\n      dup1\n        /* \"ERC721A/VerifySignature.sol\":1306:1332  splitSignature(_signature) */\n      tag_262\n        /* \"ERC721A/VerifySignature.sol\":1321:1331  _signature */\n      dup6\n        /* \"ERC721A/VerifySignature.sol\":1306:1320  splitSignature */\n      tag_124\n        /* \"ERC721A/VerifySignature.sol\":1306:1332  splitSignature(_signature) */\n      jump\t// in\n    tag_262:\n        /* \"ERC721A/VerifySignature.sol\":1352:1393  ecrecover(_ethSignedMessageHash, v, r, s) */\n      0x40\n      dup1\n      mload\n      0x00\n      dup2\n      mstore\n      0x20\n      dup2\n      add\n      dup1\n      dup4\n      mstore\n        /* \"#utility.yul\":10479:10504   */\n      dup12\n      swap1\n      mstore\n        /* \"#utility.yul\":10552:10556   */\n      0xff\n        /* \"#utility.yul\":10540:10557   */\n      dup4\n      and\n        /* \"#utility.yul\":10520:10538   */\n      swap2\n      dup2\n      add\n        /* \"#utility.yul\":10513:10558   */\n      swap2\n      swap1\n      swap2\n      mstore\n        /* \"#utility.yul\":10574:10592   */\n      0x60\n      dup2\n      add\n        /* \"#utility.yul\":10567:10601   */\n      dup5\n      swap1\n      mstore\n        /* \"#utility.yul\":10617:10635   */\n      0x80\n      dup2\n      add\n        /* \"#utility.yul\":10610:10644   */\n      dup4\n      swap1\n      mstore\n        /* \"ERC721A/VerifySignature.sol\":1272:1332  (bytes32 r, bytes32 s, uint8 v) = splitSignature(_signature) */\n      swap3\n      swap6\n      pop\n      swap1\n      swap4\n      pop\n      swap2\n      pop\n        /* \"ERC721A/VerifySignature.sol\":1352:1393  ecrecover(_ethSignedMessageHash, v, r, s) */\n      0x01\n      swap1\n        /* \"#utility.yul\":10451:10470   */\n      0xa0\n      add\n        /* \"ERC721A/VerifySignature.sol\":1352:1393  ecrecover(_ethSignedMessageHash, v, r, s) */\n      0x20\n      mload(0x40)\n      0x20\n      dup2\n      sub\n      swap1\n      dup1\n      dup5\n      sub\n      swap1\n      dup6\n      gas\n      staticcall\n      iszero\n      dup1\n      iszero\n      tag_266\n      jumpi\n      returndatasize\n      0x00\n      dup1\n      returndatacopy\n      revert(0x00, returndatasize)\n    tag_266:\n      pop\n      pop\n      mload(add(not(0x1f), mload(0x40)))\n      swap8\n        /* \"ERC721A/VerifySignature.sol\":1127:1401  function recoverSigner(... */\n      swap7\n      pop\n      pop\n      pop\n      pop\n      pop\n      pop\n      pop\n      jump\t// out\n        /* \"ERC721A/MintNagaKids.sol\":2359:2647  function setNagaKidContract(INagaKid _nagaKid) public onlyOwner {... */\n    tag_115:\n        /* \"@openzeppelin/contracts/access/Ownable.sol\":1082:1089  address */\n      0x00\n        /* \"@openzeppelin/contracts/access/Ownable.sol\":1108:1114  _owner */\n      sload\n      sub(shl(0xa0, 0x01), 0x01)\n      and\n        /* \"@openzeppelin/contracts/utils/Context.sol\":719:729  msg.sender */\n      caller\n        /* \"@openzeppelin/contracts/access/Ownable.sol\":1248:1271  owner() == _msgSender() */\n      eq\n        /* \"@openzeppelin/contracts/access/Ownable.sol\":1240:1308  require(owner() == _msgSender(), \"Ownable: caller is not the owner\") */\n      tag_270\n      jumpi\n      mload(0x40)\n      shl(0xe5, 0x461bcd)\n      dup2\n      mstore\n      0x04\n      add\n      tag_202\n      swap1\n      tag_203\n      jump\t// in\n    tag_270:\n        /* \"ERC721A/MintNagaKids.sol\":2466:2481  nagaKidContract */\n      0x02\n      dup1\n      sload\n      sub(shl(0xa0, 0x01), 0x01)\n        /* \"ERC721A/MintNagaKids.sol\":2493:2519  nagaKidContract = _nagaKid */\n      dup4\n      dup2\n      and\n      not(sub(shl(0xa0, 0x01), 0x01))\n      dup4\n      and\n      dup2\n      or\n      swap1\n      swap4\n      sstore\n        /* \"ERC721A/MintNagaKids.sol\":2588:2639  NagaKidContractChanged(nagaKidBefore, nagaKidAfter) */\n      0x40\n      dup1\n      mload\n        /* \"ERC721A/MintNagaKids.sol\":2466:2481  nagaKidContract */\n      swap2\n      swap1\n      swap3\n      and\n        /* \"#utility.yul\":8889:8923   */\n      dup1\n      dup3\n      mstore\n        /* \"#utility.yul\":8954:8956   */\n      0x20\n        /* \"#utility.yul\":8939:8957   */\n      dup3\n      add\n        /* \"#utility.yul\":8932:8975   */\n      swap4\n      swap1\n      swap4\n      mstore\n        /* \"ERC721A/MintNagaKids.sol\":2493:2519  nagaKidContract = _nagaKid */\n      dup4\n      swap2\n        /* \"ERC721A/MintNagaKids.sol\":2588:2639  NagaKidContractChanged(nagaKidBefore, nagaKidAfter) */\n      0xabdf056c85a221fcb31d0366c4475b6b2c613df2eeea951a9fcb3e1a8595d973\n      swap2\n        /* \"#utility.yul\":8824:8842   */\n      add\n        /* \"ERC721A/MintNagaKids.sol\":2588:2639  NagaKidContractChanged(nagaKidBefore, nagaKidAfter) */\n      tag_214\n        /* \"#utility.yul\":8677:8981   */\n      jump\n        /* \"ERC721A/VerifySignature.sol\":1409:2300  function splitSignature(bytes memory sig)... */\n    tag_124:\n        /* \"ERC721A/VerifySignature.sol\":1513:1522  bytes32 r */\n      0x00\n        /* \"ERC721A/VerifySignature.sol\":1537:1546  bytes32 s */\n      dup1\n        /* \"ERC721A/VerifySignature.sol\":1561:1568  uint8 v */\n      0x00\n        /* \"ERC721A/VerifySignature.sol\":1604:1607  sig */\n      dup4\n        /* \"ERC721A/VerifySignature.sol\":1604:1614  sig.length */\n      mload\n        /* \"ERC721A/VerifySignature.sol\":1618:1620  65 */\n      0x41\n        /* \"ERC721A/VerifySignature.sol\":1604:1620  sig.length == 65 */\n      eq\n        /* \"ERC721A/VerifySignature.sol\":1596:1649  require(sig.length == 65, \"invalid signature length\") */\n      tag_275\n      jumpi\n      mload(0x40)\n      shl(0xe5, 0x461bcd)\n      dup2\n      mstore\n        /* \"#utility.yul\":10857:10859   */\n      0x20\n        /* \"ERC721A/VerifySignature.sol\":1596:1649  require(sig.length == 65, \"invalid signature length\") */\n      0x04\n      dup3\n      add\n        /* \"#utility.yul\":10839:10860   */\n      mstore\n        /* \"#utility.yul\":10896:10898   */\n      0x18\n        /* \"#utility.yul\":10876:10894   */\n      0x24\n      dup3\n      add\n        /* \"#utility.yul\":10869:10899   */\n      mstore\n        /* \"#utility.yul\":10935:10961   */\n      0x696e76616c6964207369676e6174757265206c656e6774680000000000000000\n        /* \"#utility.yul\":10915:10933   */\n      0x44\n      dup3\n      add\n        /* \"#utility.yul\":10908:10962   */\n      mstore\n        /* \"#utility.yul\":10979:10997   */\n      0x64\n      add\n        /* \"ERC721A/VerifySignature.sol\":1596:1649  require(sig.length == 65, \"invalid signature length\") */\n      tag_202\n        /* \"#utility.yul\":10655:11003   */\n      jump\n        /* \"ERC721A/VerifySignature.sol\":1596:1649  require(sig.length == 65, \"invalid signature length\") */\n    tag_275:\n      pop\n      pop\n      pop\n        /* \"ERC721A/VerifySignature.sol\":2058:2060  32 */\n      0x20\n        /* \"ERC721A/VerifySignature.sol\":2049:2061  add(sig, 32) */\n      dup2\n      add\n        /* \"ERC721A/VerifySignature.sol\":2043:2062  mload(add(sig, 32)) */\n      mload\n        /* \"ERC721A/VerifySignature.sol\":2128:2130  64 */\n      0x40\n        /* \"ERC721A/VerifySignature.sol\":2119:2131  add(sig, 64) */\n      dup3\n      add\n        /* \"ERC721A/VerifySignature.sol\":2113:2132  mload(add(sig, 64)) */\n      mload\n        /* \"ERC721A/VerifySignature.sol\":2235:2237  96 */\n      0x60\n        /* \"ERC721A/VerifySignature.sol\":2226:2238  add(sig, 96) */\n      swap1\n      swap3\n      add\n        /* \"ERC721A/VerifySignature.sol\":2220:2239  mload(add(sig, 96)) */\n      mload\n        /* \"ERC721A/VerifySignature.sol\":2043:2062  mload(add(sig, 32)) */\n      swap1\n      swap3\n        /* \"ERC721A/VerifySignature.sol\":2217:2218  0 */\n      0x00\n        /* \"ERC721A/VerifySignature.sol\":2212:2240  byte(0, mload(add(sig, 96))) */\n      swap2\n      swap1\n      swap2\n      byte\n      swap1\n        /* \"ERC721A/VerifySignature.sol\":1409:2300  function splitSignature(bytes memory sig)... */\n      jump\t// out\n        /* \"ERC721A/MintNagaKids.sol\":5771:6114  function withdrawNFT(address _to,address _NFT,uint256 _tokenId) public onlyOwner {... */\n    tag_137:\n        /* \"@openzeppelin/contracts/access/Ownable.sol\":1082:1089  address */\n      0x00\n        /* \"@openzeppelin/contracts/access/Ownable.sol\":1108:1114  _owner */\n      sload\n      sub(shl(0xa0, 0x01), 0x01)\n      and\n        /* \"@openzeppelin/contracts/utils/Context.sol\":719:729  msg.sender */\n      caller\n        /* \"@openzeppelin/contracts/access/Ownable.sol\":1248:1271  owner() == _msgSender() */\n      eq\n        /* \"@openzeppelin/contracts/access/Ownable.sol\":1240:1308  require(owner() == _msgSender(), \"Ownable: caller is not the owner\") */\n      tag_282\n      jumpi\n      mload(0x40)\n      shl(0xe5, 0x461bcd)\n      dup2\n      mstore\n      0x04\n      add\n      tag_202\n      swap1\n      tag_203\n      jump\t// in\n    tag_282:\n        /* \"ERC721A/MintNagaKids.sol\":5871:5902  IERC721(_NFT).ownerOf(_tokenId) */\n      mload(0x40)\n      shl(0xe1, 0x31a9108f)\n      dup2\n      mstore\n      0x04\n      dup2\n      add\n        /* \"#utility.yul\":160:185   */\n      dup3\n      swap1\n      mstore\n        /* \"ERC721A/MintNagaKids.sol\":5914:5918  this */\n      address\n      swap1\n      sub(shl(0xa0, 0x01), 0x01)\n        /* \"ERC721A/MintNagaKids.sol\":5871:5892  IERC721(_NFT).ownerOf */\n      dup5\n      and\n      swap1\n      0x6352211e\n      swap1\n        /* \"#utility.yul\":133:151   */\n      0x24\n      add\n        /* \"ERC721A/MintNagaKids.sol\":5871:5902  IERC721(_NFT).ownerOf(_tokenId) */\n      0x20\n      mload(0x40)\n      dup1\n      dup4\n      sub\n      dup2\n      dup7\n      gas\n      staticcall\n      iszero\n      dup1\n      iszero\n      tag_287\n      jumpi\n      returndatasize\n      0x00\n      dup1\n      returndatacopy\n      revert(0x00, returndatasize)\n    tag_287:\n      pop\n      pop\n      pop\n      pop\n      mload(0x40)\n      returndatasize\n      not(0x1f)\n      0x1f\n      dup3\n      add\n      and\n      dup3\n      add\n      dup1\n      0x40\n      mstore\n      pop\n      dup2\n      add\n      swap1\n      tag_288\n      swap2\n      swap1\n      tag_289\n      jump\t// in\n    tag_288:\n      sub(shl(0xa0, 0x01), 0x01)\n        /* \"ERC721A/MintNagaKids.sol\":5871:5919  IERC721(_NFT).ownerOf(_tokenId) == address(this) */\n      and\n      eq\n        /* \"ERC721A/MintNagaKids.sol\":5863:5961  require(IERC721(_NFT).ownerOf(_tokenId) == address(this), \"This tokenId is not owned by contract\") */\n      tag_290\n      jumpi\n      mload(0x40)\n      shl(0xe5, 0x461bcd)\n      dup2\n      mstore\n        /* \"#utility.yul\":11466:11468   */\n      0x20\n        /* \"ERC721A/MintNagaKids.sol\":5863:5961  require(IERC721(_NFT).ownerOf(_tokenId) == address(this), \"This tokenId is not owned by contract\") */\n      0x04\n      dup3\n      add\n        /* \"#utility.yul\":11448:11469   */\n      mstore\n        /* \"#utility.yul\":11505:11507   */\n      0x25\n        /* \"#utility.yul\":11485:11503   */\n      0x24\n      dup3\n      add\n        /* \"#utility.yul\":11478:11508   */\n      mstore\n        /* \"#utility.yul\":11544:11578   */\n      0x5468697320746f6b656e4964206973206e6f74206f776e656420627920636f6e\n        /* \"#utility.yul\":11524:11542   */\n      0x44\n      dup3\n      add\n        /* \"#utility.yul\":11517:11579   */\n      mstore\n      shl(0xda, 0x1d1c9858dd)\n        /* \"#utility.yul\":11595:11613   */\n      0x64\n      dup3\n      add\n        /* \"#utility.yul\":11588:11623   */\n      mstore\n        /* \"#utility.yul\":11640:11659   */\n      0x84\n      add\n        /* \"ERC721A/MintNagaKids.sol\":5863:5961  require(IERC721(_NFT).ownerOf(_tokenId) == address(this), \"This tokenId is not owned by contract\") */\n      tag_202\n        /* \"#utility.yul\":11264:11665   */\n      jump\n        /* \"ERC721A/MintNagaKids.sol\":5863:5961  require(IERC721(_NFT).ownerOf(_tokenId) == address(this), \"This tokenId is not owned by contract\") */\n    tag_290:\n        /* \"ERC721A/MintNagaKids.sol\":5974:6034  IERC721(_NFT).safeTransferFrom(address(this), _to, _tokenId) */\n      mload(0x40)\n      shl(0xe1, 0x21421707)\n      dup2\n      mstore\n        /* \"ERC721A/MintNagaKids.sol\":6013:6017  this */\n      address\n        /* \"ERC721A/MintNagaKids.sol\":5974:6034  IERC721(_NFT).safeTransferFrom(address(this), _to, _tokenId) */\n      0x04\n      dup3\n      add\n        /* \"#utility.yul\":11910:11944   */\n      mstore\n      sub(shl(0xa0, 0x01), 0x01)\n        /* \"#utility.yul\":11980:11995   */\n      dup5\n      dup2\n      and\n        /* \"#utility.yul\":11960:11978   */\n      0x24\n      dup4\n      add\n        /* \"#utility.yul\":11953:11996   */\n      mstore\n        /* \"#utility.yul\":12012:12030   */\n      0x44\n      dup3\n      add\n        /* \"#utility.yul\":12005:12039   */\n      dup4\n      swap1\n      mstore\n        /* \"ERC721A/MintNagaKids.sol\":5974:6004  IERC721(_NFT).safeTransferFrom */\n      dup4\n      and\n      swap1\n      0x42842e0e\n      swap1\n        /* \"#utility.yul\":11845:11863   */\n      0x64\n      add\n        /* \"ERC721A/MintNagaKids.sol\":5974:6034  IERC721(_NFT).safeTransferFrom(address(this), _to, _tokenId) */\n      0x00\n      mload(0x40)\n      dup1\n      dup4\n      sub\n      dup2\n      0x00\n      dup8\n      dup1\n      extcodesize\n      iszero\n      dup1\n      iszero\n      tag_295\n      jumpi\n      0x00\n      dup1\n      revert\n    tag_295:\n      pop\n      gas\n      call\n      iszero\n      dup1\n      iszero\n      tag_297\n      jumpi\n      returndatasize\n      0x00\n      dup1\n      returndatacopy\n      revert(0x00, returndatasize)\n    tag_297:\n      pop\n      pop\n        /* \"ERC721A/MintNagaKids.sol\":6060:6106  WithdrawNFT(_to,_NFT,_tokenId,block.timestamp) */\n      0x40\n      dup1\n      mload\n      sub(shl(0xa0, 0x01), 0x01)\n        /* \"#utility.yul\":10087:10102   */\n      dup1\n      dup9\n      and\n        /* \"#utility.yul\":10069:10103   */\n      dup3\n      mstore\n        /* \"#utility.yul\":10139:10154   */\n      dup7\n      and\n        /* \"#utility.yul\":10134:10136   */\n      0x20\n        /* \"#utility.yul\":10119:10137   */\n      dup3\n      add\n        /* \"#utility.yul\":10112:10155   */\n      mstore\n        /* \"#utility.yul\":10171:10189   */\n      swap1\n      dup2\n      add\n        /* \"#utility.yul\":10164:10198   */\n      dup5\n      swap1\n      mstore\n        /* \"ERC721A/MintNagaKids.sol\":6090:6105  block.timestamp */\n      timestamp\n        /* \"#utility.yul\":10229:10231   */\n      0x60\n        /* \"#utility.yul\":10214:10232   */\n      dup3\n      add\n        /* \"#utility.yul\":10207:10241   */\n      mstore\n        /* \"ERC721A/MintNagaKids.sol\":6060:6106  WithdrawNFT(_to,_NFT,_tokenId,block.timestamp) */\n      0x0127a8d3f57942833f6930572bce52ad882683e36eeb5830d199d3fa4bfa9467\n      swap3\n      pop\n        /* \"#utility.yul\":10018:10021   */\n      0x80\n        /* \"#utility.yul\":10003:10022   */\n      add\n      swap1\n      pop\n        /* \"ERC721A/MintNagaKids.sol\":6060:6106  WithdrawNFT(_to,_NFT,_tokenId,block.timestamp) */\n      tag_214\n        /* \"#utility.yul\":9800:10247   */\n      jump\n        /* \"ERC721A/MintNagaKids.sol\":6413:6524  function getTotalSupply() public view returns (uint256) {... */\n    tag_140:\n        /* \"ERC721A/MintNagaKids.sol\":6487:6502  nagaKidContract */\n      sload(0x02)\n        /* \"ERC721A/MintNagaKids.sol\":6487:6516  nagaKidContract.totalSupply() */\n      0x40\n      dup1\n      mload\n      shl(0xe0, 0x18160ddd)\n      dup2\n      mstore\n      swap1\n      mload\n        /* \"ERC721A/MintNagaKids.sol\":6460:6467  uint256 */\n      0x00\n      swap3\n      sub(shl(0xa0, 0x01), 0x01)\n        /* \"ERC721A/MintNagaKids.sol\":6487:6502  nagaKidContract */\n      and\n      swap2\n        /* \"ERC721A/MintNagaKids.sol\":6487:6514  nagaKidContract.totalSupply */\n      0x18160ddd\n      swap2\n        /* \"ERC721A/MintNagaKids.sol\":6487:6516  nagaKidContract.totalSupply() */\n      0x04\n      dup1\n      dup4\n      add\n      swap3\n      0x20\n      swap3\n      swap2\n      swap1\n      dup3\n      swap1\n      sub\n      add\n      dup2\n        /* \"ERC721A/MintNagaKids.sol\":6487:6502  nagaKidContract */\n      dup7\n        /* \"ERC721A/MintNagaKids.sol\":6487:6516  nagaKidContract.totalSupply() */\n      gas\n      staticcall\n      iszero\n      dup1\n      iszero\n      tag_194\n      jumpi\n      returndatasize\n      0x00\n      dup1\n      returndatacopy\n      revert(0x00, returndatasize)\n        /* \"ERC721A/MintNagaKids.sol\":4210:5032  function publicMint(bytes calldata _sig) public payable nonReentrant {... */\n    tag_145:\n        /* \"@openzeppelin/contracts/security/ReentrancyGuard.sol\":1744:1745  2 */\n      0x02\n        /* \"@openzeppelin/contracts/security/ReentrancyGuard.sol\":2325:2332  _status */\n      sload(0x01)\n        /* \"@openzeppelin/contracts/security/ReentrancyGuard.sol\":2325:2344  _status != _ENTERED */\n      sub\n        /* \"@openzeppelin/contracts/security/ReentrancyGuard.sol\":2317:2380  require(_status != _ENTERED, \"ReentrancyGuard: reentrant call\") */\n      tag_304\n      jumpi\n      mload(0x40)\n      shl(0xe5, 0x461bcd)\n      dup2\n      mstore\n        /* \"#utility.yul\":12252:12254   */\n      0x20\n        /* \"@openzeppelin/contracts/security/ReentrancyGuard.sol\":2317:2380  require(_status != _ENTERED, \"ReentrancyGuard: reentrant call\") */\n      0x04\n      dup3\n      add\n        /* \"#utility.yul\":12234:12255   */\n      mstore\n        /* \"#utility.yul\":12291:12293   */\n      0x1f\n        /* \"#utility.yul\":12271:12289   */\n      0x24\n      dup3\n      add\n        /* \"#utility.yul\":12264:12294   */\n      mstore\n        /* \"#utility.yul\":12330:12363   */\n      0x5265656e7472616e637947756172643a207265656e7472616e742063616c6c00\n        /* \"#utility.yul\":12310:12328   */\n      0x44\n      dup3\n      add\n        /* \"#utility.yul\":12303:12364   */\n      mstore\n        /* \"#utility.yul\":12381:12399   */\n      0x64\n      add\n        /* \"@openzeppelin/contracts/security/ReentrancyGuard.sol\":2317:2380  require(_status != _ENTERED, \"ReentrancyGuard: reentrant call\") */\n      tag_202\n        /* \"#utility.yul\":12050:12405   */\n      jump\n        /* \"@openzeppelin/contracts/security/ReentrancyGuard.sol\":2317:2380  require(_status != _ENTERED, \"ReentrancyGuard: reentrant call\") */\n    tag_304:\n        /* \"@openzeppelin/contracts/security/ReentrancyGuard.sol\":1744:1745  2 */\n      0x02\n        /* \"@openzeppelin/contracts/security/ReentrancyGuard.sol\":2455:2462  _status */\n      0x01\n        /* \"@openzeppelin/contracts/security/ReentrancyGuard.sol\":2455:2473  _status = _ENTERED */\n      swap1\n      dup2\n      sstore\n        /* \"ERC721A/MintNagaKids.sol\":4300:4316  isPublicMintOpen */\n      and(0xff, sload(0x05))\n        /* \"ERC721A/MintNagaKids.sol\":4300:4324  isPublicMintOpen == true */\n      iszero\n      iszero\n      eq\n        /* \"ERC721A/MintNagaKids.sol\":4292:4356  require(isPublicMintOpen == true, \"Whitelist not open to mint.\") */\n      tag_308\n      jumpi\n      mload(0x40)\n      shl(0xe5, 0x461bcd)\n      dup2\n      mstore\n        /* \"#utility.yul\":12612:12614   */\n      0x20\n        /* \"ERC721A/MintNagaKids.sol\":4292:4356  require(isPublicMintOpen == true, \"Whitelist not open to mint.\") */\n      0x04\n      dup3\n      add\n        /* \"#utility.yul\":12594:12615   */\n      mstore\n        /* \"#utility.yul\":12651:12653   */\n      0x1b\n        /* \"#utility.yul\":12631:12649   */\n      0x24\n      dup3\n      add\n        /* \"#utility.yul\":12624:12654   */\n      mstore\n        /* \"#utility.yul\":12690:12719   */\n      0x57686974656c697374206e6f74206f70656e20746f206d696e742e0000000000\n        /* \"#utility.yul\":12670:12688   */\n      0x44\n      dup3\n      add\n        /* \"#utility.yul\":12663:12720   */\n      mstore\n        /* \"#utility.yul\":12737:12755   */\n      0x64\n      add\n        /* \"ERC721A/MintNagaKids.sol\":4292:4356  require(isPublicMintOpen == true, \"Whitelist not open to mint.\") */\n      tag_202\n        /* \"#utility.yul\":12410:12761   */\n      jump\n        /* \"ERC721A/MintNagaKids.sol\":4292:4356  require(isPublicMintOpen == true, \"Whitelist not open to mint.\") */\n    tag_308:\n        /* \"ERC721A/MintNagaKids.sol\":4375:4384  tx.origin */\n      origin\n        /* \"ERC721A/MintNagaKids.sol\":4388:4398  msg.sender */\n      caller\n        /* \"ERC721A/MintNagaKids.sol\":4375:4398  tx.origin == msg.sender */\n      eq\n        /* \"ERC721A/MintNagaKids.sol\":4367:4430  require(tx.origin == msg.sender, \"haha Contract can't call me\") */\n      tag_311\n      jumpi\n      mload(0x40)\n      shl(0xe5, 0x461bcd)\n      dup2\n      mstore\n        /* \"#utility.yul\":12968:12970   */\n      0x20\n        /* \"ERC721A/MintNagaKids.sol\":4367:4430  require(tx.origin == msg.sender, \"haha Contract can't call me\") */\n      0x04\n      dup3\n      add\n        /* \"#utility.yul\":12950:12971   */\n      mstore\n        /* \"#utility.yul\":13007:13009   */\n      0x1b\n        /* \"#utility.yul\":12987:13005   */\n      0x24\n      dup3\n      add\n        /* \"#utility.yul\":12980:13010   */\n      mstore\n        /* \"#utility.yul\":13046:13075   */\n      0x6861686120436f6e74726163742063616e27742063616c6c206d650000000000\n        /* \"#utility.yul\":13026:13044   */\n      0x44\n      dup3\n      add\n        /* \"#utility.yul\":13019:13076   */\n      mstore\n        /* \"#utility.yul\":13093:13111   */\n      0x64\n      add\n        /* \"ERC721A/MintNagaKids.sol\":4367:4430  require(tx.origin == msg.sender, \"haha Contract can't call me\") */\n      tag_202\n        /* \"#utility.yul\":12766:13117   */\n      jump\n        /* \"ERC721A/MintNagaKids.sol\":4367:4430  require(tx.origin == msg.sender, \"haha Contract can't call me\") */\n    tag_311:\n        /* \"ERC721A/MintNagaKids.sol\":4604:4619  nagaKidContract */\n      sload(0x02)\n        /* \"ERC721A/MintNagaKids.sol\":4604:4643  nagaKidContract.isMinter(address(this)) */\n      mload(0x40)\n      shl(0xe1, 0x55138f0d)\n      dup2\n      mstore\n        /* \"ERC721A/MintNagaKids.sol\":4637:4641  this */\n      address\n        /* \"ERC721A/MintNagaKids.sol\":4604:4643  nagaKidContract.isMinter(address(this)) */\n      0x04\n      dup3\n      add\n        /* \"#utility.yul\":730:781   */\n      mstore\n      sub(shl(0xa0, 0x01), 0x01)\n        /* \"ERC721A/MintNagaKids.sol\":4604:4619  nagaKidContract */\n      swap1\n      swap2\n      and\n      swap1\n        /* \"ERC721A/MintNagaKids.sol\":4604:4628  nagaKidContract.isMinter */\n      0xaa271e1a\n      swap1\n        /* \"#utility.yul\":703:721   */\n      0x24\n      add\n        /* \"ERC721A/MintNagaKids.sol\":4604:4643  nagaKidContract.isMinter(address(this)) */\n      0x20\n      mload(0x40)\n      dup1\n      dup4\n      sub\n      dup2\n      dup7\n      gas\n      staticcall\n      iszero\n      dup1\n      iszero\n      tag_316\n      jumpi\n      returndatasize\n      0x00\n      dup1\n      returndatacopy\n      revert(0x00, returndatasize)\n    tag_316:\n      pop\n      pop\n      pop\n      pop\n      mload(0x40)\n      returndatasize\n      not(0x1f)\n      0x1f\n      dup3\n      add\n      and\n      dup3\n      add\n      dup1\n      0x40\n      mstore\n      pop\n      dup2\n      add\n      swap1\n      tag_317\n      swap2\n      swap1\n      tag_257\n      jump\t// in\n    tag_317:\n        /* \"ERC721A/MintNagaKids.sol\":4596:4678  require(nagaKidContract.isMinter(address(this)), \"Contract Mint is not approved.\") */\n      tag_318\n      jumpi\n      mload(0x40)\n      shl(0xe5, 0x461bcd)\n      dup2\n      mstore\n        /* \"#utility.yul\":13324:13326   */\n      0x20\n        /* \"ERC721A/MintNagaKids.sol\":4596:4678  require(nagaKidContract.isMinter(address(this)), \"Contract Mint is not approved.\") */\n      0x04\n      dup3\n      add\n        /* \"#utility.yul\":13306:13327   */\n      mstore\n        /* \"#utility.yul\":13363:13365   */\n      0x1e\n        /* \"#utility.yul\":13343:13361   */\n      0x24\n      dup3\n      add\n        /* \"#utility.yul\":13336:13366   */\n      mstore\n        /* \"#utility.yul\":13402:13434   */\n      0x436f6e7472616374204d696e74206973206e6f7420617070726f7665642e0000\n        /* \"#utility.yul\":13382:13400   */\n      0x44\n      dup3\n      add\n        /* \"#utility.yul\":13375:13435   */\n      mstore\n        /* \"#utility.yul\":13452:13470   */\n      0x64\n      add\n        /* \"ERC721A/MintNagaKids.sol\":4596:4678  require(nagaKidContract.isMinter(address(this)), \"Contract Mint is not approved.\") */\n      tag_202\n        /* \"#utility.yul\":13122:13476   */\n      jump\n        /* \"ERC721A/MintNagaKids.sol\":4596:4678  require(nagaKidContract.isMinter(address(this)), \"Contract Mint is not approved.\") */\n    tag_318:\n        /* \"ERC721A/MintNagaKids.sol\":4697:4727  verify(signer,msg.sender,_sig) */\n      tag_321\n        /* \"ERC721A/MintNagaKids.sol\":4704:4710  signer */\n      0x05\n      0x02\n      swap1\n      sload\n      swap1\n      0x0100\n      exp\n      swap1\n      div\n      sub(shl(0xa0, 0x01), 0x01)\n      and\n        /* \"ERC721A/MintNagaKids.sol\":4711:4721  msg.sender */\n      caller\n        /* \"ERC721A/MintNagaKids.sol\":4722:4726  _sig */\n      dup5\n      dup5\n        /* \"ERC721A/MintNagaKids.sol\":4697:4727  verify(signer,msg.sender,_sig) */\n      dup1\n      dup1\n      0x1f\n      add\n      0x20\n      dup1\n      swap2\n      div\n      mul\n      0x20\n      add\n      mload(0x40)\n      swap1\n      dup2\n      add\n      0x40\n      mstore\n      dup1\n      swap4\n      swap3\n      swap2\n      swap1\n      dup2\n      dup2\n      mstore\n      0x20\n      add\n      dup4\n      dup4\n      dup1\n      dup3\n      dup5\n      calldatacopy\n      0x00\n      swap3\n      add\n      swap2\n      swap1\n      swap2\n      mstore\n      pop\n        /* \"ERC721A/MintNagaKids.sol\":4697:4703  verify */\n      tag_68\n      swap3\n      pop\n      pop\n      pop\n        /* \"ERC721A/MintNagaKids.sol\":4697:4727  verify(signer,msg.sender,_sig) */\n      jump\t// in\n    tag_321:\n        /* \"ERC721A/MintNagaKids.sol\":4689:4766  require(verify(signer,msg.sender,_sig), \"Unauthorized PublicMint This User.\") */\n      tag_322\n      jumpi\n      mload(0x40)\n      shl(0xe5, 0x461bcd)\n      dup2\n      mstore\n        /* \"#utility.yul\":13683:13685   */\n      0x20\n        /* \"ERC721A/MintNagaKids.sol\":4689:4766  require(verify(signer,msg.sender,_sig), \"Unauthorized PublicMint This User.\") */\n      0x04\n      dup3\n      add\n        /* \"#utility.yul\":13665:13686   */\n      mstore\n        /* \"#utility.yul\":13722:13724   */\n      0x22\n        /* \"#utility.yul\":13702:13720   */\n      0x24\n      dup3\n      add\n        /* \"#utility.yul\":13695:13725   */\n      mstore\n        /* \"#utility.yul\":13761:13795   */\n      0x556e617574686f72697a6564205075626c69634d696e74205468697320557365\n        /* \"#utility.yul\":13741:13759   */\n      0x44\n      dup3\n      add\n        /* \"#utility.yul\":13734:13796   */\n      mstore\n      shl(0xf1, 0x3917)\n        /* \"#utility.yul\":13812:13830   */\n      0x64\n      dup3\n      add\n        /* \"#utility.yul\":13805:13837   */\n      mstore\n        /* \"#utility.yul\":13854:13873   */\n      0x84\n      add\n        /* \"ERC721A/MintNagaKids.sol\":4689:4766  require(verify(signer,msg.sender,_sig), \"Unauthorized PublicMint This User.\") */\n      tag_202\n        /* \"#utility.yul\":13481:13879   */\n      jump\n        /* \"ERC721A/MintNagaKids.sol\":4689:4766  require(verify(signer,msg.sender,_sig), \"Unauthorized PublicMint This User.\") */\n    tag_322:\n        /* \"ERC721A/MintNagaKids.sol\":4906:4921  nagaKidContract */\n      sload(0x02)\n        /* \"ERC721A/MintNagaKids.sol\":4906:4950  nagaKidContract.safeMint(msg.sender,_amount) */\n      mload(0x40)\n      shl(0xe2, 0x28512065)\n      dup2\n      mstore\n        /* \"ERC721A/MintNagaKids.sol\":4931:4941  msg.sender */\n      caller\n        /* \"ERC721A/MintNagaKids.sol\":4906:4950  nagaKidContract.safeMint(msg.sender,_amount) */\n      0x04\n      dup3\n      add\n        /* \"#utility.yul\":9413:9464   */\n      mstore\n        /* \"ERC721A/MintNagaKids.sol\":4843:4844  1 */\n      0x01\n        /* \"#utility.yul\":9480:9498   */\n      0x24\n      dup3\n      add\n        /* \"#utility.yul\":9473:9507   */\n      dup2\n      swap1\n      mstore\n        /* \"ERC721A/MintNagaKids.sol\":4843:4844  1 */\n      swap2\n      sub(shl(0xa0, 0x01), 0x01)\n        /* \"ERC721A/MintNagaKids.sol\":4906:4921  nagaKidContract */\n      and\n      swap1\n        /* \"ERC721A/MintNagaKids.sol\":4906:4930  nagaKidContract.safeMint */\n      0xa1448194\n      swap1\n        /* \"#utility.yul\":9386:9404   */\n      0x44\n      add\n        /* \"ERC721A/MintNagaKids.sol\":4906:4950  nagaKidContract.safeMint(msg.sender,_amount) */\n      0x00\n      mload(0x40)\n      dup1\n      dup4\n      sub\n      dup2\n      0x00\n      dup8\n      dup1\n      extcodesize\n      iszero\n      dup1\n      iszero\n      tag_326\n      jumpi\n      0x00\n      dup1\n      revert\n    tag_326:\n      pop\n      gas\n      call\n      iszero\n      dup1\n      iszero\n      tag_328\n      jumpi\n      returndatasize\n      0x00\n      dup1\n      returndatacopy\n      revert(0x00, returndatasize)\n    tag_328:\n      pop\n      pop\n        /* \"ERC721A/MintNagaKids.sol\":4976:5024  PublicMinted(msg.sender,_amount,block.timestamp) */\n      0x40\n      dup1\n      mload\n        /* \"#utility.yul\":9160:9185   */\n      dup5\n      dup2\n      mstore\n        /* \"ERC721A/MintNagaKids.sol\":5008:5023  block.timestamp */\n      timestamp\n        /* \"#utility.yul\":9216:9218   */\n      0x20\n        /* \"#utility.yul\":9201:9219   */\n      dup3\n      add\n        /* \"#utility.yul\":9194:9228   */\n      mstore\n        /* \"ERC721A/MintNagaKids.sol\":4989:4999  msg.sender */\n      caller\n      swap4\n      pop\n        /* \"ERC721A/MintNagaKids.sol\":4976:5024  PublicMinted(msg.sender,_amount,block.timestamp) */\n      0xc1a73b31b32801ebbb4cae30b73eae4345be9f2915ea60306383c245ef8fac44\n      swap3\n      pop\n        /* \"#utility.yul\":9133:9151   */\n      add\n        /* \"ERC721A/MintNagaKids.sol\":4976:5024  PublicMinted(msg.sender,_amount,block.timestamp) */\n      mload(0x40)\n      dup1\n      swap2\n      sub\n      swap1\n      log2\n      pop\n      pop\n        /* \"@openzeppelin/contracts/security/ReentrancyGuard.sol\":1701:1702  1 */\n      0x01\n        /* \"@openzeppelin/contracts/security/ReentrancyGuard.sol\":2628:2650  _status = _NOT_ENTERED */\n      dup1\n      sstore\n      pop\n        /* \"ERC721A/MintNagaKids.sol\":4210:5032  function publicMint(bytes calldata _sig) public payable nonReentrant {... */\n      jump\t// out\n        /* \"@openzeppelin/contracts/access/Ownable.sol\":1918:2116  function transferOwnership(address newOwner) public virtual onlyOwner {... */\n    tag_162:\n        /* \"@openzeppelin/contracts/access/Ownable.sol\":1082:1089  address */\n      0x00\n        /* \"@openzeppelin/contracts/access/Ownable.sol\":1108:1114  _owner */\n      sload\n      sub(shl(0xa0, 0x01), 0x01)\n      and\n        /* \"@openzeppelin/contracts/utils/Context.sol\":719:729  msg.sender */\n      caller\n        /* \"@openzeppelin/contracts/access/Ownable.sol\":1248:1271  owner() == _msgSender() */\n      eq\n        /* \"@openzeppelin/contracts/access/Ownable.sol\":1240:1308  require(owner() == _msgSender(), \"Ownable: caller is not the owner\") */\n      tag_334\n      jumpi\n      mload(0x40)\n      shl(0xe5, 0x461bcd)\n      dup2\n      mstore\n      0x04\n      add\n      tag_202\n      swap1\n      tag_203\n      jump\t// in\n    tag_334:\n      sub(shl(0xa0, 0x01), 0x01)\n        /* \"@openzeppelin/contracts/access/Ownable.sol\":2006:2028  newOwner != address(0) */\n      dup2\n      and\n        /* \"@openzeppelin/contracts/access/Ownable.sol\":1998:2071  require(newOwner != address(0), \"Ownable: new owner is the zero address\") */\n      tag_337\n      jumpi\n      mload(0x40)\n      shl(0xe5, 0x461bcd)\n      dup2\n      mstore\n        /* \"#utility.yul\":14339:14341   */\n      0x20\n        /* \"@openzeppelin/contracts/access/Ownable.sol\":1998:2071  require(newOwner != address(0), \"Ownable: new owner is the zero address\") */\n      0x04\n      dup3\n      add\n        /* \"#utility.yul\":14321:14342   */\n      mstore\n        /* \"#utility.yul\":14378:14380   */\n      0x26\n        /* \"#utility.yul\":14358:14376   */\n      0x24\n      dup3\n      add\n        /* \"#utility.yul\":14351:14381   */\n      mstore\n        /* \"#utility.yul\":14417:14451   */\n      0x4f776e61626c653a206e6577206f776e657220697320746865207a65726f2061\n        /* \"#utility.yul\":14397:14415   */\n      0x44\n      dup3\n      add\n        /* \"#utility.yul\":14390:14452   */\n      mstore\n      shl(0xd0, 0x646472657373)\n        /* \"#utility.yul\":14468:14486   */\n      0x64\n      dup3\n      add\n        /* \"#utility.yul\":14461:14497   */\n      mstore\n        /* \"#utility.yul\":14514:14533   */\n      0x84\n      add\n        /* \"@openzeppelin/contracts/access/Ownable.sol\":1998:2071  require(newOwner != address(0), \"Ownable: new owner is the zero address\") */\n      tag_202\n        /* \"#utility.yul\":14137:14539   */\n      jump\n        /* \"@openzeppelin/contracts/access/Ownable.sol\":1998:2071  require(newOwner != address(0), \"Ownable: new owner is the zero address\") */\n    tag_337:\n        /* \"@openzeppelin/contracts/access/Ownable.sol\":2081:2109  _transferOwnership(newOwner) */\n      tag_340\n        /* \"@openzeppelin/contracts/access/Ownable.sol\":2100:2108  newOwner */\n      dup2\n        /* \"@openzeppelin/contracts/access/Ownable.sol\":2081:2099  _transferOwnership */\n      tag_231\n        /* \"@openzeppelin/contracts/access/Ownable.sol\":2081:2109  _transferOwnership(newOwner) */\n      jump\t// in\n    tag_340:\n        /* \"@openzeppelin/contracts/access/Ownable.sol\":1918:2116  function transferOwnership(address newOwner) public virtual onlyOwner {... */\n      pop\n      jump\t// out\n        /* \"ERC721A/MintNagaKids.sol\":3280:4202  function allowlistMint(bytes32[] calldata _proof, uint256 _amount, bytes32 _round) public payable nonReentrant {... */\n    tag_170:\n        /* \"@openzeppelin/contracts/security/ReentrancyGuard.sol\":1744:1745  2 */\n      0x02\n        /* \"@openzeppelin/contracts/security/ReentrancyGuard.sol\":2325:2332  _status */\n      sload(0x01)\n        /* \"@openzeppelin/contracts/security/ReentrancyGuard.sol\":2325:2344  _status != _ENTERED */\n      sub\n        /* \"@openzeppelin/contracts/security/ReentrancyGuard.sol\":2317:2380  require(_status != _ENTERED, \"ReentrancyGuard: reentrant call\") */\n      tag_342\n      jumpi\n      mload(0x40)\n      shl(0xe5, 0x461bcd)\n      dup2\n      mstore\n        /* \"#utility.yul\":12252:12254   */\n      0x20\n        /* \"@openzeppelin/contracts/security/ReentrancyGuard.sol\":2317:2380  require(_status != _ENTERED, \"ReentrancyGuard: reentrant call\") */\n      0x04\n      dup3\n      add\n        /* \"#utility.yul\":12234:12255   */\n      mstore\n        /* \"#utility.yul\":12291:12293   */\n      0x1f\n        /* \"#utility.yul\":12271:12289   */\n      0x24\n      dup3\n      add\n        /* \"#utility.yul\":12264:12294   */\n      mstore\n        /* \"#utility.yul\":12330:12363   */\n      0x5265656e7472616e637947756172643a207265656e7472616e742063616c6c00\n        /* \"#utility.yul\":12310:12328   */\n      0x44\n      dup3\n      add\n        /* \"#utility.yul\":12303:12364   */\n      mstore\n        /* \"#utility.yul\":12381:12399   */\n      0x64\n      add\n        /* \"@openzeppelin/contracts/security/ReentrancyGuard.sol\":2317:2380  require(_status != _ENTERED, \"ReentrancyGuard: reentrant call\") */\n      tag_202\n        /* \"#utility.yul\":12050:12405   */\n      jump\n        /* \"@openzeppelin/contracts/security/ReentrancyGuard.sol\":2317:2380  require(_status != _ENTERED, \"ReentrancyGuard: reentrant call\") */\n    tag_342:\n        /* \"@openzeppelin/contracts/security/ReentrancyGuard.sol\":1744:1745  2 */\n      0x02\n        /* \"@openzeppelin/contracts/security/ReentrancyGuard.sol\":2455:2462  _status */\n      0x01\n        /* \"@openzeppelin/contracts/security/ReentrancyGuard.sol\":2455:2473  _status = _ENTERED */\n      sstore\n        /* \"ERC721A/MintNagaKids.sol\":3410:3416  _round */\n      dup1\n        /* \"ERC721A/MintNagaKids.sol\":3402:3452  require(_round != DEFAULT,\"Mint is not approved.\") */\n      tag_345\n      jumpi\n      mload(0x40)\n      shl(0xe5, 0x461bcd)\n      dup2\n      mstore\n        /* \"#utility.yul\":14746:14748   */\n      0x20\n        /* \"ERC721A/MintNagaKids.sol\":3402:3452  require(_round != DEFAULT,\"Mint is not approved.\") */\n      0x04\n      dup3\n      add\n        /* \"#utility.yul\":14728:14749   */\n      mstore\n        /* \"#utility.yul\":14785:14787   */\n      0x15\n        /* \"#utility.yul\":14765:14783   */\n      0x24\n      dup3\n      add\n        /* \"#utility.yul\":14758:14788   */\n      mstore\n      shl(0x59, 0x26b4b73a1034b9903737ba1030b8383937bb32b217)\n        /* \"#utility.yul\":14804:14822   */\n      0x44\n      dup3\n      add\n        /* \"#utility.yul\":14797:14848   */\n      mstore\n        /* \"#utility.yul\":14865:14883   */\n      0x64\n      add\n        /* \"ERC721A/MintNagaKids.sol\":3402:3452  require(_round != DEFAULT,\"Mint is not approved.\") */\n      tag_202\n        /* \"#utility.yul\":14544:14889   */\n      jump\n        /* \"ERC721A/MintNagaKids.sol\":3402:3452  require(_round != DEFAULT,\"Mint is not approved.\") */\n    tag_345:\n        /* \"ERC721A/MintNagaKids.sol\":3491:3497  _round */\n      dup1\n        /* \"ERC721A/MintNagaKids.sol\":3471:3487  currentMintRound */\n      sload(0x03)\n        /* \"ERC721A/MintNagaKids.sol\":3471:3497  currentMintRound == _round */\n      eq\n        /* \"ERC721A/MintNagaKids.sol\":3463:3541  require(currentMintRound == _round, \"Contract are not in this minting round.\") */\n      tag_348\n      jumpi\n      mload(0x40)\n      shl(0xe5, 0x461bcd)\n      dup2\n      mstore\n        /* \"#utility.yul\":15096:15098   */\n      0x20\n        /* \"ERC721A/MintNagaKids.sol\":3463:3541  require(currentMintRound == _round, \"Contract are not in this minting round.\") */\n      0x04\n      dup3\n      add\n        /* \"#utility.yul\":15078:15099   */\n      mstore\n        /* \"#utility.yul\":15135:15137   */\n      0x27\n        /* \"#utility.yul\":15115:15133   */\n      0x24\n      dup3\n      add\n        /* \"#utility.yul\":15108:15138   */\n      mstore\n        /* \"#utility.yul\":15174:15208   */\n      0x436f6e747261637420617265206e6f7420696e2074686973206d696e74696e67\n        /* \"#utility.yul\":15154:15172   */\n      0x44\n      dup3\n      add\n        /* \"#utility.yul\":15147:15209   */\n      mstore\n      shl(0xc9, 0x103937bab73217)\n        /* \"#utility.yul\":15225:15243   */\n      0x64\n      dup3\n      add\n        /* \"#utility.yul\":15218:15255   */\n      mstore\n        /* \"#utility.yul\":15272:15291   */\n      0x84\n      add\n        /* \"ERC721A/MintNagaKids.sol\":3463:3541  require(currentMintRound == _round, \"Contract are not in this minting round.\") */\n      tag_202\n        /* \"#utility.yul\":14894:15297   */\n      jump\n        /* \"ERC721A/MintNagaKids.sol\":3463:3541  require(currentMintRound == _round, \"Contract are not in this minting round.\") */\n    tag_348:\n        /* \"ERC721A/MintNagaKids.sol\":3589:3603  getMaxSupply() */\n      tag_351\n        /* \"ERC721A/MintNagaKids.sol\":3589:3601  getMaxSupply */\n      tag_73\n        /* \"ERC721A/MintNagaKids.sol\":3589:3603  getMaxSupply() */\n      jump\t// in\n    tag_351:\n        /* \"ERC721A/MintNagaKids.sol\":3579:3586  _amount */\n      dup3\n        /* \"ERC721A/MintNagaKids.sol\":3560:3576  getTotalSupply() */\n      tag_352\n        /* \"ERC721A/MintNagaKids.sol\":3560:3574  getTotalSupply */\n      tag_140\n        /* \"ERC721A/MintNagaKids.sol\":3560:3576  getTotalSupply() */\n      jump\t// in\n    tag_352:\n        /* \"ERC721A/MintNagaKids.sol\":3560:3586  getTotalSupply() + _amount */\n      tag_353\n      swap2\n      swap1\n      tag_354\n      jump\t// in\n    tag_353:\n        /* \"ERC721A/MintNagaKids.sol\":3560:3603  getTotalSupply() + _amount < getMaxSupply() */\n      lt\n        /* \"ERC721A/MintNagaKids.sol\":3552:3619  require(getTotalSupply() + _amount < getMaxSupply(), \"Over supply\") */\n      tag_355\n      jumpi\n      mload(0x40)\n      shl(0xe5, 0x461bcd)\n      dup2\n      mstore\n        /* \"#utility.yul\":15769:15771   */\n      0x20\n        /* \"ERC721A/MintNagaKids.sol\":3552:3619  require(getTotalSupply() + _amount < getMaxSupply(), \"Over supply\") */\n      0x04\n      dup3\n      add\n        /* \"#utility.yul\":15751:15772   */\n      mstore\n        /* \"#utility.yul\":15808:15810   */\n      0x0b\n        /* \"#utility.yul\":15788:15806   */\n      0x24\n      dup3\n      add\n        /* \"#utility.yul\":15781:15811   */\n      mstore\n      shl(0xa8, 0x4f76657220737570706c79)\n        /* \"#utility.yul\":15827:15845   */\n      0x44\n      dup3\n      add\n        /* \"#utility.yul\":15820:15861   */\n      mstore\n        /* \"#utility.yul\":15878:15896   */\n      0x64\n      add\n        /* \"ERC721A/MintNagaKids.sol\":3552:3619  require(getTotalSupply() + _amount < getMaxSupply(), \"Over supply\") */\n      tag_202\n        /* \"#utility.yul\":15567:15902   */\n      jump\n        /* \"ERC721A/MintNagaKids.sol\":3552:3619  require(getTotalSupply() + _amount < getMaxSupply(), \"Over supply\") */\n    tag_355:\n        /* \"ERC721A/MintNagaKids.sol\":3651:3661  msg.sender */\n      caller\n        /* \"ERC721A/MintNagaKids.sol\":6194:6198  bool */\n      0x00\n        /* \"ERC721A/MintNagaKids.sol\":6218:6238  _isUserMinted[_user] */\n      swap1\n      dup2\n      mstore\n        /* \"ERC721A/MintNagaKids.sol\":6218:6231  _isUserMinted */\n      0x06\n        /* \"ERC721A/MintNagaKids.sol\":6218:6238  _isUserMinted[_user] */\n      0x20\n      swap1\n      dup2\n      mstore\n      0x40\n      dup1\n      dup4\n      keccak256\n        /* \"ERC721A/MintNagaKids.sol\":6218:6246  _isUserMinted[_user][_round] */\n      dup5\n      dup5\n      mstore\n      swap1\n      swap2\n      mstore\n      swap1\n      keccak256\n      sload\n      0xff\n      and\n        /* \"ERC721A/MintNagaKids.sol\":3638:3678  isUserMinted(msg.sender,_round) == false */\n      iszero\n        /* \"ERC721A/MintNagaKids.sol\":3630:3706  require(isUserMinted(msg.sender,_round) == false, \"You are already minted.\") */\n      tag_359\n      jumpi\n      mload(0x40)\n      shl(0xe5, 0x461bcd)\n      dup2\n      mstore\n        /* \"#utility.yul\":16109:16111   */\n      0x20\n        /* \"ERC721A/MintNagaKids.sol\":3630:3706  require(isUserMinted(msg.sender,_round) == false, \"You are already minted.\") */\n      0x04\n      dup3\n      add\n        /* \"#utility.yul\":16091:16112   */\n      mstore\n        /* \"#utility.yul\":16148:16150   */\n      0x17\n        /* \"#utility.yul\":16128:16146   */\n      0x24\n      dup3\n      add\n        /* \"#utility.yul\":16121:16151   */\n      mstore\n        /* \"#utility.yul\":16187:16212   */\n      0x596f752061726520616c7265616479206d696e7465642e000000000000000000\n        /* \"#utility.yul\":16167:16185   */\n      0x44\n      dup3\n      add\n        /* \"#utility.yul\":16160:16213   */\n      mstore\n        /* \"#utility.yul\":16230:16248   */\n      0x64\n      add\n        /* \"ERC721A/MintNagaKids.sol\":3630:3706  require(isUserMinted(msg.sender,_round) == false, \"You are already minted.\") */\n      tag_202\n        /* \"#utility.yul\":15907:16254   */\n      jump\n        /* \"ERC721A/MintNagaKids.sol\":3630:3706  require(isUserMinted(msg.sender,_round) == false, \"You are already minted.\") */\n    tag_359:\n        /* \"ERC721A/MintNagaKids.sol\":3725:3740  nagaKidContract */\n      sload(0x02)\n        /* \"ERC721A/MintNagaKids.sol\":3725:3764  nagaKidContract.isMinter(address(this)) */\n      mload(0x40)\n      shl(0xe1, 0x55138f0d)\n      dup2\n      mstore\n        /* \"ERC721A/MintNagaKids.sol\":3758:3762  this */\n      address\n        /* \"ERC721A/MintNagaKids.sol\":3725:3764  nagaKidContract.isMinter(address(this)) */\n      0x04\n      dup3\n      add\n        /* \"#utility.yul\":730:781   */\n      mstore\n      sub(shl(0xa0, 0x01), 0x01)\n        /* \"ERC721A/MintNagaKids.sol\":3725:3740  nagaKidContract */\n      swap1\n      swap2\n      and\n      swap1\n        /* \"ERC721A/MintNagaKids.sol\":3725:3749  nagaKidContract.isMinter */\n      0xaa271e1a\n      swap1\n        /* \"#utility.yul\":703:721   */\n      0x24\n      add\n        /* \"ERC721A/MintNagaKids.sol\":3725:3764  nagaKidContract.isMinter(address(this)) */\n      0x20\n      mload(0x40)\n      dup1\n      dup4\n      sub\n      dup2\n      dup7\n      gas\n      staticcall\n      iszero\n      dup1\n      iszero\n      tag_364\n      jumpi\n      returndatasize\n      0x00\n      dup1\n      returndatacopy\n      revert(0x00, returndatasize)\n    tag_364:\n      pop\n      pop\n      pop\n      pop\n      mload(0x40)\n      returndatasize\n      not(0x1f)\n      0x1f\n      dup3\n      add\n      and\n      dup3\n      add\n      dup1\n      0x40\n      mstore\n      pop\n      dup2\n      add\n      swap1\n      tag_365\n      swap2\n      swap1\n      tag_257\n      jump\t// in\n    tag_365:\n        /* \"ERC721A/MintNagaKids.sol\":3717:3799  require(nagaKidContract.isMinter(address(this)), \"Contract Mint is not approved.\") */\n      tag_366\n      jumpi\n      mload(0x40)\n      shl(0xe5, 0x461bcd)\n      dup2\n      mstore\n        /* \"#utility.yul\":13324:13326   */\n      0x20\n        /* \"ERC721A/MintNagaKids.sol\":3717:3799  require(nagaKidContract.isMinter(address(this)), \"Contract Mint is not approved.\") */\n      0x04\n      dup3\n      add\n        /* \"#utility.yul\":13306:13327   */\n      mstore\n        /* \"#utility.yul\":13363:13365   */\n      0x1e\n        /* \"#utility.yul\":13343:13361   */\n      0x24\n      dup3\n      add\n        /* \"#utility.yul\":13336:13366   */\n      mstore\n        /* \"#utility.yul\":13402:13434   */\n      0x436f6e7472616374204d696e74206973206e6f7420617070726f7665642e0000\n        /* \"#utility.yul\":13382:13400   */\n      0x44\n      dup3\n      add\n        /* \"#utility.yul\":13375:13435   */\n      mstore\n        /* \"#utility.yul\":13452:13470   */\n      0x64\n      add\n        /* \"ERC721A/MintNagaKids.sol\":3717:3799  require(nagaKidContract.isMinter(address(this)), \"Contract Mint is not approved.\") */\n      tag_202\n        /* \"#utility.yul\":13122:13476   */\n      jump\n        /* \"ERC721A/MintNagaKids.sol\":3717:3799  require(nagaKidContract.isMinter(address(this)), \"Contract Mint is not approved.\") */\n    tag_366:\n        /* \"ERC721A/MintNagaKids.sol\":3818:3914  MerkleProof.verify(_proof, merkleRoot, keccak256(abi.encodePacked(msg.sender, _amount, _round))) */\n      tag_368\n        /* \"ERC721A/MintNagaKids.sol\":3837:3843  _proof */\n      dup5\n      dup5\n        /* \"ERC721A/MintNagaKids.sol\":3818:3914  MerkleProof.verify(_proof, merkleRoot, keccak256(abi.encodePacked(msg.sender, _amount, _round))) */\n      dup1\n      dup1\n      0x20\n      mul\n      0x20\n      add\n      mload(0x40)\n      swap1\n      dup2\n      add\n      0x40\n      mstore\n      dup1\n      swap4\n      swap3\n      swap2\n      swap1\n      dup2\n      dup2\n      mstore\n      0x20\n      add\n      dup4\n      dup4\n      0x20\n      mul\n      dup1\n      dup3\n      dup5\n      calldatacopy\n      0x00\n      swap3\n      add\n      swap2\n      swap1\n      swap2\n      mstore\n      pop\n      pop\n        /* \"ERC721A/MintNagaKids.sol\":3845:3855  merkleRoot */\n      sload(0x04)\n        /* \"ERC721A/MintNagaKids.sol\":3867:3912  abi.encodePacked(msg.sender, _amount, _round) */\n      mload(0x40)\n      not(0xffffffffffffffffffffffff)\n        /* \"ERC721A/MintNagaKids.sol\":3884:3894  msg.sender */\n      caller\n        /* \"#utility.yul\":16464:16466   */\n      0x60\n        /* \"#utility.yul\":16460:16475   */\n      shl\n        /* \"#utility.yul\":16456:16509   */\n      and\n        /* \"ERC721A/MintNagaKids.sol\":3867:3912  abi.encodePacked(msg.sender, _amount, _round) */\n      0x20\n      dup3\n      add\n        /* \"#utility.yul\":16444:16510   */\n      mstore\n        /* \"#utility.yul\":16526:16538   */\n      0x34\n      dup2\n      add\n        /* \"#utility.yul\":16519:16547   */\n      dup9\n      swap1\n      mstore\n        /* \"#utility.yul\":16563:16575   */\n      0x54\n      dup2\n      add\n        /* \"#utility.yul\":16556:16584   */\n      dup8\n      swap1\n      mstore\n        /* \"ERC721A/MintNagaKids.sol\":3845:3855  merkleRoot */\n      swap1\n      swap3\n      pop\n        /* \"#utility.yul\":16600:16612   */\n      0x74\n      add\n      swap1\n      pop\n        /* \"ERC721A/MintNagaKids.sol\":3867:3912  abi.encodePacked(msg.sender, _amount, _round) */\n      mload(0x40)\n      0x20\n      dup2\n      dup4\n      sub\n      sub\n      dup2\n      mstore\n      swap1\n      0x40\n      mstore\n        /* \"ERC721A/MintNagaKids.sol\":3857:3913  keccak256(abi.encodePacked(msg.sender, _amount, _round)) */\n      dup1\n      mload\n      swap1\n      0x20\n      add\n      keccak256\n        /* \"ERC721A/MintNagaKids.sol\":3818:3836  MerkleProof.verify */\n      tag_371\n        /* \"ERC721A/MintNagaKids.sol\":3818:3914  MerkleProof.verify(_proof, merkleRoot, keccak256(abi.encodePacked(msg.sender, _amount, _round))) */\n      jump\t// in\n    tag_368:\n        /* \"ERC721A/MintNagaKids.sol\":3810:3956  require(MerkleProof.verify(_proof, merkleRoot, keccak256(abi.encodePacked(msg.sender, _amount, _round))), \"Unauthorized WhitelistMint This User.\") */\n      tag_372\n      jumpi\n      mload(0x40)\n      shl(0xe5, 0x461bcd)\n      dup2\n      mstore\n        /* \"#utility.yul\":16825:16827   */\n      0x20\n        /* \"ERC721A/MintNagaKids.sol\":3810:3956  require(MerkleProof.verify(_proof, merkleRoot, keccak256(abi.encodePacked(msg.sender, _amount, _round))), \"Unauthorized WhitelistMint This User.\") */\n      0x04\n      dup3\n      add\n        /* \"#utility.yul\":16807:16828   */\n      mstore\n        /* \"#utility.yul\":16864:16866   */\n      0x25\n        /* \"#utility.yul\":16844:16862   */\n      0x24\n      dup3\n      add\n        /* \"#utility.yul\":16837:16867   */\n      mstore\n        /* \"#utility.yul\":16903:16937   */\n      0x556e617574686f72697a65642057686974656c6973744d696e74205468697320\n        /* \"#utility.yul\":16883:16901   */\n      0x44\n      dup3\n      add\n        /* \"#utility.yul\":16876:16938   */\n      mstore\n      shl(0xd9, 0x2ab9b2b917)\n        /* \"#utility.yul\":16954:16972   */\n      0x64\n      dup3\n      add\n        /* \"#utility.yul\":16947:16982   */\n      mstore\n        /* \"#utility.yul\":16999:17018   */\n      0x84\n      add\n        /* \"ERC721A/MintNagaKids.sol\":3810:3956  require(MerkleProof.verify(_proof, merkleRoot, keccak256(abi.encodePacked(msg.sender, _amount, _round))), \"Unauthorized WhitelistMint This User.\") */\n      tag_202\n        /* \"#utility.yul\":16623:17024   */\n      jump\n        /* \"ERC721A/MintNagaKids.sol\":3810:3956  require(MerkleProof.verify(_proof, merkleRoot, keccak256(abi.encodePacked(msg.sender, _amount, _round))), \"Unauthorized WhitelistMint This User.\") */\n    tag_372:\n        /* \"ERC721A/MintNagaKids.sol\":3983:3993  msg.sender */\n      caller\n        /* \"ERC721A/MintNagaKids.sol\":3969:3994  _isUserMinted[msg.sender] */\n      0x00\n      dup2\n      dup2\n      mstore\n        /* \"ERC721A/MintNagaKids.sol\":3969:3982  _isUserMinted */\n      0x06\n        /* \"ERC721A/MintNagaKids.sol\":3969:3994  _isUserMinted[msg.sender] */\n      0x20\n      swap1\n      dup2\n      mstore\n      0x40\n      dup1\n      dup4\n      keccak256\n        /* \"ERC721A/MintNagaKids.sol\":3969:4002  _isUserMinted[msg.sender][_round] */\n      dup6\n      dup5\n      mstore\n      dup3\n      mstore\n      dup1\n      dup4\n      keccak256\n        /* \"ERC721A/MintNagaKids.sol\":3969:4009  _isUserMinted[msg.sender][_round] = true */\n      dup1\n      sload\n      not(0xff)\n      and\n        /* \"ERC721A/MintNagaKids.sol\":4005:4009  true */\n      0x01\n        /* \"ERC721A/MintNagaKids.sol\":3969:4009  _isUserMinted[msg.sender][_round] = true */\n      or\n      swap1\n      sstore\n        /* \"ERC721A/MintNagaKids.sol\":4020:4049  _userMintedAmount[msg.sender] */\n      swap3\n      dup3\n      mstore\n        /* \"ERC721A/MintNagaKids.sol\":4020:4037  _userMintedAmount */\n      0x07\n        /* \"ERC721A/MintNagaKids.sol\":4020:4049  _userMintedAmount[msg.sender] */\n      dup2\n      mstore\n      dup3\n      dup3\n      keccak256\n        /* \"ERC721A/MintNagaKids.sol\":4020:4057  _userMintedAmount[msg.sender][_round] */\n      dup5\n      dup4\n      mstore\n      swap1\n      mstore\n      swap1\n      dup2\n      keccak256\n        /* \"ERC721A/MintNagaKids.sol\":4020:4068  _userMintedAmount[msg.sender][_round] += _amount */\n      dup1\n      sload\n        /* \"ERC721A/MintNagaKids.sol\":4061:4068  _amount */\n      dup5\n      swap3\n        /* \"ERC721A/MintNagaKids.sol\":3969:3994  _isUserMinted[msg.sender] */\n      swap1\n        /* \"ERC721A/MintNagaKids.sol\":4020:4068  _userMintedAmount[msg.sender][_round] += _amount */\n      tag_375\n      swap1\n        /* \"ERC721A/MintNagaKids.sol\":4061:4068  _amount */\n      dup5\n      swap1\n        /* \"ERC721A/MintNagaKids.sol\":4020:4068  _userMintedAmount[msg.sender][_round] += _amount */\n      tag_354\n      jump\t// in\n    tag_375:\n      swap1\n      swap2\n      sstore\n      pop\n      pop\n        /* \"ERC721A/MintNagaKids.sol\":4081:4096  nagaKidContract */\n      sload(0x02)\n        /* \"ERC721A/MintNagaKids.sol\":4081:4125  nagaKidContract.safeMint(msg.sender,_amount) */\n      mload(0x40)\n      shl(0xe2, 0x28512065)\n      dup2\n      mstore\n        /* \"ERC721A/MintNagaKids.sol\":4106:4116  msg.sender */\n      caller\n        /* \"ERC721A/MintNagaKids.sol\":4081:4125  nagaKidContract.safeMint(msg.sender,_amount) */\n      0x04\n      dup3\n      add\n        /* \"#utility.yul\":9413:9464   */\n      mstore\n        /* \"#utility.yul\":9480:9498   */\n      0x24\n      dup2\n      add\n        /* \"#utility.yul\":9473:9507   */\n      dup5\n      swap1\n      mstore\n      sub(shl(0xa0, 0x01), 0x01)\n        /* \"ERC721A/MintNagaKids.sol\":4081:4096  nagaKidContract */\n      swap1\n      swap2\n      and\n      swap1\n        /* \"ERC721A/MintNagaKids.sol\":4081:4105  nagaKidContract.safeMint */\n      0xa1448194\n      swap1\n        /* \"#utility.yul\":9386:9404   */\n      0x44\n      add\n        /* \"ERC721A/MintNagaKids.sol\":4081:4125  nagaKidContract.safeMint(msg.sender,_amount) */\n      0x00\n      mload(0x40)\n      dup1\n      dup4\n      sub\n      dup2\n      0x00\n      dup8\n      dup1\n      extcodesize\n      iszero\n      dup1\n      iszero\n      tag_377\n      jumpi\n      0x00\n      dup1\n      revert\n    tag_377:\n      pop\n      gas\n      call\n      iszero\n      dup1\n      iszero\n      tag_379\n      jumpi\n      returndatasize\n      0x00\n      dup1\n      returndatacopy\n      revert(0x00, returndatasize)\n    tag_379:\n      pop\n      pop\n        /* \"ERC721A/MintNagaKids.sol\":4143:4194  PrivateMinted(msg.sender, _amount, block.timestamp) */\n      0x40\n      dup1\n      mload\n        /* \"#utility.yul\":9160:9185   */\n      dup6\n      dup2\n      mstore\n        /* \"ERC721A/MintNagaKids.sol\":4178:4193  block.timestamp */\n      timestamp\n        /* \"#utility.yul\":9216:9218   */\n      0x20\n        /* \"#utility.yul\":9201:9219   */\n      dup3\n      add\n        /* \"#utility.yul\":9194:9228   */\n      mstore\n        /* \"ERC721A/MintNagaKids.sol\":4157:4167  msg.sender */\n      caller\n      swap4\n      pop\n        /* \"ERC721A/MintNagaKids.sol\":4143:4194  PrivateMinted(msg.sender, _amount, block.timestamp) */\n      0xe9e607753e80542a9021d5149990f18919907f0136fad424eaac3d15056ccf6e\n      swap3\n      pop\n        /* \"#utility.yul\":9133:9151   */\n      add\n        /* \"ERC721A/MintNagaKids.sol\":4143:4194  PrivateMinted(msg.sender, _amount, block.timestamp) */\n      mload(0x40)\n      dup1\n      swap2\n      sub\n      swap1\n      log2\n      pop\n      pop\n        /* \"@openzeppelin/contracts/security/ReentrancyGuard.sol\":1701:1702  1 */\n      0x01\n        /* \"@openzeppelin/contracts/security/ReentrancyGuard.sol\":2628:2650  _status = _NOT_ENTERED */\n      dup1\n      sstore\n      pop\n      pop\n        /* \"ERC721A/MintNagaKids.sol\":3280:4202  function allowlistMint(bytes32[] calldata _proof, uint256 _amount, bytes32 _round) public payable nonReentrant {... */\n      jump\t// out\n        /* \"ERC721A/VerifySignature.sol\":267:761  function getEthSignedMessageHash(bytes32 _messageHash)... */\n    tag_174:\n        /* \"ERC721A/VerifySignature.sol\":611:738  abi.encodePacked(... */\n      mload(0x40)\n        /* \"#utility.yul\":17271:17337   */\n      0x19457468657265756d205369676e6564204d6573736167653a0a333200000000\n        /* \"ERC721A/VerifySignature.sol\":611:738  abi.encodePacked(... */\n      0x20\n      dup3\n      add\n        /* \"#utility.yul\":17259:17338   */\n      mstore\n        /* \"#utility.yul\":17354:17366   */\n      0x3c\n      dup2\n      add\n        /* \"#utility.yul\":17347:17375   */\n      dup3\n      swap1\n      mstore\n        /* \"ERC721A/VerifySignature.sol\":370:377  bytes32 */\n      0x00\n      swap1\n        /* \"#utility.yul\":17391:17403   */\n      0x5c\n      add\n        /* \"ERC721A/VerifySignature.sol\":611:738  abi.encodePacked(... */\n      tag_186\n        /* \"#utility.yul\":17029:17409   */\n      jump\n        /* \"ERC721A/MintNagaKids.sol\":2655:2852  function setRound(bytes32 _round) public onlyOwner {... */\n    tag_179:\n        /* \"@openzeppelin/contracts/access/Ownable.sol\":1082:1089  address */\n      0x00\n        /* \"@openzeppelin/contracts/access/Ownable.sol\":1108:1114  _owner */\n      sload\n      sub(shl(0xa0, 0x01), 0x01)\n      and\n        /* \"@openzeppelin/contracts/utils/Context.sol\":719:729  msg.sender */\n      caller\n        /* \"@openzeppelin/contracts/access/Ownable.sol\":1248:1271  owner() == _msgSender() */\n      eq\n        /* \"@openzeppelin/contracts/access/Ownable.sol\":1240:1308  require(owner() == _msgSender(), \"Ownable: caller is not the owner\") */\n      tag_387\n      jumpi\n      mload(0x40)\n      shl(0xe5, 0x461bcd)\n      dup2\n      mstore\n      0x04\n      add\n      tag_202\n      swap1\n      tag_203\n      jump\t// in\n    tag_387:\n        /* \"ERC721A/MintNagaKids.sol\":2740:2756  currentMintRound */\n      0x03\n      dup1\n      sload\n        /* \"ERC721A/MintNagaKids.sol\":2767:2792  currentMintRound = _round */\n      swap1\n      dup3\n      swap1\n      sstore\n        /* \"ERC721A/MintNagaKids.sol\":2810:2844  RoundChanged(_roundBefore, _round) */\n      0x40\n      dup1\n      mload\n        /* \"#utility.yul\":9160:9185   */\n      dup3\n      dup2\n      mstore\n        /* \"#utility.yul\":9216:9218   */\n      0x20\n        /* \"#utility.yul\":9201:9219   */\n      dup2\n      add\n        /* \"#utility.yul\":9194:9228   */\n      dup5\n      swap1\n      mstore\n        /* \"ERC721A/MintNagaKids.sol\":2810:2844  RoundChanged(_roundBefore, _round) */\n      0x521ec96875ca228cd2fc1dbd4c927a34328c9ce1a83bcb8c1f633f012c90d785\n      swap2\n        /* \"#utility.yul\":9133:9151   */\n      add\n        /* \"ERC721A/MintNagaKids.sol\":2810:2844  RoundChanged(_roundBefore, _round) */\n      tag_222\n        /* \"#utility.yul\":8986:9234   */\n      jump\n        /* \"@openzeppelin/contracts/access/Ownable.sol\":2270:2457  function _transferOwnership(address newOwner) internal virtual {... */\n    tag_231:\n        /* \"@openzeppelin/contracts/access/Ownable.sol\":2343:2359  address oldOwner */\n      0x00\n        /* \"@openzeppelin/contracts/access/Ownable.sol\":2362:2368  _owner */\n      dup1\n      sload\n      sub(shl(0xa0, 0x01), 0x01)\n        /* \"@openzeppelin/contracts/access/Ownable.sol\":2378:2395  _owner = newOwner */\n      dup4\n      dup2\n      and\n      not(sub(shl(0xa0, 0x01), 0x01))\n      dup4\n      and\n      dup2\n      or\n      dup5\n      sstore\n        /* \"@openzeppelin/contracts/access/Ownable.sol\":2410:2450  OwnershipTransferred(oldOwner, newOwner) */\n      mload(0x40)\n        /* \"@openzeppelin/contracts/access/Ownable.sol\":2362:2368  _owner */\n      swap2\n      swap1\n      swap3\n      and\n      swap3\n      dup4\n      swap2\n        /* \"@openzeppelin/contracts/access/Ownable.sol\":2410:2450  OwnershipTransferred(oldOwner, newOwner) */\n      0x8be0079c531659141344cd1fd0a4f28419497f9722a3daafe3b4186f6b6457e0\n      swap2\n        /* \"@openzeppelin/contracts/access/Ownable.sol\":2343:2359  address oldOwner */\n      swap1\n        /* \"@openzeppelin/contracts/access/Ownable.sol\":2410:2450  OwnershipTransferred(oldOwner, newOwner) */\n      log3\n        /* \"@openzeppelin/contracts/access/Ownable.sol\":2333:2457  {... */\n      pop\n        /* \"@openzeppelin/contracts/access/Ownable.sol\":2270:2457  function _transferOwnership(address newOwner) internal virtual {... */\n      pop\n      jump\t// out\n        /* \"@openzeppelin/contracts/utils/cryptography/MerkleProof.sol\":1154:1338  function verify(... */\n    tag_371:\n        /* \"@openzeppelin/contracts/utils/cryptography/MerkleProof.sol\":1275:1279  bool */\n      0x00\n        /* \"@openzeppelin/contracts/utils/cryptography/MerkleProof.sol\":1327:1331  root */\n      dup3\n        /* \"@openzeppelin/contracts/utils/cryptography/MerkleProof.sol\":1298:1323  processProof(proof, leaf) */\n      tag_395\n        /* \"@openzeppelin/contracts/utils/cryptography/MerkleProof.sol\":1311:1316  proof */\n      dup6\n        /* \"@openzeppelin/contracts/utils/cryptography/MerkleProof.sol\":1318:1322  leaf */\n      dup5\n        /* \"@openzeppelin/contracts/utils/cryptography/MerkleProof.sol\":1298:1310  processProof */\n      tag_396\n        /* \"@openzeppelin/contracts/utils/cryptography/MerkleProof.sol\":1298:1323  processProof(proof, leaf) */\n      jump\t// in\n    tag_395:\n        /* \"@openzeppelin/contracts/utils/cryptography/MerkleProof.sol\":1298:1331  processProof(proof, leaf) == root */\n      eq\n      swap5\n        /* \"@openzeppelin/contracts/utils/cryptography/MerkleProof.sol\":1154:1338  function verify(... */\n      swap4\n      pop\n      pop\n      pop\n      pop\n      jump\t// out\n        /* \"@openzeppelin/contracts/utils/cryptography/MerkleProof.sol\":1689:2351  function processProof(bytes32[] memory proof, bytes32 leaf) internal pure returns (bytes32) {... */\n    tag_396:\n        /* \"@openzeppelin/contracts/utils/cryptography/MerkleProof.sol\":1772:1779  bytes32 */\n      0x00\n        /* \"@openzeppelin/contracts/utils/cryptography/MerkleProof.sol\":1814:1818  leaf */\n      dup2\n        /* \"@openzeppelin/contracts/utils/cryptography/MerkleProof.sol\":1772:1779  bytes32 */\n      dup2\n        /* \"@openzeppelin/contracts/utils/cryptography/MerkleProof.sol\":1828:2316  for (uint256 i = 0; i < proof.length; i++) {... */\n    tag_398:\n        /* \"@openzeppelin/contracts/utils/cryptography/MerkleProof.sol\":1852:1857  proof */\n      dup5\n        /* \"@openzeppelin/contracts/utils/cryptography/MerkleProof.sol\":1852:1864  proof.length */\n      mload\n        /* \"@openzeppelin/contracts/utils/cryptography/MerkleProof.sol\":1848:1849  i */\n      dup2\n        /* \"@openzeppelin/contracts/utils/cryptography/MerkleProof.sol\":1848:1864  i < proof.length */\n      lt\n        /* \"@openzeppelin/contracts/utils/cryptography/MerkleProof.sol\":1828:2316  for (uint256 i = 0; i < proof.length; i++) {... */\n      iszero\n      tag_399\n      jumpi\n        /* \"@openzeppelin/contracts/utils/cryptography/MerkleProof.sol\":1885:1905  bytes32 proofElement */\n      0x00\n        /* \"@openzeppelin/contracts/utils/cryptography/MerkleProof.sol\":1908:1913  proof */\n      dup6\n        /* \"@openzeppelin/contracts/utils/cryptography/MerkleProof.sol\":1914:1915  i */\n      dup3\n        /* \"@openzeppelin/contracts/utils/cryptography/MerkleProof.sol\":1908:1916  proof[i] */\n      dup2\n      mload\n      dup2\n      lt\n      tag_402\n      jumpi\n      tag_402\n      tag_403\n      jump\t// in\n    tag_402:\n      0x20\n      mul\n      0x20\n      add\n      add\n      mload\n        /* \"@openzeppelin/contracts/utils/cryptography/MerkleProof.sol\":1885:1916  bytes32 proofElement = proof[i] */\n      swap1\n      pop\n        /* \"@openzeppelin/contracts/utils/cryptography/MerkleProof.sol\":1950:1962  proofElement */\n      dup1\n        /* \"@openzeppelin/contracts/utils/cryptography/MerkleProof.sol\":1934:1946  computedHash */\n      dup4\n        /* \"@openzeppelin/contracts/utils/cryptography/MerkleProof.sol\":1934:1962  computedHash <= proofElement */\n      gt\n        /* \"@openzeppelin/contracts/utils/cryptography/MerkleProof.sol\":1930:2306  if (computedHash <= proofElement) {... */\n      tag_404\n      jumpi\n        /* \"@openzeppelin/contracts/utils/cryptography/MerkleProof.sol\":2425:2438  bytes32 value */\n      0x00\n        /* \"@openzeppelin/contracts/utils/cryptography/MerkleProof.sol\":2473:2488  mstore(0x00, a) */\n      dup4\n      dup2\n      mstore\n        /* \"@openzeppelin/contracts/utils/cryptography/MerkleProof.sol\":2508:2512  0x20 */\n      0x20\n        /* \"@openzeppelin/contracts/utils/cryptography/MerkleProof.sol\":2501:2516  mstore(0x20, b) */\n      dup3\n      swap1\n      mstore\n        /* \"@openzeppelin/contracts/utils/cryptography/MerkleProof.sol\":2554:2558  0x40 */\n      0x40\n        /* \"@openzeppelin/contracts/utils/cryptography/MerkleProof.sol\":2538:2559  keccak256(0x00, 0x40) */\n      swap1\n      keccak256\n        /* \"@openzeppelin/contracts/utils/cryptography/MerkleProof.sol\":2060:2117  computedHash = _efficientHash(computedHash, proofElement) */\n      swap3\n      pop\n        /* \"@openzeppelin/contracts/utils/cryptography/MerkleProof.sol\":1930:2306  if (computedHash <= proofElement) {... */\n      jump(tag_407)\n    tag_404:\n        /* \"@openzeppelin/contracts/utils/cryptography/MerkleProof.sol\":2425:2438  bytes32 value */\n      0x00\n        /* \"@openzeppelin/contracts/utils/cryptography/MerkleProof.sol\":2473:2488  mstore(0x00, a) */\n      dup2\n      dup2\n      mstore\n        /* \"@openzeppelin/contracts/utils/cryptography/MerkleProof.sol\":2508:2512  0x20 */\n      0x20\n        /* \"@openzeppelin/contracts/utils/cryptography/MerkleProof.sol\":2501:2516  mstore(0x20, b) */\n      dup5\n      swap1\n      mstore\n        /* \"@openzeppelin/contracts/utils/cryptography/MerkleProof.sol\":2554:2558  0x40 */\n      0x40\n        /* \"@openzeppelin/contracts/utils/cryptography/MerkleProof.sol\":2538:2559  keccak256(0x00, 0x40) */\n      swap1\n      keccak256\n        /* \"@openzeppelin/contracts/utils/cryptography/MerkleProof.sol\":2234:2291  computedHash = _efficientHash(proofElement, computedHash) */\n      swap3\n      pop\n        /* \"@openzeppelin/contracts/utils/cryptography/MerkleProof.sol\":1930:2306  if (computedHash <= proofElement) {... */\n    tag_407:\n      pop\n        /* \"@openzeppelin/contracts/utils/cryptography/MerkleProof.sol\":1866:1869  i++ */\n      dup1\n      tag_409\n      dup2\n      tag_410\n      jump\t// in\n    tag_409:\n      swap2\n      pop\n      pop\n        /* \"@openzeppelin/contracts/utils/cryptography/MerkleProof.sol\":1828:2316  for (uint256 i = 0; i < proof.length; i++) {... */\n      jump(tag_398)\n    tag_399:\n      pop\n        /* \"@openzeppelin/contracts/utils/cryptography/MerkleProof.sol\":2332:2344  computedHash */\n      swap4\n        /* \"@openzeppelin/contracts/utils/cryptography/MerkleProof.sol\":1689:2351  function processProof(bytes32[] memory proof, bytes32 leaf) internal pure returns (bytes32) {... */\n      swap3\n      pop\n      pop\n      pop\n      jump\t// out\n        /* \"#utility.yul\":196:327   */\n    tag_412:\n      sub(shl(0xa0, 0x01), 0x01)\n        /* \"#utility.yul\":271:302   */\n      dup2\n      and\n        /* \"#utility.yul\":261:303   */\n      dup2\n      eq\n        /* \"#utility.yul\":251:321   */\n      tag_340\n      jumpi\n        /* \"#utility.yul\":317:318   */\n      0x00\n        /* \"#utility.yul\":314:315   */\n      dup1\n        /* \"#utility.yul\":307:319   */\n      revert\n        /* \"#utility.yul\":332:579   */\n    tag_48:\n        /* \"#utility.yul\":391:397   */\n      0x00\n        /* \"#utility.yul\":444:446   */\n      0x20\n        /* \"#utility.yul\":432:441   */\n      dup3\n        /* \"#utility.yul\":423:430   */\n      dup5\n        /* \"#utility.yul\":419:442   */\n      sub\n        /* \"#utility.yul\":415:447   */\n      slt\n        /* \"#utility.yul\":412:464   */\n      iszero\n      tag_421\n      jumpi\n        /* \"#utility.yul\":460:461   */\n      0x00\n        /* \"#utility.yul\":457:458   */\n      dup1\n        /* \"#utility.yul\":450:462   */\n      revert\n        /* \"#utility.yul\":412:464   */\n    tag_421:\n        /* \"#utility.yul\":499:508   */\n      dup2\n        /* \"#utility.yul\":486:509   */\n      calldataload\n        /* \"#utility.yul\":518:549   */\n      tag_422\n        /* \"#utility.yul\":543:548   */\n      dup2\n        /* \"#utility.yul\":518:549   */\n      tag_412\n      jump\t// in\n    tag_422:\n        /* \"#utility.yul\":568:573   */\n      swap4\n        /* \"#utility.yul\":332:579   */\n      swap3\n      pop\n      pop\n      pop\n      jump\t// out\n        /* \"#utility.yul\":792:919   */\n    tag_413:\n        /* \"#utility.yul\":853:863   */\n      0x4e487b71\n        /* \"#utility.yul\":848:851   */\n      0xe0\n        /* \"#utility.yul\":844:864   */\n      shl\n        /* \"#utility.yul\":841:842   */\n      0x00\n        /* \"#utility.yul\":834:865   */\n      mstore\n        /* \"#utility.yul\":884:888   */\n      0x41\n        /* \"#utility.yul\":881:882   */\n      0x04\n        /* \"#utility.yul\":874:889   */\n      mstore\n        /* \"#utility.yul\":908:912   */\n      0x24\n        /* \"#utility.yul\":905:906   */\n      0x00\n        /* \"#utility.yul\":898:913   */\n      revert\n        /* \"#utility.yul\":924:1642   */\n    tag_414:\n        /* \"#utility.yul\":966:971   */\n      0x00\n        /* \"#utility.yul\":1019:1022   */\n      dup3\n        /* \"#utility.yul\":1012:1016   */\n      0x1f\n        /* \"#utility.yul\":1004:1010   */\n      dup4\n        /* \"#utility.yul\":1000:1017   */\n      add\n        /* \"#utility.yul\":996:1023   */\n      slt\n        /* \"#utility.yul\":986:1041   */\n      tag_426\n      jumpi\n        /* \"#utility.yul\":1037:1038   */\n      0x00\n        /* \"#utility.yul\":1034:1035   */\n      dup1\n        /* \"#utility.yul\":1027:1039   */\n      revert\n        /* \"#utility.yul\":986:1041   */\n    tag_426:\n        /* \"#utility.yul\":1073:1079   */\n      dup2\n        /* \"#utility.yul\":1060:1080   */\n      calldataload\n        /* \"#utility.yul\":1099:1117   */\n      0xffffffffffffffff\n        /* \"#utility.yul\":1136:1138   */\n      dup1\n        /* \"#utility.yul\":1132:1134   */\n      dup3\n        /* \"#utility.yul\":1129:1139   */\n      gt\n        /* \"#utility.yul\":1126:1162   */\n      iszero\n      tag_428\n      jumpi\n        /* \"#utility.yul\":1142:1160   */\n      tag_428\n      tag_413\n      jump\t// in\n    tag_428:\n        /* \"#utility.yul\":1217:1219   */\n      0x40\n        /* \"#utility.yul\":1211:1220   */\n      mload\n        /* \"#utility.yul\":1185:1187   */\n      0x1f\n        /* \"#utility.yul\":1271:1284   */\n      dup4\n      add\n      not(0x1f)\n        /* \"#utility.yul\":1267:1289   */\n      swap1\n      dup2\n      and\n        /* \"#utility.yul\":1291:1293   */\n      0x3f\n        /* \"#utility.yul\":1263:1294   */\n      add\n        /* \"#utility.yul\":1259:1299   */\n      and\n        /* \"#utility.yul\":1247:1300   */\n      dup2\n      add\n      swap1\n        /* \"#utility.yul\":1315:1333   */\n      dup3\n      dup3\n      gt\n        /* \"#utility.yul\":1335:1357   */\n      dup2\n      dup4\n      lt\n        /* \"#utility.yul\":1312:1358   */\n      or\n        /* \"#utility.yul\":1309:1381   */\n      iszero\n      tag_430\n      jumpi\n        /* \"#utility.yul\":1361:1379   */\n      tag_430\n      tag_413\n      jump\t// in\n    tag_430:\n        /* \"#utility.yul\":1401:1411   */\n      dup2\n        /* \"#utility.yul\":1397:1399   */\n      0x40\n        /* \"#utility.yul\":1390:1412   */\n      mstore\n        /* \"#utility.yul\":1436:1438   */\n      dup4\n        /* \"#utility.yul\":1428:1434   */\n      dup2\n        /* \"#utility.yul\":1421:1439   */\n      mstore\n        /* \"#utility.yul\":1482:1485   */\n      dup7\n        /* \"#utility.yul\":1475:1479   */\n      0x20\n        /* \"#utility.yul\":1470:1472   */\n      dup6\n        /* \"#utility.yul\":1462:1468   */\n      dup9\n        /* \"#utility.yul\":1458:1473   */\n      add\n        /* \"#utility.yul\":1454:1480   */\n      add\n        /* \"#utility.yul\":1451:1486   */\n      gt\n        /* \"#utility.yul\":1448:1503   */\n      iszero\n      tag_431\n      jumpi\n        /* \"#utility.yul\":1499:1500   */\n      0x00\n        /* \"#utility.yul\":1496:1497   */\n      dup1\n        /* \"#utility.yul\":1489:1501   */\n      revert\n        /* \"#utility.yul\":1448:1503   */\n    tag_431:\n        /* \"#utility.yul\":1563:1565   */\n      dup4\n        /* \"#utility.yul\":1556:1560   */\n      0x20\n        /* \"#utility.yul\":1548:1554   */\n      dup8\n        /* \"#utility.yul\":1544:1561   */\n      add\n        /* \"#utility.yul\":1537:1541   */\n      0x20\n        /* \"#utility.yul\":1529:1535   */\n      dup4\n        /* \"#utility.yul\":1525:1542   */\n      add\n        /* \"#utility.yul\":1512:1566   */\n      calldatacopy\n        /* \"#utility.yul\":1610:1611   */\n      0x00\n        /* \"#utility.yul\":1603:1607   */\n      0x20\n        /* \"#utility.yul\":1598:1600   */\n      dup6\n        /* \"#utility.yul\":1590:1596   */\n      dup4\n        /* \"#utility.yul\":1586:1601   */\n      add\n        /* \"#utility.yul\":1582:1608   */\n      add\n        /* \"#utility.yul\":1575:1612   */\n      mstore\n        /* \"#utility.yul\":1630:1636   */\n      dup1\n        /* \"#utility.yul\":1621:1636   */\n      swap5\n      pop\n      pop\n      pop\n      pop\n      pop\n        /* \"#utility.yul\":924:1642   */\n      swap3\n      swap2\n      pop\n      pop\n      jump\t// out\n        /* \"#utility.yul\":1647:2243   */\n    tag_67:\n        /* \"#utility.yul\":1733:1739   */\n      0x00\n        /* \"#utility.yul\":1741:1747   */\n      dup1\n        /* \"#utility.yul\":1749:1755   */\n      0x00\n        /* \"#utility.yul\":1802:1804   */\n      0x60\n        /* \"#utility.yul\":1790:1799   */\n      dup5\n        /* \"#utility.yul\":1781:1788   */\n      dup7\n        /* \"#utility.yul\":1777:1800   */\n      sub\n        /* \"#utility.yul\":1773:1805   */\n      slt\n        /* \"#utility.yul\":1770:1822   */\n      iszero\n      tag_433\n      jumpi\n        /* \"#utility.yul\":1818:1819   */\n      0x00\n        /* \"#utility.yul\":1815:1816   */\n      dup1\n        /* \"#utility.yul\":1808:1820   */\n      revert\n        /* \"#utility.yul\":1770:1822   */\n    tag_433:\n        /* \"#utility.yul\":1857:1866   */\n      dup4\n        /* \"#utility.yul\":1844:1867   */\n      calldataload\n        /* \"#utility.yul\":1876:1907   */\n      tag_434\n        /* \"#utility.yul\":1901:1906   */\n      dup2\n        /* \"#utility.yul\":1876:1907   */\n      tag_412\n      jump\t// in\n    tag_434:\n        /* \"#utility.yul\":1926:1931   */\n      swap3\n      pop\n        /* \"#utility.yul\":1983:1985   */\n      0x20\n        /* \"#utility.yul\":1968:1986   */\n      dup5\n      add\n        /* \"#utility.yul\":1955:1987   */\n      calldataload\n        /* \"#utility.yul\":1996:2029   */\n      tag_435\n        /* \"#utility.yul\":1955:1987   */\n      dup2\n        /* \"#utility.yul\":1996:2029   */\n      tag_412\n      jump\t// in\n    tag_435:\n        /* \"#utility.yul\":2048:2055   */\n      swap2\n      pop\n        /* \"#utility.yul\":2106:2108   */\n      0x40\n        /* \"#utility.yul\":2091:2109   */\n      dup5\n      add\n        /* \"#utility.yul\":2078:2110   */\n      calldataload\n        /* \"#utility.yul\":2133:2151   */\n      0xffffffffffffffff\n        /* \"#utility.yul\":2122:2152   */\n      dup2\n      gt\n        /* \"#utility.yul\":2119:2169   */\n      iszero\n      tag_436\n      jumpi\n        /* \"#utility.yul\":2165:2166   */\n      0x00\n        /* \"#utility.yul\":2162:2163   */\n      dup1\n        /* \"#utility.yul\":2155:2167   */\n      revert\n        /* \"#utility.yul\":2119:2169   */\n    tag_436:\n        /* \"#utility.yul\":2188:2237   */\n      tag_437\n        /* \"#utility.yul\":2229:2236   */\n      dup7\n        /* \"#utility.yul\":2220:2226   */\n      dup3\n        /* \"#utility.yul\":2209:2218   */\n      dup8\n        /* \"#utility.yul\":2205:2227   */\n      add\n        /* \"#utility.yul\":2188:2237   */\n      tag_414\n      jump\t// in\n    tag_437:\n        /* \"#utility.yul\":2178:2237   */\n      swap2\n      pop\n      pop\n        /* \"#utility.yul\":1647:2243   */\n      swap3\n      pop\n      swap3\n      pop\n      swap3\n      jump\t// out\n        /* \"#utility.yul\":2622:2802   */\n    tag_90:\n        /* \"#utility.yul\":2681:2687   */\n      0x00\n        /* \"#utility.yul\":2734:2736   */\n      0x20\n        /* \"#utility.yul\":2722:2731   */\n      dup3\n        /* \"#utility.yul\":2713:2720   */\n      dup5\n        /* \"#utility.yul\":2709:2732   */\n      sub\n        /* \"#utility.yul\":2705:2737   */\n      slt\n        /* \"#utility.yul\":2702:2754   */\n      iszero\n      tag_441\n      jumpi\n        /* \"#utility.yul\":2750:2751   */\n      0x00\n        /* \"#utility.yul\":2747:2748   */\n      dup1\n        /* \"#utility.yul\":2740:2752   */\n      revert\n        /* \"#utility.yul\":2702:2754   */\n    tag_441:\n      pop\n        /* \"#utility.yul\":2773:2796   */\n      calldataload\n      swap2\n        /* \"#utility.yul\":2622:2802   */\n      swap1\n      pop\n      jump\t// out\n        /* \"#utility.yul\":2807:3195   */\n    tag_95:\n        /* \"#utility.yul\":2875:2881   */\n      0x00\n        /* \"#utility.yul\":2883:2889   */\n      dup1\n        /* \"#utility.yul\":2936:2938   */\n      0x40\n        /* \"#utility.yul\":2924:2933   */\n      dup4\n        /* \"#utility.yul\":2915:2922   */\n      dup6\n        /* \"#utility.yul\":2911:2934   */\n      sub\n        /* \"#utility.yul\":2907:2939   */\n      slt\n        /* \"#utility.yul\":2904:2956   */\n      iszero\n      tag_443\n      jumpi\n        /* \"#utility.yul\":2952:2953   */\n      0x00\n        /* \"#utility.yul\":2949:2950   */\n      dup1\n        /* \"#utility.yul\":2942:2954   */\n      revert\n        /* \"#utility.yul\":2904:2956   */\n    tag_443:\n        /* \"#utility.yul\":2991:3000   */\n      dup3\n        /* \"#utility.yul\":2978:3001   */\n      calldataload\n        /* \"#utility.yul\":3010:3041   */\n      tag_444\n        /* \"#utility.yul\":3035:3040   */\n      dup2\n        /* \"#utility.yul\":3010:3041   */\n      tag_412\n      jump\t// in\n    tag_444:\n        /* \"#utility.yul\":3060:3065   */\n      swap2\n      pop\n        /* \"#utility.yul\":3117:3119   */\n      0x20\n        /* \"#utility.yul\":3102:3120   */\n      dup4\n      add\n        /* \"#utility.yul\":3089:3121   */\n      calldataload\n        /* \"#utility.yul\":3130:3163   */\n      tag_445\n        /* \"#utility.yul\":3089:3121   */\n      dup2\n        /* \"#utility.yul\":3130:3163   */\n      tag_412\n      jump\t// in\n    tag_445:\n        /* \"#utility.yul\":3182:3189   */\n      dup1\n        /* \"#utility.yul\":3172:3189   */\n      swap2\n      pop\n      pop\n        /* \"#utility.yul\":2807:3195   */\n      swap3\n      pop\n      swap3\n      swap1\n      pop\n      jump\t// out\n        /* \"#utility.yul\":3200:3588   */\n    tag_108:\n        /* \"#utility.yul\":3277:3283   */\n      0x00\n        /* \"#utility.yul\":3285:3291   */\n      dup1\n        /* \"#utility.yul\":3338:3340   */\n      0x40\n        /* \"#utility.yul\":3326:3335   */\n      dup4\n        /* \"#utility.yul\":3317:3324   */\n      dup6\n        /* \"#utility.yul\":3313:3336   */\n      sub\n        /* \"#utility.yul\":3309:3341   */\n      slt\n        /* \"#utility.yul\":3306:3358   */\n      iszero\n      tag_447\n      jumpi\n        /* \"#utility.yul\":3354:3355   */\n      0x00\n        /* \"#utility.yul\":3351:3352   */\n      dup1\n        /* \"#utility.yul\":3344:3356   */\n      revert\n        /* \"#utility.yul\":3306:3358   */\n    tag_447:\n        /* \"#utility.yul\":3390:3399   */\n      dup3\n        /* \"#utility.yul\":3377:3400   */\n      calldataload\n        /* \"#utility.yul\":3367:3400   */\n      swap2\n      pop\n        /* \"#utility.yul\":3451:3453   */\n      0x20\n        /* \"#utility.yul\":3440:3449   */\n      dup4\n        /* \"#utility.yul\":3436:3454   */\n      add\n        /* \"#utility.yul\":3423:3455   */\n      calldataload\n        /* \"#utility.yul\":3478:3496   */\n      0xffffffffffffffff\n        /* \"#utility.yul\":3470:3476   */\n      dup2\n        /* \"#utility.yul\":3467:3497   */\n      gt\n        /* \"#utility.yul\":3464:3514   */\n      iszero\n      tag_448\n      jumpi\n        /* \"#utility.yul\":3510:3511   */\n      0x00\n        /* \"#utility.yul\":3507:3508   */\n      dup1\n        /* \"#utility.yul\":3500:3512   */\n      revert\n        /* \"#utility.yul\":3464:3514   */\n    tag_448:\n        /* \"#utility.yul\":3533:3582   */\n      tag_449\n        /* \"#utility.yul\":3574:3581   */\n      dup6\n        /* \"#utility.yul\":3565:3571   */\n      dup3\n        /* \"#utility.yul\":3554:3563   */\n      dup7\n        /* \"#utility.yul\":3550:3572   */\n      add\n        /* \"#utility.yul\":3533:3582   */\n      tag_414\n      jump\t// in\n    tag_449:\n        /* \"#utility.yul\":3523:3582   */\n      swap2\n      pop\n      pop\n        /* \"#utility.yul\":3200:3588   */\n      swap3\n      pop\n      swap3\n      swap1\n      pop\n      jump\t// out\n        /* \"#utility.yul\":3861:4181   */\n    tag_123:\n        /* \"#utility.yul\":3929:3935   */\n      0x00\n        /* \"#utility.yul\":3982:3984   */\n      0x20\n        /* \"#utility.yul\":3970:3979   */\n      dup3\n        /* \"#utility.yul\":3961:3968   */\n      dup5\n        /* \"#utility.yul\":3957:3980   */\n      sub\n        /* \"#utility.yul\":3953:3985   */\n      slt\n        /* \"#utility.yul\":3950:4002   */\n      iszero\n      tag_454\n      jumpi\n        /* \"#utility.yul\":3998:3999   */\n      0x00\n        /* \"#utility.yul\":3995:3996   */\n      dup1\n        /* \"#utility.yul\":3988:4000   */\n      revert\n        /* \"#utility.yul\":3950:4002   */\n    tag_454:\n        /* \"#utility.yul\":4038:4047   */\n      dup2\n        /* \"#utility.yul\":4025:4048   */\n      calldataload\n        /* \"#utility.yul\":4071:4089   */\n      0xffffffffffffffff\n        /* \"#utility.yul\":4063:4069   */\n      dup2\n        /* \"#utility.yul\":4060:4090   */\n      gt\n        /* \"#utility.yul\":4057:4107   */\n      iszero\n      tag_455\n      jumpi\n        /* \"#utility.yul\":4103:4104   */\n      0x00\n        /* \"#utility.yul\":4100:4101   */\n      dup1\n        /* \"#utility.yul\":4093:4105   */\n      revert\n        /* \"#utility.yul\":4057:4107   */\n    tag_455:\n        /* \"#utility.yul\":4126:4175   */\n      tag_456\n        /* \"#utility.yul\":4167:4174   */\n      dup5\n        /* \"#utility.yul\":4158:4164   */\n      dup3\n        /* \"#utility.yul\":4147:4156   */\n      dup6\n        /* \"#utility.yul\":4143:4165   */\n      add\n        /* \"#utility.yul\":4126:4175   */\n      tag_414\n      jump\t// in\n    tag_456:\n        /* \"#utility.yul\":4116:4175   */\n      swap5\n        /* \"#utility.yul\":3861:4181   */\n      swap4\n      pop\n      pop\n      pop\n      pop\n      jump\t// out\n        /* \"#utility.yul\":4517:4832   */\n    tag_130:\n        /* \"#utility.yul\":4585:4591   */\n      0x00\n        /* \"#utility.yul\":4593:4599   */\n      dup1\n        /* \"#utility.yul\":4646:4648   */\n      0x40\n        /* \"#utility.yul\":4634:4643   */\n      dup4\n        /* \"#utility.yul\":4625:4632   */\n      dup6\n        /* \"#utility.yul\":4621:4644   */\n      sub\n        /* \"#utility.yul\":4617:4649   */\n      slt\n        /* \"#utility.yul\":4614:4666   */\n      iszero\n      tag_459\n      jumpi\n        /* \"#utility.yul\":4662:4663   */\n      0x00\n        /* \"#utility.yul\":4659:4660   */\n      dup1\n        /* \"#utility.yul\":4652:4664   */\n      revert\n        /* \"#utility.yul\":4614:4666   */\n    tag_459:\n        /* \"#utility.yul\":4701:4710   */\n      dup3\n        /* \"#utility.yul\":4688:4711   */\n      calldataload\n        /* \"#utility.yul\":4720:4751   */\n      tag_460\n        /* \"#utility.yul\":4745:4750   */\n      dup2\n        /* \"#utility.yul\":4720:4751   */\n      tag_412\n      jump\t// in\n    tag_460:\n        /* \"#utility.yul\":4770:4775   */\n      swap5\n        /* \"#utility.yul\":4822:4824   */\n      0x20\n        /* \"#utility.yul\":4807:4825   */\n      swap4\n      swap1\n      swap4\n      add\n        /* \"#utility.yul\":4794:4826   */\n      calldataload\n      swap4\n      pop\n      pop\n      pop\n        /* \"#utility.yul\":4517:4832   */\n      jump\t// out\n        /* \"#utility.yul\":4837:5293   */\n    tag_136:\n        /* \"#utility.yul\":4914:4920   */\n      0x00\n        /* \"#utility.yul\":4922:4928   */\n      dup1\n        /* \"#utility.yul\":4930:4936   */\n      0x00\n        /* \"#utility.yul\":4983:4985   */\n      0x60\n        /* \"#utility.yul\":4971:4980   */\n      dup5\n        /* \"#utility.yul\":4962:4969   */\n      dup7\n        /* \"#utility.yul\":4958:4981   */\n      sub\n        /* \"#utility.yul\":4954:4986   */\n      slt\n        /* \"#utility.yul\":4951:5003   */\n      iszero\n      tag_462\n      jumpi\n        /* \"#utility.yul\":4999:5000   */\n      0x00\n        /* \"#utility.yul\":4996:4997   */\n      dup1\n        /* \"#utility.yul\":4989:5001   */\n      revert\n        /* \"#utility.yul\":4951:5003   */\n    tag_462:\n        /* \"#utility.yul\":5038:5047   */\n      dup4\n        /* \"#utility.yul\":5025:5048   */\n      calldataload\n        /* \"#utility.yul\":5057:5088   */\n      tag_463\n        /* \"#utility.yul\":5082:5087   */\n      dup2\n        /* \"#utility.yul\":5057:5088   */\n      tag_412\n      jump\t// in\n    tag_463:\n        /* \"#utility.yul\":5107:5112   */\n      swap3\n      pop\n        /* \"#utility.yul\":5164:5166   */\n      0x20\n        /* \"#utility.yul\":5149:5167   */\n      dup5\n      add\n        /* \"#utility.yul\":5136:5168   */\n      calldataload\n        /* \"#utility.yul\":5177:5210   */\n      tag_464\n        /* \"#utility.yul\":5136:5168   */\n      dup2\n        /* \"#utility.yul\":5177:5210   */\n      tag_412\n      jump\t// in\n    tag_464:\n        /* \"#utility.yul\":4837:5293   */\n      swap3\n      swap6\n        /* \"#utility.yul\":5229:5236   */\n      swap3\n      swap5\n      pop\n      pop\n      pop\n        /* \"#utility.yul\":5283:5285   */\n      0x40\n        /* \"#utility.yul\":5268:5286   */\n      swap2\n      swap1\n      swap2\n      add\n        /* \"#utility.yul\":5255:5287   */\n      calldataload\n      swap1\n        /* \"#utility.yul\":4837:5293   */\n      jump\t// out\n        /* \"#utility.yul\":5298:5889   */\n    tag_144:\n        /* \"#utility.yul\":5368:5374   */\n      0x00\n        /* \"#utility.yul\":5376:5382   */\n      dup1\n        /* \"#utility.yul\":5429:5431   */\n      0x20\n        /* \"#utility.yul\":5417:5426   */\n      dup4\n        /* \"#utility.yul\":5408:5415   */\n      dup6\n        /* \"#utility.yul\":5404:5427   */\n      sub\n        /* \"#utility.yul\":5400:5432   */\n      slt\n        /* \"#utility.yul\":5397:5449   */\n      iszero\n      tag_466\n      jumpi\n        /* \"#utility.yul\":5445:5446   */\n      0x00\n        /* \"#utility.yul\":5442:5443   */\n      dup1\n        /* \"#utility.yul\":5435:5447   */\n      revert\n        /* \"#utility.yul\":5397:5449   */\n    tag_466:\n        /* \"#utility.yul\":5485:5494   */\n      dup3\n        /* \"#utility.yul\":5472:5495   */\n      calldataload\n        /* \"#utility.yul\":5514:5532   */\n      0xffffffffffffffff\n        /* \"#utility.yul\":5555:5557   */\n      dup1\n        /* \"#utility.yul\":5547:5553   */\n      dup3\n        /* \"#utility.yul\":5544:5558   */\n      gt\n        /* \"#utility.yul\":5541:5575   */\n      iszero\n      tag_467\n      jumpi\n        /* \"#utility.yul\":5571:5572   */\n      0x00\n        /* \"#utility.yul\":5568:5569   */\n      dup1\n        /* \"#utility.yul\":5561:5573   */\n      revert\n        /* \"#utility.yul\":5541:5575   */\n    tag_467:\n        /* \"#utility.yul\":5609:5615   */\n      dup2\n        /* \"#utility.yul\":5598:5607   */\n      dup6\n        /* \"#utility.yul\":5594:5616   */\n      add\n        /* \"#utility.yul\":5584:5616   */\n      swap2\n      pop\n        /* \"#utility.yul\":5654:5661   */\n      dup6\n        /* \"#utility.yul\":5647:5651   */\n      0x1f\n        /* \"#utility.yul\":5643:5645   */\n      dup4\n        /* \"#utility.yul\":5639:5652   */\n      add\n        /* \"#utility.yul\":5635:5662   */\n      slt\n        /* \"#utility.yul\":5625:5680   */\n      tag_468\n      jumpi\n        /* \"#utility.yul\":5676:5677   */\n      0x00\n        /* \"#utility.yul\":5673:5674   */\n      dup1\n        /* \"#utility.yul\":5666:5678   */\n      revert\n        /* \"#utility.yul\":5625:5680   */\n    tag_468:\n        /* \"#utility.yul\":5716:5718   */\n      dup2\n        /* \"#utility.yul\":5703:5719   */\n      calldataload\n        /* \"#utility.yul\":5742:5744   */\n      dup2\n        /* \"#utility.yul\":5734:5740   */\n      dup2\n        /* \"#utility.yul\":5731:5745   */\n      gt\n        /* \"#utility.yul\":5728:5762   */\n      iszero\n      tag_469\n      jumpi\n        /* \"#utility.yul\":5758:5759   */\n      0x00\n        /* \"#utility.yul\":5755:5756   */\n      dup1\n        /* \"#utility.yul\":5748:5760   */\n      revert\n        /* \"#utility.yul\":5728:5762   */\n    tag_469:\n        /* \"#utility.yul\":5803:5810   */\n      dup7\n        /* \"#utility.yul\":5798:5800   */\n      0x20\n        /* \"#utility.yul\":5789:5795   */\n      dup3\n        /* \"#utility.yul\":5785:5787   */\n      dup6\n        /* \"#utility.yul\":5781:5796   */\n      add\n        /* \"#utility.yul\":5777:5801   */\n      add\n        /* \"#utility.yul\":5774:5811   */\n      gt\n        /* \"#utility.yul\":5771:5828   */\n      iszero\n      tag_470\n      jumpi\n        /* \"#utility.yul\":5824:5825   */\n      0x00\n        /* \"#utility.yul\":5821:5822   */\n      dup1\n        /* \"#utility.yul\":5814:5826   */\n      revert\n        /* \"#utility.yul\":5771:5828   */\n    tag_470:\n        /* \"#utility.yul\":5855:5857   */\n      0x20\n        /* \"#utility.yul\":5847:5858   */\n      swap3\n      swap1\n      swap3\n      add\n      swap7\n        /* \"#utility.yul\":5877:5883   */\n      swap2\n      swap6\n      pop\n        /* \"#utility.yul\":5298:5889   */\n      swap1\n      swap4\n      pop\n      pop\n      pop\n      pop\n      jump\t// out\n        /* \"#utility.yul\":6118:6875   */\n    tag_169:\n        /* \"#utility.yul\":6222:6228   */\n      0x00\n        /* \"#utility.yul\":6230:6236   */\n      dup1\n        /* \"#utility.yul\":6238:6244   */\n      0x00\n        /* \"#utility.yul\":6246:6252   */\n      dup1\n        /* \"#utility.yul\":6299:6301   */\n      0x60\n        /* \"#utility.yul\":6287:6296   */\n      dup6\n        /* \"#utility.yul\":6278:6285   */\n      dup8\n        /* \"#utility.yul\":6274:6297   */\n      sub\n        /* \"#utility.yul\":6270:6302   */\n      slt\n        /* \"#utility.yul\":6267:6319   */\n      iszero\n      tag_473\n      jumpi\n        /* \"#utility.yul\":6315:6316   */\n      0x00\n        /* \"#utility.yul\":6312:6313   */\n      dup1\n        /* \"#utility.yul\":6305:6317   */\n      revert\n        /* \"#utility.yul\":6267:6319   */\n    tag_473:\n        /* \"#utility.yul\":6355:6364   */\n      dup5\n        /* \"#utility.yul\":6342:6365   */\n      calldataload\n        /* \"#utility.yul\":6384:6402   */\n      0xffffffffffffffff\n        /* \"#utility.yul\":6425:6427   */\n      dup1\n        /* \"#utility.yul\":6417:6423   */\n      dup3\n        /* \"#utility.yul\":6414:6428   */\n      gt\n        /* \"#utility.yul\":6411:6445   */\n      iszero\n      tag_474\n      jumpi\n        /* \"#utility.yul\":6441:6442   */\n      0x00\n        /* \"#utility.yul\":6438:6439   */\n      dup1\n        /* \"#utility.yul\":6431:6443   */\n      revert\n        /* \"#utility.yul\":6411:6445   */\n    tag_474:\n        /* \"#utility.yul\":6479:6485   */\n      dup2\n        /* \"#utility.yul\":6468:6477   */\n      dup8\n        /* \"#utility.yul\":6464:6486   */\n      add\n        /* \"#utility.yul\":6454:6486   */\n      swap2\n      pop\n        /* \"#utility.yul\":6524:6531   */\n      dup8\n        /* \"#utility.yul\":6517:6521   */\n      0x1f\n        /* \"#utility.yul\":6513:6515   */\n      dup4\n        /* \"#utility.yul\":6509:6522   */\n      add\n        /* \"#utility.yul\":6505:6532   */\n      slt\n        /* \"#utility.yul\":6495:6550   */\n      tag_475\n      jumpi\n        /* \"#utility.yul\":6546:6547   */\n      0x00\n        /* \"#utility.yul\":6543:6544   */\n      dup1\n        /* \"#utility.yul\":6536:6548   */\n      revert\n        /* \"#utility.yul\":6495:6550   */\n    tag_475:\n        /* \"#utility.yul\":6586:6588   */\n      dup2\n        /* \"#utility.yul\":6573:6589   */\n      calldataload\n        /* \"#utility.yul\":6612:6614   */\n      dup2\n        /* \"#utility.yul\":6604:6610   */\n      dup2\n        /* \"#utility.yul\":6601:6615   */\n      gt\n        /* \"#utility.yul\":6598:6632   */\n      iszero\n      tag_476\n      jumpi\n        /* \"#utility.yul\":6628:6629   */\n      0x00\n        /* \"#utility.yul\":6625:6626   */\n      dup1\n        /* \"#utility.yul\":6618:6630   */\n      revert\n        /* \"#utility.yul\":6598:6632   */\n    tag_476:\n        /* \"#utility.yul\":6683:6690   */\n      dup9\n        /* \"#utility.yul\":6676:6680   */\n      0x20\n        /* \"#utility.yul\":6666:6672   */\n      dup3\n        /* \"#utility.yul\":6663:6664   */\n      0x05\n        /* \"#utility.yul\":6659:6673   */\n      shl\n        /* \"#utility.yul\":6655:6657   */\n      dup6\n        /* \"#utility.yul\":6651:6674   */\n      add\n        /* \"#utility.yul\":6647:6681   */\n      add\n        /* \"#utility.yul\":6644:6691   */\n      gt\n        /* \"#utility.yul\":6641:6708   */\n      iszero\n      tag_477\n      jumpi\n        /* \"#utility.yul\":6704:6705   */\n      0x00\n        /* \"#utility.yul\":6701:6702   */\n      dup1\n        /* \"#utility.yul\":6694:6706   */\n      revert\n        /* \"#utility.yul\":6641:6708   */\n    tag_477:\n        /* \"#utility.yul\":6735:6739   */\n      0x20\n        /* \"#utility.yul\":6727:6740   */\n      swap3\n      dup4\n      add\n      swap10\n        /* \"#utility.yul\":6759:6765   */\n      swap1\n      swap9\n      pop\n        /* \"#utility.yul\":6797:6817   */\n      swap2\n      dup8\n      add\n        /* \"#utility.yul\":6784:6818   */\n      calldataload\n      swap7\n        /* \"#utility.yul\":6865:6867   */\n      0x40\n        /* \"#utility.yul\":6850:6868   */\n      add\n        /* \"#utility.yul\":6837:6869   */\n      calldataload\n      swap6\n      pop\n        /* \"#utility.yul\":6118:6875   */\n      swap1\n      swap4\n      pop\n      pop\n      pop\n      pop\n      jump\t// out\n        /* \"#utility.yul\":7218:7402   */\n    tag_196:\n        /* \"#utility.yul\":7288:7294   */\n      0x00\n        /* \"#utility.yul\":7341:7343   */\n      0x20\n        /* \"#utility.yul\":7329:7338   */\n      dup3\n        /* \"#utility.yul\":7320:7327   */\n      dup5\n        /* \"#utility.yul\":7316:7339   */\n      sub\n        /* \"#utility.yul\":7312:7344   */\n      slt\n        /* \"#utility.yul\":7309:7361   */\n      iszero\n      tag_480\n      jumpi\n        /* \"#utility.yul\":7357:7358   */\n      0x00\n        /* \"#utility.yul\":7354:7355   */\n      dup1\n        /* \"#utility.yul\":7347:7359   */\n      revert\n        /* \"#utility.yul\":7309:7361   */\n    tag_480:\n      pop\n        /* \"#utility.yul\":7380:7396   */\n      mload\n      swap2\n        /* \"#utility.yul\":7218:7402   */\n      swap1\n      pop\n      jump\t// out\n        /* \"#utility.yul\":7407:7763   */\n    tag_203:\n        /* \"#utility.yul\":7609:7611   */\n      0x20\n        /* \"#utility.yul\":7591:7612   */\n      dup1\n      dup3\n      mstore\n        /* \"#utility.yul\":7628:7646   */\n      dup2\n      dup2\n      add\n        /* \"#utility.yul\":7621:7651   */\n      mstore\n        /* \"#utility.yul\":7687:7721   */\n      0x4f776e61626c653a2063616c6c6572206973206e6f7420746865206f776e6572\n        /* \"#utility.yul\":7682:7684   */\n      0x40\n        /* \"#utility.yul\":7667:7685   */\n      dup3\n      add\n        /* \"#utility.yul\":7660:7722   */\n      mstore\n        /* \"#utility.yul\":7754:7756   */\n      0x60\n        /* \"#utility.yul\":7739:7757   */\n      add\n      swap1\n        /* \"#utility.yul\":7407:7763   */\n      jump\t// out\n        /* \"#utility.yul\":9518:9795   */\n    tag_257:\n        /* \"#utility.yul\":9585:9591   */\n      0x00\n        /* \"#utility.yul\":9638:9640   */\n      0x20\n        /* \"#utility.yul\":9626:9635   */\n      dup3\n        /* \"#utility.yul\":9617:9624   */\n      dup5\n        /* \"#utility.yul\":9613:9636   */\n      sub\n        /* \"#utility.yul\":9609:9641   */\n      slt\n        /* \"#utility.yul\":9606:9658   */\n      iszero\n      tag_489\n      jumpi\n        /* \"#utility.yul\":9654:9655   */\n      0x00\n        /* \"#utility.yul\":9651:9652   */\n      dup1\n        /* \"#utility.yul\":9644:9656   */\n      revert\n        /* \"#utility.yul\":9606:9658   */\n    tag_489:\n        /* \"#utility.yul\":9686:9695   */\n      dup2\n        /* \"#utility.yul\":9680:9696   */\n      mload\n        /* \"#utility.yul\":9739:9744   */\n      dup1\n        /* \"#utility.yul\":9732:9745   */\n      iszero\n        /* \"#utility.yul\":9725:9746   */\n      iszero\n        /* \"#utility.yul\":9718:9723   */\n      dup2\n        /* \"#utility.yul\":9715:9747   */\n      eq\n        /* \"#utility.yul\":9705:9765   */\n      tag_422\n      jumpi\n        /* \"#utility.yul\":9761:9762   */\n      0x00\n        /* \"#utility.yul\":9758:9759   */\n      dup1\n        /* \"#utility.yul\":9751:9763   */\n      revert\n        /* \"#utility.yul\":11008:11259   */\n    tag_289:\n        /* \"#utility.yul\":11078:11084   */\n      0x00\n        /* \"#utility.yul\":11131:11133   */\n      0x20\n        /* \"#utility.yul\":11119:11128   */\n      dup3\n        /* \"#utility.yul\":11110:11117   */\n      dup5\n        /* \"#utility.yul\":11106:11129   */\n      sub\n        /* \"#utility.yul\":11102:11134   */\n      slt\n        /* \"#utility.yul\":11099:11151   */\n      iszero\n      tag_495\n      jumpi\n        /* \"#utility.yul\":11147:11148   */\n      0x00\n        /* \"#utility.yul\":11144:11145   */\n      dup1\n        /* \"#utility.yul\":11137:11149   */\n      revert\n        /* \"#utility.yul\":11099:11151   */\n    tag_495:\n        /* \"#utility.yul\":11179:11188   */\n      dup2\n        /* \"#utility.yul\":11173:11189   */\n      mload\n        /* \"#utility.yul\":11198:11229   */\n      tag_422\n        /* \"#utility.yul\":11223:11228   */\n      dup2\n        /* \"#utility.yul\":11198:11229   */\n      tag_412\n      jump\t// in\n        /* \"#utility.yul\":15302:15429   */\n    tag_415:\n        /* \"#utility.yul\":15363:15373   */\n      0x4e487b71\n        /* \"#utility.yul\":15358:15361   */\n      0xe0\n        /* \"#utility.yul\":15354:15374   */\n      shl\n        /* \"#utility.yul\":15351:15352   */\n      0x00\n        /* \"#utility.yul\":15344:15375   */\n      mstore\n        /* \"#utility.yul\":15394:15398   */\n      0x11\n        /* \"#utility.yul\":15391:15392   */\n      0x04\n        /* \"#utility.yul\":15384:15399   */\n      mstore\n        /* \"#utility.yul\":15418:15422   */\n      0x24\n        /* \"#utility.yul\":15415:15416   */\n      0x00\n        /* \"#utility.yul\":15408:15423   */\n      revert\n        /* \"#utility.yul\":15434:15562   */\n    tag_354:\n        /* \"#utility.yul\":15474:15477   */\n      0x00\n        /* \"#utility.yul\":15505:15506   */\n      dup3\n        /* \"#utility.yul\":15501:15507   */\n      not\n        /* \"#utility.yul\":15498:15499   */\n      dup3\n        /* \"#utility.yul\":15495:15508   */\n      gt\n        /* \"#utility.yul\":15492:15531   */\n      iszero\n      tag_511\n      jumpi\n        /* \"#utility.yul\":15511:15529   */\n      tag_511\n      tag_415\n      jump\t// in\n    tag_511:\n      pop\n        /* \"#utility.yul\":15547:15556   */\n      add\n      swap1\n        /* \"#utility.yul\":15434:15562   */\n      jump\t// out\n        /* \"#utility.yul\":17414:17541   */\n    tag_403:\n        /* \"#utility.yul\":17475:17485   */\n      0x4e487b71\n        /* \"#utility.yul\":17470:17473   */\n      0xe0\n        /* \"#utility.yul\":17466:17486   */\n      shl\n        /* \"#utility.yul\":17463:17464   */\n      0x00\n        /* \"#utility.yul\":17456:17487   */\n      mstore\n        /* \"#utility.yul\":17506:17510   */\n      0x32\n        /* \"#utility.yul\":17503:17504   */\n      0x04\n        /* \"#utility.yul\":17496:17511   */\n      mstore\n        /* \"#utility.yul\":17530:17534   */\n      0x24\n        /* \"#utility.yul\":17527:17528   */\n      0x00\n        /* \"#utility.yul\":17520:17535   */\n      revert\n        /* \"#utility.yul\":17546:17681   */\n    tag_410:\n        /* \"#utility.yul\":17585:17588   */\n      0x00\n        /* \"#utility.yul\":17606:17623   */\n      0x01\n      dup3\n      add\n        /* \"#utility.yul\":17603:17646   */\n      tag_520\n      jumpi\n        /* \"#utility.yul\":17626:17644   */\n      tag_520\n      tag_415\n      jump\t// in\n    tag_520:\n      pop\n        /* \"#utility.yul\":17673:17674   */\n      0x01\n        /* \"#utility.yul\":17662:17675   */\n      add\n      swap1\n        /* \"#utility.yul\":17546:17681   */\n      jump\t// out\n\n    auxdata: 0xa26469706673582212203b3fd8472dea33c86f30d640f6977e15b9a3b814ea4ba61376385286fb57dbee64736f6c634300080f0033\n}\n",
				"bytecode": {
					"linkReferences": {},
					"object": "60806040526005805461ffff191690553480156200001c57600080fd5b5060405162002000380380620020008339810160408190526200003f91620002d7565b6200004a3362000078565b600180556200005983620000c8565b62000064816200017b565b6200006f826200020c565b5050506200031f565b600080546001600160a01b038381166001600160a01b0319831681178455604051919092169283917f8be0079c531659141344cd1fd0a4f28419497f9722a3daafe3b4186f6b6457e09190a35050565b6000546001600160a01b03163314620001175760405162461bcd60e51b8152602060048201819052602482015260008051602062001fe083398151915260448201526064015b60405180910390fd5b600280546001600160a01b038381166001600160a01b0319831681179093556040805191909216808252602082019390935283917fabdf056c85a221fcb31d0366c4475b6b2c613df2eeea951a9fcb3e1a8595d973910160405180910390a1505050565b6000546001600160a01b03163314620001c65760405162461bcd60e51b8152602060048201819052602482015260008051602062001fe083398151915260448201526064016200010e565b600480549082905560408051828152602081018490527f123d88ba82600dfc3f219f8885c691b0ff020caa535666874b3f5174973757fe91015b60405180910390a15050565b6000546001600160a01b03163314620002575760405162461bcd60e51b8152602060048201819052602482015260008051602062001fe083398151915260448201526064016200010e565b600580546001600160a01b038381166201000081810262010000600160b01b031985161790945560408051949093049091168084526020840191909152917feeb293e1f8f3a9db91ade748726387ed1352ca78f5430c5f06fe3d1e1ad50579910162000200565b6001600160a01b0381168114620002d457600080fd5b50565b600080600060608486031215620002ed57600080fd5b8351620002fa81620002be565b60208501519093506200030d81620002be565b80925050604084015190509250925092565b611cb1806200032f6000396000f3fe6080604052600436106101d85760003560e01c80639e6c885511610102578063e02023a111610095578063f6b48e5511610064578063f6b48e55146105a7578063fa540801146105ba578063ff05fe4a146105da578063ffdc6129146105fa57600080fd5b8063e02023a114610509578063ef5fe79f1461053d578063f2fde38b14610553578063f500cdfc1461057357600080fd5b8063bff863ec116100d1578063bff863ec146104a1578063c4e41b22146104c1578063de6892c8146104d6578063df4e5881146104e957600080fd5b80639e6c8855146103e6578063a4435dfd14610406578063a7bb580314610420578063b5abafa11461045e57600080fd5b806351cff8d91161017a5780638407ecc4116101495780638407ecc4146103695780638907f3fa146103895780638da5cb5b146103a857806397aba7f9146103c657600080fd5b806351cff8d9146102f25780636c19e78314610314578063715018a6146103345780637cb647591461034957600080fd5b806324c37a85116101b657806324c37a85146102635780632eb4a7ab1461029757806342920a46146102ad5780634c0f38c2146102dd57600080fd5b80630a25dea9146101dd5780631f5ac1b214610205578063238ac93314610225575b600080fd5b3480156101e957600080fd5b506101f2600081565b6040519081526020015b60405180910390f35b34801561021157600080fd5b506101f2610220366004611831565b610640565b34801561023157600080fd5b5060055461024b906201000090046001600160a01b031681565b6040516001600160a01b0390911681526020016101fc565b34801561026f57600080fd5b506101f27fb3c595e55271590809f54e2f4fc3a582754f45b104dd3c41666e2ad310493db381565b3480156102a357600080fd5b506101f260045481565b3480156102b957600080fd5b506102cd6102c83660046118f8565b61068a565b60405190151581526020016101fc565b3480156102e957600080fd5b506101f26106cd565b3480156102fe57600080fd5b5061031261030d366004611831565b610740565b005b34801561032057600080fd5b5061031261032f366004611831565b61086a565b34801561034057600080fd5b50610312610902565b34801561035557600080fd5b5061031261036436600461195a565b610938565b34801561037557600080fd5b50610312610384366004611973565b6109a0565b34801561039557600080fd5b506005546102cd90610100900460ff1681565b3480156103b457600080fd5b506000546001600160a01b031661024b565b3480156103d257600080fd5b5061024b6103e13660046119ac565b610b40565b3480156103f257600080fd5b50610312610401366004611831565b610bbf565b34801561041257600080fd5b506005546102cd9060ff1681565b34801561042c57600080fd5b5061044061043b3660046119f3565b610c45565b60408051938452602084019290925260ff16908201526060016101fc565b34801561046a57600080fd5b506101f2610479366004611a30565b6001600160a01b03919091166000908152600760209081526040808320938352929052205490565b3480156104ad57600080fd5b506103126104bc366004611a5c565b610cb9565b3480156104cd57600080fd5b506101f2610e69565b6103126104e4366004611a9d565b610eb3565b3480156104f557600080fd5b5060025461024b906001600160a01b031681565b34801561051557600080fd5b506101f27f5d8e12c39142ff96d79d04d15d1ba1269e4fe57bb9d26f43523628b34ba108ec81565b34801561054957600080fd5b506101f260035481565b34801561055f57600080fd5b5061031261056e366004611831565b6111bd565b34801561057f57600080fd5b506101f27f68e7d51fdb912cb107dda2e59b053d87fcca666dd0ef5339cd3474ccb5276bba81565b6103126105b5366004611b0f565b611258565b3480156105c657600080fd5b506101f26105d536600461195a565b61169f565b3480156105e657600080fd5b506103126105f536600461195a565b6116da565b34801561060657600080fd5b506102cd610615366004611a30565b6001600160a01b03919091166000908152600660209081526040808320938352929052205460ff1690565b6040516bffffffffffffffffffffffff19606083811b8216602084015230901b1660348201526000906048015b604051602081830303815290604052805190602001209050919050565b60008061069684610640565b905060006106a38261169f565b9050856001600160a01b03166106b98286610b40565b6001600160a01b0316149695505050505050565b6002546040805163d5abeb0160e01b815290516000926001600160a01b03169163d5abeb019160048083019260209291908290030181865afa158015610717573d6000803e3d6000fd5b505050506040513d601f19601f8201168201806040525081019061073b9190611b91565b905090565b6000546001600160a01b031633146107735760405162461bcd60e51b815260040161076a90611baa565b60405180910390fd5b47806107b85760405162461bcd60e51b8152602060048201526014602482015273496e73756666696369656e742042616c616e636560601b604482015260640161076a565b6000826001600160a01b03168260405160006040518083038185875af1925050503d8060008114610805576040519150601f19603f3d011682016040523d82523d6000602084013e61080a565b606091505b505090508061081857600080fd5b604080516001600160a01b03851681526020810184905242918101919091527ff279e6a1f5e320cca91135676d9cb6e44ca8a08c0b88342bcdb1144f6511b568906060015b60405180910390a1505050565b6000546001600160a01b031633146108945760405162461bcd60e51b815260040161076a90611baa565b600580546001600160a01b038381166201000081810262010000600160b01b031985161790945560408051949093049091168084526020840191909152917feeb293e1f8f3a9db91ade748726387ed1352ca78f5430c5f06fe3d1e1ad5057991015b60405180910390a15050565b6000546001600160a01b0316331461092c5760405162461bcd60e51b815260040161076a90611baa565b6109366000611742565b565b6000546001600160a01b031633146109625760405162461bcd60e51b815260040161076a90611baa565b600480549082905560408051828152602081018490527f123d88ba82600dfc3f219f8885c691b0ff020caa535666874b3f5174973757fe91016108f6565b6000546001600160a01b031633146109ca5760405162461bcd60e51b815260040161076a90611baa565b6040516370a0823160e01b81523060048201526000906001600160a01b038316906370a0823190602401602060405180830381865afa158015610a11573d6000803e3d6000fd5b505050506040513d601f19601f82011682018060405250810190610a359190611b91565b905060008111610a7e5760405162461bcd60e51b8152602060048201526014602482015273496e73756666696369656e742042616c616e636560601b604482015260640161076a565b60405163a9059cbb60e01b81526001600160a01b0384811660048301526024820183905283169063a9059cbb906044016020604051808303816000875af1158015610acd573d6000803e3d6000fd5b505050506040513d601f19601f82011682018060405250810190610af19190611bdf565b50604080516001600160a01b038086168252841660208201529081018290524260608201527fb818a975f91276df8ba59329becbc23c793df0d503c19ac296c3c372a1fa04619060800161085d565b600080600080610b4f85610c45565b6040805160008152602081018083528b905260ff8316918101919091526060810184905260808101839052929550909350915060019060a0016020604051602081039080840390855afa158015610baa573d6000803e3d6000fd5b5050604051601f190151979650505050505050565b6000546001600160a01b03163314610be95760405162461bcd60e51b815260040161076a90611baa565b600280546001600160a01b038381166001600160a01b0319831681179093556040805191909216808252602082019390935283917fabdf056c85a221fcb31d0366c4475b6b2c613df2eeea951a9fcb3e1a8595d973910161085d565b60008060008351604114610c9b5760405162461bcd60e51b815260206004820152601860248201527f696e76616c6964207369676e6174757265206c656e6774680000000000000000604482015260640161076a565b50505060208101516040820151606090920151909260009190911a90565b6000546001600160a01b03163314610ce35760405162461bcd60e51b815260040161076a90611baa565b6040516331a9108f60e11b81526004810182905230906001600160a01b03841690636352211e90602401602060405180830381865afa158015610d2a573d6000803e3d6000fd5b505050506040513d601f19601f82011682018060405250810190610d4e9190611c01565b6001600160a01b031614610db25760405162461bcd60e51b815260206004820152602560248201527f5468697320746f6b656e4964206973206e6f74206f776e656420627920636f6e6044820152641d1c9858dd60da1b606482015260840161076a565b604051632142170760e11b81523060048201526001600160a01b038481166024830152604482018390528316906342842e0e90606401600060405180830381600087803b158015610e0257600080fd5b505af1158015610e16573d6000803e3d6000fd5b5050604080516001600160a01b038088168252861660208201529081018490524260608201527f0127a8d3f57942833f6930572bce52ad882683e36eeb5830d199d3fa4bfa94679250608001905061085d565b600254604080516318160ddd60e01b815290516000926001600160a01b0316916318160ddd9160048083019260209291908290030181865afa158015610717573d6000803e3d6000fd5b600260015403610f055760405162461bcd60e51b815260206004820152601f60248201527f5265656e7472616e637947756172643a207265656e7472616e742063616c6c00604482015260640161076a565b6002600190815560055460ff16151514610f615760405162461bcd60e51b815260206004820152601b60248201527f57686974656c697374206e6f74206f70656e20746f206d696e742e0000000000604482015260640161076a565b323314610fb05760405162461bcd60e51b815260206004820152601b60248201527f6861686120436f6e74726163742063616e27742063616c6c206d650000000000604482015260640161076a565b6002546040516355138f0d60e11b81523060048201526001600160a01b039091169063aa271e1a90602401602060405180830381865afa158015610ff8573d6000803e3d6000fd5b505050506040513d601f19601f8201168201806040525081019061101c9190611bdf565b6110685760405162461bcd60e51b815260206004820152601e60248201527f436f6e7472616374204d696e74206973206e6f7420617070726f7665642e0000604482015260640161076a565b6110be600560029054906101000a90046001600160a01b03163384848080601f01602080910402602001604051908101604052809392919081815260200183838082843760009201919091525061068a92505050565b6111155760405162461bcd60e51b815260206004820152602260248201527f556e617574686f72697a6564205075626c69634d696e74205468697320557365604482015261391760f11b606482015260840161076a565b600254604051632851206560e21b8152336004820152600160248201819052916001600160a01b03169063a144819490604401600060405180830381600087803b15801561116257600080fd5b505af1158015611176573d6000803e3d6000fd5b5050604080518481524260208201523393507fc1a73b31b32801ebbb4cae30b73eae4345be9f2915ea60306383c245ef8fac4492500160405180910390a250506001805550565b6000546001600160a01b031633146111e75760405162461bcd60e51b815260040161076a90611baa565b6001600160a01b03811661124c5760405162461bcd60e51b815260206004820152602660248201527f4f776e61626c653a206e6577206f776e657220697320746865207a65726f206160448201526564647265737360d01b606482015260840161076a565b61125581611742565b50565b6002600154036112aa5760405162461bcd60e51b815260206004820152601f60248201527f5265656e7472616e637947756172643a207265656e7472616e742063616c6c00604482015260640161076a565b6002600155806112f45760405162461bcd60e51b815260206004820152601560248201527426b4b73a1034b9903737ba1030b8383937bb32b21760591b604482015260640161076a565b80600354146113555760405162461bcd60e51b815260206004820152602760248201527f436f6e747261637420617265206e6f7420696e2074686973206d696e74696e67604482015266103937bab7321760c91b606482015260840161076a565b61135d6106cd565b82611366610e69565b6113709190611c34565b106113ab5760405162461bcd60e51b815260206004820152600b60248201526a4f76657220737570706c7960a81b604482015260640161076a565b33600090815260066020908152604080832084845290915290205460ff16156114165760405162461bcd60e51b815260206004820152601760248201527f596f752061726520616c7265616479206d696e7465642e000000000000000000604482015260640161076a565b6002546040516355138f0d60e11b81523060048201526001600160a01b039091169063aa271e1a90602401602060405180830381865afa15801561145e573d6000803e3d6000fd5b505050506040513d601f19601f820116820180604052508101906114829190611bdf565b6114ce5760405162461bcd60e51b815260206004820152601e60248201527f436f6e7472616374204d696e74206973206e6f7420617070726f7665642e0000604482015260640161076a565b611551848480806020026020016040519081016040528093929190818152602001838360200280828437600092019190915250506004546040516bffffffffffffffffffffffff193360601b1660208201526034810188905260548101879052909250607401905060405160208183030381529060405280519060200120611792565b6115ab5760405162461bcd60e51b815260206004820152602560248201527f556e617574686f72697a65642057686974656c6973744d696e742054686973206044820152642ab9b2b91760d91b606482015260840161076a565b3360008181526006602090815260408083208584528252808320805460ff1916600117905592825260078152828220848352905290812080548492906115f2908490611c34565b9091555050600254604051632851206560e21b8152336004820152602481018490526001600160a01b039091169063a144819490604401600060405180830381600087803b15801561164357600080fd5b505af1158015611657573d6000803e3d6000fd5b5050604080518581524260208201523393507fe9e607753e80542a9021d5149990f18919907f0136fad424eaac3d15056ccf6e92500160405180910390a25050600180555050565b6040517f19457468657265756d205369676e6564204d6573736167653a0a3332000000006020820152603c8101829052600090605c0161066d565b6000546001600160a01b031633146117045760405162461bcd60e51b815260040161076a90611baa565b600380549082905560408051828152602081018490527f521ec96875ca228cd2fc1dbd4c927a34328c9ce1a83bcb8c1f633f012c90d78591016108f6565b600080546001600160a01b038381166001600160a01b0319831681178455604051919092169283917f8be0079c531659141344cd1fd0a4f28419497f9722a3daafe3b4186f6b6457e09190a35050565b60008261179f85846117a8565b14949350505050565b600081815b84518110156118145760008582815181106117ca576117ca611c4c565b602002602001015190508083116117f05760008381526020829052604090209250611801565b600081815260208490526040902092505b508061180c81611c62565b9150506117ad565b509392505050565b6001600160a01b038116811461125557600080fd5b60006020828403121561184357600080fd5b813561184e8161181c565b9392505050565b634e487b7160e01b600052604160045260246000fd5b600082601f83011261187c57600080fd5b813567ffffffffffffffff8082111561189757611897611855565b604051601f8301601f19908116603f011681019082821181831017156118bf576118bf611855565b816040528381528660208588010111156118d857600080fd5b836020870160208301376000602085830101528094505050505092915050565b60008060006060848603121561190d57600080fd5b83356119188161181c565b925060208401356119288161181c565b9150604084013567ffffffffffffffff81111561194457600080fd5b6119508682870161186b565b9150509250925092565b60006020828403121561196c57600080fd5b5035919050565b6000806040838503121561198657600080fd5b82356119918161181c565b915060208301356119a18161181c565b809150509250929050565b600080604083850312156119bf57600080fd5b82359150602083013567ffffffffffffffff8111156119dd57600080fd5b6119e98582860161186b565b9150509250929050565b600060208284031215611a0557600080fd5b813567ffffffffffffffff811115611a1c57600080fd5b611a288482850161186b565b949350505050565b60008060408385031215611a4357600080fd5b8235611a4e8161181c565b946020939093013593505050565b600080600060608486031215611a7157600080fd5b8335611a7c8161181c565b92506020840135611a8c8161181c565b929592945050506040919091013590565b60008060208385031215611ab057600080fd5b823567ffffffffffffffff80821115611ac857600080fd5b818501915085601f830112611adc57600080fd5b813581811115611aeb57600080fd5b866020828501011115611afd57600080fd5b60209290920196919550909350505050565b60008060008060608587031215611b2557600080fd5b843567ffffffffffffffff80821115611b3d57600080fd5b818701915087601f830112611b5157600080fd5b813581811115611b6057600080fd5b8860208260051b8501011115611b7557600080fd5b6020928301999098509187013596604001359550909350505050565b600060208284031215611ba357600080fd5b5051919050565b6020808252818101527f4f776e61626c653a2063616c6c6572206973206e6f7420746865206f776e6572604082015260600190565b600060208284031215611bf157600080fd5b8151801515811461184e57600080fd5b600060208284031215611c1357600080fd5b815161184e8161181c565b634e487b7160e01b600052601160045260246000fd5b60008219821115611c4757611c47611c1e565b500190565b634e487b7160e01b600052603260045260246000fd5b600060018201611c7457611c74611c1e565b506001019056fea26469706673582212203b3fd8472dea33c86f30d640f6977e15b9a3b814ea4ba61376385286fb57dbee64736f6c634300080f00334f776e61626c653a2063616c6c6572206973206e6f7420746865206f776e6572",
					"opcodes": "PUSH1 0x80 PUSH1 0x40 MSTORE PUSH1 0x5 DUP1 SLOAD PUSH2 0xFFFF NOT AND SWAP1 SSTORE CALLVALUE DUP1 ISZERO PUSH3 0x1C JUMPI PUSH1 0x0 DUP1 REVERT JUMPDEST POP PUSH1 0x40 MLOAD PUSH3 0x2000 CODESIZE SUB DUP1 PUSH3 0x2000 DUP4 CODECOPY DUP2 ADD PUSH1 0x40 DUP2 SWAP1 MSTORE PUSH3 0x3F SWAP2 PUSH3 0x2D7 JUMP JUMPDEST PUSH3 0x4A CALLER PUSH3 0x78 JUMP JUMPDEST PUSH1 0x1 DUP1 SSTORE PUSH3 0x59 DUP4 PUSH3 0xC8 JUMP JUMPDEST PUSH3 0x64 DUP2 PUSH3 0x17B JUMP JUMPDEST PUSH3 0x6F DUP3 PUSH3 0x20C JUMP JUMPDEST POP POP POP PUSH3 0x31F JUMP JUMPDEST PUSH1 0x0 DUP1 SLOAD PUSH1 0x1 PUSH1 0x1 PUSH1 0xA0 SHL SUB DUP4 DUP2 AND PUSH1 0x1 PUSH1 0x1 PUSH1 0xA0 SHL SUB NOT DUP4 AND DUP2 OR DUP5 SSTORE PUSH1 0x40 MLOAD SWAP2 SWAP1 SWAP3 AND SWAP3 DUP4 SWAP2 PUSH32 0x8BE0079C531659141344CD1FD0A4F28419497F9722A3DAAFE3B4186F6B6457E0 SWAP2 SWAP1 LOG3 POP POP JUMP JUMPDEST PUSH1 0x0 SLOAD PUSH1 0x1 PUSH1 0x1 PUSH1 0xA0 SHL SUB AND CALLER EQ PUSH3 0x117 JUMPI PUSH1 0x40 MLOAD PUSH3 0x461BCD PUSH1 0xE5 SHL DUP2 MSTORE PUSH1 0x20 PUSH1 0x4 DUP3 ADD DUP2 SWAP1 MSTORE PUSH1 0x24 DUP3 ADD MSTORE PUSH1 0x0 DUP1 MLOAD PUSH1 0x20 PUSH3 0x1FE0 DUP4 CODECOPY DUP2 MLOAD SWAP2 MSTORE PUSH1 0x44 DUP3 ADD MSTORE PUSH1 0x64 ADD JUMPDEST PUSH1 0x40 MLOAD DUP1 SWAP2 SUB SWAP1 REVERT JUMPDEST PUSH1 0x2 DUP1 SLOAD PUSH1 0x1 PUSH1 0x1 PUSH1 0xA0 SHL SUB DUP4 DUP2 AND PUSH1 0x1 PUSH1 0x1 PUSH1 0xA0 SHL SUB NOT DUP4 AND DUP2 OR SWAP1 SWAP4 SSTORE PUSH1 0x40 DUP1 MLOAD SWAP2 SWAP1 SWAP3 AND DUP1 DUP3 MSTORE PUSH1 0x20 DUP3 ADD SWAP4 SWAP1 SWAP4 MSTORE DUP4 SWAP2 PUSH32 0xABDF056C85A221FCB31D0366C4475B6B2C613DF2EEEA951A9FCB3E1A8595D973 SWAP2 ADD PUSH1 0x40 MLOAD DUP1 SWAP2 SUB SWAP1 LOG1 POP POP POP JUMP JUMPDEST PUSH1 0x0 SLOAD PUSH1 0x1 PUSH1 0x1 PUSH1 0xA0 SHL SUB AND CALLER EQ PUSH3 0x1C6 JUMPI PUSH1 0x40 MLOAD PUSH3 0x461BCD PUSH1 0xE5 SHL DUP2 MSTORE PUSH1 0x20 PUSH1 0x4 DUP3 ADD DUP2 SWAP1 MSTORE PUSH1 0x24 DUP3 ADD MSTORE PUSH1 0x0 DUP1 MLOAD PUSH1 0x20 PUSH3 0x1FE0 DUP4 CODECOPY DUP2 MLOAD SWAP2 MSTORE PUSH1 0x44 DUP3 ADD MSTORE PUSH1 0x64 ADD PUSH3 0x10E JUMP JUMPDEST PUSH1 0x4 DUP1 SLOAD SWAP1 DUP3 SWAP1 SSTORE PUSH1 0x40 DUP1 MLOAD DUP3 DUP2 MSTORE PUSH1 0x20 DUP2 ADD DUP5 SWAP1 MSTORE PUSH32 0x123D88BA82600DFC3F219F8885C691B0FF020CAA535666874B3F5174973757FE SWAP2 ADD JUMPDEST PUSH1 0x40 MLOAD DUP1 SWAP2 SUB SWAP1 LOG1 POP POP JUMP JUMPDEST PUSH1 0x0 SLOAD PUSH1 0x1 PUSH1 0x1 PUSH1 0xA0 SHL SUB AND CALLER EQ PUSH3 0x257 JUMPI PUSH1 0x40 MLOAD PUSH3 0x461BCD PUSH1 0xE5 SHL DUP2 MSTORE PUSH1 0x20 PUSH1 0x4 DUP3 ADD DUP2 SWAP1 MSTORE PUSH1 0x24 DUP3 ADD MSTORE PUSH1 0x0 DUP1 MLOAD PUSH1 0x20 PUSH3 0x1FE0 DUP4 CODECOPY DUP2 MLOAD SWAP2 MSTORE PUSH1 0x44 DUP3 ADD MSTORE PUSH1 0x64 ADD PUSH3 0x10E JUMP JUMPDEST PUSH1 0x5 DUP1 SLOAD PUSH1 0x1 PUSH1 0x1 PUSH1 0xA0 SHL SUB DUP4 DUP2 AND PUSH3 0x10000 DUP2 DUP2 MUL PUSH3 0x10000 PUSH1 0x1 PUSH1 0xB0 SHL SUB NOT DUP6 AND OR SWAP1 SWAP5 SSTORE PUSH1 0x40 DUP1 MLOAD SWAP5 SWAP1 SWAP4 DIV SWAP1 SWAP2 AND DUP1 DUP5 MSTORE PUSH1 0x20 DUP5 ADD SWAP2 SWAP1 SWAP2 MSTORE SWAP2 PUSH32 0xEEB293E1F8F3A9DB91ADE748726387ED1352CA78F5430C5F06FE3D1E1AD50579 SWAP2 ADD PUSH3 0x200 JUMP JUMPDEST PUSH1 0x1 PUSH1 0x1 PUSH1 0xA0 SHL SUB DUP2 AND DUP2 EQ PUSH3 0x2D4 JUMPI PUSH1 0x0 DUP1 REVERT JUMPDEST POP JUMP JUMPDEST PUSH1 0x0 DUP1 PUSH1 0x0 PUSH1 0x60 DUP5 DUP7 SUB SLT ISZERO PUSH3 0x2ED JUMPI PUSH1 0x0 DUP1 REVERT JUMPDEST DUP4 MLOAD PUSH3 0x2FA DUP2 PUSH3 0x2BE JUMP JUMPDEST PUSH1 0x20 DUP6 ADD MLOAD SWAP1 SWAP4 POP PUSH3 0x30D DUP2 PUSH3 0x2BE JUMP JUMPDEST DUP1 SWAP3 POP POP PUSH1 0x40 DUP5 ADD MLOAD SWAP1 POP SWAP3 POP SWAP3 POP SWAP3 JUMP JUMPDEST PUSH2 0x1CB1 DUP1 PUSH3 0x32F PUSH1 0x0 CODECOPY PUSH1 0x0 RETURN INVALID PUSH1 0x80 PUSH1 0x40 MSTORE PUSH1 0x4 CALLDATASIZE LT PUSH2 0x1D8 JUMPI PUSH1 0x0 CALLDATALOAD PUSH1 0xE0 SHR DUP1 PUSH4 0x9E6C8855 GT PUSH2 0x102 JUMPI DUP1 PUSH4 0xE02023A1 GT PUSH2 0x95 JUMPI DUP1 PUSH4 0xF6B48E55 GT PUSH2 0x64 JUMPI DUP1 PUSH4 0xF6B48E55 EQ PUSH2 0x5A7 JUMPI DUP1 PUSH4 0xFA540801 EQ PUSH2 0x5BA JUMPI DUP1 PUSH4 0xFF05FE4A EQ PUSH2 0x5DA JUMPI DUP1 PUSH4 0xFFDC6129 EQ PUSH2 0x5FA JUMPI PUSH1 0x0 DUP1 REVERT JUMPDEST DUP1 PUSH4 0xE02023A1 EQ PUSH2 0x509 JUMPI DUP1 PUSH4 0xEF5FE79F EQ PUSH2 0x53D JUMPI DUP1 PUSH4 0xF2FDE38B EQ PUSH2 0x553 JUMPI DUP1 PUSH4 0xF500CDFC EQ PUSH2 0x573 JUMPI PUSH1 0x0 DUP1 REVERT JUMPDEST DUP1 PUSH4 0xBFF863EC GT PUSH2 0xD1 JUMPI DUP1 PUSH4 0xBFF863EC EQ PUSH2 0x4A1 JUMPI DUP1 PUSH4 0xC4E41B22 EQ PUSH2 0x4C1 JUMPI DUP1 PUSH4 0xDE6892C8 EQ PUSH2 0x4D6 JUMPI DUP1 PUSH4 0xDF4E5881 EQ PUSH2 0x4E9 JUMPI PUSH1 0x0 DUP1 REVERT JUMPDEST DUP1 PUSH4 0x9E6C8855 EQ PUSH2 0x3E6 JUMPI DUP1 PUSH4 0xA4435DFD EQ PUSH2 0x406 JUMPI DUP1 PUSH4 0xA7BB5803 EQ PUSH2 0x420 JUMPI DUP1 PUSH4 0xB5ABAFA1 EQ PUSH2 0x45E JUMPI PUSH1 0x0 DUP1 REVERT JUMPDEST DUP1 PUSH4 0x51CFF8D9 GT PUSH2 0x17A JUMPI DUP1 PUSH4 0x8407ECC4 GT PUSH2 0x149 JUMPI DUP1 PUSH4 0x8407ECC4 EQ PUSH2 0x369 JUMPI DUP1 PUSH4 0x8907F3FA EQ PUSH2 0x389 JUMPI DUP1 PUSH4 0x8DA5CB5B EQ PUSH2 0x3A8 JUMPI DUP1 PUSH4 0x97ABA7F9 EQ PUSH2 0x3C6 JUMPI PUSH1 0x0 DUP1 REVERT JUMPDEST DUP1 PUSH4 0x51CFF8D9 EQ PUSH2 0x2F2 JUMPI DUP1 PUSH4 0x6C19E783 EQ PUSH2 0x314 JUMPI DUP1 PUSH4 0x715018A6 EQ PUSH2 0x334 JUMPI DUP1 PUSH4 0x7CB64759 EQ PUSH2 0x349 JUMPI PUSH1 0x0 DUP1 REVERT JUMPDEST DUP1 PUSH4 0x24C37A85 GT PUSH2 0x1B6 JUMPI DUP1 PUSH4 0x24C37A85 EQ PUSH2 0x263 JUMPI DUP1 PUSH4 0x2EB4A7AB EQ PUSH2 0x297 JUMPI DUP1 PUSH4 0x42920A46 EQ PUSH2 0x2AD JUMPI DUP1 PUSH4 0x4C0F38C2 EQ PUSH2 0x2DD JUMPI PUSH1 0x0 DUP1 REVERT JUMPDEST DUP1 PUSH4 0xA25DEA9 EQ PUSH2 0x1DD JUMPI DUP1 PUSH4 0x1F5AC1B2 EQ PUSH2 0x205 JUMPI DUP1 PUSH4 0x238AC933 EQ PUSH2 0x225 JUMPI JUMPDEST PUSH1 0x0 DUP1 REVERT JUMPDEST CALLVALUE DUP1 ISZERO PUSH2 0x1E9 JUMPI PUSH1 0x0 DUP1 REVERT JUMPDEST POP PUSH2 0x1F2 PUSH1 0x0 DUP2 JUMP JUMPDEST PUSH1 0x40 MLOAD SWAP1 DUP2 MSTORE PUSH1 0x20 ADD JUMPDEST PUSH1 0x40 MLOAD DUP1 SWAP2 SUB SWAP1 RETURN JUMPDEST CALLVALUE DUP1 ISZERO PUSH2 0x211 JUMPI PUSH1 0x0 DUP1 REVERT JUMPDEST POP PUSH2 0x1F2 PUSH2 0x220 CALLDATASIZE PUSH1 0x4 PUSH2 0x1831 JUMP JUMPDEST PUSH2 0x640 JUMP JUMPDEST CALLVALUE DUP1 ISZERO PUSH2 0x231 JUMPI PUSH1 0x0 DUP1 REVERT JUMPDEST POP PUSH1 0x5 SLOAD PUSH2 0x24B SWAP1 PUSH3 0x10000 SWAP1 DIV PUSH1 0x1 PUSH1 0x1 PUSH1 0xA0 SHL SUB AND DUP2 JUMP JUMPDEST PUSH1 0x40 MLOAD PUSH1 0x1 PUSH1 0x1 PUSH1 0xA0 SHL SUB SWAP1 SWAP2 AND DUP2 MSTORE PUSH1 0x20 ADD PUSH2 0x1FC JUMP JUMPDEST CALLVALUE DUP1 ISZERO PUSH2 0x26F JUMPI PUSH1 0x0 DUP1 REVERT JUMPDEST POP PUSH2 0x1F2 PUSH32 0xB3C595E55271590809F54E2F4FC3A582754F45B104DD3C41666E2AD310493DB3 DUP2 JUMP JUMPDEST CALLVALUE DUP1 ISZERO PUSH2 0x2A3 JUMPI PUSH1 0x0 DUP1 REVERT JUMPDEST POP PUSH2 0x1F2 PUSH1 0x4 SLOAD DUP2 JUMP JUMPDEST CALLVALUE DUP1 ISZERO PUSH2 0x2B9 JUMPI PUSH1 0x0 DUP1 REVERT JUMPDEST POP PUSH2 0x2CD PUSH2 0x2C8 CALLDATASIZE PUSH1 0x4 PUSH2 0x18F8 JUMP JUMPDEST PUSH2 0x68A JUMP JUMPDEST PUSH1 0x40 MLOAD SWAP1 ISZERO ISZERO DUP2 MSTORE PUSH1 0x20 ADD PUSH2 0x1FC JUMP JUMPDEST CALLVALUE DUP1 ISZERO PUSH2 0x2E9 JUMPI PUSH1 0x0 DUP1 REVERT JUMPDEST POP PUSH2 0x1F2 PUSH2 0x6CD JUMP JUMPDEST CALLVALUE DUP1 ISZERO PUSH2 0x2FE JUMPI PUSH1 0x0 DUP1 REVERT JUMPDEST POP PUSH2 0x312 PUSH2 0x30D CALLDATASIZE PUSH1 0x4 PUSH2 0x1831 JUMP JUMPDEST PUSH2 0x740 JUMP JUMPDEST STOP JUMPDEST CALLVALUE DUP1 ISZERO PUSH2 0x320 JUMPI PUSH1 0x0 DUP1 REVERT JUMPDEST POP PUSH2 0x312 PUSH2 0x32F CALLDATASIZE PUSH1 0x4 PUSH2 0x1831 JUMP JUMPDEST PUSH2 0x86A JUMP JUMPDEST CALLVALUE DUP1 ISZERO PUSH2 0x340 JUMPI PUSH1 0x0 DUP1 REVERT JUMPDEST POP PUSH2 0x312 PUSH2 0x902 JUMP JUMPDEST CALLVALUE DUP1 ISZERO PUSH2 0x355 JUMPI PUSH1 0x0 DUP1 REVERT JUMPDEST POP PUSH2 0x312 PUSH2 0x364 CALLDATASIZE PUSH1 0x4 PUSH2 0x195A JUMP JUMPDEST PUSH2 0x938 JUMP JUMPDEST CALLVALUE DUP1 ISZERO PUSH2 0x375 JUMPI PUSH1 0x0 DUP1 REVERT JUMPDEST POP PUSH2 0x312 PUSH2 0x384 CALLDATASIZE PUSH1 0x4 PUSH2 0x1973 JUMP JUMPDEST PUSH2 0x9A0 JUMP JUMPDEST CALLVALUE DUP1 ISZERO PUSH2 0x395 JUMPI PUSH1 0x0 DUP1 REVERT JUMPDEST POP PUSH1 0x5 SLOAD PUSH2 0x2CD SWAP1 PUSH2 0x100 SWAP1 DIV PUSH1 0xFF AND DUP2 JUMP JUMPDEST CALLVALUE DUP1 ISZERO PUSH2 0x3B4 JUMPI PUSH1 0x0 DUP1 REVERT JUMPDEST POP PUSH1 0x0 SLOAD PUSH1 0x1 PUSH1 0x1 PUSH1 0xA0 SHL SUB AND PUSH2 0x24B JUMP JUMPDEST CALLVALUE DUP1 ISZERO PUSH2 0x3D2 JUMPI PUSH1 0x0 DUP1 REVERT JUMPDEST POP PUSH2 0x24B PUSH2 0x3E1 CALLDATASIZE PUSH1 0x4 PUSH2 0x19AC JUMP JUMPDEST PUSH2 0xB40 JUMP JUMPDEST CALLVALUE DUP1 ISZERO PUSH2 0x3F2 JUMPI PUSH1 0x0 DUP1 REVERT JUMPDEST POP PUSH2 0x312 PUSH2 0x401 CALLDATASIZE PUSH1 0x4 PUSH2 0x1831 JUMP JUMPDEST PUSH2 0xBBF JUMP JUMPDEST CALLVALUE DUP1 ISZERO PUSH2 0x412 JUMPI PUSH1 0x0 DUP1 REVERT JUMPDEST POP PUSH1 0x5 SLOAD PUSH2 0x2CD SWAP1 PUSH1 0xFF AND DUP2 JUMP JUMPDEST CALLVALUE DUP1 ISZERO PUSH2 0x42C JUMPI PUSH1 0x0 DUP1 REVERT JUMPDEST POP PUSH2 0x440 PUSH2 0x43B CALLDATASIZE PUSH1 0x4 PUSH2 0x19F3 JUMP JUMPDEST PUSH2 0xC45 JUMP JUMPDEST PUSH1 0x40 DUP1 MLOAD SWAP4 DUP5 MSTORE PUSH1 0x20 DUP5 ADD SWAP3 SWAP1 SWAP3 MSTORE PUSH1 0xFF AND SWAP1 DUP3 ADD MSTORE PUSH1 0x60 ADD PUSH2 0x1FC JUMP JUMPDEST CALLVALUE DUP1 ISZERO PUSH2 0x46A JUMPI PUSH1 0x0 DUP1 REVERT JUMPDEST POP PUSH2 0x1F2 PUSH2 0x479 CALLDATASIZE PUSH1 0x4 PUSH2 0x1A30 JUMP JUMPDEST PUSH1 0x1 PUSH1 0x1 PUSH1 0xA0 SHL SUB SWAP2 SWAP1 SWAP2 AND PUSH1 0x0 SWAP1 DUP2 MSTORE PUSH1 0x7 PUSH1 0x20 SWAP1 DUP2 MSTORE PUSH1 0x40 DUP1 DUP4 KECCAK256 SWAP4 DUP4 MSTORE SWAP3 SWAP1 MSTORE KECCAK256 SLOAD SWAP1 JUMP JUMPDEST CALLVALUE DUP1 ISZERO PUSH2 0x4AD JUMPI PUSH1 0x0 DUP1 REVERT JUMPDEST POP PUSH2 0x312 PUSH2 0x4BC CALLDATASIZE PUSH1 0x4 PUSH2 0x1A5C JUMP JUMPDEST PUSH2 0xCB9 JUMP JUMPDEST CALLVALUE DUP1 ISZERO PUSH2 0x4CD JUMPI PUSH1 0x0 DUP1 REVERT JUMPDEST POP PUSH2 0x1F2 PUSH2 0xE69 JUMP JUMPDEST PUSH2 0x312 PUSH2 0x4E4 CALLDATASIZE PUSH1 0x4 PUSH2 0x1A9D JUMP JUMPDEST PUSH2 0xEB3 JUMP JUMPDEST CALLVALUE DUP1 ISZERO PUSH2 0x4F5 JUMPI PUSH1 0x0 DUP1 REVERT JUMPDEST POP PUSH1 0x2 SLOAD PUSH2 0x24B SWAP1 PUSH1 0x1 PUSH1 0x1 PUSH1 0xA0 SHL SUB AND DUP2 JUMP JUMPDEST CALLVALUE DUP1 ISZERO PUSH2 0x515 JUMPI PUSH1 0x0 DUP1 REVERT JUMPDEST POP PUSH2 0x1F2 PUSH32 0x5D8E12C39142FF96D79D04D15D1BA1269E4FE57BB9D26F43523628B34BA108EC DUP2 JUMP JUMPDEST CALLVALUE DUP1 ISZERO PUSH2 0x549 JUMPI PUSH1 0x0 DUP1 REVERT JUMPDEST POP PUSH2 0x1F2 PUSH1 0x3 SLOAD DUP2 JUMP JUMPDEST CALLVALUE DUP1 ISZERO PUSH2 0x55F JUMPI PUSH1 0x0 DUP1 REVERT JUMPDEST POP PUSH2 0x312 PUSH2 0x56E CALLDATASIZE PUSH1 0x4 PUSH2 0x1831 JUMP JUMPDEST PUSH2 0x11BD JUMP JUMPDEST CALLVALUE DUP1 ISZERO PUSH2 0x57F JUMPI PUSH1 0x0 DUP1 REVERT JUMPDEST POP PUSH2 0x1F2 PUSH32 0x68E7D51FDB912CB107DDA2E59B053D87FCCA666DD0EF5339CD3474CCB5276BBA DUP2 JUMP JUMPDEST PUSH2 0x312 PUSH2 0x5B5 CALLDATASIZE PUSH1 0x4 PUSH2 0x1B0F JUMP JUMPDEST PUSH2 0x1258 JUMP JUMPDEST CALLVALUE DUP1 ISZERO PUSH2 0x5C6 JUMPI PUSH1 0x0 DUP1 REVERT JUMPDEST POP PUSH2 0x1F2 PUSH2 0x5D5 CALLDATASIZE PUSH1 0x4 PUSH2 0x195A JUMP JUMPDEST PUSH2 0x169F JUMP JUMPDEST CALLVALUE DUP1 ISZERO PUSH2 0x5E6 JUMPI PUSH1 0x0 DUP1 REVERT JUMPDEST POP PUSH2 0x312 PUSH2 0x5F5 CALLDATASIZE PUSH1 0x4 PUSH2 0x195A JUMP JUMPDEST PUSH2 0x16DA JUMP JUMPDEST CALLVALUE DUP1 ISZERO PUSH2 0x606 JUMPI PUSH1 0x0 DUP1 REVERT JUMPDEST POP PUSH2 0x2CD PUSH2 0x615 CALLDATASIZE PUSH1 0x4 PUSH2 0x1A30 JUMP JUMPDEST PUSH1 0x1 PUSH1 0x1 PUSH1 0xA0 SHL SUB SWAP2 SWAP1 SWAP2 AND PUSH1 0x0 SWAP1 DUP2 MSTORE PUSH1 0x6 PUSH1 0x20 SWAP1 DUP2 MSTORE PUSH1 0x40 DUP1 DUP4 KECCAK256 SWAP4 DUP4 MSTORE SWAP3 SWAP1 MSTORE KECCAK256 SLOAD PUSH1 0xFF AND SWAP1 JUMP JUMPDEST PUSH1 0x40 MLOAD PUSH12 0xFFFFFFFFFFFFFFFFFFFFFFFF NOT PUSH1 0x60 DUP4 DUP2 SHL DUP3 AND PUSH1 0x20 DUP5 ADD MSTORE ADDRESS SWAP1 SHL AND PUSH1 0x34 DUP3 ADD MSTORE PUSH1 0x0 SWAP1 PUSH1 0x48 ADD JUMPDEST PUSH1 0x40 MLOAD PUSH1 0x20 DUP2 DUP4 SUB SUB DUP2 MSTORE SWAP1 PUSH1 0x40 MSTORE DUP1 MLOAD SWAP1 PUSH1 0x20 ADD KECCAK256 SWAP1 POP SWAP2 SWAP1 POP JUMP JUMPDEST PUSH1 0x0 DUP1 PUSH2 0x696 DUP5 PUSH2 0x640 JUMP JUMPDEST SWAP1 POP PUSH1 0x0 PUSH2 0x6A3 DUP3 PUSH2 0x169F JUMP JUMPDEST SWAP1 POP DUP6 PUSH1 0x1 PUSH1 0x1 PUSH1 0xA0 SHL SUB AND PUSH2 0x6B9 DUP3 DUP7 PUSH2 0xB40 JUMP JUMPDEST PUSH1 0x1 PUSH1 0x1 PUSH1 0xA0 SHL SUB AND EQ SWAP7 SWAP6 POP POP POP POP POP POP JUMP JUMPDEST PUSH1 0x2 SLOAD PUSH1 0x40 DUP1 MLOAD PUSH4 0xD5ABEB01 PUSH1 0xE0 SHL DUP2 MSTORE SWAP1 MLOAD PUSH1 0x0 SWAP3 PUSH1 0x1 PUSH1 0x1 PUSH1 0xA0 SHL SUB AND SWAP2 PUSH4 0xD5ABEB01 SWAP2 PUSH1 0x4 DUP1 DUP4 ADD SWAP3 PUSH1 0x20 SWAP3 SWAP2 SWAP1 DUP3 SWAP1 SUB ADD DUP2 DUP7 GAS STATICCALL ISZERO DUP1 ISZERO PUSH2 0x717 JUMPI RETURNDATASIZE PUSH1 0x0 DUP1 RETURNDATACOPY RETURNDATASIZE PUSH1 0x0 REVERT JUMPDEST POP POP POP POP PUSH1 0x40 MLOAD RETURNDATASIZE PUSH1 0x1F NOT PUSH1 0x1F DUP3 ADD AND DUP3 ADD DUP1 PUSH1 0x40 MSTORE POP DUP2 ADD SWAP1 PUSH2 0x73B SWAP2 SWAP1 PUSH2 0x1B91 JUMP JUMPDEST SWAP1 POP SWAP1 JUMP JUMPDEST PUSH1 0x0 SLOAD PUSH1 0x1 PUSH1 0x1 PUSH1 0xA0 SHL SUB AND CALLER EQ PUSH2 0x773 JUMPI PUSH1 0x40 MLOAD PUSH3 0x461BCD PUSH1 0xE5 SHL DUP2 MSTORE PUSH1 0x4 ADD PUSH2 0x76A SWAP1 PUSH2 0x1BAA JUMP JUMPDEST PUSH1 0x40 MLOAD DUP1 SWAP2 SUB SWAP1 REVERT JUMPDEST SELFBALANCE DUP1 PUSH2 0x7B8 JUMPI PUSH1 0x40 MLOAD PUSH3 0x461BCD PUSH1 0xE5 SHL DUP2 MSTORE PUSH1 0x20 PUSH1 0x4 DUP3 ADD MSTORE PUSH1 0x14 PUSH1 0x24 DUP3 ADD MSTORE PUSH20 0x496E73756666696369656E742042616C616E6365 PUSH1 0x60 SHL PUSH1 0x44 DUP3 ADD MSTORE PUSH1 0x64 ADD PUSH2 0x76A JUMP JUMPDEST PUSH1 0x0 DUP3 PUSH1 0x1 PUSH1 0x1 PUSH1 0xA0 SHL SUB AND DUP3 PUSH1 0x40 MLOAD PUSH1 0x0 PUSH1 0x40 MLOAD DUP1 DUP4 SUB DUP2 DUP6 DUP8 GAS CALL SWAP3 POP POP POP RETURNDATASIZE DUP1 PUSH1 0x0 DUP2 EQ PUSH2 0x805 JUMPI PUSH1 0x40 MLOAD SWAP2 POP PUSH1 0x1F NOT PUSH1 0x3F RETURNDATASIZE ADD AND DUP3 ADD PUSH1 0x40 MSTORE RETURNDATASIZE DUP3 MSTORE RETURNDATASIZE PUSH1 0x0 PUSH1 0x20 DUP5 ADD RETURNDATACOPY PUSH2 0x80A JUMP JUMPDEST PUSH1 0x60 SWAP2 POP JUMPDEST POP POP SWAP1 POP DUP1 PUSH2 0x818 JUMPI PUSH1 0x0 DUP1 REVERT JUMPDEST PUSH1 0x40 DUP1 MLOAD PUSH1 0x1 PUSH1 0x1 PUSH1 0xA0 SHL SUB DUP6 AND DUP2 MSTORE PUSH1 0x20 DUP2 ADD DUP5 SWAP1 MSTORE TIMESTAMP SWAP2 DUP2 ADD SWAP2 SWAP1 SWAP2 MSTORE PUSH32 0xF279E6A1F5E320CCA91135676D9CB6E44CA8A08C0B88342BCDB1144F6511B568 SWAP1 PUSH1 0x60 ADD JUMPDEST PUSH1 0x40 MLOAD DUP1 SWAP2 SUB SWAP1 LOG1 POP POP POP JUMP JUMPDEST PUSH1 0x0 SLOAD PUSH1 0x1 PUSH1 0x1 PUSH1 0xA0 SHL SUB AND CALLER EQ PUSH2 0x894 JUMPI PUSH1 0x40 MLOAD PUSH3 0x461BCD PUSH1 0xE5 SHL DUP2 MSTORE PUSH1 0x4 ADD PUSH2 0x76A SWAP1 PUSH2 0x1BAA JUMP JUMPDEST PUSH1 0x5 DUP1 SLOAD PUSH1 0x1 PUSH1 0x1 PUSH1 0xA0 SHL SUB DUP4 DUP2 AND PUSH3 0x10000 DUP2 DUP2 MUL PUSH3 0x10000 PUSH1 0x1 PUSH1 0xB0 SHL SUB NOT DUP6 AND OR SWAP1 SWAP5 SSTORE PUSH1 0x40 DUP1 MLOAD SWAP5 SWAP1 SWAP4 DIV SWAP1 SWAP2 AND DUP1 DUP5 MSTORE PUSH1 0x20 DUP5 ADD SWAP2 SWAP1 SWAP2 MSTORE SWAP2 PUSH32 0xEEB293E1F8F3A9DB91ADE748726387ED1352CA78F5430C5F06FE3D1E1AD50579 SWAP2 ADD JUMPDEST PUSH1 0x40 MLOAD DUP1 SWAP2 SUB SWAP1 LOG1 POP POP JUMP JUMPDEST PUSH1 0x0 SLOAD PUSH1 0x1 PUSH1 0x1 PUSH1 0xA0 SHL SUB AND CALLER EQ PUSH2 0x92C JUMPI PUSH1 0x40 MLOAD PUSH3 0x461BCD PUSH1 0xE5 SHL DUP2 MSTORE PUSH1 0x4 ADD PUSH2 0x76A SWAP1 PUSH2 0x1BAA JUMP JUMPDEST PUSH2 0x936 PUSH1 0x0 PUSH2 0x1742 JUMP JUMPDEST JUMP JUMPDEST PUSH1 0x0 SLOAD PUSH1 0x1 PUSH1 0x1 PUSH1 0xA0 SHL SUB AND CALLER EQ PUSH2 0x962 JUMPI PUSH1 0x40 MLOAD PUSH3 0x461BCD PUSH1 0xE5 SHL DUP2 MSTORE PUSH1 0x4 ADD PUSH2 0x76A SWAP1 PUSH2 0x1BAA JUMP JUMPDEST PUSH1 0x4 DUP1 SLOAD SWAP1 DUP3 SWAP1 SSTORE PUSH1 0x40 DUP1 MLOAD DUP3 DUP2 MSTORE PUSH1 0x20 DUP2 ADD DUP5 SWAP1 MSTORE PUSH32 0x123D88BA82600DFC3F219F8885C691B0FF020CAA535666874B3F5174973757FE SWAP2 ADD PUSH2 0x8F6 JUMP JUMPDEST PUSH1 0x0 SLOAD PUSH1 0x1 PUSH1 0x1 PUSH1 0xA0 SHL SUB AND CALLER EQ PUSH2 0x9CA JUMPI PUSH1 0x40 MLOAD PUSH3 0x461BCD PUSH1 0xE5 SHL DUP2 MSTORE PUSH1 0x4 ADD PUSH2 0x76A SWAP1 PUSH2 0x1BAA JUMP JUMPDEST PUSH1 0x40 MLOAD PUSH4 0x70A08231 PUSH1 0xE0 SHL DUP2 MSTORE ADDRESS PUSH1 0x4 DUP3 ADD MSTORE PUSH1 0x0 SWAP1 PUSH1 0x1 PUSH1 0x1 PUSH1 0xA0 SHL SUB DUP4 AND SWAP1 PUSH4 0x70A08231 SWAP1 PUSH1 0x24 ADD PUSH1 0x20 PUSH1 0x40 MLOAD DUP1 DUP4 SUB DUP2 DUP7 GAS STATICCALL ISZERO DUP1 ISZERO PUSH2 0xA11 JUMPI RETURNDATASIZE PUSH1 0x0 DUP1 RETURNDATACOPY RETURNDATASIZE PUSH1 0x0 REVERT JUMPDEST POP POP POP POP PUSH1 0x40 MLOAD RETURNDATASIZE PUSH1 0x1F NOT PUSH1 0x1F DUP3 ADD AND DUP3 ADD DUP1 PUSH1 0x40 MSTORE POP DUP2 ADD SWAP1 PUSH2 0xA35 SWAP2 SWAP1 PUSH2 0x1B91 JUMP JUMPDEST SWAP1 POP PUSH1 0x0 DUP2 GT PUSH2 0xA7E JUMPI PUSH1 0x40 MLOAD PUSH3 0x461BCD PUSH1 0xE5 SHL DUP2 MSTORE PUSH1 0x20 PUSH1 0x4 DUP3 ADD MSTORE PUSH1 0x14 PUSH1 0x24 DUP3 ADD MSTORE PUSH20 0x496E73756666696369656E742042616C616E6365 PUSH1 0x60 SHL PUSH1 0x44 DUP3 ADD MSTORE PUSH1 0x64 ADD PUSH2 0x76A JUMP JUMPDEST PUSH1 0x40 MLOAD PUSH4 0xA9059CBB PUSH1 0xE0 SHL DUP2 MSTORE PUSH1 0x1 PUSH1 0x1 PUSH1 0xA0 SHL SUB DUP5 DUP2 AND PUSH1 0x4 DUP4 ADD MSTORE PUSH1 0x24 DUP3 ADD DUP4 SWAP1 MSTORE DUP4 AND SWAP1 PUSH4 0xA9059CBB SWAP1 PUSH1 0x44 ADD PUSH1 0x20 PUSH1 0x40 MLOAD DUP1 DUP4 SUB DUP2 PUSH1 0x0 DUP8 GAS CALL ISZERO DUP1 ISZERO PUSH2 0xACD JUMPI RETURNDATASIZE PUSH1 0x0 DUP1 RETURNDATACOPY RETURNDATASIZE PUSH1 0x0 REVERT JUMPDEST POP POP POP POP PUSH1 0x40 MLOAD RETURNDATASIZE PUSH1 0x1F NOT PUSH1 0x1F DUP3 ADD AND DUP3 ADD DUP1 PUSH1 0x40 MSTORE POP DUP2 ADD SWAP1 PUSH2 0xAF1 SWAP2 SWAP1 PUSH2 0x1BDF JUMP JUMPDEST POP PUSH1 0x40 DUP1 MLOAD PUSH1 0x1 PUSH1 0x1 PUSH1 0xA0 SHL SUB DUP1 DUP7 AND DUP3 MSTORE DUP5 AND PUSH1 0x20 DUP3 ADD MSTORE SWAP1 DUP2 ADD DUP3 SWAP1 MSTORE TIMESTAMP PUSH1 0x60 DUP3 ADD MSTORE PUSH32 0xB818A975F91276DF8BA59329BECBC23C793DF0D503C19AC296C3C372A1FA0461 SWAP1 PUSH1 0x80 ADD PUSH2 0x85D JUMP JUMPDEST PUSH1 0x0 DUP1 PUSH1 0x0 DUP1 PUSH2 0xB4F DUP6 PUSH2 0xC45 JUMP JUMPDEST PUSH1 0x40 DUP1 MLOAD PUSH1 0x0 DUP2 MSTORE PUSH1 0x20 DUP2 ADD DUP1 DUP4 MSTORE DUP12 SWAP1 MSTORE PUSH1 0xFF DUP4 AND SWAP2 DUP2 ADD SWAP2 SWAP1 SWAP2 MSTORE PUSH1 0x60 DUP2 ADD DUP5 SWAP1 MSTORE PUSH1 0x80 DUP2 ADD DUP4 SWAP1 MSTORE SWAP3 SWAP6 POP SWAP1 SWAP4 POP SWAP2 POP PUSH1 0x1 SWAP1 PUSH1 0xA0 ADD PUSH1 0x20 PUSH1 0x40 MLOAD PUSH1 0x20 DUP2 SUB SWAP1 DUP1 DUP5 SUB SWAP1 DUP6 GAS STATICCALL ISZERO DUP1 ISZERO PUSH2 0xBAA JUMPI RETURNDATASIZE PUSH1 0x0 DUP1 RETURNDATACOPY RETURNDATASIZE PUSH1 0x0 REVERT JUMPDEST POP POP PUSH1 0x40 MLOAD PUSH1 0x1F NOT ADD MLOAD SWAP8 SWAP7 POP POP POP POP POP POP POP JUMP JUMPDEST PUSH1 0x0 SLOAD PUSH1 0x1 PUSH1 0x1 PUSH1 0xA0 SHL SUB AND CALLER EQ PUSH2 0xBE9 JUMPI PUSH1 0x40 MLOAD PUSH3 0x461BCD PUSH1 0xE5 SHL DUP2 MSTORE PUSH1 0x4 ADD PUSH2 0x76A SWAP1 PUSH2 0x1BAA JUMP JUMPDEST PUSH1 0x2 DUP1 SLOAD PUSH1 0x1 PUSH1 0x1 PUSH1 0xA0 SHL SUB DUP4 DUP2 AND PUSH1 0x1 PUSH1 0x1 PUSH1 0xA0 SHL SUB NOT DUP4 AND DUP2 OR SWAP1 SWAP4 SSTORE PUSH1 0x40 DUP1 MLOAD SWAP2 SWAP1 SWAP3 AND DUP1 DUP3 MSTORE PUSH1 0x20 DUP3 ADD SWAP4 SWAP1 SWAP4 MSTORE DUP4 SWAP2 PUSH32 0xABDF056C85A221FCB31D0366C4475B6B2C613DF2EEEA951A9FCB3E1A8595D973 SWAP2 ADD PUSH2 0x85D JUMP JUMPDEST PUSH1 0x0 DUP1 PUSH1 0x0 DUP4 MLOAD PUSH1 0x41 EQ PUSH2 0xC9B JUMPI PUSH1 0x40 MLOAD PUSH3 0x461BCD PUSH1 0xE5 SHL DUP2 MSTORE PUSH1 0x20 PUSH1 0x4 DUP3 ADD MSTORE PUSH1 0x18 PUSH1 0x24 DUP3 ADD MSTORE PUSH32 0x696E76616C6964207369676E6174757265206C656E6774680000000000000000 PUSH1 0x44 DUP3 ADD MSTORE PUSH1 0x64 ADD PUSH2 0x76A JUMP JUMPDEST POP POP POP PUSH1 0x20 DUP2 ADD MLOAD PUSH1 0x40 DUP3 ADD MLOAD PUSH1 0x60 SWAP1 SWAP3 ADD MLOAD SWAP1 SWAP3 PUSH1 0x0 SWAP2 SWAP1 SWAP2 BYTE SWAP1 JUMP JUMPDEST PUSH1 0x0 SLOAD PUSH1 0x1 PUSH1 0x1 PUSH1 0xA0 SHL SUB AND CALLER EQ PUSH2 0xCE3 JUMPI PUSH1 0x40 MLOAD PUSH3 0x461BCD PUSH1 0xE5 SHL DUP2 MSTORE PUSH1 0x4 ADD PUSH2 0x76A SWAP1 PUSH2 0x1BAA JUMP JUMPDEST PUSH1 0x40 MLOAD PUSH4 0x31A9108F PUSH1 0xE1 SHL DUP2 MSTORE PUSH1 0x4 DUP2 ADD DUP3 SWAP1 MSTORE ADDRESS SWAP1 PUSH1 0x1 PUSH1 0x1 PUSH1 0xA0 SHL SUB DUP5 AND SWAP1 PUSH4 0x6352211E SWAP1 PUSH1 0x24 ADD PUSH1 0x20 PUSH1 0x40 MLOAD DUP1 DUP4 SUB DUP2 DUP7 GAS STATICCALL ISZERO DUP1 ISZERO PUSH2 0xD2A JUMPI RETURNDATASIZE PUSH1 0x0 DUP1 RETURNDATACOPY RETURNDATASIZE PUSH1 0x0 REVERT JUMPDEST POP POP POP POP PUSH1 0x40 MLOAD RETURNDATASIZE PUSH1 0x1F NOT PUSH1 0x1F DUP3 ADD AND DUP3 ADD DUP1 PUSH1 0x40 MSTORE POP DUP2 ADD SWAP1 PUSH2 0xD4E SWAP2 SWAP1 PUSH2 0x1C01 JUMP JUMPDEST PUSH1 0x1 PUSH1 0x1 PUSH1 0xA0 SHL SUB AND EQ PUSH2 0xDB2 JUMPI PUSH1 0x40 MLOAD PUSH3 0x461BCD PUSH1 0xE5 SHL DUP2 MSTORE PUSH1 0x20 PUSH1 0x4 DUP3 ADD MSTORE PUSH1 0x25 PUSH1 0x24 DUP3 ADD MSTORE PUSH32 0x5468697320746F6B656E4964206973206E6F74206F776E656420627920636F6E PUSH1 0x44 DUP3 ADD MSTORE PUSH5 0x1D1C9858DD PUSH1 0xDA SHL PUSH1 0x64 DUP3 ADD MSTORE PUSH1 0x84 ADD PUSH2 0x76A JUMP JUMPDEST PUSH1 0x40 MLOAD PUSH4 0x21421707 PUSH1 0xE1 SHL DUP2 MSTORE ADDRESS PUSH1 0x4 DUP3 ADD MSTORE PUSH1 0x1 PUSH1 0x1 PUSH1 0xA0 SHL SUB DUP5 DUP2 AND PUSH1 0x24 DUP4 ADD MSTORE PUSH1 0x44 DUP3 ADD DUP4 SWAP1 MSTORE DUP4 AND SWAP1 PUSH4 0x42842E0E SWAP1 PUSH1 0x64 ADD PUSH1 0x0 PUSH1 0x40 MLOAD DUP1 DUP4 SUB DUP2 PUSH1 0x0 DUP8 DUP1 EXTCODESIZE ISZERO DUP1 ISZERO PUSH2 0xE02 JUMPI PUSH1 0x0 DUP1 REVERT JUMPDEST POP GAS CALL ISZERO DUP1 ISZERO PUSH2 0xE16 JUMPI RETURNDATASIZE PUSH1 0x0 DUP1 RETURNDATACOPY RETURNDATASIZE PUSH1 0x0 REVERT JUMPDEST POP POP PUSH1 0x40 DUP1 MLOAD PUSH1 0x1 PUSH1 0x1 PUSH1 0xA0 SHL SUB DUP1 DUP9 AND DUP3 MSTORE DUP7 AND PUSH1 0x20 DUP3 ADD MSTORE SWAP1 DUP2 ADD DUP5 SWAP1 MSTORE TIMESTAMP PUSH1 0x60 DUP3 ADD MSTORE PUSH32 0x127A8D3F57942833F6930572BCE52AD882683E36EEB5830D199D3FA4BFA9467 SWAP3 POP PUSH1 0x80 ADD SWAP1 POP PUSH2 0x85D JUMP JUMPDEST PUSH1 0x2 SLOAD PUSH1 0x40 DUP1 MLOAD PUSH4 0x18160DDD PUSH1 0xE0 SHL DUP2 MSTORE SWAP1 MLOAD PUSH1 0x0 SWAP3 PUSH1 0x1 PUSH1 0x1 PUSH1 0xA0 SHL SUB AND SWAP2 PUSH4 0x18160DDD SWAP2 PUSH1 0x4 DUP1 DUP4 ADD SWAP3 PUSH1 0x20 SWAP3 SWAP2 SWAP1 DUP3 SWAP1 SUB ADD DUP2 DUP7 GAS STATICCALL ISZERO DUP1 ISZERO PUSH2 0x717 JUMPI RETURNDATASIZE PUSH1 0x0 DUP1 RETURNDATACOPY RETURNDATASIZE PUSH1 0x0 REVERT JUMPDEST PUSH1 0x2 PUSH1 0x1 SLOAD SUB PUSH2 0xF05 JUMPI PUSH1 0x40 MLOAD PUSH3 0x461BCD PUSH1 0xE5 SHL DUP2 MSTORE PUSH1 0x20 PUSH1 0x4 DUP3 ADD MSTORE PUSH1 0x1F PUSH1 0x24 DUP3 ADD MSTORE PUSH32 0x5265656E7472616E637947756172643A207265656E7472616E742063616C6C00 PUSH1 0x44 DUP3 ADD MSTORE PUSH1 0x64 ADD PUSH2 0x76A JUMP JUMPDEST PUSH1 0x2 PUSH1 0x1 SWAP1 DUP2 SSTORE PUSH1 0x5 SLOAD PUSH1 0xFF AND ISZERO ISZERO EQ PUSH2 0xF61 JUMPI PUSH1 0x40 MLOAD PUSH3 0x461BCD PUSH1 0xE5 SHL DUP2 MSTORE PUSH1 0x20 PUSH1 0x4 DUP3 ADD MSTORE PUSH1 0x1B PUSH1 0x24 DUP3 ADD MSTORE PUSH32 0x57686974656C697374206E6F74206F70656E20746F206D696E742E0000000000 PUSH1 0x44 DUP3 ADD MSTORE PUSH1 0x64 ADD PUSH2 0x76A JUMP JUMPDEST ORIGIN CALLER EQ PUSH2 0xFB0 JUMPI PUSH1 0x40 MLOAD PUSH3 0x461BCD PUSH1 0xE5 SHL DUP2 MSTORE PUSH1 0x20 PUSH1 0x4 DUP3 ADD MSTORE PUSH1 0x1B PUSH1 0x24 DUP3 ADD MSTORE PUSH32 0x6861686120436F6E74726163742063616E27742063616C6C206D650000000000 PUSH1 0x44 DUP3 ADD MSTORE PUSH1 0x64 ADD PUSH2 0x76A JUMP JUMPDEST PUSH1 0x2 SLOAD PUSH1 0x40 MLOAD PUSH4 0x55138F0D PUSH1 0xE1 SHL DUP2 MSTORE ADDRESS PUSH1 0x4 DUP3 ADD MSTORE PUSH1 0x1 PUSH1 0x1 PUSH1 0xA0 SHL SUB SWAP1 SWAP2 AND SWAP1 PUSH4 0xAA271E1A SWAP1 PUSH1 0x24 ADD PUSH1 0x20 PUSH1 0x40 MLOAD DUP1 DUP4 SUB DUP2 DUP7 GAS STATICCALL ISZERO DUP1 ISZERO PUSH2 0xFF8 JUMPI RETURNDATASIZE PUSH1 0x0 DUP1 RETURNDATACOPY RETURNDATASIZE PUSH1 0x0 REVERT JUMPDEST POP POP POP POP PUSH1 0x40 MLOAD RETURNDATASIZE PUSH1 0x1F NOT PUSH1 0x1F DUP3 ADD AND DUP3 ADD DUP1 PUSH1 0x40 MSTORE POP DUP2 ADD SWAP1 PUSH2 0x101C SWAP2 SWAP1 PUSH2 0x1BDF JUMP JUMPDEST PUSH2 0x1068 JUMPI PUSH1 0x40 MLOAD PUSH3 0x461BCD PUSH1 0xE5 SHL DUP2 MSTORE PUSH1 0x20 PUSH1 0x4 DUP3 ADD MSTORE PUSH1 0x1E PUSH1 0x24 DUP3 ADD MSTORE PUSH32 0x436F6E7472616374204D696E74206973206E6F7420617070726F7665642E0000 PUSH1 0x44 DUP3 ADD MSTORE PUSH1 0x64 ADD PUSH2 0x76A JUMP JUMPDEST PUSH2 0x10BE PUSH1 0x5 PUSH1 0x2 SWAP1 SLOAD SWAP1 PUSH2 0x100 EXP SWAP1 DIV PUSH1 0x1 PUSH1 0x1 PUSH1 0xA0 SHL SUB AND CALLER DUP5 DUP5 DUP1 DUP1 PUSH1 0x1F ADD PUSH1 0x20 DUP1 SWAP2 DIV MUL PUSH1 0x20 ADD PUSH1 0x40 MLOAD SWAP1 DUP2 ADD PUSH1 0x40 MSTORE DUP1 SWAP4 SWAP3 SWAP2 SWAP1 DUP2 DUP2 MSTORE PUSH1 0x20 ADD DUP4 DUP4 DUP1 DUP3 DUP5 CALLDATACOPY PUSH1 0x0 SWAP3 ADD SWAP2 SWAP1 SWAP2 MSTORE POP PUSH2 0x68A SWAP3 POP POP POP JUMP JUMPDEST PUSH2 0x1115 JUMPI PUSH1 0x40 MLOAD PUSH3 0x461BCD PUSH1 0xE5 SHL DUP2 MSTORE PUSH1 0x20 PUSH1 0x4 DUP3 ADD MSTORE PUSH1 0x22 PUSH1 0x24 DUP3 ADD MSTORE PUSH32 0x556E617574686F72697A6564205075626C69634D696E74205468697320557365 PUSH1 0x44 DUP3 ADD MSTORE PUSH2 0x3917 PUSH1 0xF1 SHL PUSH1 0x64 DUP3 ADD MSTORE PUSH1 0x84 ADD PUSH2 0x76A JUMP JUMPDEST PUSH1 0x2 SLOAD PUSH1 0x40 MLOAD PUSH4 0x28512065 PUSH1 0xE2 SHL DUP2 MSTORE CALLER PUSH1 0x4 DUP3 ADD MSTORE PUSH1 0x1 PUSH1 0x24 DUP3 ADD DUP2 SWAP1 MSTORE SWAP2 PUSH1 0x1 PUSH1 0x1 PUSH1 0xA0 SHL SUB AND SWAP1 PUSH4 0xA1448194 SWAP1 PUSH1 0x44 ADD PUSH1 0x0 PUSH1 0x40 MLOAD DUP1 DUP4 SUB DUP2 PUSH1 0x0 DUP8 DUP1 EXTCODESIZE ISZERO DUP1 ISZERO PUSH2 0x1162 JUMPI PUSH1 0x0 DUP1 REVERT JUMPDEST POP GAS CALL ISZERO DUP1 ISZERO PUSH2 0x1176 JUMPI RETURNDATASIZE PUSH1 0x0 DUP1 RETURNDATACOPY RETURNDATASIZE PUSH1 0x0 REVERT JUMPDEST POP POP PUSH1 0x40 DUP1 MLOAD DUP5 DUP2 MSTORE TIMESTAMP PUSH1 0x20 DUP3 ADD MSTORE CALLER SWAP4 POP PUSH32 0xC1A73B31B32801EBBB4CAE30B73EAE4345BE9F2915EA60306383C245EF8FAC44 SWAP3 POP ADD PUSH1 0x40 MLOAD DUP1 SWAP2 SUB SWAP1 LOG2 POP POP PUSH1 0x1 DUP1 SSTORE POP JUMP JUMPDEST PUSH1 0x0 SLOAD PUSH1 0x1 PUSH1 0x1 PUSH1 0xA0 SHL SUB AND CALLER EQ PUSH2 0x11E7 JUMPI PUSH1 0x40 MLOAD PUSH3 0x461BCD PUSH1 0xE5 SHL DUP2 MSTORE PUSH1 0x4 ADD PUSH2 0x76A SWAP1 PUSH2 0x1BAA JUMP JUMPDEST PUSH1 0x1 PUSH1 0x1 PUSH1 0xA0 SHL SUB DUP2 AND PUSH2 0x124C JUMPI PUSH1 0x40 MLOAD PUSH3 0x461BCD PUSH1 0xE5 SHL DUP2 MSTORE PUSH1 0x20 PUSH1 0x4 DUP3 ADD MSTORE PUSH1 0x26 PUSH1 0x24 DUP3 ADD MSTORE PUSH32 0x4F776E61626C653A206E6577206F776E657220697320746865207A65726F2061 PUSH1 0x44 DUP3 ADD MSTORE PUSH6 0x646472657373 PUSH1 0xD0 SHL PUSH1 0x64 DUP3 ADD MSTORE PUSH1 0x84 ADD PUSH2 0x76A JUMP JUMPDEST PUSH2 0x1255 DUP2 PUSH2 0x1742 JUMP JUMPDEST POP JUMP JUMPDEST PUSH1 0x2 PUSH1 0x1 SLOAD SUB PUSH2 0x12AA JUMPI PUSH1 0x40 MLOAD PUSH3 0x461BCD PUSH1 0xE5 SHL DUP2 MSTORE PUSH1 0x20 PUSH1 0x4 DUP3 ADD MSTORE PUSH1 0x1F PUSH1 0x24 DUP3 ADD MSTORE PUSH32 0x5265656E7472616E637947756172643A207265656E7472616E742063616C6C00 PUSH1 0x44 DUP3 ADD MSTORE PUSH1 0x64 ADD PUSH2 0x76A JUMP JUMPDEST PUSH1 0x2 PUSH1 0x1 SSTORE DUP1 PUSH2 0x12F4 JUMPI PUSH1 0x40 MLOAD PUSH3 0x461BCD PUSH1 0xE5 SHL DUP2 MSTORE PUSH1 0x20 PUSH1 0x4 DUP3 ADD MSTORE PUSH1 0x15 PUSH1 0x24 DUP3 ADD MSTORE PUSH21 0x26B4B73A1034B9903737BA1030B8383937BB32B217 PUSH1 0x59 SHL PUSH1 0x44 DUP3 ADD MSTORE PUSH1 0x64 ADD PUSH2 0x76A JUMP JUMPDEST DUP1 PUSH1 0x3 SLOAD EQ PUSH2 0x1355 JUMPI PUSH1 0x40 MLOAD PUSH3 0x461BCD PUSH1 0xE5 SHL DUP2 MSTORE PUSH1 0x20 PUSH1 0x4 DUP3 ADD MSTORE PUSH1 0x27 PUSH1 0x24 DUP3 ADD MSTORE PUSH32 0x436F6E747261637420617265206E6F7420696E2074686973206D696E74696E67 PUSH1 0x44 DUP3 ADD MSTORE PUSH7 0x103937BAB73217 PUSH1 0xC9 SHL PUSH1 0x64 DUP3 ADD MSTORE PUSH1 0x84 ADD PUSH2 0x76A JUMP JUMPDEST PUSH2 0x135D PUSH2 0x6CD JUMP JUMPDEST DUP3 PUSH2 0x1366 PUSH2 0xE69 JUMP JUMPDEST PUSH2 0x1370 SWAP2 SWAP1 PUSH2 0x1C34 JUMP JUMPDEST LT PUSH2 0x13AB JUMPI PUSH1 0x40 MLOAD PUSH3 0x461BCD PUSH1 0xE5 SHL DUP2 MSTORE PUSH1 0x20 PUSH1 0x4 DUP3 ADD MSTORE PUSH1 0xB PUSH1 0x24 DUP3 ADD MSTORE PUSH11 0x4F76657220737570706C79 PUSH1 0xA8 SHL PUSH1 0x44 DUP3 ADD MSTORE PUSH1 0x64 ADD PUSH2 0x76A JUMP JUMPDEST CALLER PUSH1 0x0 SWAP1 DUP2 MSTORE PUSH1 0x6 PUSH1 0x20 SWAP1 DUP2 MSTORE PUSH1 0x40 DUP1 DUP4 KECCAK256 DUP5 DUP5 MSTORE SWAP1 SWAP2 MSTORE SWAP1 KECCAK256 SLOAD PUSH1 0xFF AND ISZERO PUSH2 0x1416 JUMPI PUSH1 0x40 MLOAD PUSH3 0x461BCD PUSH1 0xE5 SHL DUP2 MSTORE PUSH1 0x20 PUSH1 0x4 DUP3 ADD MSTORE PUSH1 0x17 PUSH1 0x24 DUP3 ADD MSTORE PUSH32 0x596F752061726520616C7265616479206D696E7465642E000000000000000000 PUSH1 0x44 DUP3 ADD MSTORE PUSH1 0x64 ADD PUSH2 0x76A JUMP JUMPDEST PUSH1 0x2 SLOAD PUSH1 0x40 MLOAD PUSH4 0x55138F0D PUSH1 0xE1 SHL DUP2 MSTORE ADDRESS PUSH1 0x4 DUP3 ADD MSTORE PUSH1 0x1 PUSH1 0x1 PUSH1 0xA0 SHL SUB SWAP1 SWAP2 AND SWAP1 PUSH4 0xAA271E1A SWAP1 PUSH1 0x24 ADD PUSH1 0x20 PUSH1 0x40 MLOAD DUP1 DUP4 SUB DUP2 DUP7 GAS STATICCALL ISZERO DUP1 ISZERO PUSH2 0x145E JUMPI RETURNDATASIZE PUSH1 0x0 DUP1 RETURNDATACOPY RETURNDATASIZE PUSH1 0x0 REVERT JUMPDEST POP POP POP POP PUSH1 0x40 MLOAD RETURNDATASIZE PUSH1 0x1F NOT PUSH1 0x1F DUP3 ADD AND DUP3 ADD DUP1 PUSH1 0x40 MSTORE POP DUP2 ADD SWAP1 PUSH2 0x1482 SWAP2 SWAP1 PUSH2 0x1BDF JUMP JUMPDEST PUSH2 0x14CE JUMPI PUSH1 0x40 MLOAD PUSH3 0x461BCD PUSH1 0xE5 SHL DUP2 MSTORE PUSH1 0x20 PUSH1 0x4 DUP3 ADD MSTORE PUSH1 0x1E PUSH1 0x24 DUP3 ADD MSTORE PUSH32 0x436F6E7472616374204D696E74206973206E6F7420617070726F7665642E0000 PUSH1 0x44 DUP3 ADD MSTORE PUSH1 0x64 ADD PUSH2 0x76A JUMP JUMPDEST PUSH2 0x1551 DUP5 DUP5 DUP1 DUP1 PUSH1 0x20 MUL PUSH1 0x20 ADD PUSH1 0x40 MLOAD SWAP1 DUP2 ADD PUSH1 0x40 MSTORE DUP1 SWAP4 SWAP3 SWAP2 SWAP1 DUP2 DUP2 MSTORE PUSH1 0x20 ADD DUP4 DUP4 PUSH1 0x20 MUL DUP1 DUP3 DUP5 CALLDATACOPY PUSH1 0x0 SWAP3 ADD SWAP2 SWAP1 SWAP2 MSTORE POP POP PUSH1 0x4 SLOAD PUSH1 0x40 MLOAD PUSH12 0xFFFFFFFFFFFFFFFFFFFFFFFF NOT CALLER PUSH1 0x60 SHL AND PUSH1 0x20 DUP3 ADD MSTORE PUSH1 0x34 DUP2 ADD DUP9 SWAP1 MSTORE PUSH1 0x54 DUP2 ADD DUP8 SWAP1 MSTORE SWAP1 SWAP3 POP PUSH1 0x74 ADD SWAP1 POP PUSH1 0x40 MLOAD PUSH1 0x20 DUP2 DUP4 SUB SUB DUP2 MSTORE SWAP1 PUSH1 0x40 MSTORE DUP1 MLOAD SWAP1 PUSH1 0x20 ADD KECCAK256 PUSH2 0x1792 JUMP JUMPDEST PUSH2 0x15AB JUMPI PUSH1 0x40 MLOAD PUSH3 0x461BCD PUSH1 0xE5 SHL DUP2 MSTORE PUSH1 0x20 PUSH1 0x4 DUP3 ADD MSTORE PUSH1 0x25 PUSH1 0x24 DUP3 ADD MSTORE PUSH32 0x556E617574686F72697A65642057686974656C6973744D696E74205468697320 PUSH1 0x44 DUP3 ADD MSTORE PUSH5 0x2AB9B2B917 PUSH1 0xD9 SHL PUSH1 0x64 DUP3 ADD MSTORE PUSH1 0x84 ADD PUSH2 0x76A JUMP JUMPDEST CALLER PUSH1 0x0 DUP2 DUP2 MSTORE PUSH1 0x6 PUSH1 0x20 SWAP1 DUP2 MSTORE PUSH1 0x40 DUP1 DUP4 KECCAK256 DUP6 DUP5 MSTORE DUP3 MSTORE DUP1 DUP4 KECCAK256 DUP1 SLOAD PUSH1 0xFF NOT AND PUSH1 0x1 OR SWAP1 SSTORE SWAP3 DUP3 MSTORE PUSH1 0x7 DUP2 MSTORE DUP3 DUP3 KECCAK256 DUP5 DUP4 MSTORE SWAP1 MSTORE SWAP1 DUP2 KECCAK256 DUP1 SLOAD DUP5 SWAP3 SWAP1 PUSH2 0x15F2 SWAP1 DUP5 SWAP1 PUSH2 0x1C34 JUMP JUMPDEST SWAP1 SWAP2 SSTORE POP POP PUSH1 0x2 SLOAD PUSH1 0x40 MLOAD PUSH4 0x28512065 PUSH1 0xE2 SHL DUP2 MSTORE CALLER PUSH1 0x4 DUP3 ADD MSTORE PUSH1 0x24 DUP2 ADD DUP5 SWAP1 MSTORE PUSH1 0x1 PUSH1 0x1 PUSH1 0xA0 SHL SUB SWAP1 SWAP2 AND SWAP1 PUSH4 0xA1448194 SWAP1 PUSH1 0x44 ADD PUSH1 0x0 PUSH1 0x40 MLOAD DUP1 DUP4 SUB DUP2 PUSH1 0x0 DUP8 DUP1 EXTCODESIZE ISZERO DUP1 ISZERO PUSH2 0x1643 JUMPI PUSH1 0x0 DUP1 REVERT JUMPDEST POP GAS CALL ISZERO DUP1 ISZERO PUSH2 0x1657 JUMPI RETURNDATASIZE PUSH1 0x0 DUP1 RETURNDATACOPY RETURNDATASIZE PUSH1 0x0 REVERT JUMPDEST POP POP PUSH1 0x40 DUP1 MLOAD DUP6 DUP2 MSTORE TIMESTAMP PUSH1 0x20 DUP3 ADD MSTORE CALLER SWAP4 POP PUSH32 0xE9E607753E80542A9021D5149990F18919907F0136FAD424EAAC3D15056CCF6E SWAP3 POP ADD PUSH1 0x40 MLOAD DUP1 SWAP2 SUB SWAP1 LOG2 POP POP PUSH1 0x1 DUP1 SSTORE POP POP JUMP JUMPDEST PUSH1 0x40 MLOAD PUSH32 0x19457468657265756D205369676E6564204D6573736167653A0A333200000000 PUSH1 0x20 DUP3 ADD MSTORE PUSH1 0x3C DUP2 ADD DUP3 SWAP1 MSTORE PUSH1 0x0 SWAP1 PUSH1 0x5C ADD PUSH2 0x66D JUMP JUMPDEST PUSH1 0x0 SLOAD PUSH1 0x1 PUSH1 0x1 PUSH1 0xA0 SHL SUB AND CALLER EQ PUSH2 0x1704 JUMPI PUSH1 0x40 MLOAD PUSH3 0x461BCD PUSH1 0xE5 SHL DUP2 MSTORE PUSH1 0x4 ADD PUSH2 0x76A SWAP1 PUSH2 0x1BAA JUMP JUMPDEST PUSH1 0x3 DUP1 SLOAD SWAP1 DUP3 SWAP1 SSTORE PUSH1 0x40 DUP1 MLOAD DUP3 DUP2 MSTORE PUSH1 0x20 DUP2 ADD DUP5 SWAP1 MSTORE PUSH32 0x521EC96875CA228CD2FC1DBD4C927A34328C9CE1A83BCB8C1F633F012C90D785 SWAP2 ADD PUSH2 0x8F6 JUMP JUMPDEST PUSH1 0x0 DUP1 SLOAD PUSH1 0x1 PUSH1 0x1 PUSH1 0xA0 SHL SUB DUP4 DUP2 AND PUSH1 0x1 PUSH1 0x1 PUSH1 0xA0 SHL SUB NOT DUP4 AND DUP2 OR DUP5 SSTORE PUSH1 0x40 MLOAD SWAP2 SWAP1 SWAP3 AND SWAP3 DUP4 SWAP2 PUSH32 0x8BE0079C531659141344CD1FD0A4F28419497F9722A3DAAFE3B4186F6B6457E0 SWAP2 SWAP1 LOG3 POP POP JUMP JUMPDEST PUSH1 0x0 DUP3 PUSH2 0x179F DUP6 DUP5 PUSH2 0x17A8 JUMP JUMPDEST EQ SWAP5 SWAP4 POP POP POP POP JUMP JUMPDEST PUSH1 0x0 DUP2 DUP2 JUMPDEST DUP5 MLOAD DUP2 LT ISZERO PUSH2 0x1814 JUMPI PUSH1 0x0 DUP6 DUP3 DUP2 MLOAD DUP2 LT PUSH2 0x17CA JUMPI PUSH2 0x17CA PUSH2 0x1C4C JUMP JUMPDEST PUSH1 0x20 MUL PUSH1 0x20 ADD ADD MLOAD SWAP1 POP DUP1 DUP4 GT PUSH2 0x17F0 JUMPI PUSH1 0x0 DUP4 DUP2 MSTORE PUSH1 0x20 DUP3 SWAP1 MSTORE PUSH1 0x40 SWAP1 KECCAK256 SWAP3 POP PUSH2 0x1801 JUMP JUMPDEST PUSH1 0x0 DUP2 DUP2 MSTORE PUSH1 0x20 DUP5 SWAP1 MSTORE PUSH1 0x40 SWAP1 KECCAK256 SWAP3 POP JUMPDEST POP DUP1 PUSH2 0x180C DUP2 PUSH2 0x1C62 JUMP JUMPDEST SWAP2 POP POP PUSH2 0x17AD JUMP JUMPDEST POP SWAP4 SWAP3 POP POP POP JUMP JUMPDEST PUSH1 0x1 PUSH1 0x1 PUSH1 0xA0 SHL SUB DUP2 AND DUP2 EQ PUSH2 0x1255 JUMPI PUSH1 0x0 DUP1 REVERT JUMPDEST PUSH1 0x0 PUSH1 0x20 DUP3 DUP5 SUB SLT ISZERO PUSH2 0x1843 JUMPI PUSH1 0x0 DUP1 REVERT JUMPDEST DUP2 CALLDATALOAD PUSH2 0x184E DUP2 PUSH2 0x181C JUMP JUMPDEST SWAP4 SWAP3 POP POP POP JUMP JUMPDEST PUSH4 0x4E487B71 PUSH1 0xE0 SHL PUSH1 0x0 MSTORE PUSH1 0x41 PUSH1 0x4 MSTORE PUSH1 0x24 PUSH1 0x0 REVERT JUMPDEST PUSH1 0x0 DUP3 PUSH1 0x1F DUP4 ADD SLT PUSH2 0x187C JUMPI PUSH1 0x0 DUP1 REVERT JUMPDEST DUP2 CALLDATALOAD PUSH8 0xFFFFFFFFFFFFFFFF DUP1 DUP3 GT ISZERO PUSH2 0x1897 JUMPI PUSH2 0x1897 PUSH2 0x1855 JUMP JUMPDEST PUSH1 0x40 MLOAD PUSH1 0x1F DUP4 ADD PUSH1 0x1F NOT SWAP1 DUP2 AND PUSH1 0x3F ADD AND DUP2 ADD SWAP1 DUP3 DUP3 GT DUP2 DUP4 LT OR ISZERO PUSH2 0x18BF JUMPI PUSH2 0x18BF PUSH2 0x1855 JUMP JUMPDEST DUP2 PUSH1 0x40 MSTORE DUP4 DUP2 MSTORE DUP7 PUSH1 0x20 DUP6 DUP9 ADD ADD GT ISZERO PUSH2 0x18D8 JUMPI PUSH1 0x0 DUP1 REVERT JUMPDEST DUP4 PUSH1 0x20 DUP8 ADD PUSH1 0x20 DUP4 ADD CALLDATACOPY PUSH1 0x0 PUSH1 0x20 DUP6 DUP4 ADD ADD MSTORE DUP1 SWAP5 POP POP POP POP POP SWAP3 SWAP2 POP POP JUMP JUMPDEST PUSH1 0x0 DUP1 PUSH1 0x0 PUSH1 0x60 DUP5 DUP7 SUB SLT ISZERO PUSH2 0x190D JUMPI PUSH1 0x0 DUP1 REVERT JUMPDEST DUP4 CALLDATALOAD PUSH2 0x1918 DUP2 PUSH2 0x181C JUMP JUMPDEST SWAP3 POP PUSH1 0x20 DUP5 ADD CALLDATALOAD PUSH2 0x1928 DUP2 PUSH2 0x181C JUMP JUMPDEST SWAP2 POP PUSH1 0x40 DUP5 ADD CALLDATALOAD PUSH8 0xFFFFFFFFFFFFFFFF DUP2 GT ISZERO PUSH2 0x1944 JUMPI PUSH1 0x0 DUP1 REVERT JUMPDEST PUSH2 0x1950 DUP7 DUP3 DUP8 ADD PUSH2 0x186B JUMP JUMPDEST SWAP2 POP POP SWAP3 POP SWAP3 POP SWAP3 JUMP JUMPDEST PUSH1 0x0 PUSH1 0x20 DUP3 DUP5 SUB SLT ISZERO PUSH2 0x196C JUMPI PUSH1 0x0 DUP1 REVERT JUMPDEST POP CALLDATALOAD SWAP2 SWAP1 POP JUMP JUMPDEST PUSH1 0x0 DUP1 PUSH1 0x40 DUP4 DUP6 SUB SLT ISZERO PUSH2 0x1986 JUMPI PUSH1 0x0 DUP1 REVERT JUMPDEST DUP3 CALLDATALOAD PUSH2 0x1991 DUP2 PUSH2 0x181C JUMP JUMPDEST SWAP2 POP PUSH1 0x20 DUP4 ADD CALLDATALOAD PUSH2 0x19A1 DUP2 PUSH2 0x181C JUMP JUMPDEST DUP1 SWAP2 POP POP SWAP3 POP SWAP3 SWAP1 POP JUMP JUMPDEST PUSH1 0x0 DUP1 PUSH1 0x40 DUP4 DUP6 SUB SLT ISZERO PUSH2 0x19BF JUMPI PUSH1 0x0 DUP1 REVERT JUMPDEST DUP3 CALLDATALOAD SWAP2 POP PUSH1 0x20 DUP4 ADD CALLDATALOAD PUSH8 0xFFFFFFFFFFFFFFFF DUP2 GT ISZERO PUSH2 0x19DD JUMPI PUSH1 0x0 DUP1 REVERT JUMPDEST PUSH2 0x19E9 DUP6 DUP3 DUP7 ADD PUSH2 0x186B JUMP JUMPDEST SWAP2 POP POP SWAP3 POP SWAP3 SWAP1 POP JUMP JUMPDEST PUSH1 0x0 PUSH1 0x20 DUP3 DUP5 SUB SLT ISZERO PUSH2 0x1A05 JUMPI PUSH1 0x0 DUP1 REVERT JUMPDEST DUP2 CALLDATALOAD PUSH8 0xFFFFFFFFFFFFFFFF DUP2 GT ISZERO PUSH2 0x1A1C JUMPI PUSH1 0x0 DUP1 REVERT JUMPDEST PUSH2 0x1A28 DUP5 DUP3 DUP6 ADD PUSH2 0x186B JUMP JUMPDEST SWAP5 SWAP4 POP POP POP POP JUMP JUMPDEST PUSH1 0x0 DUP1 PUSH1 0x40 DUP4 DUP6 SUB SLT ISZERO PUSH2 0x1A43 JUMPI PUSH1 0x0 DUP1 REVERT JUMPDEST DUP3 CALLDATALOAD PUSH2 0x1A4E DUP2 PUSH2 0x181C JUMP JUMPDEST SWAP5 PUSH1 0x20 SWAP4 SWAP1 SWAP4 ADD CALLDATALOAD SWAP4 POP POP POP JUMP JUMPDEST PUSH1 0x0 DUP1 PUSH1 0x0 PUSH1 0x60 DUP5 DUP7 SUB SLT ISZERO PUSH2 0x1A71 JUMPI PUSH1 0x0 DUP1 REVERT JUMPDEST DUP4 CALLDATALOAD PUSH2 0x1A7C DUP2 PUSH2 0x181C JUMP JUMPDEST SWAP3 POP PUSH1 0x20 DUP5 ADD CALLDATALOAD PUSH2 0x1A8C DUP2 PUSH2 0x181C JUMP JUMPDEST SWAP3 SWAP6 SWAP3 SWAP5 POP POP POP PUSH1 0x40 SWAP2 SWAP1 SWAP2 ADD CALLDATALOAD SWAP1 JUMP JUMPDEST PUSH1 0x0 DUP1 PUSH1 0x20 DUP4 DUP6 SUB SLT ISZERO PUSH2 0x1AB0 JUMPI PUSH1 0x0 DUP1 REVERT JUMPDEST DUP3 CALLDATALOAD PUSH8 0xFFFFFFFFFFFFFFFF DUP1 DUP3 GT ISZERO PUSH2 0x1AC8 JUMPI PUSH1 0x0 DUP1 REVERT JUMPDEST DUP2 DUP6 ADD SWAP2 POP DUP6 PUSH1 0x1F DUP4 ADD SLT PUSH2 0x1ADC JUMPI PUSH1 0x0 DUP1 REVERT JUMPDEST DUP2 CALLDATALOAD DUP2 DUP2 GT ISZERO PUSH2 0x1AEB JUMPI PUSH1 0x0 DUP1 REVERT JUMPDEST DUP7 PUSH1 0x20 DUP3 DUP6 ADD ADD GT ISZERO PUSH2 0x1AFD JUMPI PUSH1 0x0 DUP1 REVERT JUMPDEST PUSH1 0x20 SWAP3 SWAP1 SWAP3 ADD SWAP7 SWAP2 SWAP6 POP SWAP1 SWAP4 POP POP POP POP JUMP JUMPDEST PUSH1 0x0 DUP1 PUSH1 0x0 DUP1 PUSH1 0x60 DUP6 DUP8 SUB SLT ISZERO PUSH2 0x1B25 JUMPI PUSH1 0x0 DUP1 REVERT JUMPDEST DUP5 CALLDATALOAD PUSH8 0xFFFFFFFFFFFFFFFF DUP1 DUP3 GT ISZERO PUSH2 0x1B3D JUMPI PUSH1 0x0 DUP1 REVERT JUMPDEST DUP2 DUP8 ADD SWAP2 POP DUP8 PUSH1 0x1F DUP4 ADD SLT PUSH2 0x1B51 JUMPI PUSH1 0x0 DUP1 REVERT JUMPDEST DUP2 CALLDATALOAD DUP2 DUP2 GT ISZERO PUSH2 0x1B60 JUMPI PUSH1 0x0 DUP1 REVERT JUMPDEST DUP9 PUSH1 0x20 DUP3 PUSH1 0x5 SHL DUP6 ADD ADD GT ISZERO PUSH2 0x1B75 JUMPI PUSH1 0x0 DUP1 REVERT JUMPDEST PUSH1 0x20 SWAP3 DUP4 ADD SWAP10 SWAP1 SWAP9 POP SWAP2 DUP8 ADD CALLDATALOAD SWAP7 PUSH1 0x40 ADD CALLDATALOAD SWAP6 POP SWAP1 SWAP4 POP POP POP POP JUMP JUMPDEST PUSH1 0x0 PUSH1 0x20 DUP3 DUP5 SUB SLT ISZERO PUSH2 0x1BA3 JUMPI PUSH1 0x0 DUP1 REVERT JUMPDEST POP MLOAD SWAP2 SWAP1 POP JUMP JUMPDEST PUSH1 0x20 DUP1 DUP3 MSTORE DUP2 DUP2 ADD MSTORE PUSH32 0x4F776E61626C653A2063616C6C6572206973206E6F7420746865206F776E6572 PUSH1 0x40 DUP3 ADD MSTORE PUSH1 0x60 ADD SWAP1 JUMP JUMPDEST PUSH1 0x0 PUSH1 0x20 DUP3 DUP5 SUB SLT ISZERO PUSH2 0x1BF1 JUMPI PUSH1 0x0 DUP1 REVERT JUMPDEST DUP2 MLOAD DUP1 ISZERO ISZERO DUP2 EQ PUSH2 0x184E JUMPI PUSH1 0x0 DUP1 REVERT JUMPDEST PUSH1 0x0 PUSH1 0x20 DUP3 DUP5 SUB SLT ISZERO PUSH2 0x1C13 JUMPI PUSH1 0x0 DUP1 REVERT JUMPDEST DUP2 MLOAD PUSH2 0x184E DUP2 PUSH2 0x181C JUMP JUMPDEST PUSH4 0x4E487B71 PUSH1 0xE0 SHL PUSH1 0x0 MSTORE PUSH1 0x11 PUSH1 0x4 MSTORE PUSH1 0x24 PUSH1 0x0 REVERT JUMPDEST PUSH1 0x0 DUP3 NOT DUP3 GT ISZERO PUSH2 0x1C47 JUMPI PUSH2 0x1C47 PUSH2 0x1C1E JUMP JUMPDEST POP ADD SWAP1 JUMP JUMPDEST PUSH4 0x4E487B71 PUSH1 0xE0 SHL PUSH1 0x0 MSTORE PUSH1 0x32 PUSH1 0x4 MSTORE PUSH1 0x24 PUSH1 0x0 REVERT JUMPDEST PUSH1 0x0 PUSH1 0x1 DUP3 ADD PUSH2 0x1C74 JUMPI PUSH2 0x1C74 PUSH2 0x1C1E JUMP JUMPDEST POP PUSH1 0x1 ADD SWAP1 JUMP INVALID LOG2 PUSH5 0x6970667358 0x22 SLT KECCAK256 EXTCODESIZE EXTCODEHASH 0xD8 SELFBALANCE 0x2D 0xEA CALLER 0xC8 PUSH16 0x30D640F6977E15B9A3B814EA4BA61376 CODESIZE MSTORE DUP7 0xFB JUMPI 0xDB 0xEE PUSH5 0x736F6C6343 STOP ADDMOD 0xF STOP CALLER 0x4F PUSH24 0x6E61626C653A2063616C6C6572206973206E6F7420746865 KECCAK256 PUSH16 0x776E6572000000000000000000000000 "
				},
				"gasEstimates": {
					"creation": {
						"codeDepositCost": "1469000",
						"executionCost": "infinite",
						"totalCost": "infinite"
					},
					"external": {
						"DEFAULT()": "231",
						"NAGA_HOLDER_MINT_ROUND()": "230",
						"WHITELIST_MINT_ROUND()": "295",
						"WITHDRAW_ROLE()": "229",
						"allowlistMint(bytes32[],uint256,bytes32)": "infinite",
						"currentMintRound()": "2351",
						"getEthSignedMessageHash(bytes32)": "511",
						"getMaxSupply()": "infinite",
						"getMessageHash(address)": "604",
						"getTotalSupply()": "infinite",
						"isPrivateMintOpen()": "2388",
						"isPublicMintOpen()": "2378",
						"isUserMinted(address,bytes32)": "2752",
						"merkleRoot()": "2352",
						"nagaKidContract()": "2448",
						"owner()": "2420",
						"publicMint(bytes)": "infinite",
						"recoverSigner(bytes32,bytes)": "infinite",
						"renounceOwnership()": "28204",
						"setMerkleRoot(bytes32)": "28038",
						"setNagaKidContract(address)": "28121",
						"setRound(bytes32)": "28014",
						"setSigner(address)": "28149",
						"signer()": "2439",
						"splitSignature(bytes)": "infinite",
						"transferOwnership(address)": "infinite",
						"userMintedAmount(address,bytes32)": "2731",
						"verify(address,address,bytes)": "infinite",
						"withdraw(address)": "infinite",
						"withdrawCurrency(address,address)": "infinite",
						"withdrawNFT(address,address,uint256)": "infinite"
					}
				},
				"methodIdentifiers": {
					"DEFAULT()": "0a25dea9",
					"NAGA_HOLDER_MINT_ROUND()": "24c37a85",
					"WHITELIST_MINT_ROUND()": "f500cdfc",
					"WITHDRAW_ROLE()": "e02023a1",
					"allowlistMint(bytes32[],uint256,bytes32)": "f6b48e55",
					"currentMintRound()": "ef5fe79f",
					"getEthSignedMessageHash(bytes32)": "fa540801",
					"getMaxSupply()": "4c0f38c2",
					"getMessageHash(address)": "1f5ac1b2",
					"getTotalSupply()": "c4e41b22",
					"isPrivateMintOpen()": "8907f3fa",
					"isPublicMintOpen()": "a4435dfd",
					"isUserMinted(address,bytes32)": "ffdc6129",
					"merkleRoot()": "2eb4a7ab",
					"nagaKidContract()": "df4e5881",
					"owner()": "8da5cb5b",
					"publicMint(bytes)": "de6892c8",
					"recoverSigner(bytes32,bytes)": "97aba7f9",
					"renounceOwnership()": "715018a6",
					"setMerkleRoot(bytes32)": "7cb64759",
					"setNagaKidContract(address)": "9e6c8855",
					"setRound(bytes32)": "ff05fe4a",
					"setSigner(address)": "6c19e783",
					"signer()": "238ac933",
					"splitSignature(bytes)": "a7bb5803",
					"transferOwnership(address)": "f2fde38b",
					"userMintedAmount(address,bytes32)": "b5abafa1",
					"verify(address,address,bytes)": "42920a46",
					"withdraw(address)": "51cff8d9",
					"withdrawCurrency(address,address)": "8407ecc4",
					"withdrawNFT(address,address,uint256)": "bff863ec"
				}
			},
			"storageLayout": {
				"storage": [
					{
						"astId": 7,
						"contract": "ERC721A/MintNagaKids.sol:MintNagaKids",
						"label": "_owner",
						"offset": 0,
						"slot": "0",
						"type": "t_address"
					},
					{
						"astId": 115,
						"contract": "ERC721A/MintNagaKids.sol:MintNagaKids",
						"label": "_status",
						"offset": 0,
						"slot": "1",
						"type": "t_uint256"
					},
					{
						"astId": 530,
						"contract": "ERC721A/MintNagaKids.sol:MintNagaKids",
						"label": "nagaKidContract",
						"offset": 0,
						"slot": "2",
						"type": "t_contract(INagaKid)494"
					},
					{
						"astId": 532,
						"contract": "ERC721A/MintNagaKids.sol:MintNagaKids",
						"label": "currentMintRound",
						"offset": 0,
						"slot": "3",
						"type": "t_bytes32"
					},
					{
						"astId": 534,
						"contract": "ERC721A/MintNagaKids.sol:MintNagaKids",
						"label": "merkleRoot",
						"offset": 0,
						"slot": "4",
						"type": "t_bytes32"
					},
					{
						"astId": 537,
						"contract": "ERC721A/MintNagaKids.sol:MintNagaKids",
						"label": "isPublicMintOpen",
						"offset": 0,
						"slot": "5",
						"type": "t_bool"
					},
					{
						"astId": 540,
						"contract": "ERC721A/MintNagaKids.sol:MintNagaKids",
						"label": "isPrivateMintOpen",
						"offset": 1,
						"slot": "5",
						"type": "t_bool"
					},
					{
						"astId": 542,
						"contract": "ERC721A/MintNagaKids.sol:MintNagaKids",
						"label": "signer",
						"offset": 2,
						"slot": "5",
						"type": "t_address"
					},
					{
						"astId": 548,
						"contract": "ERC721A/MintNagaKids.sol:MintNagaKids",
						"label": "_isUserMinted",
						"offset": 0,
						"slot": "6",
						"type": "t_mapping(t_address,t_mapping(t_bytes32,t_bool))"
					},
					{
						"astId": 554,
						"contract": "ERC721A/MintNagaKids.sol:MintNagaKids",
						"label": "_userMintedAmount",
						"offset": 0,
						"slot": "7",
						"type": "t_mapping(t_address,t_mapping(t_bytes32,t_uint256))"
					}
				],
				"types": {
					"t_address": {
						"encoding": "inplace",
						"label": "address",
						"numberOfBytes": "20"
					},
					"t_bool": {
						"encoding": "inplace",
						"label": "bool",
						"numberOfBytes": "1"
					},
					"t_bytes32": {
						"encoding": "inplace",
						"label": "bytes32",
						"numberOfBytes": "32"
					},
					"t_contract(INagaKid)494": {
						"encoding": "inplace",
						"label": "contract INagaKid",
						"numberOfBytes": "20"
					},
					"t_mapping(t_address,t_mapping(t_bytes32,t_bool))": {
						"encoding": "mapping",
						"key": "t_address",
						"label": "mapping(address => mapping(bytes32 => bool))",
						"numberOfBytes": "32",
						"value": "t_mapping(t_bytes32,t_bool)"
					},
					"t_mapping(t_address,t_mapping(t_bytes32,t_uint256))": {
						"encoding": "mapping",
						"key": "t_address",
						"label": "mapping(address => mapping(bytes32 => uint256))",
						"numberOfBytes": "32",
						"value": "t_mapping(t_bytes32,t_uint256)"
					},
					"t_mapping(t_bytes32,t_bool)": {
						"encoding": "mapping",
						"key": "t_bytes32",
						"label": "mapping(bytes32 => bool)",
						"numberOfBytes": "32",
						"value": "t_bool"
					},
					"t_mapping(t_bytes32,t_uint256)": {
						"encoding": "mapping",
						"key": "t_bytes32",
						"label": "mapping(bytes32 => uint256)",
						"numberOfBytes": "32",
						"value": "t_uint256"
					},
					"t_uint256": {
						"encoding": "inplace",
						"label": "uint256",
						"numberOfBytes": "32"
					}
				}
			},
			"userdoc": {
				"kind": "user",
				"methods": {},
				"version": 1
			}
		}
	}
}