{
	"ERC721A/MintNagaKids.sol": {
		"MintNagaKids": {
			"abi": [
				{
					"inputs": [
						{
							"internalType": "contract INagaKid",
							"name": "_nagaKidContract",
							"type": "address"
						},
						{
							"internalType": "bytes32",
							"name": "_merkleRoot",
							"type": "bytes32"
						}
					],
					"stateMutability": "nonpayable",
					"type": "constructor"
				},
				{
					"anonymous": false,
					"inputs": [
						{
							"indexed": false,
							"internalType": "bytes32",
							"name": "merkleRootBefore",
							"type": "bytes32"
						},
						{
							"indexed": false,
							"internalType": "bytes32",
							"name": "merkleRootAfter",
							"type": "bytes32"
						}
					],
					"name": "MerkleRootChanged",
					"type": "event"
				},
				{
					"anonymous": false,
					"inputs": [
						{
							"indexed": true,
							"internalType": "address",
							"name": "user",
							"type": "address"
						},
						{
							"indexed": false,
							"internalType": "uint256",
							"name": "amount",
							"type": "uint256"
						},
						{
							"indexed": false,
							"internalType": "uint256",
							"name": "timestamp",
							"type": "uint256"
						}
					],
					"name": "Minted",
					"type": "event"
				},
				{
					"anonymous": false,
					"inputs": [
						{
							"indexed": false,
							"internalType": "address",
							"name": "nagaKidBefore",
							"type": "address"
						},
						{
							"indexed": false,
							"internalType": "address",
							"name": "nagaKidAfter",
							"type": "address"
						}
					],
					"name": "NagaKidContractChanged",
					"type": "event"
				},
				{
					"anonymous": false,
					"inputs": [
						{
							"indexed": true,
							"internalType": "address",
							"name": "previousOwner",
							"type": "address"
						},
						{
							"indexed": true,
							"internalType": "address",
							"name": "newOwner",
							"type": "address"
						}
					],
					"name": "OwnershipTransferred",
					"type": "event"
				},
				{
					"anonymous": false,
					"inputs": [
						{
							"indexed": false,
							"internalType": "bytes32",
							"name": "roundBefore",
							"type": "bytes32"
						},
						{
							"indexed": false,
							"internalType": "bytes32",
							"name": "roundAfter",
							"type": "bytes32"
						}
					],
					"name": "RoundChanged",
					"type": "event"
				},
				{
					"anonymous": false,
					"inputs": [
						{
							"indexed": false,
							"internalType": "address",
							"name": "to",
							"type": "address"
						},
						{
							"indexed": false,
							"internalType": "uint256",
							"name": "balanceOFContract",
							"type": "uint256"
						},
						{
							"indexed": false,
							"internalType": "uint256",
							"name": "timestamp",
							"type": "uint256"
						}
					],
					"name": "Withdraw",
					"type": "event"
				},
				{
					"anonymous": false,
					"inputs": [
						{
							"indexed": false,
							"internalType": "address",
							"name": "to",
							"type": "address"
						},
						{
							"indexed": false,
							"internalType": "address",
							"name": "currency",
							"type": "address"
						},
						{
							"indexed": false,
							"internalType": "uint256",
							"name": "balanceOfContract",
							"type": "uint256"
						},
						{
							"indexed": false,
							"internalType": "uint256",
							"name": "timestamp",
							"type": "uint256"
						}
					],
					"name": "WithdrawCurrency",
					"type": "event"
				},
				{
					"anonymous": false,
					"inputs": [
						{
							"indexed": false,
							"internalType": "address",
							"name": "to",
							"type": "address"
						},
						{
							"indexed": false,
							"internalType": "address",
							"name": "NFT",
							"type": "address"
						},
						{
							"indexed": false,
							"internalType": "uint256",
							"name": "tokenId",
							"type": "uint256"
						},
						{
							"indexed": false,
							"internalType": "uint256",
							"name": "timestamp",
							"type": "uint256"
						}
					],
					"name": "WithdrawNFT",
					"type": "event"
				},
				{
					"inputs": [],
					"name": "DEFAULT",
					"outputs": [
						{
							"internalType": "bytes32",
							"name": "",
							"type": "bytes32"
						}
					],
					"stateMutability": "view",
					"type": "function"
				},
				{
					"inputs": [],
					"name": "NAGA_HOLDER_MINT_ROUND",
					"outputs": [
						{
							"internalType": "bytes32",
							"name": "",
							"type": "bytes32"
						}
					],
					"stateMutability": "view",
					"type": "function"
				},
				{
					"inputs": [],
					"name": "SPECIAL_MINT_ROUND",
					"outputs": [
						{
							"internalType": "bytes32",
							"name": "",
							"type": "bytes32"
						}
					],
					"stateMutability": "view",
					"type": "function"
				},
				{
					"inputs": [],
					"name": "WHITELIST_MINT_ROUND",
					"outputs": [
						{
							"internalType": "bytes32",
							"name": "",
							"type": "bytes32"
						}
					],
					"stateMutability": "view",
					"type": "function"
				},
				{
					"inputs": [],
					"name": "WITHDRAW_ROLE",
					"outputs": [
						{
							"internalType": "bytes32",
							"name": "",
							"type": "bytes32"
						}
					],
					"stateMutability": "view",
					"type": "function"
				},
				{
					"inputs": [
						{
							"internalType": "bytes32[]",
							"name": "_proof",
							"type": "bytes32[]"
						},
						{
							"internalType": "uint256",
							"name": "_amount",
							"type": "uint256"
						},
						{
							"internalType": "bytes32",
							"name": "_round",
							"type": "bytes32"
						}
					],
					"name": "allowlistMint",
					"outputs": [],
					"stateMutability": "payable",
					"type": "function"
				},
				{
					"inputs": [],
					"name": "currentMintRound",
					"outputs": [
						{
							"internalType": "bytes32",
							"name": "",
							"type": "bytes32"
						}
					],
					"stateMutability": "view",
					"type": "function"
				},
				{
					"inputs": [],
					"name": "getMaxSupply",
					"outputs": [
						{
							"internalType": "uint256",
							"name": "",
							"type": "uint256"
						}
					],
					"stateMutability": "view",
					"type": "function"
				},
				{
					"inputs": [],
					"name": "getTotalSupply",
					"outputs": [
						{
							"internalType": "uint256",
							"name": "",
							"type": "uint256"
						}
					],
					"stateMutability": "view",
					"type": "function"
				},
				{
					"inputs": [
						{
							"internalType": "address",
							"name": "_user",
							"type": "address"
						},
						{
							"internalType": "bytes32",
							"name": "_round",
							"type": "bytes32"
						}
					],
					"name": "isUserMinted",
					"outputs": [
						{
							"internalType": "bool",
							"name": "",
							"type": "bool"
						}
					],
					"stateMutability": "view",
					"type": "function"
				},
				{
					"inputs": [],
					"name": "merkleRoot",
					"outputs": [
						{
							"internalType": "bytes32",
							"name": "",
							"type": "bytes32"
						}
					],
					"stateMutability": "view",
					"type": "function"
				},
				{
					"inputs": [],
					"name": "nagaKidContract",
					"outputs": [
						{
							"internalType": "contract INagaKid",
							"name": "",
							"type": "address"
						}
					],
					"stateMutability": "view",
					"type": "function"
				},
				{
					"inputs": [],
					"name": "owner",
					"outputs": [
						{
							"internalType": "address",
							"name": "",
							"type": "address"
						}
					],
					"stateMutability": "view",
					"type": "function"
				},
				{
					"inputs": [],
					"name": "renounceOwnership",
					"outputs": [],
					"stateMutability": "nonpayable",
					"type": "function"
				},
				{
					"inputs": [
						{
							"internalType": "bytes32",
							"name": "_merkleRoot",
							"type": "bytes32"
						}
					],
					"name": "setMerkleRoot",
					"outputs": [],
					"stateMutability": "nonpayable",
					"type": "function"
				},
				{
					"inputs": [
						{
							"internalType": "contract INagaKid",
							"name": "_nagaKid",
							"type": "address"
						}
					],
					"name": "setNagaKidContract",
					"outputs": [],
					"stateMutability": "nonpayable",
					"type": "function"
				},
				{
					"inputs": [
						{
							"internalType": "bytes32",
							"name": "_round",
							"type": "bytes32"
						}
					],
					"name": "setRound",
					"outputs": [],
					"stateMutability": "nonpayable",
					"type": "function"
				},
				{
					"inputs": [
						{
							"internalType": "address",
							"name": "newOwner",
							"type": "address"
						}
					],
					"name": "transferOwnership",
					"outputs": [],
					"stateMutability": "nonpayable",
					"type": "function"
				},
				{
					"inputs": [
						{
							"internalType": "address",
							"name": "_user",
							"type": "address"
						},
						{
							"internalType": "bytes32",
							"name": "_round",
							"type": "bytes32"
						}
					],
					"name": "userMintedAmount",
					"outputs": [
						{
							"internalType": "uint256",
							"name": "",
							"type": "uint256"
						}
					],
					"stateMutability": "view",
					"type": "function"
				},
				{
					"inputs": [
						{
							"internalType": "address",
							"name": "_to",
							"type": "address"
						}
					],
					"name": "withdraw",
					"outputs": [],
					"stateMutability": "nonpayable",
					"type": "function"
				},
				{
					"inputs": [
						{
							"internalType": "address",
							"name": "_to",
							"type": "address"
						},
						{
							"internalType": "address",
							"name": "_currency",
							"type": "address"
						}
					],
					"name": "withdrawCurrency",
					"outputs": [],
					"stateMutability": "nonpayable",
					"type": "function"
				},
				{
					"inputs": [
						{
							"internalType": "address",
							"name": "_to",
							"type": "address"
						},
						{
							"internalType": "address",
							"name": "_NFT",
							"type": "address"
						},
						{
							"internalType": "uint256",
							"name": "_tokenId",
							"type": "uint256"
						}
					],
					"name": "withdrawNFT",
					"outputs": [],
					"stateMutability": "nonpayable",
					"type": "function"
				}
			],
			"devdoc": {
				"kind": "dev",
				"methods": {
					"owner()": {
						"details": "Returns the address of the current owner."
					},
					"renounceOwnership()": {
						"details": "Leaves the contract without owner. It will not be possible to call `onlyOwner` functions anymore. Can only be called by the current owner. NOTE: Renouncing ownership will leave the contract without an owner, thereby removing any functionality that is only available to the owner."
					},
					"transferOwnership(address)": {
						"details": "Transfers ownership of the contract to a new account (`newOwner`). Can only be called by the current owner."
					}
				},
				"version": 1
			},
			"evm": {
				"assembly": "    /* \"ERC721A/MintNagaKids.sol\":395:5393  contract MintNagaKids is Ownable, ReentrancyGuard {... */\n  mstore(0x40, 0x80)\n    /* \"ERC721A/MintNagaKids.sol\":1965:2129  constructor(INagaKid _nagaKidContract, bytes32 _merkleRoot) {... */\n  callvalue\n  dup1\n  iszero\n  tag_1\n  jumpi\n  0x00\n  dup1\n  revert\ntag_1:\n  pop\n  mload(0x40)\n  sub(codesize, bytecodeSize)\n  dup1\n  bytecodeSize\n  dup4\n  codecopy\n  dup2\n  add\n  0x40\n  dup2\n  swap1\n  mstore\n  tag_2\n  swap2\n  tag_3\n  jump\t// in\ntag_2:\n    /* \"@openzeppelin/contracts/access/Ownable.sol\":921:953  _transferOwnership(_msgSender()) */\n  tag_8\n    /* \"@openzeppelin/contracts/utils/Context.sol\":719:729  msg.sender */\n  caller\n    /* \"@openzeppelin/contracts/access/Ownable.sol\":921:939  _transferOwnership */\n  tag_11\n    /* \"@openzeppelin/contracts/access/Ownable.sol\":921:953  _transferOwnership(_msgSender()) */\n  jump\t// in\ntag_8:\n    /* \"@openzeppelin/contracts/security/ReentrancyGuard.sol\":1701:1702  1 */\n  0x01\n    /* \"@openzeppelin/contracts/security/ReentrancyGuard.sol\":1806:1828  _status = _NOT_ENTERED */\n  dup1\n  sstore\n    /* \"ERC721A/MintNagaKids.sol\":2046:2082  setNagaKidContract(_nagaKidContract) */\n  tag_14\n    /* \"ERC721A/MintNagaKids.sol\":2065:2081  _nagaKidContract */\n  dup3\n    /* \"ERC721A/MintNagaKids.sol\":2046:2064  setNagaKidContract */\n  tag_15\n    /* \"ERC721A/MintNagaKids.sol\":2046:2082  setNagaKidContract(_nagaKidContract) */\n  jump\t// in\ntag_14:\n    /* \"ERC721A/MintNagaKids.sol\":2093:2119  setMerkleRoot(_merkleRoot) */\n  tag_16\n    /* \"ERC721A/MintNagaKids.sol\":2107:2118  _merkleRoot */\n  dup2\n    /* \"ERC721A/MintNagaKids.sol\":2093:2106  setMerkleRoot */\n  tag_17\n    /* \"ERC721A/MintNagaKids.sol\":2093:2119  setMerkleRoot(_merkleRoot) */\n  jump\t// in\ntag_16:\n    /* \"ERC721A/MintNagaKids.sol\":1965:2129  constructor(INagaKid _nagaKidContract, bytes32 _merkleRoot) {... */\n  pop\n  pop\n    /* \"ERC721A/MintNagaKids.sol\":395:5393  contract MintNagaKids is Ownable, ReentrancyGuard {... */\n  jump(tag_40)\n    /* \"@openzeppelin/contracts/access/Ownable.sol\":2270:2457  function _transferOwnership(address newOwner) internal virtual {... */\ntag_11:\n    /* \"@openzeppelin/contracts/access/Ownable.sol\":2343:2359  address oldOwner */\n  0x00\n    /* \"@openzeppelin/contracts/access/Ownable.sol\":2362:2368  _owner */\n  dup1\n  sload\n  sub(shl(0xa0, 0x01), 0x01)\n    /* \"@openzeppelin/contracts/access/Ownable.sol\":2378:2395  _owner = newOwner */\n  dup4\n  dup2\n  and\n  not(sub(shl(0xa0, 0x01), 0x01))\n  dup4\n  and\n  dup2\n  or\n  dup5\n  sstore\n    /* \"@openzeppelin/contracts/access/Ownable.sol\":2410:2450  OwnershipTransferred(oldOwner, newOwner) */\n  mload(0x40)\n    /* \"@openzeppelin/contracts/access/Ownable.sol\":2362:2368  _owner */\n  swap2\n  swap1\n  swap3\n  and\n  swap3\n  dup4\n  swap2\n    /* \"@openzeppelin/contracts/access/Ownable.sol\":2410:2450  OwnershipTransferred(oldOwner, newOwner) */\n  0x8be0079c531659141344cd1fd0a4f28419497f9722a3daafe3b4186f6b6457e0\n  swap2\n    /* \"@openzeppelin/contracts/access/Ownable.sol\":2343:2359  address oldOwner */\n  swap1\n    /* \"@openzeppelin/contracts/access/Ownable.sol\":2410:2450  OwnershipTransferred(oldOwner, newOwner) */\n  log3\n    /* \"@openzeppelin/contracts/access/Ownable.sol\":2333:2457  {... */\n  pop\n    /* \"@openzeppelin/contracts/access/Ownable.sol\":2270:2457  function _transferOwnership(address newOwner) internal virtual {... */\n  pop\n  jump\t// out\n    /* \"ERC721A/MintNagaKids.sol\":2137:2425  function setNagaKidContract(INagaKid _nagaKid) public onlyOwner {... */\ntag_15:\n    /* \"@openzeppelin/contracts/access/Ownable.sol\":1082:1089  address */\n  0x00\n    /* \"@openzeppelin/contracts/access/Ownable.sol\":1108:1114  _owner */\n  sload\n  sub(shl(0xa0, 0x01), 0x01)\n  and\n    /* \"@openzeppelin/contracts/utils/Context.sol\":719:729  msg.sender */\n  caller\n    /* \"@openzeppelin/contracts/access/Ownable.sol\":1248:1271  owner() == _msgSender() */\n  eq\n    /* \"@openzeppelin/contracts/access/Ownable.sol\":1240:1308  require(owner() == _msgSender(), \"Ownable: caller is not the owner\") */\n  tag_25\n  jumpi\n  mload(0x40)\n  shl(0xe5, 0x461bcd)\n  dup2\n  mstore\n    /* \"#utility.yul\":588:590   */\n  0x20\n    /* \"@openzeppelin/contracts/access/Ownable.sol\":1240:1308  require(owner() == _msgSender(), \"Ownable: caller is not the owner\") */\n  0x04\n  dup3\n  add\n    /* \"#utility.yul\":570:591   */\n  dup2\n  swap1\n  mstore\n    /* \"#utility.yul\":607:625   */\n  0x24\n  dup3\n  add\n    /* \"#utility.yul\":600:630   */\n  mstore\n  0x00\n  dup1\n  mload\n  0x20\n  data_9924ebdf1add33d25d4ef888e16131f0a5687b0580a36c21b5c301a6c462effe\n  dup4\n  codecopy\n  dup2\n  mload\n  swap2\n  mstore\n    /* \"#utility.yul\":646:664   */\n  0x44\n  dup3\n  add\n    /* \"#utility.yul\":639:701   */\n  mstore\n    /* \"#utility.yul\":718:736   */\n  0x64\n  add\n    /* \"@openzeppelin/contracts/access/Ownable.sol\":1240:1308  require(owner() == _msgSender(), \"Ownable: caller is not the owner\") */\ntag_26:\n  mload(0x40)\n  dup1\n  swap2\n  sub\n  swap1\n  revert\ntag_25:\n    /* \"ERC721A/MintNagaKids.sol\":2244:2259  nagaKidContract */\n  0x02\n  dup1\n  sload\n  sub(shl(0xa0, 0x01), 0x01)\n    /* \"ERC721A/MintNagaKids.sol\":2271:2297  nagaKidContract = _nagaKid */\n  dup4\n  dup2\n  and\n  not(sub(shl(0xa0, 0x01), 0x01))\n  dup4\n  and\n  dup2\n  or\n  swap1\n  swap4\n  sstore\n    /* \"ERC721A/MintNagaKids.sol\":2366:2417  NagaKidContractChanged(nagaKidBefore, nagaKidAfter) */\n  0x40\n  dup1\n  mload\n    /* \"ERC721A/MintNagaKids.sol\":2244:2259  nagaKidContract */\n  swap2\n  swap1\n  swap3\n  and\n    /* \"#utility.yul\":959:993   */\n  dup1\n  dup3\n  mstore\n    /* \"#utility.yul\":1024:1026   */\n  0x20\n    /* \"#utility.yul\":1009:1027   */\n  dup3\n  add\n    /* \"#utility.yul\":1002:1045   */\n  swap4\n  swap1\n  swap4\n  mstore\n    /* \"ERC721A/MintNagaKids.sol\":2271:2297  nagaKidContract = _nagaKid */\n  dup4\n  swap2\n    /* \"ERC721A/MintNagaKids.sol\":2366:2417  NagaKidContractChanged(nagaKidBefore, nagaKidAfter) */\n  0xabdf056c85a221fcb31d0366c4475b6b2c613df2eeea951a9fcb3e1a8595d973\n  swap2\n    /* \"#utility.yul\":894:912   */\n  add\n    /* \"ERC721A/MintNagaKids.sol\":2366:2417  NagaKidContractChanged(nagaKidBefore, nagaKidAfter) */\n  mload(0x40)\n  dup1\n  swap2\n  sub\n  swap1\n  log1\n    /* \"ERC721A/MintNagaKids.sol\":2201:2425  {... */\n  pop\n  pop\n    /* \"ERC721A/MintNagaKids.sol\":2137:2425  function setNagaKidContract(INagaKid _nagaKid) public onlyOwner {... */\n  pop\n  jump\t// out\n    /* \"ERC721A/MintNagaKids.sol\":2638:2858  function setMerkleRoot(bytes32 _merkleRoot) public onlyOwner {... */\ntag_17:\n    /* \"@openzeppelin/contracts/access/Ownable.sol\":1082:1089  address */\n  0x00\n    /* \"@openzeppelin/contracts/access/Ownable.sol\":1108:1114  _owner */\n  sload\n  sub(shl(0xa0, 0x01), 0x01)\n  and\n    /* \"@openzeppelin/contracts/utils/Context.sol\":719:729  msg.sender */\n  caller\n    /* \"@openzeppelin/contracts/access/Ownable.sol\":1248:1271  owner() == _msgSender() */\n  eq\n    /* \"@openzeppelin/contracts/access/Ownable.sol\":1240:1308  require(owner() == _msgSender(), \"Ownable: caller is not the owner\") */\n  tag_34\n  jumpi\n  mload(0x40)\n  shl(0xe5, 0x461bcd)\n  dup2\n  mstore\n    /* \"#utility.yul\":588:590   */\n  0x20\n    /* \"@openzeppelin/contracts/access/Ownable.sol\":1240:1308  require(owner() == _msgSender(), \"Ownable: caller is not the owner\") */\n  0x04\n  dup3\n  add\n    /* \"#utility.yul\":570:591   */\n  dup2\n  swap1\n  mstore\n    /* \"#utility.yul\":607:625   */\n  0x24\n  dup3\n  add\n    /* \"#utility.yul\":600:630   */\n  mstore\n  0x00\n  dup1\n  mload\n  0x20\n  data_9924ebdf1add33d25d4ef888e16131f0a5687b0580a36c21b5c301a6c462effe\n  dup4\n  codecopy\n  dup2\n  mload\n  swap2\n  mstore\n    /* \"#utility.yul\":646:664   */\n  0x44\n  dup3\n  add\n    /* \"#utility.yul\":639:701   */\n  mstore\n    /* \"#utility.yul\":718:736   */\n  0x64\n  add\n    /* \"@openzeppelin/contracts/access/Ownable.sol\":1240:1308  require(owner() == _msgSender(), \"Ownable: caller is not the owner\") */\n  tag_26\n    /* \"#utility.yul\":386:742   */\n  jump\n    /* \"@openzeppelin/contracts/access/Ownable.sol\":1240:1308  require(owner() == _msgSender(), \"Ownable: caller is not the owner\") */\ntag_34:\n    /* \"ERC721A/MintNagaKids.sol\":2738:2748  merkleRoot */\n  0x04\n  dup1\n  sload\n    /* \"ERC721A/MintNagaKids.sol\":2759:2783  merkleRoot = _merkleRoot */\n  swap1\n  dup3\n  swap1\n  sstore\n    /* \"ERC721A/MintNagaKids.sol\":2801:2850  MerkleRootChanged(_merkleRootBefore, _merkleRoot) */\n  0x40\n  dup1\n  mload\n    /* \"#utility.yul\":1230:1255   */\n  dup3\n  dup2\n  mstore\n    /* \"#utility.yul\":1286:1288   */\n  0x20\n    /* \"#utility.yul\":1271:1289   */\n  dup2\n  add\n    /* \"#utility.yul\":1264:1298   */\n  dup5\n  swap1\n  mstore\n    /* \"ERC721A/MintNagaKids.sol\":2801:2850  MerkleRootChanged(_merkleRootBefore, _merkleRoot) */\n  0x123d88ba82600dfc3f219f8885c691b0ff020caa535666874b3f5174973757fe\n  swap2\n    /* \"#utility.yul\":1203:1221   */\n  add\n    /* \"ERC721A/MintNagaKids.sol\":2801:2850  MerkleRootChanged(_merkleRootBefore, _merkleRoot) */\n  mload(0x40)\n  dup1\n  swap2\n  sub\n  swap1\n  log1\n    /* \"ERC721A/MintNagaKids.sol\":2699:2858  {... */\n  pop\n    /* \"ERC721A/MintNagaKids.sol\":2638:2858  function setMerkleRoot(bytes32 _merkleRoot) public onlyOwner {... */\n  pop\n  jump\t// out\n    /* \"#utility.yul\":14:381   */\ntag_3:\n    /* \"#utility.yul\":109:115   */\n  0x00\n    /* \"#utility.yul\":117:123   */\n  dup1\n    /* \"#utility.yul\":170:172   */\n  0x40\n    /* \"#utility.yul\":158:167   */\n  dup4\n    /* \"#utility.yul\":149:156   */\n  dup6\n    /* \"#utility.yul\":145:168   */\n  sub\n    /* \"#utility.yul\":141:173   */\n  slt\n    /* \"#utility.yul\":138:190   */\n  iszero\n  tag_42\n  jumpi\n    /* \"#utility.yul\":186:187   */\n  0x00\n    /* \"#utility.yul\":183:184   */\n  dup1\n    /* \"#utility.yul\":176:188   */\n  revert\n    /* \"#utility.yul\":138:190   */\ntag_42:\n    /* \"#utility.yul\":212:228   */\n  dup3\n  mload\n  sub(shl(0xa0, 0x01), 0x01)\n    /* \"#utility.yul\":257:288   */\n  dup2\n  and\n    /* \"#utility.yul\":247:289   */\n  dup2\n  eq\n    /* \"#utility.yul\":237:307   */\n  tag_43\n  jumpi\n    /* \"#utility.yul\":303:304   */\n  0x00\n    /* \"#utility.yul\":300:301   */\n  dup1\n    /* \"#utility.yul\":293:305   */\n  revert\n    /* \"#utility.yul\":237:307   */\ntag_43:\n    /* \"#utility.yul\":371:373   */\n  0x20\n    /* \"#utility.yul\":356:374   */\n  swap4\n  swap1\n  swap4\n  add\n    /* \"#utility.yul\":350:375   */\n  mload\n    /* \"#utility.yul\":326:331   */\n  swap3\n  swap5\n    /* \"#utility.yul\":350:375   */\n  swap3\n  swap4\n  pop\n  pop\n  pop\n    /* \"#utility.yul\":14:381   */\n  jump\t// out\n    /* \"#utility.yul\":1056:1304   */\ntag_40:\n    /* \"ERC721A/MintNagaKids.sol\":395:5393  contract MintNagaKids is Ownable, ReentrancyGuard {... */\n  dataSize(sub_0)\n  dup1\n  dataOffset(sub_0)\n  0x00\n  codecopy\n  0x00\n  return\nstop\ndata_9924ebdf1add33d25d4ef888e16131f0a5687b0580a36c21b5c301a6c462effe 4f776e61626c653a2063616c6c6572206973206e6f7420746865206f776e6572\n\nsub_0: assembly {\n        /* \"ERC721A/MintNagaKids.sol\":395:5393  contract MintNagaKids is Ownable, ReentrancyGuard {... */\n      mstore(0x40, 0x80)\n      jumpi(tag_1, lt(calldatasize, 0x04))\n      shr(0xe0, calldataload(0x00))\n      dup1\n      0xb5abafa1\n      gt\n      tag_24\n      jumpi\n      dup1\n      0xef5fe79f\n      gt\n      tag_25\n      jumpi\n      dup1\n      0xef5fe79f\n      eq\n      tag_18\n      jumpi\n      dup1\n      0xf2fde38b\n      eq\n      tag_19\n      jumpi\n      dup1\n      0xf500cdfc\n      eq\n      tag_20\n      jumpi\n      dup1\n      0xf6b48e55\n      eq\n      tag_21\n      jumpi\n      dup1\n      0xff05fe4a\n      eq\n      tag_22\n      jumpi\n      dup1\n      0xffdc6129\n      eq\n      tag_23\n      jumpi\n      0x00\n      dup1\n      revert\n    tag_25:\n      dup1\n      0xb5abafa1\n      eq\n      tag_13\n      jumpi\n      dup1\n      0xbff863ec\n      eq\n      tag_14\n      jumpi\n      dup1\n      0xc4e41b22\n      eq\n      tag_15\n      jumpi\n      dup1\n      0xdf4e5881\n      eq\n      tag_16\n      jumpi\n      dup1\n      0xe02023a1\n      eq\n      tag_17\n      jumpi\n      0x00\n      dup1\n      revert\n    tag_24:\n      dup1\n      0x5b94bbc3\n      gt\n      tag_26\n      jumpi\n      dup1\n      0x5b94bbc3\n      eq\n      tag_7\n      jumpi\n      dup1\n      0x715018a6\n      eq\n      tag_8\n      jumpi\n      dup1\n      0x7cb64759\n      eq\n      tag_9\n      jumpi\n      dup1\n      0x8407ecc4\n      eq\n      tag_10\n      jumpi\n      dup1\n      0x8da5cb5b\n      eq\n      tag_11\n      jumpi\n      dup1\n      0x9e6c8855\n      eq\n      tag_12\n      jumpi\n      0x00\n      dup1\n      revert\n    tag_26:\n      dup1\n      0x0a25dea9\n      eq\n      tag_2\n      jumpi\n      dup1\n      0x24c37a85\n      eq\n      tag_3\n      jumpi\n      dup1\n      0x2eb4a7ab\n      eq\n      tag_4\n      jumpi\n      dup1\n      0x4c0f38c2\n      eq\n      tag_5\n      jumpi\n      dup1\n      0x51cff8d9\n      eq\n      tag_6\n      jumpi\n    tag_1:\n      0x00\n      dup1\n      revert\n        /* \"ERC721A/MintNagaKids.sol\":925:1025  bytes32 public constant DEFAULT = 0x0000000000000000000000000000000000000000000000000000000000000000 */\n    tag_2:\n      callvalue\n      dup1\n      iszero\n      tag_27\n      jumpi\n      0x00\n      dup1\n      revert\n    tag_27:\n      pop\n      tag_28\n        /* \"ERC721A/MintNagaKids.sol\":959:1025  0x0000000000000000000000000000000000000000000000000000000000000000 */\n      0x00\n        /* \"ERC721A/MintNagaKids.sol\":925:1025  bytes32 public constant DEFAULT = 0x0000000000000000000000000000000000000000000000000000000000000000 */\n      dup2\n      jump\n    tag_28:\n      mload(0x40)\n        /* \"#utility.yul\":160:185   */\n      swap1\n      dup2\n      mstore\n        /* \"#utility.yul\":148:150   */\n      0x20\n        /* \"#utility.yul\":133:151   */\n      add\n        /* \"ERC721A/MintNagaKids.sol\":925:1025  bytes32 public constant DEFAULT = 0x0000000000000000000000000000000000000000000000000000000000000000 */\n    tag_30:\n      mload(0x40)\n      dup1\n      swap2\n      sub\n      swap1\n      return\n        /* \"ERC721A/MintNagaKids.sol\":611:695  bytes32 public constant NAGA_HOLDER_MINT_ROUND = keccak256(\"NAGA_HOLDER_MINT_ROUND\") */\n    tag_3:\n      callvalue\n      dup1\n      iszero\n      tag_32\n      jumpi\n      0x00\n      dup1\n      revert\n    tag_32:\n      pop\n      tag_28\n        /* \"ERC721A/MintNagaKids.sol\":660:695  keccak256(\"NAGA_HOLDER_MINT_ROUND\") */\n      0xb3c595e55271590809f54e2f4fc3a582754f45b104dd3c41666e2ad310493db3\n        /* \"ERC721A/MintNagaKids.sol\":611:695  bytes32 public constant NAGA_HOLDER_MINT_ROUND = keccak256(\"NAGA_HOLDER_MINT_ROUND\") */\n      dup2\n      jump\n        /* \"ERC721A/MintNagaKids.sol\":1189:1214  bytes32 public merkleRoot */\n    tag_4:\n      callvalue\n      dup1\n      iszero\n      tag_36\n      jumpi\n      0x00\n      dup1\n      revert\n    tag_36:\n      pop\n      tag_28\n      sload(0x04)\n      dup2\n      jump\n        /* \"ERC721A/MintNagaKids.sol\":5281:5388  function getMaxSupply() public view returns (uint256) {... */\n    tag_5:\n      callvalue\n      dup1\n      iszero\n      tag_40\n      jumpi\n      0x00\n      dup1\n      revert\n    tag_40:\n      pop\n      tag_28\n      tag_42\n      jump\t// in\n        /* \"ERC721A/MintNagaKids.sol\":3789:4127  function withdraw(address _to) public onlyOwner {... */\n    tag_6:\n      callvalue\n      dup1\n      iszero\n      tag_45\n      jumpi\n      0x00\n      dup1\n      revert\n    tag_45:\n      pop\n      tag_46\n      tag_47\n      calldatasize\n      0x04\n      tag_48\n      jump\t// in\n    tag_47:\n      tag_49\n      jump\t// in\n    tag_46:\n      stop\n        /* \"ERC721A/MintNagaKids.sol\":772:848  bytes32 public constant SPECIAL_MINT_ROUND = keccak256(\"SPECIAL_MINT_ROUND\") */\n    tag_7:\n      callvalue\n      dup1\n      iszero\n      tag_50\n      jumpi\n      0x00\n      dup1\n      revert\n    tag_50:\n      pop\n      tag_28\n        /* \"ERC721A/MintNagaKids.sol\":817:848  keccak256(\"SPECIAL_MINT_ROUND\") */\n      0x5c8c0ce107274ad0569bd760c3d2406c1ed72c697935f3f965bd096c5cdedee4\n        /* \"ERC721A/MintNagaKids.sol\":772:848  bytes32 public constant SPECIAL_MINT_ROUND = keccak256(\"SPECIAL_MINT_ROUND\") */\n      dup2\n      jump\n        /* \"@openzeppelin/contracts/access/Ownable.sol\":1668:1769  function renounceOwnership() public virtual onlyOwner {... */\n    tag_8:\n      callvalue\n      dup1\n      iszero\n      tag_54\n      jumpi\n      0x00\n      dup1\n      revert\n    tag_54:\n      pop\n      tag_46\n      tag_56\n      jump\t// in\n        /* \"ERC721A/MintNagaKids.sol\":2638:2858  function setMerkleRoot(bytes32 _merkleRoot) public onlyOwner {... */\n    tag_9:\n      callvalue\n      dup1\n      iszero\n      tag_57\n      jumpi\n      0x00\n      dup1\n      revert\n    tag_57:\n      pop\n      tag_46\n      tag_59\n      calldatasize\n      0x04\n      tag_60\n      jump\t// in\n    tag_59:\n      tag_61\n      jump\t// in\n        /* \"ERC721A/MintNagaKids.sol\":4135:4512  function withdrawCurrency(address _to,address _currency) public onlyOwner {... */\n    tag_10:\n      callvalue\n      dup1\n      iszero\n      tag_62\n      jumpi\n      0x00\n      dup1\n      revert\n    tag_62:\n      pop\n      tag_46\n      tag_64\n      calldatasize\n      0x04\n      tag_65\n      jump\t// in\n    tag_64:\n      tag_66\n      jump\t// in\n        /* \"@openzeppelin/contracts/access/Ownable.sol\":1036:1121  function owner() public view virtual returns (address) {... */\n    tag_11:\n      callvalue\n      dup1\n      iszero\n      tag_67\n      jumpi\n      0x00\n      dup1\n      revert\n    tag_67:\n      pop\n        /* \"@openzeppelin/contracts/access/Ownable.sol\":1082:1089  address */\n      0x00\n        /* \"@openzeppelin/contracts/access/Ownable.sol\":1108:1114  _owner */\n      sload\n      sub(shl(0xa0, 0x01), 0x01)\n      and\n        /* \"@openzeppelin/contracts/access/Ownable.sol\":1036:1121  function owner() public view virtual returns (address) {... */\n    tag_68:\n      mload(0x40)\n      sub(shl(0xa0, 0x01), 0x01)\n        /* \"#utility.yul\":1508:1540   */\n      swap1\n      swap2\n      and\n        /* \"#utility.yul\":1490:1541   */\n      dup2\n      mstore\n        /* \"#utility.yul\":1478:1480   */\n      0x20\n        /* \"#utility.yul\":1463:1481   */\n      add\n        /* \"@openzeppelin/contracts/access/Ownable.sol\":1036:1121  function owner() public view virtual returns (address) {... */\n      tag_30\n        /* \"#utility.yul\":1344:1547   */\n      jump\n        /* \"ERC721A/MintNagaKids.sol\":2137:2425  function setNagaKidContract(INagaKid _nagaKid) public onlyOwner {... */\n    tag_12:\n      callvalue\n      dup1\n      iszero\n      tag_72\n      jumpi\n      0x00\n      dup1\n      revert\n    tag_72:\n      pop\n      tag_46\n      tag_74\n      calldatasize\n      0x04\n      tag_48\n      jump\t// in\n    tag_74:\n      tag_76\n      jump\t// in\n        /* \"ERC721A/MintNagaKids.sol\":5011:5154  function userMintedAmount(address _user,bytes32 _round) public view returns(uint256) {... */\n    tag_13:\n      callvalue\n      dup1\n      iszero\n      tag_77\n      jumpi\n      0x00\n      dup1\n      revert\n    tag_77:\n      pop\n      tag_28\n      tag_79\n      calldatasize\n      0x04\n      tag_80\n      jump\t// in\n    tag_79:\n      sub(shl(0xa0, 0x01), 0x01)\n        /* \"ERC721A/MintNagaKids.sol\":5114:5138  _userMintedAmount[_user] */\n      swap2\n      swap1\n      swap2\n      and\n        /* \"ERC721A/MintNagaKids.sol\":5087:5094  uint256 */\n      0x00\n        /* \"ERC721A/MintNagaKids.sol\":5114:5138  _userMintedAmount[_user] */\n      swap1\n      dup2\n      mstore\n        /* \"ERC721A/MintNagaKids.sol\":5114:5131  _userMintedAmount */\n      0x06\n        /* \"ERC721A/MintNagaKids.sol\":5114:5138  _userMintedAmount[_user] */\n      0x20\n      swap1\n      dup2\n      mstore\n      0x40\n      dup1\n      dup4\n      keccak256\n        /* \"ERC721A/MintNagaKids.sol\":5114:5146  _userMintedAmount[_user][_round] */\n      swap4\n      dup4\n      mstore\n      swap3\n      swap1\n      mstore\n      keccak256\n      sload\n      swap1\n        /* \"ERC721A/MintNagaKids.sol\":5011:5154  function userMintedAmount(address _user,bytes32 _round) public view returns(uint256) {... */\n      jump\n        /* \"ERC721A/MintNagaKids.sol\":4520:4863  function withdrawNFT(address _to,address _NFT,uint256 _tokenId) public onlyOwner {... */\n    tag_14:\n      callvalue\n      dup1\n      iszero\n      tag_83\n      jumpi\n      0x00\n      dup1\n      revert\n    tag_83:\n      pop\n      tag_46\n      tag_85\n      calldatasize\n      0x04\n      tag_86\n      jump\t// in\n    tag_85:\n      tag_87\n      jump\t// in\n        /* \"ERC721A/MintNagaKids.sol\":5162:5273  function getTotalSupply() public view returns (uint256) {... */\n    tag_15:\n      callvalue\n      dup1\n      iszero\n      tag_88\n      jumpi\n      0x00\n      dup1\n      revert\n    tag_88:\n      pop\n      tag_28\n      tag_90\n      jump\t// in\n        /* \"ERC721A/MintNagaKids.sol\":1113:1144  INagaKid public nagaKidContract */\n    tag_16:\n      callvalue\n      dup1\n      iszero\n      tag_92\n      jumpi\n      0x00\n      dup1\n      revert\n    tag_92:\n      pop\n      sload(0x02)\n      tag_68\n      swap1\n      sub(shl(0xa0, 0x01), 0x01)\n      and\n      dup2\n      jump\n        /* \"ERC721A/MintNagaKids.sol\":1038:1104  bytes32 public constant WITHDRAW_ROLE = keccak256(\"WITHDRAW_ROLE\") */\n    tag_17:\n      callvalue\n      dup1\n      iszero\n      tag_97\n      jumpi\n      0x00\n      dup1\n      revert\n    tag_97:\n      pop\n      tag_28\n        /* \"ERC721A/MintNagaKids.sol\":1078:1104  keccak256(\"WITHDRAW_ROLE\") */\n      0x5d8e12c39142ff96d79d04d15d1ba1269e4fe57bb9d26f43523628b34ba108ec\n        /* \"ERC721A/MintNagaKids.sol\":1038:1104  bytes32 public constant WITHDRAW_ROLE = keccak256(\"WITHDRAW_ROLE\") */\n      dup2\n      jump\n        /* \"ERC721A/MintNagaKids.sol\":1151:1182  bytes32 public currentMintRound */\n    tag_18:\n      callvalue\n      dup1\n      iszero\n      tag_101\n      jumpi\n      0x00\n      dup1\n      revert\n    tag_101:\n      pop\n      tag_28\n      sload(0x03)\n      dup2\n      jump\n        /* \"@openzeppelin/contracts/access/Ownable.sol\":1918:2116  function transferOwnership(address newOwner) public virtual onlyOwner {... */\n    tag_19:\n      callvalue\n      dup1\n      iszero\n      tag_105\n      jumpi\n      0x00\n      dup1\n      revert\n    tag_105:\n      pop\n      tag_46\n      tag_107\n      calldatasize\n      0x04\n      tag_48\n      jump\t// in\n    tag_107:\n      tag_108\n      jump\t// in\n        /* \"ERC721A/MintNagaKids.sol\":454:534  bytes32 public constant WHITELIST_MINT_ROUND = keccak256(\"WHITELIST_MINT_ROUND\") */\n    tag_20:\n      callvalue\n      dup1\n      iszero\n      tag_109\n      jumpi\n      0x00\n      dup1\n      revert\n    tag_109:\n      pop\n      tag_28\n        /* \"ERC721A/MintNagaKids.sol\":501:534  keccak256(\"WHITELIST_MINT_ROUND\") */\n      0x68e7d51fdb912cb107dda2e59b053d87fcca666dd0ef5339cd3474ccb5276bba\n        /* \"ERC721A/MintNagaKids.sol\":454:534  bytes32 public constant WHITELIST_MINT_ROUND = keccak256(\"WHITELIST_MINT_ROUND\") */\n      dup2\n      jump\n        /* \"ERC721A/MintNagaKids.sol\":2866:3781  function allowlistMint(bytes32[] calldata _proof, uint256 _amount, bytes32 _round) public payable nonReentrant {... */\n    tag_21:\n      tag_46\n      tag_114\n      calldatasize\n      0x04\n      tag_115\n      jump\t// in\n    tag_114:\n      tag_116\n      jump\t// in\n        /* \"ERC721A/MintNagaKids.sol\":2433:2630  function setRound(bytes32 _round) public onlyOwner {... */\n    tag_22:\n      callvalue\n      dup1\n      iszero\n      tag_117\n      jumpi\n      0x00\n      dup1\n      revert\n    tag_117:\n      pop\n      tag_46\n      tag_119\n      calldatasize\n      0x04\n      tag_60\n      jump\t// in\n    tag_119:\n      tag_120\n      jump\t// in\n        /* \"ERC721A/MintNagaKids.sol\":4871:5003  function isUserMinted(address _user,bytes32 _round) public view returns(bool) {... */\n    tag_23:\n      callvalue\n      dup1\n      iszero\n      tag_121\n      jumpi\n      0x00\n      dup1\n      revert\n    tag_121:\n      pop\n      tag_122\n      tag_123\n      calldatasize\n      0x04\n      tag_80\n      jump\t// in\n    tag_123:\n      sub(shl(0xa0, 0x01), 0x01)\n        /* \"ERC721A/MintNagaKids.sol\":4967:4987  _isUserMinted[_user] */\n      swap2\n      swap1\n      swap2\n      and\n        /* \"ERC721A/MintNagaKids.sol\":4943:4947  bool */\n      0x00\n        /* \"ERC721A/MintNagaKids.sol\":4967:4987  _isUserMinted[_user] */\n      swap1\n      dup2\n      mstore\n        /* \"ERC721A/MintNagaKids.sol\":4967:4980  _isUserMinted */\n      0x05\n        /* \"ERC721A/MintNagaKids.sol\":4967:4987  _isUserMinted[_user] */\n      0x20\n      swap1\n      dup2\n      mstore\n      0x40\n      dup1\n      dup4\n      keccak256\n        /* \"ERC721A/MintNagaKids.sol\":4967:4995  _isUserMinted[_user][_round] */\n      swap4\n      dup4\n      mstore\n      swap3\n      swap1\n      mstore\n      keccak256\n      sload\n      0xff\n      and\n      swap1\n        /* \"ERC721A/MintNagaKids.sol\":4871:5003  function isUserMinted(address _user,bytes32 _round) public view returns(bool) {... */\n      jump\n    tag_122:\n      mload(0x40)\n        /* \"#utility.yul\":3752:3766   */\n      swap1\n      iszero\n        /* \"#utility.yul\":3745:3767   */\n      iszero\n        /* \"#utility.yul\":3727:3768   */\n      dup2\n      mstore\n        /* \"#utility.yul\":3715:3717   */\n      0x20\n        /* \"#utility.yul\":3700:3718   */\n      add\n        /* \"ERC721A/MintNagaKids.sol\":4871:5003  function isUserMinted(address _user,bytes32 _round) public view returns(bool) {... */\n      tag_30\n        /* \"#utility.yul\":3587:3774   */\n      jump\n        /* \"ERC721A/MintNagaKids.sol\":5281:5388  function getMaxSupply() public view returns (uint256) {... */\n    tag_42:\n        /* \"ERC721A/MintNagaKids.sol\":5353:5368  nagaKidContract */\n      sload(0x02)\n        /* \"ERC721A/MintNagaKids.sol\":5353:5380  nagaKidContract.maxSupply() */\n      0x40\n      dup1\n      mload\n      shl(0xe0, 0xd5abeb01)\n      dup2\n      mstore\n      swap1\n      mload\n        /* \"ERC721A/MintNagaKids.sol\":5326:5333  uint256 */\n      0x00\n      swap3\n      sub(shl(0xa0, 0x01), 0x01)\n        /* \"ERC721A/MintNagaKids.sol\":5353:5368  nagaKidContract */\n      and\n      swap2\n        /* \"ERC721A/MintNagaKids.sol\":5353:5378  nagaKidContract.maxSupply */\n      0xd5abeb01\n      swap2\n        /* \"ERC721A/MintNagaKids.sol\":5353:5380  nagaKidContract.maxSupply() */\n      0x04\n      dup1\n      dup4\n      add\n      swap3\n      0x20\n      swap3\n      swap2\n      swap1\n      dup3\n      swap1\n      sub\n      add\n      dup2\n        /* \"ERC721A/MintNagaKids.sol\":5353:5368  nagaKidContract */\n      dup7\n        /* \"ERC721A/MintNagaKids.sol\":5353:5380  nagaKidContract.maxSupply() */\n      gas\n      staticcall\n      iszero\n      dup1\n      iszero\n      tag_129\n      jumpi\n      returndatasize\n      0x00\n      dup1\n      returndatacopy\n      revert(0x00, returndatasize)\n    tag_129:\n      pop\n      pop\n      pop\n      pop\n      mload(0x40)\n      returndatasize\n      not(0x1f)\n      0x1f\n      dup3\n      add\n      and\n      dup3\n      add\n      dup1\n      0x40\n      mstore\n      pop\n      dup2\n      add\n      swap1\n      tag_130\n      swap2\n      swap1\n      tag_131\n      jump\t// in\n    tag_130:\n        /* \"ERC721A/MintNagaKids.sol\":5346:5380  return nagaKidContract.maxSupply() */\n      swap1\n      pop\n        /* \"ERC721A/MintNagaKids.sol\":5281:5388  function getMaxSupply() public view returns (uint256) {... */\n      swap1\n      jump\t// out\n        /* \"ERC721A/MintNagaKids.sol\":3789:4127  function withdraw(address _to) public onlyOwner {... */\n    tag_49:\n        /* \"@openzeppelin/contracts/access/Ownable.sol\":1082:1089  address */\n      0x00\n        /* \"@openzeppelin/contracts/access/Ownable.sol\":1108:1114  _owner */\n      sload\n      sub(shl(0xa0, 0x01), 0x01)\n      and\n        /* \"@openzeppelin/contracts/utils/Context.sol\":719:729  msg.sender */\n      caller\n        /* \"@openzeppelin/contracts/access/Ownable.sol\":1248:1271  owner() == _msgSender() */\n      eq\n        /* \"@openzeppelin/contracts/access/Ownable.sol\":1240:1308  require(owner() == _msgSender(), \"Ownable: caller is not the owner\") */\n      tag_136\n      jumpi\n      mload(0x40)\n      shl(0xe5, 0x461bcd)\n      dup2\n      mstore\n      0x04\n      add\n      tag_137\n      swap1\n      tag_138\n      jump\t// in\n    tag_137:\n      mload(0x40)\n      dup1\n      swap2\n      sub\n      swap1\n      revert\n    tag_136:\n        /* \"ERC721A/MintNagaKids.sol\":3873:3894  address(this).balance */\n      selfbalance\n        /* \"ERC721A/MintNagaKids.sol\":3913:3934  balanceOFContract > 0 */\n      dup1\n        /* \"ERC721A/MintNagaKids.sol\":3905:3959  require(balanceOFContract > 0, \"Insufficient Balance\") */\n      tag_140\n      jumpi\n      mload(0x40)\n      shl(0xe5, 0x461bcd)\n      dup2\n      mstore\n        /* \"#utility.yul\":4531:4533   */\n      0x20\n        /* \"ERC721A/MintNagaKids.sol\":3905:3959  require(balanceOFContract > 0, \"Insufficient Balance\") */\n      0x04\n      dup3\n      add\n        /* \"#utility.yul\":4513:4534   */\n      mstore\n        /* \"#utility.yul\":4570:4572   */\n      0x14\n        /* \"#utility.yul\":4550:4568   */\n      0x24\n      dup3\n      add\n        /* \"#utility.yul\":4543:4573   */\n      mstore\n      shl(0x60, 0x496e73756666696369656e742042616c616e6365)\n        /* \"#utility.yul\":4589:4607   */\n      0x44\n      dup3\n      add\n        /* \"#utility.yul\":4582:4632   */\n      mstore\n        /* \"#utility.yul\":4649:4667   */\n      0x64\n      add\n        /* \"ERC721A/MintNagaKids.sol\":3905:3959  require(balanceOFContract > 0, \"Insufficient Balance\") */\n      tag_137\n        /* \"#utility.yul\":4329:4673   */\n      jump\n        /* \"ERC721A/MintNagaKids.sol\":3905:3959  require(balanceOFContract > 0, \"Insufficient Balance\") */\n    tag_140:\n        /* \"ERC721A/MintNagaKids.sol\":3971:3982  bool status */\n      0x00\n        /* \"ERC721A/MintNagaKids.sol\":3987:3990  _to */\n      dup3\n      sub(shl(0xa0, 0x01), 0x01)\n        /* \"ERC721A/MintNagaKids.sol\":3987:3995  _to.call */\n      and\n        /* \"ERC721A/MintNagaKids.sol\":4003:4020  balanceOFContract */\n      dup3\n        /* \"ERC721A/MintNagaKids.sol\":3987:4026  _to.call{value: balanceOFContract }(\"\") */\n      mload(0x40)\n      0x00\n      mload(0x40)\n      dup1\n      dup4\n      sub\n      dup2\n      dup6\n      dup8\n      gas\n      call\n      swap3\n      pop\n      pop\n      pop\n      returndatasize\n      dup1\n      0x00\n      dup2\n      eq\n      tag_147\n      jumpi\n      mload(0x40)\n      swap2\n      pop\n      and(add(returndatasize, 0x3f), not(0x1f))\n      dup3\n      add\n      0x40\n      mstore\n      returndatasize\n      dup3\n      mstore\n      returndatasize\n      0x00\n      0x20\n      dup5\n      add\n      returndatacopy\n      jump(tag_146)\n    tag_147:\n      0x60\n      swap2\n      pop\n    tag_146:\n      pop\n        /* \"ERC721A/MintNagaKids.sol\":3970:4026  (bool status,) = _to.call{value: balanceOFContract }(\"\") */\n      pop\n      swap1\n      pop\n        /* \"ERC721A/MintNagaKids.sol\":4045:4051  status */\n      dup1\n        /* \"ERC721A/MintNagaKids.sol\":4037:4052  require(status) */\n      tag_148\n      jumpi\n      0x00\n      dup1\n      revert\n    tag_148:\n        /* \"ERC721A/MintNagaKids.sol\":4070:4119  Withdraw(_to, balanceOFContract ,block.timestamp) */\n      0x40\n      dup1\n      mload\n      sub(shl(0xa0, 0x01), 0x01)\n        /* \"#utility.yul\":5108:5140   */\n      dup6\n      and\n        /* \"#utility.yul\":5090:5141   */\n      dup2\n      mstore\n        /* \"#utility.yul\":5172:5174   */\n      0x20\n        /* \"#utility.yul\":5157:5175   */\n      dup2\n      add\n        /* \"#utility.yul\":5150:5184   */\n      dup5\n      swap1\n      mstore\n        /* \"ERC721A/MintNagaKids.sol\":4103:4118  block.timestamp */\n      timestamp\n        /* \"#utility.yul\":5200:5218   */\n      swap2\n      dup2\n      add\n        /* \"#utility.yul\":5193:5227   */\n      swap2\n      swap1\n      swap2\n      mstore\n        /* \"ERC721A/MintNagaKids.sol\":4070:4119  Withdraw(_to, balanceOFContract ,block.timestamp) */\n      0xf279e6a1f5e320cca91135676d9cb6e44ca8a08c0b88342bcdb1144f6511b568\n      swap1\n        /* \"#utility.yul\":5078:5080   */\n      0x60\n        /* \"#utility.yul\":5063:5081   */\n      add\n        /* \"ERC721A/MintNagaKids.sol\":4070:4119  Withdraw(_to, balanceOFContract ,block.timestamp) */\n    tag_149:\n      mload(0x40)\n      dup1\n      swap2\n      sub\n      swap1\n      log1\n        /* \"ERC721A/MintNagaKids.sol\":3837:4127  {... */\n      pop\n      pop\n        /* \"ERC721A/MintNagaKids.sol\":3789:4127  function withdraw(address _to) public onlyOwner {... */\n      pop\n      jump\t// out\n        /* \"@openzeppelin/contracts/access/Ownable.sol\":1668:1769  function renounceOwnership() public virtual onlyOwner {... */\n    tag_56:\n        /* \"@openzeppelin/contracts/access/Ownable.sol\":1082:1089  address */\n      0x00\n        /* \"@openzeppelin/contracts/access/Ownable.sol\":1108:1114  _owner */\n      sload\n      sub(shl(0xa0, 0x01), 0x01)\n      and\n        /* \"@openzeppelin/contracts/utils/Context.sol\":719:729  msg.sender */\n      caller\n        /* \"@openzeppelin/contracts/access/Ownable.sol\":1248:1271  owner() == _msgSender() */\n      eq\n        /* \"@openzeppelin/contracts/access/Ownable.sol\":1240:1308  require(owner() == _msgSender(), \"Ownable: caller is not the owner\") */\n      tag_154\n      jumpi\n      mload(0x40)\n      shl(0xe5, 0x461bcd)\n      dup2\n      mstore\n      0x04\n      add\n      tag_137\n      swap1\n      tag_138\n      jump\t// in\n    tag_154:\n        /* \"@openzeppelin/contracts/access/Ownable.sol\":1732:1762  _transferOwnership(address(0)) */\n      tag_157\n        /* \"@openzeppelin/contracts/access/Ownable.sol\":1759:1760  0 */\n      0x00\n        /* \"@openzeppelin/contracts/access/Ownable.sol\":1732:1750  _transferOwnership */\n      tag_158\n        /* \"@openzeppelin/contracts/access/Ownable.sol\":1732:1762  _transferOwnership(address(0)) */\n      jump\t// in\n    tag_157:\n        /* \"@openzeppelin/contracts/access/Ownable.sol\":1668:1769  function renounceOwnership() public virtual onlyOwner {... */\n      jump\t// out\n        /* \"ERC721A/MintNagaKids.sol\":2638:2858  function setMerkleRoot(bytes32 _merkleRoot) public onlyOwner {... */\n    tag_61:\n        /* \"@openzeppelin/contracts/access/Ownable.sol\":1082:1089  address */\n      0x00\n        /* \"@openzeppelin/contracts/access/Ownable.sol\":1108:1114  _owner */\n      sload\n      sub(shl(0xa0, 0x01), 0x01)\n      and\n        /* \"@openzeppelin/contracts/utils/Context.sol\":719:729  msg.sender */\n      caller\n        /* \"@openzeppelin/contracts/access/Ownable.sol\":1248:1271  owner() == _msgSender() */\n      eq\n        /* \"@openzeppelin/contracts/access/Ownable.sol\":1240:1308  require(owner() == _msgSender(), \"Ownable: caller is not the owner\") */\n      tag_162\n      jumpi\n      mload(0x40)\n      shl(0xe5, 0x461bcd)\n      dup2\n      mstore\n      0x04\n      add\n      tag_137\n      swap1\n      tag_138\n      jump\t// in\n    tag_162:\n        /* \"ERC721A/MintNagaKids.sol\":2738:2748  merkleRoot */\n      0x04\n      dup1\n      sload\n        /* \"ERC721A/MintNagaKids.sol\":2759:2783  merkleRoot = _merkleRoot */\n      swap1\n      dup3\n      swap1\n      sstore\n        /* \"ERC721A/MintNagaKids.sol\":2801:2850  MerkleRootChanged(_merkleRootBefore, _merkleRoot) */\n      0x40\n      dup1\n      mload\n        /* \"#utility.yul\":5412:5437   */\n      dup3\n      dup2\n      mstore\n        /* \"#utility.yul\":5468:5470   */\n      0x20\n        /* \"#utility.yul\":5453:5471   */\n      dup2\n      add\n        /* \"#utility.yul\":5446:5480   */\n      dup5\n      swap1\n      mstore\n        /* \"ERC721A/MintNagaKids.sol\":2801:2850  MerkleRootChanged(_merkleRootBefore, _merkleRoot) */\n      0x123d88ba82600dfc3f219f8885c691b0ff020caa535666874b3f5174973757fe\n      swap2\n        /* \"#utility.yul\":5385:5403   */\n      add\n        /* \"ERC721A/MintNagaKids.sol\":2801:2850  MerkleRootChanged(_merkleRootBefore, _merkleRoot) */\n    tag_165:\n      mload(0x40)\n      dup1\n      swap2\n      sub\n      swap1\n      log1\n        /* \"ERC721A/MintNagaKids.sol\":2699:2858  {... */\n      pop\n        /* \"ERC721A/MintNagaKids.sol\":2638:2858  function setMerkleRoot(bytes32 _merkleRoot) public onlyOwner {... */\n      pop\n      jump\t// out\n        /* \"ERC721A/MintNagaKids.sol\":4135:4512  function withdrawCurrency(address _to,address _currency) public onlyOwner {... */\n    tag_66:\n        /* \"@openzeppelin/contracts/access/Ownable.sol\":1082:1089  address */\n      0x00\n        /* \"@openzeppelin/contracts/access/Ownable.sol\":1108:1114  _owner */\n      sload\n      sub(shl(0xa0, 0x01), 0x01)\n      and\n        /* \"@openzeppelin/contracts/utils/Context.sol\":719:729  msg.sender */\n      caller\n        /* \"@openzeppelin/contracts/access/Ownable.sol\":1248:1271  owner() == _msgSender() */\n      eq\n        /* \"@openzeppelin/contracts/access/Ownable.sol\":1240:1308  require(owner() == _msgSender(), \"Ownable: caller is not the owner\") */\n      tag_170\n      jumpi\n      mload(0x40)\n      shl(0xe5, 0x461bcd)\n      dup2\n      mstore\n      0x04\n      add\n      tag_137\n      swap1\n      tag_138\n      jump\t// in\n    tag_170:\n        /* \"ERC721A/MintNagaKids.sol\":4245:4287  IERC20(_currency).balanceOf(address(this)) */\n      mload(0x40)\n      shl(0xe0, 0x70a08231)\n      dup2\n      mstore\n        /* \"ERC721A/MintNagaKids.sol\":4281:4285  this */\n      address\n        /* \"ERC721A/MintNagaKids.sol\":4245:4287  IERC20(_currency).balanceOf(address(this)) */\n      0x04\n      dup3\n      add\n        /* \"#utility.yul\":1490:1541   */\n      mstore\n        /* \"ERC721A/MintNagaKids.sol\":4220:4242  uint balanceOfContract */\n      0x00\n      swap1\n      sub(shl(0xa0, 0x01), 0x01)\n        /* \"ERC721A/MintNagaKids.sol\":4245:4272  IERC20(_currency).balanceOf */\n      dup4\n      and\n      swap1\n      0x70a08231\n      swap1\n        /* \"#utility.yul\":1463:1481   */\n      0x24\n      add\n        /* \"ERC721A/MintNagaKids.sol\":4245:4287  IERC20(_currency).balanceOf(address(this)) */\n      0x20\n      mload(0x40)\n      dup1\n      dup4\n      sub\n      dup2\n      dup7\n      gas\n      staticcall\n      iszero\n      dup1\n      iszero\n      tag_175\n      jumpi\n      returndatasize\n      0x00\n      dup1\n      returndatacopy\n      revert(0x00, returndatasize)\n    tag_175:\n      pop\n      pop\n      pop\n      pop\n      mload(0x40)\n      returndatasize\n      not(0x1f)\n      0x1f\n      dup3\n      add\n      and\n      dup3\n      add\n      dup1\n      0x40\n      mstore\n      pop\n      dup2\n      add\n      swap1\n      tag_176\n      swap2\n      swap1\n      tag_131\n      jump\t// in\n    tag_176:\n        /* \"ERC721A/MintNagaKids.sol\":4220:4287  uint balanceOfContract = IERC20(_currency).balanceOf(address(this)) */\n      swap1\n      pop\n        /* \"ERC721A/MintNagaKids.sol\":4326:4327  0 */\n      0x00\n        /* \"ERC721A/MintNagaKids.sol\":4306:4323  balanceOfContract */\n      dup2\n        /* \"ERC721A/MintNagaKids.sol\":4306:4327  balanceOfContract > 0 */\n      gt\n        /* \"ERC721A/MintNagaKids.sol\":4298:4352  require(balanceOfContract > 0, \"Insufficient Balance\") */\n      tag_177\n      jumpi\n      mload(0x40)\n      shl(0xe5, 0x461bcd)\n      dup2\n      mstore\n        /* \"#utility.yul\":4531:4533   */\n      0x20\n        /* \"ERC721A/MintNagaKids.sol\":4298:4352  require(balanceOfContract > 0, \"Insufficient Balance\") */\n      0x04\n      dup3\n      add\n        /* \"#utility.yul\":4513:4534   */\n      mstore\n        /* \"#utility.yul\":4570:4572   */\n      0x14\n        /* \"#utility.yul\":4550:4568   */\n      0x24\n      dup3\n      add\n        /* \"#utility.yul\":4543:4573   */\n      mstore\n      shl(0x60, 0x496e73756666696369656e742042616c616e6365)\n        /* \"#utility.yul\":4589:4607   */\n      0x44\n      dup3\n      add\n        /* \"#utility.yul\":4582:4632   */\n      mstore\n        /* \"#utility.yul\":4649:4667   */\n      0x64\n      add\n        /* \"ERC721A/MintNagaKids.sol\":4298:4352  require(balanceOfContract > 0, \"Insufficient Balance\") */\n      tag_137\n        /* \"#utility.yul\":4329:4673   */\n      jump\n        /* \"ERC721A/MintNagaKids.sol\":4298:4352  require(balanceOfContract > 0, \"Insufficient Balance\") */\n    tag_177:\n        /* \"ERC721A/MintNagaKids.sol\":4363:4413  IERC20(_currency).transfer(_to, balanceOfContract) */\n      mload(0x40)\n      shl(0xe0, 0xa9059cbb)\n      dup2\n      mstore\n      sub(shl(0xa0, 0x01), 0x01)\n        /* \"#utility.yul\":5683:5715   */\n      dup5\n      dup2\n      and\n        /* \"ERC721A/MintNagaKids.sol\":4363:4413  IERC20(_currency).transfer(_to, balanceOfContract) */\n      0x04\n      dup4\n      add\n        /* \"#utility.yul\":5665:5716   */\n      mstore\n        /* \"#utility.yul\":5732:5750   */\n      0x24\n      dup3\n      add\n        /* \"#utility.yul\":5725:5759   */\n      dup4\n      swap1\n      mstore\n        /* \"ERC721A/MintNagaKids.sol\":4363:4389  IERC20(_currency).transfer */\n      dup4\n      and\n      swap1\n      0xa9059cbb\n      swap1\n        /* \"#utility.yul\":5638:5656   */\n      0x44\n      add\n        /* \"ERC721A/MintNagaKids.sol\":4363:4413  IERC20(_currency).transfer(_to, balanceOfContract) */\n      0x20\n      mload(0x40)\n      dup1\n      dup4\n      sub\n      dup2\n      0x00\n      dup8\n      gas\n      call\n      iszero\n      dup1\n      iszero\n      tag_182\n      jumpi\n      returndatasize\n      0x00\n      dup1\n      returndatacopy\n      revert(0x00, returndatasize)\n    tag_182:\n      pop\n      pop\n      pop\n      pop\n      mload(0x40)\n      returndatasize\n      not(0x1f)\n      0x1f\n      dup3\n      add\n      and\n      dup3\n      add\n      dup1\n      0x40\n      mstore\n      pop\n      dup2\n      add\n      swap1\n      tag_183\n      swap2\n      swap1\n      tag_184\n      jump\t// in\n    tag_183:\n      pop\n        /* \"ERC721A/MintNagaKids.sol\":4439:4504  WithdrawCurrency(_to,_currency,balanceOfContract,block.timestamp) */\n      0x40\n      dup1\n      mload\n      sub(shl(0xa0, 0x01), 0x01)\n        /* \"#utility.yul\":6339:6354   */\n      dup1\n      dup7\n      and\n        /* \"#utility.yul\":6321:6355   */\n      dup3\n      mstore\n        /* \"#utility.yul\":6391:6406   */\n      dup5\n      and\n        /* \"#utility.yul\":6386:6388   */\n      0x20\n        /* \"#utility.yul\":6371:6389   */\n      dup3\n      add\n        /* \"#utility.yul\":6364:6407   */\n      mstore\n        /* \"#utility.yul\":6423:6441   */\n      swap1\n      dup2\n      add\n        /* \"#utility.yul\":6416:6450   */\n      dup3\n      swap1\n      mstore\n        /* \"ERC721A/MintNagaKids.sol\":4488:4503  block.timestamp */\n      timestamp\n        /* \"#utility.yul\":6481:6483   */\n      0x60\n        /* \"#utility.yul\":6466:6484   */\n      dup3\n      add\n        /* \"#utility.yul\":6459:6493   */\n      mstore\n        /* \"ERC721A/MintNagaKids.sol\":4439:4504  WithdrawCurrency(_to,_currency,balanceOfContract,block.timestamp) */\n      0xb818a975f91276df8ba59329becbc23c793df0d503c19ac296c3c372a1fa0461\n      swap1\n        /* \"#utility.yul\":6270:6273   */\n      0x80\n        /* \"#utility.yul\":6255:6274   */\n      add\n        /* \"ERC721A/MintNagaKids.sol\":4439:4504  WithdrawCurrency(_to,_currency,balanceOfContract,block.timestamp) */\n      tag_149\n        /* \"#utility.yul\":6052:6499   */\n      jump\n        /* \"ERC721A/MintNagaKids.sol\":2137:2425  function setNagaKidContract(INagaKid _nagaKid) public onlyOwner {... */\n    tag_76:\n        /* \"@openzeppelin/contracts/access/Ownable.sol\":1082:1089  address */\n      0x00\n        /* \"@openzeppelin/contracts/access/Ownable.sol\":1108:1114  _owner */\n      sload\n      sub(shl(0xa0, 0x01), 0x01)\n      and\n        /* \"@openzeppelin/contracts/utils/Context.sol\":719:729  msg.sender */\n      caller\n        /* \"@openzeppelin/contracts/access/Ownable.sol\":1248:1271  owner() == _msgSender() */\n      eq\n        /* \"@openzeppelin/contracts/access/Ownable.sol\":1240:1308  require(owner() == _msgSender(), \"Ownable: caller is not the owner\") */\n      tag_191\n      jumpi\n      mload(0x40)\n      shl(0xe5, 0x461bcd)\n      dup2\n      mstore\n      0x04\n      add\n      tag_137\n      swap1\n      tag_138\n      jump\t// in\n    tag_191:\n        /* \"ERC721A/MintNagaKids.sol\":2244:2259  nagaKidContract */\n      0x02\n      dup1\n      sload\n      sub(shl(0xa0, 0x01), 0x01)\n        /* \"ERC721A/MintNagaKids.sol\":2271:2297  nagaKidContract = _nagaKid */\n      dup4\n      dup2\n      and\n      not(sub(shl(0xa0, 0x01), 0x01))\n      dup4\n      and\n      dup2\n      or\n      swap1\n      swap4\n      sstore\n        /* \"ERC721A/MintNagaKids.sol\":2366:2417  NagaKidContractChanged(nagaKidBefore, nagaKidAfter) */\n      0x40\n      dup1\n      mload\n        /* \"ERC721A/MintNagaKids.sol\":2244:2259  nagaKidContract */\n      swap2\n      swap1\n      swap3\n      and\n        /* \"#utility.yul\":6716:6750   */\n      dup1\n      dup3\n      mstore\n        /* \"#utility.yul\":6781:6783   */\n      0x20\n        /* \"#utility.yul\":6766:6784   */\n      dup3\n      add\n        /* \"#utility.yul\":6759:6802   */\n      swap4\n      swap1\n      swap4\n      mstore\n        /* \"ERC721A/MintNagaKids.sol\":2271:2297  nagaKidContract = _nagaKid */\n      dup4\n      swap2\n        /* \"ERC721A/MintNagaKids.sol\":2366:2417  NagaKidContractChanged(nagaKidBefore, nagaKidAfter) */\n      0xabdf056c85a221fcb31d0366c4475b6b2c613df2eeea951a9fcb3e1a8595d973\n      swap2\n        /* \"#utility.yul\":6651:6669   */\n      add\n        /* \"ERC721A/MintNagaKids.sol\":2366:2417  NagaKidContractChanged(nagaKidBefore, nagaKidAfter) */\n      tag_149\n        /* \"#utility.yul\":6504:6808   */\n      jump\n        /* \"ERC721A/MintNagaKids.sol\":4520:4863  function withdrawNFT(address _to,address _NFT,uint256 _tokenId) public onlyOwner {... */\n    tag_87:\n        /* \"@openzeppelin/contracts/access/Ownable.sol\":1082:1089  address */\n      0x00\n        /* \"@openzeppelin/contracts/access/Ownable.sol\":1108:1114  _owner */\n      sload\n      sub(shl(0xa0, 0x01), 0x01)\n      and\n        /* \"@openzeppelin/contracts/utils/Context.sol\":719:729  msg.sender */\n      caller\n        /* \"@openzeppelin/contracts/access/Ownable.sol\":1248:1271  owner() == _msgSender() */\n      eq\n        /* \"@openzeppelin/contracts/access/Ownable.sol\":1240:1308  require(owner() == _msgSender(), \"Ownable: caller is not the owner\") */\n      tag_200\n      jumpi\n      mload(0x40)\n      shl(0xe5, 0x461bcd)\n      dup2\n      mstore\n      0x04\n      add\n      tag_137\n      swap1\n      tag_138\n      jump\t// in\n    tag_200:\n        /* \"ERC721A/MintNagaKids.sol\":4620:4651  IERC721(_NFT).ownerOf(_tokenId) */\n      mload(0x40)\n      shl(0xe1, 0x31a9108f)\n      dup2\n      mstore\n      0x04\n      dup2\n      add\n        /* \"#utility.yul\":160:185   */\n      dup3\n      swap1\n      mstore\n        /* \"ERC721A/MintNagaKids.sol\":4663:4667  this */\n      address\n      swap1\n      sub(shl(0xa0, 0x01), 0x01)\n        /* \"ERC721A/MintNagaKids.sol\":4620:4641  IERC721(_NFT).ownerOf */\n      dup5\n      and\n      swap1\n      0x6352211e\n      swap1\n        /* \"#utility.yul\":133:151   */\n      0x24\n      add\n        /* \"ERC721A/MintNagaKids.sol\":4620:4651  IERC721(_NFT).ownerOf(_tokenId) */\n      0x20\n      mload(0x40)\n      dup1\n      dup4\n      sub\n      dup2\n      dup7\n      gas\n      staticcall\n      iszero\n      dup1\n      iszero\n      tag_205\n      jumpi\n      returndatasize\n      0x00\n      dup1\n      returndatacopy\n      revert(0x00, returndatasize)\n    tag_205:\n      pop\n      pop\n      pop\n      pop\n      mload(0x40)\n      returndatasize\n      not(0x1f)\n      0x1f\n      dup3\n      add\n      and\n      dup3\n      add\n      dup1\n      0x40\n      mstore\n      pop\n      dup2\n      add\n      swap1\n      tag_206\n      swap2\n      swap1\n      tag_207\n      jump\t// in\n    tag_206:\n      sub(shl(0xa0, 0x01), 0x01)\n        /* \"ERC721A/MintNagaKids.sol\":4620:4668  IERC721(_NFT).ownerOf(_tokenId) == address(this) */\n      and\n      eq\n        /* \"ERC721A/MintNagaKids.sol\":4612:4710  require(IERC721(_NFT).ownerOf(_tokenId) == address(this), \"This tokenId is not owned by contract\") */\n      tag_208\n      jumpi\n      mload(0x40)\n      shl(0xe5, 0x461bcd)\n      dup2\n      mstore\n        /* \"#utility.yul\":7271:7273   */\n      0x20\n        /* \"ERC721A/MintNagaKids.sol\":4612:4710  require(IERC721(_NFT).ownerOf(_tokenId) == address(this), \"This tokenId is not owned by contract\") */\n      0x04\n      dup3\n      add\n        /* \"#utility.yul\":7253:7274   */\n      mstore\n        /* \"#utility.yul\":7310:7312   */\n      0x25\n        /* \"#utility.yul\":7290:7308   */\n      0x24\n      dup3\n      add\n        /* \"#utility.yul\":7283:7313   */\n      mstore\n        /* \"#utility.yul\":7349:7383   */\n      0x5468697320746f6b656e4964206973206e6f74206f776e656420627920636f6e\n        /* \"#utility.yul\":7329:7347   */\n      0x44\n      dup3\n      add\n        /* \"#utility.yul\":7322:7384   */\n      mstore\n      shl(0xda, 0x1d1c9858dd)\n        /* \"#utility.yul\":7400:7418   */\n      0x64\n      dup3\n      add\n        /* \"#utility.yul\":7393:7428   */\n      mstore\n        /* \"#utility.yul\":7445:7464   */\n      0x84\n      add\n        /* \"ERC721A/MintNagaKids.sol\":4612:4710  require(IERC721(_NFT).ownerOf(_tokenId) == address(this), \"This tokenId is not owned by contract\") */\n      tag_137\n        /* \"#utility.yul\":7069:7470   */\n      jump\n        /* \"ERC721A/MintNagaKids.sol\":4612:4710  require(IERC721(_NFT).ownerOf(_tokenId) == address(this), \"This tokenId is not owned by contract\") */\n    tag_208:\n        /* \"ERC721A/MintNagaKids.sol\":4723:4783  IERC721(_NFT).safeTransferFrom(address(this), _to, _tokenId) */\n      mload(0x40)\n      shl(0xe1, 0x21421707)\n      dup2\n      mstore\n        /* \"ERC721A/MintNagaKids.sol\":4762:4766  this */\n      address\n        /* \"ERC721A/MintNagaKids.sol\":4723:4783  IERC721(_NFT).safeTransferFrom(address(this), _to, _tokenId) */\n      0x04\n      dup3\n      add\n        /* \"#utility.yul\":7715:7749   */\n      mstore\n      sub(shl(0xa0, 0x01), 0x01)\n        /* \"#utility.yul\":7785:7800   */\n      dup5\n      dup2\n      and\n        /* \"#utility.yul\":7765:7783   */\n      0x24\n      dup4\n      add\n        /* \"#utility.yul\":7758:7801   */\n      mstore\n        /* \"#utility.yul\":7817:7835   */\n      0x44\n      dup3\n      add\n        /* \"#utility.yul\":7810:7844   */\n      dup4\n      swap1\n      mstore\n        /* \"ERC721A/MintNagaKids.sol\":4723:4753  IERC721(_NFT).safeTransferFrom */\n      dup4\n      and\n      swap1\n      0x42842e0e\n      swap1\n        /* \"#utility.yul\":7650:7668   */\n      0x64\n      add\n        /* \"ERC721A/MintNagaKids.sol\":4723:4783  IERC721(_NFT).safeTransferFrom(address(this), _to, _tokenId) */\n      0x00\n      mload(0x40)\n      dup1\n      dup4\n      sub\n      dup2\n      0x00\n      dup8\n      dup1\n      extcodesize\n      iszero\n      dup1\n      iszero\n      tag_213\n      jumpi\n      0x00\n      dup1\n      revert\n    tag_213:\n      pop\n      gas\n      call\n      iszero\n      dup1\n      iszero\n      tag_215\n      jumpi\n      returndatasize\n      0x00\n      dup1\n      returndatacopy\n      revert(0x00, returndatasize)\n    tag_215:\n      pop\n      pop\n        /* \"ERC721A/MintNagaKids.sol\":4809:4855  WithdrawNFT(_to,_NFT,_tokenId,block.timestamp) */\n      0x40\n      dup1\n      mload\n      sub(shl(0xa0, 0x01), 0x01)\n        /* \"#utility.yul\":6339:6354   */\n      dup1\n      dup9\n      and\n        /* \"#utility.yul\":6321:6355   */\n      dup3\n      mstore\n        /* \"#utility.yul\":6391:6406   */\n      dup7\n      and\n        /* \"#utility.yul\":6386:6388   */\n      0x20\n        /* \"#utility.yul\":6371:6389   */\n      dup3\n      add\n        /* \"#utility.yul\":6364:6407   */\n      mstore\n        /* \"#utility.yul\":6423:6441   */\n      swap1\n      dup2\n      add\n        /* \"#utility.yul\":6416:6450   */\n      dup5\n      swap1\n      mstore\n        /* \"ERC721A/MintNagaKids.sol\":4839:4854  block.timestamp */\n      timestamp\n        /* \"#utility.yul\":6481:6483   */\n      0x60\n        /* \"#utility.yul\":6466:6484   */\n      dup3\n      add\n        /* \"#utility.yul\":6459:6493   */\n      mstore\n        /* \"ERC721A/MintNagaKids.sol\":4809:4855  WithdrawNFT(_to,_NFT,_tokenId,block.timestamp) */\n      0x0127a8d3f57942833f6930572bce52ad882683e36eeb5830d199d3fa4bfa9467\n      swap3\n      pop\n        /* \"#utility.yul\":6270:6273   */\n      0x80\n        /* \"#utility.yul\":6255:6274   */\n      add\n      swap1\n      pop\n        /* \"ERC721A/MintNagaKids.sol\":4809:4855  WithdrawNFT(_to,_NFT,_tokenId,block.timestamp) */\n      tag_149\n        /* \"#utility.yul\":6052:6499   */\n      jump\n        /* \"ERC721A/MintNagaKids.sol\":5162:5273  function getTotalSupply() public view returns (uint256) {... */\n    tag_90:\n        /* \"ERC721A/MintNagaKids.sol\":5236:5251  nagaKidContract */\n      sload(0x02)\n        /* \"ERC721A/MintNagaKids.sol\":5236:5265  nagaKidContract.totalSupply() */\n      0x40\n      dup1\n      mload\n      shl(0xe0, 0x18160ddd)\n      dup2\n      mstore\n      swap1\n      mload\n        /* \"ERC721A/MintNagaKids.sol\":5209:5216  uint256 */\n      0x00\n      swap3\n      sub(shl(0xa0, 0x01), 0x01)\n        /* \"ERC721A/MintNagaKids.sol\":5236:5251  nagaKidContract */\n      and\n      swap2\n        /* \"ERC721A/MintNagaKids.sol\":5236:5263  nagaKidContract.totalSupply */\n      0x18160ddd\n      swap2\n        /* \"ERC721A/MintNagaKids.sol\":5236:5265  nagaKidContract.totalSupply() */\n      0x04\n      dup1\n      dup4\n      add\n      swap3\n      0x20\n      swap3\n      swap2\n      swap1\n      dup3\n      swap1\n      sub\n      add\n      dup2\n        /* \"ERC721A/MintNagaKids.sol\":5236:5251  nagaKidContract */\n      dup7\n        /* \"ERC721A/MintNagaKids.sol\":5236:5265  nagaKidContract.totalSupply() */\n      gas\n      staticcall\n      iszero\n      dup1\n      iszero\n      tag_129\n      jumpi\n      returndatasize\n      0x00\n      dup1\n      returndatacopy\n      revert(0x00, returndatasize)\n        /* \"@openzeppelin/contracts/access/Ownable.sol\":1918:2116  function transferOwnership(address newOwner) public virtual onlyOwner {... */\n    tag_108:\n        /* \"@openzeppelin/contracts/access/Ownable.sol\":1082:1089  address */\n      0x00\n        /* \"@openzeppelin/contracts/access/Ownable.sol\":1108:1114  _owner */\n      sload\n      sub(shl(0xa0, 0x01), 0x01)\n      and\n        /* \"@openzeppelin/contracts/utils/Context.sol\":719:729  msg.sender */\n      caller\n        /* \"@openzeppelin/contracts/access/Ownable.sol\":1248:1271  owner() == _msgSender() */\n      eq\n        /* \"@openzeppelin/contracts/access/Ownable.sol\":1240:1308  require(owner() == _msgSender(), \"Ownable: caller is not the owner\") */\n      tag_224\n      jumpi\n      mload(0x40)\n      shl(0xe5, 0x461bcd)\n      dup2\n      mstore\n      0x04\n      add\n      tag_137\n      swap1\n      tag_138\n      jump\t// in\n    tag_224:\n      sub(shl(0xa0, 0x01), 0x01)\n        /* \"@openzeppelin/contracts/access/Ownable.sol\":2006:2028  newOwner != address(0) */\n      dup2\n      and\n        /* \"@openzeppelin/contracts/access/Ownable.sol\":1998:2071  require(newOwner != address(0), \"Ownable: new owner is the zero address\") */\n      tag_227\n      jumpi\n      mload(0x40)\n      shl(0xe5, 0x461bcd)\n      dup2\n      mstore\n        /* \"#utility.yul\":8057:8059   */\n      0x20\n        /* \"@openzeppelin/contracts/access/Ownable.sol\":1998:2071  require(newOwner != address(0), \"Ownable: new owner is the zero address\") */\n      0x04\n      dup3\n      add\n        /* \"#utility.yul\":8039:8060   */\n      mstore\n        /* \"#utility.yul\":8096:8098   */\n      0x26\n        /* \"#utility.yul\":8076:8094   */\n      0x24\n      dup3\n      add\n        /* \"#utility.yul\":8069:8099   */\n      mstore\n        /* \"#utility.yul\":8135:8169   */\n      0x4f776e61626c653a206e6577206f776e657220697320746865207a65726f2061\n        /* \"#utility.yul\":8115:8133   */\n      0x44\n      dup3\n      add\n        /* \"#utility.yul\":8108:8170   */\n      mstore\n      shl(0xd0, 0x646472657373)\n        /* \"#utility.yul\":8186:8204   */\n      0x64\n      dup3\n      add\n        /* \"#utility.yul\":8179:8215   */\n      mstore\n        /* \"#utility.yul\":8232:8251   */\n      0x84\n      add\n        /* \"@openzeppelin/contracts/access/Ownable.sol\":1998:2071  require(newOwner != address(0), \"Ownable: new owner is the zero address\") */\n      tag_137\n        /* \"#utility.yul\":7855:8257   */\n      jump\n        /* \"@openzeppelin/contracts/access/Ownable.sol\":1998:2071  require(newOwner != address(0), \"Ownable: new owner is the zero address\") */\n    tag_227:\n        /* \"@openzeppelin/contracts/access/Ownable.sol\":2081:2109  _transferOwnership(newOwner) */\n      tag_230\n        /* \"@openzeppelin/contracts/access/Ownable.sol\":2100:2108  newOwner */\n      dup2\n        /* \"@openzeppelin/contracts/access/Ownable.sol\":2081:2099  _transferOwnership */\n      tag_158\n        /* \"@openzeppelin/contracts/access/Ownable.sol\":2081:2109  _transferOwnership(newOwner) */\n      jump\t// in\n    tag_230:\n        /* \"@openzeppelin/contracts/access/Ownable.sol\":1918:2116  function transferOwnership(address newOwner) public virtual onlyOwner {... */\n      pop\n      jump\t// out\n        /* \"ERC721A/MintNagaKids.sol\":2866:3781  function allowlistMint(bytes32[] calldata _proof, uint256 _amount, bytes32 _round) public payable nonReentrant {... */\n    tag_116:\n        /* \"@openzeppelin/contracts/security/ReentrancyGuard.sol\":1744:1745  2 */\n      0x02\n        /* \"@openzeppelin/contracts/security/ReentrancyGuard.sol\":2325:2332  _status */\n      sload(0x01)\n        /* \"@openzeppelin/contracts/security/ReentrancyGuard.sol\":2325:2344  _status != _ENTERED */\n      sub\n        /* \"@openzeppelin/contracts/security/ReentrancyGuard.sol\":2317:2380  require(_status != _ENTERED, \"ReentrancyGuard: reentrant call\") */\n      tag_232\n      jumpi\n      mload(0x40)\n      shl(0xe5, 0x461bcd)\n      dup2\n      mstore\n        /* \"#utility.yul\":8464:8466   */\n      0x20\n        /* \"@openzeppelin/contracts/security/ReentrancyGuard.sol\":2317:2380  require(_status != _ENTERED, \"ReentrancyGuard: reentrant call\") */\n      0x04\n      dup3\n      add\n        /* \"#utility.yul\":8446:8467   */\n      mstore\n        /* \"#utility.yul\":8503:8505   */\n      0x1f\n        /* \"#utility.yul\":8483:8501   */\n      0x24\n      dup3\n      add\n        /* \"#utility.yul\":8476:8506   */\n      mstore\n        /* \"#utility.yul\":8542:8575   */\n      0x5265656e7472616e637947756172643a207265656e7472616e742063616c6c00\n        /* \"#utility.yul\":8522:8540   */\n      0x44\n      dup3\n      add\n        /* \"#utility.yul\":8515:8576   */\n      mstore\n        /* \"#utility.yul\":8593:8611   */\n      0x64\n      add\n        /* \"@openzeppelin/contracts/security/ReentrancyGuard.sol\":2317:2380  require(_status != _ENTERED, \"ReentrancyGuard: reentrant call\") */\n      tag_137\n        /* \"#utility.yul\":8262:8617   */\n      jump\n        /* \"@openzeppelin/contracts/security/ReentrancyGuard.sol\":2317:2380  require(_status != _ENTERED, \"ReentrancyGuard: reentrant call\") */\n    tag_232:\n        /* \"@openzeppelin/contracts/security/ReentrancyGuard.sol\":1744:1745  2 */\n      0x02\n        /* \"@openzeppelin/contracts/security/ReentrancyGuard.sol\":2455:2462  _status */\n      0x01\n        /* \"@openzeppelin/contracts/security/ReentrancyGuard.sol\":2455:2473  _status = _ENTERED */\n      sstore\n        /* \"ERC721A/MintNagaKids.sol\":2996:3002  _round */\n      dup1\n        /* \"ERC721A/MintNagaKids.sol\":2988:3038  require(_round != DEFAULT,\"Mint is not approved.\") */\n      tag_236\n      jumpi\n      mload(0x40)\n      shl(0xe5, 0x461bcd)\n      dup2\n      mstore\n        /* \"#utility.yul\":8824:8826   */\n      0x20\n        /* \"ERC721A/MintNagaKids.sol\":2988:3038  require(_round != DEFAULT,\"Mint is not approved.\") */\n      0x04\n      dup3\n      add\n        /* \"#utility.yul\":8806:8827   */\n      mstore\n        /* \"#utility.yul\":8863:8865   */\n      0x15\n        /* \"#utility.yul\":8843:8861   */\n      0x24\n      dup3\n      add\n        /* \"#utility.yul\":8836:8866   */\n      mstore\n      shl(0x59, 0x26b4b73a1034b9903737ba1030b8383937bb32b217)\n        /* \"#utility.yul\":8882:8900   */\n      0x44\n      dup3\n      add\n        /* \"#utility.yul\":8875:8926   */\n      mstore\n        /* \"#utility.yul\":8943:8961   */\n      0x64\n      add\n        /* \"ERC721A/MintNagaKids.sol\":2988:3038  require(_round != DEFAULT,\"Mint is not approved.\") */\n      tag_137\n        /* \"#utility.yul\":8622:8967   */\n      jump\n        /* \"ERC721A/MintNagaKids.sol\":2988:3038  require(_round != DEFAULT,\"Mint is not approved.\") */\n    tag_236:\n        /* \"ERC721A/MintNagaKids.sol\":3077:3083  _round */\n      dup1\n        /* \"ERC721A/MintNagaKids.sol\":3057:3073  currentMintRound */\n      sload(0x03)\n        /* \"ERC721A/MintNagaKids.sol\":3057:3083  currentMintRound == _round */\n      eq\n        /* \"ERC721A/MintNagaKids.sol\":3049:3127  require(currentMintRound == _round, \"Contract are not in this minting round.\") */\n      tag_239\n      jumpi\n      mload(0x40)\n      shl(0xe5, 0x461bcd)\n      dup2\n      mstore\n        /* \"#utility.yul\":9174:9176   */\n      0x20\n        /* \"ERC721A/MintNagaKids.sol\":3049:3127  require(currentMintRound == _round, \"Contract are not in this minting round.\") */\n      0x04\n      dup3\n      add\n        /* \"#utility.yul\":9156:9177   */\n      mstore\n        /* \"#utility.yul\":9213:9215   */\n      0x27\n        /* \"#utility.yul\":9193:9211   */\n      0x24\n      dup3\n      add\n        /* \"#utility.yul\":9186:9216   */\n      mstore\n        /* \"#utility.yul\":9252:9286   */\n      0x436f6e747261637420617265206e6f7420696e2074686973206d696e74696e67\n        /* \"#utility.yul\":9232:9250   */\n      0x44\n      dup3\n      add\n        /* \"#utility.yul\":9225:9287   */\n      mstore\n      shl(0xc9, 0x103937bab73217)\n        /* \"#utility.yul\":9303:9321   */\n      0x64\n      dup3\n      add\n        /* \"#utility.yul\":9296:9333   */\n      mstore\n        /* \"#utility.yul\":9350:9369   */\n      0x84\n      add\n        /* \"ERC721A/MintNagaKids.sol\":3049:3127  require(currentMintRound == _round, \"Contract are not in this minting round.\") */\n      tag_137\n        /* \"#utility.yul\":8972:9375   */\n      jump\n        /* \"ERC721A/MintNagaKids.sol\":3049:3127  require(currentMintRound == _round, \"Contract are not in this minting round.\") */\n    tag_239:\n        /* \"ERC721A/MintNagaKids.sol\":3175:3189  getMaxSupply() */\n      tag_242\n        /* \"ERC721A/MintNagaKids.sol\":3175:3187  getMaxSupply */\n      tag_42\n        /* \"ERC721A/MintNagaKids.sol\":3175:3189  getMaxSupply() */\n      jump\t// in\n    tag_242:\n        /* \"ERC721A/MintNagaKids.sol\":3165:3172  _amount */\n      dup3\n        /* \"ERC721A/MintNagaKids.sol\":3146:3162  getTotalSupply() */\n      tag_243\n        /* \"ERC721A/MintNagaKids.sol\":3146:3160  getTotalSupply */\n      tag_90\n        /* \"ERC721A/MintNagaKids.sol\":3146:3162  getTotalSupply() */\n      jump\t// in\n    tag_243:\n        /* \"ERC721A/MintNagaKids.sol\":3146:3172  getTotalSupply() + _amount */\n      tag_244\n      swap2\n      swap1\n      tag_245\n      jump\t// in\n    tag_244:\n        /* \"ERC721A/MintNagaKids.sol\":3146:3189  getTotalSupply() + _amount < getMaxSupply() */\n      lt\n        /* \"ERC721A/MintNagaKids.sol\":3138:3205  require(getTotalSupply() + _amount < getMaxSupply(), \"Over supply\") */\n      tag_246\n      jumpi\n      mload(0x40)\n      shl(0xe5, 0x461bcd)\n      dup2\n      mstore\n        /* \"#utility.yul\":9847:9849   */\n      0x20\n        /* \"ERC721A/MintNagaKids.sol\":3138:3205  require(getTotalSupply() + _amount < getMaxSupply(), \"Over supply\") */\n      0x04\n      dup3\n      add\n        /* \"#utility.yul\":9829:9850   */\n      mstore\n        /* \"#utility.yul\":9886:9888   */\n      0x0b\n        /* \"#utility.yul\":9866:9884   */\n      0x24\n      dup3\n      add\n        /* \"#utility.yul\":9859:9889   */\n      mstore\n      shl(0xa8, 0x4f76657220737570706c79)\n        /* \"#utility.yul\":9905:9923   */\n      0x44\n      dup3\n      add\n        /* \"#utility.yul\":9898:9939   */\n      mstore\n        /* \"#utility.yul\":9956:9974   */\n      0x64\n      add\n        /* \"ERC721A/MintNagaKids.sol\":3138:3205  require(getTotalSupply() + _amount < getMaxSupply(), \"Over supply\") */\n      tag_137\n        /* \"#utility.yul\":9645:9980   */\n      jump\n        /* \"ERC721A/MintNagaKids.sol\":3138:3205  require(getTotalSupply() + _amount < getMaxSupply(), \"Over supply\") */\n    tag_246:\n        /* \"ERC721A/MintNagaKids.sol\":3237:3247  msg.sender */\n      caller\n        /* \"ERC721A/MintNagaKids.sol\":4943:4947  bool */\n      0x00\n        /* \"ERC721A/MintNagaKids.sol\":4967:4987  _isUserMinted[_user] */\n      swap1\n      dup2\n      mstore\n        /* \"ERC721A/MintNagaKids.sol\":4967:4980  _isUserMinted */\n      0x05\n        /* \"ERC721A/MintNagaKids.sol\":4967:4987  _isUserMinted[_user] */\n      0x20\n      swap1\n      dup2\n      mstore\n      0x40\n      dup1\n      dup4\n      keccak256\n        /* \"ERC721A/MintNagaKids.sol\":4967:4995  _isUserMinted[_user][_round] */\n      dup5\n      dup5\n      mstore\n      swap1\n      swap2\n      mstore\n      swap1\n      keccak256\n      sload\n      0xff\n      and\n        /* \"ERC721A/MintNagaKids.sol\":3224:3264  isUserMinted(msg.sender,_round) == false */\n      iszero\n        /* \"ERC721A/MintNagaKids.sol\":3216:3292  require(isUserMinted(msg.sender,_round) == false, \"You are already minted.\") */\n      tag_250\n      jumpi\n      mload(0x40)\n      shl(0xe5, 0x461bcd)\n      dup2\n      mstore\n        /* \"#utility.yul\":10187:10189   */\n      0x20\n        /* \"ERC721A/MintNagaKids.sol\":3216:3292  require(isUserMinted(msg.sender,_round) == false, \"You are already minted.\") */\n      0x04\n      dup3\n      add\n        /* \"#utility.yul\":10169:10190   */\n      mstore\n        /* \"#utility.yul\":10226:10228   */\n      0x17\n        /* \"#utility.yul\":10206:10224   */\n      0x24\n      dup3\n      add\n        /* \"#utility.yul\":10199:10229   */\n      mstore\n        /* \"#utility.yul\":10265:10290   */\n      0x596f752061726520616c7265616479206d696e7465642e000000000000000000\n        /* \"#utility.yul\":10245:10263   */\n      0x44\n      dup3\n      add\n        /* \"#utility.yul\":10238:10291   */\n      mstore\n        /* \"#utility.yul\":10308:10326   */\n      0x64\n      add\n        /* \"ERC721A/MintNagaKids.sol\":3216:3292  require(isUserMinted(msg.sender,_round) == false, \"You are already minted.\") */\n      tag_137\n        /* \"#utility.yul\":9985:10332   */\n      jump\n        /* \"ERC721A/MintNagaKids.sol\":3216:3292  require(isUserMinted(msg.sender,_round) == false, \"You are already minted.\") */\n    tag_250:\n        /* \"ERC721A/MintNagaKids.sol\":3311:3326  nagaKidContract */\n      sload(0x02)\n        /* \"ERC721A/MintNagaKids.sol\":3311:3350  nagaKidContract.isMinter(address(this)) */\n      mload(0x40)\n      shl(0xe1, 0x55138f0d)\n      dup2\n      mstore\n        /* \"ERC721A/MintNagaKids.sol\":3344:3348  this */\n      address\n        /* \"ERC721A/MintNagaKids.sol\":3311:3350  nagaKidContract.isMinter(address(this)) */\n      0x04\n      dup3\n      add\n        /* \"#utility.yul\":1490:1541   */\n      mstore\n      sub(shl(0xa0, 0x01), 0x01)\n        /* \"ERC721A/MintNagaKids.sol\":3311:3326  nagaKidContract */\n      swap1\n      swap2\n      and\n      swap1\n        /* \"ERC721A/MintNagaKids.sol\":3311:3335  nagaKidContract.isMinter */\n      0xaa271e1a\n      swap1\n        /* \"#utility.yul\":1463:1481   */\n      0x24\n      add\n        /* \"ERC721A/MintNagaKids.sol\":3311:3350  nagaKidContract.isMinter(address(this)) */\n      0x20\n      mload(0x40)\n      dup1\n      dup4\n      sub\n      dup2\n      dup7\n      gas\n      staticcall\n      iszero\n      dup1\n      iszero\n      tag_255\n      jumpi\n      returndatasize\n      0x00\n      dup1\n      returndatacopy\n      revert(0x00, returndatasize)\n    tag_255:\n      pop\n      pop\n      pop\n      pop\n      mload(0x40)\n      returndatasize\n      not(0x1f)\n      0x1f\n      dup3\n      add\n      and\n      dup3\n      add\n      dup1\n      0x40\n      mstore\n      pop\n      dup2\n      add\n      swap1\n      tag_256\n      swap2\n      swap1\n      tag_184\n      jump\t// in\n    tag_256:\n        /* \"ERC721A/MintNagaKids.sol\":3303:3385  require(nagaKidContract.isMinter(address(this)), \"Contract Mint is not approved.\") */\n      tag_257\n      jumpi\n      mload(0x40)\n      shl(0xe5, 0x461bcd)\n      dup2\n      mstore\n        /* \"#utility.yul\":10539:10541   */\n      0x20\n        /* \"ERC721A/MintNagaKids.sol\":3303:3385  require(nagaKidContract.isMinter(address(this)), \"Contract Mint is not approved.\") */\n      0x04\n      dup3\n      add\n        /* \"#utility.yul\":10521:10542   */\n      mstore\n        /* \"#utility.yul\":10578:10580   */\n      0x1e\n        /* \"#utility.yul\":10558:10576   */\n      0x24\n      dup3\n      add\n        /* \"#utility.yul\":10551:10581   */\n      mstore\n        /* \"#utility.yul\":10617:10649   */\n      0x436f6e7472616374204d696e74206973206e6f7420617070726f7665642e0000\n        /* \"#utility.yul\":10597:10615   */\n      0x44\n      dup3\n      add\n        /* \"#utility.yul\":10590:10650   */\n      mstore\n        /* \"#utility.yul\":10667:10685   */\n      0x64\n      add\n        /* \"ERC721A/MintNagaKids.sol\":3303:3385  require(nagaKidContract.isMinter(address(this)), \"Contract Mint is not approved.\") */\n      tag_137\n        /* \"#utility.yul\":10337:10691   */\n      jump\n        /* \"ERC721A/MintNagaKids.sol\":3303:3385  require(nagaKidContract.isMinter(address(this)), \"Contract Mint is not approved.\") */\n    tag_257:\n        /* \"ERC721A/MintNagaKids.sol\":3404:3500  MerkleProof.verify(_proof, merkleRoot, keccak256(abi.encodePacked(msg.sender, _amount, _round))) */\n      tag_260\n        /* \"ERC721A/MintNagaKids.sol\":3423:3429  _proof */\n      dup5\n      dup5\n        /* \"ERC721A/MintNagaKids.sol\":3404:3500  MerkleProof.verify(_proof, merkleRoot, keccak256(abi.encodePacked(msg.sender, _amount, _round))) */\n      dup1\n      dup1\n      0x20\n      mul\n      0x20\n      add\n      mload(0x40)\n      swap1\n      dup2\n      add\n      0x40\n      mstore\n      dup1\n      swap4\n      swap3\n      swap2\n      swap1\n      dup2\n      dup2\n      mstore\n      0x20\n      add\n      dup4\n      dup4\n      0x20\n      mul\n      dup1\n      dup3\n      dup5\n      calldatacopy\n      0x00\n      swap3\n      add\n      swap2\n      swap1\n      swap2\n      mstore\n      pop\n      pop\n        /* \"ERC721A/MintNagaKids.sol\":3431:3441  merkleRoot */\n      sload(0x04)\n        /* \"ERC721A/MintNagaKids.sol\":3453:3498  abi.encodePacked(msg.sender, _amount, _round) */\n      mload(0x40)\n      not(0xffffffffffffffffffffffff)\n        /* \"ERC721A/MintNagaKids.sol\":3470:3480  msg.sender */\n      caller\n        /* \"#utility.yul\":10901:10903   */\n      0x60\n        /* \"#utility.yul\":10897:10912   */\n      shl\n        /* \"#utility.yul\":10893:10946   */\n      and\n        /* \"ERC721A/MintNagaKids.sol\":3453:3498  abi.encodePacked(msg.sender, _amount, _round) */\n      0x20\n      dup3\n      add\n        /* \"#utility.yul\":10881:10947   */\n      mstore\n        /* \"#utility.yul\":10963:10975   */\n      0x34\n      dup2\n      add\n        /* \"#utility.yul\":10956:10984   */\n      dup9\n      swap1\n      mstore\n        /* \"#utility.yul\":11000:11012   */\n      0x54\n      dup2\n      add\n        /* \"#utility.yul\":10993:11021   */\n      dup8\n      swap1\n      mstore\n        /* \"ERC721A/MintNagaKids.sol\":3431:3441  merkleRoot */\n      swap1\n      swap3\n      pop\n        /* \"#utility.yul\":11037:11049   */\n      0x74\n      add\n      swap1\n      pop\n        /* \"ERC721A/MintNagaKids.sol\":3453:3498  abi.encodePacked(msg.sender, _amount, _round) */\n      mload(0x40)\n      0x20\n      dup2\n      dup4\n      sub\n      sub\n      dup2\n      mstore\n      swap1\n      0x40\n      mstore\n        /* \"ERC721A/MintNagaKids.sol\":3443:3499  keccak256(abi.encodePacked(msg.sender, _amount, _round)) */\n      dup1\n      mload\n      swap1\n      0x20\n      add\n      keccak256\n        /* \"ERC721A/MintNagaKids.sol\":3404:3422  MerkleProof.verify */\n      tag_263\n        /* \"ERC721A/MintNagaKids.sol\":3404:3500  MerkleProof.verify(_proof, merkleRoot, keccak256(abi.encodePacked(msg.sender, _amount, _round))) */\n      jump\t// in\n    tag_260:\n        /* \"ERC721A/MintNagaKids.sol\":3396:3542  require(MerkleProof.verify(_proof, merkleRoot, keccak256(abi.encodePacked(msg.sender, _amount, _round))), \"Unauthorized WhitelistMint This User.\") */\n      tag_264\n      jumpi\n      mload(0x40)\n      shl(0xe5, 0x461bcd)\n      dup2\n      mstore\n        /* \"#utility.yul\":11262:11264   */\n      0x20\n        /* \"ERC721A/MintNagaKids.sol\":3396:3542  require(MerkleProof.verify(_proof, merkleRoot, keccak256(abi.encodePacked(msg.sender, _amount, _round))), \"Unauthorized WhitelistMint This User.\") */\n      0x04\n      dup3\n      add\n        /* \"#utility.yul\":11244:11265   */\n      mstore\n        /* \"#utility.yul\":11301:11303   */\n      0x25\n        /* \"#utility.yul\":11281:11299   */\n      0x24\n      dup3\n      add\n        /* \"#utility.yul\":11274:11304   */\n      mstore\n        /* \"#utility.yul\":11340:11374   */\n      0x556e617574686f72697a65642057686974656c6973744d696e74205468697320\n        /* \"#utility.yul\":11320:11338   */\n      0x44\n      dup3\n      add\n        /* \"#utility.yul\":11313:11375   */\n      mstore\n      shl(0xd9, 0x2ab9b2b917)\n        /* \"#utility.yul\":11391:11409   */\n      0x64\n      dup3\n      add\n        /* \"#utility.yul\":11384:11419   */\n      mstore\n        /* \"#utility.yul\":11436:11455   */\n      0x84\n      add\n        /* \"ERC721A/MintNagaKids.sol\":3396:3542  require(MerkleProof.verify(_proof, merkleRoot, keccak256(abi.encodePacked(msg.sender, _amount, _round))), \"Unauthorized WhitelistMint This User.\") */\n      tag_137\n        /* \"#utility.yul\":11060:11461   */\n      jump\n        /* \"ERC721A/MintNagaKids.sol\":3396:3542  require(MerkleProof.verify(_proof, merkleRoot, keccak256(abi.encodePacked(msg.sender, _amount, _round))), \"Unauthorized WhitelistMint This User.\") */\n    tag_264:\n        /* \"ERC721A/MintNagaKids.sol\":3569:3579  msg.sender */\n      caller\n        /* \"ERC721A/MintNagaKids.sol\":3555:3580  _isUserMinted[msg.sender] */\n      0x00\n      dup2\n      dup2\n      mstore\n        /* \"ERC721A/MintNagaKids.sol\":3555:3568  _isUserMinted */\n      0x05\n        /* \"ERC721A/MintNagaKids.sol\":3555:3580  _isUserMinted[msg.sender] */\n      0x20\n      swap1\n      dup2\n      mstore\n      0x40\n      dup1\n      dup4\n      keccak256\n        /* \"ERC721A/MintNagaKids.sol\":3555:3588  _isUserMinted[msg.sender][_round] */\n      dup6\n      dup5\n      mstore\n      dup3\n      mstore\n      dup1\n      dup4\n      keccak256\n        /* \"ERC721A/MintNagaKids.sol\":3555:3595  _isUserMinted[msg.sender][_round] = true */\n      dup1\n      sload\n      not(0xff)\n      and\n        /* \"ERC721A/MintNagaKids.sol\":3591:3595  true */\n      0x01\n        /* \"ERC721A/MintNagaKids.sol\":3555:3595  _isUserMinted[msg.sender][_round] = true */\n      or\n      swap1\n      sstore\n        /* \"ERC721A/MintNagaKids.sol\":3606:3635  _userMintedAmount[msg.sender] */\n      swap3\n      dup3\n      mstore\n        /* \"ERC721A/MintNagaKids.sol\":3606:3623  _userMintedAmount */\n      0x06\n        /* \"ERC721A/MintNagaKids.sol\":3606:3635  _userMintedAmount[msg.sender] */\n      dup2\n      mstore\n      dup3\n      dup3\n      keccak256\n        /* \"ERC721A/MintNagaKids.sol\":3606:3643  _userMintedAmount[msg.sender][_round] */\n      dup5\n      dup4\n      mstore\n      swap1\n      mstore\n      swap1\n      dup2\n      keccak256\n        /* \"ERC721A/MintNagaKids.sol\":3606:3654  _userMintedAmount[msg.sender][_round] += _amount */\n      dup1\n      sload\n        /* \"ERC721A/MintNagaKids.sol\":3647:3654  _amount */\n      dup5\n      swap3\n        /* \"ERC721A/MintNagaKids.sol\":3555:3580  _isUserMinted[msg.sender] */\n      swap1\n        /* \"ERC721A/MintNagaKids.sol\":3606:3654  _userMintedAmount[msg.sender][_round] += _amount */\n      tag_267\n      swap1\n        /* \"ERC721A/MintNagaKids.sol\":3647:3654  _amount */\n      dup5\n      swap1\n        /* \"ERC721A/MintNagaKids.sol\":3606:3654  _userMintedAmount[msg.sender][_round] += _amount */\n      tag_245\n      jump\t// in\n    tag_267:\n      swap1\n      swap2\n      sstore\n      pop\n      pop\n        /* \"ERC721A/MintNagaKids.sol\":3667:3682  nagaKidContract */\n      sload(0x02)\n        /* \"ERC721A/MintNagaKids.sol\":3667:3711  nagaKidContract.safeMint(msg.sender,_amount) */\n      mload(0x40)\n      shl(0xe2, 0x28512065)\n      dup2\n      mstore\n        /* \"ERC721A/MintNagaKids.sol\":3692:3702  msg.sender */\n      caller\n        /* \"ERC721A/MintNagaKids.sol\":3667:3711  nagaKidContract.safeMint(msg.sender,_amount) */\n      0x04\n      dup3\n      add\n        /* \"#utility.yul\":5665:5716   */\n      mstore\n        /* \"#utility.yul\":5732:5750   */\n      0x24\n      dup2\n      add\n        /* \"#utility.yul\":5725:5759   */\n      dup5\n      swap1\n      mstore\n      sub(shl(0xa0, 0x01), 0x01)\n        /* \"ERC721A/MintNagaKids.sol\":3667:3682  nagaKidContract */\n      swap1\n      swap2\n      and\n      swap1\n        /* \"ERC721A/MintNagaKids.sol\":3667:3691  nagaKidContract.safeMint */\n      0xa1448194\n      swap1\n        /* \"#utility.yul\":5638:5656   */\n      0x44\n      add\n        /* \"ERC721A/MintNagaKids.sol\":3667:3711  nagaKidContract.safeMint(msg.sender,_amount) */\n      0x00\n      mload(0x40)\n      dup1\n      dup4\n      sub\n      dup2\n      0x00\n      dup8\n      dup1\n      extcodesize\n      iszero\n      dup1\n      iszero\n      tag_269\n      jumpi\n      0x00\n      dup1\n      revert\n    tag_269:\n      pop\n      gas\n      call\n      iszero\n      dup1\n      iszero\n      tag_271\n      jumpi\n      returndatasize\n      0x00\n      dup1\n      returndatacopy\n      revert(0x00, returndatasize)\n    tag_271:\n      pop\n      pop\n        /* \"ERC721A/MintNagaKids.sol\":3729:3773  Minted(msg.sender, _amount, block.timestamp) */\n      0x40\n      dup1\n      mload\n        /* \"#utility.yul\":5412:5437   */\n      dup6\n      dup2\n      mstore\n        /* \"ERC721A/MintNagaKids.sol\":3757:3772  block.timestamp */\n      timestamp\n        /* \"#utility.yul\":5468:5470   */\n      0x20\n        /* \"#utility.yul\":5453:5471   */\n      dup3\n      add\n        /* \"#utility.yul\":5446:5480   */\n      mstore\n        /* \"ERC721A/MintNagaKids.sol\":3736:3746  msg.sender */\n      caller\n      swap4\n      pop\n        /* \"ERC721A/MintNagaKids.sol\":3729:3773  Minted(msg.sender, _amount, block.timestamp) */\n      0x25b428dfde728ccfaddad7e29e4ac23c24ed7fd1a6e3e3f91894a9a073f5dfff\n      swap3\n      pop\n        /* \"#utility.yul\":5385:5403   */\n      add\n        /* \"ERC721A/MintNagaKids.sol\":3729:3773  Minted(msg.sender, _amount, block.timestamp) */\n      mload(0x40)\n      dup1\n      swap2\n      sub\n      swap1\n      log2\n      pop\n      pop\n        /* \"@openzeppelin/contracts/security/ReentrancyGuard.sol\":1701:1702  1 */\n      0x01\n        /* \"@openzeppelin/contracts/security/ReentrancyGuard.sol\":2628:2650  _status = _NOT_ENTERED */\n      dup1\n      sstore\n      pop\n      pop\n        /* \"ERC721A/MintNagaKids.sol\":2866:3781  function allowlistMint(bytes32[] calldata _proof, uint256 _amount, bytes32 _round) public payable nonReentrant {... */\n      jump\t// out\n        /* \"ERC721A/MintNagaKids.sol\":2433:2630  function setRound(bytes32 _round) public onlyOwner {... */\n    tag_120:\n        /* \"@openzeppelin/contracts/access/Ownable.sol\":1082:1089  address */\n      0x00\n        /* \"@openzeppelin/contracts/access/Ownable.sol\":1108:1114  _owner */\n      sload\n      sub(shl(0xa0, 0x01), 0x01)\n      and\n        /* \"@openzeppelin/contracts/utils/Context.sol\":719:729  msg.sender */\n      caller\n        /* \"@openzeppelin/contracts/access/Ownable.sol\":1248:1271  owner() == _msgSender() */\n      eq\n        /* \"@openzeppelin/contracts/access/Ownable.sol\":1240:1308  require(owner() == _msgSender(), \"Ownable: caller is not the owner\") */\n      tag_277\n      jumpi\n      mload(0x40)\n      shl(0xe5, 0x461bcd)\n      dup2\n      mstore\n      0x04\n      add\n      tag_137\n      swap1\n      tag_138\n      jump\t// in\n    tag_277:\n        /* \"ERC721A/MintNagaKids.sol\":2518:2534  currentMintRound */\n      0x03\n      dup1\n      sload\n        /* \"ERC721A/MintNagaKids.sol\":2545:2570  currentMintRound = _round */\n      swap1\n      dup3\n      swap1\n      sstore\n        /* \"ERC721A/MintNagaKids.sol\":2588:2622  RoundChanged(_roundBefore, _round) */\n      0x40\n      dup1\n      mload\n        /* \"#utility.yul\":5412:5437   */\n      dup3\n      dup2\n      mstore\n        /* \"#utility.yul\":5468:5470   */\n      0x20\n        /* \"#utility.yul\":5453:5471   */\n      dup2\n      add\n        /* \"#utility.yul\":5446:5480   */\n      dup5\n      swap1\n      mstore\n        /* \"ERC721A/MintNagaKids.sol\":2588:2622  RoundChanged(_roundBefore, _round) */\n      0x521ec96875ca228cd2fc1dbd4c927a34328c9ce1a83bcb8c1f633f012c90d785\n      swap2\n        /* \"#utility.yul\":5385:5403   */\n      add\n        /* \"ERC721A/MintNagaKids.sol\":2588:2622  RoundChanged(_roundBefore, _round) */\n      tag_165\n        /* \"#utility.yul\":5238:5486   */\n      jump\n        /* \"@openzeppelin/contracts/access/Ownable.sol\":2270:2457  function _transferOwnership(address newOwner) internal virtual {... */\n    tag_158:\n        /* \"@openzeppelin/contracts/access/Ownable.sol\":2343:2359  address oldOwner */\n      0x00\n        /* \"@openzeppelin/contracts/access/Ownable.sol\":2362:2368  _owner */\n      dup1\n      sload\n      sub(shl(0xa0, 0x01), 0x01)\n        /* \"@openzeppelin/contracts/access/Ownable.sol\":2378:2395  _owner = newOwner */\n      dup4\n      dup2\n      and\n      not(sub(shl(0xa0, 0x01), 0x01))\n      dup4\n      and\n      dup2\n      or\n      dup5\n      sstore\n        /* \"@openzeppelin/contracts/access/Ownable.sol\":2410:2450  OwnershipTransferred(oldOwner, newOwner) */\n      mload(0x40)\n        /* \"@openzeppelin/contracts/access/Ownable.sol\":2362:2368  _owner */\n      swap2\n      swap1\n      swap3\n      and\n      swap3\n      dup4\n      swap2\n        /* \"@openzeppelin/contracts/access/Ownable.sol\":2410:2450  OwnershipTransferred(oldOwner, newOwner) */\n      0x8be0079c531659141344cd1fd0a4f28419497f9722a3daafe3b4186f6b6457e0\n      swap2\n        /* \"@openzeppelin/contracts/access/Ownable.sol\":2343:2359  address oldOwner */\n      swap1\n        /* \"@openzeppelin/contracts/access/Ownable.sol\":2410:2450  OwnershipTransferred(oldOwner, newOwner) */\n      log3\n        /* \"@openzeppelin/contracts/access/Ownable.sol\":2333:2457  {... */\n      pop\n        /* \"@openzeppelin/contracts/access/Ownable.sol\":2270:2457  function _transferOwnership(address newOwner) internal virtual {... */\n      pop\n      jump\t// out\n        /* \"@openzeppelin/contracts/utils/cryptography/MerkleProof.sol\":1154:1338  function verify(... */\n    tag_263:\n        /* \"@openzeppelin/contracts/utils/cryptography/MerkleProof.sol\":1275:1279  bool */\n      0x00\n        /* \"@openzeppelin/contracts/utils/cryptography/MerkleProof.sol\":1327:1331  root */\n      dup3\n        /* \"@openzeppelin/contracts/utils/cryptography/MerkleProof.sol\":1298:1323  processProof(proof, leaf) */\n      tag_285\n        /* \"@openzeppelin/contracts/utils/cryptography/MerkleProof.sol\":1311:1316  proof */\n      dup6\n        /* \"@openzeppelin/contracts/utils/cryptography/MerkleProof.sol\":1318:1322  leaf */\n      dup5\n        /* \"@openzeppelin/contracts/utils/cryptography/MerkleProof.sol\":1298:1310  processProof */\n      tag_286\n        /* \"@openzeppelin/contracts/utils/cryptography/MerkleProof.sol\":1298:1323  processProof(proof, leaf) */\n      jump\t// in\n    tag_285:\n        /* \"@openzeppelin/contracts/utils/cryptography/MerkleProof.sol\":1298:1331  processProof(proof, leaf) == root */\n      eq\n      swap5\n        /* \"@openzeppelin/contracts/utils/cryptography/MerkleProof.sol\":1154:1338  function verify(... */\n      swap4\n      pop\n      pop\n      pop\n      pop\n      jump\t// out\n        /* \"@openzeppelin/contracts/utils/cryptography/MerkleProof.sol\":1689:2351  function processProof(bytes32[] memory proof, bytes32 leaf) internal pure returns (bytes32) {... */\n    tag_286:\n        /* \"@openzeppelin/contracts/utils/cryptography/MerkleProof.sol\":1772:1779  bytes32 */\n      0x00\n        /* \"@openzeppelin/contracts/utils/cryptography/MerkleProof.sol\":1814:1818  leaf */\n      dup2\n        /* \"@openzeppelin/contracts/utils/cryptography/MerkleProof.sol\":1772:1779  bytes32 */\n      dup2\n        /* \"@openzeppelin/contracts/utils/cryptography/MerkleProof.sol\":1828:2316  for (uint256 i = 0; i < proof.length; i++) {... */\n    tag_288:\n        /* \"@openzeppelin/contracts/utils/cryptography/MerkleProof.sol\":1852:1857  proof */\n      dup5\n        /* \"@openzeppelin/contracts/utils/cryptography/MerkleProof.sol\":1852:1864  proof.length */\n      mload\n        /* \"@openzeppelin/contracts/utils/cryptography/MerkleProof.sol\":1848:1849  i */\n      dup2\n        /* \"@openzeppelin/contracts/utils/cryptography/MerkleProof.sol\":1848:1864  i < proof.length */\n      lt\n        /* \"@openzeppelin/contracts/utils/cryptography/MerkleProof.sol\":1828:2316  for (uint256 i = 0; i < proof.length; i++) {... */\n      iszero\n      tag_289\n      jumpi\n        /* \"@openzeppelin/contracts/utils/cryptography/MerkleProof.sol\":1885:1905  bytes32 proofElement */\n      0x00\n        /* \"@openzeppelin/contracts/utils/cryptography/MerkleProof.sol\":1908:1913  proof */\n      dup6\n        /* \"@openzeppelin/contracts/utils/cryptography/MerkleProof.sol\":1914:1915  i */\n      dup3\n        /* \"@openzeppelin/contracts/utils/cryptography/MerkleProof.sol\":1908:1916  proof[i] */\n      dup2\n      mload\n      dup2\n      lt\n      tag_292\n      jumpi\n      tag_292\n      tag_293\n      jump\t// in\n    tag_292:\n      0x20\n      mul\n      0x20\n      add\n      add\n      mload\n        /* \"@openzeppelin/contracts/utils/cryptography/MerkleProof.sol\":1885:1916  bytes32 proofElement = proof[i] */\n      swap1\n      pop\n        /* \"@openzeppelin/contracts/utils/cryptography/MerkleProof.sol\":1950:1962  proofElement */\n      dup1\n        /* \"@openzeppelin/contracts/utils/cryptography/MerkleProof.sol\":1934:1946  computedHash */\n      dup4\n        /* \"@openzeppelin/contracts/utils/cryptography/MerkleProof.sol\":1934:1962  computedHash <= proofElement */\n      gt\n        /* \"@openzeppelin/contracts/utils/cryptography/MerkleProof.sol\":1930:2306  if (computedHash <= proofElement) {... */\n      tag_294\n      jumpi\n        /* \"@openzeppelin/contracts/utils/cryptography/MerkleProof.sol\":2425:2438  bytes32 value */\n      0x00\n        /* \"@openzeppelin/contracts/utils/cryptography/MerkleProof.sol\":2473:2488  mstore(0x00, a) */\n      dup4\n      dup2\n      mstore\n        /* \"@openzeppelin/contracts/utils/cryptography/MerkleProof.sol\":2508:2512  0x20 */\n      0x20\n        /* \"@openzeppelin/contracts/utils/cryptography/MerkleProof.sol\":2501:2516  mstore(0x20, b) */\n      dup3\n      swap1\n      mstore\n        /* \"@openzeppelin/contracts/utils/cryptography/MerkleProof.sol\":2554:2558  0x40 */\n      0x40\n        /* \"@openzeppelin/contracts/utils/cryptography/MerkleProof.sol\":2538:2559  keccak256(0x00, 0x40) */\n      swap1\n      keccak256\n        /* \"@openzeppelin/contracts/utils/cryptography/MerkleProof.sol\":2060:2117  computedHash = _efficientHash(computedHash, proofElement) */\n      swap3\n      pop\n        /* \"@openzeppelin/contracts/utils/cryptography/MerkleProof.sol\":1930:2306  if (computedHash <= proofElement) {... */\n      jump(tag_297)\n    tag_294:\n        /* \"@openzeppelin/contracts/utils/cryptography/MerkleProof.sol\":2425:2438  bytes32 value */\n      0x00\n        /* \"@openzeppelin/contracts/utils/cryptography/MerkleProof.sol\":2473:2488  mstore(0x00, a) */\n      dup2\n      dup2\n      mstore\n        /* \"@openzeppelin/contracts/utils/cryptography/MerkleProof.sol\":2508:2512  0x20 */\n      0x20\n        /* \"@openzeppelin/contracts/utils/cryptography/MerkleProof.sol\":2501:2516  mstore(0x20, b) */\n      dup5\n      swap1\n      mstore\n        /* \"@openzeppelin/contracts/utils/cryptography/MerkleProof.sol\":2554:2558  0x40 */\n      0x40\n        /* \"@openzeppelin/contracts/utils/cryptography/MerkleProof.sol\":2538:2559  keccak256(0x00, 0x40) */\n      swap1\n      keccak256\n        /* \"@openzeppelin/contracts/utils/cryptography/MerkleProof.sol\":2234:2291  computedHash = _efficientHash(proofElement, computedHash) */\n      swap3\n      pop\n        /* \"@openzeppelin/contracts/utils/cryptography/MerkleProof.sol\":1930:2306  if (computedHash <= proofElement) {... */\n    tag_297:\n      pop\n        /* \"@openzeppelin/contracts/utils/cryptography/MerkleProof.sol\":1866:1869  i++ */\n      dup1\n      tag_299\n      dup2\n      tag_300\n      jump\t// in\n    tag_299:\n      swap2\n      pop\n      pop\n        /* \"@openzeppelin/contracts/utils/cryptography/MerkleProof.sol\":1828:2316  for (uint256 i = 0; i < proof.length; i++) {... */\n      jump(tag_288)\n    tag_289:\n      pop\n        /* \"@openzeppelin/contracts/utils/cryptography/MerkleProof.sol\":2332:2344  computedHash */\n      swap4\n        /* \"@openzeppelin/contracts/utils/cryptography/MerkleProof.sol\":1689:2351  function processProof(bytes32[] memory proof, bytes32 leaf) internal pure returns (bytes32) {... */\n      swap3\n      pop\n      pop\n      pop\n      jump\t// out\n        /* \"#utility.yul\":378:509   */\n    tag_302:\n      sub(shl(0xa0, 0x01), 0x01)\n        /* \"#utility.yul\":453:484   */\n      dup2\n      and\n        /* \"#utility.yul\":443:485   */\n      dup2\n      eq\n        /* \"#utility.yul\":433:503   */\n      tag_230\n      jumpi\n        /* \"#utility.yul\":499:500   */\n      0x00\n        /* \"#utility.yul\":496:497   */\n      dup1\n        /* \"#utility.yul\":489:501   */\n      revert\n        /* \"#utility.yul\":514:761   */\n    tag_48:\n        /* \"#utility.yul\":573:579   */\n      0x00\n        /* \"#utility.yul\":626:628   */\n      0x20\n        /* \"#utility.yul\":614:623   */\n      dup3\n        /* \"#utility.yul\":605:612   */\n      dup5\n        /* \"#utility.yul\":601:624   */\n      sub\n        /* \"#utility.yul\":597:629   */\n      slt\n        /* \"#utility.yul\":594:646   */\n      iszero\n      tag_310\n      jumpi\n        /* \"#utility.yul\":642:643   */\n      0x00\n        /* \"#utility.yul\":639:640   */\n      dup1\n        /* \"#utility.yul\":632:644   */\n      revert\n        /* \"#utility.yul\":594:646   */\n    tag_310:\n        /* \"#utility.yul\":681:690   */\n      dup2\n        /* \"#utility.yul\":668:691   */\n      calldataload\n        /* \"#utility.yul\":700:731   */\n      tag_311\n        /* \"#utility.yul\":725:730   */\n      dup2\n        /* \"#utility.yul\":700:731   */\n      tag_302\n      jump\t// in\n    tag_311:\n        /* \"#utility.yul\":750:755   */\n      swap4\n        /* \"#utility.yul\":514:761   */\n      swap3\n      pop\n      pop\n      pop\n      jump\t// out\n        /* \"#utility.yul\":766:946   */\n    tag_60:\n        /* \"#utility.yul\":825:831   */\n      0x00\n        /* \"#utility.yul\":878:880   */\n      0x20\n        /* \"#utility.yul\":866:875   */\n      dup3\n        /* \"#utility.yul\":857:864   */\n      dup5\n        /* \"#utility.yul\":853:876   */\n      sub\n        /* \"#utility.yul\":849:881   */\n      slt\n        /* \"#utility.yul\":846:898   */\n      iszero\n      tag_313\n      jumpi\n        /* \"#utility.yul\":894:895   */\n      0x00\n        /* \"#utility.yul\":891:892   */\n      dup1\n        /* \"#utility.yul\":884:896   */\n      revert\n        /* \"#utility.yul\":846:898   */\n    tag_313:\n      pop\n        /* \"#utility.yul\":917:940   */\n      calldataload\n      swap2\n        /* \"#utility.yul\":766:946   */\n      swap1\n      pop\n      jump\t// out\n        /* \"#utility.yul\":951:1339   */\n    tag_65:\n        /* \"#utility.yul\":1019:1025   */\n      0x00\n        /* \"#utility.yul\":1027:1033   */\n      dup1\n        /* \"#utility.yul\":1080:1082   */\n      0x40\n        /* \"#utility.yul\":1068:1077   */\n      dup4\n        /* \"#utility.yul\":1059:1066   */\n      dup6\n        /* \"#utility.yul\":1055:1078   */\n      sub\n        /* \"#utility.yul\":1051:1083   */\n      slt\n        /* \"#utility.yul\":1048:1100   */\n      iszero\n      tag_315\n      jumpi\n        /* \"#utility.yul\":1096:1097   */\n      0x00\n        /* \"#utility.yul\":1093:1094   */\n      dup1\n        /* \"#utility.yul\":1086:1098   */\n      revert\n        /* \"#utility.yul\":1048:1100   */\n    tag_315:\n        /* \"#utility.yul\":1135:1144   */\n      dup3\n        /* \"#utility.yul\":1122:1145   */\n      calldataload\n        /* \"#utility.yul\":1154:1185   */\n      tag_316\n        /* \"#utility.yul\":1179:1184   */\n      dup2\n        /* \"#utility.yul\":1154:1185   */\n      tag_302\n      jump\t// in\n    tag_316:\n        /* \"#utility.yul\":1204:1209   */\n      swap2\n      pop\n        /* \"#utility.yul\":1261:1263   */\n      0x20\n        /* \"#utility.yul\":1246:1264   */\n      dup4\n      add\n        /* \"#utility.yul\":1233:1265   */\n      calldataload\n        /* \"#utility.yul\":1274:1307   */\n      tag_317\n        /* \"#utility.yul\":1233:1265   */\n      dup2\n        /* \"#utility.yul\":1274:1307   */\n      tag_302\n      jump\t// in\n    tag_317:\n        /* \"#utility.yul\":1326:1333   */\n      dup1\n        /* \"#utility.yul\":1316:1333   */\n      swap2\n      pop\n      pop\n        /* \"#utility.yul\":951:1339   */\n      swap3\n      pop\n      swap3\n      swap1\n      pop\n      jump\t// out\n        /* \"#utility.yul\":1820:2135   */\n    tag_80:\n        /* \"#utility.yul\":1888:1894   */\n      0x00\n        /* \"#utility.yul\":1896:1902   */\n      dup1\n        /* \"#utility.yul\":1949:1951   */\n      0x40\n        /* \"#utility.yul\":1937:1946   */\n      dup4\n        /* \"#utility.yul\":1928:1935   */\n      dup6\n        /* \"#utility.yul\":1924:1947   */\n      sub\n        /* \"#utility.yul\":1920:1952   */\n      slt\n        /* \"#utility.yul\":1917:1969   */\n      iszero\n      tag_323\n      jumpi\n        /* \"#utility.yul\":1965:1966   */\n      0x00\n        /* \"#utility.yul\":1962:1963   */\n      dup1\n        /* \"#utility.yul\":1955:1967   */\n      revert\n        /* \"#utility.yul\":1917:1969   */\n    tag_323:\n        /* \"#utility.yul\":2004:2013   */\n      dup3\n        /* \"#utility.yul\":1991:2014   */\n      calldataload\n        /* \"#utility.yul\":2023:2054   */\n      tag_324\n        /* \"#utility.yul\":2048:2053   */\n      dup2\n        /* \"#utility.yul\":2023:2054   */\n      tag_302\n      jump\t// in\n    tag_324:\n        /* \"#utility.yul\":2073:2078   */\n      swap5\n        /* \"#utility.yul\":2125:2127   */\n      0x20\n        /* \"#utility.yul\":2110:2128   */\n      swap4\n      swap1\n      swap4\n      add\n        /* \"#utility.yul\":2097:2129   */\n      calldataload\n      swap4\n      pop\n      pop\n      pop\n        /* \"#utility.yul\":1820:2135   */\n      jump\t// out\n        /* \"#utility.yul\":2140:2596   */\n    tag_86:\n        /* \"#utility.yul\":2217:2223   */\n      0x00\n        /* \"#utility.yul\":2225:2231   */\n      dup1\n        /* \"#utility.yul\":2233:2239   */\n      0x00\n        /* \"#utility.yul\":2286:2288   */\n      0x60\n        /* \"#utility.yul\":2274:2283   */\n      dup5\n        /* \"#utility.yul\":2265:2272   */\n      dup7\n        /* \"#utility.yul\":2261:2284   */\n      sub\n        /* \"#utility.yul\":2257:2289   */\n      slt\n        /* \"#utility.yul\":2254:2306   */\n      iszero\n      tag_326\n      jumpi\n        /* \"#utility.yul\":2302:2303   */\n      0x00\n        /* \"#utility.yul\":2299:2300   */\n      dup1\n        /* \"#utility.yul\":2292:2304   */\n      revert\n        /* \"#utility.yul\":2254:2306   */\n    tag_326:\n        /* \"#utility.yul\":2341:2350   */\n      dup4\n        /* \"#utility.yul\":2328:2351   */\n      calldataload\n        /* \"#utility.yul\":2360:2391   */\n      tag_327\n        /* \"#utility.yul\":2385:2390   */\n      dup2\n        /* \"#utility.yul\":2360:2391   */\n      tag_302\n      jump\t// in\n    tag_327:\n        /* \"#utility.yul\":2410:2415   */\n      swap3\n      pop\n        /* \"#utility.yul\":2467:2469   */\n      0x20\n        /* \"#utility.yul\":2452:2470   */\n      dup5\n      add\n        /* \"#utility.yul\":2439:2471   */\n      calldataload\n        /* \"#utility.yul\":2480:2513   */\n      tag_328\n        /* \"#utility.yul\":2439:2471   */\n      dup2\n        /* \"#utility.yul\":2480:2513   */\n      tag_302\n      jump\t// in\n    tag_328:\n        /* \"#utility.yul\":2140:2596   */\n      swap3\n      swap6\n        /* \"#utility.yul\":2532:2539   */\n      swap3\n      swap5\n      pop\n      pop\n      pop\n        /* \"#utility.yul\":2586:2588   */\n      0x40\n        /* \"#utility.yul\":2571:2589   */\n      swap2\n      swap1\n      swap2\n      add\n        /* \"#utility.yul\":2558:2590   */\n      calldataload\n      swap1\n        /* \"#utility.yul\":2140:2596   */\n      jump\t// out\n        /* \"#utility.yul\":2825:3582   */\n    tag_115:\n        /* \"#utility.yul\":2929:2935   */\n      0x00\n        /* \"#utility.yul\":2937:2943   */\n      dup1\n        /* \"#utility.yul\":2945:2951   */\n      0x00\n        /* \"#utility.yul\":2953:2959   */\n      dup1\n        /* \"#utility.yul\":3006:3008   */\n      0x60\n        /* \"#utility.yul\":2994:3003   */\n      dup6\n        /* \"#utility.yul\":2985:2992   */\n      dup8\n        /* \"#utility.yul\":2981:3004   */\n      sub\n        /* \"#utility.yul\":2977:3009   */\n      slt\n        /* \"#utility.yul\":2974:3026   */\n      iszero\n      tag_331\n      jumpi\n        /* \"#utility.yul\":3022:3023   */\n      0x00\n        /* \"#utility.yul\":3019:3020   */\n      dup1\n        /* \"#utility.yul\":3012:3024   */\n      revert\n        /* \"#utility.yul\":2974:3026   */\n    tag_331:\n        /* \"#utility.yul\":3062:3071   */\n      dup5\n        /* \"#utility.yul\":3049:3072   */\n      calldataload\n        /* \"#utility.yul\":3091:3109   */\n      0xffffffffffffffff\n        /* \"#utility.yul\":3132:3134   */\n      dup1\n        /* \"#utility.yul\":3124:3130   */\n      dup3\n        /* \"#utility.yul\":3121:3135   */\n      gt\n        /* \"#utility.yul\":3118:3152   */\n      iszero\n      tag_332\n      jumpi\n        /* \"#utility.yul\":3148:3149   */\n      0x00\n        /* \"#utility.yul\":3145:3146   */\n      dup1\n        /* \"#utility.yul\":3138:3150   */\n      revert\n        /* \"#utility.yul\":3118:3152   */\n    tag_332:\n        /* \"#utility.yul\":3186:3192   */\n      dup2\n        /* \"#utility.yul\":3175:3184   */\n      dup8\n        /* \"#utility.yul\":3171:3193   */\n      add\n        /* \"#utility.yul\":3161:3193   */\n      swap2\n      pop\n        /* \"#utility.yul\":3231:3238   */\n      dup8\n        /* \"#utility.yul\":3224:3228   */\n      0x1f\n        /* \"#utility.yul\":3220:3222   */\n      dup4\n        /* \"#utility.yul\":3216:3229   */\n      add\n        /* \"#utility.yul\":3212:3239   */\n      slt\n        /* \"#utility.yul\":3202:3257   */\n      tag_333\n      jumpi\n        /* \"#utility.yul\":3253:3254   */\n      0x00\n        /* \"#utility.yul\":3250:3251   */\n      dup1\n        /* \"#utility.yul\":3243:3255   */\n      revert\n        /* \"#utility.yul\":3202:3257   */\n    tag_333:\n        /* \"#utility.yul\":3293:3295   */\n      dup2\n        /* \"#utility.yul\":3280:3296   */\n      calldataload\n        /* \"#utility.yul\":3319:3321   */\n      dup2\n        /* \"#utility.yul\":3311:3317   */\n      dup2\n        /* \"#utility.yul\":3308:3322   */\n      gt\n        /* \"#utility.yul\":3305:3339   */\n      iszero\n      tag_334\n      jumpi\n        /* \"#utility.yul\":3335:3336   */\n      0x00\n        /* \"#utility.yul\":3332:3333   */\n      dup1\n        /* \"#utility.yul\":3325:3337   */\n      revert\n        /* \"#utility.yul\":3305:3339   */\n    tag_334:\n        /* \"#utility.yul\":3390:3397   */\n      dup9\n        /* \"#utility.yul\":3383:3387   */\n      0x20\n        /* \"#utility.yul\":3373:3379   */\n      dup3\n        /* \"#utility.yul\":3370:3371   */\n      0x05\n        /* \"#utility.yul\":3366:3380   */\n      shl\n        /* \"#utility.yul\":3362:3364   */\n      dup6\n        /* \"#utility.yul\":3358:3381   */\n      add\n        /* \"#utility.yul\":3354:3388   */\n      add\n        /* \"#utility.yul\":3351:3398   */\n      gt\n        /* \"#utility.yul\":3348:3415   */\n      iszero\n      tag_335\n      jumpi\n        /* \"#utility.yul\":3411:3412   */\n      0x00\n        /* \"#utility.yul\":3408:3409   */\n      dup1\n        /* \"#utility.yul\":3401:3413   */\n      revert\n        /* \"#utility.yul\":3348:3415   */\n    tag_335:\n        /* \"#utility.yul\":3442:3446   */\n      0x20\n        /* \"#utility.yul\":3434:3447   */\n      swap3\n      dup4\n      add\n      swap10\n        /* \"#utility.yul\":3466:3472   */\n      swap1\n      swap9\n      pop\n        /* \"#utility.yul\":3504:3524   */\n      swap2\n      dup8\n      add\n        /* \"#utility.yul\":3491:3525   */\n      calldataload\n      swap7\n        /* \"#utility.yul\":3572:3574   */\n      0x40\n        /* \"#utility.yul\":3557:3575   */\n      add\n        /* \"#utility.yul\":3544:3576   */\n      calldataload\n      swap6\n      pop\n        /* \"#utility.yul\":2825:3582   */\n      swap1\n      swap4\n      pop\n      pop\n      pop\n      pop\n      jump\t// out\n        /* \"#utility.yul\":3779:3963   */\n    tag_131:\n        /* \"#utility.yul\":3849:3855   */\n      0x00\n        /* \"#utility.yul\":3902:3904   */\n      0x20\n        /* \"#utility.yul\":3890:3899   */\n      dup3\n        /* \"#utility.yul\":3881:3888   */\n      dup5\n        /* \"#utility.yul\":3877:3900   */\n      sub\n        /* \"#utility.yul\":3873:3905   */\n      slt\n        /* \"#utility.yul\":3870:3922   */\n      iszero\n      tag_338\n      jumpi\n        /* \"#utility.yul\":3918:3919   */\n      0x00\n        /* \"#utility.yul\":3915:3916   */\n      dup1\n        /* \"#utility.yul\":3908:3920   */\n      revert\n        /* \"#utility.yul\":3870:3922   */\n    tag_338:\n      pop\n        /* \"#utility.yul\":3941:3957   */\n      mload\n      swap2\n        /* \"#utility.yul\":3779:3963   */\n      swap1\n      pop\n      jump\t// out\n        /* \"#utility.yul\":3968:4324   */\n    tag_138:\n        /* \"#utility.yul\":4170:4172   */\n      0x20\n        /* \"#utility.yul\":4152:4173   */\n      dup1\n      dup3\n      mstore\n        /* \"#utility.yul\":4189:4207   */\n      dup2\n      dup2\n      add\n        /* \"#utility.yul\":4182:4212   */\n      mstore\n        /* \"#utility.yul\":4248:4282   */\n      0x4f776e61626c653a2063616c6c6572206973206e6f7420746865206f776e6572\n        /* \"#utility.yul\":4243:4245   */\n      0x40\n        /* \"#utility.yul\":4228:4246   */\n      dup3\n      add\n        /* \"#utility.yul\":4221:4283   */\n      mstore\n        /* \"#utility.yul\":4315:4317   */\n      0x60\n        /* \"#utility.yul\":4300:4318   */\n      add\n      swap1\n        /* \"#utility.yul\":3968:4324   */\n      jump\t// out\n        /* \"#utility.yul\":5770:6047   */\n    tag_184:\n        /* \"#utility.yul\":5837:5843   */\n      0x00\n        /* \"#utility.yul\":5890:5892   */\n      0x20\n        /* \"#utility.yul\":5878:5887   */\n      dup3\n        /* \"#utility.yul\":5869:5876   */\n      dup5\n        /* \"#utility.yul\":5865:5888   */\n      sub\n        /* \"#utility.yul\":5861:5893   */\n      slt\n        /* \"#utility.yul\":5858:5910   */\n      iszero\n      tag_346\n      jumpi\n        /* \"#utility.yul\":5906:5907   */\n      0x00\n        /* \"#utility.yul\":5903:5904   */\n      dup1\n        /* \"#utility.yul\":5896:5908   */\n      revert\n        /* \"#utility.yul\":5858:5910   */\n    tag_346:\n        /* \"#utility.yul\":5938:5947   */\n      dup2\n        /* \"#utility.yul\":5932:5948   */\n      mload\n        /* \"#utility.yul\":5991:5996   */\n      dup1\n        /* \"#utility.yul\":5984:5997   */\n      iszero\n        /* \"#utility.yul\":5977:5998   */\n      iszero\n        /* \"#utility.yul\":5970:5975   */\n      dup2\n        /* \"#utility.yul\":5967:5999   */\n      eq\n        /* \"#utility.yul\":5957:6017   */\n      tag_311\n      jumpi\n        /* \"#utility.yul\":6013:6014   */\n      0x00\n        /* \"#utility.yul\":6010:6011   */\n      dup1\n        /* \"#utility.yul\":6003:6015   */\n      revert\n        /* \"#utility.yul\":6813:7064   */\n    tag_207:\n        /* \"#utility.yul\":6883:6889   */\n      0x00\n        /* \"#utility.yul\":6936:6938   */\n      0x20\n        /* \"#utility.yul\":6924:6933   */\n      dup3\n        /* \"#utility.yul\":6915:6922   */\n      dup5\n        /* \"#utility.yul\":6911:6934   */\n      sub\n        /* \"#utility.yul\":6907:6939   */\n      slt\n        /* \"#utility.yul\":6904:6956   */\n      iszero\n      tag_351\n      jumpi\n        /* \"#utility.yul\":6952:6953   */\n      0x00\n        /* \"#utility.yul\":6949:6950   */\n      dup1\n        /* \"#utility.yul\":6942:6954   */\n      revert\n        /* \"#utility.yul\":6904:6956   */\n    tag_351:\n        /* \"#utility.yul\":6984:6993   */\n      dup2\n        /* \"#utility.yul\":6978:6994   */\n      mload\n        /* \"#utility.yul\":7003:7034   */\n      tag_311\n        /* \"#utility.yul\":7028:7033   */\n      dup2\n        /* \"#utility.yul\":7003:7034   */\n      tag_302\n      jump\t// in\n        /* \"#utility.yul\":9380:9507   */\n    tag_303:\n        /* \"#utility.yul\":9441:9451   */\n      0x4e487b71\n        /* \"#utility.yul\":9436:9439   */\n      0xe0\n        /* \"#utility.yul\":9432:9452   */\n      shl\n        /* \"#utility.yul\":9429:9430   */\n      0x00\n        /* \"#utility.yul\":9422:9453   */\n      mstore\n        /* \"#utility.yul\":9472:9476   */\n      0x11\n        /* \"#utility.yul\":9469:9470   */\n      0x04\n        /* \"#utility.yul\":9462:9477   */\n      mstore\n        /* \"#utility.yul\":9496:9500   */\n      0x24\n        /* \"#utility.yul\":9493:9494   */\n      0x00\n        /* \"#utility.yul\":9486:9501   */\n      revert\n        /* \"#utility.yul\":9512:9640   */\n    tag_245:\n        /* \"#utility.yul\":9552:9555   */\n      0x00\n        /* \"#utility.yul\":9583:9584   */\n      dup3\n        /* \"#utility.yul\":9579:9585   */\n      not\n        /* \"#utility.yul\":9576:9577   */\n      dup3\n        /* \"#utility.yul\":9573:9586   */\n      gt\n        /* \"#utility.yul\":9570:9609   */\n      iszero\n      tag_362\n      jumpi\n        /* \"#utility.yul\":9589:9607   */\n      tag_362\n      tag_303\n      jump\t// in\n    tag_362:\n      pop\n        /* \"#utility.yul\":9625:9634   */\n      add\n      swap1\n        /* \"#utility.yul\":9512:9640   */\n      jump\t// out\n        /* \"#utility.yul\":11719:11846   */\n    tag_293:\n        /* \"#utility.yul\":11780:11790   */\n      0x4e487b71\n        /* \"#utility.yul\":11775:11778   */\n      0xe0\n        /* \"#utility.yul\":11771:11791   */\n      shl\n        /* \"#utility.yul\":11768:11769   */\n      0x00\n        /* \"#utility.yul\":11761:11792   */\n      mstore\n        /* \"#utility.yul\":11811:11815   */\n      0x32\n        /* \"#utility.yul\":11808:11809   */\n      0x04\n        /* \"#utility.yul\":11801:11816   */\n      mstore\n        /* \"#utility.yul\":11835:11839   */\n      0x24\n        /* \"#utility.yul\":11832:11833   */\n      0x00\n        /* \"#utility.yul\":11825:11840   */\n      revert\n        /* \"#utility.yul\":11851:11986   */\n    tag_300:\n        /* \"#utility.yul\":11890:11893   */\n      0x00\n        /* \"#utility.yul\":11911:11928   */\n      0x01\n      dup3\n      add\n        /* \"#utility.yul\":11908:11951   */\n      tag_372\n      jumpi\n        /* \"#utility.yul\":11931:11949   */\n      tag_372\n      tag_303\n      jump\t// in\n    tag_372:\n      pop\n        /* \"#utility.yul\":11978:11979   */\n      0x01\n        /* \"#utility.yul\":11967:11980   */\n      add\n      swap1\n        /* \"#utility.yul\":11851:11986   */\n      jump\t// out\n\n    auxdata: 0xa2646970667358221220398c536463b06c0f8de6fa02a095ab49a69424f2ff49f5622179369a6832592e64736f6c634300080f0033\n}\n",
				"bytecode": {
					"linkReferences": {},
					"object": "60806040523480156200001157600080fd5b50604051620015fe380380620015fe8339810160408190526200003491620001f4565b6200003f3362000061565b600180556200004e82620000b1565b620000598162000164565b505062000230565b600080546001600160a01b038381166001600160a01b0319831681178455604051919092169283917f8be0079c531659141344cd1fd0a4f28419497f9722a3daafe3b4186f6b6457e09190a35050565b6000546001600160a01b03163314620001005760405162461bcd60e51b81526020600482018190526024820152600080516020620015de83398151915260448201526064015b60405180910390fd5b600280546001600160a01b038381166001600160a01b0319831681179093556040805191909216808252602082019390935283917fabdf056c85a221fcb31d0366c4475b6b2c613df2eeea951a9fcb3e1a8595d973910160405180910390a1505050565b6000546001600160a01b03163314620001af5760405162461bcd60e51b81526020600482018190526024820152600080516020620015de8339815191526044820152606401620000f7565b600480549082905560408051828152602081018490527f123d88ba82600dfc3f219f8885c691b0ff020caa535666874b3f5174973757fe910160405180910390a15050565b600080604083850312156200020857600080fd5b82516001600160a01b03811681146200022057600080fd5b6020939093015192949293505050565b61139e80620002406000396000f3fe6080604052600436106101355760003560e01c8063b5abafa1116100ab578063ef5fe79f1161006f578063ef5fe79f1461038a578063f2fde38b146103a0578063f500cdfc146103c0578063f6b48e55146103f4578063ff05fe4a14610407578063ffdc61291461042757600080fd5b8063b5abafa1146102be578063bff863ec14610301578063c4e41b2214610321578063df4e588114610336578063e02023a11461035657600080fd5b80635b94bbc3116100fd5780635b94bbc3146101e3578063715018a6146102175780637cb647591461022c5780638407ecc41461024c5780638da5cb5b1461026c5780639e6c88551461029e57600080fd5b80630a25dea91461013a57806324c37a85146101625780632eb4a7ab146101965780634c0f38c2146101ac57806351cff8d9146101c1575b600080fd5b34801561014657600080fd5b5061014f600081565b6040519081526020015b60405180910390f35b34801561016e57600080fd5b5061014f7fb3c595e55271590809f54e2f4fc3a582754f45b104dd3c41666e2ad310493db381565b3480156101a257600080fd5b5061014f60045481565b3480156101b857600080fd5b5061014f61047d565b3480156101cd57600080fd5b506101e16101dc366004611119565b6104f0565b005b3480156101ef57600080fd5b5061014f7f5c8c0ce107274ad0569bd760c3d2406c1ed72c697935f3f965bd096c5cdedee481565b34801561022357600080fd5b506101e161061a565b34801561023857600080fd5b506101e161024736600461113d565b610650565b34801561025857600080fd5b506101e1610267366004611156565b6106c0565b34801561027857600080fd5b506000546001600160a01b03165b6040516001600160a01b039091168152602001610159565b3480156102aa57600080fd5b506101e16102b9366004611119565b610860565b3480156102ca57600080fd5b5061014f6102d936600461118f565b6001600160a01b03919091166000908152600660209081526040808320938352929052205490565b34801561030d57600080fd5b506101e161031c3660046111bb565b6108e6565b34801561032d57600080fd5b5061014f610a96565b34801561034257600080fd5b50600254610286906001600160a01b031681565b34801561036257600080fd5b5061014f7f5d8e12c39142ff96d79d04d15d1ba1269e4fe57bb9d26f43523628b34ba108ec81565b34801561039657600080fd5b5061014f60035481565b3480156103ac57600080fd5b506101e16103bb366004611119565b610ae0565b3480156103cc57600080fd5b5061014f7f68e7d51fdb912cb107dda2e59b053d87fcca666dd0ef5339cd3474ccb5276bba81565b6101e16104023660046111fc565b610b7b565b34801561041357600080fd5b506101e161042236600461113d565b610fc2565b34801561043357600080fd5b5061046d61044236600461118f565b6001600160a01b03919091166000908152600560209081526040808320938352929052205460ff1690565b6040519015158152602001610159565b6002546040805163d5abeb0160e01b815290516000926001600160a01b03169163d5abeb019160048083019260209291908290030181865afa1580156104c7573d6000803e3d6000fd5b505050506040513d601f19601f820116820180604052508101906104eb919061127e565b905090565b6000546001600160a01b031633146105235760405162461bcd60e51b815260040161051a90611297565b60405180910390fd5b47806105685760405162461bcd60e51b8152602060048201526014602482015273496e73756666696369656e742042616c616e636560601b604482015260640161051a565b6000826001600160a01b03168260405160006040518083038185875af1925050503d80600081146105b5576040519150601f19603f3d011682016040523d82523d6000602084013e6105ba565b606091505b50509050806105c857600080fd5b604080516001600160a01b03851681526020810184905242918101919091527ff279e6a1f5e320cca91135676d9cb6e44ca8a08c0b88342bcdb1144f6511b568906060015b60405180910390a1505050565b6000546001600160a01b031633146106445760405162461bcd60e51b815260040161051a90611297565b61064e600061102a565b565b6000546001600160a01b0316331461067a5760405162461bcd60e51b815260040161051a90611297565b600480549082905560408051828152602081018490527f123d88ba82600dfc3f219f8885c691b0ff020caa535666874b3f5174973757fe91015b60405180910390a15050565b6000546001600160a01b031633146106ea5760405162461bcd60e51b815260040161051a90611297565b6040516370a0823160e01b81523060048201526000906001600160a01b038316906370a0823190602401602060405180830381865afa158015610731573d6000803e3d6000fd5b505050506040513d601f19601f82011682018060405250810190610755919061127e565b90506000811161079e5760405162461bcd60e51b8152602060048201526014602482015273496e73756666696369656e742042616c616e636560601b604482015260640161051a565b60405163a9059cbb60e01b81526001600160a01b0384811660048301526024820183905283169063a9059cbb906044016020604051808303816000875af11580156107ed573d6000803e3d6000fd5b505050506040513d601f19601f8201168201806040525081019061081191906112cc565b50604080516001600160a01b038086168252841660208201529081018290524260608201527fb818a975f91276df8ba59329becbc23c793df0d503c19ac296c3c372a1fa04619060800161060d565b6000546001600160a01b0316331461088a5760405162461bcd60e51b815260040161051a90611297565b600280546001600160a01b038381166001600160a01b0319831681179093556040805191909216808252602082019390935283917fabdf056c85a221fcb31d0366c4475b6b2c613df2eeea951a9fcb3e1a8595d973910161060d565b6000546001600160a01b031633146109105760405162461bcd60e51b815260040161051a90611297565b6040516331a9108f60e11b81526004810182905230906001600160a01b03841690636352211e90602401602060405180830381865afa158015610957573d6000803e3d6000fd5b505050506040513d601f19601f8201168201806040525081019061097b91906112ee565b6001600160a01b0316146109df5760405162461bcd60e51b815260206004820152602560248201527f5468697320746f6b656e4964206973206e6f74206f776e656420627920636f6e6044820152641d1c9858dd60da1b606482015260840161051a565b604051632142170760e11b81523060048201526001600160a01b038481166024830152604482018390528316906342842e0e90606401600060405180830381600087803b158015610a2f57600080fd5b505af1158015610a43573d6000803e3d6000fd5b5050604080516001600160a01b038088168252861660208201529081018490524260608201527f0127a8d3f57942833f6930572bce52ad882683e36eeb5830d199d3fa4bfa94679250608001905061060d565b600254604080516318160ddd60e01b815290516000926001600160a01b0316916318160ddd9160048083019260209291908290030181865afa1580156104c7573d6000803e3d6000fd5b6000546001600160a01b03163314610b0a5760405162461bcd60e51b815260040161051a90611297565b6001600160a01b038116610b6f5760405162461bcd60e51b815260206004820152602660248201527f4f776e61626c653a206e6577206f776e657220697320746865207a65726f206160448201526564647265737360d01b606482015260840161051a565b610b788161102a565b50565b600260015403610bcd5760405162461bcd60e51b815260206004820152601f60248201527f5265656e7472616e637947756172643a207265656e7472616e742063616c6c00604482015260640161051a565b600260015580610c175760405162461bcd60e51b815260206004820152601560248201527426b4b73a1034b9903737ba1030b8383937bb32b21760591b604482015260640161051a565b8060035414610c785760405162461bcd60e51b815260206004820152602760248201527f436f6e747261637420617265206e6f7420696e2074686973206d696e74696e67604482015266103937bab7321760c91b606482015260840161051a565b610c8061047d565b82610c89610a96565b610c939190611321565b10610cce5760405162461bcd60e51b815260206004820152600b60248201526a4f76657220737570706c7960a81b604482015260640161051a565b33600090815260056020908152604080832084845290915290205460ff1615610d395760405162461bcd60e51b815260206004820152601760248201527f596f752061726520616c7265616479206d696e7465642e000000000000000000604482015260640161051a565b6002546040516355138f0d60e11b81523060048201526001600160a01b039091169063aa271e1a90602401602060405180830381865afa158015610d81573d6000803e3d6000fd5b505050506040513d601f19601f82011682018060405250810190610da591906112cc565b610df15760405162461bcd60e51b815260206004820152601e60248201527f436f6e7472616374204d696e74206973206e6f7420617070726f7665642e0000604482015260640161051a565b610e74848480806020026020016040519081016040528093929190818152602001838360200280828437600092019190915250506004546040516bffffffffffffffffffffffff193360601b166020820152603481018890526054810187905290925060740190506040516020818303038152906040528051906020012061107a565b610ece5760405162461bcd60e51b815260206004820152602560248201527f556e617574686f72697a65642057686974656c6973744d696e742054686973206044820152642ab9b2b91760d91b606482015260840161051a565b3360008181526005602090815260408083208584528252808320805460ff191660011790559282526006815282822084835290529081208054849290610f15908490611321565b9091555050600254604051632851206560e21b8152336004820152602481018490526001600160a01b039091169063a144819490604401600060405180830381600087803b158015610f6657600080fd5b505af1158015610f7a573d6000803e3d6000fd5b5050604080518581524260208201523393507f25b428dfde728ccfaddad7e29e4ac23c24ed7fd1a6e3e3f91894a9a073f5dfff92500160405180910390a25050600180555050565b6000546001600160a01b03163314610fec5760405162461bcd60e51b815260040161051a90611297565b600380549082905560408051828152602081018490527f521ec96875ca228cd2fc1dbd4c927a34328c9ce1a83bcb8c1f633f012c90d78591016106b4565b600080546001600160a01b038381166001600160a01b0319831681178455604051919092169283917f8be0079c531659141344cd1fd0a4f28419497f9722a3daafe3b4186f6b6457e09190a35050565b6000826110878584611090565b14949350505050565b600081815b84518110156110fc5760008582815181106110b2576110b2611339565b602002602001015190508083116110d857600083815260208290526040902092506110e9565b600081815260208490526040902092505b50806110f48161134f565b915050611095565b509392505050565b6001600160a01b0381168114610b7857600080fd5b60006020828403121561112b57600080fd5b813561113681611104565b9392505050565b60006020828403121561114f57600080fd5b5035919050565b6000806040838503121561116957600080fd5b823561117481611104565b9150602083013561118481611104565b809150509250929050565b600080604083850312156111a257600080fd5b82356111ad81611104565b946020939093013593505050565b6000806000606084860312156111d057600080fd5b83356111db81611104565b925060208401356111eb81611104565b929592945050506040919091013590565b6000806000806060858703121561121257600080fd5b843567ffffffffffffffff8082111561122a57600080fd5b818701915087601f83011261123e57600080fd5b81358181111561124d57600080fd5b8860208260051b850101111561126257600080fd5b6020928301999098509187013596604001359550909350505050565b60006020828403121561129057600080fd5b5051919050565b6020808252818101527f4f776e61626c653a2063616c6c6572206973206e6f7420746865206f776e6572604082015260600190565b6000602082840312156112de57600080fd5b8151801515811461113657600080fd5b60006020828403121561130057600080fd5b815161113681611104565b634e487b7160e01b600052601160045260246000fd5b600082198211156113345761133461130b565b500190565b634e487b7160e01b600052603260045260246000fd5b6000600182016113615761136161130b565b506001019056fea2646970667358221220398c536463b06c0f8de6fa02a095ab49a69424f2ff49f5622179369a6832592e64736f6c634300080f00334f776e61626c653a2063616c6c6572206973206e6f7420746865206f776e6572",
					"opcodes": "PUSH1 0x80 PUSH1 0x40 MSTORE CALLVALUE DUP1 ISZERO PUSH3 0x11 JUMPI PUSH1 0x0 DUP1 REVERT JUMPDEST POP PUSH1 0x40 MLOAD PUSH3 0x15FE CODESIZE SUB DUP1 PUSH3 0x15FE DUP4 CODECOPY DUP2 ADD PUSH1 0x40 DUP2 SWAP1 MSTORE PUSH3 0x34 SWAP2 PUSH3 0x1F4 JUMP JUMPDEST PUSH3 0x3F CALLER PUSH3 0x61 JUMP JUMPDEST PUSH1 0x1 DUP1 SSTORE PUSH3 0x4E DUP3 PUSH3 0xB1 JUMP JUMPDEST PUSH3 0x59 DUP2 PUSH3 0x164 JUMP JUMPDEST POP POP PUSH3 0x230 JUMP JUMPDEST PUSH1 0x0 DUP1 SLOAD PUSH1 0x1 PUSH1 0x1 PUSH1 0xA0 SHL SUB DUP4 DUP2 AND PUSH1 0x1 PUSH1 0x1 PUSH1 0xA0 SHL SUB NOT DUP4 AND DUP2 OR DUP5 SSTORE PUSH1 0x40 MLOAD SWAP2 SWAP1 SWAP3 AND SWAP3 DUP4 SWAP2 PUSH32 0x8BE0079C531659141344CD1FD0A4F28419497F9722A3DAAFE3B4186F6B6457E0 SWAP2 SWAP1 LOG3 POP POP JUMP JUMPDEST PUSH1 0x0 SLOAD PUSH1 0x1 PUSH1 0x1 PUSH1 0xA0 SHL SUB AND CALLER EQ PUSH3 0x100 JUMPI PUSH1 0x40 MLOAD PUSH3 0x461BCD PUSH1 0xE5 SHL DUP2 MSTORE PUSH1 0x20 PUSH1 0x4 DUP3 ADD DUP2 SWAP1 MSTORE PUSH1 0x24 DUP3 ADD MSTORE PUSH1 0x0 DUP1 MLOAD PUSH1 0x20 PUSH3 0x15DE DUP4 CODECOPY DUP2 MLOAD SWAP2 MSTORE PUSH1 0x44 DUP3 ADD MSTORE PUSH1 0x64 ADD JUMPDEST PUSH1 0x40 MLOAD DUP1 SWAP2 SUB SWAP1 REVERT JUMPDEST PUSH1 0x2 DUP1 SLOAD PUSH1 0x1 PUSH1 0x1 PUSH1 0xA0 SHL SUB DUP4 DUP2 AND PUSH1 0x1 PUSH1 0x1 PUSH1 0xA0 SHL SUB NOT DUP4 AND DUP2 OR SWAP1 SWAP4 SSTORE PUSH1 0x40 DUP1 MLOAD SWAP2 SWAP1 SWAP3 AND DUP1 DUP3 MSTORE PUSH1 0x20 DUP3 ADD SWAP4 SWAP1 SWAP4 MSTORE DUP4 SWAP2 PUSH32 0xABDF056C85A221FCB31D0366C4475B6B2C613DF2EEEA951A9FCB3E1A8595D973 SWAP2 ADD PUSH1 0x40 MLOAD DUP1 SWAP2 SUB SWAP1 LOG1 POP POP POP JUMP JUMPDEST PUSH1 0x0 SLOAD PUSH1 0x1 PUSH1 0x1 PUSH1 0xA0 SHL SUB AND CALLER EQ PUSH3 0x1AF JUMPI PUSH1 0x40 MLOAD PUSH3 0x461BCD PUSH1 0xE5 SHL DUP2 MSTORE PUSH1 0x20 PUSH1 0x4 DUP3 ADD DUP2 SWAP1 MSTORE PUSH1 0x24 DUP3 ADD MSTORE PUSH1 0x0 DUP1 MLOAD PUSH1 0x20 PUSH3 0x15DE DUP4 CODECOPY DUP2 MLOAD SWAP2 MSTORE PUSH1 0x44 DUP3 ADD MSTORE PUSH1 0x64 ADD PUSH3 0xF7 JUMP JUMPDEST PUSH1 0x4 DUP1 SLOAD SWAP1 DUP3 SWAP1 SSTORE PUSH1 0x40 DUP1 MLOAD DUP3 DUP2 MSTORE PUSH1 0x20 DUP2 ADD DUP5 SWAP1 MSTORE PUSH32 0x123D88BA82600DFC3F219F8885C691B0FF020CAA535666874B3F5174973757FE SWAP2 ADD PUSH1 0x40 MLOAD DUP1 SWAP2 SUB SWAP1 LOG1 POP POP JUMP JUMPDEST PUSH1 0x0 DUP1 PUSH1 0x40 DUP4 DUP6 SUB SLT ISZERO PUSH3 0x208 JUMPI PUSH1 0x0 DUP1 REVERT JUMPDEST DUP3 MLOAD PUSH1 0x1 PUSH1 0x1 PUSH1 0xA0 SHL SUB DUP2 AND DUP2 EQ PUSH3 0x220 JUMPI PUSH1 0x0 DUP1 REVERT JUMPDEST PUSH1 0x20 SWAP4 SWAP1 SWAP4 ADD MLOAD SWAP3 SWAP5 SWAP3 SWAP4 POP POP POP JUMP JUMPDEST PUSH2 0x139E DUP1 PUSH3 0x240 PUSH1 0x0 CODECOPY PUSH1 0x0 RETURN INVALID PUSH1 0x80 PUSH1 0x40 MSTORE PUSH1 0x4 CALLDATASIZE LT PUSH2 0x135 JUMPI PUSH1 0x0 CALLDATALOAD PUSH1 0xE0 SHR DUP1 PUSH4 0xB5ABAFA1 GT PUSH2 0xAB JUMPI DUP1 PUSH4 0xEF5FE79F GT PUSH2 0x6F JUMPI DUP1 PUSH4 0xEF5FE79F EQ PUSH2 0x38A JUMPI DUP1 PUSH4 0xF2FDE38B EQ PUSH2 0x3A0 JUMPI DUP1 PUSH4 0xF500CDFC EQ PUSH2 0x3C0 JUMPI DUP1 PUSH4 0xF6B48E55 EQ PUSH2 0x3F4 JUMPI DUP1 PUSH4 0xFF05FE4A EQ PUSH2 0x407 JUMPI DUP1 PUSH4 0xFFDC6129 EQ PUSH2 0x427 JUMPI PUSH1 0x0 DUP1 REVERT JUMPDEST DUP1 PUSH4 0xB5ABAFA1 EQ PUSH2 0x2BE JUMPI DUP1 PUSH4 0xBFF863EC EQ PUSH2 0x301 JUMPI DUP1 PUSH4 0xC4E41B22 EQ PUSH2 0x321 JUMPI DUP1 PUSH4 0xDF4E5881 EQ PUSH2 0x336 JUMPI DUP1 PUSH4 0xE02023A1 EQ PUSH2 0x356 JUMPI PUSH1 0x0 DUP1 REVERT JUMPDEST DUP1 PUSH4 0x5B94BBC3 GT PUSH2 0xFD JUMPI DUP1 PUSH4 0x5B94BBC3 EQ PUSH2 0x1E3 JUMPI DUP1 PUSH4 0x715018A6 EQ PUSH2 0x217 JUMPI DUP1 PUSH4 0x7CB64759 EQ PUSH2 0x22C JUMPI DUP1 PUSH4 0x8407ECC4 EQ PUSH2 0x24C JUMPI DUP1 PUSH4 0x8DA5CB5B EQ PUSH2 0x26C JUMPI DUP1 PUSH4 0x9E6C8855 EQ PUSH2 0x29E JUMPI PUSH1 0x0 DUP1 REVERT JUMPDEST DUP1 PUSH4 0xA25DEA9 EQ PUSH2 0x13A JUMPI DUP1 PUSH4 0x24C37A85 EQ PUSH2 0x162 JUMPI DUP1 PUSH4 0x2EB4A7AB EQ PUSH2 0x196 JUMPI DUP1 PUSH4 0x4C0F38C2 EQ PUSH2 0x1AC JUMPI DUP1 PUSH4 0x51CFF8D9 EQ PUSH2 0x1C1 JUMPI JUMPDEST PUSH1 0x0 DUP1 REVERT JUMPDEST CALLVALUE DUP1 ISZERO PUSH2 0x146 JUMPI PUSH1 0x0 DUP1 REVERT JUMPDEST POP PUSH2 0x14F PUSH1 0x0 DUP2 JUMP JUMPDEST PUSH1 0x40 MLOAD SWAP1 DUP2 MSTORE PUSH1 0x20 ADD JUMPDEST PUSH1 0x40 MLOAD DUP1 SWAP2 SUB SWAP1 RETURN JUMPDEST CALLVALUE DUP1 ISZERO PUSH2 0x16E JUMPI PUSH1 0x0 DUP1 REVERT JUMPDEST POP PUSH2 0x14F PUSH32 0xB3C595E55271590809F54E2F4FC3A582754F45B104DD3C41666E2AD310493DB3 DUP2 JUMP JUMPDEST CALLVALUE DUP1 ISZERO PUSH2 0x1A2 JUMPI PUSH1 0x0 DUP1 REVERT JUMPDEST POP PUSH2 0x14F PUSH1 0x4 SLOAD DUP2 JUMP JUMPDEST CALLVALUE DUP1 ISZERO PUSH2 0x1B8 JUMPI PUSH1 0x0 DUP1 REVERT JUMPDEST POP PUSH2 0x14F PUSH2 0x47D JUMP JUMPDEST CALLVALUE DUP1 ISZERO PUSH2 0x1CD JUMPI PUSH1 0x0 DUP1 REVERT JUMPDEST POP PUSH2 0x1E1 PUSH2 0x1DC CALLDATASIZE PUSH1 0x4 PUSH2 0x1119 JUMP JUMPDEST PUSH2 0x4F0 JUMP JUMPDEST STOP JUMPDEST CALLVALUE DUP1 ISZERO PUSH2 0x1EF JUMPI PUSH1 0x0 DUP1 REVERT JUMPDEST POP PUSH2 0x14F PUSH32 0x5C8C0CE107274AD0569BD760C3D2406C1ED72C697935F3F965BD096C5CDEDEE4 DUP2 JUMP JUMPDEST CALLVALUE DUP1 ISZERO PUSH2 0x223 JUMPI PUSH1 0x0 DUP1 REVERT JUMPDEST POP PUSH2 0x1E1 PUSH2 0x61A JUMP JUMPDEST CALLVALUE DUP1 ISZERO PUSH2 0x238 JUMPI PUSH1 0x0 DUP1 REVERT JUMPDEST POP PUSH2 0x1E1 PUSH2 0x247 CALLDATASIZE PUSH1 0x4 PUSH2 0x113D JUMP JUMPDEST PUSH2 0x650 JUMP JUMPDEST CALLVALUE DUP1 ISZERO PUSH2 0x258 JUMPI PUSH1 0x0 DUP1 REVERT JUMPDEST POP PUSH2 0x1E1 PUSH2 0x267 CALLDATASIZE PUSH1 0x4 PUSH2 0x1156 JUMP JUMPDEST PUSH2 0x6C0 JUMP JUMPDEST CALLVALUE DUP1 ISZERO PUSH2 0x278 JUMPI PUSH1 0x0 DUP1 REVERT JUMPDEST POP PUSH1 0x0 SLOAD PUSH1 0x1 PUSH1 0x1 PUSH1 0xA0 SHL SUB AND JUMPDEST PUSH1 0x40 MLOAD PUSH1 0x1 PUSH1 0x1 PUSH1 0xA0 SHL SUB SWAP1 SWAP2 AND DUP2 MSTORE PUSH1 0x20 ADD PUSH2 0x159 JUMP JUMPDEST CALLVALUE DUP1 ISZERO PUSH2 0x2AA JUMPI PUSH1 0x0 DUP1 REVERT JUMPDEST POP PUSH2 0x1E1 PUSH2 0x2B9 CALLDATASIZE PUSH1 0x4 PUSH2 0x1119 JUMP JUMPDEST PUSH2 0x860 JUMP JUMPDEST CALLVALUE DUP1 ISZERO PUSH2 0x2CA JUMPI PUSH1 0x0 DUP1 REVERT JUMPDEST POP PUSH2 0x14F PUSH2 0x2D9 CALLDATASIZE PUSH1 0x4 PUSH2 0x118F JUMP JUMPDEST PUSH1 0x1 PUSH1 0x1 PUSH1 0xA0 SHL SUB SWAP2 SWAP1 SWAP2 AND PUSH1 0x0 SWAP1 DUP2 MSTORE PUSH1 0x6 PUSH1 0x20 SWAP1 DUP2 MSTORE PUSH1 0x40 DUP1 DUP4 KECCAK256 SWAP4 DUP4 MSTORE SWAP3 SWAP1 MSTORE KECCAK256 SLOAD SWAP1 JUMP JUMPDEST CALLVALUE DUP1 ISZERO PUSH2 0x30D JUMPI PUSH1 0x0 DUP1 REVERT JUMPDEST POP PUSH2 0x1E1 PUSH2 0x31C CALLDATASIZE PUSH1 0x4 PUSH2 0x11BB JUMP JUMPDEST PUSH2 0x8E6 JUMP JUMPDEST CALLVALUE DUP1 ISZERO PUSH2 0x32D JUMPI PUSH1 0x0 DUP1 REVERT JUMPDEST POP PUSH2 0x14F PUSH2 0xA96 JUMP JUMPDEST CALLVALUE DUP1 ISZERO PUSH2 0x342 JUMPI PUSH1 0x0 DUP1 REVERT JUMPDEST POP PUSH1 0x2 SLOAD PUSH2 0x286 SWAP1 PUSH1 0x1 PUSH1 0x1 PUSH1 0xA0 SHL SUB AND DUP2 JUMP JUMPDEST CALLVALUE DUP1 ISZERO PUSH2 0x362 JUMPI PUSH1 0x0 DUP1 REVERT JUMPDEST POP PUSH2 0x14F PUSH32 0x5D8E12C39142FF96D79D04D15D1BA1269E4FE57BB9D26F43523628B34BA108EC DUP2 JUMP JUMPDEST CALLVALUE DUP1 ISZERO PUSH2 0x396 JUMPI PUSH1 0x0 DUP1 REVERT JUMPDEST POP PUSH2 0x14F PUSH1 0x3 SLOAD DUP2 JUMP JUMPDEST CALLVALUE DUP1 ISZERO PUSH2 0x3AC JUMPI PUSH1 0x0 DUP1 REVERT JUMPDEST POP PUSH2 0x1E1 PUSH2 0x3BB CALLDATASIZE PUSH1 0x4 PUSH2 0x1119 JUMP JUMPDEST PUSH2 0xAE0 JUMP JUMPDEST CALLVALUE DUP1 ISZERO PUSH2 0x3CC JUMPI PUSH1 0x0 DUP1 REVERT JUMPDEST POP PUSH2 0x14F PUSH32 0x68E7D51FDB912CB107DDA2E59B053D87FCCA666DD0EF5339CD3474CCB5276BBA DUP2 JUMP JUMPDEST PUSH2 0x1E1 PUSH2 0x402 CALLDATASIZE PUSH1 0x4 PUSH2 0x11FC JUMP JUMPDEST PUSH2 0xB7B JUMP JUMPDEST CALLVALUE DUP1 ISZERO PUSH2 0x413 JUMPI PUSH1 0x0 DUP1 REVERT JUMPDEST POP PUSH2 0x1E1 PUSH2 0x422 CALLDATASIZE PUSH1 0x4 PUSH2 0x113D JUMP JUMPDEST PUSH2 0xFC2 JUMP JUMPDEST CALLVALUE DUP1 ISZERO PUSH2 0x433 JUMPI PUSH1 0x0 DUP1 REVERT JUMPDEST POP PUSH2 0x46D PUSH2 0x442 CALLDATASIZE PUSH1 0x4 PUSH2 0x118F JUMP JUMPDEST PUSH1 0x1 PUSH1 0x1 PUSH1 0xA0 SHL SUB SWAP2 SWAP1 SWAP2 AND PUSH1 0x0 SWAP1 DUP2 MSTORE PUSH1 0x5 PUSH1 0x20 SWAP1 DUP2 MSTORE PUSH1 0x40 DUP1 DUP4 KECCAK256 SWAP4 DUP4 MSTORE SWAP3 SWAP1 MSTORE KECCAK256 SLOAD PUSH1 0xFF AND SWAP1 JUMP JUMPDEST PUSH1 0x40 MLOAD SWAP1 ISZERO ISZERO DUP2 MSTORE PUSH1 0x20 ADD PUSH2 0x159 JUMP JUMPDEST PUSH1 0x2 SLOAD PUSH1 0x40 DUP1 MLOAD PUSH4 0xD5ABEB01 PUSH1 0xE0 SHL DUP2 MSTORE SWAP1 MLOAD PUSH1 0x0 SWAP3 PUSH1 0x1 PUSH1 0x1 PUSH1 0xA0 SHL SUB AND SWAP2 PUSH4 0xD5ABEB01 SWAP2 PUSH1 0x4 DUP1 DUP4 ADD SWAP3 PUSH1 0x20 SWAP3 SWAP2 SWAP1 DUP3 SWAP1 SUB ADD DUP2 DUP7 GAS STATICCALL ISZERO DUP1 ISZERO PUSH2 0x4C7 JUMPI RETURNDATASIZE PUSH1 0x0 DUP1 RETURNDATACOPY RETURNDATASIZE PUSH1 0x0 REVERT JUMPDEST POP POP POP POP PUSH1 0x40 MLOAD RETURNDATASIZE PUSH1 0x1F NOT PUSH1 0x1F DUP3 ADD AND DUP3 ADD DUP1 PUSH1 0x40 MSTORE POP DUP2 ADD SWAP1 PUSH2 0x4EB SWAP2 SWAP1 PUSH2 0x127E JUMP JUMPDEST SWAP1 POP SWAP1 JUMP JUMPDEST PUSH1 0x0 SLOAD PUSH1 0x1 PUSH1 0x1 PUSH1 0xA0 SHL SUB AND CALLER EQ PUSH2 0x523 JUMPI PUSH1 0x40 MLOAD PUSH3 0x461BCD PUSH1 0xE5 SHL DUP2 MSTORE PUSH1 0x4 ADD PUSH2 0x51A SWAP1 PUSH2 0x1297 JUMP JUMPDEST PUSH1 0x40 MLOAD DUP1 SWAP2 SUB SWAP1 REVERT JUMPDEST SELFBALANCE DUP1 PUSH2 0x568 JUMPI PUSH1 0x40 MLOAD PUSH3 0x461BCD PUSH1 0xE5 SHL DUP2 MSTORE PUSH1 0x20 PUSH1 0x4 DUP3 ADD MSTORE PUSH1 0x14 PUSH1 0x24 DUP3 ADD MSTORE PUSH20 0x496E73756666696369656E742042616C616E6365 PUSH1 0x60 SHL PUSH1 0x44 DUP3 ADD MSTORE PUSH1 0x64 ADD PUSH2 0x51A JUMP JUMPDEST PUSH1 0x0 DUP3 PUSH1 0x1 PUSH1 0x1 PUSH1 0xA0 SHL SUB AND DUP3 PUSH1 0x40 MLOAD PUSH1 0x0 PUSH1 0x40 MLOAD DUP1 DUP4 SUB DUP2 DUP6 DUP8 GAS CALL SWAP3 POP POP POP RETURNDATASIZE DUP1 PUSH1 0x0 DUP2 EQ PUSH2 0x5B5 JUMPI PUSH1 0x40 MLOAD SWAP2 POP PUSH1 0x1F NOT PUSH1 0x3F RETURNDATASIZE ADD AND DUP3 ADD PUSH1 0x40 MSTORE RETURNDATASIZE DUP3 MSTORE RETURNDATASIZE PUSH1 0x0 PUSH1 0x20 DUP5 ADD RETURNDATACOPY PUSH2 0x5BA JUMP JUMPDEST PUSH1 0x60 SWAP2 POP JUMPDEST POP POP SWAP1 POP DUP1 PUSH2 0x5C8 JUMPI PUSH1 0x0 DUP1 REVERT JUMPDEST PUSH1 0x40 DUP1 MLOAD PUSH1 0x1 PUSH1 0x1 PUSH1 0xA0 SHL SUB DUP6 AND DUP2 MSTORE PUSH1 0x20 DUP2 ADD DUP5 SWAP1 MSTORE TIMESTAMP SWAP2 DUP2 ADD SWAP2 SWAP1 SWAP2 MSTORE PUSH32 0xF279E6A1F5E320CCA91135676D9CB6E44CA8A08C0B88342BCDB1144F6511B568 SWAP1 PUSH1 0x60 ADD JUMPDEST PUSH1 0x40 MLOAD DUP1 SWAP2 SUB SWAP1 LOG1 POP POP POP JUMP JUMPDEST PUSH1 0x0 SLOAD PUSH1 0x1 PUSH1 0x1 PUSH1 0xA0 SHL SUB AND CALLER EQ PUSH2 0x644 JUMPI PUSH1 0x40 MLOAD PUSH3 0x461BCD PUSH1 0xE5 SHL DUP2 MSTORE PUSH1 0x4 ADD PUSH2 0x51A SWAP1 PUSH2 0x1297 JUMP JUMPDEST PUSH2 0x64E PUSH1 0x0 PUSH2 0x102A JUMP JUMPDEST JUMP JUMPDEST PUSH1 0x0 SLOAD PUSH1 0x1 PUSH1 0x1 PUSH1 0xA0 SHL SUB AND CALLER EQ PUSH2 0x67A JUMPI PUSH1 0x40 MLOAD PUSH3 0x461BCD PUSH1 0xE5 SHL DUP2 MSTORE PUSH1 0x4 ADD PUSH2 0x51A SWAP1 PUSH2 0x1297 JUMP JUMPDEST PUSH1 0x4 DUP1 SLOAD SWAP1 DUP3 SWAP1 SSTORE PUSH1 0x40 DUP1 MLOAD DUP3 DUP2 MSTORE PUSH1 0x20 DUP2 ADD DUP5 SWAP1 MSTORE PUSH32 0x123D88BA82600DFC3F219F8885C691B0FF020CAA535666874B3F5174973757FE SWAP2 ADD JUMPDEST PUSH1 0x40 MLOAD DUP1 SWAP2 SUB SWAP1 LOG1 POP POP JUMP JUMPDEST PUSH1 0x0 SLOAD PUSH1 0x1 PUSH1 0x1 PUSH1 0xA0 SHL SUB AND CALLER EQ PUSH2 0x6EA JUMPI PUSH1 0x40 MLOAD PUSH3 0x461BCD PUSH1 0xE5 SHL DUP2 MSTORE PUSH1 0x4 ADD PUSH2 0x51A SWAP1 PUSH2 0x1297 JUMP JUMPDEST PUSH1 0x40 MLOAD PUSH4 0x70A08231 PUSH1 0xE0 SHL DUP2 MSTORE ADDRESS PUSH1 0x4 DUP3 ADD MSTORE PUSH1 0x0 SWAP1 PUSH1 0x1 PUSH1 0x1 PUSH1 0xA0 SHL SUB DUP4 AND SWAP1 PUSH4 0x70A08231 SWAP1 PUSH1 0x24 ADD PUSH1 0x20 PUSH1 0x40 MLOAD DUP1 DUP4 SUB DUP2 DUP7 GAS STATICCALL ISZERO DUP1 ISZERO PUSH2 0x731 JUMPI RETURNDATASIZE PUSH1 0x0 DUP1 RETURNDATACOPY RETURNDATASIZE PUSH1 0x0 REVERT JUMPDEST POP POP POP POP PUSH1 0x40 MLOAD RETURNDATASIZE PUSH1 0x1F NOT PUSH1 0x1F DUP3 ADD AND DUP3 ADD DUP1 PUSH1 0x40 MSTORE POP DUP2 ADD SWAP1 PUSH2 0x755 SWAP2 SWAP1 PUSH2 0x127E JUMP JUMPDEST SWAP1 POP PUSH1 0x0 DUP2 GT PUSH2 0x79E JUMPI PUSH1 0x40 MLOAD PUSH3 0x461BCD PUSH1 0xE5 SHL DUP2 MSTORE PUSH1 0x20 PUSH1 0x4 DUP3 ADD MSTORE PUSH1 0x14 PUSH1 0x24 DUP3 ADD MSTORE PUSH20 0x496E73756666696369656E742042616C616E6365 PUSH1 0x60 SHL PUSH1 0x44 DUP3 ADD MSTORE PUSH1 0x64 ADD PUSH2 0x51A JUMP JUMPDEST PUSH1 0x40 MLOAD PUSH4 0xA9059CBB PUSH1 0xE0 SHL DUP2 MSTORE PUSH1 0x1 PUSH1 0x1 PUSH1 0xA0 SHL SUB DUP5 DUP2 AND PUSH1 0x4 DUP4 ADD MSTORE PUSH1 0x24 DUP3 ADD DUP4 SWAP1 MSTORE DUP4 AND SWAP1 PUSH4 0xA9059CBB SWAP1 PUSH1 0x44 ADD PUSH1 0x20 PUSH1 0x40 MLOAD DUP1 DUP4 SUB DUP2 PUSH1 0x0 DUP8 GAS CALL ISZERO DUP1 ISZERO PUSH2 0x7ED JUMPI RETURNDATASIZE PUSH1 0x0 DUP1 RETURNDATACOPY RETURNDATASIZE PUSH1 0x0 REVERT JUMPDEST POP POP POP POP PUSH1 0x40 MLOAD RETURNDATASIZE PUSH1 0x1F NOT PUSH1 0x1F DUP3 ADD AND DUP3 ADD DUP1 PUSH1 0x40 MSTORE POP DUP2 ADD SWAP1 PUSH2 0x811 SWAP2 SWAP1 PUSH2 0x12CC JUMP JUMPDEST POP PUSH1 0x40 DUP1 MLOAD PUSH1 0x1 PUSH1 0x1 PUSH1 0xA0 SHL SUB DUP1 DUP7 AND DUP3 MSTORE DUP5 AND PUSH1 0x20 DUP3 ADD MSTORE SWAP1 DUP2 ADD DUP3 SWAP1 MSTORE TIMESTAMP PUSH1 0x60 DUP3 ADD MSTORE PUSH32 0xB818A975F91276DF8BA59329BECBC23C793DF0D503C19AC296C3C372A1FA0461 SWAP1 PUSH1 0x80 ADD PUSH2 0x60D JUMP JUMPDEST PUSH1 0x0 SLOAD PUSH1 0x1 PUSH1 0x1 PUSH1 0xA0 SHL SUB AND CALLER EQ PUSH2 0x88A JUMPI PUSH1 0x40 MLOAD PUSH3 0x461BCD PUSH1 0xE5 SHL DUP2 MSTORE PUSH1 0x4 ADD PUSH2 0x51A SWAP1 PUSH2 0x1297 JUMP JUMPDEST PUSH1 0x2 DUP1 SLOAD PUSH1 0x1 PUSH1 0x1 PUSH1 0xA0 SHL SUB DUP4 DUP2 AND PUSH1 0x1 PUSH1 0x1 PUSH1 0xA0 SHL SUB NOT DUP4 AND DUP2 OR SWAP1 SWAP4 SSTORE PUSH1 0x40 DUP1 MLOAD SWAP2 SWAP1 SWAP3 AND DUP1 DUP3 MSTORE PUSH1 0x20 DUP3 ADD SWAP4 SWAP1 SWAP4 MSTORE DUP4 SWAP2 PUSH32 0xABDF056C85A221FCB31D0366C4475B6B2C613DF2EEEA951A9FCB3E1A8595D973 SWAP2 ADD PUSH2 0x60D JUMP JUMPDEST PUSH1 0x0 SLOAD PUSH1 0x1 PUSH1 0x1 PUSH1 0xA0 SHL SUB AND CALLER EQ PUSH2 0x910 JUMPI PUSH1 0x40 MLOAD PUSH3 0x461BCD PUSH1 0xE5 SHL DUP2 MSTORE PUSH1 0x4 ADD PUSH2 0x51A SWAP1 PUSH2 0x1297 JUMP JUMPDEST PUSH1 0x40 MLOAD PUSH4 0x31A9108F PUSH1 0xE1 SHL DUP2 MSTORE PUSH1 0x4 DUP2 ADD DUP3 SWAP1 MSTORE ADDRESS SWAP1 PUSH1 0x1 PUSH1 0x1 PUSH1 0xA0 SHL SUB DUP5 AND SWAP1 PUSH4 0x6352211E SWAP1 PUSH1 0x24 ADD PUSH1 0x20 PUSH1 0x40 MLOAD DUP1 DUP4 SUB DUP2 DUP7 GAS STATICCALL ISZERO DUP1 ISZERO PUSH2 0x957 JUMPI RETURNDATASIZE PUSH1 0x0 DUP1 RETURNDATACOPY RETURNDATASIZE PUSH1 0x0 REVERT JUMPDEST POP POP POP POP PUSH1 0x40 MLOAD RETURNDATASIZE PUSH1 0x1F NOT PUSH1 0x1F DUP3 ADD AND DUP3 ADD DUP1 PUSH1 0x40 MSTORE POP DUP2 ADD SWAP1 PUSH2 0x97B SWAP2 SWAP1 PUSH2 0x12EE JUMP JUMPDEST PUSH1 0x1 PUSH1 0x1 PUSH1 0xA0 SHL SUB AND EQ PUSH2 0x9DF JUMPI PUSH1 0x40 MLOAD PUSH3 0x461BCD PUSH1 0xE5 SHL DUP2 MSTORE PUSH1 0x20 PUSH1 0x4 DUP3 ADD MSTORE PUSH1 0x25 PUSH1 0x24 DUP3 ADD MSTORE PUSH32 0x5468697320746F6B656E4964206973206E6F74206F776E656420627920636F6E PUSH1 0x44 DUP3 ADD MSTORE PUSH5 0x1D1C9858DD PUSH1 0xDA SHL PUSH1 0x64 DUP3 ADD MSTORE PUSH1 0x84 ADD PUSH2 0x51A JUMP JUMPDEST PUSH1 0x40 MLOAD PUSH4 0x21421707 PUSH1 0xE1 SHL DUP2 MSTORE ADDRESS PUSH1 0x4 DUP3 ADD MSTORE PUSH1 0x1 PUSH1 0x1 PUSH1 0xA0 SHL SUB DUP5 DUP2 AND PUSH1 0x24 DUP4 ADD MSTORE PUSH1 0x44 DUP3 ADD DUP4 SWAP1 MSTORE DUP4 AND SWAP1 PUSH4 0x42842E0E SWAP1 PUSH1 0x64 ADD PUSH1 0x0 PUSH1 0x40 MLOAD DUP1 DUP4 SUB DUP2 PUSH1 0x0 DUP8 DUP1 EXTCODESIZE ISZERO DUP1 ISZERO PUSH2 0xA2F JUMPI PUSH1 0x0 DUP1 REVERT JUMPDEST POP GAS CALL ISZERO DUP1 ISZERO PUSH2 0xA43 JUMPI RETURNDATASIZE PUSH1 0x0 DUP1 RETURNDATACOPY RETURNDATASIZE PUSH1 0x0 REVERT JUMPDEST POP POP PUSH1 0x40 DUP1 MLOAD PUSH1 0x1 PUSH1 0x1 PUSH1 0xA0 SHL SUB DUP1 DUP9 AND DUP3 MSTORE DUP7 AND PUSH1 0x20 DUP3 ADD MSTORE SWAP1 DUP2 ADD DUP5 SWAP1 MSTORE TIMESTAMP PUSH1 0x60 DUP3 ADD MSTORE PUSH32 0x127A8D3F57942833F6930572BCE52AD882683E36EEB5830D199D3FA4BFA9467 SWAP3 POP PUSH1 0x80 ADD SWAP1 POP PUSH2 0x60D JUMP JUMPDEST PUSH1 0x2 SLOAD PUSH1 0x40 DUP1 MLOAD PUSH4 0x18160DDD PUSH1 0xE0 SHL DUP2 MSTORE SWAP1 MLOAD PUSH1 0x0 SWAP3 PUSH1 0x1 PUSH1 0x1 PUSH1 0xA0 SHL SUB AND SWAP2 PUSH4 0x18160DDD SWAP2 PUSH1 0x4 DUP1 DUP4 ADD SWAP3 PUSH1 0x20 SWAP3 SWAP2 SWAP1 DUP3 SWAP1 SUB ADD DUP2 DUP7 GAS STATICCALL ISZERO DUP1 ISZERO PUSH2 0x4C7 JUMPI RETURNDATASIZE PUSH1 0x0 DUP1 RETURNDATACOPY RETURNDATASIZE PUSH1 0x0 REVERT JUMPDEST PUSH1 0x0 SLOAD PUSH1 0x1 PUSH1 0x1 PUSH1 0xA0 SHL SUB AND CALLER EQ PUSH2 0xB0A JUMPI PUSH1 0x40 MLOAD PUSH3 0x461BCD PUSH1 0xE5 SHL DUP2 MSTORE PUSH1 0x4 ADD PUSH2 0x51A SWAP1 PUSH2 0x1297 JUMP JUMPDEST PUSH1 0x1 PUSH1 0x1 PUSH1 0xA0 SHL SUB DUP2 AND PUSH2 0xB6F JUMPI PUSH1 0x40 MLOAD PUSH3 0x461BCD PUSH1 0xE5 SHL DUP2 MSTORE PUSH1 0x20 PUSH1 0x4 DUP3 ADD MSTORE PUSH1 0x26 PUSH1 0x24 DUP3 ADD MSTORE PUSH32 0x4F776E61626C653A206E6577206F776E657220697320746865207A65726F2061 PUSH1 0x44 DUP3 ADD MSTORE PUSH6 0x646472657373 PUSH1 0xD0 SHL PUSH1 0x64 DUP3 ADD MSTORE PUSH1 0x84 ADD PUSH2 0x51A JUMP JUMPDEST PUSH2 0xB78 DUP2 PUSH2 0x102A JUMP JUMPDEST POP JUMP JUMPDEST PUSH1 0x2 PUSH1 0x1 SLOAD SUB PUSH2 0xBCD JUMPI PUSH1 0x40 MLOAD PUSH3 0x461BCD PUSH1 0xE5 SHL DUP2 MSTORE PUSH1 0x20 PUSH1 0x4 DUP3 ADD MSTORE PUSH1 0x1F PUSH1 0x24 DUP3 ADD MSTORE PUSH32 0x5265656E7472616E637947756172643A207265656E7472616E742063616C6C00 PUSH1 0x44 DUP3 ADD MSTORE PUSH1 0x64 ADD PUSH2 0x51A JUMP JUMPDEST PUSH1 0x2 PUSH1 0x1 SSTORE DUP1 PUSH2 0xC17 JUMPI PUSH1 0x40 MLOAD PUSH3 0x461BCD PUSH1 0xE5 SHL DUP2 MSTORE PUSH1 0x20 PUSH1 0x4 DUP3 ADD MSTORE PUSH1 0x15 PUSH1 0x24 DUP3 ADD MSTORE PUSH21 0x26B4B73A1034B9903737BA1030B8383937BB32B217 PUSH1 0x59 SHL PUSH1 0x44 DUP3 ADD MSTORE PUSH1 0x64 ADD PUSH2 0x51A JUMP JUMPDEST DUP1 PUSH1 0x3 SLOAD EQ PUSH2 0xC78 JUMPI PUSH1 0x40 MLOAD PUSH3 0x461BCD PUSH1 0xE5 SHL DUP2 MSTORE PUSH1 0x20 PUSH1 0x4 DUP3 ADD MSTORE PUSH1 0x27 PUSH1 0x24 DUP3 ADD MSTORE PUSH32 0x436F6E747261637420617265206E6F7420696E2074686973206D696E74696E67 PUSH1 0x44 DUP3 ADD MSTORE PUSH7 0x103937BAB73217 PUSH1 0xC9 SHL PUSH1 0x64 DUP3 ADD MSTORE PUSH1 0x84 ADD PUSH2 0x51A JUMP JUMPDEST PUSH2 0xC80 PUSH2 0x47D JUMP JUMPDEST DUP3 PUSH2 0xC89 PUSH2 0xA96 JUMP JUMPDEST PUSH2 0xC93 SWAP2 SWAP1 PUSH2 0x1321 JUMP JUMPDEST LT PUSH2 0xCCE JUMPI PUSH1 0x40 MLOAD PUSH3 0x461BCD PUSH1 0xE5 SHL DUP2 MSTORE PUSH1 0x20 PUSH1 0x4 DUP3 ADD MSTORE PUSH1 0xB PUSH1 0x24 DUP3 ADD MSTORE PUSH11 0x4F76657220737570706C79 PUSH1 0xA8 SHL PUSH1 0x44 DUP3 ADD MSTORE PUSH1 0x64 ADD PUSH2 0x51A JUMP JUMPDEST CALLER PUSH1 0x0 SWAP1 DUP2 MSTORE PUSH1 0x5 PUSH1 0x20 SWAP1 DUP2 MSTORE PUSH1 0x40 DUP1 DUP4 KECCAK256 DUP5 DUP5 MSTORE SWAP1 SWAP2 MSTORE SWAP1 KECCAK256 SLOAD PUSH1 0xFF AND ISZERO PUSH2 0xD39 JUMPI PUSH1 0x40 MLOAD PUSH3 0x461BCD PUSH1 0xE5 SHL DUP2 MSTORE PUSH1 0x20 PUSH1 0x4 DUP3 ADD MSTORE PUSH1 0x17 PUSH1 0x24 DUP3 ADD MSTORE PUSH32 0x596F752061726520616C7265616479206D696E7465642E000000000000000000 PUSH1 0x44 DUP3 ADD MSTORE PUSH1 0x64 ADD PUSH2 0x51A JUMP JUMPDEST PUSH1 0x2 SLOAD PUSH1 0x40 MLOAD PUSH4 0x55138F0D PUSH1 0xE1 SHL DUP2 MSTORE ADDRESS PUSH1 0x4 DUP3 ADD MSTORE PUSH1 0x1 PUSH1 0x1 PUSH1 0xA0 SHL SUB SWAP1 SWAP2 AND SWAP1 PUSH4 0xAA271E1A SWAP1 PUSH1 0x24 ADD PUSH1 0x20 PUSH1 0x40 MLOAD DUP1 DUP4 SUB DUP2 DUP7 GAS STATICCALL ISZERO DUP1 ISZERO PUSH2 0xD81 JUMPI RETURNDATASIZE PUSH1 0x0 DUP1 RETURNDATACOPY RETURNDATASIZE PUSH1 0x0 REVERT JUMPDEST POP POP POP POP PUSH1 0x40 MLOAD RETURNDATASIZE PUSH1 0x1F NOT PUSH1 0x1F DUP3 ADD AND DUP3 ADD DUP1 PUSH1 0x40 MSTORE POP DUP2 ADD SWAP1 PUSH2 0xDA5 SWAP2 SWAP1 PUSH2 0x12CC JUMP JUMPDEST PUSH2 0xDF1 JUMPI PUSH1 0x40 MLOAD PUSH3 0x461BCD PUSH1 0xE5 SHL DUP2 MSTORE PUSH1 0x20 PUSH1 0x4 DUP3 ADD MSTORE PUSH1 0x1E PUSH1 0x24 DUP3 ADD MSTORE PUSH32 0x436F6E7472616374204D696E74206973206E6F7420617070726F7665642E0000 PUSH1 0x44 DUP3 ADD MSTORE PUSH1 0x64 ADD PUSH2 0x51A JUMP JUMPDEST PUSH2 0xE74 DUP5 DUP5 DUP1 DUP1 PUSH1 0x20 MUL PUSH1 0x20 ADD PUSH1 0x40 MLOAD SWAP1 DUP2 ADD PUSH1 0x40 MSTORE DUP1 SWAP4 SWAP3 SWAP2 SWAP1 DUP2 DUP2 MSTORE PUSH1 0x20 ADD DUP4 DUP4 PUSH1 0x20 MUL DUP1 DUP3 DUP5 CALLDATACOPY PUSH1 0x0 SWAP3 ADD SWAP2 SWAP1 SWAP2 MSTORE POP POP PUSH1 0x4 SLOAD PUSH1 0x40 MLOAD PUSH12 0xFFFFFFFFFFFFFFFFFFFFFFFF NOT CALLER PUSH1 0x60 SHL AND PUSH1 0x20 DUP3 ADD MSTORE PUSH1 0x34 DUP2 ADD DUP9 SWAP1 MSTORE PUSH1 0x54 DUP2 ADD DUP8 SWAP1 MSTORE SWAP1 SWAP3 POP PUSH1 0x74 ADD SWAP1 POP PUSH1 0x40 MLOAD PUSH1 0x20 DUP2 DUP4 SUB SUB DUP2 MSTORE SWAP1 PUSH1 0x40 MSTORE DUP1 MLOAD SWAP1 PUSH1 0x20 ADD KECCAK256 PUSH2 0x107A JUMP JUMPDEST PUSH2 0xECE JUMPI PUSH1 0x40 MLOAD PUSH3 0x461BCD PUSH1 0xE5 SHL DUP2 MSTORE PUSH1 0x20 PUSH1 0x4 DUP3 ADD MSTORE PUSH1 0x25 PUSH1 0x24 DUP3 ADD MSTORE PUSH32 0x556E617574686F72697A65642057686974656C6973744D696E74205468697320 PUSH1 0x44 DUP3 ADD MSTORE PUSH5 0x2AB9B2B917 PUSH1 0xD9 SHL PUSH1 0x64 DUP3 ADD MSTORE PUSH1 0x84 ADD PUSH2 0x51A JUMP JUMPDEST CALLER PUSH1 0x0 DUP2 DUP2 MSTORE PUSH1 0x5 PUSH1 0x20 SWAP1 DUP2 MSTORE PUSH1 0x40 DUP1 DUP4 KECCAK256 DUP6 DUP5 MSTORE DUP3 MSTORE DUP1 DUP4 KECCAK256 DUP1 SLOAD PUSH1 0xFF NOT AND PUSH1 0x1 OR SWAP1 SSTORE SWAP3 DUP3 MSTORE PUSH1 0x6 DUP2 MSTORE DUP3 DUP3 KECCAK256 DUP5 DUP4 MSTORE SWAP1 MSTORE SWAP1 DUP2 KECCAK256 DUP1 SLOAD DUP5 SWAP3 SWAP1 PUSH2 0xF15 SWAP1 DUP5 SWAP1 PUSH2 0x1321 JUMP JUMPDEST SWAP1 SWAP2 SSTORE POP POP PUSH1 0x2 SLOAD PUSH1 0x40 MLOAD PUSH4 0x28512065 PUSH1 0xE2 SHL DUP2 MSTORE CALLER PUSH1 0x4 DUP3 ADD MSTORE PUSH1 0x24 DUP2 ADD DUP5 SWAP1 MSTORE PUSH1 0x1 PUSH1 0x1 PUSH1 0xA0 SHL SUB SWAP1 SWAP2 AND SWAP1 PUSH4 0xA1448194 SWAP1 PUSH1 0x44 ADD PUSH1 0x0 PUSH1 0x40 MLOAD DUP1 DUP4 SUB DUP2 PUSH1 0x0 DUP8 DUP1 EXTCODESIZE ISZERO DUP1 ISZERO PUSH2 0xF66 JUMPI PUSH1 0x0 DUP1 REVERT JUMPDEST POP GAS CALL ISZERO DUP1 ISZERO PUSH2 0xF7A JUMPI RETURNDATASIZE PUSH1 0x0 DUP1 RETURNDATACOPY RETURNDATASIZE PUSH1 0x0 REVERT JUMPDEST POP POP PUSH1 0x40 DUP1 MLOAD DUP6 DUP2 MSTORE TIMESTAMP PUSH1 0x20 DUP3 ADD MSTORE CALLER SWAP4 POP PUSH32 0x25B428DFDE728CCFADDAD7E29E4AC23C24ED7FD1A6E3E3F91894A9A073F5DFFF SWAP3 POP ADD PUSH1 0x40 MLOAD DUP1 SWAP2 SUB SWAP1 LOG2 POP POP PUSH1 0x1 DUP1 SSTORE POP POP JUMP JUMPDEST PUSH1 0x0 SLOAD PUSH1 0x1 PUSH1 0x1 PUSH1 0xA0 SHL SUB AND CALLER EQ PUSH2 0xFEC JUMPI PUSH1 0x40 MLOAD PUSH3 0x461BCD PUSH1 0xE5 SHL DUP2 MSTORE PUSH1 0x4 ADD PUSH2 0x51A SWAP1 PUSH2 0x1297 JUMP JUMPDEST PUSH1 0x3 DUP1 SLOAD SWAP1 DUP3 SWAP1 SSTORE PUSH1 0x40 DUP1 MLOAD DUP3 DUP2 MSTORE PUSH1 0x20 DUP2 ADD DUP5 SWAP1 MSTORE PUSH32 0x521EC96875CA228CD2FC1DBD4C927A34328C9CE1A83BCB8C1F633F012C90D785 SWAP2 ADD PUSH2 0x6B4 JUMP JUMPDEST PUSH1 0x0 DUP1 SLOAD PUSH1 0x1 PUSH1 0x1 PUSH1 0xA0 SHL SUB DUP4 DUP2 AND PUSH1 0x1 PUSH1 0x1 PUSH1 0xA0 SHL SUB NOT DUP4 AND DUP2 OR DUP5 SSTORE PUSH1 0x40 MLOAD SWAP2 SWAP1 SWAP3 AND SWAP3 DUP4 SWAP2 PUSH32 0x8BE0079C531659141344CD1FD0A4F28419497F9722A3DAAFE3B4186F6B6457E0 SWAP2 SWAP1 LOG3 POP POP JUMP JUMPDEST PUSH1 0x0 DUP3 PUSH2 0x1087 DUP6 DUP5 PUSH2 0x1090 JUMP JUMPDEST EQ SWAP5 SWAP4 POP POP POP POP JUMP JUMPDEST PUSH1 0x0 DUP2 DUP2 JUMPDEST DUP5 MLOAD DUP2 LT ISZERO PUSH2 0x10FC JUMPI PUSH1 0x0 DUP6 DUP3 DUP2 MLOAD DUP2 LT PUSH2 0x10B2 JUMPI PUSH2 0x10B2 PUSH2 0x1339 JUMP JUMPDEST PUSH1 0x20 MUL PUSH1 0x20 ADD ADD MLOAD SWAP1 POP DUP1 DUP4 GT PUSH2 0x10D8 JUMPI PUSH1 0x0 DUP4 DUP2 MSTORE PUSH1 0x20 DUP3 SWAP1 MSTORE PUSH1 0x40 SWAP1 KECCAK256 SWAP3 POP PUSH2 0x10E9 JUMP JUMPDEST PUSH1 0x0 DUP2 DUP2 MSTORE PUSH1 0x20 DUP5 SWAP1 MSTORE PUSH1 0x40 SWAP1 KECCAK256 SWAP3 POP JUMPDEST POP DUP1 PUSH2 0x10F4 DUP2 PUSH2 0x134F JUMP JUMPDEST SWAP2 POP POP PUSH2 0x1095 JUMP JUMPDEST POP SWAP4 SWAP3 POP POP POP JUMP JUMPDEST PUSH1 0x1 PUSH1 0x1 PUSH1 0xA0 SHL SUB DUP2 AND DUP2 EQ PUSH2 0xB78 JUMPI PUSH1 0x0 DUP1 REVERT JUMPDEST PUSH1 0x0 PUSH1 0x20 DUP3 DUP5 SUB SLT ISZERO PUSH2 0x112B JUMPI PUSH1 0x0 DUP1 REVERT JUMPDEST DUP2 CALLDATALOAD PUSH2 0x1136 DUP2 PUSH2 0x1104 JUMP JUMPDEST SWAP4 SWAP3 POP POP POP JUMP JUMPDEST PUSH1 0x0 PUSH1 0x20 DUP3 DUP5 SUB SLT ISZERO PUSH2 0x114F JUMPI PUSH1 0x0 DUP1 REVERT JUMPDEST POP CALLDATALOAD SWAP2 SWAP1 POP JUMP JUMPDEST PUSH1 0x0 DUP1 PUSH1 0x40 DUP4 DUP6 SUB SLT ISZERO PUSH2 0x1169 JUMPI PUSH1 0x0 DUP1 REVERT JUMPDEST DUP3 CALLDATALOAD PUSH2 0x1174 DUP2 PUSH2 0x1104 JUMP JUMPDEST SWAP2 POP PUSH1 0x20 DUP4 ADD CALLDATALOAD PUSH2 0x1184 DUP2 PUSH2 0x1104 JUMP JUMPDEST DUP1 SWAP2 POP POP SWAP3 POP SWAP3 SWAP1 POP JUMP JUMPDEST PUSH1 0x0 DUP1 PUSH1 0x40 DUP4 DUP6 SUB SLT ISZERO PUSH2 0x11A2 JUMPI PUSH1 0x0 DUP1 REVERT JUMPDEST DUP3 CALLDATALOAD PUSH2 0x11AD DUP2 PUSH2 0x1104 JUMP JUMPDEST SWAP5 PUSH1 0x20 SWAP4 SWAP1 SWAP4 ADD CALLDATALOAD SWAP4 POP POP POP JUMP JUMPDEST PUSH1 0x0 DUP1 PUSH1 0x0 PUSH1 0x60 DUP5 DUP7 SUB SLT ISZERO PUSH2 0x11D0 JUMPI PUSH1 0x0 DUP1 REVERT JUMPDEST DUP4 CALLDATALOAD PUSH2 0x11DB DUP2 PUSH2 0x1104 JUMP JUMPDEST SWAP3 POP PUSH1 0x20 DUP5 ADD CALLDATALOAD PUSH2 0x11EB DUP2 PUSH2 0x1104 JUMP JUMPDEST SWAP3 SWAP6 SWAP3 SWAP5 POP POP POP PUSH1 0x40 SWAP2 SWAP1 SWAP2 ADD CALLDATALOAD SWAP1 JUMP JUMPDEST PUSH1 0x0 DUP1 PUSH1 0x0 DUP1 PUSH1 0x60 DUP6 DUP8 SUB SLT ISZERO PUSH2 0x1212 JUMPI PUSH1 0x0 DUP1 REVERT JUMPDEST DUP5 CALLDATALOAD PUSH8 0xFFFFFFFFFFFFFFFF DUP1 DUP3 GT ISZERO PUSH2 0x122A JUMPI PUSH1 0x0 DUP1 REVERT JUMPDEST DUP2 DUP8 ADD SWAP2 POP DUP8 PUSH1 0x1F DUP4 ADD SLT PUSH2 0x123E JUMPI PUSH1 0x0 DUP1 REVERT JUMPDEST DUP2 CALLDATALOAD DUP2 DUP2 GT ISZERO PUSH2 0x124D JUMPI PUSH1 0x0 DUP1 REVERT JUMPDEST DUP9 PUSH1 0x20 DUP3 PUSH1 0x5 SHL DUP6 ADD ADD GT ISZERO PUSH2 0x1262 JUMPI PUSH1 0x0 DUP1 REVERT JUMPDEST PUSH1 0x20 SWAP3 DUP4 ADD SWAP10 SWAP1 SWAP9 POP SWAP2 DUP8 ADD CALLDATALOAD SWAP7 PUSH1 0x40 ADD CALLDATALOAD SWAP6 POP SWAP1 SWAP4 POP POP POP POP JUMP JUMPDEST PUSH1 0x0 PUSH1 0x20 DUP3 DUP5 SUB SLT ISZERO PUSH2 0x1290 JUMPI PUSH1 0x0 DUP1 REVERT JUMPDEST POP MLOAD SWAP2 SWAP1 POP JUMP JUMPDEST PUSH1 0x20 DUP1 DUP3 MSTORE DUP2 DUP2 ADD MSTORE PUSH32 0x4F776E61626C653A2063616C6C6572206973206E6F7420746865206F776E6572 PUSH1 0x40 DUP3 ADD MSTORE PUSH1 0x60 ADD SWAP1 JUMP JUMPDEST PUSH1 0x0 PUSH1 0x20 DUP3 DUP5 SUB SLT ISZERO PUSH2 0x12DE JUMPI PUSH1 0x0 DUP1 REVERT JUMPDEST DUP2 MLOAD DUP1 ISZERO ISZERO DUP2 EQ PUSH2 0x1136 JUMPI PUSH1 0x0 DUP1 REVERT JUMPDEST PUSH1 0x0 PUSH1 0x20 DUP3 DUP5 SUB SLT ISZERO PUSH2 0x1300 JUMPI PUSH1 0x0 DUP1 REVERT JUMPDEST DUP2 MLOAD PUSH2 0x1136 DUP2 PUSH2 0x1104 JUMP JUMPDEST PUSH4 0x4E487B71 PUSH1 0xE0 SHL PUSH1 0x0 MSTORE PUSH1 0x11 PUSH1 0x4 MSTORE PUSH1 0x24 PUSH1 0x0 REVERT JUMPDEST PUSH1 0x0 DUP3 NOT DUP3 GT ISZERO PUSH2 0x1334 JUMPI PUSH2 0x1334 PUSH2 0x130B JUMP JUMPDEST POP ADD SWAP1 JUMP JUMPDEST PUSH4 0x4E487B71 PUSH1 0xE0 SHL PUSH1 0x0 MSTORE PUSH1 0x32 PUSH1 0x4 MSTORE PUSH1 0x24 PUSH1 0x0 REVERT JUMPDEST PUSH1 0x0 PUSH1 0x1 DUP3 ADD PUSH2 0x1361 JUMPI PUSH2 0x1361 PUSH2 0x130B JUMP JUMPDEST POP PUSH1 0x1 ADD SWAP1 JUMP INVALID LOG2 PUSH5 0x6970667358 0x22 SLT KECCAK256 CODECOPY DUP13 MSTORE8 PUSH5 0x63B06C0F8D 0xE6 STATICCALL MUL LOG0 SWAP6 0xAB 0x49 0xA6 SWAP5 0x24 CALLCODE SELFDESTRUCT 0x49 CREATE2 PUSH3 0x217936 SWAP11 PUSH9 0x32592E64736F6C6343 STOP ADDMOD 0xF STOP CALLER 0x4F PUSH24 0x6E61626C653A2063616C6C6572206973206E6F7420746865 KECCAK256 PUSH16 0x776E6572000000000000000000000000 "
				},
				"gasEstimates": {
					"creation": {
						"codeDepositCost": "1004400",
						"executionCost": "infinite",
						"totalCost": "infinite"
					},
					"external": {
						"DEFAULT()": "208",
						"NAGA_HOLDER_MINT_ROUND()": "230",
						"SPECIAL_MINT_ROUND()": "207",
						"WHITELIST_MINT_ROUND()": "250",
						"WITHDRAW_ROLE()": "295",
						"allowlistMint(bytes32[],uint256,bytes32)": "infinite",
						"currentMintRound()": "2306",
						"getMaxSupply()": "infinite",
						"getTotalSupply()": "infinite",
						"isUserMinted(address,bytes32)": "2774",
						"merkleRoot()": "2352",
						"nagaKidContract()": "2426",
						"owner()": "2431",
						"renounceOwnership()": "28159",
						"setMerkleRoot(bytes32)": "27982",
						"setNagaKidContract(address)": "28208",
						"setRound(bytes32)": "28036",
						"transferOwnership(address)": "infinite",
						"userMintedAmount(address,bytes32)": "2642",
						"withdraw(address)": "infinite",
						"withdrawCurrency(address,address)": "infinite",
						"withdrawNFT(address,address,uint256)": "infinite"
					}
				},
				"methodIdentifiers": {
					"DEFAULT()": "0a25dea9",
					"NAGA_HOLDER_MINT_ROUND()": "24c37a85",
					"SPECIAL_MINT_ROUND()": "5b94bbc3",
					"WHITELIST_MINT_ROUND()": "f500cdfc",
					"WITHDRAW_ROLE()": "e02023a1",
					"allowlistMint(bytes32[],uint256,bytes32)": "f6b48e55",
					"currentMintRound()": "ef5fe79f",
					"getMaxSupply()": "4c0f38c2",
					"getTotalSupply()": "c4e41b22",
					"isUserMinted(address,bytes32)": "ffdc6129",
					"merkleRoot()": "2eb4a7ab",
					"nagaKidContract()": "df4e5881",
					"owner()": "8da5cb5b",
					"renounceOwnership()": "715018a6",
					"setMerkleRoot(bytes32)": "7cb64759",
					"setNagaKidContract(address)": "9e6c8855",
					"setRound(bytes32)": "ff05fe4a",
					"transferOwnership(address)": "f2fde38b",
					"userMintedAmount(address,bytes32)": "b5abafa1",
					"withdraw(address)": "51cff8d9",
					"withdrawCurrency(address,address)": "8407ecc4",
					"withdrawNFT(address,address,uint256)": "bff863ec"
				}
			},
			"storageLayout": {
				"storage": [
					{
						"astId": 7,
						"contract": "ERC721A/MintNagaKids.sol:MintNagaKids",
						"label": "_owner",
						"offset": 0,
						"slot": "0",
						"type": "t_address"
					},
					{
						"astId": 115,
						"contract": "ERC721A/MintNagaKids.sol:MintNagaKids",
						"label": "_status",
						"offset": 0,
						"slot": "1",
						"type": "t_uint256"
					},
					{
						"astId": 532,
						"contract": "ERC721A/MintNagaKids.sol:MintNagaKids",
						"label": "nagaKidContract",
						"offset": 0,
						"slot": "2",
						"type": "t_contract(INagaKid)494"
					},
					{
						"astId": 534,
						"contract": "ERC721A/MintNagaKids.sol:MintNagaKids",
						"label": "currentMintRound",
						"offset": 0,
						"slot": "3",
						"type": "t_bytes32"
					},
					{
						"astId": 536,
						"contract": "ERC721A/MintNagaKids.sol:MintNagaKids",
						"label": "merkleRoot",
						"offset": 0,
						"slot": "4",
						"type": "t_bytes32"
					},
					{
						"astId": 542,
						"contract": "ERC721A/MintNagaKids.sol:MintNagaKids",
						"label": "_isUserMinted",
						"offset": 0,
						"slot": "5",
						"type": "t_mapping(t_address,t_mapping(t_bytes32,t_bool))"
					},
					{
						"astId": 548,
						"contract": "ERC721A/MintNagaKids.sol:MintNagaKids",
						"label": "_userMintedAmount",
						"offset": 0,
						"slot": "6",
						"type": "t_mapping(t_address,t_mapping(t_bytes32,t_uint256))"
					}
				],
				"types": {
					"t_address": {
						"encoding": "inplace",
						"label": "address",
						"numberOfBytes": "20"
					},
					"t_bool": {
						"encoding": "inplace",
						"label": "bool",
						"numberOfBytes": "1"
					},
					"t_bytes32": {
						"encoding": "inplace",
						"label": "bytes32",
						"numberOfBytes": "32"
					},
					"t_contract(INagaKid)494": {
						"encoding": "inplace",
						"label": "contract INagaKid",
						"numberOfBytes": "20"
					},
					"t_mapping(t_address,t_mapping(t_bytes32,t_bool))": {
						"encoding": "mapping",
						"key": "t_address",
						"label": "mapping(address => mapping(bytes32 => bool))",
						"numberOfBytes": "32",
						"value": "t_mapping(t_bytes32,t_bool)"
					},
					"t_mapping(t_address,t_mapping(t_bytes32,t_uint256))": {
						"encoding": "mapping",
						"key": "t_address",
						"label": "mapping(address => mapping(bytes32 => uint256))",
						"numberOfBytes": "32",
						"value": "t_mapping(t_bytes32,t_uint256)"
					},
					"t_mapping(t_bytes32,t_bool)": {
						"encoding": "mapping",
						"key": "t_bytes32",
						"label": "mapping(bytes32 => bool)",
						"numberOfBytes": "32",
						"value": "t_bool"
					},
					"t_mapping(t_bytes32,t_uint256)": {
						"encoding": "mapping",
						"key": "t_bytes32",
						"label": "mapping(bytes32 => uint256)",
						"numberOfBytes": "32",
						"value": "t_uint256"
					},
					"t_uint256": {
						"encoding": "inplace",
						"label": "uint256",
						"numberOfBytes": "32"
					}
				}
			},
			"userdoc": {
				"kind": "user",
				"methods": {},
				"version": 1
			}
		}
	}
}