{
	"erc721a/contracts/ERC721A.sol": {
		"ERC721A": {
			"abi": [
				{
					"inputs": [
						{
							"internalType": "string",
							"name": "name_",
							"type": "string"
						},
						{
							"internalType": "string",
							"name": "symbol_",
							"type": "string"
						}
					],
					"stateMutability": "nonpayable",
					"type": "constructor"
				},
				{
					"inputs": [],
					"name": "ApprovalCallerNotOwnerNorApproved",
					"type": "error"
				},
				{
					"inputs": [],
					"name": "ApprovalQueryForNonexistentToken",
					"type": "error"
				},
				{
					"inputs": [],
					"name": "ApproveToCaller",
					"type": "error"
				},
				{
					"inputs": [],
					"name": "BalanceQueryForZeroAddress",
					"type": "error"
				},
				{
					"inputs": [],
					"name": "MintERC2309QuantityExceedsLimit",
					"type": "error"
				},
				{
					"inputs": [],
					"name": "MintToZeroAddress",
					"type": "error"
				},
				{
					"inputs": [],
					"name": "MintZeroQuantity",
					"type": "error"
				},
				{
					"inputs": [],
					"name": "OwnerQueryForNonexistentToken",
					"type": "error"
				},
				{
					"inputs": [],
					"name": "OwnershipNotInitializedForExtraData",
					"type": "error"
				},
				{
					"inputs": [],
					"name": "TransferCallerNotOwnerNorApproved",
					"type": "error"
				},
				{
					"inputs": [],
					"name": "TransferFromIncorrectOwner",
					"type": "error"
				},
				{
					"inputs": [],
					"name": "TransferToNonERC721ReceiverImplementer",
					"type": "error"
				},
				{
					"inputs": [],
					"name": "TransferToZeroAddress",
					"type": "error"
				},
				{
					"inputs": [],
					"name": "URIQueryForNonexistentToken",
					"type": "error"
				},
				{
					"anonymous": false,
					"inputs": [
						{
							"indexed": true,
							"internalType": "address",
							"name": "owner",
							"type": "address"
						},
						{
							"indexed": true,
							"internalType": "address",
							"name": "approved",
							"type": "address"
						},
						{
							"indexed": true,
							"internalType": "uint256",
							"name": "tokenId",
							"type": "uint256"
						}
					],
					"name": "Approval",
					"type": "event"
				},
				{
					"anonymous": false,
					"inputs": [
						{
							"indexed": true,
							"internalType": "address",
							"name": "owner",
							"type": "address"
						},
						{
							"indexed": true,
							"internalType": "address",
							"name": "operator",
							"type": "address"
						},
						{
							"indexed": false,
							"internalType": "bool",
							"name": "approved",
							"type": "bool"
						}
					],
					"name": "ApprovalForAll",
					"type": "event"
				},
				{
					"anonymous": false,
					"inputs": [
						{
							"indexed": true,
							"internalType": "uint256",
							"name": "fromTokenId",
							"type": "uint256"
						},
						{
							"indexed": false,
							"internalType": "uint256",
							"name": "toTokenId",
							"type": "uint256"
						},
						{
							"indexed": true,
							"internalType": "address",
							"name": "from",
							"type": "address"
						},
						{
							"indexed": true,
							"internalType": "address",
							"name": "to",
							"type": "address"
						}
					],
					"name": "ConsecutiveTransfer",
					"type": "event"
				},
				{
					"anonymous": false,
					"inputs": [
						{
							"indexed": true,
							"internalType": "address",
							"name": "from",
							"type": "address"
						},
						{
							"indexed": true,
							"internalType": "address",
							"name": "to",
							"type": "address"
						},
						{
							"indexed": true,
							"internalType": "uint256",
							"name": "tokenId",
							"type": "uint256"
						}
					],
					"name": "Transfer",
					"type": "event"
				},
				{
					"inputs": [
						{
							"internalType": "address",
							"name": "to",
							"type": "address"
						},
						{
							"internalType": "uint256",
							"name": "tokenId",
							"type": "uint256"
						}
					],
					"name": "approve",
					"outputs": [],
					"stateMutability": "nonpayable",
					"type": "function"
				},
				{
					"inputs": [
						{
							"internalType": "address",
							"name": "owner",
							"type": "address"
						}
					],
					"name": "balanceOf",
					"outputs": [
						{
							"internalType": "uint256",
							"name": "",
							"type": "uint256"
						}
					],
					"stateMutability": "view",
					"type": "function"
				},
				{
					"inputs": [
						{
							"internalType": "uint256",
							"name": "tokenId",
							"type": "uint256"
						}
					],
					"name": "getApproved",
					"outputs": [
						{
							"internalType": "address",
							"name": "",
							"type": "address"
						}
					],
					"stateMutability": "view",
					"type": "function"
				},
				{
					"inputs": [
						{
							"internalType": "address",
							"name": "owner",
							"type": "address"
						},
						{
							"internalType": "address",
							"name": "operator",
							"type": "address"
						}
					],
					"name": "isApprovedForAll",
					"outputs": [
						{
							"internalType": "bool",
							"name": "",
							"type": "bool"
						}
					],
					"stateMutability": "view",
					"type": "function"
				},
				{
					"inputs": [],
					"name": "name",
					"outputs": [
						{
							"internalType": "string",
							"name": "",
							"type": "string"
						}
					],
					"stateMutability": "view",
					"type": "function"
				},
				{
					"inputs": [
						{
							"internalType": "uint256",
							"name": "tokenId",
							"type": "uint256"
						}
					],
					"name": "ownerOf",
					"outputs": [
						{
							"internalType": "address",
							"name": "",
							"type": "address"
						}
					],
					"stateMutability": "view",
					"type": "function"
				},
				{
					"inputs": [
						{
							"internalType": "address",
							"name": "from",
							"type": "address"
						},
						{
							"internalType": "address",
							"name": "to",
							"type": "address"
						},
						{
							"internalType": "uint256",
							"name": "tokenId",
							"type": "uint256"
						}
					],
					"name": "safeTransferFrom",
					"outputs": [],
					"stateMutability": "nonpayable",
					"type": "function"
				},
				{
					"inputs": [
						{
							"internalType": "address",
							"name": "from",
							"type": "address"
						},
						{
							"internalType": "address",
							"name": "to",
							"type": "address"
						},
						{
							"internalType": "uint256",
							"name": "tokenId",
							"type": "uint256"
						},
						{
							"internalType": "bytes",
							"name": "_data",
							"type": "bytes"
						}
					],
					"name": "safeTransferFrom",
					"outputs": [],
					"stateMutability": "nonpayable",
					"type": "function"
				},
				{
					"inputs": [
						{
							"internalType": "address",
							"name": "operator",
							"type": "address"
						},
						{
							"internalType": "bool",
							"name": "approved",
							"type": "bool"
						}
					],
					"name": "setApprovalForAll",
					"outputs": [],
					"stateMutability": "nonpayable",
					"type": "function"
				},
				{
					"inputs": [
						{
							"internalType": "bytes4",
							"name": "interfaceId",
							"type": "bytes4"
						}
					],
					"name": "supportsInterface",
					"outputs": [
						{
							"internalType": "bool",
							"name": "",
							"type": "bool"
						}
					],
					"stateMutability": "view",
					"type": "function"
				},
				{
					"inputs": [],
					"name": "symbol",
					"outputs": [
						{
							"internalType": "string",
							"name": "",
							"type": "string"
						}
					],
					"stateMutability": "view",
					"type": "function"
				},
				{
					"inputs": [
						{
							"internalType": "uint256",
							"name": "tokenId",
							"type": "uint256"
						}
					],
					"name": "tokenURI",
					"outputs": [
						{
							"internalType": "string",
							"name": "",
							"type": "string"
						}
					],
					"stateMutability": "view",
					"type": "function"
				},
				{
					"inputs": [],
					"name": "totalSupply",
					"outputs": [
						{
							"internalType": "uint256",
							"name": "",
							"type": "uint256"
						}
					],
					"stateMutability": "view",
					"type": "function"
				},
				{
					"inputs": [
						{
							"internalType": "address",
							"name": "from",
							"type": "address"
						},
						{
							"internalType": "address",
							"name": "to",
							"type": "address"
						},
						{
							"internalType": "uint256",
							"name": "tokenId",
							"type": "uint256"
						}
					],
					"name": "transferFrom",
					"outputs": [],
					"stateMutability": "nonpayable",
					"type": "function"
				}
			],
			"devdoc": {
				"details": "Implementation of https://eips.ethereum.org/EIPS/eip-721[ERC721] Non-Fungible Token Standard, including the Metadata extension. Built to optimize for lower gas during batch mints. Assumes serials are sequentially minted starting at `_startTokenId()` (defaults to 0, e.g. 0, 1, 2, 3..). Assumes that an owner cannot have more than 2**64 - 1 (max value of uint64) of supply. Assumes that the maximum token id cannot exceed 2**256 - 1 (max value of uint256).",
				"kind": "dev",
				"methods": {
					"approve(address,uint256)": {
						"details": "See {IERC721-approve}."
					},
					"balanceOf(address)": {
						"details": "See {IERC721-balanceOf}."
					},
					"getApproved(uint256)": {
						"details": "See {IERC721-getApproved}."
					},
					"isApprovedForAll(address,address)": {
						"details": "See {IERC721-isApprovedForAll}."
					},
					"name()": {
						"details": "See {IERC721Metadata-name}."
					},
					"ownerOf(uint256)": {
						"details": "See {IERC721-ownerOf}."
					},
					"safeTransferFrom(address,address,uint256)": {
						"details": "See {IERC721-safeTransferFrom}."
					},
					"safeTransferFrom(address,address,uint256,bytes)": {
						"details": "See {IERC721-safeTransferFrom}."
					},
					"setApprovalForAll(address,bool)": {
						"details": "See {IERC721-setApprovalForAll}."
					},
					"supportsInterface(bytes4)": {
						"details": "See {IERC165-supportsInterface}."
					},
					"symbol()": {
						"details": "See {IERC721Metadata-symbol}."
					},
					"tokenURI(uint256)": {
						"details": "See {IERC721Metadata-tokenURI}."
					},
					"totalSupply()": {
						"details": "Returns the total number of tokens in existence. Burned tokens will reduce the count. To get the total number of tokens minted, please see `_totalMinted`."
					},
					"transferFrom(address,address,uint256)": {
						"details": "Transfers `tokenId` from `from` to `to`. Requirements: - `to` cannot be the zero address. - `tokenId` token must be owned by `from`. Emits a {Transfer} event."
					}
				},
				"version": 1
			},
			"evm": {
				"assembly": "    /* \"erc721a/contracts/ERC721A.sol\":885:35000  contract ERC721A is IERC721A {... */\n  mstore(0x40, 0x80)\n    /* \"erc721a/contracts/ERC721A.sol\":3986:4140  constructor(string memory name_, string memory symbol_) {... */\n  callvalue\n  dup1\n  iszero\n  tag_1\n  jumpi\n  0x00\n  dup1\n  revert\ntag_1:\n  pop\n  mload(0x40)\n  sub(codesize, bytecodeSize)\n  dup1\n  bytecodeSize\n  dup4\n  codecopy\n  dup2\n  add\n  0x40\n  dup2\n  swap1\n  mstore\n  tag_2\n  swap2\n  tag_3\n  jump\t// in\ntag_2:\n    /* \"erc721a/contracts/ERC721A.sol\":4052:4057  _name */\n  0x02\n    /* \"erc721a/contracts/ERC721A.sol\":4052:4065  _name = name_ */\n  tag_6\n    /* \"erc721a/contracts/ERC721A.sol\":4060:4065  name_ */\n  dup4\n    /* \"erc721a/contracts/ERC721A.sol\":4052:4057  _name */\n  dup3\n    /* \"erc721a/contracts/ERC721A.sol\":4052:4065  _name = name_ */\n  tag_7\n  jump\t// in\ntag_6:\n  pop\n    /* \"erc721a/contracts/ERC721A.sol\":4075:4082  _symbol */\n  0x03\n    /* \"erc721a/contracts/ERC721A.sol\":4075:4092  _symbol = symbol_ */\n  tag_8\n    /* \"erc721a/contracts/ERC721A.sol\":4085:4092  symbol_ */\n  dup3\n    /* \"erc721a/contracts/ERC721A.sol\":4075:4082  _symbol */\n  dup3\n    /* \"erc721a/contracts/ERC721A.sol\":4075:4092  _symbol = symbol_ */\n  tag_7\n  jump\t// in\ntag_8:\n  pop\n  pop\n    /* \"erc721a/contracts/ERC721A.sol\":4332:4339  uint256 */\n  0x00\n    /* \"erc721a/contracts/ERC721A.sol\":4102:4133  _currentIndex = _startTokenId() */\n  dup1\n  sstore\n  pop\n    /* \"erc721a/contracts/ERC721A.sol\":885:35000  contract ERC721A is IERC721A {... */\n  jump(tag_19)\n    /* \"#utility.yul\":14:141   */\ntag_13:\n    /* \"#utility.yul\":75:85   */\n  0x4e487b71\n    /* \"#utility.yul\":70:73   */\n  0xe0\n    /* \"#utility.yul\":66:86   */\n  shl\n    /* \"#utility.yul\":63:64   */\n  0x00\n    /* \"#utility.yul\":56:87   */\n  mstore\n    /* \"#utility.yul\":106:110   */\n  0x41\n    /* \"#utility.yul\":103:104   */\n  0x04\n    /* \"#utility.yul\":96:111   */\n  mstore\n    /* \"#utility.yul\":130:134   */\n  0x24\n    /* \"#utility.yul\":127:128   */\n  0x00\n    /* \"#utility.yul\":120:135   */\n  revert\n    /* \"#utility.yul\":146:1031   */\ntag_14:\n    /* \"#utility.yul\":200:205   */\n  0x00\n    /* \"#utility.yul\":253:256   */\n  dup3\n    /* \"#utility.yul\":246:250   */\n  0x1f\n    /* \"#utility.yul\":238:244   */\n  dup4\n    /* \"#utility.yul\":234:251   */\n  add\n    /* \"#utility.yul\":230:257   */\n  slt\n    /* \"#utility.yul\":220:275   */\n  tag_22\n  jumpi\n    /* \"#utility.yul\":271:272   */\n  0x00\n    /* \"#utility.yul\":268:269   */\n  dup1\n    /* \"#utility.yul\":261:273   */\n  revert\n    /* \"#utility.yul\":220:275   */\ntag_22:\n    /* \"#utility.yul\":294:307   */\n  dup2\n  mload\n  sub(shl(0x40, 0x01), 0x01)\n    /* \"#utility.yul\":356:366   */\n  dup1\n  dup3\n  gt\n    /* \"#utility.yul\":353:389   */\n  iszero\n  tag_24\n  jumpi\n    /* \"#utility.yul\":369:387   */\n  tag_24\n  tag_13\n  jump\t// in\ntag_24:\n    /* \"#utility.yul\":444:446   */\n  0x40\n    /* \"#utility.yul\":438:447   */\n  mload\n    /* \"#utility.yul\":412:414   */\n  0x1f\n    /* \"#utility.yul\":498:511   */\n  dup4\n  add\n  not(0x1f)\n    /* \"#utility.yul\":494:516   */\n  swap1\n  dup2\n  and\n    /* \"#utility.yul\":518:520   */\n  0x3f\n    /* \"#utility.yul\":490:521   */\n  add\n    /* \"#utility.yul\":486:526   */\n  and\n    /* \"#utility.yul\":474:527   */\n  dup2\n  add\n  swap1\n    /* \"#utility.yul\":542:560   */\n  dup3\n  dup3\n  gt\n    /* \"#utility.yul\":562:584   */\n  dup2\n  dup4\n  lt\n    /* \"#utility.yul\":539:585   */\n  or\n    /* \"#utility.yul\":536:608   */\n  iszero\n  tag_26\n  jumpi\n    /* \"#utility.yul\":588:606   */\n  tag_26\n  tag_13\n  jump\t// in\ntag_26:\n    /* \"#utility.yul\":628:638   */\n  dup2\n    /* \"#utility.yul\":624:626   */\n  0x40\n    /* \"#utility.yul\":617:639   */\n  mstore\n    /* \"#utility.yul\":663:665   */\n  dup4\n    /* \"#utility.yul\":655:661   */\n  dup2\n    /* \"#utility.yul\":648:666   */\n  mstore\n    /* \"#utility.yul\":685:689   */\n  0x20\n    /* \"#utility.yul\":675:689   */\n  swap3\n  pop\n    /* \"#utility.yul\":730:733   */\n  dup7\n    /* \"#utility.yul\":725:727   */\n  dup4\n    /* \"#utility.yul\":720:722   */\n  dup6\n    /* \"#utility.yul\":712:718   */\n  dup9\n    /* \"#utility.yul\":708:723   */\n  add\n    /* \"#utility.yul\":704:728   */\n  add\n    /* \"#utility.yul\":701:734   */\n  gt\n    /* \"#utility.yul\":698:751   */\n  iszero\n  tag_27\n  jumpi\n    /* \"#utility.yul\":747:748   */\n  0x00\n    /* \"#utility.yul\":744:745   */\n  dup1\n    /* \"#utility.yul\":737:749   */\n  revert\n    /* \"#utility.yul\":698:751   */\ntag_27:\n    /* \"#utility.yul\":769:770   */\n  0x00\n    /* \"#utility.yul\":760:770   */\n  swap2\n  pop\n    /* \"#utility.yul\":779:912   */\ntag_28:\n    /* \"#utility.yul\":793:795   */\n  dup4\n    /* \"#utility.yul\":790:791   */\n  dup3\n    /* \"#utility.yul\":787:796   */\n  lt\n    /* \"#utility.yul\":779:912   */\n  iszero\n  tag_30\n  jumpi\n    /* \"#utility.yul\":881:895   */\n  dup6\n  dup3\n  add\n    /* \"#utility.yul\":877:900   */\n  dup4\n  add\n    /* \"#utility.yul\":871:901   */\n  mload\n    /* \"#utility.yul\":850:864   */\n  dup2\n  dup4\n  add\n    /* \"#utility.yul\":846:869   */\n  dup5\n  add\n    /* \"#utility.yul\":839:902   */\n  mstore\n    /* \"#utility.yul\":804:814   */\n  swap1\n  dup3\n  add\n  swap1\n    /* \"#utility.yul\":779:912   */\n  jump(tag_28)\ntag_30:\n    /* \"#utility.yul\":930:932   */\n  dup4\n    /* \"#utility.yul\":927:928   */\n  dup3\n    /* \"#utility.yul\":924:933   */\n  gt\n    /* \"#utility.yul\":921:1001   */\n  iszero\n  tag_31\n  jumpi\n    /* \"#utility.yul\":989:990   */\n  0x00\n    /* \"#utility.yul\":984:986   */\n  dup4\n    /* \"#utility.yul\":979:981   */\n  dup6\n    /* \"#utility.yul\":971:977   */\n  dup4\n    /* \"#utility.yul\":967:982   */\n  add\n    /* \"#utility.yul\":963:987   */\n  add\n    /* \"#utility.yul\":956:991   */\n  mstore\n    /* \"#utility.yul\":921:1001   */\ntag_31:\n    /* \"#utility.yul\":1019:1025   */\n  swap7\n    /* \"#utility.yul\":146:1031   */\n  swap6\n  pop\n  pop\n  pop\n  pop\n  pop\n  pop\n  jump\t// out\n    /* \"#utility.yul\":1036:1598   */\ntag_3:\n    /* \"#utility.yul\":1135:1141   */\n  0x00\n    /* \"#utility.yul\":1143:1149   */\n  dup1\n    /* \"#utility.yul\":1196:1198   */\n  0x40\n    /* \"#utility.yul\":1184:1193   */\n  dup4\n    /* \"#utility.yul\":1175:1182   */\n  dup6\n    /* \"#utility.yul\":1171:1194   */\n  sub\n    /* \"#utility.yul\":1167:1199   */\n  slt\n    /* \"#utility.yul\":1164:1216   */\n  iszero\n  tag_33\n  jumpi\n    /* \"#utility.yul\":1212:1213   */\n  0x00\n    /* \"#utility.yul\":1209:1210   */\n  dup1\n    /* \"#utility.yul\":1202:1214   */\n  revert\n    /* \"#utility.yul\":1164:1216   */\ntag_33:\n    /* \"#utility.yul\":1239:1255   */\n  dup3\n  mload\n  sub(shl(0x40, 0x01), 0x01)\n    /* \"#utility.yul\":1304:1318   */\n  dup1\n  dup3\n  gt\n    /* \"#utility.yul\":1301:1335   */\n  iszero\n  tag_34\n  jumpi\n    /* \"#utility.yul\":1331:1332   */\n  0x00\n    /* \"#utility.yul\":1328:1329   */\n  dup1\n    /* \"#utility.yul\":1321:1333   */\n  revert\n    /* \"#utility.yul\":1301:1335   */\ntag_34:\n    /* \"#utility.yul\":1354:1415   */\n  tag_35\n    /* \"#utility.yul\":1407:1414   */\n  dup7\n    /* \"#utility.yul\":1398:1404   */\n  dup4\n    /* \"#utility.yul\":1387:1396   */\n  dup8\n    /* \"#utility.yul\":1383:1405   */\n  add\n    /* \"#utility.yul\":1354:1415   */\n  tag_14\n  jump\t// in\ntag_35:\n    /* \"#utility.yul\":1344:1415   */\n  swap4\n  pop\n    /* \"#utility.yul\":1461:1463   */\n  0x20\n    /* \"#utility.yul\":1450:1459   */\n  dup6\n    /* \"#utility.yul\":1446:1464   */\n  add\n    /* \"#utility.yul\":1440:1465   */\n  mload\n    /* \"#utility.yul\":1424:1465   */\n  swap2\n  pop\n    /* \"#utility.yul\":1490:1492   */\n  dup1\n    /* \"#utility.yul\":1480:1488   */\n  dup3\n    /* \"#utility.yul\":1477:1493   */\n  gt\n    /* \"#utility.yul\":1474:1510   */\n  iszero\n  tag_36\n  jumpi\n    /* \"#utility.yul\":1506:1507   */\n  0x00\n    /* \"#utility.yul\":1503:1504   */\n  dup1\n    /* \"#utility.yul\":1496:1508   */\n  revert\n    /* \"#utility.yul\":1474:1510   */\ntag_36:\n  pop\n    /* \"#utility.yul\":1529:1592   */\n  tag_37\n    /* \"#utility.yul\":1584:1591   */\n  dup6\n    /* \"#utility.yul\":1573:1581   */\n  dup3\n    /* \"#utility.yul\":1562:1571   */\n  dup7\n    /* \"#utility.yul\":1558:1582   */\n  add\n    /* \"#utility.yul\":1529:1592   */\n  tag_14\n  jump\t// in\ntag_37:\n    /* \"#utility.yul\":1519:1592   */\n  swap2\n  pop\n  pop\n    /* \"#utility.yul\":1036:1598   */\n  swap3\n  pop\n  swap3\n  swap1\n  pop\n  jump\t// out\n    /* \"#utility.yul\":1603:1983   */\ntag_15:\n    /* \"#utility.yul\":1682:1683   */\n  0x01\n    /* \"#utility.yul\":1678:1690   */\n  dup2\n  dup2\n  shr\n  swap1\n    /* \"#utility.yul\":1725:1737   */\n  dup3\n  and\n  dup1\n    /* \"#utility.yul\":1746:1807   */\n  tag_39\n  jumpi\n    /* \"#utility.yul\":1800:1804   */\n  0x7f\n    /* \"#utility.yul\":1792:1798   */\n  dup3\n    /* \"#utility.yul\":1788:1805   */\n  and\n    /* \"#utility.yul\":1778:1805   */\n  swap2\n  pop\n    /* \"#utility.yul\":1746:1807   */\ntag_39:\n    /* \"#utility.yul\":1853:1855   */\n  0x20\n    /* \"#utility.yul\":1845:1851   */\n  dup3\n    /* \"#utility.yul\":1842:1856   */\n  lt\n    /* \"#utility.yul\":1822:1840   */\n  dup2\n    /* \"#utility.yul\":1819:1857   */\n  sub\n    /* \"#utility.yul\":1816:1977   */\n  tag_40\n  jumpi\n    /* \"#utility.yul\":1899:1909   */\n  0x4e487b71\n    /* \"#utility.yul\":1894:1897   */\n  0xe0\n    /* \"#utility.yul\":1890:1910   */\n  shl\n    /* \"#utility.yul\":1887:1888   */\n  0x00\n    /* \"#utility.yul\":1880:1911   */\n  mstore\n    /* \"#utility.yul\":1934:1938   */\n  0x22\n    /* \"#utility.yul\":1931:1932   */\n  0x04\n    /* \"#utility.yul\":1924:1939   */\n  mstore\n    /* \"#utility.yul\":1962:1966   */\n  0x24\n    /* \"#utility.yul\":1959:1960   */\n  0x00\n    /* \"#utility.yul\":1952:1967   */\n  revert\n    /* \"#utility.yul\":1816:1977   */\ntag_40:\n  pop\n    /* \"#utility.yul\":1603:1983   */\n  swap2\n  swap1\n  pop\n  jump\t// out\n    /* \"#utility.yul\":2114:2659   */\ntag_17:\n    /* \"#utility.yul\":2216:2218   */\n  0x1f\n    /* \"#utility.yul\":2211:2214   */\n  dup3\n    /* \"#utility.yul\":2208:2219   */\n  gt\n    /* \"#utility.yul\":2205:2653   */\n  iszero\n  tag_43\n  jumpi\n    /* \"#utility.yul\":2252:2253   */\n  0x00\n    /* \"#utility.yul\":2277:2282   */\n  dup2\n    /* \"#utility.yul\":2273:2275   */\n  dup2\n    /* \"#utility.yul\":2266:2283   */\n  mstore\n    /* \"#utility.yul\":2322:2326   */\n  0x20\n    /* \"#utility.yul\":2318:2320   */\n  dup2\n    /* \"#utility.yul\":2308:2327   */\n  keccak256\n    /* \"#utility.yul\":2392:2394   */\n  0x1f\n    /* \"#utility.yul\":2380:2390   */\n  dup6\n    /* \"#utility.yul\":2376:2395   */\n  add\n    /* \"#utility.yul\":2373:2374   */\n  0x05\n    /* \"#utility.yul\":2369:2396   */\n  shr\n    /* \"#utility.yul\":2363:2367   */\n  dup2\n    /* \"#utility.yul\":2359:2397   */\n  add\n    /* \"#utility.yul\":2428:2432   */\n  0x20\n    /* \"#utility.yul\":2416:2426   */\n  dup7\n    /* \"#utility.yul\":2413:2433   */\n  lt\n    /* \"#utility.yul\":2410:2457   */\n  iszero\n  tag_44\n  jumpi\n  pop\n    /* \"#utility.yul\":2451:2455   */\n  dup1\n    /* \"#utility.yul\":2410:2457   */\ntag_44:\n    /* \"#utility.yul\":2506:2508   */\n  0x1f\n    /* \"#utility.yul\":2501:2504   */\n  dup6\n    /* \"#utility.yul\":2497:2509   */\n  add\n    /* \"#utility.yul\":2494:2495   */\n  0x05\n    /* \"#utility.yul\":2490:2510   */\n  shr\n    /* \"#utility.yul\":2484:2488   */\n  dup3\n    /* \"#utility.yul\":2480:2511   */\n  add\n    /* \"#utility.yul\":2470:2511   */\n  swap2\n  pop\n    /* \"#utility.yul\":2561:2643   */\ntag_45:\n    /* \"#utility.yul\":2579:2581   */\n  dup2\n    /* \"#utility.yul\":2572:2577   */\n  dup2\n    /* \"#utility.yul\":2569:2582   */\n  lt\n    /* \"#utility.yul\":2561:2643   */\n  iszero\n  tag_47\n  jumpi\n    /* \"#utility.yul\":2624:2641   */\n  dup3\n  dup2\n  sstore\n    /* \"#utility.yul\":2605:2606   */\n  0x01\n    /* \"#utility.yul\":2594:2607   */\n  add\n    /* \"#utility.yul\":2561:2643   */\n  jump(tag_45)\ntag_47:\n    /* \"#utility.yul\":2565:2568   */\n  pop\n  pop\n  pop\n    /* \"#utility.yul\":2205:2653   */\ntag_43:\n    /* \"#utility.yul\":2114:2659   */\n  pop\n  pop\n  pop\n  jump\t// out\n    /* \"#utility.yul\":2835:4187   */\ntag_7:\n    /* \"#utility.yul\":2955:2965   */\n  dup2\n  mload\n  sub(shl(0x40, 0x01), 0x01)\n    /* \"#utility.yul\":2977:3007   */\n  dup2\n  gt\n    /* \"#utility.yul\":2974:3030   */\n  iszero\n  tag_51\n  jumpi\n    /* \"#utility.yul\":3010:3028   */\n  tag_51\n  tag_13\n  jump\t// in\ntag_51:\n    /* \"#utility.yul\":3039:3136   */\n  tag_52\n    /* \"#utility.yul\":3129:3135   */\n  dup2\n    /* \"#utility.yul\":3089:3127   */\n  tag_53\n    /* \"#utility.yul\":3121:3125   */\n  dup5\n    /* \"#utility.yul\":3115:3126   */\n  sload\n    /* \"#utility.yul\":3089:3127   */\n  tag_15\n  jump\t// in\ntag_53:\n    /* \"#utility.yul\":3083:3087   */\n  dup5\n    /* \"#utility.yul\":3039:3136   */\n  tag_17\n  jump\t// in\ntag_52:\n    /* \"#utility.yul\":3191:3195   */\n  0x20\n  dup1\n    /* \"#utility.yul\":3255:3257   */\n  0x1f\n    /* \"#utility.yul\":3244:3258   */\n  dup4\n  gt\n    /* \"#utility.yul\":3272:3273   */\n  0x01\n    /* \"#utility.yul\":3267:3930   */\n  dup2\n  eq\n  tag_55\n  jumpi\n    /* \"#utility.yul\":3974:3975   */\n  0x00\n    /* \"#utility.yul\":3991:3997   */\n  dup5\n    /* \"#utility.yul\":3988:4077   */\n  iszero\n  tag_56\n  jumpi\n  pop\n    /* \"#utility.yul\":4043:4062   */\n  dup6\n  dup4\n  add\n    /* \"#utility.yul\":4037:4063   */\n  mload\n    /* \"#utility.yul\":3988:4077   */\ntag_56:\n  not(0x00)\n    /* \"#utility.yul\":2792:2793   */\n  0x03\n    /* \"#utility.yul\":2788:2799   */\n  dup7\n  swap1\n  shl\n    /* \"#utility.yul\":2784:2808   */\n  shr\n    /* \"#utility.yul\":2780:2809   */\n  not\n    /* \"#utility.yul\":2770:2810   */\n  and\n    /* \"#utility.yul\":2816:2817   */\n  0x01\n    /* \"#utility.yul\":2812:2823   */\n  dup6\n  swap1\n  shl\n    /* \"#utility.yul\":2767:2824   */\n  or\n    /* \"#utility.yul\":4090:4171   */\n  dup6\n  sstore\n    /* \"#utility.yul\":3237:4181   */\n  jump(tag_47)\n    /* \"#utility.yul\":3267:3930   */\ntag_55:\n    /* \"#utility.yul\":2061:2062   */\n  0x00\n    /* \"#utility.yul\":2054:2068   */\n  dup6\n  dup2\n  mstore\n    /* \"#utility.yul\":2098:2102   */\n  0x20\n    /* \"#utility.yul\":2085:2103   */\n  dup2\n  keccak256\n  not(0x1f)\n    /* \"#utility.yul\":3303:3323   */\n  dup7\n  and\n  swap2\n    /* \"#utility.yul\":3421:3657   */\ntag_59:\n    /* \"#utility.yul\":3435:3442   */\n  dup3\n    /* \"#utility.yul\":3432:3433   */\n  dup2\n    /* \"#utility.yul\":3429:3443   */\n  lt\n    /* \"#utility.yul\":3421:3657   */\n  iszero\n  tag_61\n  jumpi\n    /* \"#utility.yul\":3524:3543   */\n  dup9\n  dup7\n  add\n    /* \"#utility.yul\":3518:3544   */\n  mload\n    /* \"#utility.yul\":3503:3545   */\n  dup3\n  sstore\n    /* \"#utility.yul\":3616:3643   */\n  swap5\n  dup5\n  add\n  swap5\n    /* \"#utility.yul\":3584:3585   */\n  0x01\n    /* \"#utility.yul\":3572:3586   */\n  swap1\n  swap2\n  add\n  swap1\n    /* \"#utility.yul\":3451:3470   */\n  dup5\n  add\n    /* \"#utility.yul\":3421:3657   */\n  jump(tag_59)\ntag_61:\n    /* \"#utility.yul\":3425:3428   */\n  pop\n    /* \"#utility.yul\":3685:3691   */\n  dup6\n    /* \"#utility.yul\":3676:3683   */\n  dup3\n    /* \"#utility.yul\":3673:3692   */\n  lt\n    /* \"#utility.yul\":3670:3871   */\n  iszero\n  tag_62\n  jumpi\n    /* \"#utility.yul\":3746:3765   */\n  dup8\n  dup6\n  add\n    /* \"#utility.yul\":3740:3766   */\n  mload\n  not(0x00)\n    /* \"#utility.yul\":3829:3830   */\n  0x03\n    /* \"#utility.yul\":3825:3839   */\n  dup9\n  swap1\n  shl\n    /* \"#utility.yul\":3841:3844   */\n  0xf8\n    /* \"#utility.yul\":3821:3845   */\n  and\n    /* \"#utility.yul\":3817:3854   */\n  shr\n    /* \"#utility.yul\":3813:3855   */\n  not\n    /* \"#utility.yul\":3798:3856   */\n  and\n    /* \"#utility.yul\":3783:3857   */\n  dup2\n  sstore\n    /* \"#utility.yul\":3670:3871   */\ntag_62:\n  pop\n  pop\n  pop\n  pop\n  pop\n    /* \"#utility.yul\":3917:3918   */\n  0x01\n    /* \"#utility.yul\":3901:3915   */\n  swap1\n  dup2\n  shl\n    /* \"#utility.yul\":3897:3919   */\n  add\n    /* \"#utility.yul\":3884:3920   */\n  swap1\n  sstore\n  pop\n    /* \"#utility.yul\":2835:4187   */\n  jump\t// out\ntag_19:\n    /* \"erc721a/contracts/ERC721A.sol\":885:35000  contract ERC721A is IERC721A {... */\n  dataSize(sub_0)\n  dup1\n  dataOffset(sub_0)\n  0x00\n  codecopy\n  0x00\n  return\nstop\n\nsub_0: assembly {\n        /* \"erc721a/contracts/ERC721A.sol\":885:35000  contract ERC721A is IERC721A {... */\n      mstore(0x40, 0x80)\n      callvalue\n      dup1\n      iszero\n      tag_1\n      jumpi\n      0x00\n      dup1\n      revert\n    tag_1:\n      pop\n      jumpi(tag_2, lt(calldatasize, 0x04))\n      shr(0xe0, calldataload(0x00))\n      dup1\n      0x6352211e\n      gt\n      tag_17\n      jumpi\n      dup1\n      0xa22cb465\n      gt\n      tag_18\n      jumpi\n      dup1\n      0xa22cb465\n      eq\n      tag_13\n      jumpi\n      dup1\n      0xb88d4fde\n      eq\n      tag_14\n      jumpi\n      dup1\n      0xc87b56dd\n      eq\n      tag_15\n      jumpi\n      dup1\n      0xe985e9c5\n      eq\n      tag_16\n      jumpi\n      0x00\n      dup1\n      revert\n    tag_18:\n      dup1\n      0x6352211e\n      eq\n      tag_10\n      jumpi\n      dup1\n      0x70a08231\n      eq\n      tag_11\n      jumpi\n      dup1\n      0x95d89b41\n      eq\n      tag_12\n      jumpi\n      0x00\n      dup1\n      revert\n    tag_17:\n      dup1\n      0x095ea7b3\n      gt\n      tag_19\n      jumpi\n      dup1\n      0x095ea7b3\n      eq\n      tag_6\n      jumpi\n      dup1\n      0x18160ddd\n      eq\n      tag_7\n      jumpi\n      dup1\n      0x23b872dd\n      eq\n      tag_8\n      jumpi\n      dup1\n      0x42842e0e\n      eq\n      tag_9\n      jumpi\n      0x00\n      dup1\n      revert\n    tag_19:\n      dup1\n      0x01ffc9a7\n      eq\n      tag_3\n      jumpi\n      dup1\n      0x06fdde03\n      eq\n      tag_4\n      jumpi\n      dup1\n      0x081812fc\n      eq\n      tag_5\n      jumpi\n    tag_2:\n      0x00\n      dup1\n      revert\n        /* \"erc721a/contracts/ERC721A.sol\":5653:6260  function supportsInterface(bytes4 interfaceId) public view virtual override returns (bool) {... */\n    tag_3:\n      tag_20\n      tag_21\n      calldatasize\n      0x04\n      tag_22\n      jump\t// in\n    tag_21:\n      tag_23\n      jump\t// in\n    tag_20:\n      mload(0x40)\n        /* \"#utility.yul\":565:579   */\n      swap1\n      iszero\n        /* \"#utility.yul\":558:580   */\n      iszero\n        /* \"#utility.yul\":540:581   */\n      dup2\n      mstore\n        /* \"#utility.yul\":528:530   */\n      0x20\n        /* \"#utility.yul\":513:531   */\n      add\n        /* \"erc721a/contracts/ERC721A.sol\":5653:6260  function supportsInterface(bytes4 interfaceId) public view virtual override returns (bool) {... */\n    tag_24:\n      mload(0x40)\n      dup1\n      swap2\n      sub\n      swap1\n      return\n        /* \"erc721a/contracts/ERC721A.sol\":11161:11259  function name() public view virtual override returns (string memory) {... */\n    tag_4:\n      tag_26\n      tag_27\n      jump\t// in\n    tag_26:\n      mload(0x40)\n      tag_24\n      swap2\n      swap1\n      tag_29\n      jump\t// in\n        /* \"erc721a/contracts/ERC721A.sol\":13048:13248  function getApproved(uint256 tokenId) public view override returns (address) {... */\n    tag_5:\n      tag_30\n      tag_31\n      calldatasize\n      0x04\n      tag_32\n      jump\t// in\n    tag_31:\n      tag_33\n      jump\t// in\n    tag_30:\n      mload(0x40)\n      sub(shl(0xa0, 0x01), 0x01)\n        /* \"#utility.yul\":1692:1724   */\n      swap1\n      swap2\n      and\n        /* \"#utility.yul\":1674:1725   */\n      dup2\n      mstore\n        /* \"#utility.yul\":1662:1664   */\n      0x20\n        /* \"#utility.yul\":1647:1665   */\n      add\n        /* \"erc721a/contracts/ERC721A.sol\":13048:13248  function getApproved(uint256 tokenId) public view override returns (address) {... */\n      tag_24\n        /* \"#utility.yul\":1528:1731   */\n      jump\n        /* \"erc721a/contracts/ERC721A.sol\":12611:12987  function approve(address to, uint256 tokenId) public override {... */\n    tag_6:\n      tag_36\n      tag_37\n      calldatasize\n      0x04\n      tag_38\n      jump\t// in\n    tag_37:\n      tag_39\n      jump\t// in\n    tag_36:\n      stop\n        /* \"erc721a/contracts/ERC721A.sol\":4736:5045  function totalSupply() public view override returns (uint256) {... */\n    tag_7:\n        /* \"erc721a/contracts/ERC721A.sol\":4998:5010  _burnCounter */\n      sload(0x01)\n        /* \"erc721a/contracts/ERC721A.sol\":4789:4796  uint256 */\n      0x00\n        /* \"erc721a/contracts/ERC721A.sol\":4982:4995  _currentIndex */\n      sload\n        /* \"erc721a/contracts/ERC721A.sol\":4982:5010  _currentIndex - _burnCounter */\n      sub\n        /* \"erc721a/contracts/ERC721A.sol\":4736:5045  function totalSupply() public view override returns (uint256) {... */\n    tag_40:\n      mload(0x40)\n        /* \"#utility.yul\":2319:2344   */\n      swap1\n      dup2\n      mstore\n        /* \"#utility.yul\":2307:2309   */\n      0x20\n        /* \"#utility.yul\":2292:2310   */\n      add\n        /* \"erc721a/contracts/ERC721A.sol\":4736:5045  function totalSupply() public view override returns (uint256) {... */\n      tag_24\n        /* \"#utility.yul\":2173:2350   */\n      jump\n        /* \"erc721a/contracts/ERC721A.sol\":22055:24794  function transferFrom(... */\n    tag_8:\n      tag_36\n      tag_45\n      calldatasize\n      0x04\n      tag_46\n      jump\t// in\n    tag_45:\n      tag_47\n      jump\t// in\n        /* \"erc721a/contracts/ERC721A.sol\":13912:14091  function safeTransferFrom(... */\n    tag_9:\n      tag_36\n      tag_49\n      calldatasize\n      0x04\n      tag_46\n      jump\t// in\n    tag_49:\n      tag_50\n      jump\t// in\n        /* \"erc721a/contracts/ERC721A.sol\":10957:11099  function ownerOf(uint256 tokenId) public view override returns (address) {... */\n    tag_10:\n      tag_30\n      tag_52\n      calldatasize\n      0x04\n      tag_32\n      jump\t// in\n    tag_52:\n      tag_53\n      jump\t// in\n        /* \"erc721a/contracts/ERC721A.sol\":6319:6540  function balanceOf(address owner) public view override returns (uint256) {... */\n    tag_11:\n      tag_40\n      tag_56\n      calldatasize\n      0x04\n      tag_57\n      jump\t// in\n    tag_56:\n      tag_58\n      jump\t// in\n        /* \"erc721a/contracts/ERC721A.sol\":11323:11425  function symbol() public view virtual override returns (string memory) {... */\n    tag_12:\n      tag_26\n      tag_61\n      jump\t// in\n        /* \"erc721a/contracts/ERC721A.sol\":13315:13618  function setApprovalForAll(address operator, bool approved) public virtual override {... */\n    tag_13:\n      tag_36\n      tag_64\n      calldatasize\n      0x04\n      tag_65\n      jump\t// in\n    tag_64:\n      tag_66\n      jump\t// in\n        /* \"erc721a/contracts/ERC721A.sol\":14157:14545  function safeTransferFrom(... */\n    tag_14:\n      tag_36\n      tag_68\n      calldatasize\n      0x04\n      tag_69\n      jump\t// in\n    tag_68:\n      tag_70\n      jump\t// in\n        /* \"erc721a/contracts/ERC721A.sol\":11491:11804  function tokenURI(uint256 tokenId) public view virtual override returns (string memory) {... */\n    tag_15:\n      tag_26\n      tag_72\n      calldatasize\n      0x04\n      tag_32\n      jump\t// in\n    tag_72:\n      tag_73\n      jump\t// in\n        /* \"erc721a/contracts/ERC721A.sol\":13684:13846  function isApprovedForAll(address owner, address operator) public view virtual override returns (bool) {... */\n    tag_16:\n      tag_20\n      tag_76\n      calldatasize\n      0x04\n      tag_77\n      jump\t// in\n    tag_76:\n      sub(shl(0xa0, 0x01), 0x01)\n        /* \"erc721a/contracts/ERC721A.sol\":13804:13829  _operatorApprovals[owner] */\n      swap2\n      dup3\n      and\n        /* \"erc721a/contracts/ERC721A.sol\":13781:13785  bool */\n      0x00\n        /* \"erc721a/contracts/ERC721A.sol\":13804:13829  _operatorApprovals[owner] */\n      swap1\n      dup2\n      mstore\n        /* \"erc721a/contracts/ERC721A.sol\":13804:13822  _operatorApprovals */\n      0x07\n        /* \"erc721a/contracts/ERC721A.sol\":13804:13829  _operatorApprovals[owner] */\n      0x20\n      swap1\n      dup2\n      mstore\n      0x40\n      dup1\n      dup4\n      keccak256\n        /* \"erc721a/contracts/ERC721A.sol\":13804:13839  _operatorApprovals[owner][operator] */\n      swap4\n      swap1\n      swap5\n      and\n      dup3\n      mstore\n      swap2\n      swap1\n      swap2\n      mstore\n      keccak256\n      sload\n      0xff\n      and\n      swap1\n        /* \"erc721a/contracts/ERC721A.sol\":13684:13846  function isApprovedForAll(address owner, address operator) public view virtual override returns (bool) {... */\n      jump\n        /* \"erc721a/contracts/ERC721A.sol\":5653:6260  function supportsInterface(bytes4 interfaceId) public view virtual override returns (bool) {... */\n    tag_23:\n        /* \"erc721a/contracts/ERC721A.sol\":5738:5742  bool */\n      0x00\n      shl(0xe0, 0x01ffc9a7)\n      not(sub(shl(0xe0, 0x01), 0x01))\n        /* \"erc721a/contracts/ERC721A.sol\":6033:6058  interfaceId == 0x01ffc9a7 */\n      dup4\n      and\n      eq\n      dup1\n        /* \"erc721a/contracts/ERC721A.sol\":6033:6134  interfaceId == 0x01ffc9a7 || // ERC165 interface ID for ERC165.... */\n      tag_81\n      jumpi\n      pop\n      shl(0xe0, 0x80ac58cd)\n      not(sub(shl(0xe0, 0x01), 0x01))\n        /* \"erc721a/contracts/ERC721A.sol\":6109:6134  interfaceId == 0x80ac58cd */\n      dup4\n      and\n      eq\n        /* \"erc721a/contracts/ERC721A.sol\":6033:6134  interfaceId == 0x01ffc9a7 || // ERC165 interface ID for ERC165.... */\n    tag_81:\n        /* \"erc721a/contracts/ERC721A.sol\":6033:6210  interfaceId == 0x01ffc9a7 || // ERC165 interface ID for ERC165.... */\n      dup1\n      tag_82\n      jumpi\n      pop\n      shl(0xe0, 0x5b5e139f)\n      not(sub(shl(0xe0, 0x01), 0x01))\n        /* \"erc721a/contracts/ERC721A.sol\":6185:6210  interfaceId == 0x5b5e139f */\n      dup4\n      and\n      eq\n        /* \"erc721a/contracts/ERC721A.sol\":6033:6210  interfaceId == 0x01ffc9a7 || // ERC165 interface ID for ERC165.... */\n    tag_82:\n        /* \"erc721a/contracts/ERC721A.sol\":6014:6210  return... */\n      swap3\n        /* \"erc721a/contracts/ERC721A.sol\":5653:6260  function supportsInterface(bytes4 interfaceId) public view virtual override returns (bool) {... */\n      swap2\n      pop\n      pop\n      jump\t// out\n        /* \"erc721a/contracts/ERC721A.sol\":11161:11259  function name() public view virtual override returns (string memory) {... */\n    tag_27:\n        /* \"erc721a/contracts/ERC721A.sol\":11215:11228  string memory */\n      0x60\n        /* \"erc721a/contracts/ERC721A.sol\":11247:11252  _name */\n      0x02\n        /* \"erc721a/contracts/ERC721A.sol\":11240:11252  return _name */\n      dup1\n      sload\n      tag_84\n      swap1\n      tag_85\n      jump\t// in\n    tag_84:\n      dup1\n      0x1f\n      add\n      0x20\n      dup1\n      swap2\n      div\n      mul\n      0x20\n      add\n      mload(0x40)\n      swap1\n      dup2\n      add\n      0x40\n      mstore\n      dup1\n      swap3\n      swap2\n      swap1\n      dup2\n      dup2\n      mstore\n      0x20\n      add\n      dup3\n      dup1\n      sload\n      tag_86\n      swap1\n      tag_85\n      jump\t// in\n    tag_86:\n      dup1\n      iszero\n      tag_87\n      jumpi\n      dup1\n      0x1f\n      lt\n      tag_88\n      jumpi\n      0x0100\n      dup1\n      dup4\n      sload\n      div\n      mul\n      dup4\n      mstore\n      swap2\n      0x20\n      add\n      swap2\n      jump(tag_87)\n    tag_88:\n      dup3\n      add\n      swap2\n      swap1\n      0x00\n      mstore\n      keccak256(0x00, 0x20)\n      swap1\n    tag_89:\n      dup2\n      sload\n      dup2\n      mstore\n      swap1\n      0x01\n      add\n      swap1\n      0x20\n      add\n      dup1\n      dup4\n      gt\n      tag_89\n      jumpi\n      dup3\n      swap1\n      sub\n      0x1f\n      and\n      dup3\n      add\n      swap2\n    tag_87:\n      pop\n      pop\n      pop\n      pop\n      pop\n      swap1\n      pop\n        /* \"erc721a/contracts/ERC721A.sol\":11161:11259  function name() public view virtual override returns (string memory) {... */\n      swap1\n      jump\t// out\n        /* \"erc721a/contracts/ERC721A.sol\":13048:13248  function getApproved(uint256 tokenId) public view override returns (address) {... */\n    tag_33:\n        /* \"erc721a/contracts/ERC721A.sol\":13116:13123  address */\n      0x00\n        /* \"erc721a/contracts/ERC721A.sol\":13140:13156  _exists(tokenId) */\n      tag_91\n        /* \"erc721a/contracts/ERC721A.sol\":13148:13155  tokenId */\n      dup3\n        /* \"erc721a/contracts/ERC721A.sol\":13140:13147  _exists */\n      tag_92\n        /* \"erc721a/contracts/ERC721A.sol\":13140:13156  _exists(tokenId) */\n      jump\t// in\n    tag_91:\n        /* \"erc721a/contracts/ERC721A.sol\":13135:13199  if (!_exists(tokenId)) revert ApprovalQueryForNonexistentToken() */\n      tag_93\n      jumpi\n        /* \"erc721a/contracts/ERC721A.sol\":13165:13199  ApprovalQueryForNonexistentToken() */\n      mload(0x40)\n      shl(0xe2, 0x33d1c039)\n      dup2\n      mstore\n      0x04\n      add\n      mload(0x40)\n      dup1\n      swap2\n      sub\n      swap1\n      revert\n        /* \"erc721a/contracts/ERC721A.sol\":13135:13199  if (!_exists(tokenId)) revert ApprovalQueryForNonexistentToken() */\n    tag_93:\n      pop\n        /* \"erc721a/contracts/ERC721A.sol\":13217:13241  _tokenApprovals[tokenId] */\n      0x00\n      swap1\n      dup2\n      mstore\n        /* \"erc721a/contracts/ERC721A.sol\":13217:13232  _tokenApprovals */\n      0x06\n        /* \"erc721a/contracts/ERC721A.sol\":13217:13241  _tokenApprovals[tokenId] */\n      0x20\n      mstore\n      0x40\n      swap1\n      keccak256\n      sload\n      sub(shl(0xa0, 0x01), 0x01)\n      and\n      swap1\n        /* \"erc721a/contracts/ERC721A.sol\":13048:13248  function getApproved(uint256 tokenId) public view override returns (address) {... */\n      jump\t// out\n        /* \"erc721a/contracts/ERC721A.sol\":12611:12987  function approve(address to, uint256 tokenId) public override {... */\n    tag_39:\n        /* \"erc721a/contracts/ERC721A.sol\":12683:12696  address owner */\n      0x00\n        /* \"erc721a/contracts/ERC721A.sol\":12699:12715  ownerOf(tokenId) */\n      tag_95\n        /* \"erc721a/contracts/ERC721A.sol\":12707:12714  tokenId */\n      dup3\n        /* \"erc721a/contracts/ERC721A.sol\":12699:12706  ownerOf */\n      tag_53\n        /* \"erc721a/contracts/ERC721A.sol\":12699:12715  ownerOf(tokenId) */\n      jump\t// in\n    tag_95:\n        /* \"erc721a/contracts/ERC721A.sol\":12683:12715  address owner = ownerOf(tokenId) */\n      swap1\n      pop\n        /* \"erc721a/contracts/ERC721A.sol\":32960:32970  msg.sender */\n      caller\n      sub(shl(0xa0, 0x01), 0x01)\n        /* \"erc721a/contracts/ERC721A.sol\":12730:12758  _msgSenderERC721A() != owner */\n      dup3\n      and\n      eq\n        /* \"erc721a/contracts/ERC721A.sol\":12726:12898  if (_msgSenderERC721A() != owner)... */\n      tag_101\n      jumpi\n        /* \"erc721a/contracts/ERC721A.sol\":12777:12821  isApprovedForAll(owner, _msgSenderERC721A()) */\n      tag_99\n        /* \"erc721a/contracts/ERC721A.sol\":12794:12799  owner */\n      dup2\n        /* \"erc721a/contracts/ERC721A.sol\":32960:32970  msg.sender */\n      caller\n        /* \"erc721a/contracts/ERC721A.sol\":13684:13846  function isApprovedForAll(address owner, address operator) public view virtual override returns (bool) {... */\n      tag_76\n      jump\t// in\n        /* \"erc721a/contracts/ERC721A.sol\":12777:12821  isApprovedForAll(owner, _msgSenderERC721A()) */\n    tag_99:\n        /* \"erc721a/contracts/ERC721A.sol\":12772:12898  if (!isApprovedForAll(owner, _msgSenderERC721A())) {... */\n      tag_101\n      jumpi\n        /* \"erc721a/contracts/ERC721A.sol\":12848:12883  ApprovalCallerNotOwnerNorApproved() */\n      mload(0x40)\n      shl(0xe1, 0x67d9dca1)\n      dup2\n      mstore\n      0x04\n      add\n      mload(0x40)\n      dup1\n      swap2\n      sub\n      swap1\n      revert\n        /* \"erc721a/contracts/ERC721A.sol\":12772:12898  if (!isApprovedForAll(owner, _msgSenderERC721A())) {... */\n    tag_101:\n        /* \"erc721a/contracts/ERC721A.sol\":12908:12932  _tokenApprovals[tokenId] */\n      0x00\n      dup3\n      dup2\n      mstore\n        /* \"erc721a/contracts/ERC721A.sol\":12908:12923  _tokenApprovals */\n      0x06\n        /* \"erc721a/contracts/ERC721A.sol\":12908:12932  _tokenApprovals[tokenId] */\n      0x20\n      mstore\n      0x40\n      dup1\n      dup3\n      keccak256\n        /* \"erc721a/contracts/ERC721A.sol\":12908:12937  _tokenApprovals[tokenId] = to */\n      dup1\n      sload\n      not(sub(shl(0xa0, 0x01), 0x01))\n      and\n      sub(shl(0xa0, 0x01), 0x01)\n      dup8\n      dup2\n      and\n      swap2\n      dup3\n      or\n      swap1\n      swap3\n      sstore\n        /* \"erc721a/contracts/ERC721A.sol\":12952:12980  Approval(owner, to, tokenId) */\n      swap2\n      mload\n        /* \"erc721a/contracts/ERC721A.sol\":12908:12932  _tokenApprovals[tokenId] */\n      dup6\n      swap4\n        /* \"erc721a/contracts/ERC721A.sol\":12952:12980  Approval(owner, to, tokenId) */\n      swap2\n      dup6\n      and\n      swap2\n      0x8c5be1e5ebec7d5bd14f71427d1e84f3dd0314c0f7b2291e5b200ac8c7c3b925\n      swap2\n      log4\n        /* \"erc721a/contracts/ERC721A.sol\":12673:12987  {... */\n      pop\n        /* \"erc721a/contracts/ERC721A.sol\":12611:12987  function approve(address to, uint256 tokenId) public override {... */\n      pop\n      pop\n      jump\t// out\n        /* \"erc721a/contracts/ERC721A.sol\":22055:24794  function transferFrom(... */\n    tag_47:\n        /* \"erc721a/contracts/ERC721A.sol\":22184:22211  uint256 prevOwnershipPacked */\n      0x00\n        /* \"erc721a/contracts/ERC721A.sol\":22214:22241  _packedOwnershipOf(tokenId) */\n      tag_106\n        /* \"erc721a/contracts/ERC721A.sol\":22233:22240  tokenId */\n      dup3\n        /* \"erc721a/contracts/ERC721A.sol\":22214:22232  _packedOwnershipOf */\n      tag_107\n        /* \"erc721a/contracts/ERC721A.sol\":22214:22241  _packedOwnershipOf(tokenId) */\n      jump\t// in\n    tag_106:\n        /* \"erc721a/contracts/ERC721A.sol\":22184:22241  uint256 prevOwnershipPacked = _packedOwnershipOf(tokenId) */\n      swap1\n      pop\n        /* \"erc721a/contracts/ERC721A.sol\":22297:22301  from */\n      dup4\n      sub(shl(0xa0, 0x01), 0x01)\n        /* \"erc721a/contracts/ERC721A.sol\":22256:22301  address(uint160(prevOwnershipPacked)) != from */\n      and\n        /* \"erc721a/contracts/ERC721A.sol\":22272:22291  prevOwnershipPacked */\n      dup2\n      sub(shl(0xa0, 0x01), 0x01)\n        /* \"erc721a/contracts/ERC721A.sol\":22256:22301  address(uint160(prevOwnershipPacked)) != from */\n      and\n      eq\n        /* \"erc721a/contracts/ERC721A.sol\":22252:22338  if (address(uint160(prevOwnershipPacked)) != from) revert TransferFromIncorrectOwner() */\n      tag_108\n      jumpi\n        /* \"erc721a/contracts/ERC721A.sol\":22310:22338  TransferFromIncorrectOwner() */\n      mload(0x40)\n      shl(0xe8, 0xa11481)\n      dup2\n      mstore\n      0x04\n      add\n      mload(0x40)\n      dup1\n      swap2\n      sub\n      swap1\n      revert\n        /* \"erc721a/contracts/ERC721A.sol\":22252:22338  if (address(uint160(prevOwnershipPacked)) != from) revert TransferFromIncorrectOwner() */\n    tag_108:\n        /* \"erc721a/contracts/ERC721A.sol\":22350:22377  uint256 approvedAddressSlot */\n      0x00\n        /* \"erc721a/contracts/ERC721A.sol\":20821:20842  mstore(0x00, tokenId) */\n      dup3\n      dup2\n      mstore\n        /* \"erc721a/contracts/ERC721A.sol\":20652:20667  _tokenApprovals */\n      0x06\n        /* \"erc721a/contracts/ERC721A.sol\":20862:20866  0x20 */\n      0x20\n        /* \"erc721a/contracts/ERC721A.sol\":20855:20891  mstore(0x20, tokenApprovalsPtr.slot) */\n      mstore\n        /* \"erc721a/contracts/ERC721A.sol\":20943:20947  0x40 */\n      0x40\n        /* \"erc721a/contracts/ERC721A.sol\":20927:20948  keccak256(0x00, 0x40) */\n      swap1\n      keccak256\n        /* \"erc721a/contracts/ERC721A.sol\":21031:21057  sload(approvedAddressSlot) */\n      dup1\n      sload\n        /* \"erc721a/contracts/ERC721A.sol\":32960:32970  msg.sender */\n      caller\n        /* \"erc721a/contracts/ERC721A.sol\":21766:21796  eq(msgSender, approvedAddress) */\n      dup1\n      dup3\n      eq\n      sub(shl(0xa0, 0x01), 0x01)\n        /* \"erc721a/contracts/ERC721A.sol\":21468:21494  and(from, BITMASK_ADDRESS) */\n      dup9\n      and\n        /* \"erc721a/contracts/ERC721A.sol\":21745:21764  eq(msgSender, from) */\n      swap1\n      swap2\n      eq\n        /* \"erc721a/contracts/ERC721A.sol\":21742:21797  or(eq(msgSender, from), eq(msgSender, approvedAddress)) */\n      or\n        /* \"erc721a/contracts/ERC721A.sol\":22526:22699  if (!_isOwnerOrApproved(approvedAddress, from, _msgSenderERC721A()))... */\n      tag_117\n      jumpi\n        /* \"erc721a/contracts/ERC721A.sol\":22612:22655  isApprovedForAll(from, _msgSenderERC721A()) */\n      tag_115\n        /* \"erc721a/contracts/ERC721A.sol\":22629:22633  from */\n      dup7\n        /* \"erc721a/contracts/ERC721A.sol\":32960:32970  msg.sender */\n      caller\n        /* \"erc721a/contracts/ERC721A.sol\":13684:13846  function isApprovedForAll(address owner, address operator) public view virtual override returns (bool) {... */\n      tag_76\n      jump\t// in\n        /* \"erc721a/contracts/ERC721A.sol\":22612:22655  isApprovedForAll(from, _msgSenderERC721A()) */\n    tag_115:\n        /* \"erc721a/contracts/ERC721A.sol\":22607:22699  if (!isApprovedForAll(from, _msgSenderERC721A())) revert TransferCallerNotOwnerNorApproved() */\n      tag_117\n      jumpi\n        /* \"erc721a/contracts/ERC721A.sol\":22664:22699  TransferCallerNotOwnerNorApproved() */\n      mload(0x40)\n      shl(0xe1, 0x2ce44b5f)\n      dup2\n      mstore\n      0x04\n      add\n      mload(0x40)\n      dup1\n      swap2\n      sub\n      swap1\n      revert\n        /* \"erc721a/contracts/ERC721A.sol\":22607:22699  if (!isApprovedForAll(from, _msgSenderERC721A())) revert TransferCallerNotOwnerNorApproved() */\n    tag_117:\n      sub(shl(0xa0, 0x01), 0x01)\n        /* \"erc721a/contracts/ERC721A.sol\":22714:22730  to == address(0) */\n      dup6\n      and\n        /* \"erc721a/contracts/ERC721A.sol\":22710:22762  if (to == address(0)) revert TransferToZeroAddress() */\n      tag_118\n      jumpi\n        /* \"erc721a/contracts/ERC721A.sol\":22739:22762  TransferToZeroAddress() */\n      mload(0x40)\n      shl(0xe2, 0x3a954ecd)\n      dup2\n      mstore\n      0x04\n      add\n      mload(0x40)\n      dup1\n      swap2\n      sub\n      swap1\n      revert\n        /* \"erc721a/contracts/ERC721A.sol\":22710:22762  if (to == address(0)) revert TransferToZeroAddress() */\n    tag_118:\n        /* \"erc721a/contracts/ERC721A.sol\":22905:22920  approvedAddress */\n      dup1\n        /* \"erc721a/contracts/ERC721A.sol\":22902:23059  if approvedAddress {... */\n      iszero\n      tag_121\n      jumpi\n        /* \"erc721a/contracts/ERC721A.sol\":23043:23044  0 */\n      0x00\n        /* \"erc721a/contracts/ERC721A.sol\":23022:23041  approvedAddressSlot */\n      dup3\n        /* \"erc721a/contracts/ERC721A.sol\":23015:23045  sstore(approvedAddressSlot, 0) */\n      sstore\n        /* \"erc721a/contracts/ERC721A.sol\":22902:23059  if approvedAddress {... */\n    tag_121:\n      sub(shl(0xa0, 0x01), 0x01)\n        /* \"erc721a/contracts/ERC721A.sol\":23429:23453  _packedAddressData[from] */\n      dup7\n      dup2\n      and\n      0x00\n      swap1\n      dup2\n      mstore\n        /* \"erc721a/contracts/ERC721A.sol\":23429:23447  _packedAddressData */\n      0x05\n        /* \"erc721a/contracts/ERC721A.sol\":23429:23453  _packedAddressData[from] */\n      0x20\n      mstore\n      0x40\n      dup1\n      dup3\n      keccak256\n        /* \"erc721a/contracts/ERC721A.sol\":23427:23453  --_packedAddressData[from] */\n      dup1\n      sload\n      not(0x00)\n      add\n      swap1\n      sstore\n        /* \"erc721a/contracts/ERC721A.sol\":23497:23519  _packedAddressData[to] */\n      swap2\n      dup8\n      and\n      dup1\n      dup3\n      mstore\n      swap2\n      swap1\n      keccak256\n        /* \"erc721a/contracts/ERC721A.sol\":23495:23519  ++_packedAddressData[to] */\n      dup1\n      sload\n      0x01\n      add\n      swap1\n      sstore\n        /* \"erc721a/contracts/ERC721A.sol\":10863:10874  timestamp() */\n      timestamp\n        /* \"erc721a/contracts/ERC721A.sol\":10839:10861  BITPOS_START_TIMESTAMP */\n      0xa0\n        /* \"erc721a/contracts/ERC721A.sol\":10835:10875  shl(BITPOS_START_TIMESTAMP, timestamp()) */\n      shl\n        /* \"erc721a/contracts/ERC721A.sol\":10822:10884  or(owner, or(shl(BITPOS_START_TIMESTAMP, timestamp()), flags)) */\n      or\n      shl(0xe1, 0x01)\n      or\n        /* \"erc721a/contracts/ERC721A.sol\":23783:23809  _packedOwnerships[tokenId] */\n      0x00\n      dup6\n      dup2\n      mstore\n        /* \"erc721a/contracts/ERC721A.sol\":23783:23800  _packedOwnerships */\n      0x04\n        /* \"erc721a/contracts/ERC721A.sol\":23783:23809  _packedOwnerships[tokenId] */\n      0x20\n      mstore\n      0x40\n      dup2\n      keccak256\n        /* \"erc721a/contracts/ERC721A.sol\":23783:23954  _packedOwnerships[tokenId] = _packOwnershipData(... */\n      swap2\n      swap1\n      swap2\n      sstore\n      shl(0xe1, 0x01)\n        /* \"erc721a/contracts/ERC721A.sol\":24071:24117  prevOwnershipPacked & BITMASK_NEXT_INITIALIZED */\n      dup5\n      and\n        /* \"erc721a/contracts/ERC721A.sol\":24071:24122  prevOwnershipPacked & BITMASK_NEXT_INITIALIZED == 0 */\n      swap1\n      sub\n        /* \"erc721a/contracts/ERC721A.sol\":24067:24683  if (prevOwnershipPacked & BITMASK_NEXT_INITIALIZED == 0) {... */\n      tag_126\n      jumpi\n        /* \"erc721a/contracts/ERC721A.sol\":24174:24175  1 */\n      0x01\n        /* \"erc721a/contracts/ERC721A.sol\":24164:24175  tokenId + 1 */\n      dup5\n      add\n        /* \"erc721a/contracts/ERC721A.sol\":24142:24161  uint256 nextTokenId */\n      0x00\n        /* \"erc721a/contracts/ERC721A.sol\":24295:24325  _packedOwnerships[nextTokenId] */\n      dup2\n      dup2\n      mstore\n        /* \"erc721a/contracts/ERC721A.sol\":24295:24312  _packedOwnerships */\n      0x04\n        /* \"erc721a/contracts/ERC721A.sol\":24295:24325  _packedOwnerships[nextTokenId] */\n      0x20\n      mstore\n      0x40\n      dup2\n      keccak256\n      sload\n        /* \"erc721a/contracts/ERC721A.sol\":24295:24330  _packedOwnerships[nextTokenId] == 0 */\n      swap1\n      sub\n        /* \"erc721a/contracts/ERC721A.sol\":24291:24669  if (_packedOwnerships[nextTokenId] == 0) {... */\n      tag_128\n      jumpi\n        /* \"erc721a/contracts/ERC721A.sol\":24431:24444  _currentIndex */\n      sload(0x00)\n        /* \"erc721a/contracts/ERC721A.sol\":24416:24427  nextTokenId */\n      dup2\n        /* \"erc721a/contracts/ERC721A.sol\":24416:24444  nextTokenId != _currentIndex */\n      eq\n        /* \"erc721a/contracts/ERC721A.sol\":24412:24651  if (nextTokenId != _currentIndex) {... */\n      tag_128\n      jumpi\n        /* \"erc721a/contracts/ERC721A.sol\":24576:24606  _packedOwnerships[nextTokenId] */\n      0x00\n      dup2\n      dup2\n      mstore\n        /* \"erc721a/contracts/ERC721A.sol\":24576:24593  _packedOwnerships */\n      0x04\n        /* \"erc721a/contracts/ERC721A.sol\":24576:24606  _packedOwnerships[nextTokenId] */\n      0x20\n      mstore\n      0x40\n      swap1\n      keccak256\n        /* \"erc721a/contracts/ERC721A.sol\":24576:24628  _packedOwnerships[nextTokenId] = prevOwnershipPacked */\n      dup5\n      swap1\n      sstore\n        /* \"erc721a/contracts/ERC721A.sol\":24412:24651  if (nextTokenId != _currentIndex) {... */\n    tag_128:\n        /* \"erc721a/contracts/ERC721A.sol\":24124:24683  {... */\n      pop\n        /* \"erc721a/contracts/ERC721A.sol\":24067:24683  if (prevOwnershipPacked & BITMASK_NEXT_INITIALIZED == 0) {... */\n    tag_126:\n        /* \"erc721a/contracts/ERC721A.sol\":24727:24734  tokenId */\n      dup4\n        /* \"erc721a/contracts/ERC721A.sol\":24723:24725  to */\n      dup6\n      sub(shl(0xa0, 0x01), 0x01)\n        /* \"erc721a/contracts/ERC721A.sol\":24708:24735  Transfer(from, to, tokenId) */\n      and\n        /* \"erc721a/contracts/ERC721A.sol\":24717:24721  from */\n      dup8\n      sub(shl(0xa0, 0x01), 0x01)\n        /* \"erc721a/contracts/ERC721A.sol\":24708:24735  Transfer(from, to, tokenId) */\n      and\n      0xddf252ad1be2c89b69c2b068fc378daa952ba7f163c4a11628f55a4df523b3ef\n      mload(0x40)\n      mload(0x40)\n      dup1\n      swap2\n      sub\n      swap1\n      log4\n        /* \"erc721a/contracts/ERC721A.sol\":22174:24794  {... */\n      pop\n      pop\n      pop\n        /* \"erc721a/contracts/ERC721A.sol\":22055:24794  function transferFrom(... */\n      pop\n      pop\n      pop\n      jump\t// out\n        /* \"erc721a/contracts/ERC721A.sol\":13912:14091  function safeTransferFrom(... */\n    tag_50:\n        /* \"erc721a/contracts/ERC721A.sol\":14045:14084  safeTransferFrom(from, to, tokenId, '') */\n      tag_132\n        /* \"erc721a/contracts/ERC721A.sol\":14062:14066  from */\n      dup4\n        /* \"erc721a/contracts/ERC721A.sol\":14068:14070  to */\n      dup4\n        /* \"erc721a/contracts/ERC721A.sol\":14072:14079  tokenId */\n      dup4\n        /* \"erc721a/contracts/ERC721A.sol\":14045:14084  safeTransferFrom(from, to, tokenId, '') */\n      mload(0x40)\n      dup1\n      0x20\n      add\n      0x40\n      mstore\n      dup1\n      0x00\n      dup2\n      mstore\n      pop\n        /* \"erc721a/contracts/ERC721A.sol\":14045:14061  safeTransferFrom */\n      tag_70\n        /* \"erc721a/contracts/ERC721A.sol\":14045:14084  safeTransferFrom(from, to, tokenId, '') */\n      jump\t// in\n    tag_132:\n        /* \"erc721a/contracts/ERC721A.sol\":13912:14091  function safeTransferFrom(... */\n      pop\n      pop\n      pop\n      jump\t// out\n        /* \"erc721a/contracts/ERC721A.sol\":10957:11099  function ownerOf(uint256 tokenId) public view override returns (address) {... */\n    tag_53:\n        /* \"erc721a/contracts/ERC721A.sol\":11021:11028  address */\n      0x00\n        /* \"erc721a/contracts/ERC721A.sol\":11063:11090  _packedOwnershipOf(tokenId) */\n      tag_82\n        /* \"erc721a/contracts/ERC721A.sol\":11082:11089  tokenId */\n      dup3\n        /* \"erc721a/contracts/ERC721A.sol\":11063:11081  _packedOwnershipOf */\n      tag_107\n        /* \"erc721a/contracts/ERC721A.sol\":11063:11090  _packedOwnershipOf(tokenId) */\n      jump\t// in\n        /* \"erc721a/contracts/ERC721A.sol\":6319:6540  function balanceOf(address owner) public view override returns (uint256) {... */\n    tag_58:\n        /* \"erc721a/contracts/ERC721A.sol\":6383:6390  uint256 */\n      0x00\n      sub(shl(0xa0, 0x01), 0x01)\n        /* \"erc721a/contracts/ERC721A.sol\":6406:6425  owner == address(0) */\n      dup3\n      and\n        /* \"erc721a/contracts/ERC721A.sol\":6402:6462  if (owner == address(0)) revert BalanceQueryForZeroAddress() */\n      tag_136\n      jumpi\n        /* \"erc721a/contracts/ERC721A.sol\":6434:6462  BalanceQueryForZeroAddress() */\n      mload(0x40)\n      shl(0xe2, 0x23d3ad81)\n      dup2\n      mstore\n      0x04\n      add\n      mload(0x40)\n      dup1\n      swap2\n      sub\n      swap1\n      revert\n        /* \"erc721a/contracts/ERC721A.sol\":6402:6462  if (owner == address(0)) revert BalanceQueryForZeroAddress() */\n    tag_136:\n      pop\n      sub(shl(0xa0, 0x01), 0x01)\n        /* \"erc721a/contracts/ERC721A.sol\":6479:6504  _packedAddressData[owner] */\n      and\n      0x00\n      swap1\n      dup2\n      mstore\n        /* \"erc721a/contracts/ERC721A.sol\":6479:6497  _packedAddressData */\n      0x05\n        /* \"erc721a/contracts/ERC721A.sol\":6479:6504  _packedAddressData[owner] */\n      0x20\n      mstore\n      0x40\n      swap1\n      keccak256\n      sload\n        /* \"erc721a/contracts/ERC721A.sol\":1022:1035  (1 << 64) - 1 */\n      0xffffffffffffffff\n        /* \"erc721a/contracts/ERC721A.sol\":6479:6533  _packedAddressData[owner] & BITMASK_ADDRESS_DATA_ENTRY */\n      and\n      swap1\n        /* \"erc721a/contracts/ERC721A.sol\":6319:6540  function balanceOf(address owner) public view override returns (uint256) {... */\n      jump\t// out\n        /* \"erc721a/contracts/ERC721A.sol\":11323:11425  function symbol() public view virtual override returns (string memory) {... */\n    tag_61:\n        /* \"erc721a/contracts/ERC721A.sol\":11379:11392  string memory */\n      0x60\n        /* \"erc721a/contracts/ERC721A.sol\":11411:11418  _symbol */\n      0x03\n        /* \"erc721a/contracts/ERC721A.sol\":11404:11418  return _symbol */\n      dup1\n      sload\n      tag_84\n      swap1\n      tag_85\n      jump\t// in\n        /* \"erc721a/contracts/ERC721A.sol\":13315:13618  function setApprovalForAll(address operator, bool approved) public virtual override {... */\n    tag_66:\n        /* \"erc721a/contracts/ERC721A.sol\":32960:32970  msg.sender */\n      caller\n      sub(shl(0xa0, 0x01), 0x01)\n        /* \"erc721a/contracts/ERC721A.sol\":13413:13444  operator == _msgSenderERC721A() */\n      dup4\n      and\n      sub\n        /* \"erc721a/contracts/ERC721A.sol\":13409:13470  if (operator == _msgSenderERC721A()) revert ApproveToCaller() */\n      tag_145\n      jumpi\n        /* \"erc721a/contracts/ERC721A.sol\":13453:13470  ApproveToCaller() */\n      mload(0x40)\n      shl(0xe0, 0xb06307db)\n      dup2\n      mstore\n      0x04\n      add\n      mload(0x40)\n      dup1\n      swap2\n      sub\n      swap1\n      revert\n        /* \"erc721a/contracts/ERC721A.sol\":13409:13470  if (operator == _msgSenderERC721A()) revert ApproveToCaller() */\n    tag_145:\n        /* \"erc721a/contracts/ERC721A.sol\":32960:32970  msg.sender */\n      caller\n        /* \"erc721a/contracts/ERC721A.sol\":13481:13520  _operatorApprovals[_msgSenderERC721A()] */\n      0x00\n      dup2\n      dup2\n      mstore\n        /* \"erc721a/contracts/ERC721A.sol\":13481:13499  _operatorApprovals */\n      0x07\n        /* \"erc721a/contracts/ERC721A.sol\":13481:13520  _operatorApprovals[_msgSenderERC721A()] */\n      0x20\n      swap1\n      dup2\n      mstore\n      0x40\n      dup1\n      dup4\n      keccak256\n      sub(shl(0xa0, 0x01), 0x01)\n        /* \"erc721a/contracts/ERC721A.sol\":13481:13530  _operatorApprovals[_msgSenderERC721A()][operator] */\n      dup8\n      and\n      dup1\n      dup6\n      mstore\n      swap1\n      dup4\n      mstore\n      swap3\n      dup2\n      swap1\n      keccak256\n        /* \"erc721a/contracts/ERC721A.sol\":13481:13541  _operatorApprovals[_msgSenderERC721A()][operator] = approved */\n      dup1\n      sload\n      not(0xff)\n      and\n      dup7\n      iszero\n      iszero\n      swap1\n      dup2\n      or\n      swap1\n      swap2\n      sstore\n        /* \"erc721a/contracts/ERC721A.sol\":13556:13611  ApprovalForAll(_msgSenderERC721A(), operator, approved) */\n      swap1\n      mload\n        /* \"#utility.yul\":540:581   */\n      swap1\n      dup2\n      mstore\n        /* \"erc721a/contracts/ERC721A.sol\":13481:13530  _operatorApprovals[_msgSenderERC721A()][operator] */\n      swap2\n      swap3\n        /* \"erc721a/contracts/ERC721A.sol\":32960:32970  msg.sender */\n      swap2\n        /* \"erc721a/contracts/ERC721A.sol\":13556:13611  ApprovalForAll(_msgSenderERC721A(), operator, approved) */\n      0x17307eab39ab6107e8899845ad3d59bd9653f200f220920489ca2b5937696c31\n      swap2\n        /* \"#utility.yul\":513:531   */\n      add\n        /* \"erc721a/contracts/ERC721A.sol\":13556:13611  ApprovalForAll(_msgSenderERC721A(), operator, approved) */\n      mload(0x40)\n      dup1\n      swap2\n      sub\n      swap1\n      log3\n        /* \"erc721a/contracts/ERC721A.sol\":13315:13618  function setApprovalForAll(address operator, bool approved) public virtual override {... */\n      pop\n      pop\n      jump\t// out\n        /* \"erc721a/contracts/ERC721A.sol\":14157:14545  function safeTransferFrom(... */\n    tag_70:\n        /* \"erc721a/contracts/ERC721A.sol\":14318:14349  transferFrom(from, to, tokenId) */\n      tag_150\n        /* \"erc721a/contracts/ERC721A.sol\":14331:14335  from */\n      dup5\n        /* \"erc721a/contracts/ERC721A.sol\":14337:14339  to */\n      dup5\n        /* \"erc721a/contracts/ERC721A.sol\":14341:14348  tokenId */\n      dup5\n        /* \"erc721a/contracts/ERC721A.sol\":14318:14330  transferFrom */\n      tag_47\n        /* \"erc721a/contracts/ERC721A.sol\":14318:14349  transferFrom(from, to, tokenId) */\n      jump\t// in\n    tag_150:\n      sub(shl(0xa0, 0x01), 0x01)\n        /* \"erc721a/contracts/ERC721A.sol\":14363:14377  to.code.length */\n      dup4\n      and\n      extcodesize\n        /* \"erc721a/contracts/ERC721A.sol\":14363:14382  to.code.length != 0 */\n      iszero\n        /* \"erc721a/contracts/ERC721A.sol\":14359:14539  if (to.code.length != 0)... */\n      tag_154\n      jumpi\n        /* \"erc721a/contracts/ERC721A.sol\":14401:14457  _checkContractOnERC721Received(from, to, tokenId, _data) */\n      tag_152\n        /* \"erc721a/contracts/ERC721A.sol\":14432:14436  from */\n      dup5\n        /* \"erc721a/contracts/ERC721A.sol\":14438:14440  to */\n      dup5\n        /* \"erc721a/contracts/ERC721A.sol\":14442:14449  tokenId */\n      dup5\n        /* \"erc721a/contracts/ERC721A.sol\":14451:14456  _data */\n      dup5\n        /* \"erc721a/contracts/ERC721A.sol\":14401:14431  _checkContractOnERC721Received */\n      tag_153\n        /* \"erc721a/contracts/ERC721A.sol\":14401:14457  _checkContractOnERC721Received(from, to, tokenId, _data) */\n      jump\t// in\n    tag_152:\n        /* \"erc721a/contracts/ERC721A.sol\":14396:14539  if (!_checkContractOnERC721Received(from, to, tokenId, _data)) {... */\n      tag_154\n      jumpi\n        /* \"erc721a/contracts/ERC721A.sol\":14484:14524  TransferToNonERC721ReceiverImplementer() */\n      mload(0x40)\n      shl(0xe1, 0x68d2bf6b)\n      dup2\n      mstore\n      0x04\n      add\n      mload(0x40)\n      dup1\n      swap2\n      sub\n      swap1\n      revert\n        /* \"erc721a/contracts/ERC721A.sol\":14396:14539  if (!_checkContractOnERC721Received(from, to, tokenId, _data)) {... */\n    tag_154:\n        /* \"erc721a/contracts/ERC721A.sol\":14157:14545  function safeTransferFrom(... */\n      pop\n      pop\n      pop\n      pop\n      jump\t// out\n        /* \"erc721a/contracts/ERC721A.sol\":11491:11804  function tokenURI(uint256 tokenId) public view virtual override returns (string memory) {... */\n    tag_73:\n        /* \"erc721a/contracts/ERC721A.sol\":11564:11577  string memory */\n      0x60\n        /* \"erc721a/contracts/ERC721A.sol\":11594:11610  _exists(tokenId) */\n      tag_156\n        /* \"erc721a/contracts/ERC721A.sol\":11602:11609  tokenId */\n      dup3\n        /* \"erc721a/contracts/ERC721A.sol\":11594:11601  _exists */\n      tag_92\n        /* \"erc721a/contracts/ERC721A.sol\":11594:11610  _exists(tokenId) */\n      jump\t// in\n    tag_156:\n        /* \"erc721a/contracts/ERC721A.sol\":11589:11648  if (!_exists(tokenId)) revert URIQueryForNonexistentToken() */\n      tag_157\n      jumpi\n        /* \"erc721a/contracts/ERC721A.sol\":11619:11648  URIQueryForNonexistentToken() */\n      mload(0x40)\n      shl(0xe4, 0x0a14c4b5)\n      dup2\n      mstore\n      0x04\n      add\n      mload(0x40)\n      dup1\n      swap2\n      sub\n      swap1\n      revert\n        /* \"erc721a/contracts/ERC721A.sol\":11589:11648  if (!_exists(tokenId)) revert URIQueryForNonexistentToken() */\n    tag_157:\n        /* \"erc721a/contracts/ERC721A.sol\":11659:11680  string memory baseURI */\n      0x00\n        /* \"erc721a/contracts/ERC721A.sol\":11683:11693  _baseURI() */\n      tag_158\n        /* \"erc721a/contracts/ERC721A.sol\":12125:12134  return '' */\n      0x40\n      dup1\n      mload\n      0x20\n      dup2\n      add\n      swap1\n      swap2\n      mstore\n      0x00\n      dup2\n      mstore\n      swap1\n        /* \"erc721a/contracts/ERC721A.sol\":12049:12141  function _baseURI() internal view virtual returns (string memory) {... */\n      jump\n        /* \"erc721a/contracts/ERC721A.sol\":11683:11693  _baseURI() */\n    tag_158:\n        /* \"erc721a/contracts/ERC721A.sol\":11659:11693  string memory baseURI = _baseURI() */\n      swap1\n      pop\n        /* \"erc721a/contracts/ERC721A.sol\":11716:11723  baseURI */\n      dup1\n        /* \"erc721a/contracts/ERC721A.sol\":11710:11731  bytes(baseURI).length */\n      mload\n        /* \"erc721a/contracts/ERC721A.sol\":11735:11736  0 */\n      0x00\n        /* \"erc721a/contracts/ERC721A.sol\":11710:11736  bytes(baseURI).length != 0 */\n      sub\n        /* \"erc721a/contracts/ERC721A.sol\":11710:11797  bytes(baseURI).length != 0 ? string(abi.encodePacked(baseURI, _toString(tokenId))) : '' */\n      tag_160\n      jumpi\n      mload(0x40)\n      dup1\n      0x20\n      add\n      0x40\n      mstore\n      dup1\n      0x00\n      dup2\n      mstore\n      pop\n      jump(tag_161)\n    tag_160:\n        /* \"erc721a/contracts/ERC721A.sol\":11763:11770  baseURI */\n      dup1\n        /* \"erc721a/contracts/ERC721A.sol\":11772:11790  _toString(tokenId) */\n      tag_162\n        /* \"erc721a/contracts/ERC721A.sol\":11782:11789  tokenId */\n      dup5\n        /* \"erc721a/contracts/ERC721A.sol\":11772:11781  _toString */\n      tag_163\n        /* \"erc721a/contracts/ERC721A.sol\":11772:11790  _toString(tokenId) */\n      jump\t// in\n    tag_162:\n        /* \"erc721a/contracts/ERC721A.sol\":11746:11791  abi.encodePacked(baseURI, _toString(tokenId)) */\n      add(0x20, mload(0x40))\n      tag_164\n      swap3\n      swap2\n      swap1\n      tag_165\n      jump\t// in\n    tag_164:\n      mload(0x40)\n      0x20\n      dup2\n      dup4\n      sub\n      sub\n      dup2\n      mstore\n      swap1\n      0x40\n      mstore\n        /* \"erc721a/contracts/ERC721A.sol\":11710:11797  bytes(baseURI).length != 0 ? string(abi.encodePacked(baseURI, _toString(tokenId))) : '' */\n    tag_161:\n        /* \"erc721a/contracts/ERC721A.sol\":11703:11797  return bytes(baseURI).length != 0 ? string(abi.encodePacked(baseURI, _toString(tokenId))) : '' */\n      swap4\n        /* \"erc721a/contracts/ERC721A.sol\":11491:11804  function tokenURI(uint256 tokenId) public view virtual override returns (string memory) {... */\n      swap3\n      pop\n      pop\n      pop\n      jump\t// out\n        /* \"erc721a/contracts/ERC721A.sol\":14791:15059  function _exists(uint256 tokenId) internal view returns (bool) {... */\n    tag_92:\n        /* \"erc721a/contracts/ERC721A.sol\":14848:14852  bool */\n      0x00\n        /* \"erc721a/contracts/ERC721A.sol\":14935:14948  _currentIndex */\n      dup1\n      sload\n        /* \"erc721a/contracts/ERC721A.sol\":14925:14932  tokenId */\n      dup3\n        /* \"erc721a/contracts/ERC721A.sol\":14925:14948  tokenId < _currentIndex */\n      lt\n        /* \"erc721a/contracts/ERC721A.sol\":14883:15033  _startTokenId() <= tokenId &&... */\n      dup1\n      iszero\n      tag_82\n      jumpi\n      pop\n      pop\n        /* \"erc721a/contracts/ERC721A.sol\":14985:15011  _packedOwnerships[tokenId] */\n      0x00\n      swap1\n      dup2\n      mstore\n        /* \"erc721a/contracts/ERC721A.sol\":14985:15002  _packedOwnerships */\n      0x04\n        /* \"erc721a/contracts/ERC721A.sol\":14985:15011  _packedOwnerships[tokenId] */\n      0x20\n      mstore\n      0x40\n      swap1\n      keccak256\n      sload\n      shl(0xe0, 0x01)\n        /* \"erc721a/contracts/ERC721A.sol\":14985:15028  _packedOwnerships[tokenId] & BITMASK_BURNED */\n      and\n        /* \"erc721a/contracts/ERC721A.sol\":14985:15033  _packedOwnerships[tokenId] & BITMASK_BURNED == 0 */\n      iszero\n      swap1\n        /* \"erc721a/contracts/ERC721A.sol\":14791:15059  function _exists(uint256 tokenId) internal view returns (bool) {... */\n      jump\t// out\n        /* \"erc721a/contracts/ERC721A.sol\":7949:9054  function _packedOwnershipOf(uint256 tokenId) private view returns (uint256) {... */\n    tag_107:\n        /* \"erc721a/contracts/ERC721A.sol\":8016:8023  uint256 */\n      0x00\n        /* \"erc721a/contracts/ERC721A.sol\":8050:8057  tokenId */\n      dup2\n        /* \"erc721a/contracts/ERC721A.sol\":8148:8161  _currentIndex */\n      sload(0x00)\n        /* \"erc721a/contracts/ERC721A.sol\":8141:8145  curr */\n      dup2\n        /* \"erc721a/contracts/ERC721A.sol\":8141:8161  curr < _currentIndex */\n      lt\n        /* \"erc721a/contracts/ERC721A.sol\":8137:8990  if (curr < _currentIndex) {... */\n      iszero\n      tag_176\n      jumpi\n        /* \"erc721a/contracts/ERC721A.sol\":8185:8199  uint256 packed */\n      0x00\n        /* \"erc721a/contracts/ERC721A.sol\":8202:8225  _packedOwnerships[curr] */\n      dup2\n      dup2\n      mstore\n        /* \"erc721a/contracts/ERC721A.sol\":8202:8219  _packedOwnerships */\n      0x04\n        /* \"erc721a/contracts/ERC721A.sol\":8202:8225  _packedOwnerships[curr] */\n      0x20\n      mstore\n      0x40\n      dup2\n      keccak256\n      sload\n      swap1\n      shl(0xe0, 0x01)\n        /* \"erc721a/contracts/ERC721A.sol\":8289:8312  packed & BITMASK_BURNED */\n      dup3\n      and\n        /* \"erc721a/contracts/ERC721A.sol\":8289:8317  packed & BITMASK_BURNED == 0 */\n      swap1\n      sub\n        /* \"erc721a/contracts/ERC721A.sol\":8285:8972  if (packed & BITMASK_BURNED == 0) {... */\n      tag_177\n      jumpi\n        /* \"erc721a/contracts/ERC721A.sol\":8800:8911  while (packed == 0) {... */\n    tag_178:\n        /* \"erc721a/contracts/ERC721A.sol\":8807:8813  packed */\n      dup1\n        /* \"erc721a/contracts/ERC721A.sol\":8817:8818  0 */\n      0x00\n        /* \"erc721a/contracts/ERC721A.sol\":8807:8818  packed == 0 */\n      sub\n        /* \"erc721a/contracts/ERC721A.sol\":8800:8911  while (packed == 0) {... */\n      tag_161\n      jumpi\n      pop\n      not(0x00)\n        /* \"erc721a/contracts/ERC721A.sol\":8877:8883  --curr */\n      add\n        /* \"erc721a/contracts/ERC721A.sol\":8859:8884  _packedOwnerships[--curr] */\n      0x00\n      dup2\n      dup2\n      mstore\n        /* \"erc721a/contracts/ERC721A.sol\":8859:8876  _packedOwnerships */\n      0x04\n        /* \"erc721a/contracts/ERC721A.sol\":8859:8884  _packedOwnerships[--curr] */\n      0x20\n      mstore\n      0x40\n      swap1\n      keccak256\n      sload\n        /* \"erc721a/contracts/ERC721A.sol\":8800:8911  while (packed == 0) {... */\n      jump(tag_178)\n        /* \"erc721a/contracts/ERC721A.sol\":8285:8972  if (packed & BITMASK_BURNED == 0) {... */\n    tag_177:\n        /* \"erc721a/contracts/ERC721A.sol\":8163:8990  {... */\n      pop\n        /* \"erc721a/contracts/ERC721A.sol\":8137:8990  if (curr < _currentIndex) {... */\n    tag_176:\n        /* \"erc721a/contracts/ERC721A.sol\":9016:9047  OwnerQueryForNonexistentToken() */\n      mload(0x40)\n      shl(0xe1, 0x6f96cda1)\n      dup2\n      mstore\n      0x04\n      add\n      mload(0x40)\n      dup1\n      swap2\n      sub\n      swap1\n      revert\n        /* \"erc721a/contracts/ERC721A.sol\":28649:29346  function _checkContractOnERC721Received(... */\n    tag_153:\n        /* \"erc721a/contracts/ERC721A.sol\":28827:28915  ERC721A__IERC721Receiver(to).onERC721Received(_msgSenderERC721A(), from, tokenId, _data) */\n      mload(0x40)\n      shl(0xe1, 0x0a85bd01)\n      dup2\n      mstore\n        /* \"erc721a/contracts/ERC721A.sol\":28807:28811  bool */\n      0x00\n      swap1\n      sub(shl(0xa0, 0x01), 0x01)\n        /* \"erc721a/contracts/ERC721A.sol\":28827:28872  ERC721A__IERC721Receiver(to).onERC721Received */\n      dup6\n      and\n      swap1\n      0x150b7a02\n      swap1\n        /* \"erc721a/contracts/ERC721A.sol\":28827:28915  ERC721A__IERC721Receiver(to).onERC721Received(_msgSenderERC721A(), from, tokenId, _data) */\n      tag_190\n      swap1\n        /* \"erc721a/contracts/ERC721A.sol\":32960:32970  msg.sender */\n      caller\n      swap1\n        /* \"erc721a/contracts/ERC721A.sol\":28894:28898  from */\n      dup10\n      swap1\n        /* \"erc721a/contracts/ERC721A.sol\":28900:28907  tokenId */\n      dup9\n      swap1\n        /* \"erc721a/contracts/ERC721A.sol\":28909:28914  _data */\n      dup9\n      swap1\n        /* \"erc721a/contracts/ERC721A.sol\":28827:28915  ERC721A__IERC721Receiver(to).onERC721Received(_msgSenderERC721A(), from, tokenId, _data) */\n      0x04\n      add\n      tag_191\n      jump\t// in\n    tag_190:\n      0x20\n      mload(0x40)\n      dup1\n      dup4\n      sub\n      dup2\n      0x00\n      dup8\n      gas\n      call\n      swap3\n      pop\n      pop\n      pop\n      dup1\n      iszero\n      tag_192\n      jumpi\n      pop\n      0x40\n      dup1\n      mload\n      0x1f\n      returndatasize\n      swap1\n      dup2\n      add\n      not(0x1f)\n      and\n      dup3\n      add\n      swap1\n      swap3\n      mstore\n      tag_193\n      swap2\n      dup2\n      add\n      swap1\n      tag_194\n      jump\t// in\n    tag_193:\n      0x01\n    tag_192:\n        /* \"erc721a/contracts/ERC721A.sol\":28823:29340  try ERC721A__IERC721Receiver(to).onERC721Received(_msgSenderERC721A(), from, tokenId, _data) returns (... */\n      tag_195\n      jumpi\n      returndatasize\n      dup1\n      dup1\n      iszero\n      tag_200\n      jumpi\n      mload(0x40)\n      swap2\n      pop\n      and(add(returndatasize, 0x3f), not(0x1f))\n      dup3\n      add\n      0x40\n      mstore\n      returndatasize\n      dup3\n      mstore\n      returndatasize\n      0x00\n      0x20\n      dup5\n      add\n      returndatacopy\n      jump(tag_199)\n    tag_200:\n      0x60\n      swap2\n      pop\n    tag_199:\n      pop\n        /* \"erc721a/contracts/ERC721A.sol\":29105:29111  reason */\n      dup1\n        /* \"erc721a/contracts/ERC721A.sol\":29105:29118  reason.length */\n      mload\n        /* \"erc721a/contracts/ERC721A.sol\":29122:29123  0 */\n      0x00\n        /* \"erc721a/contracts/ERC721A.sol\":29105:29123  reason.length == 0 */\n      sub\n        /* \"erc721a/contracts/ERC721A.sol\":29101:29330  if (reason.length == 0) {... */\n      tag_201\n      jumpi\n        /* \"erc721a/contracts/ERC721A.sol\":29150:29190  TransferToNonERC721ReceiverImplementer() */\n      mload(0x40)\n      shl(0xe1, 0x68d2bf6b)\n      dup2\n      mstore\n      0x04\n      add\n      mload(0x40)\n      dup1\n      swap2\n      sub\n      swap1\n      revert\n        /* \"erc721a/contracts/ERC721A.sol\":29101:29330  if (reason.length == 0) {... */\n    tag_201:\n        /* \"erc721a/contracts/ERC721A.sol\":29290:29296  reason */\n      dup1\n        /* \"erc721a/contracts/ERC721A.sol\":29284:29297  mload(reason) */\n      mload\n        /* \"erc721a/contracts/ERC721A.sol\":29275:29281  reason */\n      dup2\n        /* \"erc721a/contracts/ERC721A.sol\":29271:29273  32 */\n      0x20\n        /* \"erc721a/contracts/ERC721A.sol\":29267:29282  add(32, reason) */\n      add\n        /* \"erc721a/contracts/ERC721A.sol\":29260:29298  revert(add(32, reason), mload(reason)) */\n      revert\n        /* \"erc721a/contracts/ERC721A.sol\":28823:29340  try ERC721A__IERC721Receiver(to).onERC721Received(_msgSenderERC721A(), from, tokenId, _data) returns (... */\n    tag_195:\n      not(sub(shl(0xe0, 0x01), 0x01))\n        /* \"erc721a/contracts/ERC721A.sol\":28983:29047  retval == ERC721A__IERC721Receiver(to).onERC721Received.selector */\n      and\n      shl(0xe1, 0x0a85bd01)\n      eq\n      swap1\n      pop\n        /* \"erc721a/contracts/ERC721A.sol\":28649:29346  function _checkContractOnERC721Received(... */\n      swap5\n      swap4\n      pop\n      pop\n      pop\n      pop\n      jump\t// out\n        /* \"erc721a/contracts/ERC721A.sol\":33078:34998  function _toString(uint256 value) internal pure returns (string memory ptr) {... */\n    tag_163:\n        /* \"erc721a/contracts/ERC721A.sol\":33541:33545  0x40 */\n      0x40\n        /* \"erc721a/contracts/ERC721A.sol\":33535:33546  mload(0x40) */\n      dup1\n      mload\n        /* \"erc721a/contracts/ERC721A.sol\":33548:33551  128 */\n      0x80\n        /* \"erc721a/contracts/ERC721A.sol\":33531:33552  add(mload(0x40), 128) */\n      dup2\n      add\n        /* \"erc721a/contracts/ERC721A.sol\":33624:33641  mstore(0x40, ptr) */\n      swap2\n      dup3\n      swap1\n      mstore\n        /* \"erc721a/contracts/ERC721A.sol\":34307:34318  sub(ptr, 1) */\n      0x7f\n      add\n      swap1\n        /* \"erc721a/contracts/ERC721A.sol\":34188:34193  value */\n      dup3\n        /* \"erc721a/contracts/ERC721A.sol\":34437:34439  48 */\n      0x30\n        /* \"erc721a/contracts/ERC721A.sol\":34451:34453  10 */\n      0x0a\n        /* \"erc721a/contracts/ERC721A.sol\":34441:34454  mod(temp, 10) */\n      dup3\n      mod\n        /* \"erc721a/contracts/ERC721A.sol\":34433:34455  add(48, mod(temp, 10)) */\n      add\n        /* \"erc721a/contracts/ERC721A.sol\":34307:34318  sub(ptr, 1) */\n      dup4\n        /* \"erc721a/contracts/ERC721A.sol\":34420:34456  mstore8(ptr, add(48, mod(temp, 10))) */\n      mstore8\n        /* \"erc721a/contracts/ERC721A.sol\":34491:34493  10 */\n      0x0a\n        /* \"erc721a/contracts/ERC721A.sol\":34481:34494  div(temp, 10) */\n      swap1\n      div\n        /* \"erc721a/contracts/ERC721A.sol\":34082:34764  for {... */\n    tag_206:\n        /* \"erc721a/contracts/ERC721A.sol\":34509:34513  temp */\n      dup1\n        /* \"erc721a/contracts/ERC721A.sol\":34082:34764  for {... */\n      iszero\n      tag_208\n      jumpi\n        /* \"erc721a/contracts/ERC721A.sol\":34695:34696  1 */\n      0x01\n        /* \"erc721a/contracts/ERC721A.sol\":34690:34693  ptr */\n      dup4\n        /* \"erc721a/contracts/ERC721A.sol\":34686:34697  sub(ptr, 1) */\n      sub\n        /* \"erc721a/contracts/ERC721A.sol\":34679:34697  ptr := sub(ptr, 1) */\n      swap3\n      pop\n        /* \"erc721a/contracts/ERC721A.sol\":34745:34747  10 */\n      0x0a\n        /* \"erc721a/contracts/ERC721A.sol\":34739:34743  temp */\n      dup2\n        /* \"erc721a/contracts/ERC721A.sol\":34735:34748  mod(temp, 10) */\n      mod\n        /* \"erc721a/contracts/ERC721A.sol\":34731:34733  48 */\n      0x30\n        /* \"erc721a/contracts/ERC721A.sol\":34727:34749  add(48, mod(temp, 10)) */\n      add\n        /* \"erc721a/contracts/ERC721A.sol\":34722:34725  ptr */\n      dup4\n        /* \"erc721a/contracts/ERC721A.sol\":34714:34750  mstore8(ptr, add(48, mod(temp, 10))) */\n      mstore8\n        /* \"erc721a/contracts/ERC721A.sol\":34602:34604  10 */\n      0x0a\n        /* \"erc721a/contracts/ERC721A.sol\":34592:34605  div(temp, 10) */\n      swap1\n      div\n        /* \"erc721a/contracts/ERC721A.sol\":34082:34764  for {... */\n      jump(tag_206)\n    tag_208:\n      pop\n        /* \"erc721a/contracts/ERC721A.sol\":34792:34805  sub(end, ptr) */\n      dup2\n      swap1\n      sub\n      not(0x1f)\n        /* \"erc721a/contracts/ERC721A.sol\":34905:34917  sub(ptr, 32) */\n      swap1\n      swap2\n      add\n        /* \"erc721a/contracts/ERC721A.sol\":34963:34982  mstore(ptr, length) */\n      swap1\n      dup2\n      mstore\n        /* \"erc721a/contracts/ERC721A.sol\":34905:34917  sub(ptr, 32) */\n      swap2\n        /* \"erc721a/contracts/ERC721A.sol\":33078:34998  function _toString(uint256 value) internal pure returns (string memory ptr) {... */\n      swap1\n      pop\n      jump\t// out\n        /* \"#utility.yul\":14:145   */\n    tag_210:\n      not(sub(shl(0xe0, 0x01), 0x01))\n        /* \"#utility.yul\":88:120   */\n      dup2\n      and\n        /* \"#utility.yul\":78:121   */\n      dup2\n      eq\n        /* \"#utility.yul\":68:139   */\n      tag_217\n      jumpi\n        /* \"#utility.yul\":135:136   */\n      0x00\n        /* \"#utility.yul\":132:133   */\n      dup1\n        /* \"#utility.yul\":125:137   */\n      revert\n        /* \"#utility.yul\":68:139   */\n    tag_217:\n        /* \"#utility.yul\":14:145   */\n      pop\n      jump\t// out\n        /* \"#utility.yul\":150:395   */\n    tag_22:\n        /* \"#utility.yul\":208:214   */\n      0x00\n        /* \"#utility.yul\":261:263   */\n      0x20\n        /* \"#utility.yul\":249:258   */\n      dup3\n        /* \"#utility.yul\":240:247   */\n      dup5\n        /* \"#utility.yul\":236:259   */\n      sub\n        /* \"#utility.yul\":232:264   */\n      slt\n        /* \"#utility.yul\":229:281   */\n      iszero\n      tag_219\n      jumpi\n        /* \"#utility.yul\":277:278   */\n      0x00\n        /* \"#utility.yul\":274:275   */\n      dup1\n        /* \"#utility.yul\":267:279   */\n      revert\n        /* \"#utility.yul\":229:281   */\n    tag_219:\n        /* \"#utility.yul\":316:325   */\n      dup2\n        /* \"#utility.yul\":303:326   */\n      calldataload\n        /* \"#utility.yul\":335:365   */\n      tag_161\n        /* \"#utility.yul\":359:364   */\n      dup2\n        /* \"#utility.yul\":335:365   */\n      tag_210\n      jump\t// in\n        /* \"#utility.yul\":592:850   */\n    tag_211:\n        /* \"#utility.yul\":664:665   */\n      0x00\n        /* \"#utility.yul\":674:787   */\n    tag_223:\n        /* \"#utility.yul\":688:694   */\n      dup4\n        /* \"#utility.yul\":685:686   */\n      dup2\n        /* \"#utility.yul\":682:695   */\n      lt\n        /* \"#utility.yul\":674:787   */\n      iszero\n      tag_225\n      jumpi\n        /* \"#utility.yul\":764:775   */\n      dup2\n      dup2\n      add\n        /* \"#utility.yul\":758:776   */\n      mload\n        /* \"#utility.yul\":745:756   */\n      dup4\n      dup3\n      add\n        /* \"#utility.yul\":738:777   */\n      mstore\n        /* \"#utility.yul\":710:712   */\n      0x20\n        /* \"#utility.yul\":703:713   */\n      add\n        /* \"#utility.yul\":674:787   */\n      jump(tag_223)\n    tag_225:\n        /* \"#utility.yul\":805:811   */\n      dup4\n        /* \"#utility.yul\":802:803   */\n      dup2\n        /* \"#utility.yul\":799:812   */\n      gt\n        /* \"#utility.yul\":796:844   */\n      iszero\n      tag_154\n      jumpi\n      pop\n      pop\n        /* \"#utility.yul\":840:841   */\n      0x00\n        /* \"#utility.yul\":822:838   */\n      swap2\n      add\n        /* \"#utility.yul\":815:842   */\n      mstore\n        /* \"#utility.yul\":592:850   */\n      jump\t// out\n        /* \"#utility.yul\":855:1113   */\n    tag_212:\n        /* \"#utility.yul\":897:900   */\n      0x00\n        /* \"#utility.yul\":935:940   */\n      dup2\n        /* \"#utility.yul\":929:941   */\n      mload\n        /* \"#utility.yul\":962:968   */\n      dup1\n        /* \"#utility.yul\":957:960   */\n      dup5\n        /* \"#utility.yul\":950:969   */\n      mstore\n        /* \"#utility.yul\":978:1041   */\n      tag_228\n        /* \"#utility.yul\":1034:1040   */\n      dup2\n        /* \"#utility.yul\":1027:1031   */\n      0x20\n        /* \"#utility.yul\":1022:1025   */\n      dup7\n        /* \"#utility.yul\":1018:1032   */\n      add\n        /* \"#utility.yul\":1011:1015   */\n      0x20\n        /* \"#utility.yul\":1004:1009   */\n      dup7\n        /* \"#utility.yul\":1000:1016   */\n      add\n        /* \"#utility.yul\":978:1041   */\n      tag_211\n      jump\t// in\n    tag_228:\n        /* \"#utility.yul\":1095:1097   */\n      0x1f\n        /* \"#utility.yul\":1074:1089   */\n      add\n      not(0x1f)\n        /* \"#utility.yul\":1070:1099   */\n      and\n        /* \"#utility.yul\":1061:1100   */\n      swap3\n      swap1\n      swap3\n      add\n        /* \"#utility.yul\":1102:1106   */\n      0x20\n        /* \"#utility.yul\":1057:1107   */\n      add\n      swap3\n        /* \"#utility.yul\":855:1113   */\n      swap2\n      pop\n      pop\n      jump\t// out\n        /* \"#utility.yul\":1118:1338   */\n    tag_29:\n        /* \"#utility.yul\":1267:1269   */\n      0x20\n        /* \"#utility.yul\":1256:1265   */\n      dup2\n        /* \"#utility.yul\":1249:1270   */\n      mstore\n        /* \"#utility.yul\":1230:1234   */\n      0x00\n        /* \"#utility.yul\":1287:1332   */\n      tag_161\n        /* \"#utility.yul\":1328:1330   */\n      0x20\n        /* \"#utility.yul\":1317:1326   */\n      dup4\n        /* \"#utility.yul\":1313:1331   */\n      add\n        /* \"#utility.yul\":1305:1311   */\n      dup5\n        /* \"#utility.yul\":1287:1332   */\n      tag_212\n      jump\t// in\n        /* \"#utility.yul\":1343:1523   */\n    tag_32:\n        /* \"#utility.yul\":1402:1408   */\n      0x00\n        /* \"#utility.yul\":1455:1457   */\n      0x20\n        /* \"#utility.yul\":1443:1452   */\n      dup3\n        /* \"#utility.yul\":1434:1441   */\n      dup5\n        /* \"#utility.yul\":1430:1453   */\n      sub\n        /* \"#utility.yul\":1426:1458   */\n      slt\n        /* \"#utility.yul\":1423:1475   */\n      iszero\n      tag_232\n      jumpi\n        /* \"#utility.yul\":1471:1472   */\n      0x00\n        /* \"#utility.yul\":1468:1469   */\n      dup1\n        /* \"#utility.yul\":1461:1473   */\n      revert\n        /* \"#utility.yul\":1423:1475   */\n    tag_232:\n      pop\n        /* \"#utility.yul\":1494:1517   */\n      calldataload\n      swap2\n        /* \"#utility.yul\":1343:1523   */\n      swap1\n      pop\n      jump\t// out\n        /* \"#utility.yul\":1736:1909   */\n    tag_213:\n        /* \"#utility.yul\":1804:1824   */\n      dup1\n      calldataload\n      sub(shl(0xa0, 0x01), 0x01)\n        /* \"#utility.yul\":1853:1884   */\n      dup2\n      and\n        /* \"#utility.yul\":1843:1885   */\n      dup2\n      eq\n        /* \"#utility.yul\":1833:1903   */\n      tag_235\n      jumpi\n        /* \"#utility.yul\":1899:1900   */\n      0x00\n        /* \"#utility.yul\":1896:1897   */\n      dup1\n        /* \"#utility.yul\":1889:1901   */\n      revert\n        /* \"#utility.yul\":1833:1903   */\n    tag_235:\n        /* \"#utility.yul\":1736:1909   */\n      swap2\n      swap1\n      pop\n      jump\t// out\n        /* \"#utility.yul\":1914:2168   */\n    tag_38:\n        /* \"#utility.yul\":1982:1988   */\n      0x00\n        /* \"#utility.yul\":1990:1996   */\n      dup1\n        /* \"#utility.yul\":2043:2045   */\n      0x40\n        /* \"#utility.yul\":2031:2040   */\n      dup4\n        /* \"#utility.yul\":2022:2029   */\n      dup6\n        /* \"#utility.yul\":2018:2041   */\n      sub\n        /* \"#utility.yul\":2014:2046   */\n      slt\n        /* \"#utility.yul\":2011:2063   */\n      iszero\n      tag_237\n      jumpi\n        /* \"#utility.yul\":2059:2060   */\n      0x00\n        /* \"#utility.yul\":2056:2057   */\n      dup1\n        /* \"#utility.yul\":2049:2061   */\n      revert\n        /* \"#utility.yul\":2011:2063   */\n    tag_237:\n        /* \"#utility.yul\":2082:2111   */\n      tag_238\n        /* \"#utility.yul\":2101:2110   */\n      dup4\n        /* \"#utility.yul\":2082:2111   */\n      tag_213\n      jump\t// in\n    tag_238:\n        /* \"#utility.yul\":2072:2111   */\n      swap5\n        /* \"#utility.yul\":2158:2160   */\n      0x20\n        /* \"#utility.yul\":2143:2161   */\n      swap4\n      swap1\n      swap4\n      add\n        /* \"#utility.yul\":2130:2162   */\n      calldataload\n      swap4\n      pop\n      pop\n      pop\n        /* \"#utility.yul\":1914:2168   */\n      jump\t// out\n        /* \"#utility.yul\":2355:2683   */\n    tag_46:\n        /* \"#utility.yul\":2432:2438   */\n      0x00\n        /* \"#utility.yul\":2440:2446   */\n      dup1\n        /* \"#utility.yul\":2448:2454   */\n      0x00\n        /* \"#utility.yul\":2501:2503   */\n      0x60\n        /* \"#utility.yul\":2489:2498   */\n      dup5\n        /* \"#utility.yul\":2480:2487   */\n      dup7\n        /* \"#utility.yul\":2476:2499   */\n      sub\n        /* \"#utility.yul\":2472:2504   */\n      slt\n        /* \"#utility.yul\":2469:2521   */\n      iszero\n      tag_241\n      jumpi\n        /* \"#utility.yul\":2517:2518   */\n      0x00\n        /* \"#utility.yul\":2514:2515   */\n      dup1\n        /* \"#utility.yul\":2507:2519   */\n      revert\n        /* \"#utility.yul\":2469:2521   */\n    tag_241:\n        /* \"#utility.yul\":2540:2569   */\n      tag_242\n        /* \"#utility.yul\":2559:2568   */\n      dup5\n        /* \"#utility.yul\":2540:2569   */\n      tag_213\n      jump\t// in\n    tag_242:\n        /* \"#utility.yul\":2530:2569   */\n      swap3\n      pop\n        /* \"#utility.yul\":2588:2626   */\n      tag_243\n        /* \"#utility.yul\":2622:2624   */\n      0x20\n        /* \"#utility.yul\":2611:2620   */\n      dup6\n        /* \"#utility.yul\":2607:2625   */\n      add\n        /* \"#utility.yul\":2588:2626   */\n      tag_213\n      jump\t// in\n    tag_243:\n        /* \"#utility.yul\":2578:2626   */\n      swap2\n      pop\n        /* \"#utility.yul\":2673:2675   */\n      0x40\n        /* \"#utility.yul\":2662:2671   */\n      dup5\n        /* \"#utility.yul\":2658:2676   */\n      add\n        /* \"#utility.yul\":2645:2677   */\n      calldataload\n        /* \"#utility.yul\":2635:2677   */\n      swap1\n      pop\n        /* \"#utility.yul\":2355:2683   */\n      swap3\n      pop\n      swap3\n      pop\n      swap3\n      jump\t// out\n        /* \"#utility.yul\":2688:2874   */\n    tag_57:\n        /* \"#utility.yul\":2747:2753   */\n      0x00\n        /* \"#utility.yul\":2800:2802   */\n      0x20\n        /* \"#utility.yul\":2788:2797   */\n      dup3\n        /* \"#utility.yul\":2779:2786   */\n      dup5\n        /* \"#utility.yul\":2775:2798   */\n      sub\n        /* \"#utility.yul\":2771:2803   */\n      slt\n        /* \"#utility.yul\":2768:2820   */\n      iszero\n      tag_245\n      jumpi\n        /* \"#utility.yul\":2816:2817   */\n      0x00\n        /* \"#utility.yul\":2813:2814   */\n      dup1\n        /* \"#utility.yul\":2806:2818   */\n      revert\n        /* \"#utility.yul\":2768:2820   */\n    tag_245:\n        /* \"#utility.yul\":2839:2868   */\n      tag_161\n        /* \"#utility.yul\":2858:2867   */\n      dup3\n        /* \"#utility.yul\":2839:2868   */\n      tag_213\n      jump\t// in\n        /* \"#utility.yul\":2879:3226   */\n    tag_65:\n        /* \"#utility.yul\":2944:2950   */\n      0x00\n        /* \"#utility.yul\":2952:2958   */\n      dup1\n        /* \"#utility.yul\":3005:3007   */\n      0x40\n        /* \"#utility.yul\":2993:3002   */\n      dup4\n        /* \"#utility.yul\":2984:2991   */\n      dup6\n        /* \"#utility.yul\":2980:3003   */\n      sub\n        /* \"#utility.yul\":2976:3008   */\n      slt\n        /* \"#utility.yul\":2973:3025   */\n      iszero\n      tag_248\n      jumpi\n        /* \"#utility.yul\":3021:3022   */\n      0x00\n        /* \"#utility.yul\":3018:3019   */\n      dup1\n        /* \"#utility.yul\":3011:3023   */\n      revert\n        /* \"#utility.yul\":2973:3025   */\n    tag_248:\n        /* \"#utility.yul\":3044:3073   */\n      tag_249\n        /* \"#utility.yul\":3063:3072   */\n      dup4\n        /* \"#utility.yul\":3044:3073   */\n      tag_213\n      jump\t// in\n    tag_249:\n        /* \"#utility.yul\":3034:3073   */\n      swap2\n      pop\n        /* \"#utility.yul\":3123:3125   */\n      0x20\n        /* \"#utility.yul\":3112:3121   */\n      dup4\n        /* \"#utility.yul\":3108:3126   */\n      add\n        /* \"#utility.yul\":3095:3127   */\n      calldataload\n        /* \"#utility.yul\":3170:3175   */\n      dup1\n        /* \"#utility.yul\":3163:3176   */\n      iszero\n        /* \"#utility.yul\":3156:3177   */\n      iszero\n        /* \"#utility.yul\":3149:3154   */\n      dup2\n        /* \"#utility.yul\":3146:3178   */\n      eq\n        /* \"#utility.yul\":3136:3196   */\n      tag_250\n      jumpi\n        /* \"#utility.yul\":3192:3193   */\n      0x00\n        /* \"#utility.yul\":3189:3190   */\n      dup1\n        /* \"#utility.yul\":3182:3194   */\n      revert\n        /* \"#utility.yul\":3136:3196   */\n    tag_250:\n        /* \"#utility.yul\":3215:3220   */\n      dup1\n        /* \"#utility.yul\":3205:3220   */\n      swap2\n      pop\n      pop\n        /* \"#utility.yul\":2879:3226   */\n      swap3\n      pop\n      swap3\n      swap1\n      pop\n      jump\t// out\n        /* \"#utility.yul\":3231:3358   */\n    tag_214:\n        /* \"#utility.yul\":3292:3302   */\n      0x4e487b71\n        /* \"#utility.yul\":3287:3290   */\n      0xe0\n        /* \"#utility.yul\":3283:3303   */\n      shl\n        /* \"#utility.yul\":3280:3281   */\n      0x00\n        /* \"#utility.yul\":3273:3304   */\n      mstore\n        /* \"#utility.yul\":3323:3327   */\n      0x41\n        /* \"#utility.yul\":3320:3321   */\n      0x04\n        /* \"#utility.yul\":3313:3328   */\n      mstore\n        /* \"#utility.yul\":3347:3351   */\n      0x24\n        /* \"#utility.yul\":3344:3345   */\n      0x00\n        /* \"#utility.yul\":3337:3352   */\n      revert\n        /* \"#utility.yul\":3363:4501   */\n    tag_69:\n        /* \"#utility.yul\":3458:3464   */\n      0x00\n        /* \"#utility.yul\":3466:3472   */\n      dup1\n        /* \"#utility.yul\":3474:3480   */\n      0x00\n        /* \"#utility.yul\":3482:3488   */\n      dup1\n        /* \"#utility.yul\":3535:3538   */\n      0x80\n        /* \"#utility.yul\":3523:3532   */\n      dup6\n        /* \"#utility.yul\":3514:3521   */\n      dup8\n        /* \"#utility.yul\":3510:3533   */\n      sub\n        /* \"#utility.yul\":3506:3539   */\n      slt\n        /* \"#utility.yul\":3503:3556   */\n      iszero\n      tag_253\n      jumpi\n        /* \"#utility.yul\":3552:3553   */\n      0x00\n        /* \"#utility.yul\":3549:3550   */\n      dup1\n        /* \"#utility.yul\":3542:3554   */\n      revert\n        /* \"#utility.yul\":3503:3556   */\n    tag_253:\n        /* \"#utility.yul\":3575:3604   */\n      tag_254\n        /* \"#utility.yul\":3594:3603   */\n      dup6\n        /* \"#utility.yul\":3575:3604   */\n      tag_213\n      jump\t// in\n    tag_254:\n        /* \"#utility.yul\":3565:3604   */\n      swap4\n      pop\n        /* \"#utility.yul\":3623:3661   */\n      tag_255\n        /* \"#utility.yul\":3657:3659   */\n      0x20\n        /* \"#utility.yul\":3646:3655   */\n      dup7\n        /* \"#utility.yul\":3642:3660   */\n      add\n        /* \"#utility.yul\":3623:3661   */\n      tag_213\n      jump\t// in\n    tag_255:\n        /* \"#utility.yul\":3613:3661   */\n      swap3\n      pop\n        /* \"#utility.yul\":3708:3710   */\n      0x40\n        /* \"#utility.yul\":3697:3706   */\n      dup6\n        /* \"#utility.yul\":3693:3711   */\n      add\n        /* \"#utility.yul\":3680:3712   */\n      calldataload\n        /* \"#utility.yul\":3670:3712   */\n      swap2\n      pop\n        /* \"#utility.yul\":3763:3765   */\n      0x60\n        /* \"#utility.yul\":3752:3761   */\n      dup6\n        /* \"#utility.yul\":3748:3766   */\n      add\n        /* \"#utility.yul\":3735:3767   */\n      calldataload\n        /* \"#utility.yul\":3786:3804   */\n      0xffffffffffffffff\n        /* \"#utility.yul\":3827:3829   */\n      dup1\n        /* \"#utility.yul\":3819:3825   */\n      dup3\n        /* \"#utility.yul\":3816:3830   */\n      gt\n        /* \"#utility.yul\":3813:3847   */\n      iszero\n      tag_256\n      jumpi\n        /* \"#utility.yul\":3843:3844   */\n      0x00\n        /* \"#utility.yul\":3840:3841   */\n      dup1\n        /* \"#utility.yul\":3833:3845   */\n      revert\n        /* \"#utility.yul\":3813:3847   */\n    tag_256:\n        /* \"#utility.yul\":3881:3887   */\n      dup2\n        /* \"#utility.yul\":3870:3879   */\n      dup8\n        /* \"#utility.yul\":3866:3888   */\n      add\n        /* \"#utility.yul\":3856:3888   */\n      swap2\n      pop\n        /* \"#utility.yul\":3926:3933   */\n      dup8\n        /* \"#utility.yul\":3919:3923   */\n      0x1f\n        /* \"#utility.yul\":3915:3917   */\n      dup4\n        /* \"#utility.yul\":3911:3924   */\n      add\n        /* \"#utility.yul\":3907:3934   */\n      slt\n        /* \"#utility.yul\":3897:3952   */\n      tag_257\n      jumpi\n        /* \"#utility.yul\":3948:3949   */\n      0x00\n        /* \"#utility.yul\":3945:3946   */\n      dup1\n        /* \"#utility.yul\":3938:3950   */\n      revert\n        /* \"#utility.yul\":3897:3952   */\n    tag_257:\n        /* \"#utility.yul\":3984:3986   */\n      dup2\n        /* \"#utility.yul\":3971:3987   */\n      calldataload\n        /* \"#utility.yul\":4006:4008   */\n      dup2\n        /* \"#utility.yul\":4002:4004   */\n      dup2\n        /* \"#utility.yul\":3999:4009   */\n      gt\n        /* \"#utility.yul\":3996:4032   */\n      iszero\n      tag_259\n      jumpi\n        /* \"#utility.yul\":4012:4030   */\n      tag_259\n      tag_214\n      jump\t// in\n    tag_259:\n        /* \"#utility.yul\":4087:4089   */\n      0x40\n        /* \"#utility.yul\":4081:4090   */\n      mload\n        /* \"#utility.yul\":4055:4057   */\n      0x1f\n        /* \"#utility.yul\":4141:4154   */\n      dup3\n      add\n      not(0x1f)\n        /* \"#utility.yul\":4137:4159   */\n      swap1\n      dup2\n      and\n        /* \"#utility.yul\":4161:4163   */\n      0x3f\n        /* \"#utility.yul\":4133:4164   */\n      add\n        /* \"#utility.yul\":4129:4169   */\n      and\n        /* \"#utility.yul\":4117:4170   */\n      dup2\n      add\n      swap1\n        /* \"#utility.yul\":4185:4203   */\n      dup4\n      dup3\n      gt\n        /* \"#utility.yul\":4205:4227   */\n      dup2\n      dup4\n      lt\n        /* \"#utility.yul\":4182:4228   */\n      or\n        /* \"#utility.yul\":4179:4251   */\n      iszero\n      tag_261\n      jumpi\n        /* \"#utility.yul\":4231:4249   */\n      tag_261\n      tag_214\n      jump\t// in\n    tag_261:\n        /* \"#utility.yul\":4271:4281   */\n      dup2\n        /* \"#utility.yul\":4267:4269   */\n      0x40\n        /* \"#utility.yul\":4260:4282   */\n      mstore\n        /* \"#utility.yul\":4306:4308   */\n      dup3\n        /* \"#utility.yul\":4298:4304   */\n      dup2\n        /* \"#utility.yul\":4291:4309   */\n      mstore\n        /* \"#utility.yul\":4346:4353   */\n      dup11\n        /* \"#utility.yul\":4341:4343   */\n      0x20\n        /* \"#utility.yul\":4336:4338   */\n      dup5\n        /* \"#utility.yul\":4332:4334   */\n      dup8\n        /* \"#utility.yul\":4328:4339   */\n      add\n        /* \"#utility.yul\":4324:4344   */\n      add\n        /* \"#utility.yul\":4321:4354   */\n      gt\n        /* \"#utility.yul\":4318:4371   */\n      iszero\n      tag_262\n      jumpi\n        /* \"#utility.yul\":4367:4368   */\n      0x00\n        /* \"#utility.yul\":4364:4365   */\n      dup1\n        /* \"#utility.yul\":4357:4369   */\n      revert\n        /* \"#utility.yul\":4318:4371   */\n    tag_262:\n        /* \"#utility.yul\":4423:4425   */\n      dup3\n        /* \"#utility.yul\":4418:4420   */\n      0x20\n        /* \"#utility.yul\":4414:4416   */\n      dup7\n        /* \"#utility.yul\":4410:4421   */\n      add\n        /* \"#utility.yul\":4405:4407   */\n      0x20\n        /* \"#utility.yul\":4397:4403   */\n      dup4\n        /* \"#utility.yul\":4393:4408   */\n      add\n        /* \"#utility.yul\":4380:4426   */\n      calldatacopy\n        /* \"#utility.yul\":4468:4469   */\n      0x00\n        /* \"#utility.yul\":4463:4465   */\n      0x20\n        /* \"#utility.yul\":4458:4460   */\n      dup5\n        /* \"#utility.yul\":4450:4456   */\n      dup4\n        /* \"#utility.yul\":4446:4461   */\n      add\n        /* \"#utility.yul\":4442:4466   */\n      add\n        /* \"#utility.yul\":4435:4470   */\n      mstore\n        /* \"#utility.yul\":4489:4495   */\n      dup1\n        /* \"#utility.yul\":4479:4495   */\n      swap6\n      pop\n      pop\n      pop\n      pop\n      pop\n      pop\n        /* \"#utility.yul\":3363:4501   */\n      swap3\n      swap6\n      swap2\n      swap5\n      pop\n      swap3\n      pop\n      jump\t// out\n        /* \"#utility.yul\":4506:4766   */\n    tag_77:\n        /* \"#utility.yul\":4574:4580   */\n      0x00\n        /* \"#utility.yul\":4582:4588   */\n      dup1\n        /* \"#utility.yul\":4635:4637   */\n      0x40\n        /* \"#utility.yul\":4623:4632   */\n      dup4\n        /* \"#utility.yul\":4614:4621   */\n      dup6\n        /* \"#utility.yul\":4610:4633   */\n      sub\n        /* \"#utility.yul\":4606:4638   */\n      slt\n        /* \"#utility.yul\":4603:4655   */\n      iszero\n      tag_264\n      jumpi\n        /* \"#utility.yul\":4651:4652   */\n      0x00\n        /* \"#utility.yul\":4648:4649   */\n      dup1\n        /* \"#utility.yul\":4641:4653   */\n      revert\n        /* \"#utility.yul\":4603:4655   */\n    tag_264:\n        /* \"#utility.yul\":4674:4703   */\n      tag_265\n        /* \"#utility.yul\":4693:4702   */\n      dup4\n        /* \"#utility.yul\":4674:4703   */\n      tag_213\n      jump\t// in\n    tag_265:\n        /* \"#utility.yul\":4664:4703   */\n      swap2\n      pop\n        /* \"#utility.yul\":4722:4760   */\n      tag_266\n        /* \"#utility.yul\":4756:4758   */\n      0x20\n        /* \"#utility.yul\":4745:4754   */\n      dup5\n        /* \"#utility.yul\":4741:4759   */\n      add\n        /* \"#utility.yul\":4722:4760   */\n      tag_213\n      jump\t// in\n    tag_266:\n        /* \"#utility.yul\":4712:4760   */\n      swap1\n      pop\n        /* \"#utility.yul\":4506:4766   */\n      swap3\n      pop\n      swap3\n      swap1\n      pop\n      jump\t// out\n        /* \"#utility.yul\":4771:5151   */\n    tag_85:\n        /* \"#utility.yul\":4850:4851   */\n      0x01\n        /* \"#utility.yul\":4846:4858   */\n      dup2\n      dup2\n      shr\n      swap1\n        /* \"#utility.yul\":4893:4905   */\n      dup3\n      and\n      dup1\n        /* \"#utility.yul\":4914:4975   */\n      tag_268\n      jumpi\n        /* \"#utility.yul\":4968:4972   */\n      0x7f\n        /* \"#utility.yul\":4960:4966   */\n      dup3\n        /* \"#utility.yul\":4956:4973   */\n      and\n        /* \"#utility.yul\":4946:4973   */\n      swap2\n      pop\n        /* \"#utility.yul\":4914:4975   */\n    tag_268:\n        /* \"#utility.yul\":5021:5023   */\n      0x20\n        /* \"#utility.yul\":5013:5019   */\n      dup3\n        /* \"#utility.yul\":5010:5024   */\n      lt\n        /* \"#utility.yul\":4990:5008   */\n      dup2\n        /* \"#utility.yul\":4987:5025   */\n      sub\n        /* \"#utility.yul\":4984:5145   */\n      tag_269\n      jumpi\n        /* \"#utility.yul\":5067:5077   */\n      0x4e487b71\n        /* \"#utility.yul\":5062:5065   */\n      0xe0\n        /* \"#utility.yul\":5058:5078   */\n      shl\n        /* \"#utility.yul\":5055:5056   */\n      0x00\n        /* \"#utility.yul\":5048:5079   */\n      mstore\n        /* \"#utility.yul\":5102:5106   */\n      0x22\n        /* \"#utility.yul\":5099:5100   */\n      0x04\n        /* \"#utility.yul\":5092:5107   */\n      mstore\n        /* \"#utility.yul\":5130:5134   */\n      0x24\n        /* \"#utility.yul\":5127:5128   */\n      0x00\n        /* \"#utility.yul\":5120:5135   */\n      revert\n        /* \"#utility.yul\":4984:5145   */\n    tag_269:\n      pop\n        /* \"#utility.yul\":4771:5151   */\n      swap2\n      swap1\n      pop\n      jump\t// out\n        /* \"#utility.yul\":5156:5626   */\n    tag_165:\n        /* \"#utility.yul\":5335:5338   */\n      0x00\n        /* \"#utility.yul\":5373:5379   */\n      dup4\n        /* \"#utility.yul\":5367:5380   */\n      mload\n        /* \"#utility.yul\":5389:5442   */\n      tag_271\n        /* \"#utility.yul\":5435:5441   */\n      dup2\n        /* \"#utility.yul\":5430:5433   */\n      dup5\n        /* \"#utility.yul\":5423:5427   */\n      0x20\n        /* \"#utility.yul\":5415:5421   */\n      dup9\n        /* \"#utility.yul\":5411:5428   */\n      add\n        /* \"#utility.yul\":5389:5442   */\n      tag_211\n      jump\t// in\n    tag_271:\n        /* \"#utility.yul\":5505:5518   */\n      dup4\n      mload\n        /* \"#utility.yul\":5464:5480   */\n      swap1\n      dup4\n      add\n      swap1\n        /* \"#utility.yul\":5527:5584   */\n      tag_272\n        /* \"#utility.yul\":5505:5518   */\n      dup2\n        /* \"#utility.yul\":5464:5480   */\n      dup4\n        /* \"#utility.yul\":5561:5565   */\n      0x20\n        /* \"#utility.yul\":5549:5566   */\n      dup9\n      add\n        /* \"#utility.yul\":5527:5584   */\n      tag_211\n      jump\t// in\n    tag_272:\n        /* \"#utility.yul\":5600:5620   */\n      add\n      swap5\n        /* \"#utility.yul\":5156:5626   */\n      swap4\n      pop\n      pop\n      pop\n      pop\n      jump\t// out\n        /* \"#utility.yul\":5631:6120   */\n    tag_191:\n      sub(shl(0xa0, 0x01), 0x01)\n        /* \"#utility.yul\":5900:5915   */\n      dup6\n      dup2\n      and\n        /* \"#utility.yul\":5882:5916   */\n      dup3\n      mstore\n        /* \"#utility.yul\":5952:5967   */\n      dup5\n      and\n        /* \"#utility.yul\":5947:5949   */\n      0x20\n        /* \"#utility.yul\":5932:5950   */\n      dup3\n      add\n        /* \"#utility.yul\":5925:5968   */\n      mstore\n        /* \"#utility.yul\":5999:6001   */\n      0x40\n        /* \"#utility.yul\":5984:6002   */\n      dup2\n      add\n        /* \"#utility.yul\":5977:6011   */\n      dup4\n      swap1\n      mstore\n        /* \"#utility.yul\":6047:6050   */\n      0x80\n        /* \"#utility.yul\":6042:6044   */\n      0x60\n        /* \"#utility.yul\":6027:6045   */\n      dup3\n      add\n        /* \"#utility.yul\":6020:6051   */\n      dup2\n      swap1\n      mstore\n        /* \"#utility.yul\":5825:5829   */\n      0x00\n      swap1\n        /* \"#utility.yul\":6068:6114   */\n      tag_274\n      swap1\n        /* \"#utility.yul\":6094:6113   */\n      dup4\n      add\n        /* \"#utility.yul\":6086:6092   */\n      dup5\n        /* \"#utility.yul\":6068:6114   */\n      tag_212\n      jump\t// in\n    tag_274:\n        /* \"#utility.yul\":6060:6114   */\n      swap7\n        /* \"#utility.yul\":5631:6120   */\n      swap6\n      pop\n      pop\n      pop\n      pop\n      pop\n      pop\n      jump\t// out\n        /* \"#utility.yul\":6125:6374   */\n    tag_194:\n        /* \"#utility.yul\":6194:6200   */\n      0x00\n        /* \"#utility.yul\":6247:6249   */\n      0x20\n        /* \"#utility.yul\":6235:6244   */\n      dup3\n        /* \"#utility.yul\":6226:6233   */\n      dup5\n        /* \"#utility.yul\":6222:6245   */\n      sub\n        /* \"#utility.yul\":6218:6250   */\n      slt\n        /* \"#utility.yul\":6215:6267   */\n      iszero\n      tag_276\n      jumpi\n        /* \"#utility.yul\":6263:6264   */\n      0x00\n        /* \"#utility.yul\":6260:6261   */\n      dup1\n        /* \"#utility.yul\":6253:6265   */\n      revert\n        /* \"#utility.yul\":6215:6267   */\n    tag_276:\n        /* \"#utility.yul\":6295:6304   */\n      dup2\n        /* \"#utility.yul\":6289:6305   */\n      mload\n        /* \"#utility.yul\":6314:6344   */\n      tag_161\n        /* \"#utility.yul\":6338:6343   */\n      dup2\n        /* \"#utility.yul\":6314:6344   */\n      tag_210\n      jump\t// in\n\n    auxdata: 0xa2646970667358221220113b81d1a5a20c7fe0271c8de1004c0e4d3861dd04dc4ef941abcd61c7145f4b64736f6c634300080f0033\n}\n",
				"bytecode": {
					"linkReferences": {},
					"object": "60806040523480156200001157600080fd5b506040516200101d3803806200101d83398101604081905262000034916200012b565b600262000042838262000224565b50600362000051828262000224565b50506000805550620002f0565b634e487b7160e01b600052604160045260246000fd5b600082601f8301126200008657600080fd5b81516001600160401b0380821115620000a357620000a36200005e565b604051601f8301601f19908116603f01168101908282118183101715620000ce57620000ce6200005e565b81604052838152602092508683858801011115620000eb57600080fd5b600091505b838210156200010f5785820183015181830184015290820190620000f0565b83821115620001215760008385830101525b9695505050505050565b600080604083850312156200013f57600080fd5b82516001600160401b03808211156200015757600080fd5b620001658683870162000074565b935060208501519150808211156200017c57600080fd5b506200018b8582860162000074565b9150509250929050565b600181811c90821680620001aa57607f821691505b602082108103620001cb57634e487b7160e01b600052602260045260246000fd5b50919050565b601f8211156200021f57600081815260208120601f850160051c81016020861015620001fa5750805b601f850160051c820191505b818110156200021b5782815560010162000206565b5050505b505050565b81516001600160401b038111156200024057620002406200005e565b620002588162000251845462000195565b84620001d1565b602080601f831160018114620002905760008415620002775750858301515b600019600386901b1c1916600185901b1785556200021b565b600085815260208120601f198616915b82811015620002c157888601518255948401946001909101908401620002a0565b5085821015620002e05787850151600019600388901b60f8161c191681555b5050505050600190811b01905550565b610d1d80620003006000396000f3fe608060405234801561001057600080fd5b50600436106100ea5760003560e01c80636352211e1161008c578063a22cb46511610066578063a22cb465146101d6578063b88d4fde146101e9578063c87b56dd146101fc578063e985e9c51461020f57600080fd5b80636352211e146101a857806370a08231146101bb57806395d89b41146101ce57600080fd5b8063095ea7b3116100c8578063095ea7b31461015757806318160ddd1461016c57806323b872dd1461018257806342842e0e1461019557600080fd5b806301ffc9a7146100ef57806306fdde0314610117578063081812fc1461012c575b600080fd5b6101026100fd366004610985565b61024b565b60405190151581526020015b60405180910390f35b61011f61029d565b60405161010e91906109fa565b61013f61013a366004610a0d565b61032f565b6040516001600160a01b03909116815260200161010e565b61016a610165366004610a42565b610373565b005b600154600054035b60405190815260200161010e565b61016a610190366004610a6c565b610413565b61016a6101a3366004610a6c565b6105ab565b61013f6101b6366004610a0d565b6105cb565b6101746101c9366004610aa8565b6105d6565b61011f610625565b61016a6101e4366004610ac3565b610634565b61016a6101f7366004610b15565b6106c9565b61011f61020a366004610a0d565b610713565b61010261021d366004610bf1565b6001600160a01b03918216600090815260076020908152604080832093909416825291909152205460ff1690565b60006301ffc9a760e01b6001600160e01b03198316148061027c57506380ac58cd60e01b6001600160e01b03198316145b806102975750635b5e139f60e01b6001600160e01b03198316145b92915050565b6060600280546102ac90610c24565b80601f01602080910402602001604051908101604052809291908181526020018280546102d890610c24565b80156103255780601f106102fa57610100808354040283529160200191610325565b820191906000526020600020905b81548152906001019060200180831161030857829003601f168201915b5050505050905090565b600061033a826107a4565b610357576040516333d1c03960e21b815260040160405180910390fd5b506000908152600660205260409020546001600160a01b031690565b600061037e826105cb565b9050336001600160a01b038216146103b75761039a813361021d565b6103b7576040516367d9dca160e11b815260040160405180910390fd5b60008281526006602052604080822080546001600160a01b0319166001600160a01b0387811691821790925591518593918516917f8c5be1e5ebec7d5bd14f71427d1e84f3dd0314c0f7b2291e5b200ac8c7c3b92591a4505050565b600061041e826107cb565b9050836001600160a01b0316816001600160a01b0316146104515760405162a1148160e81b815260040160405180910390fd5b60008281526006602052604090208054338082146001600160a01b0388169091141761049e57610481863361021d565b61049e57604051632ce44b5f60e11b815260040160405180910390fd5b6001600160a01b0385166104c557604051633a954ecd60e21b815260040160405180910390fd5b80156104d057600082555b6001600160a01b038681166000908152600560205260408082208054600019019055918716808252919020805460010190554260a01b17600160e11b17600085815260046020526040812091909155600160e11b84169003610562576001840160008181526004602052604081205490036105605760005481146105605760008181526004602052604090208490555b505b83856001600160a01b0316876001600160a01b03167fddf252ad1be2c89b69c2b068fc378daa952ba7f163c4a11628f55a4df523b3ef60405160405180910390a4505050505050565b6105c6838383604051806020016040528060008152506106c9565b505050565b6000610297826107cb565b60006001600160a01b0382166105ff576040516323d3ad8160e21b815260040160405180910390fd5b506001600160a01b031660009081526005602052604090205467ffffffffffffffff1690565b6060600380546102ac90610c24565b336001600160a01b0383160361065d5760405163b06307db60e01b815260040160405180910390fd5b3360008181526007602090815260408083206001600160a01b03871680855290835292819020805460ff191686151590811790915590519081529192917f17307eab39ab6107e8899845ad3d59bd9653f200f220920489ca2b5937696c31910160405180910390a35050565b6106d4848484610413565b6001600160a01b0383163b1561070d576106f084848484610832565b61070d576040516368d2bf6b60e11b815260040160405180910390fd5b50505050565b606061071e826107a4565b61073b57604051630a14c4b560e41b815260040160405180910390fd5b600061075260408051602081019091526000815290565b90508051600003610772576040518060200160405280600081525061079d565b8061077c8461091d565b60405160200161078d929190610c5e565b6040516020818303038152906040525b9392505050565b6000805482108015610297575050600090815260046020526040902054600160e01b161590565b6000816000548110156108195760008181526004602052604081205490600160e01b82169003610817575b8060000361079d5750600019016000818152600460205260409020546107f6565b505b604051636f96cda160e11b815260040160405180910390fd5b604051630a85bd0160e11b81526000906001600160a01b0385169063150b7a0290610867903390899088908890600401610c8d565b6020604051808303816000875af19250505080156108a2575060408051601f3d908101601f1916820190925261089f91810190610cca565b60015b610900573d8080156108d0576040519150601f19603f3d011682016040523d82523d6000602084013e6108d5565b606091505b5080516000036108f8576040516368d2bf6b60e11b815260040160405180910390fd5b805181602001fd5b6001600160e01b031916630a85bd0160e11b149050949350505050565b604080516080810191829052607f0190826030600a8206018353600a90045b801561095a57600183039250600a81066030018353600a900461093c565b50819003601f19909101908152919050565b6001600160e01b03198116811461098257600080fd5b50565b60006020828403121561099757600080fd5b813561079d8161096c565b60005b838110156109bd5781810151838201526020016109a5565b8381111561070d5750506000910152565b600081518084526109e68160208601602086016109a2565b601f01601f19169290920160200192915050565b60208152600061079d60208301846109ce565b600060208284031215610a1f57600080fd5b5035919050565b80356001600160a01b0381168114610a3d57600080fd5b919050565b60008060408385031215610a5557600080fd5b610a5e83610a26565b946020939093013593505050565b600080600060608486031215610a8157600080fd5b610a8a84610a26565b9250610a9860208501610a26565b9150604084013590509250925092565b600060208284031215610aba57600080fd5b61079d82610a26565b60008060408385031215610ad657600080fd5b610adf83610a26565b915060208301358015158114610af457600080fd5b809150509250929050565b634e487b7160e01b600052604160045260246000fd5b60008060008060808587031215610b2b57600080fd5b610b3485610a26565b9350610b4260208601610a26565b925060408501359150606085013567ffffffffffffffff80821115610b6657600080fd5b818701915087601f830112610b7a57600080fd5b813581811115610b8c57610b8c610aff565b604051601f8201601f19908116603f01168101908382118183101715610bb457610bb4610aff565b816040528281528a6020848701011115610bcd57600080fd5b82602086016020830137600060208483010152809550505050505092959194509250565b60008060408385031215610c0457600080fd5b610c0d83610a26565b9150610c1b60208401610a26565b90509250929050565b600181811c90821680610c3857607f821691505b602082108103610c5857634e487b7160e01b600052602260045260246000fd5b50919050565b60008351610c708184602088016109a2565b835190830190610c848183602088016109a2565b01949350505050565b6001600160a01b0385811682528416602082015260408101839052608060608201819052600090610cc0908301846109ce565b9695505050505050565b600060208284031215610cdc57600080fd5b815161079d8161096c56fea2646970667358221220113b81d1a5a20c7fe0271c8de1004c0e4d3861dd04dc4ef941abcd61c7145f4b64736f6c634300080f0033",
					"opcodes": "PUSH1 0x80 PUSH1 0x40 MSTORE CALLVALUE DUP1 ISZERO PUSH3 0x11 JUMPI PUSH1 0x0 DUP1 REVERT JUMPDEST POP PUSH1 0x40 MLOAD PUSH3 0x101D CODESIZE SUB DUP1 PUSH3 0x101D DUP4 CODECOPY DUP2 ADD PUSH1 0x40 DUP2 SWAP1 MSTORE PUSH3 0x34 SWAP2 PUSH3 0x12B JUMP JUMPDEST PUSH1 0x2 PUSH3 0x42 DUP4 DUP3 PUSH3 0x224 JUMP JUMPDEST POP PUSH1 0x3 PUSH3 0x51 DUP3 DUP3 PUSH3 0x224 JUMP JUMPDEST POP POP PUSH1 0x0 DUP1 SSTORE POP PUSH3 0x2F0 JUMP JUMPDEST PUSH4 0x4E487B71 PUSH1 0xE0 SHL PUSH1 0x0 MSTORE PUSH1 0x41 PUSH1 0x4 MSTORE PUSH1 0x24 PUSH1 0x0 REVERT JUMPDEST PUSH1 0x0 DUP3 PUSH1 0x1F DUP4 ADD SLT PUSH3 0x86 JUMPI PUSH1 0x0 DUP1 REVERT JUMPDEST DUP2 MLOAD PUSH1 0x1 PUSH1 0x1 PUSH1 0x40 SHL SUB DUP1 DUP3 GT ISZERO PUSH3 0xA3 JUMPI PUSH3 0xA3 PUSH3 0x5E JUMP JUMPDEST PUSH1 0x40 MLOAD PUSH1 0x1F DUP4 ADD PUSH1 0x1F NOT SWAP1 DUP2 AND PUSH1 0x3F ADD AND DUP2 ADD SWAP1 DUP3 DUP3 GT DUP2 DUP4 LT OR ISZERO PUSH3 0xCE JUMPI PUSH3 0xCE PUSH3 0x5E JUMP JUMPDEST DUP2 PUSH1 0x40 MSTORE DUP4 DUP2 MSTORE PUSH1 0x20 SWAP3 POP DUP7 DUP4 DUP6 DUP9 ADD ADD GT ISZERO PUSH3 0xEB JUMPI PUSH1 0x0 DUP1 REVERT JUMPDEST PUSH1 0x0 SWAP2 POP JUMPDEST DUP4 DUP3 LT ISZERO PUSH3 0x10F JUMPI DUP6 DUP3 ADD DUP4 ADD MLOAD DUP2 DUP4 ADD DUP5 ADD MSTORE SWAP1 DUP3 ADD SWAP1 PUSH3 0xF0 JUMP JUMPDEST DUP4 DUP3 GT ISZERO PUSH3 0x121 JUMPI PUSH1 0x0 DUP4 DUP6 DUP4 ADD ADD MSTORE JUMPDEST SWAP7 SWAP6 POP POP POP POP POP POP JUMP JUMPDEST PUSH1 0x0 DUP1 PUSH1 0x40 DUP4 DUP6 SUB SLT ISZERO PUSH3 0x13F JUMPI PUSH1 0x0 DUP1 REVERT JUMPDEST DUP3 MLOAD PUSH1 0x1 PUSH1 0x1 PUSH1 0x40 SHL SUB DUP1 DUP3 GT ISZERO PUSH3 0x157 JUMPI PUSH1 0x0 DUP1 REVERT JUMPDEST PUSH3 0x165 DUP7 DUP4 DUP8 ADD PUSH3 0x74 JUMP JUMPDEST SWAP4 POP PUSH1 0x20 DUP6 ADD MLOAD SWAP2 POP DUP1 DUP3 GT ISZERO PUSH3 0x17C JUMPI PUSH1 0x0 DUP1 REVERT JUMPDEST POP PUSH3 0x18B DUP6 DUP3 DUP7 ADD PUSH3 0x74 JUMP JUMPDEST SWAP2 POP POP SWAP3 POP SWAP3 SWAP1 POP JUMP JUMPDEST PUSH1 0x1 DUP2 DUP2 SHR SWAP1 DUP3 AND DUP1 PUSH3 0x1AA JUMPI PUSH1 0x7F DUP3 AND SWAP2 POP JUMPDEST PUSH1 0x20 DUP3 LT DUP2 SUB PUSH3 0x1CB JUMPI PUSH4 0x4E487B71 PUSH1 0xE0 SHL PUSH1 0x0 MSTORE PUSH1 0x22 PUSH1 0x4 MSTORE PUSH1 0x24 PUSH1 0x0 REVERT JUMPDEST POP SWAP2 SWAP1 POP JUMP JUMPDEST PUSH1 0x1F DUP3 GT ISZERO PUSH3 0x21F JUMPI PUSH1 0x0 DUP2 DUP2 MSTORE PUSH1 0x20 DUP2 KECCAK256 PUSH1 0x1F DUP6 ADD PUSH1 0x5 SHR DUP2 ADD PUSH1 0x20 DUP7 LT ISZERO PUSH3 0x1FA JUMPI POP DUP1 JUMPDEST PUSH1 0x1F DUP6 ADD PUSH1 0x5 SHR DUP3 ADD SWAP2 POP JUMPDEST DUP2 DUP2 LT ISZERO PUSH3 0x21B JUMPI DUP3 DUP2 SSTORE PUSH1 0x1 ADD PUSH3 0x206 JUMP JUMPDEST POP POP POP JUMPDEST POP POP POP JUMP JUMPDEST DUP2 MLOAD PUSH1 0x1 PUSH1 0x1 PUSH1 0x40 SHL SUB DUP2 GT ISZERO PUSH3 0x240 JUMPI PUSH3 0x240 PUSH3 0x5E JUMP JUMPDEST PUSH3 0x258 DUP2 PUSH3 0x251 DUP5 SLOAD PUSH3 0x195 JUMP JUMPDEST DUP5 PUSH3 0x1D1 JUMP JUMPDEST PUSH1 0x20 DUP1 PUSH1 0x1F DUP4 GT PUSH1 0x1 DUP2 EQ PUSH3 0x290 JUMPI PUSH1 0x0 DUP5 ISZERO PUSH3 0x277 JUMPI POP DUP6 DUP4 ADD MLOAD JUMPDEST PUSH1 0x0 NOT PUSH1 0x3 DUP7 SWAP1 SHL SHR NOT AND PUSH1 0x1 DUP6 SWAP1 SHL OR DUP6 SSTORE PUSH3 0x21B JUMP JUMPDEST PUSH1 0x0 DUP6 DUP2 MSTORE PUSH1 0x20 DUP2 KECCAK256 PUSH1 0x1F NOT DUP7 AND SWAP2 JUMPDEST DUP3 DUP2 LT ISZERO PUSH3 0x2C1 JUMPI DUP9 DUP7 ADD MLOAD DUP3 SSTORE SWAP5 DUP5 ADD SWAP5 PUSH1 0x1 SWAP1 SWAP2 ADD SWAP1 DUP5 ADD PUSH3 0x2A0 JUMP JUMPDEST POP DUP6 DUP3 LT ISZERO PUSH3 0x2E0 JUMPI DUP8 DUP6 ADD MLOAD PUSH1 0x0 NOT PUSH1 0x3 DUP9 SWAP1 SHL PUSH1 0xF8 AND SHR NOT AND DUP2 SSTORE JUMPDEST POP POP POP POP POP PUSH1 0x1 SWAP1 DUP2 SHL ADD SWAP1 SSTORE POP JUMP JUMPDEST PUSH2 0xD1D DUP1 PUSH3 0x300 PUSH1 0x0 CODECOPY PUSH1 0x0 RETURN INVALID PUSH1 0x80 PUSH1 0x40 MSTORE CALLVALUE DUP1 ISZERO PUSH2 0x10 JUMPI PUSH1 0x0 DUP1 REVERT JUMPDEST POP PUSH1 0x4 CALLDATASIZE LT PUSH2 0xEA JUMPI PUSH1 0x0 CALLDATALOAD PUSH1 0xE0 SHR DUP1 PUSH4 0x6352211E GT PUSH2 0x8C JUMPI DUP1 PUSH4 0xA22CB465 GT PUSH2 0x66 JUMPI DUP1 PUSH4 0xA22CB465 EQ PUSH2 0x1D6 JUMPI DUP1 PUSH4 0xB88D4FDE EQ PUSH2 0x1E9 JUMPI DUP1 PUSH4 0xC87B56DD EQ PUSH2 0x1FC JUMPI DUP1 PUSH4 0xE985E9C5 EQ PUSH2 0x20F JUMPI PUSH1 0x0 DUP1 REVERT JUMPDEST DUP1 PUSH4 0x6352211E EQ PUSH2 0x1A8 JUMPI DUP1 PUSH4 0x70A08231 EQ PUSH2 0x1BB JUMPI DUP1 PUSH4 0x95D89B41 EQ PUSH2 0x1CE JUMPI PUSH1 0x0 DUP1 REVERT JUMPDEST DUP1 PUSH4 0x95EA7B3 GT PUSH2 0xC8 JUMPI DUP1 PUSH4 0x95EA7B3 EQ PUSH2 0x157 JUMPI DUP1 PUSH4 0x18160DDD EQ PUSH2 0x16C JUMPI DUP1 PUSH4 0x23B872DD EQ PUSH2 0x182 JUMPI DUP1 PUSH4 0x42842E0E EQ PUSH2 0x195 JUMPI PUSH1 0x0 DUP1 REVERT JUMPDEST DUP1 PUSH4 0x1FFC9A7 EQ PUSH2 0xEF JUMPI DUP1 PUSH4 0x6FDDE03 EQ PUSH2 0x117 JUMPI DUP1 PUSH4 0x81812FC EQ PUSH2 0x12C JUMPI JUMPDEST PUSH1 0x0 DUP1 REVERT JUMPDEST PUSH2 0x102 PUSH2 0xFD CALLDATASIZE PUSH1 0x4 PUSH2 0x985 JUMP JUMPDEST PUSH2 0x24B JUMP JUMPDEST PUSH1 0x40 MLOAD SWAP1 ISZERO ISZERO DUP2 MSTORE PUSH1 0x20 ADD JUMPDEST PUSH1 0x40 MLOAD DUP1 SWAP2 SUB SWAP1 RETURN JUMPDEST PUSH2 0x11F PUSH2 0x29D JUMP JUMPDEST PUSH1 0x40 MLOAD PUSH2 0x10E SWAP2 SWAP1 PUSH2 0x9FA JUMP JUMPDEST PUSH2 0x13F PUSH2 0x13A CALLDATASIZE PUSH1 0x4 PUSH2 0xA0D JUMP JUMPDEST PUSH2 0x32F JUMP JUMPDEST PUSH1 0x40 MLOAD PUSH1 0x1 PUSH1 0x1 PUSH1 0xA0 SHL SUB SWAP1 SWAP2 AND DUP2 MSTORE PUSH1 0x20 ADD PUSH2 0x10E JUMP JUMPDEST PUSH2 0x16A PUSH2 0x165 CALLDATASIZE PUSH1 0x4 PUSH2 0xA42 JUMP JUMPDEST PUSH2 0x373 JUMP JUMPDEST STOP JUMPDEST PUSH1 0x1 SLOAD PUSH1 0x0 SLOAD SUB JUMPDEST PUSH1 0x40 MLOAD SWAP1 DUP2 MSTORE PUSH1 0x20 ADD PUSH2 0x10E JUMP JUMPDEST PUSH2 0x16A PUSH2 0x190 CALLDATASIZE PUSH1 0x4 PUSH2 0xA6C JUMP JUMPDEST PUSH2 0x413 JUMP JUMPDEST PUSH2 0x16A PUSH2 0x1A3 CALLDATASIZE PUSH1 0x4 PUSH2 0xA6C JUMP JUMPDEST PUSH2 0x5AB JUMP JUMPDEST PUSH2 0x13F PUSH2 0x1B6 CALLDATASIZE PUSH1 0x4 PUSH2 0xA0D JUMP JUMPDEST PUSH2 0x5CB JUMP JUMPDEST PUSH2 0x174 PUSH2 0x1C9 CALLDATASIZE PUSH1 0x4 PUSH2 0xAA8 JUMP JUMPDEST PUSH2 0x5D6 JUMP JUMPDEST PUSH2 0x11F PUSH2 0x625 JUMP JUMPDEST PUSH2 0x16A PUSH2 0x1E4 CALLDATASIZE PUSH1 0x4 PUSH2 0xAC3 JUMP JUMPDEST PUSH2 0x634 JUMP JUMPDEST PUSH2 0x16A PUSH2 0x1F7 CALLDATASIZE PUSH1 0x4 PUSH2 0xB15 JUMP JUMPDEST PUSH2 0x6C9 JUMP JUMPDEST PUSH2 0x11F PUSH2 0x20A CALLDATASIZE PUSH1 0x4 PUSH2 0xA0D JUMP JUMPDEST PUSH2 0x713 JUMP JUMPDEST PUSH2 0x102 PUSH2 0x21D CALLDATASIZE PUSH1 0x4 PUSH2 0xBF1 JUMP JUMPDEST PUSH1 0x1 PUSH1 0x1 PUSH1 0xA0 SHL SUB SWAP2 DUP3 AND PUSH1 0x0 SWAP1 DUP2 MSTORE PUSH1 0x7 PUSH1 0x20 SWAP1 DUP2 MSTORE PUSH1 0x40 DUP1 DUP4 KECCAK256 SWAP4 SWAP1 SWAP5 AND DUP3 MSTORE SWAP2 SWAP1 SWAP2 MSTORE KECCAK256 SLOAD PUSH1 0xFF AND SWAP1 JUMP JUMPDEST PUSH1 0x0 PUSH4 0x1FFC9A7 PUSH1 0xE0 SHL PUSH1 0x1 PUSH1 0x1 PUSH1 0xE0 SHL SUB NOT DUP4 AND EQ DUP1 PUSH2 0x27C JUMPI POP PUSH4 0x80AC58CD PUSH1 0xE0 SHL PUSH1 0x1 PUSH1 0x1 PUSH1 0xE0 SHL SUB NOT DUP4 AND EQ JUMPDEST DUP1 PUSH2 0x297 JUMPI POP PUSH4 0x5B5E139F PUSH1 0xE0 SHL PUSH1 0x1 PUSH1 0x1 PUSH1 0xE0 SHL SUB NOT DUP4 AND EQ JUMPDEST SWAP3 SWAP2 POP POP JUMP JUMPDEST PUSH1 0x60 PUSH1 0x2 DUP1 SLOAD PUSH2 0x2AC SWAP1 PUSH2 0xC24 JUMP JUMPDEST DUP1 PUSH1 0x1F ADD PUSH1 0x20 DUP1 SWAP2 DIV MUL PUSH1 0x20 ADD PUSH1 0x40 MLOAD SWAP1 DUP2 ADD PUSH1 0x40 MSTORE DUP1 SWAP3 SWAP2 SWAP1 DUP2 DUP2 MSTORE PUSH1 0x20 ADD DUP3 DUP1 SLOAD PUSH2 0x2D8 SWAP1 PUSH2 0xC24 JUMP JUMPDEST DUP1 ISZERO PUSH2 0x325 JUMPI DUP1 PUSH1 0x1F LT PUSH2 0x2FA JUMPI PUSH2 0x100 DUP1 DUP4 SLOAD DIV MUL DUP4 MSTORE SWAP2 PUSH1 0x20 ADD SWAP2 PUSH2 0x325 JUMP JUMPDEST DUP3 ADD SWAP2 SWAP1 PUSH1 0x0 MSTORE PUSH1 0x20 PUSH1 0x0 KECCAK256 SWAP1 JUMPDEST DUP2 SLOAD DUP2 MSTORE SWAP1 PUSH1 0x1 ADD SWAP1 PUSH1 0x20 ADD DUP1 DUP4 GT PUSH2 0x308 JUMPI DUP3 SWAP1 SUB PUSH1 0x1F AND DUP3 ADD SWAP2 JUMPDEST POP POP POP POP POP SWAP1 POP SWAP1 JUMP JUMPDEST PUSH1 0x0 PUSH2 0x33A DUP3 PUSH2 0x7A4 JUMP JUMPDEST PUSH2 0x357 JUMPI PUSH1 0x40 MLOAD PUSH4 0x33D1C039 PUSH1 0xE2 SHL DUP2 MSTORE PUSH1 0x4 ADD PUSH1 0x40 MLOAD DUP1 SWAP2 SUB SWAP1 REVERT JUMPDEST POP PUSH1 0x0 SWAP1 DUP2 MSTORE PUSH1 0x6 PUSH1 0x20 MSTORE PUSH1 0x40 SWAP1 KECCAK256 SLOAD PUSH1 0x1 PUSH1 0x1 PUSH1 0xA0 SHL SUB AND SWAP1 JUMP JUMPDEST PUSH1 0x0 PUSH2 0x37E DUP3 PUSH2 0x5CB JUMP JUMPDEST SWAP1 POP CALLER PUSH1 0x1 PUSH1 0x1 PUSH1 0xA0 SHL SUB DUP3 AND EQ PUSH2 0x3B7 JUMPI PUSH2 0x39A DUP2 CALLER PUSH2 0x21D JUMP JUMPDEST PUSH2 0x3B7 JUMPI PUSH1 0x40 MLOAD PUSH4 0x67D9DCA1 PUSH1 0xE1 SHL DUP2 MSTORE PUSH1 0x4 ADD PUSH1 0x40 MLOAD DUP1 SWAP2 SUB SWAP1 REVERT JUMPDEST PUSH1 0x0 DUP3 DUP2 MSTORE PUSH1 0x6 PUSH1 0x20 MSTORE PUSH1 0x40 DUP1 DUP3 KECCAK256 DUP1 SLOAD PUSH1 0x1 PUSH1 0x1 PUSH1 0xA0 SHL SUB NOT AND PUSH1 0x1 PUSH1 0x1 PUSH1 0xA0 SHL SUB DUP8 DUP2 AND SWAP2 DUP3 OR SWAP1 SWAP3 SSTORE SWAP2 MLOAD DUP6 SWAP4 SWAP2 DUP6 AND SWAP2 PUSH32 0x8C5BE1E5EBEC7D5BD14F71427D1E84F3DD0314C0F7B2291E5B200AC8C7C3B925 SWAP2 LOG4 POP POP POP JUMP JUMPDEST PUSH1 0x0 PUSH2 0x41E DUP3 PUSH2 0x7CB JUMP JUMPDEST SWAP1 POP DUP4 PUSH1 0x1 PUSH1 0x1 PUSH1 0xA0 SHL SUB AND DUP2 PUSH1 0x1 PUSH1 0x1 PUSH1 0xA0 SHL SUB AND EQ PUSH2 0x451 JUMPI PUSH1 0x40 MLOAD PUSH3 0xA11481 PUSH1 0xE8 SHL DUP2 MSTORE PUSH1 0x4 ADD PUSH1 0x40 MLOAD DUP1 SWAP2 SUB SWAP1 REVERT JUMPDEST PUSH1 0x0 DUP3 DUP2 MSTORE PUSH1 0x6 PUSH1 0x20 MSTORE PUSH1 0x40 SWAP1 KECCAK256 DUP1 SLOAD CALLER DUP1 DUP3 EQ PUSH1 0x1 PUSH1 0x1 PUSH1 0xA0 SHL SUB DUP9 AND SWAP1 SWAP2 EQ OR PUSH2 0x49E JUMPI PUSH2 0x481 DUP7 CALLER PUSH2 0x21D JUMP JUMPDEST PUSH2 0x49E JUMPI PUSH1 0x40 MLOAD PUSH4 0x2CE44B5F PUSH1 0xE1 SHL DUP2 MSTORE PUSH1 0x4 ADD PUSH1 0x40 MLOAD DUP1 SWAP2 SUB SWAP1 REVERT JUMPDEST PUSH1 0x1 PUSH1 0x1 PUSH1 0xA0 SHL SUB DUP6 AND PUSH2 0x4C5 JUMPI PUSH1 0x40 MLOAD PUSH4 0x3A954ECD PUSH1 0xE2 SHL DUP2 MSTORE PUSH1 0x4 ADD PUSH1 0x40 MLOAD DUP1 SWAP2 SUB SWAP1 REVERT JUMPDEST DUP1 ISZERO PUSH2 0x4D0 JUMPI PUSH1 0x0 DUP3 SSTORE JUMPDEST PUSH1 0x1 PUSH1 0x1 PUSH1 0xA0 SHL SUB DUP7 DUP2 AND PUSH1 0x0 SWAP1 DUP2 MSTORE PUSH1 0x5 PUSH1 0x20 MSTORE PUSH1 0x40 DUP1 DUP3 KECCAK256 DUP1 SLOAD PUSH1 0x0 NOT ADD SWAP1 SSTORE SWAP2 DUP8 AND DUP1 DUP3 MSTORE SWAP2 SWAP1 KECCAK256 DUP1 SLOAD PUSH1 0x1 ADD SWAP1 SSTORE TIMESTAMP PUSH1 0xA0 SHL OR PUSH1 0x1 PUSH1 0xE1 SHL OR PUSH1 0x0 DUP6 DUP2 MSTORE PUSH1 0x4 PUSH1 0x20 MSTORE PUSH1 0x40 DUP2 KECCAK256 SWAP2 SWAP1 SWAP2 SSTORE PUSH1 0x1 PUSH1 0xE1 SHL DUP5 AND SWAP1 SUB PUSH2 0x562 JUMPI PUSH1 0x1 DUP5 ADD PUSH1 0x0 DUP2 DUP2 MSTORE PUSH1 0x4 PUSH1 0x20 MSTORE PUSH1 0x40 DUP2 KECCAK256 SLOAD SWAP1 SUB PUSH2 0x560 JUMPI PUSH1 0x0 SLOAD DUP2 EQ PUSH2 0x560 JUMPI PUSH1 0x0 DUP2 DUP2 MSTORE PUSH1 0x4 PUSH1 0x20 MSTORE PUSH1 0x40 SWAP1 KECCAK256 DUP5 SWAP1 SSTORE JUMPDEST POP JUMPDEST DUP4 DUP6 PUSH1 0x1 PUSH1 0x1 PUSH1 0xA0 SHL SUB AND DUP8 PUSH1 0x1 PUSH1 0x1 PUSH1 0xA0 SHL SUB AND PUSH32 0xDDF252AD1BE2C89B69C2B068FC378DAA952BA7F163C4A11628F55A4DF523B3EF PUSH1 0x40 MLOAD PUSH1 0x40 MLOAD DUP1 SWAP2 SUB SWAP1 LOG4 POP POP POP POP POP POP JUMP JUMPDEST PUSH2 0x5C6 DUP4 DUP4 DUP4 PUSH1 0x40 MLOAD DUP1 PUSH1 0x20 ADD PUSH1 0x40 MSTORE DUP1 PUSH1 0x0 DUP2 MSTORE POP PUSH2 0x6C9 JUMP JUMPDEST POP POP POP JUMP JUMPDEST PUSH1 0x0 PUSH2 0x297 DUP3 PUSH2 0x7CB JUMP JUMPDEST PUSH1 0x0 PUSH1 0x1 PUSH1 0x1 PUSH1 0xA0 SHL SUB DUP3 AND PUSH2 0x5FF JUMPI PUSH1 0x40 MLOAD PUSH4 0x23D3AD81 PUSH1 0xE2 SHL DUP2 MSTORE PUSH1 0x4 ADD PUSH1 0x40 MLOAD DUP1 SWAP2 SUB SWAP1 REVERT JUMPDEST POP PUSH1 0x1 PUSH1 0x1 PUSH1 0xA0 SHL SUB AND PUSH1 0x0 SWAP1 DUP2 MSTORE PUSH1 0x5 PUSH1 0x20 MSTORE PUSH1 0x40 SWAP1 KECCAK256 SLOAD PUSH8 0xFFFFFFFFFFFFFFFF AND SWAP1 JUMP JUMPDEST PUSH1 0x60 PUSH1 0x3 DUP1 SLOAD PUSH2 0x2AC SWAP1 PUSH2 0xC24 JUMP JUMPDEST CALLER PUSH1 0x1 PUSH1 0x1 PUSH1 0xA0 SHL SUB DUP4 AND SUB PUSH2 0x65D JUMPI PUSH1 0x40 MLOAD PUSH4 0xB06307DB PUSH1 0xE0 SHL DUP2 MSTORE PUSH1 0x4 ADD PUSH1 0x40 MLOAD DUP1 SWAP2 SUB SWAP1 REVERT JUMPDEST CALLER PUSH1 0x0 DUP2 DUP2 MSTORE PUSH1 0x7 PUSH1 0x20 SWAP1 DUP2 MSTORE PUSH1 0x40 DUP1 DUP4 KECCAK256 PUSH1 0x1 PUSH1 0x1 PUSH1 0xA0 SHL SUB DUP8 AND DUP1 DUP6 MSTORE SWAP1 DUP4 MSTORE SWAP3 DUP2 SWAP1 KECCAK256 DUP1 SLOAD PUSH1 0xFF NOT AND DUP7 ISZERO ISZERO SWAP1 DUP2 OR SWAP1 SWAP2 SSTORE SWAP1 MLOAD SWAP1 DUP2 MSTORE SWAP2 SWAP3 SWAP2 PUSH32 0x17307EAB39AB6107E8899845AD3D59BD9653F200F220920489CA2B5937696C31 SWAP2 ADD PUSH1 0x40 MLOAD DUP1 SWAP2 SUB SWAP1 LOG3 POP POP JUMP JUMPDEST PUSH2 0x6D4 DUP5 DUP5 DUP5 PUSH2 0x413 JUMP JUMPDEST PUSH1 0x1 PUSH1 0x1 PUSH1 0xA0 SHL SUB DUP4 AND EXTCODESIZE ISZERO PUSH2 0x70D JUMPI PUSH2 0x6F0 DUP5 DUP5 DUP5 DUP5 PUSH2 0x832 JUMP JUMPDEST PUSH2 0x70D JUMPI PUSH1 0x40 MLOAD PUSH4 0x68D2BF6B PUSH1 0xE1 SHL DUP2 MSTORE PUSH1 0x4 ADD PUSH1 0x40 MLOAD DUP1 SWAP2 SUB SWAP1 REVERT JUMPDEST POP POP POP POP JUMP JUMPDEST PUSH1 0x60 PUSH2 0x71E DUP3 PUSH2 0x7A4 JUMP JUMPDEST PUSH2 0x73B JUMPI PUSH1 0x40 MLOAD PUSH4 0xA14C4B5 PUSH1 0xE4 SHL DUP2 MSTORE PUSH1 0x4 ADD PUSH1 0x40 MLOAD DUP1 SWAP2 SUB SWAP1 REVERT JUMPDEST PUSH1 0x0 PUSH2 0x752 PUSH1 0x40 DUP1 MLOAD PUSH1 0x20 DUP2 ADD SWAP1 SWAP2 MSTORE PUSH1 0x0 DUP2 MSTORE SWAP1 JUMP JUMPDEST SWAP1 POP DUP1 MLOAD PUSH1 0x0 SUB PUSH2 0x772 JUMPI PUSH1 0x40 MLOAD DUP1 PUSH1 0x20 ADD PUSH1 0x40 MSTORE DUP1 PUSH1 0x0 DUP2 MSTORE POP PUSH2 0x79D JUMP JUMPDEST DUP1 PUSH2 0x77C DUP5 PUSH2 0x91D JUMP JUMPDEST PUSH1 0x40 MLOAD PUSH1 0x20 ADD PUSH2 0x78D SWAP3 SWAP2 SWAP1 PUSH2 0xC5E JUMP JUMPDEST PUSH1 0x40 MLOAD PUSH1 0x20 DUP2 DUP4 SUB SUB DUP2 MSTORE SWAP1 PUSH1 0x40 MSTORE JUMPDEST SWAP4 SWAP3 POP POP POP JUMP JUMPDEST PUSH1 0x0 DUP1 SLOAD DUP3 LT DUP1 ISZERO PUSH2 0x297 JUMPI POP POP PUSH1 0x0 SWAP1 DUP2 MSTORE PUSH1 0x4 PUSH1 0x20 MSTORE PUSH1 0x40 SWAP1 KECCAK256 SLOAD PUSH1 0x1 PUSH1 0xE0 SHL AND ISZERO SWAP1 JUMP JUMPDEST PUSH1 0x0 DUP2 PUSH1 0x0 SLOAD DUP2 LT ISZERO PUSH2 0x819 JUMPI PUSH1 0x0 DUP2 DUP2 MSTORE PUSH1 0x4 PUSH1 0x20 MSTORE PUSH1 0x40 DUP2 KECCAK256 SLOAD SWAP1 PUSH1 0x1 PUSH1 0xE0 SHL DUP3 AND SWAP1 SUB PUSH2 0x817 JUMPI JUMPDEST DUP1 PUSH1 0x0 SUB PUSH2 0x79D JUMPI POP PUSH1 0x0 NOT ADD PUSH1 0x0 DUP2 DUP2 MSTORE PUSH1 0x4 PUSH1 0x20 MSTORE PUSH1 0x40 SWAP1 KECCAK256 SLOAD PUSH2 0x7F6 JUMP JUMPDEST POP JUMPDEST PUSH1 0x40 MLOAD PUSH4 0x6F96CDA1 PUSH1 0xE1 SHL DUP2 MSTORE PUSH1 0x4 ADD PUSH1 0x40 MLOAD DUP1 SWAP2 SUB SWAP1 REVERT JUMPDEST PUSH1 0x40 MLOAD PUSH4 0xA85BD01 PUSH1 0xE1 SHL DUP2 MSTORE PUSH1 0x0 SWAP1 PUSH1 0x1 PUSH1 0x1 PUSH1 0xA0 SHL SUB DUP6 AND SWAP1 PUSH4 0x150B7A02 SWAP1 PUSH2 0x867 SWAP1 CALLER SWAP1 DUP10 SWAP1 DUP9 SWAP1 DUP9 SWAP1 PUSH1 0x4 ADD PUSH2 0xC8D JUMP JUMPDEST PUSH1 0x20 PUSH1 0x40 MLOAD DUP1 DUP4 SUB DUP2 PUSH1 0x0 DUP8 GAS CALL SWAP3 POP POP POP DUP1 ISZERO PUSH2 0x8A2 JUMPI POP PUSH1 0x40 DUP1 MLOAD PUSH1 0x1F RETURNDATASIZE SWAP1 DUP2 ADD PUSH1 0x1F NOT AND DUP3 ADD SWAP1 SWAP3 MSTORE PUSH2 0x89F SWAP2 DUP2 ADD SWAP1 PUSH2 0xCCA JUMP JUMPDEST PUSH1 0x1 JUMPDEST PUSH2 0x900 JUMPI RETURNDATASIZE DUP1 DUP1 ISZERO PUSH2 0x8D0 JUMPI PUSH1 0x40 MLOAD SWAP2 POP PUSH1 0x1F NOT PUSH1 0x3F RETURNDATASIZE ADD AND DUP3 ADD PUSH1 0x40 MSTORE RETURNDATASIZE DUP3 MSTORE RETURNDATASIZE PUSH1 0x0 PUSH1 0x20 DUP5 ADD RETURNDATACOPY PUSH2 0x8D5 JUMP JUMPDEST PUSH1 0x60 SWAP2 POP JUMPDEST POP DUP1 MLOAD PUSH1 0x0 SUB PUSH2 0x8F8 JUMPI PUSH1 0x40 MLOAD PUSH4 0x68D2BF6B PUSH1 0xE1 SHL DUP2 MSTORE PUSH1 0x4 ADD PUSH1 0x40 MLOAD DUP1 SWAP2 SUB SWAP1 REVERT JUMPDEST DUP1 MLOAD DUP2 PUSH1 0x20 ADD REVERT JUMPDEST PUSH1 0x1 PUSH1 0x1 PUSH1 0xE0 SHL SUB NOT AND PUSH4 0xA85BD01 PUSH1 0xE1 SHL EQ SWAP1 POP SWAP5 SWAP4 POP POP POP POP JUMP JUMPDEST PUSH1 0x40 DUP1 MLOAD PUSH1 0x80 DUP2 ADD SWAP2 DUP3 SWAP1 MSTORE PUSH1 0x7F ADD SWAP1 DUP3 PUSH1 0x30 PUSH1 0xA DUP3 MOD ADD DUP4 MSTORE8 PUSH1 0xA SWAP1 DIV JUMPDEST DUP1 ISZERO PUSH2 0x95A JUMPI PUSH1 0x1 DUP4 SUB SWAP3 POP PUSH1 0xA DUP2 MOD PUSH1 0x30 ADD DUP4 MSTORE8 PUSH1 0xA SWAP1 DIV PUSH2 0x93C JUMP JUMPDEST POP DUP2 SWAP1 SUB PUSH1 0x1F NOT SWAP1 SWAP2 ADD SWAP1 DUP2 MSTORE SWAP2 SWAP1 POP JUMP JUMPDEST PUSH1 0x1 PUSH1 0x1 PUSH1 0xE0 SHL SUB NOT DUP2 AND DUP2 EQ PUSH2 0x982 JUMPI PUSH1 0x0 DUP1 REVERT JUMPDEST POP JUMP JUMPDEST PUSH1 0x0 PUSH1 0x20 DUP3 DUP5 SUB SLT ISZERO PUSH2 0x997 JUMPI PUSH1 0x0 DUP1 REVERT JUMPDEST DUP2 CALLDATALOAD PUSH2 0x79D DUP2 PUSH2 0x96C JUMP JUMPDEST PUSH1 0x0 JUMPDEST DUP4 DUP2 LT ISZERO PUSH2 0x9BD JUMPI DUP2 DUP2 ADD MLOAD DUP4 DUP3 ADD MSTORE PUSH1 0x20 ADD PUSH2 0x9A5 JUMP JUMPDEST DUP4 DUP2 GT ISZERO PUSH2 0x70D JUMPI POP POP PUSH1 0x0 SWAP2 ADD MSTORE JUMP JUMPDEST PUSH1 0x0 DUP2 MLOAD DUP1 DUP5 MSTORE PUSH2 0x9E6 DUP2 PUSH1 0x20 DUP7 ADD PUSH1 0x20 DUP7 ADD PUSH2 0x9A2 JUMP JUMPDEST PUSH1 0x1F ADD PUSH1 0x1F NOT AND SWAP3 SWAP1 SWAP3 ADD PUSH1 0x20 ADD SWAP3 SWAP2 POP POP JUMP JUMPDEST PUSH1 0x20 DUP2 MSTORE PUSH1 0x0 PUSH2 0x79D PUSH1 0x20 DUP4 ADD DUP5 PUSH2 0x9CE JUMP JUMPDEST PUSH1 0x0 PUSH1 0x20 DUP3 DUP5 SUB SLT ISZERO PUSH2 0xA1F JUMPI PUSH1 0x0 DUP1 REVERT JUMPDEST POP CALLDATALOAD SWAP2 SWAP1 POP JUMP JUMPDEST DUP1 CALLDATALOAD PUSH1 0x1 PUSH1 0x1 PUSH1 0xA0 SHL SUB DUP2 AND DUP2 EQ PUSH2 0xA3D JUMPI PUSH1 0x0 DUP1 REVERT JUMPDEST SWAP2 SWAP1 POP JUMP JUMPDEST PUSH1 0x0 DUP1 PUSH1 0x40 DUP4 DUP6 SUB SLT ISZERO PUSH2 0xA55 JUMPI PUSH1 0x0 DUP1 REVERT JUMPDEST PUSH2 0xA5E DUP4 PUSH2 0xA26 JUMP JUMPDEST SWAP5 PUSH1 0x20 SWAP4 SWAP1 SWAP4 ADD CALLDATALOAD SWAP4 POP POP POP JUMP JUMPDEST PUSH1 0x0 DUP1 PUSH1 0x0 PUSH1 0x60 DUP5 DUP7 SUB SLT ISZERO PUSH2 0xA81 JUMPI PUSH1 0x0 DUP1 REVERT JUMPDEST PUSH2 0xA8A DUP5 PUSH2 0xA26 JUMP JUMPDEST SWAP3 POP PUSH2 0xA98 PUSH1 0x20 DUP6 ADD PUSH2 0xA26 JUMP JUMPDEST SWAP2 POP PUSH1 0x40 DUP5 ADD CALLDATALOAD SWAP1 POP SWAP3 POP SWAP3 POP SWAP3 JUMP JUMPDEST PUSH1 0x0 PUSH1 0x20 DUP3 DUP5 SUB SLT ISZERO PUSH2 0xABA JUMPI PUSH1 0x0 DUP1 REVERT JUMPDEST PUSH2 0x79D DUP3 PUSH2 0xA26 JUMP JUMPDEST PUSH1 0x0 DUP1 PUSH1 0x40 DUP4 DUP6 SUB SLT ISZERO PUSH2 0xAD6 JUMPI PUSH1 0x0 DUP1 REVERT JUMPDEST PUSH2 0xADF DUP4 PUSH2 0xA26 JUMP JUMPDEST SWAP2 POP PUSH1 0x20 DUP4 ADD CALLDATALOAD DUP1 ISZERO ISZERO DUP2 EQ PUSH2 0xAF4 JUMPI PUSH1 0x0 DUP1 REVERT JUMPDEST DUP1 SWAP2 POP POP SWAP3 POP SWAP3 SWAP1 POP JUMP JUMPDEST PUSH4 0x4E487B71 PUSH1 0xE0 SHL PUSH1 0x0 MSTORE PUSH1 0x41 PUSH1 0x4 MSTORE PUSH1 0x24 PUSH1 0x0 REVERT JUMPDEST PUSH1 0x0 DUP1 PUSH1 0x0 DUP1 PUSH1 0x80 DUP6 DUP8 SUB SLT ISZERO PUSH2 0xB2B JUMPI PUSH1 0x0 DUP1 REVERT JUMPDEST PUSH2 0xB34 DUP6 PUSH2 0xA26 JUMP JUMPDEST SWAP4 POP PUSH2 0xB42 PUSH1 0x20 DUP7 ADD PUSH2 0xA26 JUMP JUMPDEST SWAP3 POP PUSH1 0x40 DUP6 ADD CALLDATALOAD SWAP2 POP PUSH1 0x60 DUP6 ADD CALLDATALOAD PUSH8 0xFFFFFFFFFFFFFFFF DUP1 DUP3 GT ISZERO PUSH2 0xB66 JUMPI PUSH1 0x0 DUP1 REVERT JUMPDEST DUP2 DUP8 ADD SWAP2 POP DUP8 PUSH1 0x1F DUP4 ADD SLT PUSH2 0xB7A JUMPI PUSH1 0x0 DUP1 REVERT JUMPDEST DUP2 CALLDATALOAD DUP2 DUP2 GT ISZERO PUSH2 0xB8C JUMPI PUSH2 0xB8C PUSH2 0xAFF JUMP JUMPDEST PUSH1 0x40 MLOAD PUSH1 0x1F DUP3 ADD PUSH1 0x1F NOT SWAP1 DUP2 AND PUSH1 0x3F ADD AND DUP2 ADD SWAP1 DUP4 DUP3 GT DUP2 DUP4 LT OR ISZERO PUSH2 0xBB4 JUMPI PUSH2 0xBB4 PUSH2 0xAFF JUMP JUMPDEST DUP2 PUSH1 0x40 MSTORE DUP3 DUP2 MSTORE DUP11 PUSH1 0x20 DUP5 DUP8 ADD ADD GT ISZERO PUSH2 0xBCD JUMPI PUSH1 0x0 DUP1 REVERT JUMPDEST DUP3 PUSH1 0x20 DUP7 ADD PUSH1 0x20 DUP4 ADD CALLDATACOPY PUSH1 0x0 PUSH1 0x20 DUP5 DUP4 ADD ADD MSTORE DUP1 SWAP6 POP POP POP POP POP POP SWAP3 SWAP6 SWAP2 SWAP5 POP SWAP3 POP JUMP JUMPDEST PUSH1 0x0 DUP1 PUSH1 0x40 DUP4 DUP6 SUB SLT ISZERO PUSH2 0xC04 JUMPI PUSH1 0x0 DUP1 REVERT JUMPDEST PUSH2 0xC0D DUP4 PUSH2 0xA26 JUMP JUMPDEST SWAP2 POP PUSH2 0xC1B PUSH1 0x20 DUP5 ADD PUSH2 0xA26 JUMP JUMPDEST SWAP1 POP SWAP3 POP SWAP3 SWAP1 POP JUMP JUMPDEST PUSH1 0x1 DUP2 DUP2 SHR SWAP1 DUP3 AND DUP1 PUSH2 0xC38 JUMPI PUSH1 0x7F DUP3 AND SWAP2 POP JUMPDEST PUSH1 0x20 DUP3 LT DUP2 SUB PUSH2 0xC58 JUMPI PUSH4 0x4E487B71 PUSH1 0xE0 SHL PUSH1 0x0 MSTORE PUSH1 0x22 PUSH1 0x4 MSTORE PUSH1 0x24 PUSH1 0x0 REVERT JUMPDEST POP SWAP2 SWAP1 POP JUMP JUMPDEST PUSH1 0x0 DUP4 MLOAD PUSH2 0xC70 DUP2 DUP5 PUSH1 0x20 DUP9 ADD PUSH2 0x9A2 JUMP JUMPDEST DUP4 MLOAD SWAP1 DUP4 ADD SWAP1 PUSH2 0xC84 DUP2 DUP4 PUSH1 0x20 DUP9 ADD PUSH2 0x9A2 JUMP JUMPDEST ADD SWAP5 SWAP4 POP POP POP POP JUMP JUMPDEST PUSH1 0x1 PUSH1 0x1 PUSH1 0xA0 SHL SUB DUP6 DUP2 AND DUP3 MSTORE DUP5 AND PUSH1 0x20 DUP3 ADD MSTORE PUSH1 0x40 DUP2 ADD DUP4 SWAP1 MSTORE PUSH1 0x80 PUSH1 0x60 DUP3 ADD DUP2 SWAP1 MSTORE PUSH1 0x0 SWAP1 PUSH2 0xCC0 SWAP1 DUP4 ADD DUP5 PUSH2 0x9CE JUMP JUMPDEST SWAP7 SWAP6 POP POP POP POP POP POP JUMP JUMPDEST PUSH1 0x0 PUSH1 0x20 DUP3 DUP5 SUB SLT ISZERO PUSH2 0xCDC JUMPI PUSH1 0x0 DUP1 REVERT JUMPDEST DUP2 MLOAD PUSH2 0x79D DUP2 PUSH2 0x96C JUMP INVALID LOG2 PUSH5 0x6970667358 0x22 SLT KECCAK256 GT EXTCODESIZE DUP2 0xD1 0xA5 LOG2 0xC PUSH32 0xE0271C8DE1004C0E4D3861DD04DC4EF941ABCD61C7145F4B64736F6C63430008 0xF STOP CALLER "
				},
				"gasEstimates": {
					"creation": {
						"codeDepositCost": "671400",
						"executionCost": "infinite",
						"totalCost": "infinite"
					},
					"external": {
						"approve(address,uint256)": "infinite",
						"balanceOf(address)": "2640",
						"getApproved(uint256)": "6925",
						"isApprovedForAll(address,address)": "infinite",
						"name()": "infinite",
						"ownerOf(uint256)": "infinite",
						"safeTransferFrom(address,address,uint256)": "infinite",
						"safeTransferFrom(address,address,uint256,bytes)": "infinite",
						"setApprovalForAll(address,bool)": "26647",
						"supportsInterface(bytes4)": "534",
						"symbol()": "infinite",
						"tokenURI(uint256)": "infinite",
						"totalSupply()": "4432",
						"transferFrom(address,address,uint256)": "infinite"
					},
					"internal": {
						"_afterTokenTransfers(address,address,uint256,uint256)": "infinite",
						"_baseURI()": "infinite",
						"_beforeTokenTransfers(address,address,uint256,uint256)": "infinite",
						"_burn(uint256)": "infinite",
						"_burn(uint256,bool)": "infinite",
						"_checkContractOnERC721Received(address,address,uint256,bytes memory)": "infinite",
						"_exists(uint256)": "4337",
						"_extraData(address,address,uint24)": "infinite",
						"_getApprovedAddress(uint256)": "infinite",
						"_getAux(address)": "infinite",
						"_initializeOwnershipAt(uint256)": "infinite",
						"_isOwnerOrApproved(address,address,address)": "infinite",
						"_mint(address,uint256)": "infinite",
						"_mintERC2309(address,uint256)": "infinite",
						"_msgSenderERC721A()": "infinite",
						"_nextExtraData(address,address,uint256)": "infinite",
						"_nextInitializedFlag(uint256)": "infinite",
						"_nextTokenId()": "infinite",
						"_numberBurned(address)": "infinite",
						"_numberMinted(address)": "infinite",
						"_ownershipAt(uint256)": "infinite",
						"_ownershipOf(uint256)": "infinite",
						"_packOwnershipData(address,uint256)": "infinite",
						"_packedOwnershipOf(uint256)": "infinite",
						"_safeMint(address,uint256)": "infinite",
						"_safeMint(address,uint256,bytes memory)": "infinite",
						"_setAux(address,uint64)": "infinite",
						"_setExtraDataAt(uint256,uint24)": "infinite",
						"_startTokenId()": "infinite",
						"_toString(uint256)": "infinite",
						"_totalBurned()": "infinite",
						"_totalMinted()": "infinite",
						"_unpackedOwnership(uint256)": "infinite"
					}
				},
				"methodIdentifiers": {
					"approve(address,uint256)": "095ea7b3",
					"balanceOf(address)": "70a08231",
					"getApproved(uint256)": "081812fc",
					"isApprovedForAll(address,address)": "e985e9c5",
					"name()": "06fdde03",
					"ownerOf(uint256)": "6352211e",
					"safeTransferFrom(address,address,uint256)": "42842e0e",
					"safeTransferFrom(address,address,uint256,bytes)": "b88d4fde",
					"setApprovalForAll(address,bool)": "a22cb465",
					"supportsInterface(bytes4)": "01ffc9a7",
					"symbol()": "95d89b41",
					"tokenURI(uint256)": "c87b56dd",
					"totalSupply()": "18160ddd",
					"transferFrom(address,address,uint256)": "23b872dd"
				}
			},
			"storageLayout": {
				"storage": [
					{
						"astId": 146,
						"contract": "erc721a/contracts/ERC721A.sol:ERC721A",
						"label": "_currentIndex",
						"offset": 0,
						"slot": "0",
						"type": "t_uint256"
					},
					{
						"astId": 148,
						"contract": "erc721a/contracts/ERC721A.sol:ERC721A",
						"label": "_burnCounter",
						"offset": 0,
						"slot": "1",
						"type": "t_uint256"
					},
					{
						"astId": 150,
						"contract": "erc721a/contracts/ERC721A.sol:ERC721A",
						"label": "_name",
						"offset": 0,
						"slot": "2",
						"type": "t_string_storage"
					},
					{
						"astId": 152,
						"contract": "erc721a/contracts/ERC721A.sol:ERC721A",
						"label": "_symbol",
						"offset": 0,
						"slot": "3",
						"type": "t_string_storage"
					},
					{
						"astId": 156,
						"contract": "erc721a/contracts/ERC721A.sol:ERC721A",
						"label": "_packedOwnerships",
						"offset": 0,
						"slot": "4",
						"type": "t_mapping(t_uint256,t_uint256)"
					},
					{
						"astId": 160,
						"contract": "erc721a/contracts/ERC721A.sol:ERC721A",
						"label": "_packedAddressData",
						"offset": 0,
						"slot": "5",
						"type": "t_mapping(t_address,t_uint256)"
					},
					{
						"astId": 164,
						"contract": "erc721a/contracts/ERC721A.sol:ERC721A",
						"label": "_tokenApprovals",
						"offset": 0,
						"slot": "6",
						"type": "t_mapping(t_uint256,t_address)"
					},
					{
						"astId": 170,
						"contract": "erc721a/contracts/ERC721A.sol:ERC721A",
						"label": "_operatorApprovals",
						"offset": 0,
						"slot": "7",
						"type": "t_mapping(t_address,t_mapping(t_address,t_bool))"
					}
				],
				"types": {
					"t_address": {
						"encoding": "inplace",
						"label": "address",
						"numberOfBytes": "20"
					},
					"t_bool": {
						"encoding": "inplace",
						"label": "bool",
						"numberOfBytes": "1"
					},
					"t_mapping(t_address,t_bool)": {
						"encoding": "mapping",
						"key": "t_address",
						"label": "mapping(address => bool)",
						"numberOfBytes": "32",
						"value": "t_bool"
					},
					"t_mapping(t_address,t_mapping(t_address,t_bool))": {
						"encoding": "mapping",
						"key": "t_address",
						"label": "mapping(address => mapping(address => bool))",
						"numberOfBytes": "32",
						"value": "t_mapping(t_address,t_bool)"
					},
					"t_mapping(t_address,t_uint256)": {
						"encoding": "mapping",
						"key": "t_address",
						"label": "mapping(address => uint256)",
						"numberOfBytes": "32",
						"value": "t_uint256"
					},
					"t_mapping(t_uint256,t_address)": {
						"encoding": "mapping",
						"key": "t_uint256",
						"label": "mapping(uint256 => address)",
						"numberOfBytes": "32",
						"value": "t_address"
					},
					"t_mapping(t_uint256,t_uint256)": {
						"encoding": "mapping",
						"key": "t_uint256",
						"label": "mapping(uint256 => uint256)",
						"numberOfBytes": "32",
						"value": "t_uint256"
					},
					"t_string_storage": {
						"encoding": "bytes",
						"label": "string",
						"numberOfBytes": "32"
					},
					"t_uint256": {
						"encoding": "inplace",
						"label": "uint256",
						"numberOfBytes": "32"
					}
				}
			},
			"userdoc": {
				"errors": {
					"ApprovalCallerNotOwnerNorApproved()": [
						{
							"notice": "The caller must own the token or be an approved operator."
						}
					],
					"ApprovalQueryForNonexistentToken()": [
						{
							"notice": "The token does not exist."
						}
					],
					"ApproveToCaller()": [
						{
							"notice": "The caller cannot approve to their own address."
						}
					],
					"BalanceQueryForZeroAddress()": [
						{
							"notice": "Cannot query the balance for the zero address."
						}
					],
					"MintERC2309QuantityExceedsLimit()": [
						{
							"notice": "The `quantity` minted with ERC2309 exceeds the safety limit."
						}
					],
					"MintToZeroAddress()": [
						{
							"notice": "Cannot mint to the zero address."
						}
					],
					"MintZeroQuantity()": [
						{
							"notice": "The quantity of tokens minted must be more than zero."
						}
					],
					"OwnerQueryForNonexistentToken()": [
						{
							"notice": "The token does not exist."
						}
					],
					"OwnershipNotInitializedForExtraData()": [
						{
							"notice": "The `extraData` cannot be set on an unintialized ownership slot."
						}
					],
					"TransferCallerNotOwnerNorApproved()": [
						{
							"notice": "The caller must own the token or be an approved operator."
						}
					],
					"TransferFromIncorrectOwner()": [
						{
							"notice": "The token must be owned by `from`."
						}
					],
					"TransferToNonERC721ReceiverImplementer()": [
						{
							"notice": "Cannot safely transfer to a contract that does not implement the ERC721Receiver interface."
						}
					],
					"TransferToZeroAddress()": [
						{
							"notice": "Cannot transfer to the zero address."
						}
					],
					"URIQueryForNonexistentToken()": [
						{
							"notice": "The token does not exist."
						}
					]
				},
				"kind": "user",
				"methods": {},
				"version": 1
			}
		}
	}
}