{
	"ERC721A/MintNagaKids.sol": {
		"MintNagaKids": {
			"abi": [
				{
					"inputs": [
						{
							"internalType": "contract INagaKid",
							"name": "_nagaKidContract",
							"type": "address"
						},
						{
							"internalType": "address",
							"name": "_signer",
							"type": "address"
						},
						{
							"internalType": "bytes32",
							"name": "_merkleRoot",
							"type": "bytes32"
						}
					],
					"stateMutability": "nonpayable",
					"type": "constructor"
				},
				{
					"anonymous": false,
					"inputs": [
						{
							"indexed": false,
							"internalType": "bytes32",
							"name": "merkleRootBefore",
							"type": "bytes32"
						},
						{
							"indexed": false,
							"internalType": "bytes32",
							"name": "merkleRootAfter",
							"type": "bytes32"
						}
					],
					"name": "MerkleRootChanged",
					"type": "event"
				},
				{
					"anonymous": false,
					"inputs": [
						{
							"indexed": false,
							"internalType": "address",
							"name": "nagaKidBefore",
							"type": "address"
						},
						{
							"indexed": false,
							"internalType": "address",
							"name": "nagaKidAfter",
							"type": "address"
						}
					],
					"name": "NagaKidContractChanged",
					"type": "event"
				},
				{
					"anonymous": false,
					"inputs": [
						{
							"indexed": true,
							"internalType": "address",
							"name": "previousOwner",
							"type": "address"
						},
						{
							"indexed": true,
							"internalType": "address",
							"name": "newOwner",
							"type": "address"
						}
					],
					"name": "OwnershipTransferred",
					"type": "event"
				},
				{
					"anonymous": false,
					"inputs": [
						{
							"indexed": true,
							"internalType": "address",
							"name": "user",
							"type": "address"
						},
						{
							"indexed": false,
							"internalType": "uint256",
							"name": "amount",
							"type": "uint256"
						},
						{
							"indexed": false,
							"internalType": "uint256",
							"name": "timestamp",
							"type": "uint256"
						}
					],
					"name": "PrivateMinted",
					"type": "event"
				},
				{
					"anonymous": false,
					"inputs": [
						{
							"indexed": true,
							"internalType": "address",
							"name": "user",
							"type": "address"
						},
						{
							"indexed": false,
							"internalType": "uint256",
							"name": "amount",
							"type": "uint256"
						},
						{
							"indexed": false,
							"internalType": "uint256",
							"name": "timestamp",
							"type": "uint256"
						}
					],
					"name": "PublicMinted",
					"type": "event"
				},
				{
					"anonymous": false,
					"inputs": [
						{
							"indexed": false,
							"internalType": "bytes32",
							"name": "roundBefore",
							"type": "bytes32"
						},
						{
							"indexed": false,
							"internalType": "bytes32",
							"name": "roundAfter",
							"type": "bytes32"
						}
					],
					"name": "RoundChanged",
					"type": "event"
				},
				{
					"anonymous": false,
					"inputs": [
						{
							"indexed": false,
							"internalType": "address",
							"name": "signerBefore",
							"type": "address"
						},
						{
							"indexed": false,
							"internalType": "address",
							"name": "signerAfter",
							"type": "address"
						}
					],
					"name": "SignerChanged",
					"type": "event"
				},
				{
					"anonymous": false,
					"inputs": [
						{
							"indexed": false,
							"internalType": "address",
							"name": "to",
							"type": "address"
						},
						{
							"indexed": false,
							"internalType": "uint256",
							"name": "balanceOFContract",
							"type": "uint256"
						},
						{
							"indexed": false,
							"internalType": "uint256",
							"name": "timestamp",
							"type": "uint256"
						}
					],
					"name": "Withdraw",
					"type": "event"
				},
				{
					"anonymous": false,
					"inputs": [
						{
							"indexed": false,
							"internalType": "address",
							"name": "to",
							"type": "address"
						},
						{
							"indexed": false,
							"internalType": "address",
							"name": "currency",
							"type": "address"
						},
						{
							"indexed": false,
							"internalType": "uint256",
							"name": "balanceOfContract",
							"type": "uint256"
						},
						{
							"indexed": false,
							"internalType": "uint256",
							"name": "timestamp",
							"type": "uint256"
						}
					],
					"name": "WithdrawCurrency",
					"type": "event"
				},
				{
					"anonymous": false,
					"inputs": [
						{
							"indexed": false,
							"internalType": "address",
							"name": "to",
							"type": "address"
						},
						{
							"indexed": false,
							"internalType": "address",
							"name": "NFT",
							"type": "address"
						},
						{
							"indexed": false,
							"internalType": "uint256",
							"name": "tokenId",
							"type": "uint256"
						},
						{
							"indexed": false,
							"internalType": "uint256",
							"name": "timestamp",
							"type": "uint256"
						}
					],
					"name": "WithdrawNFT",
					"type": "event"
				},
				{
					"inputs": [],
					"name": "DEFAULT",
					"outputs": [
						{
							"internalType": "bytes32",
							"name": "",
							"type": "bytes32"
						}
					],
					"stateMutability": "view",
					"type": "function"
				},
				{
					"inputs": [],
					"name": "NAGA_HOLDER_MINT_ROUND",
					"outputs": [
						{
							"internalType": "bytes32",
							"name": "",
							"type": "bytes32"
						}
					],
					"stateMutability": "view",
					"type": "function"
				},
				{
					"inputs": [],
					"name": "WHITELIST_MINT_ROUND",
					"outputs": [
						{
							"internalType": "bytes32",
							"name": "",
							"type": "bytes32"
						}
					],
					"stateMutability": "view",
					"type": "function"
				},
				{
					"inputs": [],
					"name": "WITHDRAW_ROLE",
					"outputs": [
						{
							"internalType": "bytes32",
							"name": "",
							"type": "bytes32"
						}
					],
					"stateMutability": "view",
					"type": "function"
				},
				{
					"inputs": [
						{
							"internalType": "bytes32[]",
							"name": "_proof",
							"type": "bytes32[]"
						},
						{
							"internalType": "uint256",
							"name": "_amount",
							"type": "uint256"
						},
						{
							"internalType": "bytes32",
							"name": "_round",
							"type": "bytes32"
						}
					],
					"name": "allowlistMint",
					"outputs": [],
					"stateMutability": "payable",
					"type": "function"
				},
				{
					"inputs": [],
					"name": "currentMintRound",
					"outputs": [
						{
							"internalType": "bytes32",
							"name": "",
							"type": "bytes32"
						}
					],
					"stateMutability": "view",
					"type": "function"
				},
				{
					"inputs": [
						{
							"internalType": "bytes32",
							"name": "_messageHash",
							"type": "bytes32"
						}
					],
					"name": "getEthSignedMessageHash",
					"outputs": [
						{
							"internalType": "bytes32",
							"name": "",
							"type": "bytes32"
						}
					],
					"stateMutability": "pure",
					"type": "function"
				},
				{
					"inputs": [],
					"name": "getMaxSupply",
					"outputs": [
						{
							"internalType": "uint256",
							"name": "",
							"type": "uint256"
						}
					],
					"stateMutability": "view",
					"type": "function"
				},
				{
					"inputs": [
						{
							"internalType": "address",
							"name": "_user",
							"type": "address"
						}
					],
					"name": "getMessageHash",
					"outputs": [
						{
							"internalType": "bytes32",
							"name": "",
							"type": "bytes32"
						}
					],
					"stateMutability": "view",
					"type": "function"
				},
				{
					"inputs": [],
					"name": "getTotalSupply",
					"outputs": [
						{
							"internalType": "uint256",
							"name": "",
							"type": "uint256"
						}
					],
					"stateMutability": "view",
					"type": "function"
				},
				{
					"inputs": [],
					"name": "isPrivateMintOpen",
					"outputs": [
						{
							"internalType": "bool",
							"name": "",
							"type": "bool"
						}
					],
					"stateMutability": "view",
					"type": "function"
				},
				{
					"inputs": [],
					"name": "isPublicMintOpen",
					"outputs": [
						{
							"internalType": "bool",
							"name": "",
							"type": "bool"
						}
					],
					"stateMutability": "view",
					"type": "function"
				},
				{
					"inputs": [
						{
							"internalType": "address",
							"name": "_addr",
							"type": "address"
						}
					],
					"name": "isPublicMinted",
					"outputs": [
						{
							"internalType": "bool",
							"name": "",
							"type": "bool"
						}
					],
					"stateMutability": "view",
					"type": "function"
				},
				{
					"inputs": [
						{
							"internalType": "address",
							"name": "_user",
							"type": "address"
						},
						{
							"internalType": "bytes32",
							"name": "_round",
							"type": "bytes32"
						}
					],
					"name": "isUserMinted",
					"outputs": [
						{
							"internalType": "bool",
							"name": "",
							"type": "bool"
						}
					],
					"stateMutability": "view",
					"type": "function"
				},
				{
					"inputs": [],
					"name": "merkleRoot",
					"outputs": [
						{
							"internalType": "bytes32",
							"name": "",
							"type": "bytes32"
						}
					],
					"stateMutability": "view",
					"type": "function"
				},
				{
					"inputs": [],
					"name": "nagaKidContract",
					"outputs": [
						{
							"internalType": "contract INagaKid",
							"name": "",
							"type": "address"
						}
					],
					"stateMutability": "view",
					"type": "function"
				},
				{
					"inputs": [],
					"name": "owner",
					"outputs": [
						{
							"internalType": "address",
							"name": "",
							"type": "address"
						}
					],
					"stateMutability": "view",
					"type": "function"
				},
				{
					"inputs": [
						{
							"internalType": "bytes",
							"name": "_sig",
							"type": "bytes"
						}
					],
					"name": "publicMint",
					"outputs": [],
					"stateMutability": "payable",
					"type": "function"
				},
				{
					"inputs": [
						{
							"internalType": "bytes32",
							"name": "_ethSignedMessageHash",
							"type": "bytes32"
						},
						{
							"internalType": "bytes",
							"name": "_signature",
							"type": "bytes"
						}
					],
					"name": "recoverSigner",
					"outputs": [
						{
							"internalType": "address",
							"name": "",
							"type": "address"
						}
					],
					"stateMutability": "pure",
					"type": "function"
				},
				{
					"inputs": [],
					"name": "renounceOwnership",
					"outputs": [],
					"stateMutability": "nonpayable",
					"type": "function"
				},
				{
					"inputs": [
						{
							"internalType": "bytes32",
							"name": "_merkleRoot",
							"type": "bytes32"
						}
					],
					"name": "setMerkleRoot",
					"outputs": [],
					"stateMutability": "nonpayable",
					"type": "function"
				},
				{
					"inputs": [
						{
							"internalType": "contract INagaKid",
							"name": "_nagaKid",
							"type": "address"
						}
					],
					"name": "setNagaKidContract",
					"outputs": [],
					"stateMutability": "nonpayable",
					"type": "function"
				},
				{
					"inputs": [
						{
							"internalType": "bool",
							"name": "_bool",
							"type": "bool"
						}
					],
					"name": "setPublicMint",
					"outputs": [],
					"stateMutability": "nonpayable",
					"type": "function"
				},
				{
					"inputs": [
						{
							"internalType": "bytes32",
							"name": "_round",
							"type": "bytes32"
						}
					],
					"name": "setRound",
					"outputs": [],
					"stateMutability": "nonpayable",
					"type": "function"
				},
				{
					"inputs": [
						{
							"internalType": "address",
							"name": "_signer",
							"type": "address"
						}
					],
					"name": "setSigner",
					"outputs": [],
					"stateMutability": "nonpayable",
					"type": "function"
				},
				{
					"inputs": [],
					"name": "signer",
					"outputs": [
						{
							"internalType": "address",
							"name": "",
							"type": "address"
						}
					],
					"stateMutability": "view",
					"type": "function"
				},
				{
					"inputs": [
						{
							"internalType": "bytes",
							"name": "sig",
							"type": "bytes"
						}
					],
					"name": "splitSignature",
					"outputs": [
						{
							"internalType": "bytes32",
							"name": "r",
							"type": "bytes32"
						},
						{
							"internalType": "bytes32",
							"name": "s",
							"type": "bytes32"
						},
						{
							"internalType": "uint8",
							"name": "v",
							"type": "uint8"
						}
					],
					"stateMutability": "pure",
					"type": "function"
				},
				{
					"inputs": [
						{
							"internalType": "address",
							"name": "newOwner",
							"type": "address"
						}
					],
					"name": "transferOwnership",
					"outputs": [],
					"stateMutability": "nonpayable",
					"type": "function"
				},
				{
					"inputs": [
						{
							"internalType": "address",
							"name": "_user",
							"type": "address"
						},
						{
							"internalType": "bytes32",
							"name": "_round",
							"type": "bytes32"
						}
					],
					"name": "userMintedAmount",
					"outputs": [
						{
							"internalType": "uint256",
							"name": "",
							"type": "uint256"
						}
					],
					"stateMutability": "view",
					"type": "function"
				},
				{
					"inputs": [
						{
							"internalType": "address",
							"name": "_signer",
							"type": "address"
						},
						{
							"internalType": "address",
							"name": "_user",
							"type": "address"
						},
						{
							"internalType": "bytes",
							"name": "signature",
							"type": "bytes"
						}
					],
					"name": "verify",
					"outputs": [
						{
							"internalType": "bool",
							"name": "",
							"type": "bool"
						}
					],
					"stateMutability": "view",
					"type": "function"
				},
				{
					"inputs": [
						{
							"internalType": "address",
							"name": "_to",
							"type": "address"
						}
					],
					"name": "withdraw",
					"outputs": [],
					"stateMutability": "nonpayable",
					"type": "function"
				},
				{
					"inputs": [
						{
							"internalType": "address",
							"name": "_to",
							"type": "address"
						},
						{
							"internalType": "address",
							"name": "_currency",
							"type": "address"
						}
					],
					"name": "withdrawCurrency",
					"outputs": [],
					"stateMutability": "nonpayable",
					"type": "function"
				},
				{
					"inputs": [
						{
							"internalType": "address",
							"name": "_to",
							"type": "address"
						},
						{
							"internalType": "address",
							"name": "_NFT",
							"type": "address"
						},
						{
							"internalType": "uint256",
							"name": "_tokenId",
							"type": "uint256"
						}
					],
					"name": "withdrawNFT",
					"outputs": [],
					"stateMutability": "nonpayable",
					"type": "function"
				}
			],
			"devdoc": {
				"kind": "dev",
				"methods": {
					"owner()": {
						"details": "Returns the address of the current owner."
					},
					"renounceOwnership()": {
						"details": "Leaves the contract without owner. It will not be possible to call `onlyOwner` functions anymore. Can only be called by the current owner. NOTE: Renouncing ownership will leave the contract without an owner, thereby removing any functionality that is only available to the owner."
					},
					"transferOwnership(address)": {
						"details": "Transfers ownership of the contract to a new account (`newOwner`). Can only be called by the current owner."
					}
				},
				"version": 1
			},
			"evm": {
				"assembly": "    /* \"ERC721A/MintNagaKids.sol\":428:6974  contract MintNagaKids is Ownable, ReentrancyGuard, VerifySignature {... */\n  mstore(0x40, 0x80)\n    /* \"ERC721A/MintNagaKids.sol\":1124:1160  bool public isPublicMintOpen = false */\n  0x05\n  dup1\n  sload\n  not(0xffff)\n    /* \"ERC721A/MintNagaKids.sol\":1167:1204  bool public isPrivateMintOpen = false */\n  and\n  swap1\n  sstore\n    /* \"ERC721A/MintNagaKids.sol\":2208:2417  constructor(INagaKid _nagaKidContract,address _signer, bytes32 _merkleRoot) {... */\n  callvalue\n  dup1\n  iszero\n  tag_1\n  jumpi\n  0x00\n  dup1\n  revert\ntag_1:\n  pop\n  mload(0x40)\n  sub(codesize, bytecodeSize)\n  dup1\n  bytecodeSize\n  dup4\n  codecopy\n  dup2\n  add\n  0x40\n  dup2\n  swap1\n  mstore\n  tag_2\n  swap2\n  tag_3\n  jump\t// in\ntag_2:\n    /* \"@openzeppelin/contracts/access/Ownable.sol\":921:953  _transferOwnership(_msgSender()) */\n  tag_8\n    /* \"@openzeppelin/contracts/utils/Context.sol\":719:729  msg.sender */\n  caller\n    /* \"@openzeppelin/contracts/access/Ownable.sol\":921:939  _transferOwnership */\n  tag_11\n    /* \"@openzeppelin/contracts/access/Ownable.sol\":921:953  _transferOwnership(_msgSender()) */\n  jump\t// in\ntag_8:\n    /* \"@openzeppelin/contracts/security/ReentrancyGuard.sol\":1701:1702  1 */\n  0x01\n    /* \"@openzeppelin/contracts/security/ReentrancyGuard.sol\":1806:1828  _status = _NOT_ENTERED */\n  dup1\n  sstore\n    /* \"ERC721A/MintNagaKids.sol\":2305:2341  setNagaKidContract(_nagaKidContract) */\n  tag_14\n    /* \"ERC721A/MintNagaKids.sol\":2324:2340  _nagaKidContract */\n  dup4\n    /* \"ERC721A/MintNagaKids.sol\":2305:2323  setNagaKidContract */\n  tag_15\n    /* \"ERC721A/MintNagaKids.sol\":2305:2341  setNagaKidContract(_nagaKidContract) */\n  jump\t// in\ntag_14:\n    /* \"ERC721A/MintNagaKids.sol\":2352:2378  setMerkleRoot(_merkleRoot) */\n  tag_16\n    /* \"ERC721A/MintNagaKids.sol\":2366:2377  _merkleRoot */\n  dup2\n    /* \"ERC721A/MintNagaKids.sol\":2352:2365  setMerkleRoot */\n  tag_17\n    /* \"ERC721A/MintNagaKids.sol\":2352:2378  setMerkleRoot(_merkleRoot) */\n  jump\t// in\ntag_16:\n    /* \"ERC721A/MintNagaKids.sol\":2389:2407  setSigner(_signer) */\n  tag_18\n    /* \"ERC721A/MintNagaKids.sol\":2399:2406  _signer */\n  dup3\n    /* \"ERC721A/MintNagaKids.sol\":2389:2398  setSigner */\n  tag_19\n    /* \"ERC721A/MintNagaKids.sol\":2389:2407  setSigner(_signer) */\n  jump\t// in\ntag_18:\n    /* \"ERC721A/MintNagaKids.sol\":2208:2417  constructor(INagaKid _nagaKidContract,address _signer, bytes32 _merkleRoot) {... */\n  pop\n  pop\n  pop\n    /* \"ERC721A/MintNagaKids.sol\":428:6974  contract MintNagaKids is Ownable, ReentrancyGuard, VerifySignature {... */\n  jump(tag_50)\n    /* \"@openzeppelin/contracts/access/Ownable.sol\":2270:2457  function _transferOwnership(address newOwner) internal virtual {... */\ntag_11:\n    /* \"@openzeppelin/contracts/access/Ownable.sol\":2343:2359  address oldOwner */\n  0x00\n    /* \"@openzeppelin/contracts/access/Ownable.sol\":2362:2368  _owner */\n  dup1\n  sload\n  sub(shl(0xa0, 0x01), 0x01)\n    /* \"@openzeppelin/contracts/access/Ownable.sol\":2378:2395  _owner = newOwner */\n  dup4\n  dup2\n  and\n  not(sub(shl(0xa0, 0x01), 0x01))\n  dup4\n  and\n  dup2\n  or\n  dup5\n  sstore\n    /* \"@openzeppelin/contracts/access/Ownable.sol\":2410:2450  OwnershipTransferred(oldOwner, newOwner) */\n  mload(0x40)\n    /* \"@openzeppelin/contracts/access/Ownable.sol\":2362:2368  _owner */\n  swap2\n  swap1\n  swap3\n  and\n  swap3\n  dup4\n  swap2\n    /* \"@openzeppelin/contracts/access/Ownable.sol\":2410:2450  OwnershipTransferred(oldOwner, newOwner) */\n  0x8be0079c531659141344cd1fd0a4f28419497f9722a3daafe3b4186f6b6457e0\n  swap2\n    /* \"@openzeppelin/contracts/access/Ownable.sol\":2343:2359  address oldOwner */\n  swap1\n    /* \"@openzeppelin/contracts/access/Ownable.sol\":2410:2450  OwnershipTransferred(oldOwner, newOwner) */\n  log3\n    /* \"@openzeppelin/contracts/access/Ownable.sol\":2333:2457  {... */\n  pop\n    /* \"@openzeppelin/contracts/access/Ownable.sol\":2270:2457  function _transferOwnership(address newOwner) internal virtual {... */\n  pop\n  jump\t// out\n    /* \"ERC721A/MintNagaKids.sol\":2503:2791  function setNagaKidContract(INagaKid _nagaKid) public onlyOwner {... */\ntag_15:\n    /* \"@openzeppelin/contracts/access/Ownable.sol\":1082:1089  address */\n  0x00\n    /* \"@openzeppelin/contracts/access/Ownable.sol\":1108:1114  _owner */\n  sload\n  sub(shl(0xa0, 0x01), 0x01)\n  and\n    /* \"@openzeppelin/contracts/utils/Context.sol\":719:729  msg.sender */\n  caller\n    /* \"@openzeppelin/contracts/access/Ownable.sol\":1248:1271  owner() == _msgSender() */\n  eq\n    /* \"@openzeppelin/contracts/access/Ownable.sol\":1240:1308  require(owner() == _msgSender(), \"Ownable: caller is not the owner\") */\n  tag_27\n  jumpi\n  mload(0x40)\n  shl(0xe5, 0x461bcd)\n  dup2\n  mstore\n    /* \"#utility.yul\":849:851   */\n  0x20\n    /* \"@openzeppelin/contracts/access/Ownable.sol\":1240:1308  require(owner() == _msgSender(), \"Ownable: caller is not the owner\") */\n  0x04\n  dup3\n  add\n    /* \"#utility.yul\":831:852   */\n  dup2\n  swap1\n  mstore\n    /* \"#utility.yul\":868:886   */\n  0x24\n  dup3\n  add\n    /* \"#utility.yul\":861:891   */\n  mstore\n  0x00\n  dup1\n  mload\n  0x20\n  data_9924ebdf1add33d25d4ef888e16131f0a5687b0580a36c21b5c301a6c462effe\n  dup4\n  codecopy\n  dup2\n  mload\n  swap2\n  mstore\n    /* \"#utility.yul\":907:925   */\n  0x44\n  dup3\n  add\n    /* \"#utility.yul\":900:962   */\n  mstore\n    /* \"#utility.yul\":979:997   */\n  0x64\n  add\n    /* \"@openzeppelin/contracts/access/Ownable.sol\":1240:1308  require(owner() == _msgSender(), \"Ownable: caller is not the owner\") */\ntag_28:\n  mload(0x40)\n  dup1\n  swap2\n  sub\n  swap1\n  revert\ntag_27:\n    /* \"ERC721A/MintNagaKids.sol\":2610:2625  nagaKidContract */\n  0x02\n  dup1\n  sload\n  sub(shl(0xa0, 0x01), 0x01)\n    /* \"ERC721A/MintNagaKids.sol\":2637:2663  nagaKidContract = _nagaKid */\n  dup4\n  dup2\n  and\n  not(sub(shl(0xa0, 0x01), 0x01))\n  dup4\n  and\n  dup2\n  or\n  swap1\n  swap4\n  sstore\n    /* \"ERC721A/MintNagaKids.sol\":2732:2783  NagaKidContractChanged(nagaKidBefore, nagaKidAfter) */\n  0x40\n  dup1\n  mload\n    /* \"ERC721A/MintNagaKids.sol\":2610:2625  nagaKidContract */\n  swap2\n  swap1\n  swap3\n  and\n    /* \"#utility.yul\":1220:1254   */\n  dup1\n  dup3\n  mstore\n    /* \"#utility.yul\":1285:1287   */\n  0x20\n    /* \"#utility.yul\":1270:1288   */\n  dup3\n  add\n    /* \"#utility.yul\":1263:1306   */\n  swap4\n  swap1\n  swap4\n  mstore\n    /* \"ERC721A/MintNagaKids.sol\":2637:2663  nagaKidContract = _nagaKid */\n  dup4\n  swap2\n    /* \"ERC721A/MintNagaKids.sol\":2732:2783  NagaKidContractChanged(nagaKidBefore, nagaKidAfter) */\n  0xabdf056c85a221fcb31d0366c4475b6b2c613df2eeea951a9fcb3e1a8595d973\n  swap2\n    /* \"#utility.yul\":1155:1173   */\n  add\n    /* \"ERC721A/MintNagaKids.sol\":2732:2783  NagaKidContractChanged(nagaKidBefore, nagaKidAfter) */\n  mload(0x40)\n  dup1\n  swap2\n  sub\n  swap1\n  log1\n    /* \"ERC721A/MintNagaKids.sol\":2567:2791  {... */\n  pop\n  pop\n    /* \"ERC721A/MintNagaKids.sol\":2503:2791  function setNagaKidContract(INagaKid _nagaKid) public onlyOwner {... */\n  pop\n  jump\t// out\n    /* \"ERC721A/MintNagaKids.sol\":3196:3416  function setMerkleRoot(bytes32 _merkleRoot) public onlyOwner {... */\ntag_17:\n    /* \"@openzeppelin/contracts/access/Ownable.sol\":1082:1089  address */\n  0x00\n    /* \"@openzeppelin/contracts/access/Ownable.sol\":1108:1114  _owner */\n  sload\n  sub(shl(0xa0, 0x01), 0x01)\n  and\n    /* \"@openzeppelin/contracts/utils/Context.sol\":719:729  msg.sender */\n  caller\n    /* \"@openzeppelin/contracts/access/Ownable.sol\":1248:1271  owner() == _msgSender() */\n  eq\n    /* \"@openzeppelin/contracts/access/Ownable.sol\":1240:1308  require(owner() == _msgSender(), \"Ownable: caller is not the owner\") */\n  tag_36\n  jumpi\n  mload(0x40)\n  shl(0xe5, 0x461bcd)\n  dup2\n  mstore\n    /* \"#utility.yul\":849:851   */\n  0x20\n    /* \"@openzeppelin/contracts/access/Ownable.sol\":1240:1308  require(owner() == _msgSender(), \"Ownable: caller is not the owner\") */\n  0x04\n  dup3\n  add\n    /* \"#utility.yul\":831:852   */\n  dup2\n  swap1\n  mstore\n    /* \"#utility.yul\":868:886   */\n  0x24\n  dup3\n  add\n    /* \"#utility.yul\":861:891   */\n  mstore\n  0x00\n  dup1\n  mload\n  0x20\n  data_9924ebdf1add33d25d4ef888e16131f0a5687b0580a36c21b5c301a6c462effe\n  dup4\n  codecopy\n  dup2\n  mload\n  swap2\n  mstore\n    /* \"#utility.yul\":907:925   */\n  0x44\n  dup3\n  add\n    /* \"#utility.yul\":900:962   */\n  mstore\n    /* \"#utility.yul\":979:997   */\n  0x64\n  add\n    /* \"@openzeppelin/contracts/access/Ownable.sol\":1240:1308  require(owner() == _msgSender(), \"Ownable: caller is not the owner\") */\n  tag_28\n    /* \"#utility.yul\":647:1003   */\n  jump\n    /* \"@openzeppelin/contracts/access/Ownable.sol\":1240:1308  require(owner() == _msgSender(), \"Ownable: caller is not the owner\") */\ntag_36:\n    /* \"ERC721A/MintNagaKids.sol\":3296:3306  merkleRoot */\n  0x04\n  dup1\n  sload\n    /* \"ERC721A/MintNagaKids.sol\":3317:3341  merkleRoot = _merkleRoot */\n  swap1\n  dup3\n  swap1\n  sstore\n    /* \"ERC721A/MintNagaKids.sol\":3359:3408  MerkleRootChanged(_merkleRootBefore, _merkleRoot) */\n  0x40\n  dup1\n  mload\n    /* \"#utility.yul\":1491:1516   */\n  dup3\n  dup2\n  mstore\n    /* \"#utility.yul\":1547:1549   */\n  0x20\n    /* \"#utility.yul\":1532:1550   */\n  dup2\n  add\n    /* \"#utility.yul\":1525:1559   */\n  dup5\n  swap1\n  mstore\n    /* \"ERC721A/MintNagaKids.sol\":3359:3408  MerkleRootChanged(_merkleRootBefore, _merkleRoot) */\n  0x123d88ba82600dfc3f219f8885c691b0ff020caa535666874b3f5174973757fe\n  swap2\n    /* \"#utility.yul\":1464:1482   */\n  add\n    /* \"ERC721A/MintNagaKids.sol\":3359:3408  MerkleRootChanged(_merkleRootBefore, _merkleRoot) */\ntag_39:\n  mload(0x40)\n  dup1\n  swap2\n  sub\n  swap1\n  log1\n    /* \"ERC721A/MintNagaKids.sol\":3257:3416  {... */\n  pop\n    /* \"ERC721A/MintNagaKids.sol\":3196:3416  function setMerkleRoot(bytes32 _merkleRoot) public onlyOwner {... */\n  pop\n  jump\t// out\n    /* \"ERC721A/MintNagaKids.sol\":3004:3188  function setSigner(address _signer) public onlyOwner {... */\ntag_19:\n    /* \"@openzeppelin/contracts/access/Ownable.sol\":1082:1089  address */\n  0x00\n    /* \"@openzeppelin/contracts/access/Ownable.sol\":1108:1114  _owner */\n  sload\n  sub(shl(0xa0, 0x01), 0x01)\n  and\n    /* \"@openzeppelin/contracts/utils/Context.sol\":719:729  msg.sender */\n  caller\n    /* \"@openzeppelin/contracts/access/Ownable.sol\":1248:1271  owner() == _msgSender() */\n  eq\n    /* \"@openzeppelin/contracts/access/Ownable.sol\":1240:1308  require(owner() == _msgSender(), \"Ownable: caller is not the owner\") */\n  tag_44\n  jumpi\n  mload(0x40)\n  shl(0xe5, 0x461bcd)\n  dup2\n  mstore\n    /* \"#utility.yul\":849:851   */\n  0x20\n    /* \"@openzeppelin/contracts/access/Ownable.sol\":1240:1308  require(owner() == _msgSender(), \"Ownable: caller is not the owner\") */\n  0x04\n  dup3\n  add\n    /* \"#utility.yul\":831:852   */\n  dup2\n  swap1\n  mstore\n    /* \"#utility.yul\":868:886   */\n  0x24\n  dup3\n  add\n    /* \"#utility.yul\":861:891   */\n  mstore\n  0x00\n  dup1\n  mload\n  0x20\n  data_9924ebdf1add33d25d4ef888e16131f0a5687b0580a36c21b5c301a6c462effe\n  dup4\n  codecopy\n  dup2\n  mload\n  swap2\n  mstore\n    /* \"#utility.yul\":907:925   */\n  0x44\n  dup3\n  add\n    /* \"#utility.yul\":900:962   */\n  mstore\n    /* \"#utility.yul\":979:997   */\n  0x64\n  add\n    /* \"@openzeppelin/contracts/access/Ownable.sol\":1240:1308  require(owner() == _msgSender(), \"Ownable: caller is not the owner\") */\n  tag_28\n    /* \"#utility.yul\":647:1003   */\n  jump\n    /* \"@openzeppelin/contracts/access/Ownable.sol\":1240:1308  require(owner() == _msgSender(), \"Ownable: caller is not the owner\") */\ntag_44:\n    /* \"ERC721A/MintNagaKids.sol\":3092:3098  signer */\n  0x05\n  dup1\n  sload\n  sub(shl(0xa0, 0x01), 0x01)\n    /* \"ERC721A/MintNagaKids.sol\":3109:3125  signer = _signer */\n  dup4\n  dup2\n  and\n    /* \"ERC721A/MintNagaKids.sol\":3092:3098  signer */\n  0x010000\n    /* \"ERC721A/MintNagaKids.sol\":3109:3125  signer = _signer */\n  dup2\n  dup2\n  mul\n  not(sub(shl(0xb0, 0x01), 0x010000))\n  dup6\n  and\n  or\n  swap1\n  swap5\n  sstore\n    /* \"ERC721A/MintNagaKids.sol\":3143:3180  SignerChanged(_signerBefore, _signer) */\n  0x40\n  dup1\n  mload\n    /* \"ERC721A/MintNagaKids.sol\":3092:3098  signer */\n  swap5\n  swap1\n  swap4\n  div\n  swap1\n  swap2\n  and\n    /* \"#utility.yul\":1220:1254   */\n  dup1\n  dup5\n  mstore\n    /* \"#utility.yul\":1285:1287   */\n  0x20\n    /* \"#utility.yul\":1270:1288   */\n  dup5\n  add\n    /* \"#utility.yul\":1263:1306   */\n  swap2\n  swap1\n  swap2\n  mstore\n    /* \"ERC721A/MintNagaKids.sol\":3092:3098  signer */\n  swap2\n    /* \"ERC721A/MintNagaKids.sol\":3143:3180  SignerChanged(_signerBefore, _signer) */\n  0xeeb293e1f8f3a9db91ade748726387ed1352ca78f5430c5f06fe3d1e1ad50579\n  swap2\n    /* \"#utility.yul\":1155:1173   */\n  add\n    /* \"ERC721A/MintNagaKids.sol\":3143:3180  SignerChanged(_signerBefore, _signer) */\n  tag_39\n    /* \"#utility.yul\":1008:1312   */\n  jump\n    /* \"#utility.yul\":14:155   */\ntag_49:\n  sub(shl(0xa0, 0x01), 0x01)\n    /* \"#utility.yul\":99:130   */\n  dup2\n  and\n    /* \"#utility.yul\":89:131   */\n  dup2\n  eq\n    /* \"#utility.yul\":79:149   */\n  tag_52\n  jumpi\n    /* \"#utility.yul\":145:146   */\n  0x00\n    /* \"#utility.yul\":142:143   */\n  dup1\n    /* \"#utility.yul\":135:147   */\n  revert\n    /* \"#utility.yul\":79:149   */\ntag_52:\n    /* \"#utility.yul\":14:155   */\n  pop\n  jump\t// out\n    /* \"#utility.yul\":160:642   */\ntag_3:\n    /* \"#utility.yul\":264:270   */\n  0x00\n    /* \"#utility.yul\":272:278   */\n  dup1\n    /* \"#utility.yul\":280:286   */\n  0x00\n    /* \"#utility.yul\":333:335   */\n  0x60\n    /* \"#utility.yul\":321:330   */\n  dup5\n    /* \"#utility.yul\":312:319   */\n  dup7\n    /* \"#utility.yul\":308:331   */\n  sub\n    /* \"#utility.yul\":304:336   */\n  slt\n    /* \"#utility.yul\":301:353   */\n  iszero\n  tag_54\n  jumpi\n    /* \"#utility.yul\":349:350   */\n  0x00\n    /* \"#utility.yul\":346:347   */\n  dup1\n    /* \"#utility.yul\":339:351   */\n  revert\n    /* \"#utility.yul\":301:353   */\ntag_54:\n    /* \"#utility.yul\":381:390   */\n  dup4\n    /* \"#utility.yul\":375:391   */\n  mload\n    /* \"#utility.yul\":400:441   */\n  tag_55\n    /* \"#utility.yul\":435:440   */\n  dup2\n    /* \"#utility.yul\":400:441   */\n  tag_49\n  jump\t// in\ntag_55:\n    /* \"#utility.yul\":510:512   */\n  0x20\n    /* \"#utility.yul\":495:513   */\n  dup6\n  add\n    /* \"#utility.yul\":489:514   */\n  mload\n    /* \"#utility.yul\":460:465   */\n  swap1\n  swap4\n  pop\n    /* \"#utility.yul\":523:566   */\n  tag_56\n    /* \"#utility.yul\":489:514   */\n  dup2\n    /* \"#utility.yul\":523:566   */\n  tag_49\n  jump\t// in\ntag_56:\n    /* \"#utility.yul\":585:592   */\n  dup1\n    /* \"#utility.yul\":575:592   */\n  swap3\n  pop\n  pop\n    /* \"#utility.yul\":632:634   */\n  0x40\n    /* \"#utility.yul\":621:630   */\n  dup5\n    /* \"#utility.yul\":617:635   */\n  add\n    /* \"#utility.yul\":611:636   */\n  mload\n    /* \"#utility.yul\":601:636   */\n  swap1\n  pop\n    /* \"#utility.yul\":160:642   */\n  swap3\n  pop\n  swap3\n  pop\n  swap3\n  jump\t// out\n    /* \"#utility.yul\":1317:1565   */\ntag_50:\n    /* \"ERC721A/MintNagaKids.sol\":428:6974  contract MintNagaKids is Ownable, ReentrancyGuard, VerifySignature {... */\n  dataSize(sub_0)\n  dup1\n  dataOffset(sub_0)\n  0x00\n  codecopy\n  0x00\n  return\nstop\ndata_9924ebdf1add33d25d4ef888e16131f0a5687b0580a36c21b5c301a6c462effe 4f776e61626c653a2063616c6c6572206973206e6f7420746865206f776e6572\n\nsub_0: assembly {\n        /* \"ERC721A/MintNagaKids.sol\":428:6974  contract MintNagaKids is Ownable, ReentrancyGuard, VerifySignature {... */\n      mstore(0x40, 0x80)\n      jumpi(tag_1, lt(calldatasize, 0x04))\n      shr(0xe0, calldataload(0x00))\n      dup1\n      0x9e6c8855\n      gt\n      tag_35\n      jumpi\n      dup1\n      0xe02023a1\n      gt\n      tag_36\n      jumpi\n      dup1\n      0xf500cdfc\n      gt\n      tag_37\n      jumpi\n      dup1\n      0xf500cdfc\n      eq\n      tag_30\n      jumpi\n      dup1\n      0xf6b48e55\n      eq\n      tag_31\n      jumpi\n      dup1\n      0xfa540801\n      eq\n      tag_32\n      jumpi\n      dup1\n      0xff05fe4a\n      eq\n      tag_33\n      jumpi\n      dup1\n      0xffdc6129\n      eq\n      tag_34\n      jumpi\n      0x00\n      dup1\n      revert\n    tag_37:\n      dup1\n      0xe02023a1\n      eq\n      tag_26\n      jumpi\n      dup1\n      0xef5fe79f\n      eq\n      tag_27\n      jumpi\n      dup1\n      0xf055c7a9\n      eq\n      tag_28\n      jumpi\n      dup1\n      0xf2fde38b\n      eq\n      tag_29\n      jumpi\n      0x00\n      dup1\n      revert\n    tag_36:\n      dup1\n      0xbff863ec\n      gt\n      tag_38\n      jumpi\n      dup1\n      0xbff863ec\n      eq\n      tag_22\n      jumpi\n      dup1\n      0xc4e41b22\n      eq\n      tag_23\n      jumpi\n      dup1\n      0xde6892c8\n      eq\n      tag_24\n      jumpi\n      dup1\n      0xdf4e5881\n      eq\n      tag_25\n      jumpi\n      0x00\n      dup1\n      revert\n    tag_38:\n      dup1\n      0x9e6c8855\n      eq\n      tag_18\n      jumpi\n      dup1\n      0xa4435dfd\n      eq\n      tag_19\n      jumpi\n      dup1\n      0xa7bb5803\n      eq\n      tag_20\n      jumpi\n      dup1\n      0xb5abafa1\n      eq\n      tag_21\n      jumpi\n      0x00\n      dup1\n      revert\n    tag_35:\n      dup1\n      0x51cff8d9\n      gt\n      tag_39\n      jumpi\n      dup1\n      0x8407ecc4\n      gt\n      tag_40\n      jumpi\n      dup1\n      0x8407ecc4\n      eq\n      tag_14\n      jumpi\n      dup1\n      0x8907f3fa\n      eq\n      tag_15\n      jumpi\n      dup1\n      0x8da5cb5b\n      eq\n      tag_16\n      jumpi\n      dup1\n      0x97aba7f9\n      eq\n      tag_17\n      jumpi\n      0x00\n      dup1\n      revert\n    tag_40:\n      dup1\n      0x51cff8d9\n      eq\n      tag_10\n      jumpi\n      dup1\n      0x6c19e783\n      eq\n      tag_11\n      jumpi\n      dup1\n      0x715018a6\n      eq\n      tag_12\n      jumpi\n      dup1\n      0x7cb64759\n      eq\n      tag_13\n      jumpi\n      0x00\n      dup1\n      revert\n    tag_39:\n      dup1\n      0x24c37a85\n      gt\n      tag_41\n      jumpi\n      dup1\n      0x24c37a85\n      eq\n      tag_6\n      jumpi\n      dup1\n      0x2eb4a7ab\n      eq\n      tag_7\n      jumpi\n      dup1\n      0x42920a46\n      eq\n      tag_8\n      jumpi\n      dup1\n      0x4c0f38c2\n      eq\n      tag_9\n      jumpi\n      0x00\n      dup1\n      revert\n    tag_41:\n      dup1\n      0x0a25dea9\n      eq\n      tag_2\n      jumpi\n      dup1\n      0x0e2d56cf\n      eq\n      tag_3\n      jumpi\n      dup1\n      0x1f5ac1b2\n      eq\n      tag_4\n      jumpi\n      dup1\n      0x238ac933\n      eq\n      tag_5\n      jumpi\n    tag_1:\n      0x00\n      dup1\n      revert\n        /* \"ERC721A/MintNagaKids.sol\":826:926  bytes32 public constant DEFAULT = 0x0000000000000000000000000000000000000000000000000000000000000000 */\n    tag_2:\n      callvalue\n      dup1\n      iszero\n      tag_42\n      jumpi\n      0x00\n      dup1\n      revert\n    tag_42:\n      pop\n      tag_43\n        /* \"ERC721A/MintNagaKids.sol\":860:926  0x0000000000000000000000000000000000000000000000000000000000000000 */\n      0x00\n        /* \"ERC721A/MintNagaKids.sol\":826:926  bytes32 public constant DEFAULT = 0x0000000000000000000000000000000000000000000000000000000000000000 */\n      dup2\n      jump\n    tag_43:\n      mload(0x40)\n        /* \"#utility.yul\":160:185   */\n      swap1\n      dup2\n      mstore\n        /* \"#utility.yul\":148:150   */\n      0x20\n        /* \"#utility.yul\":133:151   */\n      add\n        /* \"ERC721A/MintNagaKids.sol\":826:926  bytes32 public constant DEFAULT = 0x0000000000000000000000000000000000000000000000000000000000000000 */\n    tag_45:\n      mload(0x40)\n      dup1\n      swap2\n      sub\n      swap1\n      return\n        /* \"ERC721A/MintNagaKids.sol\":2425:2495  function setPublicMint(bool _bool) public onlyOwner {... */\n    tag_3:\n      callvalue\n      dup1\n      iszero\n      tag_47\n      jumpi\n      0x00\n      dup1\n      revert\n    tag_47:\n      pop\n      tag_48\n      tag_49\n      calldatasize\n      0x04\n      tag_50\n      jump\t// in\n    tag_49:\n      tag_51\n      jump\t// in\n    tag_48:\n      stop\n        /* \"ERC721A/VerifySignature.sol\":99:259  function getMessageHash(... */\n    tag_4:\n      callvalue\n      dup1\n      iszero\n      tag_52\n      jumpi\n      0x00\n      dup1\n      revert\n    tag_52:\n      pop\n      tag_43\n      tag_54\n      calldatasize\n      0x04\n      tag_55\n      jump\t// in\n    tag_54:\n      tag_56\n      jump\t// in\n        /* \"ERC721A/MintNagaKids.sol\":1213:1234  address public signer */\n    tag_5:\n      callvalue\n      dup1\n      iszero\n      tag_58\n      jumpi\n      0x00\n      dup1\n      revert\n    tag_58:\n      pop\n      sload(0x05)\n      tag_59\n      swap1\n      0x010000\n      swap1\n      div\n      sub(shl(0xa0, 0x01), 0x01)\n      and\n      dup2\n      jump\n    tag_59:\n      mload(0x40)\n      sub(shl(0xa0, 0x01), 0x01)\n        /* \"#utility.yul\":1117:1149   */\n      swap1\n      swap2\n      and\n        /* \"#utility.yul\":1099:1150   */\n      dup2\n      mstore\n        /* \"#utility.yul\":1087:1089   */\n      0x20\n        /* \"#utility.yul\":1072:1090   */\n      add\n        /* \"ERC721A/MintNagaKids.sol\":1213:1234  address public signer */\n      tag_45\n        /* \"#utility.yul\":953:1156   */\n      jump\n        /* \"ERC721A/MintNagaKids.sol\":661:745  bytes32 public constant NAGA_HOLDER_MINT_ROUND = keccak256(\"NAGA_HOLDER_MINT_ROUND\") */\n    tag_6:\n      callvalue\n      dup1\n      iszero\n      tag_63\n      jumpi\n      0x00\n      dup1\n      revert\n    tag_63:\n      pop\n      tag_43\n        /* \"ERC721A/MintNagaKids.sol\":710:745  keccak256(\"NAGA_HOLDER_MINT_ROUND\") */\n      0xb3c595e55271590809f54e2f4fc3a582754f45b104dd3c41666e2ad310493db3\n        /* \"ERC721A/MintNagaKids.sol\":661:745  bytes32 public constant NAGA_HOLDER_MINT_ROUND = keccak256(\"NAGA_HOLDER_MINT_ROUND\") */\n      dup2\n      jump\n        /* \"ERC721A/MintNagaKids.sol\":1090:1115  bytes32 public merkleRoot */\n    tag_7:\n      callvalue\n      dup1\n      iszero\n      tag_67\n      jumpi\n      0x00\n      dup1\n      revert\n    tag_67:\n      pop\n      tag_43\n      sload(0x04)\n      dup2\n      jump\n        /* \"ERC721A/VerifySignature.sol\":769:1119  function verify(... */\n    tag_8:\n      callvalue\n      dup1\n      iszero\n      tag_71\n      jumpi\n      0x00\n      dup1\n      revert\n    tag_71:\n      pop\n      tag_72\n      tag_73\n      calldatasize\n      0x04\n      tag_74\n      jump\t// in\n    tag_73:\n      tag_75\n      jump\t// in\n    tag_72:\n      mload(0x40)\n        /* \"#utility.yul\":2782:2796   */\n      swap1\n      iszero\n        /* \"#utility.yul\":2775:2797   */\n      iszero\n        /* \"#utility.yul\":2757:2798   */\n      dup2\n      mstore\n        /* \"#utility.yul\":2745:2747   */\n      0x20\n        /* \"#utility.yul\":2730:2748   */\n      add\n        /* \"ERC721A/VerifySignature.sol\":769:1119  function verify(... */\n      tag_45\n        /* \"#utility.yul\":2617:2804   */\n      jump\n        /* \"ERC721A/MintNagaKids.sol\":6862:6969  function getMaxSupply() public view returns (uint256) {... */\n    tag_9:\n      callvalue\n      dup1\n      iszero\n      tag_78\n      jumpi\n      0x00\n      dup1\n      revert\n    tag_78:\n      pop\n      tag_43\n      tag_80\n      jump\t// in\n        /* \"ERC721A/MintNagaKids.sol\":5370:5708  function withdraw(address _to) public onlyOwner {... */\n    tag_10:\n      callvalue\n      dup1\n      iszero\n      tag_83\n      jumpi\n      0x00\n      dup1\n      revert\n    tag_83:\n      pop\n      tag_48\n      tag_85\n      calldatasize\n      0x04\n      tag_55\n      jump\t// in\n    tag_85:\n      tag_86\n      jump\t// in\n        /* \"ERC721A/MintNagaKids.sol\":3004:3188  function setSigner(address _signer) public onlyOwner {... */\n    tag_11:\n      callvalue\n      dup1\n      iszero\n      tag_87\n      jumpi\n      0x00\n      dup1\n      revert\n    tag_87:\n      pop\n      tag_48\n      tag_89\n      calldatasize\n      0x04\n      tag_55\n      jump\t// in\n    tag_89:\n      tag_90\n      jump\t// in\n        /* \"@openzeppelin/contracts/access/Ownable.sol\":1668:1769  function renounceOwnership() public virtual onlyOwner {... */\n    tag_12:\n      callvalue\n      dup1\n      iszero\n      tag_91\n      jumpi\n      0x00\n      dup1\n      revert\n    tag_91:\n      pop\n      tag_48\n      tag_93\n      jump\t// in\n        /* \"ERC721A/MintNagaKids.sol\":3196:3416  function setMerkleRoot(bytes32 _merkleRoot) public onlyOwner {... */\n    tag_13:\n      callvalue\n      dup1\n      iszero\n      tag_94\n      jumpi\n      0x00\n      dup1\n      revert\n    tag_94:\n      pop\n      tag_48\n      tag_96\n      calldatasize\n      0x04\n      tag_97\n      jump\t// in\n    tag_96:\n      tag_98\n      jump\t// in\n        /* \"ERC721A/MintNagaKids.sol\":5716:6093  function withdrawCurrency(address _to,address _currency) public onlyOwner {... */\n    tag_14:\n      callvalue\n      dup1\n      iszero\n      tag_99\n      jumpi\n      0x00\n      dup1\n      revert\n    tag_99:\n      pop\n      tag_48\n      tag_101\n      calldatasize\n      0x04\n      tag_102\n      jump\t// in\n    tag_101:\n      tag_103\n      jump\t// in\n        /* \"ERC721A/MintNagaKids.sol\":1167:1204  bool public isPrivateMintOpen = false */\n    tag_15:\n      callvalue\n      dup1\n      iszero\n      tag_104\n      jumpi\n      0x00\n      dup1\n      revert\n    tag_104:\n      pop\n      sload(0x05)\n      tag_72\n      swap1\n      0x0100\n      swap1\n      div\n      0xff\n      and\n      dup2\n      jump\n        /* \"@openzeppelin/contracts/access/Ownable.sol\":1036:1121  function owner() public view virtual returns (address) {... */\n    tag_16:\n      callvalue\n      dup1\n      iszero\n      tag_108\n      jumpi\n      0x00\n      dup1\n      revert\n    tag_108:\n      pop\n        /* \"@openzeppelin/contracts/access/Ownable.sol\":1082:1089  address */\n      0x00\n        /* \"@openzeppelin/contracts/access/Ownable.sol\":1108:1114  _owner */\n      sload\n      sub(shl(0xa0, 0x01), 0x01)\n      and\n        /* \"@openzeppelin/contracts/access/Ownable.sol\":1036:1121  function owner() public view virtual returns (address) {... */\n      jump(tag_59)\n        /* \"ERC721A/VerifySignature.sol\":1127:1401  function recoverSigner(... */\n    tag_17:\n      callvalue\n      dup1\n      iszero\n      tag_112\n      jumpi\n      0x00\n      dup1\n      revert\n    tag_112:\n      pop\n      tag_59\n      tag_114\n      calldatasize\n      0x04\n      tag_115\n      jump\t// in\n    tag_114:\n      tag_116\n      jump\t// in\n        /* \"ERC721A/MintNagaKids.sol\":2503:2791  function setNagaKidContract(INagaKid _nagaKid) public onlyOwner {... */\n    tag_18:\n      callvalue\n      dup1\n      iszero\n      tag_118\n      jumpi\n      0x00\n      dup1\n      revert\n    tag_118:\n      pop\n      tag_48\n      tag_120\n      calldatasize\n      0x04\n      tag_55\n      jump\t// in\n    tag_120:\n      tag_122\n      jump\t// in\n        /* \"ERC721A/MintNagaKids.sol\":1124:1160  bool public isPublicMintOpen = false */\n    tag_19:\n      callvalue\n      dup1\n      iszero\n      tag_123\n      jumpi\n      0x00\n      dup1\n      revert\n    tag_123:\n      pop\n      sload(0x05)\n      tag_72\n      swap1\n      0xff\n      and\n      dup2\n      jump\n        /* \"ERC721A/VerifySignature.sol\":1409:2300  function splitSignature(bytes memory sig)... */\n    tag_20:\n      callvalue\n      dup1\n      iszero\n      tag_127\n      jumpi\n      0x00\n      dup1\n      revert\n    tag_127:\n      pop\n      tag_128\n      tag_129\n      calldatasize\n      0x04\n      tag_130\n      jump\t// in\n    tag_129:\n      tag_131\n      jump\t// in\n    tag_128:\n      0x40\n      dup1\n      mload\n        /* \"#utility.yul\":4753:4778   */\n      swap4\n      dup5\n      mstore\n        /* \"#utility.yul\":4809:4811   */\n      0x20\n        /* \"#utility.yul\":4794:4812   */\n      dup5\n      add\n        /* \"#utility.yul\":4787:4821   */\n      swap3\n      swap1\n      swap3\n      mstore\n        /* \"#utility.yul\":4869:4873   */\n      0xff\n        /* \"#utility.yul\":4857:4874   */\n      and\n        /* \"#utility.yul\":4837:4855   */\n      swap1\n      dup3\n      add\n        /* \"#utility.yul\":4830:4875   */\n      mstore\n        /* \"#utility.yul\":4741:4743   */\n      0x60\n        /* \"#utility.yul\":4726:4744   */\n      add\n        /* \"ERC721A/VerifySignature.sol\":1409:2300  function splitSignature(bytes memory sig)... */\n      tag_45\n        /* \"#utility.yul\":4555:4881   */\n      jump\n        /* \"ERC721A/MintNagaKids.sol\":6592:6735  function userMintedAmount(address _user,bytes32 _round) public view returns(uint256) {... */\n    tag_21:\n      callvalue\n      dup1\n      iszero\n      tag_134\n      jumpi\n      0x00\n      dup1\n      revert\n    tag_134:\n      pop\n      tag_43\n      tag_136\n      calldatasize\n      0x04\n      tag_137\n      jump\t// in\n    tag_136:\n      sub(shl(0xa0, 0x01), 0x01)\n        /* \"ERC721A/MintNagaKids.sol\":6695:6719  _userMintedAmount[_user] */\n      swap2\n      swap1\n      swap2\n      and\n        /* \"ERC721A/MintNagaKids.sol\":6668:6675  uint256 */\n      0x00\n        /* \"ERC721A/MintNagaKids.sol\":6695:6719  _userMintedAmount[_user] */\n      swap1\n      dup2\n      mstore\n        /* \"ERC721A/MintNagaKids.sol\":6695:6712  _userMintedAmount */\n      0x07\n        /* \"ERC721A/MintNagaKids.sol\":6695:6719  _userMintedAmount[_user] */\n      0x20\n      swap1\n      dup2\n      mstore\n      0x40\n      dup1\n      dup4\n      keccak256\n        /* \"ERC721A/MintNagaKids.sol\":6695:6727  _userMintedAmount[_user][_round] */\n      swap4\n      dup4\n      mstore\n      swap3\n      swap1\n      mstore\n      keccak256\n      sload\n      swap1\n        /* \"ERC721A/MintNagaKids.sol\":6592:6735  function userMintedAmount(address _user,bytes32 _round) public view returns(uint256) {... */\n      jump\n        /* \"ERC721A/MintNagaKids.sol\":6101:6444  function withdrawNFT(address _to,address _NFT,uint256 _tokenId) public onlyOwner {... */\n    tag_22:\n      callvalue\n      dup1\n      iszero\n      tag_140\n      jumpi\n      0x00\n      dup1\n      revert\n    tag_140:\n      pop\n      tag_48\n      tag_142\n      calldatasize\n      0x04\n      tag_143\n      jump\t// in\n    tag_142:\n      tag_144\n      jump\t// in\n        /* \"ERC721A/MintNagaKids.sol\":6743:6854  function getTotalSupply() public view returns (uint256) {... */\n    tag_23:\n      callvalue\n      dup1\n      iszero\n      tag_145\n      jumpi\n      0x00\n      dup1\n      revert\n    tag_145:\n      pop\n      tag_43\n      tag_147\n      jump\t// in\n        /* \"ERC721A/MintNagaKids.sol\":4427:5242  function publicMint(bytes calldata _sig) public payable nonReentrant {... */\n    tag_24:\n      tag_48\n      tag_150\n      calldatasize\n      0x04\n      tag_151\n      jump\t// in\n    tag_150:\n      tag_152\n      jump\t// in\n        /* \"ERC721A/MintNagaKids.sol\":1014:1045  INagaKid public nagaKidContract */\n    tag_25:\n      callvalue\n      dup1\n      iszero\n      tag_153\n      jumpi\n      0x00\n      dup1\n      revert\n    tag_153:\n      pop\n      sload(0x02)\n      tag_59\n      swap1\n      sub(shl(0xa0, 0x01), 0x01)\n      and\n      dup2\n      jump\n        /* \"ERC721A/MintNagaKids.sol\":939:1005  bytes32 public constant WITHDRAW_ROLE = keccak256(\"WITHDRAW_ROLE\") */\n    tag_26:\n      callvalue\n      dup1\n      iszero\n      tag_158\n      jumpi\n      0x00\n      dup1\n      revert\n    tag_158:\n      pop\n      tag_43\n        /* \"ERC721A/MintNagaKids.sol\":979:1005  keccak256(\"WITHDRAW_ROLE\") */\n      0x5d8e12c39142ff96d79d04d15d1ba1269e4fe57bb9d26f43523628b34ba108ec\n        /* \"ERC721A/MintNagaKids.sol\":939:1005  bytes32 public constant WITHDRAW_ROLE = keccak256(\"WITHDRAW_ROLE\") */\n      dup2\n      jump\n        /* \"ERC721A/MintNagaKids.sol\":1052:1083  bytes32 public currentMintRound */\n    tag_27:\n      callvalue\n      dup1\n      iszero\n      tag_162\n      jumpi\n      0x00\n      dup1\n      revert\n    tag_162:\n      pop\n      tag_43\n      sload(0x03)\n      dup2\n      jump\n        /* \"ERC721A/MintNagaKids.sol\":5250:5362  function isPublicMinted(address _addr) public view returns(bool){... */\n    tag_28:\n      callvalue\n      dup1\n      iszero\n      tag_166\n      jumpi\n      0x00\n      dup1\n      revert\n    tag_166:\n      pop\n      tag_72\n      tag_168\n      calldatasize\n      0x04\n      tag_55\n      jump\t// in\n    tag_168:\n      sub(shl(0xa0, 0x01), 0x01)\n        /* \"ERC721A/MintNagaKids.sol\":5332:5354  _isPublicMinted[_addr] */\n      and\n        /* \"ERC721A/MintNagaKids.sol\":5309:5313  bool */\n      0x00\n        /* \"ERC721A/MintNagaKids.sol\":5332:5354  _isPublicMinted[_addr] */\n      swap1\n      dup2\n      mstore\n        /* \"ERC721A/MintNagaKids.sol\":5332:5347  _isPublicMinted */\n      0x08\n        /* \"ERC721A/MintNagaKids.sol\":5332:5354  _isPublicMinted[_addr] */\n      0x20\n      mstore\n      0x40\n      swap1\n      keccak256\n      sload\n      0xff\n      and\n      swap1\n        /* \"ERC721A/MintNagaKids.sol\":5250:5362  function isPublicMinted(address _addr) public view returns(bool){... */\n      jump\n        /* \"@openzeppelin/contracts/access/Ownable.sol\":1918:2116  function transferOwnership(address newOwner) public virtual onlyOwner {... */\n    tag_29:\n      callvalue\n      dup1\n      iszero\n      tag_171\n      jumpi\n      0x00\n      dup1\n      revert\n    tag_171:\n      pop\n      tag_48\n      tag_173\n      calldatasize\n      0x04\n      tag_55\n      jump\t// in\n    tag_173:\n      tag_174\n      jump\t// in\n        /* \"ERC721A/MintNagaKids.sol\":504:584  bytes32 public constant WHITELIST_MINT_ROUND = keccak256(\"WHITELIST_MINT_ROUND\") */\n    tag_30:\n      callvalue\n      dup1\n      iszero\n      tag_175\n      jumpi\n      0x00\n      dup1\n      revert\n    tag_175:\n      pop\n      tag_43\n        /* \"ERC721A/MintNagaKids.sol\":551:584  keccak256(\"WHITELIST_MINT_ROUND\") */\n      0x68e7d51fdb912cb107dda2e59b053d87fcca666dd0ef5339cd3474ccb5276bba\n        /* \"ERC721A/MintNagaKids.sol\":504:584  bytes32 public constant WHITELIST_MINT_ROUND = keccak256(\"WHITELIST_MINT_ROUND\") */\n      dup2\n      jump\n        /* \"ERC721A/MintNagaKids.sol\":3424:4419  function allowlistMint(bytes32[] calldata _proof, uint256 _amount, bytes32 _round) public payable nonReentrant {... */\n    tag_31:\n      tag_48\n      tag_180\n      calldatasize\n      0x04\n      tag_181\n      jump\t// in\n    tag_180:\n      tag_182\n      jump\t// in\n        /* \"ERC721A/VerifySignature.sol\":267:761  function getEthSignedMessageHash(bytes32 _messageHash)... */\n    tag_32:\n      callvalue\n      dup1\n      iszero\n      tag_183\n      jumpi\n      0x00\n      dup1\n      revert\n    tag_183:\n      pop\n      tag_43\n      tag_185\n      calldatasize\n      0x04\n      tag_97\n      jump\t// in\n    tag_185:\n      tag_186\n      jump\t// in\n        /* \"ERC721A/MintNagaKids.sol\":2799:2996  function setRound(bytes32 _round) public onlyOwner {... */\n    tag_33:\n      callvalue\n      dup1\n      iszero\n      tag_188\n      jumpi\n      0x00\n      dup1\n      revert\n    tag_188:\n      pop\n      tag_48\n      tag_190\n      calldatasize\n      0x04\n      tag_97\n      jump\t// in\n    tag_190:\n      tag_191\n      jump\t// in\n        /* \"ERC721A/MintNagaKids.sol\":6452:6584  function isUserMinted(address _user,bytes32 _round) public view returns(bool) {... */\n    tag_34:\n      callvalue\n      dup1\n      iszero\n      tag_192\n      jumpi\n      0x00\n      dup1\n      revert\n    tag_192:\n      pop\n      tag_72\n      tag_194\n      calldatasize\n      0x04\n      tag_137\n      jump\t// in\n    tag_194:\n      sub(shl(0xa0, 0x01), 0x01)\n        /* \"ERC721A/MintNagaKids.sol\":6548:6568  _isUserMinted[_user] */\n      swap2\n      swap1\n      swap2\n      and\n        /* \"ERC721A/MintNagaKids.sol\":6524:6528  bool */\n      0x00\n        /* \"ERC721A/MintNagaKids.sol\":6548:6568  _isUserMinted[_user] */\n      swap1\n      dup2\n      mstore\n        /* \"ERC721A/MintNagaKids.sol\":6548:6561  _isUserMinted */\n      0x06\n        /* \"ERC721A/MintNagaKids.sol\":6548:6568  _isUserMinted[_user] */\n      0x20\n      swap1\n      dup2\n      mstore\n      0x40\n      dup1\n      dup4\n      keccak256\n        /* \"ERC721A/MintNagaKids.sol\":6548:6576  _isUserMinted[_user][_round] */\n      swap4\n      dup4\n      mstore\n      swap3\n      swap1\n      mstore\n      keccak256\n      sload\n      0xff\n      and\n      swap1\n        /* \"ERC721A/MintNagaKids.sol\":6452:6584  function isUserMinted(address _user,bytes32 _round) public view returns(bool) {... */\n      jump\n        /* \"ERC721A/MintNagaKids.sol\":2425:2495  function setPublicMint(bool _bool) public onlyOwner {... */\n    tag_51:\n        /* \"@openzeppelin/contracts/access/Ownable.sol\":1082:1089  address */\n      0x00\n        /* \"@openzeppelin/contracts/access/Ownable.sol\":1108:1114  _owner */\n      sload\n      sub(shl(0xa0, 0x01), 0x01)\n      and\n        /* \"@openzeppelin/contracts/utils/Context.sol\":719:729  msg.sender */\n      caller\n        /* \"@openzeppelin/contracts/access/Ownable.sol\":1248:1271  owner() == _msgSender() */\n      eq\n        /* \"@openzeppelin/contracts/access/Ownable.sol\":1240:1308  require(owner() == _msgSender(), \"Ownable: caller is not the owner\") */\n      tag_201\n      jumpi\n      mload(0x40)\n      shl(0xe5, 0x461bcd)\n      dup2\n      mstore\n      0x04\n      add\n      tag_202\n      swap1\n      tag_203\n      jump\t// in\n    tag_202:\n      mload(0x40)\n      dup1\n      swap2\n      sub\n      swap1\n      revert\n    tag_201:\n        /* \"ERC721A/MintNagaKids.sol\":2425:2495  function setPublicMint(bool _bool) public onlyOwner {... */\n      pop\n      jump\t// out\n        /* \"ERC721A/VerifySignature.sol\":99:259  function getMessageHash(... */\n    tag_56:\n        /* \"ERC721A/VerifySignature.sol\":212:250  abi.encodePacked(_user, address(this)) */\n      mload(0x40)\n      not(0xffffffffffffffffffffffff)\n        /* \"#utility.yul\":7837:7839   */\n      0x60\n        /* \"#utility.yul\":7833:7848   */\n      dup4\n      dup2\n      shl\n        /* \"#utility.yul\":7829:7853   */\n      dup3\n      and\n        /* \"ERC721A/VerifySignature.sol\":212:250  abi.encodePacked(_user, address(this)) */\n      0x20\n      dup5\n      add\n        /* \"#utility.yul\":7817:7854   */\n      mstore\n        /* \"ERC721A/VerifySignature.sol\":244:248  this */\n      address\n        /* \"#utility.yul\":7888:7903   */\n      swap1\n      shl\n        /* \"#utility.yul\":7884:7908   */\n      and\n        /* \"#utility.yul\":7870:7882   */\n      0x34\n      dup3\n      add\n        /* \"#utility.yul\":7863:7909   */\n      mstore\n        /* \"ERC721A/VerifySignature.sol\":175:182  bytes32 */\n      0x00\n      swap1\n        /* \"#utility.yul\":7925:7937   */\n      0x48\n      add\n        /* \"ERC721A/VerifySignature.sol\":212:250  abi.encodePacked(_user, address(this)) */\n    tag_206:\n      mload(0x40)\n      0x20\n      dup2\n      dup4\n      sub\n      sub\n      dup2\n      mstore\n      swap1\n      0x40\n      mstore\n        /* \"ERC721A/VerifySignature.sol\":202:251  keccak256(abi.encodePacked(_user, address(this))) */\n      dup1\n      mload\n      swap1\n      0x20\n      add\n      keccak256\n        /* \"ERC721A/VerifySignature.sol\":195:251  return keccak256(abi.encodePacked(_user, address(this))) */\n      swap1\n      pop\n        /* \"ERC721A/VerifySignature.sol\":99:259  function getMessageHash(... */\n      swap2\n      swap1\n      pop\n      jump\t// out\n        /* \"ERC721A/VerifySignature.sol\":769:1119  function verify(... */\n    tag_75:\n        /* \"ERC721A/VerifySignature.sol\":896:900  bool */\n      0x00\n        /* \"ERC721A/VerifySignature.sol\":913:932  bytes32 messageHash */\n      dup1\n        /* \"ERC721A/VerifySignature.sol\":935:956  getMessageHash(_user) */\n      tag_209\n        /* \"ERC721A/VerifySignature.sol\":950:955  _user */\n      dup5\n        /* \"ERC721A/VerifySignature.sol\":935:949  getMessageHash */\n      tag_56\n        /* \"ERC721A/VerifySignature.sol\":935:956  getMessageHash(_user) */\n      jump\t// in\n    tag_209:\n        /* \"ERC721A/VerifySignature.sol\":913:956  bytes32 messageHash = getMessageHash(_user) */\n      swap1\n      pop\n        /* \"ERC721A/VerifySignature.sol\":967:995  bytes32 ethSignedMessageHash */\n      0x00\n        /* \"ERC721A/VerifySignature.sol\":998:1034  getEthSignedMessageHash(messageHash) */\n      tag_210\n        /* \"ERC721A/VerifySignature.sol\":1022:1033  messageHash */\n      dup3\n        /* \"ERC721A/VerifySignature.sol\":998:1021  getEthSignedMessageHash */\n      tag_186\n        /* \"ERC721A/VerifySignature.sol\":998:1034  getEthSignedMessageHash(messageHash) */\n      jump\t// in\n    tag_210:\n        /* \"ERC721A/VerifySignature.sol\":967:1034  bytes32 ethSignedMessageHash = getEthSignedMessageHash(messageHash) */\n      swap1\n      pop\n        /* \"ERC721A/VerifySignature.sol\":1104:1111  _signer */\n      dup6\n      sub(shl(0xa0, 0x01), 0x01)\n        /* \"ERC721A/VerifySignature.sol\":1054:1111  recoverSigner(ethSignedMessageHash, signature) == _signer */\n      and\n        /* \"ERC721A/VerifySignature.sol\":1054:1100  recoverSigner(ethSignedMessageHash, signature) */\n      tag_211\n        /* \"ERC721A/VerifySignature.sol\":1068:1088  ethSignedMessageHash */\n      dup3\n        /* \"ERC721A/VerifySignature.sol\":1090:1099  signature */\n      dup7\n        /* \"ERC721A/VerifySignature.sol\":1054:1067  recoverSigner */\n      tag_116\n        /* \"ERC721A/VerifySignature.sol\":1054:1100  recoverSigner(ethSignedMessageHash, signature) */\n      jump\t// in\n    tag_211:\n      sub(shl(0xa0, 0x01), 0x01)\n        /* \"ERC721A/VerifySignature.sol\":1054:1111  recoverSigner(ethSignedMessageHash, signature) == _signer */\n      and\n      eq\n      swap7\n        /* \"ERC721A/VerifySignature.sol\":769:1119  function verify(... */\n      swap6\n      pop\n      pop\n      pop\n      pop\n      pop\n      pop\n      jump\t// out\n        /* \"ERC721A/MintNagaKids.sol\":6862:6969  function getMaxSupply() public view returns (uint256) {... */\n    tag_80:\n        /* \"ERC721A/MintNagaKids.sol\":6934:6949  nagaKidContract */\n      sload(0x02)\n        /* \"ERC721A/MintNagaKids.sol\":6934:6961  nagaKidContract.maxSupply() */\n      0x40\n      dup1\n      mload\n      shl(0xe0, 0xd5abeb01)\n      dup2\n      mstore\n      swap1\n      mload\n        /* \"ERC721A/MintNagaKids.sol\":6907:6914  uint256 */\n      0x00\n      swap3\n      sub(shl(0xa0, 0x01), 0x01)\n        /* \"ERC721A/MintNagaKids.sol\":6934:6949  nagaKidContract */\n      and\n      swap2\n        /* \"ERC721A/MintNagaKids.sol\":6934:6959  nagaKidContract.maxSupply */\n      0xd5abeb01\n      swap2\n        /* \"ERC721A/MintNagaKids.sol\":6934:6961  nagaKidContract.maxSupply() */\n      0x04\n      dup1\n      dup4\n      add\n      swap3\n      0x20\n      swap3\n      swap2\n      swap1\n      dup3\n      swap1\n      sub\n      add\n      dup2\n        /* \"ERC721A/MintNagaKids.sol\":6934:6949  nagaKidContract */\n      dup7\n        /* \"ERC721A/MintNagaKids.sol\":6934:6961  nagaKidContract.maxSupply() */\n      gas\n      staticcall\n      iszero\n      dup1\n      iszero\n      tag_214\n      jumpi\n      returndatasize\n      0x00\n      dup1\n      returndatacopy\n      revert(0x00, returndatasize)\n    tag_214:\n      pop\n      pop\n      pop\n      pop\n      mload(0x40)\n      returndatasize\n      not(0x1f)\n      0x1f\n      dup3\n      add\n      and\n      dup3\n      add\n      dup1\n      0x40\n      mstore\n      pop\n      dup2\n      add\n      swap1\n      tag_215\n      swap2\n      swap1\n      tag_216\n      jump\t// in\n    tag_215:\n        /* \"ERC721A/MintNagaKids.sol\":6927:6961  return nagaKidContract.maxSupply() */\n      swap1\n      pop\n        /* \"ERC721A/MintNagaKids.sol\":6862:6969  function getMaxSupply() public view returns (uint256) {... */\n      swap1\n      jump\t// out\n        /* \"ERC721A/MintNagaKids.sol\":5370:5708  function withdraw(address _to) public onlyOwner {... */\n    tag_86:\n        /* \"@openzeppelin/contracts/access/Ownable.sol\":1082:1089  address */\n      0x00\n        /* \"@openzeppelin/contracts/access/Ownable.sol\":1108:1114  _owner */\n      sload\n      sub(shl(0xa0, 0x01), 0x01)\n      and\n        /* \"@openzeppelin/contracts/utils/Context.sol\":719:729  msg.sender */\n      caller\n        /* \"@openzeppelin/contracts/access/Ownable.sol\":1248:1271  owner() == _msgSender() */\n      eq\n        /* \"@openzeppelin/contracts/access/Ownable.sol\":1240:1308  require(owner() == _msgSender(), \"Ownable: caller is not the owner\") */\n      tag_220\n      jumpi\n      mload(0x40)\n      shl(0xe5, 0x461bcd)\n      dup2\n      mstore\n      0x04\n      add\n      tag_202\n      swap1\n      tag_203\n      jump\t// in\n    tag_220:\n        /* \"ERC721A/MintNagaKids.sol\":5454:5475  address(this).balance */\n      selfbalance\n        /* \"ERC721A/MintNagaKids.sol\":5494:5515  balanceOFContract > 0 */\n      dup1\n        /* \"ERC721A/MintNagaKids.sol\":5486:5540  require(balanceOFContract > 0, \"Insufficient Balance\") */\n      tag_223\n      jumpi\n      mload(0x40)\n      shl(0xe5, 0x461bcd)\n      dup2\n      mstore\n        /* \"#utility.yul\":8339:8341   */\n      0x20\n        /* \"ERC721A/MintNagaKids.sol\":5486:5540  require(balanceOFContract > 0, \"Insufficient Balance\") */\n      0x04\n      dup3\n      add\n        /* \"#utility.yul\":8321:8342   */\n      mstore\n        /* \"#utility.yul\":8378:8380   */\n      0x14\n        /* \"#utility.yul\":8358:8376   */\n      0x24\n      dup3\n      add\n        /* \"#utility.yul\":8351:8381   */\n      mstore\n      shl(0x60, 0x496e73756666696369656e742042616c616e6365)\n        /* \"#utility.yul\":8397:8415   */\n      0x44\n      dup3\n      add\n        /* \"#utility.yul\":8390:8440   */\n      mstore\n        /* \"#utility.yul\":8457:8475   */\n      0x64\n      add\n        /* \"ERC721A/MintNagaKids.sol\":5486:5540  require(balanceOFContract > 0, \"Insufficient Balance\") */\n      tag_202\n        /* \"#utility.yul\":8137:8481   */\n      jump\n        /* \"ERC721A/MintNagaKids.sol\":5486:5540  require(balanceOFContract > 0, \"Insufficient Balance\") */\n    tag_223:\n        /* \"ERC721A/MintNagaKids.sol\":5552:5563  bool status */\n      0x00\n        /* \"ERC721A/MintNagaKids.sol\":5568:5571  _to */\n      dup3\n      sub(shl(0xa0, 0x01), 0x01)\n        /* \"ERC721A/MintNagaKids.sol\":5568:5576  _to.call */\n      and\n        /* \"ERC721A/MintNagaKids.sol\":5584:5601  balanceOFContract */\n      dup3\n        /* \"ERC721A/MintNagaKids.sol\":5568:5607  _to.call{value: balanceOFContract }(\"\") */\n      mload(0x40)\n      0x00\n      mload(0x40)\n      dup1\n      dup4\n      sub\n      dup2\n      dup6\n      dup8\n      gas\n      call\n      swap3\n      pop\n      pop\n      pop\n      returndatasize\n      dup1\n      0x00\n      dup2\n      eq\n      tag_230\n      jumpi\n      mload(0x40)\n      swap2\n      pop\n      and(add(returndatasize, 0x3f), not(0x1f))\n      dup3\n      add\n      0x40\n      mstore\n      returndatasize\n      dup3\n      mstore\n      returndatasize\n      0x00\n      0x20\n      dup5\n      add\n      returndatacopy\n      jump(tag_229)\n    tag_230:\n      0x60\n      swap2\n      pop\n    tag_229:\n      pop\n        /* \"ERC721A/MintNagaKids.sol\":5551:5607  (bool status,) = _to.call{value: balanceOFContract }(\"\") */\n      pop\n      swap1\n      pop\n        /* \"ERC721A/MintNagaKids.sol\":5626:5632  status */\n      dup1\n        /* \"ERC721A/MintNagaKids.sol\":5618:5633  require(status) */\n      tag_231\n      jumpi\n      0x00\n      dup1\n      revert\n    tag_231:\n        /* \"ERC721A/MintNagaKids.sol\":5651:5700  Withdraw(_to, balanceOFContract ,block.timestamp) */\n      0x40\n      dup1\n      mload\n      sub(shl(0xa0, 0x01), 0x01)\n        /* \"#utility.yul\":8916:8948   */\n      dup6\n      and\n        /* \"#utility.yul\":8898:8949   */\n      dup2\n      mstore\n        /* \"#utility.yul\":8980:8982   */\n      0x20\n        /* \"#utility.yul\":8965:8983   */\n      dup2\n      add\n        /* \"#utility.yul\":8958:8992   */\n      dup5\n      swap1\n      mstore\n        /* \"ERC721A/MintNagaKids.sol\":5684:5699  block.timestamp */\n      timestamp\n        /* \"#utility.yul\":9008:9026   */\n      swap2\n      dup2\n      add\n        /* \"#utility.yul\":9001:9035   */\n      swap2\n      swap1\n      swap2\n      mstore\n        /* \"ERC721A/MintNagaKids.sol\":5651:5700  Withdraw(_to, balanceOFContract ,block.timestamp) */\n      0xf279e6a1f5e320cca91135676d9cb6e44ca8a08c0b88342bcdb1144f6511b568\n      swap1\n        /* \"#utility.yul\":8886:8888   */\n      0x60\n        /* \"#utility.yul\":8871:8889   */\n      add\n        /* \"ERC721A/MintNagaKids.sol\":5651:5700  Withdraw(_to, balanceOFContract ,block.timestamp) */\n    tag_232:\n      mload(0x40)\n      dup1\n      swap2\n      sub\n      swap1\n      log1\n        /* \"ERC721A/MintNagaKids.sol\":5418:5708  {... */\n      pop\n      pop\n        /* \"ERC721A/MintNagaKids.sol\":5370:5708  function withdraw(address _to) public onlyOwner {... */\n      pop\n      jump\t// out\n        /* \"ERC721A/MintNagaKids.sol\":3004:3188  function setSigner(address _signer) public onlyOwner {... */\n    tag_90:\n        /* \"@openzeppelin/contracts/access/Ownable.sol\":1082:1089  address */\n      0x00\n        /* \"@openzeppelin/contracts/access/Ownable.sol\":1108:1114  _owner */\n      sload\n      sub(shl(0xa0, 0x01), 0x01)\n      and\n        /* \"@openzeppelin/contracts/utils/Context.sol\":719:729  msg.sender */\n      caller\n        /* \"@openzeppelin/contracts/access/Ownable.sol\":1248:1271  owner() == _msgSender() */\n      eq\n        /* \"@openzeppelin/contracts/access/Ownable.sol\":1240:1308  require(owner() == _msgSender(), \"Ownable: caller is not the owner\") */\n      tag_237\n      jumpi\n      mload(0x40)\n      shl(0xe5, 0x461bcd)\n      dup2\n      mstore\n      0x04\n      add\n      tag_202\n      swap1\n      tag_203\n      jump\t// in\n    tag_237:\n        /* \"ERC721A/MintNagaKids.sol\":3092:3098  signer */\n      0x05\n      dup1\n      sload\n      sub(shl(0xa0, 0x01), 0x01)\n        /* \"ERC721A/MintNagaKids.sol\":3109:3125  signer = _signer */\n      dup4\n      dup2\n      and\n        /* \"ERC721A/MintNagaKids.sol\":3092:3098  signer */\n      0x010000\n        /* \"ERC721A/MintNagaKids.sol\":3109:3125  signer = _signer */\n      dup2\n      dup2\n      mul\n      not(sub(shl(0xb0, 0x01), 0x010000))\n      dup6\n      and\n      or\n      swap1\n      swap5\n      sstore\n        /* \"ERC721A/MintNagaKids.sol\":3143:3180  SignerChanged(_signerBefore, _signer) */\n      0x40\n      dup1\n      mload\n        /* \"ERC721A/MintNagaKids.sol\":3092:3098  signer */\n      swap5\n      swap1\n      swap4\n      div\n      swap1\n      swap2\n      and\n        /* \"#utility.yul\":9258:9292   */\n      dup1\n      dup5\n      mstore\n        /* \"#utility.yul\":9323:9325   */\n      0x20\n        /* \"#utility.yul\":9308:9326   */\n      dup5\n      add\n        /* \"#utility.yul\":9301:9344   */\n      swap2\n      swap1\n      swap2\n      mstore\n        /* \"ERC721A/MintNagaKids.sol\":3092:3098  signer */\n      swap2\n        /* \"ERC721A/MintNagaKids.sol\":3143:3180  SignerChanged(_signerBefore, _signer) */\n      0xeeb293e1f8f3a9db91ade748726387ed1352ca78f5430c5f06fe3d1e1ad50579\n      swap2\n        /* \"#utility.yul\":9193:9211   */\n      add\n        /* \"ERC721A/MintNagaKids.sol\":3143:3180  SignerChanged(_signerBefore, _signer) */\n    tag_240:\n      mload(0x40)\n      dup1\n      swap2\n      sub\n      swap1\n      log1\n        /* \"ERC721A/MintNagaKids.sol\":3057:3188  {... */\n      pop\n        /* \"ERC721A/MintNagaKids.sol\":3004:3188  function setSigner(address _signer) public onlyOwner {... */\n      pop\n      jump\t// out\n        /* \"@openzeppelin/contracts/access/Ownable.sol\":1668:1769  function renounceOwnership() public virtual onlyOwner {... */\n    tag_93:\n        /* \"@openzeppelin/contracts/access/Ownable.sol\":1082:1089  address */\n      0x00\n        /* \"@openzeppelin/contracts/access/Ownable.sol\":1108:1114  _owner */\n      sload\n      sub(shl(0xa0, 0x01), 0x01)\n      and\n        /* \"@openzeppelin/contracts/utils/Context.sol\":719:729  msg.sender */\n      caller\n        /* \"@openzeppelin/contracts/access/Ownable.sol\":1248:1271  owner() == _msgSender() */\n      eq\n        /* \"@openzeppelin/contracts/access/Ownable.sol\":1240:1308  require(owner() == _msgSender(), \"Ownable: caller is not the owner\") */\n      tag_245\n      jumpi\n      mload(0x40)\n      shl(0xe5, 0x461bcd)\n      dup2\n      mstore\n      0x04\n      add\n      tag_202\n      swap1\n      tag_203\n      jump\t// in\n    tag_245:\n        /* \"@openzeppelin/contracts/access/Ownable.sol\":1732:1762  _transferOwnership(address(0)) */\n      tag_248\n        /* \"@openzeppelin/contracts/access/Ownable.sol\":1759:1760  0 */\n      0x00\n        /* \"@openzeppelin/contracts/access/Ownable.sol\":1732:1750  _transferOwnership */\n      tag_249\n        /* \"@openzeppelin/contracts/access/Ownable.sol\":1732:1762  _transferOwnership(address(0)) */\n      jump\t// in\n    tag_248:\n        /* \"@openzeppelin/contracts/access/Ownable.sol\":1668:1769  function renounceOwnership() public virtual onlyOwner {... */\n      jump\t// out\n        /* \"ERC721A/MintNagaKids.sol\":3196:3416  function setMerkleRoot(bytes32 _merkleRoot) public onlyOwner {... */\n    tag_98:\n        /* \"@openzeppelin/contracts/access/Ownable.sol\":1082:1089  address */\n      0x00\n        /* \"@openzeppelin/contracts/access/Ownable.sol\":1108:1114  _owner */\n      sload\n      sub(shl(0xa0, 0x01), 0x01)\n      and\n        /* \"@openzeppelin/contracts/utils/Context.sol\":719:729  msg.sender */\n      caller\n        /* \"@openzeppelin/contracts/access/Ownable.sol\":1248:1271  owner() == _msgSender() */\n      eq\n        /* \"@openzeppelin/contracts/access/Ownable.sol\":1240:1308  require(owner() == _msgSender(), \"Ownable: caller is not the owner\") */\n      tag_253\n      jumpi\n      mload(0x40)\n      shl(0xe5, 0x461bcd)\n      dup2\n      mstore\n      0x04\n      add\n      tag_202\n      swap1\n      tag_203\n      jump\t// in\n    tag_253:\n        /* \"ERC721A/MintNagaKids.sol\":3296:3306  merkleRoot */\n      0x04\n      dup1\n      sload\n        /* \"ERC721A/MintNagaKids.sol\":3317:3341  merkleRoot = _merkleRoot */\n      swap1\n      dup3\n      swap1\n      sstore\n        /* \"ERC721A/MintNagaKids.sol\":3359:3408  MerkleRootChanged(_merkleRootBefore, _merkleRoot) */\n      0x40\n      dup1\n      mload\n        /* \"#utility.yul\":9529:9554   */\n      dup3\n      dup2\n      mstore\n        /* \"#utility.yul\":9585:9587   */\n      0x20\n        /* \"#utility.yul\":9570:9588   */\n      dup2\n      add\n        /* \"#utility.yul\":9563:9597   */\n      dup5\n      swap1\n      mstore\n        /* \"ERC721A/MintNagaKids.sol\":3359:3408  MerkleRootChanged(_merkleRootBefore, _merkleRoot) */\n      0x123d88ba82600dfc3f219f8885c691b0ff020caa535666874b3f5174973757fe\n      swap2\n        /* \"#utility.yul\":9502:9520   */\n      add\n        /* \"ERC721A/MintNagaKids.sol\":3359:3408  MerkleRootChanged(_merkleRootBefore, _merkleRoot) */\n      tag_240\n        /* \"#utility.yul\":9355:9603   */\n      jump\n        /* \"ERC721A/MintNagaKids.sol\":5716:6093  function withdrawCurrency(address _to,address _currency) public onlyOwner {... */\n    tag_103:\n        /* \"@openzeppelin/contracts/access/Ownable.sol\":1082:1089  address */\n      0x00\n        /* \"@openzeppelin/contracts/access/Ownable.sol\":1108:1114  _owner */\n      sload\n      sub(shl(0xa0, 0x01), 0x01)\n      and\n        /* \"@openzeppelin/contracts/utils/Context.sol\":719:729  msg.sender */\n      caller\n        /* \"@openzeppelin/contracts/access/Ownable.sol\":1248:1271  owner() == _msgSender() */\n      eq\n        /* \"@openzeppelin/contracts/access/Ownable.sol\":1240:1308  require(owner() == _msgSender(), \"Ownable: caller is not the owner\") */\n      tag_261\n      jumpi\n      mload(0x40)\n      shl(0xe5, 0x461bcd)\n      dup2\n      mstore\n      0x04\n      add\n      tag_202\n      swap1\n      tag_203\n      jump\t// in\n    tag_261:\n        /* \"ERC721A/MintNagaKids.sol\":5826:5868  IERC20(_currency).balanceOf(address(this)) */\n      mload(0x40)\n      shl(0xe0, 0x70a08231)\n      dup2\n      mstore\n        /* \"ERC721A/MintNagaKids.sol\":5862:5866  this */\n      address\n        /* \"ERC721A/MintNagaKids.sol\":5826:5868  IERC20(_currency).balanceOf(address(this)) */\n      0x04\n      dup3\n      add\n        /* \"#utility.yul\":1099:1150   */\n      mstore\n        /* \"ERC721A/MintNagaKids.sol\":5801:5823  uint balanceOfContract */\n      0x00\n      swap1\n      sub(shl(0xa0, 0x01), 0x01)\n        /* \"ERC721A/MintNagaKids.sol\":5826:5853  IERC20(_currency).balanceOf */\n      dup4\n      and\n      swap1\n      0x70a08231\n      swap1\n        /* \"#utility.yul\":1072:1090   */\n      0x24\n      add\n        /* \"ERC721A/MintNagaKids.sol\":5826:5868  IERC20(_currency).balanceOf(address(this)) */\n      0x20\n      mload(0x40)\n      dup1\n      dup4\n      sub\n      dup2\n      dup7\n      gas\n      staticcall\n      iszero\n      dup1\n      iszero\n      tag_266\n      jumpi\n      returndatasize\n      0x00\n      dup1\n      returndatacopy\n      revert(0x00, returndatasize)\n    tag_266:\n      pop\n      pop\n      pop\n      pop\n      mload(0x40)\n      returndatasize\n      not(0x1f)\n      0x1f\n      dup3\n      add\n      and\n      dup3\n      add\n      dup1\n      0x40\n      mstore\n      pop\n      dup2\n      add\n      swap1\n      tag_267\n      swap2\n      swap1\n      tag_216\n      jump\t// in\n    tag_267:\n        /* \"ERC721A/MintNagaKids.sol\":5801:5868  uint balanceOfContract = IERC20(_currency).balanceOf(address(this)) */\n      swap1\n      pop\n        /* \"ERC721A/MintNagaKids.sol\":5907:5908  0 */\n      0x00\n        /* \"ERC721A/MintNagaKids.sol\":5887:5904  balanceOfContract */\n      dup2\n        /* \"ERC721A/MintNagaKids.sol\":5887:5908  balanceOfContract > 0 */\n      gt\n        /* \"ERC721A/MintNagaKids.sol\":5879:5933  require(balanceOfContract > 0, \"Insufficient Balance\") */\n      tag_268\n      jumpi\n      mload(0x40)\n      shl(0xe5, 0x461bcd)\n      dup2\n      mstore\n        /* \"#utility.yul\":8339:8341   */\n      0x20\n        /* \"ERC721A/MintNagaKids.sol\":5879:5933  require(balanceOfContract > 0, \"Insufficient Balance\") */\n      0x04\n      dup3\n      add\n        /* \"#utility.yul\":8321:8342   */\n      mstore\n        /* \"#utility.yul\":8378:8380   */\n      0x14\n        /* \"#utility.yul\":8358:8376   */\n      0x24\n      dup3\n      add\n        /* \"#utility.yul\":8351:8381   */\n      mstore\n      shl(0x60, 0x496e73756666696369656e742042616c616e6365)\n        /* \"#utility.yul\":8397:8415   */\n      0x44\n      dup3\n      add\n        /* \"#utility.yul\":8390:8440   */\n      mstore\n        /* \"#utility.yul\":8457:8475   */\n      0x64\n      add\n        /* \"ERC721A/MintNagaKids.sol\":5879:5933  require(balanceOfContract > 0, \"Insufficient Balance\") */\n      tag_202\n        /* \"#utility.yul\":8137:8481   */\n      jump\n        /* \"ERC721A/MintNagaKids.sol\":5879:5933  require(balanceOfContract > 0, \"Insufficient Balance\") */\n    tag_268:\n        /* \"ERC721A/MintNagaKids.sol\":5944:5994  IERC20(_currency).transfer(_to, balanceOfContract) */\n      mload(0x40)\n      shl(0xe0, 0xa9059cbb)\n      dup2\n      mstore\n      sub(shl(0xa0, 0x01), 0x01)\n        /* \"#utility.yul\":9800:9832   */\n      dup5\n      dup2\n      and\n        /* \"ERC721A/MintNagaKids.sol\":5944:5994  IERC20(_currency).transfer(_to, balanceOfContract) */\n      0x04\n      dup4\n      add\n        /* \"#utility.yul\":9782:9833   */\n      mstore\n        /* \"#utility.yul\":9849:9867   */\n      0x24\n      dup3\n      add\n        /* \"#utility.yul\":9842:9876   */\n      dup4\n      swap1\n      mstore\n        /* \"ERC721A/MintNagaKids.sol\":5944:5970  IERC20(_currency).transfer */\n      dup4\n      and\n      swap1\n      0xa9059cbb\n      swap1\n        /* \"#utility.yul\":9755:9773   */\n      0x44\n      add\n        /* \"ERC721A/MintNagaKids.sol\":5944:5994  IERC20(_currency).transfer(_to, balanceOfContract) */\n      0x20\n      mload(0x40)\n      dup1\n      dup4\n      sub\n      dup2\n      0x00\n      dup8\n      gas\n      call\n      iszero\n      dup1\n      iszero\n      tag_273\n      jumpi\n      returndatasize\n      0x00\n      dup1\n      returndatacopy\n      revert(0x00, returndatasize)\n    tag_273:\n      pop\n      pop\n      pop\n      pop\n      mload(0x40)\n      returndatasize\n      not(0x1f)\n      0x1f\n      dup3\n      add\n      and\n      dup3\n      add\n      dup1\n      0x40\n      mstore\n      pop\n      dup2\n      add\n      swap1\n      tag_274\n      swap2\n      swap1\n      tag_275\n      jump\t// in\n    tag_274:\n      pop\n        /* \"ERC721A/MintNagaKids.sol\":6020:6085  WithdrawCurrency(_to,_currency,balanceOfContract,block.timestamp) */\n      0x40\n      dup1\n      mload\n      sub(shl(0xa0, 0x01), 0x01)\n        /* \"#utility.yul\":10424:10439   */\n      dup1\n      dup7\n      and\n        /* \"#utility.yul\":10406:10440   */\n      dup3\n      mstore\n        /* \"#utility.yul\":10476:10491   */\n      dup5\n      and\n        /* \"#utility.yul\":10471:10473   */\n      0x20\n        /* \"#utility.yul\":10456:10474   */\n      dup3\n      add\n        /* \"#utility.yul\":10449:10492   */\n      mstore\n        /* \"#utility.yul\":10508:10526   */\n      swap1\n      dup2\n      add\n        /* \"#utility.yul\":10501:10535   */\n      dup3\n      swap1\n      mstore\n        /* \"ERC721A/MintNagaKids.sol\":6069:6084  block.timestamp */\n      timestamp\n        /* \"#utility.yul\":10566:10568   */\n      0x60\n        /* \"#utility.yul\":10551:10569   */\n      dup3\n      add\n        /* \"#utility.yul\":10544:10578   */\n      mstore\n        /* \"ERC721A/MintNagaKids.sol\":6020:6085  WithdrawCurrency(_to,_currency,balanceOfContract,block.timestamp) */\n      0xb818a975f91276df8ba59329becbc23c793df0d503c19ac296c3c372a1fa0461\n      swap1\n        /* \"#utility.yul\":10355:10358   */\n      0x80\n        /* \"#utility.yul\":10340:10359   */\n      add\n        /* \"ERC721A/MintNagaKids.sol\":6020:6085  WithdrawCurrency(_to,_currency,balanceOfContract,block.timestamp) */\n      tag_232\n        /* \"#utility.yul\":10137:10584   */\n      jump\n        /* \"ERC721A/VerifySignature.sol\":1127:1401  function recoverSigner(... */\n    tag_116:\n        /* \"ERC721A/VerifySignature.sol\":1252:1259  address */\n      0x00\n        /* \"ERC721A/VerifySignature.sol\":1273:1282  bytes32 r */\n      dup1\n        /* \"ERC721A/VerifySignature.sol\":1284:1293  bytes32 s */\n      0x00\n        /* \"ERC721A/VerifySignature.sol\":1295:1302  uint8 v */\n      dup1\n        /* \"ERC721A/VerifySignature.sol\":1306:1332  splitSignature(_signature) */\n      tag_280\n        /* \"ERC721A/VerifySignature.sol\":1321:1331  _signature */\n      dup6\n        /* \"ERC721A/VerifySignature.sol\":1306:1320  splitSignature */\n      tag_131\n        /* \"ERC721A/VerifySignature.sol\":1306:1332  splitSignature(_signature) */\n      jump\t// in\n    tag_280:\n        /* \"ERC721A/VerifySignature.sol\":1352:1393  ecrecover(_ethSignedMessageHash, v, r, s) */\n      0x40\n      dup1\n      mload\n      0x00\n      dup2\n      mstore\n      0x20\n      dup2\n      add\n      dup1\n      dup4\n      mstore\n        /* \"#utility.yul\":10816:10841   */\n      dup12\n      swap1\n      mstore\n        /* \"#utility.yul\":10889:10893   */\n      0xff\n        /* \"#utility.yul\":10877:10894   */\n      dup4\n      and\n        /* \"#utility.yul\":10857:10875   */\n      swap2\n      dup2\n      add\n        /* \"#utility.yul\":10850:10895   */\n      swap2\n      swap1\n      swap2\n      mstore\n        /* \"#utility.yul\":10911:10929   */\n      0x60\n      dup2\n      add\n        /* \"#utility.yul\":10904:10938   */\n      dup5\n      swap1\n      mstore\n        /* \"#utility.yul\":10954:10972   */\n      0x80\n      dup2\n      add\n        /* \"#utility.yul\":10947:10981   */\n      dup4\n      swap1\n      mstore\n        /* \"ERC721A/VerifySignature.sol\":1272:1332  (bytes32 r, bytes32 s, uint8 v) = splitSignature(_signature) */\n      swap3\n      swap6\n      pop\n      swap1\n      swap4\n      pop\n      swap2\n      pop\n        /* \"ERC721A/VerifySignature.sol\":1352:1393  ecrecover(_ethSignedMessageHash, v, r, s) */\n      0x01\n      swap1\n        /* \"#utility.yul\":10788:10807   */\n      0xa0\n      add\n        /* \"ERC721A/VerifySignature.sol\":1352:1393  ecrecover(_ethSignedMessageHash, v, r, s) */\n      0x20\n      mload(0x40)\n      0x20\n      dup2\n      sub\n      swap1\n      dup1\n      dup5\n      sub\n      swap1\n      dup6\n      gas\n      staticcall\n      iszero\n      dup1\n      iszero\n      tag_284\n      jumpi\n      returndatasize\n      0x00\n      dup1\n      returndatacopy\n      revert(0x00, returndatasize)\n    tag_284:\n      pop\n      pop\n      mload(add(not(0x1f), mload(0x40)))\n      swap8\n        /* \"ERC721A/VerifySignature.sol\":1127:1401  function recoverSigner(... */\n      swap7\n      pop\n      pop\n      pop\n      pop\n      pop\n      pop\n      pop\n      jump\t// out\n        /* \"ERC721A/MintNagaKids.sol\":2503:2791  function setNagaKidContract(INagaKid _nagaKid) public onlyOwner {... */\n    tag_122:\n        /* \"@openzeppelin/contracts/access/Ownable.sol\":1082:1089  address */\n      0x00\n        /* \"@openzeppelin/contracts/access/Ownable.sol\":1108:1114  _owner */\n      sload\n      sub(shl(0xa0, 0x01), 0x01)\n      and\n        /* \"@openzeppelin/contracts/utils/Context.sol\":719:729  msg.sender */\n      caller\n        /* \"@openzeppelin/contracts/access/Ownable.sol\":1248:1271  owner() == _msgSender() */\n      eq\n        /* \"@openzeppelin/contracts/access/Ownable.sol\":1240:1308  require(owner() == _msgSender(), \"Ownable: caller is not the owner\") */\n      tag_288\n      jumpi\n      mload(0x40)\n      shl(0xe5, 0x461bcd)\n      dup2\n      mstore\n      0x04\n      add\n      tag_202\n      swap1\n      tag_203\n      jump\t// in\n    tag_288:\n        /* \"ERC721A/MintNagaKids.sol\":2610:2625  nagaKidContract */\n      0x02\n      dup1\n      sload\n      sub(shl(0xa0, 0x01), 0x01)\n        /* \"ERC721A/MintNagaKids.sol\":2637:2663  nagaKidContract = _nagaKid */\n      dup4\n      dup2\n      and\n      not(sub(shl(0xa0, 0x01), 0x01))\n      dup4\n      and\n      dup2\n      or\n      swap1\n      swap4\n      sstore\n        /* \"ERC721A/MintNagaKids.sol\":2732:2783  NagaKidContractChanged(nagaKidBefore, nagaKidAfter) */\n      0x40\n      dup1\n      mload\n        /* \"ERC721A/MintNagaKids.sol\":2610:2625  nagaKidContract */\n      swap2\n      swap1\n      swap3\n      and\n        /* \"#utility.yul\":9258:9292   */\n      dup1\n      dup3\n      mstore\n        /* \"#utility.yul\":9323:9325   */\n      0x20\n        /* \"#utility.yul\":9308:9326   */\n      dup3\n      add\n        /* \"#utility.yul\":9301:9344   */\n      swap4\n      swap1\n      swap4\n      mstore\n        /* \"ERC721A/MintNagaKids.sol\":2637:2663  nagaKidContract = _nagaKid */\n      dup4\n      swap2\n        /* \"ERC721A/MintNagaKids.sol\":2732:2783  NagaKidContractChanged(nagaKidBefore, nagaKidAfter) */\n      0xabdf056c85a221fcb31d0366c4475b6b2c613df2eeea951a9fcb3e1a8595d973\n      swap2\n        /* \"#utility.yul\":9193:9211   */\n      add\n        /* \"ERC721A/MintNagaKids.sol\":2732:2783  NagaKidContractChanged(nagaKidBefore, nagaKidAfter) */\n      tag_232\n        /* \"#utility.yul\":9046:9350   */\n      jump\n        /* \"ERC721A/VerifySignature.sol\":1409:2300  function splitSignature(bytes memory sig)... */\n    tag_131:\n        /* \"ERC721A/VerifySignature.sol\":1513:1522  bytes32 r */\n      0x00\n        /* \"ERC721A/VerifySignature.sol\":1537:1546  bytes32 s */\n      dup1\n        /* \"ERC721A/VerifySignature.sol\":1561:1568  uint8 v */\n      0x00\n        /* \"ERC721A/VerifySignature.sol\":1604:1607  sig */\n      dup4\n        /* \"ERC721A/VerifySignature.sol\":1604:1614  sig.length */\n      mload\n        /* \"ERC721A/VerifySignature.sol\":1618:1620  65 */\n      0x41\n        /* \"ERC721A/VerifySignature.sol\":1604:1620  sig.length == 65 */\n      eq\n        /* \"ERC721A/VerifySignature.sol\":1596:1649  require(sig.length == 65, \"invalid signature length\") */\n      tag_293\n      jumpi\n      mload(0x40)\n      shl(0xe5, 0x461bcd)\n      dup2\n      mstore\n        /* \"#utility.yul\":11194:11196   */\n      0x20\n        /* \"ERC721A/VerifySignature.sol\":1596:1649  require(sig.length == 65, \"invalid signature length\") */\n      0x04\n      dup3\n      add\n        /* \"#utility.yul\":11176:11197   */\n      mstore\n        /* \"#utility.yul\":11233:11235   */\n      0x18\n        /* \"#utility.yul\":11213:11231   */\n      0x24\n      dup3\n      add\n        /* \"#utility.yul\":11206:11236   */\n      mstore\n        /* \"#utility.yul\":11272:11298   */\n      0x696e76616c6964207369676e6174757265206c656e6774680000000000000000\n        /* \"#utility.yul\":11252:11270   */\n      0x44\n      dup3\n      add\n        /* \"#utility.yul\":11245:11299   */\n      mstore\n        /* \"#utility.yul\":11316:11334   */\n      0x64\n      add\n        /* \"ERC721A/VerifySignature.sol\":1596:1649  require(sig.length == 65, \"invalid signature length\") */\n      tag_202\n        /* \"#utility.yul\":10992:11340   */\n      jump\n        /* \"ERC721A/VerifySignature.sol\":1596:1649  require(sig.length == 65, \"invalid signature length\") */\n    tag_293:\n      pop\n      pop\n      pop\n        /* \"ERC721A/VerifySignature.sol\":2058:2060  32 */\n      0x20\n        /* \"ERC721A/VerifySignature.sol\":2049:2061  add(sig, 32) */\n      dup2\n      add\n        /* \"ERC721A/VerifySignature.sol\":2043:2062  mload(add(sig, 32)) */\n      mload\n        /* \"ERC721A/VerifySignature.sol\":2128:2130  64 */\n      0x40\n        /* \"ERC721A/VerifySignature.sol\":2119:2131  add(sig, 64) */\n      dup3\n      add\n        /* \"ERC721A/VerifySignature.sol\":2113:2132  mload(add(sig, 64)) */\n      mload\n        /* \"ERC721A/VerifySignature.sol\":2235:2237  96 */\n      0x60\n        /* \"ERC721A/VerifySignature.sol\":2226:2238  add(sig, 96) */\n      swap1\n      swap3\n      add\n        /* \"ERC721A/VerifySignature.sol\":2220:2239  mload(add(sig, 96)) */\n      mload\n        /* \"ERC721A/VerifySignature.sol\":2043:2062  mload(add(sig, 32)) */\n      swap1\n      swap3\n        /* \"ERC721A/VerifySignature.sol\":2217:2218  0 */\n      0x00\n        /* \"ERC721A/VerifySignature.sol\":2212:2240  byte(0, mload(add(sig, 96))) */\n      swap2\n      swap1\n      swap2\n      byte\n      swap1\n        /* \"ERC721A/VerifySignature.sol\":1409:2300  function splitSignature(bytes memory sig)... */\n      jump\t// out\n        /* \"ERC721A/MintNagaKids.sol\":6101:6444  function withdrawNFT(address _to,address _NFT,uint256 _tokenId) public onlyOwner {... */\n    tag_144:\n        /* \"@openzeppelin/contracts/access/Ownable.sol\":1082:1089  address */\n      0x00\n        /* \"@openzeppelin/contracts/access/Ownable.sol\":1108:1114  _owner */\n      sload\n      sub(shl(0xa0, 0x01), 0x01)\n      and\n        /* \"@openzeppelin/contracts/utils/Context.sol\":719:729  msg.sender */\n      caller\n        /* \"@openzeppelin/contracts/access/Ownable.sol\":1248:1271  owner() == _msgSender() */\n      eq\n        /* \"@openzeppelin/contracts/access/Ownable.sol\":1240:1308  require(owner() == _msgSender(), \"Ownable: caller is not the owner\") */\n      tag_300\n      jumpi\n      mload(0x40)\n      shl(0xe5, 0x461bcd)\n      dup2\n      mstore\n      0x04\n      add\n      tag_202\n      swap1\n      tag_203\n      jump\t// in\n    tag_300:\n        /* \"ERC721A/MintNagaKids.sol\":6201:6232  IERC721(_NFT).ownerOf(_tokenId) */\n      mload(0x40)\n      shl(0xe1, 0x31a9108f)\n      dup2\n      mstore\n      0x04\n      dup2\n      add\n        /* \"#utility.yul\":160:185   */\n      dup3\n      swap1\n      mstore\n        /* \"ERC721A/MintNagaKids.sol\":6244:6248  this */\n      address\n      swap1\n      sub(shl(0xa0, 0x01), 0x01)\n        /* \"ERC721A/MintNagaKids.sol\":6201:6222  IERC721(_NFT).ownerOf */\n      dup5\n      and\n      swap1\n      0x6352211e\n      swap1\n        /* \"#utility.yul\":133:151   */\n      0x24\n      add\n        /* \"ERC721A/MintNagaKids.sol\":6201:6232  IERC721(_NFT).ownerOf(_tokenId) */\n      0x20\n      mload(0x40)\n      dup1\n      dup4\n      sub\n      dup2\n      dup7\n      gas\n      staticcall\n      iszero\n      dup1\n      iszero\n      tag_305\n      jumpi\n      returndatasize\n      0x00\n      dup1\n      returndatacopy\n      revert(0x00, returndatasize)\n    tag_305:\n      pop\n      pop\n      pop\n      pop\n      mload(0x40)\n      returndatasize\n      not(0x1f)\n      0x1f\n      dup3\n      add\n      and\n      dup3\n      add\n      dup1\n      0x40\n      mstore\n      pop\n      dup2\n      add\n      swap1\n      tag_306\n      swap2\n      swap1\n      tag_307\n      jump\t// in\n    tag_306:\n      sub(shl(0xa0, 0x01), 0x01)\n        /* \"ERC721A/MintNagaKids.sol\":6201:6249  IERC721(_NFT).ownerOf(_tokenId) == address(this) */\n      and\n      eq\n        /* \"ERC721A/MintNagaKids.sol\":6193:6291  require(IERC721(_NFT).ownerOf(_tokenId) == address(this), \"This tokenId is not owned by contract\") */\n      tag_308\n      jumpi\n      mload(0x40)\n      shl(0xe5, 0x461bcd)\n      dup2\n      mstore\n        /* \"#utility.yul\":11803:11805   */\n      0x20\n        /* \"ERC721A/MintNagaKids.sol\":6193:6291  require(IERC721(_NFT).ownerOf(_tokenId) == address(this), \"This tokenId is not owned by contract\") */\n      0x04\n      dup3\n      add\n        /* \"#utility.yul\":11785:11806   */\n      mstore\n        /* \"#utility.yul\":11842:11844   */\n      0x25\n        /* \"#utility.yul\":11822:11840   */\n      0x24\n      dup3\n      add\n        /* \"#utility.yul\":11815:11845   */\n      mstore\n        /* \"#utility.yul\":11881:11915   */\n      0x5468697320746f6b656e4964206973206e6f74206f776e656420627920636f6e\n        /* \"#utility.yul\":11861:11879   */\n      0x44\n      dup3\n      add\n        /* \"#utility.yul\":11854:11916   */\n      mstore\n      shl(0xda, 0x1d1c9858dd)\n        /* \"#utility.yul\":11932:11950   */\n      0x64\n      dup3\n      add\n        /* \"#utility.yul\":11925:11960   */\n      mstore\n        /* \"#utility.yul\":11977:11996   */\n      0x84\n      add\n        /* \"ERC721A/MintNagaKids.sol\":6193:6291  require(IERC721(_NFT).ownerOf(_tokenId) == address(this), \"This tokenId is not owned by contract\") */\n      tag_202\n        /* \"#utility.yul\":11601:12002   */\n      jump\n        /* \"ERC721A/MintNagaKids.sol\":6193:6291  require(IERC721(_NFT).ownerOf(_tokenId) == address(this), \"This tokenId is not owned by contract\") */\n    tag_308:\n        /* \"ERC721A/MintNagaKids.sol\":6304:6364  IERC721(_NFT).safeTransferFrom(address(this), _to, _tokenId) */\n      mload(0x40)\n      shl(0xe1, 0x21421707)\n      dup2\n      mstore\n        /* \"ERC721A/MintNagaKids.sol\":6343:6347  this */\n      address\n        /* \"ERC721A/MintNagaKids.sol\":6304:6364  IERC721(_NFT).safeTransferFrom(address(this), _to, _tokenId) */\n      0x04\n      dup3\n      add\n        /* \"#utility.yul\":12247:12281   */\n      mstore\n      sub(shl(0xa0, 0x01), 0x01)\n        /* \"#utility.yul\":12317:12332   */\n      dup5\n      dup2\n      and\n        /* \"#utility.yul\":12297:12315   */\n      0x24\n      dup4\n      add\n        /* \"#utility.yul\":12290:12333   */\n      mstore\n        /* \"#utility.yul\":12349:12367   */\n      0x44\n      dup3\n      add\n        /* \"#utility.yul\":12342:12376   */\n      dup4\n      swap1\n      mstore\n        /* \"ERC721A/MintNagaKids.sol\":6304:6334  IERC721(_NFT).safeTransferFrom */\n      dup4\n      and\n      swap1\n      0x42842e0e\n      swap1\n        /* \"#utility.yul\":12182:12200   */\n      0x64\n      add\n        /* \"ERC721A/MintNagaKids.sol\":6304:6364  IERC721(_NFT).safeTransferFrom(address(this), _to, _tokenId) */\n      0x00\n      mload(0x40)\n      dup1\n      dup4\n      sub\n      dup2\n      0x00\n      dup8\n      dup1\n      extcodesize\n      iszero\n      dup1\n      iszero\n      tag_313\n      jumpi\n      0x00\n      dup1\n      revert\n    tag_313:\n      pop\n      gas\n      call\n      iszero\n      dup1\n      iszero\n      tag_315\n      jumpi\n      returndatasize\n      0x00\n      dup1\n      returndatacopy\n      revert(0x00, returndatasize)\n    tag_315:\n      pop\n      pop\n        /* \"ERC721A/MintNagaKids.sol\":6390:6436  WithdrawNFT(_to,_NFT,_tokenId,block.timestamp) */\n      0x40\n      dup1\n      mload\n      sub(shl(0xa0, 0x01), 0x01)\n        /* \"#utility.yul\":10424:10439   */\n      dup1\n      dup9\n      and\n        /* \"#utility.yul\":10406:10440   */\n      dup3\n      mstore\n        /* \"#utility.yul\":10476:10491   */\n      dup7\n      and\n        /* \"#utility.yul\":10471:10473   */\n      0x20\n        /* \"#utility.yul\":10456:10474   */\n      dup3\n      add\n        /* \"#utility.yul\":10449:10492   */\n      mstore\n        /* \"#utility.yul\":10508:10526   */\n      swap1\n      dup2\n      add\n        /* \"#utility.yul\":10501:10535   */\n      dup5\n      swap1\n      mstore\n        /* \"ERC721A/MintNagaKids.sol\":6420:6435  block.timestamp */\n      timestamp\n        /* \"#utility.yul\":10566:10568   */\n      0x60\n        /* \"#utility.yul\":10551:10569   */\n      dup3\n      add\n        /* \"#utility.yul\":10544:10578   */\n      mstore\n        /* \"ERC721A/MintNagaKids.sol\":6390:6436  WithdrawNFT(_to,_NFT,_tokenId,block.timestamp) */\n      0x0127a8d3f57942833f6930572bce52ad882683e36eeb5830d199d3fa4bfa9467\n      swap3\n      pop\n        /* \"#utility.yul\":10355:10358   */\n      0x80\n        /* \"#utility.yul\":10340:10359   */\n      add\n      swap1\n      pop\n        /* \"ERC721A/MintNagaKids.sol\":6390:6436  WithdrawNFT(_to,_NFT,_tokenId,block.timestamp) */\n      tag_232\n        /* \"#utility.yul\":10137:10584   */\n      jump\n        /* \"ERC721A/MintNagaKids.sol\":6743:6854  function getTotalSupply() public view returns (uint256) {... */\n    tag_147:\n        /* \"ERC721A/MintNagaKids.sol\":6817:6832  nagaKidContract */\n      sload(0x02)\n        /* \"ERC721A/MintNagaKids.sol\":6817:6846  nagaKidContract.totalSupply() */\n      0x40\n      dup1\n      mload\n      shl(0xe0, 0x18160ddd)\n      dup2\n      mstore\n      swap1\n      mload\n        /* \"ERC721A/MintNagaKids.sol\":6790:6797  uint256 */\n      0x00\n      swap3\n      sub(shl(0xa0, 0x01), 0x01)\n        /* \"ERC721A/MintNagaKids.sol\":6817:6832  nagaKidContract */\n      and\n      swap2\n        /* \"ERC721A/MintNagaKids.sol\":6817:6844  nagaKidContract.totalSupply */\n      0x18160ddd\n      swap2\n        /* \"ERC721A/MintNagaKids.sol\":6817:6846  nagaKidContract.totalSupply() */\n      0x04\n      dup1\n      dup4\n      add\n      swap3\n      0x20\n      swap3\n      swap2\n      swap1\n      dup3\n      swap1\n      sub\n      add\n      dup2\n        /* \"ERC721A/MintNagaKids.sol\":6817:6832  nagaKidContract */\n      dup7\n        /* \"ERC721A/MintNagaKids.sol\":6817:6846  nagaKidContract.totalSupply() */\n      gas\n      staticcall\n      iszero\n      dup1\n      iszero\n      tag_214\n      jumpi\n      returndatasize\n      0x00\n      dup1\n      returndatacopy\n      revert(0x00, returndatasize)\n        /* \"ERC721A/MintNagaKids.sol\":4427:5242  function publicMint(bytes calldata _sig) public payable nonReentrant {... */\n    tag_152:\n        /* \"@openzeppelin/contracts/security/ReentrancyGuard.sol\":1744:1745  2 */\n      0x02\n        /* \"@openzeppelin/contracts/security/ReentrancyGuard.sol\":2325:2332  _status */\n      sload(0x01)\n        /* \"@openzeppelin/contracts/security/ReentrancyGuard.sol\":2325:2344  _status != _ENTERED */\n      sub\n        /* \"@openzeppelin/contracts/security/ReentrancyGuard.sol\":2317:2380  require(_status != _ENTERED, \"ReentrancyGuard: reentrant call\") */\n      tag_322\n      jumpi\n      mload(0x40)\n      shl(0xe5, 0x461bcd)\n      dup2\n      mstore\n        /* \"#utility.yul\":12589:12591   */\n      0x20\n        /* \"@openzeppelin/contracts/security/ReentrancyGuard.sol\":2317:2380  require(_status != _ENTERED, \"ReentrancyGuard: reentrant call\") */\n      0x04\n      dup3\n      add\n        /* \"#utility.yul\":12571:12592   */\n      mstore\n        /* \"#utility.yul\":12628:12630   */\n      0x1f\n        /* \"#utility.yul\":12608:12626   */\n      0x24\n      dup3\n      add\n        /* \"#utility.yul\":12601:12631   */\n      mstore\n        /* \"#utility.yul\":12667:12700   */\n      0x5265656e7472616e637947756172643a207265656e7472616e742063616c6c00\n        /* \"#utility.yul\":12647:12665   */\n      0x44\n      dup3\n      add\n        /* \"#utility.yul\":12640:12701   */\n      mstore\n        /* \"#utility.yul\":12718:12736   */\n      0x64\n      add\n        /* \"@openzeppelin/contracts/security/ReentrancyGuard.sol\":2317:2380  require(_status != _ENTERED, \"ReentrancyGuard: reentrant call\") */\n      tag_202\n        /* \"#utility.yul\":12387:12742   */\n      jump\n        /* \"@openzeppelin/contracts/security/ReentrancyGuard.sol\":2317:2380  require(_status != _ENTERED, \"ReentrancyGuard: reentrant call\") */\n    tag_322:\n        /* \"@openzeppelin/contracts/security/ReentrancyGuard.sol\":1744:1745  2 */\n      0x02\n        /* \"@openzeppelin/contracts/security/ReentrancyGuard.sol\":2455:2462  _status */\n      0x01\n        /* \"@openzeppelin/contracts/security/ReentrancyGuard.sol\":2455:2473  _status = _ENTERED */\n      swap1\n      dup2\n      sstore\n        /* \"ERC721A/MintNagaKids.sol\":4517:4533  isPublicMintOpen */\n      and(0xff, sload(0x05))\n        /* \"ERC721A/MintNagaKids.sol\":4517:4541  isPublicMintOpen == true */\n      iszero\n      iszero\n      eq\n        /* \"ERC721A/MintNagaKids.sol\":4509:4570  require(isPublicMintOpen == true, \"Public mint is not open.\") */\n      tag_326\n      jumpi\n      mload(0x40)\n      shl(0xe5, 0x461bcd)\n      dup2\n      mstore\n        /* \"#utility.yul\":12949:12951   */\n      0x20\n        /* \"ERC721A/MintNagaKids.sol\":4509:4570  require(isPublicMintOpen == true, \"Public mint is not open.\") */\n      0x04\n      dup3\n      add\n        /* \"#utility.yul\":12931:12952   */\n      mstore\n        /* \"#utility.yul\":12988:12990   */\n      0x18\n        /* \"#utility.yul\":12968:12986   */\n      0x24\n      dup3\n      add\n        /* \"#utility.yul\":12961:12991   */\n      mstore\n        /* \"#utility.yul\":13027:13053   */\n      0x5075626c6963206d696e74206973206e6f74206f70656e2e0000000000000000\n        /* \"#utility.yul\":13007:13025   */\n      0x44\n      dup3\n      add\n        /* \"#utility.yul\":13000:13054   */\n      mstore\n        /* \"#utility.yul\":13071:13089   */\n      0x64\n      add\n        /* \"ERC721A/MintNagaKids.sol\":4509:4570  require(isPublicMintOpen == true, \"Public mint is not open.\") */\n      tag_202\n        /* \"#utility.yul\":12747:13095   */\n      jump\n        /* \"ERC721A/MintNagaKids.sol\":4509:4570  require(isPublicMintOpen == true, \"Public mint is not open.\") */\n    tag_326:\n        /* \"ERC721A/MintNagaKids.sol\":4589:4598  tx.origin */\n      origin\n        /* \"ERC721A/MintNagaKids.sol\":4602:4612  msg.sender */\n      caller\n        /* \"ERC721A/MintNagaKids.sol\":4589:4612  tx.origin == msg.sender */\n      eq\n        /* \"ERC721A/MintNagaKids.sol\":4581:4644  require(tx.origin == msg.sender, \"haha Contract can't call me\") */\n      tag_329\n      jumpi\n      mload(0x40)\n      shl(0xe5, 0x461bcd)\n      dup2\n      mstore\n        /* \"#utility.yul\":13302:13304   */\n      0x20\n        /* \"ERC721A/MintNagaKids.sol\":4581:4644  require(tx.origin == msg.sender, \"haha Contract can't call me\") */\n      0x04\n      dup3\n      add\n        /* \"#utility.yul\":13284:13305   */\n      mstore\n        /* \"#utility.yul\":13341:13343   */\n      0x1b\n        /* \"#utility.yul\":13321:13339   */\n      0x24\n      dup3\n      add\n        /* \"#utility.yul\":13314:13344   */\n      mstore\n        /* \"#utility.yul\":13380:13409   */\n      0x6861686120436f6e74726163742063616e27742063616c6c206d650000000000\n        /* \"#utility.yul\":13360:13378   */\n      0x44\n      dup3\n      add\n        /* \"#utility.yul\":13353:13410   */\n      mstore\n        /* \"#utility.yul\":13427:13445   */\n      0x64\n      add\n        /* \"ERC721A/MintNagaKids.sol\":4581:4644  require(tx.origin == msg.sender, \"haha Contract can't call me\") */\n      tag_202\n        /* \"#utility.yul\":13100:13451   */\n      jump\n        /* \"ERC721A/MintNagaKids.sol\":4581:4644  require(tx.origin == msg.sender, \"haha Contract can't call me\") */\n    tag_329:\n        /* \"ERC721A/MintNagaKids.sol\":4678:4688  msg.sender */\n      caller\n        /* \"ERC721A/MintNagaKids.sol\":5309:5313  bool */\n      0x00\n        /* \"ERC721A/MintNagaKids.sol\":5332:5354  _isPublicMinted[_addr] */\n      swap1\n      dup2\n      mstore\n        /* \"ERC721A/MintNagaKids.sol\":5332:5347  _isPublicMinted */\n      0x08\n        /* \"ERC721A/MintNagaKids.sol\":5332:5354  _isPublicMinted[_addr] */\n      0x20\n      mstore\n      0x40\n      swap1\n      keccak256\n      sload\n      0xff\n      and\n        /* \"ERC721A/MintNagaKids.sol\":4663:4697  isPublicMinted(msg.sender) != true */\n      iszero\n      iszero\n        /* \"ERC721A/MintNagaKids.sol\":4693:4697  true */\n      0x01\n        /* \"ERC721A/MintNagaKids.sol\":4663:4697  isPublicMinted(msg.sender) != true */\n      sub\n        /* \"ERC721A/MintNagaKids.sol\":4655:4725  require(isPublicMinted(msg.sender) != true, \"You are already minted.\") */\n      tag_333\n      jumpi\n      mload(0x40)\n      shl(0xe5, 0x461bcd)\n      dup2\n      mstore\n        /* \"#utility.yul\":13658:13660   */\n      0x20\n        /* \"ERC721A/MintNagaKids.sol\":4655:4725  require(isPublicMinted(msg.sender) != true, \"You are already minted.\") */\n      0x04\n      dup3\n      add\n        /* \"#utility.yul\":13640:13661   */\n      mstore\n        /* \"#utility.yul\":13697:13699   */\n      0x17\n        /* \"#utility.yul\":13677:13695   */\n      0x24\n      dup3\n      add\n        /* \"#utility.yul\":13670:13700   */\n      mstore\n      shl(0x49, 0x2cb7ba9030b9329030b63932b0b23c9036b4b73a32b217)\n        /* \"#utility.yul\":13716:13734   */\n      0x44\n      dup3\n      add\n        /* \"#utility.yul\":13709:13762   */\n      mstore\n        /* \"#utility.yul\":13779:13797   */\n      0x64\n      add\n        /* \"ERC721A/MintNagaKids.sol\":4655:4725  require(isPublicMinted(msg.sender) != true, \"You are already minted.\") */\n      tag_202\n        /* \"#utility.yul\":13456:13803   */\n      jump\n        /* \"ERC721A/MintNagaKids.sol\":4655:4725  require(isPublicMinted(msg.sender) != true, \"You are already minted.\") */\n    tag_333:\n        /* \"ERC721A/MintNagaKids.sol\":4815:4830  nagaKidContract */\n      sload(0x02)\n        /* \"ERC721A/MintNagaKids.sol\":4815:4854  nagaKidContract.isMinter(address(this)) */\n      mload(0x40)\n      shl(0xe1, 0x55138f0d)\n      dup2\n      mstore\n        /* \"ERC721A/MintNagaKids.sol\":4848:4852  this */\n      address\n        /* \"ERC721A/MintNagaKids.sol\":4815:4854  nagaKidContract.isMinter(address(this)) */\n      0x04\n      dup3\n      add\n        /* \"#utility.yul\":1099:1150   */\n      mstore\n      sub(shl(0xa0, 0x01), 0x01)\n        /* \"ERC721A/MintNagaKids.sol\":4815:4830  nagaKidContract */\n      swap1\n      swap2\n      and\n      swap1\n        /* \"ERC721A/MintNagaKids.sol\":4815:4839  nagaKidContract.isMinter */\n      0xaa271e1a\n      swap1\n        /* \"#utility.yul\":1072:1090   */\n      0x24\n      add\n        /* \"ERC721A/MintNagaKids.sol\":4815:4854  nagaKidContract.isMinter(address(this)) */\n      0x20\n      mload(0x40)\n      dup1\n      dup4\n      sub\n      dup2\n      dup7\n      gas\n      staticcall\n      iszero\n      dup1\n      iszero\n      tag_338\n      jumpi\n      returndatasize\n      0x00\n      dup1\n      returndatacopy\n      revert(0x00, returndatasize)\n    tag_338:\n      pop\n      pop\n      pop\n      pop\n      mload(0x40)\n      returndatasize\n      not(0x1f)\n      0x1f\n      dup3\n      add\n      and\n      dup3\n      add\n      dup1\n      0x40\n      mstore\n      pop\n      dup2\n      add\n      swap1\n      tag_339\n      swap2\n      swap1\n      tag_275\n      jump\t// in\n    tag_339:\n        /* \"ERC721A/MintNagaKids.sol\":4807:4889  require(nagaKidContract.isMinter(address(this)), \"Contract Mint is not approved.\") */\n      tag_340\n      jumpi\n      mload(0x40)\n      shl(0xe5, 0x461bcd)\n      dup2\n      mstore\n        /* \"#utility.yul\":14010:14012   */\n      0x20\n        /* \"ERC721A/MintNagaKids.sol\":4807:4889  require(nagaKidContract.isMinter(address(this)), \"Contract Mint is not approved.\") */\n      0x04\n      dup3\n      add\n        /* \"#utility.yul\":13992:14013   */\n      mstore\n        /* \"#utility.yul\":14049:14051   */\n      0x1e\n        /* \"#utility.yul\":14029:14047   */\n      0x24\n      dup3\n      add\n        /* \"#utility.yul\":14022:14052   */\n      mstore\n        /* \"#utility.yul\":14088:14120   */\n      0x436f6e7472616374204d696e74206973206e6f7420617070726f7665642e0000\n        /* \"#utility.yul\":14068:14086   */\n      0x44\n      dup3\n      add\n        /* \"#utility.yul\":14061:14121   */\n      mstore\n        /* \"#utility.yul\":14138:14156   */\n      0x64\n      add\n        /* \"ERC721A/MintNagaKids.sol\":4807:4889  require(nagaKidContract.isMinter(address(this)), \"Contract Mint is not approved.\") */\n      tag_202\n        /* \"#utility.yul\":13808:14162   */\n      jump\n        /* \"ERC721A/MintNagaKids.sol\":4807:4889  require(nagaKidContract.isMinter(address(this)), \"Contract Mint is not approved.\") */\n    tag_340:\n        /* \"ERC721A/MintNagaKids.sol\":4908:4938  verify(signer,msg.sender,_sig) */\n      tag_343\n        /* \"ERC721A/MintNagaKids.sol\":4915:4921  signer */\n      0x05\n      0x02\n      swap1\n      sload\n      swap1\n      0x0100\n      exp\n      swap1\n      div\n      sub(shl(0xa0, 0x01), 0x01)\n      and\n        /* \"ERC721A/MintNagaKids.sol\":4922:4932  msg.sender */\n      caller\n        /* \"ERC721A/MintNagaKids.sol\":4933:4937  _sig */\n      dup5\n      dup5\n        /* \"ERC721A/MintNagaKids.sol\":4908:4938  verify(signer,msg.sender,_sig) */\n      dup1\n      dup1\n      0x1f\n      add\n      0x20\n      dup1\n      swap2\n      div\n      mul\n      0x20\n      add\n      mload(0x40)\n      swap1\n      dup2\n      add\n      0x40\n      mstore\n      dup1\n      swap4\n      swap3\n      swap2\n      swap1\n      dup2\n      dup2\n      mstore\n      0x20\n      add\n      dup4\n      dup4\n      dup1\n      dup3\n      dup5\n      calldatacopy\n      0x00\n      swap3\n      add\n      swap2\n      swap1\n      swap2\n      mstore\n      pop\n        /* \"ERC721A/MintNagaKids.sol\":4908:4914  verify */\n      tag_75\n      swap3\n      pop\n      pop\n      pop\n        /* \"ERC721A/MintNagaKids.sol\":4908:4938  verify(signer,msg.sender,_sig) */\n      jump\t// in\n    tag_343:\n        /* \"ERC721A/MintNagaKids.sol\":4900:4977  require(verify(signer,msg.sender,_sig), \"Unauthorized PublicMint This User.\") */\n      tag_344\n      jumpi\n      mload(0x40)\n      shl(0xe5, 0x461bcd)\n      dup2\n      mstore\n        /* \"#utility.yul\":14369:14371   */\n      0x20\n        /* \"ERC721A/MintNagaKids.sol\":4900:4977  require(verify(signer,msg.sender,_sig), \"Unauthorized PublicMint This User.\") */\n      0x04\n      dup3\n      add\n        /* \"#utility.yul\":14351:14372   */\n      mstore\n        /* \"#utility.yul\":14408:14410   */\n      0x22\n        /* \"#utility.yul\":14388:14406   */\n      0x24\n      dup3\n      add\n        /* \"#utility.yul\":14381:14411   */\n      mstore\n        /* \"#utility.yul\":14447:14481   */\n      0x556e617574686f72697a6564205075626c69634d696e74205468697320557365\n        /* \"#utility.yul\":14427:14445   */\n      0x44\n      dup3\n      add\n        /* \"#utility.yul\":14420:14482   */\n      mstore\n      shl(0xf1, 0x3917)\n        /* \"#utility.yul\":14498:14516   */\n      0x64\n      dup3\n      add\n        /* \"#utility.yul\":14491:14523   */\n      mstore\n        /* \"#utility.yul\":14540:14559   */\n      0x84\n      add\n        /* \"ERC721A/MintNagaKids.sol\":4900:4977  require(verify(signer,msg.sender,_sig), \"Unauthorized PublicMint This User.\") */\n      tag_202\n        /* \"#utility.yul\":14167:14565   */\n      jump\n        /* \"ERC721A/MintNagaKids.sol\":4900:4977  require(verify(signer,msg.sender,_sig), \"Unauthorized PublicMint This User.\") */\n    tag_344:\n        /* \"ERC721A/MintNagaKids.sol\":5085:5095  msg.sender */\n      caller\n        /* \"ERC721A/MintNagaKids.sol\":5036:5051  uint256 _amount */\n      0x00\n        /* \"ERC721A/MintNagaKids.sol\":5069:5096  _isPublicMinted[msg.sender] */\n      dup2\n      dup2\n      mstore\n        /* \"ERC721A/MintNagaKids.sol\":5069:5084  _isPublicMinted */\n      0x08\n        /* \"ERC721A/MintNagaKids.sol\":5069:5096  _isPublicMinted[msg.sender] */\n      0x20\n      mstore\n      0x40\n      swap1\n      dup2\n      swap1\n      keccak256\n        /* \"ERC721A/MintNagaKids.sol\":5069:5103  _isPublicMinted[msg.sender] = true */\n      dup1\n      sload\n      not(0xff)\n      and\n        /* \"ERC721A/MintNagaKids.sol\":5054:5055  1 */\n      0x01\n        /* \"ERC721A/MintNagaKids.sol\":5069:5103  _isPublicMinted[msg.sender] = true */\n      swap1\n      dup2\n      or\n      swap1\n      swap2\n      sstore\n        /* \"ERC721A/MintNagaKids.sol\":5114:5129  nagaKidContract */\n      sload(0x02)\n        /* \"ERC721A/MintNagaKids.sol\":5114:5158  nagaKidContract.safeMint(msg.sender,_amount) */\n      swap2\n      mload\n      shl(0xe2, 0x28512065)\n      dup2\n      mstore\n      0x04\n      dup2\n      add\n        /* \"#utility.yul\":9782:9833   */\n      swap4\n      swap1\n      swap4\n      mstore\n        /* \"#utility.yul\":9849:9867   */\n      0x24\n      dup4\n      add\n        /* \"#utility.yul\":9842:9876   */\n      dup2\n      swap1\n      mstore\n        /* \"ERC721A/MintNagaKids.sol\":5054:5055  1 */\n      swap2\n      sub(shl(0xa0, 0x01), 0x01)\n        /* \"ERC721A/MintNagaKids.sol\":5114:5129  nagaKidContract */\n      swap1\n      swap2\n      and\n      swap1\n        /* \"ERC721A/MintNagaKids.sol\":5114:5138  nagaKidContract.safeMint */\n      0xa1448194\n      swap1\n        /* \"#utility.yul\":9755:9773   */\n      0x44\n      add\n        /* \"ERC721A/MintNagaKids.sol\":5114:5158  nagaKidContract.safeMint(msg.sender,_amount) */\n      0x00\n      mload(0x40)\n      dup1\n      dup4\n      sub\n      dup2\n      0x00\n      dup8\n      dup1\n      extcodesize\n      iszero\n      dup1\n      iszero\n      tag_348\n      jumpi\n      0x00\n      dup1\n      revert\n    tag_348:\n      pop\n      gas\n      call\n      iszero\n      dup1\n      iszero\n      tag_350\n      jumpi\n      returndatasize\n      0x00\n      dup1\n      returndatacopy\n      revert(0x00, returndatasize)\n    tag_350:\n      pop\n      pop\n        /* \"ERC721A/MintNagaKids.sol\":5184:5232  PublicMinted(msg.sender,_amount,block.timestamp) */\n      0x40\n      dup1\n      mload\n        /* \"#utility.yul\":9529:9554   */\n      dup5\n      dup2\n      mstore\n        /* \"ERC721A/MintNagaKids.sol\":5216:5231  block.timestamp */\n      timestamp\n        /* \"#utility.yul\":9585:9587   */\n      0x20\n        /* \"#utility.yul\":9570:9588   */\n      dup3\n      add\n        /* \"#utility.yul\":9563:9597   */\n      mstore\n        /* \"ERC721A/MintNagaKids.sol\":5197:5207  msg.sender */\n      caller\n      swap4\n      pop\n        /* \"ERC721A/MintNagaKids.sol\":5184:5232  PublicMinted(msg.sender,_amount,block.timestamp) */\n      0xc1a73b31b32801ebbb4cae30b73eae4345be9f2915ea60306383c245ef8fac44\n      swap3\n      pop\n        /* \"#utility.yul\":9502:9520   */\n      add\n        /* \"ERC721A/MintNagaKids.sol\":5184:5232  PublicMinted(msg.sender,_amount,block.timestamp) */\n      mload(0x40)\n      dup1\n      swap2\n      sub\n      swap1\n      log2\n      pop\n      pop\n        /* \"@openzeppelin/contracts/security/ReentrancyGuard.sol\":1701:1702  1 */\n      0x01\n        /* \"@openzeppelin/contracts/security/ReentrancyGuard.sol\":2628:2650  _status = _NOT_ENTERED */\n      dup1\n      sstore\n      pop\n        /* \"ERC721A/MintNagaKids.sol\":4427:5242  function publicMint(bytes calldata _sig) public payable nonReentrant {... */\n      jump\t// out\n        /* \"@openzeppelin/contracts/access/Ownable.sol\":1918:2116  function transferOwnership(address newOwner) public virtual onlyOwner {... */\n    tag_174:\n        /* \"@openzeppelin/contracts/access/Ownable.sol\":1082:1089  address */\n      0x00\n        /* \"@openzeppelin/contracts/access/Ownable.sol\":1108:1114  _owner */\n      sload\n      sub(shl(0xa0, 0x01), 0x01)\n      and\n        /* \"@openzeppelin/contracts/utils/Context.sol\":719:729  msg.sender */\n      caller\n        /* \"@openzeppelin/contracts/access/Ownable.sol\":1248:1271  owner() == _msgSender() */\n      eq\n        /* \"@openzeppelin/contracts/access/Ownable.sol\":1240:1308  require(owner() == _msgSender(), \"Ownable: caller is not the owner\") */\n      tag_357\n      jumpi\n      mload(0x40)\n      shl(0xe5, 0x461bcd)\n      dup2\n      mstore\n      0x04\n      add\n      tag_202\n      swap1\n      tag_203\n      jump\t// in\n    tag_357:\n      sub(shl(0xa0, 0x01), 0x01)\n        /* \"@openzeppelin/contracts/access/Ownable.sol\":2006:2028  newOwner != address(0) */\n      dup2\n      and\n        /* \"@openzeppelin/contracts/access/Ownable.sol\":1998:2071  require(newOwner != address(0), \"Ownable: new owner is the zero address\") */\n      tag_360\n      jumpi\n      mload(0x40)\n      shl(0xe5, 0x461bcd)\n      dup2\n      mstore\n        /* \"#utility.yul\":15025:15027   */\n      0x20\n        /* \"@openzeppelin/contracts/access/Ownable.sol\":1998:2071  require(newOwner != address(0), \"Ownable: new owner is the zero address\") */\n      0x04\n      dup3\n      add\n        /* \"#utility.yul\":15007:15028   */\n      mstore\n        /* \"#utility.yul\":15064:15066   */\n      0x26\n        /* \"#utility.yul\":15044:15062   */\n      0x24\n      dup3\n      add\n        /* \"#utility.yul\":15037:15067   */\n      mstore\n        /* \"#utility.yul\":15103:15137   */\n      0x4f776e61626c653a206e6577206f776e657220697320746865207a65726f2061\n        /* \"#utility.yul\":15083:15101   */\n      0x44\n      dup3\n      add\n        /* \"#utility.yul\":15076:15138   */\n      mstore\n      shl(0xd0, 0x646472657373)\n        /* \"#utility.yul\":15154:15172   */\n      0x64\n      dup3\n      add\n        /* \"#utility.yul\":15147:15183   */\n      mstore\n        /* \"#utility.yul\":15200:15219   */\n      0x84\n      add\n        /* \"@openzeppelin/contracts/access/Ownable.sol\":1998:2071  require(newOwner != address(0), \"Ownable: new owner is the zero address\") */\n      tag_202\n        /* \"#utility.yul\":14823:15225   */\n      jump\n        /* \"@openzeppelin/contracts/access/Ownable.sol\":1998:2071  require(newOwner != address(0), \"Ownable: new owner is the zero address\") */\n    tag_360:\n        /* \"@openzeppelin/contracts/access/Ownable.sol\":2081:2109  _transferOwnership(newOwner) */\n      tag_201\n        /* \"@openzeppelin/contracts/access/Ownable.sol\":2100:2108  newOwner */\n      dup2\n        /* \"@openzeppelin/contracts/access/Ownable.sol\":2081:2099  _transferOwnership */\n      tag_249\n        /* \"@openzeppelin/contracts/access/Ownable.sol\":2081:2109  _transferOwnership(newOwner) */\n      jump\t// in\n        /* \"ERC721A/MintNagaKids.sol\":3424:4419  function allowlistMint(bytes32[] calldata _proof, uint256 _amount, bytes32 _round) public payable nonReentrant {... */\n    tag_182:\n        /* \"@openzeppelin/contracts/security/ReentrancyGuard.sol\":1744:1745  2 */\n      0x02\n        /* \"@openzeppelin/contracts/security/ReentrancyGuard.sol\":2325:2332  _status */\n      sload(0x01)\n        /* \"@openzeppelin/contracts/security/ReentrancyGuard.sol\":2325:2344  _status != _ENTERED */\n      sub\n        /* \"@openzeppelin/contracts/security/ReentrancyGuard.sol\":2317:2380  require(_status != _ENTERED, \"ReentrancyGuard: reentrant call\") */\n      tag_365\n      jumpi\n      mload(0x40)\n      shl(0xe5, 0x461bcd)\n      dup2\n      mstore\n        /* \"#utility.yul\":12589:12591   */\n      0x20\n        /* \"@openzeppelin/contracts/security/ReentrancyGuard.sol\":2317:2380  require(_status != _ENTERED, \"ReentrancyGuard: reentrant call\") */\n      0x04\n      dup3\n      add\n        /* \"#utility.yul\":12571:12592   */\n      mstore\n        /* \"#utility.yul\":12628:12630   */\n      0x1f\n        /* \"#utility.yul\":12608:12626   */\n      0x24\n      dup3\n      add\n        /* \"#utility.yul\":12601:12631   */\n      mstore\n        /* \"#utility.yul\":12667:12700   */\n      0x5265656e7472616e637947756172643a207265656e7472616e742063616c6c00\n        /* \"#utility.yul\":12647:12665   */\n      0x44\n      dup3\n      add\n        /* \"#utility.yul\":12640:12701   */\n      mstore\n        /* \"#utility.yul\":12718:12736   */\n      0x64\n      add\n        /* \"@openzeppelin/contracts/security/ReentrancyGuard.sol\":2317:2380  require(_status != _ENTERED, \"ReentrancyGuard: reentrant call\") */\n      tag_202\n        /* \"#utility.yul\":12387:12742   */\n      jump\n        /* \"@openzeppelin/contracts/security/ReentrancyGuard.sol\":2317:2380  require(_status != _ENTERED, \"ReentrancyGuard: reentrant call\") */\n    tag_365:\n        /* \"@openzeppelin/contracts/security/ReentrancyGuard.sol\":1744:1745  2 */\n      0x02\n        /* \"@openzeppelin/contracts/security/ReentrancyGuard.sol\":2455:2462  _status */\n      0x01\n        /* \"@openzeppelin/contracts/security/ReentrancyGuard.sol\":2455:2473  _status = _ENTERED */\n      swap1\n      dup2\n      sstore\n        /* \"ERC721A/MintNagaKids.sol\":3554:3571  isPrivateMintOpen */\n      sload(0x05)\n      0x0100\n      swap1\n      div\n      0xff\n      and\n        /* \"ERC721A/MintNagaKids.sol\":3554:3579  isPrivateMintOpen == true */\n      iszero\n      iszero\n      eq\n        /* \"ERC721A/MintNagaKids.sol\":3546:3608  require(isPrivateMintOpen == true,\"Private mint is not open.\") */\n      tag_368\n      jumpi\n      mload(0x40)\n      shl(0xe5, 0x461bcd)\n      dup2\n      mstore\n        /* \"#utility.yul\":15432:15434   */\n      0x20\n        /* \"ERC721A/MintNagaKids.sol\":3546:3608  require(isPrivateMintOpen == true,\"Private mint is not open.\") */\n      0x04\n      dup3\n      add\n        /* \"#utility.yul\":15414:15435   */\n      mstore\n        /* \"#utility.yul\":15471:15473   */\n      0x19\n        /* \"#utility.yul\":15451:15469   */\n      0x24\n      dup3\n      add\n        /* \"#utility.yul\":15444:15474   */\n      mstore\n        /* \"#utility.yul\":15510:15537   */\n      0x50726976617465206d696e74206973206e6f74206f70656e2e00000000000000\n        /* \"#utility.yul\":15490:15508   */\n      0x44\n      dup3\n      add\n        /* \"#utility.yul\":15483:15538   */\n      mstore\n        /* \"#utility.yul\":15555:15573   */\n      0x64\n      add\n        /* \"ERC721A/MintNagaKids.sol\":3546:3608  require(isPrivateMintOpen == true,\"Private mint is not open.\") */\n      tag_202\n        /* \"#utility.yul\":15230:15579   */\n      jump\n        /* \"ERC721A/MintNagaKids.sol\":3546:3608  require(isPrivateMintOpen == true,\"Private mint is not open.\") */\n    tag_368:\n        /* \"ERC721A/MintNagaKids.sol\":3627:3633  _round */\n      dup1\n        /* \"ERC721A/MintNagaKids.sol\":3619:3669  require(_round != DEFAULT,\"Mint is not approved.\") */\n      tag_371\n      jumpi\n      mload(0x40)\n      shl(0xe5, 0x461bcd)\n      dup2\n      mstore\n        /* \"#utility.yul\":15786:15788   */\n      0x20\n        /* \"ERC721A/MintNagaKids.sol\":3619:3669  require(_round != DEFAULT,\"Mint is not approved.\") */\n      0x04\n      dup3\n      add\n        /* \"#utility.yul\":15768:15789   */\n      mstore\n        /* \"#utility.yul\":15825:15827   */\n      0x15\n        /* \"#utility.yul\":15805:15823   */\n      0x24\n      dup3\n      add\n        /* \"#utility.yul\":15798:15828   */\n      mstore\n      shl(0x59, 0x26b4b73a1034b9903737ba1030b8383937bb32b217)\n        /* \"#utility.yul\":15844:15862   */\n      0x44\n      dup3\n      add\n        /* \"#utility.yul\":15837:15888   */\n      mstore\n        /* \"#utility.yul\":15905:15923   */\n      0x64\n      add\n        /* \"ERC721A/MintNagaKids.sol\":3619:3669  require(_round != DEFAULT,\"Mint is not approved.\") */\n      tag_202\n        /* \"#utility.yul\":15584:15929   */\n      jump\n        /* \"ERC721A/MintNagaKids.sol\":3619:3669  require(_round != DEFAULT,\"Mint is not approved.\") */\n    tag_371:\n        /* \"ERC721A/MintNagaKids.sol\":3708:3714  _round */\n      dup1\n        /* \"ERC721A/MintNagaKids.sol\":3688:3704  currentMintRound */\n      sload(0x03)\n        /* \"ERC721A/MintNagaKids.sol\":3688:3714  currentMintRound == _round */\n      eq\n        /* \"ERC721A/MintNagaKids.sol\":3680:3758  require(currentMintRound == _round, \"Contract are not in this minting round.\") */\n      tag_374\n      jumpi\n      mload(0x40)\n      shl(0xe5, 0x461bcd)\n      dup2\n      mstore\n        /* \"#utility.yul\":16136:16138   */\n      0x20\n        /* \"ERC721A/MintNagaKids.sol\":3680:3758  require(currentMintRound == _round, \"Contract are not in this minting round.\") */\n      0x04\n      dup3\n      add\n        /* \"#utility.yul\":16118:16139   */\n      mstore\n        /* \"#utility.yul\":16175:16177   */\n      0x27\n        /* \"#utility.yul\":16155:16173   */\n      0x24\n      dup3\n      add\n        /* \"#utility.yul\":16148:16178   */\n      mstore\n        /* \"#utility.yul\":16214:16248   */\n      0x436f6e747261637420617265206e6f7420696e2074686973206d696e74696e67\n        /* \"#utility.yul\":16194:16212   */\n      0x44\n      dup3\n      add\n        /* \"#utility.yul\":16187:16249   */\n      mstore\n      shl(0xc9, 0x103937bab73217)\n        /* \"#utility.yul\":16265:16283   */\n      0x64\n      dup3\n      add\n        /* \"#utility.yul\":16258:16295   */\n      mstore\n        /* \"#utility.yul\":16312:16331   */\n      0x84\n      add\n        /* \"ERC721A/MintNagaKids.sol\":3680:3758  require(currentMintRound == _round, \"Contract are not in this minting round.\") */\n      tag_202\n        /* \"#utility.yul\":15934:16337   */\n      jump\n        /* \"ERC721A/MintNagaKids.sol\":3680:3758  require(currentMintRound == _round, \"Contract are not in this minting round.\") */\n    tag_374:\n        /* \"ERC721A/MintNagaKids.sol\":3806:3820  getMaxSupply() */\n      tag_377\n        /* \"ERC721A/MintNagaKids.sol\":3806:3818  getMaxSupply */\n      tag_80\n        /* \"ERC721A/MintNagaKids.sol\":3806:3820  getMaxSupply() */\n      jump\t// in\n    tag_377:\n        /* \"ERC721A/MintNagaKids.sol\":3796:3803  _amount */\n      dup3\n        /* \"ERC721A/MintNagaKids.sol\":3777:3793  getTotalSupply() */\n      tag_378\n        /* \"ERC721A/MintNagaKids.sol\":3777:3791  getTotalSupply */\n      tag_147\n        /* \"ERC721A/MintNagaKids.sol\":3777:3793  getTotalSupply() */\n      jump\t// in\n    tag_378:\n        /* \"ERC721A/MintNagaKids.sol\":3777:3803  getTotalSupply() + _amount */\n      tag_379\n      swap2\n      swap1\n      tag_380\n      jump\t// in\n    tag_379:\n        /* \"ERC721A/MintNagaKids.sol\":3777:3820  getTotalSupply() + _amount < getMaxSupply() */\n      lt\n        /* \"ERC721A/MintNagaKids.sol\":3769:3836  require(getTotalSupply() + _amount < getMaxSupply(), \"Over supply\") */\n      tag_381\n      jumpi\n      mload(0x40)\n      shl(0xe5, 0x461bcd)\n      dup2\n      mstore\n        /* \"#utility.yul\":16809:16811   */\n      0x20\n        /* \"ERC721A/MintNagaKids.sol\":3769:3836  require(getTotalSupply() + _amount < getMaxSupply(), \"Over supply\") */\n      0x04\n      dup3\n      add\n        /* \"#utility.yul\":16791:16812   */\n      mstore\n        /* \"#utility.yul\":16848:16850   */\n      0x0b\n        /* \"#utility.yul\":16828:16846   */\n      0x24\n      dup3\n      add\n        /* \"#utility.yul\":16821:16851   */\n      mstore\n      shl(0xa8, 0x4f76657220737570706c79)\n        /* \"#utility.yul\":16867:16885   */\n      0x44\n      dup3\n      add\n        /* \"#utility.yul\":16860:16901   */\n      mstore\n        /* \"#utility.yul\":16918:16936   */\n      0x64\n      add\n        /* \"ERC721A/MintNagaKids.sol\":3769:3836  require(getTotalSupply() + _amount < getMaxSupply(), \"Over supply\") */\n      tag_202\n        /* \"#utility.yul\":16607:16942   */\n      jump\n        /* \"ERC721A/MintNagaKids.sol\":3769:3836  require(getTotalSupply() + _amount < getMaxSupply(), \"Over supply\") */\n    tag_381:\n        /* \"ERC721A/MintNagaKids.sol\":3868:3878  msg.sender */\n      caller\n        /* \"ERC721A/MintNagaKids.sol\":6524:6528  bool */\n      0x00\n        /* \"ERC721A/MintNagaKids.sol\":6548:6568  _isUserMinted[_user] */\n      swap1\n      dup2\n      mstore\n        /* \"ERC721A/MintNagaKids.sol\":6548:6561  _isUserMinted */\n      0x06\n        /* \"ERC721A/MintNagaKids.sol\":6548:6568  _isUserMinted[_user] */\n      0x20\n      swap1\n      dup2\n      mstore\n      0x40\n      dup1\n      dup4\n      keccak256\n        /* \"ERC721A/MintNagaKids.sol\":6548:6576  _isUserMinted[_user][_round] */\n      dup5\n      dup5\n      mstore\n      swap1\n      swap2\n      mstore\n      swap1\n      keccak256\n      sload\n      0xff\n      and\n        /* \"ERC721A/MintNagaKids.sol\":3855:3895  isUserMinted(msg.sender,_round) == false */\n      iszero\n        /* \"ERC721A/MintNagaKids.sol\":3847:3923  require(isUserMinted(msg.sender,_round) == false, \"You are already minted.\") */\n      tag_385\n      jumpi\n      mload(0x40)\n      shl(0xe5, 0x461bcd)\n      dup2\n      mstore\n        /* \"#utility.yul\":13658:13660   */\n      0x20\n        /* \"ERC721A/MintNagaKids.sol\":3847:3923  require(isUserMinted(msg.sender,_round) == false, \"You are already minted.\") */\n      0x04\n      dup3\n      add\n        /* \"#utility.yul\":13640:13661   */\n      mstore\n        /* \"#utility.yul\":13697:13699   */\n      0x17\n        /* \"#utility.yul\":13677:13695   */\n      0x24\n      dup3\n      add\n        /* \"#utility.yul\":13670:13700   */\n      mstore\n      shl(0x49, 0x2cb7ba9030b9329030b63932b0b23c9036b4b73a32b217)\n        /* \"#utility.yul\":13716:13734   */\n      0x44\n      dup3\n      add\n        /* \"#utility.yul\":13709:13762   */\n      mstore\n        /* \"#utility.yul\":13779:13797   */\n      0x64\n      add\n        /* \"ERC721A/MintNagaKids.sol\":3847:3923  require(isUserMinted(msg.sender,_round) == false, \"You are already minted.\") */\n      tag_202\n        /* \"#utility.yul\":13456:13803   */\n      jump\n        /* \"ERC721A/MintNagaKids.sol\":3847:3923  require(isUserMinted(msg.sender,_round) == false, \"You are already minted.\") */\n    tag_385:\n        /* \"ERC721A/MintNagaKids.sol\":3942:3957  nagaKidContract */\n      sload(0x02)\n        /* \"ERC721A/MintNagaKids.sol\":3942:3981  nagaKidContract.isMinter(address(this)) */\n      mload(0x40)\n      shl(0xe1, 0x55138f0d)\n      dup2\n      mstore\n        /* \"ERC721A/MintNagaKids.sol\":3975:3979  this */\n      address\n        /* \"ERC721A/MintNagaKids.sol\":3942:3981  nagaKidContract.isMinter(address(this)) */\n      0x04\n      dup3\n      add\n        /* \"#utility.yul\":1099:1150   */\n      mstore\n      sub(shl(0xa0, 0x01), 0x01)\n        /* \"ERC721A/MintNagaKids.sol\":3942:3957  nagaKidContract */\n      swap1\n      swap2\n      and\n      swap1\n        /* \"ERC721A/MintNagaKids.sol\":3942:3966  nagaKidContract.isMinter */\n      0xaa271e1a\n      swap1\n        /* \"#utility.yul\":1072:1090   */\n      0x24\n      add\n        /* \"ERC721A/MintNagaKids.sol\":3942:3981  nagaKidContract.isMinter(address(this)) */\n      0x20\n      mload(0x40)\n      dup1\n      dup4\n      sub\n      dup2\n      dup7\n      gas\n      staticcall\n      iszero\n      dup1\n      iszero\n      tag_389\n      jumpi\n      returndatasize\n      0x00\n      dup1\n      returndatacopy\n      revert(0x00, returndatasize)\n    tag_389:\n      pop\n      pop\n      pop\n      pop\n      mload(0x40)\n      returndatasize\n      not(0x1f)\n      0x1f\n      dup3\n      add\n      and\n      dup3\n      add\n      dup1\n      0x40\n      mstore\n      pop\n      dup2\n      add\n      swap1\n      tag_390\n      swap2\n      swap1\n      tag_275\n      jump\t// in\n    tag_390:\n        /* \"ERC721A/MintNagaKids.sol\":3934:4016  require(nagaKidContract.isMinter(address(this)), \"Contract Mint is not approved.\") */\n      tag_391\n      jumpi\n      mload(0x40)\n      shl(0xe5, 0x461bcd)\n      dup2\n      mstore\n        /* \"#utility.yul\":14010:14012   */\n      0x20\n        /* \"ERC721A/MintNagaKids.sol\":3934:4016  require(nagaKidContract.isMinter(address(this)), \"Contract Mint is not approved.\") */\n      0x04\n      dup3\n      add\n        /* \"#utility.yul\":13992:14013   */\n      mstore\n        /* \"#utility.yul\":14049:14051   */\n      0x1e\n        /* \"#utility.yul\":14029:14047   */\n      0x24\n      dup3\n      add\n        /* \"#utility.yul\":14022:14052   */\n      mstore\n        /* \"#utility.yul\":14088:14120   */\n      0x436f6e7472616374204d696e74206973206e6f7420617070726f7665642e0000\n        /* \"#utility.yul\":14068:14086   */\n      0x44\n      dup3\n      add\n        /* \"#utility.yul\":14061:14121   */\n      mstore\n        /* \"#utility.yul\":14138:14156   */\n      0x64\n      add\n        /* \"ERC721A/MintNagaKids.sol\":3934:4016  require(nagaKidContract.isMinter(address(this)), \"Contract Mint is not approved.\") */\n      tag_202\n        /* \"#utility.yul\":13808:14162   */\n      jump\n        /* \"ERC721A/MintNagaKids.sol\":3934:4016  require(nagaKidContract.isMinter(address(this)), \"Contract Mint is not approved.\") */\n    tag_391:\n        /* \"ERC721A/MintNagaKids.sol\":4035:4131  MerkleProof.verify(_proof, merkleRoot, keccak256(abi.encodePacked(msg.sender, _amount, _round))) */\n      tag_393\n        /* \"ERC721A/MintNagaKids.sol\":4054:4060  _proof */\n      dup5\n      dup5\n        /* \"ERC721A/MintNagaKids.sol\":4035:4131  MerkleProof.verify(_proof, merkleRoot, keccak256(abi.encodePacked(msg.sender, _amount, _round))) */\n      dup1\n      dup1\n      0x20\n      mul\n      0x20\n      add\n      mload(0x40)\n      swap1\n      dup2\n      add\n      0x40\n      mstore\n      dup1\n      swap4\n      swap3\n      swap2\n      swap1\n      dup2\n      dup2\n      mstore\n      0x20\n      add\n      dup4\n      dup4\n      0x20\n      mul\n      dup1\n      dup3\n      dup5\n      calldatacopy\n      0x00\n      swap3\n      add\n      swap2\n      swap1\n      swap2\n      mstore\n      pop\n      pop\n        /* \"ERC721A/MintNagaKids.sol\":4062:4072  merkleRoot */\n      sload(0x04)\n        /* \"ERC721A/MintNagaKids.sol\":4084:4129  abi.encodePacked(msg.sender, _amount, _round) */\n      mload(0x40)\n      not(0xffffffffffffffffffffffff)\n        /* \"ERC721A/MintNagaKids.sol\":4101:4111  msg.sender */\n      caller\n        /* \"#utility.yul\":17152:17154   */\n      0x60\n        /* \"#utility.yul\":17148:17163   */\n      shl\n        /* \"#utility.yul\":17144:17197   */\n      and\n        /* \"ERC721A/MintNagaKids.sol\":4084:4129  abi.encodePacked(msg.sender, _amount, _round) */\n      0x20\n      dup3\n      add\n        /* \"#utility.yul\":17132:17198   */\n      mstore\n        /* \"#utility.yul\":17214:17226   */\n      0x34\n      dup2\n      add\n        /* \"#utility.yul\":17207:17235   */\n      dup9\n      swap1\n      mstore\n        /* \"#utility.yul\":17251:17263   */\n      0x54\n      dup2\n      add\n        /* \"#utility.yul\":17244:17272   */\n      dup8\n      swap1\n      mstore\n        /* \"ERC721A/MintNagaKids.sol\":4062:4072  merkleRoot */\n      swap1\n      swap3\n      pop\n        /* \"#utility.yul\":17288:17300   */\n      0x74\n      add\n      swap1\n      pop\n        /* \"ERC721A/MintNagaKids.sol\":4084:4129  abi.encodePacked(msg.sender, _amount, _round) */\n      mload(0x40)\n      0x20\n      dup2\n      dup4\n      sub\n      sub\n      dup2\n      mstore\n      swap1\n      0x40\n      mstore\n        /* \"ERC721A/MintNagaKids.sol\":4074:4130  keccak256(abi.encodePacked(msg.sender, _amount, _round)) */\n      dup1\n      mload\n      swap1\n      0x20\n      add\n      keccak256\n        /* \"ERC721A/MintNagaKids.sol\":4035:4053  MerkleProof.verify */\n      tag_396\n        /* \"ERC721A/MintNagaKids.sol\":4035:4131  MerkleProof.verify(_proof, merkleRoot, keccak256(abi.encodePacked(msg.sender, _amount, _round))) */\n      jump\t// in\n    tag_393:\n        /* \"ERC721A/MintNagaKids.sol\":4027:4173  require(MerkleProof.verify(_proof, merkleRoot, keccak256(abi.encodePacked(msg.sender, _amount, _round))), \"Unauthorized WhitelistMint This User.\") */\n      tag_397\n      jumpi\n      mload(0x40)\n      shl(0xe5, 0x461bcd)\n      dup2\n      mstore\n        /* \"#utility.yul\":17513:17515   */\n      0x20\n        /* \"ERC721A/MintNagaKids.sol\":4027:4173  require(MerkleProof.verify(_proof, merkleRoot, keccak256(abi.encodePacked(msg.sender, _amount, _round))), \"Unauthorized WhitelistMint This User.\") */\n      0x04\n      dup3\n      add\n        /* \"#utility.yul\":17495:17516   */\n      mstore\n        /* \"#utility.yul\":17552:17554   */\n      0x25\n        /* \"#utility.yul\":17532:17550   */\n      0x24\n      dup3\n      add\n        /* \"#utility.yul\":17525:17555   */\n      mstore\n        /* \"#utility.yul\":17591:17625   */\n      0x556e617574686f72697a65642057686974656c6973744d696e74205468697320\n        /* \"#utility.yul\":17571:17589   */\n      0x44\n      dup3\n      add\n        /* \"#utility.yul\":17564:17626   */\n      mstore\n      shl(0xd9, 0x2ab9b2b917)\n        /* \"#utility.yul\":17642:17660   */\n      0x64\n      dup3\n      add\n        /* \"#utility.yul\":17635:17670   */\n      mstore\n        /* \"#utility.yul\":17687:17706   */\n      0x84\n      add\n        /* \"ERC721A/MintNagaKids.sol\":4027:4173  require(MerkleProof.verify(_proof, merkleRoot, keccak256(abi.encodePacked(msg.sender, _amount, _round))), \"Unauthorized WhitelistMint This User.\") */\n      tag_202\n        /* \"#utility.yul\":17311:17712   */\n      jump\n        /* \"ERC721A/MintNagaKids.sol\":4027:4173  require(MerkleProof.verify(_proof, merkleRoot, keccak256(abi.encodePacked(msg.sender, _amount, _round))), \"Unauthorized WhitelistMint This User.\") */\n    tag_397:\n        /* \"ERC721A/MintNagaKids.sol\":4200:4210  msg.sender */\n      caller\n        /* \"ERC721A/MintNagaKids.sol\":4186:4211  _isUserMinted[msg.sender] */\n      0x00\n      dup2\n      dup2\n      mstore\n        /* \"ERC721A/MintNagaKids.sol\":4186:4199  _isUserMinted */\n      0x06\n        /* \"ERC721A/MintNagaKids.sol\":4186:4211  _isUserMinted[msg.sender] */\n      0x20\n      swap1\n      dup2\n      mstore\n      0x40\n      dup1\n      dup4\n      keccak256\n        /* \"ERC721A/MintNagaKids.sol\":4186:4219  _isUserMinted[msg.sender][_round] */\n      dup6\n      dup5\n      mstore\n      dup3\n      mstore\n      dup1\n      dup4\n      keccak256\n        /* \"ERC721A/MintNagaKids.sol\":4186:4226  _isUserMinted[msg.sender][_round] = true */\n      dup1\n      sload\n      not(0xff)\n      and\n        /* \"ERC721A/MintNagaKids.sol\":4222:4226  true */\n      0x01\n        /* \"ERC721A/MintNagaKids.sol\":4186:4226  _isUserMinted[msg.sender][_round] = true */\n      or\n      swap1\n      sstore\n        /* \"ERC721A/MintNagaKids.sol\":4237:4266  _userMintedAmount[msg.sender] */\n      swap3\n      dup3\n      mstore\n        /* \"ERC721A/MintNagaKids.sol\":4237:4254  _userMintedAmount */\n      0x07\n        /* \"ERC721A/MintNagaKids.sol\":4237:4266  _userMintedAmount[msg.sender] */\n      dup2\n      mstore\n      dup3\n      dup3\n      keccak256\n        /* \"ERC721A/MintNagaKids.sol\":4237:4274  _userMintedAmount[msg.sender][_round] */\n      dup5\n      dup4\n      mstore\n      swap1\n      mstore\n      swap1\n      dup2\n      keccak256\n        /* \"ERC721A/MintNagaKids.sol\":4237:4285  _userMintedAmount[msg.sender][_round] += _amount */\n      dup1\n      sload\n        /* \"ERC721A/MintNagaKids.sol\":4278:4285  _amount */\n      dup5\n      swap3\n        /* \"ERC721A/MintNagaKids.sol\":4186:4211  _isUserMinted[msg.sender] */\n      swap1\n        /* \"ERC721A/MintNagaKids.sol\":4237:4285  _userMintedAmount[msg.sender][_round] += _amount */\n      tag_400\n      swap1\n        /* \"ERC721A/MintNagaKids.sol\":4278:4285  _amount */\n      dup5\n      swap1\n        /* \"ERC721A/MintNagaKids.sol\":4237:4285  _userMintedAmount[msg.sender][_round] += _amount */\n      tag_380\n      jump\t// in\n    tag_400:\n      swap1\n      swap2\n      sstore\n      pop\n      pop\n        /* \"ERC721A/MintNagaKids.sol\":4298:4313  nagaKidContract */\n      sload(0x02)\n        /* \"ERC721A/MintNagaKids.sol\":4298:4342  nagaKidContract.safeMint(msg.sender,_amount) */\n      mload(0x40)\n      shl(0xe2, 0x28512065)\n      dup2\n      mstore\n        /* \"ERC721A/MintNagaKids.sol\":4323:4333  msg.sender */\n      caller\n        /* \"ERC721A/MintNagaKids.sol\":4298:4342  nagaKidContract.safeMint(msg.sender,_amount) */\n      0x04\n      dup3\n      add\n        /* \"#utility.yul\":9782:9833   */\n      mstore\n        /* \"#utility.yul\":9849:9867   */\n      0x24\n      dup2\n      add\n        /* \"#utility.yul\":9842:9876   */\n      dup5\n      swap1\n      mstore\n      sub(shl(0xa0, 0x01), 0x01)\n        /* \"ERC721A/MintNagaKids.sol\":4298:4313  nagaKidContract */\n      swap1\n      swap2\n      and\n      swap1\n        /* \"ERC721A/MintNagaKids.sol\":4298:4322  nagaKidContract.safeMint */\n      0xa1448194\n      swap1\n        /* \"#utility.yul\":9755:9773   */\n      0x44\n      add\n        /* \"ERC721A/MintNagaKids.sol\":4298:4342  nagaKidContract.safeMint(msg.sender,_amount) */\n      0x00\n      mload(0x40)\n      dup1\n      dup4\n      sub\n      dup2\n      0x00\n      dup8\n      dup1\n      extcodesize\n      iszero\n      dup1\n      iszero\n      tag_402\n      jumpi\n      0x00\n      dup1\n      revert\n    tag_402:\n      pop\n      gas\n      call\n      iszero\n      dup1\n      iszero\n      tag_404\n      jumpi\n      returndatasize\n      0x00\n      dup1\n      returndatacopy\n      revert(0x00, returndatasize)\n    tag_404:\n      pop\n      pop\n        /* \"ERC721A/MintNagaKids.sol\":4360:4411  PrivateMinted(msg.sender, _amount, block.timestamp) */\n      0x40\n      dup1\n      mload\n        /* \"#utility.yul\":9529:9554   */\n      dup6\n      dup2\n      mstore\n        /* \"ERC721A/MintNagaKids.sol\":4395:4410  block.timestamp */\n      timestamp\n        /* \"#utility.yul\":9585:9587   */\n      0x20\n        /* \"#utility.yul\":9570:9588   */\n      dup3\n      add\n        /* \"#utility.yul\":9563:9597   */\n      mstore\n        /* \"ERC721A/MintNagaKids.sol\":4374:4384  msg.sender */\n      caller\n      swap4\n      pop\n        /* \"ERC721A/MintNagaKids.sol\":4360:4411  PrivateMinted(msg.sender, _amount, block.timestamp) */\n      0xe9e607753e80542a9021d5149990f18919907f0136fad424eaac3d15056ccf6e\n      swap3\n      pop\n        /* \"#utility.yul\":9502:9520   */\n      add\n        /* \"ERC721A/MintNagaKids.sol\":4360:4411  PrivateMinted(msg.sender, _amount, block.timestamp) */\n      mload(0x40)\n      dup1\n      swap2\n      sub\n      swap1\n      log2\n      pop\n      pop\n        /* \"@openzeppelin/contracts/security/ReentrancyGuard.sol\":1701:1702  1 */\n      0x01\n        /* \"@openzeppelin/contracts/security/ReentrancyGuard.sol\":2628:2650  _status = _NOT_ENTERED */\n      dup1\n      sstore\n      pop\n      pop\n        /* \"ERC721A/MintNagaKids.sol\":3424:4419  function allowlistMint(bytes32[] calldata _proof, uint256 _amount, bytes32 _round) public payable nonReentrant {... */\n      jump\t// out\n        /* \"ERC721A/VerifySignature.sol\":267:761  function getEthSignedMessageHash(bytes32 _messageHash)... */\n    tag_186:\n        /* \"ERC721A/VerifySignature.sol\":611:738  abi.encodePacked(... */\n      mload(0x40)\n        /* \"#utility.yul\":17959:18025   */\n      0x19457468657265756d205369676e6564204d6573736167653a0a333200000000\n        /* \"ERC721A/VerifySignature.sol\":611:738  abi.encodePacked(... */\n      0x20\n      dup3\n      add\n        /* \"#utility.yul\":17947:18026   */\n      mstore\n        /* \"#utility.yul\":18042:18054   */\n      0x3c\n      dup2\n      add\n        /* \"#utility.yul\":18035:18063   */\n      dup3\n      swap1\n      mstore\n        /* \"ERC721A/VerifySignature.sol\":370:377  bytes32 */\n      0x00\n      swap1\n        /* \"#utility.yul\":18079:18091   */\n      0x5c\n      add\n        /* \"ERC721A/VerifySignature.sol\":611:738  abi.encodePacked(... */\n      tag_206\n        /* \"#utility.yul\":17717:18097   */\n      jump\n        /* \"ERC721A/MintNagaKids.sol\":2799:2996  function setRound(bytes32 _round) public onlyOwner {... */\n    tag_191:\n        /* \"@openzeppelin/contracts/access/Ownable.sol\":1082:1089  address */\n      0x00\n        /* \"@openzeppelin/contracts/access/Ownable.sol\":1108:1114  _owner */\n      sload\n      sub(shl(0xa0, 0x01), 0x01)\n      and\n        /* \"@openzeppelin/contracts/utils/Context.sol\":719:729  msg.sender */\n      caller\n        /* \"@openzeppelin/contracts/access/Ownable.sol\":1248:1271  owner() == _msgSender() */\n      eq\n        /* \"@openzeppelin/contracts/access/Ownable.sol\":1240:1308  require(owner() == _msgSender(), \"Ownable: caller is not the owner\") */\n      tag_412\n      jumpi\n      mload(0x40)\n      shl(0xe5, 0x461bcd)\n      dup2\n      mstore\n      0x04\n      add\n      tag_202\n      swap1\n      tag_203\n      jump\t// in\n    tag_412:\n        /* \"ERC721A/MintNagaKids.sol\":2884:2900  currentMintRound */\n      0x03\n      dup1\n      sload\n        /* \"ERC721A/MintNagaKids.sol\":2911:2936  currentMintRound = _round */\n      swap1\n      dup3\n      swap1\n      sstore\n        /* \"ERC721A/MintNagaKids.sol\":2954:2988  RoundChanged(_roundBefore, _round) */\n      0x40\n      dup1\n      mload\n        /* \"#utility.yul\":9529:9554   */\n      dup3\n      dup2\n      mstore\n        /* \"#utility.yul\":9585:9587   */\n      0x20\n        /* \"#utility.yul\":9570:9588   */\n      dup2\n      add\n        /* \"#utility.yul\":9563:9597   */\n      dup5\n      swap1\n      mstore\n        /* \"ERC721A/MintNagaKids.sol\":2954:2988  RoundChanged(_roundBefore, _round) */\n      0x521ec96875ca228cd2fc1dbd4c927a34328c9ce1a83bcb8c1f633f012c90d785\n      swap2\n        /* \"#utility.yul\":9502:9520   */\n      add\n        /* \"ERC721A/MintNagaKids.sol\":2954:2988  RoundChanged(_roundBefore, _round) */\n      tag_240\n        /* \"#utility.yul\":9355:9603   */\n      jump\n        /* \"@openzeppelin/contracts/access/Ownable.sol\":2270:2457  function _transferOwnership(address newOwner) internal virtual {... */\n    tag_249:\n        /* \"@openzeppelin/contracts/access/Ownable.sol\":2343:2359  address oldOwner */\n      0x00\n        /* \"@openzeppelin/contracts/access/Ownable.sol\":2362:2368  _owner */\n      dup1\n      sload\n      sub(shl(0xa0, 0x01), 0x01)\n        /* \"@openzeppelin/contracts/access/Ownable.sol\":2378:2395  _owner = newOwner */\n      dup4\n      dup2\n      and\n      not(sub(shl(0xa0, 0x01), 0x01))\n      dup4\n      and\n      dup2\n      or\n      dup5\n      sstore\n        /* \"@openzeppelin/contracts/access/Ownable.sol\":2410:2450  OwnershipTransferred(oldOwner, newOwner) */\n      mload(0x40)\n        /* \"@openzeppelin/contracts/access/Ownable.sol\":2362:2368  _owner */\n      swap2\n      swap1\n      swap3\n      and\n      swap3\n      dup4\n      swap2\n        /* \"@openzeppelin/contracts/access/Ownable.sol\":2410:2450  OwnershipTransferred(oldOwner, newOwner) */\n      0x8be0079c531659141344cd1fd0a4f28419497f9722a3daafe3b4186f6b6457e0\n      swap2\n        /* \"@openzeppelin/contracts/access/Ownable.sol\":2343:2359  address oldOwner */\n      swap1\n        /* \"@openzeppelin/contracts/access/Ownable.sol\":2410:2450  OwnershipTransferred(oldOwner, newOwner) */\n      log3\n        /* \"@openzeppelin/contracts/access/Ownable.sol\":2333:2457  {... */\n      pop\n        /* \"@openzeppelin/contracts/access/Ownable.sol\":2270:2457  function _transferOwnership(address newOwner) internal virtual {... */\n      pop\n      jump\t// out\n        /* \"@openzeppelin/contracts/utils/cryptography/MerkleProof.sol\":1154:1338  function verify(... */\n    tag_396:\n        /* \"@openzeppelin/contracts/utils/cryptography/MerkleProof.sol\":1275:1279  bool */\n      0x00\n        /* \"@openzeppelin/contracts/utils/cryptography/MerkleProof.sol\":1327:1331  root */\n      dup3\n        /* \"@openzeppelin/contracts/utils/cryptography/MerkleProof.sol\":1298:1323  processProof(proof, leaf) */\n      tag_420\n        /* \"@openzeppelin/contracts/utils/cryptography/MerkleProof.sol\":1311:1316  proof */\n      dup6\n        /* \"@openzeppelin/contracts/utils/cryptography/MerkleProof.sol\":1318:1322  leaf */\n      dup5\n        /* \"@openzeppelin/contracts/utils/cryptography/MerkleProof.sol\":1298:1310  processProof */\n      tag_421\n        /* \"@openzeppelin/contracts/utils/cryptography/MerkleProof.sol\":1298:1323  processProof(proof, leaf) */\n      jump\t// in\n    tag_420:\n        /* \"@openzeppelin/contracts/utils/cryptography/MerkleProof.sol\":1298:1331  processProof(proof, leaf) == root */\n      eq\n      swap5\n        /* \"@openzeppelin/contracts/utils/cryptography/MerkleProof.sol\":1154:1338  function verify(... */\n      swap4\n      pop\n      pop\n      pop\n      pop\n      jump\t// out\n        /* \"@openzeppelin/contracts/utils/cryptography/MerkleProof.sol\":1689:2351  function processProof(bytes32[] memory proof, bytes32 leaf) internal pure returns (bytes32) {... */\n    tag_421:\n        /* \"@openzeppelin/contracts/utils/cryptography/MerkleProof.sol\":1772:1779  bytes32 */\n      0x00\n        /* \"@openzeppelin/contracts/utils/cryptography/MerkleProof.sol\":1814:1818  leaf */\n      dup2\n        /* \"@openzeppelin/contracts/utils/cryptography/MerkleProof.sol\":1772:1779  bytes32 */\n      dup2\n        /* \"@openzeppelin/contracts/utils/cryptography/MerkleProof.sol\":1828:2316  for (uint256 i = 0; i < proof.length; i++) {... */\n    tag_423:\n        /* \"@openzeppelin/contracts/utils/cryptography/MerkleProof.sol\":1852:1857  proof */\n      dup5\n        /* \"@openzeppelin/contracts/utils/cryptography/MerkleProof.sol\":1852:1864  proof.length */\n      mload\n        /* \"@openzeppelin/contracts/utils/cryptography/MerkleProof.sol\":1848:1849  i */\n      dup2\n        /* \"@openzeppelin/contracts/utils/cryptography/MerkleProof.sol\":1848:1864  i < proof.length */\n      lt\n        /* \"@openzeppelin/contracts/utils/cryptography/MerkleProof.sol\":1828:2316  for (uint256 i = 0; i < proof.length; i++) {... */\n      iszero\n      tag_424\n      jumpi\n        /* \"@openzeppelin/contracts/utils/cryptography/MerkleProof.sol\":1885:1905  bytes32 proofElement */\n      0x00\n        /* \"@openzeppelin/contracts/utils/cryptography/MerkleProof.sol\":1908:1913  proof */\n      dup6\n        /* \"@openzeppelin/contracts/utils/cryptography/MerkleProof.sol\":1914:1915  i */\n      dup3\n        /* \"@openzeppelin/contracts/utils/cryptography/MerkleProof.sol\":1908:1916  proof[i] */\n      dup2\n      mload\n      dup2\n      lt\n      tag_427\n      jumpi\n      tag_427\n      tag_428\n      jump\t// in\n    tag_427:\n      0x20\n      mul\n      0x20\n      add\n      add\n      mload\n        /* \"@openzeppelin/contracts/utils/cryptography/MerkleProof.sol\":1885:1916  bytes32 proofElement = proof[i] */\n      swap1\n      pop\n        /* \"@openzeppelin/contracts/utils/cryptography/MerkleProof.sol\":1950:1962  proofElement */\n      dup1\n        /* \"@openzeppelin/contracts/utils/cryptography/MerkleProof.sol\":1934:1946  computedHash */\n      dup4\n        /* \"@openzeppelin/contracts/utils/cryptography/MerkleProof.sol\":1934:1962  computedHash <= proofElement */\n      gt\n        /* \"@openzeppelin/contracts/utils/cryptography/MerkleProof.sol\":1930:2306  if (computedHash <= proofElement) {... */\n      tag_429\n      jumpi\n        /* \"@openzeppelin/contracts/utils/cryptography/MerkleProof.sol\":2425:2438  bytes32 value */\n      0x00\n        /* \"@openzeppelin/contracts/utils/cryptography/MerkleProof.sol\":2473:2488  mstore(0x00, a) */\n      dup4\n      dup2\n      mstore\n        /* \"@openzeppelin/contracts/utils/cryptography/MerkleProof.sol\":2508:2512  0x20 */\n      0x20\n        /* \"@openzeppelin/contracts/utils/cryptography/MerkleProof.sol\":2501:2516  mstore(0x20, b) */\n      dup3\n      swap1\n      mstore\n        /* \"@openzeppelin/contracts/utils/cryptography/MerkleProof.sol\":2554:2558  0x40 */\n      0x40\n        /* \"@openzeppelin/contracts/utils/cryptography/MerkleProof.sol\":2538:2559  keccak256(0x00, 0x40) */\n      swap1\n      keccak256\n        /* \"@openzeppelin/contracts/utils/cryptography/MerkleProof.sol\":2060:2117  computedHash = _efficientHash(computedHash, proofElement) */\n      swap3\n      pop\n        /* \"@openzeppelin/contracts/utils/cryptography/MerkleProof.sol\":1930:2306  if (computedHash <= proofElement) {... */\n      jump(tag_432)\n    tag_429:\n        /* \"@openzeppelin/contracts/utils/cryptography/MerkleProof.sol\":2425:2438  bytes32 value */\n      0x00\n        /* \"@openzeppelin/contracts/utils/cryptography/MerkleProof.sol\":2473:2488  mstore(0x00, a) */\n      dup2\n      dup2\n      mstore\n        /* \"@openzeppelin/contracts/utils/cryptography/MerkleProof.sol\":2508:2512  0x20 */\n      0x20\n        /* \"@openzeppelin/contracts/utils/cryptography/MerkleProof.sol\":2501:2516  mstore(0x20, b) */\n      dup5\n      swap1\n      mstore\n        /* \"@openzeppelin/contracts/utils/cryptography/MerkleProof.sol\":2554:2558  0x40 */\n      0x40\n        /* \"@openzeppelin/contracts/utils/cryptography/MerkleProof.sol\":2538:2559  keccak256(0x00, 0x40) */\n      swap1\n      keccak256\n        /* \"@openzeppelin/contracts/utils/cryptography/MerkleProof.sol\":2234:2291  computedHash = _efficientHash(proofElement, computedHash) */\n      swap3\n      pop\n        /* \"@openzeppelin/contracts/utils/cryptography/MerkleProof.sol\":1930:2306  if (computedHash <= proofElement) {... */\n    tag_432:\n      pop\n        /* \"@openzeppelin/contracts/utils/cryptography/MerkleProof.sol\":1866:1869  i++ */\n      dup1\n      tag_434\n      dup2\n      tag_435\n      jump\t// in\n    tag_434:\n      swap2\n      pop\n      pop\n        /* \"@openzeppelin/contracts/utils/cryptography/MerkleProof.sol\":1828:2316  for (uint256 i = 0; i < proof.length; i++) {... */\n      jump(tag_423)\n    tag_424:\n      pop\n        /* \"@openzeppelin/contracts/utils/cryptography/MerkleProof.sol\":2332:2344  computedHash */\n      swap4\n        /* \"@openzeppelin/contracts/utils/cryptography/MerkleProof.sol\":1689:2351  function processProof(bytes32[] memory proof, bytes32 leaf) internal pure returns (bytes32) {... */\n      swap3\n      pop\n      pop\n      pop\n      jump\t// out\n        /* \"#utility.yul\":196:314   */\n    tag_437:\n        /* \"#utility.yul\":282:287   */\n      dup1\n        /* \"#utility.yul\":275:288   */\n      iszero\n        /* \"#utility.yul\":268:289   */\n      iszero\n        /* \"#utility.yul\":261:266   */\n      dup2\n        /* \"#utility.yul\":258:290   */\n      eq\n        /* \"#utility.yul\":248:308   */\n      tag_201\n      jumpi\n        /* \"#utility.yul\":304:305   */\n      0x00\n        /* \"#utility.yul\":301:302   */\n      dup1\n        /* \"#utility.yul\":294:306   */\n      revert\n        /* \"#utility.yul\":319:560   */\n    tag_50:\n        /* \"#utility.yul\":375:381   */\n      0x00\n        /* \"#utility.yul\":428:430   */\n      0x20\n        /* \"#utility.yul\":416:425   */\n      dup3\n        /* \"#utility.yul\":407:414   */\n      dup5\n        /* \"#utility.yul\":403:426   */\n      sub\n        /* \"#utility.yul\":399:431   */\n      slt\n        /* \"#utility.yul\":396:448   */\n      iszero\n      tag_447\n      jumpi\n        /* \"#utility.yul\":444:445   */\n      0x00\n        /* \"#utility.yul\":441:442   */\n      dup1\n        /* \"#utility.yul\":434:446   */\n      revert\n        /* \"#utility.yul\":396:448   */\n    tag_447:\n        /* \"#utility.yul\":483:492   */\n      dup2\n        /* \"#utility.yul\":470:493   */\n      calldataload\n        /* \"#utility.yul\":502:530   */\n      tag_448\n        /* \"#utility.yul\":524:529   */\n      dup2\n        /* \"#utility.yul\":502:530   */\n      tag_437\n      jump\t// in\n    tag_448:\n        /* \"#utility.yul\":549:554   */\n      swap4\n        /* \"#utility.yul\":319:560   */\n      swap3\n      pop\n      pop\n      pop\n      jump\t// out\n        /* \"#utility.yul\":565:696   */\n    tag_438:\n      sub(shl(0xa0, 0x01), 0x01)\n        /* \"#utility.yul\":640:671   */\n      dup2\n      and\n        /* \"#utility.yul\":630:672   */\n      dup2\n      eq\n        /* \"#utility.yul\":620:690   */\n      tag_201\n      jumpi\n        /* \"#utility.yul\":686:687   */\n      0x00\n        /* \"#utility.yul\":683:684   */\n      dup1\n        /* \"#utility.yul\":676:688   */\n      revert\n        /* \"#utility.yul\":701:948   */\n    tag_55:\n        /* \"#utility.yul\":760:766   */\n      0x00\n        /* \"#utility.yul\":813:815   */\n      0x20\n        /* \"#utility.yul\":801:810   */\n      dup3\n        /* \"#utility.yul\":792:799   */\n      dup5\n        /* \"#utility.yul\":788:811   */\n      sub\n        /* \"#utility.yul\":784:816   */\n      slt\n        /* \"#utility.yul\":781:833   */\n      iszero\n      tag_452\n      jumpi\n        /* \"#utility.yul\":829:830   */\n      0x00\n        /* \"#utility.yul\":826:827   */\n      dup1\n        /* \"#utility.yul\":819:831   */\n      revert\n        /* \"#utility.yul\":781:833   */\n    tag_452:\n        /* \"#utility.yul\":868:877   */\n      dup2\n        /* \"#utility.yul\":855:878   */\n      calldataload\n        /* \"#utility.yul\":887:918   */\n      tag_448\n        /* \"#utility.yul\":912:917   */\n      dup2\n        /* \"#utility.yul\":887:918   */\n      tag_438\n      jump\t// in\n        /* \"#utility.yul\":1161:1288   */\n    tag_439:\n        /* \"#utility.yul\":1222:1232   */\n      0x4e487b71\n        /* \"#utility.yul\":1217:1220   */\n      0xe0\n        /* \"#utility.yul\":1213:1233   */\n      shl\n        /* \"#utility.yul\":1210:1211   */\n      0x00\n        /* \"#utility.yul\":1203:1234   */\n      mstore\n        /* \"#utility.yul\":1253:1257   */\n      0x41\n        /* \"#utility.yul\":1250:1251   */\n      0x04\n        /* \"#utility.yul\":1243:1258   */\n      mstore\n        /* \"#utility.yul\":1277:1281   */\n      0x24\n        /* \"#utility.yul\":1274:1275   */\n      0x00\n        /* \"#utility.yul\":1267:1282   */\n      revert\n        /* \"#utility.yul\":1293:2011   */\n    tag_440:\n        /* \"#utility.yul\":1335:1340   */\n      0x00\n        /* \"#utility.yul\":1388:1391   */\n      dup3\n        /* \"#utility.yul\":1381:1385   */\n      0x1f\n        /* \"#utility.yul\":1373:1379   */\n      dup4\n        /* \"#utility.yul\":1369:1386   */\n      add\n        /* \"#utility.yul\":1365:1392   */\n      slt\n        /* \"#utility.yul\":1355:1410   */\n      tag_457\n      jumpi\n        /* \"#utility.yul\":1406:1407   */\n      0x00\n        /* \"#utility.yul\":1403:1404   */\n      dup1\n        /* \"#utility.yul\":1396:1408   */\n      revert\n        /* \"#utility.yul\":1355:1410   */\n    tag_457:\n        /* \"#utility.yul\":1442:1448   */\n      dup2\n        /* \"#utility.yul\":1429:1449   */\n      calldataload\n        /* \"#utility.yul\":1468:1486   */\n      0xffffffffffffffff\n        /* \"#utility.yul\":1505:1507   */\n      dup1\n        /* \"#utility.yul\":1501:1503   */\n      dup3\n        /* \"#utility.yul\":1498:1508   */\n      gt\n        /* \"#utility.yul\":1495:1531   */\n      iszero\n      tag_459\n      jumpi\n        /* \"#utility.yul\":1511:1529   */\n      tag_459\n      tag_439\n      jump\t// in\n    tag_459:\n        /* \"#utility.yul\":1586:1588   */\n      0x40\n        /* \"#utility.yul\":1580:1589   */\n      mload\n        /* \"#utility.yul\":1554:1556   */\n      0x1f\n        /* \"#utility.yul\":1640:1653   */\n      dup4\n      add\n      not(0x1f)\n        /* \"#utility.yul\":1636:1658   */\n      swap1\n      dup2\n      and\n        /* \"#utility.yul\":1660:1662   */\n      0x3f\n        /* \"#utility.yul\":1632:1663   */\n      add\n        /* \"#utility.yul\":1628:1668   */\n      and\n        /* \"#utility.yul\":1616:1669   */\n      dup2\n      add\n      swap1\n        /* \"#utility.yul\":1684:1702   */\n      dup3\n      dup3\n      gt\n        /* \"#utility.yul\":1704:1726   */\n      dup2\n      dup4\n      lt\n        /* \"#utility.yul\":1681:1727   */\n      or\n        /* \"#utility.yul\":1678:1750   */\n      iszero\n      tag_461\n      jumpi\n        /* \"#utility.yul\":1730:1748   */\n      tag_461\n      tag_439\n      jump\t// in\n    tag_461:\n        /* \"#utility.yul\":1770:1780   */\n      dup2\n        /* \"#utility.yul\":1766:1768   */\n      0x40\n        /* \"#utility.yul\":1759:1781   */\n      mstore\n        /* \"#utility.yul\":1805:1807   */\n      dup4\n        /* \"#utility.yul\":1797:1803   */\n      dup2\n        /* \"#utility.yul\":1790:1808   */\n      mstore\n        /* \"#utility.yul\":1851:1854   */\n      dup7\n        /* \"#utility.yul\":1844:1848   */\n      0x20\n        /* \"#utility.yul\":1839:1841   */\n      dup6\n        /* \"#utility.yul\":1831:1837   */\n      dup9\n        /* \"#utility.yul\":1827:1842   */\n      add\n        /* \"#utility.yul\":1823:1849   */\n      add\n        /* \"#utility.yul\":1820:1855   */\n      gt\n        /* \"#utility.yul\":1817:1872   */\n      iszero\n      tag_462\n      jumpi\n        /* \"#utility.yul\":1868:1869   */\n      0x00\n        /* \"#utility.yul\":1865:1866   */\n      dup1\n        /* \"#utility.yul\":1858:1870   */\n      revert\n        /* \"#utility.yul\":1817:1872   */\n    tag_462:\n        /* \"#utility.yul\":1932:1934   */\n      dup4\n        /* \"#utility.yul\":1925:1929   */\n      0x20\n        /* \"#utility.yul\":1917:1923   */\n      dup8\n        /* \"#utility.yul\":1913:1930   */\n      add\n        /* \"#utility.yul\":1906:1910   */\n      0x20\n        /* \"#utility.yul\":1898:1904   */\n      dup4\n        /* \"#utility.yul\":1894:1911   */\n      add\n        /* \"#utility.yul\":1881:1935   */\n      calldatacopy\n        /* \"#utility.yul\":1979:1980   */\n      0x00\n        /* \"#utility.yul\":1972:1976   */\n      0x20\n        /* \"#utility.yul\":1967:1969   */\n      dup6\n        /* \"#utility.yul\":1959:1965   */\n      dup4\n        /* \"#utility.yul\":1955:1970   */\n      add\n        /* \"#utility.yul\":1951:1977   */\n      add\n        /* \"#utility.yul\":1944:1981   */\n      mstore\n        /* \"#utility.yul\":1999:2005   */\n      dup1\n        /* \"#utility.yul\":1990:2005   */\n      swap5\n      pop\n      pop\n      pop\n      pop\n      pop\n        /* \"#utility.yul\":1293:2011   */\n      swap3\n      swap2\n      pop\n      pop\n      jump\t// out\n        /* \"#utility.yul\":2016:2612   */\n    tag_74:\n        /* \"#utility.yul\":2102:2108   */\n      0x00\n        /* \"#utility.yul\":2110:2116   */\n      dup1\n        /* \"#utility.yul\":2118:2124   */\n      0x00\n        /* \"#utility.yul\":2171:2173   */\n      0x60\n        /* \"#utility.yul\":2159:2168   */\n      dup5\n        /* \"#utility.yul\":2150:2157   */\n      dup7\n        /* \"#utility.yul\":2146:2169   */\n      sub\n        /* \"#utility.yul\":2142:2174   */\n      slt\n        /* \"#utility.yul\":2139:2191   */\n      iszero\n      tag_464\n      jumpi\n        /* \"#utility.yul\":2187:2188   */\n      0x00\n        /* \"#utility.yul\":2184:2185   */\n      dup1\n        /* \"#utility.yul\":2177:2189   */\n      revert\n        /* \"#utility.yul\":2139:2191   */\n    tag_464:\n        /* \"#utility.yul\":2226:2235   */\n      dup4\n        /* \"#utility.yul\":2213:2236   */\n      calldataload\n        /* \"#utility.yul\":2245:2276   */\n      tag_465\n        /* \"#utility.yul\":2270:2275   */\n      dup2\n        /* \"#utility.yul\":2245:2276   */\n      tag_438\n      jump\t// in\n    tag_465:\n        /* \"#utility.yul\":2295:2300   */\n      swap3\n      pop\n        /* \"#utility.yul\":2352:2354   */\n      0x20\n        /* \"#utility.yul\":2337:2355   */\n      dup5\n      add\n        /* \"#utility.yul\":2324:2356   */\n      calldataload\n        /* \"#utility.yul\":2365:2398   */\n      tag_466\n        /* \"#utility.yul\":2324:2356   */\n      dup2\n        /* \"#utility.yul\":2365:2398   */\n      tag_438\n      jump\t// in\n    tag_466:\n        /* \"#utility.yul\":2417:2424   */\n      swap2\n      pop\n        /* \"#utility.yul\":2475:2477   */\n      0x40\n        /* \"#utility.yul\":2460:2478   */\n      dup5\n      add\n        /* \"#utility.yul\":2447:2479   */\n      calldataload\n        /* \"#utility.yul\":2502:2520   */\n      0xffffffffffffffff\n        /* \"#utility.yul\":2491:2521   */\n      dup2\n      gt\n        /* \"#utility.yul\":2488:2538   */\n      iszero\n      tag_467\n      jumpi\n        /* \"#utility.yul\":2534:2535   */\n      0x00\n        /* \"#utility.yul\":2531:2532   */\n      dup1\n        /* \"#utility.yul\":2524:2536   */\n      revert\n        /* \"#utility.yul\":2488:2538   */\n    tag_467:\n        /* \"#utility.yul\":2557:2606   */\n      tag_468\n        /* \"#utility.yul\":2598:2605   */\n      dup7\n        /* \"#utility.yul\":2589:2595   */\n      dup3\n        /* \"#utility.yul\":2578:2587   */\n      dup8\n        /* \"#utility.yul\":2574:2596   */\n      add\n        /* \"#utility.yul\":2557:2606   */\n      tag_440\n      jump\t// in\n    tag_468:\n        /* \"#utility.yul\":2547:2606   */\n      swap2\n      pop\n      pop\n        /* \"#utility.yul\":2016:2612   */\n      swap3\n      pop\n      swap3\n      pop\n      swap3\n      jump\t// out\n        /* \"#utility.yul\":2991:3171   */\n    tag_97:\n        /* \"#utility.yul\":3050:3056   */\n      0x00\n        /* \"#utility.yul\":3103:3105   */\n      0x20\n        /* \"#utility.yul\":3091:3100   */\n      dup3\n        /* \"#utility.yul\":3082:3089   */\n      dup5\n        /* \"#utility.yul\":3078:3101   */\n      sub\n        /* \"#utility.yul\":3074:3106   */\n      slt\n        /* \"#utility.yul\":3071:3123   */\n      iszero\n      tag_472\n      jumpi\n        /* \"#utility.yul\":3119:3120   */\n      0x00\n        /* \"#utility.yul\":3116:3117   */\n      dup1\n        /* \"#utility.yul\":3109:3121   */\n      revert\n        /* \"#utility.yul\":3071:3123   */\n    tag_472:\n      pop\n        /* \"#utility.yul\":3142:3165   */\n      calldataload\n      swap2\n        /* \"#utility.yul\":2991:3171   */\n      swap1\n      pop\n      jump\t// out\n        /* \"#utility.yul\":3176:3564   */\n    tag_102:\n        /* \"#utility.yul\":3244:3250   */\n      0x00\n        /* \"#utility.yul\":3252:3258   */\n      dup1\n        /* \"#utility.yul\":3305:3307   */\n      0x40\n        /* \"#utility.yul\":3293:3302   */\n      dup4\n        /* \"#utility.yul\":3284:3291   */\n      dup6\n        /* \"#utility.yul\":3280:3303   */\n      sub\n        /* \"#utility.yul\":3276:3308   */\n      slt\n        /* \"#utility.yul\":3273:3325   */\n      iszero\n      tag_474\n      jumpi\n        /* \"#utility.yul\":3321:3322   */\n      0x00\n        /* \"#utility.yul\":3318:3319   */\n      dup1\n        /* \"#utility.yul\":3311:3323   */\n      revert\n        /* \"#utility.yul\":3273:3325   */\n    tag_474:\n        /* \"#utility.yul\":3360:3369   */\n      dup3\n        /* \"#utility.yul\":3347:3370   */\n      calldataload\n        /* \"#utility.yul\":3379:3410   */\n      tag_475\n        /* \"#utility.yul\":3404:3409   */\n      dup2\n        /* \"#utility.yul\":3379:3410   */\n      tag_438\n      jump\t// in\n    tag_475:\n        /* \"#utility.yul\":3429:3434   */\n      swap2\n      pop\n        /* \"#utility.yul\":3486:3488   */\n      0x20\n        /* \"#utility.yul\":3471:3489   */\n      dup4\n      add\n        /* \"#utility.yul\":3458:3490   */\n      calldataload\n        /* \"#utility.yul\":3499:3532   */\n      tag_476\n        /* \"#utility.yul\":3458:3490   */\n      dup2\n        /* \"#utility.yul\":3499:3532   */\n      tag_438\n      jump\t// in\n    tag_476:\n        /* \"#utility.yul\":3551:3558   */\n      dup1\n        /* \"#utility.yul\":3541:3558   */\n      swap2\n      pop\n      pop\n        /* \"#utility.yul\":3176:3564   */\n      swap3\n      pop\n      swap3\n      swap1\n      pop\n      jump\t// out\n        /* \"#utility.yul\":3569:3957   */\n    tag_115:\n        /* \"#utility.yul\":3646:3652   */\n      0x00\n        /* \"#utility.yul\":3654:3660   */\n      dup1\n        /* \"#utility.yul\":3707:3709   */\n      0x40\n        /* \"#utility.yul\":3695:3704   */\n      dup4\n        /* \"#utility.yul\":3686:3693   */\n      dup6\n        /* \"#utility.yul\":3682:3705   */\n      sub\n        /* \"#utility.yul\":3678:3710   */\n      slt\n        /* \"#utility.yul\":3675:3727   */\n      iszero\n      tag_478\n      jumpi\n        /* \"#utility.yul\":3723:3724   */\n      0x00\n        /* \"#utility.yul\":3720:3721   */\n      dup1\n        /* \"#utility.yul\":3713:3725   */\n      revert\n        /* \"#utility.yul\":3675:3727   */\n    tag_478:\n        /* \"#utility.yul\":3759:3768   */\n      dup3\n        /* \"#utility.yul\":3746:3769   */\n      calldataload\n        /* \"#utility.yul\":3736:3769   */\n      swap2\n      pop\n        /* \"#utility.yul\":3820:3822   */\n      0x20\n        /* \"#utility.yul\":3809:3818   */\n      dup4\n        /* \"#utility.yul\":3805:3823   */\n      add\n        /* \"#utility.yul\":3792:3824   */\n      calldataload\n        /* \"#utility.yul\":3847:3865   */\n      0xffffffffffffffff\n        /* \"#utility.yul\":3839:3845   */\n      dup2\n        /* \"#utility.yul\":3836:3866   */\n      gt\n        /* \"#utility.yul\":3833:3883   */\n      iszero\n      tag_479\n      jumpi\n        /* \"#utility.yul\":3879:3880   */\n      0x00\n        /* \"#utility.yul\":3876:3877   */\n      dup1\n        /* \"#utility.yul\":3869:3881   */\n      revert\n        /* \"#utility.yul\":3833:3883   */\n    tag_479:\n        /* \"#utility.yul\":3902:3951   */\n      tag_480\n        /* \"#utility.yul\":3943:3950   */\n      dup6\n        /* \"#utility.yul\":3934:3940   */\n      dup3\n        /* \"#utility.yul\":3923:3932   */\n      dup7\n        /* \"#utility.yul\":3919:3941   */\n      add\n        /* \"#utility.yul\":3902:3951   */\n      tag_440\n      jump\t// in\n    tag_480:\n        /* \"#utility.yul\":3892:3951   */\n      swap2\n      pop\n      pop\n        /* \"#utility.yul\":3569:3957   */\n      swap3\n      pop\n      swap3\n      swap1\n      pop\n      jump\t// out\n        /* \"#utility.yul\":4230:4550   */\n    tag_130:\n        /* \"#utility.yul\":4298:4304   */\n      0x00\n        /* \"#utility.yul\":4351:4353   */\n      0x20\n        /* \"#utility.yul\":4339:4348   */\n      dup3\n        /* \"#utility.yul\":4330:4337   */\n      dup5\n        /* \"#utility.yul\":4326:4349   */\n      sub\n        /* \"#utility.yul\":4322:4354   */\n      slt\n        /* \"#utility.yul\":4319:4371   */\n      iszero\n      tag_485\n      jumpi\n        /* \"#utility.yul\":4367:4368   */\n      0x00\n        /* \"#utility.yul\":4364:4365   */\n      dup1\n        /* \"#utility.yul\":4357:4369   */\n      revert\n        /* \"#utility.yul\":4319:4371   */\n    tag_485:\n        /* \"#utility.yul\":4407:4416   */\n      dup2\n        /* \"#utility.yul\":4394:4417   */\n      calldataload\n        /* \"#utility.yul\":4440:4458   */\n      0xffffffffffffffff\n        /* \"#utility.yul\":4432:4438   */\n      dup2\n        /* \"#utility.yul\":4429:4459   */\n      gt\n        /* \"#utility.yul\":4426:4476   */\n      iszero\n      tag_486\n      jumpi\n        /* \"#utility.yul\":4472:4473   */\n      0x00\n        /* \"#utility.yul\":4469:4470   */\n      dup1\n        /* \"#utility.yul\":4462:4474   */\n      revert\n        /* \"#utility.yul\":4426:4476   */\n    tag_486:\n        /* \"#utility.yul\":4495:4544   */\n      tag_487\n        /* \"#utility.yul\":4536:4543   */\n      dup5\n        /* \"#utility.yul\":4527:4533   */\n      dup3\n        /* \"#utility.yul\":4516:4525   */\n      dup6\n        /* \"#utility.yul\":4512:4534   */\n      add\n        /* \"#utility.yul\":4495:4544   */\n      tag_440\n      jump\t// in\n    tag_487:\n        /* \"#utility.yul\":4485:4544   */\n      swap5\n        /* \"#utility.yul\":4230:4550   */\n      swap4\n      pop\n      pop\n      pop\n      pop\n      jump\t// out\n        /* \"#utility.yul\":4886:5201   */\n    tag_137:\n        /* \"#utility.yul\":4954:4960   */\n      0x00\n        /* \"#utility.yul\":4962:4968   */\n      dup1\n        /* \"#utility.yul\":5015:5017   */\n      0x40\n        /* \"#utility.yul\":5003:5012   */\n      dup4\n        /* \"#utility.yul\":4994:5001   */\n      dup6\n        /* \"#utility.yul\":4990:5013   */\n      sub\n        /* \"#utility.yul\":4986:5018   */\n      slt\n        /* \"#utility.yul\":4983:5035   */\n      iszero\n      tag_490\n      jumpi\n        /* \"#utility.yul\":5031:5032   */\n      0x00\n        /* \"#utility.yul\":5028:5029   */\n      dup1\n        /* \"#utility.yul\":5021:5033   */\n      revert\n        /* \"#utility.yul\":4983:5035   */\n    tag_490:\n        /* \"#utility.yul\":5070:5079   */\n      dup3\n        /* \"#utility.yul\":5057:5080   */\n      calldataload\n        /* \"#utility.yul\":5089:5120   */\n      tag_491\n        /* \"#utility.yul\":5114:5119   */\n      dup2\n        /* \"#utility.yul\":5089:5120   */\n      tag_438\n      jump\t// in\n    tag_491:\n        /* \"#utility.yul\":5139:5144   */\n      swap5\n        /* \"#utility.yul\":5191:5193   */\n      0x20\n        /* \"#utility.yul\":5176:5194   */\n      swap4\n      swap1\n      swap4\n      add\n        /* \"#utility.yul\":5163:5195   */\n      calldataload\n      swap4\n      pop\n      pop\n      pop\n        /* \"#utility.yul\":4886:5201   */\n      jump\t// out\n        /* \"#utility.yul\":5206:5662   */\n    tag_143:\n        /* \"#utility.yul\":5283:5289   */\n      0x00\n        /* \"#utility.yul\":5291:5297   */\n      dup1\n        /* \"#utility.yul\":5299:5305   */\n      0x00\n        /* \"#utility.yul\":5352:5354   */\n      0x60\n        /* \"#utility.yul\":5340:5349   */\n      dup5\n        /* \"#utility.yul\":5331:5338   */\n      dup7\n        /* \"#utility.yul\":5327:5350   */\n      sub\n        /* \"#utility.yul\":5323:5355   */\n      slt\n        /* \"#utility.yul\":5320:5372   */\n      iszero\n      tag_493\n      jumpi\n        /* \"#utility.yul\":5368:5369   */\n      0x00\n        /* \"#utility.yul\":5365:5366   */\n      dup1\n        /* \"#utility.yul\":5358:5370   */\n      revert\n        /* \"#utility.yul\":5320:5372   */\n    tag_493:\n        /* \"#utility.yul\":5407:5416   */\n      dup4\n        /* \"#utility.yul\":5394:5417   */\n      calldataload\n        /* \"#utility.yul\":5426:5457   */\n      tag_494\n        /* \"#utility.yul\":5451:5456   */\n      dup2\n        /* \"#utility.yul\":5426:5457   */\n      tag_438\n      jump\t// in\n    tag_494:\n        /* \"#utility.yul\":5476:5481   */\n      swap3\n      pop\n        /* \"#utility.yul\":5533:5535   */\n      0x20\n        /* \"#utility.yul\":5518:5536   */\n      dup5\n      add\n        /* \"#utility.yul\":5505:5537   */\n      calldataload\n        /* \"#utility.yul\":5546:5579   */\n      tag_495\n        /* \"#utility.yul\":5505:5537   */\n      dup2\n        /* \"#utility.yul\":5546:5579   */\n      tag_438\n      jump\t// in\n    tag_495:\n        /* \"#utility.yul\":5206:5662   */\n      swap3\n      swap6\n        /* \"#utility.yul\":5598:5605   */\n      swap3\n      swap5\n      pop\n      pop\n      pop\n        /* \"#utility.yul\":5652:5654   */\n      0x40\n        /* \"#utility.yul\":5637:5655   */\n      swap2\n      swap1\n      swap2\n      add\n        /* \"#utility.yul\":5624:5656   */\n      calldataload\n      swap1\n        /* \"#utility.yul\":5206:5662   */\n      jump\t// out\n        /* \"#utility.yul\":5667:6258   */\n    tag_151:\n        /* \"#utility.yul\":5737:5743   */\n      0x00\n        /* \"#utility.yul\":5745:5751   */\n      dup1\n        /* \"#utility.yul\":5798:5800   */\n      0x20\n        /* \"#utility.yul\":5786:5795   */\n      dup4\n        /* \"#utility.yul\":5777:5784   */\n      dup6\n        /* \"#utility.yul\":5773:5796   */\n      sub\n        /* \"#utility.yul\":5769:5801   */\n      slt\n        /* \"#utility.yul\":5766:5818   */\n      iszero\n      tag_497\n      jumpi\n        /* \"#utility.yul\":5814:5815   */\n      0x00\n        /* \"#utility.yul\":5811:5812   */\n      dup1\n        /* \"#utility.yul\":5804:5816   */\n      revert\n        /* \"#utility.yul\":5766:5818   */\n    tag_497:\n        /* \"#utility.yul\":5854:5863   */\n      dup3\n        /* \"#utility.yul\":5841:5864   */\n      calldataload\n        /* \"#utility.yul\":5883:5901   */\n      0xffffffffffffffff\n        /* \"#utility.yul\":5924:5926   */\n      dup1\n        /* \"#utility.yul\":5916:5922   */\n      dup3\n        /* \"#utility.yul\":5913:5927   */\n      gt\n        /* \"#utility.yul\":5910:5944   */\n      iszero\n      tag_498\n      jumpi\n        /* \"#utility.yul\":5940:5941   */\n      0x00\n        /* \"#utility.yul\":5937:5938   */\n      dup1\n        /* \"#utility.yul\":5930:5942   */\n      revert\n        /* \"#utility.yul\":5910:5944   */\n    tag_498:\n        /* \"#utility.yul\":5978:5984   */\n      dup2\n        /* \"#utility.yul\":5967:5976   */\n      dup6\n        /* \"#utility.yul\":5963:5985   */\n      add\n        /* \"#utility.yul\":5953:5985   */\n      swap2\n      pop\n        /* \"#utility.yul\":6023:6030   */\n      dup6\n        /* \"#utility.yul\":6016:6020   */\n      0x1f\n        /* \"#utility.yul\":6012:6014   */\n      dup4\n        /* \"#utility.yul\":6008:6021   */\n      add\n        /* \"#utility.yul\":6004:6031   */\n      slt\n        /* \"#utility.yul\":5994:6049   */\n      tag_499\n      jumpi\n        /* \"#utility.yul\":6045:6046   */\n      0x00\n        /* \"#utility.yul\":6042:6043   */\n      dup1\n        /* \"#utility.yul\":6035:6047   */\n      revert\n        /* \"#utility.yul\":5994:6049   */\n    tag_499:\n        /* \"#utility.yul\":6085:6087   */\n      dup2\n        /* \"#utility.yul\":6072:6088   */\n      calldataload\n        /* \"#utility.yul\":6111:6113   */\n      dup2\n        /* \"#utility.yul\":6103:6109   */\n      dup2\n        /* \"#utility.yul\":6100:6114   */\n      gt\n        /* \"#utility.yul\":6097:6131   */\n      iszero\n      tag_500\n      jumpi\n        /* \"#utility.yul\":6127:6128   */\n      0x00\n        /* \"#utility.yul\":6124:6125   */\n      dup1\n        /* \"#utility.yul\":6117:6129   */\n      revert\n        /* \"#utility.yul\":6097:6131   */\n    tag_500:\n        /* \"#utility.yul\":6172:6179   */\n      dup7\n        /* \"#utility.yul\":6167:6169   */\n      0x20\n        /* \"#utility.yul\":6158:6164   */\n      dup3\n        /* \"#utility.yul\":6154:6156   */\n      dup6\n        /* \"#utility.yul\":6150:6165   */\n      add\n        /* \"#utility.yul\":6146:6170   */\n      add\n        /* \"#utility.yul\":6143:6180   */\n      gt\n        /* \"#utility.yul\":6140:6197   */\n      iszero\n      tag_501\n      jumpi\n        /* \"#utility.yul\":6193:6194   */\n      0x00\n        /* \"#utility.yul\":6190:6191   */\n      dup1\n        /* \"#utility.yul\":6183:6195   */\n      revert\n        /* \"#utility.yul\":6140:6197   */\n    tag_501:\n        /* \"#utility.yul\":6224:6226   */\n      0x20\n        /* \"#utility.yul\":6216:6227   */\n      swap3\n      swap1\n      swap3\n      add\n      swap7\n        /* \"#utility.yul\":6246:6252   */\n      swap2\n      swap6\n      pop\n        /* \"#utility.yul\":5667:6258   */\n      swap1\n      swap4\n      pop\n      pop\n      pop\n      pop\n      jump\t// out\n        /* \"#utility.yul\":6487:7244   */\n    tag_181:\n        /* \"#utility.yul\":6591:6597   */\n      0x00\n        /* \"#utility.yul\":6599:6605   */\n      dup1\n        /* \"#utility.yul\":6607:6613   */\n      0x00\n        /* \"#utility.yul\":6615:6621   */\n      dup1\n        /* \"#utility.yul\":6668:6670   */\n      0x60\n        /* \"#utility.yul\":6656:6665   */\n      dup6\n        /* \"#utility.yul\":6647:6654   */\n      dup8\n        /* \"#utility.yul\":6643:6666   */\n      sub\n        /* \"#utility.yul\":6639:6671   */\n      slt\n        /* \"#utility.yul\":6636:6688   */\n      iszero\n      tag_504\n      jumpi\n        /* \"#utility.yul\":6684:6685   */\n      0x00\n        /* \"#utility.yul\":6681:6682   */\n      dup1\n        /* \"#utility.yul\":6674:6686   */\n      revert\n        /* \"#utility.yul\":6636:6688   */\n    tag_504:\n        /* \"#utility.yul\":6724:6733   */\n      dup5\n        /* \"#utility.yul\":6711:6734   */\n      calldataload\n        /* \"#utility.yul\":6753:6771   */\n      0xffffffffffffffff\n        /* \"#utility.yul\":6794:6796   */\n      dup1\n        /* \"#utility.yul\":6786:6792   */\n      dup3\n        /* \"#utility.yul\":6783:6797   */\n      gt\n        /* \"#utility.yul\":6780:6814   */\n      iszero\n      tag_505\n      jumpi\n        /* \"#utility.yul\":6810:6811   */\n      0x00\n        /* \"#utility.yul\":6807:6808   */\n      dup1\n        /* \"#utility.yul\":6800:6812   */\n      revert\n        /* \"#utility.yul\":6780:6814   */\n    tag_505:\n        /* \"#utility.yul\":6848:6854   */\n      dup2\n        /* \"#utility.yul\":6837:6846   */\n      dup8\n        /* \"#utility.yul\":6833:6855   */\n      add\n        /* \"#utility.yul\":6823:6855   */\n      swap2\n      pop\n        /* \"#utility.yul\":6893:6900   */\n      dup8\n        /* \"#utility.yul\":6886:6890   */\n      0x1f\n        /* \"#utility.yul\":6882:6884   */\n      dup4\n        /* \"#utility.yul\":6878:6891   */\n      add\n        /* \"#utility.yul\":6874:6901   */\n      slt\n        /* \"#utility.yul\":6864:6919   */\n      tag_506\n      jumpi\n        /* \"#utility.yul\":6915:6916   */\n      0x00\n        /* \"#utility.yul\":6912:6913   */\n      dup1\n        /* \"#utility.yul\":6905:6917   */\n      revert\n        /* \"#utility.yul\":6864:6919   */\n    tag_506:\n        /* \"#utility.yul\":6955:6957   */\n      dup2\n        /* \"#utility.yul\":6942:6958   */\n      calldataload\n        /* \"#utility.yul\":6981:6983   */\n      dup2\n        /* \"#utility.yul\":6973:6979   */\n      dup2\n        /* \"#utility.yul\":6970:6984   */\n      gt\n        /* \"#utility.yul\":6967:7001   */\n      iszero\n      tag_507\n      jumpi\n        /* \"#utility.yul\":6997:6998   */\n      0x00\n        /* \"#utility.yul\":6994:6995   */\n      dup1\n        /* \"#utility.yul\":6987:6999   */\n      revert\n        /* \"#utility.yul\":6967:7001   */\n    tag_507:\n        /* \"#utility.yul\":7052:7059   */\n      dup9\n        /* \"#utility.yul\":7045:7049   */\n      0x20\n        /* \"#utility.yul\":7035:7041   */\n      dup3\n        /* \"#utility.yul\":7032:7033   */\n      0x05\n        /* \"#utility.yul\":7028:7042   */\n      shl\n        /* \"#utility.yul\":7024:7026   */\n      dup6\n        /* \"#utility.yul\":7020:7043   */\n      add\n        /* \"#utility.yul\":7016:7050   */\n      add\n        /* \"#utility.yul\":7013:7060   */\n      gt\n        /* \"#utility.yul\":7010:7077   */\n      iszero\n      tag_508\n      jumpi\n        /* \"#utility.yul\":7073:7074   */\n      0x00\n        /* \"#utility.yul\":7070:7071   */\n      dup1\n        /* \"#utility.yul\":7063:7075   */\n      revert\n        /* \"#utility.yul\":7010:7077   */\n    tag_508:\n        /* \"#utility.yul\":7104:7108   */\n      0x20\n        /* \"#utility.yul\":7096:7109   */\n      swap3\n      dup4\n      add\n      swap10\n        /* \"#utility.yul\":7128:7134   */\n      swap1\n      swap9\n      pop\n        /* \"#utility.yul\":7166:7186   */\n      swap2\n      dup8\n      add\n        /* \"#utility.yul\":7153:7187   */\n      calldataload\n      swap7\n        /* \"#utility.yul\":7234:7236   */\n      0x40\n        /* \"#utility.yul\":7219:7237   */\n      add\n        /* \"#utility.yul\":7206:7238   */\n      calldataload\n      swap6\n      pop\n        /* \"#utility.yul\":6487:7244   */\n      swap1\n      swap4\n      pop\n      pop\n      pop\n      pop\n      jump\t// out\n        /* \"#utility.yul\":7249:7605   */\n    tag_203:\n        /* \"#utility.yul\":7451:7453   */\n      0x20\n        /* \"#utility.yul\":7433:7454   */\n      dup1\n      dup3\n      mstore\n        /* \"#utility.yul\":7470:7488   */\n      dup2\n      dup2\n      add\n        /* \"#utility.yul\":7463:7493   */\n      mstore\n        /* \"#utility.yul\":7529:7563   */\n      0x4f776e61626c653a2063616c6c6572206973206e6f7420746865206f776e6572\n        /* \"#utility.yul\":7524:7526   */\n      0x40\n        /* \"#utility.yul\":7509:7527   */\n      dup3\n      add\n        /* \"#utility.yul\":7502:7564   */\n      mstore\n        /* \"#utility.yul\":7596:7598   */\n      0x60\n        /* \"#utility.yul\":7581:7599   */\n      add\n      swap1\n        /* \"#utility.yul\":7249:7605   */\n      jump\t// out\n        /* \"#utility.yul\":7948:8132   */\n    tag_216:\n        /* \"#utility.yul\":8018:8024   */\n      0x00\n        /* \"#utility.yul\":8071:8073   */\n      0x20\n        /* \"#utility.yul\":8059:8068   */\n      dup3\n        /* \"#utility.yul\":8050:8057   */\n      dup5\n        /* \"#utility.yul\":8046:8069   */\n      sub\n        /* \"#utility.yul\":8042:8074   */\n      slt\n        /* \"#utility.yul\":8039:8091   */\n      iszero\n      tag_512\n      jumpi\n        /* \"#utility.yul\":8087:8088   */\n      0x00\n        /* \"#utility.yul\":8084:8085   */\n      dup1\n        /* \"#utility.yul\":8077:8089   */\n      revert\n        /* \"#utility.yul\":8039:8091   */\n    tag_512:\n      pop\n        /* \"#utility.yul\":8110:8126   */\n      mload\n      swap2\n        /* \"#utility.yul\":7948:8132   */\n      swap1\n      pop\n      jump\t// out\n        /* \"#utility.yul\":9887:10132   */\n    tag_275:\n        /* \"#utility.yul\":9954:9960   */\n      0x00\n        /* \"#utility.yul\":10007:10009   */\n      0x20\n        /* \"#utility.yul\":9995:10004   */\n      dup3\n        /* \"#utility.yul\":9986:9993   */\n      dup5\n        /* \"#utility.yul\":9982:10005   */\n      sub\n        /* \"#utility.yul\":9978:10010   */\n      slt\n        /* \"#utility.yul\":9975:10027   */\n      iszero\n      tag_520\n      jumpi\n        /* \"#utility.yul\":10023:10024   */\n      0x00\n        /* \"#utility.yul\":10020:10021   */\n      dup1\n        /* \"#utility.yul\":10013:10025   */\n      revert\n        /* \"#utility.yul\":9975:10027   */\n    tag_520:\n        /* \"#utility.yul\":10055:10064   */\n      dup2\n        /* \"#utility.yul\":10049:10065   */\n      mload\n        /* \"#utility.yul\":10074:10102   */\n      tag_448\n        /* \"#utility.yul\":10096:10101   */\n      dup2\n        /* \"#utility.yul\":10074:10102   */\n      tag_437\n      jump\t// in\n        /* \"#utility.yul\":11345:11596   */\n    tag_307:\n        /* \"#utility.yul\":11415:11421   */\n      0x00\n        /* \"#utility.yul\":11468:11470   */\n      0x20\n        /* \"#utility.yul\":11456:11465   */\n      dup3\n        /* \"#utility.yul\":11447:11454   */\n      dup5\n        /* \"#utility.yul\":11443:11466   */\n      sub\n        /* \"#utility.yul\":11439:11471   */\n      slt\n        /* \"#utility.yul\":11436:11488   */\n      iszero\n      tag_526\n      jumpi\n        /* \"#utility.yul\":11484:11485   */\n      0x00\n        /* \"#utility.yul\":11481:11482   */\n      dup1\n        /* \"#utility.yul\":11474:11486   */\n      revert\n        /* \"#utility.yul\":11436:11488   */\n    tag_526:\n        /* \"#utility.yul\":11516:11525   */\n      dup2\n        /* \"#utility.yul\":11510:11526   */\n      mload\n        /* \"#utility.yul\":11535:11566   */\n      tag_448\n        /* \"#utility.yul\":11560:11565   */\n      dup2\n        /* \"#utility.yul\":11535:11566   */\n      tag_438\n      jump\t// in\n        /* \"#utility.yul\":16342:16469   */\n    tag_441:\n        /* \"#utility.yul\":16403:16413   */\n      0x4e487b71\n        /* \"#utility.yul\":16398:16401   */\n      0xe0\n        /* \"#utility.yul\":16394:16414   */\n      shl\n        /* \"#utility.yul\":16391:16392   */\n      0x00\n        /* \"#utility.yul\":16384:16415   */\n      mstore\n        /* \"#utility.yul\":16434:16438   */\n      0x11\n        /* \"#utility.yul\":16431:16432   */\n      0x04\n        /* \"#utility.yul\":16424:16439   */\n      mstore\n        /* \"#utility.yul\":16458:16462   */\n      0x24\n        /* \"#utility.yul\":16455:16456   */\n      0x00\n        /* \"#utility.yul\":16448:16463   */\n      revert\n        /* \"#utility.yul\":16474:16602   */\n    tag_380:\n        /* \"#utility.yul\":16514:16517   */\n      0x00\n        /* \"#utility.yul\":16545:16546   */\n      dup3\n        /* \"#utility.yul\":16541:16547   */\n      not\n        /* \"#utility.yul\":16538:16539   */\n      dup3\n        /* \"#utility.yul\":16535:16548   */\n      gt\n        /* \"#utility.yul\":16532:16571   */\n      iszero\n      tag_544\n      jumpi\n        /* \"#utility.yul\":16551:16569   */\n      tag_544\n      tag_441\n      jump\t// in\n    tag_544:\n      pop\n        /* \"#utility.yul\":16587:16596   */\n      add\n      swap1\n        /* \"#utility.yul\":16474:16602   */\n      jump\t// out\n        /* \"#utility.yul\":18102:18229   */\n    tag_428:\n        /* \"#utility.yul\":18163:18173   */\n      0x4e487b71\n        /* \"#utility.yul\":18158:18161   */\n      0xe0\n        /* \"#utility.yul\":18154:18174   */\n      shl\n        /* \"#utility.yul\":18151:18152   */\n      0x00\n        /* \"#utility.yul\":18144:18175   */\n      mstore\n        /* \"#utility.yul\":18194:18198   */\n      0x32\n        /* \"#utility.yul\":18191:18192   */\n      0x04\n        /* \"#utility.yul\":18184:18199   */\n      mstore\n        /* \"#utility.yul\":18218:18222   */\n      0x24\n        /* \"#utility.yul\":18215:18216   */\n      0x00\n        /* \"#utility.yul\":18208:18223   */\n      revert\n        /* \"#utility.yul\":18234:18369   */\n    tag_435:\n        /* \"#utility.yul\":18273:18276   */\n      0x00\n        /* \"#utility.yul\":18294:18311   */\n      0x01\n      dup3\n      add\n        /* \"#utility.yul\":18291:18334   */\n      tag_552\n      jumpi\n        /* \"#utility.yul\":18314:18332   */\n      tag_552\n      tag_441\n      jump\t// in\n    tag_552:\n      pop\n        /* \"#utility.yul\":18361:18362   */\n      0x01\n        /* \"#utility.yul\":18350:18363   */\n      add\n      swap1\n        /* \"#utility.yul\":18234:18369   */\n      jump\t// out\n\n    auxdata: 0xa2646970667358221220c97459e70061737be72dec8b73080165ef30af9ced7eb5e0fc84b3c36a75466f64736f6c634300080f0033\n}\n",
				"bytecode": {
					"linkReferences": {},
					"object": "60806040526005805461ffff191690553480156200001c57600080fd5b5060405162002193380380620021938339810160408190526200003f91620002d7565b6200004a3362000078565b600180556200005983620000c8565b62000064816200017b565b6200006f826200020c565b5050506200031f565b600080546001600160a01b038381166001600160a01b0319831681178455604051919092169283917f8be0079c531659141344cd1fd0a4f28419497f9722a3daafe3b4186f6b6457e09190a35050565b6000546001600160a01b03163314620001175760405162461bcd60e51b815260206004820181905260248201526000805160206200217383398151915260448201526064015b60405180910390fd5b600280546001600160a01b038381166001600160a01b0319831681179093556040805191909216808252602082019390935283917fabdf056c85a221fcb31d0366c4475b6b2c613df2eeea951a9fcb3e1a8595d973910160405180910390a1505050565b6000546001600160a01b03163314620001c65760405162461bcd60e51b815260206004820181905260248201526000805160206200217383398151915260448201526064016200010e565b600480549082905560408051828152602081018490527f123d88ba82600dfc3f219f8885c691b0ff020caa535666874b3f5174973757fe91015b60405180910390a15050565b6000546001600160a01b03163314620002575760405162461bcd60e51b815260206004820181905260248201526000805160206200217383398151915260448201526064016200010e565b600580546001600160a01b038381166201000081810262010000600160b01b031985161790945560408051949093049091168084526020840191909152917feeb293e1f8f3a9db91ade748726387ed1352ca78f5430c5f06fe3d1e1ad50579910162000200565b6001600160a01b0381168114620002d457600080fd5b50565b600080600060608486031215620002ed57600080fd5b8351620002fa81620002be565b60208501519093506200030d81620002be565b80925050604084015190509250925092565b611e44806200032f6000396000f3fe6080604052600436106101ee5760003560e01c80639e6c88551161010d578063e02023a1116100a0578063f500cdfc1161006f578063f500cdfc146105e2578063f6b48e5514610616578063fa54080114610629578063ff05fe4a14610649578063ffdc61291461066957600080fd5b8063e02023a11461053f578063ef5fe79f14610573578063f055c7a914610589578063f2fde38b146105c257600080fd5b8063bff863ec116100dc578063bff863ec146104d7578063c4e41b22146104f7578063de6892c81461050c578063df4e58811461051f57600080fd5b80639e6c88551461041c578063a4435dfd1461043c578063a7bb580314610456578063b5abafa11461049457600080fd5b806351cff8d9116101855780638407ecc4116101545780638407ecc41461039f5780638907f3fa146103bf5780638da5cb5b146103de57806397aba7f9146103fc57600080fd5b806351cff8d91461032a5780636c19e7831461034a578063715018a61461036a5780637cb647591461037f57600080fd5b806324c37a85116101c157806324c37a851461029b5780632eb4a7ab146102cf57806342920a46146102e55780634c0f38c21461031557600080fd5b80630a25dea9146101f35780630e2d56cf1461021b5780631f5ac1b21461023d578063238ac9331461025d575b600080fd5b3480156101ff57600080fd5b50610208600081565b6040519081526020015b60405180910390f35b34801561022757600080fd5b5061023b610236366004611997565b6106af565b005b34801561024957600080fd5b506102086102583660046119d0565b6106e5565b34801561026957600080fd5b50600554610283906201000090046001600160a01b031681565b6040516001600160a01b039091168152602001610212565b3480156102a757600080fd5b506102087fb3c595e55271590809f54e2f4fc3a582754f45b104dd3c41666e2ad310493db381565b3480156102db57600080fd5b5061020860045481565b3480156102f157600080fd5b50610305610300366004611a90565b61072f565b6040519015158152602001610212565b34801561032157600080fd5b50610208610772565b34801561033657600080fd5b5061023b6103453660046119d0565b6107e5565b34801561035657600080fd5b5061023b6103653660046119d0565b610906565b34801561037657600080fd5b5061023b61099e565b34801561038b57600080fd5b5061023b61039a366004611af2565b6109d4565b3480156103ab57600080fd5b5061023b6103ba366004611b0b565b610a3c565b3480156103cb57600080fd5b5060055461030590610100900460ff1681565b3480156103ea57600080fd5b506000546001600160a01b0316610283565b34801561040857600080fd5b50610283610417366004611b44565b610bdc565b34801561042857600080fd5b5061023b6104373660046119d0565b610c5b565b34801561044857600080fd5b506005546103059060ff1681565b34801561046257600080fd5b50610476610471366004611b8b565b610ce1565b60408051938452602084019290925260ff1690820152606001610212565b3480156104a057600080fd5b506102086104af366004611bc8565b6001600160a01b03919091166000908152600760209081526040808320938352929052205490565b3480156104e357600080fd5b5061023b6104f2366004611bf4565b610d55565b34801561050357600080fd5b50610208610f05565b61023b61051a366004611c35565b610f4f565b34801561052b57600080fd5b50600254610283906001600160a01b031681565b34801561054b57600080fd5b506102087f5d8e12c39142ff96d79d04d15d1ba1269e4fe57bb9d26f43523628b34ba108ec81565b34801561057f57600080fd5b5061020860035481565b34801561059557600080fd5b506103056105a43660046119d0565b6001600160a01b031660009081526008602052604090205460ff1690565b3480156105ce57600080fd5b5061023b6105dd3660046119d0565b6112d7565b3480156105ee57600080fd5b506102087f68e7d51fdb912cb107dda2e59b053d87fcca666dd0ef5339cd3474ccb5276bba81565b61023b610624366004611ca7565b61136f565b34801561063557600080fd5b50610208610644366004611af2565b61180c565b34801561065557600080fd5b5061023b610664366004611af2565b611847565b34801561067557600080fd5b50610305610684366004611bc8565b6001600160a01b03919091166000908152600660209081526040808320938352929052205460ff1690565b6000546001600160a01b031633146106e25760405162461bcd60e51b81526004016106d990611d29565b60405180910390fd5b50565b6040516bffffffffffffffffffffffff19606083811b8216602084015230901b1660348201526000906048015b604051602081830303815290604052805190602001209050919050565b60008061073b846106e5565b905060006107488261180c565b9050856001600160a01b031661075e8286610bdc565b6001600160a01b0316149695505050505050565b6002546040805163d5abeb0160e01b815290516000926001600160a01b03169163d5abeb019160048083019260209291908290030181865afa1580156107bc573d6000803e3d6000fd5b505050506040513d601f19601f820116820180604052508101906107e09190611d5e565b905090565b6000546001600160a01b0316331461080f5760405162461bcd60e51b81526004016106d990611d29565b47806108545760405162461bcd60e51b8152602060048201526014602482015273496e73756666696369656e742042616c616e636560601b60448201526064016106d9565b6000826001600160a01b03168260405160006040518083038185875af1925050503d80600081146108a1576040519150601f19603f3d011682016040523d82523d6000602084013e6108a6565b606091505b50509050806108b457600080fd5b604080516001600160a01b03851681526020810184905242918101919091527ff279e6a1f5e320cca91135676d9cb6e44ca8a08c0b88342bcdb1144f6511b568906060015b60405180910390a1505050565b6000546001600160a01b031633146109305760405162461bcd60e51b81526004016106d990611d29565b600580546001600160a01b038381166201000081810262010000600160b01b031985161790945560408051949093049091168084526020840191909152917feeb293e1f8f3a9db91ade748726387ed1352ca78f5430c5f06fe3d1e1ad5057991015b60405180910390a15050565b6000546001600160a01b031633146109c85760405162461bcd60e51b81526004016106d990611d29565b6109d260006118af565b565b6000546001600160a01b031633146109fe5760405162461bcd60e51b81526004016106d990611d29565b600480549082905560408051828152602081018490527f123d88ba82600dfc3f219f8885c691b0ff020caa535666874b3f5174973757fe9101610992565b6000546001600160a01b03163314610a665760405162461bcd60e51b81526004016106d990611d29565b6040516370a0823160e01b81523060048201526000906001600160a01b038316906370a0823190602401602060405180830381865afa158015610aad573d6000803e3d6000fd5b505050506040513d601f19601f82011682018060405250810190610ad19190611d5e565b905060008111610b1a5760405162461bcd60e51b8152602060048201526014602482015273496e73756666696369656e742042616c616e636560601b60448201526064016106d9565b60405163a9059cbb60e01b81526001600160a01b0384811660048301526024820183905283169063a9059cbb906044016020604051808303816000875af1158015610b69573d6000803e3d6000fd5b505050506040513d601f19601f82011682018060405250810190610b8d9190611d77565b50604080516001600160a01b038086168252841660208201529081018290524260608201527fb818a975f91276df8ba59329becbc23c793df0d503c19ac296c3c372a1fa0461906080016108f9565b600080600080610beb85610ce1565b6040805160008152602081018083528b905260ff8316918101919091526060810184905260808101839052929550909350915060019060a0016020604051602081039080840390855afa158015610c46573d6000803e3d6000fd5b5050604051601f190151979650505050505050565b6000546001600160a01b03163314610c855760405162461bcd60e51b81526004016106d990611d29565b600280546001600160a01b038381166001600160a01b0319831681179093556040805191909216808252602082019390935283917fabdf056c85a221fcb31d0366c4475b6b2c613df2eeea951a9fcb3e1a8595d97391016108f9565b60008060008351604114610d375760405162461bcd60e51b815260206004820152601860248201527f696e76616c6964207369676e6174757265206c656e677468000000000000000060448201526064016106d9565b50505060208101516040820151606090920151909260009190911a90565b6000546001600160a01b03163314610d7f5760405162461bcd60e51b81526004016106d990611d29565b6040516331a9108f60e11b81526004810182905230906001600160a01b03841690636352211e90602401602060405180830381865afa158015610dc6573d6000803e3d6000fd5b505050506040513d601f19601f82011682018060405250810190610dea9190611d94565b6001600160a01b031614610e4e5760405162461bcd60e51b815260206004820152602560248201527f5468697320746f6b656e4964206973206e6f74206f776e656420627920636f6e6044820152641d1c9858dd60da1b60648201526084016106d9565b604051632142170760e11b81523060048201526001600160a01b038481166024830152604482018390528316906342842e0e90606401600060405180830381600087803b158015610e9e57600080fd5b505af1158015610eb2573d6000803e3d6000fd5b5050604080516001600160a01b038088168252861660208201529081018490524260608201527f0127a8d3f57942833f6930572bce52ad882683e36eeb5830d199d3fa4bfa9467925060800190506108f9565b600254604080516318160ddd60e01b815290516000926001600160a01b0316916318160ddd9160048083019260209291908290030181865afa1580156107bc573d6000803e3d6000fd5b600260015403610fa15760405162461bcd60e51b815260206004820152601f60248201527f5265656e7472616e637947756172643a207265656e7472616e742063616c6c0060448201526064016106d9565b6002600190815560055460ff16151514610ffd5760405162461bcd60e51b815260206004820152601860248201527f5075626c6963206d696e74206973206e6f74206f70656e2e000000000000000060448201526064016106d9565b32331461104c5760405162461bcd60e51b815260206004820152601b60248201527f6861686120436f6e74726163742063616e27742063616c6c206d65000000000060448201526064016106d9565b3360009081526008602052604090205460ff1615156001036110aa5760405162461bcd60e51b81526020600482015260176024820152762cb7ba9030b9329030b63932b0b23c9036b4b73a32b21760491b60448201526064016106d9565b6002546040516355138f0d60e11b81523060048201526001600160a01b039091169063aa271e1a90602401602060405180830381865afa1580156110f2573d6000803e3d6000fd5b505050506040513d601f19601f820116820180604052508101906111169190611d77565b6111625760405162461bcd60e51b815260206004820152601e60248201527f436f6e7472616374204d696e74206973206e6f7420617070726f7665642e000060448201526064016106d9565b6111b8600560029054906101000a90046001600160a01b03163384848080601f01602080910402602001604051908101604052809392919081815260200183838082843760009201919091525061072f92505050565b61120f5760405162461bcd60e51b815260206004820152602260248201527f556e617574686f72697a6564205075626c69634d696e74205468697320557365604482015261391760f11b60648201526084016106d9565b3360008181526008602052604090819020805460ff191660019081179091556002549151632851206560e21b8152600481019390935260248301819052916001600160a01b039091169063a144819490604401600060405180830381600087803b15801561127c57600080fd5b505af1158015611290573d6000803e3d6000fd5b5050604080518481524260208201523393507fc1a73b31b32801ebbb4cae30b73eae4345be9f2915ea60306383c245ef8fac4492500160405180910390a250506001805550565b6000546001600160a01b031633146113015760405162461bcd60e51b81526004016106d990611d29565b6001600160a01b0381166113665760405162461bcd60e51b815260206004820152602660248201527f4f776e61626c653a206e6577206f776e657220697320746865207a65726f206160448201526564647265737360d01b60648201526084016106d9565b6106e2816118af565b6002600154036113c15760405162461bcd60e51b815260206004820152601f60248201527f5265656e7472616e637947756172643a207265656e7472616e742063616c6c0060448201526064016106d9565b60026001908155600554610100900460ff161515146114225760405162461bcd60e51b815260206004820152601960248201527f50726976617465206d696e74206973206e6f74206f70656e2e0000000000000060448201526064016106d9565b806114675760405162461bcd60e51b815260206004820152601560248201527426b4b73a1034b9903737ba1030b8383937bb32b21760591b60448201526064016106d9565b80600354146114c85760405162461bcd60e51b815260206004820152602760248201527f436f6e747261637420617265206e6f7420696e2074686973206d696e74696e67604482015266103937bab7321760c91b60648201526084016106d9565b6114d0610772565b826114d9610f05565b6114e39190611dc7565b1061151e5760405162461bcd60e51b815260206004820152600b60248201526a4f76657220737570706c7960a81b60448201526064016106d9565b33600090815260066020908152604080832084845290915290205460ff16156115835760405162461bcd60e51b81526020600482015260176024820152762cb7ba9030b9329030b63932b0b23c9036b4b73a32b21760491b60448201526064016106d9565b6002546040516355138f0d60e11b81523060048201526001600160a01b039091169063aa271e1a90602401602060405180830381865afa1580156115cb573d6000803e3d6000fd5b505050506040513d601f19601f820116820180604052508101906115ef9190611d77565b61163b5760405162461bcd60e51b815260206004820152601e60248201527f436f6e7472616374204d696e74206973206e6f7420617070726f7665642e000060448201526064016106d9565b6116be848480806020026020016040519081016040528093929190818152602001838360200280828437600092019190915250506004546040516bffffffffffffffffffffffff193360601b16602082015260348101889052605481018790529092506074019050604051602081830303815290604052805190602001206118ff565b6117185760405162461bcd60e51b815260206004820152602560248201527f556e617574686f72697a65642057686974656c6973744d696e742054686973206044820152642ab9b2b91760d91b60648201526084016106d9565b3360008181526006602090815260408083208584528252808320805460ff19166001179055928252600781528282208483529052908120805484929061175f908490611dc7565b9091555050600254604051632851206560e21b8152336004820152602481018490526001600160a01b039091169063a144819490604401600060405180830381600087803b1580156117b057600080fd5b505af11580156117c4573d6000803e3d6000fd5b5050604080518581524260208201523393507fe9e607753e80542a9021d5149990f18919907f0136fad424eaac3d15056ccf6e92500160405180910390a25050600180555050565b6040517f19457468657265756d205369676e6564204d6573736167653a0a3332000000006020820152603c8101829052600090605c01610712565b6000546001600160a01b031633146118715760405162461bcd60e51b81526004016106d990611d29565b600380549082905560408051828152602081018490527f521ec96875ca228cd2fc1dbd4c927a34328c9ce1a83bcb8c1f633f012c90d7859101610992565b600080546001600160a01b038381166001600160a01b0319831681178455604051919092169283917f8be0079c531659141344cd1fd0a4f28419497f9722a3daafe3b4186f6b6457e09190a35050565b60008261190c8584611915565b14949350505050565b600081815b845181101561198157600085828151811061193757611937611ddf565b6020026020010151905080831161195d576000838152602082905260409020925061196e565b600081815260208490526040902092505b508061197981611df5565b91505061191a565b509392505050565b80151581146106e257600080fd5b6000602082840312156119a957600080fd5b81356119b481611989565b9392505050565b6001600160a01b03811681146106e257600080fd5b6000602082840312156119e257600080fd5b81356119b4816119bb565b634e487b7160e01b600052604160045260246000fd5b600082601f830112611a1457600080fd5b813567ffffffffffffffff80821115611a2f57611a2f6119ed565b604051601f8301601f19908116603f01168101908282118183101715611a5757611a576119ed565b81604052838152866020858801011115611a7057600080fd5b836020870160208301376000602085830101528094505050505092915050565b600080600060608486031215611aa557600080fd5b8335611ab0816119bb565b92506020840135611ac0816119bb565b9150604084013567ffffffffffffffff811115611adc57600080fd5b611ae886828701611a03565b9150509250925092565b600060208284031215611b0457600080fd5b5035919050565b60008060408385031215611b1e57600080fd5b8235611b29816119bb565b91506020830135611b39816119bb565b809150509250929050565b60008060408385031215611b5757600080fd5b82359150602083013567ffffffffffffffff811115611b7557600080fd5b611b8185828601611a03565b9150509250929050565b600060208284031215611b9d57600080fd5b813567ffffffffffffffff811115611bb457600080fd5b611bc084828501611a03565b949350505050565b60008060408385031215611bdb57600080fd5b8235611be6816119bb565b946020939093013593505050565b600080600060608486031215611c0957600080fd5b8335611c14816119bb565b92506020840135611c24816119bb565b929592945050506040919091013590565b60008060208385031215611c4857600080fd5b823567ffffffffffffffff80821115611c6057600080fd5b818501915085601f830112611c7457600080fd5b813581811115611c8357600080fd5b866020828501011115611c9557600080fd5b60209290920196919550909350505050565b60008060008060608587031215611cbd57600080fd5b843567ffffffffffffffff80821115611cd557600080fd5b818701915087601f830112611ce957600080fd5b813581811115611cf857600080fd5b8860208260051b8501011115611d0d57600080fd5b6020928301999098509187013596604001359550909350505050565b6020808252818101527f4f776e61626c653a2063616c6c6572206973206e6f7420746865206f776e6572604082015260600190565b600060208284031215611d7057600080fd5b5051919050565b600060208284031215611d8957600080fd5b81516119b481611989565b600060208284031215611da657600080fd5b81516119b4816119bb565b634e487b7160e01b600052601160045260246000fd5b60008219821115611dda57611dda611db1565b500190565b634e487b7160e01b600052603260045260246000fd5b600060018201611e0757611e07611db1565b506001019056fea2646970667358221220c97459e70061737be72dec8b73080165ef30af9ced7eb5e0fc84b3c36a75466f64736f6c634300080f00334f776e61626c653a2063616c6c6572206973206e6f7420746865206f776e6572",
					"opcodes": "PUSH1 0x80 PUSH1 0x40 MSTORE PUSH1 0x5 DUP1 SLOAD PUSH2 0xFFFF NOT AND SWAP1 SSTORE CALLVALUE DUP1 ISZERO PUSH3 0x1C JUMPI PUSH1 0x0 DUP1 REVERT JUMPDEST POP PUSH1 0x40 MLOAD PUSH3 0x2193 CODESIZE SUB DUP1 PUSH3 0x2193 DUP4 CODECOPY DUP2 ADD PUSH1 0x40 DUP2 SWAP1 MSTORE PUSH3 0x3F SWAP2 PUSH3 0x2D7 JUMP JUMPDEST PUSH3 0x4A CALLER PUSH3 0x78 JUMP JUMPDEST PUSH1 0x1 DUP1 SSTORE PUSH3 0x59 DUP4 PUSH3 0xC8 JUMP JUMPDEST PUSH3 0x64 DUP2 PUSH3 0x17B JUMP JUMPDEST PUSH3 0x6F DUP3 PUSH3 0x20C JUMP JUMPDEST POP POP POP PUSH3 0x31F JUMP JUMPDEST PUSH1 0x0 DUP1 SLOAD PUSH1 0x1 PUSH1 0x1 PUSH1 0xA0 SHL SUB DUP4 DUP2 AND PUSH1 0x1 PUSH1 0x1 PUSH1 0xA0 SHL SUB NOT DUP4 AND DUP2 OR DUP5 SSTORE PUSH1 0x40 MLOAD SWAP2 SWAP1 SWAP3 AND SWAP3 DUP4 SWAP2 PUSH32 0x8BE0079C531659141344CD1FD0A4F28419497F9722A3DAAFE3B4186F6B6457E0 SWAP2 SWAP1 LOG3 POP POP JUMP JUMPDEST PUSH1 0x0 SLOAD PUSH1 0x1 PUSH1 0x1 PUSH1 0xA0 SHL SUB AND CALLER EQ PUSH3 0x117 JUMPI PUSH1 0x40 MLOAD PUSH3 0x461BCD PUSH1 0xE5 SHL DUP2 MSTORE PUSH1 0x20 PUSH1 0x4 DUP3 ADD DUP2 SWAP1 MSTORE PUSH1 0x24 DUP3 ADD MSTORE PUSH1 0x0 DUP1 MLOAD PUSH1 0x20 PUSH3 0x2173 DUP4 CODECOPY DUP2 MLOAD SWAP2 MSTORE PUSH1 0x44 DUP3 ADD MSTORE PUSH1 0x64 ADD JUMPDEST PUSH1 0x40 MLOAD DUP1 SWAP2 SUB SWAP1 REVERT JUMPDEST PUSH1 0x2 DUP1 SLOAD PUSH1 0x1 PUSH1 0x1 PUSH1 0xA0 SHL SUB DUP4 DUP2 AND PUSH1 0x1 PUSH1 0x1 PUSH1 0xA0 SHL SUB NOT DUP4 AND DUP2 OR SWAP1 SWAP4 SSTORE PUSH1 0x40 DUP1 MLOAD SWAP2 SWAP1 SWAP3 AND DUP1 DUP3 MSTORE PUSH1 0x20 DUP3 ADD SWAP4 SWAP1 SWAP4 MSTORE DUP4 SWAP2 PUSH32 0xABDF056C85A221FCB31D0366C4475B6B2C613DF2EEEA951A9FCB3E1A8595D973 SWAP2 ADD PUSH1 0x40 MLOAD DUP1 SWAP2 SUB SWAP1 LOG1 POP POP POP JUMP JUMPDEST PUSH1 0x0 SLOAD PUSH1 0x1 PUSH1 0x1 PUSH1 0xA0 SHL SUB AND CALLER EQ PUSH3 0x1C6 JUMPI PUSH1 0x40 MLOAD PUSH3 0x461BCD PUSH1 0xE5 SHL DUP2 MSTORE PUSH1 0x20 PUSH1 0x4 DUP3 ADD DUP2 SWAP1 MSTORE PUSH1 0x24 DUP3 ADD MSTORE PUSH1 0x0 DUP1 MLOAD PUSH1 0x20 PUSH3 0x2173 DUP4 CODECOPY DUP2 MLOAD SWAP2 MSTORE PUSH1 0x44 DUP3 ADD MSTORE PUSH1 0x64 ADD PUSH3 0x10E JUMP JUMPDEST PUSH1 0x4 DUP1 SLOAD SWAP1 DUP3 SWAP1 SSTORE PUSH1 0x40 DUP1 MLOAD DUP3 DUP2 MSTORE PUSH1 0x20 DUP2 ADD DUP5 SWAP1 MSTORE PUSH32 0x123D88BA82600DFC3F219F8885C691B0FF020CAA535666874B3F5174973757FE SWAP2 ADD JUMPDEST PUSH1 0x40 MLOAD DUP1 SWAP2 SUB SWAP1 LOG1 POP POP JUMP JUMPDEST PUSH1 0x0 SLOAD PUSH1 0x1 PUSH1 0x1 PUSH1 0xA0 SHL SUB AND CALLER EQ PUSH3 0x257 JUMPI PUSH1 0x40 MLOAD PUSH3 0x461BCD PUSH1 0xE5 SHL DUP2 MSTORE PUSH1 0x20 PUSH1 0x4 DUP3 ADD DUP2 SWAP1 MSTORE PUSH1 0x24 DUP3 ADD MSTORE PUSH1 0x0 DUP1 MLOAD PUSH1 0x20 PUSH3 0x2173 DUP4 CODECOPY DUP2 MLOAD SWAP2 MSTORE PUSH1 0x44 DUP3 ADD MSTORE PUSH1 0x64 ADD PUSH3 0x10E JUMP JUMPDEST PUSH1 0x5 DUP1 SLOAD PUSH1 0x1 PUSH1 0x1 PUSH1 0xA0 SHL SUB DUP4 DUP2 AND PUSH3 0x10000 DUP2 DUP2 MUL PUSH3 0x10000 PUSH1 0x1 PUSH1 0xB0 SHL SUB NOT DUP6 AND OR SWAP1 SWAP5 SSTORE PUSH1 0x40 DUP1 MLOAD SWAP5 SWAP1 SWAP4 DIV SWAP1 SWAP2 AND DUP1 DUP5 MSTORE PUSH1 0x20 DUP5 ADD SWAP2 SWAP1 SWAP2 MSTORE SWAP2 PUSH32 0xEEB293E1F8F3A9DB91ADE748726387ED1352CA78F5430C5F06FE3D1E1AD50579 SWAP2 ADD PUSH3 0x200 JUMP JUMPDEST PUSH1 0x1 PUSH1 0x1 PUSH1 0xA0 SHL SUB DUP2 AND DUP2 EQ PUSH3 0x2D4 JUMPI PUSH1 0x0 DUP1 REVERT JUMPDEST POP JUMP JUMPDEST PUSH1 0x0 DUP1 PUSH1 0x0 PUSH1 0x60 DUP5 DUP7 SUB SLT ISZERO PUSH3 0x2ED JUMPI PUSH1 0x0 DUP1 REVERT JUMPDEST DUP4 MLOAD PUSH3 0x2FA DUP2 PUSH3 0x2BE JUMP JUMPDEST PUSH1 0x20 DUP6 ADD MLOAD SWAP1 SWAP4 POP PUSH3 0x30D DUP2 PUSH3 0x2BE JUMP JUMPDEST DUP1 SWAP3 POP POP PUSH1 0x40 DUP5 ADD MLOAD SWAP1 POP SWAP3 POP SWAP3 POP SWAP3 JUMP JUMPDEST PUSH2 0x1E44 DUP1 PUSH3 0x32F PUSH1 0x0 CODECOPY PUSH1 0x0 RETURN INVALID PUSH1 0x80 PUSH1 0x40 MSTORE PUSH1 0x4 CALLDATASIZE LT PUSH2 0x1EE JUMPI PUSH1 0x0 CALLDATALOAD PUSH1 0xE0 SHR DUP1 PUSH4 0x9E6C8855 GT PUSH2 0x10D JUMPI DUP1 PUSH4 0xE02023A1 GT PUSH2 0xA0 JUMPI DUP1 PUSH4 0xF500CDFC GT PUSH2 0x6F JUMPI DUP1 PUSH4 0xF500CDFC EQ PUSH2 0x5E2 JUMPI DUP1 PUSH4 0xF6B48E55 EQ PUSH2 0x616 JUMPI DUP1 PUSH4 0xFA540801 EQ PUSH2 0x629 JUMPI DUP1 PUSH4 0xFF05FE4A EQ PUSH2 0x649 JUMPI DUP1 PUSH4 0xFFDC6129 EQ PUSH2 0x669 JUMPI PUSH1 0x0 DUP1 REVERT JUMPDEST DUP1 PUSH4 0xE02023A1 EQ PUSH2 0x53F JUMPI DUP1 PUSH4 0xEF5FE79F EQ PUSH2 0x573 JUMPI DUP1 PUSH4 0xF055C7A9 EQ PUSH2 0x589 JUMPI DUP1 PUSH4 0xF2FDE38B EQ PUSH2 0x5C2 JUMPI PUSH1 0x0 DUP1 REVERT JUMPDEST DUP1 PUSH4 0xBFF863EC GT PUSH2 0xDC JUMPI DUP1 PUSH4 0xBFF863EC EQ PUSH2 0x4D7 JUMPI DUP1 PUSH4 0xC4E41B22 EQ PUSH2 0x4F7 JUMPI DUP1 PUSH4 0xDE6892C8 EQ PUSH2 0x50C JUMPI DUP1 PUSH4 0xDF4E5881 EQ PUSH2 0x51F JUMPI PUSH1 0x0 DUP1 REVERT JUMPDEST DUP1 PUSH4 0x9E6C8855 EQ PUSH2 0x41C JUMPI DUP1 PUSH4 0xA4435DFD EQ PUSH2 0x43C JUMPI DUP1 PUSH4 0xA7BB5803 EQ PUSH2 0x456 JUMPI DUP1 PUSH4 0xB5ABAFA1 EQ PUSH2 0x494 JUMPI PUSH1 0x0 DUP1 REVERT JUMPDEST DUP1 PUSH4 0x51CFF8D9 GT PUSH2 0x185 JUMPI DUP1 PUSH4 0x8407ECC4 GT PUSH2 0x154 JUMPI DUP1 PUSH4 0x8407ECC4 EQ PUSH2 0x39F JUMPI DUP1 PUSH4 0x8907F3FA EQ PUSH2 0x3BF JUMPI DUP1 PUSH4 0x8DA5CB5B EQ PUSH2 0x3DE JUMPI DUP1 PUSH4 0x97ABA7F9 EQ PUSH2 0x3FC JUMPI PUSH1 0x0 DUP1 REVERT JUMPDEST DUP1 PUSH4 0x51CFF8D9 EQ PUSH2 0x32A JUMPI DUP1 PUSH4 0x6C19E783 EQ PUSH2 0x34A JUMPI DUP1 PUSH4 0x715018A6 EQ PUSH2 0x36A JUMPI DUP1 PUSH4 0x7CB64759 EQ PUSH2 0x37F JUMPI PUSH1 0x0 DUP1 REVERT JUMPDEST DUP1 PUSH4 0x24C37A85 GT PUSH2 0x1C1 JUMPI DUP1 PUSH4 0x24C37A85 EQ PUSH2 0x29B JUMPI DUP1 PUSH4 0x2EB4A7AB EQ PUSH2 0x2CF JUMPI DUP1 PUSH4 0x42920A46 EQ PUSH2 0x2E5 JUMPI DUP1 PUSH4 0x4C0F38C2 EQ PUSH2 0x315 JUMPI PUSH1 0x0 DUP1 REVERT JUMPDEST DUP1 PUSH4 0xA25DEA9 EQ PUSH2 0x1F3 JUMPI DUP1 PUSH4 0xE2D56CF EQ PUSH2 0x21B JUMPI DUP1 PUSH4 0x1F5AC1B2 EQ PUSH2 0x23D JUMPI DUP1 PUSH4 0x238AC933 EQ PUSH2 0x25D JUMPI JUMPDEST PUSH1 0x0 DUP1 REVERT JUMPDEST CALLVALUE DUP1 ISZERO PUSH2 0x1FF JUMPI PUSH1 0x0 DUP1 REVERT JUMPDEST POP PUSH2 0x208 PUSH1 0x0 DUP2 JUMP JUMPDEST PUSH1 0x40 MLOAD SWAP1 DUP2 MSTORE PUSH1 0x20 ADD JUMPDEST PUSH1 0x40 MLOAD DUP1 SWAP2 SUB SWAP1 RETURN JUMPDEST CALLVALUE DUP1 ISZERO PUSH2 0x227 JUMPI PUSH1 0x0 DUP1 REVERT JUMPDEST POP PUSH2 0x23B PUSH2 0x236 CALLDATASIZE PUSH1 0x4 PUSH2 0x1997 JUMP JUMPDEST PUSH2 0x6AF JUMP JUMPDEST STOP JUMPDEST CALLVALUE DUP1 ISZERO PUSH2 0x249 JUMPI PUSH1 0x0 DUP1 REVERT JUMPDEST POP PUSH2 0x208 PUSH2 0x258 CALLDATASIZE PUSH1 0x4 PUSH2 0x19D0 JUMP JUMPDEST PUSH2 0x6E5 JUMP JUMPDEST CALLVALUE DUP1 ISZERO PUSH2 0x269 JUMPI PUSH1 0x0 DUP1 REVERT JUMPDEST POP PUSH1 0x5 SLOAD PUSH2 0x283 SWAP1 PUSH3 0x10000 SWAP1 DIV PUSH1 0x1 PUSH1 0x1 PUSH1 0xA0 SHL SUB AND DUP2 JUMP JUMPDEST PUSH1 0x40 MLOAD PUSH1 0x1 PUSH1 0x1 PUSH1 0xA0 SHL SUB SWAP1 SWAP2 AND DUP2 MSTORE PUSH1 0x20 ADD PUSH2 0x212 JUMP JUMPDEST CALLVALUE DUP1 ISZERO PUSH2 0x2A7 JUMPI PUSH1 0x0 DUP1 REVERT JUMPDEST POP PUSH2 0x208 PUSH32 0xB3C595E55271590809F54E2F4FC3A582754F45B104DD3C41666E2AD310493DB3 DUP2 JUMP JUMPDEST CALLVALUE DUP1 ISZERO PUSH2 0x2DB JUMPI PUSH1 0x0 DUP1 REVERT JUMPDEST POP PUSH2 0x208 PUSH1 0x4 SLOAD DUP2 JUMP JUMPDEST CALLVALUE DUP1 ISZERO PUSH2 0x2F1 JUMPI PUSH1 0x0 DUP1 REVERT JUMPDEST POP PUSH2 0x305 PUSH2 0x300 CALLDATASIZE PUSH1 0x4 PUSH2 0x1A90 JUMP JUMPDEST PUSH2 0x72F JUMP JUMPDEST PUSH1 0x40 MLOAD SWAP1 ISZERO ISZERO DUP2 MSTORE PUSH1 0x20 ADD PUSH2 0x212 JUMP JUMPDEST CALLVALUE DUP1 ISZERO PUSH2 0x321 JUMPI PUSH1 0x0 DUP1 REVERT JUMPDEST POP PUSH2 0x208 PUSH2 0x772 JUMP JUMPDEST CALLVALUE DUP1 ISZERO PUSH2 0x336 JUMPI PUSH1 0x0 DUP1 REVERT JUMPDEST POP PUSH2 0x23B PUSH2 0x345 CALLDATASIZE PUSH1 0x4 PUSH2 0x19D0 JUMP JUMPDEST PUSH2 0x7E5 JUMP JUMPDEST CALLVALUE DUP1 ISZERO PUSH2 0x356 JUMPI PUSH1 0x0 DUP1 REVERT JUMPDEST POP PUSH2 0x23B PUSH2 0x365 CALLDATASIZE PUSH1 0x4 PUSH2 0x19D0 JUMP JUMPDEST PUSH2 0x906 JUMP JUMPDEST CALLVALUE DUP1 ISZERO PUSH2 0x376 JUMPI PUSH1 0x0 DUP1 REVERT JUMPDEST POP PUSH2 0x23B PUSH2 0x99E JUMP JUMPDEST CALLVALUE DUP1 ISZERO PUSH2 0x38B JUMPI PUSH1 0x0 DUP1 REVERT JUMPDEST POP PUSH2 0x23B PUSH2 0x39A CALLDATASIZE PUSH1 0x4 PUSH2 0x1AF2 JUMP JUMPDEST PUSH2 0x9D4 JUMP JUMPDEST CALLVALUE DUP1 ISZERO PUSH2 0x3AB JUMPI PUSH1 0x0 DUP1 REVERT JUMPDEST POP PUSH2 0x23B PUSH2 0x3BA CALLDATASIZE PUSH1 0x4 PUSH2 0x1B0B JUMP JUMPDEST PUSH2 0xA3C JUMP JUMPDEST CALLVALUE DUP1 ISZERO PUSH2 0x3CB JUMPI PUSH1 0x0 DUP1 REVERT JUMPDEST POP PUSH1 0x5 SLOAD PUSH2 0x305 SWAP1 PUSH2 0x100 SWAP1 DIV PUSH1 0xFF AND DUP2 JUMP JUMPDEST CALLVALUE DUP1 ISZERO PUSH2 0x3EA JUMPI PUSH1 0x0 DUP1 REVERT JUMPDEST POP PUSH1 0x0 SLOAD PUSH1 0x1 PUSH1 0x1 PUSH1 0xA0 SHL SUB AND PUSH2 0x283 JUMP JUMPDEST CALLVALUE DUP1 ISZERO PUSH2 0x408 JUMPI PUSH1 0x0 DUP1 REVERT JUMPDEST POP PUSH2 0x283 PUSH2 0x417 CALLDATASIZE PUSH1 0x4 PUSH2 0x1B44 JUMP JUMPDEST PUSH2 0xBDC JUMP JUMPDEST CALLVALUE DUP1 ISZERO PUSH2 0x428 JUMPI PUSH1 0x0 DUP1 REVERT JUMPDEST POP PUSH2 0x23B PUSH2 0x437 CALLDATASIZE PUSH1 0x4 PUSH2 0x19D0 JUMP JUMPDEST PUSH2 0xC5B JUMP JUMPDEST CALLVALUE DUP1 ISZERO PUSH2 0x448 JUMPI PUSH1 0x0 DUP1 REVERT JUMPDEST POP PUSH1 0x5 SLOAD PUSH2 0x305 SWAP1 PUSH1 0xFF AND DUP2 JUMP JUMPDEST CALLVALUE DUP1 ISZERO PUSH2 0x462 JUMPI PUSH1 0x0 DUP1 REVERT JUMPDEST POP PUSH2 0x476 PUSH2 0x471 CALLDATASIZE PUSH1 0x4 PUSH2 0x1B8B JUMP JUMPDEST PUSH2 0xCE1 JUMP JUMPDEST PUSH1 0x40 DUP1 MLOAD SWAP4 DUP5 MSTORE PUSH1 0x20 DUP5 ADD SWAP3 SWAP1 SWAP3 MSTORE PUSH1 0xFF AND SWAP1 DUP3 ADD MSTORE PUSH1 0x60 ADD PUSH2 0x212 JUMP JUMPDEST CALLVALUE DUP1 ISZERO PUSH2 0x4A0 JUMPI PUSH1 0x0 DUP1 REVERT JUMPDEST POP PUSH2 0x208 PUSH2 0x4AF CALLDATASIZE PUSH1 0x4 PUSH2 0x1BC8 JUMP JUMPDEST PUSH1 0x1 PUSH1 0x1 PUSH1 0xA0 SHL SUB SWAP2 SWAP1 SWAP2 AND PUSH1 0x0 SWAP1 DUP2 MSTORE PUSH1 0x7 PUSH1 0x20 SWAP1 DUP2 MSTORE PUSH1 0x40 DUP1 DUP4 KECCAK256 SWAP4 DUP4 MSTORE SWAP3 SWAP1 MSTORE KECCAK256 SLOAD SWAP1 JUMP JUMPDEST CALLVALUE DUP1 ISZERO PUSH2 0x4E3 JUMPI PUSH1 0x0 DUP1 REVERT JUMPDEST POP PUSH2 0x23B PUSH2 0x4F2 CALLDATASIZE PUSH1 0x4 PUSH2 0x1BF4 JUMP JUMPDEST PUSH2 0xD55 JUMP JUMPDEST CALLVALUE DUP1 ISZERO PUSH2 0x503 JUMPI PUSH1 0x0 DUP1 REVERT JUMPDEST POP PUSH2 0x208 PUSH2 0xF05 JUMP JUMPDEST PUSH2 0x23B PUSH2 0x51A CALLDATASIZE PUSH1 0x4 PUSH2 0x1C35 JUMP JUMPDEST PUSH2 0xF4F JUMP JUMPDEST CALLVALUE DUP1 ISZERO PUSH2 0x52B JUMPI PUSH1 0x0 DUP1 REVERT JUMPDEST POP PUSH1 0x2 SLOAD PUSH2 0x283 SWAP1 PUSH1 0x1 PUSH1 0x1 PUSH1 0xA0 SHL SUB AND DUP2 JUMP JUMPDEST CALLVALUE DUP1 ISZERO PUSH2 0x54B JUMPI PUSH1 0x0 DUP1 REVERT JUMPDEST POP PUSH2 0x208 PUSH32 0x5D8E12C39142FF96D79D04D15D1BA1269E4FE57BB9D26F43523628B34BA108EC DUP2 JUMP JUMPDEST CALLVALUE DUP1 ISZERO PUSH2 0x57F JUMPI PUSH1 0x0 DUP1 REVERT JUMPDEST POP PUSH2 0x208 PUSH1 0x3 SLOAD DUP2 JUMP JUMPDEST CALLVALUE DUP1 ISZERO PUSH2 0x595 JUMPI PUSH1 0x0 DUP1 REVERT JUMPDEST POP PUSH2 0x305 PUSH2 0x5A4 CALLDATASIZE PUSH1 0x4 PUSH2 0x19D0 JUMP JUMPDEST PUSH1 0x1 PUSH1 0x1 PUSH1 0xA0 SHL SUB AND PUSH1 0x0 SWAP1 DUP2 MSTORE PUSH1 0x8 PUSH1 0x20 MSTORE PUSH1 0x40 SWAP1 KECCAK256 SLOAD PUSH1 0xFF AND SWAP1 JUMP JUMPDEST CALLVALUE DUP1 ISZERO PUSH2 0x5CE JUMPI PUSH1 0x0 DUP1 REVERT JUMPDEST POP PUSH2 0x23B PUSH2 0x5DD CALLDATASIZE PUSH1 0x4 PUSH2 0x19D0 JUMP JUMPDEST PUSH2 0x12D7 JUMP JUMPDEST CALLVALUE DUP1 ISZERO PUSH2 0x5EE JUMPI PUSH1 0x0 DUP1 REVERT JUMPDEST POP PUSH2 0x208 PUSH32 0x68E7D51FDB912CB107DDA2E59B053D87FCCA666DD0EF5339CD3474CCB5276BBA DUP2 JUMP JUMPDEST PUSH2 0x23B PUSH2 0x624 CALLDATASIZE PUSH1 0x4 PUSH2 0x1CA7 JUMP JUMPDEST PUSH2 0x136F JUMP JUMPDEST CALLVALUE DUP1 ISZERO PUSH2 0x635 JUMPI PUSH1 0x0 DUP1 REVERT JUMPDEST POP PUSH2 0x208 PUSH2 0x644 CALLDATASIZE PUSH1 0x4 PUSH2 0x1AF2 JUMP JUMPDEST PUSH2 0x180C JUMP JUMPDEST CALLVALUE DUP1 ISZERO PUSH2 0x655 JUMPI PUSH1 0x0 DUP1 REVERT JUMPDEST POP PUSH2 0x23B PUSH2 0x664 CALLDATASIZE PUSH1 0x4 PUSH2 0x1AF2 JUMP JUMPDEST PUSH2 0x1847 JUMP JUMPDEST CALLVALUE DUP1 ISZERO PUSH2 0x675 JUMPI PUSH1 0x0 DUP1 REVERT JUMPDEST POP PUSH2 0x305 PUSH2 0x684 CALLDATASIZE PUSH1 0x4 PUSH2 0x1BC8 JUMP JUMPDEST PUSH1 0x1 PUSH1 0x1 PUSH1 0xA0 SHL SUB SWAP2 SWAP1 SWAP2 AND PUSH1 0x0 SWAP1 DUP2 MSTORE PUSH1 0x6 PUSH1 0x20 SWAP1 DUP2 MSTORE PUSH1 0x40 DUP1 DUP4 KECCAK256 SWAP4 DUP4 MSTORE SWAP3 SWAP1 MSTORE KECCAK256 SLOAD PUSH1 0xFF AND SWAP1 JUMP JUMPDEST PUSH1 0x0 SLOAD PUSH1 0x1 PUSH1 0x1 PUSH1 0xA0 SHL SUB AND CALLER EQ PUSH2 0x6E2 JUMPI PUSH1 0x40 MLOAD PUSH3 0x461BCD PUSH1 0xE5 SHL DUP2 MSTORE PUSH1 0x4 ADD PUSH2 0x6D9 SWAP1 PUSH2 0x1D29 JUMP JUMPDEST PUSH1 0x40 MLOAD DUP1 SWAP2 SUB SWAP1 REVERT JUMPDEST POP JUMP JUMPDEST PUSH1 0x40 MLOAD PUSH12 0xFFFFFFFFFFFFFFFFFFFFFFFF NOT PUSH1 0x60 DUP4 DUP2 SHL DUP3 AND PUSH1 0x20 DUP5 ADD MSTORE ADDRESS SWAP1 SHL AND PUSH1 0x34 DUP3 ADD MSTORE PUSH1 0x0 SWAP1 PUSH1 0x48 ADD JUMPDEST PUSH1 0x40 MLOAD PUSH1 0x20 DUP2 DUP4 SUB SUB DUP2 MSTORE SWAP1 PUSH1 0x40 MSTORE DUP1 MLOAD SWAP1 PUSH1 0x20 ADD KECCAK256 SWAP1 POP SWAP2 SWAP1 POP JUMP JUMPDEST PUSH1 0x0 DUP1 PUSH2 0x73B DUP5 PUSH2 0x6E5 JUMP JUMPDEST SWAP1 POP PUSH1 0x0 PUSH2 0x748 DUP3 PUSH2 0x180C JUMP JUMPDEST SWAP1 POP DUP6 PUSH1 0x1 PUSH1 0x1 PUSH1 0xA0 SHL SUB AND PUSH2 0x75E DUP3 DUP7 PUSH2 0xBDC JUMP JUMPDEST PUSH1 0x1 PUSH1 0x1 PUSH1 0xA0 SHL SUB AND EQ SWAP7 SWAP6 POP POP POP POP POP POP JUMP JUMPDEST PUSH1 0x2 SLOAD PUSH1 0x40 DUP1 MLOAD PUSH4 0xD5ABEB01 PUSH1 0xE0 SHL DUP2 MSTORE SWAP1 MLOAD PUSH1 0x0 SWAP3 PUSH1 0x1 PUSH1 0x1 PUSH1 0xA0 SHL SUB AND SWAP2 PUSH4 0xD5ABEB01 SWAP2 PUSH1 0x4 DUP1 DUP4 ADD SWAP3 PUSH1 0x20 SWAP3 SWAP2 SWAP1 DUP3 SWAP1 SUB ADD DUP2 DUP7 GAS STATICCALL ISZERO DUP1 ISZERO PUSH2 0x7BC JUMPI RETURNDATASIZE PUSH1 0x0 DUP1 RETURNDATACOPY RETURNDATASIZE PUSH1 0x0 REVERT JUMPDEST POP POP POP POP PUSH1 0x40 MLOAD RETURNDATASIZE PUSH1 0x1F NOT PUSH1 0x1F DUP3 ADD AND DUP3 ADD DUP1 PUSH1 0x40 MSTORE POP DUP2 ADD SWAP1 PUSH2 0x7E0 SWAP2 SWAP1 PUSH2 0x1D5E JUMP JUMPDEST SWAP1 POP SWAP1 JUMP JUMPDEST PUSH1 0x0 SLOAD PUSH1 0x1 PUSH1 0x1 PUSH1 0xA0 SHL SUB AND CALLER EQ PUSH2 0x80F JUMPI PUSH1 0x40 MLOAD PUSH3 0x461BCD PUSH1 0xE5 SHL DUP2 MSTORE PUSH1 0x4 ADD PUSH2 0x6D9 SWAP1 PUSH2 0x1D29 JUMP JUMPDEST SELFBALANCE DUP1 PUSH2 0x854 JUMPI PUSH1 0x40 MLOAD PUSH3 0x461BCD PUSH1 0xE5 SHL DUP2 MSTORE PUSH1 0x20 PUSH1 0x4 DUP3 ADD MSTORE PUSH1 0x14 PUSH1 0x24 DUP3 ADD MSTORE PUSH20 0x496E73756666696369656E742042616C616E6365 PUSH1 0x60 SHL PUSH1 0x44 DUP3 ADD MSTORE PUSH1 0x64 ADD PUSH2 0x6D9 JUMP JUMPDEST PUSH1 0x0 DUP3 PUSH1 0x1 PUSH1 0x1 PUSH1 0xA0 SHL SUB AND DUP3 PUSH1 0x40 MLOAD PUSH1 0x0 PUSH1 0x40 MLOAD DUP1 DUP4 SUB DUP2 DUP6 DUP8 GAS CALL SWAP3 POP POP POP RETURNDATASIZE DUP1 PUSH1 0x0 DUP2 EQ PUSH2 0x8A1 JUMPI PUSH1 0x40 MLOAD SWAP2 POP PUSH1 0x1F NOT PUSH1 0x3F RETURNDATASIZE ADD AND DUP3 ADD PUSH1 0x40 MSTORE RETURNDATASIZE DUP3 MSTORE RETURNDATASIZE PUSH1 0x0 PUSH1 0x20 DUP5 ADD RETURNDATACOPY PUSH2 0x8A6 JUMP JUMPDEST PUSH1 0x60 SWAP2 POP JUMPDEST POP POP SWAP1 POP DUP1 PUSH2 0x8B4 JUMPI PUSH1 0x0 DUP1 REVERT JUMPDEST PUSH1 0x40 DUP1 MLOAD PUSH1 0x1 PUSH1 0x1 PUSH1 0xA0 SHL SUB DUP6 AND DUP2 MSTORE PUSH1 0x20 DUP2 ADD DUP5 SWAP1 MSTORE TIMESTAMP SWAP2 DUP2 ADD SWAP2 SWAP1 SWAP2 MSTORE PUSH32 0xF279E6A1F5E320CCA91135676D9CB6E44CA8A08C0B88342BCDB1144F6511B568 SWAP1 PUSH1 0x60 ADD JUMPDEST PUSH1 0x40 MLOAD DUP1 SWAP2 SUB SWAP1 LOG1 POP POP POP JUMP JUMPDEST PUSH1 0x0 SLOAD PUSH1 0x1 PUSH1 0x1 PUSH1 0xA0 SHL SUB AND CALLER EQ PUSH2 0x930 JUMPI PUSH1 0x40 MLOAD PUSH3 0x461BCD PUSH1 0xE5 SHL DUP2 MSTORE PUSH1 0x4 ADD PUSH2 0x6D9 SWAP1 PUSH2 0x1D29 JUMP JUMPDEST PUSH1 0x5 DUP1 SLOAD PUSH1 0x1 PUSH1 0x1 PUSH1 0xA0 SHL SUB DUP4 DUP2 AND PUSH3 0x10000 DUP2 DUP2 MUL PUSH3 0x10000 PUSH1 0x1 PUSH1 0xB0 SHL SUB NOT DUP6 AND OR SWAP1 SWAP5 SSTORE PUSH1 0x40 DUP1 MLOAD SWAP5 SWAP1 SWAP4 DIV SWAP1 SWAP2 AND DUP1 DUP5 MSTORE PUSH1 0x20 DUP5 ADD SWAP2 SWAP1 SWAP2 MSTORE SWAP2 PUSH32 0xEEB293E1F8F3A9DB91ADE748726387ED1352CA78F5430C5F06FE3D1E1AD50579 SWAP2 ADD JUMPDEST PUSH1 0x40 MLOAD DUP1 SWAP2 SUB SWAP1 LOG1 POP POP JUMP JUMPDEST PUSH1 0x0 SLOAD PUSH1 0x1 PUSH1 0x1 PUSH1 0xA0 SHL SUB AND CALLER EQ PUSH2 0x9C8 JUMPI PUSH1 0x40 MLOAD PUSH3 0x461BCD PUSH1 0xE5 SHL DUP2 MSTORE PUSH1 0x4 ADD PUSH2 0x6D9 SWAP1 PUSH2 0x1D29 JUMP JUMPDEST PUSH2 0x9D2 PUSH1 0x0 PUSH2 0x18AF JUMP JUMPDEST JUMP JUMPDEST PUSH1 0x0 SLOAD PUSH1 0x1 PUSH1 0x1 PUSH1 0xA0 SHL SUB AND CALLER EQ PUSH2 0x9FE JUMPI PUSH1 0x40 MLOAD PUSH3 0x461BCD PUSH1 0xE5 SHL DUP2 MSTORE PUSH1 0x4 ADD PUSH2 0x6D9 SWAP1 PUSH2 0x1D29 JUMP JUMPDEST PUSH1 0x4 DUP1 SLOAD SWAP1 DUP3 SWAP1 SSTORE PUSH1 0x40 DUP1 MLOAD DUP3 DUP2 MSTORE PUSH1 0x20 DUP2 ADD DUP5 SWAP1 MSTORE PUSH32 0x123D88BA82600DFC3F219F8885C691B0FF020CAA535666874B3F5174973757FE SWAP2 ADD PUSH2 0x992 JUMP JUMPDEST PUSH1 0x0 SLOAD PUSH1 0x1 PUSH1 0x1 PUSH1 0xA0 SHL SUB AND CALLER EQ PUSH2 0xA66 JUMPI PUSH1 0x40 MLOAD PUSH3 0x461BCD PUSH1 0xE5 SHL DUP2 MSTORE PUSH1 0x4 ADD PUSH2 0x6D9 SWAP1 PUSH2 0x1D29 JUMP JUMPDEST PUSH1 0x40 MLOAD PUSH4 0x70A08231 PUSH1 0xE0 SHL DUP2 MSTORE ADDRESS PUSH1 0x4 DUP3 ADD MSTORE PUSH1 0x0 SWAP1 PUSH1 0x1 PUSH1 0x1 PUSH1 0xA0 SHL SUB DUP4 AND SWAP1 PUSH4 0x70A08231 SWAP1 PUSH1 0x24 ADD PUSH1 0x20 PUSH1 0x40 MLOAD DUP1 DUP4 SUB DUP2 DUP7 GAS STATICCALL ISZERO DUP1 ISZERO PUSH2 0xAAD JUMPI RETURNDATASIZE PUSH1 0x0 DUP1 RETURNDATACOPY RETURNDATASIZE PUSH1 0x0 REVERT JUMPDEST POP POP POP POP PUSH1 0x40 MLOAD RETURNDATASIZE PUSH1 0x1F NOT PUSH1 0x1F DUP3 ADD AND DUP3 ADD DUP1 PUSH1 0x40 MSTORE POP DUP2 ADD SWAP1 PUSH2 0xAD1 SWAP2 SWAP1 PUSH2 0x1D5E JUMP JUMPDEST SWAP1 POP PUSH1 0x0 DUP2 GT PUSH2 0xB1A JUMPI PUSH1 0x40 MLOAD PUSH3 0x461BCD PUSH1 0xE5 SHL DUP2 MSTORE PUSH1 0x20 PUSH1 0x4 DUP3 ADD MSTORE PUSH1 0x14 PUSH1 0x24 DUP3 ADD MSTORE PUSH20 0x496E73756666696369656E742042616C616E6365 PUSH1 0x60 SHL PUSH1 0x44 DUP3 ADD MSTORE PUSH1 0x64 ADD PUSH2 0x6D9 JUMP JUMPDEST PUSH1 0x40 MLOAD PUSH4 0xA9059CBB PUSH1 0xE0 SHL DUP2 MSTORE PUSH1 0x1 PUSH1 0x1 PUSH1 0xA0 SHL SUB DUP5 DUP2 AND PUSH1 0x4 DUP4 ADD MSTORE PUSH1 0x24 DUP3 ADD DUP4 SWAP1 MSTORE DUP4 AND SWAP1 PUSH4 0xA9059CBB SWAP1 PUSH1 0x44 ADD PUSH1 0x20 PUSH1 0x40 MLOAD DUP1 DUP4 SUB DUP2 PUSH1 0x0 DUP8 GAS CALL ISZERO DUP1 ISZERO PUSH2 0xB69 JUMPI RETURNDATASIZE PUSH1 0x0 DUP1 RETURNDATACOPY RETURNDATASIZE PUSH1 0x0 REVERT JUMPDEST POP POP POP POP PUSH1 0x40 MLOAD RETURNDATASIZE PUSH1 0x1F NOT PUSH1 0x1F DUP3 ADD AND DUP3 ADD DUP1 PUSH1 0x40 MSTORE POP DUP2 ADD SWAP1 PUSH2 0xB8D SWAP2 SWAP1 PUSH2 0x1D77 JUMP JUMPDEST POP PUSH1 0x40 DUP1 MLOAD PUSH1 0x1 PUSH1 0x1 PUSH1 0xA0 SHL SUB DUP1 DUP7 AND DUP3 MSTORE DUP5 AND PUSH1 0x20 DUP3 ADD MSTORE SWAP1 DUP2 ADD DUP3 SWAP1 MSTORE TIMESTAMP PUSH1 0x60 DUP3 ADD MSTORE PUSH32 0xB818A975F91276DF8BA59329BECBC23C793DF0D503C19AC296C3C372A1FA0461 SWAP1 PUSH1 0x80 ADD PUSH2 0x8F9 JUMP JUMPDEST PUSH1 0x0 DUP1 PUSH1 0x0 DUP1 PUSH2 0xBEB DUP6 PUSH2 0xCE1 JUMP JUMPDEST PUSH1 0x40 DUP1 MLOAD PUSH1 0x0 DUP2 MSTORE PUSH1 0x20 DUP2 ADD DUP1 DUP4 MSTORE DUP12 SWAP1 MSTORE PUSH1 0xFF DUP4 AND SWAP2 DUP2 ADD SWAP2 SWAP1 SWAP2 MSTORE PUSH1 0x60 DUP2 ADD DUP5 SWAP1 MSTORE PUSH1 0x80 DUP2 ADD DUP4 SWAP1 MSTORE SWAP3 SWAP6 POP SWAP1 SWAP4 POP SWAP2 POP PUSH1 0x1 SWAP1 PUSH1 0xA0 ADD PUSH1 0x20 PUSH1 0x40 MLOAD PUSH1 0x20 DUP2 SUB SWAP1 DUP1 DUP5 SUB SWAP1 DUP6 GAS STATICCALL ISZERO DUP1 ISZERO PUSH2 0xC46 JUMPI RETURNDATASIZE PUSH1 0x0 DUP1 RETURNDATACOPY RETURNDATASIZE PUSH1 0x0 REVERT JUMPDEST POP POP PUSH1 0x40 MLOAD PUSH1 0x1F NOT ADD MLOAD SWAP8 SWAP7 POP POP POP POP POP POP POP JUMP JUMPDEST PUSH1 0x0 SLOAD PUSH1 0x1 PUSH1 0x1 PUSH1 0xA0 SHL SUB AND CALLER EQ PUSH2 0xC85 JUMPI PUSH1 0x40 MLOAD PUSH3 0x461BCD PUSH1 0xE5 SHL DUP2 MSTORE PUSH1 0x4 ADD PUSH2 0x6D9 SWAP1 PUSH2 0x1D29 JUMP JUMPDEST PUSH1 0x2 DUP1 SLOAD PUSH1 0x1 PUSH1 0x1 PUSH1 0xA0 SHL SUB DUP4 DUP2 AND PUSH1 0x1 PUSH1 0x1 PUSH1 0xA0 SHL SUB NOT DUP4 AND DUP2 OR SWAP1 SWAP4 SSTORE PUSH1 0x40 DUP1 MLOAD SWAP2 SWAP1 SWAP3 AND DUP1 DUP3 MSTORE PUSH1 0x20 DUP3 ADD SWAP4 SWAP1 SWAP4 MSTORE DUP4 SWAP2 PUSH32 0xABDF056C85A221FCB31D0366C4475B6B2C613DF2EEEA951A9FCB3E1A8595D973 SWAP2 ADD PUSH2 0x8F9 JUMP JUMPDEST PUSH1 0x0 DUP1 PUSH1 0x0 DUP4 MLOAD PUSH1 0x41 EQ PUSH2 0xD37 JUMPI PUSH1 0x40 MLOAD PUSH3 0x461BCD PUSH1 0xE5 SHL DUP2 MSTORE PUSH1 0x20 PUSH1 0x4 DUP3 ADD MSTORE PUSH1 0x18 PUSH1 0x24 DUP3 ADD MSTORE PUSH32 0x696E76616C6964207369676E6174757265206C656E6774680000000000000000 PUSH1 0x44 DUP3 ADD MSTORE PUSH1 0x64 ADD PUSH2 0x6D9 JUMP JUMPDEST POP POP POP PUSH1 0x20 DUP2 ADD MLOAD PUSH1 0x40 DUP3 ADD MLOAD PUSH1 0x60 SWAP1 SWAP3 ADD MLOAD SWAP1 SWAP3 PUSH1 0x0 SWAP2 SWAP1 SWAP2 BYTE SWAP1 JUMP JUMPDEST PUSH1 0x0 SLOAD PUSH1 0x1 PUSH1 0x1 PUSH1 0xA0 SHL SUB AND CALLER EQ PUSH2 0xD7F JUMPI PUSH1 0x40 MLOAD PUSH3 0x461BCD PUSH1 0xE5 SHL DUP2 MSTORE PUSH1 0x4 ADD PUSH2 0x6D9 SWAP1 PUSH2 0x1D29 JUMP JUMPDEST PUSH1 0x40 MLOAD PUSH4 0x31A9108F PUSH1 0xE1 SHL DUP2 MSTORE PUSH1 0x4 DUP2 ADD DUP3 SWAP1 MSTORE ADDRESS SWAP1 PUSH1 0x1 PUSH1 0x1 PUSH1 0xA0 SHL SUB DUP5 AND SWAP1 PUSH4 0x6352211E SWAP1 PUSH1 0x24 ADD PUSH1 0x20 PUSH1 0x40 MLOAD DUP1 DUP4 SUB DUP2 DUP7 GAS STATICCALL ISZERO DUP1 ISZERO PUSH2 0xDC6 JUMPI RETURNDATASIZE PUSH1 0x0 DUP1 RETURNDATACOPY RETURNDATASIZE PUSH1 0x0 REVERT JUMPDEST POP POP POP POP PUSH1 0x40 MLOAD RETURNDATASIZE PUSH1 0x1F NOT PUSH1 0x1F DUP3 ADD AND DUP3 ADD DUP1 PUSH1 0x40 MSTORE POP DUP2 ADD SWAP1 PUSH2 0xDEA SWAP2 SWAP1 PUSH2 0x1D94 JUMP JUMPDEST PUSH1 0x1 PUSH1 0x1 PUSH1 0xA0 SHL SUB AND EQ PUSH2 0xE4E JUMPI PUSH1 0x40 MLOAD PUSH3 0x461BCD PUSH1 0xE5 SHL DUP2 MSTORE PUSH1 0x20 PUSH1 0x4 DUP3 ADD MSTORE PUSH1 0x25 PUSH1 0x24 DUP3 ADD MSTORE PUSH32 0x5468697320746F6B656E4964206973206E6F74206F776E656420627920636F6E PUSH1 0x44 DUP3 ADD MSTORE PUSH5 0x1D1C9858DD PUSH1 0xDA SHL PUSH1 0x64 DUP3 ADD MSTORE PUSH1 0x84 ADD PUSH2 0x6D9 JUMP JUMPDEST PUSH1 0x40 MLOAD PUSH4 0x21421707 PUSH1 0xE1 SHL DUP2 MSTORE ADDRESS PUSH1 0x4 DUP3 ADD MSTORE PUSH1 0x1 PUSH1 0x1 PUSH1 0xA0 SHL SUB DUP5 DUP2 AND PUSH1 0x24 DUP4 ADD MSTORE PUSH1 0x44 DUP3 ADD DUP4 SWAP1 MSTORE DUP4 AND SWAP1 PUSH4 0x42842E0E SWAP1 PUSH1 0x64 ADD PUSH1 0x0 PUSH1 0x40 MLOAD DUP1 DUP4 SUB DUP2 PUSH1 0x0 DUP8 DUP1 EXTCODESIZE ISZERO DUP1 ISZERO PUSH2 0xE9E JUMPI PUSH1 0x0 DUP1 REVERT JUMPDEST POP GAS CALL ISZERO DUP1 ISZERO PUSH2 0xEB2 JUMPI RETURNDATASIZE PUSH1 0x0 DUP1 RETURNDATACOPY RETURNDATASIZE PUSH1 0x0 REVERT JUMPDEST POP POP PUSH1 0x40 DUP1 MLOAD PUSH1 0x1 PUSH1 0x1 PUSH1 0xA0 SHL SUB DUP1 DUP9 AND DUP3 MSTORE DUP7 AND PUSH1 0x20 DUP3 ADD MSTORE SWAP1 DUP2 ADD DUP5 SWAP1 MSTORE TIMESTAMP PUSH1 0x60 DUP3 ADD MSTORE PUSH32 0x127A8D3F57942833F6930572BCE52AD882683E36EEB5830D199D3FA4BFA9467 SWAP3 POP PUSH1 0x80 ADD SWAP1 POP PUSH2 0x8F9 JUMP JUMPDEST PUSH1 0x2 SLOAD PUSH1 0x40 DUP1 MLOAD PUSH4 0x18160DDD PUSH1 0xE0 SHL DUP2 MSTORE SWAP1 MLOAD PUSH1 0x0 SWAP3 PUSH1 0x1 PUSH1 0x1 PUSH1 0xA0 SHL SUB AND SWAP2 PUSH4 0x18160DDD SWAP2 PUSH1 0x4 DUP1 DUP4 ADD SWAP3 PUSH1 0x20 SWAP3 SWAP2 SWAP1 DUP3 SWAP1 SUB ADD DUP2 DUP7 GAS STATICCALL ISZERO DUP1 ISZERO PUSH2 0x7BC JUMPI RETURNDATASIZE PUSH1 0x0 DUP1 RETURNDATACOPY RETURNDATASIZE PUSH1 0x0 REVERT JUMPDEST PUSH1 0x2 PUSH1 0x1 SLOAD SUB PUSH2 0xFA1 JUMPI PUSH1 0x40 MLOAD PUSH3 0x461BCD PUSH1 0xE5 SHL DUP2 MSTORE PUSH1 0x20 PUSH1 0x4 DUP3 ADD MSTORE PUSH1 0x1F PUSH1 0x24 DUP3 ADD MSTORE PUSH32 0x5265656E7472616E637947756172643A207265656E7472616E742063616C6C00 PUSH1 0x44 DUP3 ADD MSTORE PUSH1 0x64 ADD PUSH2 0x6D9 JUMP JUMPDEST PUSH1 0x2 PUSH1 0x1 SWAP1 DUP2 SSTORE PUSH1 0x5 SLOAD PUSH1 0xFF AND ISZERO ISZERO EQ PUSH2 0xFFD JUMPI PUSH1 0x40 MLOAD PUSH3 0x461BCD PUSH1 0xE5 SHL DUP2 MSTORE PUSH1 0x20 PUSH1 0x4 DUP3 ADD MSTORE PUSH1 0x18 PUSH1 0x24 DUP3 ADD MSTORE PUSH32 0x5075626C6963206D696E74206973206E6F74206F70656E2E0000000000000000 PUSH1 0x44 DUP3 ADD MSTORE PUSH1 0x64 ADD PUSH2 0x6D9 JUMP JUMPDEST ORIGIN CALLER EQ PUSH2 0x104C JUMPI PUSH1 0x40 MLOAD PUSH3 0x461BCD PUSH1 0xE5 SHL DUP2 MSTORE PUSH1 0x20 PUSH1 0x4 DUP3 ADD MSTORE PUSH1 0x1B PUSH1 0x24 DUP3 ADD MSTORE PUSH32 0x6861686120436F6E74726163742063616E27742063616C6C206D650000000000 PUSH1 0x44 DUP3 ADD MSTORE PUSH1 0x64 ADD PUSH2 0x6D9 JUMP JUMPDEST CALLER PUSH1 0x0 SWAP1 DUP2 MSTORE PUSH1 0x8 PUSH1 0x20 MSTORE PUSH1 0x40 SWAP1 KECCAK256 SLOAD PUSH1 0xFF AND ISZERO ISZERO PUSH1 0x1 SUB PUSH2 0x10AA JUMPI PUSH1 0x40 MLOAD PUSH3 0x461BCD PUSH1 0xE5 SHL DUP2 MSTORE PUSH1 0x20 PUSH1 0x4 DUP3 ADD MSTORE PUSH1 0x17 PUSH1 0x24 DUP3 ADD MSTORE PUSH23 0x2CB7BA9030B9329030B63932B0B23C9036B4B73A32B217 PUSH1 0x49 SHL PUSH1 0x44 DUP3 ADD MSTORE PUSH1 0x64 ADD PUSH2 0x6D9 JUMP JUMPDEST PUSH1 0x2 SLOAD PUSH1 0x40 MLOAD PUSH4 0x55138F0D PUSH1 0xE1 SHL DUP2 MSTORE ADDRESS PUSH1 0x4 DUP3 ADD MSTORE PUSH1 0x1 PUSH1 0x1 PUSH1 0xA0 SHL SUB SWAP1 SWAP2 AND SWAP1 PUSH4 0xAA271E1A SWAP1 PUSH1 0x24 ADD PUSH1 0x20 PUSH1 0x40 MLOAD DUP1 DUP4 SUB DUP2 DUP7 GAS STATICCALL ISZERO DUP1 ISZERO PUSH2 0x10F2 JUMPI RETURNDATASIZE PUSH1 0x0 DUP1 RETURNDATACOPY RETURNDATASIZE PUSH1 0x0 REVERT JUMPDEST POP POP POP POP PUSH1 0x40 MLOAD RETURNDATASIZE PUSH1 0x1F NOT PUSH1 0x1F DUP3 ADD AND DUP3 ADD DUP1 PUSH1 0x40 MSTORE POP DUP2 ADD SWAP1 PUSH2 0x1116 SWAP2 SWAP1 PUSH2 0x1D77 JUMP JUMPDEST PUSH2 0x1162 JUMPI PUSH1 0x40 MLOAD PUSH3 0x461BCD PUSH1 0xE5 SHL DUP2 MSTORE PUSH1 0x20 PUSH1 0x4 DUP3 ADD MSTORE PUSH1 0x1E PUSH1 0x24 DUP3 ADD MSTORE PUSH32 0x436F6E7472616374204D696E74206973206E6F7420617070726F7665642E0000 PUSH1 0x44 DUP3 ADD MSTORE PUSH1 0x64 ADD PUSH2 0x6D9 JUMP JUMPDEST PUSH2 0x11B8 PUSH1 0x5 PUSH1 0x2 SWAP1 SLOAD SWAP1 PUSH2 0x100 EXP SWAP1 DIV PUSH1 0x1 PUSH1 0x1 PUSH1 0xA0 SHL SUB AND CALLER DUP5 DUP5 DUP1 DUP1 PUSH1 0x1F ADD PUSH1 0x20 DUP1 SWAP2 DIV MUL PUSH1 0x20 ADD PUSH1 0x40 MLOAD SWAP1 DUP2 ADD PUSH1 0x40 MSTORE DUP1 SWAP4 SWAP3 SWAP2 SWAP1 DUP2 DUP2 MSTORE PUSH1 0x20 ADD DUP4 DUP4 DUP1 DUP3 DUP5 CALLDATACOPY PUSH1 0x0 SWAP3 ADD SWAP2 SWAP1 SWAP2 MSTORE POP PUSH2 0x72F SWAP3 POP POP POP JUMP JUMPDEST PUSH2 0x120F JUMPI PUSH1 0x40 MLOAD PUSH3 0x461BCD PUSH1 0xE5 SHL DUP2 MSTORE PUSH1 0x20 PUSH1 0x4 DUP3 ADD MSTORE PUSH1 0x22 PUSH1 0x24 DUP3 ADD MSTORE PUSH32 0x556E617574686F72697A6564205075626C69634D696E74205468697320557365 PUSH1 0x44 DUP3 ADD MSTORE PUSH2 0x3917 PUSH1 0xF1 SHL PUSH1 0x64 DUP3 ADD MSTORE PUSH1 0x84 ADD PUSH2 0x6D9 JUMP JUMPDEST CALLER PUSH1 0x0 DUP2 DUP2 MSTORE PUSH1 0x8 PUSH1 0x20 MSTORE PUSH1 0x40 SWAP1 DUP2 SWAP1 KECCAK256 DUP1 SLOAD PUSH1 0xFF NOT AND PUSH1 0x1 SWAP1 DUP2 OR SWAP1 SWAP2 SSTORE PUSH1 0x2 SLOAD SWAP2 MLOAD PUSH4 0x28512065 PUSH1 0xE2 SHL DUP2 MSTORE PUSH1 0x4 DUP2 ADD SWAP4 SWAP1 SWAP4 MSTORE PUSH1 0x24 DUP4 ADD DUP2 SWAP1 MSTORE SWAP2 PUSH1 0x1 PUSH1 0x1 PUSH1 0xA0 SHL SUB SWAP1 SWAP2 AND SWAP1 PUSH4 0xA1448194 SWAP1 PUSH1 0x44 ADD PUSH1 0x0 PUSH1 0x40 MLOAD DUP1 DUP4 SUB DUP2 PUSH1 0x0 DUP8 DUP1 EXTCODESIZE ISZERO DUP1 ISZERO PUSH2 0x127C JUMPI PUSH1 0x0 DUP1 REVERT JUMPDEST POP GAS CALL ISZERO DUP1 ISZERO PUSH2 0x1290 JUMPI RETURNDATASIZE PUSH1 0x0 DUP1 RETURNDATACOPY RETURNDATASIZE PUSH1 0x0 REVERT JUMPDEST POP POP PUSH1 0x40 DUP1 MLOAD DUP5 DUP2 MSTORE TIMESTAMP PUSH1 0x20 DUP3 ADD MSTORE CALLER SWAP4 POP PUSH32 0xC1A73B31B32801EBBB4CAE30B73EAE4345BE9F2915EA60306383C245EF8FAC44 SWAP3 POP ADD PUSH1 0x40 MLOAD DUP1 SWAP2 SUB SWAP1 LOG2 POP POP PUSH1 0x1 DUP1 SSTORE POP JUMP JUMPDEST PUSH1 0x0 SLOAD PUSH1 0x1 PUSH1 0x1 PUSH1 0xA0 SHL SUB AND CALLER EQ PUSH2 0x1301 JUMPI PUSH1 0x40 MLOAD PUSH3 0x461BCD PUSH1 0xE5 SHL DUP2 MSTORE PUSH1 0x4 ADD PUSH2 0x6D9 SWAP1 PUSH2 0x1D29 JUMP JUMPDEST PUSH1 0x1 PUSH1 0x1 PUSH1 0xA0 SHL SUB DUP2 AND PUSH2 0x1366 JUMPI PUSH1 0x40 MLOAD PUSH3 0x461BCD PUSH1 0xE5 SHL DUP2 MSTORE PUSH1 0x20 PUSH1 0x4 DUP3 ADD MSTORE PUSH1 0x26 PUSH1 0x24 DUP3 ADD MSTORE PUSH32 0x4F776E61626C653A206E6577206F776E657220697320746865207A65726F2061 PUSH1 0x44 DUP3 ADD MSTORE PUSH6 0x646472657373 PUSH1 0xD0 SHL PUSH1 0x64 DUP3 ADD MSTORE PUSH1 0x84 ADD PUSH2 0x6D9 JUMP JUMPDEST PUSH2 0x6E2 DUP2 PUSH2 0x18AF JUMP JUMPDEST PUSH1 0x2 PUSH1 0x1 SLOAD SUB PUSH2 0x13C1 JUMPI PUSH1 0x40 MLOAD PUSH3 0x461BCD PUSH1 0xE5 SHL DUP2 MSTORE PUSH1 0x20 PUSH1 0x4 DUP3 ADD MSTORE PUSH1 0x1F PUSH1 0x24 DUP3 ADD MSTORE PUSH32 0x5265656E7472616E637947756172643A207265656E7472616E742063616C6C00 PUSH1 0x44 DUP3 ADD MSTORE PUSH1 0x64 ADD PUSH2 0x6D9 JUMP JUMPDEST PUSH1 0x2 PUSH1 0x1 SWAP1 DUP2 SSTORE PUSH1 0x5 SLOAD PUSH2 0x100 SWAP1 DIV PUSH1 0xFF AND ISZERO ISZERO EQ PUSH2 0x1422 JUMPI PUSH1 0x40 MLOAD PUSH3 0x461BCD PUSH1 0xE5 SHL DUP2 MSTORE PUSH1 0x20 PUSH1 0x4 DUP3 ADD MSTORE PUSH1 0x19 PUSH1 0x24 DUP3 ADD MSTORE PUSH32 0x50726976617465206D696E74206973206E6F74206F70656E2E00000000000000 PUSH1 0x44 DUP3 ADD MSTORE PUSH1 0x64 ADD PUSH2 0x6D9 JUMP JUMPDEST DUP1 PUSH2 0x1467 JUMPI PUSH1 0x40 MLOAD PUSH3 0x461BCD PUSH1 0xE5 SHL DUP2 MSTORE PUSH1 0x20 PUSH1 0x4 DUP3 ADD MSTORE PUSH1 0x15 PUSH1 0x24 DUP3 ADD MSTORE PUSH21 0x26B4B73A1034B9903737BA1030B8383937BB32B217 PUSH1 0x59 SHL PUSH1 0x44 DUP3 ADD MSTORE PUSH1 0x64 ADD PUSH2 0x6D9 JUMP JUMPDEST DUP1 PUSH1 0x3 SLOAD EQ PUSH2 0x14C8 JUMPI PUSH1 0x40 MLOAD PUSH3 0x461BCD PUSH1 0xE5 SHL DUP2 MSTORE PUSH1 0x20 PUSH1 0x4 DUP3 ADD MSTORE PUSH1 0x27 PUSH1 0x24 DUP3 ADD MSTORE PUSH32 0x436F6E747261637420617265206E6F7420696E2074686973206D696E74696E67 PUSH1 0x44 DUP3 ADD MSTORE PUSH7 0x103937BAB73217 PUSH1 0xC9 SHL PUSH1 0x64 DUP3 ADD MSTORE PUSH1 0x84 ADD PUSH2 0x6D9 JUMP JUMPDEST PUSH2 0x14D0 PUSH2 0x772 JUMP JUMPDEST DUP3 PUSH2 0x14D9 PUSH2 0xF05 JUMP JUMPDEST PUSH2 0x14E3 SWAP2 SWAP1 PUSH2 0x1DC7 JUMP JUMPDEST LT PUSH2 0x151E JUMPI PUSH1 0x40 MLOAD PUSH3 0x461BCD PUSH1 0xE5 SHL DUP2 MSTORE PUSH1 0x20 PUSH1 0x4 DUP3 ADD MSTORE PUSH1 0xB PUSH1 0x24 DUP3 ADD MSTORE PUSH11 0x4F76657220737570706C79 PUSH1 0xA8 SHL PUSH1 0x44 DUP3 ADD MSTORE PUSH1 0x64 ADD PUSH2 0x6D9 JUMP JUMPDEST CALLER PUSH1 0x0 SWAP1 DUP2 MSTORE PUSH1 0x6 PUSH1 0x20 SWAP1 DUP2 MSTORE PUSH1 0x40 DUP1 DUP4 KECCAK256 DUP5 DUP5 MSTORE SWAP1 SWAP2 MSTORE SWAP1 KECCAK256 SLOAD PUSH1 0xFF AND ISZERO PUSH2 0x1583 JUMPI PUSH1 0x40 MLOAD PUSH3 0x461BCD PUSH1 0xE5 SHL DUP2 MSTORE PUSH1 0x20 PUSH1 0x4 DUP3 ADD MSTORE PUSH1 0x17 PUSH1 0x24 DUP3 ADD MSTORE PUSH23 0x2CB7BA9030B9329030B63932B0B23C9036B4B73A32B217 PUSH1 0x49 SHL PUSH1 0x44 DUP3 ADD MSTORE PUSH1 0x64 ADD PUSH2 0x6D9 JUMP JUMPDEST PUSH1 0x2 SLOAD PUSH1 0x40 MLOAD PUSH4 0x55138F0D PUSH1 0xE1 SHL DUP2 MSTORE ADDRESS PUSH1 0x4 DUP3 ADD MSTORE PUSH1 0x1 PUSH1 0x1 PUSH1 0xA0 SHL SUB SWAP1 SWAP2 AND SWAP1 PUSH4 0xAA271E1A SWAP1 PUSH1 0x24 ADD PUSH1 0x20 PUSH1 0x40 MLOAD DUP1 DUP4 SUB DUP2 DUP7 GAS STATICCALL ISZERO DUP1 ISZERO PUSH2 0x15CB JUMPI RETURNDATASIZE PUSH1 0x0 DUP1 RETURNDATACOPY RETURNDATASIZE PUSH1 0x0 REVERT JUMPDEST POP POP POP POP PUSH1 0x40 MLOAD RETURNDATASIZE PUSH1 0x1F NOT PUSH1 0x1F DUP3 ADD AND DUP3 ADD DUP1 PUSH1 0x40 MSTORE POP DUP2 ADD SWAP1 PUSH2 0x15EF SWAP2 SWAP1 PUSH2 0x1D77 JUMP JUMPDEST PUSH2 0x163B JUMPI PUSH1 0x40 MLOAD PUSH3 0x461BCD PUSH1 0xE5 SHL DUP2 MSTORE PUSH1 0x20 PUSH1 0x4 DUP3 ADD MSTORE PUSH1 0x1E PUSH1 0x24 DUP3 ADD MSTORE PUSH32 0x436F6E7472616374204D696E74206973206E6F7420617070726F7665642E0000 PUSH1 0x44 DUP3 ADD MSTORE PUSH1 0x64 ADD PUSH2 0x6D9 JUMP JUMPDEST PUSH2 0x16BE DUP5 DUP5 DUP1 DUP1 PUSH1 0x20 MUL PUSH1 0x20 ADD PUSH1 0x40 MLOAD SWAP1 DUP2 ADD PUSH1 0x40 MSTORE DUP1 SWAP4 SWAP3 SWAP2 SWAP1 DUP2 DUP2 MSTORE PUSH1 0x20 ADD DUP4 DUP4 PUSH1 0x20 MUL DUP1 DUP3 DUP5 CALLDATACOPY PUSH1 0x0 SWAP3 ADD SWAP2 SWAP1 SWAP2 MSTORE POP POP PUSH1 0x4 SLOAD PUSH1 0x40 MLOAD PUSH12 0xFFFFFFFFFFFFFFFFFFFFFFFF NOT CALLER PUSH1 0x60 SHL AND PUSH1 0x20 DUP3 ADD MSTORE PUSH1 0x34 DUP2 ADD DUP9 SWAP1 MSTORE PUSH1 0x54 DUP2 ADD DUP8 SWAP1 MSTORE SWAP1 SWAP3 POP PUSH1 0x74 ADD SWAP1 POP PUSH1 0x40 MLOAD PUSH1 0x20 DUP2 DUP4 SUB SUB DUP2 MSTORE SWAP1 PUSH1 0x40 MSTORE DUP1 MLOAD SWAP1 PUSH1 0x20 ADD KECCAK256 PUSH2 0x18FF JUMP JUMPDEST PUSH2 0x1718 JUMPI PUSH1 0x40 MLOAD PUSH3 0x461BCD PUSH1 0xE5 SHL DUP2 MSTORE PUSH1 0x20 PUSH1 0x4 DUP3 ADD MSTORE PUSH1 0x25 PUSH1 0x24 DUP3 ADD MSTORE PUSH32 0x556E617574686F72697A65642057686974656C6973744D696E74205468697320 PUSH1 0x44 DUP3 ADD MSTORE PUSH5 0x2AB9B2B917 PUSH1 0xD9 SHL PUSH1 0x64 DUP3 ADD MSTORE PUSH1 0x84 ADD PUSH2 0x6D9 JUMP JUMPDEST CALLER PUSH1 0x0 DUP2 DUP2 MSTORE PUSH1 0x6 PUSH1 0x20 SWAP1 DUP2 MSTORE PUSH1 0x40 DUP1 DUP4 KECCAK256 DUP6 DUP5 MSTORE DUP3 MSTORE DUP1 DUP4 KECCAK256 DUP1 SLOAD PUSH1 0xFF NOT AND PUSH1 0x1 OR SWAP1 SSTORE SWAP3 DUP3 MSTORE PUSH1 0x7 DUP2 MSTORE DUP3 DUP3 KECCAK256 DUP5 DUP4 MSTORE SWAP1 MSTORE SWAP1 DUP2 KECCAK256 DUP1 SLOAD DUP5 SWAP3 SWAP1 PUSH2 0x175F SWAP1 DUP5 SWAP1 PUSH2 0x1DC7 JUMP JUMPDEST SWAP1 SWAP2 SSTORE POP POP PUSH1 0x2 SLOAD PUSH1 0x40 MLOAD PUSH4 0x28512065 PUSH1 0xE2 SHL DUP2 MSTORE CALLER PUSH1 0x4 DUP3 ADD MSTORE PUSH1 0x24 DUP2 ADD DUP5 SWAP1 MSTORE PUSH1 0x1 PUSH1 0x1 PUSH1 0xA0 SHL SUB SWAP1 SWAP2 AND SWAP1 PUSH4 0xA1448194 SWAP1 PUSH1 0x44 ADD PUSH1 0x0 PUSH1 0x40 MLOAD DUP1 DUP4 SUB DUP2 PUSH1 0x0 DUP8 DUP1 EXTCODESIZE ISZERO DUP1 ISZERO PUSH2 0x17B0 JUMPI PUSH1 0x0 DUP1 REVERT JUMPDEST POP GAS CALL ISZERO DUP1 ISZERO PUSH2 0x17C4 JUMPI RETURNDATASIZE PUSH1 0x0 DUP1 RETURNDATACOPY RETURNDATASIZE PUSH1 0x0 REVERT JUMPDEST POP POP PUSH1 0x40 DUP1 MLOAD DUP6 DUP2 MSTORE TIMESTAMP PUSH1 0x20 DUP3 ADD MSTORE CALLER SWAP4 POP PUSH32 0xE9E607753E80542A9021D5149990F18919907F0136FAD424EAAC3D15056CCF6E SWAP3 POP ADD PUSH1 0x40 MLOAD DUP1 SWAP2 SUB SWAP1 LOG2 POP POP PUSH1 0x1 DUP1 SSTORE POP POP JUMP JUMPDEST PUSH1 0x40 MLOAD PUSH32 0x19457468657265756D205369676E6564204D6573736167653A0A333200000000 PUSH1 0x20 DUP3 ADD MSTORE PUSH1 0x3C DUP2 ADD DUP3 SWAP1 MSTORE PUSH1 0x0 SWAP1 PUSH1 0x5C ADD PUSH2 0x712 JUMP JUMPDEST PUSH1 0x0 SLOAD PUSH1 0x1 PUSH1 0x1 PUSH1 0xA0 SHL SUB AND CALLER EQ PUSH2 0x1871 JUMPI PUSH1 0x40 MLOAD PUSH3 0x461BCD PUSH1 0xE5 SHL DUP2 MSTORE PUSH1 0x4 ADD PUSH2 0x6D9 SWAP1 PUSH2 0x1D29 JUMP JUMPDEST PUSH1 0x3 DUP1 SLOAD SWAP1 DUP3 SWAP1 SSTORE PUSH1 0x40 DUP1 MLOAD DUP3 DUP2 MSTORE PUSH1 0x20 DUP2 ADD DUP5 SWAP1 MSTORE PUSH32 0x521EC96875CA228CD2FC1DBD4C927A34328C9CE1A83BCB8C1F633F012C90D785 SWAP2 ADD PUSH2 0x992 JUMP JUMPDEST PUSH1 0x0 DUP1 SLOAD PUSH1 0x1 PUSH1 0x1 PUSH1 0xA0 SHL SUB DUP4 DUP2 AND PUSH1 0x1 PUSH1 0x1 PUSH1 0xA0 SHL SUB NOT DUP4 AND DUP2 OR DUP5 SSTORE PUSH1 0x40 MLOAD SWAP2 SWAP1 SWAP3 AND SWAP3 DUP4 SWAP2 PUSH32 0x8BE0079C531659141344CD1FD0A4F28419497F9722A3DAAFE3B4186F6B6457E0 SWAP2 SWAP1 LOG3 POP POP JUMP JUMPDEST PUSH1 0x0 DUP3 PUSH2 0x190C DUP6 DUP5 PUSH2 0x1915 JUMP JUMPDEST EQ SWAP5 SWAP4 POP POP POP POP JUMP JUMPDEST PUSH1 0x0 DUP2 DUP2 JUMPDEST DUP5 MLOAD DUP2 LT ISZERO PUSH2 0x1981 JUMPI PUSH1 0x0 DUP6 DUP3 DUP2 MLOAD DUP2 LT PUSH2 0x1937 JUMPI PUSH2 0x1937 PUSH2 0x1DDF JUMP JUMPDEST PUSH1 0x20 MUL PUSH1 0x20 ADD ADD MLOAD SWAP1 POP DUP1 DUP4 GT PUSH2 0x195D JUMPI PUSH1 0x0 DUP4 DUP2 MSTORE PUSH1 0x20 DUP3 SWAP1 MSTORE PUSH1 0x40 SWAP1 KECCAK256 SWAP3 POP PUSH2 0x196E JUMP JUMPDEST PUSH1 0x0 DUP2 DUP2 MSTORE PUSH1 0x20 DUP5 SWAP1 MSTORE PUSH1 0x40 SWAP1 KECCAK256 SWAP3 POP JUMPDEST POP DUP1 PUSH2 0x1979 DUP2 PUSH2 0x1DF5 JUMP JUMPDEST SWAP2 POP POP PUSH2 0x191A JUMP JUMPDEST POP SWAP4 SWAP3 POP POP POP JUMP JUMPDEST DUP1 ISZERO ISZERO DUP2 EQ PUSH2 0x6E2 JUMPI PUSH1 0x0 DUP1 REVERT JUMPDEST PUSH1 0x0 PUSH1 0x20 DUP3 DUP5 SUB SLT ISZERO PUSH2 0x19A9 JUMPI PUSH1 0x0 DUP1 REVERT JUMPDEST DUP2 CALLDATALOAD PUSH2 0x19B4 DUP2 PUSH2 0x1989 JUMP JUMPDEST SWAP4 SWAP3 POP POP POP JUMP JUMPDEST PUSH1 0x1 PUSH1 0x1 PUSH1 0xA0 SHL SUB DUP2 AND DUP2 EQ PUSH2 0x6E2 JUMPI PUSH1 0x0 DUP1 REVERT JUMPDEST PUSH1 0x0 PUSH1 0x20 DUP3 DUP5 SUB SLT ISZERO PUSH2 0x19E2 JUMPI PUSH1 0x0 DUP1 REVERT JUMPDEST DUP2 CALLDATALOAD PUSH2 0x19B4 DUP2 PUSH2 0x19BB JUMP JUMPDEST PUSH4 0x4E487B71 PUSH1 0xE0 SHL PUSH1 0x0 MSTORE PUSH1 0x41 PUSH1 0x4 MSTORE PUSH1 0x24 PUSH1 0x0 REVERT JUMPDEST PUSH1 0x0 DUP3 PUSH1 0x1F DUP4 ADD SLT PUSH2 0x1A14 JUMPI PUSH1 0x0 DUP1 REVERT JUMPDEST DUP2 CALLDATALOAD PUSH8 0xFFFFFFFFFFFFFFFF DUP1 DUP3 GT ISZERO PUSH2 0x1A2F JUMPI PUSH2 0x1A2F PUSH2 0x19ED JUMP JUMPDEST PUSH1 0x40 MLOAD PUSH1 0x1F DUP4 ADD PUSH1 0x1F NOT SWAP1 DUP2 AND PUSH1 0x3F ADD AND DUP2 ADD SWAP1 DUP3 DUP3 GT DUP2 DUP4 LT OR ISZERO PUSH2 0x1A57 JUMPI PUSH2 0x1A57 PUSH2 0x19ED JUMP JUMPDEST DUP2 PUSH1 0x40 MSTORE DUP4 DUP2 MSTORE DUP7 PUSH1 0x20 DUP6 DUP9 ADD ADD GT ISZERO PUSH2 0x1A70 JUMPI PUSH1 0x0 DUP1 REVERT JUMPDEST DUP4 PUSH1 0x20 DUP8 ADD PUSH1 0x20 DUP4 ADD CALLDATACOPY PUSH1 0x0 PUSH1 0x20 DUP6 DUP4 ADD ADD MSTORE DUP1 SWAP5 POP POP POP POP POP SWAP3 SWAP2 POP POP JUMP JUMPDEST PUSH1 0x0 DUP1 PUSH1 0x0 PUSH1 0x60 DUP5 DUP7 SUB SLT ISZERO PUSH2 0x1AA5 JUMPI PUSH1 0x0 DUP1 REVERT JUMPDEST DUP4 CALLDATALOAD PUSH2 0x1AB0 DUP2 PUSH2 0x19BB JUMP JUMPDEST SWAP3 POP PUSH1 0x20 DUP5 ADD CALLDATALOAD PUSH2 0x1AC0 DUP2 PUSH2 0x19BB JUMP JUMPDEST SWAP2 POP PUSH1 0x40 DUP5 ADD CALLDATALOAD PUSH8 0xFFFFFFFFFFFFFFFF DUP2 GT ISZERO PUSH2 0x1ADC JUMPI PUSH1 0x0 DUP1 REVERT JUMPDEST PUSH2 0x1AE8 DUP7 DUP3 DUP8 ADD PUSH2 0x1A03 JUMP JUMPDEST SWAP2 POP POP SWAP3 POP SWAP3 POP SWAP3 JUMP JUMPDEST PUSH1 0x0 PUSH1 0x20 DUP3 DUP5 SUB SLT ISZERO PUSH2 0x1B04 JUMPI PUSH1 0x0 DUP1 REVERT JUMPDEST POP CALLDATALOAD SWAP2 SWAP1 POP JUMP JUMPDEST PUSH1 0x0 DUP1 PUSH1 0x40 DUP4 DUP6 SUB SLT ISZERO PUSH2 0x1B1E JUMPI PUSH1 0x0 DUP1 REVERT JUMPDEST DUP3 CALLDATALOAD PUSH2 0x1B29 DUP2 PUSH2 0x19BB JUMP JUMPDEST SWAP2 POP PUSH1 0x20 DUP4 ADD CALLDATALOAD PUSH2 0x1B39 DUP2 PUSH2 0x19BB JUMP JUMPDEST DUP1 SWAP2 POP POP SWAP3 POP SWAP3 SWAP1 POP JUMP JUMPDEST PUSH1 0x0 DUP1 PUSH1 0x40 DUP4 DUP6 SUB SLT ISZERO PUSH2 0x1B57 JUMPI PUSH1 0x0 DUP1 REVERT JUMPDEST DUP3 CALLDATALOAD SWAP2 POP PUSH1 0x20 DUP4 ADD CALLDATALOAD PUSH8 0xFFFFFFFFFFFFFFFF DUP2 GT ISZERO PUSH2 0x1B75 JUMPI PUSH1 0x0 DUP1 REVERT JUMPDEST PUSH2 0x1B81 DUP6 DUP3 DUP7 ADD PUSH2 0x1A03 JUMP JUMPDEST SWAP2 POP POP SWAP3 POP SWAP3 SWAP1 POP JUMP JUMPDEST PUSH1 0x0 PUSH1 0x20 DUP3 DUP5 SUB SLT ISZERO PUSH2 0x1B9D JUMPI PUSH1 0x0 DUP1 REVERT JUMPDEST DUP2 CALLDATALOAD PUSH8 0xFFFFFFFFFFFFFFFF DUP2 GT ISZERO PUSH2 0x1BB4 JUMPI PUSH1 0x0 DUP1 REVERT JUMPDEST PUSH2 0x1BC0 DUP5 DUP3 DUP6 ADD PUSH2 0x1A03 JUMP JUMPDEST SWAP5 SWAP4 POP POP POP POP JUMP JUMPDEST PUSH1 0x0 DUP1 PUSH1 0x40 DUP4 DUP6 SUB SLT ISZERO PUSH2 0x1BDB JUMPI PUSH1 0x0 DUP1 REVERT JUMPDEST DUP3 CALLDATALOAD PUSH2 0x1BE6 DUP2 PUSH2 0x19BB JUMP JUMPDEST SWAP5 PUSH1 0x20 SWAP4 SWAP1 SWAP4 ADD CALLDATALOAD SWAP4 POP POP POP JUMP JUMPDEST PUSH1 0x0 DUP1 PUSH1 0x0 PUSH1 0x60 DUP5 DUP7 SUB SLT ISZERO PUSH2 0x1C09 JUMPI PUSH1 0x0 DUP1 REVERT JUMPDEST DUP4 CALLDATALOAD PUSH2 0x1C14 DUP2 PUSH2 0x19BB JUMP JUMPDEST SWAP3 POP PUSH1 0x20 DUP5 ADD CALLDATALOAD PUSH2 0x1C24 DUP2 PUSH2 0x19BB JUMP JUMPDEST SWAP3 SWAP6 SWAP3 SWAP5 POP POP POP PUSH1 0x40 SWAP2 SWAP1 SWAP2 ADD CALLDATALOAD SWAP1 JUMP JUMPDEST PUSH1 0x0 DUP1 PUSH1 0x20 DUP4 DUP6 SUB SLT ISZERO PUSH2 0x1C48 JUMPI PUSH1 0x0 DUP1 REVERT JUMPDEST DUP3 CALLDATALOAD PUSH8 0xFFFFFFFFFFFFFFFF DUP1 DUP3 GT ISZERO PUSH2 0x1C60 JUMPI PUSH1 0x0 DUP1 REVERT JUMPDEST DUP2 DUP6 ADD SWAP2 POP DUP6 PUSH1 0x1F DUP4 ADD SLT PUSH2 0x1C74 JUMPI PUSH1 0x0 DUP1 REVERT JUMPDEST DUP2 CALLDATALOAD DUP2 DUP2 GT ISZERO PUSH2 0x1C83 JUMPI PUSH1 0x0 DUP1 REVERT JUMPDEST DUP7 PUSH1 0x20 DUP3 DUP6 ADD ADD GT ISZERO PUSH2 0x1C95 JUMPI PUSH1 0x0 DUP1 REVERT JUMPDEST PUSH1 0x20 SWAP3 SWAP1 SWAP3 ADD SWAP7 SWAP2 SWAP6 POP SWAP1 SWAP4 POP POP POP POP JUMP JUMPDEST PUSH1 0x0 DUP1 PUSH1 0x0 DUP1 PUSH1 0x60 DUP6 DUP8 SUB SLT ISZERO PUSH2 0x1CBD JUMPI PUSH1 0x0 DUP1 REVERT JUMPDEST DUP5 CALLDATALOAD PUSH8 0xFFFFFFFFFFFFFFFF DUP1 DUP3 GT ISZERO PUSH2 0x1CD5 JUMPI PUSH1 0x0 DUP1 REVERT JUMPDEST DUP2 DUP8 ADD SWAP2 POP DUP8 PUSH1 0x1F DUP4 ADD SLT PUSH2 0x1CE9 JUMPI PUSH1 0x0 DUP1 REVERT JUMPDEST DUP2 CALLDATALOAD DUP2 DUP2 GT ISZERO PUSH2 0x1CF8 JUMPI PUSH1 0x0 DUP1 REVERT JUMPDEST DUP9 PUSH1 0x20 DUP3 PUSH1 0x5 SHL DUP6 ADD ADD GT ISZERO PUSH2 0x1D0D JUMPI PUSH1 0x0 DUP1 REVERT JUMPDEST PUSH1 0x20 SWAP3 DUP4 ADD SWAP10 SWAP1 SWAP9 POP SWAP2 DUP8 ADD CALLDATALOAD SWAP7 PUSH1 0x40 ADD CALLDATALOAD SWAP6 POP SWAP1 SWAP4 POP POP POP POP JUMP JUMPDEST PUSH1 0x20 DUP1 DUP3 MSTORE DUP2 DUP2 ADD MSTORE PUSH32 0x4F776E61626C653A2063616C6C6572206973206E6F7420746865206F776E6572 PUSH1 0x40 DUP3 ADD MSTORE PUSH1 0x60 ADD SWAP1 JUMP JUMPDEST PUSH1 0x0 PUSH1 0x20 DUP3 DUP5 SUB SLT ISZERO PUSH2 0x1D70 JUMPI PUSH1 0x0 DUP1 REVERT JUMPDEST POP MLOAD SWAP2 SWAP1 POP JUMP JUMPDEST PUSH1 0x0 PUSH1 0x20 DUP3 DUP5 SUB SLT ISZERO PUSH2 0x1D89 JUMPI PUSH1 0x0 DUP1 REVERT JUMPDEST DUP2 MLOAD PUSH2 0x19B4 DUP2 PUSH2 0x1989 JUMP JUMPDEST PUSH1 0x0 PUSH1 0x20 DUP3 DUP5 SUB SLT ISZERO PUSH2 0x1DA6 JUMPI PUSH1 0x0 DUP1 REVERT JUMPDEST DUP2 MLOAD PUSH2 0x19B4 DUP2 PUSH2 0x19BB JUMP JUMPDEST PUSH4 0x4E487B71 PUSH1 0xE0 SHL PUSH1 0x0 MSTORE PUSH1 0x11 PUSH1 0x4 MSTORE PUSH1 0x24 PUSH1 0x0 REVERT JUMPDEST PUSH1 0x0 DUP3 NOT DUP3 GT ISZERO PUSH2 0x1DDA JUMPI PUSH2 0x1DDA PUSH2 0x1DB1 JUMP JUMPDEST POP ADD SWAP1 JUMP JUMPDEST PUSH4 0x4E487B71 PUSH1 0xE0 SHL PUSH1 0x0 MSTORE PUSH1 0x32 PUSH1 0x4 MSTORE PUSH1 0x24 PUSH1 0x0 REVERT JUMPDEST PUSH1 0x0 PUSH1 0x1 DUP3 ADD PUSH2 0x1E07 JUMPI PUSH2 0x1E07 PUSH2 0x1DB1 JUMP JUMPDEST POP PUSH1 0x1 ADD SWAP1 JUMP INVALID LOG2 PUSH5 0x6970667358 0x22 SLT KECCAK256 0xC9 PUSH21 0x59E70061737BE72DEC8B73080165EF30AF9CED7EB5 0xE0 0xFC DUP5 0xB3 0xC3 PUSH11 0x75466F64736F6C63430008 0xF STOP CALLER 0x4F PUSH24 0x6E61626C653A2063616C6C6572206973206E6F7420746865 KECCAK256 PUSH16 0x776E6572000000000000000000000000 "
				},
				"gasEstimates": {
					"creation": {
						"codeDepositCost": "1549600",
						"executionCost": "infinite",
						"totalCost": "infinite"
					},
					"external": {
						"DEFAULT()": "231",
						"NAGA_HOLDER_MINT_ROUND()": "230",
						"WHITELIST_MINT_ROUND()": "228",
						"WITHDRAW_ROLE()": "229",
						"allowlistMint(bytes32[],uint256,bytes32)": "infinite",
						"currentMintRound()": "2351",
						"getEthSignedMessageHash(bytes32)": "533",
						"getMaxSupply()": "infinite",
						"getMessageHash(address)": "626",
						"getTotalSupply()": "infinite",
						"isPrivateMintOpen()": "2388",
						"isPublicMintOpen()": "2378",
						"isPublicMinted(address)": "2632",
						"isUserMinted(address,bytes32)": "2774",
						"merkleRoot()": "2352",
						"nagaKidContract()": "2448",
						"owner()": "2420",
						"publicMint(bytes)": "infinite",
						"recoverSigner(bytes32,bytes)": "infinite",
						"renounceOwnership()": "28204",
						"setMerkleRoot(bytes32)": "28038",
						"setNagaKidContract(address)": "28121",
						"setPublicMint(bool)": "infinite",
						"setRound(bytes32)": "28036",
						"setSigner(address)": "28149",
						"signer()": "2461",
						"splitSignature(bytes)": "infinite",
						"transferOwnership(address)": "infinite",
						"userMintedAmount(address,bytes32)": "2731",
						"verify(address,address,bytes)": "infinite",
						"withdraw(address)": "infinite",
						"withdrawCurrency(address,address)": "infinite",
						"withdrawNFT(address,address,uint256)": "infinite"
					}
				},
				"methodIdentifiers": {
					"DEFAULT()": "0a25dea9",
					"NAGA_HOLDER_MINT_ROUND()": "24c37a85",
					"WHITELIST_MINT_ROUND()": "f500cdfc",
					"WITHDRAW_ROLE()": "e02023a1",
					"allowlistMint(bytes32[],uint256,bytes32)": "f6b48e55",
					"currentMintRound()": "ef5fe79f",
					"getEthSignedMessageHash(bytes32)": "fa540801",
					"getMaxSupply()": "4c0f38c2",
					"getMessageHash(address)": "1f5ac1b2",
					"getTotalSupply()": "c4e41b22",
					"isPrivateMintOpen()": "8907f3fa",
					"isPublicMintOpen()": "a4435dfd",
					"isPublicMinted(address)": "f055c7a9",
					"isUserMinted(address,bytes32)": "ffdc6129",
					"merkleRoot()": "2eb4a7ab",
					"nagaKidContract()": "df4e5881",
					"owner()": "8da5cb5b",
					"publicMint(bytes)": "de6892c8",
					"recoverSigner(bytes32,bytes)": "97aba7f9",
					"renounceOwnership()": "715018a6",
					"setMerkleRoot(bytes32)": "7cb64759",
					"setNagaKidContract(address)": "9e6c8855",
					"setPublicMint(bool)": "0e2d56cf",
					"setRound(bytes32)": "ff05fe4a",
					"setSigner(address)": "6c19e783",
					"signer()": "238ac933",
					"splitSignature(bytes)": "a7bb5803",
					"transferOwnership(address)": "f2fde38b",
					"userMintedAmount(address,bytes32)": "b5abafa1",
					"verify(address,address,bytes)": "42920a46",
					"withdraw(address)": "51cff8d9",
					"withdrawCurrency(address,address)": "8407ecc4",
					"withdrawNFT(address,address,uint256)": "bff863ec"
				}
			},
			"storageLayout": {
				"storage": [
					{
						"astId": 7,
						"contract": "ERC721A/MintNagaKids.sol:MintNagaKids",
						"label": "_owner",
						"offset": 0,
						"slot": "0",
						"type": "t_address"
					},
					{
						"astId": 115,
						"contract": "ERC721A/MintNagaKids.sol:MintNagaKids",
						"label": "_status",
						"offset": 0,
						"slot": "1",
						"type": "t_uint256"
					},
					{
						"astId": 530,
						"contract": "ERC721A/MintNagaKids.sol:MintNagaKids",
						"label": "nagaKidContract",
						"offset": 0,
						"slot": "2",
						"type": "t_contract(INagaKid)494"
					},
					{
						"astId": 532,
						"contract": "ERC721A/MintNagaKids.sol:MintNagaKids",
						"label": "currentMintRound",
						"offset": 0,
						"slot": "3",
						"type": "t_bytes32"
					},
					{
						"astId": 534,
						"contract": "ERC721A/MintNagaKids.sol:MintNagaKids",
						"label": "merkleRoot",
						"offset": 0,
						"slot": "4",
						"type": "t_bytes32"
					},
					{
						"astId": 537,
						"contract": "ERC721A/MintNagaKids.sol:MintNagaKids",
						"label": "isPublicMintOpen",
						"offset": 0,
						"slot": "5",
						"type": "t_bool"
					},
					{
						"astId": 540,
						"contract": "ERC721A/MintNagaKids.sol:MintNagaKids",
						"label": "isPrivateMintOpen",
						"offset": 1,
						"slot": "5",
						"type": "t_bool"
					},
					{
						"astId": 542,
						"contract": "ERC721A/MintNagaKids.sol:MintNagaKids",
						"label": "signer",
						"offset": 2,
						"slot": "5",
						"type": "t_address"
					},
					{
						"astId": 548,
						"contract": "ERC721A/MintNagaKids.sol:MintNagaKids",
						"label": "_isUserMinted",
						"offset": 0,
						"slot": "6",
						"type": "t_mapping(t_address,t_mapping(t_bytes32,t_bool))"
					},
					{
						"astId": 554,
						"contract": "ERC721A/MintNagaKids.sol:MintNagaKids",
						"label": "_userMintedAmount",
						"offset": 0,
						"slot": "7",
						"type": "t_mapping(t_address,t_mapping(t_bytes32,t_uint256))"
					},
					{
						"astId": 558,
						"contract": "ERC721A/MintNagaKids.sol:MintNagaKids",
						"label": "_isPublicMinted",
						"offset": 0,
						"slot": "8",
						"type": "t_mapping(t_address,t_bool)"
					}
				],
				"types": {
					"t_address": {
						"encoding": "inplace",
						"label": "address",
						"numberOfBytes": "20"
					},
					"t_bool": {
						"encoding": "inplace",
						"label": "bool",
						"numberOfBytes": "1"
					},
					"t_bytes32": {
						"encoding": "inplace",
						"label": "bytes32",
						"numberOfBytes": "32"
					},
					"t_contract(INagaKid)494": {
						"encoding": "inplace",
						"label": "contract INagaKid",
						"numberOfBytes": "20"
					},
					"t_mapping(t_address,t_bool)": {
						"encoding": "mapping",
						"key": "t_address",
						"label": "mapping(address => bool)",
						"numberOfBytes": "32",
						"value": "t_bool"
					},
					"t_mapping(t_address,t_mapping(t_bytes32,t_bool))": {
						"encoding": "mapping",
						"key": "t_address",
						"label": "mapping(address => mapping(bytes32 => bool))",
						"numberOfBytes": "32",
						"value": "t_mapping(t_bytes32,t_bool)"
					},
					"t_mapping(t_address,t_mapping(t_bytes32,t_uint256))": {
						"encoding": "mapping",
						"key": "t_address",
						"label": "mapping(address => mapping(bytes32 => uint256))",
						"numberOfBytes": "32",
						"value": "t_mapping(t_bytes32,t_uint256)"
					},
					"t_mapping(t_bytes32,t_bool)": {
						"encoding": "mapping",
						"key": "t_bytes32",
						"label": "mapping(bytes32 => bool)",
						"numberOfBytes": "32",
						"value": "t_bool"
					},
					"t_mapping(t_bytes32,t_uint256)": {
						"encoding": "mapping",
						"key": "t_bytes32",
						"label": "mapping(bytes32 => uint256)",
						"numberOfBytes": "32",
						"value": "t_uint256"
					},
					"t_uint256": {
						"encoding": "inplace",
						"label": "uint256",
						"numberOfBytes": "32"
					}
				}
			},
			"userdoc": {
				"kind": "user",
				"methods": {},
				"version": 1
			}
		}
	}
}