{
	"ERC721A/VerifySignature.sol": {
		"VerifySignature": {
			"abi": [
				{
					"inputs": [
						{
							"internalType": "bytes32",
							"name": "_messageHash",
							"type": "bytes32"
						}
					],
					"name": "getEthSignedMessageHash",
					"outputs": [
						{
							"internalType": "bytes32",
							"name": "",
							"type": "bytes32"
						}
					],
					"stateMutability": "pure",
					"type": "function"
				},
				{
					"inputs": [
						{
							"internalType": "address",
							"name": "_user",
							"type": "address"
						}
					],
					"name": "getMessageHash",
					"outputs": [
						{
							"internalType": "bytes32",
							"name": "",
							"type": "bytes32"
						}
					],
					"stateMutability": "view",
					"type": "function"
				},
				{
					"inputs": [
						{
							"internalType": "bytes32",
							"name": "_ethSignedMessageHash",
							"type": "bytes32"
						},
						{
							"internalType": "bytes",
							"name": "_signature",
							"type": "bytes"
						}
					],
					"name": "recoverSigner",
					"outputs": [
						{
							"internalType": "address",
							"name": "",
							"type": "address"
						}
					],
					"stateMutability": "pure",
					"type": "function"
				},
				{
					"inputs": [
						{
							"internalType": "bytes",
							"name": "sig",
							"type": "bytes"
						}
					],
					"name": "splitSignature",
					"outputs": [
						{
							"internalType": "bytes32",
							"name": "r",
							"type": "bytes32"
						},
						{
							"internalType": "bytes32",
							"name": "s",
							"type": "bytes32"
						},
						{
							"internalType": "uint8",
							"name": "v",
							"type": "uint8"
						}
					],
					"stateMutability": "pure",
					"type": "function"
				},
				{
					"inputs": [
						{
							"internalType": "address",
							"name": "_signer",
							"type": "address"
						},
						{
							"internalType": "address",
							"name": "_user",
							"type": "address"
						},
						{
							"internalType": "bytes",
							"name": "signature",
							"type": "bytes"
						}
					],
					"name": "verify",
					"outputs": [
						{
							"internalType": "bool",
							"name": "",
							"type": "bool"
						}
					],
					"stateMutability": "view",
					"type": "function"
				}
			],
			"devdoc": {
				"kind": "dev",
				"methods": {},
				"version": 1
			},
			"evm": {
				"assembly": "    /* \"ERC721A/VerifySignature.sol\":61:2303  contract VerifySignature {... */\n  mstore(0x40, 0x80)\n  callvalue\n  dup1\n  iszero\n  tag_1\n  jumpi\n  0x00\n  dup1\n  revert\ntag_1:\n  pop\n  dataSize(sub_0)\n  dup1\n  dataOffset(sub_0)\n  0x00\n  codecopy\n  0x00\n  return\nstop\n\nsub_0: assembly {\n        /* \"ERC721A/VerifySignature.sol\":61:2303  contract VerifySignature {... */\n      mstore(0x40, 0x80)\n      callvalue\n      dup1\n      iszero\n      tag_1\n      jumpi\n      0x00\n      dup1\n      revert\n    tag_1:\n      pop\n      jumpi(tag_2, lt(calldatasize, 0x04))\n      shr(0xe0, calldataload(0x00))\n      dup1\n      0x1f5ac1b2\n      eq\n      tag_3\n      jumpi\n      dup1\n      0x42920a46\n      eq\n      tag_4\n      jumpi\n      dup1\n      0x97aba7f9\n      eq\n      tag_5\n      jumpi\n      dup1\n      0xa7bb5803\n      eq\n      tag_6\n      jumpi\n      dup1\n      0xfa540801\n      eq\n      tag_7\n      jumpi\n    tag_2:\n      0x00\n      dup1\n      revert\n        /* \"ERC721A/VerifySignature.sol\":99:259  function getMessageHash(... */\n    tag_3:\n      tag_8\n      tag_9\n      calldatasize\n      0x04\n      tag_10\n      jump\t// in\n    tag_9:\n      tag_11\n      jump\t// in\n    tag_8:\n      mload(0x40)\n        /* \"#utility.yul\":529:554   */\n      swap1\n      dup2\n      mstore\n        /* \"#utility.yul\":517:519   */\n      0x20\n        /* \"#utility.yul\":502:520   */\n      add\n        /* \"ERC721A/VerifySignature.sol\":99:259  function getMessageHash(... */\n    tag_12:\n      mload(0x40)\n      dup1\n      swap2\n      sub\n      swap1\n      return\n        /* \"ERC721A/VerifySignature.sol\":769:1119  function verify(... */\n    tag_4:\n      tag_14\n      tag_15\n      calldatasize\n      0x04\n      tag_16\n      jump\t// in\n    tag_15:\n      tag_17\n      jump\t// in\n    tag_14:\n      mload(0x40)\n        /* \"#utility.yul\":2058:2072   */\n      swap1\n      iszero\n        /* \"#utility.yul\":2051:2073   */\n      iszero\n        /* \"#utility.yul\":2033:2074   */\n      dup2\n      mstore\n        /* \"#utility.yul\":2021:2023   */\n      0x20\n        /* \"#utility.yul\":2006:2024   */\n      add\n        /* \"ERC721A/VerifySignature.sol\":769:1119  function verify(... */\n      tag_12\n        /* \"#utility.yul\":1893:2080   */\n      jump\n        /* \"ERC721A/VerifySignature.sol\":1127:1401  function recoverSigner(... */\n    tag_5:\n      tag_20\n      tag_21\n      calldatasize\n      0x04\n      tag_22\n      jump\t// in\n    tag_21:\n      tag_23\n      jump\t// in\n    tag_20:\n      mload(0x40)\n      sub(shl(0xa0, 0x01), 0x01)\n        /* \"#utility.yul\":2642:2674   */\n      swap1\n      swap2\n      and\n        /* \"#utility.yul\":2624:2675   */\n      dup2\n      mstore\n        /* \"#utility.yul\":2612:2614   */\n      0x20\n        /* \"#utility.yul\":2597:2615   */\n      add\n        /* \"ERC721A/VerifySignature.sol\":1127:1401  function recoverSigner(... */\n      tag_12\n        /* \"#utility.yul\":2478:2681   */\n      jump\n        /* \"ERC721A/VerifySignature.sol\":1409:2300  function splitSignature(bytes memory sig)... */\n    tag_6:\n      tag_26\n      tag_27\n      calldatasize\n      0x04\n      tag_28\n      jump\t// in\n    tag_27:\n      tag_29\n      jump\t// in\n    tag_26:\n      0x40\n      dup1\n      mload\n        /* \"#utility.yul\":3209:3234   */\n      swap4\n      dup5\n      mstore\n        /* \"#utility.yul\":3265:3267   */\n      0x20\n        /* \"#utility.yul\":3250:3268   */\n      dup5\n      add\n        /* \"#utility.yul\":3243:3277   */\n      swap3\n      swap1\n      swap3\n      mstore\n        /* \"#utility.yul\":3325:3329   */\n      0xff\n        /* \"#utility.yul\":3313:3330   */\n      and\n        /* \"#utility.yul\":3293:3311   */\n      swap1\n      dup3\n      add\n        /* \"#utility.yul\":3286:3331   */\n      mstore\n        /* \"#utility.yul\":3197:3199   */\n      0x60\n        /* \"#utility.yul\":3182:3200   */\n      add\n        /* \"ERC721A/VerifySignature.sol\":1409:2300  function splitSignature(bytes memory sig)... */\n      tag_12\n        /* \"#utility.yul\":3011:3337   */\n      jump\n        /* \"ERC721A/VerifySignature.sol\":267:761  function getEthSignedMessageHash(bytes32 _messageHash)... */\n    tag_7:\n      tag_8\n      tag_33\n      calldatasize\n      0x04\n      tag_34\n      jump\t// in\n    tag_33:\n      tag_35\n      jump\t// in\n        /* \"ERC721A/VerifySignature.sol\":99:259  function getMessageHash(... */\n    tag_11:\n        /* \"ERC721A/VerifySignature.sol\":212:250  abi.encodePacked(_user, address(this)) */\n      mload(0x40)\n      not(0xffffffffffffffffffffffff)\n        /* \"#utility.yul\":3754:3756   */\n      0x60\n        /* \"#utility.yul\":3750:3765   */\n      dup4\n      dup2\n      shl\n        /* \"#utility.yul\":3746:3770   */\n      dup3\n      and\n        /* \"ERC721A/VerifySignature.sol\":212:250  abi.encodePacked(_user, address(this)) */\n      0x20\n      dup5\n      add\n        /* \"#utility.yul\":3734:3771   */\n      mstore\n        /* \"ERC721A/VerifySignature.sol\":244:248  this */\n      address\n        /* \"#utility.yul\":3805:3820   */\n      swap1\n      shl\n        /* \"#utility.yul\":3801:3825   */\n      and\n        /* \"#utility.yul\":3787:3799   */\n      0x34\n      dup3\n      add\n        /* \"#utility.yul\":3780:3826   */\n      mstore\n        /* \"ERC721A/VerifySignature.sol\":175:182  bytes32 */\n      0x00\n      swap1\n        /* \"#utility.yul\":3842:3854   */\n      0x48\n      add\n        /* \"ERC721A/VerifySignature.sol\":212:250  abi.encodePacked(_user, address(this)) */\n    tag_38:\n      mload(0x40)\n      0x20\n      dup2\n      dup4\n      sub\n      sub\n      dup2\n      mstore\n      swap1\n      0x40\n      mstore\n        /* \"ERC721A/VerifySignature.sol\":202:251  keccak256(abi.encodePacked(_user, address(this))) */\n      dup1\n      mload\n      swap1\n      0x20\n      add\n      keccak256\n        /* \"ERC721A/VerifySignature.sol\":195:251  return keccak256(abi.encodePacked(_user, address(this))) */\n      swap1\n      pop\n        /* \"ERC721A/VerifySignature.sol\":99:259  function getMessageHash(... */\n      swap2\n      swap1\n      pop\n      jump\t// out\n        /* \"ERC721A/VerifySignature.sol\":769:1119  function verify(... */\n    tag_17:\n        /* \"ERC721A/VerifySignature.sol\":896:900  bool */\n      0x00\n        /* \"ERC721A/VerifySignature.sol\":913:932  bytes32 messageHash */\n      dup1\n        /* \"ERC721A/VerifySignature.sol\":935:956  getMessageHash(_user) */\n      tag_41\n        /* \"ERC721A/VerifySignature.sol\":950:955  _user */\n      dup5\n        /* \"ERC721A/VerifySignature.sol\":935:949  getMessageHash */\n      tag_11\n        /* \"ERC721A/VerifySignature.sol\":935:956  getMessageHash(_user) */\n      jump\t// in\n    tag_41:\n        /* \"ERC721A/VerifySignature.sol\":913:956  bytes32 messageHash = getMessageHash(_user) */\n      swap1\n      pop\n        /* \"ERC721A/VerifySignature.sol\":967:995  bytes32 ethSignedMessageHash */\n      0x00\n        /* \"ERC721A/VerifySignature.sol\":998:1034  getEthSignedMessageHash(messageHash) */\n      tag_42\n        /* \"ERC721A/VerifySignature.sol\":1022:1033  messageHash */\n      dup3\n        /* \"ERC721A/VerifySignature.sol\":998:1021  getEthSignedMessageHash */\n      tag_35\n        /* \"ERC721A/VerifySignature.sol\":998:1034  getEthSignedMessageHash(messageHash) */\n      jump\t// in\n    tag_42:\n        /* \"ERC721A/VerifySignature.sol\":967:1034  bytes32 ethSignedMessageHash = getEthSignedMessageHash(messageHash) */\n      swap1\n      pop\n        /* \"ERC721A/VerifySignature.sol\":1104:1111  _signer */\n      dup6\n      sub(shl(0xa0, 0x01), 0x01)\n        /* \"ERC721A/VerifySignature.sol\":1054:1111  recoverSigner(ethSignedMessageHash, signature) == _signer */\n      and\n        /* \"ERC721A/VerifySignature.sol\":1054:1100  recoverSigner(ethSignedMessageHash, signature) */\n      tag_43\n        /* \"ERC721A/VerifySignature.sol\":1068:1088  ethSignedMessageHash */\n      dup3\n        /* \"ERC721A/VerifySignature.sol\":1090:1099  signature */\n      dup7\n        /* \"ERC721A/VerifySignature.sol\":1054:1067  recoverSigner */\n      tag_23\n        /* \"ERC721A/VerifySignature.sol\":1054:1100  recoverSigner(ethSignedMessageHash, signature) */\n      jump\t// in\n    tag_43:\n      sub(shl(0xa0, 0x01), 0x01)\n        /* \"ERC721A/VerifySignature.sol\":1054:1111  recoverSigner(ethSignedMessageHash, signature) == _signer */\n      and\n      eq\n      swap7\n        /* \"ERC721A/VerifySignature.sol\":769:1119  function verify(... */\n      swap6\n      pop\n      pop\n      pop\n      pop\n      pop\n      pop\n      jump\t// out\n        /* \"ERC721A/VerifySignature.sol\":1127:1401  function recoverSigner(... */\n    tag_23:\n        /* \"ERC721A/VerifySignature.sol\":1252:1259  address */\n      0x00\n        /* \"ERC721A/VerifySignature.sol\":1273:1282  bytes32 r */\n      dup1\n        /* \"ERC721A/VerifySignature.sol\":1284:1293  bytes32 s */\n      0x00\n        /* \"ERC721A/VerifySignature.sol\":1295:1302  uint8 v */\n      dup1\n        /* \"ERC721A/VerifySignature.sol\":1306:1332  splitSignature(_signature) */\n      tag_45\n        /* \"ERC721A/VerifySignature.sol\":1321:1331  _signature */\n      dup6\n        /* \"ERC721A/VerifySignature.sol\":1306:1320  splitSignature */\n      tag_29\n        /* \"ERC721A/VerifySignature.sol\":1306:1332  splitSignature(_signature) */\n      jump\t// in\n    tag_45:\n        /* \"ERC721A/VerifySignature.sol\":1352:1393  ecrecover(_ethSignedMessageHash, v, r, s) */\n      0x40\n      dup1\n      mload\n      0x00\n      dup2\n      mstore\n      0x20\n      dup2\n      add\n      dup1\n      dup4\n      mstore\n        /* \"#utility.yul\":4092:4117   */\n      dup12\n      swap1\n      mstore\n        /* \"#utility.yul\":4165:4169   */\n      0xff\n        /* \"#utility.yul\":4153:4170   */\n      dup4\n      and\n        /* \"#utility.yul\":4133:4151   */\n      swap2\n      dup2\n      add\n        /* \"#utility.yul\":4126:4171   */\n      swap2\n      swap1\n      swap2\n      mstore\n        /* \"#utility.yul\":4187:4205   */\n      0x60\n      dup2\n      add\n        /* \"#utility.yul\":4180:4214   */\n      dup5\n      swap1\n      mstore\n        /* \"#utility.yul\":4230:4248   */\n      0x80\n      dup2\n      add\n        /* \"#utility.yul\":4223:4257   */\n      dup4\n      swap1\n      mstore\n        /* \"ERC721A/VerifySignature.sol\":1272:1332  (bytes32 r, bytes32 s, uint8 v) = splitSignature(_signature) */\n      swap3\n      swap6\n      pop\n      swap1\n      swap4\n      pop\n      swap2\n      pop\n        /* \"ERC721A/VerifySignature.sol\":1352:1393  ecrecover(_ethSignedMessageHash, v, r, s) */\n      0x01\n      swap1\n        /* \"#utility.yul\":4064:4083   */\n      0xa0\n      add\n        /* \"ERC721A/VerifySignature.sol\":1352:1393  ecrecover(_ethSignedMessageHash, v, r, s) */\n      0x20\n      mload(0x40)\n      0x20\n      dup2\n      sub\n      swap1\n      dup1\n      dup5\n      sub\n      swap1\n      dup6\n      gas\n      staticcall\n      iszero\n      dup1\n      iszero\n      tag_49\n      jumpi\n      returndatasize\n      0x00\n      dup1\n      returndatacopy\n      revert(0x00, returndatasize)\n    tag_49:\n      pop\n      pop\n      mload(add(not(0x1f), mload(0x40)))\n      swap8\n        /* \"ERC721A/VerifySignature.sol\":1127:1401  function recoverSigner(... */\n      swap7\n      pop\n      pop\n      pop\n      pop\n      pop\n      pop\n      pop\n      jump\t// out\n        /* \"ERC721A/VerifySignature.sol\":1409:2300  function splitSignature(bytes memory sig)... */\n    tag_29:\n        /* \"ERC721A/VerifySignature.sol\":1513:1522  bytes32 r */\n      0x00\n        /* \"ERC721A/VerifySignature.sol\":1537:1546  bytes32 s */\n      dup1\n        /* \"ERC721A/VerifySignature.sol\":1561:1568  uint8 v */\n      0x00\n        /* \"ERC721A/VerifySignature.sol\":1604:1607  sig */\n      dup4\n        /* \"ERC721A/VerifySignature.sol\":1604:1614  sig.length */\n      mload\n        /* \"ERC721A/VerifySignature.sol\":1618:1620  65 */\n      0x41\n        /* \"ERC721A/VerifySignature.sol\":1604:1620  sig.length == 65 */\n      eq\n        /* \"ERC721A/VerifySignature.sol\":1596:1649  require(sig.length == 65, \"invalid signature length\") */\n      tag_51\n      jumpi\n      mload(0x40)\n      shl(0xe5, 0x461bcd)\n      dup2\n      mstore\n        /* \"#utility.yul\":4470:4472   */\n      0x20\n        /* \"ERC721A/VerifySignature.sol\":1596:1649  require(sig.length == 65, \"invalid signature length\") */\n      0x04\n      dup3\n      add\n        /* \"#utility.yul\":4452:4473   */\n      mstore\n        /* \"#utility.yul\":4509:4511   */\n      0x18\n        /* \"#utility.yul\":4489:4507   */\n      0x24\n      dup3\n      add\n        /* \"#utility.yul\":4482:4512   */\n      mstore\n        /* \"#utility.yul\":4548:4574   */\n      0x696e76616c6964207369676e6174757265206c656e6774680000000000000000\n        /* \"#utility.yul\":4528:4546   */\n      0x44\n      dup3\n      add\n        /* \"#utility.yul\":4521:4575   */\n      mstore\n        /* \"#utility.yul\":4592:4610   */\n      0x64\n      add\n        /* \"ERC721A/VerifySignature.sol\":1596:1649  require(sig.length == 65, \"invalid signature length\") */\n      mload(0x40)\n      dup1\n      swap2\n      sub\n      swap1\n      revert\n    tag_51:\n      pop\n      pop\n      pop\n        /* \"ERC721A/VerifySignature.sol\":2058:2060  32 */\n      0x20\n        /* \"ERC721A/VerifySignature.sol\":2049:2061  add(sig, 32) */\n      dup2\n      add\n        /* \"ERC721A/VerifySignature.sol\":2043:2062  mload(add(sig, 32)) */\n      mload\n        /* \"ERC721A/VerifySignature.sol\":2128:2130  64 */\n      0x40\n        /* \"ERC721A/VerifySignature.sol\":2119:2131  add(sig, 64) */\n      dup3\n      add\n        /* \"ERC721A/VerifySignature.sol\":2113:2132  mload(add(sig, 64)) */\n      mload\n        /* \"ERC721A/VerifySignature.sol\":2235:2237  96 */\n      0x60\n        /* \"ERC721A/VerifySignature.sol\":2226:2238  add(sig, 96) */\n      swap1\n      swap3\n      add\n        /* \"ERC721A/VerifySignature.sol\":2220:2239  mload(add(sig, 96)) */\n      mload\n        /* \"ERC721A/VerifySignature.sol\":2043:2062  mload(add(sig, 32)) */\n      swap1\n      swap3\n        /* \"ERC721A/VerifySignature.sol\":2217:2218  0 */\n      0x00\n        /* \"ERC721A/VerifySignature.sol\":2212:2240  byte(0, mload(add(sig, 96))) */\n      swap2\n      swap1\n      swap2\n      byte\n      swap1\n        /* \"ERC721A/VerifySignature.sol\":1409:2300  function splitSignature(bytes memory sig)... */\n      jump\t// out\n        /* \"ERC721A/VerifySignature.sol\":267:761  function getEthSignedMessageHash(bytes32 _messageHash)... */\n    tag_35:\n        /* \"ERC721A/VerifySignature.sol\":611:738  abi.encodePacked(... */\n      mload(0x40)\n        /* \"#utility.yul\":4863:4929   */\n      0x19457468657265756d205369676e6564204d6573736167653a0a333200000000\n        /* \"ERC721A/VerifySignature.sol\":611:738  abi.encodePacked(... */\n      0x20\n      dup3\n      add\n        /* \"#utility.yul\":4851:4930   */\n      mstore\n        /* \"#utility.yul\":4946:4958   */\n      0x3c\n      dup2\n      add\n        /* \"#utility.yul\":4939:4967   */\n      dup3\n      swap1\n      mstore\n        /* \"ERC721A/VerifySignature.sol\":370:377  bytes32 */\n      0x00\n      swap1\n        /* \"#utility.yul\":4983:4995   */\n      0x5c\n      add\n        /* \"ERC721A/VerifySignature.sol\":611:738  abi.encodePacked(... */\n      tag_38\n        /* \"#utility.yul\":4621:5001   */\n      jump\n        /* \"#utility.yul\":14:187   */\n    tag_57:\n        /* \"#utility.yul\":82:102   */\n      dup1\n      calldataload\n      sub(shl(0xa0, 0x01), 0x01)\n        /* \"#utility.yul\":131:162   */\n      dup2\n      and\n        /* \"#utility.yul\":121:163   */\n      dup2\n      eq\n        /* \"#utility.yul\":111:181   */\n      tag_62\n      jumpi\n        /* \"#utility.yul\":177:178   */\n      0x00\n        /* \"#utility.yul\":174:175   */\n      dup1\n        /* \"#utility.yul\":167:179   */\n      revert\n        /* \"#utility.yul\":111:181   */\n    tag_62:\n        /* \"#utility.yul\":14:187   */\n      swap2\n      swap1\n      pop\n      jump\t// out\n        /* \"#utility.yul\":192:378   */\n    tag_10:\n        /* \"#utility.yul\":251:257   */\n      0x00\n        /* \"#utility.yul\":304:306   */\n      0x20\n        /* \"#utility.yul\":292:301   */\n      dup3\n        /* \"#utility.yul\":283:290   */\n      dup5\n        /* \"#utility.yul\":279:302   */\n      sub\n        /* \"#utility.yul\":275:307   */\n      slt\n        /* \"#utility.yul\":272:324   */\n      iszero\n      tag_64\n      jumpi\n        /* \"#utility.yul\":320:321   */\n      0x00\n        /* \"#utility.yul\":317:318   */\n      dup1\n        /* \"#utility.yul\":310:322   */\n      revert\n        /* \"#utility.yul\":272:324   */\n    tag_64:\n        /* \"#utility.yul\":343:372   */\n      tag_65\n        /* \"#utility.yul\":362:371   */\n      dup3\n        /* \"#utility.yul\":343:372   */\n      tag_57\n      jump\t// in\n    tag_65:\n        /* \"#utility.yul\":333:372   */\n      swap4\n        /* \"#utility.yul\":192:378   */\n      swap3\n      pop\n      pop\n      pop\n      jump\t// out\n        /* \"#utility.yul\":565:692   */\n    tag_58:\n        /* \"#utility.yul\":626:636   */\n      0x4e487b71\n        /* \"#utility.yul\":621:624   */\n      0xe0\n        /* \"#utility.yul\":617:637   */\n      shl\n        /* \"#utility.yul\":614:615   */\n      0x00\n        /* \"#utility.yul\":607:638   */\n      mstore\n        /* \"#utility.yul\":657:661   */\n      0x41\n        /* \"#utility.yul\":654:655   */\n      0x04\n        /* \"#utility.yul\":647:662   */\n      mstore\n        /* \"#utility.yul\":681:685   */\n      0x24\n        /* \"#utility.yul\":678:679   */\n      0x00\n        /* \"#utility.yul\":671:686   */\n      revert\n        /* \"#utility.yul\":697:1415   */\n    tag_59:\n        /* \"#utility.yul\":739:744   */\n      0x00\n        /* \"#utility.yul\":792:795   */\n      dup3\n        /* \"#utility.yul\":785:789   */\n      0x1f\n        /* \"#utility.yul\":777:783   */\n      dup4\n        /* \"#utility.yul\":773:790   */\n      add\n        /* \"#utility.yul\":769:796   */\n      slt\n        /* \"#utility.yul\":759:814   */\n      tag_69\n      jumpi\n        /* \"#utility.yul\":810:811   */\n      0x00\n        /* \"#utility.yul\":807:808   */\n      dup1\n        /* \"#utility.yul\":800:812   */\n      revert\n        /* \"#utility.yul\":759:814   */\n    tag_69:\n        /* \"#utility.yul\":846:852   */\n      dup2\n        /* \"#utility.yul\":833:853   */\n      calldataload\n        /* \"#utility.yul\":872:890   */\n      0xffffffffffffffff\n        /* \"#utility.yul\":909:911   */\n      dup1\n        /* \"#utility.yul\":905:907   */\n      dup3\n        /* \"#utility.yul\":902:912   */\n      gt\n        /* \"#utility.yul\":899:935   */\n      iszero\n      tag_71\n      jumpi\n        /* \"#utility.yul\":915:933   */\n      tag_71\n      tag_58\n      jump\t// in\n    tag_71:\n        /* \"#utility.yul\":990:992   */\n      0x40\n        /* \"#utility.yul\":984:993   */\n      mload\n        /* \"#utility.yul\":958:960   */\n      0x1f\n        /* \"#utility.yul\":1044:1057   */\n      dup4\n      add\n      not(0x1f)\n        /* \"#utility.yul\":1040:1062   */\n      swap1\n      dup2\n      and\n        /* \"#utility.yul\":1064:1066   */\n      0x3f\n        /* \"#utility.yul\":1036:1067   */\n      add\n        /* \"#utility.yul\":1032:1072   */\n      and\n        /* \"#utility.yul\":1020:1073   */\n      dup2\n      add\n      swap1\n        /* \"#utility.yul\":1088:1106   */\n      dup3\n      dup3\n      gt\n        /* \"#utility.yul\":1108:1130   */\n      dup2\n      dup4\n      lt\n        /* \"#utility.yul\":1085:1131   */\n      or\n        /* \"#utility.yul\":1082:1154   */\n      iszero\n      tag_73\n      jumpi\n        /* \"#utility.yul\":1134:1152   */\n      tag_73\n      tag_58\n      jump\t// in\n    tag_73:\n        /* \"#utility.yul\":1174:1184   */\n      dup2\n        /* \"#utility.yul\":1170:1172   */\n      0x40\n        /* \"#utility.yul\":1163:1185   */\n      mstore\n        /* \"#utility.yul\":1209:1211   */\n      dup4\n        /* \"#utility.yul\":1201:1207   */\n      dup2\n        /* \"#utility.yul\":1194:1212   */\n      mstore\n        /* \"#utility.yul\":1255:1258   */\n      dup7\n        /* \"#utility.yul\":1248:1252   */\n      0x20\n        /* \"#utility.yul\":1243:1245   */\n      dup6\n        /* \"#utility.yul\":1235:1241   */\n      dup9\n        /* \"#utility.yul\":1231:1246   */\n      add\n        /* \"#utility.yul\":1227:1253   */\n      add\n        /* \"#utility.yul\":1224:1259   */\n      gt\n        /* \"#utility.yul\":1221:1276   */\n      iszero\n      tag_74\n      jumpi\n        /* \"#utility.yul\":1272:1273   */\n      0x00\n        /* \"#utility.yul\":1269:1270   */\n      dup1\n        /* \"#utility.yul\":1262:1274   */\n      revert\n        /* \"#utility.yul\":1221:1276   */\n    tag_74:\n        /* \"#utility.yul\":1336:1338   */\n      dup4\n        /* \"#utility.yul\":1329:1333   */\n      0x20\n        /* \"#utility.yul\":1321:1327   */\n      dup8\n        /* \"#utility.yul\":1317:1334   */\n      add\n        /* \"#utility.yul\":1310:1314   */\n      0x20\n        /* \"#utility.yul\":1302:1308   */\n      dup4\n        /* \"#utility.yul\":1298:1315   */\n      add\n        /* \"#utility.yul\":1285:1339   */\n      calldatacopy\n        /* \"#utility.yul\":1383:1384   */\n      0x00\n        /* \"#utility.yul\":1376:1380   */\n      0x20\n        /* \"#utility.yul\":1371:1373   */\n      dup6\n        /* \"#utility.yul\":1363:1369   */\n      dup4\n        /* \"#utility.yul\":1359:1374   */\n      add\n        /* \"#utility.yul\":1355:1381   */\n      add\n        /* \"#utility.yul\":1348:1385   */\n      mstore\n        /* \"#utility.yul\":1403:1409   */\n      dup1\n        /* \"#utility.yul\":1394:1409   */\n      swap5\n      pop\n      pop\n      pop\n      pop\n      pop\n        /* \"#utility.yul\":697:1415   */\n      swap3\n      swap2\n      pop\n      pop\n      jump\t// out\n        /* \"#utility.yul\":1420:1888   */\n    tag_16:\n        /* \"#utility.yul\":1506:1512   */\n      0x00\n        /* \"#utility.yul\":1514:1520   */\n      dup1\n        /* \"#utility.yul\":1522:1528   */\n      0x00\n        /* \"#utility.yul\":1575:1577   */\n      0x60\n        /* \"#utility.yul\":1563:1572   */\n      dup5\n        /* \"#utility.yul\":1554:1561   */\n      dup7\n        /* \"#utility.yul\":1550:1573   */\n      sub\n        /* \"#utility.yul\":1546:1578   */\n      slt\n        /* \"#utility.yul\":1543:1595   */\n      iszero\n      tag_76\n      jumpi\n        /* \"#utility.yul\":1591:1592   */\n      0x00\n        /* \"#utility.yul\":1588:1589   */\n      dup1\n        /* \"#utility.yul\":1581:1593   */\n      revert\n        /* \"#utility.yul\":1543:1595   */\n    tag_76:\n        /* \"#utility.yul\":1614:1643   */\n      tag_77\n        /* \"#utility.yul\":1633:1642   */\n      dup5\n        /* \"#utility.yul\":1614:1643   */\n      tag_57\n      jump\t// in\n    tag_77:\n        /* \"#utility.yul\":1604:1643   */\n      swap3\n      pop\n        /* \"#utility.yul\":1662:1700   */\n      tag_78\n        /* \"#utility.yul\":1696:1698   */\n      0x20\n        /* \"#utility.yul\":1685:1694   */\n      dup6\n        /* \"#utility.yul\":1681:1699   */\n      add\n        /* \"#utility.yul\":1662:1700   */\n      tag_57\n      jump\t// in\n    tag_78:\n        /* \"#utility.yul\":1652:1700   */\n      swap2\n      pop\n        /* \"#utility.yul\":1751:1753   */\n      0x40\n        /* \"#utility.yul\":1740:1749   */\n      dup5\n        /* \"#utility.yul\":1736:1754   */\n      add\n        /* \"#utility.yul\":1723:1755   */\n      calldataload\n        /* \"#utility.yul\":1778:1796   */\n      0xffffffffffffffff\n        /* \"#utility.yul\":1770:1776   */\n      dup2\n        /* \"#utility.yul\":1767:1797   */\n      gt\n        /* \"#utility.yul\":1764:1814   */\n      iszero\n      tag_79\n      jumpi\n        /* \"#utility.yul\":1810:1811   */\n      0x00\n        /* \"#utility.yul\":1807:1808   */\n      dup1\n        /* \"#utility.yul\":1800:1812   */\n      revert\n        /* \"#utility.yul\":1764:1814   */\n    tag_79:\n        /* \"#utility.yul\":1833:1882   */\n      tag_80\n        /* \"#utility.yul\":1874:1881   */\n      dup7\n        /* \"#utility.yul\":1865:1871   */\n      dup3\n        /* \"#utility.yul\":1854:1863   */\n      dup8\n        /* \"#utility.yul\":1850:1872   */\n      add\n        /* \"#utility.yul\":1833:1882   */\n      tag_59\n      jump\t// in\n    tag_80:\n        /* \"#utility.yul\":1823:1882   */\n      swap2\n      pop\n      pop\n        /* \"#utility.yul\":1420:1888   */\n      swap3\n      pop\n      swap3\n      pop\n      swap3\n      jump\t// out\n        /* \"#utility.yul\":2085:2473   */\n    tag_22:\n        /* \"#utility.yul\":2162:2168   */\n      0x00\n        /* \"#utility.yul\":2170:2176   */\n      dup1\n        /* \"#utility.yul\":2223:2225   */\n      0x40\n        /* \"#utility.yul\":2211:2220   */\n      dup4\n        /* \"#utility.yul\":2202:2209   */\n      dup6\n        /* \"#utility.yul\":2198:2221   */\n      sub\n        /* \"#utility.yul\":2194:2226   */\n      slt\n        /* \"#utility.yul\":2191:2243   */\n      iszero\n      tag_83\n      jumpi\n        /* \"#utility.yul\":2239:2240   */\n      0x00\n        /* \"#utility.yul\":2236:2237   */\n      dup1\n        /* \"#utility.yul\":2229:2241   */\n      revert\n        /* \"#utility.yul\":2191:2243   */\n    tag_83:\n        /* \"#utility.yul\":2275:2284   */\n      dup3\n        /* \"#utility.yul\":2262:2285   */\n      calldataload\n        /* \"#utility.yul\":2252:2285   */\n      swap2\n      pop\n        /* \"#utility.yul\":2336:2338   */\n      0x20\n        /* \"#utility.yul\":2325:2334   */\n      dup4\n        /* \"#utility.yul\":2321:2339   */\n      add\n        /* \"#utility.yul\":2308:2340   */\n      calldataload\n        /* \"#utility.yul\":2363:2381   */\n      0xffffffffffffffff\n        /* \"#utility.yul\":2355:2361   */\n      dup2\n        /* \"#utility.yul\":2352:2382   */\n      gt\n        /* \"#utility.yul\":2349:2399   */\n      iszero\n      tag_84\n      jumpi\n        /* \"#utility.yul\":2395:2396   */\n      0x00\n        /* \"#utility.yul\":2392:2393   */\n      dup1\n        /* \"#utility.yul\":2385:2397   */\n      revert\n        /* \"#utility.yul\":2349:2399   */\n    tag_84:\n        /* \"#utility.yul\":2418:2467   */\n      tag_85\n        /* \"#utility.yul\":2459:2466   */\n      dup6\n        /* \"#utility.yul\":2450:2456   */\n      dup3\n        /* \"#utility.yul\":2439:2448   */\n      dup7\n        /* \"#utility.yul\":2435:2457   */\n      add\n        /* \"#utility.yul\":2418:2467   */\n      tag_59\n      jump\t// in\n    tag_85:\n        /* \"#utility.yul\":2408:2467   */\n      swap2\n      pop\n      pop\n        /* \"#utility.yul\":2085:2473   */\n      swap3\n      pop\n      swap3\n      swap1\n      pop\n      jump\t// out\n        /* \"#utility.yul\":2686:3006   */\n    tag_28:\n        /* \"#utility.yul\":2754:2760   */\n      0x00\n        /* \"#utility.yul\":2807:2809   */\n      0x20\n        /* \"#utility.yul\":2795:2804   */\n      dup3\n        /* \"#utility.yul\":2786:2793   */\n      dup5\n        /* \"#utility.yul\":2782:2805   */\n      sub\n        /* \"#utility.yul\":2778:2810   */\n      slt\n        /* \"#utility.yul\":2775:2827   */\n      iszero\n      tag_88\n      jumpi\n        /* \"#utility.yul\":2823:2824   */\n      0x00\n        /* \"#utility.yul\":2820:2821   */\n      dup1\n        /* \"#utility.yul\":2813:2825   */\n      revert\n        /* \"#utility.yul\":2775:2827   */\n    tag_88:\n        /* \"#utility.yul\":2863:2872   */\n      dup2\n        /* \"#utility.yul\":2850:2873   */\n      calldataload\n        /* \"#utility.yul\":2896:2914   */\n      0xffffffffffffffff\n        /* \"#utility.yul\":2888:2894   */\n      dup2\n        /* \"#utility.yul\":2885:2915   */\n      gt\n        /* \"#utility.yul\":2882:2932   */\n      iszero\n      tag_89\n      jumpi\n        /* \"#utility.yul\":2928:2929   */\n      0x00\n        /* \"#utility.yul\":2925:2926   */\n      dup1\n        /* \"#utility.yul\":2918:2930   */\n      revert\n        /* \"#utility.yul\":2882:2932   */\n    tag_89:\n        /* \"#utility.yul\":2951:3000   */\n      tag_90\n        /* \"#utility.yul\":2992:2999   */\n      dup5\n        /* \"#utility.yul\":2983:2989   */\n      dup3\n        /* \"#utility.yul\":2972:2981   */\n      dup6\n        /* \"#utility.yul\":2968:2990   */\n      add\n        /* \"#utility.yul\":2951:3000   */\n      tag_59\n      jump\t// in\n    tag_90:\n        /* \"#utility.yul\":2941:3000   */\n      swap5\n        /* \"#utility.yul\":2686:3006   */\n      swap4\n      pop\n      pop\n      pop\n      pop\n      jump\t// out\n        /* \"#utility.yul\":3342:3522   */\n    tag_34:\n        /* \"#utility.yul\":3401:3407   */\n      0x00\n        /* \"#utility.yul\":3454:3456   */\n      0x20\n        /* \"#utility.yul\":3442:3451   */\n      dup3\n        /* \"#utility.yul\":3433:3440   */\n      dup5\n        /* \"#utility.yul\":3429:3452   */\n      sub\n        /* \"#utility.yul\":3425:3457   */\n      slt\n        /* \"#utility.yul\":3422:3474   */\n      iszero\n      tag_93\n      jumpi\n        /* \"#utility.yul\":3470:3471   */\n      0x00\n        /* \"#utility.yul\":3467:3468   */\n      dup1\n        /* \"#utility.yul\":3460:3472   */\n      revert\n        /* \"#utility.yul\":3422:3474   */\n    tag_93:\n      pop\n        /* \"#utility.yul\":3493:3516   */\n      calldataload\n      swap2\n        /* \"#utility.yul\":3342:3522   */\n      swap1\n      pop\n      jump\t// out\n\n    auxdata: 0xa26469706673582212204bd3a502567a1edbd5ebf7012501299fc763cc387d434dd37975771b1f7d6b4764736f6c634300080f0033\n}\n",
				"bytecode": {
					"linkReferences": {},
					"object": "608060405234801561001057600080fd5b506104e5806100206000396000f3fe608060405234801561001057600080fd5b50600436106100575760003560e01c80631f5ac1b21461005c57806342920a461461008257806397aba7f9146100a5578063a7bb5803146100d0578063fa54080114610101575b600080fd5b61006f61006a3660046102ef565b610114565b6040519081526020015b60405180910390f35b6100956100903660046103b4565b61015e565b6040519015158152602001610079565b6100b86100b3366004610412565b6101a1565b6040516001600160a01b039091168152602001610079565b6100e36100de366004610459565b610220565b60408051938452602084019290925260ff1690820152606001610079565b61006f61010f366004610496565b610298565b6040516bffffffffffffffffffffffff19606083811b8216602084015230901b1660348201526000906048015b604051602081830303815290604052805190602001209050919050565b60008061016a84610114565b9050600061017782610298565b9050856001600160a01b031661018d82866101a1565b6001600160a01b0316149695505050505050565b6000806000806101b085610220565b6040805160008152602081018083528b905260ff8316918101919091526060810184905260808101839052929550909350915060019060a0016020604051602081039080840390855afa15801561020b573d6000803e3d6000fd5b5050604051601f190151979650505050505050565b6000806000835160411461027a5760405162461bcd60e51b815260206004820152601860248201527f696e76616c6964207369676e6174757265206c656e6774680000000000000000604482015260640160405180910390fd5b50505060208101516040820151606090920151909260009190911a90565b6040517f19457468657265756d205369676e6564204d6573736167653a0a3332000000006020820152603c8101829052600090605c01610141565b80356001600160a01b03811681146102ea57600080fd5b919050565b60006020828403121561030157600080fd5b61030a826102d3565b9392505050565b634e487b7160e01b600052604160045260246000fd5b600082601f83011261033857600080fd5b813567ffffffffffffffff8082111561035357610353610311565b604051601f8301601f19908116603f0116810190828211818310171561037b5761037b610311565b8160405283815286602085880101111561039457600080fd5b836020870160208301376000602085830101528094505050505092915050565b6000806000606084860312156103c957600080fd5b6103d2846102d3565b92506103e0602085016102d3565b9150604084013567ffffffffffffffff8111156103fc57600080fd5b61040886828701610327565b9150509250925092565b6000806040838503121561042557600080fd5b82359150602083013567ffffffffffffffff81111561044357600080fd5b61044f85828601610327565b9150509250929050565b60006020828403121561046b57600080fd5b813567ffffffffffffffff81111561048257600080fd5b61048e84828501610327565b949350505050565b6000602082840312156104a857600080fd5b503591905056fea26469706673582212204bd3a502567a1edbd5ebf7012501299fc763cc387d434dd37975771b1f7d6b4764736f6c634300080f0033",
					"opcodes": "PUSH1 0x80 PUSH1 0x40 MSTORE CALLVALUE DUP1 ISZERO PUSH2 0x10 JUMPI PUSH1 0x0 DUP1 REVERT JUMPDEST POP PUSH2 0x4E5 DUP1 PUSH2 0x20 PUSH1 0x0 CODECOPY PUSH1 0x0 RETURN INVALID PUSH1 0x80 PUSH1 0x40 MSTORE CALLVALUE DUP1 ISZERO PUSH2 0x10 JUMPI PUSH1 0x0 DUP1 REVERT JUMPDEST POP PUSH1 0x4 CALLDATASIZE LT PUSH2 0x57 JUMPI PUSH1 0x0 CALLDATALOAD PUSH1 0xE0 SHR DUP1 PUSH4 0x1F5AC1B2 EQ PUSH2 0x5C JUMPI DUP1 PUSH4 0x42920A46 EQ PUSH2 0x82 JUMPI DUP1 PUSH4 0x97ABA7F9 EQ PUSH2 0xA5 JUMPI DUP1 PUSH4 0xA7BB5803 EQ PUSH2 0xD0 JUMPI DUP1 PUSH4 0xFA540801 EQ PUSH2 0x101 JUMPI JUMPDEST PUSH1 0x0 DUP1 REVERT JUMPDEST PUSH2 0x6F PUSH2 0x6A CALLDATASIZE PUSH1 0x4 PUSH2 0x2EF JUMP JUMPDEST PUSH2 0x114 JUMP JUMPDEST PUSH1 0x40 MLOAD SWAP1 DUP2 MSTORE PUSH1 0x20 ADD JUMPDEST PUSH1 0x40 MLOAD DUP1 SWAP2 SUB SWAP1 RETURN JUMPDEST PUSH2 0x95 PUSH2 0x90 CALLDATASIZE PUSH1 0x4 PUSH2 0x3B4 JUMP JUMPDEST PUSH2 0x15E JUMP JUMPDEST PUSH1 0x40 MLOAD SWAP1 ISZERO ISZERO DUP2 MSTORE PUSH1 0x20 ADD PUSH2 0x79 JUMP JUMPDEST PUSH2 0xB8 PUSH2 0xB3 CALLDATASIZE PUSH1 0x4 PUSH2 0x412 JUMP JUMPDEST PUSH2 0x1A1 JUMP JUMPDEST PUSH1 0x40 MLOAD PUSH1 0x1 PUSH1 0x1 PUSH1 0xA0 SHL SUB SWAP1 SWAP2 AND DUP2 MSTORE PUSH1 0x20 ADD PUSH2 0x79 JUMP JUMPDEST PUSH2 0xE3 PUSH2 0xDE CALLDATASIZE PUSH1 0x4 PUSH2 0x459 JUMP JUMPDEST PUSH2 0x220 JUMP JUMPDEST PUSH1 0x40 DUP1 MLOAD SWAP4 DUP5 MSTORE PUSH1 0x20 DUP5 ADD SWAP3 SWAP1 SWAP3 MSTORE PUSH1 0xFF AND SWAP1 DUP3 ADD MSTORE PUSH1 0x60 ADD PUSH2 0x79 JUMP JUMPDEST PUSH2 0x6F PUSH2 0x10F CALLDATASIZE PUSH1 0x4 PUSH2 0x496 JUMP JUMPDEST PUSH2 0x298 JUMP JUMPDEST PUSH1 0x40 MLOAD PUSH12 0xFFFFFFFFFFFFFFFFFFFFFFFF NOT PUSH1 0x60 DUP4 DUP2 SHL DUP3 AND PUSH1 0x20 DUP5 ADD MSTORE ADDRESS SWAP1 SHL AND PUSH1 0x34 DUP3 ADD MSTORE PUSH1 0x0 SWAP1 PUSH1 0x48 ADD JUMPDEST PUSH1 0x40 MLOAD PUSH1 0x20 DUP2 DUP4 SUB SUB DUP2 MSTORE SWAP1 PUSH1 0x40 MSTORE DUP1 MLOAD SWAP1 PUSH1 0x20 ADD KECCAK256 SWAP1 POP SWAP2 SWAP1 POP JUMP JUMPDEST PUSH1 0x0 DUP1 PUSH2 0x16A DUP5 PUSH2 0x114 JUMP JUMPDEST SWAP1 POP PUSH1 0x0 PUSH2 0x177 DUP3 PUSH2 0x298 JUMP JUMPDEST SWAP1 POP DUP6 PUSH1 0x1 PUSH1 0x1 PUSH1 0xA0 SHL SUB AND PUSH2 0x18D DUP3 DUP7 PUSH2 0x1A1 JUMP JUMPDEST PUSH1 0x1 PUSH1 0x1 PUSH1 0xA0 SHL SUB AND EQ SWAP7 SWAP6 POP POP POP POP POP POP JUMP JUMPDEST PUSH1 0x0 DUP1 PUSH1 0x0 DUP1 PUSH2 0x1B0 DUP6 PUSH2 0x220 JUMP JUMPDEST PUSH1 0x40 DUP1 MLOAD PUSH1 0x0 DUP2 MSTORE PUSH1 0x20 DUP2 ADD DUP1 DUP4 MSTORE DUP12 SWAP1 MSTORE PUSH1 0xFF DUP4 AND SWAP2 DUP2 ADD SWAP2 SWAP1 SWAP2 MSTORE PUSH1 0x60 DUP2 ADD DUP5 SWAP1 MSTORE PUSH1 0x80 DUP2 ADD DUP4 SWAP1 MSTORE SWAP3 SWAP6 POP SWAP1 SWAP4 POP SWAP2 POP PUSH1 0x1 SWAP1 PUSH1 0xA0 ADD PUSH1 0x20 PUSH1 0x40 MLOAD PUSH1 0x20 DUP2 SUB SWAP1 DUP1 DUP5 SUB SWAP1 DUP6 GAS STATICCALL ISZERO DUP1 ISZERO PUSH2 0x20B JUMPI RETURNDATASIZE PUSH1 0x0 DUP1 RETURNDATACOPY RETURNDATASIZE PUSH1 0x0 REVERT JUMPDEST POP POP PUSH1 0x40 MLOAD PUSH1 0x1F NOT ADD MLOAD SWAP8 SWAP7 POP POP POP POP POP POP POP JUMP JUMPDEST PUSH1 0x0 DUP1 PUSH1 0x0 DUP4 MLOAD PUSH1 0x41 EQ PUSH2 0x27A JUMPI PUSH1 0x40 MLOAD PUSH3 0x461BCD PUSH1 0xE5 SHL DUP2 MSTORE PUSH1 0x20 PUSH1 0x4 DUP3 ADD MSTORE PUSH1 0x18 PUSH1 0x24 DUP3 ADD MSTORE PUSH32 0x696E76616C6964207369676E6174757265206C656E6774680000000000000000 PUSH1 0x44 DUP3 ADD MSTORE PUSH1 0x64 ADD PUSH1 0x40 MLOAD DUP1 SWAP2 SUB SWAP1 REVERT JUMPDEST POP POP POP PUSH1 0x20 DUP2 ADD MLOAD PUSH1 0x40 DUP3 ADD MLOAD PUSH1 0x60 SWAP1 SWAP3 ADD MLOAD SWAP1 SWAP3 PUSH1 0x0 SWAP2 SWAP1 SWAP2 BYTE SWAP1 JUMP JUMPDEST PUSH1 0x40 MLOAD PUSH32 0x19457468657265756D205369676E6564204D6573736167653A0A333200000000 PUSH1 0x20 DUP3 ADD MSTORE PUSH1 0x3C DUP2 ADD DUP3 SWAP1 MSTORE PUSH1 0x0 SWAP1 PUSH1 0x5C ADD PUSH2 0x141 JUMP JUMPDEST DUP1 CALLDATALOAD PUSH1 0x1 PUSH1 0x1 PUSH1 0xA0 SHL SUB DUP2 AND DUP2 EQ PUSH2 0x2EA JUMPI PUSH1 0x0 DUP1 REVERT JUMPDEST SWAP2 SWAP1 POP JUMP JUMPDEST PUSH1 0x0 PUSH1 0x20 DUP3 DUP5 SUB SLT ISZERO PUSH2 0x301 JUMPI PUSH1 0x0 DUP1 REVERT JUMPDEST PUSH2 0x30A DUP3 PUSH2 0x2D3 JUMP JUMPDEST SWAP4 SWAP3 POP POP POP JUMP JUMPDEST PUSH4 0x4E487B71 PUSH1 0xE0 SHL PUSH1 0x0 MSTORE PUSH1 0x41 PUSH1 0x4 MSTORE PUSH1 0x24 PUSH1 0x0 REVERT JUMPDEST PUSH1 0x0 DUP3 PUSH1 0x1F DUP4 ADD SLT PUSH2 0x338 JUMPI PUSH1 0x0 DUP1 REVERT JUMPDEST DUP2 CALLDATALOAD PUSH8 0xFFFFFFFFFFFFFFFF DUP1 DUP3 GT ISZERO PUSH2 0x353 JUMPI PUSH2 0x353 PUSH2 0x311 JUMP JUMPDEST PUSH1 0x40 MLOAD PUSH1 0x1F DUP4 ADD PUSH1 0x1F NOT SWAP1 DUP2 AND PUSH1 0x3F ADD AND DUP2 ADD SWAP1 DUP3 DUP3 GT DUP2 DUP4 LT OR ISZERO PUSH2 0x37B JUMPI PUSH2 0x37B PUSH2 0x311 JUMP JUMPDEST DUP2 PUSH1 0x40 MSTORE DUP4 DUP2 MSTORE DUP7 PUSH1 0x20 DUP6 DUP9 ADD ADD GT ISZERO PUSH2 0x394 JUMPI PUSH1 0x0 DUP1 REVERT JUMPDEST DUP4 PUSH1 0x20 DUP8 ADD PUSH1 0x20 DUP4 ADD CALLDATACOPY PUSH1 0x0 PUSH1 0x20 DUP6 DUP4 ADD ADD MSTORE DUP1 SWAP5 POP POP POP POP POP SWAP3 SWAP2 POP POP JUMP JUMPDEST PUSH1 0x0 DUP1 PUSH1 0x0 PUSH1 0x60 DUP5 DUP7 SUB SLT ISZERO PUSH2 0x3C9 JUMPI PUSH1 0x0 DUP1 REVERT JUMPDEST PUSH2 0x3D2 DUP5 PUSH2 0x2D3 JUMP JUMPDEST SWAP3 POP PUSH2 0x3E0 PUSH1 0x20 DUP6 ADD PUSH2 0x2D3 JUMP JUMPDEST SWAP2 POP PUSH1 0x40 DUP5 ADD CALLDATALOAD PUSH8 0xFFFFFFFFFFFFFFFF DUP2 GT ISZERO PUSH2 0x3FC JUMPI PUSH1 0x0 DUP1 REVERT JUMPDEST PUSH2 0x408 DUP7 DUP3 DUP8 ADD PUSH2 0x327 JUMP JUMPDEST SWAP2 POP POP SWAP3 POP SWAP3 POP SWAP3 JUMP JUMPDEST PUSH1 0x0 DUP1 PUSH1 0x40 DUP4 DUP6 SUB SLT ISZERO PUSH2 0x425 JUMPI PUSH1 0x0 DUP1 REVERT JUMPDEST DUP3 CALLDATALOAD SWAP2 POP PUSH1 0x20 DUP4 ADD CALLDATALOAD PUSH8 0xFFFFFFFFFFFFFFFF DUP2 GT ISZERO PUSH2 0x443 JUMPI PUSH1 0x0 DUP1 REVERT JUMPDEST PUSH2 0x44F DUP6 DUP3 DUP7 ADD PUSH2 0x327 JUMP JUMPDEST SWAP2 POP POP SWAP3 POP SWAP3 SWAP1 POP JUMP JUMPDEST PUSH1 0x0 PUSH1 0x20 DUP3 DUP5 SUB SLT ISZERO PUSH2 0x46B JUMPI PUSH1 0x0 DUP1 REVERT JUMPDEST DUP2 CALLDATALOAD PUSH8 0xFFFFFFFFFFFFFFFF DUP2 GT ISZERO PUSH2 0x482 JUMPI PUSH1 0x0 DUP1 REVERT JUMPDEST PUSH2 0x48E DUP5 DUP3 DUP6 ADD PUSH2 0x327 JUMP JUMPDEST SWAP5 SWAP4 POP POP POP POP JUMP JUMPDEST PUSH1 0x0 PUSH1 0x20 DUP3 DUP5 SUB SLT ISZERO PUSH2 0x4A8 JUMPI PUSH1 0x0 DUP1 REVERT JUMPDEST POP CALLDATALOAD SWAP2 SWAP1 POP JUMP INVALID LOG2 PUSH5 0x6970667358 0x22 SLT KECCAK256 0x4B 0xD3 0xA5 MUL JUMP PUSH27 0x1EDBD5EBF7012501299FC763CC387D434DD37975771B1F7D6B4764 PUSH20 0x6F6C634300080F00330000000000000000000000 "
				},
				"gasEstimates": {
					"creation": {
						"codeDepositCost": "250600",
						"executionCost": "294",
						"totalCost": "250894"
					},
					"external": {
						"getEthSignedMessageHash(bytes32)": "511",
						"getMessageHash(address)": "519",
						"recoverSigner(bytes32,bytes)": "infinite",
						"splitSignature(bytes)": "infinite",
						"verify(address,address,bytes)": "infinite"
					}
				},
				"methodIdentifiers": {
					"getEthSignedMessageHash(bytes32)": "fa540801",
					"getMessageHash(address)": "1f5ac1b2",
					"recoverSigner(bytes32,bytes)": "97aba7f9",
					"splitSignature(bytes)": "a7bb5803",
					"verify(address,address,bytes)": "42920a46"
				}
			},
			"storageLayout": {
				"storage": [],
				"types": null
			},
			"userdoc": {
				"kind": "user",
				"methods": {},
				"version": 1
			}
		}
	}
}