{
	"ERC721A/MintNagaKids.sol": {
		"MintNagaKids": {
			"abi": [
				{
					"inputs": [
						{
							"internalType": "contract INagaKid",
							"name": "_nagaKidContract",
							"type": "address"
						},
						{
							"internalType": "bytes32",
							"name": "_merkleRoot",
							"type": "bytes32"
						}
					],
					"stateMutability": "nonpayable",
					"type": "constructor"
				},
				{
					"anonymous": false,
					"inputs": [
						{
							"indexed": false,
							"internalType": "bytes32",
							"name": "merkleRootBefore",
							"type": "bytes32"
						},
						{
							"indexed": false,
							"internalType": "bytes32",
							"name": "merkleRootAfter",
							"type": "bytes32"
						}
					],
					"name": "MerkleRootChanged",
					"type": "event"
				},
				{
					"anonymous": false,
					"inputs": [
						{
							"indexed": true,
							"internalType": "address",
							"name": "user",
							"type": "address"
						},
						{
							"indexed": false,
							"internalType": "uint256",
							"name": "amount",
							"type": "uint256"
						},
						{
							"indexed": false,
							"internalType": "uint256",
							"name": "timestamp",
							"type": "uint256"
						}
					],
					"name": "Minted",
					"type": "event"
				},
				{
					"anonymous": false,
					"inputs": [
						{
							"indexed": false,
							"internalType": "address",
							"name": "nagaKidBefore",
							"type": "address"
						},
						{
							"indexed": false,
							"internalType": "address",
							"name": "nagaKidAfter",
							"type": "address"
						}
					],
					"name": "NagaKidContractChanged",
					"type": "event"
				},
				{
					"anonymous": false,
					"inputs": [
						{
							"indexed": true,
							"internalType": "bytes32",
							"name": "role",
							"type": "bytes32"
						},
						{
							"indexed": true,
							"internalType": "bytes32",
							"name": "previousAdminRole",
							"type": "bytes32"
						},
						{
							"indexed": true,
							"internalType": "bytes32",
							"name": "newAdminRole",
							"type": "bytes32"
						}
					],
					"name": "RoleAdminChanged",
					"type": "event"
				},
				{
					"anonymous": false,
					"inputs": [
						{
							"indexed": true,
							"internalType": "bytes32",
							"name": "role",
							"type": "bytes32"
						},
						{
							"indexed": true,
							"internalType": "address",
							"name": "account",
							"type": "address"
						},
						{
							"indexed": true,
							"internalType": "address",
							"name": "sender",
							"type": "address"
						}
					],
					"name": "RoleGranted",
					"type": "event"
				},
				{
					"anonymous": false,
					"inputs": [
						{
							"indexed": true,
							"internalType": "bytes32",
							"name": "role",
							"type": "bytes32"
						},
						{
							"indexed": true,
							"internalType": "address",
							"name": "account",
							"type": "address"
						},
						{
							"indexed": true,
							"internalType": "address",
							"name": "sender",
							"type": "address"
						}
					],
					"name": "RoleRevoked",
					"type": "event"
				},
				{
					"anonymous": false,
					"inputs": [
						{
							"indexed": false,
							"internalType": "bytes32",
							"name": "roundBefore",
							"type": "bytes32"
						},
						{
							"indexed": false,
							"internalType": "bytes32",
							"name": "roundAfter",
							"type": "bytes32"
						}
					],
					"name": "RoundChanged",
					"type": "event"
				},
				{
					"anonymous": false,
					"inputs": [
						{
							"indexed": false,
							"internalType": "address",
							"name": "to",
							"type": "address"
						},
						{
							"indexed": false,
							"internalType": "uint256",
							"name": "balanceOFContract",
							"type": "uint256"
						},
						{
							"indexed": false,
							"internalType": "uint256",
							"name": "timestamp",
							"type": "uint256"
						}
					],
					"name": "Withdraw",
					"type": "event"
				},
				{
					"anonymous": false,
					"inputs": [
						{
							"indexed": false,
							"internalType": "address",
							"name": "to",
							"type": "address"
						},
						{
							"indexed": false,
							"internalType": "address",
							"name": "currency",
							"type": "address"
						},
						{
							"indexed": false,
							"internalType": "uint256",
							"name": "balanceOfContract",
							"type": "uint256"
						},
						{
							"indexed": false,
							"internalType": "uint256",
							"name": "timestamp",
							"type": "uint256"
						}
					],
					"name": "WithdrawCurrency",
					"type": "event"
				},
				{
					"anonymous": false,
					"inputs": [
						{
							"indexed": false,
							"internalType": "address",
							"name": "to",
							"type": "address"
						},
						{
							"indexed": false,
							"internalType": "address",
							"name": "NFT",
							"type": "address"
						},
						{
							"indexed": false,
							"internalType": "uint256",
							"name": "tokenId",
							"type": "uint256"
						},
						{
							"indexed": false,
							"internalType": "uint256",
							"name": "timestamp",
							"type": "uint256"
						}
					],
					"name": "WithdrawNFT",
					"type": "event"
				},
				{
					"inputs": [],
					"name": "DEFAULT",
					"outputs": [
						{
							"internalType": "bytes32",
							"name": "",
							"type": "bytes32"
						}
					],
					"stateMutability": "view",
					"type": "function"
				},
				{
					"inputs": [],
					"name": "DEFAULT_ADMIN_ROLE",
					"outputs": [
						{
							"internalType": "bytes32",
							"name": "",
							"type": "bytes32"
						}
					],
					"stateMutability": "view",
					"type": "function"
				},
				{
					"inputs": [],
					"name": "NAGA_HOLDER_MINT_ROUND",
					"outputs": [
						{
							"internalType": "bytes32",
							"name": "",
							"type": "bytes32"
						}
					],
					"stateMutability": "view",
					"type": "function"
				},
				{
					"inputs": [],
					"name": "SPECIAL_MINT_ROUND",
					"outputs": [
						{
							"internalType": "bytes32",
							"name": "",
							"type": "bytes32"
						}
					],
					"stateMutability": "view",
					"type": "function"
				},
				{
					"inputs": [],
					"name": "WHITELIST_MINT_ROUND",
					"outputs": [
						{
							"internalType": "bytes32",
							"name": "",
							"type": "bytes32"
						}
					],
					"stateMutability": "view",
					"type": "function"
				},
				{
					"inputs": [],
					"name": "WITHDRAW_ROLE",
					"outputs": [
						{
							"internalType": "bytes32",
							"name": "",
							"type": "bytes32"
						}
					],
					"stateMutability": "view",
					"type": "function"
				},
				{
					"inputs": [],
					"name": "currentMintRound",
					"outputs": [
						{
							"internalType": "bytes32",
							"name": "",
							"type": "bytes32"
						}
					],
					"stateMutability": "view",
					"type": "function"
				},
				{
					"inputs": [],
					"name": "getMaxSupply",
					"outputs": [
						{
							"internalType": "uint256",
							"name": "",
							"type": "uint256"
						}
					],
					"stateMutability": "view",
					"type": "function"
				},
				{
					"inputs": [
						{
							"internalType": "bytes32",
							"name": "role",
							"type": "bytes32"
						}
					],
					"name": "getRoleAdmin",
					"outputs": [
						{
							"internalType": "bytes32",
							"name": "",
							"type": "bytes32"
						}
					],
					"stateMutability": "view",
					"type": "function"
				},
				{
					"inputs": [],
					"name": "getTotalSupply",
					"outputs": [
						{
							"internalType": "uint256",
							"name": "",
							"type": "uint256"
						}
					],
					"stateMutability": "view",
					"type": "function"
				},
				{
					"inputs": [
						{
							"internalType": "bytes32",
							"name": "role",
							"type": "bytes32"
						},
						{
							"internalType": "address",
							"name": "account",
							"type": "address"
						}
					],
					"name": "grantRole",
					"outputs": [],
					"stateMutability": "nonpayable",
					"type": "function"
				},
				{
					"inputs": [
						{
							"internalType": "bytes32",
							"name": "role",
							"type": "bytes32"
						},
						{
							"internalType": "address",
							"name": "account",
							"type": "address"
						}
					],
					"name": "hasRole",
					"outputs": [
						{
							"internalType": "bool",
							"name": "",
							"type": "bool"
						}
					],
					"stateMutability": "view",
					"type": "function"
				},
				{
					"inputs": [
						{
							"internalType": "address",
							"name": "_user",
							"type": "address"
						},
						{
							"internalType": "bytes32",
							"name": "_round",
							"type": "bytes32"
						}
					],
					"name": "isUserMinted",
					"outputs": [
						{
							"internalType": "bool",
							"name": "",
							"type": "bool"
						}
					],
					"stateMutability": "view",
					"type": "function"
				},
				{
					"inputs": [],
					"name": "merkleRoot",
					"outputs": [
						{
							"internalType": "bytes32",
							"name": "",
							"type": "bytes32"
						}
					],
					"stateMutability": "view",
					"type": "function"
				},
				{
					"inputs": [
						{
							"internalType": "bytes32[]",
							"name": "_proof",
							"type": "bytes32[]"
						},
						{
							"internalType": "uint256",
							"name": "_amount",
							"type": "uint256"
						},
						{
							"internalType": "bytes32",
							"name": "_round",
							"type": "bytes32"
						}
					],
					"name": "mint",
					"outputs": [],
					"stateMutability": "payable",
					"type": "function"
				},
				{
					"inputs": [],
					"name": "nagaKidContract",
					"outputs": [
						{
							"internalType": "contract INagaKid",
							"name": "",
							"type": "address"
						}
					],
					"stateMutability": "view",
					"type": "function"
				},
				{
					"inputs": [
						{
							"internalType": "bytes32",
							"name": "role",
							"type": "bytes32"
						},
						{
							"internalType": "address",
							"name": "account",
							"type": "address"
						}
					],
					"name": "renounceRole",
					"outputs": [],
					"stateMutability": "nonpayable",
					"type": "function"
				},
				{
					"inputs": [
						{
							"internalType": "bytes32",
							"name": "role",
							"type": "bytes32"
						},
						{
							"internalType": "address",
							"name": "account",
							"type": "address"
						}
					],
					"name": "revokeRole",
					"outputs": [],
					"stateMutability": "nonpayable",
					"type": "function"
				},
				{
					"inputs": [
						{
							"internalType": "bytes32",
							"name": "_merkleRoot",
							"type": "bytes32"
						}
					],
					"name": "setMerkleRoot",
					"outputs": [],
					"stateMutability": "nonpayable",
					"type": "function"
				},
				{
					"inputs": [
						{
							"internalType": "contract INagaKid",
							"name": "_nagaKid",
							"type": "address"
						}
					],
					"name": "setNagaKidContract",
					"outputs": [],
					"stateMutability": "nonpayable",
					"type": "function"
				},
				{
					"inputs": [
						{
							"internalType": "bytes32",
							"name": "_round",
							"type": "bytes32"
						}
					],
					"name": "setRound",
					"outputs": [],
					"stateMutability": "nonpayable",
					"type": "function"
				},
				{
					"inputs": [
						{
							"internalType": "bytes4",
							"name": "interfaceId",
							"type": "bytes4"
						}
					],
					"name": "supportsInterface",
					"outputs": [
						{
							"internalType": "bool",
							"name": "",
							"type": "bool"
						}
					],
					"stateMutability": "view",
					"type": "function"
				},
				{
					"inputs": [
						{
							"internalType": "address",
							"name": "_user",
							"type": "address"
						},
						{
							"internalType": "bytes32",
							"name": "_round",
							"type": "bytes32"
						}
					],
					"name": "userMintedAmount",
					"outputs": [
						{
							"internalType": "uint256",
							"name": "",
							"type": "uint256"
						}
					],
					"stateMutability": "view",
					"type": "function"
				},
				{
					"inputs": [
						{
							"internalType": "address",
							"name": "_to",
							"type": "address"
						}
					],
					"name": "withdraw",
					"outputs": [],
					"stateMutability": "nonpayable",
					"type": "function"
				},
				{
					"inputs": [
						{
							"internalType": "address",
							"name": "_to",
							"type": "address"
						},
						{
							"internalType": "address",
							"name": "_currency",
							"type": "address"
						}
					],
					"name": "withdrawCurrency",
					"outputs": [],
					"stateMutability": "nonpayable",
					"type": "function"
				},
				{
					"inputs": [
						{
							"internalType": "address",
							"name": "_to",
							"type": "address"
						},
						{
							"internalType": "address",
							"name": "_NFT",
							"type": "address"
						},
						{
							"internalType": "uint256",
							"name": "_tokenId",
							"type": "uint256"
						}
					],
					"name": "withdrawNFT",
					"outputs": [],
					"stateMutability": "nonpayable",
					"type": "function"
				}
			],
			"devdoc": {
				"kind": "dev",
				"methods": {
					"getRoleAdmin(bytes32)": {
						"details": "Returns the admin role that controls `role`. See {grantRole} and {revokeRole}. To change a role's admin, use {_setRoleAdmin}."
					},
					"grantRole(bytes32,address)": {
						"details": "Grants `role` to `account`. If `account` had not been already granted `role`, emits a {RoleGranted} event. Requirements: - the caller must have ``role``'s admin role."
					},
					"hasRole(bytes32,address)": {
						"details": "Returns `true` if `account` has been granted `role`."
					},
					"renounceRole(bytes32,address)": {
						"details": "Revokes `role` from the calling account. Roles are often managed via {grantRole} and {revokeRole}: this function's purpose is to provide a mechanism for accounts to lose their privileges if they are compromised (such as when a trusted device is misplaced). If the calling account had been revoked `role`, emits a {RoleRevoked} event. Requirements: - the caller must be `account`."
					},
					"revokeRole(bytes32,address)": {
						"details": "Revokes `role` from `account`. If `account` had been granted `role`, emits a {RoleRevoked} event. Requirements: - the caller must have ``role``'s admin role."
					},
					"supportsInterface(bytes4)": {
						"details": "See {IERC165-supportsInterface}."
					}
				},
				"version": 1
			},
			"evm": {
				"assembly": "    /* \"ERC721A/MintNagaKids.sol\":401:5588  contract MintNagaKids is AccessControl, ReentrancyGuard {... */\n  mstore(0x40, 0x80)\n    /* \"ERC721A/MintNagaKids.sol\":1977:2234  constructor(INagaKid _nagaKidContract, bytes32 _merkleRoot) {... */\n  callvalue\n  dup1\n  iszero\n  tag_1\n  jumpi\n  0x00\n  dup1\n  revert\ntag_1:\n  pop\n  mload(0x40)\n  sub(codesize, bytecodeSize)\n  dup1\n  bytecodeSize\n  dup4\n  codecopy\n  dup2\n  add\n  0x40\n  dup2\n  swap1\n  mstore\n  tag_2\n  swap2\n  tag_3\n  jump\t// in\ntag_2:\n    /* \"@openzeppelin/contracts/security/ReentrancyGuard.sol\":1701:1702  1 */\n  0x01\n    /* \"@openzeppelin/contracts/security/ReentrancyGuard.sol\":1806:1828  _status = _NOT_ENTERED */\n  dup1\n  sstore\n    /* \"ERC721A/MintNagaKids.sol\":2050:2092  _grantRole(DEFAULT_ADMIN_ROLE, msg.sender) */\n  tag_8\n    /* \"@openzeppelin/contracts/access/AccessControl.sol\":2072:2076  0x00 */\n  0x00\n    /* \"ERC721A/MintNagaKids.sol\":2081:2091  msg.sender */\n  caller\n    /* \"ERC721A/MintNagaKids.sol\":2050:2060  _grantRole */\n  tag_9\n    /* \"ERC721A/MintNagaKids.sol\":2050:2092  _grantRole(DEFAULT_ADMIN_ROLE, msg.sender) */\n  jump\t// in\ntag_8:\n    /* \"ERC721A/MintNagaKids.sol\":2103:2140  _grantRole(WITHDRAW_ROLE, msg.sender) */\n  tag_10\n    /* \"ERC721A/MintNagaKids.sol\":1090:1116  keccak256(\"WITHDRAW_ROLE\") */\n  0x5d8e12c39142ff96d79d04d15d1ba1269e4fe57bb9d26f43523628b34ba108ec\n    /* \"ERC721A/MintNagaKids.sol\":2129:2139  msg.sender */\n  caller\n    /* \"ERC721A/MintNagaKids.sol\":2103:2113  _grantRole */\n  tag_9\n    /* \"ERC721A/MintNagaKids.sol\":2103:2140  _grantRole(WITHDRAW_ROLE, msg.sender) */\n  jump\t// in\ntag_10:\n    /* \"ERC721A/MintNagaKids.sol\":2151:2187  setNagaKidContract(_nagaKidContract) */\n  tag_11\n    /* \"ERC721A/MintNagaKids.sol\":2170:2186  _nagaKidContract */\n  dup3\n    /* \"ERC721A/MintNagaKids.sol\":2151:2169  setNagaKidContract */\n  tag_12\n    /* \"ERC721A/MintNagaKids.sol\":2151:2187  setNagaKidContract(_nagaKidContract) */\n  jump\t// in\ntag_11:\n    /* \"ERC721A/MintNagaKids.sol\":2198:2224  setMerkleRoot(_merkleRoot) */\n  tag_13\n    /* \"ERC721A/MintNagaKids.sol\":2212:2223  _merkleRoot */\n  dup2\n    /* \"ERC721A/MintNagaKids.sol\":2198:2211  setMerkleRoot */\n  tag_14\n    /* \"ERC721A/MintNagaKids.sol\":2198:2224  setMerkleRoot(_merkleRoot) */\n  jump\t// in\ntag_13:\n    /* \"ERC721A/MintNagaKids.sol\":1977:2234  constructor(INagaKid _nagaKidContract, bytes32 _merkleRoot) {... */\n  pop\n  pop\n    /* \"ERC721A/MintNagaKids.sol\":401:5588  contract MintNagaKids is AccessControl, ReentrancyGuard {... */\n  jump(tag_79)\n    /* \"@openzeppelin/contracts/access/AccessControl.sol\":7244:7477  function _grantRole(bytes32 role, address account) internal virtual {... */\ntag_9:\n    /* \"@openzeppelin/contracts/access/AccessControl.sol\":2981:2985  bool */\n  0x00\n    /* \"@openzeppelin/contracts/access/AccessControl.sol\":3004:3016  _roles[role] */\n  dup3\n  dup2\n  mstore\n  0x20\n  dup2\n  dup2\n  mstore\n  0x40\n  dup1\n  dup4\n  keccak256\n  sub(shl(0xa0, 0x01), 0x01)\n    /* \"@openzeppelin/contracts/access/AccessControl.sol\":3004:3033  _roles[role].members[account] */\n  dup6\n  and\n  dup5\n  mstore\n  swap1\n  swap2\n  mstore\n  swap1\n  keccak256\n  sload\n  0xff\n  and\n    /* \"@openzeppelin/contracts/access/AccessControl.sol\":7322:7471  if (!hasRole(role, account)) {... */\n  tag_19\n  jumpi\n    /* \"@openzeppelin/contracts/access/AccessControl.sol\":7365:7371  _roles */\n  0x00\n    /* \"@openzeppelin/contracts/access/AccessControl.sol\":7365:7377  _roles[role] */\n  dup3\n  dup2\n  mstore\n  0x20\n  dup2\n  dup2\n  mstore\n  0x40\n  dup1\n  dup4\n  keccak256\n  sub(shl(0xa0, 0x01), 0x01)\n    /* \"@openzeppelin/contracts/access/AccessControl.sol\":7365:7394  _roles[role].members[account] */\n  dup6\n  and\n  dup5\n  mstore\n  swap1\n  swap2\n  mstore\n  swap1\n  keccak256\n    /* \"@openzeppelin/contracts/access/AccessControl.sol\":7365:7401  _roles[role].members[account] = true */\n  dup1\n  sload\n  not(0xff)\n  and\n    /* \"@openzeppelin/contracts/access/AccessControl.sol\":7397:7401  true */\n  0x01\n    /* \"@openzeppelin/contracts/access/AccessControl.sol\":7365:7401  _roles[role].members[account] = true */\n  or\n  swap1\n  sstore\n    /* \"@openzeppelin/contracts/access/AccessControl.sol\":7447:7459  _msgSender() */\n  tag_20\n    /* \"@openzeppelin/contracts/utils/Context.sol\":719:729  msg.sender */\n  caller\n  swap1\n    /* \"@openzeppelin/contracts/utils/Context.sol\":640:736  function _msgSender() internal view virtual returns (address) {... */\n  jump\n    /* \"@openzeppelin/contracts/access/AccessControl.sol\":7447:7459  _msgSender() */\ntag_20:\n  sub(shl(0xa0, 0x01), 0x01)\n    /* \"@openzeppelin/contracts/access/AccessControl.sol\":7420:7460  RoleGranted(role, account, _msgSender()) */\n  and\n    /* \"@openzeppelin/contracts/access/AccessControl.sol\":7438:7445  account */\n  dup2\n  sub(shl(0xa0, 0x01), 0x01)\n    /* \"@openzeppelin/contracts/access/AccessControl.sol\":7420:7460  RoleGranted(role, account, _msgSender()) */\n  and\n    /* \"@openzeppelin/contracts/access/AccessControl.sol\":7432:7436  role */\n  dup4\n    /* \"@openzeppelin/contracts/access/AccessControl.sol\":7420:7460  RoleGranted(role, account, _msgSender()) */\n  0x2f8788117e7eff1d82e926ec794901d17c78024a50270940304540a733656f0d\n  mload(0x40)\n  mload(0x40)\n  dup1\n  swap2\n  sub\n  swap1\n  log4\n    /* \"@openzeppelin/contracts/access/AccessControl.sol\":7322:7471  if (!hasRole(role, account)) {... */\ntag_19:\n    /* \"@openzeppelin/contracts/access/AccessControl.sol\":7244:7477  function _grantRole(bytes32 role, address account) internal virtual {... */\n  pop\n  pop\n  jump\t// out\n    /* \"ERC721A/MintNagaKids.sol\":2242:2549  function setNagaKidContract(INagaKid _nagaKid) public onlyRole(DEFAULT_ADMIN_ROLE) {... */\ntag_12:\n    /* \"@openzeppelin/contracts/access/AccessControl.sol\":2072:2076  0x00 */\n  0x00\n    /* \"@openzeppelin/contracts/access/AccessControl.sol\":2505:2521  _checkRole(role) */\n  tag_23\n    /* \"@openzeppelin/contracts/access/AccessControl.sol\":2072:2076  0x00 */\n  dup2\n    /* \"@openzeppelin/contracts/access/AccessControl.sol\":2505:2515  _checkRole */\n  tag_24\n    /* \"@openzeppelin/contracts/access/AccessControl.sol\":2505:2521  _checkRole(role) */\n  jump\t// in\ntag_23:\n    /* \"ERC721A/MintNagaKids.sol\":2368:2383  nagaKidContract */\n  0x02\n  dup1\n  sload\n  sub(shl(0xa0, 0x01), 0x01)\n    /* \"ERC721A/MintNagaKids.sol\":2395:2421  nagaKidContract = _nagaKid */\n  dup5\n  dup2\n  and\n  not(sub(shl(0xa0, 0x01), 0x01))\n  dup4\n  and\n  dup2\n  or\n  swap1\n  swap4\n  sstore\n    /* \"ERC721A/MintNagaKids.sol\":2490:2541  NagaKidContractChanged(nagaKidBefore, nagaKidAfter) */\n  0x40\n  dup1\n  mload\n    /* \"ERC721A/MintNagaKids.sol\":2368:2383  nagaKidContract */\n  swap2\n  swap1\n  swap3\n  and\n    /* \"#utility.yul\":599:633   */\n  dup1\n  dup3\n  mstore\n    /* \"#utility.yul\":664:666   */\n  0x20\n    /* \"#utility.yul\":649:667   */\n  dup3\n  add\n    /* \"#utility.yul\":642:685   */\n  swap4\n  swap1\n  swap4\n  mstore\n    /* \"ERC721A/MintNagaKids.sol\":2395:2421  nagaKidContract = _nagaKid */\n  dup5\n  swap2\n    /* \"ERC721A/MintNagaKids.sol\":2490:2541  NagaKidContractChanged(nagaKidBefore, nagaKidAfter) */\n  0xabdf056c85a221fcb31d0366c4475b6b2c613df2eeea951a9fcb3e1a8595d973\n  swap2\n    /* \"#utility.yul\":534:552   */\n  add\n    /* \"ERC721A/MintNagaKids.sol\":2490:2541  NagaKidContractChanged(nagaKidBefore, nagaKidAfter) */\n  mload(0x40)\n  dup1\n  swap2\n  sub\n  swap1\n  log1\n    /* \"ERC721A/MintNagaKids.sol\":2325:2549  {... */\n  pop\n  pop\n    /* \"ERC721A/MintNagaKids.sol\":2242:2549  function setNagaKidContract(INagaKid _nagaKid) public onlyRole(DEFAULT_ADMIN_ROLE) {... */\n  pop\n  pop\n  jump\t// out\n    /* \"ERC721A/MintNagaKids.sol\":2781:3020  function setMerkleRoot(bytes32 _merkleRoot) public onlyRole(DEFAULT_ADMIN_ROLE) {... */\ntag_14:\n    /* \"@openzeppelin/contracts/access/AccessControl.sol\":2072:2076  0x00 */\n  0x00\n    /* \"@openzeppelin/contracts/access/AccessControl.sol\":2505:2521  _checkRole(role) */\n  tag_29\n    /* \"@openzeppelin/contracts/access/AccessControl.sol\":2072:2076  0x00 */\n  dup2\n    /* \"@openzeppelin/contracts/access/AccessControl.sol\":2505:2515  _checkRole */\n  tag_24\n    /* \"@openzeppelin/contracts/access/AccessControl.sol\":2505:2521  _checkRole(role) */\n  jump\t// in\ntag_29:\n    /* \"ERC721A/MintNagaKids.sol\":2900:2910  merkleRoot */\n  0x04\n  dup1\n  sload\n    /* \"ERC721A/MintNagaKids.sol\":2921:2945  merkleRoot = _merkleRoot */\n  swap1\n  dup4\n  swap1\n  sstore\n    /* \"ERC721A/MintNagaKids.sol\":2963:3012  MerkleRootChanged(_merkleRootBefore, _merkleRoot) */\n  0x40\n  dup1\n  mload\n    /* \"#utility.yul\":870:895   */\n  dup3\n  dup2\n  mstore\n    /* \"#utility.yul\":926:928   */\n  0x20\n    /* \"#utility.yul\":911:929   */\n  dup2\n  add\n    /* \"#utility.yul\":904:938   */\n  dup6\n  swap1\n  mstore\n    /* \"ERC721A/MintNagaKids.sol\":2963:3012  MerkleRootChanged(_merkleRootBefore, _merkleRoot) */\n  0x123d88ba82600dfc3f219f8885c691b0ff020caa535666874b3f5174973757fe\n  swap2\n    /* \"#utility.yul\":843:861   */\n  add\n    /* \"ERC721A/MintNagaKids.sol\":2963:3012  MerkleRootChanged(_merkleRootBefore, _merkleRoot) */\n  mload(0x40)\n  dup1\n  swap2\n  sub\n  swap1\n  log1\n    /* \"ERC721A/MintNagaKids.sol\":2861:3020  {... */\n  pop\n    /* \"ERC721A/MintNagaKids.sol\":2781:3020  function setMerkleRoot(bytes32 _merkleRoot) public onlyRole(DEFAULT_ADMIN_ROLE) {... */\n  pop\n  pop\n  jump\t// out\n    /* \"@openzeppelin/contracts/access/AccessControl.sol\":3334:3437  function _checkRole(bytes32 role) internal view virtual {... */\ntag_24:\n    /* \"@openzeppelin/contracts/access/AccessControl.sol\":3400:3430  _checkRole(role, _msgSender()) */\n  tag_36\n    /* \"@openzeppelin/contracts/access/AccessControl.sol\":3411:3415  role */\n  dup2\n    /* \"@openzeppelin/contracts/utils/Context.sol\":719:729  msg.sender */\n  caller\n    /* \"@openzeppelin/contracts/access/AccessControl.sol\":3400:3410  _checkRole */\n  tag_38\n    /* \"@openzeppelin/contracts/access/AccessControl.sol\":3400:3430  _checkRole(role, _msgSender()) */\n  jump\t// in\ntag_36:\n    /* \"@openzeppelin/contracts/access/AccessControl.sol\":3334:3437  function _checkRole(bytes32 role) internal view virtual {... */\n  pop\n  jump\t// out\n    /* \"@openzeppelin/contracts/access/AccessControl.sol\":3718:4210  function _checkRole(bytes32 role, address account) internal view virtual {... */\ntag_38:\n    /* \"@openzeppelin/contracts/access/AccessControl.sol\":2981:2985  bool */\n  0x00\n    /* \"@openzeppelin/contracts/access/AccessControl.sol\":3004:3016  _roles[role] */\n  dup3\n  dup2\n  mstore\n  0x20\n  dup2\n  dup2\n  mstore\n  0x40\n  dup1\n  dup4\n  keccak256\n  sub(shl(0xa0, 0x01), 0x01)\n    /* \"@openzeppelin/contracts/access/AccessControl.sol\":3004:3033  _roles[role].members[account] */\n  dup6\n  and\n  dup5\n  mstore\n  swap1\n  swap2\n  mstore\n  swap1\n  keccak256\n  sload\n  0xff\n  and\n    /* \"@openzeppelin/contracts/access/AccessControl.sol\":3801:4204  if (!hasRole(role, account)) {... */\n  tag_19\n  jumpi\n    /* \"@openzeppelin/contracts/access/AccessControl.sol\":3989:4030  Strings.toHexString(uint160(account), 20) */\n  tag_42\n    /* \"@openzeppelin/contracts/access/AccessControl.sol\":4017:4024  account */\n  dup2\n  sub(shl(0xa0, 0x01), 0x01)\n    /* \"@openzeppelin/contracts/access/AccessControl.sol\":3989:4030  Strings.toHexString(uint160(account), 20) */\n  and\n    /* \"@openzeppelin/contracts/access/AccessControl.sol\":4027:4029  20 */\n  0x14\n    /* \"@openzeppelin/contracts/access/AccessControl.sol\":3989:4008  Strings.toHexString */\n  or(tag_0_154, shl(0x20, tag_43))\n    /* \"@openzeppelin/contracts/access/AccessControl.sol\":3989:4030  Strings.toHexString(uint160(account), 20) */\n  0x20\n  shr\n  jump\t// in\ntag_42:\n    /* \"@openzeppelin/contracts/access/AccessControl.sol\":4101:4139  Strings.toHexString(uint256(role), 32) */\n  tag_44\n    /* \"@openzeppelin/contracts/access/AccessControl.sol\":4129:4133  role */\n  dup4\n    /* \"@openzeppelin/contracts/access/AccessControl.sol\":4136:4138  32 */\n  0x20\n    /* \"@openzeppelin/contracts/access/AccessControl.sol\":4101:4120  Strings.toHexString */\n  tag_0_154\n  tag_43\n  dup3\n  shl\n  or\n    /* \"@openzeppelin/contracts/access/AccessControl.sol\":4101:4139  Strings.toHexString(uint256(role), 32) */\n  dup2\n  shr\n  jump\t// in\ntag_44:\n    /* \"@openzeppelin/contracts/access/AccessControl.sol\":3896:4161  abi.encodePacked(... */\n  add(0x20, mload(0x40))\n  tag_45\n  swap3\n  swap2\n  swap1\n  tag_46\n  jump\t// in\ntag_45:\n  0x40\n  dup1\n  mload\n  not(0x1f)\n  dup2\n  dup5\n  sub\n  add\n  dup2\n  mstore\n  swap1\n  dup3\n  swap1\n  mstore\n  shl(0xe5, 0x461bcd)\n    /* \"@openzeppelin/contracts/access/AccessControl.sol\":3844:4193  revert(... */\n  dup3\n  mstore\n  tag_47\n  swap2\n  0x04\n  add\n  tag_48\n  jump\t// in\ntag_47:\n  mload(0x40)\n  dup1\n  swap2\n  sub\n  swap1\n  revert\n    /* \"@openzeppelin/contracts/utils/Strings.sol\":1588:2029  function toHexString(uint256 value, uint256 length) internal pure returns (string memory) {... */\ntag_43:\n    /* \"@openzeppelin/contracts/utils/Strings.sol\":1663:1676  string memory */\n  0x60\n    /* \"@openzeppelin/contracts/utils/Strings.sol\":1688:1707  bytes memory buffer */\n  0x00\n    /* \"@openzeppelin/contracts/utils/Strings.sol\":1720:1730  2 * length */\n  tag_50\n    /* \"@openzeppelin/contracts/utils/Strings.sol\":1724:1730  length */\n  dup4\n    /* \"@openzeppelin/contracts/utils/Strings.sol\":1720:1721  2 */\n  0x02\n    /* \"@openzeppelin/contracts/utils/Strings.sol\":1720:1730  2 * length */\n  tag_51\n  jump\t// in\ntag_50:\n    /* \"@openzeppelin/contracts/utils/Strings.sol\":1720:1734  2 * length + 2 */\n  tag_52\n  swap1\n    /* \"@openzeppelin/contracts/utils/Strings.sol\":1733:1734  2 */\n  0x02\n    /* \"@openzeppelin/contracts/utils/Strings.sol\":1720:1734  2 * length + 2 */\n  tag_53\n  jump\t// in\ntag_52:\n  sub(shl(0x40, 0x01), 0x01)\n    /* \"@openzeppelin/contracts/utils/Strings.sol\":1710:1735  new bytes(2 * length + 2) */\n  dup2\n  gt\n  iszero\n  tag_55\n  jumpi\n  tag_55\n  tag_56\n  jump\t// in\ntag_55:\n  mload(0x40)\n  swap1\n  dup1\n  dup3\n  mstore\n  dup1\n  0x1f\n  add\n  not(0x1f)\n  and\n  0x20\n  add\n  dup3\n  add\n  0x40\n  mstore\n  dup1\n  iszero\n  tag_57\n  jumpi\n  0x20\n  dup3\n  add\n  dup2\n  dup1\n  calldatasize\n  dup4\n  calldatacopy\n  add\n  swap1\n  pop\ntag_57:\n  pop\n    /* \"@openzeppelin/contracts/utils/Strings.sol\":1688:1735  bytes memory buffer = new bytes(2 * length + 2) */\n  swap1\n  pop\n  shl(0xfc, 0x03)\n    /* \"@openzeppelin/contracts/utils/Strings.sol\":1745:1751  buffer */\n  dup2\n    /* \"@openzeppelin/contracts/utils/Strings.sol\":1752:1753  0 */\n  0x00\n    /* \"@openzeppelin/contracts/utils/Strings.sol\":1745:1754  buffer[0] */\n  dup2\n  mload\n  dup2\n  lt\n  tag_59\n  jumpi\n  tag_59\n  tag_60\n  jump\t// in\ntag_59:\n  0x20\n  add\n  add\n    /* \"@openzeppelin/contracts/utils/Strings.sol\":1745:1760  buffer[0] = \"0\" */\n  swap1\n  not(sub(shl(0xf8, 0x01), 0x01))\n  and\n  swap1\n  dup2\n  0x00\n  byte\n  swap1\n  mstore8\n  pop\n  shl(0xfb, 0x0f)\n    /* \"@openzeppelin/contracts/utils/Strings.sol\":1770:1776  buffer */\n  dup2\n    /* \"@openzeppelin/contracts/utils/Strings.sol\":1777:1778  1 */\n  0x01\n    /* \"@openzeppelin/contracts/utils/Strings.sol\":1770:1779  buffer[1] */\n  dup2\n  mload\n  dup2\n  lt\n  tag_62\n  jumpi\n  tag_62\n  tag_60\n  jump\t// in\ntag_62:\n  0x20\n  add\n  add\n    /* \"@openzeppelin/contracts/utils/Strings.sol\":1770:1785  buffer[1] = \"x\" */\n  swap1\n  not(sub(shl(0xf8, 0x01), 0x01))\n  and\n  swap1\n  dup2\n  0x00\n  byte\n  swap1\n  mstore8\n  pop\n    /* \"@openzeppelin/contracts/utils/Strings.sol\":1800:1809  uint256 i */\n  0x00\n    /* \"@openzeppelin/contracts/utils/Strings.sol\":1812:1822  2 * length */\n  tag_66\n    /* \"@openzeppelin/contracts/utils/Strings.sol\":1816:1822  length */\n  dup5\n    /* \"@openzeppelin/contracts/utils/Strings.sol\":1812:1813  2 */\n  0x02\n    /* \"@openzeppelin/contracts/utils/Strings.sol\":1812:1822  2 * length */\n  tag_51\n  jump\t// in\ntag_66:\n    /* \"@openzeppelin/contracts/utils/Strings.sol\":1812:1826  2 * length + 1 */\n  tag_67\n  swap1\n    /* \"@openzeppelin/contracts/utils/Strings.sol\":1825:1826  1 */\n  0x01\n    /* \"@openzeppelin/contracts/utils/Strings.sol\":1812:1826  2 * length + 1 */\n  tag_53\n  jump\t// in\ntag_67:\n    /* \"@openzeppelin/contracts/utils/Strings.sol\":1800:1826  uint256 i = 2 * length + 1 */\n  swap1\n  pop\n    /* \"@openzeppelin/contracts/utils/Strings.sol\":1795:1927  for (uint256 i = 2 * length + 1; i > 1; --i) {... */\ntag_63:\n    /* \"@openzeppelin/contracts/utils/Strings.sol\":1832:1833  1 */\n  0x01\n    /* \"@openzeppelin/contracts/utils/Strings.sol\":1828:1829  i */\n  dup2\n    /* \"@openzeppelin/contracts/utils/Strings.sol\":1828:1833  i > 1 */\n  gt\n    /* \"@openzeppelin/contracts/utils/Strings.sol\":1795:1927  for (uint256 i = 2 * length + 1; i > 1; --i) {... */\n  iszero\n  tag_64\n  jumpi\n  shl(0x81, 0x181899199a1a9b1b9c1cb0b131b232b3)\n    /* \"@openzeppelin/contracts/utils/Strings.sol\":1879:1884  value */\n  dup6\n    /* \"@openzeppelin/contracts/utils/Strings.sol\":1887:1890  0xf */\n  0x0f\n    /* \"@openzeppelin/contracts/utils/Strings.sol\":1879:1890  value & 0xf */\n  and\n    /* \"@openzeppelin/contracts/utils/Strings.sol\":1866:1891  _HEX_SYMBOLS[value & 0xf] */\n  0x10\n  dup2\n  lt\n  tag_69\n  jumpi\n  tag_69\n  tag_60\n  jump\t// in\ntag_69:\n  byte\n  0xf8\n  shl\n    /* \"@openzeppelin/contracts/utils/Strings.sol\":1854:1860  buffer */\n  dup3\n    /* \"@openzeppelin/contracts/utils/Strings.sol\":1861:1862  i */\n  dup3\n    /* \"@openzeppelin/contracts/utils/Strings.sol\":1854:1863  buffer[i] */\n  dup2\n  mload\n  dup2\n  lt\n  tag_71\n  jumpi\n  tag_71\n  tag_60\n  jump\t// in\ntag_71:\n  0x20\n  add\n  add\n    /* \"@openzeppelin/contracts/utils/Strings.sol\":1854:1891  buffer[i] = _HEX_SYMBOLS[value & 0xf] */\n  swap1\n  not(sub(shl(0xf8, 0x01), 0x01))\n  and\n  swap1\n  dup2\n  0x00\n  byte\n  swap1\n  mstore8\n  pop\n    /* \"@openzeppelin/contracts/utils/Strings.sol\":1915:1916  4 */\n  0x04\n    /* \"@openzeppelin/contracts/utils/Strings.sol\":1905:1916  value >>= 4 */\n  swap5\n  swap1\n  swap5\n  shr\n  swap4\n    /* \"@openzeppelin/contracts/utils/Strings.sol\":1835:1838  --i */\n  tag_72\n  dup2\n  tag_73\n  jump\t// in\ntag_72:\n  swap1\n  pop\n    /* \"@openzeppelin/contracts/utils/Strings.sol\":1795:1927  for (uint256 i = 2 * length + 1; i > 1; --i) {... */\n  jump(tag_63)\ntag_64:\n  pop\n    /* \"@openzeppelin/contracts/utils/Strings.sol\":1944:1954  value == 0 */\n  dup4\n  iszero\n    /* \"@openzeppelin/contracts/utils/Strings.sol\":1936:1991  require(value == 0, \"Strings: hex length insufficient\") */\n  tag_74\n  jumpi\n  mload(0x40)\n  shl(0xe5, 0x461bcd)\n  dup2\n  mstore\n    /* \"#utility.yul\":3436:3438   */\n  0x20\n    /* \"@openzeppelin/contracts/utils/Strings.sol\":1936:1991  require(value == 0, \"Strings: hex length insufficient\") */\n  0x04\n  dup3\n  add\n    /* \"#utility.yul\":3418:3439   */\n  dup2\n  swap1\n  mstore\n    /* \"#utility.yul\":3455:3473   */\n  0x24\n  dup3\n  add\n    /* \"#utility.yul\":3448:3478   */\n  mstore\n    /* \"#utility.yul\":3514:3548   */\n  0x537472696e67733a20686578206c656e67746820696e73756666696369656e74\n    /* \"#utility.yul\":3494:3512   */\n  0x44\n  dup3\n  add\n    /* \"#utility.yul\":3487:3549   */\n  mstore\n    /* \"#utility.yul\":3566:3584   */\n  0x64\n  add\n    /* \"@openzeppelin/contracts/utils/Strings.sol\":1936:1991  require(value == 0, \"Strings: hex length insufficient\") */\n  tag_47\n    /* \"#utility.yul\":3234:3590   */\n  jump\n    /* \"@openzeppelin/contracts/utils/Strings.sol\":1936:1991  require(value == 0, \"Strings: hex length insufficient\") */\ntag_74:\n    /* \"@openzeppelin/contracts/utils/Strings.sol\":2015:2021  buffer */\n  swap4\n    /* \"@openzeppelin/contracts/utils/Strings.sol\":1588:2029  function toHexString(uint256 value, uint256 length) internal pure returns (string memory) {... */\n  swap3\n  pop\n  pop\n  pop\n  jump\t// out\n    /* \"#utility.yul\":14:382   */\ntag_3:\n    /* \"#utility.yul\":110:116   */\n  0x00\n    /* \"#utility.yul\":118:124   */\n  dup1\n    /* \"#utility.yul\":171:173   */\n  0x40\n    /* \"#utility.yul\":159:168   */\n  dup4\n    /* \"#utility.yul\":150:157   */\n  dup6\n    /* \"#utility.yul\":146:169   */\n  sub\n    /* \"#utility.yul\":142:174   */\n  slt\n    /* \"#utility.yul\":139:191   */\n  iszero\n  tag_81\n  jumpi\n    /* \"#utility.yul\":187:188   */\n  0x00\n    /* \"#utility.yul\":184:185   */\n  dup1\n    /* \"#utility.yul\":177:189   */\n  revert\n    /* \"#utility.yul\":139:191   */\ntag_81:\n    /* \"#utility.yul\":213:229   */\n  dup3\n  mload\n  sub(shl(0xa0, 0x01), 0x01)\n    /* \"#utility.yul\":258:289   */\n  dup2\n  and\n    /* \"#utility.yul\":248:290   */\n  dup2\n  eq\n    /* \"#utility.yul\":238:308   */\n  tag_82\n  jumpi\n    /* \"#utility.yul\":304:305   */\n  0x00\n    /* \"#utility.yul\":301:302   */\n  dup1\n    /* \"#utility.yul\":294:306   */\n  revert\n    /* \"#utility.yul\":238:308   */\ntag_82:\n    /* \"#utility.yul\":372:374   */\n  0x20\n    /* \"#utility.yul\":357:375   */\n  swap4\n  swap1\n  swap4\n  add\n    /* \"#utility.yul\":351:376   */\n  mload\n    /* \"#utility.yul\":327:332   */\n  swap3\n  swap5\n    /* \"#utility.yul\":351:376   */\n  swap3\n  swap4\n  pop\n  pop\n  pop\n    /* \"#utility.yul\":14:382   */\n  jump\t// out\n    /* \"#utility.yul\":949:1207   */\ntag_77:\n    /* \"#utility.yul\":1021:1022   */\n  0x00\n    /* \"#utility.yul\":1031:1144   */\ntag_86:\n    /* \"#utility.yul\":1045:1051   */\n  dup4\n    /* \"#utility.yul\":1042:1043   */\n  dup2\n    /* \"#utility.yul\":1039:1052   */\n  lt\n    /* \"#utility.yul\":1031:1144   */\n  iszero\n  tag_88\n  jumpi\n    /* \"#utility.yul\":1121:1132   */\n  dup2\n  dup2\n  add\n    /* \"#utility.yul\":1115:1133   */\n  mload\n    /* \"#utility.yul\":1102:1113   */\n  dup4\n  dup3\n  add\n    /* \"#utility.yul\":1095:1134   */\n  mstore\n    /* \"#utility.yul\":1067:1069   */\n  0x20\n    /* \"#utility.yul\":1060:1070   */\n  add\n    /* \"#utility.yul\":1031:1144   */\n  jump(tag_86)\ntag_88:\n    /* \"#utility.yul\":1162:1168   */\n  dup4\n    /* \"#utility.yul\":1159:1160   */\n  dup2\n    /* \"#utility.yul\":1156:1169   */\n  gt\n    /* \"#utility.yul\":1153:1201   */\n  iszero\n  tag_89\n  jumpi\n    /* \"#utility.yul\":1197:1198   */\n  0x00\n    /* \"#utility.yul\":1188:1194   */\n  dup5\n    /* \"#utility.yul\":1183:1186   */\n  dup5\n    /* \"#utility.yul\":1179:1195   */\n  add\n    /* \"#utility.yul\":1172:1199   */\n  mstore\n    /* \"#utility.yul\":1153:1201   */\ntag_89:\n  pop\n    /* \"#utility.yul\":949:1207   */\n  pop\n  pop\n  pop\n  jump\t// out\n    /* \"#utility.yul\":1212:1998   */\ntag_46:\n    /* \"#utility.yul\":1623:1648   */\n  0x416363657373436f6e74726f6c3a206163636f756e7420000000000000000000\n    /* \"#utility.yul\":1618:1621   */\n  dup2\n    /* \"#utility.yul\":1611:1649   */\n  mstore\n    /* \"#utility.yul\":1593:1596   */\n  0x00\n    /* \"#utility.yul\":1678:1684   */\n  dup4\n    /* \"#utility.yul\":1672:1685   */\n  mload\n    /* \"#utility.yul\":1694:1756   */\n  tag_91\n    /* \"#utility.yul\":1749:1755   */\n  dup2\n    /* \"#utility.yul\":1744:1746   */\n  0x17\n    /* \"#utility.yul\":1739:1742   */\n  dup6\n    /* \"#utility.yul\":1735:1747   */\n  add\n    /* \"#utility.yul\":1728:1732   */\n  0x20\n    /* \"#utility.yul\":1720:1726   */\n  dup9\n    /* \"#utility.yul\":1716:1733   */\n  add\n    /* \"#utility.yul\":1694:1756   */\n  tag_77\n  jump\t// in\ntag_91:\n  shl(0x7d, 0x01034b99036b4b9b9b4b733903937b6329)\n    /* \"#utility.yul\":1815:1817   */\n  0x17\n    /* \"#utility.yul\":1775:1791   */\n  swap2\n  dup5\n  add\n    /* \"#utility.yul\":1807:1818   */\n  swap2\n  dup3\n  add\n    /* \"#utility.yul\":1800:1840   */\n  mstore\n    /* \"#utility.yul\":1865:1878   */\n  dup4\n  mload\n    /* \"#utility.yul\":1887:1950   */\n  tag_92\n    /* \"#utility.yul\":1865:1878   */\n  dup2\n    /* \"#utility.yul\":1936:1938   */\n  0x28\n    /* \"#utility.yul\":1928:1939   */\n  dup5\n  add\n    /* \"#utility.yul\":1921:1925   */\n  0x20\n    /* \"#utility.yul\":1909:1926   */\n  dup9\n  add\n    /* \"#utility.yul\":1887:1950   */\n  tag_77\n  jump\t// in\ntag_92:\n    /* \"#utility.yul\":1970:1987   */\n  add\n    /* \"#utility.yul\":1989:1991   */\n  0x28\n    /* \"#utility.yul\":1966:1992   */\n  add\n  swap5\n    /* \"#utility.yul\":1212:1998   */\n  swap4\n  pop\n  pop\n  pop\n  pop\n  jump\t// out\n    /* \"#utility.yul\":2003:2386   */\ntag_48:\n    /* \"#utility.yul\":2152:2154   */\n  0x20\n    /* \"#utility.yul\":2141:2150   */\n  dup2\n    /* \"#utility.yul\":2134:2155   */\n  mstore\n    /* \"#utility.yul\":2115:2119   */\n  0x00\n    /* \"#utility.yul\":2184:2190   */\n  dup3\n    /* \"#utility.yul\":2178:2191   */\n  mload\n    /* \"#utility.yul\":2227:2233   */\n  dup1\n    /* \"#utility.yul\":2222:2224   */\n  0x20\n    /* \"#utility.yul\":2211:2220   */\n  dup5\n    /* \"#utility.yul\":2207:2225   */\n  add\n    /* \"#utility.yul\":2200:2234   */\n  mstore\n    /* \"#utility.yul\":2243:2309   */\n  tag_94\n    /* \"#utility.yul\":2302:2308   */\n  dup2\n    /* \"#utility.yul\":2297:2299   */\n  0x40\n    /* \"#utility.yul\":2286:2295   */\n  dup6\n    /* \"#utility.yul\":2282:2300   */\n  add\n    /* \"#utility.yul\":2277:2279   */\n  0x20\n    /* \"#utility.yul\":2269:2275   */\n  dup8\n    /* \"#utility.yul\":2265:2280   */\n  add\n    /* \"#utility.yul\":2243:2309   */\n  tag_77\n  jump\t// in\ntag_94:\n    /* \"#utility.yul\":2370:2372   */\n  0x1f\n    /* \"#utility.yul\":2349:2364   */\n  add\n  not(0x1f)\n    /* \"#utility.yul\":2345:2374   */\n  and\n    /* \"#utility.yul\":2330:2375   */\n  swap2\n  swap1\n  swap2\n  add\n    /* \"#utility.yul\":2377:2379   */\n  0x40\n    /* \"#utility.yul\":2326:2380   */\n  add\n  swap3\n    /* \"#utility.yul\":2003:2386   */\n  swap2\n  pop\n  pop\n  jump\t// out\n    /* \"#utility.yul\":2391:2518   */\ntag_78:\n    /* \"#utility.yul\":2452:2462   */\n  0x4e487b71\n    /* \"#utility.yul\":2447:2450   */\n  0xe0\n    /* \"#utility.yul\":2443:2463   */\n  shl\n    /* \"#utility.yul\":2440:2441   */\n  0x00\n    /* \"#utility.yul\":2433:2464   */\n  mstore\n    /* \"#utility.yul\":2483:2487   */\n  0x11\n    /* \"#utility.yul\":2480:2481   */\n  0x04\n    /* \"#utility.yul\":2473:2488   */\n  mstore\n    /* \"#utility.yul\":2507:2511   */\n  0x24\n    /* \"#utility.yul\":2504:2505   */\n  0x00\n    /* \"#utility.yul\":2497:2512   */\n  revert\n    /* \"#utility.yul\":2523:2691   */\ntag_51:\n    /* \"#utility.yul\":2563:2570   */\n  0x00\n    /* \"#utility.yul\":2629:2630   */\n  dup2\n    /* \"#utility.yul\":2625:2626   */\n  0x00\n    /* \"#utility.yul\":2621:2627   */\n  not\n    /* \"#utility.yul\":2617:2631   */\n  div\n    /* \"#utility.yul\":2614:2615   */\n  dup4\n    /* \"#utility.yul\":2611:2632   */\n  gt\n    /* \"#utility.yul\":2606:2607   */\n  dup3\n    /* \"#utility.yul\":2599:2608   */\n  iszero\n    /* \"#utility.yul\":2592:2609   */\n  iszero\n    /* \"#utility.yul\":2588:2633   */\n  and\n    /* \"#utility.yul\":2585:2656   */\n  iszero\n  tag_98\n  jumpi\n    /* \"#utility.yul\":2636:2654   */\n  tag_98\n  tag_78\n  jump\t// in\ntag_98:\n  pop\n    /* \"#utility.yul\":2676:2685   */\n  mul\n  swap1\n    /* \"#utility.yul\":2523:2691   */\n  jump\t// out\n    /* \"#utility.yul\":2696:2824   */\ntag_53:\n    /* \"#utility.yul\":2736:2739   */\n  0x00\n    /* \"#utility.yul\":2767:2768   */\n  dup3\n    /* \"#utility.yul\":2763:2769   */\n  not\n    /* \"#utility.yul\":2760:2761   */\n  dup3\n    /* \"#utility.yul\":2757:2770   */\n  gt\n    /* \"#utility.yul\":2754:2793   */\n  iszero\n  tag_101\n  jumpi\n    /* \"#utility.yul\":2773:2791   */\n  tag_101\n  tag_78\n  jump\t// in\ntag_101:\n  pop\n    /* \"#utility.yul\":2809:2818   */\n  add\n  swap1\n    /* \"#utility.yul\":2696:2824   */\n  jump\t// out\n    /* \"#utility.yul\":2829:2956   */\ntag_56:\n    /* \"#utility.yul\":2890:2900   */\n  0x4e487b71\n    /* \"#utility.yul\":2885:2888   */\n  0xe0\n    /* \"#utility.yul\":2881:2901   */\n  shl\n    /* \"#utility.yul\":2878:2879   */\n  0x00\n    /* \"#utility.yul\":2871:2902   */\n  mstore\n    /* \"#utility.yul\":2921:2925   */\n  0x41\n    /* \"#utility.yul\":2918:2919   */\n  0x04\n    /* \"#utility.yul\":2911:2926   */\n  mstore\n    /* \"#utility.yul\":2945:2949   */\n  0x24\n    /* \"#utility.yul\":2942:2943   */\n  0x00\n    /* \"#utility.yul\":2935:2950   */\n  revert\n    /* \"#utility.yul\":2961:3088   */\ntag_60:\n    /* \"#utility.yul\":3022:3032   */\n  0x4e487b71\n    /* \"#utility.yul\":3017:3020   */\n  0xe0\n    /* \"#utility.yul\":3013:3033   */\n  shl\n    /* \"#utility.yul\":3010:3011   */\n  0x00\n    /* \"#utility.yul\":3003:3034   */\n  mstore\n    /* \"#utility.yul\":3053:3057   */\n  0x32\n    /* \"#utility.yul\":3050:3051   */\n  0x04\n    /* \"#utility.yul\":3043:3058   */\n  mstore\n    /* \"#utility.yul\":3077:3081   */\n  0x24\n    /* \"#utility.yul\":3074:3075   */\n  0x00\n    /* \"#utility.yul\":3067:3082   */\n  revert\n    /* \"#utility.yul\":3093:3229   */\ntag_73:\n    /* \"#utility.yul\":3132:3135   */\n  0x00\n    /* \"#utility.yul\":3160:3165   */\n  dup2\n    /* \"#utility.yul\":3150:3189   */\n  tag_106\n  jumpi\n    /* \"#utility.yul\":3169:3187   */\n  tag_106\n  tag_78\n  jump\t// in\ntag_106:\n  pop\n  not(0x00)\n    /* \"#utility.yul\":3205:3223   */\n  add\n  swap1\n    /* \"#utility.yul\":3093:3229   */\n  jump\t// out\n    /* \"#utility.yul\":3234:3590   */\ntag_79:\n    /* \"ERC721A/MintNagaKids.sol\":401:5588  contract MintNagaKids is AccessControl, ReentrancyGuard {... */\n  dataSize(sub_0)\n  dup1\n  dataOffset(sub_0)\n  0x00\n  codecopy\n  0x00\n  return\nstop\n\nsub_0: assembly {\n        /* \"ERC721A/MintNagaKids.sol\":401:5588  contract MintNagaKids is AccessControl, ReentrancyGuard {... */\n      mstore(0x40, 0x80)\n      jumpi(tag_1, lt(calldatasize, 0x04))\n      shr(0xe0, calldataload(0x00))\n      dup1\n      0x9e6c8855\n      gt\n      tag_28\n      jumpi\n      dup1\n      0xd547741f\n      gt\n      tag_29\n      jumpi\n      dup1\n      0xef5fe79f\n      gt\n      tag_30\n      jumpi\n      dup1\n      0xef5fe79f\n      eq\n      tag_24\n      jumpi\n      dup1\n      0xf500cdfc\n      eq\n      tag_25\n      jumpi\n      dup1\n      0xff05fe4a\n      eq\n      tag_26\n      jumpi\n      dup1\n      0xffdc6129\n      eq\n      tag_27\n      jumpi\n      0x00\n      dup1\n      revert\n    tag_30:\n      dup1\n      0xd547741f\n      eq\n      tag_21\n      jumpi\n      dup1\n      0xdf4e5881\n      eq\n      tag_22\n      jumpi\n      dup1\n      0xe02023a1\n      eq\n      tag_23\n      jumpi\n      0x00\n      dup1\n      revert\n    tag_29:\n      dup1\n      0x9e6c8855\n      eq\n      tag_15\n      jumpi\n      dup1\n      0x9f930765\n      eq\n      tag_16\n      jumpi\n      dup1\n      0xa217fddf\n      eq\n      tag_3\n      jumpi\n      dup1\n      0xb5abafa1\n      eq\n      tag_18\n      jumpi\n      dup1\n      0xbff863ec\n      eq\n      tag_19\n      jumpi\n      dup1\n      0xc4e41b22\n      eq\n      tag_20\n      jumpi\n      0x00\n      dup1\n      revert\n    tag_28:\n      dup1\n      0x36568abe\n      gt\n      tag_31\n      jumpi\n      dup1\n      0x5b94bbc3\n      gt\n      tag_32\n      jumpi\n      dup1\n      0x5b94bbc3\n      eq\n      tag_11\n      jumpi\n      dup1\n      0x7cb64759\n      eq\n      tag_12\n      jumpi\n      dup1\n      0x8407ecc4\n      eq\n      tag_13\n      jumpi\n      dup1\n      0x91d14854\n      eq\n      tag_14\n      jumpi\n      0x00\n      dup1\n      revert\n    tag_32:\n      dup1\n      0x36568abe\n      eq\n      tag_8\n      jumpi\n      dup1\n      0x4c0f38c2\n      eq\n      tag_9\n      jumpi\n      dup1\n      0x51cff8d9\n      eq\n      tag_10\n      jumpi\n      0x00\n      dup1\n      revert\n    tag_31:\n      dup1\n      0x01ffc9a7\n      eq\n      tag_2\n      jumpi\n      dup1\n      0x0a25dea9\n      eq\n      tag_3\n      jumpi\n      dup1\n      0x248a9ca3\n      eq\n      tag_4\n      jumpi\n      dup1\n      0x24c37a85\n      eq\n      tag_5\n      jumpi\n      dup1\n      0x2eb4a7ab\n      eq\n      tag_6\n      jumpi\n      dup1\n      0x2f2ff15d\n      eq\n      tag_7\n      jumpi\n    tag_1:\n      0x00\n      dup1\n      revert\n        /* \"@openzeppelin/contracts/access/AccessControl.sol\":2606:2808  function supportsInterface(bytes4 interfaceId) public view virtual override returns (bool) {... */\n    tag_2:\n      callvalue\n      dup1\n      iszero\n      tag_33\n      jumpi\n      0x00\n      dup1\n      revert\n    tag_33:\n      pop\n      tag_34\n      tag_35\n      calldatasize\n      0x04\n      tag_36\n      jump\t// in\n    tag_35:\n      tag_37\n      jump\t// in\n    tag_34:\n      mload(0x40)\n        /* \"#utility.yul\":470:484   */\n      swap1\n      iszero\n        /* \"#utility.yul\":463:485   */\n      iszero\n        /* \"#utility.yul\":445:486   */\n      dup2\n      mstore\n        /* \"#utility.yul\":433:435   */\n      0x20\n        /* \"#utility.yul\":418:436   */\n      add\n        /* \"@openzeppelin/contracts/access/AccessControl.sol\":2606:2808  function supportsInterface(bytes4 interfaceId) public view virtual override returns (bool) {... */\n    tag_38:\n      mload(0x40)\n      dup1\n      swap2\n      sub\n      swap1\n      return\n        /* \"ERC721A/MintNagaKids.sol\":937:1037  bytes32 public constant DEFAULT = 0x0000000000000000000000000000000000000000000000000000000000000000 */\n    tag_3:\n      callvalue\n      dup1\n      iszero\n      tag_40\n      jumpi\n      0x00\n      dup1\n      revert\n    tag_40:\n      pop\n      tag_41\n        /* \"ERC721A/MintNagaKids.sol\":971:1037  0x0000000000000000000000000000000000000000000000000000000000000000 */\n      0x00\n        /* \"ERC721A/MintNagaKids.sol\":937:1037  bytes32 public constant DEFAULT = 0x0000000000000000000000000000000000000000000000000000000000000000 */\n      dup2\n      jump\n    tag_41:\n      mload(0x40)\n        /* \"#utility.yul\":643:668   */\n      swap1\n      dup2\n      mstore\n        /* \"#utility.yul\":631:633   */\n      0x20\n        /* \"#utility.yul\":616:634   */\n      add\n        /* \"ERC721A/MintNagaKids.sol\":937:1037  bytes32 public constant DEFAULT = 0x0000000000000000000000000000000000000000000000000000000000000000 */\n      tag_38\n        /* \"#utility.yul\":497:674   */\n      jump\n        /* \"@openzeppelin/contracts/access/AccessControl.sol\":4391:4520  function getRoleAdmin(bytes32 role) public view virtual override returns (bytes32) {... */\n    tag_4:\n      callvalue\n      dup1\n      iszero\n      tag_45\n      jumpi\n      0x00\n      dup1\n      revert\n    tag_45:\n      pop\n      tag_41\n      tag_47\n      calldatasize\n      0x04\n      tag_48\n      jump\t// in\n    tag_47:\n        /* \"@openzeppelin/contracts/access/AccessControl.sol\":4465:4472  bytes32 */\n      0x00\n        /* \"@openzeppelin/contracts/access/AccessControl.sol\":4491:4503  _roles[role] */\n      swap1\n      dup2\n      mstore\n      0x20\n      dup2\n      swap1\n      mstore\n      0x40\n      swap1\n      keccak256\n        /* \"@openzeppelin/contracts/access/AccessControl.sol\":4491:4513  _roles[role].adminRole */\n      0x01\n      add\n      sload\n      swap1\n        /* \"@openzeppelin/contracts/access/AccessControl.sol\":4391:4520  function getRoleAdmin(bytes32 role) public view virtual override returns (bytes32) {... */\n      jump\n        /* \"ERC721A/MintNagaKids.sol\":623:707  bytes32 public constant NAGA_HOLDER_MINT_ROUND = keccak256(\"NAGA_HOLDER_MINT_ROUND\") */\n    tag_5:\n      callvalue\n      dup1\n      iszero\n      tag_51\n      jumpi\n      0x00\n      dup1\n      revert\n    tag_51:\n      pop\n      tag_41\n        /* \"ERC721A/MintNagaKids.sol\":672:707  keccak256(\"NAGA_HOLDER_MINT_ROUND\") */\n      0xb3c595e55271590809f54e2f4fc3a582754f45b104dd3c41666e2ad310493db3\n        /* \"ERC721A/MintNagaKids.sol\":623:707  bytes32 public constant NAGA_HOLDER_MINT_ROUND = keccak256(\"NAGA_HOLDER_MINT_ROUND\") */\n      dup2\n      jump\n        /* \"ERC721A/MintNagaKids.sol\":1201:1226  bytes32 public merkleRoot */\n    tag_6:\n      callvalue\n      dup1\n      iszero\n      tag_55\n      jumpi\n      0x00\n      dup1\n      revert\n    tag_55:\n      pop\n      tag_41\n      sload(0x04)\n      dup2\n      jump\n        /* \"@openzeppelin/contracts/access/AccessControl.sol\":4770:4915  function grantRole(bytes32 role, address account) public virtual override onlyRole(getRoleAdmin(role)) {... */\n    tag_7:\n      callvalue\n      dup1\n      iszero\n      tag_59\n      jumpi\n      0x00\n      dup1\n      revert\n    tag_59:\n      pop\n      tag_60\n      tag_61\n      calldatasize\n      0x04\n      tag_62\n      jump\t// in\n    tag_61:\n      tag_63\n      jump\t// in\n    tag_60:\n      stop\n        /* \"@openzeppelin/contracts/access/AccessControl.sol\":5787:6001  function renounceRole(bytes32 role, address account) public virtual override {... */\n    tag_8:\n      callvalue\n      dup1\n      iszero\n      tag_64\n      jumpi\n      0x00\n      dup1\n      revert\n    tag_64:\n      pop\n      tag_60\n      tag_66\n      calldatasize\n      0x04\n      tag_62\n      jump\t// in\n    tag_66:\n      tag_67\n      jump\t// in\n        /* \"ERC721A/MintNagaKids.sol\":5476:5583  function getMaxSupply() public view returns (uint256) {... */\n    tag_9:\n      callvalue\n      dup1\n      iszero\n      tag_68\n      jumpi\n      0x00\n      dup1\n      revert\n    tag_68:\n      pop\n      tag_41\n      tag_70\n      jump\t// in\n        /* \"ERC721A/MintNagaKids.sol\":3942:4294  function withdraw(address _to) public onlyRole(WITHDRAW_ROLE) {... */\n    tag_10:\n      callvalue\n      dup1\n      iszero\n      tag_73\n      jumpi\n      0x00\n      dup1\n      revert\n    tag_73:\n      pop\n      tag_60\n      tag_75\n      calldatasize\n      0x04\n      tag_76\n      jump\t// in\n    tag_75:\n      tag_77\n      jump\t// in\n        /* \"ERC721A/MintNagaKids.sol\":784:860  bytes32 public constant SPECIAL_MINT_ROUND = keccak256(\"SPECIAL_MINT_ROUND\") */\n    tag_11:\n      callvalue\n      dup1\n      iszero\n      tag_78\n      jumpi\n      0x00\n      dup1\n      revert\n    tag_78:\n      pop\n      tag_41\n        /* \"ERC721A/MintNagaKids.sol\":829:860  keccak256(\"SPECIAL_MINT_ROUND\") */\n      0x5c8c0ce107274ad0569bd760c3d2406c1ed72c697935f3f965bd096c5cdedee4\n        /* \"ERC721A/MintNagaKids.sol\":784:860  bytes32 public constant SPECIAL_MINT_ROUND = keccak256(\"SPECIAL_MINT_ROUND\") */\n      dup2\n      jump\n        /* \"ERC721A/MintNagaKids.sol\":2781:3020  function setMerkleRoot(bytes32 _merkleRoot) public onlyRole(DEFAULT_ADMIN_ROLE) {... */\n    tag_12:\n      callvalue\n      dup1\n      iszero\n      tag_82\n      jumpi\n      0x00\n      dup1\n      revert\n    tag_82:\n      pop\n      tag_60\n      tag_84\n      calldatasize\n      0x04\n      tag_48\n      jump\t// in\n    tag_84:\n      tag_85\n      jump\t// in\n        /* \"ERC721A/MintNagaKids.sol\":4302:4693  function withdrawCurrency(address _to,address _currency) public onlyRole(WITHDRAW_ROLE) {... */\n    tag_13:\n      callvalue\n      dup1\n      iszero\n      tag_86\n      jumpi\n      0x00\n      dup1\n      revert\n    tag_86:\n      pop\n      tag_60\n      tag_88\n      calldatasize\n      0x04\n      tag_89\n      jump\t// in\n    tag_88:\n      tag_90\n      jump\t// in\n        /* \"@openzeppelin/contracts/access/AccessControl.sol\":2895:3040  function hasRole(bytes32 role, address account) public view virtual override returns (bool) {... */\n    tag_14:\n      callvalue\n      dup1\n      iszero\n      tag_91\n      jumpi\n      0x00\n      dup1\n      revert\n    tag_91:\n      pop\n      tag_34\n      tag_93\n      calldatasize\n      0x04\n      tag_62\n      jump\t// in\n    tag_93:\n      tag_94\n      jump\t// in\n        /* \"ERC721A/MintNagaKids.sol\":2242:2549  function setNagaKidContract(INagaKid _nagaKid) public onlyRole(DEFAULT_ADMIN_ROLE) {... */\n    tag_15:\n      callvalue\n      dup1\n      iszero\n      tag_96\n      jumpi\n      0x00\n      dup1\n      revert\n    tag_96:\n      pop\n      tag_60\n      tag_98\n      calldatasize\n      0x04\n      tag_76\n      jump\t// in\n    tag_98:\n      tag_100\n      jump\t// in\n        /* \"ERC721A/MintNagaKids.sol\":3028:3934  function mint(bytes32[] calldata _proof, uint256 _amount, bytes32 _round) public payable nonReentrant {... */\n    tag_16:\n      tag_60\n      tag_102\n      calldatasize\n      0x04\n      tag_103\n      jump\t// in\n    tag_102:\n      tag_104\n      jump\t// in\n        /* \"ERC721A/MintNagaKids.sol\":5206:5349  function userMintedAmount(address _user,bytes32 _round) public view returns(uint256) {... */\n    tag_18:\n      callvalue\n      dup1\n      iszero\n      tag_109\n      jumpi\n      0x00\n      dup1\n      revert\n    tag_109:\n      pop\n      tag_41\n      tag_111\n      calldatasize\n      0x04\n      tag_112\n      jump\t// in\n    tag_111:\n      sub(shl(0xa0, 0x01), 0x01)\n        /* \"ERC721A/MintNagaKids.sol\":5309:5333  _userMintedAmount[_user] */\n      swap2\n      swap1\n      swap2\n      and\n        /* \"ERC721A/MintNagaKids.sol\":5282:5289  uint256 */\n      0x00\n        /* \"ERC721A/MintNagaKids.sol\":5309:5333  _userMintedAmount[_user] */\n      swap1\n      dup2\n      mstore\n        /* \"ERC721A/MintNagaKids.sol\":5309:5326  _userMintedAmount */\n      0x06\n        /* \"ERC721A/MintNagaKids.sol\":5309:5333  _userMintedAmount[_user] */\n      0x20\n      swap1\n      dup2\n      mstore\n      0x40\n      dup1\n      dup4\n      keccak256\n        /* \"ERC721A/MintNagaKids.sol\":5309:5341  _userMintedAmount[_user][_round] */\n      swap4\n      dup4\n      mstore\n      swap3\n      swap1\n      mstore\n      keccak256\n      sload\n      swap1\n        /* \"ERC721A/MintNagaKids.sol\":5206:5349  function userMintedAmount(address _user,bytes32 _round) public view returns(uint256) {... */\n      jump\n        /* \"ERC721A/MintNagaKids.sol\":4701:5058  function withdrawNFT(address _to,address _NFT,uint256 _tokenId) public onlyRole(WITHDRAW_ROLE) {... */\n    tag_19:\n      callvalue\n      dup1\n      iszero\n      tag_115\n      jumpi\n      0x00\n      dup1\n      revert\n    tag_115:\n      pop\n      tag_60\n      tag_117\n      calldatasize\n      0x04\n      tag_118\n      jump\t// in\n    tag_117:\n      tag_119\n      jump\t// in\n        /* \"ERC721A/MintNagaKids.sol\":5357:5468  function getTotalSupply() public view returns (uint256) {... */\n    tag_20:\n      callvalue\n      dup1\n      iszero\n      tag_120\n      jumpi\n      0x00\n      dup1\n      revert\n    tag_120:\n      pop\n      tag_41\n      tag_122\n      jump\t// in\n        /* \"@openzeppelin/contracts/access/AccessControl.sol\":5149:5296  function revokeRole(bytes32 role, address account) public virtual override onlyRole(getRoleAdmin(role)) {... */\n    tag_21:\n      callvalue\n      dup1\n      iszero\n      tag_124\n      jumpi\n      0x00\n      dup1\n      revert\n    tag_124:\n      pop\n      tag_60\n      tag_126\n      calldatasize\n      0x04\n      tag_62\n      jump\t// in\n    tag_126:\n      tag_127\n      jump\t// in\n        /* \"ERC721A/MintNagaKids.sol\":1125:1156  INagaKid public nagaKidContract */\n    tag_22:\n      callvalue\n      dup1\n      iszero\n      tag_128\n      jumpi\n      0x00\n      dup1\n      revert\n    tag_128:\n      pop\n      sload(0x02)\n      tag_129\n      swap1\n      sub(shl(0xa0, 0x01), 0x01)\n      and\n      dup2\n      jump\n    tag_129:\n      mload(0x40)\n      sub(shl(0xa0, 0x01), 0x01)\n        /* \"#utility.yul\":4140:4172   */\n      swap1\n      swap2\n      and\n        /* \"#utility.yul\":4122:4173   */\n      dup2\n      mstore\n        /* \"#utility.yul\":4110:4112   */\n      0x20\n        /* \"#utility.yul\":4095:4113   */\n      add\n        /* \"ERC721A/MintNagaKids.sol\":1125:1156  INagaKid public nagaKidContract */\n      tag_38\n        /* \"#utility.yul\":3959:4179   */\n      jump\n        /* \"ERC721A/MintNagaKids.sol\":1050:1116  bytes32 public constant WITHDRAW_ROLE = keccak256(\"WITHDRAW_ROLE\") */\n    tag_23:\n      callvalue\n      dup1\n      iszero\n      tag_133\n      jumpi\n      0x00\n      dup1\n      revert\n    tag_133:\n      pop\n      tag_41\n      0x00\n      dup1\n      mload\n      0x20\n      data_71bc58b11912e913810b39e571f45210df6492f34a736e059bce6194bd700432\n      dup4\n      codecopy\n      dup2\n      mload\n      swap2\n      mstore\n      dup2\n      jump\n        /* \"ERC721A/MintNagaKids.sol\":1163:1194  bytes32 public currentMintRound */\n    tag_24:\n      callvalue\n      dup1\n      iszero\n      tag_137\n      jumpi\n      0x00\n      dup1\n      revert\n    tag_137:\n      pop\n      tag_41\n      sload(0x03)\n      dup2\n      jump\n        /* \"ERC721A/MintNagaKids.sol\":466:546  bytes32 public constant WHITELIST_MINT_ROUND = keccak256(\"WHITELIST_MINT_ROUND\") */\n    tag_25:\n      callvalue\n      dup1\n      iszero\n      tag_141\n      jumpi\n      0x00\n      dup1\n      revert\n    tag_141:\n      pop\n      tag_41\n        /* \"ERC721A/MintNagaKids.sol\":513:546  keccak256(\"WHITELIST_MINT_ROUND\") */\n      0x68e7d51fdb912cb107dda2e59b053d87fcca666dd0ef5339cd3474ccb5276bba\n        /* \"ERC721A/MintNagaKids.sol\":466:546  bytes32 public constant WHITELIST_MINT_ROUND = keccak256(\"WHITELIST_MINT_ROUND\") */\n      dup2\n      jump\n        /* \"ERC721A/MintNagaKids.sol\":2557:2773  function setRound(bytes32 _round) public onlyRole(DEFAULT_ADMIN_ROLE) {... */\n    tag_26:\n      callvalue\n      dup1\n      iszero\n      tag_145\n      jumpi\n      0x00\n      dup1\n      revert\n    tag_145:\n      pop\n      tag_60\n      tag_147\n      calldatasize\n      0x04\n      tag_48\n      jump\t// in\n    tag_147:\n      tag_148\n      jump\t// in\n        /* \"ERC721A/MintNagaKids.sol\":5066:5198  function isUserMinted(address _user,bytes32 _round) public view returns(bool) {... */\n    tag_27:\n      callvalue\n      dup1\n      iszero\n      tag_149\n      jumpi\n      0x00\n      dup1\n      revert\n    tag_149:\n      pop\n      tag_34\n      tag_151\n      calldatasize\n      0x04\n      tag_112\n      jump\t// in\n    tag_151:\n      sub(shl(0xa0, 0x01), 0x01)\n        /* \"ERC721A/MintNagaKids.sol\":5162:5182  _isUserMinted[_user] */\n      swap2\n      swap1\n      swap2\n      and\n        /* \"ERC721A/MintNagaKids.sol\":5138:5142  bool */\n      0x00\n        /* \"ERC721A/MintNagaKids.sol\":5162:5182  _isUserMinted[_user] */\n      swap1\n      dup2\n      mstore\n        /* \"ERC721A/MintNagaKids.sol\":5162:5175  _isUserMinted */\n      0x05\n        /* \"ERC721A/MintNagaKids.sol\":5162:5182  _isUserMinted[_user] */\n      0x20\n      swap1\n      dup2\n      mstore\n      0x40\n      dup1\n      dup4\n      keccak256\n        /* \"ERC721A/MintNagaKids.sol\":5162:5190  _isUserMinted[_user][_round] */\n      swap4\n      dup4\n      mstore\n      swap3\n      swap1\n      mstore\n      keccak256\n      sload\n      0xff\n      and\n      swap1\n        /* \"ERC721A/MintNagaKids.sol\":5066:5198  function isUserMinted(address _user,bytes32 _round) public view returns(bool) {... */\n      jump\n        /* \"@openzeppelin/contracts/access/AccessControl.sol\":2606:2808  function supportsInterface(bytes4 interfaceId) public view virtual override returns (bool) {... */\n    tag_37:\n        /* \"@openzeppelin/contracts/access/AccessControl.sol\":2691:2695  bool */\n      0x00\n      not(sub(shl(0xe0, 0x01), 0x01))\n        /* \"@openzeppelin/contracts/access/AccessControl.sol\":2714:2761  interfaceId == type(IAccessControl).interfaceId */\n      dup3\n      and\n      shl(0xe0, 0x7965db0b)\n      eq\n      dup1\n        /* \"@openzeppelin/contracts/access/AccessControl.sol\":2714:2801  interfaceId == type(IAccessControl).interfaceId || super.supportsInterface(interfaceId) */\n      tag_157\n      jumpi\n      pop\n      shl(0xe0, 0x01ffc9a7)\n      not(sub(shl(0xe0, 0x01), 0x01))\n        /* \"@openzeppelin/contracts/utils/introspection/ERC165.sol\":937:977  interfaceId == type(IERC165).interfaceId */\n      dup4\n      and\n      eq\n        /* \"@openzeppelin/contracts/access/AccessControl.sol\":2765:2801  super.supportsInterface(interfaceId) */\n    tag_157:\n        /* \"@openzeppelin/contracts/access/AccessControl.sol\":2707:2801  return interfaceId == type(IAccessControl).interfaceId || super.supportsInterface(interfaceId) */\n      swap3\n        /* \"@openzeppelin/contracts/access/AccessControl.sol\":2606:2808  function supportsInterface(bytes4 interfaceId) public view virtual override returns (bool) {... */\n      swap2\n      pop\n      pop\n      jump\t// out\n        /* \"@openzeppelin/contracts/access/AccessControl.sol\":4770:4915  function grantRole(bytes32 role, address account) public virtual override onlyRole(getRoleAdmin(role)) {... */\n    tag_63:\n        /* \"@openzeppelin/contracts/access/AccessControl.sol\":4465:4472  bytes32 */\n      0x00\n        /* \"@openzeppelin/contracts/access/AccessControl.sol\":4491:4503  _roles[role] */\n      dup3\n      dup2\n      mstore\n      0x20\n      dup2\n      swap1\n      mstore\n      0x40\n      swap1\n      keccak256\n        /* \"@openzeppelin/contracts/access/AccessControl.sol\":4491:4513  _roles[role].adminRole */\n      0x01\n      add\n      sload\n        /* \"@openzeppelin/contracts/access/AccessControl.sol\":2505:2521  _checkRole(role) */\n      tag_162\n        /* \"@openzeppelin/contracts/access/AccessControl.sol\":2516:2520  role */\n      dup2\n        /* \"@openzeppelin/contracts/access/AccessControl.sol\":2505:2515  _checkRole */\n      tag_163\n        /* \"@openzeppelin/contracts/access/AccessControl.sol\":2505:2521  _checkRole(role) */\n      jump\t// in\n    tag_162:\n        /* \"@openzeppelin/contracts/access/AccessControl.sol\":4883:4908  _grantRole(role, account) */\n      tag_165\n        /* \"@openzeppelin/contracts/access/AccessControl.sol\":4894:4898  role */\n      dup4\n        /* \"@openzeppelin/contracts/access/AccessControl.sol\":4900:4907  account */\n      dup4\n        /* \"@openzeppelin/contracts/access/AccessControl.sol\":4883:4893  _grantRole */\n      tag_166\n        /* \"@openzeppelin/contracts/access/AccessControl.sol\":4883:4908  _grantRole(role, account) */\n      jump\t// in\n    tag_165:\n        /* \"@openzeppelin/contracts/access/AccessControl.sol\":4770:4915  function grantRole(bytes32 role, address account) public virtual override onlyRole(getRoleAdmin(role)) {... */\n      pop\n      pop\n      pop\n      jump\t// out\n        /* \"@openzeppelin/contracts/access/AccessControl.sol\":5787:6001  function renounceRole(bytes32 role, address account) public virtual override {... */\n    tag_67:\n      sub(shl(0xa0, 0x01), 0x01)\n        /* \"@openzeppelin/contracts/access/AccessControl.sol\":5882:5905  account == _msgSender() */\n      dup2\n      and\n        /* \"@openzeppelin/contracts/utils/Context.sol\":719:729  msg.sender */\n      caller\n        /* \"@openzeppelin/contracts/access/AccessControl.sol\":5882:5905  account == _msgSender() */\n      eq\n        /* \"@openzeppelin/contracts/access/AccessControl.sol\":5874:5957  require(account == _msgSender(), \"AccessControl: can only renounce roles for self\") */\n      tag_170\n      jumpi\n      mload(0x40)\n      shl(0xe5, 0x461bcd)\n      dup2\n      mstore\n        /* \"#utility.yul\":4386:4388   */\n      0x20\n        /* \"@openzeppelin/contracts/access/AccessControl.sol\":5874:5957  require(account == _msgSender(), \"AccessControl: can only renounce roles for self\") */\n      0x04\n      dup3\n      add\n        /* \"#utility.yul\":4368:4389   */\n      mstore\n        /* \"#utility.yul\":4425:4427   */\n      0x2f\n        /* \"#utility.yul\":4405:4423   */\n      0x24\n      dup3\n      add\n        /* \"#utility.yul\":4398:4428   */\n      mstore\n        /* \"#utility.yul\":4464:4498   */\n      0x416363657373436f6e74726f6c3a2063616e206f6e6c792072656e6f756e6365\n        /* \"#utility.yul\":4444:4462   */\n      0x44\n      dup3\n      add\n        /* \"#utility.yul\":4437:4499   */\n      mstore\n      shl(0x89, 0x103937b632b9903337b91039b2b633)\n        /* \"#utility.yul\":4515:4533   */\n      0x64\n      dup3\n      add\n        /* \"#utility.yul\":4508:4553   */\n      mstore\n        /* \"#utility.yul\":4570:4589   */\n      0x84\n      add\n        /* \"@openzeppelin/contracts/access/AccessControl.sol\":5874:5957  require(account == _msgSender(), \"AccessControl: can only renounce roles for self\") */\n    tag_171:\n      mload(0x40)\n      dup1\n      swap2\n      sub\n      swap1\n      revert\n    tag_170:\n        /* \"@openzeppelin/contracts/access/AccessControl.sol\":5968:5994  _revokeRole(role, account) */\n      tag_173\n        /* \"@openzeppelin/contracts/access/AccessControl.sol\":5980:5984  role */\n      dup3\n        /* \"@openzeppelin/contracts/access/AccessControl.sol\":5986:5993  account */\n      dup3\n        /* \"@openzeppelin/contracts/access/AccessControl.sol\":5968:5979  _revokeRole */\n      tag_174\n        /* \"@openzeppelin/contracts/access/AccessControl.sol\":5968:5994  _revokeRole(role, account) */\n      jump\t// in\n    tag_173:\n        /* \"@openzeppelin/contracts/access/AccessControl.sol\":5787:6001  function renounceRole(bytes32 role, address account) public virtual override {... */\n      pop\n      pop\n      jump\t// out\n        /* \"ERC721A/MintNagaKids.sol\":5476:5583  function getMaxSupply() public view returns (uint256) {... */\n    tag_70:\n        /* \"ERC721A/MintNagaKids.sol\":5548:5563  nagaKidContract */\n      sload(0x02)\n        /* \"ERC721A/MintNagaKids.sol\":5548:5575  nagaKidContract.maxSupply() */\n      0x40\n      dup1\n      mload\n      shl(0xe0, 0xd5abeb01)\n      dup2\n      mstore\n      swap1\n      mload\n        /* \"ERC721A/MintNagaKids.sol\":5521:5528  uint256 */\n      0x00\n      swap3\n      sub(shl(0xa0, 0x01), 0x01)\n        /* \"ERC721A/MintNagaKids.sol\":5548:5563  nagaKidContract */\n      and\n      swap2\n        /* \"ERC721A/MintNagaKids.sol\":5548:5573  nagaKidContract.maxSupply */\n      0xd5abeb01\n      swap2\n        /* \"ERC721A/MintNagaKids.sol\":5548:5575  nagaKidContract.maxSupply() */\n      0x04\n      dup1\n      dup4\n      add\n      swap3\n      0x20\n      swap3\n      swap2\n      swap1\n      dup3\n      swap1\n      sub\n      add\n      dup2\n        /* \"ERC721A/MintNagaKids.sol\":5548:5563  nagaKidContract */\n      dup7\n        /* \"ERC721A/MintNagaKids.sol\":5548:5575  nagaKidContract.maxSupply() */\n      gas\n      staticcall\n      iszero\n      dup1\n      iszero\n      tag_177\n      jumpi\n      returndatasize\n      0x00\n      dup1\n      returndatacopy\n      revert(0x00, returndatasize)\n    tag_177:\n      pop\n      pop\n      pop\n      pop\n      mload(0x40)\n      returndatasize\n      not(0x1f)\n      0x1f\n      dup3\n      add\n      and\n      dup3\n      add\n      dup1\n      0x40\n      mstore\n      pop\n      dup2\n      add\n      swap1\n      tag_178\n      swap2\n      swap1\n      tag_179\n      jump\t// in\n    tag_178:\n        /* \"ERC721A/MintNagaKids.sol\":5541:5575  return nagaKidContract.maxSupply() */\n      swap1\n      pop\n        /* \"ERC721A/MintNagaKids.sol\":5476:5583  function getMaxSupply() public view returns (uint256) {... */\n      swap1\n      jump\t// out\n        /* \"ERC721A/MintNagaKids.sol\":3942:4294  function withdraw(address _to) public onlyRole(WITHDRAW_ROLE) {... */\n    tag_77:\n      0x00\n      dup1\n      mload\n      0x20\n      data_71bc58b11912e913810b39e571f45210df6492f34a736e059bce6194bd700432\n      dup4\n      codecopy\n      dup2\n      mload\n      swap2\n      mstore\n        /* \"@openzeppelin/contracts/access/AccessControl.sol\":2505:2521  _checkRole(role) */\n      tag_181\n        /* \"@openzeppelin/contracts/access/AccessControl.sol\":2516:2520  role */\n      dup2\n        /* \"@openzeppelin/contracts/access/AccessControl.sol\":2505:2515  _checkRole */\n      tag_163\n        /* \"@openzeppelin/contracts/access/AccessControl.sol\":2505:2521  _checkRole(role) */\n      jump\t// in\n    tag_181:\n        /* \"ERC721A/MintNagaKids.sol\":4040:4061  address(this).balance */\n      selfbalance\n        /* \"ERC721A/MintNagaKids.sol\":4080:4101  balanceOFContract > 0 */\n      dup1\n        /* \"ERC721A/MintNagaKids.sol\":4072:4126  require(balanceOFContract > 0, \"Insufficient Balance\") */\n      tag_183\n      jumpi\n      mload(0x40)\n      shl(0xe5, 0x461bcd)\n      dup2\n      mstore\n        /* \"#utility.yul\":4991:4993   */\n      0x20\n        /* \"ERC721A/MintNagaKids.sol\":4072:4126  require(balanceOFContract > 0, \"Insufficient Balance\") */\n      0x04\n      dup3\n      add\n        /* \"#utility.yul\":4973:4994   */\n      mstore\n        /* \"#utility.yul\":5030:5032   */\n      0x14\n        /* \"#utility.yul\":5010:5028   */\n      0x24\n      dup3\n      add\n        /* \"#utility.yul\":5003:5033   */\n      mstore\n      shl(0x60, 0x496e73756666696369656e742042616c616e6365)\n        /* \"#utility.yul\":5049:5067   */\n      0x44\n      dup3\n      add\n        /* \"#utility.yul\":5042:5092   */\n      mstore\n        /* \"#utility.yul\":5109:5127   */\n      0x64\n      add\n        /* \"ERC721A/MintNagaKids.sol\":4072:4126  require(balanceOFContract > 0, \"Insufficient Balance\") */\n      tag_171\n        /* \"#utility.yul\":4789:5133   */\n      jump\n        /* \"ERC721A/MintNagaKids.sol\":4072:4126  require(balanceOFContract > 0, \"Insufficient Balance\") */\n    tag_183:\n        /* \"ERC721A/MintNagaKids.sol\":4138:4149  bool status */\n      0x00\n        /* \"ERC721A/MintNagaKids.sol\":4154:4157  _to */\n      dup4\n      sub(shl(0xa0, 0x01), 0x01)\n        /* \"ERC721A/MintNagaKids.sol\":4154:4162  _to.call */\n      and\n        /* \"ERC721A/MintNagaKids.sol\":4170:4187  balanceOFContract */\n      dup3\n        /* \"ERC721A/MintNagaKids.sol\":4154:4193  _to.call{value: balanceOFContract }(\"\") */\n      mload(0x40)\n      0x00\n      mload(0x40)\n      dup1\n      dup4\n      sub\n      dup2\n      dup6\n      dup8\n      gas\n      call\n      swap3\n      pop\n      pop\n      pop\n      returndatasize\n      dup1\n      0x00\n      dup2\n      eq\n      tag_190\n      jumpi\n      mload(0x40)\n      swap2\n      pop\n      and(add(returndatasize, 0x3f), not(0x1f))\n      dup3\n      add\n      0x40\n      mstore\n      returndatasize\n      dup3\n      mstore\n      returndatasize\n      0x00\n      0x20\n      dup5\n      add\n      returndatacopy\n      jump(tag_189)\n    tag_190:\n      0x60\n      swap2\n      pop\n    tag_189:\n      pop\n        /* \"ERC721A/MintNagaKids.sol\":4137:4193  (bool status,) = _to.call{value: balanceOFContract }(\"\") */\n      pop\n      swap1\n      pop\n        /* \"ERC721A/MintNagaKids.sol\":4212:4218  status */\n      dup1\n        /* \"ERC721A/MintNagaKids.sol\":4204:4219  require(status) */\n      tag_191\n      jumpi\n      0x00\n      dup1\n      revert\n    tag_191:\n        /* \"ERC721A/MintNagaKids.sol\":4237:4286  Withdraw(_to, balanceOFContract ,block.timestamp) */\n      0x40\n      dup1\n      mload\n      sub(shl(0xa0, 0x01), 0x01)\n        /* \"#utility.yul\":5568:5600   */\n      dup7\n      and\n        /* \"#utility.yul\":5550:5601   */\n      dup2\n      mstore\n        /* \"#utility.yul\":5632:5634   */\n      0x20\n        /* \"#utility.yul\":5617:5635   */\n      dup2\n      add\n        /* \"#utility.yul\":5610:5644   */\n      dup5\n      swap1\n      mstore\n        /* \"ERC721A/MintNagaKids.sol\":4270:4285  block.timestamp */\n      timestamp\n        /* \"#utility.yul\":5660:5678   */\n      swap2\n      dup2\n      add\n        /* \"#utility.yul\":5653:5687   */\n      swap2\n      swap1\n      swap2\n      mstore\n        /* \"ERC721A/MintNagaKids.sol\":4237:4286  Withdraw(_to, balanceOFContract ,block.timestamp) */\n      0xf279e6a1f5e320cca91135676d9cb6e44ca8a08c0b88342bcdb1144f6511b568\n      swap1\n        /* \"#utility.yul\":5538:5540   */\n      0x60\n        /* \"#utility.yul\":5523:5541   */\n      add\n        /* \"ERC721A/MintNagaKids.sol\":4237:4286  Withdraw(_to, balanceOFContract ,block.timestamp) */\n    tag_192:\n      mload(0x40)\n      dup1\n      swap2\n      sub\n      swap1\n      log1\n        /* \"ERC721A/MintNagaKids.sol\":4004:4294  {... */\n      pop\n      pop\n        /* \"ERC721A/MintNagaKids.sol\":3942:4294  function withdraw(address _to) public onlyRole(WITHDRAW_ROLE) {... */\n      pop\n      pop\n      jump\t// out\n        /* \"ERC721A/MintNagaKids.sol\":2781:3020  function setMerkleRoot(bytes32 _merkleRoot) public onlyRole(DEFAULT_ADMIN_ROLE) {... */\n    tag_85:\n        /* \"@openzeppelin/contracts/access/AccessControl.sol\":2072:2076  0x00 */\n      0x00\n        /* \"@openzeppelin/contracts/access/AccessControl.sol\":2505:2521  _checkRole(role) */\n      tag_195\n        /* \"@openzeppelin/contracts/access/AccessControl.sol\":2072:2076  0x00 */\n      dup2\n        /* \"@openzeppelin/contracts/access/AccessControl.sol\":2505:2515  _checkRole */\n      tag_163\n        /* \"@openzeppelin/contracts/access/AccessControl.sol\":2505:2521  _checkRole(role) */\n      jump\t// in\n    tag_195:\n        /* \"ERC721A/MintNagaKids.sol\":2900:2910  merkleRoot */\n      0x04\n      dup1\n      sload\n        /* \"ERC721A/MintNagaKids.sol\":2921:2945  merkleRoot = _merkleRoot */\n      swap1\n      dup4\n      swap1\n      sstore\n        /* \"ERC721A/MintNagaKids.sol\":2963:3012  MerkleRootChanged(_merkleRootBefore, _merkleRoot) */\n      0x40\n      dup1\n      mload\n        /* \"#utility.yul\":5872:5897   */\n      dup3\n      dup2\n      mstore\n        /* \"#utility.yul\":5928:5930   */\n      0x20\n        /* \"#utility.yul\":5913:5931   */\n      dup2\n      add\n        /* \"#utility.yul\":5906:5940   */\n      dup6\n      swap1\n      mstore\n        /* \"ERC721A/MintNagaKids.sol\":2963:3012  MerkleRootChanged(_merkleRootBefore, _merkleRoot) */\n      0x123d88ba82600dfc3f219f8885c691b0ff020caa535666874b3f5174973757fe\n      swap2\n        /* \"#utility.yul\":5845:5863   */\n      add\n        /* \"ERC721A/MintNagaKids.sol\":2963:3012  MerkleRootChanged(_merkleRootBefore, _merkleRoot) */\n    tag_197:\n      mload(0x40)\n      dup1\n      swap2\n      sub\n      swap1\n      log1\n        /* \"ERC721A/MintNagaKids.sol\":2861:3020  {... */\n      pop\n        /* \"ERC721A/MintNagaKids.sol\":2781:3020  function setMerkleRoot(bytes32 _merkleRoot) public onlyRole(DEFAULT_ADMIN_ROLE) {... */\n      pop\n      pop\n      jump\t// out\n        /* \"ERC721A/MintNagaKids.sol\":4302:4693  function withdrawCurrency(address _to,address _currency) public onlyRole(WITHDRAW_ROLE) {... */\n    tag_90:\n      0x00\n      dup1\n      mload\n      0x20\n      data_71bc58b11912e913810b39e571f45210df6492f34a736e059bce6194bd700432\n      dup4\n      codecopy\n      dup2\n      mload\n      swap2\n      mstore\n        /* \"@openzeppelin/contracts/access/AccessControl.sol\":2505:2521  _checkRole(role) */\n      tag_200\n        /* \"@openzeppelin/contracts/access/AccessControl.sol\":2516:2520  role */\n      dup2\n        /* \"@openzeppelin/contracts/access/AccessControl.sol\":2505:2515  _checkRole */\n      tag_163\n        /* \"@openzeppelin/contracts/access/AccessControl.sol\":2505:2521  _checkRole(role) */\n      jump\t// in\n    tag_200:\n        /* \"ERC721A/MintNagaKids.sol\":4426:4468  IERC20(_currency).balanceOf(address(this)) */\n      mload(0x40)\n      shl(0xe0, 0x70a08231)\n      dup2\n      mstore\n        /* \"ERC721A/MintNagaKids.sol\":4462:4466  this */\n      address\n        /* \"ERC721A/MintNagaKids.sol\":4426:4468  IERC20(_currency).balanceOf(address(this)) */\n      0x04\n      dup3\n      add\n        /* \"#utility.yul\":4122:4173   */\n      mstore\n        /* \"ERC721A/MintNagaKids.sol\":4401:4423  uint balanceOfContract */\n      0x00\n      swap1\n      sub(shl(0xa0, 0x01), 0x01)\n        /* \"ERC721A/MintNagaKids.sol\":4426:4453  IERC20(_currency).balanceOf */\n      dup5\n      and\n      swap1\n      0x70a08231\n      swap1\n        /* \"#utility.yul\":4095:4113   */\n      0x24\n      add\n        /* \"ERC721A/MintNagaKids.sol\":4426:4468  IERC20(_currency).balanceOf(address(this)) */\n      0x20\n      mload(0x40)\n      dup1\n      dup4\n      sub\n      dup2\n      dup7\n      gas\n      staticcall\n      iszero\n      dup1\n      iszero\n      tag_205\n      jumpi\n      returndatasize\n      0x00\n      dup1\n      returndatacopy\n      revert(0x00, returndatasize)\n    tag_205:\n      pop\n      pop\n      pop\n      pop\n      mload(0x40)\n      returndatasize\n      not(0x1f)\n      0x1f\n      dup3\n      add\n      and\n      dup3\n      add\n      dup1\n      0x40\n      mstore\n      pop\n      dup2\n      add\n      swap1\n      tag_206\n      swap2\n      swap1\n      tag_179\n      jump\t// in\n    tag_206:\n        /* \"ERC721A/MintNagaKids.sol\":4401:4468  uint balanceOfContract = IERC20(_currency).balanceOf(address(this)) */\n      swap1\n      pop\n        /* \"ERC721A/MintNagaKids.sol\":4507:4508  0 */\n      0x00\n        /* \"ERC721A/MintNagaKids.sol\":4487:4504  balanceOfContract */\n      dup2\n        /* \"ERC721A/MintNagaKids.sol\":4487:4508  balanceOfContract > 0 */\n      gt\n        /* \"ERC721A/MintNagaKids.sol\":4479:4533  require(balanceOfContract > 0, \"Insufficient Balance\") */\n      tag_207\n      jumpi\n      mload(0x40)\n      shl(0xe5, 0x461bcd)\n      dup2\n      mstore\n        /* \"#utility.yul\":4991:4993   */\n      0x20\n        /* \"ERC721A/MintNagaKids.sol\":4479:4533  require(balanceOfContract > 0, \"Insufficient Balance\") */\n      0x04\n      dup3\n      add\n        /* \"#utility.yul\":4973:4994   */\n      mstore\n        /* \"#utility.yul\":5030:5032   */\n      0x14\n        /* \"#utility.yul\":5010:5028   */\n      0x24\n      dup3\n      add\n        /* \"#utility.yul\":5003:5033   */\n      mstore\n      shl(0x60, 0x496e73756666696369656e742042616c616e6365)\n        /* \"#utility.yul\":5049:5067   */\n      0x44\n      dup3\n      add\n        /* \"#utility.yul\":5042:5092   */\n      mstore\n        /* \"#utility.yul\":5109:5127   */\n      0x64\n      add\n        /* \"ERC721A/MintNagaKids.sol\":4479:4533  require(balanceOfContract > 0, \"Insufficient Balance\") */\n      tag_171\n        /* \"#utility.yul\":4789:5133   */\n      jump\n        /* \"ERC721A/MintNagaKids.sol\":4479:4533  require(balanceOfContract > 0, \"Insufficient Balance\") */\n    tag_207:\n        /* \"ERC721A/MintNagaKids.sol\":4544:4594  IERC20(_currency).transfer(_to, balanceOfContract) */\n      mload(0x40)\n      shl(0xe0, 0xa9059cbb)\n      dup2\n      mstore\n      sub(shl(0xa0, 0x01), 0x01)\n        /* \"#utility.yul\":6351:6383   */\n      dup6\n      dup2\n      and\n        /* \"ERC721A/MintNagaKids.sol\":4544:4594  IERC20(_currency).transfer(_to, balanceOfContract) */\n      0x04\n      dup4\n      add\n        /* \"#utility.yul\":6333:6384   */\n      mstore\n        /* \"#utility.yul\":6400:6418   */\n      0x24\n      dup3\n      add\n        /* \"#utility.yul\":6393:6427   */\n      dup4\n      swap1\n      mstore\n        /* \"ERC721A/MintNagaKids.sol\":4544:4570  IERC20(_currency).transfer */\n      dup5\n      and\n      swap1\n      0xa9059cbb\n      swap1\n        /* \"#utility.yul\":6306:6324   */\n      0x44\n      add\n        /* \"ERC721A/MintNagaKids.sol\":4544:4594  IERC20(_currency).transfer(_to, balanceOfContract) */\n      0x20\n      mload(0x40)\n      dup1\n      dup4\n      sub\n      dup2\n      0x00\n      dup8\n      gas\n      call\n      iszero\n      dup1\n      iszero\n      tag_212\n      jumpi\n      returndatasize\n      0x00\n      dup1\n      returndatacopy\n      revert(0x00, returndatasize)\n    tag_212:\n      pop\n      pop\n      pop\n      pop\n      mload(0x40)\n      returndatasize\n      not(0x1f)\n      0x1f\n      dup3\n      add\n      and\n      dup3\n      add\n      dup1\n      0x40\n      mstore\n      pop\n      dup2\n      add\n      swap1\n      tag_213\n      swap2\n      swap1\n      tag_214\n      jump\t// in\n    tag_213:\n      pop\n        /* \"ERC721A/MintNagaKids.sol\":4620:4685  WithdrawCurrency(_to,_currency,balanceOfContract,block.timestamp) */\n      0x40\n      dup1\n      mload\n      sub(shl(0xa0, 0x01), 0x01)\n        /* \"#utility.yul\":7007:7022   */\n      dup1\n      dup8\n      and\n        /* \"#utility.yul\":6989:7023   */\n      dup3\n      mstore\n        /* \"#utility.yul\":7059:7074   */\n      dup6\n      and\n        /* \"#utility.yul\":7054:7056   */\n      0x20\n        /* \"#utility.yul\":7039:7057   */\n      dup3\n      add\n        /* \"#utility.yul\":7032:7075   */\n      mstore\n        /* \"#utility.yul\":7091:7109   */\n      swap1\n      dup2\n      add\n        /* \"#utility.yul\":7084:7118   */\n      dup3\n      swap1\n      mstore\n        /* \"ERC721A/MintNagaKids.sol\":4669:4684  block.timestamp */\n      timestamp\n        /* \"#utility.yul\":7149:7151   */\n      0x60\n        /* \"#utility.yul\":7134:7152   */\n      dup3\n      add\n        /* \"#utility.yul\":7127:7161   */\n      mstore\n        /* \"ERC721A/MintNagaKids.sol\":4620:4685  WithdrawCurrency(_to,_currency,balanceOfContract,block.timestamp) */\n      0xb818a975f91276df8ba59329becbc23c793df0d503c19ac296c3c372a1fa0461\n      swap1\n        /* \"#utility.yul\":6938:6941   */\n      0x80\n        /* \"#utility.yul\":6923:6942   */\n      add\n        /* \"ERC721A/MintNagaKids.sol\":4620:4685  WithdrawCurrency(_to,_currency,balanceOfContract,block.timestamp) */\n      tag_192\n        /* \"#utility.yul\":6720:7167   */\n      jump\n        /* \"@openzeppelin/contracts/access/AccessControl.sol\":2895:3040  function hasRole(bytes32 role, address account) public view virtual override returns (bool) {... */\n    tag_94:\n        /* \"@openzeppelin/contracts/access/AccessControl.sol\":2981:2985  bool */\n      0x00\n        /* \"@openzeppelin/contracts/access/AccessControl.sol\":3004:3016  _roles[role] */\n      swap2\n      dup3\n      mstore\n      0x20\n      dup3\n      dup2\n      mstore\n      0x40\n      dup1\n      dup5\n      keccak256\n      sub(shl(0xa0, 0x01), 0x01)\n        /* \"@openzeppelin/contracts/access/AccessControl.sol\":3004:3033  _roles[role].members[account] */\n      swap4\n      swap1\n      swap4\n      and\n      dup5\n      mstore\n      swap2\n      swap1\n      mstore\n      swap1\n      keccak256\n      sload\n      0xff\n      and\n      swap1\n        /* \"@openzeppelin/contracts/access/AccessControl.sol\":2895:3040  function hasRole(bytes32 role, address account) public view virtual override returns (bool) {... */\n      jump\t// out\n        /* \"ERC721A/MintNagaKids.sol\":2242:2549  function setNagaKidContract(INagaKid _nagaKid) public onlyRole(DEFAULT_ADMIN_ROLE) {... */\n    tag_100:\n        /* \"@openzeppelin/contracts/access/AccessControl.sol\":2072:2076  0x00 */\n      0x00\n        /* \"@openzeppelin/contracts/access/AccessControl.sol\":2505:2521  _checkRole(role) */\n      tag_219\n        /* \"@openzeppelin/contracts/access/AccessControl.sol\":2072:2076  0x00 */\n      dup2\n        /* \"@openzeppelin/contracts/access/AccessControl.sol\":2505:2515  _checkRole */\n      tag_163\n        /* \"@openzeppelin/contracts/access/AccessControl.sol\":2505:2521  _checkRole(role) */\n      jump\t// in\n    tag_219:\n        /* \"ERC721A/MintNagaKids.sol\":2368:2383  nagaKidContract */\n      0x02\n      dup1\n      sload\n      sub(shl(0xa0, 0x01), 0x01)\n        /* \"ERC721A/MintNagaKids.sol\":2395:2421  nagaKidContract = _nagaKid */\n      dup5\n      dup2\n      and\n      not(sub(shl(0xa0, 0x01), 0x01))\n      dup4\n      and\n      dup2\n      or\n      swap1\n      swap4\n      sstore\n        /* \"ERC721A/MintNagaKids.sol\":2490:2541  NagaKidContractChanged(nagaKidBefore, nagaKidAfter) */\n      0x40\n      dup1\n      mload\n        /* \"ERC721A/MintNagaKids.sol\":2368:2383  nagaKidContract */\n      swap2\n      swap1\n      swap3\n      and\n        /* \"#utility.yul\":7384:7418   */\n      dup1\n      dup3\n      mstore\n        /* \"#utility.yul\":7449:7451   */\n      0x20\n        /* \"#utility.yul\":7434:7452   */\n      dup3\n      add\n        /* \"#utility.yul\":7427:7470   */\n      swap4\n      swap1\n      swap4\n      mstore\n        /* \"ERC721A/MintNagaKids.sol\":2395:2421  nagaKidContract = _nagaKid */\n      dup5\n      swap2\n        /* \"ERC721A/MintNagaKids.sol\":2490:2541  NagaKidContractChanged(nagaKidBefore, nagaKidAfter) */\n      0xabdf056c85a221fcb31d0366c4475b6b2c613df2eeea951a9fcb3e1a8595d973\n      swap2\n        /* \"#utility.yul\":7319:7337   */\n      add\n        /* \"ERC721A/MintNagaKids.sol\":2490:2541  NagaKidContractChanged(nagaKidBefore, nagaKidAfter) */\n      tag_192\n        /* \"#utility.yul\":7172:7476   */\n      jump\n        /* \"ERC721A/MintNagaKids.sol\":3028:3934  function mint(bytes32[] calldata _proof, uint256 _amount, bytes32 _round) public payable nonReentrant {... */\n    tag_104:\n        /* \"@openzeppelin/contracts/security/ReentrancyGuard.sol\":1744:1745  2 */\n      0x02\n        /* \"@openzeppelin/contracts/security/ReentrancyGuard.sol\":2325:2332  _status */\n      sload(0x01)\n        /* \"@openzeppelin/contracts/security/ReentrancyGuard.sol\":2325:2344  _status != _ENTERED */\n      sub\n        /* \"@openzeppelin/contracts/security/ReentrancyGuard.sol\":2317:2380  require(_status != _ENTERED, \"ReentrancyGuard: reentrant call\") */\n      tag_224\n      jumpi\n      mload(0x40)\n      shl(0xe5, 0x461bcd)\n      dup2\n      mstore\n        /* \"#utility.yul\":7683:7685   */\n      0x20\n        /* \"@openzeppelin/contracts/security/ReentrancyGuard.sol\":2317:2380  require(_status != _ENTERED, \"ReentrancyGuard: reentrant call\") */\n      0x04\n      dup3\n      add\n        /* \"#utility.yul\":7665:7686   */\n      mstore\n        /* \"#utility.yul\":7722:7724   */\n      0x1f\n        /* \"#utility.yul\":7702:7720   */\n      0x24\n      dup3\n      add\n        /* \"#utility.yul\":7695:7725   */\n      mstore\n        /* \"#utility.yul\":7761:7794   */\n      0x5265656e7472616e637947756172643a207265656e7472616e742063616c6c00\n        /* \"#utility.yul\":7741:7759   */\n      0x44\n      dup3\n      add\n        /* \"#utility.yul\":7734:7795   */\n      mstore\n        /* \"#utility.yul\":7812:7830   */\n      0x64\n      add\n        /* \"@openzeppelin/contracts/security/ReentrancyGuard.sol\":2317:2380  require(_status != _ENTERED, \"ReentrancyGuard: reentrant call\") */\n      tag_171\n        /* \"#utility.yul\":7481:7836   */\n      jump\n        /* \"@openzeppelin/contracts/security/ReentrancyGuard.sol\":2317:2380  require(_status != _ENTERED, \"ReentrancyGuard: reentrant call\") */\n    tag_224:\n        /* \"@openzeppelin/contracts/security/ReentrancyGuard.sol\":1744:1745  2 */\n      0x02\n        /* \"@openzeppelin/contracts/security/ReentrancyGuard.sol\":2455:2462  _status */\n      0x01\n        /* \"@openzeppelin/contracts/security/ReentrancyGuard.sol\":2455:2473  _status = _ENTERED */\n      sstore\n        /* \"ERC721A/MintNagaKids.sol\":3149:3155  _round */\n      dup1\n        /* \"ERC721A/MintNagaKids.sol\":3141:3191  require(_round != DEFAULT,\"Mint is not approved.\") */\n      tag_228\n      jumpi\n      mload(0x40)\n      shl(0xe5, 0x461bcd)\n      dup2\n      mstore\n        /* \"#utility.yul\":8043:8045   */\n      0x20\n        /* \"ERC721A/MintNagaKids.sol\":3141:3191  require(_round != DEFAULT,\"Mint is not approved.\") */\n      0x04\n      dup3\n      add\n        /* \"#utility.yul\":8025:8046   */\n      mstore\n        /* \"#utility.yul\":8082:8084   */\n      0x15\n        /* \"#utility.yul\":8062:8080   */\n      0x24\n      dup3\n      add\n        /* \"#utility.yul\":8055:8085   */\n      mstore\n      shl(0x59, 0x26b4b73a1034b9903737ba1030b8383937bb32b217)\n        /* \"#utility.yul\":8101:8119   */\n      0x44\n      dup3\n      add\n        /* \"#utility.yul\":8094:8145   */\n      mstore\n        /* \"#utility.yul\":8162:8180   */\n      0x64\n      add\n        /* \"ERC721A/MintNagaKids.sol\":3141:3191  require(_round != DEFAULT,\"Mint is not approved.\") */\n      tag_171\n        /* \"#utility.yul\":7841:8186   */\n      jump\n        /* \"ERC721A/MintNagaKids.sol\":3141:3191  require(_round != DEFAULT,\"Mint is not approved.\") */\n    tag_228:\n        /* \"ERC721A/MintNagaKids.sol\":3230:3236  _round */\n      dup1\n        /* \"ERC721A/MintNagaKids.sol\":3210:3226  currentMintRound */\n      sload(0x03)\n        /* \"ERC721A/MintNagaKids.sol\":3210:3236  currentMintRound == _round */\n      eq\n        /* \"ERC721A/MintNagaKids.sol\":3202:3280  require(currentMintRound == _round, \"Contract are not in this minting round.\") */\n      tag_231\n      jumpi\n      mload(0x40)\n      shl(0xe5, 0x461bcd)\n      dup2\n      mstore\n        /* \"#utility.yul\":8393:8395   */\n      0x20\n        /* \"ERC721A/MintNagaKids.sol\":3202:3280  require(currentMintRound == _round, \"Contract are not in this minting round.\") */\n      0x04\n      dup3\n      add\n        /* \"#utility.yul\":8375:8396   */\n      mstore\n        /* \"#utility.yul\":8432:8434   */\n      0x27\n        /* \"#utility.yul\":8412:8430   */\n      0x24\n      dup3\n      add\n        /* \"#utility.yul\":8405:8435   */\n      mstore\n        /* \"#utility.yul\":8471:8505   */\n      0x436f6e747261637420617265206e6f7420696e2074686973206d696e74696e67\n        /* \"#utility.yul\":8451:8469   */\n      0x44\n      dup3\n      add\n        /* \"#utility.yul\":8444:8506   */\n      mstore\n      shl(0xc9, 0x103937bab73217)\n        /* \"#utility.yul\":8522:8540   */\n      0x64\n      dup3\n      add\n        /* \"#utility.yul\":8515:8552   */\n      mstore\n        /* \"#utility.yul\":8569:8588   */\n      0x84\n      add\n        /* \"ERC721A/MintNagaKids.sol\":3202:3280  require(currentMintRound == _round, \"Contract are not in this minting round.\") */\n      tag_171\n        /* \"#utility.yul\":8191:8594   */\n      jump\n        /* \"ERC721A/MintNagaKids.sol\":3202:3280  require(currentMintRound == _round, \"Contract are not in this minting round.\") */\n    tag_231:\n        /* \"ERC721A/MintNagaKids.sol\":3328:3342  getMaxSupply() */\n      tag_234\n        /* \"ERC721A/MintNagaKids.sol\":3328:3340  getMaxSupply */\n      tag_70\n        /* \"ERC721A/MintNagaKids.sol\":3328:3342  getMaxSupply() */\n      jump\t// in\n    tag_234:\n        /* \"ERC721A/MintNagaKids.sol\":3318:3325  _amount */\n      dup3\n        /* \"ERC721A/MintNagaKids.sol\":3299:3315  getTotalSupply() */\n      tag_235\n        /* \"ERC721A/MintNagaKids.sol\":3299:3313  getTotalSupply */\n      tag_122\n        /* \"ERC721A/MintNagaKids.sol\":3299:3315  getTotalSupply() */\n      jump\t// in\n    tag_235:\n        /* \"ERC721A/MintNagaKids.sol\":3299:3325  getTotalSupply() + _amount */\n      tag_236\n      swap2\n      swap1\n      tag_237\n      jump\t// in\n    tag_236:\n        /* \"ERC721A/MintNagaKids.sol\":3299:3342  getTotalSupply() + _amount < getMaxSupply() */\n      lt\n        /* \"ERC721A/MintNagaKids.sol\":3291:3358  require(getTotalSupply() + _amount < getMaxSupply(), \"Over supply\") */\n      tag_238\n      jumpi\n      mload(0x40)\n      shl(0xe5, 0x461bcd)\n      dup2\n      mstore\n        /* \"#utility.yul\":9066:9068   */\n      0x20\n        /* \"ERC721A/MintNagaKids.sol\":3291:3358  require(getTotalSupply() + _amount < getMaxSupply(), \"Over supply\") */\n      0x04\n      dup3\n      add\n        /* \"#utility.yul\":9048:9069   */\n      mstore\n        /* \"#utility.yul\":9105:9107   */\n      0x0b\n        /* \"#utility.yul\":9085:9103   */\n      0x24\n      dup3\n      add\n        /* \"#utility.yul\":9078:9108   */\n      mstore\n      shl(0xa8, 0x4f76657220737570706c79)\n        /* \"#utility.yul\":9124:9142   */\n      0x44\n      dup3\n      add\n        /* \"#utility.yul\":9117:9158   */\n      mstore\n        /* \"#utility.yul\":9175:9193   */\n      0x64\n      add\n        /* \"ERC721A/MintNagaKids.sol\":3291:3358  require(getTotalSupply() + _amount < getMaxSupply(), \"Over supply\") */\n      tag_171\n        /* \"#utility.yul\":8864:9199   */\n      jump\n        /* \"ERC721A/MintNagaKids.sol\":3291:3358  require(getTotalSupply() + _amount < getMaxSupply(), \"Over supply\") */\n    tag_238:\n        /* \"ERC721A/MintNagaKids.sol\":3390:3400  msg.sender */\n      caller\n        /* \"ERC721A/MintNagaKids.sol\":5138:5142  bool */\n      0x00\n        /* \"ERC721A/MintNagaKids.sol\":5162:5182  _isUserMinted[_user] */\n      swap1\n      dup2\n      mstore\n        /* \"ERC721A/MintNagaKids.sol\":5162:5175  _isUserMinted */\n      0x05\n        /* \"ERC721A/MintNagaKids.sol\":5162:5182  _isUserMinted[_user] */\n      0x20\n      swap1\n      dup2\n      mstore\n      0x40\n      dup1\n      dup4\n      keccak256\n        /* \"ERC721A/MintNagaKids.sol\":5162:5190  _isUserMinted[_user][_round] */\n      dup5\n      dup5\n      mstore\n      swap1\n      swap2\n      mstore\n      swap1\n      keccak256\n      sload\n      0xff\n      and\n        /* \"ERC721A/MintNagaKids.sol\":3377:3417  isUserMinted(msg.sender,_round) == false */\n      iszero\n        /* \"ERC721A/MintNagaKids.sol\":3369:3445  require(isUserMinted(msg.sender,_round) == false, \"You are already minted.\") */\n      tag_242\n      jumpi\n      mload(0x40)\n      shl(0xe5, 0x461bcd)\n      dup2\n      mstore\n        /* \"#utility.yul\":9406:9408   */\n      0x20\n        /* \"ERC721A/MintNagaKids.sol\":3369:3445  require(isUserMinted(msg.sender,_round) == false, \"You are already minted.\") */\n      0x04\n      dup3\n      add\n        /* \"#utility.yul\":9388:9409   */\n      mstore\n        /* \"#utility.yul\":9445:9447   */\n      0x17\n        /* \"#utility.yul\":9425:9443   */\n      0x24\n      dup3\n      add\n        /* \"#utility.yul\":9418:9448   */\n      mstore\n        /* \"#utility.yul\":9484:9509   */\n      0x596f752061726520616c7265616479206d696e7465642e000000000000000000\n        /* \"#utility.yul\":9464:9482   */\n      0x44\n      dup3\n      add\n        /* \"#utility.yul\":9457:9510   */\n      mstore\n        /* \"#utility.yul\":9527:9545   */\n      0x64\n      add\n        /* \"ERC721A/MintNagaKids.sol\":3369:3445  require(isUserMinted(msg.sender,_round) == false, \"You are already minted.\") */\n      tag_171\n        /* \"#utility.yul\":9204:9551   */\n      jump\n        /* \"ERC721A/MintNagaKids.sol\":3369:3445  require(isUserMinted(msg.sender,_round) == false, \"You are already minted.\") */\n    tag_242:\n        /* \"ERC721A/MintNagaKids.sol\":3464:3479  nagaKidContract */\n      sload(0x02)\n        /* \"ERC721A/MintNagaKids.sol\":3464:3503  nagaKidContract.isMinter(address(this)) */\n      mload(0x40)\n      shl(0xe1, 0x55138f0d)\n      dup2\n      mstore\n        /* \"ERC721A/MintNagaKids.sol\":3497:3501  this */\n      address\n        /* \"ERC721A/MintNagaKids.sol\":3464:3503  nagaKidContract.isMinter(address(this)) */\n      0x04\n      dup3\n      add\n        /* \"#utility.yul\":4122:4173   */\n      mstore\n      sub(shl(0xa0, 0x01), 0x01)\n        /* \"ERC721A/MintNagaKids.sol\":3464:3479  nagaKidContract */\n      swap1\n      swap2\n      and\n      swap1\n        /* \"ERC721A/MintNagaKids.sol\":3464:3488  nagaKidContract.isMinter */\n      0xaa271e1a\n      swap1\n        /* \"#utility.yul\":4095:4113   */\n      0x24\n      add\n        /* \"ERC721A/MintNagaKids.sol\":3464:3503  nagaKidContract.isMinter(address(this)) */\n      0x20\n      mload(0x40)\n      dup1\n      dup4\n      sub\n      dup2\n      dup7\n      gas\n      staticcall\n      iszero\n      dup1\n      iszero\n      tag_247\n      jumpi\n      returndatasize\n      0x00\n      dup1\n      returndatacopy\n      revert(0x00, returndatasize)\n    tag_247:\n      pop\n      pop\n      pop\n      pop\n      mload(0x40)\n      returndatasize\n      not(0x1f)\n      0x1f\n      dup3\n      add\n      and\n      dup3\n      add\n      dup1\n      0x40\n      mstore\n      pop\n      dup2\n      add\n      swap1\n      tag_248\n      swap2\n      swap1\n      tag_214\n      jump\t// in\n    tag_248:\n        /* \"ERC721A/MintNagaKids.sol\":3456:3538  require(nagaKidContract.isMinter(address(this)), \"Contract Mint is not approved.\") */\n      tag_249\n      jumpi\n      mload(0x40)\n      shl(0xe5, 0x461bcd)\n      dup2\n      mstore\n        /* \"#utility.yul\":9758:9760   */\n      0x20\n        /* \"ERC721A/MintNagaKids.sol\":3456:3538  require(nagaKidContract.isMinter(address(this)), \"Contract Mint is not approved.\") */\n      0x04\n      dup3\n      add\n        /* \"#utility.yul\":9740:9761   */\n      mstore\n        /* \"#utility.yul\":9797:9799   */\n      0x1e\n        /* \"#utility.yul\":9777:9795   */\n      0x24\n      dup3\n      add\n        /* \"#utility.yul\":9770:9800   */\n      mstore\n        /* \"#utility.yul\":9836:9868   */\n      0x436f6e7472616374204d696e74206973206e6f7420617070726f7665642e0000\n        /* \"#utility.yul\":9816:9834   */\n      0x44\n      dup3\n      add\n        /* \"#utility.yul\":9809:9869   */\n      mstore\n        /* \"#utility.yul\":9886:9904   */\n      0x64\n      add\n        /* \"ERC721A/MintNagaKids.sol\":3456:3538  require(nagaKidContract.isMinter(address(this)), \"Contract Mint is not approved.\") */\n      tag_171\n        /* \"#utility.yul\":9556:9910   */\n      jump\n        /* \"ERC721A/MintNagaKids.sol\":3456:3538  require(nagaKidContract.isMinter(address(this)), \"Contract Mint is not approved.\") */\n    tag_249:\n        /* \"ERC721A/MintNagaKids.sol\":3557:3653  MerkleProof.verify(_proof, merkleRoot, keccak256(abi.encodePacked(msg.sender, _amount, _round))) */\n      tag_252\n        /* \"ERC721A/MintNagaKids.sol\":3576:3582  _proof */\n      dup5\n      dup5\n        /* \"ERC721A/MintNagaKids.sol\":3557:3653  MerkleProof.verify(_proof, merkleRoot, keccak256(abi.encodePacked(msg.sender, _amount, _round))) */\n      dup1\n      dup1\n      0x20\n      mul\n      0x20\n      add\n      mload(0x40)\n      swap1\n      dup2\n      add\n      0x40\n      mstore\n      dup1\n      swap4\n      swap3\n      swap2\n      swap1\n      dup2\n      dup2\n      mstore\n      0x20\n      add\n      dup4\n      dup4\n      0x20\n      mul\n      dup1\n      dup3\n      dup5\n      calldatacopy\n      0x00\n      swap3\n      add\n      swap2\n      swap1\n      swap2\n      mstore\n      pop\n      pop\n        /* \"ERC721A/MintNagaKids.sol\":3584:3594  merkleRoot */\n      sload(0x04)\n        /* \"ERC721A/MintNagaKids.sol\":3606:3651  abi.encodePacked(msg.sender, _amount, _round) */\n      mload(0x40)\n      not(0xffffffffffffffffffffffff)\n        /* \"ERC721A/MintNagaKids.sol\":3623:3633  msg.sender */\n      caller\n        /* \"#utility.yul\":10120:10122   */\n      0x60\n        /* \"#utility.yul\":10116:10131   */\n      shl\n        /* \"#utility.yul\":10112:10165   */\n      and\n        /* \"ERC721A/MintNagaKids.sol\":3606:3651  abi.encodePacked(msg.sender, _amount, _round) */\n      0x20\n      dup3\n      add\n        /* \"#utility.yul\":10100:10166   */\n      mstore\n        /* \"#utility.yul\":10182:10194   */\n      0x34\n      dup2\n      add\n        /* \"#utility.yul\":10175:10203   */\n      dup9\n      swap1\n      mstore\n        /* \"#utility.yul\":10219:10231   */\n      0x54\n      dup2\n      add\n        /* \"#utility.yul\":10212:10240   */\n      dup8\n      swap1\n      mstore\n        /* \"ERC721A/MintNagaKids.sol\":3584:3594  merkleRoot */\n      swap1\n      swap3\n      pop\n        /* \"#utility.yul\":10256:10268   */\n      0x74\n      add\n      swap1\n      pop\n        /* \"ERC721A/MintNagaKids.sol\":3606:3651  abi.encodePacked(msg.sender, _amount, _round) */\n      mload(0x40)\n      0x20\n      dup2\n      dup4\n      sub\n      sub\n      dup2\n      mstore\n      swap1\n      0x40\n      mstore\n        /* \"ERC721A/MintNagaKids.sol\":3596:3652  keccak256(abi.encodePacked(msg.sender, _amount, _round)) */\n      dup1\n      mload\n      swap1\n      0x20\n      add\n      keccak256\n        /* \"ERC721A/MintNagaKids.sol\":3557:3575  MerkleProof.verify */\n      tag_255\n        /* \"ERC721A/MintNagaKids.sol\":3557:3653  MerkleProof.verify(_proof, merkleRoot, keccak256(abi.encodePacked(msg.sender, _amount, _round))) */\n      jump\t// in\n    tag_252:\n        /* \"ERC721A/MintNagaKids.sol\":3549:3695  require(MerkleProof.verify(_proof, merkleRoot, keccak256(abi.encodePacked(msg.sender, _amount, _round))), \"Unauthorized WhitelistMint This User.\") */\n      tag_256\n      jumpi\n      mload(0x40)\n      shl(0xe5, 0x461bcd)\n      dup2\n      mstore\n        /* \"#utility.yul\":10481:10483   */\n      0x20\n        /* \"ERC721A/MintNagaKids.sol\":3549:3695  require(MerkleProof.verify(_proof, merkleRoot, keccak256(abi.encodePacked(msg.sender, _amount, _round))), \"Unauthorized WhitelistMint This User.\") */\n      0x04\n      dup3\n      add\n        /* \"#utility.yul\":10463:10484   */\n      mstore\n        /* \"#utility.yul\":10520:10522   */\n      0x25\n        /* \"#utility.yul\":10500:10518   */\n      0x24\n      dup3\n      add\n        /* \"#utility.yul\":10493:10523   */\n      mstore\n        /* \"#utility.yul\":10559:10593   */\n      0x556e617574686f72697a65642057686974656c6973744d696e74205468697320\n        /* \"#utility.yul\":10539:10557   */\n      0x44\n      dup3\n      add\n        /* \"#utility.yul\":10532:10594   */\n      mstore\n      shl(0xd9, 0x2ab9b2b917)\n        /* \"#utility.yul\":10610:10628   */\n      0x64\n      dup3\n      add\n        /* \"#utility.yul\":10603:10638   */\n      mstore\n        /* \"#utility.yul\":10655:10674   */\n      0x84\n      add\n        /* \"ERC721A/MintNagaKids.sol\":3549:3695  require(MerkleProof.verify(_proof, merkleRoot, keccak256(abi.encodePacked(msg.sender, _amount, _round))), \"Unauthorized WhitelistMint This User.\") */\n      tag_171\n        /* \"#utility.yul\":10279:10680   */\n      jump\n        /* \"ERC721A/MintNagaKids.sol\":3549:3695  require(MerkleProof.verify(_proof, merkleRoot, keccak256(abi.encodePacked(msg.sender, _amount, _round))), \"Unauthorized WhitelistMint This User.\") */\n    tag_256:\n        /* \"ERC721A/MintNagaKids.sol\":3722:3732  msg.sender */\n      caller\n        /* \"ERC721A/MintNagaKids.sol\":3708:3733  _isUserMinted[msg.sender] */\n      0x00\n      dup2\n      dup2\n      mstore\n        /* \"ERC721A/MintNagaKids.sol\":3708:3721  _isUserMinted */\n      0x05\n        /* \"ERC721A/MintNagaKids.sol\":3708:3733  _isUserMinted[msg.sender] */\n      0x20\n      swap1\n      dup2\n      mstore\n      0x40\n      dup1\n      dup4\n      keccak256\n        /* \"ERC721A/MintNagaKids.sol\":3708:3741  _isUserMinted[msg.sender][_round] */\n      dup6\n      dup5\n      mstore\n      dup3\n      mstore\n      dup1\n      dup4\n      keccak256\n        /* \"ERC721A/MintNagaKids.sol\":3708:3748  _isUserMinted[msg.sender][_round] = true */\n      dup1\n      sload\n      not(0xff)\n      and\n        /* \"ERC721A/MintNagaKids.sol\":3744:3748  true */\n      0x01\n        /* \"ERC721A/MintNagaKids.sol\":3708:3748  _isUserMinted[msg.sender][_round] = true */\n      or\n      swap1\n      sstore\n        /* \"ERC721A/MintNagaKids.sol\":3759:3788  _userMintedAmount[msg.sender] */\n      swap3\n      dup3\n      mstore\n        /* \"ERC721A/MintNagaKids.sol\":3759:3776  _userMintedAmount */\n      0x06\n        /* \"ERC721A/MintNagaKids.sol\":3759:3788  _userMintedAmount[msg.sender] */\n      dup2\n      mstore\n      dup3\n      dup3\n      keccak256\n        /* \"ERC721A/MintNagaKids.sol\":3759:3796  _userMintedAmount[msg.sender][_round] */\n      dup5\n      dup4\n      mstore\n      swap1\n      mstore\n      swap1\n      dup2\n      keccak256\n        /* \"ERC721A/MintNagaKids.sol\":3759:3807  _userMintedAmount[msg.sender][_round] += _amount */\n      dup1\n      sload\n        /* \"ERC721A/MintNagaKids.sol\":3800:3807  _amount */\n      dup5\n      swap3\n        /* \"ERC721A/MintNagaKids.sol\":3708:3733  _isUserMinted[msg.sender] */\n      swap1\n        /* \"ERC721A/MintNagaKids.sol\":3759:3807  _userMintedAmount[msg.sender][_round] += _amount */\n      tag_259\n      swap1\n        /* \"ERC721A/MintNagaKids.sol\":3800:3807  _amount */\n      dup5\n      swap1\n        /* \"ERC721A/MintNagaKids.sol\":3759:3807  _userMintedAmount[msg.sender][_round] += _amount */\n      tag_237\n      jump\t// in\n    tag_259:\n      swap1\n      swap2\n      sstore\n      pop\n      pop\n        /* \"ERC721A/MintNagaKids.sol\":3820:3835  nagaKidContract */\n      sload(0x02)\n        /* \"ERC721A/MintNagaKids.sol\":3820:3864  nagaKidContract.safeMint(msg.sender,_amount) */\n      mload(0x40)\n      shl(0xe2, 0x28512065)\n      dup2\n      mstore\n        /* \"ERC721A/MintNagaKids.sol\":3845:3855  msg.sender */\n      caller\n        /* \"ERC721A/MintNagaKids.sol\":3820:3864  nagaKidContract.safeMint(msg.sender,_amount) */\n      0x04\n      dup3\n      add\n        /* \"#utility.yul\":6333:6384   */\n      mstore\n        /* \"#utility.yul\":6400:6418   */\n      0x24\n      dup2\n      add\n        /* \"#utility.yul\":6393:6427   */\n      dup5\n      swap1\n      mstore\n      sub(shl(0xa0, 0x01), 0x01)\n        /* \"ERC721A/MintNagaKids.sol\":3820:3835  nagaKidContract */\n      swap1\n      swap2\n      and\n      swap1\n        /* \"ERC721A/MintNagaKids.sol\":3820:3844  nagaKidContract.safeMint */\n      0xa1448194\n      swap1\n        /* \"#utility.yul\":6306:6324   */\n      0x44\n      add\n        /* \"ERC721A/MintNagaKids.sol\":3820:3864  nagaKidContract.safeMint(msg.sender,_amount) */\n      0x00\n      mload(0x40)\n      dup1\n      dup4\n      sub\n      dup2\n      0x00\n      dup8\n      dup1\n      extcodesize\n      iszero\n      dup1\n      iszero\n      tag_261\n      jumpi\n      0x00\n      dup1\n      revert\n    tag_261:\n      pop\n      gas\n      call\n      iszero\n      dup1\n      iszero\n      tag_263\n      jumpi\n      returndatasize\n      0x00\n      dup1\n      returndatacopy\n      revert(0x00, returndatasize)\n    tag_263:\n      pop\n      pop\n        /* \"ERC721A/MintNagaKids.sol\":3882:3926  Minted(msg.sender, _amount, block.timestamp) */\n      0x40\n      dup1\n      mload\n        /* \"#utility.yul\":5872:5897   */\n      dup6\n      dup2\n      mstore\n        /* \"ERC721A/MintNagaKids.sol\":3910:3925  block.timestamp */\n      timestamp\n        /* \"#utility.yul\":5928:5930   */\n      0x20\n        /* \"#utility.yul\":5913:5931   */\n      dup3\n      add\n        /* \"#utility.yul\":5906:5940   */\n      mstore\n        /* \"ERC721A/MintNagaKids.sol\":3889:3899  msg.sender */\n      caller\n      swap4\n      pop\n        /* \"ERC721A/MintNagaKids.sol\":3882:3926  Minted(msg.sender, _amount, block.timestamp) */\n      0x25b428dfde728ccfaddad7e29e4ac23c24ed7fd1a6e3e3f91894a9a073f5dfff\n      swap3\n      pop\n        /* \"#utility.yul\":5845:5863   */\n      add\n        /* \"ERC721A/MintNagaKids.sol\":3882:3926  Minted(msg.sender, _amount, block.timestamp) */\n      mload(0x40)\n      dup1\n      swap2\n      sub\n      swap1\n      log2\n      pop\n      pop\n        /* \"@openzeppelin/contracts/security/ReentrancyGuard.sol\":1701:1702  1 */\n      0x01\n        /* \"@openzeppelin/contracts/security/ReentrancyGuard.sol\":2628:2650  _status = _NOT_ENTERED */\n      dup1\n      sstore\n      pop\n      pop\n        /* \"ERC721A/MintNagaKids.sol\":3028:3934  function mint(bytes32[] calldata _proof, uint256 _amount, bytes32 _round) public payable nonReentrant {... */\n      jump\t// out\n        /* \"ERC721A/MintNagaKids.sol\":4701:5058  function withdrawNFT(address _to,address _NFT,uint256 _tokenId) public onlyRole(WITHDRAW_ROLE) {... */\n    tag_119:\n      0x00\n      dup1\n      mload\n      0x20\n      data_71bc58b11912e913810b39e571f45210df6492f34a736e059bce6194bd700432\n      dup4\n      codecopy\n      dup2\n      mload\n      swap2\n      mstore\n        /* \"@openzeppelin/contracts/access/AccessControl.sol\":2505:2521  _checkRole(role) */\n      tag_268\n        /* \"@openzeppelin/contracts/access/AccessControl.sol\":2516:2520  role */\n      dup2\n        /* \"@openzeppelin/contracts/access/AccessControl.sol\":2505:2515  _checkRole */\n      tag_163\n        /* \"@openzeppelin/contracts/access/AccessControl.sol\":2505:2521  _checkRole(role) */\n      jump\t// in\n    tag_268:\n        /* \"ERC721A/MintNagaKids.sol\":4815:4846  IERC721(_NFT).ownerOf(_tokenId) */\n      mload(0x40)\n      shl(0xe1, 0x31a9108f)\n      dup2\n      mstore\n      0x04\n      dup2\n      add\n        /* \"#utility.yul\":643:668   */\n      dup4\n      swap1\n      mstore\n        /* \"ERC721A/MintNagaKids.sol\":4858:4862  this */\n      address\n      swap1\n      sub(shl(0xa0, 0x01), 0x01)\n        /* \"ERC721A/MintNagaKids.sol\":4815:4836  IERC721(_NFT).ownerOf */\n      dup6\n      and\n      swap1\n      0x6352211e\n      swap1\n        /* \"#utility.yul\":616:634   */\n      0x24\n      add\n        /* \"ERC721A/MintNagaKids.sol\":4815:4846  IERC721(_NFT).ownerOf(_tokenId) */\n      0x20\n      mload(0x40)\n      dup1\n      dup4\n      sub\n      dup2\n      dup7\n      gas\n      staticcall\n      iszero\n      dup1\n      iszero\n      tag_272\n      jumpi\n      returndatasize\n      0x00\n      dup1\n      returndatacopy\n      revert(0x00, returndatasize)\n    tag_272:\n      pop\n      pop\n      pop\n      pop\n      mload(0x40)\n      returndatasize\n      not(0x1f)\n      0x1f\n      dup3\n      add\n      and\n      dup3\n      add\n      dup1\n      0x40\n      mstore\n      pop\n      dup2\n      add\n      swap1\n      tag_273\n      swap2\n      swap1\n      tag_274\n      jump\t// in\n    tag_273:\n      sub(shl(0xa0, 0x01), 0x01)\n        /* \"ERC721A/MintNagaKids.sol\":4815:4863  IERC721(_NFT).ownerOf(_tokenId) == address(this) */\n      and\n      eq\n        /* \"ERC721A/MintNagaKids.sol\":4807:4905  require(IERC721(_NFT).ownerOf(_tokenId) == address(this), \"This tokenId is not owned by contract\") */\n      tag_275\n      jumpi\n      mload(0x40)\n      shl(0xe5, 0x461bcd)\n      dup2\n      mstore\n        /* \"#utility.yul\":11396:11398   */\n      0x20\n        /* \"ERC721A/MintNagaKids.sol\":4807:4905  require(IERC721(_NFT).ownerOf(_tokenId) == address(this), \"This tokenId is not owned by contract\") */\n      0x04\n      dup3\n      add\n        /* \"#utility.yul\":11378:11399   */\n      mstore\n        /* \"#utility.yul\":11435:11437   */\n      0x25\n        /* \"#utility.yul\":11415:11433   */\n      0x24\n      dup3\n      add\n        /* \"#utility.yul\":11408:11438   */\n      mstore\n        /* \"#utility.yul\":11474:11508   */\n      0x5468697320746f6b656e4964206973206e6f74206f776e656420627920636f6e\n        /* \"#utility.yul\":11454:11472   */\n      0x44\n      dup3\n      add\n        /* \"#utility.yul\":11447:11509   */\n      mstore\n      shl(0xda, 0x1d1c9858dd)\n        /* \"#utility.yul\":11525:11543   */\n      0x64\n      dup3\n      add\n        /* \"#utility.yul\":11518:11553   */\n      mstore\n        /* \"#utility.yul\":11570:11589   */\n      0x84\n      add\n        /* \"ERC721A/MintNagaKids.sol\":4807:4905  require(IERC721(_NFT).ownerOf(_tokenId) == address(this), \"This tokenId is not owned by contract\") */\n      tag_171\n        /* \"#utility.yul\":11194:11595   */\n      jump\n        /* \"ERC721A/MintNagaKids.sol\":4807:4905  require(IERC721(_NFT).ownerOf(_tokenId) == address(this), \"This tokenId is not owned by contract\") */\n    tag_275:\n        /* \"ERC721A/MintNagaKids.sol\":4918:4978  IERC721(_NFT).safeTransferFrom(address(this), _to, _tokenId) */\n      mload(0x40)\n      shl(0xe1, 0x21421707)\n      dup2\n      mstore\n        /* \"ERC721A/MintNagaKids.sol\":4957:4961  this */\n      address\n        /* \"ERC721A/MintNagaKids.sol\":4918:4978  IERC721(_NFT).safeTransferFrom(address(this), _to, _tokenId) */\n      0x04\n      dup3\n      add\n        /* \"#utility.yul\":11840:11874   */\n      mstore\n      sub(shl(0xa0, 0x01), 0x01)\n        /* \"#utility.yul\":11910:11925   */\n      dup6\n      dup2\n      and\n        /* \"#utility.yul\":11890:11908   */\n      0x24\n      dup4\n      add\n        /* \"#utility.yul\":11883:11926   */\n      mstore\n        /* \"#utility.yul\":11942:11960   */\n      0x44\n      dup3\n      add\n        /* \"#utility.yul\":11935:11969   */\n      dup5\n      swap1\n      mstore\n        /* \"ERC721A/MintNagaKids.sol\":4918:4948  IERC721(_NFT).safeTransferFrom */\n      dup5\n      and\n      swap1\n      0x42842e0e\n      swap1\n        /* \"#utility.yul\":11775:11793   */\n      0x64\n      add\n        /* \"ERC721A/MintNagaKids.sol\":4918:4978  IERC721(_NFT).safeTransferFrom(address(this), _to, _tokenId) */\n      0x00\n      mload(0x40)\n      dup1\n      dup4\n      sub\n      dup2\n      0x00\n      dup8\n      dup1\n      extcodesize\n      iszero\n      dup1\n      iszero\n      tag_280\n      jumpi\n      0x00\n      dup1\n      revert\n    tag_280:\n      pop\n      gas\n      call\n      iszero\n      dup1\n      iszero\n      tag_282\n      jumpi\n      returndatasize\n      0x00\n      dup1\n      returndatacopy\n      revert(0x00, returndatasize)\n    tag_282:\n      pop\n      pop\n        /* \"ERC721A/MintNagaKids.sol\":5004:5050  WithdrawNFT(_to,_NFT,_tokenId,block.timestamp) */\n      0x40\n      dup1\n      mload\n      sub(shl(0xa0, 0x01), 0x01)\n        /* \"#utility.yul\":7007:7022   */\n      dup1\n      dup10\n      and\n        /* \"#utility.yul\":6989:7023   */\n      dup3\n      mstore\n        /* \"#utility.yul\":7059:7074   */\n      dup8\n      and\n        /* \"#utility.yul\":7054:7056   */\n      0x20\n        /* \"#utility.yul\":7039:7057   */\n      dup3\n      add\n        /* \"#utility.yul\":7032:7075   */\n      mstore\n        /* \"#utility.yul\":7091:7109   */\n      swap1\n      dup2\n      add\n        /* \"#utility.yul\":7084:7118   */\n      dup6\n      swap1\n      mstore\n        /* \"ERC721A/MintNagaKids.sol\":5034:5049  block.timestamp */\n      timestamp\n        /* \"#utility.yul\":7149:7151   */\n      0x60\n        /* \"#utility.yul\":7134:7152   */\n      dup3\n      add\n        /* \"#utility.yul\":7127:7161   */\n      mstore\n        /* \"ERC721A/MintNagaKids.sol\":5004:5050  WithdrawNFT(_to,_NFT,_tokenId,block.timestamp) */\n      0x0127a8d3f57942833f6930572bce52ad882683e36eeb5830d199d3fa4bfa9467\n      swap3\n      pop\n        /* \"#utility.yul\":6938:6941   */\n      0x80\n        /* \"#utility.yul\":6923:6942   */\n      add\n      swap1\n      pop\n        /* \"ERC721A/MintNagaKids.sol\":5004:5050  WithdrawNFT(_to,_NFT,_tokenId,block.timestamp) */\n      tag_192\n        /* \"#utility.yul\":6720:7167   */\n      jump\n        /* \"ERC721A/MintNagaKids.sol\":5357:5468  function getTotalSupply() public view returns (uint256) {... */\n    tag_122:\n        /* \"ERC721A/MintNagaKids.sol\":5431:5446  nagaKidContract */\n      sload(0x02)\n        /* \"ERC721A/MintNagaKids.sol\":5431:5460  nagaKidContract.totalSupply() */\n      0x40\n      dup1\n      mload\n      shl(0xe0, 0x18160ddd)\n      dup2\n      mstore\n      swap1\n      mload\n        /* \"ERC721A/MintNagaKids.sol\":5404:5411  uint256 */\n      0x00\n      swap3\n      sub(shl(0xa0, 0x01), 0x01)\n        /* \"ERC721A/MintNagaKids.sol\":5431:5446  nagaKidContract */\n      and\n      swap2\n        /* \"ERC721A/MintNagaKids.sol\":5431:5458  nagaKidContract.totalSupply */\n      0x18160ddd\n      swap2\n        /* \"ERC721A/MintNagaKids.sol\":5431:5460  nagaKidContract.totalSupply() */\n      0x04\n      dup1\n      dup4\n      add\n      swap3\n      0x20\n      swap3\n      swap2\n      swap1\n      dup3\n      swap1\n      sub\n      add\n      dup2\n        /* \"ERC721A/MintNagaKids.sol\":5431:5446  nagaKidContract */\n      dup7\n        /* \"ERC721A/MintNagaKids.sol\":5431:5460  nagaKidContract.totalSupply() */\n      gas\n      staticcall\n      iszero\n      dup1\n      iszero\n      tag_177\n      jumpi\n      returndatasize\n      0x00\n      dup1\n      returndatacopy\n      revert(0x00, returndatasize)\n        /* \"@openzeppelin/contracts/access/AccessControl.sol\":5149:5296  function revokeRole(bytes32 role, address account) public virtual override onlyRole(getRoleAdmin(role)) {... */\n    tag_127:\n        /* \"@openzeppelin/contracts/access/AccessControl.sol\":4465:4472  bytes32 */\n      0x00\n        /* \"@openzeppelin/contracts/access/AccessControl.sol\":4491:4503  _roles[role] */\n      dup3\n      dup2\n      mstore\n      0x20\n      dup2\n      swap1\n      mstore\n      0x40\n      swap1\n      keccak256\n        /* \"@openzeppelin/contracts/access/AccessControl.sol\":4491:4513  _roles[role].adminRole */\n      0x01\n      add\n      sload\n        /* \"@openzeppelin/contracts/access/AccessControl.sol\":2505:2521  _checkRole(role) */\n      tag_290\n        /* \"@openzeppelin/contracts/access/AccessControl.sol\":2516:2520  role */\n      dup2\n        /* \"@openzeppelin/contracts/access/AccessControl.sol\":2505:2515  _checkRole */\n      tag_163\n        /* \"@openzeppelin/contracts/access/AccessControl.sol\":2505:2521  _checkRole(role) */\n      jump\t// in\n    tag_290:\n        /* \"@openzeppelin/contracts/access/AccessControl.sol\":5263:5289  _revokeRole(role, account) */\n      tag_165\n        /* \"@openzeppelin/contracts/access/AccessControl.sol\":5275:5279  role */\n      dup4\n        /* \"@openzeppelin/contracts/access/AccessControl.sol\":5281:5288  account */\n      dup4\n        /* \"@openzeppelin/contracts/access/AccessControl.sol\":5263:5274  _revokeRole */\n      tag_174\n        /* \"@openzeppelin/contracts/access/AccessControl.sol\":5263:5289  _revokeRole(role, account) */\n      jump\t// in\n        /* \"ERC721A/MintNagaKids.sol\":2557:2773  function setRound(bytes32 _round) public onlyRole(DEFAULT_ADMIN_ROLE) {... */\n    tag_148:\n        /* \"@openzeppelin/contracts/access/AccessControl.sol\":2072:2076  0x00 */\n      0x00\n        /* \"@openzeppelin/contracts/access/AccessControl.sol\":2505:2521  _checkRole(role) */\n      tag_294\n        /* \"@openzeppelin/contracts/access/AccessControl.sol\":2072:2076  0x00 */\n      dup2\n        /* \"@openzeppelin/contracts/access/AccessControl.sol\":2505:2515  _checkRole */\n      tag_163\n        /* \"@openzeppelin/contracts/access/AccessControl.sol\":2505:2521  _checkRole(role) */\n      jump\t// in\n    tag_294:\n        /* \"ERC721A/MintNagaKids.sol\":2661:2677  currentMintRound */\n      0x03\n      dup1\n      sload\n        /* \"ERC721A/MintNagaKids.sol\":2688:2713  currentMintRound = _round */\n      swap1\n      dup4\n      swap1\n      sstore\n        /* \"ERC721A/MintNagaKids.sol\":2731:2765  RoundChanged(_roundBefore, _round) */\n      0x40\n      dup1\n      mload\n        /* \"#utility.yul\":5872:5897   */\n      dup3\n      dup2\n      mstore\n        /* \"#utility.yul\":5928:5930   */\n      0x20\n        /* \"#utility.yul\":5913:5931   */\n      dup2\n      add\n        /* \"#utility.yul\":5906:5940   */\n      dup6\n      swap1\n      mstore\n        /* \"ERC721A/MintNagaKids.sol\":2731:2765  RoundChanged(_roundBefore, _round) */\n      0x521ec96875ca228cd2fc1dbd4c927a34328c9ce1a83bcb8c1f633f012c90d785\n      swap2\n        /* \"#utility.yul\":5845:5863   */\n      add\n        /* \"ERC721A/MintNagaKids.sol\":2731:2765  RoundChanged(_roundBefore, _round) */\n      tag_197\n        /* \"#utility.yul\":5698:5946   */\n      jump\n        /* \"@openzeppelin/contracts/utils/Strings.sol\":1588:2029  function toHexString(uint256 value, uint256 length) internal pure returns (string memory) {... */\n    tag_154:\n        /* \"@openzeppelin/contracts/utils/Strings.sol\":1663:1676  string memory */\n      0x60\n        /* \"@openzeppelin/contracts/utils/Strings.sol\":1688:1707  bytes memory buffer */\n      0x00\n        /* \"@openzeppelin/contracts/utils/Strings.sol\":1720:1730  2 * length */\n      tag_299\n        /* \"@openzeppelin/contracts/utils/Strings.sol\":1724:1730  length */\n      dup4\n        /* \"@openzeppelin/contracts/utils/Strings.sol\":1720:1721  2 */\n      0x02\n        /* \"@openzeppelin/contracts/utils/Strings.sol\":1720:1730  2 * length */\n      tag_300\n      jump\t// in\n    tag_299:\n        /* \"@openzeppelin/contracts/utils/Strings.sol\":1720:1734  2 * length + 2 */\n      tag_301\n      swap1\n        /* \"@openzeppelin/contracts/utils/Strings.sol\":1733:1734  2 */\n      0x02\n        /* \"@openzeppelin/contracts/utils/Strings.sol\":1720:1734  2 * length + 2 */\n      tag_237\n      jump\t// in\n    tag_301:\n        /* \"@openzeppelin/contracts/utils/Strings.sol\":1710:1735  new bytes(2 * length + 2) */\n      0xffffffffffffffff\n      dup2\n      gt\n      iszero\n      tag_303\n      jumpi\n      tag_303\n      tag_304\n      jump\t// in\n    tag_303:\n      mload(0x40)\n      swap1\n      dup1\n      dup3\n      mstore\n      dup1\n      0x1f\n      add\n      not(0x1f)\n      and\n      0x20\n      add\n      dup3\n      add\n      0x40\n      mstore\n      dup1\n      iszero\n      tag_305\n      jumpi\n      0x20\n      dup3\n      add\n      dup2\n      dup1\n      calldatasize\n      dup4\n      calldatacopy\n      add\n      swap1\n      pop\n    tag_305:\n      pop\n        /* \"@openzeppelin/contracts/utils/Strings.sol\":1688:1735  bytes memory buffer = new bytes(2 * length + 2) */\n      swap1\n      pop\n      shl(0xfc, 0x03)\n        /* \"@openzeppelin/contracts/utils/Strings.sol\":1745:1751  buffer */\n      dup2\n        /* \"@openzeppelin/contracts/utils/Strings.sol\":1752:1753  0 */\n      0x00\n        /* \"@openzeppelin/contracts/utils/Strings.sol\":1745:1754  buffer[0] */\n      dup2\n      mload\n      dup2\n      lt\n      tag_307\n      jumpi\n      tag_307\n      tag_308\n      jump\t// in\n    tag_307:\n      0x20\n      add\n      add\n        /* \"@openzeppelin/contracts/utils/Strings.sol\":1745:1760  buffer[0] = \"0\" */\n      swap1\n      not(sub(shl(0xf8, 0x01), 0x01))\n      and\n      swap1\n      dup2\n      0x00\n      byte\n      swap1\n      mstore8\n      pop\n      shl(0xfb, 0x0f)\n        /* \"@openzeppelin/contracts/utils/Strings.sol\":1770:1776  buffer */\n      dup2\n        /* \"@openzeppelin/contracts/utils/Strings.sol\":1777:1778  1 */\n      0x01\n        /* \"@openzeppelin/contracts/utils/Strings.sol\":1770:1779  buffer[1] */\n      dup2\n      mload\n      dup2\n      lt\n      tag_310\n      jumpi\n      tag_310\n      tag_308\n      jump\t// in\n    tag_310:\n      0x20\n      add\n      add\n        /* \"@openzeppelin/contracts/utils/Strings.sol\":1770:1785  buffer[1] = \"x\" */\n      swap1\n      not(sub(shl(0xf8, 0x01), 0x01))\n      and\n      swap1\n      dup2\n      0x00\n      byte\n      swap1\n      mstore8\n      pop\n        /* \"@openzeppelin/contracts/utils/Strings.sol\":1800:1809  uint256 i */\n      0x00\n        /* \"@openzeppelin/contracts/utils/Strings.sol\":1812:1822  2 * length */\n      tag_314\n        /* \"@openzeppelin/contracts/utils/Strings.sol\":1816:1822  length */\n      dup5\n        /* \"@openzeppelin/contracts/utils/Strings.sol\":1812:1813  2 */\n      0x02\n        /* \"@openzeppelin/contracts/utils/Strings.sol\":1812:1822  2 * length */\n      tag_300\n      jump\t// in\n    tag_314:\n        /* \"@openzeppelin/contracts/utils/Strings.sol\":1812:1826  2 * length + 1 */\n      tag_315\n      swap1\n        /* \"@openzeppelin/contracts/utils/Strings.sol\":1825:1826  1 */\n      0x01\n        /* \"@openzeppelin/contracts/utils/Strings.sol\":1812:1826  2 * length + 1 */\n      tag_237\n      jump\t// in\n    tag_315:\n        /* \"@openzeppelin/contracts/utils/Strings.sol\":1800:1826  uint256 i = 2 * length + 1 */\n      swap1\n      pop\n        /* \"@openzeppelin/contracts/utils/Strings.sol\":1795:1927  for (uint256 i = 2 * length + 1; i > 1; --i) {... */\n    tag_311:\n        /* \"@openzeppelin/contracts/utils/Strings.sol\":1832:1833  1 */\n      0x01\n        /* \"@openzeppelin/contracts/utils/Strings.sol\":1828:1829  i */\n      dup2\n        /* \"@openzeppelin/contracts/utils/Strings.sol\":1828:1833  i > 1 */\n      gt\n        /* \"@openzeppelin/contracts/utils/Strings.sol\":1795:1927  for (uint256 i = 2 * length + 1; i > 1; --i) {... */\n      iszero\n      tag_312\n      jumpi\n      shl(0x81, 0x181899199a1a9b1b9c1cb0b131b232b3)\n        /* \"@openzeppelin/contracts/utils/Strings.sol\":1879:1884  value */\n      dup6\n        /* \"@openzeppelin/contracts/utils/Strings.sol\":1887:1890  0xf */\n      0x0f\n        /* \"@openzeppelin/contracts/utils/Strings.sol\":1879:1890  value & 0xf */\n      and\n        /* \"@openzeppelin/contracts/utils/Strings.sol\":1866:1891  _HEX_SYMBOLS[value & 0xf] */\n      0x10\n      dup2\n      lt\n      tag_317\n      jumpi\n      tag_317\n      tag_308\n      jump\t// in\n    tag_317:\n      byte\n      0xf8\n      shl\n        /* \"@openzeppelin/contracts/utils/Strings.sol\":1854:1860  buffer */\n      dup3\n        /* \"@openzeppelin/contracts/utils/Strings.sol\":1861:1862  i */\n      dup3\n        /* \"@openzeppelin/contracts/utils/Strings.sol\":1854:1863  buffer[i] */\n      dup2\n      mload\n      dup2\n      lt\n      tag_319\n      jumpi\n      tag_319\n      tag_308\n      jump\t// in\n    tag_319:\n      0x20\n      add\n      add\n        /* \"@openzeppelin/contracts/utils/Strings.sol\":1854:1891  buffer[i] = _HEX_SYMBOLS[value & 0xf] */\n      swap1\n      not(sub(shl(0xf8, 0x01), 0x01))\n      and\n      swap1\n      dup2\n      0x00\n      byte\n      swap1\n      mstore8\n      pop\n        /* \"@openzeppelin/contracts/utils/Strings.sol\":1915:1916  4 */\n      0x04\n        /* \"@openzeppelin/contracts/utils/Strings.sol\":1905:1916  value >>= 4 */\n      swap5\n      swap1\n      swap5\n      shr\n      swap4\n        /* \"@openzeppelin/contracts/utils/Strings.sol\":1835:1838  --i */\n      tag_320\n      dup2\n      tag_321\n      jump\t// in\n    tag_320:\n      swap1\n      pop\n        /* \"@openzeppelin/contracts/utils/Strings.sol\":1795:1927  for (uint256 i = 2 * length + 1; i > 1; --i) {... */\n      jump(tag_311)\n    tag_312:\n      pop\n        /* \"@openzeppelin/contracts/utils/Strings.sol\":1944:1954  value == 0 */\n      dup4\n      iszero\n        /* \"@openzeppelin/contracts/utils/Strings.sol\":1936:1991  require(value == 0, \"Strings: hex length insufficient\") */\n      tag_322\n      jumpi\n      mload(0x40)\n      shl(0xe5, 0x461bcd)\n      dup2\n      mstore\n        /* \"#utility.yul\":12760:12762   */\n      0x20\n        /* \"@openzeppelin/contracts/utils/Strings.sol\":1936:1991  require(value == 0, \"Strings: hex length insufficient\") */\n      0x04\n      dup3\n      add\n        /* \"#utility.yul\":12742:12763   */\n      dup2\n      swap1\n      mstore\n        /* \"#utility.yul\":12779:12797   */\n      0x24\n      dup3\n      add\n        /* \"#utility.yul\":12772:12802   */\n      mstore\n        /* \"#utility.yul\":12838:12872   */\n      0x537472696e67733a20686578206c656e67746820696e73756666696369656e74\n        /* \"#utility.yul\":12818:12836   */\n      0x44\n      dup3\n      add\n        /* \"#utility.yul\":12811:12873   */\n      mstore\n        /* \"#utility.yul\":12890:12908   */\n      0x64\n      add\n        /* \"@openzeppelin/contracts/utils/Strings.sol\":1936:1991  require(value == 0, \"Strings: hex length insufficient\") */\n      tag_171\n        /* \"#utility.yul\":12558:12914   */\n      jump\n        /* \"@openzeppelin/contracts/utils/Strings.sol\":1936:1991  require(value == 0, \"Strings: hex length insufficient\") */\n    tag_322:\n        /* \"@openzeppelin/contracts/utils/Strings.sol\":2015:2021  buffer */\n      swap4\n        /* \"@openzeppelin/contracts/utils/Strings.sol\":1588:2029  function toHexString(uint256 value, uint256 length) internal pure returns (string memory) {... */\n      swap3\n      pop\n      pop\n      pop\n      jump\t// out\n        /* \"@openzeppelin/contracts/access/AccessControl.sol\":3334:3437  function _checkRole(bytes32 role) internal view virtual {... */\n    tag_163:\n        /* \"@openzeppelin/contracts/access/AccessControl.sol\":3400:3430  _checkRole(role, _msgSender()) */\n      tag_327\n        /* \"@openzeppelin/contracts/access/AccessControl.sol\":3411:3415  role */\n      dup2\n        /* \"@openzeppelin/contracts/utils/Context.sol\":719:729  msg.sender */\n      caller\n        /* \"@openzeppelin/contracts/access/AccessControl.sol\":3400:3410  _checkRole */\n      tag_329\n        /* \"@openzeppelin/contracts/access/AccessControl.sol\":3400:3430  _checkRole(role, _msgSender()) */\n      jump\t// in\n    tag_327:\n        /* \"@openzeppelin/contracts/access/AccessControl.sol\":3334:3437  function _checkRole(bytes32 role) internal view virtual {... */\n      pop\n      jump\t// out\n        /* \"@openzeppelin/contracts/access/AccessControl.sol\":7244:7477  function _grantRole(bytes32 role, address account) internal virtual {... */\n    tag_166:\n        /* \"@openzeppelin/contracts/access/AccessControl.sol\":7327:7349  hasRole(role, account) */\n      tag_331\n        /* \"@openzeppelin/contracts/access/AccessControl.sol\":7335:7339  role */\n      dup3\n        /* \"@openzeppelin/contracts/access/AccessControl.sol\":7341:7348  account */\n      dup3\n        /* \"@openzeppelin/contracts/access/AccessControl.sol\":7327:7334  hasRole */\n      tag_94\n        /* \"@openzeppelin/contracts/access/AccessControl.sol\":7327:7349  hasRole(role, account) */\n      jump\t// in\n    tag_331:\n        /* \"@openzeppelin/contracts/access/AccessControl.sol\":7322:7471  if (!hasRole(role, account)) {... */\n      tag_173\n      jumpi\n        /* \"@openzeppelin/contracts/access/AccessControl.sol\":7365:7371  _roles */\n      0x00\n        /* \"@openzeppelin/contracts/access/AccessControl.sol\":7365:7377  _roles[role] */\n      dup3\n      dup2\n      mstore\n      0x20\n      dup2\n      dup2\n      mstore\n      0x40\n      dup1\n      dup4\n      keccak256\n      sub(shl(0xa0, 0x01), 0x01)\n        /* \"@openzeppelin/contracts/access/AccessControl.sol\":7365:7394  _roles[role].members[account] */\n      dup6\n      and\n      dup5\n      mstore\n      swap1\n      swap2\n      mstore\n      swap1\n      keccak256\n        /* \"@openzeppelin/contracts/access/AccessControl.sol\":7365:7401  _roles[role].members[account] = true */\n      dup1\n      sload\n      not(0xff)\n      and\n        /* \"@openzeppelin/contracts/access/AccessControl.sol\":7397:7401  true */\n      0x01\n        /* \"@openzeppelin/contracts/access/AccessControl.sol\":7365:7401  _roles[role].members[account] = true */\n      or\n      swap1\n      sstore\n        /* \"@openzeppelin/contracts/access/AccessControl.sol\":7447:7459  _msgSender() */\n      tag_333\n        /* \"@openzeppelin/contracts/utils/Context.sol\":719:729  msg.sender */\n      caller\n      swap1\n        /* \"@openzeppelin/contracts/utils/Context.sol\":640:736  function _msgSender() internal view virtual returns (address) {... */\n      jump\n        /* \"@openzeppelin/contracts/access/AccessControl.sol\":7447:7459  _msgSender() */\n    tag_333:\n      sub(shl(0xa0, 0x01), 0x01)\n        /* \"@openzeppelin/contracts/access/AccessControl.sol\":7420:7460  RoleGranted(role, account, _msgSender()) */\n      and\n        /* \"@openzeppelin/contracts/access/AccessControl.sol\":7438:7445  account */\n      dup2\n      sub(shl(0xa0, 0x01), 0x01)\n        /* \"@openzeppelin/contracts/access/AccessControl.sol\":7420:7460  RoleGranted(role, account, _msgSender()) */\n      and\n        /* \"@openzeppelin/contracts/access/AccessControl.sol\":7432:7436  role */\n      dup4\n        /* \"@openzeppelin/contracts/access/AccessControl.sol\":7420:7460  RoleGranted(role, account, _msgSender()) */\n      0x2f8788117e7eff1d82e926ec794901d17c78024a50270940304540a733656f0d\n      mload(0x40)\n      mload(0x40)\n      dup1\n      swap2\n      sub\n      swap1\n      log4\n        /* \"@openzeppelin/contracts/access/AccessControl.sol\":7244:7477  function _grantRole(bytes32 role, address account) internal virtual {... */\n      pop\n      pop\n      jump\t// out\n        /* \"@openzeppelin/contracts/access/AccessControl.sol\":7602:7836  function _revokeRole(bytes32 role, address account) internal virtual {... */\n    tag_174:\n        /* \"@openzeppelin/contracts/access/AccessControl.sol\":7685:7707  hasRole(role, account) */\n      tag_336\n        /* \"@openzeppelin/contracts/access/AccessControl.sol\":7693:7697  role */\n      dup3\n        /* \"@openzeppelin/contracts/access/AccessControl.sol\":7699:7706  account */\n      dup3\n        /* \"@openzeppelin/contracts/access/AccessControl.sol\":7685:7692  hasRole */\n      tag_94\n        /* \"@openzeppelin/contracts/access/AccessControl.sol\":7685:7707  hasRole(role, account) */\n      jump\t// in\n    tag_336:\n        /* \"@openzeppelin/contracts/access/AccessControl.sol\":7681:7830  if (hasRole(role, account)) {... */\n      iszero\n      tag_173\n      jumpi\n        /* \"@openzeppelin/contracts/access/AccessControl.sol\":7755:7760  false */\n      0x00\n        /* \"@openzeppelin/contracts/access/AccessControl.sol\":7723:7735  _roles[role] */\n      dup3\n      dup2\n      mstore\n      0x20\n      dup2\n      dup2\n      mstore\n      0x40\n      dup1\n      dup4\n      keccak256\n      sub(shl(0xa0, 0x01), 0x01)\n        /* \"@openzeppelin/contracts/access/AccessControl.sol\":7723:7752  _roles[role].members[account] */\n      dup6\n      and\n      dup1\n      dup6\n      mstore\n      swap3\n      mstore\n      dup1\n      dup4\n      keccak256\n        /* \"@openzeppelin/contracts/access/AccessControl.sol\":7723:7760  _roles[role].members[account] = false */\n      dup1\n      sload\n      not(0xff)\n      and\n      swap1\n      sstore\n        /* \"@openzeppelin/contracts/access/AccessControl.sol\":7779:7819  RoleRevoked(role, account, _msgSender()) */\n      mload\n        /* \"@openzeppelin/contracts/utils/Context.sol\":719:729  msg.sender */\n      caller\n      swap3\n        /* \"@openzeppelin/contracts/access/AccessControl.sol\":7723:7735  _roles[role] */\n      dup6\n      swap2\n        /* \"@openzeppelin/contracts/access/AccessControl.sol\":7779:7819  RoleRevoked(role, account, _msgSender()) */\n      0xf6391f5c32d9c69d2a47ea670b442974b53935d1edc7fd64eb21e047a839171b\n      swap2\n        /* \"@openzeppelin/contracts/access/AccessControl.sol\":7755:7760  false */\n      swap1\n        /* \"@openzeppelin/contracts/access/AccessControl.sol\":7779:7819  RoleRevoked(role, account, _msgSender()) */\n      log4\n        /* \"@openzeppelin/contracts/access/AccessControl.sol\":7602:7836  function _revokeRole(bytes32 role, address account) internal virtual {... */\n      pop\n      pop\n      jump\t// out\n        /* \"@openzeppelin/contracts/utils/cryptography/MerkleProof.sol\":1154:1338  function verify(... */\n    tag_255:\n        /* \"@openzeppelin/contracts/utils/cryptography/MerkleProof.sol\":1275:1279  bool */\n      0x00\n        /* \"@openzeppelin/contracts/utils/cryptography/MerkleProof.sol\":1327:1331  root */\n      dup3\n        /* \"@openzeppelin/contracts/utils/cryptography/MerkleProof.sol\":1298:1323  processProof(proof, leaf) */\n      tag_340\n        /* \"@openzeppelin/contracts/utils/cryptography/MerkleProof.sol\":1311:1316  proof */\n      dup6\n        /* \"@openzeppelin/contracts/utils/cryptography/MerkleProof.sol\":1318:1322  leaf */\n      dup5\n        /* \"@openzeppelin/contracts/utils/cryptography/MerkleProof.sol\":1298:1310  processProof */\n      tag_341\n        /* \"@openzeppelin/contracts/utils/cryptography/MerkleProof.sol\":1298:1323  processProof(proof, leaf) */\n      jump\t// in\n    tag_340:\n        /* \"@openzeppelin/contracts/utils/cryptography/MerkleProof.sol\":1298:1331  processProof(proof, leaf) == root */\n      eq\n      swap5\n        /* \"@openzeppelin/contracts/utils/cryptography/MerkleProof.sol\":1154:1338  function verify(... */\n      swap4\n      pop\n      pop\n      pop\n      pop\n      jump\t// out\n        /* \"@openzeppelin/contracts/access/AccessControl.sol\":3718:4210  function _checkRole(bytes32 role, address account) internal view virtual {... */\n    tag_329:\n        /* \"@openzeppelin/contracts/access/AccessControl.sol\":3806:3828  hasRole(role, account) */\n      tag_343\n        /* \"@openzeppelin/contracts/access/AccessControl.sol\":3814:3818  role */\n      dup3\n        /* \"@openzeppelin/contracts/access/AccessControl.sol\":3820:3827  account */\n      dup3\n        /* \"@openzeppelin/contracts/access/AccessControl.sol\":3806:3813  hasRole */\n      tag_94\n        /* \"@openzeppelin/contracts/access/AccessControl.sol\":3806:3828  hasRole(role, account) */\n      jump\t// in\n    tag_343:\n        /* \"@openzeppelin/contracts/access/AccessControl.sol\":3801:4204  if (!hasRole(role, account)) {... */\n      tag_173\n      jumpi\n        /* \"@openzeppelin/contracts/access/AccessControl.sol\":3989:4030  Strings.toHexString(uint160(account), 20) */\n      tag_345\n        /* \"@openzeppelin/contracts/access/AccessControl.sol\":4017:4024  account */\n      dup2\n      sub(shl(0xa0, 0x01), 0x01)\n        /* \"@openzeppelin/contracts/access/AccessControl.sol\":3989:4030  Strings.toHexString(uint160(account), 20) */\n      and\n        /* \"@openzeppelin/contracts/access/AccessControl.sol\":4027:4029  20 */\n      0x14\n        /* \"@openzeppelin/contracts/access/AccessControl.sol\":3989:4008  Strings.toHexString */\n      tag_154\n        /* \"@openzeppelin/contracts/access/AccessControl.sol\":3989:4030  Strings.toHexString(uint160(account), 20) */\n      jump\t// in\n    tag_345:\n        /* \"@openzeppelin/contracts/access/AccessControl.sol\":4101:4139  Strings.toHexString(uint256(role), 32) */\n      tag_346\n        /* \"@openzeppelin/contracts/access/AccessControl.sol\":4129:4133  role */\n      dup4\n        /* \"@openzeppelin/contracts/access/AccessControl.sol\":4136:4138  32 */\n      0x20\n        /* \"@openzeppelin/contracts/access/AccessControl.sol\":4101:4120  Strings.toHexString */\n      tag_154\n        /* \"@openzeppelin/contracts/access/AccessControl.sol\":4101:4139  Strings.toHexString(uint256(role), 32) */\n      jump\t// in\n    tag_346:\n        /* \"@openzeppelin/contracts/access/AccessControl.sol\":3896:4161  abi.encodePacked(... */\n      add(0x20, mload(0x40))\n      tag_347\n      swap3\n      swap2\n      swap1\n      tag_348\n      jump\t// in\n    tag_347:\n      0x40\n      dup1\n      mload\n      not(0x1f)\n      dup2\n      dup5\n      sub\n      add\n      dup2\n      mstore\n      swap1\n      dup3\n      swap1\n      mstore\n      shl(0xe5, 0x461bcd)\n        /* \"@openzeppelin/contracts/access/AccessControl.sol\":3844:4193  revert(... */\n      dup3\n      mstore\n      tag_171\n      swap2\n      0x04\n      add\n      tag_350\n      jump\t// in\n        /* \"@openzeppelin/contracts/utils/cryptography/MerkleProof.sol\":1689:2351  function processProof(bytes32[] memory proof, bytes32 leaf) internal pure returns (bytes32) {... */\n    tag_341:\n        /* \"@openzeppelin/contracts/utils/cryptography/MerkleProof.sol\":1772:1779  bytes32 */\n      0x00\n        /* \"@openzeppelin/contracts/utils/cryptography/MerkleProof.sol\":1814:1818  leaf */\n      dup2\n        /* \"@openzeppelin/contracts/utils/cryptography/MerkleProof.sol\":1772:1779  bytes32 */\n      dup2\n        /* \"@openzeppelin/contracts/utils/cryptography/MerkleProof.sol\":1828:2316  for (uint256 i = 0; i < proof.length; i++) {... */\n    tag_352:\n        /* \"@openzeppelin/contracts/utils/cryptography/MerkleProof.sol\":1852:1857  proof */\n      dup5\n        /* \"@openzeppelin/contracts/utils/cryptography/MerkleProof.sol\":1852:1864  proof.length */\n      mload\n        /* \"@openzeppelin/contracts/utils/cryptography/MerkleProof.sol\":1848:1849  i */\n      dup2\n        /* \"@openzeppelin/contracts/utils/cryptography/MerkleProof.sol\":1848:1864  i < proof.length */\n      lt\n        /* \"@openzeppelin/contracts/utils/cryptography/MerkleProof.sol\":1828:2316  for (uint256 i = 0; i < proof.length; i++) {... */\n      iszero\n      tag_353\n      jumpi\n        /* \"@openzeppelin/contracts/utils/cryptography/MerkleProof.sol\":1885:1905  bytes32 proofElement */\n      0x00\n        /* \"@openzeppelin/contracts/utils/cryptography/MerkleProof.sol\":1908:1913  proof */\n      dup6\n        /* \"@openzeppelin/contracts/utils/cryptography/MerkleProof.sol\":1914:1915  i */\n      dup3\n        /* \"@openzeppelin/contracts/utils/cryptography/MerkleProof.sol\":1908:1916  proof[i] */\n      dup2\n      mload\n      dup2\n      lt\n      tag_356\n      jumpi\n      tag_356\n      tag_308\n      jump\t// in\n    tag_356:\n      0x20\n      mul\n      0x20\n      add\n      add\n      mload\n        /* \"@openzeppelin/contracts/utils/cryptography/MerkleProof.sol\":1885:1916  bytes32 proofElement = proof[i] */\n      swap1\n      pop\n        /* \"@openzeppelin/contracts/utils/cryptography/MerkleProof.sol\":1950:1962  proofElement */\n      dup1\n        /* \"@openzeppelin/contracts/utils/cryptography/MerkleProof.sol\":1934:1946  computedHash */\n      dup4\n        /* \"@openzeppelin/contracts/utils/cryptography/MerkleProof.sol\":1934:1962  computedHash <= proofElement */\n      gt\n        /* \"@openzeppelin/contracts/utils/cryptography/MerkleProof.sol\":1930:2306  if (computedHash <= proofElement) {... */\n      tag_357\n      jumpi\n        /* \"@openzeppelin/contracts/utils/cryptography/MerkleProof.sol\":2425:2438  bytes32 value */\n      0x00\n        /* \"@openzeppelin/contracts/utils/cryptography/MerkleProof.sol\":2473:2488  mstore(0x00, a) */\n      dup4\n      dup2\n      mstore\n        /* \"@openzeppelin/contracts/utils/cryptography/MerkleProof.sol\":2508:2512  0x20 */\n      0x20\n        /* \"@openzeppelin/contracts/utils/cryptography/MerkleProof.sol\":2501:2516  mstore(0x20, b) */\n      dup3\n      swap1\n      mstore\n        /* \"@openzeppelin/contracts/utils/cryptography/MerkleProof.sol\":2554:2558  0x40 */\n      0x40\n        /* \"@openzeppelin/contracts/utils/cryptography/MerkleProof.sol\":2538:2559  keccak256(0x00, 0x40) */\n      swap1\n      keccak256\n        /* \"@openzeppelin/contracts/utils/cryptography/MerkleProof.sol\":2060:2117  computedHash = _efficientHash(computedHash, proofElement) */\n      swap3\n      pop\n        /* \"@openzeppelin/contracts/utils/cryptography/MerkleProof.sol\":1930:2306  if (computedHash <= proofElement) {... */\n      jump(tag_360)\n    tag_357:\n        /* \"@openzeppelin/contracts/utils/cryptography/MerkleProof.sol\":2425:2438  bytes32 value */\n      0x00\n        /* \"@openzeppelin/contracts/utils/cryptography/MerkleProof.sol\":2473:2488  mstore(0x00, a) */\n      dup2\n      dup2\n      mstore\n        /* \"@openzeppelin/contracts/utils/cryptography/MerkleProof.sol\":2508:2512  0x20 */\n      0x20\n        /* \"@openzeppelin/contracts/utils/cryptography/MerkleProof.sol\":2501:2516  mstore(0x20, b) */\n      dup5\n      swap1\n      mstore\n        /* \"@openzeppelin/contracts/utils/cryptography/MerkleProof.sol\":2554:2558  0x40 */\n      0x40\n        /* \"@openzeppelin/contracts/utils/cryptography/MerkleProof.sol\":2538:2559  keccak256(0x00, 0x40) */\n      swap1\n      keccak256\n        /* \"@openzeppelin/contracts/utils/cryptography/MerkleProof.sol\":2234:2291  computedHash = _efficientHash(proofElement, computedHash) */\n      swap3\n      pop\n        /* \"@openzeppelin/contracts/utils/cryptography/MerkleProof.sol\":1930:2306  if (computedHash <= proofElement) {... */\n    tag_360:\n      pop\n        /* \"@openzeppelin/contracts/utils/cryptography/MerkleProof.sol\":1866:1869  i++ */\n      dup1\n      tag_362\n      dup2\n      tag_363\n      jump\t// in\n    tag_362:\n      swap2\n      pop\n      pop\n        /* \"@openzeppelin/contracts/utils/cryptography/MerkleProof.sol\":1828:2316  for (uint256 i = 0; i < proof.length; i++) {... */\n      jump(tag_352)\n    tag_353:\n      pop\n        /* \"@openzeppelin/contracts/utils/cryptography/MerkleProof.sol\":2332:2344  computedHash */\n      swap4\n        /* \"@openzeppelin/contracts/utils/cryptography/MerkleProof.sol\":1689:2351  function processProof(bytes32[] memory proof, bytes32 leaf) internal pure returns (bytes32) {... */\n      swap3\n      pop\n      pop\n      pop\n      jump\t// out\n        /* \"#utility.yul\":14:300   */\n    tag_36:\n        /* \"#utility.yul\":72:78   */\n      0x00\n        /* \"#utility.yul\":125:127   */\n      0x20\n        /* \"#utility.yul\":113:122   */\n      dup3\n        /* \"#utility.yul\":104:111   */\n      dup5\n        /* \"#utility.yul\":100:123   */\n      sub\n        /* \"#utility.yul\":96:128   */\n      slt\n        /* \"#utility.yul\":93:145   */\n      iszero\n      tag_370\n      jumpi\n        /* \"#utility.yul\":141:142   */\n      0x00\n        /* \"#utility.yul\":138:139   */\n      dup1\n        /* \"#utility.yul\":131:143   */\n      revert\n        /* \"#utility.yul\":93:145   */\n    tag_370:\n        /* \"#utility.yul\":167:190   */\n      dup2\n      calldataload\n      not(sub(shl(0xe0, 0x01), 0x01))\n        /* \"#utility.yul\":219:251   */\n      dup2\n      and\n        /* \"#utility.yul\":209:252   */\n      dup2\n      eq\n        /* \"#utility.yul\":199:270   */\n      tag_322\n      jumpi\n        /* \"#utility.yul\":266:267   */\n      0x00\n        /* \"#utility.yul\":263:264   */\n      dup1\n        /* \"#utility.yul\":256:268   */\n      revert\n        /* \"#utility.yul\":679:859   */\n    tag_48:\n        /* \"#utility.yul\":738:744   */\n      0x00\n        /* \"#utility.yul\":791:793   */\n      0x20\n        /* \"#utility.yul\":779:788   */\n      dup3\n        /* \"#utility.yul\":770:777   */\n      dup5\n        /* \"#utility.yul\":766:789   */\n      sub\n        /* \"#utility.yul\":762:794   */\n      slt\n        /* \"#utility.yul\":759:811   */\n      iszero\n      tag_375\n      jumpi\n        /* \"#utility.yul\":807:808   */\n      0x00\n        /* \"#utility.yul\":804:805   */\n      dup1\n        /* \"#utility.yul\":797:809   */\n      revert\n        /* \"#utility.yul\":759:811   */\n    tag_375:\n      pop\n        /* \"#utility.yul\":830:853   */\n      calldataload\n      swap2\n        /* \"#utility.yul\":679:859   */\n      swap1\n      pop\n      jump\t// out\n        /* \"#utility.yul\":864:995   */\n    tag_365:\n      sub(shl(0xa0, 0x01), 0x01)\n        /* \"#utility.yul\":939:970   */\n      dup2\n      and\n        /* \"#utility.yul\":929:971   */\n      dup2\n      eq\n        /* \"#utility.yul\":919:989   */\n      tag_327\n      jumpi\n        /* \"#utility.yul\":985:986   */\n      0x00\n        /* \"#utility.yul\":982:983   */\n      dup1\n        /* \"#utility.yul\":975:987   */\n      revert\n        /* \"#utility.yul\":1000:1315   */\n    tag_62:\n        /* \"#utility.yul\":1068:1074   */\n      0x00\n        /* \"#utility.yul\":1076:1082   */\n      dup1\n        /* \"#utility.yul\":1129:1131   */\n      0x40\n        /* \"#utility.yul\":1117:1126   */\n      dup4\n        /* \"#utility.yul\":1108:1115   */\n      dup6\n        /* \"#utility.yul\":1104:1127   */\n      sub\n        /* \"#utility.yul\":1100:1132   */\n      slt\n        /* \"#utility.yul\":1097:1149   */\n      iszero\n      tag_379\n      jumpi\n        /* \"#utility.yul\":1145:1146   */\n      0x00\n        /* \"#utility.yul\":1142:1143   */\n      dup1\n        /* \"#utility.yul\":1135:1147   */\n      revert\n        /* \"#utility.yul\":1097:1149   */\n    tag_379:\n        /* \"#utility.yul\":1181:1190   */\n      dup3\n        /* \"#utility.yul\":1168:1191   */\n      calldataload\n        /* \"#utility.yul\":1158:1191   */\n      swap2\n      pop\n        /* \"#utility.yul\":1241:1243   */\n      0x20\n        /* \"#utility.yul\":1230:1239   */\n      dup4\n        /* \"#utility.yul\":1226:1244   */\n      add\n        /* \"#utility.yul\":1213:1245   */\n      calldataload\n        /* \"#utility.yul\":1254:1285   */\n      tag_380\n        /* \"#utility.yul\":1279:1284   */\n      dup2\n        /* \"#utility.yul\":1254:1285   */\n      tag_365\n      jump\t// in\n    tag_380:\n        /* \"#utility.yul\":1304:1309   */\n      dup1\n        /* \"#utility.yul\":1294:1309   */\n      swap2\n      pop\n      pop\n        /* \"#utility.yul\":1000:1315   */\n      swap3\n      pop\n      swap3\n      swap1\n      pop\n      jump\t// out\n        /* \"#utility.yul\":1502:1749   */\n    tag_76:\n        /* \"#utility.yul\":1561:1567   */\n      0x00\n        /* \"#utility.yul\":1614:1616   */\n      0x20\n        /* \"#utility.yul\":1602:1611   */\n      dup3\n        /* \"#utility.yul\":1593:1600   */\n      dup5\n        /* \"#utility.yul\":1589:1612   */\n      sub\n        /* \"#utility.yul\":1585:1617   */\n      slt\n        /* \"#utility.yul\":1582:1634   */\n      iszero\n      tag_383\n      jumpi\n        /* \"#utility.yul\":1630:1631   */\n      0x00\n        /* \"#utility.yul\":1627:1628   */\n      dup1\n        /* \"#utility.yul\":1620:1632   */\n      revert\n        /* \"#utility.yul\":1582:1634   */\n    tag_383:\n        /* \"#utility.yul\":1669:1678   */\n      dup2\n        /* \"#utility.yul\":1656:1679   */\n      calldataload\n        /* \"#utility.yul\":1688:1719   */\n      tag_322\n        /* \"#utility.yul\":1713:1718   */\n      dup2\n        /* \"#utility.yul\":1688:1719   */\n      tag_365\n      jump\t// in\n        /* \"#utility.yul\":1754:2142   */\n    tag_89:\n        /* \"#utility.yul\":1822:1828   */\n      0x00\n        /* \"#utility.yul\":1830:1836   */\n      dup1\n        /* \"#utility.yul\":1883:1885   */\n      0x40\n        /* \"#utility.yul\":1871:1880   */\n      dup4\n        /* \"#utility.yul\":1862:1869   */\n      dup6\n        /* \"#utility.yul\":1858:1881   */\n      sub\n        /* \"#utility.yul\":1854:1886   */\n      slt\n        /* \"#utility.yul\":1851:1903   */\n      iszero\n      tag_386\n      jumpi\n        /* \"#utility.yul\":1899:1900   */\n      0x00\n        /* \"#utility.yul\":1896:1897   */\n      dup1\n        /* \"#utility.yul\":1889:1901   */\n      revert\n        /* \"#utility.yul\":1851:1903   */\n    tag_386:\n        /* \"#utility.yul\":1938:1947   */\n      dup3\n        /* \"#utility.yul\":1925:1948   */\n      calldataload\n        /* \"#utility.yul\":1957:1988   */\n      tag_387\n        /* \"#utility.yul\":1982:1987   */\n      dup2\n        /* \"#utility.yul\":1957:1988   */\n      tag_365\n      jump\t// in\n    tag_387:\n        /* \"#utility.yul\":2007:2012   */\n      swap2\n      pop\n        /* \"#utility.yul\":2064:2066   */\n      0x20\n        /* \"#utility.yul\":2049:2067   */\n      dup4\n      add\n        /* \"#utility.yul\":2036:2068   */\n      calldataload\n        /* \"#utility.yul\":2077:2110   */\n      tag_380\n        /* \"#utility.yul\":2036:2068   */\n      dup2\n        /* \"#utility.yul\":2077:2110   */\n      tag_365\n      jump\t// in\n        /* \"#utility.yul\":2416:3173   */\n    tag_103:\n        /* \"#utility.yul\":2520:2526   */\n      0x00\n        /* \"#utility.yul\":2528:2534   */\n      dup1\n        /* \"#utility.yul\":2536:2542   */\n      0x00\n        /* \"#utility.yul\":2544:2550   */\n      dup1\n        /* \"#utility.yul\":2597:2599   */\n      0x60\n        /* \"#utility.yul\":2585:2594   */\n      dup6\n        /* \"#utility.yul\":2576:2583   */\n      dup8\n        /* \"#utility.yul\":2572:2595   */\n      sub\n        /* \"#utility.yul\":2568:2600   */\n      slt\n        /* \"#utility.yul\":2565:2617   */\n      iszero\n      tag_393\n      jumpi\n        /* \"#utility.yul\":2613:2614   */\n      0x00\n        /* \"#utility.yul\":2610:2611   */\n      dup1\n        /* \"#utility.yul\":2603:2615   */\n      revert\n        /* \"#utility.yul\":2565:2617   */\n    tag_393:\n        /* \"#utility.yul\":2653:2662   */\n      dup5\n        /* \"#utility.yul\":2640:2663   */\n      calldataload\n        /* \"#utility.yul\":2682:2700   */\n      0xffffffffffffffff\n        /* \"#utility.yul\":2723:2725   */\n      dup1\n        /* \"#utility.yul\":2715:2721   */\n      dup3\n        /* \"#utility.yul\":2712:2726   */\n      gt\n        /* \"#utility.yul\":2709:2743   */\n      iszero\n      tag_394\n      jumpi\n        /* \"#utility.yul\":2739:2740   */\n      0x00\n        /* \"#utility.yul\":2736:2737   */\n      dup1\n        /* \"#utility.yul\":2729:2741   */\n      revert\n        /* \"#utility.yul\":2709:2743   */\n    tag_394:\n        /* \"#utility.yul\":2777:2783   */\n      dup2\n        /* \"#utility.yul\":2766:2775   */\n      dup8\n        /* \"#utility.yul\":2762:2784   */\n      add\n        /* \"#utility.yul\":2752:2784   */\n      swap2\n      pop\n        /* \"#utility.yul\":2822:2829   */\n      dup8\n        /* \"#utility.yul\":2815:2819   */\n      0x1f\n        /* \"#utility.yul\":2811:2813   */\n      dup4\n        /* \"#utility.yul\":2807:2820   */\n      add\n        /* \"#utility.yul\":2803:2830   */\n      slt\n        /* \"#utility.yul\":2793:2848   */\n      tag_395\n      jumpi\n        /* \"#utility.yul\":2844:2845   */\n      0x00\n        /* \"#utility.yul\":2841:2842   */\n      dup1\n        /* \"#utility.yul\":2834:2846   */\n      revert\n        /* \"#utility.yul\":2793:2848   */\n    tag_395:\n        /* \"#utility.yul\":2884:2886   */\n      dup2\n        /* \"#utility.yul\":2871:2887   */\n      calldataload\n        /* \"#utility.yul\":2910:2912   */\n      dup2\n        /* \"#utility.yul\":2902:2908   */\n      dup2\n        /* \"#utility.yul\":2899:2913   */\n      gt\n        /* \"#utility.yul\":2896:2930   */\n      iszero\n      tag_396\n      jumpi\n        /* \"#utility.yul\":2926:2927   */\n      0x00\n        /* \"#utility.yul\":2923:2924   */\n      dup1\n        /* \"#utility.yul\":2916:2928   */\n      revert\n        /* \"#utility.yul\":2896:2930   */\n    tag_396:\n        /* \"#utility.yul\":2981:2988   */\n      dup9\n        /* \"#utility.yul\":2974:2978   */\n      0x20\n        /* \"#utility.yul\":2964:2970   */\n      dup3\n        /* \"#utility.yul\":2961:2962   */\n      0x05\n        /* \"#utility.yul\":2957:2971   */\n      shl\n        /* \"#utility.yul\":2953:2955   */\n      dup6\n        /* \"#utility.yul\":2949:2972   */\n      add\n        /* \"#utility.yul\":2945:2979   */\n      add\n        /* \"#utility.yul\":2942:2989   */\n      gt\n        /* \"#utility.yul\":2939:3006   */\n      iszero\n      tag_397\n      jumpi\n        /* \"#utility.yul\":3002:3003   */\n      0x00\n        /* \"#utility.yul\":2999:3000   */\n      dup1\n        /* \"#utility.yul\":2992:3004   */\n      revert\n        /* \"#utility.yul\":2939:3006   */\n    tag_397:\n        /* \"#utility.yul\":3033:3037   */\n      0x20\n        /* \"#utility.yul\":3025:3038   */\n      swap3\n      dup4\n      add\n      swap10\n        /* \"#utility.yul\":3057:3063   */\n      swap1\n      swap9\n      pop\n        /* \"#utility.yul\":3095:3115   */\n      swap2\n      dup8\n      add\n        /* \"#utility.yul\":3082:3116   */\n      calldataload\n      swap7\n        /* \"#utility.yul\":3163:3165   */\n      0x40\n        /* \"#utility.yul\":3148:3166   */\n      add\n        /* \"#utility.yul\":3135:3167   */\n      calldataload\n      swap6\n      pop\n        /* \"#utility.yul\":2416:3173   */\n      swap1\n      swap4\n      pop\n      pop\n      pop\n      pop\n      jump\t// out\n        /* \"#utility.yul\":3178:3493   */\n    tag_112:\n        /* \"#utility.yul\":3246:3252   */\n      0x00\n        /* \"#utility.yul\":3254:3260   */\n      dup1\n        /* \"#utility.yul\":3307:3309   */\n      0x40\n        /* \"#utility.yul\":3295:3304   */\n      dup4\n        /* \"#utility.yul\":3286:3293   */\n      dup6\n        /* \"#utility.yul\":3282:3305   */\n      sub\n        /* \"#utility.yul\":3278:3310   */\n      slt\n        /* \"#utility.yul\":3275:3327   */\n      iszero\n      tag_399\n      jumpi\n        /* \"#utility.yul\":3323:3324   */\n      0x00\n        /* \"#utility.yul\":3320:3321   */\n      dup1\n        /* \"#utility.yul\":3313:3325   */\n      revert\n        /* \"#utility.yul\":3275:3327   */\n    tag_399:\n        /* \"#utility.yul\":3362:3371   */\n      dup3\n        /* \"#utility.yul\":3349:3372   */\n      calldataload\n        /* \"#utility.yul\":3381:3412   */\n      tag_400\n        /* \"#utility.yul\":3406:3411   */\n      dup2\n        /* \"#utility.yul\":3381:3412   */\n      tag_365\n      jump\t// in\n    tag_400:\n        /* \"#utility.yul\":3431:3436   */\n      swap5\n        /* \"#utility.yul\":3483:3485   */\n      0x20\n        /* \"#utility.yul\":3468:3486   */\n      swap4\n      swap1\n      swap4\n      add\n        /* \"#utility.yul\":3455:3487   */\n      calldataload\n      swap4\n      pop\n      pop\n      pop\n        /* \"#utility.yul\":3178:3493   */\n      jump\t// out\n        /* \"#utility.yul\":3498:3954   */\n    tag_118:\n        /* \"#utility.yul\":3575:3581   */\n      0x00\n        /* \"#utility.yul\":3583:3589   */\n      dup1\n        /* \"#utility.yul\":3591:3597   */\n      0x00\n        /* \"#utility.yul\":3644:3646   */\n      0x60\n        /* \"#utility.yul\":3632:3641   */\n      dup5\n        /* \"#utility.yul\":3623:3630   */\n      dup7\n        /* \"#utility.yul\":3619:3642   */\n      sub\n        /* \"#utility.yul\":3615:3647   */\n      slt\n        /* \"#utility.yul\":3612:3664   */\n      iszero\n      tag_402\n      jumpi\n        /* \"#utility.yul\":3660:3661   */\n      0x00\n        /* \"#utility.yul\":3657:3658   */\n      dup1\n        /* \"#utility.yul\":3650:3662   */\n      revert\n        /* \"#utility.yul\":3612:3664   */\n    tag_402:\n        /* \"#utility.yul\":3699:3708   */\n      dup4\n        /* \"#utility.yul\":3686:3709   */\n      calldataload\n        /* \"#utility.yul\":3718:3749   */\n      tag_403\n        /* \"#utility.yul\":3743:3748   */\n      dup2\n        /* \"#utility.yul\":3718:3749   */\n      tag_365\n      jump\t// in\n    tag_403:\n        /* \"#utility.yul\":3768:3773   */\n      swap3\n      pop\n        /* \"#utility.yul\":3825:3827   */\n      0x20\n        /* \"#utility.yul\":3810:3828   */\n      dup5\n      add\n        /* \"#utility.yul\":3797:3829   */\n      calldataload\n        /* \"#utility.yul\":3838:3871   */\n      tag_404\n        /* \"#utility.yul\":3797:3829   */\n      dup2\n        /* \"#utility.yul\":3838:3871   */\n      tag_365\n      jump\t// in\n    tag_404:\n        /* \"#utility.yul\":3498:3954   */\n      swap3\n      swap6\n        /* \"#utility.yul\":3890:3897   */\n      swap3\n      swap5\n      pop\n      pop\n      pop\n        /* \"#utility.yul\":3944:3946   */\n      0x40\n        /* \"#utility.yul\":3929:3947   */\n      swap2\n      swap1\n      swap2\n      add\n        /* \"#utility.yul\":3916:3948   */\n      calldataload\n      swap1\n        /* \"#utility.yul\":3498:3954   */\n      jump\t// out\n        /* \"#utility.yul\":4600:4784   */\n    tag_179:\n        /* \"#utility.yul\":4670:4676   */\n      0x00\n        /* \"#utility.yul\":4723:4725   */\n      0x20\n        /* \"#utility.yul\":4711:4720   */\n      dup3\n        /* \"#utility.yul\":4702:4709   */\n      dup5\n        /* \"#utility.yul\":4698:4721   */\n      sub\n        /* \"#utility.yul\":4694:4726   */\n      slt\n        /* \"#utility.yul\":4691:4743   */\n      iszero\n      tag_408\n      jumpi\n        /* \"#utility.yul\":4739:4740   */\n      0x00\n        /* \"#utility.yul\":4736:4737   */\n      dup1\n        /* \"#utility.yul\":4729:4741   */\n      revert\n        /* \"#utility.yul\":4691:4743   */\n    tag_408:\n      pop\n        /* \"#utility.yul\":4762:4778   */\n      mload\n      swap2\n        /* \"#utility.yul\":4600:4784   */\n      swap1\n      pop\n      jump\t// out\n        /* \"#utility.yul\":6438:6715   */\n    tag_214:\n        /* \"#utility.yul\":6505:6511   */\n      0x00\n        /* \"#utility.yul\":6558:6560   */\n      0x20\n        /* \"#utility.yul\":6546:6555   */\n      dup3\n        /* \"#utility.yul\":6537:6544   */\n      dup5\n        /* \"#utility.yul\":6533:6556   */\n      sub\n        /* \"#utility.yul\":6529:6561   */\n      slt\n        /* \"#utility.yul\":6526:6578   */\n      iszero\n      tag_416\n      jumpi\n        /* \"#utility.yul\":6574:6575   */\n      0x00\n        /* \"#utility.yul\":6571:6572   */\n      dup1\n        /* \"#utility.yul\":6564:6576   */\n      revert\n        /* \"#utility.yul\":6526:6578   */\n    tag_416:\n        /* \"#utility.yul\":6606:6615   */\n      dup2\n        /* \"#utility.yul\":6600:6616   */\n      mload\n        /* \"#utility.yul\":6659:6664   */\n      dup1\n        /* \"#utility.yul\":6652:6665   */\n      iszero\n        /* \"#utility.yul\":6645:6666   */\n      iszero\n        /* \"#utility.yul\":6638:6643   */\n      dup2\n        /* \"#utility.yul\":6635:6667   */\n      eq\n        /* \"#utility.yul\":6625:6685   */\n      tag_322\n      jumpi\n        /* \"#utility.yul\":6681:6682   */\n      0x00\n        /* \"#utility.yul\":6678:6679   */\n      dup1\n        /* \"#utility.yul\":6671:6683   */\n      revert\n        /* \"#utility.yul\":8599:8726   */\n    tag_366:\n        /* \"#utility.yul\":8660:8670   */\n      0x4e487b71\n        /* \"#utility.yul\":8655:8658   */\n      0xe0\n        /* \"#utility.yul\":8651:8671   */\n      shl\n        /* \"#utility.yul\":8648:8649   */\n      0x00\n        /* \"#utility.yul\":8641:8672   */\n      mstore\n        /* \"#utility.yul\":8691:8695   */\n      0x11\n        /* \"#utility.yul\":8688:8689   */\n      0x04\n        /* \"#utility.yul\":8681:8696   */\n      mstore\n        /* \"#utility.yul\":8715:8719   */\n      0x24\n        /* \"#utility.yul\":8712:8713   */\n      0x00\n        /* \"#utility.yul\":8705:8720   */\n      revert\n        /* \"#utility.yul\":8731:8859   */\n    tag_237:\n        /* \"#utility.yul\":8771:8774   */\n      0x00\n        /* \"#utility.yul\":8802:8803   */\n      dup3\n        /* \"#utility.yul\":8798:8804   */\n      not\n        /* \"#utility.yul\":8795:8796   */\n      dup3\n        /* \"#utility.yul\":8792:8805   */\n      gt\n        /* \"#utility.yul\":8789:8828   */\n      iszero\n      tag_426\n      jumpi\n        /* \"#utility.yul\":8808:8826   */\n      tag_426\n      tag_366\n      jump\t// in\n    tag_426:\n      pop\n        /* \"#utility.yul\":8844:8853   */\n      add\n      swap1\n        /* \"#utility.yul\":8731:8859   */\n      jump\t// out\n        /* \"#utility.yul\":10938:11189   */\n    tag_274:\n        /* \"#utility.yul\":11008:11014   */\n      0x00\n        /* \"#utility.yul\":11061:11063   */\n      0x20\n        /* \"#utility.yul\":11049:11058   */\n      dup3\n        /* \"#utility.yul\":11040:11047   */\n      dup5\n        /* \"#utility.yul\":11036:11059   */\n      sub\n        /* \"#utility.yul\":11032:11064   */\n      slt\n        /* \"#utility.yul\":11029:11081   */\n      iszero\n      tag_434\n      jumpi\n        /* \"#utility.yul\":11077:11078   */\n      0x00\n        /* \"#utility.yul\":11074:11075   */\n      dup1\n        /* \"#utility.yul\":11067:11079   */\n      revert\n        /* \"#utility.yul\":11029:11081   */\n    tag_434:\n        /* \"#utility.yul\":11109:11118   */\n      dup2\n        /* \"#utility.yul\":11103:11119   */\n      mload\n        /* \"#utility.yul\":11128:11159   */\n      tag_322\n        /* \"#utility.yul\":11153:11158   */\n      dup2\n        /* \"#utility.yul\":11128:11159   */\n      tag_365\n      jump\t// in\n        /* \"#utility.yul\":11980:12148   */\n    tag_300:\n        /* \"#utility.yul\":12020:12027   */\n      0x00\n        /* \"#utility.yul\":12086:12087   */\n      dup2\n        /* \"#utility.yul\":12082:12083   */\n      0x00\n        /* \"#utility.yul\":12078:12084   */\n      not\n        /* \"#utility.yul\":12074:12088   */\n      div\n        /* \"#utility.yul\":12071:12072   */\n      dup4\n        /* \"#utility.yul\":12068:12089   */\n      gt\n        /* \"#utility.yul\":12063:12064   */\n      dup3\n        /* \"#utility.yul\":12056:12065   */\n      iszero\n        /* \"#utility.yul\":12049:12066   */\n      iszero\n        /* \"#utility.yul\":12045:12090   */\n      and\n        /* \"#utility.yul\":12042:12113   */\n      iszero\n      tag_440\n      jumpi\n        /* \"#utility.yul\":12093:12111   */\n      tag_440\n      tag_366\n      jump\t// in\n    tag_440:\n      pop\n        /* \"#utility.yul\":12133:12142   */\n      mul\n      swap1\n        /* \"#utility.yul\":11980:12148   */\n      jump\t// out\n        /* \"#utility.yul\":12153:12280   */\n    tag_304:\n        /* \"#utility.yul\":12214:12224   */\n      0x4e487b71\n        /* \"#utility.yul\":12209:12212   */\n      0xe0\n        /* \"#utility.yul\":12205:12225   */\n      shl\n        /* \"#utility.yul\":12202:12203   */\n      0x00\n        /* \"#utility.yul\":12195:12226   */\n      mstore\n        /* \"#utility.yul\":12245:12249   */\n      0x41\n        /* \"#utility.yul\":12242:12243   */\n      0x04\n        /* \"#utility.yul\":12235:12250   */\n      mstore\n        /* \"#utility.yul\":12269:12273   */\n      0x24\n        /* \"#utility.yul\":12266:12267   */\n      0x00\n        /* \"#utility.yul\":12259:12274   */\n      revert\n        /* \"#utility.yul\":12285:12412   */\n    tag_308:\n        /* \"#utility.yul\":12346:12356   */\n      0x4e487b71\n        /* \"#utility.yul\":12341:12344   */\n      0xe0\n        /* \"#utility.yul\":12337:12357   */\n      shl\n        /* \"#utility.yul\":12334:12335   */\n      0x00\n        /* \"#utility.yul\":12327:12358   */\n      mstore\n        /* \"#utility.yul\":12377:12381   */\n      0x32\n        /* \"#utility.yul\":12374:12375   */\n      0x04\n        /* \"#utility.yul\":12367:12382   */\n      mstore\n        /* \"#utility.yul\":12401:12405   */\n      0x24\n        /* \"#utility.yul\":12398:12399   */\n      0x00\n        /* \"#utility.yul\":12391:12406   */\n      revert\n        /* \"#utility.yul\":12417:12553   */\n    tag_321:\n        /* \"#utility.yul\":12456:12459   */\n      0x00\n        /* \"#utility.yul\":12484:12489   */\n      dup2\n        /* \"#utility.yul\":12474:12513   */\n      tag_445\n      jumpi\n        /* \"#utility.yul\":12493:12511   */\n      tag_445\n      tag_366\n      jump\t// in\n    tag_445:\n      pop\n      not(0x00)\n        /* \"#utility.yul\":12529:12547   */\n      add\n      swap1\n        /* \"#utility.yul\":12417:12553   */\n      jump\t// out\n        /* \"#utility.yul\":12919:13177   */\n    tag_367:\n        /* \"#utility.yul\":12991:12992   */\n      0x00\n        /* \"#utility.yul\":13001:13114   */\n    tag_448:\n        /* \"#utility.yul\":13015:13021   */\n      dup4\n        /* \"#utility.yul\":13012:13013   */\n      dup2\n        /* \"#utility.yul\":13009:13022   */\n      lt\n        /* \"#utility.yul\":13001:13114   */\n      iszero\n      tag_450\n      jumpi\n        /* \"#utility.yul\":13091:13102   */\n      dup2\n      dup2\n      add\n        /* \"#utility.yul\":13085:13103   */\n      mload\n        /* \"#utility.yul\":13072:13083   */\n      dup4\n      dup3\n      add\n        /* \"#utility.yul\":13065:13104   */\n      mstore\n        /* \"#utility.yul\":13037:13039   */\n      0x20\n        /* \"#utility.yul\":13030:13040   */\n      add\n        /* \"#utility.yul\":13001:13114   */\n      jump(tag_448)\n    tag_450:\n        /* \"#utility.yul\":13132:13138   */\n      dup4\n        /* \"#utility.yul\":13129:13130   */\n      dup2\n        /* \"#utility.yul\":13126:13139   */\n      gt\n        /* \"#utility.yul\":13123:13171   */\n      iszero\n      tag_451\n      jumpi\n        /* \"#utility.yul\":13167:13168   */\n      0x00\n        /* \"#utility.yul\":13158:13164   */\n      dup5\n        /* \"#utility.yul\":13153:13156   */\n      dup5\n        /* \"#utility.yul\":13149:13165   */\n      add\n        /* \"#utility.yul\":13142:13169   */\n      mstore\n        /* \"#utility.yul\":13123:13171   */\n    tag_451:\n      pop\n        /* \"#utility.yul\":12919:13177   */\n      pop\n      pop\n      pop\n      jump\t// out\n        /* \"#utility.yul\":13182:13968   */\n    tag_348:\n        /* \"#utility.yul\":13593:13618   */\n      0x416363657373436f6e74726f6c3a206163636f756e7420000000000000000000\n        /* \"#utility.yul\":13588:13591   */\n      dup2\n        /* \"#utility.yul\":13581:13619   */\n      mstore\n        /* \"#utility.yul\":13563:13566   */\n      0x00\n        /* \"#utility.yul\":13648:13654   */\n      dup4\n        /* \"#utility.yul\":13642:13655   */\n      mload\n        /* \"#utility.yul\":13664:13726   */\n      tag_453\n        /* \"#utility.yul\":13719:13725   */\n      dup2\n        /* \"#utility.yul\":13714:13716   */\n      0x17\n        /* \"#utility.yul\":13709:13712   */\n      dup6\n        /* \"#utility.yul\":13705:13717   */\n      add\n        /* \"#utility.yul\":13698:13702   */\n      0x20\n        /* \"#utility.yul\":13690:13696   */\n      dup9\n        /* \"#utility.yul\":13686:13703   */\n      add\n        /* \"#utility.yul\":13664:13726   */\n      tag_367\n      jump\t// in\n    tag_453:\n      shl(0x7d, 0x01034b99036b4b9b9b4b733903937b6329)\n        /* \"#utility.yul\":13785:13787   */\n      0x17\n        /* \"#utility.yul\":13745:13761   */\n      swap2\n      dup5\n      add\n        /* \"#utility.yul\":13777:13788   */\n      swap2\n      dup3\n      add\n        /* \"#utility.yul\":13770:13810   */\n      mstore\n        /* \"#utility.yul\":13835:13848   */\n      dup4\n      mload\n        /* \"#utility.yul\":13857:13920   */\n      tag_454\n        /* \"#utility.yul\":13835:13848   */\n      dup2\n        /* \"#utility.yul\":13906:13908   */\n      0x28\n        /* \"#utility.yul\":13898:13909   */\n      dup5\n      add\n        /* \"#utility.yul\":13891:13895   */\n      0x20\n        /* \"#utility.yul\":13879:13896   */\n      dup9\n      add\n        /* \"#utility.yul\":13857:13920   */\n      tag_367\n      jump\t// in\n    tag_454:\n        /* \"#utility.yul\":13940:13957   */\n      add\n        /* \"#utility.yul\":13959:13961   */\n      0x28\n        /* \"#utility.yul\":13936:13962   */\n      add\n      swap5\n        /* \"#utility.yul\":13182:13968   */\n      swap4\n      pop\n      pop\n      pop\n      pop\n      jump\t// out\n        /* \"#utility.yul\":13973:14356   */\n    tag_350:\n        /* \"#utility.yul\":14122:14124   */\n      0x20\n        /* \"#utility.yul\":14111:14120   */\n      dup2\n        /* \"#utility.yul\":14104:14125   */\n      mstore\n        /* \"#utility.yul\":14085:14089   */\n      0x00\n        /* \"#utility.yul\":14154:14160   */\n      dup3\n        /* \"#utility.yul\":14148:14161   */\n      mload\n        /* \"#utility.yul\":14197:14203   */\n      dup1\n        /* \"#utility.yul\":14192:14194   */\n      0x20\n        /* \"#utility.yul\":14181:14190   */\n      dup5\n        /* \"#utility.yul\":14177:14195   */\n      add\n        /* \"#utility.yul\":14170:14204   */\n      mstore\n        /* \"#utility.yul\":14213:14279   */\n      tag_456\n        /* \"#utility.yul\":14272:14278   */\n      dup2\n        /* \"#utility.yul\":14267:14269   */\n      0x40\n        /* \"#utility.yul\":14256:14265   */\n      dup6\n        /* \"#utility.yul\":14252:14270   */\n      add\n        /* \"#utility.yul\":14247:14249   */\n      0x20\n        /* \"#utility.yul\":14239:14245   */\n      dup8\n        /* \"#utility.yul\":14235:14250   */\n      add\n        /* \"#utility.yul\":14213:14279   */\n      tag_367\n      jump\t// in\n    tag_456:\n        /* \"#utility.yul\":14340:14342   */\n      0x1f\n        /* \"#utility.yul\":14319:14334   */\n      add\n      not(0x1f)\n        /* \"#utility.yul\":14315:14344   */\n      and\n        /* \"#utility.yul\":14300:14345   */\n      swap2\n      swap1\n      swap2\n      add\n        /* \"#utility.yul\":14347:14349   */\n      0x40\n        /* \"#utility.yul\":14296:14350   */\n      add\n      swap3\n        /* \"#utility.yul\":13973:14356   */\n      swap2\n      pop\n      pop\n      jump\t// out\n        /* \"#utility.yul\":14361:14496   */\n    tag_363:\n        /* \"#utility.yul\":14400:14403   */\n      0x00\n        /* \"#utility.yul\":14421:14438   */\n      0x01\n      dup3\n      add\n        /* \"#utility.yul\":14418:14461   */\n      tag_459\n      jumpi\n        /* \"#utility.yul\":14441:14459   */\n      tag_459\n      tag_366\n      jump\t// in\n    tag_459:\n      pop\n        /* \"#utility.yul\":14488:14489   */\n      0x01\n        /* \"#utility.yul\":14477:14490   */\n      add\n      swap1\n        /* \"#utility.yul\":14361:14496   */\n      jump\t// out\n    stop\n    data_71bc58b11912e913810b39e571f45210df6492f34a736e059bce6194bd700432 5d8e12c39142ff96d79d04d15d1ba1269e4fe57bb9d26f43523628b34ba108ec\n\n    auxdata: 0xa2646970667358221220b611be4129860c4f5aaeeaa4c7541f6661f15f34df1564972a09ba271badf68a64736f6c634300080f0033\n}\n",
				"bytecode": {
					"linkReferences": {},
					"object": "60806040523480156200001157600080fd5b5060405162001e5238038062001e52833981016040819052620000349162000468565b60018055620000456000336200008f565b620000717f5d8e12c39142ff96d79d04d15d1ba1269e4fe57bb9d26f43523628b34ba108ec336200008f565b6200007c8262000130565b6200008781620001a2565b50506200061e565b6000828152602081815260408083206001600160a01b038516845290915290205460ff166200012c576000828152602081815260408083206001600160a01b03851684529091529020805460ff19166001179055620000eb3390565b6001600160a01b0316816001600160a01b0316837f2f8788117e7eff1d82e926ec794901d17c78024a50270940304540a733656f0d60405160405180910390a45b5050565b60006200013d81620001f5565b600280546001600160a01b038481166001600160a01b0319831681179093556040805191909216808252602082019390935284917fabdf056c85a221fcb31d0366c4475b6b2c613df2eeea951a9fcb3e1a8595d973910160405180910390a150505050565b6000620001af81620001f5565b600480549083905560408051828152602081018590527f123d88ba82600dfc3f219f8885c691b0ff020caa535666874b3f5174973757fe910160405180910390a1505050565b62000201813362000204565b50565b6000828152602081815260408083206001600160a01b038516845290915290205460ff166200012c576200024e816001600160a01b03166014620002a860201b620010ac1760201c565b62000264836020620010ac620002a8821b17811c565b60405160200162000277929190620004d7565b60408051601f198184030181529082905262461bcd60e51b82526200029f9160040162000550565b60405180910390fd5b60606000620002b98360026200059b565b620002c6906002620005bd565b6001600160401b03811115620002e057620002e0620005d8565b6040519080825280601f01601f1916602001820160405280156200030b576020820181803683370190505b509050600360fc1b81600081518110620003295762000329620005ee565b60200101906001600160f81b031916908160001a905350600f60fb1b816001815181106200035b576200035b620005ee565b60200101906001600160f81b031916908160001a9053506000620003818460026200059b565b6200038e906001620005bd565b90505b600181111562000410576f181899199a1a9b1b9c1cb0b131b232b360811b85600f1660108110620003c657620003c6620005ee565b1a60f81b828281518110620003df57620003df620005ee565b60200101906001600160f81b031916908160001a90535060049490941c93620004088162000604565b905062000391565b508315620004615760405162461bcd60e51b815260206004820181905260248201527f537472696e67733a20686578206c656e67746820696e73756666696369656e7460448201526064016200029f565b9392505050565b600080604083850312156200047c57600080fd5b82516001600160a01b03811681146200049457600080fd5b6020939093015192949293505050565b60005b83811015620004c1578181015183820152602001620004a7565b83811115620004d1576000848401525b50505050565b7f416363657373436f6e74726f6c3a206163636f756e742000000000000000000081526000835162000511816017850160208801620004a4565b7001034b99036b4b9b9b4b733903937b6329607d1b601791840191820152835162000544816028840160208801620004a4565b01602801949350505050565b602081526000825180602084015262000571816040850160208701620004a4565b601f01601f19169190910160400192915050565b634e487b7160e01b600052601160045260246000fd5b6000816000190483118215151615620005b857620005b862000585565b500290565b60008219821115620005d357620005d362000585565b500190565b634e487b7160e01b600052604160045260246000fd5b634e487b7160e01b600052603260045260246000fd5b60008162000616576200061662000585565b506000190190565b611824806200062e6000396000f3fe6080604052600436106101815760003560e01c80639e6c8855116100d1578063d547741f1161008a578063ef5fe79f11610064578063ef5fe79f14610488578063f500cdfc1461049e578063ff05fe4a146104d2578063ffdc6129146104f257600080fd5b8063d547741f1461040e578063df4e58811461042e578063e02023a11461046657600080fd5b80639e6c8855146103635780639f93076514610383578063a217fddf146101bb578063b5abafa114610396578063bff863ec146103d9578063c4e41b22146103f957600080fd5b806336568abe1161013e5780635b94bbc3116101185780635b94bbc3146102cf5780637cb64759146103035780638407ecc41461032357806391d148541461034357600080fd5b806336568abe1461027a5780634c0f38c21461029a57806351cff8d9146102af57600080fd5b806301ffc9a7146101865780630a25dea9146101bb578063248a9ca3146101de57806324c37a851461020e5780632eb4a7ab146102425780632f2ff15d14610258575b600080fd5b34801561019257600080fd5b506101a66101a1366004611433565b610538565b60405190151581526020015b60405180910390f35b3480156101c757600080fd5b506101d0600081565b6040519081526020016101b2565b3480156101ea57600080fd5b506101d06101f936600461145d565b60009081526020819052604090206001015490565b34801561021a57600080fd5b506101d07fb3c595e55271590809f54e2f4fc3a582754f45b104dd3c41666e2ad310493db381565b34801561024e57600080fd5b506101d060045481565b34801561026457600080fd5b5061027861027336600461148b565b61056f565b005b34801561028657600080fd5b5061027861029536600461148b565b610599565b3480156102a657600080fd5b506101d061061c565b3480156102bb57600080fd5b506102786102ca3660046114bb565b61068f565b3480156102db57600080fd5b506101d07f5c8c0ce107274ad0569bd760c3d2406c1ed72c697935f3f965bd096c5cdedee481565b34801561030f57600080fd5b5061027861031e36600461145d565b61079f565b34801561032f57600080fd5b5061027861033e3660046114d8565b6107f1565b34801561034f57600080fd5b506101a661035e36600461148b565b61097f565b34801561036f57600080fd5b5061027861037e3660046114bb565b6109a8565b610278610391366004611506565b610a0f565b3480156103a257600080fd5b506101d06103b1366004611588565b6001600160a01b03919091166000908152600660209081526040808320938352929052205490565b3480156103e557600080fd5b506102786103f43660046115b4565b610e56565b34801561040557600080fd5b506101d0610ff4565b34801561041a57600080fd5b5061027861042936600461148b565b61103e565b34801561043a57600080fd5b5060025461044e906001600160a01b031681565b6040516001600160a01b0390911681526020016101b2565b34801561047257600080fd5b506101d06000805160206117cf83398151915281565b34801561049457600080fd5b506101d060035481565b3480156104aa57600080fd5b506101d07f68e7d51fdb912cb107dda2e59b053d87fcca666dd0ef5339cd3474ccb5276bba81565b3480156104de57600080fd5b506102786104ed36600461145d565b611063565b3480156104fe57600080fd5b506101a661050d366004611588565b6001600160a01b03919091166000908152600560209081526040808320938352929052205460ff1690565b60006001600160e01b03198216637965db0b60e01b148061056957506301ffc9a760e01b6001600160e01b03198316145b92915050565b60008281526020819052604090206001015461058a8161124f565b610594838361125c565b505050565b6001600160a01b038116331461060e5760405162461bcd60e51b815260206004820152602f60248201527f416363657373436f6e74726f6c3a2063616e206f6e6c792072656e6f756e636560448201526e103937b632b9903337b91039b2b63360891b60648201526084015b60405180910390fd5b61061882826112e0565b5050565b6002546040805163d5abeb0160e01b815290516000926001600160a01b03169163d5abeb019160048083019260209291908290030181865afa158015610666573d6000803e3d6000fd5b505050506040513d601f19601f8201168201806040525081019061068a91906115f5565b905090565b6000805160206117cf8339815191526106a78161124f565b47806106ec5760405162461bcd60e51b8152602060048201526014602482015273496e73756666696369656e742042616c616e636560601b6044820152606401610605565b6000836001600160a01b03168260405160006040518083038185875af1925050503d8060008114610739576040519150601f19603f3d011682016040523d82523d6000602084013e61073e565b606091505b505090508061074c57600080fd5b604080516001600160a01b03861681526020810184905242918101919091527ff279e6a1f5e320cca91135676d9cb6e44ca8a08c0b88342bcdb1144f6511b568906060015b60405180910390a150505050565b60006107aa8161124f565b600480549083905560408051828152602081018590527f123d88ba82600dfc3f219f8885c691b0ff020caa535666874b3f5174973757fe91015b60405180910390a1505050565b6000805160206117cf8339815191526108098161124f565b6040516370a0823160e01b81523060048201526000906001600160a01b038416906370a0823190602401602060405180830381865afa158015610850573d6000803e3d6000fd5b505050506040513d601f19601f8201168201806040525081019061087491906115f5565b9050600081116108bd5760405162461bcd60e51b8152602060048201526014602482015273496e73756666696369656e742042616c616e636560601b6044820152606401610605565b60405163a9059cbb60e01b81526001600160a01b0385811660048301526024820183905284169063a9059cbb906044016020604051808303816000875af115801561090c573d6000803e3d6000fd5b505050506040513d601f19601f82011682018060405250810190610930919061160e565b50604080516001600160a01b038087168252851660208201529081018290524260608201527fb818a975f91276df8ba59329becbc23c793df0d503c19ac296c3c372a1fa046190608001610791565b6000918252602082815260408084206001600160a01b0393909316845291905290205460ff1690565b60006109b38161124f565b600280546001600160a01b038481166001600160a01b0319831681179093556040805191909216808252602082019390935284917fabdf056c85a221fcb31d0366c4475b6b2c613df2eeea951a9fcb3e1a8595d9739101610791565b600260015403610a615760405162461bcd60e51b815260206004820152601f60248201527f5265656e7472616e637947756172643a207265656e7472616e742063616c6c006044820152606401610605565b600260015580610aab5760405162461bcd60e51b815260206004820152601560248201527426b4b73a1034b9903737ba1030b8383937bb32b21760591b6044820152606401610605565b8060035414610b0c5760405162461bcd60e51b815260206004820152602760248201527f436f6e747261637420617265206e6f7420696e2074686973206d696e74696e67604482015266103937bab7321760c91b6064820152608401610605565b610b1461061c565b82610b1d610ff4565b610b279190611646565b10610b625760405162461bcd60e51b815260206004820152600b60248201526a4f76657220737570706c7960a81b6044820152606401610605565b33600090815260056020908152604080832084845290915290205460ff1615610bcd5760405162461bcd60e51b815260206004820152601760248201527f596f752061726520616c7265616479206d696e7465642e0000000000000000006044820152606401610605565b6002546040516355138f0d60e11b81523060048201526001600160a01b039091169063aa271e1a90602401602060405180830381865afa158015610c15573d6000803e3d6000fd5b505050506040513d601f19601f82011682018060405250810190610c39919061160e565b610c855760405162461bcd60e51b815260206004820152601e60248201527f436f6e7472616374204d696e74206973206e6f7420617070726f7665642e00006044820152606401610605565b610d08848480806020026020016040519081016040528093929190818152602001838360200280828437600092019190915250506004546040516bffffffffffffffffffffffff193360601b1660208201526034810188905260548101879052909250607401905060405160208183030381529060405280519060200120611345565b610d625760405162461bcd60e51b815260206004820152602560248201527f556e617574686f72697a65642057686974656c6973744d696e742054686973206044820152642ab9b2b91760d91b6064820152608401610605565b3360008181526005602090815260408083208584528252808320805460ff191660011790559282526006815282822084835290529081208054849290610da9908490611646565b9091555050600254604051632851206560e21b8152336004820152602481018490526001600160a01b039091169063a144819490604401600060405180830381600087803b158015610dfa57600080fd5b505af1158015610e0e573d6000803e3d6000fd5b5050604080518581524260208201523393507f25b428dfde728ccfaddad7e29e4ac23c24ed7fd1a6e3e3f91894a9a073f5dfff92500160405180910390a25050600180555050565b6000805160206117cf833981519152610e6e8161124f565b6040516331a9108f60e11b81526004810183905230906001600160a01b03851690636352211e90602401602060405180830381865afa158015610eb5573d6000803e3d6000fd5b505050506040513d601f19601f82011682018060405250810190610ed9919061165e565b6001600160a01b031614610f3d5760405162461bcd60e51b815260206004820152602560248201527f5468697320746f6b656e4964206973206e6f74206f776e656420627920636f6e6044820152641d1c9858dd60da1b6064820152608401610605565b604051632142170760e11b81523060048201526001600160a01b038581166024830152604482018490528416906342842e0e90606401600060405180830381600087803b158015610f8d57600080fd5b505af1158015610fa1573d6000803e3d6000fd5b5050604080516001600160a01b038089168252871660208201529081018590524260608201527f0127a8d3f57942833f6930572bce52ad882683e36eeb5830d199d3fa4bfa946792506080019050610791565b600254604080516318160ddd60e01b815290516000926001600160a01b0316916318160ddd9160048083019260209291908290030181865afa158015610666573d6000803e3d6000fd5b6000828152602081905260409020600101546110598161124f565b61059483836112e0565b600061106e8161124f565b600380549083905560408051828152602081018590527f521ec96875ca228cd2fc1dbd4c927a34328c9ce1a83bcb8c1f633f012c90d78591016107e4565b606060006110bb83600261167b565b6110c6906002611646565b67ffffffffffffffff8111156110de576110de61169a565b6040519080825280601f01601f191660200182016040528015611108576020820181803683370190505b509050600360fc1b81600081518110611123576111236116b0565b60200101906001600160f81b031916908160001a905350600f60fb1b81600181518110611152576111526116b0565b60200101906001600160f81b031916908160001a905350600061117684600261167b565b611181906001611646565b90505b60018111156111f9576f181899199a1a9b1b9c1cb0b131b232b360811b85600f16601081106111b5576111b56116b0565b1a60f81b8282815181106111cb576111cb6116b0565b60200101906001600160f81b031916908160001a90535060049490941c936111f2816116c6565b9050611184565b5083156112485760405162461bcd60e51b815260206004820181905260248201527f537472696e67733a20686578206c656e67746820696e73756666696369656e746044820152606401610605565b9392505050565b611259813361135b565b50565b611266828261097f565b610618576000828152602081815260408083206001600160a01b03851684529091529020805460ff1916600117905561129c3390565b6001600160a01b0316816001600160a01b0316837f2f8788117e7eff1d82e926ec794901d17c78024a50270940304540a733656f0d60405160405180910390a45050565b6112ea828261097f565b15610618576000828152602081815260408083206001600160a01b0385168085529252808320805460ff1916905551339285917ff6391f5c32d9c69d2a47ea670b442974b53935d1edc7fd64eb21e047a839171b9190a45050565b60008261135285846113bf565b14949350505050565b611365828261097f565b6106185761137d816001600160a01b031660146110ac565b6113888360206110ac565b60405160200161139992919061170d565b60408051601f198184030181529082905262461bcd60e51b825261060591600401611782565b600081815b845181101561142b5760008582815181106113e1576113e16116b0565b602002602001015190508083116114075760008381526020829052604090209250611418565b600081815260208490526040902092505b5080611423816117b5565b9150506113c4565b509392505050565b60006020828403121561144557600080fd5b81356001600160e01b03198116811461124857600080fd5b60006020828403121561146f57600080fd5b5035919050565b6001600160a01b038116811461125957600080fd5b6000806040838503121561149e57600080fd5b8235915060208301356114b081611476565b809150509250929050565b6000602082840312156114cd57600080fd5b813561124881611476565b600080604083850312156114eb57600080fd5b82356114f681611476565b915060208301356114b081611476565b6000806000806060858703121561151c57600080fd5b843567ffffffffffffffff8082111561153457600080fd5b818701915087601f83011261154857600080fd5b81358181111561155757600080fd5b8860208260051b850101111561156c57600080fd5b6020928301999098509187013596604001359550909350505050565b6000806040838503121561159b57600080fd5b82356115a681611476565b946020939093013593505050565b6000806000606084860312156115c957600080fd5b83356115d481611476565b925060208401356115e481611476565b929592945050506040919091013590565b60006020828403121561160757600080fd5b5051919050565b60006020828403121561162057600080fd5b8151801515811461124857600080fd5b634e487b7160e01b600052601160045260246000fd5b6000821982111561165957611659611630565b500190565b60006020828403121561167057600080fd5b815161124881611476565b600081600019048311821515161561169557611695611630565b500290565b634e487b7160e01b600052604160045260246000fd5b634e487b7160e01b600052603260045260246000fd5b6000816116d5576116d5611630565b506000190190565b60005b838110156116f85781810151838201526020016116e0565b83811115611707576000848401525b50505050565b7f416363657373436f6e74726f6c3a206163636f756e74200000000000000000008152600083516117458160178501602088016116dd565b7001034b99036b4b9b9b4b733903937b6329607d1b60179184019182015283516117768160288401602088016116dd565b01602801949350505050565b60208152600082518060208401526117a18160408501602087016116dd565b601f01601f19169190910160400192915050565b6000600182016117c7576117c7611630565b506001019056fe5d8e12c39142ff96d79d04d15d1ba1269e4fe57bb9d26f43523628b34ba108eca2646970667358221220b611be4129860c4f5aaeeaa4c7541f6661f15f34df1564972a09ba271badf68a64736f6c634300080f0033",
					"opcodes": "PUSH1 0x80 PUSH1 0x40 MSTORE CALLVALUE DUP1 ISZERO PUSH3 0x11 JUMPI PUSH1 0x0 DUP1 REVERT JUMPDEST POP PUSH1 0x40 MLOAD PUSH3 0x1E52 CODESIZE SUB DUP1 PUSH3 0x1E52 DUP4 CODECOPY DUP2 ADD PUSH1 0x40 DUP2 SWAP1 MSTORE PUSH3 0x34 SWAP2 PUSH3 0x468 JUMP JUMPDEST PUSH1 0x1 DUP1 SSTORE PUSH3 0x45 PUSH1 0x0 CALLER PUSH3 0x8F JUMP JUMPDEST PUSH3 0x71 PUSH32 0x5D8E12C39142FF96D79D04D15D1BA1269E4FE57BB9D26F43523628B34BA108EC CALLER PUSH3 0x8F JUMP JUMPDEST PUSH3 0x7C DUP3 PUSH3 0x130 JUMP JUMPDEST PUSH3 0x87 DUP2 PUSH3 0x1A2 JUMP JUMPDEST POP POP PUSH3 0x61E JUMP JUMPDEST PUSH1 0x0 DUP3 DUP2 MSTORE PUSH1 0x20 DUP2 DUP2 MSTORE PUSH1 0x40 DUP1 DUP4 KECCAK256 PUSH1 0x1 PUSH1 0x1 PUSH1 0xA0 SHL SUB DUP6 AND DUP5 MSTORE SWAP1 SWAP2 MSTORE SWAP1 KECCAK256 SLOAD PUSH1 0xFF AND PUSH3 0x12C JUMPI PUSH1 0x0 DUP3 DUP2 MSTORE PUSH1 0x20 DUP2 DUP2 MSTORE PUSH1 0x40 DUP1 DUP4 KECCAK256 PUSH1 0x1 PUSH1 0x1 PUSH1 0xA0 SHL SUB DUP6 AND DUP5 MSTORE SWAP1 SWAP2 MSTORE SWAP1 KECCAK256 DUP1 SLOAD PUSH1 0xFF NOT AND PUSH1 0x1 OR SWAP1 SSTORE PUSH3 0xEB CALLER SWAP1 JUMP JUMPDEST PUSH1 0x1 PUSH1 0x1 PUSH1 0xA0 SHL SUB AND DUP2 PUSH1 0x1 PUSH1 0x1 PUSH1 0xA0 SHL SUB AND DUP4 PUSH32 0x2F8788117E7EFF1D82E926EC794901D17C78024A50270940304540A733656F0D PUSH1 0x40 MLOAD PUSH1 0x40 MLOAD DUP1 SWAP2 SUB SWAP1 LOG4 JUMPDEST POP POP JUMP JUMPDEST PUSH1 0x0 PUSH3 0x13D DUP2 PUSH3 0x1F5 JUMP JUMPDEST PUSH1 0x2 DUP1 SLOAD PUSH1 0x1 PUSH1 0x1 PUSH1 0xA0 SHL SUB DUP5 DUP2 AND PUSH1 0x1 PUSH1 0x1 PUSH1 0xA0 SHL SUB NOT DUP4 AND DUP2 OR SWAP1 SWAP4 SSTORE PUSH1 0x40 DUP1 MLOAD SWAP2 SWAP1 SWAP3 AND DUP1 DUP3 MSTORE PUSH1 0x20 DUP3 ADD SWAP4 SWAP1 SWAP4 MSTORE DUP5 SWAP2 PUSH32 0xABDF056C85A221FCB31D0366C4475B6B2C613DF2EEEA951A9FCB3E1A8595D973 SWAP2 ADD PUSH1 0x40 MLOAD DUP1 SWAP2 SUB SWAP1 LOG1 POP POP POP POP JUMP JUMPDEST PUSH1 0x0 PUSH3 0x1AF DUP2 PUSH3 0x1F5 JUMP JUMPDEST PUSH1 0x4 DUP1 SLOAD SWAP1 DUP4 SWAP1 SSTORE PUSH1 0x40 DUP1 MLOAD DUP3 DUP2 MSTORE PUSH1 0x20 DUP2 ADD DUP6 SWAP1 MSTORE PUSH32 0x123D88BA82600DFC3F219F8885C691B0FF020CAA535666874B3F5174973757FE SWAP2 ADD PUSH1 0x40 MLOAD DUP1 SWAP2 SUB SWAP1 LOG1 POP POP POP JUMP JUMPDEST PUSH3 0x201 DUP2 CALLER PUSH3 0x204 JUMP JUMPDEST POP JUMP JUMPDEST PUSH1 0x0 DUP3 DUP2 MSTORE PUSH1 0x20 DUP2 DUP2 MSTORE PUSH1 0x40 DUP1 DUP4 KECCAK256 PUSH1 0x1 PUSH1 0x1 PUSH1 0xA0 SHL SUB DUP6 AND DUP5 MSTORE SWAP1 SWAP2 MSTORE SWAP1 KECCAK256 SLOAD PUSH1 0xFF AND PUSH3 0x12C JUMPI PUSH3 0x24E DUP2 PUSH1 0x1 PUSH1 0x1 PUSH1 0xA0 SHL SUB AND PUSH1 0x14 PUSH3 0x2A8 PUSH1 0x20 SHL PUSH3 0x10AC OR PUSH1 0x20 SHR JUMP JUMPDEST PUSH3 0x264 DUP4 PUSH1 0x20 PUSH3 0x10AC PUSH3 0x2A8 DUP3 SHL OR DUP2 SHR JUMP JUMPDEST PUSH1 0x40 MLOAD PUSH1 0x20 ADD PUSH3 0x277 SWAP3 SWAP2 SWAP1 PUSH3 0x4D7 JUMP JUMPDEST PUSH1 0x40 DUP1 MLOAD PUSH1 0x1F NOT DUP2 DUP5 SUB ADD DUP2 MSTORE SWAP1 DUP3 SWAP1 MSTORE PUSH3 0x461BCD PUSH1 0xE5 SHL DUP3 MSTORE PUSH3 0x29F SWAP2 PUSH1 0x4 ADD PUSH3 0x550 JUMP JUMPDEST PUSH1 0x40 MLOAD DUP1 SWAP2 SUB SWAP1 REVERT JUMPDEST PUSH1 0x60 PUSH1 0x0 PUSH3 0x2B9 DUP4 PUSH1 0x2 PUSH3 0x59B JUMP JUMPDEST PUSH3 0x2C6 SWAP1 PUSH1 0x2 PUSH3 0x5BD JUMP JUMPDEST PUSH1 0x1 PUSH1 0x1 PUSH1 0x40 SHL SUB DUP2 GT ISZERO PUSH3 0x2E0 JUMPI PUSH3 0x2E0 PUSH3 0x5D8 JUMP JUMPDEST PUSH1 0x40 MLOAD SWAP1 DUP1 DUP3 MSTORE DUP1 PUSH1 0x1F ADD PUSH1 0x1F NOT AND PUSH1 0x20 ADD DUP3 ADD PUSH1 0x40 MSTORE DUP1 ISZERO PUSH3 0x30B JUMPI PUSH1 0x20 DUP3 ADD DUP2 DUP1 CALLDATASIZE DUP4 CALLDATACOPY ADD SWAP1 POP JUMPDEST POP SWAP1 POP PUSH1 0x3 PUSH1 0xFC SHL DUP2 PUSH1 0x0 DUP2 MLOAD DUP2 LT PUSH3 0x329 JUMPI PUSH3 0x329 PUSH3 0x5EE JUMP JUMPDEST PUSH1 0x20 ADD ADD SWAP1 PUSH1 0x1 PUSH1 0x1 PUSH1 0xF8 SHL SUB NOT AND SWAP1 DUP2 PUSH1 0x0 BYTE SWAP1 MSTORE8 POP PUSH1 0xF PUSH1 0xFB SHL DUP2 PUSH1 0x1 DUP2 MLOAD DUP2 LT PUSH3 0x35B JUMPI PUSH3 0x35B PUSH3 0x5EE JUMP JUMPDEST PUSH1 0x20 ADD ADD SWAP1 PUSH1 0x1 PUSH1 0x1 PUSH1 0xF8 SHL SUB NOT AND SWAP1 DUP2 PUSH1 0x0 BYTE SWAP1 MSTORE8 POP PUSH1 0x0 PUSH3 0x381 DUP5 PUSH1 0x2 PUSH3 0x59B JUMP JUMPDEST PUSH3 0x38E SWAP1 PUSH1 0x1 PUSH3 0x5BD JUMP JUMPDEST SWAP1 POP JUMPDEST PUSH1 0x1 DUP2 GT ISZERO PUSH3 0x410 JUMPI PUSH16 0x181899199A1A9B1B9C1CB0B131B232B3 PUSH1 0x81 SHL DUP6 PUSH1 0xF AND PUSH1 0x10 DUP2 LT PUSH3 0x3C6 JUMPI PUSH3 0x3C6 PUSH3 0x5EE JUMP JUMPDEST BYTE PUSH1 0xF8 SHL DUP3 DUP3 DUP2 MLOAD DUP2 LT PUSH3 0x3DF JUMPI PUSH3 0x3DF PUSH3 0x5EE JUMP JUMPDEST PUSH1 0x20 ADD ADD SWAP1 PUSH1 0x1 PUSH1 0x1 PUSH1 0xF8 SHL SUB NOT AND SWAP1 DUP2 PUSH1 0x0 BYTE SWAP1 MSTORE8 POP PUSH1 0x4 SWAP5 SWAP1 SWAP5 SHR SWAP4 PUSH3 0x408 DUP2 PUSH3 0x604 JUMP JUMPDEST SWAP1 POP PUSH3 0x391 JUMP JUMPDEST POP DUP4 ISZERO PUSH3 0x461 JUMPI PUSH1 0x40 MLOAD PUSH3 0x461BCD PUSH1 0xE5 SHL DUP2 MSTORE PUSH1 0x20 PUSH1 0x4 DUP3 ADD DUP2 SWAP1 MSTORE PUSH1 0x24 DUP3 ADD MSTORE PUSH32 0x537472696E67733A20686578206C656E67746820696E73756666696369656E74 PUSH1 0x44 DUP3 ADD MSTORE PUSH1 0x64 ADD PUSH3 0x29F JUMP JUMPDEST SWAP4 SWAP3 POP POP POP JUMP JUMPDEST PUSH1 0x0 DUP1 PUSH1 0x40 DUP4 DUP6 SUB SLT ISZERO PUSH3 0x47C JUMPI PUSH1 0x0 DUP1 REVERT JUMPDEST DUP3 MLOAD PUSH1 0x1 PUSH1 0x1 PUSH1 0xA0 SHL SUB DUP2 AND DUP2 EQ PUSH3 0x494 JUMPI PUSH1 0x0 DUP1 REVERT JUMPDEST PUSH1 0x20 SWAP4 SWAP1 SWAP4 ADD MLOAD SWAP3 SWAP5 SWAP3 SWAP4 POP POP POP JUMP JUMPDEST PUSH1 0x0 JUMPDEST DUP4 DUP2 LT ISZERO PUSH3 0x4C1 JUMPI DUP2 DUP2 ADD MLOAD DUP4 DUP3 ADD MSTORE PUSH1 0x20 ADD PUSH3 0x4A7 JUMP JUMPDEST DUP4 DUP2 GT ISZERO PUSH3 0x4D1 JUMPI PUSH1 0x0 DUP5 DUP5 ADD MSTORE JUMPDEST POP POP POP POP JUMP JUMPDEST PUSH32 0x416363657373436F6E74726F6C3A206163636F756E7420000000000000000000 DUP2 MSTORE PUSH1 0x0 DUP4 MLOAD PUSH3 0x511 DUP2 PUSH1 0x17 DUP6 ADD PUSH1 0x20 DUP9 ADD PUSH3 0x4A4 JUMP JUMPDEST PUSH17 0x1034B99036B4B9B9B4B733903937B6329 PUSH1 0x7D SHL PUSH1 0x17 SWAP2 DUP5 ADD SWAP2 DUP3 ADD MSTORE DUP4 MLOAD PUSH3 0x544 DUP2 PUSH1 0x28 DUP5 ADD PUSH1 0x20 DUP9 ADD PUSH3 0x4A4 JUMP JUMPDEST ADD PUSH1 0x28 ADD SWAP5 SWAP4 POP POP POP POP JUMP JUMPDEST PUSH1 0x20 DUP2 MSTORE PUSH1 0x0 DUP3 MLOAD DUP1 PUSH1 0x20 DUP5 ADD MSTORE PUSH3 0x571 DUP2 PUSH1 0x40 DUP6 ADD PUSH1 0x20 DUP8 ADD PUSH3 0x4A4 JUMP JUMPDEST PUSH1 0x1F ADD PUSH1 0x1F NOT AND SWAP2 SWAP1 SWAP2 ADD PUSH1 0x40 ADD SWAP3 SWAP2 POP POP JUMP JUMPDEST PUSH4 0x4E487B71 PUSH1 0xE0 SHL PUSH1 0x0 MSTORE PUSH1 0x11 PUSH1 0x4 MSTORE PUSH1 0x24 PUSH1 0x0 REVERT JUMPDEST PUSH1 0x0 DUP2 PUSH1 0x0 NOT DIV DUP4 GT DUP3 ISZERO ISZERO AND ISZERO PUSH3 0x5B8 JUMPI PUSH3 0x5B8 PUSH3 0x585 JUMP JUMPDEST POP MUL SWAP1 JUMP JUMPDEST PUSH1 0x0 DUP3 NOT DUP3 GT ISZERO PUSH3 0x5D3 JUMPI PUSH3 0x5D3 PUSH3 0x585 JUMP JUMPDEST POP ADD SWAP1 JUMP JUMPDEST PUSH4 0x4E487B71 PUSH1 0xE0 SHL PUSH1 0x0 MSTORE PUSH1 0x41 PUSH1 0x4 MSTORE PUSH1 0x24 PUSH1 0x0 REVERT JUMPDEST PUSH4 0x4E487B71 PUSH1 0xE0 SHL PUSH1 0x0 MSTORE PUSH1 0x32 PUSH1 0x4 MSTORE PUSH1 0x24 PUSH1 0x0 REVERT JUMPDEST PUSH1 0x0 DUP2 PUSH3 0x616 JUMPI PUSH3 0x616 PUSH3 0x585 JUMP JUMPDEST POP PUSH1 0x0 NOT ADD SWAP1 JUMP JUMPDEST PUSH2 0x1824 DUP1 PUSH3 0x62E PUSH1 0x0 CODECOPY PUSH1 0x0 RETURN INVALID PUSH1 0x80 PUSH1 0x40 MSTORE PUSH1 0x4 CALLDATASIZE LT PUSH2 0x181 JUMPI PUSH1 0x0 CALLDATALOAD PUSH1 0xE0 SHR DUP1 PUSH4 0x9E6C8855 GT PUSH2 0xD1 JUMPI DUP1 PUSH4 0xD547741F GT PUSH2 0x8A JUMPI DUP1 PUSH4 0xEF5FE79F GT PUSH2 0x64 JUMPI DUP1 PUSH4 0xEF5FE79F EQ PUSH2 0x488 JUMPI DUP1 PUSH4 0xF500CDFC EQ PUSH2 0x49E JUMPI DUP1 PUSH4 0xFF05FE4A EQ PUSH2 0x4D2 JUMPI DUP1 PUSH4 0xFFDC6129 EQ PUSH2 0x4F2 JUMPI PUSH1 0x0 DUP1 REVERT JUMPDEST DUP1 PUSH4 0xD547741F EQ PUSH2 0x40E JUMPI DUP1 PUSH4 0xDF4E5881 EQ PUSH2 0x42E JUMPI DUP1 PUSH4 0xE02023A1 EQ PUSH2 0x466 JUMPI PUSH1 0x0 DUP1 REVERT JUMPDEST DUP1 PUSH4 0x9E6C8855 EQ PUSH2 0x363 JUMPI DUP1 PUSH4 0x9F930765 EQ PUSH2 0x383 JUMPI DUP1 PUSH4 0xA217FDDF EQ PUSH2 0x1BB JUMPI DUP1 PUSH4 0xB5ABAFA1 EQ PUSH2 0x396 JUMPI DUP1 PUSH4 0xBFF863EC EQ PUSH2 0x3D9 JUMPI DUP1 PUSH4 0xC4E41B22 EQ PUSH2 0x3F9 JUMPI PUSH1 0x0 DUP1 REVERT JUMPDEST DUP1 PUSH4 0x36568ABE GT PUSH2 0x13E JUMPI DUP1 PUSH4 0x5B94BBC3 GT PUSH2 0x118 JUMPI DUP1 PUSH4 0x5B94BBC3 EQ PUSH2 0x2CF JUMPI DUP1 PUSH4 0x7CB64759 EQ PUSH2 0x303 JUMPI DUP1 PUSH4 0x8407ECC4 EQ PUSH2 0x323 JUMPI DUP1 PUSH4 0x91D14854 EQ PUSH2 0x343 JUMPI PUSH1 0x0 DUP1 REVERT JUMPDEST DUP1 PUSH4 0x36568ABE EQ PUSH2 0x27A JUMPI DUP1 PUSH4 0x4C0F38C2 EQ PUSH2 0x29A JUMPI DUP1 PUSH4 0x51CFF8D9 EQ PUSH2 0x2AF JUMPI PUSH1 0x0 DUP1 REVERT JUMPDEST DUP1 PUSH4 0x1FFC9A7 EQ PUSH2 0x186 JUMPI DUP1 PUSH4 0xA25DEA9 EQ PUSH2 0x1BB JUMPI DUP1 PUSH4 0x248A9CA3 EQ PUSH2 0x1DE JUMPI DUP1 PUSH4 0x24C37A85 EQ PUSH2 0x20E JUMPI DUP1 PUSH4 0x2EB4A7AB EQ PUSH2 0x242 JUMPI DUP1 PUSH4 0x2F2FF15D EQ PUSH2 0x258 JUMPI JUMPDEST PUSH1 0x0 DUP1 REVERT JUMPDEST CALLVALUE DUP1 ISZERO PUSH2 0x192 JUMPI PUSH1 0x0 DUP1 REVERT JUMPDEST POP PUSH2 0x1A6 PUSH2 0x1A1 CALLDATASIZE PUSH1 0x4 PUSH2 0x1433 JUMP JUMPDEST PUSH2 0x538 JUMP JUMPDEST PUSH1 0x40 MLOAD SWAP1 ISZERO ISZERO DUP2 MSTORE PUSH1 0x20 ADD JUMPDEST PUSH1 0x40 MLOAD DUP1 SWAP2 SUB SWAP1 RETURN JUMPDEST CALLVALUE DUP1 ISZERO PUSH2 0x1C7 JUMPI PUSH1 0x0 DUP1 REVERT JUMPDEST POP PUSH2 0x1D0 PUSH1 0x0 DUP2 JUMP JUMPDEST PUSH1 0x40 MLOAD SWAP1 DUP2 MSTORE PUSH1 0x20 ADD PUSH2 0x1B2 JUMP JUMPDEST CALLVALUE DUP1 ISZERO PUSH2 0x1EA JUMPI PUSH1 0x0 DUP1 REVERT JUMPDEST POP PUSH2 0x1D0 PUSH2 0x1F9 CALLDATASIZE PUSH1 0x4 PUSH2 0x145D JUMP JUMPDEST PUSH1 0x0 SWAP1 DUP2 MSTORE PUSH1 0x20 DUP2 SWAP1 MSTORE PUSH1 0x40 SWAP1 KECCAK256 PUSH1 0x1 ADD SLOAD SWAP1 JUMP JUMPDEST CALLVALUE DUP1 ISZERO PUSH2 0x21A JUMPI PUSH1 0x0 DUP1 REVERT JUMPDEST POP PUSH2 0x1D0 PUSH32 0xB3C595E55271590809F54E2F4FC3A582754F45B104DD3C41666E2AD310493DB3 DUP2 JUMP JUMPDEST CALLVALUE DUP1 ISZERO PUSH2 0x24E JUMPI PUSH1 0x0 DUP1 REVERT JUMPDEST POP PUSH2 0x1D0 PUSH1 0x4 SLOAD DUP2 JUMP JUMPDEST CALLVALUE DUP1 ISZERO PUSH2 0x264 JUMPI PUSH1 0x0 DUP1 REVERT JUMPDEST POP PUSH2 0x278 PUSH2 0x273 CALLDATASIZE PUSH1 0x4 PUSH2 0x148B JUMP JUMPDEST PUSH2 0x56F JUMP JUMPDEST STOP JUMPDEST CALLVALUE DUP1 ISZERO PUSH2 0x286 JUMPI PUSH1 0x0 DUP1 REVERT JUMPDEST POP PUSH2 0x278 PUSH2 0x295 CALLDATASIZE PUSH1 0x4 PUSH2 0x148B JUMP JUMPDEST PUSH2 0x599 JUMP JUMPDEST CALLVALUE DUP1 ISZERO PUSH2 0x2A6 JUMPI PUSH1 0x0 DUP1 REVERT JUMPDEST POP PUSH2 0x1D0 PUSH2 0x61C JUMP JUMPDEST CALLVALUE DUP1 ISZERO PUSH2 0x2BB JUMPI PUSH1 0x0 DUP1 REVERT JUMPDEST POP PUSH2 0x278 PUSH2 0x2CA CALLDATASIZE PUSH1 0x4 PUSH2 0x14BB JUMP JUMPDEST PUSH2 0x68F JUMP JUMPDEST CALLVALUE DUP1 ISZERO PUSH2 0x2DB JUMPI PUSH1 0x0 DUP1 REVERT JUMPDEST POP PUSH2 0x1D0 PUSH32 0x5C8C0CE107274AD0569BD760C3D2406C1ED72C697935F3F965BD096C5CDEDEE4 DUP2 JUMP JUMPDEST CALLVALUE DUP1 ISZERO PUSH2 0x30F JUMPI PUSH1 0x0 DUP1 REVERT JUMPDEST POP PUSH2 0x278 PUSH2 0x31E CALLDATASIZE PUSH1 0x4 PUSH2 0x145D JUMP JUMPDEST PUSH2 0x79F JUMP JUMPDEST CALLVALUE DUP1 ISZERO PUSH2 0x32F JUMPI PUSH1 0x0 DUP1 REVERT JUMPDEST POP PUSH2 0x278 PUSH2 0x33E CALLDATASIZE PUSH1 0x4 PUSH2 0x14D8 JUMP JUMPDEST PUSH2 0x7F1 JUMP JUMPDEST CALLVALUE DUP1 ISZERO PUSH2 0x34F JUMPI PUSH1 0x0 DUP1 REVERT JUMPDEST POP PUSH2 0x1A6 PUSH2 0x35E CALLDATASIZE PUSH1 0x4 PUSH2 0x148B JUMP JUMPDEST PUSH2 0x97F JUMP JUMPDEST CALLVALUE DUP1 ISZERO PUSH2 0x36F JUMPI PUSH1 0x0 DUP1 REVERT JUMPDEST POP PUSH2 0x278 PUSH2 0x37E CALLDATASIZE PUSH1 0x4 PUSH2 0x14BB JUMP JUMPDEST PUSH2 0x9A8 JUMP JUMPDEST PUSH2 0x278 PUSH2 0x391 CALLDATASIZE PUSH1 0x4 PUSH2 0x1506 JUMP JUMPDEST PUSH2 0xA0F JUMP JUMPDEST CALLVALUE DUP1 ISZERO PUSH2 0x3A2 JUMPI PUSH1 0x0 DUP1 REVERT JUMPDEST POP PUSH2 0x1D0 PUSH2 0x3B1 CALLDATASIZE PUSH1 0x4 PUSH2 0x1588 JUMP JUMPDEST PUSH1 0x1 PUSH1 0x1 PUSH1 0xA0 SHL SUB SWAP2 SWAP1 SWAP2 AND PUSH1 0x0 SWAP1 DUP2 MSTORE PUSH1 0x6 PUSH1 0x20 SWAP1 DUP2 MSTORE PUSH1 0x40 DUP1 DUP4 KECCAK256 SWAP4 DUP4 MSTORE SWAP3 SWAP1 MSTORE KECCAK256 SLOAD SWAP1 JUMP JUMPDEST CALLVALUE DUP1 ISZERO PUSH2 0x3E5 JUMPI PUSH1 0x0 DUP1 REVERT JUMPDEST POP PUSH2 0x278 PUSH2 0x3F4 CALLDATASIZE PUSH1 0x4 PUSH2 0x15B4 JUMP JUMPDEST PUSH2 0xE56 JUMP JUMPDEST CALLVALUE DUP1 ISZERO PUSH2 0x405 JUMPI PUSH1 0x0 DUP1 REVERT JUMPDEST POP PUSH2 0x1D0 PUSH2 0xFF4 JUMP JUMPDEST CALLVALUE DUP1 ISZERO PUSH2 0x41A JUMPI PUSH1 0x0 DUP1 REVERT JUMPDEST POP PUSH2 0x278 PUSH2 0x429 CALLDATASIZE PUSH1 0x4 PUSH2 0x148B JUMP JUMPDEST PUSH2 0x103E JUMP JUMPDEST CALLVALUE DUP1 ISZERO PUSH2 0x43A JUMPI PUSH1 0x0 DUP1 REVERT JUMPDEST POP PUSH1 0x2 SLOAD PUSH2 0x44E SWAP1 PUSH1 0x1 PUSH1 0x1 PUSH1 0xA0 SHL SUB AND DUP2 JUMP JUMPDEST PUSH1 0x40 MLOAD PUSH1 0x1 PUSH1 0x1 PUSH1 0xA0 SHL SUB SWAP1 SWAP2 AND DUP2 MSTORE PUSH1 0x20 ADD PUSH2 0x1B2 JUMP JUMPDEST CALLVALUE DUP1 ISZERO PUSH2 0x472 JUMPI PUSH1 0x0 DUP1 REVERT JUMPDEST POP PUSH2 0x1D0 PUSH1 0x0 DUP1 MLOAD PUSH1 0x20 PUSH2 0x17CF DUP4 CODECOPY DUP2 MLOAD SWAP2 MSTORE DUP2 JUMP JUMPDEST CALLVALUE DUP1 ISZERO PUSH2 0x494 JUMPI PUSH1 0x0 DUP1 REVERT JUMPDEST POP PUSH2 0x1D0 PUSH1 0x3 SLOAD DUP2 JUMP JUMPDEST CALLVALUE DUP1 ISZERO PUSH2 0x4AA JUMPI PUSH1 0x0 DUP1 REVERT JUMPDEST POP PUSH2 0x1D0 PUSH32 0x68E7D51FDB912CB107DDA2E59B053D87FCCA666DD0EF5339CD3474CCB5276BBA DUP2 JUMP JUMPDEST CALLVALUE DUP1 ISZERO PUSH2 0x4DE JUMPI PUSH1 0x0 DUP1 REVERT JUMPDEST POP PUSH2 0x278 PUSH2 0x4ED CALLDATASIZE PUSH1 0x4 PUSH2 0x145D JUMP JUMPDEST PUSH2 0x1063 JUMP JUMPDEST CALLVALUE DUP1 ISZERO PUSH2 0x4FE JUMPI PUSH1 0x0 DUP1 REVERT JUMPDEST POP PUSH2 0x1A6 PUSH2 0x50D CALLDATASIZE PUSH1 0x4 PUSH2 0x1588 JUMP JUMPDEST PUSH1 0x1 PUSH1 0x1 PUSH1 0xA0 SHL SUB SWAP2 SWAP1 SWAP2 AND PUSH1 0x0 SWAP1 DUP2 MSTORE PUSH1 0x5 PUSH1 0x20 SWAP1 DUP2 MSTORE PUSH1 0x40 DUP1 DUP4 KECCAK256 SWAP4 DUP4 MSTORE SWAP3 SWAP1 MSTORE KECCAK256 SLOAD PUSH1 0xFF AND SWAP1 JUMP JUMPDEST PUSH1 0x0 PUSH1 0x1 PUSH1 0x1 PUSH1 0xE0 SHL SUB NOT DUP3 AND PUSH4 0x7965DB0B PUSH1 0xE0 SHL EQ DUP1 PUSH2 0x569 JUMPI POP PUSH4 0x1FFC9A7 PUSH1 0xE0 SHL PUSH1 0x1 PUSH1 0x1 PUSH1 0xE0 SHL SUB NOT DUP4 AND EQ JUMPDEST SWAP3 SWAP2 POP POP JUMP JUMPDEST PUSH1 0x0 DUP3 DUP2 MSTORE PUSH1 0x20 DUP2 SWAP1 MSTORE PUSH1 0x40 SWAP1 KECCAK256 PUSH1 0x1 ADD SLOAD PUSH2 0x58A DUP2 PUSH2 0x124F JUMP JUMPDEST PUSH2 0x594 DUP4 DUP4 PUSH2 0x125C JUMP JUMPDEST POP POP POP JUMP JUMPDEST PUSH1 0x1 PUSH1 0x1 PUSH1 0xA0 SHL SUB DUP2 AND CALLER EQ PUSH2 0x60E JUMPI PUSH1 0x40 MLOAD PUSH3 0x461BCD PUSH1 0xE5 SHL DUP2 MSTORE PUSH1 0x20 PUSH1 0x4 DUP3 ADD MSTORE PUSH1 0x2F PUSH1 0x24 DUP3 ADD MSTORE PUSH32 0x416363657373436F6E74726F6C3A2063616E206F6E6C792072656E6F756E6365 PUSH1 0x44 DUP3 ADD MSTORE PUSH15 0x103937B632B9903337B91039B2B633 PUSH1 0x89 SHL PUSH1 0x64 DUP3 ADD MSTORE PUSH1 0x84 ADD JUMPDEST PUSH1 0x40 MLOAD DUP1 SWAP2 SUB SWAP1 REVERT JUMPDEST PUSH2 0x618 DUP3 DUP3 PUSH2 0x12E0 JUMP JUMPDEST POP POP JUMP JUMPDEST PUSH1 0x2 SLOAD PUSH1 0x40 DUP1 MLOAD PUSH4 0xD5ABEB01 PUSH1 0xE0 SHL DUP2 MSTORE SWAP1 MLOAD PUSH1 0x0 SWAP3 PUSH1 0x1 PUSH1 0x1 PUSH1 0xA0 SHL SUB AND SWAP2 PUSH4 0xD5ABEB01 SWAP2 PUSH1 0x4 DUP1 DUP4 ADD SWAP3 PUSH1 0x20 SWAP3 SWAP2 SWAP1 DUP3 SWAP1 SUB ADD DUP2 DUP7 GAS STATICCALL ISZERO DUP1 ISZERO PUSH2 0x666 JUMPI RETURNDATASIZE PUSH1 0x0 DUP1 RETURNDATACOPY RETURNDATASIZE PUSH1 0x0 REVERT JUMPDEST POP POP POP POP PUSH1 0x40 MLOAD RETURNDATASIZE PUSH1 0x1F NOT PUSH1 0x1F DUP3 ADD AND DUP3 ADD DUP1 PUSH1 0x40 MSTORE POP DUP2 ADD SWAP1 PUSH2 0x68A SWAP2 SWAP1 PUSH2 0x15F5 JUMP JUMPDEST SWAP1 POP SWAP1 JUMP JUMPDEST PUSH1 0x0 DUP1 MLOAD PUSH1 0x20 PUSH2 0x17CF DUP4 CODECOPY DUP2 MLOAD SWAP2 MSTORE PUSH2 0x6A7 DUP2 PUSH2 0x124F JUMP JUMPDEST SELFBALANCE DUP1 PUSH2 0x6EC JUMPI PUSH1 0x40 MLOAD PUSH3 0x461BCD PUSH1 0xE5 SHL DUP2 MSTORE PUSH1 0x20 PUSH1 0x4 DUP3 ADD MSTORE PUSH1 0x14 PUSH1 0x24 DUP3 ADD MSTORE PUSH20 0x496E73756666696369656E742042616C616E6365 PUSH1 0x60 SHL PUSH1 0x44 DUP3 ADD MSTORE PUSH1 0x64 ADD PUSH2 0x605 JUMP JUMPDEST PUSH1 0x0 DUP4 PUSH1 0x1 PUSH1 0x1 PUSH1 0xA0 SHL SUB AND DUP3 PUSH1 0x40 MLOAD PUSH1 0x0 PUSH1 0x40 MLOAD DUP1 DUP4 SUB DUP2 DUP6 DUP8 GAS CALL SWAP3 POP POP POP RETURNDATASIZE DUP1 PUSH1 0x0 DUP2 EQ PUSH2 0x739 JUMPI PUSH1 0x40 MLOAD SWAP2 POP PUSH1 0x1F NOT PUSH1 0x3F RETURNDATASIZE ADD AND DUP3 ADD PUSH1 0x40 MSTORE RETURNDATASIZE DUP3 MSTORE RETURNDATASIZE PUSH1 0x0 PUSH1 0x20 DUP5 ADD RETURNDATACOPY PUSH2 0x73E JUMP JUMPDEST PUSH1 0x60 SWAP2 POP JUMPDEST POP POP SWAP1 POP DUP1 PUSH2 0x74C JUMPI PUSH1 0x0 DUP1 REVERT JUMPDEST PUSH1 0x40 DUP1 MLOAD PUSH1 0x1 PUSH1 0x1 PUSH1 0xA0 SHL SUB DUP7 AND DUP2 MSTORE PUSH1 0x20 DUP2 ADD DUP5 SWAP1 MSTORE TIMESTAMP SWAP2 DUP2 ADD SWAP2 SWAP1 SWAP2 MSTORE PUSH32 0xF279E6A1F5E320CCA91135676D9CB6E44CA8A08C0B88342BCDB1144F6511B568 SWAP1 PUSH1 0x60 ADD JUMPDEST PUSH1 0x40 MLOAD DUP1 SWAP2 SUB SWAP1 LOG1 POP POP POP POP JUMP JUMPDEST PUSH1 0x0 PUSH2 0x7AA DUP2 PUSH2 0x124F JUMP JUMPDEST PUSH1 0x4 DUP1 SLOAD SWAP1 DUP4 SWAP1 SSTORE PUSH1 0x40 DUP1 MLOAD DUP3 DUP2 MSTORE PUSH1 0x20 DUP2 ADD DUP6 SWAP1 MSTORE PUSH32 0x123D88BA82600DFC3F219F8885C691B0FF020CAA535666874B3F5174973757FE SWAP2 ADD JUMPDEST PUSH1 0x40 MLOAD DUP1 SWAP2 SUB SWAP1 LOG1 POP POP POP JUMP JUMPDEST PUSH1 0x0 DUP1 MLOAD PUSH1 0x20 PUSH2 0x17CF DUP4 CODECOPY DUP2 MLOAD SWAP2 MSTORE PUSH2 0x809 DUP2 PUSH2 0x124F JUMP JUMPDEST PUSH1 0x40 MLOAD PUSH4 0x70A08231 PUSH1 0xE0 SHL DUP2 MSTORE ADDRESS PUSH1 0x4 DUP3 ADD MSTORE PUSH1 0x0 SWAP1 PUSH1 0x1 PUSH1 0x1 PUSH1 0xA0 SHL SUB DUP5 AND SWAP1 PUSH4 0x70A08231 SWAP1 PUSH1 0x24 ADD PUSH1 0x20 PUSH1 0x40 MLOAD DUP1 DUP4 SUB DUP2 DUP7 GAS STATICCALL ISZERO DUP1 ISZERO PUSH2 0x850 JUMPI RETURNDATASIZE PUSH1 0x0 DUP1 RETURNDATACOPY RETURNDATASIZE PUSH1 0x0 REVERT JUMPDEST POP POP POP POP PUSH1 0x40 MLOAD RETURNDATASIZE PUSH1 0x1F NOT PUSH1 0x1F DUP3 ADD AND DUP3 ADD DUP1 PUSH1 0x40 MSTORE POP DUP2 ADD SWAP1 PUSH2 0x874 SWAP2 SWAP1 PUSH2 0x15F5 JUMP JUMPDEST SWAP1 POP PUSH1 0x0 DUP2 GT PUSH2 0x8BD JUMPI PUSH1 0x40 MLOAD PUSH3 0x461BCD PUSH1 0xE5 SHL DUP2 MSTORE PUSH1 0x20 PUSH1 0x4 DUP3 ADD MSTORE PUSH1 0x14 PUSH1 0x24 DUP3 ADD MSTORE PUSH20 0x496E73756666696369656E742042616C616E6365 PUSH1 0x60 SHL PUSH1 0x44 DUP3 ADD MSTORE PUSH1 0x64 ADD PUSH2 0x605 JUMP JUMPDEST PUSH1 0x40 MLOAD PUSH4 0xA9059CBB PUSH1 0xE0 SHL DUP2 MSTORE PUSH1 0x1 PUSH1 0x1 PUSH1 0xA0 SHL SUB DUP6 DUP2 AND PUSH1 0x4 DUP4 ADD MSTORE PUSH1 0x24 DUP3 ADD DUP4 SWAP1 MSTORE DUP5 AND SWAP1 PUSH4 0xA9059CBB SWAP1 PUSH1 0x44 ADD PUSH1 0x20 PUSH1 0x40 MLOAD DUP1 DUP4 SUB DUP2 PUSH1 0x0 DUP8 GAS CALL ISZERO DUP1 ISZERO PUSH2 0x90C JUMPI RETURNDATASIZE PUSH1 0x0 DUP1 RETURNDATACOPY RETURNDATASIZE PUSH1 0x0 REVERT JUMPDEST POP POP POP POP PUSH1 0x40 MLOAD RETURNDATASIZE PUSH1 0x1F NOT PUSH1 0x1F DUP3 ADD AND DUP3 ADD DUP1 PUSH1 0x40 MSTORE POP DUP2 ADD SWAP1 PUSH2 0x930 SWAP2 SWAP1 PUSH2 0x160E JUMP JUMPDEST POP PUSH1 0x40 DUP1 MLOAD PUSH1 0x1 PUSH1 0x1 PUSH1 0xA0 SHL SUB DUP1 DUP8 AND DUP3 MSTORE DUP6 AND PUSH1 0x20 DUP3 ADD MSTORE SWAP1 DUP2 ADD DUP3 SWAP1 MSTORE TIMESTAMP PUSH1 0x60 DUP3 ADD MSTORE PUSH32 0xB818A975F91276DF8BA59329BECBC23C793DF0D503C19AC296C3C372A1FA0461 SWAP1 PUSH1 0x80 ADD PUSH2 0x791 JUMP JUMPDEST PUSH1 0x0 SWAP2 DUP3 MSTORE PUSH1 0x20 DUP3 DUP2 MSTORE PUSH1 0x40 DUP1 DUP5 KECCAK256 PUSH1 0x1 PUSH1 0x1 PUSH1 0xA0 SHL SUB SWAP4 SWAP1 SWAP4 AND DUP5 MSTORE SWAP2 SWAP1 MSTORE SWAP1 KECCAK256 SLOAD PUSH1 0xFF AND SWAP1 JUMP JUMPDEST PUSH1 0x0 PUSH2 0x9B3 DUP2 PUSH2 0x124F JUMP JUMPDEST PUSH1 0x2 DUP1 SLOAD PUSH1 0x1 PUSH1 0x1 PUSH1 0xA0 SHL SUB DUP5 DUP2 AND PUSH1 0x1 PUSH1 0x1 PUSH1 0xA0 SHL SUB NOT DUP4 AND DUP2 OR SWAP1 SWAP4 SSTORE PUSH1 0x40 DUP1 MLOAD SWAP2 SWAP1 SWAP3 AND DUP1 DUP3 MSTORE PUSH1 0x20 DUP3 ADD SWAP4 SWAP1 SWAP4 MSTORE DUP5 SWAP2 PUSH32 0xABDF056C85A221FCB31D0366C4475B6B2C613DF2EEEA951A9FCB3E1A8595D973 SWAP2 ADD PUSH2 0x791 JUMP JUMPDEST PUSH1 0x2 PUSH1 0x1 SLOAD SUB PUSH2 0xA61 JUMPI PUSH1 0x40 MLOAD PUSH3 0x461BCD PUSH1 0xE5 SHL DUP2 MSTORE PUSH1 0x20 PUSH1 0x4 DUP3 ADD MSTORE PUSH1 0x1F PUSH1 0x24 DUP3 ADD MSTORE PUSH32 0x5265656E7472616E637947756172643A207265656E7472616E742063616C6C00 PUSH1 0x44 DUP3 ADD MSTORE PUSH1 0x64 ADD PUSH2 0x605 JUMP JUMPDEST PUSH1 0x2 PUSH1 0x1 SSTORE DUP1 PUSH2 0xAAB JUMPI PUSH1 0x40 MLOAD PUSH3 0x461BCD PUSH1 0xE5 SHL DUP2 MSTORE PUSH1 0x20 PUSH1 0x4 DUP3 ADD MSTORE PUSH1 0x15 PUSH1 0x24 DUP3 ADD MSTORE PUSH21 0x26B4B73A1034B9903737BA1030B8383937BB32B217 PUSH1 0x59 SHL PUSH1 0x44 DUP3 ADD MSTORE PUSH1 0x64 ADD PUSH2 0x605 JUMP JUMPDEST DUP1 PUSH1 0x3 SLOAD EQ PUSH2 0xB0C JUMPI PUSH1 0x40 MLOAD PUSH3 0x461BCD PUSH1 0xE5 SHL DUP2 MSTORE PUSH1 0x20 PUSH1 0x4 DUP3 ADD MSTORE PUSH1 0x27 PUSH1 0x24 DUP3 ADD MSTORE PUSH32 0x436F6E747261637420617265206E6F7420696E2074686973206D696E74696E67 PUSH1 0x44 DUP3 ADD MSTORE PUSH7 0x103937BAB73217 PUSH1 0xC9 SHL PUSH1 0x64 DUP3 ADD MSTORE PUSH1 0x84 ADD PUSH2 0x605 JUMP JUMPDEST PUSH2 0xB14 PUSH2 0x61C JUMP JUMPDEST DUP3 PUSH2 0xB1D PUSH2 0xFF4 JUMP JUMPDEST PUSH2 0xB27 SWAP2 SWAP1 PUSH2 0x1646 JUMP JUMPDEST LT PUSH2 0xB62 JUMPI PUSH1 0x40 MLOAD PUSH3 0x461BCD PUSH1 0xE5 SHL DUP2 MSTORE PUSH1 0x20 PUSH1 0x4 DUP3 ADD MSTORE PUSH1 0xB PUSH1 0x24 DUP3 ADD MSTORE PUSH11 0x4F76657220737570706C79 PUSH1 0xA8 SHL PUSH1 0x44 DUP3 ADD MSTORE PUSH1 0x64 ADD PUSH2 0x605 JUMP JUMPDEST CALLER PUSH1 0x0 SWAP1 DUP2 MSTORE PUSH1 0x5 PUSH1 0x20 SWAP1 DUP2 MSTORE PUSH1 0x40 DUP1 DUP4 KECCAK256 DUP5 DUP5 MSTORE SWAP1 SWAP2 MSTORE SWAP1 KECCAK256 SLOAD PUSH1 0xFF AND ISZERO PUSH2 0xBCD JUMPI PUSH1 0x40 MLOAD PUSH3 0x461BCD PUSH1 0xE5 SHL DUP2 MSTORE PUSH1 0x20 PUSH1 0x4 DUP3 ADD MSTORE PUSH1 0x17 PUSH1 0x24 DUP3 ADD MSTORE PUSH32 0x596F752061726520616C7265616479206D696E7465642E000000000000000000 PUSH1 0x44 DUP3 ADD MSTORE PUSH1 0x64 ADD PUSH2 0x605 JUMP JUMPDEST PUSH1 0x2 SLOAD PUSH1 0x40 MLOAD PUSH4 0x55138F0D PUSH1 0xE1 SHL DUP2 MSTORE ADDRESS PUSH1 0x4 DUP3 ADD MSTORE PUSH1 0x1 PUSH1 0x1 PUSH1 0xA0 SHL SUB SWAP1 SWAP2 AND SWAP1 PUSH4 0xAA271E1A SWAP1 PUSH1 0x24 ADD PUSH1 0x20 PUSH1 0x40 MLOAD DUP1 DUP4 SUB DUP2 DUP7 GAS STATICCALL ISZERO DUP1 ISZERO PUSH2 0xC15 JUMPI RETURNDATASIZE PUSH1 0x0 DUP1 RETURNDATACOPY RETURNDATASIZE PUSH1 0x0 REVERT JUMPDEST POP POP POP POP PUSH1 0x40 MLOAD RETURNDATASIZE PUSH1 0x1F NOT PUSH1 0x1F DUP3 ADD AND DUP3 ADD DUP1 PUSH1 0x40 MSTORE POP DUP2 ADD SWAP1 PUSH2 0xC39 SWAP2 SWAP1 PUSH2 0x160E JUMP JUMPDEST PUSH2 0xC85 JUMPI PUSH1 0x40 MLOAD PUSH3 0x461BCD PUSH1 0xE5 SHL DUP2 MSTORE PUSH1 0x20 PUSH1 0x4 DUP3 ADD MSTORE PUSH1 0x1E PUSH1 0x24 DUP3 ADD MSTORE PUSH32 0x436F6E7472616374204D696E74206973206E6F7420617070726F7665642E0000 PUSH1 0x44 DUP3 ADD MSTORE PUSH1 0x64 ADD PUSH2 0x605 JUMP JUMPDEST PUSH2 0xD08 DUP5 DUP5 DUP1 DUP1 PUSH1 0x20 MUL PUSH1 0x20 ADD PUSH1 0x40 MLOAD SWAP1 DUP2 ADD PUSH1 0x40 MSTORE DUP1 SWAP4 SWAP3 SWAP2 SWAP1 DUP2 DUP2 MSTORE PUSH1 0x20 ADD DUP4 DUP4 PUSH1 0x20 MUL DUP1 DUP3 DUP5 CALLDATACOPY PUSH1 0x0 SWAP3 ADD SWAP2 SWAP1 SWAP2 MSTORE POP POP PUSH1 0x4 SLOAD PUSH1 0x40 MLOAD PUSH12 0xFFFFFFFFFFFFFFFFFFFFFFFF NOT CALLER PUSH1 0x60 SHL AND PUSH1 0x20 DUP3 ADD MSTORE PUSH1 0x34 DUP2 ADD DUP9 SWAP1 MSTORE PUSH1 0x54 DUP2 ADD DUP8 SWAP1 MSTORE SWAP1 SWAP3 POP PUSH1 0x74 ADD SWAP1 POP PUSH1 0x40 MLOAD PUSH1 0x20 DUP2 DUP4 SUB SUB DUP2 MSTORE SWAP1 PUSH1 0x40 MSTORE DUP1 MLOAD SWAP1 PUSH1 0x20 ADD KECCAK256 PUSH2 0x1345 JUMP JUMPDEST PUSH2 0xD62 JUMPI PUSH1 0x40 MLOAD PUSH3 0x461BCD PUSH1 0xE5 SHL DUP2 MSTORE PUSH1 0x20 PUSH1 0x4 DUP3 ADD MSTORE PUSH1 0x25 PUSH1 0x24 DUP3 ADD MSTORE PUSH32 0x556E617574686F72697A65642057686974656C6973744D696E74205468697320 PUSH1 0x44 DUP3 ADD MSTORE PUSH5 0x2AB9B2B917 PUSH1 0xD9 SHL PUSH1 0x64 DUP3 ADD MSTORE PUSH1 0x84 ADD PUSH2 0x605 JUMP JUMPDEST CALLER PUSH1 0x0 DUP2 DUP2 MSTORE PUSH1 0x5 PUSH1 0x20 SWAP1 DUP2 MSTORE PUSH1 0x40 DUP1 DUP4 KECCAK256 DUP6 DUP5 MSTORE DUP3 MSTORE DUP1 DUP4 KECCAK256 DUP1 SLOAD PUSH1 0xFF NOT AND PUSH1 0x1 OR SWAP1 SSTORE SWAP3 DUP3 MSTORE PUSH1 0x6 DUP2 MSTORE DUP3 DUP3 KECCAK256 DUP5 DUP4 MSTORE SWAP1 MSTORE SWAP1 DUP2 KECCAK256 DUP1 SLOAD DUP5 SWAP3 SWAP1 PUSH2 0xDA9 SWAP1 DUP5 SWAP1 PUSH2 0x1646 JUMP JUMPDEST SWAP1 SWAP2 SSTORE POP POP PUSH1 0x2 SLOAD PUSH1 0x40 MLOAD PUSH4 0x28512065 PUSH1 0xE2 SHL DUP2 MSTORE CALLER PUSH1 0x4 DUP3 ADD MSTORE PUSH1 0x24 DUP2 ADD DUP5 SWAP1 MSTORE PUSH1 0x1 PUSH1 0x1 PUSH1 0xA0 SHL SUB SWAP1 SWAP2 AND SWAP1 PUSH4 0xA1448194 SWAP1 PUSH1 0x44 ADD PUSH1 0x0 PUSH1 0x40 MLOAD DUP1 DUP4 SUB DUP2 PUSH1 0x0 DUP8 DUP1 EXTCODESIZE ISZERO DUP1 ISZERO PUSH2 0xDFA JUMPI PUSH1 0x0 DUP1 REVERT JUMPDEST POP GAS CALL ISZERO DUP1 ISZERO PUSH2 0xE0E JUMPI RETURNDATASIZE PUSH1 0x0 DUP1 RETURNDATACOPY RETURNDATASIZE PUSH1 0x0 REVERT JUMPDEST POP POP PUSH1 0x40 DUP1 MLOAD DUP6 DUP2 MSTORE TIMESTAMP PUSH1 0x20 DUP3 ADD MSTORE CALLER SWAP4 POP PUSH32 0x25B428DFDE728CCFADDAD7E29E4AC23C24ED7FD1A6E3E3F91894A9A073F5DFFF SWAP3 POP ADD PUSH1 0x40 MLOAD DUP1 SWAP2 SUB SWAP1 LOG2 POP POP PUSH1 0x1 DUP1 SSTORE POP POP JUMP JUMPDEST PUSH1 0x0 DUP1 MLOAD PUSH1 0x20 PUSH2 0x17CF DUP4 CODECOPY DUP2 MLOAD SWAP2 MSTORE PUSH2 0xE6E DUP2 PUSH2 0x124F JUMP JUMPDEST PUSH1 0x40 MLOAD PUSH4 0x31A9108F PUSH1 0xE1 SHL DUP2 MSTORE PUSH1 0x4 DUP2 ADD DUP4 SWAP1 MSTORE ADDRESS SWAP1 PUSH1 0x1 PUSH1 0x1 PUSH1 0xA0 SHL SUB DUP6 AND SWAP1 PUSH4 0x6352211E SWAP1 PUSH1 0x24 ADD PUSH1 0x20 PUSH1 0x40 MLOAD DUP1 DUP4 SUB DUP2 DUP7 GAS STATICCALL ISZERO DUP1 ISZERO PUSH2 0xEB5 JUMPI RETURNDATASIZE PUSH1 0x0 DUP1 RETURNDATACOPY RETURNDATASIZE PUSH1 0x0 REVERT JUMPDEST POP POP POP POP PUSH1 0x40 MLOAD RETURNDATASIZE PUSH1 0x1F NOT PUSH1 0x1F DUP3 ADD AND DUP3 ADD DUP1 PUSH1 0x40 MSTORE POP DUP2 ADD SWAP1 PUSH2 0xED9 SWAP2 SWAP1 PUSH2 0x165E JUMP JUMPDEST PUSH1 0x1 PUSH1 0x1 PUSH1 0xA0 SHL SUB AND EQ PUSH2 0xF3D JUMPI PUSH1 0x40 MLOAD PUSH3 0x461BCD PUSH1 0xE5 SHL DUP2 MSTORE PUSH1 0x20 PUSH1 0x4 DUP3 ADD MSTORE PUSH1 0x25 PUSH1 0x24 DUP3 ADD MSTORE PUSH32 0x5468697320746F6B656E4964206973206E6F74206F776E656420627920636F6E PUSH1 0x44 DUP3 ADD MSTORE PUSH5 0x1D1C9858DD PUSH1 0xDA SHL PUSH1 0x64 DUP3 ADD MSTORE PUSH1 0x84 ADD PUSH2 0x605 JUMP JUMPDEST PUSH1 0x40 MLOAD PUSH4 0x21421707 PUSH1 0xE1 SHL DUP2 MSTORE ADDRESS PUSH1 0x4 DUP3 ADD MSTORE PUSH1 0x1 PUSH1 0x1 PUSH1 0xA0 SHL SUB DUP6 DUP2 AND PUSH1 0x24 DUP4 ADD MSTORE PUSH1 0x44 DUP3 ADD DUP5 SWAP1 MSTORE DUP5 AND SWAP1 PUSH4 0x42842E0E SWAP1 PUSH1 0x64 ADD PUSH1 0x0 PUSH1 0x40 MLOAD DUP1 DUP4 SUB DUP2 PUSH1 0x0 DUP8 DUP1 EXTCODESIZE ISZERO DUP1 ISZERO PUSH2 0xF8D JUMPI PUSH1 0x0 DUP1 REVERT JUMPDEST POP GAS CALL ISZERO DUP1 ISZERO PUSH2 0xFA1 JUMPI RETURNDATASIZE PUSH1 0x0 DUP1 RETURNDATACOPY RETURNDATASIZE PUSH1 0x0 REVERT JUMPDEST POP POP PUSH1 0x40 DUP1 MLOAD PUSH1 0x1 PUSH1 0x1 PUSH1 0xA0 SHL SUB DUP1 DUP10 AND DUP3 MSTORE DUP8 AND PUSH1 0x20 DUP3 ADD MSTORE SWAP1 DUP2 ADD DUP6 SWAP1 MSTORE TIMESTAMP PUSH1 0x60 DUP3 ADD MSTORE PUSH32 0x127A8D3F57942833F6930572BCE52AD882683E36EEB5830D199D3FA4BFA9467 SWAP3 POP PUSH1 0x80 ADD SWAP1 POP PUSH2 0x791 JUMP JUMPDEST PUSH1 0x2 SLOAD PUSH1 0x40 DUP1 MLOAD PUSH4 0x18160DDD PUSH1 0xE0 SHL DUP2 MSTORE SWAP1 MLOAD PUSH1 0x0 SWAP3 PUSH1 0x1 PUSH1 0x1 PUSH1 0xA0 SHL SUB AND SWAP2 PUSH4 0x18160DDD SWAP2 PUSH1 0x4 DUP1 DUP4 ADD SWAP3 PUSH1 0x20 SWAP3 SWAP2 SWAP1 DUP3 SWAP1 SUB ADD DUP2 DUP7 GAS STATICCALL ISZERO DUP1 ISZERO PUSH2 0x666 JUMPI RETURNDATASIZE PUSH1 0x0 DUP1 RETURNDATACOPY RETURNDATASIZE PUSH1 0x0 REVERT JUMPDEST PUSH1 0x0 DUP3 DUP2 MSTORE PUSH1 0x20 DUP2 SWAP1 MSTORE PUSH1 0x40 SWAP1 KECCAK256 PUSH1 0x1 ADD SLOAD PUSH2 0x1059 DUP2 PUSH2 0x124F JUMP JUMPDEST PUSH2 0x594 DUP4 DUP4 PUSH2 0x12E0 JUMP JUMPDEST PUSH1 0x0 PUSH2 0x106E DUP2 PUSH2 0x124F JUMP JUMPDEST PUSH1 0x3 DUP1 SLOAD SWAP1 DUP4 SWAP1 SSTORE PUSH1 0x40 DUP1 MLOAD DUP3 DUP2 MSTORE PUSH1 0x20 DUP2 ADD DUP6 SWAP1 MSTORE PUSH32 0x521EC96875CA228CD2FC1DBD4C927A34328C9CE1A83BCB8C1F633F012C90D785 SWAP2 ADD PUSH2 0x7E4 JUMP JUMPDEST PUSH1 0x60 PUSH1 0x0 PUSH2 0x10BB DUP4 PUSH1 0x2 PUSH2 0x167B JUMP JUMPDEST PUSH2 0x10C6 SWAP1 PUSH1 0x2 PUSH2 0x1646 JUMP JUMPDEST PUSH8 0xFFFFFFFFFFFFFFFF DUP2 GT ISZERO PUSH2 0x10DE JUMPI PUSH2 0x10DE PUSH2 0x169A JUMP JUMPDEST PUSH1 0x40 MLOAD SWAP1 DUP1 DUP3 MSTORE DUP1 PUSH1 0x1F ADD PUSH1 0x1F NOT AND PUSH1 0x20 ADD DUP3 ADD PUSH1 0x40 MSTORE DUP1 ISZERO PUSH2 0x1108 JUMPI PUSH1 0x20 DUP3 ADD DUP2 DUP1 CALLDATASIZE DUP4 CALLDATACOPY ADD SWAP1 POP JUMPDEST POP SWAP1 POP PUSH1 0x3 PUSH1 0xFC SHL DUP2 PUSH1 0x0 DUP2 MLOAD DUP2 LT PUSH2 0x1123 JUMPI PUSH2 0x1123 PUSH2 0x16B0 JUMP JUMPDEST PUSH1 0x20 ADD ADD SWAP1 PUSH1 0x1 PUSH1 0x1 PUSH1 0xF8 SHL SUB NOT AND SWAP1 DUP2 PUSH1 0x0 BYTE SWAP1 MSTORE8 POP PUSH1 0xF PUSH1 0xFB SHL DUP2 PUSH1 0x1 DUP2 MLOAD DUP2 LT PUSH2 0x1152 JUMPI PUSH2 0x1152 PUSH2 0x16B0 JUMP JUMPDEST PUSH1 0x20 ADD ADD SWAP1 PUSH1 0x1 PUSH1 0x1 PUSH1 0xF8 SHL SUB NOT AND SWAP1 DUP2 PUSH1 0x0 BYTE SWAP1 MSTORE8 POP PUSH1 0x0 PUSH2 0x1176 DUP5 PUSH1 0x2 PUSH2 0x167B JUMP JUMPDEST PUSH2 0x1181 SWAP1 PUSH1 0x1 PUSH2 0x1646 JUMP JUMPDEST SWAP1 POP JUMPDEST PUSH1 0x1 DUP2 GT ISZERO PUSH2 0x11F9 JUMPI PUSH16 0x181899199A1A9B1B9C1CB0B131B232B3 PUSH1 0x81 SHL DUP6 PUSH1 0xF AND PUSH1 0x10 DUP2 LT PUSH2 0x11B5 JUMPI PUSH2 0x11B5 PUSH2 0x16B0 JUMP JUMPDEST BYTE PUSH1 0xF8 SHL DUP3 DUP3 DUP2 MLOAD DUP2 LT PUSH2 0x11CB JUMPI PUSH2 0x11CB PUSH2 0x16B0 JUMP JUMPDEST PUSH1 0x20 ADD ADD SWAP1 PUSH1 0x1 PUSH1 0x1 PUSH1 0xF8 SHL SUB NOT AND SWAP1 DUP2 PUSH1 0x0 BYTE SWAP1 MSTORE8 POP PUSH1 0x4 SWAP5 SWAP1 SWAP5 SHR SWAP4 PUSH2 0x11F2 DUP2 PUSH2 0x16C6 JUMP JUMPDEST SWAP1 POP PUSH2 0x1184 JUMP JUMPDEST POP DUP4 ISZERO PUSH2 0x1248 JUMPI PUSH1 0x40 MLOAD PUSH3 0x461BCD PUSH1 0xE5 SHL DUP2 MSTORE PUSH1 0x20 PUSH1 0x4 DUP3 ADD DUP2 SWAP1 MSTORE PUSH1 0x24 DUP3 ADD MSTORE PUSH32 0x537472696E67733A20686578206C656E67746820696E73756666696369656E74 PUSH1 0x44 DUP3 ADD MSTORE PUSH1 0x64 ADD PUSH2 0x605 JUMP JUMPDEST SWAP4 SWAP3 POP POP POP JUMP JUMPDEST PUSH2 0x1259 DUP2 CALLER PUSH2 0x135B JUMP JUMPDEST POP JUMP JUMPDEST PUSH2 0x1266 DUP3 DUP3 PUSH2 0x97F JUMP JUMPDEST PUSH2 0x618 JUMPI PUSH1 0x0 DUP3 DUP2 MSTORE PUSH1 0x20 DUP2 DUP2 MSTORE PUSH1 0x40 DUP1 DUP4 KECCAK256 PUSH1 0x1 PUSH1 0x1 PUSH1 0xA0 SHL SUB DUP6 AND DUP5 MSTORE SWAP1 SWAP2 MSTORE SWAP1 KECCAK256 DUP1 SLOAD PUSH1 0xFF NOT AND PUSH1 0x1 OR SWAP1 SSTORE PUSH2 0x129C CALLER SWAP1 JUMP JUMPDEST PUSH1 0x1 PUSH1 0x1 PUSH1 0xA0 SHL SUB AND DUP2 PUSH1 0x1 PUSH1 0x1 PUSH1 0xA0 SHL SUB AND DUP4 PUSH32 0x2F8788117E7EFF1D82E926EC794901D17C78024A50270940304540A733656F0D PUSH1 0x40 MLOAD PUSH1 0x40 MLOAD DUP1 SWAP2 SUB SWAP1 LOG4 POP POP JUMP JUMPDEST PUSH2 0x12EA DUP3 DUP3 PUSH2 0x97F JUMP JUMPDEST ISZERO PUSH2 0x618 JUMPI PUSH1 0x0 DUP3 DUP2 MSTORE PUSH1 0x20 DUP2 DUP2 MSTORE PUSH1 0x40 DUP1 DUP4 KECCAK256 PUSH1 0x1 PUSH1 0x1 PUSH1 0xA0 SHL SUB DUP6 AND DUP1 DUP6 MSTORE SWAP3 MSTORE DUP1 DUP4 KECCAK256 DUP1 SLOAD PUSH1 0xFF NOT AND SWAP1 SSTORE MLOAD CALLER SWAP3 DUP6 SWAP2 PUSH32 0xF6391F5C32D9C69D2A47EA670B442974B53935D1EDC7FD64EB21E047A839171B SWAP2 SWAP1 LOG4 POP POP JUMP JUMPDEST PUSH1 0x0 DUP3 PUSH2 0x1352 DUP6 DUP5 PUSH2 0x13BF JUMP JUMPDEST EQ SWAP5 SWAP4 POP POP POP POP JUMP JUMPDEST PUSH2 0x1365 DUP3 DUP3 PUSH2 0x97F JUMP JUMPDEST PUSH2 0x618 JUMPI PUSH2 0x137D DUP2 PUSH1 0x1 PUSH1 0x1 PUSH1 0xA0 SHL SUB AND PUSH1 0x14 PUSH2 0x10AC JUMP JUMPDEST PUSH2 0x1388 DUP4 PUSH1 0x20 PUSH2 0x10AC JUMP JUMPDEST PUSH1 0x40 MLOAD PUSH1 0x20 ADD PUSH2 0x1399 SWAP3 SWAP2 SWAP1 PUSH2 0x170D JUMP JUMPDEST PUSH1 0x40 DUP1 MLOAD PUSH1 0x1F NOT DUP2 DUP5 SUB ADD DUP2 MSTORE SWAP1 DUP3 SWAP1 MSTORE PUSH3 0x461BCD PUSH1 0xE5 SHL DUP3 MSTORE PUSH2 0x605 SWAP2 PUSH1 0x4 ADD PUSH2 0x1782 JUMP JUMPDEST PUSH1 0x0 DUP2 DUP2 JUMPDEST DUP5 MLOAD DUP2 LT ISZERO PUSH2 0x142B JUMPI PUSH1 0x0 DUP6 DUP3 DUP2 MLOAD DUP2 LT PUSH2 0x13E1 JUMPI PUSH2 0x13E1 PUSH2 0x16B0 JUMP JUMPDEST PUSH1 0x20 MUL PUSH1 0x20 ADD ADD MLOAD SWAP1 POP DUP1 DUP4 GT PUSH2 0x1407 JUMPI PUSH1 0x0 DUP4 DUP2 MSTORE PUSH1 0x20 DUP3 SWAP1 MSTORE PUSH1 0x40 SWAP1 KECCAK256 SWAP3 POP PUSH2 0x1418 JUMP JUMPDEST PUSH1 0x0 DUP2 DUP2 MSTORE PUSH1 0x20 DUP5 SWAP1 MSTORE PUSH1 0x40 SWAP1 KECCAK256 SWAP3 POP JUMPDEST POP DUP1 PUSH2 0x1423 DUP2 PUSH2 0x17B5 JUMP JUMPDEST SWAP2 POP POP PUSH2 0x13C4 JUMP JUMPDEST POP SWAP4 SWAP3 POP POP POP JUMP JUMPDEST PUSH1 0x0 PUSH1 0x20 DUP3 DUP5 SUB SLT ISZERO PUSH2 0x1445 JUMPI PUSH1 0x0 DUP1 REVERT JUMPDEST DUP2 CALLDATALOAD PUSH1 0x1 PUSH1 0x1 PUSH1 0xE0 SHL SUB NOT DUP2 AND DUP2 EQ PUSH2 0x1248 JUMPI PUSH1 0x0 DUP1 REVERT JUMPDEST PUSH1 0x0 PUSH1 0x20 DUP3 DUP5 SUB SLT ISZERO PUSH2 0x146F JUMPI PUSH1 0x0 DUP1 REVERT JUMPDEST POP CALLDATALOAD SWAP2 SWAP1 POP JUMP JUMPDEST PUSH1 0x1 PUSH1 0x1 PUSH1 0xA0 SHL SUB DUP2 AND DUP2 EQ PUSH2 0x1259 JUMPI PUSH1 0x0 DUP1 REVERT JUMPDEST PUSH1 0x0 DUP1 PUSH1 0x40 DUP4 DUP6 SUB SLT ISZERO PUSH2 0x149E JUMPI PUSH1 0x0 DUP1 REVERT JUMPDEST DUP3 CALLDATALOAD SWAP2 POP PUSH1 0x20 DUP4 ADD CALLDATALOAD PUSH2 0x14B0 DUP2 PUSH2 0x1476 JUMP JUMPDEST DUP1 SWAP2 POP POP SWAP3 POP SWAP3 SWAP1 POP JUMP JUMPDEST PUSH1 0x0 PUSH1 0x20 DUP3 DUP5 SUB SLT ISZERO PUSH2 0x14CD JUMPI PUSH1 0x0 DUP1 REVERT JUMPDEST DUP2 CALLDATALOAD PUSH2 0x1248 DUP2 PUSH2 0x1476 JUMP JUMPDEST PUSH1 0x0 DUP1 PUSH1 0x40 DUP4 DUP6 SUB SLT ISZERO PUSH2 0x14EB JUMPI PUSH1 0x0 DUP1 REVERT JUMPDEST DUP3 CALLDATALOAD PUSH2 0x14F6 DUP2 PUSH2 0x1476 JUMP JUMPDEST SWAP2 POP PUSH1 0x20 DUP4 ADD CALLDATALOAD PUSH2 0x14B0 DUP2 PUSH2 0x1476 JUMP JUMPDEST PUSH1 0x0 DUP1 PUSH1 0x0 DUP1 PUSH1 0x60 DUP6 DUP8 SUB SLT ISZERO PUSH2 0x151C JUMPI PUSH1 0x0 DUP1 REVERT JUMPDEST DUP5 CALLDATALOAD PUSH8 0xFFFFFFFFFFFFFFFF DUP1 DUP3 GT ISZERO PUSH2 0x1534 JUMPI PUSH1 0x0 DUP1 REVERT JUMPDEST DUP2 DUP8 ADD SWAP2 POP DUP8 PUSH1 0x1F DUP4 ADD SLT PUSH2 0x1548 JUMPI PUSH1 0x0 DUP1 REVERT JUMPDEST DUP2 CALLDATALOAD DUP2 DUP2 GT ISZERO PUSH2 0x1557 JUMPI PUSH1 0x0 DUP1 REVERT JUMPDEST DUP9 PUSH1 0x20 DUP3 PUSH1 0x5 SHL DUP6 ADD ADD GT ISZERO PUSH2 0x156C JUMPI PUSH1 0x0 DUP1 REVERT JUMPDEST PUSH1 0x20 SWAP3 DUP4 ADD SWAP10 SWAP1 SWAP9 POP SWAP2 DUP8 ADD CALLDATALOAD SWAP7 PUSH1 0x40 ADD CALLDATALOAD SWAP6 POP SWAP1 SWAP4 POP POP POP POP JUMP JUMPDEST PUSH1 0x0 DUP1 PUSH1 0x40 DUP4 DUP6 SUB SLT ISZERO PUSH2 0x159B JUMPI PUSH1 0x0 DUP1 REVERT JUMPDEST DUP3 CALLDATALOAD PUSH2 0x15A6 DUP2 PUSH2 0x1476 JUMP JUMPDEST SWAP5 PUSH1 0x20 SWAP4 SWAP1 SWAP4 ADD CALLDATALOAD SWAP4 POP POP POP JUMP JUMPDEST PUSH1 0x0 DUP1 PUSH1 0x0 PUSH1 0x60 DUP5 DUP7 SUB SLT ISZERO PUSH2 0x15C9 JUMPI PUSH1 0x0 DUP1 REVERT JUMPDEST DUP4 CALLDATALOAD PUSH2 0x15D4 DUP2 PUSH2 0x1476 JUMP JUMPDEST SWAP3 POP PUSH1 0x20 DUP5 ADD CALLDATALOAD PUSH2 0x15E4 DUP2 PUSH2 0x1476 JUMP JUMPDEST SWAP3 SWAP6 SWAP3 SWAP5 POP POP POP PUSH1 0x40 SWAP2 SWAP1 SWAP2 ADD CALLDATALOAD SWAP1 JUMP JUMPDEST PUSH1 0x0 PUSH1 0x20 DUP3 DUP5 SUB SLT ISZERO PUSH2 0x1607 JUMPI PUSH1 0x0 DUP1 REVERT JUMPDEST POP MLOAD SWAP2 SWAP1 POP JUMP JUMPDEST PUSH1 0x0 PUSH1 0x20 DUP3 DUP5 SUB SLT ISZERO PUSH2 0x1620 JUMPI PUSH1 0x0 DUP1 REVERT JUMPDEST DUP2 MLOAD DUP1 ISZERO ISZERO DUP2 EQ PUSH2 0x1248 JUMPI PUSH1 0x0 DUP1 REVERT JUMPDEST PUSH4 0x4E487B71 PUSH1 0xE0 SHL PUSH1 0x0 MSTORE PUSH1 0x11 PUSH1 0x4 MSTORE PUSH1 0x24 PUSH1 0x0 REVERT JUMPDEST PUSH1 0x0 DUP3 NOT DUP3 GT ISZERO PUSH2 0x1659 JUMPI PUSH2 0x1659 PUSH2 0x1630 JUMP JUMPDEST POP ADD SWAP1 JUMP JUMPDEST PUSH1 0x0 PUSH1 0x20 DUP3 DUP5 SUB SLT ISZERO PUSH2 0x1670 JUMPI PUSH1 0x0 DUP1 REVERT JUMPDEST DUP2 MLOAD PUSH2 0x1248 DUP2 PUSH2 0x1476 JUMP JUMPDEST PUSH1 0x0 DUP2 PUSH1 0x0 NOT DIV DUP4 GT DUP3 ISZERO ISZERO AND ISZERO PUSH2 0x1695 JUMPI PUSH2 0x1695 PUSH2 0x1630 JUMP JUMPDEST POP MUL SWAP1 JUMP JUMPDEST PUSH4 0x4E487B71 PUSH1 0xE0 SHL PUSH1 0x0 MSTORE PUSH1 0x41 PUSH1 0x4 MSTORE PUSH1 0x24 PUSH1 0x0 REVERT JUMPDEST PUSH4 0x4E487B71 PUSH1 0xE0 SHL PUSH1 0x0 MSTORE PUSH1 0x32 PUSH1 0x4 MSTORE PUSH1 0x24 PUSH1 0x0 REVERT JUMPDEST PUSH1 0x0 DUP2 PUSH2 0x16D5 JUMPI PUSH2 0x16D5 PUSH2 0x1630 JUMP JUMPDEST POP PUSH1 0x0 NOT ADD SWAP1 JUMP JUMPDEST PUSH1 0x0 JUMPDEST DUP4 DUP2 LT ISZERO PUSH2 0x16F8 JUMPI DUP2 DUP2 ADD MLOAD DUP4 DUP3 ADD MSTORE PUSH1 0x20 ADD PUSH2 0x16E0 JUMP JUMPDEST DUP4 DUP2 GT ISZERO PUSH2 0x1707 JUMPI PUSH1 0x0 DUP5 DUP5 ADD MSTORE JUMPDEST POP POP POP POP JUMP JUMPDEST PUSH32 0x416363657373436F6E74726F6C3A206163636F756E7420000000000000000000 DUP2 MSTORE PUSH1 0x0 DUP4 MLOAD PUSH2 0x1745 DUP2 PUSH1 0x17 DUP6 ADD PUSH1 0x20 DUP9 ADD PUSH2 0x16DD JUMP JUMPDEST PUSH17 0x1034B99036B4B9B9B4B733903937B6329 PUSH1 0x7D SHL PUSH1 0x17 SWAP2 DUP5 ADD SWAP2 DUP3 ADD MSTORE DUP4 MLOAD PUSH2 0x1776 DUP2 PUSH1 0x28 DUP5 ADD PUSH1 0x20 DUP9 ADD PUSH2 0x16DD JUMP JUMPDEST ADD PUSH1 0x28 ADD SWAP5 SWAP4 POP POP POP POP JUMP JUMPDEST PUSH1 0x20 DUP2 MSTORE PUSH1 0x0 DUP3 MLOAD DUP1 PUSH1 0x20 DUP5 ADD MSTORE PUSH2 0x17A1 DUP2 PUSH1 0x40 DUP6 ADD PUSH1 0x20 DUP8 ADD PUSH2 0x16DD JUMP JUMPDEST PUSH1 0x1F ADD PUSH1 0x1F NOT AND SWAP2 SWAP1 SWAP2 ADD PUSH1 0x40 ADD SWAP3 SWAP2 POP POP JUMP JUMPDEST PUSH1 0x0 PUSH1 0x1 DUP3 ADD PUSH2 0x17C7 JUMPI PUSH2 0x17C7 PUSH2 0x1630 JUMP JUMPDEST POP PUSH1 0x1 ADD SWAP1 JUMP INVALID 0x5D DUP15 SLT 0xC3 SWAP2 TIMESTAMP SELFDESTRUCT SWAP7 0xD7 SWAP14 DIV 0xD1 0x5D SHL LOG1 0x26 SWAP15 0x4F 0xE5 PUSH28 0xB9D26F43523628B34BA108ECA2646970667358221220B611BE412986 0xC 0x4F GAS 0xAE 0xEA LOG4 0xC7 SLOAD 0x1F PUSH7 0x61F15F34DF1564 SWAP8 0x2A MULMOD 0xBA 0x27 SHL 0xAD 0xF6 DUP11 PUSH5 0x736F6C6343 STOP ADDMOD 0xF STOP CALLER "
				},
				"gasEstimates": {
					"creation": {
						"codeDepositCost": "1236000",
						"executionCost": "infinite",
						"totalCost": "infinite"
					},
					"external": {
						"DEFAULT()": "241",
						"DEFAULT_ADMIN_ROLE()": "262",
						"NAGA_HOLDER_MINT_ROUND()": "285",
						"SPECIAL_MINT_ROUND()": "240",
						"WHITELIST_MINT_ROUND()": "261",
						"WITHDRAW_ROLE()": "infinite",
						"currentMintRound()": "2339",
						"getMaxSupply()": "infinite",
						"getRoleAdmin(bytes32)": "2515",
						"getTotalSupply()": "infinite",
						"grantRole(bytes32,address)": "infinite",
						"hasRole(bytes32,address)": "2761",
						"isUserMinted(address,bytes32)": "2741",
						"merkleRoot()": "2407",
						"mint(bytes32[],uint256,bytes32)": "infinite",
						"nagaKidContract()": "2404",
						"renounceRole(bytes32,address)": "29040",
						"revokeRole(bytes32,address)": "infinite",
						"setMerkleRoot(bytes32)": "infinite",
						"setNagaKidContract(address)": "infinite",
						"setRound(bytes32)": "infinite",
						"supportsInterface(bytes4)": "450",
						"userMintedAmount(address,bytes32)": "2719",
						"withdraw(address)": "infinite",
						"withdrawCurrency(address,address)": "infinite",
						"withdrawNFT(address,address,uint256)": "infinite"
					}
				},
				"methodIdentifiers": {
					"DEFAULT()": "0a25dea9",
					"DEFAULT_ADMIN_ROLE()": "a217fddf",
					"NAGA_HOLDER_MINT_ROUND()": "24c37a85",
					"SPECIAL_MINT_ROUND()": "5b94bbc3",
					"WHITELIST_MINT_ROUND()": "f500cdfc",
					"WITHDRAW_ROLE()": "e02023a1",
					"currentMintRound()": "ef5fe79f",
					"getMaxSupply()": "4c0f38c2",
					"getRoleAdmin(bytes32)": "248a9ca3",
					"getTotalSupply()": "c4e41b22",
					"grantRole(bytes32,address)": "2f2ff15d",
					"hasRole(bytes32,address)": "91d14854",
					"isUserMinted(address,bytes32)": "ffdc6129",
					"merkleRoot()": "2eb4a7ab",
					"mint(bytes32[],uint256,bytes32)": "9f930765",
					"nagaKidContract()": "df4e5881",
					"renounceRole(bytes32,address)": "36568abe",
					"revokeRole(bytes32,address)": "d547741f",
					"setMerkleRoot(bytes32)": "7cb64759",
					"setNagaKidContract(address)": "9e6c8855",
					"setRound(bytes32)": "ff05fe4a",
					"supportsInterface(bytes4)": "01ffc9a7",
					"userMintedAmount(address,bytes32)": "b5abafa1",
					"withdraw(address)": "51cff8d9",
					"withdrawCurrency(address,address)": "8407ecc4",
					"withdrawNFT(address,address,uint256)": "bff863ec"
				}
			},
			"storageLayout": {
				"storage": [
					{
						"astId": 24,
						"contract": "ERC721A/MintNagaKids.sol:MintNagaKids",
						"label": "_roles",
						"offset": 0,
						"slot": "0",
						"type": "t_mapping(t_bytes32,t_struct(RoleData)19_storage)"
					},
					{
						"astId": 403,
						"contract": "ERC721A/MintNagaKids.sol:MintNagaKids",
						"label": "_status",
						"offset": 0,
						"slot": "1",
						"type": "t_uint256"
					},
					{
						"astId": 1047,
						"contract": "ERC721A/MintNagaKids.sol:MintNagaKids",
						"label": "nagaKidContract",
						"offset": 0,
						"slot": "2",
						"type": "t_contract(INagaKid)1009"
					},
					{
						"astId": 1049,
						"contract": "ERC721A/MintNagaKids.sol:MintNagaKids",
						"label": "currentMintRound",
						"offset": 0,
						"slot": "3",
						"type": "t_bytes32"
					},
					{
						"astId": 1051,
						"contract": "ERC721A/MintNagaKids.sol:MintNagaKids",
						"label": "merkleRoot",
						"offset": 0,
						"slot": "4",
						"type": "t_bytes32"
					},
					{
						"astId": 1057,
						"contract": "ERC721A/MintNagaKids.sol:MintNagaKids",
						"label": "_isUserMinted",
						"offset": 0,
						"slot": "5",
						"type": "t_mapping(t_address,t_mapping(t_bytes32,t_bool))"
					},
					{
						"astId": 1063,
						"contract": "ERC721A/MintNagaKids.sol:MintNagaKids",
						"label": "_userMintedAmount",
						"offset": 0,
						"slot": "6",
						"type": "t_mapping(t_address,t_mapping(t_bytes32,t_uint256))"
					}
				],
				"types": {
					"t_address": {
						"encoding": "inplace",
						"label": "address",
						"numberOfBytes": "20"
					},
					"t_bool": {
						"encoding": "inplace",
						"label": "bool",
						"numberOfBytes": "1"
					},
					"t_bytes32": {
						"encoding": "inplace",
						"label": "bytes32",
						"numberOfBytes": "32"
					},
					"t_contract(INagaKid)1009": {
						"encoding": "inplace",
						"label": "contract INagaKid",
						"numberOfBytes": "20"
					},
					"t_mapping(t_address,t_bool)": {
						"encoding": "mapping",
						"key": "t_address",
						"label": "mapping(address => bool)",
						"numberOfBytes": "32",
						"value": "t_bool"
					},
					"t_mapping(t_address,t_mapping(t_bytes32,t_bool))": {
						"encoding": "mapping",
						"key": "t_address",
						"label": "mapping(address => mapping(bytes32 => bool))",
						"numberOfBytes": "32",
						"value": "t_mapping(t_bytes32,t_bool)"
					},
					"t_mapping(t_address,t_mapping(t_bytes32,t_uint256))": {
						"encoding": "mapping",
						"key": "t_address",
						"label": "mapping(address => mapping(bytes32 => uint256))",
						"numberOfBytes": "32",
						"value": "t_mapping(t_bytes32,t_uint256)"
					},
					"t_mapping(t_bytes32,t_bool)": {
						"encoding": "mapping",
						"key": "t_bytes32",
						"label": "mapping(bytes32 => bool)",
						"numberOfBytes": "32",
						"value": "t_bool"
					},
					"t_mapping(t_bytes32,t_struct(RoleData)19_storage)": {
						"encoding": "mapping",
						"key": "t_bytes32",
						"label": "mapping(bytes32 => struct AccessControl.RoleData)",
						"numberOfBytes": "32",
						"value": "t_struct(RoleData)19_storage"
					},
					"t_mapping(t_bytes32,t_uint256)": {
						"encoding": "mapping",
						"key": "t_bytes32",
						"label": "mapping(bytes32 => uint256)",
						"numberOfBytes": "32",
						"value": "t_uint256"
					},
					"t_struct(RoleData)19_storage": {
						"encoding": "inplace",
						"label": "struct AccessControl.RoleData",
						"members": [
							{
								"astId": 16,
								"contract": "ERC721A/MintNagaKids.sol:MintNagaKids",
								"label": "members",
								"offset": 0,
								"slot": "0",
								"type": "t_mapping(t_address,t_bool)"
							},
							{
								"astId": 18,
								"contract": "ERC721A/MintNagaKids.sol:MintNagaKids",
								"label": "adminRole",
								"offset": 0,
								"slot": "1",
								"type": "t_bytes32"
							}
						],
						"numberOfBytes": "64"
					},
					"t_uint256": {
						"encoding": "inplace",
						"label": "uint256",
						"numberOfBytes": "32"
					}
				}
			},
			"userdoc": {
				"kind": "user",
				"methods": {},
				"version": 1
			}
		}
	}
}