{
	"ERC721A/NagaKidsERC721A.sol": {
		"NagaKids": {
			"abi": [
				{
					"inputs": [
						{
							"internalType": "string",
							"name": "_initBaseURI",
							"type": "string"
						},
						{
							"internalType": "address",
							"name": "_preMintAddress",
							"type": "address"
						}
					],
					"stateMutability": "nonpayable",
					"type": "constructor"
				},
				{
					"inputs": [],
					"name": "ApprovalCallerNotOwnerNorApproved",
					"type": "error"
				},
				{
					"inputs": [],
					"name": "ApprovalQueryForNonexistentToken",
					"type": "error"
				},
				{
					"inputs": [],
					"name": "ApproveToCaller",
					"type": "error"
				},
				{
					"inputs": [],
					"name": "BalanceQueryForZeroAddress",
					"type": "error"
				},
				{
					"inputs": [],
					"name": "MintERC2309QuantityExceedsLimit",
					"type": "error"
				},
				{
					"inputs": [],
					"name": "MintToZeroAddress",
					"type": "error"
				},
				{
					"inputs": [],
					"name": "MintZeroQuantity",
					"type": "error"
				},
				{
					"inputs": [],
					"name": "OwnerQueryForNonexistentToken",
					"type": "error"
				},
				{
					"inputs": [],
					"name": "OwnershipNotInitializedForExtraData",
					"type": "error"
				},
				{
					"inputs": [],
					"name": "TransferCallerNotOwnerNorApproved",
					"type": "error"
				},
				{
					"inputs": [],
					"name": "TransferFromIncorrectOwner",
					"type": "error"
				},
				{
					"inputs": [],
					"name": "TransferToNonERC721ReceiverImplementer",
					"type": "error"
				},
				{
					"inputs": [],
					"name": "TransferToZeroAddress",
					"type": "error"
				},
				{
					"inputs": [],
					"name": "URIQueryForNonexistentToken",
					"type": "error"
				},
				{
					"anonymous": false,
					"inputs": [
						{
							"indexed": true,
							"internalType": "address",
							"name": "owner",
							"type": "address"
						},
						{
							"indexed": true,
							"internalType": "address",
							"name": "approved",
							"type": "address"
						},
						{
							"indexed": true,
							"internalType": "uint256",
							"name": "tokenId",
							"type": "uint256"
						}
					],
					"name": "Approval",
					"type": "event"
				},
				{
					"anonymous": false,
					"inputs": [
						{
							"indexed": true,
							"internalType": "address",
							"name": "owner",
							"type": "address"
						},
						{
							"indexed": true,
							"internalType": "address",
							"name": "operator",
							"type": "address"
						},
						{
							"indexed": false,
							"internalType": "bool",
							"name": "approved",
							"type": "bool"
						}
					],
					"name": "ApprovalForAll",
					"type": "event"
				},
				{
					"anonymous": false,
					"inputs": [
						{
							"indexed": true,
							"internalType": "uint256",
							"name": "fromTokenId",
							"type": "uint256"
						},
						{
							"indexed": false,
							"internalType": "uint256",
							"name": "toTokenId",
							"type": "uint256"
						},
						{
							"indexed": true,
							"internalType": "address",
							"name": "from",
							"type": "address"
						},
						{
							"indexed": true,
							"internalType": "address",
							"name": "to",
							"type": "address"
						}
					],
					"name": "ConsecutiveTransfer",
					"type": "event"
				},
				{
					"anonymous": false,
					"inputs": [
						{
							"indexed": true,
							"internalType": "address",
							"name": "previousOwner",
							"type": "address"
						},
						{
							"indexed": true,
							"internalType": "address",
							"name": "newOwner",
							"type": "address"
						}
					],
					"name": "OwnershipTransferred",
					"type": "event"
				},
				{
					"anonymous": false,
					"inputs": [
						{
							"indexed": true,
							"internalType": "address",
							"name": "caller",
							"type": "address"
						},
						{
							"indexed": true,
							"internalType": "address",
							"name": "minter",
							"type": "address"
						},
						{
							"indexed": false,
							"internalType": "bool",
							"name": "allowed",
							"type": "bool"
						}
					],
					"name": "SetAllowMinter",
					"type": "event"
				},
				{
					"anonymous": false,
					"inputs": [
						{
							"indexed": true,
							"internalType": "address",
							"name": "from",
							"type": "address"
						},
						{
							"indexed": true,
							"internalType": "address",
							"name": "to",
							"type": "address"
						},
						{
							"indexed": true,
							"internalType": "uint256",
							"name": "tokenId",
							"type": "uint256"
						}
					],
					"name": "Transfer",
					"type": "event"
				},
				{
					"inputs": [
						{
							"internalType": "address",
							"name": "to",
							"type": "address"
						},
						{
							"internalType": "uint256",
							"name": "tokenId",
							"type": "uint256"
						}
					],
					"name": "approve",
					"outputs": [],
					"stateMutability": "nonpayable",
					"type": "function"
				},
				{
					"inputs": [
						{
							"internalType": "address",
							"name": "owner",
							"type": "address"
						}
					],
					"name": "balanceOf",
					"outputs": [
						{
							"internalType": "uint256",
							"name": "",
							"type": "uint256"
						}
					],
					"stateMutability": "view",
					"type": "function"
				},
				{
					"inputs": [],
					"name": "baseExtension",
					"outputs": [
						{
							"internalType": "string",
							"name": "",
							"type": "string"
						}
					],
					"stateMutability": "view",
					"type": "function"
				},
				{
					"inputs": [
						{
							"internalType": "uint256",
							"name": "tokenId",
							"type": "uint256"
						}
					],
					"name": "burn",
					"outputs": [],
					"stateMutability": "nonpayable",
					"type": "function"
				},
				{
					"inputs": [
						{
							"internalType": "uint256",
							"name": "tokenId",
							"type": "uint256"
						}
					],
					"name": "getApproved",
					"outputs": [
						{
							"internalType": "address",
							"name": "",
							"type": "address"
						}
					],
					"stateMutability": "view",
					"type": "function"
				},
				{
					"inputs": [
						{
							"internalType": "address",
							"name": "owner",
							"type": "address"
						},
						{
							"internalType": "address",
							"name": "operator",
							"type": "address"
						}
					],
					"name": "isApprovedForAll",
					"outputs": [
						{
							"internalType": "bool",
							"name": "",
							"type": "bool"
						}
					],
					"stateMutability": "view",
					"type": "function"
				},
				{
					"inputs": [
						{
							"internalType": "address",
							"name": "minter",
							"type": "address"
						}
					],
					"name": "isMinter",
					"outputs": [
						{
							"internalType": "bool",
							"name": "",
							"type": "bool"
						}
					],
					"stateMutability": "view",
					"type": "function"
				},
				{
					"inputs": [],
					"name": "maxSupply",
					"outputs": [
						{
							"internalType": "uint256",
							"name": "",
							"type": "uint256"
						}
					],
					"stateMutability": "view",
					"type": "function"
				},
				{
					"inputs": [],
					"name": "name",
					"outputs": [
						{
							"internalType": "string",
							"name": "",
							"type": "string"
						}
					],
					"stateMutability": "view",
					"type": "function"
				},
				{
					"inputs": [],
					"name": "owner",
					"outputs": [
						{
							"internalType": "address",
							"name": "",
							"type": "address"
						}
					],
					"stateMutability": "view",
					"type": "function"
				},
				{
					"inputs": [
						{
							"internalType": "uint256",
							"name": "tokenId",
							"type": "uint256"
						}
					],
					"name": "ownerOf",
					"outputs": [
						{
							"internalType": "address",
							"name": "",
							"type": "address"
						}
					],
					"stateMutability": "view",
					"type": "function"
				},
				{
					"inputs": [],
					"name": "renounceOwnership",
					"outputs": [],
					"stateMutability": "nonpayable",
					"type": "function"
				},
				{
					"inputs": [
						{
							"internalType": "address",
							"name": "to",
							"type": "address"
						},
						{
							"internalType": "uint256",
							"name": "amount",
							"type": "uint256"
						}
					],
					"name": "safeMint",
					"outputs": [],
					"stateMutability": "nonpayable",
					"type": "function"
				},
				{
					"inputs": [
						{
							"internalType": "address",
							"name": "from",
							"type": "address"
						},
						{
							"internalType": "address",
							"name": "to",
							"type": "address"
						},
						{
							"internalType": "uint256",
							"name": "tokenId",
							"type": "uint256"
						}
					],
					"name": "safeTransferFrom",
					"outputs": [],
					"stateMutability": "nonpayable",
					"type": "function"
				},
				{
					"inputs": [
						{
							"internalType": "address",
							"name": "from",
							"type": "address"
						},
						{
							"internalType": "address",
							"name": "to",
							"type": "address"
						},
						{
							"internalType": "uint256",
							"name": "tokenId",
							"type": "uint256"
						},
						{
							"internalType": "bytes",
							"name": "_data",
							"type": "bytes"
						}
					],
					"name": "safeTransferFrom",
					"outputs": [],
					"stateMutability": "nonpayable",
					"type": "function"
				},
				{
					"inputs": [
						{
							"internalType": "address",
							"name": "minter",
							"type": "address"
						},
						{
							"internalType": "bool",
							"name": "allowed",
							"type": "bool"
						}
					],
					"name": "setAllowMinter",
					"outputs": [],
					"stateMutability": "nonpayable",
					"type": "function"
				},
				{
					"inputs": [
						{
							"internalType": "address",
							"name": "operator",
							"type": "address"
						},
						{
							"internalType": "bool",
							"name": "approved",
							"type": "bool"
						}
					],
					"name": "setApprovalForAll",
					"outputs": [],
					"stateMutability": "nonpayable",
					"type": "function"
				},
				{
					"inputs": [
						{
							"internalType": "string",
							"name": "newBaseURI",
							"type": "string"
						}
					],
					"name": "setBaseURI",
					"outputs": [],
					"stateMutability": "nonpayable",
					"type": "function"
				},
				{
					"inputs": [
						{
							"internalType": "bytes4",
							"name": "interfaceId",
							"type": "bytes4"
						}
					],
					"name": "supportsInterface",
					"outputs": [
						{
							"internalType": "bool",
							"name": "",
							"type": "bool"
						}
					],
					"stateMutability": "view",
					"type": "function"
				},
				{
					"inputs": [],
					"name": "symbol",
					"outputs": [
						{
							"internalType": "string",
							"name": "",
							"type": "string"
						}
					],
					"stateMutability": "view",
					"type": "function"
				},
				{
					"inputs": [
						{
							"internalType": "uint256",
							"name": "tokenId",
							"type": "uint256"
						}
					],
					"name": "tokenURI",
					"outputs": [
						{
							"internalType": "string",
							"name": "",
							"type": "string"
						}
					],
					"stateMutability": "view",
					"type": "function"
				},
				{
					"inputs": [],
					"name": "totalSupply",
					"outputs": [
						{
							"internalType": "uint256",
							"name": "",
							"type": "uint256"
						}
					],
					"stateMutability": "view",
					"type": "function"
				},
				{
					"inputs": [
						{
							"internalType": "address",
							"name": "from",
							"type": "address"
						},
						{
							"internalType": "address",
							"name": "to",
							"type": "address"
						},
						{
							"internalType": "uint256",
							"name": "tokenId",
							"type": "uint256"
						}
					],
					"name": "transferFrom",
					"outputs": [],
					"stateMutability": "nonpayable",
					"type": "function"
				},
				{
					"inputs": [
						{
							"internalType": "address",
							"name": "newOwner",
							"type": "address"
						}
					],
					"name": "transferOwnership",
					"outputs": [],
					"stateMutability": "nonpayable",
					"type": "function"
				},
				{
					"inputs": [
						{
							"internalType": "address",
							"name": "owner",
							"type": "address"
						}
					],
					"name": "walletOfOwner",
					"outputs": [
						{
							"internalType": "uint256[]",
							"name": "",
							"type": "uint256[]"
						}
					],
					"stateMutability": "view",
					"type": "function"
				}
			],
			"devdoc": {
				"kind": "dev",
				"methods": {
					"approve(address,uint256)": {
						"details": "See {IERC721-approve}."
					},
					"balanceOf(address)": {
						"details": "See {IERC721-balanceOf}."
					},
					"burn(uint256)": {
						"details": "Burns `tokenId`. See {ERC721A-_burn}. Requirements: - The caller must own `tokenId` or be an approved operator."
					},
					"getApproved(uint256)": {
						"details": "See {IERC721-getApproved}."
					},
					"isApprovedForAll(address,address)": {
						"details": "See {IERC721-isApprovedForAll}."
					},
					"name()": {
						"details": "See {IERC721Metadata-name}."
					},
					"owner()": {
						"details": "Returns the address of the current owner."
					},
					"ownerOf(uint256)": {
						"details": "See {IERC721-ownerOf}."
					},
					"renounceOwnership()": {
						"details": "Leaves the contract without owner. It will not be possible to call `onlyOwner` functions anymore. Can only be called by the current owner. NOTE: Renouncing ownership will leave the contract without an owner, thereby removing any functionality that is only available to the owner."
					},
					"safeTransferFrom(address,address,uint256)": {
						"details": "See {IERC721-safeTransferFrom}."
					},
					"safeTransferFrom(address,address,uint256,bytes)": {
						"details": "See {IERC721-safeTransferFrom}."
					},
					"setApprovalForAll(address,bool)": {
						"details": "See {IERC721-setApprovalForAll}."
					},
					"symbol()": {
						"details": "See {IERC721Metadata-symbol}."
					},
					"totalSupply()": {
						"details": "Returns the total number of tokens in existence. Burned tokens will reduce the count. To get the total number of tokens minted, please see `_totalMinted`."
					},
					"transferFrom(address,address,uint256)": {
						"details": "Transfers `tokenId` from `from` to `to`. Requirements: - `to` cannot be the zero address. - `tokenId` token must be owned by `from`. Emits a {Transfer} event."
					},
					"transferOwnership(address)": {
						"details": "Transfers ownership of the contract to a new account (`newOwner`). Can only be called by the current owner."
					}
				},
				"version": 1
			},
			"evm": {
				"assembly": "    /* \"ERC721A/NagaKidsERC721A.sol\":446:483  string public baseExtension = \".json\" */\n  0xc0\n    /* \"ERC721A/NagaKidsERC721A.sol\":271:3626  contract NagaKids is ERC721A, ERC721ABurnable, Ownable {... */\n  0x40\n    /* \"ERC721A/NagaKidsERC721A.sol\":446:483  string public baseExtension = \".json\" */\n  mstore\n  0x05\n    /* \"ERC721A/NagaKidsERC721A.sol\":271:3626  contract NagaKids is ERC721A, ERC721ABurnable, Ownable {... */\n  0x80\n    /* \"ERC721A/NagaKidsERC721A.sol\":446:483  string public baseExtension = \".json\" */\n  swap1\n  dup2\n  mstore\n  mstore(0xa0, shl(0xd9, 0x173539b7b7))\n  0x0b\n  swap1\n  tag_1\n  swap1\n  dup3\n  tag_2\n  jump\t// in\ntag_1:\n  pop\n    /* \"ERC721A/NagaKidsERC721A.sol\":751:1085  constructor(... */\n  callvalue\n  dup1\n  iszero\n  tag_3\n  jumpi\n  0x00\n  dup1\n  revert\ntag_3:\n  pop\n  mload(0x40)\n  sub(codesize, bytecodeSize)\n  dup1\n  bytecodeSize\n  dup4\n  codecopy\n  dup2\n  add\n  0x40\n  dup2\n  swap1\n  mstore\n  tag_4\n  swap2\n  tag_5\n  jump\t// in\ntag_4:\n    /* \"erc721a/contracts/ERC721A.sol\":3986:4140  constructor(string memory name_, string memory symbol_) {... */\n  mload(0x40)\n  dup1\n  0x40\n  add\n  0x40\n  mstore\n  dup1\n  0x09\n  dup2\n  mstore\n  0x20\n  add\n  shl(0xb8, 0x4e414741204b494453)\n  dup2\n  mstore\n  pop\n  mload(0x40)\n  dup1\n  0x40\n  add\n  0x40\n  mstore\n  dup1\n  0x04\n  dup2\n  mstore\n  0x20\n  add\n  shl(0xe0, 0x4e41474b)\n  dup2\n  mstore\n  pop\n    /* \"erc721a/contracts/ERC721A.sol\":4060:4065  name_ */\n  dup2\n    /* \"erc721a/contracts/ERC721A.sol\":4052:4057  _name */\n  0x02\n    /* \"erc721a/contracts/ERC721A.sol\":4052:4065  _name = name_ */\n  swap1\n  dup2\n  tag_10\n  swap2\n  swap1\n  tag_2\n  jump\t// in\ntag_10:\n  pop\n    /* \"erc721a/contracts/ERC721A.sol\":4075:4082  _symbol */\n  0x03\n    /* \"erc721a/contracts/ERC721A.sol\":4075:4092  _symbol = symbol_ */\n  tag_11\n    /* \"erc721a/contracts/ERC721A.sol\":4085:4092  symbol_ */\n  dup3\n    /* \"erc721a/contracts/ERC721A.sol\":4075:4082  _symbol */\n  dup3\n    /* \"erc721a/contracts/ERC721A.sol\":4075:4092  _symbol = symbol_ */\n  tag_2\n  jump\t// in\ntag_11:\n  pop\n  pop\n    /* \"ERC721A/NagaKidsERC721A.sol\":3612:3613  1 */\n  0x01\n    /* \"erc721a/contracts/ERC721A.sol\":4102:4115  _currentIndex */\n  0x00\n    /* \"erc721a/contracts/ERC721A.sol\":4102:4133  _currentIndex = _startTokenId() */\n  sstore\n  pop\n    /* \"@openzeppelin/contracts/access/Ownable.sol\":921:953  _transferOwnership(_msgSender()) */\n  tag_15\n    /* \"@openzeppelin/contracts/utils/Context.sol\":719:729  msg.sender */\n  caller\n    /* \"@openzeppelin/contracts/access/Ownable.sol\":921:939  _transferOwnership */\n  tag_18\n    /* \"@openzeppelin/contracts/access/Ownable.sol\":921:953  _transferOwnership(_msgSender()) */\n  jump\t// in\ntag_15:\n    /* \"ERC721A/NagaKidsERC721A.sol\":883:907  setBaseURI(_initBaseURI) */\n  tag_20\n    /* \"ERC721A/NagaKidsERC721A.sol\":894:906  _initBaseURI */\n  dup3\n    /* \"ERC721A/NagaKidsERC721A.sol\":883:893  setBaseURI */\n  tag_21\n    /* \"ERC721A/NagaKidsERC721A.sol\":883:907  setBaseURI(_initBaseURI) */\n  jump\t// in\ntag_20:\n    /* \"ERC721A/NagaKidsERC721A.sol\":955:986  setAllowMinter(msg.sender,true) */\n  tag_22\n    /* \"ERC721A/NagaKidsERC721A.sol\":970:980  msg.sender */\n  caller\n    /* \"ERC721A/NagaKidsERC721A.sol\":981:985  true */\n  0x01\n    /* \"ERC721A/NagaKidsERC721A.sol\":955:969  setAllowMinter */\n  tag_23\n    /* \"ERC721A/NagaKidsERC721A.sol\":955:986  setAllowMinter(msg.sender,true) */\n  jump\t// in\ntag_22:\n    /* \"ERC721A/NagaKidsERC721A.sol\":1048:1077  safeMint(_preMintAddress,111) */\n  tag_24\n    /* \"ERC721A/NagaKidsERC721A.sol\":1057:1072  _preMintAddress */\n  dup2\n    /* \"ERC721A/NagaKidsERC721A.sol\":1073:1076  111 */\n  0x6f\n    /* \"ERC721A/NagaKidsERC721A.sol\":1048:1056  safeMint */\n  tag_25\n    /* \"ERC721A/NagaKidsERC721A.sol\":1048:1077  safeMint(_preMintAddress,111) */\n  jump\t// in\ntag_24:\n    /* \"ERC721A/NagaKidsERC721A.sol\":751:1085  constructor(... */\n  pop\n  pop\n    /* \"ERC721A/NagaKidsERC721A.sol\":271:3626  contract NagaKids is ERC721A, ERC721ABurnable, Ownable {... */\n  jump(tag_133)\n    /* \"@openzeppelin/contracts/access/Ownable.sol\":2270:2457  function _transferOwnership(address newOwner) internal virtual {... */\ntag_18:\n    /* \"@openzeppelin/contracts/access/Ownable.sol\":2362:2368  _owner */\n  0x08\n  dup1\n  sload\n  sub(shl(0xa0, 0x01), 0x01)\n    /* \"@openzeppelin/contracts/access/Ownable.sol\":2378:2395  _owner = newOwner */\n  dup4\n  dup2\n  and\n  not(sub(shl(0xa0, 0x01), 0x01))\n  dup4\n  and\n  dup2\n  or\n  swap1\n  swap4\n  sstore\n    /* \"@openzeppelin/contracts/access/Ownable.sol\":2410:2450  OwnershipTransferred(oldOwner, newOwner) */\n  mload(0x40)\n    /* \"@openzeppelin/contracts/access/Ownable.sol\":2362:2368  _owner */\n  swap2\n  and\n  swap2\n    /* \"@openzeppelin/contracts/access/Ownable.sol\":2378:2395  _owner = newOwner */\n  swap1\n    /* \"@openzeppelin/contracts/access/Ownable.sol\":2362:2368  _owner */\n  dup3\n  swap1\n    /* \"@openzeppelin/contracts/access/Ownable.sol\":2410:2450  OwnershipTransferred(oldOwner, newOwner) */\n  0x8be0079c531659141344cd1fd0a4f28419497f9722a3daafe3b4186f6b6457e0\n  swap1\n    /* \"@openzeppelin/contracts/access/Ownable.sol\":2343:2359  address oldOwner */\n  0x00\n  swap1\n    /* \"@openzeppelin/contracts/access/Ownable.sol\":2410:2450  OwnershipTransferred(oldOwner, newOwner) */\n  log3\n    /* \"@openzeppelin/contracts/access/Ownable.sol\":2333:2457  {... */\n  pop\n    /* \"@openzeppelin/contracts/access/Ownable.sol\":2270:2457  function _transferOwnership(address newOwner) internal virtual {... */\n  pop\n  jump\t// out\n    /* \"ERC721A/NagaKidsERC721A.sol\":1388:1490  function setBaseURI(string memory newBaseURI) public onlyOwner {... */\ntag_21:\n    /* \"@openzeppelin/contracts/access/Ownable.sol\":1108:1114  _owner */\n  and(sub(shl(0xa0, 0x01), 0x01), sload(0x08))\n    /* \"@openzeppelin/contracts/utils/Context.sol\":719:729  msg.sender */\n  caller\n    /* \"@openzeppelin/contracts/access/Ownable.sol\":1248:1271  owner() == _msgSender() */\n  eq\n    /* \"@openzeppelin/contracts/access/Ownable.sol\":1240:1308  require(owner() == _msgSender(), \"Ownable: caller is not the owner\") */\n  tag_34\n  jumpi\n  mload(0x40)\n  shl(0xe5, 0x461bcd)\n  dup2\n  mstore\n    /* \"#utility.yul\":4364:4366   */\n  0x20\n    /* \"@openzeppelin/contracts/access/Ownable.sol\":1240:1308  require(owner() == _msgSender(), \"Ownable: caller is not the owner\") */\n  0x04\n  dup3\n  add\n    /* \"#utility.yul\":4346:4367   */\n  dup2\n  swap1\n  mstore\n    /* \"#utility.yul\":4383:4401   */\n  0x24\n  dup3\n  add\n    /* \"#utility.yul\":4376:4406   */\n  mstore\n  0x00\n  dup1\n  mload\n  0x20\n  data_9924ebdf1add33d25d4ef888e16131f0a5687b0580a36c21b5c301a6c462effe\n  dup4\n  codecopy\n  dup2\n  mload\n  swap2\n  mstore\n    /* \"#utility.yul\":4422:4440   */\n  0x44\n  dup3\n  add\n    /* \"#utility.yul\":4415:4477   */\n  mstore\n    /* \"#utility.yul\":4494:4512   */\n  0x64\n  add\n    /* \"@openzeppelin/contracts/access/Ownable.sol\":1240:1308  require(owner() == _msgSender(), \"Ownable: caller is not the owner\") */\ntag_35:\n  mload(0x40)\n  dup1\n  swap2\n  sub\n  swap1\n  revert\ntag_34:\n    /* \"ERC721A/NagaKidsERC721A.sol\":1462:1469  baseURI */\n  0x0a\n    /* \"ERC721A/NagaKidsERC721A.sol\":1462:1482  baseURI = newBaseURI */\n  tag_38\n    /* \"ERC721A/NagaKidsERC721A.sol\":1472:1482  newBaseURI */\n  dup3\n    /* \"ERC721A/NagaKidsERC721A.sol\":1462:1469  baseURI */\n  dup3\n    /* \"ERC721A/NagaKidsERC721A.sol\":1462:1482  baseURI = newBaseURI */\n  tag_2\n  jump\t// in\ntag_38:\n  pop\n    /* \"ERC721A/NagaKidsERC721A.sol\":1388:1490  function setBaseURI(string memory newBaseURI) public onlyOwner {... */\n  pop\n  jump\t// out\n    /* \"ERC721A/NagaKidsERC721A.sol\":1093:1272  function setAllowMinter(address minter, bool allowed) public onlyOwner {... */\ntag_23:\n    /* \"@openzeppelin/contracts/access/Ownable.sol\":1108:1114  _owner */\n  and(sub(shl(0xa0, 0x01), 0x01), sload(0x08))\n    /* \"@openzeppelin/contracts/utils/Context.sol\":719:729  msg.sender */\n  caller\n    /* \"@openzeppelin/contracts/access/Ownable.sol\":1248:1271  owner() == _msgSender() */\n  eq\n    /* \"@openzeppelin/contracts/access/Ownable.sol\":1240:1308  require(owner() == _msgSender(), \"Ownable: caller is not the owner\") */\n  tag_42\n  jumpi\n  mload(0x40)\n  shl(0xe5, 0x461bcd)\n  dup2\n  mstore\n    /* \"#utility.yul\":4364:4366   */\n  0x20\n    /* \"@openzeppelin/contracts/access/Ownable.sol\":1240:1308  require(owner() == _msgSender(), \"Ownable: caller is not the owner\") */\n  0x04\n  dup3\n  add\n    /* \"#utility.yul\":4346:4367   */\n  dup2\n  swap1\n  mstore\n    /* \"#utility.yul\":4383:4401   */\n  0x24\n  dup3\n  add\n    /* \"#utility.yul\":4376:4406   */\n  mstore\n  0x00\n  dup1\n  mload\n  0x20\n  data_9924ebdf1add33d25d4ef888e16131f0a5687b0580a36c21b5c301a6c462effe\n  dup4\n  codecopy\n  dup2\n  mload\n  swap2\n  mstore\n    /* \"#utility.yul\":4422:4440   */\n  0x44\n  dup3\n  add\n    /* \"#utility.yul\":4415:4477   */\n  mstore\n    /* \"#utility.yul\":4494:4512   */\n  0x64\n  add\n    /* \"@openzeppelin/contracts/access/Ownable.sol\":1240:1308  require(owner() == _msgSender(), \"Ownable: caller is not the owner\") */\n  tag_35\n    /* \"#utility.yul\":4162:4518   */\n  jump\n    /* \"@openzeppelin/contracts/access/Ownable.sol\":1240:1308  require(owner() == _msgSender(), \"Ownable: caller is not the owner\") */\ntag_42:\n  sub(shl(0xa0, 0x01), 0x01)\n    /* \"ERC721A/NagaKidsERC721A.sol\":1175:1195  _allowMinter[minter] */\n  dup3\n  and\n  0x00\n  dup2\n  dup2\n  mstore\n    /* \"ERC721A/NagaKidsERC721A.sol\":1175:1187  _allowMinter */\n  0x09\n    /* \"ERC721A/NagaKidsERC721A.sol\":1175:1195  _allowMinter[minter] */\n  0x20\n  swap1\n  dup2\n  mstore\n  0x40\n  swap2\n  dup3\n  swap1\n  keccak256\n    /* \"ERC721A/NagaKidsERC721A.sol\":1175:1205  _allowMinter[minter] = allowed */\n  dup1\n  sload\n  not(0xff)\n  and\n  dup6\n  iszero\n  iszero\n  swap1\n  dup2\n  or\n  swap1\n  swap2\n  sstore\n    /* \"ERC721A/NagaKidsERC721A.sol\":1221:1264  SetAllowMinter(msg.sender, minter, allowed) */\n  swap2\n  mload\n    /* \"#utility.yul\":4663:4704   */\n  swap2\n  dup3\n  mstore\n    /* \"ERC721A/NagaKidsERC721A.sol\":1236:1246  msg.sender */\n  caller\n  swap2\n    /* \"ERC721A/NagaKidsERC721A.sol\":1221:1264  SetAllowMinter(msg.sender, minter, allowed) */\n  0x3c49a0d2dcd603245c20eb1985825d770748295cd570de6d24861080451bbd41\n  swap2\n    /* \"#utility.yul\":4636:4654   */\n  add\n    /* \"ERC721A/NagaKidsERC721A.sol\":1221:1264  SetAllowMinter(msg.sender, minter, allowed) */\n  mload(0x40)\n  dup1\n  swap2\n  sub\n  swap1\n  log3\n    /* \"ERC721A/NagaKidsERC721A.sol\":1093:1272  function setAllowMinter(address minter, bool allowed) public onlyOwner {... */\n  pop\n  pop\n  jump\t// out\n    /* \"ERC721A/NagaKidsERC721A.sol\":1951:2177  function safeMint(address to,uint amount) public Minter(msg.sender) {... */\ntag_25:\n    /* \"ERC721A/NagaKidsERC721A.sol\":2007:2017  msg.sender */\n  caller\n    /* \"ERC721A/NagaKidsERC721A.sol\":2239:2243  bool */\n  0x00\n    /* \"ERC721A/NagaKidsERC721A.sol\":2263:2283  _allowMinter[minter] */\n  dup2\n  dup2\n  mstore\n    /* \"ERC721A/NagaKidsERC721A.sol\":2263:2275  _allowMinter */\n  0x09\n    /* \"ERC721A/NagaKidsERC721A.sol\":2263:2283  _allowMinter[minter] */\n  0x20\n  mstore\n  0x40\n  swap1\n  keccak256\n  sload\n  0xff\n  and\n    /* \"ERC721A/NagaKidsERC721A.sol\":674:723  require(isMinter(_minter),\"You are not a minter\") */\n  tag_50\n  jumpi\n  mload(0x40)\n  shl(0xe5, 0x461bcd)\n  dup2\n  mstore\n    /* \"#utility.yul\":4917:4919   */\n  0x20\n    /* \"ERC721A/NagaKidsERC721A.sol\":674:723  require(isMinter(_minter),\"You are not a minter\") */\n  0x04\n  dup3\n  add\n    /* \"#utility.yul\":4899:4920   */\n  mstore\n    /* \"#utility.yul\":4956:4958   */\n  0x14\n    /* \"#utility.yul\":4936:4954   */\n  0x24\n  dup3\n  add\n    /* \"#utility.yul\":4929:4959   */\n  mstore\n    /* \"#utility.yul\":4995:5017   */\n  0x596f7520617265206e6f742061206d696e746572000000000000000000000000\n    /* \"#utility.yul\":4975:4993   */\n  0x44\n  dup3\n  add\n    /* \"#utility.yul\":4968:5018   */\n  mstore\n    /* \"#utility.yul\":5035:5053   */\n  0x64\n  add\n    /* \"ERC721A/NagaKidsERC721A.sol\":674:723  require(isMinter(_minter),\"You are not a minter\") */\n  tag_35\n    /* \"#utility.yul\":4715:5059   */\n  jump\n    /* \"ERC721A/NagaKidsERC721A.sol\":674:723  require(isMinter(_minter),\"You are not a minter\") */\ntag_50:\n    /* \"ERC721A/NagaKidsERC721A.sol\":2030:2049  uint256 totalSupply */\n  0x00\n    /* \"ERC721A/NagaKidsERC721A.sol\":2052:2065  totalSupply() */\n  tag_54\n    /* \"ERC721A/NagaKidsERC721A.sol\":3612:3613  1 */\n  0x01\n    /* \"erc721a/contracts/ERC721A.sol\":4998:5010  _burnCounter */\n  sload\n    /* \"erc721a/contracts/ERC721A.sol\":4789:4796  uint256 */\n  0x00\n    /* \"erc721a/contracts/ERC721A.sol\":4982:4995  _currentIndex */\n  sload\n  not(0x00)\n    /* \"erc721a/contracts/ERC721A.sol\":4982:5010  _currentIndex - _burnCounter */\n  swap2\n  swap1\n  sub\n    /* \"erc721a/contracts/ERC721A.sol\":4982:5028  _currentIndex - _burnCounter - _startTokenId() */\n  add\n  swap1\n    /* \"erc721a/contracts/ERC721A.sol\":4736:5045  function totalSupply() public view override returns (uint256) {... */\n  jump\n    /* \"ERC721A/NagaKidsERC721A.sol\":2052:2065  totalSupply() */\ntag_54:\n    /* \"ERC721A/NagaKidsERC721A.sol\":2030:2065  uint256 totalSupply = totalSupply() */\n  swap1\n  pop\n    /* \"ERC721A/NagaKidsERC721A.sol\":526:530  1111 */\n  0x0457\n    /* \"ERC721A/NagaKidsERC721A.sol\":2084:2104  totalSupply + amount */\n  tag_56\n    /* \"ERC721A/NagaKidsERC721A.sol\":2098:2104  amount */\n  dup5\n    /* \"ERC721A/NagaKidsERC721A.sol\":2030:2065  uint256 totalSupply = totalSupply() */\n  dup4\n    /* \"ERC721A/NagaKidsERC721A.sol\":2084:2104  totalSupply + amount */\n  tag_57\n  jump\t// in\ntag_56:\n    /* \"ERC721A/NagaKidsERC721A.sol\":2084:2117  totalSupply + amount <= maxSupply */\n  gt\n  iszero\n    /* \"ERC721A/NagaKidsERC721A.sol\":2076:2137  require(totalSupply + amount <= maxSupply, \"Over max supply\") */\n  tag_58\n  jumpi\n  mload(0x40)\n  shl(0xe5, 0x461bcd)\n  dup2\n  mstore\n    /* \"#utility.yul\":5496:5498   */\n  0x20\n    /* \"ERC721A/NagaKidsERC721A.sol\":2076:2137  require(totalSupply + amount <= maxSupply, \"Over max supply\") */\n  0x04\n  dup3\n  add\n    /* \"#utility.yul\":5478:5499   */\n  mstore\n    /* \"#utility.yul\":5535:5537   */\n  0x0f\n    /* \"#utility.yul\":5515:5533   */\n  0x24\n  dup3\n  add\n    /* \"#utility.yul\":5508:5538   */\n  mstore\n  shl(0x88, 0x4f766572206d617820737570706c79)\n    /* \"#utility.yul\":5554:5572   */\n  0x44\n  dup3\n  add\n    /* \"#utility.yul\":5547:5592   */\n  mstore\n    /* \"#utility.yul\":5609:5627   */\n  0x64\n  add\n    /* \"ERC721A/NagaKidsERC721A.sol\":2076:2137  require(totalSupply + amount <= maxSupply, \"Over max supply\") */\n  tag_35\n    /* \"#utility.yul\":5294:5633   */\n  jump\n    /* \"ERC721A/NagaKidsERC721A.sol\":2076:2137  require(totalSupply + amount <= maxSupply, \"Over max supply\") */\ntag_58:\n    /* \"ERC721A/NagaKidsERC721A.sol\":2148:2169  _safeMint(to, amount) */\n  tag_61\n    /* \"ERC721A/NagaKidsERC721A.sol\":2158:2160  to */\n  dup5\n    /* \"ERC721A/NagaKidsERC721A.sol\":2162:2168  amount */\n  dup5\n    /* \"ERC721A/NagaKidsERC721A.sol\":2148:2157  _safeMint */\n  tag_62\n    /* \"ERC721A/NagaKidsERC721A.sol\":2148:2169  _safeMint(to, amount) */\n  jump\t// in\ntag_61:\n    /* \"ERC721A/NagaKidsERC721A.sol\":2019:2177  {... */\n  pop\n    /* \"ERC721A/NagaKidsERC721A.sol\":1951:2177  function safeMint(address to,uint amount) public Minter(msg.sender) {... */\n  pop\n  pop\n  pop\n  jump\t// out\n    /* \"erc721a/contracts/ERC721A.sol\":15138:15240  function _safeMint(address to, uint256 quantity) internal {... */\ntag_62:\n    /* \"erc721a/contracts/ERC721A.sol\":15206:15233  _safeMint(to, quantity, '') */\n  tag_38\n    /* \"erc721a/contracts/ERC721A.sol\":15216:15218  to */\n  dup3\n    /* \"erc721a/contracts/ERC721A.sol\":15220:15228  quantity */\n  dup3\n    /* \"erc721a/contracts/ERC721A.sol\":15206:15233  _safeMint(to, quantity, '') */\n  mload(0x40)\n  dup1\n  0x20\n  add\n  0x40\n  mstore\n  dup1\n  0x00\n  dup2\n  mstore\n  pop\n    /* \"erc721a/contracts/ERC721A.sol\":15206:15215  _safeMint */\n  shl(0x20, tag_69)\n    /* \"erc721a/contracts/ERC721A.sol\":15206:15233  _safeMint(to, quantity, '') */\n  0x20\n  shr\n  jump\t// in\n    /* \"erc721a/contracts/ERC721A.sol\":15641:16302  function _safeMint(... */\ntag_69:\n    /* \"erc721a/contracts/ERC721A.sol\":15759:15778  _mint(to, quantity) */\n  tag_71\n    /* \"erc721a/contracts/ERC721A.sol\":15765:15767  to */\n  dup4\n    /* \"erc721a/contracts/ERC721A.sol\":15769:15777  quantity */\n  dup4\n    /* \"erc721a/contracts/ERC721A.sol\":15759:15764  _mint */\n  tag_72\n    /* \"erc721a/contracts/ERC721A.sol\":15759:15778  _mint(to, quantity) */\n  jump\t// in\ntag_71:\n  sub(shl(0xa0, 0x01), 0x01)\n    /* \"erc721a/contracts/ERC721A.sol\":15817:15831  to.code.length */\n  dup4\n  and\n  extcodesize\n    /* \"erc721a/contracts/ERC721A.sol\":15817:15836  to.code.length != 0 */\n  iszero\n    /* \"erc721a/contracts/ERC721A.sol\":15813:16286  if (to.code.length != 0) {... */\n  tag_73\n  jumpi\n    /* \"erc721a/contracts/ERC721A.sol\":15856:15867  uint256 end */\n  0x00\n    /* \"erc721a/contracts/ERC721A.sol\":15870:15883  _currentIndex */\n  sload\n    /* \"erc721a/contracts/ERC721A.sol\":15917:15931  end - quantity */\n  dup3\n  dup2\n  sub\n    /* \"erc721a/contracts/ERC721A.sol\":15949:16178  do {... */\ntag_74:\n    /* \"erc721a/contracts/ERC721A.sol\":16026:16033  index++ */\n  0x01\n  dup2\n  add\n  swap1\n    /* \"erc721a/contracts/ERC721A.sol\":15979:16041  _checkContractOnERC721Received(address(0), to, index++, _data) */\n  tag_77\n  swap1\n    /* \"erc721a/contracts/ERC721A.sol\":16018:16019  0 */\n  0x00\n  swap1\n    /* \"erc721a/contracts/ERC721A.sol\":16022:16024  to */\n  dup8\n  swap1\n    /* \"erc721a/contracts/ERC721A.sol\":16035:16040  _data */\n  dup7\n    /* \"erc721a/contracts/ERC721A.sol\":15979:16009  _checkContractOnERC721Received */\n  tag_78\n    /* \"erc721a/contracts/ERC721A.sol\":15979:16041  _checkContractOnERC721Received(address(0), to, index++, _data) */\n  jump\t// in\ntag_77:\n    /* \"erc721a/contracts/ERC721A.sol\":15974:16139  if (!_checkContractOnERC721Received(address(0), to, index++, _data)) {... */\n  tag_79\n  jumpi\n    /* \"erc721a/contracts/ERC721A.sol\":16076:16116  TransferToNonERC721ReceiverImplementer() */\n  mload(0x40)\n  shl(0xe1, 0x68d2bf6b)\n  dup2\n  mstore\n  0x04\n  add\n  mload(0x40)\n  dup1\n  swap2\n  sub\n  swap1\n  revert\n    /* \"erc721a/contracts/ERC721A.sol\":15974:16139  if (!_checkContractOnERC721Received(address(0), to, index++, _data)) {... */\ntag_79:\n    /* \"erc721a/contracts/ERC721A.sol\":16173:16176  end */\n  dup2\n    /* \"erc721a/contracts/ERC721A.sol\":16165:16170  index */\n  dup2\n    /* \"erc721a/contracts/ERC721A.sol\":16165:16176  index < end */\n  lt\n    /* \"erc721a/contracts/ERC721A.sol\":15949:16178  do {... */\n  tag_74\n  jumpi\n    /* \"erc721a/contracts/ERC721A.sol\":16258:16261  end */\n  dup2\n    /* \"erc721a/contracts/ERC721A.sol\":16241:16254  _currentIndex */\n  sload(0x00)\n    /* \"erc721a/contracts/ERC721A.sol\":16241:16261  _currentIndex != end */\n  eq\n    /* \"erc721a/contracts/ERC721A.sol\":16237:16271  if (_currentIndex != end) revert() */\n  tag_80\n  jumpi\n    /* \"erc721a/contracts/ERC721A.sol\":16263:16271  revert() */\n  0x00\n  dup1\n  revert\n    /* \"erc721a/contracts/ERC721A.sol\":16237:16271  if (_currentIndex != end) revert() */\ntag_80:\n    /* \"erc721a/contracts/ERC721A.sol\":15838:16286  {... */\n  pop\n  pop\n    /* \"erc721a/contracts/ERC721A.sol\":15813:16286  if (to.code.length != 0) {... */\ntag_73:\n    /* \"erc721a/contracts/ERC721A.sol\":15641:16302  function _safeMint(... */\n  pop\n  pop\n  pop\n  jump\t// out\n    /* \"erc721a/contracts/ERC721A.sol\":16563:18055  function _mint(address to, uint256 quantity) internal {... */\ntag_72:\n    /* \"erc721a/contracts/ERC721A.sol\":16627:16647  uint256 startTokenId */\n  0x00\n    /* \"erc721a/contracts/ERC721A.sol\":16650:16663  _currentIndex */\n  sload\n  sub(shl(0xa0, 0x01), 0x01)\n    /* \"erc721a/contracts/ERC721A.sol\":16677:16693  to == address(0) */\n  dup4\n  and\n    /* \"erc721a/contracts/ERC721A.sol\":16673:16721  if (to == address(0)) revert MintToZeroAddress() */\n  tag_82\n  jumpi\n    /* \"erc721a/contracts/ERC721A.sol\":16702:16721  MintToZeroAddress() */\n  mload(0x40)\n  shl(0xe8, 0x2e0763)\n  dup2\n  mstore\n  0x04\n  add\n  mload(0x40)\n  dup1\n  swap2\n  sub\n  swap1\n  revert\n    /* \"erc721a/contracts/ERC721A.sol\":16673:16721  if (to == address(0)) revert MintToZeroAddress() */\ntag_82:\n    /* \"erc721a/contracts/ERC721A.sol\":16735:16743  quantity */\n  dup2\n    /* \"erc721a/contracts/ERC721A.sol\":16747:16748  0 */\n  0x00\n    /* \"erc721a/contracts/ERC721A.sol\":16735:16748  quantity == 0 */\n  sub\n    /* \"erc721a/contracts/ERC721A.sol\":16731:16775  if (quantity == 0) revert MintZeroQuantity() */\n  tag_83\n  jumpi\n    /* \"erc721a/contracts/ERC721A.sol\":16757:16775  MintZeroQuantity() */\n  mload(0x40)\n  shl(0xe0, 0xb562e8dd)\n  dup2\n  mstore\n  0x04\n  add\n  mload(0x40)\n  dup1\n  swap2\n  sub\n  swap1\n  revert\n    /* \"erc721a/contracts/ERC721A.sol\":16731:16775  if (quantity == 0) revert MintZeroQuantity() */\ntag_83:\n    /* \"erc721a/contracts/ERC721A.sol\":16786:16847  _beforeTokenTransfers(address(0), to, startTokenId, quantity) */\n  tag_84\n    /* \"erc721a/contracts/ERC721A.sol\":16816:16817  0 */\n  0x00\n    /* \"erc721a/contracts/ERC721A.sol\":16820:16822  to */\n  dup5\n    /* \"erc721a/contracts/ERC721A.sol\":16824:16836  startTokenId */\n  dup4\n    /* \"erc721a/contracts/ERC721A.sol\":16838:16846  quantity */\n  dup6\n    /* \"erc721a/contracts/ERC721A.sol\":16786:16807  _beforeTokenTransfers */\n  tag_85\n    /* \"erc721a/contracts/ERC721A.sol\":16786:16847  _beforeTokenTransfers(address(0), to, startTokenId, quantity) */\n  jump\t// in\ntag_84:\n  sub(shl(0xa0, 0x01), 0x01)\n    /* \"erc721a/contracts/ERC721A.sol\":17250:17272  _packedAddressData[to] */\n  dup4\n  and\n  0x00\n  dup2\n  dup2\n  mstore\n    /* \"erc721a/contracts/ERC721A.sol\":17250:17268  _packedAddressData */\n  0x05\n    /* \"erc721a/contracts/ERC721A.sol\":17250:17272  _packedAddressData[to] */\n  0x20\n  mstore\n    /* \"erc721a/contracts/ERC721A.sol\":1156:1158  64 */\n  0x40\n    /* \"erc721a/contracts/ERC721A.sol\":17250:17272  _packedAddressData[to] */\n  swap1\n  keccak256\n    /* \"erc721a/contracts/ERC721A.sol\":17250:17320  _packedAddressData[to] += quantity * ((1 << BITPOS_NUMBER_MINTED) | 1) */\n  dup1\n  sload\n    /* \"erc721a/contracts/ERC721A.sol\":17288:17319  (1 << BITPOS_NUMBER_MINTED) | 1 */\n  0x010000000000000001\n    /* \"erc721a/contracts/ERC721A.sol\":17276:17320  quantity * ((1 << BITPOS_NUMBER_MINTED) | 1) */\n  dup6\n  mul\n    /* \"erc721a/contracts/ERC721A.sol\":17250:17320  _packedAddressData[to] += quantity * ((1 << BITPOS_NUMBER_MINTED) | 1) */\n  add\n  swap1\n  sstore\n    /* \"erc721a/contracts/ERC721A.sol\":10863:10874  timestamp() */\n  timestamp\n    /* \"erc721a/contracts/ERC721A.sol\":10839:10861  BITPOS_START_TIMESTAMP */\n  0xa0\n    /* \"erc721a/contracts/ERC721A.sol\":10835:10875  shl(BITPOS_START_TIMESTAMP, timestamp()) */\n  shl\n  0x01\n    /* \"erc721a/contracts/ERC721A.sol\":12522:12537  eq(quantity, 1) */\n  dup5\n  eq\n    /* \"erc721a/contracts/ERC721A.sol\":12497:12520  BITPOS_NEXT_INITIALIZED */\n  0xe1\n    /* \"erc721a/contracts/ERC721A.sol\":12493:12538  shl(BITPOS_NEXT_INITIALIZED, eq(quantity, 1)) */\n  shl\n    /* \"erc721a/contracts/ERC721A.sol\":10832:10883  or(shl(BITPOS_START_TIMESTAMP, timestamp()), flags) */\n  or\n    /* \"erc721a/contracts/ERC721A.sol\":10822:10884  or(owner, or(shl(BITPOS_START_TIMESTAMP, timestamp()), flags)) */\n  or\n    /* \"erc721a/contracts/ERC721A.sol\":17556:17587  _packedOwnerships[startTokenId] */\n  0x00\n  dup3\n  dup2\n  mstore\n    /* \"erc721a/contracts/ERC721A.sol\":17556:17573  _packedOwnerships */\n  0x04\n    /* \"erc721a/contracts/ERC721A.sol\":17556:17587  _packedOwnerships[startTokenId] */\n  0x20\n  mstore\n  0x40\n  swap1\n  keccak256\n    /* \"erc721a/contracts/ERC721A.sol\":17556:17726  _packedOwnerships[startTokenId] = _packOwnershipData(... */\n  sstore\n    /* \"erc721a/contracts/ERC721A.sol\":17574:17586  startTokenId */\n  dup1\n    /* \"erc721a/contracts/ERC721A.sol\":17799:17822  startTokenId + quantity */\n  dup3\n  dup2\n  add\n    /* \"erc721a/contracts/ERC721A.sol\":17836:17935  do {... */\ntag_92:\n    /* \"erc721a/contracts/ERC721A.sol\":17862:17897  Transfer(address(0), to, tokenId++) */\n  mload(0x40)\n    /* \"erc721a/contracts/ERC721A.sol\":17887:17896  tokenId++ */\n  0x01\n  dup4\n  add\n  swap3\n  swap1\n  sub(shl(0xa0, 0x01), 0x01)\n    /* \"erc721a/contracts/ERC721A.sol\":17862:17897  Transfer(address(0), to, tokenId++) */\n  dup8\n  and\n  swap1\n    /* \"erc721a/contracts/ERC721A.sol\":17879:17880  0 */\n  0x00\n  swap1\n    /* \"erc721a/contracts/ERC721A.sol\":17862:17897  Transfer(address(0), to, tokenId++) */\n  0xddf252ad1be2c89b69c2b068fc378daa952ba7f163c4a11628f55a4df523b3ef\n  swap1\n    /* \"erc721a/contracts/ERC721A.sol\":17879:17880  0 */\n  dup3\n  swap1\n    /* \"erc721a/contracts/ERC721A.sol\":17862:17897  Transfer(address(0), to, tokenId++) */\n  log4\n    /* \"erc721a/contracts/ERC721A.sol\":17930:17933  end */\n  dup1\n    /* \"erc721a/contracts/ERC721A.sol\":17920:17927  tokenId */\n  dup3\n    /* \"erc721a/contracts/ERC721A.sol\":17920:17933  tokenId < end */\n  lt\n    /* \"erc721a/contracts/ERC721A.sol\":17836:17935  do {... */\n  tag_92\n  jumpi\n    /* \"erc721a/contracts/ERC721A.sol\":17949:17962  _currentIndex */\n  0x00\n    /* \"erc721a/contracts/ERC721A.sol\":17949:17968  _currentIndex = end */\n  sstore\n  pop\n    /* \"erc721a/contracts/ERC721A.sol\":15641:16302  function _safeMint(... */\n  pop\n  pop\n  pop\n  jump\t// out\n    /* \"erc721a/contracts/ERC721A.sol\":28649:29346  function _checkContractOnERC721Received(... */\ntag_78:\n    /* \"erc721a/contracts/ERC721A.sol\":28827:28915  ERC721A__IERC721Receiver(to).onERC721Received(_msgSenderERC721A(), from, tokenId, _data) */\n  mload(0x40)\n  shl(0xe1, 0x0a85bd01)\n  dup2\n  mstore\n    /* \"erc721a/contracts/ERC721A.sol\":28807:28811  bool */\n  0x00\n  swap1\n  sub(shl(0xa0, 0x01), 0x01)\n    /* \"erc721a/contracts/ERC721A.sol\":28827:28872  ERC721A__IERC721Receiver(to).onERC721Received */\n  dup6\n  and\n  swap1\n  0x150b7a02\n  swap1\n    /* \"erc721a/contracts/ERC721A.sol\":28827:28915  ERC721A__IERC721Receiver(to).onERC721Received(_msgSenderERC721A(), from, tokenId, _data) */\n  tag_100\n  swap1\n    /* \"@openzeppelin/contracts/utils/Context.sol\":719:729  msg.sender */\n  caller\n  swap1\n    /* \"erc721a/contracts/ERC721A.sol\":28894:28898  from */\n  dup10\n  swap1\n    /* \"erc721a/contracts/ERC721A.sol\":28900:28907  tokenId */\n  dup9\n  swap1\n    /* \"erc721a/contracts/ERC721A.sol\":28909:28914  _data */\n  dup9\n  swap1\n    /* \"erc721a/contracts/ERC721A.sol\":28827:28915  ERC721A__IERC721Receiver(to).onERC721Received(_msgSenderERC721A(), from, tokenId, _data) */\n  0x04\n  add\n  tag_101\n  jump\t// in\ntag_100:\n  0x20\n  mload(0x40)\n  dup1\n  dup4\n  sub\n  dup2\n  0x00\n  dup8\n  gas\n  call\n  swap3\n  pop\n  pop\n  pop\n  dup1\n  iszero\n  tag_102\n  jumpi\n  pop\n  0x40\n  dup1\n  mload\n  0x1f\n  returndatasize\n  swap1\n  dup2\n  add\n  not(0x1f)\n  and\n  dup3\n  add\n  swap1\n  swap3\n  mstore\n  tag_103\n  swap2\n  dup2\n  add\n  swap1\n  tag_104\n  jump\t// in\ntag_103:\n  0x01\ntag_102:\n    /* \"erc721a/contracts/ERC721A.sol\":28823:29340  try ERC721A__IERC721Receiver(to).onERC721Received(_msgSenderERC721A(), from, tokenId, _data) returns (... */\n  tag_105\n  jumpi\n  returndatasize\n  dup1\n  dup1\n  iszero\n  tag_110\n  jumpi\n  mload(0x40)\n  swap2\n  pop\n  and(add(returndatasize, 0x3f), not(0x1f))\n  dup3\n  add\n  0x40\n  mstore\n  returndatasize\n  dup3\n  mstore\n  returndatasize\n  0x00\n  0x20\n  dup5\n  add\n  returndatacopy\n  jump(tag_109)\ntag_110:\n  0x60\n  swap2\n  pop\ntag_109:\n  pop\n    /* \"erc721a/contracts/ERC721A.sol\":29105:29111  reason */\n  dup1\n    /* \"erc721a/contracts/ERC721A.sol\":29105:29118  reason.length */\n  mload\n    /* \"erc721a/contracts/ERC721A.sol\":29122:29123  0 */\n  0x00\n    /* \"erc721a/contracts/ERC721A.sol\":29105:29123  reason.length == 0 */\n  sub\n    /* \"erc721a/contracts/ERC721A.sol\":29101:29330  if (reason.length == 0) {... */\n  tag_111\n  jumpi\n    /* \"erc721a/contracts/ERC721A.sol\":29150:29190  TransferToNonERC721ReceiverImplementer() */\n  mload(0x40)\n  shl(0xe1, 0x68d2bf6b)\n  dup2\n  mstore\n  0x04\n  add\n  mload(0x40)\n  dup1\n  swap2\n  sub\n  swap1\n  revert\n    /* \"erc721a/contracts/ERC721A.sol\":29101:29330  if (reason.length == 0) {... */\ntag_111:\n    /* \"erc721a/contracts/ERC721A.sol\":29290:29296  reason */\n  dup1\n    /* \"erc721a/contracts/ERC721A.sol\":29284:29297  mload(reason) */\n  mload\n    /* \"erc721a/contracts/ERC721A.sol\":29275:29281  reason */\n  dup2\n    /* \"erc721a/contracts/ERC721A.sol\":29271:29273  32 */\n  0x20\n    /* \"erc721a/contracts/ERC721A.sol\":29267:29282  add(32, reason) */\n  add\n    /* \"erc721a/contracts/ERC721A.sol\":29260:29298  revert(add(32, reason), mload(reason)) */\n  revert\n    /* \"erc721a/contracts/ERC721A.sol\":28823:29340  try ERC721A__IERC721Receiver(to).onERC721Received(_msgSenderERC721A(), from, tokenId, _data) returns (... */\ntag_105:\n  not(sub(shl(0xe0, 0x01), 0x01))\n    /* \"erc721a/contracts/ERC721A.sol\":28983:29047  retval == ERC721A__IERC721Receiver(to).onERC721Received.selector */\n  and\n  shl(0xe1, 0x0a85bd01)\n  eq\n  swap1\n  pop\n    /* \"erc721a/contracts/ERC721A.sol\":28649:29346  function _checkContractOnERC721Received(... */\n  swap5\n  swap4\n  pop\n  pop\n  pop\n  pop\n  jump\t// out\n    /* \"ERC721A/NagaKidsERC721A.sol\":2995:3232  function _beforeTokenTransfers(... */\ntag_85:\n    /* \"ERC721A/NagaKidsERC721A.sol\":3164:3224  super._beforeTokenTransfers(from, to, startTokenId,quantity) */\n  tag_61\n    /* \"ERC721A/NagaKidsERC721A.sol\":3192:3196  from */\n  dup5\n    /* \"ERC721A/NagaKidsERC721A.sol\":3198:3200  to */\n  dup5\n    /* \"ERC721A/NagaKidsERC721A.sol\":3202:3214  startTokenId */\n  dup5\n    /* \"ERC721A/NagaKidsERC721A.sol\":3215:3223  quantity */\n  dup5\n    /* \"ERC721A/NagaKidsERC721A.sol\":3164:3191  super._beforeTokenTransfers */\n  or(tag_0_250, shl(0x20, tag_61))\n    /* \"ERC721A/NagaKidsERC721A.sol\":3164:3224  super._beforeTokenTransfers(from, to, startTokenId,quantity) */\n  0x20\n  shr\n  jump\t// in\n    /* \"#utility.yul\":14:141   */\ntag_126:\n    /* \"#utility.yul\":75:85   */\n  0x4e487b71\n    /* \"#utility.yul\":70:73   */\n  0xe0\n    /* \"#utility.yul\":66:86   */\n  shl\n    /* \"#utility.yul\":63:64   */\n  0x00\n    /* \"#utility.yul\":56:87   */\n  mstore\n    /* \"#utility.yul\":106:110   */\n  0x41\n    /* \"#utility.yul\":103:104   */\n  0x04\n    /* \"#utility.yul\":96:111   */\n  mstore\n    /* \"#utility.yul\":130:134   */\n  0x24\n    /* \"#utility.yul\":127:128   */\n  0x00\n    /* \"#utility.yul\":120:135   */\n  revert\n    /* \"#utility.yul\":146:526   */\ntag_127:\n    /* \"#utility.yul\":225:226   */\n  0x01\n    /* \"#utility.yul\":221:233   */\n  dup2\n  dup2\n  shr\n  swap1\n    /* \"#utility.yul\":268:280   */\n  dup3\n  and\n  dup1\n    /* \"#utility.yul\":289:350   */\n  tag_136\n  jumpi\n    /* \"#utility.yul\":343:347   */\n  0x7f\n    /* \"#utility.yul\":335:341   */\n  dup3\n    /* \"#utility.yul\":331:348   */\n  and\n    /* \"#utility.yul\":321:348   */\n  swap2\n  pop\n    /* \"#utility.yul\":289:350   */\ntag_136:\n    /* \"#utility.yul\":396:398   */\n  0x20\n    /* \"#utility.yul\":388:394   */\n  dup3\n    /* \"#utility.yul\":385:399   */\n  lt\n    /* \"#utility.yul\":365:383   */\n  dup2\n    /* \"#utility.yul\":362:400   */\n  sub\n    /* \"#utility.yul\":359:520   */\n  tag_137\n  jumpi\n    /* \"#utility.yul\":442:452   */\n  0x4e487b71\n    /* \"#utility.yul\":437:440   */\n  0xe0\n    /* \"#utility.yul\":433:453   */\n  shl\n    /* \"#utility.yul\":430:431   */\n  0x00\n    /* \"#utility.yul\":423:454   */\n  mstore\n    /* \"#utility.yul\":477:481   */\n  0x22\n    /* \"#utility.yul\":474:475   */\n  0x04\n    /* \"#utility.yul\":467:482   */\n  mstore\n    /* \"#utility.yul\":505:509   */\n  0x24\n    /* \"#utility.yul\":502:503   */\n  0x00\n    /* \"#utility.yul\":495:510   */\n  revert\n    /* \"#utility.yul\":359:520   */\ntag_137:\n  pop\n    /* \"#utility.yul\":146:526   */\n  swap2\n  swap1\n  pop\n  jump\t// out\n    /* \"#utility.yul\":657:1202   */\ntag_129:\n    /* \"#utility.yul\":759:761   */\n  0x1f\n    /* \"#utility.yul\":754:757   */\n  dup3\n    /* \"#utility.yul\":751:762   */\n  gt\n    /* \"#utility.yul\":748:1196   */\n  iszero\n  tag_73\n  jumpi\n    /* \"#utility.yul\":795:796   */\n  0x00\n    /* \"#utility.yul\":820:825   */\n  dup2\n    /* \"#utility.yul\":816:818   */\n  dup2\n    /* \"#utility.yul\":809:826   */\n  mstore\n    /* \"#utility.yul\":865:869   */\n  0x20\n    /* \"#utility.yul\":861:863   */\n  dup2\n    /* \"#utility.yul\":851:870   */\n  keccak256\n    /* \"#utility.yul\":935:937   */\n  0x1f\n    /* \"#utility.yul\":923:933   */\n  dup6\n    /* \"#utility.yul\":919:938   */\n  add\n    /* \"#utility.yul\":916:917   */\n  0x05\n    /* \"#utility.yul\":912:939   */\n  shr\n    /* \"#utility.yul\":906:910   */\n  dup2\n    /* \"#utility.yul\":902:940   */\n  add\n    /* \"#utility.yul\":971:975   */\n  0x20\n    /* \"#utility.yul\":959:969   */\n  dup7\n    /* \"#utility.yul\":956:976   */\n  lt\n    /* \"#utility.yul\":953:1000   */\n  iszero\n  tag_141\n  jumpi\n  pop\n    /* \"#utility.yul\":994:998   */\n  dup1\n    /* \"#utility.yul\":953:1000   */\ntag_141:\n    /* \"#utility.yul\":1049:1051   */\n  0x1f\n    /* \"#utility.yul\":1044:1047   */\n  dup6\n    /* \"#utility.yul\":1040:1052   */\n  add\n    /* \"#utility.yul\":1037:1038   */\n  0x05\n    /* \"#utility.yul\":1033:1053   */\n  shr\n    /* \"#utility.yul\":1027:1031   */\n  dup3\n    /* \"#utility.yul\":1023:1054   */\n  add\n    /* \"#utility.yul\":1013:1054   */\n  swap2\n  pop\n    /* \"#utility.yul\":1104:1186   */\ntag_142:\n    /* \"#utility.yul\":1122:1124   */\n  dup2\n    /* \"#utility.yul\":1115:1120   */\n  dup2\n    /* \"#utility.yul\":1112:1125   */\n  lt\n    /* \"#utility.yul\":1104:1186   */\n  iszero\n  tag_144\n  jumpi\n    /* \"#utility.yul\":1167:1184   */\n  dup3\n  dup2\n  sstore\n    /* \"#utility.yul\":1148:1149   */\n  0x01\n    /* \"#utility.yul\":1137:1150   */\n  add\n    /* \"#utility.yul\":1104:1186   */\n  jump(tag_142)\ntag_144:\n    /* \"#utility.yul\":1108:1111   */\n  pop\n  pop\n  pop\n    /* \"#utility.yul\":657:1202   */\n  pop\n  pop\n  pop\n  jump\t// out\n    /* \"#utility.yul\":1378:2730   */\ntag_2:\n    /* \"#utility.yul\":1498:1508   */\n  dup2\n  mload\n  sub(shl(0x40, 0x01), 0x01)\n    /* \"#utility.yul\":1520:1550   */\n  dup2\n  gt\n    /* \"#utility.yul\":1517:1573   */\n  iszero\n  tag_148\n  jumpi\n    /* \"#utility.yul\":1553:1571   */\n  tag_148\n  tag_126\n  jump\t// in\ntag_148:\n    /* \"#utility.yul\":1582:1679   */\n  tag_149\n    /* \"#utility.yul\":1672:1678   */\n  dup2\n    /* \"#utility.yul\":1632:1670   */\n  tag_150\n    /* \"#utility.yul\":1664:1668   */\n  dup5\n    /* \"#utility.yul\":1658:1669   */\n  sload\n    /* \"#utility.yul\":1632:1670   */\n  tag_127\n  jump\t// in\ntag_150:\n    /* \"#utility.yul\":1626:1630   */\n  dup5\n    /* \"#utility.yul\":1582:1679   */\n  tag_129\n  jump\t// in\ntag_149:\n    /* \"#utility.yul\":1734:1738   */\n  0x20\n  dup1\n    /* \"#utility.yul\":1798:1800   */\n  0x1f\n    /* \"#utility.yul\":1787:1801   */\n  dup4\n  gt\n    /* \"#utility.yul\":1815:1816   */\n  0x01\n    /* \"#utility.yul\":1810:2473   */\n  dup2\n  eq\n  tag_152\n  jumpi\n    /* \"#utility.yul\":2517:2518   */\n  0x00\n    /* \"#utility.yul\":2534:2540   */\n  dup5\n    /* \"#utility.yul\":2531:2620   */\n  iszero\n  tag_153\n  jumpi\n  pop\n    /* \"#utility.yul\":2586:2605   */\n  dup6\n  dup4\n  add\n    /* \"#utility.yul\":2580:2606   */\n  mload\n    /* \"#utility.yul\":2531:2620   */\ntag_153:\n  not(0x00)\n    /* \"#utility.yul\":1335:1336   */\n  0x03\n    /* \"#utility.yul\":1331:1342   */\n  dup7\n  swap1\n  shl\n    /* \"#utility.yul\":1327:1351   */\n  shr\n    /* \"#utility.yul\":1323:1352   */\n  not\n    /* \"#utility.yul\":1313:1353   */\n  and\n    /* \"#utility.yul\":1359:1360   */\n  0x01\n    /* \"#utility.yul\":1355:1366   */\n  dup6\n  swap1\n  shl\n    /* \"#utility.yul\":1310:1367   */\n  or\n    /* \"#utility.yul\":2633:2714   */\n  dup6\n  sstore\n    /* \"#utility.yul\":1780:2724   */\n  jump(tag_144)\n    /* \"#utility.yul\":1810:2473   */\ntag_152:\n    /* \"#utility.yul\":604:605   */\n  0x00\n    /* \"#utility.yul\":597:611   */\n  dup6\n  dup2\n  mstore\n    /* \"#utility.yul\":641:645   */\n  0x20\n    /* \"#utility.yul\":628:646   */\n  dup2\n  keccak256\n  not(0x1f)\n    /* \"#utility.yul\":1846:1866   */\n  dup7\n  and\n  swap2\n    /* \"#utility.yul\":1964:2200   */\ntag_156:\n    /* \"#utility.yul\":1978:1985   */\n  dup3\n    /* \"#utility.yul\":1975:1976   */\n  dup2\n    /* \"#utility.yul\":1972:1986   */\n  lt\n    /* \"#utility.yul\":1964:2200   */\n  iszero\n  tag_158\n  jumpi\n    /* \"#utility.yul\":2067:2086   */\n  dup9\n  dup7\n  add\n    /* \"#utility.yul\":2061:2087   */\n  mload\n    /* \"#utility.yul\":2046:2088   */\n  dup3\n  sstore\n    /* \"#utility.yul\":2159:2186   */\n  swap5\n  dup5\n  add\n  swap5\n    /* \"#utility.yul\":2127:2128   */\n  0x01\n    /* \"#utility.yul\":2115:2129   */\n  swap1\n  swap2\n  add\n  swap1\n    /* \"#utility.yul\":1994:2013   */\n  dup5\n  add\n    /* \"#utility.yul\":1964:2200   */\n  jump(tag_156)\ntag_158:\n    /* \"#utility.yul\":1968:1971   */\n  pop\n    /* \"#utility.yul\":2228:2234   */\n  dup6\n    /* \"#utility.yul\":2219:2226   */\n  dup3\n    /* \"#utility.yul\":2216:2235   */\n  lt\n    /* \"#utility.yul\":2213:2414   */\n  iszero\n  tag_159\n  jumpi\n    /* \"#utility.yul\":2289:2308   */\n  dup8\n  dup6\n  add\n    /* \"#utility.yul\":2283:2309   */\n  mload\n  not(0x00)\n    /* \"#utility.yul\":2372:2373   */\n  0x03\n    /* \"#utility.yul\":2368:2382   */\n  dup9\n  swap1\n  shl\n    /* \"#utility.yul\":2384:2387   */\n  0xf8\n    /* \"#utility.yul\":2364:2388   */\n  and\n    /* \"#utility.yul\":2360:2397   */\n  shr\n    /* \"#utility.yul\":2356:2398   */\n  not\n    /* \"#utility.yul\":2341:2399   */\n  and\n    /* \"#utility.yul\":2326:2400   */\n  dup2\n  sstore\n    /* \"#utility.yul\":2213:2414   */\ntag_159:\n  pop\n  pop\n  pop\n  pop\n  pop\n    /* \"#utility.yul\":2460:2461   */\n  0x01\n    /* \"#utility.yul\":2444:2458   */\n  swap1\n  dup2\n  shl\n    /* \"#utility.yul\":2440:2462   */\n  add\n    /* \"#utility.yul\":2427:2463   */\n  swap1\n  sstore\n  pop\n    /* \"#utility.yul\":1378:2730   */\n  jump\t// out\n    /* \"#utility.yul\":2735:2993   */\ntag_131:\n    /* \"#utility.yul\":2807:2808   */\n  0x00\n    /* \"#utility.yul\":2817:2930   */\ntag_161:\n    /* \"#utility.yul\":2831:2837   */\n  dup4\n    /* \"#utility.yul\":2828:2829   */\n  dup2\n    /* \"#utility.yul\":2825:2838   */\n  lt\n    /* \"#utility.yul\":2817:2930   */\n  iszero\n  tag_163\n  jumpi\n    /* \"#utility.yul\":2907:2918   */\n  dup2\n  dup2\n  add\n    /* \"#utility.yul\":2901:2919   */\n  mload\n    /* \"#utility.yul\":2888:2899   */\n  dup4\n  dup3\n  add\n    /* \"#utility.yul\":2881:2920   */\n  mstore\n    /* \"#utility.yul\":2853:2855   */\n  0x20\n    /* \"#utility.yul\":2846:2856   */\n  add\n    /* \"#utility.yul\":2817:2930   */\n  jump(tag_161)\ntag_163:\n    /* \"#utility.yul\":2948:2954   */\n  dup4\n    /* \"#utility.yul\":2945:2946   */\n  dup2\n    /* \"#utility.yul\":2942:2955   */\n  gt\n    /* \"#utility.yul\":2939:2987   */\n  iszero\n  tag_61\n  jumpi\n  pop\n  pop\n    /* \"#utility.yul\":2983:2984   */\n  0x00\n    /* \"#utility.yul\":2965:2981   */\n  swap2\n  add\n    /* \"#utility.yul\":2958:2985   */\n  mstore\n    /* \"#utility.yul\":2735:2993   */\n  jump\t// out\n    /* \"#utility.yul\":2998:3175   */\ntag_132:\n    /* \"#utility.yul\":3077:3090   */\n  dup1\n  mload\n  sub(shl(0xa0, 0x01), 0x01)\n    /* \"#utility.yul\":3119:3150   */\n  dup2\n  and\n    /* \"#utility.yul\":3109:3151   */\n  dup2\n  eq\n    /* \"#utility.yul\":3099:3169   */\n  tag_166\n  jumpi\n    /* \"#utility.yul\":3165:3166   */\n  0x00\n    /* \"#utility.yul\":3162:3163   */\n  dup1\n    /* \"#utility.yul\":3155:3167   */\n  revert\n    /* \"#utility.yul\":3099:3169   */\ntag_166:\n    /* \"#utility.yul\":2998:3175   */\n  swap2\n  swap1\n  pop\n  jump\t// out\n    /* \"#utility.yul\":3180:4157   */\ntag_5:\n    /* \"#utility.yul\":3269:3275   */\n  0x00\n    /* \"#utility.yul\":3277:3283   */\n  dup1\n    /* \"#utility.yul\":3330:3332   */\n  0x40\n    /* \"#utility.yul\":3318:3327   */\n  dup4\n    /* \"#utility.yul\":3309:3316   */\n  dup6\n    /* \"#utility.yul\":3305:3328   */\n  sub\n    /* \"#utility.yul\":3301:3333   */\n  slt\n    /* \"#utility.yul\":3298:3350   */\n  iszero\n  tag_168\n  jumpi\n    /* \"#utility.yul\":3346:3347   */\n  0x00\n    /* \"#utility.yul\":3343:3344   */\n  dup1\n    /* \"#utility.yul\":3336:3348   */\n  revert\n    /* \"#utility.yul\":3298:3350   */\ntag_168:\n    /* \"#utility.yul\":3373:3389   */\n  dup3\n  mload\n  sub(shl(0x40, 0x01), 0x01)\n    /* \"#utility.yul\":3438:3452   */\n  dup1\n  dup3\n  gt\n    /* \"#utility.yul\":3435:3469   */\n  iszero\n  tag_169\n  jumpi\n    /* \"#utility.yul\":3465:3466   */\n  0x00\n    /* \"#utility.yul\":3462:3463   */\n  dup1\n    /* \"#utility.yul\":3455:3467   */\n  revert\n    /* \"#utility.yul\":3435:3469   */\ntag_169:\n    /* \"#utility.yul\":3503:3509   */\n  dup2\n    /* \"#utility.yul\":3492:3501   */\n  dup6\n    /* \"#utility.yul\":3488:3510   */\n  add\n    /* \"#utility.yul\":3478:3510   */\n  swap2\n  pop\n    /* \"#utility.yul\":3548:3555   */\n  dup6\n    /* \"#utility.yul\":3541:3545   */\n  0x1f\n    /* \"#utility.yul\":3537:3539   */\n  dup4\n    /* \"#utility.yul\":3533:3546   */\n  add\n    /* \"#utility.yul\":3529:3556   */\n  slt\n    /* \"#utility.yul\":3519:3574   */\n  tag_170\n  jumpi\n    /* \"#utility.yul\":3570:3571   */\n  0x00\n    /* \"#utility.yul\":3567:3568   */\n  dup1\n    /* \"#utility.yul\":3560:3572   */\n  revert\n    /* \"#utility.yul\":3519:3574   */\ntag_170:\n    /* \"#utility.yul\":3599:3601   */\n  dup2\n    /* \"#utility.yul\":3593:3602   */\n  mload\n    /* \"#utility.yul\":3621:3623   */\n  dup2\n    /* \"#utility.yul\":3617:3619   */\n  dup2\n    /* \"#utility.yul\":3614:3624   */\n  gt\n    /* \"#utility.yul\":3611:3647   */\n  iszero\n  tag_172\n  jumpi\n    /* \"#utility.yul\":3627:3645   */\n  tag_172\n  tag_126\n  jump\t// in\ntag_172:\n    /* \"#utility.yul\":3702:3704   */\n  0x40\n    /* \"#utility.yul\":3696:3705   */\n  mload\n    /* \"#utility.yul\":3670:3672   */\n  0x1f\n    /* \"#utility.yul\":3756:3769   */\n  dup3\n  add\n  not(0x1f)\n    /* \"#utility.yul\":3752:3774   */\n  swap1\n  dup2\n  and\n    /* \"#utility.yul\":3776:3778   */\n  0x3f\n    /* \"#utility.yul\":3748:3779   */\n  add\n    /* \"#utility.yul\":3744:3784   */\n  and\n    /* \"#utility.yul\":3732:3785   */\n  dup2\n  add\n  swap1\n    /* \"#utility.yul\":3800:3818   */\n  dup4\n  dup3\n  gt\n    /* \"#utility.yul\":3820:3842   */\n  dup2\n  dup4\n  lt\n    /* \"#utility.yul\":3797:3843   */\n  or\n    /* \"#utility.yul\":3794:3866   */\n  iszero\n  tag_174\n  jumpi\n    /* \"#utility.yul\":3846:3864   */\n  tag_174\n  tag_126\n  jump\t// in\ntag_174:\n    /* \"#utility.yul\":3886:3896   */\n  dup2\n    /* \"#utility.yul\":3882:3884   */\n  0x40\n    /* \"#utility.yul\":3875:3897   */\n  mstore\n    /* \"#utility.yul\":3921:3923   */\n  dup3\n    /* \"#utility.yul\":3913:3919   */\n  dup2\n    /* \"#utility.yul\":3906:3924   */\n  mstore\n    /* \"#utility.yul\":3963:3970   */\n  dup9\n    /* \"#utility.yul\":3956:3960   */\n  0x20\n    /* \"#utility.yul\":3951:3953   */\n  dup5\n    /* \"#utility.yul\":3947:3949   */\n  dup8\n    /* \"#utility.yul\":3943:3954   */\n  add\n    /* \"#utility.yul\":3939:3961   */\n  add\n    /* \"#utility.yul\":3936:3971   */\n  gt\n    /* \"#utility.yul\":3933:3988   */\n  iszero\n  tag_175\n  jumpi\n    /* \"#utility.yul\":3984:3985   */\n  0x00\n    /* \"#utility.yul\":3981:3982   */\n  dup1\n    /* \"#utility.yul\":3974:3986   */\n  revert\n    /* \"#utility.yul\":3933:3988   */\ntag_175:\n    /* \"#utility.yul\":3997:4056   */\n  tag_176\n    /* \"#utility.yul\":4053:4055   */\n  dup4\n    /* \"#utility.yul\":4046:4050   */\n  0x20\n    /* \"#utility.yul\":4038:4044   */\n  dup4\n    /* \"#utility.yul\":4034:4051   */\n  add\n    /* \"#utility.yul\":4027:4031   */\n  0x20\n    /* \"#utility.yul\":4023:4025   */\n  dup9\n    /* \"#utility.yul\":4019:4032   */\n  add\n    /* \"#utility.yul\":3997:4056   */\n  tag_131\n  jump\t// in\ntag_176:\n    /* \"#utility.yul\":4075:4081   */\n  dup1\n    /* \"#utility.yul\":4065:4081   */\n  swap7\n  pop\n  pop\n  pop\n  pop\n  pop\n  pop\n    /* \"#utility.yul\":4100:4151   */\n  tag_177\n    /* \"#utility.yul\":4145:4149   */\n  0x20\n    /* \"#utility.yul\":4134:4143   */\n  dup5\n    /* \"#utility.yul\":4130:4150   */\n  add\n    /* \"#utility.yul\":4100:4151   */\n  tag_132\n  jump\t// in\ntag_177:\n    /* \"#utility.yul\":4090:4151   */\n  swap1\n  pop\n    /* \"#utility.yul\":3180:4157   */\n  swap3\n  pop\n  swap3\n  swap1\n  pop\n  jump\t// out\n    /* \"#utility.yul\":5064:5289   */\ntag_57:\n    /* \"#utility.yul\":5104:5107   */\n  0x00\n    /* \"#utility.yul\":5135:5136   */\n  dup3\n    /* \"#utility.yul\":5131:5137   */\n  not\n    /* \"#utility.yul\":5128:5129   */\n  dup3\n    /* \"#utility.yul\":5125:5138   */\n  gt\n    /* \"#utility.yul\":5122:5258   */\n  iszero\n  tag_182\n  jumpi\n    /* \"#utility.yul\":5180:5190   */\n  0x4e487b71\n    /* \"#utility.yul\":5175:5178   */\n  0xe0\n    /* \"#utility.yul\":5171:5191   */\n  shl\n    /* \"#utility.yul\":5168:5169   */\n  0x00\n    /* \"#utility.yul\":5161:5192   */\n  mstore\n    /* \"#utility.yul\":5215:5219   */\n  0x11\n    /* \"#utility.yul\":5212:5213   */\n  0x04\n    /* \"#utility.yul\":5205:5220   */\n  mstore\n    /* \"#utility.yul\":5243:5247   */\n  0x24\n    /* \"#utility.yul\":5240:5241   */\n  0x00\n    /* \"#utility.yul\":5233:5248   */\n  revert\n    /* \"#utility.yul\":5122:5258   */\ntag_182:\n  pop\n    /* \"#utility.yul\":5274:5283   */\n  add\n  swap1\n    /* \"#utility.yul\":5064:5289   */\n  jump\t// out\n    /* \"#utility.yul\":5638:6292   */\ntag_101:\n    /* \"#utility.yul\":5832:5836   */\n  0x00\n    /* \"#utility.yul\":5878:5879   */\n  0x01\n    /* \"#utility.yul\":5874:5875   */\n  dup1\n    /* \"#utility.yul\":5869:5872   */\n  0xa0\n    /* \"#utility.yul\":5865:5876   */\n  shl\n    /* \"#utility.yul\":5861:5880   */\n  sub\n    /* \"#utility.yul\":5919:5921   */\n  dup1\n    /* \"#utility.yul\":5911:5917   */\n  dup8\n    /* \"#utility.yul\":5907:5922   */\n  and\n    /* \"#utility.yul\":5896:5905   */\n  dup4\n    /* \"#utility.yul\":5889:5923   */\n  mstore\n    /* \"#utility.yul\":5971:5973   */\n  dup1\n    /* \"#utility.yul\":5963:5969   */\n  dup7\n    /* \"#utility.yul\":5959:5974   */\n  and\n    /* \"#utility.yul\":5954:5956   */\n  0x20\n    /* \"#utility.yul\":5943:5952   */\n  dup5\n    /* \"#utility.yul\":5939:5957   */\n  add\n    /* \"#utility.yul\":5932:5975   */\n  mstore\n  pop\n    /* \"#utility.yul\":6011:6017   */\n  dup4\n    /* \"#utility.yul\":6006:6008   */\n  0x40\n    /* \"#utility.yul\":5995:6004   */\n  dup4\n    /* \"#utility.yul\":5991:6009   */\n  add\n    /* \"#utility.yul\":5984:6018   */\n  mstore\n    /* \"#utility.yul\":6054:6057   */\n  0x80\n    /* \"#utility.yul\":6049:6051   */\n  0x60\n    /* \"#utility.yul\":6038:6047   */\n  dup4\n    /* \"#utility.yul\":6034:6052   */\n  add\n    /* \"#utility.yul\":6027:6058   */\n  mstore\n    /* \"#utility.yul\":6087:6093   */\n  dup3\n    /* \"#utility.yul\":6081:6094   */\n  mload\n    /* \"#utility.yul\":6131:6137   */\n  dup1\n    /* \"#utility.yul\":6125:6128   */\n  0x80\n    /* \"#utility.yul\":6114:6123   */\n  dup5\n    /* \"#utility.yul\":6110:6129   */\n  add\n    /* \"#utility.yul\":6103:6138   */\n  mstore\n    /* \"#utility.yul\":6147:6214   */\n  tag_185\n    /* \"#utility.yul\":6207:6213   */\n  dup2\n    /* \"#utility.yul\":6201:6204   */\n  0xa0\n    /* \"#utility.yul\":6190:6199   */\n  dup6\n    /* \"#utility.yul\":6186:6205   */\n  add\n    /* \"#utility.yul\":6181:6183   */\n  0x20\n    /* \"#utility.yul\":6173:6179   */\n  dup8\n    /* \"#utility.yul\":6169:6184   */\n  add\n    /* \"#utility.yul\":6147:6214   */\n  tag_131\n  jump\t// in\ntag_185:\n    /* \"#utility.yul\":6275:6277   */\n  0x1f\n    /* \"#utility.yul\":6254:6269   */\n  add\n  not(0x1f)\n    /* \"#utility.yul\":6250:6279   */\n  and\n    /* \"#utility.yul\":6235:6280   */\n  swap2\n  swap1\n  swap2\n  add\n    /* \"#utility.yul\":6282:6285   */\n  0xa0\n    /* \"#utility.yul\":6231:6286   */\n  add\n  swap6\n    /* \"#utility.yul\":5638:6292   */\n  swap5\n  pop\n  pop\n  pop\n  pop\n  pop\n  jump\t// out\n    /* \"#utility.yul\":6297:6587   */\ntag_104:\n    /* \"#utility.yul\":6366:6372   */\n  0x00\n    /* \"#utility.yul\":6419:6421   */\n  0x20\n    /* \"#utility.yul\":6407:6416   */\n  dup3\n    /* \"#utility.yul\":6398:6405   */\n  dup5\n    /* \"#utility.yul\":6394:6417   */\n  sub\n    /* \"#utility.yul\":6390:6422   */\n  slt\n    /* \"#utility.yul\":6387:6439   */\n  iszero\n  tag_187\n  jumpi\n    /* \"#utility.yul\":6435:6436   */\n  0x00\n    /* \"#utility.yul\":6432:6433   */\n  dup1\n    /* \"#utility.yul\":6425:6437   */\n  revert\n    /* \"#utility.yul\":6387:6439   */\ntag_187:\n    /* \"#utility.yul\":6461:6477   */\n  dup2\n  mload\n  not(sub(shl(0xe0, 0x01), 0x01))\n    /* \"#utility.yul\":6506:6538   */\n  dup2\n  and\n    /* \"#utility.yul\":6496:6539   */\n  dup2\n  eq\n    /* \"#utility.yul\":6486:6557   */\n  tag_188\n  jumpi\n    /* \"#utility.yul\":6553:6554   */\n  0x00\n    /* \"#utility.yul\":6550:6551   */\n  dup1\n    /* \"#utility.yul\":6543:6555   */\n  revert\n    /* \"#utility.yul\":6486:6557   */\ntag_188:\n    /* \"#utility.yul\":6576:6581   */\n  swap4\n    /* \"#utility.yul\":6297:6587   */\n  swap3\n  pop\n  pop\n  pop\n  jump\t// out\ntag_133:\n    /* \"ERC721A/NagaKidsERC721A.sol\":271:3626  contract NagaKids is ERC721A, ERC721ABurnable, Ownable {... */\n  dataSize(sub_0)\n  dup1\n  dataOffset(sub_0)\n  0x00\n  codecopy\n  0x00\n  return\nstop\ndata_9924ebdf1add33d25d4ef888e16131f0a5687b0580a36c21b5c301a6c462effe 4f776e61626c653a2063616c6c6572206973206e6f7420746865206f776e6572\n\nsub_0: assembly {\n        /* \"ERC721A/NagaKidsERC721A.sol\":271:3626  contract NagaKids is ERC721A, ERC721ABurnable, Ownable {... */\n      mstore(0x40, 0x80)\n      callvalue\n      dup1\n      iszero\n      tag_1\n      jumpi\n      0x00\n      dup1\n      revert\n    tag_1:\n      pop\n      jumpi(tag_2, lt(calldatasize, 0x04))\n      shr(0xe0, calldataload(0x00))\n      dup1\n      0x70a08231\n      gt\n      tag_28\n      jumpi\n      dup1\n      0xaa271e1a\n      gt\n      tag_29\n      jumpi\n      dup1\n      0xc87b56dd\n      gt\n      tag_30\n      jumpi\n      dup1\n      0xc87b56dd\n      eq\n      tag_24\n      jumpi\n      dup1\n      0xd5abeb01\n      eq\n      tag_25\n      jumpi\n      dup1\n      0xe985e9c5\n      eq\n      tag_26\n      jumpi\n      dup1\n      0xf2fde38b\n      eq\n      tag_27\n      jumpi\n      0x00\n      dup1\n      revert\n    tag_30:\n      dup1\n      0xaa271e1a\n      eq\n      tag_21\n      jumpi\n      dup1\n      0xb88d4fde\n      eq\n      tag_22\n      jumpi\n      dup1\n      0xc6682862\n      eq\n      tag_23\n      jumpi\n      0x00\n      dup1\n      revert\n    tag_29:\n      dup1\n      0x70a08231\n      eq\n      tag_15\n      jumpi\n      dup1\n      0x715018a6\n      eq\n      tag_16\n      jumpi\n      dup1\n      0x8da5cb5b\n      eq\n      tag_17\n      jumpi\n      dup1\n      0x95d89b41\n      eq\n      tag_18\n      jumpi\n      dup1\n      0xa1448194\n      eq\n      tag_19\n      jumpi\n      dup1\n      0xa22cb465\n      eq\n      tag_20\n      jumpi\n      0x00\n      dup1\n      revert\n    tag_28:\n      dup1\n      0x3c713026\n      gt\n      tag_31\n      jumpi\n      dup1\n      0x3c713026\n      eq\n      tag_9\n      jumpi\n      dup1\n      0x42842e0e\n      eq\n      tag_10\n      jumpi\n      dup1\n      0x42966c68\n      eq\n      tag_11\n      jumpi\n      dup1\n      0x438b6300\n      eq\n      tag_12\n      jumpi\n      dup1\n      0x55f804b3\n      eq\n      tag_13\n      jumpi\n      dup1\n      0x6352211e\n      eq\n      tag_14\n      jumpi\n      0x00\n      dup1\n      revert\n    tag_31:\n      dup1\n      0x01ffc9a7\n      eq\n      tag_3\n      jumpi\n      dup1\n      0x06fdde03\n      eq\n      tag_4\n      jumpi\n      dup1\n      0x081812fc\n      eq\n      tag_5\n      jumpi\n      dup1\n      0x095ea7b3\n      eq\n      tag_6\n      jumpi\n      dup1\n      0x18160ddd\n      eq\n      tag_7\n      jumpi\n      dup1\n      0x23b872dd\n      eq\n      tag_8\n      jumpi\n    tag_2:\n      0x00\n      dup1\n      revert\n        /* \"ERC721A/NagaKidsERC721A.sol\":3308:3512  function supportsInterface(bytes4 interfaceId)... */\n    tag_3:\n      tag_32\n      tag_33\n      calldatasize\n      0x04\n      tag_34\n      jump\t// in\n    tag_33:\n      tag_35\n      jump\t// in\n    tag_32:\n      mload(0x40)\n        /* \"#utility.yul\":565:579   */\n      swap1\n      iszero\n        /* \"#utility.yul\":558:580   */\n      iszero\n        /* \"#utility.yul\":540:581   */\n      dup2\n      mstore\n        /* \"#utility.yul\":528:530   */\n      0x20\n        /* \"#utility.yul\":513:531   */\n      add\n        /* \"ERC721A/NagaKidsERC721A.sol\":3308:3512  function supportsInterface(bytes4 interfaceId)... */\n    tag_36:\n      mload(0x40)\n      dup1\n      swap2\n      sub\n      swap1\n      return\n        /* \"erc721a/contracts/ERC721A.sol\":11161:11259  function name() public view virtual override returns (string memory) {... */\n    tag_4:\n      tag_38\n      tag_39\n      jump\t// in\n    tag_38:\n      mload(0x40)\n      tag_36\n      swap2\n      swap1\n      tag_41\n      jump\t// in\n        /* \"erc721a/contracts/ERC721A.sol\":13048:13248  function getApproved(uint256 tokenId) public view override returns (address) {... */\n    tag_5:\n      tag_42\n      tag_43\n      calldatasize\n      0x04\n      tag_44\n      jump\t// in\n    tag_43:\n      tag_45\n      jump\t// in\n    tag_42:\n      mload(0x40)\n      sub(shl(0xa0, 0x01), 0x01)\n        /* \"#utility.yul\":1692:1724   */\n      swap1\n      swap2\n      and\n        /* \"#utility.yul\":1674:1725   */\n      dup2\n      mstore\n        /* \"#utility.yul\":1662:1664   */\n      0x20\n        /* \"#utility.yul\":1647:1665   */\n      add\n        /* \"erc721a/contracts/ERC721A.sol\":13048:13248  function getApproved(uint256 tokenId) public view override returns (address) {... */\n      tag_36\n        /* \"#utility.yul\":1528:1731   */\n      jump\n        /* \"erc721a/contracts/ERC721A.sol\":12611:12987  function approve(address to, uint256 tokenId) public override {... */\n    tag_6:\n      tag_48\n      tag_49\n      calldatasize\n      0x04\n      tag_50\n      jump\t// in\n    tag_49:\n      tag_51\n      jump\t// in\n    tag_48:\n      stop\n        /* \"erc721a/contracts/ERC721A.sol\":4736:5045  function totalSupply() public view override returns (uint256) {... */\n    tag_7:\n        /* \"ERC721A/NagaKidsERC721A.sol\":3612:3613  1 */\n      0x01\n        /* \"erc721a/contracts/ERC721A.sol\":4998:5010  _burnCounter */\n      sload\n        /* \"erc721a/contracts/ERC721A.sol\":4789:4796  uint256 */\n      0x00\n        /* \"erc721a/contracts/ERC721A.sol\":4982:4995  _currentIndex */\n      sload\n        /* \"erc721a/contracts/ERC721A.sol\":4982:5010  _currentIndex - _burnCounter */\n      sub\n      not(0x00)\n        /* \"erc721a/contracts/ERC721A.sol\":4982:5028  _currentIndex - _burnCounter - _startTokenId() */\n      add\n        /* \"erc721a/contracts/ERC721A.sol\":4736:5045  function totalSupply() public view override returns (uint256) {... */\n    tag_52:\n      mload(0x40)\n        /* \"#utility.yul\":2319:2344   */\n      swap1\n      dup2\n      mstore\n        /* \"#utility.yul\":2307:2309   */\n      0x20\n        /* \"#utility.yul\":2292:2310   */\n      add\n        /* \"erc721a/contracts/ERC721A.sol\":4736:5045  function totalSupply() public view override returns (uint256) {... */\n      tag_36\n        /* \"#utility.yul\":2173:2350   */\n      jump\n        /* \"erc721a/contracts/ERC721A.sol\":22055:24794  function transferFrom(... */\n    tag_8:\n      tag_48\n      tag_57\n      calldatasize\n      0x04\n      tag_58\n      jump\t// in\n    tag_57:\n      tag_59\n      jump\t// in\n        /* \"ERC721A/NagaKidsERC721A.sol\":1093:1272  function setAllowMinter(address minter, bool allowed) public onlyOwner {... */\n    tag_9:\n      tag_48\n      tag_61\n      calldatasize\n      0x04\n      tag_62\n      jump\t// in\n    tag_61:\n      tag_63\n      jump\t// in\n        /* \"erc721a/contracts/ERC721A.sol\":13912:14091  function safeTransferFrom(... */\n    tag_10:\n      tag_48\n      tag_65\n      calldatasize\n      0x04\n      tag_58\n      jump\t// in\n    tag_65:\n      tag_66\n      jump\t// in\n        /* \"erc721a/contracts/extensions/ERC721ABurnable.sol\":513:605  function burn(uint256 tokenId) public virtual override {... */\n    tag_11:\n      tag_48\n      tag_68\n      calldatasize\n      0x04\n      tag_44\n      jump\t// in\n    tag_68:\n      tag_69\n      jump\t// in\n        /* \"ERC721A/NagaKidsERC721A.sol\":2299:2987  function walletOfOwner(address owner) public view returns (uint256[] memory) {... */\n    tag_12:\n      tag_70\n      tag_71\n      calldatasize\n      0x04\n      tag_72\n      jump\t// in\n    tag_71:\n      tag_73\n      jump\t// in\n    tag_70:\n      mload(0x40)\n      tag_36\n      swap2\n      swap1\n      tag_75\n      jump\t// in\n        /* \"ERC721A/NagaKidsERC721A.sol\":1388:1490  function setBaseURI(string memory newBaseURI) public onlyOwner {... */\n    tag_13:\n      tag_48\n      tag_77\n      calldatasize\n      0x04\n      tag_78\n      jump\t// in\n    tag_77:\n      tag_79\n      jump\t// in\n        /* \"erc721a/contracts/ERC721A.sol\":10957:11099  function ownerOf(uint256 tokenId) public view override returns (address) {... */\n    tag_14:\n      tag_42\n      tag_81\n      calldatasize\n      0x04\n      tag_44\n      jump\t// in\n    tag_81:\n      tag_82\n      jump\t// in\n        /* \"erc721a/contracts/ERC721A.sol\":6319:6540  function balanceOf(address owner) public view override returns (uint256) {... */\n    tag_15:\n      tag_52\n      tag_85\n      calldatasize\n      0x04\n      tag_72\n      jump\t// in\n    tag_85:\n      tag_86\n      jump\t// in\n        /* \"@openzeppelin/contracts/access/Ownable.sol\":1668:1769  function renounceOwnership() public virtual onlyOwner {... */\n    tag_16:\n      tag_48\n      tag_89\n      jump\t// in\n        /* \"@openzeppelin/contracts/access/Ownable.sol\":1036:1121  function owner() public view virtual returns (address) {... */\n    tag_17:\n        /* \"@openzeppelin/contracts/access/Ownable.sol\":1108:1114  _owner */\n      and(sub(shl(0xa0, 0x01), 0x01), sload(0x08))\n        /* \"@openzeppelin/contracts/access/Ownable.sol\":1036:1121  function owner() public view virtual returns (address) {... */\n      jump(tag_42)\n        /* \"erc721a/contracts/ERC721A.sol\":11323:11425  function symbol() public view virtual override returns (string memory) {... */\n    tag_18:\n      tag_38\n      tag_94\n      jump\t// in\n        /* \"ERC721A/NagaKidsERC721A.sol\":1951:2177  function safeMint(address to,uint amount) public Minter(msg.sender) {... */\n    tag_19:\n      tag_48\n      tag_97\n      calldatasize\n      0x04\n      tag_50\n      jump\t// in\n    tag_97:\n      tag_98\n      jump\t// in\n        /* \"erc721a/contracts/ERC721A.sol\":13315:13618  function setApprovalForAll(address operator, bool approved) public virtual override {... */\n    tag_20:\n      tag_48\n      tag_100\n      calldatasize\n      0x04\n      tag_62\n      jump\t// in\n    tag_100:\n      tag_101\n      jump\t// in\n        /* \"ERC721A/NagaKidsERC721A.sol\":2185:2291  function isMinter(address minter) public view returns(bool) {... */\n    tag_21:\n      tag_32\n      tag_103\n      calldatasize\n      0x04\n      tag_72\n      jump\t// in\n    tag_103:\n      sub(shl(0xa0, 0x01), 0x01)\n        /* \"ERC721A/NagaKidsERC721A.sol\":2263:2283  _allowMinter[minter] */\n      and\n        /* \"ERC721A/NagaKidsERC721A.sol\":2239:2243  bool */\n      0x00\n        /* \"ERC721A/NagaKidsERC721A.sol\":2263:2283  _allowMinter[minter] */\n      swap1\n      dup2\n      mstore\n        /* \"ERC721A/NagaKidsERC721A.sol\":2263:2275  _allowMinter */\n      0x09\n        /* \"ERC721A/NagaKidsERC721A.sol\":2263:2283  _allowMinter[minter] */\n      0x20\n      mstore\n      0x40\n      swap1\n      keccak256\n      sload\n      0xff\n      and\n      swap1\n        /* \"ERC721A/NagaKidsERC721A.sol\":2185:2291  function isMinter(address minter) public view returns(bool) {... */\n      jump\n        /* \"erc721a/contracts/ERC721A.sol\":14157:14545  function safeTransferFrom(... */\n    tag_22:\n      tag_48\n      tag_107\n      calldatasize\n      0x04\n      tag_108\n      jump\t// in\n    tag_107:\n      tag_109\n      jump\t// in\n        /* \"ERC721A/NagaKidsERC721A.sol\":446:483  string public baseExtension = \".json\" */\n    tag_23:\n      tag_38\n      tag_111\n      jump\t// in\n        /* \"ERC721A/NagaKidsERC721A.sol\":1498:1942  function tokenURI(uint256 tokenId) public view virtual override(ERC721A,IERC721A) returns (string memory){... */\n    tag_24:\n      tag_38\n      tag_114\n      calldatasize\n      0x04\n      tag_44\n      jump\t// in\n    tag_114:\n      tag_115\n      jump\t// in\n        /* \"ERC721A/NagaKidsERC721A.sol\":490:530  uint256 public constant maxSupply = 1111 */\n    tag_25:\n      tag_52\n        /* \"ERC721A/NagaKidsERC721A.sol\":526:530  1111 */\n      0x0457\n        /* \"ERC721A/NagaKidsERC721A.sol\":490:530  uint256 public constant maxSupply = 1111 */\n      dup2\n      jump\n        /* \"erc721a/contracts/ERC721A.sol\":13684:13846  function isApprovedForAll(address owner, address operator) public view virtual override returns (bool) {... */\n    tag_26:\n      tag_32\n      tag_121\n      calldatasize\n      0x04\n      tag_122\n      jump\t// in\n    tag_121:\n      sub(shl(0xa0, 0x01), 0x01)\n        /* \"erc721a/contracts/ERC721A.sol\":13804:13829  _operatorApprovals[owner] */\n      swap2\n      dup3\n      and\n        /* \"erc721a/contracts/ERC721A.sol\":13781:13785  bool */\n      0x00\n        /* \"erc721a/contracts/ERC721A.sol\":13804:13829  _operatorApprovals[owner] */\n      swap1\n      dup2\n      mstore\n        /* \"erc721a/contracts/ERC721A.sol\":13804:13822  _operatorApprovals */\n      0x07\n        /* \"erc721a/contracts/ERC721A.sol\":13804:13829  _operatorApprovals[owner] */\n      0x20\n      swap1\n      dup2\n      mstore\n      0x40\n      dup1\n      dup4\n      keccak256\n        /* \"erc721a/contracts/ERC721A.sol\":13804:13839  _operatorApprovals[owner][operator] */\n      swap4\n      swap1\n      swap5\n      and\n      dup3\n      mstore\n      swap2\n      swap1\n      swap2\n      mstore\n      keccak256\n      sload\n      0xff\n      and\n      swap1\n        /* \"erc721a/contracts/ERC721A.sol\":13684:13846  function isApprovedForAll(address owner, address operator) public view virtual override returns (bool) {... */\n      jump\n        /* \"@openzeppelin/contracts/access/Ownable.sol\":1918:2116  function transferOwnership(address newOwner) public virtual onlyOwner {... */\n    tag_27:\n      tag_48\n      tag_126\n      calldatasize\n      0x04\n      tag_72\n      jump\t// in\n    tag_126:\n      tag_127\n      jump\t// in\n        /* \"ERC721A/NagaKidsERC721A.sol\":3308:3512  function supportsInterface(bytes4 interfaceId)... */\n    tag_35:\n        /* \"ERC721A/NagaKidsERC721A.sol\":3439:3443  bool */\n      0x00\n        /* \"ERC721A/NagaKidsERC721A.sol\":3468:3504  super.supportsInterface(interfaceId) */\n      tag_130\n        /* \"ERC721A/NagaKidsERC721A.sol\":3492:3503  interfaceId */\n      dup3\n        /* \"ERC721A/NagaKidsERC721A.sol\":3468:3491  super.supportsInterface */\n      tag_131\n        /* \"ERC721A/NagaKidsERC721A.sol\":3468:3504  super.supportsInterface(interfaceId) */\n      jump\t// in\n    tag_130:\n        /* \"ERC721A/NagaKidsERC721A.sol\":3461:3504  return super.supportsInterface(interfaceId) */\n      swap3\n        /* \"ERC721A/NagaKidsERC721A.sol\":3308:3512  function supportsInterface(bytes4 interfaceId)... */\n      swap2\n      pop\n      pop\n      jump\t// out\n        /* \"erc721a/contracts/ERC721A.sol\":11161:11259  function name() public view virtual override returns (string memory) {... */\n    tag_39:\n        /* \"erc721a/contracts/ERC721A.sol\":11215:11228  string memory */\n      0x60\n        /* \"erc721a/contracts/ERC721A.sol\":11247:11252  _name */\n      0x02\n        /* \"erc721a/contracts/ERC721A.sol\":11240:11252  return _name */\n      dup1\n      sload\n      tag_133\n      swap1\n      tag_134\n      jump\t// in\n    tag_133:\n      dup1\n      0x1f\n      add\n      0x20\n      dup1\n      swap2\n      div\n      mul\n      0x20\n      add\n      mload(0x40)\n      swap1\n      dup2\n      add\n      0x40\n      mstore\n      dup1\n      swap3\n      swap2\n      swap1\n      dup2\n      dup2\n      mstore\n      0x20\n      add\n      dup3\n      dup1\n      sload\n      tag_135\n      swap1\n      tag_134\n      jump\t// in\n    tag_135:\n      dup1\n      iszero\n      tag_136\n      jumpi\n      dup1\n      0x1f\n      lt\n      tag_137\n      jumpi\n      0x0100\n      dup1\n      dup4\n      sload\n      div\n      mul\n      dup4\n      mstore\n      swap2\n      0x20\n      add\n      swap2\n      jump(tag_136)\n    tag_137:\n      dup3\n      add\n      swap2\n      swap1\n      0x00\n      mstore\n      keccak256(0x00, 0x20)\n      swap1\n    tag_138:\n      dup2\n      sload\n      dup2\n      mstore\n      swap1\n      0x01\n      add\n      swap1\n      0x20\n      add\n      dup1\n      dup4\n      gt\n      tag_138\n      jumpi\n      dup3\n      swap1\n      sub\n      0x1f\n      and\n      dup3\n      add\n      swap2\n    tag_136:\n      pop\n      pop\n      pop\n      pop\n      pop\n      swap1\n      pop\n        /* \"erc721a/contracts/ERC721A.sol\":11161:11259  function name() public view virtual override returns (string memory) {... */\n      swap1\n      jump\t// out\n        /* \"erc721a/contracts/ERC721A.sol\":13048:13248  function getApproved(uint256 tokenId) public view override returns (address) {... */\n    tag_45:\n        /* \"erc721a/contracts/ERC721A.sol\":13116:13123  address */\n      0x00\n        /* \"erc721a/contracts/ERC721A.sol\":13140:13156  _exists(tokenId) */\n      tag_140\n        /* \"erc721a/contracts/ERC721A.sol\":13148:13155  tokenId */\n      dup3\n        /* \"erc721a/contracts/ERC721A.sol\":13140:13147  _exists */\n      tag_141\n        /* \"erc721a/contracts/ERC721A.sol\":13140:13156  _exists(tokenId) */\n      jump\t// in\n    tag_140:\n        /* \"erc721a/contracts/ERC721A.sol\":13135:13199  if (!_exists(tokenId)) revert ApprovalQueryForNonexistentToken() */\n      tag_142\n      jumpi\n        /* \"erc721a/contracts/ERC721A.sol\":13165:13199  ApprovalQueryForNonexistentToken() */\n      mload(0x40)\n      shl(0xe2, 0x33d1c039)\n      dup2\n      mstore\n      0x04\n      add\n      mload(0x40)\n      dup1\n      swap2\n      sub\n      swap1\n      revert\n        /* \"erc721a/contracts/ERC721A.sol\":13135:13199  if (!_exists(tokenId)) revert ApprovalQueryForNonexistentToken() */\n    tag_142:\n      pop\n        /* \"erc721a/contracts/ERC721A.sol\":13217:13241  _tokenApprovals[tokenId] */\n      0x00\n      swap1\n      dup2\n      mstore\n        /* \"erc721a/contracts/ERC721A.sol\":13217:13232  _tokenApprovals */\n      0x06\n        /* \"erc721a/contracts/ERC721A.sol\":13217:13241  _tokenApprovals[tokenId] */\n      0x20\n      mstore\n      0x40\n      swap1\n      keccak256\n      sload\n      sub(shl(0xa0, 0x01), 0x01)\n      and\n      swap1\n        /* \"erc721a/contracts/ERC721A.sol\":13048:13248  function getApproved(uint256 tokenId) public view override returns (address) {... */\n      jump\t// out\n        /* \"erc721a/contracts/ERC721A.sol\":12611:12987  function approve(address to, uint256 tokenId) public override {... */\n    tag_51:\n        /* \"erc721a/contracts/ERC721A.sol\":12683:12696  address owner */\n      0x00\n        /* \"erc721a/contracts/ERC721A.sol\":12699:12715  ownerOf(tokenId) */\n      tag_144\n        /* \"erc721a/contracts/ERC721A.sol\":12707:12714  tokenId */\n      dup3\n        /* \"erc721a/contracts/ERC721A.sol\":12699:12706  ownerOf */\n      tag_82\n        /* \"erc721a/contracts/ERC721A.sol\":12699:12715  ownerOf(tokenId) */\n      jump\t// in\n    tag_144:\n        /* \"erc721a/contracts/ERC721A.sol\":12683:12715  address owner = ownerOf(tokenId) */\n      swap1\n      pop\n        /* \"erc721a/contracts/ERC721A.sol\":32960:32970  msg.sender */\n      caller\n      sub(shl(0xa0, 0x01), 0x01)\n        /* \"erc721a/contracts/ERC721A.sol\":12730:12758  _msgSenderERC721A() != owner */\n      dup3\n      and\n      eq\n        /* \"erc721a/contracts/ERC721A.sol\":12726:12898  if (_msgSenderERC721A() != owner)... */\n      tag_150\n      jumpi\n        /* \"erc721a/contracts/ERC721A.sol\":12777:12821  isApprovedForAll(owner, _msgSenderERC721A()) */\n      tag_148\n        /* \"erc721a/contracts/ERC721A.sol\":12794:12799  owner */\n      dup2\n        /* \"erc721a/contracts/ERC721A.sol\":32960:32970  msg.sender */\n      caller\n        /* \"erc721a/contracts/ERC721A.sol\":13684:13846  function isApprovedForAll(address owner, address operator) public view virtual override returns (bool) {... */\n      tag_121\n      jump\t// in\n        /* \"erc721a/contracts/ERC721A.sol\":12777:12821  isApprovedForAll(owner, _msgSenderERC721A()) */\n    tag_148:\n        /* \"erc721a/contracts/ERC721A.sol\":12772:12898  if (!isApprovedForAll(owner, _msgSenderERC721A())) {... */\n      tag_150\n      jumpi\n        /* \"erc721a/contracts/ERC721A.sol\":12848:12883  ApprovalCallerNotOwnerNorApproved() */\n      mload(0x40)\n      shl(0xe1, 0x67d9dca1)\n      dup2\n      mstore\n      0x04\n      add\n      mload(0x40)\n      dup1\n      swap2\n      sub\n      swap1\n      revert\n        /* \"erc721a/contracts/ERC721A.sol\":12772:12898  if (!isApprovedForAll(owner, _msgSenderERC721A())) {... */\n    tag_150:\n        /* \"erc721a/contracts/ERC721A.sol\":12908:12932  _tokenApprovals[tokenId] */\n      0x00\n      dup3\n      dup2\n      mstore\n        /* \"erc721a/contracts/ERC721A.sol\":12908:12923  _tokenApprovals */\n      0x06\n        /* \"erc721a/contracts/ERC721A.sol\":12908:12932  _tokenApprovals[tokenId] */\n      0x20\n      mstore\n      0x40\n      dup1\n      dup3\n      keccak256\n        /* \"erc721a/contracts/ERC721A.sol\":12908:12937  _tokenApprovals[tokenId] = to */\n      dup1\n      sload\n      not(sub(shl(0xa0, 0x01), 0x01))\n      and\n      sub(shl(0xa0, 0x01), 0x01)\n      dup8\n      dup2\n      and\n      swap2\n      dup3\n      or\n      swap1\n      swap3\n      sstore\n        /* \"erc721a/contracts/ERC721A.sol\":12952:12980  Approval(owner, to, tokenId) */\n      swap2\n      mload\n        /* \"erc721a/contracts/ERC721A.sol\":12908:12932  _tokenApprovals[tokenId] */\n      dup6\n      swap4\n        /* \"erc721a/contracts/ERC721A.sol\":12952:12980  Approval(owner, to, tokenId) */\n      swap2\n      dup6\n      and\n      swap2\n      0x8c5be1e5ebec7d5bd14f71427d1e84f3dd0314c0f7b2291e5b200ac8c7c3b925\n      swap2\n      log4\n        /* \"erc721a/contracts/ERC721A.sol\":12673:12987  {... */\n      pop\n        /* \"erc721a/contracts/ERC721A.sol\":12611:12987  function approve(address to, uint256 tokenId) public override {... */\n      pop\n      pop\n      jump\t// out\n        /* \"erc721a/contracts/ERC721A.sol\":22055:24794  function transferFrom(... */\n    tag_59:\n        /* \"erc721a/contracts/ERC721A.sol\":22184:22211  uint256 prevOwnershipPacked */\n      0x00\n        /* \"erc721a/contracts/ERC721A.sol\":22214:22241  _packedOwnershipOf(tokenId) */\n      tag_155\n        /* \"erc721a/contracts/ERC721A.sol\":22233:22240  tokenId */\n      dup3\n        /* \"erc721a/contracts/ERC721A.sol\":22214:22232  _packedOwnershipOf */\n      tag_156\n        /* \"erc721a/contracts/ERC721A.sol\":22214:22241  _packedOwnershipOf(tokenId) */\n      jump\t// in\n    tag_155:\n        /* \"erc721a/contracts/ERC721A.sol\":22184:22241  uint256 prevOwnershipPacked = _packedOwnershipOf(tokenId) */\n      swap1\n      pop\n        /* \"erc721a/contracts/ERC721A.sol\":22297:22301  from */\n      dup4\n      sub(shl(0xa0, 0x01), 0x01)\n        /* \"erc721a/contracts/ERC721A.sol\":22256:22301  address(uint160(prevOwnershipPacked)) != from */\n      and\n        /* \"erc721a/contracts/ERC721A.sol\":22272:22291  prevOwnershipPacked */\n      dup2\n      sub(shl(0xa0, 0x01), 0x01)\n        /* \"erc721a/contracts/ERC721A.sol\":22256:22301  address(uint160(prevOwnershipPacked)) != from */\n      and\n      eq\n        /* \"erc721a/contracts/ERC721A.sol\":22252:22338  if (address(uint160(prevOwnershipPacked)) != from) revert TransferFromIncorrectOwner() */\n      tag_157\n      jumpi\n        /* \"erc721a/contracts/ERC721A.sol\":22310:22338  TransferFromIncorrectOwner() */\n      mload(0x40)\n      shl(0xe8, 0xa11481)\n      dup2\n      mstore\n      0x04\n      add\n      mload(0x40)\n      dup1\n      swap2\n      sub\n      swap1\n      revert\n        /* \"erc721a/contracts/ERC721A.sol\":22252:22338  if (address(uint160(prevOwnershipPacked)) != from) revert TransferFromIncorrectOwner() */\n    tag_157:\n        /* \"erc721a/contracts/ERC721A.sol\":22350:22377  uint256 approvedAddressSlot */\n      0x00\n        /* \"erc721a/contracts/ERC721A.sol\":20821:20842  mstore(0x00, tokenId) */\n      dup3\n      dup2\n      mstore\n        /* \"erc721a/contracts/ERC721A.sol\":20652:20667  _tokenApprovals */\n      0x06\n        /* \"erc721a/contracts/ERC721A.sol\":20862:20866  0x20 */\n      0x20\n        /* \"erc721a/contracts/ERC721A.sol\":20855:20891  mstore(0x20, tokenApprovalsPtr.slot) */\n      mstore\n        /* \"erc721a/contracts/ERC721A.sol\":20943:20947  0x40 */\n      0x40\n        /* \"erc721a/contracts/ERC721A.sol\":20927:20948  keccak256(0x00, 0x40) */\n      swap1\n      keccak256\n        /* \"erc721a/contracts/ERC721A.sol\":21031:21057  sload(approvedAddressSlot) */\n      dup1\n      sload\n        /* \"erc721a/contracts/ERC721A.sol\":22531:22593  _isOwnerOrApproved(approvedAddress, from, _msgSenderERC721A()) */\n      tag_160\n        /* \"erc721a/contracts/ERC721A.sol\":21031:21057  sload(approvedAddressSlot) */\n      dup2\n        /* \"erc721a/contracts/ERC721A.sol\":22567:22571  from */\n      dup8\n        /* \"erc721a/contracts/ERC721A.sol\":32960:32970  msg.sender */\n      caller\n        /* \"erc721a/contracts/ERC721A.sol\":22573:22592  _msgSenderERC721A() */\n    tag_161:\n      sub(shl(0xa0, 0x01), 0x01)\n        /* \"erc721a/contracts/ERC721A.sol\":21620:21651  and(msgSender, BITMASK_ADDRESS) */\n      swap1\n      dup2\n      and\n        /* \"erc721a/contracts/ERC721A.sol\":21468:21494  and(from, BITMASK_ADDRESS) */\n      swap2\n      and\n        /* \"erc721a/contracts/ERC721A.sol\":21745:21764  eq(msgSender, from) */\n      dup2\n      eq\n        /* \"erc721a/contracts/ERC721A.sol\":21766:21796  eq(msgSender, approvedAddress) */\n      swap2\n      eq\n        /* \"erc721a/contracts/ERC721A.sol\":21742:21797  or(eq(msgSender, from), eq(msgSender, approvedAddress)) */\n      or\n      swap1\n        /* \"erc721a/contracts/ERC721A.sol\":21181:21813  function _isOwnerOrApproved(... */\n      jump\n        /* \"erc721a/contracts/ERC721A.sol\":22531:22593  _isOwnerOrApproved(approvedAddress, from, _msgSenderERC721A()) */\n    tag_160:\n        /* \"erc721a/contracts/ERC721A.sol\":22526:22699  if (!_isOwnerOrApproved(approvedAddress, from, _msgSenderERC721A()))... */\n      tag_166\n      jumpi\n        /* \"erc721a/contracts/ERC721A.sol\":22612:22655  isApprovedForAll(from, _msgSenderERC721A()) */\n      tag_164\n        /* \"erc721a/contracts/ERC721A.sol\":22629:22633  from */\n      dup7\n        /* \"erc721a/contracts/ERC721A.sol\":32960:32970  msg.sender */\n      caller\n        /* \"erc721a/contracts/ERC721A.sol\":13684:13846  function isApprovedForAll(address owner, address operator) public view virtual override returns (bool) {... */\n      tag_121\n      jump\t// in\n        /* \"erc721a/contracts/ERC721A.sol\":22612:22655  isApprovedForAll(from, _msgSenderERC721A()) */\n    tag_164:\n        /* \"erc721a/contracts/ERC721A.sol\":22607:22699  if (!isApprovedForAll(from, _msgSenderERC721A())) revert TransferCallerNotOwnerNorApproved() */\n      tag_166\n      jumpi\n        /* \"erc721a/contracts/ERC721A.sol\":22664:22699  TransferCallerNotOwnerNorApproved() */\n      mload(0x40)\n      shl(0xe1, 0x2ce44b5f)\n      dup2\n      mstore\n      0x04\n      add\n      mload(0x40)\n      dup1\n      swap2\n      sub\n      swap1\n      revert\n        /* \"erc721a/contracts/ERC721A.sol\":22607:22699  if (!isApprovedForAll(from, _msgSenderERC721A())) revert TransferCallerNotOwnerNorApproved() */\n    tag_166:\n      sub(shl(0xa0, 0x01), 0x01)\n        /* \"erc721a/contracts/ERC721A.sol\":22714:22730  to == address(0) */\n      dup6\n      and\n        /* \"erc721a/contracts/ERC721A.sol\":22710:22762  if (to == address(0)) revert TransferToZeroAddress() */\n      tag_167\n      jumpi\n        /* \"erc721a/contracts/ERC721A.sol\":22739:22762  TransferToZeroAddress() */\n      mload(0x40)\n      shl(0xe2, 0x3a954ecd)\n      dup2\n      mstore\n      0x04\n      add\n      mload(0x40)\n      dup1\n      swap2\n      sub\n      swap1\n      revert\n        /* \"erc721a/contracts/ERC721A.sol\":22710:22762  if (to == address(0)) revert TransferToZeroAddress() */\n    tag_167:\n        /* \"erc721a/contracts/ERC721A.sol\":22773:22816  _beforeTokenTransfers(from, to, tokenId, 1) */\n      tag_168\n        /* \"erc721a/contracts/ERC721A.sol\":22795:22799  from */\n      dup7\n        /* \"erc721a/contracts/ERC721A.sol\":22801:22803  to */\n      dup7\n        /* \"erc721a/contracts/ERC721A.sol\":22805:22812  tokenId */\n      dup7\n        /* \"erc721a/contracts/ERC721A.sol\":22814:22815  1 */\n      0x01\n        /* \"erc721a/contracts/ERC721A.sol\":22773:22794  _beforeTokenTransfers */\n      tag_169\n        /* \"erc721a/contracts/ERC721A.sol\":22773:22816  _beforeTokenTransfers(from, to, tokenId, 1) */\n      jump\t// in\n    tag_168:\n        /* \"erc721a/contracts/ERC721A.sol\":22905:22920  approvedAddress */\n      dup1\n        /* \"erc721a/contracts/ERC721A.sol\":22902:23059  if approvedAddress {... */\n      iszero\n      tag_170\n      jumpi\n        /* \"erc721a/contracts/ERC721A.sol\":23043:23044  0 */\n      0x00\n        /* \"erc721a/contracts/ERC721A.sol\":23022:23041  approvedAddressSlot */\n      dup3\n        /* \"erc721a/contracts/ERC721A.sol\":23015:23045  sstore(approvedAddressSlot, 0) */\n      sstore\n        /* \"erc721a/contracts/ERC721A.sol\":22902:23059  if approvedAddress {... */\n    tag_170:\n      sub(shl(0xa0, 0x01), 0x01)\n        /* \"erc721a/contracts/ERC721A.sol\":23429:23453  _packedAddressData[from] */\n      dup7\n      dup2\n      and\n      0x00\n      swap1\n      dup2\n      mstore\n        /* \"erc721a/contracts/ERC721A.sol\":23429:23447  _packedAddressData */\n      0x05\n        /* \"erc721a/contracts/ERC721A.sol\":23429:23453  _packedAddressData[from] */\n      0x20\n      mstore\n      0x40\n      dup1\n      dup3\n      keccak256\n        /* \"erc721a/contracts/ERC721A.sol\":23427:23453  --_packedAddressData[from] */\n      dup1\n      sload\n      not(0x00)\n      add\n      swap1\n      sstore\n        /* \"erc721a/contracts/ERC721A.sol\":23497:23519  _packedAddressData[to] */\n      swap2\n      dup8\n      and\n      dup1\n      dup3\n      mstore\n      swap2\n      swap1\n      keccak256\n        /* \"erc721a/contracts/ERC721A.sol\":23495:23519  ++_packedAddressData[to] */\n      dup1\n      sload\n      0x01\n      add\n      swap1\n      sstore\n        /* \"erc721a/contracts/ERC721A.sol\":10863:10874  timestamp() */\n      timestamp\n        /* \"erc721a/contracts/ERC721A.sol\":10839:10861  BITPOS_START_TIMESTAMP */\n      0xa0\n        /* \"erc721a/contracts/ERC721A.sol\":10835:10875  shl(BITPOS_START_TIMESTAMP, timestamp()) */\n      shl\n        /* \"erc721a/contracts/ERC721A.sol\":10822:10884  or(owner, or(shl(BITPOS_START_TIMESTAMP, timestamp()), flags)) */\n      or\n      shl(0xe1, 0x01)\n      or\n        /* \"erc721a/contracts/ERC721A.sol\":23783:23809  _packedOwnerships[tokenId] */\n      0x00\n      dup6\n      dup2\n      mstore\n        /* \"erc721a/contracts/ERC721A.sol\":23783:23800  _packedOwnerships */\n      0x04\n        /* \"erc721a/contracts/ERC721A.sol\":23783:23809  _packedOwnerships[tokenId] */\n      0x20\n      mstore\n      0x40\n      dup2\n      keccak256\n        /* \"erc721a/contracts/ERC721A.sol\":23783:23954  _packedOwnerships[tokenId] = _packOwnershipData(... */\n      swap2\n      swap1\n      swap2\n      sstore\n      shl(0xe1, 0x01)\n        /* \"erc721a/contracts/ERC721A.sol\":24071:24117  prevOwnershipPacked & BITMASK_NEXT_INITIALIZED */\n      dup5\n      and\n        /* \"erc721a/contracts/ERC721A.sol\":24071:24122  prevOwnershipPacked & BITMASK_NEXT_INITIALIZED == 0 */\n      swap1\n      sub\n        /* \"erc721a/contracts/ERC721A.sol\":24067:24683  if (prevOwnershipPacked & BITMASK_NEXT_INITIALIZED == 0) {... */\n      tag_175\n      jumpi\n        /* \"erc721a/contracts/ERC721A.sol\":24174:24175  1 */\n      0x01\n        /* \"erc721a/contracts/ERC721A.sol\":24164:24175  tokenId + 1 */\n      dup5\n      add\n        /* \"erc721a/contracts/ERC721A.sol\":24142:24161  uint256 nextTokenId */\n      0x00\n        /* \"erc721a/contracts/ERC721A.sol\":24295:24325  _packedOwnerships[nextTokenId] */\n      dup2\n      dup2\n      mstore\n        /* \"erc721a/contracts/ERC721A.sol\":24295:24312  _packedOwnerships */\n      0x04\n        /* \"erc721a/contracts/ERC721A.sol\":24295:24325  _packedOwnerships[nextTokenId] */\n      0x20\n      mstore\n      0x40\n      dup2\n      keccak256\n      sload\n        /* \"erc721a/contracts/ERC721A.sol\":24295:24330  _packedOwnerships[nextTokenId] == 0 */\n      swap1\n      sub\n        /* \"erc721a/contracts/ERC721A.sol\":24291:24669  if (_packedOwnerships[nextTokenId] == 0) {... */\n      tag_177\n      jumpi\n        /* \"erc721a/contracts/ERC721A.sol\":24431:24444  _currentIndex */\n      sload(0x00)\n        /* \"erc721a/contracts/ERC721A.sol\":24416:24427  nextTokenId */\n      dup2\n        /* \"erc721a/contracts/ERC721A.sol\":24416:24444  nextTokenId != _currentIndex */\n      eq\n        /* \"erc721a/contracts/ERC721A.sol\":24412:24651  if (nextTokenId != _currentIndex) {... */\n      tag_177\n      jumpi\n        /* \"erc721a/contracts/ERC721A.sol\":24576:24606  _packedOwnerships[nextTokenId] */\n      0x00\n      dup2\n      dup2\n      mstore\n        /* \"erc721a/contracts/ERC721A.sol\":24576:24593  _packedOwnerships */\n      0x04\n        /* \"erc721a/contracts/ERC721A.sol\":24576:24606  _packedOwnerships[nextTokenId] */\n      0x20\n      mstore\n      0x40\n      swap1\n      keccak256\n        /* \"erc721a/contracts/ERC721A.sol\":24576:24628  _packedOwnerships[nextTokenId] = prevOwnershipPacked */\n      dup5\n      swap1\n      sstore\n        /* \"erc721a/contracts/ERC721A.sol\":24412:24651  if (nextTokenId != _currentIndex) {... */\n    tag_177:\n        /* \"erc721a/contracts/ERC721A.sol\":24124:24683  {... */\n      pop\n        /* \"erc721a/contracts/ERC721A.sol\":24067:24683  if (prevOwnershipPacked & BITMASK_NEXT_INITIALIZED == 0) {... */\n    tag_175:\n        /* \"erc721a/contracts/ERC721A.sol\":24727:24734  tokenId */\n      dup4\n        /* \"erc721a/contracts/ERC721A.sol\":24723:24725  to */\n      dup6\n      sub(shl(0xa0, 0x01), 0x01)\n        /* \"erc721a/contracts/ERC721A.sol\":24708:24735  Transfer(from, to, tokenId) */\n      and\n        /* \"erc721a/contracts/ERC721A.sol\":24717:24721  from */\n      dup8\n      sub(shl(0xa0, 0x01), 0x01)\n        /* \"erc721a/contracts/ERC721A.sol\":24708:24735  Transfer(from, to, tokenId) */\n      and\n      0xddf252ad1be2c89b69c2b068fc378daa952ba7f163c4a11628f55a4df523b3ef\n      mload(0x40)\n      mload(0x40)\n      dup1\n      swap2\n      sub\n      swap1\n      log4\n        /* \"erc721a/contracts/ERC721A.sol\":24745:24787  _afterTokenTransfers(from, to, tokenId, 1) */\n    tag_178:\n        /* \"erc721a/contracts/ERC721A.sol\":22174:24794  {... */\n      pop\n      pop\n      pop\n        /* \"erc721a/contracts/ERC721A.sol\":22055:24794  function transferFrom(... */\n      pop\n      pop\n      pop\n      jump\t// out\n        /* \"ERC721A/NagaKidsERC721A.sol\":1093:1272  function setAllowMinter(address minter, bool allowed) public onlyOwner {... */\n    tag_63:\n        /* \"@openzeppelin/contracts/access/Ownable.sol\":1108:1114  _owner */\n      and(sub(shl(0xa0, 0x01), 0x01), sload(0x08))\n        /* \"erc721a/contracts/ERC721A.sol\":32960:32970  msg.sender */\n      caller\n        /* \"@openzeppelin/contracts/access/Ownable.sol\":1248:1271  owner() == _msgSender() */\n      eq\n        /* \"@openzeppelin/contracts/access/Ownable.sol\":1240:1308  require(owner() == _msgSender(), \"Ownable: caller is not the owner\") */\n      tag_184\n      jumpi\n      mload(0x40)\n      shl(0xe5, 0x461bcd)\n      dup2\n      mstore\n      0x04\n      add\n      tag_185\n      swap1\n      tag_186\n      jump\t// in\n    tag_185:\n      mload(0x40)\n      dup1\n      swap2\n      sub\n      swap1\n      revert\n    tag_184:\n      sub(shl(0xa0, 0x01), 0x01)\n        /* \"ERC721A/NagaKidsERC721A.sol\":1175:1195  _allowMinter[minter] */\n      dup3\n      and\n      0x00\n      dup2\n      dup2\n      mstore\n        /* \"ERC721A/NagaKidsERC721A.sol\":1175:1187  _allowMinter */\n      0x09\n        /* \"ERC721A/NagaKidsERC721A.sol\":1175:1195  _allowMinter[minter] */\n      0x20\n      swap1\n      dup2\n      mstore\n      0x40\n      swap2\n      dup3\n      swap1\n      keccak256\n        /* \"ERC721A/NagaKidsERC721A.sol\":1175:1205  _allowMinter[minter] = allowed */\n      dup1\n      sload\n      not(0xff)\n      and\n      dup6\n      iszero\n      iszero\n      swap1\n      dup2\n      or\n      swap1\n      swap2\n      sstore\n        /* \"ERC721A/NagaKidsERC721A.sol\":1221:1264  SetAllowMinter(msg.sender, minter, allowed) */\n      swap2\n      mload\n        /* \"#utility.yul\":540:581   */\n      swap2\n      dup3\n      mstore\n        /* \"ERC721A/NagaKidsERC721A.sol\":1236:1246  msg.sender */\n      caller\n      swap2\n        /* \"ERC721A/NagaKidsERC721A.sol\":1221:1264  SetAllowMinter(msg.sender, minter, allowed) */\n      0x3c49a0d2dcd603245c20eb1985825d770748295cd570de6d24861080451bbd41\n      swap2\n        /* \"#utility.yul\":513:531   */\n      add\n        /* \"ERC721A/NagaKidsERC721A.sol\":1221:1264  SetAllowMinter(msg.sender, minter, allowed) */\n    tag_188:\n      mload(0x40)\n      dup1\n      swap2\n      sub\n      swap1\n      log3\n        /* \"ERC721A/NagaKidsERC721A.sol\":1093:1272  function setAllowMinter(address minter, bool allowed) public onlyOwner {... */\n      pop\n      pop\n      jump\t// out\n        /* \"erc721a/contracts/ERC721A.sol\":13912:14091  function safeTransferFrom(... */\n    tag_66:\n        /* \"erc721a/contracts/ERC721A.sol\":14045:14084  safeTransferFrom(from, to, tokenId, '') */\n      tag_190\n        /* \"erc721a/contracts/ERC721A.sol\":14062:14066  from */\n      dup4\n        /* \"erc721a/contracts/ERC721A.sol\":14068:14070  to */\n      dup4\n        /* \"erc721a/contracts/ERC721A.sol\":14072:14079  tokenId */\n      dup4\n        /* \"erc721a/contracts/ERC721A.sol\":14045:14084  safeTransferFrom(from, to, tokenId, '') */\n      mload(0x40)\n      dup1\n      0x20\n      add\n      0x40\n      mstore\n      dup1\n      0x00\n      dup2\n      mstore\n      pop\n        /* \"erc721a/contracts/ERC721A.sol\":14045:14061  safeTransferFrom */\n      tag_109\n        /* \"erc721a/contracts/ERC721A.sol\":14045:14084  safeTransferFrom(from, to, tokenId, '') */\n      jump\t// in\n    tag_190:\n        /* \"erc721a/contracts/ERC721A.sol\":13912:14091  function safeTransferFrom(... */\n      pop\n      pop\n      pop\n      jump\t// out\n        /* \"erc721a/contracts/extensions/ERC721ABurnable.sol\":513:605  function burn(uint256 tokenId) public virtual override {... */\n    tag_69:\n        /* \"erc721a/contracts/extensions/ERC721ABurnable.sol\":578:598  _burn(tokenId, true) */\n      tag_192\n        /* \"erc721a/contracts/extensions/ERC721ABurnable.sol\":584:591  tokenId */\n      dup2\n        /* \"erc721a/contracts/extensions/ERC721ABurnable.sol\":593:597  true */\n      0x01\n        /* \"erc721a/contracts/extensions/ERC721ABurnable.sol\":578:583  _burn */\n      tag_193\n        /* \"erc721a/contracts/extensions/ERC721ABurnable.sol\":578:598  _burn(tokenId, true) */\n      jump\t// in\n    tag_192:\n        /* \"erc721a/contracts/extensions/ERC721ABurnable.sol\":513:605  function burn(uint256 tokenId) public virtual override {... */\n      pop\n      jump\t// out\n        /* \"ERC721A/NagaKidsERC721A.sol\":2299:2987  function walletOfOwner(address owner) public view returns (uint256[] memory) {... */\n    tag_73:\n        /* \"ERC721A/NagaKidsERC721A.sol\":2358:2374  uint256[] memory */\n      0x60\n        /* \"ERC721A/NagaKidsERC721A.sol\":2387:2410  uint256 ownerTokenCount */\n      0x00\n        /* \"ERC721A/NagaKidsERC721A.sol\":2413:2429  balanceOf(owner) */\n      tag_195\n        /* \"ERC721A/NagaKidsERC721A.sol\":2423:2428  owner */\n      dup4\n        /* \"ERC721A/NagaKidsERC721A.sol\":2413:2422  balanceOf */\n      tag_86\n        /* \"ERC721A/NagaKidsERC721A.sol\":2413:2429  balanceOf(owner) */\n      jump\t// in\n    tag_195:\n        /* \"ERC721A/NagaKidsERC721A.sol\":2387:2429  uint256 ownerTokenCount = balanceOf(owner) */\n      swap1\n      pop\n        /* \"ERC721A/NagaKidsERC721A.sol\":2440:2470  uint256[] memory ownedTokenIds */\n      0x00\n        /* \"ERC721A/NagaKidsERC721A.sol\":2487:2502  ownerTokenCount */\n      dup2\n        /* \"ERC721A/NagaKidsERC721A.sol\":2473:2503  new uint256[](ownerTokenCount) */\n      0xffffffffffffffff\n      dup2\n      gt\n      iszero\n      tag_197\n      jumpi\n      tag_197\n      tag_198\n      jump\t// in\n    tag_197:\n      mload(0x40)\n      swap1\n      dup1\n      dup3\n      mstore\n      dup1\n      0x20\n      mul\n      0x20\n      add\n      dup3\n      add\n      0x40\n      mstore\n      dup1\n      iszero\n      tag_199\n      jumpi\n      dup2\n      0x20\n      add\n      0x20\n      dup3\n      mul\n      dup1\n      calldatasize\n      dup4\n      calldatacopy\n      add\n      swap1\n      pop\n    tag_199:\n      pop\n        /* \"ERC721A/NagaKidsERC721A.sol\":2440:2503  uint256[] memory ownedTokenIds = new uint256[](ownerTokenCount) */\n      swap1\n      pop\n        /* \"ERC721A/NagaKidsERC721A.sol\":2539:2540  1 */\n      0x01\n        /* \"ERC721A/NagaKidsERC721A.sol\":2514:2536  uint256 currentTokenId */\n      0x00\n        /* \"ERC721A/NagaKidsERC721A.sol\":2591:2947  while (ownedTokenIndex < ownerTokenCount && currentTokenId <= maxSupply) {... */\n    tag_200:\n        /* \"ERC721A/NagaKidsERC721A.sol\":2616:2631  ownerTokenCount */\n      dup4\n        /* \"ERC721A/NagaKidsERC721A.sol\":2598:2613  ownedTokenIndex */\n      dup2\n        /* \"ERC721A/NagaKidsERC721A.sol\":2598:2631  ownedTokenIndex < ownerTokenCount */\n      lt\n        /* \"ERC721A/NagaKidsERC721A.sol\":2598:2662  ownedTokenIndex < ownerTokenCount && currentTokenId <= maxSupply */\n      dup1\n      iszero\n      tag_202\n      jumpi\n      pop\n        /* \"ERC721A/NagaKidsERC721A.sol\":526:530  1111 */\n      0x0457\n        /* \"ERC721A/NagaKidsERC721A.sol\":2635:2649  currentTokenId */\n      dup3\n        /* \"ERC721A/NagaKidsERC721A.sol\":2635:2662  currentTokenId <= maxSupply */\n      gt\n      iszero\n        /* \"ERC721A/NagaKidsERC721A.sol\":2598:2662  ownedTokenIndex < ownerTokenCount && currentTokenId <= maxSupply */\n    tag_202:\n        /* \"ERC721A/NagaKidsERC721A.sol\":2591:2947  while (ownedTokenIndex < ownerTokenCount && currentTokenId <= maxSupply) {... */\n      iszero\n      tag_201\n      jumpi\n        /* \"ERC721A/NagaKidsERC721A.sol\":2681:2706  address currentTokenOwner */\n      0x00\n        /* \"ERC721A/NagaKidsERC721A.sol\":2709:2732  ownerOf(currentTokenId) */\n      tag_203\n        /* \"ERC721A/NagaKidsERC721A.sol\":2717:2731  currentTokenId */\n      dup4\n        /* \"ERC721A/NagaKidsERC721A.sol\":2709:2716  ownerOf */\n      tag_82\n        /* \"ERC721A/NagaKidsERC721A.sol\":2709:2732  ownerOf(currentTokenId) */\n      jump\t// in\n    tag_203:\n        /* \"ERC721A/NagaKidsERC721A.sol\":2681:2732  address currentTokenOwner = ownerOf(currentTokenId) */\n      swap1\n      pop\n        /* \"ERC721A/NagaKidsERC721A.sol\":2774:2779  owner */\n      dup7\n      sub(shl(0xa0, 0x01), 0x01)\n        /* \"ERC721A/NagaKidsERC721A.sol\":2753:2779  currentTokenOwner == owner */\n      and\n        /* \"ERC721A/NagaKidsERC721A.sol\":2753:2770  currentTokenOwner */\n      dup2\n      sub(shl(0xa0, 0x01), 0x01)\n        /* \"ERC721A/NagaKidsERC721A.sol\":2753:2779  currentTokenOwner == owner */\n      and\n      sub\n        /* \"ERC721A/NagaKidsERC721A.sol\":2749:2901  if (currentTokenOwner == owner) {... */\n      tag_204\n      jumpi\n        /* \"ERC721A/NagaKidsERC721A.sol\":2833:2847  currentTokenId */\n      dup3\n        /* \"ERC721A/NagaKidsERC721A.sol\":2800:2813  ownedTokenIds */\n      dup5\n        /* \"ERC721A/NagaKidsERC721A.sol\":2814:2829  ownedTokenIndex */\n      dup4\n        /* \"ERC721A/NagaKidsERC721A.sol\":2800:2830  ownedTokenIds[ownedTokenIndex] */\n      dup2\n      mload\n      dup2\n      lt\n      tag_206\n      jumpi\n      tag_206\n      tag_207\n      jump\t// in\n    tag_206:\n      0x20\n      swap1\n      dup2\n      mul\n      swap2\n      swap1\n      swap2\n      add\n      add\n        /* \"ERC721A/NagaKidsERC721A.sol\":2800:2847  ownedTokenIds[ownedTokenIndex] = currentTokenId */\n      mstore\n        /* \"ERC721A/NagaKidsERC721A.sol\":2868:2885  ownedTokenIndex++ */\n      dup2\n      tag_208\n      dup2\n      tag_209\n      jump\t// in\n    tag_208:\n      swap3\n      pop\n      pop\n        /* \"ERC721A/NagaKidsERC721A.sol\":2749:2901  if (currentTokenOwner == owner) {... */\n    tag_204:\n        /* \"ERC721A/NagaKidsERC721A.sol\":2917:2933  currentTokenId++ */\n      dup3\n      tag_210\n      dup2\n      tag_209\n      jump\t// in\n    tag_210:\n      swap4\n      pop\n      pop\n        /* \"ERC721A/NagaKidsERC721A.sol\":2664:2947  {... */\n      pop\n        /* \"ERC721A/NagaKidsERC721A.sol\":2591:2947  while (ownedTokenIndex < ownerTokenCount && currentTokenId <= maxSupply) {... */\n      jump(tag_200)\n    tag_201:\n      pop\n        /* \"ERC721A/NagaKidsERC721A.sol\":2966:2979  ownedTokenIds */\n      swap1\n      swap5\n        /* \"ERC721A/NagaKidsERC721A.sol\":2299:2987  function walletOfOwner(address owner) public view returns (uint256[] memory) {... */\n      swap4\n      pop\n      pop\n      pop\n      pop\n      jump\t// out\n        /* \"ERC721A/NagaKidsERC721A.sol\":1388:1490  function setBaseURI(string memory newBaseURI) public onlyOwner {... */\n    tag_79:\n        /* \"@openzeppelin/contracts/access/Ownable.sol\":1108:1114  _owner */\n      and(sub(shl(0xa0, 0x01), 0x01), sload(0x08))\n        /* \"erc721a/contracts/ERC721A.sol\":32960:32970  msg.sender */\n      caller\n        /* \"@openzeppelin/contracts/access/Ownable.sol\":1248:1271  owner() == _msgSender() */\n      eq\n        /* \"@openzeppelin/contracts/access/Ownable.sol\":1240:1308  require(owner() == _msgSender(), \"Ownable: caller is not the owner\") */\n      tag_214\n      jumpi\n      mload(0x40)\n      shl(0xe5, 0x461bcd)\n      dup2\n      mstore\n      0x04\n      add\n      tag_185\n      swap1\n      tag_186\n      jump\t// in\n    tag_214:\n        /* \"ERC721A/NagaKidsERC721A.sol\":1462:1469  baseURI */\n      0x0a\n        /* \"ERC721A/NagaKidsERC721A.sol\":1462:1482  baseURI = newBaseURI */\n      tag_217\n        /* \"ERC721A/NagaKidsERC721A.sol\":1472:1482  newBaseURI */\n      dup3\n        /* \"ERC721A/NagaKidsERC721A.sol\":1462:1469  baseURI */\n      dup3\n        /* \"ERC721A/NagaKidsERC721A.sol\":1462:1482  baseURI = newBaseURI */\n      tag_218\n      jump\t// in\n    tag_217:\n      pop\n        /* \"ERC721A/NagaKidsERC721A.sol\":1388:1490  function setBaseURI(string memory newBaseURI) public onlyOwner {... */\n      pop\n      jump\t// out\n        /* \"erc721a/contracts/ERC721A.sol\":10957:11099  function ownerOf(uint256 tokenId) public view override returns (address) {... */\n    tag_82:\n        /* \"erc721a/contracts/ERC721A.sol\":11021:11028  address */\n      0x00\n        /* \"erc721a/contracts/ERC721A.sol\":11063:11090  _packedOwnershipOf(tokenId) */\n      tag_130\n        /* \"erc721a/contracts/ERC721A.sol\":11082:11089  tokenId */\n      dup3\n        /* \"erc721a/contracts/ERC721A.sol\":11063:11081  _packedOwnershipOf */\n      tag_156\n        /* \"erc721a/contracts/ERC721A.sol\":11063:11090  _packedOwnershipOf(tokenId) */\n      jump\t// in\n        /* \"erc721a/contracts/ERC721A.sol\":6319:6540  function balanceOf(address owner) public view override returns (uint256) {... */\n    tag_86:\n        /* \"erc721a/contracts/ERC721A.sol\":6383:6390  uint256 */\n      0x00\n      sub(shl(0xa0, 0x01), 0x01)\n        /* \"erc721a/contracts/ERC721A.sol\":6406:6425  owner == address(0) */\n      dup3\n      and\n        /* \"erc721a/contracts/ERC721A.sol\":6402:6462  if (owner == address(0)) revert BalanceQueryForZeroAddress() */\n      tag_222\n      jumpi\n        /* \"erc721a/contracts/ERC721A.sol\":6434:6462  BalanceQueryForZeroAddress() */\n      mload(0x40)\n      shl(0xe2, 0x23d3ad81)\n      dup2\n      mstore\n      0x04\n      add\n      mload(0x40)\n      dup1\n      swap2\n      sub\n      swap1\n      revert\n        /* \"erc721a/contracts/ERC721A.sol\":6402:6462  if (owner == address(0)) revert BalanceQueryForZeroAddress() */\n    tag_222:\n      pop\n      sub(shl(0xa0, 0x01), 0x01)\n        /* \"erc721a/contracts/ERC721A.sol\":6479:6504  _packedAddressData[owner] */\n      and\n      0x00\n      swap1\n      dup2\n      mstore\n        /* \"erc721a/contracts/ERC721A.sol\":6479:6497  _packedAddressData */\n      0x05\n        /* \"erc721a/contracts/ERC721A.sol\":6479:6504  _packedAddressData[owner] */\n      0x20\n      mstore\n      0x40\n      swap1\n      keccak256\n      sload\n        /* \"erc721a/contracts/ERC721A.sol\":1022:1035  (1 << 64) - 1 */\n      0xffffffffffffffff\n        /* \"erc721a/contracts/ERC721A.sol\":6479:6533  _packedAddressData[owner] & BITMASK_ADDRESS_DATA_ENTRY */\n      and\n      swap1\n        /* \"erc721a/contracts/ERC721A.sol\":6319:6540  function balanceOf(address owner) public view override returns (uint256) {... */\n      jump\t// out\n        /* \"@openzeppelin/contracts/access/Ownable.sol\":1668:1769  function renounceOwnership() public virtual onlyOwner {... */\n    tag_89:\n        /* \"@openzeppelin/contracts/access/Ownable.sol\":1108:1114  _owner */\n      and(sub(shl(0xa0, 0x01), 0x01), sload(0x08))\n        /* \"erc721a/contracts/ERC721A.sol\":32960:32970  msg.sender */\n      caller\n        /* \"@openzeppelin/contracts/access/Ownable.sol\":1248:1271  owner() == _msgSender() */\n      eq\n        /* \"@openzeppelin/contracts/access/Ownable.sol\":1240:1308  require(owner() == _msgSender(), \"Ownable: caller is not the owner\") */\n      tag_226\n      jumpi\n      mload(0x40)\n      shl(0xe5, 0x461bcd)\n      dup2\n      mstore\n      0x04\n      add\n      tag_185\n      swap1\n      tag_186\n      jump\t// in\n    tag_226:\n        /* \"@openzeppelin/contracts/access/Ownable.sol\":1732:1762  _transferOwnership(address(0)) */\n      tag_229\n        /* \"@openzeppelin/contracts/access/Ownable.sol\":1759:1760  0 */\n      0x00\n        /* \"@openzeppelin/contracts/access/Ownable.sol\":1732:1750  _transferOwnership */\n      tag_230\n        /* \"@openzeppelin/contracts/access/Ownable.sol\":1732:1762  _transferOwnership(address(0)) */\n      jump\t// in\n    tag_229:\n        /* \"@openzeppelin/contracts/access/Ownable.sol\":1668:1769  function renounceOwnership() public virtual onlyOwner {... */\n      jump\t// out\n        /* \"erc721a/contracts/ERC721A.sol\":11323:11425  function symbol() public view virtual override returns (string memory) {... */\n    tag_94:\n        /* \"erc721a/contracts/ERC721A.sol\":11379:11392  string memory */\n      0x60\n        /* \"erc721a/contracts/ERC721A.sol\":11411:11418  _symbol */\n      0x03\n        /* \"erc721a/contracts/ERC721A.sol\":11404:11418  return _symbol */\n      dup1\n      sload\n      tag_133\n      swap1\n      tag_134\n      jump\t// in\n        /* \"ERC721A/NagaKidsERC721A.sol\":1951:2177  function safeMint(address to,uint amount) public Minter(msg.sender) {... */\n    tag_98:\n        /* \"ERC721A/NagaKidsERC721A.sol\":2007:2017  msg.sender */\n      caller\n        /* \"ERC721A/NagaKidsERC721A.sol\":2239:2243  bool */\n      0x00\n        /* \"ERC721A/NagaKidsERC721A.sol\":2263:2283  _allowMinter[minter] */\n      dup2\n      dup2\n      mstore\n        /* \"ERC721A/NagaKidsERC721A.sol\":2263:2275  _allowMinter */\n      0x09\n        /* \"ERC721A/NagaKidsERC721A.sol\":2263:2283  _allowMinter[minter] */\n      0x20\n      mstore\n      0x40\n      swap1\n      keccak256\n      sload\n      0xff\n      and\n        /* \"ERC721A/NagaKidsERC721A.sol\":674:723  require(isMinter(_minter),\"You are not a minter\") */\n      tag_240\n      jumpi\n      mload(0x40)\n      shl(0xe5, 0x461bcd)\n      dup2\n      mstore\n        /* \"#utility.yul\":9586:9588   */\n      0x20\n        /* \"ERC721A/NagaKidsERC721A.sol\":674:723  require(isMinter(_minter),\"You are not a minter\") */\n      0x04\n      dup3\n      add\n        /* \"#utility.yul\":9568:9589   */\n      mstore\n        /* \"#utility.yul\":9625:9627   */\n      0x14\n        /* \"#utility.yul\":9605:9623   */\n      0x24\n      dup3\n      add\n        /* \"#utility.yul\":9598:9628   */\n      mstore\n      shl(0x61, 0x2cb7ba9030b932903737ba10309036b4b73a32b9)\n        /* \"#utility.yul\":9644:9662   */\n      0x44\n      dup3\n      add\n        /* \"#utility.yul\":9637:9687   */\n      mstore\n        /* \"#utility.yul\":9704:9722   */\n      0x64\n      add\n        /* \"ERC721A/NagaKidsERC721A.sol\":674:723  require(isMinter(_minter),\"You are not a minter\") */\n      tag_185\n        /* \"#utility.yul\":9384:9728   */\n      jump\n        /* \"ERC721A/NagaKidsERC721A.sol\":674:723  require(isMinter(_minter),\"You are not a minter\") */\n    tag_240:\n        /* \"ERC721A/NagaKidsERC721A.sol\":2030:2049  uint256 totalSupply */\n      0x00\n        /* \"ERC721A/NagaKidsERC721A.sol\":2052:2065  totalSupply() */\n      tag_244\n        /* \"ERC721A/NagaKidsERC721A.sol\":3612:3613  1 */\n      0x01\n        /* \"erc721a/contracts/ERC721A.sol\":4998:5010  _burnCounter */\n      sload\n        /* \"erc721a/contracts/ERC721A.sol\":4789:4796  uint256 */\n      0x00\n        /* \"erc721a/contracts/ERC721A.sol\":4982:4995  _currentIndex */\n      sload\n      not(0x00)\n        /* \"erc721a/contracts/ERC721A.sol\":4982:5010  _currentIndex - _burnCounter */\n      swap2\n      swap1\n      sub\n        /* \"erc721a/contracts/ERC721A.sol\":4982:5028  _currentIndex - _burnCounter - _startTokenId() */\n      add\n      swap1\n        /* \"erc721a/contracts/ERC721A.sol\":4736:5045  function totalSupply() public view override returns (uint256) {... */\n      jump\n        /* \"ERC721A/NagaKidsERC721A.sol\":2052:2065  totalSupply() */\n    tag_244:\n        /* \"ERC721A/NagaKidsERC721A.sol\":2030:2065  uint256 totalSupply = totalSupply() */\n      swap1\n      pop\n        /* \"ERC721A/NagaKidsERC721A.sol\":526:530  1111 */\n      0x0457\n        /* \"ERC721A/NagaKidsERC721A.sol\":2084:2104  totalSupply + amount */\n      tag_245\n        /* \"ERC721A/NagaKidsERC721A.sol\":2098:2104  amount */\n      dup5\n        /* \"ERC721A/NagaKidsERC721A.sol\":2030:2065  uint256 totalSupply = totalSupply() */\n      dup4\n        /* \"ERC721A/NagaKidsERC721A.sol\":2084:2104  totalSupply + amount */\n      tag_246\n      jump\t// in\n    tag_245:\n        /* \"ERC721A/NagaKidsERC721A.sol\":2084:2117  totalSupply + amount <= maxSupply */\n      gt\n      iszero\n        /* \"ERC721A/NagaKidsERC721A.sol\":2076:2137  require(totalSupply + amount <= maxSupply, \"Over max supply\") */\n      tag_247\n      jumpi\n      mload(0x40)\n      shl(0xe5, 0x461bcd)\n      dup2\n      mstore\n        /* \"#utility.yul\":10068:10070   */\n      0x20\n        /* \"ERC721A/NagaKidsERC721A.sol\":2076:2137  require(totalSupply + amount <= maxSupply, \"Over max supply\") */\n      0x04\n      dup3\n      add\n        /* \"#utility.yul\":10050:10071   */\n      mstore\n        /* \"#utility.yul\":10107:10109   */\n      0x0f\n        /* \"#utility.yul\":10087:10105   */\n      0x24\n      dup3\n      add\n        /* \"#utility.yul\":10080:10110   */\n      mstore\n      shl(0x88, 0x4f766572206d617820737570706c79)\n        /* \"#utility.yul\":10126:10144   */\n      0x44\n      dup3\n      add\n        /* \"#utility.yul\":10119:10164   */\n      mstore\n        /* \"#utility.yul\":10181:10199   */\n      0x64\n      add\n        /* \"ERC721A/NagaKidsERC721A.sol\":2076:2137  require(totalSupply + amount <= maxSupply, \"Over max supply\") */\n      tag_185\n        /* \"#utility.yul\":9866:10205   */\n      jump\n        /* \"ERC721A/NagaKidsERC721A.sol\":2076:2137  require(totalSupply + amount <= maxSupply, \"Over max supply\") */\n    tag_247:\n        /* \"ERC721A/NagaKidsERC721A.sol\":2148:2169  _safeMint(to, amount) */\n      tag_250\n        /* \"ERC721A/NagaKidsERC721A.sol\":2158:2160  to */\n      dup5\n        /* \"ERC721A/NagaKidsERC721A.sol\":2162:2168  amount */\n      dup5\n        /* \"ERC721A/NagaKidsERC721A.sol\":2148:2157  _safeMint */\n      tag_251\n        /* \"ERC721A/NagaKidsERC721A.sol\":2148:2169  _safeMint(to, amount) */\n      jump\t// in\n    tag_250:\n        /* \"ERC721A/NagaKidsERC721A.sol\":2019:2177  {... */\n      pop\n        /* \"ERC721A/NagaKidsERC721A.sol\":1951:2177  function safeMint(address to,uint amount) public Minter(msg.sender) {... */\n      pop\n      pop\n      pop\n      jump\t// out\n        /* \"erc721a/contracts/ERC721A.sol\":13315:13618  function setApprovalForAll(address operator, bool approved) public virtual override {... */\n    tag_101:\n        /* \"erc721a/contracts/ERC721A.sol\":32960:32970  msg.sender */\n      caller\n      sub(shl(0xa0, 0x01), 0x01)\n        /* \"erc721a/contracts/ERC721A.sol\":13413:13444  operator == _msgSenderERC721A() */\n      dup4\n      and\n      sub\n        /* \"erc721a/contracts/ERC721A.sol\":13409:13470  if (operator == _msgSenderERC721A()) revert ApproveToCaller() */\n      tag_254\n      jumpi\n        /* \"erc721a/contracts/ERC721A.sol\":13453:13470  ApproveToCaller() */\n      mload(0x40)\n      shl(0xe0, 0xb06307db)\n      dup2\n      mstore\n      0x04\n      add\n      mload(0x40)\n      dup1\n      swap2\n      sub\n      swap1\n      revert\n        /* \"erc721a/contracts/ERC721A.sol\":13409:13470  if (operator == _msgSenderERC721A()) revert ApproveToCaller() */\n    tag_254:\n        /* \"erc721a/contracts/ERC721A.sol\":32960:32970  msg.sender */\n      caller\n        /* \"erc721a/contracts/ERC721A.sol\":13481:13520  _operatorApprovals[_msgSenderERC721A()] */\n      0x00\n      dup2\n      dup2\n      mstore\n        /* \"erc721a/contracts/ERC721A.sol\":13481:13499  _operatorApprovals */\n      0x07\n        /* \"erc721a/contracts/ERC721A.sol\":13481:13520  _operatorApprovals[_msgSenderERC721A()] */\n      0x20\n      swap1\n      dup2\n      mstore\n      0x40\n      dup1\n      dup4\n      keccak256\n      sub(shl(0xa0, 0x01), 0x01)\n        /* \"erc721a/contracts/ERC721A.sol\":13481:13530  _operatorApprovals[_msgSenderERC721A()][operator] */\n      dup8\n      and\n      dup1\n      dup6\n      mstore\n      swap1\n      dup4\n      mstore\n      swap3\n      dup2\n      swap1\n      keccak256\n        /* \"erc721a/contracts/ERC721A.sol\":13481:13541  _operatorApprovals[_msgSenderERC721A()][operator] = approved */\n      dup1\n      sload\n      not(0xff)\n      and\n      dup7\n      iszero\n      iszero\n      swap1\n      dup2\n      or\n      swap1\n      swap2\n      sstore\n        /* \"erc721a/contracts/ERC721A.sol\":13556:13611  ApprovalForAll(_msgSenderERC721A(), operator, approved) */\n      swap1\n      mload\n        /* \"#utility.yul\":540:581   */\n      swap1\n      dup2\n      mstore\n        /* \"erc721a/contracts/ERC721A.sol\":13481:13530  _operatorApprovals[_msgSenderERC721A()][operator] */\n      swap2\n      swap3\n        /* \"erc721a/contracts/ERC721A.sol\":32960:32970  msg.sender */\n      swap2\n        /* \"erc721a/contracts/ERC721A.sol\":13556:13611  ApprovalForAll(_msgSenderERC721A(), operator, approved) */\n      0x17307eab39ab6107e8899845ad3d59bd9653f200f220920489ca2b5937696c31\n      swap2\n        /* \"#utility.yul\":513:531   */\n      add\n        /* \"erc721a/contracts/ERC721A.sol\":13556:13611  ApprovalForAll(_msgSenderERC721A(), operator, approved) */\n      tag_188\n        /* \"#utility.yul\":400:587   */\n      jump\n        /* \"erc721a/contracts/ERC721A.sol\":14157:14545  function safeTransferFrom(... */\n    tag_109:\n        /* \"erc721a/contracts/ERC721A.sol\":14318:14349  transferFrom(from, to, tokenId) */\n      tag_260\n        /* \"erc721a/contracts/ERC721A.sol\":14331:14335  from */\n      dup5\n        /* \"erc721a/contracts/ERC721A.sol\":14337:14339  to */\n      dup5\n        /* \"erc721a/contracts/ERC721A.sol\":14341:14348  tokenId */\n      dup5\n        /* \"erc721a/contracts/ERC721A.sol\":14318:14330  transferFrom */\n      tag_59\n        /* \"erc721a/contracts/ERC721A.sol\":14318:14349  transferFrom(from, to, tokenId) */\n      jump\t// in\n    tag_260:\n      sub(shl(0xa0, 0x01), 0x01)\n        /* \"erc721a/contracts/ERC721A.sol\":14363:14377  to.code.length */\n      dup4\n      and\n      extcodesize\n        /* \"erc721a/contracts/ERC721A.sol\":14363:14382  to.code.length != 0 */\n      iszero\n        /* \"erc721a/contracts/ERC721A.sol\":14359:14539  if (to.code.length != 0)... */\n      tag_250\n      jumpi\n        /* \"erc721a/contracts/ERC721A.sol\":14401:14457  _checkContractOnERC721Received(from, to, tokenId, _data) */\n      tag_262\n        /* \"erc721a/contracts/ERC721A.sol\":14432:14436  from */\n      dup5\n        /* \"erc721a/contracts/ERC721A.sol\":14438:14440  to */\n      dup5\n        /* \"erc721a/contracts/ERC721A.sol\":14442:14449  tokenId */\n      dup5\n        /* \"erc721a/contracts/ERC721A.sol\":14451:14456  _data */\n      dup5\n        /* \"erc721a/contracts/ERC721A.sol\":14401:14431  _checkContractOnERC721Received */\n      tag_263\n        /* \"erc721a/contracts/ERC721A.sol\":14401:14457  _checkContractOnERC721Received(from, to, tokenId, _data) */\n      jump\t// in\n    tag_262:\n        /* \"erc721a/contracts/ERC721A.sol\":14396:14539  if (!_checkContractOnERC721Received(from, to, tokenId, _data)) {... */\n      tag_250\n      jumpi\n        /* \"erc721a/contracts/ERC721A.sol\":14484:14524  TransferToNonERC721ReceiverImplementer() */\n      mload(0x40)\n      shl(0xe1, 0x68d2bf6b)\n      dup2\n      mstore\n      0x04\n      add\n      mload(0x40)\n      dup1\n      swap2\n      sub\n      swap1\n      revert\n        /* \"ERC721A/NagaKidsERC721A.sol\":446:483  string public baseExtension = \".json\" */\n    tag_111:\n      0x0b\n      dup1\n      sload\n      tag_265\n      swap1\n      tag_134\n      jump\t// in\n    tag_265:\n      dup1\n      0x1f\n      add\n      0x20\n      dup1\n      swap2\n      div\n      mul\n      0x20\n      add\n      mload(0x40)\n      swap1\n      dup2\n      add\n      0x40\n      mstore\n      dup1\n      swap3\n      swap2\n      swap1\n      dup2\n      dup2\n      mstore\n      0x20\n      add\n      dup3\n      dup1\n      sload\n      tag_266\n      swap1\n      tag_134\n      jump\t// in\n    tag_266:\n      dup1\n      iszero\n      tag_267\n      jumpi\n      dup1\n      0x1f\n      lt\n      tag_268\n      jumpi\n      0x0100\n      dup1\n      dup4\n      sload\n      div\n      mul\n      dup4\n      mstore\n      swap2\n      0x20\n      add\n      swap2\n      jump(tag_267)\n    tag_268:\n      dup3\n      add\n      swap2\n      swap1\n      0x00\n      mstore\n      keccak256(0x00, 0x20)\n      swap1\n    tag_269:\n      dup2\n      sload\n      dup2\n      mstore\n      swap1\n      0x01\n      add\n      swap1\n      0x20\n      add\n      dup1\n      dup4\n      gt\n      tag_269\n      jumpi\n      dup3\n      swap1\n      sub\n      0x1f\n      and\n      dup3\n      add\n      swap2\n    tag_267:\n      pop\n      pop\n      pop\n      pop\n      pop\n      dup2\n      jump\t// out\n        /* \"ERC721A/NagaKidsERC721A.sol\":1498:1942  function tokenURI(uint256 tokenId) public view virtual override(ERC721A,IERC721A) returns (string memory){... */\n    tag_115:\n        /* \"ERC721A/NagaKidsERC721A.sol\":1589:1602  string memory */\n      0x60\n        /* \"ERC721A/NagaKidsERC721A.sol\":1636:1652  _exists(tokenId) */\n      tag_271\n        /* \"ERC721A/NagaKidsERC721A.sol\":1644:1651  tokenId */\n      dup3\n        /* \"ERC721A/NagaKidsERC721A.sol\":1636:1643  _exists */\n      tag_141\n        /* \"ERC721A/NagaKidsERC721A.sol\":1636:1652  _exists(tokenId) */\n      jump\t// in\n    tag_271:\n        /* \"ERC721A/NagaKidsERC721A.sol\":1614:1727  require(... */\n      tag_272\n      jumpi\n      mload(0x40)\n      shl(0xe5, 0x461bcd)\n      dup2\n      mstore\n        /* \"#utility.yul\":10412:10414   */\n      0x20\n        /* \"ERC721A/NagaKidsERC721A.sol\":1614:1727  require(... */\n      0x04\n      dup3\n      add\n        /* \"#utility.yul\":10394:10415   */\n      mstore\n        /* \"#utility.yul\":10451:10453   */\n      0x2f\n        /* \"#utility.yul\":10431:10449   */\n      0x24\n      dup3\n      add\n        /* \"#utility.yul\":10424:10454   */\n      mstore\n        /* \"#utility.yul\":10490:10524   */\n      0x4552433732314d657461646174613a2055524920717565727920666f72206e6f\n        /* \"#utility.yul\":10470:10488   */\n      0x44\n      dup3\n      add\n        /* \"#utility.yul\":10463:10525   */\n      mstore\n      shl(0x89, 0x3732bc34b9ba32b73a103a37b5b2b7)\n        /* \"#utility.yul\":10541:10559   */\n      0x64\n      dup3\n      add\n        /* \"#utility.yul\":10534:10579   */\n      mstore\n        /* \"#utility.yul\":10596:10615   */\n      0x84\n      add\n        /* \"ERC721A/NagaKidsERC721A.sol\":1614:1727  require(... */\n      tag_185\n        /* \"#utility.yul\":10210:10621   */\n      jump\n        /* \"ERC721A/NagaKidsERC721A.sol\":1614:1727  require(... */\n    tag_272:\n        /* \"ERC721A/NagaKidsERC721A.sol\":1740:1768  string memory currentBaseURI */\n      0x00\n        /* \"ERC721A/NagaKidsERC721A.sol\":1771:1781  _baseURI() */\n      tag_275\n        /* \"ERC721A/NagaKidsERC721A.sol\":1771:1779  _baseURI */\n      tag_276\n        /* \"ERC721A/NagaKidsERC721A.sol\":1771:1781  _baseURI() */\n      jump\t// in\n    tag_275:\n        /* \"ERC721A/NagaKidsERC721A.sol\":1740:1781  string memory currentBaseURI = _baseURI() */\n      swap1\n      pop\n        /* \"ERC721A/NagaKidsERC721A.sol\":1830:1831  0 */\n      0x00\n        /* \"ERC721A/NagaKidsERC721A.sol\":1805:1819  currentBaseURI */\n      dup2\n        /* \"ERC721A/NagaKidsERC721A.sol\":1799:1827  bytes(currentBaseURI).length */\n      mload\n        /* \"ERC721A/NagaKidsERC721A.sol\":1799:1831  bytes(currentBaseURI).length > 0 */\n      gt\n        /* \"ERC721A/NagaKidsERC721A.sol\":1799:1934  bytes(currentBaseURI).length > 0 ... */\n      tag_277\n      jumpi\n      mload(0x40)\n      dup1\n      0x20\n      add\n      0x40\n      mstore\n      dup1\n      0x00\n      dup2\n      mstore\n      pop\n      jump(tag_278)\n    tag_277:\n        /* \"ERC721A/NagaKidsERC721A.sol\":1868:1882  currentBaseURI */\n      dup1\n        /* \"ERC721A/NagaKidsERC721A.sol\":1884:1902  tokenId.toString() */\n      tag_279\n        /* \"ERC721A/NagaKidsERC721A.sol\":1884:1891  tokenId */\n      dup5\n        /* \"ERC721A/NagaKidsERC721A.sol\":1884:1900  tokenId.toString */\n      tag_280\n        /* \"ERC721A/NagaKidsERC721A.sol\":1884:1902  tokenId.toString() */\n      jump\t// in\n    tag_279:\n        /* \"ERC721A/NagaKidsERC721A.sol\":1904:1917  baseExtension */\n      0x0b\n        /* \"ERC721A/NagaKidsERC721A.sol\":1851:1918  abi.encodePacked(currentBaseURI, tokenId.toString(), baseExtension) */\n      add(0x20, mload(0x40))\n      tag_281\n      swap4\n      swap3\n      swap2\n      swap1\n      tag_282\n      jump\t// in\n    tag_281:\n      mload(0x40)\n      0x20\n      dup2\n      dup4\n      sub\n      sub\n      dup2\n      mstore\n      swap1\n      0x40\n      mstore\n        /* \"ERC721A/NagaKidsERC721A.sol\":1799:1934  bytes(currentBaseURI).length > 0 ... */\n    tag_278:\n        /* \"ERC721A/NagaKidsERC721A.sol\":1792:1934  return bytes(currentBaseURI).length > 0 ... */\n      swap4\n        /* \"ERC721A/NagaKidsERC721A.sol\":1498:1942  function tokenURI(uint256 tokenId) public view virtual override(ERC721A,IERC721A) returns (string memory){... */\n      swap3\n      pop\n      pop\n      pop\n      jump\t// out\n        /* \"@openzeppelin/contracts/access/Ownable.sol\":1918:2116  function transferOwnership(address newOwner) public virtual onlyOwner {... */\n    tag_127:\n        /* \"@openzeppelin/contracts/access/Ownable.sol\":1108:1114  _owner */\n      and(sub(shl(0xa0, 0x01), 0x01), sload(0x08))\n        /* \"erc721a/contracts/ERC721A.sol\":32960:32970  msg.sender */\n      caller\n        /* \"@openzeppelin/contracts/access/Ownable.sol\":1248:1271  owner() == _msgSender() */\n      eq\n        /* \"@openzeppelin/contracts/access/Ownable.sol\":1240:1308  require(owner() == _msgSender(), \"Ownable: caller is not the owner\") */\n      tag_287\n      jumpi\n      mload(0x40)\n      shl(0xe5, 0x461bcd)\n      dup2\n      mstore\n      0x04\n      add\n      tag_185\n      swap1\n      tag_186\n      jump\t// in\n    tag_287:\n      sub(shl(0xa0, 0x01), 0x01)\n        /* \"@openzeppelin/contracts/access/Ownable.sol\":2006:2028  newOwner != address(0) */\n      dup2\n      and\n        /* \"@openzeppelin/contracts/access/Ownable.sol\":1998:2071  require(newOwner != address(0), \"Ownable: new owner is the zero address\") */\n      tag_290\n      jumpi\n      mload(0x40)\n      shl(0xe5, 0x461bcd)\n      dup2\n      mstore\n        /* \"#utility.yul\":12063:12065   */\n      0x20\n        /* \"@openzeppelin/contracts/access/Ownable.sol\":1998:2071  require(newOwner != address(0), \"Ownable: new owner is the zero address\") */\n      0x04\n      dup3\n      add\n        /* \"#utility.yul\":12045:12066   */\n      mstore\n        /* \"#utility.yul\":12102:12104   */\n      0x26\n        /* \"#utility.yul\":12082:12100   */\n      0x24\n      dup3\n      add\n        /* \"#utility.yul\":12075:12105   */\n      mstore\n        /* \"#utility.yul\":12141:12175   */\n      0x4f776e61626c653a206e6577206f776e657220697320746865207a65726f2061\n        /* \"#utility.yul\":12121:12139   */\n      0x44\n      dup3\n      add\n        /* \"#utility.yul\":12114:12176   */\n      mstore\n      shl(0xd0, 0x646472657373)\n        /* \"#utility.yul\":12192:12210   */\n      0x64\n      dup3\n      add\n        /* \"#utility.yul\":12185:12221   */\n      mstore\n        /* \"#utility.yul\":12238:12257   */\n      0x84\n      add\n        /* \"@openzeppelin/contracts/access/Ownable.sol\":1998:2071  require(newOwner != address(0), \"Ownable: new owner is the zero address\") */\n      tag_185\n        /* \"#utility.yul\":11861:12263   */\n      jump\n        /* \"@openzeppelin/contracts/access/Ownable.sol\":1998:2071  require(newOwner != address(0), \"Ownable: new owner is the zero address\") */\n    tag_290:\n        /* \"@openzeppelin/contracts/access/Ownable.sol\":2081:2109  _transferOwnership(newOwner) */\n      tag_192\n        /* \"@openzeppelin/contracts/access/Ownable.sol\":2100:2108  newOwner */\n      dup2\n        /* \"@openzeppelin/contracts/access/Ownable.sol\":2081:2099  _transferOwnership */\n      tag_230\n        /* \"@openzeppelin/contracts/access/Ownable.sol\":2081:2109  _transferOwnership(newOwner) */\n      jump\t// in\n        /* \"erc721a/contracts/ERC721A.sol\":5653:6260  function supportsInterface(bytes4 interfaceId) public view virtual override returns (bool) {... */\n    tag_131:\n        /* \"erc721a/contracts/ERC721A.sol\":5738:5742  bool */\n      0x00\n      shl(0xe0, 0x01ffc9a7)\n      not(sub(shl(0xe0, 0x01), 0x01))\n        /* \"erc721a/contracts/ERC721A.sol\":6033:6058  interfaceId == 0x01ffc9a7 */\n      dup4\n      and\n      eq\n      dup1\n        /* \"erc721a/contracts/ERC721A.sol\":6033:6134  interfaceId == 0x01ffc9a7 || // ERC165 interface ID for ERC165.... */\n      tag_296\n      jumpi\n      pop\n      shl(0xe0, 0x80ac58cd)\n      not(sub(shl(0xe0, 0x01), 0x01))\n        /* \"erc721a/contracts/ERC721A.sol\":6109:6134  interfaceId == 0x80ac58cd */\n      dup4\n      and\n      eq\n        /* \"erc721a/contracts/ERC721A.sol\":6033:6134  interfaceId == 0x01ffc9a7 || // ERC165 interface ID for ERC165.... */\n    tag_296:\n        /* \"erc721a/contracts/ERC721A.sol\":6033:6210  interfaceId == 0x01ffc9a7 || // ERC165 interface ID for ERC165.... */\n      dup1\n      tag_130\n      jumpi\n      pop\n      pop\n      not(sub(shl(0xe0, 0x01), 0x01))\n        /* \"erc721a/contracts/ERC721A.sol\":6185:6210  interfaceId == 0x5b5e139f */\n      and\n      shl(0xe0, 0x5b5e139f)\n      eq\n      swap1\n        /* \"erc721a/contracts/ERC721A.sol\":5653:6260  function supportsInterface(bytes4 interfaceId) public view virtual override returns (bool) {... */\n      jump\t// out\n        /* \"erc721a/contracts/ERC721A.sol\":14791:15059  function _exists(uint256 tokenId) internal view returns (bool) {... */\n    tag_141:\n        /* \"erc721a/contracts/ERC721A.sol\":14848:14852  bool */\n      0x00\n        /* \"erc721a/contracts/ERC721A.sol\":14902:14909  tokenId */\n      dup2\n        /* \"ERC721A/NagaKidsERC721A.sol\":3612:3613  1 */\n      0x01\n        /* \"erc721a/contracts/ERC721A.sol\":14883:14909  _startTokenId() <= tokenId */\n      gt\n      iszero\n        /* \"erc721a/contracts/ERC721A.sol\":14883:14948  _startTokenId() <= tokenId &&... */\n      dup1\n      iszero\n      tag_300\n      jumpi\n      pop\n        /* \"erc721a/contracts/ERC721A.sol\":14935:14948  _currentIndex */\n      sload(0x00)\n        /* \"erc721a/contracts/ERC721A.sol\":14925:14932  tokenId */\n      dup3\n        /* \"erc721a/contracts/ERC721A.sol\":14925:14948  tokenId < _currentIndex */\n      lt\n        /* \"erc721a/contracts/ERC721A.sol\":14883:14948  _startTokenId() <= tokenId &&... */\n    tag_300:\n        /* \"erc721a/contracts/ERC721A.sol\":14883:15033  _startTokenId() <= tokenId &&... */\n      dup1\n      iszero\n      tag_130\n      jumpi\n      pop\n      pop\n        /* \"erc721a/contracts/ERC721A.sol\":14985:15011  _packedOwnerships[tokenId] */\n      0x00\n      swap1\n      dup2\n      mstore\n        /* \"erc721a/contracts/ERC721A.sol\":14985:15002  _packedOwnerships */\n      0x04\n        /* \"erc721a/contracts/ERC721A.sol\":14985:15011  _packedOwnerships[tokenId] */\n      0x20\n      mstore\n      0x40\n      swap1\n      keccak256\n      sload\n      shl(0xe0, 0x01)\n        /* \"erc721a/contracts/ERC721A.sol\":14985:15028  _packedOwnerships[tokenId] & BITMASK_BURNED */\n      and\n        /* \"erc721a/contracts/ERC721A.sol\":14985:15033  _packedOwnerships[tokenId] & BITMASK_BURNED == 0 */\n      iszero\n      swap1\n        /* \"erc721a/contracts/ERC721A.sol\":14791:15059  function _exists(uint256 tokenId) internal view returns (bool) {... */\n      jump\t// out\n        /* \"erc721a/contracts/ERC721A.sol\":7949:9054  function _packedOwnershipOf(uint256 tokenId) private view returns (uint256) {... */\n    tag_156:\n        /* \"erc721a/contracts/ERC721A.sol\":8016:8023  uint256 */\n      0x00\n        /* \"erc721a/contracts/ERC721A.sol\":8050:8057  tokenId */\n      dup2\n      dup1\n        /* \"ERC721A/NagaKidsERC721A.sol\":3612:3613  1 */\n      0x01\n        /* \"erc721a/contracts/ERC721A.sol\":8096:8119  _startTokenId() <= curr */\n      gt\n        /* \"erc721a/contracts/ERC721A.sol\":8092:8990  if (_startTokenId() <= curr)... */\n      tag_307\n      jumpi\n        /* \"erc721a/contracts/ERC721A.sol\":8148:8161  _currentIndex */\n      sload(0x00)\n        /* \"erc721a/contracts/ERC721A.sol\":8141:8145  curr */\n      dup2\n        /* \"erc721a/contracts/ERC721A.sol\":8141:8161  curr < _currentIndex */\n      lt\n        /* \"erc721a/contracts/ERC721A.sol\":8137:8990  if (curr < _currentIndex) {... */\n      iszero\n      tag_307\n      jumpi\n        /* \"erc721a/contracts/ERC721A.sol\":8185:8199  uint256 packed */\n      0x00\n        /* \"erc721a/contracts/ERC721A.sol\":8202:8225  _packedOwnerships[curr] */\n      dup2\n      dup2\n      mstore\n        /* \"erc721a/contracts/ERC721A.sol\":8202:8219  _packedOwnerships */\n      0x04\n        /* \"erc721a/contracts/ERC721A.sol\":8202:8225  _packedOwnerships[curr] */\n      0x20\n      mstore\n      0x40\n      dup2\n      keccak256\n      sload\n      swap1\n      shl(0xe0, 0x01)\n        /* \"erc721a/contracts/ERC721A.sol\":8289:8312  packed & BITMASK_BURNED */\n      dup3\n      and\n        /* \"erc721a/contracts/ERC721A.sol\":8289:8317  packed & BITMASK_BURNED == 0 */\n      swap1\n      sub\n        /* \"erc721a/contracts/ERC721A.sol\":8285:8972  if (packed & BITMASK_BURNED == 0) {... */\n      tag_308\n      jumpi\n        /* \"erc721a/contracts/ERC721A.sol\":8800:8911  while (packed == 0) {... */\n    tag_309:\n        /* \"erc721a/contracts/ERC721A.sol\":8807:8813  packed */\n      dup1\n        /* \"erc721a/contracts/ERC721A.sol\":8817:8818  0 */\n      0x00\n        /* \"erc721a/contracts/ERC721A.sol\":8807:8818  packed == 0 */\n      sub\n        /* \"erc721a/contracts/ERC721A.sol\":8800:8911  while (packed == 0) {... */\n      tag_278\n      jumpi\n      pop\n      not(0x00)\n        /* \"erc721a/contracts/ERC721A.sol\":8877:8883  --curr */\n      add\n        /* \"erc721a/contracts/ERC721A.sol\":8859:8884  _packedOwnerships[--curr] */\n      0x00\n      dup2\n      dup2\n      mstore\n        /* \"erc721a/contracts/ERC721A.sol\":8859:8876  _packedOwnerships */\n      0x04\n        /* \"erc721a/contracts/ERC721A.sol\":8859:8884  _packedOwnerships[--curr] */\n      0x20\n      mstore\n      0x40\n      swap1\n      keccak256\n      sload\n        /* \"erc721a/contracts/ERC721A.sol\":8800:8911  while (packed == 0) {... */\n      jump(tag_309)\n        /* \"erc721a/contracts/ERC721A.sol\":8285:8972  if (packed & BITMASK_BURNED == 0) {... */\n    tag_308:\n        /* \"erc721a/contracts/ERC721A.sol\":8163:8990  {... */\n      pop\n        /* \"erc721a/contracts/ERC721A.sol\":8137:8990  if (curr < _currentIndex) {... */\n    tag_307:\n        /* \"erc721a/contracts/ERC721A.sol\":9016:9047  OwnerQueryForNonexistentToken() */\n      mload(0x40)\n      shl(0xe1, 0x6f96cda1)\n      dup2\n      mstore\n      0x04\n      add\n      mload(0x40)\n      dup1\n      swap2\n      sub\n      swap1\n      revert\n        /* \"ERC721A/NagaKidsERC721A.sol\":2995:3232  function _beforeTokenTransfers(... */\n    tag_169:\n        /* \"ERC721A/NagaKidsERC721A.sol\":3164:3224  super._beforeTokenTransfers(from, to, startTokenId,quantity) */\n      tag_250\n        /* \"ERC721A/NagaKidsERC721A.sol\":1951:2177  function safeMint(address to,uint amount) public Minter(msg.sender) {... */\n      jump\n        /* \"erc721a/contracts/ERC721A.sol\":25171:28168  function _burn(uint256 tokenId, bool approvalCheck) internal virtual {... */\n    tag_193:\n        /* \"erc721a/contracts/ERC721A.sol\":25250:25277  uint256 prevOwnershipPacked */\n      0x00\n        /* \"erc721a/contracts/ERC721A.sol\":25280:25307  _packedOwnershipOf(tokenId) */\n      tag_322\n        /* \"erc721a/contracts/ERC721A.sol\":25299:25306  tokenId */\n      dup4\n        /* \"erc721a/contracts/ERC721A.sol\":25280:25298  _packedOwnershipOf */\n      tag_156\n        /* \"erc721a/contracts/ERC721A.sol\":25280:25307  _packedOwnershipOf(tokenId) */\n      jump\t// in\n    tag_322:\n        /* \"erc721a/contracts/ERC721A.sol\":25250:25307  uint256 prevOwnershipPacked = _packedOwnershipOf(tokenId) */\n      swap1\n      pop\n      dup1\n        /* \"erc721a/contracts/ERC721A.sol\":25318:25330  address from */\n      0x00\n      dup1\n        /* \"erc721a/contracts/ERC721A.sol\":25438:25466  _getApprovedAddress(tokenId) */\n      tag_323\n        /* \"erc721a/contracts/ERC721A.sol\":25458:25465  tokenId */\n      dup7\n        /* \"erc721a/contracts/ERC721A.sol\":20528:20555  uint256 approvedAddressSlot */\n      0x00\n        /* \"erc721a/contracts/ERC721A.sol\":20821:20842  mstore(0x00, tokenId) */\n      swap1\n      dup2\n      mstore\n        /* \"erc721a/contracts/ERC721A.sol\":20652:20667  _tokenApprovals */\n      0x06\n        /* \"erc721a/contracts/ERC721A.sol\":20862:20866  0x20 */\n      0x20\n        /* \"erc721a/contracts/ERC721A.sol\":20855:20891  mstore(0x20, tokenApprovalsPtr.slot) */\n      mstore\n        /* \"erc721a/contracts/ERC721A.sol\":20943:20947  0x40 */\n      0x40\n        /* \"erc721a/contracts/ERC721A.sol\":20927:20948  keccak256(0x00, 0x40) */\n      swap1\n      keccak256\n        /* \"erc721a/contracts/ERC721A.sol\":21031:21057  sload(approvedAddressSlot) */\n      dup1\n      sload\n        /* \"erc721a/contracts/ERC721A.sol\":20927:20948  keccak256(0x00, 0x40) */\n      swap1\n      swap2\n        /* \"erc721a/contracts/ERC721A.sol\":20436:21073  function _getApprovedAddress(uint256 tokenId)... */\n      jump\n        /* \"erc721a/contracts/ERC721A.sol\":25438:25466  _getApprovedAddress(tokenId) */\n    tag_323:\n        /* \"erc721a/contracts/ERC721A.sol\":25381:25466  (uint256 approvedAddressSlot, address approvedAddress) = _getApprovedAddress(tokenId) */\n      swap2\n      pop\n      swap2\n      pop\n        /* \"erc721a/contracts/ERC721A.sol\":25481:25494  approvalCheck */\n      dup5\n        /* \"erc721a/contracts/ERC721A.sol\":25477:25783  if (approvalCheck) {... */\n      iszero\n      tag_330\n      jumpi\n        /* \"erc721a/contracts/ERC721A.sol\":25600:25662  _isOwnerOrApproved(approvedAddress, from, _msgSenderERC721A()) */\n      tag_325\n        /* \"erc721a/contracts/ERC721A.sol\":25619:25634  approvedAddress */\n      dup2\n        /* \"erc721a/contracts/ERC721A.sol\":25636:25640  from */\n      dup5\n        /* \"erc721a/contracts/ERC721A.sol\":32960:32970  msg.sender */\n      caller\n        /* \"erc721a/contracts/ERC721A.sol\":25642:25661  _msgSenderERC721A() */\n      tag_161\n        /* \"erc721a/contracts/ERC721A.sol\":32874:32977  function _msgSenderERC721A() internal view virtual returns (address) {... */\n      jump\n        /* \"erc721a/contracts/ERC721A.sol\":25600:25662  _isOwnerOrApproved(approvedAddress, from, _msgSenderERC721A()) */\n    tag_325:\n        /* \"erc721a/contracts/ERC721A.sol\":25595:25772  if (!_isOwnerOrApproved(approvedAddress, from, _msgSenderERC721A()))... */\n      tag_330\n      jumpi\n        /* \"erc721a/contracts/ERC721A.sol\":25685:25728  isApprovedForAll(from, _msgSenderERC721A()) */\n      tag_328\n        /* \"erc721a/contracts/ERC721A.sol\":25702:25706  from */\n      dup4\n        /* \"erc721a/contracts/ERC721A.sol\":32960:32970  msg.sender */\n      caller\n        /* \"erc721a/contracts/ERC721A.sol\":13684:13846  function isApprovedForAll(address owner, address operator) public view virtual override returns (bool) {... */\n      tag_121\n      jump\t// in\n        /* \"erc721a/contracts/ERC721A.sol\":25685:25728  isApprovedForAll(from, _msgSenderERC721A()) */\n    tag_328:\n        /* \"erc721a/contracts/ERC721A.sol\":25680:25772  if (!isApprovedForAll(from, _msgSenderERC721A())) revert TransferCallerNotOwnerNorApproved() */\n      tag_330\n      jumpi\n        /* \"erc721a/contracts/ERC721A.sol\":25737:25772  TransferCallerNotOwnerNorApproved() */\n      mload(0x40)\n      shl(0xe1, 0x2ce44b5f)\n      dup2\n      mstore\n      0x04\n      add\n      mload(0x40)\n      dup1\n      swap2\n      sub\n      swap1\n      revert\n        /* \"erc721a/contracts/ERC721A.sol\":25680:25772  if (!isApprovedForAll(from, _msgSenderERC721A())) revert TransferCallerNotOwnerNorApproved() */\n    tag_330:\n        /* \"erc721a/contracts/ERC721A.sol\":25793:25844  _beforeTokenTransfers(from, address(0), tokenId, 1) */\n      tag_331\n        /* \"erc721a/contracts/ERC721A.sol\":25815:25819  from */\n      dup4\n        /* \"erc721a/contracts/ERC721A.sol\":25829:25830  0 */\n      0x00\n        /* \"erc721a/contracts/ERC721A.sol\":25833:25840  tokenId */\n      dup9\n        /* \"erc721a/contracts/ERC721A.sol\":25842:25843  1 */\n      0x01\n        /* \"erc721a/contracts/ERC721A.sol\":25793:25814  _beforeTokenTransfers */\n      tag_169\n        /* \"erc721a/contracts/ERC721A.sol\":25793:25844  _beforeTokenTransfers(from, address(0), tokenId, 1) */\n      jump\t// in\n    tag_331:\n        /* \"erc721a/contracts/ERC721A.sol\":25933:25948  approvedAddress */\n      dup1\n        /* \"erc721a/contracts/ERC721A.sol\":25930:26087  if approvedAddress {... */\n      iszero\n      tag_332\n      jumpi\n        /* \"erc721a/contracts/ERC721A.sol\":26071:26072  0 */\n      0x00\n        /* \"erc721a/contracts/ERC721A.sol\":26050:26069  approvedAddressSlot */\n      dup3\n        /* \"erc721a/contracts/ERC721A.sol\":26043:26073  sstore(approvedAddressSlot, 0) */\n      sstore\n        /* \"erc721a/contracts/ERC721A.sol\":25930:26087  if approvedAddress {... */\n    tag_332:\n      sub(shl(0xa0, 0x01), 0x01)\n        /* \"erc721a/contracts/ERC721A.sol\":26675:26699  _packedAddressData[from] */\n      dup4\n      and\n      0x00\n      dup2\n      dup2\n      mstore\n        /* \"erc721a/contracts/ERC721A.sol\":26675:26693  _packedAddressData */\n      0x05\n        /* \"erc721a/contracts/ERC721A.sol\":26675:26699  _packedAddressData[from] */\n      0x20\n      mstore\n      0x40\n      swap1\n      keccak256\n        /* \"erc721a/contracts/ERC721A.sol\":26675:26734  _packedAddressData[from] += (1 << BITPOS_NUMBER_BURNED) - 1 */\n      dup1\n      sload\n        /* \"erc721a/contracts/ERC721A.sol\":26703:26734  (1 << BITPOS_NUMBER_BURNED) - 1 */\n      0xffffffffffffffffffffffffffffffff\n        /* \"erc721a/contracts/ERC721A.sol\":26675:26734  _packedAddressData[from] += (1 << BITPOS_NUMBER_BURNED) - 1 */\n      add\n      swap1\n      sstore\n        /* \"erc721a/contracts/ERC721A.sol\":10863:10874  timestamp() */\n      timestamp\n        /* \"erc721a/contracts/ERC721A.sol\":10839:10861  BITPOS_START_TIMESTAMP */\n      0xa0\n        /* \"erc721a/contracts/ERC721A.sol\":10835:10875  shl(BITPOS_START_TIMESTAMP, timestamp()) */\n      shl\n        /* \"erc721a/contracts/ERC721A.sol\":10822:10884  or(owner, or(shl(BITPOS_START_TIMESTAMP, timestamp()), flags)) */\n      or\n      shl(0xe0, 0x03)\n      or\n        /* \"erc721a/contracts/ERC721A.sol\":26965:26991  _packedOwnerships[tokenId] */\n      0x00\n      dup8\n      dup2\n      mstore\n        /* \"erc721a/contracts/ERC721A.sol\":26965:26982  _packedOwnerships */\n      0x04\n        /* \"erc721a/contracts/ERC721A.sol\":26965:26991  _packedOwnerships[tokenId] */\n      0x20\n      mstore\n      0x40\n      dup2\n      keccak256\n        /* \"erc721a/contracts/ERC721A.sol\":26965:27165  _packedOwnerships[tokenId] = _packOwnershipData(... */\n      swap2\n      swap1\n      swap2\n      sstore\n      shl(0xe1, 0x01)\n        /* \"erc721a/contracts/ERC721A.sol\":27282:27328  prevOwnershipPacked & BITMASK_NEXT_INITIALIZED */\n      dup6\n      and\n        /* \"erc721a/contracts/ERC721A.sol\":27282:27333  prevOwnershipPacked & BITMASK_NEXT_INITIALIZED == 0 */\n      swap1\n      sub\n        /* \"erc721a/contracts/ERC721A.sol\":27278:27894  if (prevOwnershipPacked & BITMASK_NEXT_INITIALIZED == 0) {... */\n      tag_335\n      jumpi\n        /* \"erc721a/contracts/ERC721A.sol\":27385:27386  1 */\n      0x01\n        /* \"erc721a/contracts/ERC721A.sol\":27375:27386  tokenId + 1 */\n      dup7\n      add\n        /* \"erc721a/contracts/ERC721A.sol\":27353:27372  uint256 nextTokenId */\n      0x00\n        /* \"erc721a/contracts/ERC721A.sol\":27506:27536  _packedOwnerships[nextTokenId] */\n      dup2\n      dup2\n      mstore\n        /* \"erc721a/contracts/ERC721A.sol\":27506:27523  _packedOwnerships */\n      0x04\n        /* \"erc721a/contracts/ERC721A.sol\":27506:27536  _packedOwnerships[nextTokenId] */\n      0x20\n      mstore\n      0x40\n      dup2\n      keccak256\n      sload\n        /* \"erc721a/contracts/ERC721A.sol\":27506:27541  _packedOwnerships[nextTokenId] == 0 */\n      swap1\n      sub\n        /* \"erc721a/contracts/ERC721A.sol\":27502:27880  if (_packedOwnerships[nextTokenId] == 0) {... */\n      tag_337\n      jumpi\n        /* \"erc721a/contracts/ERC721A.sol\":27642:27655  _currentIndex */\n      sload(0x00)\n        /* \"erc721a/contracts/ERC721A.sol\":27627:27638  nextTokenId */\n      dup2\n        /* \"erc721a/contracts/ERC721A.sol\":27627:27655  nextTokenId != _currentIndex */\n      eq\n        /* \"erc721a/contracts/ERC721A.sol\":27623:27862  if (nextTokenId != _currentIndex) {... */\n      tag_337\n      jumpi\n        /* \"erc721a/contracts/ERC721A.sol\":27787:27817  _packedOwnerships[nextTokenId] */\n      0x00\n      dup2\n      dup2\n      mstore\n        /* \"erc721a/contracts/ERC721A.sol\":27787:27804  _packedOwnerships */\n      0x04\n        /* \"erc721a/contracts/ERC721A.sol\":27787:27817  _packedOwnerships[nextTokenId] */\n      0x20\n      mstore\n      0x40\n      swap1\n      keccak256\n        /* \"erc721a/contracts/ERC721A.sol\":27787:27839  _packedOwnerships[nextTokenId] = prevOwnershipPacked */\n      dup6\n      swap1\n      sstore\n        /* \"erc721a/contracts/ERC721A.sol\":27623:27862  if (nextTokenId != _currentIndex) {... */\n    tag_337:\n        /* \"erc721a/contracts/ERC721A.sol\":27335:27894  {... */\n      pop\n        /* \"erc721a/contracts/ERC721A.sol\":27278:27894  if (prevOwnershipPacked & BITMASK_NEXT_INITIALIZED == 0) {... */\n    tag_335:\n        /* \"erc721a/contracts/ERC721A.sol\":27919:27954  Transfer(from, address(0), tokenId) */\n      mload(0x40)\n        /* \"erc721a/contracts/ERC721A.sol\":27946:27953  tokenId */\n      dup7\n      swap1\n        /* \"erc721a/contracts/ERC721A.sol\":27942:27943  0 */\n      0x00\n      swap1\n      sub(shl(0xa0, 0x01), 0x01)\n        /* \"erc721a/contracts/ERC721A.sol\":27919:27954  Transfer(from, address(0), tokenId) */\n      dup7\n      and\n      swap1\n      0xddf252ad1be2c89b69c2b068fc378daa952ba7f163c4a11628f55a4df523b3ef\n      swap1\n        /* \"erc721a/contracts/ERC721A.sol\":27942:27943  0 */\n      dup4\n      swap1\n        /* \"erc721a/contracts/ERC721A.sol\":27919:27954  Transfer(from, address(0), tokenId) */\n      log4\n      pop\n      pop\n        /* \"erc721a/contracts/ERC721A.sol\":28137:28149  _burnCounter */\n      0x01\n        /* \"erc721a/contracts/ERC721A.sol\":28137:28151  _burnCounter++ */\n      dup1\n      sload\n      dup2\n      add\n      swap1\n      sstore\n      pop\n      pop\n      pop\n      pop\n        /* \"erc721a/contracts/ERC721A.sol\":25171:28168  function _burn(uint256 tokenId, bool approvalCheck) internal virtual {... */\n      jump\t// out\n        /* \"@openzeppelin/contracts/access/Ownable.sol\":2270:2457  function _transferOwnership(address newOwner) internal virtual {... */\n    tag_230:\n        /* \"@openzeppelin/contracts/access/Ownable.sol\":2362:2368  _owner */\n      0x08\n      dup1\n      sload\n      sub(shl(0xa0, 0x01), 0x01)\n        /* \"@openzeppelin/contracts/access/Ownable.sol\":2378:2395  _owner = newOwner */\n      dup4\n      dup2\n      and\n      not(sub(shl(0xa0, 0x01), 0x01))\n      dup4\n      and\n      dup2\n      or\n      swap1\n      swap4\n      sstore\n        /* \"@openzeppelin/contracts/access/Ownable.sol\":2410:2450  OwnershipTransferred(oldOwner, newOwner) */\n      mload(0x40)\n        /* \"@openzeppelin/contracts/access/Ownable.sol\":2362:2368  _owner */\n      swap2\n      and\n      swap2\n        /* \"@openzeppelin/contracts/access/Ownable.sol\":2378:2395  _owner = newOwner */\n      swap1\n        /* \"@openzeppelin/contracts/access/Ownable.sol\":2362:2368  _owner */\n      dup3\n      swap1\n        /* \"@openzeppelin/contracts/access/Ownable.sol\":2410:2450  OwnershipTransferred(oldOwner, newOwner) */\n      0x8be0079c531659141344cd1fd0a4f28419497f9722a3daafe3b4186f6b6457e0\n      swap1\n        /* \"@openzeppelin/contracts/access/Ownable.sol\":2343:2359  address oldOwner */\n      0x00\n      swap1\n        /* \"@openzeppelin/contracts/access/Ownable.sol\":2410:2450  OwnershipTransferred(oldOwner, newOwner) */\n      log3\n        /* \"@openzeppelin/contracts/access/Ownable.sol\":2333:2457  {... */\n      pop\n        /* \"@openzeppelin/contracts/access/Ownable.sol\":2270:2457  function _transferOwnership(address newOwner) internal virtual {... */\n      pop\n      jump\t// out\n        /* \"erc721a/contracts/ERC721A.sol\":15138:15240  function _safeMint(address to, uint256 quantity) internal {... */\n    tag_251:\n        /* \"erc721a/contracts/ERC721A.sol\":15206:15233  _safeMint(to, quantity, '') */\n      tag_217\n        /* \"erc721a/contracts/ERC721A.sol\":15216:15218  to */\n      dup3\n        /* \"erc721a/contracts/ERC721A.sol\":15220:15228  quantity */\n      dup3\n        /* \"erc721a/contracts/ERC721A.sol\":15206:15233  _safeMint(to, quantity, '') */\n      mload(0x40)\n      dup1\n      0x20\n      add\n      0x40\n      mstore\n      dup1\n      0x00\n      dup2\n      mstore\n      pop\n        /* \"erc721a/contracts/ERC721A.sol\":15206:15215  _safeMint */\n      tag_342\n        /* \"erc721a/contracts/ERC721A.sol\":15206:15233  _safeMint(to, quantity, '') */\n      jump\t// in\n        /* \"erc721a/contracts/ERC721A.sol\":28649:29346  function _checkContractOnERC721Received(... */\n    tag_263:\n        /* \"erc721a/contracts/ERC721A.sol\":28827:28915  ERC721A__IERC721Receiver(to).onERC721Received(_msgSenderERC721A(), from, tokenId, _data) */\n      mload(0x40)\n      shl(0xe1, 0x0a85bd01)\n      dup2\n      mstore\n        /* \"erc721a/contracts/ERC721A.sol\":28807:28811  bool */\n      0x00\n      swap1\n      sub(shl(0xa0, 0x01), 0x01)\n        /* \"erc721a/contracts/ERC721A.sol\":28827:28872  ERC721A__IERC721Receiver(to).onERC721Received */\n      dup6\n      and\n      swap1\n      0x150b7a02\n      swap1\n        /* \"erc721a/contracts/ERC721A.sol\":28827:28915  ERC721A__IERC721Receiver(to).onERC721Received(_msgSenderERC721A(), from, tokenId, _data) */\n      tag_345\n      swap1\n        /* \"erc721a/contracts/ERC721A.sol\":32960:32970  msg.sender */\n      caller\n      swap1\n        /* \"erc721a/contracts/ERC721A.sol\":28894:28898  from */\n      dup10\n      swap1\n        /* \"erc721a/contracts/ERC721A.sol\":28900:28907  tokenId */\n      dup9\n      swap1\n        /* \"erc721a/contracts/ERC721A.sol\":28909:28914  _data */\n      dup9\n      swap1\n        /* \"erc721a/contracts/ERC721A.sol\":28827:28915  ERC721A__IERC721Receiver(to).onERC721Received(_msgSenderERC721A(), from, tokenId, _data) */\n      0x04\n      add\n      tag_346\n      jump\t// in\n    tag_345:\n      0x20\n      mload(0x40)\n      dup1\n      dup4\n      sub\n      dup2\n      0x00\n      dup8\n      gas\n      call\n      swap3\n      pop\n      pop\n      pop\n      dup1\n      iszero\n      tag_347\n      jumpi\n      pop\n      0x40\n      dup1\n      mload\n      0x1f\n      returndatasize\n      swap1\n      dup2\n      add\n      not(0x1f)\n      and\n      dup3\n      add\n      swap1\n      swap3\n      mstore\n      tag_348\n      swap2\n      dup2\n      add\n      swap1\n      tag_349\n      jump\t// in\n    tag_348:\n      0x01\n    tag_347:\n        /* \"erc721a/contracts/ERC721A.sol\":28823:29340  try ERC721A__IERC721Receiver(to).onERC721Received(_msgSenderERC721A(), from, tokenId, _data) returns (... */\n      tag_350\n      jumpi\n      returndatasize\n      dup1\n      dup1\n      iszero\n      tag_355\n      jumpi\n      mload(0x40)\n      swap2\n      pop\n      and(add(returndatasize, 0x3f), not(0x1f))\n      dup3\n      add\n      0x40\n      mstore\n      returndatasize\n      dup3\n      mstore\n      returndatasize\n      0x00\n      0x20\n      dup5\n      add\n      returndatacopy\n      jump(tag_354)\n    tag_355:\n      0x60\n      swap2\n      pop\n    tag_354:\n      pop\n        /* \"erc721a/contracts/ERC721A.sol\":29105:29111  reason */\n      dup1\n        /* \"erc721a/contracts/ERC721A.sol\":29105:29118  reason.length */\n      mload\n        /* \"erc721a/contracts/ERC721A.sol\":29122:29123  0 */\n      0x00\n        /* \"erc721a/contracts/ERC721A.sol\":29105:29123  reason.length == 0 */\n      sub\n        /* \"erc721a/contracts/ERC721A.sol\":29101:29330  if (reason.length == 0) {... */\n      tag_356\n      jumpi\n        /* \"erc721a/contracts/ERC721A.sol\":29150:29190  TransferToNonERC721ReceiverImplementer() */\n      mload(0x40)\n      shl(0xe1, 0x68d2bf6b)\n      dup2\n      mstore\n      0x04\n      add\n      mload(0x40)\n      dup1\n      swap2\n      sub\n      swap1\n      revert\n        /* \"erc721a/contracts/ERC721A.sol\":29101:29330  if (reason.length == 0) {... */\n    tag_356:\n        /* \"erc721a/contracts/ERC721A.sol\":29290:29296  reason */\n      dup1\n        /* \"erc721a/contracts/ERC721A.sol\":29284:29297  mload(reason) */\n      mload\n        /* \"erc721a/contracts/ERC721A.sol\":29275:29281  reason */\n      dup2\n        /* \"erc721a/contracts/ERC721A.sol\":29271:29273  32 */\n      0x20\n        /* \"erc721a/contracts/ERC721A.sol\":29267:29282  add(32, reason) */\n      add\n        /* \"erc721a/contracts/ERC721A.sol\":29260:29298  revert(add(32, reason), mload(reason)) */\n      revert\n        /* \"erc721a/contracts/ERC721A.sol\":28823:29340  try ERC721A__IERC721Receiver(to).onERC721Received(_msgSenderERC721A(), from, tokenId, _data) returns (... */\n    tag_350:\n      not(sub(shl(0xe0, 0x01), 0x01))\n        /* \"erc721a/contracts/ERC721A.sol\":28983:29047  retval == ERC721A__IERC721Receiver(to).onERC721Received.selector */\n      and\n      shl(0xe1, 0x0a85bd01)\n      eq\n      swap1\n      pop\n        /* \"erc721a/contracts/ERC721A.sol\":28823:29340  try ERC721A__IERC721Receiver(to).onERC721Received(_msgSenderERC721A(), from, tokenId, _data) returns (... */\n    tag_358:\n        /* \"erc721a/contracts/ERC721A.sol\":28649:29346  function _checkContractOnERC721Received(... */\n      swap5\n      swap4\n      pop\n      pop\n      pop\n      pop\n      jump\t// out\n        /* \"ERC721A/NagaKidsERC721A.sol\":1280:1380  function _baseURI() internal view override returns (string memory) {... */\n    tag_276:\n        /* \"ERC721A/NagaKidsERC721A.sol\":1332:1345  string memory */\n      0x60\n        /* \"ERC721A/NagaKidsERC721A.sol\":1365:1372  baseURI */\n      0x0a\n        /* \"ERC721A/NagaKidsERC721A.sol\":1358:1372  return baseURI */\n      dup1\n      sload\n      tag_133\n      swap1\n      tag_134\n      jump\t// in\n        /* \"@openzeppelin/contracts/utils/Strings.sol\":328:1031  function toString(uint256 value) internal pure returns (string memory) {... */\n    tag_280:\n        /* \"@openzeppelin/contracts/utils/Strings.sol\":384:397  string memory */\n      0x60\n        /* \"@openzeppelin/contracts/utils/Strings.sol\":601:606  value */\n      dup2\n        /* \"@openzeppelin/contracts/utils/Strings.sol\":610:611  0 */\n      0x00\n        /* \"@openzeppelin/contracts/utils/Strings.sol\":601:611  value == 0 */\n      sub\n        /* \"@openzeppelin/contracts/utils/Strings.sol\":597:648  if (value == 0) {... */\n      tag_366\n      jumpi\n      pop\n      pop\n        /* \"@openzeppelin/contracts/utils/Strings.sol\":627:637  return \"0\" */\n      0x40\n      dup1\n      mload\n      dup1\n      dup3\n      add\n      swap1\n      swap2\n      mstore\n      0x01\n      dup2\n      mstore\n      shl(0xfc, 0x03)\n      0x20\n      dup3\n      add\n      mstore\n      swap1\n        /* \"@openzeppelin/contracts/utils/Strings.sol\":328:1031  function toString(uint256 value) internal pure returns (string memory) {... */\n      jump\t// out\n        /* \"@openzeppelin/contracts/utils/Strings.sol\":597:648  if (value == 0) {... */\n    tag_366:\n        /* \"@openzeppelin/contracts/utils/Strings.sol\":672:677  value */\n      dup2\n        /* \"@openzeppelin/contracts/utils/Strings.sol\":657:669  uint256 temp */\n      0x00\n        /* \"@openzeppelin/contracts/utils/Strings.sol\":711:786  while (temp != 0) {... */\n    tag_367:\n        /* \"@openzeppelin/contracts/utils/Strings.sol\":718:727  temp != 0 */\n      dup2\n      iszero\n        /* \"@openzeppelin/contracts/utils/Strings.sol\":711:786  while (temp != 0) {... */\n      tag_368\n      jumpi\n        /* \"@openzeppelin/contracts/utils/Strings.sol\":743:751  digits++ */\n      dup1\n      tag_369\n      dup2\n      tag_209\n      jump\t// in\n    tag_369:\n      swap2\n      pop\n        /* \"@openzeppelin/contracts/utils/Strings.sol\":765:775  temp /= 10 */\n      tag_370\n      swap1\n      pop\n        /* \"@openzeppelin/contracts/utils/Strings.sol\":773:775  10 */\n      0x0a\n        /* \"@openzeppelin/contracts/utils/Strings.sol\":765:775  temp /= 10 */\n      dup4\n      tag_371\n      jump\t// in\n    tag_370:\n      swap2\n      pop\n        /* \"@openzeppelin/contracts/utils/Strings.sol\":711:786  while (temp != 0) {... */\n      jump(tag_367)\n    tag_368:\n        /* \"@openzeppelin/contracts/utils/Strings.sol\":795:814  bytes memory buffer */\n      0x00\n        /* \"@openzeppelin/contracts/utils/Strings.sol\":827:833  digits */\n      dup2\n        /* \"@openzeppelin/contracts/utils/Strings.sol\":817:834  new bytes(digits) */\n      0xffffffffffffffff\n      dup2\n      gt\n      iszero\n      tag_373\n      jumpi\n      tag_373\n      tag_198\n      jump\t// in\n    tag_373:\n      mload(0x40)\n      swap1\n      dup1\n      dup3\n      mstore\n      dup1\n      0x1f\n      add\n      not(0x1f)\n      and\n      0x20\n      add\n      dup3\n      add\n      0x40\n      mstore\n      dup1\n      iszero\n      tag_374\n      jumpi\n      0x20\n      dup3\n      add\n      dup2\n      dup1\n      calldatasize\n      dup4\n      calldatacopy\n      add\n      swap1\n      pop\n    tag_374:\n      pop\n        /* \"@openzeppelin/contracts/utils/Strings.sol\":795:834  bytes memory buffer = new bytes(digits) */\n      swap1\n      pop\n        /* \"@openzeppelin/contracts/utils/Strings.sol\":844:994  while (value != 0) {... */\n    tag_375:\n        /* \"@openzeppelin/contracts/utils/Strings.sol\":851:861  value != 0 */\n      dup5\n      iszero\n        /* \"@openzeppelin/contracts/utils/Strings.sol\":844:994  while (value != 0) {... */\n      tag_358\n      jumpi\n        /* \"@openzeppelin/contracts/utils/Strings.sol\":877:888  digits -= 1 */\n      tag_377\n        /* \"@openzeppelin/contracts/utils/Strings.sol\":887:888  1 */\n      0x01\n        /* \"@openzeppelin/contracts/utils/Strings.sol\":877:888  digits -= 1 */\n      dup4\n      tag_378\n      jump\t// in\n    tag_377:\n      swap2\n      pop\n        /* \"@openzeppelin/contracts/utils/Strings.sol\":945:955  value % 10 */\n      tag_379\n        /* \"@openzeppelin/contracts/utils/Strings.sol\":953:955  10 */\n      0x0a\n        /* \"@openzeppelin/contracts/utils/Strings.sol\":945:950  value */\n      dup7\n        /* \"@openzeppelin/contracts/utils/Strings.sol\":945:955  value % 10 */\n      tag_380\n      jump\t// in\n    tag_379:\n        /* \"@openzeppelin/contracts/utils/Strings.sol\":932:956  48 + uint256(value % 10) */\n      tag_381\n      swap1\n        /* \"@openzeppelin/contracts/utils/Strings.sol\":932:934  48 */\n      0x30\n        /* \"@openzeppelin/contracts/utils/Strings.sol\":932:956  48 + uint256(value % 10) */\n      tag_246\n      jump\t// in\n    tag_381:\n        /* \"@openzeppelin/contracts/utils/Strings.sol\":919:958  bytes1(uint8(48 + uint256(value % 10))) */\n      0xf8\n      shl\n        /* \"@openzeppelin/contracts/utils/Strings.sol\":902:908  buffer */\n      dup2\n        /* \"@openzeppelin/contracts/utils/Strings.sol\":909:915  digits */\n      dup4\n        /* \"@openzeppelin/contracts/utils/Strings.sol\":902:916  buffer[digits] */\n      dup2\n      mload\n      dup2\n      lt\n      tag_383\n      jumpi\n      tag_383\n      tag_207\n      jump\t// in\n    tag_383:\n      0x20\n      add\n      add\n        /* \"@openzeppelin/contracts/utils/Strings.sol\":902:958  buffer[digits] = bytes1(uint8(48 + uint256(value % 10))) */\n      swap1\n      not(sub(shl(0xf8, 0x01), 0x01))\n      and\n      swap1\n      dup2\n      0x00\n      byte\n      swap1\n      mstore8\n      pop\n        /* \"@openzeppelin/contracts/utils/Strings.sol\":972:983  value /= 10 */\n      tag_384\n        /* \"@openzeppelin/contracts/utils/Strings.sol\":981:983  10 */\n      0x0a\n        /* \"@openzeppelin/contracts/utils/Strings.sol\":972:983  value /= 10 */\n      dup7\n      tag_371\n      jump\t// in\n    tag_384:\n      swap5\n      pop\n        /* \"@openzeppelin/contracts/utils/Strings.sol\":844:994  while (value != 0) {... */\n      jump(tag_375)\n        /* \"erc721a/contracts/ERC721A.sol\":15641:16302  function _safeMint(... */\n    tag_342:\n        /* \"erc721a/contracts/ERC721A.sol\":15759:15778  _mint(to, quantity) */\n      tag_387\n        /* \"erc721a/contracts/ERC721A.sol\":15765:15767  to */\n      dup4\n        /* \"erc721a/contracts/ERC721A.sol\":15769:15777  quantity */\n      dup4\n        /* \"erc721a/contracts/ERC721A.sol\":15759:15764  _mint */\n      tag_388\n        /* \"erc721a/contracts/ERC721A.sol\":15759:15778  _mint(to, quantity) */\n      jump\t// in\n    tag_387:\n      sub(shl(0xa0, 0x01), 0x01)\n        /* \"erc721a/contracts/ERC721A.sol\":15817:15831  to.code.length */\n      dup4\n      and\n      extcodesize\n        /* \"erc721a/contracts/ERC721A.sol\":15817:15836  to.code.length != 0 */\n      iszero\n        /* \"erc721a/contracts/ERC721A.sol\":15813:16286  if (to.code.length != 0) {... */\n      tag_190\n      jumpi\n        /* \"erc721a/contracts/ERC721A.sol\":15856:15867  uint256 end */\n      0x00\n        /* \"erc721a/contracts/ERC721A.sol\":15870:15883  _currentIndex */\n      sload\n        /* \"erc721a/contracts/ERC721A.sol\":15917:15931  end - quantity */\n      dup3\n      dup2\n      sub\n        /* \"erc721a/contracts/ERC721A.sol\":15949:16178  do {... */\n    tag_390:\n        /* \"erc721a/contracts/ERC721A.sol\":15979:16041  _checkContractOnERC721Received(address(0), to, index++, _data) */\n      tag_393\n        /* \"erc721a/contracts/ERC721A.sol\":16018:16019  0 */\n      0x00\n        /* \"erc721a/contracts/ERC721A.sol\":16022:16024  to */\n      dup7\n        /* \"erc721a/contracts/ERC721A.sol\":16026:16033  index++ */\n      dup4\n      dup1\n      0x01\n      add\n      swap5\n      pop\n        /* \"erc721a/contracts/ERC721A.sol\":16035:16040  _data */\n      dup7\n        /* \"erc721a/contracts/ERC721A.sol\":15979:16009  _checkContractOnERC721Received */\n      tag_263\n        /* \"erc721a/contracts/ERC721A.sol\":15979:16041  _checkContractOnERC721Received(address(0), to, index++, _data) */\n      jump\t// in\n    tag_393:\n        /* \"erc721a/contracts/ERC721A.sol\":15974:16139  if (!_checkContractOnERC721Received(address(0), to, index++, _data)) {... */\n      tag_394\n      jumpi\n        /* \"erc721a/contracts/ERC721A.sol\":16076:16116  TransferToNonERC721ReceiverImplementer() */\n      mload(0x40)\n      shl(0xe1, 0x68d2bf6b)\n      dup2\n      mstore\n      0x04\n      add\n      mload(0x40)\n      dup1\n      swap2\n      sub\n      swap1\n      revert\n        /* \"erc721a/contracts/ERC721A.sol\":15974:16139  if (!_checkContractOnERC721Received(address(0), to, index++, _data)) {... */\n    tag_394:\n        /* \"erc721a/contracts/ERC721A.sol\":16173:16176  end */\n      dup2\n        /* \"erc721a/contracts/ERC721A.sol\":16165:16170  index */\n      dup2\n        /* \"erc721a/contracts/ERC721A.sol\":16165:16176  index < end */\n      lt\n        /* \"erc721a/contracts/ERC721A.sol\":15949:16178  do {... */\n      tag_390\n      jumpi\n        /* \"erc721a/contracts/ERC721A.sol\":16258:16261  end */\n      dup2\n        /* \"erc721a/contracts/ERC721A.sol\":16241:16254  _currentIndex */\n      sload(0x00)\n        /* \"erc721a/contracts/ERC721A.sol\":16241:16261  _currentIndex != end */\n      eq\n        /* \"erc721a/contracts/ERC721A.sol\":16237:16271  if (_currentIndex != end) revert() */\n      tag_395\n      jumpi\n        /* \"erc721a/contracts/ERC721A.sol\":16263:16271  revert() */\n      0x00\n      dup1\n      revert\n        /* \"erc721a/contracts/ERC721A.sol\":16237:16271  if (_currentIndex != end) revert() */\n    tag_395:\n        /* \"erc721a/contracts/ERC721A.sol\":15838:16286  {... */\n      pop\n      pop\n        /* \"erc721a/contracts/ERC721A.sol\":15641:16302  function _safeMint(... */\n      pop\n      pop\n      pop\n      jump\t// out\n        /* \"erc721a/contracts/ERC721A.sol\":16563:18055  function _mint(address to, uint256 quantity) internal {... */\n    tag_388:\n        /* \"erc721a/contracts/ERC721A.sol\":16627:16647  uint256 startTokenId */\n      0x00\n        /* \"erc721a/contracts/ERC721A.sol\":16650:16663  _currentIndex */\n      sload\n      sub(shl(0xa0, 0x01), 0x01)\n        /* \"erc721a/contracts/ERC721A.sol\":16677:16693  to == address(0) */\n      dup4\n      and\n        /* \"erc721a/contracts/ERC721A.sol\":16673:16721  if (to == address(0)) revert MintToZeroAddress() */\n      tag_397\n      jumpi\n        /* \"erc721a/contracts/ERC721A.sol\":16702:16721  MintToZeroAddress() */\n      mload(0x40)\n      shl(0xe8, 0x2e0763)\n      dup2\n      mstore\n      0x04\n      add\n      mload(0x40)\n      dup1\n      swap2\n      sub\n      swap1\n      revert\n        /* \"erc721a/contracts/ERC721A.sol\":16673:16721  if (to == address(0)) revert MintToZeroAddress() */\n    tag_397:\n        /* \"erc721a/contracts/ERC721A.sol\":16735:16743  quantity */\n      dup2\n        /* \"erc721a/contracts/ERC721A.sol\":16747:16748  0 */\n      0x00\n        /* \"erc721a/contracts/ERC721A.sol\":16735:16748  quantity == 0 */\n      sub\n        /* \"erc721a/contracts/ERC721A.sol\":16731:16775  if (quantity == 0) revert MintZeroQuantity() */\n      tag_398\n      jumpi\n        /* \"erc721a/contracts/ERC721A.sol\":16757:16775  MintZeroQuantity() */\n      mload(0x40)\n      shl(0xe0, 0xb562e8dd)\n      dup2\n      mstore\n      0x04\n      add\n      mload(0x40)\n      dup1\n      swap2\n      sub\n      swap1\n      revert\n        /* \"erc721a/contracts/ERC721A.sol\":16731:16775  if (quantity == 0) revert MintZeroQuantity() */\n    tag_398:\n        /* \"erc721a/contracts/ERC721A.sol\":16786:16847  _beforeTokenTransfers(address(0), to, startTokenId, quantity) */\n      tag_399\n        /* \"erc721a/contracts/ERC721A.sol\":16816:16817  0 */\n      0x00\n        /* \"erc721a/contracts/ERC721A.sol\":16820:16822  to */\n      dup5\n        /* \"erc721a/contracts/ERC721A.sol\":16824:16836  startTokenId */\n      dup4\n        /* \"erc721a/contracts/ERC721A.sol\":16838:16846  quantity */\n      dup6\n        /* \"erc721a/contracts/ERC721A.sol\":16786:16807  _beforeTokenTransfers */\n      tag_169\n        /* \"erc721a/contracts/ERC721A.sol\":16786:16847  _beforeTokenTransfers(address(0), to, startTokenId, quantity) */\n      jump\t// in\n    tag_399:\n      sub(shl(0xa0, 0x01), 0x01)\n        /* \"erc721a/contracts/ERC721A.sol\":17250:17272  _packedAddressData[to] */\n      dup4\n      and\n      0x00\n      dup2\n      dup2\n      mstore\n        /* \"erc721a/contracts/ERC721A.sol\":17250:17268  _packedAddressData */\n      0x05\n        /* \"erc721a/contracts/ERC721A.sol\":17250:17272  _packedAddressData[to] */\n      0x20\n      mstore\n        /* \"erc721a/contracts/ERC721A.sol\":1156:1158  64 */\n      0x40\n        /* \"erc721a/contracts/ERC721A.sol\":17250:17272  _packedAddressData[to] */\n      swap1\n      keccak256\n        /* \"erc721a/contracts/ERC721A.sol\":17250:17320  _packedAddressData[to] += quantity * ((1 << BITPOS_NUMBER_MINTED) | 1) */\n      dup1\n      sload\n        /* \"erc721a/contracts/ERC721A.sol\":17288:17319  (1 << BITPOS_NUMBER_MINTED) | 1 */\n      0x010000000000000001\n        /* \"erc721a/contracts/ERC721A.sol\":17276:17320  quantity * ((1 << BITPOS_NUMBER_MINTED) | 1) */\n      dup6\n      mul\n        /* \"erc721a/contracts/ERC721A.sol\":17250:17320  _packedAddressData[to] += quantity * ((1 << BITPOS_NUMBER_MINTED) | 1) */\n      add\n      swap1\n      sstore\n        /* \"erc721a/contracts/ERC721A.sol\":10863:10874  timestamp() */\n      timestamp\n        /* \"erc721a/contracts/ERC721A.sol\":10839:10861  BITPOS_START_TIMESTAMP */\n      0xa0\n        /* \"erc721a/contracts/ERC721A.sol\":10835:10875  shl(BITPOS_START_TIMESTAMP, timestamp()) */\n      shl\n      0x01\n        /* \"erc721a/contracts/ERC721A.sol\":12522:12537  eq(quantity, 1) */\n      dup5\n      eq\n        /* \"erc721a/contracts/ERC721A.sol\":12497:12520  BITPOS_NEXT_INITIALIZED */\n      0xe1\n        /* \"erc721a/contracts/ERC721A.sol\":12493:12538  shl(BITPOS_NEXT_INITIALIZED, eq(quantity, 1)) */\n      shl\n        /* \"erc721a/contracts/ERC721A.sol\":10832:10883  or(shl(BITPOS_START_TIMESTAMP, timestamp()), flags) */\n      or\n        /* \"erc721a/contracts/ERC721A.sol\":10822:10884  or(owner, or(shl(BITPOS_START_TIMESTAMP, timestamp()), flags)) */\n      or\n        /* \"erc721a/contracts/ERC721A.sol\":17556:17587  _packedOwnerships[startTokenId] */\n      0x00\n      dup3\n      dup2\n      mstore\n        /* \"erc721a/contracts/ERC721A.sol\":17556:17573  _packedOwnerships */\n      0x04\n        /* \"erc721a/contracts/ERC721A.sol\":17556:17587  _packedOwnerships[startTokenId] */\n      0x20\n      mstore\n      0x40\n      swap1\n      keccak256\n        /* \"erc721a/contracts/ERC721A.sol\":17556:17726  _packedOwnerships[startTokenId] = _packOwnershipData(... */\n      sstore\n        /* \"erc721a/contracts/ERC721A.sol\":17574:17586  startTokenId */\n      dup1\n        /* \"erc721a/contracts/ERC721A.sol\":17799:17822  startTokenId + quantity */\n      dup3\n      dup2\n      add\n        /* \"erc721a/contracts/ERC721A.sol\":17836:17935  do {... */\n    tag_404:\n        /* \"erc721a/contracts/ERC721A.sol\":17862:17897  Transfer(address(0), to, tokenId++) */\n      mload(0x40)\n        /* \"erc721a/contracts/ERC721A.sol\":17887:17896  tokenId++ */\n      0x01\n      dup4\n      add\n      swap3\n      swap1\n      sub(shl(0xa0, 0x01), 0x01)\n        /* \"erc721a/contracts/ERC721A.sol\":17862:17897  Transfer(address(0), to, tokenId++) */\n      dup8\n      and\n      swap1\n        /* \"erc721a/contracts/ERC721A.sol\":17879:17880  0 */\n      0x00\n      swap1\n        /* \"erc721a/contracts/ERC721A.sol\":17862:17897  Transfer(address(0), to, tokenId++) */\n      0xddf252ad1be2c89b69c2b068fc378daa952ba7f163c4a11628f55a4df523b3ef\n      swap1\n        /* \"erc721a/contracts/ERC721A.sol\":17879:17880  0 */\n      dup3\n      swap1\n        /* \"erc721a/contracts/ERC721A.sol\":17862:17897  Transfer(address(0), to, tokenId++) */\n      log4\n        /* \"erc721a/contracts/ERC721A.sol\":17930:17933  end */\n      dup1\n        /* \"erc721a/contracts/ERC721A.sol\":17920:17927  tokenId */\n      dup3\n        /* \"erc721a/contracts/ERC721A.sol\":17920:17933  tokenId < end */\n      lt\n        /* \"erc721a/contracts/ERC721A.sol\":17836:17935  do {... */\n      tag_404\n      jumpi\n        /* \"erc721a/contracts/ERC721A.sol\":17949:17962  _currentIndex */\n      0x00\n        /* \"erc721a/contracts/ERC721A.sol\":17949:17968  _currentIndex = end */\n      sstore\n      pop\n        /* \"erc721a/contracts/ERC721A.sol\":13912:14091  function safeTransferFrom(... */\n      pop\n      pop\n      pop\n      jump\t// out\n        /* \"#utility.yul\":14:145   */\n    tag_409:\n      not(sub(shl(0xe0, 0x01), 0x01))\n        /* \"#utility.yul\":88:120   */\n      dup2\n      and\n        /* \"#utility.yul\":78:121   */\n      dup2\n      eq\n        /* \"#utility.yul\":68:139   */\n      tag_192\n      jumpi\n        /* \"#utility.yul\":135:136   */\n      0x00\n        /* \"#utility.yul\":132:133   */\n      dup1\n        /* \"#utility.yul\":125:137   */\n      revert\n        /* \"#utility.yul\":150:395   */\n    tag_34:\n        /* \"#utility.yul\":208:214   */\n      0x00\n        /* \"#utility.yul\":261:263   */\n      0x20\n        /* \"#utility.yul\":249:258   */\n      dup3\n        /* \"#utility.yul\":240:247   */\n      dup5\n        /* \"#utility.yul\":236:259   */\n      sub\n        /* \"#utility.yul\":232:264   */\n      slt\n        /* \"#utility.yul\":229:281   */\n      iszero\n      tag_423\n      jumpi\n        /* \"#utility.yul\":277:278   */\n      0x00\n        /* \"#utility.yul\":274:275   */\n      dup1\n        /* \"#utility.yul\":267:279   */\n      revert\n        /* \"#utility.yul\":229:281   */\n    tag_423:\n        /* \"#utility.yul\":316:325   */\n      dup2\n        /* \"#utility.yul\":303:326   */\n      calldataload\n        /* \"#utility.yul\":335:365   */\n      tag_278\n        /* \"#utility.yul\":359:364   */\n      dup2\n        /* \"#utility.yul\":335:365   */\n      tag_409\n      jump\t// in\n        /* \"#utility.yul\":592:850   */\n    tag_410:\n        /* \"#utility.yul\":664:665   */\n      0x00\n        /* \"#utility.yul\":674:787   */\n    tag_427:\n        /* \"#utility.yul\":688:694   */\n      dup4\n        /* \"#utility.yul\":685:686   */\n      dup2\n        /* \"#utility.yul\":682:695   */\n      lt\n        /* \"#utility.yul\":674:787   */\n      iszero\n      tag_429\n      jumpi\n        /* \"#utility.yul\":764:775   */\n      dup2\n      dup2\n      add\n        /* \"#utility.yul\":758:776   */\n      mload\n        /* \"#utility.yul\":745:756   */\n      dup4\n      dup3\n      add\n        /* \"#utility.yul\":738:777   */\n      mstore\n        /* \"#utility.yul\":710:712   */\n      0x20\n        /* \"#utility.yul\":703:713   */\n      add\n        /* \"#utility.yul\":674:787   */\n      jump(tag_427)\n    tag_429:\n        /* \"#utility.yul\":805:811   */\n      dup4\n        /* \"#utility.yul\":802:803   */\n      dup2\n        /* \"#utility.yul\":799:812   */\n      gt\n        /* \"#utility.yul\":796:844   */\n      iszero\n      tag_250\n      jumpi\n      pop\n      pop\n        /* \"#utility.yul\":840:841   */\n      0x00\n        /* \"#utility.yul\":822:838   */\n      swap2\n      add\n        /* \"#utility.yul\":815:842   */\n      mstore\n        /* \"#utility.yul\":592:850   */\n      jump\t// out\n        /* \"#utility.yul\":855:1113   */\n    tag_411:\n        /* \"#utility.yul\":897:900   */\n      0x00\n        /* \"#utility.yul\":935:940   */\n      dup2\n        /* \"#utility.yul\":929:941   */\n      mload\n        /* \"#utility.yul\":962:968   */\n      dup1\n        /* \"#utility.yul\":957:960   */\n      dup5\n        /* \"#utility.yul\":950:969   */\n      mstore\n        /* \"#utility.yul\":978:1041   */\n      tag_432\n        /* \"#utility.yul\":1034:1040   */\n      dup2\n        /* \"#utility.yul\":1027:1031   */\n      0x20\n        /* \"#utility.yul\":1022:1025   */\n      dup7\n        /* \"#utility.yul\":1018:1032   */\n      add\n        /* \"#utility.yul\":1011:1015   */\n      0x20\n        /* \"#utility.yul\":1004:1009   */\n      dup7\n        /* \"#utility.yul\":1000:1016   */\n      add\n        /* \"#utility.yul\":978:1041   */\n      tag_410\n      jump\t// in\n    tag_432:\n        /* \"#utility.yul\":1095:1097   */\n      0x1f\n        /* \"#utility.yul\":1074:1089   */\n      add\n      not(0x1f)\n        /* \"#utility.yul\":1070:1099   */\n      and\n        /* \"#utility.yul\":1061:1100   */\n      swap3\n      swap1\n      swap3\n      add\n        /* \"#utility.yul\":1102:1106   */\n      0x20\n        /* \"#utility.yul\":1057:1107   */\n      add\n      swap3\n        /* \"#utility.yul\":855:1113   */\n      swap2\n      pop\n      pop\n      jump\t// out\n        /* \"#utility.yul\":1118:1338   */\n    tag_41:\n        /* \"#utility.yul\":1267:1269   */\n      0x20\n        /* \"#utility.yul\":1256:1265   */\n      dup2\n        /* \"#utility.yul\":1249:1270   */\n      mstore\n        /* \"#utility.yul\":1230:1234   */\n      0x00\n        /* \"#utility.yul\":1287:1332   */\n      tag_278\n        /* \"#utility.yul\":1328:1330   */\n      0x20\n        /* \"#utility.yul\":1317:1326   */\n      dup4\n        /* \"#utility.yul\":1313:1331   */\n      add\n        /* \"#utility.yul\":1305:1311   */\n      dup5\n        /* \"#utility.yul\":1287:1332   */\n      tag_411\n      jump\t// in\n        /* \"#utility.yul\":1343:1523   */\n    tag_44:\n        /* \"#utility.yul\":1402:1408   */\n      0x00\n        /* \"#utility.yul\":1455:1457   */\n      0x20\n        /* \"#utility.yul\":1443:1452   */\n      dup3\n        /* \"#utility.yul\":1434:1441   */\n      dup5\n        /* \"#utility.yul\":1430:1453   */\n      sub\n        /* \"#utility.yul\":1426:1458   */\n      slt\n        /* \"#utility.yul\":1423:1475   */\n      iszero\n      tag_436\n      jumpi\n        /* \"#utility.yul\":1471:1472   */\n      0x00\n        /* \"#utility.yul\":1468:1469   */\n      dup1\n        /* \"#utility.yul\":1461:1473   */\n      revert\n        /* \"#utility.yul\":1423:1475   */\n    tag_436:\n      pop\n        /* \"#utility.yul\":1494:1517   */\n      calldataload\n      swap2\n        /* \"#utility.yul\":1343:1523   */\n      swap1\n      pop\n      jump\t// out\n        /* \"#utility.yul\":1736:1909   */\n    tag_412:\n        /* \"#utility.yul\":1804:1824   */\n      dup1\n      calldataload\n      sub(shl(0xa0, 0x01), 0x01)\n        /* \"#utility.yul\":1853:1884   */\n      dup2\n      and\n        /* \"#utility.yul\":1843:1885   */\n      dup2\n      eq\n        /* \"#utility.yul\":1833:1903   */\n      tag_439\n      jumpi\n        /* \"#utility.yul\":1899:1900   */\n      0x00\n        /* \"#utility.yul\":1896:1897   */\n      dup1\n        /* \"#utility.yul\":1889:1901   */\n      revert\n        /* \"#utility.yul\":1833:1903   */\n    tag_439:\n        /* \"#utility.yul\":1736:1909   */\n      swap2\n      swap1\n      pop\n      jump\t// out\n        /* \"#utility.yul\":1914:2168   */\n    tag_50:\n        /* \"#utility.yul\":1982:1988   */\n      0x00\n        /* \"#utility.yul\":1990:1996   */\n      dup1\n        /* \"#utility.yul\":2043:2045   */\n      0x40\n        /* \"#utility.yul\":2031:2040   */\n      dup4\n        /* \"#utility.yul\":2022:2029   */\n      dup6\n        /* \"#utility.yul\":2018:2041   */\n      sub\n        /* \"#utility.yul\":2014:2046   */\n      slt\n        /* \"#utility.yul\":2011:2063   */\n      iszero\n      tag_441\n      jumpi\n        /* \"#utility.yul\":2059:2060   */\n      0x00\n        /* \"#utility.yul\":2056:2057   */\n      dup1\n        /* \"#utility.yul\":2049:2061   */\n      revert\n        /* \"#utility.yul\":2011:2063   */\n    tag_441:\n        /* \"#utility.yul\":2082:2111   */\n      tag_442\n        /* \"#utility.yul\":2101:2110   */\n      dup4\n        /* \"#utility.yul\":2082:2111   */\n      tag_412\n      jump\t// in\n    tag_442:\n        /* \"#utility.yul\":2072:2111   */\n      swap5\n        /* \"#utility.yul\":2158:2160   */\n      0x20\n        /* \"#utility.yul\":2143:2161   */\n      swap4\n      swap1\n      swap4\n      add\n        /* \"#utility.yul\":2130:2162   */\n      calldataload\n      swap4\n      pop\n      pop\n      pop\n        /* \"#utility.yul\":1914:2168   */\n      jump\t// out\n        /* \"#utility.yul\":2355:2683   */\n    tag_58:\n        /* \"#utility.yul\":2432:2438   */\n      0x00\n        /* \"#utility.yul\":2440:2446   */\n      dup1\n        /* \"#utility.yul\":2448:2454   */\n      0x00\n        /* \"#utility.yul\":2501:2503   */\n      0x60\n        /* \"#utility.yul\":2489:2498   */\n      dup5\n        /* \"#utility.yul\":2480:2487   */\n      dup7\n        /* \"#utility.yul\":2476:2499   */\n      sub\n        /* \"#utility.yul\":2472:2504   */\n      slt\n        /* \"#utility.yul\":2469:2521   */\n      iszero\n      tag_445\n      jumpi\n        /* \"#utility.yul\":2517:2518   */\n      0x00\n        /* \"#utility.yul\":2514:2515   */\n      dup1\n        /* \"#utility.yul\":2507:2519   */\n      revert\n        /* \"#utility.yul\":2469:2521   */\n    tag_445:\n        /* \"#utility.yul\":2540:2569   */\n      tag_446\n        /* \"#utility.yul\":2559:2568   */\n      dup5\n        /* \"#utility.yul\":2540:2569   */\n      tag_412\n      jump\t// in\n    tag_446:\n        /* \"#utility.yul\":2530:2569   */\n      swap3\n      pop\n        /* \"#utility.yul\":2588:2626   */\n      tag_447\n        /* \"#utility.yul\":2622:2624   */\n      0x20\n        /* \"#utility.yul\":2611:2620   */\n      dup6\n        /* \"#utility.yul\":2607:2625   */\n      add\n        /* \"#utility.yul\":2588:2626   */\n      tag_412\n      jump\t// in\n    tag_447:\n        /* \"#utility.yul\":2578:2626   */\n      swap2\n      pop\n        /* \"#utility.yul\":2673:2675   */\n      0x40\n        /* \"#utility.yul\":2662:2671   */\n      dup5\n        /* \"#utility.yul\":2658:2676   */\n      add\n        /* \"#utility.yul\":2645:2677   */\n      calldataload\n        /* \"#utility.yul\":2635:2677   */\n      swap1\n      pop\n        /* \"#utility.yul\":2355:2683   */\n      swap3\n      pop\n      swap3\n      pop\n      swap3\n      jump\t// out\n        /* \"#utility.yul\":2688:3035   */\n    tag_62:\n        /* \"#utility.yul\":2753:2759   */\n      0x00\n        /* \"#utility.yul\":2761:2767   */\n      dup1\n        /* \"#utility.yul\":2814:2816   */\n      0x40\n        /* \"#utility.yul\":2802:2811   */\n      dup4\n        /* \"#utility.yul\":2793:2800   */\n      dup6\n        /* \"#utility.yul\":2789:2812   */\n      sub\n        /* \"#utility.yul\":2785:2817   */\n      slt\n        /* \"#utility.yul\":2782:2834   */\n      iszero\n      tag_449\n      jumpi\n        /* \"#utility.yul\":2830:2831   */\n      0x00\n        /* \"#utility.yul\":2827:2828   */\n      dup1\n        /* \"#utility.yul\":2820:2832   */\n      revert\n        /* \"#utility.yul\":2782:2834   */\n    tag_449:\n        /* \"#utility.yul\":2853:2882   */\n      tag_450\n        /* \"#utility.yul\":2872:2881   */\n      dup4\n        /* \"#utility.yul\":2853:2882   */\n      tag_412\n      jump\t// in\n    tag_450:\n        /* \"#utility.yul\":2843:2882   */\n      swap2\n      pop\n        /* \"#utility.yul\":2932:2934   */\n      0x20\n        /* \"#utility.yul\":2921:2930   */\n      dup4\n        /* \"#utility.yul\":2917:2935   */\n      add\n        /* \"#utility.yul\":2904:2936   */\n      calldataload\n        /* \"#utility.yul\":2979:2984   */\n      dup1\n        /* \"#utility.yul\":2972:2985   */\n      iszero\n        /* \"#utility.yul\":2965:2986   */\n      iszero\n        /* \"#utility.yul\":2958:2963   */\n      dup2\n        /* \"#utility.yul\":2955:2987   */\n      eq\n        /* \"#utility.yul\":2945:3005   */\n      tag_451\n      jumpi\n        /* \"#utility.yul\":3001:3002   */\n      0x00\n        /* \"#utility.yul\":2998:2999   */\n      dup1\n        /* \"#utility.yul\":2991:3003   */\n      revert\n        /* \"#utility.yul\":2945:3005   */\n    tag_451:\n        /* \"#utility.yul\":3024:3029   */\n      dup1\n        /* \"#utility.yul\":3014:3029   */\n      swap2\n      pop\n      pop\n        /* \"#utility.yul\":2688:3035   */\n      swap3\n      pop\n      swap3\n      swap1\n      pop\n      jump\t// out\n        /* \"#utility.yul\":3040:3226   */\n    tag_72:\n        /* \"#utility.yul\":3099:3105   */\n      0x00\n        /* \"#utility.yul\":3152:3154   */\n      0x20\n        /* \"#utility.yul\":3140:3149   */\n      dup3\n        /* \"#utility.yul\":3131:3138   */\n      dup5\n        /* \"#utility.yul\":3127:3150   */\n      sub\n        /* \"#utility.yul\":3123:3155   */\n      slt\n        /* \"#utility.yul\":3120:3172   */\n      iszero\n      tag_453\n      jumpi\n        /* \"#utility.yul\":3168:3169   */\n      0x00\n        /* \"#utility.yul\":3165:3166   */\n      dup1\n        /* \"#utility.yul\":3158:3170   */\n      revert\n        /* \"#utility.yul\":3120:3172   */\n    tag_453:\n        /* \"#utility.yul\":3191:3220   */\n      tag_278\n        /* \"#utility.yul\":3210:3219   */\n      dup3\n        /* \"#utility.yul\":3191:3220   */\n      tag_412\n      jump\t// in\n        /* \"#utility.yul\":3231:3863   */\n    tag_75:\n        /* \"#utility.yul\":3402:3404   */\n      0x20\n        /* \"#utility.yul\":3454:3475   */\n      dup1\n      dup3\n      mstore\n        /* \"#utility.yul\":3524:3537   */\n      dup3\n      mload\n        /* \"#utility.yul\":3427:3445   */\n      dup3\n      dup3\n      add\n        /* \"#utility.yul\":3546:3568   */\n      dup2\n      swap1\n      mstore\n        /* \"#utility.yul\":3373:3377   */\n      0x00\n      swap2\n        /* \"#utility.yul\":3402:3404   */\n      swap1\n        /* \"#utility.yul\":3625:3640   */\n      dup5\n      dup3\n      add\n      swap1\n        /* \"#utility.yul\":3599:3601   */\n      0x40\n        /* \"#utility.yul\":3584:3602   */\n      dup6\n      add\n      swap1\n        /* \"#utility.yul\":3373:3377   */\n      dup5\n        /* \"#utility.yul\":3668:3837   */\n    tag_456:\n        /* \"#utility.yul\":3682:3688   */\n      dup2\n        /* \"#utility.yul\":3679:3680   */\n      dup2\n        /* \"#utility.yul\":3676:3689   */\n      lt\n        /* \"#utility.yul\":3668:3837   */\n      iszero\n      tag_458\n      jumpi\n        /* \"#utility.yul\":3743:3756   */\n      dup4\n      mload\n        /* \"#utility.yul\":3731:3757   */\n      dup4\n      mstore\n        /* \"#utility.yul\":3812:3827   */\n      swap3\n      dup5\n      add\n      swap3\n        /* \"#utility.yul\":3777:3789   */\n      swap2\n      dup5\n      add\n      swap2\n        /* \"#utility.yul\":3704:3705   */\n      0x01\n        /* \"#utility.yul\":3697:3706   */\n      add\n        /* \"#utility.yul\":3668:3837   */\n      jump(tag_456)\n    tag_458:\n      pop\n        /* \"#utility.yul\":3854:3857   */\n      swap1\n      swap7\n        /* \"#utility.yul\":3231:3863   */\n      swap6\n      pop\n      pop\n      pop\n      pop\n      pop\n      pop\n      jump\t// out\n        /* \"#utility.yul\":3868:3995   */\n    tag_198:\n        /* \"#utility.yul\":3929:3939   */\n      0x4e487b71\n        /* \"#utility.yul\":3924:3927   */\n      0xe0\n        /* \"#utility.yul\":3920:3940   */\n      shl\n        /* \"#utility.yul\":3917:3918   */\n      0x00\n        /* \"#utility.yul\":3910:3941   */\n      mstore\n        /* \"#utility.yul\":3960:3964   */\n      0x41\n        /* \"#utility.yul\":3957:3958   */\n      0x04\n        /* \"#utility.yul\":3950:3965   */\n      mstore\n        /* \"#utility.yul\":3984:3988   */\n      0x24\n        /* \"#utility.yul\":3981:3982   */\n      0x00\n        /* \"#utility.yul\":3974:3989   */\n      revert\n        /* \"#utility.yul\":4000:4632   */\n    tag_413:\n        /* \"#utility.yul\":4065:4070   */\n      0x00\n        /* \"#utility.yul\":4095:4113   */\n      0xffffffffffffffff\n        /* \"#utility.yul\":4136:4138   */\n      dup1\n        /* \"#utility.yul\":4128:4134   */\n      dup5\n        /* \"#utility.yul\":4125:4139   */\n      gt\n        /* \"#utility.yul\":4122:4162   */\n      iszero\n      tag_462\n      jumpi\n        /* \"#utility.yul\":4142:4160   */\n      tag_462\n      tag_198\n      jump\t// in\n    tag_462:\n        /* \"#utility.yul\":4217:4219   */\n      0x40\n        /* \"#utility.yul\":4211:4220   */\n      mload\n        /* \"#utility.yul\":4185:4187   */\n      0x1f\n        /* \"#utility.yul\":4271:4286   */\n      dup6\n      add\n      not(0x1f)\n        /* \"#utility.yul\":4267:4291   */\n      swap1\n      dup2\n      and\n        /* \"#utility.yul\":4293:4295   */\n      0x3f\n        /* \"#utility.yul\":4263:4296   */\n      add\n        /* \"#utility.yul\":4259:4301   */\n      and\n        /* \"#utility.yul\":4247:4302   */\n      dup2\n      add\n      swap1\n        /* \"#utility.yul\":4317:4335   */\n      dup3\n      dup3\n      gt\n        /* \"#utility.yul\":4337:4359   */\n      dup2\n      dup4\n      lt\n        /* \"#utility.yul\":4314:4360   */\n      or\n        /* \"#utility.yul\":4311:4383   */\n      iszero\n      tag_464\n      jumpi\n        /* \"#utility.yul\":4363:4381   */\n      tag_464\n      tag_198\n      jump\t// in\n    tag_464:\n        /* \"#utility.yul\":4403:4413   */\n      dup2\n        /* \"#utility.yul\":4399:4401   */\n      0x40\n        /* \"#utility.yul\":4392:4414   */\n      mstore\n        /* \"#utility.yul\":4432:4438   */\n      dup1\n        /* \"#utility.yul\":4423:4438   */\n      swap4\n      pop\n        /* \"#utility.yul\":4462:4468   */\n      dup6\n        /* \"#utility.yul\":4454:4460   */\n      dup2\n        /* \"#utility.yul\":4447:4469   */\n      mstore\n        /* \"#utility.yul\":4502:4505   */\n      dup7\n        /* \"#utility.yul\":4493:4499   */\n      dup7\n        /* \"#utility.yul\":4488:4491   */\n      dup7\n        /* \"#utility.yul\":4484:4500   */\n      add\n        /* \"#utility.yul\":4481:4506   */\n      gt\n        /* \"#utility.yul\":4478:4523   */\n      iszero\n      tag_465\n      jumpi\n        /* \"#utility.yul\":4519:4520   */\n      0x00\n        /* \"#utility.yul\":4516:4517   */\n      dup1\n        /* \"#utility.yul\":4509:4521   */\n      revert\n        /* \"#utility.yul\":4478:4523   */\n    tag_465:\n        /* \"#utility.yul\":4569:4575   */\n      dup6\n        /* \"#utility.yul\":4564:4567   */\n      dup6\n        /* \"#utility.yul\":4557:4561   */\n      0x20\n        /* \"#utility.yul\":4549:4555   */\n      dup4\n        /* \"#utility.yul\":4545:4562   */\n      add\n        /* \"#utility.yul\":4532:4576   */\n      calldatacopy\n        /* \"#utility.yul\":4624:4625   */\n      0x00\n        /* \"#utility.yul\":4617:4621   */\n      0x20\n        /* \"#utility.yul\":4608:4614   */\n      dup8\n        /* \"#utility.yul\":4600:4606   */\n      dup4\n        /* \"#utility.yul\":4596:4615   */\n      add\n        /* \"#utility.yul\":4592:4622   */\n      add\n        /* \"#utility.yul\":4585:4626   */\n      mstore\n      pop\n      pop\n      pop\n        /* \"#utility.yul\":4000:4632   */\n      swap4\n      swap3\n      pop\n      pop\n      pop\n      jump\t// out\n        /* \"#utility.yul\":4637:5088   */\n    tag_78:\n        /* \"#utility.yul\":4706:4712   */\n      0x00\n        /* \"#utility.yul\":4759:4761   */\n      0x20\n        /* \"#utility.yul\":4747:4756   */\n      dup3\n        /* \"#utility.yul\":4738:4745   */\n      dup5\n        /* \"#utility.yul\":4734:4757   */\n      sub\n        /* \"#utility.yul\":4730:4762   */\n      slt\n        /* \"#utility.yul\":4727:4779   */\n      iszero\n      tag_467\n      jumpi\n        /* \"#utility.yul\":4775:4776   */\n      0x00\n        /* \"#utility.yul\":4772:4773   */\n      dup1\n        /* \"#utility.yul\":4765:4777   */\n      revert\n        /* \"#utility.yul\":4727:4779   */\n    tag_467:\n        /* \"#utility.yul\":4815:4824   */\n      dup2\n        /* \"#utility.yul\":4802:4825   */\n      calldataload\n        /* \"#utility.yul\":4848:4866   */\n      0xffffffffffffffff\n        /* \"#utility.yul\":4840:4846   */\n      dup2\n        /* \"#utility.yul\":4837:4867   */\n      gt\n        /* \"#utility.yul\":4834:4884   */\n      iszero\n      tag_468\n      jumpi\n        /* \"#utility.yul\":4880:4881   */\n      0x00\n        /* \"#utility.yul\":4877:4878   */\n      dup1\n        /* \"#utility.yul\":4870:4882   */\n      revert\n        /* \"#utility.yul\":4834:4884   */\n    tag_468:\n        /* \"#utility.yul\":4903:4925   */\n      dup3\n      add\n        /* \"#utility.yul\":4956:4960   */\n      0x1f\n        /* \"#utility.yul\":4948:4961   */\n      dup2\n      add\n        /* \"#utility.yul\":4944:4971   */\n      dup5\n      sgt\n        /* \"#utility.yul\":4934:4989   */\n      tag_469\n      jumpi\n        /* \"#utility.yul\":4985:4986   */\n      0x00\n        /* \"#utility.yul\":4982:4983   */\n      dup1\n        /* \"#utility.yul\":4975:4987   */\n      revert\n        /* \"#utility.yul\":4934:4989   */\n    tag_469:\n        /* \"#utility.yul\":5008:5082   */\n      tag_358\n        /* \"#utility.yul\":5074:5081   */\n      dup5\n        /* \"#utility.yul\":5069:5071   */\n      dup3\n        /* \"#utility.yul\":5056:5072   */\n      calldataload\n        /* \"#utility.yul\":5051:5053   */\n      0x20\n        /* \"#utility.yul\":5047:5049   */\n      dup5\n        /* \"#utility.yul\":5043:5054   */\n      add\n        /* \"#utility.yul\":5008:5082   */\n      tag_413\n      jump\t// in\n        /* \"#utility.yul\":5093:5760   */\n    tag_108:\n        /* \"#utility.yul\":5188:5194   */\n      0x00\n        /* \"#utility.yul\":5196:5202   */\n      dup1\n        /* \"#utility.yul\":5204:5210   */\n      0x00\n        /* \"#utility.yul\":5212:5218   */\n      dup1\n        /* \"#utility.yul\":5265:5268   */\n      0x80\n        /* \"#utility.yul\":5253:5262   */\n      dup6\n        /* \"#utility.yul\":5244:5251   */\n      dup8\n        /* \"#utility.yul\":5240:5263   */\n      sub\n        /* \"#utility.yul\":5236:5269   */\n      slt\n        /* \"#utility.yul\":5233:5286   */\n      iszero\n      tag_472\n      jumpi\n        /* \"#utility.yul\":5282:5283   */\n      0x00\n        /* \"#utility.yul\":5279:5280   */\n      dup1\n        /* \"#utility.yul\":5272:5284   */\n      revert\n        /* \"#utility.yul\":5233:5286   */\n    tag_472:\n        /* \"#utility.yul\":5305:5334   */\n      tag_473\n        /* \"#utility.yul\":5324:5333   */\n      dup6\n        /* \"#utility.yul\":5305:5334   */\n      tag_412\n      jump\t// in\n    tag_473:\n        /* \"#utility.yul\":5295:5334   */\n      swap4\n      pop\n        /* \"#utility.yul\":5353:5391   */\n      tag_474\n        /* \"#utility.yul\":5387:5389   */\n      0x20\n        /* \"#utility.yul\":5376:5385   */\n      dup7\n        /* \"#utility.yul\":5372:5390   */\n      add\n        /* \"#utility.yul\":5353:5391   */\n      tag_412\n      jump\t// in\n    tag_474:\n        /* \"#utility.yul\":5343:5391   */\n      swap3\n      pop\n        /* \"#utility.yul\":5438:5440   */\n      0x40\n        /* \"#utility.yul\":5427:5436   */\n      dup6\n        /* \"#utility.yul\":5423:5441   */\n      add\n        /* \"#utility.yul\":5410:5442   */\n      calldataload\n        /* \"#utility.yul\":5400:5442   */\n      swap2\n      pop\n        /* \"#utility.yul\":5493:5495   */\n      0x60\n        /* \"#utility.yul\":5482:5491   */\n      dup6\n        /* \"#utility.yul\":5478:5496   */\n      add\n        /* \"#utility.yul\":5465:5497   */\n      calldataload\n        /* \"#utility.yul\":5520:5538   */\n      0xffffffffffffffff\n        /* \"#utility.yul\":5512:5518   */\n      dup2\n        /* \"#utility.yul\":5509:5539   */\n      gt\n        /* \"#utility.yul\":5506:5556   */\n      iszero\n      tag_475\n      jumpi\n        /* \"#utility.yul\":5552:5553   */\n      0x00\n        /* \"#utility.yul\":5549:5550   */\n      dup1\n        /* \"#utility.yul\":5542:5554   */\n      revert\n        /* \"#utility.yul\":5506:5556   */\n    tag_475:\n        /* \"#utility.yul\":5575:5597   */\n      dup6\n      add\n        /* \"#utility.yul\":5628:5632   */\n      0x1f\n        /* \"#utility.yul\":5620:5633   */\n      dup2\n      add\n        /* \"#utility.yul\":5616:5643   */\n      dup8\n      sgt\n        /* \"#utility.yul\":5606:5661   */\n      tag_476\n      jumpi\n        /* \"#utility.yul\":5657:5658   */\n      0x00\n        /* \"#utility.yul\":5654:5655   */\n      dup1\n        /* \"#utility.yul\":5647:5659   */\n      revert\n        /* \"#utility.yul\":5606:5661   */\n    tag_476:\n        /* \"#utility.yul\":5680:5754   */\n      tag_477\n        /* \"#utility.yul\":5746:5753   */\n      dup8\n        /* \"#utility.yul\":5741:5743   */\n      dup3\n        /* \"#utility.yul\":5728:5744   */\n      calldataload\n        /* \"#utility.yul\":5723:5725   */\n      0x20\n        /* \"#utility.yul\":5719:5721   */\n      dup5\n        /* \"#utility.yul\":5715:5726   */\n      add\n        /* \"#utility.yul\":5680:5754   */\n      tag_413\n      jump\t// in\n    tag_477:\n        /* \"#utility.yul\":5670:5754   */\n      swap2\n      pop\n      pop\n        /* \"#utility.yul\":5093:5760   */\n      swap3\n      swap6\n      swap2\n      swap5\n      pop\n      swap3\n      pop\n      jump\t// out\n        /* \"#utility.yul\":5765:6025   */\n    tag_122:\n        /* \"#utility.yul\":5833:5839   */\n      0x00\n        /* \"#utility.yul\":5841:5847   */\n      dup1\n        /* \"#utility.yul\":5894:5896   */\n      0x40\n        /* \"#utility.yul\":5882:5891   */\n      dup4\n        /* \"#utility.yul\":5873:5880   */\n      dup6\n        /* \"#utility.yul\":5869:5892   */\n      sub\n        /* \"#utility.yul\":5865:5897   */\n      slt\n        /* \"#utility.yul\":5862:5914   */\n      iszero\n      tag_479\n      jumpi\n        /* \"#utility.yul\":5910:5911   */\n      0x00\n        /* \"#utility.yul\":5907:5908   */\n      dup1\n        /* \"#utility.yul\":5900:5912   */\n      revert\n        /* \"#utility.yul\":5862:5914   */\n    tag_479:\n        /* \"#utility.yul\":5933:5962   */\n      tag_480\n        /* \"#utility.yul\":5952:5961   */\n      dup4\n        /* \"#utility.yul\":5933:5962   */\n      tag_412\n      jump\t// in\n    tag_480:\n        /* \"#utility.yul\":5923:5962   */\n      swap2\n      pop\n        /* \"#utility.yul\":5981:6019   */\n      tag_481\n        /* \"#utility.yul\":6015:6017   */\n      0x20\n        /* \"#utility.yul\":6004:6013   */\n      dup5\n        /* \"#utility.yul\":6000:6018   */\n      add\n        /* \"#utility.yul\":5981:6019   */\n      tag_412\n      jump\t// in\n    tag_481:\n        /* \"#utility.yul\":5971:6019   */\n      swap1\n      pop\n        /* \"#utility.yul\":5765:6025   */\n      swap3\n      pop\n      swap3\n      swap1\n      pop\n      jump\t// out\n        /* \"#utility.yul\":6030:6410   */\n    tag_134:\n        /* \"#utility.yul\":6109:6110   */\n      0x01\n        /* \"#utility.yul\":6105:6117   */\n      dup2\n      dup2\n      shr\n      swap1\n        /* \"#utility.yul\":6152:6164   */\n      dup3\n      and\n      dup1\n        /* \"#utility.yul\":6173:6234   */\n      tag_483\n      jumpi\n        /* \"#utility.yul\":6227:6231   */\n      0x7f\n        /* \"#utility.yul\":6219:6225   */\n      dup3\n        /* \"#utility.yul\":6215:6232   */\n      and\n        /* \"#utility.yul\":6205:6232   */\n      swap2\n      pop\n        /* \"#utility.yul\":6173:6234   */\n    tag_483:\n        /* \"#utility.yul\":6280:6282   */\n      0x20\n        /* \"#utility.yul\":6272:6278   */\n      dup3\n        /* \"#utility.yul\":6269:6283   */\n      lt\n        /* \"#utility.yul\":6249:6267   */\n      dup2\n        /* \"#utility.yul\":6246:6284   */\n      sub\n        /* \"#utility.yul\":6243:6404   */\n      tag_484\n      jumpi\n        /* \"#utility.yul\":6326:6336   */\n      0x4e487b71\n        /* \"#utility.yul\":6321:6324   */\n      0xe0\n        /* \"#utility.yul\":6317:6337   */\n      shl\n        /* \"#utility.yul\":6314:6315   */\n      0x00\n        /* \"#utility.yul\":6307:6338   */\n      mstore\n        /* \"#utility.yul\":6361:6365   */\n      0x22\n        /* \"#utility.yul\":6358:6359   */\n      0x04\n        /* \"#utility.yul\":6351:6366   */\n      mstore\n        /* \"#utility.yul\":6389:6393   */\n      0x24\n        /* \"#utility.yul\":6386:6387   */\n      0x00\n        /* \"#utility.yul\":6379:6394   */\n      revert\n        /* \"#utility.yul\":6243:6404   */\n    tag_484:\n      pop\n        /* \"#utility.yul\":6030:6410   */\n      swap2\n      swap1\n      pop\n      jump\t// out\n        /* \"#utility.yul\":6415:6771   */\n    tag_186:\n        /* \"#utility.yul\":6617:6619   */\n      0x20\n        /* \"#utility.yul\":6599:6620   */\n      dup1\n      dup3\n      mstore\n        /* \"#utility.yul\":6636:6654   */\n      dup2\n      dup2\n      add\n        /* \"#utility.yul\":6629:6659   */\n      mstore\n        /* \"#utility.yul\":6695:6729   */\n      0x4f776e61626c653a2063616c6c6572206973206e6f7420746865206f776e6572\n        /* \"#utility.yul\":6690:6692   */\n      0x40\n        /* \"#utility.yul\":6675:6693   */\n      dup3\n      add\n        /* \"#utility.yul\":6668:6730   */\n      mstore\n        /* \"#utility.yul\":6762:6764   */\n      0x60\n        /* \"#utility.yul\":6747:6765   */\n      add\n      swap1\n        /* \"#utility.yul\":6415:6771   */\n      jump\t// out\n        /* \"#utility.yul\":6776:6903   */\n    tag_207:\n        /* \"#utility.yul\":6837:6847   */\n      0x4e487b71\n        /* \"#utility.yul\":6832:6835   */\n      0xe0\n        /* \"#utility.yul\":6828:6848   */\n      shl\n        /* \"#utility.yul\":6825:6826   */\n      0x00\n        /* \"#utility.yul\":6818:6849   */\n      mstore\n        /* \"#utility.yul\":6868:6872   */\n      0x32\n        /* \"#utility.yul\":6865:6866   */\n      0x04\n        /* \"#utility.yul\":6858:6873   */\n      mstore\n        /* \"#utility.yul\":6892:6896   */\n      0x24\n        /* \"#utility.yul\":6889:6890   */\n      0x00\n        /* \"#utility.yul\":6882:6897   */\n      revert\n        /* \"#utility.yul\":6908:7035   */\n    tag_414:\n        /* \"#utility.yul\":6969:6979   */\n      0x4e487b71\n        /* \"#utility.yul\":6964:6967   */\n      0xe0\n        /* \"#utility.yul\":6960:6980   */\n      shl\n        /* \"#utility.yul\":6957:6958   */\n      0x00\n        /* \"#utility.yul\":6950:6981   */\n      mstore\n        /* \"#utility.yul\":7000:7004   */\n      0x11\n        /* \"#utility.yul\":6997:6998   */\n      0x04\n        /* \"#utility.yul\":6990:7005   */\n      mstore\n        /* \"#utility.yul\":7024:7028   */\n      0x24\n        /* \"#utility.yul\":7021:7022   */\n      0x00\n        /* \"#utility.yul\":7014:7029   */\n      revert\n        /* \"#utility.yul\":7040:7175   */\n    tag_209:\n        /* \"#utility.yul\":7079:7082   */\n      0x00\n        /* \"#utility.yul\":7100:7117   */\n      0x01\n      dup3\n      add\n        /* \"#utility.yul\":7097:7140   */\n      tag_490\n      jumpi\n        /* \"#utility.yul\":7120:7138   */\n      tag_490\n      tag_414\n      jump\t// in\n    tag_490:\n      pop\n        /* \"#utility.yul\":7167:7168   */\n      0x01\n        /* \"#utility.yul\":7156:7169   */\n      add\n      swap1\n        /* \"#utility.yul\":7040:7175   */\n      jump\t// out\n        /* \"#utility.yul\":7306:7851   */\n    tag_416:\n        /* \"#utility.yul\":7408:7410   */\n      0x1f\n        /* \"#utility.yul\":7403:7406   */\n      dup3\n        /* \"#utility.yul\":7400:7411   */\n      gt\n        /* \"#utility.yul\":7397:7845   */\n      iszero\n      tag_190\n      jumpi\n        /* \"#utility.yul\":7444:7445   */\n      0x00\n        /* \"#utility.yul\":7469:7474   */\n      dup2\n        /* \"#utility.yul\":7465:7467   */\n      dup2\n        /* \"#utility.yul\":7458:7475   */\n      mstore\n        /* \"#utility.yul\":7514:7518   */\n      0x20\n        /* \"#utility.yul\":7510:7512   */\n      dup2\n        /* \"#utility.yul\":7500:7519   */\n      keccak256\n        /* \"#utility.yul\":7584:7586   */\n      0x1f\n        /* \"#utility.yul\":7572:7582   */\n      dup6\n        /* \"#utility.yul\":7568:7587   */\n      add\n        /* \"#utility.yul\":7565:7566   */\n      0x05\n        /* \"#utility.yul\":7561:7588   */\n      shr\n        /* \"#utility.yul\":7555:7559   */\n      dup2\n        /* \"#utility.yul\":7551:7589   */\n      add\n        /* \"#utility.yul\":7620:7624   */\n      0x20\n        /* \"#utility.yul\":7608:7618   */\n      dup7\n        /* \"#utility.yul\":7605:7625   */\n      lt\n        /* \"#utility.yul\":7602:7649   */\n      iszero\n      tag_494\n      jumpi\n      pop\n        /* \"#utility.yul\":7643:7647   */\n      dup1\n        /* \"#utility.yul\":7602:7649   */\n    tag_494:\n        /* \"#utility.yul\":7698:7700   */\n      0x1f\n        /* \"#utility.yul\":7693:7696   */\n      dup6\n        /* \"#utility.yul\":7689:7701   */\n      add\n        /* \"#utility.yul\":7686:7687   */\n      0x05\n        /* \"#utility.yul\":7682:7702   */\n      shr\n        /* \"#utility.yul\":7676:7680   */\n      dup3\n        /* \"#utility.yul\":7672:7703   */\n      add\n        /* \"#utility.yul\":7662:7703   */\n      swap2\n      pop\n        /* \"#utility.yul\":7753:7835   */\n    tag_495:\n        /* \"#utility.yul\":7771:7773   */\n      dup2\n        /* \"#utility.yul\":7764:7769   */\n      dup2\n        /* \"#utility.yul\":7761:7774   */\n      lt\n        /* \"#utility.yul\":7753:7835   */\n      iszero\n      tag_178\n      jumpi\n        /* \"#utility.yul\":7816:7833   */\n      dup3\n      dup2\n      sstore\n        /* \"#utility.yul\":7797:7798   */\n      0x01\n        /* \"#utility.yul\":7786:7799   */\n      add\n        /* \"#utility.yul\":7753:7835   */\n      jump(tag_495)\n        /* \"#utility.yul\":8027:9379   */\n    tag_218:\n        /* \"#utility.yul\":8153:8156   */\n      dup2\n        /* \"#utility.yul\":8147:8157   */\n      mload\n        /* \"#utility.yul\":8180:8198   */\n      0xffffffffffffffff\n        /* \"#utility.yul\":8172:8178   */\n      dup2\n        /* \"#utility.yul\":8169:8199   */\n      gt\n        /* \"#utility.yul\":8166:8222   */\n      iszero\n      tag_501\n      jumpi\n        /* \"#utility.yul\":8202:8220   */\n      tag_501\n      tag_198\n      jump\t// in\n    tag_501:\n        /* \"#utility.yul\":8231:8328   */\n      tag_502\n        /* \"#utility.yul\":8321:8327   */\n      dup2\n        /* \"#utility.yul\":8281:8319   */\n      tag_503\n        /* \"#utility.yul\":8313:8317   */\n      dup5\n        /* \"#utility.yul\":8307:8318   */\n      sload\n        /* \"#utility.yul\":8281:8319   */\n      tag_134\n      jump\t// in\n    tag_503:\n        /* \"#utility.yul\":8275:8279   */\n      dup5\n        /* \"#utility.yul\":8231:8328   */\n      tag_416\n      jump\t// in\n    tag_502:\n        /* \"#utility.yul\":8383:8387   */\n      0x20\n      dup1\n        /* \"#utility.yul\":8447:8449   */\n      0x1f\n        /* \"#utility.yul\":8436:8450   */\n      dup4\n      gt\n        /* \"#utility.yul\":8464:8465   */\n      0x01\n        /* \"#utility.yul\":8459:9122   */\n      dup2\n      eq\n      tag_505\n      jumpi\n        /* \"#utility.yul\":9166:9167   */\n      0x00\n        /* \"#utility.yul\":9183:9189   */\n      dup5\n        /* \"#utility.yul\":9180:9269   */\n      iszero\n      tag_506\n      jumpi\n      pop\n        /* \"#utility.yul\":9235:9254   */\n      dup6\n      dup4\n      add\n        /* \"#utility.yul\":9229:9255   */\n      mload\n        /* \"#utility.yul\":9180:9269   */\n    tag_506:\n      not(0x00)\n        /* \"#utility.yul\":7984:7985   */\n      0x03\n        /* \"#utility.yul\":7980:7991   */\n      dup7\n      swap1\n      shl\n        /* \"#utility.yul\":7976:8000   */\n      shr\n        /* \"#utility.yul\":7972:8001   */\n      not\n        /* \"#utility.yul\":7962:8002   */\n      and\n        /* \"#utility.yul\":8008:8009   */\n      0x01\n        /* \"#utility.yul\":8004:8015   */\n      dup6\n      swap1\n      shl\n        /* \"#utility.yul\":7959:8016   */\n      or\n        /* \"#utility.yul\":9282:9363   */\n      dup6\n      sstore\n        /* \"#utility.yul\":8429:9373   */\n      jump(tag_178)\n        /* \"#utility.yul\":8459:9122   */\n    tag_505:\n        /* \"#utility.yul\":7253:7254   */\n      0x00\n        /* \"#utility.yul\":7246:7260   */\n      dup6\n      dup2\n      mstore\n        /* \"#utility.yul\":7290:7294   */\n      0x20\n        /* \"#utility.yul\":7277:7295   */\n      dup2\n      keccak256\n      not(0x1f)\n        /* \"#utility.yul\":8495:8515   */\n      dup7\n      and\n      swap2\n        /* \"#utility.yul\":8613:8849   */\n    tag_509:\n        /* \"#utility.yul\":8627:8634   */\n      dup3\n        /* \"#utility.yul\":8624:8625   */\n      dup2\n        /* \"#utility.yul\":8621:8635   */\n      lt\n        /* \"#utility.yul\":8613:8849   */\n      iszero\n      tag_511\n      jumpi\n        /* \"#utility.yul\":8716:8735   */\n      dup9\n      dup7\n      add\n        /* \"#utility.yul\":8710:8736   */\n      mload\n        /* \"#utility.yul\":8695:8737   */\n      dup3\n      sstore\n        /* \"#utility.yul\":8808:8835   */\n      swap5\n      dup5\n      add\n      swap5\n        /* \"#utility.yul\":8776:8777   */\n      0x01\n        /* \"#utility.yul\":8764:8778   */\n      swap1\n      swap2\n      add\n      swap1\n        /* \"#utility.yul\":8643:8662   */\n      dup5\n      add\n        /* \"#utility.yul\":8613:8849   */\n      jump(tag_509)\n    tag_511:\n        /* \"#utility.yul\":8617:8620   */\n      pop\n        /* \"#utility.yul\":8877:8883   */\n      dup6\n        /* \"#utility.yul\":8868:8875   */\n      dup3\n        /* \"#utility.yul\":8865:8884   */\n      lt\n        /* \"#utility.yul\":8862:9063   */\n      iszero\n      tag_512\n      jumpi\n        /* \"#utility.yul\":8938:8957   */\n      dup8\n      dup6\n      add\n        /* \"#utility.yul\":8932:8958   */\n      mload\n      not(0x00)\n        /* \"#utility.yul\":9021:9022   */\n      0x03\n        /* \"#utility.yul\":9017:9031   */\n      dup9\n      swap1\n      shl\n        /* \"#utility.yul\":9033:9036   */\n      0xf8\n        /* \"#utility.yul\":9013:9037   */\n      and\n        /* \"#utility.yul\":9009:9046   */\n      shr\n        /* \"#utility.yul\":9005:9047   */\n      not\n        /* \"#utility.yul\":8990:9048   */\n      and\n        /* \"#utility.yul\":8975:9049   */\n      dup2\n      sstore\n        /* \"#utility.yul\":8862:9063   */\n    tag_512:\n      pop\n      pop\n      pop\n      pop\n      pop\n        /* \"#utility.yul\":9109:9110   */\n      0x01\n        /* \"#utility.yul\":9093:9107   */\n      swap1\n      dup2\n      shl\n        /* \"#utility.yul\":9089:9111   */\n      add\n        /* \"#utility.yul\":9076:9112   */\n      swap1\n      sstore\n      pop\n        /* \"#utility.yul\":8027:9379   */\n      jump\t// out\n        /* \"#utility.yul\":9733:9861   */\n    tag_246:\n        /* \"#utility.yul\":9773:9776   */\n      0x00\n        /* \"#utility.yul\":9804:9805   */\n      dup3\n        /* \"#utility.yul\":9800:9806   */\n      not\n        /* \"#utility.yul\":9797:9798   */\n      dup3\n        /* \"#utility.yul\":9794:9807   */\n      gt\n        /* \"#utility.yul\":9791:9830   */\n      iszero\n      tag_516\n      jumpi\n        /* \"#utility.yul\":9810:9828   */\n      tag_516\n      tag_414\n      jump\t// in\n    tag_516:\n      pop\n        /* \"#utility.yul\":9846:9855   */\n      add\n      swap1\n        /* \"#utility.yul\":9733:9861   */\n      jump\t// out\n        /* \"#utility.yul\":10626:11856   */\n    tag_282:\n        /* \"#utility.yul\":10850:10853   */\n      0x00\n        /* \"#utility.yul\":10888:10894   */\n      dup5\n        /* \"#utility.yul\":10882:10895   */\n      mload\n        /* \"#utility.yul\":10914:10918   */\n      0x20\n        /* \"#utility.yul\":10927:10978   */\n      tag_520\n        /* \"#utility.yul\":10971:10977   */\n      dup3\n        /* \"#utility.yul\":10966:10969   */\n      dup6\n        /* \"#utility.yul\":10961:10963   */\n      dup4\n        /* \"#utility.yul\":10953:10959   */\n      dup11\n        /* \"#utility.yul\":10949:10964   */\n      add\n        /* \"#utility.yul\":10927:10978   */\n      tag_410\n      jump\t// in\n    tag_520:\n        /* \"#utility.yul\":11041:11054   */\n      dup6\n      mload\n        /* \"#utility.yul\":11000:11016   */\n      swap2\n      dup5\n      add\n      swap2\n        /* \"#utility.yul\":11063:11118   */\n      tag_521\n        /* \"#utility.yul\":11041:11054   */\n      dup2\n        /* \"#utility.yul\":11000:11016   */\n      dup5\n        /* \"#utility.yul\":11085:11100   */\n      dup5\n      dup11\n      add\n        /* \"#utility.yul\":11063:11118   */\n      tag_410\n      jump\t// in\n    tag_521:\n        /* \"#utility.yul\":11207:11220   */\n      dup6\n      sload\n        /* \"#utility.yul\":11140:11160   */\n      swap3\n      add\n      swap2\n        /* \"#utility.yul\":11180:11181   */\n      0x00\n      swap1\n        /* \"#utility.yul\":11245:11281   */\n      tag_522\n        /* \"#utility.yul\":11207:11220   */\n      dup2\n        /* \"#utility.yul\":11245:11281   */\n      tag_134\n      jump\t// in\n    tag_522:\n        /* \"#utility.yul\":11300:11301   */\n      0x01\n        /* \"#utility.yul\":11317:11335   */\n      dup3\n      dup2\n      and\n        /* \"#utility.yul\":11344:11485   */\n      dup1\n      iszero\n      tag_524\n      jumpi\n        /* \"#utility.yul\":11499:11500   */\n      0x01\n        /* \"#utility.yul\":11494:11831   */\n      dup2\n      eq\n      tag_525\n      jumpi\n        /* \"#utility.yul\":11310:11831   */\n      jump(tag_523)\n        /* \"#utility.yul\":11344:11485   */\n    tag_524:\n      not(0xff)\n        /* \"#utility.yul\":11379:11403   */\n      dup5\n      and\n        /* \"#utility.yul\":11365:11404   */\n      dup8\n      mstore\n        /* \"#utility.yul\":11456:11472   */\n      dup3\n      iszero\n        /* \"#utility.yul\":11449:11473   */\n      iszero\n        /* \"#utility.yul\":11435:11474   */\n      dup4\n      mul\n        /* \"#utility.yul\":11424:11475   */\n      dup8\n      add\n      swap5\n      pop\n        /* \"#utility.yul\":11344:11485   */\n      jump(tag_523)\n        /* \"#utility.yul\":11494:11831   */\n    tag_525:\n        /* \"#utility.yul\":11525:11531   */\n      dup10\n        /* \"#utility.yul\":11522:11523   */\n      0x00\n        /* \"#utility.yul\":11515:11532   */\n      mstore\n        /* \"#utility.yul\":11573:11575   */\n      dup6\n        /* \"#utility.yul\":11570:11571   */\n      0x00\n        /* \"#utility.yul\":11560:11576   */\n      keccak256\n        /* \"#utility.yul\":11598:11599   */\n      0x00\n        /* \"#utility.yul\":11612:11781   */\n    tag_526:\n        /* \"#utility.yul\":11626:11634   */\n      dup5\n        /* \"#utility.yul\":11623:11624   */\n      dup2\n        /* \"#utility.yul\":11620:11635   */\n      lt\n        /* \"#utility.yul\":11612:11781   */\n      iszero\n      tag_528\n      jumpi\n        /* \"#utility.yul\":11708:11722   */\n      dup2\n      sload\n        /* \"#utility.yul\":11693:11706   */\n      dup10\n      dup3\n      add\n        /* \"#utility.yul\":11686:11723   */\n      mstore\n        /* \"#utility.yul\":11751:11767   */\n      swap1\n      dup4\n      add\n      swap1\n        /* \"#utility.yul\":11643:11653   */\n      dup8\n      add\n        /* \"#utility.yul\":11612:11781   */\n      jump(tag_526)\n    tag_528:\n        /* \"#utility.yul\":11616:11619   */\n      pop\n      pop\n        /* \"#utility.yul\":11812:11820   */\n      dup3\n        /* \"#utility.yul\":11805:11810   */\n      dup8\n        /* \"#utility.yul\":11801:11821   */\n      add\n        /* \"#utility.yul\":11794:11821   */\n      swap5\n      pop\n        /* \"#utility.yul\":11310:11831   */\n    tag_523:\n      pop\n        /* \"#utility.yul\":11847:11850   */\n      swap3\n      swap11\n        /* \"#utility.yul\":10626:11856   */\n      swap10\n      pop\n      pop\n      pop\n      pop\n      pop\n      pop\n      pop\n      pop\n      pop\n      pop\n      jump\t// out\n        /* \"#utility.yul\":12268:12757   */\n    tag_346:\n      sub(shl(0xa0, 0x01), 0x01)\n        /* \"#utility.yul\":12537:12552   */\n      dup6\n      dup2\n      and\n        /* \"#utility.yul\":12519:12553   */\n      dup3\n      mstore\n        /* \"#utility.yul\":12589:12604   */\n      dup5\n      and\n        /* \"#utility.yul\":12584:12586   */\n      0x20\n        /* \"#utility.yul\":12569:12587   */\n      dup3\n      add\n        /* \"#utility.yul\":12562:12605   */\n      mstore\n        /* \"#utility.yul\":12636:12638   */\n      0x40\n        /* \"#utility.yul\":12621:12639   */\n      dup2\n      add\n        /* \"#utility.yul\":12614:12648   */\n      dup4\n      swap1\n      mstore\n        /* \"#utility.yul\":12684:12687   */\n      0x80\n        /* \"#utility.yul\":12679:12681   */\n      0x60\n        /* \"#utility.yul\":12664:12682   */\n      dup3\n      add\n        /* \"#utility.yul\":12657:12688   */\n      dup2\n      swap1\n      mstore\n        /* \"#utility.yul\":12462:12466   */\n      0x00\n      swap1\n        /* \"#utility.yul\":12705:12751   */\n      tag_531\n      swap1\n        /* \"#utility.yul\":12731:12750   */\n      dup4\n      add\n        /* \"#utility.yul\":12723:12729   */\n      dup5\n        /* \"#utility.yul\":12705:12751   */\n      tag_411\n      jump\t// in\n    tag_531:\n        /* \"#utility.yul\":12697:12751   */\n      swap7\n        /* \"#utility.yul\":12268:12757   */\n      swap6\n      pop\n      pop\n      pop\n      pop\n      pop\n      pop\n      jump\t// out\n        /* \"#utility.yul\":12762:13011   */\n    tag_349:\n        /* \"#utility.yul\":12831:12837   */\n      0x00\n        /* \"#utility.yul\":12884:12886   */\n      0x20\n        /* \"#utility.yul\":12872:12881   */\n      dup3\n        /* \"#utility.yul\":12863:12870   */\n      dup5\n        /* \"#utility.yul\":12859:12882   */\n      sub\n        /* \"#utility.yul\":12855:12887   */\n      slt\n        /* \"#utility.yul\":12852:12904   */\n      iszero\n      tag_533\n      jumpi\n        /* \"#utility.yul\":12900:12901   */\n      0x00\n        /* \"#utility.yul\":12897:12898   */\n      dup1\n        /* \"#utility.yul\":12890:12902   */\n      revert\n        /* \"#utility.yul\":12852:12904   */\n    tag_533:\n        /* \"#utility.yul\":12932:12941   */\n      dup2\n        /* \"#utility.yul\":12926:12942   */\n      mload\n        /* \"#utility.yul\":12951:12981   */\n      tag_278\n        /* \"#utility.yul\":12975:12980   */\n      dup2\n        /* \"#utility.yul\":12951:12981   */\n      tag_409\n      jump\t// in\n        /* \"#utility.yul\":13016:13143   */\n    tag_418:\n        /* \"#utility.yul\":13077:13087   */\n      0x4e487b71\n        /* \"#utility.yul\":13072:13075   */\n      0xe0\n        /* \"#utility.yul\":13068:13088   */\n      shl\n        /* \"#utility.yul\":13065:13066   */\n      0x00\n        /* \"#utility.yul\":13058:13089   */\n      mstore\n        /* \"#utility.yul\":13108:13112   */\n      0x12\n        /* \"#utility.yul\":13105:13106   */\n      0x04\n        /* \"#utility.yul\":13098:13113   */\n      mstore\n        /* \"#utility.yul\":13132:13136   */\n      0x24\n        /* \"#utility.yul\":13129:13130   */\n      0x00\n        /* \"#utility.yul\":13122:13137   */\n      revert\n        /* \"#utility.yul\":13148:13268   */\n    tag_371:\n        /* \"#utility.yul\":13188:13189   */\n      0x00\n        /* \"#utility.yul\":13214:13215   */\n      dup3\n        /* \"#utility.yul\":13204:13239   */\n      tag_538\n      jumpi\n        /* \"#utility.yul\":13219:13237   */\n      tag_538\n      tag_418\n      jump\t// in\n    tag_538:\n      pop\n        /* \"#utility.yul\":13253:13262   */\n      div\n      swap1\n        /* \"#utility.yul\":13148:13268   */\n      jump\t// out\n        /* \"#utility.yul\":13273:13398   */\n    tag_378:\n        /* \"#utility.yul\":13313:13317   */\n      0x00\n        /* \"#utility.yul\":13341:13342   */\n      dup3\n        /* \"#utility.yul\":13338:13339   */\n      dup3\n        /* \"#utility.yul\":13335:13343   */\n      lt\n        /* \"#utility.yul\":13332:13366   */\n      iszero\n      tag_541\n      jumpi\n        /* \"#utility.yul\":13346:13364   */\n      tag_541\n      tag_414\n      jump\t// in\n    tag_541:\n      pop\n        /* \"#utility.yul\":13383:13392   */\n      sub\n      swap1\n        /* \"#utility.yul\":13273:13398   */\n      jump\t// out\n        /* \"#utility.yul\":13403:13515   */\n    tag_380:\n        /* \"#utility.yul\":13435:13436   */\n      0x00\n        /* \"#utility.yul\":13461:13462   */\n      dup3\n        /* \"#utility.yul\":13451:13486   */\n      tag_544\n      jumpi\n        /* \"#utility.yul\":13466:13484   */\n      tag_544\n      tag_418\n      jump\t// in\n    tag_544:\n      pop\n        /* \"#utility.yul\":13500:13509   */\n      mod\n      swap1\n        /* \"#utility.yul\":13403:13515   */\n      jump\t// out\n\n    auxdata: 0xa2646970667358221220c83720ce7dfe232ab50b9b2cd7e1e6c38faf6d788afaadbf1bd50c3af731b67364736f6c634300080f0033\n}\n",
				"bytecode": {
					"linkReferences": {},
					"object": "60c06040526005608090815264173539b7b760d91b60a052600b906200002690826200066d565b503480156200003457600080fd5b50604051620022e2380380620022e2833981016040819052620000579162000785565b604051806040016040528060098152602001684e414741204b49445360b81b815250604051806040016040528060048152602001634e41474b60e01b8152508160029081620000a791906200066d565b506003620000b682826200066d565b5050600160005550620000c933620000f6565b620000d48262000148565b620000e1336001620001a9565b620000ee81606f62000255565b505062000902565b600880546001600160a01b038381166001600160a01b0319831681179093556040519116919082907f8be0079c531659141344cd1fd0a4f28419497f9722a3daafe3b4186f6b6457e090600090a35050565b6008546001600160a01b03163314620001975760405162461bcd60e51b81526020600482018190526024820152600080516020620022c283398151915260448201526064015b60405180910390fd5b600a620001a582826200066d565b5050565b6008546001600160a01b03163314620001f45760405162461bcd60e51b81526020600482018190526024820152600080516020620022c283398151915260448201526064016200018e565b6001600160a01b038216600081815260096020908152604091829020805460ff1916851515908117909155915191825233917f3c49a0d2dcd603245c20eb1985825d770748295cd570de6d24861080451bbd41910160405180910390a35050565b3360008181526009602052604090205460ff16620002b65760405162461bcd60e51b815260206004820152601460248201527f596f7520617265206e6f742061206d696e74657200000000000000000000000060448201526064016200018e565b6000620002cc6001546000546000199190030190565b9050610457620002dd848362000852565b11156200031f5760405162461bcd60e51b815260206004820152600f60248201526e4f766572206d617820737570706c7960881b60448201526064016200018e565b6200032b848462000331565b50505050565b620001a58282604051806020016040528060008152506200035360201b60201c565b6200035f8383620003ca565b6001600160a01b0383163b15620003c5576000548281035b60018101906200038d90600090879086620004bc565b620003ab576040516368d2bf6b60e11b815260040160405180910390fd5b81811062000377578160005414620003c257600080fd5b50505b505050565b6000546001600160a01b038316620003f457604051622e076360e81b815260040160405180910390fd5b81600003620004165760405163b562e8dd60e01b815260040160405180910390fd5b620004256000848385620005b0565b6001600160a01b038316600081815260056020526040902080546801000000000000000185020190554260a01b6001841460e11b1717600082815260046020526040902055808281015b6040516001830192906001600160a01b038716906000907fddf252ad1be2c89b69c2b068fc378daa952ba7f163c4a11628f55a4df523b3ef908290a48082106200046f5760005550505050565b604051630a85bd0160e11b81526000906001600160a01b0385169063150b7a0290620004f390339089908890889060040162000879565b6020604051808303816000875af192505050801562000531575060408051601f3d908101601f191682019092526200052e91810190620008cf565b60015b62000593573d80801562000562576040519150601f19603f3d011682016040523d82523d6000602084013e62000567565b606091505b5080516000036200058b576040516368d2bf6b60e11b815260040160405180910390fd5b805181602001fd5b6001600160e01b031916630a85bd0160e11b149050949350505050565b6200032b848484846200032b60201b62000a241760201c565b634e487b7160e01b600052604160045260246000fd5b600181811c90821680620005f457607f821691505b6020821081036200061557634e487b7160e01b600052602260045260246000fd5b50919050565b601f821115620003c557600081815260208120601f850160051c81016020861015620006445750805b601f850160051c820191505b81811015620006655782815560010162000650565b505050505050565b81516001600160401b03811115620006895762000689620005c9565b620006a1816200069a8454620005df565b846200061b565b602080601f831160018114620006d95760008415620006c05750858301515b600019600386901b1c1916600185901b17855562000665565b600085815260208120601f198616915b828110156200070a57888601518255948401946001909101908401620006e9565b5085821015620007295787850151600019600388901b60f8161c191681555b5050505050600190811b01905550565b60005b83811015620007565781810151838201526020016200073c565b838111156200032b5750506000910152565b80516001600160a01b03811681146200078057600080fd5b919050565b600080604083850312156200079957600080fd5b82516001600160401b0380821115620007b157600080fd5b818501915085601f830112620007c657600080fd5b815181811115620007db57620007db620005c9565b604051601f8201601f19908116603f01168101908382118183101715620008065762000806620005c9565b816040528281528860208487010111156200082057600080fd5b6200083383602083016020880162000739565b8096505050505050620008496020840162000768565b90509250929050565b600082198211156200087457634e487b7160e01b600052601160045260246000fd5b500190565b600060018060a01b038087168352808616602084015250836040830152608060608301528251806080840152620008b88160a085016020870162000739565b601f01601f19169190910160a00195945050505050565b600060208284031215620008e257600080fd5b81516001600160e01b031981168114620008fb57600080fd5b9392505050565b6119b080620009126000396000f3fe608060405234801561001057600080fd5b50600436106101735760003560e01c806370a08231116100de578063aa271e1a11610097578063c87b56dd11610071578063c87b56dd14610342578063d5abeb0114610355578063e985e9c51461035e578063f2fde38b1461039a57600080fd5b8063aa271e1a146102fb578063b88d4fde14610327578063c66828621461033a57600080fd5b806370a08231146102a1578063715018a6146102b45780638da5cb5b146102bc57806395d89b41146102cd578063a1448194146102d5578063a22cb465146102e857600080fd5b80633c713026116101305780633c7130261461022257806342842e0e1461023557806342966c6814610248578063438b63001461025b57806355f804b31461027b5780636352211e1461028e57600080fd5b806301ffc9a71461017857806306fdde03146101a0578063081812fc146101b5578063095ea7b3146101e057806318160ddd146101f557806323b872dd1461020f575b600080fd5b61018b610186366004611317565b6103ad565b60405190151581526020015b60405180910390f35b6101a86103be565b604051610197919061138c565b6101c86101c336600461139f565b610450565b6040516001600160a01b039091168152602001610197565b6101f36101ee3660046113d4565b610494565b005b60015460005403600019015b604051908152602001610197565b6101f361021d3660046113fe565b610534565b6101f361023036600461143a565b6106e4565b6101f36102433660046113fe565b610779565b6101f361025636600461139f565b610799565b61026e610269366004611476565b6107a7565b6040516101979190611491565b6101f3610289366004611561565b610887565b6101c861029c36600461139f565b6108c1565b6102016102af366004611476565b6108cc565b6101f361091b565b6008546001600160a01b03166101c8565b6101a8610951565b6101f36102e33660046113d4565b610960565b6101f36102f636600461143a565b610a2a565b61018b610309366004611476565b6001600160a01b031660009081526009602052604090205460ff1690565b6101f36103353660046115aa565b610ab8565b6101a8610afc565b6101a861035036600461139f565b610b8a565b61020161045781565b61018b61036c366004611626565b6001600160a01b03918216600090815260076020908152604080832093909416825291909152205460ff1690565b6101f36103a8366004611476565b610c58565b60006103b882610cf0565b92915050565b6060600280546103cd90611659565b80601f01602080910402602001604051908101604052809291908181526020018280546103f990611659565b80156104465780601f1061041b57610100808354040283529160200191610446565b820191906000526020600020905b81548152906001019060200180831161042957829003601f168201915b5050505050905090565b600061045b82610d3e565b610478576040516333d1c03960e21b815260040160405180910390fd5b506000908152600660205260409020546001600160a01b031690565b600061049f826108c1565b9050336001600160a01b038216146104d8576104bb813361036c565b6104d8576040516367d9dca160e11b815260040160405180910390fd5b60008281526006602052604080822080546001600160a01b0319166001600160a01b0387811691821790925591518593918516917f8c5be1e5ebec7d5bd14f71427d1e84f3dd0314c0f7b2291e5b200ac8c7c3b92591a4505050565b600061053f82610d73565b9050836001600160a01b0316816001600160a01b0316146105725760405162a1148160e81b815260040160405180910390fd5b6000828152600660205260409020805461059e8187335b6001600160a01b039081169116811491141790565b6105c9576105ac863361036c565b6105c957604051632ce44b5f60e11b815260040160405180910390fd5b6001600160a01b0385166105f057604051633a954ecd60e21b815260040160405180910390fd5b6105fd8686866001610de2565b801561060857600082555b6001600160a01b038681166000908152600560205260408082208054600019019055918716808252919020805460010190554260a01b17600160e11b17600085815260046020526040812091909155600160e11b8416900361069a576001840160008181526004602052604081205490036106985760005481146106985760008181526004602052604090208490555b505b83856001600160a01b0316876001600160a01b03167fddf252ad1be2c89b69c2b068fc378daa952ba7f163c4a11628f55a4df523b3ef60405160405180910390a45b505050505050565b6008546001600160a01b031633146107175760405162461bcd60e51b815260040161070e90611693565b60405180910390fd5b6001600160a01b038216600081815260096020908152604091829020805460ff1916851515908117909155915191825233917f3c49a0d2dcd603245c20eb1985825d770748295cd570de6d24861080451bbd4191015b60405180910390a35050565b61079483838360405180602001604052806000815250610ab8565b505050565b6107a4816001610de7565b50565b606060006107b4836108cc565b905060008167ffffffffffffffff8111156107d1576107d16114d5565b6040519080825280602002602001820160405280156107fa578160200160208202803683370190505b509050600160005b838110801561081357506104578211155b1561087d576000610823836108c1565b9050866001600160a01b0316816001600160a01b03160361086a5782848381518110610851576108516116c8565b602090810291909101015281610866816116f4565b9250505b82610874816116f4565b93505050610802565b5090949350505050565b6008546001600160a01b031633146108b15760405162461bcd60e51b815260040161070e90611693565b600a6108bd8282611753565b5050565b60006103b882610d73565b60006001600160a01b0382166108f5576040516323d3ad8160e21b815260040160405180910390fd5b506001600160a01b031660009081526005602052604090205467ffffffffffffffff1690565b6008546001600160a01b031633146109455760405162461bcd60e51b815260040161070e90611693565b61094f6000610f3f565b565b6060600380546103cd90611659565b3360008181526009602052604090205460ff166109b65760405162461bcd60e51b81526020600482015260146024820152732cb7ba9030b932903737ba10309036b4b73a32b960611b604482015260640161070e565b60006109cb6001546000546000199190030190565b90506104576109da8483611813565b1115610a1a5760405162461bcd60e51b815260206004820152600f60248201526e4f766572206d617820737570706c7960881b604482015260640161070e565b610a248484610f91565b50505050565b336001600160a01b03831603610a535760405163b06307db60e01b815260040160405180910390fd5b3360008181526007602090815260408083206001600160a01b03871680855290835292819020805460ff191686151590811790915590519081529192917f17307eab39ab6107e8899845ad3d59bd9653f200f220920489ca2b5937696c31910161076d565b610ac3848484610534565b6001600160a01b0383163b15610a2457610adf84848484610fab565b610a24576040516368d2bf6b60e11b815260040160405180910390fd5b600b8054610b0990611659565b80601f0160208091040260200160405190810160405280929190818152602001828054610b3590611659565b8015610b825780601f10610b5757610100808354040283529160200191610b82565b820191906000526020600020905b815481529060010190602001808311610b6557829003601f168201915b505050505081565b6060610b9582610d3e565b610bf95760405162461bcd60e51b815260206004820152602f60248201527f4552433732314d657461646174613a2055524920717565727920666f72206e6f60448201526e3732bc34b9ba32b73a103a37b5b2b760891b606482015260840161070e565b6000610c03611097565b90506000815111610c235760405180602001604052806000815250610c51565b80610c2d846110a6565b600b604051602001610c419392919061182b565b6040516020818303038152906040525b9392505050565b6008546001600160a01b03163314610c825760405162461bcd60e51b815260040161070e90611693565b6001600160a01b038116610ce75760405162461bcd60e51b815260206004820152602660248201527f4f776e61626c653a206e6577206f776e657220697320746865207a65726f206160448201526564647265737360d01b606482015260840161070e565b6107a481610f3f565b60006301ffc9a760e01b6001600160e01b031983161480610d2157506380ac58cd60e01b6001600160e01b03198316145b806103b85750506001600160e01b031916635b5e139f60e01b1490565b600081600111158015610d52575060005482105b80156103b8575050600090815260046020526040902054600160e01b161590565b60008180600111610dc957600054811015610dc95760008181526004602052604081205490600160e01b82169003610dc7575b80600003610c51575060001901600081815260046020526040902054610da6565b505b604051636f96cda160e11b815260040160405180910390fd5b610a24565b6000610df283610d73565b905080600080610e1086600090815260066020526040902080549091565b915091508415610e5057610e25818433610589565b610e5057610e33833361036c565b610e5057604051632ce44b5f60e11b815260040160405180910390fd5b610e5e836000886001610de2565b8015610e6957600082555b6001600160a01b038316600081815260056020526040902080546fffffffffffffffffffffffffffffffff0190554260a01b17600360e01b17600087815260046020526040812091909155600160e11b85169003610ef757600186016000818152600460205260408120549003610ef5576000548114610ef55760008181526004602052604090208590555b505b60405186906000906001600160a01b038616907fddf252ad1be2c89b69c2b068fc378daa952ba7f163c4a11628f55a4df523b3ef908390a45050600180548101905550505050565b600880546001600160a01b038381166001600160a01b0319831681179093556040519116919082907f8be0079c531659141344cd1fd0a4f28419497f9722a3daafe3b4186f6b6457e090600090a35050565b6108bd8282604051806020016040528060008152506111a7565b604051630a85bd0160e11b81526000906001600160a01b0385169063150b7a0290610fe09033908990889088906004016118cb565b6020604051808303816000875af192505050801561101b575060408051601f3d908101601f1916820190925261101891810190611908565b60015b611079573d808015611049576040519150601f19603f3d011682016040523d82523d6000602084013e61104e565b606091505b508051600003611071576040516368d2bf6b60e11b815260040160405180910390fd5b805181602001fd5b6001600160e01b031916630a85bd0160e11b1490505b949350505050565b6060600a80546103cd90611659565b6060816000036110cd5750506040805180820190915260018152600360fc1b602082015290565b8160005b81156110f757806110e1816116f4565b91506110f09050600a8361193b565b91506110d1565b60008167ffffffffffffffff811115611112576111126114d5565b6040519080825280601f01601f19166020018201604052801561113c576020820181803683370190505b5090505b841561108f5761115160018361194f565b915061115e600a86611966565b611169906030611813565b60f81b81838151811061117e5761117e6116c8565b60200101906001600160f81b031916908160001a9053506111a0600a8661193b565b9450611140565b6111b18383611214565b6001600160a01b0383163b15610794576000548281035b6111db6000868380600101945086610fab565b6111f8576040516368d2bf6b60e11b815260040160405180910390fd5b8181106111c857816000541461120d57600080fd5b5050505050565b6000546001600160a01b03831661123d57604051622e076360e81b815260040160405180910390fd5b8160000361125e5760405163b562e8dd60e01b815260040160405180910390fd5b61126b6000848385610de2565b6001600160a01b038316600081815260056020526040902080546801000000000000000185020190554260a01b6001841460e11b1717600082815260046020526040902055808281015b6040516001830192906001600160a01b038716906000907fddf252ad1be2c89b69c2b068fc378daa952ba7f163c4a11628f55a4df523b3ef908290a48082106112b55760005550505050565b6001600160e01b0319811681146107a457600080fd5b60006020828403121561132957600080fd5b8135610c5181611301565b60005b8381101561134f578181015183820152602001611337565b83811115610a245750506000910152565b60008151808452611378816020860160208601611334565b601f01601f19169290920160200192915050565b602081526000610c516020830184611360565b6000602082840312156113b157600080fd5b5035919050565b80356001600160a01b03811681146113cf57600080fd5b919050565b600080604083850312156113e757600080fd5b6113f0836113b8565b946020939093013593505050565b60008060006060848603121561141357600080fd5b61141c846113b8565b925061142a602085016113b8565b9150604084013590509250925092565b6000806040838503121561144d57600080fd5b611456836113b8565b91506020830135801515811461146b57600080fd5b809150509250929050565b60006020828403121561148857600080fd5b610c51826113b8565b6020808252825182820181905260009190848201906040850190845b818110156114c9578351835292840192918401916001016114ad565b50909695505050505050565b634e487b7160e01b600052604160045260246000fd5b600067ffffffffffffffff80841115611506576115066114d5565b604051601f8501601f19908116603f0116810190828211818310171561152e5761152e6114d5565b8160405280935085815286868601111561154757600080fd5b858560208301376000602087830101525050509392505050565b60006020828403121561157357600080fd5b813567ffffffffffffffff81111561158a57600080fd5b8201601f8101841361159b57600080fd5b61108f848235602084016114eb565b600080600080608085870312156115c057600080fd5b6115c9856113b8565b93506115d7602086016113b8565b925060408501359150606085013567ffffffffffffffff8111156115fa57600080fd5b8501601f8101871361160b57600080fd5b61161a878235602084016114eb565b91505092959194509250565b6000806040838503121561163957600080fd5b611642836113b8565b9150611650602084016113b8565b90509250929050565b600181811c9082168061166d57607f821691505b60208210810361168d57634e487b7160e01b600052602260045260246000fd5b50919050565b6020808252818101527f4f776e61626c653a2063616c6c6572206973206e6f7420746865206f776e6572604082015260600190565b634e487b7160e01b600052603260045260246000fd5b634e487b7160e01b600052601160045260246000fd5b600060018201611706576117066116de565b5060010190565b601f82111561079457600081815260208120601f850160051c810160208610156117345750805b601f850160051c820191505b818110156106dc57828155600101611740565b815167ffffffffffffffff81111561176d5761176d6114d5565b6117818161177b8454611659565b8461170d565b602080601f8311600181146117b6576000841561179e5750858301515b600019600386901b1c1916600185901b1785556106dc565b600085815260208120601f198616915b828110156117e5578886015182559484019460019091019084016117c6565b50858210156118035787850151600019600388901b60f8161c191681555b5050505050600190811b01905550565b60008219821115611826576118266116de565b500190565b60008451602061183e8285838a01611334565b8551918401916118518184848a01611334565b855492019160009061186281611659565b6001828116801561187a576001811461188f576118bb565b60ff19841687528215158302870194506118bb565b896000528560002060005b848110156118b35781548982015290830190870161189a565b505082870194505b50929a9950505050505050505050565b6001600160a01b03858116825284166020820152604081018390526080606082018190526000906118fe90830184611360565b9695505050505050565b60006020828403121561191a57600080fd5b8151610c5181611301565b634e487b7160e01b600052601260045260246000fd5b60008261194a5761194a611925565b500490565b600082821015611961576119616116de565b500390565b60008261197557611975611925565b50069056fea2646970667358221220c83720ce7dfe232ab50b9b2cd7e1e6c38faf6d788afaadbf1bd50c3af731b67364736f6c634300080f00334f776e61626c653a2063616c6c6572206973206e6f7420746865206f776e6572",
					"opcodes": "PUSH1 0xC0 PUSH1 0x40 MSTORE PUSH1 0x5 PUSH1 0x80 SWAP1 DUP2 MSTORE PUSH5 0x173539B7B7 PUSH1 0xD9 SHL PUSH1 0xA0 MSTORE PUSH1 0xB SWAP1 PUSH3 0x26 SWAP1 DUP3 PUSH3 0x66D JUMP JUMPDEST POP CALLVALUE DUP1 ISZERO PUSH3 0x34 JUMPI PUSH1 0x0 DUP1 REVERT JUMPDEST POP PUSH1 0x40 MLOAD PUSH3 0x22E2 CODESIZE SUB DUP1 PUSH3 0x22E2 DUP4 CODECOPY DUP2 ADD PUSH1 0x40 DUP2 SWAP1 MSTORE PUSH3 0x57 SWAP2 PUSH3 0x785 JUMP JUMPDEST PUSH1 0x40 MLOAD DUP1 PUSH1 0x40 ADD PUSH1 0x40 MSTORE DUP1 PUSH1 0x9 DUP2 MSTORE PUSH1 0x20 ADD PUSH9 0x4E414741204B494453 PUSH1 0xB8 SHL DUP2 MSTORE POP PUSH1 0x40 MLOAD DUP1 PUSH1 0x40 ADD PUSH1 0x40 MSTORE DUP1 PUSH1 0x4 DUP2 MSTORE PUSH1 0x20 ADD PUSH4 0x4E41474B PUSH1 0xE0 SHL DUP2 MSTORE POP DUP2 PUSH1 0x2 SWAP1 DUP2 PUSH3 0xA7 SWAP2 SWAP1 PUSH3 0x66D JUMP JUMPDEST POP PUSH1 0x3 PUSH3 0xB6 DUP3 DUP3 PUSH3 0x66D JUMP JUMPDEST POP POP PUSH1 0x1 PUSH1 0x0 SSTORE POP PUSH3 0xC9 CALLER PUSH3 0xF6 JUMP JUMPDEST PUSH3 0xD4 DUP3 PUSH3 0x148 JUMP JUMPDEST PUSH3 0xE1 CALLER PUSH1 0x1 PUSH3 0x1A9 JUMP JUMPDEST PUSH3 0xEE DUP2 PUSH1 0x6F PUSH3 0x255 JUMP JUMPDEST POP POP PUSH3 0x902 JUMP JUMPDEST PUSH1 0x8 DUP1 SLOAD PUSH1 0x1 PUSH1 0x1 PUSH1 0xA0 SHL SUB DUP4 DUP2 AND PUSH1 0x1 PUSH1 0x1 PUSH1 0xA0 SHL SUB NOT DUP4 AND DUP2 OR SWAP1 SWAP4 SSTORE PUSH1 0x40 MLOAD SWAP2 AND SWAP2 SWAP1 DUP3 SWAP1 PUSH32 0x8BE0079C531659141344CD1FD0A4F28419497F9722A3DAAFE3B4186F6B6457E0 SWAP1 PUSH1 0x0 SWAP1 LOG3 POP POP JUMP JUMPDEST PUSH1 0x8 SLOAD PUSH1 0x1 PUSH1 0x1 PUSH1 0xA0 SHL SUB AND CALLER EQ PUSH3 0x197 JUMPI PUSH1 0x40 MLOAD PUSH3 0x461BCD PUSH1 0xE5 SHL DUP2 MSTORE PUSH1 0x20 PUSH1 0x4 DUP3 ADD DUP2 SWAP1 MSTORE PUSH1 0x24 DUP3 ADD MSTORE PUSH1 0x0 DUP1 MLOAD PUSH1 0x20 PUSH3 0x22C2 DUP4 CODECOPY DUP2 MLOAD SWAP2 MSTORE PUSH1 0x44 DUP3 ADD MSTORE PUSH1 0x64 ADD JUMPDEST PUSH1 0x40 MLOAD DUP1 SWAP2 SUB SWAP1 REVERT JUMPDEST PUSH1 0xA PUSH3 0x1A5 DUP3 DUP3 PUSH3 0x66D JUMP JUMPDEST POP POP JUMP JUMPDEST PUSH1 0x8 SLOAD PUSH1 0x1 PUSH1 0x1 PUSH1 0xA0 SHL SUB AND CALLER EQ PUSH3 0x1F4 JUMPI PUSH1 0x40 MLOAD PUSH3 0x461BCD PUSH1 0xE5 SHL DUP2 MSTORE PUSH1 0x20 PUSH1 0x4 DUP3 ADD DUP2 SWAP1 MSTORE PUSH1 0x24 DUP3 ADD MSTORE PUSH1 0x0 DUP1 MLOAD PUSH1 0x20 PUSH3 0x22C2 DUP4 CODECOPY DUP2 MLOAD SWAP2 MSTORE PUSH1 0x44 DUP3 ADD MSTORE PUSH1 0x64 ADD PUSH3 0x18E JUMP JUMPDEST PUSH1 0x1 PUSH1 0x1 PUSH1 0xA0 SHL SUB DUP3 AND PUSH1 0x0 DUP2 DUP2 MSTORE PUSH1 0x9 PUSH1 0x20 SWAP1 DUP2 MSTORE PUSH1 0x40 SWAP2 DUP3 SWAP1 KECCAK256 DUP1 SLOAD PUSH1 0xFF NOT AND DUP6 ISZERO ISZERO SWAP1 DUP2 OR SWAP1 SWAP2 SSTORE SWAP2 MLOAD SWAP2 DUP3 MSTORE CALLER SWAP2 PUSH32 0x3C49A0D2DCD603245C20EB1985825D770748295CD570DE6D24861080451BBD41 SWAP2 ADD PUSH1 0x40 MLOAD DUP1 SWAP2 SUB SWAP1 LOG3 POP POP JUMP JUMPDEST CALLER PUSH1 0x0 DUP2 DUP2 MSTORE PUSH1 0x9 PUSH1 0x20 MSTORE PUSH1 0x40 SWAP1 KECCAK256 SLOAD PUSH1 0xFF AND PUSH3 0x2B6 JUMPI PUSH1 0x40 MLOAD PUSH3 0x461BCD PUSH1 0xE5 SHL DUP2 MSTORE PUSH1 0x20 PUSH1 0x4 DUP3 ADD MSTORE PUSH1 0x14 PUSH1 0x24 DUP3 ADD MSTORE PUSH32 0x596F7520617265206E6F742061206D696E746572000000000000000000000000 PUSH1 0x44 DUP3 ADD MSTORE PUSH1 0x64 ADD PUSH3 0x18E JUMP JUMPDEST PUSH1 0x0 PUSH3 0x2CC PUSH1 0x1 SLOAD PUSH1 0x0 SLOAD PUSH1 0x0 NOT SWAP2 SWAP1 SUB ADD SWAP1 JUMP JUMPDEST SWAP1 POP PUSH2 0x457 PUSH3 0x2DD DUP5 DUP4 PUSH3 0x852 JUMP JUMPDEST GT ISZERO PUSH3 0x31F JUMPI PUSH1 0x40 MLOAD PUSH3 0x461BCD PUSH1 0xE5 SHL DUP2 MSTORE PUSH1 0x20 PUSH1 0x4 DUP3 ADD MSTORE PUSH1 0xF PUSH1 0x24 DUP3 ADD MSTORE PUSH15 0x4F766572206D617820737570706C79 PUSH1 0x88 SHL PUSH1 0x44 DUP3 ADD MSTORE PUSH1 0x64 ADD PUSH3 0x18E JUMP JUMPDEST PUSH3 0x32B DUP5 DUP5 PUSH3 0x331 JUMP JUMPDEST POP POP POP POP JUMP JUMPDEST PUSH3 0x1A5 DUP3 DUP3 PUSH1 0x40 MLOAD DUP1 PUSH1 0x20 ADD PUSH1 0x40 MSTORE DUP1 PUSH1 0x0 DUP2 MSTORE POP PUSH3 0x353 PUSH1 0x20 SHL PUSH1 0x20 SHR JUMP JUMPDEST PUSH3 0x35F DUP4 DUP4 PUSH3 0x3CA JUMP JUMPDEST PUSH1 0x1 PUSH1 0x1 PUSH1 0xA0 SHL SUB DUP4 AND EXTCODESIZE ISZERO PUSH3 0x3C5 JUMPI PUSH1 0x0 SLOAD DUP3 DUP2 SUB JUMPDEST PUSH1 0x1 DUP2 ADD SWAP1 PUSH3 0x38D SWAP1 PUSH1 0x0 SWAP1 DUP8 SWAP1 DUP7 PUSH3 0x4BC JUMP JUMPDEST PUSH3 0x3AB JUMPI PUSH1 0x40 MLOAD PUSH4 0x68D2BF6B PUSH1 0xE1 SHL DUP2 MSTORE PUSH1 0x4 ADD PUSH1 0x40 MLOAD DUP1 SWAP2 SUB SWAP1 REVERT JUMPDEST DUP2 DUP2 LT PUSH3 0x377 JUMPI DUP2 PUSH1 0x0 SLOAD EQ PUSH3 0x3C2 JUMPI PUSH1 0x0 DUP1 REVERT JUMPDEST POP POP JUMPDEST POP POP POP JUMP JUMPDEST PUSH1 0x0 SLOAD PUSH1 0x1 PUSH1 0x1 PUSH1 0xA0 SHL SUB DUP4 AND PUSH3 0x3F4 JUMPI PUSH1 0x40 MLOAD PUSH3 0x2E0763 PUSH1 0xE8 SHL DUP2 MSTORE PUSH1 0x4 ADD PUSH1 0x40 MLOAD DUP1 SWAP2 SUB SWAP1 REVERT JUMPDEST DUP2 PUSH1 0x0 SUB PUSH3 0x416 JUMPI PUSH1 0x40 MLOAD PUSH4 0xB562E8DD PUSH1 0xE0 SHL DUP2 MSTORE PUSH1 0x4 ADD PUSH1 0x40 MLOAD DUP1 SWAP2 SUB SWAP1 REVERT JUMPDEST PUSH3 0x425 PUSH1 0x0 DUP5 DUP4 DUP6 PUSH3 0x5B0 JUMP JUMPDEST PUSH1 0x1 PUSH1 0x1 PUSH1 0xA0 SHL SUB DUP4 AND PUSH1 0x0 DUP2 DUP2 MSTORE PUSH1 0x5 PUSH1 0x20 MSTORE PUSH1 0x40 SWAP1 KECCAK256 DUP1 SLOAD PUSH9 0x10000000000000001 DUP6 MUL ADD SWAP1 SSTORE TIMESTAMP PUSH1 0xA0 SHL PUSH1 0x1 DUP5 EQ PUSH1 0xE1 SHL OR OR PUSH1 0x0 DUP3 DUP2 MSTORE PUSH1 0x4 PUSH1 0x20 MSTORE PUSH1 0x40 SWAP1 KECCAK256 SSTORE DUP1 DUP3 DUP2 ADD JUMPDEST PUSH1 0x40 MLOAD PUSH1 0x1 DUP4 ADD SWAP3 SWAP1 PUSH1 0x1 PUSH1 0x1 PUSH1 0xA0 SHL SUB DUP8 AND SWAP1 PUSH1 0x0 SWAP1 PUSH32 0xDDF252AD1BE2C89B69C2B068FC378DAA952BA7F163C4A11628F55A4DF523B3EF SWAP1 DUP3 SWAP1 LOG4 DUP1 DUP3 LT PUSH3 0x46F JUMPI PUSH1 0x0 SSTORE POP POP POP POP JUMP JUMPDEST PUSH1 0x40 MLOAD PUSH4 0xA85BD01 PUSH1 0xE1 SHL DUP2 MSTORE PUSH1 0x0 SWAP1 PUSH1 0x1 PUSH1 0x1 PUSH1 0xA0 SHL SUB DUP6 AND SWAP1 PUSH4 0x150B7A02 SWAP1 PUSH3 0x4F3 SWAP1 CALLER SWAP1 DUP10 SWAP1 DUP9 SWAP1 DUP9 SWAP1 PUSH1 0x4 ADD PUSH3 0x879 JUMP JUMPDEST PUSH1 0x20 PUSH1 0x40 MLOAD DUP1 DUP4 SUB DUP2 PUSH1 0x0 DUP8 GAS CALL SWAP3 POP POP POP DUP1 ISZERO PUSH3 0x531 JUMPI POP PUSH1 0x40 DUP1 MLOAD PUSH1 0x1F RETURNDATASIZE SWAP1 DUP2 ADD PUSH1 0x1F NOT AND DUP3 ADD SWAP1 SWAP3 MSTORE PUSH3 0x52E SWAP2 DUP2 ADD SWAP1 PUSH3 0x8CF JUMP JUMPDEST PUSH1 0x1 JUMPDEST PUSH3 0x593 JUMPI RETURNDATASIZE DUP1 DUP1 ISZERO PUSH3 0x562 JUMPI PUSH1 0x40 MLOAD SWAP2 POP PUSH1 0x1F NOT PUSH1 0x3F RETURNDATASIZE ADD AND DUP3 ADD PUSH1 0x40 MSTORE RETURNDATASIZE DUP3 MSTORE RETURNDATASIZE PUSH1 0x0 PUSH1 0x20 DUP5 ADD RETURNDATACOPY PUSH3 0x567 JUMP JUMPDEST PUSH1 0x60 SWAP2 POP JUMPDEST POP DUP1 MLOAD PUSH1 0x0 SUB PUSH3 0x58B JUMPI PUSH1 0x40 MLOAD PUSH4 0x68D2BF6B PUSH1 0xE1 SHL DUP2 MSTORE PUSH1 0x4 ADD PUSH1 0x40 MLOAD DUP1 SWAP2 SUB SWAP1 REVERT JUMPDEST DUP1 MLOAD DUP2 PUSH1 0x20 ADD REVERT JUMPDEST PUSH1 0x1 PUSH1 0x1 PUSH1 0xE0 SHL SUB NOT AND PUSH4 0xA85BD01 PUSH1 0xE1 SHL EQ SWAP1 POP SWAP5 SWAP4 POP POP POP POP JUMP JUMPDEST PUSH3 0x32B DUP5 DUP5 DUP5 DUP5 PUSH3 0x32B PUSH1 0x20 SHL PUSH3 0xA24 OR PUSH1 0x20 SHR JUMP JUMPDEST PUSH4 0x4E487B71 PUSH1 0xE0 SHL PUSH1 0x0 MSTORE PUSH1 0x41 PUSH1 0x4 MSTORE PUSH1 0x24 PUSH1 0x0 REVERT JUMPDEST PUSH1 0x1 DUP2 DUP2 SHR SWAP1 DUP3 AND DUP1 PUSH3 0x5F4 JUMPI PUSH1 0x7F DUP3 AND SWAP2 POP JUMPDEST PUSH1 0x20 DUP3 LT DUP2 SUB PUSH3 0x615 JUMPI PUSH4 0x4E487B71 PUSH1 0xE0 SHL PUSH1 0x0 MSTORE PUSH1 0x22 PUSH1 0x4 MSTORE PUSH1 0x24 PUSH1 0x0 REVERT JUMPDEST POP SWAP2 SWAP1 POP JUMP JUMPDEST PUSH1 0x1F DUP3 GT ISZERO PUSH3 0x3C5 JUMPI PUSH1 0x0 DUP2 DUP2 MSTORE PUSH1 0x20 DUP2 KECCAK256 PUSH1 0x1F DUP6 ADD PUSH1 0x5 SHR DUP2 ADD PUSH1 0x20 DUP7 LT ISZERO PUSH3 0x644 JUMPI POP DUP1 JUMPDEST PUSH1 0x1F DUP6 ADD PUSH1 0x5 SHR DUP3 ADD SWAP2 POP JUMPDEST DUP2 DUP2 LT ISZERO PUSH3 0x665 JUMPI DUP3 DUP2 SSTORE PUSH1 0x1 ADD PUSH3 0x650 JUMP JUMPDEST POP POP POP POP POP POP JUMP JUMPDEST DUP2 MLOAD PUSH1 0x1 PUSH1 0x1 PUSH1 0x40 SHL SUB DUP2 GT ISZERO PUSH3 0x689 JUMPI PUSH3 0x689 PUSH3 0x5C9 JUMP JUMPDEST PUSH3 0x6A1 DUP2 PUSH3 0x69A DUP5 SLOAD PUSH3 0x5DF JUMP JUMPDEST DUP5 PUSH3 0x61B JUMP JUMPDEST PUSH1 0x20 DUP1 PUSH1 0x1F DUP4 GT PUSH1 0x1 DUP2 EQ PUSH3 0x6D9 JUMPI PUSH1 0x0 DUP5 ISZERO PUSH3 0x6C0 JUMPI POP DUP6 DUP4 ADD MLOAD JUMPDEST PUSH1 0x0 NOT PUSH1 0x3 DUP7 SWAP1 SHL SHR NOT AND PUSH1 0x1 DUP6 SWAP1 SHL OR DUP6 SSTORE PUSH3 0x665 JUMP JUMPDEST PUSH1 0x0 DUP6 DUP2 MSTORE PUSH1 0x20 DUP2 KECCAK256 PUSH1 0x1F NOT DUP7 AND SWAP2 JUMPDEST DUP3 DUP2 LT ISZERO PUSH3 0x70A JUMPI DUP9 DUP7 ADD MLOAD DUP3 SSTORE SWAP5 DUP5 ADD SWAP5 PUSH1 0x1 SWAP1 SWAP2 ADD SWAP1 DUP5 ADD PUSH3 0x6E9 JUMP JUMPDEST POP DUP6 DUP3 LT ISZERO PUSH3 0x729 JUMPI DUP8 DUP6 ADD MLOAD PUSH1 0x0 NOT PUSH1 0x3 DUP9 SWAP1 SHL PUSH1 0xF8 AND SHR NOT AND DUP2 SSTORE JUMPDEST POP POP POP POP POP PUSH1 0x1 SWAP1 DUP2 SHL ADD SWAP1 SSTORE POP JUMP JUMPDEST PUSH1 0x0 JUMPDEST DUP4 DUP2 LT ISZERO PUSH3 0x756 JUMPI DUP2 DUP2 ADD MLOAD DUP4 DUP3 ADD MSTORE PUSH1 0x20 ADD PUSH3 0x73C JUMP JUMPDEST DUP4 DUP2 GT ISZERO PUSH3 0x32B JUMPI POP POP PUSH1 0x0 SWAP2 ADD MSTORE JUMP JUMPDEST DUP1 MLOAD PUSH1 0x1 PUSH1 0x1 PUSH1 0xA0 SHL SUB DUP2 AND DUP2 EQ PUSH3 0x780 JUMPI PUSH1 0x0 DUP1 REVERT JUMPDEST SWAP2 SWAP1 POP JUMP JUMPDEST PUSH1 0x0 DUP1 PUSH1 0x40 DUP4 DUP6 SUB SLT ISZERO PUSH3 0x799 JUMPI PUSH1 0x0 DUP1 REVERT JUMPDEST DUP3 MLOAD PUSH1 0x1 PUSH1 0x1 PUSH1 0x40 SHL SUB DUP1 DUP3 GT ISZERO PUSH3 0x7B1 JUMPI PUSH1 0x0 DUP1 REVERT JUMPDEST DUP2 DUP6 ADD SWAP2 POP DUP6 PUSH1 0x1F DUP4 ADD SLT PUSH3 0x7C6 JUMPI PUSH1 0x0 DUP1 REVERT JUMPDEST DUP2 MLOAD DUP2 DUP2 GT ISZERO PUSH3 0x7DB JUMPI PUSH3 0x7DB PUSH3 0x5C9 JUMP JUMPDEST PUSH1 0x40 MLOAD PUSH1 0x1F DUP3 ADD PUSH1 0x1F NOT SWAP1 DUP2 AND PUSH1 0x3F ADD AND DUP2 ADD SWAP1 DUP4 DUP3 GT DUP2 DUP4 LT OR ISZERO PUSH3 0x806 JUMPI PUSH3 0x806 PUSH3 0x5C9 JUMP JUMPDEST DUP2 PUSH1 0x40 MSTORE DUP3 DUP2 MSTORE DUP9 PUSH1 0x20 DUP5 DUP8 ADD ADD GT ISZERO PUSH3 0x820 JUMPI PUSH1 0x0 DUP1 REVERT JUMPDEST PUSH3 0x833 DUP4 PUSH1 0x20 DUP4 ADD PUSH1 0x20 DUP9 ADD PUSH3 0x739 JUMP JUMPDEST DUP1 SWAP7 POP POP POP POP POP POP PUSH3 0x849 PUSH1 0x20 DUP5 ADD PUSH3 0x768 JUMP JUMPDEST SWAP1 POP SWAP3 POP SWAP3 SWAP1 POP JUMP JUMPDEST PUSH1 0x0 DUP3 NOT DUP3 GT ISZERO PUSH3 0x874 JUMPI PUSH4 0x4E487B71 PUSH1 0xE0 SHL PUSH1 0x0 MSTORE PUSH1 0x11 PUSH1 0x4 MSTORE PUSH1 0x24 PUSH1 0x0 REVERT JUMPDEST POP ADD SWAP1 JUMP JUMPDEST PUSH1 0x0 PUSH1 0x1 DUP1 PUSH1 0xA0 SHL SUB DUP1 DUP8 AND DUP4 MSTORE DUP1 DUP7 AND PUSH1 0x20 DUP5 ADD MSTORE POP DUP4 PUSH1 0x40 DUP4 ADD MSTORE PUSH1 0x80 PUSH1 0x60 DUP4 ADD MSTORE DUP3 MLOAD DUP1 PUSH1 0x80 DUP5 ADD MSTORE PUSH3 0x8B8 DUP2 PUSH1 0xA0 DUP6 ADD PUSH1 0x20 DUP8 ADD PUSH3 0x739 JUMP JUMPDEST PUSH1 0x1F ADD PUSH1 0x1F NOT AND SWAP2 SWAP1 SWAP2 ADD PUSH1 0xA0 ADD SWAP6 SWAP5 POP POP POP POP POP JUMP JUMPDEST PUSH1 0x0 PUSH1 0x20 DUP3 DUP5 SUB SLT ISZERO PUSH3 0x8E2 JUMPI PUSH1 0x0 DUP1 REVERT JUMPDEST DUP2 MLOAD PUSH1 0x1 PUSH1 0x1 PUSH1 0xE0 SHL SUB NOT DUP2 AND DUP2 EQ PUSH3 0x8FB JUMPI PUSH1 0x0 DUP1 REVERT JUMPDEST SWAP4 SWAP3 POP POP POP JUMP JUMPDEST PUSH2 0x19B0 DUP1 PUSH3 0x912 PUSH1 0x0 CODECOPY PUSH1 0x0 RETURN INVALID PUSH1 0x80 PUSH1 0x40 MSTORE CALLVALUE DUP1 ISZERO PUSH2 0x10 JUMPI PUSH1 0x0 DUP1 REVERT JUMPDEST POP PUSH1 0x4 CALLDATASIZE LT PUSH2 0x173 JUMPI PUSH1 0x0 CALLDATALOAD PUSH1 0xE0 SHR DUP1 PUSH4 0x70A08231 GT PUSH2 0xDE JUMPI DUP1 PUSH4 0xAA271E1A GT PUSH2 0x97 JUMPI DUP1 PUSH4 0xC87B56DD GT PUSH2 0x71 JUMPI DUP1 PUSH4 0xC87B56DD EQ PUSH2 0x342 JUMPI DUP1 PUSH4 0xD5ABEB01 EQ PUSH2 0x355 JUMPI DUP1 PUSH4 0xE985E9C5 EQ PUSH2 0x35E JUMPI DUP1 PUSH4 0xF2FDE38B EQ PUSH2 0x39A JUMPI PUSH1 0x0 DUP1 REVERT JUMPDEST DUP1 PUSH4 0xAA271E1A EQ PUSH2 0x2FB JUMPI DUP1 PUSH4 0xB88D4FDE EQ PUSH2 0x327 JUMPI DUP1 PUSH4 0xC6682862 EQ PUSH2 0x33A JUMPI PUSH1 0x0 DUP1 REVERT JUMPDEST DUP1 PUSH4 0x70A08231 EQ PUSH2 0x2A1 JUMPI DUP1 PUSH4 0x715018A6 EQ PUSH2 0x2B4 JUMPI DUP1 PUSH4 0x8DA5CB5B EQ PUSH2 0x2BC JUMPI DUP1 PUSH4 0x95D89B41 EQ PUSH2 0x2CD JUMPI DUP1 PUSH4 0xA1448194 EQ PUSH2 0x2D5 JUMPI DUP1 PUSH4 0xA22CB465 EQ PUSH2 0x2E8 JUMPI PUSH1 0x0 DUP1 REVERT JUMPDEST DUP1 PUSH4 0x3C713026 GT PUSH2 0x130 JUMPI DUP1 PUSH4 0x3C713026 EQ PUSH2 0x222 JUMPI DUP1 PUSH4 0x42842E0E EQ PUSH2 0x235 JUMPI DUP1 PUSH4 0x42966C68 EQ PUSH2 0x248 JUMPI DUP1 PUSH4 0x438B6300 EQ PUSH2 0x25B JUMPI DUP1 PUSH4 0x55F804B3 EQ PUSH2 0x27B JUMPI DUP1 PUSH4 0x6352211E EQ PUSH2 0x28E JUMPI PUSH1 0x0 DUP1 REVERT JUMPDEST DUP1 PUSH4 0x1FFC9A7 EQ PUSH2 0x178 JUMPI DUP1 PUSH4 0x6FDDE03 EQ PUSH2 0x1A0 JUMPI DUP1 PUSH4 0x81812FC EQ PUSH2 0x1B5 JUMPI DUP1 PUSH4 0x95EA7B3 EQ PUSH2 0x1E0 JUMPI DUP1 PUSH4 0x18160DDD EQ PUSH2 0x1F5 JUMPI DUP1 PUSH4 0x23B872DD EQ PUSH2 0x20F JUMPI JUMPDEST PUSH1 0x0 DUP1 REVERT JUMPDEST PUSH2 0x18B PUSH2 0x186 CALLDATASIZE PUSH1 0x4 PUSH2 0x1317 JUMP JUMPDEST PUSH2 0x3AD JUMP JUMPDEST PUSH1 0x40 MLOAD SWAP1 ISZERO ISZERO DUP2 MSTORE PUSH1 0x20 ADD JUMPDEST PUSH1 0x40 MLOAD DUP1 SWAP2 SUB SWAP1 RETURN JUMPDEST PUSH2 0x1A8 PUSH2 0x3BE JUMP JUMPDEST PUSH1 0x40 MLOAD PUSH2 0x197 SWAP2 SWAP1 PUSH2 0x138C JUMP JUMPDEST PUSH2 0x1C8 PUSH2 0x1C3 CALLDATASIZE PUSH1 0x4 PUSH2 0x139F JUMP JUMPDEST PUSH2 0x450 JUMP JUMPDEST PUSH1 0x40 MLOAD PUSH1 0x1 PUSH1 0x1 PUSH1 0xA0 SHL SUB SWAP1 SWAP2 AND DUP2 MSTORE PUSH1 0x20 ADD PUSH2 0x197 JUMP JUMPDEST PUSH2 0x1F3 PUSH2 0x1EE CALLDATASIZE PUSH1 0x4 PUSH2 0x13D4 JUMP JUMPDEST PUSH2 0x494 JUMP JUMPDEST STOP JUMPDEST PUSH1 0x1 SLOAD PUSH1 0x0 SLOAD SUB PUSH1 0x0 NOT ADD JUMPDEST PUSH1 0x40 MLOAD SWAP1 DUP2 MSTORE PUSH1 0x20 ADD PUSH2 0x197 JUMP JUMPDEST PUSH2 0x1F3 PUSH2 0x21D CALLDATASIZE PUSH1 0x4 PUSH2 0x13FE JUMP JUMPDEST PUSH2 0x534 JUMP JUMPDEST PUSH2 0x1F3 PUSH2 0x230 CALLDATASIZE PUSH1 0x4 PUSH2 0x143A JUMP JUMPDEST PUSH2 0x6E4 JUMP JUMPDEST PUSH2 0x1F3 PUSH2 0x243 CALLDATASIZE PUSH1 0x4 PUSH2 0x13FE JUMP JUMPDEST PUSH2 0x779 JUMP JUMPDEST PUSH2 0x1F3 PUSH2 0x256 CALLDATASIZE PUSH1 0x4 PUSH2 0x139F JUMP JUMPDEST PUSH2 0x799 JUMP JUMPDEST PUSH2 0x26E PUSH2 0x269 CALLDATASIZE PUSH1 0x4 PUSH2 0x1476 JUMP JUMPDEST PUSH2 0x7A7 JUMP JUMPDEST PUSH1 0x40 MLOAD PUSH2 0x197 SWAP2 SWAP1 PUSH2 0x1491 JUMP JUMPDEST PUSH2 0x1F3 PUSH2 0x289 CALLDATASIZE PUSH1 0x4 PUSH2 0x1561 JUMP JUMPDEST PUSH2 0x887 JUMP JUMPDEST PUSH2 0x1C8 PUSH2 0x29C CALLDATASIZE PUSH1 0x4 PUSH2 0x139F JUMP JUMPDEST PUSH2 0x8C1 JUMP JUMPDEST PUSH2 0x201 PUSH2 0x2AF CALLDATASIZE PUSH1 0x4 PUSH2 0x1476 JUMP JUMPDEST PUSH2 0x8CC JUMP JUMPDEST PUSH2 0x1F3 PUSH2 0x91B JUMP JUMPDEST PUSH1 0x8 SLOAD PUSH1 0x1 PUSH1 0x1 PUSH1 0xA0 SHL SUB AND PUSH2 0x1C8 JUMP JUMPDEST PUSH2 0x1A8 PUSH2 0x951 JUMP JUMPDEST PUSH2 0x1F3 PUSH2 0x2E3 CALLDATASIZE PUSH1 0x4 PUSH2 0x13D4 JUMP JUMPDEST PUSH2 0x960 JUMP JUMPDEST PUSH2 0x1F3 PUSH2 0x2F6 CALLDATASIZE PUSH1 0x4 PUSH2 0x143A JUMP JUMPDEST PUSH2 0xA2A JUMP JUMPDEST PUSH2 0x18B PUSH2 0x309 CALLDATASIZE PUSH1 0x4 PUSH2 0x1476 JUMP JUMPDEST PUSH1 0x1 PUSH1 0x1 PUSH1 0xA0 SHL SUB AND PUSH1 0x0 SWAP1 DUP2 MSTORE PUSH1 0x9 PUSH1 0x20 MSTORE PUSH1 0x40 SWAP1 KECCAK256 SLOAD PUSH1 0xFF AND SWAP1 JUMP JUMPDEST PUSH2 0x1F3 PUSH2 0x335 CALLDATASIZE PUSH1 0x4 PUSH2 0x15AA JUMP JUMPDEST PUSH2 0xAB8 JUMP JUMPDEST PUSH2 0x1A8 PUSH2 0xAFC JUMP JUMPDEST PUSH2 0x1A8 PUSH2 0x350 CALLDATASIZE PUSH1 0x4 PUSH2 0x139F JUMP JUMPDEST PUSH2 0xB8A JUMP JUMPDEST PUSH2 0x201 PUSH2 0x457 DUP2 JUMP JUMPDEST PUSH2 0x18B PUSH2 0x36C CALLDATASIZE PUSH1 0x4 PUSH2 0x1626 JUMP JUMPDEST PUSH1 0x1 PUSH1 0x1 PUSH1 0xA0 SHL SUB SWAP2 DUP3 AND PUSH1 0x0 SWAP1 DUP2 MSTORE PUSH1 0x7 PUSH1 0x20 SWAP1 DUP2 MSTORE PUSH1 0x40 DUP1 DUP4 KECCAK256 SWAP4 SWAP1 SWAP5 AND DUP3 MSTORE SWAP2 SWAP1 SWAP2 MSTORE KECCAK256 SLOAD PUSH1 0xFF AND SWAP1 JUMP JUMPDEST PUSH2 0x1F3 PUSH2 0x3A8 CALLDATASIZE PUSH1 0x4 PUSH2 0x1476 JUMP JUMPDEST PUSH2 0xC58 JUMP JUMPDEST PUSH1 0x0 PUSH2 0x3B8 DUP3 PUSH2 0xCF0 JUMP JUMPDEST SWAP3 SWAP2 POP POP JUMP JUMPDEST PUSH1 0x60 PUSH1 0x2 DUP1 SLOAD PUSH2 0x3CD SWAP1 PUSH2 0x1659 JUMP JUMPDEST DUP1 PUSH1 0x1F ADD PUSH1 0x20 DUP1 SWAP2 DIV MUL PUSH1 0x20 ADD PUSH1 0x40 MLOAD SWAP1 DUP2 ADD PUSH1 0x40 MSTORE DUP1 SWAP3 SWAP2 SWAP1 DUP2 DUP2 MSTORE PUSH1 0x20 ADD DUP3 DUP1 SLOAD PUSH2 0x3F9 SWAP1 PUSH2 0x1659 JUMP JUMPDEST DUP1 ISZERO PUSH2 0x446 JUMPI DUP1 PUSH1 0x1F LT PUSH2 0x41B JUMPI PUSH2 0x100 DUP1 DUP4 SLOAD DIV MUL DUP4 MSTORE SWAP2 PUSH1 0x20 ADD SWAP2 PUSH2 0x446 JUMP JUMPDEST DUP3 ADD SWAP2 SWAP1 PUSH1 0x0 MSTORE PUSH1 0x20 PUSH1 0x0 KECCAK256 SWAP1 JUMPDEST DUP2 SLOAD DUP2 MSTORE SWAP1 PUSH1 0x1 ADD SWAP1 PUSH1 0x20 ADD DUP1 DUP4 GT PUSH2 0x429 JUMPI DUP3 SWAP1 SUB PUSH1 0x1F AND DUP3 ADD SWAP2 JUMPDEST POP POP POP POP POP SWAP1 POP SWAP1 JUMP JUMPDEST PUSH1 0x0 PUSH2 0x45B DUP3 PUSH2 0xD3E JUMP JUMPDEST PUSH2 0x478 JUMPI PUSH1 0x40 MLOAD PUSH4 0x33D1C039 PUSH1 0xE2 SHL DUP2 MSTORE PUSH1 0x4 ADD PUSH1 0x40 MLOAD DUP1 SWAP2 SUB SWAP1 REVERT JUMPDEST POP PUSH1 0x0 SWAP1 DUP2 MSTORE PUSH1 0x6 PUSH1 0x20 MSTORE PUSH1 0x40 SWAP1 KECCAK256 SLOAD PUSH1 0x1 PUSH1 0x1 PUSH1 0xA0 SHL SUB AND SWAP1 JUMP JUMPDEST PUSH1 0x0 PUSH2 0x49F DUP3 PUSH2 0x8C1 JUMP JUMPDEST SWAP1 POP CALLER PUSH1 0x1 PUSH1 0x1 PUSH1 0xA0 SHL SUB DUP3 AND EQ PUSH2 0x4D8 JUMPI PUSH2 0x4BB DUP2 CALLER PUSH2 0x36C JUMP JUMPDEST PUSH2 0x4D8 JUMPI PUSH1 0x40 MLOAD PUSH4 0x67D9DCA1 PUSH1 0xE1 SHL DUP2 MSTORE PUSH1 0x4 ADD PUSH1 0x40 MLOAD DUP1 SWAP2 SUB SWAP1 REVERT JUMPDEST PUSH1 0x0 DUP3 DUP2 MSTORE PUSH1 0x6 PUSH1 0x20 MSTORE PUSH1 0x40 DUP1 DUP3 KECCAK256 DUP1 SLOAD PUSH1 0x1 PUSH1 0x1 PUSH1 0xA0 SHL SUB NOT AND PUSH1 0x1 PUSH1 0x1 PUSH1 0xA0 SHL SUB DUP8 DUP2 AND SWAP2 DUP3 OR SWAP1 SWAP3 SSTORE SWAP2 MLOAD DUP6 SWAP4 SWAP2 DUP6 AND SWAP2 PUSH32 0x8C5BE1E5EBEC7D5BD14F71427D1E84F3DD0314C0F7B2291E5B200AC8C7C3B925 SWAP2 LOG4 POP POP POP JUMP JUMPDEST PUSH1 0x0 PUSH2 0x53F DUP3 PUSH2 0xD73 JUMP JUMPDEST SWAP1 POP DUP4 PUSH1 0x1 PUSH1 0x1 PUSH1 0xA0 SHL SUB AND DUP2 PUSH1 0x1 PUSH1 0x1 PUSH1 0xA0 SHL SUB AND EQ PUSH2 0x572 JUMPI PUSH1 0x40 MLOAD PUSH3 0xA11481 PUSH1 0xE8 SHL DUP2 MSTORE PUSH1 0x4 ADD PUSH1 0x40 MLOAD DUP1 SWAP2 SUB SWAP1 REVERT JUMPDEST PUSH1 0x0 DUP3 DUP2 MSTORE PUSH1 0x6 PUSH1 0x20 MSTORE PUSH1 0x40 SWAP1 KECCAK256 DUP1 SLOAD PUSH2 0x59E DUP2 DUP8 CALLER JUMPDEST PUSH1 0x1 PUSH1 0x1 PUSH1 0xA0 SHL SUB SWAP1 DUP2 AND SWAP2 AND DUP2 EQ SWAP2 EQ OR SWAP1 JUMP JUMPDEST PUSH2 0x5C9 JUMPI PUSH2 0x5AC DUP7 CALLER PUSH2 0x36C JUMP JUMPDEST PUSH2 0x5C9 JUMPI PUSH1 0x40 MLOAD PUSH4 0x2CE44B5F PUSH1 0xE1 SHL DUP2 MSTORE PUSH1 0x4 ADD PUSH1 0x40 MLOAD DUP1 SWAP2 SUB SWAP1 REVERT JUMPDEST PUSH1 0x1 PUSH1 0x1 PUSH1 0xA0 SHL SUB DUP6 AND PUSH2 0x5F0 JUMPI PUSH1 0x40 MLOAD PUSH4 0x3A954ECD PUSH1 0xE2 SHL DUP2 MSTORE PUSH1 0x4 ADD PUSH1 0x40 MLOAD DUP1 SWAP2 SUB SWAP1 REVERT JUMPDEST PUSH2 0x5FD DUP7 DUP7 DUP7 PUSH1 0x1 PUSH2 0xDE2 JUMP JUMPDEST DUP1 ISZERO PUSH2 0x608 JUMPI PUSH1 0x0 DUP3 SSTORE JUMPDEST PUSH1 0x1 PUSH1 0x1 PUSH1 0xA0 SHL SUB DUP7 DUP2 AND PUSH1 0x0 SWAP1 DUP2 MSTORE PUSH1 0x5 PUSH1 0x20 MSTORE PUSH1 0x40 DUP1 DUP3 KECCAK256 DUP1 SLOAD PUSH1 0x0 NOT ADD SWAP1 SSTORE SWAP2 DUP8 AND DUP1 DUP3 MSTORE SWAP2 SWAP1 KECCAK256 DUP1 SLOAD PUSH1 0x1 ADD SWAP1 SSTORE TIMESTAMP PUSH1 0xA0 SHL OR PUSH1 0x1 PUSH1 0xE1 SHL OR PUSH1 0x0 DUP6 DUP2 MSTORE PUSH1 0x4 PUSH1 0x20 MSTORE PUSH1 0x40 DUP2 KECCAK256 SWAP2 SWAP1 SWAP2 SSTORE PUSH1 0x1 PUSH1 0xE1 SHL DUP5 AND SWAP1 SUB PUSH2 0x69A JUMPI PUSH1 0x1 DUP5 ADD PUSH1 0x0 DUP2 DUP2 MSTORE PUSH1 0x4 PUSH1 0x20 MSTORE PUSH1 0x40 DUP2 KECCAK256 SLOAD SWAP1 SUB PUSH2 0x698 JUMPI PUSH1 0x0 SLOAD DUP2 EQ PUSH2 0x698 JUMPI PUSH1 0x0 DUP2 DUP2 MSTORE PUSH1 0x4 PUSH1 0x20 MSTORE PUSH1 0x40 SWAP1 KECCAK256 DUP5 SWAP1 SSTORE JUMPDEST POP JUMPDEST DUP4 DUP6 PUSH1 0x1 PUSH1 0x1 PUSH1 0xA0 SHL SUB AND DUP8 PUSH1 0x1 PUSH1 0x1 PUSH1 0xA0 SHL SUB AND PUSH32 0xDDF252AD1BE2C89B69C2B068FC378DAA952BA7F163C4A11628F55A4DF523B3EF PUSH1 0x40 MLOAD PUSH1 0x40 MLOAD DUP1 SWAP2 SUB SWAP1 LOG4 JUMPDEST POP POP POP POP POP POP JUMP JUMPDEST PUSH1 0x8 SLOAD PUSH1 0x1 PUSH1 0x1 PUSH1 0xA0 SHL SUB AND CALLER EQ PUSH2 0x717 JUMPI PUSH1 0x40 MLOAD PUSH3 0x461BCD PUSH1 0xE5 SHL DUP2 MSTORE PUSH1 0x4 ADD PUSH2 0x70E SWAP1 PUSH2 0x1693 JUMP JUMPDEST PUSH1 0x40 MLOAD DUP1 SWAP2 SUB SWAP1 REVERT JUMPDEST PUSH1 0x1 PUSH1 0x1 PUSH1 0xA0 SHL SUB DUP3 AND PUSH1 0x0 DUP2 DUP2 MSTORE PUSH1 0x9 PUSH1 0x20 SWAP1 DUP2 MSTORE PUSH1 0x40 SWAP2 DUP3 SWAP1 KECCAK256 DUP1 SLOAD PUSH1 0xFF NOT AND DUP6 ISZERO ISZERO SWAP1 DUP2 OR SWAP1 SWAP2 SSTORE SWAP2 MLOAD SWAP2 DUP3 MSTORE CALLER SWAP2 PUSH32 0x3C49A0D2DCD603245C20EB1985825D770748295CD570DE6D24861080451BBD41 SWAP2 ADD JUMPDEST PUSH1 0x40 MLOAD DUP1 SWAP2 SUB SWAP1 LOG3 POP POP JUMP JUMPDEST PUSH2 0x794 DUP4 DUP4 DUP4 PUSH1 0x40 MLOAD DUP1 PUSH1 0x20 ADD PUSH1 0x40 MSTORE DUP1 PUSH1 0x0 DUP2 MSTORE POP PUSH2 0xAB8 JUMP JUMPDEST POP POP POP JUMP JUMPDEST PUSH2 0x7A4 DUP2 PUSH1 0x1 PUSH2 0xDE7 JUMP JUMPDEST POP JUMP JUMPDEST PUSH1 0x60 PUSH1 0x0 PUSH2 0x7B4 DUP4 PUSH2 0x8CC JUMP JUMPDEST SWAP1 POP PUSH1 0x0 DUP2 PUSH8 0xFFFFFFFFFFFFFFFF DUP2 GT ISZERO PUSH2 0x7D1 JUMPI PUSH2 0x7D1 PUSH2 0x14D5 JUMP JUMPDEST PUSH1 0x40 MLOAD SWAP1 DUP1 DUP3 MSTORE DUP1 PUSH1 0x20 MUL PUSH1 0x20 ADD DUP3 ADD PUSH1 0x40 MSTORE DUP1 ISZERO PUSH2 0x7FA JUMPI DUP2 PUSH1 0x20 ADD PUSH1 0x20 DUP3 MUL DUP1 CALLDATASIZE DUP4 CALLDATACOPY ADD SWAP1 POP JUMPDEST POP SWAP1 POP PUSH1 0x1 PUSH1 0x0 JUMPDEST DUP4 DUP2 LT DUP1 ISZERO PUSH2 0x813 JUMPI POP PUSH2 0x457 DUP3 GT ISZERO JUMPDEST ISZERO PUSH2 0x87D JUMPI PUSH1 0x0 PUSH2 0x823 DUP4 PUSH2 0x8C1 JUMP JUMPDEST SWAP1 POP DUP7 PUSH1 0x1 PUSH1 0x1 PUSH1 0xA0 SHL SUB AND DUP2 PUSH1 0x1 PUSH1 0x1 PUSH1 0xA0 SHL SUB AND SUB PUSH2 0x86A JUMPI DUP3 DUP5 DUP4 DUP2 MLOAD DUP2 LT PUSH2 0x851 JUMPI PUSH2 0x851 PUSH2 0x16C8 JUMP JUMPDEST PUSH1 0x20 SWAP1 DUP2 MUL SWAP2 SWAP1 SWAP2 ADD ADD MSTORE DUP2 PUSH2 0x866 DUP2 PUSH2 0x16F4 JUMP JUMPDEST SWAP3 POP POP JUMPDEST DUP3 PUSH2 0x874 DUP2 PUSH2 0x16F4 JUMP JUMPDEST SWAP4 POP POP POP PUSH2 0x802 JUMP JUMPDEST POP SWAP1 SWAP5 SWAP4 POP POP POP POP JUMP JUMPDEST PUSH1 0x8 SLOAD PUSH1 0x1 PUSH1 0x1 PUSH1 0xA0 SHL SUB AND CALLER EQ PUSH2 0x8B1 JUMPI PUSH1 0x40 MLOAD PUSH3 0x461BCD PUSH1 0xE5 SHL DUP2 MSTORE PUSH1 0x4 ADD PUSH2 0x70E SWAP1 PUSH2 0x1693 JUMP JUMPDEST PUSH1 0xA PUSH2 0x8BD DUP3 DUP3 PUSH2 0x1753 JUMP JUMPDEST POP POP JUMP JUMPDEST PUSH1 0x0 PUSH2 0x3B8 DUP3 PUSH2 0xD73 JUMP JUMPDEST PUSH1 0x0 PUSH1 0x1 PUSH1 0x1 PUSH1 0xA0 SHL SUB DUP3 AND PUSH2 0x8F5 JUMPI PUSH1 0x40 MLOAD PUSH4 0x23D3AD81 PUSH1 0xE2 SHL DUP2 MSTORE PUSH1 0x4 ADD PUSH1 0x40 MLOAD DUP1 SWAP2 SUB SWAP1 REVERT JUMPDEST POP PUSH1 0x1 PUSH1 0x1 PUSH1 0xA0 SHL SUB AND PUSH1 0x0 SWAP1 DUP2 MSTORE PUSH1 0x5 PUSH1 0x20 MSTORE PUSH1 0x40 SWAP1 KECCAK256 SLOAD PUSH8 0xFFFFFFFFFFFFFFFF AND SWAP1 JUMP JUMPDEST PUSH1 0x8 SLOAD PUSH1 0x1 PUSH1 0x1 PUSH1 0xA0 SHL SUB AND CALLER EQ PUSH2 0x945 JUMPI PUSH1 0x40 MLOAD PUSH3 0x461BCD PUSH1 0xE5 SHL DUP2 MSTORE PUSH1 0x4 ADD PUSH2 0x70E SWAP1 PUSH2 0x1693 JUMP JUMPDEST PUSH2 0x94F PUSH1 0x0 PUSH2 0xF3F JUMP JUMPDEST JUMP JUMPDEST PUSH1 0x60 PUSH1 0x3 DUP1 SLOAD PUSH2 0x3CD SWAP1 PUSH2 0x1659 JUMP JUMPDEST CALLER PUSH1 0x0 DUP2 DUP2 MSTORE PUSH1 0x9 PUSH1 0x20 MSTORE PUSH1 0x40 SWAP1 KECCAK256 SLOAD PUSH1 0xFF AND PUSH2 0x9B6 JUMPI PUSH1 0x40 MLOAD PUSH3 0x461BCD PUSH1 0xE5 SHL DUP2 MSTORE PUSH1 0x20 PUSH1 0x4 DUP3 ADD MSTORE PUSH1 0x14 PUSH1 0x24 DUP3 ADD MSTORE PUSH20 0x2CB7BA9030B932903737BA10309036B4B73A32B9 PUSH1 0x61 SHL PUSH1 0x44 DUP3 ADD MSTORE PUSH1 0x64 ADD PUSH2 0x70E JUMP JUMPDEST PUSH1 0x0 PUSH2 0x9CB PUSH1 0x1 SLOAD PUSH1 0x0 SLOAD PUSH1 0x0 NOT SWAP2 SWAP1 SUB ADD SWAP1 JUMP JUMPDEST SWAP1 POP PUSH2 0x457 PUSH2 0x9DA DUP5 DUP4 PUSH2 0x1813 JUMP JUMPDEST GT ISZERO PUSH2 0xA1A JUMPI PUSH1 0x40 MLOAD PUSH3 0x461BCD PUSH1 0xE5 SHL DUP2 MSTORE PUSH1 0x20 PUSH1 0x4 DUP3 ADD MSTORE PUSH1 0xF PUSH1 0x24 DUP3 ADD MSTORE PUSH15 0x4F766572206D617820737570706C79 PUSH1 0x88 SHL PUSH1 0x44 DUP3 ADD MSTORE PUSH1 0x64 ADD PUSH2 0x70E JUMP JUMPDEST PUSH2 0xA24 DUP5 DUP5 PUSH2 0xF91 JUMP JUMPDEST POP POP POP POP JUMP JUMPDEST CALLER PUSH1 0x1 PUSH1 0x1 PUSH1 0xA0 SHL SUB DUP4 AND SUB PUSH2 0xA53 JUMPI PUSH1 0x40 MLOAD PUSH4 0xB06307DB PUSH1 0xE0 SHL DUP2 MSTORE PUSH1 0x4 ADD PUSH1 0x40 MLOAD DUP1 SWAP2 SUB SWAP1 REVERT JUMPDEST CALLER PUSH1 0x0 DUP2 DUP2 MSTORE PUSH1 0x7 PUSH1 0x20 SWAP1 DUP2 MSTORE PUSH1 0x40 DUP1 DUP4 KECCAK256 PUSH1 0x1 PUSH1 0x1 PUSH1 0xA0 SHL SUB DUP8 AND DUP1 DUP6 MSTORE SWAP1 DUP4 MSTORE SWAP3 DUP2 SWAP1 KECCAK256 DUP1 SLOAD PUSH1 0xFF NOT AND DUP7 ISZERO ISZERO SWAP1 DUP2 OR SWAP1 SWAP2 SSTORE SWAP1 MLOAD SWAP1 DUP2 MSTORE SWAP2 SWAP3 SWAP2 PUSH32 0x17307EAB39AB6107E8899845AD3D59BD9653F200F220920489CA2B5937696C31 SWAP2 ADD PUSH2 0x76D JUMP JUMPDEST PUSH2 0xAC3 DUP5 DUP5 DUP5 PUSH2 0x534 JUMP JUMPDEST PUSH1 0x1 PUSH1 0x1 PUSH1 0xA0 SHL SUB DUP4 AND EXTCODESIZE ISZERO PUSH2 0xA24 JUMPI PUSH2 0xADF DUP5 DUP5 DUP5 DUP5 PUSH2 0xFAB JUMP JUMPDEST PUSH2 0xA24 JUMPI PUSH1 0x40 MLOAD PUSH4 0x68D2BF6B PUSH1 0xE1 SHL DUP2 MSTORE PUSH1 0x4 ADD PUSH1 0x40 MLOAD DUP1 SWAP2 SUB SWAP1 REVERT JUMPDEST PUSH1 0xB DUP1 SLOAD PUSH2 0xB09 SWAP1 PUSH2 0x1659 JUMP JUMPDEST DUP1 PUSH1 0x1F ADD PUSH1 0x20 DUP1 SWAP2 DIV MUL PUSH1 0x20 ADD PUSH1 0x40 MLOAD SWAP1 DUP2 ADD PUSH1 0x40 MSTORE DUP1 SWAP3 SWAP2 SWAP1 DUP2 DUP2 MSTORE PUSH1 0x20 ADD DUP3 DUP1 SLOAD PUSH2 0xB35 SWAP1 PUSH2 0x1659 JUMP JUMPDEST DUP1 ISZERO PUSH2 0xB82 JUMPI DUP1 PUSH1 0x1F LT PUSH2 0xB57 JUMPI PUSH2 0x100 DUP1 DUP4 SLOAD DIV MUL DUP4 MSTORE SWAP2 PUSH1 0x20 ADD SWAP2 PUSH2 0xB82 JUMP JUMPDEST DUP3 ADD SWAP2 SWAP1 PUSH1 0x0 MSTORE PUSH1 0x20 PUSH1 0x0 KECCAK256 SWAP1 JUMPDEST DUP2 SLOAD DUP2 MSTORE SWAP1 PUSH1 0x1 ADD SWAP1 PUSH1 0x20 ADD DUP1 DUP4 GT PUSH2 0xB65 JUMPI DUP3 SWAP1 SUB PUSH1 0x1F AND DUP3 ADD SWAP2 JUMPDEST POP POP POP POP POP DUP2 JUMP JUMPDEST PUSH1 0x60 PUSH2 0xB95 DUP3 PUSH2 0xD3E JUMP JUMPDEST PUSH2 0xBF9 JUMPI PUSH1 0x40 MLOAD PUSH3 0x461BCD PUSH1 0xE5 SHL DUP2 MSTORE PUSH1 0x20 PUSH1 0x4 DUP3 ADD MSTORE PUSH1 0x2F PUSH1 0x24 DUP3 ADD MSTORE PUSH32 0x4552433732314D657461646174613A2055524920717565727920666F72206E6F PUSH1 0x44 DUP3 ADD MSTORE PUSH15 0x3732BC34B9BA32B73A103A37B5B2B7 PUSH1 0x89 SHL PUSH1 0x64 DUP3 ADD MSTORE PUSH1 0x84 ADD PUSH2 0x70E JUMP JUMPDEST PUSH1 0x0 PUSH2 0xC03 PUSH2 0x1097 JUMP JUMPDEST SWAP1 POP PUSH1 0x0 DUP2 MLOAD GT PUSH2 0xC23 JUMPI PUSH1 0x40 MLOAD DUP1 PUSH1 0x20 ADD PUSH1 0x40 MSTORE DUP1 PUSH1 0x0 DUP2 MSTORE POP PUSH2 0xC51 JUMP JUMPDEST DUP1 PUSH2 0xC2D DUP5 PUSH2 0x10A6 JUMP JUMPDEST PUSH1 0xB PUSH1 0x40 MLOAD PUSH1 0x20 ADD PUSH2 0xC41 SWAP4 SWAP3 SWAP2 SWAP1 PUSH2 0x182B JUMP JUMPDEST PUSH1 0x40 MLOAD PUSH1 0x20 DUP2 DUP4 SUB SUB DUP2 MSTORE SWAP1 PUSH1 0x40 MSTORE JUMPDEST SWAP4 SWAP3 POP POP POP JUMP JUMPDEST PUSH1 0x8 SLOAD PUSH1 0x1 PUSH1 0x1 PUSH1 0xA0 SHL SUB AND CALLER EQ PUSH2 0xC82 JUMPI PUSH1 0x40 MLOAD PUSH3 0x461BCD PUSH1 0xE5 SHL DUP2 MSTORE PUSH1 0x4 ADD PUSH2 0x70E SWAP1 PUSH2 0x1693 JUMP JUMPDEST PUSH1 0x1 PUSH1 0x1 PUSH1 0xA0 SHL SUB DUP2 AND PUSH2 0xCE7 JUMPI PUSH1 0x40 MLOAD PUSH3 0x461BCD PUSH1 0xE5 SHL DUP2 MSTORE PUSH1 0x20 PUSH1 0x4 DUP3 ADD MSTORE PUSH1 0x26 PUSH1 0x24 DUP3 ADD MSTORE PUSH32 0x4F776E61626C653A206E6577206F776E657220697320746865207A65726F2061 PUSH1 0x44 DUP3 ADD MSTORE PUSH6 0x646472657373 PUSH1 0xD0 SHL PUSH1 0x64 DUP3 ADD MSTORE PUSH1 0x84 ADD PUSH2 0x70E JUMP JUMPDEST PUSH2 0x7A4 DUP2 PUSH2 0xF3F JUMP JUMPDEST PUSH1 0x0 PUSH4 0x1FFC9A7 PUSH1 0xE0 SHL PUSH1 0x1 PUSH1 0x1 PUSH1 0xE0 SHL SUB NOT DUP4 AND EQ DUP1 PUSH2 0xD21 JUMPI POP PUSH4 0x80AC58CD PUSH1 0xE0 SHL PUSH1 0x1 PUSH1 0x1 PUSH1 0xE0 SHL SUB NOT DUP4 AND EQ JUMPDEST DUP1 PUSH2 0x3B8 JUMPI POP POP PUSH1 0x1 PUSH1 0x1 PUSH1 0xE0 SHL SUB NOT AND PUSH4 0x5B5E139F PUSH1 0xE0 SHL EQ SWAP1 JUMP JUMPDEST PUSH1 0x0 DUP2 PUSH1 0x1 GT ISZERO DUP1 ISZERO PUSH2 0xD52 JUMPI POP PUSH1 0x0 SLOAD DUP3 LT JUMPDEST DUP1 ISZERO PUSH2 0x3B8 JUMPI POP POP PUSH1 0x0 SWAP1 DUP2 MSTORE PUSH1 0x4 PUSH1 0x20 MSTORE PUSH1 0x40 SWAP1 KECCAK256 SLOAD PUSH1 0x1 PUSH1 0xE0 SHL AND ISZERO SWAP1 JUMP JUMPDEST PUSH1 0x0 DUP2 DUP1 PUSH1 0x1 GT PUSH2 0xDC9 JUMPI PUSH1 0x0 SLOAD DUP2 LT ISZERO PUSH2 0xDC9 JUMPI PUSH1 0x0 DUP2 DUP2 MSTORE PUSH1 0x4 PUSH1 0x20 MSTORE PUSH1 0x40 DUP2 KECCAK256 SLOAD SWAP1 PUSH1 0x1 PUSH1 0xE0 SHL DUP3 AND SWAP1 SUB PUSH2 0xDC7 JUMPI JUMPDEST DUP1 PUSH1 0x0 SUB PUSH2 0xC51 JUMPI POP PUSH1 0x0 NOT ADD PUSH1 0x0 DUP2 DUP2 MSTORE PUSH1 0x4 PUSH1 0x20 MSTORE PUSH1 0x40 SWAP1 KECCAK256 SLOAD PUSH2 0xDA6 JUMP JUMPDEST POP JUMPDEST PUSH1 0x40 MLOAD PUSH4 0x6F96CDA1 PUSH1 0xE1 SHL DUP2 MSTORE PUSH1 0x4 ADD PUSH1 0x40 MLOAD DUP1 SWAP2 SUB SWAP1 REVERT JUMPDEST PUSH2 0xA24 JUMP JUMPDEST PUSH1 0x0 PUSH2 0xDF2 DUP4 PUSH2 0xD73 JUMP JUMPDEST SWAP1 POP DUP1 PUSH1 0x0 DUP1 PUSH2 0xE10 DUP7 PUSH1 0x0 SWAP1 DUP2 MSTORE PUSH1 0x6 PUSH1 0x20 MSTORE PUSH1 0x40 SWAP1 KECCAK256 DUP1 SLOAD SWAP1 SWAP2 JUMP JUMPDEST SWAP2 POP SWAP2 POP DUP5 ISZERO PUSH2 0xE50 JUMPI PUSH2 0xE25 DUP2 DUP5 CALLER PUSH2 0x589 JUMP JUMPDEST PUSH2 0xE50 JUMPI PUSH2 0xE33 DUP4 CALLER PUSH2 0x36C JUMP JUMPDEST PUSH2 0xE50 JUMPI PUSH1 0x40 MLOAD PUSH4 0x2CE44B5F PUSH1 0xE1 SHL DUP2 MSTORE PUSH1 0x4 ADD PUSH1 0x40 MLOAD DUP1 SWAP2 SUB SWAP1 REVERT JUMPDEST PUSH2 0xE5E DUP4 PUSH1 0x0 DUP9 PUSH1 0x1 PUSH2 0xDE2 JUMP JUMPDEST DUP1 ISZERO PUSH2 0xE69 JUMPI PUSH1 0x0 DUP3 SSTORE JUMPDEST PUSH1 0x1 PUSH1 0x1 PUSH1 0xA0 SHL SUB DUP4 AND PUSH1 0x0 DUP2 DUP2 MSTORE PUSH1 0x5 PUSH1 0x20 MSTORE PUSH1 0x40 SWAP1 KECCAK256 DUP1 SLOAD PUSH16 0xFFFFFFFFFFFFFFFFFFFFFFFFFFFFFFFF ADD SWAP1 SSTORE TIMESTAMP PUSH1 0xA0 SHL OR PUSH1 0x3 PUSH1 0xE0 SHL OR PUSH1 0x0 DUP8 DUP2 MSTORE PUSH1 0x4 PUSH1 0x20 MSTORE PUSH1 0x40 DUP2 KECCAK256 SWAP2 SWAP1 SWAP2 SSTORE PUSH1 0x1 PUSH1 0xE1 SHL DUP6 AND SWAP1 SUB PUSH2 0xEF7 JUMPI PUSH1 0x1 DUP7 ADD PUSH1 0x0 DUP2 DUP2 MSTORE PUSH1 0x4 PUSH1 0x20 MSTORE PUSH1 0x40 DUP2 KECCAK256 SLOAD SWAP1 SUB PUSH2 0xEF5 JUMPI PUSH1 0x0 SLOAD DUP2 EQ PUSH2 0xEF5 JUMPI PUSH1 0x0 DUP2 DUP2 MSTORE PUSH1 0x4 PUSH1 0x20 MSTORE PUSH1 0x40 SWAP1 KECCAK256 DUP6 SWAP1 SSTORE JUMPDEST POP JUMPDEST PUSH1 0x40 MLOAD DUP7 SWAP1 PUSH1 0x0 SWAP1 PUSH1 0x1 PUSH1 0x1 PUSH1 0xA0 SHL SUB DUP7 AND SWAP1 PUSH32 0xDDF252AD1BE2C89B69C2B068FC378DAA952BA7F163C4A11628F55A4DF523B3EF SWAP1 DUP4 SWAP1 LOG4 POP POP PUSH1 0x1 DUP1 SLOAD DUP2 ADD SWAP1 SSTORE POP POP POP POP JUMP JUMPDEST PUSH1 0x8 DUP1 SLOAD PUSH1 0x1 PUSH1 0x1 PUSH1 0xA0 SHL SUB DUP4 DUP2 AND PUSH1 0x1 PUSH1 0x1 PUSH1 0xA0 SHL SUB NOT DUP4 AND DUP2 OR SWAP1 SWAP4 SSTORE PUSH1 0x40 MLOAD SWAP2 AND SWAP2 SWAP1 DUP3 SWAP1 PUSH32 0x8BE0079C531659141344CD1FD0A4F28419497F9722A3DAAFE3B4186F6B6457E0 SWAP1 PUSH1 0x0 SWAP1 LOG3 POP POP JUMP JUMPDEST PUSH2 0x8BD DUP3 DUP3 PUSH1 0x40 MLOAD DUP1 PUSH1 0x20 ADD PUSH1 0x40 MSTORE DUP1 PUSH1 0x0 DUP2 MSTORE POP PUSH2 0x11A7 JUMP JUMPDEST PUSH1 0x40 MLOAD PUSH4 0xA85BD01 PUSH1 0xE1 SHL DUP2 MSTORE PUSH1 0x0 SWAP1 PUSH1 0x1 PUSH1 0x1 PUSH1 0xA0 SHL SUB DUP6 AND SWAP1 PUSH4 0x150B7A02 SWAP1 PUSH2 0xFE0 SWAP1 CALLER SWAP1 DUP10 SWAP1 DUP9 SWAP1 DUP9 SWAP1 PUSH1 0x4 ADD PUSH2 0x18CB JUMP JUMPDEST PUSH1 0x20 PUSH1 0x40 MLOAD DUP1 DUP4 SUB DUP2 PUSH1 0x0 DUP8 GAS CALL SWAP3 POP POP POP DUP1 ISZERO PUSH2 0x101B JUMPI POP PUSH1 0x40 DUP1 MLOAD PUSH1 0x1F RETURNDATASIZE SWAP1 DUP2 ADD PUSH1 0x1F NOT AND DUP3 ADD SWAP1 SWAP3 MSTORE PUSH2 0x1018 SWAP2 DUP2 ADD SWAP1 PUSH2 0x1908 JUMP JUMPDEST PUSH1 0x1 JUMPDEST PUSH2 0x1079 JUMPI RETURNDATASIZE DUP1 DUP1 ISZERO PUSH2 0x1049 JUMPI PUSH1 0x40 MLOAD SWAP2 POP PUSH1 0x1F NOT PUSH1 0x3F RETURNDATASIZE ADD AND DUP3 ADD PUSH1 0x40 MSTORE RETURNDATASIZE DUP3 MSTORE RETURNDATASIZE PUSH1 0x0 PUSH1 0x20 DUP5 ADD RETURNDATACOPY PUSH2 0x104E JUMP JUMPDEST PUSH1 0x60 SWAP2 POP JUMPDEST POP DUP1 MLOAD PUSH1 0x0 SUB PUSH2 0x1071 JUMPI PUSH1 0x40 MLOAD PUSH4 0x68D2BF6B PUSH1 0xE1 SHL DUP2 MSTORE PUSH1 0x4 ADD PUSH1 0x40 MLOAD DUP1 SWAP2 SUB SWAP1 REVERT JUMPDEST DUP1 MLOAD DUP2 PUSH1 0x20 ADD REVERT JUMPDEST PUSH1 0x1 PUSH1 0x1 PUSH1 0xE0 SHL SUB NOT AND PUSH4 0xA85BD01 PUSH1 0xE1 SHL EQ SWAP1 POP JUMPDEST SWAP5 SWAP4 POP POP POP POP JUMP JUMPDEST PUSH1 0x60 PUSH1 0xA DUP1 SLOAD PUSH2 0x3CD SWAP1 PUSH2 0x1659 JUMP JUMPDEST PUSH1 0x60 DUP2 PUSH1 0x0 SUB PUSH2 0x10CD JUMPI POP POP PUSH1 0x40 DUP1 MLOAD DUP1 DUP3 ADD SWAP1 SWAP2 MSTORE PUSH1 0x1 DUP2 MSTORE PUSH1 0x3 PUSH1 0xFC SHL PUSH1 0x20 DUP3 ADD MSTORE SWAP1 JUMP JUMPDEST DUP2 PUSH1 0x0 JUMPDEST DUP2 ISZERO PUSH2 0x10F7 JUMPI DUP1 PUSH2 0x10E1 DUP2 PUSH2 0x16F4 JUMP JUMPDEST SWAP2 POP PUSH2 0x10F0 SWAP1 POP PUSH1 0xA DUP4 PUSH2 0x193B JUMP JUMPDEST SWAP2 POP PUSH2 0x10D1 JUMP JUMPDEST PUSH1 0x0 DUP2 PUSH8 0xFFFFFFFFFFFFFFFF DUP2 GT ISZERO PUSH2 0x1112 JUMPI PUSH2 0x1112 PUSH2 0x14D5 JUMP JUMPDEST PUSH1 0x40 MLOAD SWAP1 DUP1 DUP3 MSTORE DUP1 PUSH1 0x1F ADD PUSH1 0x1F NOT AND PUSH1 0x20 ADD DUP3 ADD PUSH1 0x40 MSTORE DUP1 ISZERO PUSH2 0x113C JUMPI PUSH1 0x20 DUP3 ADD DUP2 DUP1 CALLDATASIZE DUP4 CALLDATACOPY ADD SWAP1 POP JUMPDEST POP SWAP1 POP JUMPDEST DUP5 ISZERO PUSH2 0x108F JUMPI PUSH2 0x1151 PUSH1 0x1 DUP4 PUSH2 0x194F JUMP JUMPDEST SWAP2 POP PUSH2 0x115E PUSH1 0xA DUP7 PUSH2 0x1966 JUMP JUMPDEST PUSH2 0x1169 SWAP1 PUSH1 0x30 PUSH2 0x1813 JUMP JUMPDEST PUSH1 0xF8 SHL DUP2 DUP4 DUP2 MLOAD DUP2 LT PUSH2 0x117E JUMPI PUSH2 0x117E PUSH2 0x16C8 JUMP JUMPDEST PUSH1 0x20 ADD ADD SWAP1 PUSH1 0x1 PUSH1 0x1 PUSH1 0xF8 SHL SUB NOT AND SWAP1 DUP2 PUSH1 0x0 BYTE SWAP1 MSTORE8 POP PUSH2 0x11A0 PUSH1 0xA DUP7 PUSH2 0x193B JUMP JUMPDEST SWAP5 POP PUSH2 0x1140 JUMP JUMPDEST PUSH2 0x11B1 DUP4 DUP4 PUSH2 0x1214 JUMP JUMPDEST PUSH1 0x1 PUSH1 0x1 PUSH1 0xA0 SHL SUB DUP4 AND EXTCODESIZE ISZERO PUSH2 0x794 JUMPI PUSH1 0x0 SLOAD DUP3 DUP2 SUB JUMPDEST PUSH2 0x11DB PUSH1 0x0 DUP7 DUP4 DUP1 PUSH1 0x1 ADD SWAP5 POP DUP7 PUSH2 0xFAB JUMP JUMPDEST PUSH2 0x11F8 JUMPI PUSH1 0x40 MLOAD PUSH4 0x68D2BF6B PUSH1 0xE1 SHL DUP2 MSTORE PUSH1 0x4 ADD PUSH1 0x40 MLOAD DUP1 SWAP2 SUB SWAP1 REVERT JUMPDEST DUP2 DUP2 LT PUSH2 0x11C8 JUMPI DUP2 PUSH1 0x0 SLOAD EQ PUSH2 0x120D JUMPI PUSH1 0x0 DUP1 REVERT JUMPDEST POP POP POP POP POP JUMP JUMPDEST PUSH1 0x0 SLOAD PUSH1 0x1 PUSH1 0x1 PUSH1 0xA0 SHL SUB DUP4 AND PUSH2 0x123D JUMPI PUSH1 0x40 MLOAD PUSH3 0x2E0763 PUSH1 0xE8 SHL DUP2 MSTORE PUSH1 0x4 ADD PUSH1 0x40 MLOAD DUP1 SWAP2 SUB SWAP1 REVERT JUMPDEST DUP2 PUSH1 0x0 SUB PUSH2 0x125E JUMPI PUSH1 0x40 MLOAD PUSH4 0xB562E8DD PUSH1 0xE0 SHL DUP2 MSTORE PUSH1 0x4 ADD PUSH1 0x40 MLOAD DUP1 SWAP2 SUB SWAP1 REVERT JUMPDEST PUSH2 0x126B PUSH1 0x0 DUP5 DUP4 DUP6 PUSH2 0xDE2 JUMP JUMPDEST PUSH1 0x1 PUSH1 0x1 PUSH1 0xA0 SHL SUB DUP4 AND PUSH1 0x0 DUP2 DUP2 MSTORE PUSH1 0x5 PUSH1 0x20 MSTORE PUSH1 0x40 SWAP1 KECCAK256 DUP1 SLOAD PUSH9 0x10000000000000001 DUP6 MUL ADD SWAP1 SSTORE TIMESTAMP PUSH1 0xA0 SHL PUSH1 0x1 DUP5 EQ PUSH1 0xE1 SHL OR OR PUSH1 0x0 DUP3 DUP2 MSTORE PUSH1 0x4 PUSH1 0x20 MSTORE PUSH1 0x40 SWAP1 KECCAK256 SSTORE DUP1 DUP3 DUP2 ADD JUMPDEST PUSH1 0x40 MLOAD PUSH1 0x1 DUP4 ADD SWAP3 SWAP1 PUSH1 0x1 PUSH1 0x1 PUSH1 0xA0 SHL SUB DUP8 AND SWAP1 PUSH1 0x0 SWAP1 PUSH32 0xDDF252AD1BE2C89B69C2B068FC378DAA952BA7F163C4A11628F55A4DF523B3EF SWAP1 DUP3 SWAP1 LOG4 DUP1 DUP3 LT PUSH2 0x12B5 JUMPI PUSH1 0x0 SSTORE POP POP POP POP JUMP JUMPDEST PUSH1 0x1 PUSH1 0x1 PUSH1 0xE0 SHL SUB NOT DUP2 AND DUP2 EQ PUSH2 0x7A4 JUMPI PUSH1 0x0 DUP1 REVERT JUMPDEST PUSH1 0x0 PUSH1 0x20 DUP3 DUP5 SUB SLT ISZERO PUSH2 0x1329 JUMPI PUSH1 0x0 DUP1 REVERT JUMPDEST DUP2 CALLDATALOAD PUSH2 0xC51 DUP2 PUSH2 0x1301 JUMP JUMPDEST PUSH1 0x0 JUMPDEST DUP4 DUP2 LT ISZERO PUSH2 0x134F JUMPI DUP2 DUP2 ADD MLOAD DUP4 DUP3 ADD MSTORE PUSH1 0x20 ADD PUSH2 0x1337 JUMP JUMPDEST DUP4 DUP2 GT ISZERO PUSH2 0xA24 JUMPI POP POP PUSH1 0x0 SWAP2 ADD MSTORE JUMP JUMPDEST PUSH1 0x0 DUP2 MLOAD DUP1 DUP5 MSTORE PUSH2 0x1378 DUP2 PUSH1 0x20 DUP7 ADD PUSH1 0x20 DUP7 ADD PUSH2 0x1334 JUMP JUMPDEST PUSH1 0x1F ADD PUSH1 0x1F NOT AND SWAP3 SWAP1 SWAP3 ADD PUSH1 0x20 ADD SWAP3 SWAP2 POP POP JUMP JUMPDEST PUSH1 0x20 DUP2 MSTORE PUSH1 0x0 PUSH2 0xC51 PUSH1 0x20 DUP4 ADD DUP5 PUSH2 0x1360 JUMP JUMPDEST PUSH1 0x0 PUSH1 0x20 DUP3 DUP5 SUB SLT ISZERO PUSH2 0x13B1 JUMPI PUSH1 0x0 DUP1 REVERT JUMPDEST POP CALLDATALOAD SWAP2 SWAP1 POP JUMP JUMPDEST DUP1 CALLDATALOAD PUSH1 0x1 PUSH1 0x1 PUSH1 0xA0 SHL SUB DUP2 AND DUP2 EQ PUSH2 0x13CF JUMPI PUSH1 0x0 DUP1 REVERT JUMPDEST SWAP2 SWAP1 POP JUMP JUMPDEST PUSH1 0x0 DUP1 PUSH1 0x40 DUP4 DUP6 SUB SLT ISZERO PUSH2 0x13E7 JUMPI PUSH1 0x0 DUP1 REVERT JUMPDEST PUSH2 0x13F0 DUP4 PUSH2 0x13B8 JUMP JUMPDEST SWAP5 PUSH1 0x20 SWAP4 SWAP1 SWAP4 ADD CALLDATALOAD SWAP4 POP POP POP JUMP JUMPDEST PUSH1 0x0 DUP1 PUSH1 0x0 PUSH1 0x60 DUP5 DUP7 SUB SLT ISZERO PUSH2 0x1413 JUMPI PUSH1 0x0 DUP1 REVERT JUMPDEST PUSH2 0x141C DUP5 PUSH2 0x13B8 JUMP JUMPDEST SWAP3 POP PUSH2 0x142A PUSH1 0x20 DUP6 ADD PUSH2 0x13B8 JUMP JUMPDEST SWAP2 POP PUSH1 0x40 DUP5 ADD CALLDATALOAD SWAP1 POP SWAP3 POP SWAP3 POP SWAP3 JUMP JUMPDEST PUSH1 0x0 DUP1 PUSH1 0x40 DUP4 DUP6 SUB SLT ISZERO PUSH2 0x144D JUMPI PUSH1 0x0 DUP1 REVERT JUMPDEST PUSH2 0x1456 DUP4 PUSH2 0x13B8 JUMP JUMPDEST SWAP2 POP PUSH1 0x20 DUP4 ADD CALLDATALOAD DUP1 ISZERO ISZERO DUP2 EQ PUSH2 0x146B JUMPI PUSH1 0x0 DUP1 REVERT JUMPDEST DUP1 SWAP2 POP POP SWAP3 POP SWAP3 SWAP1 POP JUMP JUMPDEST PUSH1 0x0 PUSH1 0x20 DUP3 DUP5 SUB SLT ISZERO PUSH2 0x1488 JUMPI PUSH1 0x0 DUP1 REVERT JUMPDEST PUSH2 0xC51 DUP3 PUSH2 0x13B8 JUMP JUMPDEST PUSH1 0x20 DUP1 DUP3 MSTORE DUP3 MLOAD DUP3 DUP3 ADD DUP2 SWAP1 MSTORE PUSH1 0x0 SWAP2 SWAP1 DUP5 DUP3 ADD SWAP1 PUSH1 0x40 DUP6 ADD SWAP1 DUP5 JUMPDEST DUP2 DUP2 LT ISZERO PUSH2 0x14C9 JUMPI DUP4 MLOAD DUP4 MSTORE SWAP3 DUP5 ADD SWAP3 SWAP2 DUP5 ADD SWAP2 PUSH1 0x1 ADD PUSH2 0x14AD JUMP JUMPDEST POP SWAP1 SWAP7 SWAP6 POP POP POP POP POP POP JUMP JUMPDEST PUSH4 0x4E487B71 PUSH1 0xE0 SHL PUSH1 0x0 MSTORE PUSH1 0x41 PUSH1 0x4 MSTORE PUSH1 0x24 PUSH1 0x0 REVERT JUMPDEST PUSH1 0x0 PUSH8 0xFFFFFFFFFFFFFFFF DUP1 DUP5 GT ISZERO PUSH2 0x1506 JUMPI PUSH2 0x1506 PUSH2 0x14D5 JUMP JUMPDEST PUSH1 0x40 MLOAD PUSH1 0x1F DUP6 ADD PUSH1 0x1F NOT SWAP1 DUP2 AND PUSH1 0x3F ADD AND DUP2 ADD SWAP1 DUP3 DUP3 GT DUP2 DUP4 LT OR ISZERO PUSH2 0x152E JUMPI PUSH2 0x152E PUSH2 0x14D5 JUMP JUMPDEST DUP2 PUSH1 0x40 MSTORE DUP1 SWAP4 POP DUP6 DUP2 MSTORE DUP7 DUP7 DUP7 ADD GT ISZERO PUSH2 0x1547 JUMPI PUSH1 0x0 DUP1 REVERT JUMPDEST DUP6 DUP6 PUSH1 0x20 DUP4 ADD CALLDATACOPY PUSH1 0x0 PUSH1 0x20 DUP8 DUP4 ADD ADD MSTORE POP POP POP SWAP4 SWAP3 POP POP POP JUMP JUMPDEST PUSH1 0x0 PUSH1 0x20 DUP3 DUP5 SUB SLT ISZERO PUSH2 0x1573 JUMPI PUSH1 0x0 DUP1 REVERT JUMPDEST DUP2 CALLDATALOAD PUSH8 0xFFFFFFFFFFFFFFFF DUP2 GT ISZERO PUSH2 0x158A JUMPI PUSH1 0x0 DUP1 REVERT JUMPDEST DUP3 ADD PUSH1 0x1F DUP2 ADD DUP5 SGT PUSH2 0x159B JUMPI PUSH1 0x0 DUP1 REVERT JUMPDEST PUSH2 0x108F DUP5 DUP3 CALLDATALOAD PUSH1 0x20 DUP5 ADD PUSH2 0x14EB JUMP JUMPDEST PUSH1 0x0 DUP1 PUSH1 0x0 DUP1 PUSH1 0x80 DUP6 DUP8 SUB SLT ISZERO PUSH2 0x15C0 JUMPI PUSH1 0x0 DUP1 REVERT JUMPDEST PUSH2 0x15C9 DUP6 PUSH2 0x13B8 JUMP JUMPDEST SWAP4 POP PUSH2 0x15D7 PUSH1 0x20 DUP7 ADD PUSH2 0x13B8 JUMP JUMPDEST SWAP3 POP PUSH1 0x40 DUP6 ADD CALLDATALOAD SWAP2 POP PUSH1 0x60 DUP6 ADD CALLDATALOAD PUSH8 0xFFFFFFFFFFFFFFFF DUP2 GT ISZERO PUSH2 0x15FA JUMPI PUSH1 0x0 DUP1 REVERT JUMPDEST DUP6 ADD PUSH1 0x1F DUP2 ADD DUP8 SGT PUSH2 0x160B JUMPI PUSH1 0x0 DUP1 REVERT JUMPDEST PUSH2 0x161A DUP8 DUP3 CALLDATALOAD PUSH1 0x20 DUP5 ADD PUSH2 0x14EB JUMP JUMPDEST SWAP2 POP POP SWAP3 SWAP6 SWAP2 SWAP5 POP SWAP3 POP JUMP JUMPDEST PUSH1 0x0 DUP1 PUSH1 0x40 DUP4 DUP6 SUB SLT ISZERO PUSH2 0x1639 JUMPI PUSH1 0x0 DUP1 REVERT JUMPDEST PUSH2 0x1642 DUP4 PUSH2 0x13B8 JUMP JUMPDEST SWAP2 POP PUSH2 0x1650 PUSH1 0x20 DUP5 ADD PUSH2 0x13B8 JUMP JUMPDEST SWAP1 POP SWAP3 POP SWAP3 SWAP1 POP JUMP JUMPDEST PUSH1 0x1 DUP2 DUP2 SHR SWAP1 DUP3 AND DUP1 PUSH2 0x166D JUMPI PUSH1 0x7F DUP3 AND SWAP2 POP JUMPDEST PUSH1 0x20 DUP3 LT DUP2 SUB PUSH2 0x168D JUMPI PUSH4 0x4E487B71 PUSH1 0xE0 SHL PUSH1 0x0 MSTORE PUSH1 0x22 PUSH1 0x4 MSTORE PUSH1 0x24 PUSH1 0x0 REVERT JUMPDEST POP SWAP2 SWAP1 POP JUMP JUMPDEST PUSH1 0x20 DUP1 DUP3 MSTORE DUP2 DUP2 ADD MSTORE PUSH32 0x4F776E61626C653A2063616C6C6572206973206E6F7420746865206F776E6572 PUSH1 0x40 DUP3 ADD MSTORE PUSH1 0x60 ADD SWAP1 JUMP JUMPDEST PUSH4 0x4E487B71 PUSH1 0xE0 SHL PUSH1 0x0 MSTORE PUSH1 0x32 PUSH1 0x4 MSTORE PUSH1 0x24 PUSH1 0x0 REVERT JUMPDEST PUSH4 0x4E487B71 PUSH1 0xE0 SHL PUSH1 0x0 MSTORE PUSH1 0x11 PUSH1 0x4 MSTORE PUSH1 0x24 PUSH1 0x0 REVERT JUMPDEST PUSH1 0x0 PUSH1 0x1 DUP3 ADD PUSH2 0x1706 JUMPI PUSH2 0x1706 PUSH2 0x16DE JUMP JUMPDEST POP PUSH1 0x1 ADD SWAP1 JUMP JUMPDEST PUSH1 0x1F DUP3 GT ISZERO PUSH2 0x794 JUMPI PUSH1 0x0 DUP2 DUP2 MSTORE PUSH1 0x20 DUP2 KECCAK256 PUSH1 0x1F DUP6 ADD PUSH1 0x5 SHR DUP2 ADD PUSH1 0x20 DUP7 LT ISZERO PUSH2 0x1734 JUMPI POP DUP1 JUMPDEST PUSH1 0x1F DUP6 ADD PUSH1 0x5 SHR DUP3 ADD SWAP2 POP JUMPDEST DUP2 DUP2 LT ISZERO PUSH2 0x6DC JUMPI DUP3 DUP2 SSTORE PUSH1 0x1 ADD PUSH2 0x1740 JUMP JUMPDEST DUP2 MLOAD PUSH8 0xFFFFFFFFFFFFFFFF DUP2 GT ISZERO PUSH2 0x176D JUMPI PUSH2 0x176D PUSH2 0x14D5 JUMP JUMPDEST PUSH2 0x1781 DUP2 PUSH2 0x177B DUP5 SLOAD PUSH2 0x1659 JUMP JUMPDEST DUP5 PUSH2 0x170D JUMP JUMPDEST PUSH1 0x20 DUP1 PUSH1 0x1F DUP4 GT PUSH1 0x1 DUP2 EQ PUSH2 0x17B6 JUMPI PUSH1 0x0 DUP5 ISZERO PUSH2 0x179E JUMPI POP DUP6 DUP4 ADD MLOAD JUMPDEST PUSH1 0x0 NOT PUSH1 0x3 DUP7 SWAP1 SHL SHR NOT AND PUSH1 0x1 DUP6 SWAP1 SHL OR DUP6 SSTORE PUSH2 0x6DC JUMP JUMPDEST PUSH1 0x0 DUP6 DUP2 MSTORE PUSH1 0x20 DUP2 KECCAK256 PUSH1 0x1F NOT DUP7 AND SWAP2 JUMPDEST DUP3 DUP2 LT ISZERO PUSH2 0x17E5 JUMPI DUP9 DUP7 ADD MLOAD DUP3 SSTORE SWAP5 DUP5 ADD SWAP5 PUSH1 0x1 SWAP1 SWAP2 ADD SWAP1 DUP5 ADD PUSH2 0x17C6 JUMP JUMPDEST POP DUP6 DUP3 LT ISZERO PUSH2 0x1803 JUMPI DUP8 DUP6 ADD MLOAD PUSH1 0x0 NOT PUSH1 0x3 DUP9 SWAP1 SHL PUSH1 0xF8 AND SHR NOT AND DUP2 SSTORE JUMPDEST POP POP POP POP POP PUSH1 0x1 SWAP1 DUP2 SHL ADD SWAP1 SSTORE POP JUMP JUMPDEST PUSH1 0x0 DUP3 NOT DUP3 GT ISZERO PUSH2 0x1826 JUMPI PUSH2 0x1826 PUSH2 0x16DE JUMP JUMPDEST POP ADD SWAP1 JUMP JUMPDEST PUSH1 0x0 DUP5 MLOAD PUSH1 0x20 PUSH2 0x183E DUP3 DUP6 DUP4 DUP11 ADD PUSH2 0x1334 JUMP JUMPDEST DUP6 MLOAD SWAP2 DUP5 ADD SWAP2 PUSH2 0x1851 DUP2 DUP5 DUP5 DUP11 ADD PUSH2 0x1334 JUMP JUMPDEST DUP6 SLOAD SWAP3 ADD SWAP2 PUSH1 0x0 SWAP1 PUSH2 0x1862 DUP2 PUSH2 0x1659 JUMP JUMPDEST PUSH1 0x1 DUP3 DUP2 AND DUP1 ISZERO PUSH2 0x187A JUMPI PUSH1 0x1 DUP2 EQ PUSH2 0x188F JUMPI PUSH2 0x18BB JUMP JUMPDEST PUSH1 0xFF NOT DUP5 AND DUP8 MSTORE DUP3 ISZERO ISZERO DUP4 MUL DUP8 ADD SWAP5 POP PUSH2 0x18BB JUMP JUMPDEST DUP10 PUSH1 0x0 MSTORE DUP6 PUSH1 0x0 KECCAK256 PUSH1 0x0 JUMPDEST DUP5 DUP2 LT ISZERO PUSH2 0x18B3 JUMPI DUP2 SLOAD DUP10 DUP3 ADD MSTORE SWAP1 DUP4 ADD SWAP1 DUP8 ADD PUSH2 0x189A JUMP JUMPDEST POP POP DUP3 DUP8 ADD SWAP5 POP JUMPDEST POP SWAP3 SWAP11 SWAP10 POP POP POP POP POP POP POP POP POP POP JUMP JUMPDEST PUSH1 0x1 PUSH1 0x1 PUSH1 0xA0 SHL SUB DUP6 DUP2 AND DUP3 MSTORE DUP5 AND PUSH1 0x20 DUP3 ADD MSTORE PUSH1 0x40 DUP2 ADD DUP4 SWAP1 MSTORE PUSH1 0x80 PUSH1 0x60 DUP3 ADD DUP2 SWAP1 MSTORE PUSH1 0x0 SWAP1 PUSH2 0x18FE SWAP1 DUP4 ADD DUP5 PUSH2 0x1360 JUMP JUMPDEST SWAP7 SWAP6 POP POP POP POP POP POP JUMP JUMPDEST PUSH1 0x0 PUSH1 0x20 DUP3 DUP5 SUB SLT ISZERO PUSH2 0x191A JUMPI PUSH1 0x0 DUP1 REVERT JUMPDEST DUP2 MLOAD PUSH2 0xC51 DUP2 PUSH2 0x1301 JUMP JUMPDEST PUSH4 0x4E487B71 PUSH1 0xE0 SHL PUSH1 0x0 MSTORE PUSH1 0x12 PUSH1 0x4 MSTORE PUSH1 0x24 PUSH1 0x0 REVERT JUMPDEST PUSH1 0x0 DUP3 PUSH2 0x194A JUMPI PUSH2 0x194A PUSH2 0x1925 JUMP JUMPDEST POP DIV SWAP1 JUMP JUMPDEST PUSH1 0x0 DUP3 DUP3 LT ISZERO PUSH2 0x1961 JUMPI PUSH2 0x1961 PUSH2 0x16DE JUMP JUMPDEST POP SUB SWAP1 JUMP JUMPDEST PUSH1 0x0 DUP3 PUSH2 0x1975 JUMPI PUSH2 0x1975 PUSH2 0x1925 JUMP JUMPDEST POP MOD SWAP1 JUMP INVALID LOG2 PUSH5 0x6970667358 0x22 SLT KECCAK256 0xC8 CALLDATACOPY KECCAK256 0xCE PUSH30 0xFE232AB50B9B2CD7E1E6C38FAF6D788AFAADBF1BD50C3AF731B67364736F PUSH13 0x634300080F00334F776E61626C PUSH6 0x3A2063616C6C PUSH6 0x72206973206E PUSH16 0x7420746865206F776E65720000000000 "
				},
				"gasEstimates": {
					"creation": {
						"codeDepositCost": "1315200",
						"executionCost": "infinite",
						"totalCost": "infinite"
					},
					"external": {
						"approve(address,uint256)": "infinite",
						"balanceOf(address)": "2618",
						"baseExtension()": "infinite",
						"burn(uint256)": "infinite",
						"getApproved(uint256)": "6959",
						"isApprovedForAll(address,address)": "infinite",
						"isMinter(address)": "2583",
						"maxSupply()": "261",
						"name()": "infinite",
						"owner()": "2398",
						"ownerOf(uint256)": "infinite",
						"renounceOwnership()": "28162",
						"safeMint(address,uint256)": "infinite",
						"safeTransferFrom(address,address,uint256)": "infinite",
						"safeTransferFrom(address,address,uint256,bytes)": "infinite",
						"setAllowMinter(address,bool)": "28677",
						"setApprovalForAll(address,bool)": "26770",
						"setBaseURI(string)": "infinite",
						"supportsInterface(bytes4)": "565",
						"symbol()": "infinite",
						"tokenURI(uint256)": "infinite",
						"totalSupply()": "4508",
						"transferFrom(address,address,uint256)": "infinite",
						"transferOwnership(address)": "28422",
						"walletOfOwner(address)": "infinite"
					},
					"internal": {
						"_baseURI()": "infinite",
						"_beforeTokenTransfers(address,address,uint256,uint256)": "29",
						"_startTokenId()": "infinite"
					}
				},
				"methodIdentifiers": {
					"approve(address,uint256)": "095ea7b3",
					"balanceOf(address)": "70a08231",
					"baseExtension()": "c6682862",
					"burn(uint256)": "42966c68",
					"getApproved(uint256)": "081812fc",
					"isApprovedForAll(address,address)": "e985e9c5",
					"isMinter(address)": "aa271e1a",
					"maxSupply()": "d5abeb01",
					"name()": "06fdde03",
					"owner()": "8da5cb5b",
					"ownerOf(uint256)": "6352211e",
					"renounceOwnership()": "715018a6",
					"safeMint(address,uint256)": "a1448194",
					"safeTransferFrom(address,address,uint256)": "42842e0e",
					"safeTransferFrom(address,address,uint256,bytes)": "b88d4fde",
					"setAllowMinter(address,bool)": "3c713026",
					"setApprovalForAll(address,bool)": "a22cb465",
					"setBaseURI(string)": "55f804b3",
					"supportsInterface(bytes4)": "01ffc9a7",
					"symbol()": "95d89b41",
					"tokenURI(uint256)": "c87b56dd",
					"totalSupply()": "18160ddd",
					"transferFrom(address,address,uint256)": "23b872dd",
					"transferOwnership(address)": "f2fde38b",
					"walletOfOwner(address)": "438b6300"
				}
			},
			"storageLayout": {
				"storage": [
					{
						"astId": 736,
						"contract": "ERC721A/NagaKidsERC721A.sol:NagaKids",
						"label": "_currentIndex",
						"offset": 0,
						"slot": "0",
						"type": "t_uint256"
					},
					{
						"astId": 738,
						"contract": "ERC721A/NagaKidsERC721A.sol:NagaKids",
						"label": "_burnCounter",
						"offset": 0,
						"slot": "1",
						"type": "t_uint256"
					},
					{
						"astId": 740,
						"contract": "ERC721A/NagaKidsERC721A.sol:NagaKids",
						"label": "_name",
						"offset": 0,
						"slot": "2",
						"type": "t_string_storage"
					},
					{
						"astId": 742,
						"contract": "ERC721A/NagaKidsERC721A.sol:NagaKids",
						"label": "_symbol",
						"offset": 0,
						"slot": "3",
						"type": "t_string_storage"
					},
					{
						"astId": 746,
						"contract": "ERC721A/NagaKidsERC721A.sol:NagaKids",
						"label": "_packedOwnerships",
						"offset": 0,
						"slot": "4",
						"type": "t_mapping(t_uint256,t_uint256)"
					},
					{
						"astId": 750,
						"contract": "ERC721A/NagaKidsERC721A.sol:NagaKids",
						"label": "_packedAddressData",
						"offset": 0,
						"slot": "5",
						"type": "t_mapping(t_address,t_uint256)"
					},
					{
						"astId": 754,
						"contract": "ERC721A/NagaKidsERC721A.sol:NagaKids",
						"label": "_tokenApprovals",
						"offset": 0,
						"slot": "6",
						"type": "t_mapping(t_uint256,t_address)"
					},
					{
						"astId": 760,
						"contract": "ERC721A/NagaKidsERC721A.sol:NagaKids",
						"label": "_operatorApprovals",
						"offset": 0,
						"slot": "7",
						"type": "t_mapping(t_address,t_mapping(t_address,t_bool))"
					},
					{
						"astId": 7,
						"contract": "ERC721A/NagaKidsERC721A.sol:NagaKids",
						"label": "_owner",
						"offset": 0,
						"slot": "8",
						"type": "t_address"
					},
					{
						"astId": 347,
						"contract": "ERC721A/NagaKidsERC721A.sol:NagaKids",
						"label": "_allowMinter",
						"offset": 0,
						"slot": "9",
						"type": "t_mapping(t_address,t_bool)"
					},
					{
						"astId": 349,
						"contract": "ERC721A/NagaKidsERC721A.sol:NagaKids",
						"label": "baseURI",
						"offset": 0,
						"slot": "10",
						"type": "t_string_storage"
					},
					{
						"astId": 352,
						"contract": "ERC721A/NagaKidsERC721A.sol:NagaKids",
						"label": "baseExtension",
						"offset": 0,
						"slot": "11",
						"type": "t_string_storage"
					}
				],
				"types": {
					"t_address": {
						"encoding": "inplace",
						"label": "address",
						"numberOfBytes": "20"
					},
					"t_bool": {
						"encoding": "inplace",
						"label": "bool",
						"numberOfBytes": "1"
					},
					"t_mapping(t_address,t_bool)": {
						"encoding": "mapping",
						"key": "t_address",
						"label": "mapping(address => bool)",
						"numberOfBytes": "32",
						"value": "t_bool"
					},
					"t_mapping(t_address,t_mapping(t_address,t_bool))": {
						"encoding": "mapping",
						"key": "t_address",
						"label": "mapping(address => mapping(address => bool))",
						"numberOfBytes": "32",
						"value": "t_mapping(t_address,t_bool)"
					},
					"t_mapping(t_address,t_uint256)": {
						"encoding": "mapping",
						"key": "t_address",
						"label": "mapping(address => uint256)",
						"numberOfBytes": "32",
						"value": "t_uint256"
					},
					"t_mapping(t_uint256,t_address)": {
						"encoding": "mapping",
						"key": "t_uint256",
						"label": "mapping(uint256 => address)",
						"numberOfBytes": "32",
						"value": "t_address"
					},
					"t_mapping(t_uint256,t_uint256)": {
						"encoding": "mapping",
						"key": "t_uint256",
						"label": "mapping(uint256 => uint256)",
						"numberOfBytes": "32",
						"value": "t_uint256"
					},
					"t_string_storage": {
						"encoding": "bytes",
						"label": "string",
						"numberOfBytes": "32"
					},
					"t_uint256": {
						"encoding": "inplace",
						"label": "uint256",
						"numberOfBytes": "32"
					}
				}
			},
			"userdoc": {
				"errors": {
					"ApprovalCallerNotOwnerNorApproved()": [
						{
							"notice": "The caller must own the token or be an approved operator."
						}
					],
					"ApprovalQueryForNonexistentToken()": [
						{
							"notice": "The token does not exist."
						}
					],
					"ApproveToCaller()": [
						{
							"notice": "The caller cannot approve to their own address."
						}
					],
					"BalanceQueryForZeroAddress()": [
						{
							"notice": "Cannot query the balance for the zero address."
						}
					],
					"MintERC2309QuantityExceedsLimit()": [
						{
							"notice": "The `quantity` minted with ERC2309 exceeds the safety limit."
						}
					],
					"MintToZeroAddress()": [
						{
							"notice": "Cannot mint to the zero address."
						}
					],
					"MintZeroQuantity()": [
						{
							"notice": "The quantity of tokens minted must be more than zero."
						}
					],
					"OwnerQueryForNonexistentToken()": [
						{
							"notice": "The token does not exist."
						}
					],
					"OwnershipNotInitializedForExtraData()": [
						{
							"notice": "The `extraData` cannot be set on an unintialized ownership slot."
						}
					],
					"TransferCallerNotOwnerNorApproved()": [
						{
							"notice": "The caller must own the token or be an approved operator."
						}
					],
					"TransferFromIncorrectOwner()": [
						{
							"notice": "The token must be owned by `from`."
						}
					],
					"TransferToNonERC721ReceiverImplementer()": [
						{
							"notice": "Cannot safely transfer to a contract that does not implement the ERC721Receiver interface."
						}
					],
					"TransferToZeroAddress()": [
						{
							"notice": "Cannot transfer to the zero address."
						}
					],
					"URIQueryForNonexistentToken()": [
						{
							"notice": "The token does not exist."
						}
					]
				},
				"kind": "user",
				"methods": {},
				"version": 1
			}
		}
	}
}