{
	"ERC721A/NagaKidsERC721A.sol": {
		"NagaKids": {
			"abi": [
				{
					"inputs": [
						{
							"internalType": "string",
							"name": "_initBaseURI",
							"type": "string"
						},
						{
							"internalType": "address",
							"name": "_preMintAddress",
							"type": "address"
						}
					],
					"stateMutability": "nonpayable",
					"type": "constructor"
				},
				{
					"inputs": [],
					"name": "ApprovalCallerNotOwnerNorApproved",
					"type": "error"
				},
				{
					"inputs": [],
					"name": "ApprovalQueryForNonexistentToken",
					"type": "error"
				},
				{
					"inputs": [],
					"name": "ApproveToCaller",
					"type": "error"
				},
				{
					"inputs": [],
					"name": "BalanceQueryForZeroAddress",
					"type": "error"
				},
				{
					"inputs": [],
					"name": "MintERC2309QuantityExceedsLimit",
					"type": "error"
				},
				{
					"inputs": [],
					"name": "MintToZeroAddress",
					"type": "error"
				},
				{
					"inputs": [],
					"name": "MintZeroQuantity",
					"type": "error"
				},
				{
					"inputs": [],
					"name": "OwnerQueryForNonexistentToken",
					"type": "error"
				},
				{
					"inputs": [],
					"name": "OwnershipNotInitializedForExtraData",
					"type": "error"
				},
				{
					"inputs": [],
					"name": "TransferCallerNotOwnerNorApproved",
					"type": "error"
				},
				{
					"inputs": [],
					"name": "TransferFromIncorrectOwner",
					"type": "error"
				},
				{
					"inputs": [],
					"name": "TransferToNonERC721ReceiverImplementer",
					"type": "error"
				},
				{
					"inputs": [],
					"name": "TransferToZeroAddress",
					"type": "error"
				},
				{
					"inputs": [],
					"name": "URIQueryForNonexistentToken",
					"type": "error"
				},
				{
					"anonymous": false,
					"inputs": [
						{
							"indexed": true,
							"internalType": "address",
							"name": "owner",
							"type": "address"
						},
						{
							"indexed": true,
							"internalType": "address",
							"name": "approved",
							"type": "address"
						},
						{
							"indexed": true,
							"internalType": "uint256",
							"name": "tokenId",
							"type": "uint256"
						}
					],
					"name": "Approval",
					"type": "event"
				},
				{
					"anonymous": false,
					"inputs": [
						{
							"indexed": true,
							"internalType": "address",
							"name": "owner",
							"type": "address"
						},
						{
							"indexed": true,
							"internalType": "address",
							"name": "operator",
							"type": "address"
						},
						{
							"indexed": false,
							"internalType": "bool",
							"name": "approved",
							"type": "bool"
						}
					],
					"name": "ApprovalForAll",
					"type": "event"
				},
				{
					"anonymous": false,
					"inputs": [
						{
							"indexed": true,
							"internalType": "uint256",
							"name": "fromTokenId",
							"type": "uint256"
						},
						{
							"indexed": false,
							"internalType": "uint256",
							"name": "toTokenId",
							"type": "uint256"
						},
						{
							"indexed": true,
							"internalType": "address",
							"name": "from",
							"type": "address"
						},
						{
							"indexed": true,
							"internalType": "address",
							"name": "to",
							"type": "address"
						}
					],
					"name": "ConsecutiveTransfer",
					"type": "event"
				},
				{
					"anonymous": false,
					"inputs": [
						{
							"indexed": true,
							"internalType": "address",
							"name": "previousOwner",
							"type": "address"
						},
						{
							"indexed": true,
							"internalType": "address",
							"name": "newOwner",
							"type": "address"
						}
					],
					"name": "OwnershipTransferred",
					"type": "event"
				},
				{
					"anonymous": false,
					"inputs": [
						{
							"indexed": true,
							"internalType": "address",
							"name": "caller",
							"type": "address"
						},
						{
							"indexed": true,
							"internalType": "address",
							"name": "minter",
							"type": "address"
						},
						{
							"indexed": false,
							"internalType": "bool",
							"name": "allowed",
							"type": "bool"
						}
					],
					"name": "SetAllowMinter",
					"type": "event"
				},
				{
					"anonymous": false,
					"inputs": [
						{
							"indexed": true,
							"internalType": "address",
							"name": "from",
							"type": "address"
						},
						{
							"indexed": true,
							"internalType": "address",
							"name": "to",
							"type": "address"
						},
						{
							"indexed": true,
							"internalType": "uint256",
							"name": "tokenId",
							"type": "uint256"
						}
					],
					"name": "Transfer",
					"type": "event"
				},
				{
					"inputs": [
						{
							"internalType": "address",
							"name": "to",
							"type": "address"
						},
						{
							"internalType": "uint256",
							"name": "tokenId",
							"type": "uint256"
						}
					],
					"name": "approve",
					"outputs": [],
					"stateMutability": "nonpayable",
					"type": "function"
				},
				{
					"inputs": [
						{
							"internalType": "address",
							"name": "owner",
							"type": "address"
						}
					],
					"name": "balanceOf",
					"outputs": [
						{
							"internalType": "uint256",
							"name": "",
							"type": "uint256"
						}
					],
					"stateMutability": "view",
					"type": "function"
				},
				{
					"inputs": [],
					"name": "baseExtension",
					"outputs": [
						{
							"internalType": "string",
							"name": "",
							"type": "string"
						}
					],
					"stateMutability": "view",
					"type": "function"
				},
				{
					"inputs": [
						{
							"internalType": "uint256",
							"name": "tokenId",
							"type": "uint256"
						}
					],
					"name": "burn",
					"outputs": [],
					"stateMutability": "nonpayable",
					"type": "function"
				},
				{
					"inputs": [
						{
							"internalType": "uint256",
							"name": "tokenId",
							"type": "uint256"
						}
					],
					"name": "getApproved",
					"outputs": [
						{
							"internalType": "address",
							"name": "",
							"type": "address"
						}
					],
					"stateMutability": "view",
					"type": "function"
				},
				{
					"inputs": [
						{
							"internalType": "address",
							"name": "owner",
							"type": "address"
						},
						{
							"internalType": "address",
							"name": "operator",
							"type": "address"
						}
					],
					"name": "isApprovedForAll",
					"outputs": [
						{
							"internalType": "bool",
							"name": "",
							"type": "bool"
						}
					],
					"stateMutability": "view",
					"type": "function"
				},
				{
					"inputs": [
						{
							"internalType": "address",
							"name": "minter",
							"type": "address"
						}
					],
					"name": "isMinter",
					"outputs": [
						{
							"internalType": "bool",
							"name": "",
							"type": "bool"
						}
					],
					"stateMutability": "view",
					"type": "function"
				},
				{
					"inputs": [],
					"name": "maxSupply",
					"outputs": [
						{
							"internalType": "uint256",
							"name": "",
							"type": "uint256"
						}
					],
					"stateMutability": "view",
					"type": "function"
				},
				{
					"inputs": [],
					"name": "name",
					"outputs": [
						{
							"internalType": "string",
							"name": "",
							"type": "string"
						}
					],
					"stateMutability": "view",
					"type": "function"
				},
				{
					"inputs": [],
					"name": "owner",
					"outputs": [
						{
							"internalType": "address",
							"name": "",
							"type": "address"
						}
					],
					"stateMutability": "view",
					"type": "function"
				},
				{
					"inputs": [
						{
							"internalType": "uint256",
							"name": "tokenId",
							"type": "uint256"
						}
					],
					"name": "ownerOf",
					"outputs": [
						{
							"internalType": "address",
							"name": "",
							"type": "address"
						}
					],
					"stateMutability": "view",
					"type": "function"
				},
				{
					"inputs": [],
					"name": "renounceOwnership",
					"outputs": [],
					"stateMutability": "nonpayable",
					"type": "function"
				},
				{
					"inputs": [
						{
							"internalType": "address",
							"name": "to",
							"type": "address"
						},
						{
							"internalType": "uint256",
							"name": "amount",
							"type": "uint256"
						}
					],
					"name": "safeMint",
					"outputs": [],
					"stateMutability": "nonpayable",
					"type": "function"
				},
				{
					"inputs": [
						{
							"internalType": "address",
							"name": "from",
							"type": "address"
						},
						{
							"internalType": "address",
							"name": "to",
							"type": "address"
						},
						{
							"internalType": "uint256",
							"name": "tokenId",
							"type": "uint256"
						}
					],
					"name": "safeTransferFrom",
					"outputs": [],
					"stateMutability": "nonpayable",
					"type": "function"
				},
				{
					"inputs": [
						{
							"internalType": "address",
							"name": "from",
							"type": "address"
						},
						{
							"internalType": "address",
							"name": "to",
							"type": "address"
						},
						{
							"internalType": "uint256",
							"name": "tokenId",
							"type": "uint256"
						},
						{
							"internalType": "bytes",
							"name": "_data",
							"type": "bytes"
						}
					],
					"name": "safeTransferFrom",
					"outputs": [],
					"stateMutability": "nonpayable",
					"type": "function"
				},
				{
					"inputs": [
						{
							"internalType": "address",
							"name": "minter",
							"type": "address"
						},
						{
							"internalType": "bool",
							"name": "allowed",
							"type": "bool"
						}
					],
					"name": "setAllowMinter",
					"outputs": [],
					"stateMutability": "nonpayable",
					"type": "function"
				},
				{
					"inputs": [
						{
							"internalType": "address",
							"name": "operator",
							"type": "address"
						},
						{
							"internalType": "bool",
							"name": "approved",
							"type": "bool"
						}
					],
					"name": "setApprovalForAll",
					"outputs": [],
					"stateMutability": "nonpayable",
					"type": "function"
				},
				{
					"inputs": [
						{
							"internalType": "string",
							"name": "newBaseURI",
							"type": "string"
						}
					],
					"name": "setBaseURI",
					"outputs": [],
					"stateMutability": "nonpayable",
					"type": "function"
				},
				{
					"inputs": [
						{
							"internalType": "bytes4",
							"name": "interfaceId",
							"type": "bytes4"
						}
					],
					"name": "supportsInterface",
					"outputs": [
						{
							"internalType": "bool",
							"name": "",
							"type": "bool"
						}
					],
					"stateMutability": "view",
					"type": "function"
				},
				{
					"inputs": [],
					"name": "symbol",
					"outputs": [
						{
							"internalType": "string",
							"name": "",
							"type": "string"
						}
					],
					"stateMutability": "view",
					"type": "function"
				},
				{
					"inputs": [
						{
							"internalType": "uint256",
							"name": "tokenId",
							"type": "uint256"
						}
					],
					"name": "tokenURI",
					"outputs": [
						{
							"internalType": "string",
							"name": "",
							"type": "string"
						}
					],
					"stateMutability": "view",
					"type": "function"
				},
				{
					"inputs": [],
					"name": "totalSupply",
					"outputs": [
						{
							"internalType": "uint256",
							"name": "",
							"type": "uint256"
						}
					],
					"stateMutability": "view",
					"type": "function"
				},
				{
					"inputs": [
						{
							"internalType": "address",
							"name": "from",
							"type": "address"
						},
						{
							"internalType": "address",
							"name": "to",
							"type": "address"
						},
						{
							"internalType": "uint256",
							"name": "tokenId",
							"type": "uint256"
						}
					],
					"name": "transferFrom",
					"outputs": [],
					"stateMutability": "nonpayable",
					"type": "function"
				},
				{
					"inputs": [
						{
							"internalType": "address",
							"name": "newOwner",
							"type": "address"
						}
					],
					"name": "transferOwnership",
					"outputs": [],
					"stateMutability": "nonpayable",
					"type": "function"
				}
			],
			"devdoc": {
				"kind": "dev",
				"methods": {
					"approve(address,uint256)": {
						"details": "See {IERC721-approve}."
					},
					"balanceOf(address)": {
						"details": "See {IERC721-balanceOf}."
					},
					"burn(uint256)": {
						"details": "Burns `tokenId`. See {ERC721A-_burn}. Requirements: - The caller must own `tokenId` or be an approved operator."
					},
					"getApproved(uint256)": {
						"details": "See {IERC721-getApproved}."
					},
					"isApprovedForAll(address,address)": {
						"details": "See {IERC721-isApprovedForAll}."
					},
					"name()": {
						"details": "See {IERC721Metadata-name}."
					},
					"owner()": {
						"details": "Returns the address of the current owner."
					},
					"ownerOf(uint256)": {
						"details": "See {IERC721-ownerOf}."
					},
					"renounceOwnership()": {
						"details": "Leaves the contract without owner. It will not be possible to call `onlyOwner` functions anymore. Can only be called by the current owner. NOTE: Renouncing ownership will leave the contract without an owner, thereby removing any functionality that is only available to the owner."
					},
					"safeTransferFrom(address,address,uint256)": {
						"details": "See {IERC721-safeTransferFrom}."
					},
					"safeTransferFrom(address,address,uint256,bytes)": {
						"details": "See {IERC721-safeTransferFrom}."
					},
					"setApprovalForAll(address,bool)": {
						"details": "See {IERC721-setApprovalForAll}."
					},
					"symbol()": {
						"details": "See {IERC721Metadata-symbol}."
					},
					"totalSupply()": {
						"details": "Returns the total number of tokens in existence. Burned tokens will reduce the count. To get the total number of tokens minted, please see `_totalMinted`."
					},
					"transferFrom(address,address,uint256)": {
						"details": "Transfers `tokenId` from `from` to `to`. Requirements: - `to` cannot be the zero address. - `tokenId` token must be owned by `from`. Emits a {Transfer} event."
					},
					"transferOwnership(address)": {
						"details": "Transfers ownership of the contract to a new account (`newOwner`). Can only be called by the current owner."
					}
				},
				"version": 1
			},
			"evm": {
				"assembly": "    /* \"ERC721A/NagaKidsERC721A.sol\":507:544  string public baseExtension = \".json\" */\n  0xc0\n    /* \"ERC721A/NagaKidsERC721A.sol\":332:2991  contract NagaKids is ERC721A, ERC721ABurnable, Ownable {... */\n  0x40\n    /* \"ERC721A/NagaKidsERC721A.sol\":507:544  string public baseExtension = \".json\" */\n  mstore\n  0x05\n    /* \"ERC721A/NagaKidsERC721A.sol\":332:2991  contract NagaKids is ERC721A, ERC721ABurnable, Ownable {... */\n  0x80\n    /* \"ERC721A/NagaKidsERC721A.sol\":507:544  string public baseExtension = \".json\" */\n  swap1\n  dup2\n  mstore\n  mstore(0xa0, shl(0xd9, 0x173539b7b7))\n  0x0b\n  swap1\n  tag_1\n  swap1\n  dup3\n  tag_2\n  jump\t// in\ntag_1:\n  pop\n    /* \"ERC721A/NagaKidsERC721A.sol\":812:1146  constructor(... */\n  callvalue\n  dup1\n  iszero\n  tag_3\n  jumpi\n  0x00\n  dup1\n  revert\ntag_3:\n  pop\n  mload(0x40)\n  sub(codesize, bytecodeSize)\n  dup1\n  bytecodeSize\n  dup4\n  codecopy\n  dup2\n  add\n  0x40\n  dup2\n  swap1\n  mstore\n  tag_4\n  swap2\n  tag_5\n  jump\t// in\ntag_4:\n    /* \"erc721a/contracts/ERC721A.sol\":3986:4140  constructor(string memory name_, string memory symbol_) {... */\n  mload(0x40)\n  dup1\n  0x40\n  add\n  0x40\n  mstore\n  dup1\n  0x09\n  dup2\n  mstore\n  0x20\n  add\n  shl(0xb8, 0x4e414741204b494453)\n  dup2\n  mstore\n  pop\n  mload(0x40)\n  dup1\n  0x40\n  add\n  0x40\n  mstore\n  dup1\n  0x04\n  dup2\n  mstore\n  0x20\n  add\n  shl(0xe0, 0x4e41474b)\n  dup2\n  mstore\n  pop\n    /* \"erc721a/contracts/ERC721A.sol\":4060:4065  name_ */\n  dup2\n    /* \"erc721a/contracts/ERC721A.sol\":4052:4057  _name */\n  0x02\n    /* \"erc721a/contracts/ERC721A.sol\":4052:4065  _name = name_ */\n  swap1\n  dup2\n  tag_10\n  swap2\n  swap1\n  tag_2\n  jump\t// in\ntag_10:\n  pop\n    /* \"erc721a/contracts/ERC721A.sol\":4075:4082  _symbol */\n  0x03\n    /* \"erc721a/contracts/ERC721A.sol\":4075:4092  _symbol = symbol_ */\n  tag_11\n    /* \"erc721a/contracts/ERC721A.sol\":4085:4092  symbol_ */\n  dup3\n    /* \"erc721a/contracts/ERC721A.sol\":4075:4082  _symbol */\n  dup3\n    /* \"erc721a/contracts/ERC721A.sol\":4075:4092  _symbol = symbol_ */\n  tag_2\n  jump\t// in\ntag_11:\n  pop\n  pop\n    /* \"ERC721A/NagaKidsERC721A.sol\":2977:2978  1 */\n  0x01\n    /* \"erc721a/contracts/ERC721A.sol\":4102:4115  _currentIndex */\n  0x00\n    /* \"erc721a/contracts/ERC721A.sol\":4102:4133  _currentIndex = _startTokenId() */\n  sstore\n  pop\n    /* \"@openzeppelin/contracts/access/Ownable.sol\":921:953  _transferOwnership(_msgSender()) */\n  tag_15\n    /* \"@openzeppelin/contracts/utils/Context.sol\":719:729  msg.sender */\n  caller\n    /* \"@openzeppelin/contracts/access/Ownable.sol\":921:939  _transferOwnership */\n  tag_18\n    /* \"@openzeppelin/contracts/access/Ownable.sol\":921:953  _transferOwnership(_msgSender()) */\n  jump\t// in\ntag_15:\n    /* \"ERC721A/NagaKidsERC721A.sol\":944:968  setBaseURI(_initBaseURI) */\n  tag_20\n    /* \"ERC721A/NagaKidsERC721A.sol\":955:967  _initBaseURI */\n  dup3\n    /* \"ERC721A/NagaKidsERC721A.sol\":944:954  setBaseURI */\n  tag_21\n    /* \"ERC721A/NagaKidsERC721A.sol\":944:968  setBaseURI(_initBaseURI) */\n  jump\t// in\ntag_20:\n    /* \"ERC721A/NagaKidsERC721A.sol\":1016:1047  setAllowMinter(msg.sender,true) */\n  tag_22\n    /* \"ERC721A/NagaKidsERC721A.sol\":1031:1041  msg.sender */\n  caller\n    /* \"ERC721A/NagaKidsERC721A.sol\":1042:1046  true */\n  0x01\n    /* \"ERC721A/NagaKidsERC721A.sol\":1016:1030  setAllowMinter */\n  tag_23\n    /* \"ERC721A/NagaKidsERC721A.sol\":1016:1047  setAllowMinter(msg.sender,true) */\n  jump\t// in\ntag_22:\n    /* \"ERC721A/NagaKidsERC721A.sol\":1109:1138  safeMint(_preMintAddress,111) */\n  tag_24\n    /* \"ERC721A/NagaKidsERC721A.sol\":1118:1133  _preMintAddress */\n  dup2\n    /* \"ERC721A/NagaKidsERC721A.sol\":1134:1137  111 */\n  0x6f\n    /* \"ERC721A/NagaKidsERC721A.sol\":1109:1117  safeMint */\n  tag_25\n    /* \"ERC721A/NagaKidsERC721A.sol\":1109:1138  safeMint(_preMintAddress,111) */\n  jump\t// in\ntag_24:\n    /* \"ERC721A/NagaKidsERC721A.sol\":812:1146  constructor(... */\n  pop\n  pop\n    /* \"ERC721A/NagaKidsERC721A.sol\":332:2991  contract NagaKids is ERC721A, ERC721ABurnable, Ownable {... */\n  jump(tag_133)\n    /* \"@openzeppelin/contracts/access/Ownable.sol\":2270:2457  function _transferOwnership(address newOwner) internal virtual {... */\ntag_18:\n    /* \"@openzeppelin/contracts/access/Ownable.sol\":2362:2368  _owner */\n  0x08\n  dup1\n  sload\n  sub(shl(0xa0, 0x01), 0x01)\n    /* \"@openzeppelin/contracts/access/Ownable.sol\":2378:2395  _owner = newOwner */\n  dup4\n  dup2\n  and\n  not(sub(shl(0xa0, 0x01), 0x01))\n  dup4\n  and\n  dup2\n  or\n  swap1\n  swap4\n  sstore\n    /* \"@openzeppelin/contracts/access/Ownable.sol\":2410:2450  OwnershipTransferred(oldOwner, newOwner) */\n  mload(0x40)\n    /* \"@openzeppelin/contracts/access/Ownable.sol\":2362:2368  _owner */\n  swap2\n  and\n  swap2\n    /* \"@openzeppelin/contracts/access/Ownable.sol\":2378:2395  _owner = newOwner */\n  swap1\n    /* \"@openzeppelin/contracts/access/Ownable.sol\":2362:2368  _owner */\n  dup3\n  swap1\n    /* \"@openzeppelin/contracts/access/Ownable.sol\":2410:2450  OwnershipTransferred(oldOwner, newOwner) */\n  0x8be0079c531659141344cd1fd0a4f28419497f9722a3daafe3b4186f6b6457e0\n  swap1\n    /* \"@openzeppelin/contracts/access/Ownable.sol\":2343:2359  address oldOwner */\n  0x00\n  swap1\n    /* \"@openzeppelin/contracts/access/Ownable.sol\":2410:2450  OwnershipTransferred(oldOwner, newOwner) */\n  log3\n    /* \"@openzeppelin/contracts/access/Ownable.sol\":2333:2457  {... */\n  pop\n    /* \"@openzeppelin/contracts/access/Ownable.sol\":2270:2457  function _transferOwnership(address newOwner) internal virtual {... */\n  pop\n  jump\t// out\n    /* \"ERC721A/NagaKidsERC721A.sol\":1449:1551  function setBaseURI(string memory newBaseURI) public onlyOwner {... */\ntag_21:\n    /* \"@openzeppelin/contracts/access/Ownable.sol\":1108:1114  _owner */\n  and(sub(shl(0xa0, 0x01), 0x01), sload(0x08))\n    /* \"@openzeppelin/contracts/utils/Context.sol\":719:729  msg.sender */\n  caller\n    /* \"@openzeppelin/contracts/access/Ownable.sol\":1248:1271  owner() == _msgSender() */\n  eq\n    /* \"@openzeppelin/contracts/access/Ownable.sol\":1240:1308  require(owner() == _msgSender(), \"Ownable: caller is not the owner\") */\n  tag_34\n  jumpi\n  mload(0x40)\n  shl(0xe5, 0x461bcd)\n  dup2\n  mstore\n    /* \"#utility.yul\":4364:4366   */\n  0x20\n    /* \"@openzeppelin/contracts/access/Ownable.sol\":1240:1308  require(owner() == _msgSender(), \"Ownable: caller is not the owner\") */\n  0x04\n  dup3\n  add\n    /* \"#utility.yul\":4346:4367   */\n  dup2\n  swap1\n  mstore\n    /* \"#utility.yul\":4383:4401   */\n  0x24\n  dup3\n  add\n    /* \"#utility.yul\":4376:4406   */\n  mstore\n  0x00\n  dup1\n  mload\n  0x20\n  data_9924ebdf1add33d25d4ef888e16131f0a5687b0580a36c21b5c301a6c462effe\n  dup4\n  codecopy\n  dup2\n  mload\n  swap2\n  mstore\n    /* \"#utility.yul\":4422:4440   */\n  0x44\n  dup3\n  add\n    /* \"#utility.yul\":4415:4477   */\n  mstore\n    /* \"#utility.yul\":4494:4512   */\n  0x64\n  add\n    /* \"@openzeppelin/contracts/access/Ownable.sol\":1240:1308  require(owner() == _msgSender(), \"Ownable: caller is not the owner\") */\ntag_35:\n  mload(0x40)\n  dup1\n  swap2\n  sub\n  swap1\n  revert\ntag_34:\n    /* \"ERC721A/NagaKidsERC721A.sol\":1523:1530  baseURI */\n  0x0a\n    /* \"ERC721A/NagaKidsERC721A.sol\":1523:1543  baseURI = newBaseURI */\n  tag_38\n    /* \"ERC721A/NagaKidsERC721A.sol\":1533:1543  newBaseURI */\n  dup3\n    /* \"ERC721A/NagaKidsERC721A.sol\":1523:1530  baseURI */\n  dup3\n    /* \"ERC721A/NagaKidsERC721A.sol\":1523:1543  baseURI = newBaseURI */\n  tag_2\n  jump\t// in\ntag_38:\n  pop\n    /* \"ERC721A/NagaKidsERC721A.sol\":1449:1551  function setBaseURI(string memory newBaseURI) public onlyOwner {... */\n  pop\n  jump\t// out\n    /* \"ERC721A/NagaKidsERC721A.sol\":1154:1333  function setAllowMinter(address minter, bool allowed) public onlyOwner {... */\ntag_23:\n    /* \"@openzeppelin/contracts/access/Ownable.sol\":1108:1114  _owner */\n  and(sub(shl(0xa0, 0x01), 0x01), sload(0x08))\n    /* \"@openzeppelin/contracts/utils/Context.sol\":719:729  msg.sender */\n  caller\n    /* \"@openzeppelin/contracts/access/Ownable.sol\":1248:1271  owner() == _msgSender() */\n  eq\n    /* \"@openzeppelin/contracts/access/Ownable.sol\":1240:1308  require(owner() == _msgSender(), \"Ownable: caller is not the owner\") */\n  tag_42\n  jumpi\n  mload(0x40)\n  shl(0xe5, 0x461bcd)\n  dup2\n  mstore\n    /* \"#utility.yul\":4364:4366   */\n  0x20\n    /* \"@openzeppelin/contracts/access/Ownable.sol\":1240:1308  require(owner() == _msgSender(), \"Ownable: caller is not the owner\") */\n  0x04\n  dup3\n  add\n    /* \"#utility.yul\":4346:4367   */\n  dup2\n  swap1\n  mstore\n    /* \"#utility.yul\":4383:4401   */\n  0x24\n  dup3\n  add\n    /* \"#utility.yul\":4376:4406   */\n  mstore\n  0x00\n  dup1\n  mload\n  0x20\n  data_9924ebdf1add33d25d4ef888e16131f0a5687b0580a36c21b5c301a6c462effe\n  dup4\n  codecopy\n  dup2\n  mload\n  swap2\n  mstore\n    /* \"#utility.yul\":4422:4440   */\n  0x44\n  dup3\n  add\n    /* \"#utility.yul\":4415:4477   */\n  mstore\n    /* \"#utility.yul\":4494:4512   */\n  0x64\n  add\n    /* \"@openzeppelin/contracts/access/Ownable.sol\":1240:1308  require(owner() == _msgSender(), \"Ownable: caller is not the owner\") */\n  tag_35\n    /* \"#utility.yul\":4162:4518   */\n  jump\n    /* \"@openzeppelin/contracts/access/Ownable.sol\":1240:1308  require(owner() == _msgSender(), \"Ownable: caller is not the owner\") */\ntag_42:\n  sub(shl(0xa0, 0x01), 0x01)\n    /* \"ERC721A/NagaKidsERC721A.sol\":1236:1256  _allowMinter[minter] */\n  dup3\n  and\n  0x00\n  dup2\n  dup2\n  mstore\n    /* \"ERC721A/NagaKidsERC721A.sol\":1236:1248  _allowMinter */\n  0x09\n    /* \"ERC721A/NagaKidsERC721A.sol\":1236:1256  _allowMinter[minter] */\n  0x20\n  swap1\n  dup2\n  mstore\n  0x40\n  swap2\n  dup3\n  swap1\n  keccak256\n    /* \"ERC721A/NagaKidsERC721A.sol\":1236:1266  _allowMinter[minter] = allowed */\n  dup1\n  sload\n  not(0xff)\n  and\n  dup6\n  iszero\n  iszero\n  swap1\n  dup2\n  or\n  swap1\n  swap2\n  sstore\n    /* \"ERC721A/NagaKidsERC721A.sol\":1282:1325  SetAllowMinter(msg.sender, minter, allowed) */\n  swap2\n  mload\n    /* \"#utility.yul\":4663:4704   */\n  swap2\n  dup3\n  mstore\n    /* \"ERC721A/NagaKidsERC721A.sol\":1297:1307  msg.sender */\n  caller\n  swap2\n    /* \"ERC721A/NagaKidsERC721A.sol\":1282:1325  SetAllowMinter(msg.sender, minter, allowed) */\n  0x3c49a0d2dcd603245c20eb1985825d770748295cd570de6d24861080451bbd41\n  swap2\n    /* \"#utility.yul\":4636:4654   */\n  add\n    /* \"ERC721A/NagaKidsERC721A.sol\":1282:1325  SetAllowMinter(msg.sender, minter, allowed) */\n  mload(0x40)\n  dup1\n  swap2\n  sub\n  swap1\n  log3\n    /* \"ERC721A/NagaKidsERC721A.sol\":1154:1333  function setAllowMinter(address minter, bool allowed) public onlyOwner {... */\n  pop\n  pop\n  jump\t// out\n    /* \"ERC721A/NagaKidsERC721A.sol\":2012:2238  function safeMint(address to,uint amount) public Minter(msg.sender) {... */\ntag_25:\n    /* \"ERC721A/NagaKidsERC721A.sol\":2068:2078  msg.sender */\n  caller\n    /* \"ERC721A/NagaKidsERC721A.sol\":2300:2304  bool */\n  0x00\n    /* \"ERC721A/NagaKidsERC721A.sol\":2324:2344  _allowMinter[minter] */\n  dup2\n  dup2\n  mstore\n    /* \"ERC721A/NagaKidsERC721A.sol\":2324:2336  _allowMinter */\n  0x09\n    /* \"ERC721A/NagaKidsERC721A.sol\":2324:2344  _allowMinter[minter] */\n  0x20\n  mstore\n  0x40\n  swap1\n  keccak256\n  sload\n  0xff\n  and\n    /* \"ERC721A/NagaKidsERC721A.sol\":735:784  require(isMinter(_minter),\"You are not a minter\") */\n  tag_50\n  jumpi\n  mload(0x40)\n  shl(0xe5, 0x461bcd)\n  dup2\n  mstore\n    /* \"#utility.yul\":4917:4919   */\n  0x20\n    /* \"ERC721A/NagaKidsERC721A.sol\":735:784  require(isMinter(_minter),\"You are not a minter\") */\n  0x04\n  dup3\n  add\n    /* \"#utility.yul\":4899:4920   */\n  mstore\n    /* \"#utility.yul\":4956:4958   */\n  0x14\n    /* \"#utility.yul\":4936:4954   */\n  0x24\n  dup3\n  add\n    /* \"#utility.yul\":4929:4959   */\n  mstore\n    /* \"#utility.yul\":4995:5017   */\n  0x596f7520617265206e6f742061206d696e746572000000000000000000000000\n    /* \"#utility.yul\":4975:4993   */\n  0x44\n  dup3\n  add\n    /* \"#utility.yul\":4968:5018   */\n  mstore\n    /* \"#utility.yul\":5035:5053   */\n  0x64\n  add\n    /* \"ERC721A/NagaKidsERC721A.sol\":735:784  require(isMinter(_minter),\"You are not a minter\") */\n  tag_35\n    /* \"#utility.yul\":4715:5059   */\n  jump\n    /* \"ERC721A/NagaKidsERC721A.sol\":735:784  require(isMinter(_minter),\"You are not a minter\") */\ntag_50:\n    /* \"ERC721A/NagaKidsERC721A.sol\":2091:2110  uint256 totalSupply */\n  0x00\n    /* \"ERC721A/NagaKidsERC721A.sol\":2113:2126  totalSupply() */\n  tag_54\n    /* \"ERC721A/NagaKidsERC721A.sol\":2977:2978  1 */\n  0x01\n    /* \"erc721a/contracts/ERC721A.sol\":4998:5010  _burnCounter */\n  sload\n    /* \"erc721a/contracts/ERC721A.sol\":4789:4796  uint256 */\n  0x00\n    /* \"erc721a/contracts/ERC721A.sol\":4982:4995  _currentIndex */\n  sload\n  not(0x00)\n    /* \"erc721a/contracts/ERC721A.sol\":4982:5010  _currentIndex - _burnCounter */\n  swap2\n  swap1\n  sub\n    /* \"erc721a/contracts/ERC721A.sol\":4982:5028  _currentIndex - _burnCounter - _startTokenId() */\n  add\n  swap1\n    /* \"erc721a/contracts/ERC721A.sol\":4736:5045  function totalSupply() public view override returns (uint256) {... */\n  jump\n    /* \"ERC721A/NagaKidsERC721A.sol\":2113:2126  totalSupply() */\ntag_54:\n    /* \"ERC721A/NagaKidsERC721A.sol\":2091:2126  uint256 totalSupply = totalSupply() */\n  swap1\n  pop\n    /* \"ERC721A/NagaKidsERC721A.sol\":587:591  1111 */\n  0x0457\n    /* \"ERC721A/NagaKidsERC721A.sol\":2145:2165  totalSupply + amount */\n  tag_56\n    /* \"ERC721A/NagaKidsERC721A.sol\":2159:2165  amount */\n  dup5\n    /* \"ERC721A/NagaKidsERC721A.sol\":2091:2126  uint256 totalSupply = totalSupply() */\n  dup4\n    /* \"ERC721A/NagaKidsERC721A.sol\":2145:2165  totalSupply + amount */\n  tag_57\n  jump\t// in\ntag_56:\n    /* \"ERC721A/NagaKidsERC721A.sol\":2145:2178  totalSupply + amount <= maxSupply */\n  gt\n  iszero\n    /* \"ERC721A/NagaKidsERC721A.sol\":2137:2198  require(totalSupply + amount <= maxSupply, \"Over max supply\") */\n  tag_58\n  jumpi\n  mload(0x40)\n  shl(0xe5, 0x461bcd)\n  dup2\n  mstore\n    /* \"#utility.yul\":5496:5498   */\n  0x20\n    /* \"ERC721A/NagaKidsERC721A.sol\":2137:2198  require(totalSupply + amount <= maxSupply, \"Over max supply\") */\n  0x04\n  dup3\n  add\n    /* \"#utility.yul\":5478:5499   */\n  mstore\n    /* \"#utility.yul\":5535:5537   */\n  0x0f\n    /* \"#utility.yul\":5515:5533   */\n  0x24\n  dup3\n  add\n    /* \"#utility.yul\":5508:5538   */\n  mstore\n  shl(0x88, 0x4f766572206d617820737570706c79)\n    /* \"#utility.yul\":5554:5572   */\n  0x44\n  dup3\n  add\n    /* \"#utility.yul\":5547:5592   */\n  mstore\n    /* \"#utility.yul\":5609:5627   */\n  0x64\n  add\n    /* \"ERC721A/NagaKidsERC721A.sol\":2137:2198  require(totalSupply + amount <= maxSupply, \"Over max supply\") */\n  tag_35\n    /* \"#utility.yul\":5294:5633   */\n  jump\n    /* \"ERC721A/NagaKidsERC721A.sol\":2137:2198  require(totalSupply + amount <= maxSupply, \"Over max supply\") */\ntag_58:\n    /* \"ERC721A/NagaKidsERC721A.sol\":2209:2230  _safeMint(to, amount) */\n  tag_61\n    /* \"ERC721A/NagaKidsERC721A.sol\":2219:2221  to */\n  dup5\n    /* \"ERC721A/NagaKidsERC721A.sol\":2223:2229  amount */\n  dup5\n    /* \"ERC721A/NagaKidsERC721A.sol\":2209:2218  _safeMint */\n  tag_62\n    /* \"ERC721A/NagaKidsERC721A.sol\":2209:2230  _safeMint(to, amount) */\n  jump\t// in\ntag_61:\n    /* \"ERC721A/NagaKidsERC721A.sol\":2080:2238  {... */\n  pop\n    /* \"ERC721A/NagaKidsERC721A.sol\":2012:2238  function safeMint(address to,uint amount) public Minter(msg.sender) {... */\n  pop\n  pop\n  pop\n  jump\t// out\n    /* \"erc721a/contracts/ERC721A.sol\":15138:15240  function _safeMint(address to, uint256 quantity) internal {... */\ntag_62:\n    /* \"erc721a/contracts/ERC721A.sol\":15206:15233  _safeMint(to, quantity, '') */\n  tag_38\n    /* \"erc721a/contracts/ERC721A.sol\":15216:15218  to */\n  dup3\n    /* \"erc721a/contracts/ERC721A.sol\":15220:15228  quantity */\n  dup3\n    /* \"erc721a/contracts/ERC721A.sol\":15206:15233  _safeMint(to, quantity, '') */\n  mload(0x40)\n  dup1\n  0x20\n  add\n  0x40\n  mstore\n  dup1\n  0x00\n  dup2\n  mstore\n  pop\n    /* \"erc721a/contracts/ERC721A.sol\":15206:15215  _safeMint */\n  shl(0x20, tag_69)\n    /* \"erc721a/contracts/ERC721A.sol\":15206:15233  _safeMint(to, quantity, '') */\n  0x20\n  shr\n  jump\t// in\n    /* \"erc721a/contracts/ERC721A.sol\":15641:16302  function _safeMint(... */\ntag_69:\n    /* \"erc721a/contracts/ERC721A.sol\":15759:15778  _mint(to, quantity) */\n  tag_71\n    /* \"erc721a/contracts/ERC721A.sol\":15765:15767  to */\n  dup4\n    /* \"erc721a/contracts/ERC721A.sol\":15769:15777  quantity */\n  dup4\n    /* \"erc721a/contracts/ERC721A.sol\":15759:15764  _mint */\n  tag_72\n    /* \"erc721a/contracts/ERC721A.sol\":15759:15778  _mint(to, quantity) */\n  jump\t// in\ntag_71:\n  sub(shl(0xa0, 0x01), 0x01)\n    /* \"erc721a/contracts/ERC721A.sol\":15817:15831  to.code.length */\n  dup4\n  and\n  extcodesize\n    /* \"erc721a/contracts/ERC721A.sol\":15817:15836  to.code.length != 0 */\n  iszero\n    /* \"erc721a/contracts/ERC721A.sol\":15813:16286  if (to.code.length != 0) {... */\n  tag_73\n  jumpi\n    /* \"erc721a/contracts/ERC721A.sol\":15856:15867  uint256 end */\n  0x00\n    /* \"erc721a/contracts/ERC721A.sol\":15870:15883  _currentIndex */\n  sload\n    /* \"erc721a/contracts/ERC721A.sol\":15917:15931  end - quantity */\n  dup3\n  dup2\n  sub\n    /* \"erc721a/contracts/ERC721A.sol\":15949:16178  do {... */\ntag_74:\n    /* \"erc721a/contracts/ERC721A.sol\":16026:16033  index++ */\n  0x01\n  dup2\n  add\n  swap1\n    /* \"erc721a/contracts/ERC721A.sol\":15979:16041  _checkContractOnERC721Received(address(0), to, index++, _data) */\n  tag_77\n  swap1\n    /* \"erc721a/contracts/ERC721A.sol\":16018:16019  0 */\n  0x00\n  swap1\n    /* \"erc721a/contracts/ERC721A.sol\":16022:16024  to */\n  dup8\n  swap1\n    /* \"erc721a/contracts/ERC721A.sol\":16035:16040  _data */\n  dup7\n    /* \"erc721a/contracts/ERC721A.sol\":15979:16009  _checkContractOnERC721Received */\n  tag_78\n    /* \"erc721a/contracts/ERC721A.sol\":15979:16041  _checkContractOnERC721Received(address(0), to, index++, _data) */\n  jump\t// in\ntag_77:\n    /* \"erc721a/contracts/ERC721A.sol\":15974:16139  if (!_checkContractOnERC721Received(address(0), to, index++, _data)) {... */\n  tag_79\n  jumpi\n    /* \"erc721a/contracts/ERC721A.sol\":16076:16116  TransferToNonERC721ReceiverImplementer() */\n  mload(0x40)\n  shl(0xe1, 0x68d2bf6b)\n  dup2\n  mstore\n  0x04\n  add\n  mload(0x40)\n  dup1\n  swap2\n  sub\n  swap1\n  revert\n    /* \"erc721a/contracts/ERC721A.sol\":15974:16139  if (!_checkContractOnERC721Received(address(0), to, index++, _data)) {... */\ntag_79:\n    /* \"erc721a/contracts/ERC721A.sol\":16173:16176  end */\n  dup2\n    /* \"erc721a/contracts/ERC721A.sol\":16165:16170  index */\n  dup2\n    /* \"erc721a/contracts/ERC721A.sol\":16165:16176  index < end */\n  lt\n    /* \"erc721a/contracts/ERC721A.sol\":15949:16178  do {... */\n  tag_74\n  jumpi\n    /* \"erc721a/contracts/ERC721A.sol\":16258:16261  end */\n  dup2\n    /* \"erc721a/contracts/ERC721A.sol\":16241:16254  _currentIndex */\n  sload(0x00)\n    /* \"erc721a/contracts/ERC721A.sol\":16241:16261  _currentIndex != end */\n  eq\n    /* \"erc721a/contracts/ERC721A.sol\":16237:16271  if (_currentIndex != end) revert() */\n  tag_80\n  jumpi\n    /* \"erc721a/contracts/ERC721A.sol\":16263:16271  revert() */\n  0x00\n  dup1\n  revert\n    /* \"erc721a/contracts/ERC721A.sol\":16237:16271  if (_currentIndex != end) revert() */\ntag_80:\n    /* \"erc721a/contracts/ERC721A.sol\":15838:16286  {... */\n  pop\n  pop\n    /* \"erc721a/contracts/ERC721A.sol\":15813:16286  if (to.code.length != 0) {... */\ntag_73:\n    /* \"erc721a/contracts/ERC721A.sol\":15641:16302  function _safeMint(... */\n  pop\n  pop\n  pop\n  jump\t// out\n    /* \"erc721a/contracts/ERC721A.sol\":16563:18055  function _mint(address to, uint256 quantity) internal {... */\ntag_72:\n    /* \"erc721a/contracts/ERC721A.sol\":16627:16647  uint256 startTokenId */\n  0x00\n    /* \"erc721a/contracts/ERC721A.sol\":16650:16663  _currentIndex */\n  sload\n  sub(shl(0xa0, 0x01), 0x01)\n    /* \"erc721a/contracts/ERC721A.sol\":16677:16693  to == address(0) */\n  dup4\n  and\n    /* \"erc721a/contracts/ERC721A.sol\":16673:16721  if (to == address(0)) revert MintToZeroAddress() */\n  tag_82\n  jumpi\n    /* \"erc721a/contracts/ERC721A.sol\":16702:16721  MintToZeroAddress() */\n  mload(0x40)\n  shl(0xe8, 0x2e0763)\n  dup2\n  mstore\n  0x04\n  add\n  mload(0x40)\n  dup1\n  swap2\n  sub\n  swap1\n  revert\n    /* \"erc721a/contracts/ERC721A.sol\":16673:16721  if (to == address(0)) revert MintToZeroAddress() */\ntag_82:\n    /* \"erc721a/contracts/ERC721A.sol\":16735:16743  quantity */\n  dup2\n    /* \"erc721a/contracts/ERC721A.sol\":16747:16748  0 */\n  0x00\n    /* \"erc721a/contracts/ERC721A.sol\":16735:16748  quantity == 0 */\n  sub\n    /* \"erc721a/contracts/ERC721A.sol\":16731:16775  if (quantity == 0) revert MintZeroQuantity() */\n  tag_83\n  jumpi\n    /* \"erc721a/contracts/ERC721A.sol\":16757:16775  MintZeroQuantity() */\n  mload(0x40)\n  shl(0xe0, 0xb562e8dd)\n  dup2\n  mstore\n  0x04\n  add\n  mload(0x40)\n  dup1\n  swap2\n  sub\n  swap1\n  revert\n    /* \"erc721a/contracts/ERC721A.sol\":16731:16775  if (quantity == 0) revert MintZeroQuantity() */\ntag_83:\n    /* \"erc721a/contracts/ERC721A.sol\":16786:16847  _beforeTokenTransfers(address(0), to, startTokenId, quantity) */\n  tag_84\n    /* \"erc721a/contracts/ERC721A.sol\":16816:16817  0 */\n  0x00\n    /* \"erc721a/contracts/ERC721A.sol\":16820:16822  to */\n  dup5\n    /* \"erc721a/contracts/ERC721A.sol\":16824:16836  startTokenId */\n  dup4\n    /* \"erc721a/contracts/ERC721A.sol\":16838:16846  quantity */\n  dup6\n    /* \"erc721a/contracts/ERC721A.sol\":16786:16807  _beforeTokenTransfers */\n  tag_85\n    /* \"erc721a/contracts/ERC721A.sol\":16786:16847  _beforeTokenTransfers(address(0), to, startTokenId, quantity) */\n  jump\t// in\ntag_84:\n  sub(shl(0xa0, 0x01), 0x01)\n    /* \"erc721a/contracts/ERC721A.sol\":17250:17272  _packedAddressData[to] */\n  dup4\n  and\n  0x00\n  dup2\n  dup2\n  mstore\n    /* \"erc721a/contracts/ERC721A.sol\":17250:17268  _packedAddressData */\n  0x05\n    /* \"erc721a/contracts/ERC721A.sol\":17250:17272  _packedAddressData[to] */\n  0x20\n  mstore\n    /* \"erc721a/contracts/ERC721A.sol\":1156:1158  64 */\n  0x40\n    /* \"erc721a/contracts/ERC721A.sol\":17250:17272  _packedAddressData[to] */\n  swap1\n  keccak256\n    /* \"erc721a/contracts/ERC721A.sol\":17250:17320  _packedAddressData[to] += quantity * ((1 << BITPOS_NUMBER_MINTED) | 1) */\n  dup1\n  sload\n    /* \"erc721a/contracts/ERC721A.sol\":17288:17319  (1 << BITPOS_NUMBER_MINTED) | 1 */\n  0x010000000000000001\n    /* \"erc721a/contracts/ERC721A.sol\":17276:17320  quantity * ((1 << BITPOS_NUMBER_MINTED) | 1) */\n  dup6\n  mul\n    /* \"erc721a/contracts/ERC721A.sol\":17250:17320  _packedAddressData[to] += quantity * ((1 << BITPOS_NUMBER_MINTED) | 1) */\n  add\n  swap1\n  sstore\n    /* \"erc721a/contracts/ERC721A.sol\":10863:10874  timestamp() */\n  timestamp\n    /* \"erc721a/contracts/ERC721A.sol\":10839:10861  BITPOS_START_TIMESTAMP */\n  0xa0\n    /* \"erc721a/contracts/ERC721A.sol\":10835:10875  shl(BITPOS_START_TIMESTAMP, timestamp()) */\n  shl\n  0x01\n    /* \"erc721a/contracts/ERC721A.sol\":12522:12537  eq(quantity, 1) */\n  dup5\n  eq\n    /* \"erc721a/contracts/ERC721A.sol\":12497:12520  BITPOS_NEXT_INITIALIZED */\n  0xe1\n    /* \"erc721a/contracts/ERC721A.sol\":12493:12538  shl(BITPOS_NEXT_INITIALIZED, eq(quantity, 1)) */\n  shl\n    /* \"erc721a/contracts/ERC721A.sol\":10832:10883  or(shl(BITPOS_START_TIMESTAMP, timestamp()), flags) */\n  or\n    /* \"erc721a/contracts/ERC721A.sol\":10822:10884  or(owner, or(shl(BITPOS_START_TIMESTAMP, timestamp()), flags)) */\n  or\n    /* \"erc721a/contracts/ERC721A.sol\":17556:17587  _packedOwnerships[startTokenId] */\n  0x00\n  dup3\n  dup2\n  mstore\n    /* \"erc721a/contracts/ERC721A.sol\":17556:17573  _packedOwnerships */\n  0x04\n    /* \"erc721a/contracts/ERC721A.sol\":17556:17587  _packedOwnerships[startTokenId] */\n  0x20\n  mstore\n  0x40\n  swap1\n  keccak256\n    /* \"erc721a/contracts/ERC721A.sol\":17556:17726  _packedOwnerships[startTokenId] = _packOwnershipData(... */\n  sstore\n    /* \"erc721a/contracts/ERC721A.sol\":17574:17586  startTokenId */\n  dup1\n    /* \"erc721a/contracts/ERC721A.sol\":17799:17822  startTokenId + quantity */\n  dup3\n  dup2\n  add\n    /* \"erc721a/contracts/ERC721A.sol\":17836:17935  do {... */\ntag_92:\n    /* \"erc721a/contracts/ERC721A.sol\":17862:17897  Transfer(address(0), to, tokenId++) */\n  mload(0x40)\n    /* \"erc721a/contracts/ERC721A.sol\":17887:17896  tokenId++ */\n  0x01\n  dup4\n  add\n  swap3\n  swap1\n  sub(shl(0xa0, 0x01), 0x01)\n    /* \"erc721a/contracts/ERC721A.sol\":17862:17897  Transfer(address(0), to, tokenId++) */\n  dup8\n  and\n  swap1\n    /* \"erc721a/contracts/ERC721A.sol\":17879:17880  0 */\n  0x00\n  swap1\n    /* \"erc721a/contracts/ERC721A.sol\":17862:17897  Transfer(address(0), to, tokenId++) */\n  0xddf252ad1be2c89b69c2b068fc378daa952ba7f163c4a11628f55a4df523b3ef\n  swap1\n    /* \"erc721a/contracts/ERC721A.sol\":17879:17880  0 */\n  dup3\n  swap1\n    /* \"erc721a/contracts/ERC721A.sol\":17862:17897  Transfer(address(0), to, tokenId++) */\n  log4\n    /* \"erc721a/contracts/ERC721A.sol\":17930:17933  end */\n  dup1\n    /* \"erc721a/contracts/ERC721A.sol\":17920:17927  tokenId */\n  dup3\n    /* \"erc721a/contracts/ERC721A.sol\":17920:17933  tokenId < end */\n  lt\n    /* \"erc721a/contracts/ERC721A.sol\":17836:17935  do {... */\n  tag_92\n  jumpi\n    /* \"erc721a/contracts/ERC721A.sol\":17949:17962  _currentIndex */\n  0x00\n    /* \"erc721a/contracts/ERC721A.sol\":17949:17968  _currentIndex = end */\n  sstore\n  pop\n    /* \"erc721a/contracts/ERC721A.sol\":15641:16302  function _safeMint(... */\n  pop\n  pop\n  pop\n  jump\t// out\n    /* \"erc721a/contracts/ERC721A.sol\":28649:29346  function _checkContractOnERC721Received(... */\ntag_78:\n    /* \"erc721a/contracts/ERC721A.sol\":28827:28915  ERC721A__IERC721Receiver(to).onERC721Received(_msgSenderERC721A(), from, tokenId, _data) */\n  mload(0x40)\n  shl(0xe1, 0x0a85bd01)\n  dup2\n  mstore\n    /* \"erc721a/contracts/ERC721A.sol\":28807:28811  bool */\n  0x00\n  swap1\n  sub(shl(0xa0, 0x01), 0x01)\n    /* \"erc721a/contracts/ERC721A.sol\":28827:28872  ERC721A__IERC721Receiver(to).onERC721Received */\n  dup6\n  and\n  swap1\n  0x150b7a02\n  swap1\n    /* \"erc721a/contracts/ERC721A.sol\":28827:28915  ERC721A__IERC721Receiver(to).onERC721Received(_msgSenderERC721A(), from, tokenId, _data) */\n  tag_100\n  swap1\n    /* \"@openzeppelin/contracts/utils/Context.sol\":719:729  msg.sender */\n  caller\n  swap1\n    /* \"erc721a/contracts/ERC721A.sol\":28894:28898  from */\n  dup10\n  swap1\n    /* \"erc721a/contracts/ERC721A.sol\":28900:28907  tokenId */\n  dup9\n  swap1\n    /* \"erc721a/contracts/ERC721A.sol\":28909:28914  _data */\n  dup9\n  swap1\n    /* \"erc721a/contracts/ERC721A.sol\":28827:28915  ERC721A__IERC721Receiver(to).onERC721Received(_msgSenderERC721A(), from, tokenId, _data) */\n  0x04\n  add\n  tag_101\n  jump\t// in\ntag_100:\n  0x20\n  mload(0x40)\n  dup1\n  dup4\n  sub\n  dup2\n  0x00\n  dup8\n  gas\n  call\n  swap3\n  pop\n  pop\n  pop\n  dup1\n  iszero\n  tag_102\n  jumpi\n  pop\n  0x40\n  dup1\n  mload\n  0x1f\n  returndatasize\n  swap1\n  dup2\n  add\n  not(0x1f)\n  and\n  dup3\n  add\n  swap1\n  swap3\n  mstore\n  tag_103\n  swap2\n  dup2\n  add\n  swap1\n  tag_104\n  jump\t// in\ntag_103:\n  0x01\ntag_102:\n    /* \"erc721a/contracts/ERC721A.sol\":28823:29340  try ERC721A__IERC721Receiver(to).onERC721Received(_msgSenderERC721A(), from, tokenId, _data) returns (... */\n  tag_105\n  jumpi\n  returndatasize\n  dup1\n  dup1\n  iszero\n  tag_110\n  jumpi\n  mload(0x40)\n  swap2\n  pop\n  and(add(returndatasize, 0x3f), not(0x1f))\n  dup3\n  add\n  0x40\n  mstore\n  returndatasize\n  dup3\n  mstore\n  returndatasize\n  0x00\n  0x20\n  dup5\n  add\n  returndatacopy\n  jump(tag_109)\ntag_110:\n  0x60\n  swap2\n  pop\ntag_109:\n  pop\n    /* \"erc721a/contracts/ERC721A.sol\":29105:29111  reason */\n  dup1\n    /* \"erc721a/contracts/ERC721A.sol\":29105:29118  reason.length */\n  mload\n    /* \"erc721a/contracts/ERC721A.sol\":29122:29123  0 */\n  0x00\n    /* \"erc721a/contracts/ERC721A.sol\":29105:29123  reason.length == 0 */\n  sub\n    /* \"erc721a/contracts/ERC721A.sol\":29101:29330  if (reason.length == 0) {... */\n  tag_111\n  jumpi\n    /* \"erc721a/contracts/ERC721A.sol\":29150:29190  TransferToNonERC721ReceiverImplementer() */\n  mload(0x40)\n  shl(0xe1, 0x68d2bf6b)\n  dup2\n  mstore\n  0x04\n  add\n  mload(0x40)\n  dup1\n  swap2\n  sub\n  swap1\n  revert\n    /* \"erc721a/contracts/ERC721A.sol\":29101:29330  if (reason.length == 0) {... */\ntag_111:\n    /* \"erc721a/contracts/ERC721A.sol\":29290:29296  reason */\n  dup1\n    /* \"erc721a/contracts/ERC721A.sol\":29284:29297  mload(reason) */\n  mload\n    /* \"erc721a/contracts/ERC721A.sol\":29275:29281  reason */\n  dup2\n    /* \"erc721a/contracts/ERC721A.sol\":29271:29273  32 */\n  0x20\n    /* \"erc721a/contracts/ERC721A.sol\":29267:29282  add(32, reason) */\n  add\n    /* \"erc721a/contracts/ERC721A.sol\":29260:29298  revert(add(32, reason), mload(reason)) */\n  revert\n    /* \"erc721a/contracts/ERC721A.sol\":28823:29340  try ERC721A__IERC721Receiver(to).onERC721Received(_msgSenderERC721A(), from, tokenId, _data) returns (... */\ntag_105:\n  not(sub(shl(0xe0, 0x01), 0x01))\n    /* \"erc721a/contracts/ERC721A.sol\":28983:29047  retval == ERC721A__IERC721Receiver(to).onERC721Received.selector */\n  and\n  shl(0xe1, 0x0a85bd01)\n  eq\n  swap1\n  pop\n    /* \"erc721a/contracts/ERC721A.sol\":28649:29346  function _checkContractOnERC721Received(... */\n  swap5\n  swap4\n  pop\n  pop\n  pop\n  pop\n  jump\t// out\n    /* \"ERC721A/NagaKidsERC721A.sol\":2360:2597  function _beforeTokenTransfers(... */\ntag_85:\n    /* \"ERC721A/NagaKidsERC721A.sol\":2529:2589  super._beforeTokenTransfers(from, to, startTokenId,quantity) */\n  tag_61\n    /* \"ERC721A/NagaKidsERC721A.sol\":2557:2561  from */\n  dup5\n    /* \"ERC721A/NagaKidsERC721A.sol\":2563:2565  to */\n  dup5\n    /* \"ERC721A/NagaKidsERC721A.sol\":2567:2579  startTokenId */\n  dup5\n    /* \"ERC721A/NagaKidsERC721A.sol\":2580:2588  quantity */\n  dup5\n    /* \"ERC721A/NagaKidsERC721A.sol\":2529:2556  super._beforeTokenTransfers */\n  or(tag_0_226, shl(0x20, tag_61))\n    /* \"ERC721A/NagaKidsERC721A.sol\":2529:2589  super._beforeTokenTransfers(from, to, startTokenId,quantity) */\n  0x20\n  shr\n  jump\t// in\n    /* \"#utility.yul\":14:141   */\ntag_126:\n    /* \"#utility.yul\":75:85   */\n  0x4e487b71\n    /* \"#utility.yul\":70:73   */\n  0xe0\n    /* \"#utility.yul\":66:86   */\n  shl\n    /* \"#utility.yul\":63:64   */\n  0x00\n    /* \"#utility.yul\":56:87   */\n  mstore\n    /* \"#utility.yul\":106:110   */\n  0x41\n    /* \"#utility.yul\":103:104   */\n  0x04\n    /* \"#utility.yul\":96:111   */\n  mstore\n    /* \"#utility.yul\":130:134   */\n  0x24\n    /* \"#utility.yul\":127:128   */\n  0x00\n    /* \"#utility.yul\":120:135   */\n  revert\n    /* \"#utility.yul\":146:526   */\ntag_127:\n    /* \"#utility.yul\":225:226   */\n  0x01\n    /* \"#utility.yul\":221:233   */\n  dup2\n  dup2\n  shr\n  swap1\n    /* \"#utility.yul\":268:280   */\n  dup3\n  and\n  dup1\n    /* \"#utility.yul\":289:350   */\n  tag_136\n  jumpi\n    /* \"#utility.yul\":343:347   */\n  0x7f\n    /* \"#utility.yul\":335:341   */\n  dup3\n    /* \"#utility.yul\":331:348   */\n  and\n    /* \"#utility.yul\":321:348   */\n  swap2\n  pop\n    /* \"#utility.yul\":289:350   */\ntag_136:\n    /* \"#utility.yul\":396:398   */\n  0x20\n    /* \"#utility.yul\":388:394   */\n  dup3\n    /* \"#utility.yul\":385:399   */\n  lt\n    /* \"#utility.yul\":365:383   */\n  dup2\n    /* \"#utility.yul\":362:400   */\n  sub\n    /* \"#utility.yul\":359:520   */\n  tag_137\n  jumpi\n    /* \"#utility.yul\":442:452   */\n  0x4e487b71\n    /* \"#utility.yul\":437:440   */\n  0xe0\n    /* \"#utility.yul\":433:453   */\n  shl\n    /* \"#utility.yul\":430:431   */\n  0x00\n    /* \"#utility.yul\":423:454   */\n  mstore\n    /* \"#utility.yul\":477:481   */\n  0x22\n    /* \"#utility.yul\":474:475   */\n  0x04\n    /* \"#utility.yul\":467:482   */\n  mstore\n    /* \"#utility.yul\":505:509   */\n  0x24\n    /* \"#utility.yul\":502:503   */\n  0x00\n    /* \"#utility.yul\":495:510   */\n  revert\n    /* \"#utility.yul\":359:520   */\ntag_137:\n  pop\n    /* \"#utility.yul\":146:526   */\n  swap2\n  swap1\n  pop\n  jump\t// out\n    /* \"#utility.yul\":657:1202   */\ntag_129:\n    /* \"#utility.yul\":759:761   */\n  0x1f\n    /* \"#utility.yul\":754:757   */\n  dup3\n    /* \"#utility.yul\":751:762   */\n  gt\n    /* \"#utility.yul\":748:1196   */\n  iszero\n  tag_73\n  jumpi\n    /* \"#utility.yul\":795:796   */\n  0x00\n    /* \"#utility.yul\":820:825   */\n  dup2\n    /* \"#utility.yul\":816:818   */\n  dup2\n    /* \"#utility.yul\":809:826   */\n  mstore\n    /* \"#utility.yul\":865:869   */\n  0x20\n    /* \"#utility.yul\":861:863   */\n  dup2\n    /* \"#utility.yul\":851:870   */\n  keccak256\n    /* \"#utility.yul\":935:937   */\n  0x1f\n    /* \"#utility.yul\":923:933   */\n  dup6\n    /* \"#utility.yul\":919:938   */\n  add\n    /* \"#utility.yul\":916:917   */\n  0x05\n    /* \"#utility.yul\":912:939   */\n  shr\n    /* \"#utility.yul\":906:910   */\n  dup2\n    /* \"#utility.yul\":902:940   */\n  add\n    /* \"#utility.yul\":971:975   */\n  0x20\n    /* \"#utility.yul\":959:969   */\n  dup7\n    /* \"#utility.yul\":956:976   */\n  lt\n    /* \"#utility.yul\":953:1000   */\n  iszero\n  tag_141\n  jumpi\n  pop\n    /* \"#utility.yul\":994:998   */\n  dup1\n    /* \"#utility.yul\":953:1000   */\ntag_141:\n    /* \"#utility.yul\":1049:1051   */\n  0x1f\n    /* \"#utility.yul\":1044:1047   */\n  dup6\n    /* \"#utility.yul\":1040:1052   */\n  add\n    /* \"#utility.yul\":1037:1038   */\n  0x05\n    /* \"#utility.yul\":1033:1053   */\n  shr\n    /* \"#utility.yul\":1027:1031   */\n  dup3\n    /* \"#utility.yul\":1023:1054   */\n  add\n    /* \"#utility.yul\":1013:1054   */\n  swap2\n  pop\n    /* \"#utility.yul\":1104:1186   */\ntag_142:\n    /* \"#utility.yul\":1122:1124   */\n  dup2\n    /* \"#utility.yul\":1115:1120   */\n  dup2\n    /* \"#utility.yul\":1112:1125   */\n  lt\n    /* \"#utility.yul\":1104:1186   */\n  iszero\n  tag_144\n  jumpi\n    /* \"#utility.yul\":1167:1184   */\n  dup3\n  dup2\n  sstore\n    /* \"#utility.yul\":1148:1149   */\n  0x01\n    /* \"#utility.yul\":1137:1150   */\n  add\n    /* \"#utility.yul\":1104:1186   */\n  jump(tag_142)\ntag_144:\n    /* \"#utility.yul\":1108:1111   */\n  pop\n  pop\n  pop\n    /* \"#utility.yul\":657:1202   */\n  pop\n  pop\n  pop\n  jump\t// out\n    /* \"#utility.yul\":1378:2730   */\ntag_2:\n    /* \"#utility.yul\":1498:1508   */\n  dup2\n  mload\n  sub(shl(0x40, 0x01), 0x01)\n    /* \"#utility.yul\":1520:1550   */\n  dup2\n  gt\n    /* \"#utility.yul\":1517:1573   */\n  iszero\n  tag_148\n  jumpi\n    /* \"#utility.yul\":1553:1571   */\n  tag_148\n  tag_126\n  jump\t// in\ntag_148:\n    /* \"#utility.yul\":1582:1679   */\n  tag_149\n    /* \"#utility.yul\":1672:1678   */\n  dup2\n    /* \"#utility.yul\":1632:1670   */\n  tag_150\n    /* \"#utility.yul\":1664:1668   */\n  dup5\n    /* \"#utility.yul\":1658:1669   */\n  sload\n    /* \"#utility.yul\":1632:1670   */\n  tag_127\n  jump\t// in\ntag_150:\n    /* \"#utility.yul\":1626:1630   */\n  dup5\n    /* \"#utility.yul\":1582:1679   */\n  tag_129\n  jump\t// in\ntag_149:\n    /* \"#utility.yul\":1734:1738   */\n  0x20\n  dup1\n    /* \"#utility.yul\":1798:1800   */\n  0x1f\n    /* \"#utility.yul\":1787:1801   */\n  dup4\n  gt\n    /* \"#utility.yul\":1815:1816   */\n  0x01\n    /* \"#utility.yul\":1810:2473   */\n  dup2\n  eq\n  tag_152\n  jumpi\n    /* \"#utility.yul\":2517:2518   */\n  0x00\n    /* \"#utility.yul\":2534:2540   */\n  dup5\n    /* \"#utility.yul\":2531:2620   */\n  iszero\n  tag_153\n  jumpi\n  pop\n    /* \"#utility.yul\":2586:2605   */\n  dup6\n  dup4\n  add\n    /* \"#utility.yul\":2580:2606   */\n  mload\n    /* \"#utility.yul\":2531:2620   */\ntag_153:\n  not(0x00)\n    /* \"#utility.yul\":1335:1336   */\n  0x03\n    /* \"#utility.yul\":1331:1342   */\n  dup7\n  swap1\n  shl\n    /* \"#utility.yul\":1327:1351   */\n  shr\n    /* \"#utility.yul\":1323:1352   */\n  not\n    /* \"#utility.yul\":1313:1353   */\n  and\n    /* \"#utility.yul\":1359:1360   */\n  0x01\n    /* \"#utility.yul\":1355:1366   */\n  dup6\n  swap1\n  shl\n    /* \"#utility.yul\":1310:1367   */\n  or\n    /* \"#utility.yul\":2633:2714   */\n  dup6\n  sstore\n    /* \"#utility.yul\":1780:2724   */\n  jump(tag_144)\n    /* \"#utility.yul\":1810:2473   */\ntag_152:\n    /* \"#utility.yul\":604:605   */\n  0x00\n    /* \"#utility.yul\":597:611   */\n  dup6\n  dup2\n  mstore\n    /* \"#utility.yul\":641:645   */\n  0x20\n    /* \"#utility.yul\":628:646   */\n  dup2\n  keccak256\n  not(0x1f)\n    /* \"#utility.yul\":1846:1866   */\n  dup7\n  and\n  swap2\n    /* \"#utility.yul\":1964:2200   */\ntag_156:\n    /* \"#utility.yul\":1978:1985   */\n  dup3\n    /* \"#utility.yul\":1975:1976   */\n  dup2\n    /* \"#utility.yul\":1972:1986   */\n  lt\n    /* \"#utility.yul\":1964:2200   */\n  iszero\n  tag_158\n  jumpi\n    /* \"#utility.yul\":2067:2086   */\n  dup9\n  dup7\n  add\n    /* \"#utility.yul\":2061:2087   */\n  mload\n    /* \"#utility.yul\":2046:2088   */\n  dup3\n  sstore\n    /* \"#utility.yul\":2159:2186   */\n  swap5\n  dup5\n  add\n  swap5\n    /* \"#utility.yul\":2127:2128   */\n  0x01\n    /* \"#utility.yul\":2115:2129   */\n  swap1\n  swap2\n  add\n  swap1\n    /* \"#utility.yul\":1994:2013   */\n  dup5\n  add\n    /* \"#utility.yul\":1964:2200   */\n  jump(tag_156)\ntag_158:\n    /* \"#utility.yul\":1968:1971   */\n  pop\n    /* \"#utility.yul\":2228:2234   */\n  dup6\n    /* \"#utility.yul\":2219:2226   */\n  dup3\n    /* \"#utility.yul\":2216:2235   */\n  lt\n    /* \"#utility.yul\":2213:2414   */\n  iszero\n  tag_159\n  jumpi\n    /* \"#utility.yul\":2289:2308   */\n  dup8\n  dup6\n  add\n    /* \"#utility.yul\":2283:2309   */\n  mload\n  not(0x00)\n    /* \"#utility.yul\":2372:2373   */\n  0x03\n    /* \"#utility.yul\":2368:2382   */\n  dup9\n  swap1\n  shl\n    /* \"#utility.yul\":2384:2387   */\n  0xf8\n    /* \"#utility.yul\":2364:2388   */\n  and\n    /* \"#utility.yul\":2360:2397   */\n  shr\n    /* \"#utility.yul\":2356:2398   */\n  not\n    /* \"#utility.yul\":2341:2399   */\n  and\n    /* \"#utility.yul\":2326:2400   */\n  dup2\n  sstore\n    /* \"#utility.yul\":2213:2414   */\ntag_159:\n  pop\n  pop\n  pop\n  pop\n  pop\n    /* \"#utility.yul\":2460:2461   */\n  0x01\n    /* \"#utility.yul\":2444:2458   */\n  swap1\n  dup2\n  shl\n    /* \"#utility.yul\":2440:2462   */\n  add\n    /* \"#utility.yul\":2427:2463   */\n  swap1\n  sstore\n  pop\n    /* \"#utility.yul\":1378:2730   */\n  jump\t// out\n    /* \"#utility.yul\":2735:2993   */\ntag_131:\n    /* \"#utility.yul\":2807:2808   */\n  0x00\n    /* \"#utility.yul\":2817:2930   */\ntag_161:\n    /* \"#utility.yul\":2831:2837   */\n  dup4\n    /* \"#utility.yul\":2828:2829   */\n  dup2\n    /* \"#utility.yul\":2825:2838   */\n  lt\n    /* \"#utility.yul\":2817:2930   */\n  iszero\n  tag_163\n  jumpi\n    /* \"#utility.yul\":2907:2918   */\n  dup2\n  dup2\n  add\n    /* \"#utility.yul\":2901:2919   */\n  mload\n    /* \"#utility.yul\":2888:2899   */\n  dup4\n  dup3\n  add\n    /* \"#utility.yul\":2881:2920   */\n  mstore\n    /* \"#utility.yul\":2853:2855   */\n  0x20\n    /* \"#utility.yul\":2846:2856   */\n  add\n    /* \"#utility.yul\":2817:2930   */\n  jump(tag_161)\ntag_163:\n    /* \"#utility.yul\":2948:2954   */\n  dup4\n    /* \"#utility.yul\":2945:2946   */\n  dup2\n    /* \"#utility.yul\":2942:2955   */\n  gt\n    /* \"#utility.yul\":2939:2987   */\n  iszero\n  tag_61\n  jumpi\n  pop\n  pop\n    /* \"#utility.yul\":2983:2984   */\n  0x00\n    /* \"#utility.yul\":2965:2981   */\n  swap2\n  add\n    /* \"#utility.yul\":2958:2985   */\n  mstore\n    /* \"#utility.yul\":2735:2993   */\n  jump\t// out\n    /* \"#utility.yul\":2998:3175   */\ntag_132:\n    /* \"#utility.yul\":3077:3090   */\n  dup1\n  mload\n  sub(shl(0xa0, 0x01), 0x01)\n    /* \"#utility.yul\":3119:3150   */\n  dup2\n  and\n    /* \"#utility.yul\":3109:3151   */\n  dup2\n  eq\n    /* \"#utility.yul\":3099:3169   */\n  tag_166\n  jumpi\n    /* \"#utility.yul\":3165:3166   */\n  0x00\n    /* \"#utility.yul\":3162:3163   */\n  dup1\n    /* \"#utility.yul\":3155:3167   */\n  revert\n    /* \"#utility.yul\":3099:3169   */\ntag_166:\n    /* \"#utility.yul\":2998:3175   */\n  swap2\n  swap1\n  pop\n  jump\t// out\n    /* \"#utility.yul\":3180:4157   */\ntag_5:\n    /* \"#utility.yul\":3269:3275   */\n  0x00\n    /* \"#utility.yul\":3277:3283   */\n  dup1\n    /* \"#utility.yul\":3330:3332   */\n  0x40\n    /* \"#utility.yul\":3318:3327   */\n  dup4\n    /* \"#utility.yul\":3309:3316   */\n  dup6\n    /* \"#utility.yul\":3305:3328   */\n  sub\n    /* \"#utility.yul\":3301:3333   */\n  slt\n    /* \"#utility.yul\":3298:3350   */\n  iszero\n  tag_168\n  jumpi\n    /* \"#utility.yul\":3346:3347   */\n  0x00\n    /* \"#utility.yul\":3343:3344   */\n  dup1\n    /* \"#utility.yul\":3336:3348   */\n  revert\n    /* \"#utility.yul\":3298:3350   */\ntag_168:\n    /* \"#utility.yul\":3373:3389   */\n  dup3\n  mload\n  sub(shl(0x40, 0x01), 0x01)\n    /* \"#utility.yul\":3438:3452   */\n  dup1\n  dup3\n  gt\n    /* \"#utility.yul\":3435:3469   */\n  iszero\n  tag_169\n  jumpi\n    /* \"#utility.yul\":3465:3466   */\n  0x00\n    /* \"#utility.yul\":3462:3463   */\n  dup1\n    /* \"#utility.yul\":3455:3467   */\n  revert\n    /* \"#utility.yul\":3435:3469   */\ntag_169:\n    /* \"#utility.yul\":3503:3509   */\n  dup2\n    /* \"#utility.yul\":3492:3501   */\n  dup6\n    /* \"#utility.yul\":3488:3510   */\n  add\n    /* \"#utility.yul\":3478:3510   */\n  swap2\n  pop\n    /* \"#utility.yul\":3548:3555   */\n  dup6\n    /* \"#utility.yul\":3541:3545   */\n  0x1f\n    /* \"#utility.yul\":3537:3539   */\n  dup4\n    /* \"#utility.yul\":3533:3546   */\n  add\n    /* \"#utility.yul\":3529:3556   */\n  slt\n    /* \"#utility.yul\":3519:3574   */\n  tag_170\n  jumpi\n    /* \"#utility.yul\":3570:3571   */\n  0x00\n    /* \"#utility.yul\":3567:3568   */\n  dup1\n    /* \"#utility.yul\":3560:3572   */\n  revert\n    /* \"#utility.yul\":3519:3574   */\ntag_170:\n    /* \"#utility.yul\":3599:3601   */\n  dup2\n    /* \"#utility.yul\":3593:3602   */\n  mload\n    /* \"#utility.yul\":3621:3623   */\n  dup2\n    /* \"#utility.yul\":3617:3619   */\n  dup2\n    /* \"#utility.yul\":3614:3624   */\n  gt\n    /* \"#utility.yul\":3611:3647   */\n  iszero\n  tag_172\n  jumpi\n    /* \"#utility.yul\":3627:3645   */\n  tag_172\n  tag_126\n  jump\t// in\ntag_172:\n    /* \"#utility.yul\":3702:3704   */\n  0x40\n    /* \"#utility.yul\":3696:3705   */\n  mload\n    /* \"#utility.yul\":3670:3672   */\n  0x1f\n    /* \"#utility.yul\":3756:3769   */\n  dup3\n  add\n  not(0x1f)\n    /* \"#utility.yul\":3752:3774   */\n  swap1\n  dup2\n  and\n    /* \"#utility.yul\":3776:3778   */\n  0x3f\n    /* \"#utility.yul\":3748:3779   */\n  add\n    /* \"#utility.yul\":3744:3784   */\n  and\n    /* \"#utility.yul\":3732:3785   */\n  dup2\n  add\n  swap1\n    /* \"#utility.yul\":3800:3818   */\n  dup4\n  dup3\n  gt\n    /* \"#utility.yul\":3820:3842   */\n  dup2\n  dup4\n  lt\n    /* \"#utility.yul\":3797:3843   */\n  or\n    /* \"#utility.yul\":3794:3866   */\n  iszero\n  tag_174\n  jumpi\n    /* \"#utility.yul\":3846:3864   */\n  tag_174\n  tag_126\n  jump\t// in\ntag_174:\n    /* \"#utility.yul\":3886:3896   */\n  dup2\n    /* \"#utility.yul\":3882:3884   */\n  0x40\n    /* \"#utility.yul\":3875:3897   */\n  mstore\n    /* \"#utility.yul\":3921:3923   */\n  dup3\n    /* \"#utility.yul\":3913:3919   */\n  dup2\n    /* \"#utility.yul\":3906:3924   */\n  mstore\n    /* \"#utility.yul\":3963:3970   */\n  dup9\n    /* \"#utility.yul\":3956:3960   */\n  0x20\n    /* \"#utility.yul\":3951:3953   */\n  dup5\n    /* \"#utility.yul\":3947:3949   */\n  dup8\n    /* \"#utility.yul\":3943:3954   */\n  add\n    /* \"#utility.yul\":3939:3961   */\n  add\n    /* \"#utility.yul\":3936:3971   */\n  gt\n    /* \"#utility.yul\":3933:3988   */\n  iszero\n  tag_175\n  jumpi\n    /* \"#utility.yul\":3984:3985   */\n  0x00\n    /* \"#utility.yul\":3981:3982   */\n  dup1\n    /* \"#utility.yul\":3974:3986   */\n  revert\n    /* \"#utility.yul\":3933:3988   */\ntag_175:\n    /* \"#utility.yul\":3997:4056   */\n  tag_176\n    /* \"#utility.yul\":4053:4055   */\n  dup4\n    /* \"#utility.yul\":4046:4050   */\n  0x20\n    /* \"#utility.yul\":4038:4044   */\n  dup4\n    /* \"#utility.yul\":4034:4051   */\n  add\n    /* \"#utility.yul\":4027:4031   */\n  0x20\n    /* \"#utility.yul\":4023:4025   */\n  dup9\n    /* \"#utility.yul\":4019:4032   */\n  add\n    /* \"#utility.yul\":3997:4056   */\n  tag_131\n  jump\t// in\ntag_176:\n    /* \"#utility.yul\":4075:4081   */\n  dup1\n    /* \"#utility.yul\":4065:4081   */\n  swap7\n  pop\n  pop\n  pop\n  pop\n  pop\n  pop\n    /* \"#utility.yul\":4100:4151   */\n  tag_177\n    /* \"#utility.yul\":4145:4149   */\n  0x20\n    /* \"#utility.yul\":4134:4143   */\n  dup5\n    /* \"#utility.yul\":4130:4150   */\n  add\n    /* \"#utility.yul\":4100:4151   */\n  tag_132\n  jump\t// in\ntag_177:\n    /* \"#utility.yul\":4090:4151   */\n  swap1\n  pop\n    /* \"#utility.yul\":3180:4157   */\n  swap3\n  pop\n  swap3\n  swap1\n  pop\n  jump\t// out\n    /* \"#utility.yul\":5064:5289   */\ntag_57:\n    /* \"#utility.yul\":5104:5107   */\n  0x00\n    /* \"#utility.yul\":5135:5136   */\n  dup3\n    /* \"#utility.yul\":5131:5137   */\n  not\n    /* \"#utility.yul\":5128:5129   */\n  dup3\n    /* \"#utility.yul\":5125:5138   */\n  gt\n    /* \"#utility.yul\":5122:5258   */\n  iszero\n  tag_182\n  jumpi\n    /* \"#utility.yul\":5180:5190   */\n  0x4e487b71\n    /* \"#utility.yul\":5175:5178   */\n  0xe0\n    /* \"#utility.yul\":5171:5191   */\n  shl\n    /* \"#utility.yul\":5168:5169   */\n  0x00\n    /* \"#utility.yul\":5161:5192   */\n  mstore\n    /* \"#utility.yul\":5215:5219   */\n  0x11\n    /* \"#utility.yul\":5212:5213   */\n  0x04\n    /* \"#utility.yul\":5205:5220   */\n  mstore\n    /* \"#utility.yul\":5243:5247   */\n  0x24\n    /* \"#utility.yul\":5240:5241   */\n  0x00\n    /* \"#utility.yul\":5233:5248   */\n  revert\n    /* \"#utility.yul\":5122:5258   */\ntag_182:\n  pop\n    /* \"#utility.yul\":5274:5283   */\n  add\n  swap1\n    /* \"#utility.yul\":5064:5289   */\n  jump\t// out\n    /* \"#utility.yul\":5638:6292   */\ntag_101:\n    /* \"#utility.yul\":5832:5836   */\n  0x00\n    /* \"#utility.yul\":5878:5879   */\n  0x01\n    /* \"#utility.yul\":5874:5875   */\n  dup1\n    /* \"#utility.yul\":5869:5872   */\n  0xa0\n    /* \"#utility.yul\":5865:5876   */\n  shl\n    /* \"#utility.yul\":5861:5880   */\n  sub\n    /* \"#utility.yul\":5919:5921   */\n  dup1\n    /* \"#utility.yul\":5911:5917   */\n  dup8\n    /* \"#utility.yul\":5907:5922   */\n  and\n    /* \"#utility.yul\":5896:5905   */\n  dup4\n    /* \"#utility.yul\":5889:5923   */\n  mstore\n    /* \"#utility.yul\":5971:5973   */\n  dup1\n    /* \"#utility.yul\":5963:5969   */\n  dup7\n    /* \"#utility.yul\":5959:5974   */\n  and\n    /* \"#utility.yul\":5954:5956   */\n  0x20\n    /* \"#utility.yul\":5943:5952   */\n  dup5\n    /* \"#utility.yul\":5939:5957   */\n  add\n    /* \"#utility.yul\":5932:5975   */\n  mstore\n  pop\n    /* \"#utility.yul\":6011:6017   */\n  dup4\n    /* \"#utility.yul\":6006:6008   */\n  0x40\n    /* \"#utility.yul\":5995:6004   */\n  dup4\n    /* \"#utility.yul\":5991:6009   */\n  add\n    /* \"#utility.yul\":5984:6018   */\n  mstore\n    /* \"#utility.yul\":6054:6057   */\n  0x80\n    /* \"#utility.yul\":6049:6051   */\n  0x60\n    /* \"#utility.yul\":6038:6047   */\n  dup4\n    /* \"#utility.yul\":6034:6052   */\n  add\n    /* \"#utility.yul\":6027:6058   */\n  mstore\n    /* \"#utility.yul\":6087:6093   */\n  dup3\n    /* \"#utility.yul\":6081:6094   */\n  mload\n    /* \"#utility.yul\":6131:6137   */\n  dup1\n    /* \"#utility.yul\":6125:6128   */\n  0x80\n    /* \"#utility.yul\":6114:6123   */\n  dup5\n    /* \"#utility.yul\":6110:6129   */\n  add\n    /* \"#utility.yul\":6103:6138   */\n  mstore\n    /* \"#utility.yul\":6147:6214   */\n  tag_185\n    /* \"#utility.yul\":6207:6213   */\n  dup2\n    /* \"#utility.yul\":6201:6204   */\n  0xa0\n    /* \"#utility.yul\":6190:6199   */\n  dup6\n    /* \"#utility.yul\":6186:6205   */\n  add\n    /* \"#utility.yul\":6181:6183   */\n  0x20\n    /* \"#utility.yul\":6173:6179   */\n  dup8\n    /* \"#utility.yul\":6169:6184   */\n  add\n    /* \"#utility.yul\":6147:6214   */\n  tag_131\n  jump\t// in\ntag_185:\n    /* \"#utility.yul\":6275:6277   */\n  0x1f\n    /* \"#utility.yul\":6254:6269   */\n  add\n  not(0x1f)\n    /* \"#utility.yul\":6250:6279   */\n  and\n    /* \"#utility.yul\":6235:6280   */\n  swap2\n  swap1\n  swap2\n  add\n    /* \"#utility.yul\":6282:6285   */\n  0xa0\n    /* \"#utility.yul\":6231:6286   */\n  add\n  swap6\n    /* \"#utility.yul\":5638:6292   */\n  swap5\n  pop\n  pop\n  pop\n  pop\n  pop\n  jump\t// out\n    /* \"#utility.yul\":6297:6587   */\ntag_104:\n    /* \"#utility.yul\":6366:6372   */\n  0x00\n    /* \"#utility.yul\":6419:6421   */\n  0x20\n    /* \"#utility.yul\":6407:6416   */\n  dup3\n    /* \"#utility.yul\":6398:6405   */\n  dup5\n    /* \"#utility.yul\":6394:6417   */\n  sub\n    /* \"#utility.yul\":6390:6422   */\n  slt\n    /* \"#utility.yul\":6387:6439   */\n  iszero\n  tag_187\n  jumpi\n    /* \"#utility.yul\":6435:6436   */\n  0x00\n    /* \"#utility.yul\":6432:6433   */\n  dup1\n    /* \"#utility.yul\":6425:6437   */\n  revert\n    /* \"#utility.yul\":6387:6439   */\ntag_187:\n    /* \"#utility.yul\":6461:6477   */\n  dup2\n  mload\n  not(sub(shl(0xe0, 0x01), 0x01))\n    /* \"#utility.yul\":6506:6538   */\n  dup2\n  and\n    /* \"#utility.yul\":6496:6539   */\n  dup2\n  eq\n    /* \"#utility.yul\":6486:6557   */\n  tag_188\n  jumpi\n    /* \"#utility.yul\":6553:6554   */\n  0x00\n    /* \"#utility.yul\":6550:6551   */\n  dup1\n    /* \"#utility.yul\":6543:6555   */\n  revert\n    /* \"#utility.yul\":6486:6557   */\ntag_188:\n    /* \"#utility.yul\":6576:6581   */\n  swap4\n    /* \"#utility.yul\":6297:6587   */\n  swap3\n  pop\n  pop\n  pop\n  jump\t// out\ntag_133:\n    /* \"ERC721A/NagaKidsERC721A.sol\":332:2991  contract NagaKids is ERC721A, ERC721ABurnable, Ownable {... */\n  dataSize(sub_0)\n  dup1\n  dataOffset(sub_0)\n  0x00\n  codecopy\n  0x00\n  return\nstop\ndata_9924ebdf1add33d25d4ef888e16131f0a5687b0580a36c21b5c301a6c462effe 4f776e61626c653a2063616c6c6572206973206e6f7420746865206f776e6572\n\nsub_0: assembly {\n        /* \"ERC721A/NagaKidsERC721A.sol\":332:2991  contract NagaKids is ERC721A, ERC721ABurnable, Ownable {... */\n      mstore(0x40, 0x80)\n      callvalue\n      dup1\n      iszero\n      tag_1\n      jumpi\n      0x00\n      dup1\n      revert\n    tag_1:\n      pop\n      jumpi(tag_2, lt(calldatasize, 0x04))\n      shr(0xe0, calldataload(0x00))\n      dup1\n      0x715018a6\n      gt\n      tag_27\n      jumpi\n      dup1\n      0xb88d4fde\n      gt\n      tag_28\n      jumpi\n      dup1\n      0xb88d4fde\n      eq\n      tag_21\n      jumpi\n      dup1\n      0xc6682862\n      eq\n      tag_22\n      jumpi\n      dup1\n      0xc87b56dd\n      eq\n      tag_23\n      jumpi\n      dup1\n      0xd5abeb01\n      eq\n      tag_24\n      jumpi\n      dup1\n      0xe985e9c5\n      eq\n      tag_25\n      jumpi\n      dup1\n      0xf2fde38b\n      eq\n      tag_26\n      jumpi\n      0x00\n      dup1\n      revert\n    tag_28:\n      dup1\n      0x715018a6\n      eq\n      tag_15\n      jumpi\n      dup1\n      0x8da5cb5b\n      eq\n      tag_16\n      jumpi\n      dup1\n      0x95d89b41\n      eq\n      tag_17\n      jumpi\n      dup1\n      0xa1448194\n      eq\n      tag_18\n      jumpi\n      dup1\n      0xa22cb465\n      eq\n      tag_19\n      jumpi\n      dup1\n      0xaa271e1a\n      eq\n      tag_20\n      jumpi\n      0x00\n      dup1\n      revert\n    tag_27:\n      dup1\n      0x3c713026\n      gt\n      tag_29\n      jumpi\n      dup1\n      0x3c713026\n      eq\n      tag_9\n      jumpi\n      dup1\n      0x42842e0e\n      eq\n      tag_10\n      jumpi\n      dup1\n      0x42966c68\n      eq\n      tag_11\n      jumpi\n      dup1\n      0x55f804b3\n      eq\n      tag_12\n      jumpi\n      dup1\n      0x6352211e\n      eq\n      tag_13\n      jumpi\n      dup1\n      0x70a08231\n      eq\n      tag_14\n      jumpi\n      0x00\n      dup1\n      revert\n    tag_29:\n      dup1\n      0x01ffc9a7\n      eq\n      tag_3\n      jumpi\n      dup1\n      0x06fdde03\n      eq\n      tag_4\n      jumpi\n      dup1\n      0x081812fc\n      eq\n      tag_5\n      jumpi\n      dup1\n      0x095ea7b3\n      eq\n      tag_6\n      jumpi\n      dup1\n      0x18160ddd\n      eq\n      tag_7\n      jumpi\n      dup1\n      0x23b872dd\n      eq\n      tag_8\n      jumpi\n    tag_2:\n      0x00\n      dup1\n      revert\n        /* \"ERC721A/NagaKidsERC721A.sol\":2673:2877  function supportsInterface(bytes4 interfaceId)... */\n    tag_3:\n      tag_30\n      tag_31\n      calldatasize\n      0x04\n      tag_32\n      jump\t// in\n    tag_31:\n      tag_33\n      jump\t// in\n    tag_30:\n      mload(0x40)\n        /* \"#utility.yul\":565:579   */\n      swap1\n      iszero\n        /* \"#utility.yul\":558:580   */\n      iszero\n        /* \"#utility.yul\":540:581   */\n      dup2\n      mstore\n        /* \"#utility.yul\":528:530   */\n      0x20\n        /* \"#utility.yul\":513:531   */\n      add\n        /* \"ERC721A/NagaKidsERC721A.sol\":2673:2877  function supportsInterface(bytes4 interfaceId)... */\n    tag_34:\n      mload(0x40)\n      dup1\n      swap2\n      sub\n      swap1\n      return\n        /* \"erc721a/contracts/ERC721A.sol\":11161:11259  function name() public view virtual override returns (string memory) {... */\n    tag_4:\n      tag_36\n      tag_37\n      jump\t// in\n    tag_36:\n      mload(0x40)\n      tag_34\n      swap2\n      swap1\n      tag_39\n      jump\t// in\n        /* \"erc721a/contracts/ERC721A.sol\":13048:13248  function getApproved(uint256 tokenId) public view override returns (address) {... */\n    tag_5:\n      tag_40\n      tag_41\n      calldatasize\n      0x04\n      tag_42\n      jump\t// in\n    tag_41:\n      tag_43\n      jump\t// in\n    tag_40:\n      mload(0x40)\n      sub(shl(0xa0, 0x01), 0x01)\n        /* \"#utility.yul\":1692:1724   */\n      swap1\n      swap2\n      and\n        /* \"#utility.yul\":1674:1725   */\n      dup2\n      mstore\n        /* \"#utility.yul\":1662:1664   */\n      0x20\n        /* \"#utility.yul\":1647:1665   */\n      add\n        /* \"erc721a/contracts/ERC721A.sol\":13048:13248  function getApproved(uint256 tokenId) public view override returns (address) {... */\n      tag_34\n        /* \"#utility.yul\":1528:1731   */\n      jump\n        /* \"erc721a/contracts/ERC721A.sol\":12611:12987  function approve(address to, uint256 tokenId) public override {... */\n    tag_6:\n      tag_46\n      tag_47\n      calldatasize\n      0x04\n      tag_48\n      jump\t// in\n    tag_47:\n      tag_49\n      jump\t// in\n    tag_46:\n      stop\n        /* \"erc721a/contracts/ERC721A.sol\":4736:5045  function totalSupply() public view override returns (uint256) {... */\n    tag_7:\n        /* \"ERC721A/NagaKidsERC721A.sol\":2977:2978  1 */\n      0x01\n        /* \"erc721a/contracts/ERC721A.sol\":4998:5010  _burnCounter */\n      sload\n        /* \"erc721a/contracts/ERC721A.sol\":4789:4796  uint256 */\n      0x00\n        /* \"erc721a/contracts/ERC721A.sol\":4982:4995  _currentIndex */\n      sload\n        /* \"erc721a/contracts/ERC721A.sol\":4982:5010  _currentIndex - _burnCounter */\n      sub\n      not(0x00)\n        /* \"erc721a/contracts/ERC721A.sol\":4982:5028  _currentIndex - _burnCounter - _startTokenId() */\n      add\n        /* \"erc721a/contracts/ERC721A.sol\":4736:5045  function totalSupply() public view override returns (uint256) {... */\n    tag_50:\n      mload(0x40)\n        /* \"#utility.yul\":2319:2344   */\n      swap1\n      dup2\n      mstore\n        /* \"#utility.yul\":2307:2309   */\n      0x20\n        /* \"#utility.yul\":2292:2310   */\n      add\n        /* \"erc721a/contracts/ERC721A.sol\":4736:5045  function totalSupply() public view override returns (uint256) {... */\n      tag_34\n        /* \"#utility.yul\":2173:2350   */\n      jump\n        /* \"erc721a/contracts/ERC721A.sol\":22055:24794  function transferFrom(... */\n    tag_8:\n      tag_46\n      tag_55\n      calldatasize\n      0x04\n      tag_56\n      jump\t// in\n    tag_55:\n      tag_57\n      jump\t// in\n        /* \"ERC721A/NagaKidsERC721A.sol\":1154:1333  function setAllowMinter(address minter, bool allowed) public onlyOwner {... */\n    tag_9:\n      tag_46\n      tag_59\n      calldatasize\n      0x04\n      tag_60\n      jump\t// in\n    tag_59:\n      tag_61\n      jump\t// in\n        /* \"erc721a/contracts/ERC721A.sol\":13912:14091  function safeTransferFrom(... */\n    tag_10:\n      tag_46\n      tag_63\n      calldatasize\n      0x04\n      tag_56\n      jump\t// in\n    tag_63:\n      tag_64\n      jump\t// in\n        /* \"erc721a/contracts/extensions/ERC721ABurnable.sol\":513:605  function burn(uint256 tokenId) public virtual override {... */\n    tag_11:\n      tag_46\n      tag_66\n      calldatasize\n      0x04\n      tag_42\n      jump\t// in\n    tag_66:\n      tag_67\n      jump\t// in\n        /* \"ERC721A/NagaKidsERC721A.sol\":1449:1551  function setBaseURI(string memory newBaseURI) public onlyOwner {... */\n    tag_12:\n      tag_46\n      tag_69\n      calldatasize\n      0x04\n      tag_70\n      jump\t// in\n    tag_69:\n      tag_71\n      jump\t// in\n        /* \"erc721a/contracts/ERC721A.sol\":10957:11099  function ownerOf(uint256 tokenId) public view override returns (address) {... */\n    tag_13:\n      tag_40\n      tag_73\n      calldatasize\n      0x04\n      tag_42\n      jump\t// in\n    tag_73:\n      tag_74\n      jump\t// in\n        /* \"erc721a/contracts/ERC721A.sol\":6319:6540  function balanceOf(address owner) public view override returns (uint256) {... */\n    tag_14:\n      tag_50\n      tag_77\n      calldatasize\n      0x04\n      tag_78\n      jump\t// in\n    tag_77:\n      tag_79\n      jump\t// in\n        /* \"@openzeppelin/contracts/access/Ownable.sol\":1668:1769  function renounceOwnership() public virtual onlyOwner {... */\n    tag_15:\n      tag_46\n      tag_82\n      jump\t// in\n        /* \"@openzeppelin/contracts/access/Ownable.sol\":1036:1121  function owner() public view virtual returns (address) {... */\n    tag_16:\n        /* \"@openzeppelin/contracts/access/Ownable.sol\":1108:1114  _owner */\n      and(sub(shl(0xa0, 0x01), 0x01), sload(0x08))\n        /* \"@openzeppelin/contracts/access/Ownable.sol\":1036:1121  function owner() public view virtual returns (address) {... */\n      jump(tag_40)\n        /* \"erc721a/contracts/ERC721A.sol\":11323:11425  function symbol() public view virtual override returns (string memory) {... */\n    tag_17:\n      tag_36\n      tag_87\n      jump\t// in\n        /* \"ERC721A/NagaKidsERC721A.sol\":2012:2238  function safeMint(address to,uint amount) public Minter(msg.sender) {... */\n    tag_18:\n      tag_46\n      tag_90\n      calldatasize\n      0x04\n      tag_48\n      jump\t// in\n    tag_90:\n      tag_91\n      jump\t// in\n        /* \"erc721a/contracts/ERC721A.sol\":13315:13618  function setApprovalForAll(address operator, bool approved) public virtual override {... */\n    tag_19:\n      tag_46\n      tag_93\n      calldatasize\n      0x04\n      tag_60\n      jump\t// in\n    tag_93:\n      tag_94\n      jump\t// in\n        /* \"ERC721A/NagaKidsERC721A.sol\":2246:2352  function isMinter(address minter) public view returns(bool) {... */\n    tag_20:\n      tag_30\n      tag_96\n      calldatasize\n      0x04\n      tag_78\n      jump\t// in\n    tag_96:\n      sub(shl(0xa0, 0x01), 0x01)\n        /* \"ERC721A/NagaKidsERC721A.sol\":2324:2344  _allowMinter[minter] */\n      and\n        /* \"ERC721A/NagaKidsERC721A.sol\":2300:2304  bool */\n      0x00\n        /* \"ERC721A/NagaKidsERC721A.sol\":2324:2344  _allowMinter[minter] */\n      swap1\n      dup2\n      mstore\n        /* \"ERC721A/NagaKidsERC721A.sol\":2324:2336  _allowMinter */\n      0x09\n        /* \"ERC721A/NagaKidsERC721A.sol\":2324:2344  _allowMinter[minter] */\n      0x20\n      mstore\n      0x40\n      swap1\n      keccak256\n      sload\n      0xff\n      and\n      swap1\n        /* \"ERC721A/NagaKidsERC721A.sol\":2246:2352  function isMinter(address minter) public view returns(bool) {... */\n      jump\n        /* \"erc721a/contracts/ERC721A.sol\":14157:14545  function safeTransferFrom(... */\n    tag_21:\n      tag_46\n      tag_100\n      calldatasize\n      0x04\n      tag_101\n      jump\t// in\n    tag_100:\n      tag_102\n      jump\t// in\n        /* \"ERC721A/NagaKidsERC721A.sol\":507:544  string public baseExtension = \".json\" */\n    tag_22:\n      tag_36\n      tag_104\n      jump\t// in\n        /* \"ERC721A/NagaKidsERC721A.sol\":1559:2003  function tokenURI(uint256 tokenId) public view virtual override(ERC721A,IERC721A) returns (string memory){... */\n    tag_23:\n      tag_36\n      tag_107\n      calldatasize\n      0x04\n      tag_42\n      jump\t// in\n    tag_107:\n      tag_108\n      jump\t// in\n        /* \"ERC721A/NagaKidsERC721A.sol\":551:591  uint256 public constant maxSupply = 1111 */\n    tag_24:\n      tag_50\n        /* \"ERC721A/NagaKidsERC721A.sol\":587:591  1111 */\n      0x0457\n        /* \"ERC721A/NagaKidsERC721A.sol\":551:591  uint256 public constant maxSupply = 1111 */\n      dup2\n      jump\n        /* \"erc721a/contracts/ERC721A.sol\":13684:13846  function isApprovedForAll(address owner, address operator) public view virtual override returns (bool) {... */\n    tag_25:\n      tag_30\n      tag_114\n      calldatasize\n      0x04\n      tag_115\n      jump\t// in\n    tag_114:\n      sub(shl(0xa0, 0x01), 0x01)\n        /* \"erc721a/contracts/ERC721A.sol\":13804:13829  _operatorApprovals[owner] */\n      swap2\n      dup3\n      and\n        /* \"erc721a/contracts/ERC721A.sol\":13781:13785  bool */\n      0x00\n        /* \"erc721a/contracts/ERC721A.sol\":13804:13829  _operatorApprovals[owner] */\n      swap1\n      dup2\n      mstore\n        /* \"erc721a/contracts/ERC721A.sol\":13804:13822  _operatorApprovals */\n      0x07\n        /* \"erc721a/contracts/ERC721A.sol\":13804:13829  _operatorApprovals[owner] */\n      0x20\n      swap1\n      dup2\n      mstore\n      0x40\n      dup1\n      dup4\n      keccak256\n        /* \"erc721a/contracts/ERC721A.sol\":13804:13839  _operatorApprovals[owner][operator] */\n      swap4\n      swap1\n      swap5\n      and\n      dup3\n      mstore\n      swap2\n      swap1\n      swap2\n      mstore\n      keccak256\n      sload\n      0xff\n      and\n      swap1\n        /* \"erc721a/contracts/ERC721A.sol\":13684:13846  function isApprovedForAll(address owner, address operator) public view virtual override returns (bool) {... */\n      jump\n        /* \"@openzeppelin/contracts/access/Ownable.sol\":1918:2116  function transferOwnership(address newOwner) public virtual onlyOwner {... */\n    tag_26:\n      tag_46\n      tag_119\n      calldatasize\n      0x04\n      tag_78\n      jump\t// in\n    tag_119:\n      tag_120\n      jump\t// in\n        /* \"ERC721A/NagaKidsERC721A.sol\":2673:2877  function supportsInterface(bytes4 interfaceId)... */\n    tag_33:\n        /* \"ERC721A/NagaKidsERC721A.sol\":2804:2808  bool */\n      0x00\n        /* \"ERC721A/NagaKidsERC721A.sol\":2833:2869  super.supportsInterface(interfaceId) */\n      tag_123\n        /* \"ERC721A/NagaKidsERC721A.sol\":2857:2868  interfaceId */\n      dup3\n        /* \"ERC721A/NagaKidsERC721A.sol\":2833:2856  super.supportsInterface */\n      tag_124\n        /* \"ERC721A/NagaKidsERC721A.sol\":2833:2869  super.supportsInterface(interfaceId) */\n      jump\t// in\n    tag_123:\n        /* \"ERC721A/NagaKidsERC721A.sol\":2826:2869  return super.supportsInterface(interfaceId) */\n      swap3\n        /* \"ERC721A/NagaKidsERC721A.sol\":2673:2877  function supportsInterface(bytes4 interfaceId)... */\n      swap2\n      pop\n      pop\n      jump\t// out\n        /* \"erc721a/contracts/ERC721A.sol\":11161:11259  function name() public view virtual override returns (string memory) {... */\n    tag_37:\n        /* \"erc721a/contracts/ERC721A.sol\":11215:11228  string memory */\n      0x60\n        /* \"erc721a/contracts/ERC721A.sol\":11247:11252  _name */\n      0x02\n        /* \"erc721a/contracts/ERC721A.sol\":11240:11252  return _name */\n      dup1\n      sload\n      tag_126\n      swap1\n      tag_127\n      jump\t// in\n    tag_126:\n      dup1\n      0x1f\n      add\n      0x20\n      dup1\n      swap2\n      div\n      mul\n      0x20\n      add\n      mload(0x40)\n      swap1\n      dup2\n      add\n      0x40\n      mstore\n      dup1\n      swap3\n      swap2\n      swap1\n      dup2\n      dup2\n      mstore\n      0x20\n      add\n      dup3\n      dup1\n      sload\n      tag_128\n      swap1\n      tag_127\n      jump\t// in\n    tag_128:\n      dup1\n      iszero\n      tag_129\n      jumpi\n      dup1\n      0x1f\n      lt\n      tag_130\n      jumpi\n      0x0100\n      dup1\n      dup4\n      sload\n      div\n      mul\n      dup4\n      mstore\n      swap2\n      0x20\n      add\n      swap2\n      jump(tag_129)\n    tag_130:\n      dup3\n      add\n      swap2\n      swap1\n      0x00\n      mstore\n      keccak256(0x00, 0x20)\n      swap1\n    tag_131:\n      dup2\n      sload\n      dup2\n      mstore\n      swap1\n      0x01\n      add\n      swap1\n      0x20\n      add\n      dup1\n      dup4\n      gt\n      tag_131\n      jumpi\n      dup3\n      swap1\n      sub\n      0x1f\n      and\n      dup3\n      add\n      swap2\n    tag_129:\n      pop\n      pop\n      pop\n      pop\n      pop\n      swap1\n      pop\n        /* \"erc721a/contracts/ERC721A.sol\":11161:11259  function name() public view virtual override returns (string memory) {... */\n      swap1\n      jump\t// out\n        /* \"erc721a/contracts/ERC721A.sol\":13048:13248  function getApproved(uint256 tokenId) public view override returns (address) {... */\n    tag_43:\n        /* \"erc721a/contracts/ERC721A.sol\":13116:13123  address */\n      0x00\n        /* \"erc721a/contracts/ERC721A.sol\":13140:13156  _exists(tokenId) */\n      tag_133\n        /* \"erc721a/contracts/ERC721A.sol\":13148:13155  tokenId */\n      dup3\n        /* \"erc721a/contracts/ERC721A.sol\":13140:13147  _exists */\n      tag_134\n        /* \"erc721a/contracts/ERC721A.sol\":13140:13156  _exists(tokenId) */\n      jump\t// in\n    tag_133:\n        /* \"erc721a/contracts/ERC721A.sol\":13135:13199  if (!_exists(tokenId)) revert ApprovalQueryForNonexistentToken() */\n      tag_135\n      jumpi\n        /* \"erc721a/contracts/ERC721A.sol\":13165:13199  ApprovalQueryForNonexistentToken() */\n      mload(0x40)\n      shl(0xe2, 0x33d1c039)\n      dup2\n      mstore\n      0x04\n      add\n      mload(0x40)\n      dup1\n      swap2\n      sub\n      swap1\n      revert\n        /* \"erc721a/contracts/ERC721A.sol\":13135:13199  if (!_exists(tokenId)) revert ApprovalQueryForNonexistentToken() */\n    tag_135:\n      pop\n        /* \"erc721a/contracts/ERC721A.sol\":13217:13241  _tokenApprovals[tokenId] */\n      0x00\n      swap1\n      dup2\n      mstore\n        /* \"erc721a/contracts/ERC721A.sol\":13217:13232  _tokenApprovals */\n      0x06\n        /* \"erc721a/contracts/ERC721A.sol\":13217:13241  _tokenApprovals[tokenId] */\n      0x20\n      mstore\n      0x40\n      swap1\n      keccak256\n      sload\n      sub(shl(0xa0, 0x01), 0x01)\n      and\n      swap1\n        /* \"erc721a/contracts/ERC721A.sol\":13048:13248  function getApproved(uint256 tokenId) public view override returns (address) {... */\n      jump\t// out\n        /* \"erc721a/contracts/ERC721A.sol\":12611:12987  function approve(address to, uint256 tokenId) public override {... */\n    tag_49:\n        /* \"erc721a/contracts/ERC721A.sol\":12683:12696  address owner */\n      0x00\n        /* \"erc721a/contracts/ERC721A.sol\":12699:12715  ownerOf(tokenId) */\n      tag_137\n        /* \"erc721a/contracts/ERC721A.sol\":12707:12714  tokenId */\n      dup3\n        /* \"erc721a/contracts/ERC721A.sol\":12699:12706  ownerOf */\n      tag_74\n        /* \"erc721a/contracts/ERC721A.sol\":12699:12715  ownerOf(tokenId) */\n      jump\t// in\n    tag_137:\n        /* \"erc721a/contracts/ERC721A.sol\":12683:12715  address owner = ownerOf(tokenId) */\n      swap1\n      pop\n        /* \"erc721a/contracts/ERC721A.sol\":32960:32970  msg.sender */\n      caller\n      sub(shl(0xa0, 0x01), 0x01)\n        /* \"erc721a/contracts/ERC721A.sol\":12730:12758  _msgSenderERC721A() != owner */\n      dup3\n      and\n      eq\n        /* \"erc721a/contracts/ERC721A.sol\":12726:12898  if (_msgSenderERC721A() != owner)... */\n      tag_143\n      jumpi\n        /* \"erc721a/contracts/ERC721A.sol\":12777:12821  isApprovedForAll(owner, _msgSenderERC721A()) */\n      tag_141\n        /* \"erc721a/contracts/ERC721A.sol\":12794:12799  owner */\n      dup2\n        /* \"erc721a/contracts/ERC721A.sol\":32960:32970  msg.sender */\n      caller\n        /* \"erc721a/contracts/ERC721A.sol\":13684:13846  function isApprovedForAll(address owner, address operator) public view virtual override returns (bool) {... */\n      tag_114\n      jump\t// in\n        /* \"erc721a/contracts/ERC721A.sol\":12777:12821  isApprovedForAll(owner, _msgSenderERC721A()) */\n    tag_141:\n        /* \"erc721a/contracts/ERC721A.sol\":12772:12898  if (!isApprovedForAll(owner, _msgSenderERC721A())) {... */\n      tag_143\n      jumpi\n        /* \"erc721a/contracts/ERC721A.sol\":12848:12883  ApprovalCallerNotOwnerNorApproved() */\n      mload(0x40)\n      shl(0xe1, 0x67d9dca1)\n      dup2\n      mstore\n      0x04\n      add\n      mload(0x40)\n      dup1\n      swap2\n      sub\n      swap1\n      revert\n        /* \"erc721a/contracts/ERC721A.sol\":12772:12898  if (!isApprovedForAll(owner, _msgSenderERC721A())) {... */\n    tag_143:\n        /* \"erc721a/contracts/ERC721A.sol\":12908:12932  _tokenApprovals[tokenId] */\n      0x00\n      dup3\n      dup2\n      mstore\n        /* \"erc721a/contracts/ERC721A.sol\":12908:12923  _tokenApprovals */\n      0x06\n        /* \"erc721a/contracts/ERC721A.sol\":12908:12932  _tokenApprovals[tokenId] */\n      0x20\n      mstore\n      0x40\n      dup1\n      dup3\n      keccak256\n        /* \"erc721a/contracts/ERC721A.sol\":12908:12937  _tokenApprovals[tokenId] = to */\n      dup1\n      sload\n      not(sub(shl(0xa0, 0x01), 0x01))\n      and\n      sub(shl(0xa0, 0x01), 0x01)\n      dup8\n      dup2\n      and\n      swap2\n      dup3\n      or\n      swap1\n      swap3\n      sstore\n        /* \"erc721a/contracts/ERC721A.sol\":12952:12980  Approval(owner, to, tokenId) */\n      swap2\n      mload\n        /* \"erc721a/contracts/ERC721A.sol\":12908:12932  _tokenApprovals[tokenId] */\n      dup6\n      swap4\n        /* \"erc721a/contracts/ERC721A.sol\":12952:12980  Approval(owner, to, tokenId) */\n      swap2\n      dup6\n      and\n      swap2\n      0x8c5be1e5ebec7d5bd14f71427d1e84f3dd0314c0f7b2291e5b200ac8c7c3b925\n      swap2\n      log4\n        /* \"erc721a/contracts/ERC721A.sol\":12673:12987  {... */\n      pop\n        /* \"erc721a/contracts/ERC721A.sol\":12611:12987  function approve(address to, uint256 tokenId) public override {... */\n      pop\n      pop\n      jump\t// out\n        /* \"erc721a/contracts/ERC721A.sol\":22055:24794  function transferFrom(... */\n    tag_57:\n        /* \"erc721a/contracts/ERC721A.sol\":22184:22211  uint256 prevOwnershipPacked */\n      0x00\n        /* \"erc721a/contracts/ERC721A.sol\":22214:22241  _packedOwnershipOf(tokenId) */\n      tag_148\n        /* \"erc721a/contracts/ERC721A.sol\":22233:22240  tokenId */\n      dup3\n        /* \"erc721a/contracts/ERC721A.sol\":22214:22232  _packedOwnershipOf */\n      tag_149\n        /* \"erc721a/contracts/ERC721A.sol\":22214:22241  _packedOwnershipOf(tokenId) */\n      jump\t// in\n    tag_148:\n        /* \"erc721a/contracts/ERC721A.sol\":22184:22241  uint256 prevOwnershipPacked = _packedOwnershipOf(tokenId) */\n      swap1\n      pop\n        /* \"erc721a/contracts/ERC721A.sol\":22297:22301  from */\n      dup4\n      sub(shl(0xa0, 0x01), 0x01)\n        /* \"erc721a/contracts/ERC721A.sol\":22256:22301  address(uint160(prevOwnershipPacked)) != from */\n      and\n        /* \"erc721a/contracts/ERC721A.sol\":22272:22291  prevOwnershipPacked */\n      dup2\n      sub(shl(0xa0, 0x01), 0x01)\n        /* \"erc721a/contracts/ERC721A.sol\":22256:22301  address(uint160(prevOwnershipPacked)) != from */\n      and\n      eq\n        /* \"erc721a/contracts/ERC721A.sol\":22252:22338  if (address(uint160(prevOwnershipPacked)) != from) revert TransferFromIncorrectOwner() */\n      tag_150\n      jumpi\n        /* \"erc721a/contracts/ERC721A.sol\":22310:22338  TransferFromIncorrectOwner() */\n      mload(0x40)\n      shl(0xe8, 0xa11481)\n      dup2\n      mstore\n      0x04\n      add\n      mload(0x40)\n      dup1\n      swap2\n      sub\n      swap1\n      revert\n        /* \"erc721a/contracts/ERC721A.sol\":22252:22338  if (address(uint160(prevOwnershipPacked)) != from) revert TransferFromIncorrectOwner() */\n    tag_150:\n        /* \"erc721a/contracts/ERC721A.sol\":22350:22377  uint256 approvedAddressSlot */\n      0x00\n        /* \"erc721a/contracts/ERC721A.sol\":20821:20842  mstore(0x00, tokenId) */\n      dup3\n      dup2\n      mstore\n        /* \"erc721a/contracts/ERC721A.sol\":20652:20667  _tokenApprovals */\n      0x06\n        /* \"erc721a/contracts/ERC721A.sol\":20862:20866  0x20 */\n      0x20\n        /* \"erc721a/contracts/ERC721A.sol\":20855:20891  mstore(0x20, tokenApprovalsPtr.slot) */\n      mstore\n        /* \"erc721a/contracts/ERC721A.sol\":20943:20947  0x40 */\n      0x40\n        /* \"erc721a/contracts/ERC721A.sol\":20927:20948  keccak256(0x00, 0x40) */\n      swap1\n      keccak256\n        /* \"erc721a/contracts/ERC721A.sol\":21031:21057  sload(approvedAddressSlot) */\n      dup1\n      sload\n        /* \"erc721a/contracts/ERC721A.sol\":22531:22593  _isOwnerOrApproved(approvedAddress, from, _msgSenderERC721A()) */\n      tag_153\n        /* \"erc721a/contracts/ERC721A.sol\":21031:21057  sload(approvedAddressSlot) */\n      dup2\n        /* \"erc721a/contracts/ERC721A.sol\":22567:22571  from */\n      dup8\n        /* \"erc721a/contracts/ERC721A.sol\":32960:32970  msg.sender */\n      caller\n        /* \"erc721a/contracts/ERC721A.sol\":22573:22592  _msgSenderERC721A() */\n    tag_154:\n      sub(shl(0xa0, 0x01), 0x01)\n        /* \"erc721a/contracts/ERC721A.sol\":21620:21651  and(msgSender, BITMASK_ADDRESS) */\n      swap1\n      dup2\n      and\n        /* \"erc721a/contracts/ERC721A.sol\":21468:21494  and(from, BITMASK_ADDRESS) */\n      swap2\n      and\n        /* \"erc721a/contracts/ERC721A.sol\":21745:21764  eq(msgSender, from) */\n      dup2\n      eq\n        /* \"erc721a/contracts/ERC721A.sol\":21766:21796  eq(msgSender, approvedAddress) */\n      swap2\n      eq\n        /* \"erc721a/contracts/ERC721A.sol\":21742:21797  or(eq(msgSender, from), eq(msgSender, approvedAddress)) */\n      or\n      swap1\n        /* \"erc721a/contracts/ERC721A.sol\":21181:21813  function _isOwnerOrApproved(... */\n      jump\n        /* \"erc721a/contracts/ERC721A.sol\":22531:22593  _isOwnerOrApproved(approvedAddress, from, _msgSenderERC721A()) */\n    tag_153:\n        /* \"erc721a/contracts/ERC721A.sol\":22526:22699  if (!_isOwnerOrApproved(approvedAddress, from, _msgSenderERC721A()))... */\n      tag_159\n      jumpi\n        /* \"erc721a/contracts/ERC721A.sol\":22612:22655  isApprovedForAll(from, _msgSenderERC721A()) */\n      tag_157\n        /* \"erc721a/contracts/ERC721A.sol\":22629:22633  from */\n      dup7\n        /* \"erc721a/contracts/ERC721A.sol\":32960:32970  msg.sender */\n      caller\n        /* \"erc721a/contracts/ERC721A.sol\":13684:13846  function isApprovedForAll(address owner, address operator) public view virtual override returns (bool) {... */\n      tag_114\n      jump\t// in\n        /* \"erc721a/contracts/ERC721A.sol\":22612:22655  isApprovedForAll(from, _msgSenderERC721A()) */\n    tag_157:\n        /* \"erc721a/contracts/ERC721A.sol\":22607:22699  if (!isApprovedForAll(from, _msgSenderERC721A())) revert TransferCallerNotOwnerNorApproved() */\n      tag_159\n      jumpi\n        /* \"erc721a/contracts/ERC721A.sol\":22664:22699  TransferCallerNotOwnerNorApproved() */\n      mload(0x40)\n      shl(0xe1, 0x2ce44b5f)\n      dup2\n      mstore\n      0x04\n      add\n      mload(0x40)\n      dup1\n      swap2\n      sub\n      swap1\n      revert\n        /* \"erc721a/contracts/ERC721A.sol\":22607:22699  if (!isApprovedForAll(from, _msgSenderERC721A())) revert TransferCallerNotOwnerNorApproved() */\n    tag_159:\n      sub(shl(0xa0, 0x01), 0x01)\n        /* \"erc721a/contracts/ERC721A.sol\":22714:22730  to == address(0) */\n      dup6\n      and\n        /* \"erc721a/contracts/ERC721A.sol\":22710:22762  if (to == address(0)) revert TransferToZeroAddress() */\n      tag_160\n      jumpi\n        /* \"erc721a/contracts/ERC721A.sol\":22739:22762  TransferToZeroAddress() */\n      mload(0x40)\n      shl(0xe2, 0x3a954ecd)\n      dup2\n      mstore\n      0x04\n      add\n      mload(0x40)\n      dup1\n      swap2\n      sub\n      swap1\n      revert\n        /* \"erc721a/contracts/ERC721A.sol\":22710:22762  if (to == address(0)) revert TransferToZeroAddress() */\n    tag_160:\n        /* \"erc721a/contracts/ERC721A.sol\":22773:22816  _beforeTokenTransfers(from, to, tokenId, 1) */\n      tag_161\n        /* \"erc721a/contracts/ERC721A.sol\":22795:22799  from */\n      dup7\n        /* \"erc721a/contracts/ERC721A.sol\":22801:22803  to */\n      dup7\n        /* \"erc721a/contracts/ERC721A.sol\":22805:22812  tokenId */\n      dup7\n        /* \"erc721a/contracts/ERC721A.sol\":22814:22815  1 */\n      0x01\n        /* \"erc721a/contracts/ERC721A.sol\":22773:22794  _beforeTokenTransfers */\n      tag_162\n        /* \"erc721a/contracts/ERC721A.sol\":22773:22816  _beforeTokenTransfers(from, to, tokenId, 1) */\n      jump\t// in\n    tag_161:\n        /* \"erc721a/contracts/ERC721A.sol\":22905:22920  approvedAddress */\n      dup1\n        /* \"erc721a/contracts/ERC721A.sol\":22902:23059  if approvedAddress {... */\n      iszero\n      tag_163\n      jumpi\n        /* \"erc721a/contracts/ERC721A.sol\":23043:23044  0 */\n      0x00\n        /* \"erc721a/contracts/ERC721A.sol\":23022:23041  approvedAddressSlot */\n      dup3\n        /* \"erc721a/contracts/ERC721A.sol\":23015:23045  sstore(approvedAddressSlot, 0) */\n      sstore\n        /* \"erc721a/contracts/ERC721A.sol\":22902:23059  if approvedAddress {... */\n    tag_163:\n      sub(shl(0xa0, 0x01), 0x01)\n        /* \"erc721a/contracts/ERC721A.sol\":23429:23453  _packedAddressData[from] */\n      dup7\n      dup2\n      and\n      0x00\n      swap1\n      dup2\n      mstore\n        /* \"erc721a/contracts/ERC721A.sol\":23429:23447  _packedAddressData */\n      0x05\n        /* \"erc721a/contracts/ERC721A.sol\":23429:23453  _packedAddressData[from] */\n      0x20\n      mstore\n      0x40\n      dup1\n      dup3\n      keccak256\n        /* \"erc721a/contracts/ERC721A.sol\":23427:23453  --_packedAddressData[from] */\n      dup1\n      sload\n      not(0x00)\n      add\n      swap1\n      sstore\n        /* \"erc721a/contracts/ERC721A.sol\":23497:23519  _packedAddressData[to] */\n      swap2\n      dup8\n      and\n      dup1\n      dup3\n      mstore\n      swap2\n      swap1\n      keccak256\n        /* \"erc721a/contracts/ERC721A.sol\":23495:23519  ++_packedAddressData[to] */\n      dup1\n      sload\n      0x01\n      add\n      swap1\n      sstore\n        /* \"erc721a/contracts/ERC721A.sol\":10863:10874  timestamp() */\n      timestamp\n        /* \"erc721a/contracts/ERC721A.sol\":10839:10861  BITPOS_START_TIMESTAMP */\n      0xa0\n        /* \"erc721a/contracts/ERC721A.sol\":10835:10875  shl(BITPOS_START_TIMESTAMP, timestamp()) */\n      shl\n        /* \"erc721a/contracts/ERC721A.sol\":10822:10884  or(owner, or(shl(BITPOS_START_TIMESTAMP, timestamp()), flags)) */\n      or\n      shl(0xe1, 0x01)\n      or\n        /* \"erc721a/contracts/ERC721A.sol\":23783:23809  _packedOwnerships[tokenId] */\n      0x00\n      dup6\n      dup2\n      mstore\n        /* \"erc721a/contracts/ERC721A.sol\":23783:23800  _packedOwnerships */\n      0x04\n        /* \"erc721a/contracts/ERC721A.sol\":23783:23809  _packedOwnerships[tokenId] */\n      0x20\n      mstore\n      0x40\n      dup2\n      keccak256\n        /* \"erc721a/contracts/ERC721A.sol\":23783:23954  _packedOwnerships[tokenId] = _packOwnershipData(... */\n      swap2\n      swap1\n      swap2\n      sstore\n      shl(0xe1, 0x01)\n        /* \"erc721a/contracts/ERC721A.sol\":24071:24117  prevOwnershipPacked & BITMASK_NEXT_INITIALIZED */\n      dup5\n      and\n        /* \"erc721a/contracts/ERC721A.sol\":24071:24122  prevOwnershipPacked & BITMASK_NEXT_INITIALIZED == 0 */\n      swap1\n      sub\n        /* \"erc721a/contracts/ERC721A.sol\":24067:24683  if (prevOwnershipPacked & BITMASK_NEXT_INITIALIZED == 0) {... */\n      tag_168\n      jumpi\n        /* \"erc721a/contracts/ERC721A.sol\":24174:24175  1 */\n      0x01\n        /* \"erc721a/contracts/ERC721A.sol\":24164:24175  tokenId + 1 */\n      dup5\n      add\n        /* \"erc721a/contracts/ERC721A.sol\":24142:24161  uint256 nextTokenId */\n      0x00\n        /* \"erc721a/contracts/ERC721A.sol\":24295:24325  _packedOwnerships[nextTokenId] */\n      dup2\n      dup2\n      mstore\n        /* \"erc721a/contracts/ERC721A.sol\":24295:24312  _packedOwnerships */\n      0x04\n        /* \"erc721a/contracts/ERC721A.sol\":24295:24325  _packedOwnerships[nextTokenId] */\n      0x20\n      mstore\n      0x40\n      dup2\n      keccak256\n      sload\n        /* \"erc721a/contracts/ERC721A.sol\":24295:24330  _packedOwnerships[nextTokenId] == 0 */\n      swap1\n      sub\n        /* \"erc721a/contracts/ERC721A.sol\":24291:24669  if (_packedOwnerships[nextTokenId] == 0) {... */\n      tag_170\n      jumpi\n        /* \"erc721a/contracts/ERC721A.sol\":24431:24444  _currentIndex */\n      sload(0x00)\n        /* \"erc721a/contracts/ERC721A.sol\":24416:24427  nextTokenId */\n      dup2\n        /* \"erc721a/contracts/ERC721A.sol\":24416:24444  nextTokenId != _currentIndex */\n      eq\n        /* \"erc721a/contracts/ERC721A.sol\":24412:24651  if (nextTokenId != _currentIndex) {... */\n      tag_170\n      jumpi\n        /* \"erc721a/contracts/ERC721A.sol\":24576:24606  _packedOwnerships[nextTokenId] */\n      0x00\n      dup2\n      dup2\n      mstore\n        /* \"erc721a/contracts/ERC721A.sol\":24576:24593  _packedOwnerships */\n      0x04\n        /* \"erc721a/contracts/ERC721A.sol\":24576:24606  _packedOwnerships[nextTokenId] */\n      0x20\n      mstore\n      0x40\n      swap1\n      keccak256\n        /* \"erc721a/contracts/ERC721A.sol\":24576:24628  _packedOwnerships[nextTokenId] = prevOwnershipPacked */\n      dup5\n      swap1\n      sstore\n        /* \"erc721a/contracts/ERC721A.sol\":24412:24651  if (nextTokenId != _currentIndex) {... */\n    tag_170:\n        /* \"erc721a/contracts/ERC721A.sol\":24124:24683  {... */\n      pop\n        /* \"erc721a/contracts/ERC721A.sol\":24067:24683  if (prevOwnershipPacked & BITMASK_NEXT_INITIALIZED == 0) {... */\n    tag_168:\n        /* \"erc721a/contracts/ERC721A.sol\":24727:24734  tokenId */\n      dup4\n        /* \"erc721a/contracts/ERC721A.sol\":24723:24725  to */\n      dup6\n      sub(shl(0xa0, 0x01), 0x01)\n        /* \"erc721a/contracts/ERC721A.sol\":24708:24735  Transfer(from, to, tokenId) */\n      and\n        /* \"erc721a/contracts/ERC721A.sol\":24717:24721  from */\n      dup8\n      sub(shl(0xa0, 0x01), 0x01)\n        /* \"erc721a/contracts/ERC721A.sol\":24708:24735  Transfer(from, to, tokenId) */\n      and\n      0xddf252ad1be2c89b69c2b068fc378daa952ba7f163c4a11628f55a4df523b3ef\n      mload(0x40)\n      mload(0x40)\n      dup1\n      swap2\n      sub\n      swap1\n      log4\n        /* \"erc721a/contracts/ERC721A.sol\":24745:24787  _afterTokenTransfers(from, to, tokenId, 1) */\n    tag_171:\n        /* \"erc721a/contracts/ERC721A.sol\":22174:24794  {... */\n      pop\n      pop\n      pop\n        /* \"erc721a/contracts/ERC721A.sol\":22055:24794  function transferFrom(... */\n      pop\n      pop\n      pop\n      jump\t// out\n        /* \"ERC721A/NagaKidsERC721A.sol\":1154:1333  function setAllowMinter(address minter, bool allowed) public onlyOwner {... */\n    tag_61:\n        /* \"@openzeppelin/contracts/access/Ownable.sol\":1108:1114  _owner */\n      and(sub(shl(0xa0, 0x01), 0x01), sload(0x08))\n        /* \"erc721a/contracts/ERC721A.sol\":32960:32970  msg.sender */\n      caller\n        /* \"@openzeppelin/contracts/access/Ownable.sol\":1248:1271  owner() == _msgSender() */\n      eq\n        /* \"@openzeppelin/contracts/access/Ownable.sol\":1240:1308  require(owner() == _msgSender(), \"Ownable: caller is not the owner\") */\n      tag_177\n      jumpi\n      mload(0x40)\n      shl(0xe5, 0x461bcd)\n      dup2\n      mstore\n      0x04\n      add\n      tag_178\n      swap1\n      tag_179\n      jump\t// in\n    tag_178:\n      mload(0x40)\n      dup1\n      swap2\n      sub\n      swap1\n      revert\n    tag_177:\n      sub(shl(0xa0, 0x01), 0x01)\n        /* \"ERC721A/NagaKidsERC721A.sol\":1236:1256  _allowMinter[minter] */\n      dup3\n      and\n      0x00\n      dup2\n      dup2\n      mstore\n        /* \"ERC721A/NagaKidsERC721A.sol\":1236:1248  _allowMinter */\n      0x09\n        /* \"ERC721A/NagaKidsERC721A.sol\":1236:1256  _allowMinter[minter] */\n      0x20\n      swap1\n      dup2\n      mstore\n      0x40\n      swap2\n      dup3\n      swap1\n      keccak256\n        /* \"ERC721A/NagaKidsERC721A.sol\":1236:1266  _allowMinter[minter] = allowed */\n      dup1\n      sload\n      not(0xff)\n      and\n      dup6\n      iszero\n      iszero\n      swap1\n      dup2\n      or\n      swap1\n      swap2\n      sstore\n        /* \"ERC721A/NagaKidsERC721A.sol\":1282:1325  SetAllowMinter(msg.sender, minter, allowed) */\n      swap2\n      mload\n        /* \"#utility.yul\":540:581   */\n      swap2\n      dup3\n      mstore\n        /* \"ERC721A/NagaKidsERC721A.sol\":1297:1307  msg.sender */\n      caller\n      swap2\n        /* \"ERC721A/NagaKidsERC721A.sol\":1282:1325  SetAllowMinter(msg.sender, minter, allowed) */\n      0x3c49a0d2dcd603245c20eb1985825d770748295cd570de6d24861080451bbd41\n      swap2\n        /* \"#utility.yul\":513:531   */\n      add\n        /* \"ERC721A/NagaKidsERC721A.sol\":1282:1325  SetAllowMinter(msg.sender, minter, allowed) */\n    tag_181:\n      mload(0x40)\n      dup1\n      swap2\n      sub\n      swap1\n      log3\n        /* \"ERC721A/NagaKidsERC721A.sol\":1154:1333  function setAllowMinter(address minter, bool allowed) public onlyOwner {... */\n      pop\n      pop\n      jump\t// out\n        /* \"erc721a/contracts/ERC721A.sol\":13912:14091  function safeTransferFrom(... */\n    tag_64:\n        /* \"erc721a/contracts/ERC721A.sol\":14045:14084  safeTransferFrom(from, to, tokenId, '') */\n      tag_183\n        /* \"erc721a/contracts/ERC721A.sol\":14062:14066  from */\n      dup4\n        /* \"erc721a/contracts/ERC721A.sol\":14068:14070  to */\n      dup4\n        /* \"erc721a/contracts/ERC721A.sol\":14072:14079  tokenId */\n      dup4\n        /* \"erc721a/contracts/ERC721A.sol\":14045:14084  safeTransferFrom(from, to, tokenId, '') */\n      mload(0x40)\n      dup1\n      0x20\n      add\n      0x40\n      mstore\n      dup1\n      0x00\n      dup2\n      mstore\n      pop\n        /* \"erc721a/contracts/ERC721A.sol\":14045:14061  safeTransferFrom */\n      tag_102\n        /* \"erc721a/contracts/ERC721A.sol\":14045:14084  safeTransferFrom(from, to, tokenId, '') */\n      jump\t// in\n    tag_183:\n        /* \"erc721a/contracts/ERC721A.sol\":13912:14091  function safeTransferFrom(... */\n      pop\n      pop\n      pop\n      jump\t// out\n        /* \"erc721a/contracts/extensions/ERC721ABurnable.sol\":513:605  function burn(uint256 tokenId) public virtual override {... */\n    tag_67:\n        /* \"erc721a/contracts/extensions/ERC721ABurnable.sol\":578:598  _burn(tokenId, true) */\n      tag_185\n        /* \"erc721a/contracts/extensions/ERC721ABurnable.sol\":584:591  tokenId */\n      dup2\n        /* \"erc721a/contracts/extensions/ERC721ABurnable.sol\":593:597  true */\n      0x01\n        /* \"erc721a/contracts/extensions/ERC721ABurnable.sol\":578:583  _burn */\n      tag_186\n        /* \"erc721a/contracts/extensions/ERC721ABurnable.sol\":578:598  _burn(tokenId, true) */\n      jump\t// in\n    tag_185:\n        /* \"erc721a/contracts/extensions/ERC721ABurnable.sol\":513:605  function burn(uint256 tokenId) public virtual override {... */\n      pop\n      jump\t// out\n        /* \"ERC721A/NagaKidsERC721A.sol\":1449:1551  function setBaseURI(string memory newBaseURI) public onlyOwner {... */\n    tag_71:\n        /* \"@openzeppelin/contracts/access/Ownable.sol\":1108:1114  _owner */\n      and(sub(shl(0xa0, 0x01), 0x01), sload(0x08))\n        /* \"erc721a/contracts/ERC721A.sol\":32960:32970  msg.sender */\n      caller\n        /* \"@openzeppelin/contracts/access/Ownable.sol\":1248:1271  owner() == _msgSender() */\n      eq\n        /* \"@openzeppelin/contracts/access/Ownable.sol\":1240:1308  require(owner() == _msgSender(), \"Ownable: caller is not the owner\") */\n      tag_190\n      jumpi\n      mload(0x40)\n      shl(0xe5, 0x461bcd)\n      dup2\n      mstore\n      0x04\n      add\n      tag_178\n      swap1\n      tag_179\n      jump\t// in\n    tag_190:\n        /* \"ERC721A/NagaKidsERC721A.sol\":1523:1530  baseURI */\n      0x0a\n        /* \"ERC721A/NagaKidsERC721A.sol\":1523:1543  baseURI = newBaseURI */\n      tag_193\n        /* \"ERC721A/NagaKidsERC721A.sol\":1533:1543  newBaseURI */\n      dup3\n        /* \"ERC721A/NagaKidsERC721A.sol\":1523:1530  baseURI */\n      dup3\n        /* \"ERC721A/NagaKidsERC721A.sol\":1523:1543  baseURI = newBaseURI */\n      tag_194\n      jump\t// in\n    tag_193:\n      pop\n        /* \"ERC721A/NagaKidsERC721A.sol\":1449:1551  function setBaseURI(string memory newBaseURI) public onlyOwner {... */\n      pop\n      jump\t// out\n        /* \"erc721a/contracts/ERC721A.sol\":10957:11099  function ownerOf(uint256 tokenId) public view override returns (address) {... */\n    tag_74:\n        /* \"erc721a/contracts/ERC721A.sol\":11021:11028  address */\n      0x00\n        /* \"erc721a/contracts/ERC721A.sol\":11063:11090  _packedOwnershipOf(tokenId) */\n      tag_123\n        /* \"erc721a/contracts/ERC721A.sol\":11082:11089  tokenId */\n      dup3\n        /* \"erc721a/contracts/ERC721A.sol\":11063:11081  _packedOwnershipOf */\n      tag_149\n        /* \"erc721a/contracts/ERC721A.sol\":11063:11090  _packedOwnershipOf(tokenId) */\n      jump\t// in\n        /* \"erc721a/contracts/ERC721A.sol\":6319:6540  function balanceOf(address owner) public view override returns (uint256) {... */\n    tag_79:\n        /* \"erc721a/contracts/ERC721A.sol\":6383:6390  uint256 */\n      0x00\n      sub(shl(0xa0, 0x01), 0x01)\n        /* \"erc721a/contracts/ERC721A.sol\":6406:6425  owner == address(0) */\n      dup3\n      and\n        /* \"erc721a/contracts/ERC721A.sol\":6402:6462  if (owner == address(0)) revert BalanceQueryForZeroAddress() */\n      tag_198\n      jumpi\n        /* \"erc721a/contracts/ERC721A.sol\":6434:6462  BalanceQueryForZeroAddress() */\n      mload(0x40)\n      shl(0xe2, 0x23d3ad81)\n      dup2\n      mstore\n      0x04\n      add\n      mload(0x40)\n      dup1\n      swap2\n      sub\n      swap1\n      revert\n        /* \"erc721a/contracts/ERC721A.sol\":6402:6462  if (owner == address(0)) revert BalanceQueryForZeroAddress() */\n    tag_198:\n      pop\n      sub(shl(0xa0, 0x01), 0x01)\n        /* \"erc721a/contracts/ERC721A.sol\":6479:6504  _packedAddressData[owner] */\n      and\n      0x00\n      swap1\n      dup2\n      mstore\n        /* \"erc721a/contracts/ERC721A.sol\":6479:6497  _packedAddressData */\n      0x05\n        /* \"erc721a/contracts/ERC721A.sol\":6479:6504  _packedAddressData[owner] */\n      0x20\n      mstore\n      0x40\n      swap1\n      keccak256\n      sload\n        /* \"erc721a/contracts/ERC721A.sol\":1022:1035  (1 << 64) - 1 */\n      0xffffffffffffffff\n        /* \"erc721a/contracts/ERC721A.sol\":6479:6533  _packedAddressData[owner] & BITMASK_ADDRESS_DATA_ENTRY */\n      and\n      swap1\n        /* \"erc721a/contracts/ERC721A.sol\":6319:6540  function balanceOf(address owner) public view override returns (uint256) {... */\n      jump\t// out\n        /* \"@openzeppelin/contracts/access/Ownable.sol\":1668:1769  function renounceOwnership() public virtual onlyOwner {... */\n    tag_82:\n        /* \"@openzeppelin/contracts/access/Ownable.sol\":1108:1114  _owner */\n      and(sub(shl(0xa0, 0x01), 0x01), sload(0x08))\n        /* \"erc721a/contracts/ERC721A.sol\":32960:32970  msg.sender */\n      caller\n        /* \"@openzeppelin/contracts/access/Ownable.sol\":1248:1271  owner() == _msgSender() */\n      eq\n        /* \"@openzeppelin/contracts/access/Ownable.sol\":1240:1308  require(owner() == _msgSender(), \"Ownable: caller is not the owner\") */\n      tag_202\n      jumpi\n      mload(0x40)\n      shl(0xe5, 0x461bcd)\n      dup2\n      mstore\n      0x04\n      add\n      tag_178\n      swap1\n      tag_179\n      jump\t// in\n    tag_202:\n        /* \"@openzeppelin/contracts/access/Ownable.sol\":1732:1762  _transferOwnership(address(0)) */\n      tag_205\n        /* \"@openzeppelin/contracts/access/Ownable.sol\":1759:1760  0 */\n      0x00\n        /* \"@openzeppelin/contracts/access/Ownable.sol\":1732:1750  _transferOwnership */\n      tag_206\n        /* \"@openzeppelin/contracts/access/Ownable.sol\":1732:1762  _transferOwnership(address(0)) */\n      jump\t// in\n    tag_205:\n        /* \"@openzeppelin/contracts/access/Ownable.sol\":1668:1769  function renounceOwnership() public virtual onlyOwner {... */\n      jump\t// out\n        /* \"erc721a/contracts/ERC721A.sol\":11323:11425  function symbol() public view virtual override returns (string memory) {... */\n    tag_87:\n        /* \"erc721a/contracts/ERC721A.sol\":11379:11392  string memory */\n      0x60\n        /* \"erc721a/contracts/ERC721A.sol\":11411:11418  _symbol */\n      0x03\n        /* \"erc721a/contracts/ERC721A.sol\":11404:11418  return _symbol */\n      dup1\n      sload\n      tag_126\n      swap1\n      tag_127\n      jump\t// in\n        /* \"ERC721A/NagaKidsERC721A.sol\":2012:2238  function safeMint(address to,uint amount) public Minter(msg.sender) {... */\n    tag_91:\n        /* \"ERC721A/NagaKidsERC721A.sol\":2068:2078  msg.sender */\n      caller\n        /* \"ERC721A/NagaKidsERC721A.sol\":2300:2304  bool */\n      0x00\n        /* \"ERC721A/NagaKidsERC721A.sol\":2324:2344  _allowMinter[minter] */\n      dup2\n      dup2\n      mstore\n        /* \"ERC721A/NagaKidsERC721A.sol\":2324:2336  _allowMinter */\n      0x09\n        /* \"ERC721A/NagaKidsERC721A.sol\":2324:2344  _allowMinter[minter] */\n      0x20\n      mstore\n      0x40\n      swap1\n      keccak256\n      sload\n      0xff\n      and\n        /* \"ERC721A/NagaKidsERC721A.sol\":735:784  require(isMinter(_minter),\"You are not a minter\") */\n      tag_216\n      jumpi\n      mload(0x40)\n      shl(0xe5, 0x461bcd)\n      dup2\n      mstore\n        /* \"#utility.yul\":8545:8547   */\n      0x20\n        /* \"ERC721A/NagaKidsERC721A.sol\":735:784  require(isMinter(_minter),\"You are not a minter\") */\n      0x04\n      dup3\n      add\n        /* \"#utility.yul\":8527:8548   */\n      mstore\n        /* \"#utility.yul\":8584:8586   */\n      0x14\n        /* \"#utility.yul\":8564:8582   */\n      0x24\n      dup3\n      add\n        /* \"#utility.yul\":8557:8587   */\n      mstore\n      shl(0x61, 0x2cb7ba9030b932903737ba10309036b4b73a32b9)\n        /* \"#utility.yul\":8603:8621   */\n      0x44\n      dup3\n      add\n        /* \"#utility.yul\":8596:8646   */\n      mstore\n        /* \"#utility.yul\":8663:8681   */\n      0x64\n      add\n        /* \"ERC721A/NagaKidsERC721A.sol\":735:784  require(isMinter(_minter),\"You are not a minter\") */\n      tag_178\n        /* \"#utility.yul\":8343:8687   */\n      jump\n        /* \"ERC721A/NagaKidsERC721A.sol\":735:784  require(isMinter(_minter),\"You are not a minter\") */\n    tag_216:\n        /* \"ERC721A/NagaKidsERC721A.sol\":2091:2110  uint256 totalSupply */\n      0x00\n        /* \"ERC721A/NagaKidsERC721A.sol\":2113:2126  totalSupply() */\n      tag_220\n        /* \"ERC721A/NagaKidsERC721A.sol\":2977:2978  1 */\n      0x01\n        /* \"erc721a/contracts/ERC721A.sol\":4998:5010  _burnCounter */\n      sload\n        /* \"erc721a/contracts/ERC721A.sol\":4789:4796  uint256 */\n      0x00\n        /* \"erc721a/contracts/ERC721A.sol\":4982:4995  _currentIndex */\n      sload\n      not(0x00)\n        /* \"erc721a/contracts/ERC721A.sol\":4982:5010  _currentIndex - _burnCounter */\n      swap2\n      swap1\n      sub\n        /* \"erc721a/contracts/ERC721A.sol\":4982:5028  _currentIndex - _burnCounter - _startTokenId() */\n      add\n      swap1\n        /* \"erc721a/contracts/ERC721A.sol\":4736:5045  function totalSupply() public view override returns (uint256) {... */\n      jump\n        /* \"ERC721A/NagaKidsERC721A.sol\":2113:2126  totalSupply() */\n    tag_220:\n        /* \"ERC721A/NagaKidsERC721A.sol\":2091:2126  uint256 totalSupply = totalSupply() */\n      swap1\n      pop\n        /* \"ERC721A/NagaKidsERC721A.sol\":587:591  1111 */\n      0x0457\n        /* \"ERC721A/NagaKidsERC721A.sol\":2145:2165  totalSupply + amount */\n      tag_221\n        /* \"ERC721A/NagaKidsERC721A.sol\":2159:2165  amount */\n      dup5\n        /* \"ERC721A/NagaKidsERC721A.sol\":2091:2126  uint256 totalSupply = totalSupply() */\n      dup4\n        /* \"ERC721A/NagaKidsERC721A.sol\":2145:2165  totalSupply + amount */\n      tag_222\n      jump\t// in\n    tag_221:\n        /* \"ERC721A/NagaKidsERC721A.sol\":2145:2178  totalSupply + amount <= maxSupply */\n      gt\n      iszero\n        /* \"ERC721A/NagaKidsERC721A.sol\":2137:2198  require(totalSupply + amount <= maxSupply, \"Over max supply\") */\n      tag_223\n      jumpi\n      mload(0x40)\n      shl(0xe5, 0x461bcd)\n      dup2\n      mstore\n        /* \"#utility.yul\":9159:9161   */\n      0x20\n        /* \"ERC721A/NagaKidsERC721A.sol\":2137:2198  require(totalSupply + amount <= maxSupply, \"Over max supply\") */\n      0x04\n      dup3\n      add\n        /* \"#utility.yul\":9141:9162   */\n      mstore\n        /* \"#utility.yul\":9198:9200   */\n      0x0f\n        /* \"#utility.yul\":9178:9196   */\n      0x24\n      dup3\n      add\n        /* \"#utility.yul\":9171:9201   */\n      mstore\n      shl(0x88, 0x4f766572206d617820737570706c79)\n        /* \"#utility.yul\":9217:9235   */\n      0x44\n      dup3\n      add\n        /* \"#utility.yul\":9210:9255   */\n      mstore\n        /* \"#utility.yul\":9272:9290   */\n      0x64\n      add\n        /* \"ERC721A/NagaKidsERC721A.sol\":2137:2198  require(totalSupply + amount <= maxSupply, \"Over max supply\") */\n      tag_178\n        /* \"#utility.yul\":8957:9296   */\n      jump\n        /* \"ERC721A/NagaKidsERC721A.sol\":2137:2198  require(totalSupply + amount <= maxSupply, \"Over max supply\") */\n    tag_223:\n        /* \"ERC721A/NagaKidsERC721A.sol\":2209:2230  _safeMint(to, amount) */\n      tag_226\n        /* \"ERC721A/NagaKidsERC721A.sol\":2219:2221  to */\n      dup5\n        /* \"ERC721A/NagaKidsERC721A.sol\":2223:2229  amount */\n      dup5\n        /* \"ERC721A/NagaKidsERC721A.sol\":2209:2218  _safeMint */\n      tag_227\n        /* \"ERC721A/NagaKidsERC721A.sol\":2209:2230  _safeMint(to, amount) */\n      jump\t// in\n    tag_226:\n        /* \"ERC721A/NagaKidsERC721A.sol\":2080:2238  {... */\n      pop\n        /* \"ERC721A/NagaKidsERC721A.sol\":2012:2238  function safeMint(address to,uint amount) public Minter(msg.sender) {... */\n      pop\n      pop\n      pop\n      jump\t// out\n        /* \"erc721a/contracts/ERC721A.sol\":13315:13618  function setApprovalForAll(address operator, bool approved) public virtual override {... */\n    tag_94:\n        /* \"erc721a/contracts/ERC721A.sol\":32960:32970  msg.sender */\n      caller\n      sub(shl(0xa0, 0x01), 0x01)\n        /* \"erc721a/contracts/ERC721A.sol\":13413:13444  operator == _msgSenderERC721A() */\n      dup4\n      and\n      sub\n        /* \"erc721a/contracts/ERC721A.sol\":13409:13470  if (operator == _msgSenderERC721A()) revert ApproveToCaller() */\n      tag_230\n      jumpi\n        /* \"erc721a/contracts/ERC721A.sol\":13453:13470  ApproveToCaller() */\n      mload(0x40)\n      shl(0xe0, 0xb06307db)\n      dup2\n      mstore\n      0x04\n      add\n      mload(0x40)\n      dup1\n      swap2\n      sub\n      swap1\n      revert\n        /* \"erc721a/contracts/ERC721A.sol\":13409:13470  if (operator == _msgSenderERC721A()) revert ApproveToCaller() */\n    tag_230:\n        /* \"erc721a/contracts/ERC721A.sol\":32960:32970  msg.sender */\n      caller\n        /* \"erc721a/contracts/ERC721A.sol\":13481:13520  _operatorApprovals[_msgSenderERC721A()] */\n      0x00\n      dup2\n      dup2\n      mstore\n        /* \"erc721a/contracts/ERC721A.sol\":13481:13499  _operatorApprovals */\n      0x07\n        /* \"erc721a/contracts/ERC721A.sol\":13481:13520  _operatorApprovals[_msgSenderERC721A()] */\n      0x20\n      swap1\n      dup2\n      mstore\n      0x40\n      dup1\n      dup4\n      keccak256\n      sub(shl(0xa0, 0x01), 0x01)\n        /* \"erc721a/contracts/ERC721A.sol\":13481:13530  _operatorApprovals[_msgSenderERC721A()][operator] */\n      dup8\n      and\n      dup1\n      dup6\n      mstore\n      swap1\n      dup4\n      mstore\n      swap3\n      dup2\n      swap1\n      keccak256\n        /* \"erc721a/contracts/ERC721A.sol\":13481:13541  _operatorApprovals[_msgSenderERC721A()][operator] = approved */\n      dup1\n      sload\n      not(0xff)\n      and\n      dup7\n      iszero\n      iszero\n      swap1\n      dup2\n      or\n      swap1\n      swap2\n      sstore\n        /* \"erc721a/contracts/ERC721A.sol\":13556:13611  ApprovalForAll(_msgSenderERC721A(), operator, approved) */\n      swap1\n      mload\n        /* \"#utility.yul\":540:581   */\n      swap1\n      dup2\n      mstore\n        /* \"erc721a/contracts/ERC721A.sol\":13481:13530  _operatorApprovals[_msgSenderERC721A()][operator] */\n      swap2\n      swap3\n        /* \"erc721a/contracts/ERC721A.sol\":32960:32970  msg.sender */\n      swap2\n        /* \"erc721a/contracts/ERC721A.sol\":13556:13611  ApprovalForAll(_msgSenderERC721A(), operator, approved) */\n      0x17307eab39ab6107e8899845ad3d59bd9653f200f220920489ca2b5937696c31\n      swap2\n        /* \"#utility.yul\":513:531   */\n      add\n        /* \"erc721a/contracts/ERC721A.sol\":13556:13611  ApprovalForAll(_msgSenderERC721A(), operator, approved) */\n      tag_181\n        /* \"#utility.yul\":400:587   */\n      jump\n        /* \"erc721a/contracts/ERC721A.sol\":14157:14545  function safeTransferFrom(... */\n    tag_102:\n        /* \"erc721a/contracts/ERC721A.sol\":14318:14349  transferFrom(from, to, tokenId) */\n      tag_236\n        /* \"erc721a/contracts/ERC721A.sol\":14331:14335  from */\n      dup5\n        /* \"erc721a/contracts/ERC721A.sol\":14337:14339  to */\n      dup5\n        /* \"erc721a/contracts/ERC721A.sol\":14341:14348  tokenId */\n      dup5\n        /* \"erc721a/contracts/ERC721A.sol\":14318:14330  transferFrom */\n      tag_57\n        /* \"erc721a/contracts/ERC721A.sol\":14318:14349  transferFrom(from, to, tokenId) */\n      jump\t// in\n    tag_236:\n      sub(shl(0xa0, 0x01), 0x01)\n        /* \"erc721a/contracts/ERC721A.sol\":14363:14377  to.code.length */\n      dup4\n      and\n      extcodesize\n        /* \"erc721a/contracts/ERC721A.sol\":14363:14382  to.code.length != 0 */\n      iszero\n        /* \"erc721a/contracts/ERC721A.sol\":14359:14539  if (to.code.length != 0)... */\n      tag_226\n      jumpi\n        /* \"erc721a/contracts/ERC721A.sol\":14401:14457  _checkContractOnERC721Received(from, to, tokenId, _data) */\n      tag_238\n        /* \"erc721a/contracts/ERC721A.sol\":14432:14436  from */\n      dup5\n        /* \"erc721a/contracts/ERC721A.sol\":14438:14440  to */\n      dup5\n        /* \"erc721a/contracts/ERC721A.sol\":14442:14449  tokenId */\n      dup5\n        /* \"erc721a/contracts/ERC721A.sol\":14451:14456  _data */\n      dup5\n        /* \"erc721a/contracts/ERC721A.sol\":14401:14431  _checkContractOnERC721Received */\n      tag_239\n        /* \"erc721a/contracts/ERC721A.sol\":14401:14457  _checkContractOnERC721Received(from, to, tokenId, _data) */\n      jump\t// in\n    tag_238:\n        /* \"erc721a/contracts/ERC721A.sol\":14396:14539  if (!_checkContractOnERC721Received(from, to, tokenId, _data)) {... */\n      tag_226\n      jumpi\n        /* \"erc721a/contracts/ERC721A.sol\":14484:14524  TransferToNonERC721ReceiverImplementer() */\n      mload(0x40)\n      shl(0xe1, 0x68d2bf6b)\n      dup2\n      mstore\n      0x04\n      add\n      mload(0x40)\n      dup1\n      swap2\n      sub\n      swap1\n      revert\n        /* \"ERC721A/NagaKidsERC721A.sol\":507:544  string public baseExtension = \".json\" */\n    tag_104:\n      0x0b\n      dup1\n      sload\n      tag_241\n      swap1\n      tag_127\n      jump\t// in\n    tag_241:\n      dup1\n      0x1f\n      add\n      0x20\n      dup1\n      swap2\n      div\n      mul\n      0x20\n      add\n      mload(0x40)\n      swap1\n      dup2\n      add\n      0x40\n      mstore\n      dup1\n      swap3\n      swap2\n      swap1\n      dup2\n      dup2\n      mstore\n      0x20\n      add\n      dup3\n      dup1\n      sload\n      tag_242\n      swap1\n      tag_127\n      jump\t// in\n    tag_242:\n      dup1\n      iszero\n      tag_243\n      jumpi\n      dup1\n      0x1f\n      lt\n      tag_244\n      jumpi\n      0x0100\n      dup1\n      dup4\n      sload\n      div\n      mul\n      dup4\n      mstore\n      swap2\n      0x20\n      add\n      swap2\n      jump(tag_243)\n    tag_244:\n      dup3\n      add\n      swap2\n      swap1\n      0x00\n      mstore\n      keccak256(0x00, 0x20)\n      swap1\n    tag_245:\n      dup2\n      sload\n      dup2\n      mstore\n      swap1\n      0x01\n      add\n      swap1\n      0x20\n      add\n      dup1\n      dup4\n      gt\n      tag_245\n      jumpi\n      dup3\n      swap1\n      sub\n      0x1f\n      and\n      dup3\n      add\n      swap2\n    tag_243:\n      pop\n      pop\n      pop\n      pop\n      pop\n      dup2\n      jump\t// out\n        /* \"ERC721A/NagaKidsERC721A.sol\":1559:2003  function tokenURI(uint256 tokenId) public view virtual override(ERC721A,IERC721A) returns (string memory){... */\n    tag_108:\n        /* \"ERC721A/NagaKidsERC721A.sol\":1650:1663  string memory */\n      0x60\n        /* \"ERC721A/NagaKidsERC721A.sol\":1697:1713  _exists(tokenId) */\n      tag_247\n        /* \"ERC721A/NagaKidsERC721A.sol\":1705:1712  tokenId */\n      dup3\n        /* \"ERC721A/NagaKidsERC721A.sol\":1697:1704  _exists */\n      tag_134\n        /* \"ERC721A/NagaKidsERC721A.sol\":1697:1713  _exists(tokenId) */\n      jump\t// in\n    tag_247:\n        /* \"ERC721A/NagaKidsERC721A.sol\":1675:1788  require(... */\n      tag_248\n      jumpi\n      mload(0x40)\n      shl(0xe5, 0x461bcd)\n      dup2\n      mstore\n        /* \"#utility.yul\":9503:9505   */\n      0x20\n        /* \"ERC721A/NagaKidsERC721A.sol\":1675:1788  require(... */\n      0x04\n      dup3\n      add\n        /* \"#utility.yul\":9485:9506   */\n      mstore\n        /* \"#utility.yul\":9542:9544   */\n      0x2f\n        /* \"#utility.yul\":9522:9540   */\n      0x24\n      dup3\n      add\n        /* \"#utility.yul\":9515:9545   */\n      mstore\n        /* \"#utility.yul\":9581:9615   */\n      0x4552433732314d657461646174613a2055524920717565727920666f72206e6f\n        /* \"#utility.yul\":9561:9579   */\n      0x44\n      dup3\n      add\n        /* \"#utility.yul\":9554:9616   */\n      mstore\n      shl(0x89, 0x3732bc34b9ba32b73a103a37b5b2b7)\n        /* \"#utility.yul\":9632:9650   */\n      0x64\n      dup3\n      add\n        /* \"#utility.yul\":9625:9670   */\n      mstore\n        /* \"#utility.yul\":9687:9706   */\n      0x84\n      add\n        /* \"ERC721A/NagaKidsERC721A.sol\":1675:1788  require(... */\n      tag_178\n        /* \"#utility.yul\":9301:9712   */\n      jump\n        /* \"ERC721A/NagaKidsERC721A.sol\":1675:1788  require(... */\n    tag_248:\n        /* \"ERC721A/NagaKidsERC721A.sol\":1801:1829  string memory currentBaseURI */\n      0x00\n        /* \"ERC721A/NagaKidsERC721A.sol\":1832:1842  _baseURI() */\n      tag_251\n        /* \"ERC721A/NagaKidsERC721A.sol\":1832:1840  _baseURI */\n      tag_252\n        /* \"ERC721A/NagaKidsERC721A.sol\":1832:1842  _baseURI() */\n      jump\t// in\n    tag_251:\n        /* \"ERC721A/NagaKidsERC721A.sol\":1801:1842  string memory currentBaseURI = _baseURI() */\n      swap1\n      pop\n        /* \"ERC721A/NagaKidsERC721A.sol\":1891:1892  0 */\n      0x00\n        /* \"ERC721A/NagaKidsERC721A.sol\":1866:1880  currentBaseURI */\n      dup2\n        /* \"ERC721A/NagaKidsERC721A.sol\":1860:1888  bytes(currentBaseURI).length */\n      mload\n        /* \"ERC721A/NagaKidsERC721A.sol\":1860:1892  bytes(currentBaseURI).length > 0 */\n      gt\n        /* \"ERC721A/NagaKidsERC721A.sol\":1860:1995  bytes(currentBaseURI).length > 0 ... */\n      tag_253\n      jumpi\n      mload(0x40)\n      dup1\n      0x20\n      add\n      0x40\n      mstore\n      dup1\n      0x00\n      dup2\n      mstore\n      pop\n      jump(tag_254)\n    tag_253:\n        /* \"ERC721A/NagaKidsERC721A.sol\":1929:1943  currentBaseURI */\n      dup1\n        /* \"ERC721A/NagaKidsERC721A.sol\":1945:1963  tokenId.toString() */\n      tag_255\n        /* \"ERC721A/NagaKidsERC721A.sol\":1945:1952  tokenId */\n      dup5\n        /* \"ERC721A/NagaKidsERC721A.sol\":1945:1961  tokenId.toString */\n      tag_256\n        /* \"ERC721A/NagaKidsERC721A.sol\":1945:1963  tokenId.toString() */\n      jump\t// in\n    tag_255:\n        /* \"ERC721A/NagaKidsERC721A.sol\":1965:1978  baseExtension */\n      0x0b\n        /* \"ERC721A/NagaKidsERC721A.sol\":1912:1979  abi.encodePacked(currentBaseURI, tokenId.toString(), baseExtension) */\n      add(0x20, mload(0x40))\n      tag_257\n      swap4\n      swap3\n      swap2\n      swap1\n      tag_258\n      jump\t// in\n    tag_257:\n      mload(0x40)\n      0x20\n      dup2\n      dup4\n      sub\n      sub\n      dup2\n      mstore\n      swap1\n      0x40\n      mstore\n        /* \"ERC721A/NagaKidsERC721A.sol\":1860:1995  bytes(currentBaseURI).length > 0 ... */\n    tag_254:\n        /* \"ERC721A/NagaKidsERC721A.sol\":1853:1995  return bytes(currentBaseURI).length > 0 ... */\n      swap4\n        /* \"ERC721A/NagaKidsERC721A.sol\":1559:2003  function tokenURI(uint256 tokenId) public view virtual override(ERC721A,IERC721A) returns (string memory){... */\n      swap3\n      pop\n      pop\n      pop\n      jump\t// out\n        /* \"@openzeppelin/contracts/access/Ownable.sol\":1918:2116  function transferOwnership(address newOwner) public virtual onlyOwner {... */\n    tag_120:\n        /* \"@openzeppelin/contracts/access/Ownable.sol\":1108:1114  _owner */\n      and(sub(shl(0xa0, 0x01), 0x01), sload(0x08))\n        /* \"erc721a/contracts/ERC721A.sol\":32960:32970  msg.sender */\n      caller\n        /* \"@openzeppelin/contracts/access/Ownable.sol\":1248:1271  owner() == _msgSender() */\n      eq\n        /* \"@openzeppelin/contracts/access/Ownable.sol\":1240:1308  require(owner() == _msgSender(), \"Ownable: caller is not the owner\") */\n      tag_263\n      jumpi\n      mload(0x40)\n      shl(0xe5, 0x461bcd)\n      dup2\n      mstore\n      0x04\n      add\n      tag_178\n      swap1\n      tag_179\n      jump\t// in\n    tag_263:\n      sub(shl(0xa0, 0x01), 0x01)\n        /* \"@openzeppelin/contracts/access/Ownable.sol\":2006:2028  newOwner != address(0) */\n      dup2\n      and\n        /* \"@openzeppelin/contracts/access/Ownable.sol\":1998:2071  require(newOwner != address(0), \"Ownable: new owner is the zero address\") */\n      tag_266\n      jumpi\n      mload(0x40)\n      shl(0xe5, 0x461bcd)\n      dup2\n      mstore\n        /* \"#utility.yul\":11154:11156   */\n      0x20\n        /* \"@openzeppelin/contracts/access/Ownable.sol\":1998:2071  require(newOwner != address(0), \"Ownable: new owner is the zero address\") */\n      0x04\n      dup3\n      add\n        /* \"#utility.yul\":11136:11157   */\n      mstore\n        /* \"#utility.yul\":11193:11195   */\n      0x26\n        /* \"#utility.yul\":11173:11191   */\n      0x24\n      dup3\n      add\n        /* \"#utility.yul\":11166:11196   */\n      mstore\n        /* \"#utility.yul\":11232:11266   */\n      0x4f776e61626c653a206e6577206f776e657220697320746865207a65726f2061\n        /* \"#utility.yul\":11212:11230   */\n      0x44\n      dup3\n      add\n        /* \"#utility.yul\":11205:11267   */\n      mstore\n      shl(0xd0, 0x646472657373)\n        /* \"#utility.yul\":11283:11301   */\n      0x64\n      dup3\n      add\n        /* \"#utility.yul\":11276:11312   */\n      mstore\n        /* \"#utility.yul\":11329:11348   */\n      0x84\n      add\n        /* \"@openzeppelin/contracts/access/Ownable.sol\":1998:2071  require(newOwner != address(0), \"Ownable: new owner is the zero address\") */\n      tag_178\n        /* \"#utility.yul\":10952:11354   */\n      jump\n        /* \"@openzeppelin/contracts/access/Ownable.sol\":1998:2071  require(newOwner != address(0), \"Ownable: new owner is the zero address\") */\n    tag_266:\n        /* \"@openzeppelin/contracts/access/Ownable.sol\":2081:2109  _transferOwnership(newOwner) */\n      tag_185\n        /* \"@openzeppelin/contracts/access/Ownable.sol\":2100:2108  newOwner */\n      dup2\n        /* \"@openzeppelin/contracts/access/Ownable.sol\":2081:2099  _transferOwnership */\n      tag_206\n        /* \"@openzeppelin/contracts/access/Ownable.sol\":2081:2109  _transferOwnership(newOwner) */\n      jump\t// in\n        /* \"erc721a/contracts/ERC721A.sol\":5653:6260  function supportsInterface(bytes4 interfaceId) public view virtual override returns (bool) {... */\n    tag_124:\n        /* \"erc721a/contracts/ERC721A.sol\":5738:5742  bool */\n      0x00\n      shl(0xe0, 0x01ffc9a7)\n      not(sub(shl(0xe0, 0x01), 0x01))\n        /* \"erc721a/contracts/ERC721A.sol\":6033:6058  interfaceId == 0x01ffc9a7 */\n      dup4\n      and\n      eq\n      dup1\n        /* \"erc721a/contracts/ERC721A.sol\":6033:6134  interfaceId == 0x01ffc9a7 || // ERC165 interface ID for ERC165.... */\n      tag_272\n      jumpi\n      pop\n      shl(0xe0, 0x80ac58cd)\n      not(sub(shl(0xe0, 0x01), 0x01))\n        /* \"erc721a/contracts/ERC721A.sol\":6109:6134  interfaceId == 0x80ac58cd */\n      dup4\n      and\n      eq\n        /* \"erc721a/contracts/ERC721A.sol\":6033:6134  interfaceId == 0x01ffc9a7 || // ERC165 interface ID for ERC165.... */\n    tag_272:\n        /* \"erc721a/contracts/ERC721A.sol\":6033:6210  interfaceId == 0x01ffc9a7 || // ERC165 interface ID for ERC165.... */\n      dup1\n      tag_123\n      jumpi\n      pop\n      pop\n      not(sub(shl(0xe0, 0x01), 0x01))\n        /* \"erc721a/contracts/ERC721A.sol\":6185:6210  interfaceId == 0x5b5e139f */\n      and\n      shl(0xe0, 0x5b5e139f)\n      eq\n      swap1\n        /* \"erc721a/contracts/ERC721A.sol\":5653:6260  function supportsInterface(bytes4 interfaceId) public view virtual override returns (bool) {... */\n      jump\t// out\n        /* \"erc721a/contracts/ERC721A.sol\":14791:15059  function _exists(uint256 tokenId) internal view returns (bool) {... */\n    tag_134:\n        /* \"erc721a/contracts/ERC721A.sol\":14848:14852  bool */\n      0x00\n        /* \"erc721a/contracts/ERC721A.sol\":14902:14909  tokenId */\n      dup2\n        /* \"ERC721A/NagaKidsERC721A.sol\":2977:2978  1 */\n      0x01\n        /* \"erc721a/contracts/ERC721A.sol\":14883:14909  _startTokenId() <= tokenId */\n      gt\n      iszero\n        /* \"erc721a/contracts/ERC721A.sol\":14883:14948  _startTokenId() <= tokenId &&... */\n      dup1\n      iszero\n      tag_276\n      jumpi\n      pop\n        /* \"erc721a/contracts/ERC721A.sol\":14935:14948  _currentIndex */\n      sload(0x00)\n        /* \"erc721a/contracts/ERC721A.sol\":14925:14932  tokenId */\n      dup3\n        /* \"erc721a/contracts/ERC721A.sol\":14925:14948  tokenId < _currentIndex */\n      lt\n        /* \"erc721a/contracts/ERC721A.sol\":14883:14948  _startTokenId() <= tokenId &&... */\n    tag_276:\n        /* \"erc721a/contracts/ERC721A.sol\":14883:15033  _startTokenId() <= tokenId &&... */\n      dup1\n      iszero\n      tag_123\n      jumpi\n      pop\n      pop\n        /* \"erc721a/contracts/ERC721A.sol\":14985:15011  _packedOwnerships[tokenId] */\n      0x00\n      swap1\n      dup2\n      mstore\n        /* \"erc721a/contracts/ERC721A.sol\":14985:15002  _packedOwnerships */\n      0x04\n        /* \"erc721a/contracts/ERC721A.sol\":14985:15011  _packedOwnerships[tokenId] */\n      0x20\n      mstore\n      0x40\n      swap1\n      keccak256\n      sload\n      shl(0xe0, 0x01)\n        /* \"erc721a/contracts/ERC721A.sol\":14985:15028  _packedOwnerships[tokenId] & BITMASK_BURNED */\n      and\n        /* \"erc721a/contracts/ERC721A.sol\":14985:15033  _packedOwnerships[tokenId] & BITMASK_BURNED == 0 */\n      iszero\n      swap1\n        /* \"erc721a/contracts/ERC721A.sol\":14791:15059  function _exists(uint256 tokenId) internal view returns (bool) {... */\n      jump\t// out\n        /* \"erc721a/contracts/ERC721A.sol\":7949:9054  function _packedOwnershipOf(uint256 tokenId) private view returns (uint256) {... */\n    tag_149:\n        /* \"erc721a/contracts/ERC721A.sol\":8016:8023  uint256 */\n      0x00\n        /* \"erc721a/contracts/ERC721A.sol\":8050:8057  tokenId */\n      dup2\n      dup1\n        /* \"ERC721A/NagaKidsERC721A.sol\":2977:2978  1 */\n      0x01\n        /* \"erc721a/contracts/ERC721A.sol\":8096:8119  _startTokenId() <= curr */\n      gt\n        /* \"erc721a/contracts/ERC721A.sol\":8092:8990  if (_startTokenId() <= curr)... */\n      tag_283\n      jumpi\n        /* \"erc721a/contracts/ERC721A.sol\":8148:8161  _currentIndex */\n      sload(0x00)\n        /* \"erc721a/contracts/ERC721A.sol\":8141:8145  curr */\n      dup2\n        /* \"erc721a/contracts/ERC721A.sol\":8141:8161  curr < _currentIndex */\n      lt\n        /* \"erc721a/contracts/ERC721A.sol\":8137:8990  if (curr < _currentIndex) {... */\n      iszero\n      tag_283\n      jumpi\n        /* \"erc721a/contracts/ERC721A.sol\":8185:8199  uint256 packed */\n      0x00\n        /* \"erc721a/contracts/ERC721A.sol\":8202:8225  _packedOwnerships[curr] */\n      dup2\n      dup2\n      mstore\n        /* \"erc721a/contracts/ERC721A.sol\":8202:8219  _packedOwnerships */\n      0x04\n        /* \"erc721a/contracts/ERC721A.sol\":8202:8225  _packedOwnerships[curr] */\n      0x20\n      mstore\n      0x40\n      dup2\n      keccak256\n      sload\n      swap1\n      shl(0xe0, 0x01)\n        /* \"erc721a/contracts/ERC721A.sol\":8289:8312  packed & BITMASK_BURNED */\n      dup3\n      and\n        /* \"erc721a/contracts/ERC721A.sol\":8289:8317  packed & BITMASK_BURNED == 0 */\n      swap1\n      sub\n        /* \"erc721a/contracts/ERC721A.sol\":8285:8972  if (packed & BITMASK_BURNED == 0) {... */\n      tag_284\n      jumpi\n        /* \"erc721a/contracts/ERC721A.sol\":8800:8911  while (packed == 0) {... */\n    tag_285:\n        /* \"erc721a/contracts/ERC721A.sol\":8807:8813  packed */\n      dup1\n        /* \"erc721a/contracts/ERC721A.sol\":8817:8818  0 */\n      0x00\n        /* \"erc721a/contracts/ERC721A.sol\":8807:8818  packed == 0 */\n      sub\n        /* \"erc721a/contracts/ERC721A.sol\":8800:8911  while (packed == 0) {... */\n      tag_254\n      jumpi\n      pop\n      not(0x00)\n        /* \"erc721a/contracts/ERC721A.sol\":8877:8883  --curr */\n      add\n        /* \"erc721a/contracts/ERC721A.sol\":8859:8884  _packedOwnerships[--curr] */\n      0x00\n      dup2\n      dup2\n      mstore\n        /* \"erc721a/contracts/ERC721A.sol\":8859:8876  _packedOwnerships */\n      0x04\n        /* \"erc721a/contracts/ERC721A.sol\":8859:8884  _packedOwnerships[--curr] */\n      0x20\n      mstore\n      0x40\n      swap1\n      keccak256\n      sload\n        /* \"erc721a/contracts/ERC721A.sol\":8800:8911  while (packed == 0) {... */\n      jump(tag_285)\n        /* \"erc721a/contracts/ERC721A.sol\":8285:8972  if (packed & BITMASK_BURNED == 0) {... */\n    tag_284:\n        /* \"erc721a/contracts/ERC721A.sol\":8163:8990  {... */\n      pop\n        /* \"erc721a/contracts/ERC721A.sol\":8137:8990  if (curr < _currentIndex) {... */\n    tag_283:\n        /* \"erc721a/contracts/ERC721A.sol\":9016:9047  OwnerQueryForNonexistentToken() */\n      mload(0x40)\n      shl(0xe1, 0x6f96cda1)\n      dup2\n      mstore\n      0x04\n      add\n      mload(0x40)\n      dup1\n      swap2\n      sub\n      swap1\n      revert\n        /* \"ERC721A/NagaKidsERC721A.sol\":2360:2597  function _beforeTokenTransfers(... */\n    tag_162:\n        /* \"ERC721A/NagaKidsERC721A.sol\":2529:2589  super._beforeTokenTransfers(from, to, startTokenId,quantity) */\n      tag_226\n        /* \"ERC721A/NagaKidsERC721A.sol\":2012:2238  function safeMint(address to,uint amount) public Minter(msg.sender) {... */\n      jump\n        /* \"erc721a/contracts/ERC721A.sol\":25171:28168  function _burn(uint256 tokenId, bool approvalCheck) internal virtual {... */\n    tag_186:\n        /* \"erc721a/contracts/ERC721A.sol\":25250:25277  uint256 prevOwnershipPacked */\n      0x00\n        /* \"erc721a/contracts/ERC721A.sol\":25280:25307  _packedOwnershipOf(tokenId) */\n      tag_298\n        /* \"erc721a/contracts/ERC721A.sol\":25299:25306  tokenId */\n      dup4\n        /* \"erc721a/contracts/ERC721A.sol\":25280:25298  _packedOwnershipOf */\n      tag_149\n        /* \"erc721a/contracts/ERC721A.sol\":25280:25307  _packedOwnershipOf(tokenId) */\n      jump\t// in\n    tag_298:\n        /* \"erc721a/contracts/ERC721A.sol\":25250:25307  uint256 prevOwnershipPacked = _packedOwnershipOf(tokenId) */\n      swap1\n      pop\n      dup1\n        /* \"erc721a/contracts/ERC721A.sol\":25318:25330  address from */\n      0x00\n      dup1\n        /* \"erc721a/contracts/ERC721A.sol\":25438:25466  _getApprovedAddress(tokenId) */\n      tag_299\n        /* \"erc721a/contracts/ERC721A.sol\":25458:25465  tokenId */\n      dup7\n        /* \"erc721a/contracts/ERC721A.sol\":20528:20555  uint256 approvedAddressSlot */\n      0x00\n        /* \"erc721a/contracts/ERC721A.sol\":20821:20842  mstore(0x00, tokenId) */\n      swap1\n      dup2\n      mstore\n        /* \"erc721a/contracts/ERC721A.sol\":20652:20667  _tokenApprovals */\n      0x06\n        /* \"erc721a/contracts/ERC721A.sol\":20862:20866  0x20 */\n      0x20\n        /* \"erc721a/contracts/ERC721A.sol\":20855:20891  mstore(0x20, tokenApprovalsPtr.slot) */\n      mstore\n        /* \"erc721a/contracts/ERC721A.sol\":20943:20947  0x40 */\n      0x40\n        /* \"erc721a/contracts/ERC721A.sol\":20927:20948  keccak256(0x00, 0x40) */\n      swap1\n      keccak256\n        /* \"erc721a/contracts/ERC721A.sol\":21031:21057  sload(approvedAddressSlot) */\n      dup1\n      sload\n        /* \"erc721a/contracts/ERC721A.sol\":20927:20948  keccak256(0x00, 0x40) */\n      swap1\n      swap2\n        /* \"erc721a/contracts/ERC721A.sol\":20436:21073  function _getApprovedAddress(uint256 tokenId)... */\n      jump\n        /* \"erc721a/contracts/ERC721A.sol\":25438:25466  _getApprovedAddress(tokenId) */\n    tag_299:\n        /* \"erc721a/contracts/ERC721A.sol\":25381:25466  (uint256 approvedAddressSlot, address approvedAddress) = _getApprovedAddress(tokenId) */\n      swap2\n      pop\n      swap2\n      pop\n        /* \"erc721a/contracts/ERC721A.sol\":25481:25494  approvalCheck */\n      dup5\n        /* \"erc721a/contracts/ERC721A.sol\":25477:25783  if (approvalCheck) {... */\n      iszero\n      tag_306\n      jumpi\n        /* \"erc721a/contracts/ERC721A.sol\":25600:25662  _isOwnerOrApproved(approvedAddress, from, _msgSenderERC721A()) */\n      tag_301\n        /* \"erc721a/contracts/ERC721A.sol\":25619:25634  approvedAddress */\n      dup2\n        /* \"erc721a/contracts/ERC721A.sol\":25636:25640  from */\n      dup5\n        /* \"erc721a/contracts/ERC721A.sol\":32960:32970  msg.sender */\n      caller\n        /* \"erc721a/contracts/ERC721A.sol\":25642:25661  _msgSenderERC721A() */\n      tag_154\n        /* \"erc721a/contracts/ERC721A.sol\":32874:32977  function _msgSenderERC721A() internal view virtual returns (address) {... */\n      jump\n        /* \"erc721a/contracts/ERC721A.sol\":25600:25662  _isOwnerOrApproved(approvedAddress, from, _msgSenderERC721A()) */\n    tag_301:\n        /* \"erc721a/contracts/ERC721A.sol\":25595:25772  if (!_isOwnerOrApproved(approvedAddress, from, _msgSenderERC721A()))... */\n      tag_306\n      jumpi\n        /* \"erc721a/contracts/ERC721A.sol\":25685:25728  isApprovedForAll(from, _msgSenderERC721A()) */\n      tag_304\n        /* \"erc721a/contracts/ERC721A.sol\":25702:25706  from */\n      dup4\n        /* \"erc721a/contracts/ERC721A.sol\":32960:32970  msg.sender */\n      caller\n        /* \"erc721a/contracts/ERC721A.sol\":13684:13846  function isApprovedForAll(address owner, address operator) public view virtual override returns (bool) {... */\n      tag_114\n      jump\t// in\n        /* \"erc721a/contracts/ERC721A.sol\":25685:25728  isApprovedForAll(from, _msgSenderERC721A()) */\n    tag_304:\n        /* \"erc721a/contracts/ERC721A.sol\":25680:25772  if (!isApprovedForAll(from, _msgSenderERC721A())) revert TransferCallerNotOwnerNorApproved() */\n      tag_306\n      jumpi\n        /* \"erc721a/contracts/ERC721A.sol\":25737:25772  TransferCallerNotOwnerNorApproved() */\n      mload(0x40)\n      shl(0xe1, 0x2ce44b5f)\n      dup2\n      mstore\n      0x04\n      add\n      mload(0x40)\n      dup1\n      swap2\n      sub\n      swap1\n      revert\n        /* \"erc721a/contracts/ERC721A.sol\":25680:25772  if (!isApprovedForAll(from, _msgSenderERC721A())) revert TransferCallerNotOwnerNorApproved() */\n    tag_306:\n        /* \"erc721a/contracts/ERC721A.sol\":25793:25844  _beforeTokenTransfers(from, address(0), tokenId, 1) */\n      tag_307\n        /* \"erc721a/contracts/ERC721A.sol\":25815:25819  from */\n      dup4\n        /* \"erc721a/contracts/ERC721A.sol\":25829:25830  0 */\n      0x00\n        /* \"erc721a/contracts/ERC721A.sol\":25833:25840  tokenId */\n      dup9\n        /* \"erc721a/contracts/ERC721A.sol\":25842:25843  1 */\n      0x01\n        /* \"erc721a/contracts/ERC721A.sol\":25793:25814  _beforeTokenTransfers */\n      tag_162\n        /* \"erc721a/contracts/ERC721A.sol\":25793:25844  _beforeTokenTransfers(from, address(0), tokenId, 1) */\n      jump\t// in\n    tag_307:\n        /* \"erc721a/contracts/ERC721A.sol\":25933:25948  approvedAddress */\n      dup1\n        /* \"erc721a/contracts/ERC721A.sol\":25930:26087  if approvedAddress {... */\n      iszero\n      tag_308\n      jumpi\n        /* \"erc721a/contracts/ERC721A.sol\":26071:26072  0 */\n      0x00\n        /* \"erc721a/contracts/ERC721A.sol\":26050:26069  approvedAddressSlot */\n      dup3\n        /* \"erc721a/contracts/ERC721A.sol\":26043:26073  sstore(approvedAddressSlot, 0) */\n      sstore\n        /* \"erc721a/contracts/ERC721A.sol\":25930:26087  if approvedAddress {... */\n    tag_308:\n      sub(shl(0xa0, 0x01), 0x01)\n        /* \"erc721a/contracts/ERC721A.sol\":26675:26699  _packedAddressData[from] */\n      dup4\n      and\n      0x00\n      dup2\n      dup2\n      mstore\n        /* \"erc721a/contracts/ERC721A.sol\":26675:26693  _packedAddressData */\n      0x05\n        /* \"erc721a/contracts/ERC721A.sol\":26675:26699  _packedAddressData[from] */\n      0x20\n      mstore\n      0x40\n      swap1\n      keccak256\n        /* \"erc721a/contracts/ERC721A.sol\":26675:26734  _packedAddressData[from] += (1 << BITPOS_NUMBER_BURNED) - 1 */\n      dup1\n      sload\n        /* \"erc721a/contracts/ERC721A.sol\":26703:26734  (1 << BITPOS_NUMBER_BURNED) - 1 */\n      0xffffffffffffffffffffffffffffffff\n        /* \"erc721a/contracts/ERC721A.sol\":26675:26734  _packedAddressData[from] += (1 << BITPOS_NUMBER_BURNED) - 1 */\n      add\n      swap1\n      sstore\n        /* \"erc721a/contracts/ERC721A.sol\":10863:10874  timestamp() */\n      timestamp\n        /* \"erc721a/contracts/ERC721A.sol\":10839:10861  BITPOS_START_TIMESTAMP */\n      0xa0\n        /* \"erc721a/contracts/ERC721A.sol\":10835:10875  shl(BITPOS_START_TIMESTAMP, timestamp()) */\n      shl\n        /* \"erc721a/contracts/ERC721A.sol\":10822:10884  or(owner, or(shl(BITPOS_START_TIMESTAMP, timestamp()), flags)) */\n      or\n      shl(0xe0, 0x03)\n      or\n        /* \"erc721a/contracts/ERC721A.sol\":26965:26991  _packedOwnerships[tokenId] */\n      0x00\n      dup8\n      dup2\n      mstore\n        /* \"erc721a/contracts/ERC721A.sol\":26965:26982  _packedOwnerships */\n      0x04\n        /* \"erc721a/contracts/ERC721A.sol\":26965:26991  _packedOwnerships[tokenId] */\n      0x20\n      mstore\n      0x40\n      dup2\n      keccak256\n        /* \"erc721a/contracts/ERC721A.sol\":26965:27165  _packedOwnerships[tokenId] = _packOwnershipData(... */\n      swap2\n      swap1\n      swap2\n      sstore\n      shl(0xe1, 0x01)\n        /* \"erc721a/contracts/ERC721A.sol\":27282:27328  prevOwnershipPacked & BITMASK_NEXT_INITIALIZED */\n      dup6\n      and\n        /* \"erc721a/contracts/ERC721A.sol\":27282:27333  prevOwnershipPacked & BITMASK_NEXT_INITIALIZED == 0 */\n      swap1\n      sub\n        /* \"erc721a/contracts/ERC721A.sol\":27278:27894  if (prevOwnershipPacked & BITMASK_NEXT_INITIALIZED == 0) {... */\n      tag_311\n      jumpi\n        /* \"erc721a/contracts/ERC721A.sol\":27385:27386  1 */\n      0x01\n        /* \"erc721a/contracts/ERC721A.sol\":27375:27386  tokenId + 1 */\n      dup7\n      add\n        /* \"erc721a/contracts/ERC721A.sol\":27353:27372  uint256 nextTokenId */\n      0x00\n        /* \"erc721a/contracts/ERC721A.sol\":27506:27536  _packedOwnerships[nextTokenId] */\n      dup2\n      dup2\n      mstore\n        /* \"erc721a/contracts/ERC721A.sol\":27506:27523  _packedOwnerships */\n      0x04\n        /* \"erc721a/contracts/ERC721A.sol\":27506:27536  _packedOwnerships[nextTokenId] */\n      0x20\n      mstore\n      0x40\n      dup2\n      keccak256\n      sload\n        /* \"erc721a/contracts/ERC721A.sol\":27506:27541  _packedOwnerships[nextTokenId] == 0 */\n      swap1\n      sub\n        /* \"erc721a/contracts/ERC721A.sol\":27502:27880  if (_packedOwnerships[nextTokenId] == 0) {... */\n      tag_313\n      jumpi\n        /* \"erc721a/contracts/ERC721A.sol\":27642:27655  _currentIndex */\n      sload(0x00)\n        /* \"erc721a/contracts/ERC721A.sol\":27627:27638  nextTokenId */\n      dup2\n        /* \"erc721a/contracts/ERC721A.sol\":27627:27655  nextTokenId != _currentIndex */\n      eq\n        /* \"erc721a/contracts/ERC721A.sol\":27623:27862  if (nextTokenId != _currentIndex) {... */\n      tag_313\n      jumpi\n        /* \"erc721a/contracts/ERC721A.sol\":27787:27817  _packedOwnerships[nextTokenId] */\n      0x00\n      dup2\n      dup2\n      mstore\n        /* \"erc721a/contracts/ERC721A.sol\":27787:27804  _packedOwnerships */\n      0x04\n        /* \"erc721a/contracts/ERC721A.sol\":27787:27817  _packedOwnerships[nextTokenId] */\n      0x20\n      mstore\n      0x40\n      swap1\n      keccak256\n        /* \"erc721a/contracts/ERC721A.sol\":27787:27839  _packedOwnerships[nextTokenId] = prevOwnershipPacked */\n      dup6\n      swap1\n      sstore\n        /* \"erc721a/contracts/ERC721A.sol\":27623:27862  if (nextTokenId != _currentIndex) {... */\n    tag_313:\n        /* \"erc721a/contracts/ERC721A.sol\":27335:27894  {... */\n      pop\n        /* \"erc721a/contracts/ERC721A.sol\":27278:27894  if (prevOwnershipPacked & BITMASK_NEXT_INITIALIZED == 0) {... */\n    tag_311:\n        /* \"erc721a/contracts/ERC721A.sol\":27919:27954  Transfer(from, address(0), tokenId) */\n      mload(0x40)\n        /* \"erc721a/contracts/ERC721A.sol\":27946:27953  tokenId */\n      dup7\n      swap1\n        /* \"erc721a/contracts/ERC721A.sol\":27942:27943  0 */\n      0x00\n      swap1\n      sub(shl(0xa0, 0x01), 0x01)\n        /* \"erc721a/contracts/ERC721A.sol\":27919:27954  Transfer(from, address(0), tokenId) */\n      dup7\n      and\n      swap1\n      0xddf252ad1be2c89b69c2b068fc378daa952ba7f163c4a11628f55a4df523b3ef\n      swap1\n        /* \"erc721a/contracts/ERC721A.sol\":27942:27943  0 */\n      dup4\n      swap1\n        /* \"erc721a/contracts/ERC721A.sol\":27919:27954  Transfer(from, address(0), tokenId) */\n      log4\n      pop\n      pop\n        /* \"erc721a/contracts/ERC721A.sol\":28137:28149  _burnCounter */\n      0x01\n        /* \"erc721a/contracts/ERC721A.sol\":28137:28151  _burnCounter++ */\n      dup1\n      sload\n      dup2\n      add\n      swap1\n      sstore\n      pop\n      pop\n      pop\n      pop\n        /* \"erc721a/contracts/ERC721A.sol\":25171:28168  function _burn(uint256 tokenId, bool approvalCheck) internal virtual {... */\n      jump\t// out\n        /* \"@openzeppelin/contracts/access/Ownable.sol\":2270:2457  function _transferOwnership(address newOwner) internal virtual {... */\n    tag_206:\n        /* \"@openzeppelin/contracts/access/Ownable.sol\":2362:2368  _owner */\n      0x08\n      dup1\n      sload\n      sub(shl(0xa0, 0x01), 0x01)\n        /* \"@openzeppelin/contracts/access/Ownable.sol\":2378:2395  _owner = newOwner */\n      dup4\n      dup2\n      and\n      not(sub(shl(0xa0, 0x01), 0x01))\n      dup4\n      and\n      dup2\n      or\n      swap1\n      swap4\n      sstore\n        /* \"@openzeppelin/contracts/access/Ownable.sol\":2410:2450  OwnershipTransferred(oldOwner, newOwner) */\n      mload(0x40)\n        /* \"@openzeppelin/contracts/access/Ownable.sol\":2362:2368  _owner */\n      swap2\n      and\n      swap2\n        /* \"@openzeppelin/contracts/access/Ownable.sol\":2378:2395  _owner = newOwner */\n      swap1\n        /* \"@openzeppelin/contracts/access/Ownable.sol\":2362:2368  _owner */\n      dup3\n      swap1\n        /* \"@openzeppelin/contracts/access/Ownable.sol\":2410:2450  OwnershipTransferred(oldOwner, newOwner) */\n      0x8be0079c531659141344cd1fd0a4f28419497f9722a3daafe3b4186f6b6457e0\n      swap1\n        /* \"@openzeppelin/contracts/access/Ownable.sol\":2343:2359  address oldOwner */\n      0x00\n      swap1\n        /* \"@openzeppelin/contracts/access/Ownable.sol\":2410:2450  OwnershipTransferred(oldOwner, newOwner) */\n      log3\n        /* \"@openzeppelin/contracts/access/Ownable.sol\":2333:2457  {... */\n      pop\n        /* \"@openzeppelin/contracts/access/Ownable.sol\":2270:2457  function _transferOwnership(address newOwner) internal virtual {... */\n      pop\n      jump\t// out\n        /* \"erc721a/contracts/ERC721A.sol\":15138:15240  function _safeMint(address to, uint256 quantity) internal {... */\n    tag_227:\n        /* \"erc721a/contracts/ERC721A.sol\":15206:15233  _safeMint(to, quantity, '') */\n      tag_193\n        /* \"erc721a/contracts/ERC721A.sol\":15216:15218  to */\n      dup3\n        /* \"erc721a/contracts/ERC721A.sol\":15220:15228  quantity */\n      dup3\n        /* \"erc721a/contracts/ERC721A.sol\":15206:15233  _safeMint(to, quantity, '') */\n      mload(0x40)\n      dup1\n      0x20\n      add\n      0x40\n      mstore\n      dup1\n      0x00\n      dup2\n      mstore\n      pop\n        /* \"erc721a/contracts/ERC721A.sol\":15206:15215  _safeMint */\n      tag_318\n        /* \"erc721a/contracts/ERC721A.sol\":15206:15233  _safeMint(to, quantity, '') */\n      jump\t// in\n        /* \"erc721a/contracts/ERC721A.sol\":28649:29346  function _checkContractOnERC721Received(... */\n    tag_239:\n        /* \"erc721a/contracts/ERC721A.sol\":28827:28915  ERC721A__IERC721Receiver(to).onERC721Received(_msgSenderERC721A(), from, tokenId, _data) */\n      mload(0x40)\n      shl(0xe1, 0x0a85bd01)\n      dup2\n      mstore\n        /* \"erc721a/contracts/ERC721A.sol\":28807:28811  bool */\n      0x00\n      swap1\n      sub(shl(0xa0, 0x01), 0x01)\n        /* \"erc721a/contracts/ERC721A.sol\":28827:28872  ERC721A__IERC721Receiver(to).onERC721Received */\n      dup6\n      and\n      swap1\n      0x150b7a02\n      swap1\n        /* \"erc721a/contracts/ERC721A.sol\":28827:28915  ERC721A__IERC721Receiver(to).onERC721Received(_msgSenderERC721A(), from, tokenId, _data) */\n      tag_321\n      swap1\n        /* \"erc721a/contracts/ERC721A.sol\":32960:32970  msg.sender */\n      caller\n      swap1\n        /* \"erc721a/contracts/ERC721A.sol\":28894:28898  from */\n      dup10\n      swap1\n        /* \"erc721a/contracts/ERC721A.sol\":28900:28907  tokenId */\n      dup9\n      swap1\n        /* \"erc721a/contracts/ERC721A.sol\":28909:28914  _data */\n      dup9\n      swap1\n        /* \"erc721a/contracts/ERC721A.sol\":28827:28915  ERC721A__IERC721Receiver(to).onERC721Received(_msgSenderERC721A(), from, tokenId, _data) */\n      0x04\n      add\n      tag_322\n      jump\t// in\n    tag_321:\n      0x20\n      mload(0x40)\n      dup1\n      dup4\n      sub\n      dup2\n      0x00\n      dup8\n      gas\n      call\n      swap3\n      pop\n      pop\n      pop\n      dup1\n      iszero\n      tag_323\n      jumpi\n      pop\n      0x40\n      dup1\n      mload\n      0x1f\n      returndatasize\n      swap1\n      dup2\n      add\n      not(0x1f)\n      and\n      dup3\n      add\n      swap1\n      swap3\n      mstore\n      tag_324\n      swap2\n      dup2\n      add\n      swap1\n      tag_325\n      jump\t// in\n    tag_324:\n      0x01\n    tag_323:\n        /* \"erc721a/contracts/ERC721A.sol\":28823:29340  try ERC721A__IERC721Receiver(to).onERC721Received(_msgSenderERC721A(), from, tokenId, _data) returns (... */\n      tag_326\n      jumpi\n      returndatasize\n      dup1\n      dup1\n      iszero\n      tag_331\n      jumpi\n      mload(0x40)\n      swap2\n      pop\n      and(add(returndatasize, 0x3f), not(0x1f))\n      dup3\n      add\n      0x40\n      mstore\n      returndatasize\n      dup3\n      mstore\n      returndatasize\n      0x00\n      0x20\n      dup5\n      add\n      returndatacopy\n      jump(tag_330)\n    tag_331:\n      0x60\n      swap2\n      pop\n    tag_330:\n      pop\n        /* \"erc721a/contracts/ERC721A.sol\":29105:29111  reason */\n      dup1\n        /* \"erc721a/contracts/ERC721A.sol\":29105:29118  reason.length */\n      mload\n        /* \"erc721a/contracts/ERC721A.sol\":29122:29123  0 */\n      0x00\n        /* \"erc721a/contracts/ERC721A.sol\":29105:29123  reason.length == 0 */\n      sub\n        /* \"erc721a/contracts/ERC721A.sol\":29101:29330  if (reason.length == 0) {... */\n      tag_332\n      jumpi\n        /* \"erc721a/contracts/ERC721A.sol\":29150:29190  TransferToNonERC721ReceiverImplementer() */\n      mload(0x40)\n      shl(0xe1, 0x68d2bf6b)\n      dup2\n      mstore\n      0x04\n      add\n      mload(0x40)\n      dup1\n      swap2\n      sub\n      swap1\n      revert\n        /* \"erc721a/contracts/ERC721A.sol\":29101:29330  if (reason.length == 0) {... */\n    tag_332:\n        /* \"erc721a/contracts/ERC721A.sol\":29290:29296  reason */\n      dup1\n        /* \"erc721a/contracts/ERC721A.sol\":29284:29297  mload(reason) */\n      mload\n        /* \"erc721a/contracts/ERC721A.sol\":29275:29281  reason */\n      dup2\n        /* \"erc721a/contracts/ERC721A.sol\":29271:29273  32 */\n      0x20\n        /* \"erc721a/contracts/ERC721A.sol\":29267:29282  add(32, reason) */\n      add\n        /* \"erc721a/contracts/ERC721A.sol\":29260:29298  revert(add(32, reason), mload(reason)) */\n      revert\n        /* \"erc721a/contracts/ERC721A.sol\":28823:29340  try ERC721A__IERC721Receiver(to).onERC721Received(_msgSenderERC721A(), from, tokenId, _data) returns (... */\n    tag_326:\n      not(sub(shl(0xe0, 0x01), 0x01))\n        /* \"erc721a/contracts/ERC721A.sol\":28983:29047  retval == ERC721A__IERC721Receiver(to).onERC721Received.selector */\n      and\n      shl(0xe1, 0x0a85bd01)\n      eq\n      swap1\n      pop\n        /* \"erc721a/contracts/ERC721A.sol\":28823:29340  try ERC721A__IERC721Receiver(to).onERC721Received(_msgSenderERC721A(), from, tokenId, _data) returns (... */\n    tag_334:\n        /* \"erc721a/contracts/ERC721A.sol\":28649:29346  function _checkContractOnERC721Received(... */\n      swap5\n      swap4\n      pop\n      pop\n      pop\n      pop\n      jump\t// out\n        /* \"ERC721A/NagaKidsERC721A.sol\":1341:1441  function _baseURI() internal view override returns (string memory) {... */\n    tag_252:\n        /* \"ERC721A/NagaKidsERC721A.sol\":1393:1406  string memory */\n      0x60\n        /* \"ERC721A/NagaKidsERC721A.sol\":1426:1433  baseURI */\n      0x0a\n        /* \"ERC721A/NagaKidsERC721A.sol\":1419:1433  return baseURI */\n      dup1\n      sload\n      tag_126\n      swap1\n      tag_127\n      jump\t// in\n        /* \"@openzeppelin/contracts/utils/Strings.sol\":328:1031  function toString(uint256 value) internal pure returns (string memory) {... */\n    tag_256:\n        /* \"@openzeppelin/contracts/utils/Strings.sol\":384:397  string memory */\n      0x60\n        /* \"@openzeppelin/contracts/utils/Strings.sol\":601:606  value */\n      dup2\n        /* \"@openzeppelin/contracts/utils/Strings.sol\":610:611  0 */\n      0x00\n        /* \"@openzeppelin/contracts/utils/Strings.sol\":601:611  value == 0 */\n      sub\n        /* \"@openzeppelin/contracts/utils/Strings.sol\":597:648  if (value == 0) {... */\n      tag_342\n      jumpi\n      pop\n      pop\n        /* \"@openzeppelin/contracts/utils/Strings.sol\":627:637  return \"0\" */\n      0x40\n      dup1\n      mload\n      dup1\n      dup3\n      add\n      swap1\n      swap2\n      mstore\n      0x01\n      dup2\n      mstore\n      shl(0xfc, 0x03)\n      0x20\n      dup3\n      add\n      mstore\n      swap1\n        /* \"@openzeppelin/contracts/utils/Strings.sol\":328:1031  function toString(uint256 value) internal pure returns (string memory) {... */\n      jump\t// out\n        /* \"@openzeppelin/contracts/utils/Strings.sol\":597:648  if (value == 0) {... */\n    tag_342:\n        /* \"@openzeppelin/contracts/utils/Strings.sol\":672:677  value */\n      dup2\n        /* \"@openzeppelin/contracts/utils/Strings.sol\":657:669  uint256 temp */\n      0x00\n        /* \"@openzeppelin/contracts/utils/Strings.sol\":711:786  while (temp != 0) {... */\n    tag_343:\n        /* \"@openzeppelin/contracts/utils/Strings.sol\":718:727  temp != 0 */\n      dup2\n      iszero\n        /* \"@openzeppelin/contracts/utils/Strings.sol\":711:786  while (temp != 0) {... */\n      tag_344\n      jumpi\n        /* \"@openzeppelin/contracts/utils/Strings.sol\":743:751  digits++ */\n      dup1\n      tag_345\n      dup2\n      tag_346\n      jump\t// in\n    tag_345:\n      swap2\n      pop\n        /* \"@openzeppelin/contracts/utils/Strings.sol\":765:775  temp /= 10 */\n      tag_347\n      swap1\n      pop\n        /* \"@openzeppelin/contracts/utils/Strings.sol\":773:775  10 */\n      0x0a\n        /* \"@openzeppelin/contracts/utils/Strings.sol\":765:775  temp /= 10 */\n      dup4\n      tag_348\n      jump\t// in\n    tag_347:\n      swap2\n      pop\n        /* \"@openzeppelin/contracts/utils/Strings.sol\":711:786  while (temp != 0) {... */\n      jump(tag_343)\n    tag_344:\n        /* \"@openzeppelin/contracts/utils/Strings.sol\":795:814  bytes memory buffer */\n      0x00\n        /* \"@openzeppelin/contracts/utils/Strings.sol\":827:833  digits */\n      dup2\n        /* \"@openzeppelin/contracts/utils/Strings.sol\":817:834  new bytes(digits) */\n      0xffffffffffffffff\n      dup2\n      gt\n      iszero\n      tag_350\n      jumpi\n      tag_350\n      tag_351\n      jump\t// in\n    tag_350:\n      mload(0x40)\n      swap1\n      dup1\n      dup3\n      mstore\n      dup1\n      0x1f\n      add\n      not(0x1f)\n      and\n      0x20\n      add\n      dup3\n      add\n      0x40\n      mstore\n      dup1\n      iszero\n      tag_352\n      jumpi\n      0x20\n      dup3\n      add\n      dup2\n      dup1\n      calldatasize\n      dup4\n      calldatacopy\n      add\n      swap1\n      pop\n    tag_352:\n      pop\n        /* \"@openzeppelin/contracts/utils/Strings.sol\":795:834  bytes memory buffer = new bytes(digits) */\n      swap1\n      pop\n        /* \"@openzeppelin/contracts/utils/Strings.sol\":844:994  while (value != 0) {... */\n    tag_353:\n        /* \"@openzeppelin/contracts/utils/Strings.sol\":851:861  value != 0 */\n      dup5\n      iszero\n        /* \"@openzeppelin/contracts/utils/Strings.sol\":844:994  while (value != 0) {... */\n      tag_334\n      jumpi\n        /* \"@openzeppelin/contracts/utils/Strings.sol\":877:888  digits -= 1 */\n      tag_355\n        /* \"@openzeppelin/contracts/utils/Strings.sol\":887:888  1 */\n      0x01\n        /* \"@openzeppelin/contracts/utils/Strings.sol\":877:888  digits -= 1 */\n      dup4\n      tag_356\n      jump\t// in\n    tag_355:\n      swap2\n      pop\n        /* \"@openzeppelin/contracts/utils/Strings.sol\":945:955  value % 10 */\n      tag_357\n        /* \"@openzeppelin/contracts/utils/Strings.sol\":953:955  10 */\n      0x0a\n        /* \"@openzeppelin/contracts/utils/Strings.sol\":945:950  value */\n      dup7\n        /* \"@openzeppelin/contracts/utils/Strings.sol\":945:955  value % 10 */\n      tag_358\n      jump\t// in\n    tag_357:\n        /* \"@openzeppelin/contracts/utils/Strings.sol\":932:956  48 + uint256(value % 10) */\n      tag_359\n      swap1\n        /* \"@openzeppelin/contracts/utils/Strings.sol\":932:934  48 */\n      0x30\n        /* \"@openzeppelin/contracts/utils/Strings.sol\":932:956  48 + uint256(value % 10) */\n      tag_222\n      jump\t// in\n    tag_359:\n        /* \"@openzeppelin/contracts/utils/Strings.sol\":919:958  bytes1(uint8(48 + uint256(value % 10))) */\n      0xf8\n      shl\n        /* \"@openzeppelin/contracts/utils/Strings.sol\":902:908  buffer */\n      dup2\n        /* \"@openzeppelin/contracts/utils/Strings.sol\":909:915  digits */\n      dup4\n        /* \"@openzeppelin/contracts/utils/Strings.sol\":902:916  buffer[digits] */\n      dup2\n      mload\n      dup2\n      lt\n      tag_361\n      jumpi\n      tag_361\n      tag_362\n      jump\t// in\n    tag_361:\n      0x20\n      add\n      add\n        /* \"@openzeppelin/contracts/utils/Strings.sol\":902:958  buffer[digits] = bytes1(uint8(48 + uint256(value % 10))) */\n      swap1\n      not(sub(shl(0xf8, 0x01), 0x01))\n      and\n      swap1\n      dup2\n      0x00\n      byte\n      swap1\n      mstore8\n      pop\n        /* \"@openzeppelin/contracts/utils/Strings.sol\":972:983  value /= 10 */\n      tag_363\n        /* \"@openzeppelin/contracts/utils/Strings.sol\":981:983  10 */\n      0x0a\n        /* \"@openzeppelin/contracts/utils/Strings.sol\":972:983  value /= 10 */\n      dup7\n      tag_348\n      jump\t// in\n    tag_363:\n      swap5\n      pop\n        /* \"@openzeppelin/contracts/utils/Strings.sol\":844:994  while (value != 0) {... */\n      jump(tag_353)\n        /* \"erc721a/contracts/ERC721A.sol\":15641:16302  function _safeMint(... */\n    tag_318:\n        /* \"erc721a/contracts/ERC721A.sol\":15759:15778  _mint(to, quantity) */\n      tag_366\n        /* \"erc721a/contracts/ERC721A.sol\":15765:15767  to */\n      dup4\n        /* \"erc721a/contracts/ERC721A.sol\":15769:15777  quantity */\n      dup4\n        /* \"erc721a/contracts/ERC721A.sol\":15759:15764  _mint */\n      tag_367\n        /* \"erc721a/contracts/ERC721A.sol\":15759:15778  _mint(to, quantity) */\n      jump\t// in\n    tag_366:\n      sub(shl(0xa0, 0x01), 0x01)\n        /* \"erc721a/contracts/ERC721A.sol\":15817:15831  to.code.length */\n      dup4\n      and\n      extcodesize\n        /* \"erc721a/contracts/ERC721A.sol\":15817:15836  to.code.length != 0 */\n      iszero\n        /* \"erc721a/contracts/ERC721A.sol\":15813:16286  if (to.code.length != 0) {... */\n      tag_183\n      jumpi\n        /* \"erc721a/contracts/ERC721A.sol\":15856:15867  uint256 end */\n      0x00\n        /* \"erc721a/contracts/ERC721A.sol\":15870:15883  _currentIndex */\n      sload\n        /* \"erc721a/contracts/ERC721A.sol\":15917:15931  end - quantity */\n      dup3\n      dup2\n      sub\n        /* \"erc721a/contracts/ERC721A.sol\":15949:16178  do {... */\n    tag_369:\n        /* \"erc721a/contracts/ERC721A.sol\":15979:16041  _checkContractOnERC721Received(address(0), to, index++, _data) */\n      tag_372\n        /* \"erc721a/contracts/ERC721A.sol\":16018:16019  0 */\n      0x00\n        /* \"erc721a/contracts/ERC721A.sol\":16022:16024  to */\n      dup7\n        /* \"erc721a/contracts/ERC721A.sol\":16026:16033  index++ */\n      dup4\n      dup1\n      0x01\n      add\n      swap5\n      pop\n        /* \"erc721a/contracts/ERC721A.sol\":16035:16040  _data */\n      dup7\n        /* \"erc721a/contracts/ERC721A.sol\":15979:16009  _checkContractOnERC721Received */\n      tag_239\n        /* \"erc721a/contracts/ERC721A.sol\":15979:16041  _checkContractOnERC721Received(address(0), to, index++, _data) */\n      jump\t// in\n    tag_372:\n        /* \"erc721a/contracts/ERC721A.sol\":15974:16139  if (!_checkContractOnERC721Received(address(0), to, index++, _data)) {... */\n      tag_373\n      jumpi\n        /* \"erc721a/contracts/ERC721A.sol\":16076:16116  TransferToNonERC721ReceiverImplementer() */\n      mload(0x40)\n      shl(0xe1, 0x68d2bf6b)\n      dup2\n      mstore\n      0x04\n      add\n      mload(0x40)\n      dup1\n      swap2\n      sub\n      swap1\n      revert\n        /* \"erc721a/contracts/ERC721A.sol\":15974:16139  if (!_checkContractOnERC721Received(address(0), to, index++, _data)) {... */\n    tag_373:\n        /* \"erc721a/contracts/ERC721A.sol\":16173:16176  end */\n      dup2\n        /* \"erc721a/contracts/ERC721A.sol\":16165:16170  index */\n      dup2\n        /* \"erc721a/contracts/ERC721A.sol\":16165:16176  index < end */\n      lt\n        /* \"erc721a/contracts/ERC721A.sol\":15949:16178  do {... */\n      tag_369\n      jumpi\n        /* \"erc721a/contracts/ERC721A.sol\":16258:16261  end */\n      dup2\n        /* \"erc721a/contracts/ERC721A.sol\":16241:16254  _currentIndex */\n      sload(0x00)\n        /* \"erc721a/contracts/ERC721A.sol\":16241:16261  _currentIndex != end */\n      eq\n        /* \"erc721a/contracts/ERC721A.sol\":16237:16271  if (_currentIndex != end) revert() */\n      tag_374\n      jumpi\n        /* \"erc721a/contracts/ERC721A.sol\":16263:16271  revert() */\n      0x00\n      dup1\n      revert\n        /* \"erc721a/contracts/ERC721A.sol\":16237:16271  if (_currentIndex != end) revert() */\n    tag_374:\n        /* \"erc721a/contracts/ERC721A.sol\":15838:16286  {... */\n      pop\n      pop\n        /* \"erc721a/contracts/ERC721A.sol\":15641:16302  function _safeMint(... */\n      pop\n      pop\n      pop\n      jump\t// out\n        /* \"erc721a/contracts/ERC721A.sol\":16563:18055  function _mint(address to, uint256 quantity) internal {... */\n    tag_367:\n        /* \"erc721a/contracts/ERC721A.sol\":16627:16647  uint256 startTokenId */\n      0x00\n        /* \"erc721a/contracts/ERC721A.sol\":16650:16663  _currentIndex */\n      sload\n      sub(shl(0xa0, 0x01), 0x01)\n        /* \"erc721a/contracts/ERC721A.sol\":16677:16693  to == address(0) */\n      dup4\n      and\n        /* \"erc721a/contracts/ERC721A.sol\":16673:16721  if (to == address(0)) revert MintToZeroAddress() */\n      tag_376\n      jumpi\n        /* \"erc721a/contracts/ERC721A.sol\":16702:16721  MintToZeroAddress() */\n      mload(0x40)\n      shl(0xe8, 0x2e0763)\n      dup2\n      mstore\n      0x04\n      add\n      mload(0x40)\n      dup1\n      swap2\n      sub\n      swap1\n      revert\n        /* \"erc721a/contracts/ERC721A.sol\":16673:16721  if (to == address(0)) revert MintToZeroAddress() */\n    tag_376:\n        /* \"erc721a/contracts/ERC721A.sol\":16735:16743  quantity */\n      dup2\n        /* \"erc721a/contracts/ERC721A.sol\":16747:16748  0 */\n      0x00\n        /* \"erc721a/contracts/ERC721A.sol\":16735:16748  quantity == 0 */\n      sub\n        /* \"erc721a/contracts/ERC721A.sol\":16731:16775  if (quantity == 0) revert MintZeroQuantity() */\n      tag_377\n      jumpi\n        /* \"erc721a/contracts/ERC721A.sol\":16757:16775  MintZeroQuantity() */\n      mload(0x40)\n      shl(0xe0, 0xb562e8dd)\n      dup2\n      mstore\n      0x04\n      add\n      mload(0x40)\n      dup1\n      swap2\n      sub\n      swap1\n      revert\n        /* \"erc721a/contracts/ERC721A.sol\":16731:16775  if (quantity == 0) revert MintZeroQuantity() */\n    tag_377:\n        /* \"erc721a/contracts/ERC721A.sol\":16786:16847  _beforeTokenTransfers(address(0), to, startTokenId, quantity) */\n      tag_378\n        /* \"erc721a/contracts/ERC721A.sol\":16816:16817  0 */\n      0x00\n        /* \"erc721a/contracts/ERC721A.sol\":16820:16822  to */\n      dup5\n        /* \"erc721a/contracts/ERC721A.sol\":16824:16836  startTokenId */\n      dup4\n        /* \"erc721a/contracts/ERC721A.sol\":16838:16846  quantity */\n      dup6\n        /* \"erc721a/contracts/ERC721A.sol\":16786:16807  _beforeTokenTransfers */\n      tag_162\n        /* \"erc721a/contracts/ERC721A.sol\":16786:16847  _beforeTokenTransfers(address(0), to, startTokenId, quantity) */\n      jump\t// in\n    tag_378:\n      sub(shl(0xa0, 0x01), 0x01)\n        /* \"erc721a/contracts/ERC721A.sol\":17250:17272  _packedAddressData[to] */\n      dup4\n      and\n      0x00\n      dup2\n      dup2\n      mstore\n        /* \"erc721a/contracts/ERC721A.sol\":17250:17268  _packedAddressData */\n      0x05\n        /* \"erc721a/contracts/ERC721A.sol\":17250:17272  _packedAddressData[to] */\n      0x20\n      mstore\n        /* \"erc721a/contracts/ERC721A.sol\":1156:1158  64 */\n      0x40\n        /* \"erc721a/contracts/ERC721A.sol\":17250:17272  _packedAddressData[to] */\n      swap1\n      keccak256\n        /* \"erc721a/contracts/ERC721A.sol\":17250:17320  _packedAddressData[to] += quantity * ((1 << BITPOS_NUMBER_MINTED) | 1) */\n      dup1\n      sload\n        /* \"erc721a/contracts/ERC721A.sol\":17288:17319  (1 << BITPOS_NUMBER_MINTED) | 1 */\n      0x010000000000000001\n        /* \"erc721a/contracts/ERC721A.sol\":17276:17320  quantity * ((1 << BITPOS_NUMBER_MINTED) | 1) */\n      dup6\n      mul\n        /* \"erc721a/contracts/ERC721A.sol\":17250:17320  _packedAddressData[to] += quantity * ((1 << BITPOS_NUMBER_MINTED) | 1) */\n      add\n      swap1\n      sstore\n        /* \"erc721a/contracts/ERC721A.sol\":10863:10874  timestamp() */\n      timestamp\n        /* \"erc721a/contracts/ERC721A.sol\":10839:10861  BITPOS_START_TIMESTAMP */\n      0xa0\n        /* \"erc721a/contracts/ERC721A.sol\":10835:10875  shl(BITPOS_START_TIMESTAMP, timestamp()) */\n      shl\n      0x01\n        /* \"erc721a/contracts/ERC721A.sol\":12522:12537  eq(quantity, 1) */\n      dup5\n      eq\n        /* \"erc721a/contracts/ERC721A.sol\":12497:12520  BITPOS_NEXT_INITIALIZED */\n      0xe1\n        /* \"erc721a/contracts/ERC721A.sol\":12493:12538  shl(BITPOS_NEXT_INITIALIZED, eq(quantity, 1)) */\n      shl\n        /* \"erc721a/contracts/ERC721A.sol\":10832:10883  or(shl(BITPOS_START_TIMESTAMP, timestamp()), flags) */\n      or\n        /* \"erc721a/contracts/ERC721A.sol\":10822:10884  or(owner, or(shl(BITPOS_START_TIMESTAMP, timestamp()), flags)) */\n      or\n        /* \"erc721a/contracts/ERC721A.sol\":17556:17587  _packedOwnerships[startTokenId] */\n      0x00\n      dup3\n      dup2\n      mstore\n        /* \"erc721a/contracts/ERC721A.sol\":17556:17573  _packedOwnerships */\n      0x04\n        /* \"erc721a/contracts/ERC721A.sol\":17556:17587  _packedOwnerships[startTokenId] */\n      0x20\n      mstore\n      0x40\n      swap1\n      keccak256\n        /* \"erc721a/contracts/ERC721A.sol\":17556:17726  _packedOwnerships[startTokenId] = _packOwnershipData(... */\n      sstore\n        /* \"erc721a/contracts/ERC721A.sol\":17574:17586  startTokenId */\n      dup1\n        /* \"erc721a/contracts/ERC721A.sol\":17799:17822  startTokenId + quantity */\n      dup3\n      dup2\n      add\n        /* \"erc721a/contracts/ERC721A.sol\":17836:17935  do {... */\n    tag_383:\n        /* \"erc721a/contracts/ERC721A.sol\":17862:17897  Transfer(address(0), to, tokenId++) */\n      mload(0x40)\n        /* \"erc721a/contracts/ERC721A.sol\":17887:17896  tokenId++ */\n      0x01\n      dup4\n      add\n      swap3\n      swap1\n      sub(shl(0xa0, 0x01), 0x01)\n        /* \"erc721a/contracts/ERC721A.sol\":17862:17897  Transfer(address(0), to, tokenId++) */\n      dup8\n      and\n      swap1\n        /* \"erc721a/contracts/ERC721A.sol\":17879:17880  0 */\n      0x00\n      swap1\n        /* \"erc721a/contracts/ERC721A.sol\":17862:17897  Transfer(address(0), to, tokenId++) */\n      0xddf252ad1be2c89b69c2b068fc378daa952ba7f163c4a11628f55a4df523b3ef\n      swap1\n        /* \"erc721a/contracts/ERC721A.sol\":17879:17880  0 */\n      dup3\n      swap1\n        /* \"erc721a/contracts/ERC721A.sol\":17862:17897  Transfer(address(0), to, tokenId++) */\n      log4\n        /* \"erc721a/contracts/ERC721A.sol\":17930:17933  end */\n      dup1\n        /* \"erc721a/contracts/ERC721A.sol\":17920:17927  tokenId */\n      dup3\n        /* \"erc721a/contracts/ERC721A.sol\":17920:17933  tokenId < end */\n      lt\n        /* \"erc721a/contracts/ERC721A.sol\":17836:17935  do {... */\n      tag_383\n      jumpi\n        /* \"erc721a/contracts/ERC721A.sol\":17949:17962  _currentIndex */\n      0x00\n        /* \"erc721a/contracts/ERC721A.sol\":17949:17968  _currentIndex = end */\n      sstore\n      pop\n        /* \"erc721a/contracts/ERC721A.sol\":13912:14091  function safeTransferFrom(... */\n      pop\n      pop\n      pop\n      jump\t// out\n        /* \"#utility.yul\":14:145   */\n    tag_388:\n      not(sub(shl(0xe0, 0x01), 0x01))\n        /* \"#utility.yul\":88:120   */\n      dup2\n      and\n        /* \"#utility.yul\":78:121   */\n      dup2\n      eq\n        /* \"#utility.yul\":68:139   */\n      tag_185\n      jumpi\n        /* \"#utility.yul\":135:136   */\n      0x00\n        /* \"#utility.yul\":132:133   */\n      dup1\n        /* \"#utility.yul\":125:137   */\n      revert\n        /* \"#utility.yul\":150:395   */\n    tag_32:\n        /* \"#utility.yul\":208:214   */\n      0x00\n        /* \"#utility.yul\":261:263   */\n      0x20\n        /* \"#utility.yul\":249:258   */\n      dup3\n        /* \"#utility.yul\":240:247   */\n      dup5\n        /* \"#utility.yul\":236:259   */\n      sub\n        /* \"#utility.yul\":232:264   */\n      slt\n        /* \"#utility.yul\":229:281   */\n      iszero\n      tag_402\n      jumpi\n        /* \"#utility.yul\":277:278   */\n      0x00\n        /* \"#utility.yul\":274:275   */\n      dup1\n        /* \"#utility.yul\":267:279   */\n      revert\n        /* \"#utility.yul\":229:281   */\n    tag_402:\n        /* \"#utility.yul\":316:325   */\n      dup2\n        /* \"#utility.yul\":303:326   */\n      calldataload\n        /* \"#utility.yul\":335:365   */\n      tag_254\n        /* \"#utility.yul\":359:364   */\n      dup2\n        /* \"#utility.yul\":335:365   */\n      tag_388\n      jump\t// in\n        /* \"#utility.yul\":592:850   */\n    tag_389:\n        /* \"#utility.yul\":664:665   */\n      0x00\n        /* \"#utility.yul\":674:787   */\n    tag_406:\n        /* \"#utility.yul\":688:694   */\n      dup4\n        /* \"#utility.yul\":685:686   */\n      dup2\n        /* \"#utility.yul\":682:695   */\n      lt\n        /* \"#utility.yul\":674:787   */\n      iszero\n      tag_408\n      jumpi\n        /* \"#utility.yul\":764:775   */\n      dup2\n      dup2\n      add\n        /* \"#utility.yul\":758:776   */\n      mload\n        /* \"#utility.yul\":745:756   */\n      dup4\n      dup3\n      add\n        /* \"#utility.yul\":738:777   */\n      mstore\n        /* \"#utility.yul\":710:712   */\n      0x20\n        /* \"#utility.yul\":703:713   */\n      add\n        /* \"#utility.yul\":674:787   */\n      jump(tag_406)\n    tag_408:\n        /* \"#utility.yul\":805:811   */\n      dup4\n        /* \"#utility.yul\":802:803   */\n      dup2\n        /* \"#utility.yul\":799:812   */\n      gt\n        /* \"#utility.yul\":796:844   */\n      iszero\n      tag_226\n      jumpi\n      pop\n      pop\n        /* \"#utility.yul\":840:841   */\n      0x00\n        /* \"#utility.yul\":822:838   */\n      swap2\n      add\n        /* \"#utility.yul\":815:842   */\n      mstore\n        /* \"#utility.yul\":592:850   */\n      jump\t// out\n        /* \"#utility.yul\":855:1113   */\n    tag_390:\n        /* \"#utility.yul\":897:900   */\n      0x00\n        /* \"#utility.yul\":935:940   */\n      dup2\n        /* \"#utility.yul\":929:941   */\n      mload\n        /* \"#utility.yul\":962:968   */\n      dup1\n        /* \"#utility.yul\":957:960   */\n      dup5\n        /* \"#utility.yul\":950:969   */\n      mstore\n        /* \"#utility.yul\":978:1041   */\n      tag_411\n        /* \"#utility.yul\":1034:1040   */\n      dup2\n        /* \"#utility.yul\":1027:1031   */\n      0x20\n        /* \"#utility.yul\":1022:1025   */\n      dup7\n        /* \"#utility.yul\":1018:1032   */\n      add\n        /* \"#utility.yul\":1011:1015   */\n      0x20\n        /* \"#utility.yul\":1004:1009   */\n      dup7\n        /* \"#utility.yul\":1000:1016   */\n      add\n        /* \"#utility.yul\":978:1041   */\n      tag_389\n      jump\t// in\n    tag_411:\n        /* \"#utility.yul\":1095:1097   */\n      0x1f\n        /* \"#utility.yul\":1074:1089   */\n      add\n      not(0x1f)\n        /* \"#utility.yul\":1070:1099   */\n      and\n        /* \"#utility.yul\":1061:1100   */\n      swap3\n      swap1\n      swap3\n      add\n        /* \"#utility.yul\":1102:1106   */\n      0x20\n        /* \"#utility.yul\":1057:1107   */\n      add\n      swap3\n        /* \"#utility.yul\":855:1113   */\n      swap2\n      pop\n      pop\n      jump\t// out\n        /* \"#utility.yul\":1118:1338   */\n    tag_39:\n        /* \"#utility.yul\":1267:1269   */\n      0x20\n        /* \"#utility.yul\":1256:1265   */\n      dup2\n        /* \"#utility.yul\":1249:1270   */\n      mstore\n        /* \"#utility.yul\":1230:1234   */\n      0x00\n        /* \"#utility.yul\":1287:1332   */\n      tag_254\n        /* \"#utility.yul\":1328:1330   */\n      0x20\n        /* \"#utility.yul\":1317:1326   */\n      dup4\n        /* \"#utility.yul\":1313:1331   */\n      add\n        /* \"#utility.yul\":1305:1311   */\n      dup5\n        /* \"#utility.yul\":1287:1332   */\n      tag_390\n      jump\t// in\n        /* \"#utility.yul\":1343:1523   */\n    tag_42:\n        /* \"#utility.yul\":1402:1408   */\n      0x00\n        /* \"#utility.yul\":1455:1457   */\n      0x20\n        /* \"#utility.yul\":1443:1452   */\n      dup3\n        /* \"#utility.yul\":1434:1441   */\n      dup5\n        /* \"#utility.yul\":1430:1453   */\n      sub\n        /* \"#utility.yul\":1426:1458   */\n      slt\n        /* \"#utility.yul\":1423:1475   */\n      iszero\n      tag_415\n      jumpi\n        /* \"#utility.yul\":1471:1472   */\n      0x00\n        /* \"#utility.yul\":1468:1469   */\n      dup1\n        /* \"#utility.yul\":1461:1473   */\n      revert\n        /* \"#utility.yul\":1423:1475   */\n    tag_415:\n      pop\n        /* \"#utility.yul\":1494:1517   */\n      calldataload\n      swap2\n        /* \"#utility.yul\":1343:1523   */\n      swap1\n      pop\n      jump\t// out\n        /* \"#utility.yul\":1736:1909   */\n    tag_391:\n        /* \"#utility.yul\":1804:1824   */\n      dup1\n      calldataload\n      sub(shl(0xa0, 0x01), 0x01)\n        /* \"#utility.yul\":1853:1884   */\n      dup2\n      and\n        /* \"#utility.yul\":1843:1885   */\n      dup2\n      eq\n        /* \"#utility.yul\":1833:1903   */\n      tag_418\n      jumpi\n        /* \"#utility.yul\":1899:1900   */\n      0x00\n        /* \"#utility.yul\":1896:1897   */\n      dup1\n        /* \"#utility.yul\":1889:1901   */\n      revert\n        /* \"#utility.yul\":1833:1903   */\n    tag_418:\n        /* \"#utility.yul\":1736:1909   */\n      swap2\n      swap1\n      pop\n      jump\t// out\n        /* \"#utility.yul\":1914:2168   */\n    tag_48:\n        /* \"#utility.yul\":1982:1988   */\n      0x00\n        /* \"#utility.yul\":1990:1996   */\n      dup1\n        /* \"#utility.yul\":2043:2045   */\n      0x40\n        /* \"#utility.yul\":2031:2040   */\n      dup4\n        /* \"#utility.yul\":2022:2029   */\n      dup6\n        /* \"#utility.yul\":2018:2041   */\n      sub\n        /* \"#utility.yul\":2014:2046   */\n      slt\n        /* \"#utility.yul\":2011:2063   */\n      iszero\n      tag_420\n      jumpi\n        /* \"#utility.yul\":2059:2060   */\n      0x00\n        /* \"#utility.yul\":2056:2057   */\n      dup1\n        /* \"#utility.yul\":2049:2061   */\n      revert\n        /* \"#utility.yul\":2011:2063   */\n    tag_420:\n        /* \"#utility.yul\":2082:2111   */\n      tag_421\n        /* \"#utility.yul\":2101:2110   */\n      dup4\n        /* \"#utility.yul\":2082:2111   */\n      tag_391\n      jump\t// in\n    tag_421:\n        /* \"#utility.yul\":2072:2111   */\n      swap5\n        /* \"#utility.yul\":2158:2160   */\n      0x20\n        /* \"#utility.yul\":2143:2161   */\n      swap4\n      swap1\n      swap4\n      add\n        /* \"#utility.yul\":2130:2162   */\n      calldataload\n      swap4\n      pop\n      pop\n      pop\n        /* \"#utility.yul\":1914:2168   */\n      jump\t// out\n        /* \"#utility.yul\":2355:2683   */\n    tag_56:\n        /* \"#utility.yul\":2432:2438   */\n      0x00\n        /* \"#utility.yul\":2440:2446   */\n      dup1\n        /* \"#utility.yul\":2448:2454   */\n      0x00\n        /* \"#utility.yul\":2501:2503   */\n      0x60\n        /* \"#utility.yul\":2489:2498   */\n      dup5\n        /* \"#utility.yul\":2480:2487   */\n      dup7\n        /* \"#utility.yul\":2476:2499   */\n      sub\n        /* \"#utility.yul\":2472:2504   */\n      slt\n        /* \"#utility.yul\":2469:2521   */\n      iszero\n      tag_424\n      jumpi\n        /* \"#utility.yul\":2517:2518   */\n      0x00\n        /* \"#utility.yul\":2514:2515   */\n      dup1\n        /* \"#utility.yul\":2507:2519   */\n      revert\n        /* \"#utility.yul\":2469:2521   */\n    tag_424:\n        /* \"#utility.yul\":2540:2569   */\n      tag_425\n        /* \"#utility.yul\":2559:2568   */\n      dup5\n        /* \"#utility.yul\":2540:2569   */\n      tag_391\n      jump\t// in\n    tag_425:\n        /* \"#utility.yul\":2530:2569   */\n      swap3\n      pop\n        /* \"#utility.yul\":2588:2626   */\n      tag_426\n        /* \"#utility.yul\":2622:2624   */\n      0x20\n        /* \"#utility.yul\":2611:2620   */\n      dup6\n        /* \"#utility.yul\":2607:2625   */\n      add\n        /* \"#utility.yul\":2588:2626   */\n      tag_391\n      jump\t// in\n    tag_426:\n        /* \"#utility.yul\":2578:2626   */\n      swap2\n      pop\n        /* \"#utility.yul\":2673:2675   */\n      0x40\n        /* \"#utility.yul\":2662:2671   */\n      dup5\n        /* \"#utility.yul\":2658:2676   */\n      add\n        /* \"#utility.yul\":2645:2677   */\n      calldataload\n        /* \"#utility.yul\":2635:2677   */\n      swap1\n      pop\n        /* \"#utility.yul\":2355:2683   */\n      swap3\n      pop\n      swap3\n      pop\n      swap3\n      jump\t// out\n        /* \"#utility.yul\":2688:3035   */\n    tag_60:\n        /* \"#utility.yul\":2753:2759   */\n      0x00\n        /* \"#utility.yul\":2761:2767   */\n      dup1\n        /* \"#utility.yul\":2814:2816   */\n      0x40\n        /* \"#utility.yul\":2802:2811   */\n      dup4\n        /* \"#utility.yul\":2793:2800   */\n      dup6\n        /* \"#utility.yul\":2789:2812   */\n      sub\n        /* \"#utility.yul\":2785:2817   */\n      slt\n        /* \"#utility.yul\":2782:2834   */\n      iszero\n      tag_428\n      jumpi\n        /* \"#utility.yul\":2830:2831   */\n      0x00\n        /* \"#utility.yul\":2827:2828   */\n      dup1\n        /* \"#utility.yul\":2820:2832   */\n      revert\n        /* \"#utility.yul\":2782:2834   */\n    tag_428:\n        /* \"#utility.yul\":2853:2882   */\n      tag_429\n        /* \"#utility.yul\":2872:2881   */\n      dup4\n        /* \"#utility.yul\":2853:2882   */\n      tag_391\n      jump\t// in\n    tag_429:\n        /* \"#utility.yul\":2843:2882   */\n      swap2\n      pop\n        /* \"#utility.yul\":2932:2934   */\n      0x20\n        /* \"#utility.yul\":2921:2930   */\n      dup4\n        /* \"#utility.yul\":2917:2935   */\n      add\n        /* \"#utility.yul\":2904:2936   */\n      calldataload\n        /* \"#utility.yul\":2979:2984   */\n      dup1\n        /* \"#utility.yul\":2972:2985   */\n      iszero\n        /* \"#utility.yul\":2965:2986   */\n      iszero\n        /* \"#utility.yul\":2958:2963   */\n      dup2\n        /* \"#utility.yul\":2955:2987   */\n      eq\n        /* \"#utility.yul\":2945:3005   */\n      tag_430\n      jumpi\n        /* \"#utility.yul\":3001:3002   */\n      0x00\n        /* \"#utility.yul\":2998:2999   */\n      dup1\n        /* \"#utility.yul\":2991:3003   */\n      revert\n        /* \"#utility.yul\":2945:3005   */\n    tag_430:\n        /* \"#utility.yul\":3024:3029   */\n      dup1\n        /* \"#utility.yul\":3014:3029   */\n      swap2\n      pop\n      pop\n        /* \"#utility.yul\":2688:3035   */\n      swap3\n      pop\n      swap3\n      swap1\n      pop\n      jump\t// out\n        /* \"#utility.yul\":3040:3167   */\n    tag_351:\n        /* \"#utility.yul\":3101:3111   */\n      0x4e487b71\n        /* \"#utility.yul\":3096:3099   */\n      0xe0\n        /* \"#utility.yul\":3092:3112   */\n      shl\n        /* \"#utility.yul\":3089:3090   */\n      0x00\n        /* \"#utility.yul\":3082:3113   */\n      mstore\n        /* \"#utility.yul\":3132:3136   */\n      0x41\n        /* \"#utility.yul\":3129:3130   */\n      0x04\n        /* \"#utility.yul\":3122:3137   */\n      mstore\n        /* \"#utility.yul\":3156:3160   */\n      0x24\n        /* \"#utility.yul\":3153:3154   */\n      0x00\n        /* \"#utility.yul\":3146:3161   */\n      revert\n        /* \"#utility.yul\":3172:3804   */\n    tag_392:\n        /* \"#utility.yul\":3237:3242   */\n      0x00\n        /* \"#utility.yul\":3267:3285   */\n      0xffffffffffffffff\n        /* \"#utility.yul\":3308:3310   */\n      dup1\n        /* \"#utility.yul\":3300:3306   */\n      dup5\n        /* \"#utility.yul\":3297:3311   */\n      gt\n        /* \"#utility.yul\":3294:3334   */\n      iszero\n      tag_434\n      jumpi\n        /* \"#utility.yul\":3314:3332   */\n      tag_434\n      tag_351\n      jump\t// in\n    tag_434:\n        /* \"#utility.yul\":3389:3391   */\n      0x40\n        /* \"#utility.yul\":3383:3392   */\n      mload\n        /* \"#utility.yul\":3357:3359   */\n      0x1f\n        /* \"#utility.yul\":3443:3458   */\n      dup6\n      add\n      not(0x1f)\n        /* \"#utility.yul\":3439:3463   */\n      swap1\n      dup2\n      and\n        /* \"#utility.yul\":3465:3467   */\n      0x3f\n        /* \"#utility.yul\":3435:3468   */\n      add\n        /* \"#utility.yul\":3431:3473   */\n      and\n        /* \"#utility.yul\":3419:3474   */\n      dup2\n      add\n      swap1\n        /* \"#utility.yul\":3489:3507   */\n      dup3\n      dup3\n      gt\n        /* \"#utility.yul\":3509:3531   */\n      dup2\n      dup4\n      lt\n        /* \"#utility.yul\":3486:3532   */\n      or\n        /* \"#utility.yul\":3483:3555   */\n      iszero\n      tag_436\n      jumpi\n        /* \"#utility.yul\":3535:3553   */\n      tag_436\n      tag_351\n      jump\t// in\n    tag_436:\n        /* \"#utility.yul\":3575:3585   */\n      dup2\n        /* \"#utility.yul\":3571:3573   */\n      0x40\n        /* \"#utility.yul\":3564:3586   */\n      mstore\n        /* \"#utility.yul\":3604:3610   */\n      dup1\n        /* \"#utility.yul\":3595:3610   */\n      swap4\n      pop\n        /* \"#utility.yul\":3634:3640   */\n      dup6\n        /* \"#utility.yul\":3626:3632   */\n      dup2\n        /* \"#utility.yul\":3619:3641   */\n      mstore\n        /* \"#utility.yul\":3674:3677   */\n      dup7\n        /* \"#utility.yul\":3665:3671   */\n      dup7\n        /* \"#utility.yul\":3660:3663   */\n      dup7\n        /* \"#utility.yul\":3656:3672   */\n      add\n        /* \"#utility.yul\":3653:3678   */\n      gt\n        /* \"#utility.yul\":3650:3695   */\n      iszero\n      tag_437\n      jumpi\n        /* \"#utility.yul\":3691:3692   */\n      0x00\n        /* \"#utility.yul\":3688:3689   */\n      dup1\n        /* \"#utility.yul\":3681:3693   */\n      revert\n        /* \"#utility.yul\":3650:3695   */\n    tag_437:\n        /* \"#utility.yul\":3741:3747   */\n      dup6\n        /* \"#utility.yul\":3736:3739   */\n      dup6\n        /* \"#utility.yul\":3729:3733   */\n      0x20\n        /* \"#utility.yul\":3721:3727   */\n      dup4\n        /* \"#utility.yul\":3717:3734   */\n      add\n        /* \"#utility.yul\":3704:3748   */\n      calldatacopy\n        /* \"#utility.yul\":3796:3797   */\n      0x00\n        /* \"#utility.yul\":3789:3793   */\n      0x20\n        /* \"#utility.yul\":3780:3786   */\n      dup8\n        /* \"#utility.yul\":3772:3778   */\n      dup4\n        /* \"#utility.yul\":3768:3787   */\n      add\n        /* \"#utility.yul\":3764:3794   */\n      add\n        /* \"#utility.yul\":3757:3798   */\n      mstore\n      pop\n      pop\n      pop\n        /* \"#utility.yul\":3172:3804   */\n      swap4\n      swap3\n      pop\n      pop\n      pop\n      jump\t// out\n        /* \"#utility.yul\":3809:4260   */\n    tag_70:\n        /* \"#utility.yul\":3878:3884   */\n      0x00\n        /* \"#utility.yul\":3931:3933   */\n      0x20\n        /* \"#utility.yul\":3919:3928   */\n      dup3\n        /* \"#utility.yul\":3910:3917   */\n      dup5\n        /* \"#utility.yul\":3906:3929   */\n      sub\n        /* \"#utility.yul\":3902:3934   */\n      slt\n        /* \"#utility.yul\":3899:3951   */\n      iszero\n      tag_439\n      jumpi\n        /* \"#utility.yul\":3947:3948   */\n      0x00\n        /* \"#utility.yul\":3944:3945   */\n      dup1\n        /* \"#utility.yul\":3937:3949   */\n      revert\n        /* \"#utility.yul\":3899:3951   */\n    tag_439:\n        /* \"#utility.yul\":3987:3996   */\n      dup2\n        /* \"#utility.yul\":3974:3997   */\n      calldataload\n        /* \"#utility.yul\":4020:4038   */\n      0xffffffffffffffff\n        /* \"#utility.yul\":4012:4018   */\n      dup2\n        /* \"#utility.yul\":4009:4039   */\n      gt\n        /* \"#utility.yul\":4006:4056   */\n      iszero\n      tag_440\n      jumpi\n        /* \"#utility.yul\":4052:4053   */\n      0x00\n        /* \"#utility.yul\":4049:4050   */\n      dup1\n        /* \"#utility.yul\":4042:4054   */\n      revert\n        /* \"#utility.yul\":4006:4056   */\n    tag_440:\n        /* \"#utility.yul\":4075:4097   */\n      dup3\n      add\n        /* \"#utility.yul\":4128:4132   */\n      0x1f\n        /* \"#utility.yul\":4120:4133   */\n      dup2\n      add\n        /* \"#utility.yul\":4116:4143   */\n      dup5\n      sgt\n        /* \"#utility.yul\":4106:4161   */\n      tag_441\n      jumpi\n        /* \"#utility.yul\":4157:4158   */\n      0x00\n        /* \"#utility.yul\":4154:4155   */\n      dup1\n        /* \"#utility.yul\":4147:4159   */\n      revert\n        /* \"#utility.yul\":4106:4161   */\n    tag_441:\n        /* \"#utility.yul\":4180:4254   */\n      tag_334\n        /* \"#utility.yul\":4246:4253   */\n      dup5\n        /* \"#utility.yul\":4241:4243   */\n      dup3\n        /* \"#utility.yul\":4228:4244   */\n      calldataload\n        /* \"#utility.yul\":4223:4225   */\n      0x20\n        /* \"#utility.yul\":4219:4221   */\n      dup5\n        /* \"#utility.yul\":4215:4226   */\n      add\n        /* \"#utility.yul\":4180:4254   */\n      tag_392\n      jump\t// in\n        /* \"#utility.yul\":4265:4451   */\n    tag_78:\n        /* \"#utility.yul\":4324:4330   */\n      0x00\n        /* \"#utility.yul\":4377:4379   */\n      0x20\n        /* \"#utility.yul\":4365:4374   */\n      dup3\n        /* \"#utility.yul\":4356:4363   */\n      dup5\n        /* \"#utility.yul\":4352:4375   */\n      sub\n        /* \"#utility.yul\":4348:4380   */\n      slt\n        /* \"#utility.yul\":4345:4397   */\n      iszero\n      tag_444\n      jumpi\n        /* \"#utility.yul\":4393:4394   */\n      0x00\n        /* \"#utility.yul\":4390:4391   */\n      dup1\n        /* \"#utility.yul\":4383:4395   */\n      revert\n        /* \"#utility.yul\":4345:4397   */\n    tag_444:\n        /* \"#utility.yul\":4416:4445   */\n      tag_254\n        /* \"#utility.yul\":4435:4444   */\n      dup3\n        /* \"#utility.yul\":4416:4445   */\n      tag_391\n      jump\t// in\n        /* \"#utility.yul\":4456:5123   */\n    tag_101:\n        /* \"#utility.yul\":4551:4557   */\n      0x00\n        /* \"#utility.yul\":4559:4565   */\n      dup1\n        /* \"#utility.yul\":4567:4573   */\n      0x00\n        /* \"#utility.yul\":4575:4581   */\n      dup1\n        /* \"#utility.yul\":4628:4631   */\n      0x80\n        /* \"#utility.yul\":4616:4625   */\n      dup6\n        /* \"#utility.yul\":4607:4614   */\n      dup8\n        /* \"#utility.yul\":4603:4626   */\n      sub\n        /* \"#utility.yul\":4599:4632   */\n      slt\n        /* \"#utility.yul\":4596:4649   */\n      iszero\n      tag_447\n      jumpi\n        /* \"#utility.yul\":4645:4646   */\n      0x00\n        /* \"#utility.yul\":4642:4643   */\n      dup1\n        /* \"#utility.yul\":4635:4647   */\n      revert\n        /* \"#utility.yul\":4596:4649   */\n    tag_447:\n        /* \"#utility.yul\":4668:4697   */\n      tag_448\n        /* \"#utility.yul\":4687:4696   */\n      dup6\n        /* \"#utility.yul\":4668:4697   */\n      tag_391\n      jump\t// in\n    tag_448:\n        /* \"#utility.yul\":4658:4697   */\n      swap4\n      pop\n        /* \"#utility.yul\":4716:4754   */\n      tag_449\n        /* \"#utility.yul\":4750:4752   */\n      0x20\n        /* \"#utility.yul\":4739:4748   */\n      dup7\n        /* \"#utility.yul\":4735:4753   */\n      add\n        /* \"#utility.yul\":4716:4754   */\n      tag_391\n      jump\t// in\n    tag_449:\n        /* \"#utility.yul\":4706:4754   */\n      swap3\n      pop\n        /* \"#utility.yul\":4801:4803   */\n      0x40\n        /* \"#utility.yul\":4790:4799   */\n      dup6\n        /* \"#utility.yul\":4786:4804   */\n      add\n        /* \"#utility.yul\":4773:4805   */\n      calldataload\n        /* \"#utility.yul\":4763:4805   */\n      swap2\n      pop\n        /* \"#utility.yul\":4856:4858   */\n      0x60\n        /* \"#utility.yul\":4845:4854   */\n      dup6\n        /* \"#utility.yul\":4841:4859   */\n      add\n        /* \"#utility.yul\":4828:4860   */\n      calldataload\n        /* \"#utility.yul\":4883:4901   */\n      0xffffffffffffffff\n        /* \"#utility.yul\":4875:4881   */\n      dup2\n        /* \"#utility.yul\":4872:4902   */\n      gt\n        /* \"#utility.yul\":4869:4919   */\n      iszero\n      tag_450\n      jumpi\n        /* \"#utility.yul\":4915:4916   */\n      0x00\n        /* \"#utility.yul\":4912:4913   */\n      dup1\n        /* \"#utility.yul\":4905:4917   */\n      revert\n        /* \"#utility.yul\":4869:4919   */\n    tag_450:\n        /* \"#utility.yul\":4938:4960   */\n      dup6\n      add\n        /* \"#utility.yul\":4991:4995   */\n      0x1f\n        /* \"#utility.yul\":4983:4996   */\n      dup2\n      add\n        /* \"#utility.yul\":4979:5006   */\n      dup8\n      sgt\n        /* \"#utility.yul\":4969:5024   */\n      tag_451\n      jumpi\n        /* \"#utility.yul\":5020:5021   */\n      0x00\n        /* \"#utility.yul\":5017:5018   */\n      dup1\n        /* \"#utility.yul\":5010:5022   */\n      revert\n        /* \"#utility.yul\":4969:5024   */\n    tag_451:\n        /* \"#utility.yul\":5043:5117   */\n      tag_452\n        /* \"#utility.yul\":5109:5116   */\n      dup8\n        /* \"#utility.yul\":5104:5106   */\n      dup3\n        /* \"#utility.yul\":5091:5107   */\n      calldataload\n        /* \"#utility.yul\":5086:5088   */\n      0x20\n        /* \"#utility.yul\":5082:5084   */\n      dup5\n        /* \"#utility.yul\":5078:5089   */\n      add\n        /* \"#utility.yul\":5043:5117   */\n      tag_392\n      jump\t// in\n    tag_452:\n        /* \"#utility.yul\":5033:5117   */\n      swap2\n      pop\n      pop\n        /* \"#utility.yul\":4456:5123   */\n      swap3\n      swap6\n      swap2\n      swap5\n      pop\n      swap3\n      pop\n      jump\t// out\n        /* \"#utility.yul\":5128:5388   */\n    tag_115:\n        /* \"#utility.yul\":5196:5202   */\n      0x00\n        /* \"#utility.yul\":5204:5210   */\n      dup1\n        /* \"#utility.yul\":5257:5259   */\n      0x40\n        /* \"#utility.yul\":5245:5254   */\n      dup4\n        /* \"#utility.yul\":5236:5243   */\n      dup6\n        /* \"#utility.yul\":5232:5255   */\n      sub\n        /* \"#utility.yul\":5228:5260   */\n      slt\n        /* \"#utility.yul\":5225:5277   */\n      iszero\n      tag_454\n      jumpi\n        /* \"#utility.yul\":5273:5274   */\n      0x00\n        /* \"#utility.yul\":5270:5271   */\n      dup1\n        /* \"#utility.yul\":5263:5275   */\n      revert\n        /* \"#utility.yul\":5225:5277   */\n    tag_454:\n        /* \"#utility.yul\":5296:5325   */\n      tag_455\n        /* \"#utility.yul\":5315:5324   */\n      dup4\n        /* \"#utility.yul\":5296:5325   */\n      tag_391\n      jump\t// in\n    tag_455:\n        /* \"#utility.yul\":5286:5325   */\n      swap2\n      pop\n        /* \"#utility.yul\":5344:5382   */\n      tag_456\n        /* \"#utility.yul\":5378:5380   */\n      0x20\n        /* \"#utility.yul\":5367:5376   */\n      dup5\n        /* \"#utility.yul\":5363:5381   */\n      add\n        /* \"#utility.yul\":5344:5382   */\n      tag_391\n      jump\t// in\n    tag_456:\n        /* \"#utility.yul\":5334:5382   */\n      swap1\n      pop\n        /* \"#utility.yul\":5128:5388   */\n      swap3\n      pop\n      swap3\n      swap1\n      pop\n      jump\t// out\n        /* \"#utility.yul\":5393:5773   */\n    tag_127:\n        /* \"#utility.yul\":5472:5473   */\n      0x01\n        /* \"#utility.yul\":5468:5480   */\n      dup2\n      dup2\n      shr\n      swap1\n        /* \"#utility.yul\":5515:5527   */\n      dup3\n      and\n      dup1\n        /* \"#utility.yul\":5536:5597   */\n      tag_458\n      jumpi\n        /* \"#utility.yul\":5590:5594   */\n      0x7f\n        /* \"#utility.yul\":5582:5588   */\n      dup3\n        /* \"#utility.yul\":5578:5595   */\n      and\n        /* \"#utility.yul\":5568:5595   */\n      swap2\n      pop\n        /* \"#utility.yul\":5536:5597   */\n    tag_458:\n        /* \"#utility.yul\":5643:5645   */\n      0x20\n        /* \"#utility.yul\":5635:5641   */\n      dup3\n        /* \"#utility.yul\":5632:5646   */\n      lt\n        /* \"#utility.yul\":5612:5630   */\n      dup2\n        /* \"#utility.yul\":5609:5647   */\n      sub\n        /* \"#utility.yul\":5606:5767   */\n      tag_459\n      jumpi\n        /* \"#utility.yul\":5689:5699   */\n      0x4e487b71\n        /* \"#utility.yul\":5684:5687   */\n      0xe0\n        /* \"#utility.yul\":5680:5700   */\n      shl\n        /* \"#utility.yul\":5677:5678   */\n      0x00\n        /* \"#utility.yul\":5670:5701   */\n      mstore\n        /* \"#utility.yul\":5724:5728   */\n      0x22\n        /* \"#utility.yul\":5721:5722   */\n      0x04\n        /* \"#utility.yul\":5714:5729   */\n      mstore\n        /* \"#utility.yul\":5752:5756   */\n      0x24\n        /* \"#utility.yul\":5749:5750   */\n      0x00\n        /* \"#utility.yul\":5742:5757   */\n      revert\n        /* \"#utility.yul\":5606:5767   */\n    tag_459:\n      pop\n        /* \"#utility.yul\":5393:5773   */\n      swap2\n      swap1\n      pop\n      jump\t// out\n        /* \"#utility.yul\":5778:6134   */\n    tag_179:\n        /* \"#utility.yul\":5980:5982   */\n      0x20\n        /* \"#utility.yul\":5962:5983   */\n      dup1\n      dup3\n      mstore\n        /* \"#utility.yul\":5999:6017   */\n      dup2\n      dup2\n      add\n        /* \"#utility.yul\":5992:6022   */\n      mstore\n        /* \"#utility.yul\":6058:6092   */\n      0x4f776e61626c653a2063616c6c6572206973206e6f7420746865206f776e6572\n        /* \"#utility.yul\":6053:6055   */\n      0x40\n        /* \"#utility.yul\":6038:6056   */\n      dup3\n      add\n        /* \"#utility.yul\":6031:6093   */\n      mstore\n        /* \"#utility.yul\":6125:6127   */\n      0x60\n        /* \"#utility.yul\":6110:6128   */\n      add\n      swap1\n        /* \"#utility.yul\":5778:6134   */\n      jump\t// out\n        /* \"#utility.yul\":6265:6810   */\n    tag_394:\n        /* \"#utility.yul\":6367:6369   */\n      0x1f\n        /* \"#utility.yul\":6362:6365   */\n      dup3\n        /* \"#utility.yul\":6359:6370   */\n      gt\n        /* \"#utility.yul\":6356:6804   */\n      iszero\n      tag_183\n      jumpi\n        /* \"#utility.yul\":6403:6404   */\n      0x00\n        /* \"#utility.yul\":6428:6433   */\n      dup2\n        /* \"#utility.yul\":6424:6426   */\n      dup2\n        /* \"#utility.yul\":6417:6434   */\n      mstore\n        /* \"#utility.yul\":6473:6477   */\n      0x20\n        /* \"#utility.yul\":6469:6471   */\n      dup2\n        /* \"#utility.yul\":6459:6478   */\n      keccak256\n        /* \"#utility.yul\":6543:6545   */\n      0x1f\n        /* \"#utility.yul\":6531:6541   */\n      dup6\n        /* \"#utility.yul\":6527:6546   */\n      add\n        /* \"#utility.yul\":6524:6525   */\n      0x05\n        /* \"#utility.yul\":6520:6547   */\n      shr\n        /* \"#utility.yul\":6514:6518   */\n      dup2\n        /* \"#utility.yul\":6510:6548   */\n      add\n        /* \"#utility.yul\":6579:6583   */\n      0x20\n        /* \"#utility.yul\":6567:6577   */\n      dup7\n        /* \"#utility.yul\":6564:6584   */\n      lt\n        /* \"#utility.yul\":6561:6608   */\n      iszero\n      tag_464\n      jumpi\n      pop\n        /* \"#utility.yul\":6602:6606   */\n      dup1\n        /* \"#utility.yul\":6561:6608   */\n    tag_464:\n        /* \"#utility.yul\":6657:6659   */\n      0x1f\n        /* \"#utility.yul\":6652:6655   */\n      dup6\n        /* \"#utility.yul\":6648:6660   */\n      add\n        /* \"#utility.yul\":6645:6646   */\n      0x05\n        /* \"#utility.yul\":6641:6661   */\n      shr\n        /* \"#utility.yul\":6635:6639   */\n      dup3\n        /* \"#utility.yul\":6631:6662   */\n      add\n        /* \"#utility.yul\":6621:6662   */\n      swap2\n      pop\n        /* \"#utility.yul\":6712:6794   */\n    tag_465:\n        /* \"#utility.yul\":6730:6732   */\n      dup2\n        /* \"#utility.yul\":6723:6728   */\n      dup2\n        /* \"#utility.yul\":6720:6733   */\n      lt\n        /* \"#utility.yul\":6712:6794   */\n      iszero\n      tag_171\n      jumpi\n        /* \"#utility.yul\":6775:6792   */\n      dup3\n      dup2\n      sstore\n        /* \"#utility.yul\":6756:6757   */\n      0x01\n        /* \"#utility.yul\":6745:6758   */\n      add\n        /* \"#utility.yul\":6712:6794   */\n      jump(tag_465)\n        /* \"#utility.yul\":6986:8338   */\n    tag_194:\n        /* \"#utility.yul\":7112:7115   */\n      dup2\n        /* \"#utility.yul\":7106:7116   */\n      mload\n        /* \"#utility.yul\":7139:7157   */\n      0xffffffffffffffff\n        /* \"#utility.yul\":7131:7137   */\n      dup2\n        /* \"#utility.yul\":7128:7158   */\n      gt\n        /* \"#utility.yul\":7125:7181   */\n      iszero\n      tag_471\n      jumpi\n        /* \"#utility.yul\":7161:7179   */\n      tag_471\n      tag_351\n      jump\t// in\n    tag_471:\n        /* \"#utility.yul\":7190:7287   */\n      tag_472\n        /* \"#utility.yul\":7280:7286   */\n      dup2\n        /* \"#utility.yul\":7240:7278   */\n      tag_473\n        /* \"#utility.yul\":7272:7276   */\n      dup5\n        /* \"#utility.yul\":7266:7277   */\n      sload\n        /* \"#utility.yul\":7240:7278   */\n      tag_127\n      jump\t// in\n    tag_473:\n        /* \"#utility.yul\":7234:7238   */\n      dup5\n        /* \"#utility.yul\":7190:7287   */\n      tag_394\n      jump\t// in\n    tag_472:\n        /* \"#utility.yul\":7342:7346   */\n      0x20\n      dup1\n        /* \"#utility.yul\":7406:7408   */\n      0x1f\n        /* \"#utility.yul\":7395:7409   */\n      dup4\n      gt\n        /* \"#utility.yul\":7423:7424   */\n      0x01\n        /* \"#utility.yul\":7418:8081   */\n      dup2\n      eq\n      tag_475\n      jumpi\n        /* \"#utility.yul\":8125:8126   */\n      0x00\n        /* \"#utility.yul\":8142:8148   */\n      dup5\n        /* \"#utility.yul\":8139:8228   */\n      iszero\n      tag_476\n      jumpi\n      pop\n        /* \"#utility.yul\":8194:8213   */\n      dup6\n      dup4\n      add\n        /* \"#utility.yul\":8188:8214   */\n      mload\n        /* \"#utility.yul\":8139:8228   */\n    tag_476:\n      not(0x00)\n        /* \"#utility.yul\":6943:6944   */\n      0x03\n        /* \"#utility.yul\":6939:6950   */\n      dup7\n      swap1\n      shl\n        /* \"#utility.yul\":6935:6959   */\n      shr\n        /* \"#utility.yul\":6931:6960   */\n      not\n        /* \"#utility.yul\":6921:6961   */\n      and\n        /* \"#utility.yul\":6967:6968   */\n      0x01\n        /* \"#utility.yul\":6963:6974   */\n      dup6\n      swap1\n      shl\n        /* \"#utility.yul\":6918:6975   */\n      or\n        /* \"#utility.yul\":8241:8322   */\n      dup6\n      sstore\n        /* \"#utility.yul\":7388:8332   */\n      jump(tag_171)\n        /* \"#utility.yul\":7418:8081   */\n    tag_475:\n        /* \"#utility.yul\":6212:6213   */\n      0x00\n        /* \"#utility.yul\":6205:6219   */\n      dup6\n      dup2\n      mstore\n        /* \"#utility.yul\":6249:6253   */\n      0x20\n        /* \"#utility.yul\":6236:6254   */\n      dup2\n      keccak256\n      not(0x1f)\n        /* \"#utility.yul\":7454:7474   */\n      dup7\n      and\n      swap2\n        /* \"#utility.yul\":7572:7808   */\n    tag_479:\n        /* \"#utility.yul\":7586:7593   */\n      dup3\n        /* \"#utility.yul\":7583:7584   */\n      dup2\n        /* \"#utility.yul\":7580:7594   */\n      lt\n        /* \"#utility.yul\":7572:7808   */\n      iszero\n      tag_481\n      jumpi\n        /* \"#utility.yul\":7675:7694   */\n      dup9\n      dup7\n      add\n        /* \"#utility.yul\":7669:7695   */\n      mload\n        /* \"#utility.yul\":7654:7696   */\n      dup3\n      sstore\n        /* \"#utility.yul\":7767:7794   */\n      swap5\n      dup5\n      add\n      swap5\n        /* \"#utility.yul\":7735:7736   */\n      0x01\n        /* \"#utility.yul\":7723:7737   */\n      swap1\n      swap2\n      add\n      swap1\n        /* \"#utility.yul\":7602:7621   */\n      dup5\n      add\n        /* \"#utility.yul\":7572:7808   */\n      jump(tag_479)\n    tag_481:\n        /* \"#utility.yul\":7576:7579   */\n      pop\n        /* \"#utility.yul\":7836:7842   */\n      dup6\n        /* \"#utility.yul\":7827:7834   */\n      dup3\n        /* \"#utility.yul\":7824:7843   */\n      lt\n        /* \"#utility.yul\":7821:8022   */\n      iszero\n      tag_482\n      jumpi\n        /* \"#utility.yul\":7897:7916   */\n      dup8\n      dup6\n      add\n        /* \"#utility.yul\":7891:7917   */\n      mload\n      not(0x00)\n        /* \"#utility.yul\":7980:7981   */\n      0x03\n        /* \"#utility.yul\":7976:7990   */\n      dup9\n      swap1\n      shl\n        /* \"#utility.yul\":7992:7995   */\n      0xf8\n        /* \"#utility.yul\":7972:7996   */\n      and\n        /* \"#utility.yul\":7968:8005   */\n      shr\n        /* \"#utility.yul\":7964:8006   */\n      not\n        /* \"#utility.yul\":7949:8007   */\n      and\n        /* \"#utility.yul\":7934:8008   */\n      dup2\n      sstore\n        /* \"#utility.yul\":7821:8022   */\n    tag_482:\n      pop\n      pop\n      pop\n      pop\n      pop\n        /* \"#utility.yul\":8068:8069   */\n      0x01\n        /* \"#utility.yul\":8052:8066   */\n      swap1\n      dup2\n      shl\n        /* \"#utility.yul\":8048:8070   */\n      add\n        /* \"#utility.yul\":8035:8071   */\n      swap1\n      sstore\n      pop\n        /* \"#utility.yul\":6986:8338   */\n      jump\t// out\n        /* \"#utility.yul\":8692:8819   */\n    tag_396:\n        /* \"#utility.yul\":8753:8763   */\n      0x4e487b71\n        /* \"#utility.yul\":8748:8751   */\n      0xe0\n        /* \"#utility.yul\":8744:8764   */\n      shl\n        /* \"#utility.yul\":8741:8742   */\n      0x00\n        /* \"#utility.yul\":8734:8765   */\n      mstore\n        /* \"#utility.yul\":8784:8788   */\n      0x11\n        /* \"#utility.yul\":8781:8782   */\n      0x04\n        /* \"#utility.yul\":8774:8789   */\n      mstore\n        /* \"#utility.yul\":8808:8812   */\n      0x24\n        /* \"#utility.yul\":8805:8806   */\n      0x00\n        /* \"#utility.yul\":8798:8813   */\n      revert\n        /* \"#utility.yul\":8824:8952   */\n    tag_222:\n        /* \"#utility.yul\":8864:8867   */\n      0x00\n        /* \"#utility.yul\":8895:8896   */\n      dup3\n        /* \"#utility.yul\":8891:8897   */\n      not\n        /* \"#utility.yul\":8888:8889   */\n      dup3\n        /* \"#utility.yul\":8885:8898   */\n      gt\n        /* \"#utility.yul\":8882:8921   */\n      iszero\n      tag_487\n      jumpi\n        /* \"#utility.yul\":8901:8919   */\n      tag_487\n      tag_396\n      jump\t// in\n    tag_487:\n      pop\n        /* \"#utility.yul\":8937:8946   */\n      add\n      swap1\n        /* \"#utility.yul\":8824:8952   */\n      jump\t// out\n        /* \"#utility.yul\":9717:10947   */\n    tag_258:\n        /* \"#utility.yul\":9941:9944   */\n      0x00\n        /* \"#utility.yul\":9979:9985   */\n      dup5\n        /* \"#utility.yul\":9973:9986   */\n      mload\n        /* \"#utility.yul\":10005:10009   */\n      0x20\n        /* \"#utility.yul\":10018:10069   */\n      tag_491\n        /* \"#utility.yul\":10062:10068   */\n      dup3\n        /* \"#utility.yul\":10057:10060   */\n      dup6\n        /* \"#utility.yul\":10052:10054   */\n      dup4\n        /* \"#utility.yul\":10044:10050   */\n      dup11\n        /* \"#utility.yul\":10040:10055   */\n      add\n        /* \"#utility.yul\":10018:10069   */\n      tag_389\n      jump\t// in\n    tag_491:\n        /* \"#utility.yul\":10132:10145   */\n      dup6\n      mload\n        /* \"#utility.yul\":10091:10107   */\n      swap2\n      dup5\n      add\n      swap2\n        /* \"#utility.yul\":10154:10209   */\n      tag_492\n        /* \"#utility.yul\":10132:10145   */\n      dup2\n        /* \"#utility.yul\":10091:10107   */\n      dup5\n        /* \"#utility.yul\":10176:10191   */\n      dup5\n      dup11\n      add\n        /* \"#utility.yul\":10154:10209   */\n      tag_389\n      jump\t// in\n    tag_492:\n        /* \"#utility.yul\":10298:10311   */\n      dup6\n      sload\n        /* \"#utility.yul\":10231:10251   */\n      swap3\n      add\n      swap2\n        /* \"#utility.yul\":10271:10272   */\n      0x00\n      swap1\n        /* \"#utility.yul\":10336:10372   */\n      tag_493\n        /* \"#utility.yul\":10298:10311   */\n      dup2\n        /* \"#utility.yul\":10336:10372   */\n      tag_127\n      jump\t// in\n    tag_493:\n        /* \"#utility.yul\":10391:10392   */\n      0x01\n        /* \"#utility.yul\":10408:10426   */\n      dup3\n      dup2\n      and\n        /* \"#utility.yul\":10435:10576   */\n      dup1\n      iszero\n      tag_495\n      jumpi\n        /* \"#utility.yul\":10590:10591   */\n      0x01\n        /* \"#utility.yul\":10585:10922   */\n      dup2\n      eq\n      tag_496\n      jumpi\n        /* \"#utility.yul\":10401:10922   */\n      jump(tag_494)\n        /* \"#utility.yul\":10435:10576   */\n    tag_495:\n      not(0xff)\n        /* \"#utility.yul\":10470:10494   */\n      dup5\n      and\n        /* \"#utility.yul\":10456:10495   */\n      dup8\n      mstore\n        /* \"#utility.yul\":10547:10563   */\n      dup3\n      iszero\n        /* \"#utility.yul\":10540:10564   */\n      iszero\n        /* \"#utility.yul\":10526:10565   */\n      dup4\n      mul\n        /* \"#utility.yul\":10515:10566   */\n      dup8\n      add\n      swap5\n      pop\n        /* \"#utility.yul\":10435:10576   */\n      jump(tag_494)\n        /* \"#utility.yul\":10585:10922   */\n    tag_496:\n        /* \"#utility.yul\":10616:10622   */\n      dup10\n        /* \"#utility.yul\":10613:10614   */\n      0x00\n        /* \"#utility.yul\":10606:10623   */\n      mstore\n        /* \"#utility.yul\":10664:10666   */\n      dup6\n        /* \"#utility.yul\":10661:10662   */\n      0x00\n        /* \"#utility.yul\":10651:10667   */\n      keccak256\n        /* \"#utility.yul\":10689:10690   */\n      0x00\n        /* \"#utility.yul\":10703:10872   */\n    tag_497:\n        /* \"#utility.yul\":10717:10725   */\n      dup5\n        /* \"#utility.yul\":10714:10715   */\n      dup2\n        /* \"#utility.yul\":10711:10726   */\n      lt\n        /* \"#utility.yul\":10703:10872   */\n      iszero\n      tag_499\n      jumpi\n        /* \"#utility.yul\":10799:10813   */\n      dup2\n      sload\n        /* \"#utility.yul\":10784:10797   */\n      dup10\n      dup3\n      add\n        /* \"#utility.yul\":10777:10814   */\n      mstore\n        /* \"#utility.yul\":10842:10858   */\n      swap1\n      dup4\n      add\n      swap1\n        /* \"#utility.yul\":10734:10744   */\n      dup8\n      add\n        /* \"#utility.yul\":10703:10872   */\n      jump(tag_497)\n    tag_499:\n        /* \"#utility.yul\":10707:10710   */\n      pop\n      pop\n        /* \"#utility.yul\":10903:10911   */\n      dup3\n        /* \"#utility.yul\":10896:10901   */\n      dup8\n        /* \"#utility.yul\":10892:10912   */\n      add\n        /* \"#utility.yul\":10885:10912   */\n      swap5\n      pop\n        /* \"#utility.yul\":10401:10922   */\n    tag_494:\n      pop\n        /* \"#utility.yul\":10938:10941   */\n      swap3\n      swap11\n        /* \"#utility.yul\":9717:10947   */\n      swap10\n      pop\n      pop\n      pop\n      pop\n      pop\n      pop\n      pop\n      pop\n      pop\n      pop\n      jump\t// out\n        /* \"#utility.yul\":11359:11848   */\n    tag_322:\n      sub(shl(0xa0, 0x01), 0x01)\n        /* \"#utility.yul\":11628:11643   */\n      dup6\n      dup2\n      and\n        /* \"#utility.yul\":11610:11644   */\n      dup3\n      mstore\n        /* \"#utility.yul\":11680:11695   */\n      dup5\n      and\n        /* \"#utility.yul\":11675:11677   */\n      0x20\n        /* \"#utility.yul\":11660:11678   */\n      dup3\n      add\n        /* \"#utility.yul\":11653:11696   */\n      mstore\n        /* \"#utility.yul\":11727:11729   */\n      0x40\n        /* \"#utility.yul\":11712:11730   */\n      dup2\n      add\n        /* \"#utility.yul\":11705:11739   */\n      dup4\n      swap1\n      mstore\n        /* \"#utility.yul\":11775:11778   */\n      0x80\n        /* \"#utility.yul\":11770:11772   */\n      0x60\n        /* \"#utility.yul\":11755:11773   */\n      dup3\n      add\n        /* \"#utility.yul\":11748:11779   */\n      dup2\n      swap1\n      mstore\n        /* \"#utility.yul\":11553:11557   */\n      0x00\n      swap1\n        /* \"#utility.yul\":11796:11842   */\n      tag_502\n      swap1\n        /* \"#utility.yul\":11822:11841   */\n      dup4\n      add\n        /* \"#utility.yul\":11814:11820   */\n      dup5\n        /* \"#utility.yul\":11796:11842   */\n      tag_390\n      jump\t// in\n    tag_502:\n        /* \"#utility.yul\":11788:11842   */\n      swap7\n        /* \"#utility.yul\":11359:11848   */\n      swap6\n      pop\n      pop\n      pop\n      pop\n      pop\n      pop\n      jump\t// out\n        /* \"#utility.yul\":11853:12102   */\n    tag_325:\n        /* \"#utility.yul\":11922:11928   */\n      0x00\n        /* \"#utility.yul\":11975:11977   */\n      0x20\n        /* \"#utility.yul\":11963:11972   */\n      dup3\n        /* \"#utility.yul\":11954:11961   */\n      dup5\n        /* \"#utility.yul\":11950:11973   */\n      sub\n        /* \"#utility.yul\":11946:11978   */\n      slt\n        /* \"#utility.yul\":11943:11995   */\n      iszero\n      tag_504\n      jumpi\n        /* \"#utility.yul\":11991:11992   */\n      0x00\n        /* \"#utility.yul\":11988:11989   */\n      dup1\n        /* \"#utility.yul\":11981:11993   */\n      revert\n        /* \"#utility.yul\":11943:11995   */\n    tag_504:\n        /* \"#utility.yul\":12023:12032   */\n      dup2\n        /* \"#utility.yul\":12017:12033   */\n      mload\n        /* \"#utility.yul\":12042:12072   */\n      tag_254\n        /* \"#utility.yul\":12066:12071   */\n      dup2\n        /* \"#utility.yul\":12042:12072   */\n      tag_388\n      jump\t// in\n        /* \"#utility.yul\":12107:12242   */\n    tag_346:\n        /* \"#utility.yul\":12146:12149   */\n      0x00\n        /* \"#utility.yul\":12167:12184   */\n      0x01\n      dup3\n      add\n        /* \"#utility.yul\":12164:12207   */\n      tag_508\n      jumpi\n        /* \"#utility.yul\":12187:12205   */\n      tag_508\n      tag_396\n      jump\t// in\n    tag_508:\n      pop\n        /* \"#utility.yul\":12234:12235   */\n      0x01\n        /* \"#utility.yul\":12223:12236   */\n      add\n      swap1\n        /* \"#utility.yul\":12107:12242   */\n      jump\t// out\n        /* \"#utility.yul\":12247:12374   */\n    tag_397:\n        /* \"#utility.yul\":12308:12318   */\n      0x4e487b71\n        /* \"#utility.yul\":12303:12306   */\n      0xe0\n        /* \"#utility.yul\":12299:12319   */\n      shl\n        /* \"#utility.yul\":12296:12297   */\n      0x00\n        /* \"#utility.yul\":12289:12320   */\n      mstore\n        /* \"#utility.yul\":12339:12343   */\n      0x12\n        /* \"#utility.yul\":12336:12337   */\n      0x04\n        /* \"#utility.yul\":12329:12344   */\n      mstore\n        /* \"#utility.yul\":12363:12367   */\n      0x24\n        /* \"#utility.yul\":12360:12361   */\n      0x00\n        /* \"#utility.yul\":12353:12368   */\n      revert\n        /* \"#utility.yul\":12379:12499   */\n    tag_348:\n        /* \"#utility.yul\":12419:12420   */\n      0x00\n        /* \"#utility.yul\":12445:12446   */\n      dup3\n        /* \"#utility.yul\":12435:12470   */\n      tag_512\n      jumpi\n        /* \"#utility.yul\":12450:12468   */\n      tag_512\n      tag_397\n      jump\t// in\n    tag_512:\n      pop\n        /* \"#utility.yul\":12484:12493   */\n      div\n      swap1\n        /* \"#utility.yul\":12379:12499   */\n      jump\t// out\n        /* \"#utility.yul\":12504:12629   */\n    tag_356:\n        /* \"#utility.yul\":12544:12548   */\n      0x00\n        /* \"#utility.yul\":12572:12573   */\n      dup3\n        /* \"#utility.yul\":12569:12570   */\n      dup3\n        /* \"#utility.yul\":12566:12574   */\n      lt\n        /* \"#utility.yul\":12563:12597   */\n      iszero\n      tag_515\n      jumpi\n        /* \"#utility.yul\":12577:12595   */\n      tag_515\n      tag_396\n      jump\t// in\n    tag_515:\n      pop\n        /* \"#utility.yul\":12614:12623   */\n      sub\n      swap1\n        /* \"#utility.yul\":12504:12629   */\n      jump\t// out\n        /* \"#utility.yul\":12634:12746   */\n    tag_358:\n        /* \"#utility.yul\":12666:12667   */\n      0x00\n        /* \"#utility.yul\":12692:12693   */\n      dup3\n        /* \"#utility.yul\":12682:12717   */\n      tag_518\n      jumpi\n        /* \"#utility.yul\":12697:12715   */\n      tag_518\n      tag_397\n      jump\t// in\n    tag_518:\n      pop\n        /* \"#utility.yul\":12731:12740   */\n      mod\n      swap1\n        /* \"#utility.yul\":12634:12746   */\n      jump\t// out\n        /* \"#utility.yul\":12751:12878   */\n    tag_362:\n        /* \"#utility.yul\":12812:12822   */\n      0x4e487b71\n        /* \"#utility.yul\":12807:12810   */\n      0xe0\n        /* \"#utility.yul\":12803:12823   */\n      shl\n        /* \"#utility.yul\":12800:12801   */\n      0x00\n        /* \"#utility.yul\":12793:12824   */\n      mstore\n        /* \"#utility.yul\":12843:12847   */\n      0x32\n        /* \"#utility.yul\":12840:12841   */\n      0x04\n        /* \"#utility.yul\":12833:12848   */\n      mstore\n        /* \"#utility.yul\":12867:12871   */\n      0x24\n        /* \"#utility.yul\":12864:12865   */\n      0x00\n        /* \"#utility.yul\":12857:12872   */\n      revert\n\n    auxdata: 0xa264697066735822122017b24cd57cc0d80b8a4d1238e766085b31502aed053164d5211b96e172f6e6ae64736f6c634300080f0033\n}\n",
				"bytecode": {
					"linkReferences": {},
					"object": "60c06040526005608090815264173539b7b760d91b60a052600b906200002690826200066d565b503480156200003457600080fd5b506040516200218338038062002183833981016040819052620000579162000785565b604051806040016040528060098152602001684e414741204b49445360b81b815250604051806040016040528060048152602001634e41474b60e01b8152508160029081620000a791906200066d565b506003620000b682826200066d565b5050600160005550620000c933620000f6565b620000d48262000148565b620000e1336001620001a9565b620000ee81606f62000255565b505062000902565b600880546001600160a01b038381166001600160a01b0319831681179093556040519116919082907f8be0079c531659141344cd1fd0a4f28419497f9722a3daafe3b4186f6b6457e090600090a35050565b6008546001600160a01b03163314620001975760405162461bcd60e51b815260206004820181905260248201526000805160206200216383398151915260448201526064015b60405180910390fd5b600a620001a582826200066d565b5050565b6008546001600160a01b03163314620001f45760405162461bcd60e51b815260206004820181905260248201526000805160206200216383398151915260448201526064016200018e565b6001600160a01b038216600081815260096020908152604091829020805460ff1916851515908117909155915191825233917f3c49a0d2dcd603245c20eb1985825d770748295cd570de6d24861080451bbd41910160405180910390a35050565b3360008181526009602052604090205460ff16620002b65760405162461bcd60e51b815260206004820152601460248201527f596f7520617265206e6f742061206d696e74657200000000000000000000000060448201526064016200018e565b6000620002cc6001546000546000199190030190565b9050610457620002dd848362000852565b11156200031f5760405162461bcd60e51b815260206004820152600f60248201526e4f766572206d617820737570706c7960881b60448201526064016200018e565b6200032b848462000331565b50505050565b620001a58282604051806020016040528060008152506200035360201b60201c565b6200035f8383620003ca565b6001600160a01b0383163b15620003c5576000548281035b60018101906200038d90600090879086620004bc565b620003ab576040516368d2bf6b60e11b815260040160405180910390fd5b81811062000377578160005414620003c257600080fd5b50505b505050565b6000546001600160a01b038316620003f457604051622e076360e81b815260040160405180910390fd5b81600003620004165760405163b562e8dd60e01b815260040160405180910390fd5b620004256000848385620005b0565b6001600160a01b038316600081815260056020526040902080546801000000000000000185020190554260a01b6001841460e11b1717600082815260046020526040902055808281015b6040516001830192906001600160a01b038716906000907fddf252ad1be2c89b69c2b068fc378daa952ba7f163c4a11628f55a4df523b3ef908290a48082106200046f5760005550505050565b604051630a85bd0160e11b81526000906001600160a01b0385169063150b7a0290620004f390339089908890889060040162000879565b6020604051808303816000875af192505050801562000531575060408051601f3d908101601f191682019092526200052e91810190620008cf565b60015b62000593573d80801562000562576040519150601f19603f3d011682016040523d82523d6000602084013e62000567565b606091505b5080516000036200058b576040516368d2bf6b60e11b815260040160405180910390fd5b805181602001fd5b6001600160e01b031916630a85bd0160e11b149050949350505050565b6200032b848484846200032b60201b620009091760201c565b634e487b7160e01b600052604160045260246000fd5b600181811c90821680620005f457607f821691505b6020821081036200061557634e487b7160e01b600052602260045260246000fd5b50919050565b601f821115620003c557600081815260208120601f850160051c81016020861015620006445750805b601f850160051c820191505b81811015620006655782815560010162000650565b505050505050565b81516001600160401b03811115620006895762000689620005c9565b620006a1816200069a8454620005df565b846200061b565b602080601f831160018114620006d95760008415620006c05750858301515b600019600386901b1c1916600185901b17855562000665565b600085815260208120601f198616915b828110156200070a57888601518255948401946001909101908401620006e9565b5085821015620007295787850151600019600388901b60f8161c191681555b5050505050600190811b01905550565b60005b83811015620007565781810151838201526020016200073c565b838111156200032b5750506000910152565b80516001600160a01b03811681146200078057600080fd5b919050565b600080604083850312156200079957600080fd5b82516001600160401b0380821115620007b157600080fd5b818501915085601f830112620007c657600080fd5b815181811115620007db57620007db620005c9565b604051601f8201601f19908116603f01168101908382118183101715620008065762000806620005c9565b816040528281528860208487010111156200082057600080fd5b6200083383602083016020880162000739565b8096505050505050620008496020840162000768565b90509250929050565b600082198211156200087457634e487b7160e01b600052601160045260246000fd5b500190565b600060018060a01b038087168352808616602084015250836040830152608060608301528251806080840152620008b88160a085016020870162000739565b601f01601f19169190910160a00195945050505050565b600060208284031215620008e257600080fd5b81516001600160e01b031981168114620008fb57600080fd5b9392505050565b61185180620009126000396000f3fe608060405234801561001057600080fd5b50600436106101585760003560e01c8063715018a6116100c3578063b88d4fde1161007c578063b88d4fde146102ec578063c6682862146102ff578063c87b56dd14610307578063d5abeb011461031a578063e985e9c514610323578063f2fde38b1461035f57600080fd5b8063715018a6146102795780638da5cb5b1461028157806395d89b4114610292578063a14481941461029a578063a22cb465146102ad578063aa271e1a146102c057600080fd5b80633c713026116101155780633c7130261461020757806342842e0e1461021a57806342966c681461022d57806355f804b3146102405780636352211e1461025357806370a082311461026657600080fd5b806301ffc9a71461015d57806306fdde0314610185578063081812fc1461019a578063095ea7b3146101c557806318160ddd146101da57806323b872dd146101f4575b600080fd5b61017061016b3660046111fc565b610372565b60405190151581526020015b60405180910390f35b61018d610383565b60405161017c9190611271565b6101ad6101a8366004611284565b610415565b6040516001600160a01b03909116815260200161017c565b6101d86101d33660046112b9565b610459565b005b60015460005403600019015b60405190815260200161017c565b6101d86102023660046112e3565b6104f9565b6101d861021536600461131f565b6106a9565b6101d86102283660046112e3565b61073e565b6101d861023b366004611284565b61075e565b6101d861024e3660046113e7565b61076c565b6101ad610261366004611284565b6107a6565b6101e6610274366004611430565b6107b1565b6101d8610800565b6008546001600160a01b03166101ad565b61018d610836565b6101d86102a83660046112b9565b610845565b6101d86102bb36600461131f565b61090f565b6101706102ce366004611430565b6001600160a01b031660009081526009602052604090205460ff1690565b6101d86102fa36600461144b565b61099d565b61018d6109e1565b61018d610315366004611284565b610a6f565b6101e661045781565b6101706103313660046114c7565b6001600160a01b03918216600090815260076020908152604080832093909416825291909152205460ff1690565b6101d861036d366004611430565b610b3d565b600061037d82610bd5565b92915050565b606060028054610392906114fa565b80601f01602080910402602001604051908101604052809291908181526020018280546103be906114fa565b801561040b5780601f106103e05761010080835404028352916020019161040b565b820191906000526020600020905b8154815290600101906020018083116103ee57829003601f168201915b5050505050905090565b600061042082610c23565b61043d576040516333d1c03960e21b815260040160405180910390fd5b506000908152600660205260409020546001600160a01b031690565b6000610464826107a6565b9050336001600160a01b0382161461049d576104808133610331565b61049d576040516367d9dca160e11b815260040160405180910390fd5b60008281526006602052604080822080546001600160a01b0319166001600160a01b0387811691821790925591518593918516917f8c5be1e5ebec7d5bd14f71427d1e84f3dd0314c0f7b2291e5b200ac8c7c3b92591a4505050565b600061050482610c58565b9050836001600160a01b0316816001600160a01b0316146105375760405162a1148160e81b815260040160405180910390fd5b600082815260066020526040902080546105638187335b6001600160a01b039081169116811491141790565b61058e576105718633610331565b61058e57604051632ce44b5f60e11b815260040160405180910390fd5b6001600160a01b0385166105b557604051633a954ecd60e21b815260040160405180910390fd5b6105c28686866001610cc7565b80156105cd57600082555b6001600160a01b038681166000908152600560205260408082208054600019019055918716808252919020805460010190554260a01b17600160e11b17600085815260046020526040812091909155600160e11b8416900361065f5760018401600081815260046020526040812054900361065d57600054811461065d5760008181526004602052604090208490555b505b83856001600160a01b0316876001600160a01b03167fddf252ad1be2c89b69c2b068fc378daa952ba7f163c4a11628f55a4df523b3ef60405160405180910390a45b505050505050565b6008546001600160a01b031633146106dc5760405162461bcd60e51b81526004016106d390611534565b60405180910390fd5b6001600160a01b038216600081815260096020908152604091829020805460ff1916851515908117909155915191825233917f3c49a0d2dcd603245c20eb1985825d770748295cd570de6d24861080451bbd4191015b60405180910390a35050565b6107598383836040518060200160405280600081525061099d565b505050565b610769816001610ccc565b50565b6008546001600160a01b031633146107965760405162461bcd60e51b81526004016106d390611534565b600a6107a282826115af565b5050565b600061037d82610c58565b60006001600160a01b0382166107da576040516323d3ad8160e21b815260040160405180910390fd5b506001600160a01b031660009081526005602052604090205467ffffffffffffffff1690565b6008546001600160a01b0316331461082a5760405162461bcd60e51b81526004016106d390611534565b6108346000610e24565b565b606060038054610392906114fa565b3360008181526009602052604090205460ff1661089b5760405162461bcd60e51b81526020600482015260146024820152732cb7ba9030b932903737ba10309036b4b73a32b960611b60448201526064016106d3565b60006108b06001546000546000199190030190565b90506104576108bf8483611685565b11156108ff5760405162461bcd60e51b815260206004820152600f60248201526e4f766572206d617820737570706c7960881b60448201526064016106d3565b6109098484610e76565b50505050565b336001600160a01b038316036109385760405163b06307db60e01b815260040160405180910390fd5b3360008181526007602090815260408083206001600160a01b03871680855290835292819020805460ff191686151590811790915590519081529192917f17307eab39ab6107e8899845ad3d59bd9653f200f220920489ca2b5937696c319101610732565b6109a88484846104f9565b6001600160a01b0383163b15610909576109c484848484610e90565b610909576040516368d2bf6b60e11b815260040160405180910390fd5b600b80546109ee906114fa565b80601f0160208091040260200160405190810160405280929190818152602001828054610a1a906114fa565b8015610a675780601f10610a3c57610100808354040283529160200191610a67565b820191906000526020600020905b815481529060010190602001808311610a4a57829003601f168201915b505050505081565b6060610a7a82610c23565b610ade5760405162461bcd60e51b815260206004820152602f60248201527f4552433732314d657461646174613a2055524920717565727920666f72206e6f60448201526e3732bc34b9ba32b73a103a37b5b2b760891b60648201526084016106d3565b6000610ae8610f7c565b90506000815111610b085760405180602001604052806000815250610b36565b80610b1284610f8b565b600b604051602001610b269392919061169d565b6040516020818303038152906040525b9392505050565b6008546001600160a01b03163314610b675760405162461bcd60e51b81526004016106d390611534565b6001600160a01b038116610bcc5760405162461bcd60e51b815260206004820152602660248201527f4f776e61626c653a206e6577206f776e657220697320746865207a65726f206160448201526564647265737360d01b60648201526084016106d3565b61076981610e24565b60006301ffc9a760e01b6001600160e01b031983161480610c0657506380ac58cd60e01b6001600160e01b03198316145b8061037d5750506001600160e01b031916635b5e139f60e01b1490565b600081600111158015610c37575060005482105b801561037d575050600090815260046020526040902054600160e01b161590565b60008180600111610cae57600054811015610cae5760008181526004602052604081205490600160e01b82169003610cac575b80600003610b36575060001901600081815260046020526040902054610c8b565b505b604051636f96cda160e11b815260040160405180910390fd5b610909565b6000610cd783610c58565b905080600080610cf586600090815260066020526040902080549091565b915091508415610d3557610d0a81843361054e565b610d3557610d188333610331565b610d3557604051632ce44b5f60e11b815260040160405180910390fd5b610d43836000886001610cc7565b8015610d4e57600082555b6001600160a01b038316600081815260056020526040902080546fffffffffffffffffffffffffffffffff0190554260a01b17600360e01b17600087815260046020526040812091909155600160e11b85169003610ddc57600186016000818152600460205260408120549003610dda576000548114610dda5760008181526004602052604090208590555b505b60405186906000906001600160a01b038616907fddf252ad1be2c89b69c2b068fc378daa952ba7f163c4a11628f55a4df523b3ef908390a45050600180548101905550505050565b600880546001600160a01b038381166001600160a01b0319831681179093556040519116919082907f8be0079c531659141344cd1fd0a4f28419497f9722a3daafe3b4186f6b6457e090600090a35050565b6107a282826040518060200160405280600081525061108c565b604051630a85bd0160e11b81526000906001600160a01b0385169063150b7a0290610ec590339089908890889060040161173d565b6020604051808303816000875af1925050508015610f00575060408051601f3d908101601f19168201909252610efd9181019061177a565b60015b610f5e573d808015610f2e576040519150601f19603f3d011682016040523d82523d6000602084013e610f33565b606091505b508051600003610f56576040516368d2bf6b60e11b815260040160405180910390fd5b805181602001fd5b6001600160e01b031916630a85bd0160e11b1490505b949350505050565b6060600a8054610392906114fa565b606081600003610fb25750506040805180820190915260018152600360fc1b602082015290565b8160005b8115610fdc5780610fc681611797565b9150610fd59050600a836117c6565b9150610fb6565b60008167ffffffffffffffff811115610ff757610ff761135b565b6040519080825280601f01601f191660200182016040528015611021576020820181803683370190505b5090505b8415610f74576110366001836117da565b9150611043600a866117f1565b61104e906030611685565b60f81b81838151811061106357611063611805565b60200101906001600160f81b031916908160001a905350611085600a866117c6565b9450611025565b61109683836110f9565b6001600160a01b0383163b15610759576000548281035b6110c06000868380600101945086610e90565b6110dd576040516368d2bf6b60e11b815260040160405180910390fd5b8181106110ad5781600054146110f257600080fd5b5050505050565b6000546001600160a01b03831661112257604051622e076360e81b815260040160405180910390fd5b816000036111435760405163b562e8dd60e01b815260040160405180910390fd5b6111506000848385610cc7565b6001600160a01b038316600081815260056020526040902080546801000000000000000185020190554260a01b6001841460e11b1717600082815260046020526040902055808281015b6040516001830192906001600160a01b038716906000907fddf252ad1be2c89b69c2b068fc378daa952ba7f163c4a11628f55a4df523b3ef908290a480821061119a5760005550505050565b6001600160e01b03198116811461076957600080fd5b60006020828403121561120e57600080fd5b8135610b36816111e6565b60005b8381101561123457818101518382015260200161121c565b838111156109095750506000910152565b6000815180845261125d816020860160208601611219565b601f01601f19169290920160200192915050565b602081526000610b366020830184611245565b60006020828403121561129657600080fd5b5035919050565b80356001600160a01b03811681146112b457600080fd5b919050565b600080604083850312156112cc57600080fd5b6112d58361129d565b946020939093013593505050565b6000806000606084860312156112f857600080fd5b6113018461129d565b925061130f6020850161129d565b9150604084013590509250925092565b6000806040838503121561133257600080fd5b61133b8361129d565b91506020830135801515811461135057600080fd5b809150509250929050565b634e487b7160e01b600052604160045260246000fd5b600067ffffffffffffffff8084111561138c5761138c61135b565b604051601f8501601f19908116603f011681019082821181831017156113b4576113b461135b565b816040528093508581528686860111156113cd57600080fd5b858560208301376000602087830101525050509392505050565b6000602082840312156113f957600080fd5b813567ffffffffffffffff81111561141057600080fd5b8201601f8101841361142157600080fd5b610f7484823560208401611371565b60006020828403121561144257600080fd5b610b368261129d565b6000806000806080858703121561146157600080fd5b61146a8561129d565b93506114786020860161129d565b925060408501359150606085013567ffffffffffffffff81111561149b57600080fd5b8501601f810187136114ac57600080fd5b6114bb87823560208401611371565b91505092959194509250565b600080604083850312156114da57600080fd5b6114e38361129d565b91506114f16020840161129d565b90509250929050565b600181811c9082168061150e57607f821691505b60208210810361152e57634e487b7160e01b600052602260045260246000fd5b50919050565b6020808252818101527f4f776e61626c653a2063616c6c6572206973206e6f7420746865206f776e6572604082015260600190565b601f82111561075957600081815260208120601f850160051c810160208610156115905750805b601f850160051c820191505b818110156106a15782815560010161159c565b815167ffffffffffffffff8111156115c9576115c961135b565b6115dd816115d784546114fa565b84611569565b602080601f83116001811461161257600084156115fa5750858301515b600019600386901b1c1916600185901b1785556106a1565b600085815260208120601f198616915b8281101561164157888601518255948401946001909101908401611622565b508582101561165f5787850151600019600388901b60f8161c191681555b5050505050600190811b01905550565b634e487b7160e01b600052601160045260246000fd5b600082198211156116985761169861166f565b500190565b6000845160206116b08285838a01611219565b8551918401916116c38184848a01611219565b85549201916000906116d4816114fa565b600182811680156116ec57600181146117015761172d565b60ff198416875282151583028701945061172d565b896000528560002060005b848110156117255781548982015290830190870161170c565b505082870194505b50929a9950505050505050505050565b6001600160a01b038581168252841660208201526040810183905260806060820181905260009061177090830184611245565b9695505050505050565b60006020828403121561178c57600080fd5b8151610b36816111e6565b6000600182016117a9576117a961166f565b5060010190565b634e487b7160e01b600052601260045260246000fd5b6000826117d5576117d56117b0565b500490565b6000828210156117ec576117ec61166f565b500390565b600082611800576118006117b0565b500690565b634e487b7160e01b600052603260045260246000fdfea264697066735822122017b24cd57cc0d80b8a4d1238e766085b31502aed053164d5211b96e172f6e6ae64736f6c634300080f00334f776e61626c653a2063616c6c6572206973206e6f7420746865206f776e6572",
					"opcodes": "PUSH1 0xC0 PUSH1 0x40 MSTORE PUSH1 0x5 PUSH1 0x80 SWAP1 DUP2 MSTORE PUSH5 0x173539B7B7 PUSH1 0xD9 SHL PUSH1 0xA0 MSTORE PUSH1 0xB SWAP1 PUSH3 0x26 SWAP1 DUP3 PUSH3 0x66D JUMP JUMPDEST POP CALLVALUE DUP1 ISZERO PUSH3 0x34 JUMPI PUSH1 0x0 DUP1 REVERT JUMPDEST POP PUSH1 0x40 MLOAD PUSH3 0x2183 CODESIZE SUB DUP1 PUSH3 0x2183 DUP4 CODECOPY DUP2 ADD PUSH1 0x40 DUP2 SWAP1 MSTORE PUSH3 0x57 SWAP2 PUSH3 0x785 JUMP JUMPDEST PUSH1 0x40 MLOAD DUP1 PUSH1 0x40 ADD PUSH1 0x40 MSTORE DUP1 PUSH1 0x9 DUP2 MSTORE PUSH1 0x20 ADD PUSH9 0x4E414741204B494453 PUSH1 0xB8 SHL DUP2 MSTORE POP PUSH1 0x40 MLOAD DUP1 PUSH1 0x40 ADD PUSH1 0x40 MSTORE DUP1 PUSH1 0x4 DUP2 MSTORE PUSH1 0x20 ADD PUSH4 0x4E41474B PUSH1 0xE0 SHL DUP2 MSTORE POP DUP2 PUSH1 0x2 SWAP1 DUP2 PUSH3 0xA7 SWAP2 SWAP1 PUSH3 0x66D JUMP JUMPDEST POP PUSH1 0x3 PUSH3 0xB6 DUP3 DUP3 PUSH3 0x66D JUMP JUMPDEST POP POP PUSH1 0x1 PUSH1 0x0 SSTORE POP PUSH3 0xC9 CALLER PUSH3 0xF6 JUMP JUMPDEST PUSH3 0xD4 DUP3 PUSH3 0x148 JUMP JUMPDEST PUSH3 0xE1 CALLER PUSH1 0x1 PUSH3 0x1A9 JUMP JUMPDEST PUSH3 0xEE DUP2 PUSH1 0x6F PUSH3 0x255 JUMP JUMPDEST POP POP PUSH3 0x902 JUMP JUMPDEST PUSH1 0x8 DUP1 SLOAD PUSH1 0x1 PUSH1 0x1 PUSH1 0xA0 SHL SUB DUP4 DUP2 AND PUSH1 0x1 PUSH1 0x1 PUSH1 0xA0 SHL SUB NOT DUP4 AND DUP2 OR SWAP1 SWAP4 SSTORE PUSH1 0x40 MLOAD SWAP2 AND SWAP2 SWAP1 DUP3 SWAP1 PUSH32 0x8BE0079C531659141344CD1FD0A4F28419497F9722A3DAAFE3B4186F6B6457E0 SWAP1 PUSH1 0x0 SWAP1 LOG3 POP POP JUMP JUMPDEST PUSH1 0x8 SLOAD PUSH1 0x1 PUSH1 0x1 PUSH1 0xA0 SHL SUB AND CALLER EQ PUSH3 0x197 JUMPI PUSH1 0x40 MLOAD PUSH3 0x461BCD PUSH1 0xE5 SHL DUP2 MSTORE PUSH1 0x20 PUSH1 0x4 DUP3 ADD DUP2 SWAP1 MSTORE PUSH1 0x24 DUP3 ADD MSTORE PUSH1 0x0 DUP1 MLOAD PUSH1 0x20 PUSH3 0x2163 DUP4 CODECOPY DUP2 MLOAD SWAP2 MSTORE PUSH1 0x44 DUP3 ADD MSTORE PUSH1 0x64 ADD JUMPDEST PUSH1 0x40 MLOAD DUP1 SWAP2 SUB SWAP1 REVERT JUMPDEST PUSH1 0xA PUSH3 0x1A5 DUP3 DUP3 PUSH3 0x66D JUMP JUMPDEST POP POP JUMP JUMPDEST PUSH1 0x8 SLOAD PUSH1 0x1 PUSH1 0x1 PUSH1 0xA0 SHL SUB AND CALLER EQ PUSH3 0x1F4 JUMPI PUSH1 0x40 MLOAD PUSH3 0x461BCD PUSH1 0xE5 SHL DUP2 MSTORE PUSH1 0x20 PUSH1 0x4 DUP3 ADD DUP2 SWAP1 MSTORE PUSH1 0x24 DUP3 ADD MSTORE PUSH1 0x0 DUP1 MLOAD PUSH1 0x20 PUSH3 0x2163 DUP4 CODECOPY DUP2 MLOAD SWAP2 MSTORE PUSH1 0x44 DUP3 ADD MSTORE PUSH1 0x64 ADD PUSH3 0x18E JUMP JUMPDEST PUSH1 0x1 PUSH1 0x1 PUSH1 0xA0 SHL SUB DUP3 AND PUSH1 0x0 DUP2 DUP2 MSTORE PUSH1 0x9 PUSH1 0x20 SWAP1 DUP2 MSTORE PUSH1 0x40 SWAP2 DUP3 SWAP1 KECCAK256 DUP1 SLOAD PUSH1 0xFF NOT AND DUP6 ISZERO ISZERO SWAP1 DUP2 OR SWAP1 SWAP2 SSTORE SWAP2 MLOAD SWAP2 DUP3 MSTORE CALLER SWAP2 PUSH32 0x3C49A0D2DCD603245C20EB1985825D770748295CD570DE6D24861080451BBD41 SWAP2 ADD PUSH1 0x40 MLOAD DUP1 SWAP2 SUB SWAP1 LOG3 POP POP JUMP JUMPDEST CALLER PUSH1 0x0 DUP2 DUP2 MSTORE PUSH1 0x9 PUSH1 0x20 MSTORE PUSH1 0x40 SWAP1 KECCAK256 SLOAD PUSH1 0xFF AND PUSH3 0x2B6 JUMPI PUSH1 0x40 MLOAD PUSH3 0x461BCD PUSH1 0xE5 SHL DUP2 MSTORE PUSH1 0x20 PUSH1 0x4 DUP3 ADD MSTORE PUSH1 0x14 PUSH1 0x24 DUP3 ADD MSTORE PUSH32 0x596F7520617265206E6F742061206D696E746572000000000000000000000000 PUSH1 0x44 DUP3 ADD MSTORE PUSH1 0x64 ADD PUSH3 0x18E JUMP JUMPDEST PUSH1 0x0 PUSH3 0x2CC PUSH1 0x1 SLOAD PUSH1 0x0 SLOAD PUSH1 0x0 NOT SWAP2 SWAP1 SUB ADD SWAP1 JUMP JUMPDEST SWAP1 POP PUSH2 0x457 PUSH3 0x2DD DUP5 DUP4 PUSH3 0x852 JUMP JUMPDEST GT ISZERO PUSH3 0x31F JUMPI PUSH1 0x40 MLOAD PUSH3 0x461BCD PUSH1 0xE5 SHL DUP2 MSTORE PUSH1 0x20 PUSH1 0x4 DUP3 ADD MSTORE PUSH1 0xF PUSH1 0x24 DUP3 ADD MSTORE PUSH15 0x4F766572206D617820737570706C79 PUSH1 0x88 SHL PUSH1 0x44 DUP3 ADD MSTORE PUSH1 0x64 ADD PUSH3 0x18E JUMP JUMPDEST PUSH3 0x32B DUP5 DUP5 PUSH3 0x331 JUMP JUMPDEST POP POP POP POP JUMP JUMPDEST PUSH3 0x1A5 DUP3 DUP3 PUSH1 0x40 MLOAD DUP1 PUSH1 0x20 ADD PUSH1 0x40 MSTORE DUP1 PUSH1 0x0 DUP2 MSTORE POP PUSH3 0x353 PUSH1 0x20 SHL PUSH1 0x20 SHR JUMP JUMPDEST PUSH3 0x35F DUP4 DUP4 PUSH3 0x3CA JUMP JUMPDEST PUSH1 0x1 PUSH1 0x1 PUSH1 0xA0 SHL SUB DUP4 AND EXTCODESIZE ISZERO PUSH3 0x3C5 JUMPI PUSH1 0x0 SLOAD DUP3 DUP2 SUB JUMPDEST PUSH1 0x1 DUP2 ADD SWAP1 PUSH3 0x38D SWAP1 PUSH1 0x0 SWAP1 DUP8 SWAP1 DUP7 PUSH3 0x4BC JUMP JUMPDEST PUSH3 0x3AB JUMPI PUSH1 0x40 MLOAD PUSH4 0x68D2BF6B PUSH1 0xE1 SHL DUP2 MSTORE PUSH1 0x4 ADD PUSH1 0x40 MLOAD DUP1 SWAP2 SUB SWAP1 REVERT JUMPDEST DUP2 DUP2 LT PUSH3 0x377 JUMPI DUP2 PUSH1 0x0 SLOAD EQ PUSH3 0x3C2 JUMPI PUSH1 0x0 DUP1 REVERT JUMPDEST POP POP JUMPDEST POP POP POP JUMP JUMPDEST PUSH1 0x0 SLOAD PUSH1 0x1 PUSH1 0x1 PUSH1 0xA0 SHL SUB DUP4 AND PUSH3 0x3F4 JUMPI PUSH1 0x40 MLOAD PUSH3 0x2E0763 PUSH1 0xE8 SHL DUP2 MSTORE PUSH1 0x4 ADD PUSH1 0x40 MLOAD DUP1 SWAP2 SUB SWAP1 REVERT JUMPDEST DUP2 PUSH1 0x0 SUB PUSH3 0x416 JUMPI PUSH1 0x40 MLOAD PUSH4 0xB562E8DD PUSH1 0xE0 SHL DUP2 MSTORE PUSH1 0x4 ADD PUSH1 0x40 MLOAD DUP1 SWAP2 SUB SWAP1 REVERT JUMPDEST PUSH3 0x425 PUSH1 0x0 DUP5 DUP4 DUP6 PUSH3 0x5B0 JUMP JUMPDEST PUSH1 0x1 PUSH1 0x1 PUSH1 0xA0 SHL SUB DUP4 AND PUSH1 0x0 DUP2 DUP2 MSTORE PUSH1 0x5 PUSH1 0x20 MSTORE PUSH1 0x40 SWAP1 KECCAK256 DUP1 SLOAD PUSH9 0x10000000000000001 DUP6 MUL ADD SWAP1 SSTORE TIMESTAMP PUSH1 0xA0 SHL PUSH1 0x1 DUP5 EQ PUSH1 0xE1 SHL OR OR PUSH1 0x0 DUP3 DUP2 MSTORE PUSH1 0x4 PUSH1 0x20 MSTORE PUSH1 0x40 SWAP1 KECCAK256 SSTORE DUP1 DUP3 DUP2 ADD JUMPDEST PUSH1 0x40 MLOAD PUSH1 0x1 DUP4 ADD SWAP3 SWAP1 PUSH1 0x1 PUSH1 0x1 PUSH1 0xA0 SHL SUB DUP8 AND SWAP1 PUSH1 0x0 SWAP1 PUSH32 0xDDF252AD1BE2C89B69C2B068FC378DAA952BA7F163C4A11628F55A4DF523B3EF SWAP1 DUP3 SWAP1 LOG4 DUP1 DUP3 LT PUSH3 0x46F JUMPI PUSH1 0x0 SSTORE POP POP POP POP JUMP JUMPDEST PUSH1 0x40 MLOAD PUSH4 0xA85BD01 PUSH1 0xE1 SHL DUP2 MSTORE PUSH1 0x0 SWAP1 PUSH1 0x1 PUSH1 0x1 PUSH1 0xA0 SHL SUB DUP6 AND SWAP1 PUSH4 0x150B7A02 SWAP1 PUSH3 0x4F3 SWAP1 CALLER SWAP1 DUP10 SWAP1 DUP9 SWAP1 DUP9 SWAP1 PUSH1 0x4 ADD PUSH3 0x879 JUMP JUMPDEST PUSH1 0x20 PUSH1 0x40 MLOAD DUP1 DUP4 SUB DUP2 PUSH1 0x0 DUP8 GAS CALL SWAP3 POP POP POP DUP1 ISZERO PUSH3 0x531 JUMPI POP PUSH1 0x40 DUP1 MLOAD PUSH1 0x1F RETURNDATASIZE SWAP1 DUP2 ADD PUSH1 0x1F NOT AND DUP3 ADD SWAP1 SWAP3 MSTORE PUSH3 0x52E SWAP2 DUP2 ADD SWAP1 PUSH3 0x8CF JUMP JUMPDEST PUSH1 0x1 JUMPDEST PUSH3 0x593 JUMPI RETURNDATASIZE DUP1 DUP1 ISZERO PUSH3 0x562 JUMPI PUSH1 0x40 MLOAD SWAP2 POP PUSH1 0x1F NOT PUSH1 0x3F RETURNDATASIZE ADD AND DUP3 ADD PUSH1 0x40 MSTORE RETURNDATASIZE DUP3 MSTORE RETURNDATASIZE PUSH1 0x0 PUSH1 0x20 DUP5 ADD RETURNDATACOPY PUSH3 0x567 JUMP JUMPDEST PUSH1 0x60 SWAP2 POP JUMPDEST POP DUP1 MLOAD PUSH1 0x0 SUB PUSH3 0x58B JUMPI PUSH1 0x40 MLOAD PUSH4 0x68D2BF6B PUSH1 0xE1 SHL DUP2 MSTORE PUSH1 0x4 ADD PUSH1 0x40 MLOAD DUP1 SWAP2 SUB SWAP1 REVERT JUMPDEST DUP1 MLOAD DUP2 PUSH1 0x20 ADD REVERT JUMPDEST PUSH1 0x1 PUSH1 0x1 PUSH1 0xE0 SHL SUB NOT AND PUSH4 0xA85BD01 PUSH1 0xE1 SHL EQ SWAP1 POP SWAP5 SWAP4 POP POP POP POP JUMP JUMPDEST PUSH3 0x32B DUP5 DUP5 DUP5 DUP5 PUSH3 0x32B PUSH1 0x20 SHL PUSH3 0x909 OR PUSH1 0x20 SHR JUMP JUMPDEST PUSH4 0x4E487B71 PUSH1 0xE0 SHL PUSH1 0x0 MSTORE PUSH1 0x41 PUSH1 0x4 MSTORE PUSH1 0x24 PUSH1 0x0 REVERT JUMPDEST PUSH1 0x1 DUP2 DUP2 SHR SWAP1 DUP3 AND DUP1 PUSH3 0x5F4 JUMPI PUSH1 0x7F DUP3 AND SWAP2 POP JUMPDEST PUSH1 0x20 DUP3 LT DUP2 SUB PUSH3 0x615 JUMPI PUSH4 0x4E487B71 PUSH1 0xE0 SHL PUSH1 0x0 MSTORE PUSH1 0x22 PUSH1 0x4 MSTORE PUSH1 0x24 PUSH1 0x0 REVERT JUMPDEST POP SWAP2 SWAP1 POP JUMP JUMPDEST PUSH1 0x1F DUP3 GT ISZERO PUSH3 0x3C5 JUMPI PUSH1 0x0 DUP2 DUP2 MSTORE PUSH1 0x20 DUP2 KECCAK256 PUSH1 0x1F DUP6 ADD PUSH1 0x5 SHR DUP2 ADD PUSH1 0x20 DUP7 LT ISZERO PUSH3 0x644 JUMPI POP DUP1 JUMPDEST PUSH1 0x1F DUP6 ADD PUSH1 0x5 SHR DUP3 ADD SWAP2 POP JUMPDEST DUP2 DUP2 LT ISZERO PUSH3 0x665 JUMPI DUP3 DUP2 SSTORE PUSH1 0x1 ADD PUSH3 0x650 JUMP JUMPDEST POP POP POP POP POP POP JUMP JUMPDEST DUP2 MLOAD PUSH1 0x1 PUSH1 0x1 PUSH1 0x40 SHL SUB DUP2 GT ISZERO PUSH3 0x689 JUMPI PUSH3 0x689 PUSH3 0x5C9 JUMP JUMPDEST PUSH3 0x6A1 DUP2 PUSH3 0x69A DUP5 SLOAD PUSH3 0x5DF JUMP JUMPDEST DUP5 PUSH3 0x61B JUMP JUMPDEST PUSH1 0x20 DUP1 PUSH1 0x1F DUP4 GT PUSH1 0x1 DUP2 EQ PUSH3 0x6D9 JUMPI PUSH1 0x0 DUP5 ISZERO PUSH3 0x6C0 JUMPI POP DUP6 DUP4 ADD MLOAD JUMPDEST PUSH1 0x0 NOT PUSH1 0x3 DUP7 SWAP1 SHL SHR NOT AND PUSH1 0x1 DUP6 SWAP1 SHL OR DUP6 SSTORE PUSH3 0x665 JUMP JUMPDEST PUSH1 0x0 DUP6 DUP2 MSTORE PUSH1 0x20 DUP2 KECCAK256 PUSH1 0x1F NOT DUP7 AND SWAP2 JUMPDEST DUP3 DUP2 LT ISZERO PUSH3 0x70A JUMPI DUP9 DUP7 ADD MLOAD DUP3 SSTORE SWAP5 DUP5 ADD SWAP5 PUSH1 0x1 SWAP1 SWAP2 ADD SWAP1 DUP5 ADD PUSH3 0x6E9 JUMP JUMPDEST POP DUP6 DUP3 LT ISZERO PUSH3 0x729 JUMPI DUP8 DUP6 ADD MLOAD PUSH1 0x0 NOT PUSH1 0x3 DUP9 SWAP1 SHL PUSH1 0xF8 AND SHR NOT AND DUP2 SSTORE JUMPDEST POP POP POP POP POP PUSH1 0x1 SWAP1 DUP2 SHL ADD SWAP1 SSTORE POP JUMP JUMPDEST PUSH1 0x0 JUMPDEST DUP4 DUP2 LT ISZERO PUSH3 0x756 JUMPI DUP2 DUP2 ADD MLOAD DUP4 DUP3 ADD MSTORE PUSH1 0x20 ADD PUSH3 0x73C JUMP JUMPDEST DUP4 DUP2 GT ISZERO PUSH3 0x32B JUMPI POP POP PUSH1 0x0 SWAP2 ADD MSTORE JUMP JUMPDEST DUP1 MLOAD PUSH1 0x1 PUSH1 0x1 PUSH1 0xA0 SHL SUB DUP2 AND DUP2 EQ PUSH3 0x780 JUMPI PUSH1 0x0 DUP1 REVERT JUMPDEST SWAP2 SWAP1 POP JUMP JUMPDEST PUSH1 0x0 DUP1 PUSH1 0x40 DUP4 DUP6 SUB SLT ISZERO PUSH3 0x799 JUMPI PUSH1 0x0 DUP1 REVERT JUMPDEST DUP3 MLOAD PUSH1 0x1 PUSH1 0x1 PUSH1 0x40 SHL SUB DUP1 DUP3 GT ISZERO PUSH3 0x7B1 JUMPI PUSH1 0x0 DUP1 REVERT JUMPDEST DUP2 DUP6 ADD SWAP2 POP DUP6 PUSH1 0x1F DUP4 ADD SLT PUSH3 0x7C6 JUMPI PUSH1 0x0 DUP1 REVERT JUMPDEST DUP2 MLOAD DUP2 DUP2 GT ISZERO PUSH3 0x7DB JUMPI PUSH3 0x7DB PUSH3 0x5C9 JUMP JUMPDEST PUSH1 0x40 MLOAD PUSH1 0x1F DUP3 ADD PUSH1 0x1F NOT SWAP1 DUP2 AND PUSH1 0x3F ADD AND DUP2 ADD SWAP1 DUP4 DUP3 GT DUP2 DUP4 LT OR ISZERO PUSH3 0x806 JUMPI PUSH3 0x806 PUSH3 0x5C9 JUMP JUMPDEST DUP2 PUSH1 0x40 MSTORE DUP3 DUP2 MSTORE DUP9 PUSH1 0x20 DUP5 DUP8 ADD ADD GT ISZERO PUSH3 0x820 JUMPI PUSH1 0x0 DUP1 REVERT JUMPDEST PUSH3 0x833 DUP4 PUSH1 0x20 DUP4 ADD PUSH1 0x20 DUP9 ADD PUSH3 0x739 JUMP JUMPDEST DUP1 SWAP7 POP POP POP POP POP POP PUSH3 0x849 PUSH1 0x20 DUP5 ADD PUSH3 0x768 JUMP JUMPDEST SWAP1 POP SWAP3 POP SWAP3 SWAP1 POP JUMP JUMPDEST PUSH1 0x0 DUP3 NOT DUP3 GT ISZERO PUSH3 0x874 JUMPI PUSH4 0x4E487B71 PUSH1 0xE0 SHL PUSH1 0x0 MSTORE PUSH1 0x11 PUSH1 0x4 MSTORE PUSH1 0x24 PUSH1 0x0 REVERT JUMPDEST POP ADD SWAP1 JUMP JUMPDEST PUSH1 0x0 PUSH1 0x1 DUP1 PUSH1 0xA0 SHL SUB DUP1 DUP8 AND DUP4 MSTORE DUP1 DUP7 AND PUSH1 0x20 DUP5 ADD MSTORE POP DUP4 PUSH1 0x40 DUP4 ADD MSTORE PUSH1 0x80 PUSH1 0x60 DUP4 ADD MSTORE DUP3 MLOAD DUP1 PUSH1 0x80 DUP5 ADD MSTORE PUSH3 0x8B8 DUP2 PUSH1 0xA0 DUP6 ADD PUSH1 0x20 DUP8 ADD PUSH3 0x739 JUMP JUMPDEST PUSH1 0x1F ADD PUSH1 0x1F NOT AND SWAP2 SWAP1 SWAP2 ADD PUSH1 0xA0 ADD SWAP6 SWAP5 POP POP POP POP POP JUMP JUMPDEST PUSH1 0x0 PUSH1 0x20 DUP3 DUP5 SUB SLT ISZERO PUSH3 0x8E2 JUMPI PUSH1 0x0 DUP1 REVERT JUMPDEST DUP2 MLOAD PUSH1 0x1 PUSH1 0x1 PUSH1 0xE0 SHL SUB NOT DUP2 AND DUP2 EQ PUSH3 0x8FB JUMPI PUSH1 0x0 DUP1 REVERT JUMPDEST SWAP4 SWAP3 POP POP POP JUMP JUMPDEST PUSH2 0x1851 DUP1 PUSH3 0x912 PUSH1 0x0 CODECOPY PUSH1 0x0 RETURN INVALID PUSH1 0x80 PUSH1 0x40 MSTORE CALLVALUE DUP1 ISZERO PUSH2 0x10 JUMPI PUSH1 0x0 DUP1 REVERT JUMPDEST POP PUSH1 0x4 CALLDATASIZE LT PUSH2 0x158 JUMPI PUSH1 0x0 CALLDATALOAD PUSH1 0xE0 SHR DUP1 PUSH4 0x715018A6 GT PUSH2 0xC3 JUMPI DUP1 PUSH4 0xB88D4FDE GT PUSH2 0x7C JUMPI DUP1 PUSH4 0xB88D4FDE EQ PUSH2 0x2EC JUMPI DUP1 PUSH4 0xC6682862 EQ PUSH2 0x2FF JUMPI DUP1 PUSH4 0xC87B56DD EQ PUSH2 0x307 JUMPI DUP1 PUSH4 0xD5ABEB01 EQ PUSH2 0x31A JUMPI DUP1 PUSH4 0xE985E9C5 EQ PUSH2 0x323 JUMPI DUP1 PUSH4 0xF2FDE38B EQ PUSH2 0x35F JUMPI PUSH1 0x0 DUP1 REVERT JUMPDEST DUP1 PUSH4 0x715018A6 EQ PUSH2 0x279 JUMPI DUP1 PUSH4 0x8DA5CB5B EQ PUSH2 0x281 JUMPI DUP1 PUSH4 0x95D89B41 EQ PUSH2 0x292 JUMPI DUP1 PUSH4 0xA1448194 EQ PUSH2 0x29A JUMPI DUP1 PUSH4 0xA22CB465 EQ PUSH2 0x2AD JUMPI DUP1 PUSH4 0xAA271E1A EQ PUSH2 0x2C0 JUMPI PUSH1 0x0 DUP1 REVERT JUMPDEST DUP1 PUSH4 0x3C713026 GT PUSH2 0x115 JUMPI DUP1 PUSH4 0x3C713026 EQ PUSH2 0x207 JUMPI DUP1 PUSH4 0x42842E0E EQ PUSH2 0x21A JUMPI DUP1 PUSH4 0x42966C68 EQ PUSH2 0x22D JUMPI DUP1 PUSH4 0x55F804B3 EQ PUSH2 0x240 JUMPI DUP1 PUSH4 0x6352211E EQ PUSH2 0x253 JUMPI DUP1 PUSH4 0x70A08231 EQ PUSH2 0x266 JUMPI PUSH1 0x0 DUP1 REVERT JUMPDEST DUP1 PUSH4 0x1FFC9A7 EQ PUSH2 0x15D JUMPI DUP1 PUSH4 0x6FDDE03 EQ PUSH2 0x185 JUMPI DUP1 PUSH4 0x81812FC EQ PUSH2 0x19A JUMPI DUP1 PUSH4 0x95EA7B3 EQ PUSH2 0x1C5 JUMPI DUP1 PUSH4 0x18160DDD EQ PUSH2 0x1DA JUMPI DUP1 PUSH4 0x23B872DD EQ PUSH2 0x1F4 JUMPI JUMPDEST PUSH1 0x0 DUP1 REVERT JUMPDEST PUSH2 0x170 PUSH2 0x16B CALLDATASIZE PUSH1 0x4 PUSH2 0x11FC JUMP JUMPDEST PUSH2 0x372 JUMP JUMPDEST PUSH1 0x40 MLOAD SWAP1 ISZERO ISZERO DUP2 MSTORE PUSH1 0x20 ADD JUMPDEST PUSH1 0x40 MLOAD DUP1 SWAP2 SUB SWAP1 RETURN JUMPDEST PUSH2 0x18D PUSH2 0x383 JUMP JUMPDEST PUSH1 0x40 MLOAD PUSH2 0x17C SWAP2 SWAP1 PUSH2 0x1271 JUMP JUMPDEST PUSH2 0x1AD PUSH2 0x1A8 CALLDATASIZE PUSH1 0x4 PUSH2 0x1284 JUMP JUMPDEST PUSH2 0x415 JUMP JUMPDEST PUSH1 0x40 MLOAD PUSH1 0x1 PUSH1 0x1 PUSH1 0xA0 SHL SUB SWAP1 SWAP2 AND DUP2 MSTORE PUSH1 0x20 ADD PUSH2 0x17C JUMP JUMPDEST PUSH2 0x1D8 PUSH2 0x1D3 CALLDATASIZE PUSH1 0x4 PUSH2 0x12B9 JUMP JUMPDEST PUSH2 0x459 JUMP JUMPDEST STOP JUMPDEST PUSH1 0x1 SLOAD PUSH1 0x0 SLOAD SUB PUSH1 0x0 NOT ADD JUMPDEST PUSH1 0x40 MLOAD SWAP1 DUP2 MSTORE PUSH1 0x20 ADD PUSH2 0x17C JUMP JUMPDEST PUSH2 0x1D8 PUSH2 0x202 CALLDATASIZE PUSH1 0x4 PUSH2 0x12E3 JUMP JUMPDEST PUSH2 0x4F9 JUMP JUMPDEST PUSH2 0x1D8 PUSH2 0x215 CALLDATASIZE PUSH1 0x4 PUSH2 0x131F JUMP JUMPDEST PUSH2 0x6A9 JUMP JUMPDEST PUSH2 0x1D8 PUSH2 0x228 CALLDATASIZE PUSH1 0x4 PUSH2 0x12E3 JUMP JUMPDEST PUSH2 0x73E JUMP JUMPDEST PUSH2 0x1D8 PUSH2 0x23B CALLDATASIZE PUSH1 0x4 PUSH2 0x1284 JUMP JUMPDEST PUSH2 0x75E JUMP JUMPDEST PUSH2 0x1D8 PUSH2 0x24E CALLDATASIZE PUSH1 0x4 PUSH2 0x13E7 JUMP JUMPDEST PUSH2 0x76C JUMP JUMPDEST PUSH2 0x1AD PUSH2 0x261 CALLDATASIZE PUSH1 0x4 PUSH2 0x1284 JUMP JUMPDEST PUSH2 0x7A6 JUMP JUMPDEST PUSH2 0x1E6 PUSH2 0x274 CALLDATASIZE PUSH1 0x4 PUSH2 0x1430 JUMP JUMPDEST PUSH2 0x7B1 JUMP JUMPDEST PUSH2 0x1D8 PUSH2 0x800 JUMP JUMPDEST PUSH1 0x8 SLOAD PUSH1 0x1 PUSH1 0x1 PUSH1 0xA0 SHL SUB AND PUSH2 0x1AD JUMP JUMPDEST PUSH2 0x18D PUSH2 0x836 JUMP JUMPDEST PUSH2 0x1D8 PUSH2 0x2A8 CALLDATASIZE PUSH1 0x4 PUSH2 0x12B9 JUMP JUMPDEST PUSH2 0x845 JUMP JUMPDEST PUSH2 0x1D8 PUSH2 0x2BB CALLDATASIZE PUSH1 0x4 PUSH2 0x131F JUMP JUMPDEST PUSH2 0x90F JUMP JUMPDEST PUSH2 0x170 PUSH2 0x2CE CALLDATASIZE PUSH1 0x4 PUSH2 0x1430 JUMP JUMPDEST PUSH1 0x1 PUSH1 0x1 PUSH1 0xA0 SHL SUB AND PUSH1 0x0 SWAP1 DUP2 MSTORE PUSH1 0x9 PUSH1 0x20 MSTORE PUSH1 0x40 SWAP1 KECCAK256 SLOAD PUSH1 0xFF AND SWAP1 JUMP JUMPDEST PUSH2 0x1D8 PUSH2 0x2FA CALLDATASIZE PUSH1 0x4 PUSH2 0x144B JUMP JUMPDEST PUSH2 0x99D JUMP JUMPDEST PUSH2 0x18D PUSH2 0x9E1 JUMP JUMPDEST PUSH2 0x18D PUSH2 0x315 CALLDATASIZE PUSH1 0x4 PUSH2 0x1284 JUMP JUMPDEST PUSH2 0xA6F JUMP JUMPDEST PUSH2 0x1E6 PUSH2 0x457 DUP2 JUMP JUMPDEST PUSH2 0x170 PUSH2 0x331 CALLDATASIZE PUSH1 0x4 PUSH2 0x14C7 JUMP JUMPDEST PUSH1 0x1 PUSH1 0x1 PUSH1 0xA0 SHL SUB SWAP2 DUP3 AND PUSH1 0x0 SWAP1 DUP2 MSTORE PUSH1 0x7 PUSH1 0x20 SWAP1 DUP2 MSTORE PUSH1 0x40 DUP1 DUP4 KECCAK256 SWAP4 SWAP1 SWAP5 AND DUP3 MSTORE SWAP2 SWAP1 SWAP2 MSTORE KECCAK256 SLOAD PUSH1 0xFF AND SWAP1 JUMP JUMPDEST PUSH2 0x1D8 PUSH2 0x36D CALLDATASIZE PUSH1 0x4 PUSH2 0x1430 JUMP JUMPDEST PUSH2 0xB3D JUMP JUMPDEST PUSH1 0x0 PUSH2 0x37D DUP3 PUSH2 0xBD5 JUMP JUMPDEST SWAP3 SWAP2 POP POP JUMP JUMPDEST PUSH1 0x60 PUSH1 0x2 DUP1 SLOAD PUSH2 0x392 SWAP1 PUSH2 0x14FA JUMP JUMPDEST DUP1 PUSH1 0x1F ADD PUSH1 0x20 DUP1 SWAP2 DIV MUL PUSH1 0x20 ADD PUSH1 0x40 MLOAD SWAP1 DUP2 ADD PUSH1 0x40 MSTORE DUP1 SWAP3 SWAP2 SWAP1 DUP2 DUP2 MSTORE PUSH1 0x20 ADD DUP3 DUP1 SLOAD PUSH2 0x3BE SWAP1 PUSH2 0x14FA JUMP JUMPDEST DUP1 ISZERO PUSH2 0x40B JUMPI DUP1 PUSH1 0x1F LT PUSH2 0x3E0 JUMPI PUSH2 0x100 DUP1 DUP4 SLOAD DIV MUL DUP4 MSTORE SWAP2 PUSH1 0x20 ADD SWAP2 PUSH2 0x40B JUMP JUMPDEST DUP3 ADD SWAP2 SWAP1 PUSH1 0x0 MSTORE PUSH1 0x20 PUSH1 0x0 KECCAK256 SWAP1 JUMPDEST DUP2 SLOAD DUP2 MSTORE SWAP1 PUSH1 0x1 ADD SWAP1 PUSH1 0x20 ADD DUP1 DUP4 GT PUSH2 0x3EE JUMPI DUP3 SWAP1 SUB PUSH1 0x1F AND DUP3 ADD SWAP2 JUMPDEST POP POP POP POP POP SWAP1 POP SWAP1 JUMP JUMPDEST PUSH1 0x0 PUSH2 0x420 DUP3 PUSH2 0xC23 JUMP JUMPDEST PUSH2 0x43D JUMPI PUSH1 0x40 MLOAD PUSH4 0x33D1C039 PUSH1 0xE2 SHL DUP2 MSTORE PUSH1 0x4 ADD PUSH1 0x40 MLOAD DUP1 SWAP2 SUB SWAP1 REVERT JUMPDEST POP PUSH1 0x0 SWAP1 DUP2 MSTORE PUSH1 0x6 PUSH1 0x20 MSTORE PUSH1 0x40 SWAP1 KECCAK256 SLOAD PUSH1 0x1 PUSH1 0x1 PUSH1 0xA0 SHL SUB AND SWAP1 JUMP JUMPDEST PUSH1 0x0 PUSH2 0x464 DUP3 PUSH2 0x7A6 JUMP JUMPDEST SWAP1 POP CALLER PUSH1 0x1 PUSH1 0x1 PUSH1 0xA0 SHL SUB DUP3 AND EQ PUSH2 0x49D JUMPI PUSH2 0x480 DUP2 CALLER PUSH2 0x331 JUMP JUMPDEST PUSH2 0x49D JUMPI PUSH1 0x40 MLOAD PUSH4 0x67D9DCA1 PUSH1 0xE1 SHL DUP2 MSTORE PUSH1 0x4 ADD PUSH1 0x40 MLOAD DUP1 SWAP2 SUB SWAP1 REVERT JUMPDEST PUSH1 0x0 DUP3 DUP2 MSTORE PUSH1 0x6 PUSH1 0x20 MSTORE PUSH1 0x40 DUP1 DUP3 KECCAK256 DUP1 SLOAD PUSH1 0x1 PUSH1 0x1 PUSH1 0xA0 SHL SUB NOT AND PUSH1 0x1 PUSH1 0x1 PUSH1 0xA0 SHL SUB DUP8 DUP2 AND SWAP2 DUP3 OR SWAP1 SWAP3 SSTORE SWAP2 MLOAD DUP6 SWAP4 SWAP2 DUP6 AND SWAP2 PUSH32 0x8C5BE1E5EBEC7D5BD14F71427D1E84F3DD0314C0F7B2291E5B200AC8C7C3B925 SWAP2 LOG4 POP POP POP JUMP JUMPDEST PUSH1 0x0 PUSH2 0x504 DUP3 PUSH2 0xC58 JUMP JUMPDEST SWAP1 POP DUP4 PUSH1 0x1 PUSH1 0x1 PUSH1 0xA0 SHL SUB AND DUP2 PUSH1 0x1 PUSH1 0x1 PUSH1 0xA0 SHL SUB AND EQ PUSH2 0x537 JUMPI PUSH1 0x40 MLOAD PUSH3 0xA11481 PUSH1 0xE8 SHL DUP2 MSTORE PUSH1 0x4 ADD PUSH1 0x40 MLOAD DUP1 SWAP2 SUB SWAP1 REVERT JUMPDEST PUSH1 0x0 DUP3 DUP2 MSTORE PUSH1 0x6 PUSH1 0x20 MSTORE PUSH1 0x40 SWAP1 KECCAK256 DUP1 SLOAD PUSH2 0x563 DUP2 DUP8 CALLER JUMPDEST PUSH1 0x1 PUSH1 0x1 PUSH1 0xA0 SHL SUB SWAP1 DUP2 AND SWAP2 AND DUP2 EQ SWAP2 EQ OR SWAP1 JUMP JUMPDEST PUSH2 0x58E JUMPI PUSH2 0x571 DUP7 CALLER PUSH2 0x331 JUMP JUMPDEST PUSH2 0x58E JUMPI PUSH1 0x40 MLOAD PUSH4 0x2CE44B5F PUSH1 0xE1 SHL DUP2 MSTORE PUSH1 0x4 ADD PUSH1 0x40 MLOAD DUP1 SWAP2 SUB SWAP1 REVERT JUMPDEST PUSH1 0x1 PUSH1 0x1 PUSH1 0xA0 SHL SUB DUP6 AND PUSH2 0x5B5 JUMPI PUSH1 0x40 MLOAD PUSH4 0x3A954ECD PUSH1 0xE2 SHL DUP2 MSTORE PUSH1 0x4 ADD PUSH1 0x40 MLOAD DUP1 SWAP2 SUB SWAP1 REVERT JUMPDEST PUSH2 0x5C2 DUP7 DUP7 DUP7 PUSH1 0x1 PUSH2 0xCC7 JUMP JUMPDEST DUP1 ISZERO PUSH2 0x5CD JUMPI PUSH1 0x0 DUP3 SSTORE JUMPDEST PUSH1 0x1 PUSH1 0x1 PUSH1 0xA0 SHL SUB DUP7 DUP2 AND PUSH1 0x0 SWAP1 DUP2 MSTORE PUSH1 0x5 PUSH1 0x20 MSTORE PUSH1 0x40 DUP1 DUP3 KECCAK256 DUP1 SLOAD PUSH1 0x0 NOT ADD SWAP1 SSTORE SWAP2 DUP8 AND DUP1 DUP3 MSTORE SWAP2 SWAP1 KECCAK256 DUP1 SLOAD PUSH1 0x1 ADD SWAP1 SSTORE TIMESTAMP PUSH1 0xA0 SHL OR PUSH1 0x1 PUSH1 0xE1 SHL OR PUSH1 0x0 DUP6 DUP2 MSTORE PUSH1 0x4 PUSH1 0x20 MSTORE PUSH1 0x40 DUP2 KECCAK256 SWAP2 SWAP1 SWAP2 SSTORE PUSH1 0x1 PUSH1 0xE1 SHL DUP5 AND SWAP1 SUB PUSH2 0x65F JUMPI PUSH1 0x1 DUP5 ADD PUSH1 0x0 DUP2 DUP2 MSTORE PUSH1 0x4 PUSH1 0x20 MSTORE PUSH1 0x40 DUP2 KECCAK256 SLOAD SWAP1 SUB PUSH2 0x65D JUMPI PUSH1 0x0 SLOAD DUP2 EQ PUSH2 0x65D JUMPI PUSH1 0x0 DUP2 DUP2 MSTORE PUSH1 0x4 PUSH1 0x20 MSTORE PUSH1 0x40 SWAP1 KECCAK256 DUP5 SWAP1 SSTORE JUMPDEST POP JUMPDEST DUP4 DUP6 PUSH1 0x1 PUSH1 0x1 PUSH1 0xA0 SHL SUB AND DUP8 PUSH1 0x1 PUSH1 0x1 PUSH1 0xA0 SHL SUB AND PUSH32 0xDDF252AD1BE2C89B69C2B068FC378DAA952BA7F163C4A11628F55A4DF523B3EF PUSH1 0x40 MLOAD PUSH1 0x40 MLOAD DUP1 SWAP2 SUB SWAP1 LOG4 JUMPDEST POP POP POP POP POP POP JUMP JUMPDEST PUSH1 0x8 SLOAD PUSH1 0x1 PUSH1 0x1 PUSH1 0xA0 SHL SUB AND CALLER EQ PUSH2 0x6DC JUMPI PUSH1 0x40 MLOAD PUSH3 0x461BCD PUSH1 0xE5 SHL DUP2 MSTORE PUSH1 0x4 ADD PUSH2 0x6D3 SWAP1 PUSH2 0x1534 JUMP JUMPDEST PUSH1 0x40 MLOAD DUP1 SWAP2 SUB SWAP1 REVERT JUMPDEST PUSH1 0x1 PUSH1 0x1 PUSH1 0xA0 SHL SUB DUP3 AND PUSH1 0x0 DUP2 DUP2 MSTORE PUSH1 0x9 PUSH1 0x20 SWAP1 DUP2 MSTORE PUSH1 0x40 SWAP2 DUP3 SWAP1 KECCAK256 DUP1 SLOAD PUSH1 0xFF NOT AND DUP6 ISZERO ISZERO SWAP1 DUP2 OR SWAP1 SWAP2 SSTORE SWAP2 MLOAD SWAP2 DUP3 MSTORE CALLER SWAP2 PUSH32 0x3C49A0D2DCD603245C20EB1985825D770748295CD570DE6D24861080451BBD41 SWAP2 ADD JUMPDEST PUSH1 0x40 MLOAD DUP1 SWAP2 SUB SWAP1 LOG3 POP POP JUMP JUMPDEST PUSH2 0x759 DUP4 DUP4 DUP4 PUSH1 0x40 MLOAD DUP1 PUSH1 0x20 ADD PUSH1 0x40 MSTORE DUP1 PUSH1 0x0 DUP2 MSTORE POP PUSH2 0x99D JUMP JUMPDEST POP POP POP JUMP JUMPDEST PUSH2 0x769 DUP2 PUSH1 0x1 PUSH2 0xCCC JUMP JUMPDEST POP JUMP JUMPDEST PUSH1 0x8 SLOAD PUSH1 0x1 PUSH1 0x1 PUSH1 0xA0 SHL SUB AND CALLER EQ PUSH2 0x796 JUMPI PUSH1 0x40 MLOAD PUSH3 0x461BCD PUSH1 0xE5 SHL DUP2 MSTORE PUSH1 0x4 ADD PUSH2 0x6D3 SWAP1 PUSH2 0x1534 JUMP JUMPDEST PUSH1 0xA PUSH2 0x7A2 DUP3 DUP3 PUSH2 0x15AF JUMP JUMPDEST POP POP JUMP JUMPDEST PUSH1 0x0 PUSH2 0x37D DUP3 PUSH2 0xC58 JUMP JUMPDEST PUSH1 0x0 PUSH1 0x1 PUSH1 0x1 PUSH1 0xA0 SHL SUB DUP3 AND PUSH2 0x7DA JUMPI PUSH1 0x40 MLOAD PUSH4 0x23D3AD81 PUSH1 0xE2 SHL DUP2 MSTORE PUSH1 0x4 ADD PUSH1 0x40 MLOAD DUP1 SWAP2 SUB SWAP1 REVERT JUMPDEST POP PUSH1 0x1 PUSH1 0x1 PUSH1 0xA0 SHL SUB AND PUSH1 0x0 SWAP1 DUP2 MSTORE PUSH1 0x5 PUSH1 0x20 MSTORE PUSH1 0x40 SWAP1 KECCAK256 SLOAD PUSH8 0xFFFFFFFFFFFFFFFF AND SWAP1 JUMP JUMPDEST PUSH1 0x8 SLOAD PUSH1 0x1 PUSH1 0x1 PUSH1 0xA0 SHL SUB AND CALLER EQ PUSH2 0x82A JUMPI PUSH1 0x40 MLOAD PUSH3 0x461BCD PUSH1 0xE5 SHL DUP2 MSTORE PUSH1 0x4 ADD PUSH2 0x6D3 SWAP1 PUSH2 0x1534 JUMP JUMPDEST PUSH2 0x834 PUSH1 0x0 PUSH2 0xE24 JUMP JUMPDEST JUMP JUMPDEST PUSH1 0x60 PUSH1 0x3 DUP1 SLOAD PUSH2 0x392 SWAP1 PUSH2 0x14FA JUMP JUMPDEST CALLER PUSH1 0x0 DUP2 DUP2 MSTORE PUSH1 0x9 PUSH1 0x20 MSTORE PUSH1 0x40 SWAP1 KECCAK256 SLOAD PUSH1 0xFF AND PUSH2 0x89B JUMPI PUSH1 0x40 MLOAD PUSH3 0x461BCD PUSH1 0xE5 SHL DUP2 MSTORE PUSH1 0x20 PUSH1 0x4 DUP3 ADD MSTORE PUSH1 0x14 PUSH1 0x24 DUP3 ADD MSTORE PUSH20 0x2CB7BA9030B932903737BA10309036B4B73A32B9 PUSH1 0x61 SHL PUSH1 0x44 DUP3 ADD MSTORE PUSH1 0x64 ADD PUSH2 0x6D3 JUMP JUMPDEST PUSH1 0x0 PUSH2 0x8B0 PUSH1 0x1 SLOAD PUSH1 0x0 SLOAD PUSH1 0x0 NOT SWAP2 SWAP1 SUB ADD SWAP1 JUMP JUMPDEST SWAP1 POP PUSH2 0x457 PUSH2 0x8BF DUP5 DUP4 PUSH2 0x1685 JUMP JUMPDEST GT ISZERO PUSH2 0x8FF JUMPI PUSH1 0x40 MLOAD PUSH3 0x461BCD PUSH1 0xE5 SHL DUP2 MSTORE PUSH1 0x20 PUSH1 0x4 DUP3 ADD MSTORE PUSH1 0xF PUSH1 0x24 DUP3 ADD MSTORE PUSH15 0x4F766572206D617820737570706C79 PUSH1 0x88 SHL PUSH1 0x44 DUP3 ADD MSTORE PUSH1 0x64 ADD PUSH2 0x6D3 JUMP JUMPDEST PUSH2 0x909 DUP5 DUP5 PUSH2 0xE76 JUMP JUMPDEST POP POP POP POP JUMP JUMPDEST CALLER PUSH1 0x1 PUSH1 0x1 PUSH1 0xA0 SHL SUB DUP4 AND SUB PUSH2 0x938 JUMPI PUSH1 0x40 MLOAD PUSH4 0xB06307DB PUSH1 0xE0 SHL DUP2 MSTORE PUSH1 0x4 ADD PUSH1 0x40 MLOAD DUP1 SWAP2 SUB SWAP1 REVERT JUMPDEST CALLER PUSH1 0x0 DUP2 DUP2 MSTORE PUSH1 0x7 PUSH1 0x20 SWAP1 DUP2 MSTORE PUSH1 0x40 DUP1 DUP4 KECCAK256 PUSH1 0x1 PUSH1 0x1 PUSH1 0xA0 SHL SUB DUP8 AND DUP1 DUP6 MSTORE SWAP1 DUP4 MSTORE SWAP3 DUP2 SWAP1 KECCAK256 DUP1 SLOAD PUSH1 0xFF NOT AND DUP7 ISZERO ISZERO SWAP1 DUP2 OR SWAP1 SWAP2 SSTORE SWAP1 MLOAD SWAP1 DUP2 MSTORE SWAP2 SWAP3 SWAP2 PUSH32 0x17307EAB39AB6107E8899845AD3D59BD9653F200F220920489CA2B5937696C31 SWAP2 ADD PUSH2 0x732 JUMP JUMPDEST PUSH2 0x9A8 DUP5 DUP5 DUP5 PUSH2 0x4F9 JUMP JUMPDEST PUSH1 0x1 PUSH1 0x1 PUSH1 0xA0 SHL SUB DUP4 AND EXTCODESIZE ISZERO PUSH2 0x909 JUMPI PUSH2 0x9C4 DUP5 DUP5 DUP5 DUP5 PUSH2 0xE90 JUMP JUMPDEST PUSH2 0x909 JUMPI PUSH1 0x40 MLOAD PUSH4 0x68D2BF6B PUSH1 0xE1 SHL DUP2 MSTORE PUSH1 0x4 ADD PUSH1 0x40 MLOAD DUP1 SWAP2 SUB SWAP1 REVERT JUMPDEST PUSH1 0xB DUP1 SLOAD PUSH2 0x9EE SWAP1 PUSH2 0x14FA JUMP JUMPDEST DUP1 PUSH1 0x1F ADD PUSH1 0x20 DUP1 SWAP2 DIV MUL PUSH1 0x20 ADD PUSH1 0x40 MLOAD SWAP1 DUP2 ADD PUSH1 0x40 MSTORE DUP1 SWAP3 SWAP2 SWAP1 DUP2 DUP2 MSTORE PUSH1 0x20 ADD DUP3 DUP1 SLOAD PUSH2 0xA1A SWAP1 PUSH2 0x14FA JUMP JUMPDEST DUP1 ISZERO PUSH2 0xA67 JUMPI DUP1 PUSH1 0x1F LT PUSH2 0xA3C JUMPI PUSH2 0x100 DUP1 DUP4 SLOAD DIV MUL DUP4 MSTORE SWAP2 PUSH1 0x20 ADD SWAP2 PUSH2 0xA67 JUMP JUMPDEST DUP3 ADD SWAP2 SWAP1 PUSH1 0x0 MSTORE PUSH1 0x20 PUSH1 0x0 KECCAK256 SWAP1 JUMPDEST DUP2 SLOAD DUP2 MSTORE SWAP1 PUSH1 0x1 ADD SWAP1 PUSH1 0x20 ADD DUP1 DUP4 GT PUSH2 0xA4A JUMPI DUP3 SWAP1 SUB PUSH1 0x1F AND DUP3 ADD SWAP2 JUMPDEST POP POP POP POP POP DUP2 JUMP JUMPDEST PUSH1 0x60 PUSH2 0xA7A DUP3 PUSH2 0xC23 JUMP JUMPDEST PUSH2 0xADE JUMPI PUSH1 0x40 MLOAD PUSH3 0x461BCD PUSH1 0xE5 SHL DUP2 MSTORE PUSH1 0x20 PUSH1 0x4 DUP3 ADD MSTORE PUSH1 0x2F PUSH1 0x24 DUP3 ADD MSTORE PUSH32 0x4552433732314D657461646174613A2055524920717565727920666F72206E6F PUSH1 0x44 DUP3 ADD MSTORE PUSH15 0x3732BC34B9BA32B73A103A37B5B2B7 PUSH1 0x89 SHL PUSH1 0x64 DUP3 ADD MSTORE PUSH1 0x84 ADD PUSH2 0x6D3 JUMP JUMPDEST PUSH1 0x0 PUSH2 0xAE8 PUSH2 0xF7C JUMP JUMPDEST SWAP1 POP PUSH1 0x0 DUP2 MLOAD GT PUSH2 0xB08 JUMPI PUSH1 0x40 MLOAD DUP1 PUSH1 0x20 ADD PUSH1 0x40 MSTORE DUP1 PUSH1 0x0 DUP2 MSTORE POP PUSH2 0xB36 JUMP JUMPDEST DUP1 PUSH2 0xB12 DUP5 PUSH2 0xF8B JUMP JUMPDEST PUSH1 0xB PUSH1 0x40 MLOAD PUSH1 0x20 ADD PUSH2 0xB26 SWAP4 SWAP3 SWAP2 SWAP1 PUSH2 0x169D JUMP JUMPDEST PUSH1 0x40 MLOAD PUSH1 0x20 DUP2 DUP4 SUB SUB DUP2 MSTORE SWAP1 PUSH1 0x40 MSTORE JUMPDEST SWAP4 SWAP3 POP POP POP JUMP JUMPDEST PUSH1 0x8 SLOAD PUSH1 0x1 PUSH1 0x1 PUSH1 0xA0 SHL SUB AND CALLER EQ PUSH2 0xB67 JUMPI PUSH1 0x40 MLOAD PUSH3 0x461BCD PUSH1 0xE5 SHL DUP2 MSTORE PUSH1 0x4 ADD PUSH2 0x6D3 SWAP1 PUSH2 0x1534 JUMP JUMPDEST PUSH1 0x1 PUSH1 0x1 PUSH1 0xA0 SHL SUB DUP2 AND PUSH2 0xBCC JUMPI PUSH1 0x40 MLOAD PUSH3 0x461BCD PUSH1 0xE5 SHL DUP2 MSTORE PUSH1 0x20 PUSH1 0x4 DUP3 ADD MSTORE PUSH1 0x26 PUSH1 0x24 DUP3 ADD MSTORE PUSH32 0x4F776E61626C653A206E6577206F776E657220697320746865207A65726F2061 PUSH1 0x44 DUP3 ADD MSTORE PUSH6 0x646472657373 PUSH1 0xD0 SHL PUSH1 0x64 DUP3 ADD MSTORE PUSH1 0x84 ADD PUSH2 0x6D3 JUMP JUMPDEST PUSH2 0x769 DUP2 PUSH2 0xE24 JUMP JUMPDEST PUSH1 0x0 PUSH4 0x1FFC9A7 PUSH1 0xE0 SHL PUSH1 0x1 PUSH1 0x1 PUSH1 0xE0 SHL SUB NOT DUP4 AND EQ DUP1 PUSH2 0xC06 JUMPI POP PUSH4 0x80AC58CD PUSH1 0xE0 SHL PUSH1 0x1 PUSH1 0x1 PUSH1 0xE0 SHL SUB NOT DUP4 AND EQ JUMPDEST DUP1 PUSH2 0x37D JUMPI POP POP PUSH1 0x1 PUSH1 0x1 PUSH1 0xE0 SHL SUB NOT AND PUSH4 0x5B5E139F PUSH1 0xE0 SHL EQ SWAP1 JUMP JUMPDEST PUSH1 0x0 DUP2 PUSH1 0x1 GT ISZERO DUP1 ISZERO PUSH2 0xC37 JUMPI POP PUSH1 0x0 SLOAD DUP3 LT JUMPDEST DUP1 ISZERO PUSH2 0x37D JUMPI POP POP PUSH1 0x0 SWAP1 DUP2 MSTORE PUSH1 0x4 PUSH1 0x20 MSTORE PUSH1 0x40 SWAP1 KECCAK256 SLOAD PUSH1 0x1 PUSH1 0xE0 SHL AND ISZERO SWAP1 JUMP JUMPDEST PUSH1 0x0 DUP2 DUP1 PUSH1 0x1 GT PUSH2 0xCAE JUMPI PUSH1 0x0 SLOAD DUP2 LT ISZERO PUSH2 0xCAE JUMPI PUSH1 0x0 DUP2 DUP2 MSTORE PUSH1 0x4 PUSH1 0x20 MSTORE PUSH1 0x40 DUP2 KECCAK256 SLOAD SWAP1 PUSH1 0x1 PUSH1 0xE0 SHL DUP3 AND SWAP1 SUB PUSH2 0xCAC JUMPI JUMPDEST DUP1 PUSH1 0x0 SUB PUSH2 0xB36 JUMPI POP PUSH1 0x0 NOT ADD PUSH1 0x0 DUP2 DUP2 MSTORE PUSH1 0x4 PUSH1 0x20 MSTORE PUSH1 0x40 SWAP1 KECCAK256 SLOAD PUSH2 0xC8B JUMP JUMPDEST POP JUMPDEST PUSH1 0x40 MLOAD PUSH4 0x6F96CDA1 PUSH1 0xE1 SHL DUP2 MSTORE PUSH1 0x4 ADD PUSH1 0x40 MLOAD DUP1 SWAP2 SUB SWAP1 REVERT JUMPDEST PUSH2 0x909 JUMP JUMPDEST PUSH1 0x0 PUSH2 0xCD7 DUP4 PUSH2 0xC58 JUMP JUMPDEST SWAP1 POP DUP1 PUSH1 0x0 DUP1 PUSH2 0xCF5 DUP7 PUSH1 0x0 SWAP1 DUP2 MSTORE PUSH1 0x6 PUSH1 0x20 MSTORE PUSH1 0x40 SWAP1 KECCAK256 DUP1 SLOAD SWAP1 SWAP2 JUMP JUMPDEST SWAP2 POP SWAP2 POP DUP5 ISZERO PUSH2 0xD35 JUMPI PUSH2 0xD0A DUP2 DUP5 CALLER PUSH2 0x54E JUMP JUMPDEST PUSH2 0xD35 JUMPI PUSH2 0xD18 DUP4 CALLER PUSH2 0x331 JUMP JUMPDEST PUSH2 0xD35 JUMPI PUSH1 0x40 MLOAD PUSH4 0x2CE44B5F PUSH1 0xE1 SHL DUP2 MSTORE PUSH1 0x4 ADD PUSH1 0x40 MLOAD DUP1 SWAP2 SUB SWAP1 REVERT JUMPDEST PUSH2 0xD43 DUP4 PUSH1 0x0 DUP9 PUSH1 0x1 PUSH2 0xCC7 JUMP JUMPDEST DUP1 ISZERO PUSH2 0xD4E JUMPI PUSH1 0x0 DUP3 SSTORE JUMPDEST PUSH1 0x1 PUSH1 0x1 PUSH1 0xA0 SHL SUB DUP4 AND PUSH1 0x0 DUP2 DUP2 MSTORE PUSH1 0x5 PUSH1 0x20 MSTORE PUSH1 0x40 SWAP1 KECCAK256 DUP1 SLOAD PUSH16 0xFFFFFFFFFFFFFFFFFFFFFFFFFFFFFFFF ADD SWAP1 SSTORE TIMESTAMP PUSH1 0xA0 SHL OR PUSH1 0x3 PUSH1 0xE0 SHL OR PUSH1 0x0 DUP8 DUP2 MSTORE PUSH1 0x4 PUSH1 0x20 MSTORE PUSH1 0x40 DUP2 KECCAK256 SWAP2 SWAP1 SWAP2 SSTORE PUSH1 0x1 PUSH1 0xE1 SHL DUP6 AND SWAP1 SUB PUSH2 0xDDC JUMPI PUSH1 0x1 DUP7 ADD PUSH1 0x0 DUP2 DUP2 MSTORE PUSH1 0x4 PUSH1 0x20 MSTORE PUSH1 0x40 DUP2 KECCAK256 SLOAD SWAP1 SUB PUSH2 0xDDA JUMPI PUSH1 0x0 SLOAD DUP2 EQ PUSH2 0xDDA JUMPI PUSH1 0x0 DUP2 DUP2 MSTORE PUSH1 0x4 PUSH1 0x20 MSTORE PUSH1 0x40 SWAP1 KECCAK256 DUP6 SWAP1 SSTORE JUMPDEST POP JUMPDEST PUSH1 0x40 MLOAD DUP7 SWAP1 PUSH1 0x0 SWAP1 PUSH1 0x1 PUSH1 0x1 PUSH1 0xA0 SHL SUB DUP7 AND SWAP1 PUSH32 0xDDF252AD1BE2C89B69C2B068FC378DAA952BA7F163C4A11628F55A4DF523B3EF SWAP1 DUP4 SWAP1 LOG4 POP POP PUSH1 0x1 DUP1 SLOAD DUP2 ADD SWAP1 SSTORE POP POP POP POP JUMP JUMPDEST PUSH1 0x8 DUP1 SLOAD PUSH1 0x1 PUSH1 0x1 PUSH1 0xA0 SHL SUB DUP4 DUP2 AND PUSH1 0x1 PUSH1 0x1 PUSH1 0xA0 SHL SUB NOT DUP4 AND DUP2 OR SWAP1 SWAP4 SSTORE PUSH1 0x40 MLOAD SWAP2 AND SWAP2 SWAP1 DUP3 SWAP1 PUSH32 0x8BE0079C531659141344CD1FD0A4F28419497F9722A3DAAFE3B4186F6B6457E0 SWAP1 PUSH1 0x0 SWAP1 LOG3 POP POP JUMP JUMPDEST PUSH2 0x7A2 DUP3 DUP3 PUSH1 0x40 MLOAD DUP1 PUSH1 0x20 ADD PUSH1 0x40 MSTORE DUP1 PUSH1 0x0 DUP2 MSTORE POP PUSH2 0x108C JUMP JUMPDEST PUSH1 0x40 MLOAD PUSH4 0xA85BD01 PUSH1 0xE1 SHL DUP2 MSTORE PUSH1 0x0 SWAP1 PUSH1 0x1 PUSH1 0x1 PUSH1 0xA0 SHL SUB DUP6 AND SWAP1 PUSH4 0x150B7A02 SWAP1 PUSH2 0xEC5 SWAP1 CALLER SWAP1 DUP10 SWAP1 DUP9 SWAP1 DUP9 SWAP1 PUSH1 0x4 ADD PUSH2 0x173D JUMP JUMPDEST PUSH1 0x20 PUSH1 0x40 MLOAD DUP1 DUP4 SUB DUP2 PUSH1 0x0 DUP8 GAS CALL SWAP3 POP POP POP DUP1 ISZERO PUSH2 0xF00 JUMPI POP PUSH1 0x40 DUP1 MLOAD PUSH1 0x1F RETURNDATASIZE SWAP1 DUP2 ADD PUSH1 0x1F NOT AND DUP3 ADD SWAP1 SWAP3 MSTORE PUSH2 0xEFD SWAP2 DUP2 ADD SWAP1 PUSH2 0x177A JUMP JUMPDEST PUSH1 0x1 JUMPDEST PUSH2 0xF5E JUMPI RETURNDATASIZE DUP1 DUP1 ISZERO PUSH2 0xF2E JUMPI PUSH1 0x40 MLOAD SWAP2 POP PUSH1 0x1F NOT PUSH1 0x3F RETURNDATASIZE ADD AND DUP3 ADD PUSH1 0x40 MSTORE RETURNDATASIZE DUP3 MSTORE RETURNDATASIZE PUSH1 0x0 PUSH1 0x20 DUP5 ADD RETURNDATACOPY PUSH2 0xF33 JUMP JUMPDEST PUSH1 0x60 SWAP2 POP JUMPDEST POP DUP1 MLOAD PUSH1 0x0 SUB PUSH2 0xF56 JUMPI PUSH1 0x40 MLOAD PUSH4 0x68D2BF6B PUSH1 0xE1 SHL DUP2 MSTORE PUSH1 0x4 ADD PUSH1 0x40 MLOAD DUP1 SWAP2 SUB SWAP1 REVERT JUMPDEST DUP1 MLOAD DUP2 PUSH1 0x20 ADD REVERT JUMPDEST PUSH1 0x1 PUSH1 0x1 PUSH1 0xE0 SHL SUB NOT AND PUSH4 0xA85BD01 PUSH1 0xE1 SHL EQ SWAP1 POP JUMPDEST SWAP5 SWAP4 POP POP POP POP JUMP JUMPDEST PUSH1 0x60 PUSH1 0xA DUP1 SLOAD PUSH2 0x392 SWAP1 PUSH2 0x14FA JUMP JUMPDEST PUSH1 0x60 DUP2 PUSH1 0x0 SUB PUSH2 0xFB2 JUMPI POP POP PUSH1 0x40 DUP1 MLOAD DUP1 DUP3 ADD SWAP1 SWAP2 MSTORE PUSH1 0x1 DUP2 MSTORE PUSH1 0x3 PUSH1 0xFC SHL PUSH1 0x20 DUP3 ADD MSTORE SWAP1 JUMP JUMPDEST DUP2 PUSH1 0x0 JUMPDEST DUP2 ISZERO PUSH2 0xFDC JUMPI DUP1 PUSH2 0xFC6 DUP2 PUSH2 0x1797 JUMP JUMPDEST SWAP2 POP PUSH2 0xFD5 SWAP1 POP PUSH1 0xA DUP4 PUSH2 0x17C6 JUMP JUMPDEST SWAP2 POP PUSH2 0xFB6 JUMP JUMPDEST PUSH1 0x0 DUP2 PUSH8 0xFFFFFFFFFFFFFFFF DUP2 GT ISZERO PUSH2 0xFF7 JUMPI PUSH2 0xFF7 PUSH2 0x135B JUMP JUMPDEST PUSH1 0x40 MLOAD SWAP1 DUP1 DUP3 MSTORE DUP1 PUSH1 0x1F ADD PUSH1 0x1F NOT AND PUSH1 0x20 ADD DUP3 ADD PUSH1 0x40 MSTORE DUP1 ISZERO PUSH2 0x1021 JUMPI PUSH1 0x20 DUP3 ADD DUP2 DUP1 CALLDATASIZE DUP4 CALLDATACOPY ADD SWAP1 POP JUMPDEST POP SWAP1 POP JUMPDEST DUP5 ISZERO PUSH2 0xF74 JUMPI PUSH2 0x1036 PUSH1 0x1 DUP4 PUSH2 0x17DA JUMP JUMPDEST SWAP2 POP PUSH2 0x1043 PUSH1 0xA DUP7 PUSH2 0x17F1 JUMP JUMPDEST PUSH2 0x104E SWAP1 PUSH1 0x30 PUSH2 0x1685 JUMP JUMPDEST PUSH1 0xF8 SHL DUP2 DUP4 DUP2 MLOAD DUP2 LT PUSH2 0x1063 JUMPI PUSH2 0x1063 PUSH2 0x1805 JUMP JUMPDEST PUSH1 0x20 ADD ADD SWAP1 PUSH1 0x1 PUSH1 0x1 PUSH1 0xF8 SHL SUB NOT AND SWAP1 DUP2 PUSH1 0x0 BYTE SWAP1 MSTORE8 POP PUSH2 0x1085 PUSH1 0xA DUP7 PUSH2 0x17C6 JUMP JUMPDEST SWAP5 POP PUSH2 0x1025 JUMP JUMPDEST PUSH2 0x1096 DUP4 DUP4 PUSH2 0x10F9 JUMP JUMPDEST PUSH1 0x1 PUSH1 0x1 PUSH1 0xA0 SHL SUB DUP4 AND EXTCODESIZE ISZERO PUSH2 0x759 JUMPI PUSH1 0x0 SLOAD DUP3 DUP2 SUB JUMPDEST PUSH2 0x10C0 PUSH1 0x0 DUP7 DUP4 DUP1 PUSH1 0x1 ADD SWAP5 POP DUP7 PUSH2 0xE90 JUMP JUMPDEST PUSH2 0x10DD JUMPI PUSH1 0x40 MLOAD PUSH4 0x68D2BF6B PUSH1 0xE1 SHL DUP2 MSTORE PUSH1 0x4 ADD PUSH1 0x40 MLOAD DUP1 SWAP2 SUB SWAP1 REVERT JUMPDEST DUP2 DUP2 LT PUSH2 0x10AD JUMPI DUP2 PUSH1 0x0 SLOAD EQ PUSH2 0x10F2 JUMPI PUSH1 0x0 DUP1 REVERT JUMPDEST POP POP POP POP POP JUMP JUMPDEST PUSH1 0x0 SLOAD PUSH1 0x1 PUSH1 0x1 PUSH1 0xA0 SHL SUB DUP4 AND PUSH2 0x1122 JUMPI PUSH1 0x40 MLOAD PUSH3 0x2E0763 PUSH1 0xE8 SHL DUP2 MSTORE PUSH1 0x4 ADD PUSH1 0x40 MLOAD DUP1 SWAP2 SUB SWAP1 REVERT JUMPDEST DUP2 PUSH1 0x0 SUB PUSH2 0x1143 JUMPI PUSH1 0x40 MLOAD PUSH4 0xB562E8DD PUSH1 0xE0 SHL DUP2 MSTORE PUSH1 0x4 ADD PUSH1 0x40 MLOAD DUP1 SWAP2 SUB SWAP1 REVERT JUMPDEST PUSH2 0x1150 PUSH1 0x0 DUP5 DUP4 DUP6 PUSH2 0xCC7 JUMP JUMPDEST PUSH1 0x1 PUSH1 0x1 PUSH1 0xA0 SHL SUB DUP4 AND PUSH1 0x0 DUP2 DUP2 MSTORE PUSH1 0x5 PUSH1 0x20 MSTORE PUSH1 0x40 SWAP1 KECCAK256 DUP1 SLOAD PUSH9 0x10000000000000001 DUP6 MUL ADD SWAP1 SSTORE TIMESTAMP PUSH1 0xA0 SHL PUSH1 0x1 DUP5 EQ PUSH1 0xE1 SHL OR OR PUSH1 0x0 DUP3 DUP2 MSTORE PUSH1 0x4 PUSH1 0x20 MSTORE PUSH1 0x40 SWAP1 KECCAK256 SSTORE DUP1 DUP3 DUP2 ADD JUMPDEST PUSH1 0x40 MLOAD PUSH1 0x1 DUP4 ADD SWAP3 SWAP1 PUSH1 0x1 PUSH1 0x1 PUSH1 0xA0 SHL SUB DUP8 AND SWAP1 PUSH1 0x0 SWAP1 PUSH32 0xDDF252AD1BE2C89B69C2B068FC378DAA952BA7F163C4A11628F55A4DF523B3EF SWAP1 DUP3 SWAP1 LOG4 DUP1 DUP3 LT PUSH2 0x119A JUMPI PUSH1 0x0 SSTORE POP POP POP POP JUMP JUMPDEST PUSH1 0x1 PUSH1 0x1 PUSH1 0xE0 SHL SUB NOT DUP2 AND DUP2 EQ PUSH2 0x769 JUMPI PUSH1 0x0 DUP1 REVERT JUMPDEST PUSH1 0x0 PUSH1 0x20 DUP3 DUP5 SUB SLT ISZERO PUSH2 0x120E JUMPI PUSH1 0x0 DUP1 REVERT JUMPDEST DUP2 CALLDATALOAD PUSH2 0xB36 DUP2 PUSH2 0x11E6 JUMP JUMPDEST PUSH1 0x0 JUMPDEST DUP4 DUP2 LT ISZERO PUSH2 0x1234 JUMPI DUP2 DUP2 ADD MLOAD DUP4 DUP3 ADD MSTORE PUSH1 0x20 ADD PUSH2 0x121C JUMP JUMPDEST DUP4 DUP2 GT ISZERO PUSH2 0x909 JUMPI POP POP PUSH1 0x0 SWAP2 ADD MSTORE JUMP JUMPDEST PUSH1 0x0 DUP2 MLOAD DUP1 DUP5 MSTORE PUSH2 0x125D DUP2 PUSH1 0x20 DUP7 ADD PUSH1 0x20 DUP7 ADD PUSH2 0x1219 JUMP JUMPDEST PUSH1 0x1F ADD PUSH1 0x1F NOT AND SWAP3 SWAP1 SWAP3 ADD PUSH1 0x20 ADD SWAP3 SWAP2 POP POP JUMP JUMPDEST PUSH1 0x20 DUP2 MSTORE PUSH1 0x0 PUSH2 0xB36 PUSH1 0x20 DUP4 ADD DUP5 PUSH2 0x1245 JUMP JUMPDEST PUSH1 0x0 PUSH1 0x20 DUP3 DUP5 SUB SLT ISZERO PUSH2 0x1296 JUMPI PUSH1 0x0 DUP1 REVERT JUMPDEST POP CALLDATALOAD SWAP2 SWAP1 POP JUMP JUMPDEST DUP1 CALLDATALOAD PUSH1 0x1 PUSH1 0x1 PUSH1 0xA0 SHL SUB DUP2 AND DUP2 EQ PUSH2 0x12B4 JUMPI PUSH1 0x0 DUP1 REVERT JUMPDEST SWAP2 SWAP1 POP JUMP JUMPDEST PUSH1 0x0 DUP1 PUSH1 0x40 DUP4 DUP6 SUB SLT ISZERO PUSH2 0x12CC JUMPI PUSH1 0x0 DUP1 REVERT JUMPDEST PUSH2 0x12D5 DUP4 PUSH2 0x129D JUMP JUMPDEST SWAP5 PUSH1 0x20 SWAP4 SWAP1 SWAP4 ADD CALLDATALOAD SWAP4 POP POP POP JUMP JUMPDEST PUSH1 0x0 DUP1 PUSH1 0x0 PUSH1 0x60 DUP5 DUP7 SUB SLT ISZERO PUSH2 0x12F8 JUMPI PUSH1 0x0 DUP1 REVERT JUMPDEST PUSH2 0x1301 DUP5 PUSH2 0x129D JUMP JUMPDEST SWAP3 POP PUSH2 0x130F PUSH1 0x20 DUP6 ADD PUSH2 0x129D JUMP JUMPDEST SWAP2 POP PUSH1 0x40 DUP5 ADD CALLDATALOAD SWAP1 POP SWAP3 POP SWAP3 POP SWAP3 JUMP JUMPDEST PUSH1 0x0 DUP1 PUSH1 0x40 DUP4 DUP6 SUB SLT ISZERO PUSH2 0x1332 JUMPI PUSH1 0x0 DUP1 REVERT JUMPDEST PUSH2 0x133B DUP4 PUSH2 0x129D JUMP JUMPDEST SWAP2 POP PUSH1 0x20 DUP4 ADD CALLDATALOAD DUP1 ISZERO ISZERO DUP2 EQ PUSH2 0x1350 JUMPI PUSH1 0x0 DUP1 REVERT JUMPDEST DUP1 SWAP2 POP POP SWAP3 POP SWAP3 SWAP1 POP JUMP JUMPDEST PUSH4 0x4E487B71 PUSH1 0xE0 SHL PUSH1 0x0 MSTORE PUSH1 0x41 PUSH1 0x4 MSTORE PUSH1 0x24 PUSH1 0x0 REVERT JUMPDEST PUSH1 0x0 PUSH8 0xFFFFFFFFFFFFFFFF DUP1 DUP5 GT ISZERO PUSH2 0x138C JUMPI PUSH2 0x138C PUSH2 0x135B JUMP JUMPDEST PUSH1 0x40 MLOAD PUSH1 0x1F DUP6 ADD PUSH1 0x1F NOT SWAP1 DUP2 AND PUSH1 0x3F ADD AND DUP2 ADD SWAP1 DUP3 DUP3 GT DUP2 DUP4 LT OR ISZERO PUSH2 0x13B4 JUMPI PUSH2 0x13B4 PUSH2 0x135B JUMP JUMPDEST DUP2 PUSH1 0x40 MSTORE DUP1 SWAP4 POP DUP6 DUP2 MSTORE DUP7 DUP7 DUP7 ADD GT ISZERO PUSH2 0x13CD JUMPI PUSH1 0x0 DUP1 REVERT JUMPDEST DUP6 DUP6 PUSH1 0x20 DUP4 ADD CALLDATACOPY PUSH1 0x0 PUSH1 0x20 DUP8 DUP4 ADD ADD MSTORE POP POP POP SWAP4 SWAP3 POP POP POP JUMP JUMPDEST PUSH1 0x0 PUSH1 0x20 DUP3 DUP5 SUB SLT ISZERO PUSH2 0x13F9 JUMPI PUSH1 0x0 DUP1 REVERT JUMPDEST DUP2 CALLDATALOAD PUSH8 0xFFFFFFFFFFFFFFFF DUP2 GT ISZERO PUSH2 0x1410 JUMPI PUSH1 0x0 DUP1 REVERT JUMPDEST DUP3 ADD PUSH1 0x1F DUP2 ADD DUP5 SGT PUSH2 0x1421 JUMPI PUSH1 0x0 DUP1 REVERT JUMPDEST PUSH2 0xF74 DUP5 DUP3 CALLDATALOAD PUSH1 0x20 DUP5 ADD PUSH2 0x1371 JUMP JUMPDEST PUSH1 0x0 PUSH1 0x20 DUP3 DUP5 SUB SLT ISZERO PUSH2 0x1442 JUMPI PUSH1 0x0 DUP1 REVERT JUMPDEST PUSH2 0xB36 DUP3 PUSH2 0x129D JUMP JUMPDEST PUSH1 0x0 DUP1 PUSH1 0x0 DUP1 PUSH1 0x80 DUP6 DUP8 SUB SLT ISZERO PUSH2 0x1461 JUMPI PUSH1 0x0 DUP1 REVERT JUMPDEST PUSH2 0x146A DUP6 PUSH2 0x129D JUMP JUMPDEST SWAP4 POP PUSH2 0x1478 PUSH1 0x20 DUP7 ADD PUSH2 0x129D JUMP JUMPDEST SWAP3 POP PUSH1 0x40 DUP6 ADD CALLDATALOAD SWAP2 POP PUSH1 0x60 DUP6 ADD CALLDATALOAD PUSH8 0xFFFFFFFFFFFFFFFF DUP2 GT ISZERO PUSH2 0x149B JUMPI PUSH1 0x0 DUP1 REVERT JUMPDEST DUP6 ADD PUSH1 0x1F DUP2 ADD DUP8 SGT PUSH2 0x14AC JUMPI PUSH1 0x0 DUP1 REVERT JUMPDEST PUSH2 0x14BB DUP8 DUP3 CALLDATALOAD PUSH1 0x20 DUP5 ADD PUSH2 0x1371 JUMP JUMPDEST SWAP2 POP POP SWAP3 SWAP6 SWAP2 SWAP5 POP SWAP3 POP JUMP JUMPDEST PUSH1 0x0 DUP1 PUSH1 0x40 DUP4 DUP6 SUB SLT ISZERO PUSH2 0x14DA JUMPI PUSH1 0x0 DUP1 REVERT JUMPDEST PUSH2 0x14E3 DUP4 PUSH2 0x129D JUMP JUMPDEST SWAP2 POP PUSH2 0x14F1 PUSH1 0x20 DUP5 ADD PUSH2 0x129D JUMP JUMPDEST SWAP1 POP SWAP3 POP SWAP3 SWAP1 POP JUMP JUMPDEST PUSH1 0x1 DUP2 DUP2 SHR SWAP1 DUP3 AND DUP1 PUSH2 0x150E JUMPI PUSH1 0x7F DUP3 AND SWAP2 POP JUMPDEST PUSH1 0x20 DUP3 LT DUP2 SUB PUSH2 0x152E JUMPI PUSH4 0x4E487B71 PUSH1 0xE0 SHL PUSH1 0x0 MSTORE PUSH1 0x22 PUSH1 0x4 MSTORE PUSH1 0x24 PUSH1 0x0 REVERT JUMPDEST POP SWAP2 SWAP1 POP JUMP JUMPDEST PUSH1 0x20 DUP1 DUP3 MSTORE DUP2 DUP2 ADD MSTORE PUSH32 0x4F776E61626C653A2063616C6C6572206973206E6F7420746865206F776E6572 PUSH1 0x40 DUP3 ADD MSTORE PUSH1 0x60 ADD SWAP1 JUMP JUMPDEST PUSH1 0x1F DUP3 GT ISZERO PUSH2 0x759 JUMPI PUSH1 0x0 DUP2 DUP2 MSTORE PUSH1 0x20 DUP2 KECCAK256 PUSH1 0x1F DUP6 ADD PUSH1 0x5 SHR DUP2 ADD PUSH1 0x20 DUP7 LT ISZERO PUSH2 0x1590 JUMPI POP DUP1 JUMPDEST PUSH1 0x1F DUP6 ADD PUSH1 0x5 SHR DUP3 ADD SWAP2 POP JUMPDEST DUP2 DUP2 LT ISZERO PUSH2 0x6A1 JUMPI DUP3 DUP2 SSTORE PUSH1 0x1 ADD PUSH2 0x159C JUMP JUMPDEST DUP2 MLOAD PUSH8 0xFFFFFFFFFFFFFFFF DUP2 GT ISZERO PUSH2 0x15C9 JUMPI PUSH2 0x15C9 PUSH2 0x135B JUMP JUMPDEST PUSH2 0x15DD DUP2 PUSH2 0x15D7 DUP5 SLOAD PUSH2 0x14FA JUMP JUMPDEST DUP5 PUSH2 0x1569 JUMP JUMPDEST PUSH1 0x20 DUP1 PUSH1 0x1F DUP4 GT PUSH1 0x1 DUP2 EQ PUSH2 0x1612 JUMPI PUSH1 0x0 DUP5 ISZERO PUSH2 0x15FA JUMPI POP DUP6 DUP4 ADD MLOAD JUMPDEST PUSH1 0x0 NOT PUSH1 0x3 DUP7 SWAP1 SHL SHR NOT AND PUSH1 0x1 DUP6 SWAP1 SHL OR DUP6 SSTORE PUSH2 0x6A1 JUMP JUMPDEST PUSH1 0x0 DUP6 DUP2 MSTORE PUSH1 0x20 DUP2 KECCAK256 PUSH1 0x1F NOT DUP7 AND SWAP2 JUMPDEST DUP3 DUP2 LT ISZERO PUSH2 0x1641 JUMPI DUP9 DUP7 ADD MLOAD DUP3 SSTORE SWAP5 DUP5 ADD SWAP5 PUSH1 0x1 SWAP1 SWAP2 ADD SWAP1 DUP5 ADD PUSH2 0x1622 JUMP JUMPDEST POP DUP6 DUP3 LT ISZERO PUSH2 0x165F JUMPI DUP8 DUP6 ADD MLOAD PUSH1 0x0 NOT PUSH1 0x3 DUP9 SWAP1 SHL PUSH1 0xF8 AND SHR NOT AND DUP2 SSTORE JUMPDEST POP POP POP POP POP PUSH1 0x1 SWAP1 DUP2 SHL ADD SWAP1 SSTORE POP JUMP JUMPDEST PUSH4 0x4E487B71 PUSH1 0xE0 SHL PUSH1 0x0 MSTORE PUSH1 0x11 PUSH1 0x4 MSTORE PUSH1 0x24 PUSH1 0x0 REVERT JUMPDEST PUSH1 0x0 DUP3 NOT DUP3 GT ISZERO PUSH2 0x1698 JUMPI PUSH2 0x1698 PUSH2 0x166F JUMP JUMPDEST POP ADD SWAP1 JUMP JUMPDEST PUSH1 0x0 DUP5 MLOAD PUSH1 0x20 PUSH2 0x16B0 DUP3 DUP6 DUP4 DUP11 ADD PUSH2 0x1219 JUMP JUMPDEST DUP6 MLOAD SWAP2 DUP5 ADD SWAP2 PUSH2 0x16C3 DUP2 DUP5 DUP5 DUP11 ADD PUSH2 0x1219 JUMP JUMPDEST DUP6 SLOAD SWAP3 ADD SWAP2 PUSH1 0x0 SWAP1 PUSH2 0x16D4 DUP2 PUSH2 0x14FA JUMP JUMPDEST PUSH1 0x1 DUP3 DUP2 AND DUP1 ISZERO PUSH2 0x16EC JUMPI PUSH1 0x1 DUP2 EQ PUSH2 0x1701 JUMPI PUSH2 0x172D JUMP JUMPDEST PUSH1 0xFF NOT DUP5 AND DUP8 MSTORE DUP3 ISZERO ISZERO DUP4 MUL DUP8 ADD SWAP5 POP PUSH2 0x172D JUMP JUMPDEST DUP10 PUSH1 0x0 MSTORE DUP6 PUSH1 0x0 KECCAK256 PUSH1 0x0 JUMPDEST DUP5 DUP2 LT ISZERO PUSH2 0x1725 JUMPI DUP2 SLOAD DUP10 DUP3 ADD MSTORE SWAP1 DUP4 ADD SWAP1 DUP8 ADD PUSH2 0x170C JUMP JUMPDEST POP POP DUP3 DUP8 ADD SWAP5 POP JUMPDEST POP SWAP3 SWAP11 SWAP10 POP POP POP POP POP POP POP POP POP POP JUMP JUMPDEST PUSH1 0x1 PUSH1 0x1 PUSH1 0xA0 SHL SUB DUP6 DUP2 AND DUP3 MSTORE DUP5 AND PUSH1 0x20 DUP3 ADD MSTORE PUSH1 0x40 DUP2 ADD DUP4 SWAP1 MSTORE PUSH1 0x80 PUSH1 0x60 DUP3 ADD DUP2 SWAP1 MSTORE PUSH1 0x0 SWAP1 PUSH2 0x1770 SWAP1 DUP4 ADD DUP5 PUSH2 0x1245 JUMP JUMPDEST SWAP7 SWAP6 POP POP POP POP POP POP JUMP JUMPDEST PUSH1 0x0 PUSH1 0x20 DUP3 DUP5 SUB SLT ISZERO PUSH2 0x178C JUMPI PUSH1 0x0 DUP1 REVERT JUMPDEST DUP2 MLOAD PUSH2 0xB36 DUP2 PUSH2 0x11E6 JUMP JUMPDEST PUSH1 0x0 PUSH1 0x1 DUP3 ADD PUSH2 0x17A9 JUMPI PUSH2 0x17A9 PUSH2 0x166F JUMP JUMPDEST POP PUSH1 0x1 ADD SWAP1 JUMP JUMPDEST PUSH4 0x4E487B71 PUSH1 0xE0 SHL PUSH1 0x0 MSTORE PUSH1 0x12 PUSH1 0x4 MSTORE PUSH1 0x24 PUSH1 0x0 REVERT JUMPDEST PUSH1 0x0 DUP3 PUSH2 0x17D5 JUMPI PUSH2 0x17D5 PUSH2 0x17B0 JUMP JUMPDEST POP DIV SWAP1 JUMP JUMPDEST PUSH1 0x0 DUP3 DUP3 LT ISZERO PUSH2 0x17EC JUMPI PUSH2 0x17EC PUSH2 0x166F JUMP JUMPDEST POP SUB SWAP1 JUMP JUMPDEST PUSH1 0x0 DUP3 PUSH2 0x1800 JUMPI PUSH2 0x1800 PUSH2 0x17B0 JUMP JUMPDEST POP MOD SWAP1 JUMP JUMPDEST PUSH4 0x4E487B71 PUSH1 0xE0 SHL PUSH1 0x0 MSTORE PUSH1 0x32 PUSH1 0x4 MSTORE PUSH1 0x24 PUSH1 0x0 REVERT INVALID LOG2 PUSH5 0x6970667358 0x22 SLT KECCAK256 OR 0xB2 0x4C 0xD5 PUSH29 0xC0D80B8A4D1238E766085B31502AED053164D5211B96E172F6E6AE6473 PUSH16 0x6C634300080F00334F776E61626C653A KECCAK256 PUSH4 0x616C6C65 PUSH19 0x206973206E6F7420746865206F776E65720000 "
				},
				"gasEstimates": {
					"creation": {
						"codeDepositCost": "1245000",
						"executionCost": "infinite",
						"totalCost": "infinite"
					},
					"external": {
						"approve(address,uint256)": "infinite",
						"balanceOf(address)": "2728",
						"baseExtension()": "infinite",
						"burn(uint256)": "infinite",
						"getApproved(uint256)": "6959",
						"isApprovedForAll(address,address)": "infinite",
						"isMinter(address)": "2671",
						"maxSupply()": "283",
						"name()": "infinite",
						"owner()": "2376",
						"ownerOf(uint256)": "infinite",
						"renounceOwnership()": "28140",
						"safeMint(address,uint256)": "infinite",
						"safeTransferFrom(address,address,uint256)": "infinite",
						"safeTransferFrom(address,address,uint256,bytes)": "infinite",
						"setAllowMinter(address,bool)": "28677",
						"setApprovalForAll(address,bool)": "26748",
						"setBaseURI(string)": "infinite",
						"supportsInterface(bytes4)": "565",
						"symbol()": "infinite",
						"tokenURI(uint256)": "infinite",
						"totalSupply()": "4508",
						"transferFrom(address,address,uint256)": "infinite",
						"transferOwnership(address)": "28444"
					},
					"internal": {
						"_baseURI()": "infinite",
						"_beforeTokenTransfers(address,address,uint256,uint256)": "29",
						"_startTokenId()": "infinite"
					}
				},
				"methodIdentifiers": {
					"approve(address,uint256)": "095ea7b3",
					"balanceOf(address)": "70a08231",
					"baseExtension()": "c6682862",
					"burn(uint256)": "42966c68",
					"getApproved(uint256)": "081812fc",
					"isApprovedForAll(address,address)": "e985e9c5",
					"isMinter(address)": "aa271e1a",
					"maxSupply()": "d5abeb01",
					"name()": "06fdde03",
					"owner()": "8da5cb5b",
					"ownerOf(uint256)": "6352211e",
					"renounceOwnership()": "715018a6",
					"safeMint(address,uint256)": "a1448194",
					"safeTransferFrom(address,address,uint256)": "42842e0e",
					"safeTransferFrom(address,address,uint256,bytes)": "b88d4fde",
					"setAllowMinter(address,bool)": "3c713026",
					"setApprovalForAll(address,bool)": "a22cb465",
					"setBaseURI(string)": "55f804b3",
					"supportsInterface(bytes4)": "01ffc9a7",
					"symbol()": "95d89b41",
					"tokenURI(uint256)": "c87b56dd",
					"totalSupply()": "18160ddd",
					"transferFrom(address,address,uint256)": "23b872dd",
					"transferOwnership(address)": "f2fde38b"
				}
			},
			"storageLayout": {
				"storage": [
					{
						"astId": 669,
						"contract": "ERC721A/NagaKidsERC721A.sol:NagaKids",
						"label": "_currentIndex",
						"offset": 0,
						"slot": "0",
						"type": "t_uint256"
					},
					{
						"astId": 671,
						"contract": "ERC721A/NagaKidsERC721A.sol:NagaKids",
						"label": "_burnCounter",
						"offset": 0,
						"slot": "1",
						"type": "t_uint256"
					},
					{
						"astId": 673,
						"contract": "ERC721A/NagaKidsERC721A.sol:NagaKids",
						"label": "_name",
						"offset": 0,
						"slot": "2",
						"type": "t_string_storage"
					},
					{
						"astId": 675,
						"contract": "ERC721A/NagaKidsERC721A.sol:NagaKids",
						"label": "_symbol",
						"offset": 0,
						"slot": "3",
						"type": "t_string_storage"
					},
					{
						"astId": 679,
						"contract": "ERC721A/NagaKidsERC721A.sol:NagaKids",
						"label": "_packedOwnerships",
						"offset": 0,
						"slot": "4",
						"type": "t_mapping(t_uint256,t_uint256)"
					},
					{
						"astId": 683,
						"contract": "ERC721A/NagaKidsERC721A.sol:NagaKids",
						"label": "_packedAddressData",
						"offset": 0,
						"slot": "5",
						"type": "t_mapping(t_address,t_uint256)"
					},
					{
						"astId": 687,
						"contract": "ERC721A/NagaKidsERC721A.sol:NagaKids",
						"label": "_tokenApprovals",
						"offset": 0,
						"slot": "6",
						"type": "t_mapping(t_uint256,t_address)"
					},
					{
						"astId": 693,
						"contract": "ERC721A/NagaKidsERC721A.sol:NagaKids",
						"label": "_operatorApprovals",
						"offset": 0,
						"slot": "7",
						"type": "t_mapping(t_address,t_mapping(t_address,t_bool))"
					},
					{
						"astId": 7,
						"contract": "ERC721A/NagaKidsERC721A.sol:NagaKids",
						"label": "_owner",
						"offset": 0,
						"slot": "8",
						"type": "t_address"
					},
					{
						"astId": 348,
						"contract": "ERC721A/NagaKidsERC721A.sol:NagaKids",
						"label": "_allowMinter",
						"offset": 0,
						"slot": "9",
						"type": "t_mapping(t_address,t_bool)"
					},
					{
						"astId": 350,
						"contract": "ERC721A/NagaKidsERC721A.sol:NagaKids",
						"label": "baseURI",
						"offset": 0,
						"slot": "10",
						"type": "t_string_storage"
					},
					{
						"astId": 353,
						"contract": "ERC721A/NagaKidsERC721A.sol:NagaKids",
						"label": "baseExtension",
						"offset": 0,
						"slot": "11",
						"type": "t_string_storage"
					}
				],
				"types": {
					"t_address": {
						"encoding": "inplace",
						"label": "address",
						"numberOfBytes": "20"
					},
					"t_bool": {
						"encoding": "inplace",
						"label": "bool",
						"numberOfBytes": "1"
					},
					"t_mapping(t_address,t_bool)": {
						"encoding": "mapping",
						"key": "t_address",
						"label": "mapping(address => bool)",
						"numberOfBytes": "32",
						"value": "t_bool"
					},
					"t_mapping(t_address,t_mapping(t_address,t_bool))": {
						"encoding": "mapping",
						"key": "t_address",
						"label": "mapping(address => mapping(address => bool))",
						"numberOfBytes": "32",
						"value": "t_mapping(t_address,t_bool)"
					},
					"t_mapping(t_address,t_uint256)": {
						"encoding": "mapping",
						"key": "t_address",
						"label": "mapping(address => uint256)",
						"numberOfBytes": "32",
						"value": "t_uint256"
					},
					"t_mapping(t_uint256,t_address)": {
						"encoding": "mapping",
						"key": "t_uint256",
						"label": "mapping(uint256 => address)",
						"numberOfBytes": "32",
						"value": "t_address"
					},
					"t_mapping(t_uint256,t_uint256)": {
						"encoding": "mapping",
						"key": "t_uint256",
						"label": "mapping(uint256 => uint256)",
						"numberOfBytes": "32",
						"value": "t_uint256"
					},
					"t_string_storage": {
						"encoding": "bytes",
						"label": "string",
						"numberOfBytes": "32"
					},
					"t_uint256": {
						"encoding": "inplace",
						"label": "uint256",
						"numberOfBytes": "32"
					}
				}
			},
			"userdoc": {
				"errors": {
					"ApprovalCallerNotOwnerNorApproved()": [
						{
							"notice": "The caller must own the token or be an approved operator."
						}
					],
					"ApprovalQueryForNonexistentToken()": [
						{
							"notice": "The token does not exist."
						}
					],
					"ApproveToCaller()": [
						{
							"notice": "The caller cannot approve to their own address."
						}
					],
					"BalanceQueryForZeroAddress()": [
						{
							"notice": "Cannot query the balance for the zero address."
						}
					],
					"MintERC2309QuantityExceedsLimit()": [
						{
							"notice": "The `quantity` minted with ERC2309 exceeds the safety limit."
						}
					],
					"MintToZeroAddress()": [
						{
							"notice": "Cannot mint to the zero address."
						}
					],
					"MintZeroQuantity()": [
						{
							"notice": "The quantity of tokens minted must be more than zero."
						}
					],
					"OwnerQueryForNonexistentToken()": [
						{
							"notice": "The token does not exist."
						}
					],
					"OwnershipNotInitializedForExtraData()": [
						{
							"notice": "The `extraData` cannot be set on an unintialized ownership slot."
						}
					],
					"TransferCallerNotOwnerNorApproved()": [
						{
							"notice": "The caller must own the token or be an approved operator."
						}
					],
					"TransferFromIncorrectOwner()": [
						{
							"notice": "The token must be owned by `from`."
						}
					],
					"TransferToNonERC721ReceiverImplementer()": [
						{
							"notice": "Cannot safely transfer to a contract that does not implement the ERC721Receiver interface."
						}
					],
					"TransferToZeroAddress()": [
						{
							"notice": "Cannot transfer to the zero address."
						}
					],
					"URIQueryForNonexistentToken()": [
						{
							"notice": "The token does not exist."
						}
					]
				},
				"kind": "user",
				"methods": {},
				"version": 1
			}
		}
	}
}