{
	"ERC721A/MintNagaKids.sol": {
		"MintNagaKids": {
			"abi": [
				{
					"inputs": [
						{
							"internalType": "contract INagaKid",
							"name": "_nagaKidContract",
							"type": "address"
						},
						{
							"internalType": "address",
							"name": "_signer",
							"type": "address"
						},
						{
							"internalType": "bytes32",
							"name": "_merkleRoot",
							"type": "bytes32"
						}
					],
					"stateMutability": "nonpayable",
					"type": "constructor"
				},
				{
					"anonymous": false,
					"inputs": [
						{
							"indexed": false,
							"internalType": "bytes32",
							"name": "merkleRootBefore",
							"type": "bytes32"
						},
						{
							"indexed": false,
							"internalType": "bytes32",
							"name": "merkleRootAfter",
							"type": "bytes32"
						}
					],
					"name": "MerkleRootChanged",
					"type": "event"
				},
				{
					"anonymous": false,
					"inputs": [
						{
							"indexed": false,
							"internalType": "address",
							"name": "nagaKidBefore",
							"type": "address"
						},
						{
							"indexed": false,
							"internalType": "address",
							"name": "nagaKidAfter",
							"type": "address"
						}
					],
					"name": "NagaKidContractChanged",
					"type": "event"
				},
				{
					"anonymous": false,
					"inputs": [
						{
							"indexed": true,
							"internalType": "address",
							"name": "previousOwner",
							"type": "address"
						},
						{
							"indexed": true,
							"internalType": "address",
							"name": "newOwner",
							"type": "address"
						}
					],
					"name": "OwnershipTransferred",
					"type": "event"
				},
				{
					"anonymous": false,
					"inputs": [
						{
							"indexed": true,
							"internalType": "address",
							"name": "user",
							"type": "address"
						},
						{
							"indexed": false,
							"internalType": "uint256",
							"name": "amount",
							"type": "uint256"
						},
						{
							"indexed": false,
							"internalType": "uint256",
							"name": "timestamp",
							"type": "uint256"
						}
					],
					"name": "PrivateMinted",
					"type": "event"
				},
				{
					"anonymous": false,
					"inputs": [
						{
							"indexed": true,
							"internalType": "address",
							"name": "user",
							"type": "address"
						},
						{
							"indexed": false,
							"internalType": "uint256",
							"name": "amount",
							"type": "uint256"
						},
						{
							"indexed": false,
							"internalType": "uint256",
							"name": "timestamp",
							"type": "uint256"
						}
					],
					"name": "PublicMinted",
					"type": "event"
				},
				{
					"anonymous": false,
					"inputs": [
						{
							"indexed": false,
							"internalType": "bytes32",
							"name": "roundBefore",
							"type": "bytes32"
						},
						{
							"indexed": false,
							"internalType": "bytes32",
							"name": "roundAfter",
							"type": "bytes32"
						}
					],
					"name": "RoundChanged",
					"type": "event"
				},
				{
					"anonymous": false,
					"inputs": [
						{
							"indexed": false,
							"internalType": "address",
							"name": "signerBefore",
							"type": "address"
						},
						{
							"indexed": false,
							"internalType": "address",
							"name": "signerAfter",
							"type": "address"
						}
					],
					"name": "SignerChanged",
					"type": "event"
				},
				{
					"anonymous": false,
					"inputs": [
						{
							"indexed": false,
							"internalType": "address",
							"name": "to",
							"type": "address"
						},
						{
							"indexed": false,
							"internalType": "uint256",
							"name": "balanceOFContract",
							"type": "uint256"
						},
						{
							"indexed": false,
							"internalType": "uint256",
							"name": "timestamp",
							"type": "uint256"
						}
					],
					"name": "Withdraw",
					"type": "event"
				},
				{
					"anonymous": false,
					"inputs": [
						{
							"indexed": false,
							"internalType": "address",
							"name": "to",
							"type": "address"
						},
						{
							"indexed": false,
							"internalType": "address",
							"name": "currency",
							"type": "address"
						},
						{
							"indexed": false,
							"internalType": "uint256",
							"name": "balanceOfContract",
							"type": "uint256"
						},
						{
							"indexed": false,
							"internalType": "uint256",
							"name": "timestamp",
							"type": "uint256"
						}
					],
					"name": "WithdrawCurrency",
					"type": "event"
				},
				{
					"anonymous": false,
					"inputs": [
						{
							"indexed": false,
							"internalType": "address",
							"name": "to",
							"type": "address"
						},
						{
							"indexed": false,
							"internalType": "address",
							"name": "NFT",
							"type": "address"
						},
						{
							"indexed": false,
							"internalType": "uint256",
							"name": "tokenId",
							"type": "uint256"
						},
						{
							"indexed": false,
							"internalType": "uint256",
							"name": "timestamp",
							"type": "uint256"
						}
					],
					"name": "WithdrawNFT",
					"type": "event"
				},
				{
					"inputs": [],
					"name": "DEFAULT",
					"outputs": [
						{
							"internalType": "bytes32",
							"name": "",
							"type": "bytes32"
						}
					],
					"stateMutability": "view",
					"type": "function"
				},
				{
					"inputs": [],
					"name": "NAGA_HOLDER_MINT_ROUND",
					"outputs": [
						{
							"internalType": "bytes32",
							"name": "",
							"type": "bytes32"
						}
					],
					"stateMutability": "view",
					"type": "function"
				},
				{
					"inputs": [],
					"name": "WHITELIST_MINT_ROUND",
					"outputs": [
						{
							"internalType": "bytes32",
							"name": "",
							"type": "bytes32"
						}
					],
					"stateMutability": "view",
					"type": "function"
				},
				{
					"inputs": [],
					"name": "WITHDRAW_ROLE",
					"outputs": [
						{
							"internalType": "bytes32",
							"name": "",
							"type": "bytes32"
						}
					],
					"stateMutability": "view",
					"type": "function"
				},
				{
					"inputs": [
						{
							"internalType": "bytes32[]",
							"name": "_proof",
							"type": "bytes32[]"
						},
						{
							"internalType": "uint256",
							"name": "_amount",
							"type": "uint256"
						},
						{
							"internalType": "bytes32",
							"name": "_round",
							"type": "bytes32"
						}
					],
					"name": "allowlistMint",
					"outputs": [],
					"stateMutability": "payable",
					"type": "function"
				},
				{
					"inputs": [],
					"name": "currentMintRound",
					"outputs": [
						{
							"internalType": "bytes32",
							"name": "",
							"type": "bytes32"
						}
					],
					"stateMutability": "view",
					"type": "function"
				},
				{
					"inputs": [
						{
							"internalType": "bytes32",
							"name": "_messageHash",
							"type": "bytes32"
						}
					],
					"name": "getEthSignedMessageHash",
					"outputs": [
						{
							"internalType": "bytes32",
							"name": "",
							"type": "bytes32"
						}
					],
					"stateMutability": "pure",
					"type": "function"
				},
				{
					"inputs": [],
					"name": "getMaxSupply",
					"outputs": [
						{
							"internalType": "uint256",
							"name": "",
							"type": "uint256"
						}
					],
					"stateMutability": "view",
					"type": "function"
				},
				{
					"inputs": [
						{
							"internalType": "address",
							"name": "_user",
							"type": "address"
						}
					],
					"name": "getMessageHash",
					"outputs": [
						{
							"internalType": "bytes32",
							"name": "",
							"type": "bytes32"
						}
					],
					"stateMutability": "view",
					"type": "function"
				},
				{
					"inputs": [],
					"name": "getTotalSupply",
					"outputs": [
						{
							"internalType": "uint256",
							"name": "",
							"type": "uint256"
						}
					],
					"stateMutability": "view",
					"type": "function"
				},
				{
					"inputs": [],
					"name": "isPrivateMintOpen",
					"outputs": [
						{
							"internalType": "bool",
							"name": "",
							"type": "bool"
						}
					],
					"stateMutability": "view",
					"type": "function"
				},
				{
					"inputs": [],
					"name": "isPublicMintOpen",
					"outputs": [
						{
							"internalType": "bool",
							"name": "",
							"type": "bool"
						}
					],
					"stateMutability": "view",
					"type": "function"
				},
				{
					"inputs": [
						{
							"internalType": "address",
							"name": "_addr",
							"type": "address"
						}
					],
					"name": "isPublicMinted",
					"outputs": [
						{
							"internalType": "bool",
							"name": "",
							"type": "bool"
						}
					],
					"stateMutability": "view",
					"type": "function"
				},
				{
					"inputs": [
						{
							"internalType": "address",
							"name": "_user",
							"type": "address"
						},
						{
							"internalType": "bytes32",
							"name": "_round",
							"type": "bytes32"
						}
					],
					"name": "isUserMinted",
					"outputs": [
						{
							"internalType": "bool",
							"name": "",
							"type": "bool"
						}
					],
					"stateMutability": "view",
					"type": "function"
				},
				{
					"inputs": [],
					"name": "merkleRoot",
					"outputs": [
						{
							"internalType": "bytes32",
							"name": "",
							"type": "bytes32"
						}
					],
					"stateMutability": "view",
					"type": "function"
				},
				{
					"inputs": [],
					"name": "nagaKidContract",
					"outputs": [
						{
							"internalType": "contract INagaKid",
							"name": "",
							"type": "address"
						}
					],
					"stateMutability": "view",
					"type": "function"
				},
				{
					"inputs": [],
					"name": "owner",
					"outputs": [
						{
							"internalType": "address",
							"name": "",
							"type": "address"
						}
					],
					"stateMutability": "view",
					"type": "function"
				},
				{
					"inputs": [
						{
							"internalType": "bytes",
							"name": "_sig",
							"type": "bytes"
						}
					],
					"name": "publicMint",
					"outputs": [],
					"stateMutability": "payable",
					"type": "function"
				},
				{
					"inputs": [
						{
							"internalType": "bytes32",
							"name": "_ethSignedMessageHash",
							"type": "bytes32"
						},
						{
							"internalType": "bytes",
							"name": "_signature",
							"type": "bytes"
						}
					],
					"name": "recoverSigner",
					"outputs": [
						{
							"internalType": "address",
							"name": "",
							"type": "address"
						}
					],
					"stateMutability": "pure",
					"type": "function"
				},
				{
					"inputs": [],
					"name": "renounceOwnership",
					"outputs": [],
					"stateMutability": "nonpayable",
					"type": "function"
				},
				{
					"inputs": [
						{
							"internalType": "bytes32",
							"name": "_merkleRoot",
							"type": "bytes32"
						}
					],
					"name": "setMerkleRoot",
					"outputs": [],
					"stateMutability": "nonpayable",
					"type": "function"
				},
				{
					"inputs": [
						{
							"internalType": "contract INagaKid",
							"name": "_nagaKid",
							"type": "address"
						}
					],
					"name": "setNagaKidContract",
					"outputs": [],
					"stateMutability": "nonpayable",
					"type": "function"
				},
				{
					"inputs": [
						{
							"internalType": "bytes32",
							"name": "_round",
							"type": "bytes32"
						}
					],
					"name": "setRound",
					"outputs": [],
					"stateMutability": "nonpayable",
					"type": "function"
				},
				{
					"inputs": [
						{
							"internalType": "address",
							"name": "_signer",
							"type": "address"
						}
					],
					"name": "setSigner",
					"outputs": [],
					"stateMutability": "nonpayable",
					"type": "function"
				},
				{
					"inputs": [],
					"name": "signer",
					"outputs": [
						{
							"internalType": "address",
							"name": "",
							"type": "address"
						}
					],
					"stateMutability": "view",
					"type": "function"
				},
				{
					"inputs": [
						{
							"internalType": "bytes",
							"name": "sig",
							"type": "bytes"
						}
					],
					"name": "splitSignature",
					"outputs": [
						{
							"internalType": "bytes32",
							"name": "r",
							"type": "bytes32"
						},
						{
							"internalType": "bytes32",
							"name": "s",
							"type": "bytes32"
						},
						{
							"internalType": "uint8",
							"name": "v",
							"type": "uint8"
						}
					],
					"stateMutability": "pure",
					"type": "function"
				},
				{
					"inputs": [
						{
							"internalType": "address",
							"name": "newOwner",
							"type": "address"
						}
					],
					"name": "transferOwnership",
					"outputs": [],
					"stateMutability": "nonpayable",
					"type": "function"
				},
				{
					"inputs": [
						{
							"internalType": "address",
							"name": "_user",
							"type": "address"
						},
						{
							"internalType": "bytes32",
							"name": "_round",
							"type": "bytes32"
						}
					],
					"name": "userMintedAmount",
					"outputs": [
						{
							"internalType": "uint256",
							"name": "",
							"type": "uint256"
						}
					],
					"stateMutability": "view",
					"type": "function"
				},
				{
					"inputs": [
						{
							"internalType": "address",
							"name": "_signer",
							"type": "address"
						},
						{
							"internalType": "address",
							"name": "_user",
							"type": "address"
						},
						{
							"internalType": "bytes",
							"name": "signature",
							"type": "bytes"
						}
					],
					"name": "verify",
					"outputs": [
						{
							"internalType": "bool",
							"name": "",
							"type": "bool"
						}
					],
					"stateMutability": "view",
					"type": "function"
				},
				{
					"inputs": [
						{
							"internalType": "address",
							"name": "_to",
							"type": "address"
						}
					],
					"name": "withdraw",
					"outputs": [],
					"stateMutability": "nonpayable",
					"type": "function"
				},
				{
					"inputs": [
						{
							"internalType": "address",
							"name": "_to",
							"type": "address"
						},
						{
							"internalType": "address",
							"name": "_currency",
							"type": "address"
						}
					],
					"name": "withdrawCurrency",
					"outputs": [],
					"stateMutability": "nonpayable",
					"type": "function"
				},
				{
					"inputs": [
						{
							"internalType": "address",
							"name": "_to",
							"type": "address"
						},
						{
							"internalType": "address",
							"name": "_NFT",
							"type": "address"
						},
						{
							"internalType": "uint256",
							"name": "_tokenId",
							"type": "uint256"
						}
					],
					"name": "withdrawNFT",
					"outputs": [],
					"stateMutability": "nonpayable",
					"type": "function"
				}
			],
			"devdoc": {
				"kind": "dev",
				"methods": {
					"owner()": {
						"details": "Returns the address of the current owner."
					},
					"renounceOwnership()": {
						"details": "Leaves the contract without owner. It will not be possible to call `onlyOwner` functions anymore. Can only be called by the current owner. NOTE: Renouncing ownership will leave the contract without an owner, thereby removing any functionality that is only available to the owner."
					},
					"transferOwnership(address)": {
						"details": "Transfers ownership of the contract to a new account (`newOwner`). Can only be called by the current owner."
					}
				},
				"version": 1
			},
			"evm": {
				"assembly": "    /* \"ERC721A/MintNagaKids.sol\":428:6886  contract MintNagaKids is Ownable, ReentrancyGuard, VerifySignature {... */\n  mstore(0x40, 0x80)\n    /* \"ERC721A/MintNagaKids.sol\":1124:1160  bool public isPublicMintOpen = false */\n  0x05\n  dup1\n  sload\n  not(0xffff)\n    /* \"ERC721A/MintNagaKids.sol\":1167:1204  bool public isPrivateMintOpen = false */\n  and\n  swap1\n  sstore\n    /* \"ERC721A/MintNagaKids.sol\":2198:2407  constructor(INagaKid _nagaKidContract,address _signer, bytes32 _merkleRoot) {... */\n  callvalue\n  dup1\n  iszero\n  tag_1\n  jumpi\n  0x00\n  dup1\n  revert\ntag_1:\n  pop\n  mload(0x40)\n  sub(codesize, bytecodeSize)\n  dup1\n  bytecodeSize\n  dup4\n  codecopy\n  dup2\n  add\n  0x40\n  dup2\n  swap1\n  mstore\n  tag_2\n  swap2\n  tag_3\n  jump\t// in\ntag_2:\n    /* \"@openzeppelin/contracts/access/Ownable.sol\":921:953  _transferOwnership(_msgSender()) */\n  tag_8\n    /* \"@openzeppelin/contracts/utils/Context.sol\":719:729  msg.sender */\n  caller\n    /* \"@openzeppelin/contracts/access/Ownable.sol\":921:939  _transferOwnership */\n  tag_11\n    /* \"@openzeppelin/contracts/access/Ownable.sol\":921:953  _transferOwnership(_msgSender()) */\n  jump\t// in\ntag_8:\n    /* \"@openzeppelin/contracts/security/ReentrancyGuard.sol\":1701:1702  1 */\n  0x01\n    /* \"@openzeppelin/contracts/security/ReentrancyGuard.sol\":1806:1828  _status = _NOT_ENTERED */\n  dup1\n  sstore\n    /* \"ERC721A/MintNagaKids.sol\":2295:2331  setNagaKidContract(_nagaKidContract) */\n  tag_14\n    /* \"ERC721A/MintNagaKids.sol\":2314:2330  _nagaKidContract */\n  dup4\n    /* \"ERC721A/MintNagaKids.sol\":2295:2313  setNagaKidContract */\n  tag_15\n    /* \"ERC721A/MintNagaKids.sol\":2295:2331  setNagaKidContract(_nagaKidContract) */\n  jump\t// in\ntag_14:\n    /* \"ERC721A/MintNagaKids.sol\":2342:2368  setMerkleRoot(_merkleRoot) */\n  tag_16\n    /* \"ERC721A/MintNagaKids.sol\":2356:2367  _merkleRoot */\n  dup2\n    /* \"ERC721A/MintNagaKids.sol\":2342:2355  setMerkleRoot */\n  tag_17\n    /* \"ERC721A/MintNagaKids.sol\":2342:2368  setMerkleRoot(_merkleRoot) */\n  jump\t// in\ntag_16:\n    /* \"ERC721A/MintNagaKids.sol\":2379:2397  setSigner(_signer) */\n  tag_18\n    /* \"ERC721A/MintNagaKids.sol\":2389:2396  _signer */\n  dup3\n    /* \"ERC721A/MintNagaKids.sol\":2379:2388  setSigner */\n  tag_19\n    /* \"ERC721A/MintNagaKids.sol\":2379:2397  setSigner(_signer) */\n  jump\t// in\ntag_18:\n    /* \"ERC721A/MintNagaKids.sol\":2198:2407  constructor(INagaKid _nagaKidContract,address _signer, bytes32 _merkleRoot) {... */\n  pop\n  pop\n  pop\n    /* \"ERC721A/MintNagaKids.sol\":428:6886  contract MintNagaKids is Ownable, ReentrancyGuard, VerifySignature {... */\n  jump(tag_50)\n    /* \"@openzeppelin/contracts/access/Ownable.sol\":2270:2457  function _transferOwnership(address newOwner) internal virtual {... */\ntag_11:\n    /* \"@openzeppelin/contracts/access/Ownable.sol\":2343:2359  address oldOwner */\n  0x00\n    /* \"@openzeppelin/contracts/access/Ownable.sol\":2362:2368  _owner */\n  dup1\n  sload\n  sub(shl(0xa0, 0x01), 0x01)\n    /* \"@openzeppelin/contracts/access/Ownable.sol\":2378:2395  _owner = newOwner */\n  dup4\n  dup2\n  and\n  not(sub(shl(0xa0, 0x01), 0x01))\n  dup4\n  and\n  dup2\n  or\n  dup5\n  sstore\n    /* \"@openzeppelin/contracts/access/Ownable.sol\":2410:2450  OwnershipTransferred(oldOwner, newOwner) */\n  mload(0x40)\n    /* \"@openzeppelin/contracts/access/Ownable.sol\":2362:2368  _owner */\n  swap2\n  swap1\n  swap3\n  and\n  swap3\n  dup4\n  swap2\n    /* \"@openzeppelin/contracts/access/Ownable.sol\":2410:2450  OwnershipTransferred(oldOwner, newOwner) */\n  0x8be0079c531659141344cd1fd0a4f28419497f9722a3daafe3b4186f6b6457e0\n  swap2\n    /* \"@openzeppelin/contracts/access/Ownable.sol\":2343:2359  address oldOwner */\n  swap1\n    /* \"@openzeppelin/contracts/access/Ownable.sol\":2410:2450  OwnershipTransferred(oldOwner, newOwner) */\n  log3\n    /* \"@openzeppelin/contracts/access/Ownable.sol\":2333:2457  {... */\n  pop\n    /* \"@openzeppelin/contracts/access/Ownable.sol\":2270:2457  function _transferOwnership(address newOwner) internal virtual {... */\n  pop\n  jump\t// out\n    /* \"ERC721A/MintNagaKids.sol\":2415:2703  function setNagaKidContract(INagaKid _nagaKid) public onlyOwner {... */\ntag_15:\n    /* \"@openzeppelin/contracts/access/Ownable.sol\":1082:1089  address */\n  0x00\n    /* \"@openzeppelin/contracts/access/Ownable.sol\":1108:1114  _owner */\n  sload\n  sub(shl(0xa0, 0x01), 0x01)\n  and\n    /* \"@openzeppelin/contracts/utils/Context.sol\":719:729  msg.sender */\n  caller\n    /* \"@openzeppelin/contracts/access/Ownable.sol\":1248:1271  owner() == _msgSender() */\n  eq\n    /* \"@openzeppelin/contracts/access/Ownable.sol\":1240:1308  require(owner() == _msgSender(), \"Ownable: caller is not the owner\") */\n  tag_27\n  jumpi\n  mload(0x40)\n  shl(0xe5, 0x461bcd)\n  dup2\n  mstore\n    /* \"#utility.yul\":849:851   */\n  0x20\n    /* \"@openzeppelin/contracts/access/Ownable.sol\":1240:1308  require(owner() == _msgSender(), \"Ownable: caller is not the owner\") */\n  0x04\n  dup3\n  add\n    /* \"#utility.yul\":831:852   */\n  dup2\n  swap1\n  mstore\n    /* \"#utility.yul\":868:886   */\n  0x24\n  dup3\n  add\n    /* \"#utility.yul\":861:891   */\n  mstore\n  0x00\n  dup1\n  mload\n  0x20\n  data_9924ebdf1add33d25d4ef888e16131f0a5687b0580a36c21b5c301a6c462effe\n  dup4\n  codecopy\n  dup2\n  mload\n  swap2\n  mstore\n    /* \"#utility.yul\":907:925   */\n  0x44\n  dup3\n  add\n    /* \"#utility.yul\":900:962   */\n  mstore\n    /* \"#utility.yul\":979:997   */\n  0x64\n  add\n    /* \"@openzeppelin/contracts/access/Ownable.sol\":1240:1308  require(owner() == _msgSender(), \"Ownable: caller is not the owner\") */\ntag_28:\n  mload(0x40)\n  dup1\n  swap2\n  sub\n  swap1\n  revert\ntag_27:\n    /* \"ERC721A/MintNagaKids.sol\":2522:2537  nagaKidContract */\n  0x02\n  dup1\n  sload\n  sub(shl(0xa0, 0x01), 0x01)\n    /* \"ERC721A/MintNagaKids.sol\":2549:2575  nagaKidContract = _nagaKid */\n  dup4\n  dup2\n  and\n  not(sub(shl(0xa0, 0x01), 0x01))\n  dup4\n  and\n  dup2\n  or\n  swap1\n  swap4\n  sstore\n    /* \"ERC721A/MintNagaKids.sol\":2644:2695  NagaKidContractChanged(nagaKidBefore, nagaKidAfter) */\n  0x40\n  dup1\n  mload\n    /* \"ERC721A/MintNagaKids.sol\":2522:2537  nagaKidContract */\n  swap2\n  swap1\n  swap3\n  and\n    /* \"#utility.yul\":1220:1254   */\n  dup1\n  dup3\n  mstore\n    /* \"#utility.yul\":1285:1287   */\n  0x20\n    /* \"#utility.yul\":1270:1288   */\n  dup3\n  add\n    /* \"#utility.yul\":1263:1306   */\n  swap4\n  swap1\n  swap4\n  mstore\n    /* \"ERC721A/MintNagaKids.sol\":2549:2575  nagaKidContract = _nagaKid */\n  dup4\n  swap2\n    /* \"ERC721A/MintNagaKids.sol\":2644:2695  NagaKidContractChanged(nagaKidBefore, nagaKidAfter) */\n  0xabdf056c85a221fcb31d0366c4475b6b2c613df2eeea951a9fcb3e1a8595d973\n  swap2\n    /* \"#utility.yul\":1155:1173   */\n  add\n    /* \"ERC721A/MintNagaKids.sol\":2644:2695  NagaKidContractChanged(nagaKidBefore, nagaKidAfter) */\n  mload(0x40)\n  dup1\n  swap2\n  sub\n  swap1\n  log1\n    /* \"ERC721A/MintNagaKids.sol\":2479:2703  {... */\n  pop\n  pop\n    /* \"ERC721A/MintNagaKids.sol\":2415:2703  function setNagaKidContract(INagaKid _nagaKid) public onlyOwner {... */\n  pop\n  jump\t// out\n    /* \"ERC721A/MintNagaKids.sol\":3108:3328  function setMerkleRoot(bytes32 _merkleRoot) public onlyOwner {... */\ntag_17:\n    /* \"@openzeppelin/contracts/access/Ownable.sol\":1082:1089  address */\n  0x00\n    /* \"@openzeppelin/contracts/access/Ownable.sol\":1108:1114  _owner */\n  sload\n  sub(shl(0xa0, 0x01), 0x01)\n  and\n    /* \"@openzeppelin/contracts/utils/Context.sol\":719:729  msg.sender */\n  caller\n    /* \"@openzeppelin/contracts/access/Ownable.sol\":1248:1271  owner() == _msgSender() */\n  eq\n    /* \"@openzeppelin/contracts/access/Ownable.sol\":1240:1308  require(owner() == _msgSender(), \"Ownable: caller is not the owner\") */\n  tag_36\n  jumpi\n  mload(0x40)\n  shl(0xe5, 0x461bcd)\n  dup2\n  mstore\n    /* \"#utility.yul\":849:851   */\n  0x20\n    /* \"@openzeppelin/contracts/access/Ownable.sol\":1240:1308  require(owner() == _msgSender(), \"Ownable: caller is not the owner\") */\n  0x04\n  dup3\n  add\n    /* \"#utility.yul\":831:852   */\n  dup2\n  swap1\n  mstore\n    /* \"#utility.yul\":868:886   */\n  0x24\n  dup3\n  add\n    /* \"#utility.yul\":861:891   */\n  mstore\n  0x00\n  dup1\n  mload\n  0x20\n  data_9924ebdf1add33d25d4ef888e16131f0a5687b0580a36c21b5c301a6c462effe\n  dup4\n  codecopy\n  dup2\n  mload\n  swap2\n  mstore\n    /* \"#utility.yul\":907:925   */\n  0x44\n  dup3\n  add\n    /* \"#utility.yul\":900:962   */\n  mstore\n    /* \"#utility.yul\":979:997   */\n  0x64\n  add\n    /* \"@openzeppelin/contracts/access/Ownable.sol\":1240:1308  require(owner() == _msgSender(), \"Ownable: caller is not the owner\") */\n  tag_28\n    /* \"#utility.yul\":647:1003   */\n  jump\n    /* \"@openzeppelin/contracts/access/Ownable.sol\":1240:1308  require(owner() == _msgSender(), \"Ownable: caller is not the owner\") */\ntag_36:\n    /* \"ERC721A/MintNagaKids.sol\":3208:3218  merkleRoot */\n  0x04\n  dup1\n  sload\n    /* \"ERC721A/MintNagaKids.sol\":3229:3253  merkleRoot = _merkleRoot */\n  swap1\n  dup3\n  swap1\n  sstore\n    /* \"ERC721A/MintNagaKids.sol\":3271:3320  MerkleRootChanged(_merkleRootBefore, _merkleRoot) */\n  0x40\n  dup1\n  mload\n    /* \"#utility.yul\":1491:1516   */\n  dup3\n  dup2\n  mstore\n    /* \"#utility.yul\":1547:1549   */\n  0x20\n    /* \"#utility.yul\":1532:1550   */\n  dup2\n  add\n    /* \"#utility.yul\":1525:1559   */\n  dup5\n  swap1\n  mstore\n    /* \"ERC721A/MintNagaKids.sol\":3271:3320  MerkleRootChanged(_merkleRootBefore, _merkleRoot) */\n  0x123d88ba82600dfc3f219f8885c691b0ff020caa535666874b3f5174973757fe\n  swap2\n    /* \"#utility.yul\":1464:1482   */\n  add\n    /* \"ERC721A/MintNagaKids.sol\":3271:3320  MerkleRootChanged(_merkleRootBefore, _merkleRoot) */\ntag_39:\n  mload(0x40)\n  dup1\n  swap2\n  sub\n  swap1\n  log1\n    /* \"ERC721A/MintNagaKids.sol\":3169:3328  {... */\n  pop\n    /* \"ERC721A/MintNagaKids.sol\":3108:3328  function setMerkleRoot(bytes32 _merkleRoot) public onlyOwner {... */\n  pop\n  jump\t// out\n    /* \"ERC721A/MintNagaKids.sol\":2916:3100  function setSigner(address _signer) public onlyOwner {... */\ntag_19:\n    /* \"@openzeppelin/contracts/access/Ownable.sol\":1082:1089  address */\n  0x00\n    /* \"@openzeppelin/contracts/access/Ownable.sol\":1108:1114  _owner */\n  sload\n  sub(shl(0xa0, 0x01), 0x01)\n  and\n    /* \"@openzeppelin/contracts/utils/Context.sol\":719:729  msg.sender */\n  caller\n    /* \"@openzeppelin/contracts/access/Ownable.sol\":1248:1271  owner() == _msgSender() */\n  eq\n    /* \"@openzeppelin/contracts/access/Ownable.sol\":1240:1308  require(owner() == _msgSender(), \"Ownable: caller is not the owner\") */\n  tag_44\n  jumpi\n  mload(0x40)\n  shl(0xe5, 0x461bcd)\n  dup2\n  mstore\n    /* \"#utility.yul\":849:851   */\n  0x20\n    /* \"@openzeppelin/contracts/access/Ownable.sol\":1240:1308  require(owner() == _msgSender(), \"Ownable: caller is not the owner\") */\n  0x04\n  dup3\n  add\n    /* \"#utility.yul\":831:852   */\n  dup2\n  swap1\n  mstore\n    /* \"#utility.yul\":868:886   */\n  0x24\n  dup3\n  add\n    /* \"#utility.yul\":861:891   */\n  mstore\n  0x00\n  dup1\n  mload\n  0x20\n  data_9924ebdf1add33d25d4ef888e16131f0a5687b0580a36c21b5c301a6c462effe\n  dup4\n  codecopy\n  dup2\n  mload\n  swap2\n  mstore\n    /* \"#utility.yul\":907:925   */\n  0x44\n  dup3\n  add\n    /* \"#utility.yul\":900:962   */\n  mstore\n    /* \"#utility.yul\":979:997   */\n  0x64\n  add\n    /* \"@openzeppelin/contracts/access/Ownable.sol\":1240:1308  require(owner() == _msgSender(), \"Ownable: caller is not the owner\") */\n  tag_28\n    /* \"#utility.yul\":647:1003   */\n  jump\n    /* \"@openzeppelin/contracts/access/Ownable.sol\":1240:1308  require(owner() == _msgSender(), \"Ownable: caller is not the owner\") */\ntag_44:\n    /* \"ERC721A/MintNagaKids.sol\":3004:3010  signer */\n  0x05\n  dup1\n  sload\n  sub(shl(0xa0, 0x01), 0x01)\n    /* \"ERC721A/MintNagaKids.sol\":3021:3037  signer = _signer */\n  dup4\n  dup2\n  and\n    /* \"ERC721A/MintNagaKids.sol\":3004:3010  signer */\n  0x010000\n    /* \"ERC721A/MintNagaKids.sol\":3021:3037  signer = _signer */\n  dup2\n  dup2\n  mul\n  not(sub(shl(0xb0, 0x01), 0x010000))\n  dup6\n  and\n  or\n  swap1\n  swap5\n  sstore\n    /* \"ERC721A/MintNagaKids.sol\":3055:3092  SignerChanged(_signerBefore, _signer) */\n  0x40\n  dup1\n  mload\n    /* \"ERC721A/MintNagaKids.sol\":3004:3010  signer */\n  swap5\n  swap1\n  swap4\n  div\n  swap1\n  swap2\n  and\n    /* \"#utility.yul\":1220:1254   */\n  dup1\n  dup5\n  mstore\n    /* \"#utility.yul\":1285:1287   */\n  0x20\n    /* \"#utility.yul\":1270:1288   */\n  dup5\n  add\n    /* \"#utility.yul\":1263:1306   */\n  swap2\n  swap1\n  swap2\n  mstore\n    /* \"ERC721A/MintNagaKids.sol\":3004:3010  signer */\n  swap2\n    /* \"ERC721A/MintNagaKids.sol\":3055:3092  SignerChanged(_signerBefore, _signer) */\n  0xeeb293e1f8f3a9db91ade748726387ed1352ca78f5430c5f06fe3d1e1ad50579\n  swap2\n    /* \"#utility.yul\":1155:1173   */\n  add\n    /* \"ERC721A/MintNagaKids.sol\":3055:3092  SignerChanged(_signerBefore, _signer) */\n  tag_39\n    /* \"#utility.yul\":1008:1312   */\n  jump\n    /* \"#utility.yul\":14:155   */\ntag_49:\n  sub(shl(0xa0, 0x01), 0x01)\n    /* \"#utility.yul\":99:130   */\n  dup2\n  and\n    /* \"#utility.yul\":89:131   */\n  dup2\n  eq\n    /* \"#utility.yul\":79:149   */\n  tag_52\n  jumpi\n    /* \"#utility.yul\":145:146   */\n  0x00\n    /* \"#utility.yul\":142:143   */\n  dup1\n    /* \"#utility.yul\":135:147   */\n  revert\n    /* \"#utility.yul\":79:149   */\ntag_52:\n    /* \"#utility.yul\":14:155   */\n  pop\n  jump\t// out\n    /* \"#utility.yul\":160:642   */\ntag_3:\n    /* \"#utility.yul\":264:270   */\n  0x00\n    /* \"#utility.yul\":272:278   */\n  dup1\n    /* \"#utility.yul\":280:286   */\n  0x00\n    /* \"#utility.yul\":333:335   */\n  0x60\n    /* \"#utility.yul\":321:330   */\n  dup5\n    /* \"#utility.yul\":312:319   */\n  dup7\n    /* \"#utility.yul\":308:331   */\n  sub\n    /* \"#utility.yul\":304:336   */\n  slt\n    /* \"#utility.yul\":301:353   */\n  iszero\n  tag_54\n  jumpi\n    /* \"#utility.yul\":349:350   */\n  0x00\n    /* \"#utility.yul\":346:347   */\n  dup1\n    /* \"#utility.yul\":339:351   */\n  revert\n    /* \"#utility.yul\":301:353   */\ntag_54:\n    /* \"#utility.yul\":381:390   */\n  dup4\n    /* \"#utility.yul\":375:391   */\n  mload\n    /* \"#utility.yul\":400:441   */\n  tag_55\n    /* \"#utility.yul\":435:440   */\n  dup2\n    /* \"#utility.yul\":400:441   */\n  tag_49\n  jump\t// in\ntag_55:\n    /* \"#utility.yul\":510:512   */\n  0x20\n    /* \"#utility.yul\":495:513   */\n  dup6\n  add\n    /* \"#utility.yul\":489:514   */\n  mload\n    /* \"#utility.yul\":460:465   */\n  swap1\n  swap4\n  pop\n    /* \"#utility.yul\":523:566   */\n  tag_56\n    /* \"#utility.yul\":489:514   */\n  dup2\n    /* \"#utility.yul\":523:566   */\n  tag_49\n  jump\t// in\ntag_56:\n    /* \"#utility.yul\":585:592   */\n  dup1\n    /* \"#utility.yul\":575:592   */\n  swap3\n  pop\n  pop\n    /* \"#utility.yul\":632:634   */\n  0x40\n    /* \"#utility.yul\":621:630   */\n  dup5\n    /* \"#utility.yul\":617:635   */\n  add\n    /* \"#utility.yul\":611:636   */\n  mload\n    /* \"#utility.yul\":601:636   */\n  swap1\n  pop\n    /* \"#utility.yul\":160:642   */\n  swap3\n  pop\n  swap3\n  pop\n  swap3\n  jump\t// out\n    /* \"#utility.yul\":1317:1565   */\ntag_50:\n    /* \"ERC721A/MintNagaKids.sol\":428:6886  contract MintNagaKids is Ownable, ReentrancyGuard, VerifySignature {... */\n  dataSize(sub_0)\n  dup1\n  dataOffset(sub_0)\n  0x00\n  codecopy\n  0x00\n  return\nstop\ndata_9924ebdf1add33d25d4ef888e16131f0a5687b0580a36c21b5c301a6c462effe 4f776e61626c653a2063616c6c6572206973206e6f7420746865206f776e6572\n\nsub_0: assembly {\n        /* \"ERC721A/MintNagaKids.sol\":428:6886  contract MintNagaKids is Ownable, ReentrancyGuard, VerifySignature {... */\n      mstore(0x40, 0x80)\n      jumpi(tag_1, lt(calldatasize, 0x04))\n      shr(0xe0, calldataload(0x00))\n      dup1\n      0xa4435dfd\n      gt\n      tag_34\n      jumpi\n      dup1\n      0xef5fe79f\n      gt\n      tag_35\n      jumpi\n      dup1\n      0xf6b48e55\n      gt\n      tag_36\n      jumpi\n      dup1\n      0xf6b48e55\n      eq\n      tag_30\n      jumpi\n      dup1\n      0xfa540801\n      eq\n      tag_31\n      jumpi\n      dup1\n      0xff05fe4a\n      eq\n      tag_32\n      jumpi\n      dup1\n      0xffdc6129\n      eq\n      tag_33\n      jumpi\n      0x00\n      dup1\n      revert\n    tag_36:\n      dup1\n      0xef5fe79f\n      eq\n      tag_26\n      jumpi\n      dup1\n      0xf055c7a9\n      eq\n      tag_27\n      jumpi\n      dup1\n      0xf2fde38b\n      eq\n      tag_28\n      jumpi\n      dup1\n      0xf500cdfc\n      eq\n      tag_29\n      jumpi\n      0x00\n      dup1\n      revert\n    tag_35:\n      dup1\n      0xc4e41b22\n      gt\n      tag_37\n      jumpi\n      dup1\n      0xc4e41b22\n      eq\n      tag_22\n      jumpi\n      dup1\n      0xde6892c8\n      eq\n      tag_23\n      jumpi\n      dup1\n      0xdf4e5881\n      eq\n      tag_24\n      jumpi\n      dup1\n      0xe02023a1\n      eq\n      tag_25\n      jumpi\n      0x00\n      dup1\n      revert\n    tag_37:\n      dup1\n      0xa4435dfd\n      eq\n      tag_18\n      jumpi\n      dup1\n      0xa7bb5803\n      eq\n      tag_19\n      jumpi\n      dup1\n      0xb5abafa1\n      eq\n      tag_20\n      jumpi\n      dup1\n      0xbff863ec\n      eq\n      tag_21\n      jumpi\n      0x00\n      dup1\n      revert\n    tag_34:\n      dup1\n      0x6c19e783\n      gt\n      tag_38\n      jumpi\n      dup1\n      0x8907f3fa\n      gt\n      tag_39\n      jumpi\n      dup1\n      0x8907f3fa\n      eq\n      tag_14\n      jumpi\n      dup1\n      0x8da5cb5b\n      eq\n      tag_15\n      jumpi\n      dup1\n      0x97aba7f9\n      eq\n      tag_16\n      jumpi\n      dup1\n      0x9e6c8855\n      eq\n      tag_17\n      jumpi\n      0x00\n      dup1\n      revert\n    tag_39:\n      dup1\n      0x6c19e783\n      eq\n      tag_10\n      jumpi\n      dup1\n      0x715018a6\n      eq\n      tag_11\n      jumpi\n      dup1\n      0x7cb64759\n      eq\n      tag_12\n      jumpi\n      dup1\n      0x8407ecc4\n      eq\n      tag_13\n      jumpi\n      0x00\n      dup1\n      revert\n    tag_38:\n      dup1\n      0x2eb4a7ab\n      gt\n      tag_40\n      jumpi\n      dup1\n      0x2eb4a7ab\n      eq\n      tag_6\n      jumpi\n      dup1\n      0x42920a46\n      eq\n      tag_7\n      jumpi\n      dup1\n      0x4c0f38c2\n      eq\n      tag_8\n      jumpi\n      dup1\n      0x51cff8d9\n      eq\n      tag_9\n      jumpi\n      0x00\n      dup1\n      revert\n    tag_40:\n      dup1\n      0x0a25dea9\n      eq\n      tag_2\n      jumpi\n      dup1\n      0x1f5ac1b2\n      eq\n      tag_3\n      jumpi\n      dup1\n      0x238ac933\n      eq\n      tag_4\n      jumpi\n      dup1\n      0x24c37a85\n      eq\n      tag_5\n      jumpi\n    tag_1:\n      0x00\n      dup1\n      revert\n        /* \"ERC721A/MintNagaKids.sol\":826:926  bytes32 public constant DEFAULT = 0x0000000000000000000000000000000000000000000000000000000000000000 */\n    tag_2:\n      callvalue\n      dup1\n      iszero\n      tag_41\n      jumpi\n      0x00\n      dup1\n      revert\n    tag_41:\n      pop\n      tag_42\n        /* \"ERC721A/MintNagaKids.sol\":860:926  0x0000000000000000000000000000000000000000000000000000000000000000 */\n      0x00\n        /* \"ERC721A/MintNagaKids.sol\":826:926  bytes32 public constant DEFAULT = 0x0000000000000000000000000000000000000000000000000000000000000000 */\n      dup2\n      jump\n    tag_42:\n      mload(0x40)\n        /* \"#utility.yul\":160:185   */\n      swap1\n      dup2\n      mstore\n        /* \"#utility.yul\":148:150   */\n      0x20\n        /* \"#utility.yul\":133:151   */\n      add\n        /* \"ERC721A/MintNagaKids.sol\":826:926  bytes32 public constant DEFAULT = 0x0000000000000000000000000000000000000000000000000000000000000000 */\n    tag_44:\n      mload(0x40)\n      dup1\n      swap2\n      sub\n      swap1\n      return\n        /* \"ERC721A/VerifySignature.sol\":99:259  function getMessageHash(... */\n    tag_3:\n      callvalue\n      dup1\n      iszero\n      tag_46\n      jumpi\n      0x00\n      dup1\n      revert\n    tag_46:\n      pop\n      tag_42\n      tag_48\n      calldatasize\n      0x04\n      tag_49\n      jump\t// in\n    tag_48:\n      tag_50\n      jump\t// in\n        /* \"ERC721A/MintNagaKids.sol\":1213:1234  address public signer */\n    tag_4:\n      callvalue\n      dup1\n      iszero\n      tag_52\n      jumpi\n      0x00\n      dup1\n      revert\n    tag_52:\n      pop\n      sload(0x05)\n      tag_53\n      swap1\n      0x010000\n      swap1\n      div\n      sub(shl(0xa0, 0x01), 0x01)\n      and\n      dup2\n      jump\n    tag_53:\n      mload(0x40)\n      sub(shl(0xa0, 0x01), 0x01)\n        /* \"#utility.yul\":748:780   */\n      swap1\n      swap2\n      and\n        /* \"#utility.yul\":730:781   */\n      dup2\n      mstore\n        /* \"#utility.yul\":718:720   */\n      0x20\n        /* \"#utility.yul\":703:721   */\n      add\n        /* \"ERC721A/MintNagaKids.sol\":1213:1234  address public signer */\n      tag_44\n        /* \"#utility.yul\":584:787   */\n      jump\n        /* \"ERC721A/MintNagaKids.sol\":661:745  bytes32 public constant NAGA_HOLDER_MINT_ROUND = keccak256(\"NAGA_HOLDER_MINT_ROUND\") */\n    tag_5:\n      callvalue\n      dup1\n      iszero\n      tag_57\n      jumpi\n      0x00\n      dup1\n      revert\n    tag_57:\n      pop\n      tag_42\n        /* \"ERC721A/MintNagaKids.sol\":710:745  keccak256(\"NAGA_HOLDER_MINT_ROUND\") */\n      0xb3c595e55271590809f54e2f4fc3a582754f45b104dd3c41666e2ad310493db3\n        /* \"ERC721A/MintNagaKids.sol\":661:745  bytes32 public constant NAGA_HOLDER_MINT_ROUND = keccak256(\"NAGA_HOLDER_MINT_ROUND\") */\n      dup2\n      jump\n        /* \"ERC721A/MintNagaKids.sol\":1090:1115  bytes32 public merkleRoot */\n    tag_6:\n      callvalue\n      dup1\n      iszero\n      tag_61\n      jumpi\n      0x00\n      dup1\n      revert\n    tag_61:\n      pop\n      tag_42\n      sload(0x04)\n      dup2\n      jump\n        /* \"ERC721A/VerifySignature.sol\":769:1119  function verify(... */\n    tag_7:\n      callvalue\n      dup1\n      iszero\n      tag_65\n      jumpi\n      0x00\n      dup1\n      revert\n    tag_65:\n      pop\n      tag_66\n      tag_67\n      calldatasize\n      0x04\n      tag_68\n      jump\t// in\n    tag_67:\n      tag_69\n      jump\t// in\n    tag_66:\n      mload(0x40)\n        /* \"#utility.yul\":2413:2427   */\n      swap1\n      iszero\n        /* \"#utility.yul\":2406:2428   */\n      iszero\n        /* \"#utility.yul\":2388:2429   */\n      dup2\n      mstore\n        /* \"#utility.yul\":2376:2378   */\n      0x20\n        /* \"#utility.yul\":2361:2379   */\n      add\n        /* \"ERC721A/VerifySignature.sol\":769:1119  function verify(... */\n      tag_44\n        /* \"#utility.yul\":2248:2435   */\n      jump\n        /* \"ERC721A/MintNagaKids.sol\":6774:6881  function getMaxSupply() public view returns (uint256) {... */\n    tag_8:\n      callvalue\n      dup1\n      iszero\n      tag_72\n      jumpi\n      0x00\n      dup1\n      revert\n    tag_72:\n      pop\n      tag_42\n      tag_74\n      jump\t// in\n        /* \"ERC721A/MintNagaKids.sol\":5282:5620  function withdraw(address _to) public onlyOwner {... */\n    tag_9:\n      callvalue\n      dup1\n      iszero\n      tag_77\n      jumpi\n      0x00\n      dup1\n      revert\n    tag_77:\n      pop\n      tag_78\n      tag_79\n      calldatasize\n      0x04\n      tag_49\n      jump\t// in\n    tag_79:\n      tag_80\n      jump\t// in\n    tag_78:\n      stop\n        /* \"ERC721A/MintNagaKids.sol\":2916:3100  function setSigner(address _signer) public onlyOwner {... */\n    tag_10:\n      callvalue\n      dup1\n      iszero\n      tag_81\n      jumpi\n      0x00\n      dup1\n      revert\n    tag_81:\n      pop\n      tag_78\n      tag_83\n      calldatasize\n      0x04\n      tag_49\n      jump\t// in\n    tag_83:\n      tag_84\n      jump\t// in\n        /* \"@openzeppelin/contracts/access/Ownable.sol\":1668:1769  function renounceOwnership() public virtual onlyOwner {... */\n    tag_11:\n      callvalue\n      dup1\n      iszero\n      tag_85\n      jumpi\n      0x00\n      dup1\n      revert\n    tag_85:\n      pop\n      tag_78\n      tag_87\n      jump\t// in\n        /* \"ERC721A/MintNagaKids.sol\":3108:3328  function setMerkleRoot(bytes32 _merkleRoot) public onlyOwner {... */\n    tag_12:\n      callvalue\n      dup1\n      iszero\n      tag_88\n      jumpi\n      0x00\n      dup1\n      revert\n    tag_88:\n      pop\n      tag_78\n      tag_90\n      calldatasize\n      0x04\n      tag_91\n      jump\t// in\n    tag_90:\n      tag_92\n      jump\t// in\n        /* \"ERC721A/MintNagaKids.sol\":5628:6005  function withdrawCurrency(address _to,address _currency) public onlyOwner {... */\n    tag_13:\n      callvalue\n      dup1\n      iszero\n      tag_93\n      jumpi\n      0x00\n      dup1\n      revert\n    tag_93:\n      pop\n      tag_78\n      tag_95\n      calldatasize\n      0x04\n      tag_96\n      jump\t// in\n    tag_95:\n      tag_97\n      jump\t// in\n        /* \"ERC721A/MintNagaKids.sol\":1167:1204  bool public isPrivateMintOpen = false */\n    tag_14:\n      callvalue\n      dup1\n      iszero\n      tag_98\n      jumpi\n      0x00\n      dup1\n      revert\n    tag_98:\n      pop\n      sload(0x05)\n      tag_66\n      swap1\n      0x0100\n      swap1\n      div\n      0xff\n      and\n      dup2\n      jump\n        /* \"@openzeppelin/contracts/access/Ownable.sol\":1036:1121  function owner() public view virtual returns (address) {... */\n    tag_15:\n      callvalue\n      dup1\n      iszero\n      tag_102\n      jumpi\n      0x00\n      dup1\n      revert\n    tag_102:\n      pop\n        /* \"@openzeppelin/contracts/access/Ownable.sol\":1082:1089  address */\n      0x00\n        /* \"@openzeppelin/contracts/access/Ownable.sol\":1108:1114  _owner */\n      sload\n      sub(shl(0xa0, 0x01), 0x01)\n      and\n        /* \"@openzeppelin/contracts/access/Ownable.sol\":1036:1121  function owner() public view virtual returns (address) {... */\n      jump(tag_53)\n        /* \"ERC721A/VerifySignature.sol\":1127:1401  function recoverSigner(... */\n    tag_16:\n      callvalue\n      dup1\n      iszero\n      tag_106\n      jumpi\n      0x00\n      dup1\n      revert\n    tag_106:\n      pop\n      tag_53\n      tag_108\n      calldatasize\n      0x04\n      tag_109\n      jump\t// in\n    tag_108:\n      tag_110\n      jump\t// in\n        /* \"ERC721A/MintNagaKids.sol\":2415:2703  function setNagaKidContract(INagaKid _nagaKid) public onlyOwner {... */\n    tag_17:\n      callvalue\n      dup1\n      iszero\n      tag_112\n      jumpi\n      0x00\n      dup1\n      revert\n    tag_112:\n      pop\n      tag_78\n      tag_114\n      calldatasize\n      0x04\n      tag_49\n      jump\t// in\n    tag_114:\n      tag_116\n      jump\t// in\n        /* \"ERC721A/MintNagaKids.sol\":1124:1160  bool public isPublicMintOpen = false */\n    tag_18:\n      callvalue\n      dup1\n      iszero\n      tag_117\n      jumpi\n      0x00\n      dup1\n      revert\n    tag_117:\n      pop\n      sload(0x05)\n      tag_66\n      swap1\n      0xff\n      and\n      dup2\n      jump\n        /* \"ERC721A/VerifySignature.sol\":1409:2300  function splitSignature(bytes memory sig)... */\n    tag_19:\n      callvalue\n      dup1\n      iszero\n      tag_121\n      jumpi\n      0x00\n      dup1\n      revert\n    tag_121:\n      pop\n      tag_122\n      tag_123\n      calldatasize\n      0x04\n      tag_124\n      jump\t// in\n    tag_123:\n      tag_125\n      jump\t// in\n    tag_122:\n      0x40\n      dup1\n      mload\n        /* \"#utility.yul\":4384:4409   */\n      swap4\n      dup5\n      mstore\n        /* \"#utility.yul\":4440:4442   */\n      0x20\n        /* \"#utility.yul\":4425:4443   */\n      dup5\n      add\n        /* \"#utility.yul\":4418:4452   */\n      swap3\n      swap1\n      swap3\n      mstore\n        /* \"#utility.yul\":4500:4504   */\n      0xff\n        /* \"#utility.yul\":4488:4505   */\n      and\n        /* \"#utility.yul\":4468:4486   */\n      swap1\n      dup3\n      add\n        /* \"#utility.yul\":4461:4506   */\n      mstore\n        /* \"#utility.yul\":4372:4374   */\n      0x60\n        /* \"#utility.yul\":4357:4375   */\n      add\n        /* \"ERC721A/VerifySignature.sol\":1409:2300  function splitSignature(bytes memory sig)... */\n      tag_44\n        /* \"#utility.yul\":4186:4512   */\n      jump\n        /* \"ERC721A/MintNagaKids.sol\":6504:6647  function userMintedAmount(address _user,bytes32 _round) public view returns(uint256) {... */\n    tag_20:\n      callvalue\n      dup1\n      iszero\n      tag_128\n      jumpi\n      0x00\n      dup1\n      revert\n    tag_128:\n      pop\n      tag_42\n      tag_130\n      calldatasize\n      0x04\n      tag_131\n      jump\t// in\n    tag_130:\n      sub(shl(0xa0, 0x01), 0x01)\n        /* \"ERC721A/MintNagaKids.sol\":6607:6631  _userMintedAmount[_user] */\n      swap2\n      swap1\n      swap2\n      and\n        /* \"ERC721A/MintNagaKids.sol\":6580:6587  uint256 */\n      0x00\n        /* \"ERC721A/MintNagaKids.sol\":6607:6631  _userMintedAmount[_user] */\n      swap1\n      dup2\n      mstore\n        /* \"ERC721A/MintNagaKids.sol\":6607:6624  _userMintedAmount */\n      0x07\n        /* \"ERC721A/MintNagaKids.sol\":6607:6631  _userMintedAmount[_user] */\n      0x20\n      swap1\n      dup2\n      mstore\n      0x40\n      dup1\n      dup4\n      keccak256\n        /* \"ERC721A/MintNagaKids.sol\":6607:6639  _userMintedAmount[_user][_round] */\n      swap4\n      dup4\n      mstore\n      swap3\n      swap1\n      mstore\n      keccak256\n      sload\n      swap1\n        /* \"ERC721A/MintNagaKids.sol\":6504:6647  function userMintedAmount(address _user,bytes32 _round) public view returns(uint256) {... */\n      jump\n        /* \"ERC721A/MintNagaKids.sol\":6013:6356  function withdrawNFT(address _to,address _NFT,uint256 _tokenId) public onlyOwner {... */\n    tag_21:\n      callvalue\n      dup1\n      iszero\n      tag_134\n      jumpi\n      0x00\n      dup1\n      revert\n    tag_134:\n      pop\n      tag_78\n      tag_136\n      calldatasize\n      0x04\n      tag_137\n      jump\t// in\n    tag_136:\n      tag_138\n      jump\t// in\n        /* \"ERC721A/MintNagaKids.sol\":6655:6766  function getTotalSupply() public view returns (uint256) {... */\n    tag_22:\n      callvalue\n      dup1\n      iszero\n      tag_139\n      jumpi\n      0x00\n      dup1\n      revert\n    tag_139:\n      pop\n      tag_42\n      tag_141\n      jump\t// in\n        /* \"ERC721A/MintNagaKids.sol\":4339:5154  function publicMint(bytes calldata _sig) public payable nonReentrant {... */\n    tag_23:\n      tag_78\n      tag_144\n      calldatasize\n      0x04\n      tag_145\n      jump\t// in\n    tag_144:\n      tag_146\n      jump\t// in\n        /* \"ERC721A/MintNagaKids.sol\":1014:1045  INagaKid public nagaKidContract */\n    tag_24:\n      callvalue\n      dup1\n      iszero\n      tag_147\n      jumpi\n      0x00\n      dup1\n      revert\n    tag_147:\n      pop\n      sload(0x02)\n      tag_53\n      swap1\n      sub(shl(0xa0, 0x01), 0x01)\n      and\n      dup2\n      jump\n        /* \"ERC721A/MintNagaKids.sol\":939:1005  bytes32 public constant WITHDRAW_ROLE = keccak256(\"WITHDRAW_ROLE\") */\n    tag_25:\n      callvalue\n      dup1\n      iszero\n      tag_152\n      jumpi\n      0x00\n      dup1\n      revert\n    tag_152:\n      pop\n      tag_42\n        /* \"ERC721A/MintNagaKids.sol\":979:1005  keccak256(\"WITHDRAW_ROLE\") */\n      0x5d8e12c39142ff96d79d04d15d1ba1269e4fe57bb9d26f43523628b34ba108ec\n        /* \"ERC721A/MintNagaKids.sol\":939:1005  bytes32 public constant WITHDRAW_ROLE = keccak256(\"WITHDRAW_ROLE\") */\n      dup2\n      jump\n        /* \"ERC721A/MintNagaKids.sol\":1052:1083  bytes32 public currentMintRound */\n    tag_26:\n      callvalue\n      dup1\n      iszero\n      tag_156\n      jumpi\n      0x00\n      dup1\n      revert\n    tag_156:\n      pop\n      tag_42\n      sload(0x03)\n      dup2\n      jump\n        /* \"ERC721A/MintNagaKids.sol\":5162:5274  function isPublicMinted(address _addr) public view returns(bool){... */\n    tag_27:\n      callvalue\n      dup1\n      iszero\n      tag_160\n      jumpi\n      0x00\n      dup1\n      revert\n    tag_160:\n      pop\n      tag_66\n      tag_162\n      calldatasize\n      0x04\n      tag_49\n      jump\t// in\n    tag_162:\n      sub(shl(0xa0, 0x01), 0x01)\n        /* \"ERC721A/MintNagaKids.sol\":5244:5266  _isPublicMinted[_addr] */\n      and\n        /* \"ERC721A/MintNagaKids.sol\":5221:5225  bool */\n      0x00\n        /* \"ERC721A/MintNagaKids.sol\":5244:5266  _isPublicMinted[_addr] */\n      swap1\n      dup2\n      mstore\n        /* \"ERC721A/MintNagaKids.sol\":5244:5259  _isPublicMinted */\n      0x08\n        /* \"ERC721A/MintNagaKids.sol\":5244:5266  _isPublicMinted[_addr] */\n      0x20\n      mstore\n      0x40\n      swap1\n      keccak256\n      sload\n      0xff\n      and\n      swap1\n        /* \"ERC721A/MintNagaKids.sol\":5162:5274  function isPublicMinted(address _addr) public view returns(bool){... */\n      jump\n        /* \"@openzeppelin/contracts/access/Ownable.sol\":1918:2116  function transferOwnership(address newOwner) public virtual onlyOwner {... */\n    tag_28:\n      callvalue\n      dup1\n      iszero\n      tag_165\n      jumpi\n      0x00\n      dup1\n      revert\n    tag_165:\n      pop\n      tag_78\n      tag_167\n      calldatasize\n      0x04\n      tag_49\n      jump\t// in\n    tag_167:\n      tag_168\n      jump\t// in\n        /* \"ERC721A/MintNagaKids.sol\":504:584  bytes32 public constant WHITELIST_MINT_ROUND = keccak256(\"WHITELIST_MINT_ROUND\") */\n    tag_29:\n      callvalue\n      dup1\n      iszero\n      tag_169\n      jumpi\n      0x00\n      dup1\n      revert\n    tag_169:\n      pop\n      tag_42\n        /* \"ERC721A/MintNagaKids.sol\":551:584  keccak256(\"WHITELIST_MINT_ROUND\") */\n      0x68e7d51fdb912cb107dda2e59b053d87fcca666dd0ef5339cd3474ccb5276bba\n        /* \"ERC721A/MintNagaKids.sol\":504:584  bytes32 public constant WHITELIST_MINT_ROUND = keccak256(\"WHITELIST_MINT_ROUND\") */\n      dup2\n      jump\n        /* \"ERC721A/MintNagaKids.sol\":3336:4331  function allowlistMint(bytes32[] calldata _proof, uint256 _amount, bytes32 _round) public payable nonReentrant {... */\n    tag_30:\n      tag_78\n      tag_174\n      calldatasize\n      0x04\n      tag_175\n      jump\t// in\n    tag_174:\n      tag_176\n      jump\t// in\n        /* \"ERC721A/VerifySignature.sol\":267:761  function getEthSignedMessageHash(bytes32 _messageHash)... */\n    tag_31:\n      callvalue\n      dup1\n      iszero\n      tag_177\n      jumpi\n      0x00\n      dup1\n      revert\n    tag_177:\n      pop\n      tag_42\n      tag_179\n      calldatasize\n      0x04\n      tag_91\n      jump\t// in\n    tag_179:\n      tag_180\n      jump\t// in\n        /* \"ERC721A/MintNagaKids.sol\":2711:2908  function setRound(bytes32 _round) public onlyOwner {... */\n    tag_32:\n      callvalue\n      dup1\n      iszero\n      tag_182\n      jumpi\n      0x00\n      dup1\n      revert\n    tag_182:\n      pop\n      tag_78\n      tag_184\n      calldatasize\n      0x04\n      tag_91\n      jump\t// in\n    tag_184:\n      tag_185\n      jump\t// in\n        /* \"ERC721A/MintNagaKids.sol\":6364:6496  function isUserMinted(address _user,bytes32 _round) public view returns(bool) {... */\n    tag_33:\n      callvalue\n      dup1\n      iszero\n      tag_186\n      jumpi\n      0x00\n      dup1\n      revert\n    tag_186:\n      pop\n      tag_66\n      tag_188\n      calldatasize\n      0x04\n      tag_131\n      jump\t// in\n    tag_188:\n      sub(shl(0xa0, 0x01), 0x01)\n        /* \"ERC721A/MintNagaKids.sol\":6460:6480  _isUserMinted[_user] */\n      swap2\n      swap1\n      swap2\n      and\n        /* \"ERC721A/MintNagaKids.sol\":6436:6440  bool */\n      0x00\n        /* \"ERC721A/MintNagaKids.sol\":6460:6480  _isUserMinted[_user] */\n      swap1\n      dup2\n      mstore\n        /* \"ERC721A/MintNagaKids.sol\":6460:6473  _isUserMinted */\n      0x06\n        /* \"ERC721A/MintNagaKids.sol\":6460:6480  _isUserMinted[_user] */\n      0x20\n      swap1\n      dup2\n      mstore\n      0x40\n      dup1\n      dup4\n      keccak256\n        /* \"ERC721A/MintNagaKids.sol\":6460:6488  _isUserMinted[_user][_round] */\n      swap4\n      dup4\n      mstore\n      swap3\n      swap1\n      mstore\n      keccak256\n      sload\n      0xff\n      and\n      swap1\n        /* \"ERC721A/MintNagaKids.sol\":6364:6496  function isUserMinted(address _user,bytes32 _round) public view returns(bool) {... */\n      jump\n        /* \"ERC721A/VerifySignature.sol\":99:259  function getMessageHash(... */\n    tag_50:\n        /* \"ERC721A/VerifySignature.sol\":212:250  abi.encodePacked(_user, address(this)) */\n      mload(0x40)\n      not(0xffffffffffffffffffffffff)\n        /* \"#utility.yul\":7107:7109   */\n      0x60\n        /* \"#utility.yul\":7103:7118   */\n      dup4\n      dup2\n      shl\n        /* \"#utility.yul\":7099:7123   */\n      dup3\n      and\n        /* \"ERC721A/VerifySignature.sol\":212:250  abi.encodePacked(_user, address(this)) */\n      0x20\n      dup5\n      add\n        /* \"#utility.yul\":7087:7124   */\n      mstore\n        /* \"ERC721A/VerifySignature.sol\":244:248  this */\n      address\n        /* \"#utility.yul\":7158:7173   */\n      swap1\n      shl\n        /* \"#utility.yul\":7154:7178   */\n      and\n        /* \"#utility.yul\":7140:7152   */\n      0x34\n      dup3\n      add\n        /* \"#utility.yul\":7133:7179   */\n      mstore\n        /* \"ERC721A/VerifySignature.sol\":175:182  bytes32 */\n      0x00\n      swap1\n        /* \"#utility.yul\":7195:7207   */\n      0x48\n      add\n        /* \"ERC721A/VerifySignature.sol\":212:250  abi.encodePacked(_user, address(this)) */\n    tag_192:\n      mload(0x40)\n      0x20\n      dup2\n      dup4\n      sub\n      sub\n      dup2\n      mstore\n      swap1\n      0x40\n      mstore\n        /* \"ERC721A/VerifySignature.sol\":202:251  keccak256(abi.encodePacked(_user, address(this))) */\n      dup1\n      mload\n      swap1\n      0x20\n      add\n      keccak256\n        /* \"ERC721A/VerifySignature.sol\":195:251  return keccak256(abi.encodePacked(_user, address(this))) */\n      swap1\n      pop\n        /* \"ERC721A/VerifySignature.sol\":99:259  function getMessageHash(... */\n      swap2\n      swap1\n      pop\n      jump\t// out\n        /* \"ERC721A/VerifySignature.sol\":769:1119  function verify(... */\n    tag_69:\n        /* \"ERC721A/VerifySignature.sol\":896:900  bool */\n      0x00\n        /* \"ERC721A/VerifySignature.sol\":913:932  bytes32 messageHash */\n      dup1\n        /* \"ERC721A/VerifySignature.sol\":935:956  getMessageHash(_user) */\n      tag_195\n        /* \"ERC721A/VerifySignature.sol\":950:955  _user */\n      dup5\n        /* \"ERC721A/VerifySignature.sol\":935:949  getMessageHash */\n      tag_50\n        /* \"ERC721A/VerifySignature.sol\":935:956  getMessageHash(_user) */\n      jump\t// in\n    tag_195:\n        /* \"ERC721A/VerifySignature.sol\":913:956  bytes32 messageHash = getMessageHash(_user) */\n      swap1\n      pop\n        /* \"ERC721A/VerifySignature.sol\":967:995  bytes32 ethSignedMessageHash */\n      0x00\n        /* \"ERC721A/VerifySignature.sol\":998:1034  getEthSignedMessageHash(messageHash) */\n      tag_196\n        /* \"ERC721A/VerifySignature.sol\":1022:1033  messageHash */\n      dup3\n        /* \"ERC721A/VerifySignature.sol\":998:1021  getEthSignedMessageHash */\n      tag_180\n        /* \"ERC721A/VerifySignature.sol\":998:1034  getEthSignedMessageHash(messageHash) */\n      jump\t// in\n    tag_196:\n        /* \"ERC721A/VerifySignature.sol\":967:1034  bytes32 ethSignedMessageHash = getEthSignedMessageHash(messageHash) */\n      swap1\n      pop\n        /* \"ERC721A/VerifySignature.sol\":1104:1111  _signer */\n      dup6\n      sub(shl(0xa0, 0x01), 0x01)\n        /* \"ERC721A/VerifySignature.sol\":1054:1111  recoverSigner(ethSignedMessageHash, signature) == _signer */\n      and\n        /* \"ERC721A/VerifySignature.sol\":1054:1100  recoverSigner(ethSignedMessageHash, signature) */\n      tag_197\n        /* \"ERC721A/VerifySignature.sol\":1068:1088  ethSignedMessageHash */\n      dup3\n        /* \"ERC721A/VerifySignature.sol\":1090:1099  signature */\n      dup7\n        /* \"ERC721A/VerifySignature.sol\":1054:1067  recoverSigner */\n      tag_110\n        /* \"ERC721A/VerifySignature.sol\":1054:1100  recoverSigner(ethSignedMessageHash, signature) */\n      jump\t// in\n    tag_197:\n      sub(shl(0xa0, 0x01), 0x01)\n        /* \"ERC721A/VerifySignature.sol\":1054:1111  recoverSigner(ethSignedMessageHash, signature) == _signer */\n      and\n      eq\n      swap7\n        /* \"ERC721A/VerifySignature.sol\":769:1119  function verify(... */\n      swap6\n      pop\n      pop\n      pop\n      pop\n      pop\n      pop\n      jump\t// out\n        /* \"ERC721A/MintNagaKids.sol\":6774:6881  function getMaxSupply() public view returns (uint256) {... */\n    tag_74:\n        /* \"ERC721A/MintNagaKids.sol\":6846:6861  nagaKidContract */\n      sload(0x02)\n        /* \"ERC721A/MintNagaKids.sol\":6846:6873  nagaKidContract.maxSupply() */\n      0x40\n      dup1\n      mload\n      shl(0xe0, 0xd5abeb01)\n      dup2\n      mstore\n      swap1\n      mload\n        /* \"ERC721A/MintNagaKids.sol\":6819:6826  uint256 */\n      0x00\n      swap3\n      sub(shl(0xa0, 0x01), 0x01)\n        /* \"ERC721A/MintNagaKids.sol\":6846:6861  nagaKidContract */\n      and\n      swap2\n        /* \"ERC721A/MintNagaKids.sol\":6846:6871  nagaKidContract.maxSupply */\n      0xd5abeb01\n      swap2\n        /* \"ERC721A/MintNagaKids.sol\":6846:6873  nagaKidContract.maxSupply() */\n      0x04\n      dup1\n      dup4\n      add\n      swap3\n      0x20\n      swap3\n      swap2\n      swap1\n      dup3\n      swap1\n      sub\n      add\n      dup2\n        /* \"ERC721A/MintNagaKids.sol\":6846:6861  nagaKidContract */\n      dup7\n        /* \"ERC721A/MintNagaKids.sol\":6846:6873  nagaKidContract.maxSupply() */\n      gas\n      staticcall\n      iszero\n      dup1\n      iszero\n      tag_200\n      jumpi\n      returndatasize\n      0x00\n      dup1\n      returndatacopy\n      revert(0x00, returndatasize)\n    tag_200:\n      pop\n      pop\n      pop\n      pop\n      mload(0x40)\n      returndatasize\n      not(0x1f)\n      0x1f\n      dup3\n      add\n      and\n      dup3\n      add\n      dup1\n      0x40\n      mstore\n      pop\n      dup2\n      add\n      swap1\n      tag_201\n      swap2\n      swap1\n      tag_202\n      jump\t// in\n    tag_201:\n        /* \"ERC721A/MintNagaKids.sol\":6839:6873  return nagaKidContract.maxSupply() */\n      swap1\n      pop\n        /* \"ERC721A/MintNagaKids.sol\":6774:6881  function getMaxSupply() public view returns (uint256) {... */\n      swap1\n      jump\t// out\n        /* \"ERC721A/MintNagaKids.sol\":5282:5620  function withdraw(address _to) public onlyOwner {... */\n    tag_80:\n        /* \"@openzeppelin/contracts/access/Ownable.sol\":1082:1089  address */\n      0x00\n        /* \"@openzeppelin/contracts/access/Ownable.sol\":1108:1114  _owner */\n      sload\n      sub(shl(0xa0, 0x01), 0x01)\n      and\n        /* \"@openzeppelin/contracts/utils/Context.sol\":719:729  msg.sender */\n      caller\n        /* \"@openzeppelin/contracts/access/Ownable.sol\":1248:1271  owner() == _msgSender() */\n      eq\n        /* \"@openzeppelin/contracts/access/Ownable.sol\":1240:1308  require(owner() == _msgSender(), \"Ownable: caller is not the owner\") */\n      tag_207\n      jumpi\n      mload(0x40)\n      shl(0xe5, 0x461bcd)\n      dup2\n      mstore\n      0x04\n      add\n      tag_208\n      swap1\n      tag_209\n      jump\t// in\n    tag_208:\n      mload(0x40)\n      dup1\n      swap2\n      sub\n      swap1\n      revert\n    tag_207:\n        /* \"ERC721A/MintNagaKids.sol\":5366:5387  address(this).balance */\n      selfbalance\n        /* \"ERC721A/MintNagaKids.sol\":5406:5427  balanceOFContract > 0 */\n      dup1\n        /* \"ERC721A/MintNagaKids.sol\":5398:5452  require(balanceOFContract > 0, \"Insufficient Balance\") */\n      tag_211\n      jumpi\n      mload(0x40)\n      shl(0xe5, 0x461bcd)\n      dup2\n      mstore\n        /* \"#utility.yul\":7970:7972   */\n      0x20\n        /* \"ERC721A/MintNagaKids.sol\":5398:5452  require(balanceOFContract > 0, \"Insufficient Balance\") */\n      0x04\n      dup3\n      add\n        /* \"#utility.yul\":7952:7973   */\n      mstore\n        /* \"#utility.yul\":8009:8011   */\n      0x14\n        /* \"#utility.yul\":7989:8007   */\n      0x24\n      dup3\n      add\n        /* \"#utility.yul\":7982:8012   */\n      mstore\n      shl(0x60, 0x496e73756666696369656e742042616c616e6365)\n        /* \"#utility.yul\":8028:8046   */\n      0x44\n      dup3\n      add\n        /* \"#utility.yul\":8021:8071   */\n      mstore\n        /* \"#utility.yul\":8088:8106   */\n      0x64\n      add\n        /* \"ERC721A/MintNagaKids.sol\":5398:5452  require(balanceOFContract > 0, \"Insufficient Balance\") */\n      tag_208\n        /* \"#utility.yul\":7768:8112   */\n      jump\n        /* \"ERC721A/MintNagaKids.sol\":5398:5452  require(balanceOFContract > 0, \"Insufficient Balance\") */\n    tag_211:\n        /* \"ERC721A/MintNagaKids.sol\":5464:5475  bool status */\n      0x00\n        /* \"ERC721A/MintNagaKids.sol\":5480:5483  _to */\n      dup3\n      sub(shl(0xa0, 0x01), 0x01)\n        /* \"ERC721A/MintNagaKids.sol\":5480:5488  _to.call */\n      and\n        /* \"ERC721A/MintNagaKids.sol\":5496:5513  balanceOFContract */\n      dup3\n        /* \"ERC721A/MintNagaKids.sol\":5480:5519  _to.call{value: balanceOFContract }(\"\") */\n      mload(0x40)\n      0x00\n      mload(0x40)\n      dup1\n      dup4\n      sub\n      dup2\n      dup6\n      dup8\n      gas\n      call\n      swap3\n      pop\n      pop\n      pop\n      returndatasize\n      dup1\n      0x00\n      dup2\n      eq\n      tag_218\n      jumpi\n      mload(0x40)\n      swap2\n      pop\n      and(add(returndatasize, 0x3f), not(0x1f))\n      dup3\n      add\n      0x40\n      mstore\n      returndatasize\n      dup3\n      mstore\n      returndatasize\n      0x00\n      0x20\n      dup5\n      add\n      returndatacopy\n      jump(tag_217)\n    tag_218:\n      0x60\n      swap2\n      pop\n    tag_217:\n      pop\n        /* \"ERC721A/MintNagaKids.sol\":5463:5519  (bool status,) = _to.call{value: balanceOFContract }(\"\") */\n      pop\n      swap1\n      pop\n        /* \"ERC721A/MintNagaKids.sol\":5538:5544  status */\n      dup1\n        /* \"ERC721A/MintNagaKids.sol\":5530:5545  require(status) */\n      tag_219\n      jumpi\n      0x00\n      dup1\n      revert\n    tag_219:\n        /* \"ERC721A/MintNagaKids.sol\":5563:5612  Withdraw(_to, balanceOFContract ,block.timestamp) */\n      0x40\n      dup1\n      mload\n      sub(shl(0xa0, 0x01), 0x01)\n        /* \"#utility.yul\":8547:8579   */\n      dup6\n      and\n        /* \"#utility.yul\":8529:8580   */\n      dup2\n      mstore\n        /* \"#utility.yul\":8611:8613   */\n      0x20\n        /* \"#utility.yul\":8596:8614   */\n      dup2\n      add\n        /* \"#utility.yul\":8589:8623   */\n      dup5\n      swap1\n      mstore\n        /* \"ERC721A/MintNagaKids.sol\":5596:5611  block.timestamp */\n      timestamp\n        /* \"#utility.yul\":8639:8657   */\n      swap2\n      dup2\n      add\n        /* \"#utility.yul\":8632:8666   */\n      swap2\n      swap1\n      swap2\n      mstore\n        /* \"ERC721A/MintNagaKids.sol\":5563:5612  Withdraw(_to, balanceOFContract ,block.timestamp) */\n      0xf279e6a1f5e320cca91135676d9cb6e44ca8a08c0b88342bcdb1144f6511b568\n      swap1\n        /* \"#utility.yul\":8517:8519   */\n      0x60\n        /* \"#utility.yul\":8502:8520   */\n      add\n        /* \"ERC721A/MintNagaKids.sol\":5563:5612  Withdraw(_to, balanceOFContract ,block.timestamp) */\n    tag_220:\n      mload(0x40)\n      dup1\n      swap2\n      sub\n      swap1\n      log1\n        /* \"ERC721A/MintNagaKids.sol\":5330:5620  {... */\n      pop\n      pop\n        /* \"ERC721A/MintNagaKids.sol\":5282:5620  function withdraw(address _to) public onlyOwner {... */\n      pop\n      jump\t// out\n        /* \"ERC721A/MintNagaKids.sol\":2916:3100  function setSigner(address _signer) public onlyOwner {... */\n    tag_84:\n        /* \"@openzeppelin/contracts/access/Ownable.sol\":1082:1089  address */\n      0x00\n        /* \"@openzeppelin/contracts/access/Ownable.sol\":1108:1114  _owner */\n      sload\n      sub(shl(0xa0, 0x01), 0x01)\n      and\n        /* \"@openzeppelin/contracts/utils/Context.sol\":719:729  msg.sender */\n      caller\n        /* \"@openzeppelin/contracts/access/Ownable.sol\":1248:1271  owner() == _msgSender() */\n      eq\n        /* \"@openzeppelin/contracts/access/Ownable.sol\":1240:1308  require(owner() == _msgSender(), \"Ownable: caller is not the owner\") */\n      tag_225\n      jumpi\n      mload(0x40)\n      shl(0xe5, 0x461bcd)\n      dup2\n      mstore\n      0x04\n      add\n      tag_208\n      swap1\n      tag_209\n      jump\t// in\n    tag_225:\n        /* \"ERC721A/MintNagaKids.sol\":3004:3010  signer */\n      0x05\n      dup1\n      sload\n      sub(shl(0xa0, 0x01), 0x01)\n        /* \"ERC721A/MintNagaKids.sol\":3021:3037  signer = _signer */\n      dup4\n      dup2\n      and\n        /* \"ERC721A/MintNagaKids.sol\":3004:3010  signer */\n      0x010000\n        /* \"ERC721A/MintNagaKids.sol\":3021:3037  signer = _signer */\n      dup2\n      dup2\n      mul\n      not(sub(shl(0xb0, 0x01), 0x010000))\n      dup6\n      and\n      or\n      swap1\n      swap5\n      sstore\n        /* \"ERC721A/MintNagaKids.sol\":3055:3092  SignerChanged(_signerBefore, _signer) */\n      0x40\n      dup1\n      mload\n        /* \"ERC721A/MintNagaKids.sol\":3004:3010  signer */\n      swap5\n      swap1\n      swap4\n      div\n      swap1\n      swap2\n      and\n        /* \"#utility.yul\":8889:8923   */\n      dup1\n      dup5\n      mstore\n        /* \"#utility.yul\":8954:8956   */\n      0x20\n        /* \"#utility.yul\":8939:8957   */\n      dup5\n      add\n        /* \"#utility.yul\":8932:8975   */\n      swap2\n      swap1\n      swap2\n      mstore\n        /* \"ERC721A/MintNagaKids.sol\":3004:3010  signer */\n      swap2\n        /* \"ERC721A/MintNagaKids.sol\":3055:3092  SignerChanged(_signerBefore, _signer) */\n      0xeeb293e1f8f3a9db91ade748726387ed1352ca78f5430c5f06fe3d1e1ad50579\n      swap2\n        /* \"#utility.yul\":8824:8842   */\n      add\n        /* \"ERC721A/MintNagaKids.sol\":3055:3092  SignerChanged(_signerBefore, _signer) */\n    tag_228:\n      mload(0x40)\n      dup1\n      swap2\n      sub\n      swap1\n      log1\n        /* \"ERC721A/MintNagaKids.sol\":2969:3100  {... */\n      pop\n        /* \"ERC721A/MintNagaKids.sol\":2916:3100  function setSigner(address _signer) public onlyOwner {... */\n      pop\n      jump\t// out\n        /* \"@openzeppelin/contracts/access/Ownable.sol\":1668:1769  function renounceOwnership() public virtual onlyOwner {... */\n    tag_87:\n        /* \"@openzeppelin/contracts/access/Ownable.sol\":1082:1089  address */\n      0x00\n        /* \"@openzeppelin/contracts/access/Ownable.sol\":1108:1114  _owner */\n      sload\n      sub(shl(0xa0, 0x01), 0x01)\n      and\n        /* \"@openzeppelin/contracts/utils/Context.sol\":719:729  msg.sender */\n      caller\n        /* \"@openzeppelin/contracts/access/Ownable.sol\":1248:1271  owner() == _msgSender() */\n      eq\n        /* \"@openzeppelin/contracts/access/Ownable.sol\":1240:1308  require(owner() == _msgSender(), \"Ownable: caller is not the owner\") */\n      tag_233\n      jumpi\n      mload(0x40)\n      shl(0xe5, 0x461bcd)\n      dup2\n      mstore\n      0x04\n      add\n      tag_208\n      swap1\n      tag_209\n      jump\t// in\n    tag_233:\n        /* \"@openzeppelin/contracts/access/Ownable.sol\":1732:1762  _transferOwnership(address(0)) */\n      tag_236\n        /* \"@openzeppelin/contracts/access/Ownable.sol\":1759:1760  0 */\n      0x00\n        /* \"@openzeppelin/contracts/access/Ownable.sol\":1732:1750  _transferOwnership */\n      tag_237\n        /* \"@openzeppelin/contracts/access/Ownable.sol\":1732:1762  _transferOwnership(address(0)) */\n      jump\t// in\n    tag_236:\n        /* \"@openzeppelin/contracts/access/Ownable.sol\":1668:1769  function renounceOwnership() public virtual onlyOwner {... */\n      jump\t// out\n        /* \"ERC721A/MintNagaKids.sol\":3108:3328  function setMerkleRoot(bytes32 _merkleRoot) public onlyOwner {... */\n    tag_92:\n        /* \"@openzeppelin/contracts/access/Ownable.sol\":1082:1089  address */\n      0x00\n        /* \"@openzeppelin/contracts/access/Ownable.sol\":1108:1114  _owner */\n      sload\n      sub(shl(0xa0, 0x01), 0x01)\n      and\n        /* \"@openzeppelin/contracts/utils/Context.sol\":719:729  msg.sender */\n      caller\n        /* \"@openzeppelin/contracts/access/Ownable.sol\":1248:1271  owner() == _msgSender() */\n      eq\n        /* \"@openzeppelin/contracts/access/Ownable.sol\":1240:1308  require(owner() == _msgSender(), \"Ownable: caller is not the owner\") */\n      tag_241\n      jumpi\n      mload(0x40)\n      shl(0xe5, 0x461bcd)\n      dup2\n      mstore\n      0x04\n      add\n      tag_208\n      swap1\n      tag_209\n      jump\t// in\n    tag_241:\n        /* \"ERC721A/MintNagaKids.sol\":3208:3218  merkleRoot */\n      0x04\n      dup1\n      sload\n        /* \"ERC721A/MintNagaKids.sol\":3229:3253  merkleRoot = _merkleRoot */\n      swap1\n      dup3\n      swap1\n      sstore\n        /* \"ERC721A/MintNagaKids.sol\":3271:3320  MerkleRootChanged(_merkleRootBefore, _merkleRoot) */\n      0x40\n      dup1\n      mload\n        /* \"#utility.yul\":9160:9185   */\n      dup3\n      dup2\n      mstore\n        /* \"#utility.yul\":9216:9218   */\n      0x20\n        /* \"#utility.yul\":9201:9219   */\n      dup2\n      add\n        /* \"#utility.yul\":9194:9228   */\n      dup5\n      swap1\n      mstore\n        /* \"ERC721A/MintNagaKids.sol\":3271:3320  MerkleRootChanged(_merkleRootBefore, _merkleRoot) */\n      0x123d88ba82600dfc3f219f8885c691b0ff020caa535666874b3f5174973757fe\n      swap2\n        /* \"#utility.yul\":9133:9151   */\n      add\n        /* \"ERC721A/MintNagaKids.sol\":3271:3320  MerkleRootChanged(_merkleRootBefore, _merkleRoot) */\n      tag_228\n        /* \"#utility.yul\":8986:9234   */\n      jump\n        /* \"ERC721A/MintNagaKids.sol\":5628:6005  function withdrawCurrency(address _to,address _currency) public onlyOwner {... */\n    tag_97:\n        /* \"@openzeppelin/contracts/access/Ownable.sol\":1082:1089  address */\n      0x00\n        /* \"@openzeppelin/contracts/access/Ownable.sol\":1108:1114  _owner */\n      sload\n      sub(shl(0xa0, 0x01), 0x01)\n      and\n        /* \"@openzeppelin/contracts/utils/Context.sol\":719:729  msg.sender */\n      caller\n        /* \"@openzeppelin/contracts/access/Ownable.sol\":1248:1271  owner() == _msgSender() */\n      eq\n        /* \"@openzeppelin/contracts/access/Ownable.sol\":1240:1308  require(owner() == _msgSender(), \"Ownable: caller is not the owner\") */\n      tag_249\n      jumpi\n      mload(0x40)\n      shl(0xe5, 0x461bcd)\n      dup2\n      mstore\n      0x04\n      add\n      tag_208\n      swap1\n      tag_209\n      jump\t// in\n    tag_249:\n        /* \"ERC721A/MintNagaKids.sol\":5738:5780  IERC20(_currency).balanceOf(address(this)) */\n      mload(0x40)\n      shl(0xe0, 0x70a08231)\n      dup2\n      mstore\n        /* \"ERC721A/MintNagaKids.sol\":5774:5778  this */\n      address\n        /* \"ERC721A/MintNagaKids.sol\":5738:5780  IERC20(_currency).balanceOf(address(this)) */\n      0x04\n      dup3\n      add\n        /* \"#utility.yul\":730:781   */\n      mstore\n        /* \"ERC721A/MintNagaKids.sol\":5713:5735  uint balanceOfContract */\n      0x00\n      swap1\n      sub(shl(0xa0, 0x01), 0x01)\n        /* \"ERC721A/MintNagaKids.sol\":5738:5765  IERC20(_currency).balanceOf */\n      dup4\n      and\n      swap1\n      0x70a08231\n      swap1\n        /* \"#utility.yul\":703:721   */\n      0x24\n      add\n        /* \"ERC721A/MintNagaKids.sol\":5738:5780  IERC20(_currency).balanceOf(address(this)) */\n      0x20\n      mload(0x40)\n      dup1\n      dup4\n      sub\n      dup2\n      dup7\n      gas\n      staticcall\n      iszero\n      dup1\n      iszero\n      tag_254\n      jumpi\n      returndatasize\n      0x00\n      dup1\n      returndatacopy\n      revert(0x00, returndatasize)\n    tag_254:\n      pop\n      pop\n      pop\n      pop\n      mload(0x40)\n      returndatasize\n      not(0x1f)\n      0x1f\n      dup3\n      add\n      and\n      dup3\n      add\n      dup1\n      0x40\n      mstore\n      pop\n      dup2\n      add\n      swap1\n      tag_255\n      swap2\n      swap1\n      tag_202\n      jump\t// in\n    tag_255:\n        /* \"ERC721A/MintNagaKids.sol\":5713:5780  uint balanceOfContract = IERC20(_currency).balanceOf(address(this)) */\n      swap1\n      pop\n        /* \"ERC721A/MintNagaKids.sol\":5819:5820  0 */\n      0x00\n        /* \"ERC721A/MintNagaKids.sol\":5799:5816  balanceOfContract */\n      dup2\n        /* \"ERC721A/MintNagaKids.sol\":5799:5820  balanceOfContract > 0 */\n      gt\n        /* \"ERC721A/MintNagaKids.sol\":5791:5845  require(balanceOfContract > 0, \"Insufficient Balance\") */\n      tag_256\n      jumpi\n      mload(0x40)\n      shl(0xe5, 0x461bcd)\n      dup2\n      mstore\n        /* \"#utility.yul\":7970:7972   */\n      0x20\n        /* \"ERC721A/MintNagaKids.sol\":5791:5845  require(balanceOfContract > 0, \"Insufficient Balance\") */\n      0x04\n      dup3\n      add\n        /* \"#utility.yul\":7952:7973   */\n      mstore\n        /* \"#utility.yul\":8009:8011   */\n      0x14\n        /* \"#utility.yul\":7989:8007   */\n      0x24\n      dup3\n      add\n        /* \"#utility.yul\":7982:8012   */\n      mstore\n      shl(0x60, 0x496e73756666696369656e742042616c616e6365)\n        /* \"#utility.yul\":8028:8046   */\n      0x44\n      dup3\n      add\n        /* \"#utility.yul\":8021:8071   */\n      mstore\n        /* \"#utility.yul\":8088:8106   */\n      0x64\n      add\n        /* \"ERC721A/MintNagaKids.sol\":5791:5845  require(balanceOfContract > 0, \"Insufficient Balance\") */\n      tag_208\n        /* \"#utility.yul\":7768:8112   */\n      jump\n        /* \"ERC721A/MintNagaKids.sol\":5791:5845  require(balanceOfContract > 0, \"Insufficient Balance\") */\n    tag_256:\n        /* \"ERC721A/MintNagaKids.sol\":5856:5906  IERC20(_currency).transfer(_to, balanceOfContract) */\n      mload(0x40)\n      shl(0xe0, 0xa9059cbb)\n      dup2\n      mstore\n      sub(shl(0xa0, 0x01), 0x01)\n        /* \"#utility.yul\":9431:9463   */\n      dup5\n      dup2\n      and\n        /* \"ERC721A/MintNagaKids.sol\":5856:5906  IERC20(_currency).transfer(_to, balanceOfContract) */\n      0x04\n      dup4\n      add\n        /* \"#utility.yul\":9413:9464   */\n      mstore\n        /* \"#utility.yul\":9480:9498   */\n      0x24\n      dup3\n      add\n        /* \"#utility.yul\":9473:9507   */\n      dup4\n      swap1\n      mstore\n        /* \"ERC721A/MintNagaKids.sol\":5856:5882  IERC20(_currency).transfer */\n      dup4\n      and\n      swap1\n      0xa9059cbb\n      swap1\n        /* \"#utility.yul\":9386:9404   */\n      0x44\n      add\n        /* \"ERC721A/MintNagaKids.sol\":5856:5906  IERC20(_currency).transfer(_to, balanceOfContract) */\n      0x20\n      mload(0x40)\n      dup1\n      dup4\n      sub\n      dup2\n      0x00\n      dup8\n      gas\n      call\n      iszero\n      dup1\n      iszero\n      tag_261\n      jumpi\n      returndatasize\n      0x00\n      dup1\n      returndatacopy\n      revert(0x00, returndatasize)\n    tag_261:\n      pop\n      pop\n      pop\n      pop\n      mload(0x40)\n      returndatasize\n      not(0x1f)\n      0x1f\n      dup3\n      add\n      and\n      dup3\n      add\n      dup1\n      0x40\n      mstore\n      pop\n      dup2\n      add\n      swap1\n      tag_262\n      swap2\n      swap1\n      tag_263\n      jump\t// in\n    tag_262:\n      pop\n        /* \"ERC721A/MintNagaKids.sol\":5932:5997  WithdrawCurrency(_to,_currency,balanceOfContract,block.timestamp) */\n      0x40\n      dup1\n      mload\n      sub(shl(0xa0, 0x01), 0x01)\n        /* \"#utility.yul\":10087:10102   */\n      dup1\n      dup7\n      and\n        /* \"#utility.yul\":10069:10103   */\n      dup3\n      mstore\n        /* \"#utility.yul\":10139:10154   */\n      dup5\n      and\n        /* \"#utility.yul\":10134:10136   */\n      0x20\n        /* \"#utility.yul\":10119:10137   */\n      dup3\n      add\n        /* \"#utility.yul\":10112:10155   */\n      mstore\n        /* \"#utility.yul\":10171:10189   */\n      swap1\n      dup2\n      add\n        /* \"#utility.yul\":10164:10198   */\n      dup3\n      swap1\n      mstore\n        /* \"ERC721A/MintNagaKids.sol\":5981:5996  block.timestamp */\n      timestamp\n        /* \"#utility.yul\":10229:10231   */\n      0x60\n        /* \"#utility.yul\":10214:10232   */\n      dup3\n      add\n        /* \"#utility.yul\":10207:10241   */\n      mstore\n        /* \"ERC721A/MintNagaKids.sol\":5932:5997  WithdrawCurrency(_to,_currency,balanceOfContract,block.timestamp) */\n      0xb818a975f91276df8ba59329becbc23c793df0d503c19ac296c3c372a1fa0461\n      swap1\n        /* \"#utility.yul\":10018:10021   */\n      0x80\n        /* \"#utility.yul\":10003:10022   */\n      add\n        /* \"ERC721A/MintNagaKids.sol\":5932:5997  WithdrawCurrency(_to,_currency,balanceOfContract,block.timestamp) */\n      tag_220\n        /* \"#utility.yul\":9800:10247   */\n      jump\n        /* \"ERC721A/VerifySignature.sol\":1127:1401  function recoverSigner(... */\n    tag_110:\n        /* \"ERC721A/VerifySignature.sol\":1252:1259  address */\n      0x00\n        /* \"ERC721A/VerifySignature.sol\":1273:1282  bytes32 r */\n      dup1\n        /* \"ERC721A/VerifySignature.sol\":1284:1293  bytes32 s */\n      0x00\n        /* \"ERC721A/VerifySignature.sol\":1295:1302  uint8 v */\n      dup1\n        /* \"ERC721A/VerifySignature.sol\":1306:1332  splitSignature(_signature) */\n      tag_268\n        /* \"ERC721A/VerifySignature.sol\":1321:1331  _signature */\n      dup6\n        /* \"ERC721A/VerifySignature.sol\":1306:1320  splitSignature */\n      tag_125\n        /* \"ERC721A/VerifySignature.sol\":1306:1332  splitSignature(_signature) */\n      jump\t// in\n    tag_268:\n        /* \"ERC721A/VerifySignature.sol\":1352:1393  ecrecover(_ethSignedMessageHash, v, r, s) */\n      0x40\n      dup1\n      mload\n      0x00\n      dup2\n      mstore\n      0x20\n      dup2\n      add\n      dup1\n      dup4\n      mstore\n        /* \"#utility.yul\":10479:10504   */\n      dup12\n      swap1\n      mstore\n        /* \"#utility.yul\":10552:10556   */\n      0xff\n        /* \"#utility.yul\":10540:10557   */\n      dup4\n      and\n        /* \"#utility.yul\":10520:10538   */\n      swap2\n      dup2\n      add\n        /* \"#utility.yul\":10513:10558   */\n      swap2\n      swap1\n      swap2\n      mstore\n        /* \"#utility.yul\":10574:10592   */\n      0x60\n      dup2\n      add\n        /* \"#utility.yul\":10567:10601   */\n      dup5\n      swap1\n      mstore\n        /* \"#utility.yul\":10617:10635   */\n      0x80\n      dup2\n      add\n        /* \"#utility.yul\":10610:10644   */\n      dup4\n      swap1\n      mstore\n        /* \"ERC721A/VerifySignature.sol\":1272:1332  (bytes32 r, bytes32 s, uint8 v) = splitSignature(_signature) */\n      swap3\n      swap6\n      pop\n      swap1\n      swap4\n      pop\n      swap2\n      pop\n        /* \"ERC721A/VerifySignature.sol\":1352:1393  ecrecover(_ethSignedMessageHash, v, r, s) */\n      0x01\n      swap1\n        /* \"#utility.yul\":10451:10470   */\n      0xa0\n      add\n        /* \"ERC721A/VerifySignature.sol\":1352:1393  ecrecover(_ethSignedMessageHash, v, r, s) */\n      0x20\n      mload(0x40)\n      0x20\n      dup2\n      sub\n      swap1\n      dup1\n      dup5\n      sub\n      swap1\n      dup6\n      gas\n      staticcall\n      iszero\n      dup1\n      iszero\n      tag_272\n      jumpi\n      returndatasize\n      0x00\n      dup1\n      returndatacopy\n      revert(0x00, returndatasize)\n    tag_272:\n      pop\n      pop\n      mload(add(not(0x1f), mload(0x40)))\n      swap8\n        /* \"ERC721A/VerifySignature.sol\":1127:1401  function recoverSigner(... */\n      swap7\n      pop\n      pop\n      pop\n      pop\n      pop\n      pop\n      pop\n      jump\t// out\n        /* \"ERC721A/MintNagaKids.sol\":2415:2703  function setNagaKidContract(INagaKid _nagaKid) public onlyOwner {... */\n    tag_116:\n        /* \"@openzeppelin/contracts/access/Ownable.sol\":1082:1089  address */\n      0x00\n        /* \"@openzeppelin/contracts/access/Ownable.sol\":1108:1114  _owner */\n      sload\n      sub(shl(0xa0, 0x01), 0x01)\n      and\n        /* \"@openzeppelin/contracts/utils/Context.sol\":719:729  msg.sender */\n      caller\n        /* \"@openzeppelin/contracts/access/Ownable.sol\":1248:1271  owner() == _msgSender() */\n      eq\n        /* \"@openzeppelin/contracts/access/Ownable.sol\":1240:1308  require(owner() == _msgSender(), \"Ownable: caller is not the owner\") */\n      tag_276\n      jumpi\n      mload(0x40)\n      shl(0xe5, 0x461bcd)\n      dup2\n      mstore\n      0x04\n      add\n      tag_208\n      swap1\n      tag_209\n      jump\t// in\n    tag_276:\n        /* \"ERC721A/MintNagaKids.sol\":2522:2537  nagaKidContract */\n      0x02\n      dup1\n      sload\n      sub(shl(0xa0, 0x01), 0x01)\n        /* \"ERC721A/MintNagaKids.sol\":2549:2575  nagaKidContract = _nagaKid */\n      dup4\n      dup2\n      and\n      not(sub(shl(0xa0, 0x01), 0x01))\n      dup4\n      and\n      dup2\n      or\n      swap1\n      swap4\n      sstore\n        /* \"ERC721A/MintNagaKids.sol\":2644:2695  NagaKidContractChanged(nagaKidBefore, nagaKidAfter) */\n      0x40\n      dup1\n      mload\n        /* \"ERC721A/MintNagaKids.sol\":2522:2537  nagaKidContract */\n      swap2\n      swap1\n      swap3\n      and\n        /* \"#utility.yul\":8889:8923   */\n      dup1\n      dup3\n      mstore\n        /* \"#utility.yul\":8954:8956   */\n      0x20\n        /* \"#utility.yul\":8939:8957   */\n      dup3\n      add\n        /* \"#utility.yul\":8932:8975   */\n      swap4\n      swap1\n      swap4\n      mstore\n        /* \"ERC721A/MintNagaKids.sol\":2549:2575  nagaKidContract = _nagaKid */\n      dup4\n      swap2\n        /* \"ERC721A/MintNagaKids.sol\":2644:2695  NagaKidContractChanged(nagaKidBefore, nagaKidAfter) */\n      0xabdf056c85a221fcb31d0366c4475b6b2c613df2eeea951a9fcb3e1a8595d973\n      swap2\n        /* \"#utility.yul\":8824:8842   */\n      add\n        /* \"ERC721A/MintNagaKids.sol\":2644:2695  NagaKidContractChanged(nagaKidBefore, nagaKidAfter) */\n      tag_220\n        /* \"#utility.yul\":8677:8981   */\n      jump\n        /* \"ERC721A/VerifySignature.sol\":1409:2300  function splitSignature(bytes memory sig)... */\n    tag_125:\n        /* \"ERC721A/VerifySignature.sol\":1513:1522  bytes32 r */\n      0x00\n        /* \"ERC721A/VerifySignature.sol\":1537:1546  bytes32 s */\n      dup1\n        /* \"ERC721A/VerifySignature.sol\":1561:1568  uint8 v */\n      0x00\n        /* \"ERC721A/VerifySignature.sol\":1604:1607  sig */\n      dup4\n        /* \"ERC721A/VerifySignature.sol\":1604:1614  sig.length */\n      mload\n        /* \"ERC721A/VerifySignature.sol\":1618:1620  65 */\n      0x41\n        /* \"ERC721A/VerifySignature.sol\":1604:1620  sig.length == 65 */\n      eq\n        /* \"ERC721A/VerifySignature.sol\":1596:1649  require(sig.length == 65, \"invalid signature length\") */\n      tag_281\n      jumpi\n      mload(0x40)\n      shl(0xe5, 0x461bcd)\n      dup2\n      mstore\n        /* \"#utility.yul\":10857:10859   */\n      0x20\n        /* \"ERC721A/VerifySignature.sol\":1596:1649  require(sig.length == 65, \"invalid signature length\") */\n      0x04\n      dup3\n      add\n        /* \"#utility.yul\":10839:10860   */\n      mstore\n        /* \"#utility.yul\":10896:10898   */\n      0x18\n        /* \"#utility.yul\":10876:10894   */\n      0x24\n      dup3\n      add\n        /* \"#utility.yul\":10869:10899   */\n      mstore\n        /* \"#utility.yul\":10935:10961   */\n      0x696e76616c6964207369676e6174757265206c656e6774680000000000000000\n        /* \"#utility.yul\":10915:10933   */\n      0x44\n      dup3\n      add\n        /* \"#utility.yul\":10908:10962   */\n      mstore\n        /* \"#utility.yul\":10979:10997   */\n      0x64\n      add\n        /* \"ERC721A/VerifySignature.sol\":1596:1649  require(sig.length == 65, \"invalid signature length\") */\n      tag_208\n        /* \"#utility.yul\":10655:11003   */\n      jump\n        /* \"ERC721A/VerifySignature.sol\":1596:1649  require(sig.length == 65, \"invalid signature length\") */\n    tag_281:\n      pop\n      pop\n      pop\n        /* \"ERC721A/VerifySignature.sol\":2058:2060  32 */\n      0x20\n        /* \"ERC721A/VerifySignature.sol\":2049:2061  add(sig, 32) */\n      dup2\n      add\n        /* \"ERC721A/VerifySignature.sol\":2043:2062  mload(add(sig, 32)) */\n      mload\n        /* \"ERC721A/VerifySignature.sol\":2128:2130  64 */\n      0x40\n        /* \"ERC721A/VerifySignature.sol\":2119:2131  add(sig, 64) */\n      dup3\n      add\n        /* \"ERC721A/VerifySignature.sol\":2113:2132  mload(add(sig, 64)) */\n      mload\n        /* \"ERC721A/VerifySignature.sol\":2235:2237  96 */\n      0x60\n        /* \"ERC721A/VerifySignature.sol\":2226:2238  add(sig, 96) */\n      swap1\n      swap3\n      add\n        /* \"ERC721A/VerifySignature.sol\":2220:2239  mload(add(sig, 96)) */\n      mload\n        /* \"ERC721A/VerifySignature.sol\":2043:2062  mload(add(sig, 32)) */\n      swap1\n      swap3\n        /* \"ERC721A/VerifySignature.sol\":2217:2218  0 */\n      0x00\n        /* \"ERC721A/VerifySignature.sol\":2212:2240  byte(0, mload(add(sig, 96))) */\n      swap2\n      swap1\n      swap2\n      byte\n      swap1\n        /* \"ERC721A/VerifySignature.sol\":1409:2300  function splitSignature(bytes memory sig)... */\n      jump\t// out\n        /* \"ERC721A/MintNagaKids.sol\":6013:6356  function withdrawNFT(address _to,address _NFT,uint256 _tokenId) public onlyOwner {... */\n    tag_138:\n        /* \"@openzeppelin/contracts/access/Ownable.sol\":1082:1089  address */\n      0x00\n        /* \"@openzeppelin/contracts/access/Ownable.sol\":1108:1114  _owner */\n      sload\n      sub(shl(0xa0, 0x01), 0x01)\n      and\n        /* \"@openzeppelin/contracts/utils/Context.sol\":719:729  msg.sender */\n      caller\n        /* \"@openzeppelin/contracts/access/Ownable.sol\":1248:1271  owner() == _msgSender() */\n      eq\n        /* \"@openzeppelin/contracts/access/Ownable.sol\":1240:1308  require(owner() == _msgSender(), \"Ownable: caller is not the owner\") */\n      tag_288\n      jumpi\n      mload(0x40)\n      shl(0xe5, 0x461bcd)\n      dup2\n      mstore\n      0x04\n      add\n      tag_208\n      swap1\n      tag_209\n      jump\t// in\n    tag_288:\n        /* \"ERC721A/MintNagaKids.sol\":6113:6144  IERC721(_NFT).ownerOf(_tokenId) */\n      mload(0x40)\n      shl(0xe1, 0x31a9108f)\n      dup2\n      mstore\n      0x04\n      dup2\n      add\n        /* \"#utility.yul\":160:185   */\n      dup3\n      swap1\n      mstore\n        /* \"ERC721A/MintNagaKids.sol\":6156:6160  this */\n      address\n      swap1\n      sub(shl(0xa0, 0x01), 0x01)\n        /* \"ERC721A/MintNagaKids.sol\":6113:6134  IERC721(_NFT).ownerOf */\n      dup5\n      and\n      swap1\n      0x6352211e\n      swap1\n        /* \"#utility.yul\":133:151   */\n      0x24\n      add\n        /* \"ERC721A/MintNagaKids.sol\":6113:6144  IERC721(_NFT).ownerOf(_tokenId) */\n      0x20\n      mload(0x40)\n      dup1\n      dup4\n      sub\n      dup2\n      dup7\n      gas\n      staticcall\n      iszero\n      dup1\n      iszero\n      tag_293\n      jumpi\n      returndatasize\n      0x00\n      dup1\n      returndatacopy\n      revert(0x00, returndatasize)\n    tag_293:\n      pop\n      pop\n      pop\n      pop\n      mload(0x40)\n      returndatasize\n      not(0x1f)\n      0x1f\n      dup3\n      add\n      and\n      dup3\n      add\n      dup1\n      0x40\n      mstore\n      pop\n      dup2\n      add\n      swap1\n      tag_294\n      swap2\n      swap1\n      tag_295\n      jump\t// in\n    tag_294:\n      sub(shl(0xa0, 0x01), 0x01)\n        /* \"ERC721A/MintNagaKids.sol\":6113:6161  IERC721(_NFT).ownerOf(_tokenId) == address(this) */\n      and\n      eq\n        /* \"ERC721A/MintNagaKids.sol\":6105:6203  require(IERC721(_NFT).ownerOf(_tokenId) == address(this), \"This tokenId is not owned by contract\") */\n      tag_296\n      jumpi\n      mload(0x40)\n      shl(0xe5, 0x461bcd)\n      dup2\n      mstore\n        /* \"#utility.yul\":11466:11468   */\n      0x20\n        /* \"ERC721A/MintNagaKids.sol\":6105:6203  require(IERC721(_NFT).ownerOf(_tokenId) == address(this), \"This tokenId is not owned by contract\") */\n      0x04\n      dup3\n      add\n        /* \"#utility.yul\":11448:11469   */\n      mstore\n        /* \"#utility.yul\":11505:11507   */\n      0x25\n        /* \"#utility.yul\":11485:11503   */\n      0x24\n      dup3\n      add\n        /* \"#utility.yul\":11478:11508   */\n      mstore\n        /* \"#utility.yul\":11544:11578   */\n      0x5468697320746f6b656e4964206973206e6f74206f776e656420627920636f6e\n        /* \"#utility.yul\":11524:11542   */\n      0x44\n      dup3\n      add\n        /* \"#utility.yul\":11517:11579   */\n      mstore\n      shl(0xda, 0x1d1c9858dd)\n        /* \"#utility.yul\":11595:11613   */\n      0x64\n      dup3\n      add\n        /* \"#utility.yul\":11588:11623   */\n      mstore\n        /* \"#utility.yul\":11640:11659   */\n      0x84\n      add\n        /* \"ERC721A/MintNagaKids.sol\":6105:6203  require(IERC721(_NFT).ownerOf(_tokenId) == address(this), \"This tokenId is not owned by contract\") */\n      tag_208\n        /* \"#utility.yul\":11264:11665   */\n      jump\n        /* \"ERC721A/MintNagaKids.sol\":6105:6203  require(IERC721(_NFT).ownerOf(_tokenId) == address(this), \"This tokenId is not owned by contract\") */\n    tag_296:\n        /* \"ERC721A/MintNagaKids.sol\":6216:6276  IERC721(_NFT).safeTransferFrom(address(this), _to, _tokenId) */\n      mload(0x40)\n      shl(0xe1, 0x21421707)\n      dup2\n      mstore\n        /* \"ERC721A/MintNagaKids.sol\":6255:6259  this */\n      address\n        /* \"ERC721A/MintNagaKids.sol\":6216:6276  IERC721(_NFT).safeTransferFrom(address(this), _to, _tokenId) */\n      0x04\n      dup3\n      add\n        /* \"#utility.yul\":11910:11944   */\n      mstore\n      sub(shl(0xa0, 0x01), 0x01)\n        /* \"#utility.yul\":11980:11995   */\n      dup5\n      dup2\n      and\n        /* \"#utility.yul\":11960:11978   */\n      0x24\n      dup4\n      add\n        /* \"#utility.yul\":11953:11996   */\n      mstore\n        /* \"#utility.yul\":12012:12030   */\n      0x44\n      dup3\n      add\n        /* \"#utility.yul\":12005:12039   */\n      dup4\n      swap1\n      mstore\n        /* \"ERC721A/MintNagaKids.sol\":6216:6246  IERC721(_NFT).safeTransferFrom */\n      dup4\n      and\n      swap1\n      0x42842e0e\n      swap1\n        /* \"#utility.yul\":11845:11863   */\n      0x64\n      add\n        /* \"ERC721A/MintNagaKids.sol\":6216:6276  IERC721(_NFT).safeTransferFrom(address(this), _to, _tokenId) */\n      0x00\n      mload(0x40)\n      dup1\n      dup4\n      sub\n      dup2\n      0x00\n      dup8\n      dup1\n      extcodesize\n      iszero\n      dup1\n      iszero\n      tag_301\n      jumpi\n      0x00\n      dup1\n      revert\n    tag_301:\n      pop\n      gas\n      call\n      iszero\n      dup1\n      iszero\n      tag_303\n      jumpi\n      returndatasize\n      0x00\n      dup1\n      returndatacopy\n      revert(0x00, returndatasize)\n    tag_303:\n      pop\n      pop\n        /* \"ERC721A/MintNagaKids.sol\":6302:6348  WithdrawNFT(_to,_NFT,_tokenId,block.timestamp) */\n      0x40\n      dup1\n      mload\n      sub(shl(0xa0, 0x01), 0x01)\n        /* \"#utility.yul\":10087:10102   */\n      dup1\n      dup9\n      and\n        /* \"#utility.yul\":10069:10103   */\n      dup3\n      mstore\n        /* \"#utility.yul\":10139:10154   */\n      dup7\n      and\n        /* \"#utility.yul\":10134:10136   */\n      0x20\n        /* \"#utility.yul\":10119:10137   */\n      dup3\n      add\n        /* \"#utility.yul\":10112:10155   */\n      mstore\n        /* \"#utility.yul\":10171:10189   */\n      swap1\n      dup2\n      add\n        /* \"#utility.yul\":10164:10198   */\n      dup5\n      swap1\n      mstore\n        /* \"ERC721A/MintNagaKids.sol\":6332:6347  block.timestamp */\n      timestamp\n        /* \"#utility.yul\":10229:10231   */\n      0x60\n        /* \"#utility.yul\":10214:10232   */\n      dup3\n      add\n        /* \"#utility.yul\":10207:10241   */\n      mstore\n        /* \"ERC721A/MintNagaKids.sol\":6302:6348  WithdrawNFT(_to,_NFT,_tokenId,block.timestamp) */\n      0x0127a8d3f57942833f6930572bce52ad882683e36eeb5830d199d3fa4bfa9467\n      swap3\n      pop\n        /* \"#utility.yul\":10018:10021   */\n      0x80\n        /* \"#utility.yul\":10003:10022   */\n      add\n      swap1\n      pop\n        /* \"ERC721A/MintNagaKids.sol\":6302:6348  WithdrawNFT(_to,_NFT,_tokenId,block.timestamp) */\n      tag_220\n        /* \"#utility.yul\":9800:10247   */\n      jump\n        /* \"ERC721A/MintNagaKids.sol\":6655:6766  function getTotalSupply() public view returns (uint256) {... */\n    tag_141:\n        /* \"ERC721A/MintNagaKids.sol\":6729:6744  nagaKidContract */\n      sload(0x02)\n        /* \"ERC721A/MintNagaKids.sol\":6729:6758  nagaKidContract.totalSupply() */\n      0x40\n      dup1\n      mload\n      shl(0xe0, 0x18160ddd)\n      dup2\n      mstore\n      swap1\n      mload\n        /* \"ERC721A/MintNagaKids.sol\":6702:6709  uint256 */\n      0x00\n      swap3\n      sub(shl(0xa0, 0x01), 0x01)\n        /* \"ERC721A/MintNagaKids.sol\":6729:6744  nagaKidContract */\n      and\n      swap2\n        /* \"ERC721A/MintNagaKids.sol\":6729:6756  nagaKidContract.totalSupply */\n      0x18160ddd\n      swap2\n        /* \"ERC721A/MintNagaKids.sol\":6729:6758  nagaKidContract.totalSupply() */\n      0x04\n      dup1\n      dup4\n      add\n      swap3\n      0x20\n      swap3\n      swap2\n      swap1\n      dup3\n      swap1\n      sub\n      add\n      dup2\n        /* \"ERC721A/MintNagaKids.sol\":6729:6744  nagaKidContract */\n      dup7\n        /* \"ERC721A/MintNagaKids.sol\":6729:6758  nagaKidContract.totalSupply() */\n      gas\n      staticcall\n      iszero\n      dup1\n      iszero\n      tag_200\n      jumpi\n      returndatasize\n      0x00\n      dup1\n      returndatacopy\n      revert(0x00, returndatasize)\n        /* \"ERC721A/MintNagaKids.sol\":4339:5154  function publicMint(bytes calldata _sig) public payable nonReentrant {... */\n    tag_146:\n        /* \"@openzeppelin/contracts/security/ReentrancyGuard.sol\":1744:1745  2 */\n      0x02\n        /* \"@openzeppelin/contracts/security/ReentrancyGuard.sol\":2325:2332  _status */\n      sload(0x01)\n        /* \"@openzeppelin/contracts/security/ReentrancyGuard.sol\":2325:2344  _status != _ENTERED */\n      sub\n        /* \"@openzeppelin/contracts/security/ReentrancyGuard.sol\":2317:2380  require(_status != _ENTERED, \"ReentrancyGuard: reentrant call\") */\n      tag_310\n      jumpi\n      mload(0x40)\n      shl(0xe5, 0x461bcd)\n      dup2\n      mstore\n        /* \"#utility.yul\":12252:12254   */\n      0x20\n        /* \"@openzeppelin/contracts/security/ReentrancyGuard.sol\":2317:2380  require(_status != _ENTERED, \"ReentrancyGuard: reentrant call\") */\n      0x04\n      dup3\n      add\n        /* \"#utility.yul\":12234:12255   */\n      mstore\n        /* \"#utility.yul\":12291:12293   */\n      0x1f\n        /* \"#utility.yul\":12271:12289   */\n      0x24\n      dup3\n      add\n        /* \"#utility.yul\":12264:12294   */\n      mstore\n        /* \"#utility.yul\":12330:12363   */\n      0x5265656e7472616e637947756172643a207265656e7472616e742063616c6c00\n        /* \"#utility.yul\":12310:12328   */\n      0x44\n      dup3\n      add\n        /* \"#utility.yul\":12303:12364   */\n      mstore\n        /* \"#utility.yul\":12381:12399   */\n      0x64\n      add\n        /* \"@openzeppelin/contracts/security/ReentrancyGuard.sol\":2317:2380  require(_status != _ENTERED, \"ReentrancyGuard: reentrant call\") */\n      tag_208\n        /* \"#utility.yul\":12050:12405   */\n      jump\n        /* \"@openzeppelin/contracts/security/ReentrancyGuard.sol\":2317:2380  require(_status != _ENTERED, \"ReentrancyGuard: reentrant call\") */\n    tag_310:\n        /* \"@openzeppelin/contracts/security/ReentrancyGuard.sol\":1744:1745  2 */\n      0x02\n        /* \"@openzeppelin/contracts/security/ReentrancyGuard.sol\":2455:2462  _status */\n      0x01\n        /* \"@openzeppelin/contracts/security/ReentrancyGuard.sol\":2455:2473  _status = _ENTERED */\n      swap1\n      dup2\n      sstore\n        /* \"ERC721A/MintNagaKids.sol\":4429:4445  isPublicMintOpen */\n      and(0xff, sload(0x05))\n        /* \"ERC721A/MintNagaKids.sol\":4429:4453  isPublicMintOpen == true */\n      iszero\n      iszero\n      eq\n        /* \"ERC721A/MintNagaKids.sol\":4421:4482  require(isPublicMintOpen == true, \"Public mint is not open.\") */\n      tag_314\n      jumpi\n      mload(0x40)\n      shl(0xe5, 0x461bcd)\n      dup2\n      mstore\n        /* \"#utility.yul\":12612:12614   */\n      0x20\n        /* \"ERC721A/MintNagaKids.sol\":4421:4482  require(isPublicMintOpen == true, \"Public mint is not open.\") */\n      0x04\n      dup3\n      add\n        /* \"#utility.yul\":12594:12615   */\n      mstore\n        /* \"#utility.yul\":12651:12653   */\n      0x18\n        /* \"#utility.yul\":12631:12649   */\n      0x24\n      dup3\n      add\n        /* \"#utility.yul\":12624:12654   */\n      mstore\n        /* \"#utility.yul\":12690:12716   */\n      0x5075626c6963206d696e74206973206e6f74206f70656e2e0000000000000000\n        /* \"#utility.yul\":12670:12688   */\n      0x44\n      dup3\n      add\n        /* \"#utility.yul\":12663:12717   */\n      mstore\n        /* \"#utility.yul\":12734:12752   */\n      0x64\n      add\n        /* \"ERC721A/MintNagaKids.sol\":4421:4482  require(isPublicMintOpen == true, \"Public mint is not open.\") */\n      tag_208\n        /* \"#utility.yul\":12410:12758   */\n      jump\n        /* \"ERC721A/MintNagaKids.sol\":4421:4482  require(isPublicMintOpen == true, \"Public mint is not open.\") */\n    tag_314:\n        /* \"ERC721A/MintNagaKids.sol\":4501:4510  tx.origin */\n      origin\n        /* \"ERC721A/MintNagaKids.sol\":4514:4524  msg.sender */\n      caller\n        /* \"ERC721A/MintNagaKids.sol\":4501:4524  tx.origin == msg.sender */\n      eq\n        /* \"ERC721A/MintNagaKids.sol\":4493:4556  require(tx.origin == msg.sender, \"haha Contract can't call me\") */\n      tag_317\n      jumpi\n      mload(0x40)\n      shl(0xe5, 0x461bcd)\n      dup2\n      mstore\n        /* \"#utility.yul\":12965:12967   */\n      0x20\n        /* \"ERC721A/MintNagaKids.sol\":4493:4556  require(tx.origin == msg.sender, \"haha Contract can't call me\") */\n      0x04\n      dup3\n      add\n        /* \"#utility.yul\":12947:12968   */\n      mstore\n        /* \"#utility.yul\":13004:13006   */\n      0x1b\n        /* \"#utility.yul\":12984:13002   */\n      0x24\n      dup3\n      add\n        /* \"#utility.yul\":12977:13007   */\n      mstore\n        /* \"#utility.yul\":13043:13072   */\n      0x6861686120436f6e74726163742063616e27742063616c6c206d650000000000\n        /* \"#utility.yul\":13023:13041   */\n      0x44\n      dup3\n      add\n        /* \"#utility.yul\":13016:13073   */\n      mstore\n        /* \"#utility.yul\":13090:13108   */\n      0x64\n      add\n        /* \"ERC721A/MintNagaKids.sol\":4493:4556  require(tx.origin == msg.sender, \"haha Contract can't call me\") */\n      tag_208\n        /* \"#utility.yul\":12763:13114   */\n      jump\n        /* \"ERC721A/MintNagaKids.sol\":4493:4556  require(tx.origin == msg.sender, \"haha Contract can't call me\") */\n    tag_317:\n        /* \"ERC721A/MintNagaKids.sol\":4590:4600  msg.sender */\n      caller\n        /* \"ERC721A/MintNagaKids.sol\":5221:5225  bool */\n      0x00\n        /* \"ERC721A/MintNagaKids.sol\":5244:5266  _isPublicMinted[_addr] */\n      swap1\n      dup2\n      mstore\n        /* \"ERC721A/MintNagaKids.sol\":5244:5259  _isPublicMinted */\n      0x08\n        /* \"ERC721A/MintNagaKids.sol\":5244:5266  _isPublicMinted[_addr] */\n      0x20\n      mstore\n      0x40\n      swap1\n      keccak256\n      sload\n      0xff\n      and\n        /* \"ERC721A/MintNagaKids.sol\":4575:4609  isPublicMinted(msg.sender) != true */\n      iszero\n      iszero\n        /* \"ERC721A/MintNagaKids.sol\":4605:4609  true */\n      0x01\n        /* \"ERC721A/MintNagaKids.sol\":4575:4609  isPublicMinted(msg.sender) != true */\n      sub\n        /* \"ERC721A/MintNagaKids.sol\":4567:4637  require(isPublicMinted(msg.sender) != true, \"You are already minted.\") */\n      tag_321\n      jumpi\n      mload(0x40)\n      shl(0xe5, 0x461bcd)\n      dup2\n      mstore\n        /* \"#utility.yul\":13321:13323   */\n      0x20\n        /* \"ERC721A/MintNagaKids.sol\":4567:4637  require(isPublicMinted(msg.sender) != true, \"You are already minted.\") */\n      0x04\n      dup3\n      add\n        /* \"#utility.yul\":13303:13324   */\n      mstore\n        /* \"#utility.yul\":13360:13362   */\n      0x17\n        /* \"#utility.yul\":13340:13358   */\n      0x24\n      dup3\n      add\n        /* \"#utility.yul\":13333:13363   */\n      mstore\n      shl(0x49, 0x2cb7ba9030b9329030b63932b0b23c9036b4b73a32b217)\n        /* \"#utility.yul\":13379:13397   */\n      0x44\n      dup3\n      add\n        /* \"#utility.yul\":13372:13425   */\n      mstore\n        /* \"#utility.yul\":13442:13460   */\n      0x64\n      add\n        /* \"ERC721A/MintNagaKids.sol\":4567:4637  require(isPublicMinted(msg.sender) != true, \"You are already minted.\") */\n      tag_208\n        /* \"#utility.yul\":13119:13466   */\n      jump\n        /* \"ERC721A/MintNagaKids.sol\":4567:4637  require(isPublicMinted(msg.sender) != true, \"You are already minted.\") */\n    tag_321:\n        /* \"ERC721A/MintNagaKids.sol\":4727:4742  nagaKidContract */\n      sload(0x02)\n        /* \"ERC721A/MintNagaKids.sol\":4727:4766  nagaKidContract.isMinter(address(this)) */\n      mload(0x40)\n      shl(0xe1, 0x55138f0d)\n      dup2\n      mstore\n        /* \"ERC721A/MintNagaKids.sol\":4760:4764  this */\n      address\n        /* \"ERC721A/MintNagaKids.sol\":4727:4766  nagaKidContract.isMinter(address(this)) */\n      0x04\n      dup3\n      add\n        /* \"#utility.yul\":730:781   */\n      mstore\n      sub(shl(0xa0, 0x01), 0x01)\n        /* \"ERC721A/MintNagaKids.sol\":4727:4742  nagaKidContract */\n      swap1\n      swap2\n      and\n      swap1\n        /* \"ERC721A/MintNagaKids.sol\":4727:4751  nagaKidContract.isMinter */\n      0xaa271e1a\n      swap1\n        /* \"#utility.yul\":703:721   */\n      0x24\n      add\n        /* \"ERC721A/MintNagaKids.sol\":4727:4766  nagaKidContract.isMinter(address(this)) */\n      0x20\n      mload(0x40)\n      dup1\n      dup4\n      sub\n      dup2\n      dup7\n      gas\n      staticcall\n      iszero\n      dup1\n      iszero\n      tag_326\n      jumpi\n      returndatasize\n      0x00\n      dup1\n      returndatacopy\n      revert(0x00, returndatasize)\n    tag_326:\n      pop\n      pop\n      pop\n      pop\n      mload(0x40)\n      returndatasize\n      not(0x1f)\n      0x1f\n      dup3\n      add\n      and\n      dup3\n      add\n      dup1\n      0x40\n      mstore\n      pop\n      dup2\n      add\n      swap1\n      tag_327\n      swap2\n      swap1\n      tag_263\n      jump\t// in\n    tag_327:\n        /* \"ERC721A/MintNagaKids.sol\":4719:4801  require(nagaKidContract.isMinter(address(this)), \"Contract Mint is not approved.\") */\n      tag_328\n      jumpi\n      mload(0x40)\n      shl(0xe5, 0x461bcd)\n      dup2\n      mstore\n        /* \"#utility.yul\":13673:13675   */\n      0x20\n        /* \"ERC721A/MintNagaKids.sol\":4719:4801  require(nagaKidContract.isMinter(address(this)), \"Contract Mint is not approved.\") */\n      0x04\n      dup3\n      add\n        /* \"#utility.yul\":13655:13676   */\n      mstore\n        /* \"#utility.yul\":13712:13714   */\n      0x1e\n        /* \"#utility.yul\":13692:13710   */\n      0x24\n      dup3\n      add\n        /* \"#utility.yul\":13685:13715   */\n      mstore\n        /* \"#utility.yul\":13751:13783   */\n      0x436f6e7472616374204d696e74206973206e6f7420617070726f7665642e0000\n        /* \"#utility.yul\":13731:13749   */\n      0x44\n      dup3\n      add\n        /* \"#utility.yul\":13724:13784   */\n      mstore\n        /* \"#utility.yul\":13801:13819   */\n      0x64\n      add\n        /* \"ERC721A/MintNagaKids.sol\":4719:4801  require(nagaKidContract.isMinter(address(this)), \"Contract Mint is not approved.\") */\n      tag_208\n        /* \"#utility.yul\":13471:13825   */\n      jump\n        /* \"ERC721A/MintNagaKids.sol\":4719:4801  require(nagaKidContract.isMinter(address(this)), \"Contract Mint is not approved.\") */\n    tag_328:\n        /* \"ERC721A/MintNagaKids.sol\":4820:4850  verify(signer,msg.sender,_sig) */\n      tag_331\n        /* \"ERC721A/MintNagaKids.sol\":4827:4833  signer */\n      0x05\n      0x02\n      swap1\n      sload\n      swap1\n      0x0100\n      exp\n      swap1\n      div\n      sub(shl(0xa0, 0x01), 0x01)\n      and\n        /* \"ERC721A/MintNagaKids.sol\":4834:4844  msg.sender */\n      caller\n        /* \"ERC721A/MintNagaKids.sol\":4845:4849  _sig */\n      dup5\n      dup5\n        /* \"ERC721A/MintNagaKids.sol\":4820:4850  verify(signer,msg.sender,_sig) */\n      dup1\n      dup1\n      0x1f\n      add\n      0x20\n      dup1\n      swap2\n      div\n      mul\n      0x20\n      add\n      mload(0x40)\n      swap1\n      dup2\n      add\n      0x40\n      mstore\n      dup1\n      swap4\n      swap3\n      swap2\n      swap1\n      dup2\n      dup2\n      mstore\n      0x20\n      add\n      dup4\n      dup4\n      dup1\n      dup3\n      dup5\n      calldatacopy\n      0x00\n      swap3\n      add\n      swap2\n      swap1\n      swap2\n      mstore\n      pop\n        /* \"ERC721A/MintNagaKids.sol\":4820:4826  verify */\n      tag_69\n      swap3\n      pop\n      pop\n      pop\n        /* \"ERC721A/MintNagaKids.sol\":4820:4850  verify(signer,msg.sender,_sig) */\n      jump\t// in\n    tag_331:\n        /* \"ERC721A/MintNagaKids.sol\":4812:4889  require(verify(signer,msg.sender,_sig), \"Unauthorized PublicMint This User.\") */\n      tag_332\n      jumpi\n      mload(0x40)\n      shl(0xe5, 0x461bcd)\n      dup2\n      mstore\n        /* \"#utility.yul\":14032:14034   */\n      0x20\n        /* \"ERC721A/MintNagaKids.sol\":4812:4889  require(verify(signer,msg.sender,_sig), \"Unauthorized PublicMint This User.\") */\n      0x04\n      dup3\n      add\n        /* \"#utility.yul\":14014:14035   */\n      mstore\n        /* \"#utility.yul\":14071:14073   */\n      0x22\n        /* \"#utility.yul\":14051:14069   */\n      0x24\n      dup3\n      add\n        /* \"#utility.yul\":14044:14074   */\n      mstore\n        /* \"#utility.yul\":14110:14144   */\n      0x556e617574686f72697a6564205075626c69634d696e74205468697320557365\n        /* \"#utility.yul\":14090:14108   */\n      0x44\n      dup3\n      add\n        /* \"#utility.yul\":14083:14145   */\n      mstore\n      shl(0xf1, 0x3917)\n        /* \"#utility.yul\":14161:14179   */\n      0x64\n      dup3\n      add\n        /* \"#utility.yul\":14154:14186   */\n      mstore\n        /* \"#utility.yul\":14203:14222   */\n      0x84\n      add\n        /* \"ERC721A/MintNagaKids.sol\":4812:4889  require(verify(signer,msg.sender,_sig), \"Unauthorized PublicMint This User.\") */\n      tag_208\n        /* \"#utility.yul\":13830:14228   */\n      jump\n        /* \"ERC721A/MintNagaKids.sol\":4812:4889  require(verify(signer,msg.sender,_sig), \"Unauthorized PublicMint This User.\") */\n    tag_332:\n        /* \"ERC721A/MintNagaKids.sol\":4997:5007  msg.sender */\n      caller\n        /* \"ERC721A/MintNagaKids.sol\":4948:4963  uint256 _amount */\n      0x00\n        /* \"ERC721A/MintNagaKids.sol\":4981:5008  _isPublicMinted[msg.sender] */\n      dup2\n      dup2\n      mstore\n        /* \"ERC721A/MintNagaKids.sol\":4981:4996  _isPublicMinted */\n      0x08\n        /* \"ERC721A/MintNagaKids.sol\":4981:5008  _isPublicMinted[msg.sender] */\n      0x20\n      mstore\n      0x40\n      swap1\n      dup2\n      swap1\n      keccak256\n        /* \"ERC721A/MintNagaKids.sol\":4981:5015  _isPublicMinted[msg.sender] = true */\n      dup1\n      sload\n      not(0xff)\n      and\n        /* \"ERC721A/MintNagaKids.sol\":4966:4967  1 */\n      0x01\n        /* \"ERC721A/MintNagaKids.sol\":4981:5015  _isPublicMinted[msg.sender] = true */\n      swap1\n      dup2\n      or\n      swap1\n      swap2\n      sstore\n        /* \"ERC721A/MintNagaKids.sol\":5026:5041  nagaKidContract */\n      sload(0x02)\n        /* \"ERC721A/MintNagaKids.sol\":5026:5070  nagaKidContract.safeMint(msg.sender,_amount) */\n      swap2\n      mload\n      shl(0xe2, 0x28512065)\n      dup2\n      mstore\n      0x04\n      dup2\n      add\n        /* \"#utility.yul\":9413:9464   */\n      swap4\n      swap1\n      swap4\n      mstore\n        /* \"#utility.yul\":9480:9498   */\n      0x24\n      dup4\n      add\n        /* \"#utility.yul\":9473:9507   */\n      dup2\n      swap1\n      mstore\n        /* \"ERC721A/MintNagaKids.sol\":4966:4967  1 */\n      swap2\n      sub(shl(0xa0, 0x01), 0x01)\n        /* \"ERC721A/MintNagaKids.sol\":5026:5041  nagaKidContract */\n      swap1\n      swap2\n      and\n      swap1\n        /* \"ERC721A/MintNagaKids.sol\":5026:5050  nagaKidContract.safeMint */\n      0xa1448194\n      swap1\n        /* \"#utility.yul\":9386:9404   */\n      0x44\n      add\n        /* \"ERC721A/MintNagaKids.sol\":5026:5070  nagaKidContract.safeMint(msg.sender,_amount) */\n      0x00\n      mload(0x40)\n      dup1\n      dup4\n      sub\n      dup2\n      0x00\n      dup8\n      dup1\n      extcodesize\n      iszero\n      dup1\n      iszero\n      tag_336\n      jumpi\n      0x00\n      dup1\n      revert\n    tag_336:\n      pop\n      gas\n      call\n      iszero\n      dup1\n      iszero\n      tag_338\n      jumpi\n      returndatasize\n      0x00\n      dup1\n      returndatacopy\n      revert(0x00, returndatasize)\n    tag_338:\n      pop\n      pop\n        /* \"ERC721A/MintNagaKids.sol\":5096:5144  PublicMinted(msg.sender,_amount,block.timestamp) */\n      0x40\n      dup1\n      mload\n        /* \"#utility.yul\":9160:9185   */\n      dup5\n      dup2\n      mstore\n        /* \"ERC721A/MintNagaKids.sol\":5128:5143  block.timestamp */\n      timestamp\n        /* \"#utility.yul\":9216:9218   */\n      0x20\n        /* \"#utility.yul\":9201:9219   */\n      dup3\n      add\n        /* \"#utility.yul\":9194:9228   */\n      mstore\n        /* \"ERC721A/MintNagaKids.sol\":5109:5119  msg.sender */\n      caller\n      swap4\n      pop\n        /* \"ERC721A/MintNagaKids.sol\":5096:5144  PublicMinted(msg.sender,_amount,block.timestamp) */\n      0xc1a73b31b32801ebbb4cae30b73eae4345be9f2915ea60306383c245ef8fac44\n      swap3\n      pop\n        /* \"#utility.yul\":9133:9151   */\n      add\n        /* \"ERC721A/MintNagaKids.sol\":5096:5144  PublicMinted(msg.sender,_amount,block.timestamp) */\n      mload(0x40)\n      dup1\n      swap2\n      sub\n      swap1\n      log2\n      pop\n      pop\n        /* \"@openzeppelin/contracts/security/ReentrancyGuard.sol\":1701:1702  1 */\n      0x01\n        /* \"@openzeppelin/contracts/security/ReentrancyGuard.sol\":2628:2650  _status = _NOT_ENTERED */\n      dup1\n      sstore\n      pop\n        /* \"ERC721A/MintNagaKids.sol\":4339:5154  function publicMint(bytes calldata _sig) public payable nonReentrant {... */\n      jump\t// out\n        /* \"@openzeppelin/contracts/access/Ownable.sol\":1918:2116  function transferOwnership(address newOwner) public virtual onlyOwner {... */\n    tag_168:\n        /* \"@openzeppelin/contracts/access/Ownable.sol\":1082:1089  address */\n      0x00\n        /* \"@openzeppelin/contracts/access/Ownable.sol\":1108:1114  _owner */\n      sload\n      sub(shl(0xa0, 0x01), 0x01)\n      and\n        /* \"@openzeppelin/contracts/utils/Context.sol\":719:729  msg.sender */\n      caller\n        /* \"@openzeppelin/contracts/access/Ownable.sol\":1248:1271  owner() == _msgSender() */\n      eq\n        /* \"@openzeppelin/contracts/access/Ownable.sol\":1240:1308  require(owner() == _msgSender(), \"Ownable: caller is not the owner\") */\n      tag_345\n      jumpi\n      mload(0x40)\n      shl(0xe5, 0x461bcd)\n      dup2\n      mstore\n      0x04\n      add\n      tag_208\n      swap1\n      tag_209\n      jump\t// in\n    tag_345:\n      sub(shl(0xa0, 0x01), 0x01)\n        /* \"@openzeppelin/contracts/access/Ownable.sol\":2006:2028  newOwner != address(0) */\n      dup2\n      and\n        /* \"@openzeppelin/contracts/access/Ownable.sol\":1998:2071  require(newOwner != address(0), \"Ownable: new owner is the zero address\") */\n      tag_348\n      jumpi\n      mload(0x40)\n      shl(0xe5, 0x461bcd)\n      dup2\n      mstore\n        /* \"#utility.yul\":14688:14690   */\n      0x20\n        /* \"@openzeppelin/contracts/access/Ownable.sol\":1998:2071  require(newOwner != address(0), \"Ownable: new owner is the zero address\") */\n      0x04\n      dup3\n      add\n        /* \"#utility.yul\":14670:14691   */\n      mstore\n        /* \"#utility.yul\":14727:14729   */\n      0x26\n        /* \"#utility.yul\":14707:14725   */\n      0x24\n      dup3\n      add\n        /* \"#utility.yul\":14700:14730   */\n      mstore\n        /* \"#utility.yul\":14766:14800   */\n      0x4f776e61626c653a206e6577206f776e657220697320746865207a65726f2061\n        /* \"#utility.yul\":14746:14764   */\n      0x44\n      dup3\n      add\n        /* \"#utility.yul\":14739:14801   */\n      mstore\n      shl(0xd0, 0x646472657373)\n        /* \"#utility.yul\":14817:14835   */\n      0x64\n      dup3\n      add\n        /* \"#utility.yul\":14810:14846   */\n      mstore\n        /* \"#utility.yul\":14863:14882   */\n      0x84\n      add\n        /* \"@openzeppelin/contracts/access/Ownable.sol\":1998:2071  require(newOwner != address(0), \"Ownable: new owner is the zero address\") */\n      tag_208\n        /* \"#utility.yul\":14486:14888   */\n      jump\n        /* \"@openzeppelin/contracts/access/Ownable.sol\":1998:2071  require(newOwner != address(0), \"Ownable: new owner is the zero address\") */\n    tag_348:\n        /* \"@openzeppelin/contracts/access/Ownable.sol\":2081:2109  _transferOwnership(newOwner) */\n      tag_351\n        /* \"@openzeppelin/contracts/access/Ownable.sol\":2100:2108  newOwner */\n      dup2\n        /* \"@openzeppelin/contracts/access/Ownable.sol\":2081:2099  _transferOwnership */\n      tag_237\n        /* \"@openzeppelin/contracts/access/Ownable.sol\":2081:2109  _transferOwnership(newOwner) */\n      jump\t// in\n    tag_351:\n        /* \"@openzeppelin/contracts/access/Ownable.sol\":1918:2116  function transferOwnership(address newOwner) public virtual onlyOwner {... */\n      pop\n      jump\t// out\n        /* \"ERC721A/MintNagaKids.sol\":3336:4331  function allowlistMint(bytes32[] calldata _proof, uint256 _amount, bytes32 _round) public payable nonReentrant {... */\n    tag_176:\n        /* \"@openzeppelin/contracts/security/ReentrancyGuard.sol\":1744:1745  2 */\n      0x02\n        /* \"@openzeppelin/contracts/security/ReentrancyGuard.sol\":2325:2332  _status */\n      sload(0x01)\n        /* \"@openzeppelin/contracts/security/ReentrancyGuard.sol\":2325:2344  _status != _ENTERED */\n      sub\n        /* \"@openzeppelin/contracts/security/ReentrancyGuard.sol\":2317:2380  require(_status != _ENTERED, \"ReentrancyGuard: reentrant call\") */\n      tag_353\n      jumpi\n      mload(0x40)\n      shl(0xe5, 0x461bcd)\n      dup2\n      mstore\n        /* \"#utility.yul\":12252:12254   */\n      0x20\n        /* \"@openzeppelin/contracts/security/ReentrancyGuard.sol\":2317:2380  require(_status != _ENTERED, \"ReentrancyGuard: reentrant call\") */\n      0x04\n      dup3\n      add\n        /* \"#utility.yul\":12234:12255   */\n      mstore\n        /* \"#utility.yul\":12291:12293   */\n      0x1f\n        /* \"#utility.yul\":12271:12289   */\n      0x24\n      dup3\n      add\n        /* \"#utility.yul\":12264:12294   */\n      mstore\n        /* \"#utility.yul\":12330:12363   */\n      0x5265656e7472616e637947756172643a207265656e7472616e742063616c6c00\n        /* \"#utility.yul\":12310:12328   */\n      0x44\n      dup3\n      add\n        /* \"#utility.yul\":12303:12364   */\n      mstore\n        /* \"#utility.yul\":12381:12399   */\n      0x64\n      add\n        /* \"@openzeppelin/contracts/security/ReentrancyGuard.sol\":2317:2380  require(_status != _ENTERED, \"ReentrancyGuard: reentrant call\") */\n      tag_208\n        /* \"#utility.yul\":12050:12405   */\n      jump\n        /* \"@openzeppelin/contracts/security/ReentrancyGuard.sol\":2317:2380  require(_status != _ENTERED, \"ReentrancyGuard: reentrant call\") */\n    tag_353:\n        /* \"@openzeppelin/contracts/security/ReentrancyGuard.sol\":1744:1745  2 */\n      0x02\n        /* \"@openzeppelin/contracts/security/ReentrancyGuard.sol\":2455:2462  _status */\n      0x01\n        /* \"@openzeppelin/contracts/security/ReentrancyGuard.sol\":2455:2473  _status = _ENTERED */\n      swap1\n      dup2\n      sstore\n        /* \"ERC721A/MintNagaKids.sol\":3466:3483  isPrivateMintOpen */\n      sload(0x05)\n      0x0100\n      swap1\n      div\n      0xff\n      and\n        /* \"ERC721A/MintNagaKids.sol\":3466:3491  isPrivateMintOpen == true */\n      iszero\n      iszero\n      eq\n        /* \"ERC721A/MintNagaKids.sol\":3458:3520  require(isPrivateMintOpen == true,\"Private mint is not open.\") */\n      tag_356\n      jumpi\n      mload(0x40)\n      shl(0xe5, 0x461bcd)\n      dup2\n      mstore\n        /* \"#utility.yul\":15095:15097   */\n      0x20\n        /* \"ERC721A/MintNagaKids.sol\":3458:3520  require(isPrivateMintOpen == true,\"Private mint is not open.\") */\n      0x04\n      dup3\n      add\n        /* \"#utility.yul\":15077:15098   */\n      mstore\n        /* \"#utility.yul\":15134:15136   */\n      0x19\n        /* \"#utility.yul\":15114:15132   */\n      0x24\n      dup3\n      add\n        /* \"#utility.yul\":15107:15137   */\n      mstore\n        /* \"#utility.yul\":15173:15200   */\n      0x50726976617465206d696e74206973206e6f74206f70656e2e00000000000000\n        /* \"#utility.yul\":15153:15171   */\n      0x44\n      dup3\n      add\n        /* \"#utility.yul\":15146:15201   */\n      mstore\n        /* \"#utility.yul\":15218:15236   */\n      0x64\n      add\n        /* \"ERC721A/MintNagaKids.sol\":3458:3520  require(isPrivateMintOpen == true,\"Private mint is not open.\") */\n      tag_208\n        /* \"#utility.yul\":14893:15242   */\n      jump\n        /* \"ERC721A/MintNagaKids.sol\":3458:3520  require(isPrivateMintOpen == true,\"Private mint is not open.\") */\n    tag_356:\n        /* \"ERC721A/MintNagaKids.sol\":3539:3545  _round */\n      dup1\n        /* \"ERC721A/MintNagaKids.sol\":3531:3581  require(_round != DEFAULT,\"Mint is not approved.\") */\n      tag_359\n      jumpi\n      mload(0x40)\n      shl(0xe5, 0x461bcd)\n      dup2\n      mstore\n        /* \"#utility.yul\":15449:15451   */\n      0x20\n        /* \"ERC721A/MintNagaKids.sol\":3531:3581  require(_round != DEFAULT,\"Mint is not approved.\") */\n      0x04\n      dup3\n      add\n        /* \"#utility.yul\":15431:15452   */\n      mstore\n        /* \"#utility.yul\":15488:15490   */\n      0x15\n        /* \"#utility.yul\":15468:15486   */\n      0x24\n      dup3\n      add\n        /* \"#utility.yul\":15461:15491   */\n      mstore\n      shl(0x59, 0x26b4b73a1034b9903737ba1030b8383937bb32b217)\n        /* \"#utility.yul\":15507:15525   */\n      0x44\n      dup3\n      add\n        /* \"#utility.yul\":15500:15551   */\n      mstore\n        /* \"#utility.yul\":15568:15586   */\n      0x64\n      add\n        /* \"ERC721A/MintNagaKids.sol\":3531:3581  require(_round != DEFAULT,\"Mint is not approved.\") */\n      tag_208\n        /* \"#utility.yul\":15247:15592   */\n      jump\n        /* \"ERC721A/MintNagaKids.sol\":3531:3581  require(_round != DEFAULT,\"Mint is not approved.\") */\n    tag_359:\n        /* \"ERC721A/MintNagaKids.sol\":3620:3626  _round */\n      dup1\n        /* \"ERC721A/MintNagaKids.sol\":3600:3616  currentMintRound */\n      sload(0x03)\n        /* \"ERC721A/MintNagaKids.sol\":3600:3626  currentMintRound == _round */\n      eq\n        /* \"ERC721A/MintNagaKids.sol\":3592:3670  require(currentMintRound == _round, \"Contract are not in this minting round.\") */\n      tag_362\n      jumpi\n      mload(0x40)\n      shl(0xe5, 0x461bcd)\n      dup2\n      mstore\n        /* \"#utility.yul\":15799:15801   */\n      0x20\n        /* \"ERC721A/MintNagaKids.sol\":3592:3670  require(currentMintRound == _round, \"Contract are not in this minting round.\") */\n      0x04\n      dup3\n      add\n        /* \"#utility.yul\":15781:15802   */\n      mstore\n        /* \"#utility.yul\":15838:15840   */\n      0x27\n        /* \"#utility.yul\":15818:15836   */\n      0x24\n      dup3\n      add\n        /* \"#utility.yul\":15811:15841   */\n      mstore\n        /* \"#utility.yul\":15877:15911   */\n      0x436f6e747261637420617265206e6f7420696e2074686973206d696e74696e67\n        /* \"#utility.yul\":15857:15875   */\n      0x44\n      dup3\n      add\n        /* \"#utility.yul\":15850:15912   */\n      mstore\n      shl(0xc9, 0x103937bab73217)\n        /* \"#utility.yul\":15928:15946   */\n      0x64\n      dup3\n      add\n        /* \"#utility.yul\":15921:15958   */\n      mstore\n        /* \"#utility.yul\":15975:15994   */\n      0x84\n      add\n        /* \"ERC721A/MintNagaKids.sol\":3592:3670  require(currentMintRound == _round, \"Contract are not in this minting round.\") */\n      tag_208\n        /* \"#utility.yul\":15597:16000   */\n      jump\n        /* \"ERC721A/MintNagaKids.sol\":3592:3670  require(currentMintRound == _round, \"Contract are not in this minting round.\") */\n    tag_362:\n        /* \"ERC721A/MintNagaKids.sol\":3718:3732  getMaxSupply() */\n      tag_365\n        /* \"ERC721A/MintNagaKids.sol\":3718:3730  getMaxSupply */\n      tag_74\n        /* \"ERC721A/MintNagaKids.sol\":3718:3732  getMaxSupply() */\n      jump\t// in\n    tag_365:\n        /* \"ERC721A/MintNagaKids.sol\":3708:3715  _amount */\n      dup3\n        /* \"ERC721A/MintNagaKids.sol\":3689:3705  getTotalSupply() */\n      tag_366\n        /* \"ERC721A/MintNagaKids.sol\":3689:3703  getTotalSupply */\n      tag_141\n        /* \"ERC721A/MintNagaKids.sol\":3689:3705  getTotalSupply() */\n      jump\t// in\n    tag_366:\n        /* \"ERC721A/MintNagaKids.sol\":3689:3715  getTotalSupply() + _amount */\n      tag_367\n      swap2\n      swap1\n      tag_368\n      jump\t// in\n    tag_367:\n        /* \"ERC721A/MintNagaKids.sol\":3689:3732  getTotalSupply() + _amount < getMaxSupply() */\n      lt\n        /* \"ERC721A/MintNagaKids.sol\":3681:3748  require(getTotalSupply() + _amount < getMaxSupply(), \"Over supply\") */\n      tag_369\n      jumpi\n      mload(0x40)\n      shl(0xe5, 0x461bcd)\n      dup2\n      mstore\n        /* \"#utility.yul\":16472:16474   */\n      0x20\n        /* \"ERC721A/MintNagaKids.sol\":3681:3748  require(getTotalSupply() + _amount < getMaxSupply(), \"Over supply\") */\n      0x04\n      dup3\n      add\n        /* \"#utility.yul\":16454:16475   */\n      mstore\n        /* \"#utility.yul\":16511:16513   */\n      0x0b\n        /* \"#utility.yul\":16491:16509   */\n      0x24\n      dup3\n      add\n        /* \"#utility.yul\":16484:16514   */\n      mstore\n      shl(0xa8, 0x4f76657220737570706c79)\n        /* \"#utility.yul\":16530:16548   */\n      0x44\n      dup3\n      add\n        /* \"#utility.yul\":16523:16564   */\n      mstore\n        /* \"#utility.yul\":16581:16599   */\n      0x64\n      add\n        /* \"ERC721A/MintNagaKids.sol\":3681:3748  require(getTotalSupply() + _amount < getMaxSupply(), \"Over supply\") */\n      tag_208\n        /* \"#utility.yul\":16270:16605   */\n      jump\n        /* \"ERC721A/MintNagaKids.sol\":3681:3748  require(getTotalSupply() + _amount < getMaxSupply(), \"Over supply\") */\n    tag_369:\n        /* \"ERC721A/MintNagaKids.sol\":3780:3790  msg.sender */\n      caller\n        /* \"ERC721A/MintNagaKids.sol\":6436:6440  bool */\n      0x00\n        /* \"ERC721A/MintNagaKids.sol\":6460:6480  _isUserMinted[_user] */\n      swap1\n      dup2\n      mstore\n        /* \"ERC721A/MintNagaKids.sol\":6460:6473  _isUserMinted */\n      0x06\n        /* \"ERC721A/MintNagaKids.sol\":6460:6480  _isUserMinted[_user] */\n      0x20\n      swap1\n      dup2\n      mstore\n      0x40\n      dup1\n      dup4\n      keccak256\n        /* \"ERC721A/MintNagaKids.sol\":6460:6488  _isUserMinted[_user][_round] */\n      dup5\n      dup5\n      mstore\n      swap1\n      swap2\n      mstore\n      swap1\n      keccak256\n      sload\n      0xff\n      and\n        /* \"ERC721A/MintNagaKids.sol\":3767:3807  isUserMinted(msg.sender,_round) == false */\n      iszero\n        /* \"ERC721A/MintNagaKids.sol\":3759:3835  require(isUserMinted(msg.sender,_round) == false, \"You are already minted.\") */\n      tag_373\n      jumpi\n      mload(0x40)\n      shl(0xe5, 0x461bcd)\n      dup2\n      mstore\n        /* \"#utility.yul\":13321:13323   */\n      0x20\n        /* \"ERC721A/MintNagaKids.sol\":3759:3835  require(isUserMinted(msg.sender,_round) == false, \"You are already minted.\") */\n      0x04\n      dup3\n      add\n        /* \"#utility.yul\":13303:13324   */\n      mstore\n        /* \"#utility.yul\":13360:13362   */\n      0x17\n        /* \"#utility.yul\":13340:13358   */\n      0x24\n      dup3\n      add\n        /* \"#utility.yul\":13333:13363   */\n      mstore\n      shl(0x49, 0x2cb7ba9030b9329030b63932b0b23c9036b4b73a32b217)\n        /* \"#utility.yul\":13379:13397   */\n      0x44\n      dup3\n      add\n        /* \"#utility.yul\":13372:13425   */\n      mstore\n        /* \"#utility.yul\":13442:13460   */\n      0x64\n      add\n        /* \"ERC721A/MintNagaKids.sol\":3759:3835  require(isUserMinted(msg.sender,_round) == false, \"You are already minted.\") */\n      tag_208\n        /* \"#utility.yul\":13119:13466   */\n      jump\n        /* \"ERC721A/MintNagaKids.sol\":3759:3835  require(isUserMinted(msg.sender,_round) == false, \"You are already minted.\") */\n    tag_373:\n        /* \"ERC721A/MintNagaKids.sol\":3854:3869  nagaKidContract */\n      sload(0x02)\n        /* \"ERC721A/MintNagaKids.sol\":3854:3893  nagaKidContract.isMinter(address(this)) */\n      mload(0x40)\n      shl(0xe1, 0x55138f0d)\n      dup2\n      mstore\n        /* \"ERC721A/MintNagaKids.sol\":3887:3891  this */\n      address\n        /* \"ERC721A/MintNagaKids.sol\":3854:3893  nagaKidContract.isMinter(address(this)) */\n      0x04\n      dup3\n      add\n        /* \"#utility.yul\":730:781   */\n      mstore\n      sub(shl(0xa0, 0x01), 0x01)\n        /* \"ERC721A/MintNagaKids.sol\":3854:3869  nagaKidContract */\n      swap1\n      swap2\n      and\n      swap1\n        /* \"ERC721A/MintNagaKids.sol\":3854:3878  nagaKidContract.isMinter */\n      0xaa271e1a\n      swap1\n        /* \"#utility.yul\":703:721   */\n      0x24\n      add\n        /* \"ERC721A/MintNagaKids.sol\":3854:3893  nagaKidContract.isMinter(address(this)) */\n      0x20\n      mload(0x40)\n      dup1\n      dup4\n      sub\n      dup2\n      dup7\n      gas\n      staticcall\n      iszero\n      dup1\n      iszero\n      tag_377\n      jumpi\n      returndatasize\n      0x00\n      dup1\n      returndatacopy\n      revert(0x00, returndatasize)\n    tag_377:\n      pop\n      pop\n      pop\n      pop\n      mload(0x40)\n      returndatasize\n      not(0x1f)\n      0x1f\n      dup3\n      add\n      and\n      dup3\n      add\n      dup1\n      0x40\n      mstore\n      pop\n      dup2\n      add\n      swap1\n      tag_378\n      swap2\n      swap1\n      tag_263\n      jump\t// in\n    tag_378:\n        /* \"ERC721A/MintNagaKids.sol\":3846:3928  require(nagaKidContract.isMinter(address(this)), \"Contract Mint is not approved.\") */\n      tag_379\n      jumpi\n      mload(0x40)\n      shl(0xe5, 0x461bcd)\n      dup2\n      mstore\n        /* \"#utility.yul\":13673:13675   */\n      0x20\n        /* \"ERC721A/MintNagaKids.sol\":3846:3928  require(nagaKidContract.isMinter(address(this)), \"Contract Mint is not approved.\") */\n      0x04\n      dup3\n      add\n        /* \"#utility.yul\":13655:13676   */\n      mstore\n        /* \"#utility.yul\":13712:13714   */\n      0x1e\n        /* \"#utility.yul\":13692:13710   */\n      0x24\n      dup3\n      add\n        /* \"#utility.yul\":13685:13715   */\n      mstore\n        /* \"#utility.yul\":13751:13783   */\n      0x436f6e7472616374204d696e74206973206e6f7420617070726f7665642e0000\n        /* \"#utility.yul\":13731:13749   */\n      0x44\n      dup3\n      add\n        /* \"#utility.yul\":13724:13784   */\n      mstore\n        /* \"#utility.yul\":13801:13819   */\n      0x64\n      add\n        /* \"ERC721A/MintNagaKids.sol\":3846:3928  require(nagaKidContract.isMinter(address(this)), \"Contract Mint is not approved.\") */\n      tag_208\n        /* \"#utility.yul\":13471:13825   */\n      jump\n        /* \"ERC721A/MintNagaKids.sol\":3846:3928  require(nagaKidContract.isMinter(address(this)), \"Contract Mint is not approved.\") */\n    tag_379:\n        /* \"ERC721A/MintNagaKids.sol\":3947:4043  MerkleProof.verify(_proof, merkleRoot, keccak256(abi.encodePacked(msg.sender, _amount, _round))) */\n      tag_381\n        /* \"ERC721A/MintNagaKids.sol\":3966:3972  _proof */\n      dup5\n      dup5\n        /* \"ERC721A/MintNagaKids.sol\":3947:4043  MerkleProof.verify(_proof, merkleRoot, keccak256(abi.encodePacked(msg.sender, _amount, _round))) */\n      dup1\n      dup1\n      0x20\n      mul\n      0x20\n      add\n      mload(0x40)\n      swap1\n      dup2\n      add\n      0x40\n      mstore\n      dup1\n      swap4\n      swap3\n      swap2\n      swap1\n      dup2\n      dup2\n      mstore\n      0x20\n      add\n      dup4\n      dup4\n      0x20\n      mul\n      dup1\n      dup3\n      dup5\n      calldatacopy\n      0x00\n      swap3\n      add\n      swap2\n      swap1\n      swap2\n      mstore\n      pop\n      pop\n        /* \"ERC721A/MintNagaKids.sol\":3974:3984  merkleRoot */\n      sload(0x04)\n        /* \"ERC721A/MintNagaKids.sol\":3996:4041  abi.encodePacked(msg.sender, _amount, _round) */\n      mload(0x40)\n      not(0xffffffffffffffffffffffff)\n        /* \"ERC721A/MintNagaKids.sol\":4013:4023  msg.sender */\n      caller\n        /* \"#utility.yul\":16815:16817   */\n      0x60\n        /* \"#utility.yul\":16811:16826   */\n      shl\n        /* \"#utility.yul\":16807:16860   */\n      and\n        /* \"ERC721A/MintNagaKids.sol\":3996:4041  abi.encodePacked(msg.sender, _amount, _round) */\n      0x20\n      dup3\n      add\n        /* \"#utility.yul\":16795:16861   */\n      mstore\n        /* \"#utility.yul\":16877:16889   */\n      0x34\n      dup2\n      add\n        /* \"#utility.yul\":16870:16898   */\n      dup9\n      swap1\n      mstore\n        /* \"#utility.yul\":16914:16926   */\n      0x54\n      dup2\n      add\n        /* \"#utility.yul\":16907:16935   */\n      dup8\n      swap1\n      mstore\n        /* \"ERC721A/MintNagaKids.sol\":3974:3984  merkleRoot */\n      swap1\n      swap3\n      pop\n        /* \"#utility.yul\":16951:16963   */\n      0x74\n      add\n      swap1\n      pop\n        /* \"ERC721A/MintNagaKids.sol\":3996:4041  abi.encodePacked(msg.sender, _amount, _round) */\n      mload(0x40)\n      0x20\n      dup2\n      dup4\n      sub\n      sub\n      dup2\n      mstore\n      swap1\n      0x40\n      mstore\n        /* \"ERC721A/MintNagaKids.sol\":3986:4042  keccak256(abi.encodePacked(msg.sender, _amount, _round)) */\n      dup1\n      mload\n      swap1\n      0x20\n      add\n      keccak256\n        /* \"ERC721A/MintNagaKids.sol\":3947:3965  MerkleProof.verify */\n      tag_384\n        /* \"ERC721A/MintNagaKids.sol\":3947:4043  MerkleProof.verify(_proof, merkleRoot, keccak256(abi.encodePacked(msg.sender, _amount, _round))) */\n      jump\t// in\n    tag_381:\n        /* \"ERC721A/MintNagaKids.sol\":3939:4085  require(MerkleProof.verify(_proof, merkleRoot, keccak256(abi.encodePacked(msg.sender, _amount, _round))), \"Unauthorized WhitelistMint This User.\") */\n      tag_385\n      jumpi\n      mload(0x40)\n      shl(0xe5, 0x461bcd)\n      dup2\n      mstore\n        /* \"#utility.yul\":17176:17178   */\n      0x20\n        /* \"ERC721A/MintNagaKids.sol\":3939:4085  require(MerkleProof.verify(_proof, merkleRoot, keccak256(abi.encodePacked(msg.sender, _amount, _round))), \"Unauthorized WhitelistMint This User.\") */\n      0x04\n      dup3\n      add\n        /* \"#utility.yul\":17158:17179   */\n      mstore\n        /* \"#utility.yul\":17215:17217   */\n      0x25\n        /* \"#utility.yul\":17195:17213   */\n      0x24\n      dup3\n      add\n        /* \"#utility.yul\":17188:17218   */\n      mstore\n        /* \"#utility.yul\":17254:17288   */\n      0x556e617574686f72697a65642057686974656c6973744d696e74205468697320\n        /* \"#utility.yul\":17234:17252   */\n      0x44\n      dup3\n      add\n        /* \"#utility.yul\":17227:17289   */\n      mstore\n      shl(0xd9, 0x2ab9b2b917)\n        /* \"#utility.yul\":17305:17323   */\n      0x64\n      dup3\n      add\n        /* \"#utility.yul\":17298:17333   */\n      mstore\n        /* \"#utility.yul\":17350:17369   */\n      0x84\n      add\n        /* \"ERC721A/MintNagaKids.sol\":3939:4085  require(MerkleProof.verify(_proof, merkleRoot, keccak256(abi.encodePacked(msg.sender, _amount, _round))), \"Unauthorized WhitelistMint This User.\") */\n      tag_208\n        /* \"#utility.yul\":16974:17375   */\n      jump\n        /* \"ERC721A/MintNagaKids.sol\":3939:4085  require(MerkleProof.verify(_proof, merkleRoot, keccak256(abi.encodePacked(msg.sender, _amount, _round))), \"Unauthorized WhitelistMint This User.\") */\n    tag_385:\n        /* \"ERC721A/MintNagaKids.sol\":4112:4122  msg.sender */\n      caller\n        /* \"ERC721A/MintNagaKids.sol\":4098:4123  _isUserMinted[msg.sender] */\n      0x00\n      dup2\n      dup2\n      mstore\n        /* \"ERC721A/MintNagaKids.sol\":4098:4111  _isUserMinted */\n      0x06\n        /* \"ERC721A/MintNagaKids.sol\":4098:4123  _isUserMinted[msg.sender] */\n      0x20\n      swap1\n      dup2\n      mstore\n      0x40\n      dup1\n      dup4\n      keccak256\n        /* \"ERC721A/MintNagaKids.sol\":4098:4131  _isUserMinted[msg.sender][_round] */\n      dup6\n      dup5\n      mstore\n      dup3\n      mstore\n      dup1\n      dup4\n      keccak256\n        /* \"ERC721A/MintNagaKids.sol\":4098:4138  _isUserMinted[msg.sender][_round] = true */\n      dup1\n      sload\n      not(0xff)\n      and\n        /* \"ERC721A/MintNagaKids.sol\":4134:4138  true */\n      0x01\n        /* \"ERC721A/MintNagaKids.sol\":4098:4138  _isUserMinted[msg.sender][_round] = true */\n      or\n      swap1\n      sstore\n        /* \"ERC721A/MintNagaKids.sol\":4149:4178  _userMintedAmount[msg.sender] */\n      swap3\n      dup3\n      mstore\n        /* \"ERC721A/MintNagaKids.sol\":4149:4166  _userMintedAmount */\n      0x07\n        /* \"ERC721A/MintNagaKids.sol\":4149:4178  _userMintedAmount[msg.sender] */\n      dup2\n      mstore\n      dup3\n      dup3\n      keccak256\n        /* \"ERC721A/MintNagaKids.sol\":4149:4186  _userMintedAmount[msg.sender][_round] */\n      dup5\n      dup4\n      mstore\n      swap1\n      mstore\n      swap1\n      dup2\n      keccak256\n        /* \"ERC721A/MintNagaKids.sol\":4149:4197  _userMintedAmount[msg.sender][_round] += _amount */\n      dup1\n      sload\n        /* \"ERC721A/MintNagaKids.sol\":4190:4197  _amount */\n      dup5\n      swap3\n        /* \"ERC721A/MintNagaKids.sol\":4098:4123  _isUserMinted[msg.sender] */\n      swap1\n        /* \"ERC721A/MintNagaKids.sol\":4149:4197  _userMintedAmount[msg.sender][_round] += _amount */\n      tag_388\n      swap1\n        /* \"ERC721A/MintNagaKids.sol\":4190:4197  _amount */\n      dup5\n      swap1\n        /* \"ERC721A/MintNagaKids.sol\":4149:4197  _userMintedAmount[msg.sender][_round] += _amount */\n      tag_368\n      jump\t// in\n    tag_388:\n      swap1\n      swap2\n      sstore\n      pop\n      pop\n        /* \"ERC721A/MintNagaKids.sol\":4210:4225  nagaKidContract */\n      sload(0x02)\n        /* \"ERC721A/MintNagaKids.sol\":4210:4254  nagaKidContract.safeMint(msg.sender,_amount) */\n      mload(0x40)\n      shl(0xe2, 0x28512065)\n      dup2\n      mstore\n        /* \"ERC721A/MintNagaKids.sol\":4235:4245  msg.sender */\n      caller\n        /* \"ERC721A/MintNagaKids.sol\":4210:4254  nagaKidContract.safeMint(msg.sender,_amount) */\n      0x04\n      dup3\n      add\n        /* \"#utility.yul\":9413:9464   */\n      mstore\n        /* \"#utility.yul\":9480:9498   */\n      0x24\n      dup2\n      add\n        /* \"#utility.yul\":9473:9507   */\n      dup5\n      swap1\n      mstore\n      sub(shl(0xa0, 0x01), 0x01)\n        /* \"ERC721A/MintNagaKids.sol\":4210:4225  nagaKidContract */\n      swap1\n      swap2\n      and\n      swap1\n        /* \"ERC721A/MintNagaKids.sol\":4210:4234  nagaKidContract.safeMint */\n      0xa1448194\n      swap1\n        /* \"#utility.yul\":9386:9404   */\n      0x44\n      add\n        /* \"ERC721A/MintNagaKids.sol\":4210:4254  nagaKidContract.safeMint(msg.sender,_amount) */\n      0x00\n      mload(0x40)\n      dup1\n      dup4\n      sub\n      dup2\n      0x00\n      dup8\n      dup1\n      extcodesize\n      iszero\n      dup1\n      iszero\n      tag_390\n      jumpi\n      0x00\n      dup1\n      revert\n    tag_390:\n      pop\n      gas\n      call\n      iszero\n      dup1\n      iszero\n      tag_392\n      jumpi\n      returndatasize\n      0x00\n      dup1\n      returndatacopy\n      revert(0x00, returndatasize)\n    tag_392:\n      pop\n      pop\n        /* \"ERC721A/MintNagaKids.sol\":4272:4323  PrivateMinted(msg.sender, _amount, block.timestamp) */\n      0x40\n      dup1\n      mload\n        /* \"#utility.yul\":9160:9185   */\n      dup6\n      dup2\n      mstore\n        /* \"ERC721A/MintNagaKids.sol\":4307:4322  block.timestamp */\n      timestamp\n        /* \"#utility.yul\":9216:9218   */\n      0x20\n        /* \"#utility.yul\":9201:9219   */\n      dup3\n      add\n        /* \"#utility.yul\":9194:9228   */\n      mstore\n        /* \"ERC721A/MintNagaKids.sol\":4286:4296  msg.sender */\n      caller\n      swap4\n      pop\n        /* \"ERC721A/MintNagaKids.sol\":4272:4323  PrivateMinted(msg.sender, _amount, block.timestamp) */\n      0xe9e607753e80542a9021d5149990f18919907f0136fad424eaac3d15056ccf6e\n      swap3\n      pop\n        /* \"#utility.yul\":9133:9151   */\n      add\n        /* \"ERC721A/MintNagaKids.sol\":4272:4323  PrivateMinted(msg.sender, _amount, block.timestamp) */\n      mload(0x40)\n      dup1\n      swap2\n      sub\n      swap1\n      log2\n      pop\n      pop\n        /* \"@openzeppelin/contracts/security/ReentrancyGuard.sol\":1701:1702  1 */\n      0x01\n        /* \"@openzeppelin/contracts/security/ReentrancyGuard.sol\":2628:2650  _status = _NOT_ENTERED */\n      dup1\n      sstore\n      pop\n      pop\n        /* \"ERC721A/MintNagaKids.sol\":3336:4331  function allowlistMint(bytes32[] calldata _proof, uint256 _amount, bytes32 _round) public payable nonReentrant {... */\n      jump\t// out\n        /* \"ERC721A/VerifySignature.sol\":267:761  function getEthSignedMessageHash(bytes32 _messageHash)... */\n    tag_180:\n        /* \"ERC721A/VerifySignature.sol\":611:738  abi.encodePacked(... */\n      mload(0x40)\n        /* \"#utility.yul\":17622:17688   */\n      0x19457468657265756d205369676e6564204d6573736167653a0a333200000000\n        /* \"ERC721A/VerifySignature.sol\":611:738  abi.encodePacked(... */\n      0x20\n      dup3\n      add\n        /* \"#utility.yul\":17610:17689   */\n      mstore\n        /* \"#utility.yul\":17705:17717   */\n      0x3c\n      dup2\n      add\n        /* \"#utility.yul\":17698:17726   */\n      dup3\n      swap1\n      mstore\n        /* \"ERC721A/VerifySignature.sol\":370:377  bytes32 */\n      0x00\n      swap1\n        /* \"#utility.yul\":17742:17754   */\n      0x5c\n      add\n        /* \"ERC721A/VerifySignature.sol\":611:738  abi.encodePacked(... */\n      tag_192\n        /* \"#utility.yul\":17380:17760   */\n      jump\n        /* \"ERC721A/MintNagaKids.sol\":2711:2908  function setRound(bytes32 _round) public onlyOwner {... */\n    tag_185:\n        /* \"@openzeppelin/contracts/access/Ownable.sol\":1082:1089  address */\n      0x00\n        /* \"@openzeppelin/contracts/access/Ownable.sol\":1108:1114  _owner */\n      sload\n      sub(shl(0xa0, 0x01), 0x01)\n      and\n        /* \"@openzeppelin/contracts/utils/Context.sol\":719:729  msg.sender */\n      caller\n        /* \"@openzeppelin/contracts/access/Ownable.sol\":1248:1271  owner() == _msgSender() */\n      eq\n        /* \"@openzeppelin/contracts/access/Ownable.sol\":1240:1308  require(owner() == _msgSender(), \"Ownable: caller is not the owner\") */\n      tag_400\n      jumpi\n      mload(0x40)\n      shl(0xe5, 0x461bcd)\n      dup2\n      mstore\n      0x04\n      add\n      tag_208\n      swap1\n      tag_209\n      jump\t// in\n    tag_400:\n        /* \"ERC721A/MintNagaKids.sol\":2796:2812  currentMintRound */\n      0x03\n      dup1\n      sload\n        /* \"ERC721A/MintNagaKids.sol\":2823:2848  currentMintRound = _round */\n      swap1\n      dup3\n      swap1\n      sstore\n        /* \"ERC721A/MintNagaKids.sol\":2866:2900  RoundChanged(_roundBefore, _round) */\n      0x40\n      dup1\n      mload\n        /* \"#utility.yul\":9160:9185   */\n      dup3\n      dup2\n      mstore\n        /* \"#utility.yul\":9216:9218   */\n      0x20\n        /* \"#utility.yul\":9201:9219   */\n      dup2\n      add\n        /* \"#utility.yul\":9194:9228   */\n      dup5\n      swap1\n      mstore\n        /* \"ERC721A/MintNagaKids.sol\":2866:2900  RoundChanged(_roundBefore, _round) */\n      0x521ec96875ca228cd2fc1dbd4c927a34328c9ce1a83bcb8c1f633f012c90d785\n      swap2\n        /* \"#utility.yul\":9133:9151   */\n      add\n        /* \"ERC721A/MintNagaKids.sol\":2866:2900  RoundChanged(_roundBefore, _round) */\n      tag_228\n        /* \"#utility.yul\":8986:9234   */\n      jump\n        /* \"@openzeppelin/contracts/access/Ownable.sol\":2270:2457  function _transferOwnership(address newOwner) internal virtual {... */\n    tag_237:\n        /* \"@openzeppelin/contracts/access/Ownable.sol\":2343:2359  address oldOwner */\n      0x00\n        /* \"@openzeppelin/contracts/access/Ownable.sol\":2362:2368  _owner */\n      dup1\n      sload\n      sub(shl(0xa0, 0x01), 0x01)\n        /* \"@openzeppelin/contracts/access/Ownable.sol\":2378:2395  _owner = newOwner */\n      dup4\n      dup2\n      and\n      not(sub(shl(0xa0, 0x01), 0x01))\n      dup4\n      and\n      dup2\n      or\n      dup5\n      sstore\n        /* \"@openzeppelin/contracts/access/Ownable.sol\":2410:2450  OwnershipTransferred(oldOwner, newOwner) */\n      mload(0x40)\n        /* \"@openzeppelin/contracts/access/Ownable.sol\":2362:2368  _owner */\n      swap2\n      swap1\n      swap3\n      and\n      swap3\n      dup4\n      swap2\n        /* \"@openzeppelin/contracts/access/Ownable.sol\":2410:2450  OwnershipTransferred(oldOwner, newOwner) */\n      0x8be0079c531659141344cd1fd0a4f28419497f9722a3daafe3b4186f6b6457e0\n      swap2\n        /* \"@openzeppelin/contracts/access/Ownable.sol\":2343:2359  address oldOwner */\n      swap1\n        /* \"@openzeppelin/contracts/access/Ownable.sol\":2410:2450  OwnershipTransferred(oldOwner, newOwner) */\n      log3\n        /* \"@openzeppelin/contracts/access/Ownable.sol\":2333:2457  {... */\n      pop\n        /* \"@openzeppelin/contracts/access/Ownable.sol\":2270:2457  function _transferOwnership(address newOwner) internal virtual {... */\n      pop\n      jump\t// out\n        /* \"@openzeppelin/contracts/utils/cryptography/MerkleProof.sol\":1154:1338  function verify(... */\n    tag_384:\n        /* \"@openzeppelin/contracts/utils/cryptography/MerkleProof.sol\":1275:1279  bool */\n      0x00\n        /* \"@openzeppelin/contracts/utils/cryptography/MerkleProof.sol\":1327:1331  root */\n      dup3\n        /* \"@openzeppelin/contracts/utils/cryptography/MerkleProof.sol\":1298:1323  processProof(proof, leaf) */\n      tag_408\n        /* \"@openzeppelin/contracts/utils/cryptography/MerkleProof.sol\":1311:1316  proof */\n      dup6\n        /* \"@openzeppelin/contracts/utils/cryptography/MerkleProof.sol\":1318:1322  leaf */\n      dup5\n        /* \"@openzeppelin/contracts/utils/cryptography/MerkleProof.sol\":1298:1310  processProof */\n      tag_409\n        /* \"@openzeppelin/contracts/utils/cryptography/MerkleProof.sol\":1298:1323  processProof(proof, leaf) */\n      jump\t// in\n    tag_408:\n        /* \"@openzeppelin/contracts/utils/cryptography/MerkleProof.sol\":1298:1331  processProof(proof, leaf) == root */\n      eq\n      swap5\n        /* \"@openzeppelin/contracts/utils/cryptography/MerkleProof.sol\":1154:1338  function verify(... */\n      swap4\n      pop\n      pop\n      pop\n      pop\n      jump\t// out\n        /* \"@openzeppelin/contracts/utils/cryptography/MerkleProof.sol\":1689:2351  function processProof(bytes32[] memory proof, bytes32 leaf) internal pure returns (bytes32) {... */\n    tag_409:\n        /* \"@openzeppelin/contracts/utils/cryptography/MerkleProof.sol\":1772:1779  bytes32 */\n      0x00\n        /* \"@openzeppelin/contracts/utils/cryptography/MerkleProof.sol\":1814:1818  leaf */\n      dup2\n        /* \"@openzeppelin/contracts/utils/cryptography/MerkleProof.sol\":1772:1779  bytes32 */\n      dup2\n        /* \"@openzeppelin/contracts/utils/cryptography/MerkleProof.sol\":1828:2316  for (uint256 i = 0; i < proof.length; i++) {... */\n    tag_411:\n        /* \"@openzeppelin/contracts/utils/cryptography/MerkleProof.sol\":1852:1857  proof */\n      dup5\n        /* \"@openzeppelin/contracts/utils/cryptography/MerkleProof.sol\":1852:1864  proof.length */\n      mload\n        /* \"@openzeppelin/contracts/utils/cryptography/MerkleProof.sol\":1848:1849  i */\n      dup2\n        /* \"@openzeppelin/contracts/utils/cryptography/MerkleProof.sol\":1848:1864  i < proof.length */\n      lt\n        /* \"@openzeppelin/contracts/utils/cryptography/MerkleProof.sol\":1828:2316  for (uint256 i = 0; i < proof.length; i++) {... */\n      iszero\n      tag_412\n      jumpi\n        /* \"@openzeppelin/contracts/utils/cryptography/MerkleProof.sol\":1885:1905  bytes32 proofElement */\n      0x00\n        /* \"@openzeppelin/contracts/utils/cryptography/MerkleProof.sol\":1908:1913  proof */\n      dup6\n        /* \"@openzeppelin/contracts/utils/cryptography/MerkleProof.sol\":1914:1915  i */\n      dup3\n        /* \"@openzeppelin/contracts/utils/cryptography/MerkleProof.sol\":1908:1916  proof[i] */\n      dup2\n      mload\n      dup2\n      lt\n      tag_415\n      jumpi\n      tag_415\n      tag_416\n      jump\t// in\n    tag_415:\n      0x20\n      mul\n      0x20\n      add\n      add\n      mload\n        /* \"@openzeppelin/contracts/utils/cryptography/MerkleProof.sol\":1885:1916  bytes32 proofElement = proof[i] */\n      swap1\n      pop\n        /* \"@openzeppelin/contracts/utils/cryptography/MerkleProof.sol\":1950:1962  proofElement */\n      dup1\n        /* \"@openzeppelin/contracts/utils/cryptography/MerkleProof.sol\":1934:1946  computedHash */\n      dup4\n        /* \"@openzeppelin/contracts/utils/cryptography/MerkleProof.sol\":1934:1962  computedHash <= proofElement */\n      gt\n        /* \"@openzeppelin/contracts/utils/cryptography/MerkleProof.sol\":1930:2306  if (computedHash <= proofElement) {... */\n      tag_417\n      jumpi\n        /* \"@openzeppelin/contracts/utils/cryptography/MerkleProof.sol\":2425:2438  bytes32 value */\n      0x00\n        /* \"@openzeppelin/contracts/utils/cryptography/MerkleProof.sol\":2473:2488  mstore(0x00, a) */\n      dup4\n      dup2\n      mstore\n        /* \"@openzeppelin/contracts/utils/cryptography/MerkleProof.sol\":2508:2512  0x20 */\n      0x20\n        /* \"@openzeppelin/contracts/utils/cryptography/MerkleProof.sol\":2501:2516  mstore(0x20, b) */\n      dup3\n      swap1\n      mstore\n        /* \"@openzeppelin/contracts/utils/cryptography/MerkleProof.sol\":2554:2558  0x40 */\n      0x40\n        /* \"@openzeppelin/contracts/utils/cryptography/MerkleProof.sol\":2538:2559  keccak256(0x00, 0x40) */\n      swap1\n      keccak256\n        /* \"@openzeppelin/contracts/utils/cryptography/MerkleProof.sol\":2060:2117  computedHash = _efficientHash(computedHash, proofElement) */\n      swap3\n      pop\n        /* \"@openzeppelin/contracts/utils/cryptography/MerkleProof.sol\":1930:2306  if (computedHash <= proofElement) {... */\n      jump(tag_420)\n    tag_417:\n        /* \"@openzeppelin/contracts/utils/cryptography/MerkleProof.sol\":2425:2438  bytes32 value */\n      0x00\n        /* \"@openzeppelin/contracts/utils/cryptography/MerkleProof.sol\":2473:2488  mstore(0x00, a) */\n      dup2\n      dup2\n      mstore\n        /* \"@openzeppelin/contracts/utils/cryptography/MerkleProof.sol\":2508:2512  0x20 */\n      0x20\n        /* \"@openzeppelin/contracts/utils/cryptography/MerkleProof.sol\":2501:2516  mstore(0x20, b) */\n      dup5\n      swap1\n      mstore\n        /* \"@openzeppelin/contracts/utils/cryptography/MerkleProof.sol\":2554:2558  0x40 */\n      0x40\n        /* \"@openzeppelin/contracts/utils/cryptography/MerkleProof.sol\":2538:2559  keccak256(0x00, 0x40) */\n      swap1\n      keccak256\n        /* \"@openzeppelin/contracts/utils/cryptography/MerkleProof.sol\":2234:2291  computedHash = _efficientHash(proofElement, computedHash) */\n      swap3\n      pop\n        /* \"@openzeppelin/contracts/utils/cryptography/MerkleProof.sol\":1930:2306  if (computedHash <= proofElement) {... */\n    tag_420:\n      pop\n        /* \"@openzeppelin/contracts/utils/cryptography/MerkleProof.sol\":1866:1869  i++ */\n      dup1\n      tag_422\n      dup2\n      tag_423\n      jump\t// in\n    tag_422:\n      swap2\n      pop\n      pop\n        /* \"@openzeppelin/contracts/utils/cryptography/MerkleProof.sol\":1828:2316  for (uint256 i = 0; i < proof.length; i++) {... */\n      jump(tag_411)\n    tag_412:\n      pop\n        /* \"@openzeppelin/contracts/utils/cryptography/MerkleProof.sol\":2332:2344  computedHash */\n      swap4\n        /* \"@openzeppelin/contracts/utils/cryptography/MerkleProof.sol\":1689:2351  function processProof(bytes32[] memory proof, bytes32 leaf) internal pure returns (bytes32) {... */\n      swap3\n      pop\n      pop\n      pop\n      jump\t// out\n        /* \"#utility.yul\":196:327   */\n    tag_425:\n      sub(shl(0xa0, 0x01), 0x01)\n        /* \"#utility.yul\":271:302   */\n      dup2\n      and\n        /* \"#utility.yul\":261:303   */\n      dup2\n      eq\n        /* \"#utility.yul\":251:321   */\n      tag_351\n      jumpi\n        /* \"#utility.yul\":317:318   */\n      0x00\n        /* \"#utility.yul\":314:315   */\n      dup1\n        /* \"#utility.yul\":307:319   */\n      revert\n        /* \"#utility.yul\":332:579   */\n    tag_49:\n        /* \"#utility.yul\":391:397   */\n      0x00\n        /* \"#utility.yul\":444:446   */\n      0x20\n        /* \"#utility.yul\":432:441   */\n      dup3\n        /* \"#utility.yul\":423:430   */\n      dup5\n        /* \"#utility.yul\":419:442   */\n      sub\n        /* \"#utility.yul\":415:447   */\n      slt\n        /* \"#utility.yul\":412:464   */\n      iszero\n      tag_434\n      jumpi\n        /* \"#utility.yul\":460:461   */\n      0x00\n        /* \"#utility.yul\":457:458   */\n      dup1\n        /* \"#utility.yul\":450:462   */\n      revert\n        /* \"#utility.yul\":412:464   */\n    tag_434:\n        /* \"#utility.yul\":499:508   */\n      dup2\n        /* \"#utility.yul\":486:509   */\n      calldataload\n        /* \"#utility.yul\":518:549   */\n      tag_435\n        /* \"#utility.yul\":543:548   */\n      dup2\n        /* \"#utility.yul\":518:549   */\n      tag_425\n      jump\t// in\n    tag_435:\n        /* \"#utility.yul\":568:573   */\n      swap4\n        /* \"#utility.yul\":332:579   */\n      swap3\n      pop\n      pop\n      pop\n      jump\t// out\n        /* \"#utility.yul\":792:919   */\n    tag_426:\n        /* \"#utility.yul\":853:863   */\n      0x4e487b71\n        /* \"#utility.yul\":848:851   */\n      0xe0\n        /* \"#utility.yul\":844:864   */\n      shl\n        /* \"#utility.yul\":841:842   */\n      0x00\n        /* \"#utility.yul\":834:865   */\n      mstore\n        /* \"#utility.yul\":884:888   */\n      0x41\n        /* \"#utility.yul\":881:882   */\n      0x04\n        /* \"#utility.yul\":874:889   */\n      mstore\n        /* \"#utility.yul\":908:912   */\n      0x24\n        /* \"#utility.yul\":905:906   */\n      0x00\n        /* \"#utility.yul\":898:913   */\n      revert\n        /* \"#utility.yul\":924:1642   */\n    tag_427:\n        /* \"#utility.yul\":966:971   */\n      0x00\n        /* \"#utility.yul\":1019:1022   */\n      dup3\n        /* \"#utility.yul\":1012:1016   */\n      0x1f\n        /* \"#utility.yul\":1004:1010   */\n      dup4\n        /* \"#utility.yul\":1000:1017   */\n      add\n        /* \"#utility.yul\":996:1023   */\n      slt\n        /* \"#utility.yul\":986:1041   */\n      tag_439\n      jumpi\n        /* \"#utility.yul\":1037:1038   */\n      0x00\n        /* \"#utility.yul\":1034:1035   */\n      dup1\n        /* \"#utility.yul\":1027:1039   */\n      revert\n        /* \"#utility.yul\":986:1041   */\n    tag_439:\n        /* \"#utility.yul\":1073:1079   */\n      dup2\n        /* \"#utility.yul\":1060:1080   */\n      calldataload\n        /* \"#utility.yul\":1099:1117   */\n      0xffffffffffffffff\n        /* \"#utility.yul\":1136:1138   */\n      dup1\n        /* \"#utility.yul\":1132:1134   */\n      dup3\n        /* \"#utility.yul\":1129:1139   */\n      gt\n        /* \"#utility.yul\":1126:1162   */\n      iszero\n      tag_441\n      jumpi\n        /* \"#utility.yul\":1142:1160   */\n      tag_441\n      tag_426\n      jump\t// in\n    tag_441:\n        /* \"#utility.yul\":1217:1219   */\n      0x40\n        /* \"#utility.yul\":1211:1220   */\n      mload\n        /* \"#utility.yul\":1185:1187   */\n      0x1f\n        /* \"#utility.yul\":1271:1284   */\n      dup4\n      add\n      not(0x1f)\n        /* \"#utility.yul\":1267:1289   */\n      swap1\n      dup2\n      and\n        /* \"#utility.yul\":1291:1293   */\n      0x3f\n        /* \"#utility.yul\":1263:1294   */\n      add\n        /* \"#utility.yul\":1259:1299   */\n      and\n        /* \"#utility.yul\":1247:1300   */\n      dup2\n      add\n      swap1\n        /* \"#utility.yul\":1315:1333   */\n      dup3\n      dup3\n      gt\n        /* \"#utility.yul\":1335:1357   */\n      dup2\n      dup4\n      lt\n        /* \"#utility.yul\":1312:1358   */\n      or\n        /* \"#utility.yul\":1309:1381   */\n      iszero\n      tag_443\n      jumpi\n        /* \"#utility.yul\":1361:1379   */\n      tag_443\n      tag_426\n      jump\t// in\n    tag_443:\n        /* \"#utility.yul\":1401:1411   */\n      dup2\n        /* \"#utility.yul\":1397:1399   */\n      0x40\n        /* \"#utility.yul\":1390:1412   */\n      mstore\n        /* \"#utility.yul\":1436:1438   */\n      dup4\n        /* \"#utility.yul\":1428:1434   */\n      dup2\n        /* \"#utility.yul\":1421:1439   */\n      mstore\n        /* \"#utility.yul\":1482:1485   */\n      dup7\n        /* \"#utility.yul\":1475:1479   */\n      0x20\n        /* \"#utility.yul\":1470:1472   */\n      dup6\n        /* \"#utility.yul\":1462:1468   */\n      dup9\n        /* \"#utility.yul\":1458:1473   */\n      add\n        /* \"#utility.yul\":1454:1480   */\n      add\n        /* \"#utility.yul\":1451:1486   */\n      gt\n        /* \"#utility.yul\":1448:1503   */\n      iszero\n      tag_444\n      jumpi\n        /* \"#utility.yul\":1499:1500   */\n      0x00\n        /* \"#utility.yul\":1496:1497   */\n      dup1\n        /* \"#utility.yul\":1489:1501   */\n      revert\n        /* \"#utility.yul\":1448:1503   */\n    tag_444:\n        /* \"#utility.yul\":1563:1565   */\n      dup4\n        /* \"#utility.yul\":1556:1560   */\n      0x20\n        /* \"#utility.yul\":1548:1554   */\n      dup8\n        /* \"#utility.yul\":1544:1561   */\n      add\n        /* \"#utility.yul\":1537:1541   */\n      0x20\n        /* \"#utility.yul\":1529:1535   */\n      dup4\n        /* \"#utility.yul\":1525:1542   */\n      add\n        /* \"#utility.yul\":1512:1566   */\n      calldatacopy\n        /* \"#utility.yul\":1610:1611   */\n      0x00\n        /* \"#utility.yul\":1603:1607   */\n      0x20\n        /* \"#utility.yul\":1598:1600   */\n      dup6\n        /* \"#utility.yul\":1590:1596   */\n      dup4\n        /* \"#utility.yul\":1586:1601   */\n      add\n        /* \"#utility.yul\":1582:1608   */\n      add\n        /* \"#utility.yul\":1575:1612   */\n      mstore\n        /* \"#utility.yul\":1630:1636   */\n      dup1\n        /* \"#utility.yul\":1621:1636   */\n      swap5\n      pop\n      pop\n      pop\n      pop\n      pop\n        /* \"#utility.yul\":924:1642   */\n      swap3\n      swap2\n      pop\n      pop\n      jump\t// out\n        /* \"#utility.yul\":1647:2243   */\n    tag_68:\n        /* \"#utility.yul\":1733:1739   */\n      0x00\n        /* \"#utility.yul\":1741:1747   */\n      dup1\n        /* \"#utility.yul\":1749:1755   */\n      0x00\n        /* \"#utility.yul\":1802:1804   */\n      0x60\n        /* \"#utility.yul\":1790:1799   */\n      dup5\n        /* \"#utility.yul\":1781:1788   */\n      dup7\n        /* \"#utility.yul\":1777:1800   */\n      sub\n        /* \"#utility.yul\":1773:1805   */\n      slt\n        /* \"#utility.yul\":1770:1822   */\n      iszero\n      tag_446\n      jumpi\n        /* \"#utility.yul\":1818:1819   */\n      0x00\n        /* \"#utility.yul\":1815:1816   */\n      dup1\n        /* \"#utility.yul\":1808:1820   */\n      revert\n        /* \"#utility.yul\":1770:1822   */\n    tag_446:\n        /* \"#utility.yul\":1857:1866   */\n      dup4\n        /* \"#utility.yul\":1844:1867   */\n      calldataload\n        /* \"#utility.yul\":1876:1907   */\n      tag_447\n        /* \"#utility.yul\":1901:1906   */\n      dup2\n        /* \"#utility.yul\":1876:1907   */\n      tag_425\n      jump\t// in\n    tag_447:\n        /* \"#utility.yul\":1926:1931   */\n      swap3\n      pop\n        /* \"#utility.yul\":1983:1985   */\n      0x20\n        /* \"#utility.yul\":1968:1986   */\n      dup5\n      add\n        /* \"#utility.yul\":1955:1987   */\n      calldataload\n        /* \"#utility.yul\":1996:2029   */\n      tag_448\n        /* \"#utility.yul\":1955:1987   */\n      dup2\n        /* \"#utility.yul\":1996:2029   */\n      tag_425\n      jump\t// in\n    tag_448:\n        /* \"#utility.yul\":2048:2055   */\n      swap2\n      pop\n        /* \"#utility.yul\":2106:2108   */\n      0x40\n        /* \"#utility.yul\":2091:2109   */\n      dup5\n      add\n        /* \"#utility.yul\":2078:2110   */\n      calldataload\n        /* \"#utility.yul\":2133:2151   */\n      0xffffffffffffffff\n        /* \"#utility.yul\":2122:2152   */\n      dup2\n      gt\n        /* \"#utility.yul\":2119:2169   */\n      iszero\n      tag_449\n      jumpi\n        /* \"#utility.yul\":2165:2166   */\n      0x00\n        /* \"#utility.yul\":2162:2163   */\n      dup1\n        /* \"#utility.yul\":2155:2167   */\n      revert\n        /* \"#utility.yul\":2119:2169   */\n    tag_449:\n        /* \"#utility.yul\":2188:2237   */\n      tag_450\n        /* \"#utility.yul\":2229:2236   */\n      dup7\n        /* \"#utility.yul\":2220:2226   */\n      dup3\n        /* \"#utility.yul\":2209:2218   */\n      dup8\n        /* \"#utility.yul\":2205:2227   */\n      add\n        /* \"#utility.yul\":2188:2237   */\n      tag_427\n      jump\t// in\n    tag_450:\n        /* \"#utility.yul\":2178:2237   */\n      swap2\n      pop\n      pop\n        /* \"#utility.yul\":1647:2243   */\n      swap3\n      pop\n      swap3\n      pop\n      swap3\n      jump\t// out\n        /* \"#utility.yul\":2622:2802   */\n    tag_91:\n        /* \"#utility.yul\":2681:2687   */\n      0x00\n        /* \"#utility.yul\":2734:2736   */\n      0x20\n        /* \"#utility.yul\":2722:2731   */\n      dup3\n        /* \"#utility.yul\":2713:2720   */\n      dup5\n        /* \"#utility.yul\":2709:2732   */\n      sub\n        /* \"#utility.yul\":2705:2737   */\n      slt\n        /* \"#utility.yul\":2702:2754   */\n      iszero\n      tag_454\n      jumpi\n        /* \"#utility.yul\":2750:2751   */\n      0x00\n        /* \"#utility.yul\":2747:2748   */\n      dup1\n        /* \"#utility.yul\":2740:2752   */\n      revert\n        /* \"#utility.yul\":2702:2754   */\n    tag_454:\n      pop\n        /* \"#utility.yul\":2773:2796   */\n      calldataload\n      swap2\n        /* \"#utility.yul\":2622:2802   */\n      swap1\n      pop\n      jump\t// out\n        /* \"#utility.yul\":2807:3195   */\n    tag_96:\n        /* \"#utility.yul\":2875:2881   */\n      0x00\n        /* \"#utility.yul\":2883:2889   */\n      dup1\n        /* \"#utility.yul\":2936:2938   */\n      0x40\n        /* \"#utility.yul\":2924:2933   */\n      dup4\n        /* \"#utility.yul\":2915:2922   */\n      dup6\n        /* \"#utility.yul\":2911:2934   */\n      sub\n        /* \"#utility.yul\":2907:2939   */\n      slt\n        /* \"#utility.yul\":2904:2956   */\n      iszero\n      tag_456\n      jumpi\n        /* \"#utility.yul\":2952:2953   */\n      0x00\n        /* \"#utility.yul\":2949:2950   */\n      dup1\n        /* \"#utility.yul\":2942:2954   */\n      revert\n        /* \"#utility.yul\":2904:2956   */\n    tag_456:\n        /* \"#utility.yul\":2991:3000   */\n      dup3\n        /* \"#utility.yul\":2978:3001   */\n      calldataload\n        /* \"#utility.yul\":3010:3041   */\n      tag_457\n        /* \"#utility.yul\":3035:3040   */\n      dup2\n        /* \"#utility.yul\":3010:3041   */\n      tag_425\n      jump\t// in\n    tag_457:\n        /* \"#utility.yul\":3060:3065   */\n      swap2\n      pop\n        /* \"#utility.yul\":3117:3119   */\n      0x20\n        /* \"#utility.yul\":3102:3120   */\n      dup4\n      add\n        /* \"#utility.yul\":3089:3121   */\n      calldataload\n        /* \"#utility.yul\":3130:3163   */\n      tag_458\n        /* \"#utility.yul\":3089:3121   */\n      dup2\n        /* \"#utility.yul\":3130:3163   */\n      tag_425\n      jump\t// in\n    tag_458:\n        /* \"#utility.yul\":3182:3189   */\n      dup1\n        /* \"#utility.yul\":3172:3189   */\n      swap2\n      pop\n      pop\n        /* \"#utility.yul\":2807:3195   */\n      swap3\n      pop\n      swap3\n      swap1\n      pop\n      jump\t// out\n        /* \"#utility.yul\":3200:3588   */\n    tag_109:\n        /* \"#utility.yul\":3277:3283   */\n      0x00\n        /* \"#utility.yul\":3285:3291   */\n      dup1\n        /* \"#utility.yul\":3338:3340   */\n      0x40\n        /* \"#utility.yul\":3326:3335   */\n      dup4\n        /* \"#utility.yul\":3317:3324   */\n      dup6\n        /* \"#utility.yul\":3313:3336   */\n      sub\n        /* \"#utility.yul\":3309:3341   */\n      slt\n        /* \"#utility.yul\":3306:3358   */\n      iszero\n      tag_460\n      jumpi\n        /* \"#utility.yul\":3354:3355   */\n      0x00\n        /* \"#utility.yul\":3351:3352   */\n      dup1\n        /* \"#utility.yul\":3344:3356   */\n      revert\n        /* \"#utility.yul\":3306:3358   */\n    tag_460:\n        /* \"#utility.yul\":3390:3399   */\n      dup3\n        /* \"#utility.yul\":3377:3400   */\n      calldataload\n        /* \"#utility.yul\":3367:3400   */\n      swap2\n      pop\n        /* \"#utility.yul\":3451:3453   */\n      0x20\n        /* \"#utility.yul\":3440:3449   */\n      dup4\n        /* \"#utility.yul\":3436:3454   */\n      add\n        /* \"#utility.yul\":3423:3455   */\n      calldataload\n        /* \"#utility.yul\":3478:3496   */\n      0xffffffffffffffff\n        /* \"#utility.yul\":3470:3476   */\n      dup2\n        /* \"#utility.yul\":3467:3497   */\n      gt\n        /* \"#utility.yul\":3464:3514   */\n      iszero\n      tag_461\n      jumpi\n        /* \"#utility.yul\":3510:3511   */\n      0x00\n        /* \"#utility.yul\":3507:3508   */\n      dup1\n        /* \"#utility.yul\":3500:3512   */\n      revert\n        /* \"#utility.yul\":3464:3514   */\n    tag_461:\n        /* \"#utility.yul\":3533:3582   */\n      tag_462\n        /* \"#utility.yul\":3574:3581   */\n      dup6\n        /* \"#utility.yul\":3565:3571   */\n      dup3\n        /* \"#utility.yul\":3554:3563   */\n      dup7\n        /* \"#utility.yul\":3550:3572   */\n      add\n        /* \"#utility.yul\":3533:3582   */\n      tag_427\n      jump\t// in\n    tag_462:\n        /* \"#utility.yul\":3523:3582   */\n      swap2\n      pop\n      pop\n        /* \"#utility.yul\":3200:3588   */\n      swap3\n      pop\n      swap3\n      swap1\n      pop\n      jump\t// out\n        /* \"#utility.yul\":3861:4181   */\n    tag_124:\n        /* \"#utility.yul\":3929:3935   */\n      0x00\n        /* \"#utility.yul\":3982:3984   */\n      0x20\n        /* \"#utility.yul\":3970:3979   */\n      dup3\n        /* \"#utility.yul\":3961:3968   */\n      dup5\n        /* \"#utility.yul\":3957:3980   */\n      sub\n        /* \"#utility.yul\":3953:3985   */\n      slt\n        /* \"#utility.yul\":3950:4002   */\n      iszero\n      tag_467\n      jumpi\n        /* \"#utility.yul\":3998:3999   */\n      0x00\n        /* \"#utility.yul\":3995:3996   */\n      dup1\n        /* \"#utility.yul\":3988:4000   */\n      revert\n        /* \"#utility.yul\":3950:4002   */\n    tag_467:\n        /* \"#utility.yul\":4038:4047   */\n      dup2\n        /* \"#utility.yul\":4025:4048   */\n      calldataload\n        /* \"#utility.yul\":4071:4089   */\n      0xffffffffffffffff\n        /* \"#utility.yul\":4063:4069   */\n      dup2\n        /* \"#utility.yul\":4060:4090   */\n      gt\n        /* \"#utility.yul\":4057:4107   */\n      iszero\n      tag_468\n      jumpi\n        /* \"#utility.yul\":4103:4104   */\n      0x00\n        /* \"#utility.yul\":4100:4101   */\n      dup1\n        /* \"#utility.yul\":4093:4105   */\n      revert\n        /* \"#utility.yul\":4057:4107   */\n    tag_468:\n        /* \"#utility.yul\":4126:4175   */\n      tag_469\n        /* \"#utility.yul\":4167:4174   */\n      dup5\n        /* \"#utility.yul\":4158:4164   */\n      dup3\n        /* \"#utility.yul\":4147:4156   */\n      dup6\n        /* \"#utility.yul\":4143:4165   */\n      add\n        /* \"#utility.yul\":4126:4175   */\n      tag_427\n      jump\t// in\n    tag_469:\n        /* \"#utility.yul\":4116:4175   */\n      swap5\n        /* \"#utility.yul\":3861:4181   */\n      swap4\n      pop\n      pop\n      pop\n      pop\n      jump\t// out\n        /* \"#utility.yul\":4517:4832   */\n    tag_131:\n        /* \"#utility.yul\":4585:4591   */\n      0x00\n        /* \"#utility.yul\":4593:4599   */\n      dup1\n        /* \"#utility.yul\":4646:4648   */\n      0x40\n        /* \"#utility.yul\":4634:4643   */\n      dup4\n        /* \"#utility.yul\":4625:4632   */\n      dup6\n        /* \"#utility.yul\":4621:4644   */\n      sub\n        /* \"#utility.yul\":4617:4649   */\n      slt\n        /* \"#utility.yul\":4614:4666   */\n      iszero\n      tag_472\n      jumpi\n        /* \"#utility.yul\":4662:4663   */\n      0x00\n        /* \"#utility.yul\":4659:4660   */\n      dup1\n        /* \"#utility.yul\":4652:4664   */\n      revert\n        /* \"#utility.yul\":4614:4666   */\n    tag_472:\n        /* \"#utility.yul\":4701:4710   */\n      dup3\n        /* \"#utility.yul\":4688:4711   */\n      calldataload\n        /* \"#utility.yul\":4720:4751   */\n      tag_473\n        /* \"#utility.yul\":4745:4750   */\n      dup2\n        /* \"#utility.yul\":4720:4751   */\n      tag_425\n      jump\t// in\n    tag_473:\n        /* \"#utility.yul\":4770:4775   */\n      swap5\n        /* \"#utility.yul\":4822:4824   */\n      0x20\n        /* \"#utility.yul\":4807:4825   */\n      swap4\n      swap1\n      swap4\n      add\n        /* \"#utility.yul\":4794:4826   */\n      calldataload\n      swap4\n      pop\n      pop\n      pop\n        /* \"#utility.yul\":4517:4832   */\n      jump\t// out\n        /* \"#utility.yul\":4837:5293   */\n    tag_137:\n        /* \"#utility.yul\":4914:4920   */\n      0x00\n        /* \"#utility.yul\":4922:4928   */\n      dup1\n        /* \"#utility.yul\":4930:4936   */\n      0x00\n        /* \"#utility.yul\":4983:4985   */\n      0x60\n        /* \"#utility.yul\":4971:4980   */\n      dup5\n        /* \"#utility.yul\":4962:4969   */\n      dup7\n        /* \"#utility.yul\":4958:4981   */\n      sub\n        /* \"#utility.yul\":4954:4986   */\n      slt\n        /* \"#utility.yul\":4951:5003   */\n      iszero\n      tag_475\n      jumpi\n        /* \"#utility.yul\":4999:5000   */\n      0x00\n        /* \"#utility.yul\":4996:4997   */\n      dup1\n        /* \"#utility.yul\":4989:5001   */\n      revert\n        /* \"#utility.yul\":4951:5003   */\n    tag_475:\n        /* \"#utility.yul\":5038:5047   */\n      dup4\n        /* \"#utility.yul\":5025:5048   */\n      calldataload\n        /* \"#utility.yul\":5057:5088   */\n      tag_476\n        /* \"#utility.yul\":5082:5087   */\n      dup2\n        /* \"#utility.yul\":5057:5088   */\n      tag_425\n      jump\t// in\n    tag_476:\n        /* \"#utility.yul\":5107:5112   */\n      swap3\n      pop\n        /* \"#utility.yul\":5164:5166   */\n      0x20\n        /* \"#utility.yul\":5149:5167   */\n      dup5\n      add\n        /* \"#utility.yul\":5136:5168   */\n      calldataload\n        /* \"#utility.yul\":5177:5210   */\n      tag_477\n        /* \"#utility.yul\":5136:5168   */\n      dup2\n        /* \"#utility.yul\":5177:5210   */\n      tag_425\n      jump\t// in\n    tag_477:\n        /* \"#utility.yul\":4837:5293   */\n      swap3\n      swap6\n        /* \"#utility.yul\":5229:5236   */\n      swap3\n      swap5\n      pop\n      pop\n      pop\n        /* \"#utility.yul\":5283:5285   */\n      0x40\n        /* \"#utility.yul\":5268:5286   */\n      swap2\n      swap1\n      swap2\n      add\n        /* \"#utility.yul\":5255:5287   */\n      calldataload\n      swap1\n        /* \"#utility.yul\":4837:5293   */\n      jump\t// out\n        /* \"#utility.yul\":5298:5889   */\n    tag_145:\n        /* \"#utility.yul\":5368:5374   */\n      0x00\n        /* \"#utility.yul\":5376:5382   */\n      dup1\n        /* \"#utility.yul\":5429:5431   */\n      0x20\n        /* \"#utility.yul\":5417:5426   */\n      dup4\n        /* \"#utility.yul\":5408:5415   */\n      dup6\n        /* \"#utility.yul\":5404:5427   */\n      sub\n        /* \"#utility.yul\":5400:5432   */\n      slt\n        /* \"#utility.yul\":5397:5449   */\n      iszero\n      tag_479\n      jumpi\n        /* \"#utility.yul\":5445:5446   */\n      0x00\n        /* \"#utility.yul\":5442:5443   */\n      dup1\n        /* \"#utility.yul\":5435:5447   */\n      revert\n        /* \"#utility.yul\":5397:5449   */\n    tag_479:\n        /* \"#utility.yul\":5485:5494   */\n      dup3\n        /* \"#utility.yul\":5472:5495   */\n      calldataload\n        /* \"#utility.yul\":5514:5532   */\n      0xffffffffffffffff\n        /* \"#utility.yul\":5555:5557   */\n      dup1\n        /* \"#utility.yul\":5547:5553   */\n      dup3\n        /* \"#utility.yul\":5544:5558   */\n      gt\n        /* \"#utility.yul\":5541:5575   */\n      iszero\n      tag_480\n      jumpi\n        /* \"#utility.yul\":5571:5572   */\n      0x00\n        /* \"#utility.yul\":5568:5569   */\n      dup1\n        /* \"#utility.yul\":5561:5573   */\n      revert\n        /* \"#utility.yul\":5541:5575   */\n    tag_480:\n        /* \"#utility.yul\":5609:5615   */\n      dup2\n        /* \"#utility.yul\":5598:5607   */\n      dup6\n        /* \"#utility.yul\":5594:5616   */\n      add\n        /* \"#utility.yul\":5584:5616   */\n      swap2\n      pop\n        /* \"#utility.yul\":5654:5661   */\n      dup6\n        /* \"#utility.yul\":5647:5651   */\n      0x1f\n        /* \"#utility.yul\":5643:5645   */\n      dup4\n        /* \"#utility.yul\":5639:5652   */\n      add\n        /* \"#utility.yul\":5635:5662   */\n      slt\n        /* \"#utility.yul\":5625:5680   */\n      tag_481\n      jumpi\n        /* \"#utility.yul\":5676:5677   */\n      0x00\n        /* \"#utility.yul\":5673:5674   */\n      dup1\n        /* \"#utility.yul\":5666:5678   */\n      revert\n        /* \"#utility.yul\":5625:5680   */\n    tag_481:\n        /* \"#utility.yul\":5716:5718   */\n      dup2\n        /* \"#utility.yul\":5703:5719   */\n      calldataload\n        /* \"#utility.yul\":5742:5744   */\n      dup2\n        /* \"#utility.yul\":5734:5740   */\n      dup2\n        /* \"#utility.yul\":5731:5745   */\n      gt\n        /* \"#utility.yul\":5728:5762   */\n      iszero\n      tag_482\n      jumpi\n        /* \"#utility.yul\":5758:5759   */\n      0x00\n        /* \"#utility.yul\":5755:5756   */\n      dup1\n        /* \"#utility.yul\":5748:5760   */\n      revert\n        /* \"#utility.yul\":5728:5762   */\n    tag_482:\n        /* \"#utility.yul\":5803:5810   */\n      dup7\n        /* \"#utility.yul\":5798:5800   */\n      0x20\n        /* \"#utility.yul\":5789:5795   */\n      dup3\n        /* \"#utility.yul\":5785:5787   */\n      dup6\n        /* \"#utility.yul\":5781:5796   */\n      add\n        /* \"#utility.yul\":5777:5801   */\n      add\n        /* \"#utility.yul\":5774:5811   */\n      gt\n        /* \"#utility.yul\":5771:5828   */\n      iszero\n      tag_483\n      jumpi\n        /* \"#utility.yul\":5824:5825   */\n      0x00\n        /* \"#utility.yul\":5821:5822   */\n      dup1\n        /* \"#utility.yul\":5814:5826   */\n      revert\n        /* \"#utility.yul\":5771:5828   */\n    tag_483:\n        /* \"#utility.yul\":5855:5857   */\n      0x20\n        /* \"#utility.yul\":5847:5858   */\n      swap3\n      swap1\n      swap3\n      add\n      swap7\n        /* \"#utility.yul\":5877:5883   */\n      swap2\n      swap6\n      pop\n        /* \"#utility.yul\":5298:5889   */\n      swap1\n      swap4\n      pop\n      pop\n      pop\n      pop\n      jump\t// out\n        /* \"#utility.yul\":6118:6875   */\n    tag_175:\n        /* \"#utility.yul\":6222:6228   */\n      0x00\n        /* \"#utility.yul\":6230:6236   */\n      dup1\n        /* \"#utility.yul\":6238:6244   */\n      0x00\n        /* \"#utility.yul\":6246:6252   */\n      dup1\n        /* \"#utility.yul\":6299:6301   */\n      0x60\n        /* \"#utility.yul\":6287:6296   */\n      dup6\n        /* \"#utility.yul\":6278:6285   */\n      dup8\n        /* \"#utility.yul\":6274:6297   */\n      sub\n        /* \"#utility.yul\":6270:6302   */\n      slt\n        /* \"#utility.yul\":6267:6319   */\n      iszero\n      tag_486\n      jumpi\n        /* \"#utility.yul\":6315:6316   */\n      0x00\n        /* \"#utility.yul\":6312:6313   */\n      dup1\n        /* \"#utility.yul\":6305:6317   */\n      revert\n        /* \"#utility.yul\":6267:6319   */\n    tag_486:\n        /* \"#utility.yul\":6355:6364   */\n      dup5\n        /* \"#utility.yul\":6342:6365   */\n      calldataload\n        /* \"#utility.yul\":6384:6402   */\n      0xffffffffffffffff\n        /* \"#utility.yul\":6425:6427   */\n      dup1\n        /* \"#utility.yul\":6417:6423   */\n      dup3\n        /* \"#utility.yul\":6414:6428   */\n      gt\n        /* \"#utility.yul\":6411:6445   */\n      iszero\n      tag_487\n      jumpi\n        /* \"#utility.yul\":6441:6442   */\n      0x00\n        /* \"#utility.yul\":6438:6439   */\n      dup1\n        /* \"#utility.yul\":6431:6443   */\n      revert\n        /* \"#utility.yul\":6411:6445   */\n    tag_487:\n        /* \"#utility.yul\":6479:6485   */\n      dup2\n        /* \"#utility.yul\":6468:6477   */\n      dup8\n        /* \"#utility.yul\":6464:6486   */\n      add\n        /* \"#utility.yul\":6454:6486   */\n      swap2\n      pop\n        /* \"#utility.yul\":6524:6531   */\n      dup8\n        /* \"#utility.yul\":6517:6521   */\n      0x1f\n        /* \"#utility.yul\":6513:6515   */\n      dup4\n        /* \"#utility.yul\":6509:6522   */\n      add\n        /* \"#utility.yul\":6505:6532   */\n      slt\n        /* \"#utility.yul\":6495:6550   */\n      tag_488\n      jumpi\n        /* \"#utility.yul\":6546:6547   */\n      0x00\n        /* \"#utility.yul\":6543:6544   */\n      dup1\n        /* \"#utility.yul\":6536:6548   */\n      revert\n        /* \"#utility.yul\":6495:6550   */\n    tag_488:\n        /* \"#utility.yul\":6586:6588   */\n      dup2\n        /* \"#utility.yul\":6573:6589   */\n      calldataload\n        /* \"#utility.yul\":6612:6614   */\n      dup2\n        /* \"#utility.yul\":6604:6610   */\n      dup2\n        /* \"#utility.yul\":6601:6615   */\n      gt\n        /* \"#utility.yul\":6598:6632   */\n      iszero\n      tag_489\n      jumpi\n        /* \"#utility.yul\":6628:6629   */\n      0x00\n        /* \"#utility.yul\":6625:6626   */\n      dup1\n        /* \"#utility.yul\":6618:6630   */\n      revert\n        /* \"#utility.yul\":6598:6632   */\n    tag_489:\n        /* \"#utility.yul\":6683:6690   */\n      dup9\n        /* \"#utility.yul\":6676:6680   */\n      0x20\n        /* \"#utility.yul\":6666:6672   */\n      dup3\n        /* \"#utility.yul\":6663:6664   */\n      0x05\n        /* \"#utility.yul\":6659:6673   */\n      shl\n        /* \"#utility.yul\":6655:6657   */\n      dup6\n        /* \"#utility.yul\":6651:6674   */\n      add\n        /* \"#utility.yul\":6647:6681   */\n      add\n        /* \"#utility.yul\":6644:6691   */\n      gt\n        /* \"#utility.yul\":6641:6708   */\n      iszero\n      tag_490\n      jumpi\n        /* \"#utility.yul\":6704:6705   */\n      0x00\n        /* \"#utility.yul\":6701:6702   */\n      dup1\n        /* \"#utility.yul\":6694:6706   */\n      revert\n        /* \"#utility.yul\":6641:6708   */\n    tag_490:\n        /* \"#utility.yul\":6735:6739   */\n      0x20\n        /* \"#utility.yul\":6727:6740   */\n      swap3\n      dup4\n      add\n      swap10\n        /* \"#utility.yul\":6759:6765   */\n      swap1\n      swap9\n      pop\n        /* \"#utility.yul\":6797:6817   */\n      swap2\n      dup8\n      add\n        /* \"#utility.yul\":6784:6818   */\n      calldataload\n      swap7\n        /* \"#utility.yul\":6865:6867   */\n      0x40\n        /* \"#utility.yul\":6850:6868   */\n      add\n        /* \"#utility.yul\":6837:6869   */\n      calldataload\n      swap6\n      pop\n        /* \"#utility.yul\":6118:6875   */\n      swap1\n      swap4\n      pop\n      pop\n      pop\n      pop\n      jump\t// out\n        /* \"#utility.yul\":7218:7402   */\n    tag_202:\n        /* \"#utility.yul\":7288:7294   */\n      0x00\n        /* \"#utility.yul\":7341:7343   */\n      0x20\n        /* \"#utility.yul\":7329:7338   */\n      dup3\n        /* \"#utility.yul\":7320:7327   */\n      dup5\n        /* \"#utility.yul\":7316:7339   */\n      sub\n        /* \"#utility.yul\":7312:7344   */\n      slt\n        /* \"#utility.yul\":7309:7361   */\n      iszero\n      tag_493\n      jumpi\n        /* \"#utility.yul\":7357:7358   */\n      0x00\n        /* \"#utility.yul\":7354:7355   */\n      dup1\n        /* \"#utility.yul\":7347:7359   */\n      revert\n        /* \"#utility.yul\":7309:7361   */\n    tag_493:\n      pop\n        /* \"#utility.yul\":7380:7396   */\n      mload\n      swap2\n        /* \"#utility.yul\":7218:7402   */\n      swap1\n      pop\n      jump\t// out\n        /* \"#utility.yul\":7407:7763   */\n    tag_209:\n        /* \"#utility.yul\":7609:7611   */\n      0x20\n        /* \"#utility.yul\":7591:7612   */\n      dup1\n      dup3\n      mstore\n        /* \"#utility.yul\":7628:7646   */\n      dup2\n      dup2\n      add\n        /* \"#utility.yul\":7621:7651   */\n      mstore\n        /* \"#utility.yul\":7687:7721   */\n      0x4f776e61626c653a2063616c6c6572206973206e6f7420746865206f776e6572\n        /* \"#utility.yul\":7682:7684   */\n      0x40\n        /* \"#utility.yul\":7667:7685   */\n      dup3\n      add\n        /* \"#utility.yul\":7660:7722   */\n      mstore\n        /* \"#utility.yul\":7754:7756   */\n      0x60\n        /* \"#utility.yul\":7739:7757   */\n      add\n      swap1\n        /* \"#utility.yul\":7407:7763   */\n      jump\t// out\n        /* \"#utility.yul\":9518:9795   */\n    tag_263:\n        /* \"#utility.yul\":9585:9591   */\n      0x00\n        /* \"#utility.yul\":9638:9640   */\n      0x20\n        /* \"#utility.yul\":9626:9635   */\n      dup3\n        /* \"#utility.yul\":9617:9624   */\n      dup5\n        /* \"#utility.yul\":9613:9636   */\n      sub\n        /* \"#utility.yul\":9609:9641   */\n      slt\n        /* \"#utility.yul\":9606:9658   */\n      iszero\n      tag_502\n      jumpi\n        /* \"#utility.yul\":9654:9655   */\n      0x00\n        /* \"#utility.yul\":9651:9652   */\n      dup1\n        /* \"#utility.yul\":9644:9656   */\n      revert\n        /* \"#utility.yul\":9606:9658   */\n    tag_502:\n        /* \"#utility.yul\":9686:9695   */\n      dup2\n        /* \"#utility.yul\":9680:9696   */\n      mload\n        /* \"#utility.yul\":9739:9744   */\n      dup1\n        /* \"#utility.yul\":9732:9745   */\n      iszero\n        /* \"#utility.yul\":9725:9746   */\n      iszero\n        /* \"#utility.yul\":9718:9723   */\n      dup2\n        /* \"#utility.yul\":9715:9747   */\n      eq\n        /* \"#utility.yul\":9705:9765   */\n      tag_435\n      jumpi\n        /* \"#utility.yul\":9761:9762   */\n      0x00\n        /* \"#utility.yul\":9758:9759   */\n      dup1\n        /* \"#utility.yul\":9751:9763   */\n      revert\n        /* \"#utility.yul\":11008:11259   */\n    tag_295:\n        /* \"#utility.yul\":11078:11084   */\n      0x00\n        /* \"#utility.yul\":11131:11133   */\n      0x20\n        /* \"#utility.yul\":11119:11128   */\n      dup3\n        /* \"#utility.yul\":11110:11117   */\n      dup5\n        /* \"#utility.yul\":11106:11129   */\n      sub\n        /* \"#utility.yul\":11102:11134   */\n      slt\n        /* \"#utility.yul\":11099:11151   */\n      iszero\n      tag_508\n      jumpi\n        /* \"#utility.yul\":11147:11148   */\n      0x00\n        /* \"#utility.yul\":11144:11145   */\n      dup1\n        /* \"#utility.yul\":11137:11149   */\n      revert\n        /* \"#utility.yul\":11099:11151   */\n    tag_508:\n        /* \"#utility.yul\":11179:11188   */\n      dup2\n        /* \"#utility.yul\":11173:11189   */\n      mload\n        /* \"#utility.yul\":11198:11229   */\n      tag_435\n        /* \"#utility.yul\":11223:11228   */\n      dup2\n        /* \"#utility.yul\":11198:11229   */\n      tag_425\n      jump\t// in\n        /* \"#utility.yul\":16005:16132   */\n    tag_428:\n        /* \"#utility.yul\":16066:16076   */\n      0x4e487b71\n        /* \"#utility.yul\":16061:16064   */\n      0xe0\n        /* \"#utility.yul\":16057:16077   */\n      shl\n        /* \"#utility.yul\":16054:16055   */\n      0x00\n        /* \"#utility.yul\":16047:16078   */\n      mstore\n        /* \"#utility.yul\":16097:16101   */\n      0x11\n        /* \"#utility.yul\":16094:16095   */\n      0x04\n        /* \"#utility.yul\":16087:16102   */\n      mstore\n        /* \"#utility.yul\":16121:16125   */\n      0x24\n        /* \"#utility.yul\":16118:16119   */\n      0x00\n        /* \"#utility.yul\":16111:16126   */\n      revert\n        /* \"#utility.yul\":16137:16265   */\n    tag_368:\n        /* \"#utility.yul\":16177:16180   */\n      0x00\n        /* \"#utility.yul\":16208:16209   */\n      dup3\n        /* \"#utility.yul\":16204:16210   */\n      not\n        /* \"#utility.yul\":16201:16202   */\n      dup3\n        /* \"#utility.yul\":16198:16211   */\n      gt\n        /* \"#utility.yul\":16195:16234   */\n      iszero\n      tag_526\n      jumpi\n        /* \"#utility.yul\":16214:16232   */\n      tag_526\n      tag_428\n      jump\t// in\n    tag_526:\n      pop\n        /* \"#utility.yul\":16250:16259   */\n      add\n      swap1\n        /* \"#utility.yul\":16137:16265   */\n      jump\t// out\n        /* \"#utility.yul\":17765:17892   */\n    tag_416:\n        /* \"#utility.yul\":17826:17836   */\n      0x4e487b71\n        /* \"#utility.yul\":17821:17824   */\n      0xe0\n        /* \"#utility.yul\":17817:17837   */\n      shl\n        /* \"#utility.yul\":17814:17815   */\n      0x00\n        /* \"#utility.yul\":17807:17838   */\n      mstore\n        /* \"#utility.yul\":17857:17861   */\n      0x32\n        /* \"#utility.yul\":17854:17855   */\n      0x04\n        /* \"#utility.yul\":17847:17862   */\n      mstore\n        /* \"#utility.yul\":17881:17885   */\n      0x24\n        /* \"#utility.yul\":17878:17879   */\n      0x00\n        /* \"#utility.yul\":17871:17886   */\n      revert\n        /* \"#utility.yul\":17897:18032   */\n    tag_423:\n        /* \"#utility.yul\":17936:17939   */\n      0x00\n        /* \"#utility.yul\":17957:17974   */\n      0x01\n      dup3\n      add\n        /* \"#utility.yul\":17954:17997   */\n      tag_534\n      jumpi\n        /* \"#utility.yul\":17977:17995   */\n      tag_534\n      tag_428\n      jump\t// in\n    tag_534:\n      pop\n        /* \"#utility.yul\":18024:18025   */\n      0x01\n        /* \"#utility.yul\":18013:18026   */\n      add\n      swap1\n        /* \"#utility.yul\":17897:18032   */\n      jump\t// out\n\n    auxdata: 0xa26469706673582212206818e59282e4a16d5d14784e075d3c8dd60cd412976fc22011751158cfcd0de164736f6c634300080f0033\n}\n",
				"bytecode": {
					"linkReferences": {},
					"object": "60806040526005805461ffff191690553480156200001c57600080fd5b5060405162002118380380620021188339810160408190526200003f91620002d7565b6200004a3362000078565b600180556200005983620000c8565b62000064816200017b565b6200006f826200020c565b5050506200031f565b600080546001600160a01b038381166001600160a01b0319831681178455604051919092169283917f8be0079c531659141344cd1fd0a4f28419497f9722a3daafe3b4186f6b6457e09190a35050565b6000546001600160a01b03163314620001175760405162461bcd60e51b81526020600482018190526024820152600080516020620020f883398151915260448201526064015b60405180910390fd5b600280546001600160a01b038381166001600160a01b0319831681179093556040805191909216808252602082019390935283917fabdf056c85a221fcb31d0366c4475b6b2c613df2eeea951a9fcb3e1a8595d973910160405180910390a1505050565b6000546001600160a01b03163314620001c65760405162461bcd60e51b81526020600482018190526024820152600080516020620020f883398151915260448201526064016200010e565b600480549082905560408051828152602081018490527f123d88ba82600dfc3f219f8885c691b0ff020caa535666874b3f5174973757fe91015b60405180910390a15050565b6000546001600160a01b03163314620002575760405162461bcd60e51b81526020600482018190526024820152600080516020620020f883398151915260448201526064016200010e565b600580546001600160a01b038381166201000081810262010000600160b01b031985161790945560408051949093049091168084526020840191909152917feeb293e1f8f3a9db91ade748726387ed1352ca78f5430c5f06fe3d1e1ad50579910162000200565b6001600160a01b0381168114620002d457600080fd5b50565b600080600060608486031215620002ed57600080fd5b8351620002fa81620002be565b60208501519093506200030d81620002be565b80925050604084015190509250925092565b611dc9806200032f6000396000f3fe6080604052600436106101e35760003560e01c8063a4435dfd11610102578063ef5fe79f11610095578063f6b48e5511610064578063f6b48e55146105eb578063fa540801146105fe578063ff05fe4a1461061e578063ffdc61291461063e57600080fd5b8063ef5fe79f14610548578063f055c7a91461055e578063f2fde38b14610597578063f500cdfc146105b757600080fd5b8063c4e41b22116100d1578063c4e41b22146104cc578063de6892c8146104e1578063df4e5881146104f4578063e02023a11461051457600080fd5b8063a4435dfd14610411578063a7bb58031461042b578063b5abafa114610469578063bff863ec146104ac57600080fd5b80636c19e7831161017a5780638907f3fa116101495780638907f3fa146103945780638da5cb5b146103b357806397aba7f9146103d15780639e6c8855146103f157600080fd5b80636c19e7831461031f578063715018a61461033f5780637cb64759146103545780638407ecc41461037457600080fd5b80632eb4a7ab116101b65780632eb4a7ab146102a257806342920a46146102b85780634c0f38c2146102e857806351cff8d9146102fd57600080fd5b80630a25dea9146101e85780631f5ac1b214610210578063238ac9331461023057806324c37a851461026e575b600080fd5b3480156101f457600080fd5b506101fd600081565b6040519081526020015b60405180910390f35b34801561021c57600080fd5b506101fd61022b366004611949565b610684565b34801561023c57600080fd5b50600554610256906201000090046001600160a01b031681565b6040516001600160a01b039091168152602001610207565b34801561027a57600080fd5b506101fd7fb3c595e55271590809f54e2f4fc3a582754f45b104dd3c41666e2ad310493db381565b3480156102ae57600080fd5b506101fd60045481565b3480156102c457600080fd5b506102d86102d3366004611a10565b6106ce565b6040519015158152602001610207565b3480156102f457600080fd5b506101fd610711565b34801561030957600080fd5b5061031d610318366004611949565b610784565b005b34801561032b57600080fd5b5061031d61033a366004611949565b6108ae565b34801561034b57600080fd5b5061031d610946565b34801561036057600080fd5b5061031d61036f366004611a72565b61097c565b34801561038057600080fd5b5061031d61038f366004611a8b565b6109e4565b3480156103a057600080fd5b506005546102d890610100900460ff1681565b3480156103bf57600080fd5b506000546001600160a01b0316610256565b3480156103dd57600080fd5b506102566103ec366004611ac4565b610b84565b3480156103fd57600080fd5b5061031d61040c366004611949565b610c03565b34801561041d57600080fd5b506005546102d89060ff1681565b34801561043757600080fd5b5061044b610446366004611b0b565b610c89565b60408051938452602084019290925260ff1690820152606001610207565b34801561047557600080fd5b506101fd610484366004611b48565b6001600160a01b03919091166000908152600760209081526040808320938352929052205490565b3480156104b857600080fd5b5061031d6104c7366004611b74565b610cfd565b3480156104d857600080fd5b506101fd610ead565b61031d6104ef366004611bb5565b610ef7565b34801561050057600080fd5b50600254610256906001600160a01b031681565b34801561052057600080fd5b506101fd7f5d8e12c39142ff96d79d04d15d1ba1269e4fe57bb9d26f43523628b34ba108ec81565b34801561055457600080fd5b506101fd60035481565b34801561056a57600080fd5b506102d8610579366004611949565b6001600160a01b031660009081526008602052604090205460ff1690565b3480156105a357600080fd5b5061031d6105b2366004611949565b61127f565b3480156105c357600080fd5b506101fd7f68e7d51fdb912cb107dda2e59b053d87fcca666dd0ef5339cd3474ccb5276bba81565b61031d6105f9366004611c27565b61131a565b34801561060a57600080fd5b506101fd610619366004611a72565b6117b7565b34801561062a57600080fd5b5061031d610639366004611a72565b6117f2565b34801561064a57600080fd5b506102d8610659366004611b48565b6001600160a01b03919091166000908152600660209081526040808320938352929052205460ff1690565b6040516bffffffffffffffffffffffff19606083811b8216602084015230901b1660348201526000906048015b604051602081830303815290604052805190602001209050919050565b6000806106da84610684565b905060006106e7826117b7565b9050856001600160a01b03166106fd8286610b84565b6001600160a01b0316149695505050505050565b6002546040805163d5abeb0160e01b815290516000926001600160a01b03169163d5abeb019160048083019260209291908290030181865afa15801561075b573d6000803e3d6000fd5b505050506040513d601f19601f8201168201806040525081019061077f9190611ca9565b905090565b6000546001600160a01b031633146107b75760405162461bcd60e51b81526004016107ae90611cc2565b60405180910390fd5b47806107fc5760405162461bcd60e51b8152602060048201526014602482015273496e73756666696369656e742042616c616e636560601b60448201526064016107ae565b6000826001600160a01b03168260405160006040518083038185875af1925050503d8060008114610849576040519150601f19603f3d011682016040523d82523d6000602084013e61084e565b606091505b505090508061085c57600080fd5b604080516001600160a01b03851681526020810184905242918101919091527ff279e6a1f5e320cca91135676d9cb6e44ca8a08c0b88342bcdb1144f6511b568906060015b60405180910390a1505050565b6000546001600160a01b031633146108d85760405162461bcd60e51b81526004016107ae90611cc2565b600580546001600160a01b038381166201000081810262010000600160b01b031985161790945560408051949093049091168084526020840191909152917feeb293e1f8f3a9db91ade748726387ed1352ca78f5430c5f06fe3d1e1ad5057991015b60405180910390a15050565b6000546001600160a01b031633146109705760405162461bcd60e51b81526004016107ae90611cc2565b61097a600061185a565b565b6000546001600160a01b031633146109a65760405162461bcd60e51b81526004016107ae90611cc2565b600480549082905560408051828152602081018490527f123d88ba82600dfc3f219f8885c691b0ff020caa535666874b3f5174973757fe910161093a565b6000546001600160a01b03163314610a0e5760405162461bcd60e51b81526004016107ae90611cc2565b6040516370a0823160e01b81523060048201526000906001600160a01b038316906370a0823190602401602060405180830381865afa158015610a55573d6000803e3d6000fd5b505050506040513d601f19601f82011682018060405250810190610a799190611ca9565b905060008111610ac25760405162461bcd60e51b8152602060048201526014602482015273496e73756666696369656e742042616c616e636560601b60448201526064016107ae565b60405163a9059cbb60e01b81526001600160a01b0384811660048301526024820183905283169063a9059cbb906044016020604051808303816000875af1158015610b11573d6000803e3d6000fd5b505050506040513d601f19601f82011682018060405250810190610b359190611cf7565b50604080516001600160a01b038086168252841660208201529081018290524260608201527fb818a975f91276df8ba59329becbc23c793df0d503c19ac296c3c372a1fa0461906080016108a1565b600080600080610b9385610c89565b6040805160008152602081018083528b905260ff8316918101919091526060810184905260808101839052929550909350915060019060a0016020604051602081039080840390855afa158015610bee573d6000803e3d6000fd5b5050604051601f190151979650505050505050565b6000546001600160a01b03163314610c2d5760405162461bcd60e51b81526004016107ae90611cc2565b600280546001600160a01b038381166001600160a01b0319831681179093556040805191909216808252602082019390935283917fabdf056c85a221fcb31d0366c4475b6b2c613df2eeea951a9fcb3e1a8595d97391016108a1565b60008060008351604114610cdf5760405162461bcd60e51b815260206004820152601860248201527f696e76616c6964207369676e6174757265206c656e677468000000000000000060448201526064016107ae565b50505060208101516040820151606090920151909260009190911a90565b6000546001600160a01b03163314610d275760405162461bcd60e51b81526004016107ae90611cc2565b6040516331a9108f60e11b81526004810182905230906001600160a01b03841690636352211e90602401602060405180830381865afa158015610d6e573d6000803e3d6000fd5b505050506040513d601f19601f82011682018060405250810190610d929190611d19565b6001600160a01b031614610df65760405162461bcd60e51b815260206004820152602560248201527f5468697320746f6b656e4964206973206e6f74206f776e656420627920636f6e6044820152641d1c9858dd60da1b60648201526084016107ae565b604051632142170760e11b81523060048201526001600160a01b038481166024830152604482018390528316906342842e0e90606401600060405180830381600087803b158015610e4657600080fd5b505af1158015610e5a573d6000803e3d6000fd5b5050604080516001600160a01b038088168252861660208201529081018490524260608201527f0127a8d3f57942833f6930572bce52ad882683e36eeb5830d199d3fa4bfa9467925060800190506108a1565b600254604080516318160ddd60e01b815290516000926001600160a01b0316916318160ddd9160048083019260209291908290030181865afa15801561075b573d6000803e3d6000fd5b600260015403610f495760405162461bcd60e51b815260206004820152601f60248201527f5265656e7472616e637947756172643a207265656e7472616e742063616c6c0060448201526064016107ae565b6002600190815560055460ff16151514610fa55760405162461bcd60e51b815260206004820152601860248201527f5075626c6963206d696e74206973206e6f74206f70656e2e000000000000000060448201526064016107ae565b323314610ff45760405162461bcd60e51b815260206004820152601b60248201527f6861686120436f6e74726163742063616e27742063616c6c206d65000000000060448201526064016107ae565b3360009081526008602052604090205460ff1615156001036110525760405162461bcd60e51b81526020600482015260176024820152762cb7ba9030b9329030b63932b0b23c9036b4b73a32b21760491b60448201526064016107ae565b6002546040516355138f0d60e11b81523060048201526001600160a01b039091169063aa271e1a90602401602060405180830381865afa15801561109a573d6000803e3d6000fd5b505050506040513d601f19601f820116820180604052508101906110be9190611cf7565b61110a5760405162461bcd60e51b815260206004820152601e60248201527f436f6e7472616374204d696e74206973206e6f7420617070726f7665642e000060448201526064016107ae565b611160600560029054906101000a90046001600160a01b03163384848080601f0160208091040260200160405190810160405280939291908181526020018383808284376000920191909152506106ce92505050565b6111b75760405162461bcd60e51b815260206004820152602260248201527f556e617574686f72697a6564205075626c69634d696e74205468697320557365604482015261391760f11b60648201526084016107ae565b3360008181526008602052604090819020805460ff191660019081179091556002549151632851206560e21b8152600481019390935260248301819052916001600160a01b039091169063a144819490604401600060405180830381600087803b15801561122457600080fd5b505af1158015611238573d6000803e3d6000fd5b5050604080518481524260208201523393507fc1a73b31b32801ebbb4cae30b73eae4345be9f2915ea60306383c245ef8fac4492500160405180910390a250506001805550565b6000546001600160a01b031633146112a95760405162461bcd60e51b81526004016107ae90611cc2565b6001600160a01b03811661130e5760405162461bcd60e51b815260206004820152602660248201527f4f776e61626c653a206e6577206f776e657220697320746865207a65726f206160448201526564647265737360d01b60648201526084016107ae565b6113178161185a565b50565b60026001540361136c5760405162461bcd60e51b815260206004820152601f60248201527f5265656e7472616e637947756172643a207265656e7472616e742063616c6c0060448201526064016107ae565b60026001908155600554610100900460ff161515146113cd5760405162461bcd60e51b815260206004820152601960248201527f50726976617465206d696e74206973206e6f74206f70656e2e0000000000000060448201526064016107ae565b806114125760405162461bcd60e51b815260206004820152601560248201527426b4b73a1034b9903737ba1030b8383937bb32b21760591b60448201526064016107ae565b80600354146114735760405162461bcd60e51b815260206004820152602760248201527f436f6e747261637420617265206e6f7420696e2074686973206d696e74696e67604482015266103937bab7321760c91b60648201526084016107ae565b61147b610711565b82611484610ead565b61148e9190611d4c565b106114c95760405162461bcd60e51b815260206004820152600b60248201526a4f76657220737570706c7960a81b60448201526064016107ae565b33600090815260066020908152604080832084845290915290205460ff161561152e5760405162461bcd60e51b81526020600482015260176024820152762cb7ba9030b9329030b63932b0b23c9036b4b73a32b21760491b60448201526064016107ae565b6002546040516355138f0d60e11b81523060048201526001600160a01b039091169063aa271e1a90602401602060405180830381865afa158015611576573d6000803e3d6000fd5b505050506040513d601f19601f8201168201806040525081019061159a9190611cf7565b6115e65760405162461bcd60e51b815260206004820152601e60248201527f436f6e7472616374204d696e74206973206e6f7420617070726f7665642e000060448201526064016107ae565b611669848480806020026020016040519081016040528093929190818152602001838360200280828437600092019190915250506004546040516bffffffffffffffffffffffff193360601b16602082015260348101889052605481018790529092506074019050604051602081830303815290604052805190602001206118aa565b6116c35760405162461bcd60e51b815260206004820152602560248201527f556e617574686f72697a65642057686974656c6973744d696e742054686973206044820152642ab9b2b91760d91b60648201526084016107ae565b3360008181526006602090815260408083208584528252808320805460ff19166001179055928252600781528282208483529052908120805484929061170a908490611d4c565b9091555050600254604051632851206560e21b8152336004820152602481018490526001600160a01b039091169063a144819490604401600060405180830381600087803b15801561175b57600080fd5b505af115801561176f573d6000803e3d6000fd5b5050604080518581524260208201523393507fe9e607753e80542a9021d5149990f18919907f0136fad424eaac3d15056ccf6e92500160405180910390a25050600180555050565b6040517f19457468657265756d205369676e6564204d6573736167653a0a3332000000006020820152603c8101829052600090605c016106b1565b6000546001600160a01b0316331461181c5760405162461bcd60e51b81526004016107ae90611cc2565b600380549082905560408051828152602081018490527f521ec96875ca228cd2fc1dbd4c927a34328c9ce1a83bcb8c1f633f012c90d785910161093a565b600080546001600160a01b038381166001600160a01b0319831681178455604051919092169283917f8be0079c531659141344cd1fd0a4f28419497f9722a3daafe3b4186f6b6457e09190a35050565b6000826118b785846118c0565b14949350505050565b600081815b845181101561192c5760008582815181106118e2576118e2611d64565b602002602001015190508083116119085760008381526020829052604090209250611919565b600081815260208490526040902092505b508061192481611d7a565b9150506118c5565b509392505050565b6001600160a01b038116811461131757600080fd5b60006020828403121561195b57600080fd5b813561196681611934565b9392505050565b634e487b7160e01b600052604160045260246000fd5b600082601f83011261199457600080fd5b813567ffffffffffffffff808211156119af576119af61196d565b604051601f8301601f19908116603f011681019082821181831017156119d7576119d761196d565b816040528381528660208588010111156119f057600080fd5b836020870160208301376000602085830101528094505050505092915050565b600080600060608486031215611a2557600080fd5b8335611a3081611934565b92506020840135611a4081611934565b9150604084013567ffffffffffffffff811115611a5c57600080fd5b611a6886828701611983565b9150509250925092565b600060208284031215611a8457600080fd5b5035919050565b60008060408385031215611a9e57600080fd5b8235611aa981611934565b91506020830135611ab981611934565b809150509250929050565b60008060408385031215611ad757600080fd5b82359150602083013567ffffffffffffffff811115611af557600080fd5b611b0185828601611983565b9150509250929050565b600060208284031215611b1d57600080fd5b813567ffffffffffffffff811115611b3457600080fd5b611b4084828501611983565b949350505050565b60008060408385031215611b5b57600080fd5b8235611b6681611934565b946020939093013593505050565b600080600060608486031215611b8957600080fd5b8335611b9481611934565b92506020840135611ba481611934565b929592945050506040919091013590565b60008060208385031215611bc857600080fd5b823567ffffffffffffffff80821115611be057600080fd5b818501915085601f830112611bf457600080fd5b813581811115611c0357600080fd5b866020828501011115611c1557600080fd5b60209290920196919550909350505050565b60008060008060608587031215611c3d57600080fd5b843567ffffffffffffffff80821115611c5557600080fd5b818701915087601f830112611c6957600080fd5b813581811115611c7857600080fd5b8860208260051b8501011115611c8d57600080fd5b6020928301999098509187013596604001359550909350505050565b600060208284031215611cbb57600080fd5b5051919050565b6020808252818101527f4f776e61626c653a2063616c6c6572206973206e6f7420746865206f776e6572604082015260600190565b600060208284031215611d0957600080fd5b8151801515811461196657600080fd5b600060208284031215611d2b57600080fd5b815161196681611934565b634e487b7160e01b600052601160045260246000fd5b60008219821115611d5f57611d5f611d36565b500190565b634e487b7160e01b600052603260045260246000fd5b600060018201611d8c57611d8c611d36565b506001019056fea26469706673582212206818e59282e4a16d5d14784e075d3c8dd60cd412976fc22011751158cfcd0de164736f6c634300080f00334f776e61626c653a2063616c6c6572206973206e6f7420746865206f776e6572",
					"opcodes": "PUSH1 0x80 PUSH1 0x40 MSTORE PUSH1 0x5 DUP1 SLOAD PUSH2 0xFFFF NOT AND SWAP1 SSTORE CALLVALUE DUP1 ISZERO PUSH3 0x1C JUMPI PUSH1 0x0 DUP1 REVERT JUMPDEST POP PUSH1 0x40 MLOAD PUSH3 0x2118 CODESIZE SUB DUP1 PUSH3 0x2118 DUP4 CODECOPY DUP2 ADD PUSH1 0x40 DUP2 SWAP1 MSTORE PUSH3 0x3F SWAP2 PUSH3 0x2D7 JUMP JUMPDEST PUSH3 0x4A CALLER PUSH3 0x78 JUMP JUMPDEST PUSH1 0x1 DUP1 SSTORE PUSH3 0x59 DUP4 PUSH3 0xC8 JUMP JUMPDEST PUSH3 0x64 DUP2 PUSH3 0x17B JUMP JUMPDEST PUSH3 0x6F DUP3 PUSH3 0x20C JUMP JUMPDEST POP POP POP PUSH3 0x31F JUMP JUMPDEST PUSH1 0x0 DUP1 SLOAD PUSH1 0x1 PUSH1 0x1 PUSH1 0xA0 SHL SUB DUP4 DUP2 AND PUSH1 0x1 PUSH1 0x1 PUSH1 0xA0 SHL SUB NOT DUP4 AND DUP2 OR DUP5 SSTORE PUSH1 0x40 MLOAD SWAP2 SWAP1 SWAP3 AND SWAP3 DUP4 SWAP2 PUSH32 0x8BE0079C531659141344CD1FD0A4F28419497F9722A3DAAFE3B4186F6B6457E0 SWAP2 SWAP1 LOG3 POP POP JUMP JUMPDEST PUSH1 0x0 SLOAD PUSH1 0x1 PUSH1 0x1 PUSH1 0xA0 SHL SUB AND CALLER EQ PUSH3 0x117 JUMPI PUSH1 0x40 MLOAD PUSH3 0x461BCD PUSH1 0xE5 SHL DUP2 MSTORE PUSH1 0x20 PUSH1 0x4 DUP3 ADD DUP2 SWAP1 MSTORE PUSH1 0x24 DUP3 ADD MSTORE PUSH1 0x0 DUP1 MLOAD PUSH1 0x20 PUSH3 0x20F8 DUP4 CODECOPY DUP2 MLOAD SWAP2 MSTORE PUSH1 0x44 DUP3 ADD MSTORE PUSH1 0x64 ADD JUMPDEST PUSH1 0x40 MLOAD DUP1 SWAP2 SUB SWAP1 REVERT JUMPDEST PUSH1 0x2 DUP1 SLOAD PUSH1 0x1 PUSH1 0x1 PUSH1 0xA0 SHL SUB DUP4 DUP2 AND PUSH1 0x1 PUSH1 0x1 PUSH1 0xA0 SHL SUB NOT DUP4 AND DUP2 OR SWAP1 SWAP4 SSTORE PUSH1 0x40 DUP1 MLOAD SWAP2 SWAP1 SWAP3 AND DUP1 DUP3 MSTORE PUSH1 0x20 DUP3 ADD SWAP4 SWAP1 SWAP4 MSTORE DUP4 SWAP2 PUSH32 0xABDF056C85A221FCB31D0366C4475B6B2C613DF2EEEA951A9FCB3E1A8595D973 SWAP2 ADD PUSH1 0x40 MLOAD DUP1 SWAP2 SUB SWAP1 LOG1 POP POP POP JUMP JUMPDEST PUSH1 0x0 SLOAD PUSH1 0x1 PUSH1 0x1 PUSH1 0xA0 SHL SUB AND CALLER EQ PUSH3 0x1C6 JUMPI PUSH1 0x40 MLOAD PUSH3 0x461BCD PUSH1 0xE5 SHL DUP2 MSTORE PUSH1 0x20 PUSH1 0x4 DUP3 ADD DUP2 SWAP1 MSTORE PUSH1 0x24 DUP3 ADD MSTORE PUSH1 0x0 DUP1 MLOAD PUSH1 0x20 PUSH3 0x20F8 DUP4 CODECOPY DUP2 MLOAD SWAP2 MSTORE PUSH1 0x44 DUP3 ADD MSTORE PUSH1 0x64 ADD PUSH3 0x10E JUMP JUMPDEST PUSH1 0x4 DUP1 SLOAD SWAP1 DUP3 SWAP1 SSTORE PUSH1 0x40 DUP1 MLOAD DUP3 DUP2 MSTORE PUSH1 0x20 DUP2 ADD DUP5 SWAP1 MSTORE PUSH32 0x123D88BA82600DFC3F219F8885C691B0FF020CAA535666874B3F5174973757FE SWAP2 ADD JUMPDEST PUSH1 0x40 MLOAD DUP1 SWAP2 SUB SWAP1 LOG1 POP POP JUMP JUMPDEST PUSH1 0x0 SLOAD PUSH1 0x1 PUSH1 0x1 PUSH1 0xA0 SHL SUB AND CALLER EQ PUSH3 0x257 JUMPI PUSH1 0x40 MLOAD PUSH3 0x461BCD PUSH1 0xE5 SHL DUP2 MSTORE PUSH1 0x20 PUSH1 0x4 DUP3 ADD DUP2 SWAP1 MSTORE PUSH1 0x24 DUP3 ADD MSTORE PUSH1 0x0 DUP1 MLOAD PUSH1 0x20 PUSH3 0x20F8 DUP4 CODECOPY DUP2 MLOAD SWAP2 MSTORE PUSH1 0x44 DUP3 ADD MSTORE PUSH1 0x64 ADD PUSH3 0x10E JUMP JUMPDEST PUSH1 0x5 DUP1 SLOAD PUSH1 0x1 PUSH1 0x1 PUSH1 0xA0 SHL SUB DUP4 DUP2 AND PUSH3 0x10000 DUP2 DUP2 MUL PUSH3 0x10000 PUSH1 0x1 PUSH1 0xB0 SHL SUB NOT DUP6 AND OR SWAP1 SWAP5 SSTORE PUSH1 0x40 DUP1 MLOAD SWAP5 SWAP1 SWAP4 DIV SWAP1 SWAP2 AND DUP1 DUP5 MSTORE PUSH1 0x20 DUP5 ADD SWAP2 SWAP1 SWAP2 MSTORE SWAP2 PUSH32 0xEEB293E1F8F3A9DB91ADE748726387ED1352CA78F5430C5F06FE3D1E1AD50579 SWAP2 ADD PUSH3 0x200 JUMP JUMPDEST PUSH1 0x1 PUSH1 0x1 PUSH1 0xA0 SHL SUB DUP2 AND DUP2 EQ PUSH3 0x2D4 JUMPI PUSH1 0x0 DUP1 REVERT JUMPDEST POP JUMP JUMPDEST PUSH1 0x0 DUP1 PUSH1 0x0 PUSH1 0x60 DUP5 DUP7 SUB SLT ISZERO PUSH3 0x2ED JUMPI PUSH1 0x0 DUP1 REVERT JUMPDEST DUP4 MLOAD PUSH3 0x2FA DUP2 PUSH3 0x2BE JUMP JUMPDEST PUSH1 0x20 DUP6 ADD MLOAD SWAP1 SWAP4 POP PUSH3 0x30D DUP2 PUSH3 0x2BE JUMP JUMPDEST DUP1 SWAP3 POP POP PUSH1 0x40 DUP5 ADD MLOAD SWAP1 POP SWAP3 POP SWAP3 POP SWAP3 JUMP JUMPDEST PUSH2 0x1DC9 DUP1 PUSH3 0x32F PUSH1 0x0 CODECOPY PUSH1 0x0 RETURN INVALID PUSH1 0x80 PUSH1 0x40 MSTORE PUSH1 0x4 CALLDATASIZE LT PUSH2 0x1E3 JUMPI PUSH1 0x0 CALLDATALOAD PUSH1 0xE0 SHR DUP1 PUSH4 0xA4435DFD GT PUSH2 0x102 JUMPI DUP1 PUSH4 0xEF5FE79F GT PUSH2 0x95 JUMPI DUP1 PUSH4 0xF6B48E55 GT PUSH2 0x64 JUMPI DUP1 PUSH4 0xF6B48E55 EQ PUSH2 0x5EB JUMPI DUP1 PUSH4 0xFA540801 EQ PUSH2 0x5FE JUMPI DUP1 PUSH4 0xFF05FE4A EQ PUSH2 0x61E JUMPI DUP1 PUSH4 0xFFDC6129 EQ PUSH2 0x63E JUMPI PUSH1 0x0 DUP1 REVERT JUMPDEST DUP1 PUSH4 0xEF5FE79F EQ PUSH2 0x548 JUMPI DUP1 PUSH4 0xF055C7A9 EQ PUSH2 0x55E JUMPI DUP1 PUSH4 0xF2FDE38B EQ PUSH2 0x597 JUMPI DUP1 PUSH4 0xF500CDFC EQ PUSH2 0x5B7 JUMPI PUSH1 0x0 DUP1 REVERT JUMPDEST DUP1 PUSH4 0xC4E41B22 GT PUSH2 0xD1 JUMPI DUP1 PUSH4 0xC4E41B22 EQ PUSH2 0x4CC JUMPI DUP1 PUSH4 0xDE6892C8 EQ PUSH2 0x4E1 JUMPI DUP1 PUSH4 0xDF4E5881 EQ PUSH2 0x4F4 JUMPI DUP1 PUSH4 0xE02023A1 EQ PUSH2 0x514 JUMPI PUSH1 0x0 DUP1 REVERT JUMPDEST DUP1 PUSH4 0xA4435DFD EQ PUSH2 0x411 JUMPI DUP1 PUSH4 0xA7BB5803 EQ PUSH2 0x42B JUMPI DUP1 PUSH4 0xB5ABAFA1 EQ PUSH2 0x469 JUMPI DUP1 PUSH4 0xBFF863EC EQ PUSH2 0x4AC JUMPI PUSH1 0x0 DUP1 REVERT JUMPDEST DUP1 PUSH4 0x6C19E783 GT PUSH2 0x17A JUMPI DUP1 PUSH4 0x8907F3FA GT PUSH2 0x149 JUMPI DUP1 PUSH4 0x8907F3FA EQ PUSH2 0x394 JUMPI DUP1 PUSH4 0x8DA5CB5B EQ PUSH2 0x3B3 JUMPI DUP1 PUSH4 0x97ABA7F9 EQ PUSH2 0x3D1 JUMPI DUP1 PUSH4 0x9E6C8855 EQ PUSH2 0x3F1 JUMPI PUSH1 0x0 DUP1 REVERT JUMPDEST DUP1 PUSH4 0x6C19E783 EQ PUSH2 0x31F JUMPI DUP1 PUSH4 0x715018A6 EQ PUSH2 0x33F JUMPI DUP1 PUSH4 0x7CB64759 EQ PUSH2 0x354 JUMPI DUP1 PUSH4 0x8407ECC4 EQ PUSH2 0x374 JUMPI PUSH1 0x0 DUP1 REVERT JUMPDEST DUP1 PUSH4 0x2EB4A7AB GT PUSH2 0x1B6 JUMPI DUP1 PUSH4 0x2EB4A7AB EQ PUSH2 0x2A2 JUMPI DUP1 PUSH4 0x42920A46 EQ PUSH2 0x2B8 JUMPI DUP1 PUSH4 0x4C0F38C2 EQ PUSH2 0x2E8 JUMPI DUP1 PUSH4 0x51CFF8D9 EQ PUSH2 0x2FD JUMPI PUSH1 0x0 DUP1 REVERT JUMPDEST DUP1 PUSH4 0xA25DEA9 EQ PUSH2 0x1E8 JUMPI DUP1 PUSH4 0x1F5AC1B2 EQ PUSH2 0x210 JUMPI DUP1 PUSH4 0x238AC933 EQ PUSH2 0x230 JUMPI DUP1 PUSH4 0x24C37A85 EQ PUSH2 0x26E JUMPI JUMPDEST PUSH1 0x0 DUP1 REVERT JUMPDEST CALLVALUE DUP1 ISZERO PUSH2 0x1F4 JUMPI PUSH1 0x0 DUP1 REVERT JUMPDEST POP PUSH2 0x1FD PUSH1 0x0 DUP2 JUMP JUMPDEST PUSH1 0x40 MLOAD SWAP1 DUP2 MSTORE PUSH1 0x20 ADD JUMPDEST PUSH1 0x40 MLOAD DUP1 SWAP2 SUB SWAP1 RETURN JUMPDEST CALLVALUE DUP1 ISZERO PUSH2 0x21C JUMPI PUSH1 0x0 DUP1 REVERT JUMPDEST POP PUSH2 0x1FD PUSH2 0x22B CALLDATASIZE PUSH1 0x4 PUSH2 0x1949 JUMP JUMPDEST PUSH2 0x684 JUMP JUMPDEST CALLVALUE DUP1 ISZERO PUSH2 0x23C JUMPI PUSH1 0x0 DUP1 REVERT JUMPDEST POP PUSH1 0x5 SLOAD PUSH2 0x256 SWAP1 PUSH3 0x10000 SWAP1 DIV PUSH1 0x1 PUSH1 0x1 PUSH1 0xA0 SHL SUB AND DUP2 JUMP JUMPDEST PUSH1 0x40 MLOAD PUSH1 0x1 PUSH1 0x1 PUSH1 0xA0 SHL SUB SWAP1 SWAP2 AND DUP2 MSTORE PUSH1 0x20 ADD PUSH2 0x207 JUMP JUMPDEST CALLVALUE DUP1 ISZERO PUSH2 0x27A JUMPI PUSH1 0x0 DUP1 REVERT JUMPDEST POP PUSH2 0x1FD PUSH32 0xB3C595E55271590809F54E2F4FC3A582754F45B104DD3C41666E2AD310493DB3 DUP2 JUMP JUMPDEST CALLVALUE DUP1 ISZERO PUSH2 0x2AE JUMPI PUSH1 0x0 DUP1 REVERT JUMPDEST POP PUSH2 0x1FD PUSH1 0x4 SLOAD DUP2 JUMP JUMPDEST CALLVALUE DUP1 ISZERO PUSH2 0x2C4 JUMPI PUSH1 0x0 DUP1 REVERT JUMPDEST POP PUSH2 0x2D8 PUSH2 0x2D3 CALLDATASIZE PUSH1 0x4 PUSH2 0x1A10 JUMP JUMPDEST PUSH2 0x6CE JUMP JUMPDEST PUSH1 0x40 MLOAD SWAP1 ISZERO ISZERO DUP2 MSTORE PUSH1 0x20 ADD PUSH2 0x207 JUMP JUMPDEST CALLVALUE DUP1 ISZERO PUSH2 0x2F4 JUMPI PUSH1 0x0 DUP1 REVERT JUMPDEST POP PUSH2 0x1FD PUSH2 0x711 JUMP JUMPDEST CALLVALUE DUP1 ISZERO PUSH2 0x309 JUMPI PUSH1 0x0 DUP1 REVERT JUMPDEST POP PUSH2 0x31D PUSH2 0x318 CALLDATASIZE PUSH1 0x4 PUSH2 0x1949 JUMP JUMPDEST PUSH2 0x784 JUMP JUMPDEST STOP JUMPDEST CALLVALUE DUP1 ISZERO PUSH2 0x32B JUMPI PUSH1 0x0 DUP1 REVERT JUMPDEST POP PUSH2 0x31D PUSH2 0x33A CALLDATASIZE PUSH1 0x4 PUSH2 0x1949 JUMP JUMPDEST PUSH2 0x8AE JUMP JUMPDEST CALLVALUE DUP1 ISZERO PUSH2 0x34B JUMPI PUSH1 0x0 DUP1 REVERT JUMPDEST POP PUSH2 0x31D PUSH2 0x946 JUMP JUMPDEST CALLVALUE DUP1 ISZERO PUSH2 0x360 JUMPI PUSH1 0x0 DUP1 REVERT JUMPDEST POP PUSH2 0x31D PUSH2 0x36F CALLDATASIZE PUSH1 0x4 PUSH2 0x1A72 JUMP JUMPDEST PUSH2 0x97C JUMP JUMPDEST CALLVALUE DUP1 ISZERO PUSH2 0x380 JUMPI PUSH1 0x0 DUP1 REVERT JUMPDEST POP PUSH2 0x31D PUSH2 0x38F CALLDATASIZE PUSH1 0x4 PUSH2 0x1A8B JUMP JUMPDEST PUSH2 0x9E4 JUMP JUMPDEST CALLVALUE DUP1 ISZERO PUSH2 0x3A0 JUMPI PUSH1 0x0 DUP1 REVERT JUMPDEST POP PUSH1 0x5 SLOAD PUSH2 0x2D8 SWAP1 PUSH2 0x100 SWAP1 DIV PUSH1 0xFF AND DUP2 JUMP JUMPDEST CALLVALUE DUP1 ISZERO PUSH2 0x3BF JUMPI PUSH1 0x0 DUP1 REVERT JUMPDEST POP PUSH1 0x0 SLOAD PUSH1 0x1 PUSH1 0x1 PUSH1 0xA0 SHL SUB AND PUSH2 0x256 JUMP JUMPDEST CALLVALUE DUP1 ISZERO PUSH2 0x3DD JUMPI PUSH1 0x0 DUP1 REVERT JUMPDEST POP PUSH2 0x256 PUSH2 0x3EC CALLDATASIZE PUSH1 0x4 PUSH2 0x1AC4 JUMP JUMPDEST PUSH2 0xB84 JUMP JUMPDEST CALLVALUE DUP1 ISZERO PUSH2 0x3FD JUMPI PUSH1 0x0 DUP1 REVERT JUMPDEST POP PUSH2 0x31D PUSH2 0x40C CALLDATASIZE PUSH1 0x4 PUSH2 0x1949 JUMP JUMPDEST PUSH2 0xC03 JUMP JUMPDEST CALLVALUE DUP1 ISZERO PUSH2 0x41D JUMPI PUSH1 0x0 DUP1 REVERT JUMPDEST POP PUSH1 0x5 SLOAD PUSH2 0x2D8 SWAP1 PUSH1 0xFF AND DUP2 JUMP JUMPDEST CALLVALUE DUP1 ISZERO PUSH2 0x437 JUMPI PUSH1 0x0 DUP1 REVERT JUMPDEST POP PUSH2 0x44B PUSH2 0x446 CALLDATASIZE PUSH1 0x4 PUSH2 0x1B0B JUMP JUMPDEST PUSH2 0xC89 JUMP JUMPDEST PUSH1 0x40 DUP1 MLOAD SWAP4 DUP5 MSTORE PUSH1 0x20 DUP5 ADD SWAP3 SWAP1 SWAP3 MSTORE PUSH1 0xFF AND SWAP1 DUP3 ADD MSTORE PUSH1 0x60 ADD PUSH2 0x207 JUMP JUMPDEST CALLVALUE DUP1 ISZERO PUSH2 0x475 JUMPI PUSH1 0x0 DUP1 REVERT JUMPDEST POP PUSH2 0x1FD PUSH2 0x484 CALLDATASIZE PUSH1 0x4 PUSH2 0x1B48 JUMP JUMPDEST PUSH1 0x1 PUSH1 0x1 PUSH1 0xA0 SHL SUB SWAP2 SWAP1 SWAP2 AND PUSH1 0x0 SWAP1 DUP2 MSTORE PUSH1 0x7 PUSH1 0x20 SWAP1 DUP2 MSTORE PUSH1 0x40 DUP1 DUP4 KECCAK256 SWAP4 DUP4 MSTORE SWAP3 SWAP1 MSTORE KECCAK256 SLOAD SWAP1 JUMP JUMPDEST CALLVALUE DUP1 ISZERO PUSH2 0x4B8 JUMPI PUSH1 0x0 DUP1 REVERT JUMPDEST POP PUSH2 0x31D PUSH2 0x4C7 CALLDATASIZE PUSH1 0x4 PUSH2 0x1B74 JUMP JUMPDEST PUSH2 0xCFD JUMP JUMPDEST CALLVALUE DUP1 ISZERO PUSH2 0x4D8 JUMPI PUSH1 0x0 DUP1 REVERT JUMPDEST POP PUSH2 0x1FD PUSH2 0xEAD JUMP JUMPDEST PUSH2 0x31D PUSH2 0x4EF CALLDATASIZE PUSH1 0x4 PUSH2 0x1BB5 JUMP JUMPDEST PUSH2 0xEF7 JUMP JUMPDEST CALLVALUE DUP1 ISZERO PUSH2 0x500 JUMPI PUSH1 0x0 DUP1 REVERT JUMPDEST POP PUSH1 0x2 SLOAD PUSH2 0x256 SWAP1 PUSH1 0x1 PUSH1 0x1 PUSH1 0xA0 SHL SUB AND DUP2 JUMP JUMPDEST CALLVALUE DUP1 ISZERO PUSH2 0x520 JUMPI PUSH1 0x0 DUP1 REVERT JUMPDEST POP PUSH2 0x1FD PUSH32 0x5D8E12C39142FF96D79D04D15D1BA1269E4FE57BB9D26F43523628B34BA108EC DUP2 JUMP JUMPDEST CALLVALUE DUP1 ISZERO PUSH2 0x554 JUMPI PUSH1 0x0 DUP1 REVERT JUMPDEST POP PUSH2 0x1FD PUSH1 0x3 SLOAD DUP2 JUMP JUMPDEST CALLVALUE DUP1 ISZERO PUSH2 0x56A JUMPI PUSH1 0x0 DUP1 REVERT JUMPDEST POP PUSH2 0x2D8 PUSH2 0x579 CALLDATASIZE PUSH1 0x4 PUSH2 0x1949 JUMP JUMPDEST PUSH1 0x1 PUSH1 0x1 PUSH1 0xA0 SHL SUB AND PUSH1 0x0 SWAP1 DUP2 MSTORE PUSH1 0x8 PUSH1 0x20 MSTORE PUSH1 0x40 SWAP1 KECCAK256 SLOAD PUSH1 0xFF AND SWAP1 JUMP JUMPDEST CALLVALUE DUP1 ISZERO PUSH2 0x5A3 JUMPI PUSH1 0x0 DUP1 REVERT JUMPDEST POP PUSH2 0x31D PUSH2 0x5B2 CALLDATASIZE PUSH1 0x4 PUSH2 0x1949 JUMP JUMPDEST PUSH2 0x127F JUMP JUMPDEST CALLVALUE DUP1 ISZERO PUSH2 0x5C3 JUMPI PUSH1 0x0 DUP1 REVERT JUMPDEST POP PUSH2 0x1FD PUSH32 0x68E7D51FDB912CB107DDA2E59B053D87FCCA666DD0EF5339CD3474CCB5276BBA DUP2 JUMP JUMPDEST PUSH2 0x31D PUSH2 0x5F9 CALLDATASIZE PUSH1 0x4 PUSH2 0x1C27 JUMP JUMPDEST PUSH2 0x131A JUMP JUMPDEST CALLVALUE DUP1 ISZERO PUSH2 0x60A JUMPI PUSH1 0x0 DUP1 REVERT JUMPDEST POP PUSH2 0x1FD PUSH2 0x619 CALLDATASIZE PUSH1 0x4 PUSH2 0x1A72 JUMP JUMPDEST PUSH2 0x17B7 JUMP JUMPDEST CALLVALUE DUP1 ISZERO PUSH2 0x62A JUMPI PUSH1 0x0 DUP1 REVERT JUMPDEST POP PUSH2 0x31D PUSH2 0x639 CALLDATASIZE PUSH1 0x4 PUSH2 0x1A72 JUMP JUMPDEST PUSH2 0x17F2 JUMP JUMPDEST CALLVALUE DUP1 ISZERO PUSH2 0x64A JUMPI PUSH1 0x0 DUP1 REVERT JUMPDEST POP PUSH2 0x2D8 PUSH2 0x659 CALLDATASIZE PUSH1 0x4 PUSH2 0x1B48 JUMP JUMPDEST PUSH1 0x1 PUSH1 0x1 PUSH1 0xA0 SHL SUB SWAP2 SWAP1 SWAP2 AND PUSH1 0x0 SWAP1 DUP2 MSTORE PUSH1 0x6 PUSH1 0x20 SWAP1 DUP2 MSTORE PUSH1 0x40 DUP1 DUP4 KECCAK256 SWAP4 DUP4 MSTORE SWAP3 SWAP1 MSTORE KECCAK256 SLOAD PUSH1 0xFF AND SWAP1 JUMP JUMPDEST PUSH1 0x40 MLOAD PUSH12 0xFFFFFFFFFFFFFFFFFFFFFFFF NOT PUSH1 0x60 DUP4 DUP2 SHL DUP3 AND PUSH1 0x20 DUP5 ADD MSTORE ADDRESS SWAP1 SHL AND PUSH1 0x34 DUP3 ADD MSTORE PUSH1 0x0 SWAP1 PUSH1 0x48 ADD JUMPDEST PUSH1 0x40 MLOAD PUSH1 0x20 DUP2 DUP4 SUB SUB DUP2 MSTORE SWAP1 PUSH1 0x40 MSTORE DUP1 MLOAD SWAP1 PUSH1 0x20 ADD KECCAK256 SWAP1 POP SWAP2 SWAP1 POP JUMP JUMPDEST PUSH1 0x0 DUP1 PUSH2 0x6DA DUP5 PUSH2 0x684 JUMP JUMPDEST SWAP1 POP PUSH1 0x0 PUSH2 0x6E7 DUP3 PUSH2 0x17B7 JUMP JUMPDEST SWAP1 POP DUP6 PUSH1 0x1 PUSH1 0x1 PUSH1 0xA0 SHL SUB AND PUSH2 0x6FD DUP3 DUP7 PUSH2 0xB84 JUMP JUMPDEST PUSH1 0x1 PUSH1 0x1 PUSH1 0xA0 SHL SUB AND EQ SWAP7 SWAP6 POP POP POP POP POP POP JUMP JUMPDEST PUSH1 0x2 SLOAD PUSH1 0x40 DUP1 MLOAD PUSH4 0xD5ABEB01 PUSH1 0xE0 SHL DUP2 MSTORE SWAP1 MLOAD PUSH1 0x0 SWAP3 PUSH1 0x1 PUSH1 0x1 PUSH1 0xA0 SHL SUB AND SWAP2 PUSH4 0xD5ABEB01 SWAP2 PUSH1 0x4 DUP1 DUP4 ADD SWAP3 PUSH1 0x20 SWAP3 SWAP2 SWAP1 DUP3 SWAP1 SUB ADD DUP2 DUP7 GAS STATICCALL ISZERO DUP1 ISZERO PUSH2 0x75B JUMPI RETURNDATASIZE PUSH1 0x0 DUP1 RETURNDATACOPY RETURNDATASIZE PUSH1 0x0 REVERT JUMPDEST POP POP POP POP PUSH1 0x40 MLOAD RETURNDATASIZE PUSH1 0x1F NOT PUSH1 0x1F DUP3 ADD AND DUP3 ADD DUP1 PUSH1 0x40 MSTORE POP DUP2 ADD SWAP1 PUSH2 0x77F SWAP2 SWAP1 PUSH2 0x1CA9 JUMP JUMPDEST SWAP1 POP SWAP1 JUMP JUMPDEST PUSH1 0x0 SLOAD PUSH1 0x1 PUSH1 0x1 PUSH1 0xA0 SHL SUB AND CALLER EQ PUSH2 0x7B7 JUMPI PUSH1 0x40 MLOAD PUSH3 0x461BCD PUSH1 0xE5 SHL DUP2 MSTORE PUSH1 0x4 ADD PUSH2 0x7AE SWAP1 PUSH2 0x1CC2 JUMP JUMPDEST PUSH1 0x40 MLOAD DUP1 SWAP2 SUB SWAP1 REVERT JUMPDEST SELFBALANCE DUP1 PUSH2 0x7FC JUMPI PUSH1 0x40 MLOAD PUSH3 0x461BCD PUSH1 0xE5 SHL DUP2 MSTORE PUSH1 0x20 PUSH1 0x4 DUP3 ADD MSTORE PUSH1 0x14 PUSH1 0x24 DUP3 ADD MSTORE PUSH20 0x496E73756666696369656E742042616C616E6365 PUSH1 0x60 SHL PUSH1 0x44 DUP3 ADD MSTORE PUSH1 0x64 ADD PUSH2 0x7AE JUMP JUMPDEST PUSH1 0x0 DUP3 PUSH1 0x1 PUSH1 0x1 PUSH1 0xA0 SHL SUB AND DUP3 PUSH1 0x40 MLOAD PUSH1 0x0 PUSH1 0x40 MLOAD DUP1 DUP4 SUB DUP2 DUP6 DUP8 GAS CALL SWAP3 POP POP POP RETURNDATASIZE DUP1 PUSH1 0x0 DUP2 EQ PUSH2 0x849 JUMPI PUSH1 0x40 MLOAD SWAP2 POP PUSH1 0x1F NOT PUSH1 0x3F RETURNDATASIZE ADD AND DUP3 ADD PUSH1 0x40 MSTORE RETURNDATASIZE DUP3 MSTORE RETURNDATASIZE PUSH1 0x0 PUSH1 0x20 DUP5 ADD RETURNDATACOPY PUSH2 0x84E JUMP JUMPDEST PUSH1 0x60 SWAP2 POP JUMPDEST POP POP SWAP1 POP DUP1 PUSH2 0x85C JUMPI PUSH1 0x0 DUP1 REVERT JUMPDEST PUSH1 0x40 DUP1 MLOAD PUSH1 0x1 PUSH1 0x1 PUSH1 0xA0 SHL SUB DUP6 AND DUP2 MSTORE PUSH1 0x20 DUP2 ADD DUP5 SWAP1 MSTORE TIMESTAMP SWAP2 DUP2 ADD SWAP2 SWAP1 SWAP2 MSTORE PUSH32 0xF279E6A1F5E320CCA91135676D9CB6E44CA8A08C0B88342BCDB1144F6511B568 SWAP1 PUSH1 0x60 ADD JUMPDEST PUSH1 0x40 MLOAD DUP1 SWAP2 SUB SWAP1 LOG1 POP POP POP JUMP JUMPDEST PUSH1 0x0 SLOAD PUSH1 0x1 PUSH1 0x1 PUSH1 0xA0 SHL SUB AND CALLER EQ PUSH2 0x8D8 JUMPI PUSH1 0x40 MLOAD PUSH3 0x461BCD PUSH1 0xE5 SHL DUP2 MSTORE PUSH1 0x4 ADD PUSH2 0x7AE SWAP1 PUSH2 0x1CC2 JUMP JUMPDEST PUSH1 0x5 DUP1 SLOAD PUSH1 0x1 PUSH1 0x1 PUSH1 0xA0 SHL SUB DUP4 DUP2 AND PUSH3 0x10000 DUP2 DUP2 MUL PUSH3 0x10000 PUSH1 0x1 PUSH1 0xB0 SHL SUB NOT DUP6 AND OR SWAP1 SWAP5 SSTORE PUSH1 0x40 DUP1 MLOAD SWAP5 SWAP1 SWAP4 DIV SWAP1 SWAP2 AND DUP1 DUP5 MSTORE PUSH1 0x20 DUP5 ADD SWAP2 SWAP1 SWAP2 MSTORE SWAP2 PUSH32 0xEEB293E1F8F3A9DB91ADE748726387ED1352CA78F5430C5F06FE3D1E1AD50579 SWAP2 ADD JUMPDEST PUSH1 0x40 MLOAD DUP1 SWAP2 SUB SWAP1 LOG1 POP POP JUMP JUMPDEST PUSH1 0x0 SLOAD PUSH1 0x1 PUSH1 0x1 PUSH1 0xA0 SHL SUB AND CALLER EQ PUSH2 0x970 JUMPI PUSH1 0x40 MLOAD PUSH3 0x461BCD PUSH1 0xE5 SHL DUP2 MSTORE PUSH1 0x4 ADD PUSH2 0x7AE SWAP1 PUSH2 0x1CC2 JUMP JUMPDEST PUSH2 0x97A PUSH1 0x0 PUSH2 0x185A JUMP JUMPDEST JUMP JUMPDEST PUSH1 0x0 SLOAD PUSH1 0x1 PUSH1 0x1 PUSH1 0xA0 SHL SUB AND CALLER EQ PUSH2 0x9A6 JUMPI PUSH1 0x40 MLOAD PUSH3 0x461BCD PUSH1 0xE5 SHL DUP2 MSTORE PUSH1 0x4 ADD PUSH2 0x7AE SWAP1 PUSH2 0x1CC2 JUMP JUMPDEST PUSH1 0x4 DUP1 SLOAD SWAP1 DUP3 SWAP1 SSTORE PUSH1 0x40 DUP1 MLOAD DUP3 DUP2 MSTORE PUSH1 0x20 DUP2 ADD DUP5 SWAP1 MSTORE PUSH32 0x123D88BA82600DFC3F219F8885C691B0FF020CAA535666874B3F5174973757FE SWAP2 ADD PUSH2 0x93A JUMP JUMPDEST PUSH1 0x0 SLOAD PUSH1 0x1 PUSH1 0x1 PUSH1 0xA0 SHL SUB AND CALLER EQ PUSH2 0xA0E JUMPI PUSH1 0x40 MLOAD PUSH3 0x461BCD PUSH1 0xE5 SHL DUP2 MSTORE PUSH1 0x4 ADD PUSH2 0x7AE SWAP1 PUSH2 0x1CC2 JUMP JUMPDEST PUSH1 0x40 MLOAD PUSH4 0x70A08231 PUSH1 0xE0 SHL DUP2 MSTORE ADDRESS PUSH1 0x4 DUP3 ADD MSTORE PUSH1 0x0 SWAP1 PUSH1 0x1 PUSH1 0x1 PUSH1 0xA0 SHL SUB DUP4 AND SWAP1 PUSH4 0x70A08231 SWAP1 PUSH1 0x24 ADD PUSH1 0x20 PUSH1 0x40 MLOAD DUP1 DUP4 SUB DUP2 DUP7 GAS STATICCALL ISZERO DUP1 ISZERO PUSH2 0xA55 JUMPI RETURNDATASIZE PUSH1 0x0 DUP1 RETURNDATACOPY RETURNDATASIZE PUSH1 0x0 REVERT JUMPDEST POP POP POP POP PUSH1 0x40 MLOAD RETURNDATASIZE PUSH1 0x1F NOT PUSH1 0x1F DUP3 ADD AND DUP3 ADD DUP1 PUSH1 0x40 MSTORE POP DUP2 ADD SWAP1 PUSH2 0xA79 SWAP2 SWAP1 PUSH2 0x1CA9 JUMP JUMPDEST SWAP1 POP PUSH1 0x0 DUP2 GT PUSH2 0xAC2 JUMPI PUSH1 0x40 MLOAD PUSH3 0x461BCD PUSH1 0xE5 SHL DUP2 MSTORE PUSH1 0x20 PUSH1 0x4 DUP3 ADD MSTORE PUSH1 0x14 PUSH1 0x24 DUP3 ADD MSTORE PUSH20 0x496E73756666696369656E742042616C616E6365 PUSH1 0x60 SHL PUSH1 0x44 DUP3 ADD MSTORE PUSH1 0x64 ADD PUSH2 0x7AE JUMP JUMPDEST PUSH1 0x40 MLOAD PUSH4 0xA9059CBB PUSH1 0xE0 SHL DUP2 MSTORE PUSH1 0x1 PUSH1 0x1 PUSH1 0xA0 SHL SUB DUP5 DUP2 AND PUSH1 0x4 DUP4 ADD MSTORE PUSH1 0x24 DUP3 ADD DUP4 SWAP1 MSTORE DUP4 AND SWAP1 PUSH4 0xA9059CBB SWAP1 PUSH1 0x44 ADD PUSH1 0x20 PUSH1 0x40 MLOAD DUP1 DUP4 SUB DUP2 PUSH1 0x0 DUP8 GAS CALL ISZERO DUP1 ISZERO PUSH2 0xB11 JUMPI RETURNDATASIZE PUSH1 0x0 DUP1 RETURNDATACOPY RETURNDATASIZE PUSH1 0x0 REVERT JUMPDEST POP POP POP POP PUSH1 0x40 MLOAD RETURNDATASIZE PUSH1 0x1F NOT PUSH1 0x1F DUP3 ADD AND DUP3 ADD DUP1 PUSH1 0x40 MSTORE POP DUP2 ADD SWAP1 PUSH2 0xB35 SWAP2 SWAP1 PUSH2 0x1CF7 JUMP JUMPDEST POP PUSH1 0x40 DUP1 MLOAD PUSH1 0x1 PUSH1 0x1 PUSH1 0xA0 SHL SUB DUP1 DUP7 AND DUP3 MSTORE DUP5 AND PUSH1 0x20 DUP3 ADD MSTORE SWAP1 DUP2 ADD DUP3 SWAP1 MSTORE TIMESTAMP PUSH1 0x60 DUP3 ADD MSTORE PUSH32 0xB818A975F91276DF8BA59329BECBC23C793DF0D503C19AC296C3C372A1FA0461 SWAP1 PUSH1 0x80 ADD PUSH2 0x8A1 JUMP JUMPDEST PUSH1 0x0 DUP1 PUSH1 0x0 DUP1 PUSH2 0xB93 DUP6 PUSH2 0xC89 JUMP JUMPDEST PUSH1 0x40 DUP1 MLOAD PUSH1 0x0 DUP2 MSTORE PUSH1 0x20 DUP2 ADD DUP1 DUP4 MSTORE DUP12 SWAP1 MSTORE PUSH1 0xFF DUP4 AND SWAP2 DUP2 ADD SWAP2 SWAP1 SWAP2 MSTORE PUSH1 0x60 DUP2 ADD DUP5 SWAP1 MSTORE PUSH1 0x80 DUP2 ADD DUP4 SWAP1 MSTORE SWAP3 SWAP6 POP SWAP1 SWAP4 POP SWAP2 POP PUSH1 0x1 SWAP1 PUSH1 0xA0 ADD PUSH1 0x20 PUSH1 0x40 MLOAD PUSH1 0x20 DUP2 SUB SWAP1 DUP1 DUP5 SUB SWAP1 DUP6 GAS STATICCALL ISZERO DUP1 ISZERO PUSH2 0xBEE JUMPI RETURNDATASIZE PUSH1 0x0 DUP1 RETURNDATACOPY RETURNDATASIZE PUSH1 0x0 REVERT JUMPDEST POP POP PUSH1 0x40 MLOAD PUSH1 0x1F NOT ADD MLOAD SWAP8 SWAP7 POP POP POP POP POP POP POP JUMP JUMPDEST PUSH1 0x0 SLOAD PUSH1 0x1 PUSH1 0x1 PUSH1 0xA0 SHL SUB AND CALLER EQ PUSH2 0xC2D JUMPI PUSH1 0x40 MLOAD PUSH3 0x461BCD PUSH1 0xE5 SHL DUP2 MSTORE PUSH1 0x4 ADD PUSH2 0x7AE SWAP1 PUSH2 0x1CC2 JUMP JUMPDEST PUSH1 0x2 DUP1 SLOAD PUSH1 0x1 PUSH1 0x1 PUSH1 0xA0 SHL SUB DUP4 DUP2 AND PUSH1 0x1 PUSH1 0x1 PUSH1 0xA0 SHL SUB NOT DUP4 AND DUP2 OR SWAP1 SWAP4 SSTORE PUSH1 0x40 DUP1 MLOAD SWAP2 SWAP1 SWAP3 AND DUP1 DUP3 MSTORE PUSH1 0x20 DUP3 ADD SWAP4 SWAP1 SWAP4 MSTORE DUP4 SWAP2 PUSH32 0xABDF056C85A221FCB31D0366C4475B6B2C613DF2EEEA951A9FCB3E1A8595D973 SWAP2 ADD PUSH2 0x8A1 JUMP JUMPDEST PUSH1 0x0 DUP1 PUSH1 0x0 DUP4 MLOAD PUSH1 0x41 EQ PUSH2 0xCDF JUMPI PUSH1 0x40 MLOAD PUSH3 0x461BCD PUSH1 0xE5 SHL DUP2 MSTORE PUSH1 0x20 PUSH1 0x4 DUP3 ADD MSTORE PUSH1 0x18 PUSH1 0x24 DUP3 ADD MSTORE PUSH32 0x696E76616C6964207369676E6174757265206C656E6774680000000000000000 PUSH1 0x44 DUP3 ADD MSTORE PUSH1 0x64 ADD PUSH2 0x7AE JUMP JUMPDEST POP POP POP PUSH1 0x20 DUP2 ADD MLOAD PUSH1 0x40 DUP3 ADD MLOAD PUSH1 0x60 SWAP1 SWAP3 ADD MLOAD SWAP1 SWAP3 PUSH1 0x0 SWAP2 SWAP1 SWAP2 BYTE SWAP1 JUMP JUMPDEST PUSH1 0x0 SLOAD PUSH1 0x1 PUSH1 0x1 PUSH1 0xA0 SHL SUB AND CALLER EQ PUSH2 0xD27 JUMPI PUSH1 0x40 MLOAD PUSH3 0x461BCD PUSH1 0xE5 SHL DUP2 MSTORE PUSH1 0x4 ADD PUSH2 0x7AE SWAP1 PUSH2 0x1CC2 JUMP JUMPDEST PUSH1 0x40 MLOAD PUSH4 0x31A9108F PUSH1 0xE1 SHL DUP2 MSTORE PUSH1 0x4 DUP2 ADD DUP3 SWAP1 MSTORE ADDRESS SWAP1 PUSH1 0x1 PUSH1 0x1 PUSH1 0xA0 SHL SUB DUP5 AND SWAP1 PUSH4 0x6352211E SWAP1 PUSH1 0x24 ADD PUSH1 0x20 PUSH1 0x40 MLOAD DUP1 DUP4 SUB DUP2 DUP7 GAS STATICCALL ISZERO DUP1 ISZERO PUSH2 0xD6E JUMPI RETURNDATASIZE PUSH1 0x0 DUP1 RETURNDATACOPY RETURNDATASIZE PUSH1 0x0 REVERT JUMPDEST POP POP POP POP PUSH1 0x40 MLOAD RETURNDATASIZE PUSH1 0x1F NOT PUSH1 0x1F DUP3 ADD AND DUP3 ADD DUP1 PUSH1 0x40 MSTORE POP DUP2 ADD SWAP1 PUSH2 0xD92 SWAP2 SWAP1 PUSH2 0x1D19 JUMP JUMPDEST PUSH1 0x1 PUSH1 0x1 PUSH1 0xA0 SHL SUB AND EQ PUSH2 0xDF6 JUMPI PUSH1 0x40 MLOAD PUSH3 0x461BCD PUSH1 0xE5 SHL DUP2 MSTORE PUSH1 0x20 PUSH1 0x4 DUP3 ADD MSTORE PUSH1 0x25 PUSH1 0x24 DUP3 ADD MSTORE PUSH32 0x5468697320746F6B656E4964206973206E6F74206F776E656420627920636F6E PUSH1 0x44 DUP3 ADD MSTORE PUSH5 0x1D1C9858DD PUSH1 0xDA SHL PUSH1 0x64 DUP3 ADD MSTORE PUSH1 0x84 ADD PUSH2 0x7AE JUMP JUMPDEST PUSH1 0x40 MLOAD PUSH4 0x21421707 PUSH1 0xE1 SHL DUP2 MSTORE ADDRESS PUSH1 0x4 DUP3 ADD MSTORE PUSH1 0x1 PUSH1 0x1 PUSH1 0xA0 SHL SUB DUP5 DUP2 AND PUSH1 0x24 DUP4 ADD MSTORE PUSH1 0x44 DUP3 ADD DUP4 SWAP1 MSTORE DUP4 AND SWAP1 PUSH4 0x42842E0E SWAP1 PUSH1 0x64 ADD PUSH1 0x0 PUSH1 0x40 MLOAD DUP1 DUP4 SUB DUP2 PUSH1 0x0 DUP8 DUP1 EXTCODESIZE ISZERO DUP1 ISZERO PUSH2 0xE46 JUMPI PUSH1 0x0 DUP1 REVERT JUMPDEST POP GAS CALL ISZERO DUP1 ISZERO PUSH2 0xE5A JUMPI RETURNDATASIZE PUSH1 0x0 DUP1 RETURNDATACOPY RETURNDATASIZE PUSH1 0x0 REVERT JUMPDEST POP POP PUSH1 0x40 DUP1 MLOAD PUSH1 0x1 PUSH1 0x1 PUSH1 0xA0 SHL SUB DUP1 DUP9 AND DUP3 MSTORE DUP7 AND PUSH1 0x20 DUP3 ADD MSTORE SWAP1 DUP2 ADD DUP5 SWAP1 MSTORE TIMESTAMP PUSH1 0x60 DUP3 ADD MSTORE PUSH32 0x127A8D3F57942833F6930572BCE52AD882683E36EEB5830D199D3FA4BFA9467 SWAP3 POP PUSH1 0x80 ADD SWAP1 POP PUSH2 0x8A1 JUMP JUMPDEST PUSH1 0x2 SLOAD PUSH1 0x40 DUP1 MLOAD PUSH4 0x18160DDD PUSH1 0xE0 SHL DUP2 MSTORE SWAP1 MLOAD PUSH1 0x0 SWAP3 PUSH1 0x1 PUSH1 0x1 PUSH1 0xA0 SHL SUB AND SWAP2 PUSH4 0x18160DDD SWAP2 PUSH1 0x4 DUP1 DUP4 ADD SWAP3 PUSH1 0x20 SWAP3 SWAP2 SWAP1 DUP3 SWAP1 SUB ADD DUP2 DUP7 GAS STATICCALL ISZERO DUP1 ISZERO PUSH2 0x75B JUMPI RETURNDATASIZE PUSH1 0x0 DUP1 RETURNDATACOPY RETURNDATASIZE PUSH1 0x0 REVERT JUMPDEST PUSH1 0x2 PUSH1 0x1 SLOAD SUB PUSH2 0xF49 JUMPI PUSH1 0x40 MLOAD PUSH3 0x461BCD PUSH1 0xE5 SHL DUP2 MSTORE PUSH1 0x20 PUSH1 0x4 DUP3 ADD MSTORE PUSH1 0x1F PUSH1 0x24 DUP3 ADD MSTORE PUSH32 0x5265656E7472616E637947756172643A207265656E7472616E742063616C6C00 PUSH1 0x44 DUP3 ADD MSTORE PUSH1 0x64 ADD PUSH2 0x7AE JUMP JUMPDEST PUSH1 0x2 PUSH1 0x1 SWAP1 DUP2 SSTORE PUSH1 0x5 SLOAD PUSH1 0xFF AND ISZERO ISZERO EQ PUSH2 0xFA5 JUMPI PUSH1 0x40 MLOAD PUSH3 0x461BCD PUSH1 0xE5 SHL DUP2 MSTORE PUSH1 0x20 PUSH1 0x4 DUP3 ADD MSTORE PUSH1 0x18 PUSH1 0x24 DUP3 ADD MSTORE PUSH32 0x5075626C6963206D696E74206973206E6F74206F70656E2E0000000000000000 PUSH1 0x44 DUP3 ADD MSTORE PUSH1 0x64 ADD PUSH2 0x7AE JUMP JUMPDEST ORIGIN CALLER EQ PUSH2 0xFF4 JUMPI PUSH1 0x40 MLOAD PUSH3 0x461BCD PUSH1 0xE5 SHL DUP2 MSTORE PUSH1 0x20 PUSH1 0x4 DUP3 ADD MSTORE PUSH1 0x1B PUSH1 0x24 DUP3 ADD MSTORE PUSH32 0x6861686120436F6E74726163742063616E27742063616C6C206D650000000000 PUSH1 0x44 DUP3 ADD MSTORE PUSH1 0x64 ADD PUSH2 0x7AE JUMP JUMPDEST CALLER PUSH1 0x0 SWAP1 DUP2 MSTORE PUSH1 0x8 PUSH1 0x20 MSTORE PUSH1 0x40 SWAP1 KECCAK256 SLOAD PUSH1 0xFF AND ISZERO ISZERO PUSH1 0x1 SUB PUSH2 0x1052 JUMPI PUSH1 0x40 MLOAD PUSH3 0x461BCD PUSH1 0xE5 SHL DUP2 MSTORE PUSH1 0x20 PUSH1 0x4 DUP3 ADD MSTORE PUSH1 0x17 PUSH1 0x24 DUP3 ADD MSTORE PUSH23 0x2CB7BA9030B9329030B63932B0B23C9036B4B73A32B217 PUSH1 0x49 SHL PUSH1 0x44 DUP3 ADD MSTORE PUSH1 0x64 ADD PUSH2 0x7AE JUMP JUMPDEST PUSH1 0x2 SLOAD PUSH1 0x40 MLOAD PUSH4 0x55138F0D PUSH1 0xE1 SHL DUP2 MSTORE ADDRESS PUSH1 0x4 DUP3 ADD MSTORE PUSH1 0x1 PUSH1 0x1 PUSH1 0xA0 SHL SUB SWAP1 SWAP2 AND SWAP1 PUSH4 0xAA271E1A SWAP1 PUSH1 0x24 ADD PUSH1 0x20 PUSH1 0x40 MLOAD DUP1 DUP4 SUB DUP2 DUP7 GAS STATICCALL ISZERO DUP1 ISZERO PUSH2 0x109A JUMPI RETURNDATASIZE PUSH1 0x0 DUP1 RETURNDATACOPY RETURNDATASIZE PUSH1 0x0 REVERT JUMPDEST POP POP POP POP PUSH1 0x40 MLOAD RETURNDATASIZE PUSH1 0x1F NOT PUSH1 0x1F DUP3 ADD AND DUP3 ADD DUP1 PUSH1 0x40 MSTORE POP DUP2 ADD SWAP1 PUSH2 0x10BE SWAP2 SWAP1 PUSH2 0x1CF7 JUMP JUMPDEST PUSH2 0x110A JUMPI PUSH1 0x40 MLOAD PUSH3 0x461BCD PUSH1 0xE5 SHL DUP2 MSTORE PUSH1 0x20 PUSH1 0x4 DUP3 ADD MSTORE PUSH1 0x1E PUSH1 0x24 DUP3 ADD MSTORE PUSH32 0x436F6E7472616374204D696E74206973206E6F7420617070726F7665642E0000 PUSH1 0x44 DUP3 ADD MSTORE PUSH1 0x64 ADD PUSH2 0x7AE JUMP JUMPDEST PUSH2 0x1160 PUSH1 0x5 PUSH1 0x2 SWAP1 SLOAD SWAP1 PUSH2 0x100 EXP SWAP1 DIV PUSH1 0x1 PUSH1 0x1 PUSH1 0xA0 SHL SUB AND CALLER DUP5 DUP5 DUP1 DUP1 PUSH1 0x1F ADD PUSH1 0x20 DUP1 SWAP2 DIV MUL PUSH1 0x20 ADD PUSH1 0x40 MLOAD SWAP1 DUP2 ADD PUSH1 0x40 MSTORE DUP1 SWAP4 SWAP3 SWAP2 SWAP1 DUP2 DUP2 MSTORE PUSH1 0x20 ADD DUP4 DUP4 DUP1 DUP3 DUP5 CALLDATACOPY PUSH1 0x0 SWAP3 ADD SWAP2 SWAP1 SWAP2 MSTORE POP PUSH2 0x6CE SWAP3 POP POP POP JUMP JUMPDEST PUSH2 0x11B7 JUMPI PUSH1 0x40 MLOAD PUSH3 0x461BCD PUSH1 0xE5 SHL DUP2 MSTORE PUSH1 0x20 PUSH1 0x4 DUP3 ADD MSTORE PUSH1 0x22 PUSH1 0x24 DUP3 ADD MSTORE PUSH32 0x556E617574686F72697A6564205075626C69634D696E74205468697320557365 PUSH1 0x44 DUP3 ADD MSTORE PUSH2 0x3917 PUSH1 0xF1 SHL PUSH1 0x64 DUP3 ADD MSTORE PUSH1 0x84 ADD PUSH2 0x7AE JUMP JUMPDEST CALLER PUSH1 0x0 DUP2 DUP2 MSTORE PUSH1 0x8 PUSH1 0x20 MSTORE PUSH1 0x40 SWAP1 DUP2 SWAP1 KECCAK256 DUP1 SLOAD PUSH1 0xFF NOT AND PUSH1 0x1 SWAP1 DUP2 OR SWAP1 SWAP2 SSTORE PUSH1 0x2 SLOAD SWAP2 MLOAD PUSH4 0x28512065 PUSH1 0xE2 SHL DUP2 MSTORE PUSH1 0x4 DUP2 ADD SWAP4 SWAP1 SWAP4 MSTORE PUSH1 0x24 DUP4 ADD DUP2 SWAP1 MSTORE SWAP2 PUSH1 0x1 PUSH1 0x1 PUSH1 0xA0 SHL SUB SWAP1 SWAP2 AND SWAP1 PUSH4 0xA1448194 SWAP1 PUSH1 0x44 ADD PUSH1 0x0 PUSH1 0x40 MLOAD DUP1 DUP4 SUB DUP2 PUSH1 0x0 DUP8 DUP1 EXTCODESIZE ISZERO DUP1 ISZERO PUSH2 0x1224 JUMPI PUSH1 0x0 DUP1 REVERT JUMPDEST POP GAS CALL ISZERO DUP1 ISZERO PUSH2 0x1238 JUMPI RETURNDATASIZE PUSH1 0x0 DUP1 RETURNDATACOPY RETURNDATASIZE PUSH1 0x0 REVERT JUMPDEST POP POP PUSH1 0x40 DUP1 MLOAD DUP5 DUP2 MSTORE TIMESTAMP PUSH1 0x20 DUP3 ADD MSTORE CALLER SWAP4 POP PUSH32 0xC1A73B31B32801EBBB4CAE30B73EAE4345BE9F2915EA60306383C245EF8FAC44 SWAP3 POP ADD PUSH1 0x40 MLOAD DUP1 SWAP2 SUB SWAP1 LOG2 POP POP PUSH1 0x1 DUP1 SSTORE POP JUMP JUMPDEST PUSH1 0x0 SLOAD PUSH1 0x1 PUSH1 0x1 PUSH1 0xA0 SHL SUB AND CALLER EQ PUSH2 0x12A9 JUMPI PUSH1 0x40 MLOAD PUSH3 0x461BCD PUSH1 0xE5 SHL DUP2 MSTORE PUSH1 0x4 ADD PUSH2 0x7AE SWAP1 PUSH2 0x1CC2 JUMP JUMPDEST PUSH1 0x1 PUSH1 0x1 PUSH1 0xA0 SHL SUB DUP2 AND PUSH2 0x130E JUMPI PUSH1 0x40 MLOAD PUSH3 0x461BCD PUSH1 0xE5 SHL DUP2 MSTORE PUSH1 0x20 PUSH1 0x4 DUP3 ADD MSTORE PUSH1 0x26 PUSH1 0x24 DUP3 ADD MSTORE PUSH32 0x4F776E61626C653A206E6577206F776E657220697320746865207A65726F2061 PUSH1 0x44 DUP3 ADD MSTORE PUSH6 0x646472657373 PUSH1 0xD0 SHL PUSH1 0x64 DUP3 ADD MSTORE PUSH1 0x84 ADD PUSH2 0x7AE JUMP JUMPDEST PUSH2 0x1317 DUP2 PUSH2 0x185A JUMP JUMPDEST POP JUMP JUMPDEST PUSH1 0x2 PUSH1 0x1 SLOAD SUB PUSH2 0x136C JUMPI PUSH1 0x40 MLOAD PUSH3 0x461BCD PUSH1 0xE5 SHL DUP2 MSTORE PUSH1 0x20 PUSH1 0x4 DUP3 ADD MSTORE PUSH1 0x1F PUSH1 0x24 DUP3 ADD MSTORE PUSH32 0x5265656E7472616E637947756172643A207265656E7472616E742063616C6C00 PUSH1 0x44 DUP3 ADD MSTORE PUSH1 0x64 ADD PUSH2 0x7AE JUMP JUMPDEST PUSH1 0x2 PUSH1 0x1 SWAP1 DUP2 SSTORE PUSH1 0x5 SLOAD PUSH2 0x100 SWAP1 DIV PUSH1 0xFF AND ISZERO ISZERO EQ PUSH2 0x13CD JUMPI PUSH1 0x40 MLOAD PUSH3 0x461BCD PUSH1 0xE5 SHL DUP2 MSTORE PUSH1 0x20 PUSH1 0x4 DUP3 ADD MSTORE PUSH1 0x19 PUSH1 0x24 DUP3 ADD MSTORE PUSH32 0x50726976617465206D696E74206973206E6F74206F70656E2E00000000000000 PUSH1 0x44 DUP3 ADD MSTORE PUSH1 0x64 ADD PUSH2 0x7AE JUMP JUMPDEST DUP1 PUSH2 0x1412 JUMPI PUSH1 0x40 MLOAD PUSH3 0x461BCD PUSH1 0xE5 SHL DUP2 MSTORE PUSH1 0x20 PUSH1 0x4 DUP3 ADD MSTORE PUSH1 0x15 PUSH1 0x24 DUP3 ADD MSTORE PUSH21 0x26B4B73A1034B9903737BA1030B8383937BB32B217 PUSH1 0x59 SHL PUSH1 0x44 DUP3 ADD MSTORE PUSH1 0x64 ADD PUSH2 0x7AE JUMP JUMPDEST DUP1 PUSH1 0x3 SLOAD EQ PUSH2 0x1473 JUMPI PUSH1 0x40 MLOAD PUSH3 0x461BCD PUSH1 0xE5 SHL DUP2 MSTORE PUSH1 0x20 PUSH1 0x4 DUP3 ADD MSTORE PUSH1 0x27 PUSH1 0x24 DUP3 ADD MSTORE PUSH32 0x436F6E747261637420617265206E6F7420696E2074686973206D696E74696E67 PUSH1 0x44 DUP3 ADD MSTORE PUSH7 0x103937BAB73217 PUSH1 0xC9 SHL PUSH1 0x64 DUP3 ADD MSTORE PUSH1 0x84 ADD PUSH2 0x7AE JUMP JUMPDEST PUSH2 0x147B PUSH2 0x711 JUMP JUMPDEST DUP3 PUSH2 0x1484 PUSH2 0xEAD JUMP JUMPDEST PUSH2 0x148E SWAP2 SWAP1 PUSH2 0x1D4C JUMP JUMPDEST LT PUSH2 0x14C9 JUMPI PUSH1 0x40 MLOAD PUSH3 0x461BCD PUSH1 0xE5 SHL DUP2 MSTORE PUSH1 0x20 PUSH1 0x4 DUP3 ADD MSTORE PUSH1 0xB PUSH1 0x24 DUP3 ADD MSTORE PUSH11 0x4F76657220737570706C79 PUSH1 0xA8 SHL PUSH1 0x44 DUP3 ADD MSTORE PUSH1 0x64 ADD PUSH2 0x7AE JUMP JUMPDEST CALLER PUSH1 0x0 SWAP1 DUP2 MSTORE PUSH1 0x6 PUSH1 0x20 SWAP1 DUP2 MSTORE PUSH1 0x40 DUP1 DUP4 KECCAK256 DUP5 DUP5 MSTORE SWAP1 SWAP2 MSTORE SWAP1 KECCAK256 SLOAD PUSH1 0xFF AND ISZERO PUSH2 0x152E JUMPI PUSH1 0x40 MLOAD PUSH3 0x461BCD PUSH1 0xE5 SHL DUP2 MSTORE PUSH1 0x20 PUSH1 0x4 DUP3 ADD MSTORE PUSH1 0x17 PUSH1 0x24 DUP3 ADD MSTORE PUSH23 0x2CB7BA9030B9329030B63932B0B23C9036B4B73A32B217 PUSH1 0x49 SHL PUSH1 0x44 DUP3 ADD MSTORE PUSH1 0x64 ADD PUSH2 0x7AE JUMP JUMPDEST PUSH1 0x2 SLOAD PUSH1 0x40 MLOAD PUSH4 0x55138F0D PUSH1 0xE1 SHL DUP2 MSTORE ADDRESS PUSH1 0x4 DUP3 ADD MSTORE PUSH1 0x1 PUSH1 0x1 PUSH1 0xA0 SHL SUB SWAP1 SWAP2 AND SWAP1 PUSH4 0xAA271E1A SWAP1 PUSH1 0x24 ADD PUSH1 0x20 PUSH1 0x40 MLOAD DUP1 DUP4 SUB DUP2 DUP7 GAS STATICCALL ISZERO DUP1 ISZERO PUSH2 0x1576 JUMPI RETURNDATASIZE PUSH1 0x0 DUP1 RETURNDATACOPY RETURNDATASIZE PUSH1 0x0 REVERT JUMPDEST POP POP POP POP PUSH1 0x40 MLOAD RETURNDATASIZE PUSH1 0x1F NOT PUSH1 0x1F DUP3 ADD AND DUP3 ADD DUP1 PUSH1 0x40 MSTORE POP DUP2 ADD SWAP1 PUSH2 0x159A SWAP2 SWAP1 PUSH2 0x1CF7 JUMP JUMPDEST PUSH2 0x15E6 JUMPI PUSH1 0x40 MLOAD PUSH3 0x461BCD PUSH1 0xE5 SHL DUP2 MSTORE PUSH1 0x20 PUSH1 0x4 DUP3 ADD MSTORE PUSH1 0x1E PUSH1 0x24 DUP3 ADD MSTORE PUSH32 0x436F6E7472616374204D696E74206973206E6F7420617070726F7665642E0000 PUSH1 0x44 DUP3 ADD MSTORE PUSH1 0x64 ADD PUSH2 0x7AE JUMP JUMPDEST PUSH2 0x1669 DUP5 DUP5 DUP1 DUP1 PUSH1 0x20 MUL PUSH1 0x20 ADD PUSH1 0x40 MLOAD SWAP1 DUP2 ADD PUSH1 0x40 MSTORE DUP1 SWAP4 SWAP3 SWAP2 SWAP1 DUP2 DUP2 MSTORE PUSH1 0x20 ADD DUP4 DUP4 PUSH1 0x20 MUL DUP1 DUP3 DUP5 CALLDATACOPY PUSH1 0x0 SWAP3 ADD SWAP2 SWAP1 SWAP2 MSTORE POP POP PUSH1 0x4 SLOAD PUSH1 0x40 MLOAD PUSH12 0xFFFFFFFFFFFFFFFFFFFFFFFF NOT CALLER PUSH1 0x60 SHL AND PUSH1 0x20 DUP3 ADD MSTORE PUSH1 0x34 DUP2 ADD DUP9 SWAP1 MSTORE PUSH1 0x54 DUP2 ADD DUP8 SWAP1 MSTORE SWAP1 SWAP3 POP PUSH1 0x74 ADD SWAP1 POP PUSH1 0x40 MLOAD PUSH1 0x20 DUP2 DUP4 SUB SUB DUP2 MSTORE SWAP1 PUSH1 0x40 MSTORE DUP1 MLOAD SWAP1 PUSH1 0x20 ADD KECCAK256 PUSH2 0x18AA JUMP JUMPDEST PUSH2 0x16C3 JUMPI PUSH1 0x40 MLOAD PUSH3 0x461BCD PUSH1 0xE5 SHL DUP2 MSTORE PUSH1 0x20 PUSH1 0x4 DUP3 ADD MSTORE PUSH1 0x25 PUSH1 0x24 DUP3 ADD MSTORE PUSH32 0x556E617574686F72697A65642057686974656C6973744D696E74205468697320 PUSH1 0x44 DUP3 ADD MSTORE PUSH5 0x2AB9B2B917 PUSH1 0xD9 SHL PUSH1 0x64 DUP3 ADD MSTORE PUSH1 0x84 ADD PUSH2 0x7AE JUMP JUMPDEST CALLER PUSH1 0x0 DUP2 DUP2 MSTORE PUSH1 0x6 PUSH1 0x20 SWAP1 DUP2 MSTORE PUSH1 0x40 DUP1 DUP4 KECCAK256 DUP6 DUP5 MSTORE DUP3 MSTORE DUP1 DUP4 KECCAK256 DUP1 SLOAD PUSH1 0xFF NOT AND PUSH1 0x1 OR SWAP1 SSTORE SWAP3 DUP3 MSTORE PUSH1 0x7 DUP2 MSTORE DUP3 DUP3 KECCAK256 DUP5 DUP4 MSTORE SWAP1 MSTORE SWAP1 DUP2 KECCAK256 DUP1 SLOAD DUP5 SWAP3 SWAP1 PUSH2 0x170A SWAP1 DUP5 SWAP1 PUSH2 0x1D4C JUMP JUMPDEST SWAP1 SWAP2 SSTORE POP POP PUSH1 0x2 SLOAD PUSH1 0x40 MLOAD PUSH4 0x28512065 PUSH1 0xE2 SHL DUP2 MSTORE CALLER PUSH1 0x4 DUP3 ADD MSTORE PUSH1 0x24 DUP2 ADD DUP5 SWAP1 MSTORE PUSH1 0x1 PUSH1 0x1 PUSH1 0xA0 SHL SUB SWAP1 SWAP2 AND SWAP1 PUSH4 0xA1448194 SWAP1 PUSH1 0x44 ADD PUSH1 0x0 PUSH1 0x40 MLOAD DUP1 DUP4 SUB DUP2 PUSH1 0x0 DUP8 DUP1 EXTCODESIZE ISZERO DUP1 ISZERO PUSH2 0x175B JUMPI PUSH1 0x0 DUP1 REVERT JUMPDEST POP GAS CALL ISZERO DUP1 ISZERO PUSH2 0x176F JUMPI RETURNDATASIZE PUSH1 0x0 DUP1 RETURNDATACOPY RETURNDATASIZE PUSH1 0x0 REVERT JUMPDEST POP POP PUSH1 0x40 DUP1 MLOAD DUP6 DUP2 MSTORE TIMESTAMP PUSH1 0x20 DUP3 ADD MSTORE CALLER SWAP4 POP PUSH32 0xE9E607753E80542A9021D5149990F18919907F0136FAD424EAAC3D15056CCF6E SWAP3 POP ADD PUSH1 0x40 MLOAD DUP1 SWAP2 SUB SWAP1 LOG2 POP POP PUSH1 0x1 DUP1 SSTORE POP POP JUMP JUMPDEST PUSH1 0x40 MLOAD PUSH32 0x19457468657265756D205369676E6564204D6573736167653A0A333200000000 PUSH1 0x20 DUP3 ADD MSTORE PUSH1 0x3C DUP2 ADD DUP3 SWAP1 MSTORE PUSH1 0x0 SWAP1 PUSH1 0x5C ADD PUSH2 0x6B1 JUMP JUMPDEST PUSH1 0x0 SLOAD PUSH1 0x1 PUSH1 0x1 PUSH1 0xA0 SHL SUB AND CALLER EQ PUSH2 0x181C JUMPI PUSH1 0x40 MLOAD PUSH3 0x461BCD PUSH1 0xE5 SHL DUP2 MSTORE PUSH1 0x4 ADD PUSH2 0x7AE SWAP1 PUSH2 0x1CC2 JUMP JUMPDEST PUSH1 0x3 DUP1 SLOAD SWAP1 DUP3 SWAP1 SSTORE PUSH1 0x40 DUP1 MLOAD DUP3 DUP2 MSTORE PUSH1 0x20 DUP2 ADD DUP5 SWAP1 MSTORE PUSH32 0x521EC96875CA228CD2FC1DBD4C927A34328C9CE1A83BCB8C1F633F012C90D785 SWAP2 ADD PUSH2 0x93A JUMP JUMPDEST PUSH1 0x0 DUP1 SLOAD PUSH1 0x1 PUSH1 0x1 PUSH1 0xA0 SHL SUB DUP4 DUP2 AND PUSH1 0x1 PUSH1 0x1 PUSH1 0xA0 SHL SUB NOT DUP4 AND DUP2 OR DUP5 SSTORE PUSH1 0x40 MLOAD SWAP2 SWAP1 SWAP3 AND SWAP3 DUP4 SWAP2 PUSH32 0x8BE0079C531659141344CD1FD0A4F28419497F9722A3DAAFE3B4186F6B6457E0 SWAP2 SWAP1 LOG3 POP POP JUMP JUMPDEST PUSH1 0x0 DUP3 PUSH2 0x18B7 DUP6 DUP5 PUSH2 0x18C0 JUMP JUMPDEST EQ SWAP5 SWAP4 POP POP POP POP JUMP JUMPDEST PUSH1 0x0 DUP2 DUP2 JUMPDEST DUP5 MLOAD DUP2 LT ISZERO PUSH2 0x192C JUMPI PUSH1 0x0 DUP6 DUP3 DUP2 MLOAD DUP2 LT PUSH2 0x18E2 JUMPI PUSH2 0x18E2 PUSH2 0x1D64 JUMP JUMPDEST PUSH1 0x20 MUL PUSH1 0x20 ADD ADD MLOAD SWAP1 POP DUP1 DUP4 GT PUSH2 0x1908 JUMPI PUSH1 0x0 DUP4 DUP2 MSTORE PUSH1 0x20 DUP3 SWAP1 MSTORE PUSH1 0x40 SWAP1 KECCAK256 SWAP3 POP PUSH2 0x1919 JUMP JUMPDEST PUSH1 0x0 DUP2 DUP2 MSTORE PUSH1 0x20 DUP5 SWAP1 MSTORE PUSH1 0x40 SWAP1 KECCAK256 SWAP3 POP JUMPDEST POP DUP1 PUSH2 0x1924 DUP2 PUSH2 0x1D7A JUMP JUMPDEST SWAP2 POP POP PUSH2 0x18C5 JUMP JUMPDEST POP SWAP4 SWAP3 POP POP POP JUMP JUMPDEST PUSH1 0x1 PUSH1 0x1 PUSH1 0xA0 SHL SUB DUP2 AND DUP2 EQ PUSH2 0x1317 JUMPI PUSH1 0x0 DUP1 REVERT JUMPDEST PUSH1 0x0 PUSH1 0x20 DUP3 DUP5 SUB SLT ISZERO PUSH2 0x195B JUMPI PUSH1 0x0 DUP1 REVERT JUMPDEST DUP2 CALLDATALOAD PUSH2 0x1966 DUP2 PUSH2 0x1934 JUMP JUMPDEST SWAP4 SWAP3 POP POP POP JUMP JUMPDEST PUSH4 0x4E487B71 PUSH1 0xE0 SHL PUSH1 0x0 MSTORE PUSH1 0x41 PUSH1 0x4 MSTORE PUSH1 0x24 PUSH1 0x0 REVERT JUMPDEST PUSH1 0x0 DUP3 PUSH1 0x1F DUP4 ADD SLT PUSH2 0x1994 JUMPI PUSH1 0x0 DUP1 REVERT JUMPDEST DUP2 CALLDATALOAD PUSH8 0xFFFFFFFFFFFFFFFF DUP1 DUP3 GT ISZERO PUSH2 0x19AF JUMPI PUSH2 0x19AF PUSH2 0x196D JUMP JUMPDEST PUSH1 0x40 MLOAD PUSH1 0x1F DUP4 ADD PUSH1 0x1F NOT SWAP1 DUP2 AND PUSH1 0x3F ADD AND DUP2 ADD SWAP1 DUP3 DUP3 GT DUP2 DUP4 LT OR ISZERO PUSH2 0x19D7 JUMPI PUSH2 0x19D7 PUSH2 0x196D JUMP JUMPDEST DUP2 PUSH1 0x40 MSTORE DUP4 DUP2 MSTORE DUP7 PUSH1 0x20 DUP6 DUP9 ADD ADD GT ISZERO PUSH2 0x19F0 JUMPI PUSH1 0x0 DUP1 REVERT JUMPDEST DUP4 PUSH1 0x20 DUP8 ADD PUSH1 0x20 DUP4 ADD CALLDATACOPY PUSH1 0x0 PUSH1 0x20 DUP6 DUP4 ADD ADD MSTORE DUP1 SWAP5 POP POP POP POP POP SWAP3 SWAP2 POP POP JUMP JUMPDEST PUSH1 0x0 DUP1 PUSH1 0x0 PUSH1 0x60 DUP5 DUP7 SUB SLT ISZERO PUSH2 0x1A25 JUMPI PUSH1 0x0 DUP1 REVERT JUMPDEST DUP4 CALLDATALOAD PUSH2 0x1A30 DUP2 PUSH2 0x1934 JUMP JUMPDEST SWAP3 POP PUSH1 0x20 DUP5 ADD CALLDATALOAD PUSH2 0x1A40 DUP2 PUSH2 0x1934 JUMP JUMPDEST SWAP2 POP PUSH1 0x40 DUP5 ADD CALLDATALOAD PUSH8 0xFFFFFFFFFFFFFFFF DUP2 GT ISZERO PUSH2 0x1A5C JUMPI PUSH1 0x0 DUP1 REVERT JUMPDEST PUSH2 0x1A68 DUP7 DUP3 DUP8 ADD PUSH2 0x1983 JUMP JUMPDEST SWAP2 POP POP SWAP3 POP SWAP3 POP SWAP3 JUMP JUMPDEST PUSH1 0x0 PUSH1 0x20 DUP3 DUP5 SUB SLT ISZERO PUSH2 0x1A84 JUMPI PUSH1 0x0 DUP1 REVERT JUMPDEST POP CALLDATALOAD SWAP2 SWAP1 POP JUMP JUMPDEST PUSH1 0x0 DUP1 PUSH1 0x40 DUP4 DUP6 SUB SLT ISZERO PUSH2 0x1A9E JUMPI PUSH1 0x0 DUP1 REVERT JUMPDEST DUP3 CALLDATALOAD PUSH2 0x1AA9 DUP2 PUSH2 0x1934 JUMP JUMPDEST SWAP2 POP PUSH1 0x20 DUP4 ADD CALLDATALOAD PUSH2 0x1AB9 DUP2 PUSH2 0x1934 JUMP JUMPDEST DUP1 SWAP2 POP POP SWAP3 POP SWAP3 SWAP1 POP JUMP JUMPDEST PUSH1 0x0 DUP1 PUSH1 0x40 DUP4 DUP6 SUB SLT ISZERO PUSH2 0x1AD7 JUMPI PUSH1 0x0 DUP1 REVERT JUMPDEST DUP3 CALLDATALOAD SWAP2 POP PUSH1 0x20 DUP4 ADD CALLDATALOAD PUSH8 0xFFFFFFFFFFFFFFFF DUP2 GT ISZERO PUSH2 0x1AF5 JUMPI PUSH1 0x0 DUP1 REVERT JUMPDEST PUSH2 0x1B01 DUP6 DUP3 DUP7 ADD PUSH2 0x1983 JUMP JUMPDEST SWAP2 POP POP SWAP3 POP SWAP3 SWAP1 POP JUMP JUMPDEST PUSH1 0x0 PUSH1 0x20 DUP3 DUP5 SUB SLT ISZERO PUSH2 0x1B1D JUMPI PUSH1 0x0 DUP1 REVERT JUMPDEST DUP2 CALLDATALOAD PUSH8 0xFFFFFFFFFFFFFFFF DUP2 GT ISZERO PUSH2 0x1B34 JUMPI PUSH1 0x0 DUP1 REVERT JUMPDEST PUSH2 0x1B40 DUP5 DUP3 DUP6 ADD PUSH2 0x1983 JUMP JUMPDEST SWAP5 SWAP4 POP POP POP POP JUMP JUMPDEST PUSH1 0x0 DUP1 PUSH1 0x40 DUP4 DUP6 SUB SLT ISZERO PUSH2 0x1B5B JUMPI PUSH1 0x0 DUP1 REVERT JUMPDEST DUP3 CALLDATALOAD PUSH2 0x1B66 DUP2 PUSH2 0x1934 JUMP JUMPDEST SWAP5 PUSH1 0x20 SWAP4 SWAP1 SWAP4 ADD CALLDATALOAD SWAP4 POP POP POP JUMP JUMPDEST PUSH1 0x0 DUP1 PUSH1 0x0 PUSH1 0x60 DUP5 DUP7 SUB SLT ISZERO PUSH2 0x1B89 JUMPI PUSH1 0x0 DUP1 REVERT JUMPDEST DUP4 CALLDATALOAD PUSH2 0x1B94 DUP2 PUSH2 0x1934 JUMP JUMPDEST SWAP3 POP PUSH1 0x20 DUP5 ADD CALLDATALOAD PUSH2 0x1BA4 DUP2 PUSH2 0x1934 JUMP JUMPDEST SWAP3 SWAP6 SWAP3 SWAP5 POP POP POP PUSH1 0x40 SWAP2 SWAP1 SWAP2 ADD CALLDATALOAD SWAP1 JUMP JUMPDEST PUSH1 0x0 DUP1 PUSH1 0x20 DUP4 DUP6 SUB SLT ISZERO PUSH2 0x1BC8 JUMPI PUSH1 0x0 DUP1 REVERT JUMPDEST DUP3 CALLDATALOAD PUSH8 0xFFFFFFFFFFFFFFFF DUP1 DUP3 GT ISZERO PUSH2 0x1BE0 JUMPI PUSH1 0x0 DUP1 REVERT JUMPDEST DUP2 DUP6 ADD SWAP2 POP DUP6 PUSH1 0x1F DUP4 ADD SLT PUSH2 0x1BF4 JUMPI PUSH1 0x0 DUP1 REVERT JUMPDEST DUP2 CALLDATALOAD DUP2 DUP2 GT ISZERO PUSH2 0x1C03 JUMPI PUSH1 0x0 DUP1 REVERT JUMPDEST DUP7 PUSH1 0x20 DUP3 DUP6 ADD ADD GT ISZERO PUSH2 0x1C15 JUMPI PUSH1 0x0 DUP1 REVERT JUMPDEST PUSH1 0x20 SWAP3 SWAP1 SWAP3 ADD SWAP7 SWAP2 SWAP6 POP SWAP1 SWAP4 POP POP POP POP JUMP JUMPDEST PUSH1 0x0 DUP1 PUSH1 0x0 DUP1 PUSH1 0x60 DUP6 DUP8 SUB SLT ISZERO PUSH2 0x1C3D JUMPI PUSH1 0x0 DUP1 REVERT JUMPDEST DUP5 CALLDATALOAD PUSH8 0xFFFFFFFFFFFFFFFF DUP1 DUP3 GT ISZERO PUSH2 0x1C55 JUMPI PUSH1 0x0 DUP1 REVERT JUMPDEST DUP2 DUP8 ADD SWAP2 POP DUP8 PUSH1 0x1F DUP4 ADD SLT PUSH2 0x1C69 JUMPI PUSH1 0x0 DUP1 REVERT JUMPDEST DUP2 CALLDATALOAD DUP2 DUP2 GT ISZERO PUSH2 0x1C78 JUMPI PUSH1 0x0 DUP1 REVERT JUMPDEST DUP9 PUSH1 0x20 DUP3 PUSH1 0x5 SHL DUP6 ADD ADD GT ISZERO PUSH2 0x1C8D JUMPI PUSH1 0x0 DUP1 REVERT JUMPDEST PUSH1 0x20 SWAP3 DUP4 ADD SWAP10 SWAP1 SWAP9 POP SWAP2 DUP8 ADD CALLDATALOAD SWAP7 PUSH1 0x40 ADD CALLDATALOAD SWAP6 POP SWAP1 SWAP4 POP POP POP POP JUMP JUMPDEST PUSH1 0x0 PUSH1 0x20 DUP3 DUP5 SUB SLT ISZERO PUSH2 0x1CBB JUMPI PUSH1 0x0 DUP1 REVERT JUMPDEST POP MLOAD SWAP2 SWAP1 POP JUMP JUMPDEST PUSH1 0x20 DUP1 DUP3 MSTORE DUP2 DUP2 ADD MSTORE PUSH32 0x4F776E61626C653A2063616C6C6572206973206E6F7420746865206F776E6572 PUSH1 0x40 DUP3 ADD MSTORE PUSH1 0x60 ADD SWAP1 JUMP JUMPDEST PUSH1 0x0 PUSH1 0x20 DUP3 DUP5 SUB SLT ISZERO PUSH2 0x1D09 JUMPI PUSH1 0x0 DUP1 REVERT JUMPDEST DUP2 MLOAD DUP1 ISZERO ISZERO DUP2 EQ PUSH2 0x1966 JUMPI PUSH1 0x0 DUP1 REVERT JUMPDEST PUSH1 0x0 PUSH1 0x20 DUP3 DUP5 SUB SLT ISZERO PUSH2 0x1D2B JUMPI PUSH1 0x0 DUP1 REVERT JUMPDEST DUP2 MLOAD PUSH2 0x1966 DUP2 PUSH2 0x1934 JUMP JUMPDEST PUSH4 0x4E487B71 PUSH1 0xE0 SHL PUSH1 0x0 MSTORE PUSH1 0x11 PUSH1 0x4 MSTORE PUSH1 0x24 PUSH1 0x0 REVERT JUMPDEST PUSH1 0x0 DUP3 NOT DUP3 GT ISZERO PUSH2 0x1D5F JUMPI PUSH2 0x1D5F PUSH2 0x1D36 JUMP JUMPDEST POP ADD SWAP1 JUMP JUMPDEST PUSH4 0x4E487B71 PUSH1 0xE0 SHL PUSH1 0x0 MSTORE PUSH1 0x32 PUSH1 0x4 MSTORE PUSH1 0x24 PUSH1 0x0 REVERT JUMPDEST PUSH1 0x0 PUSH1 0x1 DUP3 ADD PUSH2 0x1D8C JUMPI PUSH2 0x1D8C PUSH2 0x1D36 JUMP JUMPDEST POP PUSH1 0x1 ADD SWAP1 JUMP INVALID LOG2 PUSH5 0x6970667358 0x22 SLT KECCAK256 PUSH9 0x18E59282E4A16D5D14 PUSH25 0x4E075D3C8DD60CD412976FC22011751158CFCD0DE164736F6C PUSH4 0x4300080F STOP CALLER 0x4F PUSH24 0x6E61626C653A2063616C6C6572206973206E6F7420746865 KECCAK256 PUSH16 0x776E6572000000000000000000000000 "
				},
				"gasEstimates": {
					"creation": {
						"codeDepositCost": "1525000",
						"executionCost": "infinite",
						"totalCost": "infinite"
					},
					"external": {
						"DEFAULT()": "231",
						"NAGA_HOLDER_MINT_ROUND()": "297",
						"WHITELIST_MINT_ROUND()": "295",
						"WITHDRAW_ROLE()": "295",
						"allowlistMint(bytes32[],uint256,bytes32)": "infinite",
						"currentMintRound()": "2329",
						"getEthSignedMessageHash(bytes32)": "511",
						"getMaxSupply()": "infinite",
						"getMessageHash(address)": "604",
						"getTotalSupply()": "infinite",
						"isPrivateMintOpen()": "2366",
						"isPublicMintOpen()": "2356",
						"isPublicMinted(address)": "2610",
						"isUserMinted(address,bytes32)": "2752",
						"merkleRoot()": "2330",
						"nagaKidContract()": "2426",
						"owner()": "2398",
						"publicMint(bytes)": "infinite",
						"recoverSigner(bytes32,bytes)": "infinite",
						"renounceOwnership()": "28182",
						"setMerkleRoot(bytes32)": "28016",
						"setNagaKidContract(address)": "28186",
						"setRound(bytes32)": "28014",
						"setSigner(address)": "28127",
						"signer()": "2439",
						"splitSignature(bytes)": "infinite",
						"transferOwnership(address)": "infinite",
						"userMintedAmount(address,bytes32)": "2709",
						"verify(address,address,bytes)": "infinite",
						"withdraw(address)": "infinite",
						"withdrawCurrency(address,address)": "infinite",
						"withdrawNFT(address,address,uint256)": "infinite"
					}
				},
				"methodIdentifiers": {
					"DEFAULT()": "0a25dea9",
					"NAGA_HOLDER_MINT_ROUND()": "24c37a85",
					"WHITELIST_MINT_ROUND()": "f500cdfc",
					"WITHDRAW_ROLE()": "e02023a1",
					"allowlistMint(bytes32[],uint256,bytes32)": "f6b48e55",
					"currentMintRound()": "ef5fe79f",
					"getEthSignedMessageHash(bytes32)": "fa540801",
					"getMaxSupply()": "4c0f38c2",
					"getMessageHash(address)": "1f5ac1b2",
					"getTotalSupply()": "c4e41b22",
					"isPrivateMintOpen()": "8907f3fa",
					"isPublicMintOpen()": "a4435dfd",
					"isPublicMinted(address)": "f055c7a9",
					"isUserMinted(address,bytes32)": "ffdc6129",
					"merkleRoot()": "2eb4a7ab",
					"nagaKidContract()": "df4e5881",
					"owner()": "8da5cb5b",
					"publicMint(bytes)": "de6892c8",
					"recoverSigner(bytes32,bytes)": "97aba7f9",
					"renounceOwnership()": "715018a6",
					"setMerkleRoot(bytes32)": "7cb64759",
					"setNagaKidContract(address)": "9e6c8855",
					"setRound(bytes32)": "ff05fe4a",
					"setSigner(address)": "6c19e783",
					"signer()": "238ac933",
					"splitSignature(bytes)": "a7bb5803",
					"transferOwnership(address)": "f2fde38b",
					"userMintedAmount(address,bytes32)": "b5abafa1",
					"verify(address,address,bytes)": "42920a46",
					"withdraw(address)": "51cff8d9",
					"withdrawCurrency(address,address)": "8407ecc4",
					"withdrawNFT(address,address,uint256)": "bff863ec"
				}
			},
			"storageLayout": {
				"storage": [
					{
						"astId": 7,
						"contract": "ERC721A/MintNagaKids.sol:MintNagaKids",
						"label": "_owner",
						"offset": 0,
						"slot": "0",
						"type": "t_address"
					},
					{
						"astId": 115,
						"contract": "ERC721A/MintNagaKids.sol:MintNagaKids",
						"label": "_status",
						"offset": 0,
						"slot": "1",
						"type": "t_uint256"
					},
					{
						"astId": 530,
						"contract": "ERC721A/MintNagaKids.sol:MintNagaKids",
						"label": "nagaKidContract",
						"offset": 0,
						"slot": "2",
						"type": "t_contract(INagaKid)494"
					},
					{
						"astId": 532,
						"contract": "ERC721A/MintNagaKids.sol:MintNagaKids",
						"label": "currentMintRound",
						"offset": 0,
						"slot": "3",
						"type": "t_bytes32"
					},
					{
						"astId": 534,
						"contract": "ERC721A/MintNagaKids.sol:MintNagaKids",
						"label": "merkleRoot",
						"offset": 0,
						"slot": "4",
						"type": "t_bytes32"
					},
					{
						"astId": 537,
						"contract": "ERC721A/MintNagaKids.sol:MintNagaKids",
						"label": "isPublicMintOpen",
						"offset": 0,
						"slot": "5",
						"type": "t_bool"
					},
					{
						"astId": 540,
						"contract": "ERC721A/MintNagaKids.sol:MintNagaKids",
						"label": "isPrivateMintOpen",
						"offset": 1,
						"slot": "5",
						"type": "t_bool"
					},
					{
						"astId": 542,
						"contract": "ERC721A/MintNagaKids.sol:MintNagaKids",
						"label": "signer",
						"offset": 2,
						"slot": "5",
						"type": "t_address"
					},
					{
						"astId": 548,
						"contract": "ERC721A/MintNagaKids.sol:MintNagaKids",
						"label": "_isUserMinted",
						"offset": 0,
						"slot": "6",
						"type": "t_mapping(t_address,t_mapping(t_bytes32,t_bool))"
					},
					{
						"astId": 554,
						"contract": "ERC721A/MintNagaKids.sol:MintNagaKids",
						"label": "_userMintedAmount",
						"offset": 0,
						"slot": "7",
						"type": "t_mapping(t_address,t_mapping(t_bytes32,t_uint256))"
					},
					{
						"astId": 558,
						"contract": "ERC721A/MintNagaKids.sol:MintNagaKids",
						"label": "_isPublicMinted",
						"offset": 0,
						"slot": "8",
						"type": "t_mapping(t_address,t_bool)"
					}
				],
				"types": {
					"t_address": {
						"encoding": "inplace",
						"label": "address",
						"numberOfBytes": "20"
					},
					"t_bool": {
						"encoding": "inplace",
						"label": "bool",
						"numberOfBytes": "1"
					},
					"t_bytes32": {
						"encoding": "inplace",
						"label": "bytes32",
						"numberOfBytes": "32"
					},
					"t_contract(INagaKid)494": {
						"encoding": "inplace",
						"label": "contract INagaKid",
						"numberOfBytes": "20"
					},
					"t_mapping(t_address,t_bool)": {
						"encoding": "mapping",
						"key": "t_address",
						"label": "mapping(address => bool)",
						"numberOfBytes": "32",
						"value": "t_bool"
					},
					"t_mapping(t_address,t_mapping(t_bytes32,t_bool))": {
						"encoding": "mapping",
						"key": "t_address",
						"label": "mapping(address => mapping(bytes32 => bool))",
						"numberOfBytes": "32",
						"value": "t_mapping(t_bytes32,t_bool)"
					},
					"t_mapping(t_address,t_mapping(t_bytes32,t_uint256))": {
						"encoding": "mapping",
						"key": "t_address",
						"label": "mapping(address => mapping(bytes32 => uint256))",
						"numberOfBytes": "32",
						"value": "t_mapping(t_bytes32,t_uint256)"
					},
					"t_mapping(t_bytes32,t_bool)": {
						"encoding": "mapping",
						"key": "t_bytes32",
						"label": "mapping(bytes32 => bool)",
						"numberOfBytes": "32",
						"value": "t_bool"
					},
					"t_mapping(t_bytes32,t_uint256)": {
						"encoding": "mapping",
						"key": "t_bytes32",
						"label": "mapping(bytes32 => uint256)",
						"numberOfBytes": "32",
						"value": "t_uint256"
					},
					"t_uint256": {
						"encoding": "inplace",
						"label": "uint256",
						"numberOfBytes": "32"
					}
				}
			},
			"userdoc": {
				"kind": "user",
				"methods": {},
				"version": 1
			}
		}
	}
}