{
	"data": {
		"bytecode": {
			"linkReferences": {},
			"object": "60806040523480156200001157600080fd5b50604051620015fe380380620015fe8339810160408190526200003491620001f4565b6200003f3362000061565b600180556200004e82620000b1565b620000598162000164565b505062000230565b600080546001600160a01b038381166001600160a01b0319831681178455604051919092169283917f8be0079c531659141344cd1fd0a4f28419497f9722a3daafe3b4186f6b6457e09190a35050565b6000546001600160a01b03163314620001005760405162461bcd60e51b81526020600482018190526024820152600080516020620015de83398151915260448201526064015b60405180910390fd5b600280546001600160a01b038381166001600160a01b0319831681179093556040805191909216808252602082019390935283917fabdf056c85a221fcb31d0366c4475b6b2c613df2eeea951a9fcb3e1a8595d973910160405180910390a1505050565b6000546001600160a01b03163314620001af5760405162461bcd60e51b81526020600482018190526024820152600080516020620015de8339815191526044820152606401620000f7565b600480549082905560408051828152602081018490527f123d88ba82600dfc3f219f8885c691b0ff020caa535666874b3f5174973757fe910160405180910390a15050565b600080604083850312156200020857600080fd5b82516001600160a01b03811681146200022057600080fd5b6020939093015192949293505050565b61139e80620002406000396000f3fe6080604052600436106101355760003560e01c80639f930765116100ab578063e02023a11161006f578063e02023a114610369578063ef5fe79f1461039d578063f2fde38b146103b3578063f500cdfc146103d3578063ff05fe4a14610407578063ffdc61291461042757600080fd5b80639f930765146102be578063b5abafa1146102d1578063bff863ec14610314578063c4e41b2214610334578063df4e58811461034957600080fd5b80635b94bbc3116100fd5780635b94bbc3146101e3578063715018a6146102175780637cb647591461022c5780638407ecc41461024c5780638da5cb5b1461026c5780639e6c88551461029e57600080fd5b80630a25dea91461013a57806324c37a85146101625780632eb4a7ab146101965780634c0f38c2146101ac57806351cff8d9146101c1575b600080fd5b34801561014657600080fd5b5061014f600081565b6040519081526020015b60405180910390f35b34801561016e57600080fd5b5061014f7fb3c595e55271590809f54e2f4fc3a582754f45b104dd3c41666e2ad310493db381565b3480156101a257600080fd5b5061014f60045481565b3480156101b857600080fd5b5061014f61047d565b3480156101cd57600080fd5b506101e16101dc366004611119565b6104f0565b005b3480156101ef57600080fd5b5061014f7f5c8c0ce107274ad0569bd760c3d2406c1ed72c697935f3f965bd096c5cdedee481565b34801561022357600080fd5b506101e161061a565b34801561023857600080fd5b506101e161024736600461113d565b610650565b34801561025857600080fd5b506101e1610267366004611156565b6106c0565b34801561027857600080fd5b506000546001600160a01b03165b6040516001600160a01b039091168152602001610159565b3480156102aa57600080fd5b506101e16102b9366004611119565b610860565b6101e16102cc36600461118f565b6108e6565b3480156102dd57600080fd5b5061014f6102ec366004611211565b6001600160a01b03919091166000908152600660209081526040808320938352929052205490565b34801561032057600080fd5b506101e161032f36600461123d565b610d2d565b34801561034057600080fd5b5061014f610edd565b34801561035557600080fd5b50600254610286906001600160a01b031681565b34801561037557600080fd5b5061014f7f5d8e12c39142ff96d79d04d15d1ba1269e4fe57bb9d26f43523628b34ba108ec81565b3480156103a957600080fd5b5061014f60035481565b3480156103bf57600080fd5b506101e16103ce366004611119565b610f27565b3480156103df57600080fd5b5061014f7f68e7d51fdb912cb107dda2e59b053d87fcca666dd0ef5339cd3474ccb5276bba81565b34801561041357600080fd5b506101e161042236600461113d565b610fc2565b34801561043357600080fd5b5061046d610442366004611211565b6001600160a01b03919091166000908152600560209081526040808320938352929052205460ff1690565b6040519015158152602001610159565b6002546040805163d5abeb0160e01b815290516000926001600160a01b03169163d5abeb019160048083019260209291908290030181865afa1580156104c7573d6000803e3d6000fd5b505050506040513d601f19601f820116820180604052508101906104eb919061127e565b905090565b6000546001600160a01b031633146105235760405162461bcd60e51b815260040161051a90611297565b60405180910390fd5b47806105685760405162461bcd60e51b8152602060048201526014602482015273496e73756666696369656e742042616c616e636560601b604482015260640161051a565b6000826001600160a01b03168260405160006040518083038185875af1925050503d80600081146105b5576040519150601f19603f3d011682016040523d82523d6000602084013e6105ba565b606091505b50509050806105c857600080fd5b604080516001600160a01b03851681526020810184905242918101919091527ff279e6a1f5e320cca91135676d9cb6e44ca8a08c0b88342bcdb1144f6511b568906060015b60405180910390a1505050565b6000546001600160a01b031633146106445760405162461bcd60e51b815260040161051a90611297565b61064e600061102a565b565b6000546001600160a01b0316331461067a5760405162461bcd60e51b815260040161051a90611297565b600480549082905560408051828152602081018490527f123d88ba82600dfc3f219f8885c691b0ff020caa535666874b3f5174973757fe91015b60405180910390a15050565b6000546001600160a01b031633146106ea5760405162461bcd60e51b815260040161051a90611297565b6040516370a0823160e01b81523060048201526000906001600160a01b038316906370a0823190602401602060405180830381865afa158015610731573d6000803e3d6000fd5b505050506040513d601f19601f82011682018060405250810190610755919061127e565b90506000811161079e5760405162461bcd60e51b8152602060048201526014602482015273496e73756666696369656e742042616c616e636560601b604482015260640161051a565b60405163a9059cbb60e01b81526001600160a01b0384811660048301526024820183905283169063a9059cbb906044016020604051808303816000875af11580156107ed573d6000803e3d6000fd5b505050506040513d601f19601f8201168201806040525081019061081191906112cc565b50604080516001600160a01b038086168252841660208201529081018290524260608201527fb818a975f91276df8ba59329becbc23c793df0d503c19ac296c3c372a1fa04619060800161060d565b6000546001600160a01b0316331461088a5760405162461bcd60e51b815260040161051a90611297565b600280546001600160a01b038381166001600160a01b0319831681179093556040805191909216808252602082019390935283917fabdf056c85a221fcb31d0366c4475b6b2c613df2eeea951a9fcb3e1a8595d973910161060d565b6002600154036109385760405162461bcd60e51b815260206004820152601f60248201527f5265656e7472616e637947756172643a207265656e7472616e742063616c6c00604482015260640161051a565b6002600155806109825760405162461bcd60e51b815260206004820152601560248201527426b4b73a1034b9903737ba1030b8383937bb32b21760591b604482015260640161051a565b80600354146109e35760405162461bcd60e51b815260206004820152602760248201527f436f6e747261637420617265206e6f7420696e2074686973206d696e74696e67604482015266103937bab7321760c91b606482015260840161051a565b6109eb61047d565b826109f4610edd565b6109fe9190611304565b10610a395760405162461bcd60e51b815260206004820152600b60248201526a4f76657220737570706c7960a81b604482015260640161051a565b33600090815260056020908152604080832084845290915290205460ff1615610aa45760405162461bcd60e51b815260206004820152601760248201527f596f752061726520616c7265616479206d696e7465642e000000000000000000604482015260640161051a565b6002546040516355138f0d60e11b81523060048201526001600160a01b039091169063aa271e1a90602401602060405180830381865afa158015610aec573d6000803e3d6000fd5b505050506040513d601f19601f82011682018060405250810190610b1091906112cc565b610b5c5760405162461bcd60e51b815260206004820152601e60248201527f436f6e7472616374204d696e74206973206e6f7420617070726f7665642e0000604482015260640161051a565b610bdf848480806020026020016040519081016040528093929190818152602001838360200280828437600092019190915250506004546040516bffffffffffffffffffffffff193360601b166020820152603481018890526054810187905290925060740190506040516020818303038152906040528051906020012061107a565b610c395760405162461bcd60e51b815260206004820152602560248201527f556e617574686f72697a65642057686974656c6973744d696e742054686973206044820152642ab9b2b91760d91b606482015260840161051a565b3360008181526005602090815260408083208584528252808320805460ff191660011790559282526006815282822084835290529081208054849290610c80908490611304565b90915550506002546040516343508b0560e01b8152336004820152602481018490526001600160a01b03909116906343508b0590604401600060405180830381600087803b158015610cd157600080fd5b505af1158015610ce5573d6000803e3d6000fd5b5050604080518581524260208201523393507f25b428dfde728ccfaddad7e29e4ac23c24ed7fd1a6e3e3f91894a9a073f5dfff92500160405180910390a25050600180555050565b6000546001600160a01b03163314610d575760405162461bcd60e51b815260040161051a90611297565b6040516331a9108f60e11b81526004810182905230906001600160a01b03841690636352211e90602401602060405180830381865afa158015610d9e573d6000803e3d6000fd5b505050506040513d601f19601f82011682018060405250810190610dc2919061131c565b6001600160a01b031614610e265760405162461bcd60e51b815260206004820152602560248201527f5468697320746f6b656e4964206973206e6f74206f776e656420627920636f6e6044820152641d1c9858dd60da1b606482015260840161051a565b604051632142170760e11b81523060048201526001600160a01b038481166024830152604482018390528316906342842e0e90606401600060405180830381600087803b158015610e7657600080fd5b505af1158015610e8a573d6000803e3d6000fd5b5050604080516001600160a01b038088168252861660208201529081018490524260608201527f0127a8d3f57942833f6930572bce52ad882683e36eeb5830d199d3fa4bfa94679250608001905061060d565b600254604080516318160ddd60e01b815290516000926001600160a01b0316916318160ddd9160048083019260209291908290030181865afa1580156104c7573d6000803e3d6000fd5b6000546001600160a01b03163314610f515760405162461bcd60e51b815260040161051a90611297565b6001600160a01b038116610fb65760405162461bcd60e51b815260206004820152602660248201527f4f776e61626c653a206e6577206f776e657220697320746865207a65726f206160448201526564647265737360d01b606482015260840161051a565b610fbf8161102a565b50565b6000546001600160a01b03163314610fec5760405162461bcd60e51b815260040161051a90611297565b600380549082905560408051828152602081018490527f521ec96875ca228cd2fc1dbd4c927a34328c9ce1a83bcb8c1f633f012c90d78591016106b4565b600080546001600160a01b038381166001600160a01b0319831681178455604051919092169283917f8be0079c531659141344cd1fd0a4f28419497f9722a3daafe3b4186f6b6457e09190a35050565b6000826110878584611090565b14949350505050565b600081815b84518110156110fc5760008582815181106110b2576110b2611339565b602002602001015190508083116110d857600083815260208290526040902092506110e9565b600081815260208490526040902092505b50806110f48161134f565b915050611095565b509392505050565b6001600160a01b0381168114610fbf57600080fd5b60006020828403121561112b57600080fd5b813561113681611104565b9392505050565b60006020828403121561114f57600080fd5b5035919050565b6000806040838503121561116957600080fd5b823561117481611104565b9150602083013561118481611104565b809150509250929050565b600080600080606085870312156111a557600080fd5b843567ffffffffffffffff808211156111bd57600080fd5b818701915087601f8301126111d157600080fd5b8135818111156111e057600080fd5b8860208260051b85010111156111f557600080fd5b6020928301999098509187013596604001359550909350505050565b6000806040838503121561122457600080fd5b823561122f81611104565b946020939093013593505050565b60008060006060848603121561125257600080fd5b833561125d81611104565b9250602084013561126d81611104565b929592945050506040919091013590565b60006020828403121561129057600080fd5b5051919050565b6020808252818101527f4f776e61626c653a2063616c6c6572206973206e6f7420746865206f776e6572604082015260600190565b6000602082840312156112de57600080fd5b8151801515811461113657600080fd5b634e487b7160e01b600052601160045260246000fd5b60008219821115611317576113176112ee565b500190565b60006020828403121561132e57600080fd5b815161113681611104565b634e487b7160e01b600052603260045260246000fd5b600060018201611361576113616112ee565b506001019056fea26469706673582212205bf45be02ae9fa1dea720bbc524fcba92d7be63b0bcb95d6babacb4fffa53db764736f6c634300080f00334f776e61626c653a2063616c6c6572206973206e6f7420746865206f776e6572",
			"opcodes": "PUSH1 0x80 PUSH1 0x40 MSTORE CALLVALUE DUP1 ISZERO PUSH3 0x11 JUMPI PUSH1 0x0 DUP1 REVERT JUMPDEST POP PUSH1 0x40 MLOAD PUSH3 0x15FE CODESIZE SUB DUP1 PUSH3 0x15FE DUP4 CODECOPY DUP2 ADD PUSH1 0x40 DUP2 SWAP1 MSTORE PUSH3 0x34 SWAP2 PUSH3 0x1F4 JUMP JUMPDEST PUSH3 0x3F CALLER PUSH3 0x61 JUMP JUMPDEST PUSH1 0x1 DUP1 SSTORE PUSH3 0x4E DUP3 PUSH3 0xB1 JUMP JUMPDEST PUSH3 0x59 DUP2 PUSH3 0x164 JUMP JUMPDEST POP POP PUSH3 0x230 JUMP JUMPDEST PUSH1 0x0 DUP1 SLOAD PUSH1 0x1 PUSH1 0x1 PUSH1 0xA0 SHL SUB DUP4 DUP2 AND PUSH1 0x1 PUSH1 0x1 PUSH1 0xA0 SHL SUB NOT DUP4 AND DUP2 OR DUP5 SSTORE PUSH1 0x40 MLOAD SWAP2 SWAP1 SWAP3 AND SWAP3 DUP4 SWAP2 PUSH32 0x8BE0079C531659141344CD1FD0A4F28419497F9722A3DAAFE3B4186F6B6457E0 SWAP2 SWAP1 LOG3 POP POP JUMP JUMPDEST PUSH1 0x0 SLOAD PUSH1 0x1 PUSH1 0x1 PUSH1 0xA0 SHL SUB AND CALLER EQ PUSH3 0x100 JUMPI PUSH1 0x40 MLOAD PUSH3 0x461BCD PUSH1 0xE5 SHL DUP2 MSTORE PUSH1 0x20 PUSH1 0x4 DUP3 ADD DUP2 SWAP1 MSTORE PUSH1 0x24 DUP3 ADD MSTORE PUSH1 0x0 DUP1 MLOAD PUSH1 0x20 PUSH3 0x15DE DUP4 CODECOPY DUP2 MLOAD SWAP2 MSTORE PUSH1 0x44 DUP3 ADD MSTORE PUSH1 0x64 ADD JUMPDEST PUSH1 0x40 MLOAD DUP1 SWAP2 SUB SWAP1 REVERT JUMPDEST PUSH1 0x2 DUP1 SLOAD PUSH1 0x1 PUSH1 0x1 PUSH1 0xA0 SHL SUB DUP4 DUP2 AND PUSH1 0x1 PUSH1 0x1 PUSH1 0xA0 SHL SUB NOT DUP4 AND DUP2 OR SWAP1 SWAP4 SSTORE PUSH1 0x40 DUP1 MLOAD SWAP2 SWAP1 SWAP3 AND DUP1 DUP3 MSTORE PUSH1 0x20 DUP3 ADD SWAP4 SWAP1 SWAP4 MSTORE DUP4 SWAP2 PUSH32 0xABDF056C85A221FCB31D0366C4475B6B2C613DF2EEEA951A9FCB3E1A8595D973 SWAP2 ADD PUSH1 0x40 MLOAD DUP1 SWAP2 SUB SWAP1 LOG1 POP POP POP JUMP JUMPDEST PUSH1 0x0 SLOAD PUSH1 0x1 PUSH1 0x1 PUSH1 0xA0 SHL SUB AND CALLER EQ PUSH3 0x1AF JUMPI PUSH1 0x40 MLOAD PUSH3 0x461BCD PUSH1 0xE5 SHL DUP2 MSTORE PUSH1 0x20 PUSH1 0x4 DUP3 ADD DUP2 SWAP1 MSTORE PUSH1 0x24 DUP3 ADD MSTORE PUSH1 0x0 DUP1 MLOAD PUSH1 0x20 PUSH3 0x15DE DUP4 CODECOPY DUP2 MLOAD SWAP2 MSTORE PUSH1 0x44 DUP3 ADD MSTORE PUSH1 0x64 ADD PUSH3 0xF7 JUMP JUMPDEST PUSH1 0x4 DUP1 SLOAD SWAP1 DUP3 SWAP1 SSTORE PUSH1 0x40 DUP1 MLOAD DUP3 DUP2 MSTORE PUSH1 0x20 DUP2 ADD DUP5 SWAP1 MSTORE PUSH32 0x123D88BA82600DFC3F219F8885C691B0FF020CAA535666874B3F5174973757FE SWAP2 ADD PUSH1 0x40 MLOAD DUP1 SWAP2 SUB SWAP1 LOG1 POP POP JUMP JUMPDEST PUSH1 0x0 DUP1 PUSH1 0x40 DUP4 DUP6 SUB SLT ISZERO PUSH3 0x208 JUMPI PUSH1 0x0 DUP1 REVERT JUMPDEST DUP3 MLOAD PUSH1 0x1 PUSH1 0x1 PUSH1 0xA0 SHL SUB DUP2 AND DUP2 EQ PUSH3 0x220 JUMPI PUSH1 0x0 DUP1 REVERT JUMPDEST PUSH1 0x20 SWAP4 SWAP1 SWAP4 ADD MLOAD SWAP3 SWAP5 SWAP3 SWAP4 POP POP POP JUMP JUMPDEST PUSH2 0x139E DUP1 PUSH3 0x240 PUSH1 0x0 CODECOPY PUSH1 0x0 RETURN INVALID PUSH1 0x80 PUSH1 0x40 MSTORE PUSH1 0x4 CALLDATASIZE LT PUSH2 0x135 JUMPI PUSH1 0x0 CALLDATALOAD PUSH1 0xE0 SHR DUP1 PUSH4 0x9F930765 GT PUSH2 0xAB JUMPI DUP1 PUSH4 0xE02023A1 GT PUSH2 0x6F JUMPI DUP1 PUSH4 0xE02023A1 EQ PUSH2 0x369 JUMPI DUP1 PUSH4 0xEF5FE79F EQ PUSH2 0x39D JUMPI DUP1 PUSH4 0xF2FDE38B EQ PUSH2 0x3B3 JUMPI DUP1 PUSH4 0xF500CDFC EQ PUSH2 0x3D3 JUMPI DUP1 PUSH4 0xFF05FE4A EQ PUSH2 0x407 JUMPI DUP1 PUSH4 0xFFDC6129 EQ PUSH2 0x427 JUMPI PUSH1 0x0 DUP1 REVERT JUMPDEST DUP1 PUSH4 0x9F930765 EQ PUSH2 0x2BE JUMPI DUP1 PUSH4 0xB5ABAFA1 EQ PUSH2 0x2D1 JUMPI DUP1 PUSH4 0xBFF863EC EQ PUSH2 0x314 JUMPI DUP1 PUSH4 0xC4E41B22 EQ PUSH2 0x334 JUMPI DUP1 PUSH4 0xDF4E5881 EQ PUSH2 0x349 JUMPI PUSH1 0x0 DUP1 REVERT JUMPDEST DUP1 PUSH4 0x5B94BBC3 GT PUSH2 0xFD JUMPI DUP1 PUSH4 0x5B94BBC3 EQ PUSH2 0x1E3 JUMPI DUP1 PUSH4 0x715018A6 EQ PUSH2 0x217 JUMPI DUP1 PUSH4 0x7CB64759 EQ PUSH2 0x22C JUMPI DUP1 PUSH4 0x8407ECC4 EQ PUSH2 0x24C JUMPI DUP1 PUSH4 0x8DA5CB5B EQ PUSH2 0x26C JUMPI DUP1 PUSH4 0x9E6C8855 EQ PUSH2 0x29E JUMPI PUSH1 0x0 DUP1 REVERT JUMPDEST DUP1 PUSH4 0xA25DEA9 EQ PUSH2 0x13A JUMPI DUP1 PUSH4 0x24C37A85 EQ PUSH2 0x162 JUMPI DUP1 PUSH4 0x2EB4A7AB EQ PUSH2 0x196 JUMPI DUP1 PUSH4 0x4C0F38C2 EQ PUSH2 0x1AC JUMPI DUP1 PUSH4 0x51CFF8D9 EQ PUSH2 0x1C1 JUMPI JUMPDEST PUSH1 0x0 DUP1 REVERT JUMPDEST CALLVALUE DUP1 ISZERO PUSH2 0x146 JUMPI PUSH1 0x0 DUP1 REVERT JUMPDEST POP PUSH2 0x14F PUSH1 0x0 DUP2 JUMP JUMPDEST PUSH1 0x40 MLOAD SWAP1 DUP2 MSTORE PUSH1 0x20 ADD JUMPDEST PUSH1 0x40 MLOAD DUP1 SWAP2 SUB SWAP1 RETURN JUMPDEST CALLVALUE DUP1 ISZERO PUSH2 0x16E JUMPI PUSH1 0x0 DUP1 REVERT JUMPDEST POP PUSH2 0x14F PUSH32 0xB3C595E55271590809F54E2F4FC3A582754F45B104DD3C41666E2AD310493DB3 DUP2 JUMP JUMPDEST CALLVALUE DUP1 ISZERO PUSH2 0x1A2 JUMPI PUSH1 0x0 DUP1 REVERT JUMPDEST POP PUSH2 0x14F PUSH1 0x4 SLOAD DUP2 JUMP JUMPDEST CALLVALUE DUP1 ISZERO PUSH2 0x1B8 JUMPI PUSH1 0x0 DUP1 REVERT JUMPDEST POP PUSH2 0x14F PUSH2 0x47D JUMP JUMPDEST CALLVALUE DUP1 ISZERO PUSH2 0x1CD JUMPI PUSH1 0x0 DUP1 REVERT JUMPDEST POP PUSH2 0x1E1 PUSH2 0x1DC CALLDATASIZE PUSH1 0x4 PUSH2 0x1119 JUMP JUMPDEST PUSH2 0x4F0 JUMP JUMPDEST STOP JUMPDEST CALLVALUE DUP1 ISZERO PUSH2 0x1EF JUMPI PUSH1 0x0 DUP1 REVERT JUMPDEST POP PUSH2 0x14F PUSH32 0x5C8C0CE107274AD0569BD760C3D2406C1ED72C697935F3F965BD096C5CDEDEE4 DUP2 JUMP JUMPDEST CALLVALUE DUP1 ISZERO PUSH2 0x223 JUMPI PUSH1 0x0 DUP1 REVERT JUMPDEST POP PUSH2 0x1E1 PUSH2 0x61A JUMP JUMPDEST CALLVALUE DUP1 ISZERO PUSH2 0x238 JUMPI PUSH1 0x0 DUP1 REVERT JUMPDEST POP PUSH2 0x1E1 PUSH2 0x247 CALLDATASIZE PUSH1 0x4 PUSH2 0x113D JUMP JUMPDEST PUSH2 0x650 JUMP JUMPDEST CALLVALUE DUP1 ISZERO PUSH2 0x258 JUMPI PUSH1 0x0 DUP1 REVERT JUMPDEST POP PUSH2 0x1E1 PUSH2 0x267 CALLDATASIZE PUSH1 0x4 PUSH2 0x1156 JUMP JUMPDEST PUSH2 0x6C0 JUMP JUMPDEST CALLVALUE DUP1 ISZERO PUSH2 0x278 JUMPI PUSH1 0x0 DUP1 REVERT JUMPDEST POP PUSH1 0x0 SLOAD PUSH1 0x1 PUSH1 0x1 PUSH1 0xA0 SHL SUB AND JUMPDEST PUSH1 0x40 MLOAD PUSH1 0x1 PUSH1 0x1 PUSH1 0xA0 SHL SUB SWAP1 SWAP2 AND DUP2 MSTORE PUSH1 0x20 ADD PUSH2 0x159 JUMP JUMPDEST CALLVALUE DUP1 ISZERO PUSH2 0x2AA JUMPI PUSH1 0x0 DUP1 REVERT JUMPDEST POP PUSH2 0x1E1 PUSH2 0x2B9 CALLDATASIZE PUSH1 0x4 PUSH2 0x1119 JUMP JUMPDEST PUSH2 0x860 JUMP JUMPDEST PUSH2 0x1E1 PUSH2 0x2CC CALLDATASIZE PUSH1 0x4 PUSH2 0x118F JUMP JUMPDEST PUSH2 0x8E6 JUMP JUMPDEST CALLVALUE DUP1 ISZERO PUSH2 0x2DD JUMPI PUSH1 0x0 DUP1 REVERT JUMPDEST POP PUSH2 0x14F PUSH2 0x2EC CALLDATASIZE PUSH1 0x4 PUSH2 0x1211 JUMP JUMPDEST PUSH1 0x1 PUSH1 0x1 PUSH1 0xA0 SHL SUB SWAP2 SWAP1 SWAP2 AND PUSH1 0x0 SWAP1 DUP2 MSTORE PUSH1 0x6 PUSH1 0x20 SWAP1 DUP2 MSTORE PUSH1 0x40 DUP1 DUP4 KECCAK256 SWAP4 DUP4 MSTORE SWAP3 SWAP1 MSTORE KECCAK256 SLOAD SWAP1 JUMP JUMPDEST CALLVALUE DUP1 ISZERO PUSH2 0x320 JUMPI PUSH1 0x0 DUP1 REVERT JUMPDEST POP PUSH2 0x1E1 PUSH2 0x32F CALLDATASIZE PUSH1 0x4 PUSH2 0x123D JUMP JUMPDEST PUSH2 0xD2D JUMP JUMPDEST CALLVALUE DUP1 ISZERO PUSH2 0x340 JUMPI PUSH1 0x0 DUP1 REVERT JUMPDEST POP PUSH2 0x14F PUSH2 0xEDD JUMP JUMPDEST CALLVALUE DUP1 ISZERO PUSH2 0x355 JUMPI PUSH1 0x0 DUP1 REVERT JUMPDEST POP PUSH1 0x2 SLOAD PUSH2 0x286 SWAP1 PUSH1 0x1 PUSH1 0x1 PUSH1 0xA0 SHL SUB AND DUP2 JUMP JUMPDEST CALLVALUE DUP1 ISZERO PUSH2 0x375 JUMPI PUSH1 0x0 DUP1 REVERT JUMPDEST POP PUSH2 0x14F PUSH32 0x5D8E12C39142FF96D79D04D15D1BA1269E4FE57BB9D26F43523628B34BA108EC DUP2 JUMP JUMPDEST CALLVALUE DUP1 ISZERO PUSH2 0x3A9 JUMPI PUSH1 0x0 DUP1 REVERT JUMPDEST POP PUSH2 0x14F PUSH1 0x3 SLOAD DUP2 JUMP JUMPDEST CALLVALUE DUP1 ISZERO PUSH2 0x3BF JUMPI PUSH1 0x0 DUP1 REVERT JUMPDEST POP PUSH2 0x1E1 PUSH2 0x3CE CALLDATASIZE PUSH1 0x4 PUSH2 0x1119 JUMP JUMPDEST PUSH2 0xF27 JUMP JUMPDEST CALLVALUE DUP1 ISZERO PUSH2 0x3DF JUMPI PUSH1 0x0 DUP1 REVERT JUMPDEST POP PUSH2 0x14F PUSH32 0x68E7D51FDB912CB107DDA2E59B053D87FCCA666DD0EF5339CD3474CCB5276BBA DUP2 JUMP JUMPDEST CALLVALUE DUP1 ISZERO PUSH2 0x413 JUMPI PUSH1 0x0 DUP1 REVERT JUMPDEST POP PUSH2 0x1E1 PUSH2 0x422 CALLDATASIZE PUSH1 0x4 PUSH2 0x113D JUMP JUMPDEST PUSH2 0xFC2 JUMP JUMPDEST CALLVALUE DUP1 ISZERO PUSH2 0x433 JUMPI PUSH1 0x0 DUP1 REVERT JUMPDEST POP PUSH2 0x46D PUSH2 0x442 CALLDATASIZE PUSH1 0x4 PUSH2 0x1211 JUMP JUMPDEST PUSH1 0x1 PUSH1 0x1 PUSH1 0xA0 SHL SUB SWAP2 SWAP1 SWAP2 AND PUSH1 0x0 SWAP1 DUP2 MSTORE PUSH1 0x5 PUSH1 0x20 SWAP1 DUP2 MSTORE PUSH1 0x40 DUP1 DUP4 KECCAK256 SWAP4 DUP4 MSTORE SWAP3 SWAP1 MSTORE KECCAK256 SLOAD PUSH1 0xFF AND SWAP1 JUMP JUMPDEST PUSH1 0x40 MLOAD SWAP1 ISZERO ISZERO DUP2 MSTORE PUSH1 0x20 ADD PUSH2 0x159 JUMP JUMPDEST PUSH1 0x2 SLOAD PUSH1 0x40 DUP1 MLOAD PUSH4 0xD5ABEB01 PUSH1 0xE0 SHL DUP2 MSTORE SWAP1 MLOAD PUSH1 0x0 SWAP3 PUSH1 0x1 PUSH1 0x1 PUSH1 0xA0 SHL SUB AND SWAP2 PUSH4 0xD5ABEB01 SWAP2 PUSH1 0x4 DUP1 DUP4 ADD SWAP3 PUSH1 0x20 SWAP3 SWAP2 SWAP1 DUP3 SWAP1 SUB ADD DUP2 DUP7 GAS STATICCALL ISZERO DUP1 ISZERO PUSH2 0x4C7 JUMPI RETURNDATASIZE PUSH1 0x0 DUP1 RETURNDATACOPY RETURNDATASIZE PUSH1 0x0 REVERT JUMPDEST POP POP POP POP PUSH1 0x40 MLOAD RETURNDATASIZE PUSH1 0x1F NOT PUSH1 0x1F DUP3 ADD AND DUP3 ADD DUP1 PUSH1 0x40 MSTORE POP DUP2 ADD SWAP1 PUSH2 0x4EB SWAP2 SWAP1 PUSH2 0x127E JUMP JUMPDEST SWAP1 POP SWAP1 JUMP JUMPDEST PUSH1 0x0 SLOAD PUSH1 0x1 PUSH1 0x1 PUSH1 0xA0 SHL SUB AND CALLER EQ PUSH2 0x523 JUMPI PUSH1 0x40 MLOAD PUSH3 0x461BCD PUSH1 0xE5 SHL DUP2 MSTORE PUSH1 0x4 ADD PUSH2 0x51A SWAP1 PUSH2 0x1297 JUMP JUMPDEST PUSH1 0x40 MLOAD DUP1 SWAP2 SUB SWAP1 REVERT JUMPDEST SELFBALANCE DUP1 PUSH2 0x568 JUMPI PUSH1 0x40 MLOAD PUSH3 0x461BCD PUSH1 0xE5 SHL DUP2 MSTORE PUSH1 0x20 PUSH1 0x4 DUP3 ADD MSTORE PUSH1 0x14 PUSH1 0x24 DUP3 ADD MSTORE PUSH20 0x496E73756666696369656E742042616C616E6365 PUSH1 0x60 SHL PUSH1 0x44 DUP3 ADD MSTORE PUSH1 0x64 ADD PUSH2 0x51A JUMP JUMPDEST PUSH1 0x0 DUP3 PUSH1 0x1 PUSH1 0x1 PUSH1 0xA0 SHL SUB AND DUP3 PUSH1 0x40 MLOAD PUSH1 0x0 PUSH1 0x40 MLOAD DUP1 DUP4 SUB DUP2 DUP6 DUP8 GAS CALL SWAP3 POP POP POP RETURNDATASIZE DUP1 PUSH1 0x0 DUP2 EQ PUSH2 0x5B5 JUMPI PUSH1 0x40 MLOAD SWAP2 POP PUSH1 0x1F NOT PUSH1 0x3F RETURNDATASIZE ADD AND DUP3 ADD PUSH1 0x40 MSTORE RETURNDATASIZE DUP3 MSTORE RETURNDATASIZE PUSH1 0x0 PUSH1 0x20 DUP5 ADD RETURNDATACOPY PUSH2 0x5BA JUMP JUMPDEST PUSH1 0x60 SWAP2 POP JUMPDEST POP POP SWAP1 POP DUP1 PUSH2 0x5C8 JUMPI PUSH1 0x0 DUP1 REVERT JUMPDEST PUSH1 0x40 DUP1 MLOAD PUSH1 0x1 PUSH1 0x1 PUSH1 0xA0 SHL SUB DUP6 AND DUP2 MSTORE PUSH1 0x20 DUP2 ADD DUP5 SWAP1 MSTORE TIMESTAMP SWAP2 DUP2 ADD SWAP2 SWAP1 SWAP2 MSTORE PUSH32 0xF279E6A1F5E320CCA91135676D9CB6E44CA8A08C0B88342BCDB1144F6511B568 SWAP1 PUSH1 0x60 ADD JUMPDEST PUSH1 0x40 MLOAD DUP1 SWAP2 SUB SWAP1 LOG1 POP POP POP JUMP JUMPDEST PUSH1 0x0 SLOAD PUSH1 0x1 PUSH1 0x1 PUSH1 0xA0 SHL SUB AND CALLER EQ PUSH2 0x644 JUMPI PUSH1 0x40 MLOAD PUSH3 0x461BCD PUSH1 0xE5 SHL DUP2 MSTORE PUSH1 0x4 ADD PUSH2 0x51A SWAP1 PUSH2 0x1297 JUMP JUMPDEST PUSH2 0x64E PUSH1 0x0 PUSH2 0x102A JUMP JUMPDEST JUMP JUMPDEST PUSH1 0x0 SLOAD PUSH1 0x1 PUSH1 0x1 PUSH1 0xA0 SHL SUB AND CALLER EQ PUSH2 0x67A JUMPI PUSH1 0x40 MLOAD PUSH3 0x461BCD PUSH1 0xE5 SHL DUP2 MSTORE PUSH1 0x4 ADD PUSH2 0x51A SWAP1 PUSH2 0x1297 JUMP JUMPDEST PUSH1 0x4 DUP1 SLOAD SWAP1 DUP3 SWAP1 SSTORE PUSH1 0x40 DUP1 MLOAD DUP3 DUP2 MSTORE PUSH1 0x20 DUP2 ADD DUP5 SWAP1 MSTORE PUSH32 0x123D88BA82600DFC3F219F8885C691B0FF020CAA535666874B3F5174973757FE SWAP2 ADD JUMPDEST PUSH1 0x40 MLOAD DUP1 SWAP2 SUB SWAP1 LOG1 POP POP JUMP JUMPDEST PUSH1 0x0 SLOAD PUSH1 0x1 PUSH1 0x1 PUSH1 0xA0 SHL SUB AND CALLER EQ PUSH2 0x6EA JUMPI PUSH1 0x40 MLOAD PUSH3 0x461BCD PUSH1 0xE5 SHL DUP2 MSTORE PUSH1 0x4 ADD PUSH2 0x51A SWAP1 PUSH2 0x1297 JUMP JUMPDEST PUSH1 0x40 MLOAD PUSH4 0x70A08231 PUSH1 0xE0 SHL DUP2 MSTORE ADDRESS PUSH1 0x4 DUP3 ADD MSTORE PUSH1 0x0 SWAP1 PUSH1 0x1 PUSH1 0x1 PUSH1 0xA0 SHL SUB DUP4 AND SWAP1 PUSH4 0x70A08231 SWAP1 PUSH1 0x24 ADD PUSH1 0x20 PUSH1 0x40 MLOAD DUP1 DUP4 SUB DUP2 DUP7 GAS STATICCALL ISZERO DUP1 ISZERO PUSH2 0x731 JUMPI RETURNDATASIZE PUSH1 0x0 DUP1 RETURNDATACOPY RETURNDATASIZE PUSH1 0x0 REVERT JUMPDEST POP POP POP POP PUSH1 0x40 MLOAD RETURNDATASIZE PUSH1 0x1F NOT PUSH1 0x1F DUP3 ADD AND DUP3 ADD DUP1 PUSH1 0x40 MSTORE POP DUP2 ADD SWAP1 PUSH2 0x755 SWAP2 SWAP1 PUSH2 0x127E JUMP JUMPDEST SWAP1 POP PUSH1 0x0 DUP2 GT PUSH2 0x79E JUMPI PUSH1 0x40 MLOAD PUSH3 0x461BCD PUSH1 0xE5 SHL DUP2 MSTORE PUSH1 0x20 PUSH1 0x4 DUP3 ADD MSTORE PUSH1 0x14 PUSH1 0x24 DUP3 ADD MSTORE PUSH20 0x496E73756666696369656E742042616C616E6365 PUSH1 0x60 SHL PUSH1 0x44 DUP3 ADD MSTORE PUSH1 0x64 ADD PUSH2 0x51A JUMP JUMPDEST PUSH1 0x40 MLOAD PUSH4 0xA9059CBB PUSH1 0xE0 SHL DUP2 MSTORE PUSH1 0x1 PUSH1 0x1 PUSH1 0xA0 SHL SUB DUP5 DUP2 AND PUSH1 0x4 DUP4 ADD MSTORE PUSH1 0x24 DUP3 ADD DUP4 SWAP1 MSTORE DUP4 AND SWAP1 PUSH4 0xA9059CBB SWAP1 PUSH1 0x44 ADD PUSH1 0x20 PUSH1 0x40 MLOAD DUP1 DUP4 SUB DUP2 PUSH1 0x0 DUP8 GAS CALL ISZERO DUP1 ISZERO PUSH2 0x7ED JUMPI RETURNDATASIZE PUSH1 0x0 DUP1 RETURNDATACOPY RETURNDATASIZE PUSH1 0x0 REVERT JUMPDEST POP POP POP POP PUSH1 0x40 MLOAD RETURNDATASIZE PUSH1 0x1F NOT PUSH1 0x1F DUP3 ADD AND DUP3 ADD DUP1 PUSH1 0x40 MSTORE POP DUP2 ADD SWAP1 PUSH2 0x811 SWAP2 SWAP1 PUSH2 0x12CC JUMP JUMPDEST POP PUSH1 0x40 DUP1 MLOAD PUSH1 0x1 PUSH1 0x1 PUSH1 0xA0 SHL SUB DUP1 DUP7 AND DUP3 MSTORE DUP5 AND PUSH1 0x20 DUP3 ADD MSTORE SWAP1 DUP2 ADD DUP3 SWAP1 MSTORE TIMESTAMP PUSH1 0x60 DUP3 ADD MSTORE PUSH32 0xB818A975F91276DF8BA59329BECBC23C793DF0D503C19AC296C3C372A1FA0461 SWAP1 PUSH1 0x80 ADD PUSH2 0x60D JUMP JUMPDEST PUSH1 0x0 SLOAD PUSH1 0x1 PUSH1 0x1 PUSH1 0xA0 SHL SUB AND CALLER EQ PUSH2 0x88A JUMPI PUSH1 0x40 MLOAD PUSH3 0x461BCD PUSH1 0xE5 SHL DUP2 MSTORE PUSH1 0x4 ADD PUSH2 0x51A SWAP1 PUSH2 0x1297 JUMP JUMPDEST PUSH1 0x2 DUP1 SLOAD PUSH1 0x1 PUSH1 0x1 PUSH1 0xA0 SHL SUB DUP4 DUP2 AND PUSH1 0x1 PUSH1 0x1 PUSH1 0xA0 SHL SUB NOT DUP4 AND DUP2 OR SWAP1 SWAP4 SSTORE PUSH1 0x40 DUP1 MLOAD SWAP2 SWAP1 SWAP3 AND DUP1 DUP3 MSTORE PUSH1 0x20 DUP3 ADD SWAP4 SWAP1 SWAP4 MSTORE DUP4 SWAP2 PUSH32 0xABDF056C85A221FCB31D0366C4475B6B2C613DF2EEEA951A9FCB3E1A8595D973 SWAP2 ADD PUSH2 0x60D JUMP JUMPDEST PUSH1 0x2 PUSH1 0x1 SLOAD SUB PUSH2 0x938 JUMPI PUSH1 0x40 MLOAD PUSH3 0x461BCD PUSH1 0xE5 SHL DUP2 MSTORE PUSH1 0x20 PUSH1 0x4 DUP3 ADD MSTORE PUSH1 0x1F PUSH1 0x24 DUP3 ADD MSTORE PUSH32 0x5265656E7472616E637947756172643A207265656E7472616E742063616C6C00 PUSH1 0x44 DUP3 ADD MSTORE PUSH1 0x64 ADD PUSH2 0x51A JUMP JUMPDEST PUSH1 0x2 PUSH1 0x1 SSTORE DUP1 PUSH2 0x982 JUMPI PUSH1 0x40 MLOAD PUSH3 0x461BCD PUSH1 0xE5 SHL DUP2 MSTORE PUSH1 0x20 PUSH1 0x4 DUP3 ADD MSTORE PUSH1 0x15 PUSH1 0x24 DUP3 ADD MSTORE PUSH21 0x26B4B73A1034B9903737BA1030B8383937BB32B217 PUSH1 0x59 SHL PUSH1 0x44 DUP3 ADD MSTORE PUSH1 0x64 ADD PUSH2 0x51A JUMP JUMPDEST DUP1 PUSH1 0x3 SLOAD EQ PUSH2 0x9E3 JUMPI PUSH1 0x40 MLOAD PUSH3 0x461BCD PUSH1 0xE5 SHL DUP2 MSTORE PUSH1 0x20 PUSH1 0x4 DUP3 ADD MSTORE PUSH1 0x27 PUSH1 0x24 DUP3 ADD MSTORE PUSH32 0x436F6E747261637420617265206E6F7420696E2074686973206D696E74696E67 PUSH1 0x44 DUP3 ADD MSTORE PUSH7 0x103937BAB73217 PUSH1 0xC9 SHL PUSH1 0x64 DUP3 ADD MSTORE PUSH1 0x84 ADD PUSH2 0x51A JUMP JUMPDEST PUSH2 0x9EB PUSH2 0x47D JUMP JUMPDEST DUP3 PUSH2 0x9F4 PUSH2 0xEDD JUMP JUMPDEST PUSH2 0x9FE SWAP2 SWAP1 PUSH2 0x1304 JUMP JUMPDEST LT PUSH2 0xA39 JUMPI PUSH1 0x40 MLOAD PUSH3 0x461BCD PUSH1 0xE5 SHL DUP2 MSTORE PUSH1 0x20 PUSH1 0x4 DUP3 ADD MSTORE PUSH1 0xB PUSH1 0x24 DUP3 ADD MSTORE PUSH11 0x4F76657220737570706C79 PUSH1 0xA8 SHL PUSH1 0x44 DUP3 ADD MSTORE PUSH1 0x64 ADD PUSH2 0x51A JUMP JUMPDEST CALLER PUSH1 0x0 SWAP1 DUP2 MSTORE PUSH1 0x5 PUSH1 0x20 SWAP1 DUP2 MSTORE PUSH1 0x40 DUP1 DUP4 KECCAK256 DUP5 DUP5 MSTORE SWAP1 SWAP2 MSTORE SWAP1 KECCAK256 SLOAD PUSH1 0xFF AND ISZERO PUSH2 0xAA4 JUMPI PUSH1 0x40 MLOAD PUSH3 0x461BCD PUSH1 0xE5 SHL DUP2 MSTORE PUSH1 0x20 PUSH1 0x4 DUP3 ADD MSTORE PUSH1 0x17 PUSH1 0x24 DUP3 ADD MSTORE PUSH32 0x596F752061726520616C7265616479206D696E7465642E000000000000000000 PUSH1 0x44 DUP3 ADD MSTORE PUSH1 0x64 ADD PUSH2 0x51A JUMP JUMPDEST PUSH1 0x2 SLOAD PUSH1 0x40 MLOAD PUSH4 0x55138F0D PUSH1 0xE1 SHL DUP2 MSTORE ADDRESS PUSH1 0x4 DUP3 ADD MSTORE PUSH1 0x1 PUSH1 0x1 PUSH1 0xA0 SHL SUB SWAP1 SWAP2 AND SWAP1 PUSH4 0xAA271E1A SWAP1 PUSH1 0x24 ADD PUSH1 0x20 PUSH1 0x40 MLOAD DUP1 DUP4 SUB DUP2 DUP7 GAS STATICCALL ISZERO DUP1 ISZERO PUSH2 0xAEC JUMPI RETURNDATASIZE PUSH1 0x0 DUP1 RETURNDATACOPY RETURNDATASIZE PUSH1 0x0 REVERT JUMPDEST POP POP POP POP PUSH1 0x40 MLOAD RETURNDATASIZE PUSH1 0x1F NOT PUSH1 0x1F DUP3 ADD AND DUP3 ADD DUP1 PUSH1 0x40 MSTORE POP DUP2 ADD SWAP1 PUSH2 0xB10 SWAP2 SWAP1 PUSH2 0x12CC JUMP JUMPDEST PUSH2 0xB5C JUMPI PUSH1 0x40 MLOAD PUSH3 0x461BCD PUSH1 0xE5 SHL DUP2 MSTORE PUSH1 0x20 PUSH1 0x4 DUP3 ADD MSTORE PUSH1 0x1E PUSH1 0x24 DUP3 ADD MSTORE PUSH32 0x436F6E7472616374204D696E74206973206E6F7420617070726F7665642E0000 PUSH1 0x44 DUP3 ADD MSTORE PUSH1 0x64 ADD PUSH2 0x51A JUMP JUMPDEST PUSH2 0xBDF DUP5 DUP5 DUP1 DUP1 PUSH1 0x20 MUL PUSH1 0x20 ADD PUSH1 0x40 MLOAD SWAP1 DUP2 ADD PUSH1 0x40 MSTORE DUP1 SWAP4 SWAP3 SWAP2 SWAP1 DUP2 DUP2 MSTORE PUSH1 0x20 ADD DUP4 DUP4 PUSH1 0x20 MUL DUP1 DUP3 DUP5 CALLDATACOPY PUSH1 0x0 SWAP3 ADD SWAP2 SWAP1 SWAP2 MSTORE POP POP PUSH1 0x4 SLOAD PUSH1 0x40 MLOAD PUSH12 0xFFFFFFFFFFFFFFFFFFFFFFFF NOT CALLER PUSH1 0x60 SHL AND PUSH1 0x20 DUP3 ADD MSTORE PUSH1 0x34 DUP2 ADD DUP9 SWAP1 MSTORE PUSH1 0x54 DUP2 ADD DUP8 SWAP1 MSTORE SWAP1 SWAP3 POP PUSH1 0x74 ADD SWAP1 POP PUSH1 0x40 MLOAD PUSH1 0x20 DUP2 DUP4 SUB SUB DUP2 MSTORE SWAP1 PUSH1 0x40 MSTORE DUP1 MLOAD SWAP1 PUSH1 0x20 ADD KECCAK256 PUSH2 0x107A JUMP JUMPDEST PUSH2 0xC39 JUMPI PUSH1 0x40 MLOAD PUSH3 0x461BCD PUSH1 0xE5 SHL DUP2 MSTORE PUSH1 0x20 PUSH1 0x4 DUP3 ADD MSTORE PUSH1 0x25 PUSH1 0x24 DUP3 ADD MSTORE PUSH32 0x556E617574686F72697A65642057686974656C6973744D696E74205468697320 PUSH1 0x44 DUP3 ADD MSTORE PUSH5 0x2AB9B2B917 PUSH1 0xD9 SHL PUSH1 0x64 DUP3 ADD MSTORE PUSH1 0x84 ADD PUSH2 0x51A JUMP JUMPDEST CALLER PUSH1 0x0 DUP2 DUP2 MSTORE PUSH1 0x5 PUSH1 0x20 SWAP1 DUP2 MSTORE PUSH1 0x40 DUP1 DUP4 KECCAK256 DUP6 DUP5 MSTORE DUP3 MSTORE DUP1 DUP4 KECCAK256 DUP1 SLOAD PUSH1 0xFF NOT AND PUSH1 0x1 OR SWAP1 SSTORE SWAP3 DUP3 MSTORE PUSH1 0x6 DUP2 MSTORE DUP3 DUP3 KECCAK256 DUP5 DUP4 MSTORE SWAP1 MSTORE SWAP1 DUP2 KECCAK256 DUP1 SLOAD DUP5 SWAP3 SWAP1 PUSH2 0xC80 SWAP1 DUP5 SWAP1 PUSH2 0x1304 JUMP JUMPDEST SWAP1 SWAP2 SSTORE POP POP PUSH1 0x2 SLOAD PUSH1 0x40 MLOAD PUSH4 0x43508B05 PUSH1 0xE0 SHL DUP2 MSTORE CALLER PUSH1 0x4 DUP3 ADD MSTORE PUSH1 0x24 DUP2 ADD DUP5 SWAP1 MSTORE PUSH1 0x1 PUSH1 0x1 PUSH1 0xA0 SHL SUB SWAP1 SWAP2 AND SWAP1 PUSH4 0x43508B05 SWAP1 PUSH1 0x44 ADD PUSH1 0x0 PUSH1 0x40 MLOAD DUP1 DUP4 SUB DUP2 PUSH1 0x0 DUP8 DUP1 EXTCODESIZE ISZERO DUP1 ISZERO PUSH2 0xCD1 JUMPI PUSH1 0x0 DUP1 REVERT JUMPDEST POP GAS CALL ISZERO DUP1 ISZERO PUSH2 0xCE5 JUMPI RETURNDATASIZE PUSH1 0x0 DUP1 RETURNDATACOPY RETURNDATASIZE PUSH1 0x0 REVERT JUMPDEST POP POP PUSH1 0x40 DUP1 MLOAD DUP6 DUP2 MSTORE TIMESTAMP PUSH1 0x20 DUP3 ADD MSTORE CALLER SWAP4 POP PUSH32 0x25B428DFDE728CCFADDAD7E29E4AC23C24ED7FD1A6E3E3F91894A9A073F5DFFF SWAP3 POP ADD PUSH1 0x40 MLOAD DUP1 SWAP2 SUB SWAP1 LOG2 POP POP PUSH1 0x1 DUP1 SSTORE POP POP JUMP JUMPDEST PUSH1 0x0 SLOAD PUSH1 0x1 PUSH1 0x1 PUSH1 0xA0 SHL SUB AND CALLER EQ PUSH2 0xD57 JUMPI PUSH1 0x40 MLOAD PUSH3 0x461BCD PUSH1 0xE5 SHL DUP2 MSTORE PUSH1 0x4 ADD PUSH2 0x51A SWAP1 PUSH2 0x1297 JUMP JUMPDEST PUSH1 0x40 MLOAD PUSH4 0x31A9108F PUSH1 0xE1 SHL DUP2 MSTORE PUSH1 0x4 DUP2 ADD DUP3 SWAP1 MSTORE ADDRESS SWAP1 PUSH1 0x1 PUSH1 0x1 PUSH1 0xA0 SHL SUB DUP5 AND SWAP1 PUSH4 0x6352211E SWAP1 PUSH1 0x24 ADD PUSH1 0x20 PUSH1 0x40 MLOAD DUP1 DUP4 SUB DUP2 DUP7 GAS STATICCALL ISZERO DUP1 ISZERO PUSH2 0xD9E JUMPI RETURNDATASIZE PUSH1 0x0 DUP1 RETURNDATACOPY RETURNDATASIZE PUSH1 0x0 REVERT JUMPDEST POP POP POP POP PUSH1 0x40 MLOAD RETURNDATASIZE PUSH1 0x1F NOT PUSH1 0x1F DUP3 ADD AND DUP3 ADD DUP1 PUSH1 0x40 MSTORE POP DUP2 ADD SWAP1 PUSH2 0xDC2 SWAP2 SWAP1 PUSH2 0x131C JUMP JUMPDEST PUSH1 0x1 PUSH1 0x1 PUSH1 0xA0 SHL SUB AND EQ PUSH2 0xE26 JUMPI PUSH1 0x40 MLOAD PUSH3 0x461BCD PUSH1 0xE5 SHL DUP2 MSTORE PUSH1 0x20 PUSH1 0x4 DUP3 ADD MSTORE PUSH1 0x25 PUSH1 0x24 DUP3 ADD MSTORE PUSH32 0x5468697320746F6B656E4964206973206E6F74206F776E656420627920636F6E PUSH1 0x44 DUP3 ADD MSTORE PUSH5 0x1D1C9858DD PUSH1 0xDA SHL PUSH1 0x64 DUP3 ADD MSTORE PUSH1 0x84 ADD PUSH2 0x51A JUMP JUMPDEST PUSH1 0x40 MLOAD PUSH4 0x21421707 PUSH1 0xE1 SHL DUP2 MSTORE ADDRESS PUSH1 0x4 DUP3 ADD MSTORE PUSH1 0x1 PUSH1 0x1 PUSH1 0xA0 SHL SUB DUP5 DUP2 AND PUSH1 0x24 DUP4 ADD MSTORE PUSH1 0x44 DUP3 ADD DUP4 SWAP1 MSTORE DUP4 AND SWAP1 PUSH4 0x42842E0E SWAP1 PUSH1 0x64 ADD PUSH1 0x0 PUSH1 0x40 MLOAD DUP1 DUP4 SUB DUP2 PUSH1 0x0 DUP8 DUP1 EXTCODESIZE ISZERO DUP1 ISZERO PUSH2 0xE76 JUMPI PUSH1 0x0 DUP1 REVERT JUMPDEST POP GAS CALL ISZERO DUP1 ISZERO PUSH2 0xE8A JUMPI RETURNDATASIZE PUSH1 0x0 DUP1 RETURNDATACOPY RETURNDATASIZE PUSH1 0x0 REVERT JUMPDEST POP POP PUSH1 0x40 DUP1 MLOAD PUSH1 0x1 PUSH1 0x1 PUSH1 0xA0 SHL SUB DUP1 DUP9 AND DUP3 MSTORE DUP7 AND PUSH1 0x20 DUP3 ADD MSTORE SWAP1 DUP2 ADD DUP5 SWAP1 MSTORE TIMESTAMP PUSH1 0x60 DUP3 ADD MSTORE PUSH32 0x127A8D3F57942833F6930572BCE52AD882683E36EEB5830D199D3FA4BFA9467 SWAP3 POP PUSH1 0x80 ADD SWAP1 POP PUSH2 0x60D JUMP JUMPDEST PUSH1 0x2 SLOAD PUSH1 0x40 DUP1 MLOAD PUSH4 0x18160DDD PUSH1 0xE0 SHL DUP2 MSTORE SWAP1 MLOAD PUSH1 0x0 SWAP3 PUSH1 0x1 PUSH1 0x1 PUSH1 0xA0 SHL SUB AND SWAP2 PUSH4 0x18160DDD SWAP2 PUSH1 0x4 DUP1 DUP4 ADD SWAP3 PUSH1 0x20 SWAP3 SWAP2 SWAP1 DUP3 SWAP1 SUB ADD DUP2 DUP7 GAS STATICCALL ISZERO DUP1 ISZERO PUSH2 0x4C7 JUMPI RETURNDATASIZE PUSH1 0x0 DUP1 RETURNDATACOPY RETURNDATASIZE PUSH1 0x0 REVERT JUMPDEST PUSH1 0x0 SLOAD PUSH1 0x1 PUSH1 0x1 PUSH1 0xA0 SHL SUB AND CALLER EQ PUSH2 0xF51 JUMPI PUSH1 0x40 MLOAD PUSH3 0x461BCD PUSH1 0xE5 SHL DUP2 MSTORE PUSH1 0x4 ADD PUSH2 0x51A SWAP1 PUSH2 0x1297 JUMP JUMPDEST PUSH1 0x1 PUSH1 0x1 PUSH1 0xA0 SHL SUB DUP2 AND PUSH2 0xFB6 JUMPI PUSH1 0x40 MLOAD PUSH3 0x461BCD PUSH1 0xE5 SHL DUP2 MSTORE PUSH1 0x20 PUSH1 0x4 DUP3 ADD MSTORE PUSH1 0x26 PUSH1 0x24 DUP3 ADD MSTORE PUSH32 0x4F776E61626C653A206E6577206F776E657220697320746865207A65726F2061 PUSH1 0x44 DUP3 ADD MSTORE PUSH6 0x646472657373 PUSH1 0xD0 SHL PUSH1 0x64 DUP3 ADD MSTORE PUSH1 0x84 ADD PUSH2 0x51A JUMP JUMPDEST PUSH2 0xFBF DUP2 PUSH2 0x102A JUMP JUMPDEST POP JUMP JUMPDEST PUSH1 0x0 SLOAD PUSH1 0x1 PUSH1 0x1 PUSH1 0xA0 SHL SUB AND CALLER EQ PUSH2 0xFEC JUMPI PUSH1 0x40 MLOAD PUSH3 0x461BCD PUSH1 0xE5 SHL DUP2 MSTORE PUSH1 0x4 ADD PUSH2 0x51A SWAP1 PUSH2 0x1297 JUMP JUMPDEST PUSH1 0x3 DUP1 SLOAD SWAP1 DUP3 SWAP1 SSTORE PUSH1 0x40 DUP1 MLOAD DUP3 DUP2 MSTORE PUSH1 0x20 DUP2 ADD DUP5 SWAP1 MSTORE PUSH32 0x521EC96875CA228CD2FC1DBD4C927A34328C9CE1A83BCB8C1F633F012C90D785 SWAP2 ADD PUSH2 0x6B4 JUMP JUMPDEST PUSH1 0x0 DUP1 SLOAD PUSH1 0x1 PUSH1 0x1 PUSH1 0xA0 SHL SUB DUP4 DUP2 AND PUSH1 0x1 PUSH1 0x1 PUSH1 0xA0 SHL SUB NOT DUP4 AND DUP2 OR DUP5 SSTORE PUSH1 0x40 MLOAD SWAP2 SWAP1 SWAP3 AND SWAP3 DUP4 SWAP2 PUSH32 0x8BE0079C531659141344CD1FD0A4F28419497F9722A3DAAFE3B4186F6B6457E0 SWAP2 SWAP1 LOG3 POP POP JUMP JUMPDEST PUSH1 0x0 DUP3 PUSH2 0x1087 DUP6 DUP5 PUSH2 0x1090 JUMP JUMPDEST EQ SWAP5 SWAP4 POP POP POP POP JUMP JUMPDEST PUSH1 0x0 DUP2 DUP2 JUMPDEST DUP5 MLOAD DUP2 LT ISZERO PUSH2 0x10FC JUMPI PUSH1 0x0 DUP6 DUP3 DUP2 MLOAD DUP2 LT PUSH2 0x10B2 JUMPI PUSH2 0x10B2 PUSH2 0x1339 JUMP JUMPDEST PUSH1 0x20 MUL PUSH1 0x20 ADD ADD MLOAD SWAP1 POP DUP1 DUP4 GT PUSH2 0x10D8 JUMPI PUSH1 0x0 DUP4 DUP2 MSTORE PUSH1 0x20 DUP3 SWAP1 MSTORE PUSH1 0x40 SWAP1 KECCAK256 SWAP3 POP PUSH2 0x10E9 JUMP JUMPDEST PUSH1 0x0 DUP2 DUP2 MSTORE PUSH1 0x20 DUP5 SWAP1 MSTORE PUSH1 0x40 SWAP1 KECCAK256 SWAP3 POP JUMPDEST POP DUP1 PUSH2 0x10F4 DUP2 PUSH2 0x134F JUMP JUMPDEST SWAP2 POP POP PUSH2 0x1095 JUMP JUMPDEST POP SWAP4 SWAP3 POP POP POP JUMP JUMPDEST PUSH1 0x1 PUSH1 0x1 PUSH1 0xA0 SHL SUB DUP2 AND DUP2 EQ PUSH2 0xFBF JUMPI PUSH1 0x0 DUP1 REVERT JUMPDEST PUSH1 0x0 PUSH1 0x20 DUP3 DUP5 SUB SLT ISZERO PUSH2 0x112B JUMPI PUSH1 0x0 DUP1 REVERT JUMPDEST DUP2 CALLDATALOAD PUSH2 0x1136 DUP2 PUSH2 0x1104 JUMP JUMPDEST SWAP4 SWAP3 POP POP POP JUMP JUMPDEST PUSH1 0x0 PUSH1 0x20 DUP3 DUP5 SUB SLT ISZERO PUSH2 0x114F JUMPI PUSH1 0x0 DUP1 REVERT JUMPDEST POP CALLDATALOAD SWAP2 SWAP1 POP JUMP JUMPDEST PUSH1 0x0 DUP1 PUSH1 0x40 DUP4 DUP6 SUB SLT ISZERO PUSH2 0x1169 JUMPI PUSH1 0x0 DUP1 REVERT JUMPDEST DUP3 CALLDATALOAD PUSH2 0x1174 DUP2 PUSH2 0x1104 JUMP JUMPDEST SWAP2 POP PUSH1 0x20 DUP4 ADD CALLDATALOAD PUSH2 0x1184 DUP2 PUSH2 0x1104 JUMP JUMPDEST DUP1 SWAP2 POP POP SWAP3 POP SWAP3 SWAP1 POP JUMP JUMPDEST PUSH1 0x0 DUP1 PUSH1 0x0 DUP1 PUSH1 0x60 DUP6 DUP8 SUB SLT ISZERO PUSH2 0x11A5 JUMPI PUSH1 0x0 DUP1 REVERT JUMPDEST DUP5 CALLDATALOAD PUSH8 0xFFFFFFFFFFFFFFFF DUP1 DUP3 GT ISZERO PUSH2 0x11BD JUMPI PUSH1 0x0 DUP1 REVERT JUMPDEST DUP2 DUP8 ADD SWAP2 POP DUP8 PUSH1 0x1F DUP4 ADD SLT PUSH2 0x11D1 JUMPI PUSH1 0x0 DUP1 REVERT JUMPDEST DUP2 CALLDATALOAD DUP2 DUP2 GT ISZERO PUSH2 0x11E0 JUMPI PUSH1 0x0 DUP1 REVERT JUMPDEST DUP9 PUSH1 0x20 DUP3 PUSH1 0x5 SHL DUP6 ADD ADD GT ISZERO PUSH2 0x11F5 JUMPI PUSH1 0x0 DUP1 REVERT JUMPDEST PUSH1 0x20 SWAP3 DUP4 ADD SWAP10 SWAP1 SWAP9 POP SWAP2 DUP8 ADD CALLDATALOAD SWAP7 PUSH1 0x40 ADD CALLDATALOAD SWAP6 POP SWAP1 SWAP4 POP POP POP POP JUMP JUMPDEST PUSH1 0x0 DUP1 PUSH1 0x40 DUP4 DUP6 SUB SLT ISZERO PUSH2 0x1224 JUMPI PUSH1 0x0 DUP1 REVERT JUMPDEST DUP3 CALLDATALOAD PUSH2 0x122F DUP2 PUSH2 0x1104 JUMP JUMPDEST SWAP5 PUSH1 0x20 SWAP4 SWAP1 SWAP4 ADD CALLDATALOAD SWAP4 POP POP POP JUMP JUMPDEST PUSH1 0x0 DUP1 PUSH1 0x0 PUSH1 0x60 DUP5 DUP7 SUB SLT ISZERO PUSH2 0x1252 JUMPI PUSH1 0x0 DUP1 REVERT JUMPDEST DUP4 CALLDATALOAD PUSH2 0x125D DUP2 PUSH2 0x1104 JUMP JUMPDEST SWAP3 POP PUSH1 0x20 DUP5 ADD CALLDATALOAD PUSH2 0x126D DUP2 PUSH2 0x1104 JUMP JUMPDEST SWAP3 SWAP6 SWAP3 SWAP5 POP POP POP PUSH1 0x40 SWAP2 SWAP1 SWAP2 ADD CALLDATALOAD SWAP1 JUMP JUMPDEST PUSH1 0x0 PUSH1 0x20 DUP3 DUP5 SUB SLT ISZERO PUSH2 0x1290 JUMPI PUSH1 0x0 DUP1 REVERT JUMPDEST POP MLOAD SWAP2 SWAP1 POP JUMP JUMPDEST PUSH1 0x20 DUP1 DUP3 MSTORE DUP2 DUP2 ADD MSTORE PUSH32 0x4F776E61626C653A2063616C6C6572206973206E6F7420746865206F776E6572 PUSH1 0x40 DUP3 ADD MSTORE PUSH1 0x60 ADD SWAP1 JUMP JUMPDEST PUSH1 0x0 PUSH1 0x20 DUP3 DUP5 SUB SLT ISZERO PUSH2 0x12DE JUMPI PUSH1 0x0 DUP1 REVERT JUMPDEST DUP2 MLOAD DUP1 ISZERO ISZERO DUP2 EQ PUSH2 0x1136 JUMPI PUSH1 0x0 DUP1 REVERT JUMPDEST PUSH4 0x4E487B71 PUSH1 0xE0 SHL PUSH1 0x0 MSTORE PUSH1 0x11 PUSH1 0x4 MSTORE PUSH1 0x24 PUSH1 0x0 REVERT JUMPDEST PUSH1 0x0 DUP3 NOT DUP3 GT ISZERO PUSH2 0x1317 JUMPI PUSH2 0x1317 PUSH2 0x12EE JUMP JUMPDEST POP ADD SWAP1 JUMP JUMPDEST PUSH1 0x0 PUSH1 0x20 DUP3 DUP5 SUB SLT ISZERO PUSH2 0x132E JUMPI PUSH1 0x0 DUP1 REVERT JUMPDEST DUP2 MLOAD PUSH2 0x1136 DUP2 PUSH2 0x1104 JUMP JUMPDEST PUSH4 0x4E487B71 PUSH1 0xE0 SHL PUSH1 0x0 MSTORE PUSH1 0x32 PUSH1 0x4 MSTORE PUSH1 0x24 PUSH1 0x0 REVERT JUMPDEST PUSH1 0x0 PUSH1 0x1 DUP3 ADD PUSH2 0x1361 JUMPI PUSH2 0x1361 PUSH2 0x12EE JUMP JUMPDEST POP PUSH1 0x1 ADD SWAP1 JUMP INVALID LOG2 PUSH5 0x6970667358 0x22 SLT KECCAK256 JUMPDEST DELEGATECALL JUMPDEST 0xE0 0x2A 0xE9 STATICCALL SAR 0xEA PUSH19 0xBBC524FCBA92D7BE63B0BCB95D6BABACB4FFF 0xA5 RETURNDATASIZE 0xB7 PUSH5 0x736F6C6343 STOP ADDMOD 0xF STOP CALLER 0x4F PUSH24 0x6E61626C653A2063616C6C6572206973206E6F7420746865 KECCAK256 PUSH16 0x776E6572000000000000000000000000 "
		},
		"gasEstimates": {
			"creation": {
				"codeDepositCost": "1004400",
				"executionCost": "infinite",
				"totalCost": "infinite"
			},
			"external": {
				"DEFAULT()": "208",
				"NAGA_HOLDER_MINT_ROUND()": "230",
				"SPECIAL_MINT_ROUND()": "207",
				"WHITELIST_MINT_ROUND()": "272",
				"WITHDRAW_ROLE()": "206",
				"currentMintRound()": "2328",
				"getMaxSupply()": "infinite",
				"getTotalSupply()": "infinite",
				"isUserMinted(address,bytes32)": "2774",
				"merkleRoot()": "2352",
				"mint(bytes32[],uint256,bytes32)": "infinite",
				"nagaKidContract()": "2448",
				"owner()": "2431",
				"renounceOwnership()": "28159",
				"setMerkleRoot(bytes32)": "27982",
				"setNagaKidContract(address)": "28208",
				"setRound(bytes32)": "28036",
				"transferOwnership(address)": "infinite",
				"userMintedAmount(address,bytes32)": "2664",
				"withdraw(address)": "infinite",
				"withdrawCurrency(address,address)": "infinite",
				"withdrawNFT(address,address,uint256)": "infinite"
			}
		},
		"methodIdentifiers": {
			"DEFAULT()": "0a25dea9",
			"NAGA_HOLDER_MINT_ROUND()": "24c37a85",
			"SPECIAL_MINT_ROUND()": "5b94bbc3",
			"WHITELIST_MINT_ROUND()": "f500cdfc",
			"WITHDRAW_ROLE()": "e02023a1",
			"currentMintRound()": "ef5fe79f",
			"getMaxSupply()": "4c0f38c2",
			"getTotalSupply()": "c4e41b22",
			"isUserMinted(address,bytes32)": "ffdc6129",
			"merkleRoot()": "2eb4a7ab",
			"mint(bytes32[],uint256,bytes32)": "9f930765",
			"nagaKidContract()": "df4e5881",
			"owner()": "8da5cb5b",
			"renounceOwnership()": "715018a6",
			"setMerkleRoot(bytes32)": "7cb64759",
			"setNagaKidContract(address)": "9e6c8855",
			"setRound(bytes32)": "ff05fe4a",
			"transferOwnership(address)": "f2fde38b",
			"userMintedAmount(address,bytes32)": "b5abafa1",
			"withdraw(address)": "51cff8d9",
			"withdrawCurrency(address,address)": "8407ecc4",
			"withdrawNFT(address,address,uint256)": "bff863ec"
		}
	},
	"abi": [
		{
			"inputs": [
				{
					"internalType": "contract INagaKid",
					"name": "_nagaKidContract",
					"type": "address"
				},
				{
					"internalType": "bytes32",
					"name": "_merkleRoot",
					"type": "bytes32"
				}
			],
			"stateMutability": "nonpayable",
			"type": "constructor"
		},
		{
			"anonymous": false,
			"inputs": [
				{
					"indexed": false,
					"internalType": "bytes32",
					"name": "merkleRootBefore",
					"type": "bytes32"
				},
				{
					"indexed": false,
					"internalType": "bytes32",
					"name": "merkleRootAfter",
					"type": "bytes32"
				}
			],
			"name": "MerkleRootChanged",
			"type": "event"
		},
		{
			"anonymous": false,
			"inputs": [
				{
					"indexed": true,
					"internalType": "address",
					"name": "user",
					"type": "address"
				},
				{
					"indexed": false,
					"internalType": "uint256",
					"name": "amount",
					"type": "uint256"
				},
				{
					"indexed": false,
					"internalType": "uint256",
					"name": "timestamp",
					"type": "uint256"
				}
			],
			"name": "Minted",
			"type": "event"
		},
		{
			"anonymous": false,
			"inputs": [
				{
					"indexed": false,
					"internalType": "address",
					"name": "nagaKidBefore",
					"type": "address"
				},
				{
					"indexed": false,
					"internalType": "address",
					"name": "nagaKidAfter",
					"type": "address"
				}
			],
			"name": "NagaKidContractChanged",
			"type": "event"
		},
		{
			"anonymous": false,
			"inputs": [
				{
					"indexed": true,
					"internalType": "address",
					"name": "previousOwner",
					"type": "address"
				},
				{
					"indexed": true,
					"internalType": "address",
					"name": "newOwner",
					"type": "address"
				}
			],
			"name": "OwnershipTransferred",
			"type": "event"
		},
		{
			"anonymous": false,
			"inputs": [
				{
					"indexed": false,
					"internalType": "bytes32",
					"name": "roundBefore",
					"type": "bytes32"
				},
				{
					"indexed": false,
					"internalType": "bytes32",
					"name": "roundAfter",
					"type": "bytes32"
				}
			],
			"name": "RoundChanged",
			"type": "event"
		},
		{
			"anonymous": false,
			"inputs": [
				{
					"indexed": false,
					"internalType": "address",
					"name": "to",
					"type": "address"
				},
				{
					"indexed": false,
					"internalType": "uint256",
					"name": "balanceOFContract",
					"type": "uint256"
				},
				{
					"indexed": false,
					"internalType": "uint256",
					"name": "timestamp",
					"type": "uint256"
				}
			],
			"name": "Withdraw",
			"type": "event"
		},
		{
			"anonymous": false,
			"inputs": [
				{
					"indexed": false,
					"internalType": "address",
					"name": "to",
					"type": "address"
				},
				{
					"indexed": false,
					"internalType": "address",
					"name": "currency",
					"type": "address"
				},
				{
					"indexed": false,
					"internalType": "uint256",
					"name": "balanceOfContract",
					"type": "uint256"
				},
				{
					"indexed": false,
					"internalType": "uint256",
					"name": "timestamp",
					"type": "uint256"
				}
			],
			"name": "WithdrawCurrency",
			"type": "event"
		},
		{
			"anonymous": false,
			"inputs": [
				{
					"indexed": false,
					"internalType": "address",
					"name": "to",
					"type": "address"
				},
				{
					"indexed": false,
					"internalType": "address",
					"name": "NFT",
					"type": "address"
				},
				{
					"indexed": false,
					"internalType": "uint256",
					"name": "tokenId",
					"type": "uint256"
				},
				{
					"indexed": false,
					"internalType": "uint256",
					"name": "timestamp",
					"type": "uint256"
				}
			],
			"name": "WithdrawNFT",
			"type": "event"
		},
		{
			"inputs": [],
			"name": "DEFAULT",
			"outputs": [
				{
					"internalType": "bytes32",
					"name": "",
					"type": "bytes32"
				}
			],
			"stateMutability": "view",
			"type": "function"
		},
		{
			"inputs": [],
			"name": "NAGA_HOLDER_MINT_ROUND",
			"outputs": [
				{
					"internalType": "bytes32",
					"name": "",
					"type": "bytes32"
				}
			],
			"stateMutability": "view",
			"type": "function"
		},
		{
			"inputs": [],
			"name": "SPECIAL_MINT_ROUND",
			"outputs": [
				{
					"internalType": "bytes32",
					"name": "",
					"type": "bytes32"
				}
			],
			"stateMutability": "view",
			"type": "function"
		},
		{
			"inputs": [],
			"name": "WHITELIST_MINT_ROUND",
			"outputs": [
				{
					"internalType": "bytes32",
					"name": "",
					"type": "bytes32"
				}
			],
			"stateMutability": "view",
			"type": "function"
		},
		{
			"inputs": [],
			"name": "WITHDRAW_ROLE",
			"outputs": [
				{
					"internalType": "bytes32",
					"name": "",
					"type": "bytes32"
				}
			],
			"stateMutability": "view",
			"type": "function"
		},
		{
			"inputs": [],
			"name": "currentMintRound",
			"outputs": [
				{
					"internalType": "bytes32",
					"name": "",
					"type": "bytes32"
				}
			],
			"stateMutability": "view",
			"type": "function"
		},
		{
			"inputs": [],
			"name": "getMaxSupply",
			"outputs": [
				{
					"internalType": "uint256",
					"name": "",
					"type": "uint256"
				}
			],
			"stateMutability": "view",
			"type": "function"
		},
		{
			"inputs": [],
			"name": "getTotalSupply",
			"outputs": [
				{
					"internalType": "uint256",
					"name": "",
					"type": "uint256"
				}
			],
			"stateMutability": "view",
			"type": "function"
		},
		{
			"inputs": [
				{
					"internalType": "address",
					"name": "_user",
					"type": "address"
				},
				{
					"internalType": "bytes32",
					"name": "_round",
					"type": "bytes32"
				}
			],
			"name": "isUserMinted",
			"outputs": [
				{
					"internalType": "bool",
					"name": "",
					"type": "bool"
				}
			],
			"stateMutability": "view",
			"type": "function"
		},
		{
			"inputs": [],
			"name": "merkleRoot",
			"outputs": [
				{
					"internalType": "bytes32",
					"name": "",
					"type": "bytes32"
				}
			],
			"stateMutability": "view",
			"type": "function"
		},
		{
			"inputs": [
				{
					"internalType": "bytes32[]",
					"name": "_proof",
					"type": "bytes32[]"
				},
				{
					"internalType": "uint256",
					"name": "_amount",
					"type": "uint256"
				},
				{
					"internalType": "bytes32",
					"name": "_round",
					"type": "bytes32"
				}
			],
			"name": "mint",
			"outputs": [],
			"stateMutability": "payable",
			"type": "function"
		},
		{
			"inputs": [],
			"name": "nagaKidContract",
			"outputs": [
				{
					"internalType": "contract INagaKid",
					"name": "",
					"type": "address"
				}
			],
			"stateMutability": "view",
			"type": "function"
		},
		{
			"inputs": [],
			"name": "owner",
			"outputs": [
				{
					"internalType": "address",
					"name": "",
					"type": "address"
				}
			],
			"stateMutability": "view",
			"type": "function"
		},
		{
			"inputs": [],
			"name": "renounceOwnership",
			"outputs": [],
			"stateMutability": "nonpayable",
			"type": "function"
		},
		{
			"inputs": [
				{
					"internalType": "bytes32",
					"name": "_merkleRoot",
					"type": "bytes32"
				}
			],
			"name": "setMerkleRoot",
			"outputs": [],
			"stateMutability": "nonpayable",
			"type": "function"
		},
		{
			"inputs": [
				{
					"internalType": "contract INagaKid",
					"name": "_nagaKid",
					"type": "address"
				}
			],
			"name": "setNagaKidContract",
			"outputs": [],
			"stateMutability": "nonpayable",
			"type": "function"
		},
		{
			"inputs": [
				{
					"internalType": "bytes32",
					"name": "_round",
					"type": "bytes32"
				}
			],
			"name": "setRound",
			"outputs": [],
			"stateMutability": "nonpayable",
			"type": "function"
		},
		{
			"inputs": [
				{
					"internalType": "address",
					"name": "newOwner",
					"type": "address"
				}
			],
			"name": "transferOwnership",
			"outputs": [],
			"stateMutability": "nonpayable",
			"type": "function"
		},
		{
			"inputs": [
				{
					"internalType": "address",
					"name": "_user",
					"type": "address"
				},
				{
					"internalType": "bytes32",
					"name": "_round",
					"type": "bytes32"
				}
			],
			"name": "userMintedAmount",
			"outputs": [
				{
					"internalType": "uint256",
					"name": "",
					"type": "uint256"
				}
			],
			"stateMutability": "view",
			"type": "function"
		},
		{
			"inputs": [
				{
					"internalType": "address",
					"name": "_to",
					"type": "address"
				}
			],
			"name": "withdraw",
			"outputs": [],
			"stateMutability": "nonpayable",
			"type": "function"
		},
		{
			"inputs": [
				{
					"internalType": "address",
					"name": "_to",
					"type": "address"
				},
				{
					"internalType": "address",
					"name": "_currency",
					"type": "address"
				}
			],
			"name": "withdrawCurrency",
			"outputs": [],
			"stateMutability": "nonpayable",
			"type": "function"
		},
		{
			"inputs": [
				{
					"internalType": "address",
					"name": "_to",
					"type": "address"
				},
				{
					"internalType": "address",
					"name": "_NFT",
					"type": "address"
				},
				{
					"internalType": "uint256",
					"name": "_tokenId",
					"type": "uint256"
				}
			],
			"name": "withdrawNFT",
			"outputs": [],
			"stateMutability": "nonpayable",
			"type": "function"
		}
	]
}